{"contracts/JinbaoProtocolProduction.sol":{"JinbaoProtocolProduction":{"abi":[{"inputs":[{"internalType":"address","name":"target","type":"address"}],"name":"AddressEmptyCode","type":"error"},{"inputs":[{"internalType":"address","name":"implementation","type":"address"}],"name":"ERC1967InvalidImplementation","type":"error"},{"inputs":[],"name":"ERC1967NonPayable","type":"error"},{"inputs":[],"name":"FailedCall","type":"error"},{"inputs":[],"name":"InvalidInitialization","type":"error"},{"inputs":[],"name":"NotInitializing","type":"error"},{"inputs":[{"internalType":"address","name":"owner","type":"address"}],"name":"OwnableInvalidOwner","type":"error"},{"inputs":[{"internalType":"address","name":"account","type":"address"}],"name":"OwnableUnauthorizedAccount","type":"error"},{"inputs":[],"name":"ReentrancyGuardReentrantCall","type":"error"},{"inputs":[],"name":"UUPSUnauthorizedCallContext","type":"error"},{"inputs":[{"internalType":"bytes32","name":"slot","type":"bytes32"}],"name":"UUPSUnsupportedProxiableUUID","type":"error"},{"anonymous":false,"inputs":[{"indexed":true,"internalType":"address","name":"user","type":"address"},{"indexed":true,"internalType":"address","name":"referrer","type":"address"}],"name":"BoundReferrer","type":"event"},{"anonymous":false,"inputs":[{"indexed":true,"internalType":"uint256","name":"stakeId","type":"uint256"},{"indexed":true,"internalType":"address","name":"upline","type":"address"},{"indexed":false,"internalType":"uint256","name":"amount","type":"uint256"}],"name":"DifferentialRewardRecorded","type":"event"},{"anonymous":false,"inputs":[{"indexed":true,"internalType":"uint256","name":"stakeId","type":"uint256"},{"indexed":true,"internalType":"address","name":"upline","type":"address"},{"indexed":false,"internalType":"uint256","name":"amount","type":"uint256"}],"name":"DifferentialRewardReleased","type":"event"},{"anonymous":false,"inputs":[{"indexed":false,"internalType":"uint64","name":"version","type":"uint64"}],"name":"Initialized","type":"event"},{"anonymous":false,"inputs":[{"indexed":true,"internalType":"address","name":"user","type":"address"},{"indexed":false,"internalType":"uint256","name":"amount","type":"uint256"},{"indexed":false,"internalType":"uint256","name":"cycleDays","type":"uint256"},{"indexed":false,"internalType":"uint256","name":"stakeId","type":"uint256"}],"name":"LiquidityStaked","type":"event"},{"anonymous":false,"inputs":[{"indexed":true,"internalType":"address","name":"previousOwner","type":"address"},{"indexed":true,"internalType":"address","name":"newOwner","type":"address"}],"name":"OwnershipTransferred","type":"event"},{"anonymous":false,"inputs":[{"indexed":true,"internalType":"address","name":"user","type":"address"},{"indexed":true,"internalType":"address","name":"from","type":"address"},{"indexed":false,"internalType":"uint256","name":"mcAmount","type":"uint256"},{"indexed":false,"internalType":"uint8","name":"rewardType","type":"uint8"},{"indexed":false,"internalType":"uint256","name":"ticketId","type":"uint256"}],"name":"ReferralRewardPaid","type":"event"},{"anonymous":false,"inputs":[{"indexed":true,"internalType":"address","name":"user","type":"address"},{"indexed":false,"internalType":"uint256","name":"mcAmount","type":"uint256"},{"indexed":false,"internalType":"uint256","name":"jbcAmount","type":"uint256"},{"indexed":false,"internalType":"uint8","name":"rewardType","type":"uint8"},{"indexed":false,"internalType":"uint256","name":"ticketId","type":"uint256"}],"name":"RewardClaimed","type":"event"},{"anonymous":false,"inputs":[{"indexed":true,"internalType":"address","name":"user","type":"address"},{"indexed":false,"internalType":"uint256","name":"amount","type":"uint256"},{"indexed":false,"internalType":"uint8","name":"rewardType","type":"uint8"}],"name":"RewardPaid","type":"event"},{"anonymous":false,"inputs":[{"indexed":true,"internalType":"address","name":"user","type":"address"},{"indexed":false,"internalType":"uint256","name":"oldCount","type":"uint256"},{"indexed":false,"internalType":"uint256","name":"newCount","type":"uint256"}],"name":"TeamCountUpdated","type":"event"},{"anonymous":false,"inputs":[{"indexed":true,"internalType":"address","name":"user","type":"address"},{"indexed":false,"internalType":"uint256","name":"amount","type":"uint256"},{"indexed":false,"internalType":"uint256","name":"ticketId","type":"uint256"}],"name":"TicketPurchased","type":"event"},{"anonymous":false,"inputs":[{"indexed":true,"internalType":"address","name":"implementation","type":"address"}],"name":"Upgraded","type":"event"},{"anonymous":false,"inputs":[{"indexed":true,"internalType":"address","name":"user","type":"address"},{"indexed":false,"internalType":"uint256","name":"oldLevel","type":"uint256"},{"indexed":false,"internalType":"uint256","name":"newLevel","type":"uint256"},{"indexed":false,"internalType":"uint256","name":"teamCount","type":"uint256"}],"name":"UserLevelChanged","type":"event"},{"inputs":[],"name":"MAX_PRICE_IMPACT","outputs":[{"internalType":"uint256","name":"","type":"uint256"}],"stateMutability":"view","type":"function"},{"inputs":[],"name":"MIN_LIQUIDITY","outputs":[{"internalType":"uint256","name":"","type":"uint256"}],"stateMutability":"view","type":"function"},{"inputs":[],"name":"REWARD_DIFFERENTIAL","outputs":[{"internalType":"uint8","name":"","type":"uint8"}],"stateMutability":"view","type":"function"},{"inputs":[],"name":"REWARD_DIRECT","outputs":[{"internalType":"uint8","name":"","type":"uint8"}],"stateMutability":"view","type":"function"},{"inputs":[],"name":"REWARD_DYNAMIC","outputs":[{"internalType":"uint8","name":"","type":"uint8"}],"stateMutability":"view","type":"function"},{"inputs":[],"name":"REWARD_LEVEL","outputs":[{"internalType":"uint8","name":"","type":"uint8"}],"stateMutability":"view","type":"function"},{"inputs":[],"name":"REWARD_STATIC","outputs":[{"internalType":"uint8","name":"","type":"uint8"}],"stateMutability":"view","type":"function"},{"inputs":[],"name":"SECONDS_IN_UNIT","outputs":[{"internalType":"uint256","name":"","type":"uint256"}],"stateMutability":"view","type":"function"},{"inputs":[],"name":"UPGRADE_INTERFACE_VERSION","outputs":[{"internalType":"string","name":"","type":"string"}],"stateMutability":"view","type":"function"},{"inputs":[],"name":"buybackPercent","outputs":[{"internalType":"uint256","name":"","type":"uint256"}],"stateMutability":"view","type":"function"},{"inputs":[],"name":"buybackWallet","outputs":[{"internalType":"address","name":"","type":"address"}],"stateMutability":"view","type":"function"},{"inputs":[{"internalType":"uint256","name":"teamCount","type":"uint256"}],"name":"calculateLevel","outputs":[{"internalType":"uint256","name":"level","type":"uint256"},{"internalType":"uint256","name":"percent","type":"uint256"}],"stateMutability":"pure","type":"function"},{"inputs":[{"internalType":"address","name":"user","type":"address"}],"name":"calculateStakeRewards","outputs":[{"internalType":"uint256","name":"","type":"uint256"}],"stateMutability":"view","type":"function"},{"inputs":[{"internalType":"address","name":"","type":"address"},{"internalType":"uint256","name":"","type":"uint256"}],"name":"directReferrals","outputs":[{"internalType":"address","name":"","type":"address"}],"stateMutability":"view","type":"function"},{"inputs":[],"name":"directRewardPercent","outputs":[{"internalType":"uint256","name":"","type":"uint256"}],"stateMutability":"view","type":"function"},{"inputs":[],"name":"emergencyPaused","outputs":[{"internalType":"bool","name":"","type":"bool"}],"stateMutability":"view","type":"function"},{"inputs":[{"internalType":"address","name":"user","type":"address"}],"name":"getDirectReferrals","outputs":[{"internalType":"address[]","name":"","type":"address[]"}],"stateMutability":"view","type":"function"},{"inputs":[],"name":"getProductionConfig","outputs":[{"internalType":"uint256","name":"secondsInUnit","type":"uint256"},{"internalType":"string","name":"timeUnit","type":"string"},{"internalType":"uint256[3]","name":"supportedCycles","type":"uint256[3]"},{"internalType":"uint256[3]","name":"dailyRates","type":"uint256[3]"}],"stateMutability":"pure","type":"function"},{"inputs":[{"internalType":"address","name":"user","type":"address"},{"internalType":"uint256","name":"stakeIndex","type":"uint256"}],"name":"getStakeDetails","outputs":[{"internalType":"uint256","name":"amount","type":"uint256"},{"internalType":"uint256","name":"startTime","type":"uint256"},{"internalType":"uint256","name":"cycleDays","type":"uint256"},{"internalType":"bool","name":"active","type":"bool"},{"internalType":"uint256","name":"paid","type":"uint256"},{"internalType":"uint256","name":"daysRemaining","type":"uint256"},{"internalType":"uint256","name":"pendingRewards","type":"uint256"},{"internalType":"uint256","name":"dailyRate","type":"uint256"}],"stateMutability":"view","type":"function"},{"inputs":[{"internalType":"address","name":"user","type":"address"}],"name":"getUserLevel","outputs":[{"internalType":"uint256","name":"level","type":"uint256"},{"internalType":"uint256","name":"percent","type":"uint256"},{"internalType":"uint256","name":"teamCount","type":"uint256"}],"stateMutability":"view","type":"function"},{"inputs":[{"internalType":"address","name":"_mcToken","type":"address"},{"internalType":"address","name":"_jbcToken","type":"address"},{"internalType":"address","name":"_marketingWallet","type":"address"},{"internalType":"address","name":"_treasuryWallet","type":"address"},{"internalType":"address","name":"_lpInjectionWallet","type":"address"},{"internalType":"address","name":"_buybackWallet","type":"address"}],"name":"initialize","outputs":[],"stateMutability":"nonpayable","type":"function"},{"inputs":[],"name":"jbcToken","outputs":[{"internalType":"contract IJBC","name":"","type":"address"}],"stateMutability":"view","type":"function"},{"inputs":[],"name":"lastBurnTime","outputs":[{"internalType":"uint256","name":"","type":"uint256"}],"stateMutability":"view","type":"function"},{"inputs":[],"name":"levelRewardPercent","outputs":[{"internalType":"uint256","name":"","type":"uint256"}],"stateMutability":"view","type":"function"},{"inputs":[],"name":"levelRewardPool","outputs":[{"internalType":"uint256","name":"","type":"uint256"}],"stateMutability":"view","type":"function"},{"inputs":[],"name":"liquidityEnabled","outputs":[{"internalType":"bool","name":"","type":"bool"}],"stateMutability":"view","type":"function"},{"inputs":[],"name":"lpInjectionPercent","outputs":[{"internalType":"uint256","name":"","type":"uint256"}],"stateMutability":"view","type":"function"},{"inputs":[],"name":"lpInjectionWallet","outputs":[{"internalType":"address","name":"","type":"address"}],"stateMutability":"view","type":"function"},{"inputs":[],"name":"marketingPercent","outputs":[{"internalType":"uint256","name":"","type":"uint256"}],"stateMutability":"view","type":"function"},{"inputs":[],"name":"marketingWallet","outputs":[{"internalType":"address","name":"","type":"address"}],"stateMutability":"view","type":"function"},{"inputs":[],"name":"mcToken","outputs":[{"internalType":"contract IERC20","name":"","type":"address"}],"stateMutability":"view","type":"function"},{"inputs":[],"name":"nextStakeId","outputs":[{"internalType":"uint256","name":"","type":"uint256"}],"stateMutability":"view","type":"function"},{"inputs":[],"name":"nextTicketId","outputs":[{"internalType":"uint256","name":"","type":"uint256"}],"stateMutability":"view","type":"function"},{"inputs":[],"name":"owner","outputs":[{"internalType":"address","name":"","type":"address"}],"stateMutability":"view","type":"function"},{"inputs":[],"name":"priceOracle","outputs":[{"internalType":"address","name":"","type":"address"}],"stateMutability":"view","type":"function"},{"inputs":[],"name":"proxiableUUID","outputs":[{"internalType":"bytes32","name":"","type":"bytes32"}],"stateMutability":"view","type":"function"},{"inputs":[],"name":"redeemEnabled","outputs":[{"internalType":"bool","name":"","type":"bool"}],"stateMutability":"view","type":"function"},{"inputs":[],"name":"redemptionFeePercent","outputs":[{"internalType":"uint256","name":"","type":"uint256"}],"stateMutability":"view","type":"function"},{"inputs":[],"name":"renounceOwnership","outputs":[],"stateMutability":"nonpayable","type":"function"},{"inputs":[{"internalType":"uint256","name":"amount","type":"uint256"},{"internalType":"uint256","name":"cycleDays","type":"uint256"}],"name":"stakeLiquidity","outputs":[],"stateMutability":"nonpayable","type":"function"},{"inputs":[{"internalType":"uint256","name":"","type":"uint256"}],"name":"stakeOwner","outputs":[{"internalType":"address","name":"","type":"address"}],"stateMutability":"view","type":"function"},{"inputs":[{"internalType":"uint256","name":"","type":"uint256"},{"internalType":"uint256","name":"","type":"uint256"}],"name":"stakePendingRewards","outputs":[{"internalType":"address","name":"upline","type":"address"},{"internalType":"uint256","name":"amount","type":"uint256"}],"stateMutability":"view","type":"function"},{"inputs":[],"name":"swapBuyTax","outputs":[{"internalType":"uint256","name":"","type":"uint256"}],"stateMutability":"view","type":"function"},{"inputs":[],"name":"swapReserveJBC","outputs":[{"internalType":"uint256","name":"","type":"uint256"}],"stateMutability":"view","type":"function"},{"inputs":[],"name":"swapReserveMC","outputs":[{"internalType":"uint256","name":"","type":"uint256"}],"stateMutability":"view","type":"function"},{"inputs":[],"name":"swapSellTax","outputs":[{"internalType":"uint256","name":"","type":"uint256"}],"stateMutability":"view","type":"function"},{"inputs":[],"name":"ticketFlexibilityDuration","outputs":[{"internalType":"uint256","name":"","type":"uint256"}],"stateMutability":"view","type":"function"},{"inputs":[{"internalType":"uint256","name":"","type":"uint256"}],"name":"ticketOwner","outputs":[{"internalType":"address","name":"","type":"address"}],"stateMutability":"view","type":"function"},{"inputs":[{"internalType":"uint256","name":"","type":"uint256"},{"internalType":"uint256","name":"","type":"uint256"}],"name":"ticketPendingRewards","outputs":[{"internalType":"address","name":"upline","type":"address"},{"internalType":"uint256","name":"amount","type":"uint256"}],"stateMutability":"view","type":"function"},{"inputs":[{"internalType":"address","name":"newOwner","type":"address"}],"name":"transferOwnership","outputs":[],"stateMutability":"nonpayable","type":"function"},{"inputs":[],"name":"treasuryPercent","outputs":[{"internalType":"uint256","name":"","type":"uint256"}],"stateMutability":"view","type":"function"},{"inputs":[],"name":"treasuryWallet","outputs":[{"internalType":"address","name":"","type":"address"}],"stateMutability":"view","type":"function"},{"inputs":[{"internalType":"address","name":"newImplementation","type":"address"},{"internalType":"bytes","name":"data","type":"bytes"}],"name":"upgradeToAndCall","outputs":[],"stateMutability":"payable","type":"function"},{"inputs":[{"internalType":"address","name":"","type":"address"}],"name":"userInfo","outputs":[{"internalType":"address","name":"referrer","type":"address"},{"internalType":"uint256","name":"activeDirects","type":"uint256"},{"internalType":"uint256","name":"teamCount","type":"uint256"},{"internalType":"uint256","name":"totalRevenue","type":"uint256"},{"internalType":"uint256","name":"currentCap","type":"uint256"},{"internalType":"bool","name":"isActive","type":"bool"},{"internalType":"uint256","name":"refundFeeAmount","type":"uint256"},{"internalType":"uint256","name":"teamTotalVolume","type":"uint256"},{"internalType":"uint256","name":"teamTotalCap","type":"uint256"},{"internalType":"uint256","name":"maxTicketAmount","type":"uint256"},{"internalType":"uint256","name":"maxSingleTicketAmount","type":"uint256"}],"stateMutability":"view","type":"function"},{"inputs":[{"internalType":"address","name":"","type":"address"},{"internalType":"uint256","name":"","type":"uint256"}],"name":"userStakes","outputs":[{"internalType":"uint256","name":"id","type":"uint256"},{"internalType":"uint256","name":"amount","type":"uint256"},{"internalType":"uint256","name":"startTime","type":"uint256"},{"internalType":"uint256","name":"cycleDays","type":"uint256"},{"internalType":"bool","name":"active","type":"bool"},{"internalType":"uint256","name":"paid","type":"uint256"}],"stateMutability":"view","type":"function"},{"inputs":[{"internalType":"address","name":"","type":"address"}],"name":"userTicket","outputs":[{"internalType":"uint256","name":"ticketId","type":"uint256"},{"internalType":"uint256","name":"amount","type":"uint256"},{"internalType":"uint256","name":"purchaseTime","type":"uint256"},{"internalType":"bool","name":"exited","type":"bool"}],"stateMutability":"view","type":"function"}],"evm":{"bytecode":{"linkReferences":{},"object":"60a0806040523461002a5730608052611c6790816100308239608051818181610cd40152610e690152f35b600080fdfe60806040908082526004918236101561001757600080fd5b600092833560e01c92836304ef9d58146117dc5750826305ad3935146117895782630e2be2101461176d5782630f0a4fef146115c85782631427f616146115ad5782631788513c146115845782631959a002146114d35782631d0dac76146114b457826321923bde1461146757826321b77d63146114435782632630c12f1461141657826327c830a9146113f257826327f082f4146113d35782633dbd46bd1461139f5782634626402b14611376578263488b5d97146113585782634ea4c6b31461102c5782634f1ef28614610ded57826350f6a79a14610d2657826352d1902d14610cbf5782636031a52f14610ca05782636839b5fa14610c835782636dd6682714610c64578263715018a614610c0c57826375506c9614610bed57826375f0a87414610bc457826377a2a54014610ba5578263813380cd14610b775782638710bcaa14610b1857826388481b6114610afc57826388fd4d3314610ad35782638a859a8514610ab75782638c0eaa4814610a9b5782638da5cb5b14610a655782639370b08014610a4657826394c4da52146108a7578263952539921461087f578263ac8f50aa14610828578263ad3cb1cc146107df578263b048a4bb146107bb578263b5d5b5fa14610731578263b759936b14610712578263bd594dcf146106f3578263c2ff12fc146106bf578263cc2a9a5b146104a3578263ccf6194414610484578263ceaa366d14610465578263d2c8e0e5146103b7578263d2f8253614610390578263d8020a1814610371578263dce3dc1f1461034857508163deab8aea1461031f578163dec7fa3b14610300578163e3067449146102e1578163e4412f68146102be575063f2fde38b1461028f57600080fd5b346102bb5760203660031901126102bb576102b86102ab6117f8565b6102b3611ac6565b6119b5565b80f35b80fd5b9050346102dd57816003193601126102dd576020906009549051908152f35b5080fd5b9050346102dd57816003193601126102dd57602090601a549051908152f35b9050346102dd57816003193601126102dd57602090600c549051908152f35b9050346102dd57816003193601126102dd5760055490516001600160a01b039091168152602090f35b83346102bb5760203660031901126102bb57506103659035611a17565b82519182526020820152f35b8382346102dd57816003193601126102dd576020906008549051908152f35b8382346102dd57816003193601126102dd5760209060ff60155460081c1690519015158152f35b8382346102dd57602080600319360112610461576001600160a01b0392836103dd6117f8565b1681526012825282812091835190818185549182815201908195855282852090855b81811061044b575050508261041591038361188b565b8451948186019282875251809352850193925b8281106104355785850386f35b8351871685529381019392810192600101610428565b82548a16845292840192600192830192016103ff565b8280fd5b8382346102dd57816003193601126102dd57602090600a549051908152f35b8382346102dd57816003193601126102dd576020906006549051908152f35b909150346104615760c0366003190112610461576104bf6117f8565b906001600160a01b0360243581811692908390036106bb57604435938285168095036106b757606435918383168093036106b3576084358481168091036106af5760a435938585168095036106ab57600080516020611c128339815191529788549760ff898c1c16159760018060401b038a16998a15806106a4575b6001809c14908161069a575b159081610691575b50610681576001600160401b031981168b178c5589610666575b50610572611aff565b61057a611aff565b610583336119b5565b61058b611aff565b610593611aff565b61059b611aff565b89600080516020611bf28339815191525560018060a01b03199616868d5416178c55858954161788558460025416176002558360035416176003558282541617905560055416176005556103e86006556101f48060075561012c8060085560c8600955600a5560c8600b55600c5561010161ffff1960155416176015558160185581601955610628578380f35b815460ff60401b191690915590519081527fc7f505b2f371ae2175ee4913f4499e1f2633a7b5936321eed1cdaeb6115181d290602090a13880808380f35b6001600160481b0319166001600160401b01178b5538610569565b8c5163f92ee8a960e01b81528790fd5b9050153861054f565b303b159150610547565b508961053b565b8980fd5b8880fd5b8780fd5b8680fd5b8580fd5b9091503461046157602036600319011261046157358252601b6020908152918190205490516001600160a01b039091168152f35b8382346102dd57816003193601126102dd576020906007549051908152f35b8382346102dd57816003193601126102dd57602090601e549051908152f35b91503461046157806003193601126104615761074b6117f8565b6001600160a01b031683526011602052808320805460243594908510156102bb575060c09361077991611963565b50805492600182015492600283015490600560ff60038601549486015416940154948151968752602087015285015260608401521515608083015260a0820152f35b8382346102dd57816003193601126102dd5760209060ff6015541690519015158152f35b8382346102dd57816003193601126102dd5780516108249161080082611870565b60058252640352e302e360dc1b6020830152519182916020835260208301906118c9565b0390f35b8382346102dd5761083836611829565b908352601c602052818320805482101561087b579061085691611931565b50805460019091015491516001600160a01b0390911681526020810191909152604090f35b8380fd5b8382346102dd57816003193601126102dd57905490516001600160a01b039091168152602090f35b8382346102dd5760203660031901126102dd576001600160a01b036108ca6117f8565b168252601160208190528183208054918491825b8481106108ef576020878751908152f35b60ff886108fc8385611963565b5001541615610a3e57836109108284611963565b50906007600380930154146000146109ff575062cb73565b62015180610944600261093b8688611963565b5001544261197f565b0491806109518587611963565b50015483116109e8575b5081156109de57633b9aca009161098361098892600161097b8789611963565b5001546119a2565b6119a2565b0460056109958385611963565b500154908181116109ad575b50506001905b016108de565b906109ba9198929861197f565b81018091116109cc57956001896109a1565b634e487b7160e01b8452828852602484fd5b50506001906109a7565b9091506109f58385611963565b500154908a61095b565b600f82610a0c8587611963565b50015403610a1e575062fe502b610928565b601e82610a2b8587611963565b5001540361092857506301312d00610928565b6001906109a7565b8382346102dd57816003193601126102dd57602090600e549051908152f35b8382346102dd57816003193601126102dd57600080516020611b928339815191525490516001600160a01b039091168152602090f35b8382346102dd57816003193601126102dd576020905160038152f35b8382346102dd57816003193601126102dd576020905160018152f35b909150346104615782600319360112610461575490516001600160a01b03909116815260209150f35b9150346104615782600319360112610461576020925051908152f35b8382346102dd5760203660031901126102dd5760809181906001600160a01b03610b406117f8565b1681526010602052209081549160018101549160ff6003600284015493015416928151948552602085015283015215156060820152f35b8382346102dd57610b8736611829565b9083526013602052818320805482101561087b579061085691611931565b8382346102dd57816003193601126102dd576020906016549051908152f35b8382346102dd57816003193601126102dd5760025490516001600160a01b039091168152602090f35b8382346102dd57816003193601126102dd576020906019549051908152f35b83346102bb57806003193601126102bb57610c25611ac6565b600080516020611b9283398151915280546001600160a01b0319811690915581906001600160a01b0316600080516020611bd28339815191528280a380f35b8382346102dd57816003193601126102dd576020906014549051908152f35b8382346102dd57816003193601126102dd57602090516103e88152f35b8382346102dd57816003193601126102dd576020906018549051908152f35b9083346102bb57806003193601126102bb57507f00000000000000000000000000000000000000000000000000000000000000006001600160a01b03163003610d195760209051600080516020611bb28339815191528152f35b5163703e46dd60e11b8152fd5b915034610461578260031936011261046157610dda925060608151610d4a8161183f565b36903760608151610d5a8161183f565b3690376108248151610d6b8161183f565b60078152600f6020820152601e83820152610de3835191610d8b8361183f565b62cb7356835262fe502b60208401526301312d0085840152845195610daf87611870565b8652636461797360e01b602087015284519687966101006201518089528060208a01528801906118c9565b94860190611909565b60a0840190611909565b91508060031936011261046157610e026117f8565b60249390919084356001600160401b0381116102dd57366023820112156102dd5780850135610e30816118ae565b94610e3d8551968761188b565b81865260209182870193368a83830101116106bb578186928b8693018737880101526001600160a01b037f00000000000000000000000000000000000000000000000000000000000000008116308114908115611010575b5061100057610ea2611ac6565b81169585516352d1902d60e01b815283818a818b5afa869181610fd1575b50610edc575050505050505191634c9c8ce360e01b8352820152fd5b9088888894938c600080516020611bb283398151915291828103610fbc5750853b15610fa8575080546001600160a01b031916821790558451889392917fbc7cd75a20ee27fd9adebab32041f755214dbc6bffa90cc0225b39da2e5c2d3b8580a2825115610f8a575050610f7c9582915190845af4913d15610f80573d610f6e610f65826118ae565b9251928361188b565b81528581943d92013e611b2e565b5080f35b5060609250611b2e565b955095505050505034610f9c57505080f35b63b398979f60e01b8152fd5b8651634c9c8ce360e01b8152808501849052fd5b8751632a87526960e21b815280860191909152fd5b9091508481813d8311610ff9575b610fe9818361188b565b810103126106b757519038610ec0565b503d610fdf565b855163703e46dd60e11b81528890fd5b905081600080516020611bb28339815191525416141538610e95565b909150346104615761103d36611829565b91600080516020611bf2833981519152926002845414611349576002845560ff601554161561131157338652602094601086528087209560019687810154156112db576003015460ff166112a95760078314801561129f575b8015611295575b1561124257841561120f57338852601181528188206019548351919060c083016001600160401b038111848210176111fc57908b929186528352838301888152858401428152606085019188835260808601938d855260a08701958652805490600160401b8210156111e85790611118918f82018155611963565b9690966111d657518655518c86015551600285015551600384015551868301805460ff191691151560ff1691909117905551600590910155601980548952601d9091528188208054336001600160a01b0319909116179055549260001984146111c3578684018060195584116111c35750906111bc7fa8a1b9e33e503eed12bf7e7c8c01c7f3b60217a496bddd0f5db351dd8c056c1c939251928392339684611813565b0390a25580f35b634e487b7160e01b885260119052602487fd5b634e487b7160e01b8f528e8b5260248ffd5b50634e487b7160e01b8f5260418b5260248ffd5b634e487b7160e01b8c526041885260248cfd5b8390606492519162461bcd60e51b8352820152600e60248201526d125b9d985b1a5908185b5bdd5b9d60921b6044820152fd5b8390608492519162461bcd60e51b8352820152602860248201527f496e76616c6964206379636c653a206d75737420626520372c2031352c206f72604482015267203330206461797360c01b6064820152fd5b50601e831461109d565b50600f8314611096565b8390606492519162461bcd60e51b8352820152600d60248201526c151a58dad95d08195e1a5d1959609a1b6044820152fd5b825162461bcd60e51b8152808601839052601060248201526f139bc81858dd1a5d99481d1a58dad95d60821b6044820152606490fd5b845162461bcd60e51b81526020818401526012602482015271131a5c5d5a591a5d1e48191a5cd8589b195960721b6044820152606490fd5b508351633ee5aeb560e01b8152fd5b8382346102dd57816003193601126102dd5760209051620151808152f35b8382346102dd57816003193601126102dd5760035490516001600160a01b039091168152602090f35b9091503461046157602036600319011261046157358252601d6020908152918190205490516001600160a01b039091168152f35b8382346102dd57816003193601126102dd57602090600d549051908152f35b8382346102dd57816003193601126102dd5760209060ff604e541690519015158152f35b8382346102dd57816003193601126102dd57604e54905160089190911c6001600160a01b03168152602090f35b8382346102dd57816003193601126102dd5760209051683635c9adc5dea000008152f35b5082346102bb5760203660031901126102bb5760029082906001600160a01b0361148f6117f8565b168152600f602052200154906108246114a783611a17565b9390925193849384611813565b8382346102dd57816003193601126102dd576020906017549051908152f35b9091503461046157602036600319011261046157610160926001600160a01b03908390826114ff6117f8565b168152600f60205220908154169260018201549260028301549060038401549084015460ff60058601541690600686015492600787015494600888015496600a60098a01549901549981519b8c5260208c01528a015260608901526080880152151560a087015260c086015260e0850152610100840152610120830152610140820152f35b8382346102dd57816003193601126102dd5760015490516001600160a01b039091168152602090f35b8382346102dd57816003193601126102dd5751908152602090f35b83346102bb57826003193601126102bb576115e16117f8565b6001600160a01b0316808252601160205283822054602435919082101561173457610100949161161a9184526011602052828420611963565b509060028201549262015180611630854261197f565b04938192600385015490818710611722575b83600783036116da575060ff61167f98633b9aca0062cb73569a8b9a5b61166e60018c01549d8e6119a2565b90878111156116d4575086906119a2565b0495600589015480978181116000146116cc5761169c925061197f565b975b015416928151988952602089015287015215156060860152608085015260a084015260c083015260e0820152f35b50509761169e565b906119a2565b600f83036116fa575060ff61167f98633b9aca0062fe502b9a8b9a61165f565b96601e8314611716575b8798633b9aca0061167f60ff9361165f565b6301312d009750611704565b935061172e868261197f565b93611642565b845162461bcd60e51b81526020818601526013602482015272092dcecc2d8d2c840e6e8c2d6ca40d2dcc8caf606b1b6044820152606490fd5b8382346102dd57816003193601126102dd576020905160028152f35b8382346102dd57806003193601126102dd576117a36117f8565b6001600160a01b0390811683526012602052818320805460243591908210156117d85784526020938490200154915191168152f35b8480fd5b8490346102dd57816003193601126102dd57602090600b548152f35b600435906001600160a01b038216820361180e57565b600080fd5b6040919493926060820195825260208201520152565b604090600319011261180e576004359060243590565b606081019081106001600160401b0382111761185a57604052565b634e487b7160e01b600052604160045260246000fd5b604081019081106001600160401b0382111761185a57604052565b601f909101601f19168101906001600160401b0382119082101761185a57604052565b6001600160401b03811161185a57601f01601f191660200190565b919082519283825260005b8481106118f5575050826000602080949584010152601f8019910116010190565b6020818301810151848301820152016118d4565b6000915b6003831061191a57505050565b60019082518152602080910192019201919061190d565b805482101561194d5760005260206000209060011b0190600090565b634e487b7160e01b600052603260045260246000fd5b805482101561194d576000526006602060002091020190600090565b9190820391821161198c57565b634e487b7160e01b600052601160045260246000fd5b8181029291811591840414171561198c57565b6001600160a01b039081169081156119fe57600080516020611b9283398151915280546001600160a01b03198116841790915516600080516020611bd2833981519152600080a3565b604051631e4fbdf760e01b815260006004820152602490fd5b620186a0811015611abd57617530811015611ab457612710811015611aab57610bb8811015611aa2576103e8811015611a995761012c811015611a90576064811015611a8757601e811015611a7e57600a1115611a7657600090600090565b600190600590565b50600290600a90565b50600390600f90565b50600490601490565b50600590601990565b50600690601e90565b50600790602390565b50600890602890565b50600990602d90565b600080516020611b92833981519152546001600160a01b03163303611ae757565b60405163118cdaa760e01b8152336004820152602490fd5b60ff600080516020611c128339815191525460401c1615611b1c57565b604051631afcd79f60e31b8152600490fd5b90611b555750805115611b4357602081519101fd5b60405163d6bda27560e01b8152600490fd5b81511580611b88575b611b66575090565b604051639996b31560e01b81526001600160a01b039091166004820152602490fd5b50803b15611b5e56fe9016d09d72d40fdae2fd8ceac6b6234c7706214fd39c1cd1e609a0528c199300360894a13ba1a3210667c828492db98dca3e2076cc3735a920a3ca505d382bbc8be0079c531659141344cd1fd0a4f28419497f9722a3daafe3b4186f6b6457e09b779b17422d0df92223018b32b4d1fa46e071723d6817e2486d003becc55f00f0c57e16840df040f15088dc2f81fe391c3923bec73e23a9662efc9c229c6a00a26469706673582212204547d1eb96b80e9632446c5d939e69667a097898a9ac4e7edf51c17622f813c964736f6c63430008160033","opcodes":"PUSH1 0xA0 DUP1 PUSH1 0x40 MSTORE CALLVALUE PUSH2 0x2A JUMPI ADDRESS PUSH1 0x80 MSTORE PUSH2 0x1C67 SWAP1 DUP2 PUSH2 0x30 DUP3 CODECOPY PUSH1 0x80 MLOAD DUP2 DUP2 DUP2 PUSH2 0xCD4 ADD MSTORE PUSH2 0xE69 ADD MSTORE RETURN JUMPDEST PUSH1 0x0 DUP1 REVERT INVALID PUSH1 0x80 PUSH1 0x40 SWAP1 DUP1 DUP3 MSTORE PUSH1 0x4 SWAP2 DUP3 CALLDATASIZE LT ISZERO PUSH2 0x17 JUMPI PUSH1 0x0 DUP1 REVERT JUMPDEST PUSH1 0x0 SWAP3 DUP4 CALLDATALOAD PUSH1 0xE0 SHR SWAP3 DUP4 PUSH4 0x4EF9D58 EQ PUSH2 0x17DC JUMPI POP DUP3 PUSH4 0x5AD3935 EQ PUSH2 0x1789 JUMPI DUP3 PUSH4 0xE2BE210 EQ PUSH2 0x176D JUMPI DUP3 PUSH4 0xF0A4FEF EQ PUSH2 0x15C8 JUMPI DUP3 PUSH4 0x1427F616 EQ PUSH2 0x15AD JUMPI DUP3 PUSH4 0x1788513C EQ PUSH2 0x1584 JUMPI DUP3 PUSH4 0x1959A002 EQ PUSH2 0x14D3 JUMPI DUP3 PUSH4 0x1D0DAC76 EQ PUSH2 0x14B4 JUMPI DUP3 PUSH4 0x21923BDE EQ PUSH2 0x1467 JUMPI DUP3 PUSH4 0x21B77D63 EQ PUSH2 0x1443 JUMPI DUP3 PUSH4 0x2630C12F EQ PUSH2 0x1416 JUMPI DUP3 PUSH4 0x27C830A9 EQ PUSH2 0x13F2 JUMPI DUP3 PUSH4 0x27F082F4 EQ PUSH2 0x13D3 JUMPI DUP3 PUSH4 0x3DBD46BD EQ PUSH2 0x139F JUMPI DUP3 PUSH4 0x4626402B EQ PUSH2 0x1376 JUMPI DUP3 PUSH4 0x488B5D97 EQ PUSH2 0x1358 JUMPI DUP3 PUSH4 0x4EA4C6B3 EQ PUSH2 0x102C JUMPI DUP3 PUSH4 0x4F1EF286 EQ PUSH2 0xDED JUMPI DUP3 PUSH4 0x50F6A79A EQ PUSH2 0xD26 JUMPI DUP3 PUSH4 0x52D1902D EQ PUSH2 0xCBF JUMPI DUP3 PUSH4 0x6031A52F EQ PUSH2 0xCA0 JUMPI DUP3 PUSH4 0x6839B5FA EQ PUSH2 0xC83 JUMPI DUP3 PUSH4 0x6DD66827 EQ PUSH2 0xC64 JUMPI DUP3 PUSH4 0x715018A6 EQ PUSH2 0xC0C JUMPI DUP3 PUSH4 0x75506C96 EQ PUSH2 0xBED JUMPI DUP3 PUSH4 0x75F0A874 EQ PUSH2 0xBC4 JUMPI DUP3 PUSH4 0x77A2A540 EQ PUSH2 0xBA5 JUMPI DUP3 PUSH4 0x813380CD EQ PUSH2 0xB77 JUMPI DUP3 PUSH4 0x8710BCAA EQ PUSH2 0xB18 JUMPI DUP3 PUSH4 0x88481B61 EQ PUSH2 0xAFC JUMPI DUP3 PUSH4 0x88FD4D33 EQ PUSH2 0xAD3 JUMPI DUP3 PUSH4 0x8A859A85 EQ PUSH2 0xAB7 JUMPI DUP3 PUSH4 0x8C0EAA48 EQ PUSH2 0xA9B JUMPI DUP3 PUSH4 0x8DA5CB5B EQ PUSH2 0xA65 JUMPI DUP3 PUSH4 0x9370B080 EQ PUSH2 0xA46 JUMPI DUP3 PUSH4 0x94C4DA52 EQ PUSH2 0x8A7 JUMPI DUP3 PUSH4 0x95253992 EQ PUSH2 0x87F JUMPI DUP3 PUSH4 0xAC8F50AA EQ PUSH2 0x828 JUMPI DUP3 PUSH4 0xAD3CB1CC EQ PUSH2 0x7DF JUMPI DUP3 PUSH4 0xB048A4BB EQ PUSH2 0x7BB JUMPI DUP3 PUSH4 0xB5D5B5FA EQ PUSH2 0x731 JUMPI DUP3 PUSH4 0xB759936B EQ PUSH2 0x712 JUMPI DUP3 PUSH4 0xBD594DCF EQ PUSH2 0x6F3 JUMPI DUP3 PUSH4 0xC2FF12FC EQ PUSH2 0x6BF JUMPI DUP3 PUSH4 0xCC2A9A5B EQ PUSH2 0x4A3 JUMPI DUP3 PUSH4 0xCCF61944 EQ PUSH2 0x484 JUMPI DUP3 PUSH4 0xCEAA366D EQ PUSH2 0x465 JUMPI DUP3 PUSH4 0xD2C8E0E5 EQ PUSH2 0x3B7 JUMPI DUP3 PUSH4 0xD2F82536 EQ PUSH2 0x390 JUMPI DUP3 PUSH4 0xD8020A18 EQ PUSH2 0x371 JUMPI DUP3 PUSH4 0xDCE3DC1F EQ PUSH2 0x348 JUMPI POP DUP2 PUSH4 0xDEAB8AEA EQ PUSH2 0x31F JUMPI DUP2 PUSH4 0xDEC7FA3B EQ PUSH2 0x300 JUMPI DUP2 PUSH4 0xE3067449 EQ PUSH2 0x2E1 JUMPI DUP2 PUSH4 0xE4412F68 EQ PUSH2 0x2BE JUMPI POP PUSH4 0xF2FDE38B EQ PUSH2 0x28F JUMPI PUSH1 0x0 DUP1 REVERT JUMPDEST CALLVALUE PUSH2 0x2BB JUMPI PUSH1 0x20 CALLDATASIZE PUSH1 0x3 NOT ADD SLT PUSH2 0x2BB JUMPI PUSH2 0x2B8 PUSH2 0x2AB PUSH2 0x17F8 JUMP JUMPDEST PUSH2 0x2B3 PUSH2 0x1AC6 JUMP JUMPDEST PUSH2 0x19B5 JUMP JUMPDEST DUP1 RETURN JUMPDEST DUP1 REVERT JUMPDEST SWAP1 POP CALLVALUE PUSH2 0x2DD JUMPI DUP2 PUSH1 0x3 NOT CALLDATASIZE ADD SLT PUSH2 0x2DD JUMPI PUSH1 0x20 SWAP1 PUSH1 0x9 SLOAD SWAP1 MLOAD SWAP1 DUP2 MSTORE RETURN JUMPDEST POP DUP1 REVERT JUMPDEST SWAP1 POP CALLVALUE PUSH2 0x2DD JUMPI DUP2 PUSH1 0x3 NOT CALLDATASIZE ADD SLT PUSH2 0x2DD JUMPI PUSH1 0x20 SWAP1 PUSH1 0x1A SLOAD SWAP1 MLOAD SWAP1 DUP2 MSTORE RETURN JUMPDEST SWAP1 POP CALLVALUE PUSH2 0x2DD JUMPI DUP2 PUSH1 0x3 NOT CALLDATASIZE ADD SLT PUSH2 0x2DD JUMPI PUSH1 0x20 SWAP1 PUSH1 0xC SLOAD SWAP1 MLOAD SWAP1 DUP2 MSTORE RETURN JUMPDEST SWAP1 POP CALLVALUE PUSH2 0x2DD JUMPI DUP2 PUSH1 0x3 NOT CALLDATASIZE ADD SLT PUSH2 0x2DD JUMPI PUSH1 0x5 SLOAD SWAP1 MLOAD PUSH1 0x1 PUSH1 0x1 PUSH1 0xA0 SHL SUB SWAP1 SWAP2 AND DUP2 MSTORE PUSH1 0x20 SWAP1 RETURN JUMPDEST DUP4 CALLVALUE PUSH2 0x2BB JUMPI PUSH1 0x20 CALLDATASIZE PUSH1 0x3 NOT ADD SLT PUSH2 0x2BB JUMPI POP PUSH2 0x365 SWAP1 CALLDATALOAD PUSH2 0x1A17 JUMP JUMPDEST DUP3 MLOAD SWAP2 DUP3 MSTORE PUSH1 0x20 DUP3 ADD MSTORE RETURN JUMPDEST DUP4 DUP3 CALLVALUE PUSH2 0x2DD JUMPI DUP2 PUSH1 0x3 NOT CALLDATASIZE ADD SLT PUSH2 0x2DD JUMPI PUSH1 0x20 SWAP1 PUSH1 0x8 SLOAD SWAP1 MLOAD SWAP1 DUP2 MSTORE RETURN JUMPDEST DUP4 DUP3 CALLVALUE PUSH2 0x2DD JUMPI DUP2 PUSH1 0x3 NOT CALLDATASIZE ADD SLT PUSH2 0x2DD JUMPI PUSH1 0x20 SWAP1 PUSH1 0xFF PUSH1 0x15 SLOAD PUSH1 0x8 SHR AND SWAP1 MLOAD SWAP1 ISZERO ISZERO DUP2 MSTORE RETURN JUMPDEST DUP4 DUP3 CALLVALUE PUSH2 0x2DD JUMPI PUSH1 0x20 DUP1 PUSH1 0x3 NOT CALLDATASIZE ADD SLT PUSH2 0x461 JUMPI PUSH1 0x1 PUSH1 0x1 PUSH1 0xA0 SHL SUB SWAP3 DUP4 PUSH2 0x3DD PUSH2 0x17F8 JUMP JUMPDEST AND DUP2 MSTORE PUSH1 0x12 DUP3 MSTORE DUP3 DUP2 KECCAK256 SWAP2 DUP4 MLOAD SWAP1 DUP2 DUP2 DUP6 SLOAD SWAP2 DUP3 DUP2 MSTORE ADD SWAP1 DUP2 SWAP6 DUP6 MSTORE DUP3 DUP6 KECCAK256 SWAP1 DUP6 JUMPDEST DUP2 DUP2 LT PUSH2 0x44B JUMPI POP POP POP DUP3 PUSH2 0x415 SWAP2 SUB DUP4 PUSH2 0x188B JUMP JUMPDEST DUP5 MLOAD SWAP5 DUP2 DUP7 ADD SWAP3 DUP3 DUP8 MSTORE MLOAD DUP1 SWAP4 MSTORE DUP6 ADD SWAP4 SWAP3 JUMPDEST DUP3 DUP2 LT PUSH2 0x435 JUMPI DUP6 DUP6 SUB DUP7 RETURN JUMPDEST DUP4 MLOAD DUP8 AND DUP6 MSTORE SWAP4 DUP2 ADD SWAP4 SWAP3 DUP2 ADD SWAP3 PUSH1 0x1 ADD PUSH2 0x428 JUMP JUMPDEST DUP3 SLOAD DUP11 AND DUP5 MSTORE SWAP3 DUP5 ADD SWAP3 PUSH1 0x1 SWAP3 DUP4 ADD SWAP3 ADD PUSH2 0x3FF JUMP JUMPDEST DUP3 DUP1 REVERT JUMPDEST DUP4 DUP3 CALLVALUE PUSH2 0x2DD JUMPI DUP2 PUSH1 0x3 NOT CALLDATASIZE ADD SLT PUSH2 0x2DD JUMPI PUSH1 0x20 SWAP1 PUSH1 0xA SLOAD SWAP1 MLOAD SWAP1 DUP2 MSTORE RETURN JUMPDEST DUP4 DUP3 CALLVALUE PUSH2 0x2DD JUMPI DUP2 PUSH1 0x3 NOT CALLDATASIZE ADD SLT PUSH2 0x2DD JUMPI PUSH1 0x20 SWAP1 PUSH1 0x6 SLOAD SWAP1 MLOAD SWAP1 DUP2 MSTORE RETURN JUMPDEST SWAP1 SWAP2 POP CALLVALUE PUSH2 0x461 JUMPI PUSH1 0xC0 CALLDATASIZE PUSH1 0x3 NOT ADD SLT PUSH2 0x461 JUMPI PUSH2 0x4BF PUSH2 0x17F8 JUMP JUMPDEST SWAP1 PUSH1 0x1 PUSH1 0x1 PUSH1 0xA0 SHL SUB PUSH1 0x24 CALLDATALOAD DUP2 DUP2 AND SWAP3 SWAP1 DUP4 SWAP1 SUB PUSH2 0x6BB JUMPI PUSH1 0x44 CALLDATALOAD SWAP4 DUP3 DUP6 AND DUP1 SWAP6 SUB PUSH2 0x6B7 JUMPI PUSH1 0x64 CALLDATALOAD SWAP2 DUP4 DUP4 AND DUP1 SWAP4 SUB PUSH2 0x6B3 JUMPI PUSH1 0x84 CALLDATALOAD DUP5 DUP2 AND DUP1 SWAP2 SUB PUSH2 0x6AF JUMPI PUSH1 0xA4 CALLDATALOAD SWAP4 DUP6 DUP6 AND DUP1 SWAP6 SUB PUSH2 0x6AB JUMPI PUSH1 0x0 DUP1 MLOAD PUSH1 0x20 PUSH2 0x1C12 DUP4 CODECOPY DUP2 MLOAD SWAP2 MSTORE SWAP8 DUP9 SLOAD SWAP8 PUSH1 0xFF DUP10 DUP13 SHR AND ISZERO SWAP8 PUSH1 0x1 DUP1 PUSH1 0x40 SHL SUB DUP11 AND SWAP10 DUP11 ISZERO DUP1 PUSH2 0x6A4 JUMPI JUMPDEST PUSH1 0x1 DUP1 SWAP13 EQ SWAP1 DUP2 PUSH2 0x69A JUMPI JUMPDEST ISZERO SWAP1 DUP2 PUSH2 0x691 JUMPI JUMPDEST POP PUSH2 0x681 JUMPI PUSH1 0x1 PUSH1 0x1 PUSH1 0x40 SHL SUB NOT DUP2 AND DUP12 OR DUP13 SSTORE DUP10 PUSH2 0x666 JUMPI JUMPDEST POP PUSH2 0x572 PUSH2 0x1AFF JUMP JUMPDEST PUSH2 0x57A PUSH2 0x1AFF JUMP JUMPDEST PUSH2 0x583 CALLER PUSH2 0x19B5 JUMP JUMPDEST PUSH2 0x58B PUSH2 0x1AFF JUMP JUMPDEST PUSH2 0x593 PUSH2 0x1AFF JUMP JUMPDEST PUSH2 0x59B PUSH2 0x1AFF JUMP JUMPDEST DUP10 PUSH1 0x0 DUP1 MLOAD PUSH1 0x20 PUSH2 0x1BF2 DUP4 CODECOPY DUP2 MLOAD SWAP2 MSTORE SSTORE PUSH1 0x1 DUP1 PUSH1 0xA0 SHL SUB NOT SWAP7 AND DUP7 DUP14 SLOAD AND OR DUP13 SSTORE DUP6 DUP10 SLOAD AND OR DUP9 SSTORE DUP5 PUSH1 0x2 SLOAD AND OR PUSH1 0x2 SSTORE DUP4 PUSH1 0x3 SLOAD AND OR PUSH1 0x3 SSTORE DUP3 DUP3 SLOAD AND OR SWAP1 SSTORE PUSH1 0x5 SLOAD AND OR PUSH1 0x5 SSTORE PUSH2 0x3E8 PUSH1 0x6 SSTORE PUSH2 0x1F4 DUP1 PUSH1 0x7 SSTORE PUSH2 0x12C DUP1 PUSH1 0x8 SSTORE PUSH1 0xC8 PUSH1 0x9 SSTORE PUSH1 0xA SSTORE PUSH1 0xC8 PUSH1 0xB SSTORE PUSH1 0xC SSTORE PUSH2 0x101 PUSH2 0xFFFF NOT PUSH1 0x15 SLOAD AND OR PUSH1 0x15 SSTORE DUP2 PUSH1 0x18 SSTORE DUP2 PUSH1 0x19 SSTORE PUSH2 0x628 JUMPI DUP4 DUP1 RETURN JUMPDEST DUP2 SLOAD PUSH1 0xFF PUSH1 0x40 SHL NOT AND SWAP1 SWAP2 SSTORE SWAP1 MLOAD SWAP1 DUP2 MSTORE PUSH32 0xC7F505B2F371AE2175EE4913F4499E1F2633A7B5936321EED1CDAEB6115181D2 SWAP1 PUSH1 0x20 SWAP1 LOG1 CODESIZE DUP1 DUP1 DUP4 DUP1 RETURN JUMPDEST PUSH1 0x1 PUSH1 0x1 PUSH1 0x48 SHL SUB NOT AND PUSH1 0x1 PUSH1 0x1 PUSH1 0x40 SHL ADD OR DUP12 SSTORE CODESIZE PUSH2 0x569 JUMP JUMPDEST DUP13 MLOAD PUSH4 0xF92EE8A9 PUSH1 0xE0 SHL DUP2 MSTORE DUP8 SWAP1 REVERT JUMPDEST SWAP1 POP ISZERO CODESIZE PUSH2 0x54F JUMP JUMPDEST ADDRESS EXTCODESIZE ISZERO SWAP2 POP PUSH2 0x547 JUMP JUMPDEST POP DUP10 PUSH2 0x53B JUMP JUMPDEST DUP10 DUP1 REVERT JUMPDEST DUP9 DUP1 REVERT JUMPDEST DUP8 DUP1 REVERT JUMPDEST DUP7 DUP1 REVERT JUMPDEST DUP6 DUP1 REVERT JUMPDEST SWAP1 SWAP2 POP CALLVALUE PUSH2 0x461 JUMPI PUSH1 0x20 CALLDATASIZE PUSH1 0x3 NOT ADD SLT PUSH2 0x461 JUMPI CALLDATALOAD DUP3 MSTORE PUSH1 0x1B PUSH1 0x20 SWAP1 DUP2 MSTORE SWAP2 DUP2 SWAP1 KECCAK256 SLOAD SWAP1 MLOAD PUSH1 0x1 PUSH1 0x1 PUSH1 0xA0 SHL SUB SWAP1 SWAP2 AND DUP2 MSTORE RETURN JUMPDEST DUP4 DUP3 CALLVALUE PUSH2 0x2DD JUMPI DUP2 PUSH1 0x3 NOT CALLDATASIZE ADD SLT PUSH2 0x2DD JUMPI PUSH1 0x20 SWAP1 PUSH1 0x7 SLOAD SWAP1 MLOAD SWAP1 DUP2 MSTORE RETURN JUMPDEST DUP4 DUP3 CALLVALUE PUSH2 0x2DD JUMPI DUP2 PUSH1 0x3 NOT CALLDATASIZE ADD SLT PUSH2 0x2DD JUMPI PUSH1 0x20 SWAP1 PUSH1 0x1E SLOAD SWAP1 MLOAD SWAP1 DUP2 MSTORE RETURN JUMPDEST SWAP2 POP CALLVALUE PUSH2 0x461 JUMPI DUP1 PUSH1 0x3 NOT CALLDATASIZE ADD SLT PUSH2 0x461 JUMPI PUSH2 0x74B PUSH2 0x17F8 JUMP JUMPDEST PUSH1 0x1 PUSH1 0x1 PUSH1 0xA0 SHL SUB AND DUP4 MSTORE PUSH1 0x11 PUSH1 0x20 MSTORE DUP1 DUP4 KECCAK256 DUP1 SLOAD PUSH1 0x24 CALLDATALOAD SWAP5 SWAP1 DUP6 LT ISZERO PUSH2 0x2BB JUMPI POP PUSH1 0xC0 SWAP4 PUSH2 0x779 SWAP2 PUSH2 0x1963 JUMP JUMPDEST POP DUP1 SLOAD SWAP3 PUSH1 0x1 DUP3 ADD SLOAD SWAP3 PUSH1 0x2 DUP4 ADD SLOAD SWAP1 PUSH1 0x5 PUSH1 0xFF PUSH1 0x3 DUP7 ADD SLOAD SWAP5 DUP7 ADD SLOAD AND SWAP5 ADD SLOAD SWAP5 DUP2 MLOAD SWAP7 DUP8 MSTORE PUSH1 0x20 DUP8 ADD MSTORE DUP6 ADD MSTORE PUSH1 0x60 DUP5 ADD MSTORE ISZERO ISZERO PUSH1 0x80 DUP4 ADD MSTORE PUSH1 0xA0 DUP3 ADD MSTORE RETURN JUMPDEST DUP4 DUP3 CALLVALUE PUSH2 0x2DD JUMPI DUP2 PUSH1 0x3 NOT CALLDATASIZE ADD SLT PUSH2 0x2DD JUMPI PUSH1 0x20 SWAP1 PUSH1 0xFF PUSH1 0x15 SLOAD AND SWAP1 MLOAD SWAP1 ISZERO ISZERO DUP2 MSTORE RETURN JUMPDEST DUP4 DUP3 CALLVALUE PUSH2 0x2DD JUMPI DUP2 PUSH1 0x3 NOT CALLDATASIZE ADD SLT PUSH2 0x2DD JUMPI DUP1 MLOAD PUSH2 0x824 SWAP2 PUSH2 0x800 DUP3 PUSH2 0x1870 JUMP JUMPDEST PUSH1 0x5 DUP3 MSTORE PUSH5 0x352E302E3 PUSH1 0xDC SHL PUSH1 0x20 DUP4 ADD MSTORE MLOAD SWAP2 DUP3 SWAP2 PUSH1 0x20 DUP4 MSTORE PUSH1 0x20 DUP4 ADD SWAP1 PUSH2 0x18C9 JUMP JUMPDEST SUB SWAP1 RETURN JUMPDEST DUP4 DUP3 CALLVALUE PUSH2 0x2DD JUMPI PUSH2 0x838 CALLDATASIZE PUSH2 0x1829 JUMP JUMPDEST SWAP1 DUP4 MSTORE PUSH1 0x1C PUSH1 0x20 MSTORE DUP2 DUP4 KECCAK256 DUP1 SLOAD DUP3 LT ISZERO PUSH2 0x87B JUMPI SWAP1 PUSH2 0x856 SWAP2 PUSH2 0x1931 JUMP JUMPDEST POP DUP1 SLOAD PUSH1 0x1 SWAP1 SWAP2 ADD SLOAD SWAP2 MLOAD PUSH1 0x1 PUSH1 0x1 PUSH1 0xA0 SHL SUB SWAP1 SWAP2 AND DUP2 MSTORE PUSH1 0x20 DUP2 ADD SWAP2 SWAP1 SWAP2 MSTORE PUSH1 0x40 SWAP1 RETURN JUMPDEST DUP4 DUP1 REVERT JUMPDEST DUP4 DUP3 CALLVALUE PUSH2 0x2DD JUMPI DUP2 PUSH1 0x3 NOT CALLDATASIZE ADD SLT PUSH2 0x2DD JUMPI SWAP1 SLOAD SWAP1 MLOAD PUSH1 0x1 PUSH1 0x1 PUSH1 0xA0 SHL SUB SWAP1 SWAP2 AND DUP2 MSTORE PUSH1 0x20 SWAP1 RETURN JUMPDEST DUP4 DUP3 CALLVALUE PUSH2 0x2DD JUMPI PUSH1 0x20 CALLDATASIZE PUSH1 0x3 NOT ADD SLT PUSH2 0x2DD JUMPI PUSH1 0x1 PUSH1 0x1 PUSH1 0xA0 SHL SUB PUSH2 0x8CA PUSH2 0x17F8 JUMP JUMPDEST AND DUP3 MSTORE PUSH1 0x11 PUSH1 0x20 DUP2 SWAP1 MSTORE DUP2 DUP4 KECCAK256 DUP1 SLOAD SWAP2 DUP5 SWAP2 DUP3 JUMPDEST DUP5 DUP2 LT PUSH2 0x8EF JUMPI PUSH1 0x20 DUP8 DUP8 MLOAD SWAP1 DUP2 MSTORE RETURN JUMPDEST PUSH1 0xFF DUP9 PUSH2 0x8FC DUP4 DUP6 PUSH2 0x1963 JUMP JUMPDEST POP ADD SLOAD AND ISZERO PUSH2 0xA3E JUMPI DUP4 PUSH2 0x910 DUP3 DUP5 PUSH2 0x1963 JUMP JUMPDEST POP SWAP1 PUSH1 0x7 PUSH1 0x3 DUP1 SWAP4 ADD SLOAD EQ PUSH1 0x0 EQ PUSH2 0x9FF JUMPI POP PUSH3 0xCB7356 JUMPDEST PUSH3 0x15180 PUSH2 0x944 PUSH1 0x2 PUSH2 0x93B DUP7 DUP9 PUSH2 0x1963 JUMP JUMPDEST POP ADD SLOAD TIMESTAMP PUSH2 0x197F JUMP JUMPDEST DIV SWAP2 DUP1 PUSH2 0x951 DUP6 DUP8 PUSH2 0x1963 JUMP JUMPDEST POP ADD SLOAD DUP4 GT PUSH2 0x9E8 JUMPI JUMPDEST POP DUP2 ISZERO PUSH2 0x9DE JUMPI PUSH4 0x3B9ACA00 SWAP2 PUSH2 0x983 PUSH2 0x988 SWAP3 PUSH1 0x1 PUSH2 0x97B DUP8 DUP10 PUSH2 0x1963 JUMP JUMPDEST POP ADD SLOAD PUSH2 0x19A2 JUMP JUMPDEST PUSH2 0x19A2 JUMP JUMPDEST DIV PUSH1 0x5 PUSH2 0x995 DUP4 DUP6 PUSH2 0x1963 JUMP JUMPDEST POP ADD SLOAD SWAP1 DUP2 DUP2 GT PUSH2 0x9AD JUMPI JUMPDEST POP POP PUSH1 0x1 SWAP1 JUMPDEST ADD PUSH2 0x8DE JUMP JUMPDEST SWAP1 PUSH2 0x9BA SWAP2 SWAP9 SWAP3 SWAP9 PUSH2 0x197F JUMP JUMPDEST DUP2 ADD DUP1 SWAP2 GT PUSH2 0x9CC JUMPI SWAP6 PUSH1 0x1 DUP10 PUSH2 0x9A1 JUMP JUMPDEST PUSH4 0x4E487B71 PUSH1 0xE0 SHL DUP5 MSTORE DUP3 DUP9 MSTORE PUSH1 0x24 DUP5 REVERT JUMPDEST POP POP PUSH1 0x1 SWAP1 PUSH2 0x9A7 JUMP JUMPDEST SWAP1 SWAP2 POP PUSH2 0x9F5 DUP4 DUP6 PUSH2 0x1963 JUMP JUMPDEST POP ADD SLOAD SWAP1 DUP11 PUSH2 0x95B JUMP JUMPDEST PUSH1 0xF DUP3 PUSH2 0xA0C DUP6 DUP8 PUSH2 0x1963 JUMP JUMPDEST POP ADD SLOAD SUB PUSH2 0xA1E JUMPI POP PUSH3 0xFE502B PUSH2 0x928 JUMP JUMPDEST PUSH1 0x1E DUP3 PUSH2 0xA2B DUP6 DUP8 PUSH2 0x1963 JUMP JUMPDEST POP ADD SLOAD SUB PUSH2 0x928 JUMPI POP PUSH4 0x1312D00 PUSH2 0x928 JUMP JUMPDEST PUSH1 0x1 SWAP1 PUSH2 0x9A7 JUMP JUMPDEST DUP4 DUP3 CALLVALUE PUSH2 0x2DD JUMPI DUP2 PUSH1 0x3 NOT CALLDATASIZE ADD SLT PUSH2 0x2DD JUMPI PUSH1 0x20 SWAP1 PUSH1 0xE SLOAD SWAP1 MLOAD SWAP1 DUP2 MSTORE RETURN JUMPDEST DUP4 DUP3 CALLVALUE PUSH2 0x2DD JUMPI DUP2 PUSH1 0x3 NOT CALLDATASIZE ADD SLT PUSH2 0x2DD JUMPI PUSH1 0x0 DUP1 MLOAD PUSH1 0x20 PUSH2 0x1B92 DUP4 CODECOPY DUP2 MLOAD SWAP2 MSTORE SLOAD SWAP1 MLOAD PUSH1 0x1 PUSH1 0x1 PUSH1 0xA0 SHL SUB SWAP1 SWAP2 AND DUP2 MSTORE PUSH1 0x20 SWAP1 RETURN JUMPDEST DUP4 DUP3 CALLVALUE PUSH2 0x2DD JUMPI DUP2 PUSH1 0x3 NOT CALLDATASIZE ADD SLT PUSH2 0x2DD JUMPI PUSH1 0x20 SWAP1 MLOAD PUSH1 0x3 DUP2 MSTORE RETURN JUMPDEST DUP4 DUP3 CALLVALUE PUSH2 0x2DD JUMPI DUP2 PUSH1 0x3 NOT CALLDATASIZE ADD SLT PUSH2 0x2DD JUMPI PUSH1 0x20 SWAP1 MLOAD PUSH1 0x1 DUP2 MSTORE RETURN JUMPDEST SWAP1 SWAP2 POP CALLVALUE PUSH2 0x461 JUMPI DUP3 PUSH1 0x3 NOT CALLDATASIZE ADD SLT PUSH2 0x461 JUMPI SLOAD SWAP1 MLOAD PUSH1 0x1 PUSH1 0x1 PUSH1 0xA0 SHL SUB SWAP1 SWAP2 AND DUP2 MSTORE PUSH1 0x20 SWAP2 POP RETURN JUMPDEST SWAP2 POP CALLVALUE PUSH2 0x461 JUMPI DUP3 PUSH1 0x3 NOT CALLDATASIZE ADD SLT PUSH2 0x461 JUMPI PUSH1 0x20 SWAP3 POP MLOAD SWAP1 DUP2 MSTORE RETURN JUMPDEST DUP4 DUP3 CALLVALUE PUSH2 0x2DD JUMPI PUSH1 0x20 CALLDATASIZE PUSH1 0x3 NOT ADD SLT PUSH2 0x2DD JUMPI PUSH1 0x80 SWAP2 DUP2 SWAP1 PUSH1 0x1 PUSH1 0x1 PUSH1 0xA0 SHL SUB PUSH2 0xB40 PUSH2 0x17F8 JUMP JUMPDEST AND DUP2 MSTORE PUSH1 0x10 PUSH1 0x20 MSTORE KECCAK256 SWAP1 DUP2 SLOAD SWAP2 PUSH1 0x1 DUP2 ADD SLOAD SWAP2 PUSH1 0xFF PUSH1 0x3 PUSH1 0x2 DUP5 ADD SLOAD SWAP4 ADD SLOAD AND SWAP3 DUP2 MLOAD SWAP5 DUP6 MSTORE PUSH1 0x20 DUP6 ADD MSTORE DUP4 ADD MSTORE ISZERO ISZERO PUSH1 0x60 DUP3 ADD MSTORE RETURN JUMPDEST DUP4 DUP3 CALLVALUE PUSH2 0x2DD JUMPI PUSH2 0xB87 CALLDATASIZE PUSH2 0x1829 JUMP JUMPDEST SWAP1 DUP4 MSTORE PUSH1 0x13 PUSH1 0x20 MSTORE DUP2 DUP4 KECCAK256 DUP1 SLOAD DUP3 LT ISZERO PUSH2 0x87B JUMPI SWAP1 PUSH2 0x856 SWAP2 PUSH2 0x1931 JUMP JUMPDEST DUP4 DUP3 CALLVALUE PUSH2 0x2DD JUMPI DUP2 PUSH1 0x3 NOT CALLDATASIZE ADD SLT PUSH2 0x2DD JUMPI PUSH1 0x20 SWAP1 PUSH1 0x16 SLOAD SWAP1 MLOAD SWAP1 DUP2 MSTORE RETURN JUMPDEST DUP4 DUP3 CALLVALUE PUSH2 0x2DD JUMPI DUP2 PUSH1 0x3 NOT CALLDATASIZE ADD SLT PUSH2 0x2DD JUMPI PUSH1 0x2 SLOAD SWAP1 MLOAD PUSH1 0x1 PUSH1 0x1 PUSH1 0xA0 SHL SUB SWAP1 SWAP2 AND DUP2 MSTORE PUSH1 0x20 SWAP1 RETURN JUMPDEST DUP4 DUP3 CALLVALUE PUSH2 0x2DD JUMPI DUP2 PUSH1 0x3 NOT CALLDATASIZE ADD SLT PUSH2 0x2DD JUMPI PUSH1 0x20 SWAP1 PUSH1 0x19 SLOAD SWAP1 MLOAD SWAP1 DUP2 MSTORE RETURN JUMPDEST DUP4 CALLVALUE PUSH2 0x2BB JUMPI DUP1 PUSH1 0x3 NOT CALLDATASIZE ADD SLT PUSH2 0x2BB JUMPI PUSH2 0xC25 PUSH2 0x1AC6 JUMP JUMPDEST PUSH1 0x0 DUP1 MLOAD PUSH1 0x20 PUSH2 0x1B92 DUP4 CODECOPY DUP2 MLOAD SWAP2 MSTORE DUP1 SLOAD PUSH1 0x1 PUSH1 0x1 PUSH1 0xA0 SHL SUB NOT DUP2 AND SWAP1 SWAP2 SSTORE DUP2 SWAP1 PUSH1 0x1 PUSH1 0x1 PUSH1 0xA0 SHL SUB AND PUSH1 0x0 DUP1 MLOAD PUSH1 0x20 PUSH2 0x1BD2 DUP4 CODECOPY DUP2 MLOAD SWAP2 MSTORE DUP3 DUP1 LOG3 DUP1 RETURN JUMPDEST DUP4 DUP3 CALLVALUE PUSH2 0x2DD JUMPI DUP2 PUSH1 0x3 NOT CALLDATASIZE ADD SLT PUSH2 0x2DD JUMPI PUSH1 0x20 SWAP1 PUSH1 0x14 SLOAD SWAP1 MLOAD SWAP1 DUP2 MSTORE RETURN JUMPDEST DUP4 DUP3 CALLVALUE PUSH2 0x2DD JUMPI DUP2 PUSH1 0x3 NOT CALLDATASIZE ADD SLT PUSH2 0x2DD JUMPI PUSH1 0x20 SWAP1 MLOAD PUSH2 0x3E8 DUP2 MSTORE RETURN JUMPDEST DUP4 DUP3 CALLVALUE PUSH2 0x2DD JUMPI DUP2 PUSH1 0x3 NOT CALLDATASIZE ADD SLT PUSH2 0x2DD JUMPI PUSH1 0x20 SWAP1 PUSH1 0x18 SLOAD SWAP1 MLOAD SWAP1 DUP2 MSTORE RETURN JUMPDEST SWAP1 DUP4 CALLVALUE PUSH2 0x2BB JUMPI DUP1 PUSH1 0x3 NOT CALLDATASIZE ADD SLT PUSH2 0x2BB JUMPI POP PUSH32 0x0 PUSH1 0x1 PUSH1 0x1 PUSH1 0xA0 SHL SUB AND ADDRESS SUB PUSH2 0xD19 JUMPI PUSH1 0x20 SWAP1 MLOAD PUSH1 0x0 DUP1 MLOAD PUSH1 0x20 PUSH2 0x1BB2 DUP4 CODECOPY DUP2 MLOAD SWAP2 MSTORE DUP2 MSTORE RETURN JUMPDEST MLOAD PUSH4 0x703E46DD PUSH1 0xE1 SHL DUP2 MSTORE REVERT JUMPDEST SWAP2 POP CALLVALUE PUSH2 0x461 JUMPI DUP3 PUSH1 0x3 NOT CALLDATASIZE ADD SLT PUSH2 0x461 JUMPI PUSH2 0xDDA SWAP3 POP PUSH1 0x60 DUP2 MLOAD PUSH2 0xD4A DUP2 PUSH2 0x183F JUMP JUMPDEST CALLDATASIZE SWAP1 CALLDATACOPY PUSH1 0x60 DUP2 MLOAD PUSH2 0xD5A DUP2 PUSH2 0x183F JUMP JUMPDEST CALLDATASIZE SWAP1 CALLDATACOPY PUSH2 0x824 DUP2 MLOAD PUSH2 0xD6B DUP2 PUSH2 0x183F JUMP JUMPDEST PUSH1 0x7 DUP2 MSTORE PUSH1 0xF PUSH1 0x20 DUP3 ADD MSTORE PUSH1 0x1E DUP4 DUP3 ADD MSTORE PUSH2 0xDE3 DUP4 MLOAD SWAP2 PUSH2 0xD8B DUP4 PUSH2 0x183F JUMP JUMPDEST PUSH3 0xCB7356 DUP4 MSTORE PUSH3 0xFE502B PUSH1 0x20 DUP5 ADD MSTORE PUSH4 0x1312D00 DUP6 DUP5 ADD MSTORE DUP5 MLOAD SWAP6 PUSH2 0xDAF DUP8 PUSH2 0x1870 JUMP JUMPDEST DUP7 MSTORE PUSH4 0x64617973 PUSH1 0xE0 SHL PUSH1 0x20 DUP8 ADD MSTORE DUP5 MLOAD SWAP7 DUP8 SWAP7 PUSH2 0x100 PUSH3 0x15180 DUP10 MSTORE DUP1 PUSH1 0x20 DUP11 ADD MSTORE DUP9 ADD SWAP1 PUSH2 0x18C9 JUMP JUMPDEST SWAP5 DUP7 ADD SWAP1 PUSH2 0x1909 JUMP JUMPDEST PUSH1 0xA0 DUP5 ADD SWAP1 PUSH2 0x1909 JUMP JUMPDEST SWAP2 POP DUP1 PUSH1 0x3 NOT CALLDATASIZE ADD SLT PUSH2 0x461 JUMPI PUSH2 0xE02 PUSH2 0x17F8 JUMP JUMPDEST PUSH1 0x24 SWAP4 SWAP1 SWAP2 SWAP1 DUP5 CALLDATALOAD PUSH1 0x1 PUSH1 0x1 PUSH1 0x40 SHL SUB DUP2 GT PUSH2 0x2DD JUMPI CALLDATASIZE PUSH1 0x23 DUP3 ADD SLT ISZERO PUSH2 0x2DD JUMPI DUP1 DUP6 ADD CALLDATALOAD PUSH2 0xE30 DUP2 PUSH2 0x18AE JUMP JUMPDEST SWAP5 PUSH2 0xE3D DUP6 MLOAD SWAP7 DUP8 PUSH2 0x188B JUMP JUMPDEST DUP2 DUP7 MSTORE PUSH1 0x20 SWAP2 DUP3 DUP8 ADD SWAP4 CALLDATASIZE DUP11 DUP4 DUP4 ADD ADD GT PUSH2 0x6BB JUMPI DUP2 DUP7 SWAP3 DUP12 DUP7 SWAP4 ADD DUP8 CALLDATACOPY DUP9 ADD ADD MSTORE PUSH1 0x1 PUSH1 0x1 PUSH1 0xA0 SHL SUB PUSH32 0x0 DUP2 AND ADDRESS DUP2 EQ SWAP1 DUP2 ISZERO PUSH2 0x1010 JUMPI JUMPDEST POP PUSH2 0x1000 JUMPI PUSH2 0xEA2 PUSH2 0x1AC6 JUMP JUMPDEST DUP2 AND SWAP6 DUP6 MLOAD PUSH4 0x52D1902D PUSH1 0xE0 SHL DUP2 MSTORE DUP4 DUP2 DUP11 DUP2 DUP12 GAS STATICCALL DUP7 SWAP2 DUP2 PUSH2 0xFD1 JUMPI JUMPDEST POP PUSH2 0xEDC JUMPI POP POP POP POP POP POP MLOAD SWAP2 PUSH4 0x4C9C8CE3 PUSH1 0xE0 SHL DUP4 MSTORE DUP3 ADD MSTORE REVERT JUMPDEST SWAP1 DUP9 DUP9 DUP9 SWAP5 SWAP4 DUP13 PUSH1 0x0 DUP1 MLOAD PUSH1 0x20 PUSH2 0x1BB2 DUP4 CODECOPY DUP2 MLOAD SWAP2 MSTORE SWAP2 DUP3 DUP2 SUB PUSH2 0xFBC JUMPI POP DUP6 EXTCODESIZE ISZERO PUSH2 0xFA8 JUMPI POP DUP1 SLOAD PUSH1 0x1 PUSH1 0x1 PUSH1 0xA0 SHL SUB NOT AND DUP3 OR SWAP1 SSTORE DUP5 MLOAD DUP9 SWAP4 SWAP3 SWAP2 PUSH32 0xBC7CD75A20EE27FD9ADEBAB32041F755214DBC6BFFA90CC0225B39DA2E5C2D3B DUP6 DUP1 LOG2 DUP3 MLOAD ISZERO PUSH2 0xF8A JUMPI POP POP PUSH2 0xF7C SWAP6 DUP3 SWAP2 MLOAD SWAP1 DUP5 GAS DELEGATECALL SWAP2 RETURNDATASIZE ISZERO PUSH2 0xF80 JUMPI RETURNDATASIZE PUSH2 0xF6E PUSH2 0xF65 DUP3 PUSH2 0x18AE JUMP JUMPDEST SWAP3 MLOAD SWAP3 DUP4 PUSH2 0x188B JUMP JUMPDEST DUP2 MSTORE DUP6 DUP2 SWAP5 RETURNDATASIZE SWAP3 ADD RETURNDATACOPY PUSH2 0x1B2E JUMP JUMPDEST POP DUP1 RETURN JUMPDEST POP PUSH1 0x60 SWAP3 POP PUSH2 0x1B2E JUMP JUMPDEST SWAP6 POP SWAP6 POP POP POP POP POP CALLVALUE PUSH2 0xF9C JUMPI POP POP DUP1 RETURN JUMPDEST PUSH4 0xB398979F PUSH1 0xE0 SHL DUP2 MSTORE REVERT JUMPDEST DUP7 MLOAD PUSH4 0x4C9C8CE3 PUSH1 0xE0 SHL DUP2 MSTORE DUP1 DUP6 ADD DUP5 SWAP1 MSTORE REVERT JUMPDEST DUP8 MLOAD PUSH4 0x2A875269 PUSH1 0xE2 SHL DUP2 MSTORE DUP1 DUP7 ADD SWAP2 SWAP1 SWAP2 MSTORE REVERT JUMPDEST SWAP1 SWAP2 POP DUP5 DUP2 DUP2 RETURNDATASIZE DUP4 GT PUSH2 0xFF9 JUMPI JUMPDEST PUSH2 0xFE9 DUP2 DUP4 PUSH2 0x188B JUMP JUMPDEST DUP2 ADD SUB SLT PUSH2 0x6B7 JUMPI MLOAD SWAP1 CODESIZE PUSH2 0xEC0 JUMP JUMPDEST POP RETURNDATASIZE PUSH2 0xFDF JUMP JUMPDEST DUP6 MLOAD PUSH4 0x703E46DD PUSH1 0xE1 SHL DUP2 MSTORE DUP9 SWAP1 REVERT JUMPDEST SWAP1 POP DUP2 PUSH1 0x0 DUP1 MLOAD PUSH1 0x20 PUSH2 0x1BB2 DUP4 CODECOPY DUP2 MLOAD SWAP2 MSTORE SLOAD AND EQ ISZERO CODESIZE PUSH2 0xE95 JUMP JUMPDEST SWAP1 SWAP2 POP CALLVALUE PUSH2 0x461 JUMPI PUSH2 0x103D CALLDATASIZE PUSH2 0x1829 JUMP JUMPDEST SWAP2 PUSH1 0x0 DUP1 MLOAD PUSH1 0x20 PUSH2 0x1BF2 DUP4 CODECOPY DUP2 MLOAD SWAP2 MSTORE SWAP3 PUSH1 0x2 DUP5 SLOAD EQ PUSH2 0x1349 JUMPI PUSH1 0x2 DUP5 SSTORE PUSH1 0xFF PUSH1 0x15 SLOAD AND ISZERO PUSH2 0x1311 JUMPI CALLER DUP7 MSTORE PUSH1 0x20 SWAP5 PUSH1 0x10 DUP7 MSTORE DUP1 DUP8 KECCAK256 SWAP6 PUSH1 0x1 SWAP7 DUP8 DUP2 ADD SLOAD ISZERO PUSH2 0x12DB JUMPI PUSH1 0x3 ADD SLOAD PUSH1 0xFF AND PUSH2 0x12A9 JUMPI PUSH1 0x7 DUP4 EQ DUP1 ISZERO PUSH2 0x129F JUMPI JUMPDEST DUP1 ISZERO PUSH2 0x1295 JUMPI JUMPDEST ISZERO PUSH2 0x1242 JUMPI DUP5 ISZERO PUSH2 0x120F JUMPI CALLER DUP9 MSTORE PUSH1 0x11 DUP2 MSTORE DUP2 DUP9 KECCAK256 PUSH1 0x19 SLOAD DUP4 MLOAD SWAP2 SWAP1 PUSH1 0xC0 DUP4 ADD PUSH1 0x1 PUSH1 0x1 PUSH1 0x40 SHL SUB DUP2 GT DUP5 DUP3 LT OR PUSH2 0x11FC JUMPI SWAP1 DUP12 SWAP3 SWAP2 DUP7 MSTORE DUP4 MSTORE DUP4 DUP4 ADD DUP9 DUP2 MSTORE DUP6 DUP5 ADD TIMESTAMP DUP2 MSTORE PUSH1 0x60 DUP6 ADD SWAP2 DUP9 DUP4 MSTORE PUSH1 0x80 DUP7 ADD SWAP4 DUP14 DUP6 MSTORE PUSH1 0xA0 DUP8 ADD SWAP6 DUP7 MSTORE DUP1 SLOAD SWAP1 PUSH1 0x1 PUSH1 0x40 SHL DUP3 LT ISZERO PUSH2 0x11E8 JUMPI SWAP1 PUSH2 0x1118 SWAP2 DUP16 DUP3 ADD DUP2 SSTORE PUSH2 0x1963 JUMP JUMPDEST SWAP7 SWAP1 SWAP7 PUSH2 0x11D6 JUMPI MLOAD DUP7 SSTORE MLOAD DUP13 DUP7 ADD SSTORE MLOAD PUSH1 0x2 DUP6 ADD SSTORE MLOAD PUSH1 0x3 DUP5 ADD SSTORE MLOAD DUP7 DUP4 ADD DUP1 SLOAD PUSH1 0xFF NOT AND SWAP2 ISZERO ISZERO PUSH1 0xFF AND SWAP2 SWAP1 SWAP2 OR SWAP1 SSTORE MLOAD PUSH1 0x5 SWAP1 SWAP2 ADD SSTORE PUSH1 0x19 DUP1 SLOAD DUP10 MSTORE PUSH1 0x1D SWAP1 SWAP2 MSTORE DUP2 DUP9 KECCAK256 DUP1 SLOAD CALLER PUSH1 0x1 PUSH1 0x1 PUSH1 0xA0 SHL SUB NOT SWAP1 SWAP2 AND OR SWAP1 SSTORE SLOAD SWAP3 PUSH1 0x0 NOT DUP5 EQ PUSH2 0x11C3 JUMPI DUP7 DUP5 ADD DUP1 PUSH1 0x19 SSTORE DUP5 GT PUSH2 0x11C3 JUMPI POP SWAP1 PUSH2 0x11BC PUSH32 0xA8A1B9E33E503EED12BF7E7C8C01C7F3B60217A496BDDD0F5DB351DD8C056C1C SWAP4 SWAP3 MLOAD SWAP3 DUP4 SWAP3 CALLER SWAP7 DUP5 PUSH2 0x1813 JUMP JUMPDEST SUB SWAP1 LOG2 SSTORE DUP1 RETURN JUMPDEST PUSH4 0x4E487B71 PUSH1 0xE0 SHL DUP9 MSTORE PUSH1 0x11 SWAP1 MSTORE PUSH1 0x24 DUP8 REVERT JUMPDEST PUSH4 0x4E487B71 PUSH1 0xE0 SHL DUP16 MSTORE DUP15 DUP12 MSTORE PUSH1 0x24 DUP16 REVERT JUMPDEST POP PUSH4 0x4E487B71 PUSH1 0xE0 SHL DUP16 MSTORE PUSH1 0x41 DUP12 MSTORE PUSH1 0x24 DUP16 REVERT JUMPDEST PUSH4 0x4E487B71 PUSH1 0xE0 SHL DUP13 MSTORE PUSH1 0x41 DUP9 MSTORE PUSH1 0x24 DUP13 REVERT JUMPDEST DUP4 SWAP1 PUSH1 0x64 SWAP3 MLOAD SWAP2 PUSH3 0x461BCD PUSH1 0xE5 SHL DUP4 MSTORE DUP3 ADD MSTORE PUSH1 0xE PUSH1 0x24 DUP3 ADD MSTORE PUSH14 0x125B9D985B1A5908185B5BDD5B9D PUSH1 0x92 SHL PUSH1 0x44 DUP3 ADD MSTORE REVERT JUMPDEST DUP4 SWAP1 PUSH1 0x84 SWAP3 MLOAD SWAP2 PUSH3 0x461BCD PUSH1 0xE5 SHL DUP4 MSTORE DUP3 ADD MSTORE PUSH1 0x28 PUSH1 0x24 DUP3 ADD MSTORE PUSH32 0x496E76616C6964206379636C653A206D75737420626520372C2031352C206F72 PUSH1 0x44 DUP3 ADD MSTORE PUSH8 0x2033302064617973 PUSH1 0xC0 SHL PUSH1 0x64 DUP3 ADD MSTORE REVERT JUMPDEST POP PUSH1 0x1E DUP4 EQ PUSH2 0x109D JUMP JUMPDEST POP PUSH1 0xF DUP4 EQ PUSH2 0x1096 JUMP JUMPDEST DUP4 SWAP1 PUSH1 0x64 SWAP3 MLOAD SWAP2 PUSH3 0x461BCD PUSH1 0xE5 SHL DUP4 MSTORE DUP3 ADD MSTORE PUSH1 0xD PUSH1 0x24 DUP3 ADD MSTORE PUSH13 0x151A58DAD95D08195E1A5D1959 PUSH1 0x9A SHL PUSH1 0x44 DUP3 ADD MSTORE REVERT JUMPDEST DUP3 MLOAD PUSH3 0x461BCD PUSH1 0xE5 SHL DUP2 MSTORE DUP1 DUP7 ADD DUP4 SWAP1 MSTORE PUSH1 0x10 PUSH1 0x24 DUP3 ADD MSTORE PUSH16 0x139BC81858DD1A5D99481D1A58DAD95D PUSH1 0x82 SHL PUSH1 0x44 DUP3 ADD MSTORE PUSH1 0x64 SWAP1 REVERT JUMPDEST DUP5 MLOAD PUSH3 0x461BCD PUSH1 0xE5 SHL DUP2 MSTORE PUSH1 0x20 DUP2 DUP5 ADD MSTORE PUSH1 0x12 PUSH1 0x24 DUP3 ADD MSTORE PUSH18 0x131A5C5D5A591A5D1E48191A5CD8589B1959 PUSH1 0x72 SHL PUSH1 0x44 DUP3 ADD MSTORE PUSH1 0x64 SWAP1 REVERT JUMPDEST POP DUP4 MLOAD PUSH4 0x3EE5AEB5 PUSH1 0xE0 SHL DUP2 MSTORE REVERT JUMPDEST DUP4 DUP3 CALLVALUE PUSH2 0x2DD JUMPI DUP2 PUSH1 0x3 NOT CALLDATASIZE ADD SLT PUSH2 0x2DD JUMPI PUSH1 0x20 SWAP1 MLOAD PUSH3 0x15180 DUP2 MSTORE RETURN JUMPDEST DUP4 DUP3 CALLVALUE PUSH2 0x2DD JUMPI DUP2 PUSH1 0x3 NOT CALLDATASIZE ADD SLT PUSH2 0x2DD JUMPI PUSH1 0x3 SLOAD SWAP1 MLOAD PUSH1 0x1 PUSH1 0x1 PUSH1 0xA0 SHL SUB SWAP1 SWAP2 AND DUP2 MSTORE PUSH1 0x20 SWAP1 RETURN JUMPDEST SWAP1 SWAP2 POP CALLVALUE PUSH2 0x461 JUMPI PUSH1 0x20 CALLDATASIZE PUSH1 0x3 NOT ADD SLT PUSH2 0x461 JUMPI CALLDATALOAD DUP3 MSTORE PUSH1 0x1D PUSH1 0x20 SWAP1 DUP2 MSTORE SWAP2 DUP2 SWAP1 KECCAK256 SLOAD SWAP1 MLOAD PUSH1 0x1 PUSH1 0x1 PUSH1 0xA0 SHL SUB SWAP1 SWAP2 AND DUP2 MSTORE RETURN JUMPDEST DUP4 DUP3 CALLVALUE PUSH2 0x2DD JUMPI DUP2 PUSH1 0x3 NOT CALLDATASIZE ADD SLT PUSH2 0x2DD JUMPI PUSH1 0x20 SWAP1 PUSH1 0xD SLOAD SWAP1 MLOAD SWAP1 DUP2 MSTORE RETURN JUMPDEST DUP4 DUP3 CALLVALUE PUSH2 0x2DD JUMPI DUP2 PUSH1 0x3 NOT CALLDATASIZE ADD SLT PUSH2 0x2DD JUMPI PUSH1 0x20 SWAP1 PUSH1 0xFF PUSH1 0x4E SLOAD AND SWAP1 MLOAD SWAP1 ISZERO ISZERO DUP2 MSTORE RETURN JUMPDEST DUP4 DUP3 CALLVALUE PUSH2 0x2DD JUMPI DUP2 PUSH1 0x3 NOT CALLDATASIZE ADD SLT PUSH2 0x2DD JUMPI PUSH1 0x4E SLOAD SWAP1 MLOAD PUSH1 0x8 SWAP2 SWAP1 SWAP2 SHR PUSH1 0x1 PUSH1 0x1 PUSH1 0xA0 SHL SUB AND DUP2 MSTORE PUSH1 0x20 SWAP1 RETURN JUMPDEST DUP4 DUP3 CALLVALUE PUSH2 0x2DD JUMPI DUP2 PUSH1 0x3 NOT CALLDATASIZE ADD SLT PUSH2 0x2DD JUMPI PUSH1 0x20 SWAP1 MLOAD PUSH9 0x3635C9ADC5DEA00000 DUP2 MSTORE RETURN JUMPDEST POP DUP3 CALLVALUE PUSH2 0x2BB JUMPI PUSH1 0x20 CALLDATASIZE PUSH1 0x3 NOT ADD SLT PUSH2 0x2BB JUMPI PUSH1 0x2 SWAP1 DUP3 SWAP1 PUSH1 0x1 PUSH1 0x1 PUSH1 0xA0 SHL SUB PUSH2 0x148F PUSH2 0x17F8 JUMP JUMPDEST AND DUP2 MSTORE PUSH1 0xF PUSH1 0x20 MSTORE KECCAK256 ADD SLOAD SWAP1 PUSH2 0x824 PUSH2 0x14A7 DUP4 PUSH2 0x1A17 JUMP JUMPDEST SWAP4 SWAP1 SWAP3 MLOAD SWAP4 DUP5 SWAP4 DUP5 PUSH2 0x1813 JUMP JUMPDEST DUP4 DUP3 CALLVALUE PUSH2 0x2DD JUMPI DUP2 PUSH1 0x3 NOT CALLDATASIZE ADD SLT PUSH2 0x2DD JUMPI PUSH1 0x20 SWAP1 PUSH1 0x17 SLOAD SWAP1 MLOAD SWAP1 DUP2 MSTORE RETURN JUMPDEST SWAP1 SWAP2 POP CALLVALUE PUSH2 0x461 JUMPI PUSH1 0x20 CALLDATASIZE PUSH1 0x3 NOT ADD SLT PUSH2 0x461 JUMPI PUSH2 0x160 SWAP3 PUSH1 0x1 PUSH1 0x1 PUSH1 0xA0 SHL SUB SWAP1 DUP4 SWAP1 DUP3 PUSH2 0x14FF PUSH2 0x17F8 JUMP JUMPDEST AND DUP2 MSTORE PUSH1 0xF PUSH1 0x20 MSTORE KECCAK256 SWAP1 DUP2 SLOAD AND SWAP3 PUSH1 0x1 DUP3 ADD SLOAD SWAP3 PUSH1 0x2 DUP4 ADD SLOAD SWAP1 PUSH1 0x3 DUP5 ADD SLOAD SWAP1 DUP5 ADD SLOAD PUSH1 0xFF PUSH1 0x5 DUP7 ADD SLOAD AND SWAP1 PUSH1 0x6 DUP7 ADD SLOAD SWAP3 PUSH1 0x7 DUP8 ADD SLOAD SWAP5 PUSH1 0x8 DUP9 ADD SLOAD SWAP7 PUSH1 0xA PUSH1 0x9 DUP11 ADD SLOAD SWAP10 ADD SLOAD SWAP10 DUP2 MLOAD SWAP12 DUP13 MSTORE PUSH1 0x20 DUP13 ADD MSTORE DUP11 ADD MSTORE PUSH1 0x60 DUP10 ADD MSTORE PUSH1 0x80 DUP9 ADD MSTORE ISZERO ISZERO PUSH1 0xA0 DUP8 ADD MSTORE PUSH1 0xC0 DUP7 ADD MSTORE PUSH1 0xE0 DUP6 ADD MSTORE PUSH2 0x100 DUP5 ADD MSTORE PUSH2 0x120 DUP4 ADD MSTORE PUSH2 0x140 DUP3 ADD MSTORE RETURN JUMPDEST DUP4 DUP3 CALLVALUE PUSH2 0x2DD JUMPI DUP2 PUSH1 0x3 NOT CALLDATASIZE ADD SLT PUSH2 0x2DD JUMPI PUSH1 0x1 SLOAD SWAP1 MLOAD PUSH1 0x1 PUSH1 0x1 PUSH1 0xA0 SHL SUB SWAP1 SWAP2 AND DUP2 MSTORE PUSH1 0x20 SWAP1 RETURN JUMPDEST DUP4 DUP3 CALLVALUE PUSH2 0x2DD JUMPI DUP2 PUSH1 0x3 NOT CALLDATASIZE ADD SLT PUSH2 0x2DD JUMPI MLOAD SWAP1 DUP2 MSTORE PUSH1 0x20 SWAP1 RETURN JUMPDEST DUP4 CALLVALUE PUSH2 0x2BB JUMPI DUP3 PUSH1 0x3 NOT CALLDATASIZE ADD SLT PUSH2 0x2BB JUMPI PUSH2 0x15E1 PUSH2 0x17F8 JUMP JUMPDEST PUSH1 0x1 PUSH1 0x1 PUSH1 0xA0 SHL SUB AND DUP1 DUP3 MSTORE PUSH1 0x11 PUSH1 0x20 MSTORE DUP4 DUP3 KECCAK256 SLOAD PUSH1 0x24 CALLDATALOAD SWAP2 SWAP1 DUP3 LT ISZERO PUSH2 0x1734 JUMPI PUSH2 0x100 SWAP5 SWAP2 PUSH2 0x161A SWAP2 DUP5 MSTORE PUSH1 0x11 PUSH1 0x20 MSTORE DUP3 DUP5 KECCAK256 PUSH2 0x1963 JUMP JUMPDEST POP SWAP1 PUSH1 0x2 DUP3 ADD SLOAD SWAP3 PUSH3 0x15180 PUSH2 0x1630 DUP6 TIMESTAMP PUSH2 0x197F JUMP JUMPDEST DIV SWAP4 DUP2 SWAP3 PUSH1 0x3 DUP6 ADD SLOAD SWAP1 DUP2 DUP8 LT PUSH2 0x1722 JUMPI JUMPDEST DUP4 PUSH1 0x7 DUP4 SUB PUSH2 0x16DA JUMPI POP PUSH1 0xFF PUSH2 0x167F SWAP9 PUSH4 0x3B9ACA00 PUSH3 0xCB7356 SWAP11 DUP12 SWAP11 JUMPDEST PUSH2 0x166E PUSH1 0x1 DUP13 ADD SLOAD SWAP14 DUP15 PUSH2 0x19A2 JUMP JUMPDEST SWAP1 DUP8 DUP2 GT ISZERO PUSH2 0x16D4 JUMPI POP DUP7 SWAP1 PUSH2 0x19A2 JUMP JUMPDEST DIV SWAP6 PUSH1 0x5 DUP10 ADD SLOAD DUP1 SWAP8 DUP2 DUP2 GT PUSH1 0x0 EQ PUSH2 0x16CC JUMPI PUSH2 0x169C SWAP3 POP PUSH2 0x197F JUMP JUMPDEST SWAP8 JUMPDEST ADD SLOAD AND SWAP3 DUP2 MLOAD SWAP9 DUP10 MSTORE PUSH1 0x20 DUP10 ADD MSTORE DUP8 ADD MSTORE ISZERO ISZERO PUSH1 0x60 DUP7 ADD MSTORE PUSH1 0x80 DUP6 ADD MSTORE PUSH1 0xA0 DUP5 ADD MSTORE PUSH1 0xC0 DUP4 ADD MSTORE PUSH1 0xE0 DUP3 ADD MSTORE RETURN JUMPDEST POP POP SWAP8 PUSH2 0x169E JUMP JUMPDEST SWAP1 PUSH2 0x19A2 JUMP JUMPDEST PUSH1 0xF DUP4 SUB PUSH2 0x16FA JUMPI POP PUSH1 0xFF PUSH2 0x167F SWAP9 PUSH4 0x3B9ACA00 PUSH3 0xFE502B SWAP11 DUP12 SWAP11 PUSH2 0x165F JUMP JUMPDEST SWAP7 PUSH1 0x1E DUP4 EQ PUSH2 0x1716 JUMPI JUMPDEST DUP8 SWAP9 PUSH4 0x3B9ACA00 PUSH2 0x167F PUSH1 0xFF SWAP4 PUSH2 0x165F JUMP JUMPDEST PUSH4 0x1312D00 SWAP8 POP PUSH2 0x1704 JUMP JUMPDEST SWAP4 POP PUSH2 0x172E DUP7 DUP3 PUSH2 0x197F JUMP JUMPDEST SWAP4 PUSH2 0x1642 JUMP JUMPDEST DUP5 MLOAD PUSH3 0x461BCD PUSH1 0xE5 SHL DUP2 MSTORE PUSH1 0x20 DUP2 DUP7 ADD MSTORE PUSH1 0x13 PUSH1 0x24 DUP3 ADD MSTORE PUSH19 0x92DCECC2D8D2C840E6E8C2D6CA40D2DCC8CAF PUSH1 0x6B SHL PUSH1 0x44 DUP3 ADD MSTORE PUSH1 0x64 SWAP1 REVERT JUMPDEST DUP4 DUP3 CALLVALUE PUSH2 0x2DD JUMPI DUP2 PUSH1 0x3 NOT CALLDATASIZE ADD SLT PUSH2 0x2DD JUMPI PUSH1 0x20 SWAP1 MLOAD PUSH1 0x2 DUP2 MSTORE RETURN JUMPDEST DUP4 DUP3 CALLVALUE PUSH2 0x2DD JUMPI DUP1 PUSH1 0x3 NOT CALLDATASIZE ADD SLT PUSH2 0x2DD JUMPI PUSH2 0x17A3 PUSH2 0x17F8 JUMP JUMPDEST PUSH1 0x1 PUSH1 0x1 PUSH1 0xA0 SHL SUB SWAP1 DUP2 AND DUP4 MSTORE PUSH1 0x12 PUSH1 0x20 MSTORE DUP2 DUP4 KECCAK256 DUP1 SLOAD PUSH1 0x24 CALLDATALOAD SWAP2 SWAP1 DUP3 LT ISZERO PUSH2 0x17D8 JUMPI DUP5 MSTORE PUSH1 0x20 SWAP4 DUP5 SWAP1 KECCAK256 ADD SLOAD SWAP2 MLOAD SWAP2 AND DUP2 MSTORE RETURN JUMPDEST DUP5 DUP1 REVERT JUMPDEST DUP5 SWAP1 CALLVALUE PUSH2 0x2DD JUMPI DUP2 PUSH1 0x3 NOT CALLDATASIZE ADD SLT PUSH2 0x2DD JUMPI PUSH1 0x20 SWAP1 PUSH1 0xB SLOAD DUP2 MSTORE RETURN JUMPDEST PUSH1 0x4 CALLDATALOAD SWAP1 PUSH1 0x1 PUSH1 0x1 PUSH1 0xA0 SHL SUB DUP3 AND DUP3 SUB PUSH2 0x180E JUMPI JUMP JUMPDEST PUSH1 0x0 DUP1 REVERT JUMPDEST PUSH1 0x40 SWAP2 SWAP5 SWAP4 SWAP3 PUSH1 0x60 DUP3 ADD SWAP6 DUP3 MSTORE PUSH1 0x20 DUP3 ADD MSTORE ADD MSTORE JUMP JUMPDEST PUSH1 0x40 SWAP1 PUSH1 0x3 NOT ADD SLT PUSH2 0x180E JUMPI PUSH1 0x4 CALLDATALOAD SWAP1 PUSH1 0x24 CALLDATALOAD SWAP1 JUMP JUMPDEST PUSH1 0x60 DUP2 ADD SWAP1 DUP2 LT PUSH1 0x1 PUSH1 0x1 PUSH1 0x40 SHL SUB DUP3 GT OR PUSH2 0x185A JUMPI PUSH1 0x40 MSTORE JUMP JUMPDEST PUSH4 0x4E487B71 PUSH1 0xE0 SHL PUSH1 0x0 MSTORE PUSH1 0x41 PUSH1 0x4 MSTORE PUSH1 0x24 PUSH1 0x0 REVERT JUMPDEST PUSH1 0x40 DUP2 ADD SWAP1 DUP2 LT PUSH1 0x1 PUSH1 0x1 PUSH1 0x40 SHL SUB DUP3 GT OR PUSH2 0x185A JUMPI PUSH1 0x40 MSTORE JUMP JUMPDEST PUSH1 0x1F SWAP1 SWAP2 ADD PUSH1 0x1F NOT AND DUP2 ADD SWAP1 PUSH1 0x1 PUSH1 0x1 PUSH1 0x40 SHL SUB DUP3 GT SWAP1 DUP3 LT OR PUSH2 0x185A JUMPI PUSH1 0x40 MSTORE JUMP JUMPDEST PUSH1 0x1 PUSH1 0x1 PUSH1 0x40 SHL SUB DUP2 GT PUSH2 0x185A JUMPI PUSH1 0x1F ADD PUSH1 0x1F NOT AND PUSH1 0x20 ADD SWAP1 JUMP JUMPDEST SWAP2 SWAP1 DUP3 MLOAD SWAP3 DUP4 DUP3 MSTORE PUSH1 0x0 JUMPDEST DUP5 DUP2 LT PUSH2 0x18F5 JUMPI POP POP DUP3 PUSH1 0x0 PUSH1 0x20 DUP1 SWAP5 SWAP6 DUP5 ADD ADD MSTORE PUSH1 0x1F DUP1 NOT SWAP2 ADD AND ADD ADD SWAP1 JUMP JUMPDEST PUSH1 0x20 DUP2 DUP4 ADD DUP2 ADD MLOAD DUP5 DUP4 ADD DUP3 ADD MSTORE ADD PUSH2 0x18D4 JUMP JUMPDEST PUSH1 0x0 SWAP2 JUMPDEST PUSH1 0x3 DUP4 LT PUSH2 0x191A JUMPI POP POP POP JUMP JUMPDEST PUSH1 0x1 SWAP1 DUP3 MLOAD DUP2 MSTORE PUSH1 0x20 DUP1 SWAP2 ADD SWAP3 ADD SWAP3 ADD SWAP2 SWAP1 PUSH2 0x190D JUMP JUMPDEST DUP1 SLOAD DUP3 LT ISZERO PUSH2 0x194D JUMPI PUSH1 0x0 MSTORE PUSH1 0x20 PUSH1 0x0 KECCAK256 SWAP1 PUSH1 0x1 SHL ADD SWAP1 PUSH1 0x0 SWAP1 JUMP JUMPDEST PUSH4 0x4E487B71 PUSH1 0xE0 SHL PUSH1 0x0 MSTORE PUSH1 0x32 PUSH1 0x4 MSTORE PUSH1 0x24 PUSH1 0x0 REVERT JUMPDEST DUP1 SLOAD DUP3 LT ISZERO PUSH2 0x194D JUMPI PUSH1 0x0 MSTORE PUSH1 0x6 PUSH1 0x20 PUSH1 0x0 KECCAK256 SWAP2 MUL ADD SWAP1 PUSH1 0x0 SWAP1 JUMP JUMPDEST SWAP2 SWAP1 DUP3 SUB SWAP2 DUP3 GT PUSH2 0x198C JUMPI JUMP JUMPDEST PUSH4 0x4E487B71 PUSH1 0xE0 SHL PUSH1 0x0 MSTORE PUSH1 0x11 PUSH1 0x4 MSTORE PUSH1 0x24 PUSH1 0x0 REVERT JUMPDEST DUP2 DUP2 MUL SWAP3 SWAP2 DUP2 ISZERO SWAP2 DUP5 DIV EQ OR ISZERO PUSH2 0x198C JUMPI JUMP JUMPDEST PUSH1 0x1 PUSH1 0x1 PUSH1 0xA0 SHL SUB SWAP1 DUP2 AND SWAP1 DUP2 ISZERO PUSH2 0x19FE JUMPI PUSH1 0x0 DUP1 MLOAD PUSH1 0x20 PUSH2 0x1B92 DUP4 CODECOPY DUP2 MLOAD SWAP2 MSTORE DUP1 SLOAD PUSH1 0x1 PUSH1 0x1 PUSH1 0xA0 SHL SUB NOT DUP2 AND DUP5 OR SWAP1 SWAP2 SSTORE AND PUSH1 0x0 DUP1 MLOAD PUSH1 0x20 PUSH2 0x1BD2 DUP4 CODECOPY DUP2 MLOAD SWAP2 MSTORE PUSH1 0x0 DUP1 LOG3 JUMP JUMPDEST PUSH1 0x40 MLOAD PUSH4 0x1E4FBDF7 PUSH1 0xE0 SHL DUP2 MSTORE PUSH1 0x0 PUSH1 0x4 DUP3 ADD MSTORE PUSH1 0x24 SWAP1 REVERT JUMPDEST PUSH3 0x186A0 DUP2 LT ISZERO PUSH2 0x1ABD JUMPI PUSH2 0x7530 DUP2 LT ISZERO PUSH2 0x1AB4 JUMPI PUSH2 0x2710 DUP2 LT ISZERO PUSH2 0x1AAB JUMPI PUSH2 0xBB8 DUP2 LT ISZERO PUSH2 0x1AA2 JUMPI PUSH2 0x3E8 DUP2 LT ISZERO PUSH2 0x1A99 JUMPI PUSH2 0x12C DUP2 LT ISZERO PUSH2 0x1A90 JUMPI PUSH1 0x64 DUP2 LT ISZERO PUSH2 0x1A87 JUMPI PUSH1 0x1E DUP2 LT ISZERO PUSH2 0x1A7E JUMPI PUSH1 0xA GT ISZERO PUSH2 0x1A76 JUMPI PUSH1 0x0 SWAP1 PUSH1 0x0 SWAP1 JUMP JUMPDEST PUSH1 0x1 SWAP1 PUSH1 0x5 SWAP1 JUMP JUMPDEST POP PUSH1 0x2 SWAP1 PUSH1 0xA SWAP1 JUMP JUMPDEST POP PUSH1 0x3 SWAP1 PUSH1 0xF SWAP1 JUMP JUMPDEST POP PUSH1 0x4 SWAP1 PUSH1 0x14 SWAP1 JUMP JUMPDEST POP PUSH1 0x5 SWAP1 PUSH1 0x19 SWAP1 JUMP JUMPDEST POP PUSH1 0x6 SWAP1 PUSH1 0x1E SWAP1 JUMP JUMPDEST POP PUSH1 0x7 SWAP1 PUSH1 0x23 SWAP1 JUMP JUMPDEST POP PUSH1 0x8 SWAP1 PUSH1 0x28 SWAP1 JUMP JUMPDEST POP PUSH1 0x9 SWAP1 PUSH1 0x2D SWAP1 JUMP JUMPDEST PUSH1 0x0 DUP1 MLOAD PUSH1 0x20 PUSH2 0x1B92 DUP4 CODECOPY DUP2 MLOAD SWAP2 MSTORE SLOAD PUSH1 0x1 PUSH1 0x1 PUSH1 0xA0 SHL SUB AND CALLER SUB PUSH2 0x1AE7 JUMPI JUMP JUMPDEST PUSH1 0x40 MLOAD PUSH4 0x118CDAA7 PUSH1 0xE0 SHL DUP2 MSTORE CALLER PUSH1 0x4 DUP3 ADD MSTORE PUSH1 0x24 SWAP1 REVERT JUMPDEST PUSH1 0xFF PUSH1 0x0 DUP1 MLOAD PUSH1 0x20 PUSH2 0x1C12 DUP4 CODECOPY DUP2 MLOAD SWAP2 MSTORE SLOAD PUSH1 0x40 SHR AND ISZERO PUSH2 0x1B1C JUMPI JUMP JUMPDEST PUSH1 0x40 MLOAD PUSH4 0x1AFCD79F PUSH1 0xE3 SHL DUP2 MSTORE PUSH1 0x4 SWAP1 REVERT JUMPDEST SWAP1 PUSH2 0x1B55 JUMPI POP DUP1 MLOAD ISZERO PUSH2 0x1B43 JUMPI PUSH1 0x20 DUP2 MLOAD SWAP2 ADD REVERT JUMPDEST PUSH1 0x40 MLOAD PUSH4 0xD6BDA275 PUSH1 0xE0 SHL DUP2 MSTORE PUSH1 0x4 SWAP1 REVERT JUMPDEST DUP2 MLOAD ISZERO DUP1 PUSH2 0x1B88 JUMPI JUMPDEST PUSH2 0x1B66 JUMPI POP SWAP1 JUMP JUMPDEST PUSH1 0x40 MLOAD PUSH4 0x9996B315 PUSH1 0xE0 SHL DUP2 MSTORE PUSH1 0x1 PUSH1 0x1 PUSH1 0xA0 SHL SUB SWAP1 SWAP2 AND PUSH1 0x4 DUP3 ADD MSTORE PUSH1 0x24 SWAP1 REVERT JUMPDEST POP DUP1 EXTCODESIZE ISZERO PUSH2 0x1B5E JUMP INVALID SWAP1 AND 0xD0 SWAP14 PUSH19 0xD40FDAE2FD8CEAC6B6234C7706214FD39C1CD1 0xE6 MULMOD LOG0 MSTORE DUP13 NOT SWAP4 STOP CALLDATASIZE ADDMOD SWAP5 LOG1 EXTCODESIZE LOG1 LOG3 0x21 MOD PUSH8 0xC828492DB98DCA3E KECCAK256 PUSH23 0xCC3735A920A3CA505D382BBC8BE0079C531659141344CD 0x1F 0xD0 LOG4 CALLCODE DUP5 NOT 0x49 PUSH32 0x9722A3DAAFE3B4186F6B6457E09B779B17422D0DF92223018B32B4D1FA46E071 PUSH19 0x3D6817E2486D003BECC55F00F0C57E16840DF0 BLOCKHASH CALL POP DUP9 0xDC 0x2F DUP2 INVALID CODECOPY SHR CODECOPY 0x23 0xBE 0xC7 RETURNDATACOPY 0x23 0xA9 PUSH7 0x2EFC9C229C6A00 LOG2 PUSH5 0x6970667358 0x22 SLT KECCAK256 GASLIMIT SELFBALANCE 0xD1 0xEB SWAP7 0xB8 0xE SWAP7 ORIGIN PREVRANDAO PUSH13 0x5D939E69667A097898A9AC4E7E 0xDF MLOAD 0xC1 PUSH23 0x22F813C964736F6C634300081600330000000000000000 "},"methodIdentifiers":{"MAX_PRICE_IMPACT()":"6839b5fa","MIN_LIQUIDITY()":"21b77d63","REWARD_DIFFERENTIAL()":"88481b61","REWARD_DIRECT()":"0e2be210","REWARD_DYNAMIC()":"8a859a85","REWARD_LEVEL()":"8c0eaa48","REWARD_STATIC()":"1427f616","SECONDS_IN_UNIT()":"488b5d97","UPGRADE_INTERFACE_VERSION()":"ad3cb1cc","buybackPercent()":"e4412f68","buybackWallet()":"deab8aea","calculateLevel(uint256)":"dce3dc1f","calculateStakeRewards(address)":"94c4da52","directReferrals(address,uint256)":"05ad3935","directRewardPercent()":"ccf61944","emergencyPaused()":"27c830a9","getDirectReferrals(address)":"d2c8e0e5","getProductionConfig()":"50f6a79a","getStakeDetails(address,uint256)":"0f0a4fef","getUserLevel(address)":"21923bde","initialize(address,address,address,address,address,address)":"cc2a9a5b","jbcToken()":"1788513c","lastBurnTime()":"e3067449","levelRewardPercent()":"bd594dcf","levelRewardPool()":"b759936b","liquidityEnabled()":"b048a4bb","lpInjectionPercent()":"ceaa366d","lpInjectionWallet()":"88fd4d33","marketingPercent()":"d8020a18","marketingWallet()":"75f0a874","mcToken()":"95253992","nextStakeId()":"75506c96","nextTicketId()":"6031a52f","owner()":"8da5cb5b","priceOracle()":"2630c12f","proxiableUUID()":"52d1902d","redeemEnabled()":"d2f82536","redemptionFeePercent()":"dec7fa3b","renounceOwnership()":"715018a6","stakeLiquidity(uint256,uint256)":"4ea4c6b3","stakeOwner(uint256)":"3dbd46bd","stakePendingRewards(uint256,uint256)":"ac8f50aa","swapBuyTax()":"27f082f4","swapReserveJBC()":"1d0dac76","swapReserveMC()":"77a2a540","swapSellTax()":"9370b080","ticketFlexibilityDuration()":"6dd66827","ticketOwner(uint256)":"c2ff12fc","ticketPendingRewards(uint256,uint256)":"813380cd","transferOwnership(address)":"f2fde38b","treasuryPercent()":"04ef9d58","treasuryWallet()":"4626402b","upgradeToAndCall(address,bytes)":"4f1ef286","userInfo(address)":"1959a002","userStakes(address,uint256)":"b5d5b5fa","userTicket(address)":"8710bcaa"}},"storageLayout":{"storage":[{"astId":3741,"contract":"contracts/JinbaoProtocolProduction.sol:JinbaoProtocolProduction","label":"mcToken","offset":0,"slot":"0","type":"t_contract(IERC20)2032"},{"astId":3744,"contract":"contracts/JinbaoProtocolProduction.sol:JinbaoProtocolProduction","label":"jbcToken","offset":0,"slot":"1","type":"t_contract(IJBC)3679"},{"astId":3746,"contract":"contracts/JinbaoProtocolProduction.sol:JinbaoProtocolProduction","label":"marketingWallet","offset":0,"slot":"2","type":"t_address"},{"astId":3748,"contract":"contracts/JinbaoProtocolProduction.sol:JinbaoProtocolProduction","label":"treasuryWallet","offset":0,"slot":"3","type":"t_address"},{"astId":3750,"contract":"contracts/JinbaoProtocolProduction.sol:JinbaoProtocolProduction","label":"lpInjectionWallet","offset":0,"slot":"4","type":"t_address"},{"astId":3752,"contract":"contracts/JinbaoProtocolProduction.sol:JinbaoProtocolProduction","label":"buybackWallet","offset":0,"slot":"5","type":"t_address"},{"astId":3757,"contract":"contracts/JinbaoProtocolProduction.sol:JinbaoProtocolProduction","label":"directRewardPercent","offset":0,"slot":"6","type":"t_uint256"},{"astId":3759,"contract":"contracts/JinbaoProtocolProduction.sol:JinbaoProtocolProduction","label":"levelRewardPercent","offset":0,"slot":"7","type":"t_uint256"},{"astId":3761,"contract":"contracts/JinbaoProtocolProduction.sol:JinbaoProtocolProduction","label":"marketingPercent","offset":0,"slot":"8","type":"t_uint256"},{"astId":3763,"contract":"contracts/JinbaoProtocolProduction.sol:JinbaoProtocolProduction","label":"buybackPercent","offset":0,"slot":"9","type":"t_uint256"},{"astId":3765,"contract":"contracts/JinbaoProtocolProduction.sol:JinbaoProtocolProduction","label":"lpInjectionPercent","offset":0,"slot":"10","type":"t_uint256"},{"astId":3767,"contract":"contracts/JinbaoProtocolProduction.sol:JinbaoProtocolProduction","label":"treasuryPercent","offset":0,"slot":"11","type":"t_uint256"},{"astId":3769,"contract":"contracts/JinbaoProtocolProduction.sol:JinbaoProtocolProduction","label":"redemptionFeePercent","offset":0,"slot":"12","type":"t_uint256"},{"astId":3771,"contract":"contracts/JinbaoProtocolProduction.sol:JinbaoProtocolProduction","label":"swapBuyTax","offset":0,"slot":"13","type":"t_uint256"},{"astId":3773,"contract":"contracts/JinbaoProtocolProduction.sol:JinbaoProtocolProduction","label":"swapSellTax","offset":0,"slot":"14","type":"t_uint256"},{"astId":3793,"contract":"contracts/JinbaoProtocolProduction.sol:JinbaoProtocolProduction","label":"userInfo","offset":0,"slot":"15","type":"t_mapping(t_address,t_struct(UserInfo)3711_storage)"},{"astId":3798,"contract":"contracts/JinbaoProtocolProduction.sol:JinbaoProtocolProduction","label":"userTicket","offset":0,"slot":"16","type":"t_mapping(t_address,t_struct(Ticket)3733_storage)"},{"astId":3804,"contract":"contracts/JinbaoProtocolProduction.sol:JinbaoProtocolProduction","label":"userStakes","offset":0,"slot":"17","type":"t_mapping(t_address,t_array(t_struct(Stake)3724_storage)dyn_storage)"},{"astId":3809,"contract":"contracts/JinbaoProtocolProduction.sol:JinbaoProtocolProduction","label":"directReferrals","offset":0,"slot":"18","type":"t_mapping(t_address,t_array(t_address)dyn_storage)"},{"astId":3815,"contract":"contracts/JinbaoProtocolProduction.sol:JinbaoProtocolProduction","label":"ticketPendingRewards","offset":0,"slot":"19","type":"t_mapping(t_uint256,t_array(t_struct(PendingReward)3738_storage)dyn_storage)"},{"astId":3817,"contract":"contracts/JinbaoProtocolProduction.sol:JinbaoProtocolProduction","label":"ticketFlexibilityDuration","offset":0,"slot":"20","type":"t_uint256"},{"astId":3819,"contract":"contracts/JinbaoProtocolProduction.sol:JinbaoProtocolProduction","label":"liquidityEnabled","offset":0,"slot":"21","type":"t_bool"},{"astId":3821,"contract":"contracts/JinbaoProtocolProduction.sol:JinbaoProtocolProduction","label":"redeemEnabled","offset":1,"slot":"21","type":"t_bool"},{"astId":3823,"contract":"contracts/JinbaoProtocolProduction.sol:JinbaoProtocolProduction","label":"swapReserveMC","offset":0,"slot":"22","type":"t_uint256"},{"astId":3825,"contract":"contracts/JinbaoProtocolProduction.sol:JinbaoProtocolProduction","label":"swapReserveJBC","offset":0,"slot":"23","type":"t_uint256"},{"astId":3835,"contract":"contracts/JinbaoProtocolProduction.sol:JinbaoProtocolProduction","label":"nextTicketId","offset":0,"slot":"24","type":"t_uint256"},{"astId":3837,"contract":"contracts/JinbaoProtocolProduction.sol:JinbaoProtocolProduction","label":"nextStakeId","offset":0,"slot":"25","type":"t_uint256"},{"astId":3839,"contract":"contracts/JinbaoProtocolProduction.sol:JinbaoProtocolProduction","label":"lastBurnTime","offset":0,"slot":"26","type":"t_uint256"},{"astId":3843,"contract":"contracts/JinbaoProtocolProduction.sol:JinbaoProtocolProduction","label":"ticketOwner","offset":0,"slot":"27","type":"t_mapping(t_uint256,t_address)"},{"astId":3849,"contract":"contracts/JinbaoProtocolProduction.sol:JinbaoProtocolProduction","label":"stakePendingRewards","offset":0,"slot":"28","type":"t_mapping(t_uint256,t_array(t_struct(PendingReward)3738_storage)dyn_storage)"},{"astId":3853,"contract":"contracts/JinbaoProtocolProduction.sol:JinbaoProtocolProduction","label":"stakeOwner","offset":0,"slot":"29","type":"t_mapping(t_uint256,t_address)"},{"astId":3855,"contract":"contracts/JinbaoProtocolProduction.sol:JinbaoProtocolProduction","label":"levelRewardPool","offset":0,"slot":"30","type":"t_uint256"},{"astId":3859,"contract":"contracts/JinbaoProtocolProduction.sol:JinbaoProtocolProduction","label":"__gap","offset":0,"slot":"31","type":"t_array(t_uint256)47_storage"},{"astId":3861,"contract":"contracts/JinbaoProtocolProduction.sol:JinbaoProtocolProduction","label":"emergencyPaused","offset":0,"slot":"78","type":"t_bool"},{"astId":3863,"contract":"contracts/JinbaoProtocolProduction.sol:JinbaoProtocolProduction","label":"priceOracle","offset":1,"slot":"78","type":"t_address"}],"types":{"t_address":{"encoding":"inplace","label":"address","numberOfBytes":"20"},"t_array(t_address)dyn_storage":{"base":"t_address","encoding":"dynamic_array","label":"address[]","numberOfBytes":"32"},"t_array(t_struct(PendingReward)3738_storage)dyn_storage":{"base":"t_struct(PendingReward)3738_storage","encoding":"dynamic_array","label":"struct JinbaoProtocolProduction.PendingReward[]","numberOfBytes":"32"},"t_array(t_struct(Stake)3724_storage)dyn_storage":{"base":"t_struct(Stake)3724_storage","encoding":"dynamic_array","label":"struct JinbaoProtocolProduction.Stake[]","numberOfBytes":"32"},"t_array(t_uint256)47_storage":{"base":"t_uint256","encoding":"inplace","label":"uint256[47]","numberOfBytes":"1504"},"t_bool":{"encoding":"inplace","label":"bool","numberOfBytes":"1"},"t_contract(IERC20)2032":{"encoding":"inplace","label":"contract IERC20","numberOfBytes":"20"},"t_contract(IJBC)3679":{"encoding":"inplace","label":"contract IJBC","numberOfBytes":"20"},"t_mapping(t_address,t_array(t_address)dyn_storage)":{"encoding":"mapping","key":"t_address","label":"mapping(address => address[])","numberOfBytes":"32","value":"t_array(t_address)dyn_storage"},"t_mapping(t_address,t_array(t_struct(Stake)3724_storage)dyn_storage)":{"encoding":"mapping","key":"t_address","label":"mapping(address => struct JinbaoProtocolProduction.Stake[])","numberOfBytes":"32","value":"t_array(t_struct(Stake)3724_storage)dyn_storage"},"t_mapping(t_address,t_struct(Ticket)3733_storage)":{"encoding":"mapping","key":"t_address","label":"mapping(address => struct JinbaoProtocolProduction.Ticket)","numberOfBytes":"32","value":"t_struct(Ticket)3733_storage"},"t_mapping(t_address,t_struct(UserInfo)3711_storage)":{"encoding":"mapping","key":"t_address","label":"mapping(address => struct JinbaoProtocolProduction.UserInfo)","numberOfBytes":"32","value":"t_struct(UserInfo)3711_storage"},"t_mapping(t_uint256,t_address)":{"encoding":"mapping","key":"t_uint256","label":"mapping(uint256 => address)","numberOfBytes":"32","value":"t_address"},"t_mapping(t_uint256,t_array(t_struct(PendingReward)3738_storage)dyn_storage)":{"encoding":"mapping","key":"t_uint256","label":"mapping(uint256 => struct JinbaoProtocolProduction.PendingReward[])","numberOfBytes":"32","value":"t_array(t_struct(PendingReward)3738_storage)dyn_storage"},"t_struct(PendingReward)3738_storage":{"encoding":"inplace","label":"struct JinbaoProtocolProduction.PendingReward","members":[{"astId":3735,"contract":"contracts/JinbaoProtocolProduction.sol:JinbaoProtocolProduction","label":"upline","offset":0,"slot":"0","type":"t_address"},{"astId":3737,"contract":"contracts/JinbaoProtocolProduction.sol:JinbaoProtocolProduction","label":"amount","offset":0,"slot":"1","type":"t_uint256"}],"numberOfBytes":"64"},"t_struct(Stake)3724_storage":{"encoding":"inplace","label":"struct JinbaoProtocolProduction.Stake","members":[{"astId":3713,"contract":"contracts/JinbaoProtocolProduction.sol:JinbaoProtocolProduction","label":"id","offset":0,"slot":"0","type":"t_uint256"},{"astId":3715,"contract":"contracts/JinbaoProtocolProduction.sol:JinbaoProtocolProduction","label":"amount","offset":0,"slot":"1","type":"t_uint256"},{"astId":3717,"contract":"contracts/JinbaoProtocolProduction.sol:JinbaoProtocolProduction","label":"startTime","offset":0,"slot":"2","type":"t_uint256"},{"astId":3719,"contract":"contracts/JinbaoProtocolProduction.sol:JinbaoProtocolProduction","label":"cycleDays","offset":0,"slot":"3","type":"t_uint256"},{"astId":3721,"contract":"contracts/JinbaoProtocolProduction.sol:JinbaoProtocolProduction","label":"active","offset":0,"slot":"4","type":"t_bool"},{"astId":3723,"contract":"contracts/JinbaoProtocolProduction.sol:JinbaoProtocolProduction","label":"paid","offset":0,"slot":"5","type":"t_uint256"}],"numberOfBytes":"192"},"t_struct(Ticket)3733_storage":{"encoding":"inplace","label":"struct JinbaoProtocolProduction.Ticket","members":[{"astId":3726,"contract":"contracts/JinbaoProtocolProduction.sol:JinbaoProtocolProduction","label":"ticketId","offset":0,"slot":"0","type":"t_uint256"},{"astId":3728,"contract":"contracts/JinbaoProtocolProduction.sol:JinbaoProtocolProduction","label":"amount","offset":0,"slot":"1","type":"t_uint256"},{"astId":3730,"contract":"contracts/JinbaoProtocolProduction.sol:JinbaoProtocolProduction","label":"purchaseTime","offset":0,"slot":"2","type":"t_uint256"},{"astId":3732,"contract":"contracts/JinbaoProtocolProduction.sol:JinbaoProtocolProduction","label":"exited","offset":0,"slot":"3","type":"t_bool"}],"numberOfBytes":"128"},"t_struct(UserInfo)3711_storage":{"encoding":"inplace","label":"struct JinbaoProtocolProduction.UserInfo","members":[{"astId":3690,"contract":"contracts/JinbaoProtocolProduction.sol:JinbaoProtocolProduction","label":"referrer","offset":0,"slot":"0","type":"t_address"},{"astId":3692,"contract":"contracts/JinbaoProtocolProduction.sol:JinbaoProtocolProduction","label":"activeDirects","offset":0,"slot":"1","type":"t_uint256"},{"astId":3694,"contract":"contracts/JinbaoProtocolProduction.sol:JinbaoProtocolProduction","label":"teamCount","offset":0,"slot":"2","type":"t_uint256"},{"astId":3696,"contract":"contracts/JinbaoProtocolProduction.sol:JinbaoProtocolProduction","label":"totalRevenue","offset":0,"slot":"3","type":"t_uint256"},{"astId":3698,"contract":"contracts/JinbaoProtocolProduction.sol:JinbaoProtocolProduction","label":"currentCap","offset":0,"slot":"4","type":"t_uint256"},{"astId":3700,"contract":"contracts/JinbaoProtocolProduction.sol:JinbaoProtocolProduction","label":"isActive","offset":0,"slot":"5","type":"t_bool"},{"astId":3702,"contract":"contracts/JinbaoProtocolProduction.sol:JinbaoProtocolProduction","label":"refundFeeAmount","offset":0,"slot":"6","type":"t_uint256"},{"astId":3704,"contract":"contracts/JinbaoProtocolProduction.sol:JinbaoProtocolProduction","label":"teamTotalVolume","offset":0,"slot":"7","type":"t_uint256"},{"astId":3706,"contract":"contracts/JinbaoProtocolProduction.sol:JinbaoProtocolProduction","label":"teamTotalCap","offset":0,"slot":"8","type":"t_uint256"},{"astId":3708,"contract":"contracts/JinbaoProtocolProduction.sol:JinbaoProtocolProduction","label":"maxTicketAmount","offset":0,"slot":"9","type":"t_uint256"},{"astId":3710,"contract":"contracts/JinbaoProtocolProduction.sol:JinbaoProtocolProduction","label":"maxSingleTicketAmount","offset":0,"slot":"10","type":"t_uint256"}],"numberOfBytes":"352"},"t_uint256":{"encoding":"inplace","label":"uint256","numberOfBytes":"32"}}}}}}