{"contracts/Tokenomics.sol":{"TokenomicsLib":{"abi":[{"inputs":[],"name":"BUYBACK_PERCENT","outputs":[{"internalType":"uint256","name":"","type":"uint256"}],"stateMutability":"view","type":"function"},{"inputs":[],"name":"DAILY_BURN_INTERVAL","outputs":[{"internalType":"uint256","name":"","type":"uint256"}],"stateMutability":"view","type":"function"},{"inputs":[],"name":"DAILY_BURN_PERCENT","outputs":[{"internalType":"uint256","name":"","type":"uint256"}],"stateMutability":"view","type":"function"},{"inputs":[],"name":"DIRECT_REWARD_PERCENT","outputs":[{"internalType":"uint256","name":"","type":"uint256"}],"stateMutability":"view","type":"function"},{"inputs":[],"name":"LEVEL_REWARD_PERCENT","outputs":[{"internalType":"uint256","name":"","type":"uint256"}],"stateMutability":"view","type":"function"},{"inputs":[],"name":"LEVEL_REWARD_PER_LAYER","outputs":[{"internalType":"uint256","name":"","type":"uint256"}],"stateMutability":"view","type":"function"},{"inputs":[],"name":"LP_INJECTION_PERCENT","outputs":[{"internalType":"uint256","name":"","type":"uint256"}],"stateMutability":"view","type":"function"},{"inputs":[],"name":"MARKETING_PERCENT","outputs":[{"internalType":"uint256","name":"","type":"uint256"}],"stateMutability":"view","type":"function"},{"inputs":[],"name":"MAX_DIFFERENTIAL_LAYERS","outputs":[{"internalType":"uint256","name":"","type":"uint256"}],"stateMutability":"view","type":"function"},{"inputs":[],"name":"MAX_LEVEL_LAYERS","outputs":[{"internalType":"uint256","name":"","type":"uint256"}],"stateMutability":"view","type":"function"},{"inputs":[],"name":"MAX_PRICE_IMPACT","outputs":[{"internalType":"uint256","name":"","type":"uint256"}],"stateMutability":"view","type":"function"},{"inputs":[],"name":"MAX_RECURSION_DEPTH","outputs":[{"internalType":"uint256","name":"","type":"uint256"}],"stateMutability":"view","type":"function"},{"inputs":[],"name":"MIN_LIQUIDITY","outputs":[{"internalType":"uint256","name":"","type":"uint256"}],"stateMutability":"view","type":"function"},{"inputs":[],"name":"REDEMPTION_FEE_PERCENT","outputs":[{"internalType":"uint256","name":"","type":"uint256"}],"stateMutability":"view","type":"function"},{"inputs":[],"name":"SWAP_BUY_TAX","outputs":[{"internalType":"uint256","name":"","type":"uint256"}],"stateMutability":"view","type":"function"},{"inputs":[],"name":"SWAP_SELL_TAX","outputs":[{"internalType":"uint256","name":"","type":"uint256"}],"stateMutability":"view","type":"function"},{"inputs":[],"name":"TICKET_AMOUNT_1","outputs":[{"internalType":"uint256","name":"","type":"uint256"}],"stateMutability":"view","type":"function"},{"inputs":[],"name":"TICKET_AMOUNT_2","outputs":[{"internalType":"uint256","name":"","type":"uint256"}],"stateMutability":"view","type":"function"},{"inputs":[],"name":"TICKET_AMOUNT_3","outputs":[{"internalType":"uint256","name":"","type":"uint256"}],"stateMutability":"view","type":"function"},{"inputs":[],"name":"TICKET_AMOUNT_4","outputs":[{"internalType":"uint256","name":"","type":"uint256"}],"stateMutability":"view","type":"function"},{"inputs":[],"name":"TICKET_FLEXIBILITY_DURATION","outputs":[{"internalType":"uint256","name":"","type":"uint256"}],"stateMutability":"view","type":"function"},{"inputs":[],"name":"TREASURY_PERCENT","outputs":[{"internalType":"uint256","name":"","type":"uint256"}],"stateMutability":"view","type":"function"},{"inputs":[],"name":"V9_PERCENT","outputs":[{"internalType":"uint256","name":"","type":"uint256"}],"stateMutability":"view","type":"function"}],"evm":{"bytecode":{"linkReferences":{},"object":"6080806040523461001a576103069081610020823930815050f35b600080fdfe60806040818152600436101561001457600080fd5b600090813560e01c92836296f5fe1461020a575082630272f340146101f057826316397a6514610125578263176a6e07146101bb57826320b3ca98146101f557826321b77d63146101f057826336b09f53146101505782634dba49a3146101c057826351d572d61461012a5782636500d056146101db5782636839b5fa146101c557826379f95a83146101c057826383d5e726146101bb57826386600fe4146101a457826397eb029f14610187578263b382783c1461016a578263b7b8370914610155578263bd51e0af14610150578263c03c6e011461012f5750508063ca72015c1461012a578063d160ed4d14610125578063eb2e7383146101205763f775da171461012057600080fd5b6102b9565b610246565b6102a2565b8160031936011261014c5760209051681043561a88293000008152f35b5080fd5b610274565b8160031936011261014c576020905160328152f35b8160031936011261014c576020905168056bc75e2d631000008152f35b8160031936011261014c5760209051681b1ae4d6e2ef5000008152f35b8160031936011261014c57602090516203f4808152f35b61025d565b61028b565b8160031936011261014c57602090516103e88152f35b8160031936011261014c5760209051602d8152f35b610222565b8160031936011261014c576020905160058152f35b90508160031936011261014c57806201518060209252f35b6000366003190112610241576020604051683635c9adc5dea000008152f35b600080fd5b600036600319011261024157602060405160148152f35b600036600319011261024157602060405160028152f35b6000366003190112610241576020604051600f8152f35b600036600319011261024157602060405160018152f35b600036600319011261024157602060405160198152f35b600036600319011261024157602060405160038152f3fea2646970667358221220776fbbbc93218dba8c5bbd0420bc2026708b5e80056ceddc54f4b2e848d7d1d064736f6c63430008160033","opcodes":"PUSH1 0x80 DUP1 PUSH1 0x40 MSTORE CALLVALUE PUSH2 0x1A JUMPI PUSH2 0x306 SWAP1 DUP2 PUSH2 0x20 DUP3 CODECOPY ADDRESS DUP2 POP POP RETURN JUMPDEST PUSH1 0x0 DUP1 REVERT INVALID PUSH1 0x80 PUSH1 0x40 DUP2 DUP2 MSTORE PUSH1 0x4 CALLDATASIZE LT ISZERO PUSH2 0x14 JUMPI PUSH1 0x0 DUP1 REVERT JUMPDEST PUSH1 0x0 SWAP1 DUP2 CALLDATALOAD PUSH1 0xE0 SHR SWAP3 DUP4 PUSH3 0x96F5FE EQ PUSH2 0x20A JUMPI POP DUP3 PUSH4 0x272F340 EQ PUSH2 0x1F0 JUMPI DUP3 PUSH4 0x16397A65 EQ PUSH2 0x125 JUMPI DUP3 PUSH4 0x176A6E07 EQ PUSH2 0x1BB JUMPI DUP3 PUSH4 0x20B3CA98 EQ PUSH2 0x1F5 JUMPI DUP3 PUSH4 0x21B77D63 EQ PUSH2 0x1F0 JUMPI DUP3 PUSH4 0x36B09F53 EQ PUSH2 0x150 JUMPI DUP3 PUSH4 0x4DBA49A3 EQ PUSH2 0x1C0 JUMPI DUP3 PUSH4 0x51D572D6 EQ PUSH2 0x12A JUMPI DUP3 PUSH4 0x6500D056 EQ PUSH2 0x1DB JUMPI DUP3 PUSH4 0x6839B5FA EQ PUSH2 0x1C5 JUMPI DUP3 PUSH4 0x79F95A83 EQ PUSH2 0x1C0 JUMPI DUP3 PUSH4 0x83D5E726 EQ PUSH2 0x1BB JUMPI DUP3 PUSH4 0x86600FE4 EQ PUSH2 0x1A4 JUMPI DUP3 PUSH4 0x97EB029F EQ PUSH2 0x187 JUMPI DUP3 PUSH4 0xB382783C EQ PUSH2 0x16A JUMPI DUP3 PUSH4 0xB7B83709 EQ PUSH2 0x155 JUMPI DUP3 PUSH4 0xBD51E0AF EQ PUSH2 0x150 JUMPI DUP3 PUSH4 0xC03C6E01 EQ PUSH2 0x12F JUMPI POP POP DUP1 PUSH4 0xCA72015C EQ PUSH2 0x12A JUMPI DUP1 PUSH4 0xD160ED4D EQ PUSH2 0x125 JUMPI DUP1 PUSH4 0xEB2E7383 EQ PUSH2 0x120 JUMPI PUSH4 0xF775DA17 EQ PUSH2 0x120 JUMPI PUSH1 0x0 DUP1 REVERT JUMPDEST PUSH2 0x2B9 JUMP JUMPDEST PUSH2 0x246 JUMP JUMPDEST PUSH2 0x2A2 JUMP JUMPDEST DUP2 PUSH1 0x3 NOT CALLDATASIZE ADD SLT PUSH2 0x14C JUMPI PUSH1 0x20 SWAP1 MLOAD PUSH9 0x1043561A8829300000 DUP2 MSTORE RETURN JUMPDEST POP DUP1 REVERT JUMPDEST PUSH2 0x274 JUMP JUMPDEST DUP2 PUSH1 0x3 NOT CALLDATASIZE ADD SLT PUSH2 0x14C JUMPI PUSH1 0x20 SWAP1 MLOAD PUSH1 0x32 DUP2 MSTORE RETURN JUMPDEST DUP2 PUSH1 0x3 NOT CALLDATASIZE ADD SLT PUSH2 0x14C JUMPI PUSH1 0x20 SWAP1 MLOAD PUSH9 0x56BC75E2D63100000 DUP2 MSTORE RETURN JUMPDEST DUP2 PUSH1 0x3 NOT CALLDATASIZE ADD SLT PUSH2 0x14C JUMPI PUSH1 0x20 SWAP1 MLOAD PUSH9 0x1B1AE4D6E2EF500000 DUP2 MSTORE RETURN JUMPDEST DUP2 PUSH1 0x3 NOT CALLDATASIZE ADD SLT PUSH2 0x14C JUMPI PUSH1 0x20 SWAP1 MLOAD PUSH3 0x3F480 DUP2 MSTORE RETURN JUMPDEST PUSH2 0x25D JUMP JUMPDEST PUSH2 0x28B JUMP JUMPDEST DUP2 PUSH1 0x3 NOT CALLDATASIZE ADD SLT PUSH2 0x14C JUMPI PUSH1 0x20 SWAP1 MLOAD PUSH2 0x3E8 DUP2 MSTORE RETURN JUMPDEST DUP2 PUSH1 0x3 NOT CALLDATASIZE ADD SLT PUSH2 0x14C JUMPI PUSH1 0x20 SWAP1 MLOAD PUSH1 0x2D DUP2 MSTORE RETURN JUMPDEST PUSH2 0x222 JUMP JUMPDEST DUP2 PUSH1 0x3 NOT CALLDATASIZE ADD SLT PUSH2 0x14C JUMPI PUSH1 0x20 SWAP1 MLOAD PUSH1 0x5 DUP2 MSTORE RETURN JUMPDEST SWAP1 POP DUP2 PUSH1 0x3 NOT CALLDATASIZE ADD SLT PUSH2 0x14C JUMPI DUP1 PUSH3 0x15180 PUSH1 0x20 SWAP3 MSTORE RETURN JUMPDEST PUSH1 0x0 CALLDATASIZE PUSH1 0x3 NOT ADD SLT PUSH2 0x241 JUMPI PUSH1 0x20 PUSH1 0x40 MLOAD PUSH9 0x3635C9ADC5DEA00000 DUP2 MSTORE RETURN JUMPDEST PUSH1 0x0 DUP1 REVERT JUMPDEST PUSH1 0x0 CALLDATASIZE PUSH1 0x3 NOT ADD SLT PUSH2 0x241 JUMPI PUSH1 0x20 PUSH1 0x40 MLOAD PUSH1 0x14 DUP2 MSTORE RETURN JUMPDEST PUSH1 0x0 CALLDATASIZE PUSH1 0x3 NOT ADD SLT PUSH2 0x241 JUMPI PUSH1 0x20 PUSH1 0x40 MLOAD PUSH1 0x2 DUP2 MSTORE RETURN JUMPDEST PUSH1 0x0 CALLDATASIZE PUSH1 0x3 NOT ADD SLT PUSH2 0x241 JUMPI PUSH1 0x20 PUSH1 0x40 MLOAD PUSH1 0xF DUP2 MSTORE RETURN JUMPDEST PUSH1 0x0 CALLDATASIZE PUSH1 0x3 NOT ADD SLT PUSH2 0x241 JUMPI PUSH1 0x20 PUSH1 0x40 MLOAD PUSH1 0x1 DUP2 MSTORE RETURN JUMPDEST PUSH1 0x0 CALLDATASIZE PUSH1 0x3 NOT ADD SLT PUSH2 0x241 JUMPI PUSH1 0x20 PUSH1 0x40 MLOAD PUSH1 0x19 DUP2 MSTORE RETURN JUMPDEST PUSH1 0x0 CALLDATASIZE PUSH1 0x3 NOT ADD SLT PUSH2 0x241 JUMPI PUSH1 0x20 PUSH1 0x40 MLOAD PUSH1 0x3 DUP2 MSTORE RETURN INVALID LOG2 PUSH5 0x6970667358 0x22 SLT KECCAK256 PUSH24 0x6FBBBC93218DBA8C5BBD0420BC2026708B5E80056CEDDC54 DELEGATECALL 0xB2 0xE8 BASEFEE 0xD7 0xD1 0xD0 PUSH5 0x736F6C6343 STOP ADDMOD AND STOP CALLER "},"methodIdentifiers":{"BUYBACK_PERCENT()":"176a6e07","DAILY_BURN_INTERVAL()":"0096f5fe","DAILY_BURN_PERCENT()":"4dba49a3","DIRECT_REWARD_PERCENT()":"ca72015c","LEVEL_REWARD_PERCENT()":"bd51e0af","LEVEL_REWARD_PER_LAYER()":"79f95a83","LP_INJECTION_PERCENT()":"f775da17","MARKETING_PERCENT()":"eb2e7383","MAX_DIFFERENTIAL_LAYERS()":"16397a65","MAX_LEVEL_LAYERS()":"36b09f53","MAX_PRICE_IMPACT()":"6839b5fa","MAX_RECURSION_DEPTH()":"d160ed4d","MIN_LIQUIDITY()":"21b77d63","REDEMPTION_FEE_PERCENT()":"20b3ca98","SWAP_BUY_TAX()":"51d572d6","SWAP_SELL_TAX()":"b7b83709","TICKET_AMOUNT_1()":"b382783c","TICKET_AMOUNT_2()":"c03c6e01","TICKET_AMOUNT_3()":"97eb029f","TICKET_AMOUNT_4()":"0272f340","TICKET_FLEXIBILITY_DURATION()":"86600fe4","TREASURY_PERCENT()":"83d5e726","V9_PERCENT()":"6500d056"}},"storageLayout":{"storage":[],"types":null}}}}