{"contracts/DailyBurnManager.sol":{"DailyBurnManager":{"abi":[{"inputs":[{"internalType":"address","name":"_protocol","type":"address"},{"internalType":"address","name":"_jbcToken","type":"address"}],"stateMutability":"nonpayable","type":"constructor"},{"inputs":[{"internalType":"address","name":"owner","type":"address"}],"name":"OwnableInvalidOwner","type":"error"},{"inputs":[{"internalType":"address","name":"account","type":"address"}],"name":"OwnableUnauthorizedAccount","type":"error"},{"anonymous":false,"inputs":[{"indexed":false,"internalType":"uint256","name":"newInterval","type":"uint256"},{"indexed":false,"internalType":"uint256","name":"newPercentage","type":"uint256"}],"name":"BurnParametersUpdated","type":"event"},{"anonymous":false,"inputs":[{"indexed":false,"internalType":"uint256","name":"burnAmount","type":"uint256"},{"indexed":false,"internalType":"uint256","name":"timestamp","type":"uint256"},{"indexed":false,"internalType":"address","name":"executor","type":"address"}],"name":"DailyBurnExecuted","type":"event"},{"anonymous":false,"inputs":[{"indexed":true,"internalType":"address","name":"previousOwner","type":"address"},{"indexed":true,"internalType":"address","name":"newOwner","type":"address"}],"name":"OwnershipTransferred","type":"event"},{"inputs":[],"name":"BURN_INTERVAL","outputs":[{"internalType":"uint256","name":"","type":"uint256"}],"stateMutability":"view","type":"function"},{"inputs":[],"name":"BURN_PERCENTAGE","outputs":[{"internalType":"uint256","name":"","type":"uint256"}],"stateMutability":"view","type":"function"},{"inputs":[],"name":"canBurn","outputs":[{"internalType":"bool","name":"","type":"bool"}],"stateMutability":"view","type":"function"},{"inputs":[],"name":"dailyBurn","outputs":[],"stateMutability":"nonpayable","type":"function"},{"inputs":[],"name":"emergencyPause","outputs":[],"stateMutability":"nonpayable","type":"function"},{"inputs":[],"name":"getBurnAmount","outputs":[{"internalType":"uint256","name":"","type":"uint256"}],"stateMutability":"view","type":"function"},{"inputs":[],"name":"jbcToken","outputs":[{"internalType":"contract IJBC","name":"","type":"address"}],"stateMutability":"view","type":"function"},{"inputs":[],"name":"lastBurnTime","outputs":[{"internalType":"uint256","name":"","type":"uint256"}],"stateMutability":"view","type":"function"},{"inputs":[],"name":"nextBurnTime","outputs":[{"internalType":"uint256","name":"","type":"uint256"}],"stateMutability":"view","type":"function"},{"inputs":[],"name":"owner","outputs":[{"internalType":"address","name":"","type":"address"}],"stateMutability":"view","type":"function"},{"inputs":[],"name":"protocol","outputs":[{"internalType":"contract IJinbaoProtocol","name":"","type":"address"}],"stateMutability":"view","type":"function"},{"inputs":[],"name":"renounceOwnership","outputs":[],"stateMutability":"nonpayable","type":"function"},{"inputs":[],"name":"resumeBurn","outputs":[],"stateMutability":"nonpayable","type":"function"},{"inputs":[],"name":"timeUntilNextBurn","outputs":[{"internalType":"uint256","name":"","type":"uint256"}],"stateMutability":"view","type":"function"},{"inputs":[{"internalType":"address","name":"newOwner","type":"address"}],"name":"transferOwnership","outputs":[],"stateMutability":"nonpayable","type":"function"}],"evm":{"bytecode":{"linkReferences":{},"object":"60c03461010757601f61099938819003918201601f19168301916001600160401b0383118484101761010c57808492604094855283398101031261010757610052602061004b83610122565b9201610122565b9033156100ee5760008054336001600160a01b0319821681178355604051946001600160a01b0394909385939192918416907f8be0079c531659141344cd1fd0a4f28419497f9722a3daafe3b4186f6b6457e09080a3166080521660a05242600155610862908161013782396080518181816101910152818161029c015281816103490152610749015260a0518181816103b201526106700152f35b604051631e4fbdf760e01b815260006004820152602490fd5b600080fd5b634e487b7160e01b600052604160045260246000fd5b51906001600160a01b03821682036101075756fe608060408181526004908136101561001657600080fd5b600092833560e01c9081631788513c1461065c575080633f8a09ee1461063c57806351858e271461061a5780635a1ab780146105f6578063715018a6146105ae5780637b1648e21461059057806381eeef5c1461030c578063893dbf61146102cb5780638ce74426146102875780638da5cb5b1461025f5780639649b91014610243578063c1eb18401461021d578063d0c5c5851461016a578063e3067449146101475763f2fde38b146100c957600080fd5b34610143576020366003190112610143576001600160a01b0382358181169391929084900361013f576100fa6107e0565b831561012957505082546001600160a01b03198116831784551660008051602061080d8339815191528380a380f35b51631e4fbdf760e01b8152908101849052602490fd5b8480fd5b8280fd5b8382346101665781600319360112610166576020906001549051908152f35b5080fd5b5090346101435782600319360112610143578151630e86d63b60e11b8152906020908290817f00000000000000000000000000000000000000000000000000000000000000006001600160a01b03165afa9283156102125780936101d6575b6020846064855191048152f35b9092506020833d60201161020a575b816101f2602093836106e5565b810103126102075750606460209251926101c9565b80fd5b3d91506101e5565b8251903d90823e3d90fd5b83823461016657816003193601126101665760209061023a61071e565b90519015158152f35b8382346101665781600319360112610166576020905160648152f35b838234610166578160031936011261016657905490516001600160a01b039091168152602090f35b838234610166578160031936011261016657517f00000000000000000000000000000000000000000000000000000000000000006001600160a01b03168152602090f35b50829034610166578160031936011261016657600154916201518083018093116102f9576020838351908152f35b634e487b7160e01b815260118452602490fd5b503461014357826003193601126101435760015462015180810180911161057d57421061054e578051630e86d63b60e11b81526001600160a01b037f000000000000000000000000000000000000000000000000000000000000000081169360209290919083818481895afa908115610544578791610513575b5080156104df57606490049485156104a457839060248651809481936370a0823160e01b8352878301527f0000000000000000000000000000000000000000000000000000000000000000165afa90811561049a579085918791610465575b50106104295750916060917fff7a68675d35a4d13ee082b117e0dd66fde26cf62ec42d62157f3ae9de881d909342600155815192835242908301523390820152a180f35b915162461bcd60e51b8152918201526018602482015277496e73756666696369656e74204a42432062616c616e636560401b6044820152606490fd5b809250848092503d8311610493575b61047e81836106e5565b8101031261048f57849051386103e5565b8580fd5b503d610474565b84513d88823e3d90fd5b845162461bcd60e51b81528084018590526015602482015274109d5c9b88185b5bdd5b9d081d1bdbc81cdb585b1b605a1b6044820152606490fd5b845162461bcd60e51b8152808401859052600e60248201526d273790252121903a3790313ab93760911b6044820152606490fd5b90508381813d831161053d575b61052a81836106e5565b81010312610539575138610386565b8680fd5b503d610520565b85513d89823e3d90fd5b906020606492519162461bcd60e51b83528201526009602482015268546f6f206561726c7960b81b6044820152fd5b634e487b7160e01b845260118352602484fd5b83823461016657816003193601126101665760209051620151808152f35b83346102075780600319360112610207576105c76107e0565b80546001600160a01b03198116825581906001600160a01b031660008051602061080d8339815191528280a380f35b83823461016657816003193601126101665760209061061361069f565b9051908152f35b83346102075780600319360112610207576106336107e0565b60001960015580f35b83346102075780600319360112610207576106556107e0565b4260015580f35b8490346101665781600319360112610166577f00000000000000000000000000000000000000000000000000000000000000006001600160a01b03168152602090f35b60015462015180808201918281116106c757824210156106dd57429003019081116106c75790565b634e487b7160e01b600052601160045260246000fd5b505050600090565b601f909101601f19168101906001600160401b0382119082101761070857604052565b634e487b7160e01b600052604160045260246000fd5b6001546201518081018091116106c75742106107db57604051630e86d63b60e11b81526020816004817f00000000000000000000000000000000000000000000000000000000000000006001600160a01b03165afa9081156107cf57600091610798575b5080156107925760649004151590565b50600090565b90506020813d6020116107c7575b816107b3602093836106e5565b810103126107c2575138610782565b600080fd5b3d91506107a6565b6040513d6000823e3d90fd5b600090565b6000546001600160a01b031633036107f457565b60405163118cdaa760e01b8152336004820152602490fdfe8be0079c531659141344cd1fd0a4f28419497f9722a3daafe3b4186f6b6457e0a26469706673582212201c11775d74663a104b90029fe771d1c5357c89a73f5331e26dc3997893463b0064736f6c63430008160033","opcodes":"PUSH1 0xC0 CALLVALUE PUSH2 0x107 JUMPI PUSH1 0x1F PUSH2 0x999 CODESIZE DUP2 SWAP1 SUB SWAP2 DUP3 ADD PUSH1 0x1F NOT AND DUP4 ADD SWAP2 PUSH1 0x1 PUSH1 0x1 PUSH1 0x40 SHL SUB DUP4 GT DUP5 DUP5 LT OR PUSH2 0x10C JUMPI DUP1 DUP5 SWAP3 PUSH1 0x40 SWAP5 DUP6 MSTORE DUP4 CODECOPY DUP2 ADD SUB SLT PUSH2 0x107 JUMPI PUSH2 0x52 PUSH1 0x20 PUSH2 0x4B DUP4 PUSH2 0x122 JUMP JUMPDEST SWAP3 ADD PUSH2 0x122 JUMP JUMPDEST SWAP1 CALLER ISZERO PUSH2 0xEE JUMPI PUSH1 0x0 DUP1 SLOAD CALLER PUSH1 0x1 PUSH1 0x1 PUSH1 0xA0 SHL SUB NOT DUP3 AND DUP2 OR DUP4 SSTORE PUSH1 0x40 MLOAD SWAP5 PUSH1 0x1 PUSH1 0x1 PUSH1 0xA0 SHL SUB SWAP5 SWAP1 SWAP4 DUP6 SWAP4 SWAP2 SWAP3 SWAP2 DUP5 AND SWAP1 PUSH32 0x8BE0079C531659141344CD1FD0A4F28419497F9722A3DAAFE3B4186F6B6457E0 SWAP1 DUP1 LOG3 AND PUSH1 0x80 MSTORE AND PUSH1 0xA0 MSTORE TIMESTAMP PUSH1 0x1 SSTORE PUSH2 0x862 SWAP1 DUP2 PUSH2 0x137 DUP3 CODECOPY PUSH1 0x80 MLOAD DUP2 DUP2 DUP2 PUSH2 0x191 ADD MSTORE DUP2 DUP2 PUSH2 0x29C ADD MSTORE DUP2 DUP2 PUSH2 0x349 ADD MSTORE PUSH2 0x749 ADD MSTORE PUSH1 0xA0 MLOAD DUP2 DUP2 DUP2 PUSH2 0x3B2 ADD MSTORE PUSH2 0x670 ADD MSTORE RETURN JUMPDEST PUSH1 0x40 MLOAD PUSH4 0x1E4FBDF7 PUSH1 0xE0 SHL DUP2 MSTORE PUSH1 0x0 PUSH1 0x4 DUP3 ADD MSTORE PUSH1 0x24 SWAP1 REVERT JUMPDEST PUSH1 0x0 DUP1 REVERT JUMPDEST PUSH4 0x4E487B71 PUSH1 0xE0 SHL PUSH1 0x0 MSTORE PUSH1 0x41 PUSH1 0x4 MSTORE PUSH1 0x24 PUSH1 0x0 REVERT JUMPDEST MLOAD SWAP1 PUSH1 0x1 PUSH1 0x1 PUSH1 0xA0 SHL SUB DUP3 AND DUP3 SUB PUSH2 0x107 JUMPI JUMP INVALID PUSH1 0x80 PUSH1 0x40 DUP2 DUP2 MSTORE PUSH1 0x4 SWAP1 DUP2 CALLDATASIZE LT ISZERO PUSH2 0x16 JUMPI PUSH1 0x0 DUP1 REVERT JUMPDEST PUSH1 0x0 SWAP3 DUP4 CALLDATALOAD PUSH1 0xE0 SHR SWAP1 DUP2 PUSH4 0x1788513C EQ PUSH2 0x65C JUMPI POP DUP1 PUSH4 0x3F8A09EE EQ PUSH2 0x63C JUMPI DUP1 PUSH4 0x51858E27 EQ PUSH2 0x61A JUMPI DUP1 PUSH4 0x5A1AB780 EQ PUSH2 0x5F6 JUMPI DUP1 PUSH4 0x715018A6 EQ PUSH2 0x5AE JUMPI DUP1 PUSH4 0x7B1648E2 EQ PUSH2 0x590 JUMPI DUP1 PUSH4 0x81EEEF5C EQ PUSH2 0x30C JUMPI DUP1 PUSH4 0x893DBF61 EQ PUSH2 0x2CB JUMPI DUP1 PUSH4 0x8CE74426 EQ PUSH2 0x287 JUMPI DUP1 PUSH4 0x8DA5CB5B EQ PUSH2 0x25F JUMPI DUP1 PUSH4 0x9649B910 EQ PUSH2 0x243 JUMPI DUP1 PUSH4 0xC1EB1840 EQ PUSH2 0x21D JUMPI DUP1 PUSH4 0xD0C5C585 EQ PUSH2 0x16A JUMPI DUP1 PUSH4 0xE3067449 EQ PUSH2 0x147 JUMPI PUSH4 0xF2FDE38B EQ PUSH2 0xC9 JUMPI PUSH1 0x0 DUP1 REVERT JUMPDEST CALLVALUE PUSH2 0x143 JUMPI PUSH1 0x20 CALLDATASIZE PUSH1 0x3 NOT ADD SLT PUSH2 0x143 JUMPI PUSH1 0x1 PUSH1 0x1 PUSH1 0xA0 SHL SUB DUP3 CALLDATALOAD DUP2 DUP2 AND SWAP4 SWAP2 SWAP3 SWAP1 DUP5 SWAP1 SUB PUSH2 0x13F JUMPI PUSH2 0xFA PUSH2 0x7E0 JUMP JUMPDEST DUP4 ISZERO PUSH2 0x129 JUMPI POP POP DUP3 SLOAD PUSH1 0x1 PUSH1 0x1 PUSH1 0xA0 SHL SUB NOT DUP2 AND DUP4 OR DUP5 SSTORE AND PUSH1 0x0 DUP1 MLOAD PUSH1 0x20 PUSH2 0x80D DUP4 CODECOPY DUP2 MLOAD SWAP2 MSTORE DUP4 DUP1 LOG3 DUP1 RETURN JUMPDEST MLOAD PUSH4 0x1E4FBDF7 PUSH1 0xE0 SHL DUP2 MSTORE SWAP1 DUP2 ADD DUP5 SWAP1 MSTORE PUSH1 0x24 SWAP1 REVERT JUMPDEST DUP5 DUP1 REVERT JUMPDEST DUP3 DUP1 REVERT JUMPDEST DUP4 DUP3 CALLVALUE PUSH2 0x166 JUMPI DUP2 PUSH1 0x3 NOT CALLDATASIZE ADD SLT PUSH2 0x166 JUMPI PUSH1 0x20 SWAP1 PUSH1 0x1 SLOAD SWAP1 MLOAD SWAP1 DUP2 MSTORE RETURN JUMPDEST POP DUP1 REVERT JUMPDEST POP SWAP1 CALLVALUE PUSH2 0x143 JUMPI DUP3 PUSH1 0x3 NOT CALLDATASIZE ADD SLT PUSH2 0x143 JUMPI DUP2 MLOAD PUSH4 0xE86D63B PUSH1 0xE1 SHL DUP2 MSTORE SWAP1 PUSH1 0x20 SWAP1 DUP3 SWAP1 DUP2 PUSH32 0x0 PUSH1 0x1 PUSH1 0x1 PUSH1 0xA0 SHL SUB AND GAS STATICCALL SWAP3 DUP4 ISZERO PUSH2 0x212 JUMPI DUP1 SWAP4 PUSH2 0x1D6 JUMPI JUMPDEST PUSH1 0x20 DUP5 PUSH1 0x64 DUP6 MLOAD SWAP2 DIV DUP2 MSTORE RETURN JUMPDEST SWAP1 SWAP3 POP PUSH1 0x20 DUP4 RETURNDATASIZE PUSH1 0x20 GT PUSH2 0x20A JUMPI JUMPDEST DUP2 PUSH2 0x1F2 PUSH1 0x20 SWAP4 DUP4 PUSH2 0x6E5 JUMP JUMPDEST DUP2 ADD SUB SLT PUSH2 0x207 JUMPI POP PUSH1 0x64 PUSH1 0x20 SWAP3 MLOAD SWAP3 PUSH2 0x1C9 JUMP JUMPDEST DUP1 REVERT JUMPDEST RETURNDATASIZE SWAP2 POP PUSH2 0x1E5 JUMP JUMPDEST DUP3 MLOAD SWAP1 RETURNDATASIZE SWAP1 DUP3 RETURNDATACOPY RETURNDATASIZE SWAP1 REVERT JUMPDEST DUP4 DUP3 CALLVALUE PUSH2 0x166 JUMPI DUP2 PUSH1 0x3 NOT CALLDATASIZE ADD SLT PUSH2 0x166 JUMPI PUSH1 0x20 SWAP1 PUSH2 0x23A PUSH2 0x71E JUMP JUMPDEST SWAP1 MLOAD SWAP1 ISZERO ISZERO DUP2 MSTORE RETURN JUMPDEST DUP4 DUP3 CALLVALUE PUSH2 0x166 JUMPI DUP2 PUSH1 0x3 NOT CALLDATASIZE ADD SLT PUSH2 0x166 JUMPI PUSH1 0x20 SWAP1 MLOAD PUSH1 0x64 DUP2 MSTORE RETURN JUMPDEST DUP4 DUP3 CALLVALUE PUSH2 0x166 JUMPI DUP2 PUSH1 0x3 NOT CALLDATASIZE ADD SLT PUSH2 0x166 JUMPI SWAP1 SLOAD SWAP1 MLOAD PUSH1 0x1 PUSH1 0x1 PUSH1 0xA0 SHL SUB SWAP1 SWAP2 AND DUP2 MSTORE PUSH1 0x20 SWAP1 RETURN JUMPDEST DUP4 DUP3 CALLVALUE PUSH2 0x166 JUMPI DUP2 PUSH1 0x3 NOT CALLDATASIZE ADD SLT PUSH2 0x166 JUMPI MLOAD PUSH32 0x0 PUSH1 0x1 PUSH1 0x1 PUSH1 0xA0 SHL SUB AND DUP2 MSTORE PUSH1 0x20 SWAP1 RETURN JUMPDEST POP DUP3 SWAP1 CALLVALUE PUSH2 0x166 JUMPI DUP2 PUSH1 0x3 NOT CALLDATASIZE ADD SLT PUSH2 0x166 JUMPI PUSH1 0x1 SLOAD SWAP2 PUSH3 0x15180 DUP4 ADD DUP1 SWAP4 GT PUSH2 0x2F9 JUMPI PUSH1 0x20 DUP4 DUP4 MLOAD SWAP1 DUP2 MSTORE RETURN JUMPDEST PUSH4 0x4E487B71 PUSH1 0xE0 SHL DUP2 MSTORE PUSH1 0x11 DUP5 MSTORE PUSH1 0x24 SWAP1 REVERT JUMPDEST POP CALLVALUE PUSH2 0x143 JUMPI DUP3 PUSH1 0x3 NOT CALLDATASIZE ADD SLT PUSH2 0x143 JUMPI PUSH1 0x1 SLOAD PUSH3 0x15180 DUP2 ADD DUP1 SWAP2 GT PUSH2 0x57D JUMPI TIMESTAMP LT PUSH2 0x54E JUMPI DUP1 MLOAD PUSH4 0xE86D63B PUSH1 0xE1 SHL DUP2 MSTORE PUSH1 0x1 PUSH1 0x1 PUSH1 0xA0 SHL SUB PUSH32 0x0 DUP2 AND SWAP4 PUSH1 0x20 SWAP3 SWAP1 SWAP2 SWAP1 DUP4 DUP2 DUP5 DUP2 DUP10 GAS STATICCALL SWAP1 DUP2 ISZERO PUSH2 0x544 JUMPI DUP8 SWAP2 PUSH2 0x513 JUMPI JUMPDEST POP DUP1 ISZERO PUSH2 0x4DF JUMPI PUSH1 0x64 SWAP1 DIV SWAP5 DUP6 ISZERO PUSH2 0x4A4 JUMPI DUP4 SWAP1 PUSH1 0x24 DUP7 MLOAD DUP1 SWAP5 DUP2 SWAP4 PUSH4 0x70A08231 PUSH1 0xE0 SHL DUP4 MSTORE DUP8 DUP4 ADD MSTORE PUSH32 0x0 AND GAS STATICCALL SWAP1 DUP2 ISZERO PUSH2 0x49A JUMPI SWAP1 DUP6 SWAP2 DUP8 SWAP2 PUSH2 0x465 JUMPI JUMPDEST POP LT PUSH2 0x429 JUMPI POP SWAP2 PUSH1 0x60 SWAP2 PUSH32 0xFF7A68675D35A4D13EE082B117E0DD66FDE26CF62EC42D62157F3AE9DE881D90 SWAP4 TIMESTAMP PUSH1 0x1 SSTORE DUP2 MLOAD SWAP3 DUP4 MSTORE TIMESTAMP SWAP1 DUP4 ADD MSTORE CALLER SWAP1 DUP3 ADD MSTORE LOG1 DUP1 RETURN JUMPDEST SWAP2 MLOAD PUSH3 0x461BCD PUSH1 0xE5 SHL DUP2 MSTORE SWAP2 DUP3 ADD MSTORE PUSH1 0x18 PUSH1 0x24 DUP3 ADD MSTORE PUSH24 0x496E73756666696369656E74204A42432062616C616E6365 PUSH1 0x40 SHL PUSH1 0x44 DUP3 ADD MSTORE PUSH1 0x64 SWAP1 REVERT JUMPDEST DUP1 SWAP3 POP DUP5 DUP1 SWAP3 POP RETURNDATASIZE DUP4 GT PUSH2 0x493 JUMPI JUMPDEST PUSH2 0x47E DUP2 DUP4 PUSH2 0x6E5 JUMP JUMPDEST DUP2 ADD SUB SLT PUSH2 0x48F JUMPI DUP5 SWAP1 MLOAD CODESIZE PUSH2 0x3E5 JUMP JUMPDEST DUP6 DUP1 REVERT JUMPDEST POP RETURNDATASIZE PUSH2 0x474 JUMP JUMPDEST DUP5 MLOAD RETURNDATASIZE DUP9 DUP3 RETURNDATACOPY RETURNDATASIZE SWAP1 REVERT JUMPDEST DUP5 MLOAD PUSH3 0x461BCD PUSH1 0xE5 SHL DUP2 MSTORE DUP1 DUP5 ADD DUP6 SWAP1 MSTORE PUSH1 0x15 PUSH1 0x24 DUP3 ADD MSTORE PUSH21 0x109D5C9B88185B5BDD5B9D081D1BDBC81CDB585B1B PUSH1 0x5A SHL PUSH1 0x44 DUP3 ADD MSTORE PUSH1 0x64 SWAP1 REVERT JUMPDEST DUP5 MLOAD PUSH3 0x461BCD PUSH1 0xE5 SHL DUP2 MSTORE DUP1 DUP5 ADD DUP6 SWAP1 MSTORE PUSH1 0xE PUSH1 0x24 DUP3 ADD MSTORE PUSH14 0x273790252121903A3790313AB937 PUSH1 0x91 SHL PUSH1 0x44 DUP3 ADD MSTORE PUSH1 0x64 SWAP1 REVERT JUMPDEST SWAP1 POP DUP4 DUP2 DUP2 RETURNDATASIZE DUP4 GT PUSH2 0x53D JUMPI JUMPDEST PUSH2 0x52A DUP2 DUP4 PUSH2 0x6E5 JUMP JUMPDEST DUP2 ADD SUB SLT PUSH2 0x539 JUMPI MLOAD CODESIZE PUSH2 0x386 JUMP JUMPDEST DUP7 DUP1 REVERT JUMPDEST POP RETURNDATASIZE PUSH2 0x520 JUMP JUMPDEST DUP6 MLOAD RETURNDATASIZE DUP10 DUP3 RETURNDATACOPY RETURNDATASIZE SWAP1 REVERT JUMPDEST SWAP1 PUSH1 0x20 PUSH1 0x64 SWAP3 MLOAD SWAP2 PUSH3 0x461BCD PUSH1 0xE5 SHL DUP4 MSTORE DUP3 ADD MSTORE PUSH1 0x9 PUSH1 0x24 DUP3 ADD MSTORE PUSH9 0x546F6F206561726C79 PUSH1 0xB8 SHL PUSH1 0x44 DUP3 ADD MSTORE REVERT JUMPDEST PUSH4 0x4E487B71 PUSH1 0xE0 SHL DUP5 MSTORE PUSH1 0x11 DUP4 MSTORE PUSH1 0x24 DUP5 REVERT JUMPDEST DUP4 DUP3 CALLVALUE PUSH2 0x166 JUMPI DUP2 PUSH1 0x3 NOT CALLDATASIZE ADD SLT PUSH2 0x166 JUMPI PUSH1 0x20 SWAP1 MLOAD PUSH3 0x15180 DUP2 MSTORE RETURN JUMPDEST DUP4 CALLVALUE PUSH2 0x207 JUMPI DUP1 PUSH1 0x3 NOT CALLDATASIZE ADD SLT PUSH2 0x207 JUMPI PUSH2 0x5C7 PUSH2 0x7E0 JUMP JUMPDEST DUP1 SLOAD PUSH1 0x1 PUSH1 0x1 PUSH1 0xA0 SHL SUB NOT DUP2 AND DUP3 SSTORE DUP2 SWAP1 PUSH1 0x1 PUSH1 0x1 PUSH1 0xA0 SHL SUB AND PUSH1 0x0 DUP1 MLOAD PUSH1 0x20 PUSH2 0x80D DUP4 CODECOPY DUP2 MLOAD SWAP2 MSTORE DUP3 DUP1 LOG3 DUP1 RETURN JUMPDEST DUP4 DUP3 CALLVALUE PUSH2 0x166 JUMPI DUP2 PUSH1 0x3 NOT CALLDATASIZE ADD SLT PUSH2 0x166 JUMPI PUSH1 0x20 SWAP1 PUSH2 0x613 PUSH2 0x69F JUMP JUMPDEST SWAP1 MLOAD SWAP1 DUP2 MSTORE RETURN JUMPDEST DUP4 CALLVALUE PUSH2 0x207 JUMPI DUP1 PUSH1 0x3 NOT CALLDATASIZE ADD SLT PUSH2 0x207 JUMPI PUSH2 0x633 PUSH2 0x7E0 JUMP JUMPDEST PUSH1 0x0 NOT PUSH1 0x1 SSTORE DUP1 RETURN JUMPDEST DUP4 CALLVALUE PUSH2 0x207 JUMPI DUP1 PUSH1 0x3 NOT CALLDATASIZE ADD SLT PUSH2 0x207 JUMPI PUSH2 0x655 PUSH2 0x7E0 JUMP JUMPDEST TIMESTAMP PUSH1 0x1 SSTORE DUP1 RETURN JUMPDEST DUP5 SWAP1 CALLVALUE PUSH2 0x166 JUMPI DUP2 PUSH1 0x3 NOT CALLDATASIZE ADD SLT PUSH2 0x166 JUMPI PUSH32 0x0 PUSH1 0x1 PUSH1 0x1 PUSH1 0xA0 SHL SUB AND DUP2 MSTORE PUSH1 0x20 SWAP1 RETURN JUMPDEST PUSH1 0x1 SLOAD PUSH3 0x15180 DUP1 DUP3 ADD SWAP2 DUP3 DUP2 GT PUSH2 0x6C7 JUMPI DUP3 TIMESTAMP LT ISZERO PUSH2 0x6DD JUMPI TIMESTAMP SWAP1 SUB ADD SWAP1 DUP2 GT PUSH2 0x6C7 JUMPI SWAP1 JUMP JUMPDEST PUSH4 0x4E487B71 PUSH1 0xE0 SHL PUSH1 0x0 MSTORE PUSH1 0x11 PUSH1 0x4 MSTORE PUSH1 0x24 PUSH1 0x0 REVERT JUMPDEST POP POP POP PUSH1 0x0 SWAP1 JUMP JUMPDEST PUSH1 0x1F SWAP1 SWAP2 ADD PUSH1 0x1F NOT AND DUP2 ADD SWAP1 PUSH1 0x1 PUSH1 0x1 PUSH1 0x40 SHL SUB DUP3 GT SWAP1 DUP3 LT OR PUSH2 0x708 JUMPI PUSH1 0x40 MSTORE JUMP JUMPDEST PUSH4 0x4E487B71 PUSH1 0xE0 SHL PUSH1 0x0 MSTORE PUSH1 0x41 PUSH1 0x4 MSTORE PUSH1 0x24 PUSH1 0x0 REVERT JUMPDEST PUSH1 0x1 SLOAD PUSH3 0x15180 DUP2 ADD DUP1 SWAP2 GT PUSH2 0x6C7 JUMPI TIMESTAMP LT PUSH2 0x7DB JUMPI PUSH1 0x40 MLOAD PUSH4 0xE86D63B PUSH1 0xE1 SHL DUP2 MSTORE PUSH1 0x20 DUP2 PUSH1 0x4 DUP2 PUSH32 0x0 PUSH1 0x1 PUSH1 0x1 PUSH1 0xA0 SHL SUB AND GAS STATICCALL SWAP1 DUP2 ISZERO PUSH2 0x7CF JUMPI PUSH1 0x0 SWAP2 PUSH2 0x798 JUMPI JUMPDEST POP DUP1 ISZERO PUSH2 0x792 JUMPI PUSH1 0x64 SWAP1 DIV ISZERO ISZERO SWAP1 JUMP JUMPDEST POP PUSH1 0x0 SWAP1 JUMP JUMPDEST SWAP1 POP PUSH1 0x20 DUP2 RETURNDATASIZE PUSH1 0x20 GT PUSH2 0x7C7 JUMPI JUMPDEST DUP2 PUSH2 0x7B3 PUSH1 0x20 SWAP4 DUP4 PUSH2 0x6E5 JUMP JUMPDEST DUP2 ADD SUB SLT PUSH2 0x7C2 JUMPI MLOAD CODESIZE PUSH2 0x782 JUMP JUMPDEST PUSH1 0x0 DUP1 REVERT JUMPDEST RETURNDATASIZE SWAP2 POP PUSH2 0x7A6 JUMP JUMPDEST PUSH1 0x40 MLOAD RETURNDATASIZE PUSH1 0x0 DUP3 RETURNDATACOPY RETURNDATASIZE SWAP1 REVERT JUMPDEST PUSH1 0x0 SWAP1 JUMP JUMPDEST PUSH1 0x0 SLOAD PUSH1 0x1 PUSH1 0x1 PUSH1 0xA0 SHL SUB AND CALLER SUB PUSH2 0x7F4 JUMPI JUMP JUMPDEST PUSH1 0x40 MLOAD PUSH4 0x118CDAA7 PUSH1 0xE0 SHL DUP2 MSTORE CALLER PUSH1 0x4 DUP3 ADD MSTORE PUSH1 0x24 SWAP1 REVERT INVALID DUP12 0xE0 SMOD SWAP13 MSTORE8 AND MSIZE EQ SGT PREVRANDAO 0xCD 0x1F 0xD0 LOG4 CALLCODE DUP5 NOT 0x49 PUSH32 0x9722A3DAAFE3B4186F6B6457E0A26469706673582212201C11775D74663A104B SWAP1 MUL SWAP16 0xE7 PUSH18 0xD1C5357C89A73F5331E26DC3997893463B00 PUSH5 0x736F6C6343 STOP ADDMOD AND STOP CALLER "},"methodIdentifiers":{"BURN_INTERVAL()":"7b1648e2","BURN_PERCENTAGE()":"9649b910","canBurn()":"c1eb1840","dailyBurn()":"81eeef5c","emergencyPause()":"51858e27","getBurnAmount()":"d0c5c585","jbcToken()":"1788513c","lastBurnTime()":"e3067449","nextBurnTime()":"893dbf61","owner()":"8da5cb5b","protocol()":"8ce74426","renounceOwnership()":"715018a6","resumeBurn()":"3f8a09ee","timeUntilNextBurn()":"5a1ab780","transferOwnership(address)":"f2fde38b"}},"storageLayout":{"storage":[{"astId":828,"contract":"contracts/DailyBurnManager.sol:DailyBurnManager","label":"_owner","offset":0,"slot":"0","type":"t_address"},{"astId":3230,"contract":"contracts/DailyBurnManager.sol:DailyBurnManager","label":"lastBurnTime","offset":0,"slot":"1","type":"t_uint256"}],"types":{"t_address":{"encoding":"inplace","label":"address","numberOfBytes":"20"},"t_uint256":{"encoding":"inplace","label":"uint256","numberOfBytes":"32"}}}}}}