{"contracts/JinbaoProtocol.sol":{"JinbaoProtocol":{"abi":[{"inputs":[],"stateMutability":"nonpayable","type":"constructor"},{"inputs":[{"internalType":"address","name":"target","type":"address"}],"name":"AddressEmptyCode","type":"error"},{"inputs":[],"name":"AlreadyBound","type":"error"},{"inputs":[],"name":"AlreadyExited","type":"error"},{"inputs":[],"name":"BatchUpdateSizeMismatch","type":"error"},{"inputs":[{"internalType":"address","name":"implementation","type":"address"}],"name":"ERC1967InvalidImplementation","type":"error"},{"inputs":[],"name":"ERC1967NonPayable","type":"error"},{"inputs":[],"name":"Expired","type":"error"},{"inputs":[],"name":"FailedCall","type":"error"},{"inputs":[],"name":"InsufficientBalance","type":"error"},{"inputs":[],"name":"InvalidAddress","type":"error"},{"inputs":[],"name":"InvalidAmount","type":"error"},{"inputs":[],"name":"InvalidCycle","type":"error"},{"inputs":[],"name":"InvalidFee","type":"error"},{"inputs":[],"name":"InvalidInitialization","type":"error"},{"inputs":[],"name":"InvalidLevelConfig","type":"error"},{"inputs":[],"name":"InvalidRate","type":"error"},{"inputs":[],"name":"InvalidTax","type":"error"},{"inputs":[],"name":"InvalidTeamCountUpdate","type":"error"},{"inputs":[],"name":"LowLiquidity","type":"error"},{"inputs":[],"name":"NoRewards","type":"error"},{"inputs":[],"name":"NotActive","type":"error"},{"inputs":[],"name":"NotInitializing","type":"error"},{"inputs":[],"name":"NothingToRedeem","type":"error"},{"inputs":[{"internalType":"address","name":"owner","type":"address"}],"name":"OwnableInvalidOwner","type":"error"},{"inputs":[{"internalType":"address","name":"account","type":"address"}],"name":"OwnableUnauthorizedAccount","type":"error"},{"inputs":[],"name":"RecursionDepthExceeded","type":"error"},{"inputs":[],"name":"SelfReference","type":"error"},{"inputs":[],"name":"SumNot100","type":"error"},{"inputs":[{"internalType":"address","name":"user","type":"address"},{"internalType":"uint256","name":"expected","type":"uint256"},{"internalType":"uint256","name":"actual","type":"uint256"}],"name":"TeamCountMismatch","type":"error"},{"inputs":[],"name":"TeamCountOverflow","type":"error"},{"inputs":[],"name":"TransferFailed","type":"error"},{"inputs":[],"name":"UUPSUnauthorizedCallContext","type":"error"},{"inputs":[{"internalType":"bytes32","name":"slot","type":"bytes32"}],"name":"UUPSUnsupportedProxiableUUID","type":"error"},{"inputs":[],"name":"Unauthorized","type":"error"},{"anonymous":false,"inputs":[{"indexed":false,"internalType":"uint256","name":"usersUpdated","type":"uint256"}],"name":"BatchTeamCountsUpdated","type":"event"},{"anonymous":false,"inputs":[{"indexed":true,"internalType":"address","name":"user","type":"address"},{"indexed":true,"internalType":"address","name":"referrer","type":"address"}],"name":"BoundReferrer","type":"event"},{"anonymous":false,"inputs":[{"indexed":false,"internalType":"uint256","name":"mcAmount","type":"uint256"},{"indexed":false,"internalType":"uint256","name":"jbcBurned","type":"uint256"}],"name":"BuybackAndBurn","type":"event"},{"anonymous":false,"inputs":[{"indexed":true,"internalType":"uint256","name":"stakeId","type":"uint256"},{"indexed":true,"internalType":"address","name":"upline","type":"address"},{"indexed":false,"internalType":"uint256","name":"amount","type":"uint256"}],"name":"DifferentialRewardRecorded","type":"event"},{"anonymous":false,"inputs":[{"indexed":true,"internalType":"uint256","name":"stakeId","type":"uint256"},{"indexed":true,"internalType":"address","name":"upline","type":"address"},{"indexed":false,"internalType":"uint256","name":"amount","type":"uint256"}],"name":"DifferentialRewardReleased","type":"event"},{"anonymous":false,"inputs":[{"indexed":false,"internalType":"uint256","name":"direct","type":"uint256"},{"indexed":false,"internalType":"uint256","name":"level","type":"uint256"},{"indexed":false,"internalType":"uint256","name":"marketing","type":"uint256"},{"indexed":false,"internalType":"uint256","name":"buyback","type":"uint256"},{"indexed":false,"internalType":"uint256","name":"lpInjection","type":"uint256"},{"indexed":false,"internalType":"uint256","name":"treasury","type":"uint256"}],"name":"DistributionConfigUpdated","type":"event"},{"anonymous":false,"inputs":[{"indexed":true,"internalType":"address","name":"user","type":"address"},{"indexed":false,"internalType":"uint256","name":"ticketId","type":"uint256"}],"name":"Exited","type":"event"},{"anonymous":false,"inputs":[{"indexed":true,"internalType":"address","name":"user","type":"address"},{"indexed":false,"internalType":"uint256","name":"amount","type":"uint256"}],"name":"FeeRefunded","type":"event"},{"anonymous":false,"inputs":[{"indexed":false,"internalType":"uint64","name":"version","type":"uint64"}],"name":"Initialized","type":"event"},{"anonymous":false,"inputs":[],"name":"LevelConfigsUpdated","type":"event"},{"anonymous":false,"inputs":[{"indexed":false,"internalType":"uint256","name":"amount","type":"uint256"},{"indexed":false,"internalType":"uint256","name":"newTotal","type":"uint256"}],"name":"LevelRewardPoolUpdated","type":"event"},{"anonymous":false,"inputs":[{"indexed":true,"internalType":"address","name":"to","type":"address"},{"indexed":false,"internalType":"uint256","name":"amount","type":"uint256"}],"name":"LevelRewardPoolWithdrawn","type":"event"},{"anonymous":false,"inputs":[{"indexed":true,"internalType":"uint256","name":"ticketId","type":"uint256"},{"indexed":true,"internalType":"address","name":"upline","type":"address"},{"indexed":false,"internalType":"uint256","name":"amount","type":"uint256"}],"name":"LevelRewardRecorded","type":"event"},{"anonymous":false,"inputs":[{"indexed":true,"internalType":"uint256","name":"ticketId","type":"uint256"},{"indexed":true,"internalType":"address","name":"upline","type":"address"},{"indexed":false,"internalType":"uint256","name":"amount","type":"uint256"}],"name":"LevelRewardReleased","type":"event"},{"anonymous":false,"inputs":[{"indexed":false,"internalType":"uint256","name":"mcAmount","type":"uint256"},{"indexed":false,"internalType":"uint256","name":"jbcAmount","type":"uint256"}],"name":"LiquidityAdded","type":"event"},{"anonymous":false,"inputs":[{"indexed":true,"internalType":"address","name":"user","type":"address"},{"indexed":false,"internalType":"uint256","name":"amount","type":"uint256"},{"indexed":false,"internalType":"uint256","name":"cycleDays","type":"uint256"},{"indexed":false,"internalType":"uint256","name":"stakeId","type":"uint256"}],"name":"LiquidityStaked","type":"event"},{"anonymous":false,"inputs":[{"indexed":false,"internalType":"bool","name":"enabled","type":"bool"}],"name":"LiquidityStatusUpdated","type":"event"},{"anonymous":false,"inputs":[{"indexed":true,"internalType":"address","name":"previousOwner","type":"address"},{"indexed":true,"internalType":"address","name":"newOwner","type":"address"}],"name":"OwnershipTransferred","type":"event"},{"anonymous":false,"inputs":[{"indexed":false,"internalType":"bool","name":"enabled","type":"bool"}],"name":"RedeemStatusUpdated","type":"event"},{"anonymous":false,"inputs":[{"indexed":true,"internalType":"address","name":"user","type":"address"},{"indexed":false,"internalType":"uint256","name":"principal","type":"uint256"},{"indexed":false,"internalType":"uint256","name":"fee","type":"uint256"}],"name":"Redeemed","type":"event"},{"anonymous":false,"inputs":[{"indexed":false,"internalType":"uint256","name":"newFee","type":"uint256"}],"name":"RedemptionFeeUpdated","type":"event"},{"anonymous":false,"inputs":[{"indexed":true,"internalType":"address","name":"user","type":"address"},{"indexed":true,"internalType":"address","name":"from","type":"address"},{"indexed":false,"internalType":"uint256","name":"mcAmount","type":"uint256"},{"indexed":false,"internalType":"uint8","name":"rewardType","type":"uint8"},{"indexed":false,"internalType":"uint256","name":"ticketId","type":"uint256"}],"name":"ReferralRewardPaid","type":"event"},{"anonymous":false,"inputs":[{"indexed":true,"internalType":"address","name":"user","type":"address"},{"indexed":false,"internalType":"uint256","name":"amount","type":"uint256"},{"indexed":false,"internalType":"uint256","name":"cappedAmount","type":"uint256"}],"name":"RewardCapped","type":"event"},{"anonymous":false,"inputs":[{"indexed":true,"internalType":"address","name":"user","type":"address"},{"indexed":false,"internalType":"uint256","name":"mcAmount","type":"uint256"},{"indexed":false,"internalType":"uint256","name":"jbcAmount","type":"uint256"},{"indexed":false,"internalType":"uint8","name":"rewardType","type":"uint8"},{"indexed":false,"internalType":"uint256","name":"ticketId","type":"uint256"}],"name":"RewardClaimed","type":"event"},{"anonymous":false,"inputs":[{"indexed":true,"internalType":"address","name":"user","type":"address"},{"indexed":false,"internalType":"uint256","name":"amount","type":"uint256"},{"indexed":false,"internalType":"uint8","name":"rewardType","type":"uint8"}],"name":"RewardPaid","type":"event"},{"anonymous":false,"inputs":[{"indexed":false,"internalType":"uint256","name":"mcAmount","type":"uint256"},{"indexed":false,"internalType":"uint256","name":"jbcAmount","type":"uint256"}],"name":"SwapReservesWithdrawn","type":"event"},{"anonymous":false,"inputs":[{"indexed":false,"internalType":"uint256","name":"buyTax","type":"uint256"},{"indexed":false,"internalType":"uint256","name":"sellTax","type":"uint256"}],"name":"SwapTaxesUpdated","type":"event"},{"anonymous":false,"inputs":[{"indexed":true,"internalType":"address","name":"user","type":"address"},{"indexed":false,"internalType":"uint256","name":"jbcAmount","type":"uint256"},{"indexed":false,"internalType":"uint256","name":"mcAmount","type":"uint256"},{"indexed":false,"internalType":"uint256","name":"tax","type":"uint256"}],"name":"SwappedJBCToMC","type":"event"},{"anonymous":false,"inputs":[{"indexed":true,"internalType":"address","name":"user","type":"address"},{"indexed":false,"internalType":"uint256","name":"mcAmount","type":"uint256"},{"indexed":false,"internalType":"uint256","name":"jbcAmount","type":"uint256"},{"indexed":false,"internalType":"uint256","name":"tax","type":"uint256"}],"name":"SwappedMCToJBC","type":"event"},{"anonymous":false,"inputs":[{"indexed":true,"internalType":"uint256","name":"stakeId","type":"uint256"},{"indexed":true,"internalType":"address","name":"upline","type":"address"},{"indexed":false,"internalType":"uint256","name":"amount","type":"uint256"},{"indexed":false,"internalType":"uint256","name":"teamCount","type":"uint256"}],"name":"TeamBasedRewardCalculated","type":"event"},{"anonymous":false,"inputs":[{"indexed":true,"internalType":"address","name":"user","type":"address"},{"indexed":false,"internalType":"uint256","name":"oldCount","type":"uint256"},{"indexed":false,"internalType":"uint256","name":"newCount","type":"uint256"}],"name":"TeamCountUpdated","type":"event"},{"anonymous":false,"inputs":[{"indexed":true,"internalType":"address","name":"user","type":"address"},{"indexed":false,"internalType":"uint256","name":"expected","type":"uint256"},{"indexed":false,"internalType":"uint256","name":"actual","type":"uint256"}],"name":"TeamCountValidationFailed","type":"event"},{"anonymous":false,"inputs":[{"indexed":true,"internalType":"address","name":"user","type":"address"},{"indexed":false,"internalType":"uint256","name":"ticketId","type":"uint256"},{"indexed":false,"internalType":"uint256","name":"amount","type":"uint256"}],"name":"TicketExpired","type":"event"},{"anonymous":false,"inputs":[{"indexed":false,"internalType":"uint256","name":"newDuration","type":"uint256"}],"name":"TicketFlexibilityDurationUpdated","type":"event"},{"anonymous":false,"inputs":[{"indexed":true,"internalType":"address","name":"user","type":"address"},{"indexed":false,"internalType":"uint256","name":"amount","type":"uint256"},{"indexed":false,"internalType":"uint256","name":"ticketId","type":"uint256"}],"name":"TicketPurchased","type":"event"},{"anonymous":false,"inputs":[{"indexed":false,"internalType":"address","name":"token","type":"address"},{"indexed":false,"internalType":"address","name":"to","type":"address"},{"indexed":false,"internalType":"uint256","name":"amount","type":"uint256"}],"name":"TokensRescued","type":"event"},{"anonymous":false,"inputs":[{"indexed":true,"internalType":"address","name":"implementation","type":"address"}],"name":"Upgraded","type":"event"},{"anonymous":false,"inputs":[{"indexed":false,"internalType":"address","name":"marketing","type":"address"},{"indexed":false,"internalType":"address","name":"treasury","type":"address"},{"indexed":false,"internalType":"address","name":"lpInjection","type":"address"},{"indexed":false,"internalType":"address","name":"buyback","type":"address"}],"name":"WalletsUpdated","type":"event"},{"inputs":[],"name":"REWARD_DIFFERENTIAL","outputs":[{"internalType":"uint8","name":"","type":"uint8"}],"stateMutability":"view","type":"function"},{"inputs":[],"name":"REWARD_DIRECT","outputs":[{"internalType":"uint8","name":"","type":"uint8"}],"stateMutability":"view","type":"function"},{"inputs":[],"name":"REWARD_DYNAMIC","outputs":[{"internalType":"uint8","name":"","type":"uint8"}],"stateMutability":"view","type":"function"},{"inputs":[],"name":"REWARD_LEVEL","outputs":[{"internalType":"uint8","name":"","type":"uint8"}],"stateMutability":"view","type":"function"},{"inputs":[],"name":"REWARD_STATIC","outputs":[{"internalType":"uint8","name":"","type":"uint8"}],"stateMutability":"view","type":"function"},{"inputs":[],"name":"SECONDS_IN_UNIT","outputs":[{"internalType":"uint256","name":"","type":"uint256"}],"stateMutability":"view","type":"function"},{"inputs":[],"name":"UPGRADE_INTERFACE_VERSION","outputs":[{"internalType":"string","name":"","type":"string"}],"stateMutability":"view","type":"function"},{"inputs":[{"internalType":"uint256","name":"mcAmount","type":"uint256"},{"internalType":"uint256","name":"jbcAmount","type":"uint256"}],"name":"addLiquidity","outputs":[],"stateMutability":"nonpayable","type":"function"},{"inputs":[{"internalType":"address[]","name":"users","type":"address[]"},{"internalType":"uint256[]","name":"newCounts","type":"uint256[]"}],"name":"batchUpdateTeamCounts","outputs":[],"stateMutability":"nonpayable","type":"function"},{"inputs":[{"internalType":"address","name":"_referrer","type":"address"}],"name":"bindReferrer","outputs":[],"stateMutability":"nonpayable","type":"function"},{"inputs":[{"internalType":"uint256","name":"amount","type":"uint256"}],"name":"buyTicket","outputs":[],"stateMutability":"nonpayable","type":"function"},{"inputs":[],"name":"buybackPercent","outputs":[{"internalType":"uint256","name":"","type":"uint256"}],"stateMutability":"view","type":"function"},{"inputs":[],"name":"buybackWallet","outputs":[{"internalType":"address","name":"","type":"address"}],"stateMutability":"view","type":"function"},{"inputs":[],"name":"claimRewards","outputs":[],"stateMutability":"nonpayable","type":"function"},{"inputs":[{"internalType":"address","name":"","type":"address"},{"internalType":"uint256","name":"","type":"uint256"}],"name":"directReferrals","outputs":[{"internalType":"address","name":"","type":"address"}],"stateMutability":"view","type":"function"},{"inputs":[],"name":"directRewardPercent","outputs":[{"internalType":"uint256","name":"","type":"uint256"}],"stateMutability":"view","type":"function"},{"inputs":[{"internalType":"address","name":"user","type":"address"}],"name":"getDirectReferrals","outputs":[{"internalType":"address[]","name":"","type":"address[]"}],"stateMutability":"view","type":"function"},{"inputs":[{"internalType":"uint256","name":"activeDirects","type":"uint256"}],"name":"getLevel","outputs":[{"internalType":"uint256","name":"level","type":"uint256"},{"internalType":"uint256","name":"percent","type":"uint256"}],"stateMutability":"view","type":"function"},{"inputs":[{"internalType":"uint256","name":"teamCount","type":"uint256"}],"name":"getLevelByTeamCount","outputs":[{"internalType":"uint256","name":"level","type":"uint256"},{"internalType":"uint256","name":"percent","type":"uint256"}],"stateMutability":"view","type":"function"},{"inputs":[{"internalType":"uint256","name":"activeDirects","type":"uint256"}],"name":"getLevelRewardLayers","outputs":[{"internalType":"uint256","name":"","type":"uint256"}],"stateMutability":"pure","type":"function"},{"inputs":[{"internalType":"address","name":"_mcToken","type":"address"},{"internalType":"address","name":"_jbcToken","type":"address"},{"internalType":"address","name":"_marketing","type":"address"},{"internalType":"address","name":"_treasury","type":"address"},{"internalType":"address","name":"_lpInjection","type":"address"},{"internalType":"address","name":"_buybackWallet","type":"address"}],"name":"initialize","outputs":[],"stateMutability":"nonpayable","type":"function"},{"inputs":[],"name":"jbcToken","outputs":[{"internalType":"contract IJBC","name":"","type":"address"}],"stateMutability":"view","type":"function"},{"inputs":[],"name":"lastBurnTime","outputs":[{"internalType":"uint256","name":"","type":"uint256"}],"stateMutability":"view","type":"function"},{"inputs":[],"name":"levelRewardPercent","outputs":[{"internalType":"uint256","name":"","type":"uint256"}],"stateMutability":"view","type":"function"},{"inputs":[],"name":"levelRewardPool","outputs":[{"internalType":"uint256","name":"","type":"uint256"}],"stateMutability":"view","type":"function"},{"inputs":[],"name":"liquidityEnabled","outputs":[{"internalType":"bool","name":"","type":"bool"}],"stateMutability":"view","type":"function"},{"inputs":[],"name":"lpInjectionPercent","outputs":[{"internalType":"uint256","name":"","type":"uint256"}],"stateMutability":"view","type":"function"},{"inputs":[],"name":"lpInjectionWallet","outputs":[{"internalType":"address","name":"","type":"address"}],"stateMutability":"view","type":"function"},{"inputs":[],"name":"marketingPercent","outputs":[{"internalType":"uint256","name":"","type":"uint256"}],"stateMutability":"view","type":"function"},{"inputs":[],"name":"marketingWallet","outputs":[{"internalType":"address","name":"","type":"address"}],"stateMutability":"view","type":"function"},{"inputs":[],"name":"mcToken","outputs":[{"internalType":"contract IERC20","name":"","type":"address"}],"stateMutability":"view","type":"function"},{"inputs":[],"name":"nextStakeId","outputs":[{"internalType":"uint256","name":"","type":"uint256"}],"stateMutability":"view","type":"function"},{"inputs":[],"name":"nextTicketId","outputs":[{"internalType":"uint256","name":"","type":"uint256"}],"stateMutability":"view","type":"function"},{"inputs":[],"name":"owner","outputs":[{"internalType":"address","name":"","type":"address"}],"stateMutability":"view","type":"function"},{"inputs":[],"name":"proxiableUUID","outputs":[{"internalType":"bytes32","name":"","type":"bytes32"}],"stateMutability":"view","type":"function"},{"inputs":[],"name":"redeem","outputs":[],"stateMutability":"nonpayable","type":"function"},{"inputs":[],"name":"redeemEnabled","outputs":[{"internalType":"bool","name":"","type":"bool"}],"stateMutability":"view","type":"function"},{"inputs":[],"name":"redemptionFeePercent","outputs":[{"internalType":"uint256","name":"","type":"uint256"}],"stateMutability":"view","type":"function"},{"inputs":[],"name":"renounceOwnership","outputs":[],"stateMutability":"nonpayable","type":"function"},{"inputs":[{"internalType":"address","name":"_token","type":"address"},{"internalType":"address","name":"_to","type":"address"},{"internalType":"uint256","name":"_amount","type":"uint256"}],"name":"rescueTokens","outputs":[],"stateMutability":"nonpayable","type":"function"},{"inputs":[{"internalType":"uint256","name":"_direct","type":"uint256"},{"internalType":"uint256","name":"_level","type":"uint256"},{"internalType":"uint256","name":"_marketing","type":"uint256"},{"internalType":"uint256","name":"_buyback","type":"uint256"},{"internalType":"uint256","name":"_lpInjection","type":"uint256"},{"internalType":"uint256","name":"_treasury","type":"uint256"}],"name":"setDistributionConfig","outputs":[],"stateMutability":"nonpayable","type":"function"},{"inputs":[{"internalType":"bool","name":"_liquidityEnabled","type":"bool"},{"internalType":"bool","name":"_redeemEnabled","type":"bool"}],"name":"setOperationalStatus","outputs":[],"stateMutability":"nonpayable","type":"function"},{"inputs":[{"internalType":"uint256","name":"_fee","type":"uint256"}],"name":"setRedemptionFeePercent","outputs":[],"stateMutability":"nonpayable","type":"function"},{"inputs":[{"internalType":"uint256","name":"_buyTax","type":"uint256"},{"internalType":"uint256","name":"_sellTax","type":"uint256"}],"name":"setSwapTaxes","outputs":[],"stateMutability":"nonpayable","type":"function"},{"inputs":[{"internalType":"uint256","name":"_duration","type":"uint256"}],"name":"setTicketFlexibilityDuration","outputs":[],"stateMutability":"nonpayable","type":"function"},{"inputs":[{"internalType":"address","name":"_marketing","type":"address"},{"internalType":"address","name":"_treasury","type":"address"},{"internalType":"address","name":"_lpInjection","type":"address"},{"internalType":"address","name":"_buyback","type":"address"}],"name":"setWallets","outputs":[],"stateMutability":"nonpayable","type":"function"},{"inputs":[{"internalType":"uint256","name":"amount","type":"uint256"},{"internalType":"uint256","name":"cycleDays","type":"uint256"}],"name":"stakeLiquidity","outputs":[],"stateMutability":"nonpayable","type":"function"},{"inputs":[{"internalType":"uint256","name":"","type":"uint256"}],"name":"stakeOwner","outputs":[{"internalType":"address","name":"","type":"address"}],"stateMutability":"view","type":"function"},{"inputs":[{"internalType":"uint256","name":"","type":"uint256"},{"internalType":"uint256","name":"","type":"uint256"}],"name":"stakePendingRewards","outputs":[{"internalType":"address","name":"upline","type":"address"},{"internalType":"uint256","name":"amount","type":"uint256"}],"stateMutability":"view","type":"function"},{"inputs":[],"name":"swapBuyTax","outputs":[{"internalType":"uint256","name":"","type":"uint256"}],"stateMutability":"view","type":"function"},{"inputs":[{"internalType":"uint256","name":"jbcAmount","type":"uint256"}],"name":"swapJBCToMC","outputs":[],"stateMutability":"nonpayable","type":"function"},{"inputs":[{"internalType":"uint256","name":"mcAmount","type":"uint256"}],"name":"swapMCToJBC","outputs":[],"stateMutability":"nonpayable","type":"function"},{"inputs":[],"name":"swapReserveJBC","outputs":[{"internalType":"uint256","name":"","type":"uint256"}],"stateMutability":"view","type":"function"},{"inputs":[],"name":"swapReserveMC","outputs":[{"internalType":"uint256","name":"","type":"uint256"}],"stateMutability":"view","type":"function"},{"inputs":[],"name":"swapSellTax","outputs":[{"internalType":"uint256","name":"","type":"uint256"}],"stateMutability":"view","type":"function"},{"inputs":[],"name":"ticketFlexibilityDuration","outputs":[{"internalType":"uint256","name":"","type":"uint256"}],"stateMutability":"view","type":"function"},{"inputs":[{"internalType":"uint256","name":"","type":"uint256"}],"name":"ticketOwner","outputs":[{"internalType":"address","name":"","type":"address"}],"stateMutability":"view","type":"function"},{"inputs":[{"internalType":"uint256","name":"","type":"uint256"},{"internalType":"uint256","name":"","type":"uint256"}],"name":"ticketPendingRewards","outputs":[{"internalType":"address","name":"upline","type":"address"},{"internalType":"uint256","name":"amount","type":"uint256"}],"stateMutability":"view","type":"function"},{"inputs":[{"internalType":"address","name":"newOwner","type":"address"}],"name":"transferOwnership","outputs":[],"stateMutability":"nonpayable","type":"function"},{"inputs":[],"name":"treasuryPercent","outputs":[{"internalType":"uint256","name":"","type":"uint256"}],"stateMutability":"view","type":"function"},{"inputs":[],"name":"treasuryWallet","outputs":[{"internalType":"address","name":"","type":"address"}],"stateMutability":"view","type":"function"},{"inputs":[{"internalType":"address","name":"newImplementation","type":"address"},{"internalType":"bytes","name":"data","type":"bytes"}],"name":"upgradeToAndCall","outputs":[],"stateMutability":"payable","type":"function"},{"inputs":[{"internalType":"address","name":"","type":"address"}],"name":"userInfo","outputs":[{"internalType":"address","name":"referrer","type":"address"},{"internalType":"uint256","name":"activeDirects","type":"uint256"},{"internalType":"uint256","name":"teamCount","type":"uint256"},{"internalType":"uint256","name":"totalRevenue","type":"uint256"},{"internalType":"uint256","name":"currentCap","type":"uint256"},{"internalType":"bool","name":"isActive","type":"bool"},{"internalType":"uint256","name":"refundFeeAmount","type":"uint256"},{"internalType":"uint256","name":"teamTotalVolume","type":"uint256"},{"internalType":"uint256","name":"teamTotalCap","type":"uint256"},{"internalType":"uint256","name":"maxTicketAmount","type":"uint256"},{"internalType":"uint256","name":"maxSingleTicketAmount","type":"uint256"}],"stateMutability":"view","type":"function"},{"inputs":[{"internalType":"address","name":"","type":"address"},{"internalType":"uint256","name":"","type":"uint256"}],"name":"userStakes","outputs":[{"internalType":"uint256","name":"id","type":"uint256"},{"internalType":"uint256","name":"amount","type":"uint256"},{"internalType":"uint256","name":"startTime","type":"uint256"},{"internalType":"uint256","name":"cycleDays","type":"uint256"},{"internalType":"bool","name":"active","type":"bool"},{"internalType":"uint256","name":"paid","type":"uint256"}],"stateMutability":"view","type":"function"},{"inputs":[{"internalType":"address","name":"","type":"address"}],"name":"userTicket","outputs":[{"internalType":"uint256","name":"ticketId","type":"uint256"},{"internalType":"uint256","name":"amount","type":"uint256"},{"internalType":"uint256","name":"purchaseTime","type":"uint256"},{"internalType":"bool","name":"exited","type":"bool"}],"stateMutability":"view","type":"function"},{"inputs":[{"internalType":"address","name":"_to","type":"address"},{"internalType":"uint256","name":"_amount","type":"uint256"}],"name":"withdrawLevelRewardPool","outputs":[],"stateMutability":"nonpayable","type":"function"},{"inputs":[{"internalType":"address","name":"_toMC","type":"address"},{"internalType":"uint256","name":"_amountMC","type":"uint256"},{"internalType":"address","name":"_toJBC","type":"address"},{"internalType":"uint256","name":"_amountJBC","type":"uint256"}],"name":"withdrawSwapReserves","outputs":[],"stateMutability":"nonpayable","type":"function"}],"evm":{"bytecode":{"linkReferences":{},"object":"60a0604052306080523480156200001557600080fd5b506200002062000026565b620000da565b7ff0c57e16840df040f15088dc2f81fe391c3923bec73e23a9662efc9c229c6a00805468010000000000000000900460ff1615620000775760405163f92ee8a960e01b815260040160405180910390fd5b80546001600160401b0390811614620000d75780546001600160401b0319166001600160401b0390811782556040519081527fc7f505b2f371ae2175ee4913f4499e1f2633a7b5936321eed1cdaeb6115181d29060200160405180910390a15b50565b60805161580862000104600039600081816140650152818161408e01526141c601526158086000f3fe6080604052600436106102f45760003560e01c806301d62efb146102f957806304ef9d581461031b57806304f618cb1461034457806305ad3935146103645780630a5c4567146103915780630e2be210146103b15780631427f616146103d85780631788513c146103ed578063182c84cc1461040d5780631959a0021461042d5780631d0dac761461050c57806327f082f414610522578063372500ab146105385780633dbd46bd1461054d5780634626402b1461058357806347194001146105a3578063488b5d97146105d15780634ea4c6b3146105e65780634f1ef2861461060657806352778b051461061957806352d1902d146106395780636031a52f1461064e57806367dd74ca146106645780636dd6682714610684578063715018a61461069a57806374b0eecf146106af57806375506c96146106cf57806375f0a874146106e557806377a2a54014610705578063813380cd1461071b57806383672f3e1461074957806386481d40146105a35780638710bcaa1461076957806388481b61146107d057806388fd4d33146107e55780638a859a85146108055780638c0eaa481461081a5780638da5cb5b1461082f57806390b0eb51146108445780639370b08014610864578063952539921461087a57806399b6024d1461089a5780639cd441da146108ba5780639d99eca4146108da578063ac8f50aa146108fa578063ad3cb1cc1461091a578063b048a4bb14610958578063b5d5b5fa14610982578063b759936b146109d1578063bd594dcf146109e7578063be040fb0146109fd578063c2ff12fc14610a12578063cc2a9a5b14610a48578063ccf6194414610a68578063cea9d26f14610a7e578063ceaa366d14610a9e578063d0f1647014610ab4578063d2c8e0e514610ad4578063d2f8253614610b01578063d4f0014214610b20578063d8020a1814610b40578063deab8aea14610b56578063dec7fa3b14610b76578063e306744914610b8c578063e4412f6814610ba2578063ece7126614610bb8578063f2fde38b14610bd8575b600080fd5b34801561030557600080fd5b5061031961031436600461507b565b610bf8565b005b34801561032757600080fd5b50610331600b5481565b6040519081526020015b60405180910390f35b34801561035057600080fd5b5061031961035f3660046150d0565b610c8e565b34801561037057600080fd5b5061038461037f3660046150eb565b610d93565b60405161033b9190615115565b34801561039d57600080fd5b506103196103ac366004615129565b610dcb565b3480156103bd57600080fd5b506103c6600281565b60405160ff909116815260200161033b565b3480156103e457600080fd5b506103c6600081565b3480156103f957600080fd5b50600154610384906001600160a01b031681565b34801561041957600080fd5b50610331610428366004615129565b6110a6565b34801561043957600080fd5b506104af6104483660046150d0565b600f60205260009081526040902080546001820154600283015460038401546004850154600586015460068701546007880154600889015460098a0154600a909a01546001600160a01b0390991699979896979596949560ff90941694929391929091908b565b604080516001600160a01b03909c168c5260208c019a909a52988a01979097526060890195909552608088019390935290151560a087015260c086015260e08501526101008401526101208301526101408201526101600161033b565b34801561051857600080fd5b5061033160175481565b34801561052e57600080fd5b50610331600d5481565b34801561054457600080fd5b506103196110e0565b34801561055957600080fd5b50610384610568366004615129565b601d602052600090815260409020546001600160a01b031681565b34801561058f57600080fd5b50600354610384906001600160a01b031681565b3480156105af57600080fd5b506105c36105be366004615129565b611750565b60405161033b929190615142565b3480156105dd57600080fd5b50610331603c81565b3480156105f257600080fd5b50610319610601366004615150565b611765565b610319610614366004615188565b611b2f565b34801561062557600080fd5b50610319610634366004615129565b611b4e565b34801561064557600080fd5b50610331611e18565b34801561065a57600080fd5b5061033160185481565b34801561067057600080fd5b5061031961067f366004615129565b611e35565b34801561069057600080fd5b5061033160145481565b3480156106a657600080fd5b50610319612435565b3480156106bb57600080fd5b506103196106ca366004615294565b612447565b3480156106db57600080fd5b5061033160195481565b3480156106f157600080fd5b50600254610384906001600160a01b031681565b34801561071157600080fd5b5061033160165481565b34801561072757600080fd5b5061073b610736366004615150565b6125e1565b60405161033b9291906152ff565b34801561075557600080fd5b50610319610764366004615318565b612627565b34801561077557600080fd5b506107ae6107843660046150d0565b60106020526000908152604090208054600182015460028301546003909301549192909160ff1684565b604080519485526020850193909352918301521515606082015260800161033b565b3480156107dc57600080fd5b506103c6600481565b3480156107f157600080fd5b50600454610384906001600160a01b031681565b34801561081157600080fd5b506103c6600181565b34801561082657600080fd5b506103c6600381565b34801561083b57600080fd5b506103846126c1565b34801561085057600080fd5b5061031961085f366004615150565b6126dc565b34801561087057600080fd5b50610331600e5481565b34801561088657600080fd5b50600054610384906001600160a01b031681565b3480156108a657600080fd5b506103196108b53660046150eb565b612720565b3480156108c657600080fd5b506103196108d5366004615150565b6127fc565b3480156108e657600080fd5b506103196108f5366004615129565b612961565b34801561090657600080fd5b5061073b610915366004615150565b6129a5565b34801561092657600080fd5b5061094b604051806040016040528060058152602001640352e302e360dc1b81525081565b60405161033b9190615390565b34801561096457600080fd5b506015546109729060ff1681565b604051901515815260200161033b565b34801561098e57600080fd5b506109a261099d3660046150eb565b6129c1565b6040805196875260208701959095529385019290925260608401521515608083015260a082015260c00161033b565b3480156109dd57600080fd5b50610331601e5481565b3480156109f357600080fd5b5061033160075481565b348015610a0957600080fd5b50610319612a1b565b348015610a1e57600080fd5b50610384610a2d366004615129565b601b602052600090815260409020546001600160a01b031681565b348015610a5457600080fd5b50610319610a633660046153c3565b613343565b348015610a7457600080fd5b5061033160065481565b348015610a8a57600080fd5b50610319610a99366004615437565b6134f4565b348015610aaa57600080fd5b50610331600a5481565b348015610ac057600080fd5b50610319610acf366004615473565b6135ae565b348015610ae057600080fd5b50610af4610aef3660046150d0565b613632565b60405161033b91906154b6565b348015610b0d57600080fd5b5060155461097290610100900460ff1681565b348015610b2c57600080fd5b50610319610b3b366004615503565b6136a8565b348015610b4c57600080fd5b5061033160085481565b348015610b6257600080fd5b50600554610384906001600160a01b031681565b348015610b8257600080fd5b50610331600c5481565b348015610b9857600080fd5b50610331601a5481565b348015610bae57600080fd5b5061033160095481565b348015610bc457600080fd5b50610319610bd3366004615129565b613809565b348015610be457600080fd5b50610319610bf33660046150d0565b613846565b610c00613884565b6015805461ffff191683151561ff001981169190911761010084151502179091556040519081527fb886fcb5b9c12916f26d967ebe962dbd51ec249fb55961da39c851cdfc10115c9060200160405180910390a160405181151581527f03cb373f89de891077fe47cec43663b6727713de0337af46bebd1178122251b7906020015b60405180910390a15050565b336000908152600f60205260409020546001600160a01b031615610cc55760405163682a906560e01b815260040160405180910390fd5b336001600160a01b03821603610cee57604051631acade8960e31b815260040160405180910390fd5b6001600160a01b038116610d155760405163e6c4247b60e01b815260040160405180910390fd5b336000818152600f6020908152604080832080546001600160a01b0387166001600160a01b0319918216811790925581855260128452828520805460018101825590865293852090930180549093168517909255519092917fa6dbb5aa28f35437de94d685d66edce5fb4812196b4984b91dfd5a7b38c0fb3091a350565b60126020528160005260406000208181548110610daf57600080fd5b6000918252602090912001546001600160a01b03169150829050565b80600003610dec5760405163162908e360e11b815260040160405180910390fd5b6000546040516323b872dd60e01b81526001600160a01b03909116906323b872dd90610e2090339030908690600401615547565b6020604051808303816000875af1158015610e3f573d6000803e3d6000fd5b505050506040513d601f19601f82011682018060405250810190610e63919061556b565b50600060175482610e74919061559e565b9050600082601654610e8691906155b5565b90506000610e9482846155c8565b905060006064600d5483610ea8919061559e565b610eb291906155c8565b90506000610ec082846155ea565b6001546040516370a0823160e01b815291925084916001600160a01b03909116906370a0823190610ef5903090600401615115565b602060405180830381865afa158015610f12573d6000803e3d6000fd5b505050506040513d601f19601f82011682018060405250810190610f3691906155fd565b1015610f55576040516343c7ad8160e11b815260040160405180910390fd5b8560166000828254610f6791906155b5565b925050819055508260176000828254610f8091906155ea565b9091555050600154604051630852cd8d60e31b8152600481018490526001600160a01b03909116906342966c6890602401600060405180830381600087803b158015610fcb57600080fd5b505af1158015610fdf573d6000803e3d6000fd5b505060015460405163a9059cbb60e01b81526001600160a01b03909116925063a9059cbb915061101590339085906004016152ff565b6020604051808303816000875af1158015611034573d6000803e3d6000fd5b505050506040513d601f19601f82011682018060405250810190611058919061556b565b50336001600160a01b03167f36864aeefce16bc4aaceeb6b0cdfb2ad1455a8cb4ccb0db148a2bc6e7166f97c87838560405161109693929190615616565b60405180910390a2505050505050565b6000600382106110b85750600f919050565b600282106110c85750600a919050565b600182106110d857506005919050565b506000919050565b336000908152601060205260409020600181015415806111045750600381015460ff165b1561112257604051634065aaf160e11b815260040160405180910390fd5b33600090815260116020526040812090805b82548110156113875782818154811061114f5761114f61562c565b600091825260209091206004600690920201015460ff161561137f57600083828154811061117f5761117f61562c565b9060005260206000209060060201600301546007036111a2575062cb7356611209565b8382815481106111b4576111b461562c565b906000526020600020906006020160030154600f036111d7575062fe502b611209565b8382815481106111e9576111e961562c565b906000526020600020906006020160030154601e0361120957506301312d005b6000603c85848154811061121f5761121f61562c565b9060005260206000209060060201600201544261123c91906155ea565b61124691906155c8565b905084838154811061125a5761125a61562c565b90600052602060002090600602016003015481111561129a578483815481106112855761128561562c565b90600052602060002090600602016003015490505b806000036112a957505061137f565b6000633b9aca0082848887815481106112c4576112c461562c565b9060005260206000209060060201600101546112e0919061559e565b6112ea919061559e565b6112f491906155c8565b9050600086858154811061130a5761130a61562c565b90600052602060002090600602016005015490508082111561137a57600061133282846155ea565b905061133e81886155b5565b9650808887815481106113535761135361562c565b9060005260206000209060060201600501600082825461137391906155b5565b9091555050505b505050505b600101611134565b50806000036113a957604051630fec21fd60e21b815260040160405180910390fd5b336000908152600f6020526040902060048101546003909101546113ce9083906155b5565b11156113fb57336000908152600f6020526040902060038101546004909101546113f891906155ea565b90505b806000036114115761140c336138b6565b505050565b336000908152600f6020526040812060030180548392906114339084906155b5565b90915550600090506114466002836155c8565b905060006114556002846155c8565b600080546040516370a0823160e01b8152929350909184916001600160a01b0316906370a082319061148b903090600401615115565b602060405180830381865afa1580156114a8573d6000803e3d6000fd5b505050506040513d601f19601f820116820180604052508101906114cc91906155fd565b101580156114da5750600083115b156115595760005460405163a9059cbb60e01b81526001600160a01b039091169063a9059cbb9061151190339087906004016152ff565b6020604051808303816000875af1158015611530573d6000803e3d6000fd5b505050506040513d601f19601f82011682018060405250810190611554919061556b565b508290505b600060175460001461158c5760175460165461157d90670de0b6b3a764000061559e565b61158791906155c8565b611596565b670de0b6b3a76400005b90506000816115ad85670de0b6b3a764000061559e565b6115b791906155c8565b6001546040516370a0823160e01b815291925060009183916001600160a01b0316906370a08231906115ed903090600401615115565b602060405180830381865afa15801561160a573d6000803e3d6000fd5b505050506040513d601f19601f8201168201806040525081019061162e91906155fd565b1015801561163c5750600082115b156116bb5760015460405163a9059cbb60e01b81526001600160a01b039091169063a9059cbb9061167390339086906004016152ff565b6020604051808303816000875af1158015611692573d6000803e3d6000fd5b505050506040513d601f19601f820116820180604052508101906116b6919061556b565b508190505b336001600160a01b03166000805160206157938339815191528860006040516116e5929190615642565b60405180910390a288546040513391600080516020615713833981519152916117149188918691600091615653565b60405180910390a2336000908152600f6020526040902060048101546003909101541061174457611744336138b6565b5050505050505050505b565b60008061175c83613bf4565b91509150915091565b336000908152601060205260408120600181015490910361179957604051634065aaf160e11b815260040160405180910390fd5b600381015460ff16156117bf57604051631ecb2c4f60e31b815260040160405180910390fd5b816007141580156117d1575081600f14155b80156117de575081601e14155b156117fc57604051634dc7f5ff60e11b815260040160405180910390fd5b8260000361181d5760405163162908e360e11b815260040160405180910390fd5b6000546040516323b872dd60e01b81526001600160a01b03909116906323b872dd9061185190339030908890600401615547565b6020604051808303816000875af1158015611870573d6000803e3d6000fd5b505050506040513d601f19601f82011682018060405250810190611894919061556b565b50601980549060006118a583615671565b9091555050336000818152601160209081526040808320815160c0810183526019805482528185018a815242838601908152606084018b815260016080860181815260a087018b815288548084018a55988c528a8c2097516006909902909701978855935190870155905160028601555160038501555160048401805460ff1916911515919091179055905160059092019190915580548452601d90925290912080546001600160a01b031916831790555461196391908590613cbb565b61196c33613f19565b336001600160a01b03167fa8a1b9e33e503eed12bf7e7c8c01c7f3b60217a496bddd0f5db351dd8c056c1c84846019546040516119ab93929190615616565b60405180910390a2336000908152600f60205260409020600601548015611b2957336000908152600f60205260408120600601556016548111801590611a6057506000546040516370a0823160e01b815282916001600160a01b0316906370a0823190611a1c903090600401615115565b602060405180830381865afa158015611a39573d6000803e3d6000fd5b505050506040513d601f19601f82011682018060405250810190611a5d91906155fd565b10155b15611b29578060166000828254611a7791906155ea565b909155505060005460405163a9059cbb60e01b81526001600160a01b039091169063a9059cbb90611aae90339085906004016152ff565b6020604051808303816000875af1158015611acd573d6000803e3d6000fd5b505050506040513d601f19601f82011682018060405250810190611af1919061556b565b5060405181815233907f3437b9ea7fa19c6d233dd70cc787a70fab87cee64d8ba4571512cc84402748f9906020015b60405180910390a25b50505050565b611b3761405a565b611b40826140ff565b611b4a8282614107565b5050565b80600003611b6f5760405163162908e360e11b815260040160405180910390fd5b6001546040516323b872dd60e01b81526001600160a01b03909116906323b872dd90611ba390339030908690600401615547565b6020604051808303816000875af1158015611bc2573d6000803e3d6000fd5b505050506040513d601f19601f82011682018060405250810190611be6919061556b565b5060006064600e5483611bf9919061559e565b611c0391906155c8565b90506000611c1182846155ea565b600154604051630852cd8d60e31b8152600481018590529192506001600160a01b0316906342966c6890602401600060405180830381600087803b158015611c5857600080fd5b505af1158015611c6c573d6000803e3d6000fd5b50505050600060165482611c80919061559e565b9050600082601754611c9291906155b5565b90506000611ca082846155c8565b6000546040516370a0823160e01b815291925082916001600160a01b03909116906370a0823190611cd5903090600401615115565b602060405180830381865afa158015611cf2573d6000803e3d6000fd5b505050506040513d601f19601f82011682018060405250810190611d1691906155fd565b1015611d35576040516343c7ad8160e11b815260040160405180910390fd5b8360176000828254611d4791906155b5565b925050819055508060166000828254611d6091906155ea565b909155505060005460405163a9059cbb60e01b81526001600160a01b039091169063a9059cbb90611d9790339085906004016152ff565b6020604051808303816000875af1158015611db6573d6000803e3d6000fd5b505050506040513d601f19601f82011682018060405250810190611dda919061556b565b50336001600160a01b03167f223c8ad0806f634524940a8595f819c5cfc7b1f4f4f45791269301df0a7e61d587838860405161109693929190615616565b6000611e226141bb565b5060008051602061575383398151915290565b611e3e33614204565b8068056bc75e2d6310000014158015611e60575080681043561a882930000014155b8015611e75575080681b1ae4d6e2ef50000014155b8015611e8a575080683635c9adc5dea0000014155b15611ea85760405163162908e360e11b815260040160405180910390fd5b6000546040516323b872dd60e01b81526001600160a01b03909116906323b872dd90611edc90339030908690600401615547565b6020604051808303816000875af1158015611efb573d6000803e3d6000fd5b505050506040513d601f19601f82011682018060405250810190611f1f919061556b565b50336000908152601060205260409020600381015460ff1615611fa55760188054906000611f4c83615671565b90915550506018548155600181018290554260028201556003808201805460ff19169055336000908152600f60205260408120820155611f8d90839061559e565b336000908152600f602052604090206004015561202f565b8060010154600003611fc15760188054906000611f4c83615671565b81816001016000828254611fd591906155b5565b9091555050336000908152600f602052604090206005015460ff1615611ffc574260028201555b61200782600361559e565b336000908152600f6020526040812060040180549091906120299084906155b5565b90915550505b336000908152600f602052604090206009015460018201541115612066576001810154336000908152600f60205260409020600901555b336000908152600f60205260409020600a015482111561209657336000908152600f60205260409020600a018290555b80546000908152601b6020908152604080832080546001600160a01b031916339081179091558352600f9091529020546001600160a01b031680158015906120f957506001600160a01b0381166000908152600f602052604090206005015460ff165b15612172576000606460065485612110919061559e565b61211a91906155c8565b9050600061212a838360026143db565b9050801561216b57835460405133916001600160a01b038616916000805160206156f38339815191529161216291869160029161568a565b60405180910390a35b5050612208565b6000546002546006546001600160a01b039283169263a9059cbb92169060649061219c908861559e565b6121a691906155c8565b6040518363ffffffff1660e01b81526004016121c39291906152ff565b6020604051808303816000875af11580156121e2573d6000803e3d6000fd5b505050506040513d601f19601f82011682018060405250810190612206919061556b565b505b6122123384614574565b6000546002546008546001600160a01b039283169263a9059cbb92169060649061223c908861559e565b61224691906155c8565b6040518363ffffffff1660e01b81526004016122639291906152ff565b6020604051808303816000875af1158015612282573d6000803e3d6000fd5b505050506040513d601f19601f820116820180604052508101906122a6919061556b565b5060006064600954856122b9919061559e565b6122c391906155c8565b90506122ce81614799565b600054600454600a546001600160a01b039283169263a9059cbb9216906064906122f8908961559e565b61230291906155c8565b6040518363ffffffff1660e01b815260040161231f9291906152ff565b6020604051808303816000875af115801561233e573d6000803e3d6000fd5b505050506040513d601f19601f82011682018060405250810190612362919061556b565b50600054600354600b546001600160a01b039283169263a9059cbb92169060649061238d908961559e565b61239791906155c8565b6040518363ffffffff1660e01b81526004016123b49291906152ff565b6020604051808303816000875af11580156123d3573d6000803e3d6000fd5b505050506040513d601f19601f820116820180604052508101906123f7919061556b565b5061240133613f19565b825460405133917f2a91574e12ad96234e84923e146b0946ecfb871cd8d5534dc1fdcbe87a7c01b391611b20918891615142565b61243d613884565b61174e60006149cd565b61244f613884565b82811461246f5760405163980a3f3160e01b815260040160405180910390fd5b60005b838110156125a6576000600f60008787858181106124925761249261562c565b90506020020160208101906124a791906150d0565b6001600160a01b03166001600160a01b031681526020019081526020016000206002015490508383838181106124df576124df61562c565b90506020020135600f60008888868181106124fc576124fc61562c565b905060200201602081019061251191906150d0565b6001600160a01b031681526020810191909152604001600020600201558585838181106125405761254061562c565b905060200201602081019061255591906150d0565b6001600160a01b0316600080516020615733833981519152828686868181106125805761258061562c565b90506020020135604051612595929190615142565b60405180910390a250600101612472565b506040518381527f9c03d1f6ba485b6cf0a120117d651729467751d3079318d05171b6f389f6bf4b906020015b60405180910390a150505050565b601360205281600052604060002081815481106125fd57600080fd5b6000918252602090912060029091020180546001909101546001600160a01b039091169250905082565b61262f613884565b600280546001600160a01b038681166001600160a01b031992831681179093556003805487831690841681179091556004805487841690851681179091556005805493871693909416831790935560408051948552602085019190915283019190915260608201527f213f1de8063c19612a553f1480ff341bea689d36a56a2089f1b9060d599b5d83906080016125d3565b6000806126cc614a29565b546001600160a01b031692915050565b6126e4613884565b600d829055600e8190556040517f4e9dd03193a0c81552fb8e6d32280f0d7e0ce8087241dc3d17ef3d193ee231d790610c829084908490615142565b612728613884565b80601e600082825461273a91906155ea565b909155505060005460405163a9059cbb60e01b81526001600160a01b039091169063a9059cbb9061277190859085906004016152ff565b6020604051808303816000875af1158015612790573d6000803e3d6000fd5b505050506040513d601f19601f820116820180604052508101906127b4919061556b565b50816001600160a01b03167f27971ee1acbfbdfb20656657ceb2e0e7b519b9e60fe1a6b1f6d27b159f4a607c826040516127f091815260200190565b60405180910390a25050565b612804613884565b811561289a576000546040516323b872dd60e01b81526001600160a01b03909116906323b872dd9061283e90339030908790600401615547565b6020604051808303816000875af115801561285d573d6000803e3d6000fd5b505050506040513d601f19601f82011682018060405250810190612881919061556b565b50816016600082825461289491906155b5565b90915550505b8015612930576001546040516323b872dd60e01b81526001600160a01b03909116906323b872dd906128d490339030908690600401615547565b6020604051808303816000875af11580156128f3573d6000803e3d6000fd5b505050506040513d601f19601f82011682018060405250810190612917919061556b565b50806017600082825461292a91906155b5565b90915550505b7f38f8a0c92f4c5b0b6877f878cb4c0c8d348a47b76d716c8e78f425043df9515b8282604051610c82929190615142565b612969613884565b60148190556040518181527fd28d9e4ce68d89af7920cb8618e342a78f51e545c530ce60f1cb1d6f0235b47f906020015b60405180910390a150565b601c60205281600052604060002081815481106125fd57600080fd5b601160205281600052604060002081815481106129dd57600080fd5b600091825260209091206006909102018054600182015460028301546003840154600485015460059095015493965091945092909160ff9091169086565b601554610100900460ff16612a625760405162461bcd60e51b8152602060048201526008602482015267111a5cd8589b195960c21b60448201526064015b60405180910390fd5b336000908152601160205260408120908080805b8454811015612dd057848181548110612a9157612a9161562c565b600091825260209091206004600690920201015460ff1615612dc8576000603c868381548110612ac357612ac361562c565b906000526020600020906006020160030154612adf919061559e565b868381548110612af157612af161562c565b906000526020600020906006020160020154612b0d91906155b5565b9050804210612dc6576000868381548110612b2a57612b2a61562c565b906000526020600020906006020160030154600703612b4d575062cb7356612bb4565b868381548110612b5f57612b5f61562c565b906000526020600020906006020160030154600f03612b82575062fe502b612bb4565b868381548110612b9457612b9461562c565b906000526020600020906006020160030154601e03612bb457506301312d005b6000633b9aca00888581548110612bcd57612bcd61562c565b906000526020600020906006020160030154838a8781548110612bf257612bf261562c565b906000526020600020906006020160010154612c0e919061559e565b612c18919061559e565b612c2291906155c8565b90506000888581548110612c3857612c3861562c565b906000526020600020906006020160050154821115612c8357888581548110612c6357612c6361562c565b90600052602060002090600602016005015482612c8091906155ea565b90505b612c8d81876155b5565b955080898681548110612ca257612ca261562c565b90600052602060002090600602016005016000828254612cc291906155b5565b9091555050336000908152600f602052604081206009015490819003612cf75750336000908152601060205260409020600101545b60006064600c5483612d09919061559e565b612d1391906155c8565b905060008b8881548110612d2957612d2961562c565b9060005260206000209060060201600101549050808b612d4991906155b5565b9a50612d55828b6155b5565b995060008c8981548110612d6b57612d6b61562c565b906000526020600020906006020160040160006101000a81548160ff021916908315150217905550612dbf8c8981548110612da857612da861562c565b906000526020600020906006020160000154614a4d565b5050505050505b505b600101612a76565b506000831180612de05750600081115b612e205760405162461bcd60e51b81526020600482015260116024820152704e6f7468696e6720746f2072656465656d60781b6044820152606401612a59565b8115612eb6576000546040516323b872dd60e01b81526001600160a01b03909116906323b872dd90612e5a90339030908790600401615547565b6020604051808303816000875af1158015612e79573d6000803e3d6000fd5b505050506040513d601f19601f82011682018060405250810190612e9d919061556b565b508160166000828254612eb091906155b5565b90915550505b801561324457336000908152600f602052604081206003810154600490910154612ee091906155ea565b905080821115612f1f57336001600160a01b03166000805160206157738339815191528383604051612f13929190615142565b60405180910390a28091505b811561324257336000908152600f602052604081206003018054849290612f479084906155b5565b9091555060009050612f5a6002846155c8565b90506000612f696002856155c8565b600080546040516370a0823160e01b8152929350909184916001600160a01b0316906370a0823190612f9f903090600401615115565b602060405180830381865afa158015612fbc573d6000803e3d6000fd5b505050506040513d601f19601f82011682018060405250810190612fe091906155fd565b10158015612fee5750600083115b1561306d5760005460405163a9059cbb60e01b81526001600160a01b039091169063a9059cbb9061302590339087906004016152ff565b6020604051808303816000875af1158015613044573d6000803e3d6000fd5b505050506040513d601f19601f82011682018060405250810190613068919061556b565b508290505b60006017546000146130a05760175460165461309190670de0b6b3a764000061559e565b61309b91906155c8565b6130aa565b670de0b6b3a76400005b90506000816130c185670de0b6b3a764000061559e565b6130cb91906155c8565b6001546040516370a0823160e01b815291925060009183916001600160a01b0316906370a0823190613101903090600401615115565b602060405180830381865afa15801561311e573d6000803e3d6000fd5b505050506040513d601f19601f8201168201806040525081019061314291906155fd565b101580156131505750600082115b156131cf5760015460405163a9059cbb60e01b81526001600160a01b039091169063a9059cbb9061318790339086906004016152ff565b6020604051808303816000875af11580156131a6573d6000803e3d6000fd5b505050506040513d601f19601f820116820180604052508101906131ca919061556b565b508190505b336001600160a01b03166000805160206157938339815191528960006040516131f9929190615642565b60405180910390a2336000818152601060205260408082205490516000805160206157138339815191529261323392899287929190615653565b60405180910390a25050505050505b505b82156132c15760005460405163a9059cbb60e01b81526001600160a01b039091169063a9059cbb9061327c90339087906004016152ff565b6020604051808303816000875af115801561329b573d6000803e3d6000fd5b505050506040513d601f19601f820116820180604052508101906132bf919061556b565b505b336000908152600f6020526040812060060180548492906132e39084906155b5565b909155505060405133906000805160206157b38339815191529061330a9086908690615142565b60405180910390a261331b33613f19565b336000908152600f60205260409020600481015460039091015410611b2957611b29336138b6565b600061334d614c14565b805490915060ff600160401b82041615906001600160401b03166000811580156133745750825b90506000826001600160401b031660011480156133905750303b155b90508115801561339e575080155b156133bc5760405163f92ee8a960e01b815260040160405180910390fd5b84546001600160401b031916600117855583156133e557845460ff60401b1916600160401b1785555b6133ee33614c3f565b6133f6614c50565b600080546001600160a01b03199081166001600160a01b038e8116919091179092556001805482168d84161781556002805483168d85161790556003805483168c85161790556004805483168b85161790556005805490921692891692909217815560196006819055600f6007556008829055600991909155600a819055600b819055600c919091556032600d55600e556203f4806014556015805461ffff191661010117905542601a5583156134e757845460ff60401b19168555604051600181527fc7f505b2f371ae2175ee4913f4499e1f2633a7b5936321eed1cdaeb6115181d29060200160405180910390a15b5050505050505050505050565b6134fc613884565b60405163a9059cbb60e01b81526001600160a01b0384169063a9059cbb9061352a90859085906004016152ff565b6020604051808303816000875af1158015613549573d6000803e3d6000fd5b505050506040513d601f19601f8201168201806040525081019061356d919061556b565b507f77023e19c7343ad491fd706c36335ca0e738340a91f29b1fd81e2673d44896c48383836040516135a193929190615547565b60405180910390a1505050565b6135b6613884565b6006869055600785905560088490556009839055600a829055600b8190556040805187815260208101879052908101859052606081018490526080810183905260a081018290527f66682b276e4cd1a4e1f68b55b1143766c5332f472eb593cf2a70a25d9d5d99179060c00160405180910390a1505050505050565b6001600160a01b03811660009081526012602090815260409182902080548351818402810184019094528084526060939283018282801561369c57602002820191906000526020600020905b81546001600160a01b0316815260019091019060200180831161367e575b50505050509050919050565b6136b0613884565b82156137445782601660008282546136c891906155ea565b909155505060005460405163a9059cbb60e01b81526001600160a01b039091169063a9059cbb906136ff90879087906004016152ff565b6020604051808303816000875af115801561371e573d6000803e3d6000fd5b505050506040513d601f19601f82011682018060405250810190613742919061556b565b505b80156137d857806017600082825461375c91906155ea565b909155505060015460405163a9059cbb60e01b81526001600160a01b039091169063a9059cbb9061379390859085906004016152ff565b6020604051808303816000875af11580156137b2573d6000803e3d6000fd5b505050506040513d601f19601f820116820180604052508101906137d6919061556b565b505b7f520bc217d25ef4588524228dffcfa518f4ad52178c71d49b8061d016213cd31183826040516125d3929190615142565b613811613884565b600c8190556040518181527fc7f6975dcffc536e6e57dd1d1dea810fff534a70563baf2d6f977b119bd00e1b9060200161299a565b61384e613884565b6001600160a01b038116613878576000604051631e4fbdf760e01b8152600401612a599190615115565b613881816149cd565b50565b3361388d6126c1565b6001600160a01b03161461174e573360405163118cdaa760e01b8152600401612a599190615115565b6001600160a01b0381166000908152601060205260409020600381015460ff16611b4a5760038101805460ff191660011790556001600160a01b03821660009081526011602052604081209080805b8354811015613a28578381815481106139205761392061562c565b600091825260209091206004600690920201015460ff1615613a2057600061012c600c548684815481106139565761395661562c565b9060005260206000209060060201600101546002613974919061559e565b61397e919061559e565b61398891906155c8565b9050600085838154811061399e5761399e61562c565b90600052602060002090600602016001015490508181106139ca576139c382826155ea565b90506139cf565b600091505b6139d981866155b5565b94506139e582856155b5565b935060008684815481106139fb576139fb61562c565b60009182526020909120600690910201600401805460ff191691151591909117905550505b600101613905565b508115613aa65760005460405163a9059cbb60e01b81526001600160a01b039091169063a9059cbb90613a6190889086906004016152ff565b6020604051808303816000875af1158015613a80573d6000803e3d6000fd5b505050506040513d601f19601f82011682018060405250810190613aa4919061556b565b505b8015613add576001600160a01b0385166000908152600f602052604081206006018054839290613ad79084906155b5565b90915550505b6001600160a01b038086166000908152600f6020526040902060058101805460ff198116909155905460ff9091169116818015613b2257506001600160a01b03811615155b8015613b4857506001600160a01b0381166000908152600f602052604090206001015415155b15613b7a576001600160a01b0381166000908152600f60205260408120600101805491613b74836156a3565b91905055505b866001600160a01b03166000805160206157b38339815191528585604051613ba3929190615142565b60405180910390a285546040519081526001600160a01b038816907f920bb94eb3842a728db98228c375ff6b00c5bc5a54fac6736155517a0a20a61a9060200160405180910390a250505050505050565b6000806127108310613c0c5750600992602d92509050565b6113888310613c215750600892602892509050565b6107d08310613c365750600792602392509050565b6103e88310613c4b5750600692601e92509050565b6101f48310613c605750600592601992509050565b60c88310613c745750600492601492509050565b60648310613c885750600392600f92509050565b60328310613c9c5750600292600a92509050565b60148310613cb05750600192600592509050565b506000928392509050565b6001600160a01b038084166000908152600f602052604081205490911690805b6001600160a01b03831615801590613cf35750601481105b15613f11576001600160a01b0383166000908152600f602052604090206005015460ff16613d4b576001600160a01b039283166000908152600f60205260409020549092169180613d4381615671565b915050613cdb565b6001600160a01b038316600090815260106020526040902060018101541580613d785750600381015460ff165b15613dae576001600160a01b039384166000908152600f60205260409020549093169281613da581615671565b92505050613cdb565b6001600160a01b0384166000908152600f6020526040812060020154613dd390611750565b91505083811115613ed0576000613dea85836155ea565b60018401549091508890811115613e02575060018301545b60006064613e10848461559e565b613e1a91906155c8565b60008a8152601c60209081526040808320815180830183526001600160a01b038e81168083528286018881528454600180820187559589528789209451600291820290950180546001600160a01b03191695909416949094178355519190930155818552600f9093529281902090910154905192935090918b917fcf2f68cc66431465b13b971ea50f7d9d3c6b29a6d132d354cc3c9cf9585ab59f91613ec1918691615142565b60405180910390a38396505050505b602d8110613edf575050613f11565b6001600160a01b039485166000908152600f60205260409020549094169382613f0781615671565b9350505050613cdb565b505050505050565b6001600160a01b03811660009081526010602052604081209080613f3c84614c58565b118015613f4e5750600382015460ff16155b6001600160a01b0384166000908152600f602052604090206005015490915060ff1680151582151503613f815750505050565b6001600160a01b038481166000908152600f6020526040902060058101805460ff1916851515179055541680613fb8575050505050565b8215613ffa576001600160a01b0381166000908152600f60205260408120600101805491613fe583615671565b9190505550613ff5856001614cea565b614053565b6001600160a01b0381166000908152600f602052604090206001015415614053576001600160a01b0381166000908152600f60205260408120600101805491614042836156a3565b919050555061405385600019614cea565b5050505050565b306001600160a01b037f00000000000000000000000000000000000000000000000000000000000000001614806140e157507f00000000000000000000000000000000000000000000000000000000000000006001600160a01b03166140d5600080516020615753833981519152546001600160a01b031690565b6001600160a01b031614155b1561174e5760405163703e46dd60e11b815260040160405180910390fd5b613881613884565b816001600160a01b03166352d1902d6040518163ffffffff1660e01b8152600401602060405180830381865afa925050508015614161575060408051601f3d908101601f1916820190925261415e918101906155fd565b60015b6141805781604051634c9c8ce360e01b8152600401612a599190615115565b60008051602061575383398151915281146141b157604051632a87526960e21b815260048101829052602401612a59565b61140c8383614e1e565b306001600160a01b037f0000000000000000000000000000000000000000000000000000000000000000161461174e5760405163703e46dd60e11b815260040160405180910390fd5b6001600160a01b0381166000908152601060205260409020600181015415806142315750600381015460ff165b1561423a575050565b600061424583614c58565b111561424f575050565b601454816002015461426191906155b5565b421161426b575050565b805460018201546001600160a01b038085166000908152600f60205260409020805460059091015491169060ff1680156142ad57506001600160a01b03811615155b80156142d357506001600160a01b0381166000908152600f602052604090206001015415155b15614305576001600160a01b0381166000908152600f602052604081206001018054916142ff836156a3565b91905055505b6001600160a01b0385166000908152600f6020526040812060058101805460ff1990811690915560038083018490556004909201839055828755600187018390556002870192909255850180549091169055821561439157600083815260136020526040812061437491615027565b6000838152601b6020526040902080546001600160a01b03191690555b846001600160a01b03167f57025f0027038907eda728b59164fb63d06048f42e618a35267e6a12e49b2e4684846040516143cc929190615142565b60405180910390a25050505050565b6001600160a01b0383166000908152600f6020908152604080832060109092528220600582015460ff1615806144155750600381015460ff165b8061442257506001810154155b156144325760009250505061456d565b60008260030154836004015461444891906155ea565b9050858181111561448857819050876001600160a01b0316600080516020615773833981519152888460405161447f929190615142565b60405180910390a25b801561454f57808460030160008282546144a291906155b5565b909155505060005460405163a9059cbb60e01b81526001600160a01b039091169063a9059cbb906144d9908b9085906004016152ff565b6020604051808303816000875af11580156144f8573d6000803e3d6000fd5b505050506040513d601f19601f8201168201806040525081019061451c919061556b565b50876001600160a01b03166000805160206157938339815191528288604051614546929190615642565b60405180910390a25b836004015484600301541061456757614567886138b6565b93505050505b9392505050565b6001600160a01b038083166000908152600f60205260408120549091169080808060646145a287600161559e565b6145ac91906155c8565b90505b6001600160a01b038516158015906145c75750600f83105b80156145d35750601482105b15614709576001600160a01b0385166000908152600f602052604090206005015460ff1661462b576001600160a01b039485166000908152600f6020526040902054909416938161462381615671565b9250506145af565b6001600160a01b0385166000908152600f6020526040812060010154614650906110a6565b9050838111156146ca576000614668878460036143db565b905080156146c85761467a81876155b5565b6001600160a01b03808b16600081815260106020526040908190205490519399509092918a16916000805160206156f3833981519152916146bf91869160039161568a565b60405180910390a35b505b6001600160a01b039586166000908152600f602052604090205490951694836146f281615671565b945050828061470090615671565b935050506145af565b600060646007548861471b919061559e565b61472591906155c8565b9050600061473386836155ea565b905080156117445780601e600082825461474d91906155b5565b9091555050601e546040517fca2e2bff26d2adb9fe155e9265350494c16751676879cb7ced9141e0fcf393439161478691849190615142565b60405180910390a1505050505050505050565b806000036147a45750565b60165415806147b35750601754155b156147bb5750565b806016546147c991906155b5565b6000546040516370a0823160e01b81526001600160a01b03909116906370a08231906147f9903090600401615115565b602060405180830381865afa158015614816573d6000803e3d6000fd5b505050506040513d601f19601f8201168201806040525081019061483a91906155fd565b10156148435750565b600060175482614853919061559e565b905060008260165461486591906155b5565b9050600061487382846155c8565b9050801580614883575060175481115b1561488e5750505050565b6017546001546040516370a0823160e01b81526001600160a01b03909116906370a08231906148c1903090600401615115565b602060405180830381865afa1580156148de573d6000803e3d6000fd5b505050506040513d601f19601f8201168201806040525081019061490291906155fd565b101561490e5750505050565b836016600082825461492091906155b5565b92505081905550806017600082825461493991906155ea565b9091555050600154604051630852cd8d60e31b8152600481018390526001600160a01b03909116906342966c6890602401600060405180830381600087803b15801561498457600080fd5b505af1158015614998573d6000803e3d6000fd5b505050507f0ec3929061cbbbeecb325623e7d5a86c3dae11cb8a22ca45dc0972955657da2584826040516125d3929190615142565b60006149d7614a29565b80546001600160a01b038481166001600160a01b031983168117845560405193945091169182907f8be0079c531659141344cd1fd0a4f28419497f9722a3daafe3b4186f6b6457e090600090a3505050565b7f9016d09d72d40fdae2fd8ceac6b6234c7706214fd39c1cd1e609a0528c19930090565b6000818152601d6020908152604080832054601c835281842080548351818602810186019094528084526001600160a01b039092169493909190849084015b82821015614ad4576000848152602090819020604080518082019091526002850290910180546001600160a01b03168252600190810154828401529083529092019101614a8c565b50505050905060005b8151811015614bfc576000614b2e838381518110614afd57614afd61562c565b602002602001015160000151848481518110614b1b57614b1b61562c565b60200260200101516020015160046143db565b90508015614b9257836001600160a01b0316838381518110614b5257614b5261562c565b6020026020010151600001516001600160a01b03166000805160206156f383398151915283600489604051614b899392919061568a565b60405180910390a35b828281518110614ba457614ba461562c565b6020026020010151600001516001600160a01b0316857fae629b396150638d6eb6de457cbffe5d618a10c8cc199a94976bed2b16ecd99383604051614beb91815260200190565b60405180910390a350600101614add565b506000838152601c6020526040812061140c91615027565b6000807ff0c57e16840df040f15088dc2f81fe391c3923bec73e23a9662efc9c229c6a005b92915050565b614c47614e74565b61388181614e99565b61174e614e74565b6001600160a01b0381166000908152601160205260408120815b8154811015614ce357818181548110614c8d57614c8d61562c565b600091825260209091206004600690920201015460ff1615614cdb57818181548110614cbb57614cbb61562c565b90600052602060002090600602016001015483614cd891906155b5565b92505b600101614c72565b5050919050565b6001600160a01b0382161580614cfe575080155b15614d07575050565b6001600160a01b038083166000908152600f6020526040812054909116905b6001600160a01b03821615801590614d3e5750601481105b15611b29576001600160a01b0382166000908152600f60205260408120600201549080851315614d7957614d7285836155b5565b9050614da6565b6000614d84866156ba565b905082811115614d975760009150614da4565b614da181846155ea565b91505b505b6001600160a01b0384166000818152600f6020526040908190206002018390555160008051602061573383398151915290614de49085908590615142565b60405180910390a26001600160a01b039384166000908152600f60205260409020549093169282614e1481615671565b9350505050614d26565b614e2782614ea1565b6040516001600160a01b038316907fbc7cd75a20ee27fd9adebab32041f755214dbc6bffa90cc0225b39da2e5c2d3b90600090a2805115614e6c5761140c8282614efd565b611b4a614f73565b614e7c614f92565b61174e57604051631afcd79f60e31b815260040160405180910390fd5b61384e614e74565b806001600160a01b03163b600003614ece5780604051634c9c8ce360e01b8152600401612a599190615115565b60008051602061575383398151915280546001600160a01b0319166001600160a01b0392909216919091179055565b6060600080846001600160a01b031684604051614f1a91906156d6565b600060405180830381855af49150503d8060008114614f55576040519150601f19603f3d011682016040523d82523d6000602084013e614f5a565b606091505b5091509150614f6a858383614fac565b95945050505050565b341561174e5760405163b398979f60e01b815260040160405180910390fd5b6000614f9c614c14565b54600160401b900460ff16919050565b606082614fc157614fbc82614fff565b61456d565b8151158015614fd857506001600160a01b0384163b155b15614ff85783604051639996b31560e01b8152600401612a599190615115565b508061456d565b80511561500e57805160208201fd5b60405163d6bda27560e01b815260040160405180910390fd5b508054600082556002029060005260206000209081019061388191905b808211156150695780546001600160a01b031916815560006001820155600201615044565b5090565b801515811461388157600080fd5b6000806040838503121561508e57600080fd5b82356150998161506d565b915060208301356150a98161506d565b809150509250929050565b80356001600160a01b03811681146150cb57600080fd5b919050565b6000602082840312156150e257600080fd5b61456d826150b4565b600080604083850312156150fe57600080fd5b615107836150b4565b946020939093013593505050565b6001600160a01b0391909116815260200190565b60006020828403121561513b57600080fd5b5035919050565b918252602082015260400190565b6000806040838503121561516357600080fd5b50508035926020909101359150565b634e487b7160e01b600052604160045260246000fd5b6000806040838503121561519b57600080fd5b6151a4836150b4565b915060208301356001600160401b03808211156151c057600080fd5b818501915085601f8301126151d457600080fd5b8135818111156151e6576151e6615172565b604051601f8201601f19908116603f0116810190838211818310171561520e5761520e615172565b8160405282815288602084870101111561522757600080fd5b8260208601602083013760006020848301015280955050505050509250929050565b60008083601f84011261525b57600080fd5b5081356001600160401b0381111561527257600080fd5b6020830191508360208260051b850101111561528d57600080fd5b9250929050565b600080600080604085870312156152aa57600080fd5b84356001600160401b03808211156152c157600080fd5b6152cd88838901615249565b909650945060208701359150808211156152e657600080fd5b506152f387828801615249565b95989497509550505050565b6001600160a01b03929092168252602082015260400190565b6000806000806080858703121561532e57600080fd5b615337856150b4565b9350615345602086016150b4565b9250615353604086016150b4565b9150615361606086016150b4565b905092959194509250565b60005b8381101561538757818101518382015260200161536f565b50506000910152565b60208152600082518060208401526153af81604085016020870161536c565b601f01601f19169190910160400192915050565b60008060008060008060c087890312156153dc57600080fd5b6153e5876150b4565b95506153f3602088016150b4565b9450615401604088016150b4565b935061540f606088016150b4565b925061541d608088016150b4565b915061542b60a088016150b4565b90509295509295509295565b60008060006060848603121561544c57600080fd5b615455846150b4565b9250615463602085016150b4565b9150604084013590509250925092565b60008060008060008060c0878903121561548c57600080fd5b505084359660208601359650604086013595606081013595506080810135945060a0013592509050565b6020808252825182820181905260009190848201906040850190845b818110156154f75783516001600160a01b0316835292840192918401916001016154d2565b50909695505050505050565b6000806000806080858703121561551957600080fd5b615522856150b4565b935060208501359250615537604086016150b4565b9396929550929360600135925050565b6001600160a01b039384168152919092166020820152604081019190915260600190565b60006020828403121561557d57600080fd5b815161456d8161506d565b634e487b7160e01b600052601160045260246000fd5b8082028115828204841417614c3957614c39615588565b80820180821115614c3957614c39615588565b6000826155e557634e487b7160e01b600052601260045260246000fd5b500490565b81810381811115614c3957614c39615588565b60006020828403121561560f57600080fd5b5051919050565b9283526020830191909152604082015260600190565b634e487b7160e01b600052603260045260246000fd5b91825260ff16602082015260400190565b938452602084019290925260ff166040830152606082015260800190565b60006001820161568357615683615588565b5060010190565b92835260ff919091166020830152604082015260600190565b6000816156b2576156b2615588565b506000190190565b6000600160ff1b82016156cf576156cf615588565b5060000390565b600082516156e881846020870161536c565b919091019291505056fe9b3cc71482a1b2eebe764a739f46f1fe99291fd0183be81951532b29d0c9c8da6fcebd0a2ce98b28cb391d6008bbc769378c9a4919628e11639cb575cd320fcca0eea20e678cb42233c1c456c84cedce7ea53fa360bb71bf3b761b7609567770360894a13ba1a3210667c828492db98dca3e2076cc3735a920a3ca505d382bbcb5987aab1afd379f6695f1068869ee8ca6a0d02304c57935a9cc3d3ea2e51e4df381583145e90b82cc5e529bf4fc4d0e44397174cdf145c4251ac33ef195a424f3a670cd3af7d64b488926880889d08a8585a138ff455227af6737339a1ec262a2646970667358221220e74edacfb476a4b12382bdff3d6a9f7f629e97d70f7b62bdb596038671551ed564736f6c63430008160033","opcodes":"PUSH1 0xA0 PUSH1 0x40 MSTORE ADDRESS PUSH1 0x80 MSTORE CALLVALUE DUP1 ISZERO PUSH3 0x15 JUMPI PUSH1 0x0 DUP1 REVERT JUMPDEST POP PUSH3 0x20 PUSH3 0x26 JUMP JUMPDEST PUSH3 0xDA JUMP JUMPDEST PUSH32 0xF0C57E16840DF040F15088DC2F81FE391C3923BEC73E23A9662EFC9C229C6A00 DUP1 SLOAD PUSH9 0x10000000000000000 SWAP1 DIV PUSH1 0xFF AND ISZERO PUSH3 0x77 JUMPI PUSH1 0x40 MLOAD PUSH4 0xF92EE8A9 PUSH1 0xE0 SHL DUP2 MSTORE PUSH1 0x4 ADD PUSH1 0x40 MLOAD DUP1 SWAP2 SUB SWAP1 REVERT JUMPDEST DUP1 SLOAD PUSH1 0x1 PUSH1 0x1 PUSH1 0x40 SHL SUB SWAP1 DUP2 AND EQ PUSH3 0xD7 JUMPI DUP1 SLOAD PUSH1 0x1 PUSH1 0x1 PUSH1 0x40 SHL SUB NOT AND PUSH1 0x1 PUSH1 0x1 PUSH1 0x40 SHL SUB SWAP1 DUP2 OR DUP3 SSTORE PUSH1 0x40 MLOAD SWAP1 DUP2 MSTORE PUSH32 0xC7F505B2F371AE2175EE4913F4499E1F2633A7B5936321EED1CDAEB6115181D2 SWAP1 PUSH1 0x20 ADD PUSH1 0x40 MLOAD DUP1 SWAP2 SUB SWAP1 LOG1 JUMPDEST POP JUMP JUMPDEST PUSH1 0x80 MLOAD PUSH2 0x5808 PUSH3 0x104 PUSH1 0x0 CODECOPY PUSH1 0x0 DUP2 DUP2 PUSH2 0x4065 ADD MSTORE DUP2 DUP2 PUSH2 0x408E ADD MSTORE PUSH2 0x41C6 ADD MSTORE PUSH2 0x5808 PUSH1 0x0 RETURN INVALID PUSH1 0x80 PUSH1 0x40 MSTORE PUSH1 0x4 CALLDATASIZE LT PUSH2 0x2F4 JUMPI PUSH1 0x0 CALLDATALOAD PUSH1 0xE0 SHR DUP1 PUSH4 0x1D62EFB EQ PUSH2 0x2F9 JUMPI DUP1 PUSH4 0x4EF9D58 EQ PUSH2 0x31B JUMPI DUP1 PUSH4 0x4F618CB EQ PUSH2 0x344 JUMPI DUP1 PUSH4 0x5AD3935 EQ PUSH2 0x364 JUMPI DUP1 PUSH4 0xA5C4567 EQ PUSH2 0x391 JUMPI DUP1 PUSH4 0xE2BE210 EQ PUSH2 0x3B1 JUMPI DUP1 PUSH4 0x1427F616 EQ PUSH2 0x3D8 JUMPI DUP1 PUSH4 0x1788513C EQ PUSH2 0x3ED JUMPI DUP1 PUSH4 0x182C84CC EQ PUSH2 0x40D JUMPI DUP1 PUSH4 0x1959A002 EQ PUSH2 0x42D JUMPI DUP1 PUSH4 0x1D0DAC76 EQ PUSH2 0x50C JUMPI DUP1 PUSH4 0x27F082F4 EQ PUSH2 0x522 JUMPI DUP1 PUSH4 0x372500AB EQ PUSH2 0x538 JUMPI DUP1 PUSH4 0x3DBD46BD EQ PUSH2 0x54D JUMPI DUP1 PUSH4 0x4626402B EQ PUSH2 0x583 JUMPI DUP1 PUSH4 0x47194001 EQ PUSH2 0x5A3 JUMPI DUP1 PUSH4 0x488B5D97 EQ PUSH2 0x5D1 JUMPI DUP1 PUSH4 0x4EA4C6B3 EQ PUSH2 0x5E6 JUMPI DUP1 PUSH4 0x4F1EF286 EQ PUSH2 0x606 JUMPI DUP1 PUSH4 0x52778B05 EQ PUSH2 0x619 JUMPI DUP1 PUSH4 0x52D1902D EQ PUSH2 0x639 JUMPI DUP1 PUSH4 0x6031A52F EQ PUSH2 0x64E JUMPI DUP1 PUSH4 0x67DD74CA EQ PUSH2 0x664 JUMPI DUP1 PUSH4 0x6DD66827 EQ PUSH2 0x684 JUMPI DUP1 PUSH4 0x715018A6 EQ PUSH2 0x69A JUMPI DUP1 PUSH4 0x74B0EECF EQ PUSH2 0x6AF JUMPI DUP1 PUSH4 0x75506C96 EQ PUSH2 0x6CF JUMPI DUP1 PUSH4 0x75F0A874 EQ PUSH2 0x6E5 JUMPI DUP1 PUSH4 0x77A2A540 EQ PUSH2 0x705 JUMPI DUP1 PUSH4 0x813380CD EQ PUSH2 0x71B JUMPI DUP1 PUSH4 0x83672F3E EQ PUSH2 0x749 JUMPI DUP1 PUSH4 0x86481D40 EQ PUSH2 0x5A3 JUMPI DUP1 PUSH4 0x8710BCAA EQ PUSH2 0x769 JUMPI DUP1 PUSH4 0x88481B61 EQ PUSH2 0x7D0 JUMPI DUP1 PUSH4 0x88FD4D33 EQ PUSH2 0x7E5 JUMPI DUP1 PUSH4 0x8A859A85 EQ PUSH2 0x805 JUMPI DUP1 PUSH4 0x8C0EAA48 EQ PUSH2 0x81A JUMPI DUP1 PUSH4 0x8DA5CB5B EQ PUSH2 0x82F JUMPI DUP1 PUSH4 0x90B0EB51 EQ PUSH2 0x844 JUMPI DUP1 PUSH4 0x9370B080 EQ PUSH2 0x864 JUMPI DUP1 PUSH4 0x95253992 EQ PUSH2 0x87A JUMPI DUP1 PUSH4 0x99B6024D EQ PUSH2 0x89A JUMPI DUP1 PUSH4 0x9CD441DA EQ PUSH2 0x8BA JUMPI DUP1 PUSH4 0x9D99ECA4 EQ PUSH2 0x8DA JUMPI DUP1 PUSH4 0xAC8F50AA EQ PUSH2 0x8FA JUMPI DUP1 PUSH4 0xAD3CB1CC EQ PUSH2 0x91A JUMPI DUP1 PUSH4 0xB048A4BB EQ PUSH2 0x958 JUMPI DUP1 PUSH4 0xB5D5B5FA EQ PUSH2 0x982 JUMPI DUP1 PUSH4 0xB759936B EQ PUSH2 0x9D1 JUMPI DUP1 PUSH4 0xBD594DCF EQ PUSH2 0x9E7 JUMPI DUP1 PUSH4 0xBE040FB0 EQ PUSH2 0x9FD JUMPI DUP1 PUSH4 0xC2FF12FC EQ PUSH2 0xA12 JUMPI DUP1 PUSH4 0xCC2A9A5B EQ PUSH2 0xA48 JUMPI DUP1 PUSH4 0xCCF61944 EQ PUSH2 0xA68 JUMPI DUP1 PUSH4 0xCEA9D26F EQ PUSH2 0xA7E JUMPI DUP1 PUSH4 0xCEAA366D EQ PUSH2 0xA9E JUMPI DUP1 PUSH4 0xD0F16470 EQ PUSH2 0xAB4 JUMPI DUP1 PUSH4 0xD2C8E0E5 EQ PUSH2 0xAD4 JUMPI DUP1 PUSH4 0xD2F82536 EQ PUSH2 0xB01 JUMPI DUP1 PUSH4 0xD4F00142 EQ PUSH2 0xB20 JUMPI DUP1 PUSH4 0xD8020A18 EQ PUSH2 0xB40 JUMPI DUP1 PUSH4 0xDEAB8AEA EQ PUSH2 0xB56 JUMPI DUP1 PUSH4 0xDEC7FA3B EQ PUSH2 0xB76 JUMPI DUP1 PUSH4 0xE3067449 EQ PUSH2 0xB8C JUMPI DUP1 PUSH4 0xE4412F68 EQ PUSH2 0xBA2 JUMPI DUP1 PUSH4 0xECE71266 EQ PUSH2 0xBB8 JUMPI DUP1 PUSH4 0xF2FDE38B EQ PUSH2 0xBD8 JUMPI JUMPDEST PUSH1 0x0 DUP1 REVERT JUMPDEST CALLVALUE DUP1 ISZERO PUSH2 0x305 JUMPI PUSH1 0x0 DUP1 REVERT JUMPDEST POP PUSH2 0x319 PUSH2 0x314 CALLDATASIZE PUSH1 0x4 PUSH2 0x507B JUMP JUMPDEST PUSH2 0xBF8 JUMP JUMPDEST STOP JUMPDEST CALLVALUE DUP1 ISZERO PUSH2 0x327 JUMPI PUSH1 0x0 DUP1 REVERT JUMPDEST POP PUSH2 0x331 PUSH1 0xB SLOAD DUP2 JUMP JUMPDEST PUSH1 0x40 MLOAD SWAP1 DUP2 MSTORE PUSH1 0x20 ADD JUMPDEST PUSH1 0x40 MLOAD DUP1 SWAP2 SUB SWAP1 RETURN JUMPDEST CALLVALUE DUP1 ISZERO PUSH2 0x350 JUMPI PUSH1 0x0 DUP1 REVERT JUMPDEST POP PUSH2 0x319 PUSH2 0x35F CALLDATASIZE PUSH1 0x4 PUSH2 0x50D0 JUMP JUMPDEST PUSH2 0xC8E JUMP JUMPDEST CALLVALUE DUP1 ISZERO PUSH2 0x370 JUMPI PUSH1 0x0 DUP1 REVERT JUMPDEST POP PUSH2 0x384 PUSH2 0x37F CALLDATASIZE PUSH1 0x4 PUSH2 0x50EB JUMP JUMPDEST PUSH2 0xD93 JUMP JUMPDEST PUSH1 0x40 MLOAD PUSH2 0x33B SWAP2 SWAP1 PUSH2 0x5115 JUMP JUMPDEST CALLVALUE DUP1 ISZERO PUSH2 0x39D JUMPI PUSH1 0x0 DUP1 REVERT JUMPDEST POP PUSH2 0x319 PUSH2 0x3AC CALLDATASIZE PUSH1 0x4 PUSH2 0x5129 JUMP JUMPDEST PUSH2 0xDCB JUMP JUMPDEST CALLVALUE DUP1 ISZERO PUSH2 0x3BD JUMPI PUSH1 0x0 DUP1 REVERT JUMPDEST POP PUSH2 0x3C6 PUSH1 0x2 DUP2 JUMP JUMPDEST PUSH1 0x40 MLOAD PUSH1 0xFF SWAP1 SWAP2 AND DUP2 MSTORE PUSH1 0x20 ADD PUSH2 0x33B JUMP JUMPDEST CALLVALUE DUP1 ISZERO PUSH2 0x3E4 JUMPI PUSH1 0x0 DUP1 REVERT JUMPDEST POP PUSH2 0x3C6 PUSH1 0x0 DUP2 JUMP JUMPDEST CALLVALUE DUP1 ISZERO PUSH2 0x3F9 JUMPI PUSH1 0x0 DUP1 REVERT JUMPDEST POP PUSH1 0x1 SLOAD PUSH2 0x384 SWAP1 PUSH1 0x1 PUSH1 0x1 PUSH1 0xA0 SHL SUB AND DUP2 JUMP JUMPDEST CALLVALUE DUP1 ISZERO PUSH2 0x419 JUMPI PUSH1 0x0 DUP1 REVERT JUMPDEST POP PUSH2 0x331 PUSH2 0x428 CALLDATASIZE PUSH1 0x4 PUSH2 0x5129 JUMP JUMPDEST PUSH2 0x10A6 JUMP JUMPDEST CALLVALUE DUP1 ISZERO PUSH2 0x439 JUMPI PUSH1 0x0 DUP1 REVERT JUMPDEST POP PUSH2 0x4AF PUSH2 0x448 CALLDATASIZE PUSH1 0x4 PUSH2 0x50D0 JUMP JUMPDEST PUSH1 0xF PUSH1 0x20 MSTORE PUSH1 0x0 SWAP1 DUP2 MSTORE PUSH1 0x40 SWAP1 KECCAK256 DUP1 SLOAD PUSH1 0x1 DUP3 ADD SLOAD PUSH1 0x2 DUP4 ADD SLOAD PUSH1 0x3 DUP5 ADD SLOAD PUSH1 0x4 DUP6 ADD SLOAD PUSH1 0x5 DUP7 ADD SLOAD PUSH1 0x6 DUP8 ADD SLOAD PUSH1 0x7 DUP9 ADD SLOAD PUSH1 0x8 DUP10 ADD SLOAD PUSH1 0x9 DUP11 ADD SLOAD PUSH1 0xA SWAP1 SWAP11 ADD SLOAD PUSH1 0x1 PUSH1 0x1 PUSH1 0xA0 SHL SUB SWAP1 SWAP10 AND SWAP10 SWAP8 SWAP9 SWAP7 SWAP8 SWAP6 SWAP7 SWAP5 SWAP6 PUSH1 0xFF SWAP1 SWAP5 AND SWAP5 SWAP3 SWAP4 SWAP2 SWAP3 SWAP1 SWAP2 SWAP1 DUP12 JUMP JUMPDEST PUSH1 0x40 DUP1 MLOAD PUSH1 0x1 PUSH1 0x1 PUSH1 0xA0 SHL SUB SWAP1 SWAP13 AND DUP13 MSTORE PUSH1 0x20 DUP13 ADD SWAP11 SWAP1 SWAP11 MSTORE SWAP9 DUP11 ADD SWAP8 SWAP1 SWAP8 MSTORE PUSH1 0x60 DUP10 ADD SWAP6 SWAP1 SWAP6 MSTORE PUSH1 0x80 DUP9 ADD SWAP4 SWAP1 SWAP4 MSTORE SWAP1 ISZERO ISZERO PUSH1 0xA0 DUP8 ADD MSTORE PUSH1 0xC0 DUP7 ADD MSTORE PUSH1 0xE0 DUP6 ADD MSTORE PUSH2 0x100 DUP5 ADD MSTORE PUSH2 0x120 DUP4 ADD MSTORE PUSH2 0x140 DUP3 ADD MSTORE PUSH2 0x160 ADD PUSH2 0x33B JUMP JUMPDEST CALLVALUE DUP1 ISZERO PUSH2 0x518 JUMPI PUSH1 0x0 DUP1 REVERT JUMPDEST POP PUSH2 0x331 PUSH1 0x17 SLOAD DUP2 JUMP JUMPDEST CALLVALUE DUP1 ISZERO PUSH2 0x52E JUMPI PUSH1 0x0 DUP1 REVERT JUMPDEST POP PUSH2 0x331 PUSH1 0xD SLOAD DUP2 JUMP JUMPDEST CALLVALUE DUP1 ISZERO PUSH2 0x544 JUMPI PUSH1 0x0 DUP1 REVERT JUMPDEST POP PUSH2 0x319 PUSH2 0x10E0 JUMP JUMPDEST CALLVALUE DUP1 ISZERO PUSH2 0x559 JUMPI PUSH1 0x0 DUP1 REVERT JUMPDEST POP PUSH2 0x384 PUSH2 0x568 CALLDATASIZE PUSH1 0x4 PUSH2 0x5129 JUMP JUMPDEST PUSH1 0x1D PUSH1 0x20 MSTORE PUSH1 0x0 SWAP1 DUP2 MSTORE PUSH1 0x40 SWAP1 KECCAK256 SLOAD PUSH1 0x1 PUSH1 0x1 PUSH1 0xA0 SHL SUB AND DUP2 JUMP JUMPDEST CALLVALUE DUP1 ISZERO PUSH2 0x58F JUMPI PUSH1 0x0 DUP1 REVERT JUMPDEST POP PUSH1 0x3 SLOAD PUSH2 0x384 SWAP1 PUSH1 0x1 PUSH1 0x1 PUSH1 0xA0 SHL SUB AND DUP2 JUMP JUMPDEST CALLVALUE DUP1 ISZERO PUSH2 0x5AF JUMPI PUSH1 0x0 DUP1 REVERT JUMPDEST POP PUSH2 0x5C3 PUSH2 0x5BE CALLDATASIZE PUSH1 0x4 PUSH2 0x5129 JUMP JUMPDEST PUSH2 0x1750 JUMP JUMPDEST PUSH1 0x40 MLOAD PUSH2 0x33B SWAP3 SWAP2 SWAP1 PUSH2 0x5142 JUMP JUMPDEST CALLVALUE DUP1 ISZERO PUSH2 0x5DD JUMPI PUSH1 0x0 DUP1 REVERT JUMPDEST POP PUSH2 0x331 PUSH1 0x3C DUP2 JUMP JUMPDEST CALLVALUE DUP1 ISZERO PUSH2 0x5F2 JUMPI PUSH1 0x0 DUP1 REVERT JUMPDEST POP PUSH2 0x319 PUSH2 0x601 CALLDATASIZE PUSH1 0x4 PUSH2 0x5150 JUMP JUMPDEST PUSH2 0x1765 JUMP JUMPDEST PUSH2 0x319 PUSH2 0x614 CALLDATASIZE PUSH1 0x4 PUSH2 0x5188 JUMP JUMPDEST PUSH2 0x1B2F JUMP JUMPDEST CALLVALUE DUP1 ISZERO PUSH2 0x625 JUMPI PUSH1 0x0 DUP1 REVERT JUMPDEST POP PUSH2 0x319 PUSH2 0x634 CALLDATASIZE PUSH1 0x4 PUSH2 0x5129 JUMP JUMPDEST PUSH2 0x1B4E JUMP JUMPDEST CALLVALUE DUP1 ISZERO PUSH2 0x645 JUMPI PUSH1 0x0 DUP1 REVERT JUMPDEST POP PUSH2 0x331 PUSH2 0x1E18 JUMP JUMPDEST CALLVALUE DUP1 ISZERO PUSH2 0x65A JUMPI PUSH1 0x0 DUP1 REVERT JUMPDEST POP PUSH2 0x331 PUSH1 0x18 SLOAD DUP2 JUMP JUMPDEST CALLVALUE DUP1 ISZERO PUSH2 0x670 JUMPI PUSH1 0x0 DUP1 REVERT JUMPDEST POP PUSH2 0x319 PUSH2 0x67F CALLDATASIZE PUSH1 0x4 PUSH2 0x5129 JUMP JUMPDEST PUSH2 0x1E35 JUMP JUMPDEST CALLVALUE DUP1 ISZERO PUSH2 0x690 JUMPI PUSH1 0x0 DUP1 REVERT JUMPDEST POP PUSH2 0x331 PUSH1 0x14 SLOAD DUP2 JUMP JUMPDEST CALLVALUE DUP1 ISZERO PUSH2 0x6A6 JUMPI PUSH1 0x0 DUP1 REVERT JUMPDEST POP PUSH2 0x319 PUSH2 0x2435 JUMP JUMPDEST CALLVALUE DUP1 ISZERO PUSH2 0x6BB JUMPI PUSH1 0x0 DUP1 REVERT JUMPDEST POP PUSH2 0x319 PUSH2 0x6CA CALLDATASIZE PUSH1 0x4 PUSH2 0x5294 JUMP JUMPDEST PUSH2 0x2447 JUMP JUMPDEST CALLVALUE DUP1 ISZERO PUSH2 0x6DB JUMPI PUSH1 0x0 DUP1 REVERT JUMPDEST POP PUSH2 0x331 PUSH1 0x19 SLOAD DUP2 JUMP JUMPDEST CALLVALUE DUP1 ISZERO PUSH2 0x6F1 JUMPI PUSH1 0x0 DUP1 REVERT JUMPDEST POP PUSH1 0x2 SLOAD PUSH2 0x384 SWAP1 PUSH1 0x1 PUSH1 0x1 PUSH1 0xA0 SHL SUB AND DUP2 JUMP JUMPDEST CALLVALUE DUP1 ISZERO PUSH2 0x711 JUMPI PUSH1 0x0 DUP1 REVERT JUMPDEST POP PUSH2 0x331 PUSH1 0x16 SLOAD DUP2 JUMP JUMPDEST CALLVALUE DUP1 ISZERO PUSH2 0x727 JUMPI PUSH1 0x0 DUP1 REVERT JUMPDEST POP PUSH2 0x73B PUSH2 0x736 CALLDATASIZE PUSH1 0x4 PUSH2 0x5150 JUMP JUMPDEST PUSH2 0x25E1 JUMP JUMPDEST PUSH1 0x40 MLOAD PUSH2 0x33B SWAP3 SWAP2 SWAP1 PUSH2 0x52FF JUMP JUMPDEST CALLVALUE DUP1 ISZERO PUSH2 0x755 JUMPI PUSH1 0x0 DUP1 REVERT JUMPDEST POP PUSH2 0x319 PUSH2 0x764 CALLDATASIZE PUSH1 0x4 PUSH2 0x5318 JUMP JUMPDEST PUSH2 0x2627 JUMP JUMPDEST CALLVALUE DUP1 ISZERO PUSH2 0x775 JUMPI PUSH1 0x0 DUP1 REVERT JUMPDEST POP PUSH2 0x7AE PUSH2 0x784 CALLDATASIZE PUSH1 0x4 PUSH2 0x50D0 JUMP JUMPDEST PUSH1 0x10 PUSH1 0x20 MSTORE PUSH1 0x0 SWAP1 DUP2 MSTORE PUSH1 0x40 SWAP1 KECCAK256 DUP1 SLOAD PUSH1 0x1 DUP3 ADD SLOAD PUSH1 0x2 DUP4 ADD SLOAD PUSH1 0x3 SWAP1 SWAP4 ADD SLOAD SWAP2 SWAP3 SWAP1 SWAP2 PUSH1 0xFF AND DUP5 JUMP JUMPDEST PUSH1 0x40 DUP1 MLOAD SWAP5 DUP6 MSTORE PUSH1 0x20 DUP6 ADD SWAP4 SWAP1 SWAP4 MSTORE SWAP2 DUP4 ADD MSTORE ISZERO ISZERO PUSH1 0x60 DUP3 ADD MSTORE PUSH1 0x80 ADD PUSH2 0x33B JUMP JUMPDEST CALLVALUE DUP1 ISZERO PUSH2 0x7DC JUMPI PUSH1 0x0 DUP1 REVERT JUMPDEST POP PUSH2 0x3C6 PUSH1 0x4 DUP2 JUMP JUMPDEST CALLVALUE DUP1 ISZERO PUSH2 0x7F1 JUMPI PUSH1 0x0 DUP1 REVERT JUMPDEST POP PUSH1 0x4 SLOAD PUSH2 0x384 SWAP1 PUSH1 0x1 PUSH1 0x1 PUSH1 0xA0 SHL SUB AND DUP2 JUMP JUMPDEST CALLVALUE DUP1 ISZERO PUSH2 0x811 JUMPI PUSH1 0x0 DUP1 REVERT JUMPDEST POP PUSH2 0x3C6 PUSH1 0x1 DUP2 JUMP JUMPDEST CALLVALUE DUP1 ISZERO PUSH2 0x826 JUMPI PUSH1 0x0 DUP1 REVERT JUMPDEST POP PUSH2 0x3C6 PUSH1 0x3 DUP2 JUMP JUMPDEST CALLVALUE DUP1 ISZERO PUSH2 0x83B JUMPI PUSH1 0x0 DUP1 REVERT JUMPDEST POP PUSH2 0x384 PUSH2 0x26C1 JUMP JUMPDEST CALLVALUE DUP1 ISZERO PUSH2 0x850 JUMPI PUSH1 0x0 DUP1 REVERT JUMPDEST POP PUSH2 0x319 PUSH2 0x85F CALLDATASIZE PUSH1 0x4 PUSH2 0x5150 JUMP JUMPDEST PUSH2 0x26DC JUMP JUMPDEST CALLVALUE DUP1 ISZERO PUSH2 0x870 JUMPI PUSH1 0x0 DUP1 REVERT JUMPDEST POP PUSH2 0x331 PUSH1 0xE SLOAD DUP2 JUMP JUMPDEST CALLVALUE DUP1 ISZERO PUSH2 0x886 JUMPI PUSH1 0x0 DUP1 REVERT JUMPDEST POP PUSH1 0x0 SLOAD PUSH2 0x384 SWAP1 PUSH1 0x1 PUSH1 0x1 PUSH1 0xA0 SHL SUB AND DUP2 JUMP JUMPDEST CALLVALUE DUP1 ISZERO PUSH2 0x8A6 JUMPI PUSH1 0x0 DUP1 REVERT JUMPDEST POP PUSH2 0x319 PUSH2 0x8B5 CALLDATASIZE PUSH1 0x4 PUSH2 0x50EB JUMP JUMPDEST PUSH2 0x2720 JUMP JUMPDEST CALLVALUE DUP1 ISZERO PUSH2 0x8C6 JUMPI PUSH1 0x0 DUP1 REVERT JUMPDEST POP PUSH2 0x319 PUSH2 0x8D5 CALLDATASIZE PUSH1 0x4 PUSH2 0x5150 JUMP JUMPDEST PUSH2 0x27FC JUMP JUMPDEST CALLVALUE DUP1 ISZERO PUSH2 0x8E6 JUMPI PUSH1 0x0 DUP1 REVERT JUMPDEST POP PUSH2 0x319 PUSH2 0x8F5 CALLDATASIZE PUSH1 0x4 PUSH2 0x5129 JUMP JUMPDEST PUSH2 0x2961 JUMP JUMPDEST CALLVALUE DUP1 ISZERO PUSH2 0x906 JUMPI PUSH1 0x0 DUP1 REVERT JUMPDEST POP PUSH2 0x73B PUSH2 0x915 CALLDATASIZE PUSH1 0x4 PUSH2 0x5150 JUMP JUMPDEST PUSH2 0x29A5 JUMP JUMPDEST CALLVALUE DUP1 ISZERO PUSH2 0x926 JUMPI PUSH1 0x0 DUP1 REVERT JUMPDEST POP PUSH2 0x94B PUSH1 0x40 MLOAD DUP1 PUSH1 0x40 ADD PUSH1 0x40 MSTORE DUP1 PUSH1 0x5 DUP2 MSTORE PUSH1 0x20 ADD PUSH5 0x352E302E3 PUSH1 0xDC SHL DUP2 MSTORE POP DUP2 JUMP JUMPDEST PUSH1 0x40 MLOAD PUSH2 0x33B SWAP2 SWAP1 PUSH2 0x5390 JUMP JUMPDEST CALLVALUE DUP1 ISZERO PUSH2 0x964 JUMPI PUSH1 0x0 DUP1 REVERT JUMPDEST POP PUSH1 0x15 SLOAD PUSH2 0x972 SWAP1 PUSH1 0xFF AND DUP2 JUMP JUMPDEST PUSH1 0x40 MLOAD SWAP1 ISZERO ISZERO DUP2 MSTORE PUSH1 0x20 ADD PUSH2 0x33B JUMP JUMPDEST CALLVALUE DUP1 ISZERO PUSH2 0x98E JUMPI PUSH1 0x0 DUP1 REVERT JUMPDEST POP PUSH2 0x9A2 PUSH2 0x99D CALLDATASIZE PUSH1 0x4 PUSH2 0x50EB JUMP JUMPDEST PUSH2 0x29C1 JUMP JUMPDEST PUSH1 0x40 DUP1 MLOAD SWAP7 DUP8 MSTORE PUSH1 0x20 DUP8 ADD SWAP6 SWAP1 SWAP6 MSTORE SWAP4 DUP6 ADD SWAP3 SWAP1 SWAP3 MSTORE PUSH1 0x60 DUP5 ADD MSTORE ISZERO ISZERO PUSH1 0x80 DUP4 ADD MSTORE PUSH1 0xA0 DUP3 ADD MSTORE PUSH1 0xC0 ADD PUSH2 0x33B JUMP JUMPDEST CALLVALUE DUP1 ISZERO PUSH2 0x9DD JUMPI PUSH1 0x0 DUP1 REVERT JUMPDEST POP PUSH2 0x331 PUSH1 0x1E SLOAD DUP2 JUMP JUMPDEST CALLVALUE DUP1 ISZERO PUSH2 0x9F3 JUMPI PUSH1 0x0 DUP1 REVERT JUMPDEST POP PUSH2 0x331 PUSH1 0x7 SLOAD DUP2 JUMP JUMPDEST CALLVALUE DUP1 ISZERO PUSH2 0xA09 JUMPI PUSH1 0x0 DUP1 REVERT JUMPDEST POP PUSH2 0x319 PUSH2 0x2A1B JUMP JUMPDEST CALLVALUE DUP1 ISZERO PUSH2 0xA1E JUMPI PUSH1 0x0 DUP1 REVERT JUMPDEST POP PUSH2 0x384 PUSH2 0xA2D CALLDATASIZE PUSH1 0x4 PUSH2 0x5129 JUMP JUMPDEST PUSH1 0x1B PUSH1 0x20 MSTORE PUSH1 0x0 SWAP1 DUP2 MSTORE PUSH1 0x40 SWAP1 KECCAK256 SLOAD PUSH1 0x1 PUSH1 0x1 PUSH1 0xA0 SHL SUB AND DUP2 JUMP JUMPDEST CALLVALUE DUP1 ISZERO PUSH2 0xA54 JUMPI PUSH1 0x0 DUP1 REVERT JUMPDEST POP PUSH2 0x319 PUSH2 0xA63 CALLDATASIZE PUSH1 0x4 PUSH2 0x53C3 JUMP JUMPDEST PUSH2 0x3343 JUMP JUMPDEST CALLVALUE DUP1 ISZERO PUSH2 0xA74 JUMPI PUSH1 0x0 DUP1 REVERT JUMPDEST POP PUSH2 0x331 PUSH1 0x6 SLOAD DUP2 JUMP JUMPDEST CALLVALUE DUP1 ISZERO PUSH2 0xA8A JUMPI PUSH1 0x0 DUP1 REVERT JUMPDEST POP PUSH2 0x319 PUSH2 0xA99 CALLDATASIZE PUSH1 0x4 PUSH2 0x5437 JUMP JUMPDEST PUSH2 0x34F4 JUMP JUMPDEST CALLVALUE DUP1 ISZERO PUSH2 0xAAA JUMPI PUSH1 0x0 DUP1 REVERT JUMPDEST POP PUSH2 0x331 PUSH1 0xA SLOAD DUP2 JUMP JUMPDEST CALLVALUE DUP1 ISZERO PUSH2 0xAC0 JUMPI PUSH1 0x0 DUP1 REVERT JUMPDEST POP PUSH2 0x319 PUSH2 0xACF CALLDATASIZE PUSH1 0x4 PUSH2 0x5473 JUMP JUMPDEST PUSH2 0x35AE JUMP JUMPDEST CALLVALUE DUP1 ISZERO PUSH2 0xAE0 JUMPI PUSH1 0x0 DUP1 REVERT JUMPDEST POP PUSH2 0xAF4 PUSH2 0xAEF CALLDATASIZE PUSH1 0x4 PUSH2 0x50D0 JUMP JUMPDEST PUSH2 0x3632 JUMP JUMPDEST PUSH1 0x40 MLOAD PUSH2 0x33B SWAP2 SWAP1 PUSH2 0x54B6 JUMP JUMPDEST CALLVALUE DUP1 ISZERO PUSH2 0xB0D JUMPI PUSH1 0x0 DUP1 REVERT JUMPDEST POP PUSH1 0x15 SLOAD PUSH2 0x972 SWAP1 PUSH2 0x100 SWAP1 DIV PUSH1 0xFF AND DUP2 JUMP JUMPDEST CALLVALUE DUP1 ISZERO PUSH2 0xB2C JUMPI PUSH1 0x0 DUP1 REVERT JUMPDEST POP PUSH2 0x319 PUSH2 0xB3B CALLDATASIZE PUSH1 0x4 PUSH2 0x5503 JUMP JUMPDEST PUSH2 0x36A8 JUMP JUMPDEST CALLVALUE DUP1 ISZERO PUSH2 0xB4C JUMPI PUSH1 0x0 DUP1 REVERT JUMPDEST POP PUSH2 0x331 PUSH1 0x8 SLOAD DUP2 JUMP JUMPDEST CALLVALUE DUP1 ISZERO PUSH2 0xB62 JUMPI PUSH1 0x0 DUP1 REVERT JUMPDEST POP PUSH1 0x5 SLOAD PUSH2 0x384 SWAP1 PUSH1 0x1 PUSH1 0x1 PUSH1 0xA0 SHL SUB AND DUP2 JUMP JUMPDEST CALLVALUE DUP1 ISZERO PUSH2 0xB82 JUMPI PUSH1 0x0 DUP1 REVERT JUMPDEST POP PUSH2 0x331 PUSH1 0xC SLOAD DUP2 JUMP JUMPDEST CALLVALUE DUP1 ISZERO PUSH2 0xB98 JUMPI PUSH1 0x0 DUP1 REVERT JUMPDEST POP PUSH2 0x331 PUSH1 0x1A SLOAD DUP2 JUMP JUMPDEST CALLVALUE DUP1 ISZERO PUSH2 0xBAE JUMPI PUSH1 0x0 DUP1 REVERT JUMPDEST POP PUSH2 0x331 PUSH1 0x9 SLOAD DUP2 JUMP JUMPDEST CALLVALUE DUP1 ISZERO PUSH2 0xBC4 JUMPI PUSH1 0x0 DUP1 REVERT JUMPDEST POP PUSH2 0x319 PUSH2 0xBD3 CALLDATASIZE PUSH1 0x4 PUSH2 0x5129 JUMP JUMPDEST PUSH2 0x3809 JUMP JUMPDEST CALLVALUE DUP1 ISZERO PUSH2 0xBE4 JUMPI PUSH1 0x0 DUP1 REVERT JUMPDEST POP PUSH2 0x319 PUSH2 0xBF3 CALLDATASIZE PUSH1 0x4 PUSH2 0x50D0 JUMP JUMPDEST PUSH2 0x3846 JUMP JUMPDEST PUSH2 0xC00 PUSH2 0x3884 JUMP JUMPDEST PUSH1 0x15 DUP1 SLOAD PUSH2 0xFFFF NOT AND DUP4 ISZERO ISZERO PUSH2 0xFF00 NOT DUP2 AND SWAP2 SWAP1 SWAP2 OR PUSH2 0x100 DUP5 ISZERO ISZERO MUL OR SWAP1 SWAP2 SSTORE PUSH1 0x40 MLOAD SWAP1 DUP2 MSTORE PUSH32 0xB886FCB5B9C12916F26D967EBE962DBD51EC249FB55961DA39C851CDFC10115C SWAP1 PUSH1 0x20 ADD PUSH1 0x40 MLOAD DUP1 SWAP2 SUB SWAP1 LOG1 PUSH1 0x40 MLOAD DUP2 ISZERO ISZERO DUP2 MSTORE PUSH32 0x3CB373F89DE891077FE47CEC43663B6727713DE0337AF46BEBD1178122251B7 SWAP1 PUSH1 0x20 ADD JUMPDEST PUSH1 0x40 MLOAD DUP1 SWAP2 SUB SWAP1 LOG1 POP POP JUMP JUMPDEST CALLER PUSH1 0x0 SWAP1 DUP2 MSTORE PUSH1 0xF PUSH1 0x20 MSTORE PUSH1 0x40 SWAP1 KECCAK256 SLOAD PUSH1 0x1 PUSH1 0x1 PUSH1 0xA0 SHL SUB AND ISZERO PUSH2 0xCC5 JUMPI PUSH1 0x40 MLOAD PUSH4 0x682A9065 PUSH1 0xE0 SHL DUP2 MSTORE PUSH1 0x4 ADD PUSH1 0x40 MLOAD DUP1 SWAP2 SUB SWAP1 REVERT JUMPDEST CALLER PUSH1 0x1 PUSH1 0x1 PUSH1 0xA0 SHL SUB DUP3 AND SUB PUSH2 0xCEE JUMPI PUSH1 0x40 MLOAD PUSH4 0x1ACADE89 PUSH1 0xE3 SHL DUP2 MSTORE PUSH1 0x4 ADD PUSH1 0x40 MLOAD DUP1 SWAP2 SUB SWAP1 REVERT JUMPDEST PUSH1 0x1 PUSH1 0x1 PUSH1 0xA0 SHL SUB DUP2 AND PUSH2 0xD15 JUMPI PUSH1 0x40 MLOAD PUSH4 0xE6C4247B PUSH1 0xE0 SHL DUP2 MSTORE PUSH1 0x4 ADD PUSH1 0x40 MLOAD DUP1 SWAP2 SUB SWAP1 REVERT JUMPDEST CALLER PUSH1 0x0 DUP2 DUP2 MSTORE PUSH1 0xF PUSH1 0x20 SWAP1 DUP2 MSTORE PUSH1 0x40 DUP1 DUP4 KECCAK256 DUP1 SLOAD PUSH1 0x1 PUSH1 0x1 PUSH1 0xA0 SHL SUB DUP8 AND PUSH1 0x1 PUSH1 0x1 PUSH1 0xA0 SHL SUB NOT SWAP2 DUP3 AND DUP2 OR SWAP1 SWAP3 SSTORE DUP2 DUP6 MSTORE PUSH1 0x12 DUP5 MSTORE DUP3 DUP6 KECCAK256 DUP1 SLOAD PUSH1 0x1 DUP2 ADD DUP3 SSTORE SWAP1 DUP7 MSTORE SWAP4 DUP6 KECCAK256 SWAP1 SWAP4 ADD DUP1 SLOAD SWAP1 SWAP4 AND DUP6 OR SWAP1 SWAP3 SSTORE MLOAD SWAP1 SWAP3 SWAP2 PUSH32 0xA6DBB5AA28F35437DE94D685D66EDCE5FB4812196B4984B91DFD5A7B38C0FB30 SWAP2 LOG3 POP JUMP JUMPDEST PUSH1 0x12 PUSH1 0x20 MSTORE DUP2 PUSH1 0x0 MSTORE PUSH1 0x40 PUSH1 0x0 KECCAK256 DUP2 DUP2 SLOAD DUP2 LT PUSH2 0xDAF JUMPI PUSH1 0x0 DUP1 REVERT JUMPDEST PUSH1 0x0 SWAP2 DUP3 MSTORE PUSH1 0x20 SWAP1 SWAP2 KECCAK256 ADD SLOAD PUSH1 0x1 PUSH1 0x1 PUSH1 0xA0 SHL SUB AND SWAP2 POP DUP3 SWAP1 POP JUMP JUMPDEST DUP1 PUSH1 0x0 SUB PUSH2 0xDEC JUMPI PUSH1 0x40 MLOAD PUSH4 0x162908E3 PUSH1 0xE1 SHL DUP2 MSTORE PUSH1 0x4 ADD PUSH1 0x40 MLOAD DUP1 SWAP2 SUB SWAP1 REVERT JUMPDEST PUSH1 0x0 SLOAD PUSH1 0x40 MLOAD PUSH4 0x23B872DD PUSH1 0xE0 SHL DUP2 MSTORE PUSH1 0x1 PUSH1 0x1 PUSH1 0xA0 SHL SUB SWAP1 SWAP2 AND SWAP1 PUSH4 0x23B872DD SWAP1 PUSH2 0xE20 SWAP1 CALLER SWAP1 ADDRESS SWAP1 DUP7 SWAP1 PUSH1 0x4 ADD PUSH2 0x5547 JUMP JUMPDEST PUSH1 0x20 PUSH1 0x40 MLOAD DUP1 DUP4 SUB DUP2 PUSH1 0x0 DUP8 GAS CALL ISZERO DUP1 ISZERO PUSH2 0xE3F JUMPI RETURNDATASIZE PUSH1 0x0 DUP1 RETURNDATACOPY RETURNDATASIZE PUSH1 0x0 REVERT JUMPDEST POP POP POP POP PUSH1 0x40 MLOAD RETURNDATASIZE PUSH1 0x1F NOT PUSH1 0x1F DUP3 ADD AND DUP3 ADD DUP1 PUSH1 0x40 MSTORE POP DUP2 ADD SWAP1 PUSH2 0xE63 SWAP2 SWAP1 PUSH2 0x556B JUMP JUMPDEST POP PUSH1 0x0 PUSH1 0x17 SLOAD DUP3 PUSH2 0xE74 SWAP2 SWAP1 PUSH2 0x559E JUMP JUMPDEST SWAP1 POP PUSH1 0x0 DUP3 PUSH1 0x16 SLOAD PUSH2 0xE86 SWAP2 SWAP1 PUSH2 0x55B5 JUMP JUMPDEST SWAP1 POP PUSH1 0x0 PUSH2 0xE94 DUP3 DUP5 PUSH2 0x55C8 JUMP JUMPDEST SWAP1 POP PUSH1 0x0 PUSH1 0x64 PUSH1 0xD SLOAD DUP4 PUSH2 0xEA8 SWAP2 SWAP1 PUSH2 0x559E JUMP JUMPDEST PUSH2 0xEB2 SWAP2 SWAP1 PUSH2 0x55C8 JUMP JUMPDEST SWAP1 POP PUSH1 0x0 PUSH2 0xEC0 DUP3 DUP5 PUSH2 0x55EA JUMP JUMPDEST PUSH1 0x1 SLOAD PUSH1 0x40 MLOAD PUSH4 0x70A08231 PUSH1 0xE0 SHL DUP2 MSTORE SWAP2 SWAP3 POP DUP5 SWAP2 PUSH1 0x1 PUSH1 0x1 PUSH1 0xA0 SHL SUB SWAP1 SWAP2 AND SWAP1 PUSH4 0x70A08231 SWAP1 PUSH2 0xEF5 SWAP1 ADDRESS SWAP1 PUSH1 0x4 ADD PUSH2 0x5115 JUMP JUMPDEST PUSH1 0x20 PUSH1 0x40 MLOAD DUP1 DUP4 SUB DUP2 DUP7 GAS STATICCALL ISZERO DUP1 ISZERO PUSH2 0xF12 JUMPI RETURNDATASIZE PUSH1 0x0 DUP1 RETURNDATACOPY RETURNDATASIZE PUSH1 0x0 REVERT JUMPDEST POP POP POP POP PUSH1 0x40 MLOAD RETURNDATASIZE PUSH1 0x1F NOT PUSH1 0x1F DUP3 ADD AND DUP3 ADD DUP1 PUSH1 0x40 MSTORE POP DUP2 ADD SWAP1 PUSH2 0xF36 SWAP2 SWAP1 PUSH2 0x55FD JUMP JUMPDEST LT ISZERO PUSH2 0xF55 JUMPI PUSH1 0x40 MLOAD PUSH4 0x43C7AD81 PUSH1 0xE1 SHL DUP2 MSTORE PUSH1 0x4 ADD PUSH1 0x40 MLOAD DUP1 SWAP2 SUB SWAP1 REVERT JUMPDEST DUP6 PUSH1 0x16 PUSH1 0x0 DUP3 DUP3 SLOAD PUSH2 0xF67 SWAP2 SWAP1 PUSH2 0x55B5 JUMP JUMPDEST SWAP3 POP POP DUP2 SWAP1 SSTORE POP DUP3 PUSH1 0x17 PUSH1 0x0 DUP3 DUP3 SLOAD PUSH2 0xF80 SWAP2 SWAP1 PUSH2 0x55EA JUMP JUMPDEST SWAP1 SWAP2 SSTORE POP POP PUSH1 0x1 SLOAD PUSH1 0x40 MLOAD PUSH4 0x852CD8D PUSH1 0xE3 SHL DUP2 MSTORE PUSH1 0x4 DUP2 ADD DUP5 SWAP1 MSTORE PUSH1 0x1 PUSH1 0x1 PUSH1 0xA0 SHL SUB SWAP1 SWAP2 AND SWAP1 PUSH4 0x42966C68 SWAP1 PUSH1 0x24 ADD PUSH1 0x0 PUSH1 0x40 MLOAD DUP1 DUP4 SUB DUP2 PUSH1 0x0 DUP8 DUP1 EXTCODESIZE ISZERO DUP1 ISZERO PUSH2 0xFCB JUMPI PUSH1 0x0 DUP1 REVERT JUMPDEST POP GAS CALL ISZERO DUP1 ISZERO PUSH2 0xFDF JUMPI RETURNDATASIZE PUSH1 0x0 DUP1 RETURNDATACOPY RETURNDATASIZE PUSH1 0x0 REVERT JUMPDEST POP POP PUSH1 0x1 SLOAD PUSH1 0x40 MLOAD PUSH4 0xA9059CBB PUSH1 0xE0 SHL DUP2 MSTORE PUSH1 0x1 PUSH1 0x1 PUSH1 0xA0 SHL SUB SWAP1 SWAP2 AND SWAP3 POP PUSH4 0xA9059CBB SWAP2 POP PUSH2 0x1015 SWAP1 CALLER SWAP1 DUP6 SWAP1 PUSH1 0x4 ADD PUSH2 0x52FF JUMP JUMPDEST PUSH1 0x20 PUSH1 0x40 MLOAD DUP1 DUP4 SUB DUP2 PUSH1 0x0 DUP8 GAS CALL ISZERO DUP1 ISZERO PUSH2 0x1034 JUMPI RETURNDATASIZE PUSH1 0x0 DUP1 RETURNDATACOPY RETURNDATASIZE PUSH1 0x0 REVERT JUMPDEST POP POP POP POP PUSH1 0x40 MLOAD RETURNDATASIZE PUSH1 0x1F NOT PUSH1 0x1F DUP3 ADD AND DUP3 ADD DUP1 PUSH1 0x40 MSTORE POP DUP2 ADD SWAP1 PUSH2 0x1058 SWAP2 SWAP1 PUSH2 0x556B JUMP JUMPDEST POP CALLER PUSH1 0x1 PUSH1 0x1 PUSH1 0xA0 SHL SUB AND PUSH32 0x36864AEEFCE16BC4AACEEB6B0CDFB2AD1455A8CB4CCB0DB148A2BC6E7166F97C DUP8 DUP4 DUP6 PUSH1 0x40 MLOAD PUSH2 0x1096 SWAP4 SWAP3 SWAP2 SWAP1 PUSH2 0x5616 JUMP JUMPDEST PUSH1 0x40 MLOAD DUP1 SWAP2 SUB SWAP1 LOG2 POP POP POP POP POP POP JUMP JUMPDEST PUSH1 0x0 PUSH1 0x3 DUP3 LT PUSH2 0x10B8 JUMPI POP PUSH1 0xF SWAP2 SWAP1 POP JUMP JUMPDEST PUSH1 0x2 DUP3 LT PUSH2 0x10C8 JUMPI POP PUSH1 0xA SWAP2 SWAP1 POP JUMP JUMPDEST PUSH1 0x1 DUP3 LT PUSH2 0x10D8 JUMPI POP PUSH1 0x5 SWAP2 SWAP1 POP JUMP JUMPDEST POP PUSH1 0x0 SWAP2 SWAP1 POP JUMP JUMPDEST CALLER PUSH1 0x0 SWAP1 DUP2 MSTORE PUSH1 0x10 PUSH1 0x20 MSTORE PUSH1 0x40 SWAP1 KECCAK256 PUSH1 0x1 DUP2 ADD SLOAD ISZERO DUP1 PUSH2 0x1104 JUMPI POP PUSH1 0x3 DUP2 ADD SLOAD PUSH1 0xFF AND JUMPDEST ISZERO PUSH2 0x1122 JUMPI PUSH1 0x40 MLOAD PUSH4 0x4065AAF1 PUSH1 0xE1 SHL DUP2 MSTORE PUSH1 0x4 ADD PUSH1 0x40 MLOAD DUP1 SWAP2 SUB SWAP1 REVERT JUMPDEST CALLER PUSH1 0x0 SWAP1 DUP2 MSTORE PUSH1 0x11 PUSH1 0x20 MSTORE PUSH1 0x40 DUP2 KECCAK256 SWAP1 DUP1 JUMPDEST DUP3 SLOAD DUP2 LT ISZERO PUSH2 0x1387 JUMPI DUP3 DUP2 DUP2 SLOAD DUP2 LT PUSH2 0x114F JUMPI PUSH2 0x114F PUSH2 0x562C JUMP JUMPDEST PUSH1 0x0 SWAP2 DUP3 MSTORE PUSH1 0x20 SWAP1 SWAP2 KECCAK256 PUSH1 0x4 PUSH1 0x6 SWAP1 SWAP3 MUL ADD ADD SLOAD PUSH1 0xFF AND ISZERO PUSH2 0x137F JUMPI PUSH1 0x0 DUP4 DUP3 DUP2 SLOAD DUP2 LT PUSH2 0x117F JUMPI PUSH2 0x117F PUSH2 0x562C JUMP JUMPDEST SWAP1 PUSH1 0x0 MSTORE PUSH1 0x20 PUSH1 0x0 KECCAK256 SWAP1 PUSH1 0x6 MUL ADD PUSH1 0x3 ADD SLOAD PUSH1 0x7 SUB PUSH2 0x11A2 JUMPI POP PUSH3 0xCB7356 PUSH2 0x1209 JUMP JUMPDEST DUP4 DUP3 DUP2 SLOAD DUP2 LT PUSH2 0x11B4 JUMPI PUSH2 0x11B4 PUSH2 0x562C JUMP JUMPDEST SWAP1 PUSH1 0x0 MSTORE PUSH1 0x20 PUSH1 0x0 KECCAK256 SWAP1 PUSH1 0x6 MUL ADD PUSH1 0x3 ADD SLOAD PUSH1 0xF SUB PUSH2 0x11D7 JUMPI POP PUSH3 0xFE502B PUSH2 0x1209 JUMP JUMPDEST DUP4 DUP3 DUP2 SLOAD DUP2 LT PUSH2 0x11E9 JUMPI PUSH2 0x11E9 PUSH2 0x562C JUMP JUMPDEST SWAP1 PUSH1 0x0 MSTORE PUSH1 0x20 PUSH1 0x0 KECCAK256 SWAP1 PUSH1 0x6 MUL ADD PUSH1 0x3 ADD SLOAD PUSH1 0x1E SUB PUSH2 0x1209 JUMPI POP PUSH4 0x1312D00 JUMPDEST PUSH1 0x0 PUSH1 0x3C DUP6 DUP5 DUP2 SLOAD DUP2 LT PUSH2 0x121F JUMPI PUSH2 0x121F PUSH2 0x562C JUMP JUMPDEST SWAP1 PUSH1 0x0 MSTORE PUSH1 0x20 PUSH1 0x0 KECCAK256 SWAP1 PUSH1 0x6 MUL ADD PUSH1 0x2 ADD SLOAD TIMESTAMP PUSH2 0x123C SWAP2 SWAP1 PUSH2 0x55EA JUMP JUMPDEST PUSH2 0x1246 SWAP2 SWAP1 PUSH2 0x55C8 JUMP JUMPDEST SWAP1 POP DUP5 DUP4 DUP2 SLOAD DUP2 LT PUSH2 0x125A JUMPI PUSH2 0x125A PUSH2 0x562C JUMP JUMPDEST SWAP1 PUSH1 0x0 MSTORE PUSH1 0x20 PUSH1 0x0 KECCAK256 SWAP1 PUSH1 0x6 MUL ADD PUSH1 0x3 ADD SLOAD DUP2 GT ISZERO PUSH2 0x129A JUMPI DUP5 DUP4 DUP2 SLOAD DUP2 LT PUSH2 0x1285 JUMPI PUSH2 0x1285 PUSH2 0x562C JUMP JUMPDEST SWAP1 PUSH1 0x0 MSTORE PUSH1 0x20 PUSH1 0x0 KECCAK256 SWAP1 PUSH1 0x6 MUL ADD PUSH1 0x3 ADD SLOAD SWAP1 POP JUMPDEST DUP1 PUSH1 0x0 SUB PUSH2 0x12A9 JUMPI POP POP PUSH2 0x137F JUMP JUMPDEST PUSH1 0x0 PUSH4 0x3B9ACA00 DUP3 DUP5 DUP9 DUP8 DUP2 SLOAD DUP2 LT PUSH2 0x12C4 JUMPI PUSH2 0x12C4 PUSH2 0x562C JUMP JUMPDEST SWAP1 PUSH1 0x0 MSTORE PUSH1 0x20 PUSH1 0x0 KECCAK256 SWAP1 PUSH1 0x6 MUL ADD PUSH1 0x1 ADD SLOAD PUSH2 0x12E0 SWAP2 SWAP1 PUSH2 0x559E JUMP JUMPDEST PUSH2 0x12EA SWAP2 SWAP1 PUSH2 0x559E JUMP JUMPDEST PUSH2 0x12F4 SWAP2 SWAP1 PUSH2 0x55C8 JUMP JUMPDEST SWAP1 POP PUSH1 0x0 DUP7 DUP6 DUP2 SLOAD DUP2 LT PUSH2 0x130A JUMPI PUSH2 0x130A PUSH2 0x562C JUMP JUMPDEST SWAP1 PUSH1 0x0 MSTORE PUSH1 0x20 PUSH1 0x0 KECCAK256 SWAP1 PUSH1 0x6 MUL ADD PUSH1 0x5 ADD SLOAD SWAP1 POP DUP1 DUP3 GT ISZERO PUSH2 0x137A JUMPI PUSH1 0x0 PUSH2 0x1332 DUP3 DUP5 PUSH2 0x55EA JUMP JUMPDEST SWAP1 POP PUSH2 0x133E DUP2 DUP9 PUSH2 0x55B5 JUMP JUMPDEST SWAP7 POP DUP1 DUP9 DUP8 DUP2 SLOAD DUP2 LT PUSH2 0x1353 JUMPI PUSH2 0x1353 PUSH2 0x562C JUMP JUMPDEST SWAP1 PUSH1 0x0 MSTORE PUSH1 0x20 PUSH1 0x0 KECCAK256 SWAP1 PUSH1 0x6 MUL ADD PUSH1 0x5 ADD PUSH1 0x0 DUP3 DUP3 SLOAD PUSH2 0x1373 SWAP2 SWAP1 PUSH2 0x55B5 JUMP JUMPDEST SWAP1 SWAP2 SSTORE POP POP POP JUMPDEST POP POP POP POP JUMPDEST PUSH1 0x1 ADD PUSH2 0x1134 JUMP JUMPDEST POP DUP1 PUSH1 0x0 SUB PUSH2 0x13A9 JUMPI PUSH1 0x40 MLOAD PUSH4 0xFEC21FD PUSH1 0xE2 SHL DUP2 MSTORE PUSH1 0x4 ADD PUSH1 0x40 MLOAD DUP1 SWAP2 SUB SWAP1 REVERT JUMPDEST CALLER PUSH1 0x0 SWAP1 DUP2 MSTORE PUSH1 0xF PUSH1 0x20 MSTORE PUSH1 0x40 SWAP1 KECCAK256 PUSH1 0x4 DUP2 ADD SLOAD PUSH1 0x3 SWAP1 SWAP2 ADD SLOAD PUSH2 0x13CE SWAP1 DUP4 SWAP1 PUSH2 0x55B5 JUMP JUMPDEST GT ISZERO PUSH2 0x13FB JUMPI CALLER PUSH1 0x0 SWAP1 DUP2 MSTORE PUSH1 0xF PUSH1 0x20 MSTORE PUSH1 0x40 SWAP1 KECCAK256 PUSH1 0x3 DUP2 ADD SLOAD PUSH1 0x4 SWAP1 SWAP2 ADD SLOAD PUSH2 0x13F8 SWAP2 SWAP1 PUSH2 0x55EA JUMP JUMPDEST SWAP1 POP JUMPDEST DUP1 PUSH1 0x0 SUB PUSH2 0x1411 JUMPI PUSH2 0x140C CALLER PUSH2 0x38B6 JUMP JUMPDEST POP POP POP JUMP JUMPDEST CALLER PUSH1 0x0 SWAP1 DUP2 MSTORE PUSH1 0xF PUSH1 0x20 MSTORE PUSH1 0x40 DUP2 KECCAK256 PUSH1 0x3 ADD DUP1 SLOAD DUP4 SWAP3 SWAP1 PUSH2 0x1433 SWAP1 DUP5 SWAP1 PUSH2 0x55B5 JUMP JUMPDEST SWAP1 SWAP2 SSTORE POP PUSH1 0x0 SWAP1 POP PUSH2 0x1446 PUSH1 0x2 DUP4 PUSH2 0x55C8 JUMP JUMPDEST SWAP1 POP PUSH1 0x0 PUSH2 0x1455 PUSH1 0x2 DUP5 PUSH2 0x55C8 JUMP JUMPDEST PUSH1 0x0 DUP1 SLOAD PUSH1 0x40 MLOAD PUSH4 0x70A08231 PUSH1 0xE0 SHL DUP2 MSTORE SWAP3 SWAP4 POP SWAP1 SWAP2 DUP5 SWAP2 PUSH1 0x1 PUSH1 0x1 PUSH1 0xA0 SHL SUB AND SWAP1 PUSH4 0x70A08231 SWAP1 PUSH2 0x148B SWAP1 ADDRESS SWAP1 PUSH1 0x4 ADD PUSH2 0x5115 JUMP JUMPDEST PUSH1 0x20 PUSH1 0x40 MLOAD DUP1 DUP4 SUB DUP2 DUP7 GAS STATICCALL ISZERO DUP1 ISZERO PUSH2 0x14A8 JUMPI RETURNDATASIZE PUSH1 0x0 DUP1 RETURNDATACOPY RETURNDATASIZE PUSH1 0x0 REVERT JUMPDEST POP POP POP POP PUSH1 0x40 MLOAD RETURNDATASIZE PUSH1 0x1F NOT PUSH1 0x1F DUP3 ADD AND DUP3 ADD DUP1 PUSH1 0x40 MSTORE POP DUP2 ADD SWAP1 PUSH2 0x14CC SWAP2 SWAP1 PUSH2 0x55FD JUMP JUMPDEST LT ISZERO DUP1 ISZERO PUSH2 0x14DA JUMPI POP PUSH1 0x0 DUP4 GT JUMPDEST ISZERO PUSH2 0x1559 JUMPI PUSH1 0x0 SLOAD PUSH1 0x40 MLOAD PUSH4 0xA9059CBB PUSH1 0xE0 SHL DUP2 MSTORE PUSH1 0x1 PUSH1 0x1 PUSH1 0xA0 SHL SUB SWAP1 SWAP2 AND SWAP1 PUSH4 0xA9059CBB SWAP1 PUSH2 0x1511 SWAP1 CALLER SWAP1 DUP8 SWAP1 PUSH1 0x4 ADD PUSH2 0x52FF JUMP JUMPDEST PUSH1 0x20 PUSH1 0x40 MLOAD DUP1 DUP4 SUB DUP2 PUSH1 0x0 DUP8 GAS CALL ISZERO DUP1 ISZERO PUSH2 0x1530 JUMPI RETURNDATASIZE PUSH1 0x0 DUP1 RETURNDATACOPY RETURNDATASIZE PUSH1 0x0 REVERT JUMPDEST POP POP POP POP PUSH1 0x40 MLOAD RETURNDATASIZE PUSH1 0x1F NOT PUSH1 0x1F DUP3 ADD AND DUP3 ADD DUP1 PUSH1 0x40 MSTORE POP DUP2 ADD SWAP1 PUSH2 0x1554 SWAP2 SWAP1 PUSH2 0x556B JUMP JUMPDEST POP DUP3 SWAP1 POP JUMPDEST PUSH1 0x0 PUSH1 0x17 SLOAD PUSH1 0x0 EQ PUSH2 0x158C JUMPI PUSH1 0x17 SLOAD PUSH1 0x16 SLOAD PUSH2 0x157D SWAP1 PUSH8 0xDE0B6B3A7640000 PUSH2 0x559E JUMP JUMPDEST PUSH2 0x1587 SWAP2 SWAP1 PUSH2 0x55C8 JUMP JUMPDEST PUSH2 0x1596 JUMP JUMPDEST PUSH8 0xDE0B6B3A7640000 JUMPDEST SWAP1 POP PUSH1 0x0 DUP2 PUSH2 0x15AD DUP6 PUSH8 0xDE0B6B3A7640000 PUSH2 0x559E JUMP JUMPDEST PUSH2 0x15B7 SWAP2 SWAP1 PUSH2 0x55C8 JUMP JUMPDEST PUSH1 0x1 SLOAD PUSH1 0x40 MLOAD PUSH4 0x70A08231 PUSH1 0xE0 SHL DUP2 MSTORE SWAP2 SWAP3 POP PUSH1 0x0 SWAP2 DUP4 SWAP2 PUSH1 0x1 PUSH1 0x1 PUSH1 0xA0 SHL SUB AND SWAP1 PUSH4 0x70A08231 SWAP1 PUSH2 0x15ED SWAP1 ADDRESS SWAP1 PUSH1 0x4 ADD PUSH2 0x5115 JUMP JUMPDEST PUSH1 0x20 PUSH1 0x40 MLOAD DUP1 DUP4 SUB DUP2 DUP7 GAS STATICCALL ISZERO DUP1 ISZERO PUSH2 0x160A JUMPI RETURNDATASIZE PUSH1 0x0 DUP1 RETURNDATACOPY RETURNDATASIZE PUSH1 0x0 REVERT JUMPDEST POP POP POP POP PUSH1 0x40 MLOAD RETURNDATASIZE PUSH1 0x1F NOT PUSH1 0x1F DUP3 ADD AND DUP3 ADD DUP1 PUSH1 0x40 MSTORE POP DUP2 ADD SWAP1 PUSH2 0x162E SWAP2 SWAP1 PUSH2 0x55FD JUMP JUMPDEST LT ISZERO DUP1 ISZERO PUSH2 0x163C JUMPI POP PUSH1 0x0 DUP3 GT JUMPDEST ISZERO PUSH2 0x16BB JUMPI PUSH1 0x1 SLOAD PUSH1 0x40 MLOAD PUSH4 0xA9059CBB PUSH1 0xE0 SHL DUP2 MSTORE PUSH1 0x1 PUSH1 0x1 PUSH1 0xA0 SHL SUB SWAP1 SWAP2 AND SWAP1 PUSH4 0xA9059CBB SWAP1 PUSH2 0x1673 SWAP1 CALLER SWAP1 DUP7 SWAP1 PUSH1 0x4 ADD PUSH2 0x52FF JUMP JUMPDEST PUSH1 0x20 PUSH1 0x40 MLOAD DUP1 DUP4 SUB DUP2 PUSH1 0x0 DUP8 GAS CALL ISZERO DUP1 ISZERO PUSH2 0x1692 JUMPI RETURNDATASIZE PUSH1 0x0 DUP1 RETURNDATACOPY RETURNDATASIZE PUSH1 0x0 REVERT JUMPDEST POP POP POP POP PUSH1 0x40 MLOAD RETURNDATASIZE PUSH1 0x1F NOT PUSH1 0x1F DUP3 ADD AND DUP3 ADD DUP1 PUSH1 0x40 MSTORE POP DUP2 ADD SWAP1 PUSH2 0x16B6 SWAP2 SWAP1 PUSH2 0x556B JUMP JUMPDEST POP DUP2 SWAP1 POP JUMPDEST CALLER PUSH1 0x1 PUSH1 0x1 PUSH1 0xA0 SHL SUB AND PUSH1 0x0 DUP1 MLOAD PUSH1 0x20 PUSH2 0x5793 DUP4 CODECOPY DUP2 MLOAD SWAP2 MSTORE DUP9 PUSH1 0x0 PUSH1 0x40 MLOAD PUSH2 0x16E5 SWAP3 SWAP2 SWAP1 PUSH2 0x5642 JUMP JUMPDEST PUSH1 0x40 MLOAD DUP1 SWAP2 SUB SWAP1 LOG2 DUP9 SLOAD PUSH1 0x40 MLOAD CALLER SWAP2 PUSH1 0x0 DUP1 MLOAD PUSH1 0x20 PUSH2 0x5713 DUP4 CODECOPY DUP2 MLOAD SWAP2 MSTORE SWAP2 PUSH2 0x1714 SWAP2 DUP9 SWAP2 DUP7 SWAP2 PUSH1 0x0 SWAP2 PUSH2 0x5653 JUMP JUMPDEST PUSH1 0x40 MLOAD DUP1 SWAP2 SUB SWAP1 LOG2 CALLER PUSH1 0x0 SWAP1 DUP2 MSTORE PUSH1 0xF PUSH1 0x20 MSTORE PUSH1 0x40 SWAP1 KECCAK256 PUSH1 0x4 DUP2 ADD SLOAD PUSH1 0x3 SWAP1 SWAP2 ADD SLOAD LT PUSH2 0x1744 JUMPI PUSH2 0x1744 CALLER PUSH2 0x38B6 JUMP JUMPDEST POP POP POP POP POP POP POP POP POP JUMPDEST JUMP JUMPDEST PUSH1 0x0 DUP1 PUSH2 0x175C DUP4 PUSH2 0x3BF4 JUMP JUMPDEST SWAP2 POP SWAP2 POP SWAP2 POP SWAP2 JUMP JUMPDEST CALLER PUSH1 0x0 SWAP1 DUP2 MSTORE PUSH1 0x10 PUSH1 0x20 MSTORE PUSH1 0x40 DUP2 KECCAK256 PUSH1 0x1 DUP2 ADD SLOAD SWAP1 SWAP2 SUB PUSH2 0x1799 JUMPI PUSH1 0x40 MLOAD PUSH4 0x4065AAF1 PUSH1 0xE1 SHL DUP2 MSTORE PUSH1 0x4 ADD PUSH1 0x40 MLOAD DUP1 SWAP2 SUB SWAP1 REVERT JUMPDEST PUSH1 0x3 DUP2 ADD SLOAD PUSH1 0xFF AND ISZERO PUSH2 0x17BF JUMPI PUSH1 0x40 MLOAD PUSH4 0x1ECB2C4F PUSH1 0xE3 SHL DUP2 MSTORE PUSH1 0x4 ADD PUSH1 0x40 MLOAD DUP1 SWAP2 SUB SWAP1 REVERT JUMPDEST DUP2 PUSH1 0x7 EQ ISZERO DUP1 ISZERO PUSH2 0x17D1 JUMPI POP DUP2 PUSH1 0xF EQ ISZERO JUMPDEST DUP1 ISZERO PUSH2 0x17DE JUMPI POP DUP2 PUSH1 0x1E EQ ISZERO JUMPDEST ISZERO PUSH2 0x17FC JUMPI PUSH1 0x40 MLOAD PUSH4 0x4DC7F5FF PUSH1 0xE1 SHL DUP2 MSTORE PUSH1 0x4 ADD PUSH1 0x40 MLOAD DUP1 SWAP2 SUB SWAP1 REVERT JUMPDEST DUP3 PUSH1 0x0 SUB PUSH2 0x181D JUMPI PUSH1 0x40 MLOAD PUSH4 0x162908E3 PUSH1 0xE1 SHL DUP2 MSTORE PUSH1 0x4 ADD PUSH1 0x40 MLOAD DUP1 SWAP2 SUB SWAP1 REVERT JUMPDEST PUSH1 0x0 SLOAD PUSH1 0x40 MLOAD PUSH4 0x23B872DD PUSH1 0xE0 SHL DUP2 MSTORE PUSH1 0x1 PUSH1 0x1 PUSH1 0xA0 SHL SUB SWAP1 SWAP2 AND SWAP1 PUSH4 0x23B872DD SWAP1 PUSH2 0x1851 SWAP1 CALLER SWAP1 ADDRESS SWAP1 DUP9 SWAP1 PUSH1 0x4 ADD PUSH2 0x5547 JUMP JUMPDEST PUSH1 0x20 PUSH1 0x40 MLOAD DUP1 DUP4 SUB DUP2 PUSH1 0x0 DUP8 GAS CALL ISZERO DUP1 ISZERO PUSH2 0x1870 JUMPI RETURNDATASIZE PUSH1 0x0 DUP1 RETURNDATACOPY RETURNDATASIZE PUSH1 0x0 REVERT JUMPDEST POP POP POP POP PUSH1 0x40 MLOAD RETURNDATASIZE PUSH1 0x1F NOT PUSH1 0x1F DUP3 ADD AND DUP3 ADD DUP1 PUSH1 0x40 MSTORE POP DUP2 ADD SWAP1 PUSH2 0x1894 SWAP2 SWAP1 PUSH2 0x556B JUMP JUMPDEST POP PUSH1 0x19 DUP1 SLOAD SWAP1 PUSH1 0x0 PUSH2 0x18A5 DUP4 PUSH2 0x5671 JUMP JUMPDEST SWAP1 SWAP2 SSTORE POP POP CALLER PUSH1 0x0 DUP2 DUP2 MSTORE PUSH1 0x11 PUSH1 0x20 SWAP1 DUP2 MSTORE PUSH1 0x40 DUP1 DUP4 KECCAK256 DUP2 MLOAD PUSH1 0xC0 DUP2 ADD DUP4 MSTORE PUSH1 0x19 DUP1 SLOAD DUP3 MSTORE DUP2 DUP6 ADD DUP11 DUP2 MSTORE TIMESTAMP DUP4 DUP7 ADD SWAP1 DUP2 MSTORE PUSH1 0x60 DUP5 ADD DUP12 DUP2 MSTORE PUSH1 0x1 PUSH1 0x80 DUP7 ADD DUP2 DUP2 MSTORE PUSH1 0xA0 DUP8 ADD DUP12 DUP2 MSTORE DUP9 SLOAD DUP1 DUP5 ADD DUP11 SSTORE SWAP9 DUP13 MSTORE DUP11 DUP13 KECCAK256 SWAP8 MLOAD PUSH1 0x6 SWAP1 SWAP10 MUL SWAP1 SWAP8 ADD SWAP8 DUP9 SSTORE SWAP4 MLOAD SWAP1 DUP8 ADD SSTORE SWAP1 MLOAD PUSH1 0x2 DUP7 ADD SSTORE MLOAD PUSH1 0x3 DUP6 ADD SSTORE MLOAD PUSH1 0x4 DUP5 ADD DUP1 SLOAD PUSH1 0xFF NOT AND SWAP2 ISZERO ISZERO SWAP2 SWAP1 SWAP2 OR SWAP1 SSTORE SWAP1 MLOAD PUSH1 0x5 SWAP1 SWAP3 ADD SWAP2 SWAP1 SWAP2 SSTORE DUP1 SLOAD DUP5 MSTORE PUSH1 0x1D SWAP1 SWAP3 MSTORE SWAP1 SWAP2 KECCAK256 DUP1 SLOAD PUSH1 0x1 PUSH1 0x1 PUSH1 0xA0 SHL SUB NOT AND DUP4 OR SWAP1 SSTORE SLOAD PUSH2 0x1963 SWAP2 SWAP1 DUP6 SWAP1 PUSH2 0x3CBB JUMP JUMPDEST PUSH2 0x196C CALLER PUSH2 0x3F19 JUMP JUMPDEST CALLER PUSH1 0x1 PUSH1 0x1 PUSH1 0xA0 SHL SUB AND PUSH32 0xA8A1B9E33E503EED12BF7E7C8C01C7F3B60217A496BDDD0F5DB351DD8C056C1C DUP5 DUP5 PUSH1 0x19 SLOAD PUSH1 0x40 MLOAD PUSH2 0x19AB SWAP4 SWAP3 SWAP2 SWAP1 PUSH2 0x5616 JUMP JUMPDEST PUSH1 0x40 MLOAD DUP1 SWAP2 SUB SWAP1 LOG2 CALLER PUSH1 0x0 SWAP1 DUP2 MSTORE PUSH1 0xF PUSH1 0x20 MSTORE PUSH1 0x40 SWAP1 KECCAK256 PUSH1 0x6 ADD SLOAD DUP1 ISZERO PUSH2 0x1B29 JUMPI CALLER PUSH1 0x0 SWAP1 DUP2 MSTORE PUSH1 0xF PUSH1 0x20 MSTORE PUSH1 0x40 DUP2 KECCAK256 PUSH1 0x6 ADD SSTORE PUSH1 0x16 SLOAD DUP2 GT DUP1 ISZERO SWAP1 PUSH2 0x1A60 JUMPI POP PUSH1 0x0 SLOAD PUSH1 0x40 MLOAD PUSH4 0x70A08231 PUSH1 0xE0 SHL DUP2 MSTORE DUP3 SWAP2 PUSH1 0x1 PUSH1 0x1 PUSH1 0xA0 SHL SUB AND SWAP1 PUSH4 0x70A08231 SWAP1 PUSH2 0x1A1C SWAP1 ADDRESS SWAP1 PUSH1 0x4 ADD PUSH2 0x5115 JUMP JUMPDEST PUSH1 0x20 PUSH1 0x40 MLOAD DUP1 DUP4 SUB DUP2 DUP7 GAS STATICCALL ISZERO DUP1 ISZERO PUSH2 0x1A39 JUMPI RETURNDATASIZE PUSH1 0x0 DUP1 RETURNDATACOPY RETURNDATASIZE PUSH1 0x0 REVERT JUMPDEST POP POP POP POP PUSH1 0x40 MLOAD RETURNDATASIZE PUSH1 0x1F NOT PUSH1 0x1F DUP3 ADD AND DUP3 ADD DUP1 PUSH1 0x40 MSTORE POP DUP2 ADD SWAP1 PUSH2 0x1A5D SWAP2 SWAP1 PUSH2 0x55FD JUMP JUMPDEST LT ISZERO JUMPDEST ISZERO PUSH2 0x1B29 JUMPI DUP1 PUSH1 0x16 PUSH1 0x0 DUP3 DUP3 SLOAD PUSH2 0x1A77 SWAP2 SWAP1 PUSH2 0x55EA JUMP JUMPDEST SWAP1 SWAP2 SSTORE POP POP PUSH1 0x0 SLOAD PUSH1 0x40 MLOAD PUSH4 0xA9059CBB PUSH1 0xE0 SHL DUP2 MSTORE PUSH1 0x1 PUSH1 0x1 PUSH1 0xA0 SHL SUB SWAP1 SWAP2 AND SWAP1 PUSH4 0xA9059CBB SWAP1 PUSH2 0x1AAE SWAP1 CALLER SWAP1 DUP6 SWAP1 PUSH1 0x4 ADD PUSH2 0x52FF JUMP JUMPDEST PUSH1 0x20 PUSH1 0x40 MLOAD DUP1 DUP4 SUB DUP2 PUSH1 0x0 DUP8 GAS CALL ISZERO DUP1 ISZERO PUSH2 0x1ACD JUMPI RETURNDATASIZE PUSH1 0x0 DUP1 RETURNDATACOPY RETURNDATASIZE PUSH1 0x0 REVERT JUMPDEST POP POP POP POP PUSH1 0x40 MLOAD RETURNDATASIZE PUSH1 0x1F NOT PUSH1 0x1F DUP3 ADD AND DUP3 ADD DUP1 PUSH1 0x40 MSTORE POP DUP2 ADD SWAP1 PUSH2 0x1AF1 SWAP2 SWAP1 PUSH2 0x556B JUMP JUMPDEST POP PUSH1 0x40 MLOAD DUP2 DUP2 MSTORE CALLER SWAP1 PUSH32 0x3437B9EA7FA19C6D233DD70CC787A70FAB87CEE64D8BA4571512CC84402748F9 SWAP1 PUSH1 0x20 ADD JUMPDEST PUSH1 0x40 MLOAD DUP1 SWAP2 SUB SWAP1 LOG2 JUMPDEST POP POP POP POP JUMP JUMPDEST PUSH2 0x1B37 PUSH2 0x405A JUMP JUMPDEST PUSH2 0x1B40 DUP3 PUSH2 0x40FF JUMP JUMPDEST PUSH2 0x1B4A DUP3 DUP3 PUSH2 0x4107 JUMP JUMPDEST POP POP JUMP JUMPDEST DUP1 PUSH1 0x0 SUB PUSH2 0x1B6F JUMPI PUSH1 0x40 MLOAD PUSH4 0x162908E3 PUSH1 0xE1 SHL DUP2 MSTORE PUSH1 0x4 ADD PUSH1 0x40 MLOAD DUP1 SWAP2 SUB SWAP1 REVERT JUMPDEST PUSH1 0x1 SLOAD PUSH1 0x40 MLOAD PUSH4 0x23B872DD PUSH1 0xE0 SHL DUP2 MSTORE PUSH1 0x1 PUSH1 0x1 PUSH1 0xA0 SHL SUB SWAP1 SWAP2 AND SWAP1 PUSH4 0x23B872DD SWAP1 PUSH2 0x1BA3 SWAP1 CALLER SWAP1 ADDRESS SWAP1 DUP7 SWAP1 PUSH1 0x4 ADD PUSH2 0x5547 JUMP JUMPDEST PUSH1 0x20 PUSH1 0x40 MLOAD DUP1 DUP4 SUB DUP2 PUSH1 0x0 DUP8 GAS CALL ISZERO DUP1 ISZERO PUSH2 0x1BC2 JUMPI RETURNDATASIZE PUSH1 0x0 DUP1 RETURNDATACOPY RETURNDATASIZE PUSH1 0x0 REVERT JUMPDEST POP POP POP POP PUSH1 0x40 MLOAD RETURNDATASIZE PUSH1 0x1F NOT PUSH1 0x1F DUP3 ADD AND DUP3 ADD DUP1 PUSH1 0x40 MSTORE POP DUP2 ADD SWAP1 PUSH2 0x1BE6 SWAP2 SWAP1 PUSH2 0x556B JUMP JUMPDEST POP PUSH1 0x0 PUSH1 0x64 PUSH1 0xE SLOAD DUP4 PUSH2 0x1BF9 SWAP2 SWAP1 PUSH2 0x559E JUMP JUMPDEST PUSH2 0x1C03 SWAP2 SWAP1 PUSH2 0x55C8 JUMP JUMPDEST SWAP1 POP PUSH1 0x0 PUSH2 0x1C11 DUP3 DUP5 PUSH2 0x55EA JUMP JUMPDEST PUSH1 0x1 SLOAD PUSH1 0x40 MLOAD PUSH4 0x852CD8D PUSH1 0xE3 SHL DUP2 MSTORE PUSH1 0x4 DUP2 ADD DUP6 SWAP1 MSTORE SWAP2 SWAP3 POP PUSH1 0x1 PUSH1 0x1 PUSH1 0xA0 SHL SUB AND SWAP1 PUSH4 0x42966C68 SWAP1 PUSH1 0x24 ADD PUSH1 0x0 PUSH1 0x40 MLOAD DUP1 DUP4 SUB DUP2 PUSH1 0x0 DUP8 DUP1 EXTCODESIZE ISZERO DUP1 ISZERO PUSH2 0x1C58 JUMPI PUSH1 0x0 DUP1 REVERT JUMPDEST POP GAS CALL ISZERO DUP1 ISZERO PUSH2 0x1C6C JUMPI RETURNDATASIZE PUSH1 0x0 DUP1 RETURNDATACOPY RETURNDATASIZE PUSH1 0x0 REVERT JUMPDEST POP POP POP POP PUSH1 0x0 PUSH1 0x16 SLOAD DUP3 PUSH2 0x1C80 SWAP2 SWAP1 PUSH2 0x559E JUMP JUMPDEST SWAP1 POP PUSH1 0x0 DUP3 PUSH1 0x17 SLOAD PUSH2 0x1C92 SWAP2 SWAP1 PUSH2 0x55B5 JUMP JUMPDEST SWAP1 POP PUSH1 0x0 PUSH2 0x1CA0 DUP3 DUP5 PUSH2 0x55C8 JUMP JUMPDEST PUSH1 0x0 SLOAD PUSH1 0x40 MLOAD PUSH4 0x70A08231 PUSH1 0xE0 SHL DUP2 MSTORE SWAP2 SWAP3 POP DUP3 SWAP2 PUSH1 0x1 PUSH1 0x1 PUSH1 0xA0 SHL SUB SWAP1 SWAP2 AND SWAP1 PUSH4 0x70A08231 SWAP1 PUSH2 0x1CD5 SWAP1 ADDRESS SWAP1 PUSH1 0x4 ADD PUSH2 0x5115 JUMP JUMPDEST PUSH1 0x20 PUSH1 0x40 MLOAD DUP1 DUP4 SUB DUP2 DUP7 GAS STATICCALL ISZERO DUP1 ISZERO PUSH2 0x1CF2 JUMPI RETURNDATASIZE PUSH1 0x0 DUP1 RETURNDATACOPY RETURNDATASIZE PUSH1 0x0 REVERT JUMPDEST POP POP POP POP PUSH1 0x40 MLOAD RETURNDATASIZE PUSH1 0x1F NOT PUSH1 0x1F DUP3 ADD AND DUP3 ADD DUP1 PUSH1 0x40 MSTORE POP DUP2 ADD SWAP1 PUSH2 0x1D16 SWAP2 SWAP1 PUSH2 0x55FD JUMP JUMPDEST LT ISZERO PUSH2 0x1D35 JUMPI PUSH1 0x40 MLOAD PUSH4 0x43C7AD81 PUSH1 0xE1 SHL DUP2 MSTORE PUSH1 0x4 ADD PUSH1 0x40 MLOAD DUP1 SWAP2 SUB SWAP1 REVERT JUMPDEST DUP4 PUSH1 0x17 PUSH1 0x0 DUP3 DUP3 SLOAD PUSH2 0x1D47 SWAP2 SWAP1 PUSH2 0x55B5 JUMP JUMPDEST SWAP3 POP POP DUP2 SWAP1 SSTORE POP DUP1 PUSH1 0x16 PUSH1 0x0 DUP3 DUP3 SLOAD PUSH2 0x1D60 SWAP2 SWAP1 PUSH2 0x55EA JUMP JUMPDEST SWAP1 SWAP2 SSTORE POP POP PUSH1 0x0 SLOAD PUSH1 0x40 MLOAD PUSH4 0xA9059CBB PUSH1 0xE0 SHL DUP2 MSTORE PUSH1 0x1 PUSH1 0x1 PUSH1 0xA0 SHL SUB SWAP1 SWAP2 AND SWAP1 PUSH4 0xA9059CBB SWAP1 PUSH2 0x1D97 SWAP1 CALLER SWAP1 DUP6 SWAP1 PUSH1 0x4 ADD PUSH2 0x52FF JUMP JUMPDEST PUSH1 0x20 PUSH1 0x40 MLOAD DUP1 DUP4 SUB DUP2 PUSH1 0x0 DUP8 GAS CALL ISZERO DUP1 ISZERO PUSH2 0x1DB6 JUMPI RETURNDATASIZE PUSH1 0x0 DUP1 RETURNDATACOPY RETURNDATASIZE PUSH1 0x0 REVERT JUMPDEST POP POP POP POP PUSH1 0x40 MLOAD RETURNDATASIZE PUSH1 0x1F NOT PUSH1 0x1F DUP3 ADD AND DUP3 ADD DUP1 PUSH1 0x40 MSTORE POP DUP2 ADD SWAP1 PUSH2 0x1DDA SWAP2 SWAP1 PUSH2 0x556B JUMP JUMPDEST POP CALLER PUSH1 0x1 PUSH1 0x1 PUSH1 0xA0 SHL SUB AND PUSH32 0x223C8AD0806F634524940A8595F819C5CFC7B1F4F4F45791269301DF0A7E61D5 DUP8 DUP4 DUP9 PUSH1 0x40 MLOAD PUSH2 0x1096 SWAP4 SWAP3 SWAP2 SWAP1 PUSH2 0x5616 JUMP JUMPDEST PUSH1 0x0 PUSH2 0x1E22 PUSH2 0x41BB JUMP JUMPDEST POP PUSH1 0x0 DUP1 MLOAD PUSH1 0x20 PUSH2 0x5753 DUP4 CODECOPY DUP2 MLOAD SWAP2 MSTORE SWAP1 JUMP JUMPDEST PUSH2 0x1E3E CALLER PUSH2 0x4204 JUMP JUMPDEST DUP1 PUSH9 0x56BC75E2D63100000 EQ ISZERO DUP1 ISZERO PUSH2 0x1E60 JUMPI POP DUP1 PUSH9 0x1043561A8829300000 EQ ISZERO JUMPDEST DUP1 ISZERO PUSH2 0x1E75 JUMPI POP DUP1 PUSH9 0x1B1AE4D6E2EF500000 EQ ISZERO JUMPDEST DUP1 ISZERO PUSH2 0x1E8A JUMPI POP DUP1 PUSH9 0x3635C9ADC5DEA00000 EQ ISZERO JUMPDEST ISZERO PUSH2 0x1EA8 JUMPI PUSH1 0x40 MLOAD PUSH4 0x162908E3 PUSH1 0xE1 SHL DUP2 MSTORE PUSH1 0x4 ADD PUSH1 0x40 MLOAD DUP1 SWAP2 SUB SWAP1 REVERT JUMPDEST PUSH1 0x0 SLOAD PUSH1 0x40 MLOAD PUSH4 0x23B872DD PUSH1 0xE0 SHL DUP2 MSTORE PUSH1 0x1 PUSH1 0x1 PUSH1 0xA0 SHL SUB SWAP1 SWAP2 AND SWAP1 PUSH4 0x23B872DD SWAP1 PUSH2 0x1EDC SWAP1 CALLER SWAP1 ADDRESS SWAP1 DUP7 SWAP1 PUSH1 0x4 ADD PUSH2 0x5547 JUMP JUMPDEST PUSH1 0x20 PUSH1 0x40 MLOAD DUP1 DUP4 SUB DUP2 PUSH1 0x0 DUP8 GAS CALL ISZERO DUP1 ISZERO PUSH2 0x1EFB JUMPI RETURNDATASIZE PUSH1 0x0 DUP1 RETURNDATACOPY RETURNDATASIZE PUSH1 0x0 REVERT JUMPDEST POP POP POP POP PUSH1 0x40 MLOAD RETURNDATASIZE PUSH1 0x1F NOT PUSH1 0x1F DUP3 ADD AND DUP3 ADD DUP1 PUSH1 0x40 MSTORE POP DUP2 ADD SWAP1 PUSH2 0x1F1F SWAP2 SWAP1 PUSH2 0x556B JUMP JUMPDEST POP CALLER PUSH1 0x0 SWAP1 DUP2 MSTORE PUSH1 0x10 PUSH1 0x20 MSTORE PUSH1 0x40 SWAP1 KECCAK256 PUSH1 0x3 DUP2 ADD SLOAD PUSH1 0xFF AND ISZERO PUSH2 0x1FA5 JUMPI PUSH1 0x18 DUP1 SLOAD SWAP1 PUSH1 0x0 PUSH2 0x1F4C DUP4 PUSH2 0x5671 JUMP JUMPDEST SWAP1 SWAP2 SSTORE POP POP PUSH1 0x18 SLOAD DUP2 SSTORE PUSH1 0x1 DUP2 ADD DUP3 SWAP1 SSTORE TIMESTAMP PUSH1 0x2 DUP3 ADD SSTORE PUSH1 0x3 DUP1 DUP3 ADD DUP1 SLOAD PUSH1 0xFF NOT AND SWAP1 SSTORE CALLER PUSH1 0x0 SWAP1 DUP2 MSTORE PUSH1 0xF PUSH1 0x20 MSTORE PUSH1 0x40 DUP2 KECCAK256 DUP3 ADD SSTORE PUSH2 0x1F8D SWAP1 DUP4 SWAP1 PUSH2 0x559E JUMP JUMPDEST CALLER PUSH1 0x0 SWAP1 DUP2 MSTORE PUSH1 0xF PUSH1 0x20 MSTORE PUSH1 0x40 SWAP1 KECCAK256 PUSH1 0x4 ADD SSTORE PUSH2 0x202F JUMP JUMPDEST DUP1 PUSH1 0x1 ADD SLOAD PUSH1 0x0 SUB PUSH2 0x1FC1 JUMPI PUSH1 0x18 DUP1 SLOAD SWAP1 PUSH1 0x0 PUSH2 0x1F4C DUP4 PUSH2 0x5671 JUMP JUMPDEST DUP2 DUP2 PUSH1 0x1 ADD PUSH1 0x0 DUP3 DUP3 SLOAD PUSH2 0x1FD5 SWAP2 SWAP1 PUSH2 0x55B5 JUMP JUMPDEST SWAP1 SWAP2 SSTORE POP POP CALLER PUSH1 0x0 SWAP1 DUP2 MSTORE PUSH1 0xF PUSH1 0x20 MSTORE PUSH1 0x40 SWAP1 KECCAK256 PUSH1 0x5 ADD SLOAD PUSH1 0xFF AND ISZERO PUSH2 0x1FFC JUMPI TIMESTAMP PUSH1 0x2 DUP3 ADD SSTORE JUMPDEST PUSH2 0x2007 DUP3 PUSH1 0x3 PUSH2 0x559E JUMP JUMPDEST CALLER PUSH1 0x0 SWAP1 DUP2 MSTORE PUSH1 0xF PUSH1 0x20 MSTORE PUSH1 0x40 DUP2 KECCAK256 PUSH1 0x4 ADD DUP1 SLOAD SWAP1 SWAP2 SWAP1 PUSH2 0x2029 SWAP1 DUP5 SWAP1 PUSH2 0x55B5 JUMP JUMPDEST SWAP1 SWAP2 SSTORE POP POP JUMPDEST CALLER PUSH1 0x0 SWAP1 DUP2 MSTORE PUSH1 0xF PUSH1 0x20 MSTORE PUSH1 0x40 SWAP1 KECCAK256 PUSH1 0x9 ADD SLOAD PUSH1 0x1 DUP3 ADD SLOAD GT ISZERO PUSH2 0x2066 JUMPI PUSH1 0x1 DUP2 ADD SLOAD CALLER PUSH1 0x0 SWAP1 DUP2 MSTORE PUSH1 0xF PUSH1 0x20 MSTORE PUSH1 0x40 SWAP1 KECCAK256 PUSH1 0x9 ADD SSTORE JUMPDEST CALLER PUSH1 0x0 SWAP1 DUP2 MSTORE PUSH1 0xF PUSH1 0x20 MSTORE PUSH1 0x40 SWAP1 KECCAK256 PUSH1 0xA ADD SLOAD DUP3 GT ISZERO PUSH2 0x2096 JUMPI CALLER PUSH1 0x0 SWAP1 DUP2 MSTORE PUSH1 0xF PUSH1 0x20 MSTORE PUSH1 0x40 SWAP1 KECCAK256 PUSH1 0xA ADD DUP3 SWAP1 SSTORE JUMPDEST DUP1 SLOAD PUSH1 0x0 SWAP1 DUP2 MSTORE PUSH1 0x1B PUSH1 0x20 SWAP1 DUP2 MSTORE PUSH1 0x40 DUP1 DUP4 KECCAK256 DUP1 SLOAD PUSH1 0x1 PUSH1 0x1 PUSH1 0xA0 SHL SUB NOT AND CALLER SWAP1 DUP2 OR SWAP1 SWAP2 SSTORE DUP4 MSTORE PUSH1 0xF SWAP1 SWAP2 MSTORE SWAP1 KECCAK256 SLOAD PUSH1 0x1 PUSH1 0x1 PUSH1 0xA0 SHL SUB AND DUP1 ISZERO DUP1 ISZERO SWAP1 PUSH2 0x20F9 JUMPI POP PUSH1 0x1 PUSH1 0x1 PUSH1 0xA0 SHL SUB DUP2 AND PUSH1 0x0 SWAP1 DUP2 MSTORE PUSH1 0xF PUSH1 0x20 MSTORE PUSH1 0x40 SWAP1 KECCAK256 PUSH1 0x5 ADD SLOAD PUSH1 0xFF AND JUMPDEST ISZERO PUSH2 0x2172 JUMPI PUSH1 0x0 PUSH1 0x64 PUSH1 0x6 SLOAD DUP6 PUSH2 0x2110 SWAP2 SWAP1 PUSH2 0x559E JUMP JUMPDEST PUSH2 0x211A SWAP2 SWAP1 PUSH2 0x55C8 JUMP JUMPDEST SWAP1 POP PUSH1 0x0 PUSH2 0x212A DUP4 DUP4 PUSH1 0x2 PUSH2 0x43DB JUMP JUMPDEST SWAP1 POP DUP1 ISZERO PUSH2 0x216B JUMPI DUP4 SLOAD PUSH1 0x40 MLOAD CALLER SWAP2 PUSH1 0x1 PUSH1 0x1 PUSH1 0xA0 SHL SUB DUP7 AND SWAP2 PUSH1 0x0 DUP1 MLOAD PUSH1 0x20 PUSH2 0x56F3 DUP4 CODECOPY DUP2 MLOAD SWAP2 MSTORE SWAP2 PUSH2 0x2162 SWAP2 DUP7 SWAP2 PUSH1 0x2 SWAP2 PUSH2 0x568A JUMP JUMPDEST PUSH1 0x40 MLOAD DUP1 SWAP2 SUB SWAP1 LOG3 JUMPDEST POP POP PUSH2 0x2208 JUMP JUMPDEST PUSH1 0x0 SLOAD PUSH1 0x2 SLOAD PUSH1 0x6 SLOAD PUSH1 0x1 PUSH1 0x1 PUSH1 0xA0 SHL SUB SWAP3 DUP4 AND SWAP3 PUSH4 0xA9059CBB SWAP3 AND SWAP1 PUSH1 0x64 SWAP1 PUSH2 0x219C SWAP1 DUP9 PUSH2 0x559E JUMP JUMPDEST PUSH2 0x21A6 SWAP2 SWAP1 PUSH2 0x55C8 JUMP JUMPDEST PUSH1 0x40 MLOAD DUP4 PUSH4 0xFFFFFFFF AND PUSH1 0xE0 SHL DUP2 MSTORE PUSH1 0x4 ADD PUSH2 0x21C3 SWAP3 SWAP2 SWAP1 PUSH2 0x52FF JUMP JUMPDEST PUSH1 0x20 PUSH1 0x40 MLOAD DUP1 DUP4 SUB DUP2 PUSH1 0x0 DUP8 GAS CALL ISZERO DUP1 ISZERO PUSH2 0x21E2 JUMPI RETURNDATASIZE PUSH1 0x0 DUP1 RETURNDATACOPY RETURNDATASIZE PUSH1 0x0 REVERT JUMPDEST POP POP POP POP PUSH1 0x40 MLOAD RETURNDATASIZE PUSH1 0x1F NOT PUSH1 0x1F DUP3 ADD AND DUP3 ADD DUP1 PUSH1 0x40 MSTORE POP DUP2 ADD SWAP1 PUSH2 0x2206 SWAP2 SWAP1 PUSH2 0x556B JUMP JUMPDEST POP JUMPDEST PUSH2 0x2212 CALLER DUP5 PUSH2 0x4574 JUMP JUMPDEST PUSH1 0x0 SLOAD PUSH1 0x2 SLOAD PUSH1 0x8 SLOAD PUSH1 0x1 PUSH1 0x1 PUSH1 0xA0 SHL SUB SWAP3 DUP4 AND SWAP3 PUSH4 0xA9059CBB SWAP3 AND SWAP1 PUSH1 0x64 SWAP1 PUSH2 0x223C SWAP1 DUP9 PUSH2 0x559E JUMP JUMPDEST PUSH2 0x2246 SWAP2 SWAP1 PUSH2 0x55C8 JUMP JUMPDEST PUSH1 0x40 MLOAD DUP4 PUSH4 0xFFFFFFFF AND PUSH1 0xE0 SHL DUP2 MSTORE PUSH1 0x4 ADD PUSH2 0x2263 SWAP3 SWAP2 SWAP1 PUSH2 0x52FF JUMP JUMPDEST PUSH1 0x20 PUSH1 0x40 MLOAD DUP1 DUP4 SUB DUP2 PUSH1 0x0 DUP8 GAS CALL ISZERO DUP1 ISZERO PUSH2 0x2282 JUMPI RETURNDATASIZE PUSH1 0x0 DUP1 RETURNDATACOPY RETURNDATASIZE PUSH1 0x0 REVERT JUMPDEST POP POP POP POP PUSH1 0x40 MLOAD RETURNDATASIZE PUSH1 0x1F NOT PUSH1 0x1F DUP3 ADD AND DUP3 ADD DUP1 PUSH1 0x40 MSTORE POP DUP2 ADD SWAP1 PUSH2 0x22A6 SWAP2 SWAP1 PUSH2 0x556B JUMP JUMPDEST POP PUSH1 0x0 PUSH1 0x64 PUSH1 0x9 SLOAD DUP6 PUSH2 0x22B9 SWAP2 SWAP1 PUSH2 0x559E JUMP JUMPDEST PUSH2 0x22C3 SWAP2 SWAP1 PUSH2 0x55C8 JUMP JUMPDEST SWAP1 POP PUSH2 0x22CE DUP2 PUSH2 0x4799 JUMP JUMPDEST PUSH1 0x0 SLOAD PUSH1 0x4 SLOAD PUSH1 0xA SLOAD PUSH1 0x1 PUSH1 0x1 PUSH1 0xA0 SHL SUB SWAP3 DUP4 AND SWAP3 PUSH4 0xA9059CBB SWAP3 AND SWAP1 PUSH1 0x64 SWAP1 PUSH2 0x22F8 SWAP1 DUP10 PUSH2 0x559E JUMP JUMPDEST PUSH2 0x2302 SWAP2 SWAP1 PUSH2 0x55C8 JUMP JUMPDEST PUSH1 0x40 MLOAD DUP4 PUSH4 0xFFFFFFFF AND PUSH1 0xE0 SHL DUP2 MSTORE PUSH1 0x4 ADD PUSH2 0x231F SWAP3 SWAP2 SWAP1 PUSH2 0x52FF JUMP JUMPDEST PUSH1 0x20 PUSH1 0x40 MLOAD DUP1 DUP4 SUB DUP2 PUSH1 0x0 DUP8 GAS CALL ISZERO DUP1 ISZERO PUSH2 0x233E JUMPI RETURNDATASIZE PUSH1 0x0 DUP1 RETURNDATACOPY RETURNDATASIZE PUSH1 0x0 REVERT JUMPDEST POP POP POP POP PUSH1 0x40 MLOAD RETURNDATASIZE PUSH1 0x1F NOT PUSH1 0x1F DUP3 ADD AND DUP3 ADD DUP1 PUSH1 0x40 MSTORE POP DUP2 ADD SWAP1 PUSH2 0x2362 SWAP2 SWAP1 PUSH2 0x556B JUMP JUMPDEST POP PUSH1 0x0 SLOAD PUSH1 0x3 SLOAD PUSH1 0xB SLOAD PUSH1 0x1 PUSH1 0x1 PUSH1 0xA0 SHL SUB SWAP3 DUP4 AND SWAP3 PUSH4 0xA9059CBB SWAP3 AND SWAP1 PUSH1 0x64 SWAP1 PUSH2 0x238D SWAP1 DUP10 PUSH2 0x559E JUMP JUMPDEST PUSH2 0x2397 SWAP2 SWAP1 PUSH2 0x55C8 JUMP JUMPDEST PUSH1 0x40 MLOAD DUP4 PUSH4 0xFFFFFFFF AND PUSH1 0xE0 SHL DUP2 MSTORE PUSH1 0x4 ADD PUSH2 0x23B4 SWAP3 SWAP2 SWAP1 PUSH2 0x52FF JUMP JUMPDEST PUSH1 0x20 PUSH1 0x40 MLOAD DUP1 DUP4 SUB DUP2 PUSH1 0x0 DUP8 GAS CALL ISZERO DUP1 ISZERO PUSH2 0x23D3 JUMPI RETURNDATASIZE PUSH1 0x0 DUP1 RETURNDATACOPY RETURNDATASIZE PUSH1 0x0 REVERT JUMPDEST POP POP POP POP PUSH1 0x40 MLOAD RETURNDATASIZE PUSH1 0x1F NOT PUSH1 0x1F DUP3 ADD AND DUP3 ADD DUP1 PUSH1 0x40 MSTORE POP DUP2 ADD SWAP1 PUSH2 0x23F7 SWAP2 SWAP1 PUSH2 0x556B JUMP JUMPDEST POP PUSH2 0x2401 CALLER PUSH2 0x3F19 JUMP JUMPDEST DUP3 SLOAD PUSH1 0x40 MLOAD CALLER SWAP2 PUSH32 0x2A91574E12AD96234E84923E146B0946ECFB871CD8D5534DC1FDCBE87A7C01B3 SWAP2 PUSH2 0x1B20 SWAP2 DUP9 SWAP2 PUSH2 0x5142 JUMP JUMPDEST PUSH2 0x243D PUSH2 0x3884 JUMP JUMPDEST PUSH2 0x174E PUSH1 0x0 PUSH2 0x49CD JUMP JUMPDEST PUSH2 0x244F PUSH2 0x3884 JUMP JUMPDEST DUP3 DUP2 EQ PUSH2 0x246F JUMPI PUSH1 0x40 MLOAD PUSH4 0x980A3F31 PUSH1 0xE0 SHL DUP2 MSTORE PUSH1 0x4 ADD PUSH1 0x40 MLOAD DUP1 SWAP2 SUB SWAP1 REVERT JUMPDEST PUSH1 0x0 JUMPDEST DUP4 DUP2 LT ISZERO PUSH2 0x25A6 JUMPI PUSH1 0x0 PUSH1 0xF PUSH1 0x0 DUP8 DUP8 DUP6 DUP2 DUP2 LT PUSH2 0x2492 JUMPI PUSH2 0x2492 PUSH2 0x562C JUMP JUMPDEST SWAP1 POP PUSH1 0x20 MUL ADD PUSH1 0x20 DUP2 ADD SWAP1 PUSH2 0x24A7 SWAP2 SWAP1 PUSH2 0x50D0 JUMP JUMPDEST PUSH1 0x1 PUSH1 0x1 PUSH1 0xA0 SHL SUB AND PUSH1 0x1 PUSH1 0x1 PUSH1 0xA0 SHL SUB AND DUP2 MSTORE PUSH1 0x20 ADD SWAP1 DUP2 MSTORE PUSH1 0x20 ADD PUSH1 0x0 KECCAK256 PUSH1 0x2 ADD SLOAD SWAP1 POP DUP4 DUP4 DUP4 DUP2 DUP2 LT PUSH2 0x24DF JUMPI PUSH2 0x24DF PUSH2 0x562C JUMP JUMPDEST SWAP1 POP PUSH1 0x20 MUL ADD CALLDATALOAD PUSH1 0xF PUSH1 0x0 DUP9 DUP9 DUP7 DUP2 DUP2 LT PUSH2 0x24FC JUMPI PUSH2 0x24FC PUSH2 0x562C JUMP JUMPDEST SWAP1 POP PUSH1 0x20 MUL ADD PUSH1 0x20 DUP2 ADD SWAP1 PUSH2 0x2511 SWAP2 SWAP1 PUSH2 0x50D0 JUMP JUMPDEST PUSH1 0x1 PUSH1 0x1 PUSH1 0xA0 SHL SUB AND DUP2 MSTORE PUSH1 0x20 DUP2 ADD SWAP2 SWAP1 SWAP2 MSTORE PUSH1 0x40 ADD PUSH1 0x0 KECCAK256 PUSH1 0x2 ADD SSTORE DUP6 DUP6 DUP4 DUP2 DUP2 LT PUSH2 0x2540 JUMPI PUSH2 0x2540 PUSH2 0x562C JUMP JUMPDEST SWAP1 POP PUSH1 0x20 MUL ADD PUSH1 0x20 DUP2 ADD SWAP1 PUSH2 0x2555 SWAP2 SWAP1 PUSH2 0x50D0 JUMP JUMPDEST PUSH1 0x1 PUSH1 0x1 PUSH1 0xA0 SHL SUB AND PUSH1 0x0 DUP1 MLOAD PUSH1 0x20 PUSH2 0x5733 DUP4 CODECOPY DUP2 MLOAD SWAP2 MSTORE DUP3 DUP7 DUP7 DUP7 DUP2 DUP2 LT PUSH2 0x2580 JUMPI PUSH2 0x2580 PUSH2 0x562C JUMP JUMPDEST SWAP1 POP PUSH1 0x20 MUL ADD CALLDATALOAD PUSH1 0x40 MLOAD PUSH2 0x2595 SWAP3 SWAP2 SWAP1 PUSH2 0x5142 JUMP JUMPDEST PUSH1 0x40 MLOAD DUP1 SWAP2 SUB SWAP1 LOG2 POP PUSH1 0x1 ADD PUSH2 0x2472 JUMP JUMPDEST POP PUSH1 0x40 MLOAD DUP4 DUP2 MSTORE PUSH32 0x9C03D1F6BA485B6CF0A120117D651729467751D3079318D05171B6F389F6BF4B SWAP1 PUSH1 0x20 ADD JUMPDEST PUSH1 0x40 MLOAD DUP1 SWAP2 SUB SWAP1 LOG1 POP POP POP POP JUMP JUMPDEST PUSH1 0x13 PUSH1 0x20 MSTORE DUP2 PUSH1 0x0 MSTORE PUSH1 0x40 PUSH1 0x0 KECCAK256 DUP2 DUP2 SLOAD DUP2 LT PUSH2 0x25FD JUMPI PUSH1 0x0 DUP1 REVERT JUMPDEST PUSH1 0x0 SWAP2 DUP3 MSTORE PUSH1 0x20 SWAP1 SWAP2 KECCAK256 PUSH1 0x2 SWAP1 SWAP2 MUL ADD DUP1 SLOAD PUSH1 0x1 SWAP1 SWAP2 ADD SLOAD PUSH1 0x1 PUSH1 0x1 PUSH1 0xA0 SHL SUB SWAP1 SWAP2 AND SWAP3 POP SWAP1 POP DUP3 JUMP JUMPDEST PUSH2 0x262F PUSH2 0x3884 JUMP JUMPDEST PUSH1 0x2 DUP1 SLOAD PUSH1 0x1 PUSH1 0x1 PUSH1 0xA0 SHL SUB DUP7 DUP2 AND PUSH1 0x1 PUSH1 0x1 PUSH1 0xA0 SHL SUB NOT SWAP3 DUP4 AND DUP2 OR SWAP1 SWAP4 SSTORE PUSH1 0x3 DUP1 SLOAD DUP8 DUP4 AND SWAP1 DUP5 AND DUP2 OR SWAP1 SWAP2 SSTORE PUSH1 0x4 DUP1 SLOAD DUP8 DUP5 AND SWAP1 DUP6 AND DUP2 OR SWAP1 SWAP2 SSTORE PUSH1 0x5 DUP1 SLOAD SWAP4 DUP8 AND SWAP4 SWAP1 SWAP5 AND DUP4 OR SWAP1 SWAP4 SSTORE PUSH1 0x40 DUP1 MLOAD SWAP5 DUP6 MSTORE PUSH1 0x20 DUP6 ADD SWAP2 SWAP1 SWAP2 MSTORE DUP4 ADD SWAP2 SWAP1 SWAP2 MSTORE PUSH1 0x60 DUP3 ADD MSTORE PUSH32 0x213F1DE8063C19612A553F1480FF341BEA689D36A56A2089F1B9060D599B5D83 SWAP1 PUSH1 0x80 ADD PUSH2 0x25D3 JUMP JUMPDEST PUSH1 0x0 DUP1 PUSH2 0x26CC PUSH2 0x4A29 JUMP JUMPDEST SLOAD PUSH1 0x1 PUSH1 0x1 PUSH1 0xA0 SHL SUB AND SWAP3 SWAP2 POP POP JUMP JUMPDEST PUSH2 0x26E4 PUSH2 0x3884 JUMP JUMPDEST PUSH1 0xD DUP3 SWAP1 SSTORE PUSH1 0xE DUP2 SWAP1 SSTORE PUSH1 0x40 MLOAD PUSH32 0x4E9DD03193A0C81552FB8E6D32280F0D7E0CE8087241DC3D17EF3D193EE231D7 SWAP1 PUSH2 0xC82 SWAP1 DUP5 SWAP1 DUP5 SWAP1 PUSH2 0x5142 JUMP JUMPDEST PUSH2 0x2728 PUSH2 0x3884 JUMP JUMPDEST DUP1 PUSH1 0x1E PUSH1 0x0 DUP3 DUP3 SLOAD PUSH2 0x273A SWAP2 SWAP1 PUSH2 0x55EA JUMP JUMPDEST SWAP1 SWAP2 SSTORE POP POP PUSH1 0x0 SLOAD PUSH1 0x40 MLOAD PUSH4 0xA9059CBB PUSH1 0xE0 SHL DUP2 MSTORE PUSH1 0x1 PUSH1 0x1 PUSH1 0xA0 SHL SUB SWAP1 SWAP2 AND SWAP1 PUSH4 0xA9059CBB SWAP1 PUSH2 0x2771 SWAP1 DUP6 SWAP1 DUP6 SWAP1 PUSH1 0x4 ADD PUSH2 0x52FF JUMP JUMPDEST PUSH1 0x20 PUSH1 0x40 MLOAD DUP1 DUP4 SUB DUP2 PUSH1 0x0 DUP8 GAS CALL ISZERO DUP1 ISZERO PUSH2 0x2790 JUMPI RETURNDATASIZE PUSH1 0x0 DUP1 RETURNDATACOPY RETURNDATASIZE PUSH1 0x0 REVERT JUMPDEST POP POP POP POP PUSH1 0x40 MLOAD RETURNDATASIZE PUSH1 0x1F NOT PUSH1 0x1F DUP3 ADD AND DUP3 ADD DUP1 PUSH1 0x40 MSTORE POP DUP2 ADD SWAP1 PUSH2 0x27B4 SWAP2 SWAP1 PUSH2 0x556B JUMP JUMPDEST POP DUP2 PUSH1 0x1 PUSH1 0x1 PUSH1 0xA0 SHL SUB AND PUSH32 0x27971EE1ACBFBDFB20656657CEB2E0E7B519B9E60FE1A6B1F6D27B159F4A607C DUP3 PUSH1 0x40 MLOAD PUSH2 0x27F0 SWAP2 DUP2 MSTORE PUSH1 0x20 ADD SWAP1 JUMP JUMPDEST PUSH1 0x40 MLOAD DUP1 SWAP2 SUB SWAP1 LOG2 POP POP JUMP JUMPDEST PUSH2 0x2804 PUSH2 0x3884 JUMP JUMPDEST DUP2 ISZERO PUSH2 0x289A JUMPI PUSH1 0x0 SLOAD PUSH1 0x40 MLOAD PUSH4 0x23B872DD PUSH1 0xE0 SHL DUP2 MSTORE PUSH1 0x1 PUSH1 0x1 PUSH1 0xA0 SHL SUB SWAP1 SWAP2 AND SWAP1 PUSH4 0x23B872DD SWAP1 PUSH2 0x283E SWAP1 CALLER SWAP1 ADDRESS SWAP1 DUP8 SWAP1 PUSH1 0x4 ADD PUSH2 0x5547 JUMP JUMPDEST PUSH1 0x20 PUSH1 0x40 MLOAD DUP1 DUP4 SUB DUP2 PUSH1 0x0 DUP8 GAS CALL ISZERO DUP1 ISZERO PUSH2 0x285D JUMPI RETURNDATASIZE PUSH1 0x0 DUP1 RETURNDATACOPY RETURNDATASIZE PUSH1 0x0 REVERT JUMPDEST POP POP POP POP PUSH1 0x40 MLOAD RETURNDATASIZE PUSH1 0x1F NOT PUSH1 0x1F DUP3 ADD AND DUP3 ADD DUP1 PUSH1 0x40 MSTORE POP DUP2 ADD SWAP1 PUSH2 0x2881 SWAP2 SWAP1 PUSH2 0x556B JUMP JUMPDEST POP DUP2 PUSH1 0x16 PUSH1 0x0 DUP3 DUP3 SLOAD PUSH2 0x2894 SWAP2 SWAP1 PUSH2 0x55B5 JUMP JUMPDEST SWAP1 SWAP2 SSTORE POP POP JUMPDEST DUP1 ISZERO PUSH2 0x2930 JUMPI PUSH1 0x1 SLOAD PUSH1 0x40 MLOAD PUSH4 0x23B872DD PUSH1 0xE0 SHL DUP2 MSTORE PUSH1 0x1 PUSH1 0x1 PUSH1 0xA0 SHL SUB SWAP1 SWAP2 AND SWAP1 PUSH4 0x23B872DD SWAP1 PUSH2 0x28D4 SWAP1 CALLER SWAP1 ADDRESS SWAP1 DUP7 SWAP1 PUSH1 0x4 ADD PUSH2 0x5547 JUMP JUMPDEST PUSH1 0x20 PUSH1 0x40 MLOAD DUP1 DUP4 SUB DUP2 PUSH1 0x0 DUP8 GAS CALL ISZERO DUP1 ISZERO PUSH2 0x28F3 JUMPI RETURNDATASIZE PUSH1 0x0 DUP1 RETURNDATACOPY RETURNDATASIZE PUSH1 0x0 REVERT JUMPDEST POP POP POP POP PUSH1 0x40 MLOAD RETURNDATASIZE PUSH1 0x1F NOT PUSH1 0x1F DUP3 ADD AND DUP3 ADD DUP1 PUSH1 0x40 MSTORE POP DUP2 ADD SWAP1 PUSH2 0x2917 SWAP2 SWAP1 PUSH2 0x556B JUMP JUMPDEST POP DUP1 PUSH1 0x17 PUSH1 0x0 DUP3 DUP3 SLOAD PUSH2 0x292A SWAP2 SWAP1 PUSH2 0x55B5 JUMP JUMPDEST SWAP1 SWAP2 SSTORE POP POP JUMPDEST PUSH32 0x38F8A0C92F4C5B0B6877F878CB4C0C8D348A47B76D716C8E78F425043DF9515B DUP3 DUP3 PUSH1 0x40 MLOAD PUSH2 0xC82 SWAP3 SWAP2 SWAP1 PUSH2 0x5142 JUMP JUMPDEST PUSH2 0x2969 PUSH2 0x3884 JUMP JUMPDEST PUSH1 0x14 DUP2 SWAP1 SSTORE PUSH1 0x40 MLOAD DUP2 DUP2 MSTORE PUSH32 0xD28D9E4CE68D89AF7920CB8618E342A78F51E545C530CE60F1CB1D6F0235B47F SWAP1 PUSH1 0x20 ADD JUMPDEST PUSH1 0x40 MLOAD DUP1 SWAP2 SUB SWAP1 LOG1 POP JUMP JUMPDEST PUSH1 0x1C PUSH1 0x20 MSTORE DUP2 PUSH1 0x0 MSTORE PUSH1 0x40 PUSH1 0x0 KECCAK256 DUP2 DUP2 SLOAD DUP2 LT PUSH2 0x25FD JUMPI PUSH1 0x0 DUP1 REVERT JUMPDEST PUSH1 0x11 PUSH1 0x20 MSTORE DUP2 PUSH1 0x0 MSTORE PUSH1 0x40 PUSH1 0x0 KECCAK256 DUP2 DUP2 SLOAD DUP2 LT PUSH2 0x29DD JUMPI PUSH1 0x0 DUP1 REVERT JUMPDEST PUSH1 0x0 SWAP2 DUP3 MSTORE PUSH1 0x20 SWAP1 SWAP2 KECCAK256 PUSH1 0x6 SWAP1 SWAP2 MUL ADD DUP1 SLOAD PUSH1 0x1 DUP3 ADD SLOAD PUSH1 0x2 DUP4 ADD SLOAD PUSH1 0x3 DUP5 ADD SLOAD PUSH1 0x4 DUP6 ADD SLOAD PUSH1 0x5 SWAP1 SWAP6 ADD SLOAD SWAP4 SWAP7 POP SWAP2 SWAP5 POP SWAP3 SWAP1 SWAP2 PUSH1 0xFF SWAP1 SWAP2 AND SWAP1 DUP7 JUMP JUMPDEST PUSH1 0x15 SLOAD PUSH2 0x100 SWAP1 DIV PUSH1 0xFF AND PUSH2 0x2A62 JUMPI PUSH1 0x40 MLOAD PUSH3 0x461BCD PUSH1 0xE5 SHL DUP2 MSTORE PUSH1 0x20 PUSH1 0x4 DUP3 ADD MSTORE PUSH1 0x8 PUSH1 0x24 DUP3 ADD MSTORE PUSH8 0x111A5CD8589B1959 PUSH1 0xC2 SHL PUSH1 0x44 DUP3 ADD MSTORE PUSH1 0x64 ADD JUMPDEST PUSH1 0x40 MLOAD DUP1 SWAP2 SUB SWAP1 REVERT JUMPDEST CALLER PUSH1 0x0 SWAP1 DUP2 MSTORE PUSH1 0x11 PUSH1 0x20 MSTORE PUSH1 0x40 DUP2 KECCAK256 SWAP1 DUP1 DUP1 DUP1 JUMPDEST DUP5 SLOAD DUP2 LT ISZERO PUSH2 0x2DD0 JUMPI DUP5 DUP2 DUP2 SLOAD DUP2 LT PUSH2 0x2A91 JUMPI PUSH2 0x2A91 PUSH2 0x562C JUMP JUMPDEST PUSH1 0x0 SWAP2 DUP3 MSTORE PUSH1 0x20 SWAP1 SWAP2 KECCAK256 PUSH1 0x4 PUSH1 0x6 SWAP1 SWAP3 MUL ADD ADD SLOAD PUSH1 0xFF AND ISZERO PUSH2 0x2DC8 JUMPI PUSH1 0x0 PUSH1 0x3C DUP7 DUP4 DUP2 SLOAD DUP2 LT PUSH2 0x2AC3 JUMPI PUSH2 0x2AC3 PUSH2 0x562C JUMP JUMPDEST SWAP1 PUSH1 0x0 MSTORE PUSH1 0x20 PUSH1 0x0 KECCAK256 SWAP1 PUSH1 0x6 MUL ADD PUSH1 0x3 ADD SLOAD PUSH2 0x2ADF SWAP2 SWAP1 PUSH2 0x559E JUMP JUMPDEST DUP7 DUP4 DUP2 SLOAD DUP2 LT PUSH2 0x2AF1 JUMPI PUSH2 0x2AF1 PUSH2 0x562C JUMP JUMPDEST SWAP1 PUSH1 0x0 MSTORE PUSH1 0x20 PUSH1 0x0 KECCAK256 SWAP1 PUSH1 0x6 MUL ADD PUSH1 0x2 ADD SLOAD PUSH2 0x2B0D SWAP2 SWAP1 PUSH2 0x55B5 JUMP JUMPDEST SWAP1 POP DUP1 TIMESTAMP LT PUSH2 0x2DC6 JUMPI PUSH1 0x0 DUP7 DUP4 DUP2 SLOAD DUP2 LT PUSH2 0x2B2A JUMPI PUSH2 0x2B2A PUSH2 0x562C JUMP JUMPDEST SWAP1 PUSH1 0x0 MSTORE PUSH1 0x20 PUSH1 0x0 KECCAK256 SWAP1 PUSH1 0x6 MUL ADD PUSH1 0x3 ADD SLOAD PUSH1 0x7 SUB PUSH2 0x2B4D JUMPI POP PUSH3 0xCB7356 PUSH2 0x2BB4 JUMP JUMPDEST DUP7 DUP4 DUP2 SLOAD DUP2 LT PUSH2 0x2B5F JUMPI PUSH2 0x2B5F PUSH2 0x562C JUMP JUMPDEST SWAP1 PUSH1 0x0 MSTORE PUSH1 0x20 PUSH1 0x0 KECCAK256 SWAP1 PUSH1 0x6 MUL ADD PUSH1 0x3 ADD SLOAD PUSH1 0xF SUB PUSH2 0x2B82 JUMPI POP PUSH3 0xFE502B PUSH2 0x2BB4 JUMP JUMPDEST DUP7 DUP4 DUP2 SLOAD DUP2 LT PUSH2 0x2B94 JUMPI PUSH2 0x2B94 PUSH2 0x562C JUMP JUMPDEST SWAP1 PUSH1 0x0 MSTORE PUSH1 0x20 PUSH1 0x0 KECCAK256 SWAP1 PUSH1 0x6 MUL ADD PUSH1 0x3 ADD SLOAD PUSH1 0x1E SUB PUSH2 0x2BB4 JUMPI POP PUSH4 0x1312D00 JUMPDEST PUSH1 0x0 PUSH4 0x3B9ACA00 DUP9 DUP6 DUP2 SLOAD DUP2 LT PUSH2 0x2BCD JUMPI PUSH2 0x2BCD PUSH2 0x562C JUMP JUMPDEST SWAP1 PUSH1 0x0 MSTORE PUSH1 0x20 PUSH1 0x0 KECCAK256 SWAP1 PUSH1 0x6 MUL ADD PUSH1 0x3 ADD SLOAD DUP4 DUP11 DUP8 DUP2 SLOAD DUP2 LT PUSH2 0x2BF2 JUMPI PUSH2 0x2BF2 PUSH2 0x562C JUMP JUMPDEST SWAP1 PUSH1 0x0 MSTORE PUSH1 0x20 PUSH1 0x0 KECCAK256 SWAP1 PUSH1 0x6 MUL ADD PUSH1 0x1 ADD SLOAD PUSH2 0x2C0E SWAP2 SWAP1 PUSH2 0x559E JUMP JUMPDEST PUSH2 0x2C18 SWAP2 SWAP1 PUSH2 0x559E JUMP JUMPDEST PUSH2 0x2C22 SWAP2 SWAP1 PUSH2 0x55C8 JUMP JUMPDEST SWAP1 POP PUSH1 0x0 DUP9 DUP6 DUP2 SLOAD DUP2 LT PUSH2 0x2C38 JUMPI PUSH2 0x2C38 PUSH2 0x562C JUMP JUMPDEST SWAP1 PUSH1 0x0 MSTORE PUSH1 0x20 PUSH1 0x0 KECCAK256 SWAP1 PUSH1 0x6 MUL ADD PUSH1 0x5 ADD SLOAD DUP3 GT ISZERO PUSH2 0x2C83 JUMPI DUP9 DUP6 DUP2 SLOAD DUP2 LT PUSH2 0x2C63 JUMPI PUSH2 0x2C63 PUSH2 0x562C JUMP JUMPDEST SWAP1 PUSH1 0x0 MSTORE PUSH1 0x20 PUSH1 0x0 KECCAK256 SWAP1 PUSH1 0x6 MUL ADD PUSH1 0x5 ADD SLOAD DUP3 PUSH2 0x2C80 SWAP2 SWAP1 PUSH2 0x55EA JUMP JUMPDEST SWAP1 POP JUMPDEST PUSH2 0x2C8D DUP2 DUP8 PUSH2 0x55B5 JUMP JUMPDEST SWAP6 POP DUP1 DUP10 DUP7 DUP2 SLOAD DUP2 LT PUSH2 0x2CA2 JUMPI PUSH2 0x2CA2 PUSH2 0x562C JUMP JUMPDEST SWAP1 PUSH1 0x0 MSTORE PUSH1 0x20 PUSH1 0x0 KECCAK256 SWAP1 PUSH1 0x6 MUL ADD PUSH1 0x5 ADD PUSH1 0x0 DUP3 DUP3 SLOAD PUSH2 0x2CC2 SWAP2 SWAP1 PUSH2 0x55B5 JUMP JUMPDEST SWAP1 SWAP2 SSTORE POP POP CALLER PUSH1 0x0 SWAP1 DUP2 MSTORE PUSH1 0xF PUSH1 0x20 MSTORE PUSH1 0x40 DUP2 KECCAK256 PUSH1 0x9 ADD SLOAD SWAP1 DUP2 SWAP1 SUB PUSH2 0x2CF7 JUMPI POP CALLER PUSH1 0x0 SWAP1 DUP2 MSTORE PUSH1 0x10 PUSH1 0x20 MSTORE PUSH1 0x40 SWAP1 KECCAK256 PUSH1 0x1 ADD SLOAD JUMPDEST PUSH1 0x0 PUSH1 0x64 PUSH1 0xC SLOAD DUP4 PUSH2 0x2D09 SWAP2 SWAP1 PUSH2 0x559E JUMP JUMPDEST PUSH2 0x2D13 SWAP2 SWAP1 PUSH2 0x55C8 JUMP JUMPDEST SWAP1 POP PUSH1 0x0 DUP12 DUP9 DUP2 SLOAD DUP2 LT PUSH2 0x2D29 JUMPI PUSH2 0x2D29 PUSH2 0x562C JUMP JUMPDEST SWAP1 PUSH1 0x0 MSTORE PUSH1 0x20 PUSH1 0x0 KECCAK256 SWAP1 PUSH1 0x6 MUL ADD PUSH1 0x1 ADD SLOAD SWAP1 POP DUP1 DUP12 PUSH2 0x2D49 SWAP2 SWAP1 PUSH2 0x55B5 JUMP JUMPDEST SWAP11 POP PUSH2 0x2D55 DUP3 DUP12 PUSH2 0x55B5 JUMP JUMPDEST SWAP10 POP PUSH1 0x0 DUP13 DUP10 DUP2 SLOAD DUP2 LT PUSH2 0x2D6B JUMPI PUSH2 0x2D6B PUSH2 0x562C JUMP JUMPDEST SWAP1 PUSH1 0x0 MSTORE PUSH1 0x20 PUSH1 0x0 KECCAK256 SWAP1 PUSH1 0x6 MUL ADD PUSH1 0x4 ADD PUSH1 0x0 PUSH2 0x100 EXP DUP2 SLOAD DUP2 PUSH1 0xFF MUL NOT AND SWAP1 DUP4 ISZERO ISZERO MUL OR SWAP1 SSTORE POP PUSH2 0x2DBF DUP13 DUP10 DUP2 SLOAD DUP2 LT PUSH2 0x2DA8 JUMPI PUSH2 0x2DA8 PUSH2 0x562C JUMP JUMPDEST SWAP1 PUSH1 0x0 MSTORE PUSH1 0x20 PUSH1 0x0 KECCAK256 SWAP1 PUSH1 0x6 MUL ADD PUSH1 0x0 ADD SLOAD PUSH2 0x4A4D JUMP JUMPDEST POP POP POP POP POP POP JUMPDEST POP JUMPDEST PUSH1 0x1 ADD PUSH2 0x2A76 JUMP JUMPDEST POP PUSH1 0x0 DUP4 GT DUP1 PUSH2 0x2DE0 JUMPI POP PUSH1 0x0 DUP2 GT JUMPDEST PUSH2 0x2E20 JUMPI PUSH1 0x40 MLOAD PUSH3 0x461BCD PUSH1 0xE5 SHL DUP2 MSTORE PUSH1 0x20 PUSH1 0x4 DUP3 ADD MSTORE PUSH1 0x11 PUSH1 0x24 DUP3 ADD MSTORE PUSH17 0x4E6F7468696E6720746F2072656465656D PUSH1 0x78 SHL PUSH1 0x44 DUP3 ADD MSTORE PUSH1 0x64 ADD PUSH2 0x2A59 JUMP JUMPDEST DUP2 ISZERO PUSH2 0x2EB6 JUMPI PUSH1 0x0 SLOAD PUSH1 0x40 MLOAD PUSH4 0x23B872DD PUSH1 0xE0 SHL DUP2 MSTORE PUSH1 0x1 PUSH1 0x1 PUSH1 0xA0 SHL SUB SWAP1 SWAP2 AND SWAP1 PUSH4 0x23B872DD SWAP1 PUSH2 0x2E5A SWAP1 CALLER SWAP1 ADDRESS SWAP1 DUP8 SWAP1 PUSH1 0x4 ADD PUSH2 0x5547 JUMP JUMPDEST PUSH1 0x20 PUSH1 0x40 MLOAD DUP1 DUP4 SUB DUP2 PUSH1 0x0 DUP8 GAS CALL ISZERO DUP1 ISZERO PUSH2 0x2E79 JUMPI RETURNDATASIZE PUSH1 0x0 DUP1 RETURNDATACOPY RETURNDATASIZE PUSH1 0x0 REVERT JUMPDEST POP POP POP POP PUSH1 0x40 MLOAD RETURNDATASIZE PUSH1 0x1F NOT PUSH1 0x1F DUP3 ADD AND DUP3 ADD DUP1 PUSH1 0x40 MSTORE POP DUP2 ADD SWAP1 PUSH2 0x2E9D SWAP2 SWAP1 PUSH2 0x556B JUMP JUMPDEST POP DUP2 PUSH1 0x16 PUSH1 0x0 DUP3 DUP3 SLOAD PUSH2 0x2EB0 SWAP2 SWAP1 PUSH2 0x55B5 JUMP JUMPDEST SWAP1 SWAP2 SSTORE POP POP JUMPDEST DUP1 ISZERO PUSH2 0x3244 JUMPI CALLER PUSH1 0x0 SWAP1 DUP2 MSTORE PUSH1 0xF PUSH1 0x20 MSTORE PUSH1 0x40 DUP2 KECCAK256 PUSH1 0x3 DUP2 ADD SLOAD PUSH1 0x4 SWAP1 SWAP2 ADD SLOAD PUSH2 0x2EE0 SWAP2 SWAP1 PUSH2 0x55EA JUMP JUMPDEST SWAP1 POP DUP1 DUP3 GT ISZERO PUSH2 0x2F1F JUMPI CALLER PUSH1 0x1 PUSH1 0x1 PUSH1 0xA0 SHL SUB AND PUSH1 0x0 DUP1 MLOAD PUSH1 0x20 PUSH2 0x5773 DUP4 CODECOPY DUP2 MLOAD SWAP2 MSTORE DUP4 DUP4 PUSH1 0x40 MLOAD PUSH2 0x2F13 SWAP3 SWAP2 SWAP1 PUSH2 0x5142 JUMP JUMPDEST PUSH1 0x40 MLOAD DUP1 SWAP2 SUB SWAP1 LOG2 DUP1 SWAP2 POP JUMPDEST DUP2 ISZERO PUSH2 0x3242 JUMPI CALLER PUSH1 0x0 SWAP1 DUP2 MSTORE PUSH1 0xF PUSH1 0x20 MSTORE PUSH1 0x40 DUP2 KECCAK256 PUSH1 0x3 ADD DUP1 SLOAD DUP5 SWAP3 SWAP1 PUSH2 0x2F47 SWAP1 DUP5 SWAP1 PUSH2 0x55B5 JUMP JUMPDEST SWAP1 SWAP2 SSTORE POP PUSH1 0x0 SWAP1 POP PUSH2 0x2F5A PUSH1 0x2 DUP5 PUSH2 0x55C8 JUMP JUMPDEST SWAP1 POP PUSH1 0x0 PUSH2 0x2F69 PUSH1 0x2 DUP6 PUSH2 0x55C8 JUMP JUMPDEST PUSH1 0x0 DUP1 SLOAD PUSH1 0x40 MLOAD PUSH4 0x70A08231 PUSH1 0xE0 SHL DUP2 MSTORE SWAP3 SWAP4 POP SWAP1 SWAP2 DUP5 SWAP2 PUSH1 0x1 PUSH1 0x1 PUSH1 0xA0 SHL SUB AND SWAP1 PUSH4 0x70A08231 SWAP1 PUSH2 0x2F9F SWAP1 ADDRESS SWAP1 PUSH1 0x4 ADD PUSH2 0x5115 JUMP JUMPDEST PUSH1 0x20 PUSH1 0x40 MLOAD DUP1 DUP4 SUB DUP2 DUP7 GAS STATICCALL ISZERO DUP1 ISZERO PUSH2 0x2FBC JUMPI RETURNDATASIZE PUSH1 0x0 DUP1 RETURNDATACOPY RETURNDATASIZE PUSH1 0x0 REVERT JUMPDEST POP POP POP POP PUSH1 0x40 MLOAD RETURNDATASIZE PUSH1 0x1F NOT PUSH1 0x1F DUP3 ADD AND DUP3 ADD DUP1 PUSH1 0x40 MSTORE POP DUP2 ADD SWAP1 PUSH2 0x2FE0 SWAP2 SWAP1 PUSH2 0x55FD JUMP JUMPDEST LT ISZERO DUP1 ISZERO PUSH2 0x2FEE JUMPI POP PUSH1 0x0 DUP4 GT JUMPDEST ISZERO PUSH2 0x306D JUMPI PUSH1 0x0 SLOAD PUSH1 0x40 MLOAD PUSH4 0xA9059CBB PUSH1 0xE0 SHL DUP2 MSTORE PUSH1 0x1 PUSH1 0x1 PUSH1 0xA0 SHL SUB SWAP1 SWAP2 AND SWAP1 PUSH4 0xA9059CBB SWAP1 PUSH2 0x3025 SWAP1 CALLER SWAP1 DUP8 SWAP1 PUSH1 0x4 ADD PUSH2 0x52FF JUMP JUMPDEST PUSH1 0x20 PUSH1 0x40 MLOAD DUP1 DUP4 SUB DUP2 PUSH1 0x0 DUP8 GAS CALL ISZERO DUP1 ISZERO PUSH2 0x3044 JUMPI RETURNDATASIZE PUSH1 0x0 DUP1 RETURNDATACOPY RETURNDATASIZE PUSH1 0x0 REVERT JUMPDEST POP POP POP POP PUSH1 0x40 MLOAD RETURNDATASIZE PUSH1 0x1F NOT PUSH1 0x1F DUP3 ADD AND DUP3 ADD DUP1 PUSH1 0x40 MSTORE POP DUP2 ADD SWAP1 PUSH2 0x3068 SWAP2 SWAP1 PUSH2 0x556B JUMP JUMPDEST POP DUP3 SWAP1 POP JUMPDEST PUSH1 0x0 PUSH1 0x17 SLOAD PUSH1 0x0 EQ PUSH2 0x30A0 JUMPI PUSH1 0x17 SLOAD PUSH1 0x16 SLOAD PUSH2 0x3091 SWAP1 PUSH8 0xDE0B6B3A7640000 PUSH2 0x559E JUMP JUMPDEST PUSH2 0x309B SWAP2 SWAP1 PUSH2 0x55C8 JUMP JUMPDEST PUSH2 0x30AA JUMP JUMPDEST PUSH8 0xDE0B6B3A7640000 JUMPDEST SWAP1 POP PUSH1 0x0 DUP2 PUSH2 0x30C1 DUP6 PUSH8 0xDE0B6B3A7640000 PUSH2 0x559E JUMP JUMPDEST PUSH2 0x30CB SWAP2 SWAP1 PUSH2 0x55C8 JUMP JUMPDEST PUSH1 0x1 SLOAD PUSH1 0x40 MLOAD PUSH4 0x70A08231 PUSH1 0xE0 SHL DUP2 MSTORE SWAP2 SWAP3 POP PUSH1 0x0 SWAP2 DUP4 SWAP2 PUSH1 0x1 PUSH1 0x1 PUSH1 0xA0 SHL SUB AND SWAP1 PUSH4 0x70A08231 SWAP1 PUSH2 0x3101 SWAP1 ADDRESS SWAP1 PUSH1 0x4 ADD PUSH2 0x5115 JUMP JUMPDEST PUSH1 0x20 PUSH1 0x40 MLOAD DUP1 DUP4 SUB DUP2 DUP7 GAS STATICCALL ISZERO DUP1 ISZERO PUSH2 0x311E JUMPI RETURNDATASIZE PUSH1 0x0 DUP1 RETURNDATACOPY RETURNDATASIZE PUSH1 0x0 REVERT JUMPDEST POP POP POP POP PUSH1 0x40 MLOAD RETURNDATASIZE PUSH1 0x1F NOT PUSH1 0x1F DUP3 ADD AND DUP3 ADD DUP1 PUSH1 0x40 MSTORE POP DUP2 ADD SWAP1 PUSH2 0x3142 SWAP2 SWAP1 PUSH2 0x55FD JUMP JUMPDEST LT ISZERO DUP1 ISZERO PUSH2 0x3150 JUMPI POP PUSH1 0x0 DUP3 GT JUMPDEST ISZERO PUSH2 0x31CF JUMPI PUSH1 0x1 SLOAD PUSH1 0x40 MLOAD PUSH4 0xA9059CBB PUSH1 0xE0 SHL DUP2 MSTORE PUSH1 0x1 PUSH1 0x1 PUSH1 0xA0 SHL SUB SWAP1 SWAP2 AND SWAP1 PUSH4 0xA9059CBB SWAP1 PUSH2 0x3187 SWAP1 CALLER SWAP1 DUP7 SWAP1 PUSH1 0x4 ADD PUSH2 0x52FF JUMP JUMPDEST PUSH1 0x20 PUSH1 0x40 MLOAD DUP1 DUP4 SUB DUP2 PUSH1 0x0 DUP8 GAS CALL ISZERO DUP1 ISZERO PUSH2 0x31A6 JUMPI RETURNDATASIZE PUSH1 0x0 DUP1 RETURNDATACOPY RETURNDATASIZE PUSH1 0x0 REVERT JUMPDEST POP POP POP POP PUSH1 0x40 MLOAD RETURNDATASIZE PUSH1 0x1F NOT PUSH1 0x1F DUP3 ADD AND DUP3 ADD DUP1 PUSH1 0x40 MSTORE POP DUP2 ADD SWAP1 PUSH2 0x31CA SWAP2 SWAP1 PUSH2 0x556B JUMP JUMPDEST POP DUP2 SWAP1 POP JUMPDEST CALLER PUSH1 0x1 PUSH1 0x1 PUSH1 0xA0 SHL SUB AND PUSH1 0x0 DUP1 MLOAD PUSH1 0x20 PUSH2 0x5793 DUP4 CODECOPY DUP2 MLOAD SWAP2 MSTORE DUP10 PUSH1 0x0 PUSH1 0x40 MLOAD PUSH2 0x31F9 SWAP3 SWAP2 SWAP1 PUSH2 0x5642 JUMP JUMPDEST PUSH1 0x40 MLOAD DUP1 SWAP2 SUB SWAP1 LOG2 CALLER PUSH1 0x0 DUP2 DUP2 MSTORE PUSH1 0x10 PUSH1 0x20 MSTORE PUSH1 0x40 DUP1 DUP3 KECCAK256 SLOAD SWAP1 MLOAD PUSH1 0x0 DUP1 MLOAD PUSH1 0x20 PUSH2 0x5713 DUP4 CODECOPY DUP2 MLOAD SWAP2 MSTORE SWAP3 PUSH2 0x3233 SWAP3 DUP10 SWAP3 DUP8 SWAP3 SWAP2 SWAP1 PUSH2 0x5653 JUMP JUMPDEST PUSH1 0x40 MLOAD DUP1 SWAP2 SUB SWAP1 LOG2 POP POP POP POP POP POP JUMPDEST POP JUMPDEST DUP3 ISZERO PUSH2 0x32C1 JUMPI PUSH1 0x0 SLOAD PUSH1 0x40 MLOAD PUSH4 0xA9059CBB PUSH1 0xE0 SHL DUP2 MSTORE PUSH1 0x1 PUSH1 0x1 PUSH1 0xA0 SHL SUB SWAP1 SWAP2 AND SWAP1 PUSH4 0xA9059CBB SWAP1 PUSH2 0x327C SWAP1 CALLER SWAP1 DUP8 SWAP1 PUSH1 0x4 ADD PUSH2 0x52FF JUMP JUMPDEST PUSH1 0x20 PUSH1 0x40 MLOAD DUP1 DUP4 SUB DUP2 PUSH1 0x0 DUP8 GAS CALL ISZERO DUP1 ISZERO PUSH2 0x329B JUMPI RETURNDATASIZE PUSH1 0x0 DUP1 RETURNDATACOPY RETURNDATASIZE PUSH1 0x0 REVERT JUMPDEST POP POP POP POP PUSH1 0x40 MLOAD RETURNDATASIZE PUSH1 0x1F NOT PUSH1 0x1F DUP3 ADD AND DUP3 ADD DUP1 PUSH1 0x40 MSTORE POP DUP2 ADD SWAP1 PUSH2 0x32BF SWAP2 SWAP1 PUSH2 0x556B JUMP JUMPDEST POP JUMPDEST CALLER PUSH1 0x0 SWAP1 DUP2 MSTORE PUSH1 0xF PUSH1 0x20 MSTORE PUSH1 0x40 DUP2 KECCAK256 PUSH1 0x6 ADD DUP1 SLOAD DUP5 SWAP3 SWAP1 PUSH2 0x32E3 SWAP1 DUP5 SWAP1 PUSH2 0x55B5 JUMP JUMPDEST SWAP1 SWAP2 SSTORE POP POP PUSH1 0x40 MLOAD CALLER SWAP1 PUSH1 0x0 DUP1 MLOAD PUSH1 0x20 PUSH2 0x57B3 DUP4 CODECOPY DUP2 MLOAD SWAP2 MSTORE SWAP1 PUSH2 0x330A SWAP1 DUP7 SWAP1 DUP7 SWAP1 PUSH2 0x5142 JUMP JUMPDEST PUSH1 0x40 MLOAD DUP1 SWAP2 SUB SWAP1 LOG2 PUSH2 0x331B CALLER PUSH2 0x3F19 JUMP JUMPDEST CALLER PUSH1 0x0 SWAP1 DUP2 MSTORE PUSH1 0xF PUSH1 0x20 MSTORE PUSH1 0x40 SWAP1 KECCAK256 PUSH1 0x4 DUP2 ADD SLOAD PUSH1 0x3 SWAP1 SWAP2 ADD SLOAD LT PUSH2 0x1B29 JUMPI PUSH2 0x1B29 CALLER PUSH2 0x38B6 JUMP JUMPDEST PUSH1 0x0 PUSH2 0x334D PUSH2 0x4C14 JUMP JUMPDEST DUP1 SLOAD SWAP1 SWAP2 POP PUSH1 0xFF PUSH1 0x1 PUSH1 0x40 SHL DUP3 DIV AND ISZERO SWAP1 PUSH1 0x1 PUSH1 0x1 PUSH1 0x40 SHL SUB AND PUSH1 0x0 DUP2 ISZERO DUP1 ISZERO PUSH2 0x3374 JUMPI POP DUP3 JUMPDEST SWAP1 POP PUSH1 0x0 DUP3 PUSH1 0x1 PUSH1 0x1 PUSH1 0x40 SHL SUB AND PUSH1 0x1 EQ DUP1 ISZERO PUSH2 0x3390 JUMPI POP ADDRESS EXTCODESIZE ISZERO JUMPDEST SWAP1 POP DUP2 ISZERO DUP1 ISZERO PUSH2 0x339E JUMPI POP DUP1 ISZERO JUMPDEST ISZERO PUSH2 0x33BC JUMPI PUSH1 0x40 MLOAD PUSH4 0xF92EE8A9 PUSH1 0xE0 SHL DUP2 MSTORE PUSH1 0x4 ADD PUSH1 0x40 MLOAD DUP1 SWAP2 SUB SWAP1 REVERT JUMPDEST DUP5 SLOAD PUSH1 0x1 PUSH1 0x1 PUSH1 0x40 SHL SUB NOT AND PUSH1 0x1 OR DUP6 SSTORE DUP4 ISZERO PUSH2 0x33E5 JUMPI DUP5 SLOAD PUSH1 0xFF PUSH1 0x40 SHL NOT AND PUSH1 0x1 PUSH1 0x40 SHL OR DUP6 SSTORE JUMPDEST PUSH2 0x33EE CALLER PUSH2 0x4C3F JUMP JUMPDEST PUSH2 0x33F6 PUSH2 0x4C50 JUMP JUMPDEST PUSH1 0x0 DUP1 SLOAD PUSH1 0x1 PUSH1 0x1 PUSH1 0xA0 SHL SUB NOT SWAP1 DUP2 AND PUSH1 0x1 PUSH1 0x1 PUSH1 0xA0 SHL SUB DUP15 DUP2 AND SWAP2 SWAP1 SWAP2 OR SWAP1 SWAP3 SSTORE PUSH1 0x1 DUP1 SLOAD DUP3 AND DUP14 DUP5 AND OR DUP2 SSTORE PUSH1 0x2 DUP1 SLOAD DUP4 AND DUP14 DUP6 AND OR SWAP1 SSTORE PUSH1 0x3 DUP1 SLOAD DUP4 AND DUP13 DUP6 AND OR SWAP1 SSTORE PUSH1 0x4 DUP1 SLOAD DUP4 AND DUP12 DUP6 AND OR SWAP1 SSTORE PUSH1 0x5 DUP1 SLOAD SWAP1 SWAP3 AND SWAP3 DUP10 AND SWAP3 SWAP1 SWAP3 OR DUP2 SSTORE PUSH1 0x19 PUSH1 0x6 DUP2 SWAP1 SSTORE PUSH1 0xF PUSH1 0x7 SSTORE PUSH1 0x8 DUP3 SWAP1 SSTORE PUSH1 0x9 SWAP2 SWAP1 SWAP2 SSTORE PUSH1 0xA DUP2 SWAP1 SSTORE PUSH1 0xB DUP2 SWAP1 SSTORE PUSH1 0xC SWAP2 SWAP1 SWAP2 SSTORE PUSH1 0x32 PUSH1 0xD SSTORE PUSH1 0xE SSTORE PUSH3 0x3F480 PUSH1 0x14 SSTORE PUSH1 0x15 DUP1 SLOAD PUSH2 0xFFFF NOT AND PUSH2 0x101 OR SWAP1 SSTORE TIMESTAMP PUSH1 0x1A SSTORE DUP4 ISZERO PUSH2 0x34E7 JUMPI DUP5 SLOAD PUSH1 0xFF PUSH1 0x40 SHL NOT AND DUP6 SSTORE PUSH1 0x40 MLOAD PUSH1 0x1 DUP2 MSTORE PUSH32 0xC7F505B2F371AE2175EE4913F4499E1F2633A7B5936321EED1CDAEB6115181D2 SWAP1 PUSH1 0x20 ADD PUSH1 0x40 MLOAD DUP1 SWAP2 SUB SWAP1 LOG1 JUMPDEST POP POP POP POP POP POP POP POP POP POP POP JUMP JUMPDEST PUSH2 0x34FC PUSH2 0x3884 JUMP JUMPDEST PUSH1 0x40 MLOAD PUSH4 0xA9059CBB PUSH1 0xE0 SHL DUP2 MSTORE PUSH1 0x1 PUSH1 0x1 PUSH1 0xA0 SHL SUB DUP5 AND SWAP1 PUSH4 0xA9059CBB SWAP1 PUSH2 0x352A SWAP1 DUP6 SWAP1 DUP6 SWAP1 PUSH1 0x4 ADD PUSH2 0x52FF JUMP JUMPDEST PUSH1 0x20 PUSH1 0x40 MLOAD DUP1 DUP4 SUB DUP2 PUSH1 0x0 DUP8 GAS CALL ISZERO DUP1 ISZERO PUSH2 0x3549 JUMPI RETURNDATASIZE PUSH1 0x0 DUP1 RETURNDATACOPY RETURNDATASIZE PUSH1 0x0 REVERT JUMPDEST POP POP POP POP PUSH1 0x40 MLOAD RETURNDATASIZE PUSH1 0x1F NOT PUSH1 0x1F DUP3 ADD AND DUP3 ADD DUP1 PUSH1 0x40 MSTORE POP DUP2 ADD SWAP1 PUSH2 0x356D SWAP2 SWAP1 PUSH2 0x556B JUMP JUMPDEST POP PUSH32 0x77023E19C7343AD491FD706C36335CA0E738340A91F29B1FD81E2673D44896C4 DUP4 DUP4 DUP4 PUSH1 0x40 MLOAD PUSH2 0x35A1 SWAP4 SWAP3 SWAP2 SWAP1 PUSH2 0x5547 JUMP JUMPDEST PUSH1 0x40 MLOAD DUP1 SWAP2 SUB SWAP1 LOG1 POP POP POP JUMP JUMPDEST PUSH2 0x35B6 PUSH2 0x3884 JUMP JUMPDEST PUSH1 0x6 DUP7 SWAP1 SSTORE PUSH1 0x7 DUP6 SWAP1 SSTORE PUSH1 0x8 DUP5 SWAP1 SSTORE PUSH1 0x9 DUP4 SWAP1 SSTORE PUSH1 0xA DUP3 SWAP1 SSTORE PUSH1 0xB DUP2 SWAP1 SSTORE PUSH1 0x40 DUP1 MLOAD DUP8 DUP2 MSTORE PUSH1 0x20 DUP2 ADD DUP8 SWAP1 MSTORE SWAP1 DUP2 ADD DUP6 SWAP1 MSTORE PUSH1 0x60 DUP2 ADD DUP5 SWAP1 MSTORE PUSH1 0x80 DUP2 ADD DUP4 SWAP1 MSTORE PUSH1 0xA0 DUP2 ADD DUP3 SWAP1 MSTORE PUSH32 0x66682B276E4CD1A4E1F68B55B1143766C5332F472EB593CF2A70A25D9D5D9917 SWAP1 PUSH1 0xC0 ADD PUSH1 0x40 MLOAD DUP1 SWAP2 SUB SWAP1 LOG1 POP POP POP POP POP POP JUMP JUMPDEST PUSH1 0x1 PUSH1 0x1 PUSH1 0xA0 SHL SUB DUP2 AND PUSH1 0x0 SWAP1 DUP2 MSTORE PUSH1 0x12 PUSH1 0x20 SWAP1 DUP2 MSTORE PUSH1 0x40 SWAP2 DUP3 SWAP1 KECCAK256 DUP1 SLOAD DUP4 MLOAD DUP2 DUP5 MUL DUP2 ADD DUP5 ADD SWAP1 SWAP5 MSTORE DUP1 DUP5 MSTORE PUSH1 0x60 SWAP4 SWAP3 DUP4 ADD DUP3 DUP3 DUP1 ISZERO PUSH2 0x369C JUMPI PUSH1 0x20 MUL DUP3 ADD SWAP2 SWAP1 PUSH1 0x0 MSTORE PUSH1 0x20 PUSH1 0x0 KECCAK256 SWAP1 JUMPDEST DUP2 SLOAD PUSH1 0x1 PUSH1 0x1 PUSH1 0xA0 SHL SUB AND DUP2 MSTORE PUSH1 0x1 SWAP1 SWAP2 ADD SWAP1 PUSH1 0x20 ADD DUP1 DUP4 GT PUSH2 0x367E JUMPI JUMPDEST POP POP POP POP POP SWAP1 POP SWAP2 SWAP1 POP JUMP JUMPDEST PUSH2 0x36B0 PUSH2 0x3884 JUMP JUMPDEST DUP3 ISZERO PUSH2 0x3744 JUMPI DUP3 PUSH1 0x16 PUSH1 0x0 DUP3 DUP3 SLOAD PUSH2 0x36C8 SWAP2 SWAP1 PUSH2 0x55EA JUMP JUMPDEST SWAP1 SWAP2 SSTORE POP POP PUSH1 0x0 SLOAD PUSH1 0x40 MLOAD PUSH4 0xA9059CBB PUSH1 0xE0 SHL DUP2 MSTORE PUSH1 0x1 PUSH1 0x1 PUSH1 0xA0 SHL SUB SWAP1 SWAP2 AND SWAP1 PUSH4 0xA9059CBB SWAP1 PUSH2 0x36FF SWAP1 DUP8 SWAP1 DUP8 SWAP1 PUSH1 0x4 ADD PUSH2 0x52FF JUMP JUMPDEST PUSH1 0x20 PUSH1 0x40 MLOAD DUP1 DUP4 SUB DUP2 PUSH1 0x0 DUP8 GAS CALL ISZERO DUP1 ISZERO PUSH2 0x371E JUMPI RETURNDATASIZE PUSH1 0x0 DUP1 RETURNDATACOPY RETURNDATASIZE PUSH1 0x0 REVERT JUMPDEST POP POP POP POP PUSH1 0x40 MLOAD RETURNDATASIZE PUSH1 0x1F NOT PUSH1 0x1F DUP3 ADD AND DUP3 ADD DUP1 PUSH1 0x40 MSTORE POP DUP2 ADD SWAP1 PUSH2 0x3742 SWAP2 SWAP1 PUSH2 0x556B JUMP JUMPDEST POP JUMPDEST DUP1 ISZERO PUSH2 0x37D8 JUMPI DUP1 PUSH1 0x17 PUSH1 0x0 DUP3 DUP3 SLOAD PUSH2 0x375C SWAP2 SWAP1 PUSH2 0x55EA JUMP JUMPDEST SWAP1 SWAP2 SSTORE POP POP PUSH1 0x1 SLOAD PUSH1 0x40 MLOAD PUSH4 0xA9059CBB PUSH1 0xE0 SHL DUP2 MSTORE PUSH1 0x1 PUSH1 0x1 PUSH1 0xA0 SHL SUB SWAP1 SWAP2 AND SWAP1 PUSH4 0xA9059CBB SWAP1 PUSH2 0x3793 SWAP1 DUP6 SWAP1 DUP6 SWAP1 PUSH1 0x4 ADD PUSH2 0x52FF JUMP JUMPDEST PUSH1 0x20 PUSH1 0x40 MLOAD DUP1 DUP4 SUB DUP2 PUSH1 0x0 DUP8 GAS CALL ISZERO DUP1 ISZERO PUSH2 0x37B2 JUMPI RETURNDATASIZE PUSH1 0x0 DUP1 RETURNDATACOPY RETURNDATASIZE PUSH1 0x0 REVERT JUMPDEST POP POP POP POP PUSH1 0x40 MLOAD RETURNDATASIZE PUSH1 0x1F NOT PUSH1 0x1F DUP3 ADD AND DUP3 ADD DUP1 PUSH1 0x40 MSTORE POP DUP2 ADD SWAP1 PUSH2 0x37D6 SWAP2 SWAP1 PUSH2 0x556B JUMP JUMPDEST POP JUMPDEST PUSH32 0x520BC217D25EF4588524228DFFCFA518F4AD52178C71D49B8061D016213CD311 DUP4 DUP3 PUSH1 0x40 MLOAD PUSH2 0x25D3 SWAP3 SWAP2 SWAP1 PUSH2 0x5142 JUMP JUMPDEST PUSH2 0x3811 PUSH2 0x3884 JUMP JUMPDEST PUSH1 0xC DUP2 SWAP1 SSTORE PUSH1 0x40 MLOAD DUP2 DUP2 MSTORE PUSH32 0xC7F6975DCFFC536E6E57DD1D1DEA810FFF534A70563BAF2D6F977B119BD00E1B SWAP1 PUSH1 0x20 ADD PUSH2 0x299A JUMP JUMPDEST PUSH2 0x384E PUSH2 0x3884 JUMP JUMPDEST PUSH1 0x1 PUSH1 0x1 PUSH1 0xA0 SHL SUB DUP2 AND PUSH2 0x3878 JUMPI PUSH1 0x0 PUSH1 0x40 MLOAD PUSH4 0x1E4FBDF7 PUSH1 0xE0 SHL DUP2 MSTORE PUSH1 0x4 ADD PUSH2 0x2A59 SWAP2 SWAP1 PUSH2 0x5115 JUMP JUMPDEST PUSH2 0x3881 DUP2 PUSH2 0x49CD JUMP JUMPDEST POP JUMP JUMPDEST CALLER PUSH2 0x388D PUSH2 0x26C1 JUMP JUMPDEST PUSH1 0x1 PUSH1 0x1 PUSH1 0xA0 SHL SUB AND EQ PUSH2 0x174E JUMPI CALLER PUSH1 0x40 MLOAD PUSH4 0x118CDAA7 PUSH1 0xE0 SHL DUP2 MSTORE PUSH1 0x4 ADD PUSH2 0x2A59 SWAP2 SWAP1 PUSH2 0x5115 JUMP JUMPDEST PUSH1 0x1 PUSH1 0x1 PUSH1 0xA0 SHL SUB DUP2 AND PUSH1 0x0 SWAP1 DUP2 MSTORE PUSH1 0x10 PUSH1 0x20 MSTORE PUSH1 0x40 SWAP1 KECCAK256 PUSH1 0x3 DUP2 ADD SLOAD PUSH1 0xFF AND PUSH2 0x1B4A JUMPI PUSH1 0x3 DUP2 ADD DUP1 SLOAD PUSH1 0xFF NOT AND PUSH1 0x1 OR SWAP1 SSTORE PUSH1 0x1 PUSH1 0x1 PUSH1 0xA0 SHL SUB DUP3 AND PUSH1 0x0 SWAP1 DUP2 MSTORE PUSH1 0x11 PUSH1 0x20 MSTORE PUSH1 0x40 DUP2 KECCAK256 SWAP1 DUP1 DUP1 JUMPDEST DUP4 SLOAD DUP2 LT ISZERO PUSH2 0x3A28 JUMPI DUP4 DUP2 DUP2 SLOAD DUP2 LT PUSH2 0x3920 JUMPI PUSH2 0x3920 PUSH2 0x562C JUMP JUMPDEST PUSH1 0x0 SWAP2 DUP3 MSTORE PUSH1 0x20 SWAP1 SWAP2 KECCAK256 PUSH1 0x4 PUSH1 0x6 SWAP1 SWAP3 MUL ADD ADD SLOAD PUSH1 0xFF AND ISZERO PUSH2 0x3A20 JUMPI PUSH1 0x0 PUSH2 0x12C PUSH1 0xC SLOAD DUP7 DUP5 DUP2 SLOAD DUP2 LT PUSH2 0x3956 JUMPI PUSH2 0x3956 PUSH2 0x562C JUMP JUMPDEST SWAP1 PUSH1 0x0 MSTORE PUSH1 0x20 PUSH1 0x0 KECCAK256 SWAP1 PUSH1 0x6 MUL ADD PUSH1 0x1 ADD SLOAD PUSH1 0x2 PUSH2 0x3974 SWAP2 SWAP1 PUSH2 0x559E JUMP JUMPDEST PUSH2 0x397E SWAP2 SWAP1 PUSH2 0x559E JUMP JUMPDEST PUSH2 0x3988 SWAP2 SWAP1 PUSH2 0x55C8 JUMP JUMPDEST SWAP1 POP PUSH1 0x0 DUP6 DUP4 DUP2 SLOAD DUP2 LT PUSH2 0x399E JUMPI PUSH2 0x399E PUSH2 0x562C JUMP JUMPDEST SWAP1 PUSH1 0x0 MSTORE PUSH1 0x20 PUSH1 0x0 KECCAK256 SWAP1 PUSH1 0x6 MUL ADD PUSH1 0x1 ADD SLOAD SWAP1 POP DUP2 DUP2 LT PUSH2 0x39CA JUMPI PUSH2 0x39C3 DUP3 DUP3 PUSH2 0x55EA JUMP JUMPDEST SWAP1 POP PUSH2 0x39CF JUMP JUMPDEST PUSH1 0x0 SWAP2 POP JUMPDEST PUSH2 0x39D9 DUP2 DUP7 PUSH2 0x55B5 JUMP JUMPDEST SWAP5 POP PUSH2 0x39E5 DUP3 DUP6 PUSH2 0x55B5 JUMP JUMPDEST SWAP4 POP PUSH1 0x0 DUP7 DUP5 DUP2 SLOAD DUP2 LT PUSH2 0x39FB JUMPI PUSH2 0x39FB PUSH2 0x562C JUMP JUMPDEST PUSH1 0x0 SWAP2 DUP3 MSTORE PUSH1 0x20 SWAP1 SWAP2 KECCAK256 PUSH1 0x6 SWAP1 SWAP2 MUL ADD PUSH1 0x4 ADD DUP1 SLOAD PUSH1 0xFF NOT AND SWAP2 ISZERO ISZERO SWAP2 SWAP1 SWAP2 OR SWAP1 SSTORE POP POP JUMPDEST PUSH1 0x1 ADD PUSH2 0x3905 JUMP JUMPDEST POP DUP2 ISZERO PUSH2 0x3AA6 JUMPI PUSH1 0x0 SLOAD PUSH1 0x40 MLOAD PUSH4 0xA9059CBB PUSH1 0xE0 SHL DUP2 MSTORE PUSH1 0x1 PUSH1 0x1 PUSH1 0xA0 SHL SUB SWAP1 SWAP2 AND SWAP1 PUSH4 0xA9059CBB SWAP1 PUSH2 0x3A61 SWAP1 DUP9 SWAP1 DUP7 SWAP1 PUSH1 0x4 ADD PUSH2 0x52FF JUMP JUMPDEST PUSH1 0x20 PUSH1 0x40 MLOAD DUP1 DUP4 SUB DUP2 PUSH1 0x0 DUP8 GAS CALL ISZERO DUP1 ISZERO PUSH2 0x3A80 JUMPI RETURNDATASIZE PUSH1 0x0 DUP1 RETURNDATACOPY RETURNDATASIZE PUSH1 0x0 REVERT JUMPDEST POP POP POP POP PUSH1 0x40 MLOAD RETURNDATASIZE PUSH1 0x1F NOT PUSH1 0x1F DUP3 ADD AND DUP3 ADD DUP1 PUSH1 0x40 MSTORE POP DUP2 ADD SWAP1 PUSH2 0x3AA4 SWAP2 SWAP1 PUSH2 0x556B JUMP JUMPDEST POP JUMPDEST DUP1 ISZERO PUSH2 0x3ADD JUMPI PUSH1 0x1 PUSH1 0x1 PUSH1 0xA0 SHL SUB DUP6 AND PUSH1 0x0 SWAP1 DUP2 MSTORE PUSH1 0xF PUSH1 0x20 MSTORE PUSH1 0x40 DUP2 KECCAK256 PUSH1 0x6 ADD DUP1 SLOAD DUP4 SWAP3 SWAP1 PUSH2 0x3AD7 SWAP1 DUP5 SWAP1 PUSH2 0x55B5 JUMP JUMPDEST SWAP1 SWAP2 SSTORE POP POP JUMPDEST PUSH1 0x1 PUSH1 0x1 PUSH1 0xA0 SHL SUB DUP1 DUP7 AND PUSH1 0x0 SWAP1 DUP2 MSTORE PUSH1 0xF PUSH1 0x20 MSTORE PUSH1 0x40 SWAP1 KECCAK256 PUSH1 0x5 DUP2 ADD DUP1 SLOAD PUSH1 0xFF NOT DUP2 AND SWAP1 SWAP2 SSTORE SWAP1 SLOAD PUSH1 0xFF SWAP1 SWAP2 AND SWAP2 AND DUP2 DUP1 ISZERO PUSH2 0x3B22 JUMPI POP PUSH1 0x1 PUSH1 0x1 PUSH1 0xA0 SHL SUB DUP2 AND ISZERO ISZERO JUMPDEST DUP1 ISZERO PUSH2 0x3B48 JUMPI POP PUSH1 0x1 PUSH1 0x1 PUSH1 0xA0 SHL SUB DUP2 AND PUSH1 0x0 SWAP1 DUP2 MSTORE PUSH1 0xF PUSH1 0x20 MSTORE PUSH1 0x40 SWAP1 KECCAK256 PUSH1 0x1 ADD SLOAD ISZERO ISZERO JUMPDEST ISZERO PUSH2 0x3B7A JUMPI PUSH1 0x1 PUSH1 0x1 PUSH1 0xA0 SHL SUB DUP2 AND PUSH1 0x0 SWAP1 DUP2 MSTORE PUSH1 0xF PUSH1 0x20 MSTORE PUSH1 0x40 DUP2 KECCAK256 PUSH1 0x1 ADD DUP1 SLOAD SWAP2 PUSH2 0x3B74 DUP4 PUSH2 0x56A3 JUMP JUMPDEST SWAP2 SWAP1 POP SSTORE POP JUMPDEST DUP7 PUSH1 0x1 PUSH1 0x1 PUSH1 0xA0 SHL SUB AND PUSH1 0x0 DUP1 MLOAD PUSH1 0x20 PUSH2 0x57B3 DUP4 CODECOPY DUP2 MLOAD SWAP2 MSTORE DUP6 DUP6 PUSH1 0x40 MLOAD PUSH2 0x3BA3 SWAP3 SWAP2 SWAP1 PUSH2 0x5142 JUMP JUMPDEST PUSH1 0x40 MLOAD DUP1 SWAP2 SUB SWAP1 LOG2 DUP6 SLOAD PUSH1 0x40 MLOAD SWAP1 DUP2 MSTORE PUSH1 0x1 PUSH1 0x1 PUSH1 0xA0 SHL SUB DUP9 AND SWAP1 PUSH32 0x920BB94EB3842A728DB98228C375FF6B00C5BC5A54FAC6736155517A0A20A61A SWAP1 PUSH1 0x20 ADD PUSH1 0x40 MLOAD DUP1 SWAP2 SUB SWAP1 LOG2 POP POP POP POP POP POP POP JUMP JUMPDEST PUSH1 0x0 DUP1 PUSH2 0x2710 DUP4 LT PUSH2 0x3C0C JUMPI POP PUSH1 0x9 SWAP3 PUSH1 0x2D SWAP3 POP SWAP1 POP JUMP JUMPDEST PUSH2 0x1388 DUP4 LT PUSH2 0x3C21 JUMPI POP PUSH1 0x8 SWAP3 PUSH1 0x28 SWAP3 POP SWAP1 POP JUMP JUMPDEST PUSH2 0x7D0 DUP4 LT PUSH2 0x3C36 JUMPI POP PUSH1 0x7 SWAP3 PUSH1 0x23 SWAP3 POP SWAP1 POP JUMP JUMPDEST PUSH2 0x3E8 DUP4 LT PUSH2 0x3C4B JUMPI POP PUSH1 0x6 SWAP3 PUSH1 0x1E SWAP3 POP SWAP1 POP JUMP JUMPDEST PUSH2 0x1F4 DUP4 LT PUSH2 0x3C60 JUMPI POP PUSH1 0x5 SWAP3 PUSH1 0x19 SWAP3 POP SWAP1 POP JUMP JUMPDEST PUSH1 0xC8 DUP4 LT PUSH2 0x3C74 JUMPI POP PUSH1 0x4 SWAP3 PUSH1 0x14 SWAP3 POP SWAP1 POP JUMP JUMPDEST PUSH1 0x64 DUP4 LT PUSH2 0x3C88 JUMPI POP PUSH1 0x3 SWAP3 PUSH1 0xF SWAP3 POP SWAP1 POP JUMP JUMPDEST PUSH1 0x32 DUP4 LT PUSH2 0x3C9C JUMPI POP PUSH1 0x2 SWAP3 PUSH1 0xA SWAP3 POP SWAP1 POP JUMP JUMPDEST PUSH1 0x14 DUP4 LT PUSH2 0x3CB0 JUMPI POP PUSH1 0x1 SWAP3 PUSH1 0x5 SWAP3 POP SWAP1 POP JUMP JUMPDEST POP PUSH1 0x0 SWAP3 DUP4 SWAP3 POP SWAP1 POP JUMP JUMPDEST PUSH1 0x1 PUSH1 0x1 PUSH1 0xA0 SHL SUB DUP1 DUP5 AND PUSH1 0x0 SWAP1 DUP2 MSTORE PUSH1 0xF PUSH1 0x20 MSTORE PUSH1 0x40 DUP2 KECCAK256 SLOAD SWAP1 SWAP2 AND SWAP1 DUP1 JUMPDEST PUSH1 0x1 PUSH1 0x1 PUSH1 0xA0 SHL SUB DUP4 AND ISZERO DUP1 ISZERO SWAP1 PUSH2 0x3CF3 JUMPI POP PUSH1 0x14 DUP2 LT JUMPDEST ISZERO PUSH2 0x3F11 JUMPI PUSH1 0x1 PUSH1 0x1 PUSH1 0xA0 SHL SUB DUP4 AND PUSH1 0x0 SWAP1 DUP2 MSTORE PUSH1 0xF PUSH1 0x20 MSTORE PUSH1 0x40 SWAP1 KECCAK256 PUSH1 0x5 ADD SLOAD PUSH1 0xFF AND PUSH2 0x3D4B JUMPI PUSH1 0x1 PUSH1 0x1 PUSH1 0xA0 SHL SUB SWAP3 DUP4 AND PUSH1 0x0 SWAP1 DUP2 MSTORE PUSH1 0xF PUSH1 0x20 MSTORE PUSH1 0x40 SWAP1 KECCAK256 SLOAD SWAP1 SWAP3 AND SWAP2 DUP1 PUSH2 0x3D43 DUP2 PUSH2 0x5671 JUMP JUMPDEST SWAP2 POP POP PUSH2 0x3CDB JUMP JUMPDEST PUSH1 0x1 PUSH1 0x1 PUSH1 0xA0 SHL SUB DUP4 AND PUSH1 0x0 SWAP1 DUP2 MSTORE PUSH1 0x10 PUSH1 0x20 MSTORE PUSH1 0x40 SWAP1 KECCAK256 PUSH1 0x1 DUP2 ADD SLOAD ISZERO DUP1 PUSH2 0x3D78 JUMPI POP PUSH1 0x3 DUP2 ADD SLOAD PUSH1 0xFF AND JUMPDEST ISZERO PUSH2 0x3DAE JUMPI PUSH1 0x1 PUSH1 0x1 PUSH1 0xA0 SHL SUB SWAP4 DUP5 AND PUSH1 0x0 SWAP1 DUP2 MSTORE PUSH1 0xF PUSH1 0x20 MSTORE PUSH1 0x40 SWAP1 KECCAK256 SLOAD SWAP1 SWAP4 AND SWAP3 DUP2 PUSH2 0x3DA5 DUP2 PUSH2 0x5671 JUMP JUMPDEST SWAP3 POP POP POP PUSH2 0x3CDB JUMP JUMPDEST PUSH1 0x1 PUSH1 0x1 PUSH1 0xA0 SHL SUB DUP5 AND PUSH1 0x0 SWAP1 DUP2 MSTORE PUSH1 0xF PUSH1 0x20 MSTORE PUSH1 0x40 DUP2 KECCAK256 PUSH1 0x2 ADD SLOAD PUSH2 0x3DD3 SWAP1 PUSH2 0x1750 JUMP JUMPDEST SWAP2 POP POP DUP4 DUP2 GT ISZERO PUSH2 0x3ED0 JUMPI PUSH1 0x0 PUSH2 0x3DEA DUP6 DUP4 PUSH2 0x55EA JUMP JUMPDEST PUSH1 0x1 DUP5 ADD SLOAD SWAP1 SWAP2 POP DUP9 SWAP1 DUP2 GT ISZERO PUSH2 0x3E02 JUMPI POP PUSH1 0x1 DUP4 ADD SLOAD JUMPDEST PUSH1 0x0 PUSH1 0x64 PUSH2 0x3E10 DUP5 DUP5 PUSH2 0x559E JUMP JUMPDEST PUSH2 0x3E1A SWAP2 SWAP1 PUSH2 0x55C8 JUMP JUMPDEST PUSH1 0x0 DUP11 DUP2 MSTORE PUSH1 0x1C PUSH1 0x20 SWAP1 DUP2 MSTORE PUSH1 0x40 DUP1 DUP4 KECCAK256 DUP2 MLOAD DUP1 DUP4 ADD DUP4 MSTORE PUSH1 0x1 PUSH1 0x1 PUSH1 0xA0 SHL SUB DUP15 DUP2 AND DUP1 DUP4 MSTORE DUP3 DUP7 ADD DUP9 DUP2 MSTORE DUP5 SLOAD PUSH1 0x1 DUP1 DUP3 ADD DUP8 SSTORE SWAP6 DUP10 MSTORE DUP8 DUP10 KECCAK256 SWAP5 MLOAD PUSH1 0x2 SWAP2 DUP3 MUL SWAP1 SWAP6 ADD DUP1 SLOAD PUSH1 0x1 PUSH1 0x1 PUSH1 0xA0 SHL SUB NOT AND SWAP6 SWAP1 SWAP5 AND SWAP5 SWAP1 SWAP5 OR DUP4 SSTORE MLOAD SWAP2 SWAP1 SWAP4 ADD SSTORE DUP2 DUP6 MSTORE PUSH1 0xF SWAP1 SWAP4 MSTORE SWAP3 DUP2 SWAP1 KECCAK256 SWAP1 SWAP2 ADD SLOAD SWAP1 MLOAD SWAP3 SWAP4 POP SWAP1 SWAP2 DUP12 SWAP2 PUSH32 0xCF2F68CC66431465B13B971EA50F7D9D3C6B29A6D132D354CC3C9CF9585AB59F SWAP2 PUSH2 0x3EC1 SWAP2 DUP7 SWAP2 PUSH2 0x5142 JUMP JUMPDEST PUSH1 0x40 MLOAD DUP1 SWAP2 SUB SWAP1 LOG3 DUP4 SWAP7 POP POP POP POP JUMPDEST PUSH1 0x2D DUP2 LT PUSH2 0x3EDF JUMPI POP POP PUSH2 0x3F11 JUMP JUMPDEST PUSH1 0x1 PUSH1 0x1 PUSH1 0xA0 SHL SUB SWAP5 DUP6 AND PUSH1 0x0 SWAP1 DUP2 MSTORE PUSH1 0xF PUSH1 0x20 MSTORE PUSH1 0x40 SWAP1 KECCAK256 SLOAD SWAP1 SWAP5 AND SWAP4 DUP3 PUSH2 0x3F07 DUP2 PUSH2 0x5671 JUMP JUMPDEST SWAP4 POP POP POP POP PUSH2 0x3CDB JUMP JUMPDEST POP POP POP POP POP POP JUMP JUMPDEST PUSH1 0x1 PUSH1 0x1 PUSH1 0xA0 SHL SUB DUP2 AND PUSH1 0x0 SWAP1 DUP2 MSTORE PUSH1 0x10 PUSH1 0x20 MSTORE PUSH1 0x40 DUP2 KECCAK256 SWAP1 DUP1 PUSH2 0x3F3C DUP5 PUSH2 0x4C58 JUMP JUMPDEST GT DUP1 ISZERO PUSH2 0x3F4E JUMPI POP PUSH1 0x3 DUP3 ADD SLOAD PUSH1 0xFF AND ISZERO JUMPDEST PUSH1 0x1 PUSH1 0x1 PUSH1 0xA0 SHL SUB DUP5 AND PUSH1 0x0 SWAP1 DUP2 MSTORE PUSH1 0xF PUSH1 0x20 MSTORE PUSH1 0x40 SWAP1 KECCAK256 PUSH1 0x5 ADD SLOAD SWAP1 SWAP2 POP PUSH1 0xFF AND DUP1 ISZERO ISZERO DUP3 ISZERO ISZERO SUB PUSH2 0x3F81 JUMPI POP POP POP POP JUMP JUMPDEST PUSH1 0x1 PUSH1 0x1 PUSH1 0xA0 SHL SUB DUP5 DUP2 AND PUSH1 0x0 SWAP1 DUP2 MSTORE PUSH1 0xF PUSH1 0x20 MSTORE PUSH1 0x40 SWAP1 KECCAK256 PUSH1 0x5 DUP2 ADD DUP1 SLOAD PUSH1 0xFF NOT AND DUP6 ISZERO ISZERO OR SWAP1 SSTORE SLOAD AND DUP1 PUSH2 0x3FB8 JUMPI POP POP POP POP POP JUMP JUMPDEST DUP3 ISZERO PUSH2 0x3FFA JUMPI PUSH1 0x1 PUSH1 0x1 PUSH1 0xA0 SHL SUB DUP2 AND PUSH1 0x0 SWAP1 DUP2 MSTORE PUSH1 0xF PUSH1 0x20 MSTORE PUSH1 0x40 DUP2 KECCAK256 PUSH1 0x1 ADD DUP1 SLOAD SWAP2 PUSH2 0x3FE5 DUP4 PUSH2 0x5671 JUMP JUMPDEST SWAP2 SWAP1 POP SSTORE POP PUSH2 0x3FF5 DUP6 PUSH1 0x1 PUSH2 0x4CEA JUMP JUMPDEST PUSH2 0x4053 JUMP JUMPDEST PUSH1 0x1 PUSH1 0x1 PUSH1 0xA0 SHL SUB DUP2 AND PUSH1 0x0 SWAP1 DUP2 MSTORE PUSH1 0xF PUSH1 0x20 MSTORE PUSH1 0x40 SWAP1 KECCAK256 PUSH1 0x1 ADD SLOAD ISZERO PUSH2 0x4053 JUMPI PUSH1 0x1 PUSH1 0x1 PUSH1 0xA0 SHL SUB DUP2 AND PUSH1 0x0 SWAP1 DUP2 MSTORE PUSH1 0xF PUSH1 0x20 MSTORE PUSH1 0x40 DUP2 KECCAK256 PUSH1 0x1 ADD DUP1 SLOAD SWAP2 PUSH2 0x4042 DUP4 PUSH2 0x56A3 JUMP JUMPDEST SWAP2 SWAP1 POP SSTORE POP PUSH2 0x4053 DUP6 PUSH1 0x0 NOT PUSH2 0x4CEA JUMP JUMPDEST POP POP POP POP POP JUMP JUMPDEST ADDRESS PUSH1 0x1 PUSH1 0x1 PUSH1 0xA0 SHL SUB PUSH32 0x0 AND EQ DUP1 PUSH2 0x40E1 JUMPI POP PUSH32 0x0 PUSH1 0x1 PUSH1 0x1 PUSH1 0xA0 SHL SUB AND PUSH2 0x40D5 PUSH1 0x0 DUP1 MLOAD PUSH1 0x20 PUSH2 0x5753 DUP4 CODECOPY DUP2 MLOAD SWAP2 MSTORE SLOAD PUSH1 0x1 PUSH1 0x1 PUSH1 0xA0 SHL SUB AND SWAP1 JUMP JUMPDEST PUSH1 0x1 PUSH1 0x1 PUSH1 0xA0 SHL SUB AND EQ ISZERO JUMPDEST ISZERO PUSH2 0x174E JUMPI PUSH1 0x40 MLOAD PUSH4 0x703E46DD PUSH1 0xE1 SHL DUP2 MSTORE PUSH1 0x4 ADD PUSH1 0x40 MLOAD DUP1 SWAP2 SUB SWAP1 REVERT JUMPDEST PUSH2 0x3881 PUSH2 0x3884 JUMP JUMPDEST DUP2 PUSH1 0x1 PUSH1 0x1 PUSH1 0xA0 SHL SUB AND PUSH4 0x52D1902D PUSH1 0x40 MLOAD DUP2 PUSH4 0xFFFFFFFF AND PUSH1 0xE0 SHL DUP2 MSTORE PUSH1 0x4 ADD PUSH1 0x20 PUSH1 0x40 MLOAD DUP1 DUP4 SUB DUP2 DUP7 GAS STATICCALL SWAP3 POP POP POP DUP1 ISZERO PUSH2 0x4161 JUMPI POP PUSH1 0x40 DUP1 MLOAD PUSH1 0x1F RETURNDATASIZE SWAP1 DUP2 ADD PUSH1 0x1F NOT AND DUP3 ADD SWAP1 SWAP3 MSTORE PUSH2 0x415E SWAP2 DUP2 ADD SWAP1 PUSH2 0x55FD JUMP JUMPDEST PUSH1 0x1 JUMPDEST PUSH2 0x4180 JUMPI DUP2 PUSH1 0x40 MLOAD PUSH4 0x4C9C8CE3 PUSH1 0xE0 SHL DUP2 MSTORE PUSH1 0x4 ADD PUSH2 0x2A59 SWAP2 SWAP1 PUSH2 0x5115 JUMP JUMPDEST PUSH1 0x0 DUP1 MLOAD PUSH1 0x20 PUSH2 0x5753 DUP4 CODECOPY DUP2 MLOAD SWAP2 MSTORE DUP2 EQ PUSH2 0x41B1 JUMPI PUSH1 0x40 MLOAD PUSH4 0x2A875269 PUSH1 0xE2 SHL DUP2 MSTORE PUSH1 0x4 DUP2 ADD DUP3 SWAP1 MSTORE PUSH1 0x24 ADD PUSH2 0x2A59 JUMP JUMPDEST PUSH2 0x140C DUP4 DUP4 PUSH2 0x4E1E JUMP JUMPDEST ADDRESS PUSH1 0x1 PUSH1 0x1 PUSH1 0xA0 SHL SUB PUSH32 0x0 AND EQ PUSH2 0x174E JUMPI PUSH1 0x40 MLOAD PUSH4 0x703E46DD PUSH1 0xE1 SHL DUP2 MSTORE PUSH1 0x4 ADD PUSH1 0x40 MLOAD DUP1 SWAP2 SUB SWAP1 REVERT JUMPDEST PUSH1 0x1 PUSH1 0x1 PUSH1 0xA0 SHL SUB DUP2 AND PUSH1 0x0 SWAP1 DUP2 MSTORE PUSH1 0x10 PUSH1 0x20 MSTORE PUSH1 0x40 SWAP1 KECCAK256 PUSH1 0x1 DUP2 ADD SLOAD ISZERO DUP1 PUSH2 0x4231 JUMPI POP PUSH1 0x3 DUP2 ADD SLOAD PUSH1 0xFF AND JUMPDEST ISZERO PUSH2 0x423A JUMPI POP POP JUMP JUMPDEST PUSH1 0x0 PUSH2 0x4245 DUP4 PUSH2 0x4C58 JUMP JUMPDEST GT ISZERO PUSH2 0x424F JUMPI POP POP JUMP JUMPDEST PUSH1 0x14 SLOAD DUP2 PUSH1 0x2 ADD SLOAD PUSH2 0x4261 SWAP2 SWAP1 PUSH2 0x55B5 JUMP JUMPDEST TIMESTAMP GT PUSH2 0x426B JUMPI POP POP JUMP JUMPDEST DUP1 SLOAD PUSH1 0x1 DUP3 ADD SLOAD PUSH1 0x1 PUSH1 0x1 PUSH1 0xA0 SHL SUB DUP1 DUP6 AND PUSH1 0x0 SWAP1 DUP2 MSTORE PUSH1 0xF PUSH1 0x20 MSTORE PUSH1 0x40 SWAP1 KECCAK256 DUP1 SLOAD PUSH1 0x5 SWAP1 SWAP2 ADD SLOAD SWAP2 AND SWAP1 PUSH1 0xFF AND DUP1 ISZERO PUSH2 0x42AD JUMPI POP PUSH1 0x1 PUSH1 0x1 PUSH1 0xA0 SHL SUB DUP2 AND ISZERO ISZERO JUMPDEST DUP1 ISZERO PUSH2 0x42D3 JUMPI POP PUSH1 0x1 PUSH1 0x1 PUSH1 0xA0 SHL SUB DUP2 AND PUSH1 0x0 SWAP1 DUP2 MSTORE PUSH1 0xF PUSH1 0x20 MSTORE PUSH1 0x40 SWAP1 KECCAK256 PUSH1 0x1 ADD SLOAD ISZERO ISZERO JUMPDEST ISZERO PUSH2 0x4305 JUMPI PUSH1 0x1 PUSH1 0x1 PUSH1 0xA0 SHL SUB DUP2 AND PUSH1 0x0 SWAP1 DUP2 MSTORE PUSH1 0xF PUSH1 0x20 MSTORE PUSH1 0x40 DUP2 KECCAK256 PUSH1 0x1 ADD DUP1 SLOAD SWAP2 PUSH2 0x42FF DUP4 PUSH2 0x56A3 JUMP JUMPDEST SWAP2 SWAP1 POP SSTORE POP JUMPDEST PUSH1 0x1 PUSH1 0x1 PUSH1 0xA0 SHL SUB DUP6 AND PUSH1 0x0 SWAP1 DUP2 MSTORE PUSH1 0xF PUSH1 0x20 MSTORE PUSH1 0x40 DUP2 KECCAK256 PUSH1 0x5 DUP2 ADD DUP1 SLOAD PUSH1 0xFF NOT SWAP1 DUP2 AND SWAP1 SWAP2 SSTORE PUSH1 0x3 DUP1 DUP4 ADD DUP5 SWAP1 SSTORE PUSH1 0x4 SWAP1 SWAP3 ADD DUP4 SWAP1 SSTORE DUP3 DUP8 SSTORE PUSH1 0x1 DUP8 ADD DUP4 SWAP1 SSTORE PUSH1 0x2 DUP8 ADD SWAP3 SWAP1 SWAP3 SSTORE DUP6 ADD DUP1 SLOAD SWAP1 SWAP2 AND SWAP1 SSTORE DUP3 ISZERO PUSH2 0x4391 JUMPI PUSH1 0x0 DUP4 DUP2 MSTORE PUSH1 0x13 PUSH1 0x20 MSTORE PUSH1 0x40 DUP2 KECCAK256 PUSH2 0x4374 SWAP2 PUSH2 0x5027 JUMP JUMPDEST PUSH1 0x0 DUP4 DUP2 MSTORE PUSH1 0x1B PUSH1 0x20 MSTORE PUSH1 0x40 SWAP1 KECCAK256 DUP1 SLOAD PUSH1 0x1 PUSH1 0x1 PUSH1 0xA0 SHL SUB NOT AND SWAP1 SSTORE JUMPDEST DUP5 PUSH1 0x1 PUSH1 0x1 PUSH1 0xA0 SHL SUB AND PUSH32 0x57025F0027038907EDA728B59164FB63D06048F42E618A35267E6A12E49B2E46 DUP5 DUP5 PUSH1 0x40 MLOAD PUSH2 0x43CC SWAP3 SWAP2 SWAP1 PUSH2 0x5142 JUMP JUMPDEST PUSH1 0x40 MLOAD DUP1 SWAP2 SUB SWAP1 LOG2 POP POP POP POP POP JUMP JUMPDEST PUSH1 0x1 PUSH1 0x1 PUSH1 0xA0 SHL SUB DUP4 AND PUSH1 0x0 SWAP1 DUP2 MSTORE PUSH1 0xF PUSH1 0x20 SWAP1 DUP2 MSTORE PUSH1 0x40 DUP1 DUP4 KECCAK256 PUSH1 0x10 SWAP1 SWAP3 MSTORE DUP3 KECCAK256 PUSH1 0x5 DUP3 ADD SLOAD PUSH1 0xFF AND ISZERO DUP1 PUSH2 0x4415 JUMPI POP PUSH1 0x3 DUP2 ADD SLOAD PUSH1 0xFF AND JUMPDEST DUP1 PUSH2 0x4422 JUMPI POP PUSH1 0x1 DUP2 ADD SLOAD ISZERO JUMPDEST ISZERO PUSH2 0x4432 JUMPI PUSH1 0x0 SWAP3 POP POP POP PUSH2 0x456D JUMP JUMPDEST PUSH1 0x0 DUP3 PUSH1 0x3 ADD SLOAD DUP4 PUSH1 0x4 ADD SLOAD PUSH2 0x4448 SWAP2 SWAP1 PUSH2 0x55EA JUMP JUMPDEST SWAP1 POP DUP6 DUP2 DUP2 GT ISZERO PUSH2 0x4488 JUMPI DUP2 SWAP1 POP DUP8 PUSH1 0x1 PUSH1 0x1 PUSH1 0xA0 SHL SUB AND PUSH1 0x0 DUP1 MLOAD PUSH1 0x20 PUSH2 0x5773 DUP4 CODECOPY DUP2 MLOAD SWAP2 MSTORE DUP9 DUP5 PUSH1 0x40 MLOAD PUSH2 0x447F SWAP3 SWAP2 SWAP1 PUSH2 0x5142 JUMP JUMPDEST PUSH1 0x40 MLOAD DUP1 SWAP2 SUB SWAP1 LOG2 JUMPDEST DUP1 ISZERO PUSH2 0x454F JUMPI DUP1 DUP5 PUSH1 0x3 ADD PUSH1 0x0 DUP3 DUP3 SLOAD PUSH2 0x44A2 SWAP2 SWAP1 PUSH2 0x55B5 JUMP JUMPDEST SWAP1 SWAP2 SSTORE POP POP PUSH1 0x0 SLOAD PUSH1 0x40 MLOAD PUSH4 0xA9059CBB PUSH1 0xE0 SHL DUP2 MSTORE PUSH1 0x1 PUSH1 0x1 PUSH1 0xA0 SHL SUB SWAP1 SWAP2 AND SWAP1 PUSH4 0xA9059CBB SWAP1 PUSH2 0x44D9 SWAP1 DUP12 SWAP1 DUP6 SWAP1 PUSH1 0x4 ADD PUSH2 0x52FF JUMP JUMPDEST PUSH1 0x20 PUSH1 0x40 MLOAD DUP1 DUP4 SUB DUP2 PUSH1 0x0 DUP8 GAS CALL ISZERO DUP1 ISZERO PUSH2 0x44F8 JUMPI RETURNDATASIZE PUSH1 0x0 DUP1 RETURNDATACOPY RETURNDATASIZE PUSH1 0x0 REVERT JUMPDEST POP POP POP POP PUSH1 0x40 MLOAD RETURNDATASIZE PUSH1 0x1F NOT PUSH1 0x1F DUP3 ADD AND DUP3 ADD DUP1 PUSH1 0x40 MSTORE POP DUP2 ADD SWAP1 PUSH2 0x451C SWAP2 SWAP1 PUSH2 0x556B JUMP JUMPDEST POP DUP8 PUSH1 0x1 PUSH1 0x1 PUSH1 0xA0 SHL SUB AND PUSH1 0x0 DUP1 MLOAD PUSH1 0x20 PUSH2 0x5793 DUP4 CODECOPY DUP2 MLOAD SWAP2 MSTORE DUP3 DUP9 PUSH1 0x40 MLOAD PUSH2 0x4546 SWAP3 SWAP2 SWAP1 PUSH2 0x5642 JUMP JUMPDEST PUSH1 0x40 MLOAD DUP1 SWAP2 SUB SWAP1 LOG2 JUMPDEST DUP4 PUSH1 0x4 ADD SLOAD DUP5 PUSH1 0x3 ADD SLOAD LT PUSH2 0x4567 JUMPI PUSH2 0x4567 DUP9 PUSH2 0x38B6 JUMP JUMPDEST SWAP4 POP POP POP POP JUMPDEST SWAP4 SWAP3 POP POP POP JUMP JUMPDEST PUSH1 0x1 PUSH1 0x1 PUSH1 0xA0 SHL SUB DUP1 DUP4 AND PUSH1 0x0 SWAP1 DUP2 MSTORE PUSH1 0xF PUSH1 0x20 MSTORE PUSH1 0x40 DUP2 KECCAK256 SLOAD SWAP1 SWAP2 AND SWAP1 DUP1 DUP1 DUP1 PUSH1 0x64 PUSH2 0x45A2 DUP8 PUSH1 0x1 PUSH2 0x559E JUMP JUMPDEST PUSH2 0x45AC SWAP2 SWAP1 PUSH2 0x55C8 JUMP JUMPDEST SWAP1 POP JUMPDEST PUSH1 0x1 PUSH1 0x1 PUSH1 0xA0 SHL SUB DUP6 AND ISZERO DUP1 ISZERO SWAP1 PUSH2 0x45C7 JUMPI POP PUSH1 0xF DUP4 LT JUMPDEST DUP1 ISZERO PUSH2 0x45D3 JUMPI POP PUSH1 0x14 DUP3 LT JUMPDEST ISZERO PUSH2 0x4709 JUMPI PUSH1 0x1 PUSH1 0x1 PUSH1 0xA0 SHL SUB DUP6 AND PUSH1 0x0 SWAP1 DUP2 MSTORE PUSH1 0xF PUSH1 0x20 MSTORE PUSH1 0x40 SWAP1 KECCAK256 PUSH1 0x5 ADD SLOAD PUSH1 0xFF AND PUSH2 0x462B JUMPI PUSH1 0x1 PUSH1 0x1 PUSH1 0xA0 SHL SUB SWAP5 DUP6 AND PUSH1 0x0 SWAP1 DUP2 MSTORE PUSH1 0xF PUSH1 0x20 MSTORE PUSH1 0x40 SWAP1 KECCAK256 SLOAD SWAP1 SWAP5 AND SWAP4 DUP2 PUSH2 0x4623 DUP2 PUSH2 0x5671 JUMP JUMPDEST SWAP3 POP POP PUSH2 0x45AF JUMP JUMPDEST PUSH1 0x1 PUSH1 0x1 PUSH1 0xA0 SHL SUB DUP6 AND PUSH1 0x0 SWAP1 DUP2 MSTORE PUSH1 0xF PUSH1 0x20 MSTORE PUSH1 0x40 DUP2 KECCAK256 PUSH1 0x1 ADD SLOAD PUSH2 0x4650 SWAP1 PUSH2 0x10A6 JUMP JUMPDEST SWAP1 POP DUP4 DUP2 GT ISZERO PUSH2 0x46CA JUMPI PUSH1 0x0 PUSH2 0x4668 DUP8 DUP5 PUSH1 0x3 PUSH2 0x43DB JUMP JUMPDEST SWAP1 POP DUP1 ISZERO PUSH2 0x46C8 JUMPI PUSH2 0x467A DUP2 DUP8 PUSH2 0x55B5 JUMP JUMPDEST PUSH1 0x1 PUSH1 0x1 PUSH1 0xA0 SHL SUB DUP1 DUP12 AND PUSH1 0x0 DUP2 DUP2 MSTORE PUSH1 0x10 PUSH1 0x20 MSTORE PUSH1 0x40 SWAP1 DUP2 SWAP1 KECCAK256 SLOAD SWAP1 MLOAD SWAP4 SWAP10 POP SWAP1 SWAP3 SWAP2 DUP11 AND SWAP2 PUSH1 0x0 DUP1 MLOAD PUSH1 0x20 PUSH2 0x56F3 DUP4 CODECOPY DUP2 MLOAD SWAP2 MSTORE SWAP2 PUSH2 0x46BF SWAP2 DUP7 SWAP2 PUSH1 0x3 SWAP2 PUSH2 0x568A JUMP JUMPDEST PUSH1 0x40 MLOAD DUP1 SWAP2 SUB SWAP1 LOG3 JUMPDEST POP JUMPDEST PUSH1 0x1 PUSH1 0x1 PUSH1 0xA0 SHL SUB SWAP6 DUP7 AND PUSH1 0x0 SWAP1 DUP2 MSTORE PUSH1 0xF PUSH1 0x20 MSTORE PUSH1 0x40 SWAP1 KECCAK256 SLOAD SWAP1 SWAP6 AND SWAP5 DUP4 PUSH2 0x46F2 DUP2 PUSH2 0x5671 JUMP JUMPDEST SWAP5 POP POP DUP3 DUP1 PUSH2 0x4700 SWAP1 PUSH2 0x5671 JUMP JUMPDEST SWAP4 POP POP POP PUSH2 0x45AF JUMP JUMPDEST PUSH1 0x0 PUSH1 0x64 PUSH1 0x7 SLOAD DUP9 PUSH2 0x471B SWAP2 SWAP1 PUSH2 0x559E JUMP JUMPDEST PUSH2 0x4725 SWAP2 SWAP1 PUSH2 0x55C8 JUMP JUMPDEST SWAP1 POP PUSH1 0x0 PUSH2 0x4733 DUP7 DUP4 PUSH2 0x55EA JUMP JUMPDEST SWAP1 POP DUP1 ISZERO PUSH2 0x1744 JUMPI DUP1 PUSH1 0x1E PUSH1 0x0 DUP3 DUP3 SLOAD PUSH2 0x474D SWAP2 SWAP1 PUSH2 0x55B5 JUMP JUMPDEST SWAP1 SWAP2 SSTORE POP POP PUSH1 0x1E SLOAD PUSH1 0x40 MLOAD PUSH32 0xCA2E2BFF26D2ADB9FE155E9265350494C16751676879CB7CED9141E0FCF39343 SWAP2 PUSH2 0x4786 SWAP2 DUP5 SWAP2 SWAP1 PUSH2 0x5142 JUMP JUMPDEST PUSH1 0x40 MLOAD DUP1 SWAP2 SUB SWAP1 LOG1 POP POP POP POP POP POP POP POP POP JUMP JUMPDEST DUP1 PUSH1 0x0 SUB PUSH2 0x47A4 JUMPI POP JUMP JUMPDEST PUSH1 0x16 SLOAD ISZERO DUP1 PUSH2 0x47B3 JUMPI POP PUSH1 0x17 SLOAD ISZERO JUMPDEST ISZERO PUSH2 0x47BB JUMPI POP JUMP JUMPDEST DUP1 PUSH1 0x16 SLOAD PUSH2 0x47C9 SWAP2 SWAP1 PUSH2 0x55B5 JUMP JUMPDEST PUSH1 0x0 SLOAD PUSH1 0x40 MLOAD PUSH4 0x70A08231 PUSH1 0xE0 SHL DUP2 MSTORE PUSH1 0x1 PUSH1 0x1 PUSH1 0xA0 SHL SUB SWAP1 SWAP2 AND SWAP1 PUSH4 0x70A08231 SWAP1 PUSH2 0x47F9 SWAP1 ADDRESS SWAP1 PUSH1 0x4 ADD PUSH2 0x5115 JUMP JUMPDEST PUSH1 0x20 PUSH1 0x40 MLOAD DUP1 DUP4 SUB DUP2 DUP7 GAS STATICCALL ISZERO DUP1 ISZERO PUSH2 0x4816 JUMPI RETURNDATASIZE PUSH1 0x0 DUP1 RETURNDATACOPY RETURNDATASIZE PUSH1 0x0 REVERT JUMPDEST POP POP POP POP PUSH1 0x40 MLOAD RETURNDATASIZE PUSH1 0x1F NOT PUSH1 0x1F DUP3 ADD AND DUP3 ADD DUP1 PUSH1 0x40 MSTORE POP DUP2 ADD SWAP1 PUSH2 0x483A SWAP2 SWAP1 PUSH2 0x55FD JUMP JUMPDEST LT ISZERO PUSH2 0x4843 JUMPI POP JUMP JUMPDEST PUSH1 0x0 PUSH1 0x17 SLOAD DUP3 PUSH2 0x4853 SWAP2 SWAP1 PUSH2 0x559E JUMP JUMPDEST SWAP1 POP PUSH1 0x0 DUP3 PUSH1 0x16 SLOAD PUSH2 0x4865 SWAP2 SWAP1 PUSH2 0x55B5 JUMP JUMPDEST SWAP1 POP PUSH1 0x0 PUSH2 0x4873 DUP3 DUP5 PUSH2 0x55C8 JUMP JUMPDEST SWAP1 POP DUP1 ISZERO DUP1 PUSH2 0x4883 JUMPI POP PUSH1 0x17 SLOAD DUP2 GT JUMPDEST ISZERO PUSH2 0x488E JUMPI POP POP POP POP JUMP JUMPDEST PUSH1 0x17 SLOAD PUSH1 0x1 SLOAD PUSH1 0x40 MLOAD PUSH4 0x70A08231 PUSH1 0xE0 SHL DUP2 MSTORE PUSH1 0x1 PUSH1 0x1 PUSH1 0xA0 SHL SUB SWAP1 SWAP2 AND SWAP1 PUSH4 0x70A08231 SWAP1 PUSH2 0x48C1 SWAP1 ADDRESS SWAP1 PUSH1 0x4 ADD PUSH2 0x5115 JUMP JUMPDEST PUSH1 0x20 PUSH1 0x40 MLOAD DUP1 DUP4 SUB DUP2 DUP7 GAS STATICCALL ISZERO DUP1 ISZERO PUSH2 0x48DE JUMPI RETURNDATASIZE PUSH1 0x0 DUP1 RETURNDATACOPY RETURNDATASIZE PUSH1 0x0 REVERT JUMPDEST POP POP POP POP PUSH1 0x40 MLOAD RETURNDATASIZE PUSH1 0x1F NOT PUSH1 0x1F DUP3 ADD AND DUP3 ADD DUP1 PUSH1 0x40 MSTORE POP DUP2 ADD SWAP1 PUSH2 0x4902 SWAP2 SWAP1 PUSH2 0x55FD JUMP JUMPDEST LT ISZERO PUSH2 0x490E JUMPI POP POP POP POP JUMP JUMPDEST DUP4 PUSH1 0x16 PUSH1 0x0 DUP3 DUP3 SLOAD PUSH2 0x4920 SWAP2 SWAP1 PUSH2 0x55B5 JUMP JUMPDEST SWAP3 POP POP DUP2 SWAP1 SSTORE POP DUP1 PUSH1 0x17 PUSH1 0x0 DUP3 DUP3 SLOAD PUSH2 0x4939 SWAP2 SWAP1 PUSH2 0x55EA JUMP JUMPDEST SWAP1 SWAP2 SSTORE POP POP PUSH1 0x1 SLOAD PUSH1 0x40 MLOAD PUSH4 0x852CD8D PUSH1 0xE3 SHL DUP2 MSTORE PUSH1 0x4 DUP2 ADD DUP4 SWAP1 MSTORE PUSH1 0x1 PUSH1 0x1 PUSH1 0xA0 SHL SUB SWAP1 SWAP2 AND SWAP1 PUSH4 0x42966C68 SWAP1 PUSH1 0x24 ADD PUSH1 0x0 PUSH1 0x40 MLOAD DUP1 DUP4 SUB DUP2 PUSH1 0x0 DUP8 DUP1 EXTCODESIZE ISZERO DUP1 ISZERO PUSH2 0x4984 JUMPI PUSH1 0x0 DUP1 REVERT JUMPDEST POP GAS CALL ISZERO DUP1 ISZERO PUSH2 0x4998 JUMPI RETURNDATASIZE PUSH1 0x0 DUP1 RETURNDATACOPY RETURNDATASIZE PUSH1 0x0 REVERT JUMPDEST POP POP POP POP PUSH32 0xEC3929061CBBBEECB325623E7D5A86C3DAE11CB8A22CA45DC0972955657DA25 DUP5 DUP3 PUSH1 0x40 MLOAD PUSH2 0x25D3 SWAP3 SWAP2 SWAP1 PUSH2 0x5142 JUMP JUMPDEST PUSH1 0x0 PUSH2 0x49D7 PUSH2 0x4A29 JUMP JUMPDEST DUP1 SLOAD PUSH1 0x1 PUSH1 0x1 PUSH1 0xA0 SHL SUB DUP5 DUP2 AND PUSH1 0x1 PUSH1 0x1 PUSH1 0xA0 SHL SUB NOT DUP4 AND DUP2 OR DUP5 SSTORE PUSH1 0x40 MLOAD SWAP4 SWAP5 POP SWAP2 AND SWAP2 DUP3 SWAP1 PUSH32 0x8BE0079C531659141344CD1FD0A4F28419497F9722A3DAAFE3B4186F6B6457E0 SWAP1 PUSH1 0x0 SWAP1 LOG3 POP POP POP JUMP JUMPDEST PUSH32 0x9016D09D72D40FDAE2FD8CEAC6B6234C7706214FD39C1CD1E609A0528C199300 SWAP1 JUMP JUMPDEST PUSH1 0x0 DUP2 DUP2 MSTORE PUSH1 0x1D PUSH1 0x20 SWAP1 DUP2 MSTORE PUSH1 0x40 DUP1 DUP4 KECCAK256 SLOAD PUSH1 0x1C DUP4 MSTORE DUP2 DUP5 KECCAK256 DUP1 SLOAD DUP4 MLOAD DUP2 DUP7 MUL DUP2 ADD DUP7 ADD SWAP1 SWAP5 MSTORE DUP1 DUP5 MSTORE PUSH1 0x1 PUSH1 0x1 PUSH1 0xA0 SHL SUB SWAP1 SWAP3 AND SWAP5 SWAP4 SWAP1 SWAP2 SWAP1 DUP5 SWAP1 DUP5 ADD JUMPDEST DUP3 DUP3 LT ISZERO PUSH2 0x4AD4 JUMPI PUSH1 0x0 DUP5 DUP2 MSTORE PUSH1 0x20 SWAP1 DUP2 SWAP1 KECCAK256 PUSH1 0x40 DUP1 MLOAD DUP1 DUP3 ADD SWAP1 SWAP2 MSTORE PUSH1 0x2 DUP6 MUL SWAP1 SWAP2 ADD DUP1 SLOAD PUSH1 0x1 PUSH1 0x1 PUSH1 0xA0 SHL SUB AND DUP3 MSTORE PUSH1 0x1 SWAP1 DUP2 ADD SLOAD DUP3 DUP5 ADD MSTORE SWAP1 DUP4 MSTORE SWAP1 SWAP3 ADD SWAP2 ADD PUSH2 0x4A8C JUMP JUMPDEST POP POP POP POP SWAP1 POP PUSH1 0x0 JUMPDEST DUP2 MLOAD DUP2 LT ISZERO PUSH2 0x4BFC JUMPI PUSH1 0x0 PUSH2 0x4B2E DUP4 DUP4 DUP2 MLOAD DUP2 LT PUSH2 0x4AFD JUMPI PUSH2 0x4AFD PUSH2 0x562C JUMP JUMPDEST PUSH1 0x20 MUL PUSH1 0x20 ADD ADD MLOAD PUSH1 0x0 ADD MLOAD DUP5 DUP5 DUP2 MLOAD DUP2 LT PUSH2 0x4B1B JUMPI PUSH2 0x4B1B PUSH2 0x562C JUMP JUMPDEST PUSH1 0x20 MUL PUSH1 0x20 ADD ADD MLOAD PUSH1 0x20 ADD MLOAD PUSH1 0x4 PUSH2 0x43DB JUMP JUMPDEST SWAP1 POP DUP1 ISZERO PUSH2 0x4B92 JUMPI DUP4 PUSH1 0x1 PUSH1 0x1 PUSH1 0xA0 SHL SUB AND DUP4 DUP4 DUP2 MLOAD DUP2 LT PUSH2 0x4B52 JUMPI PUSH2 0x4B52 PUSH2 0x562C JUMP JUMPDEST PUSH1 0x20 MUL PUSH1 0x20 ADD ADD MLOAD PUSH1 0x0 ADD MLOAD PUSH1 0x1 PUSH1 0x1 PUSH1 0xA0 SHL SUB AND PUSH1 0x0 DUP1 MLOAD PUSH1 0x20 PUSH2 0x56F3 DUP4 CODECOPY DUP2 MLOAD SWAP2 MSTORE DUP4 PUSH1 0x4 DUP10 PUSH1 0x40 MLOAD PUSH2 0x4B89 SWAP4 SWAP3 SWAP2 SWAP1 PUSH2 0x568A JUMP JUMPDEST PUSH1 0x40 MLOAD DUP1 SWAP2 SUB SWAP1 LOG3 JUMPDEST DUP3 DUP3 DUP2 MLOAD DUP2 LT PUSH2 0x4BA4 JUMPI PUSH2 0x4BA4 PUSH2 0x562C JUMP JUMPDEST PUSH1 0x20 MUL PUSH1 0x20 ADD ADD MLOAD PUSH1 0x0 ADD MLOAD PUSH1 0x1 PUSH1 0x1 PUSH1 0xA0 SHL SUB AND DUP6 PUSH32 0xAE629B396150638D6EB6DE457CBFFE5D618A10C8CC199A94976BED2B16ECD993 DUP4 PUSH1 0x40 MLOAD PUSH2 0x4BEB SWAP2 DUP2 MSTORE PUSH1 0x20 ADD SWAP1 JUMP JUMPDEST PUSH1 0x40 MLOAD DUP1 SWAP2 SUB SWAP1 LOG3 POP PUSH1 0x1 ADD PUSH2 0x4ADD JUMP JUMPDEST POP PUSH1 0x0 DUP4 DUP2 MSTORE PUSH1 0x1C PUSH1 0x20 MSTORE PUSH1 0x40 DUP2 KECCAK256 PUSH2 0x140C SWAP2 PUSH2 0x5027 JUMP JUMPDEST PUSH1 0x0 DUP1 PUSH32 0xF0C57E16840DF040F15088DC2F81FE391C3923BEC73E23A9662EFC9C229C6A00 JUMPDEST SWAP3 SWAP2 POP POP JUMP JUMPDEST PUSH2 0x4C47 PUSH2 0x4E74 JUMP JUMPDEST PUSH2 0x3881 DUP2 PUSH2 0x4E99 JUMP JUMPDEST PUSH2 0x174E PUSH2 0x4E74 JUMP JUMPDEST PUSH1 0x1 PUSH1 0x1 PUSH1 0xA0 SHL SUB DUP2 AND PUSH1 0x0 SWAP1 DUP2 MSTORE PUSH1 0x11 PUSH1 0x20 MSTORE PUSH1 0x40 DUP2 KECCAK256 DUP2 JUMPDEST DUP2 SLOAD DUP2 LT ISZERO PUSH2 0x4CE3 JUMPI DUP2 DUP2 DUP2 SLOAD DUP2 LT PUSH2 0x4C8D JUMPI PUSH2 0x4C8D PUSH2 0x562C JUMP JUMPDEST PUSH1 0x0 SWAP2 DUP3 MSTORE PUSH1 0x20 SWAP1 SWAP2 KECCAK256 PUSH1 0x4 PUSH1 0x6 SWAP1 SWAP3 MUL ADD ADD SLOAD PUSH1 0xFF AND ISZERO PUSH2 0x4CDB JUMPI DUP2 DUP2 DUP2 SLOAD DUP2 LT PUSH2 0x4CBB JUMPI PUSH2 0x4CBB PUSH2 0x562C JUMP JUMPDEST SWAP1 PUSH1 0x0 MSTORE PUSH1 0x20 PUSH1 0x0 KECCAK256 SWAP1 PUSH1 0x6 MUL ADD PUSH1 0x1 ADD SLOAD DUP4 PUSH2 0x4CD8 SWAP2 SWAP1 PUSH2 0x55B5 JUMP JUMPDEST SWAP3 POP JUMPDEST PUSH1 0x1 ADD PUSH2 0x4C72 JUMP JUMPDEST POP POP SWAP2 SWAP1 POP JUMP JUMPDEST PUSH1 0x1 PUSH1 0x1 PUSH1 0xA0 SHL SUB DUP3 AND ISZERO DUP1 PUSH2 0x4CFE JUMPI POP DUP1 ISZERO JUMPDEST ISZERO PUSH2 0x4D07 JUMPI POP POP JUMP JUMPDEST PUSH1 0x1 PUSH1 0x1 PUSH1 0xA0 SHL SUB DUP1 DUP4 AND PUSH1 0x0 SWAP1 DUP2 MSTORE PUSH1 0xF PUSH1 0x20 MSTORE PUSH1 0x40 DUP2 KECCAK256 SLOAD SWAP1 SWAP2 AND SWAP1 JUMPDEST PUSH1 0x1 PUSH1 0x1 PUSH1 0xA0 SHL SUB DUP3 AND ISZERO DUP1 ISZERO SWAP1 PUSH2 0x4D3E JUMPI POP PUSH1 0x14 DUP2 LT JUMPDEST ISZERO PUSH2 0x1B29 JUMPI PUSH1 0x1 PUSH1 0x1 PUSH1 0xA0 SHL SUB DUP3 AND PUSH1 0x0 SWAP1 DUP2 MSTORE PUSH1 0xF PUSH1 0x20 MSTORE PUSH1 0x40 DUP2 KECCAK256 PUSH1 0x2 ADD SLOAD SWAP1 DUP1 DUP6 SGT ISZERO PUSH2 0x4D79 JUMPI PUSH2 0x4D72 DUP6 DUP4 PUSH2 0x55B5 JUMP JUMPDEST SWAP1 POP PUSH2 0x4DA6 JUMP JUMPDEST PUSH1 0x0 PUSH2 0x4D84 DUP7 PUSH2 0x56BA JUMP JUMPDEST SWAP1 POP DUP3 DUP2 GT ISZERO PUSH2 0x4D97 JUMPI PUSH1 0x0 SWAP2 POP PUSH2 0x4DA4 JUMP JUMPDEST PUSH2 0x4DA1 DUP2 DUP5 PUSH2 0x55EA JUMP JUMPDEST SWAP2 POP JUMPDEST POP JUMPDEST PUSH1 0x1 PUSH1 0x1 PUSH1 0xA0 SHL SUB DUP5 AND PUSH1 0x0 DUP2 DUP2 MSTORE PUSH1 0xF PUSH1 0x20 MSTORE PUSH1 0x40 SWAP1 DUP2 SWAP1 KECCAK256 PUSH1 0x2 ADD DUP4 SWAP1 SSTORE MLOAD PUSH1 0x0 DUP1 MLOAD PUSH1 0x20 PUSH2 0x5733 DUP4 CODECOPY DUP2 MLOAD SWAP2 MSTORE SWAP1 PUSH2 0x4DE4 SWAP1 DUP6 SWAP1 DUP6 SWAP1 PUSH2 0x5142 JUMP JUMPDEST PUSH1 0x40 MLOAD DUP1 SWAP2 SUB SWAP1 LOG2 PUSH1 0x1 PUSH1 0x1 PUSH1 0xA0 SHL SUB SWAP4 DUP5 AND PUSH1 0x0 SWAP1 DUP2 MSTORE PUSH1 0xF PUSH1 0x20 MSTORE PUSH1 0x40 SWAP1 KECCAK256 SLOAD SWAP1 SWAP4 AND SWAP3 DUP3 PUSH2 0x4E14 DUP2 PUSH2 0x5671 JUMP JUMPDEST SWAP4 POP POP POP POP PUSH2 0x4D26 JUMP JUMPDEST PUSH2 0x4E27 DUP3 PUSH2 0x4EA1 JUMP JUMPDEST PUSH1 0x40 MLOAD PUSH1 0x1 PUSH1 0x1 PUSH1 0xA0 SHL SUB DUP4 AND SWAP1 PUSH32 0xBC7CD75A20EE27FD9ADEBAB32041F755214DBC6BFFA90CC0225B39DA2E5C2D3B SWAP1 PUSH1 0x0 SWAP1 LOG2 DUP1 MLOAD ISZERO PUSH2 0x4E6C JUMPI PUSH2 0x140C DUP3 DUP3 PUSH2 0x4EFD JUMP JUMPDEST PUSH2 0x1B4A PUSH2 0x4F73 JUMP JUMPDEST PUSH2 0x4E7C PUSH2 0x4F92 JUMP JUMPDEST PUSH2 0x174E JUMPI PUSH1 0x40 MLOAD PUSH4 0x1AFCD79F PUSH1 0xE3 SHL DUP2 MSTORE PUSH1 0x4 ADD PUSH1 0x40 MLOAD DUP1 SWAP2 SUB SWAP1 REVERT JUMPDEST PUSH2 0x384E PUSH2 0x4E74 JUMP JUMPDEST DUP1 PUSH1 0x1 PUSH1 0x1 PUSH1 0xA0 SHL SUB AND EXTCODESIZE PUSH1 0x0 SUB PUSH2 0x4ECE JUMPI DUP1 PUSH1 0x40 MLOAD PUSH4 0x4C9C8CE3 PUSH1 0xE0 SHL DUP2 MSTORE PUSH1 0x4 ADD PUSH2 0x2A59 SWAP2 SWAP1 PUSH2 0x5115 JUMP JUMPDEST PUSH1 0x0 DUP1 MLOAD PUSH1 0x20 PUSH2 0x5753 DUP4 CODECOPY DUP2 MLOAD SWAP2 MSTORE DUP1 SLOAD PUSH1 0x1 PUSH1 0x1 PUSH1 0xA0 SHL SUB NOT AND PUSH1 0x1 PUSH1 0x1 PUSH1 0xA0 SHL SUB SWAP3 SWAP1 SWAP3 AND SWAP2 SWAP1 SWAP2 OR SWAP1 SSTORE JUMP JUMPDEST PUSH1 0x60 PUSH1 0x0 DUP1 DUP5 PUSH1 0x1 PUSH1 0x1 PUSH1 0xA0 SHL SUB AND DUP5 PUSH1 0x40 MLOAD PUSH2 0x4F1A SWAP2 SWAP1 PUSH2 0x56D6 JUMP JUMPDEST PUSH1 0x0 PUSH1 0x40 MLOAD DUP1 DUP4 SUB DUP2 DUP6 GAS DELEGATECALL SWAP2 POP POP RETURNDATASIZE DUP1 PUSH1 0x0 DUP2 EQ PUSH2 0x4F55 JUMPI PUSH1 0x40 MLOAD SWAP2 POP PUSH1 0x1F NOT PUSH1 0x3F RETURNDATASIZE ADD AND DUP3 ADD PUSH1 0x40 MSTORE RETURNDATASIZE DUP3 MSTORE RETURNDATASIZE PUSH1 0x0 PUSH1 0x20 DUP5 ADD RETURNDATACOPY PUSH2 0x4F5A JUMP JUMPDEST PUSH1 0x60 SWAP2 POP JUMPDEST POP SWAP2 POP SWAP2 POP PUSH2 0x4F6A DUP6 DUP4 DUP4 PUSH2 0x4FAC JUMP JUMPDEST SWAP6 SWAP5 POP POP POP POP POP JUMP JUMPDEST CALLVALUE ISZERO PUSH2 0x174E JUMPI PUSH1 0x40 MLOAD PUSH4 0xB398979F PUSH1 0xE0 SHL DUP2 MSTORE PUSH1 0x4 ADD PUSH1 0x40 MLOAD DUP1 SWAP2 SUB SWAP1 REVERT JUMPDEST PUSH1 0x0 PUSH2 0x4F9C PUSH2 0x4C14 JUMP JUMPDEST SLOAD PUSH1 0x1 PUSH1 0x40 SHL SWAP1 DIV PUSH1 0xFF AND SWAP2 SWAP1 POP JUMP JUMPDEST PUSH1 0x60 DUP3 PUSH2 0x4FC1 JUMPI PUSH2 0x4FBC DUP3 PUSH2 0x4FFF JUMP JUMPDEST PUSH2 0x456D JUMP JUMPDEST DUP2 MLOAD ISZERO DUP1 ISZERO PUSH2 0x4FD8 JUMPI POP PUSH1 0x1 PUSH1 0x1 PUSH1 0xA0 SHL SUB DUP5 AND EXTCODESIZE ISZERO JUMPDEST ISZERO PUSH2 0x4FF8 JUMPI DUP4 PUSH1 0x40 MLOAD PUSH4 0x9996B315 PUSH1 0xE0 SHL DUP2 MSTORE PUSH1 0x4 ADD PUSH2 0x2A59 SWAP2 SWAP1 PUSH2 0x5115 JUMP JUMPDEST POP DUP1 PUSH2 0x456D JUMP JUMPDEST DUP1 MLOAD ISZERO PUSH2 0x500E JUMPI DUP1 MLOAD PUSH1 0x20 DUP3 ADD REVERT JUMPDEST PUSH1 0x40 MLOAD PUSH4 0xD6BDA275 PUSH1 0xE0 SHL DUP2 MSTORE PUSH1 0x4 ADD PUSH1 0x40 MLOAD DUP1 SWAP2 SUB SWAP1 REVERT JUMPDEST POP DUP1 SLOAD PUSH1 0x0 DUP3 SSTORE PUSH1 0x2 MUL SWAP1 PUSH1 0x0 MSTORE PUSH1 0x20 PUSH1 0x0 KECCAK256 SWAP1 DUP2 ADD SWAP1 PUSH2 0x3881 SWAP2 SWAP1 JUMPDEST DUP1 DUP3 GT ISZERO PUSH2 0x5069 JUMPI DUP1 SLOAD PUSH1 0x1 PUSH1 0x1 PUSH1 0xA0 SHL SUB NOT AND DUP2 SSTORE PUSH1 0x0 PUSH1 0x1 DUP3 ADD SSTORE PUSH1 0x2 ADD PUSH2 0x5044 JUMP JUMPDEST POP SWAP1 JUMP JUMPDEST DUP1 ISZERO ISZERO DUP2 EQ PUSH2 0x3881 JUMPI PUSH1 0x0 DUP1 REVERT JUMPDEST PUSH1 0x0 DUP1 PUSH1 0x40 DUP4 DUP6 SUB SLT ISZERO PUSH2 0x508E JUMPI PUSH1 0x0 DUP1 REVERT JUMPDEST DUP3 CALLDATALOAD PUSH2 0x5099 DUP2 PUSH2 0x506D JUMP JUMPDEST SWAP2 POP PUSH1 0x20 DUP4 ADD CALLDATALOAD PUSH2 0x50A9 DUP2 PUSH2 0x506D JUMP JUMPDEST DUP1 SWAP2 POP POP SWAP3 POP SWAP3 SWAP1 POP JUMP JUMPDEST DUP1 CALLDATALOAD PUSH1 0x1 PUSH1 0x1 PUSH1 0xA0 SHL SUB DUP2 AND DUP2 EQ PUSH2 0x50CB JUMPI PUSH1 0x0 DUP1 REVERT JUMPDEST SWAP2 SWAP1 POP JUMP JUMPDEST PUSH1 0x0 PUSH1 0x20 DUP3 DUP5 SUB SLT ISZERO PUSH2 0x50E2 JUMPI PUSH1 0x0 DUP1 REVERT JUMPDEST PUSH2 0x456D DUP3 PUSH2 0x50B4 JUMP JUMPDEST PUSH1 0x0 DUP1 PUSH1 0x40 DUP4 DUP6 SUB SLT ISZERO PUSH2 0x50FE JUMPI PUSH1 0x0 DUP1 REVERT JUMPDEST PUSH2 0x5107 DUP4 PUSH2 0x50B4 JUMP JUMPDEST SWAP5 PUSH1 0x20 SWAP4 SWAP1 SWAP4 ADD CALLDATALOAD SWAP4 POP POP POP JUMP JUMPDEST PUSH1 0x1 PUSH1 0x1 PUSH1 0xA0 SHL SUB SWAP2 SWAP1 SWAP2 AND DUP2 MSTORE PUSH1 0x20 ADD SWAP1 JUMP JUMPDEST PUSH1 0x0 PUSH1 0x20 DUP3 DUP5 SUB SLT ISZERO PUSH2 0x513B JUMPI PUSH1 0x0 DUP1 REVERT JUMPDEST POP CALLDATALOAD SWAP2 SWAP1 POP JUMP JUMPDEST SWAP2 DUP3 MSTORE PUSH1 0x20 DUP3 ADD MSTORE PUSH1 0x40 ADD SWAP1 JUMP JUMPDEST PUSH1 0x0 DUP1 PUSH1 0x40 DUP4 DUP6 SUB SLT ISZERO PUSH2 0x5163 JUMPI PUSH1 0x0 DUP1 REVERT JUMPDEST POP POP DUP1 CALLDATALOAD SWAP3 PUSH1 0x20 SWAP1 SWAP2 ADD CALLDATALOAD SWAP2 POP JUMP JUMPDEST PUSH4 0x4E487B71 PUSH1 0xE0 SHL PUSH1 0x0 MSTORE PUSH1 0x41 PUSH1 0x4 MSTORE PUSH1 0x24 PUSH1 0x0 REVERT JUMPDEST PUSH1 0x0 DUP1 PUSH1 0x40 DUP4 DUP6 SUB SLT ISZERO PUSH2 0x519B JUMPI PUSH1 0x0 DUP1 REVERT JUMPDEST PUSH2 0x51A4 DUP4 PUSH2 0x50B4 JUMP JUMPDEST SWAP2 POP PUSH1 0x20 DUP4 ADD CALLDATALOAD PUSH1 0x1 PUSH1 0x1 PUSH1 0x40 SHL SUB DUP1 DUP3 GT ISZERO PUSH2 0x51C0 JUMPI PUSH1 0x0 DUP1 REVERT JUMPDEST DUP2 DUP6 ADD SWAP2 POP DUP6 PUSH1 0x1F DUP4 ADD SLT PUSH2 0x51D4 JUMPI PUSH1 0x0 DUP1 REVERT JUMPDEST DUP2 CALLDATALOAD DUP2 DUP2 GT ISZERO PUSH2 0x51E6 JUMPI PUSH2 0x51E6 PUSH2 0x5172 JUMP JUMPDEST PUSH1 0x40 MLOAD PUSH1 0x1F DUP3 ADD PUSH1 0x1F NOT SWAP1 DUP2 AND PUSH1 0x3F ADD AND DUP2 ADD SWAP1 DUP4 DUP3 GT DUP2 DUP4 LT OR ISZERO PUSH2 0x520E JUMPI PUSH2 0x520E PUSH2 0x5172 JUMP JUMPDEST DUP2 PUSH1 0x40 MSTORE DUP3 DUP2 MSTORE DUP9 PUSH1 0x20 DUP5 DUP8 ADD ADD GT ISZERO PUSH2 0x5227 JUMPI PUSH1 0x0 DUP1 REVERT JUMPDEST DUP3 PUSH1 0x20 DUP7 ADD PUSH1 0x20 DUP4 ADD CALLDATACOPY PUSH1 0x0 PUSH1 0x20 DUP5 DUP4 ADD ADD MSTORE DUP1 SWAP6 POP POP POP POP POP POP SWAP3 POP SWAP3 SWAP1 POP JUMP JUMPDEST PUSH1 0x0 DUP1 DUP4 PUSH1 0x1F DUP5 ADD SLT PUSH2 0x525B JUMPI PUSH1 0x0 DUP1 REVERT JUMPDEST POP DUP2 CALLDATALOAD PUSH1 0x1 PUSH1 0x1 PUSH1 0x40 SHL SUB DUP2 GT ISZERO PUSH2 0x5272 JUMPI PUSH1 0x0 DUP1 REVERT JUMPDEST PUSH1 0x20 DUP4 ADD SWAP2 POP DUP4 PUSH1 0x20 DUP3 PUSH1 0x5 SHL DUP6 ADD ADD GT ISZERO PUSH2 0x528D JUMPI PUSH1 0x0 DUP1 REVERT JUMPDEST SWAP3 POP SWAP3 SWAP1 POP JUMP JUMPDEST PUSH1 0x0 DUP1 PUSH1 0x0 DUP1 PUSH1 0x40 DUP6 DUP8 SUB SLT ISZERO PUSH2 0x52AA JUMPI PUSH1 0x0 DUP1 REVERT JUMPDEST DUP5 CALLDATALOAD PUSH1 0x1 PUSH1 0x1 PUSH1 0x40 SHL SUB DUP1 DUP3 GT ISZERO PUSH2 0x52C1 JUMPI PUSH1 0x0 DUP1 REVERT JUMPDEST PUSH2 0x52CD DUP9 DUP4 DUP10 ADD PUSH2 0x5249 JUMP JUMPDEST SWAP1 SWAP7 POP SWAP5 POP PUSH1 0x20 DUP8 ADD CALLDATALOAD SWAP2 POP DUP1 DUP3 GT ISZERO PUSH2 0x52E6 JUMPI PUSH1 0x0 DUP1 REVERT JUMPDEST POP PUSH2 0x52F3 DUP8 DUP3 DUP9 ADD PUSH2 0x5249 JUMP JUMPDEST SWAP6 SWAP9 SWAP5 SWAP8 POP SWAP6 POP POP POP POP JUMP JUMPDEST PUSH1 0x1 PUSH1 0x1 PUSH1 0xA0 SHL SUB SWAP3 SWAP1 SWAP3 AND DUP3 MSTORE PUSH1 0x20 DUP3 ADD MSTORE PUSH1 0x40 ADD SWAP1 JUMP JUMPDEST PUSH1 0x0 DUP1 PUSH1 0x0 DUP1 PUSH1 0x80 DUP6 DUP8 SUB SLT ISZERO PUSH2 0x532E JUMPI PUSH1 0x0 DUP1 REVERT JUMPDEST PUSH2 0x5337 DUP6 PUSH2 0x50B4 JUMP JUMPDEST SWAP4 POP PUSH2 0x5345 PUSH1 0x20 DUP7 ADD PUSH2 0x50B4 JUMP JUMPDEST SWAP3 POP PUSH2 0x5353 PUSH1 0x40 DUP7 ADD PUSH2 0x50B4 JUMP JUMPDEST SWAP2 POP PUSH2 0x5361 PUSH1 0x60 DUP7 ADD PUSH2 0x50B4 JUMP JUMPDEST SWAP1 POP SWAP3 SWAP6 SWAP2 SWAP5 POP SWAP3 POP JUMP JUMPDEST PUSH1 0x0 JUMPDEST DUP4 DUP2 LT ISZERO PUSH2 0x5387 JUMPI DUP2 DUP2 ADD MLOAD DUP4 DUP3 ADD MSTORE PUSH1 0x20 ADD PUSH2 0x536F JUMP JUMPDEST POP POP PUSH1 0x0 SWAP2 ADD MSTORE JUMP JUMPDEST PUSH1 0x20 DUP2 MSTORE PUSH1 0x0 DUP3 MLOAD DUP1 PUSH1 0x20 DUP5 ADD MSTORE PUSH2 0x53AF DUP2 PUSH1 0x40 DUP6 ADD PUSH1 0x20 DUP8 ADD PUSH2 0x536C JUMP JUMPDEST PUSH1 0x1F ADD PUSH1 0x1F NOT AND SWAP2 SWAP1 SWAP2 ADD PUSH1 0x40 ADD SWAP3 SWAP2 POP POP JUMP JUMPDEST PUSH1 0x0 DUP1 PUSH1 0x0 DUP1 PUSH1 0x0 DUP1 PUSH1 0xC0 DUP8 DUP10 SUB SLT ISZERO PUSH2 0x53DC JUMPI PUSH1 0x0 DUP1 REVERT JUMPDEST PUSH2 0x53E5 DUP8 PUSH2 0x50B4 JUMP JUMPDEST SWAP6 POP PUSH2 0x53F3 PUSH1 0x20 DUP9 ADD PUSH2 0x50B4 JUMP JUMPDEST SWAP5 POP PUSH2 0x5401 PUSH1 0x40 DUP9 ADD PUSH2 0x50B4 JUMP JUMPDEST SWAP4 POP PUSH2 0x540F PUSH1 0x60 DUP9 ADD PUSH2 0x50B4 JUMP JUMPDEST SWAP3 POP PUSH2 0x541D PUSH1 0x80 DUP9 ADD PUSH2 0x50B4 JUMP JUMPDEST SWAP2 POP PUSH2 0x542B PUSH1 0xA0 DUP9 ADD PUSH2 0x50B4 JUMP JUMPDEST SWAP1 POP SWAP3 SWAP6 POP SWAP3 SWAP6 POP SWAP3 SWAP6 JUMP JUMPDEST PUSH1 0x0 DUP1 PUSH1 0x0 PUSH1 0x60 DUP5 DUP7 SUB SLT ISZERO PUSH2 0x544C JUMPI PUSH1 0x0 DUP1 REVERT JUMPDEST PUSH2 0x5455 DUP5 PUSH2 0x50B4 JUMP JUMPDEST SWAP3 POP PUSH2 0x5463 PUSH1 0x20 DUP6 ADD PUSH2 0x50B4 JUMP JUMPDEST SWAP2 POP PUSH1 0x40 DUP5 ADD CALLDATALOAD SWAP1 POP SWAP3 POP SWAP3 POP SWAP3 JUMP JUMPDEST PUSH1 0x0 DUP1 PUSH1 0x0 DUP1 PUSH1 0x0 DUP1 PUSH1 0xC0 DUP8 DUP10 SUB SLT ISZERO PUSH2 0x548C JUMPI PUSH1 0x0 DUP1 REVERT JUMPDEST POP POP DUP5 CALLDATALOAD SWAP7 PUSH1 0x20 DUP7 ADD CALLDATALOAD SWAP7 POP PUSH1 0x40 DUP7 ADD CALLDATALOAD SWAP6 PUSH1 0x60 DUP2 ADD CALLDATALOAD SWAP6 POP PUSH1 0x80 DUP2 ADD CALLDATALOAD SWAP5 POP PUSH1 0xA0 ADD CALLDATALOAD SWAP3 POP SWAP1 POP JUMP JUMPDEST PUSH1 0x20 DUP1 DUP3 MSTORE DUP3 MLOAD DUP3 DUP3 ADD DUP2 SWAP1 MSTORE PUSH1 0x0 SWAP2 SWAP1 DUP5 DUP3 ADD SWAP1 PUSH1 0x40 DUP6 ADD SWAP1 DUP5 JUMPDEST DUP2 DUP2 LT ISZERO PUSH2 0x54F7 JUMPI DUP4 MLOAD PUSH1 0x1 PUSH1 0x1 PUSH1 0xA0 SHL SUB AND DUP4 MSTORE SWAP3 DUP5 ADD SWAP3 SWAP2 DUP5 ADD SWAP2 PUSH1 0x1 ADD PUSH2 0x54D2 JUMP JUMPDEST POP SWAP1 SWAP7 SWAP6 POP POP POP POP POP POP JUMP JUMPDEST PUSH1 0x0 DUP1 PUSH1 0x0 DUP1 PUSH1 0x80 DUP6 DUP8 SUB SLT ISZERO PUSH2 0x5519 JUMPI PUSH1 0x0 DUP1 REVERT JUMPDEST PUSH2 0x5522 DUP6 PUSH2 0x50B4 JUMP JUMPDEST SWAP4 POP PUSH1 0x20 DUP6 ADD CALLDATALOAD SWAP3 POP PUSH2 0x5537 PUSH1 0x40 DUP7 ADD PUSH2 0x50B4 JUMP JUMPDEST SWAP4 SWAP7 SWAP3 SWAP6 POP SWAP3 SWAP4 PUSH1 0x60 ADD CALLDATALOAD SWAP3 POP POP JUMP JUMPDEST PUSH1 0x1 PUSH1 0x1 PUSH1 0xA0 SHL SUB SWAP4 DUP5 AND DUP2 MSTORE SWAP2 SWAP1 SWAP3 AND PUSH1 0x20 DUP3 ADD MSTORE PUSH1 0x40 DUP2 ADD SWAP2 SWAP1 SWAP2 MSTORE PUSH1 0x60 ADD SWAP1 JUMP JUMPDEST PUSH1 0x0 PUSH1 0x20 DUP3 DUP5 SUB SLT ISZERO PUSH2 0x557D JUMPI PUSH1 0x0 DUP1 REVERT JUMPDEST DUP2 MLOAD PUSH2 0x456D DUP2 PUSH2 0x506D JUMP JUMPDEST PUSH4 0x4E487B71 PUSH1 0xE0 SHL PUSH1 0x0 MSTORE PUSH1 0x11 PUSH1 0x4 MSTORE PUSH1 0x24 PUSH1 0x0 REVERT JUMPDEST DUP1 DUP3 MUL DUP2 ISZERO DUP3 DUP3 DIV DUP5 EQ OR PUSH2 0x4C39 JUMPI PUSH2 0x4C39 PUSH2 0x5588 JUMP JUMPDEST DUP1 DUP3 ADD DUP1 DUP3 GT ISZERO PUSH2 0x4C39 JUMPI PUSH2 0x4C39 PUSH2 0x5588 JUMP JUMPDEST PUSH1 0x0 DUP3 PUSH2 0x55E5 JUMPI PUSH4 0x4E487B71 PUSH1 0xE0 SHL PUSH1 0x0 MSTORE PUSH1 0x12 PUSH1 0x4 MSTORE PUSH1 0x24 PUSH1 0x0 REVERT JUMPDEST POP DIV SWAP1 JUMP JUMPDEST DUP2 DUP2 SUB DUP2 DUP2 GT ISZERO PUSH2 0x4C39 JUMPI PUSH2 0x4C39 PUSH2 0x5588 JUMP JUMPDEST PUSH1 0x0 PUSH1 0x20 DUP3 DUP5 SUB SLT ISZERO PUSH2 0x560F JUMPI PUSH1 0x0 DUP1 REVERT JUMPDEST POP MLOAD SWAP2 SWAP1 POP JUMP JUMPDEST SWAP3 DUP4 MSTORE PUSH1 0x20 DUP4 ADD SWAP2 SWAP1 SWAP2 MSTORE PUSH1 0x40 DUP3 ADD MSTORE PUSH1 0x60 ADD SWAP1 JUMP JUMPDEST PUSH4 0x4E487B71 PUSH1 0xE0 SHL PUSH1 0x0 MSTORE PUSH1 0x32 PUSH1 0x4 MSTORE PUSH1 0x24 PUSH1 0x0 REVERT JUMPDEST SWAP2 DUP3 MSTORE PUSH1 0xFF AND PUSH1 0x20 DUP3 ADD MSTORE PUSH1 0x40 ADD SWAP1 JUMP JUMPDEST SWAP4 DUP5 MSTORE PUSH1 0x20 DUP5 ADD SWAP3 SWAP1 SWAP3 MSTORE PUSH1 0xFF AND PUSH1 0x40 DUP4 ADD MSTORE PUSH1 0x60 DUP3 ADD MSTORE PUSH1 0x80 ADD SWAP1 JUMP JUMPDEST PUSH1 0x0 PUSH1 0x1 DUP3 ADD PUSH2 0x5683 JUMPI PUSH2 0x5683 PUSH2 0x5588 JUMP JUMPDEST POP PUSH1 0x1 ADD SWAP1 JUMP JUMPDEST SWAP3 DUP4 MSTORE PUSH1 0xFF SWAP2 SWAP1 SWAP2 AND PUSH1 0x20 DUP4 ADD MSTORE PUSH1 0x40 DUP3 ADD MSTORE PUSH1 0x60 ADD SWAP1 JUMP JUMPDEST PUSH1 0x0 DUP2 PUSH2 0x56B2 JUMPI PUSH2 0x56B2 PUSH2 0x5588 JUMP JUMPDEST POP PUSH1 0x0 NOT ADD SWAP1 JUMP JUMPDEST PUSH1 0x0 PUSH1 0x1 PUSH1 0xFF SHL DUP3 ADD PUSH2 0x56CF JUMPI PUSH2 0x56CF PUSH2 0x5588 JUMP JUMPDEST POP PUSH1 0x0 SUB SWAP1 JUMP JUMPDEST PUSH1 0x0 DUP3 MLOAD PUSH2 0x56E8 DUP2 DUP5 PUSH1 0x20 DUP8 ADD PUSH2 0x536C JUMP JUMPDEST SWAP2 SWAP1 SWAP2 ADD SWAP3 SWAP2 POP POP JUMP INVALID SWAP12 EXTCODECOPY 0xC7 EQ DUP3 LOG1 0xB2 0xEE 0xBE PUSH23 0x4A739F46F1FE99291FD0183BE81951532B29D0C9C8DA6F 0xCE 0xBD EXP 0x2C 0xE9 DUP12 0x28 0xCB CODECOPY SAR PUSH1 0x8 0xBB 0xC7 PUSH10 0x378C9A4919628E11639C 0xB5 PUSH22 0xCD320FCCA0EEA20E678CB42233C1C456C84CEDCE7EA5 EXTCODEHASH LOG3 PUSH1 0xBB PUSH18 0xBF3B761B7609567770360894A13BA1A32106 PUSH8 0xC828492DB98DCA3E KECCAK256 PUSH23 0xCC3735A920A3CA505D382BBCB5987AAB1AFD379F6695F1 MOD DUP9 PUSH10 0xEE8CA6A0D02304C57935 0xA9 0xCC RETURNDATASIZE RETURNDATACOPY LOG2 0xE5 0x1E 0x4D RETURN DUP2 PC BALANCE GASLIMIT 0xE9 SIGNEXTEND DUP3 0xCC 0x5E MSTORE SWAP12 DELEGATECALL 0xFC 0x4D 0xE PREVRANDAO CODECOPY PUSH18 0x74CDF145C4251AC33EF195A424F3A670CD3A 0xF7 0xD6 0x4B BASEFEE DUP10 0x26 DUP9 ADDMOD DUP10 0xD0 DUP11 DUP6 DUP6 LOG1 CODESIZE SELFDESTRUCT GASLIMIT MSTORE 0x27 0xAF PUSH8 0x37339A1EC262A264 PUSH10 0x70667358221220E74EDA 0xCF 0xB4 PUSH23 0xA4B12382BDFF3D6A9F7F629E97D70F7B62BDB596038671 SSTORE 0x1E 0xD5 PUSH5 0x736F6C6343 STOP ADDMOD AND STOP CALLER "},"methodIdentifiers":{"REWARD_DIFFERENTIAL()":"88481b61","REWARD_DIRECT()":"0e2be210","REWARD_DYNAMIC()":"8a859a85","REWARD_LEVEL()":"8c0eaa48","REWARD_STATIC()":"1427f616","SECONDS_IN_UNIT()":"488b5d97","UPGRADE_INTERFACE_VERSION()":"ad3cb1cc","addLiquidity(uint256,uint256)":"9cd441da","batchUpdateTeamCounts(address[],uint256[])":"74b0eecf","bindReferrer(address)":"04f618cb","buyTicket(uint256)":"67dd74ca","buybackPercent()":"e4412f68","buybackWallet()":"deab8aea","claimRewards()":"372500ab","directReferrals(address,uint256)":"05ad3935","directRewardPercent()":"ccf61944","getDirectReferrals(address)":"d2c8e0e5","getLevel(uint256)":"86481d40","getLevelByTeamCount(uint256)":"47194001","getLevelRewardLayers(uint256)":"182c84cc","initialize(address,address,address,address,address,address)":"cc2a9a5b","jbcToken()":"1788513c","lastBurnTime()":"e3067449","levelRewardPercent()":"bd594dcf","levelRewardPool()":"b759936b","liquidityEnabled()":"b048a4bb","lpInjectionPercent()":"ceaa366d","lpInjectionWallet()":"88fd4d33","marketingPercent()":"d8020a18","marketingWallet()":"75f0a874","mcToken()":"95253992","nextStakeId()":"75506c96","nextTicketId()":"6031a52f","owner()":"8da5cb5b","proxiableUUID()":"52d1902d","redeem()":"be040fb0","redeemEnabled()":"d2f82536","redemptionFeePercent()":"dec7fa3b","renounceOwnership()":"715018a6","rescueTokens(address,address,uint256)":"cea9d26f","setDistributionConfig(uint256,uint256,uint256,uint256,uint256,uint256)":"d0f16470","setOperationalStatus(bool,bool)":"01d62efb","setRedemptionFeePercent(uint256)":"ece71266","setSwapTaxes(uint256,uint256)":"90b0eb51","setTicketFlexibilityDuration(uint256)":"9d99eca4","setWallets(address,address,address,address)":"83672f3e","stakeLiquidity(uint256,uint256)":"4ea4c6b3","stakeOwner(uint256)":"3dbd46bd","stakePendingRewards(uint256,uint256)":"ac8f50aa","swapBuyTax()":"27f082f4","swapJBCToMC(uint256)":"52778b05","swapMCToJBC(uint256)":"0a5c4567","swapReserveJBC()":"1d0dac76","swapReserveMC()":"77a2a540","swapSellTax()":"9370b080","ticketFlexibilityDuration()":"6dd66827","ticketOwner(uint256)":"c2ff12fc","ticketPendingRewards(uint256,uint256)":"813380cd","transferOwnership(address)":"f2fde38b","treasuryPercent()":"04ef9d58","treasuryWallet()":"4626402b","upgradeToAndCall(address,bytes)":"4f1ef286","userInfo(address)":"1959a002","userStakes(address,uint256)":"b5d5b5fa","userTicket(address)":"8710bcaa","withdrawLevelRewardPool(address,uint256)":"99b6024d","withdrawSwapReserves(address,uint256,address,uint256)":"d4f00142"}},"storageLayout":{"storage":[{"astId":1589,"contract":"contracts/JinbaoProtocol.sol:JinbaoProtocol","label":"mcToken","offset":0,"slot":"0","type":"t_contract(IERC20)1103"},{"astId":1592,"contract":"contracts/JinbaoProtocol.sol:JinbaoProtocol","label":"jbcToken","offset":0,"slot":"1","type":"t_contract(IJBC)1523"},{"astId":1594,"contract":"contracts/JinbaoProtocol.sol:JinbaoProtocol","label":"marketingWallet","offset":0,"slot":"2","type":"t_address"},{"astId":1596,"contract":"contracts/JinbaoProtocol.sol:JinbaoProtocol","label":"treasuryWallet","offset":0,"slot":"3","type":"t_address"},{"astId":1598,"contract":"contracts/JinbaoProtocol.sol:JinbaoProtocol","label":"lpInjectionWallet","offset":0,"slot":"4","type":"t_address"},{"astId":1600,"contract":"contracts/JinbaoProtocol.sol:JinbaoProtocol","label":"buybackWallet","offset":0,"slot":"5","type":"t_address"},{"astId":1605,"contract":"contracts/JinbaoProtocol.sol:JinbaoProtocol","label":"directRewardPercent","offset":0,"slot":"6","type":"t_uint256"},{"astId":1607,"contract":"contracts/JinbaoProtocol.sol:JinbaoProtocol","label":"levelRewardPercent","offset":0,"slot":"7","type":"t_uint256"},{"astId":1609,"contract":"contracts/JinbaoProtocol.sol:JinbaoProtocol","label":"marketingPercent","offset":0,"slot":"8","type":"t_uint256"},{"astId":1611,"contract":"contracts/JinbaoProtocol.sol:JinbaoProtocol","label":"buybackPercent","offset":0,"slot":"9","type":"t_uint256"},{"astId":1613,"contract":"contracts/JinbaoProtocol.sol:JinbaoProtocol","label":"lpInjectionPercent","offset":0,"slot":"10","type":"t_uint256"},{"astId":1615,"contract":"contracts/JinbaoProtocol.sol:JinbaoProtocol","label":"treasuryPercent","offset":0,"slot":"11","type":"t_uint256"},{"astId":1617,"contract":"contracts/JinbaoProtocol.sol:JinbaoProtocol","label":"redemptionFeePercent","offset":0,"slot":"12","type":"t_uint256"},{"astId":1619,"contract":"contracts/JinbaoProtocol.sol:JinbaoProtocol","label":"swapBuyTax","offset":0,"slot":"13","type":"t_uint256"},{"astId":1621,"contract":"contracts/JinbaoProtocol.sol:JinbaoProtocol","label":"swapSellTax","offset":0,"slot":"14","type":"t_uint256"},{"astId":1641,"contract":"contracts/JinbaoProtocol.sol:JinbaoProtocol","label":"userInfo","offset":0,"slot":"15","type":"t_mapping(t_address,t_struct(UserInfo)1552_storage)"},{"astId":1646,"contract":"contracts/JinbaoProtocol.sol:JinbaoProtocol","label":"userTicket","offset":0,"slot":"16","type":"t_mapping(t_address,t_struct(Ticket)1574_storage)"},{"astId":1652,"contract":"contracts/JinbaoProtocol.sol:JinbaoProtocol","label":"userStakes","offset":0,"slot":"17","type":"t_mapping(t_address,t_array(t_struct(Stake)1565_storage)dyn_storage)"},{"astId":1657,"contract":"contracts/JinbaoProtocol.sol:JinbaoProtocol","label":"directReferrals","offset":0,"slot":"18","type":"t_mapping(t_address,t_array(t_address)dyn_storage)"},{"astId":1663,"contract":"contracts/JinbaoProtocol.sol:JinbaoProtocol","label":"ticketPendingRewards","offset":0,"slot":"19","type":"t_mapping(t_uint256,t_array(t_struct(PendingReward)1579_storage)dyn_storage)"},{"astId":1665,"contract":"contracts/JinbaoProtocol.sol:JinbaoProtocol","label":"ticketFlexibilityDuration","offset":0,"slot":"20","type":"t_uint256"},{"astId":1667,"contract":"contracts/JinbaoProtocol.sol:JinbaoProtocol","label":"liquidityEnabled","offset":0,"slot":"21","type":"t_bool"},{"astId":1669,"contract":"contracts/JinbaoProtocol.sol:JinbaoProtocol","label":"redeemEnabled","offset":1,"slot":"21","type":"t_bool"},{"astId":1671,"contract":"contracts/JinbaoProtocol.sol:JinbaoProtocol","label":"swapReserveMC","offset":0,"slot":"22","type":"t_uint256"},{"astId":1673,"contract":"contracts/JinbaoProtocol.sol:JinbaoProtocol","label":"swapReserveJBC","offset":0,"slot":"23","type":"t_uint256"},{"astId":1675,"contract":"contracts/JinbaoProtocol.sol:JinbaoProtocol","label":"nextTicketId","offset":0,"slot":"24","type":"t_uint256"},{"astId":1677,"contract":"contracts/JinbaoProtocol.sol:JinbaoProtocol","label":"nextStakeId","offset":0,"slot":"25","type":"t_uint256"},{"astId":1679,"contract":"contracts/JinbaoProtocol.sol:JinbaoProtocol","label":"lastBurnTime","offset":0,"slot":"26","type":"t_uint256"},{"astId":1683,"contract":"contracts/JinbaoProtocol.sol:JinbaoProtocol","label":"ticketOwner","offset":0,"slot":"27","type":"t_mapping(t_uint256,t_address)"},{"astId":1689,"contract":"contracts/JinbaoProtocol.sol:JinbaoProtocol","label":"stakePendingRewards","offset":0,"slot":"28","type":"t_mapping(t_uint256,t_array(t_struct(PendingReward)1579_storage)dyn_storage)"},{"astId":1693,"contract":"contracts/JinbaoProtocol.sol:JinbaoProtocol","label":"stakeOwner","offset":0,"slot":"29","type":"t_mapping(t_uint256,t_address)"},{"astId":1695,"contract":"contracts/JinbaoProtocol.sol:JinbaoProtocol","label":"levelRewardPool","offset":0,"slot":"30","type":"t_uint256"},{"astId":1703,"contract":"contracts/JinbaoProtocol.sol:JinbaoProtocol","label":"__gap","offset":0,"slot":"31","type":"t_array(t_uint256)47_storage"}],"types":{"t_address":{"encoding":"inplace","label":"address","numberOfBytes":"20"},"t_array(t_address)dyn_storage":{"base":"t_address","encoding":"dynamic_array","label":"address[]","numberOfBytes":"32"},"t_array(t_struct(PendingReward)1579_storage)dyn_storage":{"base":"t_struct(PendingReward)1579_storage","encoding":"dynamic_array","label":"struct JinbaoProtocol.PendingReward[]","numberOfBytes":"32"},"t_array(t_struct(Stake)1565_storage)dyn_storage":{"base":"t_struct(Stake)1565_storage","encoding":"dynamic_array","label":"struct JinbaoProtocol.Stake[]","numberOfBytes":"32"},"t_array(t_uint256)47_storage":{"base":"t_uint256","encoding":"inplace","label":"uint256[47]","numberOfBytes":"1504"},"t_bool":{"encoding":"inplace","label":"bool","numberOfBytes":"1"},"t_contract(IERC20)1103":{"encoding":"inplace","label":"contract IERC20","numberOfBytes":"20"},"t_contract(IJBC)1523":{"encoding":"inplace","label":"contract IJBC","numberOfBytes":"20"},"t_mapping(t_address,t_array(t_address)dyn_storage)":{"encoding":"mapping","key":"t_address","label":"mapping(address => address[])","numberOfBytes":"32","value":"t_array(t_address)dyn_storage"},"t_mapping(t_address,t_array(t_struct(Stake)1565_storage)dyn_storage)":{"encoding":"mapping","key":"t_address","label":"mapping(address => struct JinbaoProtocol.Stake[])","numberOfBytes":"32","value":"t_array(t_struct(Stake)1565_storage)dyn_storage"},"t_mapping(t_address,t_struct(Ticket)1574_storage)":{"encoding":"mapping","key":"t_address","label":"mapping(address => struct JinbaoProtocol.Ticket)","numberOfBytes":"32","value":"t_struct(Ticket)1574_storage"},"t_mapping(t_address,t_struct(UserInfo)1552_storage)":{"encoding":"mapping","key":"t_address","label":"mapping(address => struct JinbaoProtocol.UserInfo)","numberOfBytes":"32","value":"t_struct(UserInfo)1552_storage"},"t_mapping(t_uint256,t_address)":{"encoding":"mapping","key":"t_uint256","label":"mapping(uint256 => address)","numberOfBytes":"32","value":"t_address"},"t_mapping(t_uint256,t_array(t_struct(PendingReward)1579_storage)dyn_storage)":{"encoding":"mapping","key":"t_uint256","label":"mapping(uint256 => struct JinbaoProtocol.PendingReward[])","numberOfBytes":"32","value":"t_array(t_struct(PendingReward)1579_storage)dyn_storage"},"t_struct(PendingReward)1579_storage":{"encoding":"inplace","label":"struct JinbaoProtocol.PendingReward","members":[{"astId":1576,"contract":"contracts/JinbaoProtocol.sol:JinbaoProtocol","label":"upline","offset":0,"slot":"0","type":"t_address"},{"astId":1578,"contract":"contracts/JinbaoProtocol.sol:JinbaoProtocol","label":"amount","offset":0,"slot":"1","type":"t_uint256"}],"numberOfBytes":"64"},"t_struct(Stake)1565_storage":{"encoding":"inplace","label":"struct JinbaoProtocol.Stake","members":[{"astId":1554,"contract":"contracts/JinbaoProtocol.sol:JinbaoProtocol","label":"id","offset":0,"slot":"0","type":"t_uint256"},{"astId":1556,"contract":"contracts/JinbaoProtocol.sol:JinbaoProtocol","label":"amount","offset":0,"slot":"1","type":"t_uint256"},{"astId":1558,"contract":"contracts/JinbaoProtocol.sol:JinbaoProtocol","label":"startTime","offset":0,"slot":"2","type":"t_uint256"},{"astId":1560,"contract":"contracts/JinbaoProtocol.sol:JinbaoProtocol","label":"cycleDays","offset":0,"slot":"3","type":"t_uint256"},{"astId":1562,"contract":"contracts/JinbaoProtocol.sol:JinbaoProtocol","label":"active","offset":0,"slot":"4","type":"t_bool"},{"astId":1564,"contract":"contracts/JinbaoProtocol.sol:JinbaoProtocol","label":"paid","offset":0,"slot":"5","type":"t_uint256"}],"numberOfBytes":"192"},"t_struct(Ticket)1574_storage":{"encoding":"inplace","label":"struct JinbaoProtocol.Ticket","members":[{"astId":1567,"contract":"contracts/JinbaoProtocol.sol:JinbaoProtocol","label":"ticketId","offset":0,"slot":"0","type":"t_uint256"},{"astId":1569,"contract":"contracts/JinbaoProtocol.sol:JinbaoProtocol","label":"amount","offset":0,"slot":"1","type":"t_uint256"},{"astId":1571,"contract":"contracts/JinbaoProtocol.sol:JinbaoProtocol","label":"purchaseTime","offset":0,"slot":"2","type":"t_uint256"},{"astId":1573,"contract":"contracts/JinbaoProtocol.sol:JinbaoProtocol","label":"exited","offset":0,"slot":"3","type":"t_bool"}],"numberOfBytes":"128"},"t_struct(UserInfo)1552_storage":{"encoding":"inplace","label":"struct JinbaoProtocol.UserInfo","members":[{"astId":1531,"contract":"contracts/JinbaoProtocol.sol:JinbaoProtocol","label":"referrer","offset":0,"slot":"0","type":"t_address"},{"astId":1533,"contract":"contracts/JinbaoProtocol.sol:JinbaoProtocol","label":"activeDirects","offset":0,"slot":"1","type":"t_uint256"},{"astId":1535,"contract":"contracts/JinbaoProtocol.sol:JinbaoProtocol","label":"teamCount","offset":0,"slot":"2","type":"t_uint256"},{"astId":1537,"contract":"contracts/JinbaoProtocol.sol:JinbaoProtocol","label":"totalRevenue","offset":0,"slot":"3","type":"t_uint256"},{"astId":1539,"contract":"contracts/JinbaoProtocol.sol:JinbaoProtocol","label":"currentCap","offset":0,"slot":"4","type":"t_uint256"},{"astId":1541,"contract":"contracts/JinbaoProtocol.sol:JinbaoProtocol","label":"isActive","offset":0,"slot":"5","type":"t_bool"},{"astId":1543,"contract":"contracts/JinbaoProtocol.sol:JinbaoProtocol","label":"refundFeeAmount","offset":0,"slot":"6","type":"t_uint256"},{"astId":1545,"contract":"contracts/JinbaoProtocol.sol:JinbaoProtocol","label":"teamTotalVolume","offset":0,"slot":"7","type":"t_uint256"},{"astId":1547,"contract":"contracts/JinbaoProtocol.sol:JinbaoProtocol","label":"teamTotalCap","offset":0,"slot":"8","type":"t_uint256"},{"astId":1549,"contract":"contracts/JinbaoProtocol.sol:JinbaoProtocol","label":"maxTicketAmount","offset":0,"slot":"9","type":"t_uint256"},{"astId":1551,"contract":"contracts/JinbaoProtocol.sol:JinbaoProtocol","label":"maxSingleTicketAmount","offset":0,"slot":"10","type":"t_uint256"}],"numberOfBytes":"352"},"t_uint256":{"encoding":"inplace","label":"uint256","numberOfBytes":"32"}}}}}}