{"contracts/JinbaoProtocol.sol":{"JinbaoProtocol":{"abi":[{"inputs":[],"stateMutability":"nonpayable","type":"constructor"},{"inputs":[{"internalType":"address","name":"target","type":"address"}],"name":"AddressEmptyCode","type":"error"},{"inputs":[],"name":"AlreadyBound","type":"error"},{"inputs":[],"name":"AlreadyExited","type":"error"},{"inputs":[],"name":"BatchUpdateSizeMismatch","type":"error"},{"inputs":[{"internalType":"address","name":"implementation","type":"address"}],"name":"ERC1967InvalidImplementation","type":"error"},{"inputs":[],"name":"ERC1967NonPayable","type":"error"},{"inputs":[],"name":"Expired","type":"error"},{"inputs":[],"name":"FailedCall","type":"error"},{"inputs":[],"name":"InsufficientBalance","type":"error"},{"inputs":[],"name":"InvalidAddress","type":"error"},{"inputs":[],"name":"InvalidAmount","type":"error"},{"inputs":[],"name":"InvalidCycle","type":"error"},{"inputs":[],"name":"InvalidFee","type":"error"},{"inputs":[],"name":"InvalidInitialization","type":"error"},{"inputs":[],"name":"InvalidLevelConfig","type":"error"},{"inputs":[],"name":"InvalidRate","type":"error"},{"inputs":[],"name":"InvalidTax","type":"error"},{"inputs":[],"name":"InvalidTeamCountUpdate","type":"error"},{"inputs":[],"name":"LowLiquidity","type":"error"},{"inputs":[],"name":"NoRewards","type":"error"},{"inputs":[],"name":"NotActive","type":"error"},{"inputs":[],"name":"NotInitializing","type":"error"},{"inputs":[],"name":"NothingToRedeem","type":"error"},{"inputs":[{"internalType":"address","name":"owner","type":"address"}],"name":"OwnableInvalidOwner","type":"error"},{"inputs":[{"internalType":"address","name":"account","type":"address"}],"name":"OwnableUnauthorizedAccount","type":"error"},{"inputs":[],"name":"RecursionDepthExceeded","type":"error"},{"inputs":[],"name":"ReentrancyGuardReentrantCall","type":"error"},{"inputs":[],"name":"SelfReference","type":"error"},{"inputs":[],"name":"SumNot100","type":"error"},{"inputs":[{"internalType":"address","name":"user","type":"address"},{"internalType":"uint256","name":"expected","type":"uint256"},{"internalType":"uint256","name":"actual","type":"uint256"}],"name":"TeamCountMismatch","type":"error"},{"inputs":[],"name":"TeamCountOverflow","type":"error"},{"inputs":[],"name":"TransferFailed","type":"error"},{"inputs":[],"name":"UUPSUnauthorizedCallContext","type":"error"},{"inputs":[{"internalType":"bytes32","name":"slot","type":"bytes32"}],"name":"UUPSUnsupportedProxiableUUID","type":"error"},{"inputs":[],"name":"Unauthorized","type":"error"},{"anonymous":false,"inputs":[{"indexed":false,"internalType":"uint256","name":"usersUpdated","type":"uint256"}],"name":"BatchTeamCountsUpdated","type":"event"},{"anonymous":false,"inputs":[{"indexed":true,"internalType":"address","name":"user","type":"address"},{"indexed":true,"internalType":"address","name":"referrer","type":"address"}],"name":"BoundReferrer","type":"event"},{"anonymous":false,"inputs":[{"indexed":false,"internalType":"uint256","name":"mcAmount","type":"uint256"},{"indexed":false,"internalType":"uint256","name":"jbcBurned","type":"uint256"}],"name":"BuybackAndBurn","type":"event"},{"anonymous":false,"inputs":[{"indexed":true,"internalType":"uint256","name":"stakeId","type":"uint256"},{"indexed":true,"internalType":"address","name":"upline","type":"address"},{"indexed":false,"internalType":"uint256","name":"amount","type":"uint256"}],"name":"DifferentialRewardRecorded","type":"event"},{"anonymous":false,"inputs":[{"indexed":true,"internalType":"uint256","name":"stakeId","type":"uint256"},{"indexed":true,"internalType":"address","name":"upline","type":"address"},{"indexed":false,"internalType":"uint256","name":"amount","type":"uint256"}],"name":"DifferentialRewardReleased","type":"event"},{"anonymous":false,"inputs":[{"indexed":false,"internalType":"uint256","name":"direct","type":"uint256"},{"indexed":false,"internalType":"uint256","name":"level","type":"uint256"},{"indexed":false,"internalType":"uint256","name":"marketing","type":"uint256"},{"indexed":false,"internalType":"uint256","name":"buyback","type":"uint256"},{"indexed":false,"internalType":"uint256","name":"lpInjection","type":"uint256"},{"indexed":false,"internalType":"uint256","name":"treasury","type":"uint256"}],"name":"DistributionConfigUpdated","type":"event"},{"anonymous":false,"inputs":[],"name":"EmergencyPaused","type":"event"},{"anonymous":false,"inputs":[],"name":"EmergencyUnpaused","type":"event"},{"anonymous":false,"inputs":[{"indexed":true,"internalType":"address","name":"user","type":"address"},{"indexed":false,"internalType":"uint256","name":"ticketId","type":"uint256"}],"name":"Exited","type":"event"},{"anonymous":false,"inputs":[{"indexed":true,"internalType":"address","name":"user","type":"address"},{"indexed":false,"internalType":"uint256","name":"amount","type":"uint256"}],"name":"FeeRefunded","type":"event"},{"anonymous":false,"inputs":[{"indexed":false,"internalType":"uint64","name":"version","type":"uint64"}],"name":"Initialized","type":"event"},{"anonymous":false,"inputs":[],"name":"LevelConfigsUpdated","type":"event"},{"anonymous":false,"inputs":[{"indexed":false,"internalType":"uint256","name":"amount","type":"uint256"},{"indexed":false,"internalType":"uint256","name":"newTotal","type":"uint256"}],"name":"LevelRewardPoolUpdated","type":"event"},{"anonymous":false,"inputs":[{"indexed":true,"internalType":"address","name":"to","type":"address"},{"indexed":false,"internalType":"uint256","name":"amount","type":"uint256"}],"name":"LevelRewardPoolWithdrawn","type":"event"},{"anonymous":false,"inputs":[{"indexed":true,"internalType":"uint256","name":"ticketId","type":"uint256"},{"indexed":true,"internalType":"address","name":"upline","type":"address"},{"indexed":false,"internalType":"uint256","name":"amount","type":"uint256"}],"name":"LevelRewardRecorded","type":"event"},{"anonymous":false,"inputs":[{"indexed":true,"internalType":"uint256","name":"ticketId","type":"uint256"},{"indexed":true,"internalType":"address","name":"upline","type":"address"},{"indexed":false,"internalType":"uint256","name":"amount","type":"uint256"}],"name":"LevelRewardReleased","type":"event"},{"anonymous":false,"inputs":[{"indexed":false,"internalType":"uint256","name":"mcAmount","type":"uint256"},{"indexed":false,"internalType":"uint256","name":"jbcAmount","type":"uint256"}],"name":"LiquidityAdded","type":"event"},{"anonymous":false,"inputs":[{"indexed":true,"internalType":"address","name":"user","type":"address"},{"indexed":false,"internalType":"uint256","name":"amount","type":"uint256"},{"indexed":false,"internalType":"uint256","name":"cycleDays","type":"uint256"},{"indexed":false,"internalType":"uint256","name":"stakeId","type":"uint256"}],"name":"LiquidityStaked","type":"event"},{"anonymous":false,"inputs":[{"indexed":false,"internalType":"bool","name":"enabled","type":"bool"}],"name":"LiquidityStatusUpdated","type":"event"},{"anonymous":false,"inputs":[{"indexed":true,"internalType":"address","name":"previousOwner","type":"address"},{"indexed":true,"internalType":"address","name":"newOwner","type":"address"}],"name":"OwnershipTransferred","type":"event"},{"anonymous":false,"inputs":[{"indexed":false,"internalType":"bool","name":"enabled","type":"bool"}],"name":"RedeemStatusUpdated","type":"event"},{"anonymous":false,"inputs":[{"indexed":true,"internalType":"address","name":"user","type":"address"},{"indexed":false,"internalType":"uint256","name":"principal","type":"uint256"},{"indexed":false,"internalType":"uint256","name":"fee","type":"uint256"}],"name":"Redeemed","type":"event"},{"anonymous":false,"inputs":[{"indexed":false,"internalType":"uint256","name":"newFee","type":"uint256"}],"name":"RedemptionFeeUpdated","type":"event"},{"anonymous":false,"inputs":[{"indexed":true,"internalType":"address","name":"user","type":"address"},{"indexed":true,"internalType":"address","name":"from","type":"address"},{"indexed":false,"internalType":"uint256","name":"mcAmount","type":"uint256"},{"indexed":false,"internalType":"uint8","name":"rewardType","type":"uint8"},{"indexed":false,"internalType":"uint256","name":"ticketId","type":"uint256"}],"name":"ReferralRewardPaid","type":"event"},{"anonymous":false,"inputs":[{"indexed":true,"internalType":"address","name":"user","type":"address"},{"indexed":true,"internalType":"address","name":"oldReferrer","type":"address"},{"indexed":true,"internalType":"address","name":"newReferrer","type":"address"}],"name":"ReferrerChanged","type":"event"},{"anonymous":false,"inputs":[{"indexed":true,"internalType":"address","name":"user","type":"address"},{"indexed":false,"internalType":"uint256","name":"amount","type":"uint256"},{"indexed":false,"internalType":"uint256","name":"cappedAmount","type":"uint256"}],"name":"RewardCapped","type":"event"},{"anonymous":false,"inputs":[{"indexed":true,"internalType":"address","name":"user","type":"address"},{"indexed":false,"internalType":"uint256","name":"mcAmount","type":"uint256"},{"indexed":false,"internalType":"uint256","name":"jbcAmount","type":"uint256"},{"indexed":false,"internalType":"uint8","name":"rewardType","type":"uint8"},{"indexed":false,"internalType":"uint256","name":"ticketId","type":"uint256"}],"name":"RewardClaimed","type":"event"},{"anonymous":false,"inputs":[{"indexed":true,"internalType":"address","name":"user","type":"address"},{"indexed":false,"internalType":"uint256","name":"amount","type":"uint256"},{"indexed":false,"internalType":"uint8","name":"rewardType","type":"uint8"}],"name":"RewardPaid","type":"event"},{"anonymous":false,"inputs":[{"indexed":false,"internalType":"uint256","name":"mcAmount","type":"uint256"},{"indexed":false,"internalType":"uint256","name":"jbcAmount","type":"uint256"}],"name":"SwapReservesWithdrawn","type":"event"},{"anonymous":false,"inputs":[{"indexed":false,"internalType":"uint256","name":"buyTax","type":"uint256"},{"indexed":false,"internalType":"uint256","name":"sellTax","type":"uint256"}],"name":"SwapTaxesUpdated","type":"event"},{"anonymous":false,"inputs":[{"indexed":true,"internalType":"address","name":"user","type":"address"},{"indexed":false,"internalType":"uint256","name":"jbcAmount","type":"uint256"},{"indexed":false,"internalType":"uint256","name":"mcAmount","type":"uint256"},{"indexed":false,"internalType":"uint256","name":"tax","type":"uint256"}],"name":"SwappedJBCToMC","type":"event"},{"anonymous":false,"inputs":[{"indexed":true,"internalType":"address","name":"user","type":"address"},{"indexed":false,"internalType":"uint256","name":"mcAmount","type":"uint256"},{"indexed":false,"internalType":"uint256","name":"jbcAmount","type":"uint256"},{"indexed":false,"internalType":"uint256","name":"tax","type":"uint256"}],"name":"SwappedMCToJBC","type":"event"},{"anonymous":false,"inputs":[{"indexed":true,"internalType":"uint256","name":"stakeId","type":"uint256"},{"indexed":true,"internalType":"address","name":"upline","type":"address"},{"indexed":false,"internalType":"uint256","name":"amount","type":"uint256"},{"indexed":false,"internalType":"uint256","name":"teamCount","type":"uint256"}],"name":"TeamBasedRewardCalculated","type":"event"},{"anonymous":false,"inputs":[{"indexed":true,"internalType":"address","name":"user","type":"address"},{"indexed":false,"internalType":"uint256","name":"oldCount","type":"uint256"},{"indexed":false,"internalType":"uint256","name":"newCount","type":"uint256"}],"name":"TeamCountUpdated","type":"event"},{"anonymous":false,"inputs":[{"indexed":true,"internalType":"address","name":"user","type":"address"},{"indexed":false,"internalType":"uint256","name":"expected","type":"uint256"},{"indexed":false,"internalType":"uint256","name":"actual","type":"uint256"}],"name":"TeamCountValidationFailed","type":"event"},{"anonymous":false,"inputs":[{"indexed":true,"internalType":"address","name":"user","type":"address"},{"indexed":false,"internalType":"uint256","name":"ticketId","type":"uint256"},{"indexed":false,"internalType":"uint256","name":"amount","type":"uint256"}],"name":"TicketExpired","type":"event"},{"anonymous":false,"inputs":[{"indexed":false,"internalType":"uint256","name":"newDuration","type":"uint256"}],"name":"TicketFlexibilityDurationUpdated","type":"event"},{"anonymous":false,"inputs":[{"indexed":true,"internalType":"address","name":"user","type":"address"},{"indexed":false,"internalType":"uint256","name":"amount","type":"uint256"},{"indexed":false,"internalType":"uint256","name":"ticketId","type":"uint256"}],"name":"TicketPurchased","type":"event"},{"anonymous":false,"inputs":[{"indexed":false,"internalType":"address","name":"token","type":"address"},{"indexed":false,"internalType":"address","name":"to","type":"address"},{"indexed":false,"internalType":"uint256","name":"amount","type":"uint256"}],"name":"TokensRescued","type":"event"},{"anonymous":false,"inputs":[{"indexed":true,"internalType":"address","name":"implementation","type":"address"}],"name":"Upgraded","type":"event"},{"anonymous":false,"inputs":[{"indexed":true,"internalType":"address","name":"user","type":"address"},{"indexed":false,"internalType":"uint256","name":"activeDirects","type":"uint256"},{"indexed":false,"internalType":"uint256","name":"totalRevenue","type":"uint256"},{"indexed":false,"internalType":"uint256","name":"currentCap","type":"uint256"},{"indexed":false,"internalType":"uint256","name":"refundFee","type":"uint256"}],"name":"UserDataUpdated","type":"event"},{"anonymous":false,"inputs":[{"indexed":true,"internalType":"address","name":"user","type":"address"}],"name":"UserReset","type":"event"},{"anonymous":false,"inputs":[{"indexed":false,"internalType":"address","name":"marketing","type":"address"},{"indexed":false,"internalType":"address","name":"treasury","type":"address"},{"indexed":false,"internalType":"address","name":"lpInjection","type":"address"},{"indexed":false,"internalType":"address","name":"buyback","type":"address"}],"name":"WalletsUpdated","type":"event"},{"inputs":[],"name":"MAX_PRICE_IMPACT","outputs":[{"internalType":"uint256","name":"","type":"uint256"}],"stateMutability":"view","type":"function"},{"inputs":[],"name":"MIN_LIQUIDITY","outputs":[{"internalType":"uint256","name":"","type":"uint256"}],"stateMutability":"view","type":"function"},{"inputs":[],"name":"REWARD_DIFFERENTIAL","outputs":[{"internalType":"uint8","name":"","type":"uint8"}],"stateMutability":"view","type":"function"},{"inputs":[],"name":"REWARD_DIRECT","outputs":[{"internalType":"uint8","name":"","type":"uint8"}],"stateMutability":"view","type":"function"},{"inputs":[],"name":"REWARD_DYNAMIC","outputs":[{"internalType":"uint8","name":"","type":"uint8"}],"stateMutability":"view","type":"function"},{"inputs":[],"name":"REWARD_LEVEL","outputs":[{"internalType":"uint8","name":"","type":"uint8"}],"stateMutability":"view","type":"function"},{"inputs":[],"name":"REWARD_STATIC","outputs":[{"internalType":"uint8","name":"","type":"uint8"}],"stateMutability":"view","type":"function"},{"inputs":[],"name":"SECONDS_IN_UNIT","outputs":[{"internalType":"uint256","name":"","type":"uint256"}],"stateMutability":"view","type":"function"},{"inputs":[],"name":"UPGRADE_INTERFACE_VERSION","outputs":[{"internalType":"string","name":"","type":"string"}],"stateMutability":"view","type":"function"},{"inputs":[{"internalType":"uint256","name":"mcAmount","type":"uint256"},{"internalType":"uint256","name":"jbcAmount","type":"uint256"}],"name":"addLiquidity","outputs":[],"stateMutability":"nonpayable","type":"function"},{"inputs":[{"internalType":"address","name":"user","type":"address"}],"name":"adminResetUser","outputs":[],"stateMutability":"nonpayable","type":"function"},{"inputs":[{"internalType":"address","name":"user","type":"address"},{"internalType":"address","name":"newReferrer","type":"address"}],"name":"adminSetReferrer","outputs":[],"stateMutability":"nonpayable","type":"function"},{"inputs":[{"internalType":"address","name":"user","type":"address"},{"internalType":"bool","name":"updateActiveDirects","type":"bool"},{"internalType":"uint256","name":"newActiveDirects","type":"uint256"},{"internalType":"bool","name":"updateTotalRevenue","type":"bool"},{"internalType":"uint256","name":"newTotalRevenue","type":"uint256"},{"internalType":"bool","name":"updateCurrentCap","type":"bool"},{"internalType":"uint256","name":"newCurrentCap","type":"uint256"},{"internalType":"bool","name":"updateRefundFee","type":"bool"},{"internalType":"uint256","name":"newRefundFee","type":"uint256"}],"name":"adminUpdateUserData","outputs":[],"stateMutability":"nonpayable","type":"function"},{"inputs":[{"internalType":"address[]","name":"users","type":"address[]"},{"internalType":"uint256[]","name":"counts","type":"uint256[]"}],"name":"batchUpdateTeamCounts","outputs":[],"stateMutability":"nonpayable","type":"function"},{"inputs":[{"internalType":"address[]","name":"users","type":"address[]"},{"internalType":"uint256[]","name":"volumes","type":"uint256[]"}],"name":"batchUpdateTeamVolumes","outputs":[],"stateMutability":"nonpayable","type":"function"},{"inputs":[{"internalType":"address","name":"_referrer","type":"address"}],"name":"bindReferrer","outputs":[],"stateMutability":"nonpayable","type":"function"},{"inputs":[{"internalType":"uint256","name":"amount","type":"uint256"}],"name":"buyTicket","outputs":[],"stateMutability":"nonpayable","type":"function"},{"inputs":[],"name":"buybackPercent","outputs":[{"internalType":"uint256","name":"","type":"uint256"}],"stateMutability":"view","type":"function"},{"inputs":[],"name":"buybackWallet","outputs":[{"internalType":"address","name":"","type":"address"}],"stateMutability":"view","type":"function"},{"inputs":[],"name":"claimRewards","outputs":[],"stateMutability":"nonpayable","type":"function"},{"inputs":[{"internalType":"address","name":"","type":"address"},{"internalType":"uint256","name":"","type":"uint256"}],"name":"directReferrals","outputs":[{"internalType":"address","name":"","type":"address"}],"stateMutability":"view","type":"function"},{"inputs":[],"name":"directRewardPercent","outputs":[{"internalType":"uint256","name":"","type":"uint256"}],"stateMutability":"view","type":"function"},{"inputs":[],"name":"emergencyPause","outputs":[],"stateMutability":"nonpayable","type":"function"},{"inputs":[],"name":"emergencyPaused","outputs":[{"internalType":"bool","name":"","type":"bool"}],"stateMutability":"view","type":"function"},{"inputs":[],"name":"emergencyUnpause","outputs":[],"stateMutability":"nonpayable","type":"function"},{"inputs":[{"internalType":"address","name":"user","type":"address"}],"name":"getDirectReferrals","outputs":[{"internalType":"address[]","name":"","type":"address[]"}],"stateMutability":"view","type":"function"},{"inputs":[],"name":"getJBCPrice","outputs":[{"internalType":"uint256","name":"","type":"uint256"}],"stateMutability":"view","type":"function"},{"inputs":[{"internalType":"uint256","name":"activeDirects","type":"uint256"}],"name":"getLevel","outputs":[{"internalType":"uint256","name":"level","type":"uint256"},{"internalType":"uint256","name":"percent","type":"uint256"}],"stateMutability":"pure","type":"function"},{"inputs":[{"internalType":"uint256","name":"teamCount","type":"uint256"}],"name":"getLevelByTeamCount","outputs":[{"internalType":"uint256","name":"level","type":"uint256"},{"internalType":"uint256","name":"percent","type":"uint256"}],"stateMutability":"pure","type":"function"},{"inputs":[{"internalType":"uint256","name":"activeDirects","type":"uint256"}],"name":"getLevelRewardLayers","outputs":[{"internalType":"uint256","name":"","type":"uint256"}],"stateMutability":"pure","type":"function"},{"inputs":[{"internalType":"address","name":"_mcToken","type":"address"},{"internalType":"address","name":"_jbcToken","type":"address"},{"internalType":"address","name":"_marketing","type":"address"},{"internalType":"address","name":"_treasury","type":"address"},{"internalType":"address","name":"_lpInjection","type":"address"},{"internalType":"address","name":"_buybackWallet","type":"address"}],"name":"initialize","outputs":[],"stateMutability":"nonpayable","type":"function"},{"inputs":[],"name":"jbcToken","outputs":[{"internalType":"contract IJBC","name":"","type":"address"}],"stateMutability":"view","type":"function"},{"inputs":[],"name":"lastBurnTime","outputs":[{"internalType":"uint256","name":"","type":"uint256"}],"stateMutability":"view","type":"function"},{"inputs":[{"internalType":"uint256","name":"","type":"uint256"}],"name":"levelConfigs","outputs":[{"internalType":"uint256","name":"minDirects","type":"uint256"},{"internalType":"uint256","name":"level","type":"uint256"},{"internalType":"uint256","name":"percent","type":"uint256"}],"stateMutability":"view","type":"function"},{"inputs":[],"name":"levelRewardPercent","outputs":[{"internalType":"uint256","name":"","type":"uint256"}],"stateMutability":"view","type":"function"},{"inputs":[],"name":"levelRewardPool","outputs":[{"internalType":"uint256","name":"","type":"uint256"}],"stateMutability":"view","type":"function"},{"inputs":[],"name":"liquidityEnabled","outputs":[{"internalType":"bool","name":"","type":"bool"}],"stateMutability":"view","type":"function"},{"inputs":[],"name":"lpInjectionPercent","outputs":[{"internalType":"uint256","name":"","type":"uint256"}],"stateMutability":"view","type":"function"},{"inputs":[],"name":"lpInjectionWallet","outputs":[{"internalType":"address","name":"","type":"address"}],"stateMutability":"view","type":"function"},{"inputs":[],"name":"marketingPercent","outputs":[{"internalType":"uint256","name":"","type":"uint256"}],"stateMutability":"view","type":"function"},{"inputs":[],"name":"marketingWallet","outputs":[{"internalType":"address","name":"","type":"address"}],"stateMutability":"view","type":"function"},{"inputs":[],"name":"mcToken","outputs":[{"internalType":"contract IERC20","name":"","type":"address"}],"stateMutability":"view","type":"function"},{"inputs":[],"name":"nextStakeId","outputs":[{"internalType":"uint256","name":"","type":"uint256"}],"stateMutability":"view","type":"function"},{"inputs":[],"name":"nextTicketId","outputs":[{"internalType":"uint256","name":"","type":"uint256"}],"stateMutability":"view","type":"function"},{"inputs":[],"name":"owner","outputs":[{"internalType":"address","name":"","type":"address"}],"stateMutability":"view","type":"function"},{"inputs":[],"name":"priceOracle","outputs":[{"internalType":"address","name":"","type":"address"}],"stateMutability":"view","type":"function"},{"inputs":[],"name":"proxiableUUID","outputs":[{"internalType":"bytes32","name":"","type":"bytes32"}],"stateMutability":"view","type":"function"},{"inputs":[],"name":"redeem","outputs":[],"stateMutability":"nonpayable","type":"function"},{"inputs":[],"name":"redeemEnabled","outputs":[{"internalType":"bool","name":"","type":"bool"}],"stateMutability":"view","type":"function"},{"inputs":[{"internalType":"uint256","name":"stakeId","type":"uint256"}],"name":"redeemStake","outputs":[],"stateMutability":"nonpayable","type":"function"},{"inputs":[],"name":"redemptionFeePercent","outputs":[{"internalType":"uint256","name":"","type":"uint256"}],"stateMutability":"view","type":"function"},{"inputs":[],"name":"renounceOwnership","outputs":[],"stateMutability":"nonpayable","type":"function"},{"inputs":[{"internalType":"address","name":"_token","type":"address"},{"internalType":"address","name":"_to","type":"address"},{"internalType":"uint256","name":"_amount","type":"uint256"}],"name":"rescueTokens","outputs":[],"stateMutability":"nonpayable","type":"function"},{"inputs":[{"internalType":"uint256","name":"_direct","type":"uint256"},{"internalType":"uint256","name":"_level","type":"uint256"},{"internalType":"uint256","name":"_marketing","type":"uint256"},{"internalType":"uint256","name":"_buyback","type":"uint256"},{"internalType":"uint256","name":"_lpInjection","type":"uint256"},{"internalType":"uint256","name":"_treasury","type":"uint256"}],"name":"setDistributionConfig","outputs":[],"stateMutability":"nonpayable","type":"function"},{"inputs":[{"internalType":"bool","name":"_liquidityEnabled","type":"bool"},{"internalType":"bool","name":"_redeemEnabled","type":"bool"}],"name":"setOperationalStatus","outputs":[],"stateMutability":"nonpayable","type":"function"},{"inputs":[{"internalType":"address","name":"_oracle","type":"address"}],"name":"setPriceOracle","outputs":[],"stateMutability":"nonpayable","type":"function"},{"inputs":[{"internalType":"uint256","name":"_fee","type":"uint256"}],"name":"setRedemptionFeePercent","outputs":[],"stateMutability":"nonpayable","type":"function"},{"inputs":[{"internalType":"uint256","name":"_buyTax","type":"uint256"},{"internalType":"uint256","name":"_sellTax","type":"uint256"}],"name":"setSwapTaxes","outputs":[],"stateMutability":"nonpayable","type":"function"},{"inputs":[{"internalType":"uint256","name":"_duration","type":"uint256"}],"name":"setTicketFlexibilityDuration","outputs":[],"stateMutability":"nonpayable","type":"function"},{"inputs":[{"internalType":"address","name":"_marketing","type":"address"},{"internalType":"address","name":"_treasury","type":"address"},{"internalType":"address","name":"_lpInjection","type":"address"},{"internalType":"address","name":"_buyback","type":"address"}],"name":"setWallets","outputs":[],"stateMutability":"nonpayable","type":"function"},{"inputs":[{"internalType":"uint256","name":"amount","type":"uint256"},{"internalType":"uint256","name":"cycleDays","type":"uint256"}],"name":"stakeLiquidity","outputs":[],"stateMutability":"nonpayable","type":"function"},{"inputs":[{"internalType":"uint256","name":"","type":"uint256"}],"name":"stakeOwner","outputs":[{"internalType":"address","name":"","type":"address"}],"stateMutability":"view","type":"function"},{"inputs":[{"internalType":"uint256","name":"","type":"uint256"},{"internalType":"uint256","name":"","type":"uint256"}],"name":"stakePendingRewards","outputs":[{"internalType":"address","name":"upline","type":"address"},{"internalType":"uint256","name":"amount","type":"uint256"}],"stateMutability":"view","type":"function"},{"inputs":[],"name":"swapBuyTax","outputs":[{"internalType":"uint256","name":"","type":"uint256"}],"stateMutability":"view","type":"function"},{"inputs":[{"internalType":"uint256","name":"jbcAmount","type":"uint256"}],"name":"swapJBCToMC","outputs":[],"stateMutability":"nonpayable","type":"function"},{"inputs":[{"internalType":"uint256","name":"mcAmount","type":"uint256"}],"name":"swapMCToJBC","outputs":[],"stateMutability":"nonpayable","type":"function"},{"inputs":[],"name":"swapReserveJBC","outputs":[{"internalType":"uint256","name":"","type":"uint256"}],"stateMutability":"view","type":"function"},{"inputs":[],"name":"swapReserveMC","outputs":[{"internalType":"uint256","name":"","type":"uint256"}],"stateMutability":"view","type":"function"},{"inputs":[],"name":"swapSellTax","outputs":[{"internalType":"uint256","name":"","type":"uint256"}],"stateMutability":"view","type":"function"},{"inputs":[],"name":"ticketFlexibilityDuration","outputs":[{"internalType":"uint256","name":"","type":"uint256"}],"stateMutability":"view","type":"function"},{"inputs":[{"internalType":"uint256","name":"","type":"uint256"}],"name":"ticketOwner","outputs":[{"internalType":"address","name":"","type":"address"}],"stateMutability":"view","type":"function"},{"inputs":[{"internalType":"uint256","name":"","type":"uint256"},{"internalType":"uint256","name":"","type":"uint256"}],"name":"ticketPendingRewards","outputs":[{"internalType":"address","name":"upline","type":"address"},{"internalType":"uint256","name":"amount","type":"uint256"}],"stateMutability":"view","type":"function"},{"inputs":[{"internalType":"address","name":"newOwner","type":"address"}],"name":"transferOwnership","outputs":[],"stateMutability":"nonpayable","type":"function"},{"inputs":[],"name":"treasuryPercent","outputs":[{"internalType":"uint256","name":"","type":"uint256"}],"stateMutability":"view","type":"function"},{"inputs":[],"name":"treasuryWallet","outputs":[{"internalType":"address","name":"","type":"address"}],"stateMutability":"view","type":"function"},{"inputs":[{"internalType":"address","name":"newImplementation","type":"address"},{"internalType":"bytes","name":"data","type":"bytes"}],"name":"upgradeToAndCall","outputs":[],"stateMutability":"payable","type":"function"},{"inputs":[{"internalType":"address","name":"","type":"address"}],"name":"userInfo","outputs":[{"internalType":"address","name":"referrer","type":"address"},{"internalType":"uint256","name":"activeDirects","type":"uint256"},{"internalType":"uint256","name":"teamCount","type":"uint256"},{"internalType":"uint256","name":"totalRevenue","type":"uint256"},{"internalType":"uint256","name":"currentCap","type":"uint256"},{"internalType":"bool","name":"isActive","type":"bool"},{"internalType":"uint256","name":"refundFeeAmount","type":"uint256"},{"internalType":"uint256","name":"teamTotalVolume","type":"uint256"},{"internalType":"uint256","name":"teamTotalCap","type":"uint256"},{"internalType":"uint256","name":"maxTicketAmount","type":"uint256"},{"internalType":"uint256","name":"maxSingleTicketAmount","type":"uint256"}],"stateMutability":"view","type":"function"},{"inputs":[{"internalType":"address","name":"","type":"address"},{"internalType":"uint256","name":"","type":"uint256"}],"name":"userStakes","outputs":[{"internalType":"uint256","name":"id","type":"uint256"},{"internalType":"uint256","name":"amount","type":"uint256"},{"internalType":"uint256","name":"startTime","type":"uint256"},{"internalType":"uint256","name":"cycleDays","type":"uint256"},{"internalType":"bool","name":"active","type":"bool"},{"internalType":"uint256","name":"paid","type":"uint256"}],"stateMutability":"view","type":"function"},{"inputs":[{"internalType":"address","name":"","type":"address"}],"name":"userTicket","outputs":[{"internalType":"uint256","name":"ticketId","type":"uint256"},{"internalType":"uint256","name":"amount","type":"uint256"},{"internalType":"uint256","name":"purchaseTime","type":"uint256"},{"internalType":"bool","name":"exited","type":"bool"}],"stateMutability":"view","type":"function"},{"inputs":[{"internalType":"address","name":"_to","type":"address"},{"internalType":"uint256","name":"_amount","type":"uint256"}],"name":"withdrawLevelRewardPool","outputs":[],"stateMutability":"nonpayable","type":"function"},{"inputs":[{"internalType":"address","name":"_toMC","type":"address"},{"internalType":"uint256","name":"_amountMC","type":"uint256"},{"internalType":"address","name":"_toJBC","type":"address"},{"internalType":"uint256","name":"_amountJBC","type":"uint256"}],"name":"withdrawSwapReserves","outputs":[],"stateMutability":"nonpayable","type":"function"}],"evm":{"bytecode":{"linkReferences":{},"object":"60a08060405234620000d157306080527ff0c57e16840df040f15088dc2f81fe391c3923bec73e23a9662efc9c229c6a009081549060ff8260401c16620000c257506001600160401b036002600160401b0319828216016200007c575b6040516161a79081620000d782396080518181816126d80152612abb0152f35b6001600160401b031990911681179091556040519081527fc7f505b2f371ae2175ee4913f4499e1f2633a7b5936321eed1cdaeb6115181d290602090a13880806200005c565b63f92ee8a960e01b8152600490fd5b600080fdfe6080604052600436101561001257600080fd5b6000803560e01c806301d62efb14613c9557806304ef9d5814613c7757806304f618cb14613b1257806305ad393514613ab75780630a5c4567146138595780630e2be2101461383d57806310ff994d1461338e5780631427f616146133725780631788513c14613349578063182c84cc1461332a5780631959a002146132785780631d0dac761461325a57806321b77d631461323657806321f483d3146131ee5780632630c12f146131c157806327c830a91461319e57806327f082f414613180578063372500ab1461315f5780633a3ea2f01461313c5780633dbd46bd146131095780634626402b146130e05780634719400114611b44578063488b5d97146130c45780634a4e3bd51461307a5780634ea4c6b314612c735780634f1ef28614612a4057806351858e27146129f357806352778b051461273057806352d1902d146126c5578063530e784f1461267b5780636031a52f1461265d57806367dd74ca14611e355780636839b5fa14611e185780636dd6682714611dfa578063715018a614611da157806374b0eecf14611cd657806375506c9614611cb857806375f0a87414611c8f57806377a2a54014611c71578063813380cd14611c4357806383672f3e14611b4957806386481d4014611b445780638710bcaa14611ae357806388481b6114611ac757806388fd4d3314611a9e5780638a859a8514611a825780638c0eaa4814611a665780638da5cb5b14611a3057806390b0eb51146119e05780639370b080146119c2578063952539921461199b57806399b6024d146118d55780639a5fb0fe146117d15780639cd441da1461168d5780639d99eca41461163f578063a2af92261461160c578063ac8f50aa146115b4578063ad3cb1cc1461150f578063b048a4bb146114ec578063b5d5b5fa1461145e578063b759936b14611440578063bd594dcf14611422578063be040fb014610d29578063c2ff12fc14610cf6578063c3b369d714610c78578063cc2a9a5b14610a65578063ccf6194414610a47578063cea9d26f146108dd578063ceaa366d146108bf578063d0f1647014610835578063d2c8e0e514610786578063d2f8253614610760578063d4f00142146105d9578063d8020a18146105bb578063deab8aea14610592578063dec7fa3b14610574578063e306744914610556578063e4412f6814610538578063e817630514610415578063ece71266146103c75763f2fde38b1461039857600080fd5b346103c45760203660031901126103c4576103c16103b4613d4a565b6103bc614b20565b614abe565b80f35b80fd5b50346103c45760203660031901126103c4577fc7f6975dcffc536e6e57dd1d1dea810fff534a70563baf2d6f977b119bd00e1b6020600435610407614b20565b80600c55604051908152a180f35b50346103c45760203660031901126103c45761042f613d4a565b610437614b20565b6001600160a01b039081169061044e821515614716565b818352600f60205260408320908154906001928392866001830155866003830155866004830155600582019260ff199384815416905587600684015587600784015587600884015587600984015587600a84015581169060018060a01b03191617905560106020526003604086208681558660018201558660028201550181815416905560116020526040852085925b61050c575b85857fa84a765ff0b34a8011d2cf523c71c7cc26b88417c652ec9b3bad84220ef8f7778280a280f35b80548310156105335783836004610524839685613f28565b500184815416905501926104de565b6104e3565b50346103c457806003193601126103c4576020600954604051908152f35b50346103c457806003193601126103c4576020601b54604051908152f35b50346103c457806003193601126103c4576020600c54604051908152f35b50346103c457806003193601126103c4576005546040516001600160a01b039091168152602090f35b50346103c457806003193601126103c4576020600854604051908152f35b50346103c45760803660031901126103c4576105f3613d4a565b602435906105ff613d76565b826064359261060c614b20565b816106e2575b50508161063c575b506000805160206160928339815191529160409182519182526020820152a180f35b9160208261067c9461065082601854614058565b60185560018060a01b0360015416908760405180988195829463a9059cbb60e01b845260048401613f0d565b03925af19182156106d757600080516020616092833981519152936040936106a8575b5091509161061a565b6106c99060203d6020116106d0575b6106c18183613e39565b810190613fc8565b503861069f565b503d6106b7565b6040513d86823e3d90fd5b816020916106f561072094601754614058565b60175560018060a01b03885416908860405180968195829463a9059cbb60e01b845260048401613f0d565b03925af1801561075557610736575b8390610612565b61074e9060203d6020116106d0576106c18183613e39565b503861072f565b6040513d87823e3d90fd5b50346103c457806003193601126103c457602060ff60165460081c166040519015158152f35b50346103c457602090816003193601126103c4576001600160a01b039190826107ad613d4a565b168152601282526040812090604051808484549182815201908194845285842090845b81811061081f57505050816107e6910382613e39565b6040519380850191818652518092526040850193925b8281106108095785850386f35b83518716855293810193928101926001016107fc565b82548916845292870192600192830192016107d0565b50346103c45760c03660031901126103c4577f66682b276e4cd1a4e1f68b55b1143766c5332f472eb593cf2a70a25d9d5d991760c060043560a435608435606435604435602435610884614b20565b8560065580600755816008558260095583600a5584600b55604051958652602086015260408501526060840152608083015260a0820152a180f35b50346103c457806003193601126103c4576020600a54604051908152f35b50346103c45760603660031901126103c4576108f7613d4a565b6108ff613d60565b6044359161090b614b20565b83546001600160a01b038281169491811685141580610a39575b156109f4578316156109bb576020604051809563a9059cbb60e01b8252818881610953878a60048401613f0d565b03925af1908115610755577f77023e19c7343ad491fd706c36335ca0e738340a91f29b1fd81e2673d44896c4946109969261099c575b5060405193849384613fe0565b0390a180f35b6109b49060203d6020116106d0576106c18183613e39565b5038610989565b60405162461bcd60e51b8152602060048201526011602482015270125b9d985b1a59081c9958da5c1a595b9d607a1b6044820152606490fd5b60405162461bcd60e51b815260206004820152601d60248201527f43616e6e6f74207265736375652070726f746f636f6c20746f6b656e730000006044820152606490fd5b508060015416851415610925565b50346103c457806003193601126103c4576020600654604051908152f35b50346103c45760c03660031901126103c457610a7f613d4a565b610a87613d60565b610a8f613d76565b610a97613d8c565b916001600160a01b0360843581811690819003610c735760a43592828416809403610c735760008051602061615283398151915295865460ff8160401c16159660018060401b038216998a1580610c6c575b6001809c149081610c62575b159081610c59575b50610c47576001600160401b031983168b178a558694859384928e918c610c2c575b50610b28615f1f565b610b30615f1f565b610b3933614abe565b610b41615f1f565b610b49615f1f565b610b51615f1f565b8d6000805160206161128339815191525560018060a01b0319998a9116915416178d5516868b5416178a55168460025416176002551682600354161760035581600454161760045560055416176005556019600655600f600755600560085560056009556019600a556019600b5582600c556032600d556019600e556203f48060155561010161ffff19601654161760165542601b55610bef578280f35b805460ff60401b191690556040519081527fc7f505b2f371ae2175ee4913f4499e1f2633a7b5936321eed1cdaeb6115181d290602090a138808280f35b6001600160481b0319166001600160401b01178d5538610b1f565b60405163f92ee8a960e01b8152600490fd5b90501538610afd565b303b159150610af5565b5088610ae9565b600080fd5b50346103c457610c8736613ea7565b610c92939193614b20565b808303610ce457845b838110610ca6578580f35b80610cb460019284886146f2565b35828060a01b03610cce610cc98489896146f2565b614702565b168852600f602052600760408920015501610c9b565b60405163980a3f3160e01b8152600490fd5b50346103c45760203660031901126103c4576020906004358152601c8252604060018060a01b0391205416604051908152f35b50346103c457806003193601126103c457610d42614b59565b60ff610d5560ff60165460081c16614065565b33825260119160206011815260408220938283908492855b8854811015610fe357876004610d83838c613f28565b5001541615610fdb576002610d98828b613f28565b500154610da5828b613f28565b509060038092015490603c91828102928184041490151715610fc7578b9291610dcd9161402b565b421015610de1575b50506001905b01610d6d565b90958895929495600783610df5888b613f28565b50015403610f6e5750633b9aca00610e3a62cb7356935b610e26610e19898c613f28565b5095600180970154614002565b90610e31898c613f28565b50015490614002565b04908991610e48878a613f28565b508760059a8b809301548411610f46575b5050505081610e679161402b565b96610e72868d613f28565b500190815490610e819161402b565b9055338852600f87526040882060090154918a828a878b8715600198610ee998610ec495606494610ebd94610f30575b505050600c5490614002565b0493613f28565b50015481811115610f1d5790610edd81610ee393614058565b9261402b565b9561402b565b926004610ef6828c613f28565b5001805460ff19169055610f14610f0d828c613f28565b5054614ee5565b90508838610dd5565b9050610f289161402b565b94889061402b565b6040929350601090522001548f8f908791610eb1565b610e67949550610f64939291610f5b91613f28565b50015490614058565b919088878e610e59565b600f83610f7b888b613f28565b50015403610f965750633b9aca00610e3a62fe502b93610e0c565b91601e81610fa4888b613f28565b50015414610fbb575b610e3a633b9aca0091610e0c565b6301312d009250610fad565b634e487b7160e01b8a52600485905260248afd5b600190610ddb565b505090929181159081158092611419575b156113e057846113cc575b806110d8575b50611071575b600f926040519182528282015260008051602061613283398151915260403392a261103533615079565b3383525260408120600460038201549101541115611063575b60016000805160206161128339815191525580f35b61106c3361512a565b61104e565b835460405163a9059cbb60e01b81529390839085906001600160a01b03168188816110a0883360048401613f0d565b03925af193841561075557600f946110bb575b50925061100b565b6110d190843d86116106d0576106c18183613e39565b50856110b3565b338652600f84526110f6604087206003600482015491015490614058565b8082116113a6575b50801561100557338652600f84526003604087200161111e82825461402b565b905585546040516370a0823160e01b808252306004830152889390926001600160a01b0392600183901c918416908981602481855afa801561139b5783918d9161136a575b50101580611361575b6112fd575b5061117a6145fb565b90670de0b6b3a7640000908181029181830414901517156112e9579061119f91614038565b899260015416936040519081523060048201528881602481885afa80156112de5782918c916112ad575b501015806112a4575b611230575b50600080516020615ff283398151915292506040519081526000878201526000805160206160f283398151915260403392a2338852601086526040882054906112276040519283923396846140cc565b0390a285611005565b90915086604051809463a9059cbb60e01b8252818c81611254873360048401613f0d565b03925af192831561129957600080516020615ff28339815191529361127c575b5090896111d7565b61129290883d8a116106d0576106c18183613e39565b5089611274565b6040513d8b823e3d90fd5b508015156111d2565b8092508a8092503d83116112d7575b6112c68183613e39565b81010312610c73578190518c6111c9565b503d6112bc565b6040513d8d823e3d90fd5b634e487b7160e01b8b52601160045260248bfd5b60405163a9059cbb60e01b815291955088908290818d816113228b3360048401613f0d565b03925af1801561135657611339575b50838a611171565b61134f90883d8a116106d0576106c18183613e39565b5089611331565b6040513d8c823e3d90fd5b5081151561116c565b8092508b8092503d8311611394575b6113838183613e39565b81010312610c73578290518d611163565b503d611379565b6040513d8e823e3d90fd5b90604051908152818582015260008051602061607283398151915260403392a2866110fe565b6113d88560175461402b565b601755610fff565b60405162461bcd60e51b81526004810185905260116024820152704e6f7468696e6720746f2072656465656d60781b6044820152606490fd5b50801515610ff4565b50346103c457806003193601126103c4576020600754604051908152f35b50346103c457806003193601126103c4576020601f54604051908152f35b50346103c45760403660031901126103c457611478613d4a565b6001600160a01b03168152601160205260408120805460243592908310156103c45760c06114a68484613f28565b508054906001810154906002810154600382015490600560ff600485015416930154936040519586526020860152604085015260608401521515608083015260a0820152f35b50346103c457806003193601126103c457602060ff601654166040519015158152f35b50346103c457806003193601126103c457604080519081016001600160401b0381118282101761159e5760405260058152602091640352e302e360dc1b602083015260405192839160208352835191826020850152815b83811061158757505060408094508284010152601f80199101168101030190f35b808601820151878201604001528694508101611566565b634e487b7160e01b600052604160045260246000fd5b50346103c4576115c336613e10565b908252601d602052604082208054821015611608576115e29250613ef1565b508054600190910154604051918291611604916001600160a01b031683613f0d565b0390f35b8280fd5b50346103c45760403660031901126103c4576103c1611629613d4a565b611631613d60565b9061163a614b20565b614754565b50346103c45760203660031901126103c4577fd28d9e4ce68d89af7920cb8618e342a78f51e545c530ce60f1cb1d6f0235b47f602060043561167f614b20565b80601555604051908152a180f35b50346103c45761169c36613e10565b6116a4614b20565b8161175e575b806116d1575b600080516020615fd28339815191529160409182519182526020820152a180f35b6001546040516323b872dd60e01b8152929060209084906001600160a01b031681878161170388303360048501613fe0565b03925af19182156106d757600080516020615fd28339815191529360409361173f575b506117338160185461402b565b601855915091506116b0565b6117579060203d6020116106d0576106c18183613e39565b5038611726565b82546040516323b872dd60e01b81529060209082906001600160a01b031681878161178e89303360048501613fe0565b03925af180156106d7576117b2575b506117aa8260175461402b565b6017556116aa565b6117ca9060203d6020116106d0576106c18183613e39565b503861179d565b50346103c4576101203660031901126103c4576117ec613d4a565b6117f4613d3b565b606435916044358315158403610c735760a4356084358115158203610c735760c4359060e435948515158603610c73577f8fb1f6e3f39354fc80c1defc040c6d354638b0c8e5f9c63cd0292ef9842197e99660809661010435958693611858614b20565b6001600160a01b03169a61186d8c1515614716565b8b8d52600f60205260408d20936118ca575b6118bf575b6118b4575b6118a9575b5050604051938452602084015260408301526060820152a280f35b60060155823861188e565b846004830155611889565b846003840155611884565b88600185015561187f565b50346103c45760403660031901126103c4576118ef613d4a565b602435906118fb614b20565b61190782601f54614058565b601f55825460405163a9059cbb60e01b815291906001600160a01b03906020908490831681888161193c8a8960048401613f0d565b03925af1918215610755577f27971ee1acbfbdfb20656657ceb2e0e7b519b9e60fe1a6b1f6d27b159f4a607c9360209361197e575b506040519485521692a280f35b61199490843d86116106d0576106c18183613e39565b5038611971565b50346103c457806003193601126103c457546040516001600160a01b039091168152602090f35b50346103c457806003193601126103c4576020600e54604051908152f35b50346103c4577f4e9dd03193a0c81552fb8e6d32280f0d7e0ce8087241dc3d17ef3d193ee231d76040611a1236613e10565b611a1a614b20565b81600d5580600e5582519182526020820152a180f35b50346103c457806003193601126103c457600080516020616012833981519152546040516001600160a01b039091168152602090f35b50346103c457806003193601126103c457602060405160038152f35b50346103c457806003193601126103c457602060405160018152f35b50346103c457806003193601126103c4576004546040516001600160a01b039091168152602090f35b50346103c457806003193601126103c457602060405160048152f35b50346103c45760203660031901126103c4576080906040906001600160a01b03611b0b613d4a565b16815260106020522080549060018101549060ff6003600283015492015416916040519384526020840152604083015215156060820152f35b613de6565b50346103c45760803660031901126103c4577f213f1de8063c19612a553f1480ff341bea689d36a56a2089f1b9060d599b5d836080611b86613d4a565b611b8e613d60565b611b96613d76565b611b9e613d8c565b90611ba7614b20565b6001600160a01b039384169384151580611c38575b80611c2d575b80611c22575b611bd190614716565b808060018060a01b031995878760025416176002551692838660035416176003551692838560045416176004551680936005541617600555604051938452602084015260408301526060820152a180f35b508281161515611bc8565b508082161515611bc2565b508084161515611bbc565b50346103c457611c5236613e10565b9082526013602052604082208054821015611608576115e29250613ef1565b50346103c457806003193601126103c4576020601754604051908152f35b50346103c457806003193601126103c4576002546040516001600160a01b039091168152602090f35b50346103c457806003193601126103c4576020601a54604051908152f35b50346103c457611ce536613ea7565b919290611cf0614b20565b828403610ce457845b848110611d2f57857f9c03d1f6ba485b6cf0a120117d651729467751d3079318d05171b6f389f6bf4b602087604051908152a180f35b80611d3d60019286856146f2565b356000805160206160328339815191526040848060a01b0380611d64610cc9878d8c6146f2565b168b52602093600f85526002838d200155611d83610cc9868c8b6146f2565b611d8e868b8a6146f2565b358351958d87528601521692a201611cf9565b50346103c457806003193601126103c457611dba614b20565b60008051602061601283398151915280546001600160a01b031981169091556000906001600160a01b03166000805160206160b28339815191528280a380f35b50346103c457806003193601126103c4576020601554604051908152f35b50346103c457806003193601126103c45760206040516103e88152f35b50346103c45760203660031901126103c457611e4f614b59565b611e5e60ff604f541615613f87565b611e67336155e5565b68056bc75e2d63100000600435141580612648575b80612633575b8061261e575b61260c5780546040516323b872dd60e01b81529060209082906001600160a01b0316818581611ec06004803590309033908501613fe0565b03925af18015612368576125ed575b5033815260106020526040812060038101805460ff161561251257611ef56019546146e3565b806019558255600435600183015542600283015560ff198154169055338252600f60205281600360408220015560036004350260043581046003146004351517156124fe57338352600f60205260046040842001555b600a6001820154338452600f602052604084209060098201805482116124f6575b5050018054600435116124eb575b5080548252601c6020908152604080842080546001600160a01b031916339081179091558452600f9091528220546001600160a01b0316801515806124d7575b1561245657611fd96064611fd2600654600435614002565b04826157b1565b9081612427575b50505b338252600f6020526040822054829182916001600160a01b031690829060043580159080046001141715612413579394915b6001600160a01b03811680151580612409575b806123ff575b15612135578452600f6020526040842060ff6005820154161561211657506001600160a01b0381168452600f602052604084206001015483906120709061409c565b116120ac575b6001600160a01b039081168452600f602052604084205416916120a29061209c906146e3565b956146e3565b935b939491612015565b6120bb606460043504826159b5565b806120c7575b50612076565b91826120d29161402b565b91338552601060205260408520546040519182526003602083015260408201523390600080516020615fb2833981519152606060018060a01b03851692a3386120c1565b5492956001600160a01b039093169261212f91506146e3565b936120a4565b828686612154600793606461214e600754600435614002565b04614058565b806123ba575b5060018060a01b038154168160206121a660018060a01b0360025416936064612187600854600435614002565b0460405194858094819363a9059cbb60e01b998a845260048401613f0d565b03925af180156123905761239b575b506121cf60646121c9600954600435614002565b04615cdb565b612212602060018060a01b0384541660018060a01b03600454169060646121fa600a54600435614002565b0491866040518096819582948a845260048401613f0d565b03925af18015612390579160209161226793612373575b5060018060a01b0384541660018060a01b0360035416856064612250600b54600435614002565b049360405196879586948593845260048401613f0d565b03925af1801561236857612349575b50338152600f6020526040812054909182916001600160a01b03165b6001600160a01b03168015158061233f575b156122eb57808352600f6020528460408420016122c4600435825461402b565b90558252600f60205260408220546001600160a01b0316926122e5906146e3565b92612292565b506122f533615079565b5460405190600435825260208201527f2a91574e12ad96234e84923e146b0946ecfb871cd8d5534dc1fdcbe87a7c01b360403392a260016000805160206161128339815191525580f35b50601e84106122a4565b6123619060203d6020116106d0576106c18183613e39565b5083612276565b6040513d84823e3d90fd5b61238990833d85116106d0576106c18183613e39565b5086612229565b6040513d85823e3d90fd5b6123b39060203d6020116106d0576106c18183613e39565b50846121b5565b6040816123ea7fca2e2bff26d2adb9fe155e9265350494c16751676879cb7ced9141e0fcf3934393601f5461402b565b80601f5582519182526020820152a18361215a565b506014871061202e565b50600f8410612028565b634e487b7160e01b84526011600452602484fd5b8254604051928352600260208401526040830152600080516020615fb283398151915260603393a33880611fe0565b5081546002546006546124a3926020926001600160a01b039081169291169060649061248490600435614002565b04918660405180968195829463a9059cbb60e01b845260048401613f0d565b03925af18015612390576124b8575b50611fe3565b6124d09060203d6020116106d0576106c18183613e39565b50386124b2565b5080835260ff600560408520015416611fba565b600435905538611f7a565b553880611f6c565b634e487b7160e01b83526011600452602483fd5b6001820180548061258057506125296019546146e3565b806019558355600435905542600283015560ff198154169055338252600f60205281600360408220015560036004350260043581046003146004351517156124fe57338352600f6020526004604084200155611f4b565b61258f9192506004359061402b565b9055338252600f60205260ff6005604084200154166125e2575b60036004350260043581046003146004351517156124fe57338352600f6020526125db6004604085200191825461402b565b9055611f4b565b4260028201556125a9565b6126059060203d6020116106d0576106c18183613e39565b5038611ecf565b60405163162908e360e11b8152600490fd5b50683635c9adc5dea000006004351415611e88565b50681b1ae4d6e2ef5000006004351415611e82565b50681043561a88293000006004351415611e7c565b50346103c457806003193601126103c4576020601954604051908152f35b50346103c45760203660031901126103c457612695613d4a565b61269d614b20565b604f8054610100600160a81b03191660089290921b610100600160a81b031691909117905580f35b50346103c457806003193601126103c4577f00000000000000000000000000000000000000000000000000000000000000006001600160a01b0316300361271e5760206040516000805160206160528339815191528152f35b60405163703e46dd60e11b8152600490fd5b50346103c4576020806003193601126129b2576004359061274f614b59565b61275e60ff604f541615613f87565b811561260c57683635c9adc5dea0000080601754109081156129e7575b50612957576001546040516323b872dd60e01b81526001600160a01b03918390829084168188816127b18a303360048501613fe0565b03925af18015610755576129ca575b5060646127cf600e5485614002565b04906127db8285614058565b926127108085029085820414851517156129b6576127ff6103e89160185490614038565b1161260c57858260015416803b156129b257818091602460405180948193630852cd8d60e31b83528a60048401525af180156123685761299a575b50506017549361284a8582614002565b906128626018549261285c838561402b565b90614038565b93885416956040516370a0823160e01b815230600482015284816024818b5afa80156113565786918b91612969575b5010612957576128a585926128ad9461402b565b601855614058565b60175580604051809563a9059cbb60e01b82528189816128d1883360048401613f0d565b03925af193841561294c577f223c8ad0806f634524940a8595f819c5cfc7b1f4f4f45791269301df0a7e61d59461292e575b5050612916604051928392339684613dd0565b0390a260016000805160206161128339815191525580f35b8161294492903d106106d0576106c18183613e39565b503880612903565b6040513d88823e3d90fd5b6040516343c7ad8160e11b8152600490fd5b809250868092503d8311612993575b6129828183613e39565b81010312610c735785905138612891565b503d612978565b6129a390613e26565b6129ae57853861283a565b8580fd5b5080fd5b634e487b7160e01b87526011600452602487fd5b6129e090833d85116106d0576106c18183613e39565b50386127c0565b9050601854103861277b565b50346103c457806003193601126103c457612a0c614b20565b600160ff19604f541617604f557f4cb3183d0bf66f9634b15cfc3539fdddc96c2c9324848af89b56586a6739fec48180a180f35b5060403660031901126103c457612a55613d4a565b60249182356001600160401b0381116129b257366023820112156129b2578060040135612a8181613e5c565b93612a8f6040519586613e39565b81855260209182860193368883830101116129ae57818692898693018737870101526001600160a01b037f00000000000000000000000000000000000000000000000000000000000000008116308114908115612c57575b5061271e57612af4614b20565b8116946040516352d1902d60e01b815283816004818a5afa869181612c24575b50612b3157604051634c9c8ce360e01b8152600481018890528890fd5b86908860008051602061605283398151915291828103612c0f5750843b15612bf9575080546001600160a01b031916821790556040518692917fbc7cd75a20ee27fd9adebab32041f755214dbc6bffa90cc0225b39da2e5c2d3b8480a2815115612bdb5750612bce9482915190845af4903d15612bd2573d612bb281613e5c565b90612bc06040519283613e39565b81528581943d92013e615f4e565b5080f35b60609250615f4e565b94505050505034612bea575080f35b63b398979f60e01b8152600490fd5b604051634c9c8ce360e01b815260048101849052fd5b60405190632a87526960e21b82526004820152fd5b9091508481813d8311612c50575b612c3c8183613e39565b81010312612c4c57519038612b14565b8680fd5b503d612c32565b9050816000805160206160528339815191525416141538612ae7565b50346103c457612c8236613e10565b90612c8b614b59565b612c9a60ff604f541615613f87565b3383526020906010825260408420926001840193845415613068576003015460ff166130565760078114158061304b575b80613040575b61302e57811561260c5784546040516323b872dd60e01b81526001600160a01b039591859082908816818a81612d0c8a303360048501613fe0565b03925af1801561302357613006575b50612d27601a546146e3565b601a81905533875260118552604080882090519160c083016001600160401b0381118482101761159e57604052825285820185815260408301428152606084019086825260808501926001845260a08601948c8652805490600160401b821015612ff25790612d9b91600182018155613f28565b969096612fde5791612dda93916005969593518855516001880155516002870155516003860155511515600485019060ff801983541691151516179055565b51910155601a548652601e8452604080872080546001600160a01b031916339081179091558752600f85528620600a018054918215612fd0575b5050609681029080820460961490151715612fbc5760649004820361260c577fa8a1b9e33e503eed12bf7e7c8c01c7f3b60217a496bddd0f5db351dd8c056c1c90612e5e33615079565b601a5490612e73604051928392339684613dd0565b0390a2338352600f815260066040842001918383549384612ea5575b5060016000805160206161128339815191525580f35b556017548381101580612f53575b612ebf575b8490612e8f565b83612ec991614058565b6017558354169080604051809363a9059cbb60e01b8252818781612ef1893360048401613f0d565b03925af19182156106d7577f3437b9ea7fa19c6d233dd70cc787a70fab87cee64d8ba4571512cc84402748f992612f36575b506040519283523392a238808080612eb8565b612f4c90823d84116106d0576106c18183613e39565b5038612f23565b5060248383875416604051928380926370a0823160e01b82523060048301525afa801561294c5785918791612f8b575b501015612eb3565b809250858092503d8311612fb5575b612fa48183613e39565b81010312610c735784905138612f83565b503d612f9a565b634e487b7160e01b86526011600452602486fd5b909150548091553880612e14565b634e487b7160e01b8d5260048d905260248dfd5b634e487b7160e01b8e52604160045260248efd5b61301c90853d87116106d0576106c18183613e39565b5038612d1b565b6040513d89823e3d90fd5b604051634dc7f5ff60e11b8152600490fd5b50601e811415612cd1565b50600f811415612ccb565b604051631ecb2c4f60e31b8152600490fd5b604051634065aaf160e11b8152600490fd5b50346103c457806003193601126103c457613093614b20565b60ff19604f5416604f557f15de7ad89d29fd1c6d2e6b1e878453569b4080edf34e0105faaa3bd52f0185308180a180f35b50346103c457806003193601126103c4576020604051603c8152f35b50346103c457806003193601126103c4576003546040516001600160a01b039091168152602090f35b50346103c45760203660031901126103c4576020906004358152601e8252604060018060a01b0391205416604051908152f35b50346103c457806003193601126103c45760206131576145fb565b604051908152f35b50346103c457806003193601126103c457613178614b59565b61104e6140e9565b50346103c457806003193601126103c4576020600d54604051908152f35b50346103c457806003193601126103c457602060ff604f54166040519015158152f35b50346103c457806003193601126103c457604f5460405160089190911c6001600160a01b03168152602090f35b50346103c45760203660031901126103c457600435906014548210156103c4576020816014600393522091020180546116046002600184015493015460405193849384613dd0565b50346103c457806003193601126103c4576020604051683635c9adc5dea000008152f35b50346103c457806003193601126103c4576020601854604051908152f35b50346103c45760203660031901126103c457610160906001600160a01b0390604090826132a3613d4a565b168152600f60205220908154169060018101549060028101546003820154600483015460ff600585015416600685015491600786015493600887015495600a6009890154980154986040519a8b5260208b015260408a015260608901526080880152151560a087015260c086015260e0850152610100840152610120830152610140820152f35b50346103c45760203660031901126103c457602061315760043561409c565b50346103c457806003193601126103c4576001546040516001600160a01b039091168152602090f35b50346103c457806003193601126103c457602090604051908152f35b50346103c4576020806003193601126129b2576004356133ac614b59565b6133bd60ff60165460081c16614065565b33835260118252604083208054821080613825575b156137f057906133e191613f28565b5090600182019182549260028201549160038101549460058201805494338952600f97888852600960408b20015460108952600160408c200154600c54916040519361010085019585871060018060401b0388111761159e5761346e966040528886528c8601526040850152896060850152608084015260a083015260c0820152603c60e0820152614b89565b94919290968395156137bd57836134849161402b565b905560048101805460ff1916905588546001600160a01b03936134af91889190309033908816614c7b565b15613788576134c4908661375a575b54614ee5565b806134f6575b50505054906040519182528282015260008051602061613283398151915260403392a261103533615079565b338852868652613513604089206003600482015491015490614058565b809111613752575b5081613528575b806134ca565b3387528585526003604088200161354083825461402b565b90558160011c908088541691604051926370a0823160e01b938481523060048201528881602481855afa80156112de5783918c91613721575b50101580613718575b6136cb575b5061359a6135936145fb565b9185614058565b670de0b6b3a7640000908181029181830414901517156136b757899392916135c191614038565b90600154166040519283523060048401528783602481845afa80156106d75788938591613682575b5082111580613679575b613623575b505050506040519081526000848201526000805160206160f283398151915260403392a23880613522565b6136449160405194858094819363a9059cbb60e01b83523360048401613f0d565b03925af180156130235761365c575b848188926135f8565b61367290853d87116106d0576106c18183613e39565b5038613653565b508115156135f3565b93809295508491503d83116136b0575b61369c8183613e39565b81010312610c7357889281889351906135e9565b503d613692565b634e487b7160e01b8a52601160045260248afd5b87604051809263a9059cbb60e01b8252818d816136ec883360048401613f0d565b03925af1801561135657156135875761371190883d8a116106d0576106c18183613e39565b5038613587565b50811515613582565b8092508a8092503d831161374b575b61373a8183613e39565b81010312610c735782905138613579565b503d613730565b91503861351b565b6137668760175461402b565b601755338a52888852600660408b200161378188825461402b565b90556134be565b606487896040519162461bcd60e51b8352600483015260248201526e151c985b9cd9995c8819985a5b1959608a1b6044820152fd5b60405162461bcd60e51b8152600481018a9052600b60248201526a139bdd08195e1c1a5c995960aa1b6044820152606490fd5b60405162461bcd60e51b815260048101849052600d60248201526c496e76616c6964207374616b6560981b6044820152606490fd5b5060ff60046138348484613f28565b500154166133d2565b50346103c457806003193601126103c457602060405160028152f35b50346103c4576020806003193601126129b25760043590613878614b59565b61388760ff604f541615613f87565b811561260c57683635c9adc5dea000008060175410908115613aab575b506129575782546040516323b872dd60e01b81526001600160a01b03918390829084168188816138d98a303360048501613fe0565b03925af1801561075557613a8e575b50601854906138f78285614002565b906139096017549261285c878561402b565b92612710860261270f1987820401613a7a57613928846103e892614038565b1161260c57606461393b600d5486614002565b04936139478582614058565b938360015416916040516370a0823160e01b81523060048201528881602481875afa80156112de5782918c91613a45575b501061295757899361398d8a6139959461402b565b601755614058565b601855803b156129b2578190602460405180948193630852cd8d60e31b83528960048401525af1801561302357613a32575b50600154169280604051809563a9059cbb60e01b82528189816139ee883360048401613f0d565b03925af193841561294c577f36864aeefce16bc4aaceeb6b0cdfb2ad1455a8cb4ccb0db148a2bc6e7166f97c9461292e575050612916604051928392339684613dd0565b613a3e90969196613e26565b94386139c7565b8092508a8092503d8311613a73575b613a5e8183613e39565b81010312613a6f5781905138613978565b8a80fd5b503d613a54565b634e487b7160e01b88526011600452602488fd5b613aa490833d85116106d0576106c18183613e39565b50386138e8565b905060185410386138a4565b50346103c45760403660031901126103c457613ad1613d4a565b6001600160a01b039081168252601260205260408220805460243593908410156103c45750602092613b0291613da2565b9190546040519260031b1c168152f35b50346103c4576020806003193601126129b257613b2d613d4a565b338352600f80835260408420546001600160a01b0392908316613c6557821692338414613c53578315613c415733808652828252604080872080546001600160a01b03191687179055858752601283528620613b899190613f44565b33855281815282604086205416938386955b1680151580613c37575b15613c0d578087528383526002806040892001549060018201908183116136b75783928260008051602061603283398151915293604093848e8881528c8c52200155825191825287820152a2865282825283613c0781604089205416966146e3565b95613b9b565b8682337fa6dbb5aa28f35437de94d685d66edce5fb4812196b4984b91dfd5a7b38c0fb308380a380f35b50601e8610613ba5565b60405163e6c4247b60e01b8152600490fd5b604051631acade8960e31b8152600490fd5b60405163682a906560e01b8152600490fd5b50346103c457806003193601126103c4576020600b54604051908152f35b50346103c45760403660031901126103c4576004358015158091036129b25760207f03cb373f89de891077fe47cec43663b6727713de0337af46bebd1178122251b7917fb886fcb5b9c12916f26d967ebe962dbd51ec249fb55961da39c851cdfc10115c82613d02613d3b565b92613d0b614b20565b6016549315159361ff008560081b169060ff83169061ffff19161717601655604051908152a1604051908152a180f35b602435908115158203610c7357565b600435906001600160a01b0382168203610c7357565b602435906001600160a01b0382168203610c7357565b604435906001600160a01b0382168203610c7357565b606435906001600160a01b0382168203610c7357565b8054821015613dba5760005260206000200190600090565b634e487b7160e01b600052603260045260246000fd5b6040919493926060820195825260208201520152565b34610c73576020366003190112610c73576040613e04600435615538565b82519182526020820152f35b6040906003190112610c73576004359060243590565b6001600160401b03811161159e57604052565b601f909101601f19168101906001600160401b0382119082101761159e57604052565b6001600160401b03811161159e57601f01601f191660200190565b9181601f84011215610c73578235916001600160401b038311610c73576020808501948460051b010111610c7357565b6040600319820112610c73576001600160401b0391600435838111610c735782613ed391600401613e77565b93909392602435918211610c7357613eed91600401613e77565b9091565b8054821015613dba5760005260206000209060011b0190600090565b6001600160a01b039091168152602081019190915260400190565b8054821015613dba576000526006602060002091020190600090565b80549190600160401b83101561159e5782613f67916001613f8595018155613da2565b90919060018060a01b038084549260031b9316831b921b1916179055565b565b15613f8e57565b60405162461bcd60e51b815260206004820152601260248201527110dbdb9d1c9858dd081a5cc81c185d5cd95960721b6044820152606490fd5b90816020910312610c7357518015158103610c735790565b6001600160a01b03918216815291166020820152604081019190915260600190565b8181029291811591840414171561401557565b634e487b7160e01b600052601160045260246000fd5b9190820180921161401557565b8115614042570490565b634e487b7160e01b600052601260045260246000fd5b9190820391821161401557565b1561406c57565b60405162461bcd60e51b8152602060048201526008602482015267111a5cd8589b195960c21b6044820152606490fd5b60038110156140c65760028110156140c057600111156140bb57600090565b600590565b50600a90565b50600f90565b606091949392608082019582526020820152600060408201520152565b600033815260209060108252604090818120926001808501541580156145ed575b6145dc573383526011825283832083919082825b614462575b5050811561445157338452600f8352614142826003878720015461402b565b95338552600f84528585209660049788810154809211614439575b5050821561442957338552600f845260038686200161417d84825461402b565b9055845486516370a0823160e01b808252308a8301528795926001600160a01b039284871c918416908981602481855afa90811561441f578b8d8f928d9594879184916143e6575b501015806143dd575b614380575b50505050506141e06145fb565b90670de0b6b3a76400009081810291818304149015171561436d579061420591614038565b9188955416908951908152308b8201528781602481855afa908115614363579083918a9161432e575b50101580614325575b6142a4575b505091600080516020615ff283398151915291600f959493885190815287868201526000805160206160f2833981519152893392a2549061428388519283923396846140cc565b0390a233835252206003810154910154111561429b57565b613f853361512a565b816142cb9293955087918b8a8c5180968195829463a9059cbb60e01b845233908401613f0d565b03925af1801561431b5791600080516020615ff28339815191529391600f979695936142fe575b5093949581935061423c565b61431490873d89116106d0576106c18183613e39565b50386142f2565b88513d89823e3d90fd5b50811515614237565b809250898092503d831161435c575b6143478183613e39565b81010312614358578290513861422e565b8880fd5b503d61433d565b8a513d8b823e3d90fd5b634e487b7160e01b8a5260118c5260248afd5b5163a9059cbb60e01b8152949a5084929183919082906143a5908e9033908401613f0d565b03925af18015614363576143c0575b508587388c8b8d6141d3565b6143d690883d8a116106d0576106c18183613e39565b50386143b4565b508515156141ce565b959694505050505081813d8311614418575b6144028183613e39565b81010312613a6f57908c8b8d858d9551386141c5565b503d6143f8565b8c513d8d823e3d90fd5b50505050505050613f853361512a565b6144499294506003015490614058565b91388061415d565b8451630fec21fd60e21b8152600490fd5b81548110156145d7578260ff600461447a8486613f28565b50015416156145cf57508561448f8284613f28565b5090600760038093015414600014614590575062cb73565b603c6144c160026144b88688613f28565b50015442614058565b0491806144ce8587613f28565b5001548311614579575b5084821561456d579161450061450592633b9aca00946144f88789613f28565b500154614002565b614002565b046145108284613f28565b509060058092015490818111614531575b505050908280925b01909161411e565b9561456361454e6145478897969488969a614058565b809361402b565b976145598487613f28565b500191825461402b565b9055919238614521565b93929050839150614529565b9091506145868385613f28565b50015490386144d8565b600f8261459d8587613f28565b500154036145af575062fe502b6144a7565b601e826145bc8587613f28565b500154036144a757506301312d006144a7565b809291614529565b614123565b8351634065aaf160e11b8152600490fd5b5060ff60038601541661410a565b604f5460081c6001600160a01b039081169081614670575b50506018548015801561465c575b61464f5760175490670de0b6b3a7640000918281029281840414901517156140155761464c91614038565b90565b50670de0b6b3a764000090565b50683635c9adc5dea0000060175410614621565b602090600154166024604051809481936341976e0960e01b835260048301525afa600091816146af575b506146a6575b80614613565b80156146a05790565b9091506020813d6020116146db575b816146cb60209383613e39565b81010312610c735751903861469a565b3d91506146be565b60001981146140155760010190565b9190811015613dba5760051b0190565b356001600160a01b0381168103610c735790565b1561471d57565b60405162461bcd60e51b815260206004820152600f60248201526e496e76616c6964206164647265737360881b6044820152606490fd5b916001600160a01b03908184169081151580614ab3575b61477490614716565b828416808314614a7d5784846000965b1680151580614a73575b156147f4578481146147ba57600052600f602052846147b48160406000205416976146e3565b96614784565b60405162461bcd60e51b815260206004820152601260248201527143697263756c6172207265666572656e636560701b6044820152606490fd5b506000848152600f60208181526040928390208054969a959950868916989496898b14614a66576001600160a01b0319168a1790558715159485614989575b614848908a6000526012835284600020613f44565b866000528181526002956002846000200154906001966001830180931161401557614909575b8a6148a3575b50505050505050507ff8b9fe4d008320e6f048c61e41e9cc56ce351354ad0cb9a868bd3c4bd6928fd5600080a4565b600090875b6148b3575b50614874565b8616801515806148ff575b156148fa57806000528484528886600020016148db84825461402b565b90556000528383526148f386866000205416916146e3565b90876148a8565b6148ad565b50601e82106148be565b866000878c835b61491e575b5050505061486e565b168015158061497f575b156149785760008181528787528890208b018054861161496f5761494d868254614058565b90555b60005285855261496688886000205416916146e3565b90889083614910565b60009055614950565b8890614915565b50601e8210614928565b9897969594939291908760005260128152826000209960005b8b5480821015614a515786908a6149ba8f8590613da2565b939054600394851b1c16146149d35750506001016149a2565b60009d91929495969798999a9b9c9d199485820191821161401557613f678a6149ff614a0d9486613da2565b905490871b1c169184613da2565b80548015614a3b576148489489910192614a278484613da2565b81939154921b1b19169055555b9050614833565b634e487b7160e01b600052603160045260246000fd5b50506148489192939495969798999a50614a34565b5050505050505050505050565b506032871061478e565b60405162461bcd60e51b815260206004820152600e60248201526d53656c66207265666572656e636560901b6044820152606490fd5b50838316151561476b565b6001600160a01b03908116908115614b075760008051602061601283398151915280546001600160a01b031981168417909155166000805160206160b2833981519152600080a3565b604051631e4fbdf760e01b815260006004820152602490fd5b600080516020616012833981519152546001600160a01b03163303614b4157565b60405163118cdaa760e01b8152336004820152602490fd5b6000805160206161128339815191526002815414614b775760029055565b604051633ee5aeb560e01b8152600490fd5b906020820151614bad6040840191614ba7835160e087015190614002565b9061402b565b421090811591614c6f57614beb81633b9aca00925160078114600014614c455750614be363ffffffff62cb73565b168751614002565b905190614002565b046060840151808211600014614c3757614c0a614c2591606493614058565b60808601519095908015614c295760c090915b015190614002565b0491565b5060c060a082015191614c1d565b50506064614c256000614c0a565b600f03614c5d57614be363ffffffff62fe502b614bdb565b614be363ffffffff6301312d00614bdb565b50600092508291829150565b93909181614cf1575b505060405163a9059cbb60e01b815292602092849283916000918391614cad9160048401613f0d565b03926001600160a01b03165af1908115614ce557600091614ccc575090565b61464c915060203d6020116106d0576106c18183613e39565b6040513d6000823e3d90fd5b60018060a09594951b03808616916040938451926370a0823160e01b84528088169081600486015260209485816024818a5afa908115614e7457908491600091614e43575b5010614e3457865191636eb1769f60e11b83526004830152831660248201528381604481885afa908115614e2957908291600091614df8575b5010614deb57614d99938392600087518097819582946323b872dd60e01b84528d60048501613fe0565b03925af1928315614de15750600092614dc4575b505015614dbc57903880614c84565b505050600090565b614dda9250803d106106d0576106c18183613e39565b3880614dad565b513d6000823e3d90fd5b5050505050505050600090565b809250858092503d8311614e22575b614e118183613e39565b81010312610c735781905138614d6f565b503d614e07565b86513d6000823e3d90fd5b50505050505050505050600090565b809250878092503d8311614e6d575b614e5c8183613e39565b81010312610c735783905138614d36565b503d614e52565b88513d6000823e3d90fd5b8051821015613dba5760209160051b010190565b80549060009081815582614ea657505050565b6001906001600160ff1b03841684036124fe578252602082209260011b8301925b838110614ed45750505050565b808360029255838382015501614ec7565b6000818152601e6020908152604080832054601d8352818420805493969495929492936001600160a01b0392831693906001600160401b03908181116150585787519391614f39600583901b8c0186613e39565b81855291895289892089928b86015b838510615021575050505050865b825181101561500a5780614f8785614f7060019487614e7f565b5151168b614f7e8488614e7f565b51015190615b48565b86898c83614fd1575b8a92507fae629b396150638d6eb6de457cbffe5d618a10c8cc199a94976bed2b16ecd993915088614fc1868a614e7f565b515116938c51908152a301614f56565b6060600080516020615fb2833981519152918c8b614fef898d614e7f565b515116946004815193898552840152820152a386898c614f90565b5096915050601d9150613f85949283525220614e93565b8a518b810181811084821117612ff2576001928f91926002938f528b87541681528487015483820152815201930194019391614f48565b634e487b7160e01b89526041600452602489fd5b8015614015576000190190565b60018060a01b03806000921682526010602052604082209060018201541515918261511a575b50600f602052604083206005810160ff81541615158415151461511357805460ff191660ff85151516179055541691821561510e57600192604092156150f6578152600f60205220016150f281546146e3565b9055565b81522001805480615105575050565b6150f29061506c565b505050565b5050505050565b6003015460ff161591503861509f565b6001600160a01b038116600081815260106020526040902060038101805492939260ff81161561515b575050505050565b906001602495969260ff19161790556011602052604060002094600092600094602060018060a01b0360005416604051988980926370a0823160e01b82523060048301525afa968715614ce557600097615504575b50600095945b88548710156152715760ff60046151cd898c613f28565b50015416156152675760016151e2888b613f28565b50015490818060011b0460021482151715614015578961523a91600161521c8b61012c6152158498600c5490861b614002565b0494613f28565b50015482811061525a5790614ba78361523493614058565b9761402b565b966004615247828c613f28565b5001805460ff191690555b0195946151b6565b600092506152349161402b565b9495600190615252565b939750909450819593919383615361575b50509160008051602061613283398151915260406000805160206160d2833981519152959385602096615340575b6000858152600f885283902060058101805460ff19811690915590546001600160a01b03169060ff1680615337575b80615323575b615307575b50825191825286820152a254604051908152a23880808080615113565b6000526001836000200161531b815461506c565b9055386152ea565b5080600052600184600020015415156152e5565b508015156152df565b84600052600f87526006836000200161535a82825461402b565b90556152b0565b90949293908481106154055750506000805460405163a9059cbb60e01b81529560209287926001600160a01b03169183919082906153a4908a9060048401613f0d565b03925af1938415614ce55760406020948793600080516020616132833981519152936000805160206160d2833981519152986153e8575b505b939550939550615282565b6153fe90883d8a116106d0576106c18183613e39565b50386153db565b9092939481615458575b5060406000805160206160d28339815191529584936020969560008051602061607283398151915284600080516020616132833981519152968151908682528b820152a26153dd565b8161548e929395945060209160018060a01b036000541690600060405180968195829463a9059cbb60e01b845260048401613f0d565b03925af18015614ce5576000805160206160d28339815191529560209588600080516020616072833981519152604082976000805160206161328339815191529782976154e7575b50965050505093949550955061540f565b6154fd908c3d8e116106d0576106c18183613e39565b50386154d6565b9096506020813d602011615530575b8161552060209383613e39565b81010312610c73575195386151b0565b3d9150615513565b6127108110156155dc576113888110156155d3576107d08110156155ca576103e88110156155c1576101f48110156155b85760c88110156155af5760648110156155a657603281101561559d576014111561559557600090600090565b600190600590565b50600290600a90565b50600390600f90565b50600490601490565b50600590601990565b50600690601e90565b50600790602390565b50600890602890565b50600990602d90565b6001600160a01b0390811660008181526010602090815260408083206001818101805496979096939590949291841580156157a3575b61574e57601184528682208054839291835b828110615763575050505061575957600282019661564f88546015549061402b565b42111561574e57600383837f57025f0027038907eda728b59164fb63d06048f42e618a35267e6a12e49b2e469a8a9654998d8352600f895260ff6005898520928354169201541680615745575b80615733575b615719575b508c8252600f88528187812095816004600589019860ff19998a815416905582898201550155818555555501908154169055846156ea575b5051928352820152a2565b848152601383526156fc828220614e93565b848152601c83522080546001600160a01b031916905583386156df565b825260018783200161572b815461506c565b9055386156a7565b508083526001888420015415156156a2565b5080151561569c565b505050505050505050565b5050505050505050565b60ff60046157718385613f28565b50015416615781575b830161562d565b9361579b8491826157928886613f28565b5001549061402b565b94905061577a565b5060ff60038401541661561b565b60018060a01b03808216906000918083526020600f8152604090818520936010825282862060ff600587015416159081156159a6575b8115615999575b5061598e57602482828854168551928380926370a0823160e01b82523060048301525afa908115615984579089918891615953575b501061592e5760048501956003875496019561584187548092614058565b8a818111615906575b50508980615870575b505050505050505490541115615867575090565b61464c9061512a565b6158a19361587f82879461402b565b89558354168a84885180978195829463a9059cbb60e01b845260048401613f0d565b03925af19081156158fb5750906000805160206160f28339815191529392916158de575b506002825191898352820152a238808080808089615853565b6158f490823d84116106d0576106c18183613e39565b50386158c5565b8451903d90823e3d90fd5b819b50866000805160206160728339815191529189939d825191825288820152a2388061584a565b508496929550816000805160206160728339815191529592945051928352820152a290565b809250848092503d831161597d575b61596c8183613e39565b81010312612c4c5788905138615823565b503d615962565b84513d89823e3d90fd5b505050505091505090565b60019150015415386157ee565b600381015460ff1691506157e7565b60018060a01b03808216906000918083526020600f8152604090818520936010825282862060ff60058701541615908115615b39575b8115615b2c575b5061598e57602482828854168551928380926370a0823160e01b82523060048301525afa908115615984579089918891615afb575b501061592e57600485019560038754960195615a4587548092614058565b8a818111615ad3575b50508980615a6a57505050505050505490541115615867575090565b615a799361587f82879461402b565b03925af19081156158fb5750906000805160206160f2833981519152939291615ab6575b506003825191898352820152a238808080808089615853565b615acc90823d84116106d0576106c18183613e39565b5038615a9d565b819b50866000805160206160728339815191529189939d825191825288820152a23880615a4e565b809250848092503d8311615b25575b615b148183613e39565b81010312612c4c5788905138615a27565b503d615b0a565b60019150015415386159f2565b600381015460ff1691506159eb565b60018060a01b03808216906000918083526020600f8152604090818520936010825282862060ff60058701541615908115615ccc575b8115615cbf575b5061598e57602482828854168551928380926370a0823160e01b82523060048301525afa908115615984579089918891615c8e575b501061592e57600485019560038754960195615bd887548092614058565b8a818111615c66575b50508980615bfd57505050505050505490541115615867575090565b615c0c9361587f82879461402b565b03925af19081156158fb5750906000805160206160f2833981519152939291615c49575b506004825191898352820152a238808080808089615853565b615c5f90823d84116106d0576106c18183613e39565b5038615c30565b819b50866000805160206160728339815191529189939d825191825288820152a23880615be1565b809250848092503d8311615cb8575b615ca78183613e39565b81010312612c4c5788905138615bba565b503d615c9d565b6001915001541538615b85565b600381015460ff169150615b7e565b908115615f1b57601754683635c9adc5dea00000808210908115615f0f575b50615f0a5760018060a01b03926000938085541692604093845191826370a0823160e01b9283825230600483015281602460209687935afa908115615f00578991615ed3575b50615d4b868361402b565b11615eb557612710850261270f1986820401615ebf57615d6e826103e892614038565b11615eb55760185490615d8e615d848388614002565b61285c888461402b565b9485158015615eac575b615ea057600154169287519081523060048201528481602481875afa908115615e96579083918b91615e61575b5010615e56578489939261398d88615ddc9461402b565b601855803b156129b25781906024875180948193630852cd8d60e31b83528860048401525af18015615e4c577f0ec3929061cbbbeecb325623e7d5a86c3dae11cb8a22ca45dc0972955657da25969750615e3d575b508351928352820152a1565b615e4690613e26565b38615e31565b85513d89823e3d90fd5b505050505050509050565b809250868092503d8311615e8f575b615e7a8183613e39565b81010312615e8b5782905138615dc5565b8980fd5b503d615e70565b88513d8c823e3d90fd5b50505050505050509050565b50828611615d98565b5050505050509050565b634e487b7160e01b89526011600452602489fd5b90508381813d8311615ef9575b615eea8183613e39565b81010312614358575138615d40565b503d615ee0565b87513d8b823e3d90fd5b509050565b90506018541038615cfa565b9050565b60ff6000805160206161528339815191525460401c1615615f3c57565b604051631afcd79f60e31b8152600490fd5b90615f755750805115615f6357602081519101fd5b60405163d6bda27560e01b8152600490fd5b81511580615fa8575b615f86575090565b604051639996b31560e01b81526001600160a01b039091166004820152602490fd5b50803b15615f7e56fe9b3cc71482a1b2eebe764a739f46f1fe99291fd0183be81951532b29d0c9c8da38f8a0c92f4c5b0b6877f878cb4c0c8d348a47b76d716c8e78f425043df9515b6fcebd0a2ce98b28cb391d6008bbc769378c9a4919628e11639cb575cd320fcc9016d09d72d40fdae2fd8ceac6b6234c7706214fd39c1cd1e609a0528c199300a0eea20e678cb42233c1c456c84cedce7ea53fa360bb71bf3b761b7609567770360894a13ba1a3210667c828492db98dca3e2076cc3735a920a3ca505d382bbcb5987aab1afd379f6695f1068869ee8ca6a0d02304c57935a9cc3d3ea2e51e4d520bc217d25ef4588524228dffcfa518f4ad52178c71d49b8061d016213cd3118be0079c531659141344cd1fd0a4f28419497f9722a3daafe3b4186f6b6457e0920bb94eb3842a728db98228c375ff6b00c5bc5a54fac6736155517a0a20a61af381583145e90b82cc5e529bf4fc4d0e44397174cdf145c4251ac33ef195a4249b779b17422d0df92223018b32b4d1fa46e071723d6817e2486d003becc55f00f3a670cd3af7d64b488926880889d08a8585a138ff455227af6737339a1ec262f0c57e16840df040f15088dc2f81fe391c3923bec73e23a9662efc9c229c6a00a264697066735822122014f0885be1a924738caacc00105f69e96bd27eef47785d1c5f4a78d02fdc044264736f6c63430008160033","opcodes":"PUSH1 0xA0 DUP1 PUSH1 0x40 MSTORE CALLVALUE PUSH3 0xD1 JUMPI ADDRESS PUSH1 0x80 MSTORE PUSH32 0xF0C57E16840DF040F15088DC2F81FE391C3923BEC73E23A9662EFC9C229C6A00 SWAP1 DUP2 SLOAD SWAP1 PUSH1 0xFF DUP3 PUSH1 0x40 SHR AND PUSH3 0xC2 JUMPI POP PUSH1 0x1 PUSH1 0x1 PUSH1 0x40 SHL SUB PUSH1 0x2 PUSH1 0x1 PUSH1 0x40 SHL SUB NOT DUP3 DUP3 AND ADD PUSH3 0x7C JUMPI JUMPDEST PUSH1 0x40 MLOAD PUSH2 0x61A7 SWAP1 DUP2 PUSH3 0xD7 DUP3 CODECOPY PUSH1 0x80 MLOAD DUP2 DUP2 DUP2 PUSH2 0x26D8 ADD MSTORE PUSH2 0x2ABB ADD MSTORE RETURN JUMPDEST PUSH1 0x1 PUSH1 0x1 PUSH1 0x40 SHL SUB NOT SWAP1 SWAP2 AND DUP2 OR SWAP1 SWAP2 SSTORE PUSH1 0x40 MLOAD SWAP1 DUP2 MSTORE PUSH32 0xC7F505B2F371AE2175EE4913F4499E1F2633A7B5936321EED1CDAEB6115181D2 SWAP1 PUSH1 0x20 SWAP1 LOG1 CODESIZE DUP1 DUP1 PUSH3 0x5C JUMP JUMPDEST PUSH4 0xF92EE8A9 PUSH1 0xE0 SHL DUP2 MSTORE PUSH1 0x4 SWAP1 REVERT JUMPDEST PUSH1 0x0 DUP1 REVERT INVALID PUSH1 0x80 PUSH1 0x40 MSTORE PUSH1 0x4 CALLDATASIZE LT ISZERO PUSH2 0x12 JUMPI PUSH1 0x0 DUP1 REVERT JUMPDEST PUSH1 0x0 DUP1 CALLDATALOAD PUSH1 0xE0 SHR DUP1 PUSH4 0x1D62EFB EQ PUSH2 0x3C95 JUMPI DUP1 PUSH4 0x4EF9D58 EQ PUSH2 0x3C77 JUMPI DUP1 PUSH4 0x4F618CB EQ PUSH2 0x3B12 JUMPI DUP1 PUSH4 0x5AD3935 EQ PUSH2 0x3AB7 JUMPI DUP1 PUSH4 0xA5C4567 EQ PUSH2 0x3859 JUMPI DUP1 PUSH4 0xE2BE210 EQ PUSH2 0x383D JUMPI DUP1 PUSH4 0x10FF994D EQ PUSH2 0x338E JUMPI DUP1 PUSH4 0x1427F616 EQ PUSH2 0x3372 JUMPI DUP1 PUSH4 0x1788513C EQ PUSH2 0x3349 JUMPI DUP1 PUSH4 0x182C84CC EQ PUSH2 0x332A JUMPI DUP1 PUSH4 0x1959A002 EQ PUSH2 0x3278 JUMPI DUP1 PUSH4 0x1D0DAC76 EQ PUSH2 0x325A JUMPI DUP1 PUSH4 0x21B77D63 EQ PUSH2 0x3236 JUMPI DUP1 PUSH4 0x21F483D3 EQ PUSH2 0x31EE JUMPI DUP1 PUSH4 0x2630C12F EQ PUSH2 0x31C1 JUMPI DUP1 PUSH4 0x27C830A9 EQ PUSH2 0x319E JUMPI DUP1 PUSH4 0x27F082F4 EQ PUSH2 0x3180 JUMPI DUP1 PUSH4 0x372500AB EQ PUSH2 0x315F JUMPI DUP1 PUSH4 0x3A3EA2F0 EQ PUSH2 0x313C JUMPI DUP1 PUSH4 0x3DBD46BD EQ PUSH2 0x3109 JUMPI DUP1 PUSH4 0x4626402B EQ PUSH2 0x30E0 JUMPI DUP1 PUSH4 0x47194001 EQ PUSH2 0x1B44 JUMPI DUP1 PUSH4 0x488B5D97 EQ PUSH2 0x30C4 JUMPI DUP1 PUSH4 0x4A4E3BD5 EQ PUSH2 0x307A JUMPI DUP1 PUSH4 0x4EA4C6B3 EQ PUSH2 0x2C73 JUMPI DUP1 PUSH4 0x4F1EF286 EQ PUSH2 0x2A40 JUMPI DUP1 PUSH4 0x51858E27 EQ PUSH2 0x29F3 JUMPI DUP1 PUSH4 0x52778B05 EQ PUSH2 0x2730 JUMPI DUP1 PUSH4 0x52D1902D EQ PUSH2 0x26C5 JUMPI DUP1 PUSH4 0x530E784F EQ PUSH2 0x267B JUMPI DUP1 PUSH4 0x6031A52F EQ PUSH2 0x265D JUMPI DUP1 PUSH4 0x67DD74CA EQ PUSH2 0x1E35 JUMPI DUP1 PUSH4 0x6839B5FA EQ PUSH2 0x1E18 JUMPI DUP1 PUSH4 0x6DD66827 EQ PUSH2 0x1DFA JUMPI DUP1 PUSH4 0x715018A6 EQ PUSH2 0x1DA1 JUMPI DUP1 PUSH4 0x74B0EECF EQ PUSH2 0x1CD6 JUMPI DUP1 PUSH4 0x75506C96 EQ PUSH2 0x1CB8 JUMPI DUP1 PUSH4 0x75F0A874 EQ PUSH2 0x1C8F JUMPI DUP1 PUSH4 0x77A2A540 EQ PUSH2 0x1C71 JUMPI DUP1 PUSH4 0x813380CD EQ PUSH2 0x1C43 JUMPI DUP1 PUSH4 0x83672F3E EQ PUSH2 0x1B49 JUMPI DUP1 PUSH4 0x86481D40 EQ PUSH2 0x1B44 JUMPI DUP1 PUSH4 0x8710BCAA EQ PUSH2 0x1AE3 JUMPI DUP1 PUSH4 0x88481B61 EQ PUSH2 0x1AC7 JUMPI DUP1 PUSH4 0x88FD4D33 EQ PUSH2 0x1A9E JUMPI DUP1 PUSH4 0x8A859A85 EQ PUSH2 0x1A82 JUMPI DUP1 PUSH4 0x8C0EAA48 EQ PUSH2 0x1A66 JUMPI DUP1 PUSH4 0x8DA5CB5B EQ PUSH2 0x1A30 JUMPI DUP1 PUSH4 0x90B0EB51 EQ PUSH2 0x19E0 JUMPI DUP1 PUSH4 0x9370B080 EQ PUSH2 0x19C2 JUMPI DUP1 PUSH4 0x95253992 EQ PUSH2 0x199B JUMPI DUP1 PUSH4 0x99B6024D EQ PUSH2 0x18D5 JUMPI DUP1 PUSH4 0x9A5FB0FE EQ PUSH2 0x17D1 JUMPI DUP1 PUSH4 0x9CD441DA EQ PUSH2 0x168D JUMPI DUP1 PUSH4 0x9D99ECA4 EQ PUSH2 0x163F JUMPI DUP1 PUSH4 0xA2AF9226 EQ PUSH2 0x160C JUMPI DUP1 PUSH4 0xAC8F50AA EQ PUSH2 0x15B4 JUMPI DUP1 PUSH4 0xAD3CB1CC EQ PUSH2 0x150F JUMPI DUP1 PUSH4 0xB048A4BB EQ PUSH2 0x14EC JUMPI DUP1 PUSH4 0xB5D5B5FA EQ PUSH2 0x145E JUMPI DUP1 PUSH4 0xB759936B EQ PUSH2 0x1440 JUMPI DUP1 PUSH4 0xBD594DCF EQ PUSH2 0x1422 JUMPI DUP1 PUSH4 0xBE040FB0 EQ PUSH2 0xD29 JUMPI DUP1 PUSH4 0xC2FF12FC EQ PUSH2 0xCF6 JUMPI DUP1 PUSH4 0xC3B369D7 EQ PUSH2 0xC78 JUMPI DUP1 PUSH4 0xCC2A9A5B EQ PUSH2 0xA65 JUMPI DUP1 PUSH4 0xCCF61944 EQ PUSH2 0xA47 JUMPI DUP1 PUSH4 0xCEA9D26F EQ PUSH2 0x8DD JUMPI DUP1 PUSH4 0xCEAA366D EQ PUSH2 0x8BF JUMPI DUP1 PUSH4 0xD0F16470 EQ PUSH2 0x835 JUMPI DUP1 PUSH4 0xD2C8E0E5 EQ PUSH2 0x786 JUMPI DUP1 PUSH4 0xD2F82536 EQ PUSH2 0x760 JUMPI DUP1 PUSH4 0xD4F00142 EQ PUSH2 0x5D9 JUMPI DUP1 PUSH4 0xD8020A18 EQ PUSH2 0x5BB JUMPI DUP1 PUSH4 0xDEAB8AEA EQ PUSH2 0x592 JUMPI DUP1 PUSH4 0xDEC7FA3B EQ PUSH2 0x574 JUMPI DUP1 PUSH4 0xE3067449 EQ PUSH2 0x556 JUMPI DUP1 PUSH4 0xE4412F68 EQ PUSH2 0x538 JUMPI DUP1 PUSH4 0xE8176305 EQ PUSH2 0x415 JUMPI DUP1 PUSH4 0xECE71266 EQ PUSH2 0x3C7 JUMPI PUSH4 0xF2FDE38B EQ PUSH2 0x398 JUMPI PUSH1 0x0 DUP1 REVERT JUMPDEST CALLVALUE PUSH2 0x3C4 JUMPI PUSH1 0x20 CALLDATASIZE PUSH1 0x3 NOT ADD SLT PUSH2 0x3C4 JUMPI PUSH2 0x3C1 PUSH2 0x3B4 PUSH2 0x3D4A JUMP JUMPDEST PUSH2 0x3BC PUSH2 0x4B20 JUMP JUMPDEST PUSH2 0x4ABE JUMP JUMPDEST DUP1 RETURN JUMPDEST DUP1 REVERT JUMPDEST POP CALLVALUE PUSH2 0x3C4 JUMPI PUSH1 0x20 CALLDATASIZE PUSH1 0x3 NOT ADD SLT PUSH2 0x3C4 JUMPI PUSH32 0xC7F6975DCFFC536E6E57DD1D1DEA810FFF534A70563BAF2D6F977B119BD00E1B PUSH1 0x20 PUSH1 0x4 CALLDATALOAD PUSH2 0x407 PUSH2 0x4B20 JUMP JUMPDEST DUP1 PUSH1 0xC SSTORE PUSH1 0x40 MLOAD SWAP1 DUP2 MSTORE LOG1 DUP1 RETURN JUMPDEST POP CALLVALUE PUSH2 0x3C4 JUMPI PUSH1 0x20 CALLDATASIZE PUSH1 0x3 NOT ADD SLT PUSH2 0x3C4 JUMPI PUSH2 0x42F PUSH2 0x3D4A JUMP JUMPDEST PUSH2 0x437 PUSH2 0x4B20 JUMP JUMPDEST PUSH1 0x1 PUSH1 0x1 PUSH1 0xA0 SHL SUB SWAP1 DUP2 AND SWAP1 PUSH2 0x44E DUP3 ISZERO ISZERO PUSH2 0x4716 JUMP JUMPDEST DUP2 DUP4 MSTORE PUSH1 0xF PUSH1 0x20 MSTORE PUSH1 0x40 DUP4 KECCAK256 SWAP1 DUP2 SLOAD SWAP1 PUSH1 0x1 SWAP3 DUP4 SWAP3 DUP7 PUSH1 0x1 DUP4 ADD SSTORE DUP7 PUSH1 0x3 DUP4 ADD SSTORE DUP7 PUSH1 0x4 DUP4 ADD SSTORE PUSH1 0x5 DUP3 ADD SWAP3 PUSH1 0xFF NOT SWAP4 DUP5 DUP2 SLOAD AND SWAP1 SSTORE DUP8 PUSH1 0x6 DUP5 ADD SSTORE DUP8 PUSH1 0x7 DUP5 ADD SSTORE DUP8 PUSH1 0x8 DUP5 ADD SSTORE DUP8 PUSH1 0x9 DUP5 ADD SSTORE DUP8 PUSH1 0xA DUP5 ADD SSTORE DUP2 AND SWAP1 PUSH1 0x1 DUP1 PUSH1 0xA0 SHL SUB NOT AND OR SWAP1 SSTORE PUSH1 0x10 PUSH1 0x20 MSTORE PUSH1 0x3 PUSH1 0x40 DUP7 KECCAK256 DUP7 DUP2 SSTORE DUP7 PUSH1 0x1 DUP3 ADD SSTORE DUP7 PUSH1 0x2 DUP3 ADD SSTORE ADD DUP2 DUP2 SLOAD AND SWAP1 SSTORE PUSH1 0x11 PUSH1 0x20 MSTORE PUSH1 0x40 DUP6 KECCAK256 DUP6 SWAP3 JUMPDEST PUSH2 0x50C JUMPI JUMPDEST DUP6 DUP6 PUSH32 0xA84A765FF0B34A8011D2CF523C71C7CC26B88417C652EC9B3BAD84220EF8F777 DUP3 DUP1 LOG2 DUP1 RETURN JUMPDEST DUP1 SLOAD DUP4 LT ISZERO PUSH2 0x533 JUMPI DUP4 DUP4 PUSH1 0x4 PUSH2 0x524 DUP4 SWAP7 DUP6 PUSH2 0x3F28 JUMP JUMPDEST POP ADD DUP5 DUP2 SLOAD AND SWAP1 SSTORE ADD SWAP3 PUSH2 0x4DE JUMP JUMPDEST PUSH2 0x4E3 JUMP JUMPDEST POP CALLVALUE PUSH2 0x3C4 JUMPI DUP1 PUSH1 0x3 NOT CALLDATASIZE ADD SLT PUSH2 0x3C4 JUMPI PUSH1 0x20 PUSH1 0x9 SLOAD PUSH1 0x40 MLOAD SWAP1 DUP2 MSTORE RETURN JUMPDEST POP CALLVALUE PUSH2 0x3C4 JUMPI DUP1 PUSH1 0x3 NOT CALLDATASIZE ADD SLT PUSH2 0x3C4 JUMPI PUSH1 0x20 PUSH1 0x1B SLOAD PUSH1 0x40 MLOAD SWAP1 DUP2 MSTORE RETURN JUMPDEST POP CALLVALUE PUSH2 0x3C4 JUMPI DUP1 PUSH1 0x3 NOT CALLDATASIZE ADD SLT PUSH2 0x3C4 JUMPI PUSH1 0x20 PUSH1 0xC SLOAD PUSH1 0x40 MLOAD SWAP1 DUP2 MSTORE RETURN JUMPDEST POP CALLVALUE PUSH2 0x3C4 JUMPI DUP1 PUSH1 0x3 NOT CALLDATASIZE ADD SLT PUSH2 0x3C4 JUMPI PUSH1 0x5 SLOAD PUSH1 0x40 MLOAD PUSH1 0x1 PUSH1 0x1 PUSH1 0xA0 SHL SUB SWAP1 SWAP2 AND DUP2 MSTORE PUSH1 0x20 SWAP1 RETURN JUMPDEST POP CALLVALUE PUSH2 0x3C4 JUMPI DUP1 PUSH1 0x3 NOT CALLDATASIZE ADD SLT PUSH2 0x3C4 JUMPI PUSH1 0x20 PUSH1 0x8 SLOAD PUSH1 0x40 MLOAD SWAP1 DUP2 MSTORE RETURN JUMPDEST POP CALLVALUE PUSH2 0x3C4 JUMPI PUSH1 0x80 CALLDATASIZE PUSH1 0x3 NOT ADD SLT PUSH2 0x3C4 JUMPI PUSH2 0x5F3 PUSH2 0x3D4A JUMP JUMPDEST PUSH1 0x24 CALLDATALOAD SWAP1 PUSH2 0x5FF PUSH2 0x3D76 JUMP JUMPDEST DUP3 PUSH1 0x64 CALLDATALOAD SWAP3 PUSH2 0x60C PUSH2 0x4B20 JUMP JUMPDEST DUP2 PUSH2 0x6E2 JUMPI JUMPDEST POP POP DUP2 PUSH2 0x63C JUMPI JUMPDEST POP PUSH1 0x0 DUP1 MLOAD PUSH1 0x20 PUSH2 0x6092 DUP4 CODECOPY DUP2 MLOAD SWAP2 MSTORE SWAP2 PUSH1 0x40 SWAP2 DUP3 MLOAD SWAP2 DUP3 MSTORE PUSH1 0x20 DUP3 ADD MSTORE LOG1 DUP1 RETURN JUMPDEST SWAP2 PUSH1 0x20 DUP3 PUSH2 0x67C SWAP5 PUSH2 0x650 DUP3 PUSH1 0x18 SLOAD PUSH2 0x4058 JUMP JUMPDEST PUSH1 0x18 SSTORE PUSH1 0x1 DUP1 PUSH1 0xA0 SHL SUB PUSH1 0x1 SLOAD AND SWAP1 DUP8 PUSH1 0x40 MLOAD DUP1 SWAP9 DUP2 SWAP6 DUP3 SWAP5 PUSH4 0xA9059CBB PUSH1 0xE0 SHL DUP5 MSTORE PUSH1 0x4 DUP5 ADD PUSH2 0x3F0D JUMP JUMPDEST SUB SWAP3 GAS CALL SWAP2 DUP3 ISZERO PUSH2 0x6D7 JUMPI PUSH1 0x0 DUP1 MLOAD PUSH1 0x20 PUSH2 0x6092 DUP4 CODECOPY DUP2 MLOAD SWAP2 MSTORE SWAP4 PUSH1 0x40 SWAP4 PUSH2 0x6A8 JUMPI JUMPDEST POP SWAP2 POP SWAP2 PUSH2 0x61A JUMP JUMPDEST PUSH2 0x6C9 SWAP1 PUSH1 0x20 RETURNDATASIZE PUSH1 0x20 GT PUSH2 0x6D0 JUMPI JUMPDEST PUSH2 0x6C1 DUP2 DUP4 PUSH2 0x3E39 JUMP JUMPDEST DUP2 ADD SWAP1 PUSH2 0x3FC8 JUMP JUMPDEST POP CODESIZE PUSH2 0x69F JUMP JUMPDEST POP RETURNDATASIZE PUSH2 0x6B7 JUMP JUMPDEST PUSH1 0x40 MLOAD RETURNDATASIZE DUP7 DUP3 RETURNDATACOPY RETURNDATASIZE SWAP1 REVERT JUMPDEST DUP2 PUSH1 0x20 SWAP2 PUSH2 0x6F5 PUSH2 0x720 SWAP5 PUSH1 0x17 SLOAD PUSH2 0x4058 JUMP JUMPDEST PUSH1 0x17 SSTORE PUSH1 0x1 DUP1 PUSH1 0xA0 SHL SUB DUP9 SLOAD AND SWAP1 DUP9 PUSH1 0x40 MLOAD DUP1 SWAP7 DUP2 SWAP6 DUP3 SWAP5 PUSH4 0xA9059CBB PUSH1 0xE0 SHL DUP5 MSTORE PUSH1 0x4 DUP5 ADD PUSH2 0x3F0D JUMP JUMPDEST SUB SWAP3 GAS CALL DUP1 ISZERO PUSH2 0x755 JUMPI PUSH2 0x736 JUMPI JUMPDEST DUP4 SWAP1 PUSH2 0x612 JUMP JUMPDEST PUSH2 0x74E SWAP1 PUSH1 0x20 RETURNDATASIZE PUSH1 0x20 GT PUSH2 0x6D0 JUMPI PUSH2 0x6C1 DUP2 DUP4 PUSH2 0x3E39 JUMP JUMPDEST POP CODESIZE PUSH2 0x72F JUMP JUMPDEST PUSH1 0x40 MLOAD RETURNDATASIZE DUP8 DUP3 RETURNDATACOPY RETURNDATASIZE SWAP1 REVERT JUMPDEST POP CALLVALUE PUSH2 0x3C4 JUMPI DUP1 PUSH1 0x3 NOT CALLDATASIZE ADD SLT PUSH2 0x3C4 JUMPI PUSH1 0x20 PUSH1 0xFF PUSH1 0x16 SLOAD PUSH1 0x8 SHR AND PUSH1 0x40 MLOAD SWAP1 ISZERO ISZERO DUP2 MSTORE RETURN JUMPDEST POP CALLVALUE PUSH2 0x3C4 JUMPI PUSH1 0x20 SWAP1 DUP2 PUSH1 0x3 NOT CALLDATASIZE ADD SLT PUSH2 0x3C4 JUMPI PUSH1 0x1 PUSH1 0x1 PUSH1 0xA0 SHL SUB SWAP2 SWAP1 DUP3 PUSH2 0x7AD PUSH2 0x3D4A JUMP JUMPDEST AND DUP2 MSTORE PUSH1 0x12 DUP3 MSTORE PUSH1 0x40 DUP2 KECCAK256 SWAP1 PUSH1 0x40 MLOAD DUP1 DUP5 DUP5 SLOAD SWAP2 DUP3 DUP2 MSTORE ADD SWAP1 DUP2 SWAP5 DUP5 MSTORE DUP6 DUP5 KECCAK256 SWAP1 DUP5 JUMPDEST DUP2 DUP2 LT PUSH2 0x81F JUMPI POP POP POP DUP2 PUSH2 0x7E6 SWAP2 SUB DUP3 PUSH2 0x3E39 JUMP JUMPDEST PUSH1 0x40 MLOAD SWAP4 DUP1 DUP6 ADD SWAP2 DUP2 DUP7 MSTORE MLOAD DUP1 SWAP3 MSTORE PUSH1 0x40 DUP6 ADD SWAP4 SWAP3 JUMPDEST DUP3 DUP2 LT PUSH2 0x809 JUMPI DUP6 DUP6 SUB DUP7 RETURN JUMPDEST DUP4 MLOAD DUP8 AND DUP6 MSTORE SWAP4 DUP2 ADD SWAP4 SWAP3 DUP2 ADD SWAP3 PUSH1 0x1 ADD PUSH2 0x7FC JUMP JUMPDEST DUP3 SLOAD DUP10 AND DUP5 MSTORE SWAP3 DUP8 ADD SWAP3 PUSH1 0x1 SWAP3 DUP4 ADD SWAP3 ADD PUSH2 0x7D0 JUMP JUMPDEST POP CALLVALUE PUSH2 0x3C4 JUMPI PUSH1 0xC0 CALLDATASIZE PUSH1 0x3 NOT ADD SLT PUSH2 0x3C4 JUMPI PUSH32 0x66682B276E4CD1A4E1F68B55B1143766C5332F472EB593CF2A70A25D9D5D9917 PUSH1 0xC0 PUSH1 0x4 CALLDATALOAD PUSH1 0xA4 CALLDATALOAD PUSH1 0x84 CALLDATALOAD PUSH1 0x64 CALLDATALOAD PUSH1 0x44 CALLDATALOAD PUSH1 0x24 CALLDATALOAD PUSH2 0x884 PUSH2 0x4B20 JUMP JUMPDEST DUP6 PUSH1 0x6 SSTORE DUP1 PUSH1 0x7 SSTORE DUP2 PUSH1 0x8 SSTORE DUP3 PUSH1 0x9 SSTORE DUP4 PUSH1 0xA SSTORE DUP5 PUSH1 0xB SSTORE PUSH1 0x40 MLOAD SWAP6 DUP7 MSTORE PUSH1 0x20 DUP7 ADD MSTORE PUSH1 0x40 DUP6 ADD MSTORE PUSH1 0x60 DUP5 ADD MSTORE PUSH1 0x80 DUP4 ADD MSTORE PUSH1 0xA0 DUP3 ADD MSTORE LOG1 DUP1 RETURN JUMPDEST POP CALLVALUE PUSH2 0x3C4 JUMPI DUP1 PUSH1 0x3 NOT CALLDATASIZE ADD SLT PUSH2 0x3C4 JUMPI PUSH1 0x20 PUSH1 0xA SLOAD PUSH1 0x40 MLOAD SWAP1 DUP2 MSTORE RETURN JUMPDEST POP CALLVALUE PUSH2 0x3C4 JUMPI PUSH1 0x60 CALLDATASIZE PUSH1 0x3 NOT ADD SLT PUSH2 0x3C4 JUMPI PUSH2 0x8F7 PUSH2 0x3D4A JUMP JUMPDEST PUSH2 0x8FF PUSH2 0x3D60 JUMP JUMPDEST PUSH1 0x44 CALLDATALOAD SWAP2 PUSH2 0x90B PUSH2 0x4B20 JUMP JUMPDEST DUP4 SLOAD PUSH1 0x1 PUSH1 0x1 PUSH1 0xA0 SHL SUB DUP3 DUP2 AND SWAP5 SWAP2 DUP2 AND DUP6 EQ ISZERO DUP1 PUSH2 0xA39 JUMPI JUMPDEST ISZERO PUSH2 0x9F4 JUMPI DUP4 AND ISZERO PUSH2 0x9BB JUMPI PUSH1 0x20 PUSH1 0x40 MLOAD DUP1 SWAP6 PUSH4 0xA9059CBB PUSH1 0xE0 SHL DUP3 MSTORE DUP2 DUP9 DUP2 PUSH2 0x953 DUP8 DUP11 PUSH1 0x4 DUP5 ADD PUSH2 0x3F0D JUMP JUMPDEST SUB SWAP3 GAS CALL SWAP1 DUP2 ISZERO PUSH2 0x755 JUMPI PUSH32 0x77023E19C7343AD491FD706C36335CA0E738340A91F29B1FD81E2673D44896C4 SWAP5 PUSH2 0x996 SWAP3 PUSH2 0x99C JUMPI JUMPDEST POP PUSH1 0x40 MLOAD SWAP4 DUP5 SWAP4 DUP5 PUSH2 0x3FE0 JUMP JUMPDEST SUB SWAP1 LOG1 DUP1 RETURN JUMPDEST PUSH2 0x9B4 SWAP1 PUSH1 0x20 RETURNDATASIZE PUSH1 0x20 GT PUSH2 0x6D0 JUMPI PUSH2 0x6C1 DUP2 DUP4 PUSH2 0x3E39 JUMP JUMPDEST POP CODESIZE PUSH2 0x989 JUMP JUMPDEST PUSH1 0x40 MLOAD PUSH3 0x461BCD PUSH1 0xE5 SHL DUP2 MSTORE PUSH1 0x20 PUSH1 0x4 DUP3 ADD MSTORE PUSH1 0x11 PUSH1 0x24 DUP3 ADD MSTORE PUSH17 0x125B9D985B1A59081C9958DA5C1A595B9D PUSH1 0x7A SHL PUSH1 0x44 DUP3 ADD MSTORE PUSH1 0x64 SWAP1 REVERT JUMPDEST PUSH1 0x40 MLOAD PUSH3 0x461BCD PUSH1 0xE5 SHL DUP2 MSTORE PUSH1 0x20 PUSH1 0x4 DUP3 ADD MSTORE PUSH1 0x1D PUSH1 0x24 DUP3 ADD MSTORE PUSH32 0x43616E6E6F74207265736375652070726F746F636F6C20746F6B656E73000000 PUSH1 0x44 DUP3 ADD MSTORE PUSH1 0x64 SWAP1 REVERT JUMPDEST POP DUP1 PUSH1 0x1 SLOAD AND DUP6 EQ ISZERO PUSH2 0x925 JUMP JUMPDEST POP CALLVALUE PUSH2 0x3C4 JUMPI DUP1 PUSH1 0x3 NOT CALLDATASIZE ADD SLT PUSH2 0x3C4 JUMPI PUSH1 0x20 PUSH1 0x6 SLOAD PUSH1 0x40 MLOAD SWAP1 DUP2 MSTORE RETURN JUMPDEST POP CALLVALUE PUSH2 0x3C4 JUMPI PUSH1 0xC0 CALLDATASIZE PUSH1 0x3 NOT ADD SLT PUSH2 0x3C4 JUMPI PUSH2 0xA7F PUSH2 0x3D4A JUMP JUMPDEST PUSH2 0xA87 PUSH2 0x3D60 JUMP JUMPDEST PUSH2 0xA8F PUSH2 0x3D76 JUMP JUMPDEST PUSH2 0xA97 PUSH2 0x3D8C JUMP JUMPDEST SWAP2 PUSH1 0x1 PUSH1 0x1 PUSH1 0xA0 SHL SUB PUSH1 0x84 CALLDATALOAD DUP2 DUP2 AND SWAP1 DUP2 SWAP1 SUB PUSH2 0xC73 JUMPI PUSH1 0xA4 CALLDATALOAD SWAP3 DUP3 DUP5 AND DUP1 SWAP5 SUB PUSH2 0xC73 JUMPI PUSH1 0x0 DUP1 MLOAD PUSH1 0x20 PUSH2 0x6152 DUP4 CODECOPY DUP2 MLOAD SWAP2 MSTORE SWAP6 DUP7 SLOAD PUSH1 0xFF DUP2 PUSH1 0x40 SHR AND ISZERO SWAP7 PUSH1 0x1 DUP1 PUSH1 0x40 SHL SUB DUP3 AND SWAP10 DUP11 ISZERO DUP1 PUSH2 0xC6C JUMPI JUMPDEST PUSH1 0x1 DUP1 SWAP13 EQ SWAP1 DUP2 PUSH2 0xC62 JUMPI JUMPDEST ISZERO SWAP1 DUP2 PUSH2 0xC59 JUMPI JUMPDEST POP PUSH2 0xC47 JUMPI PUSH1 0x1 PUSH1 0x1 PUSH1 0x40 SHL SUB NOT DUP4 AND DUP12 OR DUP11 SSTORE DUP7 SWAP5 DUP6 SWAP4 DUP5 SWAP3 DUP15 SWAP2 DUP13 PUSH2 0xC2C JUMPI JUMPDEST POP PUSH2 0xB28 PUSH2 0x5F1F JUMP JUMPDEST PUSH2 0xB30 PUSH2 0x5F1F JUMP JUMPDEST PUSH2 0xB39 CALLER PUSH2 0x4ABE JUMP JUMPDEST PUSH2 0xB41 PUSH2 0x5F1F JUMP JUMPDEST PUSH2 0xB49 PUSH2 0x5F1F JUMP JUMPDEST PUSH2 0xB51 PUSH2 0x5F1F JUMP JUMPDEST DUP14 PUSH1 0x0 DUP1 MLOAD PUSH1 0x20 PUSH2 0x6112 DUP4 CODECOPY DUP2 MLOAD SWAP2 MSTORE SSTORE PUSH1 0x1 DUP1 PUSH1 0xA0 SHL SUB NOT SWAP10 DUP11 SWAP2 AND SWAP2 SLOAD AND OR DUP14 SSTORE AND DUP7 DUP12 SLOAD AND OR DUP11 SSTORE AND DUP5 PUSH1 0x2 SLOAD AND OR PUSH1 0x2 SSTORE AND DUP3 PUSH1 0x3 SLOAD AND OR PUSH1 0x3 SSTORE DUP2 PUSH1 0x4 SLOAD AND OR PUSH1 0x4 SSTORE PUSH1 0x5 SLOAD AND OR PUSH1 0x5 SSTORE PUSH1 0x19 PUSH1 0x6 SSTORE PUSH1 0xF PUSH1 0x7 SSTORE PUSH1 0x5 PUSH1 0x8 SSTORE PUSH1 0x5 PUSH1 0x9 SSTORE PUSH1 0x19 PUSH1 0xA SSTORE PUSH1 0x19 PUSH1 0xB SSTORE DUP3 PUSH1 0xC SSTORE PUSH1 0x32 PUSH1 0xD SSTORE PUSH1 0x19 PUSH1 0xE SSTORE PUSH3 0x3F480 PUSH1 0x15 SSTORE PUSH2 0x101 PUSH2 0xFFFF NOT PUSH1 0x16 SLOAD AND OR PUSH1 0x16 SSTORE TIMESTAMP PUSH1 0x1B SSTORE PUSH2 0xBEF JUMPI DUP3 DUP1 RETURN JUMPDEST DUP1 SLOAD PUSH1 0xFF PUSH1 0x40 SHL NOT AND SWAP1 SSTORE PUSH1 0x40 MLOAD SWAP1 DUP2 MSTORE PUSH32 0xC7F505B2F371AE2175EE4913F4499E1F2633A7B5936321EED1CDAEB6115181D2 SWAP1 PUSH1 0x20 SWAP1 LOG1 CODESIZE DUP1 DUP3 DUP1 RETURN JUMPDEST PUSH1 0x1 PUSH1 0x1 PUSH1 0x48 SHL SUB NOT AND PUSH1 0x1 PUSH1 0x1 PUSH1 0x40 SHL ADD OR DUP14 SSTORE CODESIZE PUSH2 0xB1F JUMP JUMPDEST PUSH1 0x40 MLOAD PUSH4 0xF92EE8A9 PUSH1 0xE0 SHL DUP2 MSTORE PUSH1 0x4 SWAP1 REVERT JUMPDEST SWAP1 POP ISZERO CODESIZE PUSH2 0xAFD JUMP JUMPDEST ADDRESS EXTCODESIZE ISZERO SWAP2 POP PUSH2 0xAF5 JUMP JUMPDEST POP DUP9 PUSH2 0xAE9 JUMP JUMPDEST PUSH1 0x0 DUP1 REVERT JUMPDEST POP CALLVALUE PUSH2 0x3C4 JUMPI PUSH2 0xC87 CALLDATASIZE PUSH2 0x3EA7 JUMP JUMPDEST PUSH2 0xC92 SWAP4 SWAP2 SWAP4 PUSH2 0x4B20 JUMP JUMPDEST DUP1 DUP4 SUB PUSH2 0xCE4 JUMPI DUP5 JUMPDEST DUP4 DUP2 LT PUSH2 0xCA6 JUMPI DUP6 DUP1 RETURN JUMPDEST DUP1 PUSH2 0xCB4 PUSH1 0x1 SWAP3 DUP5 DUP9 PUSH2 0x46F2 JUMP JUMPDEST CALLDATALOAD DUP3 DUP1 PUSH1 0xA0 SHL SUB PUSH2 0xCCE PUSH2 0xCC9 DUP5 DUP10 DUP10 PUSH2 0x46F2 JUMP JUMPDEST PUSH2 0x4702 JUMP JUMPDEST AND DUP9 MSTORE PUSH1 0xF PUSH1 0x20 MSTORE PUSH1 0x7 PUSH1 0x40 DUP10 KECCAK256 ADD SSTORE ADD PUSH2 0xC9B JUMP JUMPDEST PUSH1 0x40 MLOAD PUSH4 0x980A3F31 PUSH1 0xE0 SHL DUP2 MSTORE PUSH1 0x4 SWAP1 REVERT JUMPDEST POP CALLVALUE PUSH2 0x3C4 JUMPI PUSH1 0x20 CALLDATASIZE PUSH1 0x3 NOT ADD SLT PUSH2 0x3C4 JUMPI PUSH1 0x20 SWAP1 PUSH1 0x4 CALLDATALOAD DUP2 MSTORE PUSH1 0x1C DUP3 MSTORE PUSH1 0x40 PUSH1 0x1 DUP1 PUSH1 0xA0 SHL SUB SWAP2 KECCAK256 SLOAD AND PUSH1 0x40 MLOAD SWAP1 DUP2 MSTORE RETURN JUMPDEST POP CALLVALUE PUSH2 0x3C4 JUMPI DUP1 PUSH1 0x3 NOT CALLDATASIZE ADD SLT PUSH2 0x3C4 JUMPI PUSH2 0xD42 PUSH2 0x4B59 JUMP JUMPDEST PUSH1 0xFF PUSH2 0xD55 PUSH1 0xFF PUSH1 0x16 SLOAD PUSH1 0x8 SHR AND PUSH2 0x4065 JUMP JUMPDEST CALLER DUP3 MSTORE PUSH1 0x11 SWAP2 PUSH1 0x20 PUSH1 0x11 DUP2 MSTORE PUSH1 0x40 DUP3 KECCAK256 SWAP4 DUP3 DUP4 SWAP1 DUP5 SWAP3 DUP6 JUMPDEST DUP9 SLOAD DUP2 LT ISZERO PUSH2 0xFE3 JUMPI DUP8 PUSH1 0x4 PUSH2 0xD83 DUP4 DUP13 PUSH2 0x3F28 JUMP JUMPDEST POP ADD SLOAD AND ISZERO PUSH2 0xFDB JUMPI PUSH1 0x2 PUSH2 0xD98 DUP3 DUP12 PUSH2 0x3F28 JUMP JUMPDEST POP ADD SLOAD PUSH2 0xDA5 DUP3 DUP12 PUSH2 0x3F28 JUMP JUMPDEST POP SWAP1 PUSH1 0x3 DUP1 SWAP3 ADD SLOAD SWAP1 PUSH1 0x3C SWAP2 DUP3 DUP2 MUL SWAP3 DUP2 DUP5 DIV EQ SWAP1 ISZERO OR ISZERO PUSH2 0xFC7 JUMPI DUP12 SWAP3 SWAP2 PUSH2 0xDCD SWAP2 PUSH2 0x402B JUMP JUMPDEST TIMESTAMP LT ISZERO PUSH2 0xDE1 JUMPI JUMPDEST POP POP PUSH1 0x1 SWAP1 JUMPDEST ADD PUSH2 0xD6D JUMP JUMPDEST SWAP1 SWAP6 DUP9 SWAP6 SWAP3 SWAP5 SWAP6 PUSH1 0x7 DUP4 PUSH2 0xDF5 DUP9 DUP12 PUSH2 0x3F28 JUMP JUMPDEST POP ADD SLOAD SUB PUSH2 0xF6E JUMPI POP PUSH4 0x3B9ACA00 PUSH2 0xE3A PUSH3 0xCB7356 SWAP4 JUMPDEST PUSH2 0xE26 PUSH2 0xE19 DUP10 DUP13 PUSH2 0x3F28 JUMP JUMPDEST POP SWAP6 PUSH1 0x1 DUP1 SWAP8 ADD SLOAD PUSH2 0x4002 JUMP JUMPDEST SWAP1 PUSH2 0xE31 DUP10 DUP13 PUSH2 0x3F28 JUMP JUMPDEST POP ADD SLOAD SWAP1 PUSH2 0x4002 JUMP JUMPDEST DIV SWAP1 DUP10 SWAP2 PUSH2 0xE48 DUP8 DUP11 PUSH2 0x3F28 JUMP JUMPDEST POP DUP8 PUSH1 0x5 SWAP11 DUP12 DUP1 SWAP4 ADD SLOAD DUP5 GT PUSH2 0xF46 JUMPI JUMPDEST POP POP POP POP DUP2 PUSH2 0xE67 SWAP2 PUSH2 0x402B JUMP JUMPDEST SWAP7 PUSH2 0xE72 DUP7 DUP14 PUSH2 0x3F28 JUMP JUMPDEST POP ADD SWAP1 DUP2 SLOAD SWAP1 PUSH2 0xE81 SWAP2 PUSH2 0x402B JUMP JUMPDEST SWAP1 SSTORE CALLER DUP9 MSTORE PUSH1 0xF DUP8 MSTORE PUSH1 0x40 DUP9 KECCAK256 PUSH1 0x9 ADD SLOAD SWAP2 DUP11 DUP3 DUP11 DUP8 DUP12 DUP8 ISZERO PUSH1 0x1 SWAP9 PUSH2 0xEE9 SWAP9 PUSH2 0xEC4 SWAP6 PUSH1 0x64 SWAP5 PUSH2 0xEBD SWAP5 PUSH2 0xF30 JUMPI JUMPDEST POP POP POP PUSH1 0xC SLOAD SWAP1 PUSH2 0x4002 JUMP JUMPDEST DIV SWAP4 PUSH2 0x3F28 JUMP JUMPDEST POP ADD SLOAD DUP2 DUP2 GT ISZERO PUSH2 0xF1D JUMPI SWAP1 PUSH2 0xEDD DUP2 PUSH2 0xEE3 SWAP4 PUSH2 0x4058 JUMP JUMPDEST SWAP3 PUSH2 0x402B JUMP JUMPDEST SWAP6 PUSH2 0x402B JUMP JUMPDEST SWAP3 PUSH1 0x4 PUSH2 0xEF6 DUP3 DUP13 PUSH2 0x3F28 JUMP JUMPDEST POP ADD DUP1 SLOAD PUSH1 0xFF NOT AND SWAP1 SSTORE PUSH2 0xF14 PUSH2 0xF0D DUP3 DUP13 PUSH2 0x3F28 JUMP JUMPDEST POP SLOAD PUSH2 0x4EE5 JUMP JUMPDEST SWAP1 POP DUP9 CODESIZE PUSH2 0xDD5 JUMP JUMPDEST SWAP1 POP PUSH2 0xF28 SWAP2 PUSH2 0x402B JUMP JUMPDEST SWAP5 DUP9 SWAP1 PUSH2 0x402B JUMP JUMPDEST PUSH1 0x40 SWAP3 SWAP4 POP PUSH1 0x10 SWAP1 MSTORE KECCAK256 ADD SLOAD DUP16 DUP16 SWAP1 DUP8 SWAP2 PUSH2 0xEB1 JUMP JUMPDEST PUSH2 0xE67 SWAP5 SWAP6 POP PUSH2 0xF64 SWAP4 SWAP3 SWAP2 PUSH2 0xF5B SWAP2 PUSH2 0x3F28 JUMP JUMPDEST POP ADD SLOAD SWAP1 PUSH2 0x4058 JUMP JUMPDEST SWAP2 SWAP1 DUP9 DUP8 DUP15 PUSH2 0xE59 JUMP JUMPDEST PUSH1 0xF DUP4 PUSH2 0xF7B DUP9 DUP12 PUSH2 0x3F28 JUMP JUMPDEST POP ADD SLOAD SUB PUSH2 0xF96 JUMPI POP PUSH4 0x3B9ACA00 PUSH2 0xE3A PUSH3 0xFE502B SWAP4 PUSH2 0xE0C JUMP JUMPDEST SWAP2 PUSH1 0x1E DUP2 PUSH2 0xFA4 DUP9 DUP12 PUSH2 0x3F28 JUMP JUMPDEST POP ADD SLOAD EQ PUSH2 0xFBB JUMPI JUMPDEST PUSH2 0xE3A PUSH4 0x3B9ACA00 SWAP2 PUSH2 0xE0C JUMP JUMPDEST PUSH4 0x1312D00 SWAP3 POP PUSH2 0xFAD JUMP JUMPDEST PUSH4 0x4E487B71 PUSH1 0xE0 SHL DUP11 MSTORE PUSH1 0x4 DUP6 SWAP1 MSTORE PUSH1 0x24 DUP11 REVERT JUMPDEST PUSH1 0x1 SWAP1 PUSH2 0xDDB JUMP JUMPDEST POP POP SWAP1 SWAP3 SWAP2 DUP2 ISZERO SWAP1 DUP2 ISZERO DUP1 SWAP3 PUSH2 0x1419 JUMPI JUMPDEST ISZERO PUSH2 0x13E0 JUMPI DUP5 PUSH2 0x13CC JUMPI JUMPDEST DUP1 PUSH2 0x10D8 JUMPI JUMPDEST POP PUSH2 0x1071 JUMPI JUMPDEST PUSH1 0xF SWAP3 PUSH1 0x40 MLOAD SWAP2 DUP3 MSTORE DUP3 DUP3 ADD MSTORE PUSH1 0x0 DUP1 MLOAD PUSH1 0x20 PUSH2 0x6132 DUP4 CODECOPY DUP2 MLOAD SWAP2 MSTORE PUSH1 0x40 CALLER SWAP3 LOG2 PUSH2 0x1035 CALLER PUSH2 0x5079 JUMP JUMPDEST CALLER DUP4 MSTORE MSTORE PUSH1 0x40 DUP2 KECCAK256 PUSH1 0x4 PUSH1 0x3 DUP3 ADD SLOAD SWAP2 ADD SLOAD GT ISZERO PUSH2 0x1063 JUMPI JUMPDEST PUSH1 0x1 PUSH1 0x0 DUP1 MLOAD PUSH1 0x20 PUSH2 0x6112 DUP4 CODECOPY DUP2 MLOAD SWAP2 MSTORE SSTORE DUP1 RETURN JUMPDEST PUSH2 0x106C CALLER PUSH2 0x512A JUMP JUMPDEST PUSH2 0x104E JUMP JUMPDEST DUP4 SLOAD PUSH1 0x40 MLOAD PUSH4 0xA9059CBB PUSH1 0xE0 SHL DUP2 MSTORE SWAP4 SWAP1 DUP4 SWAP1 DUP6 SWAP1 PUSH1 0x1 PUSH1 0x1 PUSH1 0xA0 SHL SUB AND DUP2 DUP9 DUP2 PUSH2 0x10A0 DUP9 CALLER PUSH1 0x4 DUP5 ADD PUSH2 0x3F0D JUMP JUMPDEST SUB SWAP3 GAS CALL SWAP4 DUP5 ISZERO PUSH2 0x755 JUMPI PUSH1 0xF SWAP5 PUSH2 0x10BB JUMPI JUMPDEST POP SWAP3 POP PUSH2 0x100B JUMP JUMPDEST PUSH2 0x10D1 SWAP1 DUP5 RETURNDATASIZE DUP7 GT PUSH2 0x6D0 JUMPI PUSH2 0x6C1 DUP2 DUP4 PUSH2 0x3E39 JUMP JUMPDEST POP DUP6 PUSH2 0x10B3 JUMP JUMPDEST CALLER DUP7 MSTORE PUSH1 0xF DUP5 MSTORE PUSH2 0x10F6 PUSH1 0x40 DUP8 KECCAK256 PUSH1 0x3 PUSH1 0x4 DUP3 ADD SLOAD SWAP2 ADD SLOAD SWAP1 PUSH2 0x4058 JUMP JUMPDEST DUP1 DUP3 GT PUSH2 0x13A6 JUMPI JUMPDEST POP DUP1 ISZERO PUSH2 0x1005 JUMPI CALLER DUP7 MSTORE PUSH1 0xF DUP5 MSTORE PUSH1 0x3 PUSH1 0x40 DUP8 KECCAK256 ADD PUSH2 0x111E DUP3 DUP3 SLOAD PUSH2 0x402B JUMP JUMPDEST SWAP1 SSTORE DUP6 SLOAD PUSH1 0x40 MLOAD PUSH4 0x70A08231 PUSH1 0xE0 SHL DUP1 DUP3 MSTORE ADDRESS PUSH1 0x4 DUP4 ADD MSTORE DUP9 SWAP4 SWAP1 SWAP3 PUSH1 0x1 PUSH1 0x1 PUSH1 0xA0 SHL SUB SWAP3 PUSH1 0x1 DUP4 SWAP1 SHR SWAP2 DUP5 AND SWAP1 DUP10 DUP2 PUSH1 0x24 DUP2 DUP6 GAS STATICCALL DUP1 ISZERO PUSH2 0x139B JUMPI DUP4 SWAP2 DUP14 SWAP2 PUSH2 0x136A JUMPI JUMPDEST POP LT ISZERO DUP1 PUSH2 0x1361 JUMPI JUMPDEST PUSH2 0x12FD JUMPI JUMPDEST POP PUSH2 0x117A PUSH2 0x45FB JUMP JUMPDEST SWAP1 PUSH8 0xDE0B6B3A7640000 SWAP1 DUP2 DUP2 MUL SWAP2 DUP2 DUP4 DIV EQ SWAP1 ISZERO OR ISZERO PUSH2 0x12E9 JUMPI SWAP1 PUSH2 0x119F SWAP2 PUSH2 0x4038 JUMP JUMPDEST DUP10 SWAP3 PUSH1 0x1 SLOAD AND SWAP4 PUSH1 0x40 MLOAD SWAP1 DUP2 MSTORE ADDRESS PUSH1 0x4 DUP3 ADD MSTORE DUP9 DUP2 PUSH1 0x24 DUP2 DUP9 GAS STATICCALL DUP1 ISZERO PUSH2 0x12DE JUMPI DUP3 SWAP2 DUP13 SWAP2 PUSH2 0x12AD JUMPI JUMPDEST POP LT ISZERO DUP1 PUSH2 0x12A4 JUMPI JUMPDEST PUSH2 0x1230 JUMPI JUMPDEST POP PUSH1 0x0 DUP1 MLOAD PUSH1 0x20 PUSH2 0x5FF2 DUP4 CODECOPY DUP2 MLOAD SWAP2 MSTORE SWAP3 POP PUSH1 0x40 MLOAD SWAP1 DUP2 MSTORE PUSH1 0x0 DUP8 DUP3 ADD MSTORE PUSH1 0x0 DUP1 MLOAD PUSH1 0x20 PUSH2 0x60F2 DUP4 CODECOPY DUP2 MLOAD SWAP2 MSTORE PUSH1 0x40 CALLER SWAP3 LOG2 CALLER DUP9 MSTORE PUSH1 0x10 DUP7 MSTORE PUSH1 0x40 DUP9 KECCAK256 SLOAD SWAP1 PUSH2 0x1227 PUSH1 0x40 MLOAD SWAP3 DUP4 SWAP3 CALLER SWAP7 DUP5 PUSH2 0x40CC JUMP JUMPDEST SUB SWAP1 LOG2 DUP6 PUSH2 0x1005 JUMP JUMPDEST SWAP1 SWAP2 POP DUP7 PUSH1 0x40 MLOAD DUP1 SWAP5 PUSH4 0xA9059CBB PUSH1 0xE0 SHL DUP3 MSTORE DUP2 DUP13 DUP2 PUSH2 0x1254 DUP8 CALLER PUSH1 0x4 DUP5 ADD PUSH2 0x3F0D JUMP JUMPDEST SUB SWAP3 GAS CALL SWAP3 DUP4 ISZERO PUSH2 0x1299 JUMPI PUSH1 0x0 DUP1 MLOAD PUSH1 0x20 PUSH2 0x5FF2 DUP4 CODECOPY DUP2 MLOAD SWAP2 MSTORE SWAP4 PUSH2 0x127C JUMPI JUMPDEST POP SWAP1 DUP10 PUSH2 0x11D7 JUMP JUMPDEST PUSH2 0x1292 SWAP1 DUP9 RETURNDATASIZE DUP11 GT PUSH2 0x6D0 JUMPI PUSH2 0x6C1 DUP2 DUP4 PUSH2 0x3E39 JUMP JUMPDEST POP DUP10 PUSH2 0x1274 JUMP JUMPDEST PUSH1 0x40 MLOAD RETURNDATASIZE DUP12 DUP3 RETURNDATACOPY RETURNDATASIZE SWAP1 REVERT JUMPDEST POP DUP1 ISZERO ISZERO PUSH2 0x11D2 JUMP JUMPDEST DUP1 SWAP3 POP DUP11 DUP1 SWAP3 POP RETURNDATASIZE DUP4 GT PUSH2 0x12D7 JUMPI JUMPDEST PUSH2 0x12C6 DUP2 DUP4 PUSH2 0x3E39 JUMP JUMPDEST DUP2 ADD SUB SLT PUSH2 0xC73 JUMPI DUP2 SWAP1 MLOAD DUP13 PUSH2 0x11C9 JUMP JUMPDEST POP RETURNDATASIZE PUSH2 0x12BC JUMP JUMPDEST PUSH1 0x40 MLOAD RETURNDATASIZE DUP14 DUP3 RETURNDATACOPY RETURNDATASIZE SWAP1 REVERT JUMPDEST PUSH4 0x4E487B71 PUSH1 0xE0 SHL DUP12 MSTORE PUSH1 0x11 PUSH1 0x4 MSTORE PUSH1 0x24 DUP12 REVERT JUMPDEST PUSH1 0x40 MLOAD PUSH4 0xA9059CBB PUSH1 0xE0 SHL DUP2 MSTORE SWAP2 SWAP6 POP DUP9 SWAP1 DUP3 SWAP1 DUP2 DUP14 DUP2 PUSH2 0x1322 DUP12 CALLER PUSH1 0x4 DUP5 ADD PUSH2 0x3F0D JUMP JUMPDEST SUB SWAP3 GAS CALL DUP1 ISZERO PUSH2 0x1356 JUMPI PUSH2 0x1339 JUMPI JUMPDEST POP DUP4 DUP11 PUSH2 0x1171 JUMP JUMPDEST PUSH2 0x134F SWAP1 DUP9 RETURNDATASIZE DUP11 GT PUSH2 0x6D0 JUMPI PUSH2 0x6C1 DUP2 DUP4 PUSH2 0x3E39 JUMP JUMPDEST POP DUP10 PUSH2 0x1331 JUMP JUMPDEST PUSH1 0x40 MLOAD RETURNDATASIZE DUP13 DUP3 RETURNDATACOPY RETURNDATASIZE SWAP1 REVERT JUMPDEST POP DUP2 ISZERO ISZERO PUSH2 0x116C JUMP JUMPDEST DUP1 SWAP3 POP DUP12 DUP1 SWAP3 POP RETURNDATASIZE DUP4 GT PUSH2 0x1394 JUMPI JUMPDEST PUSH2 0x1383 DUP2 DUP4 PUSH2 0x3E39 JUMP JUMPDEST DUP2 ADD SUB SLT PUSH2 0xC73 JUMPI DUP3 SWAP1 MLOAD DUP14 PUSH2 0x1163 JUMP JUMPDEST POP RETURNDATASIZE PUSH2 0x1379 JUMP JUMPDEST PUSH1 0x40 MLOAD RETURNDATASIZE DUP15 DUP3 RETURNDATACOPY RETURNDATASIZE SWAP1 REVERT JUMPDEST SWAP1 PUSH1 0x40 MLOAD SWAP1 DUP2 MSTORE DUP2 DUP6 DUP3 ADD MSTORE PUSH1 0x0 DUP1 MLOAD PUSH1 0x20 PUSH2 0x6072 DUP4 CODECOPY DUP2 MLOAD SWAP2 MSTORE PUSH1 0x40 CALLER SWAP3 LOG2 DUP7 PUSH2 0x10FE JUMP JUMPDEST PUSH2 0x13D8 DUP6 PUSH1 0x17 SLOAD PUSH2 0x402B JUMP JUMPDEST PUSH1 0x17 SSTORE PUSH2 0xFFF JUMP JUMPDEST PUSH1 0x40 MLOAD PUSH3 0x461BCD PUSH1 0xE5 SHL DUP2 MSTORE PUSH1 0x4 DUP2 ADD DUP6 SWAP1 MSTORE PUSH1 0x11 PUSH1 0x24 DUP3 ADD MSTORE PUSH17 0x4E6F7468696E6720746F2072656465656D PUSH1 0x78 SHL PUSH1 0x44 DUP3 ADD MSTORE PUSH1 0x64 SWAP1 REVERT JUMPDEST POP DUP1 ISZERO ISZERO PUSH2 0xFF4 JUMP JUMPDEST POP CALLVALUE PUSH2 0x3C4 JUMPI DUP1 PUSH1 0x3 NOT CALLDATASIZE ADD SLT PUSH2 0x3C4 JUMPI PUSH1 0x20 PUSH1 0x7 SLOAD PUSH1 0x40 MLOAD SWAP1 DUP2 MSTORE RETURN JUMPDEST POP CALLVALUE PUSH2 0x3C4 JUMPI DUP1 PUSH1 0x3 NOT CALLDATASIZE ADD SLT PUSH2 0x3C4 JUMPI PUSH1 0x20 PUSH1 0x1F SLOAD PUSH1 0x40 MLOAD SWAP1 DUP2 MSTORE RETURN JUMPDEST POP CALLVALUE PUSH2 0x3C4 JUMPI PUSH1 0x40 CALLDATASIZE PUSH1 0x3 NOT ADD SLT PUSH2 0x3C4 JUMPI PUSH2 0x1478 PUSH2 0x3D4A JUMP JUMPDEST PUSH1 0x1 PUSH1 0x1 PUSH1 0xA0 SHL SUB AND DUP2 MSTORE PUSH1 0x11 PUSH1 0x20 MSTORE PUSH1 0x40 DUP2 KECCAK256 DUP1 SLOAD PUSH1 0x24 CALLDATALOAD SWAP3 SWAP1 DUP4 LT ISZERO PUSH2 0x3C4 JUMPI PUSH1 0xC0 PUSH2 0x14A6 DUP5 DUP5 PUSH2 0x3F28 JUMP JUMPDEST POP DUP1 SLOAD SWAP1 PUSH1 0x1 DUP2 ADD SLOAD SWAP1 PUSH1 0x2 DUP2 ADD SLOAD PUSH1 0x3 DUP3 ADD SLOAD SWAP1 PUSH1 0x5 PUSH1 0xFF PUSH1 0x4 DUP6 ADD SLOAD AND SWAP4 ADD SLOAD SWAP4 PUSH1 0x40 MLOAD SWAP6 DUP7 MSTORE PUSH1 0x20 DUP7 ADD MSTORE PUSH1 0x40 DUP6 ADD MSTORE PUSH1 0x60 DUP5 ADD MSTORE ISZERO ISZERO PUSH1 0x80 DUP4 ADD MSTORE PUSH1 0xA0 DUP3 ADD MSTORE RETURN JUMPDEST POP CALLVALUE PUSH2 0x3C4 JUMPI DUP1 PUSH1 0x3 NOT CALLDATASIZE ADD SLT PUSH2 0x3C4 JUMPI PUSH1 0x20 PUSH1 0xFF PUSH1 0x16 SLOAD AND PUSH1 0x40 MLOAD SWAP1 ISZERO ISZERO DUP2 MSTORE RETURN JUMPDEST POP CALLVALUE PUSH2 0x3C4 JUMPI DUP1 PUSH1 0x3 NOT CALLDATASIZE ADD SLT PUSH2 0x3C4 JUMPI PUSH1 0x40 DUP1 MLOAD SWAP1 DUP2 ADD PUSH1 0x1 PUSH1 0x1 PUSH1 0x40 SHL SUB DUP2 GT DUP3 DUP3 LT OR PUSH2 0x159E JUMPI PUSH1 0x40 MSTORE PUSH1 0x5 DUP2 MSTORE PUSH1 0x20 SWAP2 PUSH5 0x352E302E3 PUSH1 0xDC SHL PUSH1 0x20 DUP4 ADD MSTORE PUSH1 0x40 MLOAD SWAP3 DUP4 SWAP2 PUSH1 0x20 DUP4 MSTORE DUP4 MLOAD SWAP2 DUP3 PUSH1 0x20 DUP6 ADD MSTORE DUP2 JUMPDEST DUP4 DUP2 LT PUSH2 0x1587 JUMPI POP POP PUSH1 0x40 DUP1 SWAP5 POP DUP3 DUP5 ADD ADD MSTORE PUSH1 0x1F DUP1 NOT SWAP2 ADD AND DUP2 ADD SUB ADD SWAP1 RETURN JUMPDEST DUP1 DUP7 ADD DUP3 ADD MLOAD DUP8 DUP3 ADD PUSH1 0x40 ADD MSTORE DUP7 SWAP5 POP DUP2 ADD PUSH2 0x1566 JUMP JUMPDEST PUSH4 0x4E487B71 PUSH1 0xE0 SHL PUSH1 0x0 MSTORE PUSH1 0x41 PUSH1 0x4 MSTORE PUSH1 0x24 PUSH1 0x0 REVERT JUMPDEST POP CALLVALUE PUSH2 0x3C4 JUMPI PUSH2 0x15C3 CALLDATASIZE PUSH2 0x3E10 JUMP JUMPDEST SWAP1 DUP3 MSTORE PUSH1 0x1D PUSH1 0x20 MSTORE PUSH1 0x40 DUP3 KECCAK256 DUP1 SLOAD DUP3 LT ISZERO PUSH2 0x1608 JUMPI PUSH2 0x15E2 SWAP3 POP PUSH2 0x3EF1 JUMP JUMPDEST POP DUP1 SLOAD PUSH1 0x1 SWAP1 SWAP2 ADD SLOAD PUSH1 0x40 MLOAD SWAP2 DUP3 SWAP2 PUSH2 0x1604 SWAP2 PUSH1 0x1 PUSH1 0x1 PUSH1 0xA0 SHL SUB AND DUP4 PUSH2 0x3F0D JUMP JUMPDEST SUB SWAP1 RETURN JUMPDEST DUP3 DUP1 REVERT JUMPDEST POP CALLVALUE PUSH2 0x3C4 JUMPI PUSH1 0x40 CALLDATASIZE PUSH1 0x3 NOT ADD SLT PUSH2 0x3C4 JUMPI PUSH2 0x3C1 PUSH2 0x1629 PUSH2 0x3D4A JUMP JUMPDEST PUSH2 0x1631 PUSH2 0x3D60 JUMP JUMPDEST SWAP1 PUSH2 0x163A PUSH2 0x4B20 JUMP JUMPDEST PUSH2 0x4754 JUMP JUMPDEST POP CALLVALUE PUSH2 0x3C4 JUMPI PUSH1 0x20 CALLDATASIZE PUSH1 0x3 NOT ADD SLT PUSH2 0x3C4 JUMPI PUSH32 0xD28D9E4CE68D89AF7920CB8618E342A78F51E545C530CE60F1CB1D6F0235B47F PUSH1 0x20 PUSH1 0x4 CALLDATALOAD PUSH2 0x167F PUSH2 0x4B20 JUMP JUMPDEST DUP1 PUSH1 0x15 SSTORE PUSH1 0x40 MLOAD SWAP1 DUP2 MSTORE LOG1 DUP1 RETURN JUMPDEST POP CALLVALUE PUSH2 0x3C4 JUMPI PUSH2 0x169C CALLDATASIZE PUSH2 0x3E10 JUMP JUMPDEST PUSH2 0x16A4 PUSH2 0x4B20 JUMP JUMPDEST DUP2 PUSH2 0x175E JUMPI JUMPDEST DUP1 PUSH2 0x16D1 JUMPI JUMPDEST PUSH1 0x0 DUP1 MLOAD PUSH1 0x20 PUSH2 0x5FD2 DUP4 CODECOPY DUP2 MLOAD SWAP2 MSTORE SWAP2 PUSH1 0x40 SWAP2 DUP3 MLOAD SWAP2 DUP3 MSTORE PUSH1 0x20 DUP3 ADD MSTORE LOG1 DUP1 RETURN JUMPDEST PUSH1 0x1 SLOAD PUSH1 0x40 MLOAD PUSH4 0x23B872DD PUSH1 0xE0 SHL DUP2 MSTORE SWAP3 SWAP1 PUSH1 0x20 SWAP1 DUP5 SWAP1 PUSH1 0x1 PUSH1 0x1 PUSH1 0xA0 SHL SUB AND DUP2 DUP8 DUP2 PUSH2 0x1703 DUP9 ADDRESS CALLER PUSH1 0x4 DUP6 ADD PUSH2 0x3FE0 JUMP JUMPDEST SUB SWAP3 GAS CALL SWAP2 DUP3 ISZERO PUSH2 0x6D7 JUMPI PUSH1 0x0 DUP1 MLOAD PUSH1 0x20 PUSH2 0x5FD2 DUP4 CODECOPY DUP2 MLOAD SWAP2 MSTORE SWAP4 PUSH1 0x40 SWAP4 PUSH2 0x173F JUMPI JUMPDEST POP PUSH2 0x1733 DUP2 PUSH1 0x18 SLOAD PUSH2 0x402B JUMP JUMPDEST PUSH1 0x18 SSTORE SWAP2 POP SWAP2 POP PUSH2 0x16B0 JUMP JUMPDEST PUSH2 0x1757 SWAP1 PUSH1 0x20 RETURNDATASIZE PUSH1 0x20 GT PUSH2 0x6D0 JUMPI PUSH2 0x6C1 DUP2 DUP4 PUSH2 0x3E39 JUMP JUMPDEST POP CODESIZE PUSH2 0x1726 JUMP JUMPDEST DUP3 SLOAD PUSH1 0x40 MLOAD PUSH4 0x23B872DD PUSH1 0xE0 SHL DUP2 MSTORE SWAP1 PUSH1 0x20 SWAP1 DUP3 SWAP1 PUSH1 0x1 PUSH1 0x1 PUSH1 0xA0 SHL SUB AND DUP2 DUP8 DUP2 PUSH2 0x178E DUP10 ADDRESS CALLER PUSH1 0x4 DUP6 ADD PUSH2 0x3FE0 JUMP JUMPDEST SUB SWAP3 GAS CALL DUP1 ISZERO PUSH2 0x6D7 JUMPI PUSH2 0x17B2 JUMPI JUMPDEST POP PUSH2 0x17AA DUP3 PUSH1 0x17 SLOAD PUSH2 0x402B JUMP JUMPDEST PUSH1 0x17 SSTORE PUSH2 0x16AA JUMP JUMPDEST PUSH2 0x17CA SWAP1 PUSH1 0x20 RETURNDATASIZE PUSH1 0x20 GT PUSH2 0x6D0 JUMPI PUSH2 0x6C1 DUP2 DUP4 PUSH2 0x3E39 JUMP JUMPDEST POP CODESIZE PUSH2 0x179D JUMP JUMPDEST POP CALLVALUE PUSH2 0x3C4 JUMPI PUSH2 0x120 CALLDATASIZE PUSH1 0x3 NOT ADD SLT PUSH2 0x3C4 JUMPI PUSH2 0x17EC PUSH2 0x3D4A JUMP JUMPDEST PUSH2 0x17F4 PUSH2 0x3D3B JUMP JUMPDEST PUSH1 0x64 CALLDATALOAD SWAP2 PUSH1 0x44 CALLDATALOAD DUP4 ISZERO ISZERO DUP5 SUB PUSH2 0xC73 JUMPI PUSH1 0xA4 CALLDATALOAD PUSH1 0x84 CALLDATALOAD DUP2 ISZERO ISZERO DUP3 SUB PUSH2 0xC73 JUMPI PUSH1 0xC4 CALLDATALOAD SWAP1 PUSH1 0xE4 CALLDATALOAD SWAP5 DUP6 ISZERO ISZERO DUP7 SUB PUSH2 0xC73 JUMPI PUSH32 0x8FB1F6E3F39354FC80C1DEFC040C6D354638B0C8E5F9C63CD0292EF9842197E9 SWAP7 PUSH1 0x80 SWAP7 PUSH2 0x104 CALLDATALOAD SWAP6 DUP7 SWAP4 PUSH2 0x1858 PUSH2 0x4B20 JUMP JUMPDEST PUSH1 0x1 PUSH1 0x1 PUSH1 0xA0 SHL SUB AND SWAP11 PUSH2 0x186D DUP13 ISZERO ISZERO PUSH2 0x4716 JUMP JUMPDEST DUP12 DUP14 MSTORE PUSH1 0xF PUSH1 0x20 MSTORE PUSH1 0x40 DUP14 KECCAK256 SWAP4 PUSH2 0x18CA JUMPI JUMPDEST PUSH2 0x18BF JUMPI JUMPDEST PUSH2 0x18B4 JUMPI JUMPDEST PUSH2 0x18A9 JUMPI JUMPDEST POP POP PUSH1 0x40 MLOAD SWAP4 DUP5 MSTORE PUSH1 0x20 DUP5 ADD MSTORE PUSH1 0x40 DUP4 ADD MSTORE PUSH1 0x60 DUP3 ADD MSTORE LOG2 DUP1 RETURN JUMPDEST PUSH1 0x6 ADD SSTORE DUP3 CODESIZE PUSH2 0x188E JUMP JUMPDEST DUP5 PUSH1 0x4 DUP4 ADD SSTORE PUSH2 0x1889 JUMP JUMPDEST DUP5 PUSH1 0x3 DUP5 ADD SSTORE PUSH2 0x1884 JUMP JUMPDEST DUP9 PUSH1 0x1 DUP6 ADD SSTORE PUSH2 0x187F JUMP JUMPDEST POP CALLVALUE PUSH2 0x3C4 JUMPI PUSH1 0x40 CALLDATASIZE PUSH1 0x3 NOT ADD SLT PUSH2 0x3C4 JUMPI PUSH2 0x18EF PUSH2 0x3D4A JUMP JUMPDEST PUSH1 0x24 CALLDATALOAD SWAP1 PUSH2 0x18FB PUSH2 0x4B20 JUMP JUMPDEST PUSH2 0x1907 DUP3 PUSH1 0x1F SLOAD PUSH2 0x4058 JUMP JUMPDEST PUSH1 0x1F SSTORE DUP3 SLOAD PUSH1 0x40 MLOAD PUSH4 0xA9059CBB PUSH1 0xE0 SHL DUP2 MSTORE SWAP2 SWAP1 PUSH1 0x1 PUSH1 0x1 PUSH1 0xA0 SHL SUB SWAP1 PUSH1 0x20 SWAP1 DUP5 SWAP1 DUP4 AND DUP2 DUP9 DUP2 PUSH2 0x193C DUP11 DUP10 PUSH1 0x4 DUP5 ADD PUSH2 0x3F0D JUMP JUMPDEST SUB SWAP3 GAS CALL SWAP2 DUP3 ISZERO PUSH2 0x755 JUMPI PUSH32 0x27971EE1ACBFBDFB20656657CEB2E0E7B519B9E60FE1A6B1F6D27B159F4A607C SWAP4 PUSH1 0x20 SWAP4 PUSH2 0x197E JUMPI JUMPDEST POP PUSH1 0x40 MLOAD SWAP5 DUP6 MSTORE AND SWAP3 LOG2 DUP1 RETURN JUMPDEST PUSH2 0x1994 SWAP1 DUP5 RETURNDATASIZE DUP7 GT PUSH2 0x6D0 JUMPI PUSH2 0x6C1 DUP2 DUP4 PUSH2 0x3E39 JUMP JUMPDEST POP CODESIZE PUSH2 0x1971 JUMP JUMPDEST POP CALLVALUE PUSH2 0x3C4 JUMPI DUP1 PUSH1 0x3 NOT CALLDATASIZE ADD SLT PUSH2 0x3C4 JUMPI SLOAD PUSH1 0x40 MLOAD PUSH1 0x1 PUSH1 0x1 PUSH1 0xA0 SHL SUB SWAP1 SWAP2 AND DUP2 MSTORE PUSH1 0x20 SWAP1 RETURN JUMPDEST POP CALLVALUE PUSH2 0x3C4 JUMPI DUP1 PUSH1 0x3 NOT CALLDATASIZE ADD SLT PUSH2 0x3C4 JUMPI PUSH1 0x20 PUSH1 0xE SLOAD PUSH1 0x40 MLOAD SWAP1 DUP2 MSTORE RETURN JUMPDEST POP CALLVALUE PUSH2 0x3C4 JUMPI PUSH32 0x4E9DD03193A0C81552FB8E6D32280F0D7E0CE8087241DC3D17EF3D193EE231D7 PUSH1 0x40 PUSH2 0x1A12 CALLDATASIZE PUSH2 0x3E10 JUMP JUMPDEST PUSH2 0x1A1A PUSH2 0x4B20 JUMP JUMPDEST DUP2 PUSH1 0xD SSTORE DUP1 PUSH1 0xE SSTORE DUP3 MLOAD SWAP2 DUP3 MSTORE PUSH1 0x20 DUP3 ADD MSTORE LOG1 DUP1 RETURN JUMPDEST POP CALLVALUE PUSH2 0x3C4 JUMPI DUP1 PUSH1 0x3 NOT CALLDATASIZE ADD SLT PUSH2 0x3C4 JUMPI PUSH1 0x0 DUP1 MLOAD PUSH1 0x20 PUSH2 0x6012 DUP4 CODECOPY DUP2 MLOAD SWAP2 MSTORE SLOAD PUSH1 0x40 MLOAD PUSH1 0x1 PUSH1 0x1 PUSH1 0xA0 SHL SUB SWAP1 SWAP2 AND DUP2 MSTORE PUSH1 0x20 SWAP1 RETURN JUMPDEST POP CALLVALUE PUSH2 0x3C4 JUMPI DUP1 PUSH1 0x3 NOT CALLDATASIZE ADD SLT PUSH2 0x3C4 JUMPI PUSH1 0x20 PUSH1 0x40 MLOAD PUSH1 0x3 DUP2 MSTORE RETURN JUMPDEST POP CALLVALUE PUSH2 0x3C4 JUMPI DUP1 PUSH1 0x3 NOT CALLDATASIZE ADD SLT PUSH2 0x3C4 JUMPI PUSH1 0x20 PUSH1 0x40 MLOAD PUSH1 0x1 DUP2 MSTORE RETURN JUMPDEST POP CALLVALUE PUSH2 0x3C4 JUMPI DUP1 PUSH1 0x3 NOT CALLDATASIZE ADD SLT PUSH2 0x3C4 JUMPI PUSH1 0x4 SLOAD PUSH1 0x40 MLOAD PUSH1 0x1 PUSH1 0x1 PUSH1 0xA0 SHL SUB SWAP1 SWAP2 AND DUP2 MSTORE PUSH1 0x20 SWAP1 RETURN JUMPDEST POP CALLVALUE PUSH2 0x3C4 JUMPI DUP1 PUSH1 0x3 NOT CALLDATASIZE ADD SLT PUSH2 0x3C4 JUMPI PUSH1 0x20 PUSH1 0x40 MLOAD PUSH1 0x4 DUP2 MSTORE RETURN JUMPDEST POP CALLVALUE PUSH2 0x3C4 JUMPI PUSH1 0x20 CALLDATASIZE PUSH1 0x3 NOT ADD SLT PUSH2 0x3C4 JUMPI PUSH1 0x80 SWAP1 PUSH1 0x40 SWAP1 PUSH1 0x1 PUSH1 0x1 PUSH1 0xA0 SHL SUB PUSH2 0x1B0B PUSH2 0x3D4A JUMP JUMPDEST AND DUP2 MSTORE PUSH1 0x10 PUSH1 0x20 MSTORE KECCAK256 DUP1 SLOAD SWAP1 PUSH1 0x1 DUP2 ADD SLOAD SWAP1 PUSH1 0xFF PUSH1 0x3 PUSH1 0x2 DUP4 ADD SLOAD SWAP3 ADD SLOAD AND SWAP2 PUSH1 0x40 MLOAD SWAP4 DUP5 MSTORE PUSH1 0x20 DUP5 ADD MSTORE PUSH1 0x40 DUP4 ADD MSTORE ISZERO ISZERO PUSH1 0x60 DUP3 ADD MSTORE RETURN JUMPDEST PUSH2 0x3DE6 JUMP JUMPDEST POP CALLVALUE PUSH2 0x3C4 JUMPI PUSH1 0x80 CALLDATASIZE PUSH1 0x3 NOT ADD SLT PUSH2 0x3C4 JUMPI PUSH32 0x213F1DE8063C19612A553F1480FF341BEA689D36A56A2089F1B9060D599B5D83 PUSH1 0x80 PUSH2 0x1B86 PUSH2 0x3D4A JUMP JUMPDEST PUSH2 0x1B8E PUSH2 0x3D60 JUMP JUMPDEST PUSH2 0x1B96 PUSH2 0x3D76 JUMP JUMPDEST PUSH2 0x1B9E PUSH2 0x3D8C JUMP JUMPDEST SWAP1 PUSH2 0x1BA7 PUSH2 0x4B20 JUMP JUMPDEST PUSH1 0x1 PUSH1 0x1 PUSH1 0xA0 SHL SUB SWAP4 DUP5 AND SWAP4 DUP5 ISZERO ISZERO DUP1 PUSH2 0x1C38 JUMPI JUMPDEST DUP1 PUSH2 0x1C2D JUMPI JUMPDEST DUP1 PUSH2 0x1C22 JUMPI JUMPDEST PUSH2 0x1BD1 SWAP1 PUSH2 0x4716 JUMP JUMPDEST DUP1 DUP1 PUSH1 0x1 DUP1 PUSH1 0xA0 SHL SUB NOT SWAP6 DUP8 DUP8 PUSH1 0x2 SLOAD AND OR PUSH1 0x2 SSTORE AND SWAP3 DUP4 DUP7 PUSH1 0x3 SLOAD AND OR PUSH1 0x3 SSTORE AND SWAP3 DUP4 DUP6 PUSH1 0x4 SLOAD AND OR PUSH1 0x4 SSTORE AND DUP1 SWAP4 PUSH1 0x5 SLOAD AND OR PUSH1 0x5 SSTORE PUSH1 0x40 MLOAD SWAP4 DUP5 MSTORE PUSH1 0x20 DUP5 ADD MSTORE PUSH1 0x40 DUP4 ADD MSTORE PUSH1 0x60 DUP3 ADD MSTORE LOG1 DUP1 RETURN JUMPDEST POP DUP3 DUP2 AND ISZERO ISZERO PUSH2 0x1BC8 JUMP JUMPDEST POP DUP1 DUP3 AND ISZERO ISZERO PUSH2 0x1BC2 JUMP JUMPDEST POP DUP1 DUP5 AND ISZERO ISZERO PUSH2 0x1BBC JUMP JUMPDEST POP CALLVALUE PUSH2 0x3C4 JUMPI PUSH2 0x1C52 CALLDATASIZE PUSH2 0x3E10 JUMP JUMPDEST SWAP1 DUP3 MSTORE PUSH1 0x13 PUSH1 0x20 MSTORE PUSH1 0x40 DUP3 KECCAK256 DUP1 SLOAD DUP3 LT ISZERO PUSH2 0x1608 JUMPI PUSH2 0x15E2 SWAP3 POP PUSH2 0x3EF1 JUMP JUMPDEST POP CALLVALUE PUSH2 0x3C4 JUMPI DUP1 PUSH1 0x3 NOT CALLDATASIZE ADD SLT PUSH2 0x3C4 JUMPI PUSH1 0x20 PUSH1 0x17 SLOAD PUSH1 0x40 MLOAD SWAP1 DUP2 MSTORE RETURN JUMPDEST POP CALLVALUE PUSH2 0x3C4 JUMPI DUP1 PUSH1 0x3 NOT CALLDATASIZE ADD SLT PUSH2 0x3C4 JUMPI PUSH1 0x2 SLOAD PUSH1 0x40 MLOAD PUSH1 0x1 PUSH1 0x1 PUSH1 0xA0 SHL SUB SWAP1 SWAP2 AND DUP2 MSTORE PUSH1 0x20 SWAP1 RETURN JUMPDEST POP CALLVALUE PUSH2 0x3C4 JUMPI DUP1 PUSH1 0x3 NOT CALLDATASIZE ADD SLT PUSH2 0x3C4 JUMPI PUSH1 0x20 PUSH1 0x1A SLOAD PUSH1 0x40 MLOAD SWAP1 DUP2 MSTORE RETURN JUMPDEST POP CALLVALUE PUSH2 0x3C4 JUMPI PUSH2 0x1CE5 CALLDATASIZE PUSH2 0x3EA7 JUMP JUMPDEST SWAP2 SWAP3 SWAP1 PUSH2 0x1CF0 PUSH2 0x4B20 JUMP JUMPDEST DUP3 DUP5 SUB PUSH2 0xCE4 JUMPI DUP5 JUMPDEST DUP5 DUP2 LT PUSH2 0x1D2F JUMPI DUP6 PUSH32 0x9C03D1F6BA485B6CF0A120117D651729467751D3079318D05171B6F389F6BF4B PUSH1 0x20 DUP8 PUSH1 0x40 MLOAD SWAP1 DUP2 MSTORE LOG1 DUP1 RETURN JUMPDEST DUP1 PUSH2 0x1D3D PUSH1 0x1 SWAP3 DUP7 DUP6 PUSH2 0x46F2 JUMP JUMPDEST CALLDATALOAD PUSH1 0x0 DUP1 MLOAD PUSH1 0x20 PUSH2 0x6032 DUP4 CODECOPY DUP2 MLOAD SWAP2 MSTORE PUSH1 0x40 DUP5 DUP1 PUSH1 0xA0 SHL SUB DUP1 PUSH2 0x1D64 PUSH2 0xCC9 DUP8 DUP14 DUP13 PUSH2 0x46F2 JUMP JUMPDEST AND DUP12 MSTORE PUSH1 0x20 SWAP4 PUSH1 0xF DUP6 MSTORE PUSH1 0x2 DUP4 DUP14 KECCAK256 ADD SSTORE PUSH2 0x1D83 PUSH2 0xCC9 DUP7 DUP13 DUP12 PUSH2 0x46F2 JUMP JUMPDEST PUSH2 0x1D8E DUP7 DUP12 DUP11 PUSH2 0x46F2 JUMP JUMPDEST CALLDATALOAD DUP4 MLOAD SWAP6 DUP14 DUP8 MSTORE DUP7 ADD MSTORE AND SWAP3 LOG2 ADD PUSH2 0x1CF9 JUMP JUMPDEST POP CALLVALUE PUSH2 0x3C4 JUMPI DUP1 PUSH1 0x3 NOT CALLDATASIZE ADD SLT PUSH2 0x3C4 JUMPI PUSH2 0x1DBA PUSH2 0x4B20 JUMP JUMPDEST PUSH1 0x0 DUP1 MLOAD PUSH1 0x20 PUSH2 0x6012 DUP4 CODECOPY DUP2 MLOAD SWAP2 MSTORE DUP1 SLOAD PUSH1 0x1 PUSH1 0x1 PUSH1 0xA0 SHL SUB NOT DUP2 AND SWAP1 SWAP2 SSTORE PUSH1 0x0 SWAP1 PUSH1 0x1 PUSH1 0x1 PUSH1 0xA0 SHL SUB AND PUSH1 0x0 DUP1 MLOAD PUSH1 0x20 PUSH2 0x60B2 DUP4 CODECOPY DUP2 MLOAD SWAP2 MSTORE DUP3 DUP1 LOG3 DUP1 RETURN JUMPDEST POP CALLVALUE PUSH2 0x3C4 JUMPI DUP1 PUSH1 0x3 NOT CALLDATASIZE ADD SLT PUSH2 0x3C4 JUMPI PUSH1 0x20 PUSH1 0x15 SLOAD PUSH1 0x40 MLOAD SWAP1 DUP2 MSTORE RETURN JUMPDEST POP CALLVALUE PUSH2 0x3C4 JUMPI DUP1 PUSH1 0x3 NOT CALLDATASIZE ADD SLT PUSH2 0x3C4 JUMPI PUSH1 0x20 PUSH1 0x40 MLOAD PUSH2 0x3E8 DUP2 MSTORE RETURN JUMPDEST POP CALLVALUE PUSH2 0x3C4 JUMPI PUSH1 0x20 CALLDATASIZE PUSH1 0x3 NOT ADD SLT PUSH2 0x3C4 JUMPI PUSH2 0x1E4F PUSH2 0x4B59 JUMP JUMPDEST PUSH2 0x1E5E PUSH1 0xFF PUSH1 0x4F SLOAD AND ISZERO PUSH2 0x3F87 JUMP JUMPDEST PUSH2 0x1E67 CALLER PUSH2 0x55E5 JUMP JUMPDEST PUSH9 0x56BC75E2D63100000 PUSH1 0x4 CALLDATALOAD EQ ISZERO DUP1 PUSH2 0x2648 JUMPI JUMPDEST DUP1 PUSH2 0x2633 JUMPI JUMPDEST DUP1 PUSH2 0x261E JUMPI JUMPDEST PUSH2 0x260C JUMPI DUP1 SLOAD PUSH1 0x40 MLOAD PUSH4 0x23B872DD PUSH1 0xE0 SHL DUP2 MSTORE SWAP1 PUSH1 0x20 SWAP1 DUP3 SWAP1 PUSH1 0x1 PUSH1 0x1 PUSH1 0xA0 SHL SUB AND DUP2 DUP6 DUP2 PUSH2 0x1EC0 PUSH1 0x4 DUP1 CALLDATALOAD SWAP1 ADDRESS SWAP1 CALLER SWAP1 DUP6 ADD PUSH2 0x3FE0 JUMP JUMPDEST SUB SWAP3 GAS CALL DUP1 ISZERO PUSH2 0x2368 JUMPI PUSH2 0x25ED JUMPI JUMPDEST POP CALLER DUP2 MSTORE PUSH1 0x10 PUSH1 0x20 MSTORE PUSH1 0x40 DUP2 KECCAK256 PUSH1 0x3 DUP2 ADD DUP1 SLOAD PUSH1 0xFF AND ISZERO PUSH2 0x2512 JUMPI PUSH2 0x1EF5 PUSH1 0x19 SLOAD PUSH2 0x46E3 JUMP JUMPDEST DUP1 PUSH1 0x19 SSTORE DUP3 SSTORE PUSH1 0x4 CALLDATALOAD PUSH1 0x1 DUP4 ADD SSTORE TIMESTAMP PUSH1 0x2 DUP4 ADD SSTORE PUSH1 0xFF NOT DUP2 SLOAD AND SWAP1 SSTORE CALLER DUP3 MSTORE PUSH1 0xF PUSH1 0x20 MSTORE DUP2 PUSH1 0x3 PUSH1 0x40 DUP3 KECCAK256 ADD SSTORE PUSH1 0x3 PUSH1 0x4 CALLDATALOAD MUL PUSH1 0x4 CALLDATALOAD DUP2 DIV PUSH1 0x3 EQ PUSH1 0x4 CALLDATALOAD ISZERO OR ISZERO PUSH2 0x24FE JUMPI CALLER DUP4 MSTORE PUSH1 0xF PUSH1 0x20 MSTORE PUSH1 0x4 PUSH1 0x40 DUP5 KECCAK256 ADD SSTORE JUMPDEST PUSH1 0xA PUSH1 0x1 DUP3 ADD SLOAD CALLER DUP5 MSTORE PUSH1 0xF PUSH1 0x20 MSTORE PUSH1 0x40 DUP5 KECCAK256 SWAP1 PUSH1 0x9 DUP3 ADD DUP1 SLOAD DUP3 GT PUSH2 0x24F6 JUMPI JUMPDEST POP POP ADD DUP1 SLOAD PUSH1 0x4 CALLDATALOAD GT PUSH2 0x24EB JUMPI JUMPDEST POP DUP1 SLOAD DUP3 MSTORE PUSH1 0x1C PUSH1 0x20 SWAP1 DUP2 MSTORE PUSH1 0x40 DUP1 DUP5 KECCAK256 DUP1 SLOAD PUSH1 0x1 PUSH1 0x1 PUSH1 0xA0 SHL SUB NOT AND CALLER SWAP1 DUP2 OR SWAP1 SWAP2 SSTORE DUP5 MSTORE PUSH1 0xF SWAP1 SWAP2 MSTORE DUP3 KECCAK256 SLOAD PUSH1 0x1 PUSH1 0x1 PUSH1 0xA0 SHL SUB AND DUP1 ISZERO ISZERO DUP1 PUSH2 0x24D7 JUMPI JUMPDEST ISZERO PUSH2 0x2456 JUMPI PUSH2 0x1FD9 PUSH1 0x64 PUSH2 0x1FD2 PUSH1 0x6 SLOAD PUSH1 0x4 CALLDATALOAD PUSH2 0x4002 JUMP JUMPDEST DIV DUP3 PUSH2 0x57B1 JUMP JUMPDEST SWAP1 DUP2 PUSH2 0x2427 JUMPI JUMPDEST POP POP JUMPDEST CALLER DUP3 MSTORE PUSH1 0xF PUSH1 0x20 MSTORE PUSH1 0x40 DUP3 KECCAK256 SLOAD DUP3 SWAP2 DUP3 SWAP2 PUSH1 0x1 PUSH1 0x1 PUSH1 0xA0 SHL SUB AND SWAP1 DUP3 SWAP1 PUSH1 0x4 CALLDATALOAD DUP1 ISZERO SWAP1 DUP1 DIV PUSH1 0x1 EQ OR ISZERO PUSH2 0x2413 JUMPI SWAP4 SWAP5 SWAP2 JUMPDEST PUSH1 0x1 PUSH1 0x1 PUSH1 0xA0 SHL SUB DUP2 AND DUP1 ISZERO ISZERO DUP1 PUSH2 0x2409 JUMPI JUMPDEST DUP1 PUSH2 0x23FF JUMPI JUMPDEST ISZERO PUSH2 0x2135 JUMPI DUP5 MSTORE PUSH1 0xF PUSH1 0x20 MSTORE PUSH1 0x40 DUP5 KECCAK256 PUSH1 0xFF PUSH1 0x5 DUP3 ADD SLOAD AND ISZERO PUSH2 0x2116 JUMPI POP PUSH1 0x1 PUSH1 0x1 PUSH1 0xA0 SHL SUB DUP2 AND DUP5 MSTORE PUSH1 0xF PUSH1 0x20 MSTORE PUSH1 0x40 DUP5 KECCAK256 PUSH1 0x1 ADD SLOAD DUP4 SWAP1 PUSH2 0x2070 SWAP1 PUSH2 0x409C JUMP JUMPDEST GT PUSH2 0x20AC JUMPI JUMPDEST PUSH1 0x1 PUSH1 0x1 PUSH1 0xA0 SHL SUB SWAP1 DUP2 AND DUP5 MSTORE PUSH1 0xF PUSH1 0x20 MSTORE PUSH1 0x40 DUP5 KECCAK256 SLOAD AND SWAP2 PUSH2 0x20A2 SWAP1 PUSH2 0x209C SWAP1 PUSH2 0x46E3 JUMP JUMPDEST SWAP6 PUSH2 0x46E3 JUMP JUMPDEST SWAP4 JUMPDEST SWAP4 SWAP5 SWAP2 PUSH2 0x2015 JUMP JUMPDEST PUSH2 0x20BB PUSH1 0x64 PUSH1 0x4 CALLDATALOAD DIV DUP3 PUSH2 0x59B5 JUMP JUMPDEST DUP1 PUSH2 0x20C7 JUMPI JUMPDEST POP PUSH2 0x2076 JUMP JUMPDEST SWAP2 DUP3 PUSH2 0x20D2 SWAP2 PUSH2 0x402B JUMP JUMPDEST SWAP2 CALLER DUP6 MSTORE PUSH1 0x10 PUSH1 0x20 MSTORE PUSH1 0x40 DUP6 KECCAK256 SLOAD PUSH1 0x40 MLOAD SWAP2 DUP3 MSTORE PUSH1 0x3 PUSH1 0x20 DUP4 ADD MSTORE PUSH1 0x40 DUP3 ADD MSTORE CALLER SWAP1 PUSH1 0x0 DUP1 MLOAD PUSH1 0x20 PUSH2 0x5FB2 DUP4 CODECOPY DUP2 MLOAD SWAP2 MSTORE PUSH1 0x60 PUSH1 0x1 DUP1 PUSH1 0xA0 SHL SUB DUP6 AND SWAP3 LOG3 CODESIZE PUSH2 0x20C1 JUMP JUMPDEST SLOAD SWAP3 SWAP6 PUSH1 0x1 PUSH1 0x1 PUSH1 0xA0 SHL SUB SWAP1 SWAP4 AND SWAP3 PUSH2 0x212F SWAP2 POP PUSH2 0x46E3 JUMP JUMPDEST SWAP4 PUSH2 0x20A4 JUMP JUMPDEST DUP3 DUP7 DUP7 PUSH2 0x2154 PUSH1 0x7 SWAP4 PUSH1 0x64 PUSH2 0x214E PUSH1 0x7 SLOAD PUSH1 0x4 CALLDATALOAD PUSH2 0x4002 JUMP JUMPDEST DIV PUSH2 0x4058 JUMP JUMPDEST DUP1 PUSH2 0x23BA JUMPI JUMPDEST POP PUSH1 0x1 DUP1 PUSH1 0xA0 SHL SUB DUP2 SLOAD AND DUP2 PUSH1 0x20 PUSH2 0x21A6 PUSH1 0x1 DUP1 PUSH1 0xA0 SHL SUB PUSH1 0x2 SLOAD AND SWAP4 PUSH1 0x64 PUSH2 0x2187 PUSH1 0x8 SLOAD PUSH1 0x4 CALLDATALOAD PUSH2 0x4002 JUMP JUMPDEST DIV PUSH1 0x40 MLOAD SWAP5 DUP6 DUP1 SWAP5 DUP2 SWAP4 PUSH4 0xA9059CBB PUSH1 0xE0 SHL SWAP10 DUP11 DUP5 MSTORE PUSH1 0x4 DUP5 ADD PUSH2 0x3F0D JUMP JUMPDEST SUB SWAP3 GAS CALL DUP1 ISZERO PUSH2 0x2390 JUMPI PUSH2 0x239B JUMPI JUMPDEST POP PUSH2 0x21CF PUSH1 0x64 PUSH2 0x21C9 PUSH1 0x9 SLOAD PUSH1 0x4 CALLDATALOAD PUSH2 0x4002 JUMP JUMPDEST DIV PUSH2 0x5CDB JUMP JUMPDEST PUSH2 0x2212 PUSH1 0x20 PUSH1 0x1 DUP1 PUSH1 0xA0 SHL SUB DUP5 SLOAD AND PUSH1 0x1 DUP1 PUSH1 0xA0 SHL SUB PUSH1 0x4 SLOAD AND SWAP1 PUSH1 0x64 PUSH2 0x21FA PUSH1 0xA SLOAD PUSH1 0x4 CALLDATALOAD PUSH2 0x4002 JUMP JUMPDEST DIV SWAP2 DUP7 PUSH1 0x40 MLOAD DUP1 SWAP7 DUP2 SWAP6 DUP3 SWAP5 DUP11 DUP5 MSTORE PUSH1 0x4 DUP5 ADD PUSH2 0x3F0D JUMP JUMPDEST SUB SWAP3 GAS CALL DUP1 ISZERO PUSH2 0x2390 JUMPI SWAP2 PUSH1 0x20 SWAP2 PUSH2 0x2267 SWAP4 PUSH2 0x2373 JUMPI JUMPDEST POP PUSH1 0x1 DUP1 PUSH1 0xA0 SHL SUB DUP5 SLOAD AND PUSH1 0x1 DUP1 PUSH1 0xA0 SHL SUB PUSH1 0x3 SLOAD AND DUP6 PUSH1 0x64 PUSH2 0x2250 PUSH1 0xB SLOAD PUSH1 0x4 CALLDATALOAD PUSH2 0x4002 JUMP JUMPDEST DIV SWAP4 PUSH1 0x40 MLOAD SWAP7 DUP8 SWAP6 DUP7 SWAP5 DUP6 SWAP4 DUP5 MSTORE PUSH1 0x4 DUP5 ADD PUSH2 0x3F0D JUMP JUMPDEST SUB SWAP3 GAS CALL DUP1 ISZERO PUSH2 0x2368 JUMPI PUSH2 0x2349 JUMPI JUMPDEST POP CALLER DUP2 MSTORE PUSH1 0xF PUSH1 0x20 MSTORE PUSH1 0x40 DUP2 KECCAK256 SLOAD SWAP1 SWAP2 DUP3 SWAP2 PUSH1 0x1 PUSH1 0x1 PUSH1 0xA0 SHL SUB AND JUMPDEST PUSH1 0x1 PUSH1 0x1 PUSH1 0xA0 SHL SUB AND DUP1 ISZERO ISZERO DUP1 PUSH2 0x233F JUMPI JUMPDEST ISZERO PUSH2 0x22EB JUMPI DUP1 DUP4 MSTORE PUSH1 0xF PUSH1 0x20 MSTORE DUP5 PUSH1 0x40 DUP5 KECCAK256 ADD PUSH2 0x22C4 PUSH1 0x4 CALLDATALOAD DUP3 SLOAD PUSH2 0x402B JUMP JUMPDEST SWAP1 SSTORE DUP3 MSTORE PUSH1 0xF PUSH1 0x20 MSTORE PUSH1 0x40 DUP3 KECCAK256 SLOAD PUSH1 0x1 PUSH1 0x1 PUSH1 0xA0 SHL SUB AND SWAP3 PUSH2 0x22E5 SWAP1 PUSH2 0x46E3 JUMP JUMPDEST SWAP3 PUSH2 0x2292 JUMP JUMPDEST POP PUSH2 0x22F5 CALLER PUSH2 0x5079 JUMP JUMPDEST SLOAD PUSH1 0x40 MLOAD SWAP1 PUSH1 0x4 CALLDATALOAD DUP3 MSTORE PUSH1 0x20 DUP3 ADD MSTORE PUSH32 0x2A91574E12AD96234E84923E146B0946ECFB871CD8D5534DC1FDCBE87A7C01B3 PUSH1 0x40 CALLER SWAP3 LOG2 PUSH1 0x1 PUSH1 0x0 DUP1 MLOAD PUSH1 0x20 PUSH2 0x6112 DUP4 CODECOPY DUP2 MLOAD SWAP2 MSTORE SSTORE DUP1 RETURN JUMPDEST POP PUSH1 0x1E DUP5 LT PUSH2 0x22A4 JUMP JUMPDEST PUSH2 0x2361 SWAP1 PUSH1 0x20 RETURNDATASIZE PUSH1 0x20 GT PUSH2 0x6D0 JUMPI PUSH2 0x6C1 DUP2 DUP4 PUSH2 0x3E39 JUMP JUMPDEST POP DUP4 PUSH2 0x2276 JUMP JUMPDEST PUSH1 0x40 MLOAD RETURNDATASIZE DUP5 DUP3 RETURNDATACOPY RETURNDATASIZE SWAP1 REVERT JUMPDEST PUSH2 0x2389 SWAP1 DUP4 RETURNDATASIZE DUP6 GT PUSH2 0x6D0 JUMPI PUSH2 0x6C1 DUP2 DUP4 PUSH2 0x3E39 JUMP JUMPDEST POP DUP7 PUSH2 0x2229 JUMP JUMPDEST PUSH1 0x40 MLOAD RETURNDATASIZE DUP6 DUP3 RETURNDATACOPY RETURNDATASIZE SWAP1 REVERT JUMPDEST PUSH2 0x23B3 SWAP1 PUSH1 0x20 RETURNDATASIZE PUSH1 0x20 GT PUSH2 0x6D0 JUMPI PUSH2 0x6C1 DUP2 DUP4 PUSH2 0x3E39 JUMP JUMPDEST POP DUP5 PUSH2 0x21B5 JUMP JUMPDEST PUSH1 0x40 DUP2 PUSH2 0x23EA PUSH32 0xCA2E2BFF26D2ADB9FE155E9265350494C16751676879CB7CED9141E0FCF39343 SWAP4 PUSH1 0x1F SLOAD PUSH2 0x402B JUMP JUMPDEST DUP1 PUSH1 0x1F SSTORE DUP3 MLOAD SWAP2 DUP3 MSTORE PUSH1 0x20 DUP3 ADD MSTORE LOG1 DUP4 PUSH2 0x215A JUMP JUMPDEST POP PUSH1 0x14 DUP8 LT PUSH2 0x202E JUMP JUMPDEST POP PUSH1 0xF DUP5 LT PUSH2 0x2028 JUMP JUMPDEST PUSH4 0x4E487B71 PUSH1 0xE0 SHL DUP5 MSTORE PUSH1 0x11 PUSH1 0x4 MSTORE PUSH1 0x24 DUP5 REVERT JUMPDEST DUP3 SLOAD PUSH1 0x40 MLOAD SWAP3 DUP4 MSTORE PUSH1 0x2 PUSH1 0x20 DUP5 ADD MSTORE PUSH1 0x40 DUP4 ADD MSTORE PUSH1 0x0 DUP1 MLOAD PUSH1 0x20 PUSH2 0x5FB2 DUP4 CODECOPY DUP2 MLOAD SWAP2 MSTORE PUSH1 0x60 CALLER SWAP4 LOG3 CODESIZE DUP1 PUSH2 0x1FE0 JUMP JUMPDEST POP DUP2 SLOAD PUSH1 0x2 SLOAD PUSH1 0x6 SLOAD PUSH2 0x24A3 SWAP3 PUSH1 0x20 SWAP3 PUSH1 0x1 PUSH1 0x1 PUSH1 0xA0 SHL SUB SWAP1 DUP2 AND SWAP3 SWAP2 AND SWAP1 PUSH1 0x64 SWAP1 PUSH2 0x2484 SWAP1 PUSH1 0x4 CALLDATALOAD PUSH2 0x4002 JUMP JUMPDEST DIV SWAP2 DUP7 PUSH1 0x40 MLOAD DUP1 SWAP7 DUP2 SWAP6 DUP3 SWAP5 PUSH4 0xA9059CBB PUSH1 0xE0 SHL DUP5 MSTORE PUSH1 0x4 DUP5 ADD PUSH2 0x3F0D JUMP JUMPDEST SUB SWAP3 GAS CALL DUP1 ISZERO PUSH2 0x2390 JUMPI PUSH2 0x24B8 JUMPI JUMPDEST POP PUSH2 0x1FE3 JUMP JUMPDEST PUSH2 0x24D0 SWAP1 PUSH1 0x20 RETURNDATASIZE PUSH1 0x20 GT PUSH2 0x6D0 JUMPI PUSH2 0x6C1 DUP2 DUP4 PUSH2 0x3E39 JUMP JUMPDEST POP CODESIZE PUSH2 0x24B2 JUMP JUMPDEST POP DUP1 DUP4 MSTORE PUSH1 0xFF PUSH1 0x5 PUSH1 0x40 DUP6 KECCAK256 ADD SLOAD AND PUSH2 0x1FBA JUMP JUMPDEST PUSH1 0x4 CALLDATALOAD SWAP1 SSTORE CODESIZE PUSH2 0x1F7A JUMP JUMPDEST SSTORE CODESIZE DUP1 PUSH2 0x1F6C JUMP JUMPDEST PUSH4 0x4E487B71 PUSH1 0xE0 SHL DUP4 MSTORE PUSH1 0x11 PUSH1 0x4 MSTORE PUSH1 0x24 DUP4 REVERT JUMPDEST PUSH1 0x1 DUP3 ADD DUP1 SLOAD DUP1 PUSH2 0x2580 JUMPI POP PUSH2 0x2529 PUSH1 0x19 SLOAD PUSH2 0x46E3 JUMP JUMPDEST DUP1 PUSH1 0x19 SSTORE DUP4 SSTORE PUSH1 0x4 CALLDATALOAD SWAP1 SSTORE TIMESTAMP PUSH1 0x2 DUP4 ADD SSTORE PUSH1 0xFF NOT DUP2 SLOAD AND SWAP1 SSTORE CALLER DUP3 MSTORE PUSH1 0xF PUSH1 0x20 MSTORE DUP2 PUSH1 0x3 PUSH1 0x40 DUP3 KECCAK256 ADD SSTORE PUSH1 0x3 PUSH1 0x4 CALLDATALOAD MUL PUSH1 0x4 CALLDATALOAD DUP2 DIV PUSH1 0x3 EQ PUSH1 0x4 CALLDATALOAD ISZERO OR ISZERO PUSH2 0x24FE JUMPI CALLER DUP4 MSTORE PUSH1 0xF PUSH1 0x20 MSTORE PUSH1 0x4 PUSH1 0x40 DUP5 KECCAK256 ADD SSTORE PUSH2 0x1F4B JUMP JUMPDEST PUSH2 0x258F SWAP2 SWAP3 POP PUSH1 0x4 CALLDATALOAD SWAP1 PUSH2 0x402B JUMP JUMPDEST SWAP1 SSTORE CALLER DUP3 MSTORE PUSH1 0xF PUSH1 0x20 MSTORE PUSH1 0xFF PUSH1 0x5 PUSH1 0x40 DUP5 KECCAK256 ADD SLOAD AND PUSH2 0x25E2 JUMPI JUMPDEST PUSH1 0x3 PUSH1 0x4 CALLDATALOAD MUL PUSH1 0x4 CALLDATALOAD DUP2 DIV PUSH1 0x3 EQ PUSH1 0x4 CALLDATALOAD ISZERO OR ISZERO PUSH2 0x24FE JUMPI CALLER DUP4 MSTORE PUSH1 0xF PUSH1 0x20 MSTORE PUSH2 0x25DB PUSH1 0x4 PUSH1 0x40 DUP6 KECCAK256 ADD SWAP2 DUP3 SLOAD PUSH2 0x402B JUMP JUMPDEST SWAP1 SSTORE PUSH2 0x1F4B JUMP JUMPDEST TIMESTAMP PUSH1 0x2 DUP3 ADD SSTORE PUSH2 0x25A9 JUMP JUMPDEST PUSH2 0x2605 SWAP1 PUSH1 0x20 RETURNDATASIZE PUSH1 0x20 GT PUSH2 0x6D0 JUMPI PUSH2 0x6C1 DUP2 DUP4 PUSH2 0x3E39 JUMP JUMPDEST POP CODESIZE PUSH2 0x1ECF JUMP JUMPDEST PUSH1 0x40 MLOAD PUSH4 0x162908E3 PUSH1 0xE1 SHL DUP2 MSTORE PUSH1 0x4 SWAP1 REVERT JUMPDEST POP PUSH9 0x3635C9ADC5DEA00000 PUSH1 0x4 CALLDATALOAD EQ ISZERO PUSH2 0x1E88 JUMP JUMPDEST POP PUSH9 0x1B1AE4D6E2EF500000 PUSH1 0x4 CALLDATALOAD EQ ISZERO PUSH2 0x1E82 JUMP JUMPDEST POP PUSH9 0x1043561A8829300000 PUSH1 0x4 CALLDATALOAD EQ ISZERO PUSH2 0x1E7C JUMP JUMPDEST POP CALLVALUE PUSH2 0x3C4 JUMPI DUP1 PUSH1 0x3 NOT CALLDATASIZE ADD SLT PUSH2 0x3C4 JUMPI PUSH1 0x20 PUSH1 0x19 SLOAD PUSH1 0x40 MLOAD SWAP1 DUP2 MSTORE RETURN JUMPDEST POP CALLVALUE PUSH2 0x3C4 JUMPI PUSH1 0x20 CALLDATASIZE PUSH1 0x3 NOT ADD SLT PUSH2 0x3C4 JUMPI PUSH2 0x2695 PUSH2 0x3D4A JUMP JUMPDEST PUSH2 0x269D PUSH2 0x4B20 JUMP JUMPDEST PUSH1 0x4F DUP1 SLOAD PUSH2 0x100 PUSH1 0x1 PUSH1 0xA8 SHL SUB NOT AND PUSH1 0x8 SWAP3 SWAP1 SWAP3 SHL PUSH2 0x100 PUSH1 0x1 PUSH1 0xA8 SHL SUB AND SWAP2 SWAP1 SWAP2 OR SWAP1 SSTORE DUP1 RETURN JUMPDEST POP CALLVALUE PUSH2 0x3C4 JUMPI DUP1 PUSH1 0x3 NOT CALLDATASIZE ADD SLT PUSH2 0x3C4 JUMPI PUSH32 0x0 PUSH1 0x1 PUSH1 0x1 PUSH1 0xA0 SHL SUB AND ADDRESS SUB PUSH2 0x271E JUMPI PUSH1 0x20 PUSH1 0x40 MLOAD PUSH1 0x0 DUP1 MLOAD PUSH1 0x20 PUSH2 0x6052 DUP4 CODECOPY DUP2 MLOAD SWAP2 MSTORE DUP2 MSTORE RETURN JUMPDEST PUSH1 0x40 MLOAD PUSH4 0x703E46DD PUSH1 0xE1 SHL DUP2 MSTORE PUSH1 0x4 SWAP1 REVERT JUMPDEST POP CALLVALUE PUSH2 0x3C4 JUMPI PUSH1 0x20 DUP1 PUSH1 0x3 NOT CALLDATASIZE ADD SLT PUSH2 0x29B2 JUMPI PUSH1 0x4 CALLDATALOAD SWAP1 PUSH2 0x274F PUSH2 0x4B59 JUMP JUMPDEST PUSH2 0x275E PUSH1 0xFF PUSH1 0x4F SLOAD AND ISZERO PUSH2 0x3F87 JUMP JUMPDEST DUP2 ISZERO PUSH2 0x260C JUMPI PUSH9 0x3635C9ADC5DEA00000 DUP1 PUSH1 0x17 SLOAD LT SWAP1 DUP2 ISZERO PUSH2 0x29E7 JUMPI JUMPDEST POP PUSH2 0x2957 JUMPI PUSH1 0x1 SLOAD PUSH1 0x40 MLOAD PUSH4 0x23B872DD PUSH1 0xE0 SHL DUP2 MSTORE PUSH1 0x1 PUSH1 0x1 PUSH1 0xA0 SHL SUB SWAP2 DUP4 SWAP1 DUP3 SWAP1 DUP5 AND DUP2 DUP9 DUP2 PUSH2 0x27B1 DUP11 ADDRESS CALLER PUSH1 0x4 DUP6 ADD PUSH2 0x3FE0 JUMP JUMPDEST SUB SWAP3 GAS CALL DUP1 ISZERO PUSH2 0x755 JUMPI PUSH2 0x29CA JUMPI JUMPDEST POP PUSH1 0x64 PUSH2 0x27CF PUSH1 0xE SLOAD DUP6 PUSH2 0x4002 JUMP JUMPDEST DIV SWAP1 PUSH2 0x27DB DUP3 DUP6 PUSH2 0x4058 JUMP JUMPDEST SWAP3 PUSH2 0x2710 DUP1 DUP6 MUL SWAP1 DUP6 DUP3 DIV EQ DUP6 ISZERO OR ISZERO PUSH2 0x29B6 JUMPI PUSH2 0x27FF PUSH2 0x3E8 SWAP2 PUSH1 0x18 SLOAD SWAP1 PUSH2 0x4038 JUMP JUMPDEST GT PUSH2 0x260C JUMPI DUP6 DUP3 PUSH1 0x1 SLOAD AND DUP1 EXTCODESIZE ISZERO PUSH2 0x29B2 JUMPI DUP2 DUP1 SWAP2 PUSH1 0x24 PUSH1 0x40 MLOAD DUP1 SWAP5 DUP2 SWAP4 PUSH4 0x852CD8D PUSH1 0xE3 SHL DUP4 MSTORE DUP11 PUSH1 0x4 DUP5 ADD MSTORE GAS CALL DUP1 ISZERO PUSH2 0x2368 JUMPI PUSH2 0x299A JUMPI JUMPDEST POP POP PUSH1 0x17 SLOAD SWAP4 PUSH2 0x284A DUP6 DUP3 PUSH2 0x4002 JUMP JUMPDEST SWAP1 PUSH2 0x2862 PUSH1 0x18 SLOAD SWAP3 PUSH2 0x285C DUP4 DUP6 PUSH2 0x402B JUMP JUMPDEST SWAP1 PUSH2 0x4038 JUMP JUMPDEST SWAP4 DUP9 SLOAD AND SWAP6 PUSH1 0x40 MLOAD PUSH4 0x70A08231 PUSH1 0xE0 SHL DUP2 MSTORE ADDRESS PUSH1 0x4 DUP3 ADD MSTORE DUP5 DUP2 PUSH1 0x24 DUP2 DUP12 GAS STATICCALL DUP1 ISZERO PUSH2 0x1356 JUMPI DUP7 SWAP2 DUP12 SWAP2 PUSH2 0x2969 JUMPI JUMPDEST POP LT PUSH2 0x2957 JUMPI PUSH2 0x28A5 DUP6 SWAP3 PUSH2 0x28AD SWAP5 PUSH2 0x402B JUMP JUMPDEST PUSH1 0x18 SSTORE PUSH2 0x4058 JUMP JUMPDEST PUSH1 0x17 SSTORE DUP1 PUSH1 0x40 MLOAD DUP1 SWAP6 PUSH4 0xA9059CBB PUSH1 0xE0 SHL DUP3 MSTORE DUP2 DUP10 DUP2 PUSH2 0x28D1 DUP9 CALLER PUSH1 0x4 DUP5 ADD PUSH2 0x3F0D JUMP JUMPDEST SUB SWAP3 GAS CALL SWAP4 DUP5 ISZERO PUSH2 0x294C JUMPI PUSH32 0x223C8AD0806F634524940A8595F819C5CFC7B1F4F4F45791269301DF0A7E61D5 SWAP5 PUSH2 0x292E JUMPI JUMPDEST POP POP PUSH2 0x2916 PUSH1 0x40 MLOAD SWAP3 DUP4 SWAP3 CALLER SWAP7 DUP5 PUSH2 0x3DD0 JUMP JUMPDEST SUB SWAP1 LOG2 PUSH1 0x1 PUSH1 0x0 DUP1 MLOAD PUSH1 0x20 PUSH2 0x6112 DUP4 CODECOPY DUP2 MLOAD SWAP2 MSTORE SSTORE DUP1 RETURN JUMPDEST DUP2 PUSH2 0x2944 SWAP3 SWAP1 RETURNDATASIZE LT PUSH2 0x6D0 JUMPI PUSH2 0x6C1 DUP2 DUP4 PUSH2 0x3E39 JUMP JUMPDEST POP CODESIZE DUP1 PUSH2 0x2903 JUMP JUMPDEST PUSH1 0x40 MLOAD RETURNDATASIZE DUP9 DUP3 RETURNDATACOPY RETURNDATASIZE SWAP1 REVERT JUMPDEST PUSH1 0x40 MLOAD PUSH4 0x43C7AD81 PUSH1 0xE1 SHL DUP2 MSTORE PUSH1 0x4 SWAP1 REVERT JUMPDEST DUP1 SWAP3 POP DUP7 DUP1 SWAP3 POP RETURNDATASIZE DUP4 GT PUSH2 0x2993 JUMPI JUMPDEST PUSH2 0x2982 DUP2 DUP4 PUSH2 0x3E39 JUMP JUMPDEST DUP2 ADD SUB SLT PUSH2 0xC73 JUMPI DUP6 SWAP1 MLOAD CODESIZE PUSH2 0x2891 JUMP JUMPDEST POP RETURNDATASIZE PUSH2 0x2978 JUMP JUMPDEST PUSH2 0x29A3 SWAP1 PUSH2 0x3E26 JUMP JUMPDEST PUSH2 0x29AE JUMPI DUP6 CODESIZE PUSH2 0x283A JUMP JUMPDEST DUP6 DUP1 REVERT JUMPDEST POP DUP1 REVERT JUMPDEST PUSH4 0x4E487B71 PUSH1 0xE0 SHL DUP8 MSTORE PUSH1 0x11 PUSH1 0x4 MSTORE PUSH1 0x24 DUP8 REVERT JUMPDEST PUSH2 0x29E0 SWAP1 DUP4 RETURNDATASIZE DUP6 GT PUSH2 0x6D0 JUMPI PUSH2 0x6C1 DUP2 DUP4 PUSH2 0x3E39 JUMP JUMPDEST POP CODESIZE PUSH2 0x27C0 JUMP JUMPDEST SWAP1 POP PUSH1 0x18 SLOAD LT CODESIZE PUSH2 0x277B JUMP JUMPDEST POP CALLVALUE PUSH2 0x3C4 JUMPI DUP1 PUSH1 0x3 NOT CALLDATASIZE ADD SLT PUSH2 0x3C4 JUMPI PUSH2 0x2A0C PUSH2 0x4B20 JUMP JUMPDEST PUSH1 0x1 PUSH1 0xFF NOT PUSH1 0x4F SLOAD AND OR PUSH1 0x4F SSTORE PUSH32 0x4CB3183D0BF66F9634B15CFC3539FDDDC96C2C9324848AF89B56586A6739FEC4 DUP2 DUP1 LOG1 DUP1 RETURN JUMPDEST POP PUSH1 0x40 CALLDATASIZE PUSH1 0x3 NOT ADD SLT PUSH2 0x3C4 JUMPI PUSH2 0x2A55 PUSH2 0x3D4A JUMP JUMPDEST PUSH1 0x24 SWAP2 DUP3 CALLDATALOAD PUSH1 0x1 PUSH1 0x1 PUSH1 0x40 SHL SUB DUP2 GT PUSH2 0x29B2 JUMPI CALLDATASIZE PUSH1 0x23 DUP3 ADD SLT ISZERO PUSH2 0x29B2 JUMPI DUP1 PUSH1 0x4 ADD CALLDATALOAD PUSH2 0x2A81 DUP2 PUSH2 0x3E5C JUMP JUMPDEST SWAP4 PUSH2 0x2A8F PUSH1 0x40 MLOAD SWAP6 DUP7 PUSH2 0x3E39 JUMP JUMPDEST DUP2 DUP6 MSTORE PUSH1 0x20 SWAP2 DUP3 DUP7 ADD SWAP4 CALLDATASIZE DUP9 DUP4 DUP4 ADD ADD GT PUSH2 0x29AE JUMPI DUP2 DUP7 SWAP3 DUP10 DUP7 SWAP4 ADD DUP8 CALLDATACOPY DUP8 ADD ADD MSTORE PUSH1 0x1 PUSH1 0x1 PUSH1 0xA0 SHL SUB PUSH32 0x0 DUP2 AND ADDRESS DUP2 EQ SWAP1 DUP2 ISZERO PUSH2 0x2C57 JUMPI JUMPDEST POP PUSH2 0x271E JUMPI PUSH2 0x2AF4 PUSH2 0x4B20 JUMP JUMPDEST DUP2 AND SWAP5 PUSH1 0x40 MLOAD PUSH4 0x52D1902D PUSH1 0xE0 SHL DUP2 MSTORE DUP4 DUP2 PUSH1 0x4 DUP2 DUP11 GAS STATICCALL DUP7 SWAP2 DUP2 PUSH2 0x2C24 JUMPI JUMPDEST POP PUSH2 0x2B31 JUMPI PUSH1 0x40 MLOAD PUSH4 0x4C9C8CE3 PUSH1 0xE0 SHL DUP2 MSTORE PUSH1 0x4 DUP2 ADD DUP9 SWAP1 MSTORE DUP9 SWAP1 REVERT JUMPDEST DUP7 SWAP1 DUP9 PUSH1 0x0 DUP1 MLOAD PUSH1 0x20 PUSH2 0x6052 DUP4 CODECOPY DUP2 MLOAD SWAP2 MSTORE SWAP2 DUP3 DUP2 SUB PUSH2 0x2C0F JUMPI POP DUP5 EXTCODESIZE ISZERO PUSH2 0x2BF9 JUMPI POP DUP1 SLOAD PUSH1 0x1 PUSH1 0x1 PUSH1 0xA0 SHL SUB NOT AND DUP3 OR SWAP1 SSTORE PUSH1 0x40 MLOAD DUP7 SWAP3 SWAP2 PUSH32 0xBC7CD75A20EE27FD9ADEBAB32041F755214DBC6BFFA90CC0225B39DA2E5C2D3B DUP5 DUP1 LOG2 DUP2 MLOAD ISZERO PUSH2 0x2BDB JUMPI POP PUSH2 0x2BCE SWAP5 DUP3 SWAP2 MLOAD SWAP1 DUP5 GAS DELEGATECALL SWAP1 RETURNDATASIZE ISZERO PUSH2 0x2BD2 JUMPI RETURNDATASIZE PUSH2 0x2BB2 DUP2 PUSH2 0x3E5C JUMP JUMPDEST SWAP1 PUSH2 0x2BC0 PUSH1 0x40 MLOAD SWAP3 DUP4 PUSH2 0x3E39 JUMP JUMPDEST DUP2 MSTORE DUP6 DUP2 SWAP5 RETURNDATASIZE SWAP3 ADD RETURNDATACOPY PUSH2 0x5F4E JUMP JUMPDEST POP DUP1 RETURN JUMPDEST PUSH1 0x60 SWAP3 POP PUSH2 0x5F4E JUMP JUMPDEST SWAP5 POP POP POP POP POP CALLVALUE PUSH2 0x2BEA JUMPI POP DUP1 RETURN JUMPDEST PUSH4 0xB398979F PUSH1 0xE0 SHL DUP2 MSTORE PUSH1 0x4 SWAP1 REVERT JUMPDEST PUSH1 0x40 MLOAD PUSH4 0x4C9C8CE3 PUSH1 0xE0 SHL DUP2 MSTORE PUSH1 0x4 DUP2 ADD DUP5 SWAP1 MSTORE REVERT JUMPDEST PUSH1 0x40 MLOAD SWAP1 PUSH4 0x2A875269 PUSH1 0xE2 SHL DUP3 MSTORE PUSH1 0x4 DUP3 ADD MSTORE REVERT JUMPDEST SWAP1 SWAP2 POP DUP5 DUP2 DUP2 RETURNDATASIZE DUP4 GT PUSH2 0x2C50 JUMPI JUMPDEST PUSH2 0x2C3C DUP2 DUP4 PUSH2 0x3E39 JUMP JUMPDEST DUP2 ADD SUB SLT PUSH2 0x2C4C JUMPI MLOAD SWAP1 CODESIZE PUSH2 0x2B14 JUMP JUMPDEST DUP7 DUP1 REVERT JUMPDEST POP RETURNDATASIZE PUSH2 0x2C32 JUMP JUMPDEST SWAP1 POP DUP2 PUSH1 0x0 DUP1 MLOAD PUSH1 0x20 PUSH2 0x6052 DUP4 CODECOPY DUP2 MLOAD SWAP2 MSTORE SLOAD AND EQ ISZERO CODESIZE PUSH2 0x2AE7 JUMP JUMPDEST POP CALLVALUE PUSH2 0x3C4 JUMPI PUSH2 0x2C82 CALLDATASIZE PUSH2 0x3E10 JUMP JUMPDEST SWAP1 PUSH2 0x2C8B PUSH2 0x4B59 JUMP JUMPDEST PUSH2 0x2C9A PUSH1 0xFF PUSH1 0x4F SLOAD AND ISZERO PUSH2 0x3F87 JUMP JUMPDEST CALLER DUP4 MSTORE PUSH1 0x20 SWAP1 PUSH1 0x10 DUP3 MSTORE PUSH1 0x40 DUP5 KECCAK256 SWAP3 PUSH1 0x1 DUP5 ADD SWAP4 DUP5 SLOAD ISZERO PUSH2 0x3068 JUMPI PUSH1 0x3 ADD SLOAD PUSH1 0xFF AND PUSH2 0x3056 JUMPI PUSH1 0x7 DUP2 EQ ISZERO DUP1 PUSH2 0x304B JUMPI JUMPDEST DUP1 PUSH2 0x3040 JUMPI JUMPDEST PUSH2 0x302E JUMPI DUP2 ISZERO PUSH2 0x260C JUMPI DUP5 SLOAD PUSH1 0x40 MLOAD PUSH4 0x23B872DD PUSH1 0xE0 SHL DUP2 MSTORE PUSH1 0x1 PUSH1 0x1 PUSH1 0xA0 SHL SUB SWAP6 SWAP2 DUP6 SWAP1 DUP3 SWAP1 DUP9 AND DUP2 DUP11 DUP2 PUSH2 0x2D0C DUP11 ADDRESS CALLER PUSH1 0x4 DUP6 ADD PUSH2 0x3FE0 JUMP JUMPDEST SUB SWAP3 GAS CALL DUP1 ISZERO PUSH2 0x3023 JUMPI PUSH2 0x3006 JUMPI JUMPDEST POP PUSH2 0x2D27 PUSH1 0x1A SLOAD PUSH2 0x46E3 JUMP JUMPDEST PUSH1 0x1A DUP2 SWAP1 SSTORE CALLER DUP8 MSTORE PUSH1 0x11 DUP6 MSTORE PUSH1 0x40 DUP1 DUP9 KECCAK256 SWAP1 MLOAD SWAP2 PUSH1 0xC0 DUP4 ADD PUSH1 0x1 PUSH1 0x1 PUSH1 0x40 SHL SUB DUP2 GT DUP5 DUP3 LT OR PUSH2 0x159E JUMPI PUSH1 0x40 MSTORE DUP3 MSTORE DUP6 DUP3 ADD DUP6 DUP2 MSTORE PUSH1 0x40 DUP4 ADD TIMESTAMP DUP2 MSTORE PUSH1 0x60 DUP5 ADD SWAP1 DUP7 DUP3 MSTORE PUSH1 0x80 DUP6 ADD SWAP3 PUSH1 0x1 DUP5 MSTORE PUSH1 0xA0 DUP7 ADD SWAP5 DUP13 DUP7 MSTORE DUP1 SLOAD SWAP1 PUSH1 0x1 PUSH1 0x40 SHL DUP3 LT ISZERO PUSH2 0x2FF2 JUMPI SWAP1 PUSH2 0x2D9B SWAP2 PUSH1 0x1 DUP3 ADD DUP2 SSTORE PUSH2 0x3F28 JUMP JUMPDEST SWAP7 SWAP1 SWAP7 PUSH2 0x2FDE JUMPI SWAP2 PUSH2 0x2DDA SWAP4 SWAP2 PUSH1 0x5 SWAP7 SWAP6 SWAP4 MLOAD DUP9 SSTORE MLOAD PUSH1 0x1 DUP9 ADD SSTORE MLOAD PUSH1 0x2 DUP8 ADD SSTORE MLOAD PUSH1 0x3 DUP7 ADD SSTORE MLOAD ISZERO ISZERO PUSH1 0x4 DUP6 ADD SWAP1 PUSH1 0xFF DUP1 NOT DUP4 SLOAD AND SWAP2 ISZERO ISZERO AND OR SWAP1 SSTORE JUMP JUMPDEST MLOAD SWAP2 ADD SSTORE PUSH1 0x1A SLOAD DUP7 MSTORE PUSH1 0x1E DUP5 MSTORE PUSH1 0x40 DUP1 DUP8 KECCAK256 DUP1 SLOAD PUSH1 0x1 PUSH1 0x1 PUSH1 0xA0 SHL SUB NOT AND CALLER SWAP1 DUP2 OR SWAP1 SWAP2 SSTORE DUP8 MSTORE PUSH1 0xF DUP6 MSTORE DUP7 KECCAK256 PUSH1 0xA ADD DUP1 SLOAD SWAP2 DUP3 ISZERO PUSH2 0x2FD0 JUMPI JUMPDEST POP POP PUSH1 0x96 DUP2 MUL SWAP1 DUP1 DUP3 DIV PUSH1 0x96 EQ SWAP1 ISZERO OR ISZERO PUSH2 0x2FBC JUMPI PUSH1 0x64 SWAP1 DIV DUP3 SUB PUSH2 0x260C JUMPI PUSH32 0xA8A1B9E33E503EED12BF7E7C8C01C7F3B60217A496BDDD0F5DB351DD8C056C1C SWAP1 PUSH2 0x2E5E CALLER PUSH2 0x5079 JUMP JUMPDEST PUSH1 0x1A SLOAD SWAP1 PUSH2 0x2E73 PUSH1 0x40 MLOAD SWAP3 DUP4 SWAP3 CALLER SWAP7 DUP5 PUSH2 0x3DD0 JUMP JUMPDEST SUB SWAP1 LOG2 CALLER DUP4 MSTORE PUSH1 0xF DUP2 MSTORE PUSH1 0x6 PUSH1 0x40 DUP5 KECCAK256 ADD SWAP2 DUP4 DUP4 SLOAD SWAP4 DUP5 PUSH2 0x2EA5 JUMPI JUMPDEST POP PUSH1 0x1 PUSH1 0x0 DUP1 MLOAD PUSH1 0x20 PUSH2 0x6112 DUP4 CODECOPY DUP2 MLOAD SWAP2 MSTORE SSTORE DUP1 RETURN JUMPDEST SSTORE PUSH1 0x17 SLOAD DUP4 DUP2 LT ISZERO DUP1 PUSH2 0x2F53 JUMPI JUMPDEST PUSH2 0x2EBF JUMPI JUMPDEST DUP5 SWAP1 PUSH2 0x2E8F JUMP JUMPDEST DUP4 PUSH2 0x2EC9 SWAP2 PUSH2 0x4058 JUMP JUMPDEST PUSH1 0x17 SSTORE DUP4 SLOAD AND SWAP1 DUP1 PUSH1 0x40 MLOAD DUP1 SWAP4 PUSH4 0xA9059CBB PUSH1 0xE0 SHL DUP3 MSTORE DUP2 DUP8 DUP2 PUSH2 0x2EF1 DUP10 CALLER PUSH1 0x4 DUP5 ADD PUSH2 0x3F0D JUMP JUMPDEST SUB SWAP3 GAS CALL SWAP2 DUP3 ISZERO PUSH2 0x6D7 JUMPI PUSH32 0x3437B9EA7FA19C6D233DD70CC787A70FAB87CEE64D8BA4571512CC84402748F9 SWAP3 PUSH2 0x2F36 JUMPI JUMPDEST POP PUSH1 0x40 MLOAD SWAP3 DUP4 MSTORE CALLER SWAP3 LOG2 CODESIZE DUP1 DUP1 DUP1 PUSH2 0x2EB8 JUMP JUMPDEST PUSH2 0x2F4C SWAP1 DUP3 RETURNDATASIZE DUP5 GT PUSH2 0x6D0 JUMPI PUSH2 0x6C1 DUP2 DUP4 PUSH2 0x3E39 JUMP JUMPDEST POP CODESIZE PUSH2 0x2F23 JUMP JUMPDEST POP PUSH1 0x24 DUP4 DUP4 DUP8 SLOAD AND PUSH1 0x40 MLOAD SWAP3 DUP4 DUP1 SWAP3 PUSH4 0x70A08231 PUSH1 0xE0 SHL DUP3 MSTORE ADDRESS PUSH1 0x4 DUP4 ADD MSTORE GAS STATICCALL DUP1 ISZERO PUSH2 0x294C JUMPI DUP6 SWAP2 DUP8 SWAP2 PUSH2 0x2F8B JUMPI JUMPDEST POP LT ISZERO PUSH2 0x2EB3 JUMP JUMPDEST DUP1 SWAP3 POP DUP6 DUP1 SWAP3 POP RETURNDATASIZE DUP4 GT PUSH2 0x2FB5 JUMPI JUMPDEST PUSH2 0x2FA4 DUP2 DUP4 PUSH2 0x3E39 JUMP JUMPDEST DUP2 ADD SUB SLT PUSH2 0xC73 JUMPI DUP5 SWAP1 MLOAD CODESIZE PUSH2 0x2F83 JUMP JUMPDEST POP RETURNDATASIZE PUSH2 0x2F9A JUMP JUMPDEST PUSH4 0x4E487B71 PUSH1 0xE0 SHL DUP7 MSTORE PUSH1 0x11 PUSH1 0x4 MSTORE PUSH1 0x24 DUP7 REVERT JUMPDEST SWAP1 SWAP2 POP SLOAD DUP1 SWAP2 SSTORE CODESIZE DUP1 PUSH2 0x2E14 JUMP JUMPDEST PUSH4 0x4E487B71 PUSH1 0xE0 SHL DUP14 MSTORE PUSH1 0x4 DUP14 SWAP1 MSTORE PUSH1 0x24 DUP14 REVERT JUMPDEST PUSH4 0x4E487B71 PUSH1 0xE0 SHL DUP15 MSTORE PUSH1 0x41 PUSH1 0x4 MSTORE PUSH1 0x24 DUP15 REVERT JUMPDEST PUSH2 0x301C SWAP1 DUP6 RETURNDATASIZE DUP8 GT PUSH2 0x6D0 JUMPI PUSH2 0x6C1 DUP2 DUP4 PUSH2 0x3E39 JUMP JUMPDEST POP CODESIZE PUSH2 0x2D1B JUMP JUMPDEST PUSH1 0x40 MLOAD RETURNDATASIZE DUP10 DUP3 RETURNDATACOPY RETURNDATASIZE SWAP1 REVERT JUMPDEST PUSH1 0x40 MLOAD PUSH4 0x4DC7F5FF PUSH1 0xE1 SHL DUP2 MSTORE PUSH1 0x4 SWAP1 REVERT JUMPDEST POP PUSH1 0x1E DUP2 EQ ISZERO PUSH2 0x2CD1 JUMP JUMPDEST POP PUSH1 0xF DUP2 EQ ISZERO PUSH2 0x2CCB JUMP JUMPDEST PUSH1 0x40 MLOAD PUSH4 0x1ECB2C4F PUSH1 0xE3 SHL DUP2 MSTORE PUSH1 0x4 SWAP1 REVERT JUMPDEST PUSH1 0x40 MLOAD PUSH4 0x4065AAF1 PUSH1 0xE1 SHL DUP2 MSTORE PUSH1 0x4 SWAP1 REVERT JUMPDEST POP CALLVALUE PUSH2 0x3C4 JUMPI DUP1 PUSH1 0x3 NOT CALLDATASIZE ADD SLT PUSH2 0x3C4 JUMPI PUSH2 0x3093 PUSH2 0x4B20 JUMP JUMPDEST PUSH1 0xFF NOT PUSH1 0x4F SLOAD AND PUSH1 0x4F SSTORE PUSH32 0x15DE7AD89D29FD1C6D2E6B1E878453569B4080EDF34E0105FAAA3BD52F018530 DUP2 DUP1 LOG1 DUP1 RETURN JUMPDEST POP CALLVALUE PUSH2 0x3C4 JUMPI DUP1 PUSH1 0x3 NOT CALLDATASIZE ADD SLT PUSH2 0x3C4 JUMPI PUSH1 0x20 PUSH1 0x40 MLOAD PUSH1 0x3C DUP2 MSTORE RETURN JUMPDEST POP CALLVALUE PUSH2 0x3C4 JUMPI DUP1 PUSH1 0x3 NOT CALLDATASIZE ADD SLT PUSH2 0x3C4 JUMPI PUSH1 0x3 SLOAD PUSH1 0x40 MLOAD PUSH1 0x1 PUSH1 0x1 PUSH1 0xA0 SHL SUB SWAP1 SWAP2 AND DUP2 MSTORE PUSH1 0x20 SWAP1 RETURN JUMPDEST POP CALLVALUE PUSH2 0x3C4 JUMPI PUSH1 0x20 CALLDATASIZE PUSH1 0x3 NOT ADD SLT PUSH2 0x3C4 JUMPI PUSH1 0x20 SWAP1 PUSH1 0x4 CALLDATALOAD DUP2 MSTORE PUSH1 0x1E DUP3 MSTORE PUSH1 0x40 PUSH1 0x1 DUP1 PUSH1 0xA0 SHL SUB SWAP2 KECCAK256 SLOAD AND PUSH1 0x40 MLOAD SWAP1 DUP2 MSTORE RETURN JUMPDEST POP CALLVALUE PUSH2 0x3C4 JUMPI DUP1 PUSH1 0x3 NOT CALLDATASIZE ADD SLT PUSH2 0x3C4 JUMPI PUSH1 0x20 PUSH2 0x3157 PUSH2 0x45FB JUMP JUMPDEST PUSH1 0x40 MLOAD SWAP1 DUP2 MSTORE RETURN JUMPDEST POP CALLVALUE PUSH2 0x3C4 JUMPI DUP1 PUSH1 0x3 NOT CALLDATASIZE ADD SLT PUSH2 0x3C4 JUMPI PUSH2 0x3178 PUSH2 0x4B59 JUMP JUMPDEST PUSH2 0x104E PUSH2 0x40E9 JUMP JUMPDEST POP CALLVALUE PUSH2 0x3C4 JUMPI DUP1 PUSH1 0x3 NOT CALLDATASIZE ADD SLT PUSH2 0x3C4 JUMPI PUSH1 0x20 PUSH1 0xD SLOAD PUSH1 0x40 MLOAD SWAP1 DUP2 MSTORE RETURN JUMPDEST POP CALLVALUE PUSH2 0x3C4 JUMPI DUP1 PUSH1 0x3 NOT CALLDATASIZE ADD SLT PUSH2 0x3C4 JUMPI PUSH1 0x20 PUSH1 0xFF PUSH1 0x4F SLOAD AND PUSH1 0x40 MLOAD SWAP1 ISZERO ISZERO DUP2 MSTORE RETURN JUMPDEST POP CALLVALUE PUSH2 0x3C4 JUMPI DUP1 PUSH1 0x3 NOT CALLDATASIZE ADD SLT PUSH2 0x3C4 JUMPI PUSH1 0x4F SLOAD PUSH1 0x40 MLOAD PUSH1 0x8 SWAP2 SWAP1 SWAP2 SHR PUSH1 0x1 PUSH1 0x1 PUSH1 0xA0 SHL SUB AND DUP2 MSTORE PUSH1 0x20 SWAP1 RETURN JUMPDEST POP CALLVALUE PUSH2 0x3C4 JUMPI PUSH1 0x20 CALLDATASIZE PUSH1 0x3 NOT ADD SLT PUSH2 0x3C4 JUMPI PUSH1 0x4 CALLDATALOAD SWAP1 PUSH1 0x14 SLOAD DUP3 LT ISZERO PUSH2 0x3C4 JUMPI PUSH1 0x20 DUP2 PUSH1 0x14 PUSH1 0x3 SWAP4 MSTORE KECCAK256 SWAP2 MUL ADD DUP1 SLOAD PUSH2 0x1604 PUSH1 0x2 PUSH1 0x1 DUP5 ADD SLOAD SWAP4 ADD SLOAD PUSH1 0x40 MLOAD SWAP4 DUP5 SWAP4 DUP5 PUSH2 0x3DD0 JUMP JUMPDEST POP CALLVALUE PUSH2 0x3C4 JUMPI DUP1 PUSH1 0x3 NOT CALLDATASIZE ADD SLT PUSH2 0x3C4 JUMPI PUSH1 0x20 PUSH1 0x40 MLOAD PUSH9 0x3635C9ADC5DEA00000 DUP2 MSTORE RETURN JUMPDEST POP CALLVALUE PUSH2 0x3C4 JUMPI DUP1 PUSH1 0x3 NOT CALLDATASIZE ADD SLT PUSH2 0x3C4 JUMPI PUSH1 0x20 PUSH1 0x18 SLOAD PUSH1 0x40 MLOAD SWAP1 DUP2 MSTORE RETURN JUMPDEST POP CALLVALUE PUSH2 0x3C4 JUMPI PUSH1 0x20 CALLDATASIZE PUSH1 0x3 NOT ADD SLT PUSH2 0x3C4 JUMPI PUSH2 0x160 SWAP1 PUSH1 0x1 PUSH1 0x1 PUSH1 0xA0 SHL SUB SWAP1 PUSH1 0x40 SWAP1 DUP3 PUSH2 0x32A3 PUSH2 0x3D4A JUMP JUMPDEST AND DUP2 MSTORE PUSH1 0xF PUSH1 0x20 MSTORE KECCAK256 SWAP1 DUP2 SLOAD AND SWAP1 PUSH1 0x1 DUP2 ADD SLOAD SWAP1 PUSH1 0x2 DUP2 ADD SLOAD PUSH1 0x3 DUP3 ADD SLOAD PUSH1 0x4 DUP4 ADD SLOAD PUSH1 0xFF PUSH1 0x5 DUP6 ADD SLOAD AND PUSH1 0x6 DUP6 ADD SLOAD SWAP2 PUSH1 0x7 DUP7 ADD SLOAD SWAP4 PUSH1 0x8 DUP8 ADD SLOAD SWAP6 PUSH1 0xA PUSH1 0x9 DUP10 ADD SLOAD SWAP9 ADD SLOAD SWAP9 PUSH1 0x40 MLOAD SWAP11 DUP12 MSTORE PUSH1 0x20 DUP12 ADD MSTORE PUSH1 0x40 DUP11 ADD MSTORE PUSH1 0x60 DUP10 ADD MSTORE PUSH1 0x80 DUP9 ADD MSTORE ISZERO ISZERO PUSH1 0xA0 DUP8 ADD MSTORE PUSH1 0xC0 DUP7 ADD MSTORE PUSH1 0xE0 DUP6 ADD MSTORE PUSH2 0x100 DUP5 ADD MSTORE PUSH2 0x120 DUP4 ADD MSTORE PUSH2 0x140 DUP3 ADD MSTORE RETURN JUMPDEST POP CALLVALUE PUSH2 0x3C4 JUMPI PUSH1 0x20 CALLDATASIZE PUSH1 0x3 NOT ADD SLT PUSH2 0x3C4 JUMPI PUSH1 0x20 PUSH2 0x3157 PUSH1 0x4 CALLDATALOAD PUSH2 0x409C JUMP JUMPDEST POP CALLVALUE PUSH2 0x3C4 JUMPI DUP1 PUSH1 0x3 NOT CALLDATASIZE ADD SLT PUSH2 0x3C4 JUMPI PUSH1 0x1 SLOAD PUSH1 0x40 MLOAD PUSH1 0x1 PUSH1 0x1 PUSH1 0xA0 SHL SUB SWAP1 SWAP2 AND DUP2 MSTORE PUSH1 0x20 SWAP1 RETURN JUMPDEST POP CALLVALUE PUSH2 0x3C4 JUMPI DUP1 PUSH1 0x3 NOT CALLDATASIZE ADD SLT PUSH2 0x3C4 JUMPI PUSH1 0x20 SWAP1 PUSH1 0x40 MLOAD SWAP1 DUP2 MSTORE RETURN JUMPDEST POP CALLVALUE PUSH2 0x3C4 JUMPI PUSH1 0x20 DUP1 PUSH1 0x3 NOT CALLDATASIZE ADD SLT PUSH2 0x29B2 JUMPI PUSH1 0x4 CALLDATALOAD PUSH2 0x33AC PUSH2 0x4B59 JUMP JUMPDEST PUSH2 0x33BD PUSH1 0xFF PUSH1 0x16 SLOAD PUSH1 0x8 SHR AND PUSH2 0x4065 JUMP JUMPDEST CALLER DUP4 MSTORE PUSH1 0x11 DUP3 MSTORE PUSH1 0x40 DUP4 KECCAK256 DUP1 SLOAD DUP3 LT DUP1 PUSH2 0x3825 JUMPI JUMPDEST ISZERO PUSH2 0x37F0 JUMPI SWAP1 PUSH2 0x33E1 SWAP2 PUSH2 0x3F28 JUMP JUMPDEST POP SWAP1 PUSH1 0x1 DUP3 ADD SWAP2 DUP3 SLOAD SWAP3 PUSH1 0x2 DUP3 ADD SLOAD SWAP2 PUSH1 0x3 DUP2 ADD SLOAD SWAP5 PUSH1 0x5 DUP3 ADD DUP1 SLOAD SWAP5 CALLER DUP10 MSTORE PUSH1 0xF SWAP8 DUP9 DUP9 MSTORE PUSH1 0x9 PUSH1 0x40 DUP12 KECCAK256 ADD SLOAD PUSH1 0x10 DUP10 MSTORE PUSH1 0x1 PUSH1 0x40 DUP13 KECCAK256 ADD SLOAD PUSH1 0xC SLOAD SWAP2 PUSH1 0x40 MLOAD SWAP4 PUSH2 0x100 DUP6 ADD SWAP6 DUP6 DUP8 LT PUSH1 0x1 DUP1 PUSH1 0x40 SHL SUB DUP9 GT OR PUSH2 0x159E JUMPI PUSH2 0x346E SWAP7 PUSH1 0x40 MSTORE DUP9 DUP7 MSTORE DUP13 DUP7 ADD MSTORE PUSH1 0x40 DUP6 ADD MSTORE DUP10 PUSH1 0x60 DUP6 ADD MSTORE PUSH1 0x80 DUP5 ADD MSTORE PUSH1 0xA0 DUP4 ADD MSTORE PUSH1 0xC0 DUP3 ADD MSTORE PUSH1 0x3C PUSH1 0xE0 DUP3 ADD MSTORE PUSH2 0x4B89 JUMP JUMPDEST SWAP5 SWAP2 SWAP3 SWAP1 SWAP7 DUP4 SWAP6 ISZERO PUSH2 0x37BD JUMPI DUP4 PUSH2 0x3484 SWAP2 PUSH2 0x402B JUMP JUMPDEST SWAP1 SSTORE PUSH1 0x4 DUP2 ADD DUP1 SLOAD PUSH1 0xFF NOT AND SWAP1 SSTORE DUP9 SLOAD PUSH1 0x1 PUSH1 0x1 PUSH1 0xA0 SHL SUB SWAP4 PUSH2 0x34AF SWAP2 DUP9 SWAP2 SWAP1 ADDRESS SWAP1 CALLER SWAP1 DUP9 AND PUSH2 0x4C7B JUMP JUMPDEST ISZERO PUSH2 0x3788 JUMPI PUSH2 0x34C4 SWAP1 DUP7 PUSH2 0x375A JUMPI JUMPDEST SLOAD PUSH2 0x4EE5 JUMP JUMPDEST DUP1 PUSH2 0x34F6 JUMPI JUMPDEST POP POP POP SLOAD SWAP1 PUSH1 0x40 MLOAD SWAP2 DUP3 MSTORE DUP3 DUP3 ADD MSTORE PUSH1 0x0 DUP1 MLOAD PUSH1 0x20 PUSH2 0x6132 DUP4 CODECOPY DUP2 MLOAD SWAP2 MSTORE PUSH1 0x40 CALLER SWAP3 LOG2 PUSH2 0x1035 CALLER PUSH2 0x5079 JUMP JUMPDEST CALLER DUP9 MSTORE DUP7 DUP7 MSTORE PUSH2 0x3513 PUSH1 0x40 DUP10 KECCAK256 PUSH1 0x3 PUSH1 0x4 DUP3 ADD SLOAD SWAP2 ADD SLOAD SWAP1 PUSH2 0x4058 JUMP JUMPDEST DUP1 SWAP2 GT PUSH2 0x3752 JUMPI JUMPDEST POP DUP2 PUSH2 0x3528 JUMPI JUMPDEST DUP1 PUSH2 0x34CA JUMP JUMPDEST CALLER DUP8 MSTORE DUP6 DUP6 MSTORE PUSH1 0x3 PUSH1 0x40 DUP9 KECCAK256 ADD PUSH2 0x3540 DUP4 DUP3 SLOAD PUSH2 0x402B JUMP JUMPDEST SWAP1 SSTORE DUP2 PUSH1 0x1 SHR SWAP1 DUP1 DUP9 SLOAD AND SWAP2 PUSH1 0x40 MLOAD SWAP3 PUSH4 0x70A08231 PUSH1 0xE0 SHL SWAP4 DUP5 DUP2 MSTORE ADDRESS PUSH1 0x4 DUP3 ADD MSTORE DUP9 DUP2 PUSH1 0x24 DUP2 DUP6 GAS STATICCALL DUP1 ISZERO PUSH2 0x12DE JUMPI DUP4 SWAP2 DUP13 SWAP2 PUSH2 0x3721 JUMPI JUMPDEST POP LT ISZERO DUP1 PUSH2 0x3718 JUMPI JUMPDEST PUSH2 0x36CB JUMPI JUMPDEST POP PUSH2 0x359A PUSH2 0x3593 PUSH2 0x45FB JUMP JUMPDEST SWAP2 DUP6 PUSH2 0x4058 JUMP JUMPDEST PUSH8 0xDE0B6B3A7640000 SWAP1 DUP2 DUP2 MUL SWAP2 DUP2 DUP4 DIV EQ SWAP1 ISZERO OR ISZERO PUSH2 0x36B7 JUMPI DUP10 SWAP4 SWAP3 SWAP2 PUSH2 0x35C1 SWAP2 PUSH2 0x4038 JUMP JUMPDEST SWAP1 PUSH1 0x1 SLOAD AND PUSH1 0x40 MLOAD SWAP3 DUP4 MSTORE ADDRESS PUSH1 0x4 DUP5 ADD MSTORE DUP8 DUP4 PUSH1 0x24 DUP2 DUP5 GAS STATICCALL DUP1 ISZERO PUSH2 0x6D7 JUMPI DUP9 SWAP4 DUP6 SWAP2 PUSH2 0x3682 JUMPI JUMPDEST POP DUP3 GT ISZERO DUP1 PUSH2 0x3679 JUMPI JUMPDEST PUSH2 0x3623 JUMPI JUMPDEST POP POP POP POP PUSH1 0x40 MLOAD SWAP1 DUP2 MSTORE PUSH1 0x0 DUP5 DUP3 ADD MSTORE PUSH1 0x0 DUP1 MLOAD PUSH1 0x20 PUSH2 0x60F2 DUP4 CODECOPY DUP2 MLOAD SWAP2 MSTORE PUSH1 0x40 CALLER SWAP3 LOG2 CODESIZE DUP1 PUSH2 0x3522 JUMP JUMPDEST PUSH2 0x3644 SWAP2 PUSH1 0x40 MLOAD SWAP5 DUP6 DUP1 SWAP5 DUP2 SWAP4 PUSH4 0xA9059CBB PUSH1 0xE0 SHL DUP4 MSTORE CALLER PUSH1 0x4 DUP5 ADD PUSH2 0x3F0D JUMP JUMPDEST SUB SWAP3 GAS CALL DUP1 ISZERO PUSH2 0x3023 JUMPI PUSH2 0x365C JUMPI JUMPDEST DUP5 DUP2 DUP9 SWAP3 PUSH2 0x35F8 JUMP JUMPDEST PUSH2 0x3672 SWAP1 DUP6 RETURNDATASIZE DUP8 GT PUSH2 0x6D0 JUMPI PUSH2 0x6C1 DUP2 DUP4 PUSH2 0x3E39 JUMP JUMPDEST POP CODESIZE PUSH2 0x3653 JUMP JUMPDEST POP DUP2 ISZERO ISZERO PUSH2 0x35F3 JUMP JUMPDEST SWAP4 DUP1 SWAP3 SWAP6 POP DUP5 SWAP2 POP RETURNDATASIZE DUP4 GT PUSH2 0x36B0 JUMPI JUMPDEST PUSH2 0x369C DUP2 DUP4 PUSH2 0x3E39 JUMP JUMPDEST DUP2 ADD SUB SLT PUSH2 0xC73 JUMPI DUP9 SWAP3 DUP2 DUP9 SWAP4 MLOAD SWAP1 PUSH2 0x35E9 JUMP JUMPDEST POP RETURNDATASIZE PUSH2 0x3692 JUMP JUMPDEST PUSH4 0x4E487B71 PUSH1 0xE0 SHL DUP11 MSTORE PUSH1 0x11 PUSH1 0x4 MSTORE PUSH1 0x24 DUP11 REVERT JUMPDEST DUP8 PUSH1 0x40 MLOAD DUP1 SWAP3 PUSH4 0xA9059CBB PUSH1 0xE0 SHL DUP3 MSTORE DUP2 DUP14 DUP2 PUSH2 0x36EC DUP9 CALLER PUSH1 0x4 DUP5 ADD PUSH2 0x3F0D JUMP JUMPDEST SUB SWAP3 GAS CALL DUP1 ISZERO PUSH2 0x1356 JUMPI ISZERO PUSH2 0x3587 JUMPI PUSH2 0x3711 SWAP1 DUP9 RETURNDATASIZE DUP11 GT PUSH2 0x6D0 JUMPI PUSH2 0x6C1 DUP2 DUP4 PUSH2 0x3E39 JUMP JUMPDEST POP CODESIZE PUSH2 0x3587 JUMP JUMPDEST POP DUP2 ISZERO ISZERO PUSH2 0x3582 JUMP JUMPDEST DUP1 SWAP3 POP DUP11 DUP1 SWAP3 POP RETURNDATASIZE DUP4 GT PUSH2 0x374B JUMPI JUMPDEST PUSH2 0x373A DUP2 DUP4 PUSH2 0x3E39 JUMP JUMPDEST DUP2 ADD SUB SLT PUSH2 0xC73 JUMPI DUP3 SWAP1 MLOAD CODESIZE PUSH2 0x3579 JUMP JUMPDEST POP RETURNDATASIZE PUSH2 0x3730 JUMP JUMPDEST SWAP2 POP CODESIZE PUSH2 0x351B JUMP JUMPDEST PUSH2 0x3766 DUP8 PUSH1 0x17 SLOAD PUSH2 0x402B JUMP JUMPDEST PUSH1 0x17 SSTORE CALLER DUP11 MSTORE DUP9 DUP9 MSTORE PUSH1 0x6 PUSH1 0x40 DUP12 KECCAK256 ADD PUSH2 0x3781 DUP9 DUP3 SLOAD PUSH2 0x402B JUMP JUMPDEST SWAP1 SSTORE PUSH2 0x34BE JUMP JUMPDEST PUSH1 0x64 DUP8 DUP10 PUSH1 0x40 MLOAD SWAP2 PUSH3 0x461BCD PUSH1 0xE5 SHL DUP4 MSTORE PUSH1 0x4 DUP4 ADD MSTORE PUSH1 0x24 DUP3 ADD MSTORE PUSH15 0x151C985B9CD9995C8819985A5B1959 PUSH1 0x8A SHL PUSH1 0x44 DUP3 ADD MSTORE REVERT JUMPDEST PUSH1 0x40 MLOAD PUSH3 0x461BCD PUSH1 0xE5 SHL DUP2 MSTORE PUSH1 0x4 DUP2 ADD DUP11 SWAP1 MSTORE PUSH1 0xB PUSH1 0x24 DUP3 ADD MSTORE PUSH11 0x139BDD08195E1C1A5C9959 PUSH1 0xAA SHL PUSH1 0x44 DUP3 ADD MSTORE PUSH1 0x64 SWAP1 REVERT JUMPDEST PUSH1 0x40 MLOAD PUSH3 0x461BCD PUSH1 0xE5 SHL DUP2 MSTORE PUSH1 0x4 DUP2 ADD DUP5 SWAP1 MSTORE PUSH1 0xD PUSH1 0x24 DUP3 ADD MSTORE PUSH13 0x496E76616C6964207374616B65 PUSH1 0x98 SHL PUSH1 0x44 DUP3 ADD MSTORE PUSH1 0x64 SWAP1 REVERT JUMPDEST POP PUSH1 0xFF PUSH1 0x4 PUSH2 0x3834 DUP5 DUP5 PUSH2 0x3F28 JUMP JUMPDEST POP ADD SLOAD AND PUSH2 0x33D2 JUMP JUMPDEST POP CALLVALUE PUSH2 0x3C4 JUMPI DUP1 PUSH1 0x3 NOT CALLDATASIZE ADD SLT PUSH2 0x3C4 JUMPI PUSH1 0x20 PUSH1 0x40 MLOAD PUSH1 0x2 DUP2 MSTORE RETURN JUMPDEST POP CALLVALUE PUSH2 0x3C4 JUMPI PUSH1 0x20 DUP1 PUSH1 0x3 NOT CALLDATASIZE ADD SLT PUSH2 0x29B2 JUMPI PUSH1 0x4 CALLDATALOAD SWAP1 PUSH2 0x3878 PUSH2 0x4B59 JUMP JUMPDEST PUSH2 0x3887 PUSH1 0xFF PUSH1 0x4F SLOAD AND ISZERO PUSH2 0x3F87 JUMP JUMPDEST DUP2 ISZERO PUSH2 0x260C JUMPI PUSH9 0x3635C9ADC5DEA00000 DUP1 PUSH1 0x17 SLOAD LT SWAP1 DUP2 ISZERO PUSH2 0x3AAB JUMPI JUMPDEST POP PUSH2 0x2957 JUMPI DUP3 SLOAD PUSH1 0x40 MLOAD PUSH4 0x23B872DD PUSH1 0xE0 SHL DUP2 MSTORE PUSH1 0x1 PUSH1 0x1 PUSH1 0xA0 SHL SUB SWAP2 DUP4 SWAP1 DUP3 SWAP1 DUP5 AND DUP2 DUP9 DUP2 PUSH2 0x38D9 DUP11 ADDRESS CALLER PUSH1 0x4 DUP6 ADD PUSH2 0x3FE0 JUMP JUMPDEST SUB SWAP3 GAS CALL DUP1 ISZERO PUSH2 0x755 JUMPI PUSH2 0x3A8E JUMPI JUMPDEST POP PUSH1 0x18 SLOAD SWAP1 PUSH2 0x38F7 DUP3 DUP6 PUSH2 0x4002 JUMP JUMPDEST SWAP1 PUSH2 0x3909 PUSH1 0x17 SLOAD SWAP3 PUSH2 0x285C DUP8 DUP6 PUSH2 0x402B JUMP JUMPDEST SWAP3 PUSH2 0x2710 DUP7 MUL PUSH2 0x270F NOT DUP8 DUP3 DIV ADD PUSH2 0x3A7A JUMPI PUSH2 0x3928 DUP5 PUSH2 0x3E8 SWAP3 PUSH2 0x4038 JUMP JUMPDEST GT PUSH2 0x260C JUMPI PUSH1 0x64 PUSH2 0x393B PUSH1 0xD SLOAD DUP7 PUSH2 0x4002 JUMP JUMPDEST DIV SWAP4 PUSH2 0x3947 DUP6 DUP3 PUSH2 0x4058 JUMP JUMPDEST SWAP4 DUP4 PUSH1 0x1 SLOAD AND SWAP2 PUSH1 0x40 MLOAD PUSH4 0x70A08231 PUSH1 0xE0 SHL DUP2 MSTORE ADDRESS PUSH1 0x4 DUP3 ADD MSTORE DUP9 DUP2 PUSH1 0x24 DUP2 DUP8 GAS STATICCALL DUP1 ISZERO PUSH2 0x12DE JUMPI DUP3 SWAP2 DUP13 SWAP2 PUSH2 0x3A45 JUMPI JUMPDEST POP LT PUSH2 0x2957 JUMPI DUP10 SWAP4 PUSH2 0x398D DUP11 PUSH2 0x3995 SWAP5 PUSH2 0x402B JUMP JUMPDEST PUSH1 0x17 SSTORE PUSH2 0x4058 JUMP JUMPDEST PUSH1 0x18 SSTORE DUP1 EXTCODESIZE ISZERO PUSH2 0x29B2 JUMPI DUP2 SWAP1 PUSH1 0x24 PUSH1 0x40 MLOAD DUP1 SWAP5 DUP2 SWAP4 PUSH4 0x852CD8D PUSH1 0xE3 SHL DUP4 MSTORE DUP10 PUSH1 0x4 DUP5 ADD MSTORE GAS CALL DUP1 ISZERO PUSH2 0x3023 JUMPI PUSH2 0x3A32 JUMPI JUMPDEST POP PUSH1 0x1 SLOAD AND SWAP3 DUP1 PUSH1 0x40 MLOAD DUP1 SWAP6 PUSH4 0xA9059CBB PUSH1 0xE0 SHL DUP3 MSTORE DUP2 DUP10 DUP2 PUSH2 0x39EE DUP9 CALLER PUSH1 0x4 DUP5 ADD PUSH2 0x3F0D JUMP JUMPDEST SUB SWAP3 GAS CALL SWAP4 DUP5 ISZERO PUSH2 0x294C JUMPI PUSH32 0x36864AEEFCE16BC4AACEEB6B0CDFB2AD1455A8CB4CCB0DB148A2BC6E7166F97C SWAP5 PUSH2 0x292E JUMPI POP POP PUSH2 0x2916 PUSH1 0x40 MLOAD SWAP3 DUP4 SWAP3 CALLER SWAP7 DUP5 PUSH2 0x3DD0 JUMP JUMPDEST PUSH2 0x3A3E SWAP1 SWAP7 SWAP2 SWAP7 PUSH2 0x3E26 JUMP JUMPDEST SWAP5 CODESIZE PUSH2 0x39C7 JUMP JUMPDEST DUP1 SWAP3 POP DUP11 DUP1 SWAP3 POP RETURNDATASIZE DUP4 GT PUSH2 0x3A73 JUMPI JUMPDEST PUSH2 0x3A5E DUP2 DUP4 PUSH2 0x3E39 JUMP JUMPDEST DUP2 ADD SUB SLT PUSH2 0x3A6F JUMPI DUP2 SWAP1 MLOAD CODESIZE PUSH2 0x3978 JUMP JUMPDEST DUP11 DUP1 REVERT JUMPDEST POP RETURNDATASIZE PUSH2 0x3A54 JUMP JUMPDEST PUSH4 0x4E487B71 PUSH1 0xE0 SHL DUP9 MSTORE PUSH1 0x11 PUSH1 0x4 MSTORE PUSH1 0x24 DUP9 REVERT JUMPDEST PUSH2 0x3AA4 SWAP1 DUP4 RETURNDATASIZE DUP6 GT PUSH2 0x6D0 JUMPI PUSH2 0x6C1 DUP2 DUP4 PUSH2 0x3E39 JUMP JUMPDEST POP CODESIZE PUSH2 0x38E8 JUMP JUMPDEST SWAP1 POP PUSH1 0x18 SLOAD LT CODESIZE PUSH2 0x38A4 JUMP JUMPDEST POP CALLVALUE PUSH2 0x3C4 JUMPI PUSH1 0x40 CALLDATASIZE PUSH1 0x3 NOT ADD SLT PUSH2 0x3C4 JUMPI PUSH2 0x3AD1 PUSH2 0x3D4A JUMP JUMPDEST PUSH1 0x1 PUSH1 0x1 PUSH1 0xA0 SHL SUB SWAP1 DUP2 AND DUP3 MSTORE PUSH1 0x12 PUSH1 0x20 MSTORE PUSH1 0x40 DUP3 KECCAK256 DUP1 SLOAD PUSH1 0x24 CALLDATALOAD SWAP4 SWAP1 DUP5 LT ISZERO PUSH2 0x3C4 JUMPI POP PUSH1 0x20 SWAP3 PUSH2 0x3B02 SWAP2 PUSH2 0x3DA2 JUMP JUMPDEST SWAP2 SWAP1 SLOAD PUSH1 0x40 MLOAD SWAP3 PUSH1 0x3 SHL SHR AND DUP2 MSTORE RETURN JUMPDEST POP CALLVALUE PUSH2 0x3C4 JUMPI PUSH1 0x20 DUP1 PUSH1 0x3 NOT CALLDATASIZE ADD SLT PUSH2 0x29B2 JUMPI PUSH2 0x3B2D PUSH2 0x3D4A JUMP JUMPDEST CALLER DUP4 MSTORE PUSH1 0xF DUP1 DUP4 MSTORE PUSH1 0x40 DUP5 KECCAK256 SLOAD PUSH1 0x1 PUSH1 0x1 PUSH1 0xA0 SHL SUB SWAP3 SWAP1 DUP4 AND PUSH2 0x3C65 JUMPI DUP3 AND SWAP3 CALLER DUP5 EQ PUSH2 0x3C53 JUMPI DUP4 ISZERO PUSH2 0x3C41 JUMPI CALLER DUP1 DUP7 MSTORE DUP3 DUP3 MSTORE PUSH1 0x40 DUP1 DUP8 KECCAK256 DUP1 SLOAD PUSH1 0x1 PUSH1 0x1 PUSH1 0xA0 SHL SUB NOT AND DUP8 OR SWAP1 SSTORE DUP6 DUP8 MSTORE PUSH1 0x12 DUP4 MSTORE DUP7 KECCAK256 PUSH2 0x3B89 SWAP2 SWAP1 PUSH2 0x3F44 JUMP JUMPDEST CALLER DUP6 MSTORE DUP2 DUP2 MSTORE DUP3 PUSH1 0x40 DUP7 KECCAK256 SLOAD AND SWAP4 DUP4 DUP7 SWAP6 JUMPDEST AND DUP1 ISZERO ISZERO DUP1 PUSH2 0x3C37 JUMPI JUMPDEST ISZERO PUSH2 0x3C0D JUMPI DUP1 DUP8 MSTORE DUP4 DUP4 MSTORE PUSH1 0x2 DUP1 PUSH1 0x40 DUP10 KECCAK256 ADD SLOAD SWAP1 PUSH1 0x1 DUP3 ADD SWAP1 DUP2 DUP4 GT PUSH2 0x36B7 JUMPI DUP4 SWAP3 DUP3 PUSH1 0x0 DUP1 MLOAD PUSH1 0x20 PUSH2 0x6032 DUP4 CODECOPY DUP2 MLOAD SWAP2 MSTORE SWAP4 PUSH1 0x40 SWAP4 DUP5 DUP15 DUP9 DUP2 MSTORE DUP13 DUP13 MSTORE KECCAK256 ADD SSTORE DUP3 MLOAD SWAP2 DUP3 MSTORE DUP8 DUP3 ADD MSTORE LOG2 DUP7 MSTORE DUP3 DUP3 MSTORE DUP4 PUSH2 0x3C07 DUP2 PUSH1 0x40 DUP10 KECCAK256 SLOAD AND SWAP7 PUSH2 0x46E3 JUMP JUMPDEST SWAP6 PUSH2 0x3B9B JUMP JUMPDEST DUP7 DUP3 CALLER PUSH32 0xA6DBB5AA28F35437DE94D685D66EDCE5FB4812196B4984B91DFD5A7B38C0FB30 DUP4 DUP1 LOG3 DUP1 RETURN JUMPDEST POP PUSH1 0x1E DUP7 LT PUSH2 0x3BA5 JUMP JUMPDEST PUSH1 0x40 MLOAD PUSH4 0xE6C4247B PUSH1 0xE0 SHL DUP2 MSTORE PUSH1 0x4 SWAP1 REVERT JUMPDEST PUSH1 0x40 MLOAD PUSH4 0x1ACADE89 PUSH1 0xE3 SHL DUP2 MSTORE PUSH1 0x4 SWAP1 REVERT JUMPDEST PUSH1 0x40 MLOAD PUSH4 0x682A9065 PUSH1 0xE0 SHL DUP2 MSTORE PUSH1 0x4 SWAP1 REVERT JUMPDEST POP CALLVALUE PUSH2 0x3C4 JUMPI DUP1 PUSH1 0x3 NOT CALLDATASIZE ADD SLT PUSH2 0x3C4 JUMPI PUSH1 0x20 PUSH1 0xB SLOAD PUSH1 0x40 MLOAD SWAP1 DUP2 MSTORE RETURN JUMPDEST POP CALLVALUE PUSH2 0x3C4 JUMPI PUSH1 0x40 CALLDATASIZE PUSH1 0x3 NOT ADD SLT PUSH2 0x3C4 JUMPI PUSH1 0x4 CALLDATALOAD DUP1 ISZERO ISZERO DUP1 SWAP2 SUB PUSH2 0x29B2 JUMPI PUSH1 0x20 PUSH32 0x3CB373F89DE891077FE47CEC43663B6727713DE0337AF46BEBD1178122251B7 SWAP2 PUSH32 0xB886FCB5B9C12916F26D967EBE962DBD51EC249FB55961DA39C851CDFC10115C DUP3 PUSH2 0x3D02 PUSH2 0x3D3B JUMP JUMPDEST SWAP3 PUSH2 0x3D0B PUSH2 0x4B20 JUMP JUMPDEST PUSH1 0x16 SLOAD SWAP4 ISZERO ISZERO SWAP4 PUSH2 0xFF00 DUP6 PUSH1 0x8 SHL AND SWAP1 PUSH1 0xFF DUP4 AND SWAP1 PUSH2 0xFFFF NOT AND OR OR PUSH1 0x16 SSTORE PUSH1 0x40 MLOAD SWAP1 DUP2 MSTORE LOG1 PUSH1 0x40 MLOAD SWAP1 DUP2 MSTORE LOG1 DUP1 RETURN JUMPDEST PUSH1 0x24 CALLDATALOAD SWAP1 DUP2 ISZERO ISZERO DUP3 SUB PUSH2 0xC73 JUMPI JUMP JUMPDEST PUSH1 0x4 CALLDATALOAD SWAP1 PUSH1 0x1 PUSH1 0x1 PUSH1 0xA0 SHL SUB DUP3 AND DUP3 SUB PUSH2 0xC73 JUMPI JUMP JUMPDEST PUSH1 0x24 CALLDATALOAD SWAP1 PUSH1 0x1 PUSH1 0x1 PUSH1 0xA0 SHL SUB DUP3 AND DUP3 SUB PUSH2 0xC73 JUMPI JUMP JUMPDEST PUSH1 0x44 CALLDATALOAD SWAP1 PUSH1 0x1 PUSH1 0x1 PUSH1 0xA0 SHL SUB DUP3 AND DUP3 SUB PUSH2 0xC73 JUMPI JUMP JUMPDEST PUSH1 0x64 CALLDATALOAD SWAP1 PUSH1 0x1 PUSH1 0x1 PUSH1 0xA0 SHL SUB DUP3 AND DUP3 SUB PUSH2 0xC73 JUMPI JUMP JUMPDEST DUP1 SLOAD DUP3 LT ISZERO PUSH2 0x3DBA JUMPI PUSH1 0x0 MSTORE PUSH1 0x20 PUSH1 0x0 KECCAK256 ADD SWAP1 PUSH1 0x0 SWAP1 JUMP JUMPDEST PUSH4 0x4E487B71 PUSH1 0xE0 SHL PUSH1 0x0 MSTORE PUSH1 0x32 PUSH1 0x4 MSTORE PUSH1 0x24 PUSH1 0x0 REVERT JUMPDEST PUSH1 0x40 SWAP2 SWAP5 SWAP4 SWAP3 PUSH1 0x60 DUP3 ADD SWAP6 DUP3 MSTORE PUSH1 0x20 DUP3 ADD MSTORE ADD MSTORE JUMP JUMPDEST CALLVALUE PUSH2 0xC73 JUMPI PUSH1 0x20 CALLDATASIZE PUSH1 0x3 NOT ADD SLT PUSH2 0xC73 JUMPI PUSH1 0x40 PUSH2 0x3E04 PUSH1 0x4 CALLDATALOAD PUSH2 0x5538 JUMP JUMPDEST DUP3 MLOAD SWAP2 DUP3 MSTORE PUSH1 0x20 DUP3 ADD MSTORE RETURN JUMPDEST PUSH1 0x40 SWAP1 PUSH1 0x3 NOT ADD SLT PUSH2 0xC73 JUMPI PUSH1 0x4 CALLDATALOAD SWAP1 PUSH1 0x24 CALLDATALOAD SWAP1 JUMP JUMPDEST PUSH1 0x1 PUSH1 0x1 PUSH1 0x40 SHL SUB DUP2 GT PUSH2 0x159E JUMPI PUSH1 0x40 MSTORE JUMP JUMPDEST PUSH1 0x1F SWAP1 SWAP2 ADD PUSH1 0x1F NOT AND DUP2 ADD SWAP1 PUSH1 0x1 PUSH1 0x1 PUSH1 0x40 SHL SUB DUP3 GT SWAP1 DUP3 LT OR PUSH2 0x159E JUMPI PUSH1 0x40 MSTORE JUMP JUMPDEST PUSH1 0x1 PUSH1 0x1 PUSH1 0x40 SHL SUB DUP2 GT PUSH2 0x159E JUMPI PUSH1 0x1F ADD PUSH1 0x1F NOT AND PUSH1 0x20 ADD SWAP1 JUMP JUMPDEST SWAP2 DUP2 PUSH1 0x1F DUP5 ADD SLT ISZERO PUSH2 0xC73 JUMPI DUP3 CALLDATALOAD SWAP2 PUSH1 0x1 PUSH1 0x1 PUSH1 0x40 SHL SUB DUP4 GT PUSH2 0xC73 JUMPI PUSH1 0x20 DUP1 DUP6 ADD SWAP5 DUP5 PUSH1 0x5 SHL ADD ADD GT PUSH2 0xC73 JUMPI JUMP JUMPDEST PUSH1 0x40 PUSH1 0x3 NOT DUP3 ADD SLT PUSH2 0xC73 JUMPI PUSH1 0x1 PUSH1 0x1 PUSH1 0x40 SHL SUB SWAP2 PUSH1 0x4 CALLDATALOAD DUP4 DUP2 GT PUSH2 0xC73 JUMPI DUP3 PUSH2 0x3ED3 SWAP2 PUSH1 0x4 ADD PUSH2 0x3E77 JUMP JUMPDEST SWAP4 SWAP1 SWAP4 SWAP3 PUSH1 0x24 CALLDATALOAD SWAP2 DUP3 GT PUSH2 0xC73 JUMPI PUSH2 0x3EED SWAP2 PUSH1 0x4 ADD PUSH2 0x3E77 JUMP JUMPDEST SWAP1 SWAP2 JUMP JUMPDEST DUP1 SLOAD DUP3 LT ISZERO PUSH2 0x3DBA JUMPI PUSH1 0x0 MSTORE PUSH1 0x20 PUSH1 0x0 KECCAK256 SWAP1 PUSH1 0x1 SHL ADD SWAP1 PUSH1 0x0 SWAP1 JUMP JUMPDEST PUSH1 0x1 PUSH1 0x1 PUSH1 0xA0 SHL SUB SWAP1 SWAP2 AND DUP2 MSTORE PUSH1 0x20 DUP2 ADD SWAP2 SWAP1 SWAP2 MSTORE PUSH1 0x40 ADD SWAP1 JUMP JUMPDEST DUP1 SLOAD DUP3 LT ISZERO PUSH2 0x3DBA JUMPI PUSH1 0x0 MSTORE PUSH1 0x6 PUSH1 0x20 PUSH1 0x0 KECCAK256 SWAP2 MUL ADD SWAP1 PUSH1 0x0 SWAP1 JUMP JUMPDEST DUP1 SLOAD SWAP2 SWAP1 PUSH1 0x1 PUSH1 0x40 SHL DUP4 LT ISZERO PUSH2 0x159E JUMPI DUP3 PUSH2 0x3F67 SWAP2 PUSH1 0x1 PUSH2 0x3F85 SWAP6 ADD DUP2 SSTORE PUSH2 0x3DA2 JUMP JUMPDEST SWAP1 SWAP2 SWAP1 PUSH1 0x1 DUP1 PUSH1 0xA0 SHL SUB DUP1 DUP5 SLOAD SWAP3 PUSH1 0x3 SHL SWAP4 AND DUP4 SHL SWAP3 SHL NOT AND OR SWAP1 SSTORE JUMP JUMPDEST JUMP JUMPDEST ISZERO PUSH2 0x3F8E JUMPI JUMP JUMPDEST PUSH1 0x40 MLOAD PUSH3 0x461BCD PUSH1 0xE5 SHL DUP2 MSTORE PUSH1 0x20 PUSH1 0x4 DUP3 ADD MSTORE PUSH1 0x12 PUSH1 0x24 DUP3 ADD MSTORE PUSH18 0x10DBDB9D1C9858DD081A5CC81C185D5CD959 PUSH1 0x72 SHL PUSH1 0x44 DUP3 ADD MSTORE PUSH1 0x64 SWAP1 REVERT JUMPDEST SWAP1 DUP2 PUSH1 0x20 SWAP2 SUB SLT PUSH2 0xC73 JUMPI MLOAD DUP1 ISZERO ISZERO DUP2 SUB PUSH2 0xC73 JUMPI SWAP1 JUMP JUMPDEST PUSH1 0x1 PUSH1 0x1 PUSH1 0xA0 SHL SUB SWAP2 DUP3 AND DUP2 MSTORE SWAP2 AND PUSH1 0x20 DUP3 ADD MSTORE PUSH1 0x40 DUP2 ADD SWAP2 SWAP1 SWAP2 MSTORE PUSH1 0x60 ADD SWAP1 JUMP JUMPDEST DUP2 DUP2 MUL SWAP3 SWAP2 DUP2 ISZERO SWAP2 DUP5 DIV EQ OR ISZERO PUSH2 0x4015 JUMPI JUMP JUMPDEST PUSH4 0x4E487B71 PUSH1 0xE0 SHL PUSH1 0x0 MSTORE PUSH1 0x11 PUSH1 0x4 MSTORE PUSH1 0x24 PUSH1 0x0 REVERT JUMPDEST SWAP2 SWAP1 DUP3 ADD DUP1 SWAP3 GT PUSH2 0x4015 JUMPI JUMP JUMPDEST DUP2 ISZERO PUSH2 0x4042 JUMPI DIV SWAP1 JUMP JUMPDEST PUSH4 0x4E487B71 PUSH1 0xE0 SHL PUSH1 0x0 MSTORE PUSH1 0x12 PUSH1 0x4 MSTORE PUSH1 0x24 PUSH1 0x0 REVERT JUMPDEST SWAP2 SWAP1 DUP3 SUB SWAP2 DUP3 GT PUSH2 0x4015 JUMPI JUMP JUMPDEST ISZERO PUSH2 0x406C JUMPI JUMP JUMPDEST PUSH1 0x40 MLOAD PUSH3 0x461BCD PUSH1 0xE5 SHL DUP2 MSTORE PUSH1 0x20 PUSH1 0x4 DUP3 ADD MSTORE PUSH1 0x8 PUSH1 0x24 DUP3 ADD MSTORE PUSH8 0x111A5CD8589B1959 PUSH1 0xC2 SHL PUSH1 0x44 DUP3 ADD MSTORE PUSH1 0x64 SWAP1 REVERT JUMPDEST PUSH1 0x3 DUP2 LT ISZERO PUSH2 0x40C6 JUMPI PUSH1 0x2 DUP2 LT ISZERO PUSH2 0x40C0 JUMPI PUSH1 0x1 GT ISZERO PUSH2 0x40BB JUMPI PUSH1 0x0 SWAP1 JUMP JUMPDEST PUSH1 0x5 SWAP1 JUMP JUMPDEST POP PUSH1 0xA SWAP1 JUMP JUMPDEST POP PUSH1 0xF SWAP1 JUMP JUMPDEST PUSH1 0x60 SWAP2 SWAP5 SWAP4 SWAP3 PUSH1 0x80 DUP3 ADD SWAP6 DUP3 MSTORE PUSH1 0x20 DUP3 ADD MSTORE PUSH1 0x0 PUSH1 0x40 DUP3 ADD MSTORE ADD MSTORE JUMP JUMPDEST PUSH1 0x0 CALLER DUP2 MSTORE PUSH1 0x20 SWAP1 PUSH1 0x10 DUP3 MSTORE PUSH1 0x40 SWAP1 DUP2 DUP2 KECCAK256 SWAP3 PUSH1 0x1 DUP1 DUP6 ADD SLOAD ISZERO DUP1 ISZERO PUSH2 0x45ED JUMPI JUMPDEST PUSH2 0x45DC JUMPI CALLER DUP4 MSTORE PUSH1 0x11 DUP3 MSTORE DUP4 DUP4 KECCAK256 DUP4 SWAP2 SWAP1 DUP3 DUP3 JUMPDEST PUSH2 0x4462 JUMPI JUMPDEST POP POP DUP2 ISZERO PUSH2 0x4451 JUMPI CALLER DUP5 MSTORE PUSH1 0xF DUP4 MSTORE PUSH2 0x4142 DUP3 PUSH1 0x3 DUP8 DUP8 KECCAK256 ADD SLOAD PUSH2 0x402B JUMP JUMPDEST SWAP6 CALLER DUP6 MSTORE PUSH1 0xF DUP5 MSTORE DUP6 DUP6 KECCAK256 SWAP7 PUSH1 0x4 SWAP8 DUP9 DUP2 ADD SLOAD DUP1 SWAP3 GT PUSH2 0x4439 JUMPI JUMPDEST POP POP DUP3 ISZERO PUSH2 0x4429 JUMPI CALLER DUP6 MSTORE PUSH1 0xF DUP5 MSTORE PUSH1 0x3 DUP7 DUP7 KECCAK256 ADD PUSH2 0x417D DUP5 DUP3 SLOAD PUSH2 0x402B JUMP JUMPDEST SWAP1 SSTORE DUP5 SLOAD DUP7 MLOAD PUSH4 0x70A08231 PUSH1 0xE0 SHL DUP1 DUP3 MSTORE ADDRESS DUP11 DUP4 ADD MSTORE DUP8 SWAP6 SWAP3 PUSH1 0x1 PUSH1 0x1 PUSH1 0xA0 SHL SUB SWAP3 DUP5 DUP8 SHR SWAP2 DUP5 AND SWAP1 DUP10 DUP2 PUSH1 0x24 DUP2 DUP6 GAS STATICCALL SWAP1 DUP2 ISZERO PUSH2 0x441F JUMPI DUP12 DUP14 DUP16 SWAP3 DUP14 SWAP6 SWAP5 DUP8 SWAP2 DUP5 SWAP2 PUSH2 0x43E6 JUMPI JUMPDEST POP LT ISZERO DUP1 PUSH2 0x43DD JUMPI JUMPDEST PUSH2 0x4380 JUMPI JUMPDEST POP POP POP POP POP PUSH2 0x41E0 PUSH2 0x45FB JUMP JUMPDEST SWAP1 PUSH8 0xDE0B6B3A7640000 SWAP1 DUP2 DUP2 MUL SWAP2 DUP2 DUP4 DIV EQ SWAP1 ISZERO OR ISZERO PUSH2 0x436D JUMPI SWAP1 PUSH2 0x4205 SWAP2 PUSH2 0x4038 JUMP JUMPDEST SWAP2 DUP9 SWAP6 SLOAD AND SWAP1 DUP10 MLOAD SWAP1 DUP2 MSTORE ADDRESS DUP12 DUP3 ADD MSTORE DUP8 DUP2 PUSH1 0x24 DUP2 DUP6 GAS STATICCALL SWAP1 DUP2 ISZERO PUSH2 0x4363 JUMPI SWAP1 DUP4 SWAP2 DUP11 SWAP2 PUSH2 0x432E JUMPI JUMPDEST POP LT ISZERO DUP1 PUSH2 0x4325 JUMPI JUMPDEST PUSH2 0x42A4 JUMPI JUMPDEST POP POP SWAP2 PUSH1 0x0 DUP1 MLOAD PUSH1 0x20 PUSH2 0x5FF2 DUP4 CODECOPY DUP2 MLOAD SWAP2 MSTORE SWAP2 PUSH1 0xF SWAP6 SWAP5 SWAP4 DUP9 MLOAD SWAP1 DUP2 MSTORE DUP8 DUP7 DUP3 ADD MSTORE PUSH1 0x0 DUP1 MLOAD PUSH1 0x20 PUSH2 0x60F2 DUP4 CODECOPY DUP2 MLOAD SWAP2 MSTORE DUP10 CALLER SWAP3 LOG2 SLOAD SWAP1 PUSH2 0x4283 DUP9 MLOAD SWAP3 DUP4 SWAP3 CALLER SWAP7 DUP5 PUSH2 0x40CC JUMP JUMPDEST SUB SWAP1 LOG2 CALLER DUP4 MSTORE MSTORE KECCAK256 PUSH1 0x3 DUP2 ADD SLOAD SWAP2 ADD SLOAD GT ISZERO PUSH2 0x429B JUMPI JUMP JUMPDEST PUSH2 0x3F85 CALLER PUSH2 0x512A JUMP JUMPDEST DUP2 PUSH2 0x42CB SWAP3 SWAP4 SWAP6 POP DUP8 SWAP2 DUP12 DUP11 DUP13 MLOAD DUP1 SWAP7 DUP2 SWAP6 DUP3 SWAP5 PUSH4 0xA9059CBB PUSH1 0xE0 SHL DUP5 MSTORE CALLER SWAP1 DUP5 ADD PUSH2 0x3F0D JUMP JUMPDEST SUB SWAP3 GAS CALL DUP1 ISZERO PUSH2 0x431B JUMPI SWAP2 PUSH1 0x0 DUP1 MLOAD PUSH1 0x20 PUSH2 0x5FF2 DUP4 CODECOPY DUP2 MLOAD SWAP2 MSTORE SWAP4 SWAP2 PUSH1 0xF SWAP8 SWAP7 SWAP6 SWAP4 PUSH2 0x42FE JUMPI JUMPDEST POP SWAP4 SWAP5 SWAP6 DUP2 SWAP4 POP PUSH2 0x423C JUMP JUMPDEST PUSH2 0x4314 SWAP1 DUP8 RETURNDATASIZE DUP10 GT PUSH2 0x6D0 JUMPI PUSH2 0x6C1 DUP2 DUP4 PUSH2 0x3E39 JUMP JUMPDEST POP CODESIZE PUSH2 0x42F2 JUMP JUMPDEST DUP9 MLOAD RETURNDATASIZE DUP10 DUP3 RETURNDATACOPY RETURNDATASIZE SWAP1 REVERT JUMPDEST POP DUP2 ISZERO ISZERO PUSH2 0x4237 JUMP JUMPDEST DUP1 SWAP3 POP DUP10 DUP1 SWAP3 POP RETURNDATASIZE DUP4 GT PUSH2 0x435C JUMPI JUMPDEST PUSH2 0x4347 DUP2 DUP4 PUSH2 0x3E39 JUMP JUMPDEST DUP2 ADD SUB SLT PUSH2 0x4358 JUMPI DUP3 SWAP1 MLOAD CODESIZE PUSH2 0x422E JUMP JUMPDEST DUP9 DUP1 REVERT JUMPDEST POP RETURNDATASIZE PUSH2 0x433D JUMP JUMPDEST DUP11 MLOAD RETURNDATASIZE DUP12 DUP3 RETURNDATACOPY RETURNDATASIZE SWAP1 REVERT JUMPDEST PUSH4 0x4E487B71 PUSH1 0xE0 SHL DUP11 MSTORE PUSH1 0x11 DUP13 MSTORE PUSH1 0x24 DUP11 REVERT JUMPDEST MLOAD PUSH4 0xA9059CBB PUSH1 0xE0 SHL DUP2 MSTORE SWAP5 SWAP11 POP DUP5 SWAP3 SWAP2 DUP4 SWAP2 SWAP1 DUP3 SWAP1 PUSH2 0x43A5 SWAP1 DUP15 SWAP1 CALLER SWAP1 DUP5 ADD PUSH2 0x3F0D JUMP JUMPDEST SUB SWAP3 GAS CALL DUP1 ISZERO PUSH2 0x4363 JUMPI PUSH2 0x43C0 JUMPI JUMPDEST POP DUP6 DUP8 CODESIZE DUP13 DUP12 DUP14 PUSH2 0x41D3 JUMP JUMPDEST PUSH2 0x43D6 SWAP1 DUP9 RETURNDATASIZE DUP11 GT PUSH2 0x6D0 JUMPI PUSH2 0x6C1 DUP2 DUP4 PUSH2 0x3E39 JUMP JUMPDEST POP CODESIZE PUSH2 0x43B4 JUMP JUMPDEST POP DUP6 ISZERO ISZERO PUSH2 0x41CE JUMP JUMPDEST SWAP6 SWAP7 SWAP5 POP POP POP POP POP DUP2 DUP2 RETURNDATASIZE DUP4 GT PUSH2 0x4418 JUMPI JUMPDEST PUSH2 0x4402 DUP2 DUP4 PUSH2 0x3E39 JUMP JUMPDEST DUP2 ADD SUB SLT PUSH2 0x3A6F JUMPI SWAP1 DUP13 DUP12 DUP14 DUP6 DUP14 SWAP6 MLOAD CODESIZE PUSH2 0x41C5 JUMP JUMPDEST POP RETURNDATASIZE PUSH2 0x43F8 JUMP JUMPDEST DUP13 MLOAD RETURNDATASIZE DUP14 DUP3 RETURNDATACOPY RETURNDATASIZE SWAP1 REVERT JUMPDEST POP POP POP POP POP POP POP PUSH2 0x3F85 CALLER PUSH2 0x512A JUMP JUMPDEST PUSH2 0x4449 SWAP3 SWAP5 POP PUSH1 0x3 ADD SLOAD SWAP1 PUSH2 0x4058 JUMP JUMPDEST SWAP2 CODESIZE DUP1 PUSH2 0x415D JUMP JUMPDEST DUP5 MLOAD PUSH4 0xFEC21FD PUSH1 0xE2 SHL DUP2 MSTORE PUSH1 0x4 SWAP1 REVERT JUMPDEST DUP2 SLOAD DUP2 LT ISZERO PUSH2 0x45D7 JUMPI DUP3 PUSH1 0xFF PUSH1 0x4 PUSH2 0x447A DUP5 DUP7 PUSH2 0x3F28 JUMP JUMPDEST POP ADD SLOAD AND ISZERO PUSH2 0x45CF JUMPI POP DUP6 PUSH2 0x448F DUP3 DUP5 PUSH2 0x3F28 JUMP JUMPDEST POP SWAP1 PUSH1 0x7 PUSH1 0x3 DUP1 SWAP4 ADD SLOAD EQ PUSH1 0x0 EQ PUSH2 0x4590 JUMPI POP PUSH3 0xCB7356 JUMPDEST PUSH1 0x3C PUSH2 0x44C1 PUSH1 0x2 PUSH2 0x44B8 DUP7 DUP9 PUSH2 0x3F28 JUMP JUMPDEST POP ADD SLOAD TIMESTAMP PUSH2 0x4058 JUMP JUMPDEST DIV SWAP2 DUP1 PUSH2 0x44CE DUP6 DUP8 PUSH2 0x3F28 JUMP JUMPDEST POP ADD SLOAD DUP4 GT PUSH2 0x4579 JUMPI JUMPDEST POP DUP5 DUP3 ISZERO PUSH2 0x456D JUMPI SWAP2 PUSH2 0x4500 PUSH2 0x4505 SWAP3 PUSH4 0x3B9ACA00 SWAP5 PUSH2 0x44F8 DUP8 DUP10 PUSH2 0x3F28 JUMP JUMPDEST POP ADD SLOAD PUSH2 0x4002 JUMP JUMPDEST PUSH2 0x4002 JUMP JUMPDEST DIV PUSH2 0x4510 DUP3 DUP5 PUSH2 0x3F28 JUMP JUMPDEST POP SWAP1 PUSH1 0x5 DUP1 SWAP3 ADD SLOAD SWAP1 DUP2 DUP2 GT PUSH2 0x4531 JUMPI JUMPDEST POP POP POP SWAP1 DUP3 DUP1 SWAP3 JUMPDEST ADD SWAP1 SWAP2 PUSH2 0x411E JUMP JUMPDEST SWAP6 PUSH2 0x4563 PUSH2 0x454E PUSH2 0x4547 DUP9 SWAP8 SWAP7 SWAP5 DUP9 SWAP7 SWAP11 PUSH2 0x4058 JUMP JUMPDEST DUP1 SWAP4 PUSH2 0x402B JUMP JUMPDEST SWAP8 PUSH2 0x4559 DUP5 DUP8 PUSH2 0x3F28 JUMP JUMPDEST POP ADD SWAP2 DUP3 SLOAD PUSH2 0x402B JUMP JUMPDEST SWAP1 SSTORE SWAP2 SWAP3 CODESIZE PUSH2 0x4521 JUMP JUMPDEST SWAP4 SWAP3 SWAP1 POP DUP4 SWAP2 POP PUSH2 0x4529 JUMP JUMPDEST SWAP1 SWAP2 POP PUSH2 0x4586 DUP4 DUP6 PUSH2 0x3F28 JUMP JUMPDEST POP ADD SLOAD SWAP1 CODESIZE PUSH2 0x44D8 JUMP JUMPDEST PUSH1 0xF DUP3 PUSH2 0x459D DUP6 DUP8 PUSH2 0x3F28 JUMP JUMPDEST POP ADD SLOAD SUB PUSH2 0x45AF JUMPI POP PUSH3 0xFE502B PUSH2 0x44A7 JUMP JUMPDEST PUSH1 0x1E DUP3 PUSH2 0x45BC DUP6 DUP8 PUSH2 0x3F28 JUMP JUMPDEST POP ADD SLOAD SUB PUSH2 0x44A7 JUMPI POP PUSH4 0x1312D00 PUSH2 0x44A7 JUMP JUMPDEST DUP1 SWAP3 SWAP2 PUSH2 0x4529 JUMP JUMPDEST PUSH2 0x4123 JUMP JUMPDEST DUP4 MLOAD PUSH4 0x4065AAF1 PUSH1 0xE1 SHL DUP2 MSTORE PUSH1 0x4 SWAP1 REVERT JUMPDEST POP PUSH1 0xFF PUSH1 0x3 DUP7 ADD SLOAD AND PUSH2 0x410A JUMP JUMPDEST PUSH1 0x4F SLOAD PUSH1 0x8 SHR PUSH1 0x1 PUSH1 0x1 PUSH1 0xA0 SHL SUB SWAP1 DUP2 AND SWAP1 DUP2 PUSH2 0x4670 JUMPI JUMPDEST POP POP PUSH1 0x18 SLOAD DUP1 ISZERO DUP1 ISZERO PUSH2 0x465C JUMPI JUMPDEST PUSH2 0x464F JUMPI PUSH1 0x17 SLOAD SWAP1 PUSH8 0xDE0B6B3A7640000 SWAP2 DUP3 DUP2 MUL SWAP3 DUP2 DUP5 DIV EQ SWAP1 ISZERO OR ISZERO PUSH2 0x4015 JUMPI PUSH2 0x464C SWAP2 PUSH2 0x4038 JUMP JUMPDEST SWAP1 JUMP JUMPDEST POP PUSH8 0xDE0B6B3A7640000 SWAP1 JUMP JUMPDEST POP PUSH9 0x3635C9ADC5DEA00000 PUSH1 0x17 SLOAD LT PUSH2 0x4621 JUMP JUMPDEST PUSH1 0x20 SWAP1 PUSH1 0x1 SLOAD AND PUSH1 0x24 PUSH1 0x40 MLOAD DUP1 SWAP5 DUP2 SWAP4 PUSH4 0x41976E09 PUSH1 0xE0 SHL DUP4 MSTORE PUSH1 0x4 DUP4 ADD MSTORE GAS STATICCALL PUSH1 0x0 SWAP2 DUP2 PUSH2 0x46AF JUMPI JUMPDEST POP PUSH2 0x46A6 JUMPI JUMPDEST DUP1 PUSH2 0x4613 JUMP JUMPDEST DUP1 ISZERO PUSH2 0x46A0 JUMPI SWAP1 JUMP JUMPDEST SWAP1 SWAP2 POP PUSH1 0x20 DUP2 RETURNDATASIZE PUSH1 0x20 GT PUSH2 0x46DB JUMPI JUMPDEST DUP2 PUSH2 0x46CB PUSH1 0x20 SWAP4 DUP4 PUSH2 0x3E39 JUMP JUMPDEST DUP2 ADD SUB SLT PUSH2 0xC73 JUMPI MLOAD SWAP1 CODESIZE PUSH2 0x469A JUMP JUMPDEST RETURNDATASIZE SWAP2 POP PUSH2 0x46BE JUMP JUMPDEST PUSH1 0x0 NOT DUP2 EQ PUSH2 0x4015 JUMPI PUSH1 0x1 ADD SWAP1 JUMP JUMPDEST SWAP2 SWAP1 DUP2 LT ISZERO PUSH2 0x3DBA JUMPI PUSH1 0x5 SHL ADD SWAP1 JUMP JUMPDEST CALLDATALOAD PUSH1 0x1 PUSH1 0x1 PUSH1 0xA0 SHL SUB DUP2 AND DUP2 SUB PUSH2 0xC73 JUMPI SWAP1 JUMP JUMPDEST ISZERO PUSH2 0x471D JUMPI JUMP JUMPDEST PUSH1 0x40 MLOAD PUSH3 0x461BCD PUSH1 0xE5 SHL DUP2 MSTORE PUSH1 0x20 PUSH1 0x4 DUP3 ADD MSTORE PUSH1 0xF PUSH1 0x24 DUP3 ADD MSTORE PUSH15 0x496E76616C69642061646472657373 PUSH1 0x88 SHL PUSH1 0x44 DUP3 ADD MSTORE PUSH1 0x64 SWAP1 REVERT JUMPDEST SWAP2 PUSH1 0x1 PUSH1 0x1 PUSH1 0xA0 SHL SUB SWAP1 DUP2 DUP5 AND SWAP1 DUP2 ISZERO ISZERO DUP1 PUSH2 0x4AB3 JUMPI JUMPDEST PUSH2 0x4774 SWAP1 PUSH2 0x4716 JUMP JUMPDEST DUP3 DUP5 AND DUP1 DUP4 EQ PUSH2 0x4A7D JUMPI DUP5 DUP5 PUSH1 0x0 SWAP7 JUMPDEST AND DUP1 ISZERO ISZERO DUP1 PUSH2 0x4A73 JUMPI JUMPDEST ISZERO PUSH2 0x47F4 JUMPI DUP5 DUP2 EQ PUSH2 0x47BA JUMPI PUSH1 0x0 MSTORE PUSH1 0xF PUSH1 0x20 MSTORE DUP5 PUSH2 0x47B4 DUP2 PUSH1 0x40 PUSH1 0x0 KECCAK256 SLOAD AND SWAP8 PUSH2 0x46E3 JUMP JUMPDEST SWAP7 PUSH2 0x4784 JUMP JUMPDEST PUSH1 0x40 MLOAD PUSH3 0x461BCD PUSH1 0xE5 SHL DUP2 MSTORE PUSH1 0x20 PUSH1 0x4 DUP3 ADD MSTORE PUSH1 0x12 PUSH1 0x24 DUP3 ADD MSTORE PUSH18 0x43697263756C6172207265666572656E6365 PUSH1 0x70 SHL PUSH1 0x44 DUP3 ADD MSTORE PUSH1 0x64 SWAP1 REVERT JUMPDEST POP PUSH1 0x0 DUP5 DUP2 MSTORE PUSH1 0xF PUSH1 0x20 DUP2 DUP2 MSTORE PUSH1 0x40 SWAP3 DUP4 SWAP1 KECCAK256 DUP1 SLOAD SWAP7 SWAP11 SWAP6 SWAP10 POP DUP7 DUP10 AND SWAP9 SWAP5 SWAP7 DUP10 DUP12 EQ PUSH2 0x4A66 JUMPI PUSH1 0x1 PUSH1 0x1 PUSH1 0xA0 SHL SUB NOT AND DUP11 OR SWAP1 SSTORE DUP8 ISZERO ISZERO SWAP5 DUP6 PUSH2 0x4989 JUMPI JUMPDEST PUSH2 0x4848 SWAP1 DUP11 PUSH1 0x0 MSTORE PUSH1 0x12 DUP4 MSTORE DUP5 PUSH1 0x0 KECCAK256 PUSH2 0x3F44 JUMP JUMPDEST DUP7 PUSH1 0x0 MSTORE DUP2 DUP2 MSTORE PUSH1 0x2 SWAP6 PUSH1 0x2 DUP5 PUSH1 0x0 KECCAK256 ADD SLOAD SWAP1 PUSH1 0x1 SWAP7 PUSH1 0x1 DUP4 ADD DUP1 SWAP4 GT PUSH2 0x4015 JUMPI PUSH2 0x4909 JUMPI JUMPDEST DUP11 PUSH2 0x48A3 JUMPI JUMPDEST POP POP POP POP POP POP POP POP PUSH32 0xF8B9FE4D008320E6F048C61E41E9CC56CE351354AD0CB9A868BD3C4BD6928FD5 PUSH1 0x0 DUP1 LOG4 JUMP JUMPDEST PUSH1 0x0 SWAP1 DUP8 JUMPDEST PUSH2 0x48B3 JUMPI JUMPDEST POP PUSH2 0x4874 JUMP JUMPDEST DUP7 AND DUP1 ISZERO ISZERO DUP1 PUSH2 0x48FF JUMPI JUMPDEST ISZERO PUSH2 0x48FA JUMPI DUP1 PUSH1 0x0 MSTORE DUP5 DUP5 MSTORE DUP9 DUP7 PUSH1 0x0 KECCAK256 ADD PUSH2 0x48DB DUP5 DUP3 SLOAD PUSH2 0x402B JUMP JUMPDEST SWAP1 SSTORE PUSH1 0x0 MSTORE DUP4 DUP4 MSTORE PUSH2 0x48F3 DUP7 DUP7 PUSH1 0x0 KECCAK256 SLOAD AND SWAP2 PUSH2 0x46E3 JUMP JUMPDEST SWAP1 DUP8 PUSH2 0x48A8 JUMP JUMPDEST PUSH2 0x48AD JUMP JUMPDEST POP PUSH1 0x1E DUP3 LT PUSH2 0x48BE JUMP JUMPDEST DUP7 PUSH1 0x0 DUP8 DUP13 DUP4 JUMPDEST PUSH2 0x491E JUMPI JUMPDEST POP POP POP POP PUSH2 0x486E JUMP JUMPDEST AND DUP1 ISZERO ISZERO DUP1 PUSH2 0x497F JUMPI JUMPDEST ISZERO PUSH2 0x4978 JUMPI PUSH1 0x0 DUP2 DUP2 MSTORE DUP8 DUP8 MSTORE DUP9 SWAP1 KECCAK256 DUP12 ADD DUP1 SLOAD DUP7 GT PUSH2 0x496F JUMPI PUSH2 0x494D DUP7 DUP3 SLOAD PUSH2 0x4058 JUMP JUMPDEST SWAP1 SSTORE JUMPDEST PUSH1 0x0 MSTORE DUP6 DUP6 MSTORE PUSH2 0x4966 DUP9 DUP9 PUSH1 0x0 KECCAK256 SLOAD AND SWAP2 PUSH2 0x46E3 JUMP JUMPDEST SWAP1 DUP9 SWAP1 DUP4 PUSH2 0x4910 JUMP JUMPDEST PUSH1 0x0 SWAP1 SSTORE PUSH2 0x4950 JUMP JUMPDEST DUP9 SWAP1 PUSH2 0x4915 JUMP JUMPDEST POP PUSH1 0x1E DUP3 LT PUSH2 0x4928 JUMP JUMPDEST SWAP9 SWAP8 SWAP7 SWAP6 SWAP5 SWAP4 SWAP3 SWAP2 SWAP1 DUP8 PUSH1 0x0 MSTORE PUSH1 0x12 DUP2 MSTORE DUP3 PUSH1 0x0 KECCAK256 SWAP10 PUSH1 0x0 JUMPDEST DUP12 SLOAD DUP1 DUP3 LT ISZERO PUSH2 0x4A51 JUMPI DUP7 SWAP1 DUP11 PUSH2 0x49BA DUP16 DUP6 SWAP1 PUSH2 0x3DA2 JUMP JUMPDEST SWAP4 SWAP1 SLOAD PUSH1 0x3 SWAP5 DUP6 SHL SHR AND EQ PUSH2 0x49D3 JUMPI POP POP PUSH1 0x1 ADD PUSH2 0x49A2 JUMP JUMPDEST PUSH1 0x0 SWAP14 SWAP2 SWAP3 SWAP5 SWAP6 SWAP7 SWAP8 SWAP9 SWAP10 SWAP11 SWAP12 SWAP13 SWAP14 NOT SWAP5 DUP6 DUP3 ADD SWAP2 DUP3 GT PUSH2 0x4015 JUMPI PUSH2 0x3F67 DUP11 PUSH2 0x49FF PUSH2 0x4A0D SWAP5 DUP7 PUSH2 0x3DA2 JUMP JUMPDEST SWAP1 SLOAD SWAP1 DUP8 SHL SHR AND SWAP2 DUP5 PUSH2 0x3DA2 JUMP JUMPDEST DUP1 SLOAD DUP1 ISZERO PUSH2 0x4A3B JUMPI PUSH2 0x4848 SWAP5 DUP10 SWAP2 ADD SWAP3 PUSH2 0x4A27 DUP5 DUP5 PUSH2 0x3DA2 JUMP JUMPDEST DUP2 SWAP4 SWAP2 SLOAD SWAP3 SHL SHL NOT AND SWAP1 SSTORE SSTORE JUMPDEST SWAP1 POP PUSH2 0x4833 JUMP JUMPDEST PUSH4 0x4E487B71 PUSH1 0xE0 SHL PUSH1 0x0 MSTORE PUSH1 0x31 PUSH1 0x4 MSTORE PUSH1 0x24 PUSH1 0x0 REVERT JUMPDEST POP POP PUSH2 0x4848 SWAP2 SWAP3 SWAP4 SWAP5 SWAP6 SWAP7 SWAP8 SWAP9 SWAP10 SWAP11 POP PUSH2 0x4A34 JUMP JUMPDEST POP POP POP POP POP POP POP POP POP POP POP JUMP JUMPDEST POP PUSH1 0x32 DUP8 LT PUSH2 0x478E JUMP JUMPDEST PUSH1 0x40 MLOAD PUSH3 0x461BCD PUSH1 0xE5 SHL DUP2 MSTORE PUSH1 0x20 PUSH1 0x4 DUP3 ADD MSTORE PUSH1 0xE PUSH1 0x24 DUP3 ADD MSTORE PUSH14 0x53656C66207265666572656E6365 PUSH1 0x90 SHL PUSH1 0x44 DUP3 ADD MSTORE PUSH1 0x64 SWAP1 REVERT JUMPDEST POP DUP4 DUP4 AND ISZERO ISZERO PUSH2 0x476B JUMP JUMPDEST PUSH1 0x1 PUSH1 0x1 PUSH1 0xA0 SHL SUB SWAP1 DUP2 AND SWAP1 DUP2 ISZERO PUSH2 0x4B07 JUMPI PUSH1 0x0 DUP1 MLOAD PUSH1 0x20 PUSH2 0x6012 DUP4 CODECOPY DUP2 MLOAD SWAP2 MSTORE DUP1 SLOAD PUSH1 0x1 PUSH1 0x1 PUSH1 0xA0 SHL SUB NOT DUP2 AND DUP5 OR SWAP1 SWAP2 SSTORE AND PUSH1 0x0 DUP1 MLOAD PUSH1 0x20 PUSH2 0x60B2 DUP4 CODECOPY DUP2 MLOAD SWAP2 MSTORE PUSH1 0x0 DUP1 LOG3 JUMP JUMPDEST PUSH1 0x40 MLOAD PUSH4 0x1E4FBDF7 PUSH1 0xE0 SHL DUP2 MSTORE PUSH1 0x0 PUSH1 0x4 DUP3 ADD MSTORE PUSH1 0x24 SWAP1 REVERT JUMPDEST PUSH1 0x0 DUP1 MLOAD PUSH1 0x20 PUSH2 0x6012 DUP4 CODECOPY DUP2 MLOAD SWAP2 MSTORE SLOAD PUSH1 0x1 PUSH1 0x1 PUSH1 0xA0 SHL SUB AND CALLER SUB PUSH2 0x4B41 JUMPI JUMP JUMPDEST PUSH1 0x40 MLOAD PUSH4 0x118CDAA7 PUSH1 0xE0 SHL DUP2 MSTORE CALLER PUSH1 0x4 DUP3 ADD MSTORE PUSH1 0x24 SWAP1 REVERT JUMPDEST PUSH1 0x0 DUP1 MLOAD PUSH1 0x20 PUSH2 0x6112 DUP4 CODECOPY DUP2 MLOAD SWAP2 MSTORE PUSH1 0x2 DUP2 SLOAD EQ PUSH2 0x4B77 JUMPI PUSH1 0x2 SWAP1 SSTORE JUMP JUMPDEST PUSH1 0x40 MLOAD PUSH4 0x3EE5AEB5 PUSH1 0xE0 SHL DUP2 MSTORE PUSH1 0x4 SWAP1 REVERT JUMPDEST SWAP1 PUSH1 0x20 DUP3 ADD MLOAD PUSH2 0x4BAD PUSH1 0x40 DUP5 ADD SWAP2 PUSH2 0x4BA7 DUP4 MLOAD PUSH1 0xE0 DUP8 ADD MLOAD SWAP1 PUSH2 0x4002 JUMP JUMPDEST SWAP1 PUSH2 0x402B JUMP JUMPDEST TIMESTAMP LT SWAP1 DUP2 ISZERO SWAP2 PUSH2 0x4C6F JUMPI PUSH2 0x4BEB DUP2 PUSH4 0x3B9ACA00 SWAP3 MLOAD PUSH1 0x7 DUP2 EQ PUSH1 0x0 EQ PUSH2 0x4C45 JUMPI POP PUSH2 0x4BE3 PUSH4 0xFFFFFFFF PUSH3 0xCB7356 JUMPDEST AND DUP8 MLOAD PUSH2 0x4002 JUMP JUMPDEST SWAP1 MLOAD SWAP1 PUSH2 0x4002 JUMP JUMPDEST DIV PUSH1 0x60 DUP5 ADD MLOAD DUP1 DUP3 GT PUSH1 0x0 EQ PUSH2 0x4C37 JUMPI PUSH2 0x4C0A PUSH2 0x4C25 SWAP2 PUSH1 0x64 SWAP4 PUSH2 0x4058 JUMP JUMPDEST PUSH1 0x80 DUP7 ADD MLOAD SWAP1 SWAP6 SWAP1 DUP1 ISZERO PUSH2 0x4C29 JUMPI PUSH1 0xC0 SWAP1 SWAP2 JUMPDEST ADD MLOAD SWAP1 PUSH2 0x4002 JUMP JUMPDEST DIV SWAP2 JUMP JUMPDEST POP PUSH1 0xC0 PUSH1 0xA0 DUP3 ADD MLOAD SWAP2 PUSH2 0x4C1D JUMP JUMPDEST POP POP PUSH1 0x64 PUSH2 0x4C25 PUSH1 0x0 PUSH2 0x4C0A JUMP JUMPDEST PUSH1 0xF SUB PUSH2 0x4C5D JUMPI PUSH2 0x4BE3 PUSH4 0xFFFFFFFF PUSH3 0xFE502B PUSH2 0x4BDB JUMP JUMPDEST PUSH2 0x4BE3 PUSH4 0xFFFFFFFF PUSH4 0x1312D00 PUSH2 0x4BDB JUMP JUMPDEST POP PUSH1 0x0 SWAP3 POP DUP3 SWAP2 DUP3 SWAP2 POP JUMP JUMPDEST SWAP4 SWAP1 SWAP2 DUP2 PUSH2 0x4CF1 JUMPI JUMPDEST POP POP PUSH1 0x40 MLOAD PUSH4 0xA9059CBB PUSH1 0xE0 SHL DUP2 MSTORE SWAP3 PUSH1 0x20 SWAP3 DUP5 SWAP3 DUP4 SWAP2 PUSH1 0x0 SWAP2 DUP4 SWAP2 PUSH2 0x4CAD SWAP2 PUSH1 0x4 DUP5 ADD PUSH2 0x3F0D JUMP JUMPDEST SUB SWAP3 PUSH1 0x1 PUSH1 0x1 PUSH1 0xA0 SHL SUB AND GAS CALL SWAP1 DUP2 ISZERO PUSH2 0x4CE5 JUMPI PUSH1 0x0 SWAP2 PUSH2 0x4CCC JUMPI POP SWAP1 JUMP JUMPDEST PUSH2 0x464C SWAP2 POP PUSH1 0x20 RETURNDATASIZE PUSH1 0x20 GT PUSH2 0x6D0 JUMPI PUSH2 0x6C1 DUP2 DUP4 PUSH2 0x3E39 JUMP JUMPDEST PUSH1 0x40 MLOAD RETURNDATASIZE PUSH1 0x0 DUP3 RETURNDATACOPY RETURNDATASIZE SWAP1 REVERT JUMPDEST PUSH1 0x1 DUP1 PUSH1 0xA0 SWAP6 SWAP5 SWAP6 SHL SUB DUP1 DUP7 AND SWAP2 PUSH1 0x40 SWAP4 DUP5 MLOAD SWAP3 PUSH4 0x70A08231 PUSH1 0xE0 SHL DUP5 MSTORE DUP1 DUP9 AND SWAP1 DUP2 PUSH1 0x4 DUP7 ADD MSTORE PUSH1 0x20 SWAP5 DUP6 DUP2 PUSH1 0x24 DUP2 DUP11 GAS STATICCALL SWAP1 DUP2 ISZERO PUSH2 0x4E74 JUMPI SWAP1 DUP5 SWAP2 PUSH1 0x0 SWAP2 PUSH2 0x4E43 JUMPI JUMPDEST POP LT PUSH2 0x4E34 JUMPI DUP7 MLOAD SWAP2 PUSH4 0x6EB1769F PUSH1 0xE1 SHL DUP4 MSTORE PUSH1 0x4 DUP4 ADD MSTORE DUP4 AND PUSH1 0x24 DUP3 ADD MSTORE DUP4 DUP2 PUSH1 0x44 DUP2 DUP9 GAS STATICCALL SWAP1 DUP2 ISZERO PUSH2 0x4E29 JUMPI SWAP1 DUP3 SWAP2 PUSH1 0x0 SWAP2 PUSH2 0x4DF8 JUMPI JUMPDEST POP LT PUSH2 0x4DEB JUMPI PUSH2 0x4D99 SWAP4 DUP4 SWAP3 PUSH1 0x0 DUP8 MLOAD DUP1 SWAP8 DUP2 SWAP6 DUP3 SWAP5 PUSH4 0x23B872DD PUSH1 0xE0 SHL DUP5 MSTORE DUP14 PUSH1 0x4 DUP6 ADD PUSH2 0x3FE0 JUMP JUMPDEST SUB SWAP3 GAS CALL SWAP3 DUP4 ISZERO PUSH2 0x4DE1 JUMPI POP PUSH1 0x0 SWAP3 PUSH2 0x4DC4 JUMPI JUMPDEST POP POP ISZERO PUSH2 0x4DBC JUMPI SWAP1 CODESIZE DUP1 PUSH2 0x4C84 JUMP JUMPDEST POP POP POP PUSH1 0x0 SWAP1 JUMP JUMPDEST PUSH2 0x4DDA SWAP3 POP DUP1 RETURNDATASIZE LT PUSH2 0x6D0 JUMPI PUSH2 0x6C1 DUP2 DUP4 PUSH2 0x3E39 JUMP JUMPDEST CODESIZE DUP1 PUSH2 0x4DAD JUMP JUMPDEST MLOAD RETURNDATASIZE PUSH1 0x0 DUP3 RETURNDATACOPY RETURNDATASIZE SWAP1 REVERT JUMPDEST POP POP POP POP POP POP POP POP PUSH1 0x0 SWAP1 JUMP JUMPDEST DUP1 SWAP3 POP DUP6 DUP1 SWAP3 POP RETURNDATASIZE DUP4 GT PUSH2 0x4E22 JUMPI JUMPDEST PUSH2 0x4E11 DUP2 DUP4 PUSH2 0x3E39 JUMP JUMPDEST DUP2 ADD SUB SLT PUSH2 0xC73 JUMPI DUP2 SWAP1 MLOAD CODESIZE PUSH2 0x4D6F JUMP JUMPDEST POP RETURNDATASIZE PUSH2 0x4E07 JUMP JUMPDEST DUP7 MLOAD RETURNDATASIZE PUSH1 0x0 DUP3 RETURNDATACOPY RETURNDATASIZE SWAP1 REVERT JUMPDEST POP POP POP POP POP POP POP POP POP POP PUSH1 0x0 SWAP1 JUMP JUMPDEST DUP1 SWAP3 POP DUP8 DUP1 SWAP3 POP RETURNDATASIZE DUP4 GT PUSH2 0x4E6D JUMPI JUMPDEST PUSH2 0x4E5C DUP2 DUP4 PUSH2 0x3E39 JUMP JUMPDEST DUP2 ADD SUB SLT PUSH2 0xC73 JUMPI DUP4 SWAP1 MLOAD CODESIZE PUSH2 0x4D36 JUMP JUMPDEST POP RETURNDATASIZE PUSH2 0x4E52 JUMP JUMPDEST DUP9 MLOAD RETURNDATASIZE PUSH1 0x0 DUP3 RETURNDATACOPY RETURNDATASIZE SWAP1 REVERT JUMPDEST DUP1 MLOAD DUP3 LT ISZERO PUSH2 0x3DBA JUMPI PUSH1 0x20 SWAP2 PUSH1 0x5 SHL ADD ADD SWAP1 JUMP JUMPDEST DUP1 SLOAD SWAP1 PUSH1 0x0 SWAP1 DUP2 DUP2 SSTORE DUP3 PUSH2 0x4EA6 JUMPI POP POP POP JUMP JUMPDEST PUSH1 0x1 SWAP1 PUSH1 0x1 PUSH1 0x1 PUSH1 0xFF SHL SUB DUP5 AND DUP5 SUB PUSH2 0x24FE JUMPI DUP3 MSTORE PUSH1 0x20 DUP3 KECCAK256 SWAP3 PUSH1 0x1 SHL DUP4 ADD SWAP3 JUMPDEST DUP4 DUP2 LT PUSH2 0x4ED4 JUMPI POP POP POP POP JUMP JUMPDEST DUP1 DUP4 PUSH1 0x2 SWAP3 SSTORE DUP4 DUP4 DUP3 ADD SSTORE ADD PUSH2 0x4EC7 JUMP JUMPDEST PUSH1 0x0 DUP2 DUP2 MSTORE PUSH1 0x1E PUSH1 0x20 SWAP1 DUP2 MSTORE PUSH1 0x40 DUP1 DUP4 KECCAK256 SLOAD PUSH1 0x1D DUP4 MSTORE DUP2 DUP5 KECCAK256 DUP1 SLOAD SWAP4 SWAP7 SWAP5 SWAP6 SWAP3 SWAP5 SWAP3 SWAP4 PUSH1 0x1 PUSH1 0x1 PUSH1 0xA0 SHL SUB SWAP3 DUP4 AND SWAP4 SWAP1 PUSH1 0x1 PUSH1 0x1 PUSH1 0x40 SHL SUB SWAP1 DUP2 DUP2 GT PUSH2 0x5058 JUMPI DUP8 MLOAD SWAP4 SWAP2 PUSH2 0x4F39 PUSH1 0x5 DUP4 SWAP1 SHL DUP13 ADD DUP7 PUSH2 0x3E39 JUMP JUMPDEST DUP2 DUP6 MSTORE SWAP2 DUP10 MSTORE DUP10 DUP10 KECCAK256 DUP10 SWAP3 DUP12 DUP7 ADD JUMPDEST DUP4 DUP6 LT PUSH2 0x5021 JUMPI POP POP POP POP POP DUP7 JUMPDEST DUP3 MLOAD DUP2 LT ISZERO PUSH2 0x500A JUMPI DUP1 PUSH2 0x4F87 DUP6 PUSH2 0x4F70 PUSH1 0x1 SWAP5 DUP8 PUSH2 0x4E7F JUMP JUMPDEST MLOAD MLOAD AND DUP12 PUSH2 0x4F7E DUP5 DUP9 PUSH2 0x4E7F JUMP JUMPDEST MLOAD ADD MLOAD SWAP1 PUSH2 0x5B48 JUMP JUMPDEST DUP7 DUP10 DUP13 DUP4 PUSH2 0x4FD1 JUMPI JUMPDEST DUP11 SWAP3 POP PUSH32 0xAE629B396150638D6EB6DE457CBFFE5D618A10C8CC199A94976BED2B16ECD993 SWAP2 POP DUP9 PUSH2 0x4FC1 DUP7 DUP11 PUSH2 0x4E7F JUMP JUMPDEST MLOAD MLOAD AND SWAP4 DUP13 MLOAD SWAP1 DUP2 MSTORE LOG3 ADD PUSH2 0x4F56 JUMP JUMPDEST PUSH1 0x60 PUSH1 0x0 DUP1 MLOAD PUSH1 0x20 PUSH2 0x5FB2 DUP4 CODECOPY DUP2 MLOAD SWAP2 MSTORE SWAP2 DUP13 DUP12 PUSH2 0x4FEF DUP10 DUP14 PUSH2 0x4E7F JUMP JUMPDEST MLOAD MLOAD AND SWAP5 PUSH1 0x4 DUP2 MLOAD SWAP4 DUP10 DUP6 MSTORE DUP5 ADD MSTORE DUP3 ADD MSTORE LOG3 DUP7 DUP10 DUP13 PUSH2 0x4F90 JUMP JUMPDEST POP SWAP7 SWAP2 POP POP PUSH1 0x1D SWAP2 POP PUSH2 0x3F85 SWAP5 SWAP3 DUP4 MSTORE MSTORE KECCAK256 PUSH2 0x4E93 JUMP JUMPDEST DUP11 MLOAD DUP12 DUP2 ADD DUP2 DUP2 LT DUP5 DUP3 GT OR PUSH2 0x2FF2 JUMPI PUSH1 0x1 SWAP3 DUP16 SWAP2 SWAP3 PUSH1 0x2 SWAP4 DUP16 MSTORE DUP12 DUP8 SLOAD AND DUP2 MSTORE DUP5 DUP8 ADD SLOAD DUP4 DUP3 ADD MSTORE DUP2 MSTORE ADD SWAP4 ADD SWAP5 ADD SWAP4 SWAP2 PUSH2 0x4F48 JUMP JUMPDEST PUSH4 0x4E487B71 PUSH1 0xE0 SHL DUP10 MSTORE PUSH1 0x41 PUSH1 0x4 MSTORE PUSH1 0x24 DUP10 REVERT JUMPDEST DUP1 ISZERO PUSH2 0x4015 JUMPI PUSH1 0x0 NOT ADD SWAP1 JUMP JUMPDEST PUSH1 0x1 DUP1 PUSH1 0xA0 SHL SUB DUP1 PUSH1 0x0 SWAP3 AND DUP3 MSTORE PUSH1 0x10 PUSH1 0x20 MSTORE PUSH1 0x40 DUP3 KECCAK256 SWAP1 PUSH1 0x1 DUP3 ADD SLOAD ISZERO ISZERO SWAP2 DUP3 PUSH2 0x511A JUMPI JUMPDEST POP PUSH1 0xF PUSH1 0x20 MSTORE PUSH1 0x40 DUP4 KECCAK256 PUSH1 0x5 DUP2 ADD PUSH1 0xFF DUP2 SLOAD AND ISZERO ISZERO DUP5 ISZERO ISZERO EQ PUSH2 0x5113 JUMPI DUP1 SLOAD PUSH1 0xFF NOT AND PUSH1 0xFF DUP6 ISZERO ISZERO AND OR SWAP1 SSTORE SLOAD AND SWAP2 DUP3 ISZERO PUSH2 0x510E JUMPI PUSH1 0x1 SWAP3 PUSH1 0x40 SWAP3 ISZERO PUSH2 0x50F6 JUMPI DUP2 MSTORE PUSH1 0xF PUSH1 0x20 MSTORE KECCAK256 ADD PUSH2 0x50F2 DUP2 SLOAD PUSH2 0x46E3 JUMP JUMPDEST SWAP1 SSTORE JUMP JUMPDEST DUP2 MSTORE KECCAK256 ADD DUP1 SLOAD DUP1 PUSH2 0x5105 JUMPI POP POP JUMP JUMPDEST PUSH2 0x50F2 SWAP1 PUSH2 0x506C JUMP JUMPDEST POP POP POP JUMP JUMPDEST POP POP POP POP POP JUMP JUMPDEST PUSH1 0x3 ADD SLOAD PUSH1 0xFF AND ISZERO SWAP2 POP CODESIZE PUSH2 0x509F JUMP JUMPDEST PUSH1 0x1 PUSH1 0x1 PUSH1 0xA0 SHL SUB DUP2 AND PUSH1 0x0 DUP2 DUP2 MSTORE PUSH1 0x10 PUSH1 0x20 MSTORE PUSH1 0x40 SWAP1 KECCAK256 PUSH1 0x3 DUP2 ADD DUP1 SLOAD SWAP3 SWAP4 SWAP3 PUSH1 0xFF DUP2 AND ISZERO PUSH2 0x515B JUMPI POP POP POP POP POP JUMP JUMPDEST SWAP1 PUSH1 0x1 PUSH1 0x24 SWAP6 SWAP7 SWAP3 PUSH1 0xFF NOT AND OR SWAP1 SSTORE PUSH1 0x11 PUSH1 0x20 MSTORE PUSH1 0x40 PUSH1 0x0 KECCAK256 SWAP5 PUSH1 0x0 SWAP3 PUSH1 0x0 SWAP5 PUSH1 0x20 PUSH1 0x1 DUP1 PUSH1 0xA0 SHL SUB PUSH1 0x0 SLOAD AND PUSH1 0x40 MLOAD SWAP9 DUP10 DUP1 SWAP3 PUSH4 0x70A08231 PUSH1 0xE0 SHL DUP3 MSTORE ADDRESS PUSH1 0x4 DUP4 ADD MSTORE GAS STATICCALL SWAP7 DUP8 ISZERO PUSH2 0x4CE5 JUMPI PUSH1 0x0 SWAP8 PUSH2 0x5504 JUMPI JUMPDEST POP PUSH1 0x0 SWAP6 SWAP5 JUMPDEST DUP9 SLOAD DUP8 LT ISZERO PUSH2 0x5271 JUMPI PUSH1 0xFF PUSH1 0x4 PUSH2 0x51CD DUP10 DUP13 PUSH2 0x3F28 JUMP JUMPDEST POP ADD SLOAD AND ISZERO PUSH2 0x5267 JUMPI PUSH1 0x1 PUSH2 0x51E2 DUP9 DUP12 PUSH2 0x3F28 JUMP JUMPDEST POP ADD SLOAD SWAP1 DUP2 DUP1 PUSH1 0x1 SHL DIV PUSH1 0x2 EQ DUP3 ISZERO OR ISZERO PUSH2 0x4015 JUMPI DUP10 PUSH2 0x523A SWAP2 PUSH1 0x1 PUSH2 0x521C DUP12 PUSH2 0x12C PUSH2 0x5215 DUP5 SWAP9 PUSH1 0xC SLOAD SWAP1 DUP7 SHL PUSH2 0x4002 JUMP JUMPDEST DIV SWAP5 PUSH2 0x3F28 JUMP JUMPDEST POP ADD SLOAD DUP3 DUP2 LT PUSH2 0x525A JUMPI SWAP1 PUSH2 0x4BA7 DUP4 PUSH2 0x5234 SWAP4 PUSH2 0x4058 JUMP JUMPDEST SWAP8 PUSH2 0x402B JUMP JUMPDEST SWAP7 PUSH1 0x4 PUSH2 0x5247 DUP3 DUP13 PUSH2 0x3F28 JUMP JUMPDEST POP ADD DUP1 SLOAD PUSH1 0xFF NOT AND SWAP1 SSTORE JUMPDEST ADD SWAP6 SWAP5 PUSH2 0x51B6 JUMP JUMPDEST PUSH1 0x0 SWAP3 POP PUSH2 0x5234 SWAP2 PUSH2 0x402B JUMP JUMPDEST SWAP5 SWAP6 PUSH1 0x1 SWAP1 PUSH2 0x5252 JUMP JUMPDEST SWAP4 SWAP8 POP SWAP1 SWAP5 POP DUP2 SWAP6 SWAP4 SWAP2 SWAP4 DUP4 PUSH2 0x5361 JUMPI JUMPDEST POP POP SWAP2 PUSH1 0x0 DUP1 MLOAD PUSH1 0x20 PUSH2 0x6132 DUP4 CODECOPY DUP2 MLOAD SWAP2 MSTORE PUSH1 0x40 PUSH1 0x0 DUP1 MLOAD PUSH1 0x20 PUSH2 0x60D2 DUP4 CODECOPY DUP2 MLOAD SWAP2 MSTORE SWAP6 SWAP4 DUP6 PUSH1 0x20 SWAP7 PUSH2 0x5340 JUMPI JUMPDEST PUSH1 0x0 DUP6 DUP2 MSTORE PUSH1 0xF DUP9 MSTORE DUP4 SWAP1 KECCAK256 PUSH1 0x5 DUP2 ADD DUP1 SLOAD PUSH1 0xFF NOT DUP2 AND SWAP1 SWAP2 SSTORE SWAP1 SLOAD PUSH1 0x1 PUSH1 0x1 PUSH1 0xA0 SHL SUB AND SWAP1 PUSH1 0xFF AND DUP1 PUSH2 0x5337 JUMPI JUMPDEST DUP1 PUSH2 0x5323 JUMPI JUMPDEST PUSH2 0x5307 JUMPI JUMPDEST POP DUP3 MLOAD SWAP2 DUP3 MSTORE DUP7 DUP3 ADD MSTORE LOG2 SLOAD PUSH1 0x40 MLOAD SWAP1 DUP2 MSTORE LOG2 CODESIZE DUP1 DUP1 DUP1 DUP1 PUSH2 0x5113 JUMP JUMPDEST PUSH1 0x0 MSTORE PUSH1 0x1 DUP4 PUSH1 0x0 KECCAK256 ADD PUSH2 0x531B DUP2 SLOAD PUSH2 0x506C JUMP JUMPDEST SWAP1 SSTORE CODESIZE PUSH2 0x52EA JUMP JUMPDEST POP DUP1 PUSH1 0x0 MSTORE PUSH1 0x1 DUP5 PUSH1 0x0 KECCAK256 ADD SLOAD ISZERO ISZERO PUSH2 0x52E5 JUMP JUMPDEST POP DUP1 ISZERO ISZERO PUSH2 0x52DF JUMP JUMPDEST DUP5 PUSH1 0x0 MSTORE PUSH1 0xF DUP8 MSTORE PUSH1 0x6 DUP4 PUSH1 0x0 KECCAK256 ADD PUSH2 0x535A DUP3 DUP3 SLOAD PUSH2 0x402B JUMP JUMPDEST SWAP1 SSTORE PUSH2 0x52B0 JUMP JUMPDEST SWAP1 SWAP5 SWAP3 SWAP4 SWAP1 DUP5 DUP2 LT PUSH2 0x5405 JUMPI POP POP PUSH1 0x0 DUP1 SLOAD PUSH1 0x40 MLOAD PUSH4 0xA9059CBB PUSH1 0xE0 SHL DUP2 MSTORE SWAP6 PUSH1 0x20 SWAP3 DUP8 SWAP3 PUSH1 0x1 PUSH1 0x1 PUSH1 0xA0 SHL SUB AND SWAP2 DUP4 SWAP2 SWAP1 DUP3 SWAP1 PUSH2 0x53A4 SWAP1 DUP11 SWAP1 PUSH1 0x4 DUP5 ADD PUSH2 0x3F0D JUMP JUMPDEST SUB SWAP3 GAS CALL SWAP4 DUP5 ISZERO PUSH2 0x4CE5 JUMPI PUSH1 0x40 PUSH1 0x20 SWAP5 DUP8 SWAP4 PUSH1 0x0 DUP1 MLOAD PUSH1 0x20 PUSH2 0x6132 DUP4 CODECOPY DUP2 MLOAD SWAP2 MSTORE SWAP4 PUSH1 0x0 DUP1 MLOAD PUSH1 0x20 PUSH2 0x60D2 DUP4 CODECOPY DUP2 MLOAD SWAP2 MSTORE SWAP9 PUSH2 0x53E8 JUMPI JUMPDEST POP JUMPDEST SWAP4 SWAP6 POP SWAP4 SWAP6 POP PUSH2 0x5282 JUMP JUMPDEST PUSH2 0x53FE SWAP1 DUP9 RETURNDATASIZE DUP11 GT PUSH2 0x6D0 JUMPI PUSH2 0x6C1 DUP2 DUP4 PUSH2 0x3E39 JUMP JUMPDEST POP CODESIZE PUSH2 0x53DB JUMP JUMPDEST SWAP1 SWAP3 SWAP4 SWAP5 DUP2 PUSH2 0x5458 JUMPI JUMPDEST POP PUSH1 0x40 PUSH1 0x0 DUP1 MLOAD PUSH1 0x20 PUSH2 0x60D2 DUP4 CODECOPY DUP2 MLOAD SWAP2 MSTORE SWAP6 DUP5 SWAP4 PUSH1 0x20 SWAP7 SWAP6 PUSH1 0x0 DUP1 MLOAD PUSH1 0x20 PUSH2 0x6072 DUP4 CODECOPY DUP2 MLOAD SWAP2 MSTORE DUP5 PUSH1 0x0 DUP1 MLOAD PUSH1 0x20 PUSH2 0x6132 DUP4 CODECOPY DUP2 MLOAD SWAP2 MSTORE SWAP7 DUP2 MLOAD SWAP1 DUP7 DUP3 MSTORE DUP12 DUP3 ADD MSTORE LOG2 PUSH2 0x53DD JUMP JUMPDEST DUP2 PUSH2 0x548E SWAP3 SWAP4 SWAP6 SWAP5 POP PUSH1 0x20 SWAP2 PUSH1 0x1 DUP1 PUSH1 0xA0 SHL SUB PUSH1 0x0 SLOAD AND SWAP1 PUSH1 0x0 PUSH1 0x40 MLOAD DUP1 SWAP7 DUP2 SWAP6 DUP3 SWAP5 PUSH4 0xA9059CBB PUSH1 0xE0 SHL DUP5 MSTORE PUSH1 0x4 DUP5 ADD PUSH2 0x3F0D JUMP JUMPDEST SUB SWAP3 GAS CALL DUP1 ISZERO PUSH2 0x4CE5 JUMPI PUSH1 0x0 DUP1 MLOAD PUSH1 0x20 PUSH2 0x60D2 DUP4 CODECOPY DUP2 MLOAD SWAP2 MSTORE SWAP6 PUSH1 0x20 SWAP6 DUP9 PUSH1 0x0 DUP1 MLOAD PUSH1 0x20 PUSH2 0x6072 DUP4 CODECOPY DUP2 MLOAD SWAP2 MSTORE PUSH1 0x40 DUP3 SWAP8 PUSH1 0x0 DUP1 MLOAD PUSH1 0x20 PUSH2 0x6132 DUP4 CODECOPY DUP2 MLOAD SWAP2 MSTORE SWAP8 DUP3 SWAP8 PUSH2 0x54E7 JUMPI JUMPDEST POP SWAP7 POP POP POP POP SWAP4 SWAP5 SWAP6 POP SWAP6 POP PUSH2 0x540F JUMP JUMPDEST PUSH2 0x54FD SWAP1 DUP13 RETURNDATASIZE DUP15 GT PUSH2 0x6D0 JUMPI PUSH2 0x6C1 DUP2 DUP4 PUSH2 0x3E39 JUMP JUMPDEST POP CODESIZE PUSH2 0x54D6 JUMP JUMPDEST SWAP1 SWAP7 POP PUSH1 0x20 DUP2 RETURNDATASIZE PUSH1 0x20 GT PUSH2 0x5530 JUMPI JUMPDEST DUP2 PUSH2 0x5520 PUSH1 0x20 SWAP4 DUP4 PUSH2 0x3E39 JUMP JUMPDEST DUP2 ADD SUB SLT PUSH2 0xC73 JUMPI MLOAD SWAP6 CODESIZE PUSH2 0x51B0 JUMP JUMPDEST RETURNDATASIZE SWAP2 POP PUSH2 0x5513 JUMP JUMPDEST PUSH2 0x2710 DUP2 LT ISZERO PUSH2 0x55DC JUMPI PUSH2 0x1388 DUP2 LT ISZERO PUSH2 0x55D3 JUMPI PUSH2 0x7D0 DUP2 LT ISZERO PUSH2 0x55CA JUMPI PUSH2 0x3E8 DUP2 LT ISZERO PUSH2 0x55C1 JUMPI PUSH2 0x1F4 DUP2 LT ISZERO PUSH2 0x55B8 JUMPI PUSH1 0xC8 DUP2 LT ISZERO PUSH2 0x55AF JUMPI PUSH1 0x64 DUP2 LT ISZERO PUSH2 0x55A6 JUMPI PUSH1 0x32 DUP2 LT ISZERO PUSH2 0x559D JUMPI PUSH1 0x14 GT ISZERO PUSH2 0x5595 JUMPI PUSH1 0x0 SWAP1 PUSH1 0x0 SWAP1 JUMP JUMPDEST PUSH1 0x1 SWAP1 PUSH1 0x5 SWAP1 JUMP JUMPDEST POP PUSH1 0x2 SWAP1 PUSH1 0xA SWAP1 JUMP JUMPDEST POP PUSH1 0x3 SWAP1 PUSH1 0xF SWAP1 JUMP JUMPDEST POP PUSH1 0x4 SWAP1 PUSH1 0x14 SWAP1 JUMP JUMPDEST POP PUSH1 0x5 SWAP1 PUSH1 0x19 SWAP1 JUMP JUMPDEST POP PUSH1 0x6 SWAP1 PUSH1 0x1E SWAP1 JUMP JUMPDEST POP PUSH1 0x7 SWAP1 PUSH1 0x23 SWAP1 JUMP JUMPDEST POP PUSH1 0x8 SWAP1 PUSH1 0x28 SWAP1 JUMP JUMPDEST POP PUSH1 0x9 SWAP1 PUSH1 0x2D SWAP1 JUMP JUMPDEST PUSH1 0x1 PUSH1 0x1 PUSH1 0xA0 SHL SUB SWAP1 DUP2 AND PUSH1 0x0 DUP2 DUP2 MSTORE PUSH1 0x10 PUSH1 0x20 SWAP1 DUP2 MSTORE PUSH1 0x40 DUP1 DUP4 KECCAK256 PUSH1 0x1 DUP2 DUP2 ADD DUP1 SLOAD SWAP7 SWAP8 SWAP1 SWAP7 SWAP4 SWAP6 SWAP1 SWAP5 SWAP3 SWAP2 DUP5 ISZERO DUP1 ISZERO PUSH2 0x57A3 JUMPI JUMPDEST PUSH2 0x574E JUMPI PUSH1 0x11 DUP5 MSTORE DUP7 DUP3 KECCAK256 DUP1 SLOAD DUP4 SWAP3 SWAP2 DUP4 JUMPDEST DUP3 DUP2 LT PUSH2 0x5763 JUMPI POP POP POP POP PUSH2 0x5759 JUMPI PUSH1 0x2 DUP3 ADD SWAP7 PUSH2 0x564F DUP9 SLOAD PUSH1 0x15 SLOAD SWAP1 PUSH2 0x402B JUMP JUMPDEST TIMESTAMP GT ISZERO PUSH2 0x574E JUMPI PUSH1 0x3 DUP4 DUP4 PUSH32 0x57025F0027038907EDA728B59164FB63D06048F42E618A35267E6A12E49B2E46 SWAP11 DUP11 SWAP7 SLOAD SWAP10 DUP14 DUP4 MSTORE PUSH1 0xF DUP10 MSTORE PUSH1 0xFF PUSH1 0x5 DUP10 DUP6 KECCAK256 SWAP3 DUP4 SLOAD AND SWAP3 ADD SLOAD AND DUP1 PUSH2 0x5745 JUMPI JUMPDEST DUP1 PUSH2 0x5733 JUMPI JUMPDEST PUSH2 0x5719 JUMPI JUMPDEST POP DUP13 DUP3 MSTORE PUSH1 0xF DUP9 MSTORE DUP2 DUP8 DUP2 KECCAK256 SWAP6 DUP2 PUSH1 0x4 PUSH1 0x5 DUP10 ADD SWAP9 PUSH1 0xFF NOT SWAP10 DUP11 DUP2 SLOAD AND SWAP1 SSTORE DUP3 DUP10 DUP3 ADD SSTORE ADD SSTORE DUP2 DUP6 SSTORE SSTORE SSTORE ADD SWAP1 DUP2 SLOAD AND SWAP1 SSTORE DUP5 PUSH2 0x56EA JUMPI JUMPDEST POP MLOAD SWAP3 DUP4 MSTORE DUP3 ADD MSTORE LOG2 JUMP JUMPDEST DUP5 DUP2 MSTORE PUSH1 0x13 DUP4 MSTORE PUSH2 0x56FC DUP3 DUP3 KECCAK256 PUSH2 0x4E93 JUMP JUMPDEST DUP5 DUP2 MSTORE PUSH1 0x1C DUP4 MSTORE KECCAK256 DUP1 SLOAD PUSH1 0x1 PUSH1 0x1 PUSH1 0xA0 SHL SUB NOT AND SWAP1 SSTORE DUP4 CODESIZE PUSH2 0x56DF JUMP JUMPDEST DUP3 MSTORE PUSH1 0x1 DUP8 DUP4 KECCAK256 ADD PUSH2 0x572B DUP2 SLOAD PUSH2 0x506C JUMP JUMPDEST SWAP1 SSTORE CODESIZE PUSH2 0x56A7 JUMP JUMPDEST POP DUP1 DUP4 MSTORE PUSH1 0x1 DUP9 DUP5 KECCAK256 ADD SLOAD ISZERO ISZERO PUSH2 0x56A2 JUMP JUMPDEST POP DUP1 ISZERO ISZERO PUSH2 0x569C JUMP JUMPDEST POP POP POP POP POP POP POP POP POP JUMP JUMPDEST POP POP POP POP POP POP POP POP JUMP JUMPDEST PUSH1 0xFF PUSH1 0x4 PUSH2 0x5771 DUP4 DUP6 PUSH2 0x3F28 JUMP JUMPDEST POP ADD SLOAD AND PUSH2 0x5781 JUMPI JUMPDEST DUP4 ADD PUSH2 0x562D JUMP JUMPDEST SWAP4 PUSH2 0x579B DUP5 SWAP2 DUP3 PUSH2 0x5792 DUP9 DUP7 PUSH2 0x3F28 JUMP JUMPDEST POP ADD SLOAD SWAP1 PUSH2 0x402B JUMP JUMPDEST SWAP5 SWAP1 POP PUSH2 0x577A JUMP JUMPDEST POP PUSH1 0xFF PUSH1 0x3 DUP5 ADD SLOAD AND PUSH2 0x561B JUMP JUMPDEST PUSH1 0x1 DUP1 PUSH1 0xA0 SHL SUB DUP1 DUP3 AND SWAP1 PUSH1 0x0 SWAP2 DUP1 DUP4 MSTORE PUSH1 0x20 PUSH1 0xF DUP2 MSTORE PUSH1 0x40 SWAP1 DUP2 DUP6 KECCAK256 SWAP4 PUSH1 0x10 DUP3 MSTORE DUP3 DUP7 KECCAK256 PUSH1 0xFF PUSH1 0x5 DUP8 ADD SLOAD AND ISZERO SWAP1 DUP2 ISZERO PUSH2 0x59A6 JUMPI JUMPDEST DUP2 ISZERO PUSH2 0x5999 JUMPI JUMPDEST POP PUSH2 0x598E JUMPI PUSH1 0x24 DUP3 DUP3 DUP9 SLOAD AND DUP6 MLOAD SWAP3 DUP4 DUP1 SWAP3 PUSH4 0x70A08231 PUSH1 0xE0 SHL DUP3 MSTORE ADDRESS PUSH1 0x4 DUP4 ADD MSTORE GAS STATICCALL SWAP1 DUP2 ISZERO PUSH2 0x5984 JUMPI SWAP1 DUP10 SWAP2 DUP9 SWAP2 PUSH2 0x5953 JUMPI JUMPDEST POP LT PUSH2 0x592E JUMPI PUSH1 0x4 DUP6 ADD SWAP6 PUSH1 0x3 DUP8 SLOAD SWAP7 ADD SWAP6 PUSH2 0x5841 DUP8 SLOAD DUP1 SWAP3 PUSH2 0x4058 JUMP JUMPDEST DUP11 DUP2 DUP2 GT PUSH2 0x5906 JUMPI JUMPDEST POP POP DUP10 DUP1 PUSH2 0x5870 JUMPI JUMPDEST POP POP POP POP POP POP POP SLOAD SWAP1 SLOAD GT ISZERO PUSH2 0x5867 JUMPI POP SWAP1 JUMP JUMPDEST PUSH2 0x464C SWAP1 PUSH2 0x512A JUMP JUMPDEST PUSH2 0x58A1 SWAP4 PUSH2 0x587F DUP3 DUP8 SWAP5 PUSH2 0x402B JUMP JUMPDEST DUP10 SSTORE DUP4 SLOAD AND DUP11 DUP5 DUP9 MLOAD DUP1 SWAP8 DUP2 SWAP6 DUP3 SWAP5 PUSH4 0xA9059CBB PUSH1 0xE0 SHL DUP5 MSTORE PUSH1 0x4 DUP5 ADD PUSH2 0x3F0D JUMP JUMPDEST SUB SWAP3 GAS CALL SWAP1 DUP2 ISZERO PUSH2 0x58FB JUMPI POP SWAP1 PUSH1 0x0 DUP1 MLOAD PUSH1 0x20 PUSH2 0x60F2 DUP4 CODECOPY DUP2 MLOAD SWAP2 MSTORE SWAP4 SWAP3 SWAP2 PUSH2 0x58DE JUMPI JUMPDEST POP PUSH1 0x2 DUP3 MLOAD SWAP2 DUP10 DUP4 MSTORE DUP3 ADD MSTORE LOG2 CODESIZE DUP1 DUP1 DUP1 DUP1 DUP1 DUP10 PUSH2 0x5853 JUMP JUMPDEST PUSH2 0x58F4 SWAP1 DUP3 RETURNDATASIZE DUP5 GT PUSH2 0x6D0 JUMPI PUSH2 0x6C1 DUP2 DUP4 PUSH2 0x3E39 JUMP JUMPDEST POP CODESIZE PUSH2 0x58C5 JUMP JUMPDEST DUP5 MLOAD SWAP1 RETURNDATASIZE SWAP1 DUP3 RETURNDATACOPY RETURNDATASIZE SWAP1 REVERT JUMPDEST DUP2 SWAP12 POP DUP7 PUSH1 0x0 DUP1 MLOAD PUSH1 0x20 PUSH2 0x6072 DUP4 CODECOPY DUP2 MLOAD SWAP2 MSTORE SWAP2 DUP10 SWAP4 SWAP14 DUP3 MLOAD SWAP2 DUP3 MSTORE DUP9 DUP3 ADD MSTORE LOG2 CODESIZE DUP1 PUSH2 0x584A JUMP JUMPDEST POP DUP5 SWAP7 SWAP3 SWAP6 POP DUP2 PUSH1 0x0 DUP1 MLOAD PUSH1 0x20 PUSH2 0x6072 DUP4 CODECOPY DUP2 MLOAD SWAP2 MSTORE SWAP6 SWAP3 SWAP5 POP MLOAD SWAP3 DUP4 MSTORE DUP3 ADD MSTORE LOG2 SWAP1 JUMP JUMPDEST DUP1 SWAP3 POP DUP5 DUP1 SWAP3 POP RETURNDATASIZE DUP4 GT PUSH2 0x597D JUMPI JUMPDEST PUSH2 0x596C DUP2 DUP4 PUSH2 0x3E39 JUMP JUMPDEST DUP2 ADD SUB SLT PUSH2 0x2C4C JUMPI DUP9 SWAP1 MLOAD CODESIZE PUSH2 0x5823 JUMP JUMPDEST POP RETURNDATASIZE PUSH2 0x5962 JUMP JUMPDEST DUP5 MLOAD RETURNDATASIZE DUP10 DUP3 RETURNDATACOPY RETURNDATASIZE SWAP1 REVERT JUMPDEST POP POP POP POP POP SWAP2 POP POP SWAP1 JUMP JUMPDEST PUSH1 0x1 SWAP2 POP ADD SLOAD ISZERO CODESIZE PUSH2 0x57EE JUMP JUMPDEST PUSH1 0x3 DUP2 ADD SLOAD PUSH1 0xFF AND SWAP2 POP PUSH2 0x57E7 JUMP JUMPDEST PUSH1 0x1 DUP1 PUSH1 0xA0 SHL SUB DUP1 DUP3 AND SWAP1 PUSH1 0x0 SWAP2 DUP1 DUP4 MSTORE PUSH1 0x20 PUSH1 0xF DUP2 MSTORE PUSH1 0x40 SWAP1 DUP2 DUP6 KECCAK256 SWAP4 PUSH1 0x10 DUP3 MSTORE DUP3 DUP7 KECCAK256 PUSH1 0xFF PUSH1 0x5 DUP8 ADD SLOAD AND ISZERO SWAP1 DUP2 ISZERO PUSH2 0x5B39 JUMPI JUMPDEST DUP2 ISZERO PUSH2 0x5B2C JUMPI JUMPDEST POP PUSH2 0x598E JUMPI PUSH1 0x24 DUP3 DUP3 DUP9 SLOAD AND DUP6 MLOAD SWAP3 DUP4 DUP1 SWAP3 PUSH4 0x70A08231 PUSH1 0xE0 SHL DUP3 MSTORE ADDRESS PUSH1 0x4 DUP4 ADD MSTORE GAS STATICCALL SWAP1 DUP2 ISZERO PUSH2 0x5984 JUMPI SWAP1 DUP10 SWAP2 DUP9 SWAP2 PUSH2 0x5AFB JUMPI JUMPDEST POP LT PUSH2 0x592E JUMPI PUSH1 0x4 DUP6 ADD SWAP6 PUSH1 0x3 DUP8 SLOAD SWAP7 ADD SWAP6 PUSH2 0x5A45 DUP8 SLOAD DUP1 SWAP3 PUSH2 0x4058 JUMP JUMPDEST DUP11 DUP2 DUP2 GT PUSH2 0x5AD3 JUMPI JUMPDEST POP POP DUP10 DUP1 PUSH2 0x5A6A JUMPI POP POP POP POP POP POP POP SLOAD SWAP1 SLOAD GT ISZERO PUSH2 0x5867 JUMPI POP SWAP1 JUMP JUMPDEST PUSH2 0x5A79 SWAP4 PUSH2 0x587F DUP3 DUP8 SWAP5 PUSH2 0x402B JUMP JUMPDEST SUB SWAP3 GAS CALL SWAP1 DUP2 ISZERO PUSH2 0x58FB JUMPI POP SWAP1 PUSH1 0x0 DUP1 MLOAD PUSH1 0x20 PUSH2 0x60F2 DUP4 CODECOPY DUP2 MLOAD SWAP2 MSTORE SWAP4 SWAP3 SWAP2 PUSH2 0x5AB6 JUMPI JUMPDEST POP PUSH1 0x3 DUP3 MLOAD SWAP2 DUP10 DUP4 MSTORE DUP3 ADD MSTORE LOG2 CODESIZE DUP1 DUP1 DUP1 DUP1 DUP1 DUP10 PUSH2 0x5853 JUMP JUMPDEST PUSH2 0x5ACC SWAP1 DUP3 RETURNDATASIZE DUP5 GT PUSH2 0x6D0 JUMPI PUSH2 0x6C1 DUP2 DUP4 PUSH2 0x3E39 JUMP JUMPDEST POP CODESIZE PUSH2 0x5A9D JUMP JUMPDEST DUP2 SWAP12 POP DUP7 PUSH1 0x0 DUP1 MLOAD PUSH1 0x20 PUSH2 0x6072 DUP4 CODECOPY DUP2 MLOAD SWAP2 MSTORE SWAP2 DUP10 SWAP4 SWAP14 DUP3 MLOAD SWAP2 DUP3 MSTORE DUP9 DUP3 ADD MSTORE LOG2 CODESIZE DUP1 PUSH2 0x5A4E JUMP JUMPDEST DUP1 SWAP3 POP DUP5 DUP1 SWAP3 POP RETURNDATASIZE DUP4 GT PUSH2 0x5B25 JUMPI JUMPDEST PUSH2 0x5B14 DUP2 DUP4 PUSH2 0x3E39 JUMP JUMPDEST DUP2 ADD SUB SLT PUSH2 0x2C4C JUMPI DUP9 SWAP1 MLOAD CODESIZE PUSH2 0x5A27 JUMP JUMPDEST POP RETURNDATASIZE PUSH2 0x5B0A JUMP JUMPDEST PUSH1 0x1 SWAP2 POP ADD SLOAD ISZERO CODESIZE PUSH2 0x59F2 JUMP JUMPDEST PUSH1 0x3 DUP2 ADD SLOAD PUSH1 0xFF AND SWAP2 POP PUSH2 0x59EB JUMP JUMPDEST PUSH1 0x1 DUP1 PUSH1 0xA0 SHL SUB DUP1 DUP3 AND SWAP1 PUSH1 0x0 SWAP2 DUP1 DUP4 MSTORE PUSH1 0x20 PUSH1 0xF DUP2 MSTORE PUSH1 0x40 SWAP1 DUP2 DUP6 KECCAK256 SWAP4 PUSH1 0x10 DUP3 MSTORE DUP3 DUP7 KECCAK256 PUSH1 0xFF PUSH1 0x5 DUP8 ADD SLOAD AND ISZERO SWAP1 DUP2 ISZERO PUSH2 0x5CCC JUMPI JUMPDEST DUP2 ISZERO PUSH2 0x5CBF JUMPI JUMPDEST POP PUSH2 0x598E JUMPI PUSH1 0x24 DUP3 DUP3 DUP9 SLOAD AND DUP6 MLOAD SWAP3 DUP4 DUP1 SWAP3 PUSH4 0x70A08231 PUSH1 0xE0 SHL DUP3 MSTORE ADDRESS PUSH1 0x4 DUP4 ADD MSTORE GAS STATICCALL SWAP1 DUP2 ISZERO PUSH2 0x5984 JUMPI SWAP1 DUP10 SWAP2 DUP9 SWAP2 PUSH2 0x5C8E JUMPI JUMPDEST POP LT PUSH2 0x592E JUMPI PUSH1 0x4 DUP6 ADD SWAP6 PUSH1 0x3 DUP8 SLOAD SWAP7 ADD SWAP6 PUSH2 0x5BD8 DUP8 SLOAD DUP1 SWAP3 PUSH2 0x4058 JUMP JUMPDEST DUP11 DUP2 DUP2 GT PUSH2 0x5C66 JUMPI JUMPDEST POP POP DUP10 DUP1 PUSH2 0x5BFD JUMPI POP POP POP POP POP POP POP SLOAD SWAP1 SLOAD GT ISZERO PUSH2 0x5867 JUMPI POP SWAP1 JUMP JUMPDEST PUSH2 0x5C0C SWAP4 PUSH2 0x587F DUP3 DUP8 SWAP5 PUSH2 0x402B JUMP JUMPDEST SUB SWAP3 GAS CALL SWAP1 DUP2 ISZERO PUSH2 0x58FB JUMPI POP SWAP1 PUSH1 0x0 DUP1 MLOAD PUSH1 0x20 PUSH2 0x60F2 DUP4 CODECOPY DUP2 MLOAD SWAP2 MSTORE SWAP4 SWAP3 SWAP2 PUSH2 0x5C49 JUMPI JUMPDEST POP PUSH1 0x4 DUP3 MLOAD SWAP2 DUP10 DUP4 MSTORE DUP3 ADD MSTORE LOG2 CODESIZE DUP1 DUP1 DUP1 DUP1 DUP1 DUP10 PUSH2 0x5853 JUMP JUMPDEST PUSH2 0x5C5F SWAP1 DUP3 RETURNDATASIZE DUP5 GT PUSH2 0x6D0 JUMPI PUSH2 0x6C1 DUP2 DUP4 PUSH2 0x3E39 JUMP JUMPDEST POP CODESIZE PUSH2 0x5C30 JUMP JUMPDEST DUP2 SWAP12 POP DUP7 PUSH1 0x0 DUP1 MLOAD PUSH1 0x20 PUSH2 0x6072 DUP4 CODECOPY DUP2 MLOAD SWAP2 MSTORE SWAP2 DUP10 SWAP4 SWAP14 DUP3 MLOAD SWAP2 DUP3 MSTORE DUP9 DUP3 ADD MSTORE LOG2 CODESIZE DUP1 PUSH2 0x5BE1 JUMP JUMPDEST DUP1 SWAP3 POP DUP5 DUP1 SWAP3 POP RETURNDATASIZE DUP4 GT PUSH2 0x5CB8 JUMPI JUMPDEST PUSH2 0x5CA7 DUP2 DUP4 PUSH2 0x3E39 JUMP JUMPDEST DUP2 ADD SUB SLT PUSH2 0x2C4C JUMPI DUP9 SWAP1 MLOAD CODESIZE PUSH2 0x5BBA JUMP JUMPDEST POP RETURNDATASIZE PUSH2 0x5C9D JUMP JUMPDEST PUSH1 0x1 SWAP2 POP ADD SLOAD ISZERO CODESIZE PUSH2 0x5B85 JUMP JUMPDEST PUSH1 0x3 DUP2 ADD SLOAD PUSH1 0xFF AND SWAP2 POP PUSH2 0x5B7E JUMP JUMPDEST SWAP1 DUP2 ISZERO PUSH2 0x5F1B JUMPI PUSH1 0x17 SLOAD PUSH9 0x3635C9ADC5DEA00000 DUP1 DUP3 LT SWAP1 DUP2 ISZERO PUSH2 0x5F0F JUMPI JUMPDEST POP PUSH2 0x5F0A JUMPI PUSH1 0x1 DUP1 PUSH1 0xA0 SHL SUB SWAP3 PUSH1 0x0 SWAP4 DUP1 DUP6 SLOAD AND SWAP3 PUSH1 0x40 SWAP4 DUP5 MLOAD SWAP2 DUP3 PUSH4 0x70A08231 PUSH1 0xE0 SHL SWAP3 DUP4 DUP3 MSTORE ADDRESS PUSH1 0x4 DUP4 ADD MSTORE DUP2 PUSH1 0x24 PUSH1 0x20 SWAP7 DUP8 SWAP4 GAS STATICCALL SWAP1 DUP2 ISZERO PUSH2 0x5F00 JUMPI DUP10 SWAP2 PUSH2 0x5ED3 JUMPI JUMPDEST POP PUSH2 0x5D4B DUP7 DUP4 PUSH2 0x402B JUMP JUMPDEST GT PUSH2 0x5EB5 JUMPI PUSH2 0x2710 DUP6 MUL PUSH2 0x270F NOT DUP7 DUP3 DIV ADD PUSH2 0x5EBF JUMPI PUSH2 0x5D6E DUP3 PUSH2 0x3E8 SWAP3 PUSH2 0x4038 JUMP JUMPDEST GT PUSH2 0x5EB5 JUMPI PUSH1 0x18 SLOAD SWAP1 PUSH2 0x5D8E PUSH2 0x5D84 DUP4 DUP9 PUSH2 0x4002 JUMP JUMPDEST PUSH2 0x285C DUP9 DUP5 PUSH2 0x402B JUMP JUMPDEST SWAP5 DUP6 ISZERO DUP1 ISZERO PUSH2 0x5EAC JUMPI JUMPDEST PUSH2 0x5EA0 JUMPI PUSH1 0x1 SLOAD AND SWAP3 DUP8 MLOAD SWAP1 DUP2 MSTORE ADDRESS PUSH1 0x4 DUP3 ADD MSTORE DUP5 DUP2 PUSH1 0x24 DUP2 DUP8 GAS STATICCALL SWAP1 DUP2 ISZERO PUSH2 0x5E96 JUMPI SWAP1 DUP4 SWAP2 DUP12 SWAP2 PUSH2 0x5E61 JUMPI JUMPDEST POP LT PUSH2 0x5E56 JUMPI DUP5 DUP10 SWAP4 SWAP3 PUSH2 0x398D DUP9 PUSH2 0x5DDC SWAP5 PUSH2 0x402B JUMP JUMPDEST PUSH1 0x18 SSTORE DUP1 EXTCODESIZE ISZERO PUSH2 0x29B2 JUMPI DUP2 SWAP1 PUSH1 0x24 DUP8 MLOAD DUP1 SWAP5 DUP2 SWAP4 PUSH4 0x852CD8D PUSH1 0xE3 SHL DUP4 MSTORE DUP9 PUSH1 0x4 DUP5 ADD MSTORE GAS CALL DUP1 ISZERO PUSH2 0x5E4C JUMPI PUSH32 0xEC3929061CBBBEECB325623E7D5A86C3DAE11CB8A22CA45DC0972955657DA25 SWAP7 SWAP8 POP PUSH2 0x5E3D JUMPI JUMPDEST POP DUP4 MLOAD SWAP3 DUP4 MSTORE DUP3 ADD MSTORE LOG1 JUMP JUMPDEST PUSH2 0x5E46 SWAP1 PUSH2 0x3E26 JUMP JUMPDEST CODESIZE PUSH2 0x5E31 JUMP JUMPDEST DUP6 MLOAD RETURNDATASIZE DUP10 DUP3 RETURNDATACOPY RETURNDATASIZE SWAP1 REVERT JUMPDEST POP POP POP POP POP POP POP SWAP1 POP JUMP JUMPDEST DUP1 SWAP3 POP DUP7 DUP1 SWAP3 POP RETURNDATASIZE DUP4 GT PUSH2 0x5E8F JUMPI JUMPDEST PUSH2 0x5E7A DUP2 DUP4 PUSH2 0x3E39 JUMP JUMPDEST DUP2 ADD SUB SLT PUSH2 0x5E8B JUMPI DUP3 SWAP1 MLOAD CODESIZE PUSH2 0x5DC5 JUMP JUMPDEST DUP10 DUP1 REVERT JUMPDEST POP RETURNDATASIZE PUSH2 0x5E70 JUMP JUMPDEST DUP9 MLOAD RETURNDATASIZE DUP13 DUP3 RETURNDATACOPY RETURNDATASIZE SWAP1 REVERT JUMPDEST POP POP POP POP POP POP POP POP SWAP1 POP JUMP JUMPDEST POP DUP3 DUP7 GT PUSH2 0x5D98 JUMP JUMPDEST POP POP POP POP POP POP SWAP1 POP JUMP JUMPDEST PUSH4 0x4E487B71 PUSH1 0xE0 SHL DUP10 MSTORE PUSH1 0x11 PUSH1 0x4 MSTORE PUSH1 0x24 DUP10 REVERT JUMPDEST SWAP1 POP DUP4 DUP2 DUP2 RETURNDATASIZE DUP4 GT PUSH2 0x5EF9 JUMPI JUMPDEST PUSH2 0x5EEA DUP2 DUP4 PUSH2 0x3E39 JUMP JUMPDEST DUP2 ADD SUB SLT PUSH2 0x4358 JUMPI MLOAD CODESIZE PUSH2 0x5D40 JUMP JUMPDEST POP RETURNDATASIZE PUSH2 0x5EE0 JUMP JUMPDEST DUP8 MLOAD RETURNDATASIZE DUP12 DUP3 RETURNDATACOPY RETURNDATASIZE SWAP1 REVERT JUMPDEST POP SWAP1 POP JUMP JUMPDEST SWAP1 POP PUSH1 0x18 SLOAD LT CODESIZE PUSH2 0x5CFA JUMP JUMPDEST SWAP1 POP JUMP JUMPDEST PUSH1 0xFF PUSH1 0x0 DUP1 MLOAD PUSH1 0x20 PUSH2 0x6152 DUP4 CODECOPY DUP2 MLOAD SWAP2 MSTORE SLOAD PUSH1 0x40 SHR AND ISZERO PUSH2 0x5F3C JUMPI JUMP JUMPDEST PUSH1 0x40 MLOAD PUSH4 0x1AFCD79F PUSH1 0xE3 SHL DUP2 MSTORE PUSH1 0x4 SWAP1 REVERT JUMPDEST SWAP1 PUSH2 0x5F75 JUMPI POP DUP1 MLOAD ISZERO PUSH2 0x5F63 JUMPI PUSH1 0x20 DUP2 MLOAD SWAP2 ADD REVERT JUMPDEST PUSH1 0x40 MLOAD PUSH4 0xD6BDA275 PUSH1 0xE0 SHL DUP2 MSTORE PUSH1 0x4 SWAP1 REVERT JUMPDEST DUP2 MLOAD ISZERO DUP1 PUSH2 0x5FA8 JUMPI JUMPDEST PUSH2 0x5F86 JUMPI POP SWAP1 JUMP JUMPDEST PUSH1 0x40 MLOAD PUSH4 0x9996B315 PUSH1 0xE0 SHL DUP2 MSTORE PUSH1 0x1 PUSH1 0x1 PUSH1 0xA0 SHL SUB SWAP1 SWAP2 AND PUSH1 0x4 DUP3 ADD MSTORE PUSH1 0x24 SWAP1 REVERT JUMPDEST POP DUP1 EXTCODESIZE ISZERO PUSH2 0x5F7E JUMP INVALID SWAP12 EXTCODECOPY 0xC7 EQ DUP3 LOG1 0xB2 0xEE 0xBE PUSH23 0x4A739F46F1FE99291FD0183BE81951532B29D0C9C8DA38 0xF8 LOG0 0xC9 0x2F 0x4C JUMPDEST SIGNEXTEND PUSH9 0x77F878CB4C0C8D348A SELFBALANCE 0xB7 PUSH14 0x716C8E78F425043DF9515B6FCEBD EXP 0x2C 0xE9 DUP12 0x28 0xCB CODECOPY SAR PUSH1 0x8 0xBB 0xC7 PUSH10 0x378C9A4919628E11639C 0xB5 PUSH22 0xCD320FCC9016D09D72D40FDAE2FD8CEAC6B6234C7706 0x21 0x4F 0xD3 SWAP13 SHR 0xD1 0xE6 MULMOD LOG0 MSTORE DUP13 NOT SWAP4 STOP LOG0 0xEE LOG2 0xE PUSH8 0x8CB42233C1C456C8 0x4C 0xED 0xCE PUSH31 0xA53FA360BB71BF3B761B7609567770360894A13BA1A3210667C828492DB98D 0xCA RETURNDATACOPY KECCAK256 PUSH23 0xCC3735A920A3CA505D382BBCB5987AAB1AFD379F6695F1 MOD DUP9 PUSH10 0xEE8CA6A0D02304C57935 0xA9 0xCC RETURNDATASIZE RETURNDATACOPY LOG2 0xE5 0x1E 0x4D MSTORE SIGNEXTEND 0xC2 OR 0xD2 0x5E DELEGATECALL PC DUP6 0x24 0x22 DUP14 SELFDESTRUCT 0xCF 0xA5 XOR DELEGATECALL 0xAD MSTORE OR DUP13 PUSH18 0xD49B8061D016213CD3118BE0079C53165914 SGT PREVRANDAO 0xCD 0x1F 0xD0 LOG4 CALLCODE DUP5 NOT 0x49 PUSH32 0x9722A3DAAFE3B4186F6B6457E0920BB94EB3842A728DB98228C375FF6B00C5BC GAS SLOAD STATICCALL 0xC6 PUSH20 0x6155517A0A20A61AF381583145E90B82CC5E529B DELEGATECALL 0xFC 0x4D 0xE PREVRANDAO CODECOPY PUSH18 0x74CDF145C4251AC33EF195A4249B779B1742 0x2D 0xD 0xF9 0x22 0x23 ADD DUP12 ORIGIN 0xB4 0xD1 STATICCALL CHAINID 0xE0 PUSH18 0x723D6817E2486D003BECC55F00F3A670CD3A 0xF7 0xD6 0x4B BASEFEE DUP10 0x26 DUP9 ADDMOD DUP10 0xD0 DUP11 DUP6 DUP6 LOG1 CODESIZE SELFDESTRUCT GASLIMIT MSTORE 0x27 0xAF PUSH8 0x37339A1EC262F0C5 PUSH31 0x16840DF040F15088DC2F81FE391C3923BEC73E23A9662EFC9C229C6A00A264 PUSH10 0x7066735822122014F088 JUMPDEST 0xE1 0xA9 0x24 PUSH20 0x8CAACC00105F69E96BD27EEF47785D1C5F4A78D0 0x2F 0xDC DIV TIMESTAMP PUSH5 0x736F6C6343 STOP ADDMOD AND STOP CALLER "},"methodIdentifiers":{"MAX_PRICE_IMPACT()":"6839b5fa","MIN_LIQUIDITY()":"21b77d63","REWARD_DIFFERENTIAL()":"88481b61","REWARD_DIRECT()":"0e2be210","REWARD_DYNAMIC()":"8a859a85","REWARD_LEVEL()":"8c0eaa48","REWARD_STATIC()":"1427f616","SECONDS_IN_UNIT()":"488b5d97","UPGRADE_INTERFACE_VERSION()":"ad3cb1cc","addLiquidity(uint256,uint256)":"9cd441da","adminResetUser(address)":"e8176305","adminSetReferrer(address,address)":"a2af9226","adminUpdateUserData(address,bool,uint256,bool,uint256,bool,uint256,bool,uint256)":"9a5fb0fe","batchUpdateTeamCounts(address[],uint256[])":"74b0eecf","batchUpdateTeamVolumes(address[],uint256[])":"c3b369d7","bindReferrer(address)":"04f618cb","buyTicket(uint256)":"67dd74ca","buybackPercent()":"e4412f68","buybackWallet()":"deab8aea","claimRewards()":"372500ab","directReferrals(address,uint256)":"05ad3935","directRewardPercent()":"ccf61944","emergencyPause()":"51858e27","emergencyPaused()":"27c830a9","emergencyUnpause()":"4a4e3bd5","getDirectReferrals(address)":"d2c8e0e5","getJBCPrice()":"3a3ea2f0","getLevel(uint256)":"86481d40","getLevelByTeamCount(uint256)":"47194001","getLevelRewardLayers(uint256)":"182c84cc","initialize(address,address,address,address,address,address)":"cc2a9a5b","jbcToken()":"1788513c","lastBurnTime()":"e3067449","levelConfigs(uint256)":"21f483d3","levelRewardPercent()":"bd594dcf","levelRewardPool()":"b759936b","liquidityEnabled()":"b048a4bb","lpInjectionPercent()":"ceaa366d","lpInjectionWallet()":"88fd4d33","marketingPercent()":"d8020a18","marketingWallet()":"75f0a874","mcToken()":"95253992","nextStakeId()":"75506c96","nextTicketId()":"6031a52f","owner()":"8da5cb5b","priceOracle()":"2630c12f","proxiableUUID()":"52d1902d","redeem()":"be040fb0","redeemEnabled()":"d2f82536","redeemStake(uint256)":"10ff994d","redemptionFeePercent()":"dec7fa3b","renounceOwnership()":"715018a6","rescueTokens(address,address,uint256)":"cea9d26f","setDistributionConfig(uint256,uint256,uint256,uint256,uint256,uint256)":"d0f16470","setOperationalStatus(bool,bool)":"01d62efb","setPriceOracle(address)":"530e784f","setRedemptionFeePercent(uint256)":"ece71266","setSwapTaxes(uint256,uint256)":"90b0eb51","setTicketFlexibilityDuration(uint256)":"9d99eca4","setWallets(address,address,address,address)":"83672f3e","stakeLiquidity(uint256,uint256)":"4ea4c6b3","stakeOwner(uint256)":"3dbd46bd","stakePendingRewards(uint256,uint256)":"ac8f50aa","swapBuyTax()":"27f082f4","swapJBCToMC(uint256)":"52778b05","swapMCToJBC(uint256)":"0a5c4567","swapReserveJBC()":"1d0dac76","swapReserveMC()":"77a2a540","swapSellTax()":"9370b080","ticketFlexibilityDuration()":"6dd66827","ticketOwner(uint256)":"c2ff12fc","ticketPendingRewards(uint256,uint256)":"813380cd","transferOwnership(address)":"f2fde38b","treasuryPercent()":"04ef9d58","treasuryWallet()":"4626402b","upgradeToAndCall(address,bytes)":"4f1ef286","userInfo(address)":"1959a002","userStakes(address,uint256)":"b5d5b5fa","userTicket(address)":"8710bcaa","withdrawLevelRewardPool(address,uint256)":"99b6024d","withdrawSwapReserves(address,uint256,address,uint256)":"d4f00142"}},"storageLayout":{"storage":[{"astId":2439,"contract":"contracts/JinbaoProtocol.sol:JinbaoProtocol","label":"mcToken","offset":0,"slot":"0","type":"t_contract(IERC20)1232"},{"astId":2442,"contract":"contracts/JinbaoProtocol.sol:JinbaoProtocol","label":"jbcToken","offset":0,"slot":"1","type":"t_contract(IJBC)2359"},{"astId":2444,"contract":"contracts/JinbaoProtocol.sol:JinbaoProtocol","label":"marketingWallet","offset":0,"slot":"2","type":"t_address"},{"astId":2446,"contract":"contracts/JinbaoProtocol.sol:JinbaoProtocol","label":"treasuryWallet","offset":0,"slot":"3","type":"t_address"},{"astId":2448,"contract":"contracts/JinbaoProtocol.sol:JinbaoProtocol","label":"lpInjectionWallet","offset":0,"slot":"4","type":"t_address"},{"astId":2450,"contract":"contracts/JinbaoProtocol.sol:JinbaoProtocol","label":"buybackWallet","offset":0,"slot":"5","type":"t_address"},{"astId":2455,"contract":"contracts/JinbaoProtocol.sol:JinbaoProtocol","label":"directRewardPercent","offset":0,"slot":"6","type":"t_uint256"},{"astId":2457,"contract":"contracts/JinbaoProtocol.sol:JinbaoProtocol","label":"levelRewardPercent","offset":0,"slot":"7","type":"t_uint256"},{"astId":2459,"contract":"contracts/JinbaoProtocol.sol:JinbaoProtocol","label":"marketingPercent","offset":0,"slot":"8","type":"t_uint256"},{"astId":2461,"contract":"contracts/JinbaoProtocol.sol:JinbaoProtocol","label":"buybackPercent","offset":0,"slot":"9","type":"t_uint256"},{"astId":2463,"contract":"contracts/JinbaoProtocol.sol:JinbaoProtocol","label":"lpInjectionPercent","offset":0,"slot":"10","type":"t_uint256"},{"astId":2465,"contract":"contracts/JinbaoProtocol.sol:JinbaoProtocol","label":"treasuryPercent","offset":0,"slot":"11","type":"t_uint256"},{"astId":2467,"contract":"contracts/JinbaoProtocol.sol:JinbaoProtocol","label":"redemptionFeePercent","offset":0,"slot":"12","type":"t_uint256"},{"astId":2469,"contract":"contracts/JinbaoProtocol.sol:JinbaoProtocol","label":"swapBuyTax","offset":0,"slot":"13","type":"t_uint256"},{"astId":2471,"contract":"contracts/JinbaoProtocol.sol:JinbaoProtocol","label":"swapSellTax","offset":0,"slot":"14","type":"t_uint256"},{"astId":2491,"contract":"contracts/JinbaoProtocol.sol:JinbaoProtocol","label":"userInfo","offset":0,"slot":"15","type":"t_mapping(t_address,t_struct(UserInfo)2402_storage)"},{"astId":2496,"contract":"contracts/JinbaoProtocol.sol:JinbaoProtocol","label":"userTicket","offset":0,"slot":"16","type":"t_mapping(t_address,t_struct(Ticket)2424_storage)"},{"astId":2502,"contract":"contracts/JinbaoProtocol.sol:JinbaoProtocol","label":"userStakes","offset":0,"slot":"17","type":"t_mapping(t_address,t_array(t_struct(Stake)2415_storage)dyn_storage)"},{"astId":2507,"contract":"contracts/JinbaoProtocol.sol:JinbaoProtocol","label":"directReferrals","offset":0,"slot":"18","type":"t_mapping(t_address,t_array(t_address)dyn_storage)"},{"astId":2513,"contract":"contracts/JinbaoProtocol.sol:JinbaoProtocol","label":"ticketPendingRewards","offset":0,"slot":"19","type":"t_mapping(t_uint256,t_array(t_struct(PendingReward)2429_storage)dyn_storage)"},{"astId":2524,"contract":"contracts/JinbaoProtocol.sol:JinbaoProtocol","label":"levelConfigs","offset":0,"slot":"20","type":"t_array(t_struct(LevelConfig)2520_storage)dyn_storage"},{"astId":2526,"contract":"contracts/JinbaoProtocol.sol:JinbaoProtocol","label":"ticketFlexibilityDuration","offset":0,"slot":"21","type":"t_uint256"},{"astId":2528,"contract":"contracts/JinbaoProtocol.sol:JinbaoProtocol","label":"liquidityEnabled","offset":0,"slot":"22","type":"t_bool"},{"astId":2530,"contract":"contracts/JinbaoProtocol.sol:JinbaoProtocol","label":"redeemEnabled","offset":1,"slot":"22","type":"t_bool"},{"astId":2532,"contract":"contracts/JinbaoProtocol.sol:JinbaoProtocol","label":"swapReserveMC","offset":0,"slot":"23","type":"t_uint256"},{"astId":2534,"contract":"contracts/JinbaoProtocol.sol:JinbaoProtocol","label":"swapReserveJBC","offset":0,"slot":"24","type":"t_uint256"},{"astId":2544,"contract":"contracts/JinbaoProtocol.sol:JinbaoProtocol","label":"nextTicketId","offset":0,"slot":"25","type":"t_uint256"},{"astId":2546,"contract":"contracts/JinbaoProtocol.sol:JinbaoProtocol","label":"nextStakeId","offset":0,"slot":"26","type":"t_uint256"},{"astId":2548,"contract":"contracts/JinbaoProtocol.sol:JinbaoProtocol","label":"lastBurnTime","offset":0,"slot":"27","type":"t_uint256"},{"astId":2552,"contract":"contracts/JinbaoProtocol.sol:JinbaoProtocol","label":"ticketOwner","offset":0,"slot":"28","type":"t_mapping(t_uint256,t_address)"},{"astId":2558,"contract":"contracts/JinbaoProtocol.sol:JinbaoProtocol","label":"stakePendingRewards","offset":0,"slot":"29","type":"t_mapping(t_uint256,t_array(t_struct(PendingReward)2429_storage)dyn_storage)"},{"astId":2562,"contract":"contracts/JinbaoProtocol.sol:JinbaoProtocol","label":"stakeOwner","offset":0,"slot":"30","type":"t_mapping(t_uint256,t_address)"},{"astId":2564,"contract":"contracts/JinbaoProtocol.sol:JinbaoProtocol","label":"levelRewardPool","offset":0,"slot":"31","type":"t_uint256"},{"astId":2568,"contract":"contracts/JinbaoProtocol.sol:JinbaoProtocol","label":"__gap","offset":0,"slot":"32","type":"t_array(t_uint256)47_storage"},{"astId":2570,"contract":"contracts/JinbaoProtocol.sol:JinbaoProtocol","label":"emergencyPaused","offset":0,"slot":"79","type":"t_bool"},{"astId":2572,"contract":"contracts/JinbaoProtocol.sol:JinbaoProtocol","label":"priceOracle","offset":1,"slot":"79","type":"t_address"}],"types":{"t_address":{"encoding":"inplace","label":"address","numberOfBytes":"20"},"t_array(t_address)dyn_storage":{"base":"t_address","encoding":"dynamic_array","label":"address[]","numberOfBytes":"32"},"t_array(t_struct(LevelConfig)2520_storage)dyn_storage":{"base":"t_struct(LevelConfig)2520_storage","encoding":"dynamic_array","label":"struct JinbaoProtocol.LevelConfig[]","numberOfBytes":"32"},"t_array(t_struct(PendingReward)2429_storage)dyn_storage":{"base":"t_struct(PendingReward)2429_storage","encoding":"dynamic_array","label":"struct JinbaoProtocol.PendingReward[]","numberOfBytes":"32"},"t_array(t_struct(Stake)2415_storage)dyn_storage":{"base":"t_struct(Stake)2415_storage","encoding":"dynamic_array","label":"struct JinbaoProtocol.Stake[]","numberOfBytes":"32"},"t_array(t_uint256)47_storage":{"base":"t_uint256","encoding":"inplace","label":"uint256[47]","numberOfBytes":"1504"},"t_bool":{"encoding":"inplace","label":"bool","numberOfBytes":"1"},"t_contract(IERC20)1232":{"encoding":"inplace","label":"contract IERC20","numberOfBytes":"20"},"t_contract(IJBC)2359":{"encoding":"inplace","label":"contract IJBC","numberOfBytes":"20"},"t_mapping(t_address,t_array(t_address)dyn_storage)":{"encoding":"mapping","key":"t_address","label":"mapping(address => address[])","numberOfBytes":"32","value":"t_array(t_address)dyn_storage"},"t_mapping(t_address,t_array(t_struct(Stake)2415_storage)dyn_storage)":{"encoding":"mapping","key":"t_address","label":"mapping(address => struct JinbaoProtocol.Stake[])","numberOfBytes":"32","value":"t_array(t_struct(Stake)2415_storage)dyn_storage"},"t_mapping(t_address,t_struct(Ticket)2424_storage)":{"encoding":"mapping","key":"t_address","label":"mapping(address => struct JinbaoProtocol.Ticket)","numberOfBytes":"32","value":"t_struct(Ticket)2424_storage"},"t_mapping(t_address,t_struct(UserInfo)2402_storage)":{"encoding":"mapping","key":"t_address","label":"mapping(address => struct JinbaoProtocol.UserInfo)","numberOfBytes":"32","value":"t_struct(UserInfo)2402_storage"},"t_mapping(t_uint256,t_address)":{"encoding":"mapping","key":"t_uint256","label":"mapping(uint256 => address)","numberOfBytes":"32","value":"t_address"},"t_mapping(t_uint256,t_array(t_struct(PendingReward)2429_storage)dyn_storage)":{"encoding":"mapping","key":"t_uint256","label":"mapping(uint256 => struct JinbaoProtocol.PendingReward[])","numberOfBytes":"32","value":"t_array(t_struct(PendingReward)2429_storage)dyn_storage"},"t_struct(LevelConfig)2520_storage":{"encoding":"inplace","label":"struct JinbaoProtocol.LevelConfig","members":[{"astId":2515,"contract":"contracts/JinbaoProtocol.sol:JinbaoProtocol","label":"minDirects","offset":0,"slot":"0","type":"t_uint256"},{"astId":2517,"contract":"contracts/JinbaoProtocol.sol:JinbaoProtocol","label":"level","offset":0,"slot":"1","type":"t_uint256"},{"astId":2519,"contract":"contracts/JinbaoProtocol.sol:JinbaoProtocol","label":"percent","offset":0,"slot":"2","type":"t_uint256"}],"numberOfBytes":"96"},"t_struct(PendingReward)2429_storage":{"encoding":"inplace","label":"struct JinbaoProtocol.PendingReward","members":[{"astId":2426,"contract":"contracts/JinbaoProtocol.sol:JinbaoProtocol","label":"upline","offset":0,"slot":"0","type":"t_address"},{"astId":2428,"contract":"contracts/JinbaoProtocol.sol:JinbaoProtocol","label":"amount","offset":0,"slot":"1","type":"t_uint256"}],"numberOfBytes":"64"},"t_struct(Stake)2415_storage":{"encoding":"inplace","label":"struct JinbaoProtocol.Stake","members":[{"astId":2404,"contract":"contracts/JinbaoProtocol.sol:JinbaoProtocol","label":"id","offset":0,"slot":"0","type":"t_uint256"},{"astId":2406,"contract":"contracts/JinbaoProtocol.sol:JinbaoProtocol","label":"amount","offset":0,"slot":"1","type":"t_uint256"},{"astId":2408,"contract":"contracts/JinbaoProtocol.sol:JinbaoProtocol","label":"startTime","offset":0,"slot":"2","type":"t_uint256"},{"astId":2410,"contract":"contracts/JinbaoProtocol.sol:JinbaoProtocol","label":"cycleDays","offset":0,"slot":"3","type":"t_uint256"},{"astId":2412,"contract":"contracts/JinbaoProtocol.sol:JinbaoProtocol","label":"active","offset":0,"slot":"4","type":"t_bool"},{"astId":2414,"contract":"contracts/JinbaoProtocol.sol:JinbaoProtocol","label":"paid","offset":0,"slot":"5","type":"t_uint256"}],"numberOfBytes":"192"},"t_struct(Ticket)2424_storage":{"encoding":"inplace","label":"struct JinbaoProtocol.Ticket","members":[{"astId":2417,"contract":"contracts/JinbaoProtocol.sol:JinbaoProtocol","label":"ticketId","offset":0,"slot":"0","type":"t_uint256"},{"astId":2419,"contract":"contracts/JinbaoProtocol.sol:JinbaoProtocol","label":"amount","offset":0,"slot":"1","type":"t_uint256"},{"astId":2421,"contract":"contracts/JinbaoProtocol.sol:JinbaoProtocol","label":"purchaseTime","offset":0,"slot":"2","type":"t_uint256"},{"astId":2423,"contract":"contracts/JinbaoProtocol.sol:JinbaoProtocol","label":"exited","offset":0,"slot":"3","type":"t_bool"}],"numberOfBytes":"128"},"t_struct(UserInfo)2402_storage":{"encoding":"inplace","label":"struct JinbaoProtocol.UserInfo","members":[{"astId":2381,"contract":"contracts/JinbaoProtocol.sol:JinbaoProtocol","label":"referrer","offset":0,"slot":"0","type":"t_address"},{"astId":2383,"contract":"contracts/JinbaoProtocol.sol:JinbaoProtocol","label":"activeDirects","offset":0,"slot":"1","type":"t_uint256"},{"astId":2385,"contract":"contracts/JinbaoProtocol.sol:JinbaoProtocol","label":"teamCount","offset":0,"slot":"2","type":"t_uint256"},{"astId":2387,"contract":"contracts/JinbaoProtocol.sol:JinbaoProtocol","label":"totalRevenue","offset":0,"slot":"3","type":"t_uint256"},{"astId":2389,"contract":"contracts/JinbaoProtocol.sol:JinbaoProtocol","label":"currentCap","offset":0,"slot":"4","type":"t_uint256"},{"astId":2391,"contract":"contracts/JinbaoProtocol.sol:JinbaoProtocol","label":"isActive","offset":0,"slot":"5","type":"t_bool"},{"astId":2393,"contract":"contracts/JinbaoProtocol.sol:JinbaoProtocol","label":"refundFeeAmount","offset":0,"slot":"6","type":"t_uint256"},{"astId":2395,"contract":"contracts/JinbaoProtocol.sol:JinbaoProtocol","label":"teamTotalVolume","offset":0,"slot":"7","type":"t_uint256"},{"astId":2397,"contract":"contracts/JinbaoProtocol.sol:JinbaoProtocol","label":"teamTotalCap","offset":0,"slot":"8","type":"t_uint256"},{"astId":2399,"contract":"contracts/JinbaoProtocol.sol:JinbaoProtocol","label":"maxTicketAmount","offset":0,"slot":"9","type":"t_uint256"},{"astId":2401,"contract":"contracts/JinbaoProtocol.sol:JinbaoProtocol","label":"maxSingleTicketAmount","offset":0,"slot":"10","type":"t_uint256"}],"numberOfBytes":"352"},"t_uint256":{"encoding":"inplace","label":"uint256","numberOfBytes":"32"}}}}}}