{"contracts/Tokenomics.sol":{"TokenomicsSummary":{"abi":[{"inputs":[{"internalType":"uint256","name":"ticketAmount","type":"uint256"}],"name":"calculateCap","outputs":[{"internalType":"uint256","name":"","type":"uint256"}],"stateMutability":"pure","type":"function"},{"inputs":[{"internalType":"uint256","name":"ticketAmount","type":"uint256"}],"name":"calculateRequiredLiquidity","outputs":[{"internalType":"uint256","name":"","type":"uint256"}],"stateMutability":"pure","type":"function"},{"inputs":[{"internalType":"uint256","name":"teamCount","type":"uint256"}],"name":"calculateUserLevel","outputs":[{"internalType":"uint256","name":"level","type":"uint256"},{"internalType":"uint256","name":"percent","type":"uint256"}],"stateMutability":"pure","type":"function"},{"inputs":[],"name":"getJBCParams","outputs":[{"internalType":"string","name":"name","type":"string"},{"internalType":"string","name":"symbol","type":"string"},{"internalType":"uint256","name":"totalSupply","type":"uint256"},{"internalType":"uint256","name":"initialLP","type":"uint256"},{"internalType":"uint256","name":"miningPool","type":"uint256"}],"stateMutability":"pure","type":"function"},{"inputs":[],"name":"getMiningParams","outputs":[{"internalType":"uint256","name":"cycle7Days","type":"uint256"},{"internalType":"uint256","name":"rate7Days","type":"uint256"},{"internalType":"uint256","name":"cycle15Days","type":"uint256"},{"internalType":"uint256","name":"rate15Days","type":"uint256"},{"internalType":"uint256","name":"cycle30Days","type":"uint256"},{"internalType":"uint256","name":"rate30Days","type":"uint256"}],"stateMutability":"pure","type":"function"},{"inputs":[],"name":"getSafetyParams","outputs":[{"internalType":"uint256","name":"minLiquidity","type":"uint256"},{"internalType":"uint256","name":"maxPriceImpact","type":"uint256"},{"internalType":"uint256","name":"maxRecursionDepth","type":"uint256"},{"internalType":"uint256","name":"ticketFlexibilityDuration","type":"uint256"}],"stateMutability":"pure","type":"function"},{"inputs":[],"name":"getSwapTaxes","outputs":[{"internalType":"uint256","name":"buyTax","type":"uint256"},{"internalType":"uint256","name":"sellTax","type":"uint256"},{"internalType":"uint256","name":"dailyBurnPercent","type":"uint256"}],"stateMutability":"pure","type":"function"},{"inputs":[],"name":"getTicketDistribution","outputs":[{"internalType":"uint256","name":"directReward","type":"uint256"},{"internalType":"uint256","name":"levelReward","type":"uint256"},{"internalType":"uint256","name":"marketing","type":"uint256"},{"internalType":"uint256","name":"buyback","type":"uint256"},{"internalType":"uint256","name":"lpInjection","type":"uint256"},{"internalType":"uint256","name":"treasury","type":"uint256"}],"stateMutability":"pure","type":"function"},{"inputs":[],"name":"getTicketTiers","outputs":[{"internalType":"uint256","name":"tier1","type":"uint256"},{"internalType":"uint256","name":"tier2","type":"uint256"},{"internalType":"uint256","name":"tier3","type":"uint256"},{"internalType":"uint256","name":"tier4","type":"uint256"}],"stateMutability":"pure","type":"function"},{"inputs":[{"internalType":"uint256","name":"level","type":"uint256"}],"name":"getVLevelConfig","outputs":[{"internalType":"uint256","name":"threshold","type":"uint256"},{"internalType":"uint256","name":"percent","type":"uint256"}],"stateMutability":"pure","type":"function"}],"evm":{"bytecode":{"linkReferences":{},"object":"60808060405234610016576105a1908161001c8239f35b600080fdfe608060408181526004918236101561001657600080fd5b600092833560e01c918263275ea2d51461035f575081633fbe91e01461031557816359b17171146102f65781635e721626146102b0578163686dd2f01461028257816370153803146101935781637389d42d1461014d57508063a89319081461010f578063c2837f51146100e65763dbf2d4681461009357600080fd5b346100e257816003193601126100e25780681b1ae4d6e2ef500000608092519168056bc75e2d631000008352681043561a88293000006020840152820152683635c9adc5dea000006060820152f35b5080fd5b50346100e257816003193601126100e25780600160609251916032835260196020840152820152f35b50346100e257816003193601126100e25780600560c092519160198352600f60208401528201526005606082015260196080820152601960a0820152f35b8383346100e25760203660031901126100e257823591600383029280840460031490151715610180576020838351908152f35b634e487b7160e01b815260118452602490fd5b8383346100e257816003193601126100e2578051916001600160401b038383018181118582101761026f578352600b84526a2534b73130b79021b7b4b760a91b60208501528251918284019182118383101761025c5761022485856a52b7d2dcc80cd2e40000006102328787845260038152624a424360e81b6020820152835195869560a0875260a087019061039a565b90858203602087015261039a565b918301526a0422ca8b0a00a42500000060608301526a4e950851be0c2ebf00000060808301520390f35b634e487b7160e01b815260418652602490fd5b634e487b7160e01b835260418652602483fd5b905082346102ad5760203660031901126102ad57506102a190356104bc565b82519182526020820152f35b80fd5b5050346100e257816003193601126100e25780600f60c09251916007835262cb7356602084015282015262fe502b6060820152601e60808201526301312d0060a0820152f35b905082346102ad5760203660031901126102ad57506102a190356103da565b905082346102ad5760203660031901126102ad5781359160968302928084046096149015171561034c576020836064865191048152f35b634e487b7160e01b825260119052602490fd5b839085346102ad57806003193601126102ad5750601e608092683635c9adc5dea0000083526103e860208401528201526203f4806060820152f35b919082519283825260005b8481106103c6575050826000602080949584010152601f8019910116010190565b6020818301810151848301820152016103a5565b80156104b357600181146104aa57600281146104a15760038114610498576004811461048e5760058114610484576006811461047a576007811461047057600881146104665760091461045c5760405162461bcd60e51b815260206004820152600d60248201526c125b9d985b1a59081b195d995b609a1b6044820152606490fd5b620186a090602d90565b5061753090602890565b5061271090602390565b50610bb890601e90565b506103e890601990565b5061012c90601490565b50606490600f90565b50601e90600a90565b50600a90600590565b50600090600090565b620186a0811015610562576175308110156105595761271081101561055057610bb8811015610547576103e881101561053e5761012c81101561053557606481101561052c57601e81101561052357600a111561051b57600090600090565b600190600590565b50600290600a90565b50600390600f90565b50600490601490565b50600590601990565b50600690601e90565b50600790602390565b50600890602890565b50600990602d9056fea2646970667358221220a3a8a75719455b505658aded6b4dac42518e94ec4bb33273827618ff8903334a64736f6c63430008160033","opcodes":"PUSH1 0x80 DUP1 PUSH1 0x40 MSTORE CALLVALUE PUSH2 0x16 JUMPI PUSH2 0x5A1 SWAP1 DUP2 PUSH2 0x1C DUP3 CODECOPY RETURN JUMPDEST PUSH1 0x0 DUP1 REVERT INVALID PUSH1 0x80 PUSH1 0x40 DUP2 DUP2 MSTORE PUSH1 0x4 SWAP2 DUP3 CALLDATASIZE LT ISZERO PUSH2 0x16 JUMPI PUSH1 0x0 DUP1 REVERT JUMPDEST PUSH1 0x0 SWAP3 DUP4 CALLDATALOAD PUSH1 0xE0 SHR SWAP2 DUP3 PUSH4 0x275EA2D5 EQ PUSH2 0x35F JUMPI POP DUP2 PUSH4 0x3FBE91E0 EQ PUSH2 0x315 JUMPI DUP2 PUSH4 0x59B17171 EQ PUSH2 0x2F6 JUMPI DUP2 PUSH4 0x5E721626 EQ PUSH2 0x2B0 JUMPI DUP2 PUSH4 0x686DD2F0 EQ PUSH2 0x282 JUMPI DUP2 PUSH4 0x70153803 EQ PUSH2 0x193 JUMPI DUP2 PUSH4 0x7389D42D EQ PUSH2 0x14D JUMPI POP DUP1 PUSH4 0xA8931908 EQ PUSH2 0x10F JUMPI DUP1 PUSH4 0xC2837F51 EQ PUSH2 0xE6 JUMPI PUSH4 0xDBF2D468 EQ PUSH2 0x93 JUMPI PUSH1 0x0 DUP1 REVERT JUMPDEST CALLVALUE PUSH2 0xE2 JUMPI DUP2 PUSH1 0x3 NOT CALLDATASIZE ADD SLT PUSH2 0xE2 JUMPI DUP1 PUSH9 0x1B1AE4D6E2EF500000 PUSH1 0x80 SWAP3 MLOAD SWAP2 PUSH9 0x56BC75E2D63100000 DUP4 MSTORE PUSH9 0x1043561A8829300000 PUSH1 0x20 DUP5 ADD MSTORE DUP3 ADD MSTORE PUSH9 0x3635C9ADC5DEA00000 PUSH1 0x60 DUP3 ADD MSTORE RETURN JUMPDEST POP DUP1 REVERT JUMPDEST POP CALLVALUE PUSH2 0xE2 JUMPI DUP2 PUSH1 0x3 NOT CALLDATASIZE ADD SLT PUSH2 0xE2 JUMPI DUP1 PUSH1 0x1 PUSH1 0x60 SWAP3 MLOAD SWAP2 PUSH1 0x32 DUP4 MSTORE PUSH1 0x19 PUSH1 0x20 DUP5 ADD MSTORE DUP3 ADD MSTORE RETURN JUMPDEST POP CALLVALUE PUSH2 0xE2 JUMPI DUP2 PUSH1 0x3 NOT CALLDATASIZE ADD SLT PUSH2 0xE2 JUMPI DUP1 PUSH1 0x5 PUSH1 0xC0 SWAP3 MLOAD SWAP2 PUSH1 0x19 DUP4 MSTORE PUSH1 0xF PUSH1 0x20 DUP5 ADD MSTORE DUP3 ADD MSTORE PUSH1 0x5 PUSH1 0x60 DUP3 ADD MSTORE PUSH1 0x19 PUSH1 0x80 DUP3 ADD MSTORE PUSH1 0x19 PUSH1 0xA0 DUP3 ADD MSTORE RETURN JUMPDEST DUP4 DUP4 CALLVALUE PUSH2 0xE2 JUMPI PUSH1 0x20 CALLDATASIZE PUSH1 0x3 NOT ADD SLT PUSH2 0xE2 JUMPI DUP3 CALLDATALOAD SWAP2 PUSH1 0x3 DUP4 MUL SWAP3 DUP1 DUP5 DIV PUSH1 0x3 EQ SWAP1 ISZERO OR ISZERO PUSH2 0x180 JUMPI PUSH1 0x20 DUP4 DUP4 MLOAD SWAP1 DUP2 MSTORE RETURN JUMPDEST PUSH4 0x4E487B71 PUSH1 0xE0 SHL DUP2 MSTORE PUSH1 0x11 DUP5 MSTORE PUSH1 0x24 SWAP1 REVERT JUMPDEST DUP4 DUP4 CALLVALUE PUSH2 0xE2 JUMPI DUP2 PUSH1 0x3 NOT CALLDATASIZE ADD SLT PUSH2 0xE2 JUMPI DUP1 MLOAD SWAP2 PUSH1 0x1 PUSH1 0x1 PUSH1 0x40 SHL SUB DUP4 DUP4 ADD DUP2 DUP2 GT DUP6 DUP3 LT OR PUSH2 0x26F JUMPI DUP4 MSTORE PUSH1 0xB DUP5 MSTORE PUSH11 0x2534B73130B79021B7B4B7 PUSH1 0xA9 SHL PUSH1 0x20 DUP6 ADD MSTORE DUP3 MLOAD SWAP2 DUP3 DUP5 ADD SWAP2 DUP3 GT DUP4 DUP4 LT OR PUSH2 0x25C JUMPI PUSH2 0x224 DUP6 DUP6 PUSH11 0x52B7D2DCC80CD2E4000000 PUSH2 0x232 DUP8 DUP8 DUP5 MSTORE PUSH1 0x3 DUP2 MSTORE PUSH3 0x4A4243 PUSH1 0xE8 SHL PUSH1 0x20 DUP3 ADD MSTORE DUP4 MLOAD SWAP6 DUP7 SWAP6 PUSH1 0xA0 DUP8 MSTORE PUSH1 0xA0 DUP8 ADD SWAP1 PUSH2 0x39A JUMP JUMPDEST SWAP1 DUP6 DUP3 SUB PUSH1 0x20 DUP8 ADD MSTORE PUSH2 0x39A JUMP JUMPDEST SWAP2 DUP4 ADD MSTORE PUSH11 0x422CA8B0A00A425000000 PUSH1 0x60 DUP4 ADD MSTORE PUSH11 0x4E950851BE0C2EBF000000 PUSH1 0x80 DUP4 ADD MSTORE SUB SWAP1 RETURN JUMPDEST PUSH4 0x4E487B71 PUSH1 0xE0 SHL DUP2 MSTORE PUSH1 0x41 DUP7 MSTORE PUSH1 0x24 SWAP1 REVERT JUMPDEST PUSH4 0x4E487B71 PUSH1 0xE0 SHL DUP4 MSTORE PUSH1 0x41 DUP7 MSTORE PUSH1 0x24 DUP4 REVERT JUMPDEST SWAP1 POP DUP3 CALLVALUE PUSH2 0x2AD JUMPI PUSH1 0x20 CALLDATASIZE PUSH1 0x3 NOT ADD SLT PUSH2 0x2AD JUMPI POP PUSH2 0x2A1 SWAP1 CALLDATALOAD PUSH2 0x4BC JUMP JUMPDEST DUP3 MLOAD SWAP2 DUP3 MSTORE PUSH1 0x20 DUP3 ADD MSTORE RETURN JUMPDEST DUP1 REVERT JUMPDEST POP POP CALLVALUE PUSH2 0xE2 JUMPI DUP2 PUSH1 0x3 NOT CALLDATASIZE ADD SLT PUSH2 0xE2 JUMPI DUP1 PUSH1 0xF PUSH1 0xC0 SWAP3 MLOAD SWAP2 PUSH1 0x7 DUP4 MSTORE PUSH3 0xCB7356 PUSH1 0x20 DUP5 ADD MSTORE DUP3 ADD MSTORE PUSH3 0xFE502B PUSH1 0x60 DUP3 ADD MSTORE PUSH1 0x1E PUSH1 0x80 DUP3 ADD MSTORE PUSH4 0x1312D00 PUSH1 0xA0 DUP3 ADD MSTORE RETURN JUMPDEST SWAP1 POP DUP3 CALLVALUE PUSH2 0x2AD JUMPI PUSH1 0x20 CALLDATASIZE PUSH1 0x3 NOT ADD SLT PUSH2 0x2AD JUMPI POP PUSH2 0x2A1 SWAP1 CALLDATALOAD PUSH2 0x3DA JUMP JUMPDEST SWAP1 POP DUP3 CALLVALUE PUSH2 0x2AD JUMPI PUSH1 0x20 CALLDATASIZE PUSH1 0x3 NOT ADD SLT PUSH2 0x2AD JUMPI DUP2 CALLDATALOAD SWAP2 PUSH1 0x96 DUP4 MUL SWAP3 DUP1 DUP5 DIV PUSH1 0x96 EQ SWAP1 ISZERO OR ISZERO PUSH2 0x34C JUMPI PUSH1 0x20 DUP4 PUSH1 0x64 DUP7 MLOAD SWAP2 DIV DUP2 MSTORE RETURN JUMPDEST PUSH4 0x4E487B71 PUSH1 0xE0 SHL DUP3 MSTORE PUSH1 0x11 SWAP1 MSTORE PUSH1 0x24 SWAP1 REVERT JUMPDEST DUP4 SWAP1 DUP6 CALLVALUE PUSH2 0x2AD JUMPI DUP1 PUSH1 0x3 NOT CALLDATASIZE ADD SLT PUSH2 0x2AD JUMPI POP PUSH1 0x1E PUSH1 0x80 SWAP3 PUSH9 0x3635C9ADC5DEA00000 DUP4 MSTORE PUSH2 0x3E8 PUSH1 0x20 DUP5 ADD MSTORE DUP3 ADD MSTORE PUSH3 0x3F480 PUSH1 0x60 DUP3 ADD MSTORE RETURN JUMPDEST SWAP2 SWAP1 DUP3 MLOAD SWAP3 DUP4 DUP3 MSTORE PUSH1 0x0 JUMPDEST DUP5 DUP2 LT PUSH2 0x3C6 JUMPI POP POP DUP3 PUSH1 0x0 PUSH1 0x20 DUP1 SWAP5 SWAP6 DUP5 ADD ADD MSTORE PUSH1 0x1F DUP1 NOT SWAP2 ADD AND ADD ADD SWAP1 JUMP JUMPDEST PUSH1 0x20 DUP2 DUP4 ADD DUP2 ADD MLOAD DUP5 DUP4 ADD DUP3 ADD MSTORE ADD PUSH2 0x3A5 JUMP JUMPDEST DUP1 ISZERO PUSH2 0x4B3 JUMPI PUSH1 0x1 DUP2 EQ PUSH2 0x4AA JUMPI PUSH1 0x2 DUP2 EQ PUSH2 0x4A1 JUMPI PUSH1 0x3 DUP2 EQ PUSH2 0x498 JUMPI PUSH1 0x4 DUP2 EQ PUSH2 0x48E JUMPI PUSH1 0x5 DUP2 EQ PUSH2 0x484 JUMPI PUSH1 0x6 DUP2 EQ PUSH2 0x47A JUMPI PUSH1 0x7 DUP2 EQ PUSH2 0x470 JUMPI PUSH1 0x8 DUP2 EQ PUSH2 0x466 JUMPI PUSH1 0x9 EQ PUSH2 0x45C JUMPI PUSH1 0x40 MLOAD PUSH3 0x461BCD PUSH1 0xE5 SHL DUP2 MSTORE PUSH1 0x20 PUSH1 0x4 DUP3 ADD MSTORE PUSH1 0xD PUSH1 0x24 DUP3 ADD MSTORE PUSH13 0x125B9D985B1A59081B195D995B PUSH1 0x9A SHL PUSH1 0x44 DUP3 ADD MSTORE PUSH1 0x64 SWAP1 REVERT JUMPDEST PUSH3 0x186A0 SWAP1 PUSH1 0x2D SWAP1 JUMP JUMPDEST POP PUSH2 0x7530 SWAP1 PUSH1 0x28 SWAP1 JUMP JUMPDEST POP PUSH2 0x2710 SWAP1 PUSH1 0x23 SWAP1 JUMP JUMPDEST POP PUSH2 0xBB8 SWAP1 PUSH1 0x1E SWAP1 JUMP JUMPDEST POP PUSH2 0x3E8 SWAP1 PUSH1 0x19 SWAP1 JUMP JUMPDEST POP PUSH2 0x12C SWAP1 PUSH1 0x14 SWAP1 JUMP JUMPDEST POP PUSH1 0x64 SWAP1 PUSH1 0xF SWAP1 JUMP JUMPDEST POP PUSH1 0x1E SWAP1 PUSH1 0xA SWAP1 JUMP JUMPDEST POP PUSH1 0xA SWAP1 PUSH1 0x5 SWAP1 JUMP JUMPDEST POP PUSH1 0x0 SWAP1 PUSH1 0x0 SWAP1 JUMP JUMPDEST PUSH3 0x186A0 DUP2 LT ISZERO PUSH2 0x562 JUMPI PUSH2 0x7530 DUP2 LT ISZERO PUSH2 0x559 JUMPI PUSH2 0x2710 DUP2 LT ISZERO PUSH2 0x550 JUMPI PUSH2 0xBB8 DUP2 LT ISZERO PUSH2 0x547 JUMPI PUSH2 0x3E8 DUP2 LT ISZERO PUSH2 0x53E JUMPI PUSH2 0x12C DUP2 LT ISZERO PUSH2 0x535 JUMPI PUSH1 0x64 DUP2 LT ISZERO PUSH2 0x52C JUMPI PUSH1 0x1E DUP2 LT ISZERO PUSH2 0x523 JUMPI PUSH1 0xA GT ISZERO PUSH2 0x51B JUMPI PUSH1 0x0 SWAP1 PUSH1 0x0 SWAP1 JUMP JUMPDEST PUSH1 0x1 SWAP1 PUSH1 0x5 SWAP1 JUMP JUMPDEST POP PUSH1 0x2 SWAP1 PUSH1 0xA SWAP1 JUMP JUMPDEST POP PUSH1 0x3 SWAP1 PUSH1 0xF SWAP1 JUMP JUMPDEST POP PUSH1 0x4 SWAP1 PUSH1 0x14 SWAP1 JUMP JUMPDEST POP PUSH1 0x5 SWAP1 PUSH1 0x19 SWAP1 JUMP JUMPDEST POP PUSH1 0x6 SWAP1 PUSH1 0x1E SWAP1 JUMP JUMPDEST POP PUSH1 0x7 SWAP1 PUSH1 0x23 SWAP1 JUMP JUMPDEST POP PUSH1 0x8 SWAP1 PUSH1 0x28 SWAP1 JUMP JUMPDEST POP PUSH1 0x9 SWAP1 PUSH1 0x2D SWAP1 JUMP INVALID LOG2 PUSH5 0x6970667358 0x22 SLT KECCAK256 LOG3 0xA8 0xA7 JUMPI NOT GASLIMIT JUMPDEST POP JUMP PC 0xAD 0xED PUSH12 0x4DAC42518E94EC4BB3327382 PUSH23 0x18FF8903334A64736F6C63430008160033000000000000 "},"methodIdentifiers":{"calculateCap(uint256)":"7389d42d","calculateRequiredLiquidity(uint256)":"3fbe91e0","calculateUserLevel(uint256)":"686dd2f0","getJBCParams()":"70153803","getMiningParams()":"5e721626","getSafetyParams()":"275ea2d5","getSwapTaxes()":"c2837f51","getTicketDistribution()":"a8931908","getTicketTiers()":"dbf2d468","getVLevelConfig(uint256)":"59b17171"}},"storageLayout":{"storage":[],"types":null}}}}