{"contracts/OwnershipTransferHelper.sol":{"OwnershipTransferHelper":{"abi":[{"inputs":[{"internalType":"address","name":"_protocolAddress","type":"address"},{"internalType":"address","name":"_jbcTokenAddress","type":"address"}],"stateMutability":"nonpayable","type":"constructor"},{"anonymous":false,"inputs":[{"indexed":true,"internalType":"address","name":"previousOwner","type":"address"},{"indexed":true,"internalType":"address","name":"newOwner","type":"address"}],"name":"OwnershipTransferred","type":"event"},{"anonymous":false,"inputs":[{"indexed":true,"internalType":"address","name":"newOwner","type":"address"}],"name":"ProtocolOwnershipTransferAttempted","type":"event"},{"inputs":[],"name":"isJbcTokenProtocolOwner","outputs":[{"internalType":"bool","name":"","type":"bool"}],"stateMutability":"view","type":"function"},{"inputs":[],"name":"isProtocolOwner","outputs":[{"internalType":"bool","name":"","type":"bool"}],"stateMutability":"view","type":"function"},{"inputs":[],"name":"jbcTokenAddress","outputs":[{"internalType":"address","name":"","type":"address"}],"stateMutability":"view","type":"function"},{"inputs":[],"name":"owner","outputs":[{"internalType":"address","name":"","type":"address"}],"stateMutability":"view","type":"function"},{"inputs":[],"name":"protocolAddress","outputs":[{"internalType":"address","name":"","type":"address"}],"stateMutability":"view","type":"function"},{"inputs":[{"internalType":"address","name":"newOwner","type":"address"}],"name":"transferProtocolOwnership","outputs":[],"stateMutability":"nonpayable","type":"function"}],"evm":{"bytecode":{"linkReferences":{},"object":"60c0346100a857601f6105b138819003918201601f19168301916001600160401b038311848410176100ad5780849260409485528339810103126100a857610052602061004b836100c3565b92016100c3565b60809190915260a052600080546001600160a01b031916331790556040516104d990816100d8823960805181818160de015281816101c1015281816103a70152610417015260a051818181607a01526101170152f35b600080fd5b634e487b7160e01b600052604160045260246000fd5b51906001600160a01b03821682036100a85756fe608060408181526004918236101561001657600080fd5b600092833560e01c9182630676c1b71461040357508163541b1b5c146103765781638da5cb5b1461034e578163d7b518231461017b578163e26cbcc0146100ad575063f6257c881461006757600080fd5b346100a957816003193601126100a957517f00000000000000000000000000000000000000000000000000000000000000006001600160a01b03168152602090f35b5080fd5b9050346101775782600319360112610177578151638da5cb5b60e01b81526001600160a01b039290916020908390817f000000000000000000000000000000000000000000000000000000000000000087165afa91821561016d576020949261013e575b505191807f0000000000000000000000000000000000000000000000000000000000000000169116148152f35b61015f919250843d8611610166575b6101578183610446565b81019061047f565b9038610111565b503d61014d565b81513d86823e3d90fd5b8280fd5b9050823461034b57602092836003193601126100a9576001600160a01b0393833585811694919085900361034757858454163303610308578251638da5cb5b60e01b81527f0000000000000000000000000000000000000000000000000000000000000000871696828285818b5afa9182156102fe5786926102df575b503091160361028f5750843b156101775782809495602484518096819363f2fde38b60e01b83528a878401525af180156102855761025a575b83857f9bdb1f38b0771e04d1dfa9c2314fb223576cafc74f2194417d9b8a40b37f7b118280a280f35b6001600160401b038311610272575052828080610231565b634e487b7160e01b845260419052602483fd5b82513d86823e3d90fd5b608492519162461bcd60e51b8352820152602760248201527f5468697320636f6e7472616374206973206e6f74207468652070726f746f636f604482015266361037bbb732b960c91b6064820152fd5b6102f7919250833d8511610166576101578183610446565b90886101f8565b85513d88823e3d90fd5b80606493519262461bcd60e51b845283015260248201527f4f776e61626c653a2063616c6c6572206973206e6f7420746865206f776e65726044820152fd5b8380fd5b80fd5b5050346100a957816003193601126100a957905490516001600160a01b039091168152602090f35b9050346101775782600319360112610177578151638da5cb5b60e01b81526001600160a01b039290916020908390817f000000000000000000000000000000000000000000000000000000000000000087165afa91821561016d57602094926103e4575b5051911630148152f35b6103fc919250843d8611610166576101578183610446565b90386103da565b8490346100a957816003193601126100a9577f00000000000000000000000000000000000000000000000000000000000000006001600160a01b03168152602090f35b601f909101601f19168101906001600160401b0382119082101761046957604052565b634e487b7160e01b600052604160045260246000fd5b9081602091031261049e57516001600160a01b038116810361049e5790565b600080fdfea2646970667358221220e1fa36b6e9db0f08e01c17d4cd587554e7220be7f5030e8f3c4a20725c0eadc064736f6c63430008160033","opcodes":"PUSH1 0xC0 CALLVALUE PUSH2 0xA8 JUMPI PUSH1 0x1F PUSH2 0x5B1 CODESIZE DUP2 SWAP1 SUB SWAP2 DUP3 ADD PUSH1 0x1F NOT AND DUP4 ADD SWAP2 PUSH1 0x1 PUSH1 0x1 PUSH1 0x40 SHL SUB DUP4 GT DUP5 DUP5 LT OR PUSH2 0xAD JUMPI DUP1 DUP5 SWAP3 PUSH1 0x40 SWAP5 DUP6 MSTORE DUP4 CODECOPY DUP2 ADD SUB SLT PUSH2 0xA8 JUMPI PUSH2 0x52 PUSH1 0x20 PUSH2 0x4B DUP4 PUSH2 0xC3 JUMP JUMPDEST SWAP3 ADD PUSH2 0xC3 JUMP JUMPDEST PUSH1 0x80 SWAP2 SWAP1 SWAP2 MSTORE PUSH1 0xA0 MSTORE PUSH1 0x0 DUP1 SLOAD PUSH1 0x1 PUSH1 0x1 PUSH1 0xA0 SHL SUB NOT AND CALLER OR SWAP1 SSTORE PUSH1 0x40 MLOAD PUSH2 0x4D9 SWAP1 DUP2 PUSH2 0xD8 DUP3 CODECOPY PUSH1 0x80 MLOAD DUP2 DUP2 DUP2 PUSH1 0xDE ADD MSTORE DUP2 DUP2 PUSH2 0x1C1 ADD MSTORE DUP2 DUP2 PUSH2 0x3A7 ADD MSTORE PUSH2 0x417 ADD MSTORE PUSH1 0xA0 MLOAD DUP2 DUP2 DUP2 PUSH1 0x7A ADD MSTORE PUSH2 0x117 ADD MSTORE RETURN JUMPDEST PUSH1 0x0 DUP1 REVERT JUMPDEST PUSH4 0x4E487B71 PUSH1 0xE0 SHL PUSH1 0x0 MSTORE PUSH1 0x41 PUSH1 0x4 MSTORE PUSH1 0x24 PUSH1 0x0 REVERT JUMPDEST MLOAD SWAP1 PUSH1 0x1 PUSH1 0x1 PUSH1 0xA0 SHL SUB DUP3 AND DUP3 SUB PUSH2 0xA8 JUMPI JUMP INVALID PUSH1 0x80 PUSH1 0x40 DUP2 DUP2 MSTORE PUSH1 0x4 SWAP2 DUP3 CALLDATASIZE LT ISZERO PUSH2 0x16 JUMPI PUSH1 0x0 DUP1 REVERT JUMPDEST PUSH1 0x0 SWAP3 DUP4 CALLDATALOAD PUSH1 0xE0 SHR SWAP2 DUP3 PUSH4 0x676C1B7 EQ PUSH2 0x403 JUMPI POP DUP2 PUSH4 0x541B1B5C EQ PUSH2 0x376 JUMPI DUP2 PUSH4 0x8DA5CB5B EQ PUSH2 0x34E JUMPI DUP2 PUSH4 0xD7B51823 EQ PUSH2 0x17B JUMPI DUP2 PUSH4 0xE26CBCC0 EQ PUSH2 0xAD JUMPI POP PUSH4 0xF6257C88 EQ PUSH2 0x67 JUMPI PUSH1 0x0 DUP1 REVERT JUMPDEST CALLVALUE PUSH2 0xA9 JUMPI DUP2 PUSH1 0x3 NOT CALLDATASIZE ADD SLT PUSH2 0xA9 JUMPI MLOAD PUSH32 0x0 PUSH1 0x1 PUSH1 0x1 PUSH1 0xA0 SHL SUB AND DUP2 MSTORE PUSH1 0x20 SWAP1 RETURN JUMPDEST POP DUP1 REVERT JUMPDEST SWAP1 POP CALLVALUE PUSH2 0x177 JUMPI DUP3 PUSH1 0x3 NOT CALLDATASIZE ADD SLT PUSH2 0x177 JUMPI DUP2 MLOAD PUSH4 0x8DA5CB5B PUSH1 0xE0 SHL DUP2 MSTORE PUSH1 0x1 PUSH1 0x1 PUSH1 0xA0 SHL SUB SWAP3 SWAP1 SWAP2 PUSH1 0x20 SWAP1 DUP4 SWAP1 DUP2 PUSH32 0x0 DUP8 AND GAS STATICCALL SWAP2 DUP3 ISZERO PUSH2 0x16D JUMPI PUSH1 0x20 SWAP5 SWAP3 PUSH2 0x13E JUMPI JUMPDEST POP MLOAD SWAP2 DUP1 PUSH32 0x0 AND SWAP2 AND EQ DUP2 MSTORE RETURN JUMPDEST PUSH2 0x15F SWAP2 SWAP3 POP DUP5 RETURNDATASIZE DUP7 GT PUSH2 0x166 JUMPI JUMPDEST PUSH2 0x157 DUP2 DUP4 PUSH2 0x446 JUMP JUMPDEST DUP2 ADD SWAP1 PUSH2 0x47F JUMP JUMPDEST SWAP1 CODESIZE PUSH2 0x111 JUMP JUMPDEST POP RETURNDATASIZE PUSH2 0x14D JUMP JUMPDEST DUP2 MLOAD RETURNDATASIZE DUP7 DUP3 RETURNDATACOPY RETURNDATASIZE SWAP1 REVERT JUMPDEST DUP3 DUP1 REVERT JUMPDEST SWAP1 POP DUP3 CALLVALUE PUSH2 0x34B JUMPI PUSH1 0x20 SWAP3 DUP4 PUSH1 0x3 NOT CALLDATASIZE ADD SLT PUSH2 0xA9 JUMPI PUSH1 0x1 PUSH1 0x1 PUSH1 0xA0 SHL SUB SWAP4 DUP4 CALLDATALOAD DUP6 DUP2 AND SWAP5 SWAP2 SWAP1 DUP6 SWAP1 SUB PUSH2 0x347 JUMPI DUP6 DUP5 SLOAD AND CALLER SUB PUSH2 0x308 JUMPI DUP3 MLOAD PUSH4 0x8DA5CB5B PUSH1 0xE0 SHL DUP2 MSTORE PUSH32 0x0 DUP8 AND SWAP7 DUP3 DUP3 DUP6 DUP2 DUP12 GAS STATICCALL SWAP2 DUP3 ISZERO PUSH2 0x2FE JUMPI DUP7 SWAP3 PUSH2 0x2DF JUMPI JUMPDEST POP ADDRESS SWAP2 AND SUB PUSH2 0x28F JUMPI POP DUP5 EXTCODESIZE ISZERO PUSH2 0x177 JUMPI DUP3 DUP1 SWAP5 SWAP6 PUSH1 0x24 DUP5 MLOAD DUP1 SWAP7 DUP2 SWAP4 PUSH4 0xF2FDE38B PUSH1 0xE0 SHL DUP4 MSTORE DUP11 DUP8 DUP5 ADD MSTORE GAS CALL DUP1 ISZERO PUSH2 0x285 JUMPI PUSH2 0x25A JUMPI JUMPDEST DUP4 DUP6 PUSH32 0x9BDB1F38B0771E04D1DFA9C2314FB223576CAFC74F2194417D9B8A40B37F7B11 DUP3 DUP1 LOG2 DUP1 RETURN JUMPDEST PUSH1 0x1 PUSH1 0x1 PUSH1 0x40 SHL SUB DUP4 GT PUSH2 0x272 JUMPI POP MSTORE DUP3 DUP1 DUP1 PUSH2 0x231 JUMP JUMPDEST PUSH4 0x4E487B71 PUSH1 0xE0 SHL DUP5 MSTORE PUSH1 0x41 SWAP1 MSTORE PUSH1 0x24 DUP4 REVERT JUMPDEST DUP3 MLOAD RETURNDATASIZE DUP7 DUP3 RETURNDATACOPY RETURNDATASIZE SWAP1 REVERT JUMPDEST PUSH1 0x84 SWAP3 MLOAD SWAP2 PUSH3 0x461BCD PUSH1 0xE5 SHL DUP4 MSTORE DUP3 ADD MSTORE PUSH1 0x27 PUSH1 0x24 DUP3 ADD MSTORE PUSH32 0x5468697320636F6E7472616374206973206E6F74207468652070726F746F636F PUSH1 0x44 DUP3 ADD MSTORE PUSH7 0x361037BBB732B9 PUSH1 0xC9 SHL PUSH1 0x64 DUP3 ADD MSTORE REVERT JUMPDEST PUSH2 0x2F7 SWAP2 SWAP3 POP DUP4 RETURNDATASIZE DUP6 GT PUSH2 0x166 JUMPI PUSH2 0x157 DUP2 DUP4 PUSH2 0x446 JUMP JUMPDEST SWAP1 DUP9 PUSH2 0x1F8 JUMP JUMPDEST DUP6 MLOAD RETURNDATASIZE DUP9 DUP3 RETURNDATACOPY RETURNDATASIZE SWAP1 REVERT JUMPDEST DUP1 PUSH1 0x64 SWAP4 MLOAD SWAP3 PUSH3 0x461BCD PUSH1 0xE5 SHL DUP5 MSTORE DUP4 ADD MSTORE PUSH1 0x24 DUP3 ADD MSTORE PUSH32 0x4F776E61626C653A2063616C6C6572206973206E6F7420746865206F776E6572 PUSH1 0x44 DUP3 ADD MSTORE REVERT JUMPDEST DUP4 DUP1 REVERT JUMPDEST DUP1 REVERT JUMPDEST POP POP CALLVALUE PUSH2 0xA9 JUMPI DUP2 PUSH1 0x3 NOT CALLDATASIZE ADD SLT PUSH2 0xA9 JUMPI SWAP1 SLOAD SWAP1 MLOAD PUSH1 0x1 PUSH1 0x1 PUSH1 0xA0 SHL SUB SWAP1 SWAP2 AND DUP2 MSTORE PUSH1 0x20 SWAP1 RETURN JUMPDEST SWAP1 POP CALLVALUE PUSH2 0x177 JUMPI DUP3 PUSH1 0x3 NOT CALLDATASIZE ADD SLT PUSH2 0x177 JUMPI DUP2 MLOAD PUSH4 0x8DA5CB5B PUSH1 0xE0 SHL DUP2 MSTORE PUSH1 0x1 PUSH1 0x1 PUSH1 0xA0 SHL SUB SWAP3 SWAP1 SWAP2 PUSH1 0x20 SWAP1 DUP4 SWAP1 DUP2 PUSH32 0x0 DUP8 AND GAS STATICCALL SWAP2 DUP3 ISZERO PUSH2 0x16D JUMPI PUSH1 0x20 SWAP5 SWAP3 PUSH2 0x3E4 JUMPI JUMPDEST POP MLOAD SWAP2 AND ADDRESS EQ DUP2 MSTORE RETURN JUMPDEST PUSH2 0x3FC SWAP2 SWAP3 POP DUP5 RETURNDATASIZE DUP7 GT PUSH2 0x166 JUMPI PUSH2 0x157 DUP2 DUP4 PUSH2 0x446 JUMP JUMPDEST SWAP1 CODESIZE PUSH2 0x3DA JUMP JUMPDEST DUP5 SWAP1 CALLVALUE PUSH2 0xA9 JUMPI DUP2 PUSH1 0x3 NOT CALLDATASIZE ADD SLT PUSH2 0xA9 JUMPI PUSH32 0x0 PUSH1 0x1 PUSH1 0x1 PUSH1 0xA0 SHL SUB AND DUP2 MSTORE PUSH1 0x20 SWAP1 RETURN JUMPDEST PUSH1 0x1F SWAP1 SWAP2 ADD PUSH1 0x1F NOT AND DUP2 ADD SWAP1 PUSH1 0x1 PUSH1 0x1 PUSH1 0x40 SHL SUB DUP3 GT SWAP1 DUP3 LT OR PUSH2 0x469 JUMPI PUSH1 0x40 MSTORE JUMP JUMPDEST PUSH4 0x4E487B71 PUSH1 0xE0 SHL PUSH1 0x0 MSTORE PUSH1 0x41 PUSH1 0x4 MSTORE PUSH1 0x24 PUSH1 0x0 REVERT JUMPDEST SWAP1 DUP2 PUSH1 0x20 SWAP2 SUB SLT PUSH2 0x49E JUMPI MLOAD PUSH1 0x1 PUSH1 0x1 PUSH1 0xA0 SHL SUB DUP2 AND DUP2 SUB PUSH2 0x49E JUMPI SWAP1 JUMP JUMPDEST PUSH1 0x0 DUP1 REVERT INVALID LOG2 PUSH5 0x6970667358 0x22 SLT KECCAK256 0xE1 STATICCALL CALLDATASIZE 0xB6 0xE9 0xDB 0xF ADDMOD 0xE0 SHR OR 0xD4 0xCD PC PUSH22 0x54E7220BE7F5030E8F3C4A20725C0EADC064736F6C63 NUMBER STOP ADDMOD AND STOP CALLER "},"methodIdentifiers":{"isJbcTokenProtocolOwner()":"e26cbcc0","isProtocolOwner()":"541b1b5c","jbcTokenAddress()":"f6257c88","owner()":"8da5cb5b","protocolAddress()":"0676c1b7","transferProtocolOwnership(address)":"d7b51823"}},"storageLayout":{"storage":[{"astId":19,"contract":"contracts/OwnershipTransferHelper.sol:OwnershipTransferHelper","label":"owner","offset":0,"slot":"0","type":"t_address"}],"types":{"t_address":{"encoding":"inplace","label":"address","numberOfBytes":"20"}}}}}}