{"contracts/JinbaoProtocolV4.sol":{"JinbaoProtocolV4":{"abi":[{"inputs":[],"stateMutability":"nonpayable","type":"constructor"},{"inputs":[],"name":"ActionTooEarly","type":"error"},{"inputs":[{"internalType":"address","name":"target","type":"address"}],"name":"AddressEmptyCode","type":"error"},{"inputs":[],"name":"AlreadyBound","type":"error"},{"inputs":[],"name":"AlreadyExited","type":"error"},{"inputs":[],"name":"ContractPaused","type":"error"},{"inputs":[{"internalType":"address","name":"implementation","type":"address"}],"name":"ERC1967InvalidImplementation","type":"error"},{"inputs":[],"name":"ERC1967NonPayable","type":"error"},{"inputs":[],"name":"FailedCall","type":"error"},{"inputs":[],"name":"InsufficientBalance","type":"error"},{"inputs":[],"name":"InsufficientNativeBalance","type":"error"},{"inputs":[],"name":"InvalidAddress","type":"error"},{"inputs":[],"name":"InvalidAmount","type":"error"},{"inputs":[],"name":"InvalidCycle","type":"error"},{"inputs":[],"name":"InvalidInitialization","type":"error"},{"inputs":[],"name":"LowLiquidity","type":"error"},{"inputs":[],"name":"NativeTransferFailed","type":"error"},{"inputs":[],"name":"NoRewards","type":"error"},{"inputs":[],"name":"NotActive","type":"error"},{"inputs":[],"name":"NotInitializing","type":"error"},{"inputs":[],"name":"NothingToRedeem","type":"error"},{"inputs":[{"internalType":"address","name":"owner","type":"address"}],"name":"OwnableInvalidOwner","type":"error"},{"inputs":[{"internalType":"address","name":"account","type":"address"}],"name":"OwnableUnauthorizedAccount","type":"error"},{"inputs":[],"name":"ReentrancyGuardReentrantCall","type":"error"},{"inputs":[],"name":"SelfReference","type":"error"},{"inputs":[{"internalType":"string","name":"reason","type":"string"}],"name":"TransferFromFailed","type":"error"},{"inputs":[],"name":"TransferFromFailedLowLevel","type":"error"},{"inputs":[],"name":"UUPSUnauthorizedCallContext","type":"error"},{"inputs":[{"internalType":"bytes32","name":"slot","type":"bytes32"}],"name":"UUPSUnsupportedProxiableUUID","type":"error"},{"inputs":[],"name":"Unauthorized","type":"error"},{"anonymous":false,"inputs":[{"indexed":true,"internalType":"address","name":"user","type":"address"},{"indexed":true,"internalType":"address","name":"referrer","type":"address"}],"name":"BoundReferrer","type":"event"},{"anonymous":false,"inputs":[{"indexed":false,"internalType":"uint256","name":"mcAmount","type":"uint256"},{"indexed":false,"internalType":"uint256","name":"jbcBurned","type":"uint256"}],"name":"BuybackAndBurn","type":"event"},{"anonymous":false,"inputs":[{"indexed":true,"internalType":"address","name":"user","type":"address"},{"indexed":false,"internalType":"uint256","name":"mcAmount","type":"uint256"},{"indexed":false,"internalType":"uint256","name":"jbcAmount","type":"uint256"},{"indexed":false,"internalType":"uint256","name":"jbcPrice","type":"uint256"},{"indexed":false,"internalType":"uint256","name":"timestamp","type":"uint256"}],"name":"DifferentialRewardDistributed","type":"event"},{"anonymous":false,"inputs":[{"indexed":true,"internalType":"uint256","name":"stakeId","type":"uint256"},{"indexed":true,"internalType":"address","name":"upline","type":"address"},{"indexed":false,"internalType":"uint256","name":"amount","type":"uint256"}],"name":"DifferentialRewardRecorded","type":"event"},{"anonymous":false,"inputs":[{"indexed":true,"internalType":"uint256","name":"stakeId","type":"uint256"},{"indexed":true,"internalType":"address","name":"upline","type":"address"},{"indexed":false,"internalType":"uint256","name":"amount","type":"uint256"}],"name":"DifferentialRewardReleased","type":"event"},{"anonymous":false,"inputs":[{"indexed":false,"internalType":"uint256","name":"direct","type":"uint256"},{"indexed":false,"internalType":"uint256","name":"level","type":"uint256"},{"indexed":false,"internalType":"uint256","name":"marketing","type":"uint256"},{"indexed":false,"internalType":"uint256","name":"buyback","type":"uint256"},{"indexed":false,"internalType":"uint256","name":"lpInjection","type":"uint256"},{"indexed":false,"internalType":"uint256","name":"treasury","type":"uint256"}],"name":"DistributionConfigUpdated","type":"event"},{"anonymous":false,"inputs":[],"name":"EmergencyPaused","type":"event"},{"anonymous":false,"inputs":[],"name":"EmergencyUnpaused","type":"event"},{"anonymous":false,"inputs":[{"indexed":true,"internalType":"address","name":"user","type":"address"},{"indexed":false,"internalType":"uint256","name":"ticketId","type":"uint256"}],"name":"Exited","type":"event"},{"anonymous":false,"inputs":[{"indexed":true,"internalType":"address","name":"user","type":"address"},{"indexed":false,"internalType":"uint256","name":"amount","type":"uint256"}],"name":"FeeRefunded","type":"event"},{"anonymous":false,"inputs":[{"indexed":false,"internalType":"uint64","name":"version","type":"uint64"}],"name":"Initialized","type":"event"},{"anonymous":false,"inputs":[{"indexed":false,"internalType":"uint256","name":"mcAmount","type":"uint256"},{"indexed":false,"internalType":"uint256","name":"jbcAmount","type":"uint256"}],"name":"LiquidityAdded","type":"event"},{"anonymous":false,"inputs":[{"indexed":true,"internalType":"address","name":"user","type":"address"},{"indexed":false,"internalType":"uint256","name":"amount","type":"uint256"},{"indexed":false,"internalType":"uint256","name":"cycleDays","type":"uint256"},{"indexed":false,"internalType":"uint256","name":"stakeId","type":"uint256"}],"name":"LiquidityStaked","type":"event"},{"anonymous":false,"inputs":[{"indexed":true,"internalType":"address","name":"from","type":"address"},{"indexed":false,"internalType":"uint256","name":"amount","type":"uint256"}],"name":"NativeMCReceived","type":"event"},{"anonymous":false,"inputs":[{"indexed":true,"internalType":"address","name":"to","type":"address"},{"indexed":false,"internalType":"uint256","name":"amount","type":"uint256"}],"name":"NativeMCWithdrawn","type":"event"},{"anonymous":false,"inputs":[{"indexed":true,"internalType":"address","name":"previousOwner","type":"address"},{"indexed":true,"internalType":"address","name":"newOwner","type":"address"}],"name":"OwnershipTransferred","type":"event"},{"anonymous":false,"inputs":[{"indexed":true,"internalType":"address","name":"user","type":"address"},{"indexed":false,"internalType":"uint256","name":"principal","type":"uint256"},{"indexed":false,"internalType":"uint256","name":"fee","type":"uint256"}],"name":"Redeemed","type":"event"},{"anonymous":false,"inputs":[{"indexed":true,"internalType":"address","name":"user","type":"address"},{"indexed":true,"internalType":"address","name":"from","type":"address"},{"indexed":false,"internalType":"uint256","name":"mcAmount","type":"uint256"},{"indexed":false,"internalType":"uint256","name":"jbcAmount","type":"uint256"},{"indexed":false,"internalType":"uint8","name":"rewardType","type":"uint8"},{"indexed":false,"internalType":"uint256","name":"ticketId","type":"uint256"}],"name":"ReferralRewardPaid","type":"event"},{"anonymous":false,"inputs":[{"indexed":true,"internalType":"address","name":"user","type":"address"},{"indexed":true,"internalType":"address","name":"oldReferrer","type":"address"},{"indexed":true,"internalType":"address","name":"newReferrer","type":"address"}],"name":"ReferrerChanged","type":"event"},{"anonymous":false,"inputs":[{"indexed":true,"internalType":"address","name":"user","type":"address"},{"indexed":false,"internalType":"uint256","name":"amount","type":"uint256"},{"indexed":false,"internalType":"uint256","name":"cappedAmount","type":"uint256"}],"name":"RewardCapped","type":"event"},{"anonymous":false,"inputs":[{"indexed":true,"internalType":"address","name":"user","type":"address"},{"indexed":false,"internalType":"uint256","name":"mcAmount","type":"uint256"},{"indexed":false,"internalType":"uint256","name":"jbcAmount","type":"uint256"},{"indexed":false,"internalType":"uint8","name":"rewardType","type":"uint8"},{"indexed":false,"internalType":"uint256","name":"ticketId","type":"uint256"}],"name":"RewardClaimed","type":"event"},{"anonymous":false,"inputs":[{"indexed":true,"internalType":"address","name":"user","type":"address"},{"indexed":false,"internalType":"uint256","name":"amount","type":"uint256"},{"indexed":false,"internalType":"uint8","name":"rewardType","type":"uint8"}],"name":"RewardPaid","type":"event"},{"anonymous":false,"inputs":[{"indexed":false,"internalType":"uint256","name":"buyTax","type":"uint256"},{"indexed":false,"internalType":"uint256","name":"sellTax","type":"uint256"}],"name":"SwapTaxesUpdated","type":"event"},{"anonymous":false,"inputs":[{"indexed":true,"internalType":"address","name":"user","type":"address"},{"indexed":false,"internalType":"uint256","name":"jbcAmount","type":"uint256"},{"indexed":false,"internalType":"uint256","name":"mcAmount","type":"uint256"},{"indexed":false,"internalType":"uint256","name":"tax","type":"uint256"}],"name":"SwappedJBCToMC","type":"event"},{"anonymous":false,"inputs":[{"indexed":true,"internalType":"address","name":"user","type":"address"},{"indexed":false,"internalType":"uint256","name":"mcAmount","type":"uint256"},{"indexed":false,"internalType":"uint256","name":"jbcAmount","type":"uint256"},{"indexed":false,"internalType":"uint256","name":"tax","type":"uint256"}],"name":"SwappedMCToJBC","type":"event"},{"anonymous":false,"inputs":[{"indexed":true,"internalType":"address","name":"user","type":"address"},{"indexed":false,"internalType":"uint256","name":"oldCount","type":"uint256"},{"indexed":false,"internalType":"uint256","name":"newCount","type":"uint256"}],"name":"TeamCountUpdated","type":"event"},{"anonymous":false,"inputs":[{"indexed":true,"internalType":"address","name":"user","type":"address"},{"indexed":false,"internalType":"uint256","name":"ticketId","type":"uint256"},{"indexed":false,"internalType":"uint256","name":"amount","type":"uint256"}],"name":"TicketExpired","type":"event"},{"anonymous":false,"inputs":[{"indexed":true,"internalType":"address","name":"user","type":"address"},{"indexed":false,"internalType":"uint256","name":"amount","type":"uint256"},{"indexed":false,"internalType":"uint256","name":"ticketId","type":"uint256"}],"name":"TicketPurchased","type":"event"},{"anonymous":false,"inputs":[{"indexed":true,"internalType":"address","name":"implementation","type":"address"}],"name":"Upgraded","type":"event"},{"anonymous":false,"inputs":[{"indexed":true,"internalType":"address","name":"user","type":"address"},{"indexed":false,"internalType":"uint256","name":"oldLevel","type":"uint256"},{"indexed":false,"internalType":"uint256","name":"newLevel","type":"uint256"},{"indexed":false,"internalType":"uint256","name":"teamCount","type":"uint256"}],"name":"UserLevelChanged","type":"event"},{"inputs":[],"name":"REWARD_DIFFERENTIAL","outputs":[{"internalType":"uint8","name":"","type":"uint8"}],"stateMutability":"view","type":"function"},{"inputs":[],"name":"REWARD_DIRECT","outputs":[{"internalType":"uint8","name":"","type":"uint8"}],"stateMutability":"view","type":"function"},{"inputs":[],"name":"REWARD_DYNAMIC","outputs":[{"internalType":"uint8","name":"","type":"uint8"}],"stateMutability":"view","type":"function"},{"inputs":[],"name":"REWARD_LEVEL","outputs":[{"internalType":"uint8","name":"","type":"uint8"}],"stateMutability":"view","type":"function"},{"inputs":[],"name":"REWARD_STATIC","outputs":[{"internalType":"uint8","name":"","type":"uint8"}],"stateMutability":"view","type":"function"},{"inputs":[],"name":"SECONDS_IN_UNIT","outputs":[{"internalType":"uint256","name":"","type":"uint256"}],"stateMutability":"view","type":"function"},{"inputs":[],"name":"UPGRADE_INTERFACE_VERSION","outputs":[{"internalType":"string","name":"","type":"string"}],"stateMutability":"view","type":"function"},{"inputs":[{"internalType":"uint256","name":"jbcAmount","type":"uint256"}],"name":"addLiquidity","outputs":[],"stateMutability":"payable","type":"function"},{"inputs":[{"internalType":"address","name":"user","type":"address"},{"internalType":"address","name":"newReferrer","type":"address"}],"name":"adminSetReferrer","outputs":[],"stateMutability":"nonpayable","type":"function"},{"inputs":[{"internalType":"address","name":"_referrer","type":"address"}],"name":"bindReferrer","outputs":[],"stateMutability":"nonpayable","type":"function"},{"inputs":[],"name":"buyTicket","outputs":[],"stateMutability":"payable","type":"function"},{"inputs":[],"name":"buybackPercent","outputs":[{"internalType":"uint256","name":"","type":"uint256"}],"stateMutability":"view","type":"function"},{"inputs":[],"name":"buybackWallet","outputs":[{"internalType":"address","name":"","type":"address"}],"stateMutability":"view","type":"function"},{"inputs":[{"internalType":"uint256","name":"teamCount","type":"uint256"}],"name":"calculateLevel","outputs":[{"internalType":"uint256","name":"level","type":"uint256"},{"internalType":"uint256","name":"percent","type":"uint256"}],"stateMutability":"pure","type":"function"},{"inputs":[],"name":"claimRewards","outputs":[],"stateMutability":"nonpayable","type":"function"},{"inputs":[],"name":"dailyBurn","outputs":[],"stateMutability":"nonpayable","type":"function"},{"inputs":[{"internalType":"address","name":"","type":"address"},{"internalType":"uint256","name":"","type":"uint256"}],"name":"directReferrals","outputs":[{"internalType":"address","name":"","type":"address"}],"stateMutability":"view","type":"function"},{"inputs":[],"name":"directRewardPercent","outputs":[{"internalType":"uint256","name":"","type":"uint256"}],"stateMutability":"view","type":"function"},{"inputs":[],"name":"emergencyPause","outputs":[],"stateMutability":"nonpayable","type":"function"},{"inputs":[],"name":"emergencyPaused","outputs":[{"internalType":"bool","name":"","type":"bool"}],"stateMutability":"view","type":"function"},{"inputs":[],"name":"emergencyUnpause","outputs":[],"stateMutability":"nonpayable","type":"function"},{"inputs":[{"internalType":"address","name":"_to","type":"address"},{"internalType":"uint256","name":"_amount","type":"uint256"}],"name":"emergencyWithdrawNative","outputs":[],"stateMutability":"nonpayable","type":"function"},{"inputs":[{"internalType":"address","name":"user","type":"address"}],"name":"getDirectReferrals","outputs":[{"internalType":"address[]","name":"","type":"address[]"}],"stateMutability":"view","type":"function"},{"inputs":[{"internalType":"uint256","name":"activeDirects","type":"uint256"}],"name":"getLevelRewardLayers","outputs":[{"internalType":"uint256","name":"","type":"uint256"}],"stateMutability":"pure","type":"function"},{"inputs":[{"internalType":"address","name":"user","type":"address"}],"name":"getUserLevel","outputs":[{"internalType":"uint256","name":"level","type":"uint256"},{"internalType":"uint256","name":"percent","type":"uint256"},{"internalType":"uint256","name":"teamCount","type":"uint256"}],"stateMutability":"view","type":"function"},{"inputs":[{"internalType":"address","name":"_jbcToken","type":"address"},{"internalType":"address","name":"_marketing","type":"address"},{"internalType":"address","name":"_treasury","type":"address"},{"internalType":"address","name":"_lpInjection","type":"address"},{"internalType":"address","name":"_buybackWallet","type":"address"}],"name":"initialize","outputs":[],"stateMutability":"nonpayable","type":"function"},{"inputs":[],"name":"jbcToken","outputs":[{"internalType":"contract IJBC","name":"","type":"address"}],"stateMutability":"view","type":"function"},{"inputs":[],"name":"lastBurnTime","outputs":[{"internalType":"uint256","name":"","type":"uint256"}],"stateMutability":"view","type":"function"},{"inputs":[],"name":"levelRewardPercent","outputs":[{"internalType":"uint256","name":"","type":"uint256"}],"stateMutability":"view","type":"function"},{"inputs":[],"name":"levelRewardPool","outputs":[{"internalType":"uint256","name":"","type":"uint256"}],"stateMutability":"view","type":"function"},{"inputs":[],"name":"liquidityEnabled","outputs":[{"internalType":"bool","name":"","type":"bool"}],"stateMutability":"view","type":"function"},{"inputs":[],"name":"lpInjectionPercent","outputs":[{"internalType":"uint256","name":"","type":"uint256"}],"stateMutability":"view","type":"function"},{"inputs":[],"name":"lpInjectionWallet","outputs":[{"internalType":"address","name":"","type":"address"}],"stateMutability":"view","type":"function"},{"inputs":[],"name":"marketingPercent","outputs":[{"internalType":"uint256","name":"","type":"uint256"}],"stateMutability":"view","type":"function"},{"inputs":[],"name":"marketingWallet","outputs":[{"internalType":"address","name":"","type":"address"}],"stateMutability":"view","type":"function"},{"inputs":[],"name":"nextStakeId","outputs":[{"internalType":"uint256","name":"","type":"uint256"}],"stateMutability":"view","type":"function"},{"inputs":[],"name":"nextTicketId","outputs":[{"internalType":"uint256","name":"","type":"uint256"}],"stateMutability":"view","type":"function"},{"inputs":[],"name":"owner","outputs":[{"internalType":"address","name":"","type":"address"}],"stateMutability":"view","type":"function"},{"inputs":[],"name":"priceOracle","outputs":[{"internalType":"address","name":"","type":"address"}],"stateMutability":"view","type":"function"},{"inputs":[],"name":"proxiableUUID","outputs":[{"internalType":"bytes32","name":"","type":"bytes32"}],"stateMutability":"view","type":"function"},{"inputs":[],"name":"redeem","outputs":[],"stateMutability":"nonpayable","type":"function"},{"inputs":[],"name":"redeemEnabled","outputs":[{"internalType":"bool","name":"","type":"bool"}],"stateMutability":"view","type":"function"},{"inputs":[],"name":"redemptionFeePercent","outputs":[{"internalType":"uint256","name":"","type":"uint256"}],"stateMutability":"view","type":"function"},{"inputs":[],"name":"renounceOwnership","outputs":[],"stateMutability":"nonpayable","type":"function"},{"inputs":[{"internalType":"address","name":"_token","type":"address"},{"internalType":"address","name":"_to","type":"address"},{"internalType":"uint256","name":"_amount","type":"uint256"}],"name":"rescueTokens","outputs":[],"stateMutability":"nonpayable","type":"function"},{"inputs":[{"internalType":"uint256","name":"_direct","type":"uint256"},{"internalType":"uint256","name":"_level","type":"uint256"},{"internalType":"uint256","name":"_marketing","type":"uint256"},{"internalType":"uint256","name":"_buyback","type":"uint256"},{"internalType":"uint256","name":"_lpInjection","type":"uint256"},{"internalType":"uint256","name":"_treasury","type":"uint256"}],"name":"setDistributionConfig","outputs":[],"stateMutability":"nonpayable","type":"function"},{"inputs":[{"internalType":"bool","name":"_liquidityEnabled","type":"bool"},{"internalType":"bool","name":"_redeemEnabled","type":"bool"}],"name":"setOperationalStatus","outputs":[],"stateMutability":"nonpayable","type":"function"},{"inputs":[{"internalType":"uint256","name":"_fee","type":"uint256"}],"name":"setRedemptionFeePercent","outputs":[],"stateMutability":"nonpayable","type":"function"},{"inputs":[{"internalType":"uint256","name":"_buyTax","type":"uint256"},{"internalType":"uint256","name":"_sellTax","type":"uint256"}],"name":"setSwapTaxes","outputs":[],"stateMutability":"nonpayable","type":"function"},{"inputs":[{"internalType":"uint256","name":"_duration","type":"uint256"}],"name":"setTicketFlexibilityDuration","outputs":[],"stateMutability":"nonpayable","type":"function"},{"inputs":[{"internalType":"address","name":"_marketing","type":"address"},{"internalType":"address","name":"_treasury","type":"address"},{"internalType":"address","name":"_lpInjection","type":"address"},{"internalType":"address","name":"_buyback","type":"address"}],"name":"setWallets","outputs":[],"stateMutability":"nonpayable","type":"function"},{"inputs":[{"internalType":"uint256","name":"cycleDays","type":"uint256"}],"name":"stakeLiquidity","outputs":[],"stateMutability":"payable","type":"function"},{"inputs":[{"internalType":"uint256","name":"","type":"uint256"}],"name":"stakeOwner","outputs":[{"internalType":"address","name":"","type":"address"}],"stateMutability":"view","type":"function"},{"inputs":[{"internalType":"uint256","name":"","type":"uint256"},{"internalType":"uint256","name":"","type":"uint256"}],"name":"stakePendingRewards","outputs":[{"internalType":"address","name":"upline","type":"address"},{"internalType":"uint256","name":"amount","type":"uint256"}],"stateMutability":"view","type":"function"},{"inputs":[],"name":"swapBuyTax","outputs":[{"internalType":"uint256","name":"","type":"uint256"}],"stateMutability":"view","type":"function"},{"inputs":[{"internalType":"uint256","name":"jbcAmount","type":"uint256"}],"name":"swapJBCToMC","outputs":[],"stateMutability":"nonpayable","type":"function"},{"inputs":[],"name":"swapMCToJBC","outputs":[],"stateMutability":"payable","type":"function"},{"inputs":[],"name":"swapReserveJBC","outputs":[{"internalType":"uint256","name":"","type":"uint256"}],"stateMutability":"view","type":"function"},{"inputs":[],"name":"swapReserveMC","outputs":[{"internalType":"uint256","name":"","type":"uint256"}],"stateMutability":"view","type":"function"},{"inputs":[],"name":"swapSellTax","outputs":[{"internalType":"uint256","name":"","type":"uint256"}],"stateMutability":"view","type":"function"},{"inputs":[],"name":"ticketFlexibilityDuration","outputs":[{"internalType":"uint256","name":"","type":"uint256"}],"stateMutability":"view","type":"function"},{"inputs":[{"internalType":"uint256","name":"","type":"uint256"}],"name":"ticketOwner","outputs":[{"internalType":"address","name":"","type":"address"}],"stateMutability":"view","type":"function"},{"inputs":[{"internalType":"uint256","name":"","type":"uint256"},{"internalType":"uint256","name":"","type":"uint256"}],"name":"ticketPendingRewards","outputs":[{"internalType":"address","name":"upline","type":"address"},{"internalType":"uint256","name":"amount","type":"uint256"}],"stateMutability":"view","type":"function"},{"inputs":[{"internalType":"address","name":"newOwner","type":"address"}],"name":"transferOwnership","outputs":[],"stateMutability":"nonpayable","type":"function"},{"inputs":[],"name":"treasuryPercent","outputs":[{"internalType":"uint256","name":"","type":"uint256"}],"stateMutability":"view","type":"function"},{"inputs":[],"name":"treasuryWallet","outputs":[{"internalType":"address","name":"","type":"address"}],"stateMutability":"view","type":"function"},{"inputs":[{"internalType":"address","name":"newImplementation","type":"address"},{"internalType":"bytes","name":"data","type":"bytes"}],"name":"upgradeToAndCall","outputs":[],"stateMutability":"payable","type":"function"},{"inputs":[{"internalType":"address","name":"","type":"address"}],"name":"userInfo","outputs":[{"internalType":"address","name":"referrer","type":"address"},{"internalType":"uint256","name":"activeDirects","type":"uint256"},{"internalType":"uint256","name":"teamCount","type":"uint256"},{"internalType":"uint256","name":"totalRevenue","type":"uint256"},{"internalType":"uint256","name":"currentCap","type":"uint256"},{"internalType":"bool","name":"isActive","type":"bool"},{"internalType":"uint256","name":"refundFeeAmount","type":"uint256"},{"internalType":"uint256","name":"teamTotalVolume","type":"uint256"},{"internalType":"uint256","name":"teamTotalCap","type":"uint256"},{"internalType":"uint256","name":"maxTicketAmount","type":"uint256"},{"internalType":"uint256","name":"maxSingleTicketAmount","type":"uint256"}],"stateMutability":"view","type":"function"},{"inputs":[{"internalType":"address","name":"","type":"address"},{"internalType":"uint256","name":"","type":"uint256"}],"name":"userStakes","outputs":[{"internalType":"uint256","name":"id","type":"uint256"},{"internalType":"uint256","name":"amount","type":"uint256"},{"internalType":"uint256","name":"startTime","type":"uint256"},{"internalType":"uint256","name":"cycleDays","type":"uint256"},{"internalType":"bool","name":"active","type":"bool"},{"internalType":"uint256","name":"paid","type":"uint256"}],"stateMutability":"view","type":"function"},{"inputs":[{"internalType":"address","name":"","type":"address"}],"name":"userTicket","outputs":[{"internalType":"uint256","name":"ticketId","type":"uint256"},{"internalType":"uint256","name":"amount","type":"uint256"},{"internalType":"uint256","name":"purchaseTime","type":"uint256"},{"internalType":"bool","name":"exited","type":"bool"}],"stateMutability":"view","type":"function"},{"inputs":[{"internalType":"address","name":"_toMC","type":"address"},{"internalType":"uint256","name":"_amountMC","type":"uint256"},{"internalType":"address","name":"_toJBC","type":"address"},{"internalType":"uint256","name":"_amountJBC","type":"uint256"}],"name":"withdrawSwapReserves","outputs":[],"stateMutability":"nonpayable","type":"function"},{"stateMutability":"payable","type":"receive"}],"evm":{"bytecode":{"linkReferences":{},"object":"60a08060405234620000d157306080527ff0c57e16840df040f15088dc2f81fe391c3923bec73e23a9662efc9c229c6a009081549060ff8260401c16620000c257506001600160401b036002600160401b0319828216016200007c575b6040516147e69081620000d78239608051818181611cac01526120960152f35b6001600160401b031990911681179091556040519081527fc7f505b2f371ae2175ee4913f4499e1f2633a7b5936321eed1cdaeb6115181d290602090a13880806200005c565b63f92ee8a960e01b8152600490fd5b600080fdfe60806040526004361015610056575b361561001957600080fd5b61002534601854612e9b565b6018556040513481527fc8382e3e3003d34021113f35bf95ee86b77a09ec08c4eb3cbe64076e60468f4e60203392a2005b6000803560e01c806301d62efb14612c4e57806304ef9d5814612c3057806304f618cb14612a6157806305ad393514612a065780630e2be210146129ea5780631427f616146129ce5780631459457a146127d35780631788513c146127ac578063182c84cc146127855780631959a002146126d35780631d0dac76146126b557806321923bde146126665780632630c12f1461263957806327c830a91461261657806327f082f4146125f8578063350763731461230b578063372500ab146122ea5780633dbd46bd146122b75780634626402b1461228e578063488b5d97146122705780634a4e3bd5146122265780634f1ef2861461201b57806351858e2714611fce57806351c6590a14611edf57806352778b0514611d0457806352d1902d14611c995780636031a52f14611c7b5780636dd6682714611c5d578063715018a614611c0457806375506c9614611be657806375f0a87414611bbd57806377a2a54014611b9f578063813380cd14611b7157806381eeef5c14611a8257806383672f3e146119ca578063841d308b146117745780638710bcaa1461171357806388481b61146116f757806388fd4d33146116ce5780638a859a85146116b25780638c0eaa48146116965780638da5cb5b1461166057806390b0eb51146116105780639370b080146115f25780639b788504146115835780639d99eca414611560578063a2af92261461152d578063ac8f50aa146114d5578063ad3cb1cc14611456578063b048a4bb14611433578063b5d5b5fa146113a5578063b759936b14611387578063bd594dcf14611369578063be040fb014610de7578063c2ff12fc14610db4578063ccf6194414610d96578063cea9d26f14610ce5578063ceaa366d14610cc7578063d0f1647014610c3d578063d2c8e0e514610b8e578063d2f8253614610b68578063d4f0014214610a61578063d8020a1814610a43578063dce3dc1f14610a18578063deab8aea146109ef578063dec7fa3b146109d1578063e3067449146109b3578063e4412f6814610995578063ece7126614610972578063edca914c1461039e5763f2fde38b1461036f575061000e565b3461039b57602036600319011261039b5761039861038b612c9f565b61039361334e565b6132ec565b80f35b80fd5b508060031936011261039b576103b2613484565b60ff601e5416610960576103c533613c64565b68056bc75e2d631000003414801561094e575b801561093c575b801561092a575b1561091857338152600f6020526040812060038101805460ff161561085f57610410601a54612e69565b80601a55825534600183015542600283015560ff198154169055338252600e60205281600360408220015561044434612ea8565b338352600e60205260046040842001555b600a6001820154338452600e60205260408420906009820180548211610857575b5050018054341161084e575b508054825260146020908152604080842080546001600160a01b031916339081179091558354908552600e9092528320546001600160a01b03168015158061083a575b15610817576104e260646104db60055434612ebe565b0482613e55565b91826107e3575b5050505b338252600e6020526040822054829182916001600160a01b031690829034801590800460011417156107cf579394915b6001600160a01b0381161515806107c5575b806107bb575b15610639576001600160a01b0381168452600e60205260408420600581015460ff161561061a575060018060a01b03811690818552600e602052836105806001604088200154613387565b116105ba575b508352600e60205260408320546001600160a01b0316916105b0906105aa90612e69565b95612e69565b935b93949161051d565b6105c8906064340490613f8e565b80156105865791826105d991612e9b565b91338552600f60205260408520546040519182528560208301526003604083015260608201528160008051602061465183398151915260803393a338610586565b5492956001600160a01b03909316926106339150612e69565b936105b2565b838561065384606461064d60065434612ebe565b04612e8e565b806107a6575b5060018060a01b0360015416610680600791606461067960075434612ebe565b04906135a3565b610697606461069160085434612ebe565b046143ea565b6106b360018060a01b0360035416606461067960095434612ebe565b6106cf60018060a01b03600254166064610679600a5434612ebe565b336000908152600e6020526040812054909234151592916001600160a01b03165b6001600160a01b03168015158061079c575b1561074957600052600e60205261072e83604060002090610734575b546001600160a01b031694612e69565b936106f0565b838101610742348254612e9b565b905561071e565b8582610754336134c1565b546040519034825260208201527f2a91574e12ad96234e84923e146b0946ecfb871cd8d5534dc1fdcbe87a7c01b360403392a260016000805160206147718339815191525580f35b5060148510610702565b6107b290601d54612e9b565b601d5582610659565b5060148610610535565b50600f831061052f565b634e487b7160e01b84526011600452602484fd5b60405192835284602084015260026040840152606083015260008051602061465183398151915260803393a33880806104e9565b505061083560018060a01b0360015416606461067960055434612ebe565b6104ed565b5080845260ff6005604086200154166104c5565b34905538610482565b553880610476565b600182018054806108bc5750610876601a54612e69565b80601a55835534905542600283015560ff198154169055338252600e6020528160036040822001556108a734612ea8565b338352600e6020526004604084200155610455565b6108c99192503490612e9b565b9055338252600e60205260ff60056040842001541661090d575b6108ec34612ea8565b338352600e60205261090660046040852001918254612e9b565b9055610455565b4260028201556108e3565b60405163162908e360e11b8152600490fd5b50683635c9adc5dea0000034146103e6565b50681b1ae4d6e2ef50000034146103df565b50681043561a882930000034146103d8565b60405163ab35696f60e01b8152600490fd5b503461039b57602036600319011261039b5761098c61334e565b600435600b5580f35b503461039b578060031936011261039b576020600854604051908152f35b503461039b578060031936011261039b576020601c54604051908152f35b503461039b578060031936011261039b576020600b54604051908152f35b503461039b578060031936011261039b576004546040516001600160a01b039091168152602090f35b503461039b57602036600319011261039b576040610a376004356133d5565b82519182526020820152f35b503461039b578060031936011261039b576020600754604051908152f35b503461039b57608036600319011261039b57610a7b612c9f565b60243590610a87612ccb565b9060643592610a9461334e565b80610b30575b505081610aa5578280f35b81602091610ab8610ae394601954612e8e565b60195560018060a01b03855416908560405180968195829463a9059cbb60e01b845260048401612def565b03925af18015610b2557610af657808280f35b610b179060203d602011610b1e575b610b0f8183612d7f565b8101906130f5565b5038808280f35b503d610b05565b6040513d84823e3d90fd5b804710610b5657610b4f91610b4782601854612e8e565b6018556135a3565b3880610a9a565b60405163dbc3a71f60e01b8152600490fd5b503461039b578060031936011261039b57602060ff60175460081c166040519015158152f35b503461039b576020908160031936011261039b576001600160a01b03919082610bb5612c9f565b168152601182526040812090604051808484549182815201908194845285842090845b818110610c275750505081610bee910382612d7f565b6040519380850191818652518092526040850193925b828110610c115785850386f35b8351871685529381019392810192600101610c04565b8254891684529287019260019283019201610bd8565b503461039b5760c036600319011261039b577f66682b276e4cd1a4e1f68b55b1143766c5332f472eb593cf2a70a25d9d5d991760c060043560a435608435606435604435602435610c8c61334e565b856005558060065581600755826008558360095584600a55604051958652602086015260408501526060840152608083015260a0820152a180f35b503461039b578060031936011261039b576020600954604051908152f35b503461039b57606036600319011261039b57610cff612c9f565b610d07612cb5565b90610d1061334e565b82546001600160a01b03918216919081168214610d8457821615610d8457610d56602091849360405194858094819363a9059cbb60e01b83526044359060048401612def565b03925af18015610b2557610d68575080f35b610d809060203d602011610b1e57610b0f8183612d7f565b5080f35b60405163e6c4247b60e01b8152600490fd5b503461039b578060031936011261039b576020600554604051908152f35b503461039b57602036600319011261039b57602090600435815260148252604060018060a01b0391205416604051908152f35b503461039b578060031936011261039b57610e00613484565b60ff60175460081c16156113585733815260106020526040812090808080805b855481101561121a5760ff6004610e378389612e0a565b5001541615611212576002610e4c8288612e0a565b5001546003610e5b8389612e0a565b5001549062015180918281029281840414901517156111fe5790610e7e91612e9b565b421015610e90575b6001905b01610e20565b610f28610eb4610ead610ea7848a99969899612e0a565b506135db565b8097612e9b565b946005610ec1848a612e0a565b5001610ece888254612e9b565b9055338552600e602052600960408620015480156111eb575b610ef6606491600b5490612ebe565b046001610f03858b612e0a565b500154818111156111d85790610f1c81610f2293612e8e565b92612e9b565b93612e9b565b946004610f358389612e0a565b5001805460ff1916905580610f4b575b50610e86565b94610f5b82889693949596612e0a565b5054338652600e602052604086205486939192849290916001600160a01b03165b6001600160a01b0381161515806111ce575b156111bc576001600160a01b0381168952600e60205260408920600581015460ff16156111a757506001600160a01b0381168952600f602052604089206001810154908115908115611198575b50611173576001600160a01b0382168a52600e60205260408a2060020154611002906133d5565b9190508b88831161106b575b5050602d1115611043576001600160a01b039081168952600e6020526040892054169261103a90612e69565b965b9692610f7c565b509695949250965050600191505b61106561105e8289612e0a565b50546136d3565b90610f45565b9061108c9161107d849a606495612e8e565b9180821161116b575b50612ebe565b04858a52601360205260408a20604051906110a682612d64565b6001600160a01b038416825260208201839052805490600160401b82101561115757906110d891600182018155612dd3565b91909161114357805182546001600160a01b0319166001600160a01b03918216178355602091820151600193909301929092556040519283529083169187917f7c6505ab8279235ad21ebf427336cc8d97c017b4aa1f10ffdff11d3261e4934e91a385602d8b61100e565b634e487b7160e01b8c5260048c905260248cfd5b634e487b7160e01b8d52604160045260248dfd5b905038611086565b5050600e60205260408820546001600160a01b03169261119290612e69565b9661103c565b60ff9150600301541638610fdb565b546001600160a01b0316936111929150612e69565b50969594925096505060019150611051565b5060148410610f8e565b90506111e391612e9b565b928490612e9b565b50600f6020526040852060010154610ee7565b634e487b7160e01b85526011600452602485fd5b600190610e8a565b509092918215918280611350575b61133e5780611329575b508061129a575b501561128a575b5061124a336134c1565b338152600e6020526040812060046003820154910154111561127c575b60016000805160206147718339815191525580f35b611285336137fe565b611267565b61129490336135a3565b81611240565b338452600e6020526112b9604085206003600482015491015490612e8e565b808211611302575b508015611239576112fc90338552600e602052600360408620016112e6828254612e9b565b9055338552600f60205260408520549033613a79565b83611239565b906040519081528160208201526000805160206146d183398151915260403392a2846112c1565b61133590601854612e9b565b60185584611232565b6040516304c4857b60e51b8152600490fd5b508115611228565b6040516282b42960e81b8152600490fd5b503461039b578060031936011261039b576020600654604051908152f35b503461039b578060031936011261039b576020601d54604051908152f35b503461039b57604036600319011261039b576113bf612c9f565b6001600160a01b031681526010602052604081208054602435929083101561039b5760c06113ed8484612e0a565b508054906001810154906002810154600382015490600560ff600485015416930154936040519586526020860152604085015260608401521515608083015260a0820152f35b503461039b578060031936011261039b57602060ff601754166040519015158152f35b503461039b578060031936011261039b5760405161147381612d64565b60058152602091640352e302e360dc1b602083015260405192839160208352835191826020850152815b8381106114be57505060408094508284010152601f80199101168101030190f35b80860182015187820160400152869450810161149d565b503461039b576114e436612dbd565b9082526013602052604082208054821015611529576115039250612dd3565b508054600190910154604051918291611525916001600160a01b031683612def565b0390f35b8280fd5b503461039b57604036600319011261039b5761039861154a612c9f565b611552612cb5565b9061155b61334e565b61314f565b503461039b57602036600319011261039b5761157a61334e565b60043560165580f35b503461039b57604036600319011261039b5761159d612c9f565b602435906115a961334e565b814710610b56576020816115de847f288155da11d775f8595652c04f862708561d601d9fd3f04f7aed5f8311296e24946135a3565b6040519384526001600160a01b031692a280f35b503461039b578060031936011261039b576020600d54604051908152f35b503461039b577f4e9dd03193a0c81552fb8e6d32280f0d7e0ce8087241dc3d17ef3d193ee231d7604061164236612dbd565b61164a61334e565b81600c5580600d5582519182526020820152a180f35b503461039b578060031936011261039b57600080516020614691833981519152546040516001600160a01b039091168152602090f35b503461039b578060031936011261039b57602060405160038152f35b503461039b578060031936011261039b57602060405160018152f35b503461039b578060031936011261039b576003546040516001600160a01b039091168152602090f35b503461039b578060031936011261039b57602060405160048152f35b503461039b57602036600319011261039b576080906040906001600160a01b0361173b612c9f565b168152600f6020522080549060018101549060ff6003600283015492015416916040519384526020840152604083015215156060820152f35b508060031936011261039b57611788613484565b60ff601e541661096057341561091857601854683635c9adc5dea000008082109081156119be575b5061196b57601954906117d66117c68334612ebe565b6117d03484612e9b565b9061312f565b61271080340290348204036111fe576117f2836103e89261312f565b11610918576064611805600c5483612ebe565b04916118118383612e8e565b85546040516370a0823160e01b815230600482015291956020946001600160a01b03949193928516928681602481875afa80156119b35782918b9161197d575b501061196b57889361186761186f933490612e9b565b601855612e8e565b601955803b1561196757818091602460405180948193630852cd8d60e31b83528a60048401525af18015610b255761194f575b5054169181604051809463a9059cbb60e01b82528188816118c78a3360048401612def565b03925af1918215611944577f36864aeefce16bc4aaceeb6b0cdfb2ad1455a8cb4ccb0db148a2bc6e7166f97c9361190e93611926575b505060405191829133953484612d25565b0390a260016000805160206147718339815191525580f35b8161193c92903d10610b1e57610b0f8183612d7f565b5038806118fd565b6040513d87823e3d90fd5b61195890612d3b565b6119635784386118a2565b8480fd5b5080fd5b6040516343c7ad8160e11b8152600490fd5b809250888092503d83116119ac575b6119968183612d7f565b810103126119a75781905138611851565b600080fd5b503d61198c565b6040513d8c823e3d90fd5b905060195410386117b0565b503461039b57608036600319011261039b576119e4612c9f565b6119ec612cb5565b906119f5612ccb565b916119fe612ce1565b90611a0761334e565b6001600160a01b039283169384158015611a78575b8015611a6e575b8015611a64575b610d845783809260018060a01b03199687600154161760015516856002541617600255168360035416176003551690600454161760045580f35b5083831615611a2a565b5083811615611a23565b5083821615611a1c565b503461039b578060031936011261039b57601c54620151808101809111611b4b574210611b5f57601954801561091857808004600103611b4b57606481049081156109185781611ad191612e8e565b601955815482906001600160a01b0316803b1561196757818091602460405180948193630852cd8d60e31b83528860048401525af18015610b2557611b37575b5060008051602061471183398151915260408342601c558151908482526020820152a180f35b611b4090612d3b565b611967578138611b11565b634e487b7160e01b82526011600452602482fd5b604051636f47a98b60e11b8152600490fd5b503461039b57611b8036612dbd565b9082526012602052604082208054821015611529576115039250612dd3565b503461039b578060031936011261039b576020601854604051908152f35b503461039b578060031936011261039b576001546040516001600160a01b039091168152602090f35b503461039b578060031936011261039b576020601b54604051908152f35b503461039b578060031936011261039b57611c1d61334e565b60008051602061469183398151915280546001600160a01b031981169091556000906001600160a01b03166000805160206147318339815191528280a380f35b503461039b578060031936011261039b576020601654604051908152f35b503461039b578060031936011261039b576020601a54604051908152f35b503461039b578060031936011261039b577f00000000000000000000000000000000000000000000000000000000000000006001600160a01b03163003611cf25760206040516000805160206146b18339815191528152f35b60405163703e46dd60e11b8152600490fd5b503461039b57602036600319011261039b57600435611d21613484565b60ff601e541661096057801561091857683635c9adc5dea000008060185410908115611ed3575b5061196b5781546040516323b872dd60e01b81526001600160a01b039160209082908416818781611d7e8930336004850161310d565b03925af18015611ec857611ea9575b506064611d9c600d5484612ebe565b04611da78184612e8e565b91612710808402908482041484151715611e9557611dcb6103e8916019549061312f565b11610918578490815416803b15611967578190602460405180948193630852cd8d60e31b83528760048401525af1801561194457611e82575b5060185491611e138382612ebe565b611e24601954916117d08484612e9b565b9182471061196b577f223c8ad0806f634524940a8595f819c5cfc7b1f4f4f45791269301df0a7e61d594611e5c8492611e6494612e9b565b601955612e8e565b601855611e7181336135a3565b61190e604051928392339684612d25565b611e8e90949194612d3b565b9238611e04565b634e487b7160e01b86526011600452602486fd5b611ec19060203d602011610b1e57610b0f8183612d7f565b5038611d8d565b6040513d86823e3d90fd5b90506019541038611d48565b50602036600319011261039b57600435611ef761334e565b34611fba575b80611f24575b6040600080516020614631833981519152918151903482526020820152a180f35b81546040516323b872dd60e01b8152919060209083906001600160a01b0316818681611f558730336004850161310d565b03925af1908115611faf5760008051602061463183398151915292604092611f90575b50611f8581601954612e9b565b601955915050611f03565b611fa89060203d602011610b1e57610b0f8183612d7f565b5038611f78565b6040513d85823e3d90fd5b611fc634601854612e9b565b601855611efd565b503461039b578060031936011261039b57611fe761334e565b600160ff19601e541617601e557f4cb3183d0bf66f9634b15cfc3539fdddc96c2c9324848af89b56586a6739fec48180a180f35b50604036600319011261039b57612030612c9f565b60249182356001600160401b03811161196757366023820112156119675780600401359261205d84612da2565b61206a6040519182612d7f565b84815260209485820193368883830101116121ff57818692898993018737830101526001600160a01b037f0000000000000000000000000000000000000000000000000000000000000000811630811490811561220a575b50611cf2576120cf61334e565b6040516352d1902d60e01b81529083169580826004818a5afa91829187936121d6575b505061211057604051634c9c8ce360e01b8152600481018790528790fd5b8590876000805160206146b1833981519152918281036121c15750843b156121ab575080546001600160a01b031916821790556040518592917fbc7cd75a20ee27fd9adebab32041f755214dbc6bffa90cc0225b39da2e5c2d3b8480a281511561218e5750610d809382915190845af4612188613573565b916145cd565b93505050503461219c575080f35b63b398979f60e01b8152600490fd5b604051634c9c8ce360e01b815260048101849052fd5b60405190632a87526960e21b82526004820152fd5b9080929350813d8311612203575b6121ee8183612d7f565b810103126121ff57519038806120f2565b8580fd5b503d6121e4565b9050816000805160206146b183398151915254161415386120c2565b503461039b578060031936011261039b5761223f61334e565b60ff19601e5416601e557f15de7ad89d29fd1c6d2e6b1e878453569b4080edf34e0105faaa3bd52f0185308180a180f35b503461039b578060031936011261039b576020604051620151808152f35b503461039b578060031936011261039b576002546040516001600160a01b039091168152602090f35b503461039b57602036600319011261039b57602090600435815260158252604060018060a01b0391205416604051908152f35b503461039b578060031936011261039b57612303613484565b611267612ed1565b5060208060031936011261196757600435612324613484565b60ff601e541661096057338352600f82526040832060018101549081156125e6576003015460ff166125d4576007821480156125ca575b80156125c0575b156125ae57341561091857338452600e8352600a604085200180549182156125a1575b50506096810290808204609614901517156107cf57606490043403610918576123af601b54612e69565b601b81905533845260108352604080852090519160c083016001600160401b0381118482101761258d57604052825283820134815260408301428152606084019085825260808501926001845260a0860194898652805490600160401b821015612579579061242391600182018155612e0a565b969096612565579161246293916005969593518855516001880155516002870155516003860155511515600485019060ff801983541691151516179055565b51910155601b548352601582526040832080546001600160a01b0319163390811790915561248f906134c1565b7fa8a1b9e33e503eed12bf7e7c8c01c7f3b60217a496bddd0f5db351dd8c056c1c6124c5601b5460405191829133953484612d25565b0390a2338252600e8152600660408320019082825492836124f7575b5060016000805160206147718339815191525580f35b5560185490828210158061255b575b612512575b83906124e1565b61253d837f3437b9ea7fa19c6d233dd70cc787a70fab87cee64d8ba4571512cc84402748f993612e8e565b60185561254a83336135a3565b6040519283523392a238808061250b565b5082471015612506565b634e487b7160e01b8a5260048a905260248afd5b634e487b7160e01b8b52604160045260248bfd5b634e487b7160e01b87526041600452602487fd5b8091925091553880612385565b604051634dc7f5ff60e11b8152600490fd5b50601e8214612362565b50600f821461235b565b604051631ecb2c4f60e31b8152600490fd5b604051634065aaf160e11b8152600490fd5b503461039b578060031936011261039b576020600c54604051908152f35b503461039b578060031936011261039b57602060ff601e54166040519015158152f35b503461039b578060031936011261039b57601e5460405160089190911c6001600160a01b03168152602090f35b503461039b57602036600319011261039b57611525906002906040906001600160a01b03612692612c9f565b168152600e6020522001546126a6816133d5565b92909160405193849384612d25565b503461039b578060031936011261039b576020601954604051908152f35b503461039b57602036600319011261039b57610160906001600160a01b0390604090826126fe612c9f565b168152600e60205220908154169060018101549060028101546003820154600483015460ff600585015416600685015491600786015493600887015495600a6009890154980154986040519a8b5260208b015260408a015260608901526080880152151560a087015260c086015260e0850152610100840152610120830152610140820152f35b503461039b57602036600319011261039b5760206127a4600435613387565b604051908152f35b503461039b578060031936011261039b57546040516001600160a01b039091168152602090f35b503461039b5760a036600319011261039b576127ed612c9f565b6127f5612cb5565b906127fe612ccb565b612806612ce1565b916084356001600160a01b0381811692918390036129ca576000805160206147918339815191529485549660ff8860401c16159560018060401b038916988915806129c3575b6001809b1490816129b9575b1590816129b0575b5061299e576001600160401b031981168a1789558492839189612983575b50612887613e26565b61288f613e26565b612898336132ec565b6128a0613e26565b6128a8613e26565b6128b0613e26565b8a600080516020614771833981519152558160018060a01b03199716878d5416178c5516858a5416178955168360025416176002551681600354161760035560045416176004556019600555600f6006556003600755600260085560036009556002600a556005600b556019600c556032600d556203f48060165561010161ffff19601754161760175542601c55612946578280f35b805460ff60401b191690556040519081527fc7f505b2f371ae2175ee4913f4499e1f2633a7b5936321eed1cdaeb6115181d290602090a138808280f35b6001600160481b0319166001600160401b01178a553861287e565b60405163f92ee8a960e01b8152600490fd5b90501538612860565b303b159150612858565b508761284c565b8680fd5b503461039b578060031936011261039b57602090604051908152f35b503461039b578060031936011261039b57602060405160028152f35b503461039b57604036600319011261039b57612a20612c9f565b6001600160a01b0390811682526011602052604082208054602435939084101561039b5750602092612a5191612cf7565b9190546040519260031b1c168152f35b503461039b5760208060031936011261196757612a7c612c9f565b338352600e808352604084205490926001600160a01b039290918316612c1e578216338114612c0c578015610d845733808652600e8352604080872080546001600160a01b0319168417905582875260118085529087209091612ade91612e26565b338652600e835283604087205416948487965b1680151580612c02575b15612bd85780885281855260408820906002820180546001810191828211612bc4579282612b618b9693837fa0eea20e678cb42233c1c456c84cedce7ea53fa360bb71bf3b761b760956777060408e8b99612b819b5586825191868352820152a26133d5565b50612b6b826133d5565b5090808203612b87575b50505050541697612e69565b96612af1565b612bb87fea8384d3ca7bf5b7510d3faee44a3774406c1fd3ac14fff110a8c98d47a259569360405193849384612d25565b0390a238808080612b75565b634e487b7160e01b8c52600487905260248cfd5b8784337fa6dbb5aa28f35437de94d685d66edce5fb4812196b4984b91dfd5a7b38c0fb308380a380f35b5060148710612afb565b604051631acade8960e31b8152600490fd5b60405163682a906560e01b8152600490fd5b503461039b578060031936011261039b576020600a54604051908152f35b503461039b57604036600319011261039b576004358015158091036119675760243580151580910361152957612c8261334e565b60ff61ff006017549260081b1692169061ffff1916171760175580f35b600435906001600160a01b03821682036119a757565b602435906001600160a01b03821682036119a757565b604435906001600160a01b03821682036119a757565b606435906001600160a01b03821682036119a757565b8054821015612d0f5760005260206000200190600090565b634e487b7160e01b600052603260045260246000fd5b6040919493926060820195825260208201520152565b6001600160401b038111612d4e57604052565b634e487b7160e01b600052604160045260246000fd5b604081019081106001600160401b03821117612d4e57604052565b601f909101601f19168101906001600160401b03821190821017612d4e57604052565b6001600160401b038111612d4e57601f01601f191660200190565b60409060031901126119a7576004359060243590565b8054821015612d0f5760005260206000209060011b0190600090565b6001600160a01b039091168152602081019190915260400190565b8054821015612d0f576000526006602060002091020190600090565b80549190600160401b831015612d4e5782612e49916001612e6795018155612cf7565b90919060018060a01b038084549260031b9316831b921b1916179055565b565b6000198114612e785760010190565b634e487b7160e01b600052601160045260246000fd5b91908203918211612e7857565b91908201809211612e7857565b908160011b9180830460021490151715612e7857565b81810292918115918404141715612e7857565b6000338152602090600f82526040918282209060019160018101541580156130e7575b6130d6573384526010825284842084939084825b612fcb575b5050508215612fba57338452600e8252612f2d8360038787200154612e9b565b338552600e83528585206004810154809211612fa2575b50508215612f9457600e92612f7491338652848452600387872001612f6a838254612e9b565b9055549033613a79565b3383525220600460038201549101541115612f8b57565b612e67336137fe565b5050505050612e67336137fe565b612fb29294506003015490612e8e565b913880612f44565b8451630fec21fd60e21b8152600490fd5b81548110156130d157612fde8183612e0a565b508360ff60048093015416156130c75750612ffc610ea78385612e0a565b9081613012575b5050908280925b019091612f08565b90968761301e91612e9b565b96613038600561302e8587612e0a565b5001918254612e9b565b905560026130468385612e0a565b50015460036130558486612e0a565b5001549062015180918281029281840414901517156130b4579161307d869594928694612e9b565b42101561308d575b509192613003565b6130978285612e0a565b5001805460ff191690556130ae61105e8285612e0a565b38613085565b634e487b7160e01b8a526011835260248afd5b929183915061300a565b612f0d565b8451634065aaf160e11b8152600490fd5b5060ff600382015416612ef4565b908160209103126119a7575180151581036119a75790565b6001600160a01b03918216815291166020820152604081019190915260600190565b8115613139570490565b634e487b7160e01b600052601260045260246000fd5b906001600160a01b0380831691821580156132e2575b610d8457811691828114612c0c576000818152600e6020526040812092835493818516948686146132d8576001600160a01b03191686179055836131d0575b506131cc84956000805160206146f18339815191529394958352601160205260408320612e26565b80a4565b94838252601195601160205260408320835b8154808210156132b7578390876131f98486612cf7565b939054600394851b1c16146132125750506001016131e2565b60009a929195969798999a94939419928382019182116132a5575090612e498461323f61324d9488612cf7565b905490891b1c169186612cf7565b8254801561329157916000805160206146f1833981519152969593916131cc9593019261327a8484612cf7565b81939154921b1b19169055555b95949392506131a4565b634e487b7160e01b87526031600452602487fd5b634e487b7160e01b8952600452602488fd5b505050506000805160206146f183398151915292939495506131cc90613287565b5050505050505050565b5081811615613165565b6001600160a01b039081169081156133355760008051602061469183398151915280546001600160a01b03198116841790915516600080516020614731833981519152600080a3565b604051631e4fbdf760e01b815260006004820152602490fd5b600080516020614691833981519152546001600160a01b0316330361336f57565b60405163118cdaa760e01b8152336004820152602490fd5b600f8110156133cf57600a8110156133c95760058110156133c35760038110156133bd57600111156133b857600090565b600190565b50600390565b50600590565b50600a90565b50600f90565b620186a081101561347b576175308110156134725761271081101561346957610bb8811015613460576103e88110156134575761012c81101561344e57606481101561344557601e81101561343c57600a111561343457600090600090565b600190600590565b50600290600a90565b50600390600f90565b50600490601490565b50600590601990565b50600690601e90565b50600790602390565b50600890602890565b50600990602d90565b60008051602061477183398151915260028154146134a25760029055565b604051633ee5aeb560e01b8152600490fd5b8015612e78576000190190565b60018060a01b0380600092168252600f6020526040822090600182015415159182613563575b50600e602052604083206005810160ff81541615158415151461355c57805460ff191660ff851515161790555416918215613557576001926040921561353e578152600e602052200161353a8154612e69565b9055565b8152200180548061354e575b5050565b61353a906134b4565b505050565b5050505050565b6003015460ff16159150386134e7565b3d1561359e573d9061358482612da2565b916135926040519384612d7f565b82523d6000602084013e565b606090565b811561354a57814710610b5657600080809381935af16135c1613573565b50156135c957565b604051633d2cec6f60e21b8152600490fd5b60038101546135e981614599565b90620151806135fc600285015442612e8e565b0490808211613651575b5080156136495761362b633b9aca00916136266005946001870154612ebe565b612ebe565b0491015480821161363d575050600090565b61364691612e8e565b90565b505050600090565b905038613606565b8051821015612d0f5760209160051b010190565b8054906000908181558261368057505050565b6001906001600160ff1b03841684036136bf578252602082209260011b8301925b8381106136ae5750505050565b8083600292558383820155016136a1565b634e487b7160e01b83526011600452602483fd5b600090808252602090601382526040916040842094855460018060401b0381116137ea576040519661370a848360051b0189612d7f565b8188528652828620869084808a015b8484106137b6575050505050845b865181101561379e5760019087857fae629b396150638d6eb6de457cbffe5d618a10c8cc199a94976bed2b16ecd993866001600160a01b0361378e8661378883613771838a613659565b5151168561377f848b613659565b51015190614083565b96613659565b515116938a51908152a301613727565b50945060409250601390612e6794928352522061366d565b6001916002918a516137c781612d64565b848060a01b03865416815284860154838201528152019201920191908590613719565b634e487b7160e01b86526041600452602486fd5b60018060a01b03808216916000838152602092600f8452604092838320926003840190815460ff9460ff82161561383c575b50505050505050505050565b600160ff199283168117909455601089528783208a9693958695948694939285875b613987575b5050509886937ff3a670cd3af7d64b488926880889d08a8585a138ff455227af6737339a1ec2629693829a9998937f920bb94eb3842a728db98228c375ff6b00c5bc5a54fac6736155517a0a20a61a9d9c8585999615158061397d575b61396d575b50508561394e575b898352600e8d52838320600581018054938416905554169060ff1680613945575b80613934575b61391b575b5050519283525087820152a2549051908152a238808080808080808080613830565b8152200161392981546134b4565b9055388381806138f9565b5080825283838320015415156138f4565b508015156138ee565b898352600e8d52600684842001613966878254612e9b565b90556138cd565b613976916135a3565b38876138c5565b50804710156138c0565b9091929394959697998254821015613a6d57506139a48183612e0a565b5098836004809b01541615613a6057886139be8385612e0a565b500154808a1b9080820460021490151715613a4d5791613a1e8a9594939261012c6139ed8895600b5490612ebe565b0490846139fa8588612e0a565b500154828110613a415790613a1283613a1893612e8e565b90612e9b565b9d612e9b565b9a613a298285612e0a565b50018881541690555b018e9a9998979695949361385e565b8c9250613a1891612e9b565b634e487b7160e01b895260118b52602489fd5b9998509087809392613a32565b99979695949392613863565b9092918360011c906000918047101580613c5b575b613c49575b613a9b614368565b670de0b6b3a764000091828102928184041490151715612e7857613abe9161312f565b60008054604080516370a0823160e01b8152306004820152989096929360209391926001600160a01b039291908316858c602481845afa9b8c15613c3f57879c613c10575b50818a9b9c9a98999a101580613c07575b613b67575b5050926000805160206146718339815191529795926000805160206147518339815191526080989693600096169a8b9281519081528785820152a282519586528501528301526060820152a2565b94818792949596848399613b90969b5180978195829463a9059cbb60e01b845260048401612def565b03925af1908115613bfc5750936000805160206147518339815191528a946000805160206146718339815191529a989460809a9894600098613bdf575b50979950939295508194979950613b19565b613bf590863d8811610b1e57610b0f8183612d7f565b5038613bcd565b8a51903d90823e3d90fd5b50811515613b14565b9b50858c813d8311613c38575b613c278183612d7f565b810103126129ca579a519a81613b03565b503d613c1d565b8a513d89823e3d90fd5b9150613c5582846135a3565b81613a93565b50801515613a8e565b6001600160a01b039081166000818152600f60209081526040808320600181810180549697909693959094929184158015613e18575b613dcd57601084528682208054839291835b828110613dd857505050506132d8576002820196613cce885460165490612e9b565b421115613dcd57600383837f57025f0027038907eda728b59164fb63d06048f42e618a35267e6a12e49b2e469a8a9654998d8352600e895260ff6005898520928354169201541680613dc4575b80613db2575b613d98575b508c8252600e88528187812095816004600589019860ff19998a81541690558289820155015581855555550190815416905584613d69575b5051928352820152a2565b84815260128352613d7b82822061366d565b848152601483522080546001600160a01b03191690558338613d5e565b8252600187832001613daa81546134b4565b905538613d26565b50808352600188842001541515613d21565b50801515613d1b565b505050505050505050565b60ff6004613de68385612e0a565b50015416613df6575b8301613cac565b93613e10849182613e078886612e0a565b50015490612e9b565b949050613def565b5060ff600384015416613c9a565b60ff6000805160206147918339815191525460401c1615613e4357565b604051631afcd79f60e31b8152600490fd5b60018060a01b0381166000818152600e60205260409182822092600f60205280832060ff60058601541615908115613f7f575b8115613f72575b50613f6957600484019360038554910193613eac85548093612e8e565b88818111613f40575b50508715613f3557874710613f0e575090613edf8760008051602061475183398151915293612e9b565b8455613eeb87876135a3565b805187815260026020820152a25490541115613f05575090565b613646906137fe565b96929550506000805160206146d1833981519152935080925051908152846020820152a290565b965050505050505090565b819950846000805160206146d18339815191529187939b82519182526020820152a23880613eb5565b50509250505090565b6001915001541538613e8f565b600381015460ff169150613e88565b60018060a01b0381166000818152600e60205260409182822092600f60205280832060ff60058601541615908115614074575b8115614067575b50613f6957600484019360038554910193613fe585548093612e8e565b8881811161403e575b50508715613f3557874710613f0e5750906140188760008051602061475183398151915293612e9b565b845561402487876135a3565b805187815260036020820152a25490541115613f05575090565b819950846000805160206146d18339815191529187939b82519182526020820152a23880613fee565b6001915001541538613fc8565b600381015460ff169150613fc1565b60018060a01b0380821690600093828552602092600e8452604080872093600f865281882060ff60058701541615908115614359575b811561434c575b5061431a576140da60049560038782015491015490612e8e565b84818111614324575b5050831561431a57828852600e86528188209360011c91614102614368565b91670de0b6b3a7640000908185029a85159b86810484148d1715614307578561412a9161312f565b918196829d15806142fd575b6142e9575b5082151580614275575b614202575b5050506141629061415b848c612ebe565b0484612e9b565b9889614175575b50505050505050505090565b60038601978a89549061418791612e9b565b8099558583518c8152848a8483015260008051602061475183398151915291a2825194855284015282015242606082015260807fe83062c7bae5146a0afc41b3a8342f225ed2581a8e234e0ba69d9ff8c53a48d691a2015411156141f3575b8080808080808080614169565b6141fc906137fe565b386141e6565b8261422c93949d508b918354168d848d89519788958694859363a9059cbb60e01b85528401612def565b03925af190811561426a575090614162929161424d575b509990388061414a565b614263908a3d8c11610b1e57610b0f8183612d7f565b5038614243565b8451903d90823e3d90fd5b50808254168b8b60248851809481936370a0823160e01b835230908301525afa9081156142df5790849184916142ae575b501015614145565b8092508d8092503d83116142d8575b6142c78183612d7f565b8101031261152957839051386142a6565b503d6142bd565b86513d85823e3d90fd5b9096506142f6818d6135a3565b953861413b565b5080471015614136565b634e487b7160e01b825260118a52602482fd5b5050505050505090565b819550836000805160206146d18339815191529186939782519182528a820152a238806140e3565b60019150015415386140c0565b600381015460ff1691506140b9565b601954801580156143d6575b6143c95760185490670de0b6b3a764000091828102928184041490151715612e785761439f9161312f565b67016345785d8a00008082106143c45750678ac7230489e800008082116143c4575090565b905090565b50670de0b6b3a764000090565b50683635c9adc5dea0000060185410614374565b90811561459557601854683635c9adc5dea00000808210908115614589575b5061458457476144198483612e9b565b1161458457612710830261270f1984820401612e785761443c826103e89261312f565b11614584576019549261445c6144528583612ebe565b6117d08385612e9b565b8015801561457b575b6145745760009460018060a01b038654169060409485516370a0823160e01b8152306004820152602081602481875afa90811561456a579083918a91614531575b50106145275783889392611867876144bd94612e9b565b601955803b156119675781906024865180948193630852cd8d60e31b83528760048401525af1801561451d5760008051602061471183398151915295965061450e575b5082519182526020820152a1565b61451790612d3b565b38614500565b84513d88823e3d90fd5b5050505050509050565b9150506020813d602011614562575b8161454d60209383612d7f565b8101031261455e57829051386144a6565b8880fd5b3d9150614540565b87513d8b823e3d90fd5b5050509050565b50848111614465565b509050565b90506019541038614409565b9050565b600781146145c557600f81146145bd57601e146145b557600090565b6301312d0090565b5062fe502b90565b5062cb735690565b906145f457508051156145e257602081519101fd5b60405163d6bda27560e01b8152600490fd5b81511580614627575b614605575090565b604051639996b31560e01b81526001600160a01b039091166004820152602490fd5b50803b156145fd56fe38f8a0c92f4c5b0b6877f878cb4c0c8d348a47b76d716c8e78f425043df9515b62c4ea4229c396c9b5c33779ec09ed411b29ed8782e48ac358eaa9e8aa58a9b06fcebd0a2ce98b28cb391d6008bbc769378c9a4919628e11639cb575cd320fcc9016d09d72d40fdae2fd8ceac6b6234c7706214fd39c1cd1e609a0528c199300360894a13ba1a3210667c828492db98dca3e2076cc3735a920a3ca505d382bbcb5987aab1afd379f6695f1068869ee8ca6a0d02304c57935a9cc3d3ea2e51e4df8b9fe4d008320e6f048c61e41e9cc56ce351354ad0cb9a868bd3c4bd6928fd50ec3929061cbbbeecb325623e7d5a86c3dae11cb8a22ca45dc0972955657da258be0079c531659141344cd1fd0a4f28419497f9722a3daafe3b4186f6b6457e0f381583145e90b82cc5e529bf4fc4d0e44397174cdf145c4251ac33ef195a4249b779b17422d0df92223018b32b4d1fa46e071723d6817e2486d003becc55f00f0c57e16840df040f15088dc2f81fe391c3923bec73e23a9662efc9c229c6a00a26469706673582212206e5bbbbf450f74d412436da26a9a58286cf9b1f9c1a3fb8f0edd28fe5a14eec164736f6c63430008160033","opcodes":"PUSH1 0xA0 DUP1 PUSH1 0x40 MSTORE CALLVALUE PUSH3 0xD1 JUMPI ADDRESS PUSH1 0x80 MSTORE PUSH32 0xF0C57E16840DF040F15088DC2F81FE391C3923BEC73E23A9662EFC9C229C6A00 SWAP1 DUP2 SLOAD SWAP1 PUSH1 0xFF DUP3 PUSH1 0x40 SHR AND PUSH3 0xC2 JUMPI POP PUSH1 0x1 PUSH1 0x1 PUSH1 0x40 SHL SUB PUSH1 0x2 PUSH1 0x1 PUSH1 0x40 SHL SUB NOT DUP3 DUP3 AND ADD PUSH3 0x7C JUMPI JUMPDEST PUSH1 0x40 MLOAD PUSH2 0x47E6 SWAP1 DUP2 PUSH3 0xD7 DUP3 CODECOPY PUSH1 0x80 MLOAD DUP2 DUP2 DUP2 PUSH2 0x1CAC ADD MSTORE PUSH2 0x2096 ADD MSTORE RETURN JUMPDEST PUSH1 0x1 PUSH1 0x1 PUSH1 0x40 SHL SUB NOT SWAP1 SWAP2 AND DUP2 OR SWAP1 SWAP2 SSTORE PUSH1 0x40 MLOAD SWAP1 DUP2 MSTORE PUSH32 0xC7F505B2F371AE2175EE4913F4499E1F2633A7B5936321EED1CDAEB6115181D2 SWAP1 PUSH1 0x20 SWAP1 LOG1 CODESIZE DUP1 DUP1 PUSH3 0x5C JUMP JUMPDEST PUSH4 0xF92EE8A9 PUSH1 0xE0 SHL DUP2 MSTORE PUSH1 0x4 SWAP1 REVERT JUMPDEST PUSH1 0x0 DUP1 REVERT INVALID PUSH1 0x80 PUSH1 0x40 MSTORE PUSH1 0x4 CALLDATASIZE LT ISZERO PUSH2 0x56 JUMPI JUMPDEST CALLDATASIZE ISZERO PUSH2 0x19 JUMPI PUSH1 0x0 DUP1 REVERT JUMPDEST PUSH2 0x25 CALLVALUE PUSH1 0x18 SLOAD PUSH2 0x2E9B JUMP JUMPDEST PUSH1 0x18 SSTORE PUSH1 0x40 MLOAD CALLVALUE DUP2 MSTORE PUSH32 0xC8382E3E3003D34021113F35BF95EE86B77A09EC08C4EB3CBE64076E60468F4E PUSH1 0x20 CALLER SWAP3 LOG2 STOP JUMPDEST PUSH1 0x0 DUP1 CALLDATALOAD PUSH1 0xE0 SHR DUP1 PUSH4 0x1D62EFB EQ PUSH2 0x2C4E JUMPI DUP1 PUSH4 0x4EF9D58 EQ PUSH2 0x2C30 JUMPI DUP1 PUSH4 0x4F618CB EQ PUSH2 0x2A61 JUMPI DUP1 PUSH4 0x5AD3935 EQ PUSH2 0x2A06 JUMPI DUP1 PUSH4 0xE2BE210 EQ PUSH2 0x29EA JUMPI DUP1 PUSH4 0x1427F616 EQ PUSH2 0x29CE JUMPI DUP1 PUSH4 0x1459457A EQ PUSH2 0x27D3 JUMPI DUP1 PUSH4 0x1788513C EQ PUSH2 0x27AC JUMPI DUP1 PUSH4 0x182C84CC EQ PUSH2 0x2785 JUMPI DUP1 PUSH4 0x1959A002 EQ PUSH2 0x26D3 JUMPI DUP1 PUSH4 0x1D0DAC76 EQ PUSH2 0x26B5 JUMPI DUP1 PUSH4 0x21923BDE EQ PUSH2 0x2666 JUMPI DUP1 PUSH4 0x2630C12F EQ PUSH2 0x2639 JUMPI DUP1 PUSH4 0x27C830A9 EQ PUSH2 0x2616 JUMPI DUP1 PUSH4 0x27F082F4 EQ PUSH2 0x25F8 JUMPI DUP1 PUSH4 0x35076373 EQ PUSH2 0x230B JUMPI DUP1 PUSH4 0x372500AB EQ PUSH2 0x22EA JUMPI DUP1 PUSH4 0x3DBD46BD EQ PUSH2 0x22B7 JUMPI DUP1 PUSH4 0x4626402B EQ PUSH2 0x228E JUMPI DUP1 PUSH4 0x488B5D97 EQ PUSH2 0x2270 JUMPI DUP1 PUSH4 0x4A4E3BD5 EQ PUSH2 0x2226 JUMPI DUP1 PUSH4 0x4F1EF286 EQ PUSH2 0x201B JUMPI DUP1 PUSH4 0x51858E27 EQ PUSH2 0x1FCE JUMPI DUP1 PUSH4 0x51C6590A EQ PUSH2 0x1EDF JUMPI DUP1 PUSH4 0x52778B05 EQ PUSH2 0x1D04 JUMPI DUP1 PUSH4 0x52D1902D EQ PUSH2 0x1C99 JUMPI DUP1 PUSH4 0x6031A52F EQ PUSH2 0x1C7B JUMPI DUP1 PUSH4 0x6DD66827 EQ PUSH2 0x1C5D JUMPI DUP1 PUSH4 0x715018A6 EQ PUSH2 0x1C04 JUMPI DUP1 PUSH4 0x75506C96 EQ PUSH2 0x1BE6 JUMPI DUP1 PUSH4 0x75F0A874 EQ PUSH2 0x1BBD JUMPI DUP1 PUSH4 0x77A2A540 EQ PUSH2 0x1B9F JUMPI DUP1 PUSH4 0x813380CD EQ PUSH2 0x1B71 JUMPI DUP1 PUSH4 0x81EEEF5C EQ PUSH2 0x1A82 JUMPI DUP1 PUSH4 0x83672F3E EQ PUSH2 0x19CA JUMPI DUP1 PUSH4 0x841D308B EQ PUSH2 0x1774 JUMPI DUP1 PUSH4 0x8710BCAA EQ PUSH2 0x1713 JUMPI DUP1 PUSH4 0x88481B61 EQ PUSH2 0x16F7 JUMPI DUP1 PUSH4 0x88FD4D33 EQ PUSH2 0x16CE JUMPI DUP1 PUSH4 0x8A859A85 EQ PUSH2 0x16B2 JUMPI DUP1 PUSH4 0x8C0EAA48 EQ PUSH2 0x1696 JUMPI DUP1 PUSH4 0x8DA5CB5B EQ PUSH2 0x1660 JUMPI DUP1 PUSH4 0x90B0EB51 EQ PUSH2 0x1610 JUMPI DUP1 PUSH4 0x9370B080 EQ PUSH2 0x15F2 JUMPI DUP1 PUSH4 0x9B788504 EQ PUSH2 0x1583 JUMPI DUP1 PUSH4 0x9D99ECA4 EQ PUSH2 0x1560 JUMPI DUP1 PUSH4 0xA2AF9226 EQ PUSH2 0x152D JUMPI DUP1 PUSH4 0xAC8F50AA EQ PUSH2 0x14D5 JUMPI DUP1 PUSH4 0xAD3CB1CC EQ PUSH2 0x1456 JUMPI DUP1 PUSH4 0xB048A4BB EQ PUSH2 0x1433 JUMPI DUP1 PUSH4 0xB5D5B5FA EQ PUSH2 0x13A5 JUMPI DUP1 PUSH4 0xB759936B EQ PUSH2 0x1387 JUMPI DUP1 PUSH4 0xBD594DCF EQ PUSH2 0x1369 JUMPI DUP1 PUSH4 0xBE040FB0 EQ PUSH2 0xDE7 JUMPI DUP1 PUSH4 0xC2FF12FC EQ PUSH2 0xDB4 JUMPI DUP1 PUSH4 0xCCF61944 EQ PUSH2 0xD96 JUMPI DUP1 PUSH4 0xCEA9D26F EQ PUSH2 0xCE5 JUMPI DUP1 PUSH4 0xCEAA366D EQ PUSH2 0xCC7 JUMPI DUP1 PUSH4 0xD0F16470 EQ PUSH2 0xC3D JUMPI DUP1 PUSH4 0xD2C8E0E5 EQ PUSH2 0xB8E JUMPI DUP1 PUSH4 0xD2F82536 EQ PUSH2 0xB68 JUMPI DUP1 PUSH4 0xD4F00142 EQ PUSH2 0xA61 JUMPI DUP1 PUSH4 0xD8020A18 EQ PUSH2 0xA43 JUMPI DUP1 PUSH4 0xDCE3DC1F EQ PUSH2 0xA18 JUMPI DUP1 PUSH4 0xDEAB8AEA EQ PUSH2 0x9EF JUMPI DUP1 PUSH4 0xDEC7FA3B EQ PUSH2 0x9D1 JUMPI DUP1 PUSH4 0xE3067449 EQ PUSH2 0x9B3 JUMPI DUP1 PUSH4 0xE4412F68 EQ PUSH2 0x995 JUMPI DUP1 PUSH4 0xECE71266 EQ PUSH2 0x972 JUMPI DUP1 PUSH4 0xEDCA914C EQ PUSH2 0x39E JUMPI PUSH4 0xF2FDE38B EQ PUSH2 0x36F JUMPI POP PUSH2 0xE JUMP JUMPDEST CALLVALUE PUSH2 0x39B JUMPI PUSH1 0x20 CALLDATASIZE PUSH1 0x3 NOT ADD SLT PUSH2 0x39B JUMPI PUSH2 0x398 PUSH2 0x38B PUSH2 0x2C9F JUMP JUMPDEST PUSH2 0x393 PUSH2 0x334E JUMP JUMPDEST PUSH2 0x32EC JUMP JUMPDEST DUP1 RETURN JUMPDEST DUP1 REVERT JUMPDEST POP DUP1 PUSH1 0x3 NOT CALLDATASIZE ADD SLT PUSH2 0x39B JUMPI PUSH2 0x3B2 PUSH2 0x3484 JUMP JUMPDEST PUSH1 0xFF PUSH1 0x1E SLOAD AND PUSH2 0x960 JUMPI PUSH2 0x3C5 CALLER PUSH2 0x3C64 JUMP JUMPDEST PUSH9 0x56BC75E2D63100000 CALLVALUE EQ DUP1 ISZERO PUSH2 0x94E JUMPI JUMPDEST DUP1 ISZERO PUSH2 0x93C JUMPI JUMPDEST DUP1 ISZERO PUSH2 0x92A JUMPI JUMPDEST ISZERO PUSH2 0x918 JUMPI CALLER DUP2 MSTORE PUSH1 0xF PUSH1 0x20 MSTORE PUSH1 0x40 DUP2 KECCAK256 PUSH1 0x3 DUP2 ADD DUP1 SLOAD PUSH1 0xFF AND ISZERO PUSH2 0x85F JUMPI PUSH2 0x410 PUSH1 0x1A SLOAD PUSH2 0x2E69 JUMP JUMPDEST DUP1 PUSH1 0x1A SSTORE DUP3 SSTORE CALLVALUE PUSH1 0x1 DUP4 ADD SSTORE TIMESTAMP PUSH1 0x2 DUP4 ADD SSTORE PUSH1 0xFF NOT DUP2 SLOAD AND SWAP1 SSTORE CALLER DUP3 MSTORE PUSH1 0xE PUSH1 0x20 MSTORE DUP2 PUSH1 0x3 PUSH1 0x40 DUP3 KECCAK256 ADD SSTORE PUSH2 0x444 CALLVALUE PUSH2 0x2EA8 JUMP JUMPDEST CALLER DUP4 MSTORE PUSH1 0xE PUSH1 0x20 MSTORE PUSH1 0x4 PUSH1 0x40 DUP5 KECCAK256 ADD SSTORE JUMPDEST PUSH1 0xA PUSH1 0x1 DUP3 ADD SLOAD CALLER DUP5 MSTORE PUSH1 0xE PUSH1 0x20 MSTORE PUSH1 0x40 DUP5 KECCAK256 SWAP1 PUSH1 0x9 DUP3 ADD DUP1 SLOAD DUP3 GT PUSH2 0x857 JUMPI JUMPDEST POP POP ADD DUP1 SLOAD CALLVALUE GT PUSH2 0x84E JUMPI JUMPDEST POP DUP1 SLOAD DUP3 MSTORE PUSH1 0x14 PUSH1 0x20 SWAP1 DUP2 MSTORE PUSH1 0x40 DUP1 DUP5 KECCAK256 DUP1 SLOAD PUSH1 0x1 PUSH1 0x1 PUSH1 0xA0 SHL SUB NOT AND CALLER SWAP1 DUP2 OR SWAP1 SWAP2 SSTORE DUP4 SLOAD SWAP1 DUP6 MSTORE PUSH1 0xE SWAP1 SWAP3 MSTORE DUP4 KECCAK256 SLOAD PUSH1 0x1 PUSH1 0x1 PUSH1 0xA0 SHL SUB AND DUP1 ISZERO ISZERO DUP1 PUSH2 0x83A JUMPI JUMPDEST ISZERO PUSH2 0x817 JUMPI PUSH2 0x4E2 PUSH1 0x64 PUSH2 0x4DB PUSH1 0x5 SLOAD CALLVALUE PUSH2 0x2EBE JUMP JUMPDEST DIV DUP3 PUSH2 0x3E55 JUMP JUMPDEST SWAP2 DUP3 PUSH2 0x7E3 JUMPI JUMPDEST POP POP POP JUMPDEST CALLER DUP3 MSTORE PUSH1 0xE PUSH1 0x20 MSTORE PUSH1 0x40 DUP3 KECCAK256 SLOAD DUP3 SWAP2 DUP3 SWAP2 PUSH1 0x1 PUSH1 0x1 PUSH1 0xA0 SHL SUB AND SWAP1 DUP3 SWAP1 CALLVALUE DUP1 ISZERO SWAP1 DUP1 DIV PUSH1 0x1 EQ OR ISZERO PUSH2 0x7CF JUMPI SWAP4 SWAP5 SWAP2 JUMPDEST PUSH1 0x1 PUSH1 0x1 PUSH1 0xA0 SHL SUB DUP2 AND ISZERO ISZERO DUP1 PUSH2 0x7C5 JUMPI JUMPDEST DUP1 PUSH2 0x7BB JUMPI JUMPDEST ISZERO PUSH2 0x639 JUMPI PUSH1 0x1 PUSH1 0x1 PUSH1 0xA0 SHL SUB DUP2 AND DUP5 MSTORE PUSH1 0xE PUSH1 0x20 MSTORE PUSH1 0x40 DUP5 KECCAK256 PUSH1 0x5 DUP2 ADD SLOAD PUSH1 0xFF AND ISZERO PUSH2 0x61A JUMPI POP PUSH1 0x1 DUP1 PUSH1 0xA0 SHL SUB DUP2 AND SWAP1 DUP2 DUP6 MSTORE PUSH1 0xE PUSH1 0x20 MSTORE DUP4 PUSH2 0x580 PUSH1 0x1 PUSH1 0x40 DUP9 KECCAK256 ADD SLOAD PUSH2 0x3387 JUMP JUMPDEST GT PUSH2 0x5BA JUMPI JUMPDEST POP DUP4 MSTORE PUSH1 0xE PUSH1 0x20 MSTORE PUSH1 0x40 DUP4 KECCAK256 SLOAD PUSH1 0x1 PUSH1 0x1 PUSH1 0xA0 SHL SUB AND SWAP2 PUSH2 0x5B0 SWAP1 PUSH2 0x5AA SWAP1 PUSH2 0x2E69 JUMP JUMPDEST SWAP6 PUSH2 0x2E69 JUMP JUMPDEST SWAP4 JUMPDEST SWAP4 SWAP5 SWAP2 PUSH2 0x51D JUMP JUMPDEST PUSH2 0x5C8 SWAP1 PUSH1 0x64 CALLVALUE DIV SWAP1 PUSH2 0x3F8E JUMP JUMPDEST DUP1 ISZERO PUSH2 0x586 JUMPI SWAP2 DUP3 PUSH2 0x5D9 SWAP2 PUSH2 0x2E9B JUMP JUMPDEST SWAP2 CALLER DUP6 MSTORE PUSH1 0xF PUSH1 0x20 MSTORE PUSH1 0x40 DUP6 KECCAK256 SLOAD PUSH1 0x40 MLOAD SWAP2 DUP3 MSTORE DUP6 PUSH1 0x20 DUP4 ADD MSTORE PUSH1 0x3 PUSH1 0x40 DUP4 ADD MSTORE PUSH1 0x60 DUP3 ADD MSTORE DUP2 PUSH1 0x0 DUP1 MLOAD PUSH1 0x20 PUSH2 0x4651 DUP4 CODECOPY DUP2 MLOAD SWAP2 MSTORE PUSH1 0x80 CALLER SWAP4 LOG3 CODESIZE PUSH2 0x586 JUMP JUMPDEST SLOAD SWAP3 SWAP6 PUSH1 0x1 PUSH1 0x1 PUSH1 0xA0 SHL SUB SWAP1 SWAP4 AND SWAP3 PUSH2 0x633 SWAP2 POP PUSH2 0x2E69 JUMP JUMPDEST SWAP4 PUSH2 0x5B2 JUMP JUMPDEST DUP4 DUP6 PUSH2 0x653 DUP5 PUSH1 0x64 PUSH2 0x64D PUSH1 0x6 SLOAD CALLVALUE PUSH2 0x2EBE JUMP JUMPDEST DIV PUSH2 0x2E8E JUMP JUMPDEST DUP1 PUSH2 0x7A6 JUMPI JUMPDEST POP PUSH1 0x1 DUP1 PUSH1 0xA0 SHL SUB PUSH1 0x1 SLOAD AND PUSH2 0x680 PUSH1 0x7 SWAP2 PUSH1 0x64 PUSH2 0x679 PUSH1 0x7 SLOAD CALLVALUE PUSH2 0x2EBE JUMP JUMPDEST DIV SWAP1 PUSH2 0x35A3 JUMP JUMPDEST PUSH2 0x697 PUSH1 0x64 PUSH2 0x691 PUSH1 0x8 SLOAD CALLVALUE PUSH2 0x2EBE JUMP JUMPDEST DIV PUSH2 0x43EA JUMP JUMPDEST PUSH2 0x6B3 PUSH1 0x1 DUP1 PUSH1 0xA0 SHL SUB PUSH1 0x3 SLOAD AND PUSH1 0x64 PUSH2 0x679 PUSH1 0x9 SLOAD CALLVALUE PUSH2 0x2EBE JUMP JUMPDEST PUSH2 0x6CF PUSH1 0x1 DUP1 PUSH1 0xA0 SHL SUB PUSH1 0x2 SLOAD AND PUSH1 0x64 PUSH2 0x679 PUSH1 0xA SLOAD CALLVALUE PUSH2 0x2EBE JUMP JUMPDEST CALLER PUSH1 0x0 SWAP1 DUP2 MSTORE PUSH1 0xE PUSH1 0x20 MSTORE PUSH1 0x40 DUP2 KECCAK256 SLOAD SWAP1 SWAP3 CALLVALUE ISZERO ISZERO SWAP3 SWAP2 PUSH1 0x1 PUSH1 0x1 PUSH1 0xA0 SHL SUB AND JUMPDEST PUSH1 0x1 PUSH1 0x1 PUSH1 0xA0 SHL SUB AND DUP1 ISZERO ISZERO DUP1 PUSH2 0x79C JUMPI JUMPDEST ISZERO PUSH2 0x749 JUMPI PUSH1 0x0 MSTORE PUSH1 0xE PUSH1 0x20 MSTORE PUSH2 0x72E DUP4 PUSH1 0x40 PUSH1 0x0 KECCAK256 SWAP1 PUSH2 0x734 JUMPI JUMPDEST SLOAD PUSH1 0x1 PUSH1 0x1 PUSH1 0xA0 SHL SUB AND SWAP5 PUSH2 0x2E69 JUMP JUMPDEST SWAP4 PUSH2 0x6F0 JUMP JUMPDEST DUP4 DUP2 ADD PUSH2 0x742 CALLVALUE DUP3 SLOAD PUSH2 0x2E9B JUMP JUMPDEST SWAP1 SSTORE PUSH2 0x71E JUMP JUMPDEST DUP6 DUP3 PUSH2 0x754 CALLER PUSH2 0x34C1 JUMP JUMPDEST SLOAD PUSH1 0x40 MLOAD SWAP1 CALLVALUE DUP3 MSTORE PUSH1 0x20 DUP3 ADD MSTORE PUSH32 0x2A91574E12AD96234E84923E146B0946ECFB871CD8D5534DC1FDCBE87A7C01B3 PUSH1 0x40 CALLER SWAP3 LOG2 PUSH1 0x1 PUSH1 0x0 DUP1 MLOAD PUSH1 0x20 PUSH2 0x4771 DUP4 CODECOPY DUP2 MLOAD SWAP2 MSTORE SSTORE DUP1 RETURN JUMPDEST POP PUSH1 0x14 DUP6 LT PUSH2 0x702 JUMP JUMPDEST PUSH2 0x7B2 SWAP1 PUSH1 0x1D SLOAD PUSH2 0x2E9B JUMP JUMPDEST PUSH1 0x1D SSTORE DUP3 PUSH2 0x659 JUMP JUMPDEST POP PUSH1 0x14 DUP7 LT PUSH2 0x535 JUMP JUMPDEST POP PUSH1 0xF DUP4 LT PUSH2 0x52F JUMP JUMPDEST PUSH4 0x4E487B71 PUSH1 0xE0 SHL DUP5 MSTORE PUSH1 0x11 PUSH1 0x4 MSTORE PUSH1 0x24 DUP5 REVERT JUMPDEST PUSH1 0x40 MLOAD SWAP3 DUP4 MSTORE DUP5 PUSH1 0x20 DUP5 ADD MSTORE PUSH1 0x2 PUSH1 0x40 DUP5 ADD MSTORE PUSH1 0x60 DUP4 ADD MSTORE PUSH1 0x0 DUP1 MLOAD PUSH1 0x20 PUSH2 0x4651 DUP4 CODECOPY DUP2 MLOAD SWAP2 MSTORE PUSH1 0x80 CALLER SWAP4 LOG3 CODESIZE DUP1 DUP1 PUSH2 0x4E9 JUMP JUMPDEST POP POP PUSH2 0x835 PUSH1 0x1 DUP1 PUSH1 0xA0 SHL SUB PUSH1 0x1 SLOAD AND PUSH1 0x64 PUSH2 0x679 PUSH1 0x5 SLOAD CALLVALUE PUSH2 0x2EBE JUMP JUMPDEST PUSH2 0x4ED JUMP JUMPDEST POP DUP1 DUP5 MSTORE PUSH1 0xFF PUSH1 0x5 PUSH1 0x40 DUP7 KECCAK256 ADD SLOAD AND PUSH2 0x4C5 JUMP JUMPDEST CALLVALUE SWAP1 SSTORE CODESIZE PUSH2 0x482 JUMP JUMPDEST SSTORE CODESIZE DUP1 PUSH2 0x476 JUMP JUMPDEST PUSH1 0x1 DUP3 ADD DUP1 SLOAD DUP1 PUSH2 0x8BC JUMPI POP PUSH2 0x876 PUSH1 0x1A SLOAD PUSH2 0x2E69 JUMP JUMPDEST DUP1 PUSH1 0x1A SSTORE DUP4 SSTORE CALLVALUE SWAP1 SSTORE TIMESTAMP PUSH1 0x2 DUP4 ADD SSTORE PUSH1 0xFF NOT DUP2 SLOAD AND SWAP1 SSTORE CALLER DUP3 MSTORE PUSH1 0xE PUSH1 0x20 MSTORE DUP2 PUSH1 0x3 PUSH1 0x40 DUP3 KECCAK256 ADD SSTORE PUSH2 0x8A7 CALLVALUE PUSH2 0x2EA8 JUMP JUMPDEST CALLER DUP4 MSTORE PUSH1 0xE PUSH1 0x20 MSTORE PUSH1 0x4 PUSH1 0x40 DUP5 KECCAK256 ADD SSTORE PUSH2 0x455 JUMP JUMPDEST PUSH2 0x8C9 SWAP2 SWAP3 POP CALLVALUE SWAP1 PUSH2 0x2E9B JUMP JUMPDEST SWAP1 SSTORE CALLER DUP3 MSTORE PUSH1 0xE PUSH1 0x20 MSTORE PUSH1 0xFF PUSH1 0x5 PUSH1 0x40 DUP5 KECCAK256 ADD SLOAD AND PUSH2 0x90D JUMPI JUMPDEST PUSH2 0x8EC CALLVALUE PUSH2 0x2EA8 JUMP JUMPDEST CALLER DUP4 MSTORE PUSH1 0xE PUSH1 0x20 MSTORE PUSH2 0x906 PUSH1 0x4 PUSH1 0x40 DUP6 KECCAK256 ADD SWAP2 DUP3 SLOAD PUSH2 0x2E9B JUMP JUMPDEST SWAP1 SSTORE PUSH2 0x455 JUMP JUMPDEST TIMESTAMP PUSH1 0x2 DUP3 ADD SSTORE PUSH2 0x8E3 JUMP JUMPDEST PUSH1 0x40 MLOAD PUSH4 0x162908E3 PUSH1 0xE1 SHL DUP2 MSTORE PUSH1 0x4 SWAP1 REVERT JUMPDEST POP PUSH9 0x3635C9ADC5DEA00000 CALLVALUE EQ PUSH2 0x3E6 JUMP JUMPDEST POP PUSH9 0x1B1AE4D6E2EF500000 CALLVALUE EQ PUSH2 0x3DF JUMP JUMPDEST POP PUSH9 0x1043561A8829300000 CALLVALUE EQ PUSH2 0x3D8 JUMP JUMPDEST PUSH1 0x40 MLOAD PUSH4 0xAB35696F PUSH1 0xE0 SHL DUP2 MSTORE PUSH1 0x4 SWAP1 REVERT JUMPDEST POP CALLVALUE PUSH2 0x39B JUMPI PUSH1 0x20 CALLDATASIZE PUSH1 0x3 NOT ADD SLT PUSH2 0x39B JUMPI PUSH2 0x98C PUSH2 0x334E JUMP JUMPDEST PUSH1 0x4 CALLDATALOAD PUSH1 0xB SSTORE DUP1 RETURN JUMPDEST POP CALLVALUE PUSH2 0x39B JUMPI DUP1 PUSH1 0x3 NOT CALLDATASIZE ADD SLT PUSH2 0x39B JUMPI PUSH1 0x20 PUSH1 0x8 SLOAD PUSH1 0x40 MLOAD SWAP1 DUP2 MSTORE RETURN JUMPDEST POP CALLVALUE PUSH2 0x39B JUMPI DUP1 PUSH1 0x3 NOT CALLDATASIZE ADD SLT PUSH2 0x39B JUMPI PUSH1 0x20 PUSH1 0x1C SLOAD PUSH1 0x40 MLOAD SWAP1 DUP2 MSTORE RETURN JUMPDEST POP CALLVALUE PUSH2 0x39B JUMPI DUP1 PUSH1 0x3 NOT CALLDATASIZE ADD SLT PUSH2 0x39B JUMPI PUSH1 0x20 PUSH1 0xB SLOAD PUSH1 0x40 MLOAD SWAP1 DUP2 MSTORE RETURN JUMPDEST POP CALLVALUE PUSH2 0x39B JUMPI DUP1 PUSH1 0x3 NOT CALLDATASIZE ADD SLT PUSH2 0x39B JUMPI PUSH1 0x4 SLOAD PUSH1 0x40 MLOAD PUSH1 0x1 PUSH1 0x1 PUSH1 0xA0 SHL SUB SWAP1 SWAP2 AND DUP2 MSTORE PUSH1 0x20 SWAP1 RETURN JUMPDEST POP CALLVALUE PUSH2 0x39B JUMPI PUSH1 0x20 CALLDATASIZE PUSH1 0x3 NOT ADD SLT PUSH2 0x39B JUMPI PUSH1 0x40 PUSH2 0xA37 PUSH1 0x4 CALLDATALOAD PUSH2 0x33D5 JUMP JUMPDEST DUP3 MLOAD SWAP2 DUP3 MSTORE PUSH1 0x20 DUP3 ADD MSTORE RETURN JUMPDEST POP CALLVALUE PUSH2 0x39B JUMPI DUP1 PUSH1 0x3 NOT CALLDATASIZE ADD SLT PUSH2 0x39B JUMPI PUSH1 0x20 PUSH1 0x7 SLOAD PUSH1 0x40 MLOAD SWAP1 DUP2 MSTORE RETURN JUMPDEST POP CALLVALUE PUSH2 0x39B JUMPI PUSH1 0x80 CALLDATASIZE PUSH1 0x3 NOT ADD SLT PUSH2 0x39B JUMPI PUSH2 0xA7B PUSH2 0x2C9F JUMP JUMPDEST PUSH1 0x24 CALLDATALOAD SWAP1 PUSH2 0xA87 PUSH2 0x2CCB JUMP JUMPDEST SWAP1 PUSH1 0x64 CALLDATALOAD SWAP3 PUSH2 0xA94 PUSH2 0x334E JUMP JUMPDEST DUP1 PUSH2 0xB30 JUMPI JUMPDEST POP POP DUP2 PUSH2 0xAA5 JUMPI DUP3 DUP1 RETURN JUMPDEST DUP2 PUSH1 0x20 SWAP2 PUSH2 0xAB8 PUSH2 0xAE3 SWAP5 PUSH1 0x19 SLOAD PUSH2 0x2E8E JUMP JUMPDEST PUSH1 0x19 SSTORE PUSH1 0x1 DUP1 PUSH1 0xA0 SHL SUB DUP6 SLOAD AND SWAP1 DUP6 PUSH1 0x40 MLOAD DUP1 SWAP7 DUP2 SWAP6 DUP3 SWAP5 PUSH4 0xA9059CBB PUSH1 0xE0 SHL DUP5 MSTORE PUSH1 0x4 DUP5 ADD PUSH2 0x2DEF JUMP JUMPDEST SUB SWAP3 GAS CALL DUP1 ISZERO PUSH2 0xB25 JUMPI PUSH2 0xAF6 JUMPI DUP1 DUP3 DUP1 RETURN JUMPDEST PUSH2 0xB17 SWAP1 PUSH1 0x20 RETURNDATASIZE PUSH1 0x20 GT PUSH2 0xB1E JUMPI JUMPDEST PUSH2 0xB0F DUP2 DUP4 PUSH2 0x2D7F JUMP JUMPDEST DUP2 ADD SWAP1 PUSH2 0x30F5 JUMP JUMPDEST POP CODESIZE DUP1 DUP3 DUP1 RETURN JUMPDEST POP RETURNDATASIZE PUSH2 0xB05 JUMP JUMPDEST PUSH1 0x40 MLOAD RETURNDATASIZE DUP5 DUP3 RETURNDATACOPY RETURNDATASIZE SWAP1 REVERT JUMPDEST DUP1 SELFBALANCE LT PUSH2 0xB56 JUMPI PUSH2 0xB4F SWAP2 PUSH2 0xB47 DUP3 PUSH1 0x18 SLOAD PUSH2 0x2E8E JUMP JUMPDEST PUSH1 0x18 SSTORE PUSH2 0x35A3 JUMP JUMPDEST CODESIZE DUP1 PUSH2 0xA9A JUMP JUMPDEST PUSH1 0x40 MLOAD PUSH4 0xDBC3A71F PUSH1 0xE0 SHL DUP2 MSTORE PUSH1 0x4 SWAP1 REVERT JUMPDEST POP CALLVALUE PUSH2 0x39B JUMPI DUP1 PUSH1 0x3 NOT CALLDATASIZE ADD SLT PUSH2 0x39B JUMPI PUSH1 0x20 PUSH1 0xFF PUSH1 0x17 SLOAD PUSH1 0x8 SHR AND PUSH1 0x40 MLOAD SWAP1 ISZERO ISZERO DUP2 MSTORE RETURN JUMPDEST POP CALLVALUE PUSH2 0x39B JUMPI PUSH1 0x20 SWAP1 DUP2 PUSH1 0x3 NOT CALLDATASIZE ADD SLT PUSH2 0x39B JUMPI PUSH1 0x1 PUSH1 0x1 PUSH1 0xA0 SHL SUB SWAP2 SWAP1 DUP3 PUSH2 0xBB5 PUSH2 0x2C9F JUMP JUMPDEST AND DUP2 MSTORE PUSH1 0x11 DUP3 MSTORE PUSH1 0x40 DUP2 KECCAK256 SWAP1 PUSH1 0x40 MLOAD DUP1 DUP5 DUP5 SLOAD SWAP2 DUP3 DUP2 MSTORE ADD SWAP1 DUP2 SWAP5 DUP5 MSTORE DUP6 DUP5 KECCAK256 SWAP1 DUP5 JUMPDEST DUP2 DUP2 LT PUSH2 0xC27 JUMPI POP POP POP DUP2 PUSH2 0xBEE SWAP2 SUB DUP3 PUSH2 0x2D7F JUMP JUMPDEST PUSH1 0x40 MLOAD SWAP4 DUP1 DUP6 ADD SWAP2 DUP2 DUP7 MSTORE MLOAD DUP1 SWAP3 MSTORE PUSH1 0x40 DUP6 ADD SWAP4 SWAP3 JUMPDEST DUP3 DUP2 LT PUSH2 0xC11 JUMPI DUP6 DUP6 SUB DUP7 RETURN JUMPDEST DUP4 MLOAD DUP8 AND DUP6 MSTORE SWAP4 DUP2 ADD SWAP4 SWAP3 DUP2 ADD SWAP3 PUSH1 0x1 ADD PUSH2 0xC04 JUMP JUMPDEST DUP3 SLOAD DUP10 AND DUP5 MSTORE SWAP3 DUP8 ADD SWAP3 PUSH1 0x1 SWAP3 DUP4 ADD SWAP3 ADD PUSH2 0xBD8 JUMP JUMPDEST POP CALLVALUE PUSH2 0x39B JUMPI PUSH1 0xC0 CALLDATASIZE PUSH1 0x3 NOT ADD SLT PUSH2 0x39B JUMPI PUSH32 0x66682B276E4CD1A4E1F68B55B1143766C5332F472EB593CF2A70A25D9D5D9917 PUSH1 0xC0 PUSH1 0x4 CALLDATALOAD PUSH1 0xA4 CALLDATALOAD PUSH1 0x84 CALLDATALOAD PUSH1 0x64 CALLDATALOAD PUSH1 0x44 CALLDATALOAD PUSH1 0x24 CALLDATALOAD PUSH2 0xC8C PUSH2 0x334E JUMP JUMPDEST DUP6 PUSH1 0x5 SSTORE DUP1 PUSH1 0x6 SSTORE DUP2 PUSH1 0x7 SSTORE DUP3 PUSH1 0x8 SSTORE DUP4 PUSH1 0x9 SSTORE DUP5 PUSH1 0xA SSTORE PUSH1 0x40 MLOAD SWAP6 DUP7 MSTORE PUSH1 0x20 DUP7 ADD MSTORE PUSH1 0x40 DUP6 ADD MSTORE PUSH1 0x60 DUP5 ADD MSTORE PUSH1 0x80 DUP4 ADD MSTORE PUSH1 0xA0 DUP3 ADD MSTORE LOG1 DUP1 RETURN JUMPDEST POP CALLVALUE PUSH2 0x39B JUMPI DUP1 PUSH1 0x3 NOT CALLDATASIZE ADD SLT PUSH2 0x39B JUMPI PUSH1 0x20 PUSH1 0x9 SLOAD PUSH1 0x40 MLOAD SWAP1 DUP2 MSTORE RETURN JUMPDEST POP CALLVALUE PUSH2 0x39B JUMPI PUSH1 0x60 CALLDATASIZE PUSH1 0x3 NOT ADD SLT PUSH2 0x39B JUMPI PUSH2 0xCFF PUSH2 0x2C9F JUMP JUMPDEST PUSH2 0xD07 PUSH2 0x2CB5 JUMP JUMPDEST SWAP1 PUSH2 0xD10 PUSH2 0x334E JUMP JUMPDEST DUP3 SLOAD PUSH1 0x1 PUSH1 0x1 PUSH1 0xA0 SHL SUB SWAP2 DUP3 AND SWAP2 SWAP1 DUP2 AND DUP3 EQ PUSH2 0xD84 JUMPI DUP3 AND ISZERO PUSH2 0xD84 JUMPI PUSH2 0xD56 PUSH1 0x20 SWAP2 DUP5 SWAP4 PUSH1 0x40 MLOAD SWAP5 DUP6 DUP1 SWAP5 DUP2 SWAP4 PUSH4 0xA9059CBB PUSH1 0xE0 SHL DUP4 MSTORE PUSH1 0x44 CALLDATALOAD SWAP1 PUSH1 0x4 DUP5 ADD PUSH2 0x2DEF JUMP JUMPDEST SUB SWAP3 GAS CALL DUP1 ISZERO PUSH2 0xB25 JUMPI PUSH2 0xD68 JUMPI POP DUP1 RETURN JUMPDEST PUSH2 0xD80 SWAP1 PUSH1 0x20 RETURNDATASIZE PUSH1 0x20 GT PUSH2 0xB1E JUMPI PUSH2 0xB0F DUP2 DUP4 PUSH2 0x2D7F JUMP JUMPDEST POP DUP1 RETURN JUMPDEST PUSH1 0x40 MLOAD PUSH4 0xE6C4247B PUSH1 0xE0 SHL DUP2 MSTORE PUSH1 0x4 SWAP1 REVERT JUMPDEST POP CALLVALUE PUSH2 0x39B JUMPI DUP1 PUSH1 0x3 NOT CALLDATASIZE ADD SLT PUSH2 0x39B JUMPI PUSH1 0x20 PUSH1 0x5 SLOAD PUSH1 0x40 MLOAD SWAP1 DUP2 MSTORE RETURN JUMPDEST POP CALLVALUE PUSH2 0x39B JUMPI PUSH1 0x20 CALLDATASIZE PUSH1 0x3 NOT ADD SLT PUSH2 0x39B JUMPI PUSH1 0x20 SWAP1 PUSH1 0x4 CALLDATALOAD DUP2 MSTORE PUSH1 0x14 DUP3 MSTORE PUSH1 0x40 PUSH1 0x1 DUP1 PUSH1 0xA0 SHL SUB SWAP2 KECCAK256 SLOAD AND PUSH1 0x40 MLOAD SWAP1 DUP2 MSTORE RETURN JUMPDEST POP CALLVALUE PUSH2 0x39B JUMPI DUP1 PUSH1 0x3 NOT CALLDATASIZE ADD SLT PUSH2 0x39B JUMPI PUSH2 0xE00 PUSH2 0x3484 JUMP JUMPDEST PUSH1 0xFF PUSH1 0x17 SLOAD PUSH1 0x8 SHR AND ISZERO PUSH2 0x1358 JUMPI CALLER DUP2 MSTORE PUSH1 0x10 PUSH1 0x20 MSTORE PUSH1 0x40 DUP2 KECCAK256 SWAP1 DUP1 DUP1 DUP1 DUP1 JUMPDEST DUP6 SLOAD DUP2 LT ISZERO PUSH2 0x121A JUMPI PUSH1 0xFF PUSH1 0x4 PUSH2 0xE37 DUP4 DUP10 PUSH2 0x2E0A JUMP JUMPDEST POP ADD SLOAD AND ISZERO PUSH2 0x1212 JUMPI PUSH1 0x2 PUSH2 0xE4C DUP3 DUP9 PUSH2 0x2E0A JUMP JUMPDEST POP ADD SLOAD PUSH1 0x3 PUSH2 0xE5B DUP4 DUP10 PUSH2 0x2E0A JUMP JUMPDEST POP ADD SLOAD SWAP1 PUSH3 0x15180 SWAP2 DUP3 DUP2 MUL SWAP3 DUP2 DUP5 DIV EQ SWAP1 ISZERO OR ISZERO PUSH2 0x11FE JUMPI SWAP1 PUSH2 0xE7E SWAP2 PUSH2 0x2E9B JUMP JUMPDEST TIMESTAMP LT ISZERO PUSH2 0xE90 JUMPI JUMPDEST PUSH1 0x1 SWAP1 JUMPDEST ADD PUSH2 0xE20 JUMP JUMPDEST PUSH2 0xF28 PUSH2 0xEB4 PUSH2 0xEAD PUSH2 0xEA7 DUP5 DUP11 SWAP10 SWAP7 SWAP9 SWAP10 PUSH2 0x2E0A JUMP JUMPDEST POP PUSH2 0x35DB JUMP JUMPDEST DUP1 SWAP8 PUSH2 0x2E9B JUMP JUMPDEST SWAP5 PUSH1 0x5 PUSH2 0xEC1 DUP5 DUP11 PUSH2 0x2E0A JUMP JUMPDEST POP ADD PUSH2 0xECE DUP9 DUP3 SLOAD PUSH2 0x2E9B JUMP JUMPDEST SWAP1 SSTORE CALLER DUP6 MSTORE PUSH1 0xE PUSH1 0x20 MSTORE PUSH1 0x9 PUSH1 0x40 DUP7 KECCAK256 ADD SLOAD DUP1 ISZERO PUSH2 0x11EB JUMPI JUMPDEST PUSH2 0xEF6 PUSH1 0x64 SWAP2 PUSH1 0xB SLOAD SWAP1 PUSH2 0x2EBE JUMP JUMPDEST DIV PUSH1 0x1 PUSH2 0xF03 DUP6 DUP12 PUSH2 0x2E0A JUMP JUMPDEST POP ADD SLOAD DUP2 DUP2 GT ISZERO PUSH2 0x11D8 JUMPI SWAP1 PUSH2 0xF1C DUP2 PUSH2 0xF22 SWAP4 PUSH2 0x2E8E JUMP JUMPDEST SWAP3 PUSH2 0x2E9B JUMP JUMPDEST SWAP4 PUSH2 0x2E9B JUMP JUMPDEST SWAP5 PUSH1 0x4 PUSH2 0xF35 DUP4 DUP10 PUSH2 0x2E0A JUMP JUMPDEST POP ADD DUP1 SLOAD PUSH1 0xFF NOT AND SWAP1 SSTORE DUP1 PUSH2 0xF4B JUMPI JUMPDEST POP PUSH2 0xE86 JUMP JUMPDEST SWAP5 PUSH2 0xF5B DUP3 DUP9 SWAP7 SWAP4 SWAP5 SWAP6 SWAP7 PUSH2 0x2E0A JUMP JUMPDEST POP SLOAD CALLER DUP7 MSTORE PUSH1 0xE PUSH1 0x20 MSTORE PUSH1 0x40 DUP7 KECCAK256 SLOAD DUP7 SWAP4 SWAP2 SWAP3 DUP5 SWAP3 SWAP1 SWAP2 PUSH1 0x1 PUSH1 0x1 PUSH1 0xA0 SHL SUB AND JUMPDEST PUSH1 0x1 PUSH1 0x1 PUSH1 0xA0 SHL SUB DUP2 AND ISZERO ISZERO DUP1 PUSH2 0x11CE JUMPI JUMPDEST ISZERO PUSH2 0x11BC JUMPI PUSH1 0x1 PUSH1 0x1 PUSH1 0xA0 SHL SUB DUP2 AND DUP10 MSTORE PUSH1 0xE PUSH1 0x20 MSTORE PUSH1 0x40 DUP10 KECCAK256 PUSH1 0x5 DUP2 ADD SLOAD PUSH1 0xFF AND ISZERO PUSH2 0x11A7 JUMPI POP PUSH1 0x1 PUSH1 0x1 PUSH1 0xA0 SHL SUB DUP2 AND DUP10 MSTORE PUSH1 0xF PUSH1 0x20 MSTORE PUSH1 0x40 DUP10 KECCAK256 PUSH1 0x1 DUP2 ADD SLOAD SWAP1 DUP2 ISZERO SWAP1 DUP2 ISZERO PUSH2 0x1198 JUMPI JUMPDEST POP PUSH2 0x1173 JUMPI PUSH1 0x1 PUSH1 0x1 PUSH1 0xA0 SHL SUB DUP3 AND DUP11 MSTORE PUSH1 0xE PUSH1 0x20 MSTORE PUSH1 0x40 DUP11 KECCAK256 PUSH1 0x2 ADD SLOAD PUSH2 0x1002 SWAP1 PUSH2 0x33D5 JUMP JUMPDEST SWAP2 SWAP1 POP DUP12 DUP9 DUP4 GT PUSH2 0x106B JUMPI JUMPDEST POP POP PUSH1 0x2D GT ISZERO PUSH2 0x1043 JUMPI PUSH1 0x1 PUSH1 0x1 PUSH1 0xA0 SHL SUB SWAP1 DUP2 AND DUP10 MSTORE PUSH1 0xE PUSH1 0x20 MSTORE PUSH1 0x40 DUP10 KECCAK256 SLOAD AND SWAP3 PUSH2 0x103A SWAP1 PUSH2 0x2E69 JUMP JUMPDEST SWAP7 JUMPDEST SWAP7 SWAP3 PUSH2 0xF7C JUMP JUMPDEST POP SWAP7 SWAP6 SWAP5 SWAP3 POP SWAP7 POP POP PUSH1 0x1 SWAP2 POP JUMPDEST PUSH2 0x1065 PUSH2 0x105E DUP3 DUP10 PUSH2 0x2E0A JUMP JUMPDEST POP SLOAD PUSH2 0x36D3 JUMP JUMPDEST SWAP1 PUSH2 0xF45 JUMP JUMPDEST SWAP1 PUSH2 0x108C SWAP2 PUSH2 0x107D DUP5 SWAP11 PUSH1 0x64 SWAP6 PUSH2 0x2E8E JUMP JUMPDEST SWAP2 DUP1 DUP3 GT PUSH2 0x116B JUMPI JUMPDEST POP PUSH2 0x2EBE JUMP JUMPDEST DIV DUP6 DUP11 MSTORE PUSH1 0x13 PUSH1 0x20 MSTORE PUSH1 0x40 DUP11 KECCAK256 PUSH1 0x40 MLOAD SWAP1 PUSH2 0x10A6 DUP3 PUSH2 0x2D64 JUMP JUMPDEST PUSH1 0x1 PUSH1 0x1 PUSH1 0xA0 SHL SUB DUP5 AND DUP3 MSTORE PUSH1 0x20 DUP3 ADD DUP4 SWAP1 MSTORE DUP1 SLOAD SWAP1 PUSH1 0x1 PUSH1 0x40 SHL DUP3 LT ISZERO PUSH2 0x1157 JUMPI SWAP1 PUSH2 0x10D8 SWAP2 PUSH1 0x1 DUP3 ADD DUP2 SSTORE PUSH2 0x2DD3 JUMP JUMPDEST SWAP2 SWAP1 SWAP2 PUSH2 0x1143 JUMPI DUP1 MLOAD DUP3 SLOAD PUSH1 0x1 PUSH1 0x1 PUSH1 0xA0 SHL SUB NOT AND PUSH1 0x1 PUSH1 0x1 PUSH1 0xA0 SHL SUB SWAP2 DUP3 AND OR DUP4 SSTORE PUSH1 0x20 SWAP2 DUP3 ADD MLOAD PUSH1 0x1 SWAP4 SWAP1 SWAP4 ADD SWAP3 SWAP1 SWAP3 SSTORE PUSH1 0x40 MLOAD SWAP3 DUP4 MSTORE SWAP1 DUP4 AND SWAP2 DUP8 SWAP2 PUSH32 0x7C6505AB8279235AD21EBF427336CC8D97C017B4AA1F10FFDFF11D3261E4934E SWAP2 LOG3 DUP6 PUSH1 0x2D DUP12 PUSH2 0x100E JUMP JUMPDEST PUSH4 0x4E487B71 PUSH1 0xE0 SHL DUP13 MSTORE PUSH1 0x4 DUP13 SWAP1 MSTORE PUSH1 0x24 DUP13 REVERT JUMPDEST PUSH4 0x4E487B71 PUSH1 0xE0 SHL DUP14 MSTORE PUSH1 0x41 PUSH1 0x4 MSTORE PUSH1 0x24 DUP14 REVERT JUMPDEST SWAP1 POP CODESIZE PUSH2 0x1086 JUMP JUMPDEST POP POP PUSH1 0xE PUSH1 0x20 MSTORE PUSH1 0x40 DUP9 KECCAK256 SLOAD PUSH1 0x1 PUSH1 0x1 PUSH1 0xA0 SHL SUB AND SWAP3 PUSH2 0x1192 SWAP1 PUSH2 0x2E69 JUMP JUMPDEST SWAP7 PUSH2 0x103C JUMP JUMPDEST PUSH1 0xFF SWAP2 POP PUSH1 0x3 ADD SLOAD AND CODESIZE PUSH2 0xFDB JUMP JUMPDEST SLOAD PUSH1 0x1 PUSH1 0x1 PUSH1 0xA0 SHL SUB AND SWAP4 PUSH2 0x1192 SWAP2 POP PUSH2 0x2E69 JUMP JUMPDEST POP SWAP7 SWAP6 SWAP5 SWAP3 POP SWAP7 POP POP PUSH1 0x1 SWAP2 POP PUSH2 0x1051 JUMP JUMPDEST POP PUSH1 0x14 DUP5 LT PUSH2 0xF8E JUMP JUMPDEST SWAP1 POP PUSH2 0x11E3 SWAP2 PUSH2 0x2E9B JUMP JUMPDEST SWAP3 DUP5 SWAP1 PUSH2 0x2E9B JUMP JUMPDEST POP PUSH1 0xF PUSH1 0x20 MSTORE PUSH1 0x40 DUP6 KECCAK256 PUSH1 0x1 ADD SLOAD PUSH2 0xEE7 JUMP JUMPDEST PUSH4 0x4E487B71 PUSH1 0xE0 SHL DUP6 MSTORE PUSH1 0x11 PUSH1 0x4 MSTORE PUSH1 0x24 DUP6 REVERT JUMPDEST PUSH1 0x1 SWAP1 PUSH2 0xE8A JUMP JUMPDEST POP SWAP1 SWAP3 SWAP2 DUP3 ISZERO SWAP2 DUP3 DUP1 PUSH2 0x1350 JUMPI JUMPDEST PUSH2 0x133E JUMPI DUP1 PUSH2 0x1329 JUMPI JUMPDEST POP DUP1 PUSH2 0x129A JUMPI JUMPDEST POP ISZERO PUSH2 0x128A JUMPI JUMPDEST POP PUSH2 0x124A CALLER PUSH2 0x34C1 JUMP JUMPDEST CALLER DUP2 MSTORE PUSH1 0xE PUSH1 0x20 MSTORE PUSH1 0x40 DUP2 KECCAK256 PUSH1 0x4 PUSH1 0x3 DUP3 ADD SLOAD SWAP2 ADD SLOAD GT ISZERO PUSH2 0x127C JUMPI JUMPDEST PUSH1 0x1 PUSH1 0x0 DUP1 MLOAD PUSH1 0x20 PUSH2 0x4771 DUP4 CODECOPY DUP2 MLOAD SWAP2 MSTORE SSTORE DUP1 RETURN JUMPDEST PUSH2 0x1285 CALLER PUSH2 0x37FE JUMP JUMPDEST PUSH2 0x1267 JUMP JUMPDEST PUSH2 0x1294 SWAP1 CALLER PUSH2 0x35A3 JUMP JUMPDEST DUP2 PUSH2 0x1240 JUMP JUMPDEST CALLER DUP5 MSTORE PUSH1 0xE PUSH1 0x20 MSTORE PUSH2 0x12B9 PUSH1 0x40 DUP6 KECCAK256 PUSH1 0x3 PUSH1 0x4 DUP3 ADD SLOAD SWAP2 ADD SLOAD SWAP1 PUSH2 0x2E8E JUMP JUMPDEST DUP1 DUP3 GT PUSH2 0x1302 JUMPI JUMPDEST POP DUP1 ISZERO PUSH2 0x1239 JUMPI PUSH2 0x12FC SWAP1 CALLER DUP6 MSTORE PUSH1 0xE PUSH1 0x20 MSTORE PUSH1 0x3 PUSH1 0x40 DUP7 KECCAK256 ADD PUSH2 0x12E6 DUP3 DUP3 SLOAD PUSH2 0x2E9B JUMP JUMPDEST SWAP1 SSTORE CALLER DUP6 MSTORE PUSH1 0xF PUSH1 0x20 MSTORE PUSH1 0x40 DUP6 KECCAK256 SLOAD SWAP1 CALLER PUSH2 0x3A79 JUMP JUMPDEST DUP4 PUSH2 0x1239 JUMP JUMPDEST SWAP1 PUSH1 0x40 MLOAD SWAP1 DUP2 MSTORE DUP2 PUSH1 0x20 DUP3 ADD MSTORE PUSH1 0x0 DUP1 MLOAD PUSH1 0x20 PUSH2 0x46D1 DUP4 CODECOPY DUP2 MLOAD SWAP2 MSTORE PUSH1 0x40 CALLER SWAP3 LOG2 DUP5 PUSH2 0x12C1 JUMP JUMPDEST PUSH2 0x1335 SWAP1 PUSH1 0x18 SLOAD PUSH2 0x2E9B JUMP JUMPDEST PUSH1 0x18 SSTORE DUP5 PUSH2 0x1232 JUMP JUMPDEST PUSH1 0x40 MLOAD PUSH4 0x4C4857B PUSH1 0xE5 SHL DUP2 MSTORE PUSH1 0x4 SWAP1 REVERT JUMPDEST POP DUP2 ISZERO PUSH2 0x1228 JUMP JUMPDEST PUSH1 0x40 MLOAD PUSH3 0x82B429 PUSH1 0xE8 SHL DUP2 MSTORE PUSH1 0x4 SWAP1 REVERT JUMPDEST POP CALLVALUE PUSH2 0x39B JUMPI DUP1 PUSH1 0x3 NOT CALLDATASIZE ADD SLT PUSH2 0x39B JUMPI PUSH1 0x20 PUSH1 0x6 SLOAD PUSH1 0x40 MLOAD SWAP1 DUP2 MSTORE RETURN JUMPDEST POP CALLVALUE PUSH2 0x39B JUMPI DUP1 PUSH1 0x3 NOT CALLDATASIZE ADD SLT PUSH2 0x39B JUMPI PUSH1 0x20 PUSH1 0x1D SLOAD PUSH1 0x40 MLOAD SWAP1 DUP2 MSTORE RETURN JUMPDEST POP CALLVALUE PUSH2 0x39B JUMPI PUSH1 0x40 CALLDATASIZE PUSH1 0x3 NOT ADD SLT PUSH2 0x39B JUMPI PUSH2 0x13BF PUSH2 0x2C9F JUMP JUMPDEST PUSH1 0x1 PUSH1 0x1 PUSH1 0xA0 SHL SUB AND DUP2 MSTORE PUSH1 0x10 PUSH1 0x20 MSTORE PUSH1 0x40 DUP2 KECCAK256 DUP1 SLOAD PUSH1 0x24 CALLDATALOAD SWAP3 SWAP1 DUP4 LT ISZERO PUSH2 0x39B JUMPI PUSH1 0xC0 PUSH2 0x13ED DUP5 DUP5 PUSH2 0x2E0A JUMP JUMPDEST POP DUP1 SLOAD SWAP1 PUSH1 0x1 DUP2 ADD SLOAD SWAP1 PUSH1 0x2 DUP2 ADD SLOAD PUSH1 0x3 DUP3 ADD SLOAD SWAP1 PUSH1 0x5 PUSH1 0xFF PUSH1 0x4 DUP6 ADD SLOAD AND SWAP4 ADD SLOAD SWAP4 PUSH1 0x40 MLOAD SWAP6 DUP7 MSTORE PUSH1 0x20 DUP7 ADD MSTORE PUSH1 0x40 DUP6 ADD MSTORE PUSH1 0x60 DUP5 ADD MSTORE ISZERO ISZERO PUSH1 0x80 DUP4 ADD MSTORE PUSH1 0xA0 DUP3 ADD MSTORE RETURN JUMPDEST POP CALLVALUE PUSH2 0x39B JUMPI DUP1 PUSH1 0x3 NOT CALLDATASIZE ADD SLT PUSH2 0x39B JUMPI PUSH1 0x20 PUSH1 0xFF PUSH1 0x17 SLOAD AND PUSH1 0x40 MLOAD SWAP1 ISZERO ISZERO DUP2 MSTORE RETURN JUMPDEST POP CALLVALUE PUSH2 0x39B JUMPI DUP1 PUSH1 0x3 NOT CALLDATASIZE ADD SLT PUSH2 0x39B JUMPI PUSH1 0x40 MLOAD PUSH2 0x1473 DUP2 PUSH2 0x2D64 JUMP JUMPDEST PUSH1 0x5 DUP2 MSTORE PUSH1 0x20 SWAP2 PUSH5 0x352E302E3 PUSH1 0xDC SHL PUSH1 0x20 DUP4 ADD MSTORE PUSH1 0x40 MLOAD SWAP3 DUP4 SWAP2 PUSH1 0x20 DUP4 MSTORE DUP4 MLOAD SWAP2 DUP3 PUSH1 0x20 DUP6 ADD MSTORE DUP2 JUMPDEST DUP4 DUP2 LT PUSH2 0x14BE JUMPI POP POP PUSH1 0x40 DUP1 SWAP5 POP DUP3 DUP5 ADD ADD MSTORE PUSH1 0x1F DUP1 NOT SWAP2 ADD AND DUP2 ADD SUB ADD SWAP1 RETURN JUMPDEST DUP1 DUP7 ADD DUP3 ADD MLOAD DUP8 DUP3 ADD PUSH1 0x40 ADD MSTORE DUP7 SWAP5 POP DUP2 ADD PUSH2 0x149D JUMP JUMPDEST POP CALLVALUE PUSH2 0x39B JUMPI PUSH2 0x14E4 CALLDATASIZE PUSH2 0x2DBD JUMP JUMPDEST SWAP1 DUP3 MSTORE PUSH1 0x13 PUSH1 0x20 MSTORE PUSH1 0x40 DUP3 KECCAK256 DUP1 SLOAD DUP3 LT ISZERO PUSH2 0x1529 JUMPI PUSH2 0x1503 SWAP3 POP PUSH2 0x2DD3 JUMP JUMPDEST POP DUP1 SLOAD PUSH1 0x1 SWAP1 SWAP2 ADD SLOAD PUSH1 0x40 MLOAD SWAP2 DUP3 SWAP2 PUSH2 0x1525 SWAP2 PUSH1 0x1 PUSH1 0x1 PUSH1 0xA0 SHL SUB AND DUP4 PUSH2 0x2DEF JUMP JUMPDEST SUB SWAP1 RETURN JUMPDEST DUP3 DUP1 REVERT JUMPDEST POP CALLVALUE PUSH2 0x39B JUMPI PUSH1 0x40 CALLDATASIZE PUSH1 0x3 NOT ADD SLT PUSH2 0x39B JUMPI PUSH2 0x398 PUSH2 0x154A PUSH2 0x2C9F JUMP JUMPDEST PUSH2 0x1552 PUSH2 0x2CB5 JUMP JUMPDEST SWAP1 PUSH2 0x155B PUSH2 0x334E JUMP JUMPDEST PUSH2 0x314F JUMP JUMPDEST POP CALLVALUE PUSH2 0x39B JUMPI PUSH1 0x20 CALLDATASIZE PUSH1 0x3 NOT ADD SLT PUSH2 0x39B JUMPI PUSH2 0x157A PUSH2 0x334E JUMP JUMPDEST PUSH1 0x4 CALLDATALOAD PUSH1 0x16 SSTORE DUP1 RETURN JUMPDEST POP CALLVALUE PUSH2 0x39B JUMPI PUSH1 0x40 CALLDATASIZE PUSH1 0x3 NOT ADD SLT PUSH2 0x39B JUMPI PUSH2 0x159D PUSH2 0x2C9F JUMP JUMPDEST PUSH1 0x24 CALLDATALOAD SWAP1 PUSH2 0x15A9 PUSH2 0x334E JUMP JUMPDEST DUP2 SELFBALANCE LT PUSH2 0xB56 JUMPI PUSH1 0x20 DUP2 PUSH2 0x15DE DUP5 PUSH32 0x288155DA11D775F8595652C04F862708561D601D9FD3F04F7AED5F8311296E24 SWAP5 PUSH2 0x35A3 JUMP JUMPDEST PUSH1 0x40 MLOAD SWAP4 DUP5 MSTORE PUSH1 0x1 PUSH1 0x1 PUSH1 0xA0 SHL SUB AND SWAP3 LOG2 DUP1 RETURN JUMPDEST POP CALLVALUE PUSH2 0x39B JUMPI DUP1 PUSH1 0x3 NOT CALLDATASIZE ADD SLT PUSH2 0x39B JUMPI PUSH1 0x20 PUSH1 0xD SLOAD PUSH1 0x40 MLOAD SWAP1 DUP2 MSTORE RETURN JUMPDEST POP CALLVALUE PUSH2 0x39B JUMPI PUSH32 0x4E9DD03193A0C81552FB8E6D32280F0D7E0CE8087241DC3D17EF3D193EE231D7 PUSH1 0x40 PUSH2 0x1642 CALLDATASIZE PUSH2 0x2DBD JUMP JUMPDEST PUSH2 0x164A PUSH2 0x334E JUMP JUMPDEST DUP2 PUSH1 0xC SSTORE DUP1 PUSH1 0xD SSTORE DUP3 MLOAD SWAP2 DUP3 MSTORE PUSH1 0x20 DUP3 ADD MSTORE LOG1 DUP1 RETURN JUMPDEST POP CALLVALUE PUSH2 0x39B JUMPI DUP1 PUSH1 0x3 NOT CALLDATASIZE ADD SLT PUSH2 0x39B JUMPI PUSH1 0x0 DUP1 MLOAD PUSH1 0x20 PUSH2 0x4691 DUP4 CODECOPY DUP2 MLOAD SWAP2 MSTORE SLOAD PUSH1 0x40 MLOAD PUSH1 0x1 PUSH1 0x1 PUSH1 0xA0 SHL SUB SWAP1 SWAP2 AND DUP2 MSTORE PUSH1 0x20 SWAP1 RETURN JUMPDEST POP CALLVALUE PUSH2 0x39B JUMPI DUP1 PUSH1 0x3 NOT CALLDATASIZE ADD SLT PUSH2 0x39B JUMPI PUSH1 0x20 PUSH1 0x40 MLOAD PUSH1 0x3 DUP2 MSTORE RETURN JUMPDEST POP CALLVALUE PUSH2 0x39B JUMPI DUP1 PUSH1 0x3 NOT CALLDATASIZE ADD SLT PUSH2 0x39B JUMPI PUSH1 0x20 PUSH1 0x40 MLOAD PUSH1 0x1 DUP2 MSTORE RETURN JUMPDEST POP CALLVALUE PUSH2 0x39B JUMPI DUP1 PUSH1 0x3 NOT CALLDATASIZE ADD SLT PUSH2 0x39B JUMPI PUSH1 0x3 SLOAD PUSH1 0x40 MLOAD PUSH1 0x1 PUSH1 0x1 PUSH1 0xA0 SHL SUB SWAP1 SWAP2 AND DUP2 MSTORE PUSH1 0x20 SWAP1 RETURN JUMPDEST POP CALLVALUE PUSH2 0x39B JUMPI DUP1 PUSH1 0x3 NOT CALLDATASIZE ADD SLT PUSH2 0x39B JUMPI PUSH1 0x20 PUSH1 0x40 MLOAD PUSH1 0x4 DUP2 MSTORE RETURN JUMPDEST POP CALLVALUE PUSH2 0x39B JUMPI PUSH1 0x20 CALLDATASIZE PUSH1 0x3 NOT ADD SLT PUSH2 0x39B JUMPI PUSH1 0x80 SWAP1 PUSH1 0x40 SWAP1 PUSH1 0x1 PUSH1 0x1 PUSH1 0xA0 SHL SUB PUSH2 0x173B PUSH2 0x2C9F JUMP JUMPDEST AND DUP2 MSTORE PUSH1 0xF PUSH1 0x20 MSTORE KECCAK256 DUP1 SLOAD SWAP1 PUSH1 0x1 DUP2 ADD SLOAD SWAP1 PUSH1 0xFF PUSH1 0x3 PUSH1 0x2 DUP4 ADD SLOAD SWAP3 ADD SLOAD AND SWAP2 PUSH1 0x40 MLOAD SWAP4 DUP5 MSTORE PUSH1 0x20 DUP5 ADD MSTORE PUSH1 0x40 DUP4 ADD MSTORE ISZERO ISZERO PUSH1 0x60 DUP3 ADD MSTORE RETURN JUMPDEST POP DUP1 PUSH1 0x3 NOT CALLDATASIZE ADD SLT PUSH2 0x39B JUMPI PUSH2 0x1788 PUSH2 0x3484 JUMP JUMPDEST PUSH1 0xFF PUSH1 0x1E SLOAD AND PUSH2 0x960 JUMPI CALLVALUE ISZERO PUSH2 0x918 JUMPI PUSH1 0x18 SLOAD PUSH9 0x3635C9ADC5DEA00000 DUP1 DUP3 LT SWAP1 DUP2 ISZERO PUSH2 0x19BE JUMPI JUMPDEST POP PUSH2 0x196B JUMPI PUSH1 0x19 SLOAD SWAP1 PUSH2 0x17D6 PUSH2 0x17C6 DUP4 CALLVALUE PUSH2 0x2EBE JUMP JUMPDEST PUSH2 0x17D0 CALLVALUE DUP5 PUSH2 0x2E9B JUMP JUMPDEST SWAP1 PUSH2 0x312F JUMP JUMPDEST PUSH2 0x2710 DUP1 CALLVALUE MUL SWAP1 CALLVALUE DUP3 DIV SUB PUSH2 0x11FE JUMPI PUSH2 0x17F2 DUP4 PUSH2 0x3E8 SWAP3 PUSH2 0x312F JUMP JUMPDEST GT PUSH2 0x918 JUMPI PUSH1 0x64 PUSH2 0x1805 PUSH1 0xC SLOAD DUP4 PUSH2 0x2EBE JUMP JUMPDEST DIV SWAP2 PUSH2 0x1811 DUP4 DUP4 PUSH2 0x2E8E JUMP JUMPDEST DUP6 SLOAD PUSH1 0x40 MLOAD PUSH4 0x70A08231 PUSH1 0xE0 SHL DUP2 MSTORE ADDRESS PUSH1 0x4 DUP3 ADD MSTORE SWAP2 SWAP6 PUSH1 0x20 SWAP5 PUSH1 0x1 PUSH1 0x1 PUSH1 0xA0 SHL SUB SWAP5 SWAP2 SWAP4 SWAP3 DUP6 AND SWAP3 DUP7 DUP2 PUSH1 0x24 DUP2 DUP8 GAS STATICCALL DUP1 ISZERO PUSH2 0x19B3 JUMPI DUP3 SWAP2 DUP12 SWAP2 PUSH2 0x197D JUMPI JUMPDEST POP LT PUSH2 0x196B JUMPI DUP9 SWAP4 PUSH2 0x1867 PUSH2 0x186F SWAP4 CALLVALUE SWAP1 PUSH2 0x2E9B JUMP JUMPDEST PUSH1 0x18 SSTORE PUSH2 0x2E8E JUMP JUMPDEST PUSH1 0x19 SSTORE DUP1 EXTCODESIZE ISZERO PUSH2 0x1967 JUMPI DUP2 DUP1 SWAP2 PUSH1 0x24 PUSH1 0x40 MLOAD DUP1 SWAP5 DUP2 SWAP4 PUSH4 0x852CD8D PUSH1 0xE3 SHL DUP4 MSTORE DUP11 PUSH1 0x4 DUP5 ADD MSTORE GAS CALL DUP1 ISZERO PUSH2 0xB25 JUMPI PUSH2 0x194F JUMPI JUMPDEST POP SLOAD AND SWAP2 DUP2 PUSH1 0x40 MLOAD DUP1 SWAP5 PUSH4 0xA9059CBB PUSH1 0xE0 SHL DUP3 MSTORE DUP2 DUP9 DUP2 PUSH2 0x18C7 DUP11 CALLER PUSH1 0x4 DUP5 ADD PUSH2 0x2DEF JUMP JUMPDEST SUB SWAP3 GAS CALL SWAP2 DUP3 ISZERO PUSH2 0x1944 JUMPI PUSH32 0x36864AEEFCE16BC4AACEEB6B0CDFB2AD1455A8CB4CCB0DB148A2BC6E7166F97C SWAP4 PUSH2 0x190E SWAP4 PUSH2 0x1926 JUMPI JUMPDEST POP POP PUSH1 0x40 MLOAD SWAP2 DUP3 SWAP2 CALLER SWAP6 CALLVALUE DUP5 PUSH2 0x2D25 JUMP JUMPDEST SUB SWAP1 LOG2 PUSH1 0x1 PUSH1 0x0 DUP1 MLOAD PUSH1 0x20 PUSH2 0x4771 DUP4 CODECOPY DUP2 MLOAD SWAP2 MSTORE SSTORE DUP1 RETURN JUMPDEST DUP2 PUSH2 0x193C SWAP3 SWAP1 RETURNDATASIZE LT PUSH2 0xB1E JUMPI PUSH2 0xB0F DUP2 DUP4 PUSH2 0x2D7F JUMP JUMPDEST POP CODESIZE DUP1 PUSH2 0x18FD JUMP JUMPDEST PUSH1 0x40 MLOAD RETURNDATASIZE DUP8 DUP3 RETURNDATACOPY RETURNDATASIZE SWAP1 REVERT JUMPDEST PUSH2 0x1958 SWAP1 PUSH2 0x2D3B JUMP JUMPDEST PUSH2 0x1963 JUMPI DUP5 CODESIZE PUSH2 0x18A2 JUMP JUMPDEST DUP5 DUP1 REVERT JUMPDEST POP DUP1 REVERT JUMPDEST PUSH1 0x40 MLOAD PUSH4 0x43C7AD81 PUSH1 0xE1 SHL DUP2 MSTORE PUSH1 0x4 SWAP1 REVERT JUMPDEST DUP1 SWAP3 POP DUP9 DUP1 SWAP3 POP RETURNDATASIZE DUP4 GT PUSH2 0x19AC JUMPI JUMPDEST PUSH2 0x1996 DUP2 DUP4 PUSH2 0x2D7F JUMP JUMPDEST DUP2 ADD SUB SLT PUSH2 0x19A7 JUMPI DUP2 SWAP1 MLOAD CODESIZE PUSH2 0x1851 JUMP JUMPDEST PUSH1 0x0 DUP1 REVERT JUMPDEST POP RETURNDATASIZE PUSH2 0x198C JUMP JUMPDEST PUSH1 0x40 MLOAD RETURNDATASIZE DUP13 DUP3 RETURNDATACOPY RETURNDATASIZE SWAP1 REVERT JUMPDEST SWAP1 POP PUSH1 0x19 SLOAD LT CODESIZE PUSH2 0x17B0 JUMP JUMPDEST POP CALLVALUE PUSH2 0x39B JUMPI PUSH1 0x80 CALLDATASIZE PUSH1 0x3 NOT ADD SLT PUSH2 0x39B JUMPI PUSH2 0x19E4 PUSH2 0x2C9F JUMP JUMPDEST PUSH2 0x19EC PUSH2 0x2CB5 JUMP JUMPDEST SWAP1 PUSH2 0x19F5 PUSH2 0x2CCB JUMP JUMPDEST SWAP2 PUSH2 0x19FE PUSH2 0x2CE1 JUMP JUMPDEST SWAP1 PUSH2 0x1A07 PUSH2 0x334E JUMP JUMPDEST PUSH1 0x1 PUSH1 0x1 PUSH1 0xA0 SHL SUB SWAP3 DUP4 AND SWAP4 DUP5 ISZERO DUP1 ISZERO PUSH2 0x1A78 JUMPI JUMPDEST DUP1 ISZERO PUSH2 0x1A6E JUMPI JUMPDEST DUP1 ISZERO PUSH2 0x1A64 JUMPI JUMPDEST PUSH2 0xD84 JUMPI DUP4 DUP1 SWAP3 PUSH1 0x1 DUP1 PUSH1 0xA0 SHL SUB NOT SWAP7 DUP8 PUSH1 0x1 SLOAD AND OR PUSH1 0x1 SSTORE AND DUP6 PUSH1 0x2 SLOAD AND OR PUSH1 0x2 SSTORE AND DUP4 PUSH1 0x3 SLOAD AND OR PUSH1 0x3 SSTORE AND SWAP1 PUSH1 0x4 SLOAD AND OR PUSH1 0x4 SSTORE DUP1 RETURN JUMPDEST POP DUP4 DUP4 AND ISZERO PUSH2 0x1A2A JUMP JUMPDEST POP DUP4 DUP2 AND ISZERO PUSH2 0x1A23 JUMP JUMPDEST POP DUP4 DUP3 AND ISZERO PUSH2 0x1A1C JUMP JUMPDEST POP CALLVALUE PUSH2 0x39B JUMPI DUP1 PUSH1 0x3 NOT CALLDATASIZE ADD SLT PUSH2 0x39B JUMPI PUSH1 0x1C SLOAD PUSH3 0x15180 DUP2 ADD DUP1 SWAP2 GT PUSH2 0x1B4B JUMPI TIMESTAMP LT PUSH2 0x1B5F JUMPI PUSH1 0x19 SLOAD DUP1 ISZERO PUSH2 0x918 JUMPI DUP1 DUP1 DIV PUSH1 0x1 SUB PUSH2 0x1B4B JUMPI PUSH1 0x64 DUP2 DIV SWAP1 DUP2 ISZERO PUSH2 0x918 JUMPI DUP2 PUSH2 0x1AD1 SWAP2 PUSH2 0x2E8E JUMP JUMPDEST PUSH1 0x19 SSTORE DUP2 SLOAD DUP3 SWAP1 PUSH1 0x1 PUSH1 0x1 PUSH1 0xA0 SHL SUB AND DUP1 EXTCODESIZE ISZERO PUSH2 0x1967 JUMPI DUP2 DUP1 SWAP2 PUSH1 0x24 PUSH1 0x40 MLOAD DUP1 SWAP5 DUP2 SWAP4 PUSH4 0x852CD8D PUSH1 0xE3 SHL DUP4 MSTORE DUP9 PUSH1 0x4 DUP5 ADD MSTORE GAS CALL DUP1 ISZERO PUSH2 0xB25 JUMPI PUSH2 0x1B37 JUMPI JUMPDEST POP PUSH1 0x0 DUP1 MLOAD PUSH1 0x20 PUSH2 0x4711 DUP4 CODECOPY DUP2 MLOAD SWAP2 MSTORE PUSH1 0x40 DUP4 TIMESTAMP PUSH1 0x1C SSTORE DUP2 MLOAD SWAP1 DUP5 DUP3 MSTORE PUSH1 0x20 DUP3 ADD MSTORE LOG1 DUP1 RETURN JUMPDEST PUSH2 0x1B40 SWAP1 PUSH2 0x2D3B JUMP JUMPDEST PUSH2 0x1967 JUMPI DUP2 CODESIZE PUSH2 0x1B11 JUMP JUMPDEST PUSH4 0x4E487B71 PUSH1 0xE0 SHL DUP3 MSTORE PUSH1 0x11 PUSH1 0x4 MSTORE PUSH1 0x24 DUP3 REVERT JUMPDEST PUSH1 0x40 MLOAD PUSH4 0x6F47A98B PUSH1 0xE1 SHL DUP2 MSTORE PUSH1 0x4 SWAP1 REVERT JUMPDEST POP CALLVALUE PUSH2 0x39B JUMPI PUSH2 0x1B80 CALLDATASIZE PUSH2 0x2DBD JUMP JUMPDEST SWAP1 DUP3 MSTORE PUSH1 0x12 PUSH1 0x20 MSTORE PUSH1 0x40 DUP3 KECCAK256 DUP1 SLOAD DUP3 LT ISZERO PUSH2 0x1529 JUMPI PUSH2 0x1503 SWAP3 POP PUSH2 0x2DD3 JUMP JUMPDEST POP CALLVALUE PUSH2 0x39B JUMPI DUP1 PUSH1 0x3 NOT CALLDATASIZE ADD SLT PUSH2 0x39B JUMPI PUSH1 0x20 PUSH1 0x18 SLOAD PUSH1 0x40 MLOAD SWAP1 DUP2 MSTORE RETURN JUMPDEST POP CALLVALUE PUSH2 0x39B JUMPI DUP1 PUSH1 0x3 NOT CALLDATASIZE ADD SLT PUSH2 0x39B JUMPI PUSH1 0x1 SLOAD PUSH1 0x40 MLOAD PUSH1 0x1 PUSH1 0x1 PUSH1 0xA0 SHL SUB SWAP1 SWAP2 AND DUP2 MSTORE PUSH1 0x20 SWAP1 RETURN JUMPDEST POP CALLVALUE PUSH2 0x39B JUMPI DUP1 PUSH1 0x3 NOT CALLDATASIZE ADD SLT PUSH2 0x39B JUMPI PUSH1 0x20 PUSH1 0x1B SLOAD PUSH1 0x40 MLOAD SWAP1 DUP2 MSTORE RETURN JUMPDEST POP CALLVALUE PUSH2 0x39B JUMPI DUP1 PUSH1 0x3 NOT CALLDATASIZE ADD SLT PUSH2 0x39B JUMPI PUSH2 0x1C1D PUSH2 0x334E JUMP JUMPDEST PUSH1 0x0 DUP1 MLOAD PUSH1 0x20 PUSH2 0x4691 DUP4 CODECOPY DUP2 MLOAD SWAP2 MSTORE DUP1 SLOAD PUSH1 0x1 PUSH1 0x1 PUSH1 0xA0 SHL SUB NOT DUP2 AND SWAP1 SWAP2 SSTORE PUSH1 0x0 SWAP1 PUSH1 0x1 PUSH1 0x1 PUSH1 0xA0 SHL SUB AND PUSH1 0x0 DUP1 MLOAD PUSH1 0x20 PUSH2 0x4731 DUP4 CODECOPY DUP2 MLOAD SWAP2 MSTORE DUP3 DUP1 LOG3 DUP1 RETURN JUMPDEST POP CALLVALUE PUSH2 0x39B JUMPI DUP1 PUSH1 0x3 NOT CALLDATASIZE ADD SLT PUSH2 0x39B JUMPI PUSH1 0x20 PUSH1 0x16 SLOAD PUSH1 0x40 MLOAD SWAP1 DUP2 MSTORE RETURN JUMPDEST POP CALLVALUE PUSH2 0x39B JUMPI DUP1 PUSH1 0x3 NOT CALLDATASIZE ADD SLT PUSH2 0x39B JUMPI PUSH1 0x20 PUSH1 0x1A SLOAD PUSH1 0x40 MLOAD SWAP1 DUP2 MSTORE RETURN JUMPDEST POP CALLVALUE PUSH2 0x39B JUMPI DUP1 PUSH1 0x3 NOT CALLDATASIZE ADD SLT PUSH2 0x39B JUMPI PUSH32 0x0 PUSH1 0x1 PUSH1 0x1 PUSH1 0xA0 SHL SUB AND ADDRESS SUB PUSH2 0x1CF2 JUMPI PUSH1 0x20 PUSH1 0x40 MLOAD PUSH1 0x0 DUP1 MLOAD PUSH1 0x20 PUSH2 0x46B1 DUP4 CODECOPY DUP2 MLOAD SWAP2 MSTORE DUP2 MSTORE RETURN JUMPDEST PUSH1 0x40 MLOAD PUSH4 0x703E46DD PUSH1 0xE1 SHL DUP2 MSTORE PUSH1 0x4 SWAP1 REVERT JUMPDEST POP CALLVALUE PUSH2 0x39B JUMPI PUSH1 0x20 CALLDATASIZE PUSH1 0x3 NOT ADD SLT PUSH2 0x39B JUMPI PUSH1 0x4 CALLDATALOAD PUSH2 0x1D21 PUSH2 0x3484 JUMP JUMPDEST PUSH1 0xFF PUSH1 0x1E SLOAD AND PUSH2 0x960 JUMPI DUP1 ISZERO PUSH2 0x918 JUMPI PUSH9 0x3635C9ADC5DEA00000 DUP1 PUSH1 0x18 SLOAD LT SWAP1 DUP2 ISZERO PUSH2 0x1ED3 JUMPI JUMPDEST POP PUSH2 0x196B JUMPI DUP2 SLOAD PUSH1 0x40 MLOAD PUSH4 0x23B872DD PUSH1 0xE0 SHL DUP2 MSTORE PUSH1 0x1 PUSH1 0x1 PUSH1 0xA0 SHL SUB SWAP2 PUSH1 0x20 SWAP1 DUP3 SWAP1 DUP5 AND DUP2 DUP8 DUP2 PUSH2 0x1D7E DUP10 ADDRESS CALLER PUSH1 0x4 DUP6 ADD PUSH2 0x310D JUMP JUMPDEST SUB SWAP3 GAS CALL DUP1 ISZERO PUSH2 0x1EC8 JUMPI PUSH2 0x1EA9 JUMPI JUMPDEST POP PUSH1 0x64 PUSH2 0x1D9C PUSH1 0xD SLOAD DUP5 PUSH2 0x2EBE JUMP JUMPDEST DIV PUSH2 0x1DA7 DUP2 DUP5 PUSH2 0x2E8E JUMP JUMPDEST SWAP2 PUSH2 0x2710 DUP1 DUP5 MUL SWAP1 DUP5 DUP3 DIV EQ DUP5 ISZERO OR ISZERO PUSH2 0x1E95 JUMPI PUSH2 0x1DCB PUSH2 0x3E8 SWAP2 PUSH1 0x19 SLOAD SWAP1 PUSH2 0x312F JUMP JUMPDEST GT PUSH2 0x918 JUMPI DUP5 SWAP1 DUP2 SLOAD AND DUP1 EXTCODESIZE ISZERO PUSH2 0x1967 JUMPI DUP2 SWAP1 PUSH1 0x24 PUSH1 0x40 MLOAD DUP1 SWAP5 DUP2 SWAP4 PUSH4 0x852CD8D PUSH1 0xE3 SHL DUP4 MSTORE DUP8 PUSH1 0x4 DUP5 ADD MSTORE GAS CALL DUP1 ISZERO PUSH2 0x1944 JUMPI PUSH2 0x1E82 JUMPI JUMPDEST POP PUSH1 0x18 SLOAD SWAP2 PUSH2 0x1E13 DUP4 DUP3 PUSH2 0x2EBE JUMP JUMPDEST PUSH2 0x1E24 PUSH1 0x19 SLOAD SWAP2 PUSH2 0x17D0 DUP5 DUP5 PUSH2 0x2E9B JUMP JUMPDEST SWAP2 DUP3 SELFBALANCE LT PUSH2 0x196B JUMPI PUSH32 0x223C8AD0806F634524940A8595F819C5CFC7B1F4F4F45791269301DF0A7E61D5 SWAP5 PUSH2 0x1E5C DUP5 SWAP3 PUSH2 0x1E64 SWAP5 PUSH2 0x2E9B JUMP JUMPDEST PUSH1 0x19 SSTORE PUSH2 0x2E8E JUMP JUMPDEST PUSH1 0x18 SSTORE PUSH2 0x1E71 DUP2 CALLER PUSH2 0x35A3 JUMP JUMPDEST PUSH2 0x190E PUSH1 0x40 MLOAD SWAP3 DUP4 SWAP3 CALLER SWAP7 DUP5 PUSH2 0x2D25 JUMP JUMPDEST PUSH2 0x1E8E SWAP1 SWAP5 SWAP2 SWAP5 PUSH2 0x2D3B JUMP JUMPDEST SWAP3 CODESIZE PUSH2 0x1E04 JUMP JUMPDEST PUSH4 0x4E487B71 PUSH1 0xE0 SHL DUP7 MSTORE PUSH1 0x11 PUSH1 0x4 MSTORE PUSH1 0x24 DUP7 REVERT JUMPDEST PUSH2 0x1EC1 SWAP1 PUSH1 0x20 RETURNDATASIZE PUSH1 0x20 GT PUSH2 0xB1E JUMPI PUSH2 0xB0F DUP2 DUP4 PUSH2 0x2D7F JUMP JUMPDEST POP CODESIZE PUSH2 0x1D8D JUMP JUMPDEST PUSH1 0x40 MLOAD RETURNDATASIZE DUP7 DUP3 RETURNDATACOPY RETURNDATASIZE SWAP1 REVERT JUMPDEST SWAP1 POP PUSH1 0x19 SLOAD LT CODESIZE PUSH2 0x1D48 JUMP JUMPDEST POP PUSH1 0x20 CALLDATASIZE PUSH1 0x3 NOT ADD SLT PUSH2 0x39B JUMPI PUSH1 0x4 CALLDATALOAD PUSH2 0x1EF7 PUSH2 0x334E JUMP JUMPDEST CALLVALUE PUSH2 0x1FBA JUMPI JUMPDEST DUP1 PUSH2 0x1F24 JUMPI JUMPDEST PUSH1 0x40 PUSH1 0x0 DUP1 MLOAD PUSH1 0x20 PUSH2 0x4631 DUP4 CODECOPY DUP2 MLOAD SWAP2 MSTORE SWAP2 DUP2 MLOAD SWAP1 CALLVALUE DUP3 MSTORE PUSH1 0x20 DUP3 ADD MSTORE LOG1 DUP1 RETURN JUMPDEST DUP2 SLOAD PUSH1 0x40 MLOAD PUSH4 0x23B872DD PUSH1 0xE0 SHL DUP2 MSTORE SWAP2 SWAP1 PUSH1 0x20 SWAP1 DUP4 SWAP1 PUSH1 0x1 PUSH1 0x1 PUSH1 0xA0 SHL SUB AND DUP2 DUP7 DUP2 PUSH2 0x1F55 DUP8 ADDRESS CALLER PUSH1 0x4 DUP6 ADD PUSH2 0x310D JUMP JUMPDEST SUB SWAP3 GAS CALL SWAP1 DUP2 ISZERO PUSH2 0x1FAF JUMPI PUSH1 0x0 DUP1 MLOAD PUSH1 0x20 PUSH2 0x4631 DUP4 CODECOPY DUP2 MLOAD SWAP2 MSTORE SWAP3 PUSH1 0x40 SWAP3 PUSH2 0x1F90 JUMPI JUMPDEST POP PUSH2 0x1F85 DUP2 PUSH1 0x19 SLOAD PUSH2 0x2E9B JUMP JUMPDEST PUSH1 0x19 SSTORE SWAP2 POP POP PUSH2 0x1F03 JUMP JUMPDEST PUSH2 0x1FA8 SWAP1 PUSH1 0x20 RETURNDATASIZE PUSH1 0x20 GT PUSH2 0xB1E JUMPI PUSH2 0xB0F DUP2 DUP4 PUSH2 0x2D7F JUMP JUMPDEST POP CODESIZE PUSH2 0x1F78 JUMP JUMPDEST PUSH1 0x40 MLOAD RETURNDATASIZE DUP6 DUP3 RETURNDATACOPY RETURNDATASIZE SWAP1 REVERT JUMPDEST PUSH2 0x1FC6 CALLVALUE PUSH1 0x18 SLOAD PUSH2 0x2E9B JUMP JUMPDEST PUSH1 0x18 SSTORE PUSH2 0x1EFD JUMP JUMPDEST POP CALLVALUE PUSH2 0x39B JUMPI DUP1 PUSH1 0x3 NOT CALLDATASIZE ADD SLT PUSH2 0x39B JUMPI PUSH2 0x1FE7 PUSH2 0x334E JUMP JUMPDEST PUSH1 0x1 PUSH1 0xFF NOT PUSH1 0x1E SLOAD AND OR PUSH1 0x1E SSTORE PUSH32 0x4CB3183D0BF66F9634B15CFC3539FDDDC96C2C9324848AF89B56586A6739FEC4 DUP2 DUP1 LOG1 DUP1 RETURN JUMPDEST POP PUSH1 0x40 CALLDATASIZE PUSH1 0x3 NOT ADD SLT PUSH2 0x39B JUMPI PUSH2 0x2030 PUSH2 0x2C9F JUMP JUMPDEST PUSH1 0x24 SWAP2 DUP3 CALLDATALOAD PUSH1 0x1 PUSH1 0x1 PUSH1 0x40 SHL SUB DUP2 GT PUSH2 0x1967 JUMPI CALLDATASIZE PUSH1 0x23 DUP3 ADD SLT ISZERO PUSH2 0x1967 JUMPI DUP1 PUSH1 0x4 ADD CALLDATALOAD SWAP3 PUSH2 0x205D DUP5 PUSH2 0x2DA2 JUMP JUMPDEST PUSH2 0x206A PUSH1 0x40 MLOAD SWAP2 DUP3 PUSH2 0x2D7F JUMP JUMPDEST DUP5 DUP2 MSTORE PUSH1 0x20 SWAP5 DUP6 DUP3 ADD SWAP4 CALLDATASIZE DUP9 DUP4 DUP4 ADD ADD GT PUSH2 0x21FF JUMPI DUP2 DUP7 SWAP3 DUP10 DUP10 SWAP4 ADD DUP8 CALLDATACOPY DUP4 ADD ADD MSTORE PUSH1 0x1 PUSH1 0x1 PUSH1 0xA0 SHL SUB PUSH32 0x0 DUP2 AND ADDRESS DUP2 EQ SWAP1 DUP2 ISZERO PUSH2 0x220A JUMPI JUMPDEST POP PUSH2 0x1CF2 JUMPI PUSH2 0x20CF PUSH2 0x334E JUMP JUMPDEST PUSH1 0x40 MLOAD PUSH4 0x52D1902D PUSH1 0xE0 SHL DUP2 MSTORE SWAP1 DUP4 AND SWAP6 DUP1 DUP3 PUSH1 0x4 DUP2 DUP11 GAS STATICCALL SWAP2 DUP3 SWAP2 DUP8 SWAP4 PUSH2 0x21D6 JUMPI JUMPDEST POP POP PUSH2 0x2110 JUMPI PUSH1 0x40 MLOAD PUSH4 0x4C9C8CE3 PUSH1 0xE0 SHL DUP2 MSTORE PUSH1 0x4 DUP2 ADD DUP8 SWAP1 MSTORE DUP8 SWAP1 REVERT JUMPDEST DUP6 SWAP1 DUP8 PUSH1 0x0 DUP1 MLOAD PUSH1 0x20 PUSH2 0x46B1 DUP4 CODECOPY DUP2 MLOAD SWAP2 MSTORE SWAP2 DUP3 DUP2 SUB PUSH2 0x21C1 JUMPI POP DUP5 EXTCODESIZE ISZERO PUSH2 0x21AB JUMPI POP DUP1 SLOAD PUSH1 0x1 PUSH1 0x1 PUSH1 0xA0 SHL SUB NOT AND DUP3 OR SWAP1 SSTORE PUSH1 0x40 MLOAD DUP6 SWAP3 SWAP2 PUSH32 0xBC7CD75A20EE27FD9ADEBAB32041F755214DBC6BFFA90CC0225B39DA2E5C2D3B DUP5 DUP1 LOG2 DUP2 MLOAD ISZERO PUSH2 0x218E JUMPI POP PUSH2 0xD80 SWAP4 DUP3 SWAP2 MLOAD SWAP1 DUP5 GAS DELEGATECALL PUSH2 0x2188 PUSH2 0x3573 JUMP JUMPDEST SWAP2 PUSH2 0x45CD JUMP JUMPDEST SWAP4 POP POP POP POP CALLVALUE PUSH2 0x219C JUMPI POP DUP1 RETURN JUMPDEST PUSH4 0xB398979F PUSH1 0xE0 SHL DUP2 MSTORE PUSH1 0x4 SWAP1 REVERT JUMPDEST PUSH1 0x40 MLOAD PUSH4 0x4C9C8CE3 PUSH1 0xE0 SHL DUP2 MSTORE PUSH1 0x4 DUP2 ADD DUP5 SWAP1 MSTORE REVERT JUMPDEST PUSH1 0x40 MLOAD SWAP1 PUSH4 0x2A875269 PUSH1 0xE2 SHL DUP3 MSTORE PUSH1 0x4 DUP3 ADD MSTORE REVERT JUMPDEST SWAP1 DUP1 SWAP3 SWAP4 POP DUP2 RETURNDATASIZE DUP4 GT PUSH2 0x2203 JUMPI JUMPDEST PUSH2 0x21EE DUP2 DUP4 PUSH2 0x2D7F JUMP JUMPDEST DUP2 ADD SUB SLT PUSH2 0x21FF JUMPI MLOAD SWAP1 CODESIZE DUP1 PUSH2 0x20F2 JUMP JUMPDEST DUP6 DUP1 REVERT JUMPDEST POP RETURNDATASIZE PUSH2 0x21E4 JUMP JUMPDEST SWAP1 POP DUP2 PUSH1 0x0 DUP1 MLOAD PUSH1 0x20 PUSH2 0x46B1 DUP4 CODECOPY DUP2 MLOAD SWAP2 MSTORE SLOAD AND EQ ISZERO CODESIZE PUSH2 0x20C2 JUMP JUMPDEST POP CALLVALUE PUSH2 0x39B JUMPI DUP1 PUSH1 0x3 NOT CALLDATASIZE ADD SLT PUSH2 0x39B JUMPI PUSH2 0x223F PUSH2 0x334E JUMP JUMPDEST PUSH1 0xFF NOT PUSH1 0x1E SLOAD AND PUSH1 0x1E SSTORE PUSH32 0x15DE7AD89D29FD1C6D2E6B1E878453569B4080EDF34E0105FAAA3BD52F018530 DUP2 DUP1 LOG1 DUP1 RETURN JUMPDEST POP CALLVALUE PUSH2 0x39B JUMPI DUP1 PUSH1 0x3 NOT CALLDATASIZE ADD SLT PUSH2 0x39B JUMPI PUSH1 0x20 PUSH1 0x40 MLOAD PUSH3 0x15180 DUP2 MSTORE RETURN JUMPDEST POP CALLVALUE PUSH2 0x39B JUMPI DUP1 PUSH1 0x3 NOT CALLDATASIZE ADD SLT PUSH2 0x39B JUMPI PUSH1 0x2 SLOAD PUSH1 0x40 MLOAD PUSH1 0x1 PUSH1 0x1 PUSH1 0xA0 SHL SUB SWAP1 SWAP2 AND DUP2 MSTORE PUSH1 0x20 SWAP1 RETURN JUMPDEST POP CALLVALUE PUSH2 0x39B JUMPI PUSH1 0x20 CALLDATASIZE PUSH1 0x3 NOT ADD SLT PUSH2 0x39B JUMPI PUSH1 0x20 SWAP1 PUSH1 0x4 CALLDATALOAD DUP2 MSTORE PUSH1 0x15 DUP3 MSTORE PUSH1 0x40 PUSH1 0x1 DUP1 PUSH1 0xA0 SHL SUB SWAP2 KECCAK256 SLOAD AND PUSH1 0x40 MLOAD SWAP1 DUP2 MSTORE RETURN JUMPDEST POP CALLVALUE PUSH2 0x39B JUMPI DUP1 PUSH1 0x3 NOT CALLDATASIZE ADD SLT PUSH2 0x39B JUMPI PUSH2 0x2303 PUSH2 0x3484 JUMP JUMPDEST PUSH2 0x1267 PUSH2 0x2ED1 JUMP JUMPDEST POP PUSH1 0x20 DUP1 PUSH1 0x3 NOT CALLDATASIZE ADD SLT PUSH2 0x1967 JUMPI PUSH1 0x4 CALLDATALOAD PUSH2 0x2324 PUSH2 0x3484 JUMP JUMPDEST PUSH1 0xFF PUSH1 0x1E SLOAD AND PUSH2 0x960 JUMPI CALLER DUP4 MSTORE PUSH1 0xF DUP3 MSTORE PUSH1 0x40 DUP4 KECCAK256 PUSH1 0x1 DUP2 ADD SLOAD SWAP1 DUP2 ISZERO PUSH2 0x25E6 JUMPI PUSH1 0x3 ADD SLOAD PUSH1 0xFF AND PUSH2 0x25D4 JUMPI PUSH1 0x7 DUP3 EQ DUP1 ISZERO PUSH2 0x25CA JUMPI JUMPDEST DUP1 ISZERO PUSH2 0x25C0 JUMPI JUMPDEST ISZERO PUSH2 0x25AE JUMPI CALLVALUE ISZERO PUSH2 0x918 JUMPI CALLER DUP5 MSTORE PUSH1 0xE DUP4 MSTORE PUSH1 0xA PUSH1 0x40 DUP6 KECCAK256 ADD DUP1 SLOAD SWAP2 DUP3 ISZERO PUSH2 0x25A1 JUMPI JUMPDEST POP POP PUSH1 0x96 DUP2 MUL SWAP1 DUP1 DUP3 DIV PUSH1 0x96 EQ SWAP1 ISZERO OR ISZERO PUSH2 0x7CF JUMPI PUSH1 0x64 SWAP1 DIV CALLVALUE SUB PUSH2 0x918 JUMPI PUSH2 0x23AF PUSH1 0x1B SLOAD PUSH2 0x2E69 JUMP JUMPDEST PUSH1 0x1B DUP2 SWAP1 SSTORE CALLER DUP5 MSTORE PUSH1 0x10 DUP4 MSTORE PUSH1 0x40 DUP1 DUP6 KECCAK256 SWAP1 MLOAD SWAP2 PUSH1 0xC0 DUP4 ADD PUSH1 0x1 PUSH1 0x1 PUSH1 0x40 SHL SUB DUP2 GT DUP5 DUP3 LT OR PUSH2 0x258D JUMPI PUSH1 0x40 MSTORE DUP3 MSTORE DUP4 DUP3 ADD CALLVALUE DUP2 MSTORE PUSH1 0x40 DUP4 ADD TIMESTAMP DUP2 MSTORE PUSH1 0x60 DUP5 ADD SWAP1 DUP6 DUP3 MSTORE PUSH1 0x80 DUP6 ADD SWAP3 PUSH1 0x1 DUP5 MSTORE PUSH1 0xA0 DUP7 ADD SWAP5 DUP10 DUP7 MSTORE DUP1 SLOAD SWAP1 PUSH1 0x1 PUSH1 0x40 SHL DUP3 LT ISZERO PUSH2 0x2579 JUMPI SWAP1 PUSH2 0x2423 SWAP2 PUSH1 0x1 DUP3 ADD DUP2 SSTORE PUSH2 0x2E0A JUMP JUMPDEST SWAP7 SWAP1 SWAP7 PUSH2 0x2565 JUMPI SWAP2 PUSH2 0x2462 SWAP4 SWAP2 PUSH1 0x5 SWAP7 SWAP6 SWAP4 MLOAD DUP9 SSTORE MLOAD PUSH1 0x1 DUP9 ADD SSTORE MLOAD PUSH1 0x2 DUP8 ADD SSTORE MLOAD PUSH1 0x3 DUP7 ADD SSTORE MLOAD ISZERO ISZERO PUSH1 0x4 DUP6 ADD SWAP1 PUSH1 0xFF DUP1 NOT DUP4 SLOAD AND SWAP2 ISZERO ISZERO AND OR SWAP1 SSTORE JUMP JUMPDEST MLOAD SWAP2 ADD SSTORE PUSH1 0x1B SLOAD DUP4 MSTORE PUSH1 0x15 DUP3 MSTORE PUSH1 0x40 DUP4 KECCAK256 DUP1 SLOAD PUSH1 0x1 PUSH1 0x1 PUSH1 0xA0 SHL SUB NOT AND CALLER SWAP1 DUP2 OR SWAP1 SWAP2 SSTORE PUSH2 0x248F SWAP1 PUSH2 0x34C1 JUMP JUMPDEST PUSH32 0xA8A1B9E33E503EED12BF7E7C8C01C7F3B60217A496BDDD0F5DB351DD8C056C1C PUSH2 0x24C5 PUSH1 0x1B SLOAD PUSH1 0x40 MLOAD SWAP2 DUP3 SWAP2 CALLER SWAP6 CALLVALUE DUP5 PUSH2 0x2D25 JUMP JUMPDEST SUB SWAP1 LOG2 CALLER DUP3 MSTORE PUSH1 0xE DUP2 MSTORE PUSH1 0x6 PUSH1 0x40 DUP4 KECCAK256 ADD SWAP1 DUP3 DUP3 SLOAD SWAP3 DUP4 PUSH2 0x24F7 JUMPI JUMPDEST POP PUSH1 0x1 PUSH1 0x0 DUP1 MLOAD PUSH1 0x20 PUSH2 0x4771 DUP4 CODECOPY DUP2 MLOAD SWAP2 MSTORE SSTORE DUP1 RETURN JUMPDEST SSTORE PUSH1 0x18 SLOAD SWAP1 DUP3 DUP3 LT ISZERO DUP1 PUSH2 0x255B JUMPI JUMPDEST PUSH2 0x2512 JUMPI JUMPDEST DUP4 SWAP1 PUSH2 0x24E1 JUMP JUMPDEST PUSH2 0x253D DUP4 PUSH32 0x3437B9EA7FA19C6D233DD70CC787A70FAB87CEE64D8BA4571512CC84402748F9 SWAP4 PUSH2 0x2E8E JUMP JUMPDEST PUSH1 0x18 SSTORE PUSH2 0x254A DUP4 CALLER PUSH2 0x35A3 JUMP JUMPDEST PUSH1 0x40 MLOAD SWAP3 DUP4 MSTORE CALLER SWAP3 LOG2 CODESIZE DUP1 DUP1 PUSH2 0x250B JUMP JUMPDEST POP DUP3 SELFBALANCE LT ISZERO PUSH2 0x2506 JUMP JUMPDEST PUSH4 0x4E487B71 PUSH1 0xE0 SHL DUP11 MSTORE PUSH1 0x4 DUP11 SWAP1 MSTORE PUSH1 0x24 DUP11 REVERT JUMPDEST PUSH4 0x4E487B71 PUSH1 0xE0 SHL DUP12 MSTORE PUSH1 0x41 PUSH1 0x4 MSTORE PUSH1 0x24 DUP12 REVERT JUMPDEST PUSH4 0x4E487B71 PUSH1 0xE0 SHL DUP8 MSTORE PUSH1 0x41 PUSH1 0x4 MSTORE PUSH1 0x24 DUP8 REVERT JUMPDEST DUP1 SWAP2 SWAP3 POP SWAP2 SSTORE CODESIZE DUP1 PUSH2 0x2385 JUMP JUMPDEST PUSH1 0x40 MLOAD PUSH4 0x4DC7F5FF PUSH1 0xE1 SHL DUP2 MSTORE PUSH1 0x4 SWAP1 REVERT JUMPDEST POP PUSH1 0x1E DUP3 EQ PUSH2 0x2362 JUMP JUMPDEST POP PUSH1 0xF DUP3 EQ PUSH2 0x235B JUMP JUMPDEST PUSH1 0x40 MLOAD PUSH4 0x1ECB2C4F PUSH1 0xE3 SHL DUP2 MSTORE PUSH1 0x4 SWAP1 REVERT JUMPDEST PUSH1 0x40 MLOAD PUSH4 0x4065AAF1 PUSH1 0xE1 SHL DUP2 MSTORE PUSH1 0x4 SWAP1 REVERT JUMPDEST POP CALLVALUE PUSH2 0x39B JUMPI DUP1 PUSH1 0x3 NOT CALLDATASIZE ADD SLT PUSH2 0x39B JUMPI PUSH1 0x20 PUSH1 0xC SLOAD PUSH1 0x40 MLOAD SWAP1 DUP2 MSTORE RETURN JUMPDEST POP CALLVALUE PUSH2 0x39B JUMPI DUP1 PUSH1 0x3 NOT CALLDATASIZE ADD SLT PUSH2 0x39B JUMPI PUSH1 0x20 PUSH1 0xFF PUSH1 0x1E SLOAD AND PUSH1 0x40 MLOAD SWAP1 ISZERO ISZERO DUP2 MSTORE RETURN JUMPDEST POP CALLVALUE PUSH2 0x39B JUMPI DUP1 PUSH1 0x3 NOT CALLDATASIZE ADD SLT PUSH2 0x39B JUMPI PUSH1 0x1E SLOAD PUSH1 0x40 MLOAD PUSH1 0x8 SWAP2 SWAP1 SWAP2 SHR PUSH1 0x1 PUSH1 0x1 PUSH1 0xA0 SHL SUB AND DUP2 MSTORE PUSH1 0x20 SWAP1 RETURN JUMPDEST POP CALLVALUE PUSH2 0x39B JUMPI PUSH1 0x20 CALLDATASIZE PUSH1 0x3 NOT ADD SLT PUSH2 0x39B JUMPI PUSH2 0x1525 SWAP1 PUSH1 0x2 SWAP1 PUSH1 0x40 SWAP1 PUSH1 0x1 PUSH1 0x1 PUSH1 0xA0 SHL SUB PUSH2 0x2692 PUSH2 0x2C9F JUMP JUMPDEST AND DUP2 MSTORE PUSH1 0xE PUSH1 0x20 MSTORE KECCAK256 ADD SLOAD PUSH2 0x26A6 DUP2 PUSH2 0x33D5 JUMP JUMPDEST SWAP3 SWAP1 SWAP2 PUSH1 0x40 MLOAD SWAP4 DUP5 SWAP4 DUP5 PUSH2 0x2D25 JUMP JUMPDEST POP CALLVALUE PUSH2 0x39B JUMPI DUP1 PUSH1 0x3 NOT CALLDATASIZE ADD SLT PUSH2 0x39B JUMPI PUSH1 0x20 PUSH1 0x19 SLOAD PUSH1 0x40 MLOAD SWAP1 DUP2 MSTORE RETURN JUMPDEST POP CALLVALUE PUSH2 0x39B JUMPI PUSH1 0x20 CALLDATASIZE PUSH1 0x3 NOT ADD SLT PUSH2 0x39B JUMPI PUSH2 0x160 SWAP1 PUSH1 0x1 PUSH1 0x1 PUSH1 0xA0 SHL SUB SWAP1 PUSH1 0x40 SWAP1 DUP3 PUSH2 0x26FE PUSH2 0x2C9F JUMP JUMPDEST AND DUP2 MSTORE PUSH1 0xE PUSH1 0x20 MSTORE KECCAK256 SWAP1 DUP2 SLOAD AND SWAP1 PUSH1 0x1 DUP2 ADD SLOAD SWAP1 PUSH1 0x2 DUP2 ADD SLOAD PUSH1 0x3 DUP3 ADD SLOAD PUSH1 0x4 DUP4 ADD SLOAD PUSH1 0xFF PUSH1 0x5 DUP6 ADD SLOAD AND PUSH1 0x6 DUP6 ADD SLOAD SWAP2 PUSH1 0x7 DUP7 ADD SLOAD SWAP4 PUSH1 0x8 DUP8 ADD SLOAD SWAP6 PUSH1 0xA PUSH1 0x9 DUP10 ADD SLOAD SWAP9 ADD SLOAD SWAP9 PUSH1 0x40 MLOAD SWAP11 DUP12 MSTORE PUSH1 0x20 DUP12 ADD MSTORE PUSH1 0x40 DUP11 ADD MSTORE PUSH1 0x60 DUP10 ADD MSTORE PUSH1 0x80 DUP9 ADD MSTORE ISZERO ISZERO PUSH1 0xA0 DUP8 ADD MSTORE PUSH1 0xC0 DUP7 ADD MSTORE PUSH1 0xE0 DUP6 ADD MSTORE PUSH2 0x100 DUP5 ADD MSTORE PUSH2 0x120 DUP4 ADD MSTORE PUSH2 0x140 DUP3 ADD MSTORE RETURN JUMPDEST POP CALLVALUE PUSH2 0x39B JUMPI PUSH1 0x20 CALLDATASIZE PUSH1 0x3 NOT ADD SLT PUSH2 0x39B JUMPI PUSH1 0x20 PUSH2 0x27A4 PUSH1 0x4 CALLDATALOAD PUSH2 0x3387 JUMP JUMPDEST PUSH1 0x40 MLOAD SWAP1 DUP2 MSTORE RETURN JUMPDEST POP CALLVALUE PUSH2 0x39B JUMPI DUP1 PUSH1 0x3 NOT CALLDATASIZE ADD SLT PUSH2 0x39B JUMPI SLOAD PUSH1 0x40 MLOAD PUSH1 0x1 PUSH1 0x1 PUSH1 0xA0 SHL SUB SWAP1 SWAP2 AND DUP2 MSTORE PUSH1 0x20 SWAP1 RETURN JUMPDEST POP CALLVALUE PUSH2 0x39B JUMPI PUSH1 0xA0 CALLDATASIZE PUSH1 0x3 NOT ADD SLT PUSH2 0x39B JUMPI PUSH2 0x27ED PUSH2 0x2C9F JUMP JUMPDEST PUSH2 0x27F5 PUSH2 0x2CB5 JUMP JUMPDEST SWAP1 PUSH2 0x27FE PUSH2 0x2CCB JUMP JUMPDEST PUSH2 0x2806 PUSH2 0x2CE1 JUMP JUMPDEST SWAP2 PUSH1 0x84 CALLDATALOAD PUSH1 0x1 PUSH1 0x1 PUSH1 0xA0 SHL SUB DUP2 DUP2 AND SWAP3 SWAP2 DUP4 SWAP1 SUB PUSH2 0x29CA JUMPI PUSH1 0x0 DUP1 MLOAD PUSH1 0x20 PUSH2 0x4791 DUP4 CODECOPY DUP2 MLOAD SWAP2 MSTORE SWAP5 DUP6 SLOAD SWAP7 PUSH1 0xFF DUP9 PUSH1 0x40 SHR AND ISZERO SWAP6 PUSH1 0x1 DUP1 PUSH1 0x40 SHL SUB DUP10 AND SWAP9 DUP10 ISZERO DUP1 PUSH2 0x29C3 JUMPI JUMPDEST PUSH1 0x1 DUP1 SWAP12 EQ SWAP1 DUP2 PUSH2 0x29B9 JUMPI JUMPDEST ISZERO SWAP1 DUP2 PUSH2 0x29B0 JUMPI JUMPDEST POP PUSH2 0x299E JUMPI PUSH1 0x1 PUSH1 0x1 PUSH1 0x40 SHL SUB NOT DUP2 AND DUP11 OR DUP10 SSTORE DUP5 SWAP3 DUP4 SWAP2 DUP10 PUSH2 0x2983 JUMPI JUMPDEST POP PUSH2 0x2887 PUSH2 0x3E26 JUMP JUMPDEST PUSH2 0x288F PUSH2 0x3E26 JUMP JUMPDEST PUSH2 0x2898 CALLER PUSH2 0x32EC JUMP JUMPDEST PUSH2 0x28A0 PUSH2 0x3E26 JUMP JUMPDEST PUSH2 0x28A8 PUSH2 0x3E26 JUMP JUMPDEST PUSH2 0x28B0 PUSH2 0x3E26 JUMP JUMPDEST DUP11 PUSH1 0x0 DUP1 MLOAD PUSH1 0x20 PUSH2 0x4771 DUP4 CODECOPY DUP2 MLOAD SWAP2 MSTORE SSTORE DUP2 PUSH1 0x1 DUP1 PUSH1 0xA0 SHL SUB NOT SWAP8 AND DUP8 DUP14 SLOAD AND OR DUP13 SSTORE AND DUP6 DUP11 SLOAD AND OR DUP10 SSTORE AND DUP4 PUSH1 0x2 SLOAD AND OR PUSH1 0x2 SSTORE AND DUP2 PUSH1 0x3 SLOAD AND OR PUSH1 0x3 SSTORE PUSH1 0x4 SLOAD AND OR PUSH1 0x4 SSTORE PUSH1 0x19 PUSH1 0x5 SSTORE PUSH1 0xF PUSH1 0x6 SSTORE PUSH1 0x3 PUSH1 0x7 SSTORE PUSH1 0x2 PUSH1 0x8 SSTORE PUSH1 0x3 PUSH1 0x9 SSTORE PUSH1 0x2 PUSH1 0xA SSTORE PUSH1 0x5 PUSH1 0xB SSTORE PUSH1 0x19 PUSH1 0xC SSTORE PUSH1 0x32 PUSH1 0xD SSTORE PUSH3 0x3F480 PUSH1 0x16 SSTORE PUSH2 0x101 PUSH2 0xFFFF NOT PUSH1 0x17 SLOAD AND OR PUSH1 0x17 SSTORE TIMESTAMP PUSH1 0x1C SSTORE PUSH2 0x2946 JUMPI DUP3 DUP1 RETURN JUMPDEST DUP1 SLOAD PUSH1 0xFF PUSH1 0x40 SHL NOT AND SWAP1 SSTORE PUSH1 0x40 MLOAD SWAP1 DUP2 MSTORE PUSH32 0xC7F505B2F371AE2175EE4913F4499E1F2633A7B5936321EED1CDAEB6115181D2 SWAP1 PUSH1 0x20 SWAP1 LOG1 CODESIZE DUP1 DUP3 DUP1 RETURN JUMPDEST PUSH1 0x1 PUSH1 0x1 PUSH1 0x48 SHL SUB NOT AND PUSH1 0x1 PUSH1 0x1 PUSH1 0x40 SHL ADD OR DUP11 SSTORE CODESIZE PUSH2 0x287E JUMP JUMPDEST PUSH1 0x40 MLOAD PUSH4 0xF92EE8A9 PUSH1 0xE0 SHL DUP2 MSTORE PUSH1 0x4 SWAP1 REVERT JUMPDEST SWAP1 POP ISZERO CODESIZE PUSH2 0x2860 JUMP JUMPDEST ADDRESS EXTCODESIZE ISZERO SWAP2 POP PUSH2 0x2858 JUMP JUMPDEST POP DUP8 PUSH2 0x284C JUMP JUMPDEST DUP7 DUP1 REVERT JUMPDEST POP CALLVALUE PUSH2 0x39B JUMPI DUP1 PUSH1 0x3 NOT CALLDATASIZE ADD SLT PUSH2 0x39B JUMPI PUSH1 0x20 SWAP1 PUSH1 0x40 MLOAD SWAP1 DUP2 MSTORE RETURN JUMPDEST POP CALLVALUE PUSH2 0x39B JUMPI DUP1 PUSH1 0x3 NOT CALLDATASIZE ADD SLT PUSH2 0x39B JUMPI PUSH1 0x20 PUSH1 0x40 MLOAD PUSH1 0x2 DUP2 MSTORE RETURN JUMPDEST POP CALLVALUE PUSH2 0x39B JUMPI PUSH1 0x40 CALLDATASIZE PUSH1 0x3 NOT ADD SLT PUSH2 0x39B JUMPI PUSH2 0x2A20 PUSH2 0x2C9F JUMP JUMPDEST PUSH1 0x1 PUSH1 0x1 PUSH1 0xA0 SHL SUB SWAP1 DUP2 AND DUP3 MSTORE PUSH1 0x11 PUSH1 0x20 MSTORE PUSH1 0x40 DUP3 KECCAK256 DUP1 SLOAD PUSH1 0x24 CALLDATALOAD SWAP4 SWAP1 DUP5 LT ISZERO PUSH2 0x39B JUMPI POP PUSH1 0x20 SWAP3 PUSH2 0x2A51 SWAP2 PUSH2 0x2CF7 JUMP JUMPDEST SWAP2 SWAP1 SLOAD PUSH1 0x40 MLOAD SWAP3 PUSH1 0x3 SHL SHR AND DUP2 MSTORE RETURN JUMPDEST POP CALLVALUE PUSH2 0x39B JUMPI PUSH1 0x20 DUP1 PUSH1 0x3 NOT CALLDATASIZE ADD SLT PUSH2 0x1967 JUMPI PUSH2 0x2A7C PUSH2 0x2C9F JUMP JUMPDEST CALLER DUP4 MSTORE PUSH1 0xE DUP1 DUP4 MSTORE PUSH1 0x40 DUP5 KECCAK256 SLOAD SWAP1 SWAP3 PUSH1 0x1 PUSH1 0x1 PUSH1 0xA0 SHL SUB SWAP3 SWAP1 SWAP2 DUP4 AND PUSH2 0x2C1E JUMPI DUP3 AND CALLER DUP2 EQ PUSH2 0x2C0C JUMPI DUP1 ISZERO PUSH2 0xD84 JUMPI CALLER DUP1 DUP7 MSTORE PUSH1 0xE DUP4 MSTORE PUSH1 0x40 DUP1 DUP8 KECCAK256 DUP1 SLOAD PUSH1 0x1 PUSH1 0x1 PUSH1 0xA0 SHL SUB NOT AND DUP5 OR SWAP1 SSTORE DUP3 DUP8 MSTORE PUSH1 0x11 DUP1 DUP6 MSTORE SWAP1 DUP8 KECCAK256 SWAP1 SWAP2 PUSH2 0x2ADE SWAP2 PUSH2 0x2E26 JUMP JUMPDEST CALLER DUP7 MSTORE PUSH1 0xE DUP4 MSTORE DUP4 PUSH1 0x40 DUP8 KECCAK256 SLOAD AND SWAP5 DUP5 DUP8 SWAP7 JUMPDEST AND DUP1 ISZERO ISZERO DUP1 PUSH2 0x2C02 JUMPI JUMPDEST ISZERO PUSH2 0x2BD8 JUMPI DUP1 DUP9 MSTORE DUP2 DUP6 MSTORE PUSH1 0x40 DUP9 KECCAK256 SWAP1 PUSH1 0x2 DUP3 ADD DUP1 SLOAD PUSH1 0x1 DUP2 ADD SWAP2 DUP3 DUP3 GT PUSH2 0x2BC4 JUMPI SWAP3 DUP3 PUSH2 0x2B61 DUP12 SWAP7 SWAP4 DUP4 PUSH32 0xA0EEA20E678CB42233C1C456C84CEDCE7EA53FA360BB71BF3B761B7609567770 PUSH1 0x40 DUP15 DUP12 SWAP10 PUSH2 0x2B81 SWAP12 SSTORE DUP7 DUP3 MLOAD SWAP2 DUP7 DUP4 MSTORE DUP3 ADD MSTORE LOG2 PUSH2 0x33D5 JUMP JUMPDEST POP PUSH2 0x2B6B DUP3 PUSH2 0x33D5 JUMP JUMPDEST POP SWAP1 DUP1 DUP3 SUB PUSH2 0x2B87 JUMPI JUMPDEST POP POP POP POP SLOAD AND SWAP8 PUSH2 0x2E69 JUMP JUMPDEST SWAP7 PUSH2 0x2AF1 JUMP JUMPDEST PUSH2 0x2BB8 PUSH32 0xEA8384D3CA7BF5B7510D3FAEE44A3774406C1FD3AC14FFF110A8C98D47A25956 SWAP4 PUSH1 0x40 MLOAD SWAP4 DUP5 SWAP4 DUP5 PUSH2 0x2D25 JUMP JUMPDEST SUB SWAP1 LOG2 CODESIZE DUP1 DUP1 DUP1 PUSH2 0x2B75 JUMP JUMPDEST PUSH4 0x4E487B71 PUSH1 0xE0 SHL DUP13 MSTORE PUSH1 0x4 DUP8 SWAP1 MSTORE PUSH1 0x24 DUP13 REVERT JUMPDEST DUP8 DUP5 CALLER PUSH32 0xA6DBB5AA28F35437DE94D685D66EDCE5FB4812196B4984B91DFD5A7B38C0FB30 DUP4 DUP1 LOG3 DUP1 RETURN JUMPDEST POP PUSH1 0x14 DUP8 LT PUSH2 0x2AFB JUMP JUMPDEST PUSH1 0x40 MLOAD PUSH4 0x1ACADE89 PUSH1 0xE3 SHL DUP2 MSTORE PUSH1 0x4 SWAP1 REVERT JUMPDEST PUSH1 0x40 MLOAD PUSH4 0x682A9065 PUSH1 0xE0 SHL DUP2 MSTORE PUSH1 0x4 SWAP1 REVERT JUMPDEST POP CALLVALUE PUSH2 0x39B JUMPI DUP1 PUSH1 0x3 NOT CALLDATASIZE ADD SLT PUSH2 0x39B JUMPI PUSH1 0x20 PUSH1 0xA SLOAD PUSH1 0x40 MLOAD SWAP1 DUP2 MSTORE RETURN JUMPDEST POP CALLVALUE PUSH2 0x39B JUMPI PUSH1 0x40 CALLDATASIZE PUSH1 0x3 NOT ADD SLT PUSH2 0x39B JUMPI PUSH1 0x4 CALLDATALOAD DUP1 ISZERO ISZERO DUP1 SWAP2 SUB PUSH2 0x1967 JUMPI PUSH1 0x24 CALLDATALOAD DUP1 ISZERO ISZERO DUP1 SWAP2 SUB PUSH2 0x1529 JUMPI PUSH2 0x2C82 PUSH2 0x334E JUMP JUMPDEST PUSH1 0xFF PUSH2 0xFF00 PUSH1 0x17 SLOAD SWAP3 PUSH1 0x8 SHL AND SWAP3 AND SWAP1 PUSH2 0xFFFF NOT AND OR OR PUSH1 0x17 SSTORE DUP1 RETURN JUMPDEST PUSH1 0x4 CALLDATALOAD SWAP1 PUSH1 0x1 PUSH1 0x1 PUSH1 0xA0 SHL SUB DUP3 AND DUP3 SUB PUSH2 0x19A7 JUMPI JUMP JUMPDEST PUSH1 0x24 CALLDATALOAD SWAP1 PUSH1 0x1 PUSH1 0x1 PUSH1 0xA0 SHL SUB DUP3 AND DUP3 SUB PUSH2 0x19A7 JUMPI JUMP JUMPDEST PUSH1 0x44 CALLDATALOAD SWAP1 PUSH1 0x1 PUSH1 0x1 PUSH1 0xA0 SHL SUB DUP3 AND DUP3 SUB PUSH2 0x19A7 JUMPI JUMP JUMPDEST PUSH1 0x64 CALLDATALOAD SWAP1 PUSH1 0x1 PUSH1 0x1 PUSH1 0xA0 SHL SUB DUP3 AND DUP3 SUB PUSH2 0x19A7 JUMPI JUMP JUMPDEST DUP1 SLOAD DUP3 LT ISZERO PUSH2 0x2D0F JUMPI PUSH1 0x0 MSTORE PUSH1 0x20 PUSH1 0x0 KECCAK256 ADD SWAP1 PUSH1 0x0 SWAP1 JUMP JUMPDEST PUSH4 0x4E487B71 PUSH1 0xE0 SHL PUSH1 0x0 MSTORE PUSH1 0x32 PUSH1 0x4 MSTORE PUSH1 0x24 PUSH1 0x0 REVERT JUMPDEST PUSH1 0x40 SWAP2 SWAP5 SWAP4 SWAP3 PUSH1 0x60 DUP3 ADD SWAP6 DUP3 MSTORE PUSH1 0x20 DUP3 ADD MSTORE ADD MSTORE JUMP JUMPDEST PUSH1 0x1 PUSH1 0x1 PUSH1 0x40 SHL SUB DUP2 GT PUSH2 0x2D4E JUMPI PUSH1 0x40 MSTORE JUMP JUMPDEST PUSH4 0x4E487B71 PUSH1 0xE0 SHL PUSH1 0x0 MSTORE PUSH1 0x41 PUSH1 0x4 MSTORE PUSH1 0x24 PUSH1 0x0 REVERT JUMPDEST PUSH1 0x40 DUP2 ADD SWAP1 DUP2 LT PUSH1 0x1 PUSH1 0x1 PUSH1 0x40 SHL SUB DUP3 GT OR PUSH2 0x2D4E JUMPI PUSH1 0x40 MSTORE JUMP JUMPDEST PUSH1 0x1F SWAP1 SWAP2 ADD PUSH1 0x1F NOT AND DUP2 ADD SWAP1 PUSH1 0x1 PUSH1 0x1 PUSH1 0x40 SHL SUB DUP3 GT SWAP1 DUP3 LT OR PUSH2 0x2D4E JUMPI PUSH1 0x40 MSTORE JUMP JUMPDEST PUSH1 0x1 PUSH1 0x1 PUSH1 0x40 SHL SUB DUP2 GT PUSH2 0x2D4E JUMPI PUSH1 0x1F ADD PUSH1 0x1F NOT AND PUSH1 0x20 ADD SWAP1 JUMP JUMPDEST PUSH1 0x40 SWAP1 PUSH1 0x3 NOT ADD SLT PUSH2 0x19A7 JUMPI PUSH1 0x4 CALLDATALOAD SWAP1 PUSH1 0x24 CALLDATALOAD SWAP1 JUMP JUMPDEST DUP1 SLOAD DUP3 LT ISZERO PUSH2 0x2D0F JUMPI PUSH1 0x0 MSTORE PUSH1 0x20 PUSH1 0x0 KECCAK256 SWAP1 PUSH1 0x1 SHL ADD SWAP1 PUSH1 0x0 SWAP1 JUMP JUMPDEST PUSH1 0x1 PUSH1 0x1 PUSH1 0xA0 SHL SUB SWAP1 SWAP2 AND DUP2 MSTORE PUSH1 0x20 DUP2 ADD SWAP2 SWAP1 SWAP2 MSTORE PUSH1 0x40 ADD SWAP1 JUMP JUMPDEST DUP1 SLOAD DUP3 LT ISZERO PUSH2 0x2D0F JUMPI PUSH1 0x0 MSTORE PUSH1 0x6 PUSH1 0x20 PUSH1 0x0 KECCAK256 SWAP2 MUL ADD SWAP1 PUSH1 0x0 SWAP1 JUMP JUMPDEST DUP1 SLOAD SWAP2 SWAP1 PUSH1 0x1 PUSH1 0x40 SHL DUP4 LT ISZERO PUSH2 0x2D4E JUMPI DUP3 PUSH2 0x2E49 SWAP2 PUSH1 0x1 PUSH2 0x2E67 SWAP6 ADD DUP2 SSTORE PUSH2 0x2CF7 JUMP JUMPDEST SWAP1 SWAP2 SWAP1 PUSH1 0x1 DUP1 PUSH1 0xA0 SHL SUB DUP1 DUP5 SLOAD SWAP3 PUSH1 0x3 SHL SWAP4 AND DUP4 SHL SWAP3 SHL NOT AND OR SWAP1 SSTORE JUMP JUMPDEST JUMP JUMPDEST PUSH1 0x0 NOT DUP2 EQ PUSH2 0x2E78 JUMPI PUSH1 0x1 ADD SWAP1 JUMP JUMPDEST PUSH4 0x4E487B71 PUSH1 0xE0 SHL PUSH1 0x0 MSTORE PUSH1 0x11 PUSH1 0x4 MSTORE PUSH1 0x24 PUSH1 0x0 REVERT JUMPDEST SWAP2 SWAP1 DUP3 SUB SWAP2 DUP3 GT PUSH2 0x2E78 JUMPI JUMP JUMPDEST SWAP2 SWAP1 DUP3 ADD DUP1 SWAP3 GT PUSH2 0x2E78 JUMPI JUMP JUMPDEST SWAP1 DUP2 PUSH1 0x1 SHL SWAP2 DUP1 DUP4 DIV PUSH1 0x2 EQ SWAP1 ISZERO OR ISZERO PUSH2 0x2E78 JUMPI JUMP JUMPDEST DUP2 DUP2 MUL SWAP3 SWAP2 DUP2 ISZERO SWAP2 DUP5 DIV EQ OR ISZERO PUSH2 0x2E78 JUMPI JUMP JUMPDEST PUSH1 0x0 CALLER DUP2 MSTORE PUSH1 0x20 SWAP1 PUSH1 0xF DUP3 MSTORE PUSH1 0x40 SWAP2 DUP3 DUP3 KECCAK256 SWAP1 PUSH1 0x1 SWAP2 PUSH1 0x1 DUP2 ADD SLOAD ISZERO DUP1 ISZERO PUSH2 0x30E7 JUMPI JUMPDEST PUSH2 0x30D6 JUMPI CALLER DUP5 MSTORE PUSH1 0x10 DUP3 MSTORE DUP5 DUP5 KECCAK256 DUP5 SWAP4 SWAP1 DUP5 DUP3 JUMPDEST PUSH2 0x2FCB JUMPI JUMPDEST POP POP POP DUP3 ISZERO PUSH2 0x2FBA JUMPI CALLER DUP5 MSTORE PUSH1 0xE DUP3 MSTORE PUSH2 0x2F2D DUP4 PUSH1 0x3 DUP8 DUP8 KECCAK256 ADD SLOAD PUSH2 0x2E9B JUMP JUMPDEST CALLER DUP6 MSTORE PUSH1 0xE DUP4 MSTORE DUP6 DUP6 KECCAK256 PUSH1 0x4 DUP2 ADD SLOAD DUP1 SWAP3 GT PUSH2 0x2FA2 JUMPI JUMPDEST POP POP DUP3 ISZERO PUSH2 0x2F94 JUMPI PUSH1 0xE SWAP3 PUSH2 0x2F74 SWAP2 CALLER DUP7 MSTORE DUP5 DUP5 MSTORE PUSH1 0x3 DUP8 DUP8 KECCAK256 ADD PUSH2 0x2F6A DUP4 DUP3 SLOAD PUSH2 0x2E9B JUMP JUMPDEST SWAP1 SSTORE SLOAD SWAP1 CALLER PUSH2 0x3A79 JUMP JUMPDEST CALLER DUP4 MSTORE MSTORE KECCAK256 PUSH1 0x4 PUSH1 0x3 DUP3 ADD SLOAD SWAP2 ADD SLOAD GT ISZERO PUSH2 0x2F8B JUMPI JUMP JUMPDEST PUSH2 0x2E67 CALLER PUSH2 0x37FE JUMP JUMPDEST POP POP POP POP POP PUSH2 0x2E67 CALLER PUSH2 0x37FE JUMP JUMPDEST PUSH2 0x2FB2 SWAP3 SWAP5 POP PUSH1 0x3 ADD SLOAD SWAP1 PUSH2 0x2E8E JUMP JUMPDEST SWAP2 CODESIZE DUP1 PUSH2 0x2F44 JUMP JUMPDEST DUP5 MLOAD PUSH4 0xFEC21FD PUSH1 0xE2 SHL DUP2 MSTORE PUSH1 0x4 SWAP1 REVERT JUMPDEST DUP2 SLOAD DUP2 LT ISZERO PUSH2 0x30D1 JUMPI PUSH2 0x2FDE DUP2 DUP4 PUSH2 0x2E0A JUMP JUMPDEST POP DUP4 PUSH1 0xFF PUSH1 0x4 DUP1 SWAP4 ADD SLOAD AND ISZERO PUSH2 0x30C7 JUMPI POP PUSH2 0x2FFC PUSH2 0xEA7 DUP4 DUP6 PUSH2 0x2E0A JUMP JUMPDEST SWAP1 DUP2 PUSH2 0x3012 JUMPI JUMPDEST POP POP SWAP1 DUP3 DUP1 SWAP3 JUMPDEST ADD SWAP1 SWAP2 PUSH2 0x2F08 JUMP JUMPDEST SWAP1 SWAP7 DUP8 PUSH2 0x301E SWAP2 PUSH2 0x2E9B JUMP JUMPDEST SWAP7 PUSH2 0x3038 PUSH1 0x5 PUSH2 0x302E DUP6 DUP8 PUSH2 0x2E0A JUMP JUMPDEST POP ADD SWAP2 DUP3 SLOAD PUSH2 0x2E9B JUMP JUMPDEST SWAP1 SSTORE PUSH1 0x2 PUSH2 0x3046 DUP4 DUP6 PUSH2 0x2E0A JUMP JUMPDEST POP ADD SLOAD PUSH1 0x3 PUSH2 0x3055 DUP5 DUP7 PUSH2 0x2E0A JUMP JUMPDEST POP ADD SLOAD SWAP1 PUSH3 0x15180 SWAP2 DUP3 DUP2 MUL SWAP3 DUP2 DUP5 DIV EQ SWAP1 ISZERO OR ISZERO PUSH2 0x30B4 JUMPI SWAP2 PUSH2 0x307D DUP7 SWAP6 SWAP5 SWAP3 DUP7 SWAP5 PUSH2 0x2E9B JUMP JUMPDEST TIMESTAMP LT ISZERO PUSH2 0x308D JUMPI JUMPDEST POP SWAP2 SWAP3 PUSH2 0x3003 JUMP JUMPDEST PUSH2 0x3097 DUP3 DUP6 PUSH2 0x2E0A JUMP JUMPDEST POP ADD DUP1 SLOAD PUSH1 0xFF NOT AND SWAP1 SSTORE PUSH2 0x30AE PUSH2 0x105E DUP3 DUP6 PUSH2 0x2E0A JUMP JUMPDEST CODESIZE PUSH2 0x3085 JUMP JUMPDEST PUSH4 0x4E487B71 PUSH1 0xE0 SHL DUP11 MSTORE PUSH1 0x11 DUP4 MSTORE PUSH1 0x24 DUP11 REVERT JUMPDEST SWAP3 SWAP2 DUP4 SWAP2 POP PUSH2 0x300A JUMP JUMPDEST PUSH2 0x2F0D JUMP JUMPDEST DUP5 MLOAD PUSH4 0x4065AAF1 PUSH1 0xE1 SHL DUP2 MSTORE PUSH1 0x4 SWAP1 REVERT JUMPDEST POP PUSH1 0xFF PUSH1 0x3 DUP3 ADD SLOAD AND PUSH2 0x2EF4 JUMP JUMPDEST SWAP1 DUP2 PUSH1 0x20 SWAP2 SUB SLT PUSH2 0x19A7 JUMPI MLOAD DUP1 ISZERO ISZERO DUP2 SUB PUSH2 0x19A7 JUMPI SWAP1 JUMP JUMPDEST PUSH1 0x1 PUSH1 0x1 PUSH1 0xA0 SHL SUB SWAP2 DUP3 AND DUP2 MSTORE SWAP2 AND PUSH1 0x20 DUP3 ADD MSTORE PUSH1 0x40 DUP2 ADD SWAP2 SWAP1 SWAP2 MSTORE PUSH1 0x60 ADD SWAP1 JUMP JUMPDEST DUP2 ISZERO PUSH2 0x3139 JUMPI DIV SWAP1 JUMP JUMPDEST PUSH4 0x4E487B71 PUSH1 0xE0 SHL PUSH1 0x0 MSTORE PUSH1 0x12 PUSH1 0x4 MSTORE PUSH1 0x24 PUSH1 0x0 REVERT JUMPDEST SWAP1 PUSH1 0x1 PUSH1 0x1 PUSH1 0xA0 SHL SUB DUP1 DUP4 AND SWAP2 DUP3 ISZERO DUP1 ISZERO PUSH2 0x32E2 JUMPI JUMPDEST PUSH2 0xD84 JUMPI DUP2 AND SWAP2 DUP3 DUP2 EQ PUSH2 0x2C0C JUMPI PUSH1 0x0 DUP2 DUP2 MSTORE PUSH1 0xE PUSH1 0x20 MSTORE PUSH1 0x40 DUP2 KECCAK256 SWAP3 DUP4 SLOAD SWAP4 DUP2 DUP6 AND SWAP5 DUP7 DUP7 EQ PUSH2 0x32D8 JUMPI PUSH1 0x1 PUSH1 0x1 PUSH1 0xA0 SHL SUB NOT AND DUP7 OR SWAP1 SSTORE DUP4 PUSH2 0x31D0 JUMPI JUMPDEST POP PUSH2 0x31CC DUP5 SWAP6 PUSH1 0x0 DUP1 MLOAD PUSH1 0x20 PUSH2 0x46F1 DUP4 CODECOPY DUP2 MLOAD SWAP2 MSTORE SWAP4 SWAP5 SWAP6 DUP4 MSTORE PUSH1 0x11 PUSH1 0x20 MSTORE PUSH1 0x40 DUP4 KECCAK256 PUSH2 0x2E26 JUMP JUMPDEST DUP1 LOG4 JUMP JUMPDEST SWAP5 DUP4 DUP3 MSTORE PUSH1 0x11 SWAP6 PUSH1 0x11 PUSH1 0x20 MSTORE PUSH1 0x40 DUP4 KECCAK256 DUP4 JUMPDEST DUP2 SLOAD DUP1 DUP3 LT ISZERO PUSH2 0x32B7 JUMPI DUP4 SWAP1 DUP8 PUSH2 0x31F9 DUP5 DUP7 PUSH2 0x2CF7 JUMP JUMPDEST SWAP4 SWAP1 SLOAD PUSH1 0x3 SWAP5 DUP6 SHL SHR AND EQ PUSH2 0x3212 JUMPI POP POP PUSH1 0x1 ADD PUSH2 0x31E2 JUMP JUMPDEST PUSH1 0x0 SWAP11 SWAP3 SWAP2 SWAP6 SWAP7 SWAP8 SWAP9 SWAP10 SWAP11 SWAP5 SWAP4 SWAP5 NOT SWAP3 DUP4 DUP3 ADD SWAP2 DUP3 GT PUSH2 0x32A5 JUMPI POP SWAP1 PUSH2 0x2E49 DUP5 PUSH2 0x323F PUSH2 0x324D SWAP5 DUP9 PUSH2 0x2CF7 JUMP JUMPDEST SWAP1 SLOAD SWAP1 DUP10 SHL SHR AND SWAP2 DUP7 PUSH2 0x2CF7 JUMP JUMPDEST DUP3 SLOAD DUP1 ISZERO PUSH2 0x3291 JUMPI SWAP2 PUSH1 0x0 DUP1 MLOAD PUSH1 0x20 PUSH2 0x46F1 DUP4 CODECOPY DUP2 MLOAD SWAP2 MSTORE SWAP7 SWAP6 SWAP4 SWAP2 PUSH2 0x31CC SWAP6 SWAP4 ADD SWAP3 PUSH2 0x327A DUP5 DUP5 PUSH2 0x2CF7 JUMP JUMPDEST DUP2 SWAP4 SWAP2 SLOAD SWAP3 SHL SHL NOT AND SWAP1 SSTORE SSTORE JUMPDEST SWAP6 SWAP5 SWAP4 SWAP3 POP PUSH2 0x31A4 JUMP JUMPDEST PUSH4 0x4E487B71 PUSH1 0xE0 SHL DUP8 MSTORE PUSH1 0x31 PUSH1 0x4 MSTORE PUSH1 0x24 DUP8 REVERT JUMPDEST PUSH4 0x4E487B71 PUSH1 0xE0 SHL DUP10 MSTORE PUSH1 0x4 MSTORE PUSH1 0x24 DUP9 REVERT JUMPDEST POP POP POP POP PUSH1 0x0 DUP1 MLOAD PUSH1 0x20 PUSH2 0x46F1 DUP4 CODECOPY DUP2 MLOAD SWAP2 MSTORE SWAP3 SWAP4 SWAP5 SWAP6 POP PUSH2 0x31CC SWAP1 PUSH2 0x3287 JUMP JUMPDEST POP POP POP POP POP POP POP POP JUMP JUMPDEST POP DUP2 DUP2 AND ISZERO PUSH2 0x3165 JUMP JUMPDEST PUSH1 0x1 PUSH1 0x1 PUSH1 0xA0 SHL SUB SWAP1 DUP2 AND SWAP1 DUP2 ISZERO PUSH2 0x3335 JUMPI PUSH1 0x0 DUP1 MLOAD PUSH1 0x20 PUSH2 0x4691 DUP4 CODECOPY DUP2 MLOAD SWAP2 MSTORE DUP1 SLOAD PUSH1 0x1 PUSH1 0x1 PUSH1 0xA0 SHL SUB NOT DUP2 AND DUP5 OR SWAP1 SWAP2 SSTORE AND PUSH1 0x0 DUP1 MLOAD PUSH1 0x20 PUSH2 0x4731 DUP4 CODECOPY DUP2 MLOAD SWAP2 MSTORE PUSH1 0x0 DUP1 LOG3 JUMP JUMPDEST PUSH1 0x40 MLOAD PUSH4 0x1E4FBDF7 PUSH1 0xE0 SHL DUP2 MSTORE PUSH1 0x0 PUSH1 0x4 DUP3 ADD MSTORE PUSH1 0x24 SWAP1 REVERT JUMPDEST PUSH1 0x0 DUP1 MLOAD PUSH1 0x20 PUSH2 0x4691 DUP4 CODECOPY DUP2 MLOAD SWAP2 MSTORE SLOAD PUSH1 0x1 PUSH1 0x1 PUSH1 0xA0 SHL SUB AND CALLER SUB PUSH2 0x336F JUMPI JUMP JUMPDEST PUSH1 0x40 MLOAD PUSH4 0x118CDAA7 PUSH1 0xE0 SHL DUP2 MSTORE CALLER PUSH1 0x4 DUP3 ADD MSTORE PUSH1 0x24 SWAP1 REVERT JUMPDEST PUSH1 0xF DUP2 LT ISZERO PUSH2 0x33CF JUMPI PUSH1 0xA DUP2 LT ISZERO PUSH2 0x33C9 JUMPI PUSH1 0x5 DUP2 LT ISZERO PUSH2 0x33C3 JUMPI PUSH1 0x3 DUP2 LT ISZERO PUSH2 0x33BD JUMPI PUSH1 0x1 GT ISZERO PUSH2 0x33B8 JUMPI PUSH1 0x0 SWAP1 JUMP JUMPDEST PUSH1 0x1 SWAP1 JUMP JUMPDEST POP PUSH1 0x3 SWAP1 JUMP JUMPDEST POP PUSH1 0x5 SWAP1 JUMP JUMPDEST POP PUSH1 0xA SWAP1 JUMP JUMPDEST POP PUSH1 0xF SWAP1 JUMP JUMPDEST PUSH3 0x186A0 DUP2 LT ISZERO PUSH2 0x347B JUMPI PUSH2 0x7530 DUP2 LT ISZERO PUSH2 0x3472 JUMPI PUSH2 0x2710 DUP2 LT ISZERO PUSH2 0x3469 JUMPI PUSH2 0xBB8 DUP2 LT ISZERO PUSH2 0x3460 JUMPI PUSH2 0x3E8 DUP2 LT ISZERO PUSH2 0x3457 JUMPI PUSH2 0x12C DUP2 LT ISZERO PUSH2 0x344E JUMPI PUSH1 0x64 DUP2 LT ISZERO PUSH2 0x3445 JUMPI PUSH1 0x1E DUP2 LT ISZERO PUSH2 0x343C JUMPI PUSH1 0xA GT ISZERO PUSH2 0x3434 JUMPI PUSH1 0x0 SWAP1 PUSH1 0x0 SWAP1 JUMP JUMPDEST PUSH1 0x1 SWAP1 PUSH1 0x5 SWAP1 JUMP JUMPDEST POP PUSH1 0x2 SWAP1 PUSH1 0xA SWAP1 JUMP JUMPDEST POP PUSH1 0x3 SWAP1 PUSH1 0xF SWAP1 JUMP JUMPDEST POP PUSH1 0x4 SWAP1 PUSH1 0x14 SWAP1 JUMP JUMPDEST POP PUSH1 0x5 SWAP1 PUSH1 0x19 SWAP1 JUMP JUMPDEST POP PUSH1 0x6 SWAP1 PUSH1 0x1E SWAP1 JUMP JUMPDEST POP PUSH1 0x7 SWAP1 PUSH1 0x23 SWAP1 JUMP JUMPDEST POP PUSH1 0x8 SWAP1 PUSH1 0x28 SWAP1 JUMP JUMPDEST POP PUSH1 0x9 SWAP1 PUSH1 0x2D SWAP1 JUMP JUMPDEST PUSH1 0x0 DUP1 MLOAD PUSH1 0x20 PUSH2 0x4771 DUP4 CODECOPY DUP2 MLOAD SWAP2 MSTORE PUSH1 0x2 DUP2 SLOAD EQ PUSH2 0x34A2 JUMPI PUSH1 0x2 SWAP1 SSTORE JUMP JUMPDEST PUSH1 0x40 MLOAD PUSH4 0x3EE5AEB5 PUSH1 0xE0 SHL DUP2 MSTORE PUSH1 0x4 SWAP1 REVERT JUMPDEST DUP1 ISZERO PUSH2 0x2E78 JUMPI PUSH1 0x0 NOT ADD SWAP1 JUMP JUMPDEST PUSH1 0x1 DUP1 PUSH1 0xA0 SHL SUB DUP1 PUSH1 0x0 SWAP3 AND DUP3 MSTORE PUSH1 0xF PUSH1 0x20 MSTORE PUSH1 0x40 DUP3 KECCAK256 SWAP1 PUSH1 0x1 DUP3 ADD SLOAD ISZERO ISZERO SWAP2 DUP3 PUSH2 0x3563 JUMPI JUMPDEST POP PUSH1 0xE PUSH1 0x20 MSTORE PUSH1 0x40 DUP4 KECCAK256 PUSH1 0x5 DUP2 ADD PUSH1 0xFF DUP2 SLOAD AND ISZERO ISZERO DUP5 ISZERO ISZERO EQ PUSH2 0x355C JUMPI DUP1 SLOAD PUSH1 0xFF NOT AND PUSH1 0xFF DUP6 ISZERO ISZERO AND OR SWAP1 SSTORE SLOAD AND SWAP2 DUP3 ISZERO PUSH2 0x3557 JUMPI PUSH1 0x1 SWAP3 PUSH1 0x40 SWAP3 ISZERO PUSH2 0x353E JUMPI DUP2 MSTORE PUSH1 0xE PUSH1 0x20 MSTORE KECCAK256 ADD PUSH2 0x353A DUP2 SLOAD PUSH2 0x2E69 JUMP JUMPDEST SWAP1 SSTORE JUMP JUMPDEST DUP2 MSTORE KECCAK256 ADD DUP1 SLOAD DUP1 PUSH2 0x354E JUMPI JUMPDEST POP POP JUMP JUMPDEST PUSH2 0x353A SWAP1 PUSH2 0x34B4 JUMP JUMPDEST POP POP POP JUMP JUMPDEST POP POP POP POP POP JUMP JUMPDEST PUSH1 0x3 ADD SLOAD PUSH1 0xFF AND ISZERO SWAP2 POP CODESIZE PUSH2 0x34E7 JUMP JUMPDEST RETURNDATASIZE ISZERO PUSH2 0x359E JUMPI RETURNDATASIZE SWAP1 PUSH2 0x3584 DUP3 PUSH2 0x2DA2 JUMP JUMPDEST SWAP2 PUSH2 0x3592 PUSH1 0x40 MLOAD SWAP4 DUP5 PUSH2 0x2D7F JUMP JUMPDEST DUP3 MSTORE RETURNDATASIZE PUSH1 0x0 PUSH1 0x20 DUP5 ADD RETURNDATACOPY JUMP JUMPDEST PUSH1 0x60 SWAP1 JUMP JUMPDEST DUP2 ISZERO PUSH2 0x354A JUMPI DUP2 SELFBALANCE LT PUSH2 0xB56 JUMPI PUSH1 0x0 DUP1 DUP1 SWAP4 DUP2 SWAP4 GAS CALL PUSH2 0x35C1 PUSH2 0x3573 JUMP JUMPDEST POP ISZERO PUSH2 0x35C9 JUMPI JUMP JUMPDEST PUSH1 0x40 MLOAD PUSH4 0x3D2CEC6F PUSH1 0xE2 SHL DUP2 MSTORE PUSH1 0x4 SWAP1 REVERT JUMPDEST PUSH1 0x3 DUP2 ADD SLOAD PUSH2 0x35E9 DUP2 PUSH2 0x4599 JUMP JUMPDEST SWAP1 PUSH3 0x15180 PUSH2 0x35FC PUSH1 0x2 DUP6 ADD SLOAD TIMESTAMP PUSH2 0x2E8E JUMP JUMPDEST DIV SWAP1 DUP1 DUP3 GT PUSH2 0x3651 JUMPI JUMPDEST POP DUP1 ISZERO PUSH2 0x3649 JUMPI PUSH2 0x362B PUSH4 0x3B9ACA00 SWAP2 PUSH2 0x3626 PUSH1 0x5 SWAP5 PUSH1 0x1 DUP8 ADD SLOAD PUSH2 0x2EBE JUMP JUMPDEST PUSH2 0x2EBE JUMP JUMPDEST DIV SWAP2 ADD SLOAD DUP1 DUP3 GT PUSH2 0x363D JUMPI POP POP PUSH1 0x0 SWAP1 JUMP JUMPDEST PUSH2 0x3646 SWAP2 PUSH2 0x2E8E JUMP JUMPDEST SWAP1 JUMP JUMPDEST POP POP POP PUSH1 0x0 SWAP1 JUMP JUMPDEST SWAP1 POP CODESIZE PUSH2 0x3606 JUMP JUMPDEST DUP1 MLOAD DUP3 LT ISZERO PUSH2 0x2D0F JUMPI PUSH1 0x20 SWAP2 PUSH1 0x5 SHL ADD ADD SWAP1 JUMP JUMPDEST DUP1 SLOAD SWAP1 PUSH1 0x0 SWAP1 DUP2 DUP2 SSTORE DUP3 PUSH2 0x3680 JUMPI POP POP POP JUMP JUMPDEST PUSH1 0x1 SWAP1 PUSH1 0x1 PUSH1 0x1 PUSH1 0xFF SHL SUB DUP5 AND DUP5 SUB PUSH2 0x36BF JUMPI DUP3 MSTORE PUSH1 0x20 DUP3 KECCAK256 SWAP3 PUSH1 0x1 SHL DUP4 ADD SWAP3 JUMPDEST DUP4 DUP2 LT PUSH2 0x36AE JUMPI POP POP POP POP JUMP JUMPDEST DUP1 DUP4 PUSH1 0x2 SWAP3 SSTORE DUP4 DUP4 DUP3 ADD SSTORE ADD PUSH2 0x36A1 JUMP JUMPDEST PUSH4 0x4E487B71 PUSH1 0xE0 SHL DUP4 MSTORE PUSH1 0x11 PUSH1 0x4 MSTORE PUSH1 0x24 DUP4 REVERT JUMPDEST PUSH1 0x0 SWAP1 DUP1 DUP3 MSTORE PUSH1 0x20 SWAP1 PUSH1 0x13 DUP3 MSTORE PUSH1 0x40 SWAP2 PUSH1 0x40 DUP5 KECCAK256 SWAP5 DUP6 SLOAD PUSH1 0x1 DUP1 PUSH1 0x40 SHL SUB DUP2 GT PUSH2 0x37EA JUMPI PUSH1 0x40 MLOAD SWAP7 PUSH2 0x370A DUP5 DUP4 PUSH1 0x5 SHL ADD DUP10 PUSH2 0x2D7F JUMP JUMPDEST DUP2 DUP9 MSTORE DUP7 MSTORE DUP3 DUP7 KECCAK256 DUP7 SWAP1 DUP5 DUP1 DUP11 ADD JUMPDEST DUP5 DUP5 LT PUSH2 0x37B6 JUMPI POP POP POP POP POP DUP5 JUMPDEST DUP7 MLOAD DUP2 LT ISZERO PUSH2 0x379E JUMPI PUSH1 0x1 SWAP1 DUP8 DUP6 PUSH32 0xAE629B396150638D6EB6DE457CBFFE5D618A10C8CC199A94976BED2B16ECD993 DUP7 PUSH1 0x1 PUSH1 0x1 PUSH1 0xA0 SHL SUB PUSH2 0x378E DUP7 PUSH2 0x3788 DUP4 PUSH2 0x3771 DUP4 DUP11 PUSH2 0x3659 JUMP JUMPDEST MLOAD MLOAD AND DUP6 PUSH2 0x377F DUP5 DUP12 PUSH2 0x3659 JUMP JUMPDEST MLOAD ADD MLOAD SWAP1 PUSH2 0x4083 JUMP JUMPDEST SWAP7 PUSH2 0x3659 JUMP JUMPDEST MLOAD MLOAD AND SWAP4 DUP11 MLOAD SWAP1 DUP2 MSTORE LOG3 ADD PUSH2 0x3727 JUMP JUMPDEST POP SWAP5 POP PUSH1 0x40 SWAP3 POP PUSH1 0x13 SWAP1 PUSH2 0x2E67 SWAP5 SWAP3 DUP4 MSTORE MSTORE KECCAK256 PUSH2 0x366D JUMP JUMPDEST PUSH1 0x1 SWAP2 PUSH1 0x2 SWAP2 DUP11 MLOAD PUSH2 0x37C7 DUP2 PUSH2 0x2D64 JUMP JUMPDEST DUP5 DUP1 PUSH1 0xA0 SHL SUB DUP7 SLOAD AND DUP2 MSTORE DUP5 DUP7 ADD SLOAD DUP4 DUP3 ADD MSTORE DUP2 MSTORE ADD SWAP3 ADD SWAP3 ADD SWAP2 SWAP1 DUP6 SWAP1 PUSH2 0x3719 JUMP JUMPDEST PUSH4 0x4E487B71 PUSH1 0xE0 SHL DUP7 MSTORE PUSH1 0x41 PUSH1 0x4 MSTORE PUSH1 0x24 DUP7 REVERT JUMPDEST PUSH1 0x1 DUP1 PUSH1 0xA0 SHL SUB DUP1 DUP3 AND SWAP2 PUSH1 0x0 DUP4 DUP2 MSTORE PUSH1 0x20 SWAP3 PUSH1 0xF DUP5 MSTORE PUSH1 0x40 SWAP3 DUP4 DUP4 KECCAK256 SWAP3 PUSH1 0x3 DUP5 ADD SWAP1 DUP2 SLOAD PUSH1 0xFF SWAP5 PUSH1 0xFF DUP3 AND ISZERO PUSH2 0x383C JUMPI JUMPDEST POP POP POP POP POP POP POP POP POP POP JUMP JUMPDEST PUSH1 0x1 PUSH1 0xFF NOT SWAP3 DUP4 AND DUP2 OR SWAP1 SWAP5 SSTORE PUSH1 0x10 DUP10 MSTORE DUP8 DUP4 KECCAK256 DUP11 SWAP7 SWAP4 SWAP6 DUP7 SWAP6 SWAP5 DUP7 SWAP5 SWAP4 SWAP3 DUP6 DUP8 JUMPDEST PUSH2 0x3987 JUMPI JUMPDEST POP POP POP SWAP9 DUP7 SWAP4 PUSH32 0xF3A670CD3AF7D64B488926880889D08A8585A138FF455227AF6737339A1EC262 SWAP7 SWAP4 DUP3 SWAP11 SWAP10 SWAP9 SWAP4 PUSH32 0x920BB94EB3842A728DB98228C375FF6B00C5BC5A54FAC6736155517A0A20A61A SWAP14 SWAP13 DUP6 DUP6 SWAP10 SWAP7 ISZERO ISZERO DUP1 PUSH2 0x397D JUMPI JUMPDEST PUSH2 0x396D JUMPI JUMPDEST POP POP DUP6 PUSH2 0x394E JUMPI JUMPDEST DUP10 DUP4 MSTORE PUSH1 0xE DUP14 MSTORE DUP4 DUP4 KECCAK256 PUSH1 0x5 DUP2 ADD DUP1 SLOAD SWAP4 DUP5 AND SWAP1 SSTORE SLOAD AND SWAP1 PUSH1 0xFF AND DUP1 PUSH2 0x3945 JUMPI JUMPDEST DUP1 PUSH2 0x3934 JUMPI JUMPDEST PUSH2 0x391B JUMPI JUMPDEST POP POP MLOAD SWAP3 DUP4 MSTORE POP DUP8 DUP3 ADD MSTORE LOG2 SLOAD SWAP1 MLOAD SWAP1 DUP2 MSTORE LOG2 CODESIZE DUP1 DUP1 DUP1 DUP1 DUP1 DUP1 DUP1 DUP1 DUP1 PUSH2 0x3830 JUMP JUMPDEST DUP2 MSTORE KECCAK256 ADD PUSH2 0x3929 DUP2 SLOAD PUSH2 0x34B4 JUMP JUMPDEST SWAP1 SSTORE CODESIZE DUP4 DUP2 DUP1 PUSH2 0x38F9 JUMP JUMPDEST POP DUP1 DUP3 MSTORE DUP4 DUP4 DUP4 KECCAK256 ADD SLOAD ISZERO ISZERO PUSH2 0x38F4 JUMP JUMPDEST POP DUP1 ISZERO ISZERO PUSH2 0x38EE JUMP JUMPDEST DUP10 DUP4 MSTORE PUSH1 0xE DUP14 MSTORE PUSH1 0x6 DUP5 DUP5 KECCAK256 ADD PUSH2 0x3966 DUP8 DUP3 SLOAD PUSH2 0x2E9B JUMP JUMPDEST SWAP1 SSTORE PUSH2 0x38CD JUMP JUMPDEST PUSH2 0x3976 SWAP2 PUSH2 0x35A3 JUMP JUMPDEST CODESIZE DUP8 PUSH2 0x38C5 JUMP JUMPDEST POP DUP1 SELFBALANCE LT ISZERO PUSH2 0x38C0 JUMP JUMPDEST SWAP1 SWAP2 SWAP3 SWAP4 SWAP5 SWAP6 SWAP7 SWAP8 SWAP10 DUP3 SLOAD DUP3 LT ISZERO PUSH2 0x3A6D JUMPI POP PUSH2 0x39A4 DUP2 DUP4 PUSH2 0x2E0A JUMP JUMPDEST POP SWAP9 DUP4 PUSH1 0x4 DUP1 SWAP12 ADD SLOAD AND ISZERO PUSH2 0x3A60 JUMPI DUP9 PUSH2 0x39BE DUP4 DUP6 PUSH2 0x2E0A JUMP JUMPDEST POP ADD SLOAD DUP1 DUP11 SHL SWAP1 DUP1 DUP3 DIV PUSH1 0x2 EQ SWAP1 ISZERO OR ISZERO PUSH2 0x3A4D JUMPI SWAP2 PUSH2 0x3A1E DUP11 SWAP6 SWAP5 SWAP4 SWAP3 PUSH2 0x12C PUSH2 0x39ED DUP9 SWAP6 PUSH1 0xB SLOAD SWAP1 PUSH2 0x2EBE JUMP JUMPDEST DIV SWAP1 DUP5 PUSH2 0x39FA DUP6 DUP9 PUSH2 0x2E0A JUMP JUMPDEST POP ADD SLOAD DUP3 DUP2 LT PUSH2 0x3A41 JUMPI SWAP1 PUSH2 0x3A12 DUP4 PUSH2 0x3A18 SWAP4 PUSH2 0x2E8E JUMP JUMPDEST SWAP1 PUSH2 0x2E9B JUMP JUMPDEST SWAP14 PUSH2 0x2E9B JUMP JUMPDEST SWAP11 PUSH2 0x3A29 DUP3 DUP6 PUSH2 0x2E0A JUMP JUMPDEST POP ADD DUP9 DUP2 SLOAD AND SWAP1 SSTORE JUMPDEST ADD DUP15 SWAP11 SWAP10 SWAP9 SWAP8 SWAP7 SWAP6 SWAP5 SWAP4 PUSH2 0x385E JUMP JUMPDEST DUP13 SWAP3 POP PUSH2 0x3A18 SWAP2 PUSH2 0x2E9B JUMP JUMPDEST PUSH4 0x4E487B71 PUSH1 0xE0 SHL DUP10 MSTORE PUSH1 0x11 DUP12 MSTORE PUSH1 0x24 DUP10 REVERT JUMPDEST SWAP10 SWAP9 POP SWAP1 DUP8 DUP1 SWAP4 SWAP3 PUSH2 0x3A32 JUMP JUMPDEST SWAP10 SWAP8 SWAP7 SWAP6 SWAP5 SWAP4 SWAP3 PUSH2 0x3863 JUMP JUMPDEST SWAP1 SWAP3 SWAP2 DUP4 PUSH1 0x1 SHR SWAP1 PUSH1 0x0 SWAP2 DUP1 SELFBALANCE LT ISZERO DUP1 PUSH2 0x3C5B JUMPI JUMPDEST PUSH2 0x3C49 JUMPI JUMPDEST PUSH2 0x3A9B PUSH2 0x4368 JUMP JUMPDEST PUSH8 0xDE0B6B3A7640000 SWAP2 DUP3 DUP2 MUL SWAP3 DUP2 DUP5 DIV EQ SWAP1 ISZERO OR ISZERO PUSH2 0x2E78 JUMPI PUSH2 0x3ABE SWAP2 PUSH2 0x312F JUMP JUMPDEST PUSH1 0x0 DUP1 SLOAD PUSH1 0x40 DUP1 MLOAD PUSH4 0x70A08231 PUSH1 0xE0 SHL DUP2 MSTORE ADDRESS PUSH1 0x4 DUP3 ADD MSTORE SWAP9 SWAP1 SWAP7 SWAP3 SWAP4 PUSH1 0x20 SWAP4 SWAP2 SWAP3 PUSH1 0x1 PUSH1 0x1 PUSH1 0xA0 SHL SUB SWAP3 SWAP2 SWAP1 DUP4 AND DUP6 DUP13 PUSH1 0x24 DUP2 DUP5 GAS STATICCALL SWAP12 DUP13 ISZERO PUSH2 0x3C3F JUMPI DUP8 SWAP13 PUSH2 0x3C10 JUMPI JUMPDEST POP DUP2 DUP11 SWAP12 SWAP13 SWAP11 SWAP9 SWAP10 SWAP11 LT ISZERO DUP1 PUSH2 0x3C07 JUMPI JUMPDEST PUSH2 0x3B67 JUMPI JUMPDEST POP POP SWAP3 PUSH1 0x0 DUP1 MLOAD PUSH1 0x20 PUSH2 0x4671 DUP4 CODECOPY DUP2 MLOAD SWAP2 MSTORE SWAP8 SWAP6 SWAP3 PUSH1 0x0 DUP1 MLOAD PUSH1 0x20 PUSH2 0x4751 DUP4 CODECOPY DUP2 MLOAD SWAP2 MSTORE PUSH1 0x80 SWAP9 SWAP7 SWAP4 PUSH1 0x0 SWAP7 AND SWAP11 DUP12 SWAP3 DUP2 MLOAD SWAP1 DUP2 MSTORE DUP8 DUP6 DUP3 ADD MSTORE LOG2 DUP3 MLOAD SWAP6 DUP7 MSTORE DUP6 ADD MSTORE DUP4 ADD MSTORE PUSH1 0x60 DUP3 ADD MSTORE LOG2 JUMP JUMPDEST SWAP5 DUP2 DUP8 SWAP3 SWAP5 SWAP6 SWAP7 DUP5 DUP4 SWAP10 PUSH2 0x3B90 SWAP7 SWAP12 MLOAD DUP1 SWAP8 DUP2 SWAP6 DUP3 SWAP5 PUSH4 0xA9059CBB PUSH1 0xE0 SHL DUP5 MSTORE PUSH1 0x4 DUP5 ADD PUSH2 0x2DEF JUMP JUMPDEST SUB SWAP3 GAS CALL SWAP1 DUP2 ISZERO PUSH2 0x3BFC JUMPI POP SWAP4 PUSH1 0x0 DUP1 MLOAD PUSH1 0x20 PUSH2 0x4751 DUP4 CODECOPY DUP2 MLOAD SWAP2 MSTORE DUP11 SWAP5 PUSH1 0x0 DUP1 MLOAD PUSH1 0x20 PUSH2 0x4671 DUP4 CODECOPY DUP2 MLOAD SWAP2 MSTORE SWAP11 SWAP9 SWAP5 PUSH1 0x80 SWAP11 SWAP9 SWAP5 PUSH1 0x0 SWAP9 PUSH2 0x3BDF JUMPI JUMPDEST POP SWAP8 SWAP10 POP SWAP4 SWAP3 SWAP6 POP DUP2 SWAP5 SWAP8 SWAP10 POP PUSH2 0x3B19 JUMP JUMPDEST PUSH2 0x3BF5 SWAP1 DUP7 RETURNDATASIZE DUP9 GT PUSH2 0xB1E JUMPI PUSH2 0xB0F DUP2 DUP4 PUSH2 0x2D7F JUMP JUMPDEST POP CODESIZE PUSH2 0x3BCD JUMP JUMPDEST DUP11 MLOAD SWAP1 RETURNDATASIZE SWAP1 DUP3 RETURNDATACOPY RETURNDATASIZE SWAP1 REVERT JUMPDEST POP DUP2 ISZERO ISZERO PUSH2 0x3B14 JUMP JUMPDEST SWAP12 POP DUP6 DUP13 DUP2 RETURNDATASIZE DUP4 GT PUSH2 0x3C38 JUMPI JUMPDEST PUSH2 0x3C27 DUP2 DUP4 PUSH2 0x2D7F JUMP JUMPDEST DUP2 ADD SUB SLT PUSH2 0x29CA JUMPI SWAP11 MLOAD SWAP11 DUP2 PUSH2 0x3B03 JUMP JUMPDEST POP RETURNDATASIZE PUSH2 0x3C1D JUMP JUMPDEST DUP11 MLOAD RETURNDATASIZE DUP10 DUP3 RETURNDATACOPY RETURNDATASIZE SWAP1 REVERT JUMPDEST SWAP2 POP PUSH2 0x3C55 DUP3 DUP5 PUSH2 0x35A3 JUMP JUMPDEST DUP2 PUSH2 0x3A93 JUMP JUMPDEST POP DUP1 ISZERO ISZERO PUSH2 0x3A8E JUMP JUMPDEST PUSH1 0x1 PUSH1 0x1 PUSH1 0xA0 SHL SUB SWAP1 DUP2 AND PUSH1 0x0 DUP2 DUP2 MSTORE PUSH1 0xF PUSH1 0x20 SWAP1 DUP2 MSTORE PUSH1 0x40 DUP1 DUP4 KECCAK256 PUSH1 0x1 DUP2 DUP2 ADD DUP1 SLOAD SWAP7 SWAP8 SWAP1 SWAP7 SWAP4 SWAP6 SWAP1 SWAP5 SWAP3 SWAP2 DUP5 ISZERO DUP1 ISZERO PUSH2 0x3E18 JUMPI JUMPDEST PUSH2 0x3DCD JUMPI PUSH1 0x10 DUP5 MSTORE DUP7 DUP3 KECCAK256 DUP1 SLOAD DUP4 SWAP3 SWAP2 DUP4 JUMPDEST DUP3 DUP2 LT PUSH2 0x3DD8 JUMPI POP POP POP POP PUSH2 0x32D8 JUMPI PUSH1 0x2 DUP3 ADD SWAP7 PUSH2 0x3CCE DUP9 SLOAD PUSH1 0x16 SLOAD SWAP1 PUSH2 0x2E9B JUMP JUMPDEST TIMESTAMP GT ISZERO PUSH2 0x3DCD JUMPI PUSH1 0x3 DUP4 DUP4 PUSH32 0x57025F0027038907EDA728B59164FB63D06048F42E618A35267E6A12E49B2E46 SWAP11 DUP11 SWAP7 SLOAD SWAP10 DUP14 DUP4 MSTORE PUSH1 0xE DUP10 MSTORE PUSH1 0xFF PUSH1 0x5 DUP10 DUP6 KECCAK256 SWAP3 DUP4 SLOAD AND SWAP3 ADD SLOAD AND DUP1 PUSH2 0x3DC4 JUMPI JUMPDEST DUP1 PUSH2 0x3DB2 JUMPI JUMPDEST PUSH2 0x3D98 JUMPI JUMPDEST POP DUP13 DUP3 MSTORE PUSH1 0xE DUP9 MSTORE DUP2 DUP8 DUP2 KECCAK256 SWAP6 DUP2 PUSH1 0x4 PUSH1 0x5 DUP10 ADD SWAP9 PUSH1 0xFF NOT SWAP10 DUP11 DUP2 SLOAD AND SWAP1 SSTORE DUP3 DUP10 DUP3 ADD SSTORE ADD SSTORE DUP2 DUP6 SSTORE SSTORE SSTORE ADD SWAP1 DUP2 SLOAD AND SWAP1 SSTORE DUP5 PUSH2 0x3D69 JUMPI JUMPDEST POP MLOAD SWAP3 DUP4 MSTORE DUP3 ADD MSTORE LOG2 JUMP JUMPDEST DUP5 DUP2 MSTORE PUSH1 0x12 DUP4 MSTORE PUSH2 0x3D7B DUP3 DUP3 KECCAK256 PUSH2 0x366D JUMP JUMPDEST DUP5 DUP2 MSTORE PUSH1 0x14 DUP4 MSTORE KECCAK256 DUP1 SLOAD PUSH1 0x1 PUSH1 0x1 PUSH1 0xA0 SHL SUB NOT AND SWAP1 SSTORE DUP4 CODESIZE PUSH2 0x3D5E JUMP JUMPDEST DUP3 MSTORE PUSH1 0x1 DUP8 DUP4 KECCAK256 ADD PUSH2 0x3DAA DUP2 SLOAD PUSH2 0x34B4 JUMP JUMPDEST SWAP1 SSTORE CODESIZE PUSH2 0x3D26 JUMP JUMPDEST POP DUP1 DUP4 MSTORE PUSH1 0x1 DUP9 DUP5 KECCAK256 ADD SLOAD ISZERO ISZERO PUSH2 0x3D21 JUMP JUMPDEST POP DUP1 ISZERO ISZERO PUSH2 0x3D1B JUMP JUMPDEST POP POP POP POP POP POP POP POP POP JUMP JUMPDEST PUSH1 0xFF PUSH1 0x4 PUSH2 0x3DE6 DUP4 DUP6 PUSH2 0x2E0A JUMP JUMPDEST POP ADD SLOAD AND PUSH2 0x3DF6 JUMPI JUMPDEST DUP4 ADD PUSH2 0x3CAC JUMP JUMPDEST SWAP4 PUSH2 0x3E10 DUP5 SWAP2 DUP3 PUSH2 0x3E07 DUP9 DUP7 PUSH2 0x2E0A JUMP JUMPDEST POP ADD SLOAD SWAP1 PUSH2 0x2E9B JUMP JUMPDEST SWAP5 SWAP1 POP PUSH2 0x3DEF JUMP JUMPDEST POP PUSH1 0xFF PUSH1 0x3 DUP5 ADD SLOAD AND PUSH2 0x3C9A JUMP JUMPDEST PUSH1 0xFF PUSH1 0x0 DUP1 MLOAD PUSH1 0x20 PUSH2 0x4791 DUP4 CODECOPY DUP2 MLOAD SWAP2 MSTORE SLOAD PUSH1 0x40 SHR AND ISZERO PUSH2 0x3E43 JUMPI JUMP JUMPDEST PUSH1 0x40 MLOAD PUSH4 0x1AFCD79F PUSH1 0xE3 SHL DUP2 MSTORE PUSH1 0x4 SWAP1 REVERT JUMPDEST PUSH1 0x1 DUP1 PUSH1 0xA0 SHL SUB DUP2 AND PUSH1 0x0 DUP2 DUP2 MSTORE PUSH1 0xE PUSH1 0x20 MSTORE PUSH1 0x40 SWAP2 DUP3 DUP3 KECCAK256 SWAP3 PUSH1 0xF PUSH1 0x20 MSTORE DUP1 DUP4 KECCAK256 PUSH1 0xFF PUSH1 0x5 DUP7 ADD SLOAD AND ISZERO SWAP1 DUP2 ISZERO PUSH2 0x3F7F JUMPI JUMPDEST DUP2 ISZERO PUSH2 0x3F72 JUMPI JUMPDEST POP PUSH2 0x3F69 JUMPI PUSH1 0x4 DUP5 ADD SWAP4 PUSH1 0x3 DUP6 SLOAD SWAP2 ADD SWAP4 PUSH2 0x3EAC DUP6 SLOAD DUP1 SWAP4 PUSH2 0x2E8E JUMP JUMPDEST DUP9 DUP2 DUP2 GT PUSH2 0x3F40 JUMPI JUMPDEST POP POP DUP8 ISZERO PUSH2 0x3F35 JUMPI DUP8 SELFBALANCE LT PUSH2 0x3F0E JUMPI POP SWAP1 PUSH2 0x3EDF DUP8 PUSH1 0x0 DUP1 MLOAD PUSH1 0x20 PUSH2 0x4751 DUP4 CODECOPY DUP2 MLOAD SWAP2 MSTORE SWAP4 PUSH2 0x2E9B JUMP JUMPDEST DUP5 SSTORE PUSH2 0x3EEB DUP8 DUP8 PUSH2 0x35A3 JUMP JUMPDEST DUP1 MLOAD DUP8 DUP2 MSTORE PUSH1 0x2 PUSH1 0x20 DUP3 ADD MSTORE LOG2 SLOAD SWAP1 SLOAD GT ISZERO PUSH2 0x3F05 JUMPI POP SWAP1 JUMP JUMPDEST PUSH2 0x3646 SWAP1 PUSH2 0x37FE JUMP JUMPDEST SWAP7 SWAP3 SWAP6 POP POP PUSH1 0x0 DUP1 MLOAD PUSH1 0x20 PUSH2 0x46D1 DUP4 CODECOPY DUP2 MLOAD SWAP2 MSTORE SWAP4 POP DUP1 SWAP3 POP MLOAD SWAP1 DUP2 MSTORE DUP5 PUSH1 0x20 DUP3 ADD MSTORE LOG2 SWAP1 JUMP JUMPDEST SWAP7 POP POP POP POP POP POP POP SWAP1 JUMP JUMPDEST DUP2 SWAP10 POP DUP5 PUSH1 0x0 DUP1 MLOAD PUSH1 0x20 PUSH2 0x46D1 DUP4 CODECOPY DUP2 MLOAD SWAP2 MSTORE SWAP2 DUP8 SWAP4 SWAP12 DUP3 MLOAD SWAP2 DUP3 MSTORE PUSH1 0x20 DUP3 ADD MSTORE LOG2 CODESIZE DUP1 PUSH2 0x3EB5 JUMP JUMPDEST POP POP SWAP3 POP POP POP SWAP1 JUMP JUMPDEST PUSH1 0x1 SWAP2 POP ADD SLOAD ISZERO CODESIZE PUSH2 0x3E8F JUMP JUMPDEST PUSH1 0x3 DUP2 ADD SLOAD PUSH1 0xFF AND SWAP2 POP PUSH2 0x3E88 JUMP JUMPDEST PUSH1 0x1 DUP1 PUSH1 0xA0 SHL SUB DUP2 AND PUSH1 0x0 DUP2 DUP2 MSTORE PUSH1 0xE PUSH1 0x20 MSTORE PUSH1 0x40 SWAP2 DUP3 DUP3 KECCAK256 SWAP3 PUSH1 0xF PUSH1 0x20 MSTORE DUP1 DUP4 KECCAK256 PUSH1 0xFF PUSH1 0x5 DUP7 ADD SLOAD AND ISZERO SWAP1 DUP2 ISZERO PUSH2 0x4074 JUMPI JUMPDEST DUP2 ISZERO PUSH2 0x4067 JUMPI JUMPDEST POP PUSH2 0x3F69 JUMPI PUSH1 0x4 DUP5 ADD SWAP4 PUSH1 0x3 DUP6 SLOAD SWAP2 ADD SWAP4 PUSH2 0x3FE5 DUP6 SLOAD DUP1 SWAP4 PUSH2 0x2E8E JUMP JUMPDEST DUP9 DUP2 DUP2 GT PUSH2 0x403E JUMPI JUMPDEST POP POP DUP8 ISZERO PUSH2 0x3F35 JUMPI DUP8 SELFBALANCE LT PUSH2 0x3F0E JUMPI POP SWAP1 PUSH2 0x4018 DUP8 PUSH1 0x0 DUP1 MLOAD PUSH1 0x20 PUSH2 0x4751 DUP4 CODECOPY DUP2 MLOAD SWAP2 MSTORE SWAP4 PUSH2 0x2E9B JUMP JUMPDEST DUP5 SSTORE PUSH2 0x4024 DUP8 DUP8 PUSH2 0x35A3 JUMP JUMPDEST DUP1 MLOAD DUP8 DUP2 MSTORE PUSH1 0x3 PUSH1 0x20 DUP3 ADD MSTORE LOG2 SLOAD SWAP1 SLOAD GT ISZERO PUSH2 0x3F05 JUMPI POP SWAP1 JUMP JUMPDEST DUP2 SWAP10 POP DUP5 PUSH1 0x0 DUP1 MLOAD PUSH1 0x20 PUSH2 0x46D1 DUP4 CODECOPY DUP2 MLOAD SWAP2 MSTORE SWAP2 DUP8 SWAP4 SWAP12 DUP3 MLOAD SWAP2 DUP3 MSTORE PUSH1 0x20 DUP3 ADD MSTORE LOG2 CODESIZE DUP1 PUSH2 0x3FEE JUMP JUMPDEST PUSH1 0x1 SWAP2 POP ADD SLOAD ISZERO CODESIZE PUSH2 0x3FC8 JUMP JUMPDEST PUSH1 0x3 DUP2 ADD SLOAD PUSH1 0xFF AND SWAP2 POP PUSH2 0x3FC1 JUMP JUMPDEST PUSH1 0x1 DUP1 PUSH1 0xA0 SHL SUB DUP1 DUP3 AND SWAP1 PUSH1 0x0 SWAP4 DUP3 DUP6 MSTORE PUSH1 0x20 SWAP3 PUSH1 0xE DUP5 MSTORE PUSH1 0x40 DUP1 DUP8 KECCAK256 SWAP4 PUSH1 0xF DUP7 MSTORE DUP2 DUP9 KECCAK256 PUSH1 0xFF PUSH1 0x5 DUP8 ADD SLOAD AND ISZERO SWAP1 DUP2 ISZERO PUSH2 0x4359 JUMPI JUMPDEST DUP2 ISZERO PUSH2 0x434C JUMPI JUMPDEST POP PUSH2 0x431A JUMPI PUSH2 0x40DA PUSH1 0x4 SWAP6 PUSH1 0x3 DUP8 DUP3 ADD SLOAD SWAP2 ADD SLOAD SWAP1 PUSH2 0x2E8E JUMP JUMPDEST DUP5 DUP2 DUP2 GT PUSH2 0x4324 JUMPI JUMPDEST POP POP DUP4 ISZERO PUSH2 0x431A JUMPI DUP3 DUP9 MSTORE PUSH1 0xE DUP7 MSTORE DUP2 DUP9 KECCAK256 SWAP4 PUSH1 0x1 SHR SWAP2 PUSH2 0x4102 PUSH2 0x4368 JUMP JUMPDEST SWAP2 PUSH8 0xDE0B6B3A7640000 SWAP1 DUP2 DUP6 MUL SWAP11 DUP6 ISZERO SWAP12 DUP7 DUP2 DIV DUP5 EQ DUP14 OR ISZERO PUSH2 0x4307 JUMPI DUP6 PUSH2 0x412A SWAP2 PUSH2 0x312F JUMP JUMPDEST SWAP2 DUP2 SWAP7 DUP3 SWAP14 ISZERO DUP1 PUSH2 0x42FD JUMPI JUMPDEST PUSH2 0x42E9 JUMPI JUMPDEST POP DUP3 ISZERO ISZERO DUP1 PUSH2 0x4275 JUMPI JUMPDEST PUSH2 0x4202 JUMPI JUMPDEST POP POP POP PUSH2 0x4162 SWAP1 PUSH2 0x415B DUP5 DUP13 PUSH2 0x2EBE JUMP JUMPDEST DIV DUP5 PUSH2 0x2E9B JUMP JUMPDEST SWAP9 DUP10 PUSH2 0x4175 JUMPI JUMPDEST POP POP POP POP POP POP POP POP POP SWAP1 JUMP JUMPDEST PUSH1 0x3 DUP7 ADD SWAP8 DUP11 DUP10 SLOAD SWAP1 PUSH2 0x4187 SWAP2 PUSH2 0x2E9B JUMP JUMPDEST DUP1 SWAP10 SSTORE DUP6 DUP4 MLOAD DUP13 DUP2 MSTORE DUP5 DUP11 DUP5 DUP4 ADD MSTORE PUSH1 0x0 DUP1 MLOAD PUSH1 0x20 PUSH2 0x4751 DUP4 CODECOPY DUP2 MLOAD SWAP2 MSTORE SWAP2 LOG2 DUP3 MLOAD SWAP5 DUP6 MSTORE DUP5 ADD MSTORE DUP3 ADD MSTORE TIMESTAMP PUSH1 0x60 DUP3 ADD MSTORE PUSH1 0x80 PUSH32 0xE83062C7BAE5146A0AFC41B3A8342F225ED2581A8E234E0BA69D9FF8C53A48D6 SWAP2 LOG2 ADD SLOAD GT ISZERO PUSH2 0x41F3 JUMPI JUMPDEST DUP1 DUP1 DUP1 DUP1 DUP1 DUP1 DUP1 DUP1 PUSH2 0x4169 JUMP JUMPDEST PUSH2 0x41FC SWAP1 PUSH2 0x37FE JUMP JUMPDEST CODESIZE PUSH2 0x41E6 JUMP JUMPDEST DUP3 PUSH2 0x422C SWAP4 SWAP5 SWAP14 POP DUP12 SWAP2 DUP4 SLOAD AND DUP14 DUP5 DUP14 DUP10 MLOAD SWAP8 DUP9 SWAP6 DUP7 SWAP5 DUP6 SWAP4 PUSH4 0xA9059CBB PUSH1 0xE0 SHL DUP6 MSTORE DUP5 ADD PUSH2 0x2DEF JUMP JUMPDEST SUB SWAP3 GAS CALL SWAP1 DUP2 ISZERO PUSH2 0x426A JUMPI POP SWAP1 PUSH2 0x4162 SWAP3 SWAP2 PUSH2 0x424D JUMPI JUMPDEST POP SWAP10 SWAP1 CODESIZE DUP1 PUSH2 0x414A JUMP JUMPDEST PUSH2 0x4263 SWAP1 DUP11 RETURNDATASIZE DUP13 GT PUSH2 0xB1E JUMPI PUSH2 0xB0F DUP2 DUP4 PUSH2 0x2D7F JUMP JUMPDEST POP CODESIZE PUSH2 0x4243 JUMP JUMPDEST DUP5 MLOAD SWAP1 RETURNDATASIZE SWAP1 DUP3 RETURNDATACOPY RETURNDATASIZE SWAP1 REVERT JUMPDEST POP DUP1 DUP3 SLOAD AND DUP12 DUP12 PUSH1 0x24 DUP9 MLOAD DUP1 SWAP5 DUP2 SWAP4 PUSH4 0x70A08231 PUSH1 0xE0 SHL DUP4 MSTORE ADDRESS SWAP1 DUP4 ADD MSTORE GAS STATICCALL SWAP1 DUP2 ISZERO PUSH2 0x42DF JUMPI SWAP1 DUP5 SWAP2 DUP5 SWAP2 PUSH2 0x42AE JUMPI JUMPDEST POP LT ISZERO PUSH2 0x4145 JUMP JUMPDEST DUP1 SWAP3 POP DUP14 DUP1 SWAP3 POP RETURNDATASIZE DUP4 GT PUSH2 0x42D8 JUMPI JUMPDEST PUSH2 0x42C7 DUP2 DUP4 PUSH2 0x2D7F JUMP JUMPDEST DUP2 ADD SUB SLT PUSH2 0x1529 JUMPI DUP4 SWAP1 MLOAD CODESIZE PUSH2 0x42A6 JUMP JUMPDEST POP RETURNDATASIZE PUSH2 0x42BD JUMP JUMPDEST DUP7 MLOAD RETURNDATASIZE DUP6 DUP3 RETURNDATACOPY RETURNDATASIZE SWAP1 REVERT JUMPDEST SWAP1 SWAP7 POP PUSH2 0x42F6 DUP2 DUP14 PUSH2 0x35A3 JUMP JUMPDEST SWAP6 CODESIZE PUSH2 0x413B JUMP JUMPDEST POP DUP1 SELFBALANCE LT ISZERO PUSH2 0x4136 JUMP JUMPDEST PUSH4 0x4E487B71 PUSH1 0xE0 SHL DUP3 MSTORE PUSH1 0x11 DUP11 MSTORE PUSH1 0x24 DUP3 REVERT JUMPDEST POP POP POP POP POP POP POP SWAP1 JUMP JUMPDEST DUP2 SWAP6 POP DUP4 PUSH1 0x0 DUP1 MLOAD PUSH1 0x20 PUSH2 0x46D1 DUP4 CODECOPY DUP2 MLOAD SWAP2 MSTORE SWAP2 DUP7 SWAP4 SWAP8 DUP3 MLOAD SWAP2 DUP3 MSTORE DUP11 DUP3 ADD MSTORE LOG2 CODESIZE DUP1 PUSH2 0x40E3 JUMP JUMPDEST PUSH1 0x1 SWAP2 POP ADD SLOAD ISZERO CODESIZE PUSH2 0x40C0 JUMP JUMPDEST PUSH1 0x3 DUP2 ADD SLOAD PUSH1 0xFF AND SWAP2 POP PUSH2 0x40B9 JUMP JUMPDEST PUSH1 0x19 SLOAD DUP1 ISZERO DUP1 ISZERO PUSH2 0x43D6 JUMPI JUMPDEST PUSH2 0x43C9 JUMPI PUSH1 0x18 SLOAD SWAP1 PUSH8 0xDE0B6B3A7640000 SWAP2 DUP3 DUP2 MUL SWAP3 DUP2 DUP5 DIV EQ SWAP1 ISZERO OR ISZERO PUSH2 0x2E78 JUMPI PUSH2 0x439F SWAP2 PUSH2 0x312F JUMP JUMPDEST PUSH8 0x16345785D8A0000 DUP1 DUP3 LT PUSH2 0x43C4 JUMPI POP PUSH8 0x8AC7230489E80000 DUP1 DUP3 GT PUSH2 0x43C4 JUMPI POP SWAP1 JUMP JUMPDEST SWAP1 POP SWAP1 JUMP JUMPDEST POP PUSH8 0xDE0B6B3A7640000 SWAP1 JUMP JUMPDEST POP PUSH9 0x3635C9ADC5DEA00000 PUSH1 0x18 SLOAD LT PUSH2 0x4374 JUMP JUMPDEST SWAP1 DUP2 ISZERO PUSH2 0x4595 JUMPI PUSH1 0x18 SLOAD PUSH9 0x3635C9ADC5DEA00000 DUP1 DUP3 LT SWAP1 DUP2 ISZERO PUSH2 0x4589 JUMPI JUMPDEST POP PUSH2 0x4584 JUMPI SELFBALANCE PUSH2 0x4419 DUP5 DUP4 PUSH2 0x2E9B JUMP JUMPDEST GT PUSH2 0x4584 JUMPI PUSH2 0x2710 DUP4 MUL PUSH2 0x270F NOT DUP5 DUP3 DIV ADD PUSH2 0x2E78 JUMPI PUSH2 0x443C DUP3 PUSH2 0x3E8 SWAP3 PUSH2 0x312F JUMP JUMPDEST GT PUSH2 0x4584 JUMPI PUSH1 0x19 SLOAD SWAP3 PUSH2 0x445C PUSH2 0x4452 DUP6 DUP4 PUSH2 0x2EBE JUMP JUMPDEST PUSH2 0x17D0 DUP4 DUP6 PUSH2 0x2E9B JUMP JUMPDEST DUP1 ISZERO DUP1 ISZERO PUSH2 0x457B JUMPI JUMPDEST PUSH2 0x4574 JUMPI PUSH1 0x0 SWAP5 PUSH1 0x1 DUP1 PUSH1 0xA0 SHL SUB DUP7 SLOAD AND SWAP1 PUSH1 0x40 SWAP5 DUP6 MLOAD PUSH4 0x70A08231 PUSH1 0xE0 SHL DUP2 MSTORE ADDRESS PUSH1 0x4 DUP3 ADD MSTORE PUSH1 0x20 DUP2 PUSH1 0x24 DUP2 DUP8 GAS STATICCALL SWAP1 DUP2 ISZERO PUSH2 0x456A JUMPI SWAP1 DUP4 SWAP2 DUP11 SWAP2 PUSH2 0x4531 JUMPI JUMPDEST POP LT PUSH2 0x4527 JUMPI DUP4 DUP9 SWAP4 SWAP3 PUSH2 0x1867 DUP8 PUSH2 0x44BD SWAP5 PUSH2 0x2E9B JUMP JUMPDEST PUSH1 0x19 SSTORE DUP1 EXTCODESIZE ISZERO PUSH2 0x1967 JUMPI DUP2 SWAP1 PUSH1 0x24 DUP7 MLOAD DUP1 SWAP5 DUP2 SWAP4 PUSH4 0x852CD8D PUSH1 0xE3 SHL DUP4 MSTORE DUP8 PUSH1 0x4 DUP5 ADD MSTORE GAS CALL DUP1 ISZERO PUSH2 0x451D JUMPI PUSH1 0x0 DUP1 MLOAD PUSH1 0x20 PUSH2 0x4711 DUP4 CODECOPY DUP2 MLOAD SWAP2 MSTORE SWAP6 SWAP7 POP PUSH2 0x450E JUMPI JUMPDEST POP DUP3 MLOAD SWAP2 DUP3 MSTORE PUSH1 0x20 DUP3 ADD MSTORE LOG1 JUMP JUMPDEST PUSH2 0x4517 SWAP1 PUSH2 0x2D3B JUMP JUMPDEST CODESIZE PUSH2 0x4500 JUMP JUMPDEST DUP5 MLOAD RETURNDATASIZE DUP9 DUP3 RETURNDATACOPY RETURNDATASIZE SWAP1 REVERT JUMPDEST POP POP POP POP POP POP SWAP1 POP JUMP JUMPDEST SWAP2 POP POP PUSH1 0x20 DUP2 RETURNDATASIZE PUSH1 0x20 GT PUSH2 0x4562 JUMPI JUMPDEST DUP2 PUSH2 0x454D PUSH1 0x20 SWAP4 DUP4 PUSH2 0x2D7F JUMP JUMPDEST DUP2 ADD SUB SLT PUSH2 0x455E JUMPI DUP3 SWAP1 MLOAD CODESIZE PUSH2 0x44A6 JUMP JUMPDEST DUP9 DUP1 REVERT JUMPDEST RETURNDATASIZE SWAP2 POP PUSH2 0x4540 JUMP JUMPDEST DUP8 MLOAD RETURNDATASIZE DUP12 DUP3 RETURNDATACOPY RETURNDATASIZE SWAP1 REVERT JUMPDEST POP POP POP SWAP1 POP JUMP JUMPDEST POP DUP5 DUP2 GT PUSH2 0x4465 JUMP JUMPDEST POP SWAP1 POP JUMP JUMPDEST SWAP1 POP PUSH1 0x19 SLOAD LT CODESIZE PUSH2 0x4409 JUMP JUMPDEST SWAP1 POP JUMP JUMPDEST PUSH1 0x7 DUP2 EQ PUSH2 0x45C5 JUMPI PUSH1 0xF DUP2 EQ PUSH2 0x45BD JUMPI PUSH1 0x1E EQ PUSH2 0x45B5 JUMPI PUSH1 0x0 SWAP1 JUMP JUMPDEST PUSH4 0x1312D00 SWAP1 JUMP JUMPDEST POP PUSH3 0xFE502B SWAP1 JUMP JUMPDEST POP PUSH3 0xCB7356 SWAP1 JUMP JUMPDEST SWAP1 PUSH2 0x45F4 JUMPI POP DUP1 MLOAD ISZERO PUSH2 0x45E2 JUMPI PUSH1 0x20 DUP2 MLOAD SWAP2 ADD REVERT JUMPDEST PUSH1 0x40 MLOAD PUSH4 0xD6BDA275 PUSH1 0xE0 SHL DUP2 MSTORE PUSH1 0x4 SWAP1 REVERT JUMPDEST DUP2 MLOAD ISZERO DUP1 PUSH2 0x4627 JUMPI JUMPDEST PUSH2 0x4605 JUMPI POP SWAP1 JUMP JUMPDEST PUSH1 0x40 MLOAD PUSH4 0x9996B315 PUSH1 0xE0 SHL DUP2 MSTORE PUSH1 0x1 PUSH1 0x1 PUSH1 0xA0 SHL SUB SWAP1 SWAP2 AND PUSH1 0x4 DUP3 ADD MSTORE PUSH1 0x24 SWAP1 REVERT JUMPDEST POP DUP1 EXTCODESIZE ISZERO PUSH2 0x45FD JUMP INVALID CODESIZE 0xF8 LOG0 0xC9 0x2F 0x4C JUMPDEST SIGNEXTEND PUSH9 0x77F878CB4C0C8D348A SELFBALANCE 0xB7 PUSH14 0x716C8E78F425043DF9515B62C4EA TIMESTAMP 0x29 0xC3 SWAP7 0xC9 0xB5 0xC3 CALLDATACOPY PUSH26 0xEC09ED411B29ED8782E48AC358EAA9E8AA58A9B06FCEBD0A2CE9 DUP12 0x28 0xCB CODECOPY SAR PUSH1 0x8 0xBB 0xC7 PUSH10 0x378C9A4919628E11639C 0xB5 PUSH22 0xCD320FCC9016D09D72D40FDAE2FD8CEAC6B6234C7706 0x21 0x4F 0xD3 SWAP13 SHR 0xD1 0xE6 MULMOD LOG0 MSTORE DUP13 NOT SWAP4 STOP CALLDATASIZE ADDMOD SWAP5 LOG1 EXTCODESIZE LOG1 LOG3 0x21 MOD PUSH8 0xC828492DB98DCA3E KECCAK256 PUSH23 0xCC3735A920A3CA505D382BBCB5987AAB1AFD379F6695F1 MOD DUP9 PUSH10 0xEE8CA6A0D02304C57935 0xA9 0xCC RETURNDATASIZE RETURNDATACOPY LOG2 0xE5 0x1E 0x4D 0xF8 0xB9 INVALID 0x4D STOP DUP4 KECCAK256 0xE6 CREATE BASEFEE 0xC6 0x1E COINBASE 0xE9 0xCC JUMP 0xCE CALLDATALOAD SGT SLOAD 0xAD 0xC 0xB9 0xA8 PUSH9 0xBD3C4BD6928FD50EC3 SWAP3 SWAP1 PUSH2 0xCBBB 0xEE 0xCB ORIGIN JUMP 0x23 0xE7 0xD5 0xA8 PUSH13 0x3DAE11CB8A22CA45DC09729556 JUMPI 0xDA 0x25 DUP12 0xE0 SMOD SWAP13 MSTORE8 AND MSIZE EQ SGT PREVRANDAO 0xCD 0x1F 0xD0 LOG4 CALLCODE DUP5 NOT 0x49 PUSH32 0x9722A3DAAFE3B4186F6B6457E0F381583145E90B82CC5E529BF4FC4D0E443971 PUSH21 0xCDF145C4251AC33EF195A4249B779B17422D0DF922 0x23 ADD DUP12 ORIGIN 0xB4 0xD1 STATICCALL CHAINID 0xE0 PUSH18 0x723D6817E2486D003BECC55F00F0C57E1684 0xD CREATE BLOCKHASH CALL POP DUP9 0xDC 0x2F DUP2 INVALID CODECOPY SHR CODECOPY 0x23 0xBE 0xC7 RETURNDATACOPY 0x23 0xA9 PUSH7 0x2EFC9C229C6A00 LOG2 PUSH5 0x6970667358 0x22 SLT KECCAK256 PUSH15 0x5BBBBF450F74D412436DA26A9A5828 PUSH13 0xF9B1F9C1A3FB8F0EDD28FE5A14 0xEE 0xC1 PUSH5 0x736F6C6343 STOP ADDMOD AND STOP CALLER "},"methodIdentifiers":{"REWARD_DIFFERENTIAL()":"88481b61","REWARD_DIRECT()":"0e2be210","REWARD_DYNAMIC()":"8a859a85","REWARD_LEVEL()":"8c0eaa48","REWARD_STATIC()":"1427f616","SECONDS_IN_UNIT()":"488b5d97","UPGRADE_INTERFACE_VERSION()":"ad3cb1cc","addLiquidity(uint256)":"51c6590a","adminSetReferrer(address,address)":"a2af9226","bindReferrer(address)":"04f618cb","buyTicket()":"edca914c","buybackPercent()":"e4412f68","buybackWallet()":"deab8aea","calculateLevel(uint256)":"dce3dc1f","claimRewards()":"372500ab","dailyBurn()":"81eeef5c","directReferrals(address,uint256)":"05ad3935","directRewardPercent()":"ccf61944","emergencyPause()":"51858e27","emergencyPaused()":"27c830a9","emergencyUnpause()":"4a4e3bd5","emergencyWithdrawNative(address,uint256)":"9b788504","getDirectReferrals(address)":"d2c8e0e5","getLevelRewardLayers(uint256)":"182c84cc","getUserLevel(address)":"21923bde","initialize(address,address,address,address,address)":"1459457a","jbcToken()":"1788513c","lastBurnTime()":"e3067449","levelRewardPercent()":"bd594dcf","levelRewardPool()":"b759936b","liquidityEnabled()":"b048a4bb","lpInjectionPercent()":"ceaa366d","lpInjectionWallet()":"88fd4d33","marketingPercent()":"d8020a18","marketingWallet()":"75f0a874","nextStakeId()":"75506c96","nextTicketId()":"6031a52f","owner()":"8da5cb5b","priceOracle()":"2630c12f","proxiableUUID()":"52d1902d","redeem()":"be040fb0","redeemEnabled()":"d2f82536","redemptionFeePercent()":"dec7fa3b","renounceOwnership()":"715018a6","rescueTokens(address,address,uint256)":"cea9d26f","setDistributionConfig(uint256,uint256,uint256,uint256,uint256,uint256)":"d0f16470","setOperationalStatus(bool,bool)":"01d62efb","setRedemptionFeePercent(uint256)":"ece71266","setSwapTaxes(uint256,uint256)":"90b0eb51","setTicketFlexibilityDuration(uint256)":"9d99eca4","setWallets(address,address,address,address)":"83672f3e","stakeLiquidity(uint256)":"35076373","stakeOwner(uint256)":"3dbd46bd","stakePendingRewards(uint256,uint256)":"ac8f50aa","swapBuyTax()":"27f082f4","swapJBCToMC(uint256)":"52778b05","swapMCToJBC()":"841d308b","swapReserveJBC()":"1d0dac76","swapReserveMC()":"77a2a540","swapSellTax()":"9370b080","ticketFlexibilityDuration()":"6dd66827","ticketOwner(uint256)":"c2ff12fc","ticketPendingRewards(uint256,uint256)":"813380cd","transferOwnership(address)":"f2fde38b","treasuryPercent()":"04ef9d58","treasuryWallet()":"4626402b","upgradeToAndCall(address,bytes)":"4f1ef286","userInfo(address)":"1959a002","userStakes(address,uint256)":"b5d5b5fa","userTicket(address)":"8710bcaa","withdrawSwapReserves(address,uint256,address,uint256)":"d4f00142"}},"storageLayout":{"storage":[{"astId":1727,"contract":"contracts/JinbaoProtocolV4.sol:JinbaoProtocolV4","label":"jbcToken","offset":0,"slot":"0","type":"t_contract(IJBC)1654"},{"astId":1730,"contract":"contracts/JinbaoProtocolV4.sol:JinbaoProtocolV4","label":"marketingWallet","offset":0,"slot":"1","type":"t_address"},{"astId":1732,"contract":"contracts/JinbaoProtocolV4.sol:JinbaoProtocolV4","label":"treasuryWallet","offset":0,"slot":"2","type":"t_address"},{"astId":1734,"contract":"contracts/JinbaoProtocolV4.sol:JinbaoProtocolV4","label":"lpInjectionWallet","offset":0,"slot":"3","type":"t_address"},{"astId":1736,"contract":"contracts/JinbaoProtocolV4.sol:JinbaoProtocolV4","label":"buybackWallet","offset":0,"slot":"4","type":"t_address"},{"astId":1743,"contract":"contracts/JinbaoProtocolV4.sol:JinbaoProtocolV4","label":"directRewardPercent","offset":0,"slot":"5","type":"t_uint256"},{"astId":1745,"contract":"contracts/JinbaoProtocolV4.sol:JinbaoProtocolV4","label":"levelRewardPercent","offset":0,"slot":"6","type":"t_uint256"},{"astId":1747,"contract":"contracts/JinbaoProtocolV4.sol:JinbaoProtocolV4","label":"marketingPercent","offset":0,"slot":"7","type":"t_uint256"},{"astId":1749,"contract":"contracts/JinbaoProtocolV4.sol:JinbaoProtocolV4","label":"buybackPercent","offset":0,"slot":"8","type":"t_uint256"},{"astId":1751,"contract":"contracts/JinbaoProtocolV4.sol:JinbaoProtocolV4","label":"lpInjectionPercent","offset":0,"slot":"9","type":"t_uint256"},{"astId":1753,"contract":"contracts/JinbaoProtocolV4.sol:JinbaoProtocolV4","label":"treasuryPercent","offset":0,"slot":"10","type":"t_uint256"},{"astId":1756,"contract":"contracts/JinbaoProtocolV4.sol:JinbaoProtocolV4","label":"redemptionFeePercent","offset":0,"slot":"11","type":"t_uint256"},{"astId":1758,"contract":"contracts/JinbaoProtocolV4.sol:JinbaoProtocolV4","label":"swapBuyTax","offset":0,"slot":"12","type":"t_uint256"},{"astId":1760,"contract":"contracts/JinbaoProtocolV4.sol:JinbaoProtocolV4","label":"swapSellTax","offset":0,"slot":"13","type":"t_uint256"},{"astId":1782,"contract":"contracts/JinbaoProtocolV4.sol:JinbaoProtocolV4","label":"userInfo","offset":0,"slot":"14","type":"t_mapping(t_address,t_struct(UserInfo)1689_storage)"},{"astId":1787,"contract":"contracts/JinbaoProtocolV4.sol:JinbaoProtocolV4","label":"userTicket","offset":0,"slot":"15","type":"t_mapping(t_address,t_struct(Ticket)1711_storage)"},{"astId":1793,"contract":"contracts/JinbaoProtocolV4.sol:JinbaoProtocolV4","label":"userStakes","offset":0,"slot":"16","type":"t_mapping(t_address,t_array(t_struct(Stake)1702_storage)dyn_storage)"},{"astId":1798,"contract":"contracts/JinbaoProtocolV4.sol:JinbaoProtocolV4","label":"directReferrals","offset":0,"slot":"17","type":"t_mapping(t_address,t_array(t_address)dyn_storage)"},{"astId":1804,"contract":"contracts/JinbaoProtocolV4.sol:JinbaoProtocolV4","label":"ticketPendingRewards","offset":0,"slot":"18","type":"t_mapping(t_uint256,t_array(t_struct(PendingReward)1716_storage)dyn_storage)"},{"astId":1810,"contract":"contracts/JinbaoProtocolV4.sol:JinbaoProtocolV4","label":"stakePendingRewards","offset":0,"slot":"19","type":"t_mapping(t_uint256,t_array(t_struct(PendingReward)1716_storage)dyn_storage)"},{"astId":1814,"contract":"contracts/JinbaoProtocolV4.sol:JinbaoProtocolV4","label":"ticketOwner","offset":0,"slot":"20","type":"t_mapping(t_uint256,t_address)"},{"astId":1818,"contract":"contracts/JinbaoProtocolV4.sol:JinbaoProtocolV4","label":"stakeOwner","offset":0,"slot":"21","type":"t_mapping(t_uint256,t_address)"},{"astId":1821,"contract":"contracts/JinbaoProtocolV4.sol:JinbaoProtocolV4","label":"ticketFlexibilityDuration","offset":0,"slot":"22","type":"t_uint256"},{"astId":1823,"contract":"contracts/JinbaoProtocolV4.sol:JinbaoProtocolV4","label":"liquidityEnabled","offset":0,"slot":"23","type":"t_bool"},{"astId":1825,"contract":"contracts/JinbaoProtocolV4.sol:JinbaoProtocolV4","label":"redeemEnabled","offset":1,"slot":"23","type":"t_bool"},{"astId":1828,"contract":"contracts/JinbaoProtocolV4.sol:JinbaoProtocolV4","label":"swapReserveMC","offset":0,"slot":"24","type":"t_uint256"},{"astId":1830,"contract":"contracts/JinbaoProtocolV4.sol:JinbaoProtocolV4","label":"swapReserveJBC","offset":0,"slot":"25","type":"t_uint256"},{"astId":1833,"contract":"contracts/JinbaoProtocolV4.sol:JinbaoProtocolV4","label":"nextTicketId","offset":0,"slot":"26","type":"t_uint256"},{"astId":1835,"contract":"contracts/JinbaoProtocolV4.sol:JinbaoProtocolV4","label":"nextStakeId","offset":0,"slot":"27","type":"t_uint256"},{"astId":1837,"contract":"contracts/JinbaoProtocolV4.sol:JinbaoProtocolV4","label":"lastBurnTime","offset":0,"slot":"28","type":"t_uint256"},{"astId":1839,"contract":"contracts/JinbaoProtocolV4.sol:JinbaoProtocolV4","label":"levelRewardPool","offset":0,"slot":"29","type":"t_uint256"},{"astId":1842,"contract":"contracts/JinbaoProtocolV4.sol:JinbaoProtocolV4","label":"emergencyPaused","offset":0,"slot":"30","type":"t_bool"},{"astId":1844,"contract":"contracts/JinbaoProtocolV4.sol:JinbaoProtocolV4","label":"priceOracle","offset":1,"slot":"30","type":"t_address"},{"astId":1849,"contract":"contracts/JinbaoProtocolV4.sol:JinbaoProtocolV4","label":"__gap","offset":0,"slot":"31","type":"t_array(t_uint256)45_storage"}],"types":{"t_address":{"encoding":"inplace","label":"address","numberOfBytes":"20"},"t_array(t_address)dyn_storage":{"base":"t_address","encoding":"dynamic_array","label":"address[]","numberOfBytes":"32"},"t_array(t_struct(PendingReward)1716_storage)dyn_storage":{"base":"t_struct(PendingReward)1716_storage","encoding":"dynamic_array","label":"struct JinbaoProtocolV4.PendingReward[]","numberOfBytes":"32"},"t_array(t_struct(Stake)1702_storage)dyn_storage":{"base":"t_struct(Stake)1702_storage","encoding":"dynamic_array","label":"struct JinbaoProtocolV4.Stake[]","numberOfBytes":"32"},"t_array(t_uint256)45_storage":{"base":"t_uint256","encoding":"inplace","label":"uint256[45]","numberOfBytes":"1440"},"t_bool":{"encoding":"inplace","label":"bool","numberOfBytes":"1"},"t_contract(IJBC)1654":{"encoding":"inplace","label":"contract IJBC","numberOfBytes":"20"},"t_mapping(t_address,t_array(t_address)dyn_storage)":{"encoding":"mapping","key":"t_address","label":"mapping(address => address[])","numberOfBytes":"32","value":"t_array(t_address)dyn_storage"},"t_mapping(t_address,t_array(t_struct(Stake)1702_storage)dyn_storage)":{"encoding":"mapping","key":"t_address","label":"mapping(address => struct JinbaoProtocolV4.Stake[])","numberOfBytes":"32","value":"t_array(t_struct(Stake)1702_storage)dyn_storage"},"t_mapping(t_address,t_struct(Ticket)1711_storage)":{"encoding":"mapping","key":"t_address","label":"mapping(address => struct JinbaoProtocolV4.Ticket)","numberOfBytes":"32","value":"t_struct(Ticket)1711_storage"},"t_mapping(t_address,t_struct(UserInfo)1689_storage)":{"encoding":"mapping","key":"t_address","label":"mapping(address => struct JinbaoProtocolV4.UserInfo)","numberOfBytes":"32","value":"t_struct(UserInfo)1689_storage"},"t_mapping(t_uint256,t_address)":{"encoding":"mapping","key":"t_uint256","label":"mapping(uint256 => address)","numberOfBytes":"32","value":"t_address"},"t_mapping(t_uint256,t_array(t_struct(PendingReward)1716_storage)dyn_storage)":{"encoding":"mapping","key":"t_uint256","label":"mapping(uint256 => struct JinbaoProtocolV4.PendingReward[])","numberOfBytes":"32","value":"t_array(t_struct(PendingReward)1716_storage)dyn_storage"},"t_struct(PendingReward)1716_storage":{"encoding":"inplace","label":"struct JinbaoProtocolV4.PendingReward","members":[{"astId":1713,"contract":"contracts/JinbaoProtocolV4.sol:JinbaoProtocolV4","label":"upline","offset":0,"slot":"0","type":"t_address"},{"astId":1715,"contract":"contracts/JinbaoProtocolV4.sol:JinbaoProtocolV4","label":"amount","offset":0,"slot":"1","type":"t_uint256"}],"numberOfBytes":"64"},"t_struct(Stake)1702_storage":{"encoding":"inplace","label":"struct JinbaoProtocolV4.Stake","members":[{"astId":1691,"contract":"contracts/JinbaoProtocolV4.sol:JinbaoProtocolV4","label":"id","offset":0,"slot":"0","type":"t_uint256"},{"astId":1693,"contract":"contracts/JinbaoProtocolV4.sol:JinbaoProtocolV4","label":"amount","offset":0,"slot":"1","type":"t_uint256"},{"astId":1695,"contract":"contracts/JinbaoProtocolV4.sol:JinbaoProtocolV4","label":"startTime","offset":0,"slot":"2","type":"t_uint256"},{"astId":1697,"contract":"contracts/JinbaoProtocolV4.sol:JinbaoProtocolV4","label":"cycleDays","offset":0,"slot":"3","type":"t_uint256"},{"astId":1699,"contract":"contracts/JinbaoProtocolV4.sol:JinbaoProtocolV4","label":"active","offset":0,"slot":"4","type":"t_bool"},{"astId":1701,"contract":"contracts/JinbaoProtocolV4.sol:JinbaoProtocolV4","label":"paid","offset":0,"slot":"5","type":"t_uint256"}],"numberOfBytes":"192"},"t_struct(Ticket)1711_storage":{"encoding":"inplace","label":"struct JinbaoProtocolV4.Ticket","members":[{"astId":1704,"contract":"contracts/JinbaoProtocolV4.sol:JinbaoProtocolV4","label":"ticketId","offset":0,"slot":"0","type":"t_uint256"},{"astId":1706,"contract":"contracts/JinbaoProtocolV4.sol:JinbaoProtocolV4","label":"amount","offset":0,"slot":"1","type":"t_uint256"},{"astId":1708,"contract":"contracts/JinbaoProtocolV4.sol:JinbaoProtocolV4","label":"purchaseTime","offset":0,"slot":"2","type":"t_uint256"},{"astId":1710,"contract":"contracts/JinbaoProtocolV4.sol:JinbaoProtocolV4","label":"exited","offset":0,"slot":"3","type":"t_bool"}],"numberOfBytes":"128"},"t_struct(UserInfo)1689_storage":{"encoding":"inplace","label":"struct JinbaoProtocolV4.UserInfo","members":[{"astId":1668,"contract":"contracts/JinbaoProtocolV4.sol:JinbaoProtocolV4","label":"referrer","offset":0,"slot":"0","type":"t_address"},{"astId":1670,"contract":"contracts/JinbaoProtocolV4.sol:JinbaoProtocolV4","label":"activeDirects","offset":0,"slot":"1","type":"t_uint256"},{"astId":1672,"contract":"contracts/JinbaoProtocolV4.sol:JinbaoProtocolV4","label":"teamCount","offset":0,"slot":"2","type":"t_uint256"},{"astId":1674,"contract":"contracts/JinbaoProtocolV4.sol:JinbaoProtocolV4","label":"totalRevenue","offset":0,"slot":"3","type":"t_uint256"},{"astId":1676,"contract":"contracts/JinbaoProtocolV4.sol:JinbaoProtocolV4","label":"currentCap","offset":0,"slot":"4","type":"t_uint256"},{"astId":1678,"contract":"contracts/JinbaoProtocolV4.sol:JinbaoProtocolV4","label":"isActive","offset":0,"slot":"5","type":"t_bool"},{"astId":1680,"contract":"contracts/JinbaoProtocolV4.sol:JinbaoProtocolV4","label":"refundFeeAmount","offset":0,"slot":"6","type":"t_uint256"},{"astId":1682,"contract":"contracts/JinbaoProtocolV4.sol:JinbaoProtocolV4","label":"teamTotalVolume","offset":0,"slot":"7","type":"t_uint256"},{"astId":1684,"contract":"contracts/JinbaoProtocolV4.sol:JinbaoProtocolV4","label":"teamTotalCap","offset":0,"slot":"8","type":"t_uint256"},{"astId":1686,"contract":"contracts/JinbaoProtocolV4.sol:JinbaoProtocolV4","label":"maxTicketAmount","offset":0,"slot":"9","type":"t_uint256"},{"astId":1688,"contract":"contracts/JinbaoProtocolV4.sol:JinbaoProtocolV4","label":"maxSingleTicketAmount","offset":0,"slot":"10","type":"t_uint256"}],"numberOfBytes":"352"},"t_uint256":{"encoding":"inplace","label":"uint256","numberOfBytes":"32"}}}}}}