{"contracts/JinbaoProtocol.sol":{"JinbaoProtocol":{"abi":[{"inputs":[{"internalType":"address","name":"_mcToken","type":"address"},{"internalType":"address","name":"_jbcToken","type":"address"},{"internalType":"address","name":"_marketing","type":"address"},{"internalType":"address","name":"_treasury","type":"address"},{"internalType":"address","name":"_lpInjection","type":"address"},{"internalType":"address","name":"_buybackWallet","type":"address"}],"stateMutability":"nonpayable","type":"constructor"},{"inputs":[{"internalType":"address","name":"owner","type":"address"}],"name":"OwnableInvalidOwner","type":"error"},{"inputs":[{"internalType":"address","name":"account","type":"address"}],"name":"OwnableUnauthorizedAccount","type":"error"},{"inputs":[],"name":"ReentrancyGuardReentrantCall","type":"error"},{"anonymous":false,"inputs":[{"indexed":true,"internalType":"address","name":"user","type":"address"},{"indexed":true,"internalType":"address","name":"referrer","type":"address"}],"name":"BoundReferrer","type":"event"},{"anonymous":false,"inputs":[{"indexed":false,"internalType":"uint256","name":"mcAmount","type":"uint256"},{"indexed":false,"internalType":"uint256","name":"jbcBurned","type":"uint256"}],"name":"BuybackAndBurn","type":"event"},{"anonymous":false,"inputs":[{"indexed":true,"internalType":"address","name":"user","type":"address"},{"indexed":false,"internalType":"uint256","name":"ticketId","type":"uint256"}],"name":"Exited","type":"event"},{"anonymous":false,"inputs":[{"indexed":true,"internalType":"address","name":"user","type":"address"},{"indexed":false,"internalType":"uint256","name":"amount","type":"uint256"}],"name":"FeeRefunded","type":"event"},{"anonymous":false,"inputs":[{"indexed":true,"internalType":"uint256","name":"ticketId","type":"uint256"},{"indexed":true,"internalType":"address","name":"upline","type":"address"},{"indexed":false,"internalType":"uint256","name":"amount","type":"uint256"}],"name":"LevelRewardRecorded","type":"event"},{"anonymous":false,"inputs":[{"indexed":true,"internalType":"uint256","name":"ticketId","type":"uint256"},{"indexed":true,"internalType":"address","name":"upline","type":"address"},{"indexed":false,"internalType":"uint256","name":"amount","type":"uint256"}],"name":"LevelRewardReleased","type":"event"},{"anonymous":false,"inputs":[{"indexed":false,"internalType":"uint256","name":"mcAmount","type":"uint256"},{"indexed":false,"internalType":"uint256","name":"jbcAmount","type":"uint256"}],"name":"LiquidityAdded","type":"event"},{"anonymous":false,"inputs":[{"indexed":true,"internalType":"address","name":"user","type":"address"},{"indexed":false,"internalType":"uint256","name":"amount","type":"uint256"},{"indexed":false,"internalType":"uint256","name":"cycleDays","type":"uint256"}],"name":"LiquidityStaked","type":"event"},{"anonymous":false,"inputs":[{"indexed":true,"internalType":"address","name":"previousOwner","type":"address"},{"indexed":true,"internalType":"address","name":"newOwner","type":"address"}],"name":"OwnershipTransferred","type":"event"},{"anonymous":false,"inputs":[{"indexed":true,"internalType":"address","name":"user","type":"address"},{"indexed":false,"internalType":"uint256","name":"principal","type":"uint256"},{"indexed":false,"internalType":"uint256","name":"fee","type":"uint256"}],"name":"Redeemed","type":"event"},{"anonymous":false,"inputs":[{"indexed":true,"internalType":"address","name":"user","type":"address"},{"indexed":false,"internalType":"uint256","name":"amount","type":"uint256"},{"indexed":false,"internalType":"uint256","name":"cappedAmount","type":"uint256"}],"name":"RewardCapped","type":"event"},{"anonymous":false,"inputs":[{"indexed":true,"internalType":"address","name":"user","type":"address"},{"indexed":false,"internalType":"uint256","name":"amount","type":"uint256"},{"indexed":false,"internalType":"uint8","name":"rewardType","type":"uint8"}],"name":"RewardPaid","type":"event"},{"anonymous":false,"inputs":[{"indexed":true,"internalType":"address","name":"user","type":"address"},{"indexed":false,"internalType":"uint256","name":"jbcAmount","type":"uint256"},{"indexed":false,"internalType":"uint256","name":"mcAmount","type":"uint256"},{"indexed":false,"internalType":"uint256","name":"tax","type":"uint256"}],"name":"SwappedJBCToMC","type":"event"},{"anonymous":false,"inputs":[{"indexed":true,"internalType":"address","name":"user","type":"address"},{"indexed":false,"internalType":"uint256","name":"mcAmount","type":"uint256"},{"indexed":false,"internalType":"uint256","name":"jbcAmount","type":"uint256"},{"indexed":false,"internalType":"uint256","name":"tax","type":"uint256"}],"name":"SwappedMCToJBC","type":"event"},{"anonymous":false,"inputs":[{"indexed":true,"internalType":"address","name":"user","type":"address"},{"indexed":false,"internalType":"uint256","name":"amount","type":"uint256"},{"indexed":false,"internalType":"uint256","name":"ticketId","type":"uint256"}],"name":"TicketPurchased","type":"event"},{"inputs":[],"name":"REWARD_DIRECT","outputs":[{"internalType":"uint8","name":"","type":"uint8"}],"stateMutability":"view","type":"function"},{"inputs":[],"name":"REWARD_DYNAMIC","outputs":[{"internalType":"uint8","name":"","type":"uint8"}],"stateMutability":"view","type":"function"},{"inputs":[],"name":"REWARD_LEVEL","outputs":[{"internalType":"uint8","name":"","type":"uint8"}],"stateMutability":"view","type":"function"},{"inputs":[],"name":"REWARD_STATIC","outputs":[{"internalType":"uint8","name":"","type":"uint8"}],"stateMutability":"view","type":"function"},{"inputs":[],"name":"SECONDS_IN_UNIT","outputs":[{"internalType":"uint256","name":"","type":"uint256"}],"stateMutability":"view","type":"function"},{"inputs":[{"internalType":"uint256","name":"mcAmount","type":"uint256"},{"internalType":"uint256","name":"jbcAmount","type":"uint256"}],"name":"addLiquidity","outputs":[],"stateMutability":"nonpayable","type":"function"},{"inputs":[{"internalType":"address","name":"user","type":"address"},{"internalType":"address","name":"newReferrer","type":"address"}],"name":"adminSetReferrer","outputs":[],"stateMutability":"nonpayable","type":"function"},{"inputs":[{"internalType":"address","name":"user","type":"address"},{"internalType":"uint256","name":"_activeDirects","type":"uint256"},{"internalType":"uint256","name":"_teamCount","type":"uint256"}],"name":"adminSetUserStats","outputs":[],"stateMutability":"nonpayable","type":"function"},{"inputs":[{"internalType":"uint256","name":"amount","type":"uint256"},{"internalType":"address","name":"to","type":"address"}],"name":"adminWithdrawJBC","outputs":[],"stateMutability":"nonpayable","type":"function"},{"inputs":[{"internalType":"uint256","name":"amount","type":"uint256"},{"internalType":"address","name":"to","type":"address"}],"name":"adminWithdrawMC","outputs":[],"stateMutability":"nonpayable","type":"function"},{"inputs":[{"internalType":"address","name":"_referrer","type":"address"}],"name":"bindReferrer","outputs":[],"stateMutability":"nonpayable","type":"function"},{"inputs":[{"internalType":"uint256","name":"amount","type":"uint256"}],"name":"buyTicket","outputs":[],"stateMutability":"nonpayable","type":"function"},{"inputs":[],"name":"buybackPercent","outputs":[{"internalType":"uint256","name":"","type":"uint256"}],"stateMutability":"view","type":"function"},{"inputs":[],"name":"buybackWallet","outputs":[{"internalType":"address","name":"","type":"address"}],"stateMutability":"view","type":"function"},{"inputs":[],"name":"claimRewards","outputs":[],"stateMutability":"nonpayable","type":"function"},{"inputs":[{"internalType":"address","name":"","type":"address"},{"internalType":"uint256","name":"","type":"uint256"}],"name":"directReferrals","outputs":[{"internalType":"address","name":"","type":"address"}],"stateMutability":"view","type":"function"},{"inputs":[],"name":"directRewardPercent","outputs":[{"internalType":"uint256","name":"","type":"uint256"}],"stateMutability":"view","type":"function"},{"inputs":[{"internalType":"uint256","name":"amountIn","type":"uint256"},{"internalType":"uint256","name":"reserveIn","type":"uint256"},{"internalType":"uint256","name":"reserveOut","type":"uint256"}],"name":"getAmountOut","outputs":[{"internalType":"uint256","name":"","type":"uint256"}],"stateMutability":"pure","type":"function"},{"inputs":[],"name":"getJBCPrice","outputs":[{"internalType":"uint256","name":"","type":"uint256"}],"stateMutability":"view","type":"function"},{"inputs":[{"internalType":"uint256","name":"activeDirects","type":"uint256"}],"name":"getLevel","outputs":[{"internalType":"uint256","name":"level","type":"uint256"},{"internalType":"uint256","name":"percent","type":"uint256"}],"stateMutability":"pure","type":"function"},{"inputs":[],"name":"jbcToken","outputs":[{"internalType":"contract IJBC","name":"","type":"address"}],"stateMutability":"view","type":"function"},{"inputs":[],"name":"levelRewardPercent","outputs":[{"internalType":"uint256","name":"","type":"uint256"}],"stateMutability":"view","type":"function"},{"inputs":[],"name":"lpInjectionPercent","outputs":[{"internalType":"uint256","name":"","type":"uint256"}],"stateMutability":"view","type":"function"},{"inputs":[],"name":"lpInjectionWallet","outputs":[{"internalType":"address","name":"","type":"address"}],"stateMutability":"view","type":"function"},{"inputs":[],"name":"marketingPercent","outputs":[{"internalType":"uint256","name":"","type":"uint256"}],"stateMutability":"view","type":"function"},{"inputs":[],"name":"marketingWallet","outputs":[{"internalType":"address","name":"","type":"address"}],"stateMutability":"view","type":"function"},{"inputs":[],"name":"mcToken","outputs":[{"internalType":"contract IERC20","name":"","type":"address"}],"stateMutability":"view","type":"function"},{"inputs":[],"name":"nextTicketId","outputs":[{"internalType":"uint256","name":"","type":"uint256"}],"stateMutability":"view","type":"function"},{"inputs":[],"name":"owner","outputs":[{"internalType":"address","name":"","type":"address"}],"stateMutability":"view","type":"function"},{"inputs":[],"name":"redeem","outputs":[],"stateMutability":"nonpayable","type":"function"},{"inputs":[],"name":"redemptionFeePercent","outputs":[{"internalType":"uint256","name":"","type":"uint256"}],"stateMutability":"view","type":"function"},{"inputs":[],"name":"renounceOwnership","outputs":[],"stateMutability":"nonpayable","type":"function"},{"inputs":[{"internalType":"uint256","name":"_direct","type":"uint256"},{"internalType":"uint256","name":"_level","type":"uint256"},{"internalType":"uint256","name":"_marketing","type":"uint256"},{"internalType":"uint256","name":"_buyback","type":"uint256"},{"internalType":"uint256","name":"_lp","type":"uint256"},{"internalType":"uint256","name":"_treasury","type":"uint256"}],"name":"setDistributionPercents","outputs":[],"stateMutability":"nonpayable","type":"function"},{"inputs":[{"internalType":"uint256","name":"_fee","type":"uint256"}],"name":"setRedemptionFee","outputs":[],"stateMutability":"nonpayable","type":"function"},{"inputs":[{"internalType":"uint256","name":"_buyTax","type":"uint256"},{"internalType":"uint256","name":"_sellTax","type":"uint256"}],"name":"setSwapTaxes","outputs":[],"stateMutability":"nonpayable","type":"function"},{"inputs":[{"internalType":"address","name":"_marketing","type":"address"},{"internalType":"address","name":"_treasury","type":"address"},{"internalType":"address","name":"_lpInjection","type":"address"},{"internalType":"address","name":"_buyback","type":"address"}],"name":"setWallets","outputs":[],"stateMutability":"nonpayable","type":"function"},{"inputs":[{"internalType":"uint256","name":"cycleDays","type":"uint256"}],"name":"stakeLiquidity","outputs":[],"stateMutability":"nonpayable","type":"function"},{"inputs":[],"name":"swapBuyTax","outputs":[{"internalType":"uint256","name":"","type":"uint256"}],"stateMutability":"view","type":"function"},{"inputs":[{"internalType":"uint256","name":"jbcAmount","type":"uint256"}],"name":"swapJBCToMC","outputs":[],"stateMutability":"nonpayable","type":"function"},{"inputs":[{"internalType":"uint256","name":"mcAmount","type":"uint256"}],"name":"swapMCToJBC","outputs":[],"stateMutability":"nonpayable","type":"function"},{"inputs":[],"name":"swapReserveJBC","outputs":[{"internalType":"uint256","name":"","type":"uint256"}],"stateMutability":"view","type":"function"},{"inputs":[],"name":"swapReserveMC","outputs":[{"internalType":"uint256","name":"","type":"uint256"}],"stateMutability":"view","type":"function"},{"inputs":[],"name":"swapSellTax","outputs":[{"internalType":"uint256","name":"","type":"uint256"}],"stateMutability":"view","type":"function"},{"inputs":[{"internalType":"uint256","name":"","type":"uint256"},{"internalType":"uint256","name":"","type":"uint256"}],"name":"ticketPendingRewards","outputs":[{"internalType":"address","name":"upline","type":"address"},{"internalType":"uint256","name":"amount","type":"uint256"}],"stateMutability":"view","type":"function"},{"inputs":[{"internalType":"uint256","name":"","type":"uint256"}],"name":"ticketStaticPaid","outputs":[{"internalType":"uint256","name":"","type":"uint256"}],"stateMutability":"view","type":"function"},{"inputs":[{"internalType":"address","name":"newOwner","type":"address"}],"name":"transferOwnership","outputs":[],"stateMutability":"nonpayable","type":"function"},{"inputs":[],"name":"treasuryPercent","outputs":[{"internalType":"uint256","name":"","type":"uint256"}],"stateMutability":"view","type":"function"},{"inputs":[],"name":"treasuryWallet","outputs":[{"internalType":"address","name":"","type":"address"}],"stateMutability":"view","type":"function"},{"inputs":[{"internalType":"address","name":"","type":"address"}],"name":"userInfo","outputs":[{"internalType":"address","name":"referrer","type":"address"},{"internalType":"uint256","name":"activeDirects","type":"uint256"},{"internalType":"uint256","name":"teamCount","type":"uint256"},{"internalType":"uint256","name":"totalRevenue","type":"uint256"},{"internalType":"uint256","name":"currentCap","type":"uint256"},{"internalType":"bool","name":"isActive","type":"bool"},{"internalType":"uint256","name":"refundFeeAmount","type":"uint256"}],"stateMutability":"view","type":"function"},{"inputs":[{"internalType":"address","name":"","type":"address"}],"name":"userTicket","outputs":[{"internalType":"uint256","name":"ticketId","type":"uint256"},{"internalType":"uint256","name":"amount","type":"uint256"},{"internalType":"uint256","name":"requiredLiquidity","type":"uint256"},{"internalType":"uint256","name":"purchaseTime","type":"uint256"},{"internalType":"bool","name":"liquidityProvided","type":"bool"},{"internalType":"uint256","name":"liquidityAmount","type":"uint256"},{"internalType":"uint256","name":"startTime","type":"uint256"},{"internalType":"uint256","name":"cycleDays","type":"uint256"},{"internalType":"bool","name":"redeemed","type":"bool"},{"internalType":"bool","name":"exited","type":"bool"}],"stateMutability":"view","type":"function"}],"evm":{"bytecode":{"linkReferences":{},"object":"60806040526019600855600f6009556005600a556005600b556019600c556019600d556001600e556032600f5560196010553480156200003e57600080fd5b506040516200386238038062003862833981016040819052620000619162000178565b33806200008857604051631e4fbdf760e01b81526000600482015260240160405180910390fd5b62000093816200010b565b5060018055600280546001600160a01b03199081166001600160a01b0398891617909155600380548216968816969096179095556004805486169487169490941790935560058054851692861692909217909155600680548416918516919091179055600780549092169216919091179055620001f9565b600080546001600160a01b038381166001600160a01b0319831681178455604051919092169283917f8be0079c531659141344cd1fd0a4f28419497f9722a3daafe3b4186f6b6457e09190a35050565b80516001600160a01b03811681146200017357600080fd5b919050565b60008060008060008060c087890312156200019257600080fd5b6200019d876200015b565b9550620001ad602088016200015b565b9450620001bd604088016200015b565b9350620001cd606088016200015b565b9250620001dd608088016200015b565b9150620001ed60a088016200015b565b90509295509295509295565b61365980620002096000396000f3fe608060405234801561001057600080fd5b50600436106102d65760003560e01c8063813380cd11610182578063a2af9226116100e9578063d8020a18116100a2578063e4412f681161007c578063e4412f68146106fc578063ecda2d3214610705578063f1d34d4e14610718578063f2fde38b1461073857600080fd5b8063d8020a18146106d7578063deab8aea146106e0578063dec7fa3b146106f357600080fd5b8063a2af92261461068e578063bd594dcf146106a1578063be040fb0146106aa578063ccf61944146106b2578063ceaa366d146106bb578063d241e001146106c457600080fd5b80638c0eaa481161013b5780638c0eaa48146106335780638da5cb5b1461063b57806390b0eb511461064c5780639370b0801461065f57806395253992146106685780639cd441da1461067b57600080fd5b8063813380cd1461050757806383672f3e1461052857806386481d401461053b5780638710bcaa1461056357806388fd4d33146106185780638a859a851461062b57600080fd5b8063372500ab1161024157806362eea914116101fa578063715018a6116101d4578063715018a6146104d057806375f0a874146104d857806377a2a540146104eb5780637dbc1df0146104f457600080fd5b806362eea9141461049757806367dd74ca146104aa5780636fb3c47c146104bd57600080fd5b8063372500ab146104505780633a3ea2f0146104585780634626402b14610460578063488b5d971461047357806352778b051461047b5780636031a52f1461048e57600080fd5b80631427f616116102935780631427f616146103775780631788513c1461037f5780631959a002146103925780631d0dac761461042b57806327f082f414610434578063350763731461043d57600080fd5b806304ef9d58146102db57806304f618cb146102f7578063054d50d41461030c57806305ad39351461031f5780630a5c45671461034a5780630e2be2101461035d575b600080fd5b6102e4600d5481565b6040519081526020015b60405180910390f35b61030a610305366004613301565b61074b565b005b6102e461031a366004613323565b6108b8565b61033261032d36600461334f565b61098e565b6040516001600160a01b0390911681526020016102ee565b61030a610358366004613379565b6109c6565b610365600281565b60405160ff90911681526020016102ee565b610365600081565b600354610332906001600160a01b031681565b6103ea6103a0366004613301565b60116020526000908152604090208054600182015460028301546003840154600485015460058601546006909601546001600160a01b0390951695939492939192909160ff169087565b604080516001600160a01b03909816885260208801969096529486019390935260608501919091526080840152151560a083015260c082015260e0016102ee565b6102e460175481565b6102e4600f5481565b61030a61044b366004613379565b610cda565b61030a61106d565b6102e4611585565b600554610332906001600160a01b031681565b6102e4603c81565b61030a610489366004613379565b6116a6565b6102e460185481565b61030a6104a5366004613392565b6119bf565b61030a6104b8366004613379565b611a41565b61030a6104cb3660046133be565b612020565b61030a61204f565b600454610332906001600160a01b031681565b6102e460165481565b61030a610502366004613379565b612061565b61051a6105153660046133f1565b6120ad565b6040516102ee929190613413565b61030a61053636600461342c565b6120f3565b61054e610549366004613379565b61214b565b604080519283526020830191909152016102ee565b6105ca610571366004613301565b601260205260009081526040902080546001820154600283015460038401546004850154600586015460068701546007880154600890980154969795969495939460ff938416949293919291818116916101009004168a565b604080519a8b5260208b0199909952978901969096526060880194909452911515608087015260a086015260c085015260e084015215156101008301521515610120820152610140016102ee565b600654610332906001600160a01b031681565b610365600181565b610365600381565b6000546001600160a01b0316610332565b61030a61065a3660046133f1565b612214565b6102e460105481565b600254610332906001600160a01b031681565b61030a6106893660046133f1565b612273565b61030a61069c366004613480565b61242d565b6102e460095481565b61030a612631565b6102e460085481565b6102e4600c5481565b61030a6106d2366004613392565b612854565b6102e4600a5481565b600754610332906001600160a01b031681565b6102e4600e5481565b6102e4600b5481565b61030a6107133660046134aa565b61288e565b6102e4610726366004613379565b60156020526000908152604090205481565b61030a610746366004613301565b61292c565b336000908152601160205260409020546001600160a01b0316156107a65760405162461bcd60e51b815260206004820152600d60248201526c105b1c9958591e48189bdd5b99609a1b60448201526064015b60405180910390fd5b336001600160a01b038216036107f15760405162461bcd60e51b815260206004820152601060248201526f21b0b73737ba103134b7321039b2b63360811b604482015260640161079d565b6001600160a01b03811661083a5760405162461bcd60e51b815260206004820152601060248201526f24b73b30b634b2103932b332b93932b960811b604482015260640161079d565b33600081815260116020908152604080832080546001600160a01b0387166001600160a01b0319918216811790925581855260138452828520805460018101825590865293852090930180549093168517909255519092917fa6dbb5aa28f35437de94d685d66edce5fb4812196b4984b91dfd5a7b38c0fb3091a350565b60008084116109095760405162461bcd60e51b815260206004820152601960248201527f496e73756666696369656e7420696e70757420616d6f756e7400000000000000604482015260640161079d565b6000831180156109195750600082115b61095e5760405162461bcd60e51b8152602060048201526016602482015275496e73756666696369656e74206c697175696469747960501b604482015260640161079d565b600061096a8386613503565b905060006109788686613520565b90506109848183613533565b9695505050505050565b601360205281600052604060002081815481106109aa57600080fd5b6000918252602090912001546001600160a01b03169150829050565b6109ce612967565b60008111610a0f5760405162461bcd60e51b815260206004820152600e60248201526d125b9d985b1a5908185b5bdd5b9d60921b604482015260640161079d565b6002546040516323b872dd60e01b81526001600160a01b03909116906323b872dd90610a4390339030908690600401613555565b6020604051808303816000875af1158015610a62573d6000803e3d6000fd5b505050506040513d601f19601f82011682018060405250810190610a869190613579565b506000610a98826016546017546108b8565b905060006064600f5483610aac9190613503565b610ab69190613533565b90506000610ac4828461359b565b6003546040516370a0823160e01b815230600482015291925084916001600160a01b03909116906370a0823190602401602060405180830381865afa158015610b11573d6000803e3d6000fd5b505050506040513d601f19601f82011682018060405250810190610b3591906135ae565b1015610b835760405162461bcd60e51b815260206004820152601a60248201527f496e73756666696369656e74204a4243206c6971756964697479000000000000604482015260640161079d565b8360166000828254610b959190613520565b925050819055508260176000828254610bae919061359b565b9091555050600354604051630852cd8d60e31b8152600481018490526001600160a01b03909116906342966c6890602401600060405180830381600087803b158015610bf957600080fd5b505af1158015610c0d573d6000803e3d6000fd5b505060035460405163a9059cbb60e01b81526001600160a01b03909116925063a9059cbb9150610c439033908590600401613413565b6020604051808303816000875af1158015610c62573d6000803e3d6000fd5b505050506040513d601f19601f82011682018060405250810190610c869190613579565b50604080518581526020810183905290810183905233907f36864aeefce16bc4aaceeb6b0cdfb2ad1455a8cb4ccb0db148a2bc6e7166f97c906060015b60405180910390a2505050610cd760018055565b50565b610ce2612967565b336000908152601260205260409020600181015415801590610d095750600481015460ff16155b610d4c5760405162461bcd60e51b8152602060048201526014602482015273496e76616c6964207469636b657420737461746560601b604482015260640161079d565b6008810154610100900460ff1615610d965760405162461bcd60e51b815260206004820152600d60248201526c151a58dad95d08195e1a5d1959609a1b604482015260640161079d565b6003810154610da8906203f480613520565b421115610de85760405162461bcd60e51b815260206004820152600e60248201526d151a58dad95d08195e1c1a5c995960921b604482015260640161079d565b8160071480610df7575081600f145b80610e02575081601e145b610e3e5760405162461bcd60e51b815260206004820152600d60248201526c496e76616c6964206379636c6560981b604482015260640161079d565b60028082015490546040516323b872dd60e01b81526001600160a01b03909116906323b872dd90610e7790339030908690600401613555565b6020604051808303816000875af1158015610e96573d6000803e3d6000fd5b505050506040513d601f19601f82011682018060405250810190610eba9190613579565b5060048201805460ff191660011790556005820181905542600683015560078201839055604080518281526020810185905233917f1e54d7530dad81af38adb8ca9db02add3130668375f37be85396403616fc3d49910160405180910390a233600090815260116020526040902060060154801561106157336000908152601160205260408082206006019190915560025490516370a0823160e01b815230600482015282916001600160a01b0316906370a0823190602401602060405180830381865afa158015610f90573d6000803e3d6000fd5b505050506040513d601f19601f82011682018060405250810190610fb491906135ae565b106110615760025460405163a9059cbb60e01b81526001600160a01b039091169063a9059cbb90610feb9033908590600401613413565b6020604051808303816000875af115801561100a573d6000803e3d6000fd5b505050506040513d601f19601f8201168201806040525081019061102e9190613579565b5060405181815233907f3437b9ea7fa19c6d233dd70cc787a70fab87cee64d8ba4571512cc84402748f990602001610cc3565b505050610cd760018055565b611075612967565b336000908152601260205260409020600481015460ff16801561109d5750600881015460ff16155b80156110b357506008810154610100900460ff16155b6110ec5760405162461bcd60e51b815260206004820152600a6024820152694e6f742061637469766560b01b604482015260640161079d565b6000816007015460070361110257506014611126565b8160070154600f0361111657506019611126565b8160070154601e036111265750601e5b6000603c83600601544261113a919061359b565b6111449190613533565b90508260070154811115611159575060078201545b8060000361119c5760405162461bcd60e51b815260206004820152601060248201526f13195cdcc81d1a185b880c481d5b9a5d60821b604482015260640161079d565b60006103e8828486600501546111b29190613503565b6111bc9190613503565b6111c69190613533565b8454600090815260156020526040812054919250818311156111ef576111ec828461359b565b90505b600081116112305760405162461bcd60e51b815260206004820152600e60248201526d4e6f206e6577207265776172647360901b604482015260640161079d565b3360009081526011602052604090206004810154600390910154611255908390613520565b111561128257336000908152601160205260409020600381015460049091015461127f919061359b565b90505b8060000361129e5761129333612991565b50505050505061157a565b8554600090815260156020526040812080548392906112be908490613520565b909155505033600090815260116020526040812060030180548392906112e5908490613520565b90915550600090506112f8600283613533565b90506000611307600284613533565b6002546040516370a0823160e01b815230600482015291925083916001600160a01b03909116906370a0823190602401602060405180830381865afa158015611354573d6000803e3d6000fd5b505050506040513d601f19601f8201168201806040525081019061137891906135ae565b106113f45760025460405163a9059cbb60e01b81526001600160a01b039091169063a9059cbb906113af9033908690600401613413565b6020604051808303816000875af11580156113ce573d6000803e3d6000fd5b505050506040513d601f19601f820116820180604052508101906113f29190613579565b505b60006113fe611585565b905060008161141584670de0b6b3a7640000613503565b61141f9190613533565b6003546040516370a0823160e01b815230600482015291925082916001600160a01b03909116906370a0823190602401602060405180830381865afa15801561146c573d6000803e3d6000fd5b505050506040513d601f19601f8201168201806040525081019061149091906135ae565b1061150c5760035460405163a9059cbb60e01b81526001600160a01b039091169063a9059cbb906114c79033908590600401613413565b6020604051808303816000875af11580156114e6573d6000803e3d6000fd5b505050506040513d601f19601f8201168201806040525081019061150a9190613579565b505b604080518681526000602082015233917ff381583145e90b82cc5e529bf4fc4d0e44397174cdf145c4251ac33ef195a424910160405180910390a233600090815260116020526040902060048101546003909101541061156f5761156f33612991565b505050505050505050505b61158360018055565b565b6002546040516370a0823160e01b815230600482015260009182916001600160a01b03909116906370a0823190602401602060405180830381865afa1580156115d2573d6000803e3d6000fd5b505050506040513d601f19601f820116820180604052508101906115f691906135ae565b6003546040516370a0823160e01b81523060048201529192506000916001600160a01b03909116906370a0823190602401602060405180830381865afa158015611644573d6000803e3d6000fd5b505050506040513d601f19601f8201168201806040525081019061166891906135ae565b90508060000361168257670de0b6b3a76400009250505090565b8061169583670de0b6b3a7640000613503565b61169f9190613533565b9250505090565b6116ae612967565b600081116116ef5760405162461bcd60e51b815260206004820152600e60248201526d125b9d985b1a5908185b5bdd5b9d60921b604482015260640161079d565b6003546040516323b872dd60e01b81526001600160a01b03909116906323b872dd9061172390339030908690600401613555565b6020604051808303816000875af1158015611742573d6000803e3d6000fd5b505050506040513d601f19601f820116820180604052508101906117669190613579565b5060006064601054836117799190613503565b6117839190613533565b90506000611791828461359b565b600354604051630852cd8d60e31b8152600481018590529192506001600160a01b0316906342966c6890602401600060405180830381600087803b1580156117d857600080fd5b505af11580156117ec573d6000803e3d6000fd5b505050506000611801826017546016546108b8565b6002546040516370a0823160e01b815230600482015291925082916001600160a01b03909116906370a0823190602401602060405180830381865afa15801561184e573d6000803e3d6000fd5b505050506040513d601f19601f8201168201806040525081019061187291906135ae565b10156118c05760405162461bcd60e51b815260206004820152601960248201527f496e73756666696369656e74204d43206c697175696469747900000000000000604482015260640161079d565b83601760008282546118d29190613520565b9250508190555081601760008282546118eb9190613520565b925050819055508060166000828254611904919061359b565b909155505060025460405163a9059cbb60e01b81526001600160a01b039091169063a9059cbb9061193b9033908590600401613413565b6020604051808303816000875af115801561195a573d6000803e3d6000fd5b505050506040513d601f19601f8201168201806040525081019061197e9190613579565b50604080518581526020810183905290810184905233907f223c8ad0806f634524940a8595f819c5cfc7b1f4f4f45791269301df0a7e61d590606001610cc3565b6119c7612bd5565b60035460405163a9059cbb60e01b81526001600160a01b039091169063a9059cbb906119f99084908690600401613413565b6020604051808303816000875af1158015611a18573d6000803e3d6000fd5b505050506040513d601f19601f82011682018060405250810190611a3c9190613579565b505050565b611a49612967565b8068056bc75e2d631000001480611a68575080681043561a8829300000145b80611a7b575080681b1ae4d6e2ef500000145b80611a8e575080683635c9adc5dea00000145b611ad25760405162461bcd60e51b8152602060048201526015602482015274125b9d985b1a59081d1a58dad95d08185b5bdd5b9d605a1b604482015260640161079d565b6002546040516323b872dd60e01b81526001600160a01b03909116906323b872dd90611b0690339030908690600401613555565b6020604051808303816000875af1158015611b25573d6000803e3d6000fd5b505050506040513d601f19601f82011682018060405250810190611b499190613579565b5060188054906000611b5a836135c7565b919050555060405180610140016040528060185481526020018281526020016064836096611b889190613503565b611b929190613533565b815242602080830191909152600060408084018290526060808501839052608080860184905260a080870185905260c080880186905260e09788018690523386526012875284862089518155898801516001820155898601516002820155938901516003808601919091559289015160048501805460ff1916911515919091179055908801516005840155870151600683015594860151600782015561010080870151600890920180546101209098015161ffff1990981692151561ff0019169290921796151502959095179094556011909152918220810191909155611c7a908290613503565b33600090815260116020526040902060048101919091556005015460ff16611cf95733600090815260116020526040902060058101805460ff19166001179055546001600160a01b03168015611cf7576001600160a01b0381166000908152601160205260408120600101805491611cf1836135c7565b91905055505b505b336000908152601160205260409020546001600160a01b03168015611d48576000606460085484611d2a9190613503565b611d349190613533565b9050611d4282826002612c02565b50611dde565b6002546004546008546001600160a01b039283169263a9059cbb921690606490611d729087613503565b611d7c9190613533565b6040518363ffffffff1660e01b8152600401611d99929190613413565b6020604051808303816000875af1158015611db8573d6000803e3d6000fd5b505050506040513d601f19601f82011682018060405250810190611ddc9190613579565b505b611deb3383601854612db1565b600254600454600a546001600160a01b039283169263a9059cbb921690606490611e159087613503565b611e1f9190613533565b6040518363ffffffff1660e01b8152600401611e3c929190613413565b6020604051808303816000875af1158015611e5b573d6000803e3d6000fd5b505050506040513d601f19601f82011682018060405250810190611e7f9190613579565b5060006064600b5484611e929190613503565b611e9c9190613533565b9050611ea781612f28565b600254600654600c546001600160a01b039283169263a9059cbb921690606490611ed19088613503565b611edb9190613533565b6040518363ffffffff1660e01b8152600401611ef8929190613413565b6020604051808303816000875af1158015611f17573d6000803e3d6000fd5b505050506040513d601f19601f82011682018060405250810190611f3b9190613579565b50600254600554600d546001600160a01b039283169263a9059cbb921690606490611f669088613503565b611f709190613533565b6040518363ffffffff1660e01b8152600401611f8d929190613413565b6020604051808303816000875af1158015611fac573d6000803e3d6000fd5b505050506040513d601f19601f82011682018060405250810190611fd09190613579565b5060185460405133917f2a91574e12ad96234e84923e146b0946ecfb871cd8d5534dc1fdcbe87a7c01b39161200d91878252602082015260400190565b60405180910390a25050610cd760018055565b612028612bd5565b6001600160a01b039092166000908152601160205260409020600181019190915560020155565b612057612bd5565b61158360006130e0565b612069612bd5565b60648111156120a85760405162461bcd60e51b815260206004820152600b60248201526a496e76616c69642066656560a81b604482015260640161079d565b600e55565b601460205281600052604060002081815481106120c957600080fd5b6000918252602090912060029091020180546001909101546001600160a01b039091169250905082565b6120fb612bd5565b600480546001600160a01b039586166001600160a01b0319918216179091556005805494861694821694909417909355600680549285169284169290921790915560078054919093169116179055565b600080620186a083106121645750600992602d92509050565b61753083106121795750600892602892509050565b612710831061218e5750600792602392509050565b610bb883106121a35750600692601e92509050565b6103e883106121b85750600592601992509050565b61012c83106121cd5750600492601492509050565b606483106121e15750600392600f92509050565b601e83106121f55750600292600a92509050565b600a83106122095750600192600592509050565b506000928392509050565b61221c612bd5565b6064821115801561222e575060648111155b6122685760405162461bcd60e51b815260206004820152600b60248201526a092dcecc2d8d2c840e8c2f60ab1b604482015260640161079d565b600f91909155601055565b61227b612bd5565b600082118061228a5750600081115b6122c45760405162461bcd60e51b815260206004820152600b60248201526a16995c9bc8185b5bdd5b9d60aa1b604482015260640161079d565b811561235a576002546040516323b872dd60e01b81526001600160a01b03909116906323b872dd906122fe90339030908790600401613555565b6020604051808303816000875af115801561231d573d6000803e3d6000fd5b505050506040513d601f19601f820116820180604052508101906123419190613579565b5081601660008282546123549190613520565b90915550505b80156123f0576003546040516323b872dd60e01b81526001600160a01b03909116906323b872dd9061239490339030908690600401613555565b6020604051808303816000875af11580156123b3573d6000803e3d6000fd5b505050506040513d601f19601f820116820180604052508101906123d79190613579565b5080601760008282546123ea9190613520565b90915550505b60408051838152602081018390527f38f8a0c92f4c5b0b6877f878cb4c0c8d348a47b76d716c8e78f425043df9515b910160405180910390a15050565b612435612bd5565b806001600160a01b0316826001600160a01b0316036124895760405162461bcd60e51b815260206004820152601060248201526f21b0b73737ba103134b7321039b2b63360811b604482015260640161079d565b6001600160a01b03808316600090815260116020526040902080548383166001600160a01b03198216179091551680156125e0576001600160a01b0381166000908152601360205260408120905b81548110156125dd57846001600160a01b03168282815481106124fc576124fc6135e0565b6000918252602090912001546001600160a01b0316036125cb57815482906125269060019061359b565b81548110612536576125366135e0565b9060005260206000200160009054906101000a90046001600160a01b0316828281548110612566576125666135e0565b9060005260206000200160006101000a8154816001600160a01b0302191690836001600160a01b03160217905550818054806125a4576125a46135f6565b600082815260209020810160001990810180546001600160a01b03191690550190556125dd565b806125d5816135c7565b9150506124d7565b50505b6001600160a01b03821615611a3c57506001600160a01b0390811660009081526013602090815260408220805460018101825590835291200180546001600160a01b03191692909116919091179055565b612639612967565b336000908152601260205260409020600481015460ff1680156126615750600881015460ff16155b801561267757506008810154610100900460ff16155b6126b35760405162461bcd60e51b815260206004820152600d60248201526c43616e6e6f742072656465656d60981b604482015260640161079d565b603c81600701546126c49190613503565b81600601546126d39190613520565b4210156127175760405162461bcd60e51b815260206004820152601260248201527110de58db19481b9bdd08199a5b9a5cda195960721b604482015260640161079d565b60006064600e54836001015461272d9190613503565b6127379190613533565b600583015490915081811061275757612750828261359b565b905061275c565b600091505b60025460405163a9059cbb60e01b81526001600160a01b039091169063a9059cbb9061278e9033908590600401613413565b6020604051808303816000875af11580156127ad573d6000803e3d6000fd5b505050506040513d601f19601f820116820180604052508101906127d19190613579565b50336000818152601160205260409081902060060184905560088501805460ff19166001179055600585015490517ff3a670cd3af7d64b488926880889d08a8585a138ff455227af6737339a1ec26291612835918690918252602082015260400190565b60405180910390a2825461284890613130565b50505061158360018055565b61285c612bd5565b60025460405163a9059cbb60e01b81526001600160a01b039091169063a9059cbb906119f99084908690600401613413565b612896612bd5565b808284866128a4898b613520565b6128ae9190613520565b6128b89190613520565b6128c29190613520565b6128cc9190613520565b60641461290f5760405162461bcd60e51b81526020600482015260116024820152700546f74616c206d7573742062652031303607c1b604482015260640161079d565b600895909555600993909355600a91909155600b55600c55600d55565b612934612bd5565b6001600160a01b03811661295e57604051631e4fbdf760e01b81526000600482015260240161079d565b610cd7816130e0565b60026001540361298a57604051633ee5aeb560e01b815260040160405180910390fd5b6002600155565b6001600160a01b03811660009081526012602052604090206008810154610100900460ff16612bd15760088101805461ff001916610100179055600481015460ff1680156129e45750600881015460ff16155b15612b905760006064600e5483600101546129ff9190613503565b612a099190613533565b9050600081836005015411612a1f576000612a2f565b818360050154612a2f919061359b565b90508015612aae5760025460405163a9059cbb60e01b81526001600160a01b039091169063a9059cbb90612a699087908590600401613413565b6020604051808303816000875af1158015612a88573d6000803e3d6000fd5b505050506040513d601f19601f82011682018060405250810190612aac9190613579565b505b60088301805460ff199081166001179091556001600160a01b0380861660009081526011602052604090206005810180549093169092559054168015801590612b1157506001600160a01b03811660009081526011602052604090206001015415155b15612b43576001600160a01b0381166000908152601160205260408120600101805491612b3d8361360c565b91905055505b600584015460408051918252602082018590526001600160a01b038716917ff3a670cd3af7d64b488926880889d08a8585a138ff455227af6737339a1ec262910160405180910390a25050505b80546040519081526001600160a01b038316907f920bb94eb3842a728db98228c375ff6b00c5bc5a54fac6736155517a0a20a61a9060200160405180910390a25b5050565b6000546001600160a01b031633146115835760405163118cdaa760e01b815233600482015260240161079d565b6001600160a01b038316600090815260116020908152604080832060129092529091206008810154610100900460ff1680612c3f57506001810154155b15612c4b575050505050565b600082600301548360040154612c61919061359b565b90508481811115612cb45750604080518681526020810183905282916001600160a01b038916917fb5987aab1afd379f6695f1068869ee8ca6a0d02304c57935a9cc3d3ea2e51e4d910160405180910390a25b8015612d905780846003016000828254612cce9190613520565b909155505060025460405163a9059cbb60e01b81526001600160a01b039091169063a9059cbb90612d05908a908590600401613413565b6020604051808303816000875af1158015612d24573d6000803e3d6000fd5b505050506040513d601f19601f82011682018060405250810190612d489190613579565b506040805182815260ff871660208201526001600160a01b038916917ff381583145e90b82cc5e529bf4fc4d0e44397174cdf145c4251ac33ef195a424910160405180910390a25b8360040154846003015410612da857612da887612991565b50505050505050565b6001600160a01b0380841660009081526011602052604081205490911690805b6001600160a01b03831615801590612de95750601481105b15612f20576001600160a01b038316600090815260116020526040812060010154612e139061214b565b91505082811115612ee1576000612e2a848361359b565b905060006064612e3a838a613503565b612e449190613533565b6000888152601460209081526040808320815180830183526001600160a01b038c8116808352828601888152845460018082018755958952978790209351600290980290930180546001600160a01b03191697909216969096178155905191015551838152929350909189917fbd5e0947444d5adb46b3d24786f72907c1e8176cb1348960766a6cd6fad13e9f910160405180910390a382945050505b602d8110612eef5750612f20565b6001600160a01b039384166000908152601160205260409020549093169281612f17816135c7565b92505050612dd1565b505050505050565b6002546040516370a0823160e01b815230600482015260009183916001600160a01b03909116906370a0823190602401602060405180830381865afa158015612f75573d6000803e3d6000fd5b505050506040513d601f19601f82011682018060405250810190612f9991906135ae565b612fa3919061359b565b6003546040516370a0823160e01b81523060048201529192506000916001600160a01b03909116906370a0823190602401602060405180830381865afa158015612ff1573d6000803e3d6000fd5b505050506040513d601f19601f8201168201806040525081019061301591906135ae565b90506000821180156130275750600081115b15611a3c5760006130398484846108b8565b905080156130da57600354604051630852cd8d60e31b8152600481018390526001600160a01b03909116906342966c6890602401600060405180830381600087803b15801561308757600080fd5b505af115801561309b573d6000803e3d6000fd5b505060408051878152602081018590527f0ec3929061cbbbeecb325623e7d5a86c3dae11cb8a22ca45dc0972955657da25935001905060405180910390a15b50505050565b600080546001600160a01b038381166001600160a01b0319831681178455604051919092169283917f8be0079c531659141344cd1fd0a4f28419497f9722a3daafe3b4186f6b6457e09190a35050565b600081815260146020908152604080832080548251818502810185019093528083529192909190849084015b828210156131a4576000848152602090819020604080518082019091526002850290910180546001600160a01b0316825260019081015482840152908352909201910161315c565b50505050905060005b815181101561328c576131fc8282815181106131cb576131cb6135e0565b6020026020010151600001518383815181106131e9576131e96135e0565b6020026020010151602001516003612c02565b81818151811061320e5761320e6135e0565b6020026020010151600001516001600160a01b0316837f380d782ec118e5171a4d1e7081db076c4c94ca49c623d531763d402b094b4f24848481518110613257576132576135e0565b60200260200101516020015160405161327291815260200190565b60405180910390a380613284816135c7565b9150506131ad565b506000828152601460205260408120612bd1915080546000825560020290600052602060002090810190610cd791905b808211156132e15780546001600160a01b0319168155600060018201556002016132bc565b5090565b80356001600160a01b03811681146132fc57600080fd5b919050565b60006020828403121561331357600080fd5b61331c826132e5565b9392505050565b60008060006060848603121561333857600080fd5b505081359360208301359350604090920135919050565b6000806040838503121561336257600080fd5b61336b836132e5565b946020939093013593505050565b60006020828403121561338b57600080fd5b5035919050565b600080604083850312156133a557600080fd5b823591506133b5602084016132e5565b90509250929050565b6000806000606084860312156133d357600080fd5b6133dc846132e5565b95602085013595506040909401359392505050565b6000806040838503121561340457600080fd5b50508035926020909101359150565b6001600160a01b03929092168252602082015260400190565b6000806000806080858703121561344257600080fd5b61344b856132e5565b9350613459602086016132e5565b9250613467604086016132e5565b9150613475606086016132e5565b905092959194509250565b6000806040838503121561349357600080fd5b61349c836132e5565b91506133b5602084016132e5565b60008060008060008060c087890312156134c357600080fd5b505084359660208601359650604086013595606081013595506080810135945060a0013592509050565b634e487b7160e01b600052601160045260246000fd5b808202811582820484141761351a5761351a6134ed565b92915050565b8082018082111561351a5761351a6134ed565b60008261355057634e487b7160e01b600052601260045260246000fd5b500490565b6001600160a01b039384168152919092166020820152604081019190915260600190565b60006020828403121561358b57600080fd5b8151801515811461331c57600080fd5b8181038181111561351a5761351a6134ed565b6000602082840312156135c057600080fd5b5051919050565b6000600182016135d9576135d96134ed565b5060010190565b634e487b7160e01b600052603260045260246000fd5b634e487b7160e01b600052603160045260246000fd5b60008161361b5761361b6134ed565b50600019019056fea26469706673582212202a8234c2595cd26a06f25a6381ade075e2bd85e714ef589215242c392992ede964736f6c63430008140033","opcodes":"PUSH1 0x80 PUSH1 0x40 MSTORE PUSH1 0x19 PUSH1 0x8 SSTORE PUSH1 0xF PUSH1 0x9 SSTORE PUSH1 0x5 PUSH1 0xA SSTORE PUSH1 0x5 PUSH1 0xB SSTORE PUSH1 0x19 PUSH1 0xC SSTORE PUSH1 0x19 PUSH1 0xD SSTORE PUSH1 0x1 PUSH1 0xE SSTORE PUSH1 0x32 PUSH1 0xF SSTORE PUSH1 0x19 PUSH1 0x10 SSTORE CALLVALUE DUP1 ISZERO PUSH3 0x3E JUMPI PUSH1 0x0 DUP1 REVERT JUMPDEST POP PUSH1 0x40 MLOAD PUSH3 0x3862 CODESIZE SUB DUP1 PUSH3 0x3862 DUP4 CODECOPY DUP2 ADD PUSH1 0x40 DUP2 SWAP1 MSTORE PUSH3 0x61 SWAP2 PUSH3 0x178 JUMP JUMPDEST CALLER DUP1 PUSH3 0x88 JUMPI PUSH1 0x40 MLOAD PUSH4 0x1E4FBDF7 PUSH1 0xE0 SHL DUP2 MSTORE PUSH1 0x0 PUSH1 0x4 DUP3 ADD MSTORE PUSH1 0x24 ADD PUSH1 0x40 MLOAD DUP1 SWAP2 SUB SWAP1 REVERT JUMPDEST PUSH3 0x93 DUP2 PUSH3 0x10B JUMP JUMPDEST POP PUSH1 0x1 DUP1 SSTORE PUSH1 0x2 DUP1 SLOAD PUSH1 0x1 PUSH1 0x1 PUSH1 0xA0 SHL SUB NOT SWAP1 DUP2 AND PUSH1 0x1 PUSH1 0x1 PUSH1 0xA0 SHL SUB SWAP9 DUP10 AND OR SWAP1 SWAP2 SSTORE PUSH1 0x3 DUP1 SLOAD DUP3 AND SWAP7 DUP9 AND SWAP7 SWAP1 SWAP7 OR SWAP1 SWAP6 SSTORE PUSH1 0x4 DUP1 SLOAD DUP7 AND SWAP5 DUP8 AND SWAP5 SWAP1 SWAP5 OR SWAP1 SWAP4 SSTORE PUSH1 0x5 DUP1 SLOAD DUP6 AND SWAP3 DUP7 AND SWAP3 SWAP1 SWAP3 OR SWAP1 SWAP2 SSTORE PUSH1 0x6 DUP1 SLOAD DUP5 AND SWAP2 DUP6 AND SWAP2 SWAP1 SWAP2 OR SWAP1 SSTORE PUSH1 0x7 DUP1 SLOAD SWAP1 SWAP3 AND SWAP3 AND SWAP2 SWAP1 SWAP2 OR SWAP1 SSTORE PUSH3 0x1F9 JUMP JUMPDEST PUSH1 0x0 DUP1 SLOAD PUSH1 0x1 PUSH1 0x1 PUSH1 0xA0 SHL SUB DUP4 DUP2 AND PUSH1 0x1 PUSH1 0x1 PUSH1 0xA0 SHL SUB NOT DUP4 AND DUP2 OR DUP5 SSTORE PUSH1 0x40 MLOAD SWAP2 SWAP1 SWAP3 AND SWAP3 DUP4 SWAP2 PUSH32 0x8BE0079C531659141344CD1FD0A4F28419497F9722A3DAAFE3B4186F6B6457E0 SWAP2 SWAP1 LOG3 POP POP JUMP JUMPDEST DUP1 MLOAD PUSH1 0x1 PUSH1 0x1 PUSH1 0xA0 SHL SUB DUP2 AND DUP2 EQ PUSH3 0x173 JUMPI PUSH1 0x0 DUP1 REVERT JUMPDEST SWAP2 SWAP1 POP JUMP JUMPDEST PUSH1 0x0 DUP1 PUSH1 0x0 DUP1 PUSH1 0x0 DUP1 PUSH1 0xC0 DUP8 DUP10 SUB SLT ISZERO PUSH3 0x192 JUMPI PUSH1 0x0 DUP1 REVERT JUMPDEST PUSH3 0x19D DUP8 PUSH3 0x15B JUMP JUMPDEST SWAP6 POP PUSH3 0x1AD PUSH1 0x20 DUP9 ADD PUSH3 0x15B JUMP JUMPDEST SWAP5 POP PUSH3 0x1BD PUSH1 0x40 DUP9 ADD PUSH3 0x15B JUMP JUMPDEST SWAP4 POP PUSH3 0x1CD PUSH1 0x60 DUP9 ADD PUSH3 0x15B JUMP JUMPDEST SWAP3 POP PUSH3 0x1DD PUSH1 0x80 DUP9 ADD PUSH3 0x15B JUMP JUMPDEST SWAP2 POP PUSH3 0x1ED PUSH1 0xA0 DUP9 ADD PUSH3 0x15B JUMP JUMPDEST SWAP1 POP SWAP3 SWAP6 POP SWAP3 SWAP6 POP SWAP3 SWAP6 JUMP JUMPDEST PUSH2 0x3659 DUP1 PUSH3 0x209 PUSH1 0x0 CODECOPY PUSH1 0x0 RETURN INVALID PUSH1 0x80 PUSH1 0x40 MSTORE CALLVALUE DUP1 ISZERO PUSH2 0x10 JUMPI PUSH1 0x0 DUP1 REVERT JUMPDEST POP PUSH1 0x4 CALLDATASIZE LT PUSH2 0x2D6 JUMPI PUSH1 0x0 CALLDATALOAD PUSH1 0xE0 SHR DUP1 PUSH4 0x813380CD GT PUSH2 0x182 JUMPI DUP1 PUSH4 0xA2AF9226 GT PUSH2 0xE9 JUMPI DUP1 PUSH4 0xD8020A18 GT PUSH2 0xA2 JUMPI DUP1 PUSH4 0xE4412F68 GT PUSH2 0x7C JUMPI DUP1 PUSH4 0xE4412F68 EQ PUSH2 0x6FC JUMPI DUP1 PUSH4 0xECDA2D32 EQ PUSH2 0x705 JUMPI DUP1 PUSH4 0xF1D34D4E EQ PUSH2 0x718 JUMPI DUP1 PUSH4 0xF2FDE38B EQ PUSH2 0x738 JUMPI PUSH1 0x0 DUP1 REVERT JUMPDEST DUP1 PUSH4 0xD8020A18 EQ PUSH2 0x6D7 JUMPI DUP1 PUSH4 0xDEAB8AEA EQ PUSH2 0x6E0 JUMPI DUP1 PUSH4 0xDEC7FA3B EQ PUSH2 0x6F3 JUMPI PUSH1 0x0 DUP1 REVERT JUMPDEST DUP1 PUSH4 0xA2AF9226 EQ PUSH2 0x68E JUMPI DUP1 PUSH4 0xBD594DCF EQ PUSH2 0x6A1 JUMPI DUP1 PUSH4 0xBE040FB0 EQ PUSH2 0x6AA JUMPI DUP1 PUSH4 0xCCF61944 EQ PUSH2 0x6B2 JUMPI DUP1 PUSH4 0xCEAA366D EQ PUSH2 0x6BB JUMPI DUP1 PUSH4 0xD241E001 EQ PUSH2 0x6C4 JUMPI PUSH1 0x0 DUP1 REVERT JUMPDEST DUP1 PUSH4 0x8C0EAA48 GT PUSH2 0x13B JUMPI DUP1 PUSH4 0x8C0EAA48 EQ PUSH2 0x633 JUMPI DUP1 PUSH4 0x8DA5CB5B EQ PUSH2 0x63B JUMPI DUP1 PUSH4 0x90B0EB51 EQ PUSH2 0x64C JUMPI DUP1 PUSH4 0x9370B080 EQ PUSH2 0x65F JUMPI DUP1 PUSH4 0x95253992 EQ PUSH2 0x668 JUMPI DUP1 PUSH4 0x9CD441DA EQ PUSH2 0x67B JUMPI PUSH1 0x0 DUP1 REVERT JUMPDEST DUP1 PUSH4 0x813380CD EQ PUSH2 0x507 JUMPI DUP1 PUSH4 0x83672F3E EQ PUSH2 0x528 JUMPI DUP1 PUSH4 0x86481D40 EQ PUSH2 0x53B JUMPI DUP1 PUSH4 0x8710BCAA EQ PUSH2 0x563 JUMPI DUP1 PUSH4 0x88FD4D33 EQ PUSH2 0x618 JUMPI DUP1 PUSH4 0x8A859A85 EQ PUSH2 0x62B JUMPI PUSH1 0x0 DUP1 REVERT JUMPDEST DUP1 PUSH4 0x372500AB GT PUSH2 0x241 JUMPI DUP1 PUSH4 0x62EEA914 GT PUSH2 0x1FA JUMPI DUP1 PUSH4 0x715018A6 GT PUSH2 0x1D4 JUMPI DUP1 PUSH4 0x715018A6 EQ PUSH2 0x4D0 JUMPI DUP1 PUSH4 0x75F0A874 EQ PUSH2 0x4D8 JUMPI DUP1 PUSH4 0x77A2A540 EQ PUSH2 0x4EB JUMPI DUP1 PUSH4 0x7DBC1DF0 EQ PUSH2 0x4F4 JUMPI PUSH1 0x0 DUP1 REVERT JUMPDEST DUP1 PUSH4 0x62EEA914 EQ PUSH2 0x497 JUMPI DUP1 PUSH4 0x67DD74CA EQ PUSH2 0x4AA JUMPI DUP1 PUSH4 0x6FB3C47C EQ PUSH2 0x4BD JUMPI PUSH1 0x0 DUP1 REVERT JUMPDEST DUP1 PUSH4 0x372500AB EQ PUSH2 0x450 JUMPI DUP1 PUSH4 0x3A3EA2F0 EQ PUSH2 0x458 JUMPI DUP1 PUSH4 0x4626402B EQ PUSH2 0x460 JUMPI DUP1 PUSH4 0x488B5D97 EQ PUSH2 0x473 JUMPI DUP1 PUSH4 0x52778B05 EQ PUSH2 0x47B JUMPI DUP1 PUSH4 0x6031A52F EQ PUSH2 0x48E JUMPI PUSH1 0x0 DUP1 REVERT JUMPDEST DUP1 PUSH4 0x1427F616 GT PUSH2 0x293 JUMPI DUP1 PUSH4 0x1427F616 EQ PUSH2 0x377 JUMPI DUP1 PUSH4 0x1788513C EQ PUSH2 0x37F JUMPI DUP1 PUSH4 0x1959A002 EQ PUSH2 0x392 JUMPI DUP1 PUSH4 0x1D0DAC76 EQ PUSH2 0x42B JUMPI DUP1 PUSH4 0x27F082F4 EQ PUSH2 0x434 JUMPI DUP1 PUSH4 0x35076373 EQ PUSH2 0x43D JUMPI PUSH1 0x0 DUP1 REVERT JUMPDEST DUP1 PUSH4 0x4EF9D58 EQ PUSH2 0x2DB JUMPI DUP1 PUSH4 0x4F618CB EQ PUSH2 0x2F7 JUMPI DUP1 PUSH4 0x54D50D4 EQ PUSH2 0x30C JUMPI DUP1 PUSH4 0x5AD3935 EQ PUSH2 0x31F JUMPI DUP1 PUSH4 0xA5C4567 EQ PUSH2 0x34A JUMPI DUP1 PUSH4 0xE2BE210 EQ PUSH2 0x35D JUMPI JUMPDEST PUSH1 0x0 DUP1 REVERT JUMPDEST PUSH2 0x2E4 PUSH1 0xD SLOAD DUP2 JUMP JUMPDEST PUSH1 0x40 MLOAD SWAP1 DUP2 MSTORE PUSH1 0x20 ADD JUMPDEST PUSH1 0x40 MLOAD DUP1 SWAP2 SUB SWAP1 RETURN JUMPDEST PUSH2 0x30A PUSH2 0x305 CALLDATASIZE PUSH1 0x4 PUSH2 0x3301 JUMP JUMPDEST PUSH2 0x74B JUMP JUMPDEST STOP JUMPDEST PUSH2 0x2E4 PUSH2 0x31A CALLDATASIZE PUSH1 0x4 PUSH2 0x3323 JUMP JUMPDEST PUSH2 0x8B8 JUMP JUMPDEST PUSH2 0x332 PUSH2 0x32D CALLDATASIZE PUSH1 0x4 PUSH2 0x334F JUMP JUMPDEST PUSH2 0x98E JUMP JUMPDEST PUSH1 0x40 MLOAD PUSH1 0x1 PUSH1 0x1 PUSH1 0xA0 SHL SUB SWAP1 SWAP2 AND DUP2 MSTORE PUSH1 0x20 ADD PUSH2 0x2EE JUMP JUMPDEST PUSH2 0x30A PUSH2 0x358 CALLDATASIZE PUSH1 0x4 PUSH2 0x3379 JUMP JUMPDEST PUSH2 0x9C6 JUMP JUMPDEST PUSH2 0x365 PUSH1 0x2 DUP2 JUMP JUMPDEST PUSH1 0x40 MLOAD PUSH1 0xFF SWAP1 SWAP2 AND DUP2 MSTORE PUSH1 0x20 ADD PUSH2 0x2EE JUMP JUMPDEST PUSH2 0x365 PUSH1 0x0 DUP2 JUMP JUMPDEST PUSH1 0x3 SLOAD PUSH2 0x332 SWAP1 PUSH1 0x1 PUSH1 0x1 PUSH1 0xA0 SHL SUB AND DUP2 JUMP JUMPDEST PUSH2 0x3EA PUSH2 0x3A0 CALLDATASIZE PUSH1 0x4 PUSH2 0x3301 JUMP JUMPDEST PUSH1 0x11 PUSH1 0x20 MSTORE PUSH1 0x0 SWAP1 DUP2 MSTORE PUSH1 0x40 SWAP1 KECCAK256 DUP1 SLOAD PUSH1 0x1 DUP3 ADD SLOAD PUSH1 0x2 DUP4 ADD SLOAD PUSH1 0x3 DUP5 ADD SLOAD PUSH1 0x4 DUP6 ADD SLOAD PUSH1 0x5 DUP7 ADD SLOAD PUSH1 0x6 SWAP1 SWAP7 ADD SLOAD PUSH1 0x1 PUSH1 0x1 PUSH1 0xA0 SHL SUB SWAP1 SWAP6 AND SWAP6 SWAP4 SWAP5 SWAP3 SWAP4 SWAP2 SWAP3 SWAP1 SWAP2 PUSH1 0xFF AND SWAP1 DUP8 JUMP JUMPDEST PUSH1 0x40 DUP1 MLOAD PUSH1 0x1 PUSH1 0x1 PUSH1 0xA0 SHL SUB SWAP1 SWAP9 AND DUP9 MSTORE PUSH1 0x20 DUP9 ADD SWAP7 SWAP1 SWAP7 MSTORE SWAP5 DUP7 ADD SWAP4 SWAP1 SWAP4 MSTORE PUSH1 0x60 DUP6 ADD SWAP2 SWAP1 SWAP2 MSTORE PUSH1 0x80 DUP5 ADD MSTORE ISZERO ISZERO PUSH1 0xA0 DUP4 ADD MSTORE PUSH1 0xC0 DUP3 ADD MSTORE PUSH1 0xE0 ADD PUSH2 0x2EE JUMP JUMPDEST PUSH2 0x2E4 PUSH1 0x17 SLOAD DUP2 JUMP JUMPDEST PUSH2 0x2E4 PUSH1 0xF SLOAD DUP2 JUMP JUMPDEST PUSH2 0x30A PUSH2 0x44B CALLDATASIZE PUSH1 0x4 PUSH2 0x3379 JUMP JUMPDEST PUSH2 0xCDA JUMP JUMPDEST PUSH2 0x30A PUSH2 0x106D JUMP JUMPDEST PUSH2 0x2E4 PUSH2 0x1585 JUMP JUMPDEST PUSH1 0x5 SLOAD PUSH2 0x332 SWAP1 PUSH1 0x1 PUSH1 0x1 PUSH1 0xA0 SHL SUB AND DUP2 JUMP JUMPDEST PUSH2 0x2E4 PUSH1 0x3C DUP2 JUMP JUMPDEST PUSH2 0x30A PUSH2 0x489 CALLDATASIZE PUSH1 0x4 PUSH2 0x3379 JUMP JUMPDEST PUSH2 0x16A6 JUMP JUMPDEST PUSH2 0x2E4 PUSH1 0x18 SLOAD DUP2 JUMP JUMPDEST PUSH2 0x30A PUSH2 0x4A5 CALLDATASIZE PUSH1 0x4 PUSH2 0x3392 JUMP JUMPDEST PUSH2 0x19BF JUMP JUMPDEST PUSH2 0x30A PUSH2 0x4B8 CALLDATASIZE PUSH1 0x4 PUSH2 0x3379 JUMP JUMPDEST PUSH2 0x1A41 JUMP JUMPDEST PUSH2 0x30A PUSH2 0x4CB CALLDATASIZE PUSH1 0x4 PUSH2 0x33BE JUMP JUMPDEST PUSH2 0x2020 JUMP JUMPDEST PUSH2 0x30A PUSH2 0x204F JUMP JUMPDEST PUSH1 0x4 SLOAD PUSH2 0x332 SWAP1 PUSH1 0x1 PUSH1 0x1 PUSH1 0xA0 SHL SUB AND DUP2 JUMP JUMPDEST PUSH2 0x2E4 PUSH1 0x16 SLOAD DUP2 JUMP JUMPDEST PUSH2 0x30A PUSH2 0x502 CALLDATASIZE PUSH1 0x4 PUSH2 0x3379 JUMP JUMPDEST PUSH2 0x2061 JUMP JUMPDEST PUSH2 0x51A PUSH2 0x515 CALLDATASIZE PUSH1 0x4 PUSH2 0x33F1 JUMP JUMPDEST PUSH2 0x20AD JUMP JUMPDEST PUSH1 0x40 MLOAD PUSH2 0x2EE SWAP3 SWAP2 SWAP1 PUSH2 0x3413 JUMP JUMPDEST PUSH2 0x30A PUSH2 0x536 CALLDATASIZE PUSH1 0x4 PUSH2 0x342C JUMP JUMPDEST PUSH2 0x20F3 JUMP JUMPDEST PUSH2 0x54E PUSH2 0x549 CALLDATASIZE PUSH1 0x4 PUSH2 0x3379 JUMP JUMPDEST PUSH2 0x214B JUMP JUMPDEST PUSH1 0x40 DUP1 MLOAD SWAP3 DUP4 MSTORE PUSH1 0x20 DUP4 ADD SWAP2 SWAP1 SWAP2 MSTORE ADD PUSH2 0x2EE JUMP JUMPDEST PUSH2 0x5CA PUSH2 0x571 CALLDATASIZE PUSH1 0x4 PUSH2 0x3301 JUMP JUMPDEST PUSH1 0x12 PUSH1 0x20 MSTORE PUSH1 0x0 SWAP1 DUP2 MSTORE PUSH1 0x40 SWAP1 KECCAK256 DUP1 SLOAD PUSH1 0x1 DUP3 ADD SLOAD PUSH1 0x2 DUP4 ADD SLOAD PUSH1 0x3 DUP5 ADD SLOAD PUSH1 0x4 DUP6 ADD SLOAD PUSH1 0x5 DUP7 ADD SLOAD PUSH1 0x6 DUP8 ADD SLOAD PUSH1 0x7 DUP9 ADD SLOAD PUSH1 0x8 SWAP1 SWAP9 ADD SLOAD SWAP7 SWAP8 SWAP6 SWAP7 SWAP5 SWAP6 SWAP4 SWAP5 PUSH1 0xFF SWAP4 DUP5 AND SWAP5 SWAP3 SWAP4 SWAP2 SWAP3 SWAP2 DUP2 DUP2 AND SWAP2 PUSH2 0x100 SWAP1 DIV AND DUP11 JUMP JUMPDEST PUSH1 0x40 DUP1 MLOAD SWAP11 DUP12 MSTORE PUSH1 0x20 DUP12 ADD SWAP10 SWAP1 SWAP10 MSTORE SWAP8 DUP10 ADD SWAP7 SWAP1 SWAP7 MSTORE PUSH1 0x60 DUP9 ADD SWAP5 SWAP1 SWAP5 MSTORE SWAP2 ISZERO ISZERO PUSH1 0x80 DUP8 ADD MSTORE PUSH1 0xA0 DUP7 ADD MSTORE PUSH1 0xC0 DUP6 ADD MSTORE PUSH1 0xE0 DUP5 ADD MSTORE ISZERO ISZERO PUSH2 0x100 DUP4 ADD MSTORE ISZERO ISZERO PUSH2 0x120 DUP3 ADD MSTORE PUSH2 0x140 ADD PUSH2 0x2EE JUMP JUMPDEST PUSH1 0x6 SLOAD PUSH2 0x332 SWAP1 PUSH1 0x1 PUSH1 0x1 PUSH1 0xA0 SHL SUB AND DUP2 JUMP JUMPDEST PUSH2 0x365 PUSH1 0x1 DUP2 JUMP JUMPDEST PUSH2 0x365 PUSH1 0x3 DUP2 JUMP JUMPDEST PUSH1 0x0 SLOAD PUSH1 0x1 PUSH1 0x1 PUSH1 0xA0 SHL SUB AND PUSH2 0x332 JUMP JUMPDEST PUSH2 0x30A PUSH2 0x65A CALLDATASIZE PUSH1 0x4 PUSH2 0x33F1 JUMP JUMPDEST PUSH2 0x2214 JUMP JUMPDEST PUSH2 0x2E4 PUSH1 0x10 SLOAD DUP2 JUMP JUMPDEST PUSH1 0x2 SLOAD PUSH2 0x332 SWAP1 PUSH1 0x1 PUSH1 0x1 PUSH1 0xA0 SHL SUB AND DUP2 JUMP JUMPDEST PUSH2 0x30A PUSH2 0x689 CALLDATASIZE PUSH1 0x4 PUSH2 0x33F1 JUMP JUMPDEST PUSH2 0x2273 JUMP JUMPDEST PUSH2 0x30A PUSH2 0x69C CALLDATASIZE PUSH1 0x4 PUSH2 0x3480 JUMP JUMPDEST PUSH2 0x242D JUMP JUMPDEST PUSH2 0x2E4 PUSH1 0x9 SLOAD DUP2 JUMP JUMPDEST PUSH2 0x30A PUSH2 0x2631 JUMP JUMPDEST PUSH2 0x2E4 PUSH1 0x8 SLOAD DUP2 JUMP JUMPDEST PUSH2 0x2E4 PUSH1 0xC SLOAD DUP2 JUMP JUMPDEST PUSH2 0x30A PUSH2 0x6D2 CALLDATASIZE PUSH1 0x4 PUSH2 0x3392 JUMP JUMPDEST PUSH2 0x2854 JUMP JUMPDEST PUSH2 0x2E4 PUSH1 0xA SLOAD DUP2 JUMP JUMPDEST PUSH1 0x7 SLOAD PUSH2 0x332 SWAP1 PUSH1 0x1 PUSH1 0x1 PUSH1 0xA0 SHL SUB AND DUP2 JUMP JUMPDEST PUSH2 0x2E4 PUSH1 0xE SLOAD DUP2 JUMP JUMPDEST PUSH2 0x2E4 PUSH1 0xB SLOAD DUP2 JUMP JUMPDEST PUSH2 0x30A PUSH2 0x713 CALLDATASIZE PUSH1 0x4 PUSH2 0x34AA JUMP JUMPDEST PUSH2 0x288E JUMP JUMPDEST PUSH2 0x2E4 PUSH2 0x726 CALLDATASIZE PUSH1 0x4 PUSH2 0x3379 JUMP JUMPDEST PUSH1 0x15 PUSH1 0x20 MSTORE PUSH1 0x0 SWAP1 DUP2 MSTORE PUSH1 0x40 SWAP1 KECCAK256 SLOAD DUP2 JUMP JUMPDEST PUSH2 0x30A PUSH2 0x746 CALLDATASIZE PUSH1 0x4 PUSH2 0x3301 JUMP JUMPDEST PUSH2 0x292C JUMP JUMPDEST CALLER PUSH1 0x0 SWAP1 DUP2 MSTORE PUSH1 0x11 PUSH1 0x20 MSTORE PUSH1 0x40 SWAP1 KECCAK256 SLOAD PUSH1 0x1 PUSH1 0x1 PUSH1 0xA0 SHL SUB AND ISZERO PUSH2 0x7A6 JUMPI PUSH1 0x40 MLOAD PUSH3 0x461BCD PUSH1 0xE5 SHL DUP2 MSTORE PUSH1 0x20 PUSH1 0x4 DUP3 ADD MSTORE PUSH1 0xD PUSH1 0x24 DUP3 ADD MSTORE PUSH13 0x105B1C9958591E48189BDD5B99 PUSH1 0x9A SHL PUSH1 0x44 DUP3 ADD MSTORE PUSH1 0x64 ADD JUMPDEST PUSH1 0x40 MLOAD DUP1 SWAP2 SUB SWAP1 REVERT JUMPDEST CALLER PUSH1 0x1 PUSH1 0x1 PUSH1 0xA0 SHL SUB DUP3 AND SUB PUSH2 0x7F1 JUMPI PUSH1 0x40 MLOAD PUSH3 0x461BCD PUSH1 0xE5 SHL DUP2 MSTORE PUSH1 0x20 PUSH1 0x4 DUP3 ADD MSTORE PUSH1 0x10 PUSH1 0x24 DUP3 ADD MSTORE PUSH16 0x21B0B73737BA103134B7321039B2B633 PUSH1 0x81 SHL PUSH1 0x44 DUP3 ADD MSTORE PUSH1 0x64 ADD PUSH2 0x79D JUMP JUMPDEST PUSH1 0x1 PUSH1 0x1 PUSH1 0xA0 SHL SUB DUP2 AND PUSH2 0x83A JUMPI PUSH1 0x40 MLOAD PUSH3 0x461BCD PUSH1 0xE5 SHL DUP2 MSTORE PUSH1 0x20 PUSH1 0x4 DUP3 ADD MSTORE PUSH1 0x10 PUSH1 0x24 DUP3 ADD MSTORE PUSH16 0x24B73B30B634B2103932B332B93932B9 PUSH1 0x81 SHL PUSH1 0x44 DUP3 ADD MSTORE PUSH1 0x64 ADD PUSH2 0x79D JUMP JUMPDEST CALLER PUSH1 0x0 DUP2 DUP2 MSTORE PUSH1 0x11 PUSH1 0x20 SWAP1 DUP2 MSTORE PUSH1 0x40 DUP1 DUP4 KECCAK256 DUP1 SLOAD PUSH1 0x1 PUSH1 0x1 PUSH1 0xA0 SHL SUB DUP8 AND PUSH1 0x1 PUSH1 0x1 PUSH1 0xA0 SHL SUB NOT SWAP2 DUP3 AND DUP2 OR SWAP1 SWAP3 SSTORE DUP2 DUP6 MSTORE PUSH1 0x13 DUP5 MSTORE DUP3 DUP6 KECCAK256 DUP1 SLOAD PUSH1 0x1 DUP2 ADD DUP3 SSTORE SWAP1 DUP7 MSTORE SWAP4 DUP6 KECCAK256 SWAP1 SWAP4 ADD DUP1 SLOAD SWAP1 SWAP4 AND DUP6 OR SWAP1 SWAP3 SSTORE MLOAD SWAP1 SWAP3 SWAP2 PUSH32 0xA6DBB5AA28F35437DE94D685D66EDCE5FB4812196B4984B91DFD5A7B38C0FB30 SWAP2 LOG3 POP JUMP JUMPDEST PUSH1 0x0 DUP1 DUP5 GT PUSH2 0x909 JUMPI PUSH1 0x40 MLOAD PUSH3 0x461BCD PUSH1 0xE5 SHL DUP2 MSTORE PUSH1 0x20 PUSH1 0x4 DUP3 ADD MSTORE PUSH1 0x19 PUSH1 0x24 DUP3 ADD MSTORE PUSH32 0x496E73756666696369656E7420696E70757420616D6F756E7400000000000000 PUSH1 0x44 DUP3 ADD MSTORE PUSH1 0x64 ADD PUSH2 0x79D JUMP JUMPDEST PUSH1 0x0 DUP4 GT DUP1 ISZERO PUSH2 0x919 JUMPI POP PUSH1 0x0 DUP3 GT JUMPDEST PUSH2 0x95E JUMPI PUSH1 0x40 MLOAD PUSH3 0x461BCD PUSH1 0xE5 SHL DUP2 MSTORE PUSH1 0x20 PUSH1 0x4 DUP3 ADD MSTORE PUSH1 0x16 PUSH1 0x24 DUP3 ADD MSTORE PUSH22 0x496E73756666696369656E74206C6971756964697479 PUSH1 0x50 SHL PUSH1 0x44 DUP3 ADD MSTORE PUSH1 0x64 ADD PUSH2 0x79D JUMP JUMPDEST PUSH1 0x0 PUSH2 0x96A DUP4 DUP7 PUSH2 0x3503 JUMP JUMPDEST SWAP1 POP PUSH1 0x0 PUSH2 0x978 DUP7 DUP7 PUSH2 0x3520 JUMP JUMPDEST SWAP1 POP PUSH2 0x984 DUP2 DUP4 PUSH2 0x3533 JUMP JUMPDEST SWAP7 SWAP6 POP POP POP POP POP POP JUMP JUMPDEST PUSH1 0x13 PUSH1 0x20 MSTORE DUP2 PUSH1 0x0 MSTORE PUSH1 0x40 PUSH1 0x0 KECCAK256 DUP2 DUP2 SLOAD DUP2 LT PUSH2 0x9AA JUMPI PUSH1 0x0 DUP1 REVERT JUMPDEST PUSH1 0x0 SWAP2 DUP3 MSTORE PUSH1 0x20 SWAP1 SWAP2 KECCAK256 ADD SLOAD PUSH1 0x1 PUSH1 0x1 PUSH1 0xA0 SHL SUB AND SWAP2 POP DUP3 SWAP1 POP JUMP JUMPDEST PUSH2 0x9CE PUSH2 0x2967 JUMP JUMPDEST PUSH1 0x0 DUP2 GT PUSH2 0xA0F JUMPI PUSH1 0x40 MLOAD PUSH3 0x461BCD PUSH1 0xE5 SHL DUP2 MSTORE PUSH1 0x20 PUSH1 0x4 DUP3 ADD MSTORE PUSH1 0xE PUSH1 0x24 DUP3 ADD MSTORE PUSH14 0x125B9D985B1A5908185B5BDD5B9D PUSH1 0x92 SHL PUSH1 0x44 DUP3 ADD MSTORE PUSH1 0x64 ADD PUSH2 0x79D JUMP JUMPDEST PUSH1 0x2 SLOAD PUSH1 0x40 MLOAD PUSH4 0x23B872DD PUSH1 0xE0 SHL DUP2 MSTORE PUSH1 0x1 PUSH1 0x1 PUSH1 0xA0 SHL SUB SWAP1 SWAP2 AND SWAP1 PUSH4 0x23B872DD SWAP1 PUSH2 0xA43 SWAP1 CALLER SWAP1 ADDRESS SWAP1 DUP7 SWAP1 PUSH1 0x4 ADD PUSH2 0x3555 JUMP JUMPDEST PUSH1 0x20 PUSH1 0x40 MLOAD DUP1 DUP4 SUB DUP2 PUSH1 0x0 DUP8 GAS CALL ISZERO DUP1 ISZERO PUSH2 0xA62 JUMPI RETURNDATASIZE PUSH1 0x0 DUP1 RETURNDATACOPY RETURNDATASIZE PUSH1 0x0 REVERT JUMPDEST POP POP POP POP PUSH1 0x40 MLOAD RETURNDATASIZE PUSH1 0x1F NOT PUSH1 0x1F DUP3 ADD AND DUP3 ADD DUP1 PUSH1 0x40 MSTORE POP DUP2 ADD SWAP1 PUSH2 0xA86 SWAP2 SWAP1 PUSH2 0x3579 JUMP JUMPDEST POP PUSH1 0x0 PUSH2 0xA98 DUP3 PUSH1 0x16 SLOAD PUSH1 0x17 SLOAD PUSH2 0x8B8 JUMP JUMPDEST SWAP1 POP PUSH1 0x0 PUSH1 0x64 PUSH1 0xF SLOAD DUP4 PUSH2 0xAAC SWAP2 SWAP1 PUSH2 0x3503 JUMP JUMPDEST PUSH2 0xAB6 SWAP2 SWAP1 PUSH2 0x3533 JUMP JUMPDEST SWAP1 POP PUSH1 0x0 PUSH2 0xAC4 DUP3 DUP5 PUSH2 0x359B JUMP JUMPDEST PUSH1 0x3 SLOAD PUSH1 0x40 MLOAD PUSH4 0x70A08231 PUSH1 0xE0 SHL DUP2 MSTORE ADDRESS PUSH1 0x4 DUP3 ADD MSTORE SWAP2 SWAP3 POP DUP5 SWAP2 PUSH1 0x1 PUSH1 0x1 PUSH1 0xA0 SHL SUB SWAP1 SWAP2 AND SWAP1 PUSH4 0x70A08231 SWAP1 PUSH1 0x24 ADD PUSH1 0x20 PUSH1 0x40 MLOAD DUP1 DUP4 SUB DUP2 DUP7 GAS STATICCALL ISZERO DUP1 ISZERO PUSH2 0xB11 JUMPI RETURNDATASIZE PUSH1 0x0 DUP1 RETURNDATACOPY RETURNDATASIZE PUSH1 0x0 REVERT JUMPDEST POP POP POP POP PUSH1 0x40 MLOAD RETURNDATASIZE PUSH1 0x1F NOT PUSH1 0x1F DUP3 ADD AND DUP3 ADD DUP1 PUSH1 0x40 MSTORE POP DUP2 ADD SWAP1 PUSH2 0xB35 SWAP2 SWAP1 PUSH2 0x35AE JUMP JUMPDEST LT ISZERO PUSH2 0xB83 JUMPI PUSH1 0x40 MLOAD PUSH3 0x461BCD PUSH1 0xE5 SHL DUP2 MSTORE PUSH1 0x20 PUSH1 0x4 DUP3 ADD MSTORE PUSH1 0x1A PUSH1 0x24 DUP3 ADD MSTORE PUSH32 0x496E73756666696369656E74204A4243206C6971756964697479000000000000 PUSH1 0x44 DUP3 ADD MSTORE PUSH1 0x64 ADD PUSH2 0x79D JUMP JUMPDEST DUP4 PUSH1 0x16 PUSH1 0x0 DUP3 DUP3 SLOAD PUSH2 0xB95 SWAP2 SWAP1 PUSH2 0x3520 JUMP JUMPDEST SWAP3 POP POP DUP2 SWAP1 SSTORE POP DUP3 PUSH1 0x17 PUSH1 0x0 DUP3 DUP3 SLOAD PUSH2 0xBAE SWAP2 SWAP1 PUSH2 0x359B JUMP JUMPDEST SWAP1 SWAP2 SSTORE POP POP PUSH1 0x3 SLOAD PUSH1 0x40 MLOAD PUSH4 0x852CD8D PUSH1 0xE3 SHL DUP2 MSTORE PUSH1 0x4 DUP2 ADD DUP5 SWAP1 MSTORE PUSH1 0x1 PUSH1 0x1 PUSH1 0xA0 SHL SUB SWAP1 SWAP2 AND SWAP1 PUSH4 0x42966C68 SWAP1 PUSH1 0x24 ADD PUSH1 0x0 PUSH1 0x40 MLOAD DUP1 DUP4 SUB DUP2 PUSH1 0x0 DUP8 DUP1 EXTCODESIZE ISZERO DUP1 ISZERO PUSH2 0xBF9 JUMPI PUSH1 0x0 DUP1 REVERT JUMPDEST POP GAS CALL ISZERO DUP1 ISZERO PUSH2 0xC0D JUMPI RETURNDATASIZE PUSH1 0x0 DUP1 RETURNDATACOPY RETURNDATASIZE PUSH1 0x0 REVERT JUMPDEST POP POP PUSH1 0x3 SLOAD PUSH1 0x40 MLOAD PUSH4 0xA9059CBB PUSH1 0xE0 SHL DUP2 MSTORE PUSH1 0x1 PUSH1 0x1 PUSH1 0xA0 SHL SUB SWAP1 SWAP2 AND SWAP3 POP PUSH4 0xA9059CBB SWAP2 POP PUSH2 0xC43 SWAP1 CALLER SWAP1 DUP6 SWAP1 PUSH1 0x4 ADD PUSH2 0x3413 JUMP JUMPDEST PUSH1 0x20 PUSH1 0x40 MLOAD DUP1 DUP4 SUB DUP2 PUSH1 0x0 DUP8 GAS CALL ISZERO DUP1 ISZERO PUSH2 0xC62 JUMPI RETURNDATASIZE PUSH1 0x0 DUP1 RETURNDATACOPY RETURNDATASIZE PUSH1 0x0 REVERT JUMPDEST POP POP POP POP PUSH1 0x40 MLOAD RETURNDATASIZE PUSH1 0x1F NOT PUSH1 0x1F DUP3 ADD AND DUP3 ADD DUP1 PUSH1 0x40 MSTORE POP DUP2 ADD SWAP1 PUSH2 0xC86 SWAP2 SWAP1 PUSH2 0x3579 JUMP JUMPDEST POP PUSH1 0x40 DUP1 MLOAD DUP6 DUP2 MSTORE PUSH1 0x20 DUP2 ADD DUP4 SWAP1 MSTORE SWAP1 DUP2 ADD DUP4 SWAP1 MSTORE CALLER SWAP1 PUSH32 0x36864AEEFCE16BC4AACEEB6B0CDFB2AD1455A8CB4CCB0DB148A2BC6E7166F97C SWAP1 PUSH1 0x60 ADD JUMPDEST PUSH1 0x40 MLOAD DUP1 SWAP2 SUB SWAP1 LOG2 POP POP POP PUSH2 0xCD7 PUSH1 0x1 DUP1 SSTORE JUMP JUMPDEST POP JUMP JUMPDEST PUSH2 0xCE2 PUSH2 0x2967 JUMP JUMPDEST CALLER PUSH1 0x0 SWAP1 DUP2 MSTORE PUSH1 0x12 PUSH1 0x20 MSTORE PUSH1 0x40 SWAP1 KECCAK256 PUSH1 0x1 DUP2 ADD SLOAD ISZERO DUP1 ISZERO SWAP1 PUSH2 0xD09 JUMPI POP PUSH1 0x4 DUP2 ADD SLOAD PUSH1 0xFF AND ISZERO JUMPDEST PUSH2 0xD4C JUMPI PUSH1 0x40 MLOAD PUSH3 0x461BCD PUSH1 0xE5 SHL DUP2 MSTORE PUSH1 0x20 PUSH1 0x4 DUP3 ADD MSTORE PUSH1 0x14 PUSH1 0x24 DUP3 ADD MSTORE PUSH20 0x496E76616C6964207469636B6574207374617465 PUSH1 0x60 SHL PUSH1 0x44 DUP3 ADD MSTORE PUSH1 0x64 ADD PUSH2 0x79D JUMP JUMPDEST PUSH1 0x8 DUP2 ADD SLOAD PUSH2 0x100 SWAP1 DIV PUSH1 0xFF AND ISZERO PUSH2 0xD96 JUMPI PUSH1 0x40 MLOAD PUSH3 0x461BCD PUSH1 0xE5 SHL DUP2 MSTORE PUSH1 0x20 PUSH1 0x4 DUP3 ADD MSTORE PUSH1 0xD PUSH1 0x24 DUP3 ADD MSTORE PUSH13 0x151A58DAD95D08195E1A5D1959 PUSH1 0x9A SHL PUSH1 0x44 DUP3 ADD MSTORE PUSH1 0x64 ADD PUSH2 0x79D JUMP JUMPDEST PUSH1 0x3 DUP2 ADD SLOAD PUSH2 0xDA8 SWAP1 PUSH3 0x3F480 PUSH2 0x3520 JUMP JUMPDEST TIMESTAMP GT ISZERO PUSH2 0xDE8 JUMPI PUSH1 0x40 MLOAD PUSH3 0x461BCD PUSH1 0xE5 SHL DUP2 MSTORE PUSH1 0x20 PUSH1 0x4 DUP3 ADD MSTORE PUSH1 0xE PUSH1 0x24 DUP3 ADD MSTORE PUSH14 0x151A58DAD95D08195E1C1A5C9959 PUSH1 0x92 SHL PUSH1 0x44 DUP3 ADD MSTORE PUSH1 0x64 ADD PUSH2 0x79D JUMP JUMPDEST DUP2 PUSH1 0x7 EQ DUP1 PUSH2 0xDF7 JUMPI POP DUP2 PUSH1 0xF EQ JUMPDEST DUP1 PUSH2 0xE02 JUMPI POP DUP2 PUSH1 0x1E EQ JUMPDEST PUSH2 0xE3E JUMPI PUSH1 0x40 MLOAD PUSH3 0x461BCD PUSH1 0xE5 SHL DUP2 MSTORE PUSH1 0x20 PUSH1 0x4 DUP3 ADD MSTORE PUSH1 0xD PUSH1 0x24 DUP3 ADD MSTORE PUSH13 0x496E76616C6964206379636C65 PUSH1 0x98 SHL PUSH1 0x44 DUP3 ADD MSTORE PUSH1 0x64 ADD PUSH2 0x79D JUMP JUMPDEST PUSH1 0x2 DUP1 DUP3 ADD SLOAD SWAP1 SLOAD PUSH1 0x40 MLOAD PUSH4 0x23B872DD PUSH1 0xE0 SHL DUP2 MSTORE PUSH1 0x1 PUSH1 0x1 PUSH1 0xA0 SHL SUB SWAP1 SWAP2 AND SWAP1 PUSH4 0x23B872DD SWAP1 PUSH2 0xE77 SWAP1 CALLER SWAP1 ADDRESS SWAP1 DUP7 SWAP1 PUSH1 0x4 ADD PUSH2 0x3555 JUMP JUMPDEST PUSH1 0x20 PUSH1 0x40 MLOAD DUP1 DUP4 SUB DUP2 PUSH1 0x0 DUP8 GAS CALL ISZERO DUP1 ISZERO PUSH2 0xE96 JUMPI RETURNDATASIZE PUSH1 0x0 DUP1 RETURNDATACOPY RETURNDATASIZE PUSH1 0x0 REVERT JUMPDEST POP POP POP POP PUSH1 0x40 MLOAD RETURNDATASIZE PUSH1 0x1F NOT PUSH1 0x1F DUP3 ADD AND DUP3 ADD DUP1 PUSH1 0x40 MSTORE POP DUP2 ADD SWAP1 PUSH2 0xEBA SWAP2 SWAP1 PUSH2 0x3579 JUMP JUMPDEST POP PUSH1 0x4 DUP3 ADD DUP1 SLOAD PUSH1 0xFF NOT AND PUSH1 0x1 OR SWAP1 SSTORE PUSH1 0x5 DUP3 ADD DUP2 SWAP1 SSTORE TIMESTAMP PUSH1 0x6 DUP4 ADD SSTORE PUSH1 0x7 DUP3 ADD DUP4 SWAP1 SSTORE PUSH1 0x40 DUP1 MLOAD DUP3 DUP2 MSTORE PUSH1 0x20 DUP2 ADD DUP6 SWAP1 MSTORE CALLER SWAP2 PUSH32 0x1E54D7530DAD81AF38ADB8CA9DB02ADD3130668375F37BE85396403616FC3D49 SWAP2 ADD PUSH1 0x40 MLOAD DUP1 SWAP2 SUB SWAP1 LOG2 CALLER PUSH1 0x0 SWAP1 DUP2 MSTORE PUSH1 0x11 PUSH1 0x20 MSTORE PUSH1 0x40 SWAP1 KECCAK256 PUSH1 0x6 ADD SLOAD DUP1 ISZERO PUSH2 0x1061 JUMPI CALLER PUSH1 0x0 SWAP1 DUP2 MSTORE PUSH1 0x11 PUSH1 0x20 MSTORE PUSH1 0x40 DUP1 DUP3 KECCAK256 PUSH1 0x6 ADD SWAP2 SWAP1 SWAP2 SSTORE PUSH1 0x2 SLOAD SWAP1 MLOAD PUSH4 0x70A08231 PUSH1 0xE0 SHL DUP2 MSTORE ADDRESS PUSH1 0x4 DUP3 ADD MSTORE DUP3 SWAP2 PUSH1 0x1 PUSH1 0x1 PUSH1 0xA0 SHL SUB AND SWAP1 PUSH4 0x70A08231 SWAP1 PUSH1 0x24 ADD PUSH1 0x20 PUSH1 0x40 MLOAD DUP1 DUP4 SUB DUP2 DUP7 GAS STATICCALL ISZERO DUP1 ISZERO PUSH2 0xF90 JUMPI RETURNDATASIZE PUSH1 0x0 DUP1 RETURNDATACOPY RETURNDATASIZE PUSH1 0x0 REVERT JUMPDEST POP POP POP POP PUSH1 0x40 MLOAD RETURNDATASIZE PUSH1 0x1F NOT PUSH1 0x1F DUP3 ADD AND DUP3 ADD DUP1 PUSH1 0x40 MSTORE POP DUP2 ADD SWAP1 PUSH2 0xFB4 SWAP2 SWAP1 PUSH2 0x35AE JUMP JUMPDEST LT PUSH2 0x1061 JUMPI PUSH1 0x2 SLOAD PUSH1 0x40 MLOAD PUSH4 0xA9059CBB PUSH1 0xE0 SHL DUP2 MSTORE PUSH1 0x1 PUSH1 0x1 PUSH1 0xA0 SHL SUB SWAP1 SWAP2 AND SWAP1 PUSH4 0xA9059CBB SWAP1 PUSH2 0xFEB SWAP1 CALLER SWAP1 DUP6 SWAP1 PUSH1 0x4 ADD PUSH2 0x3413 JUMP JUMPDEST PUSH1 0x20 PUSH1 0x40 MLOAD DUP1 DUP4 SUB DUP2 PUSH1 0x0 DUP8 GAS CALL ISZERO DUP1 ISZERO PUSH2 0x100A JUMPI RETURNDATASIZE PUSH1 0x0 DUP1 RETURNDATACOPY RETURNDATASIZE PUSH1 0x0 REVERT JUMPDEST POP POP POP POP PUSH1 0x40 MLOAD RETURNDATASIZE PUSH1 0x1F NOT PUSH1 0x1F DUP3 ADD AND DUP3 ADD DUP1 PUSH1 0x40 MSTORE POP DUP2 ADD SWAP1 PUSH2 0x102E SWAP2 SWAP1 PUSH2 0x3579 JUMP JUMPDEST POP PUSH1 0x40 MLOAD DUP2 DUP2 MSTORE CALLER SWAP1 PUSH32 0x3437B9EA7FA19C6D233DD70CC787A70FAB87CEE64D8BA4571512CC84402748F9 SWAP1 PUSH1 0x20 ADD PUSH2 0xCC3 JUMP JUMPDEST POP POP POP PUSH2 0xCD7 PUSH1 0x1 DUP1 SSTORE JUMP JUMPDEST PUSH2 0x1075 PUSH2 0x2967 JUMP JUMPDEST CALLER PUSH1 0x0 SWAP1 DUP2 MSTORE PUSH1 0x12 PUSH1 0x20 MSTORE PUSH1 0x40 SWAP1 KECCAK256 PUSH1 0x4 DUP2 ADD SLOAD PUSH1 0xFF AND DUP1 ISZERO PUSH2 0x109D JUMPI POP PUSH1 0x8 DUP2 ADD SLOAD PUSH1 0xFF AND ISZERO JUMPDEST DUP1 ISZERO PUSH2 0x10B3 JUMPI POP PUSH1 0x8 DUP2 ADD SLOAD PUSH2 0x100 SWAP1 DIV PUSH1 0xFF AND ISZERO JUMPDEST PUSH2 0x10EC JUMPI PUSH1 0x40 MLOAD PUSH3 0x461BCD PUSH1 0xE5 SHL DUP2 MSTORE PUSH1 0x20 PUSH1 0x4 DUP3 ADD MSTORE PUSH1 0xA PUSH1 0x24 DUP3 ADD MSTORE PUSH10 0x4E6F7420616374697665 PUSH1 0xB0 SHL PUSH1 0x44 DUP3 ADD MSTORE PUSH1 0x64 ADD PUSH2 0x79D JUMP JUMPDEST PUSH1 0x0 DUP2 PUSH1 0x7 ADD SLOAD PUSH1 0x7 SUB PUSH2 0x1102 JUMPI POP PUSH1 0x14 PUSH2 0x1126 JUMP JUMPDEST DUP2 PUSH1 0x7 ADD SLOAD PUSH1 0xF SUB PUSH2 0x1116 JUMPI POP PUSH1 0x19 PUSH2 0x1126 JUMP JUMPDEST DUP2 PUSH1 0x7 ADD SLOAD PUSH1 0x1E SUB PUSH2 0x1126 JUMPI POP PUSH1 0x1E JUMPDEST PUSH1 0x0 PUSH1 0x3C DUP4 PUSH1 0x6 ADD SLOAD TIMESTAMP PUSH2 0x113A SWAP2 SWAP1 PUSH2 0x359B JUMP JUMPDEST PUSH2 0x1144 SWAP2 SWAP1 PUSH2 0x3533 JUMP JUMPDEST SWAP1 POP DUP3 PUSH1 0x7 ADD SLOAD DUP2 GT ISZERO PUSH2 0x1159 JUMPI POP PUSH1 0x7 DUP3 ADD SLOAD JUMPDEST DUP1 PUSH1 0x0 SUB PUSH2 0x119C JUMPI PUSH1 0x40 MLOAD PUSH3 0x461BCD PUSH1 0xE5 SHL DUP2 MSTORE PUSH1 0x20 PUSH1 0x4 DUP3 ADD MSTORE PUSH1 0x10 PUSH1 0x24 DUP3 ADD MSTORE PUSH16 0x13195CDCC81D1A185B880C481D5B9A5D PUSH1 0x82 SHL PUSH1 0x44 DUP3 ADD MSTORE PUSH1 0x64 ADD PUSH2 0x79D JUMP JUMPDEST PUSH1 0x0 PUSH2 0x3E8 DUP3 DUP5 DUP7 PUSH1 0x5 ADD SLOAD PUSH2 0x11B2 SWAP2 SWAP1 PUSH2 0x3503 JUMP JUMPDEST PUSH2 0x11BC SWAP2 SWAP1 PUSH2 0x3503 JUMP JUMPDEST PUSH2 0x11C6 SWAP2 SWAP1 PUSH2 0x3533 JUMP JUMPDEST DUP5 SLOAD PUSH1 0x0 SWAP1 DUP2 MSTORE PUSH1 0x15 PUSH1 0x20 MSTORE PUSH1 0x40 DUP2 KECCAK256 SLOAD SWAP2 SWAP3 POP DUP2 DUP4 GT ISZERO PUSH2 0x11EF JUMPI PUSH2 0x11EC DUP3 DUP5 PUSH2 0x359B JUMP JUMPDEST SWAP1 POP JUMPDEST PUSH1 0x0 DUP2 GT PUSH2 0x1230 JUMPI PUSH1 0x40 MLOAD PUSH3 0x461BCD PUSH1 0xE5 SHL DUP2 MSTORE PUSH1 0x20 PUSH1 0x4 DUP3 ADD MSTORE PUSH1 0xE PUSH1 0x24 DUP3 ADD MSTORE PUSH14 0x4E6F206E65772072657761726473 PUSH1 0x90 SHL PUSH1 0x44 DUP3 ADD MSTORE PUSH1 0x64 ADD PUSH2 0x79D JUMP JUMPDEST CALLER PUSH1 0x0 SWAP1 DUP2 MSTORE PUSH1 0x11 PUSH1 0x20 MSTORE PUSH1 0x40 SWAP1 KECCAK256 PUSH1 0x4 DUP2 ADD SLOAD PUSH1 0x3 SWAP1 SWAP2 ADD SLOAD PUSH2 0x1255 SWAP1 DUP4 SWAP1 PUSH2 0x3520 JUMP JUMPDEST GT ISZERO PUSH2 0x1282 JUMPI CALLER PUSH1 0x0 SWAP1 DUP2 MSTORE PUSH1 0x11 PUSH1 0x20 MSTORE PUSH1 0x40 SWAP1 KECCAK256 PUSH1 0x3 DUP2 ADD SLOAD PUSH1 0x4 SWAP1 SWAP2 ADD SLOAD PUSH2 0x127F SWAP2 SWAP1 PUSH2 0x359B JUMP JUMPDEST SWAP1 POP JUMPDEST DUP1 PUSH1 0x0 SUB PUSH2 0x129E JUMPI PUSH2 0x1293 CALLER PUSH2 0x2991 JUMP JUMPDEST POP POP POP POP POP POP PUSH2 0x157A JUMP JUMPDEST DUP6 SLOAD PUSH1 0x0 SWAP1 DUP2 MSTORE PUSH1 0x15 PUSH1 0x20 MSTORE PUSH1 0x40 DUP2 KECCAK256 DUP1 SLOAD DUP4 SWAP3 SWAP1 PUSH2 0x12BE SWAP1 DUP5 SWAP1 PUSH2 0x3520 JUMP JUMPDEST SWAP1 SWAP2 SSTORE POP POP CALLER PUSH1 0x0 SWAP1 DUP2 MSTORE PUSH1 0x11 PUSH1 0x20 MSTORE PUSH1 0x40 DUP2 KECCAK256 PUSH1 0x3 ADD DUP1 SLOAD DUP4 SWAP3 SWAP1 PUSH2 0x12E5 SWAP1 DUP5 SWAP1 PUSH2 0x3520 JUMP JUMPDEST SWAP1 SWAP2 SSTORE POP PUSH1 0x0 SWAP1 POP PUSH2 0x12F8 PUSH1 0x2 DUP4 PUSH2 0x3533 JUMP JUMPDEST SWAP1 POP PUSH1 0x0 PUSH2 0x1307 PUSH1 0x2 DUP5 PUSH2 0x3533 JUMP JUMPDEST PUSH1 0x2 SLOAD PUSH1 0x40 MLOAD PUSH4 0x70A08231 PUSH1 0xE0 SHL DUP2 MSTORE ADDRESS PUSH1 0x4 DUP3 ADD MSTORE SWAP2 SWAP3 POP DUP4 SWAP2 PUSH1 0x1 PUSH1 0x1 PUSH1 0xA0 SHL SUB SWAP1 SWAP2 AND SWAP1 PUSH4 0x70A08231 SWAP1 PUSH1 0x24 ADD PUSH1 0x20 PUSH1 0x40 MLOAD DUP1 DUP4 SUB DUP2 DUP7 GAS STATICCALL ISZERO DUP1 ISZERO PUSH2 0x1354 JUMPI RETURNDATASIZE PUSH1 0x0 DUP1 RETURNDATACOPY RETURNDATASIZE PUSH1 0x0 REVERT JUMPDEST POP POP POP POP PUSH1 0x40 MLOAD RETURNDATASIZE PUSH1 0x1F NOT PUSH1 0x1F DUP3 ADD AND DUP3 ADD DUP1 PUSH1 0x40 MSTORE POP DUP2 ADD SWAP1 PUSH2 0x1378 SWAP2 SWAP1 PUSH2 0x35AE JUMP JUMPDEST LT PUSH2 0x13F4 JUMPI PUSH1 0x2 SLOAD PUSH1 0x40 MLOAD PUSH4 0xA9059CBB PUSH1 0xE0 SHL DUP2 MSTORE PUSH1 0x1 PUSH1 0x1 PUSH1 0xA0 SHL SUB SWAP1 SWAP2 AND SWAP1 PUSH4 0xA9059CBB SWAP1 PUSH2 0x13AF SWAP1 CALLER SWAP1 DUP7 SWAP1 PUSH1 0x4 ADD PUSH2 0x3413 JUMP JUMPDEST PUSH1 0x20 PUSH1 0x40 MLOAD DUP1 DUP4 SUB DUP2 PUSH1 0x0 DUP8 GAS CALL ISZERO DUP1 ISZERO PUSH2 0x13CE JUMPI RETURNDATASIZE PUSH1 0x0 DUP1 RETURNDATACOPY RETURNDATASIZE PUSH1 0x0 REVERT JUMPDEST POP POP POP POP PUSH1 0x40 MLOAD RETURNDATASIZE PUSH1 0x1F NOT PUSH1 0x1F DUP3 ADD AND DUP3 ADD DUP1 PUSH1 0x40 MSTORE POP DUP2 ADD SWAP1 PUSH2 0x13F2 SWAP2 SWAP1 PUSH2 0x3579 JUMP JUMPDEST POP JUMPDEST PUSH1 0x0 PUSH2 0x13FE PUSH2 0x1585 JUMP JUMPDEST SWAP1 POP PUSH1 0x0 DUP2 PUSH2 0x1415 DUP5 PUSH8 0xDE0B6B3A7640000 PUSH2 0x3503 JUMP JUMPDEST PUSH2 0x141F SWAP2 SWAP1 PUSH2 0x3533 JUMP JUMPDEST PUSH1 0x3 SLOAD PUSH1 0x40 MLOAD PUSH4 0x70A08231 PUSH1 0xE0 SHL DUP2 MSTORE ADDRESS PUSH1 0x4 DUP3 ADD MSTORE SWAP2 SWAP3 POP DUP3 SWAP2 PUSH1 0x1 PUSH1 0x1 PUSH1 0xA0 SHL SUB SWAP1 SWAP2 AND SWAP1 PUSH4 0x70A08231 SWAP1 PUSH1 0x24 ADD PUSH1 0x20 PUSH1 0x40 MLOAD DUP1 DUP4 SUB DUP2 DUP7 GAS STATICCALL ISZERO DUP1 ISZERO PUSH2 0x146C JUMPI RETURNDATASIZE PUSH1 0x0 DUP1 RETURNDATACOPY RETURNDATASIZE PUSH1 0x0 REVERT JUMPDEST POP POP POP POP PUSH1 0x40 MLOAD RETURNDATASIZE PUSH1 0x1F NOT PUSH1 0x1F DUP3 ADD AND DUP3 ADD DUP1 PUSH1 0x40 MSTORE POP DUP2 ADD SWAP1 PUSH2 0x1490 SWAP2 SWAP1 PUSH2 0x35AE JUMP JUMPDEST LT PUSH2 0x150C JUMPI PUSH1 0x3 SLOAD PUSH1 0x40 MLOAD PUSH4 0xA9059CBB PUSH1 0xE0 SHL DUP2 MSTORE PUSH1 0x1 PUSH1 0x1 PUSH1 0xA0 SHL SUB SWAP1 SWAP2 AND SWAP1 PUSH4 0xA9059CBB SWAP1 PUSH2 0x14C7 SWAP1 CALLER SWAP1 DUP6 SWAP1 PUSH1 0x4 ADD PUSH2 0x3413 JUMP JUMPDEST PUSH1 0x20 PUSH1 0x40 MLOAD DUP1 DUP4 SUB DUP2 PUSH1 0x0 DUP8 GAS CALL ISZERO DUP1 ISZERO PUSH2 0x14E6 JUMPI RETURNDATASIZE PUSH1 0x0 DUP1 RETURNDATACOPY RETURNDATASIZE PUSH1 0x0 REVERT JUMPDEST POP POP POP POP PUSH1 0x40 MLOAD RETURNDATASIZE PUSH1 0x1F NOT PUSH1 0x1F DUP3 ADD AND DUP3 ADD DUP1 PUSH1 0x40 MSTORE POP DUP2 ADD SWAP1 PUSH2 0x150A SWAP2 SWAP1 PUSH2 0x3579 JUMP JUMPDEST POP JUMPDEST PUSH1 0x40 DUP1 MLOAD DUP7 DUP2 MSTORE PUSH1 0x0 PUSH1 0x20 DUP3 ADD MSTORE CALLER SWAP2 PUSH32 0xF381583145E90B82CC5E529BF4FC4D0E44397174CDF145C4251AC33EF195A424 SWAP2 ADD PUSH1 0x40 MLOAD DUP1 SWAP2 SUB SWAP1 LOG2 CALLER PUSH1 0x0 SWAP1 DUP2 MSTORE PUSH1 0x11 PUSH1 0x20 MSTORE PUSH1 0x40 SWAP1 KECCAK256 PUSH1 0x4 DUP2 ADD SLOAD PUSH1 0x3 SWAP1 SWAP2 ADD SLOAD LT PUSH2 0x156F JUMPI PUSH2 0x156F CALLER PUSH2 0x2991 JUMP JUMPDEST POP POP POP POP POP POP POP POP POP POP JUMPDEST PUSH2 0x1583 PUSH1 0x1 DUP1 SSTORE JUMP JUMPDEST JUMP JUMPDEST PUSH1 0x2 SLOAD PUSH1 0x40 MLOAD PUSH4 0x70A08231 PUSH1 0xE0 SHL DUP2 MSTORE ADDRESS PUSH1 0x4 DUP3 ADD MSTORE PUSH1 0x0 SWAP2 DUP3 SWAP2 PUSH1 0x1 PUSH1 0x1 PUSH1 0xA0 SHL SUB SWAP1 SWAP2 AND SWAP1 PUSH4 0x70A08231 SWAP1 PUSH1 0x24 ADD PUSH1 0x20 PUSH1 0x40 MLOAD DUP1 DUP4 SUB DUP2 DUP7 GAS STATICCALL ISZERO DUP1 ISZERO PUSH2 0x15D2 JUMPI RETURNDATASIZE PUSH1 0x0 DUP1 RETURNDATACOPY RETURNDATASIZE PUSH1 0x0 REVERT JUMPDEST POP POP POP POP PUSH1 0x40 MLOAD RETURNDATASIZE PUSH1 0x1F NOT PUSH1 0x1F DUP3 ADD AND DUP3 ADD DUP1 PUSH1 0x40 MSTORE POP DUP2 ADD SWAP1 PUSH2 0x15F6 SWAP2 SWAP1 PUSH2 0x35AE JUMP JUMPDEST PUSH1 0x3 SLOAD PUSH1 0x40 MLOAD PUSH4 0x70A08231 PUSH1 0xE0 SHL DUP2 MSTORE ADDRESS PUSH1 0x4 DUP3 ADD MSTORE SWAP2 SWAP3 POP PUSH1 0x0 SWAP2 PUSH1 0x1 PUSH1 0x1 PUSH1 0xA0 SHL SUB SWAP1 SWAP2 AND SWAP1 PUSH4 0x70A08231 SWAP1 PUSH1 0x24 ADD PUSH1 0x20 PUSH1 0x40 MLOAD DUP1 DUP4 SUB DUP2 DUP7 GAS STATICCALL ISZERO DUP1 ISZERO PUSH2 0x1644 JUMPI RETURNDATASIZE PUSH1 0x0 DUP1 RETURNDATACOPY RETURNDATASIZE PUSH1 0x0 REVERT JUMPDEST POP POP POP POP PUSH1 0x40 MLOAD RETURNDATASIZE PUSH1 0x1F NOT PUSH1 0x1F DUP3 ADD AND DUP3 ADD DUP1 PUSH1 0x40 MSTORE POP DUP2 ADD SWAP1 PUSH2 0x1668 SWAP2 SWAP1 PUSH2 0x35AE JUMP JUMPDEST SWAP1 POP DUP1 PUSH1 0x0 SUB PUSH2 0x1682 JUMPI PUSH8 0xDE0B6B3A7640000 SWAP3 POP POP POP SWAP1 JUMP JUMPDEST DUP1 PUSH2 0x1695 DUP4 PUSH8 0xDE0B6B3A7640000 PUSH2 0x3503 JUMP JUMPDEST PUSH2 0x169F SWAP2 SWAP1 PUSH2 0x3533 JUMP JUMPDEST SWAP3 POP POP POP SWAP1 JUMP JUMPDEST PUSH2 0x16AE PUSH2 0x2967 JUMP JUMPDEST PUSH1 0x0 DUP2 GT PUSH2 0x16EF JUMPI PUSH1 0x40 MLOAD PUSH3 0x461BCD PUSH1 0xE5 SHL DUP2 MSTORE PUSH1 0x20 PUSH1 0x4 DUP3 ADD MSTORE PUSH1 0xE PUSH1 0x24 DUP3 ADD MSTORE PUSH14 0x125B9D985B1A5908185B5BDD5B9D PUSH1 0x92 SHL PUSH1 0x44 DUP3 ADD MSTORE PUSH1 0x64 ADD PUSH2 0x79D JUMP JUMPDEST PUSH1 0x3 SLOAD PUSH1 0x40 MLOAD PUSH4 0x23B872DD PUSH1 0xE0 SHL DUP2 MSTORE PUSH1 0x1 PUSH1 0x1 PUSH1 0xA0 SHL SUB SWAP1 SWAP2 AND SWAP1 PUSH4 0x23B872DD SWAP1 PUSH2 0x1723 SWAP1 CALLER SWAP1 ADDRESS SWAP1 DUP7 SWAP1 PUSH1 0x4 ADD PUSH2 0x3555 JUMP JUMPDEST PUSH1 0x20 PUSH1 0x40 MLOAD DUP1 DUP4 SUB DUP2 PUSH1 0x0 DUP8 GAS CALL ISZERO DUP1 ISZERO PUSH2 0x1742 JUMPI RETURNDATASIZE PUSH1 0x0 DUP1 RETURNDATACOPY RETURNDATASIZE PUSH1 0x0 REVERT JUMPDEST POP POP POP POP PUSH1 0x40 MLOAD RETURNDATASIZE PUSH1 0x1F NOT PUSH1 0x1F DUP3 ADD AND DUP3 ADD DUP1 PUSH1 0x40 MSTORE POP DUP2 ADD SWAP1 PUSH2 0x1766 SWAP2 SWAP1 PUSH2 0x3579 JUMP JUMPDEST POP PUSH1 0x0 PUSH1 0x64 PUSH1 0x10 SLOAD DUP4 PUSH2 0x1779 SWAP2 SWAP1 PUSH2 0x3503 JUMP JUMPDEST PUSH2 0x1783 SWAP2 SWAP1 PUSH2 0x3533 JUMP JUMPDEST SWAP1 POP PUSH1 0x0 PUSH2 0x1791 DUP3 DUP5 PUSH2 0x359B JUMP JUMPDEST PUSH1 0x3 SLOAD PUSH1 0x40 MLOAD PUSH4 0x852CD8D PUSH1 0xE3 SHL DUP2 MSTORE PUSH1 0x4 DUP2 ADD DUP6 SWAP1 MSTORE SWAP2 SWAP3 POP PUSH1 0x1 PUSH1 0x1 PUSH1 0xA0 SHL SUB AND SWAP1 PUSH4 0x42966C68 SWAP1 PUSH1 0x24 ADD PUSH1 0x0 PUSH1 0x40 MLOAD DUP1 DUP4 SUB DUP2 PUSH1 0x0 DUP8 DUP1 EXTCODESIZE ISZERO DUP1 ISZERO PUSH2 0x17D8 JUMPI PUSH1 0x0 DUP1 REVERT JUMPDEST POP GAS CALL ISZERO DUP1 ISZERO PUSH2 0x17EC JUMPI RETURNDATASIZE PUSH1 0x0 DUP1 RETURNDATACOPY RETURNDATASIZE PUSH1 0x0 REVERT JUMPDEST POP POP POP POP PUSH1 0x0 PUSH2 0x1801 DUP3 PUSH1 0x17 SLOAD PUSH1 0x16 SLOAD PUSH2 0x8B8 JUMP JUMPDEST PUSH1 0x2 SLOAD PUSH1 0x40 MLOAD PUSH4 0x70A08231 PUSH1 0xE0 SHL DUP2 MSTORE ADDRESS PUSH1 0x4 DUP3 ADD MSTORE SWAP2 SWAP3 POP DUP3 SWAP2 PUSH1 0x1 PUSH1 0x1 PUSH1 0xA0 SHL SUB SWAP1 SWAP2 AND SWAP1 PUSH4 0x70A08231 SWAP1 PUSH1 0x24 ADD PUSH1 0x20 PUSH1 0x40 MLOAD DUP1 DUP4 SUB DUP2 DUP7 GAS STATICCALL ISZERO DUP1 ISZERO PUSH2 0x184E JUMPI RETURNDATASIZE PUSH1 0x0 DUP1 RETURNDATACOPY RETURNDATASIZE PUSH1 0x0 REVERT JUMPDEST POP POP POP POP PUSH1 0x40 MLOAD RETURNDATASIZE PUSH1 0x1F NOT PUSH1 0x1F DUP3 ADD AND DUP3 ADD DUP1 PUSH1 0x40 MSTORE POP DUP2 ADD SWAP1 PUSH2 0x1872 SWAP2 SWAP1 PUSH2 0x35AE JUMP JUMPDEST LT ISZERO PUSH2 0x18C0 JUMPI PUSH1 0x40 MLOAD PUSH3 0x461BCD PUSH1 0xE5 SHL DUP2 MSTORE PUSH1 0x20 PUSH1 0x4 DUP3 ADD MSTORE PUSH1 0x19 PUSH1 0x24 DUP3 ADD MSTORE PUSH32 0x496E73756666696369656E74204D43206C697175696469747900000000000000 PUSH1 0x44 DUP3 ADD MSTORE PUSH1 0x64 ADD PUSH2 0x79D JUMP JUMPDEST DUP4 PUSH1 0x17 PUSH1 0x0 DUP3 DUP3 SLOAD PUSH2 0x18D2 SWAP2 SWAP1 PUSH2 0x3520 JUMP JUMPDEST SWAP3 POP POP DUP2 SWAP1 SSTORE POP DUP2 PUSH1 0x17 PUSH1 0x0 DUP3 DUP3 SLOAD PUSH2 0x18EB SWAP2 SWAP1 PUSH2 0x3520 JUMP JUMPDEST SWAP3 POP POP DUP2 SWAP1 SSTORE POP DUP1 PUSH1 0x16 PUSH1 0x0 DUP3 DUP3 SLOAD PUSH2 0x1904 SWAP2 SWAP1 PUSH2 0x359B JUMP JUMPDEST SWAP1 SWAP2 SSTORE POP POP PUSH1 0x2 SLOAD PUSH1 0x40 MLOAD PUSH4 0xA9059CBB PUSH1 0xE0 SHL DUP2 MSTORE PUSH1 0x1 PUSH1 0x1 PUSH1 0xA0 SHL SUB SWAP1 SWAP2 AND SWAP1 PUSH4 0xA9059CBB SWAP1 PUSH2 0x193B SWAP1 CALLER SWAP1 DUP6 SWAP1 PUSH1 0x4 ADD PUSH2 0x3413 JUMP JUMPDEST PUSH1 0x20 PUSH1 0x40 MLOAD DUP1 DUP4 SUB DUP2 PUSH1 0x0 DUP8 GAS CALL ISZERO DUP1 ISZERO PUSH2 0x195A JUMPI RETURNDATASIZE PUSH1 0x0 DUP1 RETURNDATACOPY RETURNDATASIZE PUSH1 0x0 REVERT JUMPDEST POP POP POP POP PUSH1 0x40 MLOAD RETURNDATASIZE PUSH1 0x1F NOT PUSH1 0x1F DUP3 ADD AND DUP3 ADD DUP1 PUSH1 0x40 MSTORE POP DUP2 ADD SWAP1 PUSH2 0x197E SWAP2 SWAP1 PUSH2 0x3579 JUMP JUMPDEST POP PUSH1 0x40 DUP1 MLOAD DUP6 DUP2 MSTORE PUSH1 0x20 DUP2 ADD DUP4 SWAP1 MSTORE SWAP1 DUP2 ADD DUP5 SWAP1 MSTORE CALLER SWAP1 PUSH32 0x223C8AD0806F634524940A8595F819C5CFC7B1F4F4F45791269301DF0A7E61D5 SWAP1 PUSH1 0x60 ADD PUSH2 0xCC3 JUMP JUMPDEST PUSH2 0x19C7 PUSH2 0x2BD5 JUMP JUMPDEST PUSH1 0x3 SLOAD PUSH1 0x40 MLOAD PUSH4 0xA9059CBB PUSH1 0xE0 SHL DUP2 MSTORE PUSH1 0x1 PUSH1 0x1 PUSH1 0xA0 SHL SUB SWAP1 SWAP2 AND SWAP1 PUSH4 0xA9059CBB SWAP1 PUSH2 0x19F9 SWAP1 DUP5 SWAP1 DUP7 SWAP1 PUSH1 0x4 ADD PUSH2 0x3413 JUMP JUMPDEST PUSH1 0x20 PUSH1 0x40 MLOAD DUP1 DUP4 SUB DUP2 PUSH1 0x0 DUP8 GAS CALL ISZERO DUP1 ISZERO PUSH2 0x1A18 JUMPI RETURNDATASIZE PUSH1 0x0 DUP1 RETURNDATACOPY RETURNDATASIZE PUSH1 0x0 REVERT JUMPDEST POP POP POP POP PUSH1 0x40 MLOAD RETURNDATASIZE PUSH1 0x1F NOT PUSH1 0x1F DUP3 ADD AND DUP3 ADD DUP1 PUSH1 0x40 MSTORE POP DUP2 ADD SWAP1 PUSH2 0x1A3C SWAP2 SWAP1 PUSH2 0x3579 JUMP JUMPDEST POP POP POP JUMP JUMPDEST PUSH2 0x1A49 PUSH2 0x2967 JUMP JUMPDEST DUP1 PUSH9 0x56BC75E2D63100000 EQ DUP1 PUSH2 0x1A68 JUMPI POP DUP1 PUSH9 0x1043561A8829300000 EQ JUMPDEST DUP1 PUSH2 0x1A7B JUMPI POP DUP1 PUSH9 0x1B1AE4D6E2EF500000 EQ JUMPDEST DUP1 PUSH2 0x1A8E JUMPI POP DUP1 PUSH9 0x3635C9ADC5DEA00000 EQ JUMPDEST PUSH2 0x1AD2 JUMPI PUSH1 0x40 MLOAD PUSH3 0x461BCD PUSH1 0xE5 SHL DUP2 MSTORE PUSH1 0x20 PUSH1 0x4 DUP3 ADD MSTORE PUSH1 0x15 PUSH1 0x24 DUP3 ADD MSTORE PUSH21 0x125B9D985B1A59081D1A58DAD95D08185B5BDD5B9D PUSH1 0x5A SHL PUSH1 0x44 DUP3 ADD MSTORE PUSH1 0x64 ADD PUSH2 0x79D JUMP JUMPDEST PUSH1 0x2 SLOAD PUSH1 0x40 MLOAD PUSH4 0x23B872DD PUSH1 0xE0 SHL DUP2 MSTORE PUSH1 0x1 PUSH1 0x1 PUSH1 0xA0 SHL SUB SWAP1 SWAP2 AND SWAP1 PUSH4 0x23B872DD SWAP1 PUSH2 0x1B06 SWAP1 CALLER SWAP1 ADDRESS SWAP1 DUP7 SWAP1 PUSH1 0x4 ADD PUSH2 0x3555 JUMP JUMPDEST PUSH1 0x20 PUSH1 0x40 MLOAD DUP1 DUP4 SUB DUP2 PUSH1 0x0 DUP8 GAS CALL ISZERO DUP1 ISZERO PUSH2 0x1B25 JUMPI RETURNDATASIZE PUSH1 0x0 DUP1 RETURNDATACOPY RETURNDATASIZE PUSH1 0x0 REVERT JUMPDEST POP POP POP POP PUSH1 0x40 MLOAD RETURNDATASIZE PUSH1 0x1F NOT PUSH1 0x1F DUP3 ADD AND DUP3 ADD DUP1 PUSH1 0x40 MSTORE POP DUP2 ADD SWAP1 PUSH2 0x1B49 SWAP2 SWAP1 PUSH2 0x3579 JUMP JUMPDEST POP PUSH1 0x18 DUP1 SLOAD SWAP1 PUSH1 0x0 PUSH2 0x1B5A DUP4 PUSH2 0x35C7 JUMP JUMPDEST SWAP2 SWAP1 POP SSTORE POP PUSH1 0x40 MLOAD DUP1 PUSH2 0x140 ADD PUSH1 0x40 MSTORE DUP1 PUSH1 0x18 SLOAD DUP2 MSTORE PUSH1 0x20 ADD DUP3 DUP2 MSTORE PUSH1 0x20 ADD PUSH1 0x64 DUP4 PUSH1 0x96 PUSH2 0x1B88 SWAP2 SWAP1 PUSH2 0x3503 JUMP JUMPDEST PUSH2 0x1B92 SWAP2 SWAP1 PUSH2 0x3533 JUMP JUMPDEST DUP2 MSTORE TIMESTAMP PUSH1 0x20 DUP1 DUP4 ADD SWAP2 SWAP1 SWAP2 MSTORE PUSH1 0x0 PUSH1 0x40 DUP1 DUP5 ADD DUP3 SWAP1 MSTORE PUSH1 0x60 DUP1 DUP6 ADD DUP4 SWAP1 MSTORE PUSH1 0x80 DUP1 DUP7 ADD DUP5 SWAP1 MSTORE PUSH1 0xA0 DUP1 DUP8 ADD DUP6 SWAP1 MSTORE PUSH1 0xC0 DUP1 DUP9 ADD DUP7 SWAP1 MSTORE PUSH1 0xE0 SWAP8 DUP9 ADD DUP7 SWAP1 MSTORE CALLER DUP7 MSTORE PUSH1 0x12 DUP8 MSTORE DUP5 DUP7 KECCAK256 DUP10 MLOAD DUP2 SSTORE DUP10 DUP9 ADD MLOAD PUSH1 0x1 DUP3 ADD SSTORE DUP10 DUP7 ADD MLOAD PUSH1 0x2 DUP3 ADD SSTORE SWAP4 DUP10 ADD MLOAD PUSH1 0x3 DUP1 DUP7 ADD SWAP2 SWAP1 SWAP2 SSTORE SWAP3 DUP10 ADD MLOAD PUSH1 0x4 DUP6 ADD DUP1 SLOAD PUSH1 0xFF NOT AND SWAP2 ISZERO ISZERO SWAP2 SWAP1 SWAP2 OR SWAP1 SSTORE SWAP1 DUP9 ADD MLOAD PUSH1 0x5 DUP5 ADD SSTORE DUP8 ADD MLOAD PUSH1 0x6 DUP4 ADD SSTORE SWAP5 DUP7 ADD MLOAD PUSH1 0x7 DUP3 ADD SSTORE PUSH2 0x100 DUP1 DUP8 ADD MLOAD PUSH1 0x8 SWAP1 SWAP3 ADD DUP1 SLOAD PUSH2 0x120 SWAP1 SWAP9 ADD MLOAD PUSH2 0xFFFF NOT SWAP1 SWAP9 AND SWAP3 ISZERO ISZERO PUSH2 0xFF00 NOT AND SWAP3 SWAP1 SWAP3 OR SWAP7 ISZERO ISZERO MUL SWAP6 SWAP1 SWAP6 OR SWAP1 SWAP5 SSTORE PUSH1 0x11 SWAP1 SWAP2 MSTORE SWAP2 DUP3 KECCAK256 DUP2 ADD SWAP2 SWAP1 SWAP2 SSTORE PUSH2 0x1C7A SWAP1 DUP3 SWAP1 PUSH2 0x3503 JUMP JUMPDEST CALLER PUSH1 0x0 SWAP1 DUP2 MSTORE PUSH1 0x11 PUSH1 0x20 MSTORE PUSH1 0x40 SWAP1 KECCAK256 PUSH1 0x4 DUP2 ADD SWAP2 SWAP1 SWAP2 SSTORE PUSH1 0x5 ADD SLOAD PUSH1 0xFF AND PUSH2 0x1CF9 JUMPI CALLER PUSH1 0x0 SWAP1 DUP2 MSTORE PUSH1 0x11 PUSH1 0x20 MSTORE PUSH1 0x40 SWAP1 KECCAK256 PUSH1 0x5 DUP2 ADD DUP1 SLOAD PUSH1 0xFF NOT AND PUSH1 0x1 OR SWAP1 SSTORE SLOAD PUSH1 0x1 PUSH1 0x1 PUSH1 0xA0 SHL SUB AND DUP1 ISZERO PUSH2 0x1CF7 JUMPI PUSH1 0x1 PUSH1 0x1 PUSH1 0xA0 SHL SUB DUP2 AND PUSH1 0x0 SWAP1 DUP2 MSTORE PUSH1 0x11 PUSH1 0x20 MSTORE PUSH1 0x40 DUP2 KECCAK256 PUSH1 0x1 ADD DUP1 SLOAD SWAP2 PUSH2 0x1CF1 DUP4 PUSH2 0x35C7 JUMP JUMPDEST SWAP2 SWAP1 POP SSTORE POP JUMPDEST POP JUMPDEST CALLER PUSH1 0x0 SWAP1 DUP2 MSTORE PUSH1 0x11 PUSH1 0x20 MSTORE PUSH1 0x40 SWAP1 KECCAK256 SLOAD PUSH1 0x1 PUSH1 0x1 PUSH1 0xA0 SHL SUB AND DUP1 ISZERO PUSH2 0x1D48 JUMPI PUSH1 0x0 PUSH1 0x64 PUSH1 0x8 SLOAD DUP5 PUSH2 0x1D2A SWAP2 SWAP1 PUSH2 0x3503 JUMP JUMPDEST PUSH2 0x1D34 SWAP2 SWAP1 PUSH2 0x3533 JUMP JUMPDEST SWAP1 POP PUSH2 0x1D42 DUP3 DUP3 PUSH1 0x2 PUSH2 0x2C02 JUMP JUMPDEST POP PUSH2 0x1DDE JUMP JUMPDEST PUSH1 0x2 SLOAD PUSH1 0x4 SLOAD PUSH1 0x8 SLOAD PUSH1 0x1 PUSH1 0x1 PUSH1 0xA0 SHL SUB SWAP3 DUP4 AND SWAP3 PUSH4 0xA9059CBB SWAP3 AND SWAP1 PUSH1 0x64 SWAP1 PUSH2 0x1D72 SWAP1 DUP8 PUSH2 0x3503 JUMP JUMPDEST PUSH2 0x1D7C SWAP2 SWAP1 PUSH2 0x3533 JUMP JUMPDEST PUSH1 0x40 MLOAD DUP4 PUSH4 0xFFFFFFFF AND PUSH1 0xE0 SHL DUP2 MSTORE PUSH1 0x4 ADD PUSH2 0x1D99 SWAP3 SWAP2 SWAP1 PUSH2 0x3413 JUMP JUMPDEST PUSH1 0x20 PUSH1 0x40 MLOAD DUP1 DUP4 SUB DUP2 PUSH1 0x0 DUP8 GAS CALL ISZERO DUP1 ISZERO PUSH2 0x1DB8 JUMPI RETURNDATASIZE PUSH1 0x0 DUP1 RETURNDATACOPY RETURNDATASIZE PUSH1 0x0 REVERT JUMPDEST POP POP POP POP PUSH1 0x40 MLOAD RETURNDATASIZE PUSH1 0x1F NOT PUSH1 0x1F DUP3 ADD AND DUP3 ADD DUP1 PUSH1 0x40 MSTORE POP DUP2 ADD SWAP1 PUSH2 0x1DDC SWAP2 SWAP1 PUSH2 0x3579 JUMP JUMPDEST POP JUMPDEST PUSH2 0x1DEB CALLER DUP4 PUSH1 0x18 SLOAD PUSH2 0x2DB1 JUMP JUMPDEST PUSH1 0x2 SLOAD PUSH1 0x4 SLOAD PUSH1 0xA SLOAD PUSH1 0x1 PUSH1 0x1 PUSH1 0xA0 SHL SUB SWAP3 DUP4 AND SWAP3 PUSH4 0xA9059CBB SWAP3 AND SWAP1 PUSH1 0x64 SWAP1 PUSH2 0x1E15 SWAP1 DUP8 PUSH2 0x3503 JUMP JUMPDEST PUSH2 0x1E1F SWAP2 SWAP1 PUSH2 0x3533 JUMP JUMPDEST PUSH1 0x40 MLOAD DUP4 PUSH4 0xFFFFFFFF AND PUSH1 0xE0 SHL DUP2 MSTORE PUSH1 0x4 ADD PUSH2 0x1E3C SWAP3 SWAP2 SWAP1 PUSH2 0x3413 JUMP JUMPDEST PUSH1 0x20 PUSH1 0x40 MLOAD DUP1 DUP4 SUB DUP2 PUSH1 0x0 DUP8 GAS CALL ISZERO DUP1 ISZERO PUSH2 0x1E5B JUMPI RETURNDATASIZE PUSH1 0x0 DUP1 RETURNDATACOPY RETURNDATASIZE PUSH1 0x0 REVERT JUMPDEST POP POP POP POP PUSH1 0x40 MLOAD RETURNDATASIZE PUSH1 0x1F NOT PUSH1 0x1F DUP3 ADD AND DUP3 ADD DUP1 PUSH1 0x40 MSTORE POP DUP2 ADD SWAP1 PUSH2 0x1E7F SWAP2 SWAP1 PUSH2 0x3579 JUMP JUMPDEST POP PUSH1 0x0 PUSH1 0x64 PUSH1 0xB SLOAD DUP5 PUSH2 0x1E92 SWAP2 SWAP1 PUSH2 0x3503 JUMP JUMPDEST PUSH2 0x1E9C SWAP2 SWAP1 PUSH2 0x3533 JUMP JUMPDEST SWAP1 POP PUSH2 0x1EA7 DUP2 PUSH2 0x2F28 JUMP JUMPDEST PUSH1 0x2 SLOAD PUSH1 0x6 SLOAD PUSH1 0xC SLOAD PUSH1 0x1 PUSH1 0x1 PUSH1 0xA0 SHL SUB SWAP3 DUP4 AND SWAP3 PUSH4 0xA9059CBB SWAP3 AND SWAP1 PUSH1 0x64 SWAP1 PUSH2 0x1ED1 SWAP1 DUP9 PUSH2 0x3503 JUMP JUMPDEST PUSH2 0x1EDB SWAP2 SWAP1 PUSH2 0x3533 JUMP JUMPDEST PUSH1 0x40 MLOAD DUP4 PUSH4 0xFFFFFFFF AND PUSH1 0xE0 SHL DUP2 MSTORE PUSH1 0x4 ADD PUSH2 0x1EF8 SWAP3 SWAP2 SWAP1 PUSH2 0x3413 JUMP JUMPDEST PUSH1 0x20 PUSH1 0x40 MLOAD DUP1 DUP4 SUB DUP2 PUSH1 0x0 DUP8 GAS CALL ISZERO DUP1 ISZERO PUSH2 0x1F17 JUMPI RETURNDATASIZE PUSH1 0x0 DUP1 RETURNDATACOPY RETURNDATASIZE PUSH1 0x0 REVERT JUMPDEST POP POP POP POP PUSH1 0x40 MLOAD RETURNDATASIZE PUSH1 0x1F NOT PUSH1 0x1F DUP3 ADD AND DUP3 ADD DUP1 PUSH1 0x40 MSTORE POP DUP2 ADD SWAP1 PUSH2 0x1F3B SWAP2 SWAP1 PUSH2 0x3579 JUMP JUMPDEST POP PUSH1 0x2 SLOAD PUSH1 0x5 SLOAD PUSH1 0xD SLOAD PUSH1 0x1 PUSH1 0x1 PUSH1 0xA0 SHL SUB SWAP3 DUP4 AND SWAP3 PUSH4 0xA9059CBB SWAP3 AND SWAP1 PUSH1 0x64 SWAP1 PUSH2 0x1F66 SWAP1 DUP9 PUSH2 0x3503 JUMP JUMPDEST PUSH2 0x1F70 SWAP2 SWAP1 PUSH2 0x3533 JUMP JUMPDEST PUSH1 0x40 MLOAD DUP4 PUSH4 0xFFFFFFFF AND PUSH1 0xE0 SHL DUP2 MSTORE PUSH1 0x4 ADD PUSH2 0x1F8D SWAP3 SWAP2 SWAP1 PUSH2 0x3413 JUMP JUMPDEST PUSH1 0x20 PUSH1 0x40 MLOAD DUP1 DUP4 SUB DUP2 PUSH1 0x0 DUP8 GAS CALL ISZERO DUP1 ISZERO PUSH2 0x1FAC JUMPI RETURNDATASIZE PUSH1 0x0 DUP1 RETURNDATACOPY RETURNDATASIZE PUSH1 0x0 REVERT JUMPDEST POP POP POP POP PUSH1 0x40 MLOAD RETURNDATASIZE PUSH1 0x1F NOT PUSH1 0x1F DUP3 ADD AND DUP3 ADD DUP1 PUSH1 0x40 MSTORE POP DUP2 ADD SWAP1 PUSH2 0x1FD0 SWAP2 SWAP1 PUSH2 0x3579 JUMP JUMPDEST POP PUSH1 0x18 SLOAD PUSH1 0x40 MLOAD CALLER SWAP2 PUSH32 0x2A91574E12AD96234E84923E146B0946ECFB871CD8D5534DC1FDCBE87A7C01B3 SWAP2 PUSH2 0x200D SWAP2 DUP8 DUP3 MSTORE PUSH1 0x20 DUP3 ADD MSTORE PUSH1 0x40 ADD SWAP1 JUMP JUMPDEST PUSH1 0x40 MLOAD DUP1 SWAP2 SUB SWAP1 LOG2 POP POP PUSH2 0xCD7 PUSH1 0x1 DUP1 SSTORE JUMP JUMPDEST PUSH2 0x2028 PUSH2 0x2BD5 JUMP JUMPDEST PUSH1 0x1 PUSH1 0x1 PUSH1 0xA0 SHL SUB SWAP1 SWAP3 AND PUSH1 0x0 SWAP1 DUP2 MSTORE PUSH1 0x11 PUSH1 0x20 MSTORE PUSH1 0x40 SWAP1 KECCAK256 PUSH1 0x1 DUP2 ADD SWAP2 SWAP1 SWAP2 SSTORE PUSH1 0x2 ADD SSTORE JUMP JUMPDEST PUSH2 0x2057 PUSH2 0x2BD5 JUMP JUMPDEST PUSH2 0x1583 PUSH1 0x0 PUSH2 0x30E0 JUMP JUMPDEST PUSH2 0x2069 PUSH2 0x2BD5 JUMP JUMPDEST PUSH1 0x64 DUP2 GT ISZERO PUSH2 0x20A8 JUMPI PUSH1 0x40 MLOAD PUSH3 0x461BCD PUSH1 0xE5 SHL DUP2 MSTORE PUSH1 0x20 PUSH1 0x4 DUP3 ADD MSTORE PUSH1 0xB PUSH1 0x24 DUP3 ADD MSTORE PUSH11 0x496E76616C696420666565 PUSH1 0xA8 SHL PUSH1 0x44 DUP3 ADD MSTORE PUSH1 0x64 ADD PUSH2 0x79D JUMP JUMPDEST PUSH1 0xE SSTORE JUMP JUMPDEST PUSH1 0x14 PUSH1 0x20 MSTORE DUP2 PUSH1 0x0 MSTORE PUSH1 0x40 PUSH1 0x0 KECCAK256 DUP2 DUP2 SLOAD DUP2 LT PUSH2 0x20C9 JUMPI PUSH1 0x0 DUP1 REVERT JUMPDEST PUSH1 0x0 SWAP2 DUP3 MSTORE PUSH1 0x20 SWAP1 SWAP2 KECCAK256 PUSH1 0x2 SWAP1 SWAP2 MUL ADD DUP1 SLOAD PUSH1 0x1 SWAP1 SWAP2 ADD SLOAD PUSH1 0x1 PUSH1 0x1 PUSH1 0xA0 SHL SUB SWAP1 SWAP2 AND SWAP3 POP SWAP1 POP DUP3 JUMP JUMPDEST PUSH2 0x20FB PUSH2 0x2BD5 JUMP JUMPDEST PUSH1 0x4 DUP1 SLOAD PUSH1 0x1 PUSH1 0x1 PUSH1 0xA0 SHL SUB SWAP6 DUP7 AND PUSH1 0x1 PUSH1 0x1 PUSH1 0xA0 SHL SUB NOT SWAP2 DUP3 AND OR SWAP1 SWAP2 SSTORE PUSH1 0x5 DUP1 SLOAD SWAP5 DUP7 AND SWAP5 DUP3 AND SWAP5 SWAP1 SWAP5 OR SWAP1 SWAP4 SSTORE PUSH1 0x6 DUP1 SLOAD SWAP3 DUP6 AND SWAP3 DUP5 AND SWAP3 SWAP1 SWAP3 OR SWAP1 SWAP2 SSTORE PUSH1 0x7 DUP1 SLOAD SWAP2 SWAP1 SWAP4 AND SWAP2 AND OR SWAP1 SSTORE JUMP JUMPDEST PUSH1 0x0 DUP1 PUSH3 0x186A0 DUP4 LT PUSH2 0x2164 JUMPI POP PUSH1 0x9 SWAP3 PUSH1 0x2D SWAP3 POP SWAP1 POP JUMP JUMPDEST PUSH2 0x7530 DUP4 LT PUSH2 0x2179 JUMPI POP PUSH1 0x8 SWAP3 PUSH1 0x28 SWAP3 POP SWAP1 POP JUMP JUMPDEST PUSH2 0x2710 DUP4 LT PUSH2 0x218E JUMPI POP PUSH1 0x7 SWAP3 PUSH1 0x23 SWAP3 POP SWAP1 POP JUMP JUMPDEST PUSH2 0xBB8 DUP4 LT PUSH2 0x21A3 JUMPI POP PUSH1 0x6 SWAP3 PUSH1 0x1E SWAP3 POP SWAP1 POP JUMP JUMPDEST PUSH2 0x3E8 DUP4 LT PUSH2 0x21B8 JUMPI POP PUSH1 0x5 SWAP3 PUSH1 0x19 SWAP3 POP SWAP1 POP JUMP JUMPDEST PUSH2 0x12C DUP4 LT PUSH2 0x21CD JUMPI POP PUSH1 0x4 SWAP3 PUSH1 0x14 SWAP3 POP SWAP1 POP JUMP JUMPDEST PUSH1 0x64 DUP4 LT PUSH2 0x21E1 JUMPI POP PUSH1 0x3 SWAP3 PUSH1 0xF SWAP3 POP SWAP1 POP JUMP JUMPDEST PUSH1 0x1E DUP4 LT PUSH2 0x21F5 JUMPI POP PUSH1 0x2 SWAP3 PUSH1 0xA SWAP3 POP SWAP1 POP JUMP JUMPDEST PUSH1 0xA DUP4 LT PUSH2 0x2209 JUMPI POP PUSH1 0x1 SWAP3 PUSH1 0x5 SWAP3 POP SWAP1 POP JUMP JUMPDEST POP PUSH1 0x0 SWAP3 DUP4 SWAP3 POP SWAP1 POP JUMP JUMPDEST PUSH2 0x221C PUSH2 0x2BD5 JUMP JUMPDEST PUSH1 0x64 DUP3 GT ISZERO DUP1 ISZERO PUSH2 0x222E JUMPI POP PUSH1 0x64 DUP2 GT ISZERO JUMPDEST PUSH2 0x2268 JUMPI PUSH1 0x40 MLOAD PUSH3 0x461BCD PUSH1 0xE5 SHL DUP2 MSTORE PUSH1 0x20 PUSH1 0x4 DUP3 ADD MSTORE PUSH1 0xB PUSH1 0x24 DUP3 ADD MSTORE PUSH11 0x92DCECC2D8D2C840E8C2F PUSH1 0xAB SHL PUSH1 0x44 DUP3 ADD MSTORE PUSH1 0x64 ADD PUSH2 0x79D JUMP JUMPDEST PUSH1 0xF SWAP2 SWAP1 SWAP2 SSTORE PUSH1 0x10 SSTORE JUMP JUMPDEST PUSH2 0x227B PUSH2 0x2BD5 JUMP JUMPDEST PUSH1 0x0 DUP3 GT DUP1 PUSH2 0x228A JUMPI POP PUSH1 0x0 DUP2 GT JUMPDEST PUSH2 0x22C4 JUMPI PUSH1 0x40 MLOAD PUSH3 0x461BCD PUSH1 0xE5 SHL DUP2 MSTORE PUSH1 0x20 PUSH1 0x4 DUP3 ADD MSTORE PUSH1 0xB PUSH1 0x24 DUP3 ADD MSTORE PUSH11 0x16995C9BC8185B5BDD5B9D PUSH1 0xAA SHL PUSH1 0x44 DUP3 ADD MSTORE PUSH1 0x64 ADD PUSH2 0x79D JUMP JUMPDEST DUP2 ISZERO PUSH2 0x235A JUMPI PUSH1 0x2 SLOAD PUSH1 0x40 MLOAD PUSH4 0x23B872DD PUSH1 0xE0 SHL DUP2 MSTORE PUSH1 0x1 PUSH1 0x1 PUSH1 0xA0 SHL SUB SWAP1 SWAP2 AND SWAP1 PUSH4 0x23B872DD SWAP1 PUSH2 0x22FE SWAP1 CALLER SWAP1 ADDRESS SWAP1 DUP8 SWAP1 PUSH1 0x4 ADD PUSH2 0x3555 JUMP JUMPDEST PUSH1 0x20 PUSH1 0x40 MLOAD DUP1 DUP4 SUB DUP2 PUSH1 0x0 DUP8 GAS CALL ISZERO DUP1 ISZERO PUSH2 0x231D JUMPI RETURNDATASIZE PUSH1 0x0 DUP1 RETURNDATACOPY RETURNDATASIZE PUSH1 0x0 REVERT JUMPDEST POP POP POP POP PUSH1 0x40 MLOAD RETURNDATASIZE PUSH1 0x1F NOT PUSH1 0x1F DUP3 ADD AND DUP3 ADD DUP1 PUSH1 0x40 MSTORE POP DUP2 ADD SWAP1 PUSH2 0x2341 SWAP2 SWAP1 PUSH2 0x3579 JUMP JUMPDEST POP DUP2 PUSH1 0x16 PUSH1 0x0 DUP3 DUP3 SLOAD PUSH2 0x2354 SWAP2 SWAP1 PUSH2 0x3520 JUMP JUMPDEST SWAP1 SWAP2 SSTORE POP POP JUMPDEST DUP1 ISZERO PUSH2 0x23F0 JUMPI PUSH1 0x3 SLOAD PUSH1 0x40 MLOAD PUSH4 0x23B872DD PUSH1 0xE0 SHL DUP2 MSTORE PUSH1 0x1 PUSH1 0x1 PUSH1 0xA0 SHL SUB SWAP1 SWAP2 AND SWAP1 PUSH4 0x23B872DD SWAP1 PUSH2 0x2394 SWAP1 CALLER SWAP1 ADDRESS SWAP1 DUP7 SWAP1 PUSH1 0x4 ADD PUSH2 0x3555 JUMP JUMPDEST PUSH1 0x20 PUSH1 0x40 MLOAD DUP1 DUP4 SUB DUP2 PUSH1 0x0 DUP8 GAS CALL ISZERO DUP1 ISZERO PUSH2 0x23B3 JUMPI RETURNDATASIZE PUSH1 0x0 DUP1 RETURNDATACOPY RETURNDATASIZE PUSH1 0x0 REVERT JUMPDEST POP POP POP POP PUSH1 0x40 MLOAD RETURNDATASIZE PUSH1 0x1F NOT PUSH1 0x1F DUP3 ADD AND DUP3 ADD DUP1 PUSH1 0x40 MSTORE POP DUP2 ADD SWAP1 PUSH2 0x23D7 SWAP2 SWAP1 PUSH2 0x3579 JUMP JUMPDEST POP DUP1 PUSH1 0x17 PUSH1 0x0 DUP3 DUP3 SLOAD PUSH2 0x23EA SWAP2 SWAP1 PUSH2 0x3520 JUMP JUMPDEST SWAP1 SWAP2 SSTORE POP POP JUMPDEST PUSH1 0x40 DUP1 MLOAD DUP4 DUP2 MSTORE PUSH1 0x20 DUP2 ADD DUP4 SWAP1 MSTORE PUSH32 0x38F8A0C92F4C5B0B6877F878CB4C0C8D348A47B76D716C8E78F425043DF9515B SWAP2 ADD PUSH1 0x40 MLOAD DUP1 SWAP2 SUB SWAP1 LOG1 POP POP JUMP JUMPDEST PUSH2 0x2435 PUSH2 0x2BD5 JUMP JUMPDEST DUP1 PUSH1 0x1 PUSH1 0x1 PUSH1 0xA0 SHL SUB AND DUP3 PUSH1 0x1 PUSH1 0x1 PUSH1 0xA0 SHL SUB AND SUB PUSH2 0x2489 JUMPI PUSH1 0x40 MLOAD PUSH3 0x461BCD PUSH1 0xE5 SHL DUP2 MSTORE PUSH1 0x20 PUSH1 0x4 DUP3 ADD MSTORE PUSH1 0x10 PUSH1 0x24 DUP3 ADD MSTORE PUSH16 0x21B0B73737BA103134B7321039B2B633 PUSH1 0x81 SHL PUSH1 0x44 DUP3 ADD MSTORE PUSH1 0x64 ADD PUSH2 0x79D JUMP JUMPDEST PUSH1 0x1 PUSH1 0x1 PUSH1 0xA0 SHL SUB DUP1 DUP4 AND PUSH1 0x0 SWAP1 DUP2 MSTORE PUSH1 0x11 PUSH1 0x20 MSTORE PUSH1 0x40 SWAP1 KECCAK256 DUP1 SLOAD DUP4 DUP4 AND PUSH1 0x1 PUSH1 0x1 PUSH1 0xA0 SHL SUB NOT DUP3 AND OR SWAP1 SWAP2 SSTORE AND DUP1 ISZERO PUSH2 0x25E0 JUMPI PUSH1 0x1 PUSH1 0x1 PUSH1 0xA0 SHL SUB DUP2 AND PUSH1 0x0 SWAP1 DUP2 MSTORE PUSH1 0x13 PUSH1 0x20 MSTORE PUSH1 0x40 DUP2 KECCAK256 SWAP1 JUMPDEST DUP2 SLOAD DUP2 LT ISZERO PUSH2 0x25DD JUMPI DUP5 PUSH1 0x1 PUSH1 0x1 PUSH1 0xA0 SHL SUB AND DUP3 DUP3 DUP2 SLOAD DUP2 LT PUSH2 0x24FC JUMPI PUSH2 0x24FC PUSH2 0x35E0 JUMP JUMPDEST PUSH1 0x0 SWAP2 DUP3 MSTORE PUSH1 0x20 SWAP1 SWAP2 KECCAK256 ADD SLOAD PUSH1 0x1 PUSH1 0x1 PUSH1 0xA0 SHL SUB AND SUB PUSH2 0x25CB JUMPI DUP2 SLOAD DUP3 SWAP1 PUSH2 0x2526 SWAP1 PUSH1 0x1 SWAP1 PUSH2 0x359B JUMP JUMPDEST DUP2 SLOAD DUP2 LT PUSH2 0x2536 JUMPI PUSH2 0x2536 PUSH2 0x35E0 JUMP JUMPDEST SWAP1 PUSH1 0x0 MSTORE PUSH1 0x20 PUSH1 0x0 KECCAK256 ADD PUSH1 0x0 SWAP1 SLOAD SWAP1 PUSH2 0x100 EXP SWAP1 DIV PUSH1 0x1 PUSH1 0x1 PUSH1 0xA0 SHL SUB AND DUP3 DUP3 DUP2 SLOAD DUP2 LT PUSH2 0x2566 JUMPI PUSH2 0x2566 PUSH2 0x35E0 JUMP JUMPDEST SWAP1 PUSH1 0x0 MSTORE PUSH1 0x20 PUSH1 0x0 KECCAK256 ADD PUSH1 0x0 PUSH2 0x100 EXP DUP2 SLOAD DUP2 PUSH1 0x1 PUSH1 0x1 PUSH1 0xA0 SHL SUB MUL NOT AND SWAP1 DUP4 PUSH1 0x1 PUSH1 0x1 PUSH1 0xA0 SHL SUB AND MUL OR SWAP1 SSTORE POP DUP2 DUP1 SLOAD DUP1 PUSH2 0x25A4 JUMPI PUSH2 0x25A4 PUSH2 0x35F6 JUMP JUMPDEST PUSH1 0x0 DUP3 DUP2 MSTORE PUSH1 0x20 SWAP1 KECCAK256 DUP2 ADD PUSH1 0x0 NOT SWAP1 DUP2 ADD DUP1 SLOAD PUSH1 0x1 PUSH1 0x1 PUSH1 0xA0 SHL SUB NOT AND SWAP1 SSTORE ADD SWAP1 SSTORE PUSH2 0x25DD JUMP JUMPDEST DUP1 PUSH2 0x25D5 DUP2 PUSH2 0x35C7 JUMP JUMPDEST SWAP2 POP POP PUSH2 0x24D7 JUMP JUMPDEST POP POP JUMPDEST PUSH1 0x1 PUSH1 0x1 PUSH1 0xA0 SHL SUB DUP3 AND ISZERO PUSH2 0x1A3C JUMPI POP PUSH1 0x1 PUSH1 0x1 PUSH1 0xA0 SHL SUB SWAP1 DUP2 AND PUSH1 0x0 SWAP1 DUP2 MSTORE PUSH1 0x13 PUSH1 0x20 SWAP1 DUP2 MSTORE PUSH1 0x40 DUP3 KECCAK256 DUP1 SLOAD PUSH1 0x1 DUP2 ADD DUP3 SSTORE SWAP1 DUP4 MSTORE SWAP2 KECCAK256 ADD DUP1 SLOAD PUSH1 0x1 PUSH1 0x1 PUSH1 0xA0 SHL SUB NOT AND SWAP3 SWAP1 SWAP2 AND SWAP2 SWAP1 SWAP2 OR SWAP1 SSTORE JUMP JUMPDEST PUSH2 0x2639 PUSH2 0x2967 JUMP JUMPDEST CALLER PUSH1 0x0 SWAP1 DUP2 MSTORE PUSH1 0x12 PUSH1 0x20 MSTORE PUSH1 0x40 SWAP1 KECCAK256 PUSH1 0x4 DUP2 ADD SLOAD PUSH1 0xFF AND DUP1 ISZERO PUSH2 0x2661 JUMPI POP PUSH1 0x8 DUP2 ADD SLOAD PUSH1 0xFF AND ISZERO JUMPDEST DUP1 ISZERO PUSH2 0x2677 JUMPI POP PUSH1 0x8 DUP2 ADD SLOAD PUSH2 0x100 SWAP1 DIV PUSH1 0xFF AND ISZERO JUMPDEST PUSH2 0x26B3 JUMPI PUSH1 0x40 MLOAD PUSH3 0x461BCD PUSH1 0xE5 SHL DUP2 MSTORE PUSH1 0x20 PUSH1 0x4 DUP3 ADD MSTORE PUSH1 0xD PUSH1 0x24 DUP3 ADD MSTORE PUSH13 0x43616E6E6F742072656465656D PUSH1 0x98 SHL PUSH1 0x44 DUP3 ADD MSTORE PUSH1 0x64 ADD PUSH2 0x79D JUMP JUMPDEST PUSH1 0x3C DUP2 PUSH1 0x7 ADD SLOAD PUSH2 0x26C4 SWAP2 SWAP1 PUSH2 0x3503 JUMP JUMPDEST DUP2 PUSH1 0x6 ADD SLOAD PUSH2 0x26D3 SWAP2 SWAP1 PUSH2 0x3520 JUMP JUMPDEST TIMESTAMP LT ISZERO PUSH2 0x2717 JUMPI PUSH1 0x40 MLOAD PUSH3 0x461BCD PUSH1 0xE5 SHL DUP2 MSTORE PUSH1 0x20 PUSH1 0x4 DUP3 ADD MSTORE PUSH1 0x12 PUSH1 0x24 DUP3 ADD MSTORE PUSH18 0x10DE58DB19481B9BDD08199A5B9A5CDA1959 PUSH1 0x72 SHL PUSH1 0x44 DUP3 ADD MSTORE PUSH1 0x64 ADD PUSH2 0x79D JUMP JUMPDEST PUSH1 0x0 PUSH1 0x64 PUSH1 0xE SLOAD DUP4 PUSH1 0x1 ADD SLOAD PUSH2 0x272D SWAP2 SWAP1 PUSH2 0x3503 JUMP JUMPDEST PUSH2 0x2737 SWAP2 SWAP1 PUSH2 0x3533 JUMP JUMPDEST PUSH1 0x5 DUP4 ADD SLOAD SWAP1 SWAP2 POP DUP2 DUP2 LT PUSH2 0x2757 JUMPI PUSH2 0x2750 DUP3 DUP3 PUSH2 0x359B JUMP JUMPDEST SWAP1 POP PUSH2 0x275C JUMP JUMPDEST PUSH1 0x0 SWAP2 POP JUMPDEST PUSH1 0x2 SLOAD PUSH1 0x40 MLOAD PUSH4 0xA9059CBB PUSH1 0xE0 SHL DUP2 MSTORE PUSH1 0x1 PUSH1 0x1 PUSH1 0xA0 SHL SUB SWAP1 SWAP2 AND SWAP1 PUSH4 0xA9059CBB SWAP1 PUSH2 0x278E SWAP1 CALLER SWAP1 DUP6 SWAP1 PUSH1 0x4 ADD PUSH2 0x3413 JUMP JUMPDEST PUSH1 0x20 PUSH1 0x40 MLOAD DUP1 DUP4 SUB DUP2 PUSH1 0x0 DUP8 GAS CALL ISZERO DUP1 ISZERO PUSH2 0x27AD JUMPI RETURNDATASIZE PUSH1 0x0 DUP1 RETURNDATACOPY RETURNDATASIZE PUSH1 0x0 REVERT JUMPDEST POP POP POP POP PUSH1 0x40 MLOAD RETURNDATASIZE PUSH1 0x1F NOT PUSH1 0x1F DUP3 ADD AND DUP3 ADD DUP1 PUSH1 0x40 MSTORE POP DUP2 ADD SWAP1 PUSH2 0x27D1 SWAP2 SWAP1 PUSH2 0x3579 JUMP JUMPDEST POP CALLER PUSH1 0x0 DUP2 DUP2 MSTORE PUSH1 0x11 PUSH1 0x20 MSTORE PUSH1 0x40 SWAP1 DUP2 SWAP1 KECCAK256 PUSH1 0x6 ADD DUP5 SWAP1 SSTORE PUSH1 0x8 DUP6 ADD DUP1 SLOAD PUSH1 0xFF NOT AND PUSH1 0x1 OR SWAP1 SSTORE PUSH1 0x5 DUP6 ADD SLOAD SWAP1 MLOAD PUSH32 0xF3A670CD3AF7D64B488926880889D08A8585A138FF455227AF6737339A1EC262 SWAP2 PUSH2 0x2835 SWAP2 DUP7 SWAP1 SWAP2 DUP3 MSTORE PUSH1 0x20 DUP3 ADD MSTORE PUSH1 0x40 ADD SWAP1 JUMP JUMPDEST PUSH1 0x40 MLOAD DUP1 SWAP2 SUB SWAP1 LOG2 DUP3 SLOAD PUSH2 0x2848 SWAP1 PUSH2 0x3130 JUMP JUMPDEST POP POP POP PUSH2 0x1583 PUSH1 0x1 DUP1 SSTORE JUMP JUMPDEST PUSH2 0x285C PUSH2 0x2BD5 JUMP JUMPDEST PUSH1 0x2 SLOAD PUSH1 0x40 MLOAD PUSH4 0xA9059CBB PUSH1 0xE0 SHL DUP2 MSTORE PUSH1 0x1 PUSH1 0x1 PUSH1 0xA0 SHL SUB SWAP1 SWAP2 AND SWAP1 PUSH4 0xA9059CBB SWAP1 PUSH2 0x19F9 SWAP1 DUP5 SWAP1 DUP7 SWAP1 PUSH1 0x4 ADD PUSH2 0x3413 JUMP JUMPDEST PUSH2 0x2896 PUSH2 0x2BD5 JUMP JUMPDEST DUP1 DUP3 DUP5 DUP7 PUSH2 0x28A4 DUP10 DUP12 PUSH2 0x3520 JUMP JUMPDEST PUSH2 0x28AE SWAP2 SWAP1 PUSH2 0x3520 JUMP JUMPDEST PUSH2 0x28B8 SWAP2 SWAP1 PUSH2 0x3520 JUMP JUMPDEST PUSH2 0x28C2 SWAP2 SWAP1 PUSH2 0x3520 JUMP JUMPDEST PUSH2 0x28CC SWAP2 SWAP1 PUSH2 0x3520 JUMP JUMPDEST PUSH1 0x64 EQ PUSH2 0x290F JUMPI PUSH1 0x40 MLOAD PUSH3 0x461BCD PUSH1 0xE5 SHL DUP2 MSTORE PUSH1 0x20 PUSH1 0x4 DUP3 ADD MSTORE PUSH1 0x11 PUSH1 0x24 DUP3 ADD MSTORE PUSH17 0x546F74616C206D7573742062652031303 PUSH1 0x7C SHL PUSH1 0x44 DUP3 ADD MSTORE PUSH1 0x64 ADD PUSH2 0x79D JUMP JUMPDEST PUSH1 0x8 SWAP6 SWAP1 SWAP6 SSTORE PUSH1 0x9 SWAP4 SWAP1 SWAP4 SSTORE PUSH1 0xA SWAP2 SWAP1 SWAP2 SSTORE PUSH1 0xB SSTORE PUSH1 0xC SSTORE PUSH1 0xD SSTORE JUMP JUMPDEST PUSH2 0x2934 PUSH2 0x2BD5 JUMP JUMPDEST PUSH1 0x1 PUSH1 0x1 PUSH1 0xA0 SHL SUB DUP2 AND PUSH2 0x295E JUMPI PUSH1 0x40 MLOAD PUSH4 0x1E4FBDF7 PUSH1 0xE0 SHL DUP2 MSTORE PUSH1 0x0 PUSH1 0x4 DUP3 ADD MSTORE PUSH1 0x24 ADD PUSH2 0x79D JUMP JUMPDEST PUSH2 0xCD7 DUP2 PUSH2 0x30E0 JUMP JUMPDEST PUSH1 0x2 PUSH1 0x1 SLOAD SUB PUSH2 0x298A JUMPI PUSH1 0x40 MLOAD PUSH4 0x3EE5AEB5 PUSH1 0xE0 SHL DUP2 MSTORE PUSH1 0x4 ADD PUSH1 0x40 MLOAD DUP1 SWAP2 SUB SWAP1 REVERT JUMPDEST PUSH1 0x2 PUSH1 0x1 SSTORE JUMP JUMPDEST PUSH1 0x1 PUSH1 0x1 PUSH1 0xA0 SHL SUB DUP2 AND PUSH1 0x0 SWAP1 DUP2 MSTORE PUSH1 0x12 PUSH1 0x20 MSTORE PUSH1 0x40 SWAP1 KECCAK256 PUSH1 0x8 DUP2 ADD SLOAD PUSH2 0x100 SWAP1 DIV PUSH1 0xFF AND PUSH2 0x2BD1 JUMPI PUSH1 0x8 DUP2 ADD DUP1 SLOAD PUSH2 0xFF00 NOT AND PUSH2 0x100 OR SWAP1 SSTORE PUSH1 0x4 DUP2 ADD SLOAD PUSH1 0xFF AND DUP1 ISZERO PUSH2 0x29E4 JUMPI POP PUSH1 0x8 DUP2 ADD SLOAD PUSH1 0xFF AND ISZERO JUMPDEST ISZERO PUSH2 0x2B90 JUMPI PUSH1 0x0 PUSH1 0x64 PUSH1 0xE SLOAD DUP4 PUSH1 0x1 ADD SLOAD PUSH2 0x29FF SWAP2 SWAP1 PUSH2 0x3503 JUMP JUMPDEST PUSH2 0x2A09 SWAP2 SWAP1 PUSH2 0x3533 JUMP JUMPDEST SWAP1 POP PUSH1 0x0 DUP2 DUP4 PUSH1 0x5 ADD SLOAD GT PUSH2 0x2A1F JUMPI PUSH1 0x0 PUSH2 0x2A2F JUMP JUMPDEST DUP2 DUP4 PUSH1 0x5 ADD SLOAD PUSH2 0x2A2F SWAP2 SWAP1 PUSH2 0x359B JUMP JUMPDEST SWAP1 POP DUP1 ISZERO PUSH2 0x2AAE JUMPI PUSH1 0x2 SLOAD PUSH1 0x40 MLOAD PUSH4 0xA9059CBB PUSH1 0xE0 SHL DUP2 MSTORE PUSH1 0x1 PUSH1 0x1 PUSH1 0xA0 SHL SUB SWAP1 SWAP2 AND SWAP1 PUSH4 0xA9059CBB SWAP1 PUSH2 0x2A69 SWAP1 DUP8 SWAP1 DUP6 SWAP1 PUSH1 0x4 ADD PUSH2 0x3413 JUMP JUMPDEST PUSH1 0x20 PUSH1 0x40 MLOAD DUP1 DUP4 SUB DUP2 PUSH1 0x0 DUP8 GAS CALL ISZERO DUP1 ISZERO PUSH2 0x2A88 JUMPI RETURNDATASIZE PUSH1 0x0 DUP1 RETURNDATACOPY RETURNDATASIZE PUSH1 0x0 REVERT JUMPDEST POP POP POP POP PUSH1 0x40 MLOAD RETURNDATASIZE PUSH1 0x1F NOT PUSH1 0x1F DUP3 ADD AND DUP3 ADD DUP1 PUSH1 0x40 MSTORE POP DUP2 ADD SWAP1 PUSH2 0x2AAC SWAP2 SWAP1 PUSH2 0x3579 JUMP JUMPDEST POP JUMPDEST PUSH1 0x8 DUP4 ADD DUP1 SLOAD PUSH1 0xFF NOT SWAP1 DUP2 AND PUSH1 0x1 OR SWAP1 SWAP2 SSTORE PUSH1 0x1 PUSH1 0x1 PUSH1 0xA0 SHL SUB DUP1 DUP7 AND PUSH1 0x0 SWAP1 DUP2 MSTORE PUSH1 0x11 PUSH1 0x20 MSTORE PUSH1 0x40 SWAP1 KECCAK256 PUSH1 0x5 DUP2 ADD DUP1 SLOAD SWAP1 SWAP4 AND SWAP1 SWAP3 SSTORE SWAP1 SLOAD AND DUP1 ISZERO DUP1 ISZERO SWAP1 PUSH2 0x2B11 JUMPI POP PUSH1 0x1 PUSH1 0x1 PUSH1 0xA0 SHL SUB DUP2 AND PUSH1 0x0 SWAP1 DUP2 MSTORE PUSH1 0x11 PUSH1 0x20 MSTORE PUSH1 0x40 SWAP1 KECCAK256 PUSH1 0x1 ADD SLOAD ISZERO ISZERO JUMPDEST ISZERO PUSH2 0x2B43 JUMPI PUSH1 0x1 PUSH1 0x1 PUSH1 0xA0 SHL SUB DUP2 AND PUSH1 0x0 SWAP1 DUP2 MSTORE PUSH1 0x11 PUSH1 0x20 MSTORE PUSH1 0x40 DUP2 KECCAK256 PUSH1 0x1 ADD DUP1 SLOAD SWAP2 PUSH2 0x2B3D DUP4 PUSH2 0x360C JUMP JUMPDEST SWAP2 SWAP1 POP SSTORE POP JUMPDEST PUSH1 0x5 DUP5 ADD SLOAD PUSH1 0x40 DUP1 MLOAD SWAP2 DUP3 MSTORE PUSH1 0x20 DUP3 ADD DUP6 SWAP1 MSTORE PUSH1 0x1 PUSH1 0x1 PUSH1 0xA0 SHL SUB DUP8 AND SWAP2 PUSH32 0xF3A670CD3AF7D64B488926880889D08A8585A138FF455227AF6737339A1EC262 SWAP2 ADD PUSH1 0x40 MLOAD DUP1 SWAP2 SUB SWAP1 LOG2 POP POP POP JUMPDEST DUP1 SLOAD PUSH1 0x40 MLOAD SWAP1 DUP2 MSTORE PUSH1 0x1 PUSH1 0x1 PUSH1 0xA0 SHL SUB DUP4 AND SWAP1 PUSH32 0x920BB94EB3842A728DB98228C375FF6B00C5BC5A54FAC6736155517A0A20A61A SWAP1 PUSH1 0x20 ADD PUSH1 0x40 MLOAD DUP1 SWAP2 SUB SWAP1 LOG2 JUMPDEST POP POP JUMP JUMPDEST PUSH1 0x0 SLOAD PUSH1 0x1 PUSH1 0x1 PUSH1 0xA0 SHL SUB AND CALLER EQ PUSH2 0x1583 JUMPI PUSH1 0x40 MLOAD PUSH4 0x118CDAA7 PUSH1 0xE0 SHL DUP2 MSTORE CALLER PUSH1 0x4 DUP3 ADD MSTORE PUSH1 0x24 ADD PUSH2 0x79D JUMP JUMPDEST PUSH1 0x1 PUSH1 0x1 PUSH1 0xA0 SHL SUB DUP4 AND PUSH1 0x0 SWAP1 DUP2 MSTORE PUSH1 0x11 PUSH1 0x20 SWAP1 DUP2 MSTORE PUSH1 0x40 DUP1 DUP4 KECCAK256 PUSH1 0x12 SWAP1 SWAP3 MSTORE SWAP1 SWAP2 KECCAK256 PUSH1 0x8 DUP2 ADD SLOAD PUSH2 0x100 SWAP1 DIV PUSH1 0xFF AND DUP1 PUSH2 0x2C3F JUMPI POP PUSH1 0x1 DUP2 ADD SLOAD ISZERO JUMPDEST ISZERO PUSH2 0x2C4B JUMPI POP POP POP POP POP JUMP JUMPDEST PUSH1 0x0 DUP3 PUSH1 0x3 ADD SLOAD DUP4 PUSH1 0x4 ADD SLOAD PUSH2 0x2C61 SWAP2 SWAP1 PUSH2 0x359B JUMP JUMPDEST SWAP1 POP DUP5 DUP2 DUP2 GT ISZERO PUSH2 0x2CB4 JUMPI POP PUSH1 0x40 DUP1 MLOAD DUP7 DUP2 MSTORE PUSH1 0x20 DUP2 ADD DUP4 SWAP1 MSTORE DUP3 SWAP2 PUSH1 0x1 PUSH1 0x1 PUSH1 0xA0 SHL SUB DUP10 AND SWAP2 PUSH32 0xB5987AAB1AFD379F6695F1068869EE8CA6A0D02304C57935A9CC3D3EA2E51E4D SWAP2 ADD PUSH1 0x40 MLOAD DUP1 SWAP2 SUB SWAP1 LOG2 JUMPDEST DUP1 ISZERO PUSH2 0x2D90 JUMPI DUP1 DUP5 PUSH1 0x3 ADD PUSH1 0x0 DUP3 DUP3 SLOAD PUSH2 0x2CCE SWAP2 SWAP1 PUSH2 0x3520 JUMP JUMPDEST SWAP1 SWAP2 SSTORE POP POP PUSH1 0x2 SLOAD PUSH1 0x40 MLOAD PUSH4 0xA9059CBB PUSH1 0xE0 SHL DUP2 MSTORE PUSH1 0x1 PUSH1 0x1 PUSH1 0xA0 SHL SUB SWAP1 SWAP2 AND SWAP1 PUSH4 0xA9059CBB SWAP1 PUSH2 0x2D05 SWAP1 DUP11 SWAP1 DUP6 SWAP1 PUSH1 0x4 ADD PUSH2 0x3413 JUMP JUMPDEST PUSH1 0x20 PUSH1 0x40 MLOAD DUP1 DUP4 SUB DUP2 PUSH1 0x0 DUP8 GAS CALL ISZERO DUP1 ISZERO PUSH2 0x2D24 JUMPI RETURNDATASIZE PUSH1 0x0 DUP1 RETURNDATACOPY RETURNDATASIZE PUSH1 0x0 REVERT JUMPDEST POP POP POP POP PUSH1 0x40 MLOAD RETURNDATASIZE PUSH1 0x1F NOT PUSH1 0x1F DUP3 ADD AND DUP3 ADD DUP1 PUSH1 0x40 MSTORE POP DUP2 ADD SWAP1 PUSH2 0x2D48 SWAP2 SWAP1 PUSH2 0x3579 JUMP JUMPDEST POP PUSH1 0x40 DUP1 MLOAD DUP3 DUP2 MSTORE PUSH1 0xFF DUP8 AND PUSH1 0x20 DUP3 ADD MSTORE PUSH1 0x1 PUSH1 0x1 PUSH1 0xA0 SHL SUB DUP10 AND SWAP2 PUSH32 0xF381583145E90B82CC5E529BF4FC4D0E44397174CDF145C4251AC33EF195A424 SWAP2 ADD PUSH1 0x40 MLOAD DUP1 SWAP2 SUB SWAP1 LOG2 JUMPDEST DUP4 PUSH1 0x4 ADD SLOAD DUP5 PUSH1 0x3 ADD SLOAD LT PUSH2 0x2DA8 JUMPI PUSH2 0x2DA8 DUP8 PUSH2 0x2991 JUMP JUMPDEST POP POP POP POP POP POP POP JUMP JUMPDEST PUSH1 0x1 PUSH1 0x1 PUSH1 0xA0 SHL SUB DUP1 DUP5 AND PUSH1 0x0 SWAP1 DUP2 MSTORE PUSH1 0x11 PUSH1 0x20 MSTORE PUSH1 0x40 DUP2 KECCAK256 SLOAD SWAP1 SWAP2 AND SWAP1 DUP1 JUMPDEST PUSH1 0x1 PUSH1 0x1 PUSH1 0xA0 SHL SUB DUP4 AND ISZERO DUP1 ISZERO SWAP1 PUSH2 0x2DE9 JUMPI POP PUSH1 0x14 DUP2 LT JUMPDEST ISZERO PUSH2 0x2F20 JUMPI PUSH1 0x1 PUSH1 0x1 PUSH1 0xA0 SHL SUB DUP4 AND PUSH1 0x0 SWAP1 DUP2 MSTORE PUSH1 0x11 PUSH1 0x20 MSTORE PUSH1 0x40 DUP2 KECCAK256 PUSH1 0x1 ADD SLOAD PUSH2 0x2E13 SWAP1 PUSH2 0x214B JUMP JUMPDEST SWAP2 POP POP DUP3 DUP2 GT ISZERO PUSH2 0x2EE1 JUMPI PUSH1 0x0 PUSH2 0x2E2A DUP5 DUP4 PUSH2 0x359B JUMP JUMPDEST SWAP1 POP PUSH1 0x0 PUSH1 0x64 PUSH2 0x2E3A DUP4 DUP11 PUSH2 0x3503 JUMP JUMPDEST PUSH2 0x2E44 SWAP2 SWAP1 PUSH2 0x3533 JUMP JUMPDEST PUSH1 0x0 DUP9 DUP2 MSTORE PUSH1 0x14 PUSH1 0x20 SWAP1 DUP2 MSTORE PUSH1 0x40 DUP1 DUP4 KECCAK256 DUP2 MLOAD DUP1 DUP4 ADD DUP4 MSTORE PUSH1 0x1 PUSH1 0x1 PUSH1 0xA0 SHL SUB DUP13 DUP2 AND DUP1 DUP4 MSTORE DUP3 DUP7 ADD DUP9 DUP2 MSTORE DUP5 SLOAD PUSH1 0x1 DUP1 DUP3 ADD DUP8 SSTORE SWAP6 DUP10 MSTORE SWAP8 DUP8 SWAP1 KECCAK256 SWAP4 MLOAD PUSH1 0x2 SWAP1 SWAP9 MUL SWAP1 SWAP4 ADD DUP1 SLOAD PUSH1 0x1 PUSH1 0x1 PUSH1 0xA0 SHL SUB NOT AND SWAP8 SWAP1 SWAP3 AND SWAP7 SWAP1 SWAP7 OR DUP2 SSTORE SWAP1 MLOAD SWAP2 ADD SSTORE MLOAD DUP4 DUP2 MSTORE SWAP3 SWAP4 POP SWAP1 SWAP2 DUP10 SWAP2 PUSH32 0xBD5E0947444D5ADB46B3D24786F72907C1E8176CB1348960766A6CD6FAD13E9F SWAP2 ADD PUSH1 0x40 MLOAD DUP1 SWAP2 SUB SWAP1 LOG3 DUP3 SWAP5 POP POP POP JUMPDEST PUSH1 0x2D DUP2 LT PUSH2 0x2EEF JUMPI POP PUSH2 0x2F20 JUMP JUMPDEST PUSH1 0x1 PUSH1 0x1 PUSH1 0xA0 SHL SUB SWAP4 DUP5 AND PUSH1 0x0 SWAP1 DUP2 MSTORE PUSH1 0x11 PUSH1 0x20 MSTORE PUSH1 0x40 SWAP1 KECCAK256 SLOAD SWAP1 SWAP4 AND SWAP3 DUP2 PUSH2 0x2F17 DUP2 PUSH2 0x35C7 JUMP JUMPDEST SWAP3 POP POP POP PUSH2 0x2DD1 JUMP JUMPDEST POP POP POP POP POP POP JUMP JUMPDEST PUSH1 0x2 SLOAD PUSH1 0x40 MLOAD PUSH4 0x70A08231 PUSH1 0xE0 SHL DUP2 MSTORE ADDRESS PUSH1 0x4 DUP3 ADD MSTORE PUSH1 0x0 SWAP2 DUP4 SWAP2 PUSH1 0x1 PUSH1 0x1 PUSH1 0xA0 SHL SUB SWAP1 SWAP2 AND SWAP1 PUSH4 0x70A08231 SWAP1 PUSH1 0x24 ADD PUSH1 0x20 PUSH1 0x40 MLOAD DUP1 DUP4 SUB DUP2 DUP7 GAS STATICCALL ISZERO DUP1 ISZERO PUSH2 0x2F75 JUMPI RETURNDATASIZE PUSH1 0x0 DUP1 RETURNDATACOPY RETURNDATASIZE PUSH1 0x0 REVERT JUMPDEST POP POP POP POP PUSH1 0x40 MLOAD RETURNDATASIZE PUSH1 0x1F NOT PUSH1 0x1F DUP3 ADD AND DUP3 ADD DUP1 PUSH1 0x40 MSTORE POP DUP2 ADD SWAP1 PUSH2 0x2F99 SWAP2 SWAP1 PUSH2 0x35AE JUMP JUMPDEST PUSH2 0x2FA3 SWAP2 SWAP1 PUSH2 0x359B JUMP JUMPDEST PUSH1 0x3 SLOAD PUSH1 0x40 MLOAD PUSH4 0x70A08231 PUSH1 0xE0 SHL DUP2 MSTORE ADDRESS PUSH1 0x4 DUP3 ADD MSTORE SWAP2 SWAP3 POP PUSH1 0x0 SWAP2 PUSH1 0x1 PUSH1 0x1 PUSH1 0xA0 SHL SUB SWAP1 SWAP2 AND SWAP1 PUSH4 0x70A08231 SWAP1 PUSH1 0x24 ADD PUSH1 0x20 PUSH1 0x40 MLOAD DUP1 DUP4 SUB DUP2 DUP7 GAS STATICCALL ISZERO DUP1 ISZERO PUSH2 0x2FF1 JUMPI RETURNDATASIZE PUSH1 0x0 DUP1 RETURNDATACOPY RETURNDATASIZE PUSH1 0x0 REVERT JUMPDEST POP POP POP POP PUSH1 0x40 MLOAD RETURNDATASIZE PUSH1 0x1F NOT PUSH1 0x1F DUP3 ADD AND DUP3 ADD DUP1 PUSH1 0x40 MSTORE POP DUP2 ADD SWAP1 PUSH2 0x3015 SWAP2 SWAP1 PUSH2 0x35AE JUMP JUMPDEST SWAP1 POP PUSH1 0x0 DUP3 GT DUP1 ISZERO PUSH2 0x3027 JUMPI POP PUSH1 0x0 DUP2 GT JUMPDEST ISZERO PUSH2 0x1A3C JUMPI PUSH1 0x0 PUSH2 0x3039 DUP5 DUP5 DUP5 PUSH2 0x8B8 JUMP JUMPDEST SWAP1 POP DUP1 ISZERO PUSH2 0x30DA JUMPI PUSH1 0x3 SLOAD PUSH1 0x40 MLOAD PUSH4 0x852CD8D PUSH1 0xE3 SHL DUP2 MSTORE PUSH1 0x4 DUP2 ADD DUP4 SWAP1 MSTORE PUSH1 0x1 PUSH1 0x1 PUSH1 0xA0 SHL SUB SWAP1 SWAP2 AND SWAP1 PUSH4 0x42966C68 SWAP1 PUSH1 0x24 ADD PUSH1 0x0 PUSH1 0x40 MLOAD DUP1 DUP4 SUB DUP2 PUSH1 0x0 DUP8 DUP1 EXTCODESIZE ISZERO DUP1 ISZERO PUSH2 0x3087 JUMPI PUSH1 0x0 DUP1 REVERT JUMPDEST POP GAS CALL ISZERO DUP1 ISZERO PUSH2 0x309B JUMPI RETURNDATASIZE PUSH1 0x0 DUP1 RETURNDATACOPY RETURNDATASIZE PUSH1 0x0 REVERT JUMPDEST POP POP PUSH1 0x40 DUP1 MLOAD DUP8 DUP2 MSTORE PUSH1 0x20 DUP2 ADD DUP6 SWAP1 MSTORE PUSH32 0xEC3929061CBBBEECB325623E7D5A86C3DAE11CB8A22CA45DC0972955657DA25 SWAP4 POP ADD SWAP1 POP PUSH1 0x40 MLOAD DUP1 SWAP2 SUB SWAP1 LOG1 JUMPDEST POP POP POP POP JUMP JUMPDEST PUSH1 0x0 DUP1 SLOAD PUSH1 0x1 PUSH1 0x1 PUSH1 0xA0 SHL SUB DUP4 DUP2 AND PUSH1 0x1 PUSH1 0x1 PUSH1 0xA0 SHL SUB NOT DUP4 AND DUP2 OR DUP5 SSTORE PUSH1 0x40 MLOAD SWAP2 SWAP1 SWAP3 AND SWAP3 DUP4 SWAP2 PUSH32 0x8BE0079C531659141344CD1FD0A4F28419497F9722A3DAAFE3B4186F6B6457E0 SWAP2 SWAP1 LOG3 POP POP JUMP JUMPDEST PUSH1 0x0 DUP2 DUP2 MSTORE PUSH1 0x14 PUSH1 0x20 SWAP1 DUP2 MSTORE PUSH1 0x40 DUP1 DUP4 KECCAK256 DUP1 SLOAD DUP3 MLOAD DUP2 DUP6 MUL DUP2 ADD DUP6 ADD SWAP1 SWAP4 MSTORE DUP1 DUP4 MSTORE SWAP2 SWAP3 SWAP1 SWAP2 SWAP1 DUP5 SWAP1 DUP5 ADD JUMPDEST DUP3 DUP3 LT ISZERO PUSH2 0x31A4 JUMPI PUSH1 0x0 DUP5 DUP2 MSTORE PUSH1 0x20 SWAP1 DUP2 SWAP1 KECCAK256 PUSH1 0x40 DUP1 MLOAD DUP1 DUP3 ADD SWAP1 SWAP2 MSTORE PUSH1 0x2 DUP6 MUL SWAP1 SWAP2 ADD DUP1 SLOAD PUSH1 0x1 PUSH1 0x1 PUSH1 0xA0 SHL SUB AND DUP3 MSTORE PUSH1 0x1 SWAP1 DUP2 ADD SLOAD DUP3 DUP5 ADD MSTORE SWAP1 DUP4 MSTORE SWAP1 SWAP3 ADD SWAP2 ADD PUSH2 0x315C JUMP JUMPDEST POP POP POP POP SWAP1 POP PUSH1 0x0 JUMPDEST DUP2 MLOAD DUP2 LT ISZERO PUSH2 0x328C JUMPI PUSH2 0x31FC DUP3 DUP3 DUP2 MLOAD DUP2 LT PUSH2 0x31CB JUMPI PUSH2 0x31CB PUSH2 0x35E0 JUMP JUMPDEST PUSH1 0x20 MUL PUSH1 0x20 ADD ADD MLOAD PUSH1 0x0 ADD MLOAD DUP4 DUP4 DUP2 MLOAD DUP2 LT PUSH2 0x31E9 JUMPI PUSH2 0x31E9 PUSH2 0x35E0 JUMP JUMPDEST PUSH1 0x20 MUL PUSH1 0x20 ADD ADD MLOAD PUSH1 0x20 ADD MLOAD PUSH1 0x3 PUSH2 0x2C02 JUMP JUMPDEST DUP2 DUP2 DUP2 MLOAD DUP2 LT PUSH2 0x320E JUMPI PUSH2 0x320E PUSH2 0x35E0 JUMP JUMPDEST PUSH1 0x20 MUL PUSH1 0x20 ADD ADD MLOAD PUSH1 0x0 ADD MLOAD PUSH1 0x1 PUSH1 0x1 PUSH1 0xA0 SHL SUB AND DUP4 PUSH32 0x380D782EC118E5171A4D1E7081DB076C4C94CA49C623D531763D402B094B4F24 DUP5 DUP5 DUP2 MLOAD DUP2 LT PUSH2 0x3257 JUMPI PUSH2 0x3257 PUSH2 0x35E0 JUMP JUMPDEST PUSH1 0x20 MUL PUSH1 0x20 ADD ADD MLOAD PUSH1 0x20 ADD MLOAD PUSH1 0x40 MLOAD PUSH2 0x3272 SWAP2 DUP2 MSTORE PUSH1 0x20 ADD SWAP1 JUMP JUMPDEST PUSH1 0x40 MLOAD DUP1 SWAP2 SUB SWAP1 LOG3 DUP1 PUSH2 0x3284 DUP2 PUSH2 0x35C7 JUMP JUMPDEST SWAP2 POP POP PUSH2 0x31AD JUMP JUMPDEST POP PUSH1 0x0 DUP3 DUP2 MSTORE PUSH1 0x14 PUSH1 0x20 MSTORE PUSH1 0x40 DUP2 KECCAK256 PUSH2 0x2BD1 SWAP2 POP DUP1 SLOAD PUSH1 0x0 DUP3 SSTORE PUSH1 0x2 MUL SWAP1 PUSH1 0x0 MSTORE PUSH1 0x20 PUSH1 0x0 KECCAK256 SWAP1 DUP2 ADD SWAP1 PUSH2 0xCD7 SWAP2 SWAP1 JUMPDEST DUP1 DUP3 GT ISZERO PUSH2 0x32E1 JUMPI DUP1 SLOAD PUSH1 0x1 PUSH1 0x1 PUSH1 0xA0 SHL SUB NOT AND DUP2 SSTORE PUSH1 0x0 PUSH1 0x1 DUP3 ADD SSTORE PUSH1 0x2 ADD PUSH2 0x32BC JUMP JUMPDEST POP SWAP1 JUMP JUMPDEST DUP1 CALLDATALOAD PUSH1 0x1 PUSH1 0x1 PUSH1 0xA0 SHL SUB DUP2 AND DUP2 EQ PUSH2 0x32FC JUMPI PUSH1 0x0 DUP1 REVERT JUMPDEST SWAP2 SWAP1 POP JUMP JUMPDEST PUSH1 0x0 PUSH1 0x20 DUP3 DUP5 SUB SLT ISZERO PUSH2 0x3313 JUMPI PUSH1 0x0 DUP1 REVERT JUMPDEST PUSH2 0x331C DUP3 PUSH2 0x32E5 JUMP JUMPDEST SWAP4 SWAP3 POP POP POP JUMP JUMPDEST PUSH1 0x0 DUP1 PUSH1 0x0 PUSH1 0x60 DUP5 DUP7 SUB SLT ISZERO PUSH2 0x3338 JUMPI PUSH1 0x0 DUP1 REVERT JUMPDEST POP POP DUP2 CALLDATALOAD SWAP4 PUSH1 0x20 DUP4 ADD CALLDATALOAD SWAP4 POP PUSH1 0x40 SWAP1 SWAP3 ADD CALLDATALOAD SWAP2 SWAP1 POP JUMP JUMPDEST PUSH1 0x0 DUP1 PUSH1 0x40 DUP4 DUP6 SUB SLT ISZERO PUSH2 0x3362 JUMPI PUSH1 0x0 DUP1 REVERT JUMPDEST PUSH2 0x336B DUP4 PUSH2 0x32E5 JUMP JUMPDEST SWAP5 PUSH1 0x20 SWAP4 SWAP1 SWAP4 ADD CALLDATALOAD SWAP4 POP POP POP JUMP JUMPDEST PUSH1 0x0 PUSH1 0x20 DUP3 DUP5 SUB SLT ISZERO PUSH2 0x338B JUMPI PUSH1 0x0 DUP1 REVERT JUMPDEST POP CALLDATALOAD SWAP2 SWAP1 POP JUMP JUMPDEST PUSH1 0x0 DUP1 PUSH1 0x40 DUP4 DUP6 SUB SLT ISZERO PUSH2 0x33A5 JUMPI PUSH1 0x0 DUP1 REVERT JUMPDEST DUP3 CALLDATALOAD SWAP2 POP PUSH2 0x33B5 PUSH1 0x20 DUP5 ADD PUSH2 0x32E5 JUMP JUMPDEST SWAP1 POP SWAP3 POP SWAP3 SWAP1 POP JUMP JUMPDEST PUSH1 0x0 DUP1 PUSH1 0x0 PUSH1 0x60 DUP5 DUP7 SUB SLT ISZERO PUSH2 0x33D3 JUMPI PUSH1 0x0 DUP1 REVERT JUMPDEST PUSH2 0x33DC DUP5 PUSH2 0x32E5 JUMP JUMPDEST SWAP6 PUSH1 0x20 DUP6 ADD CALLDATALOAD SWAP6 POP PUSH1 0x40 SWAP1 SWAP5 ADD CALLDATALOAD SWAP4 SWAP3 POP POP POP JUMP JUMPDEST PUSH1 0x0 DUP1 PUSH1 0x40 DUP4 DUP6 SUB SLT ISZERO PUSH2 0x3404 JUMPI PUSH1 0x0 DUP1 REVERT JUMPDEST POP POP DUP1 CALLDATALOAD SWAP3 PUSH1 0x20 SWAP1 SWAP2 ADD CALLDATALOAD SWAP2 POP JUMP JUMPDEST PUSH1 0x1 PUSH1 0x1 PUSH1 0xA0 SHL SUB SWAP3 SWAP1 SWAP3 AND DUP3 MSTORE PUSH1 0x20 DUP3 ADD MSTORE PUSH1 0x40 ADD SWAP1 JUMP JUMPDEST PUSH1 0x0 DUP1 PUSH1 0x0 DUP1 PUSH1 0x80 DUP6 DUP8 SUB SLT ISZERO PUSH2 0x3442 JUMPI PUSH1 0x0 DUP1 REVERT JUMPDEST PUSH2 0x344B DUP6 PUSH2 0x32E5 JUMP JUMPDEST SWAP4 POP PUSH2 0x3459 PUSH1 0x20 DUP7 ADD PUSH2 0x32E5 JUMP JUMPDEST SWAP3 POP PUSH2 0x3467 PUSH1 0x40 DUP7 ADD PUSH2 0x32E5 JUMP JUMPDEST SWAP2 POP PUSH2 0x3475 PUSH1 0x60 DUP7 ADD PUSH2 0x32E5 JUMP JUMPDEST SWAP1 POP SWAP3 SWAP6 SWAP2 SWAP5 POP SWAP3 POP JUMP JUMPDEST PUSH1 0x0 DUP1 PUSH1 0x40 DUP4 DUP6 SUB SLT ISZERO PUSH2 0x3493 JUMPI PUSH1 0x0 DUP1 REVERT JUMPDEST PUSH2 0x349C DUP4 PUSH2 0x32E5 JUMP JUMPDEST SWAP2 POP PUSH2 0x33B5 PUSH1 0x20 DUP5 ADD PUSH2 0x32E5 JUMP JUMPDEST PUSH1 0x0 DUP1 PUSH1 0x0 DUP1 PUSH1 0x0 DUP1 PUSH1 0xC0 DUP8 DUP10 SUB SLT ISZERO PUSH2 0x34C3 JUMPI PUSH1 0x0 DUP1 REVERT JUMPDEST POP POP DUP5 CALLDATALOAD SWAP7 PUSH1 0x20 DUP7 ADD CALLDATALOAD SWAP7 POP PUSH1 0x40 DUP7 ADD CALLDATALOAD SWAP6 PUSH1 0x60 DUP2 ADD CALLDATALOAD SWAP6 POP PUSH1 0x80 DUP2 ADD CALLDATALOAD SWAP5 POP PUSH1 0xA0 ADD CALLDATALOAD SWAP3 POP SWAP1 POP JUMP JUMPDEST PUSH4 0x4E487B71 PUSH1 0xE0 SHL PUSH1 0x0 MSTORE PUSH1 0x11 PUSH1 0x4 MSTORE PUSH1 0x24 PUSH1 0x0 REVERT JUMPDEST DUP1 DUP3 MUL DUP2 ISZERO DUP3 DUP3 DIV DUP5 EQ OR PUSH2 0x351A JUMPI PUSH2 0x351A PUSH2 0x34ED JUMP JUMPDEST SWAP3 SWAP2 POP POP JUMP JUMPDEST DUP1 DUP3 ADD DUP1 DUP3 GT ISZERO PUSH2 0x351A JUMPI PUSH2 0x351A PUSH2 0x34ED JUMP JUMPDEST PUSH1 0x0 DUP3 PUSH2 0x3550 JUMPI PUSH4 0x4E487B71 PUSH1 0xE0 SHL PUSH1 0x0 MSTORE PUSH1 0x12 PUSH1 0x4 MSTORE PUSH1 0x24 PUSH1 0x0 REVERT JUMPDEST POP DIV SWAP1 JUMP JUMPDEST PUSH1 0x1 PUSH1 0x1 PUSH1 0xA0 SHL SUB SWAP4 DUP5 AND DUP2 MSTORE SWAP2 SWAP1 SWAP3 AND PUSH1 0x20 DUP3 ADD MSTORE PUSH1 0x40 DUP2 ADD SWAP2 SWAP1 SWAP2 MSTORE PUSH1 0x60 ADD SWAP1 JUMP JUMPDEST PUSH1 0x0 PUSH1 0x20 DUP3 DUP5 SUB SLT ISZERO PUSH2 0x358B JUMPI PUSH1 0x0 DUP1 REVERT JUMPDEST DUP2 MLOAD DUP1 ISZERO ISZERO DUP2 EQ PUSH2 0x331C JUMPI PUSH1 0x0 DUP1 REVERT JUMPDEST DUP2 DUP2 SUB DUP2 DUP2 GT ISZERO PUSH2 0x351A JUMPI PUSH2 0x351A PUSH2 0x34ED JUMP JUMPDEST PUSH1 0x0 PUSH1 0x20 DUP3 DUP5 SUB SLT ISZERO PUSH2 0x35C0 JUMPI PUSH1 0x0 DUP1 REVERT JUMPDEST POP MLOAD SWAP2 SWAP1 POP JUMP JUMPDEST PUSH1 0x0 PUSH1 0x1 DUP3 ADD PUSH2 0x35D9 JUMPI PUSH2 0x35D9 PUSH2 0x34ED JUMP JUMPDEST POP PUSH1 0x1 ADD SWAP1 JUMP JUMPDEST PUSH4 0x4E487B71 PUSH1 0xE0 SHL PUSH1 0x0 MSTORE PUSH1 0x32 PUSH1 0x4 MSTORE PUSH1 0x24 PUSH1 0x0 REVERT JUMPDEST PUSH4 0x4E487B71 PUSH1 0xE0 SHL PUSH1 0x0 MSTORE PUSH1 0x31 PUSH1 0x4 MSTORE PUSH1 0x24 PUSH1 0x0 REVERT JUMPDEST PUSH1 0x0 DUP2 PUSH2 0x361B JUMPI PUSH2 0x361B PUSH2 0x34ED JUMP JUMPDEST POP PUSH1 0x0 NOT ADD SWAP1 JUMP INVALID LOG2 PUSH5 0x6970667358 0x22 SLT KECCAK256 0x2A DUP3 CALLVALUE 0xC2 MSIZE 0x5C 0xD2 PUSH11 0x6F25A6381ADE075E2BD85 0xE7 EQ 0xEF PC SWAP3 ISZERO 0x24 0x2C CODECOPY 0x29 SWAP3 0xED 0xE9 PUSH5 0x736F6C6343 STOP ADDMOD EQ STOP CALLER "},"methodIdentifiers":{"REWARD_DIRECT()":"0e2be210","REWARD_DYNAMIC()":"8a859a85","REWARD_LEVEL()":"8c0eaa48","REWARD_STATIC()":"1427f616","SECONDS_IN_UNIT()":"488b5d97","addLiquidity(uint256,uint256)":"9cd441da","adminSetReferrer(address,address)":"a2af9226","adminSetUserStats(address,uint256,uint256)":"6fb3c47c","adminWithdrawJBC(uint256,address)":"62eea914","adminWithdrawMC(uint256,address)":"d241e001","bindReferrer(address)":"04f618cb","buyTicket(uint256)":"67dd74ca","buybackPercent()":"e4412f68","buybackWallet()":"deab8aea","claimRewards()":"372500ab","directReferrals(address,uint256)":"05ad3935","directRewardPercent()":"ccf61944","getAmountOut(uint256,uint256,uint256)":"054d50d4","getJBCPrice()":"3a3ea2f0","getLevel(uint256)":"86481d40","jbcToken()":"1788513c","levelRewardPercent()":"bd594dcf","lpInjectionPercent()":"ceaa366d","lpInjectionWallet()":"88fd4d33","marketingPercent()":"d8020a18","marketingWallet()":"75f0a874","mcToken()":"95253992","nextTicketId()":"6031a52f","owner()":"8da5cb5b","redeem()":"be040fb0","redemptionFeePercent()":"dec7fa3b","renounceOwnership()":"715018a6","setDistributionPercents(uint256,uint256,uint256,uint256,uint256,uint256)":"ecda2d32","setRedemptionFee(uint256)":"7dbc1df0","setSwapTaxes(uint256,uint256)":"90b0eb51","setWallets(address,address,address,address)":"83672f3e","stakeLiquidity(uint256)":"35076373","swapBuyTax()":"27f082f4","swapJBCToMC(uint256)":"52778b05","swapMCToJBC(uint256)":"0a5c4567","swapReserveJBC()":"1d0dac76","swapReserveMC()":"77a2a540","swapSellTax()":"9370b080","ticketPendingRewards(uint256,uint256)":"813380cd","ticketStaticPaid(uint256)":"f1d34d4e","transferOwnership(address)":"f2fde38b","treasuryPercent()":"04ef9d58","treasuryWallet()":"4626402b","userInfo(address)":"1959a002","userTicket(address)":"8710bcaa"}}}}}