{"contracts/JinbaoProtocol.sol":{"JinbaoProtocol":{"abi":[{"inputs":[],"stateMutability":"nonpayable","type":"constructor"},{"inputs":[{"internalType":"address","name":"target","type":"address"}],"name":"AddressEmptyCode","type":"error"},{"inputs":[],"name":"AlreadyBound","type":"error"},{"inputs":[],"name":"AlreadyExited","type":"error"},{"inputs":[],"name":"BatchUpdateSizeMismatch","type":"error"},{"inputs":[{"internalType":"address","name":"implementation","type":"address"}],"name":"ERC1967InvalidImplementation","type":"error"},{"inputs":[],"name":"ERC1967NonPayable","type":"error"},{"inputs":[],"name":"Expired","type":"error"},{"inputs":[],"name":"FailedCall","type":"error"},{"inputs":[],"name":"InsufficientBalance","type":"error"},{"inputs":[],"name":"InvalidAddress","type":"error"},{"inputs":[],"name":"InvalidAmount","type":"error"},{"inputs":[],"name":"InvalidCycle","type":"error"},{"inputs":[],"name":"InvalidFee","type":"error"},{"inputs":[],"name":"InvalidInitialization","type":"error"},{"inputs":[],"name":"InvalidLevelConfig","type":"error"},{"inputs":[],"name":"InvalidRate","type":"error"},{"inputs":[],"name":"InvalidTax","type":"error"},{"inputs":[],"name":"InvalidTeamCountUpdate","type":"error"},{"inputs":[],"name":"LowLiquidity","type":"error"},{"inputs":[],"name":"NoRewards","type":"error"},{"inputs":[],"name":"NotActive","type":"error"},{"inputs":[],"name":"NotInitializing","type":"error"},{"inputs":[],"name":"NothingToRedeem","type":"error"},{"inputs":[{"internalType":"address","name":"owner","type":"address"}],"name":"OwnableInvalidOwner","type":"error"},{"inputs":[{"internalType":"address","name":"account","type":"address"}],"name":"OwnableUnauthorizedAccount","type":"error"},{"inputs":[],"name":"RecursionDepthExceeded","type":"error"},{"inputs":[],"name":"ReentrancyGuardReentrantCall","type":"error"},{"inputs":[],"name":"SelfReference","type":"error"},{"inputs":[],"name":"SumNot100","type":"error"},{"inputs":[{"internalType":"address","name":"user","type":"address"},{"internalType":"uint256","name":"expected","type":"uint256"},{"internalType":"uint256","name":"actual","type":"uint256"}],"name":"TeamCountMismatch","type":"error"},{"inputs":[],"name":"TeamCountOverflow","type":"error"},{"inputs":[],"name":"TransferFailed","type":"error"},{"inputs":[],"name":"UUPSUnauthorizedCallContext","type":"error"},{"inputs":[{"internalType":"bytes32","name":"slot","type":"bytes32"}],"name":"UUPSUnsupportedProxiableUUID","type":"error"},{"inputs":[],"name":"Unauthorized","type":"error"},{"anonymous":false,"inputs":[{"indexed":false,"internalType":"uint256","name":"usersUpdated","type":"uint256"}],"name":"BatchTeamCountsUpdated","type":"event"},{"anonymous":false,"inputs":[{"indexed":true,"internalType":"address","name":"user","type":"address"},{"indexed":true,"internalType":"address","name":"referrer","type":"address"}],"name":"BoundReferrer","type":"event"},{"anonymous":false,"inputs":[{"indexed":false,"internalType":"uint256","name":"mcAmount","type":"uint256"},{"indexed":false,"internalType":"uint256","name":"jbcBurned","type":"uint256"}],"name":"BuybackAndBurn","type":"event"},{"anonymous":false,"inputs":[{"indexed":true,"internalType":"uint256","name":"stakeId","type":"uint256"},{"indexed":true,"internalType":"address","name":"upline","type":"address"},{"indexed":false,"internalType":"uint256","name":"amount","type":"uint256"}],"name":"DifferentialRewardRecorded","type":"event"},{"anonymous":false,"inputs":[{"indexed":true,"internalType":"uint256","name":"stakeId","type":"uint256"},{"indexed":true,"internalType":"address","name":"upline","type":"address"},{"indexed":false,"internalType":"uint256","name":"amount","type":"uint256"}],"name":"DifferentialRewardReleased","type":"event"},{"anonymous":false,"inputs":[{"indexed":false,"internalType":"uint256","name":"direct","type":"uint256"},{"indexed":false,"internalType":"uint256","name":"level","type":"uint256"},{"indexed":false,"internalType":"uint256","name":"marketing","type":"uint256"},{"indexed":false,"internalType":"uint256","name":"buyback","type":"uint256"},{"indexed":false,"internalType":"uint256","name":"lpInjection","type":"uint256"},{"indexed":false,"internalType":"uint256","name":"treasury","type":"uint256"}],"name":"DistributionConfigUpdated","type":"event"},{"anonymous":false,"inputs":[],"name":"EmergencyPaused","type":"event"},{"anonymous":false,"inputs":[],"name":"EmergencyUnpaused","type":"event"},{"anonymous":false,"inputs":[{"indexed":true,"internalType":"address","name":"user","type":"address"},{"indexed":false,"internalType":"uint256","name":"ticketId","type":"uint256"}],"name":"Exited","type":"event"},{"anonymous":false,"inputs":[{"indexed":true,"internalType":"address","name":"user","type":"address"},{"indexed":false,"internalType":"uint256","name":"amount","type":"uint256"}],"name":"FeeRefunded","type":"event"},{"anonymous":false,"inputs":[{"indexed":false,"internalType":"uint64","name":"version","type":"uint64"}],"name":"Initialized","type":"event"},{"anonymous":false,"inputs":[],"name":"LevelConfigsUpdated","type":"event"},{"anonymous":false,"inputs":[{"indexed":false,"internalType":"uint256","name":"amount","type":"uint256"},{"indexed":false,"internalType":"uint256","name":"newTotal","type":"uint256"}],"name":"LevelRewardPoolUpdated","type":"event"},{"anonymous":false,"inputs":[{"indexed":true,"internalType":"address","name":"to","type":"address"},{"indexed":false,"internalType":"uint256","name":"amount","type":"uint256"}],"name":"LevelRewardPoolWithdrawn","type":"event"},{"anonymous":false,"inputs":[{"indexed":true,"internalType":"uint256","name":"ticketId","type":"uint256"},{"indexed":true,"internalType":"address","name":"upline","type":"address"},{"indexed":false,"internalType":"uint256","name":"amount","type":"uint256"}],"name":"LevelRewardRecorded","type":"event"},{"anonymous":false,"inputs":[{"indexed":true,"internalType":"uint256","name":"ticketId","type":"uint256"},{"indexed":true,"internalType":"address","name":"upline","type":"address"},{"indexed":false,"internalType":"uint256","name":"amount","type":"uint256"}],"name":"LevelRewardReleased","type":"event"},{"anonymous":false,"inputs":[{"indexed":false,"internalType":"uint256","name":"mcAmount","type":"uint256"},{"indexed":false,"internalType":"uint256","name":"jbcAmount","type":"uint256"}],"name":"LiquidityAdded","type":"event"},{"anonymous":false,"inputs":[{"indexed":true,"internalType":"address","name":"user","type":"address"},{"indexed":false,"internalType":"uint256","name":"amount","type":"uint256"},{"indexed":false,"internalType":"uint256","name":"cycleDays","type":"uint256"},{"indexed":false,"internalType":"uint256","name":"stakeId","type":"uint256"}],"name":"LiquidityStaked","type":"event"},{"anonymous":false,"inputs":[{"indexed":false,"internalType":"bool","name":"enabled","type":"bool"}],"name":"LiquidityStatusUpdated","type":"event"},{"anonymous":false,"inputs":[{"indexed":true,"internalType":"address","name":"previousOwner","type":"address"},{"indexed":true,"internalType":"address","name":"newOwner","type":"address"}],"name":"OwnershipTransferred","type":"event"},{"anonymous":false,"inputs":[{"indexed":false,"internalType":"bool","name":"enabled","type":"bool"}],"name":"RedeemStatusUpdated","type":"event"},{"anonymous":false,"inputs":[{"indexed":true,"internalType":"address","name":"user","type":"address"},{"indexed":false,"internalType":"uint256","name":"principal","type":"uint256"},{"indexed":false,"internalType":"uint256","name":"fee","type":"uint256"}],"name":"Redeemed","type":"event"},{"anonymous":false,"inputs":[{"indexed":false,"internalType":"uint256","name":"newFee","type":"uint256"}],"name":"RedemptionFeeUpdated","type":"event"},{"anonymous":false,"inputs":[{"indexed":true,"internalType":"address","name":"user","type":"address"},{"indexed":true,"internalType":"address","name":"from","type":"address"},{"indexed":false,"internalType":"uint256","name":"mcAmount","type":"uint256"},{"indexed":false,"internalType":"uint8","name":"rewardType","type":"uint8"},{"indexed":false,"internalType":"uint256","name":"ticketId","type":"uint256"}],"name":"ReferralRewardPaid","type":"event"},{"anonymous":false,"inputs":[{"indexed":true,"internalType":"address","name":"user","type":"address"},{"indexed":false,"internalType":"uint256","name":"amount","type":"uint256"},{"indexed":false,"internalType":"uint256","name":"cappedAmount","type":"uint256"}],"name":"RewardCapped","type":"event"},{"anonymous":false,"inputs":[{"indexed":true,"internalType":"address","name":"user","type":"address"},{"indexed":false,"internalType":"uint256","name":"mcAmount","type":"uint256"},{"indexed":false,"internalType":"uint256","name":"jbcAmount","type":"uint256"},{"indexed":false,"internalType":"uint8","name":"rewardType","type":"uint8"},{"indexed":false,"internalType":"uint256","name":"ticketId","type":"uint256"}],"name":"RewardClaimed","type":"event"},{"anonymous":false,"inputs":[{"indexed":true,"internalType":"address","name":"user","type":"address"},{"indexed":false,"internalType":"uint256","name":"amount","type":"uint256"},{"indexed":false,"internalType":"uint8","name":"rewardType","type":"uint8"}],"name":"RewardPaid","type":"event"},{"anonymous":false,"inputs":[{"indexed":false,"internalType":"uint256","name":"mcAmount","type":"uint256"},{"indexed":false,"internalType":"uint256","name":"jbcAmount","type":"uint256"}],"name":"SwapReservesWithdrawn","type":"event"},{"anonymous":false,"inputs":[{"indexed":false,"internalType":"uint256","name":"buyTax","type":"uint256"},{"indexed":false,"internalType":"uint256","name":"sellTax","type":"uint256"}],"name":"SwapTaxesUpdated","type":"event"},{"anonymous":false,"inputs":[{"indexed":true,"internalType":"address","name":"user","type":"address"},{"indexed":false,"internalType":"uint256","name":"jbcAmount","type":"uint256"},{"indexed":false,"internalType":"uint256","name":"mcAmount","type":"uint256"},{"indexed":false,"internalType":"uint256","name":"tax","type":"uint256"}],"name":"SwappedJBCToMC","type":"event"},{"anonymous":false,"inputs":[{"indexed":true,"internalType":"address","name":"user","type":"address"},{"indexed":false,"internalType":"uint256","name":"mcAmount","type":"uint256"},{"indexed":false,"internalType":"uint256","name":"jbcAmount","type":"uint256"},{"indexed":false,"internalType":"uint256","name":"tax","type":"uint256"}],"name":"SwappedMCToJBC","type":"event"},{"anonymous":false,"inputs":[{"indexed":true,"internalType":"uint256","name":"stakeId","type":"uint256"},{"indexed":true,"internalType":"address","name":"upline","type":"address"},{"indexed":false,"internalType":"uint256","name":"amount","type":"uint256"},{"indexed":false,"internalType":"uint256","name":"teamCount","type":"uint256"}],"name":"TeamBasedRewardCalculated","type":"event"},{"anonymous":false,"inputs":[{"indexed":true,"internalType":"address","name":"user","type":"address"},{"indexed":false,"internalType":"uint256","name":"oldCount","type":"uint256"},{"indexed":false,"internalType":"uint256","name":"newCount","type":"uint256"}],"name":"TeamCountUpdated","type":"event"},{"anonymous":false,"inputs":[{"indexed":true,"internalType":"address","name":"user","type":"address"},{"indexed":false,"internalType":"uint256","name":"expected","type":"uint256"},{"indexed":false,"internalType":"uint256","name":"actual","type":"uint256"}],"name":"TeamCountValidationFailed","type":"event"},{"anonymous":false,"inputs":[{"indexed":true,"internalType":"address","name":"user","type":"address"},{"indexed":false,"internalType":"uint256","name":"ticketId","type":"uint256"},{"indexed":false,"internalType":"uint256","name":"amount","type":"uint256"}],"name":"TicketExpired","type":"event"},{"anonymous":false,"inputs":[{"indexed":false,"internalType":"uint256","name":"newDuration","type":"uint256"}],"name":"TicketFlexibilityDurationUpdated","type":"event"},{"anonymous":false,"inputs":[{"indexed":true,"internalType":"address","name":"user","type":"address"},{"indexed":false,"internalType":"uint256","name":"amount","type":"uint256"},{"indexed":false,"internalType":"uint256","name":"ticketId","type":"uint256"}],"name":"TicketPurchased","type":"event"},{"anonymous":false,"inputs":[{"indexed":false,"internalType":"address","name":"token","type":"address"},{"indexed":false,"internalType":"address","name":"to","type":"address"},{"indexed":false,"internalType":"uint256","name":"amount","type":"uint256"}],"name":"TokensRescued","type":"event"},{"anonymous":false,"inputs":[{"indexed":true,"internalType":"address","name":"implementation","type":"address"}],"name":"Upgraded","type":"event"},{"anonymous":false,"inputs":[{"indexed":false,"internalType":"address","name":"marketing","type":"address"},{"indexed":false,"internalType":"address","name":"treasury","type":"address"},{"indexed":false,"internalType":"address","name":"lpInjection","type":"address"},{"indexed":false,"internalType":"address","name":"buyback","type":"address"}],"name":"WalletsUpdated","type":"event"},{"inputs":[],"name":"MAX_PRICE_IMPACT","outputs":[{"internalType":"uint256","name":"","type":"uint256"}],"stateMutability":"view","type":"function"},{"inputs":[],"name":"MIN_LIQUIDITY","outputs":[{"internalType":"uint256","name":"","type":"uint256"}],"stateMutability":"view","type":"function"},{"inputs":[],"name":"REWARD_DIFFERENTIAL","outputs":[{"internalType":"uint8","name":"","type":"uint8"}],"stateMutability":"view","type":"function"},{"inputs":[],"name":"REWARD_DIRECT","outputs":[{"internalType":"uint8","name":"","type":"uint8"}],"stateMutability":"view","type":"function"},{"inputs":[],"name":"REWARD_DYNAMIC","outputs":[{"internalType":"uint8","name":"","type":"uint8"}],"stateMutability":"view","type":"function"},{"inputs":[],"name":"REWARD_LEVEL","outputs":[{"internalType":"uint8","name":"","type":"uint8"}],"stateMutability":"view","type":"function"},{"inputs":[],"name":"REWARD_STATIC","outputs":[{"internalType":"uint8","name":"","type":"uint8"}],"stateMutability":"view","type":"function"},{"inputs":[],"name":"SECONDS_IN_UNIT","outputs":[{"internalType":"uint256","name":"","type":"uint256"}],"stateMutability":"view","type":"function"},{"inputs":[],"name":"UPGRADE_INTERFACE_VERSION","outputs":[{"internalType":"string","name":"","type":"string"}],"stateMutability":"view","type":"function"},{"inputs":[{"internalType":"uint256","name":"mcAmount","type":"uint256"},{"internalType":"uint256","name":"jbcAmount","type":"uint256"}],"name":"addLiquidity","outputs":[],"stateMutability":"nonpayable","type":"function"},{"inputs":[{"internalType":"address[]","name":"users","type":"address[]"},{"internalType":"uint256[]","name":"newCounts","type":"uint256[]"}],"name":"batchUpdateTeamCounts","outputs":[],"stateMutability":"nonpayable","type":"function"},{"inputs":[{"internalType":"address","name":"_referrer","type":"address"}],"name":"bindReferrer","outputs":[],"stateMutability":"nonpayable","type":"function"},{"inputs":[{"internalType":"uint256","name":"amount","type":"uint256"}],"name":"buyTicket","outputs":[],"stateMutability":"nonpayable","type":"function"},{"inputs":[],"name":"buybackPercent","outputs":[{"internalType":"uint256","name":"","type":"uint256"}],"stateMutability":"view","type":"function"},{"inputs":[],"name":"buybackWallet","outputs":[{"internalType":"address","name":"","type":"address"}],"stateMutability":"view","type":"function"},{"inputs":[],"name":"claimRewards","outputs":[],"stateMutability":"nonpayable","type":"function"},{"inputs":[{"internalType":"address","name":"","type":"address"},{"internalType":"uint256","name":"","type":"uint256"}],"name":"directReferrals","outputs":[{"internalType":"address","name":"","type":"address"}],"stateMutability":"view","type":"function"},{"inputs":[],"name":"directRewardPercent","outputs":[{"internalType":"uint256","name":"","type":"uint256"}],"stateMutability":"view","type":"function"},{"inputs":[],"name":"emergencyPause","outputs":[],"stateMutability":"nonpayable","type":"function"},{"inputs":[],"name":"emergencyPaused","outputs":[{"internalType":"bool","name":"","type":"bool"}],"stateMutability":"view","type":"function"},{"inputs":[],"name":"emergencyUnpause","outputs":[],"stateMutability":"nonpayable","type":"function"},{"inputs":[{"internalType":"address","name":"user","type":"address"}],"name":"getDirectReferrals","outputs":[{"internalType":"address[]","name":"","type":"address[]"}],"stateMutability":"view","type":"function"},{"inputs":[],"name":"getJBCPrice","outputs":[{"internalType":"uint256","name":"","type":"uint256"}],"stateMutability":"view","type":"function"},{"inputs":[{"internalType":"uint256","name":"activeDirects","type":"uint256"}],"name":"getLevel","outputs":[{"internalType":"uint256","name":"level","type":"uint256"},{"internalType":"uint256","name":"percent","type":"uint256"}],"stateMutability":"pure","type":"function"},{"inputs":[{"internalType":"uint256","name":"teamCount","type":"uint256"}],"name":"getLevelByTeamCount","outputs":[{"internalType":"uint256","name":"level","type":"uint256"},{"internalType":"uint256","name":"percent","type":"uint256"}],"stateMutability":"pure","type":"function"},{"inputs":[{"internalType":"uint256","name":"activeDirects","type":"uint256"}],"name":"getLevelRewardLayers","outputs":[{"internalType":"uint256","name":"","type":"uint256"}],"stateMutability":"pure","type":"function"},{"inputs":[{"internalType":"address","name":"_mcToken","type":"address"},{"internalType":"address","name":"_jbcToken","type":"address"},{"internalType":"address","name":"_marketing","type":"address"},{"internalType":"address","name":"_treasury","type":"address"},{"internalType":"address","name":"_lpInjection","type":"address"},{"internalType":"address","name":"_buybackWallet","type":"address"}],"name":"initialize","outputs":[],"stateMutability":"nonpayable","type":"function"},{"inputs":[],"name":"jbcToken","outputs":[{"internalType":"contract IJBC","name":"","type":"address"}],"stateMutability":"view","type":"function"},{"inputs":[],"name":"lastBurnTime","outputs":[{"internalType":"uint256","name":"","type":"uint256"}],"stateMutability":"view","type":"function"},{"inputs":[{"internalType":"uint256","name":"","type":"uint256"}],"name":"levelConfigs","outputs":[{"internalType":"uint256","name":"minDirects","type":"uint256"},{"internalType":"uint256","name":"level","type":"uint256"},{"internalType":"uint256","name":"percent","type":"uint256"}],"stateMutability":"view","type":"function"},{"inputs":[],"name":"levelRewardPercent","outputs":[{"internalType":"uint256","name":"","type":"uint256"}],"stateMutability":"view","type":"function"},{"inputs":[],"name":"levelRewardPool","outputs":[{"internalType":"uint256","name":"","type":"uint256"}],"stateMutability":"view","type":"function"},{"inputs":[],"name":"liquidityEnabled","outputs":[{"internalType":"bool","name":"","type":"bool"}],"stateMutability":"view","type":"function"},{"inputs":[],"name":"lpInjectionPercent","outputs":[{"internalType":"uint256","name":"","type":"uint256"}],"stateMutability":"view","type":"function"},{"inputs":[],"name":"lpInjectionWallet","outputs":[{"internalType":"address","name":"","type":"address"}],"stateMutability":"view","type":"function"},{"inputs":[],"name":"marketingPercent","outputs":[{"internalType":"uint256","name":"","type":"uint256"}],"stateMutability":"view","type":"function"},{"inputs":[],"name":"marketingWallet","outputs":[{"internalType":"address","name":"","type":"address"}],"stateMutability":"view","type":"function"},{"inputs":[],"name":"mcToken","outputs":[{"internalType":"contract IERC20","name":"","type":"address"}],"stateMutability":"view","type":"function"},{"inputs":[],"name":"nextStakeId","outputs":[{"internalType":"uint256","name":"","type":"uint256"}],"stateMutability":"view","type":"function"},{"inputs":[],"name":"nextTicketId","outputs":[{"internalType":"uint256","name":"","type":"uint256"}],"stateMutability":"view","type":"function"},{"inputs":[],"name":"owner","outputs":[{"internalType":"address","name":"","type":"address"}],"stateMutability":"view","type":"function"},{"inputs":[],"name":"priceOracle","outputs":[{"internalType":"address","name":"","type":"address"}],"stateMutability":"view","type":"function"},{"inputs":[],"name":"proxiableUUID","outputs":[{"internalType":"bytes32","name":"","type":"bytes32"}],"stateMutability":"view","type":"function"},{"inputs":[],"name":"redeem","outputs":[],"stateMutability":"nonpayable","type":"function"},{"inputs":[],"name":"redeemEnabled","outputs":[{"internalType":"bool","name":"","type":"bool"}],"stateMutability":"view","type":"function"},{"inputs":[],"name":"redemptionFeePercent","outputs":[{"internalType":"uint256","name":"","type":"uint256"}],"stateMutability":"view","type":"function"},{"inputs":[],"name":"renounceOwnership","outputs":[],"stateMutability":"nonpayable","type":"function"},{"inputs":[{"internalType":"address","name":"_token","type":"address"},{"internalType":"address","name":"_to","type":"address"},{"internalType":"uint256","name":"_amount","type":"uint256"}],"name":"rescueTokens","outputs":[],"stateMutability":"nonpayable","type":"function"},{"inputs":[{"internalType":"uint256","name":"_direct","type":"uint256"},{"internalType":"uint256","name":"_level","type":"uint256"},{"internalType":"uint256","name":"_marketing","type":"uint256"},{"internalType":"uint256","name":"_buyback","type":"uint256"},{"internalType":"uint256","name":"_lpInjection","type":"uint256"},{"internalType":"uint256","name":"_treasury","type":"uint256"}],"name":"setDistributionConfig","outputs":[],"stateMutability":"nonpayable","type":"function"},{"inputs":[{"internalType":"bool","name":"_liquidityEnabled","type":"bool"},{"internalType":"bool","name":"_redeemEnabled","type":"bool"}],"name":"setOperationalStatus","outputs":[],"stateMutability":"nonpayable","type":"function"},{"inputs":[{"internalType":"address","name":"_oracle","type":"address"}],"name":"setPriceOracle","outputs":[],"stateMutability":"nonpayable","type":"function"},{"inputs":[{"internalType":"uint256","name":"_fee","type":"uint256"}],"name":"setRedemptionFeePercent","outputs":[],"stateMutability":"nonpayable","type":"function"},{"inputs":[{"internalType":"uint256","name":"_buyTax","type":"uint256"},{"internalType":"uint256","name":"_sellTax","type":"uint256"}],"name":"setSwapTaxes","outputs":[],"stateMutability":"nonpayable","type":"function"},{"inputs":[{"internalType":"uint256","name":"_duration","type":"uint256"}],"name":"setTicketFlexibilityDuration","outputs":[],"stateMutability":"nonpayable","type":"function"},{"inputs":[{"internalType":"address","name":"_marketing","type":"address"},{"internalType":"address","name":"_treasury","type":"address"},{"internalType":"address","name":"_lpInjection","type":"address"},{"internalType":"address","name":"_buyback","type":"address"}],"name":"setWallets","outputs":[],"stateMutability":"nonpayable","type":"function"},{"inputs":[{"internalType":"uint256","name":"amount","type":"uint256"},{"internalType":"uint256","name":"cycleDays","type":"uint256"}],"name":"stakeLiquidity","outputs":[],"stateMutability":"nonpayable","type":"function"},{"inputs":[{"internalType":"uint256","name":"","type":"uint256"}],"name":"stakeOwner","outputs":[{"internalType":"address","name":"","type":"address"}],"stateMutability":"view","type":"function"},{"inputs":[{"internalType":"uint256","name":"","type":"uint256"},{"internalType":"uint256","name":"","type":"uint256"}],"name":"stakePendingRewards","outputs":[{"internalType":"address","name":"upline","type":"address"},{"internalType":"uint256","name":"amount","type":"uint256"}],"stateMutability":"view","type":"function"},{"inputs":[],"name":"swapBuyTax","outputs":[{"internalType":"uint256","name":"","type":"uint256"}],"stateMutability":"view","type":"function"},{"inputs":[{"internalType":"uint256","name":"jbcAmount","type":"uint256"}],"name":"swapJBCToMC","outputs":[],"stateMutability":"nonpayable","type":"function"},{"inputs":[{"internalType":"uint256","name":"mcAmount","type":"uint256"}],"name":"swapMCToJBC","outputs":[],"stateMutability":"nonpayable","type":"function"},{"inputs":[],"name":"swapReserveJBC","outputs":[{"internalType":"uint256","name":"","type":"uint256"}],"stateMutability":"view","type":"function"},{"inputs":[],"name":"swapReserveMC","outputs":[{"internalType":"uint256","name":"","type":"uint256"}],"stateMutability":"view","type":"function"},{"inputs":[],"name":"swapSellTax","outputs":[{"internalType":"uint256","name":"","type":"uint256"}],"stateMutability":"view","type":"function"},{"inputs":[],"name":"ticketFlexibilityDuration","outputs":[{"internalType":"uint256","name":"","type":"uint256"}],"stateMutability":"view","type":"function"},{"inputs":[{"internalType":"uint256","name":"","type":"uint256"}],"name":"ticketOwner","outputs":[{"internalType":"address","name":"","type":"address"}],"stateMutability":"view","type":"function"},{"inputs":[{"internalType":"uint256","name":"","type":"uint256"},{"internalType":"uint256","name":"","type":"uint256"}],"name":"ticketPendingRewards","outputs":[{"internalType":"address","name":"upline","type":"address"},{"internalType":"uint256","name":"amount","type":"uint256"}],"stateMutability":"view","type":"function"},{"inputs":[{"internalType":"address","name":"newOwner","type":"address"}],"name":"transferOwnership","outputs":[],"stateMutability":"nonpayable","type":"function"},{"inputs":[],"name":"treasuryPercent","outputs":[{"internalType":"uint256","name":"","type":"uint256"}],"stateMutability":"view","type":"function"},{"inputs":[],"name":"treasuryWallet","outputs":[{"internalType":"address","name":"","type":"address"}],"stateMutability":"view","type":"function"},{"inputs":[{"internalType":"address","name":"newImplementation","type":"address"},{"internalType":"bytes","name":"data","type":"bytes"}],"name":"upgradeToAndCall","outputs":[],"stateMutability":"payable","type":"function"},{"inputs":[{"internalType":"address","name":"","type":"address"}],"name":"userInfo","outputs":[{"internalType":"address","name":"referrer","type":"address"},{"internalType":"uint256","name":"activeDirects","type":"uint256"},{"internalType":"uint256","name":"teamCount","type":"uint256"},{"internalType":"uint256","name":"totalRevenue","type":"uint256"},{"internalType":"uint256","name":"currentCap","type":"uint256"},{"internalType":"bool","name":"isActive","type":"bool"},{"internalType":"uint256","name":"refundFeeAmount","type":"uint256"},{"internalType":"uint256","name":"teamTotalVolume","type":"uint256"},{"internalType":"uint256","name":"teamTotalCap","type":"uint256"},{"internalType":"uint256","name":"maxTicketAmount","type":"uint256"},{"internalType":"uint256","name":"maxSingleTicketAmount","type":"uint256"}],"stateMutability":"view","type":"function"},{"inputs":[{"internalType":"address","name":"","type":"address"},{"internalType":"uint256","name":"","type":"uint256"}],"name":"userStakes","outputs":[{"internalType":"uint256","name":"id","type":"uint256"},{"internalType":"uint256","name":"amount","type":"uint256"},{"internalType":"uint256","name":"startTime","type":"uint256"},{"internalType":"uint256","name":"cycleDays","type":"uint256"},{"internalType":"bool","name":"active","type":"bool"},{"internalType":"uint256","name":"paid","type":"uint256"}],"stateMutability":"view","type":"function"},{"inputs":[{"internalType":"address","name":"","type":"address"}],"name":"userTicket","outputs":[{"internalType":"uint256","name":"ticketId","type":"uint256"},{"internalType":"uint256","name":"amount","type":"uint256"},{"internalType":"uint256","name":"purchaseTime","type":"uint256"},{"internalType":"bool","name":"exited","type":"bool"}],"stateMutability":"view","type":"function"},{"inputs":[{"internalType":"address","name":"_to","type":"address"},{"internalType":"uint256","name":"_amount","type":"uint256"}],"name":"withdrawLevelRewardPool","outputs":[],"stateMutability":"nonpayable","type":"function"},{"inputs":[{"internalType":"address","name":"_toMC","type":"address"},{"internalType":"uint256","name":"_amountMC","type":"uint256"},{"internalType":"address","name":"_toJBC","type":"address"},{"internalType":"uint256","name":"_amountJBC","type":"uint256"}],"name":"withdrawSwapReserves","outputs":[],"stateMutability":"nonpayable","type":"function"}],"evm":{"bytecode":{"linkReferences":{},"object":"60a0604052306080523480156200001557600080fd5b506200002062000026565b620000da565b7ff0c57e16840df040f15088dc2f81fe391c3923bec73e23a9662efc9c229c6a00805468010000000000000000900460ff1615620000775760405163f92ee8a960e01b815260040160405180910390fd5b80546001600160401b0390811614620000d75780546001600160401b0319166001600160401b0390811782556040519081527fc7f505b2f371ae2175ee4913f4499e1f2633a7b5936321eed1cdaeb6115181d29060200160405180910390a15b50565b60805161620b6200010460003960008181614810015281816148390152614976015261620b6000f3fe6080604052600436106103575760003560e01c806301d62efb1461035c57806304ef9d581461037e57806304f618cb146103a757806305ad3935146103c75780630a5c4567146103f45780630e2be210146104145780631427f6161461043b5780631788513c14610450578063182c84cc146104705780631959a002146104905780631d0dac761461056f57806321b77d631461058557806321f483d3146105a25780632630c12f146105d157806327c830a9146105f657806327f082f414610620578063372500ab146106365780633a3ea2f01461064b5780633dbd46bd146106605780634626402b1461069657806347194001146106b6578063488b5d97146106e45780634a4e3bd5146106f95780634ea4c6b31461070e5780634f1ef2861461072e57806351858e271461074157806352778b051461075657806352d1902d14610776578063530e784f1461078b5780636031a52f146107ab57806367dd74ca146107c15780636839b5fa146107e15780636dd66827146107f7578063715018a61461080d57806374b0eecf1461082257806375506c961461084257806375f0a8741461085857806377a2a54014610878578063813380cd1461088e57806383672f3e146108bc57806386481d40146106b65780638710bcaa146108dc57806388481b611461094357806388fd4d33146109585780638a859a85146109785780638c0eaa481461098d5780638da5cb5b146109a257806390b0eb51146109b75780639370b080146109d757806395253992146109ed57806399b6024d14610a0d5780639cd441da14610a2d5780639d99eca414610a4d578063ac8f50aa14610a6d578063ad3cb1cc14610a8d578063b048a4bb14610acb578063b5d5b5fa14610ae5578063b759936b14610b34578063bd594dcf14610b4a578063be040fb014610b60578063c2ff12fc14610b75578063cc2a9a5b14610bab578063ccf6194414610bcb578063cea9d26f14610be1578063ceaa366d14610c01578063d0f1647014610c17578063d2c8e0e514610c37578063d2f8253614610c64578063d4f0014214610c83578063d8020a1814610ca3578063deab8aea14610cb9578063dec7fa3b14610cd9578063e306744914610cef578063e4412f6814610d05578063ece7126614610d1b578063f2fde38b14610d3b575b600080fd5b34801561036857600080fd5b5061037c610377366004615a52565b610d5b565b005b34801561038a57600080fd5b50610394600b5481565b6040519081526020015b60405180910390f35b3480156103b357600080fd5b5061037c6103c2366004615aa7565b610df1565b3480156103d357600080fd5b506103e76103e2366004615ac2565b610ef6565b60405161039e9190615aec565b34801561040057600080fd5b5061037c61040f366004615b00565b610f2e565b34801561042057600080fd5b50610429600281565b60405160ff909116815260200161039e565b34801561044757600080fd5b50610429600081565b34801561045c57600080fd5b506001546103e7906001600160a01b031681565b34801561047c57600080fd5b5061039461048b366004615b00565b6112c9565b34801561049c57600080fd5b506105126104ab366004615aa7565b600f60205260009081526040902080546001820154600283015460038401546004850154600586015460068701546007880154600889015460098a0154600a909a01546001600160a01b0390991699979896979596949560ff90941694929391929091908b565b604080516001600160a01b03909c168c5260208c019a909a52988a01979097526060890195909552608088019390935290151560a087015260c086015260e08501526101008401526101208301526101408201526101600161039e565b34801561057b57600080fd5b5061039460185481565b34801561059157600080fd5b50610394683635c9adc5dea0000081565b3480156105ae57600080fd5b506105c26105bd366004615b00565b611303565b60405161039e93929190615b19565b3480156105dd57600080fd5b50604f546103e79061010090046001600160a01b031681565b34801561060257600080fd5b50604f546106109060ff1681565b604051901515815260200161039e565b34801561062c57600080fd5b50610394600d5481565b34801561064257600080fd5b5061037c611336565b34801561065757600080fd5b50610394611986565b34801561066c57600080fd5b506103e761067b366004615b00565b601e602052600090815260409020546001600160a01b031681565b3480156106a257600080fd5b506003546103e7906001600160a01b031681565b3480156106c257600080fd5b506106d66106d1366004615b00565b611a75565b60405161039e929190615b2f565b3480156106f057600080fd5b50610394603c81565b34801561070557600080fd5b5061037c611a8a565b34801561071a57600080fd5b5061037c610729366004615b3d565b611ac7565b61037c61073c366004615b75565b611f37565b34801561074d57600080fd5b5061037c611f52565b34801561076257600080fd5b5061037c610771366004615b00565b611f92565b34801561078257600080fd5b5061039461230b565b34801561079757600080fd5b5061037c6107a6366004615aa7565b612328565b3480156107b757600080fd5b5061039460195481565b3480156107cd57600080fd5b5061037c6107dc366004615b00565b612358565b3480156107ed57600080fd5b506103946103e881565b34801561080357600080fd5b5061039460155481565b34801561081957600080fd5b5061037c612996565b34801561082e57600080fd5b5061037c61083d366004615c81565b6129a8565b34801561084e57600080fd5b50610394601a5481565b34801561086457600080fd5b506002546103e7906001600160a01b031681565b34801561088457600080fd5b5061039460175481565b34801561089a57600080fd5b506108ae6108a9366004615b3d565b612b64565b60405161039e929190615cec565b3480156108c857600080fd5b5061037c6108d7366004615d05565b612baa565b3480156108e857600080fd5b506109216108f7366004615aa7565b60106020526000908152604090208054600182015460028301546003909301549192909160ff1684565b604080519485526020850193909352918301521515606082015260800161039e565b34801561094f57600080fd5b50610429600481565b34801561096457600080fd5b506004546103e7906001600160a01b031681565b34801561098457600080fd5b50610429600181565b34801561099957600080fd5b50610429600381565b3480156109ae57600080fd5b506103e7612cca565b3480156109c357600080fd5b5061037c6109d2366004615b3d565b612ce5565b3480156109e357600080fd5b50610394600e5481565b3480156109f957600080fd5b506000546103e7906001600160a01b031681565b348015610a1957600080fd5b5061037c610a28366004615ac2565b612d29565b348015610a3957600080fd5b5061037c610a48366004615b3d565b612e05565b348015610a5957600080fd5b5061037c610a68366004615b00565b612f6a565b348015610a7957600080fd5b506108ae610a88366004615b3d565b612fae565b348015610a9957600080fd5b50610abe604051806040016040528060058152602001640352e302e360dc1b81525081565b60405161039e9190615d7d565b348015610ad757600080fd5b506016546106109060ff1681565b348015610af157600080fd5b50610b05610b00366004615ac2565b612fca565b6040805196875260208701959095529385019290925260608401521515608083015260a082015260c00161039e565b348015610b4057600080fd5b50610394601f5481565b348015610b5657600080fd5b5061039460075481565b348015610b6c57600080fd5b5061037c613024565b348015610b8157600080fd5b506103e7610b90366004615b00565b601c602052600090815260409020546001600160a01b031681565b348015610bb757600080fd5b5061037c610bc6366004615db0565b6138b8565b348015610bd757600080fd5b5061039460065481565b348015610bed57600080fd5b5061037c610bfc366004615e24565b613a71565b348015610c0d57600080fd5b50610394600a5481565b348015610c2357600080fd5b5061037c610c32366004615e60565b613bed565b348015610c4357600080fd5b50610c57610c52366004615aa7565b613c71565b60405161039e9190615ea3565b348015610c7057600080fd5b5060165461061090610100900460ff1681565b348015610c8f57600080fd5b5061037c610c9e366004615ef0565b613ce7565b348015610caf57600080fd5b5061039460085481565b348015610cc557600080fd5b506005546103e7906001600160a01b031681565b348015610ce557600080fd5b50610394600c5481565b348015610cfb57600080fd5b50610394601b5481565b348015610d1157600080fd5b5061039460095481565b348015610d2757600080fd5b5061037c610d36366004615b00565b613e48565b348015610d4757600080fd5b5061037c610d56366004615aa7565b613e85565b610d63613ec0565b6016805461ffff191683151561ff001981169190911761010084151502179091556040519081527fb886fcb5b9c12916f26d967ebe962dbd51ec249fb55961da39c851cdfc10115c9060200160405180910390a160405181151581527f03cb373f89de891077fe47cec43663b6727713de0337af46bebd1178122251b7906020015b60405180910390a15050565b336000908152600f60205260409020546001600160a01b031615610e285760405163682a906560e01b815260040160405180910390fd5b336001600160a01b03821603610e5157604051631acade8960e31b815260040160405180910390fd5b6001600160a01b038116610e785760405163e6c4247b60e01b815260040160405180910390fd5b336000818152600f6020908152604080832080546001600160a01b0387166001600160a01b0319918216811790925581855260128452828520805460018101825590865293852090930180549093168517909255519092917fa6dbb5aa28f35437de94d685d66edce5fb4812196b4984b91dfd5a7b38c0fb3091a350565b60126020528160005260406000208181548110610f1257600080fd5b6000918252602090912001546001600160a01b03169150829050565b610f36613ef2565b604f5460ff1615610f625760405162461bcd60e51b8152600401610f5990615f34565b60405180910390fd5b80600003610f835760405163162908e360e11b815260040160405180910390fd5b683635c9adc5dea000006017541080610fa65750683635c9adc5dea00000601854105b15610fc4576040516343c7ad8160e11b815260040160405180910390fd5b6000546040516323b872dd60e01b81526001600160a01b03909116906323b872dd90610ff890339030908690600401615f60565b6020604051808303816000875af1158015611017573d6000803e3d6000fd5b505050506040513d601f19601f8201168201806040525081019061103b9190615f84565b5060006018548261104c9190615fb7565b905060008260175461105e9190615fce565b9050600061106c8284615fe1565b90506000601754856127106110819190615fb7565b61108b9190615fe1565b90506103e88111156110b05760405163162908e360e11b815260040160405180910390fd5b60006064600d54846110c29190615fb7565b6110cc9190615fe1565b905060006110da8285616003565b6001546040516370a0823160e01b815291925085916001600160a01b03909116906370a082319061110f903090600401615aec565b602060405180830381865afa15801561112c573d6000803e3d6000fd5b505050506040513d601f19601f820116820180604052508101906111509190616016565b101561116f576040516343c7ad8160e11b815260040160405180910390fd5b86601760008282546111819190615fce565b92505081905550836018600082825461119a9190616003565b9091555050600154604051630852cd8d60e31b8152600481018490526001600160a01b03909116906342966c6890602401600060405180830381600087803b1580156111e557600080fd5b505af11580156111f9573d6000803e3d6000fd5b505060015460405163a9059cbb60e01b81526001600160a01b03909116925063a9059cbb915061122f9033908590600401615cec565b6020604051808303816000875af115801561124e573d6000803e3d6000fd5b505050506040513d601f19601f820116820180604052508101906112729190615f84565b50336001600160a01b03167f36864aeefce16bc4aaceeb6b0cdfb2ad1455a8cb4ccb0db148a2bc6e7166f97c8883856040516112b093929190615b19565b60405180910390a25050505050506112c6613f28565b50565b6000600382106112db5750600f919050565b600282106112eb5750600a919050565b600182106112fb57506005919050565b506000919050565b6014818154811061131357600080fd5b600091825260209091206003909102018054600182015460029092015490925083565b61133e613ef2565b336000908152601060205260409020600181015415806113625750600381015460ff165b1561138057604051634065aaf160e11b815260040160405180910390fd5b33600090815260116020526040812090805b82548110156115e5578281815481106113ad576113ad61602f565b600091825260209091206004600690920201015460ff16156115dd5760008382815481106113dd576113dd61602f565b906000526020600020906006020160030154600703611400575062cb7356611467565b8382815481106114125761141261602f565b906000526020600020906006020160030154600f03611435575062fe502b611467565b8382815481106114475761144761602f565b906000526020600020906006020160030154601e0361146757506301312d005b6000603c85848154811061147d5761147d61602f565b9060005260206000209060060201600201544261149a9190616003565b6114a49190615fe1565b90508483815481106114b8576114b861602f565b9060005260206000209060060201600301548111156114f8578483815481106114e3576114e361602f565b90600052602060002090600602016003015490505b806000036115075750506115dd565b6000633b9aca0082848887815481106115225761152261602f565b90600052602060002090600602016001015461153e9190615fb7565b6115489190615fb7565b6115529190615fe1565b905060008685815481106115685761156861602f565b9060005260206000209060060201600501549050808211156115d85760006115908284616003565b905061159c8188615fce565b9650808887815481106115b1576115b161602f565b906000526020600020906006020160050160008282546115d19190615fce565b9091555050505b505050505b600101611392565b508060000361160757604051630fec21fd60e21b815260040160405180910390fd5b336000908152600f60205260409020600481015460039091015461162c908390615fce565b111561165957336000908152600f6020526040902060038101546004909101546116569190616003565b90505b806000036116725761166a33613f39565b50505061197c565b336000908152600f602052604081206003018054839290611694908490615fce565b90915550600090506116a7600283615fe1565b905060006116b6600284615fe1565b600080546040516370a0823160e01b8152929350909184916001600160a01b0316906370a08231906116ec903090600401615aec565b602060405180830381865afa158015611709573d6000803e3d6000fd5b505050506040513d601f19601f8201168201806040525081019061172d9190616016565b1015801561173b5750600083115b156117ba5760005460405163a9059cbb60e01b81526001600160a01b039091169063a9059cbb906117729033908790600401615cec565b6020604051808303816000875af1158015611791573d6000803e3d6000fd5b505050506040513d601f19601f820116820180604052508101906117b59190615f84565b508290505b60006117c4611986565b90506000816117db85670de0b6b3a7640000615fb7565b6117e59190615fe1565b6001546040516370a0823160e01b815291925060009183916001600160a01b0316906370a082319061181b903090600401615aec565b602060405180830381865afa158015611838573d6000803e3d6000fd5b505050506040513d601f19601f8201168201806040525081019061185c9190616016565b1015801561186a5750600082115b156118e95760015460405163a9059cbb60e01b81526001600160a01b039091169063a9059cbb906118a19033908690600401615cec565b6020604051808303816000875af11580156118c0573d6000803e3d6000fd5b505050506040513d601f19601f820116820180604052508101906118e49190615f84565b508190505b336001600160a01b0316600080516020616196833981519152886000604051611913929190616045565b60405180910390a288546040513391600080516020616116833981519152916119429188918691600091616056565b60405180910390a2336000908152600f602052604090206004810154600390910154106119725761197233613f39565b5050505050505050505b611984613f28565b565b604f5460009061010090046001600160a01b031615611a2357604f546001546040516341976e0960e01b81526001600160a01b036101009093048316926341976e09926119d892911690600401615aec565b602060405180830381865afa925050508015611a11575060408051601f3d908101601f19168201909252611a0e91810190616016565b60015b15611a23578015611a2157919050565b505b6018541580611a3c5750683635c9adc5dea00000601754105b15611a4e5750670de0b6b3a764000090565b601854601754611a6690670de0b6b3a7640000615fb7565b611a709190615fe1565b905090565b600080611a81836143a1565b91509150915091565b611a92613ec0565b604f805460ff191690556040517f15de7ad89d29fd1c6d2e6b1e878453569b4080edf34e0105faaa3bd52f01853090600090a1565b611acf613ef2565b604f5460ff1615611af25760405162461bcd60e51b8152600401610f5990615f34565b3360009081526010602052604081206001810154909103611b2657604051634065aaf160e11b815260040160405180910390fd5b600381015460ff1615611b4c57604051631ecb2c4f60e31b815260040160405180910390fd5b81600714158015611b5e575081600f14155b8015611b6b575081601e14155b15611b8957604051634dc7f5ff60e11b815260040160405180910390fd5b82600003611baa5760405163162908e360e11b815260040160405180910390fd5b6000546040516323b872dd60e01b81526001600160a01b03909116906323b872dd90611bde90339030908890600401615f60565b6020604051808303816000875af1158015611bfd573d6000803e3d6000fd5b505050506040513d601f19601f82011682018060405250810190611c219190615f84565b50601a8054906000611c3283616074565b9091555050336000818152601160209081526040808320815160c081018352601a805482528185018a815242838601908152606084018b815260016080860181815260a087018b815288548084018a55988c528a8c2097516006909902909701978855935190870155905160028601555160038501555160048401805460ff1916911515919091179055905160059092019190915580548452601e90925290912080546001600160a01b0319168317905554611cf091908590614468565b336000908152600f60205260408120600a015490819003611d2757506001810154336000908152600f60205260409020600a018190555b60006064611d36836096615fb7565b611d409190615fe1565b9050808514611d625760405163162908e360e11b815260040160405180910390fd5b611d6b336146c6565b336001600160a01b03167fa8a1b9e33e503eed12bf7e7c8c01c7f3b60217a496bddd0f5db351dd8c056c1c8686601a54604051611daa93929190615b19565b60405180910390a2336000908152600f60205260409020600601548015611f2757336000908152600f60205260408120600601556017548111801590611e5f57506000546040516370a0823160e01b815282916001600160a01b0316906370a0823190611e1b903090600401615aec565b602060405180830381865afa158015611e38573d6000803e3d6000fd5b505050506040513d601f19601f82011682018060405250810190611e5c9190616016565b10155b15611f27578060176000828254611e769190616003565b909155505060005460405163a9059cbb60e01b81526001600160a01b039091169063a9059cbb90611ead9033908590600401615cec565b6020604051808303816000875af1158015611ecc573d6000803e3d6000fd5b505050506040513d601f19601f82011682018060405250810190611ef09190615f84565b5060405181815233907f3437b9ea7fa19c6d233dd70cc787a70fab87cee64d8ba4571512cc84402748f99060200160405180910390a25b50505050611f33613f28565b5050565b611f3f614805565b611f48826148aa565b611f3382826148b2565b611f5a613ec0565b604f805460ff191660011790556040517f4cb3183d0bf66f9634b15cfc3539fdddc96c2c9324848af89b56586a6739fec490600090a1565b611f9a613ef2565b604f5460ff1615611fbd5760405162461bcd60e51b8152600401610f5990615f34565b80600003611fde5760405163162908e360e11b815260040160405180910390fd5b683635c9adc5dea0000060175410806120015750683635c9adc5dea00000601854105b1561201f576040516343c7ad8160e11b815260040160405180910390fd5b6001546040516323b872dd60e01b81526001600160a01b03909116906323b872dd9061205390339030908690600401615f60565b6020604051808303816000875af1158015612072573d6000803e3d6000fd5b505050506040513d601f19601f820116820180604052508101906120969190615f84565b5060006064600e54836120a99190615fb7565b6120b39190615fe1565b905060006120c18284616003565b90506000601854826127106120d69190615fb7565b6120e09190615fe1565b90506103e88111156121055760405163162908e360e11b815260040160405180910390fd5b600154604051630852cd8d60e31b8152600481018590526001600160a01b03909116906342966c6890602401600060405180830381600087803b15801561214b57600080fd5b505af115801561215f573d6000803e3d6000fd5b505050506000601754836121739190615fb7565b90506000836018546121859190615fce565b905060006121938284615fe1565b6000546040516370a0823160e01b815291925082916001600160a01b03909116906370a08231906121c8903090600401615aec565b602060405180830381865afa1580156121e5573d6000803e3d6000fd5b505050506040513d601f19601f820116820180604052508101906122099190616016565b1015612228576040516343c7ad8160e11b815260040160405180910390fd5b846018600082825461223a9190615fce565b9250508190555080601760008282546122539190616003565b909155505060005460405163a9059cbb60e01b81526001600160a01b039091169063a9059cbb9061228a9033908590600401615cec565b6020604051808303816000875af11580156122a9573d6000803e3d6000fd5b505050506040513d601f19601f820116820180604052508101906122cd9190615f84565b50336001600160a01b03167f223c8ad0806f634524940a8595f819c5cfc7b1f4f4f45791269301df0a7e61d58883896040516112b093929190615b19565b600061231561496b565b5060008051602061615683398151915290565b612330613ec0565b604f80546001600160a01b0390921661010002610100600160a81b0319909216919091179055565b612360613ef2565b604f5460ff16156123835760405162461bcd60e51b8152600401610f5990615f34565b61238c336149b4565b8068056bc75e2d63100000141580156123ae575080681043561a882930000014155b80156123c3575080681b1ae4d6e2ef50000014155b80156123d8575080683635c9adc5dea0000014155b156123f65760405163162908e360e11b815260040160405180910390fd5b6000546040516323b872dd60e01b81526001600160a01b03909116906323b872dd9061242a90339030908690600401615f60565b6020604051808303816000875af1158015612449573d6000803e3d6000fd5b505050506040513d601f19601f8201168201806040525081019061246d9190615f84565b50336000908152601060205260409020600381015460ff16156124f3576019805490600061249a83616074565b90915550506019548155600181018290554260028201556003808201805460ff19169055336000908152600f602052604081208201556124db908390615fb7565b336000908152600f602052604090206004015561257d565b806001015460000361250f576019805490600061249a83616074565b818160010160008282546125239190615fce565b9091555050336000908152600f602052604090206005015460ff161561254a574260028201555b612555826003615fb7565b336000908152600f602052604081206004018054909190612577908490615fce565b90915550505b336000908152600f6020526040902060090154600182015411156125b4576001810154336000908152600f60205260409020600901555b336000908152600f60205260409020600a01548211156125e457336000908152600f60205260409020600a018290555b80546000908152601c6020908152604080832080546001600160a01b031916339081179091558352600f9091529020546001600160a01b0316801580159061264757506001600160a01b0381166000908152600f602052604090206005015460ff165b156126c057600060646006548561265e9190615fb7565b6126689190615fe1565b9050600061267883836002614b8b565b905080156126b957835460405133916001600160a01b038616916000805160206160f6833981519152916126b091869160029161608d565b60405180910390a35b5050612756565b6000546002546006546001600160a01b039283169263a9059cbb9216906064906126ea9088615fb7565b6126f49190615fe1565b6040518363ffffffff1660e01b8152600401612711929190615cec565b6020604051808303816000875af1158015612730573d6000803e3d6000fd5b505050506040513d601f19601f820116820180604052508101906127549190615f84565b505b6127603384614dd8565b6000546002546008546001600160a01b039283169263a9059cbb92169060649061278a9088615fb7565b6127949190615fe1565b6040518363ffffffff1660e01b81526004016127b1929190615cec565b6020604051808303816000875af11580156127d0573d6000803e3d6000fd5b505050506040513d601f19601f820116820180604052508101906127f49190615f84565b5060006064600954856128079190615fb7565b6128119190615fe1565b905061281c81614ffe565b600054600454600a546001600160a01b039283169263a9059cbb9216906064906128469089615fb7565b6128509190615fe1565b6040518363ffffffff1660e01b815260040161286d929190615cec565b6020604051808303816000875af115801561288c573d6000803e3d6000fd5b505050506040513d601f19601f820116820180604052508101906128b09190615f84565b50600054600354600b546001600160a01b039283169263a9059cbb9216906064906128db9089615fb7565b6128e59190615fe1565b6040518363ffffffff1660e01b8152600401612902929190615cec565b6020604051808303816000875af1158015612921573d6000803e3d6000fd5b505050506040513d601f19601f820116820180604052508101906129459190615f84565b5061294f336146c6565b825460405133917f2a91574e12ad96234e84923e146b0946ecfb871cd8d5534dc1fdcbe87a7c01b391612983918891615b2f565b60405180910390a25050506112c6613f28565b61299e613ec0565b6119846000615283565b6129b0613ec0565b8281146129d05760405163980a3f3160e01b815260040160405180910390fd5b60648311156129f25760405163980a3f3160e01b815260040160405180910390fd5b60005b83811015612b29576000600f6000878785818110612a1557612a1561602f565b9050602002016020810190612a2a9190615aa7565b6001600160a01b03166001600160a01b03168152602001908152602001600020600201549050838383818110612a6257612a6261602f565b90506020020135600f6000888886818110612a7f57612a7f61602f565b9050602002016020810190612a949190615aa7565b6001600160a01b03168152602081019190915260400160002060020155858583818110612ac357612ac361602f565b9050602002016020810190612ad89190615aa7565b6001600160a01b031660008051602061613683398151915282868686818110612b0357612b0361602f565b90506020020135604051612b18929190615b2f565b60405180910390a2506001016129f5565b506040518381527f9c03d1f6ba485b6cf0a120117d651729467751d3079318d05171b6f389f6bf4b906020015b60405180910390a150505050565b60136020528160005260406000208181548110612b8057600080fd5b6000918252602090912060029091020180546001909101546001600160a01b039091169250905082565b612bb2613ec0565b6001600160a01b03841615801590612bd257506001600160a01b03831615155b8015612be657506001600160a01b03821615155b8015612bfa57506001600160a01b03811615155b612c385760405162461bcd60e51b815260206004820152600f60248201526e496e76616c6964206164647265737360881b6044820152606401610f59565b600280546001600160a01b038681166001600160a01b031992831681179093556003805487831690841681179091556004805487841690851681179091556005805493871693909416831790935560408051948552602085019190915283019190915260608201527f213f1de8063c19612a553f1480ff341bea689d36a56a2089f1b9060d599b5d8390608001612b56565b600080612cd56152df565b546001600160a01b031692915050565b612ced613ec0565b600d829055600e8190556040517f4e9dd03193a0c81552fb8e6d32280f0d7e0ce8087241dc3d17ef3d193ee231d790610de59084908490615b2f565b612d31613ec0565b80601f6000828254612d439190616003565b909155505060005460405163a9059cbb60e01b81526001600160a01b039091169063a9059cbb90612d7a9085908590600401615cec565b6020604051808303816000875af1158015612d99573d6000803e3d6000fd5b505050506040513d601f19601f82011682018060405250810190612dbd9190615f84565b50816001600160a01b03167f27971ee1acbfbdfb20656657ceb2e0e7b519b9e60fe1a6b1f6d27b159f4a607c82604051612df991815260200190565b60405180910390a25050565b612e0d613ec0565b8115612ea3576000546040516323b872dd60e01b81526001600160a01b03909116906323b872dd90612e4790339030908790600401615f60565b6020604051808303816000875af1158015612e66573d6000803e3d6000fd5b505050506040513d601f19601f82011682018060405250810190612e8a9190615f84565b508160176000828254612e9d9190615fce565b90915550505b8015612f39576001546040516323b872dd60e01b81526001600160a01b03909116906323b872dd90612edd90339030908690600401615f60565b6020604051808303816000875af1158015612efc573d6000803e3d6000fd5b505050506040513d601f19601f82011682018060405250810190612f209190615f84565b508060186000828254612f339190615fce565b90915550505b7f38f8a0c92f4c5b0b6877f878cb4c0c8d348a47b76d716c8e78f425043df9515b8282604051610de5929190615b2f565b612f72613ec0565b60158190556040518181527fd28d9e4ce68d89af7920cb8618e342a78f51e545c530ce60f1cb1d6f0235b47f906020015b60405180910390a150565b601d6020528160005260406000208181548110612b8057600080fd5b60116020528160005260406000208181548110612fe657600080fd5b600091825260209091206006909102018054600182015460028301546003840154600485015460059095015493965091945092909160ff9091169086565b61302c613ef2565b601654610100900460ff1661306e5760405162461bcd60e51b8152602060048201526008602482015267111a5cd8589b195960c21b6044820152606401610f59565b336000908152601160205260408120908080805b84548110156134045784818154811061309d5761309d61602f565b600091825260209091206004600690920201015460ff16156133fc576000603c8683815481106130cf576130cf61602f565b9060005260206000209060060201600301546130eb9190615fb7565b8683815481106130fd576130fd61602f565b9060005260206000209060060201600201546131199190615fce565b90508042106133fa5760008683815481106131365761313661602f565b906000526020600020906006020160030154600703613159575062cb73566131c0565b86838154811061316b5761316b61602f565b906000526020600020906006020160030154600f0361318e575062fe502b6131c0565b8683815481106131a0576131a061602f565b906000526020600020906006020160030154601e036131c057506301312d005b6000633b9aca008885815481106131d9576131d961602f565b906000526020600020906006020160030154838a87815481106131fe576131fe61602f565b90600052602060002090600602016001015461321a9190615fb7565b6132249190615fb7565b61322e9190615fe1565b905060008885815481106132445761324461602f565b90600052602060002090600602016005015482111561328f5788858154811061326f5761326f61602f565b9060005260206000209060060201600501548261328c9190616003565b90505b6132998187615fce565b9550808986815481106132ae576132ae61602f565b906000526020600020906006020160050160008282546132ce9190615fce565b9091555050336000908152600f6020526040812060090154908190036133035750336000908152601060205260409020600101545b60006064600c54836133159190615fb7565b61331f9190615fe1565b905060008b88815481106133355761333561602f565b90600052602060002090600602016001015490508181111561336e5761335b8282616003565b9050613367828b615fce565b995061337f565b613378818b615fce565b9950600090505b613389818c615fce565b9a5060008c898154811061339f5761339f61602f565b906000526020600020906006020160040160006101000a81548160ff0219169083151502179055506133f38c89815481106133dc576133dc61602f565b906000526020600020906006020160000154615303565b5050505050505b505b600101613082565b5060008311806134145750600081115b6134545760405162461bcd60e51b81526020600482015260116024820152704e6f7468696e6720746f2072656465656d60781b6044820152606401610f59565b811561347257816017600082825461346c9190615fce565b90915550505b80156137cd57336000908152600f60205260408120600381015460049091015461349c9190616003565b9050808211156134db57336001600160a01b031660008051602061617683398151915283836040516134cf929190615b2f565b60405180910390a28091505b81156137cb57336000908152600f602052604081206003018054849290613503908490615fce565b9091555060009050613516600284615fe1565b90506000613525600285615fe1565b600080546040516370a0823160e01b8152929350909184916001600160a01b0316906370a082319061355b903090600401615aec565b602060405180830381865afa158015613578573d6000803e3d6000fd5b505050506040513d601f19601f8201168201806040525081019061359c9190616016565b101580156135aa5750600083115b156136295760005460405163a9059cbb60e01b81526001600160a01b039091169063a9059cbb906135e19033908790600401615cec565b6020604051808303816000875af1158015613600573d6000803e3d6000fd5b505050506040513d601f19601f820116820180604052508101906136249190615f84565b508290505b6000613633611986565b905060008161364a85670de0b6b3a7640000615fb7565b6136549190615fe1565b6001546040516370a0823160e01b815291925060009183916001600160a01b0316906370a082319061368a903090600401615aec565b602060405180830381865afa1580156136a7573d6000803e3d6000fd5b505050506040513d601f19601f820116820180604052508101906136cb9190616016565b101580156136d95750600082115b156137585760015460405163a9059cbb60e01b81526001600160a01b039091169063a9059cbb906137109033908690600401615cec565b6020604051808303816000875af115801561372f573d6000803e3d6000fd5b505050506040513d601f19601f820116820180604052508101906137539190615f84565b508190505b336001600160a01b0316600080516020616196833981519152896000604051613782929190616045565b60405180910390a233600081815260106020526040808220549051600080516020616116833981519152926137bc92899287929190616056565b60405180910390a25050505050505b505b821561384a5760005460405163a9059cbb60e01b81526001600160a01b039091169063a9059cbb906138059033908790600401615cec565b6020604051808303816000875af1158015613824573d6000803e3d6000fd5b505050506040513d601f19601f820116820180604052508101906138489190615f84565b505b336001600160a01b03166000805160206161b68339815191528484604051613873929190615b2f565b60405180910390a2613884336146c6565b336000908152600f602052604090206004810154600390910154106138ac576138ac33613f39565b50505050611984613f28565b60006138c26154ca565b805490915060ff600160401b82041615906001600160401b03166000811580156138e95750825b90506000826001600160401b031660011480156139055750303b155b905081158015613913575080155b156139315760405163f92ee8a960e01b815260040160405180910390fd5b84546001600160401b0319166001178555831561395a57845460ff60401b1916600160401b1785555b613963336154f5565b61396b615506565b61397361550e565b600080546001600160a01b03199081166001600160a01b038e8116919091179092556001805482168d84161781556002805483168d85161790556003805483168c85161790556004805483168b85161790556005805490921692891692909217815560196006819055600f6007556008829055600991909155600a819055600b819055600c919091556032600d55600e556203f4806015556016805461ffff191661010117905542601b558315613a6457845460ff60401b19168555604051600181527fc7f505b2f371ae2175ee4913f4499e1f2633a7b5936321eed1cdaeb6115181d29060200160405180910390a15b5050505050505050505050565b613a79613ec0565b6000546001600160a01b03848116911614801590613aa557506001546001600160a01b03848116911614155b613af15760405162461bcd60e51b815260206004820152601d60248201527f43616e6e6f74207265736375652070726f746f636f6c20746f6b656e730000006044820152606401610f59565b6001600160a01b038216613b3b5760405162461bcd60e51b8152602060048201526011602482015270125b9d985b1a59081c9958da5c1a595b9d607a1b6044820152606401610f59565b60405163a9059cbb60e01b81526001600160a01b0384169063a9059cbb90613b699085908590600401615cec565b6020604051808303816000875af1158015613b88573d6000803e3d6000fd5b505050506040513d601f19601f82011682018060405250810190613bac9190615f84565b507f77023e19c7343ad491fd706c36335ca0e738340a91f29b1fd81e2673d44896c4838383604051613be093929190615f60565b60405180910390a1505050565b613bf5613ec0565b6006869055600785905560088490556009839055600a829055600b8190556040805187815260208101879052908101859052606081018490526080810183905260a081018290527f66682b276e4cd1a4e1f68b55b1143766c5332f472eb593cf2a70a25d9d5d99179060c00160405180910390a1505050505050565b6001600160a01b038116600090815260126020908152604091829020805483518184028101840190945280845260609392830182828015613cdb57602002820191906000526020600020905b81546001600160a01b03168152600190910190602001808311613cbd575b50505050509050919050565b613cef613ec0565b8215613d83578260176000828254613d079190616003565b909155505060005460405163a9059cbb60e01b81526001600160a01b039091169063a9059cbb90613d3e9087908790600401615cec565b6020604051808303816000875af1158015613d5d573d6000803e3d6000fd5b505050506040513d601f19601f82011682018060405250810190613d819190615f84565b505b8015613e17578060186000828254613d9b9190616003565b909155505060015460405163a9059cbb60e01b81526001600160a01b039091169063a9059cbb90613dd29085908590600401615cec565b6020604051808303816000875af1158015613df1573d6000803e3d6000fd5b505050506040513d601f19601f82011682018060405250810190613e159190615f84565b505b7f520bc217d25ef4588524228dffcfa518f4ad52178c71d49b8061d016213cd3118382604051612b56929190615b2f565b613e50613ec0565b600c8190556040518181527fc7f6975dcffc536e6e57dd1d1dea810fff534a70563baf2d6f977b119bd00e1b90602001612fa3565b613e8d613ec0565b6001600160a01b038116613eb7576000604051631e4fbdf760e01b8152600401610f599190615aec565b6112c681615283565b33613ec9612cca565b6001600160a01b031614611984573360405163118cdaa760e01b8152600401610f599190615aec565b6000613efc61551e565b805490915060011901613f2257604051633ee5aeb560e01b815260040160405180910390fd5b60029055565b6000613f3261551e565b6001905550565b6001600160a01b0381166000908152601060205260409020600381015460ff16611f335760038101805460ff191660011790556001600160a01b03808316600090815260116020526040808220825491516370a0823160e01b81529093839283929116906370a0823190613fb1903090600401615aec565b602060405180830381865afa158015613fce573d6000803e3d6000fd5b505050506040513d601f19601f82011682018060405250810190613ff29190616016565b905060005b845481101561411a578481815481106140125761401261602f565b600091825260209091206004600690920201015460ff161561411257600061012c600c548784815481106140485761404861602f565b90600052602060002090600602016001015460026140669190615fb7565b6140709190615fb7565b61407a9190615fe1565b905060008683815481106140905761409061602f565b90600052602060002090600602016001015490508181106140bc576140b58282616003565b90506140c1565b600091505b6140cb8187615fce565b95506140d78286615fce565b945060008784815481106140ed576140ed61602f565b60009182526020909120600690910201600401805460ff191691151591909117905550505b600101613ff7565b508215614252578281106141a35760005460405163a9059cbb60e01b81526001600160a01b039091169063a9059cbb9061415a9089908790600401615cec565b6020604051808303816000875af1158015614179573d6000803e3d6000fd5b505050506040513d601f19601f8201168201806040525081019061419d9190615f84565b50614252565b80156142205760005460405163a9059cbb60e01b81526001600160a01b039091169063a9059cbb906141db9089908590600401615cec565b6020604051808303816000875af11580156141fa573d6000803e3d6000fd5b505050506040513d601f19601f8201168201806040525081019061421e9190615f84565b505b856001600160a01b03166000805160206161768339815191528483604051614249929190615b2f565b60405180910390a25b8115614289576001600160a01b0386166000908152600f602052604081206006018054849290614283908490615fce565b90915550505b6001600160a01b038087166000908152600f6020526040902060058101805460ff198116909155905460ff90911691168180156142ce57506001600160a01b03811615155b80156142f457506001600160a01b0381166000908152600f602052604090206001015415155b15614326576001600160a01b0381166000908152600f60205260408120600101805491614320836160a6565b91905055505b876001600160a01b03166000805160206161b6833981519152868660405161434f929190615b2f565b60405180910390a286546040519081526001600160a01b038916907f920bb94eb3842a728db98228c375ff6b00c5bc5a54fac6736155517a0a20a61a9060200160405180910390a25050505050505050565b60008061271083106143b95750600992602d92509050565b61138883106143ce5750600892602892509050565b6107d083106143e35750600792602392509050565b6103e883106143f85750600692601e92509050565b6101f4831061440d5750600592601992509050565b60c883106144215750600492601492509050565b606483106144355750600392600f92509050565b603283106144495750600292600a92509050565b6014831061445d5750600192600592509050565b506000928392509050565b6001600160a01b038084166000908152600f602052604081205490911690805b6001600160a01b038316158015906144a05750601481105b156146be576001600160a01b0383166000908152600f602052604090206005015460ff166144f8576001600160a01b039283166000908152600f602052604090205490921691806144f081616074565b915050614488565b6001600160a01b0383166000908152601060205260409020600181015415806145255750600381015460ff165b1561455b576001600160a01b039384166000908152600f6020526040902054909316928161455281616074565b92505050614488565b6001600160a01b0384166000908152600f602052604081206002015461458090611a75565b9150508381111561467d5760006145978583616003565b600184015490915088908111156145af575060018301545b600060646145bd8484615fb7565b6145c79190615fe1565b60008a8152601d60209081526040808320815180830183526001600160a01b038e81168083528286018881528454600180820187559589528789209451600291820290950180546001600160a01b03191695909416949094178355519190930155818552600f9093529281902090910154905192935090918b917fcf2f68cc66431465b13b971ea50f7d9d3c6b29a6d132d354cc3c9cf9585ab59f9161466e918691615b2f565b60405180910390a38396505050505b602d811061468c5750506146be565b6001600160a01b039485166000908152600f602052604090205490941693826146b481616074565b9350505050614488565b505050505050565b6001600160a01b03811660009081526010602052604081206001810154909190158015906146f95750600382015460ff16155b6001600160a01b0384166000908152600f602052604090206005015490915060ff168015158215150361472c5750505050565b6001600160a01b038481166000908152600f6020526040902060058101805460ff1916851515179055541680614763575050505050565b82156147a5576001600160a01b0381166000908152600f6020526040812060010180549161479083616074565b91905055506147a0856001615542565b6147fe565b6001600160a01b0381166000908152600f6020526040902060010154156147fe576001600160a01b0381166000908152600f602052604081206001018054916147ed836160a6565b91905055506147fe85600019615542565b5050505050565b306001600160a01b037f000000000000000000000000000000000000000000000000000000000000000016148061488c57507f00000000000000000000000000000000000000000000000000000000000000006001600160a01b0316614880600080516020616156833981519152546001600160a01b031690565b6001600160a01b031614155b156119845760405163703e46dd60e11b815260040160405180910390fd5b6112c6613ec0565b816001600160a01b03166352d1902d6040518163ffffffff1660e01b8152600401602060405180830381865afa92505050801561490c575060408051601f3d908101601f1916820190925261490991810190616016565b60015b61492b5781604051634c9c8ce360e01b8152600401610f599190615aec565b600080516020616156833981519152811461495c57604051632a87526960e21b815260048101829052602401610f59565b614966838361575b565b505050565b306001600160a01b037f000000000000000000000000000000000000000000000000000000000000000016146119845760405163703e46dd60e11b815260040160405180910390fd5b6001600160a01b0381166000908152601060205260409020600181015415806149e15750600381015460ff165b156149ea575050565b60006149f5836157b1565b11156149ff575050565b6015548160020154614a119190615fce565b4211614a1b575050565b805460018201546001600160a01b038085166000908152600f60205260409020805460059091015491169060ff168015614a5d57506001600160a01b03811615155b8015614a8357506001600160a01b0381166000908152600f602052604090206001015415155b15614ab5576001600160a01b0381166000908152600f60205260408120600101805491614aaf836160a6565b91905055505b6001600160a01b0385166000908152600f6020526040812060058101805460ff19908116909155600380830184905560049092018390558287556001870183905560028701929092558501805490911690558215614b41576000838152601360205260408120614b24916159fe565b6000838152601c6020526040902080546001600160a01b03191690555b846001600160a01b03167f57025f0027038907eda728b59164fb63d06048f42e618a35267e6a12e49b2e468484604051614b7c929190615b2f565b60405180910390a25050505050565b6001600160a01b0383166000908152600f6020908152604080832060109092528220600582015460ff161580614bc55750600381015460ff165b80614bd257506001810154155b15614be257600092505050614dd1565b6000546040516370a0823160e01b815286916001600160a01b0316906370a0823190614c12903090600401615aec565b602060405180830381865afa158015614c2f573d6000803e3d6000fd5b505050506040513d601f19601f82011682018060405250810190614c539190616016565b1015614c9657856001600160a01b0316600080516020616176833981519152866000604051614c83929190615b2f565b60405180910390a2600092505050614dd1565b600082600301548360040154614cac9190616003565b90508581811115614cec57819050876001600160a01b03166000805160206161768339815191528884604051614ce3929190615b2f565b60405180910390a25b8015614db35780846003016000828254614d069190615fce565b909155505060005460405163a9059cbb60e01b81526001600160a01b039091169063a9059cbb90614d3d908b908590600401615cec565b6020604051808303816000875af1158015614d5c573d6000803e3d6000fd5b505050506040513d601f19601f82011682018060405250810190614d809190615f84565b50876001600160a01b03166000805160206161968339815191528288604051614daa929190616045565b60405180910390a25b8360040154846003015410614dcb57614dcb88613f39565b93505050505b9392505050565b6001600160a01b038083166000908152600f6020526040812054909116908080806064614e06876001615fb7565b614e109190615fe1565b90505b6001600160a01b03851615801590614e2b5750600f83105b8015614e375750601482105b15614f6d576001600160a01b0385166000908152600f602052604090206005015460ff16614e8f576001600160a01b039485166000908152600f60205260409020549094169381614e8781616074565b925050614e13565b6001600160a01b0385166000908152600f6020526040812060010154614eb4906112c9565b905083811115614f2e576000614ecc87846003614b8b565b90508015614f2c57614ede8187615fce565b6001600160a01b03808b16600081815260106020526040908190205490519399509092918a16916000805160206160f683398151915291614f2391869160039161608d565b60405180910390a35b505b6001600160a01b039586166000908152600f60205260409020549095169483614f5681616074565b9450508280614f6490616074565b93505050614e13565b6000606460075488614f7f9190615fb7565b614f899190615fe1565b90506000614f978683616003565b90508015614ff35780601f6000828254614fb19190615fce565b9091555050601f546040517fca2e2bff26d2adb9fe155e9265350494c16751676879cb7ced9141e0fcf3934391614fea91849190615b2f565b60405180910390a15b505050505050505050565b806000036150095750565b683635c9adc5dea00000601754108061502c5750683635c9adc5dea00000601854105b156150345750565b806017546150429190615fce565b6000546040516370a0823160e01b81526001600160a01b03909116906370a0823190615072903090600401615aec565b602060405180830381865afa15801561508f573d6000803e3d6000fd5b505050506040513d601f19601f820116820180604052508101906150b39190616016565b10156150bc5750565b6017546000906150ce83612710615fb7565b6150d89190615fe1565b90506103e88111156150e8575050565b6000601854836150f89190615fb7565b905060008360175461510a9190615fce565b905060006151188284615fe1565b9050801580615128575060185481115b15615134575050505050565b6018546001546040516370a0823160e01b81526001600160a01b03909116906370a0823190615167903090600401615aec565b602060405180830381865afa158015615184573d6000803e3d6000fd5b505050506040513d601f19601f820116820180604052508101906151a89190616016565b10156151b5575050505050565b84601760008282546151c79190615fce565b9250508190555080601860008282546151e09190616003565b9091555050600154604051630852cd8d60e31b8152600481018390526001600160a01b03909116906342966c6890602401600060405180830381600087803b15801561522b57600080fd5b505af115801561523f573d6000803e3d6000fd5b505050507f0ec3929061cbbbeecb325623e7d5a86c3dae11cb8a22ca45dc0972955657da258582604051615274929190615b2f565b60405180910390a15050505050565b600061528d6152df565b80546001600160a01b038481166001600160a01b031983168117845560405193945091169182907f8be0079c531659141344cd1fd0a4f28419497f9722a3daafe3b4186f6b6457e090600090a3505050565b7f9016d09d72d40fdae2fd8ceac6b6234c7706214fd39c1cd1e609a0528c19930090565b6000818152601e6020908152604080832054601d835281842080548351818602810186019094528084526001600160a01b039092169493909190849084015b8282101561538a576000848152602090819020604080518082019091526002850290910180546001600160a01b03168252600190810154828401529083529092019101615342565b50505050905060005b81518110156154b25760006153e48383815181106153b3576153b361602f565b6020026020010151600001518484815181106153d1576153d161602f565b6020026020010151602001516004614b8b565b9050801561544857836001600160a01b03168383815181106154085761540861602f565b6020026020010151600001516001600160a01b03166000805160206160f68339815191528360048960405161543f9392919061608d565b60405180910390a35b82828151811061545a5761545a61602f565b6020026020010151600001516001600160a01b0316857fae629b396150638d6eb6de457cbffe5d618a10c8cc199a94976bed2b16ecd993836040516154a191815260200190565b60405180910390a350600101615393565b506000838152601d60205260408120614966916159fe565b6000807ff0c57e16840df040f15088dc2f81fe391c3923bec73e23a9662efc9c229c6a005b92915050565b6154fd615843565b6112c681615868565b611984615843565b615516615843565b611984615870565b7f9b779b17422d0df92223018b32b4d1fa46e071723d6817e2486d003becc55f0090565b6001600160a01b0382161580615556575080155b1561555f575050565b6001600160a01b038281166000908152600f602052604080822054815160148082526102a0820190935293169282918160200160208202803683370190505090505b6001600160a01b038316158015906155b95750601482105b156147fe5760005b8281101561560b57836001600160a01b03168282815181106155e5576155e561602f565b60200260200101516001600160a01b03160361560357505050505050565b6001016155c1565b508281838151811061561f5761561f61602f565b6001600160a01b039283166020918202929092018101919091529084166000908152600f909152604081206002015490808613156156b95785826156638282615fce565b10156156a75760405162461bcd60e51b81526020600482015260136024820152725465616d20636f756e74206f766572666c6f7760681b6044820152606401610f59565b6156b18184615fce565b9150506156e3565b60006156c4876160bd565b90508281116156dc576156d78184616003565b6156df565b60005b9150505b6001600160a01b0385166000818152600f60205260409081902060020183905551600080516020616136833981519152906157219085908590615b2f565b60405180910390a26001600160a01b039485166000908152600f6020526040902054909416938361575181616074565b94505050506155a1565b61576482615878565b6040516001600160a01b038316907fbc7cd75a20ee27fd9adebab32041f755214dbc6bffa90cc0225b39da2e5c2d3b90600090a28051156157a95761496682826158d4565b611f3361594a565b6001600160a01b0381166000908152601160205260408120815b815481101561583c578181815481106157e6576157e661602f565b600091825260209091206004600690920201015460ff1615615834578181815481106158145761581461602f565b906000526020600020906006020160010154836158319190615fce565b92505b6001016157cb565b5050919050565b61584b615969565b61198457604051631afcd79f60e31b815260040160405180910390fd5b613e8d615843565b613f28615843565b806001600160a01b03163b6000036158a55780604051634c9c8ce360e01b8152600401610f599190615aec565b60008051602061615683398151915280546001600160a01b0319166001600160a01b0392909216919091179055565b6060600080846001600160a01b0316846040516158f191906160d9565b600060405180830381855af49150503d806000811461592c576040519150601f19603f3d011682016040523d82523d6000602084013e615931565b606091505b5091509150615941858383615983565b95945050505050565b34156119845760405163b398979f60e01b815260040160405180910390fd5b60006159736154ca565b54600160401b900460ff16919050565b60608261599857615993826159d6565b614dd1565b81511580156159af57506001600160a01b0384163b155b156159cf5783604051639996b31560e01b8152600401610f599190615aec565b5080614dd1565b8051156159e557805160208201fd5b60405163d6bda27560e01b815260040160405180910390fd5b50805460008255600202906000526020600020908101906112c691905b80821115615a405780546001600160a01b031916815560006001820155600201615a1b565b5090565b80151581146112c657600080fd5b60008060408385031215615a6557600080fd5b8235615a7081615a44565b91506020830135615a8081615a44565b809150509250929050565b80356001600160a01b0381168114615aa257600080fd5b919050565b600060208284031215615ab957600080fd5b614dd182615a8b565b60008060408385031215615ad557600080fd5b615ade83615a8b565b946020939093013593505050565b6001600160a01b0391909116815260200190565b600060208284031215615b1257600080fd5b5035919050565b9283526020830191909152604082015260600190565b918252602082015260400190565b60008060408385031215615b5057600080fd5b50508035926020909101359150565b634e487b7160e01b600052604160045260246000fd5b60008060408385031215615b8857600080fd5b615b9183615a8b565b915060208301356001600160401b0380821115615bad57600080fd5b818501915085601f830112615bc157600080fd5b813581811115615bd357615bd3615b5f565b604051601f8201601f19908116603f01168101908382118183101715615bfb57615bfb615b5f565b81604052828152886020848701011115615c1457600080fd5b8260208601602083013760006020848301015280955050505050509250929050565b60008083601f840112615c4857600080fd5b5081356001600160401b03811115615c5f57600080fd5b6020830191508360208260051b8501011115615c7a57600080fd5b9250929050565b60008060008060408587031215615c9757600080fd5b84356001600160401b0380821115615cae57600080fd5b615cba88838901615c36565b90965094506020870135915080821115615cd357600080fd5b50615ce087828801615c36565b95989497509550505050565b6001600160a01b03929092168252602082015260400190565b60008060008060808587031215615d1b57600080fd5b615d2485615a8b565b9350615d3260208601615a8b565b9250615d4060408601615a8b565b9150615d4e60608601615a8b565b905092959194509250565b60005b83811015615d74578181015183820152602001615d5c565b50506000910152565b6020815260008251806020840152615d9c816040850160208701615d59565b601f01601f19169190910160400192915050565b60008060008060008060c08789031215615dc957600080fd5b615dd287615a8b565b9550615de060208801615a8b565b9450615dee60408801615a8b565b9350615dfc60608801615a8b565b9250615e0a60808801615a8b565b9150615e1860a08801615a8b565b90509295509295509295565b600080600060608486031215615e3957600080fd5b615e4284615a8b565b9250615e5060208501615a8b565b9150604084013590509250925092565b60008060008060008060c08789031215615e7957600080fd5b505084359660208601359650604086013595606081013595506080810135945060a0013592509050565b6020808252825182820181905260009190848201906040850190845b81811015615ee45783516001600160a01b031683529284019291840191600101615ebf565b50909695505050505050565b60008060008060808587031215615f0657600080fd5b615f0f85615a8b565b935060208501359250615f2460408601615a8b565b9396929550929360600135925050565b60208082526012908201527110dbdb9d1c9858dd081a5cc81c185d5cd95960721b604082015260600190565b6001600160a01b039384168152919092166020820152604081019190915260600190565b600060208284031215615f9657600080fd5b8151614dd181615a44565b634e487b7160e01b600052601160045260246000fd5b80820281158282048414176154ef576154ef615fa1565b808201808211156154ef576154ef615fa1565b600082615ffe57634e487b7160e01b600052601260045260246000fd5b500490565b818103818111156154ef576154ef615fa1565b60006020828403121561602857600080fd5b5051919050565b634e487b7160e01b600052603260045260246000fd5b91825260ff16602082015260400190565b938452602084019290925260ff166040830152606082015260800190565b60006001820161608657616086615fa1565b5060010190565b92835260ff919091166020830152604082015260600190565b6000816160b5576160b5615fa1565b506000190190565b6000600160ff1b82016160d2576160d2615fa1565b5060000390565b600082516160eb818460208701615d59565b919091019291505056fe9b3cc71482a1b2eebe764a739f46f1fe99291fd0183be81951532b29d0c9c8da6fcebd0a2ce98b28cb391d6008bbc769378c9a4919628e11639cb575cd320fcca0eea20e678cb42233c1c456c84cedce7ea53fa360bb71bf3b761b7609567770360894a13ba1a3210667c828492db98dca3e2076cc3735a920a3ca505d382bbcb5987aab1afd379f6695f1068869ee8ca6a0d02304c57935a9cc3d3ea2e51e4df381583145e90b82cc5e529bf4fc4d0e44397174cdf145c4251ac33ef195a424f3a670cd3af7d64b488926880889d08a8585a138ff455227af6737339a1ec262a26469706673582212206ff4ca4f41b13dac6804a29c80fd06a24366716f29840860e6f237d0b5ec96a264736f6c63430008160033","opcodes":"PUSH1 0xA0 PUSH1 0x40 MSTORE ADDRESS PUSH1 0x80 MSTORE CALLVALUE DUP1 ISZERO PUSH3 0x15 JUMPI PUSH1 0x0 DUP1 REVERT JUMPDEST POP PUSH3 0x20 PUSH3 0x26 JUMP JUMPDEST PUSH3 0xDA JUMP JUMPDEST PUSH32 0xF0C57E16840DF040F15088DC2F81FE391C3923BEC73E23A9662EFC9C229C6A00 DUP1 SLOAD PUSH9 0x10000000000000000 SWAP1 DIV PUSH1 0xFF AND ISZERO PUSH3 0x77 JUMPI PUSH1 0x40 MLOAD PUSH4 0xF92EE8A9 PUSH1 0xE0 SHL DUP2 MSTORE PUSH1 0x4 ADD PUSH1 0x40 MLOAD DUP1 SWAP2 SUB SWAP1 REVERT JUMPDEST DUP1 SLOAD PUSH1 0x1 PUSH1 0x1 PUSH1 0x40 SHL SUB SWAP1 DUP2 AND EQ PUSH3 0xD7 JUMPI DUP1 SLOAD PUSH1 0x1 PUSH1 0x1 PUSH1 0x40 SHL SUB NOT AND PUSH1 0x1 PUSH1 0x1 PUSH1 0x40 SHL SUB SWAP1 DUP2 OR DUP3 SSTORE PUSH1 0x40 MLOAD SWAP1 DUP2 MSTORE PUSH32 0xC7F505B2F371AE2175EE4913F4499E1F2633A7B5936321EED1CDAEB6115181D2 SWAP1 PUSH1 0x20 ADD PUSH1 0x40 MLOAD DUP1 SWAP2 SUB SWAP1 LOG1 JUMPDEST POP JUMP JUMPDEST PUSH1 0x80 MLOAD PUSH2 0x620B PUSH3 0x104 PUSH1 0x0 CODECOPY PUSH1 0x0 DUP2 DUP2 PUSH2 0x4810 ADD MSTORE DUP2 DUP2 PUSH2 0x4839 ADD MSTORE PUSH2 0x4976 ADD MSTORE PUSH2 0x620B PUSH1 0x0 RETURN INVALID PUSH1 0x80 PUSH1 0x40 MSTORE PUSH1 0x4 CALLDATASIZE LT PUSH2 0x357 JUMPI PUSH1 0x0 CALLDATALOAD PUSH1 0xE0 SHR DUP1 PUSH4 0x1D62EFB EQ PUSH2 0x35C JUMPI DUP1 PUSH4 0x4EF9D58 EQ PUSH2 0x37E JUMPI DUP1 PUSH4 0x4F618CB EQ PUSH2 0x3A7 JUMPI DUP1 PUSH4 0x5AD3935 EQ PUSH2 0x3C7 JUMPI DUP1 PUSH4 0xA5C4567 EQ PUSH2 0x3F4 JUMPI DUP1 PUSH4 0xE2BE210 EQ PUSH2 0x414 JUMPI DUP1 PUSH4 0x1427F616 EQ PUSH2 0x43B JUMPI DUP1 PUSH4 0x1788513C EQ PUSH2 0x450 JUMPI DUP1 PUSH4 0x182C84CC EQ PUSH2 0x470 JUMPI DUP1 PUSH4 0x1959A002 EQ PUSH2 0x490 JUMPI DUP1 PUSH4 0x1D0DAC76 EQ PUSH2 0x56F JUMPI DUP1 PUSH4 0x21B77D63 EQ PUSH2 0x585 JUMPI DUP1 PUSH4 0x21F483D3 EQ PUSH2 0x5A2 JUMPI DUP1 PUSH4 0x2630C12F EQ PUSH2 0x5D1 JUMPI DUP1 PUSH4 0x27C830A9 EQ PUSH2 0x5F6 JUMPI DUP1 PUSH4 0x27F082F4 EQ PUSH2 0x620 JUMPI DUP1 PUSH4 0x372500AB EQ PUSH2 0x636 JUMPI DUP1 PUSH4 0x3A3EA2F0 EQ PUSH2 0x64B JUMPI DUP1 PUSH4 0x3DBD46BD EQ PUSH2 0x660 JUMPI DUP1 PUSH4 0x4626402B EQ PUSH2 0x696 JUMPI DUP1 PUSH4 0x47194001 EQ PUSH2 0x6B6 JUMPI DUP1 PUSH4 0x488B5D97 EQ PUSH2 0x6E4 JUMPI DUP1 PUSH4 0x4A4E3BD5 EQ PUSH2 0x6F9 JUMPI DUP1 PUSH4 0x4EA4C6B3 EQ PUSH2 0x70E JUMPI DUP1 PUSH4 0x4F1EF286 EQ PUSH2 0x72E JUMPI DUP1 PUSH4 0x51858E27 EQ PUSH2 0x741 JUMPI DUP1 PUSH4 0x52778B05 EQ PUSH2 0x756 JUMPI DUP1 PUSH4 0x52D1902D EQ PUSH2 0x776 JUMPI DUP1 PUSH4 0x530E784F EQ PUSH2 0x78B JUMPI DUP1 PUSH4 0x6031A52F EQ PUSH2 0x7AB JUMPI DUP1 PUSH4 0x67DD74CA EQ PUSH2 0x7C1 JUMPI DUP1 PUSH4 0x6839B5FA EQ PUSH2 0x7E1 JUMPI DUP1 PUSH4 0x6DD66827 EQ PUSH2 0x7F7 JUMPI DUP1 PUSH4 0x715018A6 EQ PUSH2 0x80D JUMPI DUP1 PUSH4 0x74B0EECF EQ PUSH2 0x822 JUMPI DUP1 PUSH4 0x75506C96 EQ PUSH2 0x842 JUMPI DUP1 PUSH4 0x75F0A874 EQ PUSH2 0x858 JUMPI DUP1 PUSH4 0x77A2A540 EQ PUSH2 0x878 JUMPI DUP1 PUSH4 0x813380CD EQ PUSH2 0x88E JUMPI DUP1 PUSH4 0x83672F3E EQ PUSH2 0x8BC JUMPI DUP1 PUSH4 0x86481D40 EQ PUSH2 0x6B6 JUMPI DUP1 PUSH4 0x8710BCAA EQ PUSH2 0x8DC JUMPI DUP1 PUSH4 0x88481B61 EQ PUSH2 0x943 JUMPI DUP1 PUSH4 0x88FD4D33 EQ PUSH2 0x958 JUMPI DUP1 PUSH4 0x8A859A85 EQ PUSH2 0x978 JUMPI DUP1 PUSH4 0x8C0EAA48 EQ PUSH2 0x98D JUMPI DUP1 PUSH4 0x8DA5CB5B EQ PUSH2 0x9A2 JUMPI DUP1 PUSH4 0x90B0EB51 EQ PUSH2 0x9B7 JUMPI DUP1 PUSH4 0x9370B080 EQ PUSH2 0x9D7 JUMPI DUP1 PUSH4 0x95253992 EQ PUSH2 0x9ED JUMPI DUP1 PUSH4 0x99B6024D EQ PUSH2 0xA0D JUMPI DUP1 PUSH4 0x9CD441DA EQ PUSH2 0xA2D JUMPI DUP1 PUSH4 0x9D99ECA4 EQ PUSH2 0xA4D JUMPI DUP1 PUSH4 0xAC8F50AA EQ PUSH2 0xA6D JUMPI DUP1 PUSH4 0xAD3CB1CC EQ PUSH2 0xA8D JUMPI DUP1 PUSH4 0xB048A4BB EQ PUSH2 0xACB JUMPI DUP1 PUSH4 0xB5D5B5FA EQ PUSH2 0xAE5 JUMPI DUP1 PUSH4 0xB759936B EQ PUSH2 0xB34 JUMPI DUP1 PUSH4 0xBD594DCF EQ PUSH2 0xB4A JUMPI DUP1 PUSH4 0xBE040FB0 EQ PUSH2 0xB60 JUMPI DUP1 PUSH4 0xC2FF12FC EQ PUSH2 0xB75 JUMPI DUP1 PUSH4 0xCC2A9A5B EQ PUSH2 0xBAB JUMPI DUP1 PUSH4 0xCCF61944 EQ PUSH2 0xBCB JUMPI DUP1 PUSH4 0xCEA9D26F EQ PUSH2 0xBE1 JUMPI DUP1 PUSH4 0xCEAA366D EQ PUSH2 0xC01 JUMPI DUP1 PUSH4 0xD0F16470 EQ PUSH2 0xC17 JUMPI DUP1 PUSH4 0xD2C8E0E5 EQ PUSH2 0xC37 JUMPI DUP1 PUSH4 0xD2F82536 EQ PUSH2 0xC64 JUMPI DUP1 PUSH4 0xD4F00142 EQ PUSH2 0xC83 JUMPI DUP1 PUSH4 0xD8020A18 EQ PUSH2 0xCA3 JUMPI DUP1 PUSH4 0xDEAB8AEA EQ PUSH2 0xCB9 JUMPI DUP1 PUSH4 0xDEC7FA3B EQ PUSH2 0xCD9 JUMPI DUP1 PUSH4 0xE3067449 EQ PUSH2 0xCEF JUMPI DUP1 PUSH4 0xE4412F68 EQ PUSH2 0xD05 JUMPI DUP1 PUSH4 0xECE71266 EQ PUSH2 0xD1B JUMPI DUP1 PUSH4 0xF2FDE38B EQ PUSH2 0xD3B JUMPI JUMPDEST PUSH1 0x0 DUP1 REVERT JUMPDEST CALLVALUE DUP1 ISZERO PUSH2 0x368 JUMPI PUSH1 0x0 DUP1 REVERT JUMPDEST POP PUSH2 0x37C PUSH2 0x377 CALLDATASIZE PUSH1 0x4 PUSH2 0x5A52 JUMP JUMPDEST PUSH2 0xD5B JUMP JUMPDEST STOP JUMPDEST CALLVALUE DUP1 ISZERO PUSH2 0x38A JUMPI PUSH1 0x0 DUP1 REVERT JUMPDEST POP PUSH2 0x394 PUSH1 0xB SLOAD DUP2 JUMP JUMPDEST PUSH1 0x40 MLOAD SWAP1 DUP2 MSTORE PUSH1 0x20 ADD JUMPDEST PUSH1 0x40 MLOAD DUP1 SWAP2 SUB SWAP1 RETURN JUMPDEST CALLVALUE DUP1 ISZERO PUSH2 0x3B3 JUMPI PUSH1 0x0 DUP1 REVERT JUMPDEST POP PUSH2 0x37C PUSH2 0x3C2 CALLDATASIZE PUSH1 0x4 PUSH2 0x5AA7 JUMP JUMPDEST PUSH2 0xDF1 JUMP JUMPDEST CALLVALUE DUP1 ISZERO PUSH2 0x3D3 JUMPI PUSH1 0x0 DUP1 REVERT JUMPDEST POP PUSH2 0x3E7 PUSH2 0x3E2 CALLDATASIZE PUSH1 0x4 PUSH2 0x5AC2 JUMP JUMPDEST PUSH2 0xEF6 JUMP JUMPDEST PUSH1 0x40 MLOAD PUSH2 0x39E SWAP2 SWAP1 PUSH2 0x5AEC JUMP JUMPDEST CALLVALUE DUP1 ISZERO PUSH2 0x400 JUMPI PUSH1 0x0 DUP1 REVERT JUMPDEST POP PUSH2 0x37C PUSH2 0x40F CALLDATASIZE PUSH1 0x4 PUSH2 0x5B00 JUMP JUMPDEST PUSH2 0xF2E JUMP JUMPDEST CALLVALUE DUP1 ISZERO PUSH2 0x420 JUMPI PUSH1 0x0 DUP1 REVERT JUMPDEST POP PUSH2 0x429 PUSH1 0x2 DUP2 JUMP JUMPDEST PUSH1 0x40 MLOAD PUSH1 0xFF SWAP1 SWAP2 AND DUP2 MSTORE PUSH1 0x20 ADD PUSH2 0x39E JUMP JUMPDEST CALLVALUE DUP1 ISZERO PUSH2 0x447 JUMPI PUSH1 0x0 DUP1 REVERT JUMPDEST POP PUSH2 0x429 PUSH1 0x0 DUP2 JUMP JUMPDEST CALLVALUE DUP1 ISZERO PUSH2 0x45C JUMPI PUSH1 0x0 DUP1 REVERT JUMPDEST POP PUSH1 0x1 SLOAD PUSH2 0x3E7 SWAP1 PUSH1 0x1 PUSH1 0x1 PUSH1 0xA0 SHL SUB AND DUP2 JUMP JUMPDEST CALLVALUE DUP1 ISZERO PUSH2 0x47C JUMPI PUSH1 0x0 DUP1 REVERT JUMPDEST POP PUSH2 0x394 PUSH2 0x48B CALLDATASIZE PUSH1 0x4 PUSH2 0x5B00 JUMP JUMPDEST PUSH2 0x12C9 JUMP JUMPDEST CALLVALUE DUP1 ISZERO PUSH2 0x49C JUMPI PUSH1 0x0 DUP1 REVERT JUMPDEST POP PUSH2 0x512 PUSH2 0x4AB CALLDATASIZE PUSH1 0x4 PUSH2 0x5AA7 JUMP JUMPDEST PUSH1 0xF PUSH1 0x20 MSTORE PUSH1 0x0 SWAP1 DUP2 MSTORE PUSH1 0x40 SWAP1 KECCAK256 DUP1 SLOAD PUSH1 0x1 DUP3 ADD SLOAD PUSH1 0x2 DUP4 ADD SLOAD PUSH1 0x3 DUP5 ADD SLOAD PUSH1 0x4 DUP6 ADD SLOAD PUSH1 0x5 DUP7 ADD SLOAD PUSH1 0x6 DUP8 ADD SLOAD PUSH1 0x7 DUP9 ADD SLOAD PUSH1 0x8 DUP10 ADD SLOAD PUSH1 0x9 DUP11 ADD SLOAD PUSH1 0xA SWAP1 SWAP11 ADD SLOAD PUSH1 0x1 PUSH1 0x1 PUSH1 0xA0 SHL SUB SWAP1 SWAP10 AND SWAP10 SWAP8 SWAP9 SWAP7 SWAP8 SWAP6 SWAP7 SWAP5 SWAP6 PUSH1 0xFF SWAP1 SWAP5 AND SWAP5 SWAP3 SWAP4 SWAP2 SWAP3 SWAP1 SWAP2 SWAP1 DUP12 JUMP JUMPDEST PUSH1 0x40 DUP1 MLOAD PUSH1 0x1 PUSH1 0x1 PUSH1 0xA0 SHL SUB SWAP1 SWAP13 AND DUP13 MSTORE PUSH1 0x20 DUP13 ADD SWAP11 SWAP1 SWAP11 MSTORE SWAP9 DUP11 ADD SWAP8 SWAP1 SWAP8 MSTORE PUSH1 0x60 DUP10 ADD SWAP6 SWAP1 SWAP6 MSTORE PUSH1 0x80 DUP9 ADD SWAP4 SWAP1 SWAP4 MSTORE SWAP1 ISZERO ISZERO PUSH1 0xA0 DUP8 ADD MSTORE PUSH1 0xC0 DUP7 ADD MSTORE PUSH1 0xE0 DUP6 ADD MSTORE PUSH2 0x100 DUP5 ADD MSTORE PUSH2 0x120 DUP4 ADD MSTORE PUSH2 0x140 DUP3 ADD MSTORE PUSH2 0x160 ADD PUSH2 0x39E JUMP JUMPDEST CALLVALUE DUP1 ISZERO PUSH2 0x57B JUMPI PUSH1 0x0 DUP1 REVERT JUMPDEST POP PUSH2 0x394 PUSH1 0x18 SLOAD DUP2 JUMP JUMPDEST CALLVALUE DUP1 ISZERO PUSH2 0x591 JUMPI PUSH1 0x0 DUP1 REVERT JUMPDEST POP PUSH2 0x394 PUSH9 0x3635C9ADC5DEA00000 DUP2 JUMP JUMPDEST CALLVALUE DUP1 ISZERO PUSH2 0x5AE JUMPI PUSH1 0x0 DUP1 REVERT JUMPDEST POP PUSH2 0x5C2 PUSH2 0x5BD CALLDATASIZE PUSH1 0x4 PUSH2 0x5B00 JUMP JUMPDEST PUSH2 0x1303 JUMP JUMPDEST PUSH1 0x40 MLOAD PUSH2 0x39E SWAP4 SWAP3 SWAP2 SWAP1 PUSH2 0x5B19 JUMP JUMPDEST CALLVALUE DUP1 ISZERO PUSH2 0x5DD JUMPI PUSH1 0x0 DUP1 REVERT JUMPDEST POP PUSH1 0x4F SLOAD PUSH2 0x3E7 SWAP1 PUSH2 0x100 SWAP1 DIV PUSH1 0x1 PUSH1 0x1 PUSH1 0xA0 SHL SUB AND DUP2 JUMP JUMPDEST CALLVALUE DUP1 ISZERO PUSH2 0x602 JUMPI PUSH1 0x0 DUP1 REVERT JUMPDEST POP PUSH1 0x4F SLOAD PUSH2 0x610 SWAP1 PUSH1 0xFF AND DUP2 JUMP JUMPDEST PUSH1 0x40 MLOAD SWAP1 ISZERO ISZERO DUP2 MSTORE PUSH1 0x20 ADD PUSH2 0x39E JUMP JUMPDEST CALLVALUE DUP1 ISZERO PUSH2 0x62C JUMPI PUSH1 0x0 DUP1 REVERT JUMPDEST POP PUSH2 0x394 PUSH1 0xD SLOAD DUP2 JUMP JUMPDEST CALLVALUE DUP1 ISZERO PUSH2 0x642 JUMPI PUSH1 0x0 DUP1 REVERT JUMPDEST POP PUSH2 0x37C PUSH2 0x1336 JUMP JUMPDEST CALLVALUE DUP1 ISZERO PUSH2 0x657 JUMPI PUSH1 0x0 DUP1 REVERT JUMPDEST POP PUSH2 0x394 PUSH2 0x1986 JUMP JUMPDEST CALLVALUE DUP1 ISZERO PUSH2 0x66C JUMPI PUSH1 0x0 DUP1 REVERT JUMPDEST POP PUSH2 0x3E7 PUSH2 0x67B CALLDATASIZE PUSH1 0x4 PUSH2 0x5B00 JUMP JUMPDEST PUSH1 0x1E PUSH1 0x20 MSTORE PUSH1 0x0 SWAP1 DUP2 MSTORE PUSH1 0x40 SWAP1 KECCAK256 SLOAD PUSH1 0x1 PUSH1 0x1 PUSH1 0xA0 SHL SUB AND DUP2 JUMP JUMPDEST CALLVALUE DUP1 ISZERO PUSH2 0x6A2 JUMPI PUSH1 0x0 DUP1 REVERT JUMPDEST POP PUSH1 0x3 SLOAD PUSH2 0x3E7 SWAP1 PUSH1 0x1 PUSH1 0x1 PUSH1 0xA0 SHL SUB AND DUP2 JUMP JUMPDEST CALLVALUE DUP1 ISZERO PUSH2 0x6C2 JUMPI PUSH1 0x0 DUP1 REVERT JUMPDEST POP PUSH2 0x6D6 PUSH2 0x6D1 CALLDATASIZE PUSH1 0x4 PUSH2 0x5B00 JUMP JUMPDEST PUSH2 0x1A75 JUMP JUMPDEST PUSH1 0x40 MLOAD PUSH2 0x39E SWAP3 SWAP2 SWAP1 PUSH2 0x5B2F JUMP JUMPDEST CALLVALUE DUP1 ISZERO PUSH2 0x6F0 JUMPI PUSH1 0x0 DUP1 REVERT JUMPDEST POP PUSH2 0x394 PUSH1 0x3C DUP2 JUMP JUMPDEST CALLVALUE DUP1 ISZERO PUSH2 0x705 JUMPI PUSH1 0x0 DUP1 REVERT JUMPDEST POP PUSH2 0x37C PUSH2 0x1A8A JUMP JUMPDEST CALLVALUE DUP1 ISZERO PUSH2 0x71A JUMPI PUSH1 0x0 DUP1 REVERT JUMPDEST POP PUSH2 0x37C PUSH2 0x729 CALLDATASIZE PUSH1 0x4 PUSH2 0x5B3D JUMP JUMPDEST PUSH2 0x1AC7 JUMP JUMPDEST PUSH2 0x37C PUSH2 0x73C CALLDATASIZE PUSH1 0x4 PUSH2 0x5B75 JUMP JUMPDEST PUSH2 0x1F37 JUMP JUMPDEST CALLVALUE DUP1 ISZERO PUSH2 0x74D JUMPI PUSH1 0x0 DUP1 REVERT JUMPDEST POP PUSH2 0x37C PUSH2 0x1F52 JUMP JUMPDEST CALLVALUE DUP1 ISZERO PUSH2 0x762 JUMPI PUSH1 0x0 DUP1 REVERT JUMPDEST POP PUSH2 0x37C PUSH2 0x771 CALLDATASIZE PUSH1 0x4 PUSH2 0x5B00 JUMP JUMPDEST PUSH2 0x1F92 JUMP JUMPDEST CALLVALUE DUP1 ISZERO PUSH2 0x782 JUMPI PUSH1 0x0 DUP1 REVERT JUMPDEST POP PUSH2 0x394 PUSH2 0x230B JUMP JUMPDEST CALLVALUE DUP1 ISZERO PUSH2 0x797 JUMPI PUSH1 0x0 DUP1 REVERT JUMPDEST POP PUSH2 0x37C PUSH2 0x7A6 CALLDATASIZE PUSH1 0x4 PUSH2 0x5AA7 JUMP JUMPDEST PUSH2 0x2328 JUMP JUMPDEST CALLVALUE DUP1 ISZERO PUSH2 0x7B7 JUMPI PUSH1 0x0 DUP1 REVERT JUMPDEST POP PUSH2 0x394 PUSH1 0x19 SLOAD DUP2 JUMP JUMPDEST CALLVALUE DUP1 ISZERO PUSH2 0x7CD JUMPI PUSH1 0x0 DUP1 REVERT JUMPDEST POP PUSH2 0x37C PUSH2 0x7DC CALLDATASIZE PUSH1 0x4 PUSH2 0x5B00 JUMP JUMPDEST PUSH2 0x2358 JUMP JUMPDEST CALLVALUE DUP1 ISZERO PUSH2 0x7ED JUMPI PUSH1 0x0 DUP1 REVERT JUMPDEST POP PUSH2 0x394 PUSH2 0x3E8 DUP2 JUMP JUMPDEST CALLVALUE DUP1 ISZERO PUSH2 0x803 JUMPI PUSH1 0x0 DUP1 REVERT JUMPDEST POP PUSH2 0x394 PUSH1 0x15 SLOAD DUP2 JUMP JUMPDEST CALLVALUE DUP1 ISZERO PUSH2 0x819 JUMPI PUSH1 0x0 DUP1 REVERT JUMPDEST POP PUSH2 0x37C PUSH2 0x2996 JUMP JUMPDEST CALLVALUE DUP1 ISZERO PUSH2 0x82E JUMPI PUSH1 0x0 DUP1 REVERT JUMPDEST POP PUSH2 0x37C PUSH2 0x83D CALLDATASIZE PUSH1 0x4 PUSH2 0x5C81 JUMP JUMPDEST PUSH2 0x29A8 JUMP JUMPDEST CALLVALUE DUP1 ISZERO PUSH2 0x84E JUMPI PUSH1 0x0 DUP1 REVERT JUMPDEST POP PUSH2 0x394 PUSH1 0x1A SLOAD DUP2 JUMP JUMPDEST CALLVALUE DUP1 ISZERO PUSH2 0x864 JUMPI PUSH1 0x0 DUP1 REVERT JUMPDEST POP PUSH1 0x2 SLOAD PUSH2 0x3E7 SWAP1 PUSH1 0x1 PUSH1 0x1 PUSH1 0xA0 SHL SUB AND DUP2 JUMP JUMPDEST CALLVALUE DUP1 ISZERO PUSH2 0x884 JUMPI PUSH1 0x0 DUP1 REVERT JUMPDEST POP PUSH2 0x394 PUSH1 0x17 SLOAD DUP2 JUMP JUMPDEST CALLVALUE DUP1 ISZERO PUSH2 0x89A JUMPI PUSH1 0x0 DUP1 REVERT JUMPDEST POP PUSH2 0x8AE PUSH2 0x8A9 CALLDATASIZE PUSH1 0x4 PUSH2 0x5B3D JUMP JUMPDEST PUSH2 0x2B64 JUMP JUMPDEST PUSH1 0x40 MLOAD PUSH2 0x39E SWAP3 SWAP2 SWAP1 PUSH2 0x5CEC JUMP JUMPDEST CALLVALUE DUP1 ISZERO PUSH2 0x8C8 JUMPI PUSH1 0x0 DUP1 REVERT JUMPDEST POP PUSH2 0x37C PUSH2 0x8D7 CALLDATASIZE PUSH1 0x4 PUSH2 0x5D05 JUMP JUMPDEST PUSH2 0x2BAA JUMP JUMPDEST CALLVALUE DUP1 ISZERO PUSH2 0x8E8 JUMPI PUSH1 0x0 DUP1 REVERT JUMPDEST POP PUSH2 0x921 PUSH2 0x8F7 CALLDATASIZE PUSH1 0x4 PUSH2 0x5AA7 JUMP JUMPDEST PUSH1 0x10 PUSH1 0x20 MSTORE PUSH1 0x0 SWAP1 DUP2 MSTORE PUSH1 0x40 SWAP1 KECCAK256 DUP1 SLOAD PUSH1 0x1 DUP3 ADD SLOAD PUSH1 0x2 DUP4 ADD SLOAD PUSH1 0x3 SWAP1 SWAP4 ADD SLOAD SWAP2 SWAP3 SWAP1 SWAP2 PUSH1 0xFF AND DUP5 JUMP JUMPDEST PUSH1 0x40 DUP1 MLOAD SWAP5 DUP6 MSTORE PUSH1 0x20 DUP6 ADD SWAP4 SWAP1 SWAP4 MSTORE SWAP2 DUP4 ADD MSTORE ISZERO ISZERO PUSH1 0x60 DUP3 ADD MSTORE PUSH1 0x80 ADD PUSH2 0x39E JUMP JUMPDEST CALLVALUE DUP1 ISZERO PUSH2 0x94F JUMPI PUSH1 0x0 DUP1 REVERT JUMPDEST POP PUSH2 0x429 PUSH1 0x4 DUP2 JUMP JUMPDEST CALLVALUE DUP1 ISZERO PUSH2 0x964 JUMPI PUSH1 0x0 DUP1 REVERT JUMPDEST POP PUSH1 0x4 SLOAD PUSH2 0x3E7 SWAP1 PUSH1 0x1 PUSH1 0x1 PUSH1 0xA0 SHL SUB AND DUP2 JUMP JUMPDEST CALLVALUE DUP1 ISZERO PUSH2 0x984 JUMPI PUSH1 0x0 DUP1 REVERT JUMPDEST POP PUSH2 0x429 PUSH1 0x1 DUP2 JUMP JUMPDEST CALLVALUE DUP1 ISZERO PUSH2 0x999 JUMPI PUSH1 0x0 DUP1 REVERT JUMPDEST POP PUSH2 0x429 PUSH1 0x3 DUP2 JUMP JUMPDEST CALLVALUE DUP1 ISZERO PUSH2 0x9AE JUMPI PUSH1 0x0 DUP1 REVERT JUMPDEST POP PUSH2 0x3E7 PUSH2 0x2CCA JUMP JUMPDEST CALLVALUE DUP1 ISZERO PUSH2 0x9C3 JUMPI PUSH1 0x0 DUP1 REVERT JUMPDEST POP PUSH2 0x37C PUSH2 0x9D2 CALLDATASIZE PUSH1 0x4 PUSH2 0x5B3D JUMP JUMPDEST PUSH2 0x2CE5 JUMP JUMPDEST CALLVALUE DUP1 ISZERO PUSH2 0x9E3 JUMPI PUSH1 0x0 DUP1 REVERT JUMPDEST POP PUSH2 0x394 PUSH1 0xE SLOAD DUP2 JUMP JUMPDEST CALLVALUE DUP1 ISZERO PUSH2 0x9F9 JUMPI PUSH1 0x0 DUP1 REVERT JUMPDEST POP PUSH1 0x0 SLOAD PUSH2 0x3E7 SWAP1 PUSH1 0x1 PUSH1 0x1 PUSH1 0xA0 SHL SUB AND DUP2 JUMP JUMPDEST CALLVALUE DUP1 ISZERO PUSH2 0xA19 JUMPI PUSH1 0x0 DUP1 REVERT JUMPDEST POP PUSH2 0x37C PUSH2 0xA28 CALLDATASIZE PUSH1 0x4 PUSH2 0x5AC2 JUMP JUMPDEST PUSH2 0x2D29 JUMP JUMPDEST CALLVALUE DUP1 ISZERO PUSH2 0xA39 JUMPI PUSH1 0x0 DUP1 REVERT JUMPDEST POP PUSH2 0x37C PUSH2 0xA48 CALLDATASIZE PUSH1 0x4 PUSH2 0x5B3D JUMP JUMPDEST PUSH2 0x2E05 JUMP JUMPDEST CALLVALUE DUP1 ISZERO PUSH2 0xA59 JUMPI PUSH1 0x0 DUP1 REVERT JUMPDEST POP PUSH2 0x37C PUSH2 0xA68 CALLDATASIZE PUSH1 0x4 PUSH2 0x5B00 JUMP JUMPDEST PUSH2 0x2F6A JUMP JUMPDEST CALLVALUE DUP1 ISZERO PUSH2 0xA79 JUMPI PUSH1 0x0 DUP1 REVERT JUMPDEST POP PUSH2 0x8AE PUSH2 0xA88 CALLDATASIZE PUSH1 0x4 PUSH2 0x5B3D JUMP JUMPDEST PUSH2 0x2FAE JUMP JUMPDEST CALLVALUE DUP1 ISZERO PUSH2 0xA99 JUMPI PUSH1 0x0 DUP1 REVERT JUMPDEST POP PUSH2 0xABE PUSH1 0x40 MLOAD DUP1 PUSH1 0x40 ADD PUSH1 0x40 MSTORE DUP1 PUSH1 0x5 DUP2 MSTORE PUSH1 0x20 ADD PUSH5 0x352E302E3 PUSH1 0xDC SHL DUP2 MSTORE POP DUP2 JUMP JUMPDEST PUSH1 0x40 MLOAD PUSH2 0x39E SWAP2 SWAP1 PUSH2 0x5D7D JUMP JUMPDEST CALLVALUE DUP1 ISZERO PUSH2 0xAD7 JUMPI PUSH1 0x0 DUP1 REVERT JUMPDEST POP PUSH1 0x16 SLOAD PUSH2 0x610 SWAP1 PUSH1 0xFF AND DUP2 JUMP JUMPDEST CALLVALUE DUP1 ISZERO PUSH2 0xAF1 JUMPI PUSH1 0x0 DUP1 REVERT JUMPDEST POP PUSH2 0xB05 PUSH2 0xB00 CALLDATASIZE PUSH1 0x4 PUSH2 0x5AC2 JUMP JUMPDEST PUSH2 0x2FCA JUMP JUMPDEST PUSH1 0x40 DUP1 MLOAD SWAP7 DUP8 MSTORE PUSH1 0x20 DUP8 ADD SWAP6 SWAP1 SWAP6 MSTORE SWAP4 DUP6 ADD SWAP3 SWAP1 SWAP3 MSTORE PUSH1 0x60 DUP5 ADD MSTORE ISZERO ISZERO PUSH1 0x80 DUP4 ADD MSTORE PUSH1 0xA0 DUP3 ADD MSTORE PUSH1 0xC0 ADD PUSH2 0x39E JUMP JUMPDEST CALLVALUE DUP1 ISZERO PUSH2 0xB40 JUMPI PUSH1 0x0 DUP1 REVERT JUMPDEST POP PUSH2 0x394 PUSH1 0x1F SLOAD DUP2 JUMP JUMPDEST CALLVALUE DUP1 ISZERO PUSH2 0xB56 JUMPI PUSH1 0x0 DUP1 REVERT JUMPDEST POP PUSH2 0x394 PUSH1 0x7 SLOAD DUP2 JUMP JUMPDEST CALLVALUE DUP1 ISZERO PUSH2 0xB6C JUMPI PUSH1 0x0 DUP1 REVERT JUMPDEST POP PUSH2 0x37C PUSH2 0x3024 JUMP JUMPDEST CALLVALUE DUP1 ISZERO PUSH2 0xB81 JUMPI PUSH1 0x0 DUP1 REVERT JUMPDEST POP PUSH2 0x3E7 PUSH2 0xB90 CALLDATASIZE PUSH1 0x4 PUSH2 0x5B00 JUMP JUMPDEST PUSH1 0x1C PUSH1 0x20 MSTORE PUSH1 0x0 SWAP1 DUP2 MSTORE PUSH1 0x40 SWAP1 KECCAK256 SLOAD PUSH1 0x1 PUSH1 0x1 PUSH1 0xA0 SHL SUB AND DUP2 JUMP JUMPDEST CALLVALUE DUP1 ISZERO PUSH2 0xBB7 JUMPI PUSH1 0x0 DUP1 REVERT JUMPDEST POP PUSH2 0x37C PUSH2 0xBC6 CALLDATASIZE PUSH1 0x4 PUSH2 0x5DB0 JUMP JUMPDEST PUSH2 0x38B8 JUMP JUMPDEST CALLVALUE DUP1 ISZERO PUSH2 0xBD7 JUMPI PUSH1 0x0 DUP1 REVERT JUMPDEST POP PUSH2 0x394 PUSH1 0x6 SLOAD DUP2 JUMP JUMPDEST CALLVALUE DUP1 ISZERO PUSH2 0xBED JUMPI PUSH1 0x0 DUP1 REVERT JUMPDEST POP PUSH2 0x37C PUSH2 0xBFC CALLDATASIZE PUSH1 0x4 PUSH2 0x5E24 JUMP JUMPDEST PUSH2 0x3A71 JUMP JUMPDEST CALLVALUE DUP1 ISZERO PUSH2 0xC0D JUMPI PUSH1 0x0 DUP1 REVERT JUMPDEST POP PUSH2 0x394 PUSH1 0xA SLOAD DUP2 JUMP JUMPDEST CALLVALUE DUP1 ISZERO PUSH2 0xC23 JUMPI PUSH1 0x0 DUP1 REVERT JUMPDEST POP PUSH2 0x37C PUSH2 0xC32 CALLDATASIZE PUSH1 0x4 PUSH2 0x5E60 JUMP JUMPDEST PUSH2 0x3BED JUMP JUMPDEST CALLVALUE DUP1 ISZERO PUSH2 0xC43 JUMPI PUSH1 0x0 DUP1 REVERT JUMPDEST POP PUSH2 0xC57 PUSH2 0xC52 CALLDATASIZE PUSH1 0x4 PUSH2 0x5AA7 JUMP JUMPDEST PUSH2 0x3C71 JUMP JUMPDEST PUSH1 0x40 MLOAD PUSH2 0x39E SWAP2 SWAP1 PUSH2 0x5EA3 JUMP JUMPDEST CALLVALUE DUP1 ISZERO PUSH2 0xC70 JUMPI PUSH1 0x0 DUP1 REVERT JUMPDEST POP PUSH1 0x16 SLOAD PUSH2 0x610 SWAP1 PUSH2 0x100 SWAP1 DIV PUSH1 0xFF AND DUP2 JUMP JUMPDEST CALLVALUE DUP1 ISZERO PUSH2 0xC8F JUMPI PUSH1 0x0 DUP1 REVERT JUMPDEST POP PUSH2 0x37C PUSH2 0xC9E CALLDATASIZE PUSH1 0x4 PUSH2 0x5EF0 JUMP JUMPDEST PUSH2 0x3CE7 JUMP JUMPDEST CALLVALUE DUP1 ISZERO PUSH2 0xCAF JUMPI PUSH1 0x0 DUP1 REVERT JUMPDEST POP PUSH2 0x394 PUSH1 0x8 SLOAD DUP2 JUMP JUMPDEST CALLVALUE DUP1 ISZERO PUSH2 0xCC5 JUMPI PUSH1 0x0 DUP1 REVERT JUMPDEST POP PUSH1 0x5 SLOAD PUSH2 0x3E7 SWAP1 PUSH1 0x1 PUSH1 0x1 PUSH1 0xA0 SHL SUB AND DUP2 JUMP JUMPDEST CALLVALUE DUP1 ISZERO PUSH2 0xCE5 JUMPI PUSH1 0x0 DUP1 REVERT JUMPDEST POP PUSH2 0x394 PUSH1 0xC SLOAD DUP2 JUMP JUMPDEST CALLVALUE DUP1 ISZERO PUSH2 0xCFB JUMPI PUSH1 0x0 DUP1 REVERT JUMPDEST POP PUSH2 0x394 PUSH1 0x1B SLOAD DUP2 JUMP JUMPDEST CALLVALUE DUP1 ISZERO PUSH2 0xD11 JUMPI PUSH1 0x0 DUP1 REVERT JUMPDEST POP PUSH2 0x394 PUSH1 0x9 SLOAD DUP2 JUMP JUMPDEST CALLVALUE DUP1 ISZERO PUSH2 0xD27 JUMPI PUSH1 0x0 DUP1 REVERT JUMPDEST POP PUSH2 0x37C PUSH2 0xD36 CALLDATASIZE PUSH1 0x4 PUSH2 0x5B00 JUMP JUMPDEST PUSH2 0x3E48 JUMP JUMPDEST CALLVALUE DUP1 ISZERO PUSH2 0xD47 JUMPI PUSH1 0x0 DUP1 REVERT JUMPDEST POP PUSH2 0x37C PUSH2 0xD56 CALLDATASIZE PUSH1 0x4 PUSH2 0x5AA7 JUMP JUMPDEST PUSH2 0x3E85 JUMP JUMPDEST PUSH2 0xD63 PUSH2 0x3EC0 JUMP JUMPDEST PUSH1 0x16 DUP1 SLOAD PUSH2 0xFFFF NOT AND DUP4 ISZERO ISZERO PUSH2 0xFF00 NOT DUP2 AND SWAP2 SWAP1 SWAP2 OR PUSH2 0x100 DUP5 ISZERO ISZERO MUL OR SWAP1 SWAP2 SSTORE PUSH1 0x40 MLOAD SWAP1 DUP2 MSTORE PUSH32 0xB886FCB5B9C12916F26D967EBE962DBD51EC249FB55961DA39C851CDFC10115C SWAP1 PUSH1 0x20 ADD PUSH1 0x40 MLOAD DUP1 SWAP2 SUB SWAP1 LOG1 PUSH1 0x40 MLOAD DUP2 ISZERO ISZERO DUP2 MSTORE PUSH32 0x3CB373F89DE891077FE47CEC43663B6727713DE0337AF46BEBD1178122251B7 SWAP1 PUSH1 0x20 ADD JUMPDEST PUSH1 0x40 MLOAD DUP1 SWAP2 SUB SWAP1 LOG1 POP POP JUMP JUMPDEST CALLER PUSH1 0x0 SWAP1 DUP2 MSTORE PUSH1 0xF PUSH1 0x20 MSTORE PUSH1 0x40 SWAP1 KECCAK256 SLOAD PUSH1 0x1 PUSH1 0x1 PUSH1 0xA0 SHL SUB AND ISZERO PUSH2 0xE28 JUMPI PUSH1 0x40 MLOAD PUSH4 0x682A9065 PUSH1 0xE0 SHL DUP2 MSTORE PUSH1 0x4 ADD PUSH1 0x40 MLOAD DUP1 SWAP2 SUB SWAP1 REVERT JUMPDEST CALLER PUSH1 0x1 PUSH1 0x1 PUSH1 0xA0 SHL SUB DUP3 AND SUB PUSH2 0xE51 JUMPI PUSH1 0x40 MLOAD PUSH4 0x1ACADE89 PUSH1 0xE3 SHL DUP2 MSTORE PUSH1 0x4 ADD PUSH1 0x40 MLOAD DUP1 SWAP2 SUB SWAP1 REVERT JUMPDEST PUSH1 0x1 PUSH1 0x1 PUSH1 0xA0 SHL SUB DUP2 AND PUSH2 0xE78 JUMPI PUSH1 0x40 MLOAD PUSH4 0xE6C4247B PUSH1 0xE0 SHL DUP2 MSTORE PUSH1 0x4 ADD PUSH1 0x40 MLOAD DUP1 SWAP2 SUB SWAP1 REVERT JUMPDEST CALLER PUSH1 0x0 DUP2 DUP2 MSTORE PUSH1 0xF PUSH1 0x20 SWAP1 DUP2 MSTORE PUSH1 0x40 DUP1 DUP4 KECCAK256 DUP1 SLOAD PUSH1 0x1 PUSH1 0x1 PUSH1 0xA0 SHL SUB DUP8 AND PUSH1 0x1 PUSH1 0x1 PUSH1 0xA0 SHL SUB NOT SWAP2 DUP3 AND DUP2 OR SWAP1 SWAP3 SSTORE DUP2 DUP6 MSTORE PUSH1 0x12 DUP5 MSTORE DUP3 DUP6 KECCAK256 DUP1 SLOAD PUSH1 0x1 DUP2 ADD DUP3 SSTORE SWAP1 DUP7 MSTORE SWAP4 DUP6 KECCAK256 SWAP1 SWAP4 ADD DUP1 SLOAD SWAP1 SWAP4 AND DUP6 OR SWAP1 SWAP3 SSTORE MLOAD SWAP1 SWAP3 SWAP2 PUSH32 0xA6DBB5AA28F35437DE94D685D66EDCE5FB4812196B4984B91DFD5A7B38C0FB30 SWAP2 LOG3 POP JUMP JUMPDEST PUSH1 0x12 PUSH1 0x20 MSTORE DUP2 PUSH1 0x0 MSTORE PUSH1 0x40 PUSH1 0x0 KECCAK256 DUP2 DUP2 SLOAD DUP2 LT PUSH2 0xF12 JUMPI PUSH1 0x0 DUP1 REVERT JUMPDEST PUSH1 0x0 SWAP2 DUP3 MSTORE PUSH1 0x20 SWAP1 SWAP2 KECCAK256 ADD SLOAD PUSH1 0x1 PUSH1 0x1 PUSH1 0xA0 SHL SUB AND SWAP2 POP DUP3 SWAP1 POP JUMP JUMPDEST PUSH2 0xF36 PUSH2 0x3EF2 JUMP JUMPDEST PUSH1 0x4F SLOAD PUSH1 0xFF AND ISZERO PUSH2 0xF62 JUMPI PUSH1 0x40 MLOAD PUSH3 0x461BCD PUSH1 0xE5 SHL DUP2 MSTORE PUSH1 0x4 ADD PUSH2 0xF59 SWAP1 PUSH2 0x5F34 JUMP JUMPDEST PUSH1 0x40 MLOAD DUP1 SWAP2 SUB SWAP1 REVERT JUMPDEST DUP1 PUSH1 0x0 SUB PUSH2 0xF83 JUMPI PUSH1 0x40 MLOAD PUSH4 0x162908E3 PUSH1 0xE1 SHL DUP2 MSTORE PUSH1 0x4 ADD PUSH1 0x40 MLOAD DUP1 SWAP2 SUB SWAP1 REVERT JUMPDEST PUSH9 0x3635C9ADC5DEA00000 PUSH1 0x17 SLOAD LT DUP1 PUSH2 0xFA6 JUMPI POP PUSH9 0x3635C9ADC5DEA00000 PUSH1 0x18 SLOAD LT JUMPDEST ISZERO PUSH2 0xFC4 JUMPI PUSH1 0x40 MLOAD PUSH4 0x43C7AD81 PUSH1 0xE1 SHL DUP2 MSTORE PUSH1 0x4 ADD PUSH1 0x40 MLOAD DUP1 SWAP2 SUB SWAP1 REVERT JUMPDEST PUSH1 0x0 SLOAD PUSH1 0x40 MLOAD PUSH4 0x23B872DD PUSH1 0xE0 SHL DUP2 MSTORE PUSH1 0x1 PUSH1 0x1 PUSH1 0xA0 SHL SUB SWAP1 SWAP2 AND SWAP1 PUSH4 0x23B872DD SWAP1 PUSH2 0xFF8 SWAP1 CALLER SWAP1 ADDRESS SWAP1 DUP7 SWAP1 PUSH1 0x4 ADD PUSH2 0x5F60 JUMP JUMPDEST PUSH1 0x20 PUSH1 0x40 MLOAD DUP1 DUP4 SUB DUP2 PUSH1 0x0 DUP8 GAS CALL ISZERO DUP1 ISZERO PUSH2 0x1017 JUMPI RETURNDATASIZE PUSH1 0x0 DUP1 RETURNDATACOPY RETURNDATASIZE PUSH1 0x0 REVERT JUMPDEST POP POP POP POP PUSH1 0x40 MLOAD RETURNDATASIZE PUSH1 0x1F NOT PUSH1 0x1F DUP3 ADD AND DUP3 ADD DUP1 PUSH1 0x40 MSTORE POP DUP2 ADD SWAP1 PUSH2 0x103B SWAP2 SWAP1 PUSH2 0x5F84 JUMP JUMPDEST POP PUSH1 0x0 PUSH1 0x18 SLOAD DUP3 PUSH2 0x104C SWAP2 SWAP1 PUSH2 0x5FB7 JUMP JUMPDEST SWAP1 POP PUSH1 0x0 DUP3 PUSH1 0x17 SLOAD PUSH2 0x105E SWAP2 SWAP1 PUSH2 0x5FCE JUMP JUMPDEST SWAP1 POP PUSH1 0x0 PUSH2 0x106C DUP3 DUP5 PUSH2 0x5FE1 JUMP JUMPDEST SWAP1 POP PUSH1 0x0 PUSH1 0x17 SLOAD DUP6 PUSH2 0x2710 PUSH2 0x1081 SWAP2 SWAP1 PUSH2 0x5FB7 JUMP JUMPDEST PUSH2 0x108B SWAP2 SWAP1 PUSH2 0x5FE1 JUMP JUMPDEST SWAP1 POP PUSH2 0x3E8 DUP2 GT ISZERO PUSH2 0x10B0 JUMPI PUSH1 0x40 MLOAD PUSH4 0x162908E3 PUSH1 0xE1 SHL DUP2 MSTORE PUSH1 0x4 ADD PUSH1 0x40 MLOAD DUP1 SWAP2 SUB SWAP1 REVERT JUMPDEST PUSH1 0x0 PUSH1 0x64 PUSH1 0xD SLOAD DUP5 PUSH2 0x10C2 SWAP2 SWAP1 PUSH2 0x5FB7 JUMP JUMPDEST PUSH2 0x10CC SWAP2 SWAP1 PUSH2 0x5FE1 JUMP JUMPDEST SWAP1 POP PUSH1 0x0 PUSH2 0x10DA DUP3 DUP6 PUSH2 0x6003 JUMP JUMPDEST PUSH1 0x1 SLOAD PUSH1 0x40 MLOAD PUSH4 0x70A08231 PUSH1 0xE0 SHL DUP2 MSTORE SWAP2 SWAP3 POP DUP6 SWAP2 PUSH1 0x1 PUSH1 0x1 PUSH1 0xA0 SHL SUB SWAP1 SWAP2 AND SWAP1 PUSH4 0x70A08231 SWAP1 PUSH2 0x110F SWAP1 ADDRESS SWAP1 PUSH1 0x4 ADD PUSH2 0x5AEC JUMP JUMPDEST PUSH1 0x20 PUSH1 0x40 MLOAD DUP1 DUP4 SUB DUP2 DUP7 GAS STATICCALL ISZERO DUP1 ISZERO PUSH2 0x112C JUMPI RETURNDATASIZE PUSH1 0x0 DUP1 RETURNDATACOPY RETURNDATASIZE PUSH1 0x0 REVERT JUMPDEST POP POP POP POP PUSH1 0x40 MLOAD RETURNDATASIZE PUSH1 0x1F NOT PUSH1 0x1F DUP3 ADD AND DUP3 ADD DUP1 PUSH1 0x40 MSTORE POP DUP2 ADD SWAP1 PUSH2 0x1150 SWAP2 SWAP1 PUSH2 0x6016 JUMP JUMPDEST LT ISZERO PUSH2 0x116F JUMPI PUSH1 0x40 MLOAD PUSH4 0x43C7AD81 PUSH1 0xE1 SHL DUP2 MSTORE PUSH1 0x4 ADD PUSH1 0x40 MLOAD DUP1 SWAP2 SUB SWAP1 REVERT JUMPDEST DUP7 PUSH1 0x17 PUSH1 0x0 DUP3 DUP3 SLOAD PUSH2 0x1181 SWAP2 SWAP1 PUSH2 0x5FCE JUMP JUMPDEST SWAP3 POP POP DUP2 SWAP1 SSTORE POP DUP4 PUSH1 0x18 PUSH1 0x0 DUP3 DUP3 SLOAD PUSH2 0x119A SWAP2 SWAP1 PUSH2 0x6003 JUMP JUMPDEST SWAP1 SWAP2 SSTORE POP POP PUSH1 0x1 SLOAD PUSH1 0x40 MLOAD PUSH4 0x852CD8D PUSH1 0xE3 SHL DUP2 MSTORE PUSH1 0x4 DUP2 ADD DUP5 SWAP1 MSTORE PUSH1 0x1 PUSH1 0x1 PUSH1 0xA0 SHL SUB SWAP1 SWAP2 AND SWAP1 PUSH4 0x42966C68 SWAP1 PUSH1 0x24 ADD PUSH1 0x0 PUSH1 0x40 MLOAD DUP1 DUP4 SUB DUP2 PUSH1 0x0 DUP8 DUP1 EXTCODESIZE ISZERO DUP1 ISZERO PUSH2 0x11E5 JUMPI PUSH1 0x0 DUP1 REVERT JUMPDEST POP GAS CALL ISZERO DUP1 ISZERO PUSH2 0x11F9 JUMPI RETURNDATASIZE PUSH1 0x0 DUP1 RETURNDATACOPY RETURNDATASIZE PUSH1 0x0 REVERT JUMPDEST POP POP PUSH1 0x1 SLOAD PUSH1 0x40 MLOAD PUSH4 0xA9059CBB PUSH1 0xE0 SHL DUP2 MSTORE PUSH1 0x1 PUSH1 0x1 PUSH1 0xA0 SHL SUB SWAP1 SWAP2 AND SWAP3 POP PUSH4 0xA9059CBB SWAP2 POP PUSH2 0x122F SWAP1 CALLER SWAP1 DUP6 SWAP1 PUSH1 0x4 ADD PUSH2 0x5CEC JUMP JUMPDEST PUSH1 0x20 PUSH1 0x40 MLOAD DUP1 DUP4 SUB DUP2 PUSH1 0x0 DUP8 GAS CALL ISZERO DUP1 ISZERO PUSH2 0x124E JUMPI RETURNDATASIZE PUSH1 0x0 DUP1 RETURNDATACOPY RETURNDATASIZE PUSH1 0x0 REVERT JUMPDEST POP POP POP POP PUSH1 0x40 MLOAD RETURNDATASIZE PUSH1 0x1F NOT PUSH1 0x1F DUP3 ADD AND DUP3 ADD DUP1 PUSH1 0x40 MSTORE POP DUP2 ADD SWAP1 PUSH2 0x1272 SWAP2 SWAP1 PUSH2 0x5F84 JUMP JUMPDEST POP CALLER PUSH1 0x1 PUSH1 0x1 PUSH1 0xA0 SHL SUB AND PUSH32 0x36864AEEFCE16BC4AACEEB6B0CDFB2AD1455A8CB4CCB0DB148A2BC6E7166F97C DUP9 DUP4 DUP6 PUSH1 0x40 MLOAD PUSH2 0x12B0 SWAP4 SWAP3 SWAP2 SWAP1 PUSH2 0x5B19 JUMP JUMPDEST PUSH1 0x40 MLOAD DUP1 SWAP2 SUB SWAP1 LOG2 POP POP POP POP POP POP PUSH2 0x12C6 PUSH2 0x3F28 JUMP JUMPDEST POP JUMP JUMPDEST PUSH1 0x0 PUSH1 0x3 DUP3 LT PUSH2 0x12DB JUMPI POP PUSH1 0xF SWAP2 SWAP1 POP JUMP JUMPDEST PUSH1 0x2 DUP3 LT PUSH2 0x12EB JUMPI POP PUSH1 0xA SWAP2 SWAP1 POP JUMP JUMPDEST PUSH1 0x1 DUP3 LT PUSH2 0x12FB JUMPI POP PUSH1 0x5 SWAP2 SWAP1 POP JUMP JUMPDEST POP PUSH1 0x0 SWAP2 SWAP1 POP JUMP JUMPDEST PUSH1 0x14 DUP2 DUP2 SLOAD DUP2 LT PUSH2 0x1313 JUMPI PUSH1 0x0 DUP1 REVERT JUMPDEST PUSH1 0x0 SWAP2 DUP3 MSTORE PUSH1 0x20 SWAP1 SWAP2 KECCAK256 PUSH1 0x3 SWAP1 SWAP2 MUL ADD DUP1 SLOAD PUSH1 0x1 DUP3 ADD SLOAD PUSH1 0x2 SWAP1 SWAP3 ADD SLOAD SWAP1 SWAP3 POP DUP4 JUMP JUMPDEST PUSH2 0x133E PUSH2 0x3EF2 JUMP JUMPDEST CALLER PUSH1 0x0 SWAP1 DUP2 MSTORE PUSH1 0x10 PUSH1 0x20 MSTORE PUSH1 0x40 SWAP1 KECCAK256 PUSH1 0x1 DUP2 ADD SLOAD ISZERO DUP1 PUSH2 0x1362 JUMPI POP PUSH1 0x3 DUP2 ADD SLOAD PUSH1 0xFF AND JUMPDEST ISZERO PUSH2 0x1380 JUMPI PUSH1 0x40 MLOAD PUSH4 0x4065AAF1 PUSH1 0xE1 SHL DUP2 MSTORE PUSH1 0x4 ADD PUSH1 0x40 MLOAD DUP1 SWAP2 SUB SWAP1 REVERT JUMPDEST CALLER PUSH1 0x0 SWAP1 DUP2 MSTORE PUSH1 0x11 PUSH1 0x20 MSTORE PUSH1 0x40 DUP2 KECCAK256 SWAP1 DUP1 JUMPDEST DUP3 SLOAD DUP2 LT ISZERO PUSH2 0x15E5 JUMPI DUP3 DUP2 DUP2 SLOAD DUP2 LT PUSH2 0x13AD JUMPI PUSH2 0x13AD PUSH2 0x602F JUMP JUMPDEST PUSH1 0x0 SWAP2 DUP3 MSTORE PUSH1 0x20 SWAP1 SWAP2 KECCAK256 PUSH1 0x4 PUSH1 0x6 SWAP1 SWAP3 MUL ADD ADD SLOAD PUSH1 0xFF AND ISZERO PUSH2 0x15DD JUMPI PUSH1 0x0 DUP4 DUP3 DUP2 SLOAD DUP2 LT PUSH2 0x13DD JUMPI PUSH2 0x13DD PUSH2 0x602F JUMP JUMPDEST SWAP1 PUSH1 0x0 MSTORE PUSH1 0x20 PUSH1 0x0 KECCAK256 SWAP1 PUSH1 0x6 MUL ADD PUSH1 0x3 ADD SLOAD PUSH1 0x7 SUB PUSH2 0x1400 JUMPI POP PUSH3 0xCB7356 PUSH2 0x1467 JUMP JUMPDEST DUP4 DUP3 DUP2 SLOAD DUP2 LT PUSH2 0x1412 JUMPI PUSH2 0x1412 PUSH2 0x602F JUMP JUMPDEST SWAP1 PUSH1 0x0 MSTORE PUSH1 0x20 PUSH1 0x0 KECCAK256 SWAP1 PUSH1 0x6 MUL ADD PUSH1 0x3 ADD SLOAD PUSH1 0xF SUB PUSH2 0x1435 JUMPI POP PUSH3 0xFE502B PUSH2 0x1467 JUMP JUMPDEST DUP4 DUP3 DUP2 SLOAD DUP2 LT PUSH2 0x1447 JUMPI PUSH2 0x1447 PUSH2 0x602F JUMP JUMPDEST SWAP1 PUSH1 0x0 MSTORE PUSH1 0x20 PUSH1 0x0 KECCAK256 SWAP1 PUSH1 0x6 MUL ADD PUSH1 0x3 ADD SLOAD PUSH1 0x1E SUB PUSH2 0x1467 JUMPI POP PUSH4 0x1312D00 JUMPDEST PUSH1 0x0 PUSH1 0x3C DUP6 DUP5 DUP2 SLOAD DUP2 LT PUSH2 0x147D JUMPI PUSH2 0x147D PUSH2 0x602F JUMP JUMPDEST SWAP1 PUSH1 0x0 MSTORE PUSH1 0x20 PUSH1 0x0 KECCAK256 SWAP1 PUSH1 0x6 MUL ADD PUSH1 0x2 ADD SLOAD TIMESTAMP PUSH2 0x149A SWAP2 SWAP1 PUSH2 0x6003 JUMP JUMPDEST PUSH2 0x14A4 SWAP2 SWAP1 PUSH2 0x5FE1 JUMP JUMPDEST SWAP1 POP DUP5 DUP4 DUP2 SLOAD DUP2 LT PUSH2 0x14B8 JUMPI PUSH2 0x14B8 PUSH2 0x602F JUMP JUMPDEST SWAP1 PUSH1 0x0 MSTORE PUSH1 0x20 PUSH1 0x0 KECCAK256 SWAP1 PUSH1 0x6 MUL ADD PUSH1 0x3 ADD SLOAD DUP2 GT ISZERO PUSH2 0x14F8 JUMPI DUP5 DUP4 DUP2 SLOAD DUP2 LT PUSH2 0x14E3 JUMPI PUSH2 0x14E3 PUSH2 0x602F JUMP JUMPDEST SWAP1 PUSH1 0x0 MSTORE PUSH1 0x20 PUSH1 0x0 KECCAK256 SWAP1 PUSH1 0x6 MUL ADD PUSH1 0x3 ADD SLOAD SWAP1 POP JUMPDEST DUP1 PUSH1 0x0 SUB PUSH2 0x1507 JUMPI POP POP PUSH2 0x15DD JUMP JUMPDEST PUSH1 0x0 PUSH4 0x3B9ACA00 DUP3 DUP5 DUP9 DUP8 DUP2 SLOAD DUP2 LT PUSH2 0x1522 JUMPI PUSH2 0x1522 PUSH2 0x602F JUMP JUMPDEST SWAP1 PUSH1 0x0 MSTORE PUSH1 0x20 PUSH1 0x0 KECCAK256 SWAP1 PUSH1 0x6 MUL ADD PUSH1 0x1 ADD SLOAD PUSH2 0x153E SWAP2 SWAP1 PUSH2 0x5FB7 JUMP JUMPDEST PUSH2 0x1548 SWAP2 SWAP1 PUSH2 0x5FB7 JUMP JUMPDEST PUSH2 0x1552 SWAP2 SWAP1 PUSH2 0x5FE1 JUMP JUMPDEST SWAP1 POP PUSH1 0x0 DUP7 DUP6 DUP2 SLOAD DUP2 LT PUSH2 0x1568 JUMPI PUSH2 0x1568 PUSH2 0x602F JUMP JUMPDEST SWAP1 PUSH1 0x0 MSTORE PUSH1 0x20 PUSH1 0x0 KECCAK256 SWAP1 PUSH1 0x6 MUL ADD PUSH1 0x5 ADD SLOAD SWAP1 POP DUP1 DUP3 GT ISZERO PUSH2 0x15D8 JUMPI PUSH1 0x0 PUSH2 0x1590 DUP3 DUP5 PUSH2 0x6003 JUMP JUMPDEST SWAP1 POP PUSH2 0x159C DUP2 DUP9 PUSH2 0x5FCE JUMP JUMPDEST SWAP7 POP DUP1 DUP9 DUP8 DUP2 SLOAD DUP2 LT PUSH2 0x15B1 JUMPI PUSH2 0x15B1 PUSH2 0x602F JUMP JUMPDEST SWAP1 PUSH1 0x0 MSTORE PUSH1 0x20 PUSH1 0x0 KECCAK256 SWAP1 PUSH1 0x6 MUL ADD PUSH1 0x5 ADD PUSH1 0x0 DUP3 DUP3 SLOAD PUSH2 0x15D1 SWAP2 SWAP1 PUSH2 0x5FCE JUMP JUMPDEST SWAP1 SWAP2 SSTORE POP POP POP JUMPDEST POP POP POP POP JUMPDEST PUSH1 0x1 ADD PUSH2 0x1392 JUMP JUMPDEST POP DUP1 PUSH1 0x0 SUB PUSH2 0x1607 JUMPI PUSH1 0x40 MLOAD PUSH4 0xFEC21FD PUSH1 0xE2 SHL DUP2 MSTORE PUSH1 0x4 ADD PUSH1 0x40 MLOAD DUP1 SWAP2 SUB SWAP1 REVERT JUMPDEST CALLER PUSH1 0x0 SWAP1 DUP2 MSTORE PUSH1 0xF PUSH1 0x20 MSTORE PUSH1 0x40 SWAP1 KECCAK256 PUSH1 0x4 DUP2 ADD SLOAD PUSH1 0x3 SWAP1 SWAP2 ADD SLOAD PUSH2 0x162C SWAP1 DUP4 SWAP1 PUSH2 0x5FCE JUMP JUMPDEST GT ISZERO PUSH2 0x1659 JUMPI CALLER PUSH1 0x0 SWAP1 DUP2 MSTORE PUSH1 0xF PUSH1 0x20 MSTORE PUSH1 0x40 SWAP1 KECCAK256 PUSH1 0x3 DUP2 ADD SLOAD PUSH1 0x4 SWAP1 SWAP2 ADD SLOAD PUSH2 0x1656 SWAP2 SWAP1 PUSH2 0x6003 JUMP JUMPDEST SWAP1 POP JUMPDEST DUP1 PUSH1 0x0 SUB PUSH2 0x1672 JUMPI PUSH2 0x166A CALLER PUSH2 0x3F39 JUMP JUMPDEST POP POP POP PUSH2 0x197C JUMP JUMPDEST CALLER PUSH1 0x0 SWAP1 DUP2 MSTORE PUSH1 0xF PUSH1 0x20 MSTORE PUSH1 0x40 DUP2 KECCAK256 PUSH1 0x3 ADD DUP1 SLOAD DUP4 SWAP3 SWAP1 PUSH2 0x1694 SWAP1 DUP5 SWAP1 PUSH2 0x5FCE JUMP JUMPDEST SWAP1 SWAP2 SSTORE POP PUSH1 0x0 SWAP1 POP PUSH2 0x16A7 PUSH1 0x2 DUP4 PUSH2 0x5FE1 JUMP JUMPDEST SWAP1 POP PUSH1 0x0 PUSH2 0x16B6 PUSH1 0x2 DUP5 PUSH2 0x5FE1 JUMP JUMPDEST PUSH1 0x0 DUP1 SLOAD PUSH1 0x40 MLOAD PUSH4 0x70A08231 PUSH1 0xE0 SHL DUP2 MSTORE SWAP3 SWAP4 POP SWAP1 SWAP2 DUP5 SWAP2 PUSH1 0x1 PUSH1 0x1 PUSH1 0xA0 SHL SUB AND SWAP1 PUSH4 0x70A08231 SWAP1 PUSH2 0x16EC SWAP1 ADDRESS SWAP1 PUSH1 0x4 ADD PUSH2 0x5AEC JUMP JUMPDEST PUSH1 0x20 PUSH1 0x40 MLOAD DUP1 DUP4 SUB DUP2 DUP7 GAS STATICCALL ISZERO DUP1 ISZERO PUSH2 0x1709 JUMPI RETURNDATASIZE PUSH1 0x0 DUP1 RETURNDATACOPY RETURNDATASIZE PUSH1 0x0 REVERT JUMPDEST POP POP POP POP PUSH1 0x40 MLOAD RETURNDATASIZE PUSH1 0x1F NOT PUSH1 0x1F DUP3 ADD AND DUP3 ADD DUP1 PUSH1 0x40 MSTORE POP DUP2 ADD SWAP1 PUSH2 0x172D SWAP2 SWAP1 PUSH2 0x6016 JUMP JUMPDEST LT ISZERO DUP1 ISZERO PUSH2 0x173B JUMPI POP PUSH1 0x0 DUP4 GT JUMPDEST ISZERO PUSH2 0x17BA JUMPI PUSH1 0x0 SLOAD PUSH1 0x40 MLOAD PUSH4 0xA9059CBB PUSH1 0xE0 SHL DUP2 MSTORE PUSH1 0x1 PUSH1 0x1 PUSH1 0xA0 SHL SUB SWAP1 SWAP2 AND SWAP1 PUSH4 0xA9059CBB SWAP1 PUSH2 0x1772 SWAP1 CALLER SWAP1 DUP8 SWAP1 PUSH1 0x4 ADD PUSH2 0x5CEC JUMP JUMPDEST PUSH1 0x20 PUSH1 0x40 MLOAD DUP1 DUP4 SUB DUP2 PUSH1 0x0 DUP8 GAS CALL ISZERO DUP1 ISZERO PUSH2 0x1791 JUMPI RETURNDATASIZE PUSH1 0x0 DUP1 RETURNDATACOPY RETURNDATASIZE PUSH1 0x0 REVERT JUMPDEST POP POP POP POP PUSH1 0x40 MLOAD RETURNDATASIZE PUSH1 0x1F NOT PUSH1 0x1F DUP3 ADD AND DUP3 ADD DUP1 PUSH1 0x40 MSTORE POP DUP2 ADD SWAP1 PUSH2 0x17B5 SWAP2 SWAP1 PUSH2 0x5F84 JUMP JUMPDEST POP DUP3 SWAP1 POP JUMPDEST PUSH1 0x0 PUSH2 0x17C4 PUSH2 0x1986 JUMP JUMPDEST SWAP1 POP PUSH1 0x0 DUP2 PUSH2 0x17DB DUP6 PUSH8 0xDE0B6B3A7640000 PUSH2 0x5FB7 JUMP JUMPDEST PUSH2 0x17E5 SWAP2 SWAP1 PUSH2 0x5FE1 JUMP JUMPDEST PUSH1 0x1 SLOAD PUSH1 0x40 MLOAD PUSH4 0x70A08231 PUSH1 0xE0 SHL DUP2 MSTORE SWAP2 SWAP3 POP PUSH1 0x0 SWAP2 DUP4 SWAP2 PUSH1 0x1 PUSH1 0x1 PUSH1 0xA0 SHL SUB AND SWAP1 PUSH4 0x70A08231 SWAP1 PUSH2 0x181B SWAP1 ADDRESS SWAP1 PUSH1 0x4 ADD PUSH2 0x5AEC JUMP JUMPDEST PUSH1 0x20 PUSH1 0x40 MLOAD DUP1 DUP4 SUB DUP2 DUP7 GAS STATICCALL ISZERO DUP1 ISZERO PUSH2 0x1838 JUMPI RETURNDATASIZE PUSH1 0x0 DUP1 RETURNDATACOPY RETURNDATASIZE PUSH1 0x0 REVERT JUMPDEST POP POP POP POP PUSH1 0x40 MLOAD RETURNDATASIZE PUSH1 0x1F NOT PUSH1 0x1F DUP3 ADD AND DUP3 ADD DUP1 PUSH1 0x40 MSTORE POP DUP2 ADD SWAP1 PUSH2 0x185C SWAP2 SWAP1 PUSH2 0x6016 JUMP JUMPDEST LT ISZERO DUP1 ISZERO PUSH2 0x186A JUMPI POP PUSH1 0x0 DUP3 GT JUMPDEST ISZERO PUSH2 0x18E9 JUMPI PUSH1 0x1 SLOAD PUSH1 0x40 MLOAD PUSH4 0xA9059CBB PUSH1 0xE0 SHL DUP2 MSTORE PUSH1 0x1 PUSH1 0x1 PUSH1 0xA0 SHL SUB SWAP1 SWAP2 AND SWAP1 PUSH4 0xA9059CBB SWAP1 PUSH2 0x18A1 SWAP1 CALLER SWAP1 DUP7 SWAP1 PUSH1 0x4 ADD PUSH2 0x5CEC JUMP JUMPDEST PUSH1 0x20 PUSH1 0x40 MLOAD DUP1 DUP4 SUB DUP2 PUSH1 0x0 DUP8 GAS CALL ISZERO DUP1 ISZERO PUSH2 0x18C0 JUMPI RETURNDATASIZE PUSH1 0x0 DUP1 RETURNDATACOPY RETURNDATASIZE PUSH1 0x0 REVERT JUMPDEST POP POP POP POP PUSH1 0x40 MLOAD RETURNDATASIZE PUSH1 0x1F NOT PUSH1 0x1F DUP3 ADD AND DUP3 ADD DUP1 PUSH1 0x40 MSTORE POP DUP2 ADD SWAP1 PUSH2 0x18E4 SWAP2 SWAP1 PUSH2 0x5F84 JUMP JUMPDEST POP DUP2 SWAP1 POP JUMPDEST CALLER PUSH1 0x1 PUSH1 0x1 PUSH1 0xA0 SHL SUB AND PUSH1 0x0 DUP1 MLOAD PUSH1 0x20 PUSH2 0x6196 DUP4 CODECOPY DUP2 MLOAD SWAP2 MSTORE DUP9 PUSH1 0x0 PUSH1 0x40 MLOAD PUSH2 0x1913 SWAP3 SWAP2 SWAP1 PUSH2 0x6045 JUMP JUMPDEST PUSH1 0x40 MLOAD DUP1 SWAP2 SUB SWAP1 LOG2 DUP9 SLOAD PUSH1 0x40 MLOAD CALLER SWAP2 PUSH1 0x0 DUP1 MLOAD PUSH1 0x20 PUSH2 0x6116 DUP4 CODECOPY DUP2 MLOAD SWAP2 MSTORE SWAP2 PUSH2 0x1942 SWAP2 DUP9 SWAP2 DUP7 SWAP2 PUSH1 0x0 SWAP2 PUSH2 0x6056 JUMP JUMPDEST PUSH1 0x40 MLOAD DUP1 SWAP2 SUB SWAP1 LOG2 CALLER PUSH1 0x0 SWAP1 DUP2 MSTORE PUSH1 0xF PUSH1 0x20 MSTORE PUSH1 0x40 SWAP1 KECCAK256 PUSH1 0x4 DUP2 ADD SLOAD PUSH1 0x3 SWAP1 SWAP2 ADD SLOAD LT PUSH2 0x1972 JUMPI PUSH2 0x1972 CALLER PUSH2 0x3F39 JUMP JUMPDEST POP POP POP POP POP POP POP POP POP JUMPDEST PUSH2 0x1984 PUSH2 0x3F28 JUMP JUMPDEST JUMP JUMPDEST PUSH1 0x4F SLOAD PUSH1 0x0 SWAP1 PUSH2 0x100 SWAP1 DIV PUSH1 0x1 PUSH1 0x1 PUSH1 0xA0 SHL SUB AND ISZERO PUSH2 0x1A23 JUMPI PUSH1 0x4F SLOAD PUSH1 0x1 SLOAD PUSH1 0x40 MLOAD PUSH4 0x41976E09 PUSH1 0xE0 SHL DUP2 MSTORE PUSH1 0x1 PUSH1 0x1 PUSH1 0xA0 SHL SUB PUSH2 0x100 SWAP1 SWAP4 DIV DUP4 AND SWAP3 PUSH4 0x41976E09 SWAP3 PUSH2 0x19D8 SWAP3 SWAP2 AND SWAP1 PUSH1 0x4 ADD PUSH2 0x5AEC JUMP JUMPDEST PUSH1 0x20 PUSH1 0x40 MLOAD DUP1 DUP4 SUB DUP2 DUP7 GAS STATICCALL SWAP3 POP POP POP DUP1 ISZERO PUSH2 0x1A11 JUMPI POP PUSH1 0x40 DUP1 MLOAD PUSH1 0x1F RETURNDATASIZE SWAP1 DUP2 ADD PUSH1 0x1F NOT AND DUP3 ADD SWAP1 SWAP3 MSTORE PUSH2 0x1A0E SWAP2 DUP2 ADD SWAP1 PUSH2 0x6016 JUMP JUMPDEST PUSH1 0x1 JUMPDEST ISZERO PUSH2 0x1A23 JUMPI DUP1 ISZERO PUSH2 0x1A21 JUMPI SWAP2 SWAP1 POP JUMP JUMPDEST POP JUMPDEST PUSH1 0x18 SLOAD ISZERO DUP1 PUSH2 0x1A3C JUMPI POP PUSH9 0x3635C9ADC5DEA00000 PUSH1 0x17 SLOAD LT JUMPDEST ISZERO PUSH2 0x1A4E JUMPI POP PUSH8 0xDE0B6B3A7640000 SWAP1 JUMP JUMPDEST PUSH1 0x18 SLOAD PUSH1 0x17 SLOAD PUSH2 0x1A66 SWAP1 PUSH8 0xDE0B6B3A7640000 PUSH2 0x5FB7 JUMP JUMPDEST PUSH2 0x1A70 SWAP2 SWAP1 PUSH2 0x5FE1 JUMP JUMPDEST SWAP1 POP SWAP1 JUMP JUMPDEST PUSH1 0x0 DUP1 PUSH2 0x1A81 DUP4 PUSH2 0x43A1 JUMP JUMPDEST SWAP2 POP SWAP2 POP SWAP2 POP SWAP2 JUMP JUMPDEST PUSH2 0x1A92 PUSH2 0x3EC0 JUMP JUMPDEST PUSH1 0x4F DUP1 SLOAD PUSH1 0xFF NOT AND SWAP1 SSTORE PUSH1 0x40 MLOAD PUSH32 0x15DE7AD89D29FD1C6D2E6B1E878453569B4080EDF34E0105FAAA3BD52F018530 SWAP1 PUSH1 0x0 SWAP1 LOG1 JUMP JUMPDEST PUSH2 0x1ACF PUSH2 0x3EF2 JUMP JUMPDEST PUSH1 0x4F SLOAD PUSH1 0xFF AND ISZERO PUSH2 0x1AF2 JUMPI PUSH1 0x40 MLOAD PUSH3 0x461BCD PUSH1 0xE5 SHL DUP2 MSTORE PUSH1 0x4 ADD PUSH2 0xF59 SWAP1 PUSH2 0x5F34 JUMP JUMPDEST CALLER PUSH1 0x0 SWAP1 DUP2 MSTORE PUSH1 0x10 PUSH1 0x20 MSTORE PUSH1 0x40 DUP2 KECCAK256 PUSH1 0x1 DUP2 ADD SLOAD SWAP1 SWAP2 SUB PUSH2 0x1B26 JUMPI PUSH1 0x40 MLOAD PUSH4 0x4065AAF1 PUSH1 0xE1 SHL DUP2 MSTORE PUSH1 0x4 ADD PUSH1 0x40 MLOAD DUP1 SWAP2 SUB SWAP1 REVERT JUMPDEST PUSH1 0x3 DUP2 ADD SLOAD PUSH1 0xFF AND ISZERO PUSH2 0x1B4C JUMPI PUSH1 0x40 MLOAD PUSH4 0x1ECB2C4F PUSH1 0xE3 SHL DUP2 MSTORE PUSH1 0x4 ADD PUSH1 0x40 MLOAD DUP1 SWAP2 SUB SWAP1 REVERT JUMPDEST DUP2 PUSH1 0x7 EQ ISZERO DUP1 ISZERO PUSH2 0x1B5E JUMPI POP DUP2 PUSH1 0xF EQ ISZERO JUMPDEST DUP1 ISZERO PUSH2 0x1B6B JUMPI POP DUP2 PUSH1 0x1E EQ ISZERO JUMPDEST ISZERO PUSH2 0x1B89 JUMPI PUSH1 0x40 MLOAD PUSH4 0x4DC7F5FF PUSH1 0xE1 SHL DUP2 MSTORE PUSH1 0x4 ADD PUSH1 0x40 MLOAD DUP1 SWAP2 SUB SWAP1 REVERT JUMPDEST DUP3 PUSH1 0x0 SUB PUSH2 0x1BAA JUMPI PUSH1 0x40 MLOAD PUSH4 0x162908E3 PUSH1 0xE1 SHL DUP2 MSTORE PUSH1 0x4 ADD PUSH1 0x40 MLOAD DUP1 SWAP2 SUB SWAP1 REVERT JUMPDEST PUSH1 0x0 SLOAD PUSH1 0x40 MLOAD PUSH4 0x23B872DD PUSH1 0xE0 SHL DUP2 MSTORE PUSH1 0x1 PUSH1 0x1 PUSH1 0xA0 SHL SUB SWAP1 SWAP2 AND SWAP1 PUSH4 0x23B872DD SWAP1 PUSH2 0x1BDE SWAP1 CALLER SWAP1 ADDRESS SWAP1 DUP9 SWAP1 PUSH1 0x4 ADD PUSH2 0x5F60 JUMP JUMPDEST PUSH1 0x20 PUSH1 0x40 MLOAD DUP1 DUP4 SUB DUP2 PUSH1 0x0 DUP8 GAS CALL ISZERO DUP1 ISZERO PUSH2 0x1BFD JUMPI RETURNDATASIZE PUSH1 0x0 DUP1 RETURNDATACOPY RETURNDATASIZE PUSH1 0x0 REVERT JUMPDEST POP POP POP POP PUSH1 0x40 MLOAD RETURNDATASIZE PUSH1 0x1F NOT PUSH1 0x1F DUP3 ADD AND DUP3 ADD DUP1 PUSH1 0x40 MSTORE POP DUP2 ADD SWAP1 PUSH2 0x1C21 SWAP2 SWAP1 PUSH2 0x5F84 JUMP JUMPDEST POP PUSH1 0x1A DUP1 SLOAD SWAP1 PUSH1 0x0 PUSH2 0x1C32 DUP4 PUSH2 0x6074 JUMP JUMPDEST SWAP1 SWAP2 SSTORE POP POP CALLER PUSH1 0x0 DUP2 DUP2 MSTORE PUSH1 0x11 PUSH1 0x20 SWAP1 DUP2 MSTORE PUSH1 0x40 DUP1 DUP4 KECCAK256 DUP2 MLOAD PUSH1 0xC0 DUP2 ADD DUP4 MSTORE PUSH1 0x1A DUP1 SLOAD DUP3 MSTORE DUP2 DUP6 ADD DUP11 DUP2 MSTORE TIMESTAMP DUP4 DUP7 ADD SWAP1 DUP2 MSTORE PUSH1 0x60 DUP5 ADD DUP12 DUP2 MSTORE PUSH1 0x1 PUSH1 0x80 DUP7 ADD DUP2 DUP2 MSTORE PUSH1 0xA0 DUP8 ADD DUP12 DUP2 MSTORE DUP9 SLOAD DUP1 DUP5 ADD DUP11 SSTORE SWAP9 DUP13 MSTORE DUP11 DUP13 KECCAK256 SWAP8 MLOAD PUSH1 0x6 SWAP1 SWAP10 MUL SWAP1 SWAP8 ADD SWAP8 DUP9 SSTORE SWAP4 MLOAD SWAP1 DUP8 ADD SSTORE SWAP1 MLOAD PUSH1 0x2 DUP7 ADD SSTORE MLOAD PUSH1 0x3 DUP6 ADD SSTORE MLOAD PUSH1 0x4 DUP5 ADD DUP1 SLOAD PUSH1 0xFF NOT AND SWAP2 ISZERO ISZERO SWAP2 SWAP1 SWAP2 OR SWAP1 SSTORE SWAP1 MLOAD PUSH1 0x5 SWAP1 SWAP3 ADD SWAP2 SWAP1 SWAP2 SSTORE DUP1 SLOAD DUP5 MSTORE PUSH1 0x1E SWAP1 SWAP3 MSTORE SWAP1 SWAP2 KECCAK256 DUP1 SLOAD PUSH1 0x1 PUSH1 0x1 PUSH1 0xA0 SHL SUB NOT AND DUP4 OR SWAP1 SSTORE SLOAD PUSH2 0x1CF0 SWAP2 SWAP1 DUP6 SWAP1 PUSH2 0x4468 JUMP JUMPDEST CALLER PUSH1 0x0 SWAP1 DUP2 MSTORE PUSH1 0xF PUSH1 0x20 MSTORE PUSH1 0x40 DUP2 KECCAK256 PUSH1 0xA ADD SLOAD SWAP1 DUP2 SWAP1 SUB PUSH2 0x1D27 JUMPI POP PUSH1 0x1 DUP2 ADD SLOAD CALLER PUSH1 0x0 SWAP1 DUP2 MSTORE PUSH1 0xF PUSH1 0x20 MSTORE PUSH1 0x40 SWAP1 KECCAK256 PUSH1 0xA ADD DUP2 SWAP1 SSTORE JUMPDEST PUSH1 0x0 PUSH1 0x64 PUSH2 0x1D36 DUP4 PUSH1 0x96 PUSH2 0x5FB7 JUMP JUMPDEST PUSH2 0x1D40 SWAP2 SWAP1 PUSH2 0x5FE1 JUMP JUMPDEST SWAP1 POP DUP1 DUP6 EQ PUSH2 0x1D62 JUMPI PUSH1 0x40 MLOAD PUSH4 0x162908E3 PUSH1 0xE1 SHL DUP2 MSTORE PUSH1 0x4 ADD PUSH1 0x40 MLOAD DUP1 SWAP2 SUB SWAP1 REVERT JUMPDEST PUSH2 0x1D6B CALLER PUSH2 0x46C6 JUMP JUMPDEST CALLER PUSH1 0x1 PUSH1 0x1 PUSH1 0xA0 SHL SUB AND PUSH32 0xA8A1B9E33E503EED12BF7E7C8C01C7F3B60217A496BDDD0F5DB351DD8C056C1C DUP7 DUP7 PUSH1 0x1A SLOAD PUSH1 0x40 MLOAD PUSH2 0x1DAA SWAP4 SWAP3 SWAP2 SWAP1 PUSH2 0x5B19 JUMP JUMPDEST PUSH1 0x40 MLOAD DUP1 SWAP2 SUB SWAP1 LOG2 CALLER PUSH1 0x0 SWAP1 DUP2 MSTORE PUSH1 0xF PUSH1 0x20 MSTORE PUSH1 0x40 SWAP1 KECCAK256 PUSH1 0x6 ADD SLOAD DUP1 ISZERO PUSH2 0x1F27 JUMPI CALLER PUSH1 0x0 SWAP1 DUP2 MSTORE PUSH1 0xF PUSH1 0x20 MSTORE PUSH1 0x40 DUP2 KECCAK256 PUSH1 0x6 ADD SSTORE PUSH1 0x17 SLOAD DUP2 GT DUP1 ISZERO SWAP1 PUSH2 0x1E5F JUMPI POP PUSH1 0x0 SLOAD PUSH1 0x40 MLOAD PUSH4 0x70A08231 PUSH1 0xE0 SHL DUP2 MSTORE DUP3 SWAP2 PUSH1 0x1 PUSH1 0x1 PUSH1 0xA0 SHL SUB AND SWAP1 PUSH4 0x70A08231 SWAP1 PUSH2 0x1E1B SWAP1 ADDRESS SWAP1 PUSH1 0x4 ADD PUSH2 0x5AEC JUMP JUMPDEST PUSH1 0x20 PUSH1 0x40 MLOAD DUP1 DUP4 SUB DUP2 DUP7 GAS STATICCALL ISZERO DUP1 ISZERO PUSH2 0x1E38 JUMPI RETURNDATASIZE PUSH1 0x0 DUP1 RETURNDATACOPY RETURNDATASIZE PUSH1 0x0 REVERT JUMPDEST POP POP POP POP PUSH1 0x40 MLOAD RETURNDATASIZE PUSH1 0x1F NOT PUSH1 0x1F DUP3 ADD AND DUP3 ADD DUP1 PUSH1 0x40 MSTORE POP DUP2 ADD SWAP1 PUSH2 0x1E5C SWAP2 SWAP1 PUSH2 0x6016 JUMP JUMPDEST LT ISZERO JUMPDEST ISZERO PUSH2 0x1F27 JUMPI DUP1 PUSH1 0x17 PUSH1 0x0 DUP3 DUP3 SLOAD PUSH2 0x1E76 SWAP2 SWAP1 PUSH2 0x6003 JUMP JUMPDEST SWAP1 SWAP2 SSTORE POP POP PUSH1 0x0 SLOAD PUSH1 0x40 MLOAD PUSH4 0xA9059CBB PUSH1 0xE0 SHL DUP2 MSTORE PUSH1 0x1 PUSH1 0x1 PUSH1 0xA0 SHL SUB SWAP1 SWAP2 AND SWAP1 PUSH4 0xA9059CBB SWAP1 PUSH2 0x1EAD SWAP1 CALLER SWAP1 DUP6 SWAP1 PUSH1 0x4 ADD PUSH2 0x5CEC JUMP JUMPDEST PUSH1 0x20 PUSH1 0x40 MLOAD DUP1 DUP4 SUB DUP2 PUSH1 0x0 DUP8 GAS CALL ISZERO DUP1 ISZERO PUSH2 0x1ECC JUMPI RETURNDATASIZE PUSH1 0x0 DUP1 RETURNDATACOPY RETURNDATASIZE PUSH1 0x0 REVERT JUMPDEST POP POP POP POP PUSH1 0x40 MLOAD RETURNDATASIZE PUSH1 0x1F NOT PUSH1 0x1F DUP3 ADD AND DUP3 ADD DUP1 PUSH1 0x40 MSTORE POP DUP2 ADD SWAP1 PUSH2 0x1EF0 SWAP2 SWAP1 PUSH2 0x5F84 JUMP JUMPDEST POP PUSH1 0x40 MLOAD DUP2 DUP2 MSTORE CALLER SWAP1 PUSH32 0x3437B9EA7FA19C6D233DD70CC787A70FAB87CEE64D8BA4571512CC84402748F9 SWAP1 PUSH1 0x20 ADD PUSH1 0x40 MLOAD DUP1 SWAP2 SUB SWAP1 LOG2 JUMPDEST POP POP POP POP PUSH2 0x1F33 PUSH2 0x3F28 JUMP JUMPDEST POP POP JUMP JUMPDEST PUSH2 0x1F3F PUSH2 0x4805 JUMP JUMPDEST PUSH2 0x1F48 DUP3 PUSH2 0x48AA JUMP JUMPDEST PUSH2 0x1F33 DUP3 DUP3 PUSH2 0x48B2 JUMP JUMPDEST PUSH2 0x1F5A PUSH2 0x3EC0 JUMP JUMPDEST PUSH1 0x4F DUP1 SLOAD PUSH1 0xFF NOT AND PUSH1 0x1 OR SWAP1 SSTORE PUSH1 0x40 MLOAD PUSH32 0x4CB3183D0BF66F9634B15CFC3539FDDDC96C2C9324848AF89B56586A6739FEC4 SWAP1 PUSH1 0x0 SWAP1 LOG1 JUMP JUMPDEST PUSH2 0x1F9A PUSH2 0x3EF2 JUMP JUMPDEST PUSH1 0x4F SLOAD PUSH1 0xFF AND ISZERO PUSH2 0x1FBD JUMPI PUSH1 0x40 MLOAD PUSH3 0x461BCD PUSH1 0xE5 SHL DUP2 MSTORE PUSH1 0x4 ADD PUSH2 0xF59 SWAP1 PUSH2 0x5F34 JUMP JUMPDEST DUP1 PUSH1 0x0 SUB PUSH2 0x1FDE JUMPI PUSH1 0x40 MLOAD PUSH4 0x162908E3 PUSH1 0xE1 SHL DUP2 MSTORE PUSH1 0x4 ADD PUSH1 0x40 MLOAD DUP1 SWAP2 SUB SWAP1 REVERT JUMPDEST PUSH9 0x3635C9ADC5DEA00000 PUSH1 0x17 SLOAD LT DUP1 PUSH2 0x2001 JUMPI POP PUSH9 0x3635C9ADC5DEA00000 PUSH1 0x18 SLOAD LT JUMPDEST ISZERO PUSH2 0x201F JUMPI PUSH1 0x40 MLOAD PUSH4 0x43C7AD81 PUSH1 0xE1 SHL DUP2 MSTORE PUSH1 0x4 ADD PUSH1 0x40 MLOAD DUP1 SWAP2 SUB SWAP1 REVERT JUMPDEST PUSH1 0x1 SLOAD PUSH1 0x40 MLOAD PUSH4 0x23B872DD PUSH1 0xE0 SHL DUP2 MSTORE PUSH1 0x1 PUSH1 0x1 PUSH1 0xA0 SHL SUB SWAP1 SWAP2 AND SWAP1 PUSH4 0x23B872DD SWAP1 PUSH2 0x2053 SWAP1 CALLER SWAP1 ADDRESS SWAP1 DUP7 SWAP1 PUSH1 0x4 ADD PUSH2 0x5F60 JUMP JUMPDEST PUSH1 0x20 PUSH1 0x40 MLOAD DUP1 DUP4 SUB DUP2 PUSH1 0x0 DUP8 GAS CALL ISZERO DUP1 ISZERO PUSH2 0x2072 JUMPI RETURNDATASIZE PUSH1 0x0 DUP1 RETURNDATACOPY RETURNDATASIZE PUSH1 0x0 REVERT JUMPDEST POP POP POP POP PUSH1 0x40 MLOAD RETURNDATASIZE PUSH1 0x1F NOT PUSH1 0x1F DUP3 ADD AND DUP3 ADD DUP1 PUSH1 0x40 MSTORE POP DUP2 ADD SWAP1 PUSH2 0x2096 SWAP2 SWAP1 PUSH2 0x5F84 JUMP JUMPDEST POP PUSH1 0x0 PUSH1 0x64 PUSH1 0xE SLOAD DUP4 PUSH2 0x20A9 SWAP2 SWAP1 PUSH2 0x5FB7 JUMP JUMPDEST PUSH2 0x20B3 SWAP2 SWAP1 PUSH2 0x5FE1 JUMP JUMPDEST SWAP1 POP PUSH1 0x0 PUSH2 0x20C1 DUP3 DUP5 PUSH2 0x6003 JUMP JUMPDEST SWAP1 POP PUSH1 0x0 PUSH1 0x18 SLOAD DUP3 PUSH2 0x2710 PUSH2 0x20D6 SWAP2 SWAP1 PUSH2 0x5FB7 JUMP JUMPDEST PUSH2 0x20E0 SWAP2 SWAP1 PUSH2 0x5FE1 JUMP JUMPDEST SWAP1 POP PUSH2 0x3E8 DUP2 GT ISZERO PUSH2 0x2105 JUMPI PUSH1 0x40 MLOAD PUSH4 0x162908E3 PUSH1 0xE1 SHL DUP2 MSTORE PUSH1 0x4 ADD PUSH1 0x40 MLOAD DUP1 SWAP2 SUB SWAP1 REVERT JUMPDEST PUSH1 0x1 SLOAD PUSH1 0x40 MLOAD PUSH4 0x852CD8D PUSH1 0xE3 SHL DUP2 MSTORE PUSH1 0x4 DUP2 ADD DUP6 SWAP1 MSTORE PUSH1 0x1 PUSH1 0x1 PUSH1 0xA0 SHL SUB SWAP1 SWAP2 AND SWAP1 PUSH4 0x42966C68 SWAP1 PUSH1 0x24 ADD PUSH1 0x0 PUSH1 0x40 MLOAD DUP1 DUP4 SUB DUP2 PUSH1 0x0 DUP8 DUP1 EXTCODESIZE ISZERO DUP1 ISZERO PUSH2 0x214B JUMPI PUSH1 0x0 DUP1 REVERT JUMPDEST POP GAS CALL ISZERO DUP1 ISZERO PUSH2 0x215F JUMPI RETURNDATASIZE PUSH1 0x0 DUP1 RETURNDATACOPY RETURNDATASIZE PUSH1 0x0 REVERT JUMPDEST POP POP POP POP PUSH1 0x0 PUSH1 0x17 SLOAD DUP4 PUSH2 0x2173 SWAP2 SWAP1 PUSH2 0x5FB7 JUMP JUMPDEST SWAP1 POP PUSH1 0x0 DUP4 PUSH1 0x18 SLOAD PUSH2 0x2185 SWAP2 SWAP1 PUSH2 0x5FCE JUMP JUMPDEST SWAP1 POP PUSH1 0x0 PUSH2 0x2193 DUP3 DUP5 PUSH2 0x5FE1 JUMP JUMPDEST PUSH1 0x0 SLOAD PUSH1 0x40 MLOAD PUSH4 0x70A08231 PUSH1 0xE0 SHL DUP2 MSTORE SWAP2 SWAP3 POP DUP3 SWAP2 PUSH1 0x1 PUSH1 0x1 PUSH1 0xA0 SHL SUB SWAP1 SWAP2 AND SWAP1 PUSH4 0x70A08231 SWAP1 PUSH2 0x21C8 SWAP1 ADDRESS SWAP1 PUSH1 0x4 ADD PUSH2 0x5AEC JUMP JUMPDEST PUSH1 0x20 PUSH1 0x40 MLOAD DUP1 DUP4 SUB DUP2 DUP7 GAS STATICCALL ISZERO DUP1 ISZERO PUSH2 0x21E5 JUMPI RETURNDATASIZE PUSH1 0x0 DUP1 RETURNDATACOPY RETURNDATASIZE PUSH1 0x0 REVERT JUMPDEST POP POP POP POP PUSH1 0x40 MLOAD RETURNDATASIZE PUSH1 0x1F NOT PUSH1 0x1F DUP3 ADD AND DUP3 ADD DUP1 PUSH1 0x40 MSTORE POP DUP2 ADD SWAP1 PUSH2 0x2209 SWAP2 SWAP1 PUSH2 0x6016 JUMP JUMPDEST LT ISZERO PUSH2 0x2228 JUMPI PUSH1 0x40 MLOAD PUSH4 0x43C7AD81 PUSH1 0xE1 SHL DUP2 MSTORE PUSH1 0x4 ADD PUSH1 0x40 MLOAD DUP1 SWAP2 SUB SWAP1 REVERT JUMPDEST DUP5 PUSH1 0x18 PUSH1 0x0 DUP3 DUP3 SLOAD PUSH2 0x223A SWAP2 SWAP1 PUSH2 0x5FCE JUMP JUMPDEST SWAP3 POP POP DUP2 SWAP1 SSTORE POP DUP1 PUSH1 0x17 PUSH1 0x0 DUP3 DUP3 SLOAD PUSH2 0x2253 SWAP2 SWAP1 PUSH2 0x6003 JUMP JUMPDEST SWAP1 SWAP2 SSTORE POP POP PUSH1 0x0 SLOAD PUSH1 0x40 MLOAD PUSH4 0xA9059CBB PUSH1 0xE0 SHL DUP2 MSTORE PUSH1 0x1 PUSH1 0x1 PUSH1 0xA0 SHL SUB SWAP1 SWAP2 AND SWAP1 PUSH4 0xA9059CBB SWAP1 PUSH2 0x228A SWAP1 CALLER SWAP1 DUP6 SWAP1 PUSH1 0x4 ADD PUSH2 0x5CEC JUMP JUMPDEST PUSH1 0x20 PUSH1 0x40 MLOAD DUP1 DUP4 SUB DUP2 PUSH1 0x0 DUP8 GAS CALL ISZERO DUP1 ISZERO PUSH2 0x22A9 JUMPI RETURNDATASIZE PUSH1 0x0 DUP1 RETURNDATACOPY RETURNDATASIZE PUSH1 0x0 REVERT JUMPDEST POP POP POP POP PUSH1 0x40 MLOAD RETURNDATASIZE PUSH1 0x1F NOT PUSH1 0x1F DUP3 ADD AND DUP3 ADD DUP1 PUSH1 0x40 MSTORE POP DUP2 ADD SWAP1 PUSH2 0x22CD SWAP2 SWAP1 PUSH2 0x5F84 JUMP JUMPDEST POP CALLER PUSH1 0x1 PUSH1 0x1 PUSH1 0xA0 SHL SUB AND PUSH32 0x223C8AD0806F634524940A8595F819C5CFC7B1F4F4F45791269301DF0A7E61D5 DUP9 DUP4 DUP10 PUSH1 0x40 MLOAD PUSH2 0x12B0 SWAP4 SWAP3 SWAP2 SWAP1 PUSH2 0x5B19 JUMP JUMPDEST PUSH1 0x0 PUSH2 0x2315 PUSH2 0x496B JUMP JUMPDEST POP PUSH1 0x0 DUP1 MLOAD PUSH1 0x20 PUSH2 0x6156 DUP4 CODECOPY DUP2 MLOAD SWAP2 MSTORE SWAP1 JUMP JUMPDEST PUSH2 0x2330 PUSH2 0x3EC0 JUMP JUMPDEST PUSH1 0x4F DUP1 SLOAD PUSH1 0x1 PUSH1 0x1 PUSH1 0xA0 SHL SUB SWAP1 SWAP3 AND PUSH2 0x100 MUL PUSH2 0x100 PUSH1 0x1 PUSH1 0xA8 SHL SUB NOT SWAP1 SWAP3 AND SWAP2 SWAP1 SWAP2 OR SWAP1 SSTORE JUMP JUMPDEST PUSH2 0x2360 PUSH2 0x3EF2 JUMP JUMPDEST PUSH1 0x4F SLOAD PUSH1 0xFF AND ISZERO PUSH2 0x2383 JUMPI PUSH1 0x40 MLOAD PUSH3 0x461BCD PUSH1 0xE5 SHL DUP2 MSTORE PUSH1 0x4 ADD PUSH2 0xF59 SWAP1 PUSH2 0x5F34 JUMP JUMPDEST PUSH2 0x238C CALLER PUSH2 0x49B4 JUMP JUMPDEST DUP1 PUSH9 0x56BC75E2D63100000 EQ ISZERO DUP1 ISZERO PUSH2 0x23AE JUMPI POP DUP1 PUSH9 0x1043561A8829300000 EQ ISZERO JUMPDEST DUP1 ISZERO PUSH2 0x23C3 JUMPI POP DUP1 PUSH9 0x1B1AE4D6E2EF500000 EQ ISZERO JUMPDEST DUP1 ISZERO PUSH2 0x23D8 JUMPI POP DUP1 PUSH9 0x3635C9ADC5DEA00000 EQ ISZERO JUMPDEST ISZERO PUSH2 0x23F6 JUMPI PUSH1 0x40 MLOAD PUSH4 0x162908E3 PUSH1 0xE1 SHL DUP2 MSTORE PUSH1 0x4 ADD PUSH1 0x40 MLOAD DUP1 SWAP2 SUB SWAP1 REVERT JUMPDEST PUSH1 0x0 SLOAD PUSH1 0x40 MLOAD PUSH4 0x23B872DD PUSH1 0xE0 SHL DUP2 MSTORE PUSH1 0x1 PUSH1 0x1 PUSH1 0xA0 SHL SUB SWAP1 SWAP2 AND SWAP1 PUSH4 0x23B872DD SWAP1 PUSH2 0x242A SWAP1 CALLER SWAP1 ADDRESS SWAP1 DUP7 SWAP1 PUSH1 0x4 ADD PUSH2 0x5F60 JUMP JUMPDEST PUSH1 0x20 PUSH1 0x40 MLOAD DUP1 DUP4 SUB DUP2 PUSH1 0x0 DUP8 GAS CALL ISZERO DUP1 ISZERO PUSH2 0x2449 JUMPI RETURNDATASIZE PUSH1 0x0 DUP1 RETURNDATACOPY RETURNDATASIZE PUSH1 0x0 REVERT JUMPDEST POP POP POP POP PUSH1 0x40 MLOAD RETURNDATASIZE PUSH1 0x1F NOT PUSH1 0x1F DUP3 ADD AND DUP3 ADD DUP1 PUSH1 0x40 MSTORE POP DUP2 ADD SWAP1 PUSH2 0x246D SWAP2 SWAP1 PUSH2 0x5F84 JUMP JUMPDEST POP CALLER PUSH1 0x0 SWAP1 DUP2 MSTORE PUSH1 0x10 PUSH1 0x20 MSTORE PUSH1 0x40 SWAP1 KECCAK256 PUSH1 0x3 DUP2 ADD SLOAD PUSH1 0xFF AND ISZERO PUSH2 0x24F3 JUMPI PUSH1 0x19 DUP1 SLOAD SWAP1 PUSH1 0x0 PUSH2 0x249A DUP4 PUSH2 0x6074 JUMP JUMPDEST SWAP1 SWAP2 SSTORE POP POP PUSH1 0x19 SLOAD DUP2 SSTORE PUSH1 0x1 DUP2 ADD DUP3 SWAP1 SSTORE TIMESTAMP PUSH1 0x2 DUP3 ADD SSTORE PUSH1 0x3 DUP1 DUP3 ADD DUP1 SLOAD PUSH1 0xFF NOT AND SWAP1 SSTORE CALLER PUSH1 0x0 SWAP1 DUP2 MSTORE PUSH1 0xF PUSH1 0x20 MSTORE PUSH1 0x40 DUP2 KECCAK256 DUP3 ADD SSTORE PUSH2 0x24DB SWAP1 DUP4 SWAP1 PUSH2 0x5FB7 JUMP JUMPDEST CALLER PUSH1 0x0 SWAP1 DUP2 MSTORE PUSH1 0xF PUSH1 0x20 MSTORE PUSH1 0x40 SWAP1 KECCAK256 PUSH1 0x4 ADD SSTORE PUSH2 0x257D JUMP JUMPDEST DUP1 PUSH1 0x1 ADD SLOAD PUSH1 0x0 SUB PUSH2 0x250F JUMPI PUSH1 0x19 DUP1 SLOAD SWAP1 PUSH1 0x0 PUSH2 0x249A DUP4 PUSH2 0x6074 JUMP JUMPDEST DUP2 DUP2 PUSH1 0x1 ADD PUSH1 0x0 DUP3 DUP3 SLOAD PUSH2 0x2523 SWAP2 SWAP1 PUSH2 0x5FCE JUMP JUMPDEST SWAP1 SWAP2 SSTORE POP POP CALLER PUSH1 0x0 SWAP1 DUP2 MSTORE PUSH1 0xF PUSH1 0x20 MSTORE PUSH1 0x40 SWAP1 KECCAK256 PUSH1 0x5 ADD SLOAD PUSH1 0xFF AND ISZERO PUSH2 0x254A JUMPI TIMESTAMP PUSH1 0x2 DUP3 ADD SSTORE JUMPDEST PUSH2 0x2555 DUP3 PUSH1 0x3 PUSH2 0x5FB7 JUMP JUMPDEST CALLER PUSH1 0x0 SWAP1 DUP2 MSTORE PUSH1 0xF PUSH1 0x20 MSTORE PUSH1 0x40 DUP2 KECCAK256 PUSH1 0x4 ADD DUP1 SLOAD SWAP1 SWAP2 SWAP1 PUSH2 0x2577 SWAP1 DUP5 SWAP1 PUSH2 0x5FCE JUMP JUMPDEST SWAP1 SWAP2 SSTORE POP POP JUMPDEST CALLER PUSH1 0x0 SWAP1 DUP2 MSTORE PUSH1 0xF PUSH1 0x20 MSTORE PUSH1 0x40 SWAP1 KECCAK256 PUSH1 0x9 ADD SLOAD PUSH1 0x1 DUP3 ADD SLOAD GT ISZERO PUSH2 0x25B4 JUMPI PUSH1 0x1 DUP2 ADD SLOAD CALLER PUSH1 0x0 SWAP1 DUP2 MSTORE PUSH1 0xF PUSH1 0x20 MSTORE PUSH1 0x40 SWAP1 KECCAK256 PUSH1 0x9 ADD SSTORE JUMPDEST CALLER PUSH1 0x0 SWAP1 DUP2 MSTORE PUSH1 0xF PUSH1 0x20 MSTORE PUSH1 0x40 SWAP1 KECCAK256 PUSH1 0xA ADD SLOAD DUP3 GT ISZERO PUSH2 0x25E4 JUMPI CALLER PUSH1 0x0 SWAP1 DUP2 MSTORE PUSH1 0xF PUSH1 0x20 MSTORE PUSH1 0x40 SWAP1 KECCAK256 PUSH1 0xA ADD DUP3 SWAP1 SSTORE JUMPDEST DUP1 SLOAD PUSH1 0x0 SWAP1 DUP2 MSTORE PUSH1 0x1C PUSH1 0x20 SWAP1 DUP2 MSTORE PUSH1 0x40 DUP1 DUP4 KECCAK256 DUP1 SLOAD PUSH1 0x1 PUSH1 0x1 PUSH1 0xA0 SHL SUB NOT AND CALLER SWAP1 DUP2 OR SWAP1 SWAP2 SSTORE DUP4 MSTORE PUSH1 0xF SWAP1 SWAP2 MSTORE SWAP1 KECCAK256 SLOAD PUSH1 0x1 PUSH1 0x1 PUSH1 0xA0 SHL SUB AND DUP1 ISZERO DUP1 ISZERO SWAP1 PUSH2 0x2647 JUMPI POP PUSH1 0x1 PUSH1 0x1 PUSH1 0xA0 SHL SUB DUP2 AND PUSH1 0x0 SWAP1 DUP2 MSTORE PUSH1 0xF PUSH1 0x20 MSTORE PUSH1 0x40 SWAP1 KECCAK256 PUSH1 0x5 ADD SLOAD PUSH1 0xFF AND JUMPDEST ISZERO PUSH2 0x26C0 JUMPI PUSH1 0x0 PUSH1 0x64 PUSH1 0x6 SLOAD DUP6 PUSH2 0x265E SWAP2 SWAP1 PUSH2 0x5FB7 JUMP JUMPDEST PUSH2 0x2668 SWAP2 SWAP1 PUSH2 0x5FE1 JUMP JUMPDEST SWAP1 POP PUSH1 0x0 PUSH2 0x2678 DUP4 DUP4 PUSH1 0x2 PUSH2 0x4B8B JUMP JUMPDEST SWAP1 POP DUP1 ISZERO PUSH2 0x26B9 JUMPI DUP4 SLOAD PUSH1 0x40 MLOAD CALLER SWAP2 PUSH1 0x1 PUSH1 0x1 PUSH1 0xA0 SHL SUB DUP7 AND SWAP2 PUSH1 0x0 DUP1 MLOAD PUSH1 0x20 PUSH2 0x60F6 DUP4 CODECOPY DUP2 MLOAD SWAP2 MSTORE SWAP2 PUSH2 0x26B0 SWAP2 DUP7 SWAP2 PUSH1 0x2 SWAP2 PUSH2 0x608D JUMP JUMPDEST PUSH1 0x40 MLOAD DUP1 SWAP2 SUB SWAP1 LOG3 JUMPDEST POP POP PUSH2 0x2756 JUMP JUMPDEST PUSH1 0x0 SLOAD PUSH1 0x2 SLOAD PUSH1 0x6 SLOAD PUSH1 0x1 PUSH1 0x1 PUSH1 0xA0 SHL SUB SWAP3 DUP4 AND SWAP3 PUSH4 0xA9059CBB SWAP3 AND SWAP1 PUSH1 0x64 SWAP1 PUSH2 0x26EA SWAP1 DUP9 PUSH2 0x5FB7 JUMP JUMPDEST PUSH2 0x26F4 SWAP2 SWAP1 PUSH2 0x5FE1 JUMP JUMPDEST PUSH1 0x40 MLOAD DUP4 PUSH4 0xFFFFFFFF AND PUSH1 0xE0 SHL DUP2 MSTORE PUSH1 0x4 ADD PUSH2 0x2711 SWAP3 SWAP2 SWAP1 PUSH2 0x5CEC JUMP JUMPDEST PUSH1 0x20 PUSH1 0x40 MLOAD DUP1 DUP4 SUB DUP2 PUSH1 0x0 DUP8 GAS CALL ISZERO DUP1 ISZERO PUSH2 0x2730 JUMPI RETURNDATASIZE PUSH1 0x0 DUP1 RETURNDATACOPY RETURNDATASIZE PUSH1 0x0 REVERT JUMPDEST POP POP POP POP PUSH1 0x40 MLOAD RETURNDATASIZE PUSH1 0x1F NOT PUSH1 0x1F DUP3 ADD AND DUP3 ADD DUP1 PUSH1 0x40 MSTORE POP DUP2 ADD SWAP1 PUSH2 0x2754 SWAP2 SWAP1 PUSH2 0x5F84 JUMP JUMPDEST POP JUMPDEST PUSH2 0x2760 CALLER DUP5 PUSH2 0x4DD8 JUMP JUMPDEST PUSH1 0x0 SLOAD PUSH1 0x2 SLOAD PUSH1 0x8 SLOAD PUSH1 0x1 PUSH1 0x1 PUSH1 0xA0 SHL SUB SWAP3 DUP4 AND SWAP3 PUSH4 0xA9059CBB SWAP3 AND SWAP1 PUSH1 0x64 SWAP1 PUSH2 0x278A SWAP1 DUP9 PUSH2 0x5FB7 JUMP JUMPDEST PUSH2 0x2794 SWAP2 SWAP1 PUSH2 0x5FE1 JUMP JUMPDEST PUSH1 0x40 MLOAD DUP4 PUSH4 0xFFFFFFFF AND PUSH1 0xE0 SHL DUP2 MSTORE PUSH1 0x4 ADD PUSH2 0x27B1 SWAP3 SWAP2 SWAP1 PUSH2 0x5CEC JUMP JUMPDEST PUSH1 0x20 PUSH1 0x40 MLOAD DUP1 DUP4 SUB DUP2 PUSH1 0x0 DUP8 GAS CALL ISZERO DUP1 ISZERO PUSH2 0x27D0 JUMPI RETURNDATASIZE PUSH1 0x0 DUP1 RETURNDATACOPY RETURNDATASIZE PUSH1 0x0 REVERT JUMPDEST POP POP POP POP PUSH1 0x40 MLOAD RETURNDATASIZE PUSH1 0x1F NOT PUSH1 0x1F DUP3 ADD AND DUP3 ADD DUP1 PUSH1 0x40 MSTORE POP DUP2 ADD SWAP1 PUSH2 0x27F4 SWAP2 SWAP1 PUSH2 0x5F84 JUMP JUMPDEST POP PUSH1 0x0 PUSH1 0x64 PUSH1 0x9 SLOAD DUP6 PUSH2 0x2807 SWAP2 SWAP1 PUSH2 0x5FB7 JUMP JUMPDEST PUSH2 0x2811 SWAP2 SWAP1 PUSH2 0x5FE1 JUMP JUMPDEST SWAP1 POP PUSH2 0x281C DUP2 PUSH2 0x4FFE JUMP JUMPDEST PUSH1 0x0 SLOAD PUSH1 0x4 SLOAD PUSH1 0xA SLOAD PUSH1 0x1 PUSH1 0x1 PUSH1 0xA0 SHL SUB SWAP3 DUP4 AND SWAP3 PUSH4 0xA9059CBB SWAP3 AND SWAP1 PUSH1 0x64 SWAP1 PUSH2 0x2846 SWAP1 DUP10 PUSH2 0x5FB7 JUMP JUMPDEST PUSH2 0x2850 SWAP2 SWAP1 PUSH2 0x5FE1 JUMP JUMPDEST PUSH1 0x40 MLOAD DUP4 PUSH4 0xFFFFFFFF AND PUSH1 0xE0 SHL DUP2 MSTORE PUSH1 0x4 ADD PUSH2 0x286D SWAP3 SWAP2 SWAP1 PUSH2 0x5CEC JUMP JUMPDEST PUSH1 0x20 PUSH1 0x40 MLOAD DUP1 DUP4 SUB DUP2 PUSH1 0x0 DUP8 GAS CALL ISZERO DUP1 ISZERO PUSH2 0x288C JUMPI RETURNDATASIZE PUSH1 0x0 DUP1 RETURNDATACOPY RETURNDATASIZE PUSH1 0x0 REVERT JUMPDEST POP POP POP POP PUSH1 0x40 MLOAD RETURNDATASIZE PUSH1 0x1F NOT PUSH1 0x1F DUP3 ADD AND DUP3 ADD DUP1 PUSH1 0x40 MSTORE POP DUP2 ADD SWAP1 PUSH2 0x28B0 SWAP2 SWAP1 PUSH2 0x5F84 JUMP JUMPDEST POP PUSH1 0x0 SLOAD PUSH1 0x3 SLOAD PUSH1 0xB SLOAD PUSH1 0x1 PUSH1 0x1 PUSH1 0xA0 SHL SUB SWAP3 DUP4 AND SWAP3 PUSH4 0xA9059CBB SWAP3 AND SWAP1 PUSH1 0x64 SWAP1 PUSH2 0x28DB SWAP1 DUP10 PUSH2 0x5FB7 JUMP JUMPDEST PUSH2 0x28E5 SWAP2 SWAP1 PUSH2 0x5FE1 JUMP JUMPDEST PUSH1 0x40 MLOAD DUP4 PUSH4 0xFFFFFFFF AND PUSH1 0xE0 SHL DUP2 MSTORE PUSH1 0x4 ADD PUSH2 0x2902 SWAP3 SWAP2 SWAP1 PUSH2 0x5CEC JUMP JUMPDEST PUSH1 0x20 PUSH1 0x40 MLOAD DUP1 DUP4 SUB DUP2 PUSH1 0x0 DUP8 GAS CALL ISZERO DUP1 ISZERO PUSH2 0x2921 JUMPI RETURNDATASIZE PUSH1 0x0 DUP1 RETURNDATACOPY RETURNDATASIZE PUSH1 0x0 REVERT JUMPDEST POP POP POP POP PUSH1 0x40 MLOAD RETURNDATASIZE PUSH1 0x1F NOT PUSH1 0x1F DUP3 ADD AND DUP3 ADD DUP1 PUSH1 0x40 MSTORE POP DUP2 ADD SWAP1 PUSH2 0x2945 SWAP2 SWAP1 PUSH2 0x5F84 JUMP JUMPDEST POP PUSH2 0x294F CALLER PUSH2 0x46C6 JUMP JUMPDEST DUP3 SLOAD PUSH1 0x40 MLOAD CALLER SWAP2 PUSH32 0x2A91574E12AD96234E84923E146B0946ECFB871CD8D5534DC1FDCBE87A7C01B3 SWAP2 PUSH2 0x2983 SWAP2 DUP9 SWAP2 PUSH2 0x5B2F JUMP JUMPDEST PUSH1 0x40 MLOAD DUP1 SWAP2 SUB SWAP1 LOG2 POP POP POP PUSH2 0x12C6 PUSH2 0x3F28 JUMP JUMPDEST PUSH2 0x299E PUSH2 0x3EC0 JUMP JUMPDEST PUSH2 0x1984 PUSH1 0x0 PUSH2 0x5283 JUMP JUMPDEST PUSH2 0x29B0 PUSH2 0x3EC0 JUMP JUMPDEST DUP3 DUP2 EQ PUSH2 0x29D0 JUMPI PUSH1 0x40 MLOAD PUSH4 0x980A3F31 PUSH1 0xE0 SHL DUP2 MSTORE PUSH1 0x4 ADD PUSH1 0x40 MLOAD DUP1 SWAP2 SUB SWAP1 REVERT JUMPDEST PUSH1 0x64 DUP4 GT ISZERO PUSH2 0x29F2 JUMPI PUSH1 0x40 MLOAD PUSH4 0x980A3F31 PUSH1 0xE0 SHL DUP2 MSTORE PUSH1 0x4 ADD PUSH1 0x40 MLOAD DUP1 SWAP2 SUB SWAP1 REVERT JUMPDEST PUSH1 0x0 JUMPDEST DUP4 DUP2 LT ISZERO PUSH2 0x2B29 JUMPI PUSH1 0x0 PUSH1 0xF PUSH1 0x0 DUP8 DUP8 DUP6 DUP2 DUP2 LT PUSH2 0x2A15 JUMPI PUSH2 0x2A15 PUSH2 0x602F JUMP JUMPDEST SWAP1 POP PUSH1 0x20 MUL ADD PUSH1 0x20 DUP2 ADD SWAP1 PUSH2 0x2A2A SWAP2 SWAP1 PUSH2 0x5AA7 JUMP JUMPDEST PUSH1 0x1 PUSH1 0x1 PUSH1 0xA0 SHL SUB AND PUSH1 0x1 PUSH1 0x1 PUSH1 0xA0 SHL SUB AND DUP2 MSTORE PUSH1 0x20 ADD SWAP1 DUP2 MSTORE PUSH1 0x20 ADD PUSH1 0x0 KECCAK256 PUSH1 0x2 ADD SLOAD SWAP1 POP DUP4 DUP4 DUP4 DUP2 DUP2 LT PUSH2 0x2A62 JUMPI PUSH2 0x2A62 PUSH2 0x602F JUMP JUMPDEST SWAP1 POP PUSH1 0x20 MUL ADD CALLDATALOAD PUSH1 0xF PUSH1 0x0 DUP9 DUP9 DUP7 DUP2 DUP2 LT PUSH2 0x2A7F JUMPI PUSH2 0x2A7F PUSH2 0x602F JUMP JUMPDEST SWAP1 POP PUSH1 0x20 MUL ADD PUSH1 0x20 DUP2 ADD SWAP1 PUSH2 0x2A94 SWAP2 SWAP1 PUSH2 0x5AA7 JUMP JUMPDEST PUSH1 0x1 PUSH1 0x1 PUSH1 0xA0 SHL SUB AND DUP2 MSTORE PUSH1 0x20 DUP2 ADD SWAP2 SWAP1 SWAP2 MSTORE PUSH1 0x40 ADD PUSH1 0x0 KECCAK256 PUSH1 0x2 ADD SSTORE DUP6 DUP6 DUP4 DUP2 DUP2 LT PUSH2 0x2AC3 JUMPI PUSH2 0x2AC3 PUSH2 0x602F JUMP JUMPDEST SWAP1 POP PUSH1 0x20 MUL ADD PUSH1 0x20 DUP2 ADD SWAP1 PUSH2 0x2AD8 SWAP2 SWAP1 PUSH2 0x5AA7 JUMP JUMPDEST PUSH1 0x1 PUSH1 0x1 PUSH1 0xA0 SHL SUB AND PUSH1 0x0 DUP1 MLOAD PUSH1 0x20 PUSH2 0x6136 DUP4 CODECOPY DUP2 MLOAD SWAP2 MSTORE DUP3 DUP7 DUP7 DUP7 DUP2 DUP2 LT PUSH2 0x2B03 JUMPI PUSH2 0x2B03 PUSH2 0x602F JUMP JUMPDEST SWAP1 POP PUSH1 0x20 MUL ADD CALLDATALOAD PUSH1 0x40 MLOAD PUSH2 0x2B18 SWAP3 SWAP2 SWAP1 PUSH2 0x5B2F JUMP JUMPDEST PUSH1 0x40 MLOAD DUP1 SWAP2 SUB SWAP1 LOG2 POP PUSH1 0x1 ADD PUSH2 0x29F5 JUMP JUMPDEST POP PUSH1 0x40 MLOAD DUP4 DUP2 MSTORE PUSH32 0x9C03D1F6BA485B6CF0A120117D651729467751D3079318D05171B6F389F6BF4B SWAP1 PUSH1 0x20 ADD JUMPDEST PUSH1 0x40 MLOAD DUP1 SWAP2 SUB SWAP1 LOG1 POP POP POP POP JUMP JUMPDEST PUSH1 0x13 PUSH1 0x20 MSTORE DUP2 PUSH1 0x0 MSTORE PUSH1 0x40 PUSH1 0x0 KECCAK256 DUP2 DUP2 SLOAD DUP2 LT PUSH2 0x2B80 JUMPI PUSH1 0x0 DUP1 REVERT JUMPDEST PUSH1 0x0 SWAP2 DUP3 MSTORE PUSH1 0x20 SWAP1 SWAP2 KECCAK256 PUSH1 0x2 SWAP1 SWAP2 MUL ADD DUP1 SLOAD PUSH1 0x1 SWAP1 SWAP2 ADD SLOAD PUSH1 0x1 PUSH1 0x1 PUSH1 0xA0 SHL SUB SWAP1 SWAP2 AND SWAP3 POP SWAP1 POP DUP3 JUMP JUMPDEST PUSH2 0x2BB2 PUSH2 0x3EC0 JUMP JUMPDEST PUSH1 0x1 PUSH1 0x1 PUSH1 0xA0 SHL SUB DUP5 AND ISZERO DUP1 ISZERO SWAP1 PUSH2 0x2BD2 JUMPI POP PUSH1 0x1 PUSH1 0x1 PUSH1 0xA0 SHL SUB DUP4 AND ISZERO ISZERO JUMPDEST DUP1 ISZERO PUSH2 0x2BE6 JUMPI POP PUSH1 0x1 PUSH1 0x1 PUSH1 0xA0 SHL SUB DUP3 AND ISZERO ISZERO JUMPDEST DUP1 ISZERO PUSH2 0x2BFA JUMPI POP PUSH1 0x1 PUSH1 0x1 PUSH1 0xA0 SHL SUB DUP2 AND ISZERO ISZERO JUMPDEST PUSH2 0x2C38 JUMPI PUSH1 0x40 MLOAD PUSH3 0x461BCD PUSH1 0xE5 SHL DUP2 MSTORE PUSH1 0x20 PUSH1 0x4 DUP3 ADD MSTORE PUSH1 0xF PUSH1 0x24 DUP3 ADD MSTORE PUSH15 0x496E76616C69642061646472657373 PUSH1 0x88 SHL PUSH1 0x44 DUP3 ADD MSTORE PUSH1 0x64 ADD PUSH2 0xF59 JUMP JUMPDEST PUSH1 0x2 DUP1 SLOAD PUSH1 0x1 PUSH1 0x1 PUSH1 0xA0 SHL SUB DUP7 DUP2 AND PUSH1 0x1 PUSH1 0x1 PUSH1 0xA0 SHL SUB NOT SWAP3 DUP4 AND DUP2 OR SWAP1 SWAP4 SSTORE PUSH1 0x3 DUP1 SLOAD DUP8 DUP4 AND SWAP1 DUP5 AND DUP2 OR SWAP1 SWAP2 SSTORE PUSH1 0x4 DUP1 SLOAD DUP8 DUP5 AND SWAP1 DUP6 AND DUP2 OR SWAP1 SWAP2 SSTORE PUSH1 0x5 DUP1 SLOAD SWAP4 DUP8 AND SWAP4 SWAP1 SWAP5 AND DUP4 OR SWAP1 SWAP4 SSTORE PUSH1 0x40 DUP1 MLOAD SWAP5 DUP6 MSTORE PUSH1 0x20 DUP6 ADD SWAP2 SWAP1 SWAP2 MSTORE DUP4 ADD SWAP2 SWAP1 SWAP2 MSTORE PUSH1 0x60 DUP3 ADD MSTORE PUSH32 0x213F1DE8063C19612A553F1480FF341BEA689D36A56A2089F1B9060D599B5D83 SWAP1 PUSH1 0x80 ADD PUSH2 0x2B56 JUMP JUMPDEST PUSH1 0x0 DUP1 PUSH2 0x2CD5 PUSH2 0x52DF JUMP JUMPDEST SLOAD PUSH1 0x1 PUSH1 0x1 PUSH1 0xA0 SHL SUB AND SWAP3 SWAP2 POP POP JUMP JUMPDEST PUSH2 0x2CED PUSH2 0x3EC0 JUMP JUMPDEST PUSH1 0xD DUP3 SWAP1 SSTORE PUSH1 0xE DUP2 SWAP1 SSTORE PUSH1 0x40 MLOAD PUSH32 0x4E9DD03193A0C81552FB8E6D32280F0D7E0CE8087241DC3D17EF3D193EE231D7 SWAP1 PUSH2 0xDE5 SWAP1 DUP5 SWAP1 DUP5 SWAP1 PUSH2 0x5B2F JUMP JUMPDEST PUSH2 0x2D31 PUSH2 0x3EC0 JUMP JUMPDEST DUP1 PUSH1 0x1F PUSH1 0x0 DUP3 DUP3 SLOAD PUSH2 0x2D43 SWAP2 SWAP1 PUSH2 0x6003 JUMP JUMPDEST SWAP1 SWAP2 SSTORE POP POP PUSH1 0x0 SLOAD PUSH1 0x40 MLOAD PUSH4 0xA9059CBB PUSH1 0xE0 SHL DUP2 MSTORE PUSH1 0x1 PUSH1 0x1 PUSH1 0xA0 SHL SUB SWAP1 SWAP2 AND SWAP1 PUSH4 0xA9059CBB SWAP1 PUSH2 0x2D7A SWAP1 DUP6 SWAP1 DUP6 SWAP1 PUSH1 0x4 ADD PUSH2 0x5CEC JUMP JUMPDEST PUSH1 0x20 PUSH1 0x40 MLOAD DUP1 DUP4 SUB DUP2 PUSH1 0x0 DUP8 GAS CALL ISZERO DUP1 ISZERO PUSH2 0x2D99 JUMPI RETURNDATASIZE PUSH1 0x0 DUP1 RETURNDATACOPY RETURNDATASIZE PUSH1 0x0 REVERT JUMPDEST POP POP POP POP PUSH1 0x40 MLOAD RETURNDATASIZE PUSH1 0x1F NOT PUSH1 0x1F DUP3 ADD AND DUP3 ADD DUP1 PUSH1 0x40 MSTORE POP DUP2 ADD SWAP1 PUSH2 0x2DBD SWAP2 SWAP1 PUSH2 0x5F84 JUMP JUMPDEST POP DUP2 PUSH1 0x1 PUSH1 0x1 PUSH1 0xA0 SHL SUB AND PUSH32 0x27971EE1ACBFBDFB20656657CEB2E0E7B519B9E60FE1A6B1F6D27B159F4A607C DUP3 PUSH1 0x40 MLOAD PUSH2 0x2DF9 SWAP2 DUP2 MSTORE PUSH1 0x20 ADD SWAP1 JUMP JUMPDEST PUSH1 0x40 MLOAD DUP1 SWAP2 SUB SWAP1 LOG2 POP POP JUMP JUMPDEST PUSH2 0x2E0D PUSH2 0x3EC0 JUMP JUMPDEST DUP2 ISZERO PUSH2 0x2EA3 JUMPI PUSH1 0x0 SLOAD PUSH1 0x40 MLOAD PUSH4 0x23B872DD PUSH1 0xE0 SHL DUP2 MSTORE PUSH1 0x1 PUSH1 0x1 PUSH1 0xA0 SHL SUB SWAP1 SWAP2 AND SWAP1 PUSH4 0x23B872DD SWAP1 PUSH2 0x2E47 SWAP1 CALLER SWAP1 ADDRESS SWAP1 DUP8 SWAP1 PUSH1 0x4 ADD PUSH2 0x5F60 JUMP JUMPDEST PUSH1 0x20 PUSH1 0x40 MLOAD DUP1 DUP4 SUB DUP2 PUSH1 0x0 DUP8 GAS CALL ISZERO DUP1 ISZERO PUSH2 0x2E66 JUMPI RETURNDATASIZE PUSH1 0x0 DUP1 RETURNDATACOPY RETURNDATASIZE PUSH1 0x0 REVERT JUMPDEST POP POP POP POP PUSH1 0x40 MLOAD RETURNDATASIZE PUSH1 0x1F NOT PUSH1 0x1F DUP3 ADD AND DUP3 ADD DUP1 PUSH1 0x40 MSTORE POP DUP2 ADD SWAP1 PUSH2 0x2E8A SWAP2 SWAP1 PUSH2 0x5F84 JUMP JUMPDEST POP DUP2 PUSH1 0x17 PUSH1 0x0 DUP3 DUP3 SLOAD PUSH2 0x2E9D SWAP2 SWAP1 PUSH2 0x5FCE JUMP JUMPDEST SWAP1 SWAP2 SSTORE POP POP JUMPDEST DUP1 ISZERO PUSH2 0x2F39 JUMPI PUSH1 0x1 SLOAD PUSH1 0x40 MLOAD PUSH4 0x23B872DD PUSH1 0xE0 SHL DUP2 MSTORE PUSH1 0x1 PUSH1 0x1 PUSH1 0xA0 SHL SUB SWAP1 SWAP2 AND SWAP1 PUSH4 0x23B872DD SWAP1 PUSH2 0x2EDD SWAP1 CALLER SWAP1 ADDRESS SWAP1 DUP7 SWAP1 PUSH1 0x4 ADD PUSH2 0x5F60 JUMP JUMPDEST PUSH1 0x20 PUSH1 0x40 MLOAD DUP1 DUP4 SUB DUP2 PUSH1 0x0 DUP8 GAS CALL ISZERO DUP1 ISZERO PUSH2 0x2EFC JUMPI RETURNDATASIZE PUSH1 0x0 DUP1 RETURNDATACOPY RETURNDATASIZE PUSH1 0x0 REVERT JUMPDEST POP POP POP POP PUSH1 0x40 MLOAD RETURNDATASIZE PUSH1 0x1F NOT PUSH1 0x1F DUP3 ADD AND DUP3 ADD DUP1 PUSH1 0x40 MSTORE POP DUP2 ADD SWAP1 PUSH2 0x2F20 SWAP2 SWAP1 PUSH2 0x5F84 JUMP JUMPDEST POP DUP1 PUSH1 0x18 PUSH1 0x0 DUP3 DUP3 SLOAD PUSH2 0x2F33 SWAP2 SWAP1 PUSH2 0x5FCE JUMP JUMPDEST SWAP1 SWAP2 SSTORE POP POP JUMPDEST PUSH32 0x38F8A0C92F4C5B0B6877F878CB4C0C8D348A47B76D716C8E78F425043DF9515B DUP3 DUP3 PUSH1 0x40 MLOAD PUSH2 0xDE5 SWAP3 SWAP2 SWAP1 PUSH2 0x5B2F JUMP JUMPDEST PUSH2 0x2F72 PUSH2 0x3EC0 JUMP JUMPDEST PUSH1 0x15 DUP2 SWAP1 SSTORE PUSH1 0x40 MLOAD DUP2 DUP2 MSTORE PUSH32 0xD28D9E4CE68D89AF7920CB8618E342A78F51E545C530CE60F1CB1D6F0235B47F SWAP1 PUSH1 0x20 ADD JUMPDEST PUSH1 0x40 MLOAD DUP1 SWAP2 SUB SWAP1 LOG1 POP JUMP JUMPDEST PUSH1 0x1D PUSH1 0x20 MSTORE DUP2 PUSH1 0x0 MSTORE PUSH1 0x40 PUSH1 0x0 KECCAK256 DUP2 DUP2 SLOAD DUP2 LT PUSH2 0x2B80 JUMPI PUSH1 0x0 DUP1 REVERT JUMPDEST PUSH1 0x11 PUSH1 0x20 MSTORE DUP2 PUSH1 0x0 MSTORE PUSH1 0x40 PUSH1 0x0 KECCAK256 DUP2 DUP2 SLOAD DUP2 LT PUSH2 0x2FE6 JUMPI PUSH1 0x0 DUP1 REVERT JUMPDEST PUSH1 0x0 SWAP2 DUP3 MSTORE PUSH1 0x20 SWAP1 SWAP2 KECCAK256 PUSH1 0x6 SWAP1 SWAP2 MUL ADD DUP1 SLOAD PUSH1 0x1 DUP3 ADD SLOAD PUSH1 0x2 DUP4 ADD SLOAD PUSH1 0x3 DUP5 ADD SLOAD PUSH1 0x4 DUP6 ADD SLOAD PUSH1 0x5 SWAP1 SWAP6 ADD SLOAD SWAP4 SWAP7 POP SWAP2 SWAP5 POP SWAP3 SWAP1 SWAP2 PUSH1 0xFF SWAP1 SWAP2 AND SWAP1 DUP7 JUMP JUMPDEST PUSH2 0x302C PUSH2 0x3EF2 JUMP JUMPDEST PUSH1 0x16 SLOAD PUSH2 0x100 SWAP1 DIV PUSH1 0xFF AND PUSH2 0x306E JUMPI PUSH1 0x40 MLOAD PUSH3 0x461BCD PUSH1 0xE5 SHL DUP2 MSTORE PUSH1 0x20 PUSH1 0x4 DUP3 ADD MSTORE PUSH1 0x8 PUSH1 0x24 DUP3 ADD MSTORE PUSH8 0x111A5CD8589B1959 PUSH1 0xC2 SHL PUSH1 0x44 DUP3 ADD MSTORE PUSH1 0x64 ADD PUSH2 0xF59 JUMP JUMPDEST CALLER PUSH1 0x0 SWAP1 DUP2 MSTORE PUSH1 0x11 PUSH1 0x20 MSTORE PUSH1 0x40 DUP2 KECCAK256 SWAP1 DUP1 DUP1 DUP1 JUMPDEST DUP5 SLOAD DUP2 LT ISZERO PUSH2 0x3404 JUMPI DUP5 DUP2 DUP2 SLOAD DUP2 LT PUSH2 0x309D JUMPI PUSH2 0x309D PUSH2 0x602F JUMP JUMPDEST PUSH1 0x0 SWAP2 DUP3 MSTORE PUSH1 0x20 SWAP1 SWAP2 KECCAK256 PUSH1 0x4 PUSH1 0x6 SWAP1 SWAP3 MUL ADD ADD SLOAD PUSH1 0xFF AND ISZERO PUSH2 0x33FC JUMPI PUSH1 0x0 PUSH1 0x3C DUP7 DUP4 DUP2 SLOAD DUP2 LT PUSH2 0x30CF JUMPI PUSH2 0x30CF PUSH2 0x602F JUMP JUMPDEST SWAP1 PUSH1 0x0 MSTORE PUSH1 0x20 PUSH1 0x0 KECCAK256 SWAP1 PUSH1 0x6 MUL ADD PUSH1 0x3 ADD SLOAD PUSH2 0x30EB SWAP2 SWAP1 PUSH2 0x5FB7 JUMP JUMPDEST DUP7 DUP4 DUP2 SLOAD DUP2 LT PUSH2 0x30FD JUMPI PUSH2 0x30FD PUSH2 0x602F JUMP JUMPDEST SWAP1 PUSH1 0x0 MSTORE PUSH1 0x20 PUSH1 0x0 KECCAK256 SWAP1 PUSH1 0x6 MUL ADD PUSH1 0x2 ADD SLOAD PUSH2 0x3119 SWAP2 SWAP1 PUSH2 0x5FCE JUMP JUMPDEST SWAP1 POP DUP1 TIMESTAMP LT PUSH2 0x33FA JUMPI PUSH1 0x0 DUP7 DUP4 DUP2 SLOAD DUP2 LT PUSH2 0x3136 JUMPI PUSH2 0x3136 PUSH2 0x602F JUMP JUMPDEST SWAP1 PUSH1 0x0 MSTORE PUSH1 0x20 PUSH1 0x0 KECCAK256 SWAP1 PUSH1 0x6 MUL ADD PUSH1 0x3 ADD SLOAD PUSH1 0x7 SUB PUSH2 0x3159 JUMPI POP PUSH3 0xCB7356 PUSH2 0x31C0 JUMP JUMPDEST DUP7 DUP4 DUP2 SLOAD DUP2 LT PUSH2 0x316B JUMPI PUSH2 0x316B PUSH2 0x602F JUMP JUMPDEST SWAP1 PUSH1 0x0 MSTORE PUSH1 0x20 PUSH1 0x0 KECCAK256 SWAP1 PUSH1 0x6 MUL ADD PUSH1 0x3 ADD SLOAD PUSH1 0xF SUB PUSH2 0x318E JUMPI POP PUSH3 0xFE502B PUSH2 0x31C0 JUMP JUMPDEST DUP7 DUP4 DUP2 SLOAD DUP2 LT PUSH2 0x31A0 JUMPI PUSH2 0x31A0 PUSH2 0x602F JUMP JUMPDEST SWAP1 PUSH1 0x0 MSTORE PUSH1 0x20 PUSH1 0x0 KECCAK256 SWAP1 PUSH1 0x6 MUL ADD PUSH1 0x3 ADD SLOAD PUSH1 0x1E SUB PUSH2 0x31C0 JUMPI POP PUSH4 0x1312D00 JUMPDEST PUSH1 0x0 PUSH4 0x3B9ACA00 DUP9 DUP6 DUP2 SLOAD DUP2 LT PUSH2 0x31D9 JUMPI PUSH2 0x31D9 PUSH2 0x602F JUMP JUMPDEST SWAP1 PUSH1 0x0 MSTORE PUSH1 0x20 PUSH1 0x0 KECCAK256 SWAP1 PUSH1 0x6 MUL ADD PUSH1 0x3 ADD SLOAD DUP4 DUP11 DUP8 DUP2 SLOAD DUP2 LT PUSH2 0x31FE JUMPI PUSH2 0x31FE PUSH2 0x602F JUMP JUMPDEST SWAP1 PUSH1 0x0 MSTORE PUSH1 0x20 PUSH1 0x0 KECCAK256 SWAP1 PUSH1 0x6 MUL ADD PUSH1 0x1 ADD SLOAD PUSH2 0x321A SWAP2 SWAP1 PUSH2 0x5FB7 JUMP JUMPDEST PUSH2 0x3224 SWAP2 SWAP1 PUSH2 0x5FB7 JUMP JUMPDEST PUSH2 0x322E SWAP2 SWAP1 PUSH2 0x5FE1 JUMP JUMPDEST SWAP1 POP PUSH1 0x0 DUP9 DUP6 DUP2 SLOAD DUP2 LT PUSH2 0x3244 JUMPI PUSH2 0x3244 PUSH2 0x602F JUMP JUMPDEST SWAP1 PUSH1 0x0 MSTORE PUSH1 0x20 PUSH1 0x0 KECCAK256 SWAP1 PUSH1 0x6 MUL ADD PUSH1 0x5 ADD SLOAD DUP3 GT ISZERO PUSH2 0x328F JUMPI DUP9 DUP6 DUP2 SLOAD DUP2 LT PUSH2 0x326F JUMPI PUSH2 0x326F PUSH2 0x602F JUMP JUMPDEST SWAP1 PUSH1 0x0 MSTORE PUSH1 0x20 PUSH1 0x0 KECCAK256 SWAP1 PUSH1 0x6 MUL ADD PUSH1 0x5 ADD SLOAD DUP3 PUSH2 0x328C SWAP2 SWAP1 PUSH2 0x6003 JUMP JUMPDEST SWAP1 POP JUMPDEST PUSH2 0x3299 DUP2 DUP8 PUSH2 0x5FCE JUMP JUMPDEST SWAP6 POP DUP1 DUP10 DUP7 DUP2 SLOAD DUP2 LT PUSH2 0x32AE JUMPI PUSH2 0x32AE PUSH2 0x602F JUMP JUMPDEST SWAP1 PUSH1 0x0 MSTORE PUSH1 0x20 PUSH1 0x0 KECCAK256 SWAP1 PUSH1 0x6 MUL ADD PUSH1 0x5 ADD PUSH1 0x0 DUP3 DUP3 SLOAD PUSH2 0x32CE SWAP2 SWAP1 PUSH2 0x5FCE JUMP JUMPDEST SWAP1 SWAP2 SSTORE POP POP CALLER PUSH1 0x0 SWAP1 DUP2 MSTORE PUSH1 0xF PUSH1 0x20 MSTORE PUSH1 0x40 DUP2 KECCAK256 PUSH1 0x9 ADD SLOAD SWAP1 DUP2 SWAP1 SUB PUSH2 0x3303 JUMPI POP CALLER PUSH1 0x0 SWAP1 DUP2 MSTORE PUSH1 0x10 PUSH1 0x20 MSTORE PUSH1 0x40 SWAP1 KECCAK256 PUSH1 0x1 ADD SLOAD JUMPDEST PUSH1 0x0 PUSH1 0x64 PUSH1 0xC SLOAD DUP4 PUSH2 0x3315 SWAP2 SWAP1 PUSH2 0x5FB7 JUMP JUMPDEST PUSH2 0x331F SWAP2 SWAP1 PUSH2 0x5FE1 JUMP JUMPDEST SWAP1 POP PUSH1 0x0 DUP12 DUP9 DUP2 SLOAD DUP2 LT PUSH2 0x3335 JUMPI PUSH2 0x3335 PUSH2 0x602F JUMP JUMPDEST SWAP1 PUSH1 0x0 MSTORE PUSH1 0x20 PUSH1 0x0 KECCAK256 SWAP1 PUSH1 0x6 MUL ADD PUSH1 0x1 ADD SLOAD SWAP1 POP DUP2 DUP2 GT ISZERO PUSH2 0x336E JUMPI PUSH2 0x335B DUP3 DUP3 PUSH2 0x6003 JUMP JUMPDEST SWAP1 POP PUSH2 0x3367 DUP3 DUP12 PUSH2 0x5FCE JUMP JUMPDEST SWAP10 POP PUSH2 0x337F JUMP JUMPDEST PUSH2 0x3378 DUP2 DUP12 PUSH2 0x5FCE JUMP JUMPDEST SWAP10 POP PUSH1 0x0 SWAP1 POP JUMPDEST PUSH2 0x3389 DUP2 DUP13 PUSH2 0x5FCE JUMP JUMPDEST SWAP11 POP PUSH1 0x0 DUP13 DUP10 DUP2 SLOAD DUP2 LT PUSH2 0x339F JUMPI PUSH2 0x339F PUSH2 0x602F JUMP JUMPDEST SWAP1 PUSH1 0x0 MSTORE PUSH1 0x20 PUSH1 0x0 KECCAK256 SWAP1 PUSH1 0x6 MUL ADD PUSH1 0x4 ADD PUSH1 0x0 PUSH2 0x100 EXP DUP2 SLOAD DUP2 PUSH1 0xFF MUL NOT AND SWAP1 DUP4 ISZERO ISZERO MUL OR SWAP1 SSTORE POP PUSH2 0x33F3 DUP13 DUP10 DUP2 SLOAD DUP2 LT PUSH2 0x33DC JUMPI PUSH2 0x33DC PUSH2 0x602F JUMP JUMPDEST SWAP1 PUSH1 0x0 MSTORE PUSH1 0x20 PUSH1 0x0 KECCAK256 SWAP1 PUSH1 0x6 MUL ADD PUSH1 0x0 ADD SLOAD PUSH2 0x5303 JUMP JUMPDEST POP POP POP POP POP POP JUMPDEST POP JUMPDEST PUSH1 0x1 ADD PUSH2 0x3082 JUMP JUMPDEST POP PUSH1 0x0 DUP4 GT DUP1 PUSH2 0x3414 JUMPI POP PUSH1 0x0 DUP2 GT JUMPDEST PUSH2 0x3454 JUMPI PUSH1 0x40 MLOAD PUSH3 0x461BCD PUSH1 0xE5 SHL DUP2 MSTORE PUSH1 0x20 PUSH1 0x4 DUP3 ADD MSTORE PUSH1 0x11 PUSH1 0x24 DUP3 ADD MSTORE PUSH17 0x4E6F7468696E6720746F2072656465656D PUSH1 0x78 SHL PUSH1 0x44 DUP3 ADD MSTORE PUSH1 0x64 ADD PUSH2 0xF59 JUMP JUMPDEST DUP2 ISZERO PUSH2 0x3472 JUMPI DUP2 PUSH1 0x17 PUSH1 0x0 DUP3 DUP3 SLOAD PUSH2 0x346C SWAP2 SWAP1 PUSH2 0x5FCE JUMP JUMPDEST SWAP1 SWAP2 SSTORE POP POP JUMPDEST DUP1 ISZERO PUSH2 0x37CD JUMPI CALLER PUSH1 0x0 SWAP1 DUP2 MSTORE PUSH1 0xF PUSH1 0x20 MSTORE PUSH1 0x40 DUP2 KECCAK256 PUSH1 0x3 DUP2 ADD SLOAD PUSH1 0x4 SWAP1 SWAP2 ADD SLOAD PUSH2 0x349C SWAP2 SWAP1 PUSH2 0x6003 JUMP JUMPDEST SWAP1 POP DUP1 DUP3 GT ISZERO PUSH2 0x34DB JUMPI CALLER PUSH1 0x1 PUSH1 0x1 PUSH1 0xA0 SHL SUB AND PUSH1 0x0 DUP1 MLOAD PUSH1 0x20 PUSH2 0x6176 DUP4 CODECOPY DUP2 MLOAD SWAP2 MSTORE DUP4 DUP4 PUSH1 0x40 MLOAD PUSH2 0x34CF SWAP3 SWAP2 SWAP1 PUSH2 0x5B2F JUMP JUMPDEST PUSH1 0x40 MLOAD DUP1 SWAP2 SUB SWAP1 LOG2 DUP1 SWAP2 POP JUMPDEST DUP2 ISZERO PUSH2 0x37CB JUMPI CALLER PUSH1 0x0 SWAP1 DUP2 MSTORE PUSH1 0xF PUSH1 0x20 MSTORE PUSH1 0x40 DUP2 KECCAK256 PUSH1 0x3 ADD DUP1 SLOAD DUP5 SWAP3 SWAP1 PUSH2 0x3503 SWAP1 DUP5 SWAP1 PUSH2 0x5FCE JUMP JUMPDEST SWAP1 SWAP2 SSTORE POP PUSH1 0x0 SWAP1 POP PUSH2 0x3516 PUSH1 0x2 DUP5 PUSH2 0x5FE1 JUMP JUMPDEST SWAP1 POP PUSH1 0x0 PUSH2 0x3525 PUSH1 0x2 DUP6 PUSH2 0x5FE1 JUMP JUMPDEST PUSH1 0x0 DUP1 SLOAD PUSH1 0x40 MLOAD PUSH4 0x70A08231 PUSH1 0xE0 SHL DUP2 MSTORE SWAP3 SWAP4 POP SWAP1 SWAP2 DUP5 SWAP2 PUSH1 0x1 PUSH1 0x1 PUSH1 0xA0 SHL SUB AND SWAP1 PUSH4 0x70A08231 SWAP1 PUSH2 0x355B SWAP1 ADDRESS SWAP1 PUSH1 0x4 ADD PUSH2 0x5AEC JUMP JUMPDEST PUSH1 0x20 PUSH1 0x40 MLOAD DUP1 DUP4 SUB DUP2 DUP7 GAS STATICCALL ISZERO DUP1 ISZERO PUSH2 0x3578 JUMPI RETURNDATASIZE PUSH1 0x0 DUP1 RETURNDATACOPY RETURNDATASIZE PUSH1 0x0 REVERT JUMPDEST POP POP POP POP PUSH1 0x40 MLOAD RETURNDATASIZE PUSH1 0x1F NOT PUSH1 0x1F DUP3 ADD AND DUP3 ADD DUP1 PUSH1 0x40 MSTORE POP DUP2 ADD SWAP1 PUSH2 0x359C SWAP2 SWAP1 PUSH2 0x6016 JUMP JUMPDEST LT ISZERO DUP1 ISZERO PUSH2 0x35AA JUMPI POP PUSH1 0x0 DUP4 GT JUMPDEST ISZERO PUSH2 0x3629 JUMPI PUSH1 0x0 SLOAD PUSH1 0x40 MLOAD PUSH4 0xA9059CBB PUSH1 0xE0 SHL DUP2 MSTORE PUSH1 0x1 PUSH1 0x1 PUSH1 0xA0 SHL SUB SWAP1 SWAP2 AND SWAP1 PUSH4 0xA9059CBB SWAP1 PUSH2 0x35E1 SWAP1 CALLER SWAP1 DUP8 SWAP1 PUSH1 0x4 ADD PUSH2 0x5CEC JUMP JUMPDEST PUSH1 0x20 PUSH1 0x40 MLOAD DUP1 DUP4 SUB DUP2 PUSH1 0x0 DUP8 GAS CALL ISZERO DUP1 ISZERO PUSH2 0x3600 JUMPI RETURNDATASIZE PUSH1 0x0 DUP1 RETURNDATACOPY RETURNDATASIZE PUSH1 0x0 REVERT JUMPDEST POP POP POP POP PUSH1 0x40 MLOAD RETURNDATASIZE PUSH1 0x1F NOT PUSH1 0x1F DUP3 ADD AND DUP3 ADD DUP1 PUSH1 0x40 MSTORE POP DUP2 ADD SWAP1 PUSH2 0x3624 SWAP2 SWAP1 PUSH2 0x5F84 JUMP JUMPDEST POP DUP3 SWAP1 POP JUMPDEST PUSH1 0x0 PUSH2 0x3633 PUSH2 0x1986 JUMP JUMPDEST SWAP1 POP PUSH1 0x0 DUP2 PUSH2 0x364A DUP6 PUSH8 0xDE0B6B3A7640000 PUSH2 0x5FB7 JUMP JUMPDEST PUSH2 0x3654 SWAP2 SWAP1 PUSH2 0x5FE1 JUMP JUMPDEST PUSH1 0x1 SLOAD PUSH1 0x40 MLOAD PUSH4 0x70A08231 PUSH1 0xE0 SHL DUP2 MSTORE SWAP2 SWAP3 POP PUSH1 0x0 SWAP2 DUP4 SWAP2 PUSH1 0x1 PUSH1 0x1 PUSH1 0xA0 SHL SUB AND SWAP1 PUSH4 0x70A08231 SWAP1 PUSH2 0x368A SWAP1 ADDRESS SWAP1 PUSH1 0x4 ADD PUSH2 0x5AEC JUMP JUMPDEST PUSH1 0x20 PUSH1 0x40 MLOAD DUP1 DUP4 SUB DUP2 DUP7 GAS STATICCALL ISZERO DUP1 ISZERO PUSH2 0x36A7 JUMPI RETURNDATASIZE PUSH1 0x0 DUP1 RETURNDATACOPY RETURNDATASIZE PUSH1 0x0 REVERT JUMPDEST POP POP POP POP PUSH1 0x40 MLOAD RETURNDATASIZE PUSH1 0x1F NOT PUSH1 0x1F DUP3 ADD AND DUP3 ADD DUP1 PUSH1 0x40 MSTORE POP DUP2 ADD SWAP1 PUSH2 0x36CB SWAP2 SWAP1 PUSH2 0x6016 JUMP JUMPDEST LT ISZERO DUP1 ISZERO PUSH2 0x36D9 JUMPI POP PUSH1 0x0 DUP3 GT JUMPDEST ISZERO PUSH2 0x3758 JUMPI PUSH1 0x1 SLOAD PUSH1 0x40 MLOAD PUSH4 0xA9059CBB PUSH1 0xE0 SHL DUP2 MSTORE PUSH1 0x1 PUSH1 0x1 PUSH1 0xA0 SHL SUB SWAP1 SWAP2 AND SWAP1 PUSH4 0xA9059CBB SWAP1 PUSH2 0x3710 SWAP1 CALLER SWAP1 DUP7 SWAP1 PUSH1 0x4 ADD PUSH2 0x5CEC JUMP JUMPDEST PUSH1 0x20 PUSH1 0x40 MLOAD DUP1 DUP4 SUB DUP2 PUSH1 0x0 DUP8 GAS CALL ISZERO DUP1 ISZERO PUSH2 0x372F JUMPI RETURNDATASIZE PUSH1 0x0 DUP1 RETURNDATACOPY RETURNDATASIZE PUSH1 0x0 REVERT JUMPDEST POP POP POP POP PUSH1 0x40 MLOAD RETURNDATASIZE PUSH1 0x1F NOT PUSH1 0x1F DUP3 ADD AND DUP3 ADD DUP1 PUSH1 0x40 MSTORE POP DUP2 ADD SWAP1 PUSH2 0x3753 SWAP2 SWAP1 PUSH2 0x5F84 JUMP JUMPDEST POP DUP2 SWAP1 POP JUMPDEST CALLER PUSH1 0x1 PUSH1 0x1 PUSH1 0xA0 SHL SUB AND PUSH1 0x0 DUP1 MLOAD PUSH1 0x20 PUSH2 0x6196 DUP4 CODECOPY DUP2 MLOAD SWAP2 MSTORE DUP10 PUSH1 0x0 PUSH1 0x40 MLOAD PUSH2 0x3782 SWAP3 SWAP2 SWAP1 PUSH2 0x6045 JUMP JUMPDEST PUSH1 0x40 MLOAD DUP1 SWAP2 SUB SWAP1 LOG2 CALLER PUSH1 0x0 DUP2 DUP2 MSTORE PUSH1 0x10 PUSH1 0x20 MSTORE PUSH1 0x40 DUP1 DUP3 KECCAK256 SLOAD SWAP1 MLOAD PUSH1 0x0 DUP1 MLOAD PUSH1 0x20 PUSH2 0x6116 DUP4 CODECOPY DUP2 MLOAD SWAP2 MSTORE SWAP3 PUSH2 0x37BC SWAP3 DUP10 SWAP3 DUP8 SWAP3 SWAP2 SWAP1 PUSH2 0x6056 JUMP JUMPDEST PUSH1 0x40 MLOAD DUP1 SWAP2 SUB SWAP1 LOG2 POP POP POP POP POP POP JUMPDEST POP JUMPDEST DUP3 ISZERO PUSH2 0x384A JUMPI PUSH1 0x0 SLOAD PUSH1 0x40 MLOAD PUSH4 0xA9059CBB PUSH1 0xE0 SHL DUP2 MSTORE PUSH1 0x1 PUSH1 0x1 PUSH1 0xA0 SHL SUB SWAP1 SWAP2 AND SWAP1 PUSH4 0xA9059CBB SWAP1 PUSH2 0x3805 SWAP1 CALLER SWAP1 DUP8 SWAP1 PUSH1 0x4 ADD PUSH2 0x5CEC JUMP JUMPDEST PUSH1 0x20 PUSH1 0x40 MLOAD DUP1 DUP4 SUB DUP2 PUSH1 0x0 DUP8 GAS CALL ISZERO DUP1 ISZERO PUSH2 0x3824 JUMPI RETURNDATASIZE PUSH1 0x0 DUP1 RETURNDATACOPY RETURNDATASIZE PUSH1 0x0 REVERT JUMPDEST POP POP POP POP PUSH1 0x40 MLOAD RETURNDATASIZE PUSH1 0x1F NOT PUSH1 0x1F DUP3 ADD AND DUP3 ADD DUP1 PUSH1 0x40 MSTORE POP DUP2 ADD SWAP1 PUSH2 0x3848 SWAP2 SWAP1 PUSH2 0x5F84 JUMP JUMPDEST POP JUMPDEST CALLER PUSH1 0x1 PUSH1 0x1 PUSH1 0xA0 SHL SUB AND PUSH1 0x0 DUP1 MLOAD PUSH1 0x20 PUSH2 0x61B6 DUP4 CODECOPY DUP2 MLOAD SWAP2 MSTORE DUP5 DUP5 PUSH1 0x40 MLOAD PUSH2 0x3873 SWAP3 SWAP2 SWAP1 PUSH2 0x5B2F JUMP JUMPDEST PUSH1 0x40 MLOAD DUP1 SWAP2 SUB SWAP1 LOG2 PUSH2 0x3884 CALLER PUSH2 0x46C6 JUMP JUMPDEST CALLER PUSH1 0x0 SWAP1 DUP2 MSTORE PUSH1 0xF PUSH1 0x20 MSTORE PUSH1 0x40 SWAP1 KECCAK256 PUSH1 0x4 DUP2 ADD SLOAD PUSH1 0x3 SWAP1 SWAP2 ADD SLOAD LT PUSH2 0x38AC JUMPI PUSH2 0x38AC CALLER PUSH2 0x3F39 JUMP JUMPDEST POP POP POP POP PUSH2 0x1984 PUSH2 0x3F28 JUMP JUMPDEST PUSH1 0x0 PUSH2 0x38C2 PUSH2 0x54CA JUMP JUMPDEST DUP1 SLOAD SWAP1 SWAP2 POP PUSH1 0xFF PUSH1 0x1 PUSH1 0x40 SHL DUP3 DIV AND ISZERO SWAP1 PUSH1 0x1 PUSH1 0x1 PUSH1 0x40 SHL SUB AND PUSH1 0x0 DUP2 ISZERO DUP1 ISZERO PUSH2 0x38E9 JUMPI POP DUP3 JUMPDEST SWAP1 POP PUSH1 0x0 DUP3 PUSH1 0x1 PUSH1 0x1 PUSH1 0x40 SHL SUB AND PUSH1 0x1 EQ DUP1 ISZERO PUSH2 0x3905 JUMPI POP ADDRESS EXTCODESIZE ISZERO JUMPDEST SWAP1 POP DUP2 ISZERO DUP1 ISZERO PUSH2 0x3913 JUMPI POP DUP1 ISZERO JUMPDEST ISZERO PUSH2 0x3931 JUMPI PUSH1 0x40 MLOAD PUSH4 0xF92EE8A9 PUSH1 0xE0 SHL DUP2 MSTORE PUSH1 0x4 ADD PUSH1 0x40 MLOAD DUP1 SWAP2 SUB SWAP1 REVERT JUMPDEST DUP5 SLOAD PUSH1 0x1 PUSH1 0x1 PUSH1 0x40 SHL SUB NOT AND PUSH1 0x1 OR DUP6 SSTORE DUP4 ISZERO PUSH2 0x395A JUMPI DUP5 SLOAD PUSH1 0xFF PUSH1 0x40 SHL NOT AND PUSH1 0x1 PUSH1 0x40 SHL OR DUP6 SSTORE JUMPDEST PUSH2 0x3963 CALLER PUSH2 0x54F5 JUMP JUMPDEST PUSH2 0x396B PUSH2 0x5506 JUMP JUMPDEST PUSH2 0x3973 PUSH2 0x550E JUMP JUMPDEST PUSH1 0x0 DUP1 SLOAD PUSH1 0x1 PUSH1 0x1 PUSH1 0xA0 SHL SUB NOT SWAP1 DUP2 AND PUSH1 0x1 PUSH1 0x1 PUSH1 0xA0 SHL SUB DUP15 DUP2 AND SWAP2 SWAP1 SWAP2 OR SWAP1 SWAP3 SSTORE PUSH1 0x1 DUP1 SLOAD DUP3 AND DUP14 DUP5 AND OR DUP2 SSTORE PUSH1 0x2 DUP1 SLOAD DUP4 AND DUP14 DUP6 AND OR SWAP1 SSTORE PUSH1 0x3 DUP1 SLOAD DUP4 AND DUP13 DUP6 AND OR SWAP1 SSTORE PUSH1 0x4 DUP1 SLOAD DUP4 AND DUP12 DUP6 AND OR SWAP1 SSTORE PUSH1 0x5 DUP1 SLOAD SWAP1 SWAP3 AND SWAP3 DUP10 AND SWAP3 SWAP1 SWAP3 OR DUP2 SSTORE PUSH1 0x19 PUSH1 0x6 DUP2 SWAP1 SSTORE PUSH1 0xF PUSH1 0x7 SSTORE PUSH1 0x8 DUP3 SWAP1 SSTORE PUSH1 0x9 SWAP2 SWAP1 SWAP2 SSTORE PUSH1 0xA DUP2 SWAP1 SSTORE PUSH1 0xB DUP2 SWAP1 SSTORE PUSH1 0xC SWAP2 SWAP1 SWAP2 SSTORE PUSH1 0x32 PUSH1 0xD SSTORE PUSH1 0xE SSTORE PUSH3 0x3F480 PUSH1 0x15 SSTORE PUSH1 0x16 DUP1 SLOAD PUSH2 0xFFFF NOT AND PUSH2 0x101 OR SWAP1 SSTORE TIMESTAMP PUSH1 0x1B SSTORE DUP4 ISZERO PUSH2 0x3A64 JUMPI DUP5 SLOAD PUSH1 0xFF PUSH1 0x40 SHL NOT AND DUP6 SSTORE PUSH1 0x40 MLOAD PUSH1 0x1 DUP2 MSTORE PUSH32 0xC7F505B2F371AE2175EE4913F4499E1F2633A7B5936321EED1CDAEB6115181D2 SWAP1 PUSH1 0x20 ADD PUSH1 0x40 MLOAD DUP1 SWAP2 SUB SWAP1 LOG1 JUMPDEST POP POP POP POP POP POP POP POP POP POP POP JUMP JUMPDEST PUSH2 0x3A79 PUSH2 0x3EC0 JUMP JUMPDEST PUSH1 0x0 SLOAD PUSH1 0x1 PUSH1 0x1 PUSH1 0xA0 SHL SUB DUP5 DUP2 AND SWAP2 AND EQ DUP1 ISZERO SWAP1 PUSH2 0x3AA5 JUMPI POP PUSH1 0x1 SLOAD PUSH1 0x1 PUSH1 0x1 PUSH1 0xA0 SHL SUB DUP5 DUP2 AND SWAP2 AND EQ ISZERO JUMPDEST PUSH2 0x3AF1 JUMPI PUSH1 0x40 MLOAD PUSH3 0x461BCD PUSH1 0xE5 SHL DUP2 MSTORE PUSH1 0x20 PUSH1 0x4 DUP3 ADD MSTORE PUSH1 0x1D PUSH1 0x24 DUP3 ADD MSTORE PUSH32 0x43616E6E6F74207265736375652070726F746F636F6C20746F6B656E73000000 PUSH1 0x44 DUP3 ADD MSTORE PUSH1 0x64 ADD PUSH2 0xF59 JUMP JUMPDEST PUSH1 0x1 PUSH1 0x1 PUSH1 0xA0 SHL SUB DUP3 AND PUSH2 0x3B3B JUMPI PUSH1 0x40 MLOAD PUSH3 0x461BCD PUSH1 0xE5 SHL DUP2 MSTORE PUSH1 0x20 PUSH1 0x4 DUP3 ADD MSTORE PUSH1 0x11 PUSH1 0x24 DUP3 ADD MSTORE PUSH17 0x125B9D985B1A59081C9958DA5C1A595B9D PUSH1 0x7A SHL PUSH1 0x44 DUP3 ADD MSTORE PUSH1 0x64 ADD PUSH2 0xF59 JUMP JUMPDEST PUSH1 0x40 MLOAD PUSH4 0xA9059CBB PUSH1 0xE0 SHL DUP2 MSTORE PUSH1 0x1 PUSH1 0x1 PUSH1 0xA0 SHL SUB DUP5 AND SWAP1 PUSH4 0xA9059CBB SWAP1 PUSH2 0x3B69 SWAP1 DUP6 SWAP1 DUP6 SWAP1 PUSH1 0x4 ADD PUSH2 0x5CEC JUMP JUMPDEST PUSH1 0x20 PUSH1 0x40 MLOAD DUP1 DUP4 SUB DUP2 PUSH1 0x0 DUP8 GAS CALL ISZERO DUP1 ISZERO PUSH2 0x3B88 JUMPI RETURNDATASIZE PUSH1 0x0 DUP1 RETURNDATACOPY RETURNDATASIZE PUSH1 0x0 REVERT JUMPDEST POP POP POP POP PUSH1 0x40 MLOAD RETURNDATASIZE PUSH1 0x1F NOT PUSH1 0x1F DUP3 ADD AND DUP3 ADD DUP1 PUSH1 0x40 MSTORE POP DUP2 ADD SWAP1 PUSH2 0x3BAC SWAP2 SWAP1 PUSH2 0x5F84 JUMP JUMPDEST POP PUSH32 0x77023E19C7343AD491FD706C36335CA0E738340A91F29B1FD81E2673D44896C4 DUP4 DUP4 DUP4 PUSH1 0x40 MLOAD PUSH2 0x3BE0 SWAP4 SWAP3 SWAP2 SWAP1 PUSH2 0x5F60 JUMP JUMPDEST PUSH1 0x40 MLOAD DUP1 SWAP2 SUB SWAP1 LOG1 POP POP POP JUMP JUMPDEST PUSH2 0x3BF5 PUSH2 0x3EC0 JUMP JUMPDEST PUSH1 0x6 DUP7 SWAP1 SSTORE PUSH1 0x7 DUP6 SWAP1 SSTORE PUSH1 0x8 DUP5 SWAP1 SSTORE PUSH1 0x9 DUP4 SWAP1 SSTORE PUSH1 0xA DUP3 SWAP1 SSTORE PUSH1 0xB DUP2 SWAP1 SSTORE PUSH1 0x40 DUP1 MLOAD DUP8 DUP2 MSTORE PUSH1 0x20 DUP2 ADD DUP8 SWAP1 MSTORE SWAP1 DUP2 ADD DUP6 SWAP1 MSTORE PUSH1 0x60 DUP2 ADD DUP5 SWAP1 MSTORE PUSH1 0x80 DUP2 ADD DUP4 SWAP1 MSTORE PUSH1 0xA0 DUP2 ADD DUP3 SWAP1 MSTORE PUSH32 0x66682B276E4CD1A4E1F68B55B1143766C5332F472EB593CF2A70A25D9D5D9917 SWAP1 PUSH1 0xC0 ADD PUSH1 0x40 MLOAD DUP1 SWAP2 SUB SWAP1 LOG1 POP POP POP POP POP POP JUMP JUMPDEST PUSH1 0x1 PUSH1 0x1 PUSH1 0xA0 SHL SUB DUP2 AND PUSH1 0x0 SWAP1 DUP2 MSTORE PUSH1 0x12 PUSH1 0x20 SWAP1 DUP2 MSTORE PUSH1 0x40 SWAP2 DUP3 SWAP1 KECCAK256 DUP1 SLOAD DUP4 MLOAD DUP2 DUP5 MUL DUP2 ADD DUP5 ADD SWAP1 SWAP5 MSTORE DUP1 DUP5 MSTORE PUSH1 0x60 SWAP4 SWAP3 DUP4 ADD DUP3 DUP3 DUP1 ISZERO PUSH2 0x3CDB JUMPI PUSH1 0x20 MUL DUP3 ADD SWAP2 SWAP1 PUSH1 0x0 MSTORE PUSH1 0x20 PUSH1 0x0 KECCAK256 SWAP1 JUMPDEST DUP2 SLOAD PUSH1 0x1 PUSH1 0x1 PUSH1 0xA0 SHL SUB AND DUP2 MSTORE PUSH1 0x1 SWAP1 SWAP2 ADD SWAP1 PUSH1 0x20 ADD DUP1 DUP4 GT PUSH2 0x3CBD JUMPI JUMPDEST POP POP POP POP POP SWAP1 POP SWAP2 SWAP1 POP JUMP JUMPDEST PUSH2 0x3CEF PUSH2 0x3EC0 JUMP JUMPDEST DUP3 ISZERO PUSH2 0x3D83 JUMPI DUP3 PUSH1 0x17 PUSH1 0x0 DUP3 DUP3 SLOAD PUSH2 0x3D07 SWAP2 SWAP1 PUSH2 0x6003 JUMP JUMPDEST SWAP1 SWAP2 SSTORE POP POP PUSH1 0x0 SLOAD PUSH1 0x40 MLOAD PUSH4 0xA9059CBB PUSH1 0xE0 SHL DUP2 MSTORE PUSH1 0x1 PUSH1 0x1 PUSH1 0xA0 SHL SUB SWAP1 SWAP2 AND SWAP1 PUSH4 0xA9059CBB SWAP1 PUSH2 0x3D3E SWAP1 DUP8 SWAP1 DUP8 SWAP1 PUSH1 0x4 ADD PUSH2 0x5CEC JUMP JUMPDEST PUSH1 0x20 PUSH1 0x40 MLOAD DUP1 DUP4 SUB DUP2 PUSH1 0x0 DUP8 GAS CALL ISZERO DUP1 ISZERO PUSH2 0x3D5D JUMPI RETURNDATASIZE PUSH1 0x0 DUP1 RETURNDATACOPY RETURNDATASIZE PUSH1 0x0 REVERT JUMPDEST POP POP POP POP PUSH1 0x40 MLOAD RETURNDATASIZE PUSH1 0x1F NOT PUSH1 0x1F DUP3 ADD AND DUP3 ADD DUP1 PUSH1 0x40 MSTORE POP DUP2 ADD SWAP1 PUSH2 0x3D81 SWAP2 SWAP1 PUSH2 0x5F84 JUMP JUMPDEST POP JUMPDEST DUP1 ISZERO PUSH2 0x3E17 JUMPI DUP1 PUSH1 0x18 PUSH1 0x0 DUP3 DUP3 SLOAD PUSH2 0x3D9B SWAP2 SWAP1 PUSH2 0x6003 JUMP JUMPDEST SWAP1 SWAP2 SSTORE POP POP PUSH1 0x1 SLOAD PUSH1 0x40 MLOAD PUSH4 0xA9059CBB PUSH1 0xE0 SHL DUP2 MSTORE PUSH1 0x1 PUSH1 0x1 PUSH1 0xA0 SHL SUB SWAP1 SWAP2 AND SWAP1 PUSH4 0xA9059CBB SWAP1 PUSH2 0x3DD2 SWAP1 DUP6 SWAP1 DUP6 SWAP1 PUSH1 0x4 ADD PUSH2 0x5CEC JUMP JUMPDEST PUSH1 0x20 PUSH1 0x40 MLOAD DUP1 DUP4 SUB DUP2 PUSH1 0x0 DUP8 GAS CALL ISZERO DUP1 ISZERO PUSH2 0x3DF1 JUMPI RETURNDATASIZE PUSH1 0x0 DUP1 RETURNDATACOPY RETURNDATASIZE PUSH1 0x0 REVERT JUMPDEST POP POP POP POP PUSH1 0x40 MLOAD RETURNDATASIZE PUSH1 0x1F NOT PUSH1 0x1F DUP3 ADD AND DUP3 ADD DUP1 PUSH1 0x40 MSTORE POP DUP2 ADD SWAP1 PUSH2 0x3E15 SWAP2 SWAP1 PUSH2 0x5F84 JUMP JUMPDEST POP JUMPDEST PUSH32 0x520BC217D25EF4588524228DFFCFA518F4AD52178C71D49B8061D016213CD311 DUP4 DUP3 PUSH1 0x40 MLOAD PUSH2 0x2B56 SWAP3 SWAP2 SWAP1 PUSH2 0x5B2F JUMP JUMPDEST PUSH2 0x3E50 PUSH2 0x3EC0 JUMP JUMPDEST PUSH1 0xC DUP2 SWAP1 SSTORE PUSH1 0x40 MLOAD DUP2 DUP2 MSTORE PUSH32 0xC7F6975DCFFC536E6E57DD1D1DEA810FFF534A70563BAF2D6F977B119BD00E1B SWAP1 PUSH1 0x20 ADD PUSH2 0x2FA3 JUMP JUMPDEST PUSH2 0x3E8D PUSH2 0x3EC0 JUMP JUMPDEST PUSH1 0x1 PUSH1 0x1 PUSH1 0xA0 SHL SUB DUP2 AND PUSH2 0x3EB7 JUMPI PUSH1 0x0 PUSH1 0x40 MLOAD PUSH4 0x1E4FBDF7 PUSH1 0xE0 SHL DUP2 MSTORE PUSH1 0x4 ADD PUSH2 0xF59 SWAP2 SWAP1 PUSH2 0x5AEC JUMP JUMPDEST PUSH2 0x12C6 DUP2 PUSH2 0x5283 JUMP JUMPDEST CALLER PUSH2 0x3EC9 PUSH2 0x2CCA JUMP JUMPDEST PUSH1 0x1 PUSH1 0x1 PUSH1 0xA0 SHL SUB AND EQ PUSH2 0x1984 JUMPI CALLER PUSH1 0x40 MLOAD PUSH4 0x118CDAA7 PUSH1 0xE0 SHL DUP2 MSTORE PUSH1 0x4 ADD PUSH2 0xF59 SWAP2 SWAP1 PUSH2 0x5AEC JUMP JUMPDEST PUSH1 0x0 PUSH2 0x3EFC PUSH2 0x551E JUMP JUMPDEST DUP1 SLOAD SWAP1 SWAP2 POP PUSH1 0x1 NOT ADD PUSH2 0x3F22 JUMPI PUSH1 0x40 MLOAD PUSH4 0x3EE5AEB5 PUSH1 0xE0 SHL DUP2 MSTORE PUSH1 0x4 ADD PUSH1 0x40 MLOAD DUP1 SWAP2 SUB SWAP1 REVERT JUMPDEST PUSH1 0x2 SWAP1 SSTORE JUMP JUMPDEST PUSH1 0x0 PUSH2 0x3F32 PUSH2 0x551E JUMP JUMPDEST PUSH1 0x1 SWAP1 SSTORE POP JUMP JUMPDEST PUSH1 0x1 PUSH1 0x1 PUSH1 0xA0 SHL SUB DUP2 AND PUSH1 0x0 SWAP1 DUP2 MSTORE PUSH1 0x10 PUSH1 0x20 MSTORE PUSH1 0x40 SWAP1 KECCAK256 PUSH1 0x3 DUP2 ADD SLOAD PUSH1 0xFF AND PUSH2 0x1F33 JUMPI PUSH1 0x3 DUP2 ADD DUP1 SLOAD PUSH1 0xFF NOT AND PUSH1 0x1 OR SWAP1 SSTORE PUSH1 0x1 PUSH1 0x1 PUSH1 0xA0 SHL SUB DUP1 DUP4 AND PUSH1 0x0 SWAP1 DUP2 MSTORE PUSH1 0x11 PUSH1 0x20 MSTORE PUSH1 0x40 DUP1 DUP3 KECCAK256 DUP3 SLOAD SWAP2 MLOAD PUSH4 0x70A08231 PUSH1 0xE0 SHL DUP2 MSTORE SWAP1 SWAP4 DUP4 SWAP3 DUP4 SWAP3 SWAP2 AND SWAP1 PUSH4 0x70A08231 SWAP1 PUSH2 0x3FB1 SWAP1 ADDRESS SWAP1 PUSH1 0x4 ADD PUSH2 0x5AEC JUMP JUMPDEST PUSH1 0x20 PUSH1 0x40 MLOAD DUP1 DUP4 SUB DUP2 DUP7 GAS STATICCALL ISZERO DUP1 ISZERO PUSH2 0x3FCE JUMPI RETURNDATASIZE PUSH1 0x0 DUP1 RETURNDATACOPY RETURNDATASIZE PUSH1 0x0 REVERT JUMPDEST POP POP POP POP PUSH1 0x40 MLOAD RETURNDATASIZE PUSH1 0x1F NOT PUSH1 0x1F DUP3 ADD AND DUP3 ADD DUP1 PUSH1 0x40 MSTORE POP DUP2 ADD SWAP1 PUSH2 0x3FF2 SWAP2 SWAP1 PUSH2 0x6016 JUMP JUMPDEST SWAP1 POP PUSH1 0x0 JUMPDEST DUP5 SLOAD DUP2 LT ISZERO PUSH2 0x411A JUMPI DUP5 DUP2 DUP2 SLOAD DUP2 LT PUSH2 0x4012 JUMPI PUSH2 0x4012 PUSH2 0x602F JUMP JUMPDEST PUSH1 0x0 SWAP2 DUP3 MSTORE PUSH1 0x20 SWAP1 SWAP2 KECCAK256 PUSH1 0x4 PUSH1 0x6 SWAP1 SWAP3 MUL ADD ADD SLOAD PUSH1 0xFF AND ISZERO PUSH2 0x4112 JUMPI PUSH1 0x0 PUSH2 0x12C PUSH1 0xC SLOAD DUP8 DUP5 DUP2 SLOAD DUP2 LT PUSH2 0x4048 JUMPI PUSH2 0x4048 PUSH2 0x602F JUMP JUMPDEST SWAP1 PUSH1 0x0 MSTORE PUSH1 0x20 PUSH1 0x0 KECCAK256 SWAP1 PUSH1 0x6 MUL ADD PUSH1 0x1 ADD SLOAD PUSH1 0x2 PUSH2 0x4066 SWAP2 SWAP1 PUSH2 0x5FB7 JUMP JUMPDEST PUSH2 0x4070 SWAP2 SWAP1 PUSH2 0x5FB7 JUMP JUMPDEST PUSH2 0x407A SWAP2 SWAP1 PUSH2 0x5FE1 JUMP JUMPDEST SWAP1 POP PUSH1 0x0 DUP7 DUP4 DUP2 SLOAD DUP2 LT PUSH2 0x4090 JUMPI PUSH2 0x4090 PUSH2 0x602F JUMP JUMPDEST SWAP1 PUSH1 0x0 MSTORE PUSH1 0x20 PUSH1 0x0 KECCAK256 SWAP1 PUSH1 0x6 MUL ADD PUSH1 0x1 ADD SLOAD SWAP1 POP DUP2 DUP2 LT PUSH2 0x40BC JUMPI PUSH2 0x40B5 DUP3 DUP3 PUSH2 0x6003 JUMP JUMPDEST SWAP1 POP PUSH2 0x40C1 JUMP JUMPDEST PUSH1 0x0 SWAP2 POP JUMPDEST PUSH2 0x40CB DUP2 DUP8 PUSH2 0x5FCE JUMP JUMPDEST SWAP6 POP PUSH2 0x40D7 DUP3 DUP7 PUSH2 0x5FCE JUMP JUMPDEST SWAP5 POP PUSH1 0x0 DUP8 DUP5 DUP2 SLOAD DUP2 LT PUSH2 0x40ED JUMPI PUSH2 0x40ED PUSH2 0x602F JUMP JUMPDEST PUSH1 0x0 SWAP2 DUP3 MSTORE PUSH1 0x20 SWAP1 SWAP2 KECCAK256 PUSH1 0x6 SWAP1 SWAP2 MUL ADD PUSH1 0x4 ADD DUP1 SLOAD PUSH1 0xFF NOT AND SWAP2 ISZERO ISZERO SWAP2 SWAP1 SWAP2 OR SWAP1 SSTORE POP POP JUMPDEST PUSH1 0x1 ADD PUSH2 0x3FF7 JUMP JUMPDEST POP DUP3 ISZERO PUSH2 0x4252 JUMPI DUP3 DUP2 LT PUSH2 0x41A3 JUMPI PUSH1 0x0 SLOAD PUSH1 0x40 MLOAD PUSH4 0xA9059CBB PUSH1 0xE0 SHL DUP2 MSTORE PUSH1 0x1 PUSH1 0x1 PUSH1 0xA0 SHL SUB SWAP1 SWAP2 AND SWAP1 PUSH4 0xA9059CBB SWAP1 PUSH2 0x415A SWAP1 DUP10 SWAP1 DUP8 SWAP1 PUSH1 0x4 ADD PUSH2 0x5CEC JUMP JUMPDEST PUSH1 0x20 PUSH1 0x40 MLOAD DUP1 DUP4 SUB DUP2 PUSH1 0x0 DUP8 GAS CALL ISZERO DUP1 ISZERO PUSH2 0x4179 JUMPI RETURNDATASIZE PUSH1 0x0 DUP1 RETURNDATACOPY RETURNDATASIZE PUSH1 0x0 REVERT JUMPDEST POP POP POP POP PUSH1 0x40 MLOAD RETURNDATASIZE PUSH1 0x1F NOT PUSH1 0x1F DUP3 ADD AND DUP3 ADD DUP1 PUSH1 0x40 MSTORE POP DUP2 ADD SWAP1 PUSH2 0x419D SWAP2 SWAP1 PUSH2 0x5F84 JUMP JUMPDEST POP PUSH2 0x4252 JUMP JUMPDEST DUP1 ISZERO PUSH2 0x4220 JUMPI PUSH1 0x0 SLOAD PUSH1 0x40 MLOAD PUSH4 0xA9059CBB PUSH1 0xE0 SHL DUP2 MSTORE PUSH1 0x1 PUSH1 0x1 PUSH1 0xA0 SHL SUB SWAP1 SWAP2 AND SWAP1 PUSH4 0xA9059CBB SWAP1 PUSH2 0x41DB SWAP1 DUP10 SWAP1 DUP6 SWAP1 PUSH1 0x4 ADD PUSH2 0x5CEC JUMP JUMPDEST PUSH1 0x20 PUSH1 0x40 MLOAD DUP1 DUP4 SUB DUP2 PUSH1 0x0 DUP8 GAS CALL ISZERO DUP1 ISZERO PUSH2 0x41FA JUMPI RETURNDATASIZE PUSH1 0x0 DUP1 RETURNDATACOPY RETURNDATASIZE PUSH1 0x0 REVERT JUMPDEST POP POP POP POP PUSH1 0x40 MLOAD RETURNDATASIZE PUSH1 0x1F NOT PUSH1 0x1F DUP3 ADD AND DUP3 ADD DUP1 PUSH1 0x40 MSTORE POP DUP2 ADD SWAP1 PUSH2 0x421E SWAP2 SWAP1 PUSH2 0x5F84 JUMP JUMPDEST POP JUMPDEST DUP6 PUSH1 0x1 PUSH1 0x1 PUSH1 0xA0 SHL SUB AND PUSH1 0x0 DUP1 MLOAD PUSH1 0x20 PUSH2 0x6176 DUP4 CODECOPY DUP2 MLOAD SWAP2 MSTORE DUP5 DUP4 PUSH1 0x40 MLOAD PUSH2 0x4249 SWAP3 SWAP2 SWAP1 PUSH2 0x5B2F JUMP JUMPDEST PUSH1 0x40 MLOAD DUP1 SWAP2 SUB SWAP1 LOG2 JUMPDEST DUP2 ISZERO PUSH2 0x4289 JUMPI PUSH1 0x1 PUSH1 0x1 PUSH1 0xA0 SHL SUB DUP7 AND PUSH1 0x0 SWAP1 DUP2 MSTORE PUSH1 0xF PUSH1 0x20 MSTORE PUSH1 0x40 DUP2 KECCAK256 PUSH1 0x6 ADD DUP1 SLOAD DUP5 SWAP3 SWAP1 PUSH2 0x4283 SWAP1 DUP5 SWAP1 PUSH2 0x5FCE JUMP JUMPDEST SWAP1 SWAP2 SSTORE POP POP JUMPDEST PUSH1 0x1 PUSH1 0x1 PUSH1 0xA0 SHL SUB DUP1 DUP8 AND PUSH1 0x0 SWAP1 DUP2 MSTORE PUSH1 0xF PUSH1 0x20 MSTORE PUSH1 0x40 SWAP1 KECCAK256 PUSH1 0x5 DUP2 ADD DUP1 SLOAD PUSH1 0xFF NOT DUP2 AND SWAP1 SWAP2 SSTORE SWAP1 SLOAD PUSH1 0xFF SWAP1 SWAP2 AND SWAP2 AND DUP2 DUP1 ISZERO PUSH2 0x42CE JUMPI POP PUSH1 0x1 PUSH1 0x1 PUSH1 0xA0 SHL SUB DUP2 AND ISZERO ISZERO JUMPDEST DUP1 ISZERO PUSH2 0x42F4 JUMPI POP PUSH1 0x1 PUSH1 0x1 PUSH1 0xA0 SHL SUB DUP2 AND PUSH1 0x0 SWAP1 DUP2 MSTORE PUSH1 0xF PUSH1 0x20 MSTORE PUSH1 0x40 SWAP1 KECCAK256 PUSH1 0x1 ADD SLOAD ISZERO ISZERO JUMPDEST ISZERO PUSH2 0x4326 JUMPI PUSH1 0x1 PUSH1 0x1 PUSH1 0xA0 SHL SUB DUP2 AND PUSH1 0x0 SWAP1 DUP2 MSTORE PUSH1 0xF PUSH1 0x20 MSTORE PUSH1 0x40 DUP2 KECCAK256 PUSH1 0x1 ADD DUP1 SLOAD SWAP2 PUSH2 0x4320 DUP4 PUSH2 0x60A6 JUMP JUMPDEST SWAP2 SWAP1 POP SSTORE POP JUMPDEST DUP8 PUSH1 0x1 PUSH1 0x1 PUSH1 0xA0 SHL SUB AND PUSH1 0x0 DUP1 MLOAD PUSH1 0x20 PUSH2 0x61B6 DUP4 CODECOPY DUP2 MLOAD SWAP2 MSTORE DUP7 DUP7 PUSH1 0x40 MLOAD PUSH2 0x434F SWAP3 SWAP2 SWAP1 PUSH2 0x5B2F JUMP JUMPDEST PUSH1 0x40 MLOAD DUP1 SWAP2 SUB SWAP1 LOG2 DUP7 SLOAD PUSH1 0x40 MLOAD SWAP1 DUP2 MSTORE PUSH1 0x1 PUSH1 0x1 PUSH1 0xA0 SHL SUB DUP10 AND SWAP1 PUSH32 0x920BB94EB3842A728DB98228C375FF6B00C5BC5A54FAC6736155517A0A20A61A SWAP1 PUSH1 0x20 ADD PUSH1 0x40 MLOAD DUP1 SWAP2 SUB SWAP1 LOG2 POP POP POP POP POP POP POP POP JUMP JUMPDEST PUSH1 0x0 DUP1 PUSH2 0x2710 DUP4 LT PUSH2 0x43B9 JUMPI POP PUSH1 0x9 SWAP3 PUSH1 0x2D SWAP3 POP SWAP1 POP JUMP JUMPDEST PUSH2 0x1388 DUP4 LT PUSH2 0x43CE JUMPI POP PUSH1 0x8 SWAP3 PUSH1 0x28 SWAP3 POP SWAP1 POP JUMP JUMPDEST PUSH2 0x7D0 DUP4 LT PUSH2 0x43E3 JUMPI POP PUSH1 0x7 SWAP3 PUSH1 0x23 SWAP3 POP SWAP1 POP JUMP JUMPDEST PUSH2 0x3E8 DUP4 LT PUSH2 0x43F8 JUMPI POP PUSH1 0x6 SWAP3 PUSH1 0x1E SWAP3 POP SWAP1 POP JUMP JUMPDEST PUSH2 0x1F4 DUP4 LT PUSH2 0x440D JUMPI POP PUSH1 0x5 SWAP3 PUSH1 0x19 SWAP3 POP SWAP1 POP JUMP JUMPDEST PUSH1 0xC8 DUP4 LT PUSH2 0x4421 JUMPI POP PUSH1 0x4 SWAP3 PUSH1 0x14 SWAP3 POP SWAP1 POP JUMP JUMPDEST PUSH1 0x64 DUP4 LT PUSH2 0x4435 JUMPI POP PUSH1 0x3 SWAP3 PUSH1 0xF SWAP3 POP SWAP1 POP JUMP JUMPDEST PUSH1 0x32 DUP4 LT PUSH2 0x4449 JUMPI POP PUSH1 0x2 SWAP3 PUSH1 0xA SWAP3 POP SWAP1 POP JUMP JUMPDEST PUSH1 0x14 DUP4 LT PUSH2 0x445D JUMPI POP PUSH1 0x1 SWAP3 PUSH1 0x5 SWAP3 POP SWAP1 POP JUMP JUMPDEST POP PUSH1 0x0 SWAP3 DUP4 SWAP3 POP SWAP1 POP JUMP JUMPDEST PUSH1 0x1 PUSH1 0x1 PUSH1 0xA0 SHL SUB DUP1 DUP5 AND PUSH1 0x0 SWAP1 DUP2 MSTORE PUSH1 0xF PUSH1 0x20 MSTORE PUSH1 0x40 DUP2 KECCAK256 SLOAD SWAP1 SWAP2 AND SWAP1 DUP1 JUMPDEST PUSH1 0x1 PUSH1 0x1 PUSH1 0xA0 SHL SUB DUP4 AND ISZERO DUP1 ISZERO SWAP1 PUSH2 0x44A0 JUMPI POP PUSH1 0x14 DUP2 LT JUMPDEST ISZERO PUSH2 0x46BE JUMPI PUSH1 0x1 PUSH1 0x1 PUSH1 0xA0 SHL SUB DUP4 AND PUSH1 0x0 SWAP1 DUP2 MSTORE PUSH1 0xF PUSH1 0x20 MSTORE PUSH1 0x40 SWAP1 KECCAK256 PUSH1 0x5 ADD SLOAD PUSH1 0xFF AND PUSH2 0x44F8 JUMPI PUSH1 0x1 PUSH1 0x1 PUSH1 0xA0 SHL SUB SWAP3 DUP4 AND PUSH1 0x0 SWAP1 DUP2 MSTORE PUSH1 0xF PUSH1 0x20 MSTORE PUSH1 0x40 SWAP1 KECCAK256 SLOAD SWAP1 SWAP3 AND SWAP2 DUP1 PUSH2 0x44F0 DUP2 PUSH2 0x6074 JUMP JUMPDEST SWAP2 POP POP PUSH2 0x4488 JUMP JUMPDEST PUSH1 0x1 PUSH1 0x1 PUSH1 0xA0 SHL SUB DUP4 AND PUSH1 0x0 SWAP1 DUP2 MSTORE PUSH1 0x10 PUSH1 0x20 MSTORE PUSH1 0x40 SWAP1 KECCAK256 PUSH1 0x1 DUP2 ADD SLOAD ISZERO DUP1 PUSH2 0x4525 JUMPI POP PUSH1 0x3 DUP2 ADD SLOAD PUSH1 0xFF AND JUMPDEST ISZERO PUSH2 0x455B JUMPI PUSH1 0x1 PUSH1 0x1 PUSH1 0xA0 SHL SUB SWAP4 DUP5 AND PUSH1 0x0 SWAP1 DUP2 MSTORE PUSH1 0xF PUSH1 0x20 MSTORE PUSH1 0x40 SWAP1 KECCAK256 SLOAD SWAP1 SWAP4 AND SWAP3 DUP2 PUSH2 0x4552 DUP2 PUSH2 0x6074 JUMP JUMPDEST SWAP3 POP POP POP PUSH2 0x4488 JUMP JUMPDEST PUSH1 0x1 PUSH1 0x1 PUSH1 0xA0 SHL SUB DUP5 AND PUSH1 0x0 SWAP1 DUP2 MSTORE PUSH1 0xF PUSH1 0x20 MSTORE PUSH1 0x40 DUP2 KECCAK256 PUSH1 0x2 ADD SLOAD PUSH2 0x4580 SWAP1 PUSH2 0x1A75 JUMP JUMPDEST SWAP2 POP POP DUP4 DUP2 GT ISZERO PUSH2 0x467D JUMPI PUSH1 0x0 PUSH2 0x4597 DUP6 DUP4 PUSH2 0x6003 JUMP JUMPDEST PUSH1 0x1 DUP5 ADD SLOAD SWAP1 SWAP2 POP DUP9 SWAP1 DUP2 GT ISZERO PUSH2 0x45AF JUMPI POP PUSH1 0x1 DUP4 ADD SLOAD JUMPDEST PUSH1 0x0 PUSH1 0x64 PUSH2 0x45BD DUP5 DUP5 PUSH2 0x5FB7 JUMP JUMPDEST PUSH2 0x45C7 SWAP2 SWAP1 PUSH2 0x5FE1 JUMP JUMPDEST PUSH1 0x0 DUP11 DUP2 MSTORE PUSH1 0x1D PUSH1 0x20 SWAP1 DUP2 MSTORE PUSH1 0x40 DUP1 DUP4 KECCAK256 DUP2 MLOAD DUP1 DUP4 ADD DUP4 MSTORE PUSH1 0x1 PUSH1 0x1 PUSH1 0xA0 SHL SUB DUP15 DUP2 AND DUP1 DUP4 MSTORE DUP3 DUP7 ADD DUP9 DUP2 MSTORE DUP5 SLOAD PUSH1 0x1 DUP1 DUP3 ADD DUP8 SSTORE SWAP6 DUP10 MSTORE DUP8 DUP10 KECCAK256 SWAP5 MLOAD PUSH1 0x2 SWAP2 DUP3 MUL SWAP1 SWAP6 ADD DUP1 SLOAD PUSH1 0x1 PUSH1 0x1 PUSH1 0xA0 SHL SUB NOT AND SWAP6 SWAP1 SWAP5 AND SWAP5 SWAP1 SWAP5 OR DUP4 SSTORE MLOAD SWAP2 SWAP1 SWAP4 ADD SSTORE DUP2 DUP6 MSTORE PUSH1 0xF SWAP1 SWAP4 MSTORE SWAP3 DUP2 SWAP1 KECCAK256 SWAP1 SWAP2 ADD SLOAD SWAP1 MLOAD SWAP3 SWAP4 POP SWAP1 SWAP2 DUP12 SWAP2 PUSH32 0xCF2F68CC66431465B13B971EA50F7D9D3C6B29A6D132D354CC3C9CF9585AB59F SWAP2 PUSH2 0x466E SWAP2 DUP7 SWAP2 PUSH2 0x5B2F JUMP JUMPDEST PUSH1 0x40 MLOAD DUP1 SWAP2 SUB SWAP1 LOG3 DUP4 SWAP7 POP POP POP POP JUMPDEST PUSH1 0x2D DUP2 LT PUSH2 0x468C JUMPI POP POP PUSH2 0x46BE JUMP JUMPDEST PUSH1 0x1 PUSH1 0x1 PUSH1 0xA0 SHL SUB SWAP5 DUP6 AND PUSH1 0x0 SWAP1 DUP2 MSTORE PUSH1 0xF PUSH1 0x20 MSTORE PUSH1 0x40 SWAP1 KECCAK256 SLOAD SWAP1 SWAP5 AND SWAP4 DUP3 PUSH2 0x46B4 DUP2 PUSH2 0x6074 JUMP JUMPDEST SWAP4 POP POP POP POP PUSH2 0x4488 JUMP JUMPDEST POP POP POP POP POP POP JUMP JUMPDEST PUSH1 0x1 PUSH1 0x1 PUSH1 0xA0 SHL SUB DUP2 AND PUSH1 0x0 SWAP1 DUP2 MSTORE PUSH1 0x10 PUSH1 0x20 MSTORE PUSH1 0x40 DUP2 KECCAK256 PUSH1 0x1 DUP2 ADD SLOAD SWAP1 SWAP2 SWAP1 ISZERO DUP1 ISZERO SWAP1 PUSH2 0x46F9 JUMPI POP PUSH1 0x3 DUP3 ADD SLOAD PUSH1 0xFF AND ISZERO JUMPDEST PUSH1 0x1 PUSH1 0x1 PUSH1 0xA0 SHL SUB DUP5 AND PUSH1 0x0 SWAP1 DUP2 MSTORE PUSH1 0xF PUSH1 0x20 MSTORE PUSH1 0x40 SWAP1 KECCAK256 PUSH1 0x5 ADD SLOAD SWAP1 SWAP2 POP PUSH1 0xFF AND DUP1 ISZERO ISZERO DUP3 ISZERO ISZERO SUB PUSH2 0x472C JUMPI POP POP POP POP JUMP JUMPDEST PUSH1 0x1 PUSH1 0x1 PUSH1 0xA0 SHL SUB DUP5 DUP2 AND PUSH1 0x0 SWAP1 DUP2 MSTORE PUSH1 0xF PUSH1 0x20 MSTORE PUSH1 0x40 SWAP1 KECCAK256 PUSH1 0x5 DUP2 ADD DUP1 SLOAD PUSH1 0xFF NOT AND DUP6 ISZERO ISZERO OR SWAP1 SSTORE SLOAD AND DUP1 PUSH2 0x4763 JUMPI POP POP POP POP POP JUMP JUMPDEST DUP3 ISZERO PUSH2 0x47A5 JUMPI PUSH1 0x1 PUSH1 0x1 PUSH1 0xA0 SHL SUB DUP2 AND PUSH1 0x0 SWAP1 DUP2 MSTORE PUSH1 0xF PUSH1 0x20 MSTORE PUSH1 0x40 DUP2 KECCAK256 PUSH1 0x1 ADD DUP1 SLOAD SWAP2 PUSH2 0x4790 DUP4 PUSH2 0x6074 JUMP JUMPDEST SWAP2 SWAP1 POP SSTORE POP PUSH2 0x47A0 DUP6 PUSH1 0x1 PUSH2 0x5542 JUMP JUMPDEST PUSH2 0x47FE JUMP JUMPDEST PUSH1 0x1 PUSH1 0x1 PUSH1 0xA0 SHL SUB DUP2 AND PUSH1 0x0 SWAP1 DUP2 MSTORE PUSH1 0xF PUSH1 0x20 MSTORE PUSH1 0x40 SWAP1 KECCAK256 PUSH1 0x1 ADD SLOAD ISZERO PUSH2 0x47FE JUMPI PUSH1 0x1 PUSH1 0x1 PUSH1 0xA0 SHL SUB DUP2 AND PUSH1 0x0 SWAP1 DUP2 MSTORE PUSH1 0xF PUSH1 0x20 MSTORE PUSH1 0x40 DUP2 KECCAK256 PUSH1 0x1 ADD DUP1 SLOAD SWAP2 PUSH2 0x47ED DUP4 PUSH2 0x60A6 JUMP JUMPDEST SWAP2 SWAP1 POP SSTORE POP PUSH2 0x47FE DUP6 PUSH1 0x0 NOT PUSH2 0x5542 JUMP JUMPDEST POP POP POP POP POP JUMP JUMPDEST ADDRESS PUSH1 0x1 PUSH1 0x1 PUSH1 0xA0 SHL SUB PUSH32 0x0 AND EQ DUP1 PUSH2 0x488C JUMPI POP PUSH32 0x0 PUSH1 0x1 PUSH1 0x1 PUSH1 0xA0 SHL SUB AND PUSH2 0x4880 PUSH1 0x0 DUP1 MLOAD PUSH1 0x20 PUSH2 0x6156 DUP4 CODECOPY DUP2 MLOAD SWAP2 MSTORE SLOAD PUSH1 0x1 PUSH1 0x1 PUSH1 0xA0 SHL SUB AND SWAP1 JUMP JUMPDEST PUSH1 0x1 PUSH1 0x1 PUSH1 0xA0 SHL SUB AND EQ ISZERO JUMPDEST ISZERO PUSH2 0x1984 JUMPI PUSH1 0x40 MLOAD PUSH4 0x703E46DD PUSH1 0xE1 SHL DUP2 MSTORE PUSH1 0x4 ADD PUSH1 0x40 MLOAD DUP1 SWAP2 SUB SWAP1 REVERT JUMPDEST PUSH2 0x12C6 PUSH2 0x3EC0 JUMP JUMPDEST DUP2 PUSH1 0x1 PUSH1 0x1 PUSH1 0xA0 SHL SUB AND PUSH4 0x52D1902D PUSH1 0x40 MLOAD DUP2 PUSH4 0xFFFFFFFF AND PUSH1 0xE0 SHL DUP2 MSTORE PUSH1 0x4 ADD PUSH1 0x20 PUSH1 0x40 MLOAD DUP1 DUP4 SUB DUP2 DUP7 GAS STATICCALL SWAP3 POP POP POP DUP1 ISZERO PUSH2 0x490C JUMPI POP PUSH1 0x40 DUP1 MLOAD PUSH1 0x1F RETURNDATASIZE SWAP1 DUP2 ADD PUSH1 0x1F NOT AND DUP3 ADD SWAP1 SWAP3 MSTORE PUSH2 0x4909 SWAP2 DUP2 ADD SWAP1 PUSH2 0x6016 JUMP JUMPDEST PUSH1 0x1 JUMPDEST PUSH2 0x492B JUMPI DUP2 PUSH1 0x40 MLOAD PUSH4 0x4C9C8CE3 PUSH1 0xE0 SHL DUP2 MSTORE PUSH1 0x4 ADD PUSH2 0xF59 SWAP2 SWAP1 PUSH2 0x5AEC JUMP JUMPDEST PUSH1 0x0 DUP1 MLOAD PUSH1 0x20 PUSH2 0x6156 DUP4 CODECOPY DUP2 MLOAD SWAP2 MSTORE DUP2 EQ PUSH2 0x495C JUMPI PUSH1 0x40 MLOAD PUSH4 0x2A875269 PUSH1 0xE2 SHL DUP2 MSTORE PUSH1 0x4 DUP2 ADD DUP3 SWAP1 MSTORE PUSH1 0x24 ADD PUSH2 0xF59 JUMP JUMPDEST PUSH2 0x4966 DUP4 DUP4 PUSH2 0x575B JUMP JUMPDEST POP POP POP JUMP JUMPDEST ADDRESS PUSH1 0x1 PUSH1 0x1 PUSH1 0xA0 SHL SUB PUSH32 0x0 AND EQ PUSH2 0x1984 JUMPI PUSH1 0x40 MLOAD PUSH4 0x703E46DD PUSH1 0xE1 SHL DUP2 MSTORE PUSH1 0x4 ADD PUSH1 0x40 MLOAD DUP1 SWAP2 SUB SWAP1 REVERT JUMPDEST PUSH1 0x1 PUSH1 0x1 PUSH1 0xA0 SHL SUB DUP2 AND PUSH1 0x0 SWAP1 DUP2 MSTORE PUSH1 0x10 PUSH1 0x20 MSTORE PUSH1 0x40 SWAP1 KECCAK256 PUSH1 0x1 DUP2 ADD SLOAD ISZERO DUP1 PUSH2 0x49E1 JUMPI POP PUSH1 0x3 DUP2 ADD SLOAD PUSH1 0xFF AND JUMPDEST ISZERO PUSH2 0x49EA JUMPI POP POP JUMP JUMPDEST PUSH1 0x0 PUSH2 0x49F5 DUP4 PUSH2 0x57B1 JUMP JUMPDEST GT ISZERO PUSH2 0x49FF JUMPI POP POP JUMP JUMPDEST PUSH1 0x15 SLOAD DUP2 PUSH1 0x2 ADD SLOAD PUSH2 0x4A11 SWAP2 SWAP1 PUSH2 0x5FCE JUMP JUMPDEST TIMESTAMP GT PUSH2 0x4A1B JUMPI POP POP JUMP JUMPDEST DUP1 SLOAD PUSH1 0x1 DUP3 ADD SLOAD PUSH1 0x1 PUSH1 0x1 PUSH1 0xA0 SHL SUB DUP1 DUP6 AND PUSH1 0x0 SWAP1 DUP2 MSTORE PUSH1 0xF PUSH1 0x20 MSTORE PUSH1 0x40 SWAP1 KECCAK256 DUP1 SLOAD PUSH1 0x5 SWAP1 SWAP2 ADD SLOAD SWAP2 AND SWAP1 PUSH1 0xFF AND DUP1 ISZERO PUSH2 0x4A5D JUMPI POP PUSH1 0x1 PUSH1 0x1 PUSH1 0xA0 SHL SUB DUP2 AND ISZERO ISZERO JUMPDEST DUP1 ISZERO PUSH2 0x4A83 JUMPI POP PUSH1 0x1 PUSH1 0x1 PUSH1 0xA0 SHL SUB DUP2 AND PUSH1 0x0 SWAP1 DUP2 MSTORE PUSH1 0xF PUSH1 0x20 MSTORE PUSH1 0x40 SWAP1 KECCAK256 PUSH1 0x1 ADD SLOAD ISZERO ISZERO JUMPDEST ISZERO PUSH2 0x4AB5 JUMPI PUSH1 0x1 PUSH1 0x1 PUSH1 0xA0 SHL SUB DUP2 AND PUSH1 0x0 SWAP1 DUP2 MSTORE PUSH1 0xF PUSH1 0x20 MSTORE PUSH1 0x40 DUP2 KECCAK256 PUSH1 0x1 ADD DUP1 SLOAD SWAP2 PUSH2 0x4AAF DUP4 PUSH2 0x60A6 JUMP JUMPDEST SWAP2 SWAP1 POP SSTORE POP JUMPDEST PUSH1 0x1 PUSH1 0x1 PUSH1 0xA0 SHL SUB DUP6 AND PUSH1 0x0 SWAP1 DUP2 MSTORE PUSH1 0xF PUSH1 0x20 MSTORE PUSH1 0x40 DUP2 KECCAK256 PUSH1 0x5 DUP2 ADD DUP1 SLOAD PUSH1 0xFF NOT SWAP1 DUP2 AND SWAP1 SWAP2 SSTORE PUSH1 0x3 DUP1 DUP4 ADD DUP5 SWAP1 SSTORE PUSH1 0x4 SWAP1 SWAP3 ADD DUP4 SWAP1 SSTORE DUP3 DUP8 SSTORE PUSH1 0x1 DUP8 ADD DUP4 SWAP1 SSTORE PUSH1 0x2 DUP8 ADD SWAP3 SWAP1 SWAP3 SSTORE DUP6 ADD DUP1 SLOAD SWAP1 SWAP2 AND SWAP1 SSTORE DUP3 ISZERO PUSH2 0x4B41 JUMPI PUSH1 0x0 DUP4 DUP2 MSTORE PUSH1 0x13 PUSH1 0x20 MSTORE PUSH1 0x40 DUP2 KECCAK256 PUSH2 0x4B24 SWAP2 PUSH2 0x59FE JUMP JUMPDEST PUSH1 0x0 DUP4 DUP2 MSTORE PUSH1 0x1C PUSH1 0x20 MSTORE PUSH1 0x40 SWAP1 KECCAK256 DUP1 SLOAD PUSH1 0x1 PUSH1 0x1 PUSH1 0xA0 SHL SUB NOT AND SWAP1 SSTORE JUMPDEST DUP5 PUSH1 0x1 PUSH1 0x1 PUSH1 0xA0 SHL SUB AND PUSH32 0x57025F0027038907EDA728B59164FB63D06048F42E618A35267E6A12E49B2E46 DUP5 DUP5 PUSH1 0x40 MLOAD PUSH2 0x4B7C SWAP3 SWAP2 SWAP1 PUSH2 0x5B2F JUMP JUMPDEST PUSH1 0x40 MLOAD DUP1 SWAP2 SUB SWAP1 LOG2 POP POP POP POP POP JUMP JUMPDEST PUSH1 0x1 PUSH1 0x1 PUSH1 0xA0 SHL SUB DUP4 AND PUSH1 0x0 SWAP1 DUP2 MSTORE PUSH1 0xF PUSH1 0x20 SWAP1 DUP2 MSTORE PUSH1 0x40 DUP1 DUP4 KECCAK256 PUSH1 0x10 SWAP1 SWAP3 MSTORE DUP3 KECCAK256 PUSH1 0x5 DUP3 ADD SLOAD PUSH1 0xFF AND ISZERO DUP1 PUSH2 0x4BC5 JUMPI POP PUSH1 0x3 DUP2 ADD SLOAD PUSH1 0xFF AND JUMPDEST DUP1 PUSH2 0x4BD2 JUMPI POP PUSH1 0x1 DUP2 ADD SLOAD ISZERO JUMPDEST ISZERO PUSH2 0x4BE2 JUMPI PUSH1 0x0 SWAP3 POP POP POP PUSH2 0x4DD1 JUMP JUMPDEST PUSH1 0x0 SLOAD PUSH1 0x40 MLOAD PUSH4 0x70A08231 PUSH1 0xE0 SHL DUP2 MSTORE DUP7 SWAP2 PUSH1 0x1 PUSH1 0x1 PUSH1 0xA0 SHL SUB AND SWAP1 PUSH4 0x70A08231 SWAP1 PUSH2 0x4C12 SWAP1 ADDRESS SWAP1 PUSH1 0x4 ADD PUSH2 0x5AEC JUMP JUMPDEST PUSH1 0x20 PUSH1 0x40 MLOAD DUP1 DUP4 SUB DUP2 DUP7 GAS STATICCALL ISZERO DUP1 ISZERO PUSH2 0x4C2F JUMPI RETURNDATASIZE PUSH1 0x0 DUP1 RETURNDATACOPY RETURNDATASIZE PUSH1 0x0 REVERT JUMPDEST POP POP POP POP PUSH1 0x40 MLOAD RETURNDATASIZE PUSH1 0x1F NOT PUSH1 0x1F DUP3 ADD AND DUP3 ADD DUP1 PUSH1 0x40 MSTORE POP DUP2 ADD SWAP1 PUSH2 0x4C53 SWAP2 SWAP1 PUSH2 0x6016 JUMP JUMPDEST LT ISZERO PUSH2 0x4C96 JUMPI DUP6 PUSH1 0x1 PUSH1 0x1 PUSH1 0xA0 SHL SUB AND PUSH1 0x0 DUP1 MLOAD PUSH1 0x20 PUSH2 0x6176 DUP4 CODECOPY DUP2 MLOAD SWAP2 MSTORE DUP7 PUSH1 0x0 PUSH1 0x40 MLOAD PUSH2 0x4C83 SWAP3 SWAP2 SWAP1 PUSH2 0x5B2F JUMP JUMPDEST PUSH1 0x40 MLOAD DUP1 SWAP2 SUB SWAP1 LOG2 PUSH1 0x0 SWAP3 POP POP POP PUSH2 0x4DD1 JUMP JUMPDEST PUSH1 0x0 DUP3 PUSH1 0x3 ADD SLOAD DUP4 PUSH1 0x4 ADD SLOAD PUSH2 0x4CAC SWAP2 SWAP1 PUSH2 0x6003 JUMP JUMPDEST SWAP1 POP DUP6 DUP2 DUP2 GT ISZERO PUSH2 0x4CEC JUMPI DUP2 SWAP1 POP DUP8 PUSH1 0x1 PUSH1 0x1 PUSH1 0xA0 SHL SUB AND PUSH1 0x0 DUP1 MLOAD PUSH1 0x20 PUSH2 0x6176 DUP4 CODECOPY DUP2 MLOAD SWAP2 MSTORE DUP9 DUP5 PUSH1 0x40 MLOAD PUSH2 0x4CE3 SWAP3 SWAP2 SWAP1 PUSH2 0x5B2F JUMP JUMPDEST PUSH1 0x40 MLOAD DUP1 SWAP2 SUB SWAP1 LOG2 JUMPDEST DUP1 ISZERO PUSH2 0x4DB3 JUMPI DUP1 DUP5 PUSH1 0x3 ADD PUSH1 0x0 DUP3 DUP3 SLOAD PUSH2 0x4D06 SWAP2 SWAP1 PUSH2 0x5FCE JUMP JUMPDEST SWAP1 SWAP2 SSTORE POP POP PUSH1 0x0 SLOAD PUSH1 0x40 MLOAD PUSH4 0xA9059CBB PUSH1 0xE0 SHL DUP2 MSTORE PUSH1 0x1 PUSH1 0x1 PUSH1 0xA0 SHL SUB SWAP1 SWAP2 AND SWAP1 PUSH4 0xA9059CBB SWAP1 PUSH2 0x4D3D SWAP1 DUP12 SWAP1 DUP6 SWAP1 PUSH1 0x4 ADD PUSH2 0x5CEC JUMP JUMPDEST PUSH1 0x20 PUSH1 0x40 MLOAD DUP1 DUP4 SUB DUP2 PUSH1 0x0 DUP8 GAS CALL ISZERO DUP1 ISZERO PUSH2 0x4D5C JUMPI RETURNDATASIZE PUSH1 0x0 DUP1 RETURNDATACOPY RETURNDATASIZE PUSH1 0x0 REVERT JUMPDEST POP POP POP POP PUSH1 0x40 MLOAD RETURNDATASIZE PUSH1 0x1F NOT PUSH1 0x1F DUP3 ADD AND DUP3 ADD DUP1 PUSH1 0x40 MSTORE POP DUP2 ADD SWAP1 PUSH2 0x4D80 SWAP2 SWAP1 PUSH2 0x5F84 JUMP JUMPDEST POP DUP8 PUSH1 0x1 PUSH1 0x1 PUSH1 0xA0 SHL SUB AND PUSH1 0x0 DUP1 MLOAD PUSH1 0x20 PUSH2 0x6196 DUP4 CODECOPY DUP2 MLOAD SWAP2 MSTORE DUP3 DUP9 PUSH1 0x40 MLOAD PUSH2 0x4DAA SWAP3 SWAP2 SWAP1 PUSH2 0x6045 JUMP JUMPDEST PUSH1 0x40 MLOAD DUP1 SWAP2 SUB SWAP1 LOG2 JUMPDEST DUP4 PUSH1 0x4 ADD SLOAD DUP5 PUSH1 0x3 ADD SLOAD LT PUSH2 0x4DCB JUMPI PUSH2 0x4DCB DUP9 PUSH2 0x3F39 JUMP JUMPDEST SWAP4 POP POP POP POP JUMPDEST SWAP4 SWAP3 POP POP POP JUMP JUMPDEST PUSH1 0x1 PUSH1 0x1 PUSH1 0xA0 SHL SUB DUP1 DUP4 AND PUSH1 0x0 SWAP1 DUP2 MSTORE PUSH1 0xF PUSH1 0x20 MSTORE PUSH1 0x40 DUP2 KECCAK256 SLOAD SWAP1 SWAP2 AND SWAP1 DUP1 DUP1 DUP1 PUSH1 0x64 PUSH2 0x4E06 DUP8 PUSH1 0x1 PUSH2 0x5FB7 JUMP JUMPDEST PUSH2 0x4E10 SWAP2 SWAP1 PUSH2 0x5FE1 JUMP JUMPDEST SWAP1 POP JUMPDEST PUSH1 0x1 PUSH1 0x1 PUSH1 0xA0 SHL SUB DUP6 AND ISZERO DUP1 ISZERO SWAP1 PUSH2 0x4E2B JUMPI POP PUSH1 0xF DUP4 LT JUMPDEST DUP1 ISZERO PUSH2 0x4E37 JUMPI POP PUSH1 0x14 DUP3 LT JUMPDEST ISZERO PUSH2 0x4F6D JUMPI PUSH1 0x1 PUSH1 0x1 PUSH1 0xA0 SHL SUB DUP6 AND PUSH1 0x0 SWAP1 DUP2 MSTORE PUSH1 0xF PUSH1 0x20 MSTORE PUSH1 0x40 SWAP1 KECCAK256 PUSH1 0x5 ADD SLOAD PUSH1 0xFF AND PUSH2 0x4E8F JUMPI PUSH1 0x1 PUSH1 0x1 PUSH1 0xA0 SHL SUB SWAP5 DUP6 AND PUSH1 0x0 SWAP1 DUP2 MSTORE PUSH1 0xF PUSH1 0x20 MSTORE PUSH1 0x40 SWAP1 KECCAK256 SLOAD SWAP1 SWAP5 AND SWAP4 DUP2 PUSH2 0x4E87 DUP2 PUSH2 0x6074 JUMP JUMPDEST SWAP3 POP POP PUSH2 0x4E13 JUMP JUMPDEST PUSH1 0x1 PUSH1 0x1 PUSH1 0xA0 SHL SUB DUP6 AND PUSH1 0x0 SWAP1 DUP2 MSTORE PUSH1 0xF PUSH1 0x20 MSTORE PUSH1 0x40 DUP2 KECCAK256 PUSH1 0x1 ADD SLOAD PUSH2 0x4EB4 SWAP1 PUSH2 0x12C9 JUMP JUMPDEST SWAP1 POP DUP4 DUP2 GT ISZERO PUSH2 0x4F2E JUMPI PUSH1 0x0 PUSH2 0x4ECC DUP8 DUP5 PUSH1 0x3 PUSH2 0x4B8B JUMP JUMPDEST SWAP1 POP DUP1 ISZERO PUSH2 0x4F2C JUMPI PUSH2 0x4EDE DUP2 DUP8 PUSH2 0x5FCE JUMP JUMPDEST PUSH1 0x1 PUSH1 0x1 PUSH1 0xA0 SHL SUB DUP1 DUP12 AND PUSH1 0x0 DUP2 DUP2 MSTORE PUSH1 0x10 PUSH1 0x20 MSTORE PUSH1 0x40 SWAP1 DUP2 SWAP1 KECCAK256 SLOAD SWAP1 MLOAD SWAP4 SWAP10 POP SWAP1 SWAP3 SWAP2 DUP11 AND SWAP2 PUSH1 0x0 DUP1 MLOAD PUSH1 0x20 PUSH2 0x60F6 DUP4 CODECOPY DUP2 MLOAD SWAP2 MSTORE SWAP2 PUSH2 0x4F23 SWAP2 DUP7 SWAP2 PUSH1 0x3 SWAP2 PUSH2 0x608D JUMP JUMPDEST PUSH1 0x40 MLOAD DUP1 SWAP2 SUB SWAP1 LOG3 JUMPDEST POP JUMPDEST PUSH1 0x1 PUSH1 0x1 PUSH1 0xA0 SHL SUB SWAP6 DUP7 AND PUSH1 0x0 SWAP1 DUP2 MSTORE PUSH1 0xF PUSH1 0x20 MSTORE PUSH1 0x40 SWAP1 KECCAK256 SLOAD SWAP1 SWAP6 AND SWAP5 DUP4 PUSH2 0x4F56 DUP2 PUSH2 0x6074 JUMP JUMPDEST SWAP5 POP POP DUP3 DUP1 PUSH2 0x4F64 SWAP1 PUSH2 0x6074 JUMP JUMPDEST SWAP4 POP POP POP PUSH2 0x4E13 JUMP JUMPDEST PUSH1 0x0 PUSH1 0x64 PUSH1 0x7 SLOAD DUP9 PUSH2 0x4F7F SWAP2 SWAP1 PUSH2 0x5FB7 JUMP JUMPDEST PUSH2 0x4F89 SWAP2 SWAP1 PUSH2 0x5FE1 JUMP JUMPDEST SWAP1 POP PUSH1 0x0 PUSH2 0x4F97 DUP7 DUP4 PUSH2 0x6003 JUMP JUMPDEST SWAP1 POP DUP1 ISZERO PUSH2 0x4FF3 JUMPI DUP1 PUSH1 0x1F PUSH1 0x0 DUP3 DUP3 SLOAD PUSH2 0x4FB1 SWAP2 SWAP1 PUSH2 0x5FCE JUMP JUMPDEST SWAP1 SWAP2 SSTORE POP POP PUSH1 0x1F SLOAD PUSH1 0x40 MLOAD PUSH32 0xCA2E2BFF26D2ADB9FE155E9265350494C16751676879CB7CED9141E0FCF39343 SWAP2 PUSH2 0x4FEA SWAP2 DUP5 SWAP2 SWAP1 PUSH2 0x5B2F JUMP JUMPDEST PUSH1 0x40 MLOAD DUP1 SWAP2 SUB SWAP1 LOG1 JUMPDEST POP POP POP POP POP POP POP POP POP JUMP JUMPDEST DUP1 PUSH1 0x0 SUB PUSH2 0x5009 JUMPI POP JUMP JUMPDEST PUSH9 0x3635C9ADC5DEA00000 PUSH1 0x17 SLOAD LT DUP1 PUSH2 0x502C JUMPI POP PUSH9 0x3635C9ADC5DEA00000 PUSH1 0x18 SLOAD LT JUMPDEST ISZERO PUSH2 0x5034 JUMPI POP JUMP JUMPDEST DUP1 PUSH1 0x17 SLOAD PUSH2 0x5042 SWAP2 SWAP1 PUSH2 0x5FCE JUMP JUMPDEST PUSH1 0x0 SLOAD PUSH1 0x40 MLOAD PUSH4 0x70A08231 PUSH1 0xE0 SHL DUP2 MSTORE PUSH1 0x1 PUSH1 0x1 PUSH1 0xA0 SHL SUB SWAP1 SWAP2 AND SWAP1 PUSH4 0x70A08231 SWAP1 PUSH2 0x5072 SWAP1 ADDRESS SWAP1 PUSH1 0x4 ADD PUSH2 0x5AEC JUMP JUMPDEST PUSH1 0x20 PUSH1 0x40 MLOAD DUP1 DUP4 SUB DUP2 DUP7 GAS STATICCALL ISZERO DUP1 ISZERO PUSH2 0x508F JUMPI RETURNDATASIZE PUSH1 0x0 DUP1 RETURNDATACOPY RETURNDATASIZE PUSH1 0x0 REVERT JUMPDEST POP POP POP POP PUSH1 0x40 MLOAD RETURNDATASIZE PUSH1 0x1F NOT PUSH1 0x1F DUP3 ADD AND DUP3 ADD DUP1 PUSH1 0x40 MSTORE POP DUP2 ADD SWAP1 PUSH2 0x50B3 SWAP2 SWAP1 PUSH2 0x6016 JUMP JUMPDEST LT ISZERO PUSH2 0x50BC JUMPI POP JUMP JUMPDEST PUSH1 0x17 SLOAD PUSH1 0x0 SWAP1 PUSH2 0x50CE DUP4 PUSH2 0x2710 PUSH2 0x5FB7 JUMP JUMPDEST PUSH2 0x50D8 SWAP2 SWAP1 PUSH2 0x5FE1 JUMP JUMPDEST SWAP1 POP PUSH2 0x3E8 DUP2 GT ISZERO PUSH2 0x50E8 JUMPI POP POP JUMP JUMPDEST PUSH1 0x0 PUSH1 0x18 SLOAD DUP4 PUSH2 0x50F8 SWAP2 SWAP1 PUSH2 0x5FB7 JUMP JUMPDEST SWAP1 POP PUSH1 0x0 DUP4 PUSH1 0x17 SLOAD PUSH2 0x510A SWAP2 SWAP1 PUSH2 0x5FCE JUMP JUMPDEST SWAP1 POP PUSH1 0x0 PUSH2 0x5118 DUP3 DUP5 PUSH2 0x5FE1 JUMP JUMPDEST SWAP1 POP DUP1 ISZERO DUP1 PUSH2 0x5128 JUMPI POP PUSH1 0x18 SLOAD DUP2 GT JUMPDEST ISZERO PUSH2 0x5134 JUMPI POP POP POP POP POP JUMP JUMPDEST PUSH1 0x18 SLOAD PUSH1 0x1 SLOAD PUSH1 0x40 MLOAD PUSH4 0x70A08231 PUSH1 0xE0 SHL DUP2 MSTORE PUSH1 0x1 PUSH1 0x1 PUSH1 0xA0 SHL SUB SWAP1 SWAP2 AND SWAP1 PUSH4 0x70A08231 SWAP1 PUSH2 0x5167 SWAP1 ADDRESS SWAP1 PUSH1 0x4 ADD PUSH2 0x5AEC JUMP JUMPDEST PUSH1 0x20 PUSH1 0x40 MLOAD DUP1 DUP4 SUB DUP2 DUP7 GAS STATICCALL ISZERO DUP1 ISZERO PUSH2 0x5184 JUMPI RETURNDATASIZE PUSH1 0x0 DUP1 RETURNDATACOPY RETURNDATASIZE PUSH1 0x0 REVERT JUMPDEST POP POP POP POP PUSH1 0x40 MLOAD RETURNDATASIZE PUSH1 0x1F NOT PUSH1 0x1F DUP3 ADD AND DUP3 ADD DUP1 PUSH1 0x40 MSTORE POP DUP2 ADD SWAP1 PUSH2 0x51A8 SWAP2 SWAP1 PUSH2 0x6016 JUMP JUMPDEST LT ISZERO PUSH2 0x51B5 JUMPI POP POP POP POP POP JUMP JUMPDEST DUP5 PUSH1 0x17 PUSH1 0x0 DUP3 DUP3 SLOAD PUSH2 0x51C7 SWAP2 SWAP1 PUSH2 0x5FCE JUMP JUMPDEST SWAP3 POP POP DUP2 SWAP1 SSTORE POP DUP1 PUSH1 0x18 PUSH1 0x0 DUP3 DUP3 SLOAD PUSH2 0x51E0 SWAP2 SWAP1 PUSH2 0x6003 JUMP JUMPDEST SWAP1 SWAP2 SSTORE POP POP PUSH1 0x1 SLOAD PUSH1 0x40 MLOAD PUSH4 0x852CD8D PUSH1 0xE3 SHL DUP2 MSTORE PUSH1 0x4 DUP2 ADD DUP4 SWAP1 MSTORE PUSH1 0x1 PUSH1 0x1 PUSH1 0xA0 SHL SUB SWAP1 SWAP2 AND SWAP1 PUSH4 0x42966C68 SWAP1 PUSH1 0x24 ADD PUSH1 0x0 PUSH1 0x40 MLOAD DUP1 DUP4 SUB DUP2 PUSH1 0x0 DUP8 DUP1 EXTCODESIZE ISZERO DUP1 ISZERO PUSH2 0x522B JUMPI PUSH1 0x0 DUP1 REVERT JUMPDEST POP GAS CALL ISZERO DUP1 ISZERO PUSH2 0x523F JUMPI RETURNDATASIZE PUSH1 0x0 DUP1 RETURNDATACOPY RETURNDATASIZE PUSH1 0x0 REVERT JUMPDEST POP POP POP POP PUSH32 0xEC3929061CBBBEECB325623E7D5A86C3DAE11CB8A22CA45DC0972955657DA25 DUP6 DUP3 PUSH1 0x40 MLOAD PUSH2 0x5274 SWAP3 SWAP2 SWAP1 PUSH2 0x5B2F JUMP JUMPDEST PUSH1 0x40 MLOAD DUP1 SWAP2 SUB SWAP1 LOG1 POP POP POP POP POP JUMP JUMPDEST PUSH1 0x0 PUSH2 0x528D PUSH2 0x52DF JUMP JUMPDEST DUP1 SLOAD PUSH1 0x1 PUSH1 0x1 PUSH1 0xA0 SHL SUB DUP5 DUP2 AND PUSH1 0x1 PUSH1 0x1 PUSH1 0xA0 SHL SUB NOT DUP4 AND DUP2 OR DUP5 SSTORE PUSH1 0x40 MLOAD SWAP4 SWAP5 POP SWAP2 AND SWAP2 DUP3 SWAP1 PUSH32 0x8BE0079C531659141344CD1FD0A4F28419497F9722A3DAAFE3B4186F6B6457E0 SWAP1 PUSH1 0x0 SWAP1 LOG3 POP POP POP JUMP JUMPDEST PUSH32 0x9016D09D72D40FDAE2FD8CEAC6B6234C7706214FD39C1CD1E609A0528C199300 SWAP1 JUMP JUMPDEST PUSH1 0x0 DUP2 DUP2 MSTORE PUSH1 0x1E PUSH1 0x20 SWAP1 DUP2 MSTORE PUSH1 0x40 DUP1 DUP4 KECCAK256 SLOAD PUSH1 0x1D DUP4 MSTORE DUP2 DUP5 KECCAK256 DUP1 SLOAD DUP4 MLOAD DUP2 DUP7 MUL DUP2 ADD DUP7 ADD SWAP1 SWAP5 MSTORE DUP1 DUP5 MSTORE PUSH1 0x1 PUSH1 0x1 PUSH1 0xA0 SHL SUB SWAP1 SWAP3 AND SWAP5 SWAP4 SWAP1 SWAP2 SWAP1 DUP5 SWAP1 DUP5 ADD JUMPDEST DUP3 DUP3 LT ISZERO PUSH2 0x538A JUMPI PUSH1 0x0 DUP5 DUP2 MSTORE PUSH1 0x20 SWAP1 DUP2 SWAP1 KECCAK256 PUSH1 0x40 DUP1 MLOAD DUP1 DUP3 ADD SWAP1 SWAP2 MSTORE PUSH1 0x2 DUP6 MUL SWAP1 SWAP2 ADD DUP1 SLOAD PUSH1 0x1 PUSH1 0x1 PUSH1 0xA0 SHL SUB AND DUP3 MSTORE PUSH1 0x1 SWAP1 DUP2 ADD SLOAD DUP3 DUP5 ADD MSTORE SWAP1 DUP4 MSTORE SWAP1 SWAP3 ADD SWAP2 ADD PUSH2 0x5342 JUMP JUMPDEST POP POP POP POP SWAP1 POP PUSH1 0x0 JUMPDEST DUP2 MLOAD DUP2 LT ISZERO PUSH2 0x54B2 JUMPI PUSH1 0x0 PUSH2 0x53E4 DUP4 DUP4 DUP2 MLOAD DUP2 LT PUSH2 0x53B3 JUMPI PUSH2 0x53B3 PUSH2 0x602F JUMP JUMPDEST PUSH1 0x20 MUL PUSH1 0x20 ADD ADD MLOAD PUSH1 0x0 ADD MLOAD DUP5 DUP5 DUP2 MLOAD DUP2 LT PUSH2 0x53D1 JUMPI PUSH2 0x53D1 PUSH2 0x602F JUMP JUMPDEST PUSH1 0x20 MUL PUSH1 0x20 ADD ADD MLOAD PUSH1 0x20 ADD MLOAD PUSH1 0x4 PUSH2 0x4B8B JUMP JUMPDEST SWAP1 POP DUP1 ISZERO PUSH2 0x5448 JUMPI DUP4 PUSH1 0x1 PUSH1 0x1 PUSH1 0xA0 SHL SUB AND DUP4 DUP4 DUP2 MLOAD DUP2 LT PUSH2 0x5408 JUMPI PUSH2 0x5408 PUSH2 0x602F JUMP JUMPDEST PUSH1 0x20 MUL PUSH1 0x20 ADD ADD MLOAD PUSH1 0x0 ADD MLOAD PUSH1 0x1 PUSH1 0x1 PUSH1 0xA0 SHL SUB AND PUSH1 0x0 DUP1 MLOAD PUSH1 0x20 PUSH2 0x60F6 DUP4 CODECOPY DUP2 MLOAD SWAP2 MSTORE DUP4 PUSH1 0x4 DUP10 PUSH1 0x40 MLOAD PUSH2 0x543F SWAP4 SWAP3 SWAP2 SWAP1 PUSH2 0x608D JUMP JUMPDEST PUSH1 0x40 MLOAD DUP1 SWAP2 SUB SWAP1 LOG3 JUMPDEST DUP3 DUP3 DUP2 MLOAD DUP2 LT PUSH2 0x545A JUMPI PUSH2 0x545A PUSH2 0x602F JUMP JUMPDEST PUSH1 0x20 MUL PUSH1 0x20 ADD ADD MLOAD PUSH1 0x0 ADD MLOAD PUSH1 0x1 PUSH1 0x1 PUSH1 0xA0 SHL SUB AND DUP6 PUSH32 0xAE629B396150638D6EB6DE457CBFFE5D618A10C8CC199A94976BED2B16ECD993 DUP4 PUSH1 0x40 MLOAD PUSH2 0x54A1 SWAP2 DUP2 MSTORE PUSH1 0x20 ADD SWAP1 JUMP JUMPDEST PUSH1 0x40 MLOAD DUP1 SWAP2 SUB SWAP1 LOG3 POP PUSH1 0x1 ADD PUSH2 0x5393 JUMP JUMPDEST POP PUSH1 0x0 DUP4 DUP2 MSTORE PUSH1 0x1D PUSH1 0x20 MSTORE PUSH1 0x40 DUP2 KECCAK256 PUSH2 0x4966 SWAP2 PUSH2 0x59FE JUMP JUMPDEST PUSH1 0x0 DUP1 PUSH32 0xF0C57E16840DF040F15088DC2F81FE391C3923BEC73E23A9662EFC9C229C6A00 JUMPDEST SWAP3 SWAP2 POP POP JUMP JUMPDEST PUSH2 0x54FD PUSH2 0x5843 JUMP JUMPDEST PUSH2 0x12C6 DUP2 PUSH2 0x5868 JUMP JUMPDEST PUSH2 0x1984 PUSH2 0x5843 JUMP JUMPDEST PUSH2 0x5516 PUSH2 0x5843 JUMP JUMPDEST PUSH2 0x1984 PUSH2 0x5870 JUMP JUMPDEST PUSH32 0x9B779B17422D0DF92223018B32B4D1FA46E071723D6817E2486D003BECC55F00 SWAP1 JUMP JUMPDEST PUSH1 0x1 PUSH1 0x1 PUSH1 0xA0 SHL SUB DUP3 AND ISZERO DUP1 PUSH2 0x5556 JUMPI POP DUP1 ISZERO JUMPDEST ISZERO PUSH2 0x555F JUMPI POP POP JUMP JUMPDEST PUSH1 0x1 PUSH1 0x1 PUSH1 0xA0 SHL SUB DUP3 DUP2 AND PUSH1 0x0 SWAP1 DUP2 MSTORE PUSH1 0xF PUSH1 0x20 MSTORE PUSH1 0x40 DUP1 DUP3 KECCAK256 SLOAD DUP2 MLOAD PUSH1 0x14 DUP1 DUP3 MSTORE PUSH2 0x2A0 DUP3 ADD SWAP1 SWAP4 MSTORE SWAP4 AND SWAP3 DUP3 SWAP2 DUP2 PUSH1 0x20 ADD PUSH1 0x20 DUP3 MUL DUP1 CALLDATASIZE DUP4 CALLDATACOPY ADD SWAP1 POP POP SWAP1 POP JUMPDEST PUSH1 0x1 PUSH1 0x1 PUSH1 0xA0 SHL SUB DUP4 AND ISZERO DUP1 ISZERO SWAP1 PUSH2 0x55B9 JUMPI POP PUSH1 0x14 DUP3 LT JUMPDEST ISZERO PUSH2 0x47FE JUMPI PUSH1 0x0 JUMPDEST DUP3 DUP2 LT ISZERO PUSH2 0x560B JUMPI DUP4 PUSH1 0x1 PUSH1 0x1 PUSH1 0xA0 SHL SUB AND DUP3 DUP3 DUP2 MLOAD DUP2 LT PUSH2 0x55E5 JUMPI PUSH2 0x55E5 PUSH2 0x602F JUMP JUMPDEST PUSH1 0x20 MUL PUSH1 0x20 ADD ADD MLOAD PUSH1 0x1 PUSH1 0x1 PUSH1 0xA0 SHL SUB AND SUB PUSH2 0x5603 JUMPI POP POP POP POP POP POP JUMP JUMPDEST PUSH1 0x1 ADD PUSH2 0x55C1 JUMP JUMPDEST POP DUP3 DUP2 DUP4 DUP2 MLOAD DUP2 LT PUSH2 0x561F JUMPI PUSH2 0x561F PUSH2 0x602F JUMP JUMPDEST PUSH1 0x1 PUSH1 0x1 PUSH1 0xA0 SHL SUB SWAP3 DUP4 AND PUSH1 0x20 SWAP2 DUP3 MUL SWAP3 SWAP1 SWAP3 ADD DUP2 ADD SWAP2 SWAP1 SWAP2 MSTORE SWAP1 DUP5 AND PUSH1 0x0 SWAP1 DUP2 MSTORE PUSH1 0xF SWAP1 SWAP2 MSTORE PUSH1 0x40 DUP2 KECCAK256 PUSH1 0x2 ADD SLOAD SWAP1 DUP1 DUP7 SGT ISZERO PUSH2 0x56B9 JUMPI DUP6 DUP3 PUSH2 0x5663 DUP3 DUP3 PUSH2 0x5FCE JUMP JUMPDEST LT ISZERO PUSH2 0x56A7 JUMPI PUSH1 0x40 MLOAD PUSH3 0x461BCD PUSH1 0xE5 SHL DUP2 MSTORE PUSH1 0x20 PUSH1 0x4 DUP3 ADD MSTORE PUSH1 0x13 PUSH1 0x24 DUP3 ADD MSTORE PUSH19 0x5465616D20636F756E74206F766572666C6F77 PUSH1 0x68 SHL PUSH1 0x44 DUP3 ADD MSTORE PUSH1 0x64 ADD PUSH2 0xF59 JUMP JUMPDEST PUSH2 0x56B1 DUP2 DUP5 PUSH2 0x5FCE JUMP JUMPDEST SWAP2 POP POP PUSH2 0x56E3 JUMP JUMPDEST PUSH1 0x0 PUSH2 0x56C4 DUP8 PUSH2 0x60BD JUMP JUMPDEST SWAP1 POP DUP3 DUP2 GT PUSH2 0x56DC JUMPI PUSH2 0x56D7 DUP2 DUP5 PUSH2 0x6003 JUMP JUMPDEST PUSH2 0x56DF JUMP JUMPDEST PUSH1 0x0 JUMPDEST SWAP2 POP POP JUMPDEST PUSH1 0x1 PUSH1 0x1 PUSH1 0xA0 SHL SUB DUP6 AND PUSH1 0x0 DUP2 DUP2 MSTORE PUSH1 0xF PUSH1 0x20 MSTORE PUSH1 0x40 SWAP1 DUP2 SWAP1 KECCAK256 PUSH1 0x2 ADD DUP4 SWAP1 SSTORE MLOAD PUSH1 0x0 DUP1 MLOAD PUSH1 0x20 PUSH2 0x6136 DUP4 CODECOPY DUP2 MLOAD SWAP2 MSTORE SWAP1 PUSH2 0x5721 SWAP1 DUP6 SWAP1 DUP6 SWAP1 PUSH2 0x5B2F JUMP JUMPDEST PUSH1 0x40 MLOAD DUP1 SWAP2 SUB SWAP1 LOG2 PUSH1 0x1 PUSH1 0x1 PUSH1 0xA0 SHL SUB SWAP5 DUP6 AND PUSH1 0x0 SWAP1 DUP2 MSTORE PUSH1 0xF PUSH1 0x20 MSTORE PUSH1 0x40 SWAP1 KECCAK256 SLOAD SWAP1 SWAP5 AND SWAP4 DUP4 PUSH2 0x5751 DUP2 PUSH2 0x6074 JUMP JUMPDEST SWAP5 POP POP POP POP PUSH2 0x55A1 JUMP JUMPDEST PUSH2 0x5764 DUP3 PUSH2 0x5878 JUMP JUMPDEST PUSH1 0x40 MLOAD PUSH1 0x1 PUSH1 0x1 PUSH1 0xA0 SHL SUB DUP4 AND SWAP1 PUSH32 0xBC7CD75A20EE27FD9ADEBAB32041F755214DBC6BFFA90CC0225B39DA2E5C2D3B SWAP1 PUSH1 0x0 SWAP1 LOG2 DUP1 MLOAD ISZERO PUSH2 0x57A9 JUMPI PUSH2 0x4966 DUP3 DUP3 PUSH2 0x58D4 JUMP JUMPDEST PUSH2 0x1F33 PUSH2 0x594A JUMP JUMPDEST PUSH1 0x1 PUSH1 0x1 PUSH1 0xA0 SHL SUB DUP2 AND PUSH1 0x0 SWAP1 DUP2 MSTORE PUSH1 0x11 PUSH1 0x20 MSTORE PUSH1 0x40 DUP2 KECCAK256 DUP2 JUMPDEST DUP2 SLOAD DUP2 LT ISZERO PUSH2 0x583C JUMPI DUP2 DUP2 DUP2 SLOAD DUP2 LT PUSH2 0x57E6 JUMPI PUSH2 0x57E6 PUSH2 0x602F JUMP JUMPDEST PUSH1 0x0 SWAP2 DUP3 MSTORE PUSH1 0x20 SWAP1 SWAP2 KECCAK256 PUSH1 0x4 PUSH1 0x6 SWAP1 SWAP3 MUL ADD ADD SLOAD PUSH1 0xFF AND ISZERO PUSH2 0x5834 JUMPI DUP2 DUP2 DUP2 SLOAD DUP2 LT PUSH2 0x5814 JUMPI PUSH2 0x5814 PUSH2 0x602F JUMP JUMPDEST SWAP1 PUSH1 0x0 MSTORE PUSH1 0x20 PUSH1 0x0 KECCAK256 SWAP1 PUSH1 0x6 MUL ADD PUSH1 0x1 ADD SLOAD DUP4 PUSH2 0x5831 SWAP2 SWAP1 PUSH2 0x5FCE JUMP JUMPDEST SWAP3 POP JUMPDEST PUSH1 0x1 ADD PUSH2 0x57CB JUMP JUMPDEST POP POP SWAP2 SWAP1 POP JUMP JUMPDEST PUSH2 0x584B PUSH2 0x5969 JUMP JUMPDEST PUSH2 0x1984 JUMPI PUSH1 0x40 MLOAD PUSH4 0x1AFCD79F PUSH1 0xE3 SHL DUP2 MSTORE PUSH1 0x4 ADD PUSH1 0x40 MLOAD DUP1 SWAP2 SUB SWAP1 REVERT JUMPDEST PUSH2 0x3E8D PUSH2 0x5843 JUMP JUMPDEST PUSH2 0x3F28 PUSH2 0x5843 JUMP JUMPDEST DUP1 PUSH1 0x1 PUSH1 0x1 PUSH1 0xA0 SHL SUB AND EXTCODESIZE PUSH1 0x0 SUB PUSH2 0x58A5 JUMPI DUP1 PUSH1 0x40 MLOAD PUSH4 0x4C9C8CE3 PUSH1 0xE0 SHL DUP2 MSTORE PUSH1 0x4 ADD PUSH2 0xF59 SWAP2 SWAP1 PUSH2 0x5AEC JUMP JUMPDEST PUSH1 0x0 DUP1 MLOAD PUSH1 0x20 PUSH2 0x6156 DUP4 CODECOPY DUP2 MLOAD SWAP2 MSTORE DUP1 SLOAD PUSH1 0x1 PUSH1 0x1 PUSH1 0xA0 SHL SUB NOT AND PUSH1 0x1 PUSH1 0x1 PUSH1 0xA0 SHL SUB SWAP3 SWAP1 SWAP3 AND SWAP2 SWAP1 SWAP2 OR SWAP1 SSTORE JUMP JUMPDEST PUSH1 0x60 PUSH1 0x0 DUP1 DUP5 PUSH1 0x1 PUSH1 0x1 PUSH1 0xA0 SHL SUB AND DUP5 PUSH1 0x40 MLOAD PUSH2 0x58F1 SWAP2 SWAP1 PUSH2 0x60D9 JUMP JUMPDEST PUSH1 0x0 PUSH1 0x40 MLOAD DUP1 DUP4 SUB DUP2 DUP6 GAS DELEGATECALL SWAP2 POP POP RETURNDATASIZE DUP1 PUSH1 0x0 DUP2 EQ PUSH2 0x592C JUMPI PUSH1 0x40 MLOAD SWAP2 POP PUSH1 0x1F NOT PUSH1 0x3F RETURNDATASIZE ADD AND DUP3 ADD PUSH1 0x40 MSTORE RETURNDATASIZE DUP3 MSTORE RETURNDATASIZE PUSH1 0x0 PUSH1 0x20 DUP5 ADD RETURNDATACOPY PUSH2 0x5931 JUMP JUMPDEST PUSH1 0x60 SWAP2 POP JUMPDEST POP SWAP2 POP SWAP2 POP PUSH2 0x5941 DUP6 DUP4 DUP4 PUSH2 0x5983 JUMP JUMPDEST SWAP6 SWAP5 POP POP POP POP POP JUMP JUMPDEST CALLVALUE ISZERO PUSH2 0x1984 JUMPI PUSH1 0x40 MLOAD PUSH4 0xB398979F PUSH1 0xE0 SHL DUP2 MSTORE PUSH1 0x4 ADD PUSH1 0x40 MLOAD DUP1 SWAP2 SUB SWAP1 REVERT JUMPDEST PUSH1 0x0 PUSH2 0x5973 PUSH2 0x54CA JUMP JUMPDEST SLOAD PUSH1 0x1 PUSH1 0x40 SHL SWAP1 DIV PUSH1 0xFF AND SWAP2 SWAP1 POP JUMP JUMPDEST PUSH1 0x60 DUP3 PUSH2 0x5998 JUMPI PUSH2 0x5993 DUP3 PUSH2 0x59D6 JUMP JUMPDEST PUSH2 0x4DD1 JUMP JUMPDEST DUP2 MLOAD ISZERO DUP1 ISZERO PUSH2 0x59AF JUMPI POP PUSH1 0x1 PUSH1 0x1 PUSH1 0xA0 SHL SUB DUP5 AND EXTCODESIZE ISZERO JUMPDEST ISZERO PUSH2 0x59CF JUMPI DUP4 PUSH1 0x40 MLOAD PUSH4 0x9996B315 PUSH1 0xE0 SHL DUP2 MSTORE PUSH1 0x4 ADD PUSH2 0xF59 SWAP2 SWAP1 PUSH2 0x5AEC JUMP JUMPDEST POP DUP1 PUSH2 0x4DD1 JUMP JUMPDEST DUP1 MLOAD ISZERO PUSH2 0x59E5 JUMPI DUP1 MLOAD PUSH1 0x20 DUP3 ADD REVERT JUMPDEST PUSH1 0x40 MLOAD PUSH4 0xD6BDA275 PUSH1 0xE0 SHL DUP2 MSTORE PUSH1 0x4 ADD PUSH1 0x40 MLOAD DUP1 SWAP2 SUB SWAP1 REVERT JUMPDEST POP DUP1 SLOAD PUSH1 0x0 DUP3 SSTORE PUSH1 0x2 MUL SWAP1 PUSH1 0x0 MSTORE PUSH1 0x20 PUSH1 0x0 KECCAK256 SWAP1 DUP2 ADD SWAP1 PUSH2 0x12C6 SWAP2 SWAP1 JUMPDEST DUP1 DUP3 GT ISZERO PUSH2 0x5A40 JUMPI DUP1 SLOAD PUSH1 0x1 PUSH1 0x1 PUSH1 0xA0 SHL SUB NOT AND DUP2 SSTORE PUSH1 0x0 PUSH1 0x1 DUP3 ADD SSTORE PUSH1 0x2 ADD PUSH2 0x5A1B JUMP JUMPDEST POP SWAP1 JUMP JUMPDEST DUP1 ISZERO ISZERO DUP2 EQ PUSH2 0x12C6 JUMPI PUSH1 0x0 DUP1 REVERT JUMPDEST PUSH1 0x0 DUP1 PUSH1 0x40 DUP4 DUP6 SUB SLT ISZERO PUSH2 0x5A65 JUMPI PUSH1 0x0 DUP1 REVERT JUMPDEST DUP3 CALLDATALOAD PUSH2 0x5A70 DUP2 PUSH2 0x5A44 JUMP JUMPDEST SWAP2 POP PUSH1 0x20 DUP4 ADD CALLDATALOAD PUSH2 0x5A80 DUP2 PUSH2 0x5A44 JUMP JUMPDEST DUP1 SWAP2 POP POP SWAP3 POP SWAP3 SWAP1 POP JUMP JUMPDEST DUP1 CALLDATALOAD PUSH1 0x1 PUSH1 0x1 PUSH1 0xA0 SHL SUB DUP2 AND DUP2 EQ PUSH2 0x5AA2 JUMPI PUSH1 0x0 DUP1 REVERT JUMPDEST SWAP2 SWAP1 POP JUMP JUMPDEST PUSH1 0x0 PUSH1 0x20 DUP3 DUP5 SUB SLT ISZERO PUSH2 0x5AB9 JUMPI PUSH1 0x0 DUP1 REVERT JUMPDEST PUSH2 0x4DD1 DUP3 PUSH2 0x5A8B JUMP JUMPDEST PUSH1 0x0 DUP1 PUSH1 0x40 DUP4 DUP6 SUB SLT ISZERO PUSH2 0x5AD5 JUMPI PUSH1 0x0 DUP1 REVERT JUMPDEST PUSH2 0x5ADE DUP4 PUSH2 0x5A8B JUMP JUMPDEST SWAP5 PUSH1 0x20 SWAP4 SWAP1 SWAP4 ADD CALLDATALOAD SWAP4 POP POP POP JUMP JUMPDEST PUSH1 0x1 PUSH1 0x1 PUSH1 0xA0 SHL SUB SWAP2 SWAP1 SWAP2 AND DUP2 MSTORE PUSH1 0x20 ADD SWAP1 JUMP JUMPDEST PUSH1 0x0 PUSH1 0x20 DUP3 DUP5 SUB SLT ISZERO PUSH2 0x5B12 JUMPI PUSH1 0x0 DUP1 REVERT JUMPDEST POP CALLDATALOAD SWAP2 SWAP1 POP JUMP JUMPDEST SWAP3 DUP4 MSTORE PUSH1 0x20 DUP4 ADD SWAP2 SWAP1 SWAP2 MSTORE PUSH1 0x40 DUP3 ADD MSTORE PUSH1 0x60 ADD SWAP1 JUMP JUMPDEST SWAP2 DUP3 MSTORE PUSH1 0x20 DUP3 ADD MSTORE PUSH1 0x40 ADD SWAP1 JUMP JUMPDEST PUSH1 0x0 DUP1 PUSH1 0x40 DUP4 DUP6 SUB SLT ISZERO PUSH2 0x5B50 JUMPI PUSH1 0x0 DUP1 REVERT JUMPDEST POP POP DUP1 CALLDATALOAD SWAP3 PUSH1 0x20 SWAP1 SWAP2 ADD CALLDATALOAD SWAP2 POP JUMP JUMPDEST PUSH4 0x4E487B71 PUSH1 0xE0 SHL PUSH1 0x0 MSTORE PUSH1 0x41 PUSH1 0x4 MSTORE PUSH1 0x24 PUSH1 0x0 REVERT JUMPDEST PUSH1 0x0 DUP1 PUSH1 0x40 DUP4 DUP6 SUB SLT ISZERO PUSH2 0x5B88 JUMPI PUSH1 0x0 DUP1 REVERT JUMPDEST PUSH2 0x5B91 DUP4 PUSH2 0x5A8B JUMP JUMPDEST SWAP2 POP PUSH1 0x20 DUP4 ADD CALLDATALOAD PUSH1 0x1 PUSH1 0x1 PUSH1 0x40 SHL SUB DUP1 DUP3 GT ISZERO PUSH2 0x5BAD JUMPI PUSH1 0x0 DUP1 REVERT JUMPDEST DUP2 DUP6 ADD SWAP2 POP DUP6 PUSH1 0x1F DUP4 ADD SLT PUSH2 0x5BC1 JUMPI PUSH1 0x0 DUP1 REVERT JUMPDEST DUP2 CALLDATALOAD DUP2 DUP2 GT ISZERO PUSH2 0x5BD3 JUMPI PUSH2 0x5BD3 PUSH2 0x5B5F JUMP JUMPDEST PUSH1 0x40 MLOAD PUSH1 0x1F DUP3 ADD PUSH1 0x1F NOT SWAP1 DUP2 AND PUSH1 0x3F ADD AND DUP2 ADD SWAP1 DUP4 DUP3 GT DUP2 DUP4 LT OR ISZERO PUSH2 0x5BFB JUMPI PUSH2 0x5BFB PUSH2 0x5B5F JUMP JUMPDEST DUP2 PUSH1 0x40 MSTORE DUP3 DUP2 MSTORE DUP9 PUSH1 0x20 DUP5 DUP8 ADD ADD GT ISZERO PUSH2 0x5C14 JUMPI PUSH1 0x0 DUP1 REVERT JUMPDEST DUP3 PUSH1 0x20 DUP7 ADD PUSH1 0x20 DUP4 ADD CALLDATACOPY PUSH1 0x0 PUSH1 0x20 DUP5 DUP4 ADD ADD MSTORE DUP1 SWAP6 POP POP POP POP POP POP SWAP3 POP SWAP3 SWAP1 POP JUMP JUMPDEST PUSH1 0x0 DUP1 DUP4 PUSH1 0x1F DUP5 ADD SLT PUSH2 0x5C48 JUMPI PUSH1 0x0 DUP1 REVERT JUMPDEST POP DUP2 CALLDATALOAD PUSH1 0x1 PUSH1 0x1 PUSH1 0x40 SHL SUB DUP2 GT ISZERO PUSH2 0x5C5F JUMPI PUSH1 0x0 DUP1 REVERT JUMPDEST PUSH1 0x20 DUP4 ADD SWAP2 POP DUP4 PUSH1 0x20 DUP3 PUSH1 0x5 SHL DUP6 ADD ADD GT ISZERO PUSH2 0x5C7A JUMPI PUSH1 0x0 DUP1 REVERT JUMPDEST SWAP3 POP SWAP3 SWAP1 POP JUMP JUMPDEST PUSH1 0x0 DUP1 PUSH1 0x0 DUP1 PUSH1 0x40 DUP6 DUP8 SUB SLT ISZERO PUSH2 0x5C97 JUMPI PUSH1 0x0 DUP1 REVERT JUMPDEST DUP5 CALLDATALOAD PUSH1 0x1 PUSH1 0x1 PUSH1 0x40 SHL SUB DUP1 DUP3 GT ISZERO PUSH2 0x5CAE JUMPI PUSH1 0x0 DUP1 REVERT JUMPDEST PUSH2 0x5CBA DUP9 DUP4 DUP10 ADD PUSH2 0x5C36 JUMP JUMPDEST SWAP1 SWAP7 POP SWAP5 POP PUSH1 0x20 DUP8 ADD CALLDATALOAD SWAP2 POP DUP1 DUP3 GT ISZERO PUSH2 0x5CD3 JUMPI PUSH1 0x0 DUP1 REVERT JUMPDEST POP PUSH2 0x5CE0 DUP8 DUP3 DUP9 ADD PUSH2 0x5C36 JUMP JUMPDEST SWAP6 SWAP9 SWAP5 SWAP8 POP SWAP6 POP POP POP POP JUMP JUMPDEST PUSH1 0x1 PUSH1 0x1 PUSH1 0xA0 SHL SUB SWAP3 SWAP1 SWAP3 AND DUP3 MSTORE PUSH1 0x20 DUP3 ADD MSTORE PUSH1 0x40 ADD SWAP1 JUMP JUMPDEST PUSH1 0x0 DUP1 PUSH1 0x0 DUP1 PUSH1 0x80 DUP6 DUP8 SUB SLT ISZERO PUSH2 0x5D1B JUMPI PUSH1 0x0 DUP1 REVERT JUMPDEST PUSH2 0x5D24 DUP6 PUSH2 0x5A8B JUMP JUMPDEST SWAP4 POP PUSH2 0x5D32 PUSH1 0x20 DUP7 ADD PUSH2 0x5A8B JUMP JUMPDEST SWAP3 POP PUSH2 0x5D40 PUSH1 0x40 DUP7 ADD PUSH2 0x5A8B JUMP JUMPDEST SWAP2 POP PUSH2 0x5D4E PUSH1 0x60 DUP7 ADD PUSH2 0x5A8B JUMP JUMPDEST SWAP1 POP SWAP3 SWAP6 SWAP2 SWAP5 POP SWAP3 POP JUMP JUMPDEST PUSH1 0x0 JUMPDEST DUP4 DUP2 LT ISZERO PUSH2 0x5D74 JUMPI DUP2 DUP2 ADD MLOAD DUP4 DUP3 ADD MSTORE PUSH1 0x20 ADD PUSH2 0x5D5C JUMP JUMPDEST POP POP PUSH1 0x0 SWAP2 ADD MSTORE JUMP JUMPDEST PUSH1 0x20 DUP2 MSTORE PUSH1 0x0 DUP3 MLOAD DUP1 PUSH1 0x20 DUP5 ADD MSTORE PUSH2 0x5D9C DUP2 PUSH1 0x40 DUP6 ADD PUSH1 0x20 DUP8 ADD PUSH2 0x5D59 JUMP JUMPDEST PUSH1 0x1F ADD PUSH1 0x1F NOT AND SWAP2 SWAP1 SWAP2 ADD PUSH1 0x40 ADD SWAP3 SWAP2 POP POP JUMP JUMPDEST PUSH1 0x0 DUP1 PUSH1 0x0 DUP1 PUSH1 0x0 DUP1 PUSH1 0xC0 DUP8 DUP10 SUB SLT ISZERO PUSH2 0x5DC9 JUMPI PUSH1 0x0 DUP1 REVERT JUMPDEST PUSH2 0x5DD2 DUP8 PUSH2 0x5A8B JUMP JUMPDEST SWAP6 POP PUSH2 0x5DE0 PUSH1 0x20 DUP9 ADD PUSH2 0x5A8B JUMP JUMPDEST SWAP5 POP PUSH2 0x5DEE PUSH1 0x40 DUP9 ADD PUSH2 0x5A8B JUMP JUMPDEST SWAP4 POP PUSH2 0x5DFC PUSH1 0x60 DUP9 ADD PUSH2 0x5A8B JUMP JUMPDEST SWAP3 POP PUSH2 0x5E0A PUSH1 0x80 DUP9 ADD PUSH2 0x5A8B JUMP JUMPDEST SWAP2 POP PUSH2 0x5E18 PUSH1 0xA0 DUP9 ADD PUSH2 0x5A8B JUMP JUMPDEST SWAP1 POP SWAP3 SWAP6 POP SWAP3 SWAP6 POP SWAP3 SWAP6 JUMP JUMPDEST PUSH1 0x0 DUP1 PUSH1 0x0 PUSH1 0x60 DUP5 DUP7 SUB SLT ISZERO PUSH2 0x5E39 JUMPI PUSH1 0x0 DUP1 REVERT JUMPDEST PUSH2 0x5E42 DUP5 PUSH2 0x5A8B JUMP JUMPDEST SWAP3 POP PUSH2 0x5E50 PUSH1 0x20 DUP6 ADD PUSH2 0x5A8B JUMP JUMPDEST SWAP2 POP PUSH1 0x40 DUP5 ADD CALLDATALOAD SWAP1 POP SWAP3 POP SWAP3 POP SWAP3 JUMP JUMPDEST PUSH1 0x0 DUP1 PUSH1 0x0 DUP1 PUSH1 0x0 DUP1 PUSH1 0xC0 DUP8 DUP10 SUB SLT ISZERO PUSH2 0x5E79 JUMPI PUSH1 0x0 DUP1 REVERT JUMPDEST POP POP DUP5 CALLDATALOAD SWAP7 PUSH1 0x20 DUP7 ADD CALLDATALOAD SWAP7 POP PUSH1 0x40 DUP7 ADD CALLDATALOAD SWAP6 PUSH1 0x60 DUP2 ADD CALLDATALOAD SWAP6 POP PUSH1 0x80 DUP2 ADD CALLDATALOAD SWAP5 POP PUSH1 0xA0 ADD CALLDATALOAD SWAP3 POP SWAP1 POP JUMP JUMPDEST PUSH1 0x20 DUP1 DUP3 MSTORE DUP3 MLOAD DUP3 DUP3 ADD DUP2 SWAP1 MSTORE PUSH1 0x0 SWAP2 SWAP1 DUP5 DUP3 ADD SWAP1 PUSH1 0x40 DUP6 ADD SWAP1 DUP5 JUMPDEST DUP2 DUP2 LT ISZERO PUSH2 0x5EE4 JUMPI DUP4 MLOAD PUSH1 0x1 PUSH1 0x1 PUSH1 0xA0 SHL SUB AND DUP4 MSTORE SWAP3 DUP5 ADD SWAP3 SWAP2 DUP5 ADD SWAP2 PUSH1 0x1 ADD PUSH2 0x5EBF JUMP JUMPDEST POP SWAP1 SWAP7 SWAP6 POP POP POP POP POP POP JUMP JUMPDEST PUSH1 0x0 DUP1 PUSH1 0x0 DUP1 PUSH1 0x80 DUP6 DUP8 SUB SLT ISZERO PUSH2 0x5F06 JUMPI PUSH1 0x0 DUP1 REVERT JUMPDEST PUSH2 0x5F0F DUP6 PUSH2 0x5A8B JUMP JUMPDEST SWAP4 POP PUSH1 0x20 DUP6 ADD CALLDATALOAD SWAP3 POP PUSH2 0x5F24 PUSH1 0x40 DUP7 ADD PUSH2 0x5A8B JUMP JUMPDEST SWAP4 SWAP7 SWAP3 SWAP6 POP SWAP3 SWAP4 PUSH1 0x60 ADD CALLDATALOAD SWAP3 POP POP JUMP JUMPDEST PUSH1 0x20 DUP1 DUP3 MSTORE PUSH1 0x12 SWAP1 DUP3 ADD MSTORE PUSH18 0x10DBDB9D1C9858DD081A5CC81C185D5CD959 PUSH1 0x72 SHL PUSH1 0x40 DUP3 ADD MSTORE PUSH1 0x60 ADD SWAP1 JUMP JUMPDEST PUSH1 0x1 PUSH1 0x1 PUSH1 0xA0 SHL SUB SWAP4 DUP5 AND DUP2 MSTORE SWAP2 SWAP1 SWAP3 AND PUSH1 0x20 DUP3 ADD MSTORE PUSH1 0x40 DUP2 ADD SWAP2 SWAP1 SWAP2 MSTORE PUSH1 0x60 ADD SWAP1 JUMP JUMPDEST PUSH1 0x0 PUSH1 0x20 DUP3 DUP5 SUB SLT ISZERO PUSH2 0x5F96 JUMPI PUSH1 0x0 DUP1 REVERT JUMPDEST DUP2 MLOAD PUSH2 0x4DD1 DUP2 PUSH2 0x5A44 JUMP JUMPDEST PUSH4 0x4E487B71 PUSH1 0xE0 SHL PUSH1 0x0 MSTORE PUSH1 0x11 PUSH1 0x4 MSTORE PUSH1 0x24 PUSH1 0x0 REVERT JUMPDEST DUP1 DUP3 MUL DUP2 ISZERO DUP3 DUP3 DIV DUP5 EQ OR PUSH2 0x54EF JUMPI PUSH2 0x54EF PUSH2 0x5FA1 JUMP JUMPDEST DUP1 DUP3 ADD DUP1 DUP3 GT ISZERO PUSH2 0x54EF JUMPI PUSH2 0x54EF PUSH2 0x5FA1 JUMP JUMPDEST PUSH1 0x0 DUP3 PUSH2 0x5FFE JUMPI PUSH4 0x4E487B71 PUSH1 0xE0 SHL PUSH1 0x0 MSTORE PUSH1 0x12 PUSH1 0x4 MSTORE PUSH1 0x24 PUSH1 0x0 REVERT JUMPDEST POP DIV SWAP1 JUMP JUMPDEST DUP2 DUP2 SUB DUP2 DUP2 GT ISZERO PUSH2 0x54EF JUMPI PUSH2 0x54EF PUSH2 0x5FA1 JUMP JUMPDEST PUSH1 0x0 PUSH1 0x20 DUP3 DUP5 SUB SLT ISZERO PUSH2 0x6028 JUMPI PUSH1 0x0 DUP1 REVERT JUMPDEST POP MLOAD SWAP2 SWAP1 POP JUMP JUMPDEST PUSH4 0x4E487B71 PUSH1 0xE0 SHL PUSH1 0x0 MSTORE PUSH1 0x32 PUSH1 0x4 MSTORE PUSH1 0x24 PUSH1 0x0 REVERT JUMPDEST SWAP2 DUP3 MSTORE PUSH1 0xFF AND PUSH1 0x20 DUP3 ADD MSTORE PUSH1 0x40 ADD SWAP1 JUMP JUMPDEST SWAP4 DUP5 MSTORE PUSH1 0x20 DUP5 ADD SWAP3 SWAP1 SWAP3 MSTORE PUSH1 0xFF AND PUSH1 0x40 DUP4 ADD MSTORE PUSH1 0x60 DUP3 ADD MSTORE PUSH1 0x80 ADD SWAP1 JUMP JUMPDEST PUSH1 0x0 PUSH1 0x1 DUP3 ADD PUSH2 0x6086 JUMPI PUSH2 0x6086 PUSH2 0x5FA1 JUMP JUMPDEST POP PUSH1 0x1 ADD SWAP1 JUMP JUMPDEST SWAP3 DUP4 MSTORE PUSH1 0xFF SWAP2 SWAP1 SWAP2 AND PUSH1 0x20 DUP4 ADD MSTORE PUSH1 0x40 DUP3 ADD MSTORE PUSH1 0x60 ADD SWAP1 JUMP JUMPDEST PUSH1 0x0 DUP2 PUSH2 0x60B5 JUMPI PUSH2 0x60B5 PUSH2 0x5FA1 JUMP JUMPDEST POP PUSH1 0x0 NOT ADD SWAP1 JUMP JUMPDEST PUSH1 0x0 PUSH1 0x1 PUSH1 0xFF SHL DUP3 ADD PUSH2 0x60D2 JUMPI PUSH2 0x60D2 PUSH2 0x5FA1 JUMP JUMPDEST POP PUSH1 0x0 SUB SWAP1 JUMP JUMPDEST PUSH1 0x0 DUP3 MLOAD PUSH2 0x60EB DUP2 DUP5 PUSH1 0x20 DUP8 ADD PUSH2 0x5D59 JUMP JUMPDEST SWAP2 SWAP1 SWAP2 ADD SWAP3 SWAP2 POP POP JUMP INVALID SWAP12 EXTCODECOPY 0xC7 EQ DUP3 LOG1 0xB2 0xEE 0xBE PUSH23 0x4A739F46F1FE99291FD0183BE81951532B29D0C9C8DA6F 0xCE 0xBD EXP 0x2C 0xE9 DUP12 0x28 0xCB CODECOPY SAR PUSH1 0x8 0xBB 0xC7 PUSH10 0x378C9A4919628E11639C 0xB5 PUSH22 0xCD320FCCA0EEA20E678CB42233C1C456C84CEDCE7EA5 EXTCODEHASH LOG3 PUSH1 0xBB PUSH18 0xBF3B761B7609567770360894A13BA1A32106 PUSH8 0xC828492DB98DCA3E KECCAK256 PUSH23 0xCC3735A920A3CA505D382BBCB5987AAB1AFD379F6695F1 MOD DUP9 PUSH10 0xEE8CA6A0D02304C57935 0xA9 0xCC RETURNDATASIZE RETURNDATACOPY LOG2 0xE5 0x1E 0x4D RETURN DUP2 PC BALANCE GASLIMIT 0xE9 SIGNEXTEND DUP3 0xCC 0x5E MSTORE SWAP12 DELEGATECALL 0xFC 0x4D 0xE PREVRANDAO CODECOPY PUSH18 0x74CDF145C4251AC33EF195A424F3A670CD3A 0xF7 0xD6 0x4B BASEFEE DUP10 0x26 DUP9 ADDMOD DUP10 0xD0 DUP11 DUP6 DUP6 LOG1 CODESIZE SELFDESTRUCT GASLIMIT MSTORE 0x27 0xAF PUSH8 0x37339A1EC262A264 PUSH10 0x706673582212206FF4CA 0x4F COINBASE 0xB1 RETURNDATASIZE 0xAC PUSH9 0x4A29C80FD06A24366 PUSH18 0x6F29840860E6F237D0B5EC96A264736F6C63 NUMBER STOP ADDMOD AND STOP CALLER "},"methodIdentifiers":{"MAX_PRICE_IMPACT()":"6839b5fa","MIN_LIQUIDITY()":"21b77d63","REWARD_DIFFERENTIAL()":"88481b61","REWARD_DIRECT()":"0e2be210","REWARD_DYNAMIC()":"8a859a85","REWARD_LEVEL()":"8c0eaa48","REWARD_STATIC()":"1427f616","SECONDS_IN_UNIT()":"488b5d97","UPGRADE_INTERFACE_VERSION()":"ad3cb1cc","addLiquidity(uint256,uint256)":"9cd441da","batchUpdateTeamCounts(address[],uint256[])":"74b0eecf","bindReferrer(address)":"04f618cb","buyTicket(uint256)":"67dd74ca","buybackPercent()":"e4412f68","buybackWallet()":"deab8aea","claimRewards()":"372500ab","directReferrals(address,uint256)":"05ad3935","directRewardPercent()":"ccf61944","emergencyPause()":"51858e27","emergencyPaused()":"27c830a9","emergencyUnpause()":"4a4e3bd5","getDirectReferrals(address)":"d2c8e0e5","getJBCPrice()":"3a3ea2f0","getLevel(uint256)":"86481d40","getLevelByTeamCount(uint256)":"47194001","getLevelRewardLayers(uint256)":"182c84cc","initialize(address,address,address,address,address,address)":"cc2a9a5b","jbcToken()":"1788513c","lastBurnTime()":"e3067449","levelConfigs(uint256)":"21f483d3","levelRewardPercent()":"bd594dcf","levelRewardPool()":"b759936b","liquidityEnabled()":"b048a4bb","lpInjectionPercent()":"ceaa366d","lpInjectionWallet()":"88fd4d33","marketingPercent()":"d8020a18","marketingWallet()":"75f0a874","mcToken()":"95253992","nextStakeId()":"75506c96","nextTicketId()":"6031a52f","owner()":"8da5cb5b","priceOracle()":"2630c12f","proxiableUUID()":"52d1902d","redeem()":"be040fb0","redeemEnabled()":"d2f82536","redemptionFeePercent()":"dec7fa3b","renounceOwnership()":"715018a6","rescueTokens(address,address,uint256)":"cea9d26f","setDistributionConfig(uint256,uint256,uint256,uint256,uint256,uint256)":"d0f16470","setOperationalStatus(bool,bool)":"01d62efb","setPriceOracle(address)":"530e784f","setRedemptionFeePercent(uint256)":"ece71266","setSwapTaxes(uint256,uint256)":"90b0eb51","setTicketFlexibilityDuration(uint256)":"9d99eca4","setWallets(address,address,address,address)":"83672f3e","stakeLiquidity(uint256,uint256)":"4ea4c6b3","stakeOwner(uint256)":"3dbd46bd","stakePendingRewards(uint256,uint256)":"ac8f50aa","swapBuyTax()":"27f082f4","swapJBCToMC(uint256)":"52778b05","swapMCToJBC(uint256)":"0a5c4567","swapReserveJBC()":"1d0dac76","swapReserveMC()":"77a2a540","swapSellTax()":"9370b080","ticketFlexibilityDuration()":"6dd66827","ticketOwner(uint256)":"c2ff12fc","ticketPendingRewards(uint256,uint256)":"813380cd","transferOwnership(address)":"f2fde38b","treasuryPercent()":"04ef9d58","treasuryWallet()":"4626402b","upgradeToAndCall(address,bytes)":"4f1ef286","userInfo(address)":"1959a002","userStakes(address,uint256)":"b5d5b5fa","userTicket(address)":"8710bcaa","withdrawLevelRewardPool(address,uint256)":"99b6024d","withdrawSwapReserves(address,uint256,address,uint256)":"d4f00142"}},"storageLayout":{"storage":[{"astId":2777,"contract":"contracts/JinbaoProtocol.sol:JinbaoProtocol","label":"mcToken","offset":0,"slot":"0","type":"t_contract(IERC20)2032"},{"astId":2780,"contract":"contracts/JinbaoProtocol.sol:JinbaoProtocol","label":"jbcToken","offset":0,"slot":"1","type":"t_contract(IJBC)2701"},{"astId":2782,"contract":"contracts/JinbaoProtocol.sol:JinbaoProtocol","label":"marketingWallet","offset":0,"slot":"2","type":"t_address"},{"astId":2784,"contract":"contracts/JinbaoProtocol.sol:JinbaoProtocol","label":"treasuryWallet","offset":0,"slot":"3","type":"t_address"},{"astId":2786,"contract":"contracts/JinbaoProtocol.sol:JinbaoProtocol","label":"lpInjectionWallet","offset":0,"slot":"4","type":"t_address"},{"astId":2788,"contract":"contracts/JinbaoProtocol.sol:JinbaoProtocol","label":"buybackWallet","offset":0,"slot":"5","type":"t_address"},{"astId":2793,"contract":"contracts/JinbaoProtocol.sol:JinbaoProtocol","label":"directRewardPercent","offset":0,"slot":"6","type":"t_uint256"},{"astId":2795,"contract":"contracts/JinbaoProtocol.sol:JinbaoProtocol","label":"levelRewardPercent","offset":0,"slot":"7","type":"t_uint256"},{"astId":2797,"contract":"contracts/JinbaoProtocol.sol:JinbaoProtocol","label":"marketingPercent","offset":0,"slot":"8","type":"t_uint256"},{"astId":2799,"contract":"contracts/JinbaoProtocol.sol:JinbaoProtocol","label":"buybackPercent","offset":0,"slot":"9","type":"t_uint256"},{"astId":2801,"contract":"contracts/JinbaoProtocol.sol:JinbaoProtocol","label":"lpInjectionPercent","offset":0,"slot":"10","type":"t_uint256"},{"astId":2803,"contract":"contracts/JinbaoProtocol.sol:JinbaoProtocol","label":"treasuryPercent","offset":0,"slot":"11","type":"t_uint256"},{"astId":2805,"contract":"contracts/JinbaoProtocol.sol:JinbaoProtocol","label":"redemptionFeePercent","offset":0,"slot":"12","type":"t_uint256"},{"astId":2807,"contract":"contracts/JinbaoProtocol.sol:JinbaoProtocol","label":"swapBuyTax","offset":0,"slot":"13","type":"t_uint256"},{"astId":2809,"contract":"contracts/JinbaoProtocol.sol:JinbaoProtocol","label":"swapSellTax","offset":0,"slot":"14","type":"t_uint256"},{"astId":2829,"contract":"contracts/JinbaoProtocol.sol:JinbaoProtocol","label":"userInfo","offset":0,"slot":"15","type":"t_mapping(t_address,t_struct(UserInfo)2740_storage)"},{"astId":2834,"contract":"contracts/JinbaoProtocol.sol:JinbaoProtocol","label":"userTicket","offset":0,"slot":"16","type":"t_mapping(t_address,t_struct(Ticket)2762_storage)"},{"astId":2840,"contract":"contracts/JinbaoProtocol.sol:JinbaoProtocol","label":"userStakes","offset":0,"slot":"17","type":"t_mapping(t_address,t_array(t_struct(Stake)2753_storage)dyn_storage)"},{"astId":2845,"contract":"contracts/JinbaoProtocol.sol:JinbaoProtocol","label":"directReferrals","offset":0,"slot":"18","type":"t_mapping(t_address,t_array(t_address)dyn_storage)"},{"astId":2851,"contract":"contracts/JinbaoProtocol.sol:JinbaoProtocol","label":"ticketPendingRewards","offset":0,"slot":"19","type":"t_mapping(t_uint256,t_array(t_struct(PendingReward)2767_storage)dyn_storage)"},{"astId":2862,"contract":"contracts/JinbaoProtocol.sol:JinbaoProtocol","label":"levelConfigs","offset":0,"slot":"20","type":"t_array(t_struct(LevelConfig)2858_storage)dyn_storage"},{"astId":2864,"contract":"contracts/JinbaoProtocol.sol:JinbaoProtocol","label":"ticketFlexibilityDuration","offset":0,"slot":"21","type":"t_uint256"},{"astId":2866,"contract":"contracts/JinbaoProtocol.sol:JinbaoProtocol","label":"liquidityEnabled","offset":0,"slot":"22","type":"t_bool"},{"astId":2868,"contract":"contracts/JinbaoProtocol.sol:JinbaoProtocol","label":"redeemEnabled","offset":1,"slot":"22","type":"t_bool"},{"astId":2870,"contract":"contracts/JinbaoProtocol.sol:JinbaoProtocol","label":"swapReserveMC","offset":0,"slot":"23","type":"t_uint256"},{"astId":2872,"contract":"contracts/JinbaoProtocol.sol:JinbaoProtocol","label":"swapReserveJBC","offset":0,"slot":"24","type":"t_uint256"},{"astId":2882,"contract":"contracts/JinbaoProtocol.sol:JinbaoProtocol","label":"nextTicketId","offset":0,"slot":"25","type":"t_uint256"},{"astId":2884,"contract":"contracts/JinbaoProtocol.sol:JinbaoProtocol","label":"nextStakeId","offset":0,"slot":"26","type":"t_uint256"},{"astId":2886,"contract":"contracts/JinbaoProtocol.sol:JinbaoProtocol","label":"lastBurnTime","offset":0,"slot":"27","type":"t_uint256"},{"astId":2890,"contract":"contracts/JinbaoProtocol.sol:JinbaoProtocol","label":"ticketOwner","offset":0,"slot":"28","type":"t_mapping(t_uint256,t_address)"},{"astId":2896,"contract":"contracts/JinbaoProtocol.sol:JinbaoProtocol","label":"stakePendingRewards","offset":0,"slot":"29","type":"t_mapping(t_uint256,t_array(t_struct(PendingReward)2767_storage)dyn_storage)"},{"astId":2900,"contract":"contracts/JinbaoProtocol.sol:JinbaoProtocol","label":"stakeOwner","offset":0,"slot":"30","type":"t_mapping(t_uint256,t_address)"},{"astId":2902,"contract":"contracts/JinbaoProtocol.sol:JinbaoProtocol","label":"levelRewardPool","offset":0,"slot":"31","type":"t_uint256"},{"astId":2906,"contract":"contracts/JinbaoProtocol.sol:JinbaoProtocol","label":"__gap","offset":0,"slot":"32","type":"t_array(t_uint256)47_storage"},{"astId":2908,"contract":"contracts/JinbaoProtocol.sol:JinbaoProtocol","label":"emergencyPaused","offset":0,"slot":"79","type":"t_bool"},{"astId":2910,"contract":"contracts/JinbaoProtocol.sol:JinbaoProtocol","label":"priceOracle","offset":1,"slot":"79","type":"t_address"}],"types":{"t_address":{"encoding":"inplace","label":"address","numberOfBytes":"20"},"t_array(t_address)dyn_storage":{"base":"t_address","encoding":"dynamic_array","label":"address[]","numberOfBytes":"32"},"t_array(t_struct(LevelConfig)2858_storage)dyn_storage":{"base":"t_struct(LevelConfig)2858_storage","encoding":"dynamic_array","label":"struct JinbaoProtocol.LevelConfig[]","numberOfBytes":"32"},"t_array(t_struct(PendingReward)2767_storage)dyn_storage":{"base":"t_struct(PendingReward)2767_storage","encoding":"dynamic_array","label":"struct JinbaoProtocol.PendingReward[]","numberOfBytes":"32"},"t_array(t_struct(Stake)2753_storage)dyn_storage":{"base":"t_struct(Stake)2753_storage","encoding":"dynamic_array","label":"struct JinbaoProtocol.Stake[]","numberOfBytes":"32"},"t_array(t_uint256)47_storage":{"base":"t_uint256","encoding":"inplace","label":"uint256[47]","numberOfBytes":"1504"},"t_bool":{"encoding":"inplace","label":"bool","numberOfBytes":"1"},"t_contract(IERC20)2032":{"encoding":"inplace","label":"contract IERC20","numberOfBytes":"20"},"t_contract(IJBC)2701":{"encoding":"inplace","label":"contract IJBC","numberOfBytes":"20"},"t_mapping(t_address,t_array(t_address)dyn_storage)":{"encoding":"mapping","key":"t_address","label":"mapping(address => address[])","numberOfBytes":"32","value":"t_array(t_address)dyn_storage"},"t_mapping(t_address,t_array(t_struct(Stake)2753_storage)dyn_storage)":{"encoding":"mapping","key":"t_address","label":"mapping(address => struct JinbaoProtocol.Stake[])","numberOfBytes":"32","value":"t_array(t_struct(Stake)2753_storage)dyn_storage"},"t_mapping(t_address,t_struct(Ticket)2762_storage)":{"encoding":"mapping","key":"t_address","label":"mapping(address => struct JinbaoProtocol.Ticket)","numberOfBytes":"32","value":"t_struct(Ticket)2762_storage"},"t_mapping(t_address,t_struct(UserInfo)2740_storage)":{"encoding":"mapping","key":"t_address","label":"mapping(address => struct JinbaoProtocol.UserInfo)","numberOfBytes":"32","value":"t_struct(UserInfo)2740_storage"},"t_mapping(t_uint256,t_address)":{"encoding":"mapping","key":"t_uint256","label":"mapping(uint256 => address)","numberOfBytes":"32","value":"t_address"},"t_mapping(t_uint256,t_array(t_struct(PendingReward)2767_storage)dyn_storage)":{"encoding":"mapping","key":"t_uint256","label":"mapping(uint256 => struct JinbaoProtocol.PendingReward[])","numberOfBytes":"32","value":"t_array(t_struct(PendingReward)2767_storage)dyn_storage"},"t_struct(LevelConfig)2858_storage":{"encoding":"inplace","label":"struct JinbaoProtocol.LevelConfig","members":[{"astId":2853,"contract":"contracts/JinbaoProtocol.sol:JinbaoProtocol","label":"minDirects","offset":0,"slot":"0","type":"t_uint256"},{"astId":2855,"contract":"contracts/JinbaoProtocol.sol:JinbaoProtocol","label":"level","offset":0,"slot":"1","type":"t_uint256"},{"astId":2857,"contract":"contracts/JinbaoProtocol.sol:JinbaoProtocol","label":"percent","offset":0,"slot":"2","type":"t_uint256"}],"numberOfBytes":"96"},"t_struct(PendingReward)2767_storage":{"encoding":"inplace","label":"struct JinbaoProtocol.PendingReward","members":[{"astId":2764,"contract":"contracts/JinbaoProtocol.sol:JinbaoProtocol","label":"upline","offset":0,"slot":"0","type":"t_address"},{"astId":2766,"contract":"contracts/JinbaoProtocol.sol:JinbaoProtocol","label":"amount","offset":0,"slot":"1","type":"t_uint256"}],"numberOfBytes":"64"},"t_struct(Stake)2753_storage":{"encoding":"inplace","label":"struct JinbaoProtocol.Stake","members":[{"astId":2742,"contract":"contracts/JinbaoProtocol.sol:JinbaoProtocol","label":"id","offset":0,"slot":"0","type":"t_uint256"},{"astId":2744,"contract":"contracts/JinbaoProtocol.sol:JinbaoProtocol","label":"amount","offset":0,"slot":"1","type":"t_uint256"},{"astId":2746,"contract":"contracts/JinbaoProtocol.sol:JinbaoProtocol","label":"startTime","offset":0,"slot":"2","type":"t_uint256"},{"astId":2748,"contract":"contracts/JinbaoProtocol.sol:JinbaoProtocol","label":"cycleDays","offset":0,"slot":"3","type":"t_uint256"},{"astId":2750,"contract":"contracts/JinbaoProtocol.sol:JinbaoProtocol","label":"active","offset":0,"slot":"4","type":"t_bool"},{"astId":2752,"contract":"contracts/JinbaoProtocol.sol:JinbaoProtocol","label":"paid","offset":0,"slot":"5","type":"t_uint256"}],"numberOfBytes":"192"},"t_struct(Ticket)2762_storage":{"encoding":"inplace","label":"struct JinbaoProtocol.Ticket","members":[{"astId":2755,"contract":"contracts/JinbaoProtocol.sol:JinbaoProtocol","label":"ticketId","offset":0,"slot":"0","type":"t_uint256"},{"astId":2757,"contract":"contracts/JinbaoProtocol.sol:JinbaoProtocol","label":"amount","offset":0,"slot":"1","type":"t_uint256"},{"astId":2759,"contract":"contracts/JinbaoProtocol.sol:JinbaoProtocol","label":"purchaseTime","offset":0,"slot":"2","type":"t_uint256"},{"astId":2761,"contract":"contracts/JinbaoProtocol.sol:JinbaoProtocol","label":"exited","offset":0,"slot":"3","type":"t_bool"}],"numberOfBytes":"128"},"t_struct(UserInfo)2740_storage":{"encoding":"inplace","label":"struct JinbaoProtocol.UserInfo","members":[{"astId":2719,"contract":"contracts/JinbaoProtocol.sol:JinbaoProtocol","label":"referrer","offset":0,"slot":"0","type":"t_address"},{"astId":2721,"contract":"contracts/JinbaoProtocol.sol:JinbaoProtocol","label":"activeDirects","offset":0,"slot":"1","type":"t_uint256"},{"astId":2723,"contract":"contracts/JinbaoProtocol.sol:JinbaoProtocol","label":"teamCount","offset":0,"slot":"2","type":"t_uint256"},{"astId":2725,"contract":"contracts/JinbaoProtocol.sol:JinbaoProtocol","label":"totalRevenue","offset":0,"slot":"3","type":"t_uint256"},{"astId":2727,"contract":"contracts/JinbaoProtocol.sol:JinbaoProtocol","label":"currentCap","offset":0,"slot":"4","type":"t_uint256"},{"astId":2729,"contract":"contracts/JinbaoProtocol.sol:JinbaoProtocol","label":"isActive","offset":0,"slot":"5","type":"t_bool"},{"astId":2731,"contract":"contracts/JinbaoProtocol.sol:JinbaoProtocol","label":"refundFeeAmount","offset":0,"slot":"6","type":"t_uint256"},{"astId":2733,"contract":"contracts/JinbaoProtocol.sol:JinbaoProtocol","label":"teamTotalVolume","offset":0,"slot":"7","type":"t_uint256"},{"astId":2735,"contract":"contracts/JinbaoProtocol.sol:JinbaoProtocol","label":"teamTotalCap","offset":0,"slot":"8","type":"t_uint256"},{"astId":2737,"contract":"contracts/JinbaoProtocol.sol:JinbaoProtocol","label":"maxTicketAmount","offset":0,"slot":"9","type":"t_uint256"},{"astId":2739,"contract":"contracts/JinbaoProtocol.sol:JinbaoProtocol","label":"maxSingleTicketAmount","offset":0,"slot":"10","type":"t_uint256"}],"numberOfBytes":"352"},"t_uint256":{"encoding":"inplace","label":"uint256","numberOfBytes":"32"}}}}}}