{"contracts/JinbaoProtocol.sol":{"JinbaoProtocol":{"abi":[{"inputs":[{"internalType":"address","name":"_mcToken","type":"address"},{"internalType":"address","name":"_jbcToken","type":"address"},{"internalType":"address","name":"_marketing","type":"address"},{"internalType":"address","name":"_treasury","type":"address"},{"internalType":"address","name":"_lpInjection","type":"address"}],"stateMutability":"nonpayable","type":"constructor"},{"inputs":[{"internalType":"address","name":"owner","type":"address"}],"name":"OwnableInvalidOwner","type":"error"},{"inputs":[{"internalType":"address","name":"account","type":"address"}],"name":"OwnableUnauthorizedAccount","type":"error"},{"inputs":[],"name":"ReentrancyGuardReentrantCall","type":"error"},{"anonymous":false,"inputs":[{"indexed":true,"internalType":"address","name":"user","type":"address"},{"indexed":true,"internalType":"address","name":"referrer","type":"address"}],"name":"BoundReferrer","type":"event"},{"anonymous":false,"inputs":[{"indexed":false,"internalType":"uint256","name":"mcAmount","type":"uint256"},{"indexed":false,"internalType":"uint256","name":"jbcBurned","type":"uint256"}],"name":"BuybackAndBurn","type":"event"},{"anonymous":false,"inputs":[{"indexed":true,"internalType":"address","name":"user","type":"address"},{"indexed":false,"internalType":"uint256","name":"ticketId","type":"uint256"}],"name":"Exited","type":"event"},{"anonymous":false,"inputs":[{"indexed":true,"internalType":"address","name":"user","type":"address"},{"indexed":false,"internalType":"uint256","name":"amount","type":"uint256"}],"name":"FeeRefunded","type":"event"},{"anonymous":false,"inputs":[{"indexed":true,"internalType":"uint256","name":"ticketId","type":"uint256"},{"indexed":true,"internalType":"address","name":"upline","type":"address"},{"indexed":false,"internalType":"uint256","name":"amount","type":"uint256"}],"name":"LevelRewardRecorded","type":"event"},{"anonymous":false,"inputs":[{"indexed":true,"internalType":"uint256","name":"ticketId","type":"uint256"},{"indexed":true,"internalType":"address","name":"upline","type":"address"},{"indexed":false,"internalType":"uint256","name":"amount","type":"uint256"}],"name":"LevelRewardReleased","type":"event"},{"anonymous":false,"inputs":[{"indexed":true,"internalType":"address","name":"user","type":"address"},{"indexed":false,"internalType":"uint256","name":"amount","type":"uint256"},{"indexed":false,"internalType":"uint256","name":"cycleDays","type":"uint256"}],"name":"LiquidityStaked","type":"event"},{"anonymous":false,"inputs":[{"indexed":true,"internalType":"address","name":"previousOwner","type":"address"},{"indexed":true,"internalType":"address","name":"newOwner","type":"address"}],"name":"OwnershipTransferred","type":"event"},{"anonymous":false,"inputs":[{"indexed":true,"internalType":"address","name":"user","type":"address"},{"indexed":false,"internalType":"uint256","name":"principal","type":"uint256"},{"indexed":false,"internalType":"uint256","name":"fee","type":"uint256"}],"name":"Redeemed","type":"event"},{"anonymous":false,"inputs":[{"indexed":true,"internalType":"address","name":"user","type":"address"},{"indexed":false,"internalType":"uint256","name":"amount","type":"uint256"},{"indexed":false,"internalType":"uint256","name":"cappedAmount","type":"uint256"}],"name":"RewardCapped","type":"event"},{"anonymous":false,"inputs":[{"indexed":true,"internalType":"address","name":"user","type":"address"},{"indexed":false,"internalType":"uint256","name":"amount","type":"uint256"},{"indexed":false,"internalType":"uint8","name":"rewardType","type":"uint8"}],"name":"RewardPaid","type":"event"},{"anonymous":false,"inputs":[{"indexed":true,"internalType":"address","name":"user","type":"address"},{"indexed":false,"internalType":"uint256","name":"jbcAmount","type":"uint256"},{"indexed":false,"internalType":"uint256","name":"mcAmount","type":"uint256"},{"indexed":false,"internalType":"uint256","name":"tax","type":"uint256"}],"name":"SwappedJBCToMC","type":"event"},{"anonymous":false,"inputs":[{"indexed":true,"internalType":"address","name":"user","type":"address"},{"indexed":false,"internalType":"uint256","name":"mcAmount","type":"uint256"},{"indexed":false,"internalType":"uint256","name":"jbcAmount","type":"uint256"},{"indexed":false,"internalType":"uint256","name":"tax","type":"uint256"}],"name":"SwappedMCToJBC","type":"event"},{"anonymous":false,"inputs":[{"indexed":true,"internalType":"address","name":"user","type":"address"},{"indexed":false,"internalType":"uint256","name":"amount","type":"uint256"},{"indexed":false,"internalType":"uint256","name":"ticketId","type":"uint256"}],"name":"TicketPurchased","type":"event"},{"inputs":[],"name":"REWARD_DIRECT","outputs":[{"internalType":"uint8","name":"","type":"uint8"}],"stateMutability":"view","type":"function"},{"inputs":[],"name":"REWARD_DYNAMIC","outputs":[{"internalType":"uint8","name":"","type":"uint8"}],"stateMutability":"view","type":"function"},{"inputs":[],"name":"REWARD_LEVEL","outputs":[{"internalType":"uint8","name":"","type":"uint8"}],"stateMutability":"view","type":"function"},{"inputs":[],"name":"REWARD_STATIC","outputs":[{"internalType":"uint8","name":"","type":"uint8"}],"stateMutability":"view","type":"function"},{"inputs":[],"name":"SECONDS_IN_UNIT","outputs":[{"internalType":"uint256","name":"","type":"uint256"}],"stateMutability":"view","type":"function"},{"inputs":[{"internalType":"address","name":"user","type":"address"},{"internalType":"address","name":"newReferrer","type":"address"}],"name":"adminSetReferrer","outputs":[],"stateMutability":"nonpayable","type":"function"},{"inputs":[{"internalType":"address","name":"user","type":"address"},{"internalType":"uint256","name":"_activeDirects","type":"uint256"},{"internalType":"uint256","name":"_teamCount","type":"uint256"}],"name":"adminSetUserStats","outputs":[],"stateMutability":"nonpayable","type":"function"},{"inputs":[{"internalType":"uint256","name":"amount","type":"uint256"},{"internalType":"address","name":"to","type":"address"}],"name":"adminWithdrawJBC","outputs":[],"stateMutability":"nonpayable","type":"function"},{"inputs":[{"internalType":"uint256","name":"amount","type":"uint256"},{"internalType":"address","name":"to","type":"address"}],"name":"adminWithdrawMC","outputs":[],"stateMutability":"nonpayable","type":"function"},{"inputs":[{"internalType":"address","name":"_referrer","type":"address"}],"name":"bindReferrer","outputs":[],"stateMutability":"nonpayable","type":"function"},{"inputs":[{"internalType":"uint256","name":"amount","type":"uint256"}],"name":"buyTicket","outputs":[],"stateMutability":"nonpayable","type":"function"},{"inputs":[],"name":"buybackPercent","outputs":[{"internalType":"uint256","name":"","type":"uint256"}],"stateMutability":"view","type":"function"},{"inputs":[],"name":"claimRewards","outputs":[],"stateMutability":"nonpayable","type":"function"},{"inputs":[{"internalType":"address","name":"","type":"address"},{"internalType":"uint256","name":"","type":"uint256"}],"name":"directReferrals","outputs":[{"internalType":"address","name":"","type":"address"}],"stateMutability":"view","type":"function"},{"inputs":[],"name":"directRewardPercent","outputs":[{"internalType":"uint256","name":"","type":"uint256"}],"stateMutability":"view","type":"function"},{"inputs":[{"internalType":"uint256","name":"amountIn","type":"uint256"},{"internalType":"uint256","name":"reserveIn","type":"uint256"},{"internalType":"uint256","name":"reserveOut","type":"uint256"}],"name":"getAmountOut","outputs":[{"internalType":"uint256","name":"","type":"uint256"}],"stateMutability":"pure","type":"function"},{"inputs":[],"name":"getJBCPrice","outputs":[{"internalType":"uint256","name":"","type":"uint256"}],"stateMutability":"view","type":"function"},{"inputs":[{"internalType":"uint256","name":"activeDirects","type":"uint256"}],"name":"getLevel","outputs":[{"internalType":"uint256","name":"level","type":"uint256"},{"internalType":"uint256","name":"percent","type":"uint256"}],"stateMutability":"pure","type":"function"},{"inputs":[],"name":"jbcToken","outputs":[{"internalType":"contract IJBC","name":"","type":"address"}],"stateMutability":"view","type":"function"},{"inputs":[],"name":"levelRewardPercent","outputs":[{"internalType":"uint256","name":"","type":"uint256"}],"stateMutability":"view","type":"function"},{"inputs":[],"name":"lpInjectionPercent","outputs":[{"internalType":"uint256","name":"","type":"uint256"}],"stateMutability":"view","type":"function"},{"inputs":[],"name":"lpInjectionWallet","outputs":[{"internalType":"address","name":"","type":"address"}],"stateMutability":"view","type":"function"},{"inputs":[],"name":"marketingPercent","outputs":[{"internalType":"uint256","name":"","type":"uint256"}],"stateMutability":"view","type":"function"},{"inputs":[],"name":"marketingWallet","outputs":[{"internalType":"address","name":"","type":"address"}],"stateMutability":"view","type":"function"},{"inputs":[],"name":"mcToken","outputs":[{"internalType":"contract IERC20","name":"","type":"address"}],"stateMutability":"view","type":"function"},{"inputs":[],"name":"nextTicketId","outputs":[{"internalType":"uint256","name":"","type":"uint256"}],"stateMutability":"view","type":"function"},{"inputs":[],"name":"owner","outputs":[{"internalType":"address","name":"","type":"address"}],"stateMutability":"view","type":"function"},{"inputs":[],"name":"redeem","outputs":[],"stateMutability":"nonpayable","type":"function"},{"inputs":[],"name":"redemptionFeePercent","outputs":[{"internalType":"uint256","name":"","type":"uint256"}],"stateMutability":"view","type":"function"},{"inputs":[],"name":"renounceOwnership","outputs":[],"stateMutability":"nonpayable","type":"function"},{"inputs":[{"internalType":"address","name":"_marketing","type":"address"},{"internalType":"address","name":"_treasury","type":"address"},{"internalType":"address","name":"_lpInjection","type":"address"}],"name":"setWallets","outputs":[],"stateMutability":"nonpayable","type":"function"},{"inputs":[{"internalType":"uint256","name":"cycleDays","type":"uint256"}],"name":"stakeLiquidity","outputs":[],"stateMutability":"nonpayable","type":"function"},{"inputs":[],"name":"swapBuyTax","outputs":[{"internalType":"uint256","name":"","type":"uint256"}],"stateMutability":"view","type":"function"},{"inputs":[{"internalType":"uint256","name":"jbcAmount","type":"uint256"}],"name":"swapJBCToMC","outputs":[],"stateMutability":"nonpayable","type":"function"},{"inputs":[{"internalType":"uint256","name":"mcAmount","type":"uint256"}],"name":"swapMCToJBC","outputs":[],"stateMutability":"nonpayable","type":"function"},{"inputs":[],"name":"swapSellTax","outputs":[{"internalType":"uint256","name":"","type":"uint256"}],"stateMutability":"view","type":"function"},{"inputs":[{"internalType":"uint256","name":"","type":"uint256"},{"internalType":"uint256","name":"","type":"uint256"}],"name":"ticketPendingRewards","outputs":[{"internalType":"address","name":"upline","type":"address"},{"internalType":"uint256","name":"amount","type":"uint256"}],"stateMutability":"view","type":"function"},{"inputs":[{"internalType":"uint256","name":"","type":"uint256"}],"name":"ticketStaticPaid","outputs":[{"internalType":"uint256","name":"","type":"uint256"}],"stateMutability":"view","type":"function"},{"inputs":[{"internalType":"address","name":"newOwner","type":"address"}],"name":"transferOwnership","outputs":[],"stateMutability":"nonpayable","type":"function"},{"inputs":[],"name":"treasuryPercent","outputs":[{"internalType":"uint256","name":"","type":"uint256"}],"stateMutability":"view","type":"function"},{"inputs":[],"name":"treasuryWallet","outputs":[{"internalType":"address","name":"","type":"address"}],"stateMutability":"view","type":"function"},{"inputs":[{"internalType":"address","name":"","type":"address"}],"name":"userInfo","outputs":[{"internalType":"address","name":"referrer","type":"address"},{"internalType":"uint256","name":"activeDirects","type":"uint256"},{"internalType":"uint256","name":"teamCount","type":"uint256"},{"internalType":"uint256","name":"totalRevenue","type":"uint256"},{"internalType":"uint256","name":"currentCap","type":"uint256"},{"internalType":"bool","name":"isActive","type":"bool"},{"internalType":"uint256","name":"refundFeeAmount","type":"uint256"}],"stateMutability":"view","type":"function"},{"inputs":[{"internalType":"address","name":"","type":"address"}],"name":"userTicket","outputs":[{"internalType":"uint256","name":"ticketId","type":"uint256"},{"internalType":"uint256","name":"amount","type":"uint256"},{"internalType":"uint256","name":"requiredLiquidity","type":"uint256"},{"internalType":"uint256","name":"purchaseTime","type":"uint256"},{"internalType":"bool","name":"liquidityProvided","type":"bool"},{"internalType":"uint256","name":"liquidityAmount","type":"uint256"},{"internalType":"uint256","name":"startTime","type":"uint256"},{"internalType":"uint256","name":"cycleDays","type":"uint256"},{"internalType":"bool","name":"redeemed","type":"bool"},{"internalType":"bool","name":"exited","type":"bool"}],"stateMutability":"view","type":"function"}],"evm":{"bytecode":{"linkReferences":{},"object":"60806040526019600755600f60085560056009556005600a556019600b556019600c556001600d556032600e556019600f553480156200003e57600080fd5b506040516200366838038062003668833981016040819052620000619162000168565b33806200008857604051631e4fbdf760e01b81526000600482015260240160405180910390fd5b6200009381620000fb565b5060018055600280546001600160a01b03199081166001600160a01b03978816179091556003805482169587169590951790945560048054851693861693909317909255600580548416918516919091179055600680549092169216919091179055620001d8565b600080546001600160a01b038381166001600160a01b0319831681178455604051919092169283917f8be0079c531659141344cd1fd0a4f28419497f9722a3daafe3b4186f6b6457e09190a35050565b80516001600160a01b03811681146200016357600080fd5b919050565b600080600080600060a086880312156200018157600080fd5b6200018c866200014b565b94506200019c602087016200014b565b9350620001ac604087016200014b565b9250620001bc606087016200014b565b9150620001cc608087016200014b565b90509295509295909350565b61348080620001e86000396000f3fe608060405234801561001057600080fd5b50600436106102695760003560e01c806375cb1bd111610151578063a2af9226116100c3578063d241e00111610087578063d241e0011461060c578063d8020a181461061f578063dec7fa3b14610628578063e4412f6814610631578063f1d34d4e1461063a578063f2fde38b1461065a57600080fd5b8063a2af9226146105d6578063bd594dcf146105e9578063be040fb0146105f2578063ccf61944146105fa578063ceaa366d1461060357600080fd5b806388fd4d331161011557806388fd4d33146105865780638a859a85146105995780638c0eaa48146105a15780638da5cb5b146105a95780639370b080146105ba57806395253992146105c357600080fd5b806375cb1bd11461046257806375f0a87414610475578063813380cd1461048857806386481d40146104a95780638710bcaa146104d157600080fd5b806335076373116101ea57806352778b05116101ae57806352778b05146104055780636031a52f1461041857806362eea9141461042157806367dd74ca146104345780636fb3c47c14610447578063715018a61461045a57600080fd5b806335076373146103c7578063372500ab146103da5780633a3ea2f0146103e25780634626402b146103ea578063488b5d97146103fd57600080fd5b80630e2be210116102315780630e2be210146102f05780631427f6161461030a5780631788513c146103125780631959a0021461032557806327f082f4146103be57600080fd5b806304ef9d581461026e57806304f618cb1461028a578063054d50d41461029f57806305ad3935146102b25780630a5c4567146102dd575b600080fd5b610277600c5481565b6040519081526020015b60405180910390f35b61029d61029836600461317c565b61066d565b005b6102776102ad36600461319e565b6107da565b6102c56102c03660046131ca565b6108b0565b6040516001600160a01b039091168152602001610281565b61029d6102eb3660046131f4565b6108e8565b6102f8600281565b60405160ff9091168152602001610281565b6102f8600081565b6003546102c5906001600160a01b031681565b61037d61033336600461317c565b60106020526000908152604090208054600182015460028301546003840154600485015460058601546006909601546001600160a01b0390951695939492939192909160ff169087565b604080516001600160a01b03909816885260208801969096529486019390935260608501919091526080840152151560a083015260c082015260e001610281565b610277600e5481565b61029d6103d53660046131f4565b610cb9565b61029d6110c7565b6102776115df565b6005546102c5906001600160a01b031681565b610277603c81565b61029d6104133660046131f4565b611700565b61027760155481565b61029d61042f36600461320d565b611abb565b61029d6104423660046131f4565b611b3d565b61029d610455366004613239565b612141565b61029d612170565b61029d61047036600461326c565b612182565b6004546102c5906001600160a01b031681565b61049b6104963660046132af565b6121c9565b6040516102819291906132d1565b6104bc6104b73660046131f4565b61220f565b60408051928352602083019190915201610281565b6105386104df36600461317c565b601160205260009081526040902080546001820154600283015460038401546004850154600586015460068701546007880154600890980154969795969495939460ff938416949293919291818116916101009004168a565b604080519a8b5260208b0199909952978901969096526060880194909452911515608087015260a086015260c085015260e08401521515610100830152151561012082015261014001610281565b6006546102c5906001600160a01b031681565b6102f8600181565b6102f8600381565b6000546001600160a01b03166102c5565b610277600f5481565b6002546102c5906001600160a01b031681565b61029d6105e43660046132ea565b6122d8565b61027760085481565b61029d6124dc565b61027760075481565b610277600b5481565b61029d61061a36600461320d565b61276d565b61027760095481565b610277600d5481565b610277600a5481565b6102776106483660046131f4565b60146020526000908152604090205481565b61029d61066836600461317c565b6127a7565b336000908152601060205260409020546001600160a01b0316156106c85760405162461bcd60e51b815260206004820152600d60248201526c105b1c9958591e48189bdd5b99609a1b60448201526064015b60405180910390fd5b336001600160a01b038216036107135760405162461bcd60e51b815260206004820152601060248201526f21b0b73737ba103134b7321039b2b63360811b60448201526064016106bf565b6001600160a01b03811661075c5760405162461bcd60e51b815260206004820152601060248201526f24b73b30b634b2103932b332b93932b960811b60448201526064016106bf565b33600081815260106020908152604080832080546001600160a01b0387166001600160a01b0319918216811790925581855260128452828520805460018101825590865293852090930180549093168517909255519092917fa6dbb5aa28f35437de94d685d66edce5fb4812196b4984b91dfd5a7b38c0fb3091a350565b600080841161082b5760405162461bcd60e51b815260206004820152601960248201527f496e73756666696369656e7420696e70757420616d6f756e740000000000000060448201526064016106bf565b60008311801561083b5750600082115b6108805760405162461bcd60e51b8152602060048201526016602482015275496e73756666696369656e74206c697175696469747960501b60448201526064016106bf565b600061088c838661332a565b9050600061089a8686613347565b90506108a6818361335a565b9695505050505050565b601260205281600052604060002081815481106108cc57600080fd5b6000918252602090912001546001600160a01b03169150829050565b6108f06127e2565b600081116109315760405162461bcd60e51b815260206004820152600e60248201526d125b9d985b1a5908185b5bdd5b9d60921b60448201526064016106bf565b6002546040516323b872dd60e01b81526001600160a01b03909116906323b872dd906109659033903090869060040161337c565b6020604051808303816000875af1158015610984573d6000803e3d6000fd5b505050506040513d601f19601f820116820180604052508101906109a891906133a0565b506002546040516370a0823160e01b815230600482015260009183916001600160a01b03909116906370a0823190602401602060405180830381865afa1580156109f6573d6000803e3d6000fd5b505050506040513d601f19601f82011682018060405250810190610a1a91906133c2565b610a2491906133db565b6003546040516370a0823160e01b81523060048201529192506000916001600160a01b03909116906370a0823190602401602060405180830381865afa158015610a72573d6000803e3d6000fd5b505050506040513d601f19601f82011682018060405250810190610a9691906133c2565b90506000610aa58484846107da565b905060006064600e5483610ab9919061332a565b610ac3919061335a565b90506000610ad182846133db565b6003546040516370a0823160e01b815230600482015291925084916001600160a01b03909116906370a0823190602401602060405180830381865afa158015610b1e573d6000803e3d6000fd5b505050506040513d601f19601f82011682018060405250810190610b4291906133c2565b1015610b905760405162461bcd60e51b815260206004820152601a60248201527f496e73756666696369656e74204a4243206c697175696469747900000000000060448201526064016106bf565b600354604051630852cd8d60e31b8152600481018490526001600160a01b03909116906342966c6890602401600060405180830381600087803b158015610bd657600080fd5b505af1158015610bea573d6000803e3d6000fd5b505060035460405163a9059cbb60e01b81526001600160a01b03909116925063a9059cbb9150610c2090339085906004016132d1565b6020604051808303816000875af1158015610c3f573d6000803e3d6000fd5b505050506040513d601f19601f82011682018060405250810190610c6391906133a0565b50604080518781526020810183905290810183905233907f36864aeefce16bc4aaceeb6b0cdfb2ad1455a8cb4ccb0db148a2bc6e7166f97c906060015b60405180910390a25050505050610cb660018055565b50565b610cc16127e2565b336000908152601160205260409020600181015415801590610ce85750600481015460ff16155b610d2b5760405162461bcd60e51b8152602060048201526014602482015273496e76616c6964207469636b657420737461746560601b60448201526064016106bf565b6008810154610100900460ff1615610d755760405162461bcd60e51b815260206004820152600d60248201526c151a58dad95d08195e1a5d1959609a1b60448201526064016106bf565b6003810154610d87906203f480613347565b421115610dc75760405162461bcd60e51b815260206004820152600e60248201526d151a58dad95d08195e1c1a5c995960921b60448201526064016106bf565b8160071480610dd6575081600f145b80610de1575081601e145b610e1d5760405162461bcd60e51b815260206004820152600d60248201526c496e76616c6964206379636c6560981b60448201526064016106bf565b60028082015490546040516323b872dd60e01b81526001600160a01b03909116906323b872dd90610e569033903090869060040161337c565b6020604051808303816000875af1158015610e75573d6000803e3d6000fd5b505050506040513d601f19601f82011682018060405250810190610e9991906133a0565b5060048201805460ff19166001179055600580830182905542600684015560078301849055336000908152601060205260409020015460ff16610f335733600090815260106020526040902060058101805460ff19166001179055546001600160a01b03168015610f31576001600160a01b0381166000908152601060205260408120600101805491610f2b836133ee565b91905055505b505b604080518281526020810185905233917f1e54d7530dad81af38adb8ca9db02add3130668375f37be85396403616fc3d49910160405180910390a23360009081526010602052604090206006015480156110bb57336000908152601060205260408082206006019190915560025490516370a0823160e01b815230600482015282916001600160a01b0316906370a0823190602401602060405180830381865afa158015610fe5573d6000803e3d6000fd5b505050506040513d601f19601f8201168201806040525081019061100991906133c2565b106110bb5760025460405163a9059cbb60e01b81526001600160a01b039091169063a9059cbb9061104090339085906004016132d1565b6020604051808303816000875af115801561105f573d6000803e3d6000fd5b505050506040513d601f19601f8201168201806040525081019061108391906133a0565b5060405181815233907f3437b9ea7fa19c6d233dd70cc787a70fab87cee64d8ba4571512cc84402748f9906020015b60405180910390a25b505050610cb660018055565b6110cf6127e2565b336000908152601160205260409020600481015460ff1680156110f75750600881015460ff16155b801561110d57506008810154610100900460ff16155b6111465760405162461bcd60e51b815260206004820152600a6024820152694e6f742061637469766560b01b60448201526064016106bf565b6000816007015460070361115c57506014611180565b8160070154600f0361117057506019611180565b8160070154601e036111805750601e5b6000603c83600601544261119491906133db565b61119e919061335a565b905082600701548111156111b3575060078201545b806000036111f65760405162461bcd60e51b815260206004820152601060248201526f13195cdcc81d1a185b880c481d5b9a5d60821b60448201526064016106bf565b60006103e88284866005015461120c919061332a565b611216919061332a565b611220919061335a565b8454600090815260146020526040812054919250818311156112495761124682846133db565b90505b6000811161128a5760405162461bcd60e51b815260206004820152600e60248201526d4e6f206e6577207265776172647360901b60448201526064016106bf565b33600090815260106020526040902060048101546003909101546112af908390613347565b11156112dc5733600090815260106020526040902060038101546004909101546112d991906133db565b90505b806000036112f8576112ed3361280c565b5050505050506115d4565b855460009081526014602052604081208054839290611318908490613347565b9091555050336000908152601060205260408120600301805483929061133f908490613347565b909155506000905061135260028361335a565b9050600061136160028461335a565b6002546040516370a0823160e01b815230600482015291925083916001600160a01b03909116906370a0823190602401602060405180830381865afa1580156113ae573d6000803e3d6000fd5b505050506040513d601f19601f820116820180604052508101906113d291906133c2565b1061144e5760025460405163a9059cbb60e01b81526001600160a01b039091169063a9059cbb9061140990339086906004016132d1565b6020604051808303816000875af1158015611428573d6000803e3d6000fd5b505050506040513d601f19601f8201168201806040525081019061144c91906133a0565b505b60006114586115df565b905060008161146f84670de0b6b3a764000061332a565b611479919061335a565b6003546040516370a0823160e01b815230600482015291925082916001600160a01b03909116906370a0823190602401602060405180830381865afa1580156114c6573d6000803e3d6000fd5b505050506040513d601f19601f820116820180604052508101906114ea91906133c2565b106115665760035460405163a9059cbb60e01b81526001600160a01b039091169063a9059cbb9061152190339085906004016132d1565b6020604051808303816000875af1158015611540573d6000803e3d6000fd5b505050506040513d601f19601f8201168201806040525081019061156491906133a0565b505b604080518681526000602082015233917ff381583145e90b82cc5e529bf4fc4d0e44397174cdf145c4251ac33ef195a424910160405180910390a23360009081526010602052604090206004810154600390910154106115c9576115c93361280c565b505050505050505050505b6115dd60018055565b565b6002546040516370a0823160e01b815230600482015260009182916001600160a01b03909116906370a0823190602401602060405180830381865afa15801561162c573d6000803e3d6000fd5b505050506040513d601f19601f8201168201806040525081019061165091906133c2565b6003546040516370a0823160e01b81523060048201529192506000916001600160a01b03909116906370a0823190602401602060405180830381865afa15801561169e573d6000803e3d6000fd5b505050506040513d601f19601f820116820180604052508101906116c291906133c2565b9050806000036116dc57670de0b6b3a76400009250505090565b806116ef83670de0b6b3a764000061332a565b6116f9919061335a565b9250505090565b6117086127e2565b600081116117495760405162461bcd60e51b815260206004820152600e60248201526d125b9d985b1a5908185b5bdd5b9d60921b60448201526064016106bf565b6003546040516323b872dd60e01b81526001600160a01b03909116906323b872dd9061177d9033903090869060040161337c565b6020604051808303816000875af115801561179c573d6000803e3d6000fd5b505050506040513d601f19601f820116820180604052508101906117c091906133a0565b5060006064600f54836117d3919061332a565b6117dd919061335a565b905060006117eb82846133db565b600354604051630852cd8d60e31b8152600481018590529192506001600160a01b0316906342966c6890602401600060405180830381600087803b15801561183257600080fd5b505af1158015611846573d6000803e3d6000fd5b50506003546040516370a0823160e01b8152306004820152600093508492506001600160a01b03909116906370a0823190602401602060405180830381865afa158015611897573d6000803e3d6000fd5b505050506040513d601f19601f820116820180604052508101906118bb91906133c2565b6118c591906133db565b6002546040516370a0823160e01b81523060048201529192506000916001600160a01b03909116906370a0823190602401602060405180830381865afa158015611913573d6000803e3d6000fd5b505050506040513d601f19601f8201168201806040525081019061193791906133c2565b905060006119468484846107da565b6002546040516370a0823160e01b815230600482015291925082916001600160a01b03909116906370a0823190602401602060405180830381865afa158015611993573d6000803e3d6000fd5b505050506040513d601f19601f820116820180604052508101906119b791906133c2565b1015611a055760405162461bcd60e51b815260206004820152601960248201527f496e73756666696369656e74204d43206c69717569646974790000000000000060448201526064016106bf565b60025460405163a9059cbb60e01b81526001600160a01b039091169063a9059cbb90611a3790339085906004016132d1565b6020604051808303816000875af1158015611a56573d6000803e3d6000fd5b505050506040513d601f19601f82011682018060405250810190611a7a91906133a0565b50604080518781526020810183905290810186905233907f223c8ad0806f634524940a8595f819c5cfc7b1f4f4f45791269301df0a7e61d590606001610ca0565b611ac3612a50565b60035460405163a9059cbb60e01b81526001600160a01b039091169063a9059cbb90611af590849086906004016132d1565b6020604051808303816000875af1158015611b14573d6000803e3d6000fd5b505050506040513d601f19601f82011682018060405250810190611b3891906133a0565b505050565b611b456127e2565b8068056bc75e2d631000001480611b64575080681043561a8829300000145b80611b77575080681b1ae4d6e2ef500000145b80611b8a575080683635c9adc5dea00000145b611bce5760405162461bcd60e51b8152602060048201526015602482015274125b9d985b1a59081d1a58dad95d08185b5bdd5b9d605a1b60448201526064016106bf565b336000908152601160205260409020600181015415611c7d57600481015460009060ff16158015611c0f57506003820154611c0c906203f480613347565b42115b600883015490915060ff1680611c2e57506008820154610100900460ff165b80611c365750805b611c7b5760405162461bcd60e51b815260206004820152601660248201527550726576696f7573207469636b65742061637469766560501b60448201526064016106bf565b505b6002546040516323b872dd60e01b81526001600160a01b03909116906323b872dd90611cb19033903090879060040161337c565b6020604051808303816000875af1158015611cd0573d6000803e3d6000fd5b505050506040513d601f19601f82011682018060405250810190611cf491906133a0565b5060158054906000611d05836133ee565b919050555060405180610140016040528060155481526020018381526020016064846096611d33919061332a565b611d3d919061335a565b815242602080830191909152600060408084018290526060808501839052608080860184905260a080870185905260c080880186905260e09788018690523386526011875284862089518155898801516001820155898601516002820155938901516003808601919091559289015160048501805460ff1916911515919091179055908801516005840155870151600683015594860151600782015561010080870151600890920180546101209098015161ffff1990981692151561ff0019169290921796151502959095179094556010909152918220810191909155611e2590839061332a565b3360009081526010602052604090206004810191909155546001600160a01b03168015611e7c576000606460075485611e5e919061332a565b611e68919061335a565b9050611e7682826002612a7d565b50611f12565b6002546004546007546001600160a01b039283169263a9059cbb921690606490611ea6908861332a565b611eb0919061335a565b6040518363ffffffff1660e01b8152600401611ecd9291906132d1565b6020604051808303816000875af1158015611eec573d6000803e3d6000fd5b505050506040513d601f19601f82011682018060405250810190611f1091906133a0565b505b611f1f3384601554612c2c565b6002546004546009546001600160a01b039283169263a9059cbb921690606490611f49908861332a565b611f53919061335a565b6040518363ffffffff1660e01b8152600401611f709291906132d1565b6020604051808303816000875af1158015611f8f573d6000803e3d6000fd5b505050506040513d601f19601f82011682018060405250810190611fb391906133a0565b5060006064600a5485611fc6919061332a565b611fd0919061335a565b9050611fdb81612da3565b600254600654600b546001600160a01b039283169263a9059cbb921690606490612005908961332a565b61200f919061335a565b6040518363ffffffff1660e01b815260040161202c9291906132d1565b6020604051808303816000875af115801561204b573d6000803e3d6000fd5b505050506040513d601f19601f8201168201806040525081019061206f91906133a0565b50600254600554600c546001600160a01b039283169263a9059cbb92169060649061209a908961332a565b6120a4919061335a565b6040518363ffffffff1660e01b81526004016120c19291906132d1565b6020604051808303816000875af11580156120e0573d6000803e3d6000fd5b505050506040513d601f19601f8201168201806040525081019061210491906133a0565b5060155460405133917f2a91574e12ad96234e84923e146b0946ecfb871cd8d5534dc1fdcbe87a7c01b3916110b291888252602082015260400190565b612149612a50565b6001600160a01b039092166000908152601060205260409020600181019190915560020155565b612178612a50565b6115dd6000612f5b565b61218a612a50565b600480546001600160a01b039485166001600160a01b031991821617909155600580549385169382169390931790925560068054919093169116179055565b601360205281600052604060002081815481106121e557600080fd5b6000918252602090912060029091020180546001909101546001600160a01b039091169250905082565b600080620186a083106122285750600992602d92509050565b617530831061223d5750600892602892509050565b61271083106122525750600792602392509050565b610bb883106122675750600692601e92509050565b6103e8831061227c5750600592601992509050565b61012c83106122915750600492601492509050565b606483106122a55750600392600f92509050565b601e83106122b95750600292600a92509050565b600a83106122cd5750600192600592509050565b506000928392509050565b6122e0612a50565b806001600160a01b0316826001600160a01b0316036123345760405162461bcd60e51b815260206004820152601060248201526f21b0b73737ba103134b7321039b2b63360811b60448201526064016106bf565b6001600160a01b03808316600090815260106020526040902080548383166001600160a01b031982161790915516801561248b576001600160a01b0381166000908152601260205260408120905b815481101561248857846001600160a01b03168282815481106123a7576123a7613407565b6000918252602090912001546001600160a01b03160361247657815482906123d1906001906133db565b815481106123e1576123e1613407565b9060005260206000200160009054906101000a90046001600160a01b031682828154811061241157612411613407565b9060005260206000200160006101000a8154816001600160a01b0302191690836001600160a01b031602179055508180548061244f5761244f61341d565b600082815260209020810160001990810180546001600160a01b0319169055019055612488565b80612480816133ee565b915050612382565b50505b6001600160a01b03821615611b3857506001600160a01b0390811660009081526012602090815260408220805460018101825590835291200180546001600160a01b03191692909116919091179055565b6124e46127e2565b336000908152601160205260409020600481015460ff16801561250c5750600881015460ff16155b801561252257506008810154610100900460ff16155b61255e5760405162461bcd60e51b815260206004820152600d60248201526c43616e6e6f742072656465656d60981b60448201526064016106bf565b603c816007015461256f919061332a565b816006015461257e9190613347565b4210156125c25760405162461bcd60e51b815260206004820152601260248201527110de58db19481b9bdd08199a5b9a5cda195960721b60448201526064016106bf565b60006064600d5483600101546125d8919061332a565b6125e2919061335a565b6005830154909150818110612602576125fb82826133db565b9050612607565b600091505b60025460405163a9059cbb60e01b81526001600160a01b039091169063a9059cbb9061263990339085906004016132d1565b6020604051808303816000875af1158015612658573d6000803e3d6000fd5b505050506040513d601f19601f8201168201806040525081019061267c91906133a0565b503360009081526010602052604090206006810183905560088401805460ff199081166001179091556005820180549091169055546001600160a01b031680158015906126e357506001600160a01b03811660009081526010602052604090206001015415155b15612715576001600160a01b038116600090815260106020526040812060010180549161270f83613433565b91905055505b6005840154604080519182526020820185905233917ff3a670cd3af7d64b488926880889d08a8585a138ff455227af6737339a1ec262910160405180910390a2835461276090612fab565b505050506115dd60018055565b612775612a50565b60025460405163a9059cbb60e01b81526001600160a01b039091169063a9059cbb90611af590849086906004016132d1565b6127af612a50565b6001600160a01b0381166127d957604051631e4fbdf760e01b8152600060048201526024016106bf565b610cb681612f5b565b60026001540361280557604051633ee5aeb560e01b815260040160405180910390fd5b6002600155565b6001600160a01b03811660009081526011602052604090206008810154610100900460ff16612a4c5760088101805461ff001916610100179055600481015460ff16801561285f5750600881015460ff16155b15612a0b5760006064600d54836001015461287a919061332a565b612884919061335a565b905060008183600501541161289a5760006128aa565b8183600501546128aa91906133db565b905080156129295760025460405163a9059cbb60e01b81526001600160a01b039091169063a9059cbb906128e490879085906004016132d1565b6020604051808303816000875af1158015612903573d6000803e3d6000fd5b505050506040513d601f19601f8201168201806040525081019061292791906133a0565b505b60088301805460ff199081166001179091556001600160a01b038086166000908152601060205260409020600581018054909316909255905416801580159061298c57506001600160a01b03811660009081526010602052604090206001015415155b156129be576001600160a01b03811660009081526010602052604081206001018054916129b883613433565b91905055505b600584015460408051918252602082018590526001600160a01b038716917ff3a670cd3af7d64b488926880889d08a8585a138ff455227af6737339a1ec262910160405180910390a25050505b80546040519081526001600160a01b038316907f920bb94eb3842a728db98228c375ff6b00c5bc5a54fac6736155517a0a20a61a9060200160405180910390a25b5050565b6000546001600160a01b031633146115dd5760405163118cdaa760e01b81523360048201526024016106bf565b6001600160a01b038316600090815260106020908152604080832060119092529091206008810154610100900460ff1680612aba57506001810154155b15612ac6575050505050565b600082600301548360040154612adc91906133db565b90508481811115612b2f5750604080518681526020810183905282916001600160a01b038916917fb5987aab1afd379f6695f1068869ee8ca6a0d02304c57935a9cc3d3ea2e51e4d910160405180910390a25b8015612c0b5780846003016000828254612b499190613347565b909155505060025460405163a9059cbb60e01b81526001600160a01b039091169063a9059cbb90612b80908a9085906004016132d1565b6020604051808303816000875af1158015612b9f573d6000803e3d6000fd5b505050506040513d601f19601f82011682018060405250810190612bc391906133a0565b506040805182815260ff871660208201526001600160a01b038916917ff381583145e90b82cc5e529bf4fc4d0e44397174cdf145c4251ac33ef195a424910160405180910390a25b8360040154846003015410612c2357612c238761280c565b50505050505050565b6001600160a01b0380841660009081526010602052604081205490911690805b6001600160a01b03831615801590612c645750601481105b15612d9b576001600160a01b038316600090815260106020526040812060010154612c8e9061220f565b91505082811115612d5c576000612ca584836133db565b905060006064612cb5838a61332a565b612cbf919061335a565b6000888152601360209081526040808320815180830183526001600160a01b038c8116808352828601888152845460018082018755958952978790209351600290980290930180546001600160a01b03191697909216969096178155905191015551838152929350909189917fbd5e0947444d5adb46b3d24786f72907c1e8176cb1348960766a6cd6fad13e9f910160405180910390a382945050505b602d8110612d6a5750612d9b565b6001600160a01b039384166000908152601060205260409020549093169281612d92816133ee565b92505050612c4c565b505050505050565b6002546040516370a0823160e01b815230600482015260009183916001600160a01b03909116906370a0823190602401602060405180830381865afa158015612df0573d6000803e3d6000fd5b505050506040513d601f19601f82011682018060405250810190612e1491906133c2565b612e1e91906133db565b6003546040516370a0823160e01b81523060048201529192506000916001600160a01b03909116906370a0823190602401602060405180830381865afa158015612e6c573d6000803e3d6000fd5b505050506040513d601f19601f82011682018060405250810190612e9091906133c2565b9050600082118015612ea25750600081115b15611b38576000612eb48484846107da565b90508015612f5557600354604051630852cd8d60e31b8152600481018390526001600160a01b03909116906342966c6890602401600060405180830381600087803b158015612f0257600080fd5b505af1158015612f16573d6000803e3d6000fd5b505060408051878152602081018590527f0ec3929061cbbbeecb325623e7d5a86c3dae11cb8a22ca45dc0972955657da25935001905060405180910390a15b50505050565b600080546001600160a01b038381166001600160a01b0319831681178455604051919092169283917f8be0079c531659141344cd1fd0a4f28419497f9722a3daafe3b4186f6b6457e09190a35050565b600081815260136020908152604080832080548251818502810185019093528083529192909190849084015b8282101561301f576000848152602090819020604080518082019091526002850290910180546001600160a01b03168252600190810154828401529083529092019101612fd7565b50505050905060005b81518110156131075761307782828151811061304657613046613407565b60200260200101516000015183838151811061306457613064613407565b6020026020010151602001516003612a7d565b81818151811061308957613089613407565b6020026020010151600001516001600160a01b0316837f380d782ec118e5171a4d1e7081db076c4c94ca49c623d531763d402b094b4f248484815181106130d2576130d2613407565b6020026020010151602001516040516130ed91815260200190565b60405180910390a3806130ff816133ee565b915050613028565b506000828152601360205260408120612a4c915080546000825560020290600052602060002090810190610cb691905b8082111561315c5780546001600160a01b031916815560006001820155600201613137565b5090565b80356001600160a01b038116811461317757600080fd5b919050565b60006020828403121561318e57600080fd5b61319782613160565b9392505050565b6000806000606084860312156131b357600080fd5b505081359360208301359350604090920135919050565b600080604083850312156131dd57600080fd5b6131e683613160565b946020939093013593505050565b60006020828403121561320657600080fd5b5035919050565b6000806040838503121561322057600080fd5b8235915061323060208401613160565b90509250929050565b60008060006060848603121561324e57600080fd5b61325784613160565b95602085013595506040909401359392505050565b60008060006060848603121561328157600080fd5b61328a84613160565b925061329860208501613160565b91506132a660408501613160565b90509250925092565b600080604083850312156132c257600080fd5b50508035926020909101359150565b6001600160a01b03929092168252602082015260400190565b600080604083850312156132fd57600080fd5b61330683613160565b915061323060208401613160565b634e487b7160e01b600052601160045260246000fd5b808202811582820484141761334157613341613314565b92915050565b8082018082111561334157613341613314565b60008261337757634e487b7160e01b600052601260045260246000fd5b500490565b6001600160a01b039384168152919092166020820152604081019190915260600190565b6000602082840312156133b257600080fd5b8151801515811461319757600080fd5b6000602082840312156133d457600080fd5b5051919050565b8181038181111561334157613341613314565b60006001820161340057613400613314565b5060010190565b634e487b7160e01b600052603260045260246000fd5b634e487b7160e01b600052603160045260246000fd5b60008161344257613442613314565b50600019019056fea26469706673582212200deff9730bd69680987a01b530ce1f7b2e7227d80094e6c6b96cbddf010546de64736f6c63430008140033","opcodes":"PUSH1 0x80 PUSH1 0x40 MSTORE PUSH1 0x19 PUSH1 0x7 SSTORE PUSH1 0xF PUSH1 0x8 SSTORE PUSH1 0x5 PUSH1 0x9 SSTORE PUSH1 0x5 PUSH1 0xA SSTORE PUSH1 0x19 PUSH1 0xB SSTORE PUSH1 0x19 PUSH1 0xC SSTORE PUSH1 0x1 PUSH1 0xD SSTORE PUSH1 0x32 PUSH1 0xE SSTORE PUSH1 0x19 PUSH1 0xF SSTORE CALLVALUE DUP1 ISZERO PUSH3 0x3E JUMPI PUSH1 0x0 DUP1 REVERT JUMPDEST POP PUSH1 0x40 MLOAD PUSH3 0x3668 CODESIZE SUB DUP1 PUSH3 0x3668 DUP4 CODECOPY DUP2 ADD PUSH1 0x40 DUP2 SWAP1 MSTORE PUSH3 0x61 SWAP2 PUSH3 0x168 JUMP JUMPDEST CALLER DUP1 PUSH3 0x88 JUMPI PUSH1 0x40 MLOAD PUSH4 0x1E4FBDF7 PUSH1 0xE0 SHL DUP2 MSTORE PUSH1 0x0 PUSH1 0x4 DUP3 ADD MSTORE PUSH1 0x24 ADD PUSH1 0x40 MLOAD DUP1 SWAP2 SUB SWAP1 REVERT JUMPDEST PUSH3 0x93 DUP2 PUSH3 0xFB JUMP JUMPDEST POP PUSH1 0x1 DUP1 SSTORE PUSH1 0x2 DUP1 SLOAD PUSH1 0x1 PUSH1 0x1 PUSH1 0xA0 SHL SUB NOT SWAP1 DUP2 AND PUSH1 0x1 PUSH1 0x1 PUSH1 0xA0 SHL SUB SWAP8 DUP9 AND OR SWAP1 SWAP2 SSTORE PUSH1 0x3 DUP1 SLOAD DUP3 AND SWAP6 DUP8 AND SWAP6 SWAP1 SWAP6 OR SWAP1 SWAP5 SSTORE PUSH1 0x4 DUP1 SLOAD DUP6 AND SWAP4 DUP7 AND SWAP4 SWAP1 SWAP4 OR SWAP1 SWAP3 SSTORE PUSH1 0x5 DUP1 SLOAD DUP5 AND SWAP2 DUP6 AND SWAP2 SWAP1 SWAP2 OR SWAP1 SSTORE PUSH1 0x6 DUP1 SLOAD SWAP1 SWAP3 AND SWAP3 AND SWAP2 SWAP1 SWAP2 OR SWAP1 SSTORE PUSH3 0x1D8 JUMP JUMPDEST PUSH1 0x0 DUP1 SLOAD PUSH1 0x1 PUSH1 0x1 PUSH1 0xA0 SHL SUB DUP4 DUP2 AND PUSH1 0x1 PUSH1 0x1 PUSH1 0xA0 SHL SUB NOT DUP4 AND DUP2 OR DUP5 SSTORE PUSH1 0x40 MLOAD SWAP2 SWAP1 SWAP3 AND SWAP3 DUP4 SWAP2 PUSH32 0x8BE0079C531659141344CD1FD0A4F28419497F9722A3DAAFE3B4186F6B6457E0 SWAP2 SWAP1 LOG3 POP POP JUMP JUMPDEST DUP1 MLOAD PUSH1 0x1 PUSH1 0x1 PUSH1 0xA0 SHL SUB DUP2 AND DUP2 EQ PUSH3 0x163 JUMPI PUSH1 0x0 DUP1 REVERT JUMPDEST SWAP2 SWAP1 POP JUMP JUMPDEST PUSH1 0x0 DUP1 PUSH1 0x0 DUP1 PUSH1 0x0 PUSH1 0xA0 DUP7 DUP9 SUB SLT ISZERO PUSH3 0x181 JUMPI PUSH1 0x0 DUP1 REVERT JUMPDEST PUSH3 0x18C DUP7 PUSH3 0x14B JUMP JUMPDEST SWAP5 POP PUSH3 0x19C PUSH1 0x20 DUP8 ADD PUSH3 0x14B JUMP JUMPDEST SWAP4 POP PUSH3 0x1AC PUSH1 0x40 DUP8 ADD PUSH3 0x14B JUMP JUMPDEST SWAP3 POP PUSH3 0x1BC PUSH1 0x60 DUP8 ADD PUSH3 0x14B JUMP JUMPDEST SWAP2 POP PUSH3 0x1CC PUSH1 0x80 DUP8 ADD PUSH3 0x14B JUMP JUMPDEST SWAP1 POP SWAP3 SWAP6 POP SWAP3 SWAP6 SWAP1 SWAP4 POP JUMP JUMPDEST PUSH2 0x3480 DUP1 PUSH3 0x1E8 PUSH1 0x0 CODECOPY PUSH1 0x0 RETURN INVALID PUSH1 0x80 PUSH1 0x40 MSTORE CALLVALUE DUP1 ISZERO PUSH2 0x10 JUMPI PUSH1 0x0 DUP1 REVERT JUMPDEST POP PUSH1 0x4 CALLDATASIZE LT PUSH2 0x269 JUMPI PUSH1 0x0 CALLDATALOAD PUSH1 0xE0 SHR DUP1 PUSH4 0x75CB1BD1 GT PUSH2 0x151 JUMPI DUP1 PUSH4 0xA2AF9226 GT PUSH2 0xC3 JUMPI DUP1 PUSH4 0xD241E001 GT PUSH2 0x87 JUMPI DUP1 PUSH4 0xD241E001 EQ PUSH2 0x60C JUMPI DUP1 PUSH4 0xD8020A18 EQ PUSH2 0x61F JUMPI DUP1 PUSH4 0xDEC7FA3B EQ PUSH2 0x628 JUMPI DUP1 PUSH4 0xE4412F68 EQ PUSH2 0x631 JUMPI DUP1 PUSH4 0xF1D34D4E EQ PUSH2 0x63A JUMPI DUP1 PUSH4 0xF2FDE38B EQ PUSH2 0x65A JUMPI PUSH1 0x0 DUP1 REVERT JUMPDEST DUP1 PUSH4 0xA2AF9226 EQ PUSH2 0x5D6 JUMPI DUP1 PUSH4 0xBD594DCF EQ PUSH2 0x5E9 JUMPI DUP1 PUSH4 0xBE040FB0 EQ PUSH2 0x5F2 JUMPI DUP1 PUSH4 0xCCF61944 EQ PUSH2 0x5FA JUMPI DUP1 PUSH4 0xCEAA366D EQ PUSH2 0x603 JUMPI PUSH1 0x0 DUP1 REVERT JUMPDEST DUP1 PUSH4 0x88FD4D33 GT PUSH2 0x115 JUMPI DUP1 PUSH4 0x88FD4D33 EQ PUSH2 0x586 JUMPI DUP1 PUSH4 0x8A859A85 EQ PUSH2 0x599 JUMPI DUP1 PUSH4 0x8C0EAA48 EQ PUSH2 0x5A1 JUMPI DUP1 PUSH4 0x8DA5CB5B EQ PUSH2 0x5A9 JUMPI DUP1 PUSH4 0x9370B080 EQ PUSH2 0x5BA JUMPI DUP1 PUSH4 0x95253992 EQ PUSH2 0x5C3 JUMPI PUSH1 0x0 DUP1 REVERT JUMPDEST DUP1 PUSH4 0x75CB1BD1 EQ PUSH2 0x462 JUMPI DUP1 PUSH4 0x75F0A874 EQ PUSH2 0x475 JUMPI DUP1 PUSH4 0x813380CD EQ PUSH2 0x488 JUMPI DUP1 PUSH4 0x86481D40 EQ PUSH2 0x4A9 JUMPI DUP1 PUSH4 0x8710BCAA EQ PUSH2 0x4D1 JUMPI PUSH1 0x0 DUP1 REVERT JUMPDEST DUP1 PUSH4 0x35076373 GT PUSH2 0x1EA JUMPI DUP1 PUSH4 0x52778B05 GT PUSH2 0x1AE JUMPI DUP1 PUSH4 0x52778B05 EQ PUSH2 0x405 JUMPI DUP1 PUSH4 0x6031A52F EQ PUSH2 0x418 JUMPI DUP1 PUSH4 0x62EEA914 EQ PUSH2 0x421 JUMPI DUP1 PUSH4 0x67DD74CA EQ PUSH2 0x434 JUMPI DUP1 PUSH4 0x6FB3C47C EQ PUSH2 0x447 JUMPI DUP1 PUSH4 0x715018A6 EQ PUSH2 0x45A JUMPI PUSH1 0x0 DUP1 REVERT JUMPDEST DUP1 PUSH4 0x35076373 EQ PUSH2 0x3C7 JUMPI DUP1 PUSH4 0x372500AB EQ PUSH2 0x3DA JUMPI DUP1 PUSH4 0x3A3EA2F0 EQ PUSH2 0x3E2 JUMPI DUP1 PUSH4 0x4626402B EQ PUSH2 0x3EA JUMPI DUP1 PUSH4 0x488B5D97 EQ PUSH2 0x3FD JUMPI PUSH1 0x0 DUP1 REVERT JUMPDEST DUP1 PUSH4 0xE2BE210 GT PUSH2 0x231 JUMPI DUP1 PUSH4 0xE2BE210 EQ PUSH2 0x2F0 JUMPI DUP1 PUSH4 0x1427F616 EQ PUSH2 0x30A JUMPI DUP1 PUSH4 0x1788513C EQ PUSH2 0x312 JUMPI DUP1 PUSH4 0x1959A002 EQ PUSH2 0x325 JUMPI DUP1 PUSH4 0x27F082F4 EQ PUSH2 0x3BE JUMPI PUSH1 0x0 DUP1 REVERT JUMPDEST DUP1 PUSH4 0x4EF9D58 EQ PUSH2 0x26E JUMPI DUP1 PUSH4 0x4F618CB EQ PUSH2 0x28A JUMPI DUP1 PUSH4 0x54D50D4 EQ PUSH2 0x29F JUMPI DUP1 PUSH4 0x5AD3935 EQ PUSH2 0x2B2 JUMPI DUP1 PUSH4 0xA5C4567 EQ PUSH2 0x2DD JUMPI JUMPDEST PUSH1 0x0 DUP1 REVERT JUMPDEST PUSH2 0x277 PUSH1 0xC SLOAD DUP2 JUMP JUMPDEST PUSH1 0x40 MLOAD SWAP1 DUP2 MSTORE PUSH1 0x20 ADD JUMPDEST PUSH1 0x40 MLOAD DUP1 SWAP2 SUB SWAP1 RETURN JUMPDEST PUSH2 0x29D PUSH2 0x298 CALLDATASIZE PUSH1 0x4 PUSH2 0x317C JUMP JUMPDEST PUSH2 0x66D JUMP JUMPDEST STOP JUMPDEST PUSH2 0x277 PUSH2 0x2AD CALLDATASIZE PUSH1 0x4 PUSH2 0x319E JUMP JUMPDEST PUSH2 0x7DA JUMP JUMPDEST PUSH2 0x2C5 PUSH2 0x2C0 CALLDATASIZE PUSH1 0x4 PUSH2 0x31CA JUMP JUMPDEST PUSH2 0x8B0 JUMP JUMPDEST PUSH1 0x40 MLOAD PUSH1 0x1 PUSH1 0x1 PUSH1 0xA0 SHL SUB SWAP1 SWAP2 AND DUP2 MSTORE PUSH1 0x20 ADD PUSH2 0x281 JUMP JUMPDEST PUSH2 0x29D PUSH2 0x2EB CALLDATASIZE PUSH1 0x4 PUSH2 0x31F4 JUMP JUMPDEST PUSH2 0x8E8 JUMP JUMPDEST PUSH2 0x2F8 PUSH1 0x2 DUP2 JUMP JUMPDEST PUSH1 0x40 MLOAD PUSH1 0xFF SWAP1 SWAP2 AND DUP2 MSTORE PUSH1 0x20 ADD PUSH2 0x281 JUMP JUMPDEST PUSH2 0x2F8 PUSH1 0x0 DUP2 JUMP JUMPDEST PUSH1 0x3 SLOAD PUSH2 0x2C5 SWAP1 PUSH1 0x1 PUSH1 0x1 PUSH1 0xA0 SHL SUB AND DUP2 JUMP JUMPDEST PUSH2 0x37D PUSH2 0x333 CALLDATASIZE PUSH1 0x4 PUSH2 0x317C JUMP JUMPDEST PUSH1 0x10 PUSH1 0x20 MSTORE PUSH1 0x0 SWAP1 DUP2 MSTORE PUSH1 0x40 SWAP1 KECCAK256 DUP1 SLOAD PUSH1 0x1 DUP3 ADD SLOAD PUSH1 0x2 DUP4 ADD SLOAD PUSH1 0x3 DUP5 ADD SLOAD PUSH1 0x4 DUP6 ADD SLOAD PUSH1 0x5 DUP7 ADD SLOAD PUSH1 0x6 SWAP1 SWAP7 ADD SLOAD PUSH1 0x1 PUSH1 0x1 PUSH1 0xA0 SHL SUB SWAP1 SWAP6 AND SWAP6 SWAP4 SWAP5 SWAP3 SWAP4 SWAP2 SWAP3 SWAP1 SWAP2 PUSH1 0xFF AND SWAP1 DUP8 JUMP JUMPDEST PUSH1 0x40 DUP1 MLOAD PUSH1 0x1 PUSH1 0x1 PUSH1 0xA0 SHL SUB SWAP1 SWAP9 AND DUP9 MSTORE PUSH1 0x20 DUP9 ADD SWAP7 SWAP1 SWAP7 MSTORE SWAP5 DUP7 ADD SWAP4 SWAP1 SWAP4 MSTORE PUSH1 0x60 DUP6 ADD SWAP2 SWAP1 SWAP2 MSTORE PUSH1 0x80 DUP5 ADD MSTORE ISZERO ISZERO PUSH1 0xA0 DUP4 ADD MSTORE PUSH1 0xC0 DUP3 ADD MSTORE PUSH1 0xE0 ADD PUSH2 0x281 JUMP JUMPDEST PUSH2 0x277 PUSH1 0xE SLOAD DUP2 JUMP JUMPDEST PUSH2 0x29D PUSH2 0x3D5 CALLDATASIZE PUSH1 0x4 PUSH2 0x31F4 JUMP JUMPDEST PUSH2 0xCB9 JUMP JUMPDEST PUSH2 0x29D PUSH2 0x10C7 JUMP JUMPDEST PUSH2 0x277 PUSH2 0x15DF JUMP JUMPDEST PUSH1 0x5 SLOAD PUSH2 0x2C5 SWAP1 PUSH1 0x1 PUSH1 0x1 PUSH1 0xA0 SHL SUB AND DUP2 JUMP JUMPDEST PUSH2 0x277 PUSH1 0x3C DUP2 JUMP JUMPDEST PUSH2 0x29D PUSH2 0x413 CALLDATASIZE PUSH1 0x4 PUSH2 0x31F4 JUMP JUMPDEST PUSH2 0x1700 JUMP JUMPDEST PUSH2 0x277 PUSH1 0x15 SLOAD DUP2 JUMP JUMPDEST PUSH2 0x29D PUSH2 0x42F CALLDATASIZE PUSH1 0x4 PUSH2 0x320D JUMP JUMPDEST PUSH2 0x1ABB JUMP JUMPDEST PUSH2 0x29D PUSH2 0x442 CALLDATASIZE PUSH1 0x4 PUSH2 0x31F4 JUMP JUMPDEST PUSH2 0x1B3D JUMP JUMPDEST PUSH2 0x29D PUSH2 0x455 CALLDATASIZE PUSH1 0x4 PUSH2 0x3239 JUMP JUMPDEST PUSH2 0x2141 JUMP JUMPDEST PUSH2 0x29D PUSH2 0x2170 JUMP JUMPDEST PUSH2 0x29D PUSH2 0x470 CALLDATASIZE PUSH1 0x4 PUSH2 0x326C JUMP JUMPDEST PUSH2 0x2182 JUMP JUMPDEST PUSH1 0x4 SLOAD PUSH2 0x2C5 SWAP1 PUSH1 0x1 PUSH1 0x1 PUSH1 0xA0 SHL SUB AND DUP2 JUMP JUMPDEST PUSH2 0x49B PUSH2 0x496 CALLDATASIZE PUSH1 0x4 PUSH2 0x32AF JUMP JUMPDEST PUSH2 0x21C9 JUMP JUMPDEST PUSH1 0x40 MLOAD PUSH2 0x281 SWAP3 SWAP2 SWAP1 PUSH2 0x32D1 JUMP JUMPDEST PUSH2 0x4BC PUSH2 0x4B7 CALLDATASIZE PUSH1 0x4 PUSH2 0x31F4 JUMP JUMPDEST PUSH2 0x220F JUMP JUMPDEST PUSH1 0x40 DUP1 MLOAD SWAP3 DUP4 MSTORE PUSH1 0x20 DUP4 ADD SWAP2 SWAP1 SWAP2 MSTORE ADD PUSH2 0x281 JUMP JUMPDEST PUSH2 0x538 PUSH2 0x4DF CALLDATASIZE PUSH1 0x4 PUSH2 0x317C JUMP JUMPDEST PUSH1 0x11 PUSH1 0x20 MSTORE PUSH1 0x0 SWAP1 DUP2 MSTORE PUSH1 0x40 SWAP1 KECCAK256 DUP1 SLOAD PUSH1 0x1 DUP3 ADD SLOAD PUSH1 0x2 DUP4 ADD SLOAD PUSH1 0x3 DUP5 ADD SLOAD PUSH1 0x4 DUP6 ADD SLOAD PUSH1 0x5 DUP7 ADD SLOAD PUSH1 0x6 DUP8 ADD SLOAD PUSH1 0x7 DUP9 ADD SLOAD PUSH1 0x8 SWAP1 SWAP9 ADD SLOAD SWAP7 SWAP8 SWAP6 SWAP7 SWAP5 SWAP6 SWAP4 SWAP5 PUSH1 0xFF SWAP4 DUP5 AND SWAP5 SWAP3 SWAP4 SWAP2 SWAP3 SWAP2 DUP2 DUP2 AND SWAP2 PUSH2 0x100 SWAP1 DIV AND DUP11 JUMP JUMPDEST PUSH1 0x40 DUP1 MLOAD SWAP11 DUP12 MSTORE PUSH1 0x20 DUP12 ADD SWAP10 SWAP1 SWAP10 MSTORE SWAP8 DUP10 ADD SWAP7 SWAP1 SWAP7 MSTORE PUSH1 0x60 DUP9 ADD SWAP5 SWAP1 SWAP5 MSTORE SWAP2 ISZERO ISZERO PUSH1 0x80 DUP8 ADD MSTORE PUSH1 0xA0 DUP7 ADD MSTORE PUSH1 0xC0 DUP6 ADD MSTORE PUSH1 0xE0 DUP5 ADD MSTORE ISZERO ISZERO PUSH2 0x100 DUP4 ADD MSTORE ISZERO ISZERO PUSH2 0x120 DUP3 ADD MSTORE PUSH2 0x140 ADD PUSH2 0x281 JUMP JUMPDEST PUSH1 0x6 SLOAD PUSH2 0x2C5 SWAP1 PUSH1 0x1 PUSH1 0x1 PUSH1 0xA0 SHL SUB AND DUP2 JUMP JUMPDEST PUSH2 0x2F8 PUSH1 0x1 DUP2 JUMP JUMPDEST PUSH2 0x2F8 PUSH1 0x3 DUP2 JUMP JUMPDEST PUSH1 0x0 SLOAD PUSH1 0x1 PUSH1 0x1 PUSH1 0xA0 SHL SUB AND PUSH2 0x2C5 JUMP JUMPDEST PUSH2 0x277 PUSH1 0xF SLOAD DUP2 JUMP JUMPDEST PUSH1 0x2 SLOAD PUSH2 0x2C5 SWAP1 PUSH1 0x1 PUSH1 0x1 PUSH1 0xA0 SHL SUB AND DUP2 JUMP JUMPDEST PUSH2 0x29D PUSH2 0x5E4 CALLDATASIZE PUSH1 0x4 PUSH2 0x32EA JUMP JUMPDEST PUSH2 0x22D8 JUMP JUMPDEST PUSH2 0x277 PUSH1 0x8 SLOAD DUP2 JUMP JUMPDEST PUSH2 0x29D PUSH2 0x24DC JUMP JUMPDEST PUSH2 0x277 PUSH1 0x7 SLOAD DUP2 JUMP JUMPDEST PUSH2 0x277 PUSH1 0xB SLOAD DUP2 JUMP JUMPDEST PUSH2 0x29D PUSH2 0x61A CALLDATASIZE PUSH1 0x4 PUSH2 0x320D JUMP JUMPDEST PUSH2 0x276D JUMP JUMPDEST PUSH2 0x277 PUSH1 0x9 SLOAD DUP2 JUMP JUMPDEST PUSH2 0x277 PUSH1 0xD SLOAD DUP2 JUMP JUMPDEST PUSH2 0x277 PUSH1 0xA SLOAD DUP2 JUMP JUMPDEST PUSH2 0x277 PUSH2 0x648 CALLDATASIZE PUSH1 0x4 PUSH2 0x31F4 JUMP JUMPDEST PUSH1 0x14 PUSH1 0x20 MSTORE PUSH1 0x0 SWAP1 DUP2 MSTORE PUSH1 0x40 SWAP1 KECCAK256 SLOAD DUP2 JUMP JUMPDEST PUSH2 0x29D PUSH2 0x668 CALLDATASIZE PUSH1 0x4 PUSH2 0x317C JUMP JUMPDEST PUSH2 0x27A7 JUMP JUMPDEST CALLER PUSH1 0x0 SWAP1 DUP2 MSTORE PUSH1 0x10 PUSH1 0x20 MSTORE PUSH1 0x40 SWAP1 KECCAK256 SLOAD PUSH1 0x1 PUSH1 0x1 PUSH1 0xA0 SHL SUB AND ISZERO PUSH2 0x6C8 JUMPI PUSH1 0x40 MLOAD PUSH3 0x461BCD PUSH1 0xE5 SHL DUP2 MSTORE PUSH1 0x20 PUSH1 0x4 DUP3 ADD MSTORE PUSH1 0xD PUSH1 0x24 DUP3 ADD MSTORE PUSH13 0x105B1C9958591E48189BDD5B99 PUSH1 0x9A SHL PUSH1 0x44 DUP3 ADD MSTORE PUSH1 0x64 ADD JUMPDEST PUSH1 0x40 MLOAD DUP1 SWAP2 SUB SWAP1 REVERT JUMPDEST CALLER PUSH1 0x1 PUSH1 0x1 PUSH1 0xA0 SHL SUB DUP3 AND SUB PUSH2 0x713 JUMPI PUSH1 0x40 MLOAD PUSH3 0x461BCD PUSH1 0xE5 SHL DUP2 MSTORE PUSH1 0x20 PUSH1 0x4 DUP3 ADD MSTORE PUSH1 0x10 PUSH1 0x24 DUP3 ADD MSTORE PUSH16 0x21B0B73737BA103134B7321039B2B633 PUSH1 0x81 SHL PUSH1 0x44 DUP3 ADD MSTORE PUSH1 0x64 ADD PUSH2 0x6BF JUMP JUMPDEST PUSH1 0x1 PUSH1 0x1 PUSH1 0xA0 SHL SUB DUP2 AND PUSH2 0x75C JUMPI PUSH1 0x40 MLOAD PUSH3 0x461BCD PUSH1 0xE5 SHL DUP2 MSTORE PUSH1 0x20 PUSH1 0x4 DUP3 ADD MSTORE PUSH1 0x10 PUSH1 0x24 DUP3 ADD MSTORE PUSH16 0x24B73B30B634B2103932B332B93932B9 PUSH1 0x81 SHL PUSH1 0x44 DUP3 ADD MSTORE PUSH1 0x64 ADD PUSH2 0x6BF JUMP JUMPDEST CALLER PUSH1 0x0 DUP2 DUP2 MSTORE PUSH1 0x10 PUSH1 0x20 SWAP1 DUP2 MSTORE PUSH1 0x40 DUP1 DUP4 KECCAK256 DUP1 SLOAD PUSH1 0x1 PUSH1 0x1 PUSH1 0xA0 SHL SUB DUP8 AND PUSH1 0x1 PUSH1 0x1 PUSH1 0xA0 SHL SUB NOT SWAP2 DUP3 AND DUP2 OR SWAP1 SWAP3 SSTORE DUP2 DUP6 MSTORE PUSH1 0x12 DUP5 MSTORE DUP3 DUP6 KECCAK256 DUP1 SLOAD PUSH1 0x1 DUP2 ADD DUP3 SSTORE SWAP1 DUP7 MSTORE SWAP4 DUP6 KECCAK256 SWAP1 SWAP4 ADD DUP1 SLOAD SWAP1 SWAP4 AND DUP6 OR SWAP1 SWAP3 SSTORE MLOAD SWAP1 SWAP3 SWAP2 PUSH32 0xA6DBB5AA28F35437DE94D685D66EDCE5FB4812196B4984B91DFD5A7B38C0FB30 SWAP2 LOG3 POP JUMP JUMPDEST PUSH1 0x0 DUP1 DUP5 GT PUSH2 0x82B JUMPI PUSH1 0x40 MLOAD PUSH3 0x461BCD PUSH1 0xE5 SHL DUP2 MSTORE PUSH1 0x20 PUSH1 0x4 DUP3 ADD MSTORE PUSH1 0x19 PUSH1 0x24 DUP3 ADD MSTORE PUSH32 0x496E73756666696369656E7420696E70757420616D6F756E7400000000000000 PUSH1 0x44 DUP3 ADD MSTORE PUSH1 0x64 ADD PUSH2 0x6BF JUMP JUMPDEST PUSH1 0x0 DUP4 GT DUP1 ISZERO PUSH2 0x83B JUMPI POP PUSH1 0x0 DUP3 GT JUMPDEST PUSH2 0x880 JUMPI PUSH1 0x40 MLOAD PUSH3 0x461BCD PUSH1 0xE5 SHL DUP2 MSTORE PUSH1 0x20 PUSH1 0x4 DUP3 ADD MSTORE PUSH1 0x16 PUSH1 0x24 DUP3 ADD MSTORE PUSH22 0x496E73756666696369656E74206C6971756964697479 PUSH1 0x50 SHL PUSH1 0x44 DUP3 ADD MSTORE PUSH1 0x64 ADD PUSH2 0x6BF JUMP JUMPDEST PUSH1 0x0 PUSH2 0x88C DUP4 DUP7 PUSH2 0x332A JUMP JUMPDEST SWAP1 POP PUSH1 0x0 PUSH2 0x89A DUP7 DUP7 PUSH2 0x3347 JUMP JUMPDEST SWAP1 POP PUSH2 0x8A6 DUP2 DUP4 PUSH2 0x335A JUMP JUMPDEST SWAP7 SWAP6 POP POP POP POP POP POP JUMP JUMPDEST PUSH1 0x12 PUSH1 0x20 MSTORE DUP2 PUSH1 0x0 MSTORE PUSH1 0x40 PUSH1 0x0 KECCAK256 DUP2 DUP2 SLOAD DUP2 LT PUSH2 0x8CC JUMPI PUSH1 0x0 DUP1 REVERT JUMPDEST PUSH1 0x0 SWAP2 DUP3 MSTORE PUSH1 0x20 SWAP1 SWAP2 KECCAK256 ADD SLOAD PUSH1 0x1 PUSH1 0x1 PUSH1 0xA0 SHL SUB AND SWAP2 POP DUP3 SWAP1 POP JUMP JUMPDEST PUSH2 0x8F0 PUSH2 0x27E2 JUMP JUMPDEST PUSH1 0x0 DUP2 GT PUSH2 0x931 JUMPI PUSH1 0x40 MLOAD PUSH3 0x461BCD PUSH1 0xE5 SHL DUP2 MSTORE PUSH1 0x20 PUSH1 0x4 DUP3 ADD MSTORE PUSH1 0xE PUSH1 0x24 DUP3 ADD MSTORE PUSH14 0x125B9D985B1A5908185B5BDD5B9D PUSH1 0x92 SHL PUSH1 0x44 DUP3 ADD MSTORE PUSH1 0x64 ADD PUSH2 0x6BF JUMP JUMPDEST PUSH1 0x2 SLOAD PUSH1 0x40 MLOAD PUSH4 0x23B872DD PUSH1 0xE0 SHL DUP2 MSTORE PUSH1 0x1 PUSH1 0x1 PUSH1 0xA0 SHL SUB SWAP1 SWAP2 AND SWAP1 PUSH4 0x23B872DD SWAP1 PUSH2 0x965 SWAP1 CALLER SWAP1 ADDRESS SWAP1 DUP7 SWAP1 PUSH1 0x4 ADD PUSH2 0x337C JUMP JUMPDEST PUSH1 0x20 PUSH1 0x40 MLOAD DUP1 DUP4 SUB DUP2 PUSH1 0x0 DUP8 GAS CALL ISZERO DUP1 ISZERO PUSH2 0x984 JUMPI RETURNDATASIZE PUSH1 0x0 DUP1 RETURNDATACOPY RETURNDATASIZE PUSH1 0x0 REVERT JUMPDEST POP POP POP POP PUSH1 0x40 MLOAD RETURNDATASIZE PUSH1 0x1F NOT PUSH1 0x1F DUP3 ADD AND DUP3 ADD DUP1 PUSH1 0x40 MSTORE POP DUP2 ADD SWAP1 PUSH2 0x9A8 SWAP2 SWAP1 PUSH2 0x33A0 JUMP JUMPDEST POP PUSH1 0x2 SLOAD PUSH1 0x40 MLOAD PUSH4 0x70A08231 PUSH1 0xE0 SHL DUP2 MSTORE ADDRESS PUSH1 0x4 DUP3 ADD MSTORE PUSH1 0x0 SWAP2 DUP4 SWAP2 PUSH1 0x1 PUSH1 0x1 PUSH1 0xA0 SHL SUB SWAP1 SWAP2 AND SWAP1 PUSH4 0x70A08231 SWAP1 PUSH1 0x24 ADD PUSH1 0x20 PUSH1 0x40 MLOAD DUP1 DUP4 SUB DUP2 DUP7 GAS STATICCALL ISZERO DUP1 ISZERO PUSH2 0x9F6 JUMPI RETURNDATASIZE PUSH1 0x0 DUP1 RETURNDATACOPY RETURNDATASIZE PUSH1 0x0 REVERT JUMPDEST POP POP POP POP PUSH1 0x40 MLOAD RETURNDATASIZE PUSH1 0x1F NOT PUSH1 0x1F DUP3 ADD AND DUP3 ADD DUP1 PUSH1 0x40 MSTORE POP DUP2 ADD SWAP1 PUSH2 0xA1A SWAP2 SWAP1 PUSH2 0x33C2 JUMP JUMPDEST PUSH2 0xA24 SWAP2 SWAP1 PUSH2 0x33DB JUMP JUMPDEST PUSH1 0x3 SLOAD PUSH1 0x40 MLOAD PUSH4 0x70A08231 PUSH1 0xE0 SHL DUP2 MSTORE ADDRESS PUSH1 0x4 DUP3 ADD MSTORE SWAP2 SWAP3 POP PUSH1 0x0 SWAP2 PUSH1 0x1 PUSH1 0x1 PUSH1 0xA0 SHL SUB SWAP1 SWAP2 AND SWAP1 PUSH4 0x70A08231 SWAP1 PUSH1 0x24 ADD PUSH1 0x20 PUSH1 0x40 MLOAD DUP1 DUP4 SUB DUP2 DUP7 GAS STATICCALL ISZERO DUP1 ISZERO PUSH2 0xA72 JUMPI RETURNDATASIZE PUSH1 0x0 DUP1 RETURNDATACOPY RETURNDATASIZE PUSH1 0x0 REVERT JUMPDEST POP POP POP POP PUSH1 0x40 MLOAD RETURNDATASIZE PUSH1 0x1F NOT PUSH1 0x1F DUP3 ADD AND DUP3 ADD DUP1 PUSH1 0x40 MSTORE POP DUP2 ADD SWAP1 PUSH2 0xA96 SWAP2 SWAP1 PUSH2 0x33C2 JUMP JUMPDEST SWAP1 POP PUSH1 0x0 PUSH2 0xAA5 DUP5 DUP5 DUP5 PUSH2 0x7DA JUMP JUMPDEST SWAP1 POP PUSH1 0x0 PUSH1 0x64 PUSH1 0xE SLOAD DUP4 PUSH2 0xAB9 SWAP2 SWAP1 PUSH2 0x332A JUMP JUMPDEST PUSH2 0xAC3 SWAP2 SWAP1 PUSH2 0x335A JUMP JUMPDEST SWAP1 POP PUSH1 0x0 PUSH2 0xAD1 DUP3 DUP5 PUSH2 0x33DB JUMP JUMPDEST PUSH1 0x3 SLOAD PUSH1 0x40 MLOAD PUSH4 0x70A08231 PUSH1 0xE0 SHL DUP2 MSTORE ADDRESS PUSH1 0x4 DUP3 ADD MSTORE SWAP2 SWAP3 POP DUP5 SWAP2 PUSH1 0x1 PUSH1 0x1 PUSH1 0xA0 SHL SUB SWAP1 SWAP2 AND SWAP1 PUSH4 0x70A08231 SWAP1 PUSH1 0x24 ADD PUSH1 0x20 PUSH1 0x40 MLOAD DUP1 DUP4 SUB DUP2 DUP7 GAS STATICCALL ISZERO DUP1 ISZERO PUSH2 0xB1E JUMPI RETURNDATASIZE PUSH1 0x0 DUP1 RETURNDATACOPY RETURNDATASIZE PUSH1 0x0 REVERT JUMPDEST POP POP POP POP PUSH1 0x40 MLOAD RETURNDATASIZE PUSH1 0x1F NOT PUSH1 0x1F DUP3 ADD AND DUP3 ADD DUP1 PUSH1 0x40 MSTORE POP DUP2 ADD SWAP1 PUSH2 0xB42 SWAP2 SWAP1 PUSH2 0x33C2 JUMP JUMPDEST LT ISZERO PUSH2 0xB90 JUMPI PUSH1 0x40 MLOAD PUSH3 0x461BCD PUSH1 0xE5 SHL DUP2 MSTORE PUSH1 0x20 PUSH1 0x4 DUP3 ADD MSTORE PUSH1 0x1A PUSH1 0x24 DUP3 ADD MSTORE PUSH32 0x496E73756666696369656E74204A4243206C6971756964697479000000000000 PUSH1 0x44 DUP3 ADD MSTORE PUSH1 0x64 ADD PUSH2 0x6BF JUMP JUMPDEST PUSH1 0x3 SLOAD PUSH1 0x40 MLOAD PUSH4 0x852CD8D PUSH1 0xE3 SHL DUP2 MSTORE PUSH1 0x4 DUP2 ADD DUP5 SWAP1 MSTORE PUSH1 0x1 PUSH1 0x1 PUSH1 0xA0 SHL SUB SWAP1 SWAP2 AND SWAP1 PUSH4 0x42966C68 SWAP1 PUSH1 0x24 ADD PUSH1 0x0 PUSH1 0x40 MLOAD DUP1 DUP4 SUB DUP2 PUSH1 0x0 DUP8 DUP1 EXTCODESIZE ISZERO DUP1 ISZERO PUSH2 0xBD6 JUMPI PUSH1 0x0 DUP1 REVERT JUMPDEST POP GAS CALL ISZERO DUP1 ISZERO PUSH2 0xBEA JUMPI RETURNDATASIZE PUSH1 0x0 DUP1 RETURNDATACOPY RETURNDATASIZE PUSH1 0x0 REVERT JUMPDEST POP POP PUSH1 0x3 SLOAD PUSH1 0x40 MLOAD PUSH4 0xA9059CBB PUSH1 0xE0 SHL DUP2 MSTORE PUSH1 0x1 PUSH1 0x1 PUSH1 0xA0 SHL SUB SWAP1 SWAP2 AND SWAP3 POP PUSH4 0xA9059CBB SWAP2 POP PUSH2 0xC20 SWAP1 CALLER SWAP1 DUP6 SWAP1 PUSH1 0x4 ADD PUSH2 0x32D1 JUMP JUMPDEST PUSH1 0x20 PUSH1 0x40 MLOAD DUP1 DUP4 SUB DUP2 PUSH1 0x0 DUP8 GAS CALL ISZERO DUP1 ISZERO PUSH2 0xC3F JUMPI RETURNDATASIZE PUSH1 0x0 DUP1 RETURNDATACOPY RETURNDATASIZE PUSH1 0x0 REVERT JUMPDEST POP POP POP POP PUSH1 0x40 MLOAD RETURNDATASIZE PUSH1 0x1F NOT PUSH1 0x1F DUP3 ADD AND DUP3 ADD DUP1 PUSH1 0x40 MSTORE POP DUP2 ADD SWAP1 PUSH2 0xC63 SWAP2 SWAP1 PUSH2 0x33A0 JUMP JUMPDEST POP PUSH1 0x40 DUP1 MLOAD DUP8 DUP2 MSTORE PUSH1 0x20 DUP2 ADD DUP4 SWAP1 MSTORE SWAP1 DUP2 ADD DUP4 SWAP1 MSTORE CALLER SWAP1 PUSH32 0x36864AEEFCE16BC4AACEEB6B0CDFB2AD1455A8CB4CCB0DB148A2BC6E7166F97C SWAP1 PUSH1 0x60 ADD JUMPDEST PUSH1 0x40 MLOAD DUP1 SWAP2 SUB SWAP1 LOG2 POP POP POP POP POP PUSH2 0xCB6 PUSH1 0x1 DUP1 SSTORE JUMP JUMPDEST POP JUMP JUMPDEST PUSH2 0xCC1 PUSH2 0x27E2 JUMP JUMPDEST CALLER PUSH1 0x0 SWAP1 DUP2 MSTORE PUSH1 0x11 PUSH1 0x20 MSTORE PUSH1 0x40 SWAP1 KECCAK256 PUSH1 0x1 DUP2 ADD SLOAD ISZERO DUP1 ISZERO SWAP1 PUSH2 0xCE8 JUMPI POP PUSH1 0x4 DUP2 ADD SLOAD PUSH1 0xFF AND ISZERO JUMPDEST PUSH2 0xD2B JUMPI PUSH1 0x40 MLOAD PUSH3 0x461BCD PUSH1 0xE5 SHL DUP2 MSTORE PUSH1 0x20 PUSH1 0x4 DUP3 ADD MSTORE PUSH1 0x14 PUSH1 0x24 DUP3 ADD MSTORE PUSH20 0x496E76616C6964207469636B6574207374617465 PUSH1 0x60 SHL PUSH1 0x44 DUP3 ADD MSTORE PUSH1 0x64 ADD PUSH2 0x6BF JUMP JUMPDEST PUSH1 0x8 DUP2 ADD SLOAD PUSH2 0x100 SWAP1 DIV PUSH1 0xFF AND ISZERO PUSH2 0xD75 JUMPI PUSH1 0x40 MLOAD PUSH3 0x461BCD PUSH1 0xE5 SHL DUP2 MSTORE PUSH1 0x20 PUSH1 0x4 DUP3 ADD MSTORE PUSH1 0xD PUSH1 0x24 DUP3 ADD MSTORE PUSH13 0x151A58DAD95D08195E1A5D1959 PUSH1 0x9A SHL PUSH1 0x44 DUP3 ADD MSTORE PUSH1 0x64 ADD PUSH2 0x6BF JUMP JUMPDEST PUSH1 0x3 DUP2 ADD SLOAD PUSH2 0xD87 SWAP1 PUSH3 0x3F480 PUSH2 0x3347 JUMP JUMPDEST TIMESTAMP GT ISZERO PUSH2 0xDC7 JUMPI PUSH1 0x40 MLOAD PUSH3 0x461BCD PUSH1 0xE5 SHL DUP2 MSTORE PUSH1 0x20 PUSH1 0x4 DUP3 ADD MSTORE PUSH1 0xE PUSH1 0x24 DUP3 ADD MSTORE PUSH14 0x151A58DAD95D08195E1C1A5C9959 PUSH1 0x92 SHL PUSH1 0x44 DUP3 ADD MSTORE PUSH1 0x64 ADD PUSH2 0x6BF JUMP JUMPDEST DUP2 PUSH1 0x7 EQ DUP1 PUSH2 0xDD6 JUMPI POP DUP2 PUSH1 0xF EQ JUMPDEST DUP1 PUSH2 0xDE1 JUMPI POP DUP2 PUSH1 0x1E EQ JUMPDEST PUSH2 0xE1D JUMPI PUSH1 0x40 MLOAD PUSH3 0x461BCD PUSH1 0xE5 SHL DUP2 MSTORE PUSH1 0x20 PUSH1 0x4 DUP3 ADD MSTORE PUSH1 0xD PUSH1 0x24 DUP3 ADD MSTORE PUSH13 0x496E76616C6964206379636C65 PUSH1 0x98 SHL PUSH1 0x44 DUP3 ADD MSTORE PUSH1 0x64 ADD PUSH2 0x6BF JUMP JUMPDEST PUSH1 0x2 DUP1 DUP3 ADD SLOAD SWAP1 SLOAD PUSH1 0x40 MLOAD PUSH4 0x23B872DD PUSH1 0xE0 SHL DUP2 MSTORE PUSH1 0x1 PUSH1 0x1 PUSH1 0xA0 SHL SUB SWAP1 SWAP2 AND SWAP1 PUSH4 0x23B872DD SWAP1 PUSH2 0xE56 SWAP1 CALLER SWAP1 ADDRESS SWAP1 DUP7 SWAP1 PUSH1 0x4 ADD PUSH2 0x337C JUMP JUMPDEST PUSH1 0x20 PUSH1 0x40 MLOAD DUP1 DUP4 SUB DUP2 PUSH1 0x0 DUP8 GAS CALL ISZERO DUP1 ISZERO PUSH2 0xE75 JUMPI RETURNDATASIZE PUSH1 0x0 DUP1 RETURNDATACOPY RETURNDATASIZE PUSH1 0x0 REVERT JUMPDEST POP POP POP POP PUSH1 0x40 MLOAD RETURNDATASIZE PUSH1 0x1F NOT PUSH1 0x1F DUP3 ADD AND DUP3 ADD DUP1 PUSH1 0x40 MSTORE POP DUP2 ADD SWAP1 PUSH2 0xE99 SWAP2 SWAP1 PUSH2 0x33A0 JUMP JUMPDEST POP PUSH1 0x4 DUP3 ADD DUP1 SLOAD PUSH1 0xFF NOT AND PUSH1 0x1 OR SWAP1 SSTORE PUSH1 0x5 DUP1 DUP4 ADD DUP3 SWAP1 SSTORE TIMESTAMP PUSH1 0x6 DUP5 ADD SSTORE PUSH1 0x7 DUP4 ADD DUP5 SWAP1 SSTORE CALLER PUSH1 0x0 SWAP1 DUP2 MSTORE PUSH1 0x10 PUSH1 0x20 MSTORE PUSH1 0x40 SWAP1 KECCAK256 ADD SLOAD PUSH1 0xFF AND PUSH2 0xF33 JUMPI CALLER PUSH1 0x0 SWAP1 DUP2 MSTORE PUSH1 0x10 PUSH1 0x20 MSTORE PUSH1 0x40 SWAP1 KECCAK256 PUSH1 0x5 DUP2 ADD DUP1 SLOAD PUSH1 0xFF NOT AND PUSH1 0x1 OR SWAP1 SSTORE SLOAD PUSH1 0x1 PUSH1 0x1 PUSH1 0xA0 SHL SUB AND DUP1 ISZERO PUSH2 0xF31 JUMPI PUSH1 0x1 PUSH1 0x1 PUSH1 0xA0 SHL SUB DUP2 AND PUSH1 0x0 SWAP1 DUP2 MSTORE PUSH1 0x10 PUSH1 0x20 MSTORE PUSH1 0x40 DUP2 KECCAK256 PUSH1 0x1 ADD DUP1 SLOAD SWAP2 PUSH2 0xF2B DUP4 PUSH2 0x33EE JUMP JUMPDEST SWAP2 SWAP1 POP SSTORE POP JUMPDEST POP JUMPDEST PUSH1 0x40 DUP1 MLOAD DUP3 DUP2 MSTORE PUSH1 0x20 DUP2 ADD DUP6 SWAP1 MSTORE CALLER SWAP2 PUSH32 0x1E54D7530DAD81AF38ADB8CA9DB02ADD3130668375F37BE85396403616FC3D49 SWAP2 ADD PUSH1 0x40 MLOAD DUP1 SWAP2 SUB SWAP1 LOG2 CALLER PUSH1 0x0 SWAP1 DUP2 MSTORE PUSH1 0x10 PUSH1 0x20 MSTORE PUSH1 0x40 SWAP1 KECCAK256 PUSH1 0x6 ADD SLOAD DUP1 ISZERO PUSH2 0x10BB JUMPI CALLER PUSH1 0x0 SWAP1 DUP2 MSTORE PUSH1 0x10 PUSH1 0x20 MSTORE PUSH1 0x40 DUP1 DUP3 KECCAK256 PUSH1 0x6 ADD SWAP2 SWAP1 SWAP2 SSTORE PUSH1 0x2 SLOAD SWAP1 MLOAD PUSH4 0x70A08231 PUSH1 0xE0 SHL DUP2 MSTORE ADDRESS PUSH1 0x4 DUP3 ADD MSTORE DUP3 SWAP2 PUSH1 0x1 PUSH1 0x1 PUSH1 0xA0 SHL SUB AND SWAP1 PUSH4 0x70A08231 SWAP1 PUSH1 0x24 ADD PUSH1 0x20 PUSH1 0x40 MLOAD DUP1 DUP4 SUB DUP2 DUP7 GAS STATICCALL ISZERO DUP1 ISZERO PUSH2 0xFE5 JUMPI RETURNDATASIZE PUSH1 0x0 DUP1 RETURNDATACOPY RETURNDATASIZE PUSH1 0x0 REVERT JUMPDEST POP POP POP POP PUSH1 0x40 MLOAD RETURNDATASIZE PUSH1 0x1F NOT PUSH1 0x1F DUP3 ADD AND DUP3 ADD DUP1 PUSH1 0x40 MSTORE POP DUP2 ADD SWAP1 PUSH2 0x1009 SWAP2 SWAP1 PUSH2 0x33C2 JUMP JUMPDEST LT PUSH2 0x10BB JUMPI PUSH1 0x2 SLOAD PUSH1 0x40 MLOAD PUSH4 0xA9059CBB PUSH1 0xE0 SHL DUP2 MSTORE PUSH1 0x1 PUSH1 0x1 PUSH1 0xA0 SHL SUB SWAP1 SWAP2 AND SWAP1 PUSH4 0xA9059CBB SWAP1 PUSH2 0x1040 SWAP1 CALLER SWAP1 DUP6 SWAP1 PUSH1 0x4 ADD PUSH2 0x32D1 JUMP JUMPDEST PUSH1 0x20 PUSH1 0x40 MLOAD DUP1 DUP4 SUB DUP2 PUSH1 0x0 DUP8 GAS CALL ISZERO DUP1 ISZERO PUSH2 0x105F JUMPI RETURNDATASIZE PUSH1 0x0 DUP1 RETURNDATACOPY RETURNDATASIZE PUSH1 0x0 REVERT JUMPDEST POP POP POP POP PUSH1 0x40 MLOAD RETURNDATASIZE PUSH1 0x1F NOT PUSH1 0x1F DUP3 ADD AND DUP3 ADD DUP1 PUSH1 0x40 MSTORE POP DUP2 ADD SWAP1 PUSH2 0x1083 SWAP2 SWAP1 PUSH2 0x33A0 JUMP JUMPDEST POP PUSH1 0x40 MLOAD DUP2 DUP2 MSTORE CALLER SWAP1 PUSH32 0x3437B9EA7FA19C6D233DD70CC787A70FAB87CEE64D8BA4571512CC84402748F9 SWAP1 PUSH1 0x20 ADD JUMPDEST PUSH1 0x40 MLOAD DUP1 SWAP2 SUB SWAP1 LOG2 JUMPDEST POP POP POP PUSH2 0xCB6 PUSH1 0x1 DUP1 SSTORE JUMP JUMPDEST PUSH2 0x10CF PUSH2 0x27E2 JUMP JUMPDEST CALLER PUSH1 0x0 SWAP1 DUP2 MSTORE PUSH1 0x11 PUSH1 0x20 MSTORE PUSH1 0x40 SWAP1 KECCAK256 PUSH1 0x4 DUP2 ADD SLOAD PUSH1 0xFF AND DUP1 ISZERO PUSH2 0x10F7 JUMPI POP PUSH1 0x8 DUP2 ADD SLOAD PUSH1 0xFF AND ISZERO JUMPDEST DUP1 ISZERO PUSH2 0x110D JUMPI POP PUSH1 0x8 DUP2 ADD SLOAD PUSH2 0x100 SWAP1 DIV PUSH1 0xFF AND ISZERO JUMPDEST PUSH2 0x1146 JUMPI PUSH1 0x40 MLOAD PUSH3 0x461BCD PUSH1 0xE5 SHL DUP2 MSTORE PUSH1 0x20 PUSH1 0x4 DUP3 ADD MSTORE PUSH1 0xA PUSH1 0x24 DUP3 ADD MSTORE PUSH10 0x4E6F7420616374697665 PUSH1 0xB0 SHL PUSH1 0x44 DUP3 ADD MSTORE PUSH1 0x64 ADD PUSH2 0x6BF JUMP JUMPDEST PUSH1 0x0 DUP2 PUSH1 0x7 ADD SLOAD PUSH1 0x7 SUB PUSH2 0x115C JUMPI POP PUSH1 0x14 PUSH2 0x1180 JUMP JUMPDEST DUP2 PUSH1 0x7 ADD SLOAD PUSH1 0xF SUB PUSH2 0x1170 JUMPI POP PUSH1 0x19 PUSH2 0x1180 JUMP JUMPDEST DUP2 PUSH1 0x7 ADD SLOAD PUSH1 0x1E SUB PUSH2 0x1180 JUMPI POP PUSH1 0x1E JUMPDEST PUSH1 0x0 PUSH1 0x3C DUP4 PUSH1 0x6 ADD SLOAD TIMESTAMP PUSH2 0x1194 SWAP2 SWAP1 PUSH2 0x33DB JUMP JUMPDEST PUSH2 0x119E SWAP2 SWAP1 PUSH2 0x335A JUMP JUMPDEST SWAP1 POP DUP3 PUSH1 0x7 ADD SLOAD DUP2 GT ISZERO PUSH2 0x11B3 JUMPI POP PUSH1 0x7 DUP3 ADD SLOAD JUMPDEST DUP1 PUSH1 0x0 SUB PUSH2 0x11F6 JUMPI PUSH1 0x40 MLOAD PUSH3 0x461BCD PUSH1 0xE5 SHL DUP2 MSTORE PUSH1 0x20 PUSH1 0x4 DUP3 ADD MSTORE PUSH1 0x10 PUSH1 0x24 DUP3 ADD MSTORE PUSH16 0x13195CDCC81D1A185B880C481D5B9A5D PUSH1 0x82 SHL PUSH1 0x44 DUP3 ADD MSTORE PUSH1 0x64 ADD PUSH2 0x6BF JUMP JUMPDEST PUSH1 0x0 PUSH2 0x3E8 DUP3 DUP5 DUP7 PUSH1 0x5 ADD SLOAD PUSH2 0x120C SWAP2 SWAP1 PUSH2 0x332A JUMP JUMPDEST PUSH2 0x1216 SWAP2 SWAP1 PUSH2 0x332A JUMP JUMPDEST PUSH2 0x1220 SWAP2 SWAP1 PUSH2 0x335A JUMP JUMPDEST DUP5 SLOAD PUSH1 0x0 SWAP1 DUP2 MSTORE PUSH1 0x14 PUSH1 0x20 MSTORE PUSH1 0x40 DUP2 KECCAK256 SLOAD SWAP2 SWAP3 POP DUP2 DUP4 GT ISZERO PUSH2 0x1249 JUMPI PUSH2 0x1246 DUP3 DUP5 PUSH2 0x33DB JUMP JUMPDEST SWAP1 POP JUMPDEST PUSH1 0x0 DUP2 GT PUSH2 0x128A JUMPI PUSH1 0x40 MLOAD PUSH3 0x461BCD PUSH1 0xE5 SHL DUP2 MSTORE PUSH1 0x20 PUSH1 0x4 DUP3 ADD MSTORE PUSH1 0xE PUSH1 0x24 DUP3 ADD MSTORE PUSH14 0x4E6F206E65772072657761726473 PUSH1 0x90 SHL PUSH1 0x44 DUP3 ADD MSTORE PUSH1 0x64 ADD PUSH2 0x6BF JUMP JUMPDEST CALLER PUSH1 0x0 SWAP1 DUP2 MSTORE PUSH1 0x10 PUSH1 0x20 MSTORE PUSH1 0x40 SWAP1 KECCAK256 PUSH1 0x4 DUP2 ADD SLOAD PUSH1 0x3 SWAP1 SWAP2 ADD SLOAD PUSH2 0x12AF SWAP1 DUP4 SWAP1 PUSH2 0x3347 JUMP JUMPDEST GT ISZERO PUSH2 0x12DC JUMPI CALLER PUSH1 0x0 SWAP1 DUP2 MSTORE PUSH1 0x10 PUSH1 0x20 MSTORE PUSH1 0x40 SWAP1 KECCAK256 PUSH1 0x3 DUP2 ADD SLOAD PUSH1 0x4 SWAP1 SWAP2 ADD SLOAD PUSH2 0x12D9 SWAP2 SWAP1 PUSH2 0x33DB JUMP JUMPDEST SWAP1 POP JUMPDEST DUP1 PUSH1 0x0 SUB PUSH2 0x12F8 JUMPI PUSH2 0x12ED CALLER PUSH2 0x280C JUMP JUMPDEST POP POP POP POP POP POP PUSH2 0x15D4 JUMP JUMPDEST DUP6 SLOAD PUSH1 0x0 SWAP1 DUP2 MSTORE PUSH1 0x14 PUSH1 0x20 MSTORE PUSH1 0x40 DUP2 KECCAK256 DUP1 SLOAD DUP4 SWAP3 SWAP1 PUSH2 0x1318 SWAP1 DUP5 SWAP1 PUSH2 0x3347 JUMP JUMPDEST SWAP1 SWAP2 SSTORE POP POP CALLER PUSH1 0x0 SWAP1 DUP2 MSTORE PUSH1 0x10 PUSH1 0x20 MSTORE PUSH1 0x40 DUP2 KECCAK256 PUSH1 0x3 ADD DUP1 SLOAD DUP4 SWAP3 SWAP1 PUSH2 0x133F SWAP1 DUP5 SWAP1 PUSH2 0x3347 JUMP JUMPDEST SWAP1 SWAP2 SSTORE POP PUSH1 0x0 SWAP1 POP PUSH2 0x1352 PUSH1 0x2 DUP4 PUSH2 0x335A JUMP JUMPDEST SWAP1 POP PUSH1 0x0 PUSH2 0x1361 PUSH1 0x2 DUP5 PUSH2 0x335A JUMP JUMPDEST PUSH1 0x2 SLOAD PUSH1 0x40 MLOAD PUSH4 0x70A08231 PUSH1 0xE0 SHL DUP2 MSTORE ADDRESS PUSH1 0x4 DUP3 ADD MSTORE SWAP2 SWAP3 POP DUP4 SWAP2 PUSH1 0x1 PUSH1 0x1 PUSH1 0xA0 SHL SUB SWAP1 SWAP2 AND SWAP1 PUSH4 0x70A08231 SWAP1 PUSH1 0x24 ADD PUSH1 0x20 PUSH1 0x40 MLOAD DUP1 DUP4 SUB DUP2 DUP7 GAS STATICCALL ISZERO DUP1 ISZERO PUSH2 0x13AE JUMPI RETURNDATASIZE PUSH1 0x0 DUP1 RETURNDATACOPY RETURNDATASIZE PUSH1 0x0 REVERT JUMPDEST POP POP POP POP PUSH1 0x40 MLOAD RETURNDATASIZE PUSH1 0x1F NOT PUSH1 0x1F DUP3 ADD AND DUP3 ADD DUP1 PUSH1 0x40 MSTORE POP DUP2 ADD SWAP1 PUSH2 0x13D2 SWAP2 SWAP1 PUSH2 0x33C2 JUMP JUMPDEST LT PUSH2 0x144E JUMPI PUSH1 0x2 SLOAD PUSH1 0x40 MLOAD PUSH4 0xA9059CBB PUSH1 0xE0 SHL DUP2 MSTORE PUSH1 0x1 PUSH1 0x1 PUSH1 0xA0 SHL SUB SWAP1 SWAP2 AND SWAP1 PUSH4 0xA9059CBB SWAP1 PUSH2 0x1409 SWAP1 CALLER SWAP1 DUP7 SWAP1 PUSH1 0x4 ADD PUSH2 0x32D1 JUMP JUMPDEST PUSH1 0x20 PUSH1 0x40 MLOAD DUP1 DUP4 SUB DUP2 PUSH1 0x0 DUP8 GAS CALL ISZERO DUP1 ISZERO PUSH2 0x1428 JUMPI RETURNDATASIZE PUSH1 0x0 DUP1 RETURNDATACOPY RETURNDATASIZE PUSH1 0x0 REVERT JUMPDEST POP POP POP POP PUSH1 0x40 MLOAD RETURNDATASIZE PUSH1 0x1F NOT PUSH1 0x1F DUP3 ADD AND DUP3 ADD DUP1 PUSH1 0x40 MSTORE POP DUP2 ADD SWAP1 PUSH2 0x144C SWAP2 SWAP1 PUSH2 0x33A0 JUMP JUMPDEST POP JUMPDEST PUSH1 0x0 PUSH2 0x1458 PUSH2 0x15DF JUMP JUMPDEST SWAP1 POP PUSH1 0x0 DUP2 PUSH2 0x146F DUP5 PUSH8 0xDE0B6B3A7640000 PUSH2 0x332A JUMP JUMPDEST PUSH2 0x1479 SWAP2 SWAP1 PUSH2 0x335A JUMP JUMPDEST PUSH1 0x3 SLOAD PUSH1 0x40 MLOAD PUSH4 0x70A08231 PUSH1 0xE0 SHL DUP2 MSTORE ADDRESS PUSH1 0x4 DUP3 ADD MSTORE SWAP2 SWAP3 POP DUP3 SWAP2 PUSH1 0x1 PUSH1 0x1 PUSH1 0xA0 SHL SUB SWAP1 SWAP2 AND SWAP1 PUSH4 0x70A08231 SWAP1 PUSH1 0x24 ADD PUSH1 0x20 PUSH1 0x40 MLOAD DUP1 DUP4 SUB DUP2 DUP7 GAS STATICCALL ISZERO DUP1 ISZERO PUSH2 0x14C6 JUMPI RETURNDATASIZE PUSH1 0x0 DUP1 RETURNDATACOPY RETURNDATASIZE PUSH1 0x0 REVERT JUMPDEST POP POP POP POP PUSH1 0x40 MLOAD RETURNDATASIZE PUSH1 0x1F NOT PUSH1 0x1F DUP3 ADD AND DUP3 ADD DUP1 PUSH1 0x40 MSTORE POP DUP2 ADD SWAP1 PUSH2 0x14EA SWAP2 SWAP1 PUSH2 0x33C2 JUMP JUMPDEST LT PUSH2 0x1566 JUMPI PUSH1 0x3 SLOAD PUSH1 0x40 MLOAD PUSH4 0xA9059CBB PUSH1 0xE0 SHL DUP2 MSTORE PUSH1 0x1 PUSH1 0x1 PUSH1 0xA0 SHL SUB SWAP1 SWAP2 AND SWAP1 PUSH4 0xA9059CBB SWAP1 PUSH2 0x1521 SWAP1 CALLER SWAP1 DUP6 SWAP1 PUSH1 0x4 ADD PUSH2 0x32D1 JUMP JUMPDEST PUSH1 0x20 PUSH1 0x40 MLOAD DUP1 DUP4 SUB DUP2 PUSH1 0x0 DUP8 GAS CALL ISZERO DUP1 ISZERO PUSH2 0x1540 JUMPI RETURNDATASIZE PUSH1 0x0 DUP1 RETURNDATACOPY RETURNDATASIZE PUSH1 0x0 REVERT JUMPDEST POP POP POP POP PUSH1 0x40 MLOAD RETURNDATASIZE PUSH1 0x1F NOT PUSH1 0x1F DUP3 ADD AND DUP3 ADD DUP1 PUSH1 0x40 MSTORE POP DUP2 ADD SWAP1 PUSH2 0x1564 SWAP2 SWAP1 PUSH2 0x33A0 JUMP JUMPDEST POP JUMPDEST PUSH1 0x40 DUP1 MLOAD DUP7 DUP2 MSTORE PUSH1 0x0 PUSH1 0x20 DUP3 ADD MSTORE CALLER SWAP2 PUSH32 0xF381583145E90B82CC5E529BF4FC4D0E44397174CDF145C4251AC33EF195A424 SWAP2 ADD PUSH1 0x40 MLOAD DUP1 SWAP2 SUB SWAP1 LOG2 CALLER PUSH1 0x0 SWAP1 DUP2 MSTORE PUSH1 0x10 PUSH1 0x20 MSTORE PUSH1 0x40 SWAP1 KECCAK256 PUSH1 0x4 DUP2 ADD SLOAD PUSH1 0x3 SWAP1 SWAP2 ADD SLOAD LT PUSH2 0x15C9 JUMPI PUSH2 0x15C9 CALLER PUSH2 0x280C JUMP JUMPDEST POP POP POP POP POP POP POP POP POP POP JUMPDEST PUSH2 0x15DD PUSH1 0x1 DUP1 SSTORE JUMP JUMPDEST JUMP JUMPDEST PUSH1 0x2 SLOAD PUSH1 0x40 MLOAD PUSH4 0x70A08231 PUSH1 0xE0 SHL DUP2 MSTORE ADDRESS PUSH1 0x4 DUP3 ADD MSTORE PUSH1 0x0 SWAP2 DUP3 SWAP2 PUSH1 0x1 PUSH1 0x1 PUSH1 0xA0 SHL SUB SWAP1 SWAP2 AND SWAP1 PUSH4 0x70A08231 SWAP1 PUSH1 0x24 ADD PUSH1 0x20 PUSH1 0x40 MLOAD DUP1 DUP4 SUB DUP2 DUP7 GAS STATICCALL ISZERO DUP1 ISZERO PUSH2 0x162C JUMPI RETURNDATASIZE PUSH1 0x0 DUP1 RETURNDATACOPY RETURNDATASIZE PUSH1 0x0 REVERT JUMPDEST POP POP POP POP PUSH1 0x40 MLOAD RETURNDATASIZE PUSH1 0x1F NOT PUSH1 0x1F DUP3 ADD AND DUP3 ADD DUP1 PUSH1 0x40 MSTORE POP DUP2 ADD SWAP1 PUSH2 0x1650 SWAP2 SWAP1 PUSH2 0x33C2 JUMP JUMPDEST PUSH1 0x3 SLOAD PUSH1 0x40 MLOAD PUSH4 0x70A08231 PUSH1 0xE0 SHL DUP2 MSTORE ADDRESS PUSH1 0x4 DUP3 ADD MSTORE SWAP2 SWAP3 POP PUSH1 0x0 SWAP2 PUSH1 0x1 PUSH1 0x1 PUSH1 0xA0 SHL SUB SWAP1 SWAP2 AND SWAP1 PUSH4 0x70A08231 SWAP1 PUSH1 0x24 ADD PUSH1 0x20 PUSH1 0x40 MLOAD DUP1 DUP4 SUB DUP2 DUP7 GAS STATICCALL ISZERO DUP1 ISZERO PUSH2 0x169E JUMPI RETURNDATASIZE PUSH1 0x0 DUP1 RETURNDATACOPY RETURNDATASIZE PUSH1 0x0 REVERT JUMPDEST POP POP POP POP PUSH1 0x40 MLOAD RETURNDATASIZE PUSH1 0x1F NOT PUSH1 0x1F DUP3 ADD AND DUP3 ADD DUP1 PUSH1 0x40 MSTORE POP DUP2 ADD SWAP1 PUSH2 0x16C2 SWAP2 SWAP1 PUSH2 0x33C2 JUMP JUMPDEST SWAP1 POP DUP1 PUSH1 0x0 SUB PUSH2 0x16DC JUMPI PUSH8 0xDE0B6B3A7640000 SWAP3 POP POP POP SWAP1 JUMP JUMPDEST DUP1 PUSH2 0x16EF DUP4 PUSH8 0xDE0B6B3A7640000 PUSH2 0x332A JUMP JUMPDEST PUSH2 0x16F9 SWAP2 SWAP1 PUSH2 0x335A JUMP JUMPDEST SWAP3 POP POP POP SWAP1 JUMP JUMPDEST PUSH2 0x1708 PUSH2 0x27E2 JUMP JUMPDEST PUSH1 0x0 DUP2 GT PUSH2 0x1749 JUMPI PUSH1 0x40 MLOAD PUSH3 0x461BCD PUSH1 0xE5 SHL DUP2 MSTORE PUSH1 0x20 PUSH1 0x4 DUP3 ADD MSTORE PUSH1 0xE PUSH1 0x24 DUP3 ADD MSTORE PUSH14 0x125B9D985B1A5908185B5BDD5B9D PUSH1 0x92 SHL PUSH1 0x44 DUP3 ADD MSTORE PUSH1 0x64 ADD PUSH2 0x6BF JUMP JUMPDEST PUSH1 0x3 SLOAD PUSH1 0x40 MLOAD PUSH4 0x23B872DD PUSH1 0xE0 SHL DUP2 MSTORE PUSH1 0x1 PUSH1 0x1 PUSH1 0xA0 SHL SUB SWAP1 SWAP2 AND SWAP1 PUSH4 0x23B872DD SWAP1 PUSH2 0x177D SWAP1 CALLER SWAP1 ADDRESS SWAP1 DUP7 SWAP1 PUSH1 0x4 ADD PUSH2 0x337C JUMP JUMPDEST PUSH1 0x20 PUSH1 0x40 MLOAD DUP1 DUP4 SUB DUP2 PUSH1 0x0 DUP8 GAS CALL ISZERO DUP1 ISZERO PUSH2 0x179C JUMPI RETURNDATASIZE PUSH1 0x0 DUP1 RETURNDATACOPY RETURNDATASIZE PUSH1 0x0 REVERT JUMPDEST POP POP POP POP PUSH1 0x40 MLOAD RETURNDATASIZE PUSH1 0x1F NOT PUSH1 0x1F DUP3 ADD AND DUP3 ADD DUP1 PUSH1 0x40 MSTORE POP DUP2 ADD SWAP1 PUSH2 0x17C0 SWAP2 SWAP1 PUSH2 0x33A0 JUMP JUMPDEST POP PUSH1 0x0 PUSH1 0x64 PUSH1 0xF SLOAD DUP4 PUSH2 0x17D3 SWAP2 SWAP1 PUSH2 0x332A JUMP JUMPDEST PUSH2 0x17DD SWAP2 SWAP1 PUSH2 0x335A JUMP JUMPDEST SWAP1 POP PUSH1 0x0 PUSH2 0x17EB DUP3 DUP5 PUSH2 0x33DB JUMP JUMPDEST PUSH1 0x3 SLOAD PUSH1 0x40 MLOAD PUSH4 0x852CD8D PUSH1 0xE3 SHL DUP2 MSTORE PUSH1 0x4 DUP2 ADD DUP6 SWAP1 MSTORE SWAP2 SWAP3 POP PUSH1 0x1 PUSH1 0x1 PUSH1 0xA0 SHL SUB AND SWAP1 PUSH4 0x42966C68 SWAP1 PUSH1 0x24 ADD PUSH1 0x0 PUSH1 0x40 MLOAD DUP1 DUP4 SUB DUP2 PUSH1 0x0 DUP8 DUP1 EXTCODESIZE ISZERO DUP1 ISZERO PUSH2 0x1832 JUMPI PUSH1 0x0 DUP1 REVERT JUMPDEST POP GAS CALL ISZERO DUP1 ISZERO PUSH2 0x1846 JUMPI RETURNDATASIZE PUSH1 0x0 DUP1 RETURNDATACOPY RETURNDATASIZE PUSH1 0x0 REVERT JUMPDEST POP POP PUSH1 0x3 SLOAD PUSH1 0x40 MLOAD PUSH4 0x70A08231 PUSH1 0xE0 SHL DUP2 MSTORE ADDRESS PUSH1 0x4 DUP3 ADD MSTORE PUSH1 0x0 SWAP4 POP DUP5 SWAP3 POP PUSH1 0x1 PUSH1 0x1 PUSH1 0xA0 SHL SUB SWAP1 SWAP2 AND SWAP1 PUSH4 0x70A08231 SWAP1 PUSH1 0x24 ADD PUSH1 0x20 PUSH1 0x40 MLOAD DUP1 DUP4 SUB DUP2 DUP7 GAS STATICCALL ISZERO DUP1 ISZERO PUSH2 0x1897 JUMPI RETURNDATASIZE PUSH1 0x0 DUP1 RETURNDATACOPY RETURNDATASIZE PUSH1 0x0 REVERT JUMPDEST POP POP POP POP PUSH1 0x40 MLOAD RETURNDATASIZE PUSH1 0x1F NOT PUSH1 0x1F DUP3 ADD AND DUP3 ADD DUP1 PUSH1 0x40 MSTORE POP DUP2 ADD SWAP1 PUSH2 0x18BB SWAP2 SWAP1 PUSH2 0x33C2 JUMP JUMPDEST PUSH2 0x18C5 SWAP2 SWAP1 PUSH2 0x33DB JUMP JUMPDEST PUSH1 0x2 SLOAD PUSH1 0x40 MLOAD PUSH4 0x70A08231 PUSH1 0xE0 SHL DUP2 MSTORE ADDRESS PUSH1 0x4 DUP3 ADD MSTORE SWAP2 SWAP3 POP PUSH1 0x0 SWAP2 PUSH1 0x1 PUSH1 0x1 PUSH1 0xA0 SHL SUB SWAP1 SWAP2 AND SWAP1 PUSH4 0x70A08231 SWAP1 PUSH1 0x24 ADD PUSH1 0x20 PUSH1 0x40 MLOAD DUP1 DUP4 SUB DUP2 DUP7 GAS STATICCALL ISZERO DUP1 ISZERO PUSH2 0x1913 JUMPI RETURNDATASIZE PUSH1 0x0 DUP1 RETURNDATACOPY RETURNDATASIZE PUSH1 0x0 REVERT JUMPDEST POP POP POP POP PUSH1 0x40 MLOAD RETURNDATASIZE PUSH1 0x1F NOT PUSH1 0x1F DUP3 ADD AND DUP3 ADD DUP1 PUSH1 0x40 MSTORE POP DUP2 ADD SWAP1 PUSH2 0x1937 SWAP2 SWAP1 PUSH2 0x33C2 JUMP JUMPDEST SWAP1 POP PUSH1 0x0 PUSH2 0x1946 DUP5 DUP5 DUP5 PUSH2 0x7DA JUMP JUMPDEST PUSH1 0x2 SLOAD PUSH1 0x40 MLOAD PUSH4 0x70A08231 PUSH1 0xE0 SHL DUP2 MSTORE ADDRESS PUSH1 0x4 DUP3 ADD MSTORE SWAP2 SWAP3 POP DUP3 SWAP2 PUSH1 0x1 PUSH1 0x1 PUSH1 0xA0 SHL SUB SWAP1 SWAP2 AND SWAP1 PUSH4 0x70A08231 SWAP1 PUSH1 0x24 ADD PUSH1 0x20 PUSH1 0x40 MLOAD DUP1 DUP4 SUB DUP2 DUP7 GAS STATICCALL ISZERO DUP1 ISZERO PUSH2 0x1993 JUMPI RETURNDATASIZE PUSH1 0x0 DUP1 RETURNDATACOPY RETURNDATASIZE PUSH1 0x0 REVERT JUMPDEST POP POP POP POP PUSH1 0x40 MLOAD RETURNDATASIZE PUSH1 0x1F NOT PUSH1 0x1F DUP3 ADD AND DUP3 ADD DUP1 PUSH1 0x40 MSTORE POP DUP2 ADD SWAP1 PUSH2 0x19B7 SWAP2 SWAP1 PUSH2 0x33C2 JUMP JUMPDEST LT ISZERO PUSH2 0x1A05 JUMPI PUSH1 0x40 MLOAD PUSH3 0x461BCD PUSH1 0xE5 SHL DUP2 MSTORE PUSH1 0x20 PUSH1 0x4 DUP3 ADD MSTORE PUSH1 0x19 PUSH1 0x24 DUP3 ADD MSTORE PUSH32 0x496E73756666696369656E74204D43206C697175696469747900000000000000 PUSH1 0x44 DUP3 ADD MSTORE PUSH1 0x64 ADD PUSH2 0x6BF JUMP JUMPDEST PUSH1 0x2 SLOAD PUSH1 0x40 MLOAD PUSH4 0xA9059CBB PUSH1 0xE0 SHL DUP2 MSTORE PUSH1 0x1 PUSH1 0x1 PUSH1 0xA0 SHL SUB SWAP1 SWAP2 AND SWAP1 PUSH4 0xA9059CBB SWAP1 PUSH2 0x1A37 SWAP1 CALLER SWAP1 DUP6 SWAP1 PUSH1 0x4 ADD PUSH2 0x32D1 JUMP JUMPDEST PUSH1 0x20 PUSH1 0x40 MLOAD DUP1 DUP4 SUB DUP2 PUSH1 0x0 DUP8 GAS CALL ISZERO DUP1 ISZERO PUSH2 0x1A56 JUMPI RETURNDATASIZE PUSH1 0x0 DUP1 RETURNDATACOPY RETURNDATASIZE PUSH1 0x0 REVERT JUMPDEST POP POP POP POP PUSH1 0x40 MLOAD RETURNDATASIZE PUSH1 0x1F NOT PUSH1 0x1F DUP3 ADD AND DUP3 ADD DUP1 PUSH1 0x40 MSTORE POP DUP2 ADD SWAP1 PUSH2 0x1A7A SWAP2 SWAP1 PUSH2 0x33A0 JUMP JUMPDEST POP PUSH1 0x40 DUP1 MLOAD DUP8 DUP2 MSTORE PUSH1 0x20 DUP2 ADD DUP4 SWAP1 MSTORE SWAP1 DUP2 ADD DUP7 SWAP1 MSTORE CALLER SWAP1 PUSH32 0x223C8AD0806F634524940A8595F819C5CFC7B1F4F4F45791269301DF0A7E61D5 SWAP1 PUSH1 0x60 ADD PUSH2 0xCA0 JUMP JUMPDEST PUSH2 0x1AC3 PUSH2 0x2A50 JUMP JUMPDEST PUSH1 0x3 SLOAD PUSH1 0x40 MLOAD PUSH4 0xA9059CBB PUSH1 0xE0 SHL DUP2 MSTORE PUSH1 0x1 PUSH1 0x1 PUSH1 0xA0 SHL SUB SWAP1 SWAP2 AND SWAP1 PUSH4 0xA9059CBB SWAP1 PUSH2 0x1AF5 SWAP1 DUP5 SWAP1 DUP7 SWAP1 PUSH1 0x4 ADD PUSH2 0x32D1 JUMP JUMPDEST PUSH1 0x20 PUSH1 0x40 MLOAD DUP1 DUP4 SUB DUP2 PUSH1 0x0 DUP8 GAS CALL ISZERO DUP1 ISZERO PUSH2 0x1B14 JUMPI RETURNDATASIZE PUSH1 0x0 DUP1 RETURNDATACOPY RETURNDATASIZE PUSH1 0x0 REVERT JUMPDEST POP POP POP POP PUSH1 0x40 MLOAD RETURNDATASIZE PUSH1 0x1F NOT PUSH1 0x1F DUP3 ADD AND DUP3 ADD DUP1 PUSH1 0x40 MSTORE POP DUP2 ADD SWAP1 PUSH2 0x1B38 SWAP2 SWAP1 PUSH2 0x33A0 JUMP JUMPDEST POP POP POP JUMP JUMPDEST PUSH2 0x1B45 PUSH2 0x27E2 JUMP JUMPDEST DUP1 PUSH9 0x56BC75E2D63100000 EQ DUP1 PUSH2 0x1B64 JUMPI POP DUP1 PUSH9 0x1043561A8829300000 EQ JUMPDEST DUP1 PUSH2 0x1B77 JUMPI POP DUP1 PUSH9 0x1B1AE4D6E2EF500000 EQ JUMPDEST DUP1 PUSH2 0x1B8A JUMPI POP DUP1 PUSH9 0x3635C9ADC5DEA00000 EQ JUMPDEST PUSH2 0x1BCE JUMPI PUSH1 0x40 MLOAD PUSH3 0x461BCD PUSH1 0xE5 SHL DUP2 MSTORE PUSH1 0x20 PUSH1 0x4 DUP3 ADD MSTORE PUSH1 0x15 PUSH1 0x24 DUP3 ADD MSTORE PUSH21 0x125B9D985B1A59081D1A58DAD95D08185B5BDD5B9D PUSH1 0x5A SHL PUSH1 0x44 DUP3 ADD MSTORE PUSH1 0x64 ADD PUSH2 0x6BF JUMP JUMPDEST CALLER PUSH1 0x0 SWAP1 DUP2 MSTORE PUSH1 0x11 PUSH1 0x20 MSTORE PUSH1 0x40 SWAP1 KECCAK256 PUSH1 0x1 DUP2 ADD SLOAD ISZERO PUSH2 0x1C7D JUMPI PUSH1 0x4 DUP2 ADD SLOAD PUSH1 0x0 SWAP1 PUSH1 0xFF AND ISZERO DUP1 ISZERO PUSH2 0x1C0F JUMPI POP PUSH1 0x3 DUP3 ADD SLOAD PUSH2 0x1C0C SWAP1 PUSH3 0x3F480 PUSH2 0x3347 JUMP JUMPDEST TIMESTAMP GT JUMPDEST PUSH1 0x8 DUP4 ADD SLOAD SWAP1 SWAP2 POP PUSH1 0xFF AND DUP1 PUSH2 0x1C2E JUMPI POP PUSH1 0x8 DUP3 ADD SLOAD PUSH2 0x100 SWAP1 DIV PUSH1 0xFF AND JUMPDEST DUP1 PUSH2 0x1C36 JUMPI POP DUP1 JUMPDEST PUSH2 0x1C7B JUMPI PUSH1 0x40 MLOAD PUSH3 0x461BCD PUSH1 0xE5 SHL DUP2 MSTORE PUSH1 0x20 PUSH1 0x4 DUP3 ADD MSTORE PUSH1 0x16 PUSH1 0x24 DUP3 ADD MSTORE PUSH22 0x50726576696F7573207469636B657420616374697665 PUSH1 0x50 SHL PUSH1 0x44 DUP3 ADD MSTORE PUSH1 0x64 ADD PUSH2 0x6BF JUMP JUMPDEST POP JUMPDEST PUSH1 0x2 SLOAD PUSH1 0x40 MLOAD PUSH4 0x23B872DD PUSH1 0xE0 SHL DUP2 MSTORE PUSH1 0x1 PUSH1 0x1 PUSH1 0xA0 SHL SUB SWAP1 SWAP2 AND SWAP1 PUSH4 0x23B872DD SWAP1 PUSH2 0x1CB1 SWAP1 CALLER SWAP1 ADDRESS SWAP1 DUP8 SWAP1 PUSH1 0x4 ADD PUSH2 0x337C JUMP JUMPDEST PUSH1 0x20 PUSH1 0x40 MLOAD DUP1 DUP4 SUB DUP2 PUSH1 0x0 DUP8 GAS CALL ISZERO DUP1 ISZERO PUSH2 0x1CD0 JUMPI RETURNDATASIZE PUSH1 0x0 DUP1 RETURNDATACOPY RETURNDATASIZE PUSH1 0x0 REVERT JUMPDEST POP POP POP POP PUSH1 0x40 MLOAD RETURNDATASIZE PUSH1 0x1F NOT PUSH1 0x1F DUP3 ADD AND DUP3 ADD DUP1 PUSH1 0x40 MSTORE POP DUP2 ADD SWAP1 PUSH2 0x1CF4 SWAP2 SWAP1 PUSH2 0x33A0 JUMP JUMPDEST POP PUSH1 0x15 DUP1 SLOAD SWAP1 PUSH1 0x0 PUSH2 0x1D05 DUP4 PUSH2 0x33EE JUMP JUMPDEST SWAP2 SWAP1 POP SSTORE POP PUSH1 0x40 MLOAD DUP1 PUSH2 0x140 ADD PUSH1 0x40 MSTORE DUP1 PUSH1 0x15 SLOAD DUP2 MSTORE PUSH1 0x20 ADD DUP4 DUP2 MSTORE PUSH1 0x20 ADD PUSH1 0x64 DUP5 PUSH1 0x96 PUSH2 0x1D33 SWAP2 SWAP1 PUSH2 0x332A JUMP JUMPDEST PUSH2 0x1D3D SWAP2 SWAP1 PUSH2 0x335A JUMP JUMPDEST DUP2 MSTORE TIMESTAMP PUSH1 0x20 DUP1 DUP4 ADD SWAP2 SWAP1 SWAP2 MSTORE PUSH1 0x0 PUSH1 0x40 DUP1 DUP5 ADD DUP3 SWAP1 MSTORE PUSH1 0x60 DUP1 DUP6 ADD DUP4 SWAP1 MSTORE PUSH1 0x80 DUP1 DUP7 ADD DUP5 SWAP1 MSTORE PUSH1 0xA0 DUP1 DUP8 ADD DUP6 SWAP1 MSTORE PUSH1 0xC0 DUP1 DUP9 ADD DUP7 SWAP1 MSTORE PUSH1 0xE0 SWAP8 DUP9 ADD DUP7 SWAP1 MSTORE CALLER DUP7 MSTORE PUSH1 0x11 DUP8 MSTORE DUP5 DUP7 KECCAK256 DUP10 MLOAD DUP2 SSTORE DUP10 DUP9 ADD MLOAD PUSH1 0x1 DUP3 ADD SSTORE DUP10 DUP7 ADD MLOAD PUSH1 0x2 DUP3 ADD SSTORE SWAP4 DUP10 ADD MLOAD PUSH1 0x3 DUP1 DUP7 ADD SWAP2 SWAP1 SWAP2 SSTORE SWAP3 DUP10 ADD MLOAD PUSH1 0x4 DUP6 ADD DUP1 SLOAD PUSH1 0xFF NOT AND SWAP2 ISZERO ISZERO SWAP2 SWAP1 SWAP2 OR SWAP1 SSTORE SWAP1 DUP9 ADD MLOAD PUSH1 0x5 DUP5 ADD SSTORE DUP8 ADD MLOAD PUSH1 0x6 DUP4 ADD SSTORE SWAP5 DUP7 ADD MLOAD PUSH1 0x7 DUP3 ADD SSTORE PUSH2 0x100 DUP1 DUP8 ADD MLOAD PUSH1 0x8 SWAP1 SWAP3 ADD DUP1 SLOAD PUSH2 0x120 SWAP1 SWAP9 ADD MLOAD PUSH2 0xFFFF NOT SWAP1 SWAP9 AND SWAP3 ISZERO ISZERO PUSH2 0xFF00 NOT AND SWAP3 SWAP1 SWAP3 OR SWAP7 ISZERO ISZERO MUL SWAP6 SWAP1 SWAP6 OR SWAP1 SWAP5 SSTORE PUSH1 0x10 SWAP1 SWAP2 MSTORE SWAP2 DUP3 KECCAK256 DUP2 ADD SWAP2 SWAP1 SWAP2 SSTORE PUSH2 0x1E25 SWAP1 DUP4 SWAP1 PUSH2 0x332A JUMP JUMPDEST CALLER PUSH1 0x0 SWAP1 DUP2 MSTORE PUSH1 0x10 PUSH1 0x20 MSTORE PUSH1 0x40 SWAP1 KECCAK256 PUSH1 0x4 DUP2 ADD SWAP2 SWAP1 SWAP2 SSTORE SLOAD PUSH1 0x1 PUSH1 0x1 PUSH1 0xA0 SHL SUB AND DUP1 ISZERO PUSH2 0x1E7C JUMPI PUSH1 0x0 PUSH1 0x64 PUSH1 0x7 SLOAD DUP6 PUSH2 0x1E5E SWAP2 SWAP1 PUSH2 0x332A JUMP JUMPDEST PUSH2 0x1E68 SWAP2 SWAP1 PUSH2 0x335A JUMP JUMPDEST SWAP1 POP PUSH2 0x1E76 DUP3 DUP3 PUSH1 0x2 PUSH2 0x2A7D JUMP JUMPDEST POP PUSH2 0x1F12 JUMP JUMPDEST PUSH1 0x2 SLOAD PUSH1 0x4 SLOAD PUSH1 0x7 SLOAD PUSH1 0x1 PUSH1 0x1 PUSH1 0xA0 SHL SUB SWAP3 DUP4 AND SWAP3 PUSH4 0xA9059CBB SWAP3 AND SWAP1 PUSH1 0x64 SWAP1 PUSH2 0x1EA6 SWAP1 DUP9 PUSH2 0x332A JUMP JUMPDEST PUSH2 0x1EB0 SWAP2 SWAP1 PUSH2 0x335A JUMP JUMPDEST PUSH1 0x40 MLOAD DUP4 PUSH4 0xFFFFFFFF AND PUSH1 0xE0 SHL DUP2 MSTORE PUSH1 0x4 ADD PUSH2 0x1ECD SWAP3 SWAP2 SWAP1 PUSH2 0x32D1 JUMP JUMPDEST PUSH1 0x20 PUSH1 0x40 MLOAD DUP1 DUP4 SUB DUP2 PUSH1 0x0 DUP8 GAS CALL ISZERO DUP1 ISZERO PUSH2 0x1EEC JUMPI RETURNDATASIZE PUSH1 0x0 DUP1 RETURNDATACOPY RETURNDATASIZE PUSH1 0x0 REVERT JUMPDEST POP POP POP POP PUSH1 0x40 MLOAD RETURNDATASIZE PUSH1 0x1F NOT PUSH1 0x1F DUP3 ADD AND DUP3 ADD DUP1 PUSH1 0x40 MSTORE POP DUP2 ADD SWAP1 PUSH2 0x1F10 SWAP2 SWAP1 PUSH2 0x33A0 JUMP JUMPDEST POP JUMPDEST PUSH2 0x1F1F CALLER DUP5 PUSH1 0x15 SLOAD PUSH2 0x2C2C JUMP JUMPDEST PUSH1 0x2 SLOAD PUSH1 0x4 SLOAD PUSH1 0x9 SLOAD PUSH1 0x1 PUSH1 0x1 PUSH1 0xA0 SHL SUB SWAP3 DUP4 AND SWAP3 PUSH4 0xA9059CBB SWAP3 AND SWAP1 PUSH1 0x64 SWAP1 PUSH2 0x1F49 SWAP1 DUP9 PUSH2 0x332A JUMP JUMPDEST PUSH2 0x1F53 SWAP2 SWAP1 PUSH2 0x335A JUMP JUMPDEST PUSH1 0x40 MLOAD DUP4 PUSH4 0xFFFFFFFF AND PUSH1 0xE0 SHL DUP2 MSTORE PUSH1 0x4 ADD PUSH2 0x1F70 SWAP3 SWAP2 SWAP1 PUSH2 0x32D1 JUMP JUMPDEST PUSH1 0x20 PUSH1 0x40 MLOAD DUP1 DUP4 SUB DUP2 PUSH1 0x0 DUP8 GAS CALL ISZERO DUP1 ISZERO PUSH2 0x1F8F JUMPI RETURNDATASIZE PUSH1 0x0 DUP1 RETURNDATACOPY RETURNDATASIZE PUSH1 0x0 REVERT JUMPDEST POP POP POP POP PUSH1 0x40 MLOAD RETURNDATASIZE PUSH1 0x1F NOT PUSH1 0x1F DUP3 ADD AND DUP3 ADD DUP1 PUSH1 0x40 MSTORE POP DUP2 ADD SWAP1 PUSH2 0x1FB3 SWAP2 SWAP1 PUSH2 0x33A0 JUMP JUMPDEST POP PUSH1 0x0 PUSH1 0x64 PUSH1 0xA SLOAD DUP6 PUSH2 0x1FC6 SWAP2 SWAP1 PUSH2 0x332A JUMP JUMPDEST PUSH2 0x1FD0 SWAP2 SWAP1 PUSH2 0x335A JUMP JUMPDEST SWAP1 POP PUSH2 0x1FDB DUP2 PUSH2 0x2DA3 JUMP JUMPDEST PUSH1 0x2 SLOAD PUSH1 0x6 SLOAD PUSH1 0xB SLOAD PUSH1 0x1 PUSH1 0x1 PUSH1 0xA0 SHL SUB SWAP3 DUP4 AND SWAP3 PUSH4 0xA9059CBB SWAP3 AND SWAP1 PUSH1 0x64 SWAP1 PUSH2 0x2005 SWAP1 DUP10 PUSH2 0x332A JUMP JUMPDEST PUSH2 0x200F SWAP2 SWAP1 PUSH2 0x335A JUMP JUMPDEST PUSH1 0x40 MLOAD DUP4 PUSH4 0xFFFFFFFF AND PUSH1 0xE0 SHL DUP2 MSTORE PUSH1 0x4 ADD PUSH2 0x202C SWAP3 SWAP2 SWAP1 PUSH2 0x32D1 JUMP JUMPDEST PUSH1 0x20 PUSH1 0x40 MLOAD DUP1 DUP4 SUB DUP2 PUSH1 0x0 DUP8 GAS CALL ISZERO DUP1 ISZERO PUSH2 0x204B JUMPI RETURNDATASIZE PUSH1 0x0 DUP1 RETURNDATACOPY RETURNDATASIZE PUSH1 0x0 REVERT JUMPDEST POP POP POP POP PUSH1 0x40 MLOAD RETURNDATASIZE PUSH1 0x1F NOT PUSH1 0x1F DUP3 ADD AND DUP3 ADD DUP1 PUSH1 0x40 MSTORE POP DUP2 ADD SWAP1 PUSH2 0x206F SWAP2 SWAP1 PUSH2 0x33A0 JUMP JUMPDEST POP PUSH1 0x2 SLOAD PUSH1 0x5 SLOAD PUSH1 0xC SLOAD PUSH1 0x1 PUSH1 0x1 PUSH1 0xA0 SHL SUB SWAP3 DUP4 AND SWAP3 PUSH4 0xA9059CBB SWAP3 AND SWAP1 PUSH1 0x64 SWAP1 PUSH2 0x209A SWAP1 DUP10 PUSH2 0x332A JUMP JUMPDEST PUSH2 0x20A4 SWAP2 SWAP1 PUSH2 0x335A JUMP JUMPDEST PUSH1 0x40 MLOAD DUP4 PUSH4 0xFFFFFFFF AND PUSH1 0xE0 SHL DUP2 MSTORE PUSH1 0x4 ADD PUSH2 0x20C1 SWAP3 SWAP2 SWAP1 PUSH2 0x32D1 JUMP JUMPDEST PUSH1 0x20 PUSH1 0x40 MLOAD DUP1 DUP4 SUB DUP2 PUSH1 0x0 DUP8 GAS CALL ISZERO DUP1 ISZERO PUSH2 0x20E0 JUMPI RETURNDATASIZE PUSH1 0x0 DUP1 RETURNDATACOPY RETURNDATASIZE PUSH1 0x0 REVERT JUMPDEST POP POP POP POP PUSH1 0x40 MLOAD RETURNDATASIZE PUSH1 0x1F NOT PUSH1 0x1F DUP3 ADD AND DUP3 ADD DUP1 PUSH1 0x40 MSTORE POP DUP2 ADD SWAP1 PUSH2 0x2104 SWAP2 SWAP1 PUSH2 0x33A0 JUMP JUMPDEST POP PUSH1 0x15 SLOAD PUSH1 0x40 MLOAD CALLER SWAP2 PUSH32 0x2A91574E12AD96234E84923E146B0946ECFB871CD8D5534DC1FDCBE87A7C01B3 SWAP2 PUSH2 0x10B2 SWAP2 DUP9 DUP3 MSTORE PUSH1 0x20 DUP3 ADD MSTORE PUSH1 0x40 ADD SWAP1 JUMP JUMPDEST PUSH2 0x2149 PUSH2 0x2A50 JUMP JUMPDEST PUSH1 0x1 PUSH1 0x1 PUSH1 0xA0 SHL SUB SWAP1 SWAP3 AND PUSH1 0x0 SWAP1 DUP2 MSTORE PUSH1 0x10 PUSH1 0x20 MSTORE PUSH1 0x40 SWAP1 KECCAK256 PUSH1 0x1 DUP2 ADD SWAP2 SWAP1 SWAP2 SSTORE PUSH1 0x2 ADD SSTORE JUMP JUMPDEST PUSH2 0x2178 PUSH2 0x2A50 JUMP JUMPDEST PUSH2 0x15DD PUSH1 0x0 PUSH2 0x2F5B JUMP JUMPDEST PUSH2 0x218A PUSH2 0x2A50 JUMP JUMPDEST PUSH1 0x4 DUP1 SLOAD PUSH1 0x1 PUSH1 0x1 PUSH1 0xA0 SHL SUB SWAP5 DUP6 AND PUSH1 0x1 PUSH1 0x1 PUSH1 0xA0 SHL SUB NOT SWAP2 DUP3 AND OR SWAP1 SWAP2 SSTORE PUSH1 0x5 DUP1 SLOAD SWAP4 DUP6 AND SWAP4 DUP3 AND SWAP4 SWAP1 SWAP4 OR SWAP1 SWAP3 SSTORE PUSH1 0x6 DUP1 SLOAD SWAP2 SWAP1 SWAP4 AND SWAP2 AND OR SWAP1 SSTORE JUMP JUMPDEST PUSH1 0x13 PUSH1 0x20 MSTORE DUP2 PUSH1 0x0 MSTORE PUSH1 0x40 PUSH1 0x0 KECCAK256 DUP2 DUP2 SLOAD DUP2 LT PUSH2 0x21E5 JUMPI PUSH1 0x0 DUP1 REVERT JUMPDEST PUSH1 0x0 SWAP2 DUP3 MSTORE PUSH1 0x20 SWAP1 SWAP2 KECCAK256 PUSH1 0x2 SWAP1 SWAP2 MUL ADD DUP1 SLOAD PUSH1 0x1 SWAP1 SWAP2 ADD SLOAD PUSH1 0x1 PUSH1 0x1 PUSH1 0xA0 SHL SUB SWAP1 SWAP2 AND SWAP3 POP SWAP1 POP DUP3 JUMP JUMPDEST PUSH1 0x0 DUP1 PUSH3 0x186A0 DUP4 LT PUSH2 0x2228 JUMPI POP PUSH1 0x9 SWAP3 PUSH1 0x2D SWAP3 POP SWAP1 POP JUMP JUMPDEST PUSH2 0x7530 DUP4 LT PUSH2 0x223D JUMPI POP PUSH1 0x8 SWAP3 PUSH1 0x28 SWAP3 POP SWAP1 POP JUMP JUMPDEST PUSH2 0x2710 DUP4 LT PUSH2 0x2252 JUMPI POP PUSH1 0x7 SWAP3 PUSH1 0x23 SWAP3 POP SWAP1 POP JUMP JUMPDEST PUSH2 0xBB8 DUP4 LT PUSH2 0x2267 JUMPI POP PUSH1 0x6 SWAP3 PUSH1 0x1E SWAP3 POP SWAP1 POP JUMP JUMPDEST PUSH2 0x3E8 DUP4 LT PUSH2 0x227C JUMPI POP PUSH1 0x5 SWAP3 PUSH1 0x19 SWAP3 POP SWAP1 POP JUMP JUMPDEST PUSH2 0x12C DUP4 LT PUSH2 0x2291 JUMPI POP PUSH1 0x4 SWAP3 PUSH1 0x14 SWAP3 POP SWAP1 POP JUMP JUMPDEST PUSH1 0x64 DUP4 LT PUSH2 0x22A5 JUMPI POP PUSH1 0x3 SWAP3 PUSH1 0xF SWAP3 POP SWAP1 POP JUMP JUMPDEST PUSH1 0x1E DUP4 LT PUSH2 0x22B9 JUMPI POP PUSH1 0x2 SWAP3 PUSH1 0xA SWAP3 POP SWAP1 POP JUMP JUMPDEST PUSH1 0xA DUP4 LT PUSH2 0x22CD JUMPI POP PUSH1 0x1 SWAP3 PUSH1 0x5 SWAP3 POP SWAP1 POP JUMP JUMPDEST POP PUSH1 0x0 SWAP3 DUP4 SWAP3 POP SWAP1 POP JUMP JUMPDEST PUSH2 0x22E0 PUSH2 0x2A50 JUMP JUMPDEST DUP1 PUSH1 0x1 PUSH1 0x1 PUSH1 0xA0 SHL SUB AND DUP3 PUSH1 0x1 PUSH1 0x1 PUSH1 0xA0 SHL SUB AND SUB PUSH2 0x2334 JUMPI PUSH1 0x40 MLOAD PUSH3 0x461BCD PUSH1 0xE5 SHL DUP2 MSTORE PUSH1 0x20 PUSH1 0x4 DUP3 ADD MSTORE PUSH1 0x10 PUSH1 0x24 DUP3 ADD MSTORE PUSH16 0x21B0B73737BA103134B7321039B2B633 PUSH1 0x81 SHL PUSH1 0x44 DUP3 ADD MSTORE PUSH1 0x64 ADD PUSH2 0x6BF JUMP JUMPDEST PUSH1 0x1 PUSH1 0x1 PUSH1 0xA0 SHL SUB DUP1 DUP4 AND PUSH1 0x0 SWAP1 DUP2 MSTORE PUSH1 0x10 PUSH1 0x20 MSTORE PUSH1 0x40 SWAP1 KECCAK256 DUP1 SLOAD DUP4 DUP4 AND PUSH1 0x1 PUSH1 0x1 PUSH1 0xA0 SHL SUB NOT DUP3 AND OR SWAP1 SWAP2 SSTORE AND DUP1 ISZERO PUSH2 0x248B JUMPI PUSH1 0x1 PUSH1 0x1 PUSH1 0xA0 SHL SUB DUP2 AND PUSH1 0x0 SWAP1 DUP2 MSTORE PUSH1 0x12 PUSH1 0x20 MSTORE PUSH1 0x40 DUP2 KECCAK256 SWAP1 JUMPDEST DUP2 SLOAD DUP2 LT ISZERO PUSH2 0x2488 JUMPI DUP5 PUSH1 0x1 PUSH1 0x1 PUSH1 0xA0 SHL SUB AND DUP3 DUP3 DUP2 SLOAD DUP2 LT PUSH2 0x23A7 JUMPI PUSH2 0x23A7 PUSH2 0x3407 JUMP JUMPDEST PUSH1 0x0 SWAP2 DUP3 MSTORE PUSH1 0x20 SWAP1 SWAP2 KECCAK256 ADD SLOAD PUSH1 0x1 PUSH1 0x1 PUSH1 0xA0 SHL SUB AND SUB PUSH2 0x2476 JUMPI DUP2 SLOAD DUP3 SWAP1 PUSH2 0x23D1 SWAP1 PUSH1 0x1 SWAP1 PUSH2 0x33DB JUMP JUMPDEST DUP2 SLOAD DUP2 LT PUSH2 0x23E1 JUMPI PUSH2 0x23E1 PUSH2 0x3407 JUMP JUMPDEST SWAP1 PUSH1 0x0 MSTORE PUSH1 0x20 PUSH1 0x0 KECCAK256 ADD PUSH1 0x0 SWAP1 SLOAD SWAP1 PUSH2 0x100 EXP SWAP1 DIV PUSH1 0x1 PUSH1 0x1 PUSH1 0xA0 SHL SUB AND DUP3 DUP3 DUP2 SLOAD DUP2 LT PUSH2 0x2411 JUMPI PUSH2 0x2411 PUSH2 0x3407 JUMP JUMPDEST SWAP1 PUSH1 0x0 MSTORE PUSH1 0x20 PUSH1 0x0 KECCAK256 ADD PUSH1 0x0 PUSH2 0x100 EXP DUP2 SLOAD DUP2 PUSH1 0x1 PUSH1 0x1 PUSH1 0xA0 SHL SUB MUL NOT AND SWAP1 DUP4 PUSH1 0x1 PUSH1 0x1 PUSH1 0xA0 SHL SUB AND MUL OR SWAP1 SSTORE POP DUP2 DUP1 SLOAD DUP1 PUSH2 0x244F JUMPI PUSH2 0x244F PUSH2 0x341D JUMP JUMPDEST PUSH1 0x0 DUP3 DUP2 MSTORE PUSH1 0x20 SWAP1 KECCAK256 DUP2 ADD PUSH1 0x0 NOT SWAP1 DUP2 ADD DUP1 SLOAD PUSH1 0x1 PUSH1 0x1 PUSH1 0xA0 SHL SUB NOT AND SWAP1 SSTORE ADD SWAP1 SSTORE PUSH2 0x2488 JUMP JUMPDEST DUP1 PUSH2 0x2480 DUP2 PUSH2 0x33EE JUMP JUMPDEST SWAP2 POP POP PUSH2 0x2382 JUMP JUMPDEST POP POP JUMPDEST PUSH1 0x1 PUSH1 0x1 PUSH1 0xA0 SHL SUB DUP3 AND ISZERO PUSH2 0x1B38 JUMPI POP PUSH1 0x1 PUSH1 0x1 PUSH1 0xA0 SHL SUB SWAP1 DUP2 AND PUSH1 0x0 SWAP1 DUP2 MSTORE PUSH1 0x12 PUSH1 0x20 SWAP1 DUP2 MSTORE PUSH1 0x40 DUP3 KECCAK256 DUP1 SLOAD PUSH1 0x1 DUP2 ADD DUP3 SSTORE SWAP1 DUP4 MSTORE SWAP2 KECCAK256 ADD DUP1 SLOAD PUSH1 0x1 PUSH1 0x1 PUSH1 0xA0 SHL SUB NOT AND SWAP3 SWAP1 SWAP2 AND SWAP2 SWAP1 SWAP2 OR SWAP1 SSTORE JUMP JUMPDEST PUSH2 0x24E4 PUSH2 0x27E2 JUMP JUMPDEST CALLER PUSH1 0x0 SWAP1 DUP2 MSTORE PUSH1 0x11 PUSH1 0x20 MSTORE PUSH1 0x40 SWAP1 KECCAK256 PUSH1 0x4 DUP2 ADD SLOAD PUSH1 0xFF AND DUP1 ISZERO PUSH2 0x250C JUMPI POP PUSH1 0x8 DUP2 ADD SLOAD PUSH1 0xFF AND ISZERO JUMPDEST DUP1 ISZERO PUSH2 0x2522 JUMPI POP PUSH1 0x8 DUP2 ADD SLOAD PUSH2 0x100 SWAP1 DIV PUSH1 0xFF AND ISZERO JUMPDEST PUSH2 0x255E JUMPI PUSH1 0x40 MLOAD PUSH3 0x461BCD PUSH1 0xE5 SHL DUP2 MSTORE PUSH1 0x20 PUSH1 0x4 DUP3 ADD MSTORE PUSH1 0xD PUSH1 0x24 DUP3 ADD MSTORE PUSH13 0x43616E6E6F742072656465656D PUSH1 0x98 SHL PUSH1 0x44 DUP3 ADD MSTORE PUSH1 0x64 ADD PUSH2 0x6BF JUMP JUMPDEST PUSH1 0x3C DUP2 PUSH1 0x7 ADD SLOAD PUSH2 0x256F SWAP2 SWAP1 PUSH2 0x332A JUMP JUMPDEST DUP2 PUSH1 0x6 ADD SLOAD PUSH2 0x257E SWAP2 SWAP1 PUSH2 0x3347 JUMP JUMPDEST TIMESTAMP LT ISZERO PUSH2 0x25C2 JUMPI PUSH1 0x40 MLOAD PUSH3 0x461BCD PUSH1 0xE5 SHL DUP2 MSTORE PUSH1 0x20 PUSH1 0x4 DUP3 ADD MSTORE PUSH1 0x12 PUSH1 0x24 DUP3 ADD MSTORE PUSH18 0x10DE58DB19481B9BDD08199A5B9A5CDA1959 PUSH1 0x72 SHL PUSH1 0x44 DUP3 ADD MSTORE PUSH1 0x64 ADD PUSH2 0x6BF JUMP JUMPDEST PUSH1 0x0 PUSH1 0x64 PUSH1 0xD SLOAD DUP4 PUSH1 0x1 ADD SLOAD PUSH2 0x25D8 SWAP2 SWAP1 PUSH2 0x332A JUMP JUMPDEST PUSH2 0x25E2 SWAP2 SWAP1 PUSH2 0x335A JUMP JUMPDEST PUSH1 0x5 DUP4 ADD SLOAD SWAP1 SWAP2 POP DUP2 DUP2 LT PUSH2 0x2602 JUMPI PUSH2 0x25FB DUP3 DUP3 PUSH2 0x33DB JUMP JUMPDEST SWAP1 POP PUSH2 0x2607 JUMP JUMPDEST PUSH1 0x0 SWAP2 POP JUMPDEST PUSH1 0x2 SLOAD PUSH1 0x40 MLOAD PUSH4 0xA9059CBB PUSH1 0xE0 SHL DUP2 MSTORE PUSH1 0x1 PUSH1 0x1 PUSH1 0xA0 SHL SUB SWAP1 SWAP2 AND SWAP1 PUSH4 0xA9059CBB SWAP1 PUSH2 0x2639 SWAP1 CALLER SWAP1 DUP6 SWAP1 PUSH1 0x4 ADD PUSH2 0x32D1 JUMP JUMPDEST PUSH1 0x20 PUSH1 0x40 MLOAD DUP1 DUP4 SUB DUP2 PUSH1 0x0 DUP8 GAS CALL ISZERO DUP1 ISZERO PUSH2 0x2658 JUMPI RETURNDATASIZE PUSH1 0x0 DUP1 RETURNDATACOPY RETURNDATASIZE PUSH1 0x0 REVERT JUMPDEST POP POP POP POP PUSH1 0x40 MLOAD RETURNDATASIZE PUSH1 0x1F NOT PUSH1 0x1F DUP3 ADD AND DUP3 ADD DUP1 PUSH1 0x40 MSTORE POP DUP2 ADD SWAP1 PUSH2 0x267C SWAP2 SWAP1 PUSH2 0x33A0 JUMP JUMPDEST POP CALLER PUSH1 0x0 SWAP1 DUP2 MSTORE PUSH1 0x10 PUSH1 0x20 MSTORE PUSH1 0x40 SWAP1 KECCAK256 PUSH1 0x6 DUP2 ADD DUP4 SWAP1 SSTORE PUSH1 0x8 DUP5 ADD DUP1 SLOAD PUSH1 0xFF NOT SWAP1 DUP2 AND PUSH1 0x1 OR SWAP1 SWAP2 SSTORE PUSH1 0x5 DUP3 ADD DUP1 SLOAD SWAP1 SWAP2 AND SWAP1 SSTORE SLOAD PUSH1 0x1 PUSH1 0x1 PUSH1 0xA0 SHL SUB AND DUP1 ISZERO DUP1 ISZERO SWAP1 PUSH2 0x26E3 JUMPI POP PUSH1 0x1 PUSH1 0x1 PUSH1 0xA0 SHL SUB DUP2 AND PUSH1 0x0 SWAP1 DUP2 MSTORE PUSH1 0x10 PUSH1 0x20 MSTORE PUSH1 0x40 SWAP1 KECCAK256 PUSH1 0x1 ADD SLOAD ISZERO ISZERO JUMPDEST ISZERO PUSH2 0x2715 JUMPI PUSH1 0x1 PUSH1 0x1 PUSH1 0xA0 SHL SUB DUP2 AND PUSH1 0x0 SWAP1 DUP2 MSTORE PUSH1 0x10 PUSH1 0x20 MSTORE PUSH1 0x40 DUP2 KECCAK256 PUSH1 0x1 ADD DUP1 SLOAD SWAP2 PUSH2 0x270F DUP4 PUSH2 0x3433 JUMP JUMPDEST SWAP2 SWAP1 POP SSTORE POP JUMPDEST PUSH1 0x5 DUP5 ADD SLOAD PUSH1 0x40 DUP1 MLOAD SWAP2 DUP3 MSTORE PUSH1 0x20 DUP3 ADD DUP6 SWAP1 MSTORE CALLER SWAP2 PUSH32 0xF3A670CD3AF7D64B488926880889D08A8585A138FF455227AF6737339A1EC262 SWAP2 ADD PUSH1 0x40 MLOAD DUP1 SWAP2 SUB SWAP1 LOG2 DUP4 SLOAD PUSH2 0x2760 SWAP1 PUSH2 0x2FAB JUMP JUMPDEST POP POP POP POP PUSH2 0x15DD PUSH1 0x1 DUP1 SSTORE JUMP JUMPDEST PUSH2 0x2775 PUSH2 0x2A50 JUMP JUMPDEST PUSH1 0x2 SLOAD PUSH1 0x40 MLOAD PUSH4 0xA9059CBB PUSH1 0xE0 SHL DUP2 MSTORE PUSH1 0x1 PUSH1 0x1 PUSH1 0xA0 SHL SUB SWAP1 SWAP2 AND SWAP1 PUSH4 0xA9059CBB SWAP1 PUSH2 0x1AF5 SWAP1 DUP5 SWAP1 DUP7 SWAP1 PUSH1 0x4 ADD PUSH2 0x32D1 JUMP JUMPDEST PUSH2 0x27AF PUSH2 0x2A50 JUMP JUMPDEST PUSH1 0x1 PUSH1 0x1 PUSH1 0xA0 SHL SUB DUP2 AND PUSH2 0x27D9 JUMPI PUSH1 0x40 MLOAD PUSH4 0x1E4FBDF7 PUSH1 0xE0 SHL DUP2 MSTORE PUSH1 0x0 PUSH1 0x4 DUP3 ADD MSTORE PUSH1 0x24 ADD PUSH2 0x6BF JUMP JUMPDEST PUSH2 0xCB6 DUP2 PUSH2 0x2F5B JUMP JUMPDEST PUSH1 0x2 PUSH1 0x1 SLOAD SUB PUSH2 0x2805 JUMPI PUSH1 0x40 MLOAD PUSH4 0x3EE5AEB5 PUSH1 0xE0 SHL DUP2 MSTORE PUSH1 0x4 ADD PUSH1 0x40 MLOAD DUP1 SWAP2 SUB SWAP1 REVERT JUMPDEST PUSH1 0x2 PUSH1 0x1 SSTORE JUMP JUMPDEST PUSH1 0x1 PUSH1 0x1 PUSH1 0xA0 SHL SUB DUP2 AND PUSH1 0x0 SWAP1 DUP2 MSTORE PUSH1 0x11 PUSH1 0x20 MSTORE PUSH1 0x40 SWAP1 KECCAK256 PUSH1 0x8 DUP2 ADD SLOAD PUSH2 0x100 SWAP1 DIV PUSH1 0xFF AND PUSH2 0x2A4C JUMPI PUSH1 0x8 DUP2 ADD DUP1 SLOAD PUSH2 0xFF00 NOT AND PUSH2 0x100 OR SWAP1 SSTORE PUSH1 0x4 DUP2 ADD SLOAD PUSH1 0xFF AND DUP1 ISZERO PUSH2 0x285F JUMPI POP PUSH1 0x8 DUP2 ADD SLOAD PUSH1 0xFF AND ISZERO JUMPDEST ISZERO PUSH2 0x2A0B JUMPI PUSH1 0x0 PUSH1 0x64 PUSH1 0xD SLOAD DUP4 PUSH1 0x1 ADD SLOAD PUSH2 0x287A SWAP2 SWAP1 PUSH2 0x332A JUMP JUMPDEST PUSH2 0x2884 SWAP2 SWAP1 PUSH2 0x335A JUMP JUMPDEST SWAP1 POP PUSH1 0x0 DUP2 DUP4 PUSH1 0x5 ADD SLOAD GT PUSH2 0x289A JUMPI PUSH1 0x0 PUSH2 0x28AA JUMP JUMPDEST DUP2 DUP4 PUSH1 0x5 ADD SLOAD PUSH2 0x28AA SWAP2 SWAP1 PUSH2 0x33DB JUMP JUMPDEST SWAP1 POP DUP1 ISZERO PUSH2 0x2929 JUMPI PUSH1 0x2 SLOAD PUSH1 0x40 MLOAD PUSH4 0xA9059CBB PUSH1 0xE0 SHL DUP2 MSTORE PUSH1 0x1 PUSH1 0x1 PUSH1 0xA0 SHL SUB SWAP1 SWAP2 AND SWAP1 PUSH4 0xA9059CBB SWAP1 PUSH2 0x28E4 SWAP1 DUP8 SWAP1 DUP6 SWAP1 PUSH1 0x4 ADD PUSH2 0x32D1 JUMP JUMPDEST PUSH1 0x20 PUSH1 0x40 MLOAD DUP1 DUP4 SUB DUP2 PUSH1 0x0 DUP8 GAS CALL ISZERO DUP1 ISZERO PUSH2 0x2903 JUMPI RETURNDATASIZE PUSH1 0x0 DUP1 RETURNDATACOPY RETURNDATASIZE PUSH1 0x0 REVERT JUMPDEST POP POP POP POP PUSH1 0x40 MLOAD RETURNDATASIZE PUSH1 0x1F NOT PUSH1 0x1F DUP3 ADD AND DUP3 ADD DUP1 PUSH1 0x40 MSTORE POP DUP2 ADD SWAP1 PUSH2 0x2927 SWAP2 SWAP1 PUSH2 0x33A0 JUMP JUMPDEST POP JUMPDEST PUSH1 0x8 DUP4 ADD DUP1 SLOAD PUSH1 0xFF NOT SWAP1 DUP2 AND PUSH1 0x1 OR SWAP1 SWAP2 SSTORE PUSH1 0x1 PUSH1 0x1 PUSH1 0xA0 SHL SUB DUP1 DUP7 AND PUSH1 0x0 SWAP1 DUP2 MSTORE PUSH1 0x10 PUSH1 0x20 MSTORE PUSH1 0x40 SWAP1 KECCAK256 PUSH1 0x5 DUP2 ADD DUP1 SLOAD SWAP1 SWAP4 AND SWAP1 SWAP3 SSTORE SWAP1 SLOAD AND DUP1 ISZERO DUP1 ISZERO SWAP1 PUSH2 0x298C JUMPI POP PUSH1 0x1 PUSH1 0x1 PUSH1 0xA0 SHL SUB DUP2 AND PUSH1 0x0 SWAP1 DUP2 MSTORE PUSH1 0x10 PUSH1 0x20 MSTORE PUSH1 0x40 SWAP1 KECCAK256 PUSH1 0x1 ADD SLOAD ISZERO ISZERO JUMPDEST ISZERO PUSH2 0x29BE JUMPI PUSH1 0x1 PUSH1 0x1 PUSH1 0xA0 SHL SUB DUP2 AND PUSH1 0x0 SWAP1 DUP2 MSTORE PUSH1 0x10 PUSH1 0x20 MSTORE PUSH1 0x40 DUP2 KECCAK256 PUSH1 0x1 ADD DUP1 SLOAD SWAP2 PUSH2 0x29B8 DUP4 PUSH2 0x3433 JUMP JUMPDEST SWAP2 SWAP1 POP SSTORE POP JUMPDEST PUSH1 0x5 DUP5 ADD SLOAD PUSH1 0x40 DUP1 MLOAD SWAP2 DUP3 MSTORE PUSH1 0x20 DUP3 ADD DUP6 SWAP1 MSTORE PUSH1 0x1 PUSH1 0x1 PUSH1 0xA0 SHL SUB DUP8 AND SWAP2 PUSH32 0xF3A670CD3AF7D64B488926880889D08A8585A138FF455227AF6737339A1EC262 SWAP2 ADD PUSH1 0x40 MLOAD DUP1 SWAP2 SUB SWAP1 LOG2 POP POP POP JUMPDEST DUP1 SLOAD PUSH1 0x40 MLOAD SWAP1 DUP2 MSTORE PUSH1 0x1 PUSH1 0x1 PUSH1 0xA0 SHL SUB DUP4 AND SWAP1 PUSH32 0x920BB94EB3842A728DB98228C375FF6B00C5BC5A54FAC6736155517A0A20A61A SWAP1 PUSH1 0x20 ADD PUSH1 0x40 MLOAD DUP1 SWAP2 SUB SWAP1 LOG2 JUMPDEST POP POP JUMP JUMPDEST PUSH1 0x0 SLOAD PUSH1 0x1 PUSH1 0x1 PUSH1 0xA0 SHL SUB AND CALLER EQ PUSH2 0x15DD JUMPI PUSH1 0x40 MLOAD PUSH4 0x118CDAA7 PUSH1 0xE0 SHL DUP2 MSTORE CALLER PUSH1 0x4 DUP3 ADD MSTORE PUSH1 0x24 ADD PUSH2 0x6BF JUMP JUMPDEST PUSH1 0x1 PUSH1 0x1 PUSH1 0xA0 SHL SUB DUP4 AND PUSH1 0x0 SWAP1 DUP2 MSTORE PUSH1 0x10 PUSH1 0x20 SWAP1 DUP2 MSTORE PUSH1 0x40 DUP1 DUP4 KECCAK256 PUSH1 0x11 SWAP1 SWAP3 MSTORE SWAP1 SWAP2 KECCAK256 PUSH1 0x8 DUP2 ADD SLOAD PUSH2 0x100 SWAP1 DIV PUSH1 0xFF AND DUP1 PUSH2 0x2ABA JUMPI POP PUSH1 0x1 DUP2 ADD SLOAD ISZERO JUMPDEST ISZERO PUSH2 0x2AC6 JUMPI POP POP POP POP POP JUMP JUMPDEST PUSH1 0x0 DUP3 PUSH1 0x3 ADD SLOAD DUP4 PUSH1 0x4 ADD SLOAD PUSH2 0x2ADC SWAP2 SWAP1 PUSH2 0x33DB JUMP JUMPDEST SWAP1 POP DUP5 DUP2 DUP2 GT ISZERO PUSH2 0x2B2F JUMPI POP PUSH1 0x40 DUP1 MLOAD DUP7 DUP2 MSTORE PUSH1 0x20 DUP2 ADD DUP4 SWAP1 MSTORE DUP3 SWAP2 PUSH1 0x1 PUSH1 0x1 PUSH1 0xA0 SHL SUB DUP10 AND SWAP2 PUSH32 0xB5987AAB1AFD379F6695F1068869EE8CA6A0D02304C57935A9CC3D3EA2E51E4D SWAP2 ADD PUSH1 0x40 MLOAD DUP1 SWAP2 SUB SWAP1 LOG2 JUMPDEST DUP1 ISZERO PUSH2 0x2C0B JUMPI DUP1 DUP5 PUSH1 0x3 ADD PUSH1 0x0 DUP3 DUP3 SLOAD PUSH2 0x2B49 SWAP2 SWAP1 PUSH2 0x3347 JUMP JUMPDEST SWAP1 SWAP2 SSTORE POP POP PUSH1 0x2 SLOAD PUSH1 0x40 MLOAD PUSH4 0xA9059CBB PUSH1 0xE0 SHL DUP2 MSTORE PUSH1 0x1 PUSH1 0x1 PUSH1 0xA0 SHL SUB SWAP1 SWAP2 AND SWAP1 PUSH4 0xA9059CBB SWAP1 PUSH2 0x2B80 SWAP1 DUP11 SWAP1 DUP6 SWAP1 PUSH1 0x4 ADD PUSH2 0x32D1 JUMP JUMPDEST PUSH1 0x20 PUSH1 0x40 MLOAD DUP1 DUP4 SUB DUP2 PUSH1 0x0 DUP8 GAS CALL ISZERO DUP1 ISZERO PUSH2 0x2B9F JUMPI RETURNDATASIZE PUSH1 0x0 DUP1 RETURNDATACOPY RETURNDATASIZE PUSH1 0x0 REVERT JUMPDEST POP POP POP POP PUSH1 0x40 MLOAD RETURNDATASIZE PUSH1 0x1F NOT PUSH1 0x1F DUP3 ADD AND DUP3 ADD DUP1 PUSH1 0x40 MSTORE POP DUP2 ADD SWAP1 PUSH2 0x2BC3 SWAP2 SWAP1 PUSH2 0x33A0 JUMP JUMPDEST POP PUSH1 0x40 DUP1 MLOAD DUP3 DUP2 MSTORE PUSH1 0xFF DUP8 AND PUSH1 0x20 DUP3 ADD MSTORE PUSH1 0x1 PUSH1 0x1 PUSH1 0xA0 SHL SUB DUP10 AND SWAP2 PUSH32 0xF381583145E90B82CC5E529BF4FC4D0E44397174CDF145C4251AC33EF195A424 SWAP2 ADD PUSH1 0x40 MLOAD DUP1 SWAP2 SUB SWAP1 LOG2 JUMPDEST DUP4 PUSH1 0x4 ADD SLOAD DUP5 PUSH1 0x3 ADD SLOAD LT PUSH2 0x2C23 JUMPI PUSH2 0x2C23 DUP8 PUSH2 0x280C JUMP JUMPDEST POP POP POP POP POP POP POP JUMP JUMPDEST PUSH1 0x1 PUSH1 0x1 PUSH1 0xA0 SHL SUB DUP1 DUP5 AND PUSH1 0x0 SWAP1 DUP2 MSTORE PUSH1 0x10 PUSH1 0x20 MSTORE PUSH1 0x40 DUP2 KECCAK256 SLOAD SWAP1 SWAP2 AND SWAP1 DUP1 JUMPDEST PUSH1 0x1 PUSH1 0x1 PUSH1 0xA0 SHL SUB DUP4 AND ISZERO DUP1 ISZERO SWAP1 PUSH2 0x2C64 JUMPI POP PUSH1 0x14 DUP2 LT JUMPDEST ISZERO PUSH2 0x2D9B JUMPI PUSH1 0x1 PUSH1 0x1 PUSH1 0xA0 SHL SUB DUP4 AND PUSH1 0x0 SWAP1 DUP2 MSTORE PUSH1 0x10 PUSH1 0x20 MSTORE PUSH1 0x40 DUP2 KECCAK256 PUSH1 0x1 ADD SLOAD PUSH2 0x2C8E SWAP1 PUSH2 0x220F JUMP JUMPDEST SWAP2 POP POP DUP3 DUP2 GT ISZERO PUSH2 0x2D5C JUMPI PUSH1 0x0 PUSH2 0x2CA5 DUP5 DUP4 PUSH2 0x33DB JUMP JUMPDEST SWAP1 POP PUSH1 0x0 PUSH1 0x64 PUSH2 0x2CB5 DUP4 DUP11 PUSH2 0x332A JUMP JUMPDEST PUSH2 0x2CBF SWAP2 SWAP1 PUSH2 0x335A JUMP JUMPDEST PUSH1 0x0 DUP9 DUP2 MSTORE PUSH1 0x13 PUSH1 0x20 SWAP1 DUP2 MSTORE PUSH1 0x40 DUP1 DUP4 KECCAK256 DUP2 MLOAD DUP1 DUP4 ADD DUP4 MSTORE PUSH1 0x1 PUSH1 0x1 PUSH1 0xA0 SHL SUB DUP13 DUP2 AND DUP1 DUP4 MSTORE DUP3 DUP7 ADD DUP9 DUP2 MSTORE DUP5 SLOAD PUSH1 0x1 DUP1 DUP3 ADD DUP8 SSTORE SWAP6 DUP10 MSTORE SWAP8 DUP8 SWAP1 KECCAK256 SWAP4 MLOAD PUSH1 0x2 SWAP1 SWAP9 MUL SWAP1 SWAP4 ADD DUP1 SLOAD PUSH1 0x1 PUSH1 0x1 PUSH1 0xA0 SHL SUB NOT AND SWAP8 SWAP1 SWAP3 AND SWAP7 SWAP1 SWAP7 OR DUP2 SSTORE SWAP1 MLOAD SWAP2 ADD SSTORE MLOAD DUP4 DUP2 MSTORE SWAP3 SWAP4 POP SWAP1 SWAP2 DUP10 SWAP2 PUSH32 0xBD5E0947444D5ADB46B3D24786F72907C1E8176CB1348960766A6CD6FAD13E9F SWAP2 ADD PUSH1 0x40 MLOAD DUP1 SWAP2 SUB SWAP1 LOG3 DUP3 SWAP5 POP POP POP JUMPDEST PUSH1 0x2D DUP2 LT PUSH2 0x2D6A JUMPI POP PUSH2 0x2D9B JUMP JUMPDEST PUSH1 0x1 PUSH1 0x1 PUSH1 0xA0 SHL SUB SWAP4 DUP5 AND PUSH1 0x0 SWAP1 DUP2 MSTORE PUSH1 0x10 PUSH1 0x20 MSTORE PUSH1 0x40 SWAP1 KECCAK256 SLOAD SWAP1 SWAP4 AND SWAP3 DUP2 PUSH2 0x2D92 DUP2 PUSH2 0x33EE JUMP JUMPDEST SWAP3 POP POP POP PUSH2 0x2C4C JUMP JUMPDEST POP POP POP POP POP POP JUMP JUMPDEST PUSH1 0x2 SLOAD PUSH1 0x40 MLOAD PUSH4 0x70A08231 PUSH1 0xE0 SHL DUP2 MSTORE ADDRESS PUSH1 0x4 DUP3 ADD MSTORE PUSH1 0x0 SWAP2 DUP4 SWAP2 PUSH1 0x1 PUSH1 0x1 PUSH1 0xA0 SHL SUB SWAP1 SWAP2 AND SWAP1 PUSH4 0x70A08231 SWAP1 PUSH1 0x24 ADD PUSH1 0x20 PUSH1 0x40 MLOAD DUP1 DUP4 SUB DUP2 DUP7 GAS STATICCALL ISZERO DUP1 ISZERO PUSH2 0x2DF0 JUMPI RETURNDATASIZE PUSH1 0x0 DUP1 RETURNDATACOPY RETURNDATASIZE PUSH1 0x0 REVERT JUMPDEST POP POP POP POP PUSH1 0x40 MLOAD RETURNDATASIZE PUSH1 0x1F NOT PUSH1 0x1F DUP3 ADD AND DUP3 ADD DUP1 PUSH1 0x40 MSTORE POP DUP2 ADD SWAP1 PUSH2 0x2E14 SWAP2 SWAP1 PUSH2 0x33C2 JUMP JUMPDEST PUSH2 0x2E1E SWAP2 SWAP1 PUSH2 0x33DB JUMP JUMPDEST PUSH1 0x3 SLOAD PUSH1 0x40 MLOAD PUSH4 0x70A08231 PUSH1 0xE0 SHL DUP2 MSTORE ADDRESS PUSH1 0x4 DUP3 ADD MSTORE SWAP2 SWAP3 POP PUSH1 0x0 SWAP2 PUSH1 0x1 PUSH1 0x1 PUSH1 0xA0 SHL SUB SWAP1 SWAP2 AND SWAP1 PUSH4 0x70A08231 SWAP1 PUSH1 0x24 ADD PUSH1 0x20 PUSH1 0x40 MLOAD DUP1 DUP4 SUB DUP2 DUP7 GAS STATICCALL ISZERO DUP1 ISZERO PUSH2 0x2E6C JUMPI RETURNDATASIZE PUSH1 0x0 DUP1 RETURNDATACOPY RETURNDATASIZE PUSH1 0x0 REVERT JUMPDEST POP POP POP POP PUSH1 0x40 MLOAD RETURNDATASIZE PUSH1 0x1F NOT PUSH1 0x1F DUP3 ADD AND DUP3 ADD DUP1 PUSH1 0x40 MSTORE POP DUP2 ADD SWAP1 PUSH2 0x2E90 SWAP2 SWAP1 PUSH2 0x33C2 JUMP JUMPDEST SWAP1 POP PUSH1 0x0 DUP3 GT DUP1 ISZERO PUSH2 0x2EA2 JUMPI POP PUSH1 0x0 DUP2 GT JUMPDEST ISZERO PUSH2 0x1B38 JUMPI PUSH1 0x0 PUSH2 0x2EB4 DUP5 DUP5 DUP5 PUSH2 0x7DA JUMP JUMPDEST SWAP1 POP DUP1 ISZERO PUSH2 0x2F55 JUMPI PUSH1 0x3 SLOAD PUSH1 0x40 MLOAD PUSH4 0x852CD8D PUSH1 0xE3 SHL DUP2 MSTORE PUSH1 0x4 DUP2 ADD DUP4 SWAP1 MSTORE PUSH1 0x1 PUSH1 0x1 PUSH1 0xA0 SHL SUB SWAP1 SWAP2 AND SWAP1 PUSH4 0x42966C68 SWAP1 PUSH1 0x24 ADD PUSH1 0x0 PUSH1 0x40 MLOAD DUP1 DUP4 SUB DUP2 PUSH1 0x0 DUP8 DUP1 EXTCODESIZE ISZERO DUP1 ISZERO PUSH2 0x2F02 JUMPI PUSH1 0x0 DUP1 REVERT JUMPDEST POP GAS CALL ISZERO DUP1 ISZERO PUSH2 0x2F16 JUMPI RETURNDATASIZE PUSH1 0x0 DUP1 RETURNDATACOPY RETURNDATASIZE PUSH1 0x0 REVERT JUMPDEST POP POP PUSH1 0x40 DUP1 MLOAD DUP8 DUP2 MSTORE PUSH1 0x20 DUP2 ADD DUP6 SWAP1 MSTORE PUSH32 0xEC3929061CBBBEECB325623E7D5A86C3DAE11CB8A22CA45DC0972955657DA25 SWAP4 POP ADD SWAP1 POP PUSH1 0x40 MLOAD DUP1 SWAP2 SUB SWAP1 LOG1 JUMPDEST POP POP POP POP JUMP JUMPDEST PUSH1 0x0 DUP1 SLOAD PUSH1 0x1 PUSH1 0x1 PUSH1 0xA0 SHL SUB DUP4 DUP2 AND PUSH1 0x1 PUSH1 0x1 PUSH1 0xA0 SHL SUB NOT DUP4 AND DUP2 OR DUP5 SSTORE PUSH1 0x40 MLOAD SWAP2 SWAP1 SWAP3 AND SWAP3 DUP4 SWAP2 PUSH32 0x8BE0079C531659141344CD1FD0A4F28419497F9722A3DAAFE3B4186F6B6457E0 SWAP2 SWAP1 LOG3 POP POP JUMP JUMPDEST PUSH1 0x0 DUP2 DUP2 MSTORE PUSH1 0x13 PUSH1 0x20 SWAP1 DUP2 MSTORE PUSH1 0x40 DUP1 DUP4 KECCAK256 DUP1 SLOAD DUP3 MLOAD DUP2 DUP6 MUL DUP2 ADD DUP6 ADD SWAP1 SWAP4 MSTORE DUP1 DUP4 MSTORE SWAP2 SWAP3 SWAP1 SWAP2 SWAP1 DUP5 SWAP1 DUP5 ADD JUMPDEST DUP3 DUP3 LT ISZERO PUSH2 0x301F JUMPI PUSH1 0x0 DUP5 DUP2 MSTORE PUSH1 0x20 SWAP1 DUP2 SWAP1 KECCAK256 PUSH1 0x40 DUP1 MLOAD DUP1 DUP3 ADD SWAP1 SWAP2 MSTORE PUSH1 0x2 DUP6 MUL SWAP1 SWAP2 ADD DUP1 SLOAD PUSH1 0x1 PUSH1 0x1 PUSH1 0xA0 SHL SUB AND DUP3 MSTORE PUSH1 0x1 SWAP1 DUP2 ADD SLOAD DUP3 DUP5 ADD MSTORE SWAP1 DUP4 MSTORE SWAP1 SWAP3 ADD SWAP2 ADD PUSH2 0x2FD7 JUMP JUMPDEST POP POP POP POP SWAP1 POP PUSH1 0x0 JUMPDEST DUP2 MLOAD DUP2 LT ISZERO PUSH2 0x3107 JUMPI PUSH2 0x3077 DUP3 DUP3 DUP2 MLOAD DUP2 LT PUSH2 0x3046 JUMPI PUSH2 0x3046 PUSH2 0x3407 JUMP JUMPDEST PUSH1 0x20 MUL PUSH1 0x20 ADD ADD MLOAD PUSH1 0x0 ADD MLOAD DUP4 DUP4 DUP2 MLOAD DUP2 LT PUSH2 0x3064 JUMPI PUSH2 0x3064 PUSH2 0x3407 JUMP JUMPDEST PUSH1 0x20 MUL PUSH1 0x20 ADD ADD MLOAD PUSH1 0x20 ADD MLOAD PUSH1 0x3 PUSH2 0x2A7D JUMP JUMPDEST DUP2 DUP2 DUP2 MLOAD DUP2 LT PUSH2 0x3089 JUMPI PUSH2 0x3089 PUSH2 0x3407 JUMP JUMPDEST PUSH1 0x20 MUL PUSH1 0x20 ADD ADD MLOAD PUSH1 0x0 ADD MLOAD PUSH1 0x1 PUSH1 0x1 PUSH1 0xA0 SHL SUB AND DUP4 PUSH32 0x380D782EC118E5171A4D1E7081DB076C4C94CA49C623D531763D402B094B4F24 DUP5 DUP5 DUP2 MLOAD DUP2 LT PUSH2 0x30D2 JUMPI PUSH2 0x30D2 PUSH2 0x3407 JUMP JUMPDEST PUSH1 0x20 MUL PUSH1 0x20 ADD ADD MLOAD PUSH1 0x20 ADD MLOAD PUSH1 0x40 MLOAD PUSH2 0x30ED SWAP2 DUP2 MSTORE PUSH1 0x20 ADD SWAP1 JUMP JUMPDEST PUSH1 0x40 MLOAD DUP1 SWAP2 SUB SWAP1 LOG3 DUP1 PUSH2 0x30FF DUP2 PUSH2 0x33EE JUMP JUMPDEST SWAP2 POP POP PUSH2 0x3028 JUMP JUMPDEST POP PUSH1 0x0 DUP3 DUP2 MSTORE PUSH1 0x13 PUSH1 0x20 MSTORE PUSH1 0x40 DUP2 KECCAK256 PUSH2 0x2A4C SWAP2 POP DUP1 SLOAD PUSH1 0x0 DUP3 SSTORE PUSH1 0x2 MUL SWAP1 PUSH1 0x0 MSTORE PUSH1 0x20 PUSH1 0x0 KECCAK256 SWAP1 DUP2 ADD SWAP1 PUSH2 0xCB6 SWAP2 SWAP1 JUMPDEST DUP1 DUP3 GT ISZERO PUSH2 0x315C JUMPI DUP1 SLOAD PUSH1 0x1 PUSH1 0x1 PUSH1 0xA0 SHL SUB NOT AND DUP2 SSTORE PUSH1 0x0 PUSH1 0x1 DUP3 ADD SSTORE PUSH1 0x2 ADD PUSH2 0x3137 JUMP JUMPDEST POP SWAP1 JUMP JUMPDEST DUP1 CALLDATALOAD PUSH1 0x1 PUSH1 0x1 PUSH1 0xA0 SHL SUB DUP2 AND DUP2 EQ PUSH2 0x3177 JUMPI PUSH1 0x0 DUP1 REVERT JUMPDEST SWAP2 SWAP1 POP JUMP JUMPDEST PUSH1 0x0 PUSH1 0x20 DUP3 DUP5 SUB SLT ISZERO PUSH2 0x318E JUMPI PUSH1 0x0 DUP1 REVERT JUMPDEST PUSH2 0x3197 DUP3 PUSH2 0x3160 JUMP JUMPDEST SWAP4 SWAP3 POP POP POP JUMP JUMPDEST PUSH1 0x0 DUP1 PUSH1 0x0 PUSH1 0x60 DUP5 DUP7 SUB SLT ISZERO PUSH2 0x31B3 JUMPI PUSH1 0x0 DUP1 REVERT JUMPDEST POP POP DUP2 CALLDATALOAD SWAP4 PUSH1 0x20 DUP4 ADD CALLDATALOAD SWAP4 POP PUSH1 0x40 SWAP1 SWAP3 ADD CALLDATALOAD SWAP2 SWAP1 POP JUMP JUMPDEST PUSH1 0x0 DUP1 PUSH1 0x40 DUP4 DUP6 SUB SLT ISZERO PUSH2 0x31DD JUMPI PUSH1 0x0 DUP1 REVERT JUMPDEST PUSH2 0x31E6 DUP4 PUSH2 0x3160 JUMP JUMPDEST SWAP5 PUSH1 0x20 SWAP4 SWAP1 SWAP4 ADD CALLDATALOAD SWAP4 POP POP POP JUMP JUMPDEST PUSH1 0x0 PUSH1 0x20 DUP3 DUP5 SUB SLT ISZERO PUSH2 0x3206 JUMPI PUSH1 0x0 DUP1 REVERT JUMPDEST POP CALLDATALOAD SWAP2 SWAP1 POP JUMP JUMPDEST PUSH1 0x0 DUP1 PUSH1 0x40 DUP4 DUP6 SUB SLT ISZERO PUSH2 0x3220 JUMPI PUSH1 0x0 DUP1 REVERT JUMPDEST DUP3 CALLDATALOAD SWAP2 POP PUSH2 0x3230 PUSH1 0x20 DUP5 ADD PUSH2 0x3160 JUMP JUMPDEST SWAP1 POP SWAP3 POP SWAP3 SWAP1 POP JUMP JUMPDEST PUSH1 0x0 DUP1 PUSH1 0x0 PUSH1 0x60 DUP5 DUP7 SUB SLT ISZERO PUSH2 0x324E JUMPI PUSH1 0x0 DUP1 REVERT JUMPDEST PUSH2 0x3257 DUP5 PUSH2 0x3160 JUMP JUMPDEST SWAP6 PUSH1 0x20 DUP6 ADD CALLDATALOAD SWAP6 POP PUSH1 0x40 SWAP1 SWAP5 ADD CALLDATALOAD SWAP4 SWAP3 POP POP POP JUMP JUMPDEST PUSH1 0x0 DUP1 PUSH1 0x0 PUSH1 0x60 DUP5 DUP7 SUB SLT ISZERO PUSH2 0x3281 JUMPI PUSH1 0x0 DUP1 REVERT JUMPDEST PUSH2 0x328A DUP5 PUSH2 0x3160 JUMP JUMPDEST SWAP3 POP PUSH2 0x3298 PUSH1 0x20 DUP6 ADD PUSH2 0x3160 JUMP JUMPDEST SWAP2 POP PUSH2 0x32A6 PUSH1 0x40 DUP6 ADD PUSH2 0x3160 JUMP JUMPDEST SWAP1 POP SWAP3 POP SWAP3 POP SWAP3 JUMP JUMPDEST PUSH1 0x0 DUP1 PUSH1 0x40 DUP4 DUP6 SUB SLT ISZERO PUSH2 0x32C2 JUMPI PUSH1 0x0 DUP1 REVERT JUMPDEST POP POP DUP1 CALLDATALOAD SWAP3 PUSH1 0x20 SWAP1 SWAP2 ADD CALLDATALOAD SWAP2 POP JUMP JUMPDEST PUSH1 0x1 PUSH1 0x1 PUSH1 0xA0 SHL SUB SWAP3 SWAP1 SWAP3 AND DUP3 MSTORE PUSH1 0x20 DUP3 ADD MSTORE PUSH1 0x40 ADD SWAP1 JUMP JUMPDEST PUSH1 0x0 DUP1 PUSH1 0x40 DUP4 DUP6 SUB SLT ISZERO PUSH2 0x32FD JUMPI PUSH1 0x0 DUP1 REVERT JUMPDEST PUSH2 0x3306 DUP4 PUSH2 0x3160 JUMP JUMPDEST SWAP2 POP PUSH2 0x3230 PUSH1 0x20 DUP5 ADD PUSH2 0x3160 JUMP JUMPDEST PUSH4 0x4E487B71 PUSH1 0xE0 SHL PUSH1 0x0 MSTORE PUSH1 0x11 PUSH1 0x4 MSTORE PUSH1 0x24 PUSH1 0x0 REVERT JUMPDEST DUP1 DUP3 MUL DUP2 ISZERO DUP3 DUP3 DIV DUP5 EQ OR PUSH2 0x3341 JUMPI PUSH2 0x3341 PUSH2 0x3314 JUMP JUMPDEST SWAP3 SWAP2 POP POP JUMP JUMPDEST DUP1 DUP3 ADD DUP1 DUP3 GT ISZERO PUSH2 0x3341 JUMPI PUSH2 0x3341 PUSH2 0x3314 JUMP JUMPDEST PUSH1 0x0 DUP3 PUSH2 0x3377 JUMPI PUSH4 0x4E487B71 PUSH1 0xE0 SHL PUSH1 0x0 MSTORE PUSH1 0x12 PUSH1 0x4 MSTORE PUSH1 0x24 PUSH1 0x0 REVERT JUMPDEST POP DIV SWAP1 JUMP JUMPDEST PUSH1 0x1 PUSH1 0x1 PUSH1 0xA0 SHL SUB SWAP4 DUP5 AND DUP2 MSTORE SWAP2 SWAP1 SWAP3 AND PUSH1 0x20 DUP3 ADD MSTORE PUSH1 0x40 DUP2 ADD SWAP2 SWAP1 SWAP2 MSTORE PUSH1 0x60 ADD SWAP1 JUMP JUMPDEST PUSH1 0x0 PUSH1 0x20 DUP3 DUP5 SUB SLT ISZERO PUSH2 0x33B2 JUMPI PUSH1 0x0 DUP1 REVERT JUMPDEST DUP2 MLOAD DUP1 ISZERO ISZERO DUP2 EQ PUSH2 0x3197 JUMPI PUSH1 0x0 DUP1 REVERT JUMPDEST PUSH1 0x0 PUSH1 0x20 DUP3 DUP5 SUB SLT ISZERO PUSH2 0x33D4 JUMPI PUSH1 0x0 DUP1 REVERT JUMPDEST POP MLOAD SWAP2 SWAP1 POP JUMP JUMPDEST DUP2 DUP2 SUB DUP2 DUP2 GT ISZERO PUSH2 0x3341 JUMPI PUSH2 0x3341 PUSH2 0x3314 JUMP JUMPDEST PUSH1 0x0 PUSH1 0x1 DUP3 ADD PUSH2 0x3400 JUMPI PUSH2 0x3400 PUSH2 0x3314 JUMP JUMPDEST POP PUSH1 0x1 ADD SWAP1 JUMP JUMPDEST PUSH4 0x4E487B71 PUSH1 0xE0 SHL PUSH1 0x0 MSTORE PUSH1 0x32 PUSH1 0x4 MSTORE PUSH1 0x24 PUSH1 0x0 REVERT JUMPDEST PUSH4 0x4E487B71 PUSH1 0xE0 SHL PUSH1 0x0 MSTORE PUSH1 0x31 PUSH1 0x4 MSTORE PUSH1 0x24 PUSH1 0x0 REVERT JUMPDEST PUSH1 0x0 DUP2 PUSH2 0x3442 JUMPI PUSH2 0x3442 PUSH2 0x3314 JUMP JUMPDEST POP PUSH1 0x0 NOT ADD SWAP1 JUMP INVALID LOG2 PUSH5 0x6970667358 0x22 SLT KECCAK256 0xD 0xEF 0xF9 PUSH20 0xBD69680987A01B530CE1F7B2E7227D80094E6C6 0xB9 PUSH13 0xBDDF010546DE64736F6C634300 ADDMOD EQ STOP CALLER "},"methodIdentifiers":{"REWARD_DIRECT()":"0e2be210","REWARD_DYNAMIC()":"8a859a85","REWARD_LEVEL()":"8c0eaa48","REWARD_STATIC()":"1427f616","SECONDS_IN_UNIT()":"488b5d97","adminSetReferrer(address,address)":"a2af9226","adminSetUserStats(address,uint256,uint256)":"6fb3c47c","adminWithdrawJBC(uint256,address)":"62eea914","adminWithdrawMC(uint256,address)":"d241e001","bindReferrer(address)":"04f618cb","buyTicket(uint256)":"67dd74ca","buybackPercent()":"e4412f68","claimRewards()":"372500ab","directReferrals(address,uint256)":"05ad3935","directRewardPercent()":"ccf61944","getAmountOut(uint256,uint256,uint256)":"054d50d4","getJBCPrice()":"3a3ea2f0","getLevel(uint256)":"86481d40","jbcToken()":"1788513c","levelRewardPercent()":"bd594dcf","lpInjectionPercent()":"ceaa366d","lpInjectionWallet()":"88fd4d33","marketingPercent()":"d8020a18","marketingWallet()":"75f0a874","mcToken()":"95253992","nextTicketId()":"6031a52f","owner()":"8da5cb5b","redeem()":"be040fb0","redemptionFeePercent()":"dec7fa3b","renounceOwnership()":"715018a6","setWallets(address,address,address)":"75cb1bd1","stakeLiquidity(uint256)":"35076373","swapBuyTax()":"27f082f4","swapJBCToMC(uint256)":"52778b05","swapMCToJBC(uint256)":"0a5c4567","swapSellTax()":"9370b080","ticketPendingRewards(uint256,uint256)":"813380cd","ticketStaticPaid(uint256)":"f1d34d4e","transferOwnership(address)":"f2fde38b","treasuryPercent()":"04ef9d58","treasuryWallet()":"4626402b","userInfo(address)":"1959a002","userTicket(address)":"8710bcaa"}}}}}