{"contracts/JinbaoProtocolV2.sol":{"JinbaoProtocolV2":{"abi":[{"inputs":[{"internalType":"address","name":"target","type":"address"}],"name":"AddressEmptyCode","type":"error"},{"inputs":[{"internalType":"address","name":"implementation","type":"address"}],"name":"ERC1967InvalidImplementation","type":"error"},{"inputs":[],"name":"ERC1967NonPayable","type":"error"},{"inputs":[],"name":"FailedCall","type":"error"},{"inputs":[],"name":"InvalidInitialization","type":"error"},{"inputs":[],"name":"NotInitializing","type":"error"},{"inputs":[{"internalType":"address","name":"owner","type":"address"}],"name":"OwnableInvalidOwner","type":"error"},{"inputs":[{"internalType":"address","name":"account","type":"address"}],"name":"OwnableUnauthorizedAccount","type":"error"},{"inputs":[],"name":"ReentrancyGuardReentrantCall","type":"error"},{"inputs":[],"name":"UUPSUnauthorizedCallContext","type":"error"},{"inputs":[{"internalType":"bytes32","name":"slot","type":"bytes32"}],"name":"UUPSUnsupportedProxiableUUID","type":"error"},{"anonymous":false,"inputs":[{"indexed":true,"internalType":"uint256","name":"stakeId","type":"uint256"},{"indexed":true,"internalType":"address","name":"upline","type":"address"},{"indexed":false,"internalType":"uint256","name":"amount","type":"uint256"}],"name":"DifferentialRewardRecorded","type":"event"},{"anonymous":false,"inputs":[{"indexed":true,"internalType":"uint256","name":"stakeId","type":"uint256"},{"indexed":true,"internalType":"address","name":"upline","type":"address"},{"indexed":false,"internalType":"uint256","name":"amount","type":"uint256"}],"name":"DifferentialRewardReleased","type":"event"},{"anonymous":false,"inputs":[{"indexed":false,"internalType":"uint64","name":"version","type":"uint64"}],"name":"Initialized","type":"event"},{"anonymous":false,"inputs":[{"indexed":true,"internalType":"address","name":"previousOwner","type":"address"},{"indexed":true,"internalType":"address","name":"newOwner","type":"address"}],"name":"OwnershipTransferred","type":"event"},{"anonymous":false,"inputs":[{"indexed":true,"internalType":"address","name":"user","type":"address"},{"indexed":true,"internalType":"address","name":"from","type":"address"},{"indexed":false,"internalType":"uint256","name":"mcAmount","type":"uint256"},{"indexed":false,"internalType":"uint8","name":"rewardType","type":"uint8"},{"indexed":false,"internalType":"uint256","name":"ticketId","type":"uint256"}],"name":"ReferralRewardPaid","type":"event"},{"anonymous":false,"inputs":[{"indexed":true,"internalType":"address","name":"user","type":"address"},{"indexed":false,"internalType":"uint256","name":"mcAmount","type":"uint256"},{"indexed":false,"internalType":"uint256","name":"jbcAmount","type":"uint256"},{"indexed":false,"internalType":"uint8","name":"rewardType","type":"uint8"},{"indexed":false,"internalType":"uint256","name":"ticketId","type":"uint256"}],"name":"RewardClaimed","type":"event"},{"anonymous":false,"inputs":[{"indexed":true,"internalType":"address","name":"user","type":"address"},{"indexed":false,"internalType":"uint256","name":"oldCount","type":"uint256"},{"indexed":false,"internalType":"uint256","name":"newCount","type":"uint256"}],"name":"TeamCountUpdated","type":"event"},{"anonymous":false,"inputs":[{"indexed":true,"internalType":"address","name":"implementation","type":"address"}],"name":"Upgraded","type":"event"},{"anonymous":false,"inputs":[{"indexed":true,"internalType":"address","name":"user","type":"address"},{"indexed":false,"internalType":"uint256","name":"oldLevel","type":"uint256"},{"indexed":false,"internalType":"uint256","name":"newLevel","type":"uint256"},{"indexed":false,"internalType":"uint256","name":"teamCount","type":"uint256"}],"name":"UserLevelChanged","type":"event"},{"inputs":[],"name":"MAX_PRICE_IMPACT","outputs":[{"internalType":"uint256","name":"","type":"uint256"}],"stateMutability":"view","type":"function"},{"inputs":[],"name":"MIN_LIQUIDITY","outputs":[{"internalType":"uint256","name":"","type":"uint256"}],"stateMutability":"view","type":"function"},{"inputs":[],"name":"REWARD_DIFFERENTIAL","outputs":[{"internalType":"uint8","name":"","type":"uint8"}],"stateMutability":"view","type":"function"},{"inputs":[],"name":"REWARD_DIRECT","outputs":[{"internalType":"uint8","name":"","type":"uint8"}],"stateMutability":"view","type":"function"},{"inputs":[],"name":"REWARD_DYNAMIC","outputs":[{"internalType":"uint8","name":"","type":"uint8"}],"stateMutability":"view","type":"function"},{"inputs":[],"name":"REWARD_LEVEL","outputs":[{"internalType":"uint8","name":"","type":"uint8"}],"stateMutability":"view","type":"function"},{"inputs":[],"name":"REWARD_STATIC","outputs":[{"internalType":"uint8","name":"","type":"uint8"}],"stateMutability":"view","type":"function"},{"inputs":[],"name":"SECONDS_IN_UNIT","outputs":[{"internalType":"uint256","name":"","type":"uint256"}],"stateMutability":"view","type":"function"},{"inputs":[],"name":"UPGRADE_INTERFACE_VERSION","outputs":[{"internalType":"string","name":"","type":"string"}],"stateMutability":"view","type":"function"},{"inputs":[],"name":"buybackPercent","outputs":[{"internalType":"uint256","name":"","type":"uint256"}],"stateMutability":"view","type":"function"},{"inputs":[],"name":"buybackWallet","outputs":[{"internalType":"address","name":"","type":"address"}],"stateMutability":"view","type":"function"},{"inputs":[{"internalType":"uint256","name":"teamCount","type":"uint256"}],"name":"calculateLevel","outputs":[{"internalType":"uint256","name":"level","type":"uint256"},{"internalType":"uint256","name":"percent","type":"uint256"}],"stateMutability":"pure","type":"function"},{"inputs":[{"internalType":"address","name":"","type":"address"},{"internalType":"uint256","name":"","type":"uint256"}],"name":"directReferrals","outputs":[{"internalType":"address","name":"","type":"address"}],"stateMutability":"view","type":"function"},{"inputs":[],"name":"directRewardPercent","outputs":[{"internalType":"uint256","name":"","type":"uint256"}],"stateMutability":"view","type":"function"},{"inputs":[],"name":"emergencyPaused","outputs":[{"internalType":"bool","name":"","type":"bool"}],"stateMutability":"view","type":"function"},{"inputs":[{"internalType":"address","name":"user","type":"address"}],"name":"getDirectReferrals","outputs":[{"internalType":"address[]","name":"","type":"address[]"}],"stateMutability":"view","type":"function"},{"inputs":[{"internalType":"address","name":"user","type":"address"}],"name":"getUserLevel","outputs":[{"internalType":"uint256","name":"level","type":"uint256"},{"internalType":"uint256","name":"percent","type":"uint256"},{"internalType":"uint256","name":"teamCount","type":"uint256"}],"stateMutability":"view","type":"function"},{"inputs":[],"name":"jbcToken","outputs":[{"internalType":"contract IJBC","name":"","type":"address"}],"stateMutability":"view","type":"function"},{"inputs":[],"name":"lastBurnTime","outputs":[{"internalType":"uint256","name":"","type":"uint256"}],"stateMutability":"view","type":"function"},{"inputs":[],"name":"levelRewardPercent","outputs":[{"internalType":"uint256","name":"","type":"uint256"}],"stateMutability":"view","type":"function"},{"inputs":[],"name":"levelRewardPool","outputs":[{"internalType":"uint256","name":"","type":"uint256"}],"stateMutability":"view","type":"function"},{"inputs":[],"name":"liquidityEnabled","outputs":[{"internalType":"bool","name":"","type":"bool"}],"stateMutability":"view","type":"function"},{"inputs":[],"name":"lpInjectionPercent","outputs":[{"internalType":"uint256","name":"","type":"uint256"}],"stateMutability":"view","type":"function"},{"inputs":[],"name":"lpInjectionWallet","outputs":[{"internalType":"address","name":"","type":"address"}],"stateMutability":"view","type":"function"},{"inputs":[],"name":"marketingPercent","outputs":[{"internalType":"uint256","name":"","type":"uint256"}],"stateMutability":"view","type":"function"},{"inputs":[],"name":"marketingWallet","outputs":[{"internalType":"address","name":"","type":"address"}],"stateMutability":"view","type":"function"},{"inputs":[],"name":"mcToken","outputs":[{"internalType":"contract IERC20","name":"","type":"address"}],"stateMutability":"view","type":"function"},{"inputs":[],"name":"nextStakeId","outputs":[{"internalType":"uint256","name":"","type":"uint256"}],"stateMutability":"view","type":"function"},{"inputs":[],"name":"nextTicketId","outputs":[{"internalType":"uint256","name":"","type":"uint256"}],"stateMutability":"view","type":"function"},{"inputs":[],"name":"owner","outputs":[{"internalType":"address","name":"","type":"address"}],"stateMutability":"view","type":"function"},{"inputs":[],"name":"priceOracle","outputs":[{"internalType":"address","name":"","type":"address"}],"stateMutability":"view","type":"function"},{"inputs":[],"name":"proxiableUUID","outputs":[{"internalType":"bytes32","name":"","type":"bytes32"}],"stateMutability":"view","type":"function"},{"inputs":[],"name":"redeemEnabled","outputs":[{"internalType":"bool","name":"","type":"bool"}],"stateMutability":"view","type":"function"},{"inputs":[],"name":"redemptionFeePercent","outputs":[{"internalType":"uint256","name":"","type":"uint256"}],"stateMutability":"view","type":"function"},{"inputs":[],"name":"renounceOwnership","outputs":[],"stateMutability":"nonpayable","type":"function"},{"inputs":[{"internalType":"uint256","name":"","type":"uint256"}],"name":"stakeOwner","outputs":[{"internalType":"address","name":"","type":"address"}],"stateMutability":"view","type":"function"},{"inputs":[{"internalType":"uint256","name":"","type":"uint256"},{"internalType":"uint256","name":"","type":"uint256"}],"name":"stakePendingRewards","outputs":[{"internalType":"address","name":"upline","type":"address"},{"internalType":"uint256","name":"amount","type":"uint256"}],"stateMutability":"view","type":"function"},{"inputs":[],"name":"swapBuyTax","outputs":[{"internalType":"uint256","name":"","type":"uint256"}],"stateMutability":"view","type":"function"},{"inputs":[],"name":"swapReserveJBC","outputs":[{"internalType":"uint256","name":"","type":"uint256"}],"stateMutability":"view","type":"function"},{"inputs":[],"name":"swapReserveMC","outputs":[{"internalType":"uint256","name":"","type":"uint256"}],"stateMutability":"view","type":"function"},{"inputs":[],"name":"swapSellTax","outputs":[{"internalType":"uint256","name":"","type":"uint256"}],"stateMutability":"view","type":"function"},{"inputs":[],"name":"ticketFlexibilityDuration","outputs":[{"internalType":"uint256","name":"","type":"uint256"}],"stateMutability":"view","type":"function"},{"inputs":[{"internalType":"uint256","name":"","type":"uint256"}],"name":"ticketOwner","outputs":[{"internalType":"address","name":"","type":"address"}],"stateMutability":"view","type":"function"},{"inputs":[{"internalType":"uint256","name":"","type":"uint256"},{"internalType":"uint256","name":"","type":"uint256"}],"name":"ticketPendingRewards","outputs":[{"internalType":"address","name":"upline","type":"address"},{"internalType":"uint256","name":"amount","type":"uint256"}],"stateMutability":"view","type":"function"},{"inputs":[{"internalType":"address","name":"newOwner","type":"address"}],"name":"transferOwnership","outputs":[],"stateMutability":"nonpayable","type":"function"},{"inputs":[],"name":"treasuryPercent","outputs":[{"internalType":"uint256","name":"","type":"uint256"}],"stateMutability":"view","type":"function"},{"inputs":[],"name":"treasuryWallet","outputs":[{"internalType":"address","name":"","type":"address"}],"stateMutability":"view","type":"function"},{"inputs":[{"internalType":"address","name":"newImplementation","type":"address"},{"internalType":"bytes","name":"data","type":"bytes"}],"name":"upgradeToAndCall","outputs":[],"stateMutability":"payable","type":"function"},{"inputs":[{"internalType":"address","name":"","type":"address"}],"name":"userInfo","outputs":[{"internalType":"address","name":"referrer","type":"address"},{"internalType":"uint256","name":"activeDirects","type":"uint256"},{"internalType":"uint256","name":"teamCount","type":"uint256"},{"internalType":"uint256","name":"totalRevenue","type":"uint256"},{"internalType":"uint256","name":"currentCap","type":"uint256"},{"internalType":"bool","name":"isActive","type":"bool"},{"internalType":"uint256","name":"refundFeeAmount","type":"uint256"},{"internalType":"uint256","name":"teamTotalVolume","type":"uint256"},{"internalType":"uint256","name":"teamTotalCap","type":"uint256"},{"internalType":"uint256","name":"maxTicketAmount","type":"uint256"},{"internalType":"uint256","name":"maxSingleTicketAmount","type":"uint256"}],"stateMutability":"view","type":"function"},{"inputs":[{"internalType":"address","name":"","type":"address"},{"internalType":"uint256","name":"","type":"uint256"}],"name":"userStakes","outputs":[{"internalType":"uint256","name":"id","type":"uint256"},{"internalType":"uint256","name":"amount","type":"uint256"},{"internalType":"uint256","name":"startTime","type":"uint256"},{"internalType":"uint256","name":"cycleDays","type":"uint256"},{"internalType":"bool","name":"active","type":"bool"},{"internalType":"uint256","name":"paid","type":"uint256"}],"stateMutability":"view","type":"function"},{"inputs":[{"internalType":"address","name":"","type":"address"}],"name":"userTicket","outputs":[{"internalType":"uint256","name":"ticketId","type":"uint256"},{"internalType":"uint256","name":"amount","type":"uint256"},{"internalType":"uint256","name":"purchaseTime","type":"uint256"},{"internalType":"bool","name":"exited","type":"bool"}],"stateMutability":"view","type":"function"}],"evm":{"bytecode":{"linkReferences":{},"object":"60a0806040523461002a57306080526111ae9081610030823960805181818161098a0152610a580152f35b600080fdfe6080604081815260048036101561001557600080fd5b600092833560e01c90816304ef9d5814610efa5750806305ad393514610eab5780630e2be21014610e8f5780631427f61614610e745780631788513c14610e4b5780631959a00214610d9c5780631d0dac7614610d7d57806321923bde14610d2e57806321b77d6314610d0a5780632630c12f14610cdd57806327c830a914610cb957806327f082f414610c9a5780633dbd46bd14610c685780634626402b14610c3f578063488b5d9714610c235780634f1ef286146109dc57806352d1902d146109755780636031a52f146109565780636839b5fa146109395780636dd668271461091a578063715018a6146108c257806375506c96146108a357806375f0a8741461087a57806377a2a5401461085b578063813380cd1461082d5780638710bcaa146107ce57806388481b61146107b257806388fd4d331461078b5780638a859a851461076f5780638c0eaa48146107535780638da5cb5b1461071d5780639370b080146106fe57806395253992146106d6578063ac8f50aa1461067f578063ad3cb1cc146105e2578063b048a4bb146105be578063b5d5b5fa14610530578063b759936b14610511578063bd594dcf146104f2578063c2ff12fc146104c0578063ccf61944146104a1578063ceaa366d14610482578063d2c8e0e5146103d8578063d2f82536146103b1578063d8020a1814610392578063dce3dc1f14610365578063deab8aea1461033c578063dec7fa3b1461031d578063e3067449146102fe578063e4412f68146102db5763f2fde38b1461025457600080fd5b346102d75760203660031901126102d75761026d610f16565b9061027661107c565b6001600160a01b039182169283156102c157505060008051602061111983398151915280546001600160a01b031981168417909155166000805160206111598339815191528380a380f35b51631e4fbdf760e01b8152908101849052602490fd5b8280fd5b5050346102fa57816003193601126102fa576020906009549051908152f35b5080fd5b5050346102fa57816003193601126102fa57602090601a549051908152f35b5050346102fa57816003193601126102fa57602090600c549051908152f35b5050346102fa57816003193601126102fa5760055490516001600160a01b039091168152602090f35b50823461038f57602036600319011261038f57506103839035610fcd565b82519182526020820152f35b80fd5b5050346102fa57816003193601126102fa576020906008549051908152f35b5050346102fa57816003193601126102fa5760209060ff60155460081c1690519015158152f35b5050346102fa576020806003193601126102d7576001600160a01b0392836103fe610f16565b1681526012825282812091835190818185549182815201908195855282852090855b81811061046c5750505082610436910383610f31565b8451948186019282875251809352850193925b8281106104565785850386f35b8351871685529381019392810192600101610449565b82548a1684529284019260019283019201610420565b5050346102fa57816003193601126102fa57602090600a549051908152f35b5050346102fa57816003193601126102fa576020906006549051908152f35b50346102d75760203660031901126102d757358252601b6020908152918190205490516001600160a01b039091168152f35b5050346102fa57816003193601126102fa576020906007549051908152f35b5050346102fa57816003193601126102fa57602090601e549051908152f35b5090346102d757806003193601126102d75761054a610f16565b6001600160a01b031683526011602052808320805460243591908210156105ba5760208560069260c0975220910201805492600182015492600283015490600560ff60038601549486015416940154948151968752602087015285015260608401521515608083015260a0820152f35b8480fd5b5050346102fa57816003193601126102fa5760209060ff6015541690519015158152f35b50346102d757826003193601126102d757815190818301906001600160401b0382118383101761066c5750825260058152602090640352e302e360dc1b6020820152825193849260208452825192836020860152825b84811061065657505050828201840152601f01601f19168101030190f35b8181018301518882018801528795508201610638565b634e487b7160e01b855260419052602484fd5b5050346102fa5761068f36610f85565b908352601c60205281832080548210156106d257906106ad91610f9b565b50805460019091015491516001600160a01b0390911681526020810191909152604090f35b8380fd5b5050346102fa57816003193601126102fa57905490516001600160a01b039091168152602090f35b5050346102fa57816003193601126102fa57602090600e549051908152f35b5050346102fa57816003193601126102fa576000805160206111198339815191525490516001600160a01b039091168152602090f35b5050346102fa57816003193601126102fa576020905160038152f35b5050346102fa57816003193601126102fa576020905160018152f35b50346102d757826003193601126102d7575490516001600160a01b03909116815260209150f35b5090346102d757826003193601126102d7576020925051908152f35b5050346102fa5760203660031901126102fa5760809181906001600160a01b036107f6610f16565b1681526010602052209081549160018101549160ff6003600284015493015416928151948552602085015283015215156060820152f35b5050346102fa5761083d36610f85565b908352601360205281832080548210156106d257906106ad91610f9b565b5050346102fa57816003193601126102fa576020906016549051908152f35b5050346102fa57816003193601126102fa5760025490516001600160a01b039091168152602090f35b5050346102fa57816003193601126102fa576020906019549051908152f35b833461038f578060031936011261038f576108db61107c565b60008051602061111983398151915280546001600160a01b0319811690915581906001600160a01b03166000805160206111598339815191528280a380f35b5050346102fa57816003193601126102fa576020906014549051908152f35b5050346102fa57816003193601126102fa57602090516103e88152f35b5050346102fa57816003193601126102fa576020906018549051908152f35b50913461038f578060031936011261038f57507f00000000000000000000000000000000000000000000000000000000000000006001600160a01b031630036109cf57602090516000805160206111398339815191528152f35b5163703e46dd60e11b8152fd5b5090806003193601126102d7576109f1610f16565b60249390919084356001600160401b0381116102fa57366023820112156102fa5780850135610a1f81610f6a565b94610a2c85519687610f31565b81865260209182870193368a8383010111610c1f578186928b8693018737880101526001600160a01b037f00000000000000000000000000000000000000000000000000000000000000008116308114908115610c03575b50610bf357610a9161107c565b81169585516352d1902d60e01b815283818a818b5afa869181610bc0575b50610acb575050505050505191634c9c8ce360e01b8352820152fd5b9088888894938c60008051602061113983398151915291828103610bab5750853b15610b97575080546001600160a01b031916821790558451889392917fbc7cd75a20ee27fd9adebab32041f755214dbc6bffa90cc0225b39da2e5c2d3b8580a2825115610b79575050610b6b9582915190845af4913d15610b6f573d610b5d610b5482610f6a565b92519283610f31565b81528581943d92013e6110b5565b5080f35b50606092506110b5565b955095505050505034610b8b57505080f35b63b398979f60e01b8152fd5b8651634c9c8ce360e01b8152808501849052fd5b8751632a87526960e21b815280860191909152fd5b9091508481813d8311610bec575b610bd88183610f31565b81010312610be857519038610aaf565b8680fd5b503d610bce565b855163703e46dd60e11b81528890fd5b9050816000805160206111398339815191525416141538610a84565b8580fd5b5050346102fa57816003193601126102fa5760209051603c8152f35b5050346102fa57816003193601126102fa5760035490516001600160a01b039091168152602090f35b50346102d75760203660031901126102d757358252601d6020908152918190205490516001600160a01b039091168152f35b5050346102fa57816003193601126102fa57602090600d549051908152f35b5050346102fa57816003193601126102fa5760209060ff604e541690519015158152f35b5050346102fa57816003193601126102fa57604e54905160089190911c6001600160a01b03168152602090f35b5050346102fa57816003193601126102fa5760209051683635c9adc5dea000008152f35b5050346102fa5760203660031901126102fa5760609160029082906001600160a01b03610d59610f16565b168152600f602052200154610d6d81610fcd565b8351918252602082015291820152f35b5050346102fa57816003193601126102fa576020906017549051908152f35b50346102d75760203660031901126102d757610160926001600160a01b0390839082610dc6610f16565b168152600f60205220908154169260018201549260028301549060038401549084015460ff60058601541690600686015492600787015494600888015496600a60098a01549901549981519b8c5260208c01528a015260608901526080880152151560a087015260c086015260e0850152610100840152610120830152610140820152f35b5050346102fa57816003193601126102fa5760015490516001600160a01b039091168152602090f35b5050346102fa57816003193601126102fa5751908152602090f35b5050346102fa57816003193601126102fa576020905160028152f35b5050346102fa57806003193601126102fa57610ec5610f16565b6001600160a01b0390811683526012602052818320805460243591908210156105ba5784526020938490200154915191168152f35b8490346102fa57816003193601126102fa57602090600b548152f35b600435906001600160a01b0382168203610f2c57565b600080fd5b601f909101601f19168101906001600160401b03821190821017610f5457604052565b634e487b7160e01b600052604160045260246000fd5b6001600160401b038111610f5457601f01601f191660200190565b6040906003190112610f2c576004359060243590565b8054821015610fb75760005260206000209060011b0190600090565b634e487b7160e01b600052603260045260246000fd5b620186a08110156110735761753081101561106a5761271081101561106157610bb8811015611058576103e881101561104f5761012c81101561104657606481101561103d57601e81101561103457600a111561102c57600090600090565b600190600590565b50600290600a90565b50600390600f90565b50600490601490565b50600590601990565b50600690601e90565b50600790602390565b50600890602890565b50600990602d90565b600080516020611119833981519152546001600160a01b0316330361109d57565b60405163118cdaa760e01b8152336004820152602490fd5b906110dc57508051156110ca57602081519101fd5b60405163d6bda27560e01b8152600490fd5b8151158061110f575b6110ed575090565b604051639996b31560e01b81526001600160a01b039091166004820152602490fd5b50803b156110e556fe9016d09d72d40fdae2fd8ceac6b6234c7706214fd39c1cd1e609a0528c199300360894a13ba1a3210667c828492db98dca3e2076cc3735a920a3ca505d382bbc8be0079c531659141344cd1fd0a4f28419497f9722a3daafe3b4186f6b6457e0a2646970667358221220b38a6762dae639bf1388ddcc2f49e4c381e75af440098c6f6b6d141cbe471c3364736f6c63430008160033","opcodes":"PUSH1 0xA0 DUP1 PUSH1 0x40 MSTORE CALLVALUE PUSH2 0x2A JUMPI ADDRESS PUSH1 0x80 MSTORE PUSH2 0x11AE SWAP1 DUP2 PUSH2 0x30 DUP3 CODECOPY PUSH1 0x80 MLOAD DUP2 DUP2 DUP2 PUSH2 0x98A ADD MSTORE PUSH2 0xA58 ADD MSTORE RETURN JUMPDEST PUSH1 0x0 DUP1 REVERT INVALID PUSH1 0x80 PUSH1 0x40 DUP2 DUP2 MSTORE PUSH1 0x4 DUP1 CALLDATASIZE LT ISZERO PUSH2 0x15 JUMPI PUSH1 0x0 DUP1 REVERT JUMPDEST PUSH1 0x0 SWAP3 DUP4 CALLDATALOAD PUSH1 0xE0 SHR SWAP1 DUP2 PUSH4 0x4EF9D58 EQ PUSH2 0xEFA JUMPI POP DUP1 PUSH4 0x5AD3935 EQ PUSH2 0xEAB JUMPI DUP1 PUSH4 0xE2BE210 EQ PUSH2 0xE8F JUMPI DUP1 PUSH4 0x1427F616 EQ PUSH2 0xE74 JUMPI DUP1 PUSH4 0x1788513C EQ PUSH2 0xE4B JUMPI DUP1 PUSH4 0x1959A002 EQ PUSH2 0xD9C JUMPI DUP1 PUSH4 0x1D0DAC76 EQ PUSH2 0xD7D JUMPI DUP1 PUSH4 0x21923BDE EQ PUSH2 0xD2E JUMPI DUP1 PUSH4 0x21B77D63 EQ PUSH2 0xD0A JUMPI DUP1 PUSH4 0x2630C12F EQ PUSH2 0xCDD JUMPI DUP1 PUSH4 0x27C830A9 EQ PUSH2 0xCB9 JUMPI DUP1 PUSH4 0x27F082F4 EQ PUSH2 0xC9A JUMPI DUP1 PUSH4 0x3DBD46BD EQ PUSH2 0xC68 JUMPI DUP1 PUSH4 0x4626402B EQ PUSH2 0xC3F JUMPI DUP1 PUSH4 0x488B5D97 EQ PUSH2 0xC23 JUMPI DUP1 PUSH4 0x4F1EF286 EQ PUSH2 0x9DC JUMPI DUP1 PUSH4 0x52D1902D EQ PUSH2 0x975 JUMPI DUP1 PUSH4 0x6031A52F EQ PUSH2 0x956 JUMPI DUP1 PUSH4 0x6839B5FA EQ PUSH2 0x939 JUMPI DUP1 PUSH4 0x6DD66827 EQ PUSH2 0x91A JUMPI DUP1 PUSH4 0x715018A6 EQ PUSH2 0x8C2 JUMPI DUP1 PUSH4 0x75506C96 EQ PUSH2 0x8A3 JUMPI DUP1 PUSH4 0x75F0A874 EQ PUSH2 0x87A JUMPI DUP1 PUSH4 0x77A2A540 EQ PUSH2 0x85B JUMPI DUP1 PUSH4 0x813380CD EQ PUSH2 0x82D JUMPI DUP1 PUSH4 0x8710BCAA EQ PUSH2 0x7CE JUMPI DUP1 PUSH4 0x88481B61 EQ PUSH2 0x7B2 JUMPI DUP1 PUSH4 0x88FD4D33 EQ PUSH2 0x78B JUMPI DUP1 PUSH4 0x8A859A85 EQ PUSH2 0x76F JUMPI DUP1 PUSH4 0x8C0EAA48 EQ PUSH2 0x753 JUMPI DUP1 PUSH4 0x8DA5CB5B EQ PUSH2 0x71D JUMPI DUP1 PUSH4 0x9370B080 EQ PUSH2 0x6FE JUMPI DUP1 PUSH4 0x95253992 EQ PUSH2 0x6D6 JUMPI DUP1 PUSH4 0xAC8F50AA EQ PUSH2 0x67F JUMPI DUP1 PUSH4 0xAD3CB1CC EQ PUSH2 0x5E2 JUMPI DUP1 PUSH4 0xB048A4BB EQ PUSH2 0x5BE JUMPI DUP1 PUSH4 0xB5D5B5FA EQ PUSH2 0x530 JUMPI DUP1 PUSH4 0xB759936B EQ PUSH2 0x511 JUMPI DUP1 PUSH4 0xBD594DCF EQ PUSH2 0x4F2 JUMPI DUP1 PUSH4 0xC2FF12FC EQ PUSH2 0x4C0 JUMPI DUP1 PUSH4 0xCCF61944 EQ PUSH2 0x4A1 JUMPI DUP1 PUSH4 0xCEAA366D EQ PUSH2 0x482 JUMPI DUP1 PUSH4 0xD2C8E0E5 EQ PUSH2 0x3D8 JUMPI DUP1 PUSH4 0xD2F82536 EQ PUSH2 0x3B1 JUMPI DUP1 PUSH4 0xD8020A18 EQ PUSH2 0x392 JUMPI DUP1 PUSH4 0xDCE3DC1F EQ PUSH2 0x365 JUMPI DUP1 PUSH4 0xDEAB8AEA EQ PUSH2 0x33C JUMPI DUP1 PUSH4 0xDEC7FA3B EQ PUSH2 0x31D JUMPI DUP1 PUSH4 0xE3067449 EQ PUSH2 0x2FE JUMPI DUP1 PUSH4 0xE4412F68 EQ PUSH2 0x2DB JUMPI PUSH4 0xF2FDE38B EQ PUSH2 0x254 JUMPI PUSH1 0x0 DUP1 REVERT JUMPDEST CALLVALUE PUSH2 0x2D7 JUMPI PUSH1 0x20 CALLDATASIZE PUSH1 0x3 NOT ADD SLT PUSH2 0x2D7 JUMPI PUSH2 0x26D PUSH2 0xF16 JUMP JUMPDEST SWAP1 PUSH2 0x276 PUSH2 0x107C JUMP JUMPDEST PUSH1 0x1 PUSH1 0x1 PUSH1 0xA0 SHL SUB SWAP2 DUP3 AND SWAP3 DUP4 ISZERO PUSH2 0x2C1 JUMPI POP POP PUSH1 0x0 DUP1 MLOAD PUSH1 0x20 PUSH2 0x1119 DUP4 CODECOPY DUP2 MLOAD SWAP2 MSTORE DUP1 SLOAD PUSH1 0x1 PUSH1 0x1 PUSH1 0xA0 SHL SUB NOT DUP2 AND DUP5 OR SWAP1 SWAP2 SSTORE AND PUSH1 0x0 DUP1 MLOAD PUSH1 0x20 PUSH2 0x1159 DUP4 CODECOPY DUP2 MLOAD SWAP2 MSTORE DUP4 DUP1 LOG3 DUP1 RETURN JUMPDEST MLOAD PUSH4 0x1E4FBDF7 PUSH1 0xE0 SHL DUP2 MSTORE SWAP1 DUP2 ADD DUP5 SWAP1 MSTORE PUSH1 0x24 SWAP1 REVERT JUMPDEST DUP3 DUP1 REVERT JUMPDEST POP POP CALLVALUE PUSH2 0x2FA JUMPI DUP2 PUSH1 0x3 NOT CALLDATASIZE ADD SLT PUSH2 0x2FA JUMPI PUSH1 0x20 SWAP1 PUSH1 0x9 SLOAD SWAP1 MLOAD SWAP1 DUP2 MSTORE RETURN JUMPDEST POP DUP1 REVERT JUMPDEST POP POP CALLVALUE PUSH2 0x2FA JUMPI DUP2 PUSH1 0x3 NOT CALLDATASIZE ADD SLT PUSH2 0x2FA JUMPI PUSH1 0x20 SWAP1 PUSH1 0x1A SLOAD SWAP1 MLOAD SWAP1 DUP2 MSTORE RETURN JUMPDEST POP POP CALLVALUE PUSH2 0x2FA JUMPI DUP2 PUSH1 0x3 NOT CALLDATASIZE ADD SLT PUSH2 0x2FA JUMPI PUSH1 0x20 SWAP1 PUSH1 0xC SLOAD SWAP1 MLOAD SWAP1 DUP2 MSTORE RETURN JUMPDEST POP POP CALLVALUE PUSH2 0x2FA JUMPI DUP2 PUSH1 0x3 NOT CALLDATASIZE ADD SLT PUSH2 0x2FA JUMPI PUSH1 0x5 SLOAD SWAP1 MLOAD PUSH1 0x1 PUSH1 0x1 PUSH1 0xA0 SHL SUB SWAP1 SWAP2 AND DUP2 MSTORE PUSH1 0x20 SWAP1 RETURN JUMPDEST POP DUP3 CALLVALUE PUSH2 0x38F JUMPI PUSH1 0x20 CALLDATASIZE PUSH1 0x3 NOT ADD SLT PUSH2 0x38F JUMPI POP PUSH2 0x383 SWAP1 CALLDATALOAD PUSH2 0xFCD JUMP JUMPDEST DUP3 MLOAD SWAP2 DUP3 MSTORE PUSH1 0x20 DUP3 ADD MSTORE RETURN JUMPDEST DUP1 REVERT JUMPDEST POP POP CALLVALUE PUSH2 0x2FA JUMPI DUP2 PUSH1 0x3 NOT CALLDATASIZE ADD SLT PUSH2 0x2FA JUMPI PUSH1 0x20 SWAP1 PUSH1 0x8 SLOAD SWAP1 MLOAD SWAP1 DUP2 MSTORE RETURN JUMPDEST POP POP CALLVALUE PUSH2 0x2FA JUMPI DUP2 PUSH1 0x3 NOT CALLDATASIZE ADD SLT PUSH2 0x2FA JUMPI PUSH1 0x20 SWAP1 PUSH1 0xFF PUSH1 0x15 SLOAD PUSH1 0x8 SHR AND SWAP1 MLOAD SWAP1 ISZERO ISZERO DUP2 MSTORE RETURN JUMPDEST POP POP CALLVALUE PUSH2 0x2FA JUMPI PUSH1 0x20 DUP1 PUSH1 0x3 NOT CALLDATASIZE ADD SLT PUSH2 0x2D7 JUMPI PUSH1 0x1 PUSH1 0x1 PUSH1 0xA0 SHL SUB SWAP3 DUP4 PUSH2 0x3FE PUSH2 0xF16 JUMP JUMPDEST AND DUP2 MSTORE PUSH1 0x12 DUP3 MSTORE DUP3 DUP2 KECCAK256 SWAP2 DUP4 MLOAD SWAP1 DUP2 DUP2 DUP6 SLOAD SWAP2 DUP3 DUP2 MSTORE ADD SWAP1 DUP2 SWAP6 DUP6 MSTORE DUP3 DUP6 KECCAK256 SWAP1 DUP6 JUMPDEST DUP2 DUP2 LT PUSH2 0x46C JUMPI POP POP POP DUP3 PUSH2 0x436 SWAP2 SUB DUP4 PUSH2 0xF31 JUMP JUMPDEST DUP5 MLOAD SWAP5 DUP2 DUP7 ADD SWAP3 DUP3 DUP8 MSTORE MLOAD DUP1 SWAP4 MSTORE DUP6 ADD SWAP4 SWAP3 JUMPDEST DUP3 DUP2 LT PUSH2 0x456 JUMPI DUP6 DUP6 SUB DUP7 RETURN JUMPDEST DUP4 MLOAD DUP8 AND DUP6 MSTORE SWAP4 DUP2 ADD SWAP4 SWAP3 DUP2 ADD SWAP3 PUSH1 0x1 ADD PUSH2 0x449 JUMP JUMPDEST DUP3 SLOAD DUP11 AND DUP5 MSTORE SWAP3 DUP5 ADD SWAP3 PUSH1 0x1 SWAP3 DUP4 ADD SWAP3 ADD PUSH2 0x420 JUMP JUMPDEST POP POP CALLVALUE PUSH2 0x2FA JUMPI DUP2 PUSH1 0x3 NOT CALLDATASIZE ADD SLT PUSH2 0x2FA JUMPI PUSH1 0x20 SWAP1 PUSH1 0xA SLOAD SWAP1 MLOAD SWAP1 DUP2 MSTORE RETURN JUMPDEST POP POP CALLVALUE PUSH2 0x2FA JUMPI DUP2 PUSH1 0x3 NOT CALLDATASIZE ADD SLT PUSH2 0x2FA JUMPI PUSH1 0x20 SWAP1 PUSH1 0x6 SLOAD SWAP1 MLOAD SWAP1 DUP2 MSTORE RETURN JUMPDEST POP CALLVALUE PUSH2 0x2D7 JUMPI PUSH1 0x20 CALLDATASIZE PUSH1 0x3 NOT ADD SLT PUSH2 0x2D7 JUMPI CALLDATALOAD DUP3 MSTORE PUSH1 0x1B PUSH1 0x20 SWAP1 DUP2 MSTORE SWAP2 DUP2 SWAP1 KECCAK256 SLOAD SWAP1 MLOAD PUSH1 0x1 PUSH1 0x1 PUSH1 0xA0 SHL SUB SWAP1 SWAP2 AND DUP2 MSTORE RETURN JUMPDEST POP POP CALLVALUE PUSH2 0x2FA JUMPI DUP2 PUSH1 0x3 NOT CALLDATASIZE ADD SLT PUSH2 0x2FA JUMPI PUSH1 0x20 SWAP1 PUSH1 0x7 SLOAD SWAP1 MLOAD SWAP1 DUP2 MSTORE RETURN JUMPDEST POP POP CALLVALUE PUSH2 0x2FA JUMPI DUP2 PUSH1 0x3 NOT CALLDATASIZE ADD SLT PUSH2 0x2FA JUMPI PUSH1 0x20 SWAP1 PUSH1 0x1E SLOAD SWAP1 MLOAD SWAP1 DUP2 MSTORE RETURN JUMPDEST POP SWAP1 CALLVALUE PUSH2 0x2D7 JUMPI DUP1 PUSH1 0x3 NOT CALLDATASIZE ADD SLT PUSH2 0x2D7 JUMPI PUSH2 0x54A PUSH2 0xF16 JUMP JUMPDEST PUSH1 0x1 PUSH1 0x1 PUSH1 0xA0 SHL SUB AND DUP4 MSTORE PUSH1 0x11 PUSH1 0x20 MSTORE DUP1 DUP4 KECCAK256 DUP1 SLOAD PUSH1 0x24 CALLDATALOAD SWAP2 SWAP1 DUP3 LT ISZERO PUSH2 0x5BA JUMPI PUSH1 0x20 DUP6 PUSH1 0x6 SWAP3 PUSH1 0xC0 SWAP8 MSTORE KECCAK256 SWAP2 MUL ADD DUP1 SLOAD SWAP3 PUSH1 0x1 DUP3 ADD SLOAD SWAP3 PUSH1 0x2 DUP4 ADD SLOAD SWAP1 PUSH1 0x5 PUSH1 0xFF PUSH1 0x3 DUP7 ADD SLOAD SWAP5 DUP7 ADD SLOAD AND SWAP5 ADD SLOAD SWAP5 DUP2 MLOAD SWAP7 DUP8 MSTORE PUSH1 0x20 DUP8 ADD MSTORE DUP6 ADD MSTORE PUSH1 0x60 DUP5 ADD MSTORE ISZERO ISZERO PUSH1 0x80 DUP4 ADD MSTORE PUSH1 0xA0 DUP3 ADD MSTORE RETURN JUMPDEST DUP5 DUP1 REVERT JUMPDEST POP POP CALLVALUE PUSH2 0x2FA JUMPI DUP2 PUSH1 0x3 NOT CALLDATASIZE ADD SLT PUSH2 0x2FA JUMPI PUSH1 0x20 SWAP1 PUSH1 0xFF PUSH1 0x15 SLOAD AND SWAP1 MLOAD SWAP1 ISZERO ISZERO DUP2 MSTORE RETURN JUMPDEST POP CALLVALUE PUSH2 0x2D7 JUMPI DUP3 PUSH1 0x3 NOT CALLDATASIZE ADD SLT PUSH2 0x2D7 JUMPI DUP2 MLOAD SWAP1 DUP2 DUP4 ADD SWAP1 PUSH1 0x1 PUSH1 0x1 PUSH1 0x40 SHL SUB DUP3 GT DUP4 DUP4 LT OR PUSH2 0x66C JUMPI POP DUP3 MSTORE PUSH1 0x5 DUP2 MSTORE PUSH1 0x20 SWAP1 PUSH5 0x352E302E3 PUSH1 0xDC SHL PUSH1 0x20 DUP3 ADD MSTORE DUP3 MLOAD SWAP4 DUP5 SWAP3 PUSH1 0x20 DUP5 MSTORE DUP3 MLOAD SWAP3 DUP4 PUSH1 0x20 DUP7 ADD MSTORE DUP3 JUMPDEST DUP5 DUP2 LT PUSH2 0x656 JUMPI POP POP POP DUP3 DUP3 ADD DUP5 ADD MSTORE PUSH1 0x1F ADD PUSH1 0x1F NOT AND DUP2 ADD SUB ADD SWAP1 RETURN JUMPDEST DUP2 DUP2 ADD DUP4 ADD MLOAD DUP9 DUP3 ADD DUP9 ADD MSTORE DUP8 SWAP6 POP DUP3 ADD PUSH2 0x638 JUMP JUMPDEST PUSH4 0x4E487B71 PUSH1 0xE0 SHL DUP6 MSTORE PUSH1 0x41 SWAP1 MSTORE PUSH1 0x24 DUP5 REVERT JUMPDEST POP POP CALLVALUE PUSH2 0x2FA JUMPI PUSH2 0x68F CALLDATASIZE PUSH2 0xF85 JUMP JUMPDEST SWAP1 DUP4 MSTORE PUSH1 0x1C PUSH1 0x20 MSTORE DUP2 DUP4 KECCAK256 DUP1 SLOAD DUP3 LT ISZERO PUSH2 0x6D2 JUMPI SWAP1 PUSH2 0x6AD SWAP2 PUSH2 0xF9B JUMP JUMPDEST POP DUP1 SLOAD PUSH1 0x1 SWAP1 SWAP2 ADD SLOAD SWAP2 MLOAD PUSH1 0x1 PUSH1 0x1 PUSH1 0xA0 SHL SUB SWAP1 SWAP2 AND DUP2 MSTORE PUSH1 0x20 DUP2 ADD SWAP2 SWAP1 SWAP2 MSTORE PUSH1 0x40 SWAP1 RETURN JUMPDEST DUP4 DUP1 REVERT JUMPDEST POP POP CALLVALUE PUSH2 0x2FA JUMPI DUP2 PUSH1 0x3 NOT CALLDATASIZE ADD SLT PUSH2 0x2FA JUMPI SWAP1 SLOAD SWAP1 MLOAD PUSH1 0x1 PUSH1 0x1 PUSH1 0xA0 SHL SUB SWAP1 SWAP2 AND DUP2 MSTORE PUSH1 0x20 SWAP1 RETURN JUMPDEST POP POP CALLVALUE PUSH2 0x2FA JUMPI DUP2 PUSH1 0x3 NOT CALLDATASIZE ADD SLT PUSH2 0x2FA JUMPI PUSH1 0x20 SWAP1 PUSH1 0xE SLOAD SWAP1 MLOAD SWAP1 DUP2 MSTORE RETURN JUMPDEST POP POP CALLVALUE PUSH2 0x2FA JUMPI DUP2 PUSH1 0x3 NOT CALLDATASIZE ADD SLT PUSH2 0x2FA JUMPI PUSH1 0x0 DUP1 MLOAD PUSH1 0x20 PUSH2 0x1119 DUP4 CODECOPY DUP2 MLOAD SWAP2 MSTORE SLOAD SWAP1 MLOAD PUSH1 0x1 PUSH1 0x1 PUSH1 0xA0 SHL SUB SWAP1 SWAP2 AND DUP2 MSTORE PUSH1 0x20 SWAP1 RETURN JUMPDEST POP POP CALLVALUE PUSH2 0x2FA JUMPI DUP2 PUSH1 0x3 NOT CALLDATASIZE ADD SLT PUSH2 0x2FA JUMPI PUSH1 0x20 SWAP1 MLOAD PUSH1 0x3 DUP2 MSTORE RETURN JUMPDEST POP POP CALLVALUE PUSH2 0x2FA JUMPI DUP2 PUSH1 0x3 NOT CALLDATASIZE ADD SLT PUSH2 0x2FA JUMPI PUSH1 0x20 SWAP1 MLOAD PUSH1 0x1 DUP2 MSTORE RETURN JUMPDEST POP CALLVALUE PUSH2 0x2D7 JUMPI DUP3 PUSH1 0x3 NOT CALLDATASIZE ADD SLT PUSH2 0x2D7 JUMPI SLOAD SWAP1 MLOAD PUSH1 0x1 PUSH1 0x1 PUSH1 0xA0 SHL SUB SWAP1 SWAP2 AND DUP2 MSTORE PUSH1 0x20 SWAP2 POP RETURN JUMPDEST POP SWAP1 CALLVALUE PUSH2 0x2D7 JUMPI DUP3 PUSH1 0x3 NOT CALLDATASIZE ADD SLT PUSH2 0x2D7 JUMPI PUSH1 0x20 SWAP3 POP MLOAD SWAP1 DUP2 MSTORE RETURN JUMPDEST POP POP CALLVALUE PUSH2 0x2FA JUMPI PUSH1 0x20 CALLDATASIZE PUSH1 0x3 NOT ADD SLT PUSH2 0x2FA JUMPI PUSH1 0x80 SWAP2 DUP2 SWAP1 PUSH1 0x1 PUSH1 0x1 PUSH1 0xA0 SHL SUB PUSH2 0x7F6 PUSH2 0xF16 JUMP JUMPDEST AND DUP2 MSTORE PUSH1 0x10 PUSH1 0x20 MSTORE KECCAK256 SWAP1 DUP2 SLOAD SWAP2 PUSH1 0x1 DUP2 ADD SLOAD SWAP2 PUSH1 0xFF PUSH1 0x3 PUSH1 0x2 DUP5 ADD SLOAD SWAP4 ADD SLOAD AND SWAP3 DUP2 MLOAD SWAP5 DUP6 MSTORE PUSH1 0x20 DUP6 ADD MSTORE DUP4 ADD MSTORE ISZERO ISZERO PUSH1 0x60 DUP3 ADD MSTORE RETURN JUMPDEST POP POP CALLVALUE PUSH2 0x2FA JUMPI PUSH2 0x83D CALLDATASIZE PUSH2 0xF85 JUMP JUMPDEST SWAP1 DUP4 MSTORE PUSH1 0x13 PUSH1 0x20 MSTORE DUP2 DUP4 KECCAK256 DUP1 SLOAD DUP3 LT ISZERO PUSH2 0x6D2 JUMPI SWAP1 PUSH2 0x6AD SWAP2 PUSH2 0xF9B JUMP JUMPDEST POP POP CALLVALUE PUSH2 0x2FA JUMPI DUP2 PUSH1 0x3 NOT CALLDATASIZE ADD SLT PUSH2 0x2FA JUMPI PUSH1 0x20 SWAP1 PUSH1 0x16 SLOAD SWAP1 MLOAD SWAP1 DUP2 MSTORE RETURN JUMPDEST POP POP CALLVALUE PUSH2 0x2FA JUMPI DUP2 PUSH1 0x3 NOT CALLDATASIZE ADD SLT PUSH2 0x2FA JUMPI PUSH1 0x2 SLOAD SWAP1 MLOAD PUSH1 0x1 PUSH1 0x1 PUSH1 0xA0 SHL SUB SWAP1 SWAP2 AND DUP2 MSTORE PUSH1 0x20 SWAP1 RETURN JUMPDEST POP POP CALLVALUE PUSH2 0x2FA JUMPI DUP2 PUSH1 0x3 NOT CALLDATASIZE ADD SLT PUSH2 0x2FA JUMPI PUSH1 0x20 SWAP1 PUSH1 0x19 SLOAD SWAP1 MLOAD SWAP1 DUP2 MSTORE RETURN JUMPDEST DUP4 CALLVALUE PUSH2 0x38F JUMPI DUP1 PUSH1 0x3 NOT CALLDATASIZE ADD SLT PUSH2 0x38F JUMPI PUSH2 0x8DB PUSH2 0x107C JUMP JUMPDEST PUSH1 0x0 DUP1 MLOAD PUSH1 0x20 PUSH2 0x1119 DUP4 CODECOPY DUP2 MLOAD SWAP2 MSTORE DUP1 SLOAD PUSH1 0x1 PUSH1 0x1 PUSH1 0xA0 SHL SUB NOT DUP2 AND SWAP1 SWAP2 SSTORE DUP2 SWAP1 PUSH1 0x1 PUSH1 0x1 PUSH1 0xA0 SHL SUB AND PUSH1 0x0 DUP1 MLOAD PUSH1 0x20 PUSH2 0x1159 DUP4 CODECOPY DUP2 MLOAD SWAP2 MSTORE DUP3 DUP1 LOG3 DUP1 RETURN JUMPDEST POP POP CALLVALUE PUSH2 0x2FA JUMPI DUP2 PUSH1 0x3 NOT CALLDATASIZE ADD SLT PUSH2 0x2FA JUMPI PUSH1 0x20 SWAP1 PUSH1 0x14 SLOAD SWAP1 MLOAD SWAP1 DUP2 MSTORE RETURN JUMPDEST POP POP CALLVALUE PUSH2 0x2FA JUMPI DUP2 PUSH1 0x3 NOT CALLDATASIZE ADD SLT PUSH2 0x2FA JUMPI PUSH1 0x20 SWAP1 MLOAD PUSH2 0x3E8 DUP2 MSTORE RETURN JUMPDEST POP POP CALLVALUE PUSH2 0x2FA JUMPI DUP2 PUSH1 0x3 NOT CALLDATASIZE ADD SLT PUSH2 0x2FA JUMPI PUSH1 0x20 SWAP1 PUSH1 0x18 SLOAD SWAP1 MLOAD SWAP1 DUP2 MSTORE RETURN JUMPDEST POP SWAP2 CALLVALUE PUSH2 0x38F JUMPI DUP1 PUSH1 0x3 NOT CALLDATASIZE ADD SLT PUSH2 0x38F JUMPI POP PUSH32 0x0 PUSH1 0x1 PUSH1 0x1 PUSH1 0xA0 SHL SUB AND ADDRESS SUB PUSH2 0x9CF JUMPI PUSH1 0x20 SWAP1 MLOAD PUSH1 0x0 DUP1 MLOAD PUSH1 0x20 PUSH2 0x1139 DUP4 CODECOPY DUP2 MLOAD SWAP2 MSTORE DUP2 MSTORE RETURN JUMPDEST MLOAD PUSH4 0x703E46DD PUSH1 0xE1 SHL DUP2 MSTORE REVERT JUMPDEST POP SWAP1 DUP1 PUSH1 0x3 NOT CALLDATASIZE ADD SLT PUSH2 0x2D7 JUMPI PUSH2 0x9F1 PUSH2 0xF16 JUMP JUMPDEST PUSH1 0x24 SWAP4 SWAP1 SWAP2 SWAP1 DUP5 CALLDATALOAD PUSH1 0x1 PUSH1 0x1 PUSH1 0x40 SHL SUB DUP2 GT PUSH2 0x2FA JUMPI CALLDATASIZE PUSH1 0x23 DUP3 ADD SLT ISZERO PUSH2 0x2FA JUMPI DUP1 DUP6 ADD CALLDATALOAD PUSH2 0xA1F DUP2 PUSH2 0xF6A JUMP JUMPDEST SWAP5 PUSH2 0xA2C DUP6 MLOAD SWAP7 DUP8 PUSH2 0xF31 JUMP JUMPDEST DUP2 DUP7 MSTORE PUSH1 0x20 SWAP2 DUP3 DUP8 ADD SWAP4 CALLDATASIZE DUP11 DUP4 DUP4 ADD ADD GT PUSH2 0xC1F JUMPI DUP2 DUP7 SWAP3 DUP12 DUP7 SWAP4 ADD DUP8 CALLDATACOPY DUP9 ADD ADD MSTORE PUSH1 0x1 PUSH1 0x1 PUSH1 0xA0 SHL SUB PUSH32 0x0 DUP2 AND ADDRESS DUP2 EQ SWAP1 DUP2 ISZERO PUSH2 0xC03 JUMPI JUMPDEST POP PUSH2 0xBF3 JUMPI PUSH2 0xA91 PUSH2 0x107C JUMP JUMPDEST DUP2 AND SWAP6 DUP6 MLOAD PUSH4 0x52D1902D PUSH1 0xE0 SHL DUP2 MSTORE DUP4 DUP2 DUP11 DUP2 DUP12 GAS STATICCALL DUP7 SWAP2 DUP2 PUSH2 0xBC0 JUMPI JUMPDEST POP PUSH2 0xACB JUMPI POP POP POP POP POP POP MLOAD SWAP2 PUSH4 0x4C9C8CE3 PUSH1 0xE0 SHL DUP4 MSTORE DUP3 ADD MSTORE REVERT JUMPDEST SWAP1 DUP9 DUP9 DUP9 SWAP5 SWAP4 DUP13 PUSH1 0x0 DUP1 MLOAD PUSH1 0x20 PUSH2 0x1139 DUP4 CODECOPY DUP2 MLOAD SWAP2 MSTORE SWAP2 DUP3 DUP2 SUB PUSH2 0xBAB JUMPI POP DUP6 EXTCODESIZE ISZERO PUSH2 0xB97 JUMPI POP DUP1 SLOAD PUSH1 0x1 PUSH1 0x1 PUSH1 0xA0 SHL SUB NOT AND DUP3 OR SWAP1 SSTORE DUP5 MLOAD DUP9 SWAP4 SWAP3 SWAP2 PUSH32 0xBC7CD75A20EE27FD9ADEBAB32041F755214DBC6BFFA90CC0225B39DA2E5C2D3B DUP6 DUP1 LOG2 DUP3 MLOAD ISZERO PUSH2 0xB79 JUMPI POP POP PUSH2 0xB6B SWAP6 DUP3 SWAP2 MLOAD SWAP1 DUP5 GAS DELEGATECALL SWAP2 RETURNDATASIZE ISZERO PUSH2 0xB6F JUMPI RETURNDATASIZE PUSH2 0xB5D PUSH2 0xB54 DUP3 PUSH2 0xF6A JUMP JUMPDEST SWAP3 MLOAD SWAP3 DUP4 PUSH2 0xF31 JUMP JUMPDEST DUP2 MSTORE DUP6 DUP2 SWAP5 RETURNDATASIZE SWAP3 ADD RETURNDATACOPY PUSH2 0x10B5 JUMP JUMPDEST POP DUP1 RETURN JUMPDEST POP PUSH1 0x60 SWAP3 POP PUSH2 0x10B5 JUMP JUMPDEST SWAP6 POP SWAP6 POP POP POP POP POP CALLVALUE PUSH2 0xB8B JUMPI POP POP DUP1 RETURN JUMPDEST PUSH4 0xB398979F PUSH1 0xE0 SHL DUP2 MSTORE REVERT JUMPDEST DUP7 MLOAD PUSH4 0x4C9C8CE3 PUSH1 0xE0 SHL DUP2 MSTORE DUP1 DUP6 ADD DUP5 SWAP1 MSTORE REVERT JUMPDEST DUP8 MLOAD PUSH4 0x2A875269 PUSH1 0xE2 SHL DUP2 MSTORE DUP1 DUP7 ADD SWAP2 SWAP1 SWAP2 MSTORE REVERT JUMPDEST SWAP1 SWAP2 POP DUP5 DUP2 DUP2 RETURNDATASIZE DUP4 GT PUSH2 0xBEC JUMPI JUMPDEST PUSH2 0xBD8 DUP2 DUP4 PUSH2 0xF31 JUMP JUMPDEST DUP2 ADD SUB SLT PUSH2 0xBE8 JUMPI MLOAD SWAP1 CODESIZE PUSH2 0xAAF JUMP JUMPDEST DUP7 DUP1 REVERT JUMPDEST POP RETURNDATASIZE PUSH2 0xBCE JUMP JUMPDEST DUP6 MLOAD PUSH4 0x703E46DD PUSH1 0xE1 SHL DUP2 MSTORE DUP9 SWAP1 REVERT JUMPDEST SWAP1 POP DUP2 PUSH1 0x0 DUP1 MLOAD PUSH1 0x20 PUSH2 0x1139 DUP4 CODECOPY DUP2 MLOAD SWAP2 MSTORE SLOAD AND EQ ISZERO CODESIZE PUSH2 0xA84 JUMP JUMPDEST DUP6 DUP1 REVERT JUMPDEST POP POP CALLVALUE PUSH2 0x2FA JUMPI DUP2 PUSH1 0x3 NOT CALLDATASIZE ADD SLT PUSH2 0x2FA JUMPI PUSH1 0x20 SWAP1 MLOAD PUSH1 0x3C DUP2 MSTORE RETURN JUMPDEST POP POP CALLVALUE PUSH2 0x2FA JUMPI DUP2 PUSH1 0x3 NOT CALLDATASIZE ADD SLT PUSH2 0x2FA JUMPI PUSH1 0x3 SLOAD SWAP1 MLOAD PUSH1 0x1 PUSH1 0x1 PUSH1 0xA0 SHL SUB SWAP1 SWAP2 AND DUP2 MSTORE PUSH1 0x20 SWAP1 RETURN JUMPDEST POP CALLVALUE PUSH2 0x2D7 JUMPI PUSH1 0x20 CALLDATASIZE PUSH1 0x3 NOT ADD SLT PUSH2 0x2D7 JUMPI CALLDATALOAD DUP3 MSTORE PUSH1 0x1D PUSH1 0x20 SWAP1 DUP2 MSTORE SWAP2 DUP2 SWAP1 KECCAK256 SLOAD SWAP1 MLOAD PUSH1 0x1 PUSH1 0x1 PUSH1 0xA0 SHL SUB SWAP1 SWAP2 AND DUP2 MSTORE RETURN JUMPDEST POP POP CALLVALUE PUSH2 0x2FA JUMPI DUP2 PUSH1 0x3 NOT CALLDATASIZE ADD SLT PUSH2 0x2FA JUMPI PUSH1 0x20 SWAP1 PUSH1 0xD SLOAD SWAP1 MLOAD SWAP1 DUP2 MSTORE RETURN JUMPDEST POP POP CALLVALUE PUSH2 0x2FA JUMPI DUP2 PUSH1 0x3 NOT CALLDATASIZE ADD SLT PUSH2 0x2FA JUMPI PUSH1 0x20 SWAP1 PUSH1 0xFF PUSH1 0x4E SLOAD AND SWAP1 MLOAD SWAP1 ISZERO ISZERO DUP2 MSTORE RETURN JUMPDEST POP POP CALLVALUE PUSH2 0x2FA JUMPI DUP2 PUSH1 0x3 NOT CALLDATASIZE ADD SLT PUSH2 0x2FA JUMPI PUSH1 0x4E SLOAD SWAP1 MLOAD PUSH1 0x8 SWAP2 SWAP1 SWAP2 SHR PUSH1 0x1 PUSH1 0x1 PUSH1 0xA0 SHL SUB AND DUP2 MSTORE PUSH1 0x20 SWAP1 RETURN JUMPDEST POP POP CALLVALUE PUSH2 0x2FA JUMPI DUP2 PUSH1 0x3 NOT CALLDATASIZE ADD SLT PUSH2 0x2FA JUMPI PUSH1 0x20 SWAP1 MLOAD PUSH9 0x3635C9ADC5DEA00000 DUP2 MSTORE RETURN JUMPDEST POP POP CALLVALUE PUSH2 0x2FA JUMPI PUSH1 0x20 CALLDATASIZE PUSH1 0x3 NOT ADD SLT PUSH2 0x2FA JUMPI PUSH1 0x60 SWAP2 PUSH1 0x2 SWAP1 DUP3 SWAP1 PUSH1 0x1 PUSH1 0x1 PUSH1 0xA0 SHL SUB PUSH2 0xD59 PUSH2 0xF16 JUMP JUMPDEST AND DUP2 MSTORE PUSH1 0xF PUSH1 0x20 MSTORE KECCAK256 ADD SLOAD PUSH2 0xD6D DUP2 PUSH2 0xFCD JUMP JUMPDEST DUP4 MLOAD SWAP2 DUP3 MSTORE PUSH1 0x20 DUP3 ADD MSTORE SWAP2 DUP3 ADD MSTORE RETURN JUMPDEST POP POP CALLVALUE PUSH2 0x2FA JUMPI DUP2 PUSH1 0x3 NOT CALLDATASIZE ADD SLT PUSH2 0x2FA JUMPI PUSH1 0x20 SWAP1 PUSH1 0x17 SLOAD SWAP1 MLOAD SWAP1 DUP2 MSTORE RETURN JUMPDEST POP CALLVALUE PUSH2 0x2D7 JUMPI PUSH1 0x20 CALLDATASIZE PUSH1 0x3 NOT ADD SLT PUSH2 0x2D7 JUMPI PUSH2 0x160 SWAP3 PUSH1 0x1 PUSH1 0x1 PUSH1 0xA0 SHL SUB SWAP1 DUP4 SWAP1 DUP3 PUSH2 0xDC6 PUSH2 0xF16 JUMP JUMPDEST AND DUP2 MSTORE PUSH1 0xF PUSH1 0x20 MSTORE KECCAK256 SWAP1 DUP2 SLOAD AND SWAP3 PUSH1 0x1 DUP3 ADD SLOAD SWAP3 PUSH1 0x2 DUP4 ADD SLOAD SWAP1 PUSH1 0x3 DUP5 ADD SLOAD SWAP1 DUP5 ADD SLOAD PUSH1 0xFF PUSH1 0x5 DUP7 ADD SLOAD AND SWAP1 PUSH1 0x6 DUP7 ADD SLOAD SWAP3 PUSH1 0x7 DUP8 ADD SLOAD SWAP5 PUSH1 0x8 DUP9 ADD SLOAD SWAP7 PUSH1 0xA PUSH1 0x9 DUP11 ADD SLOAD SWAP10 ADD SLOAD SWAP10 DUP2 MLOAD SWAP12 DUP13 MSTORE PUSH1 0x20 DUP13 ADD MSTORE DUP11 ADD MSTORE PUSH1 0x60 DUP10 ADD MSTORE PUSH1 0x80 DUP9 ADD MSTORE ISZERO ISZERO PUSH1 0xA0 DUP8 ADD MSTORE PUSH1 0xC0 DUP7 ADD MSTORE PUSH1 0xE0 DUP6 ADD MSTORE PUSH2 0x100 DUP5 ADD MSTORE PUSH2 0x120 DUP4 ADD MSTORE PUSH2 0x140 DUP3 ADD MSTORE RETURN JUMPDEST POP POP CALLVALUE PUSH2 0x2FA JUMPI DUP2 PUSH1 0x3 NOT CALLDATASIZE ADD SLT PUSH2 0x2FA JUMPI PUSH1 0x1 SLOAD SWAP1 MLOAD PUSH1 0x1 PUSH1 0x1 PUSH1 0xA0 SHL SUB SWAP1 SWAP2 AND DUP2 MSTORE PUSH1 0x20 SWAP1 RETURN JUMPDEST POP POP CALLVALUE PUSH2 0x2FA JUMPI DUP2 PUSH1 0x3 NOT CALLDATASIZE ADD SLT PUSH2 0x2FA JUMPI MLOAD SWAP1 DUP2 MSTORE PUSH1 0x20 SWAP1 RETURN JUMPDEST POP POP CALLVALUE PUSH2 0x2FA JUMPI DUP2 PUSH1 0x3 NOT CALLDATASIZE ADD SLT PUSH2 0x2FA JUMPI PUSH1 0x20 SWAP1 MLOAD PUSH1 0x2 DUP2 MSTORE RETURN JUMPDEST POP POP CALLVALUE PUSH2 0x2FA JUMPI DUP1 PUSH1 0x3 NOT CALLDATASIZE ADD SLT PUSH2 0x2FA JUMPI PUSH2 0xEC5 PUSH2 0xF16 JUMP JUMPDEST PUSH1 0x1 PUSH1 0x1 PUSH1 0xA0 SHL SUB SWAP1 DUP2 AND DUP4 MSTORE PUSH1 0x12 PUSH1 0x20 MSTORE DUP2 DUP4 KECCAK256 DUP1 SLOAD PUSH1 0x24 CALLDATALOAD SWAP2 SWAP1 DUP3 LT ISZERO PUSH2 0x5BA JUMPI DUP5 MSTORE PUSH1 0x20 SWAP4 DUP5 SWAP1 KECCAK256 ADD SLOAD SWAP2 MLOAD SWAP2 AND DUP2 MSTORE RETURN JUMPDEST DUP5 SWAP1 CALLVALUE PUSH2 0x2FA JUMPI DUP2 PUSH1 0x3 NOT CALLDATASIZE ADD SLT PUSH2 0x2FA JUMPI PUSH1 0x20 SWAP1 PUSH1 0xB SLOAD DUP2 MSTORE RETURN JUMPDEST PUSH1 0x4 CALLDATALOAD SWAP1 PUSH1 0x1 PUSH1 0x1 PUSH1 0xA0 SHL SUB DUP3 AND DUP3 SUB PUSH2 0xF2C JUMPI JUMP JUMPDEST PUSH1 0x0 DUP1 REVERT JUMPDEST PUSH1 0x1F SWAP1 SWAP2 ADD PUSH1 0x1F NOT AND DUP2 ADD SWAP1 PUSH1 0x1 PUSH1 0x1 PUSH1 0x40 SHL SUB DUP3 GT SWAP1 DUP3 LT OR PUSH2 0xF54 JUMPI PUSH1 0x40 MSTORE JUMP JUMPDEST PUSH4 0x4E487B71 PUSH1 0xE0 SHL PUSH1 0x0 MSTORE PUSH1 0x41 PUSH1 0x4 MSTORE PUSH1 0x24 PUSH1 0x0 REVERT JUMPDEST PUSH1 0x1 PUSH1 0x1 PUSH1 0x40 SHL SUB DUP2 GT PUSH2 0xF54 JUMPI PUSH1 0x1F ADD PUSH1 0x1F NOT AND PUSH1 0x20 ADD SWAP1 JUMP JUMPDEST PUSH1 0x40 SWAP1 PUSH1 0x3 NOT ADD SLT PUSH2 0xF2C JUMPI PUSH1 0x4 CALLDATALOAD SWAP1 PUSH1 0x24 CALLDATALOAD SWAP1 JUMP JUMPDEST DUP1 SLOAD DUP3 LT ISZERO PUSH2 0xFB7 JUMPI PUSH1 0x0 MSTORE PUSH1 0x20 PUSH1 0x0 KECCAK256 SWAP1 PUSH1 0x1 SHL ADD SWAP1 PUSH1 0x0 SWAP1 JUMP JUMPDEST PUSH4 0x4E487B71 PUSH1 0xE0 SHL PUSH1 0x0 MSTORE PUSH1 0x32 PUSH1 0x4 MSTORE PUSH1 0x24 PUSH1 0x0 REVERT JUMPDEST PUSH3 0x186A0 DUP2 LT ISZERO PUSH2 0x1073 JUMPI PUSH2 0x7530 DUP2 LT ISZERO PUSH2 0x106A JUMPI PUSH2 0x2710 DUP2 LT ISZERO PUSH2 0x1061 JUMPI PUSH2 0xBB8 DUP2 LT ISZERO PUSH2 0x1058 JUMPI PUSH2 0x3E8 DUP2 LT ISZERO PUSH2 0x104F JUMPI PUSH2 0x12C DUP2 LT ISZERO PUSH2 0x1046 JUMPI PUSH1 0x64 DUP2 LT ISZERO PUSH2 0x103D JUMPI PUSH1 0x1E DUP2 LT ISZERO PUSH2 0x1034 JUMPI PUSH1 0xA GT ISZERO PUSH2 0x102C JUMPI PUSH1 0x0 SWAP1 PUSH1 0x0 SWAP1 JUMP JUMPDEST PUSH1 0x1 SWAP1 PUSH1 0x5 SWAP1 JUMP JUMPDEST POP PUSH1 0x2 SWAP1 PUSH1 0xA SWAP1 JUMP JUMPDEST POP PUSH1 0x3 SWAP1 PUSH1 0xF SWAP1 JUMP JUMPDEST POP PUSH1 0x4 SWAP1 PUSH1 0x14 SWAP1 JUMP JUMPDEST POP PUSH1 0x5 SWAP1 PUSH1 0x19 SWAP1 JUMP JUMPDEST POP PUSH1 0x6 SWAP1 PUSH1 0x1E SWAP1 JUMP JUMPDEST POP PUSH1 0x7 SWAP1 PUSH1 0x23 SWAP1 JUMP JUMPDEST POP PUSH1 0x8 SWAP1 PUSH1 0x28 SWAP1 JUMP JUMPDEST POP PUSH1 0x9 SWAP1 PUSH1 0x2D SWAP1 JUMP JUMPDEST PUSH1 0x0 DUP1 MLOAD PUSH1 0x20 PUSH2 0x1119 DUP4 CODECOPY DUP2 MLOAD SWAP2 MSTORE SLOAD PUSH1 0x1 PUSH1 0x1 PUSH1 0xA0 SHL SUB AND CALLER SUB PUSH2 0x109D JUMPI JUMP JUMPDEST PUSH1 0x40 MLOAD PUSH4 0x118CDAA7 PUSH1 0xE0 SHL DUP2 MSTORE CALLER PUSH1 0x4 DUP3 ADD MSTORE PUSH1 0x24 SWAP1 REVERT JUMPDEST SWAP1 PUSH2 0x10DC JUMPI POP DUP1 MLOAD ISZERO PUSH2 0x10CA JUMPI PUSH1 0x20 DUP2 MLOAD SWAP2 ADD REVERT JUMPDEST PUSH1 0x40 MLOAD PUSH4 0xD6BDA275 PUSH1 0xE0 SHL DUP2 MSTORE PUSH1 0x4 SWAP1 REVERT JUMPDEST DUP2 MLOAD ISZERO DUP1 PUSH2 0x110F JUMPI JUMPDEST PUSH2 0x10ED JUMPI POP SWAP1 JUMP JUMPDEST PUSH1 0x40 MLOAD PUSH4 0x9996B315 PUSH1 0xE0 SHL DUP2 MSTORE PUSH1 0x1 PUSH1 0x1 PUSH1 0xA0 SHL SUB SWAP1 SWAP2 AND PUSH1 0x4 DUP3 ADD MSTORE PUSH1 0x24 SWAP1 REVERT JUMPDEST POP DUP1 EXTCODESIZE ISZERO PUSH2 0x10E5 JUMP INVALID SWAP1 AND 0xD0 SWAP14 PUSH19 0xD40FDAE2FD8CEAC6B6234C7706214FD39C1CD1 0xE6 MULMOD LOG0 MSTORE DUP13 NOT SWAP4 STOP CALLDATASIZE ADDMOD SWAP5 LOG1 EXTCODESIZE LOG1 LOG3 0x21 MOD PUSH8 0xC828492DB98DCA3E KECCAK256 PUSH23 0xCC3735A920A3CA505D382BBC8BE0079C531659141344CD 0x1F 0xD0 LOG4 CALLCODE DUP5 NOT 0x49 PUSH32 0x9722A3DAAFE3B4186F6B6457E0A2646970667358221220B38A6762DAE639BF13 DUP9 0xDD 0xCC 0x2F 0x49 0xE4 0xC3 DUP2 0xE7 GAS DELEGATECALL BLOCKHASH MULMOD DUP13 PUSH16 0x6B6D141CBE471C3364736F6C63430008 AND STOP CALLER "},"methodIdentifiers":{"MAX_PRICE_IMPACT()":"6839b5fa","MIN_LIQUIDITY()":"21b77d63","REWARD_DIFFERENTIAL()":"88481b61","REWARD_DIRECT()":"0e2be210","REWARD_DYNAMIC()":"8a859a85","REWARD_LEVEL()":"8c0eaa48","REWARD_STATIC()":"1427f616","SECONDS_IN_UNIT()":"488b5d97","UPGRADE_INTERFACE_VERSION()":"ad3cb1cc","buybackPercent()":"e4412f68","buybackWallet()":"deab8aea","calculateLevel(uint256)":"dce3dc1f","directReferrals(address,uint256)":"05ad3935","directRewardPercent()":"ccf61944","emergencyPaused()":"27c830a9","getDirectReferrals(address)":"d2c8e0e5","getUserLevel(address)":"21923bde","jbcToken()":"1788513c","lastBurnTime()":"e3067449","levelRewardPercent()":"bd594dcf","levelRewardPool()":"b759936b","liquidityEnabled()":"b048a4bb","lpInjectionPercent()":"ceaa366d","lpInjectionWallet()":"88fd4d33","marketingPercent()":"d8020a18","marketingWallet()":"75f0a874","mcToken()":"95253992","nextStakeId()":"75506c96","nextTicketId()":"6031a52f","owner()":"8da5cb5b","priceOracle()":"2630c12f","proxiableUUID()":"52d1902d","redeemEnabled()":"d2f82536","redemptionFeePercent()":"dec7fa3b","renounceOwnership()":"715018a6","stakeOwner(uint256)":"3dbd46bd","stakePendingRewards(uint256,uint256)":"ac8f50aa","swapBuyTax()":"27f082f4","swapReserveJBC()":"1d0dac76","swapReserveMC()":"77a2a540","swapSellTax()":"9370b080","ticketFlexibilityDuration()":"6dd66827","ticketOwner(uint256)":"c2ff12fc","ticketPendingRewards(uint256,uint256)":"813380cd","transferOwnership(address)":"f2fde38b","treasuryPercent()":"04ef9d58","treasuryWallet()":"4626402b","upgradeToAndCall(address,bytes)":"4f1ef286","userInfo(address)":"1959a002","userStakes(address,uint256)":"b5d5b5fa","userTicket(address)":"8710bcaa"}},"storageLayout":{"storage":[{"astId":9046,"contract":"contracts/JinbaoProtocolV2.sol:JinbaoProtocolV2","label":"mcToken","offset":0,"slot":"0","type":"t_contract(IERC20)2032"},{"astId":9049,"contract":"contracts/JinbaoProtocolV2.sol:JinbaoProtocolV2","label":"jbcToken","offset":0,"slot":"1","type":"t_contract(IJBC)8985"},{"astId":9051,"contract":"contracts/JinbaoProtocolV2.sol:JinbaoProtocolV2","label":"marketingWallet","offset":0,"slot":"2","type":"t_address"},{"astId":9053,"contract":"contracts/JinbaoProtocolV2.sol:JinbaoProtocolV2","label":"treasuryWallet","offset":0,"slot":"3","type":"t_address"},{"astId":9055,"contract":"contracts/JinbaoProtocolV2.sol:JinbaoProtocolV2","label":"lpInjectionWallet","offset":0,"slot":"4","type":"t_address"},{"astId":9057,"contract":"contracts/JinbaoProtocolV2.sol:JinbaoProtocolV2","label":"buybackWallet","offset":0,"slot":"5","type":"t_address"},{"astId":9062,"contract":"contracts/JinbaoProtocolV2.sol:JinbaoProtocolV2","label":"directRewardPercent","offset":0,"slot":"6","type":"t_uint256"},{"astId":9064,"contract":"contracts/JinbaoProtocolV2.sol:JinbaoProtocolV2","label":"levelRewardPercent","offset":0,"slot":"7","type":"t_uint256"},{"astId":9066,"contract":"contracts/JinbaoProtocolV2.sol:JinbaoProtocolV2","label":"marketingPercent","offset":0,"slot":"8","type":"t_uint256"},{"astId":9068,"contract":"contracts/JinbaoProtocolV2.sol:JinbaoProtocolV2","label":"buybackPercent","offset":0,"slot":"9","type":"t_uint256"},{"astId":9070,"contract":"contracts/JinbaoProtocolV2.sol:JinbaoProtocolV2","label":"lpInjectionPercent","offset":0,"slot":"10","type":"t_uint256"},{"astId":9072,"contract":"contracts/JinbaoProtocolV2.sol:JinbaoProtocolV2","label":"treasuryPercent","offset":0,"slot":"11","type":"t_uint256"},{"astId":9074,"contract":"contracts/JinbaoProtocolV2.sol:JinbaoProtocolV2","label":"redemptionFeePercent","offset":0,"slot":"12","type":"t_uint256"},{"astId":9076,"contract":"contracts/JinbaoProtocolV2.sol:JinbaoProtocolV2","label":"swapBuyTax","offset":0,"slot":"13","type":"t_uint256"},{"astId":9078,"contract":"contracts/JinbaoProtocolV2.sol:JinbaoProtocolV2","label":"swapSellTax","offset":0,"slot":"14","type":"t_uint256"},{"astId":9098,"contract":"contracts/JinbaoProtocolV2.sol:JinbaoProtocolV2","label":"userInfo","offset":0,"slot":"15","type":"t_mapping(t_address,t_struct(UserInfo)9016_storage)"},{"astId":9103,"contract":"contracts/JinbaoProtocolV2.sol:JinbaoProtocolV2","label":"userTicket","offset":0,"slot":"16","type":"t_mapping(t_address,t_struct(Ticket)9038_storage)"},{"astId":9109,"contract":"contracts/JinbaoProtocolV2.sol:JinbaoProtocolV2","label":"userStakes","offset":0,"slot":"17","type":"t_mapping(t_address,t_array(t_struct(Stake)9029_storage)dyn_storage)"},{"astId":9114,"contract":"contracts/JinbaoProtocolV2.sol:JinbaoProtocolV2","label":"directReferrals","offset":0,"slot":"18","type":"t_mapping(t_address,t_array(t_address)dyn_storage)"},{"astId":9120,"contract":"contracts/JinbaoProtocolV2.sol:JinbaoProtocolV2","label":"ticketPendingRewards","offset":0,"slot":"19","type":"t_mapping(t_uint256,t_array(t_struct(PendingReward)9043_storage)dyn_storage)"},{"astId":9122,"contract":"contracts/JinbaoProtocolV2.sol:JinbaoProtocolV2","label":"ticketFlexibilityDuration","offset":0,"slot":"20","type":"t_uint256"},{"astId":9124,"contract":"contracts/JinbaoProtocolV2.sol:JinbaoProtocolV2","label":"liquidityEnabled","offset":0,"slot":"21","type":"t_bool"},{"astId":9126,"contract":"contracts/JinbaoProtocolV2.sol:JinbaoProtocolV2","label":"redeemEnabled","offset":1,"slot":"21","type":"t_bool"},{"astId":9128,"contract":"contracts/JinbaoProtocolV2.sol:JinbaoProtocolV2","label":"swapReserveMC","offset":0,"slot":"22","type":"t_uint256"},{"astId":9130,"contract":"contracts/JinbaoProtocolV2.sol:JinbaoProtocolV2","label":"swapReserveJBC","offset":0,"slot":"23","type":"t_uint256"},{"astId":9140,"contract":"contracts/JinbaoProtocolV2.sol:JinbaoProtocolV2","label":"nextTicketId","offset":0,"slot":"24","type":"t_uint256"},{"astId":9142,"contract":"contracts/JinbaoProtocolV2.sol:JinbaoProtocolV2","label":"nextStakeId","offset":0,"slot":"25","type":"t_uint256"},{"astId":9144,"contract":"contracts/JinbaoProtocolV2.sol:JinbaoProtocolV2","label":"lastBurnTime","offset":0,"slot":"26","type":"t_uint256"},{"astId":9148,"contract":"contracts/JinbaoProtocolV2.sol:JinbaoProtocolV2","label":"ticketOwner","offset":0,"slot":"27","type":"t_mapping(t_uint256,t_address)"},{"astId":9154,"contract":"contracts/JinbaoProtocolV2.sol:JinbaoProtocolV2","label":"stakePendingRewards","offset":0,"slot":"28","type":"t_mapping(t_uint256,t_array(t_struct(PendingReward)9043_storage)dyn_storage)"},{"astId":9158,"contract":"contracts/JinbaoProtocolV2.sol:JinbaoProtocolV2","label":"stakeOwner","offset":0,"slot":"29","type":"t_mapping(t_uint256,t_address)"},{"astId":9160,"contract":"contracts/JinbaoProtocolV2.sol:JinbaoProtocolV2","label":"levelRewardPool","offset":0,"slot":"30","type":"t_uint256"},{"astId":9164,"contract":"contracts/JinbaoProtocolV2.sol:JinbaoProtocolV2","label":"__gap","offset":0,"slot":"31","type":"t_array(t_uint256)47_storage"},{"astId":9166,"contract":"contracts/JinbaoProtocolV2.sol:JinbaoProtocolV2","label":"emergencyPaused","offset":0,"slot":"78","type":"t_bool"},{"astId":9168,"contract":"contracts/JinbaoProtocolV2.sol:JinbaoProtocolV2","label":"priceOracle","offset":1,"slot":"78","type":"t_address"}],"types":{"t_address":{"encoding":"inplace","label":"address","numberOfBytes":"20"},"t_array(t_address)dyn_storage":{"base":"t_address","encoding":"dynamic_array","label":"address[]","numberOfBytes":"32"},"t_array(t_struct(PendingReward)9043_storage)dyn_storage":{"base":"t_struct(PendingReward)9043_storage","encoding":"dynamic_array","label":"struct JinbaoProtocolV2.PendingReward[]","numberOfBytes":"32"},"t_array(t_struct(Stake)9029_storage)dyn_storage":{"base":"t_struct(Stake)9029_storage","encoding":"dynamic_array","label":"struct JinbaoProtocolV2.Stake[]","numberOfBytes":"32"},"t_array(t_uint256)47_storage":{"base":"t_uint256","encoding":"inplace","label":"uint256[47]","numberOfBytes":"1504"},"t_bool":{"encoding":"inplace","label":"bool","numberOfBytes":"1"},"t_contract(IERC20)2032":{"encoding":"inplace","label":"contract IERC20","numberOfBytes":"20"},"t_contract(IJBC)8985":{"encoding":"inplace","label":"contract IJBC","numberOfBytes":"20"},"t_mapping(t_address,t_array(t_address)dyn_storage)":{"encoding":"mapping","key":"t_address","label":"mapping(address => address[])","numberOfBytes":"32","value":"t_array(t_address)dyn_storage"},"t_mapping(t_address,t_array(t_struct(Stake)9029_storage)dyn_storage)":{"encoding":"mapping","key":"t_address","label":"mapping(address => struct JinbaoProtocolV2.Stake[])","numberOfBytes":"32","value":"t_array(t_struct(Stake)9029_storage)dyn_storage"},"t_mapping(t_address,t_struct(Ticket)9038_storage)":{"encoding":"mapping","key":"t_address","label":"mapping(address => struct JinbaoProtocolV2.Ticket)","numberOfBytes":"32","value":"t_struct(Ticket)9038_storage"},"t_mapping(t_address,t_struct(UserInfo)9016_storage)":{"encoding":"mapping","key":"t_address","label":"mapping(address => struct JinbaoProtocolV2.UserInfo)","numberOfBytes":"32","value":"t_struct(UserInfo)9016_storage"},"t_mapping(t_uint256,t_address)":{"encoding":"mapping","key":"t_uint256","label":"mapping(uint256 => address)","numberOfBytes":"32","value":"t_address"},"t_mapping(t_uint256,t_array(t_struct(PendingReward)9043_storage)dyn_storage)":{"encoding":"mapping","key":"t_uint256","label":"mapping(uint256 => struct JinbaoProtocolV2.PendingReward[])","numberOfBytes":"32","value":"t_array(t_struct(PendingReward)9043_storage)dyn_storage"},"t_struct(PendingReward)9043_storage":{"encoding":"inplace","label":"struct JinbaoProtocolV2.PendingReward","members":[{"astId":9040,"contract":"contracts/JinbaoProtocolV2.sol:JinbaoProtocolV2","label":"upline","offset":0,"slot":"0","type":"t_address"},{"astId":9042,"contract":"contracts/JinbaoProtocolV2.sol:JinbaoProtocolV2","label":"amount","offset":0,"slot":"1","type":"t_uint256"}],"numberOfBytes":"64"},"t_struct(Stake)9029_storage":{"encoding":"inplace","label":"struct JinbaoProtocolV2.Stake","members":[{"astId":9018,"contract":"contracts/JinbaoProtocolV2.sol:JinbaoProtocolV2","label":"id","offset":0,"slot":"0","type":"t_uint256"},{"astId":9020,"contract":"contracts/JinbaoProtocolV2.sol:JinbaoProtocolV2","label":"amount","offset":0,"slot":"1","type":"t_uint256"},{"astId":9022,"contract":"contracts/JinbaoProtocolV2.sol:JinbaoProtocolV2","label":"startTime","offset":0,"slot":"2","type":"t_uint256"},{"astId":9024,"contract":"contracts/JinbaoProtocolV2.sol:JinbaoProtocolV2","label":"cycleDays","offset":0,"slot":"3","type":"t_uint256"},{"astId":9026,"contract":"contracts/JinbaoProtocolV2.sol:JinbaoProtocolV2","label":"active","offset":0,"slot":"4","type":"t_bool"},{"astId":9028,"contract":"contracts/JinbaoProtocolV2.sol:JinbaoProtocolV2","label":"paid","offset":0,"slot":"5","type":"t_uint256"}],"numberOfBytes":"192"},"t_struct(Ticket)9038_storage":{"encoding":"inplace","label":"struct JinbaoProtocolV2.Ticket","members":[{"astId":9031,"contract":"contracts/JinbaoProtocolV2.sol:JinbaoProtocolV2","label":"ticketId","offset":0,"slot":"0","type":"t_uint256"},{"astId":9033,"contract":"contracts/JinbaoProtocolV2.sol:JinbaoProtocolV2","label":"amount","offset":0,"slot":"1","type":"t_uint256"},{"astId":9035,"contract":"contracts/JinbaoProtocolV2.sol:JinbaoProtocolV2","label":"purchaseTime","offset":0,"slot":"2","type":"t_uint256"},{"astId":9037,"contract":"contracts/JinbaoProtocolV2.sol:JinbaoProtocolV2","label":"exited","offset":0,"slot":"3","type":"t_bool"}],"numberOfBytes":"128"},"t_struct(UserInfo)9016_storage":{"encoding":"inplace","label":"struct JinbaoProtocolV2.UserInfo","members":[{"astId":8995,"contract":"contracts/JinbaoProtocolV2.sol:JinbaoProtocolV2","label":"referrer","offset":0,"slot":"0","type":"t_address"},{"astId":8997,"contract":"contracts/JinbaoProtocolV2.sol:JinbaoProtocolV2","label":"activeDirects","offset":0,"slot":"1","type":"t_uint256"},{"astId":8999,"contract":"contracts/JinbaoProtocolV2.sol:JinbaoProtocolV2","label":"teamCount","offset":0,"slot":"2","type":"t_uint256"},{"astId":9001,"contract":"contracts/JinbaoProtocolV2.sol:JinbaoProtocolV2","label":"totalRevenue","offset":0,"slot":"3","type":"t_uint256"},{"astId":9003,"contract":"contracts/JinbaoProtocolV2.sol:JinbaoProtocolV2","label":"currentCap","offset":0,"slot":"4","type":"t_uint256"},{"astId":9005,"contract":"contracts/JinbaoProtocolV2.sol:JinbaoProtocolV2","label":"isActive","offset":0,"slot":"5","type":"t_bool"},{"astId":9007,"contract":"contracts/JinbaoProtocolV2.sol:JinbaoProtocolV2","label":"refundFeeAmount","offset":0,"slot":"6","type":"t_uint256"},{"astId":9009,"contract":"contracts/JinbaoProtocolV2.sol:JinbaoProtocolV2","label":"teamTotalVolume","offset":0,"slot":"7","type":"t_uint256"},{"astId":9011,"contract":"contracts/JinbaoProtocolV2.sol:JinbaoProtocolV2","label":"teamTotalCap","offset":0,"slot":"8","type":"t_uint256"},{"astId":9013,"contract":"contracts/JinbaoProtocolV2.sol:JinbaoProtocolV2","label":"maxTicketAmount","offset":0,"slot":"9","type":"t_uint256"},{"astId":9015,"contract":"contracts/JinbaoProtocolV2.sol:JinbaoProtocolV2","label":"maxSingleTicketAmount","offset":0,"slot":"10","type":"t_uint256"}],"numberOfBytes":"352"},"t_uint256":{"encoding":"inplace","label":"uint256","numberOfBytes":"32"}}}}}}