{"contracts/JinbaoProtocol.sol":{"JinbaoProtocol":{"abi":[{"inputs":[],"stateMutability":"nonpayable","type":"constructor"},{"inputs":[{"internalType":"address","name":"target","type":"address"}],"name":"AddressEmptyCode","type":"error"},{"inputs":[{"internalType":"address","name":"implementation","type":"address"}],"name":"ERC1967InvalidImplementation","type":"error"},{"inputs":[],"name":"ERC1967NonPayable","type":"error"},{"inputs":[],"name":"FailedCall","type":"error"},{"inputs":[],"name":"InvalidInitialization","type":"error"},{"inputs":[],"name":"NotInitializing","type":"error"},{"inputs":[{"internalType":"address","name":"owner","type":"address"}],"name":"OwnableInvalidOwner","type":"error"},{"inputs":[{"internalType":"address","name":"account","type":"address"}],"name":"OwnableUnauthorizedAccount","type":"error"},{"inputs":[],"name":"ReentrancyGuardReentrantCall","type":"error"},{"inputs":[],"name":"UUPSUnauthorizedCallContext","type":"error"},{"inputs":[{"internalType":"bytes32","name":"slot","type":"bytes32"}],"name":"UUPSUnsupportedProxiableUUID","type":"error"},{"anonymous":false,"inputs":[{"indexed":true,"internalType":"address","name":"user","type":"address"},{"indexed":true,"internalType":"address","name":"referrer","type":"address"}],"name":"BoundReferrer","type":"event"},{"anonymous":false,"inputs":[{"indexed":false,"internalType":"uint256","name":"mcAmount","type":"uint256"},{"indexed":false,"internalType":"uint256","name":"jbcBurned","type":"uint256"}],"name":"BuybackAndBurn","type":"event"},{"anonymous":false,"inputs":[{"indexed":true,"internalType":"address","name":"user","type":"address"},{"indexed":false,"internalType":"uint256","name":"ticketId","type":"uint256"}],"name":"Exited","type":"event"},{"anonymous":false,"inputs":[{"indexed":true,"internalType":"address","name":"user","type":"address"},{"indexed":false,"internalType":"uint256","name":"amount","type":"uint256"}],"name":"FeeRefunded","type":"event"},{"anonymous":false,"inputs":[{"indexed":false,"internalType":"uint64","name":"version","type":"uint64"}],"name":"Initialized","type":"event"},{"anonymous":false,"inputs":[],"name":"LevelConfigsUpdated","type":"event"},{"anonymous":false,"inputs":[{"indexed":true,"internalType":"uint256","name":"ticketId","type":"uint256"},{"indexed":true,"internalType":"address","name":"upline","type":"address"},{"indexed":false,"internalType":"uint256","name":"amount","type":"uint256"}],"name":"LevelRewardRecorded","type":"event"},{"anonymous":false,"inputs":[{"indexed":true,"internalType":"uint256","name":"ticketId","type":"uint256"},{"indexed":true,"internalType":"address","name":"upline","type":"address"},{"indexed":false,"internalType":"uint256","name":"amount","type":"uint256"}],"name":"LevelRewardReleased","type":"event"},{"anonymous":false,"inputs":[{"indexed":false,"internalType":"uint256","name":"mcAmount","type":"uint256"},{"indexed":false,"internalType":"uint256","name":"jbcAmount","type":"uint256"}],"name":"LiquidityAdded","type":"event"},{"anonymous":false,"inputs":[{"indexed":true,"internalType":"address","name":"user","type":"address"},{"indexed":false,"internalType":"uint256","name":"amount","type":"uint256"},{"indexed":false,"internalType":"uint256","name":"cycleDays","type":"uint256"},{"indexed":false,"internalType":"uint256","name":"stakeId","type":"uint256"}],"name":"LiquidityStaked","type":"event"},{"anonymous":false,"inputs":[{"indexed":false,"internalType":"bool","name":"enabled","type":"bool"}],"name":"LiquidityStatusUpdated","type":"event"},{"anonymous":false,"inputs":[{"indexed":true,"internalType":"address","name":"previousOwner","type":"address"},{"indexed":true,"internalType":"address","name":"newOwner","type":"address"}],"name":"OwnershipTransferred","type":"event"},{"anonymous":false,"inputs":[{"indexed":false,"internalType":"bool","name":"enabled","type":"bool"}],"name":"RedeemStatusUpdated","type":"event"},{"anonymous":false,"inputs":[{"indexed":true,"internalType":"address","name":"user","type":"address"},{"indexed":false,"internalType":"uint256","name":"principal","type":"uint256"},{"indexed":false,"internalType":"uint256","name":"fee","type":"uint256"}],"name":"Redeemed","type":"event"},{"anonymous":false,"inputs":[{"indexed":true,"internalType":"address","name":"user","type":"address"},{"indexed":true,"internalType":"address","name":"from","type":"address"},{"indexed":false,"internalType":"uint256","name":"mcAmount","type":"uint256"},{"indexed":false,"internalType":"uint8","name":"rewardType","type":"uint8"},{"indexed":false,"internalType":"uint256","name":"ticketId","type":"uint256"}],"name":"ReferralRewardPaid","type":"event"},{"anonymous":false,"inputs":[{"indexed":true,"internalType":"address","name":"user","type":"address"},{"indexed":false,"internalType":"uint256","name":"amount","type":"uint256"},{"indexed":false,"internalType":"uint256","name":"cappedAmount","type":"uint256"}],"name":"RewardCapped","type":"event"},{"anonymous":false,"inputs":[{"indexed":true,"internalType":"address","name":"user","type":"address"},{"indexed":false,"internalType":"uint256","name":"mcAmount","type":"uint256"},{"indexed":false,"internalType":"uint256","name":"jbcAmount","type":"uint256"},{"indexed":false,"internalType":"uint8","name":"rewardType","type":"uint8"},{"indexed":false,"internalType":"uint256","name":"ticketId","type":"uint256"}],"name":"RewardClaimed","type":"event"},{"anonymous":false,"inputs":[{"indexed":true,"internalType":"address","name":"user","type":"address"},{"indexed":false,"internalType":"uint256","name":"amount","type":"uint256"},{"indexed":false,"internalType":"uint8","name":"rewardType","type":"uint8"}],"name":"RewardPaid","type":"event"},{"anonymous":false,"inputs":[{"indexed":true,"internalType":"address","name":"user","type":"address"},{"indexed":false,"internalType":"uint256","name":"jbcAmount","type":"uint256"},{"indexed":false,"internalType":"uint256","name":"mcAmount","type":"uint256"},{"indexed":false,"internalType":"uint256","name":"tax","type":"uint256"}],"name":"SwappedJBCToMC","type":"event"},{"anonymous":false,"inputs":[{"indexed":true,"internalType":"address","name":"user","type":"address"},{"indexed":false,"internalType":"uint256","name":"mcAmount","type":"uint256"},{"indexed":false,"internalType":"uint256","name":"jbcAmount","type":"uint256"},{"indexed":false,"internalType":"uint256","name":"tax","type":"uint256"}],"name":"SwappedMCToJBC","type":"event"},{"anonymous":false,"inputs":[{"indexed":true,"internalType":"address","name":"user","type":"address"},{"indexed":false,"internalType":"uint256","name":"ticketId","type":"uint256"},{"indexed":false,"internalType":"uint256","name":"amount","type":"uint256"}],"name":"TicketExpired","type":"event"},{"anonymous":false,"inputs":[{"indexed":false,"internalType":"uint256","name":"newDuration","type":"uint256"}],"name":"TicketFlexibilityDurationUpdated","type":"event"},{"anonymous":false,"inputs":[{"indexed":true,"internalType":"address","name":"user","type":"address"},{"indexed":false,"internalType":"uint256","name":"amount","type":"uint256"},{"indexed":false,"internalType":"uint256","name":"ticketId","type":"uint256"}],"name":"TicketPurchased","type":"event"},{"anonymous":false,"inputs":[{"indexed":true,"internalType":"address","name":"implementation","type":"address"}],"name":"Upgraded","type":"event"},{"inputs":[],"name":"REWARD_DIRECT","outputs":[{"internalType":"uint8","name":"","type":"uint8"}],"stateMutability":"view","type":"function"},{"inputs":[],"name":"REWARD_DYNAMIC","outputs":[{"internalType":"uint8","name":"","type":"uint8"}],"stateMutability":"view","type":"function"},{"inputs":[],"name":"REWARD_LEVEL","outputs":[{"internalType":"uint8","name":"","type":"uint8"}],"stateMutability":"view","type":"function"},{"inputs":[],"name":"REWARD_STATIC","outputs":[{"internalType":"uint8","name":"","type":"uint8"}],"stateMutability":"view","type":"function"},{"inputs":[],"name":"SECONDS_IN_UNIT","outputs":[{"internalType":"uint256","name":"","type":"uint256"}],"stateMutability":"view","type":"function"},{"inputs":[],"name":"UPGRADE_INTERFACE_VERSION","outputs":[{"internalType":"string","name":"","type":"string"}],"stateMutability":"view","type":"function"},{"inputs":[{"internalType":"uint256","name":"mcAmount","type":"uint256"},{"internalType":"uint256","name":"jbcAmount","type":"uint256"}],"name":"addLiquidity","outputs":[],"stateMutability":"nonpayable","type":"function"},{"inputs":[{"internalType":"address","name":"user","type":"address"},{"internalType":"address","name":"newReferrer","type":"address"}],"name":"adminSetReferrer","outputs":[],"stateMutability":"nonpayable","type":"function"},{"inputs":[{"internalType":"address","name":"user","type":"address"},{"internalType":"uint256","name":"_activeDirects","type":"uint256"},{"internalType":"uint256","name":"_teamCount","type":"uint256"}],"name":"adminSetUserStats","outputs":[],"stateMutability":"nonpayable","type":"function"},{"inputs":[{"internalType":"uint256","name":"amount","type":"uint256"},{"internalType":"address","name":"to","type":"address"}],"name":"adminWithdrawJBC","outputs":[],"stateMutability":"nonpayable","type":"function"},{"inputs":[{"internalType":"uint256","name":"amount","type":"uint256"},{"internalType":"address","name":"to","type":"address"}],"name":"adminWithdrawMC","outputs":[],"stateMutability":"nonpayable","type":"function"},{"inputs":[{"internalType":"address","name":"_referrer","type":"address"}],"name":"bindReferrer","outputs":[],"stateMutability":"nonpayable","type":"function"},{"inputs":[{"internalType":"uint256","name":"amount","type":"uint256"}],"name":"buyTicket","outputs":[],"stateMutability":"nonpayable","type":"function"},{"inputs":[],"name":"buybackPercent","outputs":[{"internalType":"uint256","name":"","type":"uint256"}],"stateMutability":"view","type":"function"},{"inputs":[],"name":"buybackWallet","outputs":[{"internalType":"address","name":"","type":"address"}],"stateMutability":"view","type":"function"},{"inputs":[],"name":"claimRewards","outputs":[],"stateMutability":"nonpayable","type":"function"},{"inputs":[],"name":"dailyBurn","outputs":[],"stateMutability":"nonpayable","type":"function"},{"inputs":[{"internalType":"address","name":"","type":"address"},{"internalType":"uint256","name":"","type":"uint256"}],"name":"directReferrals","outputs":[{"internalType":"address","name":"","type":"address"}],"stateMutability":"view","type":"function"},{"inputs":[],"name":"directRewardPercent","outputs":[{"internalType":"uint256","name":"","type":"uint256"}],"stateMutability":"view","type":"function"},{"inputs":[],"name":"expireMyTicket","outputs":[],"stateMutability":"nonpayable","type":"function"},{"inputs":[{"internalType":"uint256","name":"amountIn","type":"uint256"},{"internalType":"uint256","name":"reserveIn","type":"uint256"},{"internalType":"uint256","name":"reserveOut","type":"uint256"}],"name":"getAmountOut","outputs":[{"internalType":"uint256","name":"","type":"uint256"}],"stateMutability":"pure","type":"function"},{"inputs":[{"internalType":"address","name":"user","type":"address"}],"name":"getDirectReferrals","outputs":[{"internalType":"address[]","name":"","type":"address[]"}],"stateMutability":"view","type":"function"},{"inputs":[{"internalType":"address","name":"user","type":"address"}],"name":"getDirectReferralsData","outputs":[{"components":[{"internalType":"address","name":"user","type":"address"},{"internalType":"uint256","name":"ticketAmount","type":"uint256"},{"internalType":"uint256","name":"joinTime","type":"uint256"}],"internalType":"struct JinbaoProtocol.DirectReferralData[]","name":"","type":"tuple[]"}],"stateMutability":"view","type":"function"},{"inputs":[],"name":"getJBCPrice","outputs":[{"internalType":"uint256","name":"","type":"uint256"}],"stateMutability":"view","type":"function"},{"inputs":[{"internalType":"uint256","name":"activeDirects","type":"uint256"}],"name":"getLevel","outputs":[{"internalType":"uint256","name":"level","type":"uint256"},{"internalType":"uint256","name":"percent","type":"uint256"}],"stateMutability":"view","type":"function"},{"inputs":[{"internalType":"address","name":"_mcToken","type":"address"},{"internalType":"address","name":"_jbcToken","type":"address"},{"internalType":"address","name":"_marketing","type":"address"},{"internalType":"address","name":"_treasury","type":"address"},{"internalType":"address","name":"_lpInjection","type":"address"},{"internalType":"address","name":"_buybackWallet","type":"address"}],"name":"initialize","outputs":[],"stateMutability":"nonpayable","type":"function"},{"inputs":[],"name":"jbcToken","outputs":[{"internalType":"contract IJBC","name":"","type":"address"}],"stateMutability":"view","type":"function"},{"inputs":[],"name":"lastBurnTime","outputs":[{"internalType":"uint256","name":"","type":"uint256"}],"stateMutability":"view","type":"function"},{"inputs":[{"internalType":"uint256","name":"","type":"uint256"}],"name":"levelConfigs","outputs":[{"internalType":"uint256","name":"minDirects","type":"uint256"},{"internalType":"uint256","name":"level","type":"uint256"},{"internalType":"uint256","name":"percent","type":"uint256"}],"stateMutability":"view","type":"function"},{"inputs":[],"name":"levelRewardPercent","outputs":[{"internalType":"uint256","name":"","type":"uint256"}],"stateMutability":"view","type":"function"},{"inputs":[],"name":"liquidityEnabled","outputs":[{"internalType":"bool","name":"","type":"bool"}],"stateMutability":"view","type":"function"},{"inputs":[],"name":"lpInjectionPercent","outputs":[{"internalType":"uint256","name":"","type":"uint256"}],"stateMutability":"view","type":"function"},{"inputs":[],"name":"lpInjectionWallet","outputs":[{"internalType":"address","name":"","type":"address"}],"stateMutability":"view","type":"function"},{"inputs":[],"name":"marketingPercent","outputs":[{"internalType":"uint256","name":"","type":"uint256"}],"stateMutability":"view","type":"function"},{"inputs":[],"name":"marketingWallet","outputs":[{"internalType":"address","name":"","type":"address"}],"stateMutability":"view","type":"function"},{"inputs":[],"name":"mcToken","outputs":[{"internalType":"contract IERC20","name":"","type":"address"}],"stateMutability":"view","type":"function"},{"inputs":[],"name":"nextStakeId","outputs":[{"internalType":"uint256","name":"","type":"uint256"}],"stateMutability":"view","type":"function"},{"inputs":[],"name":"nextTicketId","outputs":[{"internalType":"uint256","name":"","type":"uint256"}],"stateMutability":"view","type":"function"},{"inputs":[],"name":"owner","outputs":[{"internalType":"address","name":"","type":"address"}],"stateMutability":"view","type":"function"},{"inputs":[],"name":"proxiableUUID","outputs":[{"internalType":"bytes32","name":"","type":"bytes32"}],"stateMutability":"view","type":"function"},{"inputs":[],"name":"redeem","outputs":[],"stateMutability":"nonpayable","type":"function"},{"inputs":[],"name":"redeemEnabled","outputs":[{"internalType":"bool","name":"","type":"bool"}],"stateMutability":"view","type":"function"},{"inputs":[],"name":"redemptionFeePercent","outputs":[{"internalType":"uint256","name":"","type":"uint256"}],"stateMutability":"view","type":"function"},{"inputs":[],"name":"renounceOwnership","outputs":[],"stateMutability":"nonpayable","type":"function"},{"inputs":[{"internalType":"uint256","name":"_direct","type":"uint256"},{"internalType":"uint256","name":"_level","type":"uint256"},{"internalType":"uint256","name":"_marketing","type":"uint256"},{"internalType":"uint256","name":"_buyback","type":"uint256"},{"internalType":"uint256","name":"_lp","type":"uint256"},{"internalType":"uint256","name":"_treasury","type":"uint256"}],"name":"setDistributionPercents","outputs":[],"stateMutability":"nonpayable","type":"function"},{"inputs":[{"components":[{"internalType":"uint256","name":"minDirects","type":"uint256"},{"internalType":"uint256","name":"level","type":"uint256"},{"internalType":"uint256","name":"percent","type":"uint256"}],"internalType":"struct JinbaoProtocol.LevelConfig[]","name":"_configs","type":"tuple[]"}],"name":"setLevelConfigs","outputs":[],"stateMutability":"nonpayable","type":"function"},{"inputs":[{"internalType":"bool","name":"_enabled","type":"bool"}],"name":"setLiquidityEnabled","outputs":[],"stateMutability":"nonpayable","type":"function"},{"inputs":[{"internalType":"bool","name":"_enabled","type":"bool"}],"name":"setRedeemEnabled","outputs":[],"stateMutability":"nonpayable","type":"function"},{"inputs":[{"internalType":"uint256","name":"_fee","type":"uint256"}],"name":"setRedemptionFee","outputs":[],"stateMutability":"nonpayable","type":"function"},{"inputs":[{"internalType":"uint256","name":"_buyTax","type":"uint256"},{"internalType":"uint256","name":"_sellTax","type":"uint256"}],"name":"setSwapTaxes","outputs":[],"stateMutability":"nonpayable","type":"function"},{"inputs":[{"internalType":"uint256","name":"_duration","type":"uint256"}],"name":"setTicketFlexibilityDuration","outputs":[],"stateMutability":"nonpayable","type":"function"},{"inputs":[{"internalType":"address","name":"_marketing","type":"address"},{"internalType":"address","name":"_treasury","type":"address"},{"internalType":"address","name":"_lpInjection","type":"address"},{"internalType":"address","name":"_buyback","type":"address"}],"name":"setWallets","outputs":[],"stateMutability":"nonpayable","type":"function"},{"inputs":[{"internalType":"uint256","name":"amount","type":"uint256"},{"internalType":"uint256","name":"cycleDays","type":"uint256"}],"name":"stakeLiquidity","outputs":[],"stateMutability":"nonpayable","type":"function"},{"inputs":[],"name":"swapBuyTax","outputs":[{"internalType":"uint256","name":"","type":"uint256"}],"stateMutability":"view","type":"function"},{"inputs":[{"internalType":"uint256","name":"jbcAmount","type":"uint256"}],"name":"swapJBCToMC","outputs":[],"stateMutability":"nonpayable","type":"function"},{"inputs":[{"internalType":"uint256","name":"mcAmount","type":"uint256"}],"name":"swapMCToJBC","outputs":[],"stateMutability":"nonpayable","type":"function"},{"inputs":[],"name":"swapReserveJBC","outputs":[{"internalType":"uint256","name":"","type":"uint256"}],"stateMutability":"view","type":"function"},{"inputs":[],"name":"swapReserveMC","outputs":[{"internalType":"uint256","name":"","type":"uint256"}],"stateMutability":"view","type":"function"},{"inputs":[],"name":"swapSellTax","outputs":[{"internalType":"uint256","name":"","type":"uint256"}],"stateMutability":"view","type":"function"},{"inputs":[],"name":"ticketFlexibilityDuration","outputs":[{"internalType":"uint256","name":"","type":"uint256"}],"stateMutability":"view","type":"function"},{"inputs":[{"internalType":"uint256","name":"","type":"uint256"}],"name":"ticketOwner","outputs":[{"internalType":"address","name":"","type":"address"}],"stateMutability":"view","type":"function"},{"inputs":[{"internalType":"uint256","name":"","type":"uint256"},{"internalType":"uint256","name":"","type":"uint256"}],"name":"ticketPendingRewards","outputs":[{"internalType":"address","name":"upline","type":"address"},{"internalType":"uint256","name":"amount","type":"uint256"}],"stateMutability":"view","type":"function"},{"inputs":[{"internalType":"address","name":"newOwner","type":"address"}],"name":"transferOwnership","outputs":[],"stateMutability":"nonpayable","type":"function"},{"inputs":[],"name":"treasuryPercent","outputs":[{"internalType":"uint256","name":"","type":"uint256"}],"stateMutability":"view","type":"function"},{"inputs":[],"name":"treasuryWallet","outputs":[{"internalType":"address","name":"","type":"address"}],"stateMutability":"view","type":"function"},{"inputs":[{"internalType":"address","name":"newImplementation","type":"address"},{"internalType":"bytes","name":"data","type":"bytes"}],"name":"upgradeToAndCall","outputs":[],"stateMutability":"payable","type":"function"},{"inputs":[{"internalType":"address","name":"","type":"address"}],"name":"userInfo","outputs":[{"internalType":"address","name":"referrer","type":"address"},{"internalType":"uint256","name":"activeDirects","type":"uint256"},{"internalType":"uint256","name":"teamCount","type":"uint256"},{"internalType":"uint256","name":"totalRevenue","type":"uint256"},{"internalType":"uint256","name":"currentCap","type":"uint256"},{"internalType":"bool","name":"isActive","type":"bool"},{"internalType":"uint256","name":"refundFeeAmount","type":"uint256"}],"stateMutability":"view","type":"function"},{"inputs":[{"internalType":"address","name":"","type":"address"},{"internalType":"uint256","name":"","type":"uint256"}],"name":"userStakes","outputs":[{"internalType":"uint256","name":"id","type":"uint256"},{"internalType":"uint256","name":"amount","type":"uint256"},{"internalType":"uint256","name":"startTime","type":"uint256"},{"internalType":"uint256","name":"cycleDays","type":"uint256"},{"internalType":"bool","name":"active","type":"bool"},{"internalType":"uint256","name":"paid","type":"uint256"}],"stateMutability":"view","type":"function"},{"inputs":[{"internalType":"address","name":"","type":"address"}],"name":"userTicket","outputs":[{"internalType":"uint256","name":"ticketId","type":"uint256"},{"internalType":"uint256","name":"amount","type":"uint256"},{"internalType":"uint256","name":"purchaseTime","type":"uint256"},{"internalType":"bool","name":"exited","type":"bool"}],"stateMutability":"view","type":"function"}],"evm":{"bytecode":{"linkReferences":{},"object":"60a0604052306080523480156200001557600080fd5b506200002062000026565b620000da565b7ff0c57e16840df040f15088dc2f81fe391c3923bec73e23a9662efc9c229c6a00805468010000000000000000900460ff1615620000775760405163f92ee8a960e01b815260040160405180910390fd5b80546001600160401b0390811614620000d75780546001600160401b0319166001600160401b0390811782556040519081527fc7f505b2f371ae2175ee4913f4499e1f2633a7b5936321eed1cdaeb6115181d29060200160405180910390a15b50565b608051616039620001046000396000818161489c015281816148c501526149fd01526160396000f3fe60806040526004361061030a5760003560e01c8063021d28931461030f57806304ef9d581461033157806304f618cb1461035a578063054d50d41461037a57806305ad39351461039a5780630a5c4567146103c75780630e2be210146103e75780630fc4fc1a1461040e5780631427f6161461043b5780631788513c146104505780631959a002146104705780631d0dac761461051657806321f483d31461052c57806327f082f41461055b578063372500ab146105715780633a3ea2f0146105865780634626402b1461059b578063480937de146105bb578063488b5d97146105db5780634ea4c6b3146105f05780634f1ef2861461061057806352778b051461062357806352d1902d146106435780636031a52f1461065857806362eea9141461066e57806367dd74ca1461068e5780636dd66827146106ae5780636fb3c47c146106c4578063715018a6146106e457806375506c96146106f957806375f0a8741461070f57806377a2a5401461072f5780637dbc1df014610745578063813380cd1461076557806381eeef5c1461079357806383672f3e146107a857806386481d40146107c85780638710bcaa146107f657806388fd4d331461085d5780638a859a851461087d5780638c0eaa48146108925780638da5cb5b146108a757806390b0eb51146108bc5780639370b080146108dc57806395253992146108f257806398b8972f146109125780639cd441da146109275780639d99eca414610947578063a2af922614610967578063ad3cb1cc14610987578063b048a4bb146109c5578063b5d5b5fa146109ef578063bd594dcf14610a3e578063be040fb014610a54578063be57479914610a69578063c2ff12fc14610a89578063cc2a9a5b14610abf578063ccf6194414610adf578063ceaa366d14610af5578063d241e00114610b0b578063d2c8e0e514610b2b578063d2f8253614610b58578063d8020a1814610b77578063deab8aea14610b8d578063dec7fa3b14610bad578063e306744914610bc3578063e4412f6814610bd9578063ecda2d3214610bef578063f2fde38b14610c0f575b600080fd5b34801561031b57600080fd5b5061032f61032a366004615750565b610c2f565b005b34801561033d57600080fd5b50610347600b5481565b6040519081526020015b60405180910390f35b34801561036657600080fd5b5061032f610375366004615789565b610c8b565b34801561038657600080fd5b506103476103953660046157a4565b610dd5565b3480156103a657600080fd5b506103ba6103b53660046157d0565b610ea9565b60405161035191906157fa565b3480156103d357600080fd5b5061032f6103e236600461580e565b610ee1565b3480156103f357600080fd5b506103fc600281565b60405160ff9091168152602001610351565b34801561041a57600080fd5b5061042e610429366004615789565b6111d6565b6040516103519190615827565b34801561044757600080fd5b506103fc600081565b34801561045c57600080fd5b506001546103ba906001600160a01b031681565b34801561047c57600080fd5b506104d561048b366004615789565b600f6020526000908152604090208054600182015460028301546003840154600485015460058601546006909601546001600160a01b0390951695939492939192909160ff169087565b604080516001600160a01b03909816885260208801969096529486019390935260608501919091526080840152151560a083015260c082015260e001610351565b34801561052257600080fd5b5061034760185481565b34801561053857600080fd5b5061054c61054736600461580e565b611307565b60405161035193929190615889565b34801561056757600080fd5b50610347600d5481565b34801561057d57600080fd5b5061032f61133a565b34801561059257600080fd5b506103476119bf565b3480156105a757600080fd5b506003546103ba906001600160a01b031681565b3480156105c757600080fd5b5061032f6105d6366004615750565b6119ff565b3480156105e757600080fd5b50610347603c81565b3480156105fc57600080fd5b5061032f61060b36600461589f565b611a48565b61032f61061e36600461592f565b611ef5565b34801561062f57600080fd5b5061032f61063e36600461580e565b611f10565b34801561064f57600080fd5b506103476121ed565b34801561066457600080fd5b5061034760195481565b34801561067a57600080fd5b5061032f6106893660046159d4565b61220a565b34801561069a57600080fd5b5061032f6106a936600461580e565b6122e5565b3480156106ba57600080fd5b5061034760155481565b3480156106d057600080fd5b5061032f6106df366004615a00565b6128a9565b3480156106f057600080fd5b5061032f6128d8565b34801561070557600080fd5b50610347601a5481565b34801561071b57600080fd5b506002546103ba906001600160a01b031681565b34801561073b57600080fd5b5061034760175481565b34801561075157600080fd5b5061032f61076036600461580e565b6128ea565b34801561077157600080fd5b5061078561078036600461589f565b612932565b604051610351929190615a33565b34801561079f57600080fd5b5061032f612978565b3480156107b457600080fd5b5061032f6107c3366004615a4c565b612b73565b3480156107d457600080fd5b506107e86107e336600461580e565b612bcb565b604051610351929190615aa0565b34801561080257600080fd5b5061083b610811366004615789565b60106020526000908152604090208054600182015460028301546003909301549192909160ff1684565b6040805194855260208501939093529183015215156060820152608001610351565b34801561086957600080fd5b506004546103ba906001600160a01b031681565b34801561088957600080fd5b506103fc600181565b34801561089e57600080fd5b506103fc600381565b3480156108b357600080fd5b506103ba612c6e565b3480156108c857600080fd5b5061032f6108d736600461589f565b612c89565b3480156108e857600080fd5b50610347600e5481565b3480156108fe57600080fd5b506000546103ba906001600160a01b031681565b34801561091e57600080fd5b5061032f612ce4565b34801561093357600080fd5b5061032f61094236600461589f565b612ced565b34801561095357600080fd5b5061032f61096236600461580e565b612ea7565b34801561097357600080fd5b5061032f610982366004615aae565b612ee4565b34801561099357600080fd5b506109b8604051806040016040528060058152602001640352e302e360dc1b81525081565b6040516103519190615afc565b3480156109d157600080fd5b506016546109df9060ff1681565b6040519015158152602001610351565b3480156109fb57600080fd5b50610a0f610a0a3660046157d0565b6130bb565b6040805196875260208701959095529385019290925260608401521515608083015260a082015260c001610351565b348015610a4a57600080fd5b5061034760075481565b348015610a6057600080fd5b5061032f613115565b348015610a7557600080fd5b5061032f610a84366004615b2f565b613984565b348015610a9557600080fd5b506103ba610aa436600461580e565b601c602052600090815260409020546001600160a01b031681565b348015610acb57600080fd5b5061032f610ada366004615c02565b613a26565b348015610aeb57600080fd5b5061034760065481565b348015610b0157600080fd5b50610347600a5481565b348015610b1757600080fd5b5061032f610b263660046159d4565b614064565b348015610b3757600080fd5b50610b4b610b46366004615789565b6140f7565b6040516103519190615c76565b348015610b6457600080fd5b506016546109df90610100900460ff1681565b348015610b8357600080fd5b5061034760085481565b348015610b9957600080fd5b506005546103ba906001600160a01b031681565b348015610bb957600080fd5b50610347600c5481565b348015610bcf57600080fd5b50610347601b5481565b348015610be557600080fd5b5061034760095481565b348015610bfb57600080fd5b5061032f610c0a366004615cc3565b61416d565b348015610c1b57600080fd5b5061032f610c2a366004615789565b61427f565b610c376142ba565b601680548215156101000261ff00199091161790556040517f03cb373f89de891077fe47cec43663b6727713de0337af46bebd1178122251b790610c8090831515815260200190565b60405180910390a150565b336000908152600f60205260409020546001600160a01b031615610ce65760405162461bcd60e51b815260206004820152600d60248201526c105b1c9958591e48189bdd5b99609a1b60448201526064015b60405180910390fd5b336001600160a01b03821603610d0e5760405162461bcd60e51b8152600401610cdd90615d06565b6001600160a01b038116610d575760405162461bcd60e51b815260206004820152601060248201526f24b73b30b634b2103932b332b93932b960811b6044820152606401610cdd565b336000818152600f6020908152604080832080546001600160a01b0387166001600160a01b0319918216811790925581855260128452828520805460018101825590865293852090930180549093168517909255519092917fa6dbb5aa28f35437de94d685d66edce5fb4812196b4984b91dfd5a7b38c0fb3091a350565b6000808411610e225760405162461bcd60e51b8152602060048201526019602482015278125b9cdd59999a58da595b9d081a5b9c1d5d08185b5bdd5b9d603a1b6044820152606401610cdd565b600083118015610e325750600082115b610e775760405162461bcd60e51b8152602060048201526016602482015275496e73756666696369656e74206c697175696469747960501b6044820152606401610cdd565b6000610e838386615d46565b90506000610e918686615d5d565b9050610e9d8183615d70565b925050505b9392505050565b60126020528160005260406000208181548110610ec557600080fd5b6000918252602090912001546001600160a01b03169150829050565b610ee96142ec565b60008111610f095760405162461bcd60e51b8152600401610cdd90615d92565b6000546040516323b872dd60e01b81526001600160a01b03909116906323b872dd90610f3d90339030908690600401615dba565b6020604051808303816000875af1158015610f5c573d6000803e3d6000fd5b505050506040513d601f19601f82011682018060405250810190610f809190615dde565b506000610f9282601754601854610dd5565b905060006064600d5483610fa69190615d46565b610fb09190615d70565b90506000610fbe8284615dfb565b6001546040516370a0823160e01b815291925084916001600160a01b03909116906370a0823190610ff39030906004016157fa565b602060405180830381865afa158015611010573d6000803e3d6000fd5b505050506040513d601f19601f820116820180604052508101906110349190615e0e565b101561107f5760405162461bcd60e51b815260206004820152601a602482015279496e73756666696369656e74204a4243206c697175696469747960301b6044820152606401610cdd565b83601760008282546110919190615d5d565b9250508190555082601860008282546110aa9190615dfb565b9091555050600154604051630852cd8d60e31b8152600481018490526001600160a01b03909116906342966c6890602401600060405180830381600087803b1580156110f557600080fd5b505af1158015611109573d6000803e3d6000fd5b505060015460405163a9059cbb60e01b81526001600160a01b03909116925063a9059cbb915061113f9033908590600401615a33565b6020604051808303816000875af115801561115e573d6000803e3d6000fd5b505050506040513d601f19601f820116820180604052508101906111829190615dde565b50336001600160a01b03167f36864aeefce16bc4aaceeb6b0cdfb2ad1455a8cb4ccb0db148a2bc6e7166f97c8583856040516111c093929190615889565b60405180910390a25050506111d3614322565b50565b6001600160a01b03811660009081526012602052604081208054606092906001600160401b0381111561120b5761120b6158c1565b60405190808252806020026020018201604052801561126957816020015b611256604051806060016040528060006001600160a01b0316815260200160008152602001600081525090565b8152602001906001900390816112295790505b50905060005b82548110156112ff57600083828154811061128c5761128c615e27565b60009182526020808320909101546001600160a01b031680835260108252604092839020835160608101855282815260018201549381019390935260028101549383019390935285519093508590859081106112ea576112ea615e27565b6020908102919091010152505060010161126f565b509392505050565b6014818154811061131757600080fd5b600091825260209091206003909102018054600182015460029092015490925083565b6113426142ec565b3360009081526010602052604090206001810154158015906113695750600381015460ff16155b6113a25760405162461bcd60e51b815260206004820152600a6024820152694e6f742061637469766560b01b6044820152606401610cdd565b33600090815260116020526040812090805b82548110156115fe578281815481106113cf576113cf615e27565b600091825260209091206004600690920201015460ff16156115f65760008382815481106113ff576113ff615e27565b90600052602060002090600602016003015460070361142057506014611482565b83828154811061143257611432615e27565b906000526020600020906006020160030154600f0361145357506019611482565b83828154811061146557611465615e27565b906000526020600020906006020160030154601e036114825750601e5b6000603c85848154811061149857611498615e27565b906000526020600020906006020160020154426114b59190615dfb565b6114bf9190615d70565b90508483815481106114d3576114d3615e27565b906000526020600020906006020160030154811115611513578483815481106114fe576114fe615e27565b90600052602060002090600602016003015490505b806000036115225750506115f6565b60006103e8828488878154811061153b5761153b615e27565b9060005260206000209060060201600101546115579190615d46565b6115619190615d46565b61156b9190615d70565b9050600086858154811061158157611581615e27565b9060005260206000209060060201600501549050808211156115f15760006115a98284615dfb565b90506115b58188615d5d565b9650808887815481106115ca576115ca615e27565b906000526020600020906006020160050160008282546115ea9190615d5d565b9091555050505b505050505b6001016113b4565b50600081116116405760405162461bcd60e51b815260206004820152600e60248201526d4e6f206e6577207265776172647360901b6044820152606401610cdd565b336000908152600f602052604090206004810154600390910154611665908390615d5d565b111561169257336000908152600f60205260409020600381015460049091015461168f9190615dfb565b90505b806000036116ab576116a333614333565b5050506119b5565b336000908152600f6020526040812060030180548392906116cd908490615d5d565b90915550600090506116e0600283615d70565b905060006116ef600284615d70565b600080546040516370a0823160e01b8152929350909184916001600160a01b0316906370a08231906117259030906004016157fa565b602060405180830381865afa158015611742573d6000803e3d6000fd5b505050506040513d601f19601f820116820180604052508101906117669190615e0e565b101580156117745750600083115b156117f35760005460405163a9059cbb60e01b81526001600160a01b039091169063a9059cbb906117ab9033908790600401615a33565b6020604051808303816000875af11580156117ca573d6000803e3d6000fd5b505050506040513d601f19601f820116820180604052508101906117ee9190615dde565b508290505b60006117fd6119bf565b905060008161181485670de0b6b3a7640000615d46565b61181e9190615d70565b6001546040516370a0823160e01b815291925060009183916001600160a01b0316906370a08231906118549030906004016157fa565b602060405180830381865afa158015611871573d6000803e3d6000fd5b505050506040513d601f19601f820116820180604052508101906118959190615e0e565b101580156118a35750600082115b156119225760015460405163a9059cbb60e01b81526001600160a01b039091169063a9059cbb906118da9033908690600401615a33565b6020604051808303816000875af11580156118f9573d6000803e3d6000fd5b505050506040513d601f19601f8201168201806040525081019061191d9190615dde565b508190505b336001600160a01b0316600080516020615fc483398151915288600060405161194c929190615e3d565b60405180910390a288546040513391600080516020615f448339815191529161197b9188918691600091615e4e565b60405180910390a2336000908152600f602052604090206004810154600390910154106119ab576119ab33614333565b5050505050505050505b6119bd614322565b565b60006018546000036119d85750670de0b6b3a764000090565b6018546017546119f090670de0b6b3a7640000615d46565b6119fa9190615d70565b905090565b611a076142ba565b6016805460ff19168215159081179091556040519081527fb886fcb5b9c12916f26d967ebe962dbd51ec249fb55961da39c851cdfc10115c90602001610c80565b611a506142ec565b60165460ff16611a8d5760405162461bcd60e51b8152602060048201526008602482015267111a5cd8589b195960c21b6044820152606401610cdd565b3360009081526010602052604090206001810154611ad95760405162461bcd60e51b8152602060048201526009602482015268139bc81d1a58dad95d60ba1b6044820152606401610cdd565b600381015460ff1615611b175760405162461bcd60e51b8152602060048201526006602482015265115e1a5d195960d21b6044820152606401610cdd565b6015548160020154611b299190615d5d565b421115611b625760405162461bcd60e51b8152602060048201526007602482015266115e1c1a5c995960ca1b6044820152606401610cdd565b8160071480611b71575081600f145b80611b7c575081601e145b611bb45760405162461bcd60e51b8152602060048201526009602482015268426164206379636c6560b81b6044820152606401610cdd565b60008311611bd45760405162461bcd60e51b8152600401610cdd90615e6c565b6000546040516323b872dd60e01b81526001600160a01b03909116906323b872dd90611c0890339030908890600401615dba565b6020604051808303816000875af1158015611c27573d6000803e3d6000fd5b505050506040513d601f19601f82011682018060405250810190611c4b9190615dde565b50601a8054906000611c5c83615e8a565b9091555050336000908152601160209081526040808320815160c081018352601a548152808401888152429382019384526060820188815260016080840181815260a0850189815286548084018855968a529789209451600690960290940194855591518483015593516002840155925160038301555160048201805460ff19169115159190911790559151600590920191909155820154611cfd90614671565b90506000611d0a33614690565b905081811015611d465760405162461bcd60e51b81526020600482015260076024820152664c6f77206c697160c81b6044820152606401610cdd565b611d4f33614722565b336001600160a01b03167fa8a1b9e33e503eed12bf7e7c8c01c7f3b60217a496bddd0f5db351dd8c056c1c8686601a54604051611d8e93929190615889565b60405180910390a2336000908152600f60205260409020600601548015611ee557336000908152600f6020526040808220600601829055905490516370a0823160e01b815282916001600160a01b0316906370a0823190611df39030906004016157fa565b602060405180830381865afa158015611e10573d6000803e3d6000fd5b505050506040513d601f19601f82011682018060405250810190611e349190615e0e565b10611ee55760005460405163a9059cbb60e01b81526001600160a01b039091169063a9059cbb90611e6b9033908590600401615a33565b6020604051808303816000875af1158015611e8a573d6000803e3d6000fd5b505050506040513d601f19601f82011682018060405250810190611eae9190615dde565b5060405181815233907f3437b9ea7fa19c6d233dd70cc787a70fab87cee64d8ba4571512cc84402748f99060200160405180910390a25b50505050611ef1614322565b5050565b611efd614891565b611f0682614936565b611ef1828261493e565b611f186142ec565b60008111611f385760405162461bcd60e51b8152600401610cdd90615d92565b6001546040516323b872dd60e01b81526001600160a01b03909116906323b872dd90611f6c90339030908690600401615dba565b6020604051808303816000875af1158015611f8b573d6000803e3d6000fd5b505050506040513d601f19601f82011682018060405250810190611faf9190615dde565b5060006064600e5483611fc29190615d46565b611fcc9190615d70565b90506000611fda8284615dfb565b600154604051630852cd8d60e31b8152600481018590529192506001600160a01b0316906342966c6890602401600060405180830381600087803b15801561202157600080fd5b505af1158015612035573d6000803e3d6000fd5b50505050600061204a82601854601754610dd5565b6000546040516370a0823160e01b815291925082916001600160a01b03909116906370a082319061207f9030906004016157fa565b602060405180830381865afa15801561209c573d6000803e3d6000fd5b505050506040513d601f19601f820116820180604052508101906120c09190615e0e565b101561210a5760405162461bcd60e51b8152602060048201526019602482015278496e73756666696369656e74204d43206c697175696469747960381b6044820152606401610cdd565b816018600082825461211c9190615d5d565b9250508190555080601760008282546121359190615dfb565b909155505060005460405163a9059cbb60e01b81526001600160a01b039091169063a9059cbb9061216c9033908590600401615a33565b6020604051808303816000875af115801561218b573d6000803e3d6000fd5b505050506040513d601f19601f820116820180604052508101906121af9190615dde565b50336001600160a01b03167f223c8ad0806f634524940a8595f819c5cfc7b1f4f4f45791269301df0a7e61d58583866040516111c093929190615889565b60006121f76149f2565b50600080516020615f6483398151915290565b6122126142ba565b600082116122325760405162461bcd60e51b8152600401610cdd90615e6c565b6018548211156122545760405162461bcd60e51b8152600401610cdd90615ea3565b81601860008282546122669190615dfb565b909155505060015460405163a9059cbb60e01b81526001600160a01b039091169063a9059cbb9061229d9084908690600401615a33565b6020604051808303816000875af11580156122bc573d6000803e3d6000fd5b505050506040513d601f19601f820116820180604052508101906122e09190615dde565b505050565b6122ed6142ec565b6122f633614a3b565b8068056bc75e2d631000001480612315575080681043561a8829300000145b80612328575080681b1ae4d6e2ef500000145b8061233b575080683635c9adc5dea00000145b6123715760405162461bcd60e51b815260206004820152600760248201526610985908185b5d60ca1b6044820152606401610cdd565b6000546040516323b872dd60e01b81526001600160a01b03909116906323b872dd906123a590339030908690600401615dba565b6020604051808303816000875af11580156123c4573d6000803e3d6000fd5b505050506040513d601f19601f820116820180604052508101906123e89190615dde565b50336000908152601060205260409020600381015460ff161561246e576019805490600061241583615e8a565b90915550506019548155600181018290554260028201556003808201805460ff19169055336000908152600f60205260408120820155612456908390615d46565b336000908152600f60205260409020600401556124f8565b806001015460000361248a576019805490600061241583615e8a565b8181600101600082825461249e9190615d5d565b9091555050336000908152600f602052604090206005015460ff16156124c5574260028201555b6124d0826003615d46565b336000908152600f6020526040812060040180549091906124f2908490615d5d565b90915550505b80546000908152601c6020908152604080832080546001600160a01b031916339081179091558352600f9091529020546001600160a01b0316801580159061255b57506001600160a01b0381166000908152600f602052604090206005015460ff165b156125d45760006064600654856125729190615d46565b61257c9190615d70565b9050600061258c83836002614c12565b905080156125cd57835460405133916001600160a01b03861691600080516020615f24833981519152916125c4918691600291615ec1565b60405180910390a35b505061266a565b6000546002546006546001600160a01b039283169263a9059cbb9216906064906125fe9088615d46565b6126089190615d70565b6040518363ffffffff1660e01b8152600401612625929190615a33565b6020604051808303816000875af1158015612644573d6000803e3d6000fd5b505050506040513d601f19601f820116820180604052508101906126689190615dde565b505b3360008181526010602052604090205461268691908590614da9565b6000546002546008546001600160a01b039283169263a9059cbb9216906064906126b09088615d46565b6126ba9190615d70565b6040518363ffffffff1660e01b81526004016126d7929190615a33565b6020604051808303816000875af11580156126f6573d6000803e3d6000fd5b505050506040513d601f19601f8201168201806040525081019061271a9190615dde565b50600060646009548561272d9190615d46565b6127379190615d70565b905061274281614fe7565b600054600454600a546001600160a01b039283169263a9059cbb92169060649061276c9089615d46565b6127769190615d70565b6040518363ffffffff1660e01b8152600401612793929190615a33565b6020604051808303816000875af11580156127b2573d6000803e3d6000fd5b505050506040513d601f19601f820116820180604052508101906127d69190615dde565b50600054600354600b546001600160a01b039283169263a9059cbb9216906064906128019089615d46565b61280b9190615d70565b6040518363ffffffff1660e01b8152600401612828929190615a33565b6020604051808303816000875af1158015612847573d6000803e3d6000fd5b505050506040513d601f19601f8201168201806040525081019061286b9190615dde565b5061287533614722565b825460405133917f2a91574e12ad96234e84923e146b0946ecfb871cd8d5534dc1fdcbe87a7c01b3916111c0918891615aa0565b6128b16142ba565b6001600160a01b039092166000908152600f60205260409020600181019190915560020155565b6128e06142ba565b6119bd60006151e6565b6128f26142ba565b603281111561292d5760405162461bcd60e51b81526020600482015260076024820152664665653e35302560c81b6044820152606401610cdd565b600c55565b6013602052816000526040600020818154811061294e57600080fd5b6000918252602090912060029091020180546001909101546001600160a01b039091169250905082565b601b546129889062015180615d5d565b4210156129c35760405162461bcd60e51b8152602060048201526009602482015268546f6f206561726c7960b81b6044820152606401610cdd565b600060185411612a035760405162461bcd60e51b815260206004820152600b60248201526a4e6f20726573657276657360a81b6044820152606401610cdd565b60006064601854612a149190615d70565b90508015612b6c576001546040516370a0823160e01b815282916001600160a01b0316906370a0823190612a4c9030906004016157fa565b602060405180830381865afa158015612a69573d6000803e3d6000fd5b505050506040513d601f19601f82011682018060405250810190612a8d9190615e0e565b1015612ace5760405162461bcd60e51b815260206004820152601060248201526f496e73756666696369656e74204a424360801b6044820152606401610cdd565b8060186000828254612ae09190615dfb565b9091555050600154604051630852cd8d60e31b8152600481018390526001600160a01b03909116906342966c6890602401600060405180830381600087803b158015612b2b57600080fd5b505af1158015612b3f573d6000803e3d6000fd5b50505050600080516020615fa4833981519152600082604051612b63929190615aa0565b60405180910390a15b5042601b55565b612b7b6142ba565b600280546001600160a01b039586166001600160a01b0319918216179091556003805494861694821694909417909355600480549285169284169290921790915560058054919093169116179055565b60008060005b601454811015612c625760148181548110612bee57612bee615e27565b9060005260206000209060030201600001548410612c5a5760148181548110612c1957612c19615e27565b90600052602060002090600302016001015460148281548110612c3e57612c3e615e27565b9060005260206000209060030201600201549250925050915091565b600101612bd1565b50600093849350915050565b600080612c79615242565b546001600160a01b031692915050565b612c916142ba565b60328211158015612ca3575060328111155b612cd95760405162461bcd60e51b81526020600482015260076024820152665461783e35302560c81b6044820152606401610cdd565b600d91909155600e55565b6119bd33614a3b565b612cf56142ba565b6000821180612d045750600081115b612d3e5760405162461bcd60e51b815260206004820152600b60248201526a16995c9bc8185b5bdd5b9d60aa1b6044820152606401610cdd565b8115612dd4576000546040516323b872dd60e01b81526001600160a01b03909116906323b872dd90612d7890339030908790600401615dba565b6020604051808303816000875af1158015612d97573d6000803e3d6000fd5b505050506040513d601f19601f82011682018060405250810190612dbb9190615dde565b508160176000828254612dce9190615d5d565b90915550505b8015612e6a576001546040516323b872dd60e01b81526001600160a01b03909116906323b872dd90612e0e90339030908690600401615dba565b6020604051808303816000875af1158015612e2d573d6000803e3d6000fd5b505050506040513d601f19601f82011682018060405250810190612e519190615dde565b508060186000828254612e649190615d5d565b90915550505b7f38f8a0c92f4c5b0b6877f878cb4c0c8d348a47b76d716c8e78f425043df9515b8282604051612e9b929190615aa0565b60405180910390a15050565b612eaf6142ba565b60158190556040518181527fd28d9e4ce68d89af7920cb8618e342a78f51e545c530ce60f1cb1d6f0235b47f90602001610c80565b612eec6142ba565b806001600160a01b0316826001600160a01b031603612f1d5760405162461bcd60e51b8152600401610cdd90615d06565b6001600160a01b038083166000908152600f6020526040902080548383166001600160a01b031982161790915516801561306a576001600160a01b0381166000908152601260205260408120905b815481101561306757846001600160a01b0316828281548110612f9057612f90615e27565b6000918252602090912001546001600160a01b03160361305f5781548290612fba90600190615dfb565b81548110612fca57612fca615e27565b9060005260206000200160009054906101000a90046001600160a01b0316828281548110612ffa57612ffa615e27565b9060005260206000200160006101000a8154816001600160a01b0302191690836001600160a01b031602179055508180548061303857613038615eda565b600082815260209020810160001990810180546001600160a01b0319169055019055613067565b600101612f6b565b50505b6001600160a01b038216156122e057506001600160a01b0390811660009081526012602090815260408220805460018101825590835291200180546001600160a01b03191692909116919091179055565b601160205281600052604060002081815481106130d757600080fd5b600091825260209091206006909102018054600182015460028301546003840154600485015460059095015493965091945092909160ff9091169086565b61311d6142ec565b601654610100900460ff166131665760405162461bcd60e51b815260206004820152600f60248201526e14995919595b48191a5cd8589b1959608a1b6044820152606401610cdd565b336000908152601160205260408120908080805b84548110156134b55784818154811061319557613195615e27565b600091825260209091206004600690920201015460ff16156134ad576000603c8683815481106131c7576131c7615e27565b9060005260206000209060060201600301546131e39190615d46565b8683815481106131f5576131f5615e27565b9060005260206000209060060201600201546132119190615d5d565b90508042106134ab57600086838154811061322e5761322e615e27565b90600052602060002090600602016003015460070361324f575060146132b1565b86838154811061326157613261615e27565b906000526020600020906006020160030154600f03613282575060196132b1565b86838154811061329457613294615e27565b906000526020600020906006020160030154601e036132b15750601e5b60006103e88885815481106132c8576132c8615e27565b906000526020600020906006020160030154838a87815481106132ed576132ed615e27565b9060005260206000209060060201600101546133099190615d46565b6133139190615d46565b61331d9190615d70565b9050600088858154811061333357613333615e27565b90600052602060002090600602016005015482111561337e5788858154811061335e5761335e615e27565b9060005260206000209060060201600501548261337b9190615dfb565b90505b6133888187615d5d565b95508089868154811061339d5761339d615e27565b906000526020600020906006020160050160008282546133bd9190615d5d565b92505081905550600061012c600c548b88815481106133de576133de615e27565b90600052602060002090600602016001015460026133fc9190615d46565b6134069190615d46565b6134109190615d70565b905060008a878154811061342657613426615e27565b90600052602060002090600602016001015490508181106134525761344b8282615dfb565b9050613457565b600091505b613461818b615d5d565b995061346d828a615d5d565b985060008b888154811061348357613483615e27565b60009182526020909120600690910201600401805460ff191691151591909117905550505050505b505b60010161317a565b5060008311806134c55750600081115b6135055760405162461bcd60e51b81526020600482015260116024820152704e6f7468696e6720746f2072656465656d60781b6044820152606401610cdd565b801561386057336000908152600f60205260408120600381015460049091015461352f9190615dfb565b90508082111561356e57336001600160a01b0316600080516020615f848339815191528383604051613562929190615aa0565b60405180910390a28091505b811561385e57336000908152600f602052604081206003018054849290613596908490615d5d565b90915550600090506135a9600284615d70565b905060006135b8600285615d70565b600080546040516370a0823160e01b8152929350909184916001600160a01b0316906370a08231906135ee9030906004016157fa565b602060405180830381865afa15801561360b573d6000803e3d6000fd5b505050506040513d601f19601f8201168201806040525081019061362f9190615e0e565b1015801561363d5750600083115b156136bc5760005460405163a9059cbb60e01b81526001600160a01b039091169063a9059cbb906136749033908790600401615a33565b6020604051808303816000875af1158015613693573d6000803e3d6000fd5b505050506040513d601f19601f820116820180604052508101906136b79190615dde565b508290505b60006136c66119bf565b90506000816136dd85670de0b6b3a7640000615d46565b6136e79190615d70565b6001546040516370a0823160e01b815291925060009183916001600160a01b0316906370a082319061371d9030906004016157fa565b602060405180830381865afa15801561373a573d6000803e3d6000fd5b505050506040513d601f19601f8201168201806040525081019061375e9190615e0e565b1015801561376c5750600082115b156137eb5760015460405163a9059cbb60e01b81526001600160a01b039091169063a9059cbb906137a39033908690600401615a33565b6020604051808303816000875af11580156137c2573d6000803e3d6000fd5b505050506040513d601f19601f820116820180604052508101906137e69190615dde565b508190505b336001600160a01b0316600080516020615fc4833981519152896000604051613815929190615e3d565b60405180910390a233600081815260106020526040808220549051600080516020615f448339815191529261384f92899287929190615e4e565b60405180910390a25050505050505b505b82156138dd5760005460405163a9059cbb60e01b81526001600160a01b039091169063a9059cbb906138989033908790600401615a33565b6020604051808303816000875af11580156138b7573d6000803e3d6000fd5b505050506040513d601f19601f820116820180604052508101906138db9190615dde565b505b336000908152600f6020526040812060060180548492906138ff908490615d5d565b90915550506040513390600080516020615fe4833981519152906139269086908690615aa0565b60405180910390a23360009081526010602052604090205461394790615266565b61395033614722565b336000908152600f602052604090206004810154600390910154106139785761397833614333565b505050506119bd614322565b61398c6142ba565b613998601460006156b4565b60005b81518110156139f95760148282815181106139b8576139b8615e27565b60209081029190910181015182546001818101855560009485529383902082516003909202019081559181015182840155604001516002909101550161399b565b506040517f81086beec7078a58d4155c0b0d7d98e4d4df580e4737331309687e6ab8a6944090600090a150565b6000613a3061542d565b805490915060ff600160401b82041615906001600160401b0316600081158015613a575750825b90506000826001600160401b03166001148015613a735750303b155b905081158015613a81575080155b15613a9f5760405163f92ee8a960e01b815260040160405180910390fd5b84546001600160401b03191660011785558315613ac857845460ff60401b1916600160401b1785555b613ad133615456565b613ad9615467565b613ae1615477565b8a6000806101000a8154816001600160a01b0302191690836001600160a01b0316021790555089600160006101000a8154816001600160a01b0302191690836001600160a01b0316021790555088600260006101000a8154816001600160a01b0302191690836001600160a01b0316021790555087600360006101000a8154816001600160a01b0302191690836001600160a01b0316021790555086600460006101000a8154816001600160a01b0302191690836001600160a01b0316021790555085600560006101000a8154816001600160a01b0302191690836001600160a01b031602179055506019600681905550600f600781905550600560088190555060056009819055506019600a819055506019600b819055506001600c819055506032600d819055506019600e819055506203f4806015819055506001601660006101000a81548160ff0219169083151502179055506001601660016101000a81548160ff02191690831515021790555042601b8190555060146040518060600160405280620186a0815260200160098152602001602d81525090806001815401808255809150506001900390600052602060002090600302016000909190919091506000820151816000015560208201518160010155604082015181600201555050601460405180606001604052806175308152602001600881526020016028815250908060018154018082558091505060019003906000526020600020906003020160009091909190915060008201518160000155602082015181600101556040820151816002015550506014604051806060016040528061271081526020016007815260200160238152509080600181540180825580915050600190039060005260206000209060030201600090919091909150600082015181600001556020820151816001015560408201518160020155505060146040518060600160405280610bb8815260200160068152602001601e81525090806001815401808255809150506001900390600052602060002090600302016000909190919091506000820151816000015560208201518160010155604082015181600201555050601460405180606001604052806103e88152602001600581526020016019815250908060018154018082558091505060019003906000526020600020906003020160009091909190915060008201518160000155602082015181600101556040820151816002015550506014604051806060016040528061012c815260200160048152602001601481525090806001815401808255809150506001900390600052602060002090600302016000909190919091506000820151816000015560208201518160010155604082015181600201555050601460405180606001604052806064815260200160038152602001600f8152509080600181540180825580915050600190039060005260206000209060030201600090919091909150600082015181600001556020820151816001015560408201518160020155505060146040518060600160405280601e815260200160028152602001600a8152509080600181540180825580915050600190039060005260206000209060030201600090919091909150600082015181600001556020820151816001015560408201518160020155505060146040518060600160405280600a815260200160018152602001600581525090806001815401808255809150506001900390600052602060002090600302016000909190919091506000820151816000015560208201518160010155604082015181600201555050831561405757845460ff60401b19168555604051600181527fc7f505b2f371ae2175ee4913f4499e1f2633a7b5936321eed1cdaeb6115181d29060200160405180910390a15b5050505050505050505050565b61406c6142ba565b6000821161408c5760405162461bcd60e51b8152600401610cdd90615e6c565b6017548211156140ae5760405162461bcd60e51b8152600401610cdd90615ea3565b81601760008282546140c09190615dfb565b909155505060005460405163a9059cbb60e01b81526001600160a01b039091169063a9059cbb9061229d9084908690600401615a33565b6001600160a01b03811660009081526012602090815260409182902080548351818402810184019094528084526060939283018282801561416157602002820191906000526020600020905b81546001600160a01b03168152600190910190602001808311614143575b50505050509050919050565b6141756142ba565b80828486614183898b615d5d565b61418d9190615d5d565b6141979190615d5d565b6141a19190615d5d565b6141ab9190615d5d565b6064146141e55760405162461bcd60e51b8152602060048201526008602482015267053756d213d3130360c41b6044820152606401610cdd565b603286111580156141f7575060328511155b8015614204575060328411155b8015614211575060328311155b801561421e575060328211155b801561422b575060328111155b6142625760405162461bcd60e51b8152602060048201526008602482015267526174653e35302560c01b6044820152606401610cdd565b600695909555600793909355600891909155600955600a55600b55565b6142876142ba565b6001600160a01b0381166142b1576000604051631e4fbdf760e01b8152600401610cdd91906157fa565b6111d3816151e6565b336142c3612c6e565b6001600160a01b0316146119bd573360405163118cdaa760e01b8152600401610cdd91906157fa565b60006142f661547f565b80549091506001190161431c57604051633ee5aeb560e01b815260040160405180910390fd5b60029055565b600061432c61547f565b6001905550565b6001600160a01b0381166000908152601060205260409020600381015460ff16611ef15760038101805460ff191660011790556001600160a01b03821660009081526011602052604081209080805b83548110156144a55783818154811061439d5761439d615e27565b600091825260209091206004600690920201015460ff161561449d57600061012c600c548684815481106143d3576143d3615e27565b90600052602060002090600602016001015460026143f19190615d46565b6143fb9190615d46565b6144059190615d70565b9050600085838154811061441b5761441b615e27565b9060005260206000209060060201600101549050818110614447576144408282615dfb565b905061444c565b600091505b6144568186615d5d565b94506144628285615d5d565b9350600086848154811061447857614478615e27565b60009182526020909120600690910201600401805460ff191691151591909117905550505b600101614382565b5081156145235760005460405163a9059cbb60e01b81526001600160a01b039091169063a9059cbb906144de9088908690600401615a33565b6020604051808303816000875af11580156144fd573d6000803e3d6000fd5b505050506040513d601f19601f820116820180604052508101906145219190615dde565b505b801561455a576001600160a01b0385166000908152600f602052604081206006018054839290614554908490615d5d565b90915550505b6001600160a01b038086166000908152600f6020526040902060058101805460ff198116909155905460ff909116911681801561459f57506001600160a01b03811615155b80156145c557506001600160a01b0381166000908152600f602052604090206001015415155b156145f7576001600160a01b0381166000908152600f602052604081206001018054916145f183615ef0565b91905055505b866001600160a01b0316600080516020615fe48339815191528585604051614620929190615aa0565b60405180910390a285546040519081526001600160a01b038816907f920bb94eb3842a728db98228c375ff6b00c5bc5a54fac6736155517a0a20a61a9060200160405180910390a250505050505050565b60006002614680836003615d46565b61468a9190615d70565b92915050565b6001600160a01b0381166000908152601160205260408120815b815481101561471b578181815481106146c5576146c5615e27565b600091825260209091206004600690920201015460ff1615614713578181815481106146f3576146f3615e27565b906000526020600020906006020160010154836147109190615d5d565b92505b6001016146aa565b5050919050565b6001600160a01b0381166000908152601060205260408120600181015490919015614759576147548260010154614671565b61475c565b60005b905060008083600101541180156147785750600383015460ff16155b80156147845750600082115b801561479857508161479585614690565b10155b6001600160a01b0385166000908152600f602052604090206005015490915060ff16801515821515036147cc575050505050565b6001600160a01b038581166000908152600f6020526040902060058101805460ff191685151517905554168061480457505050505050565b821561483b576001600160a01b0381166000908152600f6020526040812060010180549161483183615e8a565b9190505550614889565b6001600160a01b0381166000908152600f602052604090206001015415614889576001600160a01b0381166000908152600f6020526040812060010180549161488383615ef0565b91905055505b505050505050565b306001600160a01b037f000000000000000000000000000000000000000000000000000000000000000016148061491857507f00000000000000000000000000000000000000000000000000000000000000006001600160a01b031661490c600080516020615f64833981519152546001600160a01b031690565b6001600160a01b031614155b156119bd5760405163703e46dd60e11b815260040160405180910390fd5b6111d36142ba565b816001600160a01b03166352d1902d6040518163ffffffff1660e01b8152600401602060405180830381865afa925050508015614998575060408051601f3d908101601f1916820190925261499591810190615e0e565b60015b6149b75781604051634c9c8ce360e01b8152600401610cdd91906157fa565b600080516020615f6483398151915281146149e857604051632a87526960e21b815260048101829052602401610cdd565b6122e083836154a3565b306001600160a01b037f000000000000000000000000000000000000000000000000000000000000000016146119bd5760405163703e46dd60e11b815260040160405180910390fd5b6001600160a01b038116600090815260106020526040902060018101541580614a685750600381015460ff165b15614a71575050565b6000614a7c83614690565b1115614a86575050565b6015548160020154614a989190615d5d565b4211614aa2575050565b805460018201546001600160a01b038085166000908152600f60205260409020805460059091015491169060ff168015614ae457506001600160a01b03811615155b8015614b0a57506001600160a01b0381166000908152600f602052604090206001015415155b15614b3c576001600160a01b0381166000908152600f60205260408120600101805491614b3683615ef0565b91905055505b6001600160a01b0385166000908152600f6020526040812060058101805460ff19908116909155600380830184905560049092018390558287556001870183905560028701929092558501805490911690558215614bc8576000838152601360205260408120614bab916156d5565b6000838152601c6020526040902080546001600160a01b03191690555b846001600160a01b03167f57025f0027038907eda728b59164fb63d06048f42e618a35267e6a12e49b2e468484604051614c03929190615aa0565b60405180910390a25050505050565b6001600160a01b0383166000908152600f6020908152604080832060109092528220600582015460ff161580614c4c5750600381015460ff165b80614c5957506001810154155b15614c6957600092505050610ea2565b600082600301548360040154614c7f9190615dfb565b90508581811115614cbf57819050876001600160a01b0316600080516020615f848339815191528884604051614cb6929190615aa0565b60405180910390a25b8015614d865780846003016000828254614cd99190615d5d565b909155505060005460405163a9059cbb60e01b81526001600160a01b039091169063a9059cbb90614d10908b908590600401615a33565b6020604051808303816000875af1158015614d2f573d6000803e3d6000fd5b505050506040513d601f19601f82011682018060405250810190614d539190615dde565b50876001600160a01b0316600080516020615fc48339815191528288604051614d7d929190615e3d565b60405180910390a25b8360040154846003015410614d9e57614d9e88614333565b979650505050505050565b6001600160a01b038084166000908152600f602052604081205490911690805b6001600160a01b03831615801590614de15750601481105b15614889576001600160a01b0383166000908152600f602052604090206005015460ff16614e39576001600160a01b039283166000908152600f60205260409020549092169180614e3181615e8a565b915050614dc9565b6001600160a01b038316600090815260106020526040902060018101541580614e665750600381015460ff165b15614e9c576001600160a01b039384166000908152600f60205260409020549093169281614e9381615e8a565b92505050614dc9565b6001600160a01b0384166000908152600f6020526040812060010154614ec190612bcb565b91505083811115614fa6576000614ed88583615dfb565b60018401549091508890811115614ef0575060018301545b60006064614efe8484615d46565b614f089190615d70565b60008a8152601360209081526040808320815180830183526001600160a01b038e8116808352828601888152845460018082018755958952978790209351600290980290930180546001600160a01b0319169790921696909617815590519101555183815292935090918b917fbd5e0947444d5adb46b3d24786f72907c1e8176cb1348960766a6cd6fad13e9f910160405180910390a38396505050505b602d8110614fb5575050614889565b6001600160a01b039485166000908152600f60205260409020549094169382614fdd81615e8a565b9350505050614dc9565b80600003614ff25750565b60175415806150015750601854155b156150095750565b806017546150179190615d5d565b6000546040516370a0823160e01b81526001600160a01b03909116906370a08231906150479030906004016157fa565b602060405180830381865afa158015615064573d6000803e3d6000fd5b505050506040513d601f19601f820116820180604052508101906150889190615e0e565b10156150915750565b60006150a282601754601854610dd5565b90508015806150b2575060185481115b156150bb575050565b6018546001546040516370a0823160e01b81526001600160a01b03909116906370a08231906150ee9030906004016157fa565b602060405180830381865afa15801561510b573d6000803e3d6000fd5b505050506040513d601f19601f8201168201806040525081019061512f9190615e0e565b1015615139575050565b816017600082825461514b9190615d5d565b9250508190555080601860008282546151649190615dfb565b9091555050600154604051630852cd8d60e31b8152600481018390526001600160a01b03909116906342966c6890602401600060405180830381600087803b1580156151af57600080fd5b505af11580156151c3573d6000803e3d6000fd5b50505050600080516020615fa48339815191528282604051612e9b929190615aa0565b60006151f0615242565b80546001600160a01b038481166001600160a01b031983168117845560405193945091169182907f8be0079c531659141344cd1fd0a4f28419497f9722a3daafe3b4186f6b6457e090600090a3505050565b7f9016d09d72d40fdae2fd8ceac6b6234c7706214fd39c1cd1e609a0528c19930090565b6000818152601c60209081526040808320546013835281842080548351818602810186019094528084526001600160a01b039092169493909190849084015b828210156152ed576000848152602090819020604080518082019091526002850290910180546001600160a01b031682526001908101548284015290835290920191016152a5565b50505050905060005b815181101561541557600061534783838151811061531657615316615e27565b60200260200101516000015184848151811061533457615334615e27565b6020026020010151602001516003614c12565b905080156153ab57836001600160a01b031683838151811061536b5761536b615e27565b6020026020010151600001516001600160a01b0316600080516020615f24833981519152836003896040516153a293929190615ec1565b60405180910390a35b8282815181106153bd576153bd615e27565b6020026020010151600001516001600160a01b0316857f380d782ec118e5171a4d1e7081db076c4c94ca49c623d531763d402b094b4f248360405161540491815260200190565b60405180910390a3506001016152f6565b5060008381526013602052604081206122e0916156d5565b6000807ff0c57e16840df040f15088dc2f81fe391c3923bec73e23a9662efc9c229c6a0061468a565b61545e6154f9565b6111d38161551e565b61546f6154f9565b6119bd615526565b6119bd6154f9565b7f9b779b17422d0df92223018b32b4d1fa46e071723d6817e2486d003becc55f0090565b6154ac8261552e565b6040516001600160a01b038316907fbc7cd75a20ee27fd9adebab32041f755214dbc6bffa90cc0225b39da2e5c2d3b90600090a28051156154f1576122e0828261558a565b611ef1615600565b61550161561f565b6119bd57604051631afcd79f60e31b815260040160405180910390fd5b6142876154f9565b6143226154f9565b806001600160a01b03163b60000361555b5780604051634c9c8ce360e01b8152600401610cdd91906157fa565b600080516020615f6483398151915280546001600160a01b0319166001600160a01b0392909216919091179055565b6060600080846001600160a01b0316846040516155a79190615f07565b600060405180830381855af49150503d80600081146155e2576040519150601f19603f3d011682016040523d82523d6000602084013e6155e7565b606091505b50915091506155f7858383615639565b95945050505050565b34156119bd5760405163b398979f60e01b815260040160405180910390fd5b600061562961542d565b54600160401b900460ff16919050565b60608261564e576156498261568c565b610ea2565b815115801561566557506001600160a01b0384163b155b156156855783604051639996b31560e01b8152600401610cdd91906157fa565b5080610ea2565b80511561569b57805160208201fd5b60405163d6bda27560e01b815260040160405180910390fd5b50805460008255600302906000526020600020908101906111d391906156f6565b50805460008255600202906000526020600020908101906111d3919061571c565b5b808211156157185760008082556001820181905560028201556003016156f7565b5090565b5b808211156157185780546001600160a01b03191681556000600182015560020161571d565b80151581146111d357600080fd5b60006020828403121561576257600080fd5b8135610ea281615742565b80356001600160a01b038116811461578457600080fd5b919050565b60006020828403121561579b57600080fd5b610ea28261576d565b6000806000606084860312156157b957600080fd5b505081359360208301359350604090920135919050565b600080604083850312156157e357600080fd5b6157ec8361576d565b946020939093013593505050565b6001600160a01b0391909116815260200190565b60006020828403121561582057600080fd5b5035919050565b602080825282518282018190526000919060409081850190868401855b8281101561587c57815180516001600160a01b0316855286810151878601528501518585015260609093019290850190600101615844565b5091979650505050505050565b9283526020830191909152604082015260600190565b600080604083850312156158b257600080fd5b50508035926020909101359150565b634e487b7160e01b600052604160045260246000fd5b604051606081016001600160401b03811182821017156158f9576158f96158c1565b60405290565b604051601f8201601f191681016001600160401b0381118282101715615927576159276158c1565b604052919050565b6000806040838503121561594257600080fd5b61594b8361576d565b91506020838101356001600160401b038082111561596857600080fd5b818601915086601f83011261597c57600080fd5b81358181111561598e5761598e6158c1565b6159a0601f8201601f191685016158ff565b915080825287848285010111156159b657600080fd5b80848401858401376000848284010152508093505050509250929050565b600080604083850312156159e757600080fd5b823591506159f76020840161576d565b90509250929050565b600080600060608486031215615a1557600080fd5b615a1e8461576d565b95602085013595506040909401359392505050565b6001600160a01b03929092168252602082015260400190565b60008060008060808587031215615a6257600080fd5b615a6b8561576d565b9350615a796020860161576d565b9250615a876040860161576d565b9150615a956060860161576d565b905092959194509250565b918252602082015260400190565b60008060408385031215615ac157600080fd5b615aca8361576d565b91506159f76020840161576d565b60005b83811015615af3578181015183820152602001615adb565b50506000910152565b6020815260008251806020840152615b1b816040850160208701615ad8565b601f01601f19169190910160400192915050565b60006020808385031215615b4257600080fd5b82356001600160401b0380821115615b5957600080fd5b818501915085601f830112615b6d57600080fd5b813581811115615b7f57615b7f6158c1565b615b8d848260051b016158ff565b81815284810192506060918202840185019188831115615bac57600080fd5b938501935b82851015615bf65780858a031215615bc95760008081fd5b615bd16158d7565b8535815286860135878201526040808701359082015284529384019392850192615bb1565b50979650505050505050565b60008060008060008060c08789031215615c1b57600080fd5b615c248761576d565b9550615c326020880161576d565b9450615c406040880161576d565b9350615c4e6060880161576d565b9250615c5c6080880161576d565b9150615c6a60a0880161576d565b90509295509295509295565b6020808252825182820181905260009190848201906040850190845b81811015615cb75783516001600160a01b031683529284019291840191600101615c92565b50909695505050505050565b60008060008060008060c08789031215615cdc57600080fd5b505084359660208601359650604086013595606081013595506080810135945060a0013592509050565b60208082526010908201526f21b0b73737ba103134b7321039b2b63360811b604082015260600190565b634e487b7160e01b600052601160045260246000fd5b808202811582820484141761468a5761468a615d30565b8082018082111561468a5761468a615d30565b600082615d8d57634e487b7160e01b600052601260045260246000fd5b500490565b6020808252600e908201526d125b9d985b1a5908185b5bdd5b9d60921b604082015260600190565b6001600160a01b039384168152919092166020820152604081019190915260600190565b600060208284031215615df057600080fd5b8151610ea281615742565b8181038181111561468a5761468a615d30565b600060208284031215615e2057600080fd5b5051919050565b634e487b7160e01b600052603260045260246000fd5b91825260ff16602082015260400190565b938452602084019290925260ff166040830152606082015260800190565b6020808252600490820152635a65726f60e01b604082015260600190565b600060018201615e9c57615e9c615d30565b5060010190565b60208082526004908201526327bb32b960e11b604082015260600190565b92835260ff919091166020830152604082015260600190565b634e487b7160e01b600052603160045260246000fd5b600081615eff57615eff615d30565b506000190190565b60008251615f19818460208701615ad8565b919091019291505056fe9b3cc71482a1b2eebe764a739f46f1fe99291fd0183be81951532b29d0c9c8da6fcebd0a2ce98b28cb391d6008bbc769378c9a4919628e11639cb575cd320fcc360894a13ba1a3210667c828492db98dca3e2076cc3735a920a3ca505d382bbcb5987aab1afd379f6695f1068869ee8ca6a0d02304c57935a9cc3d3ea2e51e4d0ec3929061cbbbeecb325623e7d5a86c3dae11cb8a22ca45dc0972955657da25f381583145e90b82cc5e529bf4fc4d0e44397174cdf145c4251ac33ef195a424f3a670cd3af7d64b488926880889d08a8585a138ff455227af6737339a1ec262a26469706673582212209b3e0762786438a264980af09c55557443af7e36e1f7cba86061f99ce4c964a264736f6c63430008160033","opcodes":"PUSH1 0xA0 PUSH1 0x40 MSTORE ADDRESS PUSH1 0x80 MSTORE CALLVALUE DUP1 ISZERO PUSH3 0x15 JUMPI PUSH1 0x0 DUP1 REVERT JUMPDEST POP PUSH3 0x20 PUSH3 0x26 JUMP JUMPDEST PUSH3 0xDA JUMP JUMPDEST PUSH32 0xF0C57E16840DF040F15088DC2F81FE391C3923BEC73E23A9662EFC9C229C6A00 DUP1 SLOAD PUSH9 0x10000000000000000 SWAP1 DIV PUSH1 0xFF AND ISZERO PUSH3 0x77 JUMPI PUSH1 0x40 MLOAD PUSH4 0xF92EE8A9 PUSH1 0xE0 SHL DUP2 MSTORE PUSH1 0x4 ADD PUSH1 0x40 MLOAD DUP1 SWAP2 SUB SWAP1 REVERT JUMPDEST DUP1 SLOAD PUSH1 0x1 PUSH1 0x1 PUSH1 0x40 SHL SUB SWAP1 DUP2 AND EQ PUSH3 0xD7 JUMPI DUP1 SLOAD PUSH1 0x1 PUSH1 0x1 PUSH1 0x40 SHL SUB NOT AND PUSH1 0x1 PUSH1 0x1 PUSH1 0x40 SHL SUB SWAP1 DUP2 OR DUP3 SSTORE PUSH1 0x40 MLOAD SWAP1 DUP2 MSTORE PUSH32 0xC7F505B2F371AE2175EE4913F4499E1F2633A7B5936321EED1CDAEB6115181D2 SWAP1 PUSH1 0x20 ADD PUSH1 0x40 MLOAD DUP1 SWAP2 SUB SWAP1 LOG1 JUMPDEST POP JUMP JUMPDEST PUSH1 0x80 MLOAD PUSH2 0x6039 PUSH3 0x104 PUSH1 0x0 CODECOPY PUSH1 0x0 DUP2 DUP2 PUSH2 0x489C ADD MSTORE DUP2 DUP2 PUSH2 0x48C5 ADD MSTORE PUSH2 0x49FD ADD MSTORE PUSH2 0x6039 PUSH1 0x0 RETURN INVALID PUSH1 0x80 PUSH1 0x40 MSTORE PUSH1 0x4 CALLDATASIZE LT PUSH2 0x30A JUMPI PUSH1 0x0 CALLDATALOAD PUSH1 0xE0 SHR DUP1 PUSH4 0x21D2893 EQ PUSH2 0x30F JUMPI DUP1 PUSH4 0x4EF9D58 EQ PUSH2 0x331 JUMPI DUP1 PUSH4 0x4F618CB EQ PUSH2 0x35A JUMPI DUP1 PUSH4 0x54D50D4 EQ PUSH2 0x37A JUMPI DUP1 PUSH4 0x5AD3935 EQ PUSH2 0x39A JUMPI DUP1 PUSH4 0xA5C4567 EQ PUSH2 0x3C7 JUMPI DUP1 PUSH4 0xE2BE210 EQ PUSH2 0x3E7 JUMPI DUP1 PUSH4 0xFC4FC1A EQ PUSH2 0x40E JUMPI DUP1 PUSH4 0x1427F616 EQ PUSH2 0x43B JUMPI DUP1 PUSH4 0x1788513C EQ PUSH2 0x450 JUMPI DUP1 PUSH4 0x1959A002 EQ PUSH2 0x470 JUMPI DUP1 PUSH4 0x1D0DAC76 EQ PUSH2 0x516 JUMPI DUP1 PUSH4 0x21F483D3 EQ PUSH2 0x52C JUMPI DUP1 PUSH4 0x27F082F4 EQ PUSH2 0x55B JUMPI DUP1 PUSH4 0x372500AB EQ PUSH2 0x571 JUMPI DUP1 PUSH4 0x3A3EA2F0 EQ PUSH2 0x586 JUMPI DUP1 PUSH4 0x4626402B EQ PUSH2 0x59B JUMPI DUP1 PUSH4 0x480937DE EQ PUSH2 0x5BB JUMPI DUP1 PUSH4 0x488B5D97 EQ PUSH2 0x5DB JUMPI DUP1 PUSH4 0x4EA4C6B3 EQ PUSH2 0x5F0 JUMPI DUP1 PUSH4 0x4F1EF286 EQ PUSH2 0x610 JUMPI DUP1 PUSH4 0x52778B05 EQ PUSH2 0x623 JUMPI DUP1 PUSH4 0x52D1902D EQ PUSH2 0x643 JUMPI DUP1 PUSH4 0x6031A52F EQ PUSH2 0x658 JUMPI DUP1 PUSH4 0x62EEA914 EQ PUSH2 0x66E JUMPI DUP1 PUSH4 0x67DD74CA EQ PUSH2 0x68E JUMPI DUP1 PUSH4 0x6DD66827 EQ PUSH2 0x6AE JUMPI DUP1 PUSH4 0x6FB3C47C EQ PUSH2 0x6C4 JUMPI DUP1 PUSH4 0x715018A6 EQ PUSH2 0x6E4 JUMPI DUP1 PUSH4 0x75506C96 EQ PUSH2 0x6F9 JUMPI DUP1 PUSH4 0x75F0A874 EQ PUSH2 0x70F JUMPI DUP1 PUSH4 0x77A2A540 EQ PUSH2 0x72F JUMPI DUP1 PUSH4 0x7DBC1DF0 EQ PUSH2 0x745 JUMPI DUP1 PUSH4 0x813380CD EQ PUSH2 0x765 JUMPI DUP1 PUSH4 0x81EEEF5C EQ PUSH2 0x793 JUMPI DUP1 PUSH4 0x83672F3E EQ PUSH2 0x7A8 JUMPI DUP1 PUSH4 0x86481D40 EQ PUSH2 0x7C8 JUMPI DUP1 PUSH4 0x8710BCAA EQ PUSH2 0x7F6 JUMPI DUP1 PUSH4 0x88FD4D33 EQ PUSH2 0x85D JUMPI DUP1 PUSH4 0x8A859A85 EQ PUSH2 0x87D JUMPI DUP1 PUSH4 0x8C0EAA48 EQ PUSH2 0x892 JUMPI DUP1 PUSH4 0x8DA5CB5B EQ PUSH2 0x8A7 JUMPI DUP1 PUSH4 0x90B0EB51 EQ PUSH2 0x8BC JUMPI DUP1 PUSH4 0x9370B080 EQ PUSH2 0x8DC JUMPI DUP1 PUSH4 0x95253992 EQ PUSH2 0x8F2 JUMPI DUP1 PUSH4 0x98B8972F EQ PUSH2 0x912 JUMPI DUP1 PUSH4 0x9CD441DA EQ PUSH2 0x927 JUMPI DUP1 PUSH4 0x9D99ECA4 EQ PUSH2 0x947 JUMPI DUP1 PUSH4 0xA2AF9226 EQ PUSH2 0x967 JUMPI DUP1 PUSH4 0xAD3CB1CC EQ PUSH2 0x987 JUMPI DUP1 PUSH4 0xB048A4BB EQ PUSH2 0x9C5 JUMPI DUP1 PUSH4 0xB5D5B5FA EQ PUSH2 0x9EF JUMPI DUP1 PUSH4 0xBD594DCF EQ PUSH2 0xA3E JUMPI DUP1 PUSH4 0xBE040FB0 EQ PUSH2 0xA54 JUMPI DUP1 PUSH4 0xBE574799 EQ PUSH2 0xA69 JUMPI DUP1 PUSH4 0xC2FF12FC EQ PUSH2 0xA89 JUMPI DUP1 PUSH4 0xCC2A9A5B EQ PUSH2 0xABF JUMPI DUP1 PUSH4 0xCCF61944 EQ PUSH2 0xADF JUMPI DUP1 PUSH4 0xCEAA366D EQ PUSH2 0xAF5 JUMPI DUP1 PUSH4 0xD241E001 EQ PUSH2 0xB0B JUMPI DUP1 PUSH4 0xD2C8E0E5 EQ PUSH2 0xB2B JUMPI DUP1 PUSH4 0xD2F82536 EQ PUSH2 0xB58 JUMPI DUP1 PUSH4 0xD8020A18 EQ PUSH2 0xB77 JUMPI DUP1 PUSH4 0xDEAB8AEA EQ PUSH2 0xB8D JUMPI DUP1 PUSH4 0xDEC7FA3B EQ PUSH2 0xBAD JUMPI DUP1 PUSH4 0xE3067449 EQ PUSH2 0xBC3 JUMPI DUP1 PUSH4 0xE4412F68 EQ PUSH2 0xBD9 JUMPI DUP1 PUSH4 0xECDA2D32 EQ PUSH2 0xBEF JUMPI DUP1 PUSH4 0xF2FDE38B EQ PUSH2 0xC0F JUMPI JUMPDEST PUSH1 0x0 DUP1 REVERT JUMPDEST CALLVALUE DUP1 ISZERO PUSH2 0x31B JUMPI PUSH1 0x0 DUP1 REVERT JUMPDEST POP PUSH2 0x32F PUSH2 0x32A CALLDATASIZE PUSH1 0x4 PUSH2 0x5750 JUMP JUMPDEST PUSH2 0xC2F JUMP JUMPDEST STOP JUMPDEST CALLVALUE DUP1 ISZERO PUSH2 0x33D JUMPI PUSH1 0x0 DUP1 REVERT JUMPDEST POP PUSH2 0x347 PUSH1 0xB SLOAD DUP2 JUMP JUMPDEST PUSH1 0x40 MLOAD SWAP1 DUP2 MSTORE PUSH1 0x20 ADD JUMPDEST PUSH1 0x40 MLOAD DUP1 SWAP2 SUB SWAP1 RETURN JUMPDEST CALLVALUE DUP1 ISZERO PUSH2 0x366 JUMPI PUSH1 0x0 DUP1 REVERT JUMPDEST POP PUSH2 0x32F PUSH2 0x375 CALLDATASIZE PUSH1 0x4 PUSH2 0x5789 JUMP JUMPDEST PUSH2 0xC8B JUMP JUMPDEST CALLVALUE DUP1 ISZERO PUSH2 0x386 JUMPI PUSH1 0x0 DUP1 REVERT JUMPDEST POP PUSH2 0x347 PUSH2 0x395 CALLDATASIZE PUSH1 0x4 PUSH2 0x57A4 JUMP JUMPDEST PUSH2 0xDD5 JUMP JUMPDEST CALLVALUE DUP1 ISZERO PUSH2 0x3A6 JUMPI PUSH1 0x0 DUP1 REVERT JUMPDEST POP PUSH2 0x3BA PUSH2 0x3B5 CALLDATASIZE PUSH1 0x4 PUSH2 0x57D0 JUMP JUMPDEST PUSH2 0xEA9 JUMP JUMPDEST PUSH1 0x40 MLOAD PUSH2 0x351 SWAP2 SWAP1 PUSH2 0x57FA JUMP JUMPDEST CALLVALUE DUP1 ISZERO PUSH2 0x3D3 JUMPI PUSH1 0x0 DUP1 REVERT JUMPDEST POP PUSH2 0x32F PUSH2 0x3E2 CALLDATASIZE PUSH1 0x4 PUSH2 0x580E JUMP JUMPDEST PUSH2 0xEE1 JUMP JUMPDEST CALLVALUE DUP1 ISZERO PUSH2 0x3F3 JUMPI PUSH1 0x0 DUP1 REVERT JUMPDEST POP PUSH2 0x3FC PUSH1 0x2 DUP2 JUMP JUMPDEST PUSH1 0x40 MLOAD PUSH1 0xFF SWAP1 SWAP2 AND DUP2 MSTORE PUSH1 0x20 ADD PUSH2 0x351 JUMP JUMPDEST CALLVALUE DUP1 ISZERO PUSH2 0x41A JUMPI PUSH1 0x0 DUP1 REVERT JUMPDEST POP PUSH2 0x42E PUSH2 0x429 CALLDATASIZE PUSH1 0x4 PUSH2 0x5789 JUMP JUMPDEST PUSH2 0x11D6 JUMP JUMPDEST PUSH1 0x40 MLOAD PUSH2 0x351 SWAP2 SWAP1 PUSH2 0x5827 JUMP JUMPDEST CALLVALUE DUP1 ISZERO PUSH2 0x447 JUMPI PUSH1 0x0 DUP1 REVERT JUMPDEST POP PUSH2 0x3FC PUSH1 0x0 DUP2 JUMP JUMPDEST CALLVALUE DUP1 ISZERO PUSH2 0x45C JUMPI PUSH1 0x0 DUP1 REVERT JUMPDEST POP PUSH1 0x1 SLOAD PUSH2 0x3BA SWAP1 PUSH1 0x1 PUSH1 0x1 PUSH1 0xA0 SHL SUB AND DUP2 JUMP JUMPDEST CALLVALUE DUP1 ISZERO PUSH2 0x47C JUMPI PUSH1 0x0 DUP1 REVERT JUMPDEST POP PUSH2 0x4D5 PUSH2 0x48B CALLDATASIZE PUSH1 0x4 PUSH2 0x5789 JUMP JUMPDEST PUSH1 0xF PUSH1 0x20 MSTORE PUSH1 0x0 SWAP1 DUP2 MSTORE PUSH1 0x40 SWAP1 KECCAK256 DUP1 SLOAD PUSH1 0x1 DUP3 ADD SLOAD PUSH1 0x2 DUP4 ADD SLOAD PUSH1 0x3 DUP5 ADD SLOAD PUSH1 0x4 DUP6 ADD SLOAD PUSH1 0x5 DUP7 ADD SLOAD PUSH1 0x6 SWAP1 SWAP7 ADD SLOAD PUSH1 0x1 PUSH1 0x1 PUSH1 0xA0 SHL SUB SWAP1 SWAP6 AND SWAP6 SWAP4 SWAP5 SWAP3 SWAP4 SWAP2 SWAP3 SWAP1 SWAP2 PUSH1 0xFF AND SWAP1 DUP8 JUMP JUMPDEST PUSH1 0x40 DUP1 MLOAD PUSH1 0x1 PUSH1 0x1 PUSH1 0xA0 SHL SUB SWAP1 SWAP9 AND DUP9 MSTORE PUSH1 0x20 DUP9 ADD SWAP7 SWAP1 SWAP7 MSTORE SWAP5 DUP7 ADD SWAP4 SWAP1 SWAP4 MSTORE PUSH1 0x60 DUP6 ADD SWAP2 SWAP1 SWAP2 MSTORE PUSH1 0x80 DUP5 ADD MSTORE ISZERO ISZERO PUSH1 0xA0 DUP4 ADD MSTORE PUSH1 0xC0 DUP3 ADD MSTORE PUSH1 0xE0 ADD PUSH2 0x351 JUMP JUMPDEST CALLVALUE DUP1 ISZERO PUSH2 0x522 JUMPI PUSH1 0x0 DUP1 REVERT JUMPDEST POP PUSH2 0x347 PUSH1 0x18 SLOAD DUP2 JUMP JUMPDEST CALLVALUE DUP1 ISZERO PUSH2 0x538 JUMPI PUSH1 0x0 DUP1 REVERT JUMPDEST POP PUSH2 0x54C PUSH2 0x547 CALLDATASIZE PUSH1 0x4 PUSH2 0x580E JUMP JUMPDEST PUSH2 0x1307 JUMP JUMPDEST PUSH1 0x40 MLOAD PUSH2 0x351 SWAP4 SWAP3 SWAP2 SWAP1 PUSH2 0x5889 JUMP JUMPDEST CALLVALUE DUP1 ISZERO PUSH2 0x567 JUMPI PUSH1 0x0 DUP1 REVERT JUMPDEST POP PUSH2 0x347 PUSH1 0xD SLOAD DUP2 JUMP JUMPDEST CALLVALUE DUP1 ISZERO PUSH2 0x57D JUMPI PUSH1 0x0 DUP1 REVERT JUMPDEST POP PUSH2 0x32F PUSH2 0x133A JUMP JUMPDEST CALLVALUE DUP1 ISZERO PUSH2 0x592 JUMPI PUSH1 0x0 DUP1 REVERT JUMPDEST POP PUSH2 0x347 PUSH2 0x19BF JUMP JUMPDEST CALLVALUE DUP1 ISZERO PUSH2 0x5A7 JUMPI PUSH1 0x0 DUP1 REVERT JUMPDEST POP PUSH1 0x3 SLOAD PUSH2 0x3BA SWAP1 PUSH1 0x1 PUSH1 0x1 PUSH1 0xA0 SHL SUB AND DUP2 JUMP JUMPDEST CALLVALUE DUP1 ISZERO PUSH2 0x5C7 JUMPI PUSH1 0x0 DUP1 REVERT JUMPDEST POP PUSH2 0x32F PUSH2 0x5D6 CALLDATASIZE PUSH1 0x4 PUSH2 0x5750 JUMP JUMPDEST PUSH2 0x19FF JUMP JUMPDEST CALLVALUE DUP1 ISZERO PUSH2 0x5E7 JUMPI PUSH1 0x0 DUP1 REVERT JUMPDEST POP PUSH2 0x347 PUSH1 0x3C DUP2 JUMP JUMPDEST CALLVALUE DUP1 ISZERO PUSH2 0x5FC JUMPI PUSH1 0x0 DUP1 REVERT JUMPDEST POP PUSH2 0x32F PUSH2 0x60B CALLDATASIZE PUSH1 0x4 PUSH2 0x589F JUMP JUMPDEST PUSH2 0x1A48 JUMP JUMPDEST PUSH2 0x32F PUSH2 0x61E CALLDATASIZE PUSH1 0x4 PUSH2 0x592F JUMP JUMPDEST PUSH2 0x1EF5 JUMP JUMPDEST CALLVALUE DUP1 ISZERO PUSH2 0x62F JUMPI PUSH1 0x0 DUP1 REVERT JUMPDEST POP PUSH2 0x32F PUSH2 0x63E CALLDATASIZE PUSH1 0x4 PUSH2 0x580E JUMP JUMPDEST PUSH2 0x1F10 JUMP JUMPDEST CALLVALUE DUP1 ISZERO PUSH2 0x64F JUMPI PUSH1 0x0 DUP1 REVERT JUMPDEST POP PUSH2 0x347 PUSH2 0x21ED JUMP JUMPDEST CALLVALUE DUP1 ISZERO PUSH2 0x664 JUMPI PUSH1 0x0 DUP1 REVERT JUMPDEST POP PUSH2 0x347 PUSH1 0x19 SLOAD DUP2 JUMP JUMPDEST CALLVALUE DUP1 ISZERO PUSH2 0x67A JUMPI PUSH1 0x0 DUP1 REVERT JUMPDEST POP PUSH2 0x32F PUSH2 0x689 CALLDATASIZE PUSH1 0x4 PUSH2 0x59D4 JUMP JUMPDEST PUSH2 0x220A JUMP JUMPDEST CALLVALUE DUP1 ISZERO PUSH2 0x69A JUMPI PUSH1 0x0 DUP1 REVERT JUMPDEST POP PUSH2 0x32F PUSH2 0x6A9 CALLDATASIZE PUSH1 0x4 PUSH2 0x580E JUMP JUMPDEST PUSH2 0x22E5 JUMP JUMPDEST CALLVALUE DUP1 ISZERO PUSH2 0x6BA JUMPI PUSH1 0x0 DUP1 REVERT JUMPDEST POP PUSH2 0x347 PUSH1 0x15 SLOAD DUP2 JUMP JUMPDEST CALLVALUE DUP1 ISZERO PUSH2 0x6D0 JUMPI PUSH1 0x0 DUP1 REVERT JUMPDEST POP PUSH2 0x32F PUSH2 0x6DF CALLDATASIZE PUSH1 0x4 PUSH2 0x5A00 JUMP JUMPDEST PUSH2 0x28A9 JUMP JUMPDEST CALLVALUE DUP1 ISZERO PUSH2 0x6F0 JUMPI PUSH1 0x0 DUP1 REVERT JUMPDEST POP PUSH2 0x32F PUSH2 0x28D8 JUMP JUMPDEST CALLVALUE DUP1 ISZERO PUSH2 0x705 JUMPI PUSH1 0x0 DUP1 REVERT JUMPDEST POP PUSH2 0x347 PUSH1 0x1A SLOAD DUP2 JUMP JUMPDEST CALLVALUE DUP1 ISZERO PUSH2 0x71B JUMPI PUSH1 0x0 DUP1 REVERT JUMPDEST POP PUSH1 0x2 SLOAD PUSH2 0x3BA SWAP1 PUSH1 0x1 PUSH1 0x1 PUSH1 0xA0 SHL SUB AND DUP2 JUMP JUMPDEST CALLVALUE DUP1 ISZERO PUSH2 0x73B JUMPI PUSH1 0x0 DUP1 REVERT JUMPDEST POP PUSH2 0x347 PUSH1 0x17 SLOAD DUP2 JUMP JUMPDEST CALLVALUE DUP1 ISZERO PUSH2 0x751 JUMPI PUSH1 0x0 DUP1 REVERT JUMPDEST POP PUSH2 0x32F PUSH2 0x760 CALLDATASIZE PUSH1 0x4 PUSH2 0x580E JUMP JUMPDEST PUSH2 0x28EA JUMP JUMPDEST CALLVALUE DUP1 ISZERO PUSH2 0x771 JUMPI PUSH1 0x0 DUP1 REVERT JUMPDEST POP PUSH2 0x785 PUSH2 0x780 CALLDATASIZE PUSH1 0x4 PUSH2 0x589F JUMP JUMPDEST PUSH2 0x2932 JUMP JUMPDEST PUSH1 0x40 MLOAD PUSH2 0x351 SWAP3 SWAP2 SWAP1 PUSH2 0x5A33 JUMP JUMPDEST CALLVALUE DUP1 ISZERO PUSH2 0x79F JUMPI PUSH1 0x0 DUP1 REVERT JUMPDEST POP PUSH2 0x32F PUSH2 0x2978 JUMP JUMPDEST CALLVALUE DUP1 ISZERO PUSH2 0x7B4 JUMPI PUSH1 0x0 DUP1 REVERT JUMPDEST POP PUSH2 0x32F PUSH2 0x7C3 CALLDATASIZE PUSH1 0x4 PUSH2 0x5A4C JUMP JUMPDEST PUSH2 0x2B73 JUMP JUMPDEST CALLVALUE DUP1 ISZERO PUSH2 0x7D4 JUMPI PUSH1 0x0 DUP1 REVERT JUMPDEST POP PUSH2 0x7E8 PUSH2 0x7E3 CALLDATASIZE PUSH1 0x4 PUSH2 0x580E JUMP JUMPDEST PUSH2 0x2BCB JUMP JUMPDEST PUSH1 0x40 MLOAD PUSH2 0x351 SWAP3 SWAP2 SWAP1 PUSH2 0x5AA0 JUMP JUMPDEST CALLVALUE DUP1 ISZERO PUSH2 0x802 JUMPI PUSH1 0x0 DUP1 REVERT JUMPDEST POP PUSH2 0x83B PUSH2 0x811 CALLDATASIZE PUSH1 0x4 PUSH2 0x5789 JUMP JUMPDEST PUSH1 0x10 PUSH1 0x20 MSTORE PUSH1 0x0 SWAP1 DUP2 MSTORE PUSH1 0x40 SWAP1 KECCAK256 DUP1 SLOAD PUSH1 0x1 DUP3 ADD SLOAD PUSH1 0x2 DUP4 ADD SLOAD PUSH1 0x3 SWAP1 SWAP4 ADD SLOAD SWAP2 SWAP3 SWAP1 SWAP2 PUSH1 0xFF AND DUP5 JUMP JUMPDEST PUSH1 0x40 DUP1 MLOAD SWAP5 DUP6 MSTORE PUSH1 0x20 DUP6 ADD SWAP4 SWAP1 SWAP4 MSTORE SWAP2 DUP4 ADD MSTORE ISZERO ISZERO PUSH1 0x60 DUP3 ADD MSTORE PUSH1 0x80 ADD PUSH2 0x351 JUMP JUMPDEST CALLVALUE DUP1 ISZERO PUSH2 0x869 JUMPI PUSH1 0x0 DUP1 REVERT JUMPDEST POP PUSH1 0x4 SLOAD PUSH2 0x3BA SWAP1 PUSH1 0x1 PUSH1 0x1 PUSH1 0xA0 SHL SUB AND DUP2 JUMP JUMPDEST CALLVALUE DUP1 ISZERO PUSH2 0x889 JUMPI PUSH1 0x0 DUP1 REVERT JUMPDEST POP PUSH2 0x3FC PUSH1 0x1 DUP2 JUMP JUMPDEST CALLVALUE DUP1 ISZERO PUSH2 0x89E JUMPI PUSH1 0x0 DUP1 REVERT JUMPDEST POP PUSH2 0x3FC PUSH1 0x3 DUP2 JUMP JUMPDEST CALLVALUE DUP1 ISZERO PUSH2 0x8B3 JUMPI PUSH1 0x0 DUP1 REVERT JUMPDEST POP PUSH2 0x3BA PUSH2 0x2C6E JUMP JUMPDEST CALLVALUE DUP1 ISZERO PUSH2 0x8C8 JUMPI PUSH1 0x0 DUP1 REVERT JUMPDEST POP PUSH2 0x32F PUSH2 0x8D7 CALLDATASIZE PUSH1 0x4 PUSH2 0x589F JUMP JUMPDEST PUSH2 0x2C89 JUMP JUMPDEST CALLVALUE DUP1 ISZERO PUSH2 0x8E8 JUMPI PUSH1 0x0 DUP1 REVERT JUMPDEST POP PUSH2 0x347 PUSH1 0xE SLOAD DUP2 JUMP JUMPDEST CALLVALUE DUP1 ISZERO PUSH2 0x8FE JUMPI PUSH1 0x0 DUP1 REVERT JUMPDEST POP PUSH1 0x0 SLOAD PUSH2 0x3BA SWAP1 PUSH1 0x1 PUSH1 0x1 PUSH1 0xA0 SHL SUB AND DUP2 JUMP JUMPDEST CALLVALUE DUP1 ISZERO PUSH2 0x91E JUMPI PUSH1 0x0 DUP1 REVERT JUMPDEST POP PUSH2 0x32F PUSH2 0x2CE4 JUMP JUMPDEST CALLVALUE DUP1 ISZERO PUSH2 0x933 JUMPI PUSH1 0x0 DUP1 REVERT JUMPDEST POP PUSH2 0x32F PUSH2 0x942 CALLDATASIZE PUSH1 0x4 PUSH2 0x589F JUMP JUMPDEST PUSH2 0x2CED JUMP JUMPDEST CALLVALUE DUP1 ISZERO PUSH2 0x953 JUMPI PUSH1 0x0 DUP1 REVERT JUMPDEST POP PUSH2 0x32F PUSH2 0x962 CALLDATASIZE PUSH1 0x4 PUSH2 0x580E JUMP JUMPDEST PUSH2 0x2EA7 JUMP JUMPDEST CALLVALUE DUP1 ISZERO PUSH2 0x973 JUMPI PUSH1 0x0 DUP1 REVERT JUMPDEST POP PUSH2 0x32F PUSH2 0x982 CALLDATASIZE PUSH1 0x4 PUSH2 0x5AAE JUMP JUMPDEST PUSH2 0x2EE4 JUMP JUMPDEST CALLVALUE DUP1 ISZERO PUSH2 0x993 JUMPI PUSH1 0x0 DUP1 REVERT JUMPDEST POP PUSH2 0x9B8 PUSH1 0x40 MLOAD DUP1 PUSH1 0x40 ADD PUSH1 0x40 MSTORE DUP1 PUSH1 0x5 DUP2 MSTORE PUSH1 0x20 ADD PUSH5 0x352E302E3 PUSH1 0xDC SHL DUP2 MSTORE POP DUP2 JUMP JUMPDEST PUSH1 0x40 MLOAD PUSH2 0x351 SWAP2 SWAP1 PUSH2 0x5AFC JUMP JUMPDEST CALLVALUE DUP1 ISZERO PUSH2 0x9D1 JUMPI PUSH1 0x0 DUP1 REVERT JUMPDEST POP PUSH1 0x16 SLOAD PUSH2 0x9DF SWAP1 PUSH1 0xFF AND DUP2 JUMP JUMPDEST PUSH1 0x40 MLOAD SWAP1 ISZERO ISZERO DUP2 MSTORE PUSH1 0x20 ADD PUSH2 0x351 JUMP JUMPDEST CALLVALUE DUP1 ISZERO PUSH2 0x9FB JUMPI PUSH1 0x0 DUP1 REVERT JUMPDEST POP PUSH2 0xA0F PUSH2 0xA0A CALLDATASIZE PUSH1 0x4 PUSH2 0x57D0 JUMP JUMPDEST PUSH2 0x30BB JUMP JUMPDEST PUSH1 0x40 DUP1 MLOAD SWAP7 DUP8 MSTORE PUSH1 0x20 DUP8 ADD SWAP6 SWAP1 SWAP6 MSTORE SWAP4 DUP6 ADD SWAP3 SWAP1 SWAP3 MSTORE PUSH1 0x60 DUP5 ADD MSTORE ISZERO ISZERO PUSH1 0x80 DUP4 ADD MSTORE PUSH1 0xA0 DUP3 ADD MSTORE PUSH1 0xC0 ADD PUSH2 0x351 JUMP JUMPDEST CALLVALUE DUP1 ISZERO PUSH2 0xA4A JUMPI PUSH1 0x0 DUP1 REVERT JUMPDEST POP PUSH2 0x347 PUSH1 0x7 SLOAD DUP2 JUMP JUMPDEST CALLVALUE DUP1 ISZERO PUSH2 0xA60 JUMPI PUSH1 0x0 DUP1 REVERT JUMPDEST POP PUSH2 0x32F PUSH2 0x3115 JUMP JUMPDEST CALLVALUE DUP1 ISZERO PUSH2 0xA75 JUMPI PUSH1 0x0 DUP1 REVERT JUMPDEST POP PUSH2 0x32F PUSH2 0xA84 CALLDATASIZE PUSH1 0x4 PUSH2 0x5B2F JUMP JUMPDEST PUSH2 0x3984 JUMP JUMPDEST CALLVALUE DUP1 ISZERO PUSH2 0xA95 JUMPI PUSH1 0x0 DUP1 REVERT JUMPDEST POP PUSH2 0x3BA PUSH2 0xAA4 CALLDATASIZE PUSH1 0x4 PUSH2 0x580E JUMP JUMPDEST PUSH1 0x1C PUSH1 0x20 MSTORE PUSH1 0x0 SWAP1 DUP2 MSTORE PUSH1 0x40 SWAP1 KECCAK256 SLOAD PUSH1 0x1 PUSH1 0x1 PUSH1 0xA0 SHL SUB AND DUP2 JUMP JUMPDEST CALLVALUE DUP1 ISZERO PUSH2 0xACB JUMPI PUSH1 0x0 DUP1 REVERT JUMPDEST POP PUSH2 0x32F PUSH2 0xADA CALLDATASIZE PUSH1 0x4 PUSH2 0x5C02 JUMP JUMPDEST PUSH2 0x3A26 JUMP JUMPDEST CALLVALUE DUP1 ISZERO PUSH2 0xAEB JUMPI PUSH1 0x0 DUP1 REVERT JUMPDEST POP PUSH2 0x347 PUSH1 0x6 SLOAD DUP2 JUMP JUMPDEST CALLVALUE DUP1 ISZERO PUSH2 0xB01 JUMPI PUSH1 0x0 DUP1 REVERT JUMPDEST POP PUSH2 0x347 PUSH1 0xA SLOAD DUP2 JUMP JUMPDEST CALLVALUE DUP1 ISZERO PUSH2 0xB17 JUMPI PUSH1 0x0 DUP1 REVERT JUMPDEST POP PUSH2 0x32F PUSH2 0xB26 CALLDATASIZE PUSH1 0x4 PUSH2 0x59D4 JUMP JUMPDEST PUSH2 0x4064 JUMP JUMPDEST CALLVALUE DUP1 ISZERO PUSH2 0xB37 JUMPI PUSH1 0x0 DUP1 REVERT JUMPDEST POP PUSH2 0xB4B PUSH2 0xB46 CALLDATASIZE PUSH1 0x4 PUSH2 0x5789 JUMP JUMPDEST PUSH2 0x40F7 JUMP JUMPDEST PUSH1 0x40 MLOAD PUSH2 0x351 SWAP2 SWAP1 PUSH2 0x5C76 JUMP JUMPDEST CALLVALUE DUP1 ISZERO PUSH2 0xB64 JUMPI PUSH1 0x0 DUP1 REVERT JUMPDEST POP PUSH1 0x16 SLOAD PUSH2 0x9DF SWAP1 PUSH2 0x100 SWAP1 DIV PUSH1 0xFF AND DUP2 JUMP JUMPDEST CALLVALUE DUP1 ISZERO PUSH2 0xB83 JUMPI PUSH1 0x0 DUP1 REVERT JUMPDEST POP PUSH2 0x347 PUSH1 0x8 SLOAD DUP2 JUMP JUMPDEST CALLVALUE DUP1 ISZERO PUSH2 0xB99 JUMPI PUSH1 0x0 DUP1 REVERT JUMPDEST POP PUSH1 0x5 SLOAD PUSH2 0x3BA SWAP1 PUSH1 0x1 PUSH1 0x1 PUSH1 0xA0 SHL SUB AND DUP2 JUMP JUMPDEST CALLVALUE DUP1 ISZERO PUSH2 0xBB9 JUMPI PUSH1 0x0 DUP1 REVERT JUMPDEST POP PUSH2 0x347 PUSH1 0xC SLOAD DUP2 JUMP JUMPDEST CALLVALUE DUP1 ISZERO PUSH2 0xBCF JUMPI PUSH1 0x0 DUP1 REVERT JUMPDEST POP PUSH2 0x347 PUSH1 0x1B SLOAD DUP2 JUMP JUMPDEST CALLVALUE DUP1 ISZERO PUSH2 0xBE5 JUMPI PUSH1 0x0 DUP1 REVERT JUMPDEST POP PUSH2 0x347 PUSH1 0x9 SLOAD DUP2 JUMP JUMPDEST CALLVALUE DUP1 ISZERO PUSH2 0xBFB JUMPI PUSH1 0x0 DUP1 REVERT JUMPDEST POP PUSH2 0x32F PUSH2 0xC0A CALLDATASIZE PUSH1 0x4 PUSH2 0x5CC3 JUMP JUMPDEST PUSH2 0x416D JUMP JUMPDEST CALLVALUE DUP1 ISZERO PUSH2 0xC1B JUMPI PUSH1 0x0 DUP1 REVERT JUMPDEST POP PUSH2 0x32F PUSH2 0xC2A CALLDATASIZE PUSH1 0x4 PUSH2 0x5789 JUMP JUMPDEST PUSH2 0x427F JUMP JUMPDEST PUSH2 0xC37 PUSH2 0x42BA JUMP JUMPDEST PUSH1 0x16 DUP1 SLOAD DUP3 ISZERO ISZERO PUSH2 0x100 MUL PUSH2 0xFF00 NOT SWAP1 SWAP2 AND OR SWAP1 SSTORE PUSH1 0x40 MLOAD PUSH32 0x3CB373F89DE891077FE47CEC43663B6727713DE0337AF46BEBD1178122251B7 SWAP1 PUSH2 0xC80 SWAP1 DUP4 ISZERO ISZERO DUP2 MSTORE PUSH1 0x20 ADD SWAP1 JUMP JUMPDEST PUSH1 0x40 MLOAD DUP1 SWAP2 SUB SWAP1 LOG1 POP JUMP JUMPDEST CALLER PUSH1 0x0 SWAP1 DUP2 MSTORE PUSH1 0xF PUSH1 0x20 MSTORE PUSH1 0x40 SWAP1 KECCAK256 SLOAD PUSH1 0x1 PUSH1 0x1 PUSH1 0xA0 SHL SUB AND ISZERO PUSH2 0xCE6 JUMPI PUSH1 0x40 MLOAD PUSH3 0x461BCD PUSH1 0xE5 SHL DUP2 MSTORE PUSH1 0x20 PUSH1 0x4 DUP3 ADD MSTORE PUSH1 0xD PUSH1 0x24 DUP3 ADD MSTORE PUSH13 0x105B1C9958591E48189BDD5B99 PUSH1 0x9A SHL PUSH1 0x44 DUP3 ADD MSTORE PUSH1 0x64 ADD JUMPDEST PUSH1 0x40 MLOAD DUP1 SWAP2 SUB SWAP1 REVERT JUMPDEST CALLER PUSH1 0x1 PUSH1 0x1 PUSH1 0xA0 SHL SUB DUP3 AND SUB PUSH2 0xD0E JUMPI PUSH1 0x40 MLOAD PUSH3 0x461BCD PUSH1 0xE5 SHL DUP2 MSTORE PUSH1 0x4 ADD PUSH2 0xCDD SWAP1 PUSH2 0x5D06 JUMP JUMPDEST PUSH1 0x1 PUSH1 0x1 PUSH1 0xA0 SHL SUB DUP2 AND PUSH2 0xD57 JUMPI PUSH1 0x40 MLOAD PUSH3 0x461BCD PUSH1 0xE5 SHL DUP2 MSTORE PUSH1 0x20 PUSH1 0x4 DUP3 ADD MSTORE PUSH1 0x10 PUSH1 0x24 DUP3 ADD MSTORE PUSH16 0x24B73B30B634B2103932B332B93932B9 PUSH1 0x81 SHL PUSH1 0x44 DUP3 ADD MSTORE PUSH1 0x64 ADD PUSH2 0xCDD JUMP JUMPDEST CALLER PUSH1 0x0 DUP2 DUP2 MSTORE PUSH1 0xF PUSH1 0x20 SWAP1 DUP2 MSTORE PUSH1 0x40 DUP1 DUP4 KECCAK256 DUP1 SLOAD PUSH1 0x1 PUSH1 0x1 PUSH1 0xA0 SHL SUB DUP8 AND PUSH1 0x1 PUSH1 0x1 PUSH1 0xA0 SHL SUB NOT SWAP2 DUP3 AND DUP2 OR SWAP1 SWAP3 SSTORE DUP2 DUP6 MSTORE PUSH1 0x12 DUP5 MSTORE DUP3 DUP6 KECCAK256 DUP1 SLOAD PUSH1 0x1 DUP2 ADD DUP3 SSTORE SWAP1 DUP7 MSTORE SWAP4 DUP6 KECCAK256 SWAP1 SWAP4 ADD DUP1 SLOAD SWAP1 SWAP4 AND DUP6 OR SWAP1 SWAP3 SSTORE MLOAD SWAP1 SWAP3 SWAP2 PUSH32 0xA6DBB5AA28F35437DE94D685D66EDCE5FB4812196B4984B91DFD5A7B38C0FB30 SWAP2 LOG3 POP JUMP JUMPDEST PUSH1 0x0 DUP1 DUP5 GT PUSH2 0xE22 JUMPI PUSH1 0x40 MLOAD PUSH3 0x461BCD PUSH1 0xE5 SHL DUP2 MSTORE PUSH1 0x20 PUSH1 0x4 DUP3 ADD MSTORE PUSH1 0x19 PUSH1 0x24 DUP3 ADD MSTORE PUSH25 0x125B9CDD59999A58DA595B9D081A5B9C1D5D08185B5BDD5B9D PUSH1 0x3A SHL PUSH1 0x44 DUP3 ADD MSTORE PUSH1 0x64 ADD PUSH2 0xCDD JUMP JUMPDEST PUSH1 0x0 DUP4 GT DUP1 ISZERO PUSH2 0xE32 JUMPI POP PUSH1 0x0 DUP3 GT JUMPDEST PUSH2 0xE77 JUMPI PUSH1 0x40 MLOAD PUSH3 0x461BCD PUSH1 0xE5 SHL DUP2 MSTORE PUSH1 0x20 PUSH1 0x4 DUP3 ADD MSTORE PUSH1 0x16 PUSH1 0x24 DUP3 ADD MSTORE PUSH22 0x496E73756666696369656E74206C6971756964697479 PUSH1 0x50 SHL PUSH1 0x44 DUP3 ADD MSTORE PUSH1 0x64 ADD PUSH2 0xCDD JUMP JUMPDEST PUSH1 0x0 PUSH2 0xE83 DUP4 DUP7 PUSH2 0x5D46 JUMP JUMPDEST SWAP1 POP PUSH1 0x0 PUSH2 0xE91 DUP7 DUP7 PUSH2 0x5D5D JUMP JUMPDEST SWAP1 POP PUSH2 0xE9D DUP2 DUP4 PUSH2 0x5D70 JUMP JUMPDEST SWAP3 POP POP POP JUMPDEST SWAP4 SWAP3 POP POP POP JUMP JUMPDEST PUSH1 0x12 PUSH1 0x20 MSTORE DUP2 PUSH1 0x0 MSTORE PUSH1 0x40 PUSH1 0x0 KECCAK256 DUP2 DUP2 SLOAD DUP2 LT PUSH2 0xEC5 JUMPI PUSH1 0x0 DUP1 REVERT JUMPDEST PUSH1 0x0 SWAP2 DUP3 MSTORE PUSH1 0x20 SWAP1 SWAP2 KECCAK256 ADD SLOAD PUSH1 0x1 PUSH1 0x1 PUSH1 0xA0 SHL SUB AND SWAP2 POP DUP3 SWAP1 POP JUMP JUMPDEST PUSH2 0xEE9 PUSH2 0x42EC JUMP JUMPDEST PUSH1 0x0 DUP2 GT PUSH2 0xF09 JUMPI PUSH1 0x40 MLOAD PUSH3 0x461BCD PUSH1 0xE5 SHL DUP2 MSTORE PUSH1 0x4 ADD PUSH2 0xCDD SWAP1 PUSH2 0x5D92 JUMP JUMPDEST PUSH1 0x0 SLOAD PUSH1 0x40 MLOAD PUSH4 0x23B872DD PUSH1 0xE0 SHL DUP2 MSTORE PUSH1 0x1 PUSH1 0x1 PUSH1 0xA0 SHL SUB SWAP1 SWAP2 AND SWAP1 PUSH4 0x23B872DD SWAP1 PUSH2 0xF3D SWAP1 CALLER SWAP1 ADDRESS SWAP1 DUP7 SWAP1 PUSH1 0x4 ADD PUSH2 0x5DBA JUMP JUMPDEST PUSH1 0x20 PUSH1 0x40 MLOAD DUP1 DUP4 SUB DUP2 PUSH1 0x0 DUP8 GAS CALL ISZERO DUP1 ISZERO PUSH2 0xF5C JUMPI RETURNDATASIZE PUSH1 0x0 DUP1 RETURNDATACOPY RETURNDATASIZE PUSH1 0x0 REVERT JUMPDEST POP POP POP POP PUSH1 0x40 MLOAD RETURNDATASIZE PUSH1 0x1F NOT PUSH1 0x1F DUP3 ADD AND DUP3 ADD DUP1 PUSH1 0x40 MSTORE POP DUP2 ADD SWAP1 PUSH2 0xF80 SWAP2 SWAP1 PUSH2 0x5DDE JUMP JUMPDEST POP PUSH1 0x0 PUSH2 0xF92 DUP3 PUSH1 0x17 SLOAD PUSH1 0x18 SLOAD PUSH2 0xDD5 JUMP JUMPDEST SWAP1 POP PUSH1 0x0 PUSH1 0x64 PUSH1 0xD SLOAD DUP4 PUSH2 0xFA6 SWAP2 SWAP1 PUSH2 0x5D46 JUMP JUMPDEST PUSH2 0xFB0 SWAP2 SWAP1 PUSH2 0x5D70 JUMP JUMPDEST SWAP1 POP PUSH1 0x0 PUSH2 0xFBE DUP3 DUP5 PUSH2 0x5DFB JUMP JUMPDEST PUSH1 0x1 SLOAD PUSH1 0x40 MLOAD PUSH4 0x70A08231 PUSH1 0xE0 SHL DUP2 MSTORE SWAP2 SWAP3 POP DUP5 SWAP2 PUSH1 0x1 PUSH1 0x1 PUSH1 0xA0 SHL SUB SWAP1 SWAP2 AND SWAP1 PUSH4 0x70A08231 SWAP1 PUSH2 0xFF3 SWAP1 ADDRESS SWAP1 PUSH1 0x4 ADD PUSH2 0x57FA JUMP JUMPDEST PUSH1 0x20 PUSH1 0x40 MLOAD DUP1 DUP4 SUB DUP2 DUP7 GAS STATICCALL ISZERO DUP1 ISZERO PUSH2 0x1010 JUMPI RETURNDATASIZE PUSH1 0x0 DUP1 RETURNDATACOPY RETURNDATASIZE PUSH1 0x0 REVERT JUMPDEST POP POP POP POP PUSH1 0x40 MLOAD RETURNDATASIZE PUSH1 0x1F NOT PUSH1 0x1F DUP3 ADD AND DUP3 ADD DUP1 PUSH1 0x40 MSTORE POP DUP2 ADD SWAP1 PUSH2 0x1034 SWAP2 SWAP1 PUSH2 0x5E0E JUMP JUMPDEST LT ISZERO PUSH2 0x107F JUMPI PUSH1 0x40 MLOAD PUSH3 0x461BCD PUSH1 0xE5 SHL DUP2 MSTORE PUSH1 0x20 PUSH1 0x4 DUP3 ADD MSTORE PUSH1 0x1A PUSH1 0x24 DUP3 ADD MSTORE PUSH26 0x496E73756666696369656E74204A4243206C6971756964697479 PUSH1 0x30 SHL PUSH1 0x44 DUP3 ADD MSTORE PUSH1 0x64 ADD PUSH2 0xCDD JUMP JUMPDEST DUP4 PUSH1 0x17 PUSH1 0x0 DUP3 DUP3 SLOAD PUSH2 0x1091 SWAP2 SWAP1 PUSH2 0x5D5D JUMP JUMPDEST SWAP3 POP POP DUP2 SWAP1 SSTORE POP DUP3 PUSH1 0x18 PUSH1 0x0 DUP3 DUP3 SLOAD PUSH2 0x10AA SWAP2 SWAP1 PUSH2 0x5DFB JUMP JUMPDEST SWAP1 SWAP2 SSTORE POP POP PUSH1 0x1 SLOAD PUSH1 0x40 MLOAD PUSH4 0x852CD8D PUSH1 0xE3 SHL DUP2 MSTORE PUSH1 0x4 DUP2 ADD DUP5 SWAP1 MSTORE PUSH1 0x1 PUSH1 0x1 PUSH1 0xA0 SHL SUB SWAP1 SWAP2 AND SWAP1 PUSH4 0x42966C68 SWAP1 PUSH1 0x24 ADD PUSH1 0x0 PUSH1 0x40 MLOAD DUP1 DUP4 SUB DUP2 PUSH1 0x0 DUP8 DUP1 EXTCODESIZE ISZERO DUP1 ISZERO PUSH2 0x10F5 JUMPI PUSH1 0x0 DUP1 REVERT JUMPDEST POP GAS CALL ISZERO DUP1 ISZERO PUSH2 0x1109 JUMPI RETURNDATASIZE PUSH1 0x0 DUP1 RETURNDATACOPY RETURNDATASIZE PUSH1 0x0 REVERT JUMPDEST POP POP PUSH1 0x1 SLOAD PUSH1 0x40 MLOAD PUSH4 0xA9059CBB PUSH1 0xE0 SHL DUP2 MSTORE PUSH1 0x1 PUSH1 0x1 PUSH1 0xA0 SHL SUB SWAP1 SWAP2 AND SWAP3 POP PUSH4 0xA9059CBB SWAP2 POP PUSH2 0x113F SWAP1 CALLER SWAP1 DUP6 SWAP1 PUSH1 0x4 ADD PUSH2 0x5A33 JUMP JUMPDEST PUSH1 0x20 PUSH1 0x40 MLOAD DUP1 DUP4 SUB DUP2 PUSH1 0x0 DUP8 GAS CALL ISZERO DUP1 ISZERO PUSH2 0x115E JUMPI RETURNDATASIZE PUSH1 0x0 DUP1 RETURNDATACOPY RETURNDATASIZE PUSH1 0x0 REVERT JUMPDEST POP POP POP POP PUSH1 0x40 MLOAD RETURNDATASIZE PUSH1 0x1F NOT PUSH1 0x1F DUP3 ADD AND DUP3 ADD DUP1 PUSH1 0x40 MSTORE POP DUP2 ADD SWAP1 PUSH2 0x1182 SWAP2 SWAP1 PUSH2 0x5DDE JUMP JUMPDEST POP CALLER PUSH1 0x1 PUSH1 0x1 PUSH1 0xA0 SHL SUB AND PUSH32 0x36864AEEFCE16BC4AACEEB6B0CDFB2AD1455A8CB4CCB0DB148A2BC6E7166F97C DUP6 DUP4 DUP6 PUSH1 0x40 MLOAD PUSH2 0x11C0 SWAP4 SWAP3 SWAP2 SWAP1 PUSH2 0x5889 JUMP JUMPDEST PUSH1 0x40 MLOAD DUP1 SWAP2 SUB SWAP1 LOG2 POP POP POP PUSH2 0x11D3 PUSH2 0x4322 JUMP JUMPDEST POP JUMP JUMPDEST PUSH1 0x1 PUSH1 0x1 PUSH1 0xA0 SHL SUB DUP2 AND PUSH1 0x0 SWAP1 DUP2 MSTORE PUSH1 0x12 PUSH1 0x20 MSTORE PUSH1 0x40 DUP2 KECCAK256 DUP1 SLOAD PUSH1 0x60 SWAP3 SWAP1 PUSH1 0x1 PUSH1 0x1 PUSH1 0x40 SHL SUB DUP2 GT ISZERO PUSH2 0x120B JUMPI PUSH2 0x120B PUSH2 0x58C1 JUMP JUMPDEST PUSH1 0x40 MLOAD SWAP1 DUP1 DUP3 MSTORE DUP1 PUSH1 0x20 MUL PUSH1 0x20 ADD DUP3 ADD PUSH1 0x40 MSTORE DUP1 ISZERO PUSH2 0x1269 JUMPI DUP2 PUSH1 0x20 ADD JUMPDEST PUSH2 0x1256 PUSH1 0x40 MLOAD DUP1 PUSH1 0x60 ADD PUSH1 0x40 MSTORE DUP1 PUSH1 0x0 PUSH1 0x1 PUSH1 0x1 PUSH1 0xA0 SHL SUB AND DUP2 MSTORE PUSH1 0x20 ADD PUSH1 0x0 DUP2 MSTORE PUSH1 0x20 ADD PUSH1 0x0 DUP2 MSTORE POP SWAP1 JUMP JUMPDEST DUP2 MSTORE PUSH1 0x20 ADD SWAP1 PUSH1 0x1 SWAP1 SUB SWAP1 DUP2 PUSH2 0x1229 JUMPI SWAP1 POP JUMPDEST POP SWAP1 POP PUSH1 0x0 JUMPDEST DUP3 SLOAD DUP2 LT ISZERO PUSH2 0x12FF JUMPI PUSH1 0x0 DUP4 DUP3 DUP2 SLOAD DUP2 LT PUSH2 0x128C JUMPI PUSH2 0x128C PUSH2 0x5E27 JUMP JUMPDEST PUSH1 0x0 SWAP2 DUP3 MSTORE PUSH1 0x20 DUP1 DUP4 KECCAK256 SWAP1 SWAP2 ADD SLOAD PUSH1 0x1 PUSH1 0x1 PUSH1 0xA0 SHL SUB AND DUP1 DUP4 MSTORE PUSH1 0x10 DUP3 MSTORE PUSH1 0x40 SWAP3 DUP4 SWAP1 KECCAK256 DUP4 MLOAD PUSH1 0x60 DUP2 ADD DUP6 MSTORE DUP3 DUP2 MSTORE PUSH1 0x1 DUP3 ADD SLOAD SWAP4 DUP2 ADD SWAP4 SWAP1 SWAP4 MSTORE PUSH1 0x2 DUP2 ADD SLOAD SWAP4 DUP4 ADD SWAP4 SWAP1 SWAP4 MSTORE DUP6 MLOAD SWAP1 SWAP4 POP DUP6 SWAP1 DUP6 SWAP1 DUP2 LT PUSH2 0x12EA JUMPI PUSH2 0x12EA PUSH2 0x5E27 JUMP JUMPDEST PUSH1 0x20 SWAP1 DUP2 MUL SWAP2 SWAP1 SWAP2 ADD ADD MSTORE POP POP PUSH1 0x1 ADD PUSH2 0x126F JUMP JUMPDEST POP SWAP4 SWAP3 POP POP POP JUMP JUMPDEST PUSH1 0x14 DUP2 DUP2 SLOAD DUP2 LT PUSH2 0x1317 JUMPI PUSH1 0x0 DUP1 REVERT JUMPDEST PUSH1 0x0 SWAP2 DUP3 MSTORE PUSH1 0x20 SWAP1 SWAP2 KECCAK256 PUSH1 0x3 SWAP1 SWAP2 MUL ADD DUP1 SLOAD PUSH1 0x1 DUP3 ADD SLOAD PUSH1 0x2 SWAP1 SWAP3 ADD SLOAD SWAP1 SWAP3 POP DUP4 JUMP JUMPDEST PUSH2 0x1342 PUSH2 0x42EC JUMP JUMPDEST CALLER PUSH1 0x0 SWAP1 DUP2 MSTORE PUSH1 0x10 PUSH1 0x20 MSTORE PUSH1 0x40 SWAP1 KECCAK256 PUSH1 0x1 DUP2 ADD SLOAD ISZERO DUP1 ISZERO SWAP1 PUSH2 0x1369 JUMPI POP PUSH1 0x3 DUP2 ADD SLOAD PUSH1 0xFF AND ISZERO JUMPDEST PUSH2 0x13A2 JUMPI PUSH1 0x40 MLOAD PUSH3 0x461BCD PUSH1 0xE5 SHL DUP2 MSTORE PUSH1 0x20 PUSH1 0x4 DUP3 ADD MSTORE PUSH1 0xA PUSH1 0x24 DUP3 ADD MSTORE PUSH10 0x4E6F7420616374697665 PUSH1 0xB0 SHL PUSH1 0x44 DUP3 ADD MSTORE PUSH1 0x64 ADD PUSH2 0xCDD JUMP JUMPDEST CALLER PUSH1 0x0 SWAP1 DUP2 MSTORE PUSH1 0x11 PUSH1 0x20 MSTORE PUSH1 0x40 DUP2 KECCAK256 SWAP1 DUP1 JUMPDEST DUP3 SLOAD DUP2 LT ISZERO PUSH2 0x15FE JUMPI DUP3 DUP2 DUP2 SLOAD DUP2 LT PUSH2 0x13CF JUMPI PUSH2 0x13CF PUSH2 0x5E27 JUMP JUMPDEST PUSH1 0x0 SWAP2 DUP3 MSTORE PUSH1 0x20 SWAP1 SWAP2 KECCAK256 PUSH1 0x4 PUSH1 0x6 SWAP1 SWAP3 MUL ADD ADD SLOAD PUSH1 0xFF AND ISZERO PUSH2 0x15F6 JUMPI PUSH1 0x0 DUP4 DUP3 DUP2 SLOAD DUP2 LT PUSH2 0x13FF JUMPI PUSH2 0x13FF PUSH2 0x5E27 JUMP JUMPDEST SWAP1 PUSH1 0x0 MSTORE PUSH1 0x20 PUSH1 0x0 KECCAK256 SWAP1 PUSH1 0x6 MUL ADD PUSH1 0x3 ADD SLOAD PUSH1 0x7 SUB PUSH2 0x1420 JUMPI POP PUSH1 0x14 PUSH2 0x1482 JUMP JUMPDEST DUP4 DUP3 DUP2 SLOAD DUP2 LT PUSH2 0x1432 JUMPI PUSH2 0x1432 PUSH2 0x5E27 JUMP JUMPDEST SWAP1 PUSH1 0x0 MSTORE PUSH1 0x20 PUSH1 0x0 KECCAK256 SWAP1 PUSH1 0x6 MUL ADD PUSH1 0x3 ADD SLOAD PUSH1 0xF SUB PUSH2 0x1453 JUMPI POP PUSH1 0x19 PUSH2 0x1482 JUMP JUMPDEST DUP4 DUP3 DUP2 SLOAD DUP2 LT PUSH2 0x1465 JUMPI PUSH2 0x1465 PUSH2 0x5E27 JUMP JUMPDEST SWAP1 PUSH1 0x0 MSTORE PUSH1 0x20 PUSH1 0x0 KECCAK256 SWAP1 PUSH1 0x6 MUL ADD PUSH1 0x3 ADD SLOAD PUSH1 0x1E SUB PUSH2 0x1482 JUMPI POP PUSH1 0x1E JUMPDEST PUSH1 0x0 PUSH1 0x3C DUP6 DUP5 DUP2 SLOAD DUP2 LT PUSH2 0x1498 JUMPI PUSH2 0x1498 PUSH2 0x5E27 JUMP JUMPDEST SWAP1 PUSH1 0x0 MSTORE PUSH1 0x20 PUSH1 0x0 KECCAK256 SWAP1 PUSH1 0x6 MUL ADD PUSH1 0x2 ADD SLOAD TIMESTAMP PUSH2 0x14B5 SWAP2 SWAP1 PUSH2 0x5DFB JUMP JUMPDEST PUSH2 0x14BF SWAP2 SWAP1 PUSH2 0x5D70 JUMP JUMPDEST SWAP1 POP DUP5 DUP4 DUP2 SLOAD DUP2 LT PUSH2 0x14D3 JUMPI PUSH2 0x14D3 PUSH2 0x5E27 JUMP JUMPDEST SWAP1 PUSH1 0x0 MSTORE PUSH1 0x20 PUSH1 0x0 KECCAK256 SWAP1 PUSH1 0x6 MUL ADD PUSH1 0x3 ADD SLOAD DUP2 GT ISZERO PUSH2 0x1513 JUMPI DUP5 DUP4 DUP2 SLOAD DUP2 LT PUSH2 0x14FE JUMPI PUSH2 0x14FE PUSH2 0x5E27 JUMP JUMPDEST SWAP1 PUSH1 0x0 MSTORE PUSH1 0x20 PUSH1 0x0 KECCAK256 SWAP1 PUSH1 0x6 MUL ADD PUSH1 0x3 ADD SLOAD SWAP1 POP JUMPDEST DUP1 PUSH1 0x0 SUB PUSH2 0x1522 JUMPI POP POP PUSH2 0x15F6 JUMP JUMPDEST PUSH1 0x0 PUSH2 0x3E8 DUP3 DUP5 DUP9 DUP8 DUP2 SLOAD DUP2 LT PUSH2 0x153B JUMPI PUSH2 0x153B PUSH2 0x5E27 JUMP JUMPDEST SWAP1 PUSH1 0x0 MSTORE PUSH1 0x20 PUSH1 0x0 KECCAK256 SWAP1 PUSH1 0x6 MUL ADD PUSH1 0x1 ADD SLOAD PUSH2 0x1557 SWAP2 SWAP1 PUSH2 0x5D46 JUMP JUMPDEST PUSH2 0x1561 SWAP2 SWAP1 PUSH2 0x5D46 JUMP JUMPDEST PUSH2 0x156B SWAP2 SWAP1 PUSH2 0x5D70 JUMP JUMPDEST SWAP1 POP PUSH1 0x0 DUP7 DUP6 DUP2 SLOAD DUP2 LT PUSH2 0x1581 JUMPI PUSH2 0x1581 PUSH2 0x5E27 JUMP JUMPDEST SWAP1 PUSH1 0x0 MSTORE PUSH1 0x20 PUSH1 0x0 KECCAK256 SWAP1 PUSH1 0x6 MUL ADD PUSH1 0x5 ADD SLOAD SWAP1 POP DUP1 DUP3 GT ISZERO PUSH2 0x15F1 JUMPI PUSH1 0x0 PUSH2 0x15A9 DUP3 DUP5 PUSH2 0x5DFB JUMP JUMPDEST SWAP1 POP PUSH2 0x15B5 DUP2 DUP9 PUSH2 0x5D5D JUMP JUMPDEST SWAP7 POP DUP1 DUP9 DUP8 DUP2 SLOAD DUP2 LT PUSH2 0x15CA JUMPI PUSH2 0x15CA PUSH2 0x5E27 JUMP JUMPDEST SWAP1 PUSH1 0x0 MSTORE PUSH1 0x20 PUSH1 0x0 KECCAK256 SWAP1 PUSH1 0x6 MUL ADD PUSH1 0x5 ADD PUSH1 0x0 DUP3 DUP3 SLOAD PUSH2 0x15EA SWAP2 SWAP1 PUSH2 0x5D5D JUMP JUMPDEST SWAP1 SWAP2 SSTORE POP POP POP JUMPDEST POP POP POP POP JUMPDEST PUSH1 0x1 ADD PUSH2 0x13B4 JUMP JUMPDEST POP PUSH1 0x0 DUP2 GT PUSH2 0x1640 JUMPI PUSH1 0x40 MLOAD PUSH3 0x461BCD PUSH1 0xE5 SHL DUP2 MSTORE PUSH1 0x20 PUSH1 0x4 DUP3 ADD MSTORE PUSH1 0xE PUSH1 0x24 DUP3 ADD MSTORE PUSH14 0x4E6F206E65772072657761726473 PUSH1 0x90 SHL PUSH1 0x44 DUP3 ADD MSTORE PUSH1 0x64 ADD PUSH2 0xCDD JUMP JUMPDEST CALLER PUSH1 0x0 SWAP1 DUP2 MSTORE PUSH1 0xF PUSH1 0x20 MSTORE PUSH1 0x40 SWAP1 KECCAK256 PUSH1 0x4 DUP2 ADD SLOAD PUSH1 0x3 SWAP1 SWAP2 ADD SLOAD PUSH2 0x1665 SWAP1 DUP4 SWAP1 PUSH2 0x5D5D JUMP JUMPDEST GT ISZERO PUSH2 0x1692 JUMPI CALLER PUSH1 0x0 SWAP1 DUP2 MSTORE PUSH1 0xF PUSH1 0x20 MSTORE PUSH1 0x40 SWAP1 KECCAK256 PUSH1 0x3 DUP2 ADD SLOAD PUSH1 0x4 SWAP1 SWAP2 ADD SLOAD PUSH2 0x168F SWAP2 SWAP1 PUSH2 0x5DFB JUMP JUMPDEST SWAP1 POP JUMPDEST DUP1 PUSH1 0x0 SUB PUSH2 0x16AB JUMPI PUSH2 0x16A3 CALLER PUSH2 0x4333 JUMP JUMPDEST POP POP POP PUSH2 0x19B5 JUMP JUMPDEST CALLER PUSH1 0x0 SWAP1 DUP2 MSTORE PUSH1 0xF PUSH1 0x20 MSTORE PUSH1 0x40 DUP2 KECCAK256 PUSH1 0x3 ADD DUP1 SLOAD DUP4 SWAP3 SWAP1 PUSH2 0x16CD SWAP1 DUP5 SWAP1 PUSH2 0x5D5D JUMP JUMPDEST SWAP1 SWAP2 SSTORE POP PUSH1 0x0 SWAP1 POP PUSH2 0x16E0 PUSH1 0x2 DUP4 PUSH2 0x5D70 JUMP JUMPDEST SWAP1 POP PUSH1 0x0 PUSH2 0x16EF PUSH1 0x2 DUP5 PUSH2 0x5D70 JUMP JUMPDEST PUSH1 0x0 DUP1 SLOAD PUSH1 0x40 MLOAD PUSH4 0x70A08231 PUSH1 0xE0 SHL DUP2 MSTORE SWAP3 SWAP4 POP SWAP1 SWAP2 DUP5 SWAP2 PUSH1 0x1 PUSH1 0x1 PUSH1 0xA0 SHL SUB AND SWAP1 PUSH4 0x70A08231 SWAP1 PUSH2 0x1725 SWAP1 ADDRESS SWAP1 PUSH1 0x4 ADD PUSH2 0x57FA JUMP JUMPDEST PUSH1 0x20 PUSH1 0x40 MLOAD DUP1 DUP4 SUB DUP2 DUP7 GAS STATICCALL ISZERO DUP1 ISZERO PUSH2 0x1742 JUMPI RETURNDATASIZE PUSH1 0x0 DUP1 RETURNDATACOPY RETURNDATASIZE PUSH1 0x0 REVERT JUMPDEST POP POP POP POP PUSH1 0x40 MLOAD RETURNDATASIZE PUSH1 0x1F NOT PUSH1 0x1F DUP3 ADD AND DUP3 ADD DUP1 PUSH1 0x40 MSTORE POP DUP2 ADD SWAP1 PUSH2 0x1766 SWAP2 SWAP1 PUSH2 0x5E0E JUMP JUMPDEST LT ISZERO DUP1 ISZERO PUSH2 0x1774 JUMPI POP PUSH1 0x0 DUP4 GT JUMPDEST ISZERO PUSH2 0x17F3 JUMPI PUSH1 0x0 SLOAD PUSH1 0x40 MLOAD PUSH4 0xA9059CBB PUSH1 0xE0 SHL DUP2 MSTORE PUSH1 0x1 PUSH1 0x1 PUSH1 0xA0 SHL SUB SWAP1 SWAP2 AND SWAP1 PUSH4 0xA9059CBB SWAP1 PUSH2 0x17AB SWAP1 CALLER SWAP1 DUP8 SWAP1 PUSH1 0x4 ADD PUSH2 0x5A33 JUMP JUMPDEST PUSH1 0x20 PUSH1 0x40 MLOAD DUP1 DUP4 SUB DUP2 PUSH1 0x0 DUP8 GAS CALL ISZERO DUP1 ISZERO PUSH2 0x17CA JUMPI RETURNDATASIZE PUSH1 0x0 DUP1 RETURNDATACOPY RETURNDATASIZE PUSH1 0x0 REVERT JUMPDEST POP POP POP POP PUSH1 0x40 MLOAD RETURNDATASIZE PUSH1 0x1F NOT PUSH1 0x1F DUP3 ADD AND DUP3 ADD DUP1 PUSH1 0x40 MSTORE POP DUP2 ADD SWAP1 PUSH2 0x17EE SWAP2 SWAP1 PUSH2 0x5DDE JUMP JUMPDEST POP DUP3 SWAP1 POP JUMPDEST PUSH1 0x0 PUSH2 0x17FD PUSH2 0x19BF JUMP JUMPDEST SWAP1 POP PUSH1 0x0 DUP2 PUSH2 0x1814 DUP6 PUSH8 0xDE0B6B3A7640000 PUSH2 0x5D46 JUMP JUMPDEST PUSH2 0x181E SWAP2 SWAP1 PUSH2 0x5D70 JUMP JUMPDEST PUSH1 0x1 SLOAD PUSH1 0x40 MLOAD PUSH4 0x70A08231 PUSH1 0xE0 SHL DUP2 MSTORE SWAP2 SWAP3 POP PUSH1 0x0 SWAP2 DUP4 SWAP2 PUSH1 0x1 PUSH1 0x1 PUSH1 0xA0 SHL SUB AND SWAP1 PUSH4 0x70A08231 SWAP1 PUSH2 0x1854 SWAP1 ADDRESS SWAP1 PUSH1 0x4 ADD PUSH2 0x57FA JUMP JUMPDEST PUSH1 0x20 PUSH1 0x40 MLOAD DUP1 DUP4 SUB DUP2 DUP7 GAS STATICCALL ISZERO DUP1 ISZERO PUSH2 0x1871 JUMPI RETURNDATASIZE PUSH1 0x0 DUP1 RETURNDATACOPY RETURNDATASIZE PUSH1 0x0 REVERT JUMPDEST POP POP POP POP PUSH1 0x40 MLOAD RETURNDATASIZE PUSH1 0x1F NOT PUSH1 0x1F DUP3 ADD AND DUP3 ADD DUP1 PUSH1 0x40 MSTORE POP DUP2 ADD SWAP1 PUSH2 0x1895 SWAP2 SWAP1 PUSH2 0x5E0E JUMP JUMPDEST LT ISZERO DUP1 ISZERO PUSH2 0x18A3 JUMPI POP PUSH1 0x0 DUP3 GT JUMPDEST ISZERO PUSH2 0x1922 JUMPI PUSH1 0x1 SLOAD PUSH1 0x40 MLOAD PUSH4 0xA9059CBB PUSH1 0xE0 SHL DUP2 MSTORE PUSH1 0x1 PUSH1 0x1 PUSH1 0xA0 SHL SUB SWAP1 SWAP2 AND SWAP1 PUSH4 0xA9059CBB SWAP1 PUSH2 0x18DA SWAP1 CALLER SWAP1 DUP7 SWAP1 PUSH1 0x4 ADD PUSH2 0x5A33 JUMP JUMPDEST PUSH1 0x20 PUSH1 0x40 MLOAD DUP1 DUP4 SUB DUP2 PUSH1 0x0 DUP8 GAS CALL ISZERO DUP1 ISZERO PUSH2 0x18F9 JUMPI RETURNDATASIZE PUSH1 0x0 DUP1 RETURNDATACOPY RETURNDATASIZE PUSH1 0x0 REVERT JUMPDEST POP POP POP POP PUSH1 0x40 MLOAD RETURNDATASIZE PUSH1 0x1F NOT PUSH1 0x1F DUP3 ADD AND DUP3 ADD DUP1 PUSH1 0x40 MSTORE POP DUP2 ADD SWAP1 PUSH2 0x191D SWAP2 SWAP1 PUSH2 0x5DDE JUMP JUMPDEST POP DUP2 SWAP1 POP JUMPDEST CALLER PUSH1 0x1 PUSH1 0x1 PUSH1 0xA0 SHL SUB AND PUSH1 0x0 DUP1 MLOAD PUSH1 0x20 PUSH2 0x5FC4 DUP4 CODECOPY DUP2 MLOAD SWAP2 MSTORE DUP9 PUSH1 0x0 PUSH1 0x40 MLOAD PUSH2 0x194C SWAP3 SWAP2 SWAP1 PUSH2 0x5E3D JUMP JUMPDEST PUSH1 0x40 MLOAD DUP1 SWAP2 SUB SWAP1 LOG2 DUP9 SLOAD PUSH1 0x40 MLOAD CALLER SWAP2 PUSH1 0x0 DUP1 MLOAD PUSH1 0x20 PUSH2 0x5F44 DUP4 CODECOPY DUP2 MLOAD SWAP2 MSTORE SWAP2 PUSH2 0x197B SWAP2 DUP9 SWAP2 DUP7 SWAP2 PUSH1 0x0 SWAP2 PUSH2 0x5E4E JUMP JUMPDEST PUSH1 0x40 MLOAD DUP1 SWAP2 SUB SWAP1 LOG2 CALLER PUSH1 0x0 SWAP1 DUP2 MSTORE PUSH1 0xF PUSH1 0x20 MSTORE PUSH1 0x40 SWAP1 KECCAK256 PUSH1 0x4 DUP2 ADD SLOAD PUSH1 0x3 SWAP1 SWAP2 ADD SLOAD LT PUSH2 0x19AB JUMPI PUSH2 0x19AB CALLER PUSH2 0x4333 JUMP JUMPDEST POP POP POP POP POP POP POP POP POP JUMPDEST PUSH2 0x19BD PUSH2 0x4322 JUMP JUMPDEST JUMP JUMPDEST PUSH1 0x0 PUSH1 0x18 SLOAD PUSH1 0x0 SUB PUSH2 0x19D8 JUMPI POP PUSH8 0xDE0B6B3A7640000 SWAP1 JUMP JUMPDEST PUSH1 0x18 SLOAD PUSH1 0x17 SLOAD PUSH2 0x19F0 SWAP1 PUSH8 0xDE0B6B3A7640000 PUSH2 0x5D46 JUMP JUMPDEST PUSH2 0x19FA SWAP2 SWAP1 PUSH2 0x5D70 JUMP JUMPDEST SWAP1 POP SWAP1 JUMP JUMPDEST PUSH2 0x1A07 PUSH2 0x42BA JUMP JUMPDEST PUSH1 0x16 DUP1 SLOAD PUSH1 0xFF NOT AND DUP3 ISZERO ISZERO SWAP1 DUP2 OR SWAP1 SWAP2 SSTORE PUSH1 0x40 MLOAD SWAP1 DUP2 MSTORE PUSH32 0xB886FCB5B9C12916F26D967EBE962DBD51EC249FB55961DA39C851CDFC10115C SWAP1 PUSH1 0x20 ADD PUSH2 0xC80 JUMP JUMPDEST PUSH2 0x1A50 PUSH2 0x42EC JUMP JUMPDEST PUSH1 0x16 SLOAD PUSH1 0xFF AND PUSH2 0x1A8D JUMPI PUSH1 0x40 MLOAD PUSH3 0x461BCD PUSH1 0xE5 SHL DUP2 MSTORE PUSH1 0x20 PUSH1 0x4 DUP3 ADD MSTORE PUSH1 0x8 PUSH1 0x24 DUP3 ADD MSTORE PUSH8 0x111A5CD8589B1959 PUSH1 0xC2 SHL PUSH1 0x44 DUP3 ADD MSTORE PUSH1 0x64 ADD PUSH2 0xCDD JUMP JUMPDEST CALLER PUSH1 0x0 SWAP1 DUP2 MSTORE PUSH1 0x10 PUSH1 0x20 MSTORE PUSH1 0x40 SWAP1 KECCAK256 PUSH1 0x1 DUP2 ADD SLOAD PUSH2 0x1AD9 JUMPI PUSH1 0x40 MLOAD PUSH3 0x461BCD PUSH1 0xE5 SHL DUP2 MSTORE PUSH1 0x20 PUSH1 0x4 DUP3 ADD MSTORE PUSH1 0x9 PUSH1 0x24 DUP3 ADD MSTORE PUSH9 0x139BC81D1A58DAD95D PUSH1 0xBA SHL PUSH1 0x44 DUP3 ADD MSTORE PUSH1 0x64 ADD PUSH2 0xCDD JUMP JUMPDEST PUSH1 0x3 DUP2 ADD SLOAD PUSH1 0xFF AND ISZERO PUSH2 0x1B17 JUMPI PUSH1 0x40 MLOAD PUSH3 0x461BCD PUSH1 0xE5 SHL DUP2 MSTORE PUSH1 0x20 PUSH1 0x4 DUP3 ADD MSTORE PUSH1 0x6 PUSH1 0x24 DUP3 ADD MSTORE PUSH6 0x115E1A5D1959 PUSH1 0xD2 SHL PUSH1 0x44 DUP3 ADD MSTORE PUSH1 0x64 ADD PUSH2 0xCDD JUMP JUMPDEST PUSH1 0x15 SLOAD DUP2 PUSH1 0x2 ADD SLOAD PUSH2 0x1B29 SWAP2 SWAP1 PUSH2 0x5D5D JUMP JUMPDEST TIMESTAMP GT ISZERO PUSH2 0x1B62 JUMPI PUSH1 0x40 MLOAD PUSH3 0x461BCD PUSH1 0xE5 SHL DUP2 MSTORE PUSH1 0x20 PUSH1 0x4 DUP3 ADD MSTORE PUSH1 0x7 PUSH1 0x24 DUP3 ADD MSTORE PUSH7 0x115E1C1A5C9959 PUSH1 0xCA SHL PUSH1 0x44 DUP3 ADD MSTORE PUSH1 0x64 ADD PUSH2 0xCDD JUMP JUMPDEST DUP2 PUSH1 0x7 EQ DUP1 PUSH2 0x1B71 JUMPI POP DUP2 PUSH1 0xF EQ JUMPDEST DUP1 PUSH2 0x1B7C JUMPI POP DUP2 PUSH1 0x1E EQ JUMPDEST PUSH2 0x1BB4 JUMPI PUSH1 0x40 MLOAD PUSH3 0x461BCD PUSH1 0xE5 SHL DUP2 MSTORE PUSH1 0x20 PUSH1 0x4 DUP3 ADD MSTORE PUSH1 0x9 PUSH1 0x24 DUP3 ADD MSTORE PUSH9 0x426164206379636C65 PUSH1 0xB8 SHL PUSH1 0x44 DUP3 ADD MSTORE PUSH1 0x64 ADD PUSH2 0xCDD JUMP JUMPDEST PUSH1 0x0 DUP4 GT PUSH2 0x1BD4 JUMPI PUSH1 0x40 MLOAD PUSH3 0x461BCD PUSH1 0xE5 SHL DUP2 MSTORE PUSH1 0x4 ADD PUSH2 0xCDD SWAP1 PUSH2 0x5E6C JUMP JUMPDEST PUSH1 0x0 SLOAD PUSH1 0x40 MLOAD PUSH4 0x23B872DD PUSH1 0xE0 SHL DUP2 MSTORE PUSH1 0x1 PUSH1 0x1 PUSH1 0xA0 SHL SUB SWAP1 SWAP2 AND SWAP1 PUSH4 0x23B872DD SWAP1 PUSH2 0x1C08 SWAP1 CALLER SWAP1 ADDRESS SWAP1 DUP9 SWAP1 PUSH1 0x4 ADD PUSH2 0x5DBA JUMP JUMPDEST PUSH1 0x20 PUSH1 0x40 MLOAD DUP1 DUP4 SUB DUP2 PUSH1 0x0 DUP8 GAS CALL ISZERO DUP1 ISZERO PUSH2 0x1C27 JUMPI RETURNDATASIZE PUSH1 0x0 DUP1 RETURNDATACOPY RETURNDATASIZE PUSH1 0x0 REVERT JUMPDEST POP POP POP POP PUSH1 0x40 MLOAD RETURNDATASIZE PUSH1 0x1F NOT PUSH1 0x1F DUP3 ADD AND DUP3 ADD DUP1 PUSH1 0x40 MSTORE POP DUP2 ADD SWAP1 PUSH2 0x1C4B SWAP2 SWAP1 PUSH2 0x5DDE JUMP JUMPDEST POP PUSH1 0x1A DUP1 SLOAD SWAP1 PUSH1 0x0 PUSH2 0x1C5C DUP4 PUSH2 0x5E8A JUMP JUMPDEST SWAP1 SWAP2 SSTORE POP POP CALLER PUSH1 0x0 SWAP1 DUP2 MSTORE PUSH1 0x11 PUSH1 0x20 SWAP1 DUP2 MSTORE PUSH1 0x40 DUP1 DUP4 KECCAK256 DUP2 MLOAD PUSH1 0xC0 DUP2 ADD DUP4 MSTORE PUSH1 0x1A SLOAD DUP2 MSTORE DUP1 DUP5 ADD DUP9 DUP2 MSTORE TIMESTAMP SWAP4 DUP3 ADD SWAP4 DUP5 MSTORE PUSH1 0x60 DUP3 ADD DUP9 DUP2 MSTORE PUSH1 0x1 PUSH1 0x80 DUP5 ADD DUP2 DUP2 MSTORE PUSH1 0xA0 DUP6 ADD DUP10 DUP2 MSTORE DUP7 SLOAD DUP1 DUP5 ADD DUP9 SSTORE SWAP7 DUP11 MSTORE SWAP8 DUP10 KECCAK256 SWAP5 MLOAD PUSH1 0x6 SWAP1 SWAP7 MUL SWAP1 SWAP5 ADD SWAP5 DUP6 SSTORE SWAP2 MLOAD DUP5 DUP4 ADD SSTORE SWAP4 MLOAD PUSH1 0x2 DUP5 ADD SSTORE SWAP3 MLOAD PUSH1 0x3 DUP4 ADD SSTORE MLOAD PUSH1 0x4 DUP3 ADD DUP1 SLOAD PUSH1 0xFF NOT AND SWAP2 ISZERO ISZERO SWAP2 SWAP1 SWAP2 OR SWAP1 SSTORE SWAP2 MLOAD PUSH1 0x5 SWAP1 SWAP3 ADD SWAP2 SWAP1 SWAP2 SSTORE DUP3 ADD SLOAD PUSH2 0x1CFD SWAP1 PUSH2 0x4671 JUMP JUMPDEST SWAP1 POP PUSH1 0x0 PUSH2 0x1D0A CALLER PUSH2 0x4690 JUMP JUMPDEST SWAP1 POP DUP2 DUP2 LT ISZERO PUSH2 0x1D46 JUMPI PUSH1 0x40 MLOAD PUSH3 0x461BCD PUSH1 0xE5 SHL DUP2 MSTORE PUSH1 0x20 PUSH1 0x4 DUP3 ADD MSTORE PUSH1 0x7 PUSH1 0x24 DUP3 ADD MSTORE PUSH7 0x4C6F77206C6971 PUSH1 0xC8 SHL PUSH1 0x44 DUP3 ADD MSTORE PUSH1 0x64 ADD PUSH2 0xCDD JUMP JUMPDEST PUSH2 0x1D4F CALLER PUSH2 0x4722 JUMP JUMPDEST CALLER PUSH1 0x1 PUSH1 0x1 PUSH1 0xA0 SHL SUB AND PUSH32 0xA8A1B9E33E503EED12BF7E7C8C01C7F3B60217A496BDDD0F5DB351DD8C056C1C DUP7 DUP7 PUSH1 0x1A SLOAD PUSH1 0x40 MLOAD PUSH2 0x1D8E SWAP4 SWAP3 SWAP2 SWAP1 PUSH2 0x5889 JUMP JUMPDEST PUSH1 0x40 MLOAD DUP1 SWAP2 SUB SWAP1 LOG2 CALLER PUSH1 0x0 SWAP1 DUP2 MSTORE PUSH1 0xF PUSH1 0x20 MSTORE PUSH1 0x40 SWAP1 KECCAK256 PUSH1 0x6 ADD SLOAD DUP1 ISZERO PUSH2 0x1EE5 JUMPI CALLER PUSH1 0x0 SWAP1 DUP2 MSTORE PUSH1 0xF PUSH1 0x20 MSTORE PUSH1 0x40 DUP1 DUP3 KECCAK256 PUSH1 0x6 ADD DUP3 SWAP1 SSTORE SWAP1 SLOAD SWAP1 MLOAD PUSH4 0x70A08231 PUSH1 0xE0 SHL DUP2 MSTORE DUP3 SWAP2 PUSH1 0x1 PUSH1 0x1 PUSH1 0xA0 SHL SUB AND SWAP1 PUSH4 0x70A08231 SWAP1 PUSH2 0x1DF3 SWAP1 ADDRESS SWAP1 PUSH1 0x4 ADD PUSH2 0x57FA JUMP JUMPDEST PUSH1 0x20 PUSH1 0x40 MLOAD DUP1 DUP4 SUB DUP2 DUP7 GAS STATICCALL ISZERO DUP1 ISZERO PUSH2 0x1E10 JUMPI RETURNDATASIZE PUSH1 0x0 DUP1 RETURNDATACOPY RETURNDATASIZE PUSH1 0x0 REVERT JUMPDEST POP POP POP POP PUSH1 0x40 MLOAD RETURNDATASIZE PUSH1 0x1F NOT PUSH1 0x1F DUP3 ADD AND DUP3 ADD DUP1 PUSH1 0x40 MSTORE POP DUP2 ADD SWAP1 PUSH2 0x1E34 SWAP2 SWAP1 PUSH2 0x5E0E JUMP JUMPDEST LT PUSH2 0x1EE5 JUMPI PUSH1 0x0 SLOAD PUSH1 0x40 MLOAD PUSH4 0xA9059CBB PUSH1 0xE0 SHL DUP2 MSTORE PUSH1 0x1 PUSH1 0x1 PUSH1 0xA0 SHL SUB SWAP1 SWAP2 AND SWAP1 PUSH4 0xA9059CBB SWAP1 PUSH2 0x1E6B SWAP1 CALLER SWAP1 DUP6 SWAP1 PUSH1 0x4 ADD PUSH2 0x5A33 JUMP JUMPDEST PUSH1 0x20 PUSH1 0x40 MLOAD DUP1 DUP4 SUB DUP2 PUSH1 0x0 DUP8 GAS CALL ISZERO DUP1 ISZERO PUSH2 0x1E8A JUMPI RETURNDATASIZE PUSH1 0x0 DUP1 RETURNDATACOPY RETURNDATASIZE PUSH1 0x0 REVERT JUMPDEST POP POP POP POP PUSH1 0x40 MLOAD RETURNDATASIZE PUSH1 0x1F NOT PUSH1 0x1F DUP3 ADD AND DUP3 ADD DUP1 PUSH1 0x40 MSTORE POP DUP2 ADD SWAP1 PUSH2 0x1EAE SWAP2 SWAP1 PUSH2 0x5DDE JUMP JUMPDEST POP PUSH1 0x40 MLOAD DUP2 DUP2 MSTORE CALLER SWAP1 PUSH32 0x3437B9EA7FA19C6D233DD70CC787A70FAB87CEE64D8BA4571512CC84402748F9 SWAP1 PUSH1 0x20 ADD PUSH1 0x40 MLOAD DUP1 SWAP2 SUB SWAP1 LOG2 JUMPDEST POP POP POP POP PUSH2 0x1EF1 PUSH2 0x4322 JUMP JUMPDEST POP POP JUMP JUMPDEST PUSH2 0x1EFD PUSH2 0x4891 JUMP JUMPDEST PUSH2 0x1F06 DUP3 PUSH2 0x4936 JUMP JUMPDEST PUSH2 0x1EF1 DUP3 DUP3 PUSH2 0x493E JUMP JUMPDEST PUSH2 0x1F18 PUSH2 0x42EC JUMP JUMPDEST PUSH1 0x0 DUP2 GT PUSH2 0x1F38 JUMPI PUSH1 0x40 MLOAD PUSH3 0x461BCD PUSH1 0xE5 SHL DUP2 MSTORE PUSH1 0x4 ADD PUSH2 0xCDD SWAP1 PUSH2 0x5D92 JUMP JUMPDEST PUSH1 0x1 SLOAD PUSH1 0x40 MLOAD PUSH4 0x23B872DD PUSH1 0xE0 SHL DUP2 MSTORE PUSH1 0x1 PUSH1 0x1 PUSH1 0xA0 SHL SUB SWAP1 SWAP2 AND SWAP1 PUSH4 0x23B872DD SWAP1 PUSH2 0x1F6C SWAP1 CALLER SWAP1 ADDRESS SWAP1 DUP7 SWAP1 PUSH1 0x4 ADD PUSH2 0x5DBA JUMP JUMPDEST PUSH1 0x20 PUSH1 0x40 MLOAD DUP1 DUP4 SUB DUP2 PUSH1 0x0 DUP8 GAS CALL ISZERO DUP1 ISZERO PUSH2 0x1F8B JUMPI RETURNDATASIZE PUSH1 0x0 DUP1 RETURNDATACOPY RETURNDATASIZE PUSH1 0x0 REVERT JUMPDEST POP POP POP POP PUSH1 0x40 MLOAD RETURNDATASIZE PUSH1 0x1F NOT PUSH1 0x1F DUP3 ADD AND DUP3 ADD DUP1 PUSH1 0x40 MSTORE POP DUP2 ADD SWAP1 PUSH2 0x1FAF SWAP2 SWAP1 PUSH2 0x5DDE JUMP JUMPDEST POP PUSH1 0x0 PUSH1 0x64 PUSH1 0xE SLOAD DUP4 PUSH2 0x1FC2 SWAP2 SWAP1 PUSH2 0x5D46 JUMP JUMPDEST PUSH2 0x1FCC SWAP2 SWAP1 PUSH2 0x5D70 JUMP JUMPDEST SWAP1 POP PUSH1 0x0 PUSH2 0x1FDA DUP3 DUP5 PUSH2 0x5DFB JUMP JUMPDEST PUSH1 0x1 SLOAD PUSH1 0x40 MLOAD PUSH4 0x852CD8D PUSH1 0xE3 SHL DUP2 MSTORE PUSH1 0x4 DUP2 ADD DUP6 SWAP1 MSTORE SWAP2 SWAP3 POP PUSH1 0x1 PUSH1 0x1 PUSH1 0xA0 SHL SUB AND SWAP1 PUSH4 0x42966C68 SWAP1 PUSH1 0x24 ADD PUSH1 0x0 PUSH1 0x40 MLOAD DUP1 DUP4 SUB DUP2 PUSH1 0x0 DUP8 DUP1 EXTCODESIZE ISZERO DUP1 ISZERO PUSH2 0x2021 JUMPI PUSH1 0x0 DUP1 REVERT JUMPDEST POP GAS CALL ISZERO DUP1 ISZERO PUSH2 0x2035 JUMPI RETURNDATASIZE PUSH1 0x0 DUP1 RETURNDATACOPY RETURNDATASIZE PUSH1 0x0 REVERT JUMPDEST POP POP POP POP PUSH1 0x0 PUSH2 0x204A DUP3 PUSH1 0x18 SLOAD PUSH1 0x17 SLOAD PUSH2 0xDD5 JUMP JUMPDEST PUSH1 0x0 SLOAD PUSH1 0x40 MLOAD PUSH4 0x70A08231 PUSH1 0xE0 SHL DUP2 MSTORE SWAP2 SWAP3 POP DUP3 SWAP2 PUSH1 0x1 PUSH1 0x1 PUSH1 0xA0 SHL SUB SWAP1 SWAP2 AND SWAP1 PUSH4 0x70A08231 SWAP1 PUSH2 0x207F SWAP1 ADDRESS SWAP1 PUSH1 0x4 ADD PUSH2 0x57FA JUMP JUMPDEST PUSH1 0x20 PUSH1 0x40 MLOAD DUP1 DUP4 SUB DUP2 DUP7 GAS STATICCALL ISZERO DUP1 ISZERO PUSH2 0x209C JUMPI RETURNDATASIZE PUSH1 0x0 DUP1 RETURNDATACOPY RETURNDATASIZE PUSH1 0x0 REVERT JUMPDEST POP POP POP POP PUSH1 0x40 MLOAD RETURNDATASIZE PUSH1 0x1F NOT PUSH1 0x1F DUP3 ADD AND DUP3 ADD DUP1 PUSH1 0x40 MSTORE POP DUP2 ADD SWAP1 PUSH2 0x20C0 SWAP2 SWAP1 PUSH2 0x5E0E JUMP JUMPDEST LT ISZERO PUSH2 0x210A JUMPI PUSH1 0x40 MLOAD PUSH3 0x461BCD PUSH1 0xE5 SHL DUP2 MSTORE PUSH1 0x20 PUSH1 0x4 DUP3 ADD MSTORE PUSH1 0x19 PUSH1 0x24 DUP3 ADD MSTORE PUSH25 0x496E73756666696369656E74204D43206C6971756964697479 PUSH1 0x38 SHL PUSH1 0x44 DUP3 ADD MSTORE PUSH1 0x64 ADD PUSH2 0xCDD JUMP JUMPDEST DUP2 PUSH1 0x18 PUSH1 0x0 DUP3 DUP3 SLOAD PUSH2 0x211C SWAP2 SWAP1 PUSH2 0x5D5D JUMP JUMPDEST SWAP3 POP POP DUP2 SWAP1 SSTORE POP DUP1 PUSH1 0x17 PUSH1 0x0 DUP3 DUP3 SLOAD PUSH2 0x2135 SWAP2 SWAP1 PUSH2 0x5DFB JUMP JUMPDEST SWAP1 SWAP2 SSTORE POP POP PUSH1 0x0 SLOAD PUSH1 0x40 MLOAD PUSH4 0xA9059CBB PUSH1 0xE0 SHL DUP2 MSTORE PUSH1 0x1 PUSH1 0x1 PUSH1 0xA0 SHL SUB SWAP1 SWAP2 AND SWAP1 PUSH4 0xA9059CBB SWAP1 PUSH2 0x216C SWAP1 CALLER SWAP1 DUP6 SWAP1 PUSH1 0x4 ADD PUSH2 0x5A33 JUMP JUMPDEST PUSH1 0x20 PUSH1 0x40 MLOAD DUP1 DUP4 SUB DUP2 PUSH1 0x0 DUP8 GAS CALL ISZERO DUP1 ISZERO PUSH2 0x218B JUMPI RETURNDATASIZE PUSH1 0x0 DUP1 RETURNDATACOPY RETURNDATASIZE PUSH1 0x0 REVERT JUMPDEST POP POP POP POP PUSH1 0x40 MLOAD RETURNDATASIZE PUSH1 0x1F NOT PUSH1 0x1F DUP3 ADD AND DUP3 ADD DUP1 PUSH1 0x40 MSTORE POP DUP2 ADD SWAP1 PUSH2 0x21AF SWAP2 SWAP1 PUSH2 0x5DDE JUMP JUMPDEST POP CALLER PUSH1 0x1 PUSH1 0x1 PUSH1 0xA0 SHL SUB AND PUSH32 0x223C8AD0806F634524940A8595F819C5CFC7B1F4F4F45791269301DF0A7E61D5 DUP6 DUP4 DUP7 PUSH1 0x40 MLOAD PUSH2 0x11C0 SWAP4 SWAP3 SWAP2 SWAP1 PUSH2 0x5889 JUMP JUMPDEST PUSH1 0x0 PUSH2 0x21F7 PUSH2 0x49F2 JUMP JUMPDEST POP PUSH1 0x0 DUP1 MLOAD PUSH1 0x20 PUSH2 0x5F64 DUP4 CODECOPY DUP2 MLOAD SWAP2 MSTORE SWAP1 JUMP JUMPDEST PUSH2 0x2212 PUSH2 0x42BA JUMP JUMPDEST PUSH1 0x0 DUP3 GT PUSH2 0x2232 JUMPI PUSH1 0x40 MLOAD PUSH3 0x461BCD PUSH1 0xE5 SHL DUP2 MSTORE PUSH1 0x4 ADD PUSH2 0xCDD SWAP1 PUSH2 0x5E6C JUMP JUMPDEST PUSH1 0x18 SLOAD DUP3 GT ISZERO PUSH2 0x2254 JUMPI PUSH1 0x40 MLOAD PUSH3 0x461BCD PUSH1 0xE5 SHL DUP2 MSTORE PUSH1 0x4 ADD PUSH2 0xCDD SWAP1 PUSH2 0x5EA3 JUMP JUMPDEST DUP2 PUSH1 0x18 PUSH1 0x0 DUP3 DUP3 SLOAD PUSH2 0x2266 SWAP2 SWAP1 PUSH2 0x5DFB JUMP JUMPDEST SWAP1 SWAP2 SSTORE POP POP PUSH1 0x1 SLOAD PUSH1 0x40 MLOAD PUSH4 0xA9059CBB PUSH1 0xE0 SHL DUP2 MSTORE PUSH1 0x1 PUSH1 0x1 PUSH1 0xA0 SHL SUB SWAP1 SWAP2 AND SWAP1 PUSH4 0xA9059CBB SWAP1 PUSH2 0x229D SWAP1 DUP5 SWAP1 DUP7 SWAP1 PUSH1 0x4 ADD PUSH2 0x5A33 JUMP JUMPDEST PUSH1 0x20 PUSH1 0x40 MLOAD DUP1 DUP4 SUB DUP2 PUSH1 0x0 DUP8 GAS CALL ISZERO DUP1 ISZERO PUSH2 0x22BC JUMPI RETURNDATASIZE PUSH1 0x0 DUP1 RETURNDATACOPY RETURNDATASIZE PUSH1 0x0 REVERT JUMPDEST POP POP POP POP PUSH1 0x40 MLOAD RETURNDATASIZE PUSH1 0x1F NOT PUSH1 0x1F DUP3 ADD AND DUP3 ADD DUP1 PUSH1 0x40 MSTORE POP DUP2 ADD SWAP1 PUSH2 0x22E0 SWAP2 SWAP1 PUSH2 0x5DDE JUMP JUMPDEST POP POP POP JUMP JUMPDEST PUSH2 0x22ED PUSH2 0x42EC JUMP JUMPDEST PUSH2 0x22F6 CALLER PUSH2 0x4A3B JUMP JUMPDEST DUP1 PUSH9 0x56BC75E2D63100000 EQ DUP1 PUSH2 0x2315 JUMPI POP DUP1 PUSH9 0x1043561A8829300000 EQ JUMPDEST DUP1 PUSH2 0x2328 JUMPI POP DUP1 PUSH9 0x1B1AE4D6E2EF500000 EQ JUMPDEST DUP1 PUSH2 0x233B JUMPI POP DUP1 PUSH9 0x3635C9ADC5DEA00000 EQ JUMPDEST PUSH2 0x2371 JUMPI PUSH1 0x40 MLOAD PUSH3 0x461BCD PUSH1 0xE5 SHL DUP2 MSTORE PUSH1 0x20 PUSH1 0x4 DUP3 ADD MSTORE PUSH1 0x7 PUSH1 0x24 DUP3 ADD MSTORE PUSH7 0x10985908185B5D PUSH1 0xCA SHL PUSH1 0x44 DUP3 ADD MSTORE PUSH1 0x64 ADD PUSH2 0xCDD JUMP JUMPDEST PUSH1 0x0 SLOAD PUSH1 0x40 MLOAD PUSH4 0x23B872DD PUSH1 0xE0 SHL DUP2 MSTORE PUSH1 0x1 PUSH1 0x1 PUSH1 0xA0 SHL SUB SWAP1 SWAP2 AND SWAP1 PUSH4 0x23B872DD SWAP1 PUSH2 0x23A5 SWAP1 CALLER SWAP1 ADDRESS SWAP1 DUP7 SWAP1 PUSH1 0x4 ADD PUSH2 0x5DBA JUMP JUMPDEST PUSH1 0x20 PUSH1 0x40 MLOAD DUP1 DUP4 SUB DUP2 PUSH1 0x0 DUP8 GAS CALL ISZERO DUP1 ISZERO PUSH2 0x23C4 JUMPI RETURNDATASIZE PUSH1 0x0 DUP1 RETURNDATACOPY RETURNDATASIZE PUSH1 0x0 REVERT JUMPDEST POP POP POP POP PUSH1 0x40 MLOAD RETURNDATASIZE PUSH1 0x1F NOT PUSH1 0x1F DUP3 ADD AND DUP3 ADD DUP1 PUSH1 0x40 MSTORE POP DUP2 ADD SWAP1 PUSH2 0x23E8 SWAP2 SWAP1 PUSH2 0x5DDE JUMP JUMPDEST POP CALLER PUSH1 0x0 SWAP1 DUP2 MSTORE PUSH1 0x10 PUSH1 0x20 MSTORE PUSH1 0x40 SWAP1 KECCAK256 PUSH1 0x3 DUP2 ADD SLOAD PUSH1 0xFF AND ISZERO PUSH2 0x246E JUMPI PUSH1 0x19 DUP1 SLOAD SWAP1 PUSH1 0x0 PUSH2 0x2415 DUP4 PUSH2 0x5E8A JUMP JUMPDEST SWAP1 SWAP2 SSTORE POP POP PUSH1 0x19 SLOAD DUP2 SSTORE PUSH1 0x1 DUP2 ADD DUP3 SWAP1 SSTORE TIMESTAMP PUSH1 0x2 DUP3 ADD SSTORE PUSH1 0x3 DUP1 DUP3 ADD DUP1 SLOAD PUSH1 0xFF NOT AND SWAP1 SSTORE CALLER PUSH1 0x0 SWAP1 DUP2 MSTORE PUSH1 0xF PUSH1 0x20 MSTORE PUSH1 0x40 DUP2 KECCAK256 DUP3 ADD SSTORE PUSH2 0x2456 SWAP1 DUP4 SWAP1 PUSH2 0x5D46 JUMP JUMPDEST CALLER PUSH1 0x0 SWAP1 DUP2 MSTORE PUSH1 0xF PUSH1 0x20 MSTORE PUSH1 0x40 SWAP1 KECCAK256 PUSH1 0x4 ADD SSTORE PUSH2 0x24F8 JUMP JUMPDEST DUP1 PUSH1 0x1 ADD SLOAD PUSH1 0x0 SUB PUSH2 0x248A JUMPI PUSH1 0x19 DUP1 SLOAD SWAP1 PUSH1 0x0 PUSH2 0x2415 DUP4 PUSH2 0x5E8A JUMP JUMPDEST DUP2 DUP2 PUSH1 0x1 ADD PUSH1 0x0 DUP3 DUP3 SLOAD PUSH2 0x249E SWAP2 SWAP1 PUSH2 0x5D5D JUMP JUMPDEST SWAP1 SWAP2 SSTORE POP POP CALLER PUSH1 0x0 SWAP1 DUP2 MSTORE PUSH1 0xF PUSH1 0x20 MSTORE PUSH1 0x40 SWAP1 KECCAK256 PUSH1 0x5 ADD SLOAD PUSH1 0xFF AND ISZERO PUSH2 0x24C5 JUMPI TIMESTAMP PUSH1 0x2 DUP3 ADD SSTORE JUMPDEST PUSH2 0x24D0 DUP3 PUSH1 0x3 PUSH2 0x5D46 JUMP JUMPDEST CALLER PUSH1 0x0 SWAP1 DUP2 MSTORE PUSH1 0xF PUSH1 0x20 MSTORE PUSH1 0x40 DUP2 KECCAK256 PUSH1 0x4 ADD DUP1 SLOAD SWAP1 SWAP2 SWAP1 PUSH2 0x24F2 SWAP1 DUP5 SWAP1 PUSH2 0x5D5D JUMP JUMPDEST SWAP1 SWAP2 SSTORE POP POP JUMPDEST DUP1 SLOAD PUSH1 0x0 SWAP1 DUP2 MSTORE PUSH1 0x1C PUSH1 0x20 SWAP1 DUP2 MSTORE PUSH1 0x40 DUP1 DUP4 KECCAK256 DUP1 SLOAD PUSH1 0x1 PUSH1 0x1 PUSH1 0xA0 SHL SUB NOT AND CALLER SWAP1 DUP2 OR SWAP1 SWAP2 SSTORE DUP4 MSTORE PUSH1 0xF SWAP1 SWAP2 MSTORE SWAP1 KECCAK256 SLOAD PUSH1 0x1 PUSH1 0x1 PUSH1 0xA0 SHL SUB AND DUP1 ISZERO DUP1 ISZERO SWAP1 PUSH2 0x255B JUMPI POP PUSH1 0x1 PUSH1 0x1 PUSH1 0xA0 SHL SUB DUP2 AND PUSH1 0x0 SWAP1 DUP2 MSTORE PUSH1 0xF PUSH1 0x20 MSTORE PUSH1 0x40 SWAP1 KECCAK256 PUSH1 0x5 ADD SLOAD PUSH1 0xFF AND JUMPDEST ISZERO PUSH2 0x25D4 JUMPI PUSH1 0x0 PUSH1 0x64 PUSH1 0x6 SLOAD DUP6 PUSH2 0x2572 SWAP2 SWAP1 PUSH2 0x5D46 JUMP JUMPDEST PUSH2 0x257C SWAP2 SWAP1 PUSH2 0x5D70 JUMP JUMPDEST SWAP1 POP PUSH1 0x0 PUSH2 0x258C DUP4 DUP4 PUSH1 0x2 PUSH2 0x4C12 JUMP JUMPDEST SWAP1 POP DUP1 ISZERO PUSH2 0x25CD JUMPI DUP4 SLOAD PUSH1 0x40 MLOAD CALLER SWAP2 PUSH1 0x1 PUSH1 0x1 PUSH1 0xA0 SHL SUB DUP7 AND SWAP2 PUSH1 0x0 DUP1 MLOAD PUSH1 0x20 PUSH2 0x5F24 DUP4 CODECOPY DUP2 MLOAD SWAP2 MSTORE SWAP2 PUSH2 0x25C4 SWAP2 DUP7 SWAP2 PUSH1 0x2 SWAP2 PUSH2 0x5EC1 JUMP JUMPDEST PUSH1 0x40 MLOAD DUP1 SWAP2 SUB SWAP1 LOG3 JUMPDEST POP POP PUSH2 0x266A JUMP JUMPDEST PUSH1 0x0 SLOAD PUSH1 0x2 SLOAD PUSH1 0x6 SLOAD PUSH1 0x1 PUSH1 0x1 PUSH1 0xA0 SHL SUB SWAP3 DUP4 AND SWAP3 PUSH4 0xA9059CBB SWAP3 AND SWAP1 PUSH1 0x64 SWAP1 PUSH2 0x25FE SWAP1 DUP9 PUSH2 0x5D46 JUMP JUMPDEST PUSH2 0x2608 SWAP2 SWAP1 PUSH2 0x5D70 JUMP JUMPDEST PUSH1 0x40 MLOAD DUP4 PUSH4 0xFFFFFFFF AND PUSH1 0xE0 SHL DUP2 MSTORE PUSH1 0x4 ADD PUSH2 0x2625 SWAP3 SWAP2 SWAP1 PUSH2 0x5A33 JUMP JUMPDEST PUSH1 0x20 PUSH1 0x40 MLOAD DUP1 DUP4 SUB DUP2 PUSH1 0x0 DUP8 GAS CALL ISZERO DUP1 ISZERO PUSH2 0x2644 JUMPI RETURNDATASIZE PUSH1 0x0 DUP1 RETURNDATACOPY RETURNDATASIZE PUSH1 0x0 REVERT JUMPDEST POP POP POP POP PUSH1 0x40 MLOAD RETURNDATASIZE PUSH1 0x1F NOT PUSH1 0x1F DUP3 ADD AND DUP3 ADD DUP1 PUSH1 0x40 MSTORE POP DUP2 ADD SWAP1 PUSH2 0x2668 SWAP2 SWAP1 PUSH2 0x5DDE JUMP JUMPDEST POP JUMPDEST CALLER PUSH1 0x0 DUP2 DUP2 MSTORE PUSH1 0x10 PUSH1 0x20 MSTORE PUSH1 0x40 SWAP1 KECCAK256 SLOAD PUSH2 0x2686 SWAP2 SWAP1 DUP6 SWAP1 PUSH2 0x4DA9 JUMP JUMPDEST PUSH1 0x0 SLOAD PUSH1 0x2 SLOAD PUSH1 0x8 SLOAD PUSH1 0x1 PUSH1 0x1 PUSH1 0xA0 SHL SUB SWAP3 DUP4 AND SWAP3 PUSH4 0xA9059CBB SWAP3 AND SWAP1 PUSH1 0x64 SWAP1 PUSH2 0x26B0 SWAP1 DUP9 PUSH2 0x5D46 JUMP JUMPDEST PUSH2 0x26BA SWAP2 SWAP1 PUSH2 0x5D70 JUMP JUMPDEST PUSH1 0x40 MLOAD DUP4 PUSH4 0xFFFFFFFF AND PUSH1 0xE0 SHL DUP2 MSTORE PUSH1 0x4 ADD PUSH2 0x26D7 SWAP3 SWAP2 SWAP1 PUSH2 0x5A33 JUMP JUMPDEST PUSH1 0x20 PUSH1 0x40 MLOAD DUP1 DUP4 SUB DUP2 PUSH1 0x0 DUP8 GAS CALL ISZERO DUP1 ISZERO PUSH2 0x26F6 JUMPI RETURNDATASIZE PUSH1 0x0 DUP1 RETURNDATACOPY RETURNDATASIZE PUSH1 0x0 REVERT JUMPDEST POP POP POP POP PUSH1 0x40 MLOAD RETURNDATASIZE PUSH1 0x1F NOT PUSH1 0x1F DUP3 ADD AND DUP3 ADD DUP1 PUSH1 0x40 MSTORE POP DUP2 ADD SWAP1 PUSH2 0x271A SWAP2 SWAP1 PUSH2 0x5DDE JUMP JUMPDEST POP PUSH1 0x0 PUSH1 0x64 PUSH1 0x9 SLOAD DUP6 PUSH2 0x272D SWAP2 SWAP1 PUSH2 0x5D46 JUMP JUMPDEST PUSH2 0x2737 SWAP2 SWAP1 PUSH2 0x5D70 JUMP JUMPDEST SWAP1 POP PUSH2 0x2742 DUP2 PUSH2 0x4FE7 JUMP JUMPDEST PUSH1 0x0 SLOAD PUSH1 0x4 SLOAD PUSH1 0xA SLOAD PUSH1 0x1 PUSH1 0x1 PUSH1 0xA0 SHL SUB SWAP3 DUP4 AND SWAP3 PUSH4 0xA9059CBB SWAP3 AND SWAP1 PUSH1 0x64 SWAP1 PUSH2 0x276C SWAP1 DUP10 PUSH2 0x5D46 JUMP JUMPDEST PUSH2 0x2776 SWAP2 SWAP1 PUSH2 0x5D70 JUMP JUMPDEST PUSH1 0x40 MLOAD DUP4 PUSH4 0xFFFFFFFF AND PUSH1 0xE0 SHL DUP2 MSTORE PUSH1 0x4 ADD PUSH2 0x2793 SWAP3 SWAP2 SWAP1 PUSH2 0x5A33 JUMP JUMPDEST PUSH1 0x20 PUSH1 0x40 MLOAD DUP1 DUP4 SUB DUP2 PUSH1 0x0 DUP8 GAS CALL ISZERO DUP1 ISZERO PUSH2 0x27B2 JUMPI RETURNDATASIZE PUSH1 0x0 DUP1 RETURNDATACOPY RETURNDATASIZE PUSH1 0x0 REVERT JUMPDEST POP POP POP POP PUSH1 0x40 MLOAD RETURNDATASIZE PUSH1 0x1F NOT PUSH1 0x1F DUP3 ADD AND DUP3 ADD DUP1 PUSH1 0x40 MSTORE POP DUP2 ADD SWAP1 PUSH2 0x27D6 SWAP2 SWAP1 PUSH2 0x5DDE JUMP JUMPDEST POP PUSH1 0x0 SLOAD PUSH1 0x3 SLOAD PUSH1 0xB SLOAD PUSH1 0x1 PUSH1 0x1 PUSH1 0xA0 SHL SUB SWAP3 DUP4 AND SWAP3 PUSH4 0xA9059CBB SWAP3 AND SWAP1 PUSH1 0x64 SWAP1 PUSH2 0x2801 SWAP1 DUP10 PUSH2 0x5D46 JUMP JUMPDEST PUSH2 0x280B SWAP2 SWAP1 PUSH2 0x5D70 JUMP JUMPDEST PUSH1 0x40 MLOAD DUP4 PUSH4 0xFFFFFFFF AND PUSH1 0xE0 SHL DUP2 MSTORE PUSH1 0x4 ADD PUSH2 0x2828 SWAP3 SWAP2 SWAP1 PUSH2 0x5A33 JUMP JUMPDEST PUSH1 0x20 PUSH1 0x40 MLOAD DUP1 DUP4 SUB DUP2 PUSH1 0x0 DUP8 GAS CALL ISZERO DUP1 ISZERO PUSH2 0x2847 JUMPI RETURNDATASIZE PUSH1 0x0 DUP1 RETURNDATACOPY RETURNDATASIZE PUSH1 0x0 REVERT JUMPDEST POP POP POP POP PUSH1 0x40 MLOAD RETURNDATASIZE PUSH1 0x1F NOT PUSH1 0x1F DUP3 ADD AND DUP3 ADD DUP1 PUSH1 0x40 MSTORE POP DUP2 ADD SWAP1 PUSH2 0x286B SWAP2 SWAP1 PUSH2 0x5DDE JUMP JUMPDEST POP PUSH2 0x2875 CALLER PUSH2 0x4722 JUMP JUMPDEST DUP3 SLOAD PUSH1 0x40 MLOAD CALLER SWAP2 PUSH32 0x2A91574E12AD96234E84923E146B0946ECFB871CD8D5534DC1FDCBE87A7C01B3 SWAP2 PUSH2 0x11C0 SWAP2 DUP9 SWAP2 PUSH2 0x5AA0 JUMP JUMPDEST PUSH2 0x28B1 PUSH2 0x42BA JUMP JUMPDEST PUSH1 0x1 PUSH1 0x1 PUSH1 0xA0 SHL SUB SWAP1 SWAP3 AND PUSH1 0x0 SWAP1 DUP2 MSTORE PUSH1 0xF PUSH1 0x20 MSTORE PUSH1 0x40 SWAP1 KECCAK256 PUSH1 0x1 DUP2 ADD SWAP2 SWAP1 SWAP2 SSTORE PUSH1 0x2 ADD SSTORE JUMP JUMPDEST PUSH2 0x28E0 PUSH2 0x42BA JUMP JUMPDEST PUSH2 0x19BD PUSH1 0x0 PUSH2 0x51E6 JUMP JUMPDEST PUSH2 0x28F2 PUSH2 0x42BA JUMP JUMPDEST PUSH1 0x32 DUP2 GT ISZERO PUSH2 0x292D JUMPI PUSH1 0x40 MLOAD PUSH3 0x461BCD PUSH1 0xE5 SHL DUP2 MSTORE PUSH1 0x20 PUSH1 0x4 DUP3 ADD MSTORE PUSH1 0x7 PUSH1 0x24 DUP3 ADD MSTORE PUSH7 0x4665653E353025 PUSH1 0xC8 SHL PUSH1 0x44 DUP3 ADD MSTORE PUSH1 0x64 ADD PUSH2 0xCDD JUMP JUMPDEST PUSH1 0xC SSTORE JUMP JUMPDEST PUSH1 0x13 PUSH1 0x20 MSTORE DUP2 PUSH1 0x0 MSTORE PUSH1 0x40 PUSH1 0x0 KECCAK256 DUP2 DUP2 SLOAD DUP2 LT PUSH2 0x294E JUMPI PUSH1 0x0 DUP1 REVERT JUMPDEST PUSH1 0x0 SWAP2 DUP3 MSTORE PUSH1 0x20 SWAP1 SWAP2 KECCAK256 PUSH1 0x2 SWAP1 SWAP2 MUL ADD DUP1 SLOAD PUSH1 0x1 SWAP1 SWAP2 ADD SLOAD PUSH1 0x1 PUSH1 0x1 PUSH1 0xA0 SHL SUB SWAP1 SWAP2 AND SWAP3 POP SWAP1 POP DUP3 JUMP JUMPDEST PUSH1 0x1B SLOAD PUSH2 0x2988 SWAP1 PUSH3 0x15180 PUSH2 0x5D5D JUMP JUMPDEST TIMESTAMP LT ISZERO PUSH2 0x29C3 JUMPI PUSH1 0x40 MLOAD PUSH3 0x461BCD PUSH1 0xE5 SHL DUP2 MSTORE PUSH1 0x20 PUSH1 0x4 DUP3 ADD MSTORE PUSH1 0x9 PUSH1 0x24 DUP3 ADD MSTORE PUSH9 0x546F6F206561726C79 PUSH1 0xB8 SHL PUSH1 0x44 DUP3 ADD MSTORE PUSH1 0x64 ADD PUSH2 0xCDD JUMP JUMPDEST PUSH1 0x0 PUSH1 0x18 SLOAD GT PUSH2 0x2A03 JUMPI PUSH1 0x40 MLOAD PUSH3 0x461BCD PUSH1 0xE5 SHL DUP2 MSTORE PUSH1 0x20 PUSH1 0x4 DUP3 ADD MSTORE PUSH1 0xB PUSH1 0x24 DUP3 ADD MSTORE PUSH11 0x4E6F207265736572766573 PUSH1 0xA8 SHL PUSH1 0x44 DUP3 ADD MSTORE PUSH1 0x64 ADD PUSH2 0xCDD JUMP JUMPDEST PUSH1 0x0 PUSH1 0x64 PUSH1 0x18 SLOAD PUSH2 0x2A14 SWAP2 SWAP1 PUSH2 0x5D70 JUMP JUMPDEST SWAP1 POP DUP1 ISZERO PUSH2 0x2B6C JUMPI PUSH1 0x1 SLOAD PUSH1 0x40 MLOAD PUSH4 0x70A08231 PUSH1 0xE0 SHL DUP2 MSTORE DUP3 SWAP2 PUSH1 0x1 PUSH1 0x1 PUSH1 0xA0 SHL SUB AND SWAP1 PUSH4 0x70A08231 SWAP1 PUSH2 0x2A4C SWAP1 ADDRESS SWAP1 PUSH1 0x4 ADD PUSH2 0x57FA JUMP JUMPDEST PUSH1 0x20 PUSH1 0x40 MLOAD DUP1 DUP4 SUB DUP2 DUP7 GAS STATICCALL ISZERO DUP1 ISZERO PUSH2 0x2A69 JUMPI RETURNDATASIZE PUSH1 0x0 DUP1 RETURNDATACOPY RETURNDATASIZE PUSH1 0x0 REVERT JUMPDEST POP POP POP POP PUSH1 0x40 MLOAD RETURNDATASIZE PUSH1 0x1F NOT PUSH1 0x1F DUP3 ADD AND DUP3 ADD DUP1 PUSH1 0x40 MSTORE POP DUP2 ADD SWAP1 PUSH2 0x2A8D SWAP2 SWAP1 PUSH2 0x5E0E JUMP JUMPDEST LT ISZERO PUSH2 0x2ACE JUMPI PUSH1 0x40 MLOAD PUSH3 0x461BCD PUSH1 0xE5 SHL DUP2 MSTORE PUSH1 0x20 PUSH1 0x4 DUP3 ADD MSTORE PUSH1 0x10 PUSH1 0x24 DUP3 ADD MSTORE PUSH16 0x496E73756666696369656E74204A4243 PUSH1 0x80 SHL PUSH1 0x44 DUP3 ADD MSTORE PUSH1 0x64 ADD PUSH2 0xCDD JUMP JUMPDEST DUP1 PUSH1 0x18 PUSH1 0x0 DUP3 DUP3 SLOAD PUSH2 0x2AE0 SWAP2 SWAP1 PUSH2 0x5DFB JUMP JUMPDEST SWAP1 SWAP2 SSTORE POP POP PUSH1 0x1 SLOAD PUSH1 0x40 MLOAD PUSH4 0x852CD8D PUSH1 0xE3 SHL DUP2 MSTORE PUSH1 0x4 DUP2 ADD DUP4 SWAP1 MSTORE PUSH1 0x1 PUSH1 0x1 PUSH1 0xA0 SHL SUB SWAP1 SWAP2 AND SWAP1 PUSH4 0x42966C68 SWAP1 PUSH1 0x24 ADD PUSH1 0x0 PUSH1 0x40 MLOAD DUP1 DUP4 SUB DUP2 PUSH1 0x0 DUP8 DUP1 EXTCODESIZE ISZERO DUP1 ISZERO PUSH2 0x2B2B JUMPI PUSH1 0x0 DUP1 REVERT JUMPDEST POP GAS CALL ISZERO DUP1 ISZERO PUSH2 0x2B3F JUMPI RETURNDATASIZE PUSH1 0x0 DUP1 RETURNDATACOPY RETURNDATASIZE PUSH1 0x0 REVERT JUMPDEST POP POP POP POP PUSH1 0x0 DUP1 MLOAD PUSH1 0x20 PUSH2 0x5FA4 DUP4 CODECOPY DUP2 MLOAD SWAP2 MSTORE PUSH1 0x0 DUP3 PUSH1 0x40 MLOAD PUSH2 0x2B63 SWAP3 SWAP2 SWAP1 PUSH2 0x5AA0 JUMP JUMPDEST PUSH1 0x40 MLOAD DUP1 SWAP2 SUB SWAP1 LOG1 JUMPDEST POP TIMESTAMP PUSH1 0x1B SSTORE JUMP JUMPDEST PUSH2 0x2B7B PUSH2 0x42BA JUMP JUMPDEST PUSH1 0x2 DUP1 SLOAD PUSH1 0x1 PUSH1 0x1 PUSH1 0xA0 SHL SUB SWAP6 DUP7 AND PUSH1 0x1 PUSH1 0x1 PUSH1 0xA0 SHL SUB NOT SWAP2 DUP3 AND OR SWAP1 SWAP2 SSTORE PUSH1 0x3 DUP1 SLOAD SWAP5 DUP7 AND SWAP5 DUP3 AND SWAP5 SWAP1 SWAP5 OR SWAP1 SWAP4 SSTORE PUSH1 0x4 DUP1 SLOAD SWAP3 DUP6 AND SWAP3 DUP5 AND SWAP3 SWAP1 SWAP3 OR SWAP1 SWAP2 SSTORE PUSH1 0x5 DUP1 SLOAD SWAP2 SWAP1 SWAP4 AND SWAP2 AND OR SWAP1 SSTORE JUMP JUMPDEST PUSH1 0x0 DUP1 PUSH1 0x0 JUMPDEST PUSH1 0x14 SLOAD DUP2 LT ISZERO PUSH2 0x2C62 JUMPI PUSH1 0x14 DUP2 DUP2 SLOAD DUP2 LT PUSH2 0x2BEE JUMPI PUSH2 0x2BEE PUSH2 0x5E27 JUMP JUMPDEST SWAP1 PUSH1 0x0 MSTORE PUSH1 0x20 PUSH1 0x0 KECCAK256 SWAP1 PUSH1 0x3 MUL ADD PUSH1 0x0 ADD SLOAD DUP5 LT PUSH2 0x2C5A JUMPI PUSH1 0x14 DUP2 DUP2 SLOAD DUP2 LT PUSH2 0x2C19 JUMPI PUSH2 0x2C19 PUSH2 0x5E27 JUMP JUMPDEST SWAP1 PUSH1 0x0 MSTORE PUSH1 0x20 PUSH1 0x0 KECCAK256 SWAP1 PUSH1 0x3 MUL ADD PUSH1 0x1 ADD SLOAD PUSH1 0x14 DUP3 DUP2 SLOAD DUP2 LT PUSH2 0x2C3E JUMPI PUSH2 0x2C3E PUSH2 0x5E27 JUMP JUMPDEST SWAP1 PUSH1 0x0 MSTORE PUSH1 0x20 PUSH1 0x0 KECCAK256 SWAP1 PUSH1 0x3 MUL ADD PUSH1 0x2 ADD SLOAD SWAP3 POP SWAP3 POP POP SWAP2 POP SWAP2 JUMP JUMPDEST PUSH1 0x1 ADD PUSH2 0x2BD1 JUMP JUMPDEST POP PUSH1 0x0 SWAP4 DUP5 SWAP4 POP SWAP2 POP POP JUMP JUMPDEST PUSH1 0x0 DUP1 PUSH2 0x2C79 PUSH2 0x5242 JUMP JUMPDEST SLOAD PUSH1 0x1 PUSH1 0x1 PUSH1 0xA0 SHL SUB AND SWAP3 SWAP2 POP POP JUMP JUMPDEST PUSH2 0x2C91 PUSH2 0x42BA JUMP JUMPDEST PUSH1 0x32 DUP3 GT ISZERO DUP1 ISZERO PUSH2 0x2CA3 JUMPI POP PUSH1 0x32 DUP2 GT ISZERO JUMPDEST PUSH2 0x2CD9 JUMPI PUSH1 0x40 MLOAD PUSH3 0x461BCD PUSH1 0xE5 SHL DUP2 MSTORE PUSH1 0x20 PUSH1 0x4 DUP3 ADD MSTORE PUSH1 0x7 PUSH1 0x24 DUP3 ADD MSTORE PUSH7 0x5461783E353025 PUSH1 0xC8 SHL PUSH1 0x44 DUP3 ADD MSTORE PUSH1 0x64 ADD PUSH2 0xCDD JUMP JUMPDEST PUSH1 0xD SWAP2 SWAP1 SWAP2 SSTORE PUSH1 0xE SSTORE JUMP JUMPDEST PUSH2 0x19BD CALLER PUSH2 0x4A3B JUMP JUMPDEST PUSH2 0x2CF5 PUSH2 0x42BA JUMP JUMPDEST PUSH1 0x0 DUP3 GT DUP1 PUSH2 0x2D04 JUMPI POP PUSH1 0x0 DUP2 GT JUMPDEST PUSH2 0x2D3E JUMPI PUSH1 0x40 MLOAD PUSH3 0x461BCD PUSH1 0xE5 SHL DUP2 MSTORE PUSH1 0x20 PUSH1 0x4 DUP3 ADD MSTORE PUSH1 0xB PUSH1 0x24 DUP3 ADD MSTORE PUSH11 0x16995C9BC8185B5BDD5B9D PUSH1 0xAA SHL PUSH1 0x44 DUP3 ADD MSTORE PUSH1 0x64 ADD PUSH2 0xCDD JUMP JUMPDEST DUP2 ISZERO PUSH2 0x2DD4 JUMPI PUSH1 0x0 SLOAD PUSH1 0x40 MLOAD PUSH4 0x23B872DD PUSH1 0xE0 SHL DUP2 MSTORE PUSH1 0x1 PUSH1 0x1 PUSH1 0xA0 SHL SUB SWAP1 SWAP2 AND SWAP1 PUSH4 0x23B872DD SWAP1 PUSH2 0x2D78 SWAP1 CALLER SWAP1 ADDRESS SWAP1 DUP8 SWAP1 PUSH1 0x4 ADD PUSH2 0x5DBA JUMP JUMPDEST PUSH1 0x20 PUSH1 0x40 MLOAD DUP1 DUP4 SUB DUP2 PUSH1 0x0 DUP8 GAS CALL ISZERO DUP1 ISZERO PUSH2 0x2D97 JUMPI RETURNDATASIZE PUSH1 0x0 DUP1 RETURNDATACOPY RETURNDATASIZE PUSH1 0x0 REVERT JUMPDEST POP POP POP POP PUSH1 0x40 MLOAD RETURNDATASIZE PUSH1 0x1F NOT PUSH1 0x1F DUP3 ADD AND DUP3 ADD DUP1 PUSH1 0x40 MSTORE POP DUP2 ADD SWAP1 PUSH2 0x2DBB SWAP2 SWAP1 PUSH2 0x5DDE JUMP JUMPDEST POP DUP2 PUSH1 0x17 PUSH1 0x0 DUP3 DUP3 SLOAD PUSH2 0x2DCE SWAP2 SWAP1 PUSH2 0x5D5D JUMP JUMPDEST SWAP1 SWAP2 SSTORE POP POP JUMPDEST DUP1 ISZERO PUSH2 0x2E6A JUMPI PUSH1 0x1 SLOAD PUSH1 0x40 MLOAD PUSH4 0x23B872DD PUSH1 0xE0 SHL DUP2 MSTORE PUSH1 0x1 PUSH1 0x1 PUSH1 0xA0 SHL SUB SWAP1 SWAP2 AND SWAP1 PUSH4 0x23B872DD SWAP1 PUSH2 0x2E0E SWAP1 CALLER SWAP1 ADDRESS SWAP1 DUP7 SWAP1 PUSH1 0x4 ADD PUSH2 0x5DBA JUMP JUMPDEST PUSH1 0x20 PUSH1 0x40 MLOAD DUP1 DUP4 SUB DUP2 PUSH1 0x0 DUP8 GAS CALL ISZERO DUP1 ISZERO PUSH2 0x2E2D JUMPI RETURNDATASIZE PUSH1 0x0 DUP1 RETURNDATACOPY RETURNDATASIZE PUSH1 0x0 REVERT JUMPDEST POP POP POP POP PUSH1 0x40 MLOAD RETURNDATASIZE PUSH1 0x1F NOT PUSH1 0x1F DUP3 ADD AND DUP3 ADD DUP1 PUSH1 0x40 MSTORE POP DUP2 ADD SWAP1 PUSH2 0x2E51 SWAP2 SWAP1 PUSH2 0x5DDE JUMP JUMPDEST POP DUP1 PUSH1 0x18 PUSH1 0x0 DUP3 DUP3 SLOAD PUSH2 0x2E64 SWAP2 SWAP1 PUSH2 0x5D5D JUMP JUMPDEST SWAP1 SWAP2 SSTORE POP POP JUMPDEST PUSH32 0x38F8A0C92F4C5B0B6877F878CB4C0C8D348A47B76D716C8E78F425043DF9515B DUP3 DUP3 PUSH1 0x40 MLOAD PUSH2 0x2E9B SWAP3 SWAP2 SWAP1 PUSH2 0x5AA0 JUMP JUMPDEST PUSH1 0x40 MLOAD DUP1 SWAP2 SUB SWAP1 LOG1 POP POP JUMP JUMPDEST PUSH2 0x2EAF PUSH2 0x42BA JUMP JUMPDEST PUSH1 0x15 DUP2 SWAP1 SSTORE PUSH1 0x40 MLOAD DUP2 DUP2 MSTORE PUSH32 0xD28D9E4CE68D89AF7920CB8618E342A78F51E545C530CE60F1CB1D6F0235B47F SWAP1 PUSH1 0x20 ADD PUSH2 0xC80 JUMP JUMPDEST PUSH2 0x2EEC PUSH2 0x42BA JUMP JUMPDEST DUP1 PUSH1 0x1 PUSH1 0x1 PUSH1 0xA0 SHL SUB AND DUP3 PUSH1 0x1 PUSH1 0x1 PUSH1 0xA0 SHL SUB AND SUB PUSH2 0x2F1D JUMPI PUSH1 0x40 MLOAD PUSH3 0x461BCD PUSH1 0xE5 SHL DUP2 MSTORE PUSH1 0x4 ADD PUSH2 0xCDD SWAP1 PUSH2 0x5D06 JUMP JUMPDEST PUSH1 0x1 PUSH1 0x1 PUSH1 0xA0 SHL SUB DUP1 DUP4 AND PUSH1 0x0 SWAP1 DUP2 MSTORE PUSH1 0xF PUSH1 0x20 MSTORE PUSH1 0x40 SWAP1 KECCAK256 DUP1 SLOAD DUP4 DUP4 AND PUSH1 0x1 PUSH1 0x1 PUSH1 0xA0 SHL SUB NOT DUP3 AND OR SWAP1 SWAP2 SSTORE AND DUP1 ISZERO PUSH2 0x306A JUMPI PUSH1 0x1 PUSH1 0x1 PUSH1 0xA0 SHL SUB DUP2 AND PUSH1 0x0 SWAP1 DUP2 MSTORE PUSH1 0x12 PUSH1 0x20 MSTORE PUSH1 0x40 DUP2 KECCAK256 SWAP1 JUMPDEST DUP2 SLOAD DUP2 LT ISZERO PUSH2 0x3067 JUMPI DUP5 PUSH1 0x1 PUSH1 0x1 PUSH1 0xA0 SHL SUB AND DUP3 DUP3 DUP2 SLOAD DUP2 LT PUSH2 0x2F90 JUMPI PUSH2 0x2F90 PUSH2 0x5E27 JUMP JUMPDEST PUSH1 0x0 SWAP2 DUP3 MSTORE PUSH1 0x20 SWAP1 SWAP2 KECCAK256 ADD SLOAD PUSH1 0x1 PUSH1 0x1 PUSH1 0xA0 SHL SUB AND SUB PUSH2 0x305F JUMPI DUP2 SLOAD DUP3 SWAP1 PUSH2 0x2FBA SWAP1 PUSH1 0x1 SWAP1 PUSH2 0x5DFB JUMP JUMPDEST DUP2 SLOAD DUP2 LT PUSH2 0x2FCA JUMPI PUSH2 0x2FCA PUSH2 0x5E27 JUMP JUMPDEST SWAP1 PUSH1 0x0 MSTORE PUSH1 0x20 PUSH1 0x0 KECCAK256 ADD PUSH1 0x0 SWAP1 SLOAD SWAP1 PUSH2 0x100 EXP SWAP1 DIV PUSH1 0x1 PUSH1 0x1 PUSH1 0xA0 SHL SUB AND DUP3 DUP3 DUP2 SLOAD DUP2 LT PUSH2 0x2FFA JUMPI PUSH2 0x2FFA PUSH2 0x5E27 JUMP JUMPDEST SWAP1 PUSH1 0x0 MSTORE PUSH1 0x20 PUSH1 0x0 KECCAK256 ADD PUSH1 0x0 PUSH2 0x100 EXP DUP2 SLOAD DUP2 PUSH1 0x1 PUSH1 0x1 PUSH1 0xA0 SHL SUB MUL NOT AND SWAP1 DUP4 PUSH1 0x1 PUSH1 0x1 PUSH1 0xA0 SHL SUB AND MUL OR SWAP1 SSTORE POP DUP2 DUP1 SLOAD DUP1 PUSH2 0x3038 JUMPI PUSH2 0x3038 PUSH2 0x5EDA JUMP JUMPDEST PUSH1 0x0 DUP3 DUP2 MSTORE PUSH1 0x20 SWAP1 KECCAK256 DUP2 ADD PUSH1 0x0 NOT SWAP1 DUP2 ADD DUP1 SLOAD PUSH1 0x1 PUSH1 0x1 PUSH1 0xA0 SHL SUB NOT AND SWAP1 SSTORE ADD SWAP1 SSTORE PUSH2 0x3067 JUMP JUMPDEST PUSH1 0x1 ADD PUSH2 0x2F6B JUMP JUMPDEST POP POP JUMPDEST PUSH1 0x1 PUSH1 0x1 PUSH1 0xA0 SHL SUB DUP3 AND ISZERO PUSH2 0x22E0 JUMPI POP PUSH1 0x1 PUSH1 0x1 PUSH1 0xA0 SHL SUB SWAP1 DUP2 AND PUSH1 0x0 SWAP1 DUP2 MSTORE PUSH1 0x12 PUSH1 0x20 SWAP1 DUP2 MSTORE PUSH1 0x40 DUP3 KECCAK256 DUP1 SLOAD PUSH1 0x1 DUP2 ADD DUP3 SSTORE SWAP1 DUP4 MSTORE SWAP2 KECCAK256 ADD DUP1 SLOAD PUSH1 0x1 PUSH1 0x1 PUSH1 0xA0 SHL SUB NOT AND SWAP3 SWAP1 SWAP2 AND SWAP2 SWAP1 SWAP2 OR SWAP1 SSTORE JUMP JUMPDEST PUSH1 0x11 PUSH1 0x20 MSTORE DUP2 PUSH1 0x0 MSTORE PUSH1 0x40 PUSH1 0x0 KECCAK256 DUP2 DUP2 SLOAD DUP2 LT PUSH2 0x30D7 JUMPI PUSH1 0x0 DUP1 REVERT JUMPDEST PUSH1 0x0 SWAP2 DUP3 MSTORE PUSH1 0x20 SWAP1 SWAP2 KECCAK256 PUSH1 0x6 SWAP1 SWAP2 MUL ADD DUP1 SLOAD PUSH1 0x1 DUP3 ADD SLOAD PUSH1 0x2 DUP4 ADD SLOAD PUSH1 0x3 DUP5 ADD SLOAD PUSH1 0x4 DUP6 ADD SLOAD PUSH1 0x5 SWAP1 SWAP6 ADD SLOAD SWAP4 SWAP7 POP SWAP2 SWAP5 POP SWAP3 SWAP1 SWAP2 PUSH1 0xFF SWAP1 SWAP2 AND SWAP1 DUP7 JUMP JUMPDEST PUSH2 0x311D PUSH2 0x42EC JUMP JUMPDEST PUSH1 0x16 SLOAD PUSH2 0x100 SWAP1 DIV PUSH1 0xFF AND PUSH2 0x3166 JUMPI PUSH1 0x40 MLOAD PUSH3 0x461BCD PUSH1 0xE5 SHL DUP2 MSTORE PUSH1 0x20 PUSH1 0x4 DUP3 ADD MSTORE PUSH1 0xF PUSH1 0x24 DUP3 ADD MSTORE PUSH15 0x14995919595B48191A5CD8589B1959 PUSH1 0x8A SHL PUSH1 0x44 DUP3 ADD MSTORE PUSH1 0x64 ADD PUSH2 0xCDD JUMP JUMPDEST CALLER PUSH1 0x0 SWAP1 DUP2 MSTORE PUSH1 0x11 PUSH1 0x20 MSTORE PUSH1 0x40 DUP2 KECCAK256 SWAP1 DUP1 DUP1 DUP1 JUMPDEST DUP5 SLOAD DUP2 LT ISZERO PUSH2 0x34B5 JUMPI DUP5 DUP2 DUP2 SLOAD DUP2 LT PUSH2 0x3195 JUMPI PUSH2 0x3195 PUSH2 0x5E27 JUMP JUMPDEST PUSH1 0x0 SWAP2 DUP3 MSTORE PUSH1 0x20 SWAP1 SWAP2 KECCAK256 PUSH1 0x4 PUSH1 0x6 SWAP1 SWAP3 MUL ADD ADD SLOAD PUSH1 0xFF AND ISZERO PUSH2 0x34AD JUMPI PUSH1 0x0 PUSH1 0x3C DUP7 DUP4 DUP2 SLOAD DUP2 LT PUSH2 0x31C7 JUMPI PUSH2 0x31C7 PUSH2 0x5E27 JUMP JUMPDEST SWAP1 PUSH1 0x0 MSTORE PUSH1 0x20 PUSH1 0x0 KECCAK256 SWAP1 PUSH1 0x6 MUL ADD PUSH1 0x3 ADD SLOAD PUSH2 0x31E3 SWAP2 SWAP1 PUSH2 0x5D46 JUMP JUMPDEST DUP7 DUP4 DUP2 SLOAD DUP2 LT PUSH2 0x31F5 JUMPI PUSH2 0x31F5 PUSH2 0x5E27 JUMP JUMPDEST SWAP1 PUSH1 0x0 MSTORE PUSH1 0x20 PUSH1 0x0 KECCAK256 SWAP1 PUSH1 0x6 MUL ADD PUSH1 0x2 ADD SLOAD PUSH2 0x3211 SWAP2 SWAP1 PUSH2 0x5D5D JUMP JUMPDEST SWAP1 POP DUP1 TIMESTAMP LT PUSH2 0x34AB JUMPI PUSH1 0x0 DUP7 DUP4 DUP2 SLOAD DUP2 LT PUSH2 0x322E JUMPI PUSH2 0x322E PUSH2 0x5E27 JUMP JUMPDEST SWAP1 PUSH1 0x0 MSTORE PUSH1 0x20 PUSH1 0x0 KECCAK256 SWAP1 PUSH1 0x6 MUL ADD PUSH1 0x3 ADD SLOAD PUSH1 0x7 SUB PUSH2 0x324F JUMPI POP PUSH1 0x14 PUSH2 0x32B1 JUMP JUMPDEST DUP7 DUP4 DUP2 SLOAD DUP2 LT PUSH2 0x3261 JUMPI PUSH2 0x3261 PUSH2 0x5E27 JUMP JUMPDEST SWAP1 PUSH1 0x0 MSTORE PUSH1 0x20 PUSH1 0x0 KECCAK256 SWAP1 PUSH1 0x6 MUL ADD PUSH1 0x3 ADD SLOAD PUSH1 0xF SUB PUSH2 0x3282 JUMPI POP PUSH1 0x19 PUSH2 0x32B1 JUMP JUMPDEST DUP7 DUP4 DUP2 SLOAD DUP2 LT PUSH2 0x3294 JUMPI PUSH2 0x3294 PUSH2 0x5E27 JUMP JUMPDEST SWAP1 PUSH1 0x0 MSTORE PUSH1 0x20 PUSH1 0x0 KECCAK256 SWAP1 PUSH1 0x6 MUL ADD PUSH1 0x3 ADD SLOAD PUSH1 0x1E SUB PUSH2 0x32B1 JUMPI POP PUSH1 0x1E JUMPDEST PUSH1 0x0 PUSH2 0x3E8 DUP9 DUP6 DUP2 SLOAD DUP2 LT PUSH2 0x32C8 JUMPI PUSH2 0x32C8 PUSH2 0x5E27 JUMP JUMPDEST SWAP1 PUSH1 0x0 MSTORE PUSH1 0x20 PUSH1 0x0 KECCAK256 SWAP1 PUSH1 0x6 MUL ADD PUSH1 0x3 ADD SLOAD DUP4 DUP11 DUP8 DUP2 SLOAD DUP2 LT PUSH2 0x32ED JUMPI PUSH2 0x32ED PUSH2 0x5E27 JUMP JUMPDEST SWAP1 PUSH1 0x0 MSTORE PUSH1 0x20 PUSH1 0x0 KECCAK256 SWAP1 PUSH1 0x6 MUL ADD PUSH1 0x1 ADD SLOAD PUSH2 0x3309 SWAP2 SWAP1 PUSH2 0x5D46 JUMP JUMPDEST PUSH2 0x3313 SWAP2 SWAP1 PUSH2 0x5D46 JUMP JUMPDEST PUSH2 0x331D SWAP2 SWAP1 PUSH2 0x5D70 JUMP JUMPDEST SWAP1 POP PUSH1 0x0 DUP9 DUP6 DUP2 SLOAD DUP2 LT PUSH2 0x3333 JUMPI PUSH2 0x3333 PUSH2 0x5E27 JUMP JUMPDEST SWAP1 PUSH1 0x0 MSTORE PUSH1 0x20 PUSH1 0x0 KECCAK256 SWAP1 PUSH1 0x6 MUL ADD PUSH1 0x5 ADD SLOAD DUP3 GT ISZERO PUSH2 0x337E JUMPI DUP9 DUP6 DUP2 SLOAD DUP2 LT PUSH2 0x335E JUMPI PUSH2 0x335E PUSH2 0x5E27 JUMP JUMPDEST SWAP1 PUSH1 0x0 MSTORE PUSH1 0x20 PUSH1 0x0 KECCAK256 SWAP1 PUSH1 0x6 MUL ADD PUSH1 0x5 ADD SLOAD DUP3 PUSH2 0x337B SWAP2 SWAP1 PUSH2 0x5DFB JUMP JUMPDEST SWAP1 POP JUMPDEST PUSH2 0x3388 DUP2 DUP8 PUSH2 0x5D5D JUMP JUMPDEST SWAP6 POP DUP1 DUP10 DUP7 DUP2 SLOAD DUP2 LT PUSH2 0x339D JUMPI PUSH2 0x339D PUSH2 0x5E27 JUMP JUMPDEST SWAP1 PUSH1 0x0 MSTORE PUSH1 0x20 PUSH1 0x0 KECCAK256 SWAP1 PUSH1 0x6 MUL ADD PUSH1 0x5 ADD PUSH1 0x0 DUP3 DUP3 SLOAD PUSH2 0x33BD SWAP2 SWAP1 PUSH2 0x5D5D JUMP JUMPDEST SWAP3 POP POP DUP2 SWAP1 SSTORE POP PUSH1 0x0 PUSH2 0x12C PUSH1 0xC SLOAD DUP12 DUP9 DUP2 SLOAD DUP2 LT PUSH2 0x33DE JUMPI PUSH2 0x33DE PUSH2 0x5E27 JUMP JUMPDEST SWAP1 PUSH1 0x0 MSTORE PUSH1 0x20 PUSH1 0x0 KECCAK256 SWAP1 PUSH1 0x6 MUL ADD PUSH1 0x1 ADD SLOAD PUSH1 0x2 PUSH2 0x33FC SWAP2 SWAP1 PUSH2 0x5D46 JUMP JUMPDEST PUSH2 0x3406 SWAP2 SWAP1 PUSH2 0x5D46 JUMP JUMPDEST PUSH2 0x3410 SWAP2 SWAP1 PUSH2 0x5D70 JUMP JUMPDEST SWAP1 POP PUSH1 0x0 DUP11 DUP8 DUP2 SLOAD DUP2 LT PUSH2 0x3426 JUMPI PUSH2 0x3426 PUSH2 0x5E27 JUMP JUMPDEST SWAP1 PUSH1 0x0 MSTORE PUSH1 0x20 PUSH1 0x0 KECCAK256 SWAP1 PUSH1 0x6 MUL ADD PUSH1 0x1 ADD SLOAD SWAP1 POP DUP2 DUP2 LT PUSH2 0x3452 JUMPI PUSH2 0x344B DUP3 DUP3 PUSH2 0x5DFB JUMP JUMPDEST SWAP1 POP PUSH2 0x3457 JUMP JUMPDEST PUSH1 0x0 SWAP2 POP JUMPDEST PUSH2 0x3461 DUP2 DUP12 PUSH2 0x5D5D JUMP JUMPDEST SWAP10 POP PUSH2 0x346D DUP3 DUP11 PUSH2 0x5D5D JUMP JUMPDEST SWAP9 POP PUSH1 0x0 DUP12 DUP9 DUP2 SLOAD DUP2 LT PUSH2 0x3483 JUMPI PUSH2 0x3483 PUSH2 0x5E27 JUMP JUMPDEST PUSH1 0x0 SWAP2 DUP3 MSTORE PUSH1 0x20 SWAP1 SWAP2 KECCAK256 PUSH1 0x6 SWAP1 SWAP2 MUL ADD PUSH1 0x4 ADD DUP1 SLOAD PUSH1 0xFF NOT AND SWAP2 ISZERO ISZERO SWAP2 SWAP1 SWAP2 OR SWAP1 SSTORE POP POP POP POP POP JUMPDEST POP JUMPDEST PUSH1 0x1 ADD PUSH2 0x317A JUMP JUMPDEST POP PUSH1 0x0 DUP4 GT DUP1 PUSH2 0x34C5 JUMPI POP PUSH1 0x0 DUP2 GT JUMPDEST PUSH2 0x3505 JUMPI PUSH1 0x40 MLOAD PUSH3 0x461BCD PUSH1 0xE5 SHL DUP2 MSTORE PUSH1 0x20 PUSH1 0x4 DUP3 ADD MSTORE PUSH1 0x11 PUSH1 0x24 DUP3 ADD MSTORE PUSH17 0x4E6F7468696E6720746F2072656465656D PUSH1 0x78 SHL PUSH1 0x44 DUP3 ADD MSTORE PUSH1 0x64 ADD PUSH2 0xCDD JUMP JUMPDEST DUP1 ISZERO PUSH2 0x3860 JUMPI CALLER PUSH1 0x0 SWAP1 DUP2 MSTORE PUSH1 0xF PUSH1 0x20 MSTORE PUSH1 0x40 DUP2 KECCAK256 PUSH1 0x3 DUP2 ADD SLOAD PUSH1 0x4 SWAP1 SWAP2 ADD SLOAD PUSH2 0x352F SWAP2 SWAP1 PUSH2 0x5DFB JUMP JUMPDEST SWAP1 POP DUP1 DUP3 GT ISZERO PUSH2 0x356E JUMPI CALLER PUSH1 0x1 PUSH1 0x1 PUSH1 0xA0 SHL SUB AND PUSH1 0x0 DUP1 MLOAD PUSH1 0x20 PUSH2 0x5F84 DUP4 CODECOPY DUP2 MLOAD SWAP2 MSTORE DUP4 DUP4 PUSH1 0x40 MLOAD PUSH2 0x3562 SWAP3 SWAP2 SWAP1 PUSH2 0x5AA0 JUMP JUMPDEST PUSH1 0x40 MLOAD DUP1 SWAP2 SUB SWAP1 LOG2 DUP1 SWAP2 POP JUMPDEST DUP2 ISZERO PUSH2 0x385E JUMPI CALLER PUSH1 0x0 SWAP1 DUP2 MSTORE PUSH1 0xF PUSH1 0x20 MSTORE PUSH1 0x40 DUP2 KECCAK256 PUSH1 0x3 ADD DUP1 SLOAD DUP5 SWAP3 SWAP1 PUSH2 0x3596 SWAP1 DUP5 SWAP1 PUSH2 0x5D5D JUMP JUMPDEST SWAP1 SWAP2 SSTORE POP PUSH1 0x0 SWAP1 POP PUSH2 0x35A9 PUSH1 0x2 DUP5 PUSH2 0x5D70 JUMP JUMPDEST SWAP1 POP PUSH1 0x0 PUSH2 0x35B8 PUSH1 0x2 DUP6 PUSH2 0x5D70 JUMP JUMPDEST PUSH1 0x0 DUP1 SLOAD PUSH1 0x40 MLOAD PUSH4 0x70A08231 PUSH1 0xE0 SHL DUP2 MSTORE SWAP3 SWAP4 POP SWAP1 SWAP2 DUP5 SWAP2 PUSH1 0x1 PUSH1 0x1 PUSH1 0xA0 SHL SUB AND SWAP1 PUSH4 0x70A08231 SWAP1 PUSH2 0x35EE SWAP1 ADDRESS SWAP1 PUSH1 0x4 ADD PUSH2 0x57FA JUMP JUMPDEST PUSH1 0x20 PUSH1 0x40 MLOAD DUP1 DUP4 SUB DUP2 DUP7 GAS STATICCALL ISZERO DUP1 ISZERO PUSH2 0x360B JUMPI RETURNDATASIZE PUSH1 0x0 DUP1 RETURNDATACOPY RETURNDATASIZE PUSH1 0x0 REVERT JUMPDEST POP POP POP POP PUSH1 0x40 MLOAD RETURNDATASIZE PUSH1 0x1F NOT PUSH1 0x1F DUP3 ADD AND DUP3 ADD DUP1 PUSH1 0x40 MSTORE POP DUP2 ADD SWAP1 PUSH2 0x362F SWAP2 SWAP1 PUSH2 0x5E0E JUMP JUMPDEST LT ISZERO DUP1 ISZERO PUSH2 0x363D JUMPI POP PUSH1 0x0 DUP4 GT JUMPDEST ISZERO PUSH2 0x36BC JUMPI PUSH1 0x0 SLOAD PUSH1 0x40 MLOAD PUSH4 0xA9059CBB PUSH1 0xE0 SHL DUP2 MSTORE PUSH1 0x1 PUSH1 0x1 PUSH1 0xA0 SHL SUB SWAP1 SWAP2 AND SWAP1 PUSH4 0xA9059CBB SWAP1 PUSH2 0x3674 SWAP1 CALLER SWAP1 DUP8 SWAP1 PUSH1 0x4 ADD PUSH2 0x5A33 JUMP JUMPDEST PUSH1 0x20 PUSH1 0x40 MLOAD DUP1 DUP4 SUB DUP2 PUSH1 0x0 DUP8 GAS CALL ISZERO DUP1 ISZERO PUSH2 0x3693 JUMPI RETURNDATASIZE PUSH1 0x0 DUP1 RETURNDATACOPY RETURNDATASIZE PUSH1 0x0 REVERT JUMPDEST POP POP POP POP PUSH1 0x40 MLOAD RETURNDATASIZE PUSH1 0x1F NOT PUSH1 0x1F DUP3 ADD AND DUP3 ADD DUP1 PUSH1 0x40 MSTORE POP DUP2 ADD SWAP1 PUSH2 0x36B7 SWAP2 SWAP1 PUSH2 0x5DDE JUMP JUMPDEST POP DUP3 SWAP1 POP JUMPDEST PUSH1 0x0 PUSH2 0x36C6 PUSH2 0x19BF JUMP JUMPDEST SWAP1 POP PUSH1 0x0 DUP2 PUSH2 0x36DD DUP6 PUSH8 0xDE0B6B3A7640000 PUSH2 0x5D46 JUMP JUMPDEST PUSH2 0x36E7 SWAP2 SWAP1 PUSH2 0x5D70 JUMP JUMPDEST PUSH1 0x1 SLOAD PUSH1 0x40 MLOAD PUSH4 0x70A08231 PUSH1 0xE0 SHL DUP2 MSTORE SWAP2 SWAP3 POP PUSH1 0x0 SWAP2 DUP4 SWAP2 PUSH1 0x1 PUSH1 0x1 PUSH1 0xA0 SHL SUB AND SWAP1 PUSH4 0x70A08231 SWAP1 PUSH2 0x371D SWAP1 ADDRESS SWAP1 PUSH1 0x4 ADD PUSH2 0x57FA JUMP JUMPDEST PUSH1 0x20 PUSH1 0x40 MLOAD DUP1 DUP4 SUB DUP2 DUP7 GAS STATICCALL ISZERO DUP1 ISZERO PUSH2 0x373A JUMPI RETURNDATASIZE PUSH1 0x0 DUP1 RETURNDATACOPY RETURNDATASIZE PUSH1 0x0 REVERT JUMPDEST POP POP POP POP PUSH1 0x40 MLOAD RETURNDATASIZE PUSH1 0x1F NOT PUSH1 0x1F DUP3 ADD AND DUP3 ADD DUP1 PUSH1 0x40 MSTORE POP DUP2 ADD SWAP1 PUSH2 0x375E SWAP2 SWAP1 PUSH2 0x5E0E JUMP JUMPDEST LT ISZERO DUP1 ISZERO PUSH2 0x376C JUMPI POP PUSH1 0x0 DUP3 GT JUMPDEST ISZERO PUSH2 0x37EB JUMPI PUSH1 0x1 SLOAD PUSH1 0x40 MLOAD PUSH4 0xA9059CBB PUSH1 0xE0 SHL DUP2 MSTORE PUSH1 0x1 PUSH1 0x1 PUSH1 0xA0 SHL SUB SWAP1 SWAP2 AND SWAP1 PUSH4 0xA9059CBB SWAP1 PUSH2 0x37A3 SWAP1 CALLER SWAP1 DUP7 SWAP1 PUSH1 0x4 ADD PUSH2 0x5A33 JUMP JUMPDEST PUSH1 0x20 PUSH1 0x40 MLOAD DUP1 DUP4 SUB DUP2 PUSH1 0x0 DUP8 GAS CALL ISZERO DUP1 ISZERO PUSH2 0x37C2 JUMPI RETURNDATASIZE PUSH1 0x0 DUP1 RETURNDATACOPY RETURNDATASIZE PUSH1 0x0 REVERT JUMPDEST POP POP POP POP PUSH1 0x40 MLOAD RETURNDATASIZE PUSH1 0x1F NOT PUSH1 0x1F DUP3 ADD AND DUP3 ADD DUP1 PUSH1 0x40 MSTORE POP DUP2 ADD SWAP1 PUSH2 0x37E6 SWAP2 SWAP1 PUSH2 0x5DDE JUMP JUMPDEST POP DUP2 SWAP1 POP JUMPDEST CALLER PUSH1 0x1 PUSH1 0x1 PUSH1 0xA0 SHL SUB AND PUSH1 0x0 DUP1 MLOAD PUSH1 0x20 PUSH2 0x5FC4 DUP4 CODECOPY DUP2 MLOAD SWAP2 MSTORE DUP10 PUSH1 0x0 PUSH1 0x40 MLOAD PUSH2 0x3815 SWAP3 SWAP2 SWAP1 PUSH2 0x5E3D JUMP JUMPDEST PUSH1 0x40 MLOAD DUP1 SWAP2 SUB SWAP1 LOG2 CALLER PUSH1 0x0 DUP2 DUP2 MSTORE PUSH1 0x10 PUSH1 0x20 MSTORE PUSH1 0x40 DUP1 DUP3 KECCAK256 SLOAD SWAP1 MLOAD PUSH1 0x0 DUP1 MLOAD PUSH1 0x20 PUSH2 0x5F44 DUP4 CODECOPY DUP2 MLOAD SWAP2 MSTORE SWAP3 PUSH2 0x384F SWAP3 DUP10 SWAP3 DUP8 SWAP3 SWAP2 SWAP1 PUSH2 0x5E4E JUMP JUMPDEST PUSH1 0x40 MLOAD DUP1 SWAP2 SUB SWAP1 LOG2 POP POP POP POP POP POP JUMPDEST POP JUMPDEST DUP3 ISZERO PUSH2 0x38DD JUMPI PUSH1 0x0 SLOAD PUSH1 0x40 MLOAD PUSH4 0xA9059CBB PUSH1 0xE0 SHL DUP2 MSTORE PUSH1 0x1 PUSH1 0x1 PUSH1 0xA0 SHL SUB SWAP1 SWAP2 AND SWAP1 PUSH4 0xA9059CBB SWAP1 PUSH2 0x3898 SWAP1 CALLER SWAP1 DUP8 SWAP1 PUSH1 0x4 ADD PUSH2 0x5A33 JUMP JUMPDEST PUSH1 0x20 PUSH1 0x40 MLOAD DUP1 DUP4 SUB DUP2 PUSH1 0x0 DUP8 GAS CALL ISZERO DUP1 ISZERO PUSH2 0x38B7 JUMPI RETURNDATASIZE PUSH1 0x0 DUP1 RETURNDATACOPY RETURNDATASIZE PUSH1 0x0 REVERT JUMPDEST POP POP POP POP PUSH1 0x40 MLOAD RETURNDATASIZE PUSH1 0x1F NOT PUSH1 0x1F DUP3 ADD AND DUP3 ADD DUP1 PUSH1 0x40 MSTORE POP DUP2 ADD SWAP1 PUSH2 0x38DB SWAP2 SWAP1 PUSH2 0x5DDE JUMP JUMPDEST POP JUMPDEST CALLER PUSH1 0x0 SWAP1 DUP2 MSTORE PUSH1 0xF PUSH1 0x20 MSTORE PUSH1 0x40 DUP2 KECCAK256 PUSH1 0x6 ADD DUP1 SLOAD DUP5 SWAP3 SWAP1 PUSH2 0x38FF SWAP1 DUP5 SWAP1 PUSH2 0x5D5D JUMP JUMPDEST SWAP1 SWAP2 SSTORE POP POP PUSH1 0x40 MLOAD CALLER SWAP1 PUSH1 0x0 DUP1 MLOAD PUSH1 0x20 PUSH2 0x5FE4 DUP4 CODECOPY DUP2 MLOAD SWAP2 MSTORE SWAP1 PUSH2 0x3926 SWAP1 DUP7 SWAP1 DUP7 SWAP1 PUSH2 0x5AA0 JUMP JUMPDEST PUSH1 0x40 MLOAD DUP1 SWAP2 SUB SWAP1 LOG2 CALLER PUSH1 0x0 SWAP1 DUP2 MSTORE PUSH1 0x10 PUSH1 0x20 MSTORE PUSH1 0x40 SWAP1 KECCAK256 SLOAD PUSH2 0x3947 SWAP1 PUSH2 0x5266 JUMP JUMPDEST PUSH2 0x3950 CALLER PUSH2 0x4722 JUMP JUMPDEST CALLER PUSH1 0x0 SWAP1 DUP2 MSTORE PUSH1 0xF PUSH1 0x20 MSTORE PUSH1 0x40 SWAP1 KECCAK256 PUSH1 0x4 DUP2 ADD SLOAD PUSH1 0x3 SWAP1 SWAP2 ADD SLOAD LT PUSH2 0x3978 JUMPI PUSH2 0x3978 CALLER PUSH2 0x4333 JUMP JUMPDEST POP POP POP POP PUSH2 0x19BD PUSH2 0x4322 JUMP JUMPDEST PUSH2 0x398C PUSH2 0x42BA JUMP JUMPDEST PUSH2 0x3998 PUSH1 0x14 PUSH1 0x0 PUSH2 0x56B4 JUMP JUMPDEST PUSH1 0x0 JUMPDEST DUP2 MLOAD DUP2 LT ISZERO PUSH2 0x39F9 JUMPI PUSH1 0x14 DUP3 DUP3 DUP2 MLOAD DUP2 LT PUSH2 0x39B8 JUMPI PUSH2 0x39B8 PUSH2 0x5E27 JUMP JUMPDEST PUSH1 0x20 SWAP1 DUP2 MUL SWAP2 SWAP1 SWAP2 ADD DUP2 ADD MLOAD DUP3 SLOAD PUSH1 0x1 DUP2 DUP2 ADD DUP6 SSTORE PUSH1 0x0 SWAP5 DUP6 MSTORE SWAP4 DUP4 SWAP1 KECCAK256 DUP3 MLOAD PUSH1 0x3 SWAP1 SWAP3 MUL ADD SWAP1 DUP2 SSTORE SWAP2 DUP2 ADD MLOAD DUP3 DUP5 ADD SSTORE PUSH1 0x40 ADD MLOAD PUSH1 0x2 SWAP1 SWAP2 ADD SSTORE ADD PUSH2 0x399B JUMP JUMPDEST POP PUSH1 0x40 MLOAD PUSH32 0x81086BEEC7078A58D4155C0B0D7D98E4D4DF580E4737331309687E6AB8A69440 SWAP1 PUSH1 0x0 SWAP1 LOG1 POP JUMP JUMPDEST PUSH1 0x0 PUSH2 0x3A30 PUSH2 0x542D JUMP JUMPDEST DUP1 SLOAD SWAP1 SWAP2 POP PUSH1 0xFF PUSH1 0x1 PUSH1 0x40 SHL DUP3 DIV AND ISZERO SWAP1 PUSH1 0x1 PUSH1 0x1 PUSH1 0x40 SHL SUB AND PUSH1 0x0 DUP2 ISZERO DUP1 ISZERO PUSH2 0x3A57 JUMPI POP DUP3 JUMPDEST SWAP1 POP PUSH1 0x0 DUP3 PUSH1 0x1 PUSH1 0x1 PUSH1 0x40 SHL SUB AND PUSH1 0x1 EQ DUP1 ISZERO PUSH2 0x3A73 JUMPI POP ADDRESS EXTCODESIZE ISZERO JUMPDEST SWAP1 POP DUP2 ISZERO DUP1 ISZERO PUSH2 0x3A81 JUMPI POP DUP1 ISZERO JUMPDEST ISZERO PUSH2 0x3A9F JUMPI PUSH1 0x40 MLOAD PUSH4 0xF92EE8A9 PUSH1 0xE0 SHL DUP2 MSTORE PUSH1 0x4 ADD PUSH1 0x40 MLOAD DUP1 SWAP2 SUB SWAP1 REVERT JUMPDEST DUP5 SLOAD PUSH1 0x1 PUSH1 0x1 PUSH1 0x40 SHL SUB NOT AND PUSH1 0x1 OR DUP6 SSTORE DUP4 ISZERO PUSH2 0x3AC8 JUMPI DUP5 SLOAD PUSH1 0xFF PUSH1 0x40 SHL NOT AND PUSH1 0x1 PUSH1 0x40 SHL OR DUP6 SSTORE JUMPDEST PUSH2 0x3AD1 CALLER PUSH2 0x5456 JUMP JUMPDEST PUSH2 0x3AD9 PUSH2 0x5467 JUMP JUMPDEST PUSH2 0x3AE1 PUSH2 0x5477 JUMP JUMPDEST DUP11 PUSH1 0x0 DUP1 PUSH2 0x100 EXP DUP2 SLOAD DUP2 PUSH1 0x1 PUSH1 0x1 PUSH1 0xA0 SHL SUB MUL NOT AND SWAP1 DUP4 PUSH1 0x1 PUSH1 0x1 PUSH1 0xA0 SHL SUB AND MUL OR SWAP1 SSTORE POP DUP10 PUSH1 0x1 PUSH1 0x0 PUSH2 0x100 EXP DUP2 SLOAD DUP2 PUSH1 0x1 PUSH1 0x1 PUSH1 0xA0 SHL SUB MUL NOT AND SWAP1 DUP4 PUSH1 0x1 PUSH1 0x1 PUSH1 0xA0 SHL SUB AND MUL OR SWAP1 SSTORE POP DUP9 PUSH1 0x2 PUSH1 0x0 PUSH2 0x100 EXP DUP2 SLOAD DUP2 PUSH1 0x1 PUSH1 0x1 PUSH1 0xA0 SHL SUB MUL NOT AND SWAP1 DUP4 PUSH1 0x1 PUSH1 0x1 PUSH1 0xA0 SHL SUB AND MUL OR SWAP1 SSTORE POP DUP8 PUSH1 0x3 PUSH1 0x0 PUSH2 0x100 EXP DUP2 SLOAD DUP2 PUSH1 0x1 PUSH1 0x1 PUSH1 0xA0 SHL SUB MUL NOT AND SWAP1 DUP4 PUSH1 0x1 PUSH1 0x1 PUSH1 0xA0 SHL SUB AND MUL OR SWAP1 SSTORE POP DUP7 PUSH1 0x4 PUSH1 0x0 PUSH2 0x100 EXP DUP2 SLOAD DUP2 PUSH1 0x1 PUSH1 0x1 PUSH1 0xA0 SHL SUB MUL NOT AND SWAP1 DUP4 PUSH1 0x1 PUSH1 0x1 PUSH1 0xA0 SHL SUB AND MUL OR SWAP1 SSTORE POP DUP6 PUSH1 0x5 PUSH1 0x0 PUSH2 0x100 EXP DUP2 SLOAD DUP2 PUSH1 0x1 PUSH1 0x1 PUSH1 0xA0 SHL SUB MUL NOT AND SWAP1 DUP4 PUSH1 0x1 PUSH1 0x1 PUSH1 0xA0 SHL SUB AND MUL OR SWAP1 SSTORE POP PUSH1 0x19 PUSH1 0x6 DUP2 SWAP1 SSTORE POP PUSH1 0xF PUSH1 0x7 DUP2 SWAP1 SSTORE POP PUSH1 0x5 PUSH1 0x8 DUP2 SWAP1 SSTORE POP PUSH1 0x5 PUSH1 0x9 DUP2 SWAP1 SSTORE POP PUSH1 0x19 PUSH1 0xA DUP2 SWAP1 SSTORE POP PUSH1 0x19 PUSH1 0xB DUP2 SWAP1 SSTORE POP PUSH1 0x1 PUSH1 0xC DUP2 SWAP1 SSTORE POP PUSH1 0x32 PUSH1 0xD DUP2 SWAP1 SSTORE POP PUSH1 0x19 PUSH1 0xE DUP2 SWAP1 SSTORE POP PUSH3 0x3F480 PUSH1 0x15 DUP2 SWAP1 SSTORE POP PUSH1 0x1 PUSH1 0x16 PUSH1 0x0 PUSH2 0x100 EXP DUP2 SLOAD DUP2 PUSH1 0xFF MUL NOT AND SWAP1 DUP4 ISZERO ISZERO MUL OR SWAP1 SSTORE POP PUSH1 0x1 PUSH1 0x16 PUSH1 0x1 PUSH2 0x100 EXP DUP2 SLOAD DUP2 PUSH1 0xFF MUL NOT AND SWAP1 DUP4 ISZERO ISZERO MUL OR SWAP1 SSTORE POP TIMESTAMP PUSH1 0x1B DUP2 SWAP1 SSTORE POP PUSH1 0x14 PUSH1 0x40 MLOAD DUP1 PUSH1 0x60 ADD PUSH1 0x40 MSTORE DUP1 PUSH3 0x186A0 DUP2 MSTORE PUSH1 0x20 ADD PUSH1 0x9 DUP2 MSTORE PUSH1 0x20 ADD PUSH1 0x2D DUP2 MSTORE POP SWAP1 DUP1 PUSH1 0x1 DUP2 SLOAD ADD DUP1 DUP3 SSTORE DUP1 SWAP2 POP POP PUSH1 0x1 SWAP1 SUB SWAP1 PUSH1 0x0 MSTORE PUSH1 0x20 PUSH1 0x0 KECCAK256 SWAP1 PUSH1 0x3 MUL ADD PUSH1 0x0 SWAP1 SWAP2 SWAP1 SWAP2 SWAP1 SWAP2 POP PUSH1 0x0 DUP3 ADD MLOAD DUP2 PUSH1 0x0 ADD SSTORE PUSH1 0x20 DUP3 ADD MLOAD DUP2 PUSH1 0x1 ADD SSTORE PUSH1 0x40 DUP3 ADD MLOAD DUP2 PUSH1 0x2 ADD SSTORE POP POP PUSH1 0x14 PUSH1 0x40 MLOAD DUP1 PUSH1 0x60 ADD PUSH1 0x40 MSTORE DUP1 PUSH2 0x7530 DUP2 MSTORE PUSH1 0x20 ADD PUSH1 0x8 DUP2 MSTORE PUSH1 0x20 ADD PUSH1 0x28 DUP2 MSTORE POP SWAP1 DUP1 PUSH1 0x1 DUP2 SLOAD ADD DUP1 DUP3 SSTORE DUP1 SWAP2 POP POP PUSH1 0x1 SWAP1 SUB SWAP1 PUSH1 0x0 MSTORE PUSH1 0x20 PUSH1 0x0 KECCAK256 SWAP1 PUSH1 0x3 MUL ADD PUSH1 0x0 SWAP1 SWAP2 SWAP1 SWAP2 SWAP1 SWAP2 POP PUSH1 0x0 DUP3 ADD MLOAD DUP2 PUSH1 0x0 ADD SSTORE PUSH1 0x20 DUP3 ADD MLOAD DUP2 PUSH1 0x1 ADD SSTORE PUSH1 0x40 DUP3 ADD MLOAD DUP2 PUSH1 0x2 ADD SSTORE POP POP PUSH1 0x14 PUSH1 0x40 MLOAD DUP1 PUSH1 0x60 ADD PUSH1 0x40 MSTORE DUP1 PUSH2 0x2710 DUP2 MSTORE PUSH1 0x20 ADD PUSH1 0x7 DUP2 MSTORE PUSH1 0x20 ADD PUSH1 0x23 DUP2 MSTORE POP SWAP1 DUP1 PUSH1 0x1 DUP2 SLOAD ADD DUP1 DUP3 SSTORE DUP1 SWAP2 POP POP PUSH1 0x1 SWAP1 SUB SWAP1 PUSH1 0x0 MSTORE PUSH1 0x20 PUSH1 0x0 KECCAK256 SWAP1 PUSH1 0x3 MUL ADD PUSH1 0x0 SWAP1 SWAP2 SWAP1 SWAP2 SWAP1 SWAP2 POP PUSH1 0x0 DUP3 ADD MLOAD DUP2 PUSH1 0x0 ADD SSTORE PUSH1 0x20 DUP3 ADD MLOAD DUP2 PUSH1 0x1 ADD SSTORE PUSH1 0x40 DUP3 ADD MLOAD DUP2 PUSH1 0x2 ADD SSTORE POP POP PUSH1 0x14 PUSH1 0x40 MLOAD DUP1 PUSH1 0x60 ADD PUSH1 0x40 MSTORE DUP1 PUSH2 0xBB8 DUP2 MSTORE PUSH1 0x20 ADD PUSH1 0x6 DUP2 MSTORE PUSH1 0x20 ADD PUSH1 0x1E DUP2 MSTORE POP SWAP1 DUP1 PUSH1 0x1 DUP2 SLOAD ADD DUP1 DUP3 SSTORE DUP1 SWAP2 POP POP PUSH1 0x1 SWAP1 SUB SWAP1 PUSH1 0x0 MSTORE PUSH1 0x20 PUSH1 0x0 KECCAK256 SWAP1 PUSH1 0x3 MUL ADD PUSH1 0x0 SWAP1 SWAP2 SWAP1 SWAP2 SWAP1 SWAP2 POP PUSH1 0x0 DUP3 ADD MLOAD DUP2 PUSH1 0x0 ADD SSTORE PUSH1 0x20 DUP3 ADD MLOAD DUP2 PUSH1 0x1 ADD SSTORE PUSH1 0x40 DUP3 ADD MLOAD DUP2 PUSH1 0x2 ADD SSTORE POP POP PUSH1 0x14 PUSH1 0x40 MLOAD DUP1 PUSH1 0x60 ADD PUSH1 0x40 MSTORE DUP1 PUSH2 0x3E8 DUP2 MSTORE PUSH1 0x20 ADD PUSH1 0x5 DUP2 MSTORE PUSH1 0x20 ADD PUSH1 0x19 DUP2 MSTORE POP SWAP1 DUP1 PUSH1 0x1 DUP2 SLOAD ADD DUP1 DUP3 SSTORE DUP1 SWAP2 POP POP PUSH1 0x1 SWAP1 SUB SWAP1 PUSH1 0x0 MSTORE PUSH1 0x20 PUSH1 0x0 KECCAK256 SWAP1 PUSH1 0x3 MUL ADD PUSH1 0x0 SWAP1 SWAP2 SWAP1 SWAP2 SWAP1 SWAP2 POP PUSH1 0x0 DUP3 ADD MLOAD DUP2 PUSH1 0x0 ADD SSTORE PUSH1 0x20 DUP3 ADD MLOAD DUP2 PUSH1 0x1 ADD SSTORE PUSH1 0x40 DUP3 ADD MLOAD DUP2 PUSH1 0x2 ADD SSTORE POP POP PUSH1 0x14 PUSH1 0x40 MLOAD DUP1 PUSH1 0x60 ADD PUSH1 0x40 MSTORE DUP1 PUSH2 0x12C DUP2 MSTORE PUSH1 0x20 ADD PUSH1 0x4 DUP2 MSTORE PUSH1 0x20 ADD PUSH1 0x14 DUP2 MSTORE POP SWAP1 DUP1 PUSH1 0x1 DUP2 SLOAD ADD DUP1 DUP3 SSTORE DUP1 SWAP2 POP POP PUSH1 0x1 SWAP1 SUB SWAP1 PUSH1 0x0 MSTORE PUSH1 0x20 PUSH1 0x0 KECCAK256 SWAP1 PUSH1 0x3 MUL ADD PUSH1 0x0 SWAP1 SWAP2 SWAP1 SWAP2 SWAP1 SWAP2 POP PUSH1 0x0 DUP3 ADD MLOAD DUP2 PUSH1 0x0 ADD SSTORE PUSH1 0x20 DUP3 ADD MLOAD DUP2 PUSH1 0x1 ADD SSTORE PUSH1 0x40 DUP3 ADD MLOAD DUP2 PUSH1 0x2 ADD SSTORE POP POP PUSH1 0x14 PUSH1 0x40 MLOAD DUP1 PUSH1 0x60 ADD PUSH1 0x40 MSTORE DUP1 PUSH1 0x64 DUP2 MSTORE PUSH1 0x20 ADD PUSH1 0x3 DUP2 MSTORE PUSH1 0x20 ADD PUSH1 0xF DUP2 MSTORE POP SWAP1 DUP1 PUSH1 0x1 DUP2 SLOAD ADD DUP1 DUP3 SSTORE DUP1 SWAP2 POP POP PUSH1 0x1 SWAP1 SUB SWAP1 PUSH1 0x0 MSTORE PUSH1 0x20 PUSH1 0x0 KECCAK256 SWAP1 PUSH1 0x3 MUL ADD PUSH1 0x0 SWAP1 SWAP2 SWAP1 SWAP2 SWAP1 SWAP2 POP PUSH1 0x0 DUP3 ADD MLOAD DUP2 PUSH1 0x0 ADD SSTORE PUSH1 0x20 DUP3 ADD MLOAD DUP2 PUSH1 0x1 ADD SSTORE PUSH1 0x40 DUP3 ADD MLOAD DUP2 PUSH1 0x2 ADD SSTORE POP POP PUSH1 0x14 PUSH1 0x40 MLOAD DUP1 PUSH1 0x60 ADD PUSH1 0x40 MSTORE DUP1 PUSH1 0x1E DUP2 MSTORE PUSH1 0x20 ADD PUSH1 0x2 DUP2 MSTORE PUSH1 0x20 ADD PUSH1 0xA DUP2 MSTORE POP SWAP1 DUP1 PUSH1 0x1 DUP2 SLOAD ADD DUP1 DUP3 SSTORE DUP1 SWAP2 POP POP PUSH1 0x1 SWAP1 SUB SWAP1 PUSH1 0x0 MSTORE PUSH1 0x20 PUSH1 0x0 KECCAK256 SWAP1 PUSH1 0x3 MUL ADD PUSH1 0x0 SWAP1 SWAP2 SWAP1 SWAP2 SWAP1 SWAP2 POP PUSH1 0x0 DUP3 ADD MLOAD DUP2 PUSH1 0x0 ADD SSTORE PUSH1 0x20 DUP3 ADD MLOAD DUP2 PUSH1 0x1 ADD SSTORE PUSH1 0x40 DUP3 ADD MLOAD DUP2 PUSH1 0x2 ADD SSTORE POP POP PUSH1 0x14 PUSH1 0x40 MLOAD DUP1 PUSH1 0x60 ADD PUSH1 0x40 MSTORE DUP1 PUSH1 0xA DUP2 MSTORE PUSH1 0x20 ADD PUSH1 0x1 DUP2 MSTORE PUSH1 0x20 ADD PUSH1 0x5 DUP2 MSTORE POP SWAP1 DUP1 PUSH1 0x1 DUP2 SLOAD ADD DUP1 DUP3 SSTORE DUP1 SWAP2 POP POP PUSH1 0x1 SWAP1 SUB SWAP1 PUSH1 0x0 MSTORE PUSH1 0x20 PUSH1 0x0 KECCAK256 SWAP1 PUSH1 0x3 MUL ADD PUSH1 0x0 SWAP1 SWAP2 SWAP1 SWAP2 SWAP1 SWAP2 POP PUSH1 0x0 DUP3 ADD MLOAD DUP2 PUSH1 0x0 ADD SSTORE PUSH1 0x20 DUP3 ADD MLOAD DUP2 PUSH1 0x1 ADD SSTORE PUSH1 0x40 DUP3 ADD MLOAD DUP2 PUSH1 0x2 ADD SSTORE POP POP DUP4 ISZERO PUSH2 0x4057 JUMPI DUP5 SLOAD PUSH1 0xFF PUSH1 0x40 SHL NOT AND DUP6 SSTORE PUSH1 0x40 MLOAD PUSH1 0x1 DUP2 MSTORE PUSH32 0xC7F505B2F371AE2175EE4913F4499E1F2633A7B5936321EED1CDAEB6115181D2 SWAP1 PUSH1 0x20 ADD PUSH1 0x40 MLOAD DUP1 SWAP2 SUB SWAP1 LOG1 JUMPDEST POP POP POP POP POP POP POP POP POP POP POP JUMP JUMPDEST PUSH2 0x406C PUSH2 0x42BA JUMP JUMPDEST PUSH1 0x0 DUP3 GT PUSH2 0x408C JUMPI PUSH1 0x40 MLOAD PUSH3 0x461BCD PUSH1 0xE5 SHL DUP2 MSTORE PUSH1 0x4 ADD PUSH2 0xCDD SWAP1 PUSH2 0x5E6C JUMP JUMPDEST PUSH1 0x17 SLOAD DUP3 GT ISZERO PUSH2 0x40AE JUMPI PUSH1 0x40 MLOAD PUSH3 0x461BCD PUSH1 0xE5 SHL DUP2 MSTORE PUSH1 0x4 ADD PUSH2 0xCDD SWAP1 PUSH2 0x5EA3 JUMP JUMPDEST DUP2 PUSH1 0x17 PUSH1 0x0 DUP3 DUP3 SLOAD PUSH2 0x40C0 SWAP2 SWAP1 PUSH2 0x5DFB JUMP JUMPDEST SWAP1 SWAP2 SSTORE POP POP PUSH1 0x0 SLOAD PUSH1 0x40 MLOAD PUSH4 0xA9059CBB PUSH1 0xE0 SHL DUP2 MSTORE PUSH1 0x1 PUSH1 0x1 PUSH1 0xA0 SHL SUB SWAP1 SWAP2 AND SWAP1 PUSH4 0xA9059CBB SWAP1 PUSH2 0x229D SWAP1 DUP5 SWAP1 DUP7 SWAP1 PUSH1 0x4 ADD PUSH2 0x5A33 JUMP JUMPDEST PUSH1 0x1 PUSH1 0x1 PUSH1 0xA0 SHL SUB DUP2 AND PUSH1 0x0 SWAP1 DUP2 MSTORE PUSH1 0x12 PUSH1 0x20 SWAP1 DUP2 MSTORE PUSH1 0x40 SWAP2 DUP3 SWAP1 KECCAK256 DUP1 SLOAD DUP4 MLOAD DUP2 DUP5 MUL DUP2 ADD DUP5 ADD SWAP1 SWAP5 MSTORE DUP1 DUP5 MSTORE PUSH1 0x60 SWAP4 SWAP3 DUP4 ADD DUP3 DUP3 DUP1 ISZERO PUSH2 0x4161 JUMPI PUSH1 0x20 MUL DUP3 ADD SWAP2 SWAP1 PUSH1 0x0 MSTORE PUSH1 0x20 PUSH1 0x0 KECCAK256 SWAP1 JUMPDEST DUP2 SLOAD PUSH1 0x1 PUSH1 0x1 PUSH1 0xA0 SHL SUB AND DUP2 MSTORE PUSH1 0x1 SWAP1 SWAP2 ADD SWAP1 PUSH1 0x20 ADD DUP1 DUP4 GT PUSH2 0x4143 JUMPI JUMPDEST POP POP POP POP POP SWAP1 POP SWAP2 SWAP1 POP JUMP JUMPDEST PUSH2 0x4175 PUSH2 0x42BA JUMP JUMPDEST DUP1 DUP3 DUP5 DUP7 PUSH2 0x4183 DUP10 DUP12 PUSH2 0x5D5D JUMP JUMPDEST PUSH2 0x418D SWAP2 SWAP1 PUSH2 0x5D5D JUMP JUMPDEST PUSH2 0x4197 SWAP2 SWAP1 PUSH2 0x5D5D JUMP JUMPDEST PUSH2 0x41A1 SWAP2 SWAP1 PUSH2 0x5D5D JUMP JUMPDEST PUSH2 0x41AB SWAP2 SWAP1 PUSH2 0x5D5D JUMP JUMPDEST PUSH1 0x64 EQ PUSH2 0x41E5 JUMPI PUSH1 0x40 MLOAD PUSH3 0x461BCD PUSH1 0xE5 SHL DUP2 MSTORE PUSH1 0x20 PUSH1 0x4 DUP3 ADD MSTORE PUSH1 0x8 PUSH1 0x24 DUP3 ADD MSTORE PUSH8 0x53756D213D31303 PUSH1 0xC4 SHL PUSH1 0x44 DUP3 ADD MSTORE PUSH1 0x64 ADD PUSH2 0xCDD JUMP JUMPDEST PUSH1 0x32 DUP7 GT ISZERO DUP1 ISZERO PUSH2 0x41F7 JUMPI POP PUSH1 0x32 DUP6 GT ISZERO JUMPDEST DUP1 ISZERO PUSH2 0x4204 JUMPI POP PUSH1 0x32 DUP5 GT ISZERO JUMPDEST DUP1 ISZERO PUSH2 0x4211 JUMPI POP PUSH1 0x32 DUP4 GT ISZERO JUMPDEST DUP1 ISZERO PUSH2 0x421E JUMPI POP PUSH1 0x32 DUP3 GT ISZERO JUMPDEST DUP1 ISZERO PUSH2 0x422B JUMPI POP PUSH1 0x32 DUP2 GT ISZERO JUMPDEST PUSH2 0x4262 JUMPI PUSH1 0x40 MLOAD PUSH3 0x461BCD PUSH1 0xE5 SHL DUP2 MSTORE PUSH1 0x20 PUSH1 0x4 DUP3 ADD MSTORE PUSH1 0x8 PUSH1 0x24 DUP3 ADD MSTORE PUSH8 0x526174653E353025 PUSH1 0xC0 SHL PUSH1 0x44 DUP3 ADD MSTORE PUSH1 0x64 ADD PUSH2 0xCDD JUMP JUMPDEST PUSH1 0x6 SWAP6 SWAP1 SWAP6 SSTORE PUSH1 0x7 SWAP4 SWAP1 SWAP4 SSTORE PUSH1 0x8 SWAP2 SWAP1 SWAP2 SSTORE PUSH1 0x9 SSTORE PUSH1 0xA SSTORE PUSH1 0xB SSTORE JUMP JUMPDEST PUSH2 0x4287 PUSH2 0x42BA JUMP JUMPDEST PUSH1 0x1 PUSH1 0x1 PUSH1 0xA0 SHL SUB DUP2 AND PUSH2 0x42B1 JUMPI PUSH1 0x0 PUSH1 0x40 MLOAD PUSH4 0x1E4FBDF7 PUSH1 0xE0 SHL DUP2 MSTORE PUSH1 0x4 ADD PUSH2 0xCDD SWAP2 SWAP1 PUSH2 0x57FA JUMP JUMPDEST PUSH2 0x11D3 DUP2 PUSH2 0x51E6 JUMP JUMPDEST CALLER PUSH2 0x42C3 PUSH2 0x2C6E JUMP JUMPDEST PUSH1 0x1 PUSH1 0x1 PUSH1 0xA0 SHL SUB AND EQ PUSH2 0x19BD JUMPI CALLER PUSH1 0x40 MLOAD PUSH4 0x118CDAA7 PUSH1 0xE0 SHL DUP2 MSTORE PUSH1 0x4 ADD PUSH2 0xCDD SWAP2 SWAP1 PUSH2 0x57FA JUMP JUMPDEST PUSH1 0x0 PUSH2 0x42F6 PUSH2 0x547F JUMP JUMPDEST DUP1 SLOAD SWAP1 SWAP2 POP PUSH1 0x1 NOT ADD PUSH2 0x431C JUMPI PUSH1 0x40 MLOAD PUSH4 0x3EE5AEB5 PUSH1 0xE0 SHL DUP2 MSTORE PUSH1 0x4 ADD PUSH1 0x40 MLOAD DUP1 SWAP2 SUB SWAP1 REVERT JUMPDEST PUSH1 0x2 SWAP1 SSTORE JUMP JUMPDEST PUSH1 0x0 PUSH2 0x432C PUSH2 0x547F JUMP JUMPDEST PUSH1 0x1 SWAP1 SSTORE POP JUMP JUMPDEST PUSH1 0x1 PUSH1 0x1 PUSH1 0xA0 SHL SUB DUP2 AND PUSH1 0x0 SWAP1 DUP2 MSTORE PUSH1 0x10 PUSH1 0x20 MSTORE PUSH1 0x40 SWAP1 KECCAK256 PUSH1 0x3 DUP2 ADD SLOAD PUSH1 0xFF AND PUSH2 0x1EF1 JUMPI PUSH1 0x3 DUP2 ADD DUP1 SLOAD PUSH1 0xFF NOT AND PUSH1 0x1 OR SWAP1 SSTORE PUSH1 0x1 PUSH1 0x1 PUSH1 0xA0 SHL SUB DUP3 AND PUSH1 0x0 SWAP1 DUP2 MSTORE PUSH1 0x11 PUSH1 0x20 MSTORE PUSH1 0x40 DUP2 KECCAK256 SWAP1 DUP1 DUP1 JUMPDEST DUP4 SLOAD DUP2 LT ISZERO PUSH2 0x44A5 JUMPI DUP4 DUP2 DUP2 SLOAD DUP2 LT PUSH2 0x439D JUMPI PUSH2 0x439D PUSH2 0x5E27 JUMP JUMPDEST PUSH1 0x0 SWAP2 DUP3 MSTORE PUSH1 0x20 SWAP1 SWAP2 KECCAK256 PUSH1 0x4 PUSH1 0x6 SWAP1 SWAP3 MUL ADD ADD SLOAD PUSH1 0xFF AND ISZERO PUSH2 0x449D JUMPI PUSH1 0x0 PUSH2 0x12C PUSH1 0xC SLOAD DUP7 DUP5 DUP2 SLOAD DUP2 LT PUSH2 0x43D3 JUMPI PUSH2 0x43D3 PUSH2 0x5E27 JUMP JUMPDEST SWAP1 PUSH1 0x0 MSTORE PUSH1 0x20 PUSH1 0x0 KECCAK256 SWAP1 PUSH1 0x6 MUL ADD PUSH1 0x1 ADD SLOAD PUSH1 0x2 PUSH2 0x43F1 SWAP2 SWAP1 PUSH2 0x5D46 JUMP JUMPDEST PUSH2 0x43FB SWAP2 SWAP1 PUSH2 0x5D46 JUMP JUMPDEST PUSH2 0x4405 SWAP2 SWAP1 PUSH2 0x5D70 JUMP JUMPDEST SWAP1 POP PUSH1 0x0 DUP6 DUP4 DUP2 SLOAD DUP2 LT PUSH2 0x441B JUMPI PUSH2 0x441B PUSH2 0x5E27 JUMP JUMPDEST SWAP1 PUSH1 0x0 MSTORE PUSH1 0x20 PUSH1 0x0 KECCAK256 SWAP1 PUSH1 0x6 MUL ADD PUSH1 0x1 ADD SLOAD SWAP1 POP DUP2 DUP2 LT PUSH2 0x4447 JUMPI PUSH2 0x4440 DUP3 DUP3 PUSH2 0x5DFB JUMP JUMPDEST SWAP1 POP PUSH2 0x444C JUMP JUMPDEST PUSH1 0x0 SWAP2 POP JUMPDEST PUSH2 0x4456 DUP2 DUP7 PUSH2 0x5D5D JUMP JUMPDEST SWAP5 POP PUSH2 0x4462 DUP3 DUP6 PUSH2 0x5D5D JUMP JUMPDEST SWAP4 POP PUSH1 0x0 DUP7 DUP5 DUP2 SLOAD DUP2 LT PUSH2 0x4478 JUMPI PUSH2 0x4478 PUSH2 0x5E27 JUMP JUMPDEST PUSH1 0x0 SWAP2 DUP3 MSTORE PUSH1 0x20 SWAP1 SWAP2 KECCAK256 PUSH1 0x6 SWAP1 SWAP2 MUL ADD PUSH1 0x4 ADD DUP1 SLOAD PUSH1 0xFF NOT AND SWAP2 ISZERO ISZERO SWAP2 SWAP1 SWAP2 OR SWAP1 SSTORE POP POP JUMPDEST PUSH1 0x1 ADD PUSH2 0x4382 JUMP JUMPDEST POP DUP2 ISZERO PUSH2 0x4523 JUMPI PUSH1 0x0 SLOAD PUSH1 0x40 MLOAD PUSH4 0xA9059CBB PUSH1 0xE0 SHL DUP2 MSTORE PUSH1 0x1 PUSH1 0x1 PUSH1 0xA0 SHL SUB SWAP1 SWAP2 AND SWAP1 PUSH4 0xA9059CBB SWAP1 PUSH2 0x44DE SWAP1 DUP9 SWAP1 DUP7 SWAP1 PUSH1 0x4 ADD PUSH2 0x5A33 JUMP JUMPDEST PUSH1 0x20 PUSH1 0x40 MLOAD DUP1 DUP4 SUB DUP2 PUSH1 0x0 DUP8 GAS CALL ISZERO DUP1 ISZERO PUSH2 0x44FD JUMPI RETURNDATASIZE PUSH1 0x0 DUP1 RETURNDATACOPY RETURNDATASIZE PUSH1 0x0 REVERT JUMPDEST POP POP POP POP PUSH1 0x40 MLOAD RETURNDATASIZE PUSH1 0x1F NOT PUSH1 0x1F DUP3 ADD AND DUP3 ADD DUP1 PUSH1 0x40 MSTORE POP DUP2 ADD SWAP1 PUSH2 0x4521 SWAP2 SWAP1 PUSH2 0x5DDE JUMP JUMPDEST POP JUMPDEST DUP1 ISZERO PUSH2 0x455A JUMPI PUSH1 0x1 PUSH1 0x1 PUSH1 0xA0 SHL SUB DUP6 AND PUSH1 0x0 SWAP1 DUP2 MSTORE PUSH1 0xF PUSH1 0x20 MSTORE PUSH1 0x40 DUP2 KECCAK256 PUSH1 0x6 ADD DUP1 SLOAD DUP4 SWAP3 SWAP1 PUSH2 0x4554 SWAP1 DUP5 SWAP1 PUSH2 0x5D5D JUMP JUMPDEST SWAP1 SWAP2 SSTORE POP POP JUMPDEST PUSH1 0x1 PUSH1 0x1 PUSH1 0xA0 SHL SUB DUP1 DUP7 AND PUSH1 0x0 SWAP1 DUP2 MSTORE PUSH1 0xF PUSH1 0x20 MSTORE PUSH1 0x40 SWAP1 KECCAK256 PUSH1 0x5 DUP2 ADD DUP1 SLOAD PUSH1 0xFF NOT DUP2 AND SWAP1 SWAP2 SSTORE SWAP1 SLOAD PUSH1 0xFF SWAP1 SWAP2 AND SWAP2 AND DUP2 DUP1 ISZERO PUSH2 0x459F JUMPI POP PUSH1 0x1 PUSH1 0x1 PUSH1 0xA0 SHL SUB DUP2 AND ISZERO ISZERO JUMPDEST DUP1 ISZERO PUSH2 0x45C5 JUMPI POP PUSH1 0x1 PUSH1 0x1 PUSH1 0xA0 SHL SUB DUP2 AND PUSH1 0x0 SWAP1 DUP2 MSTORE PUSH1 0xF PUSH1 0x20 MSTORE PUSH1 0x40 SWAP1 KECCAK256 PUSH1 0x1 ADD SLOAD ISZERO ISZERO JUMPDEST ISZERO PUSH2 0x45F7 JUMPI PUSH1 0x1 PUSH1 0x1 PUSH1 0xA0 SHL SUB DUP2 AND PUSH1 0x0 SWAP1 DUP2 MSTORE PUSH1 0xF PUSH1 0x20 MSTORE PUSH1 0x40 DUP2 KECCAK256 PUSH1 0x1 ADD DUP1 SLOAD SWAP2 PUSH2 0x45F1 DUP4 PUSH2 0x5EF0 JUMP JUMPDEST SWAP2 SWAP1 POP SSTORE POP JUMPDEST DUP7 PUSH1 0x1 PUSH1 0x1 PUSH1 0xA0 SHL SUB AND PUSH1 0x0 DUP1 MLOAD PUSH1 0x20 PUSH2 0x5FE4 DUP4 CODECOPY DUP2 MLOAD SWAP2 MSTORE DUP6 DUP6 PUSH1 0x40 MLOAD PUSH2 0x4620 SWAP3 SWAP2 SWAP1 PUSH2 0x5AA0 JUMP JUMPDEST PUSH1 0x40 MLOAD DUP1 SWAP2 SUB SWAP1 LOG2 DUP6 SLOAD PUSH1 0x40 MLOAD SWAP1 DUP2 MSTORE PUSH1 0x1 PUSH1 0x1 PUSH1 0xA0 SHL SUB DUP9 AND SWAP1 PUSH32 0x920BB94EB3842A728DB98228C375FF6B00C5BC5A54FAC6736155517A0A20A61A SWAP1 PUSH1 0x20 ADD PUSH1 0x40 MLOAD DUP1 SWAP2 SUB SWAP1 LOG2 POP POP POP POP POP POP POP JUMP JUMPDEST PUSH1 0x0 PUSH1 0x2 PUSH2 0x4680 DUP4 PUSH1 0x3 PUSH2 0x5D46 JUMP JUMPDEST PUSH2 0x468A SWAP2 SWAP1 PUSH2 0x5D70 JUMP JUMPDEST SWAP3 SWAP2 POP POP JUMP JUMPDEST PUSH1 0x1 PUSH1 0x1 PUSH1 0xA0 SHL SUB DUP2 AND PUSH1 0x0 SWAP1 DUP2 MSTORE PUSH1 0x11 PUSH1 0x20 MSTORE PUSH1 0x40 DUP2 KECCAK256 DUP2 JUMPDEST DUP2 SLOAD DUP2 LT ISZERO PUSH2 0x471B JUMPI DUP2 DUP2 DUP2 SLOAD DUP2 LT PUSH2 0x46C5 JUMPI PUSH2 0x46C5 PUSH2 0x5E27 JUMP JUMPDEST PUSH1 0x0 SWAP2 DUP3 MSTORE PUSH1 0x20 SWAP1 SWAP2 KECCAK256 PUSH1 0x4 PUSH1 0x6 SWAP1 SWAP3 MUL ADD ADD SLOAD PUSH1 0xFF AND ISZERO PUSH2 0x4713 JUMPI DUP2 DUP2 DUP2 SLOAD DUP2 LT PUSH2 0x46F3 JUMPI PUSH2 0x46F3 PUSH2 0x5E27 JUMP JUMPDEST SWAP1 PUSH1 0x0 MSTORE PUSH1 0x20 PUSH1 0x0 KECCAK256 SWAP1 PUSH1 0x6 MUL ADD PUSH1 0x1 ADD SLOAD DUP4 PUSH2 0x4710 SWAP2 SWAP1 PUSH2 0x5D5D JUMP JUMPDEST SWAP3 POP JUMPDEST PUSH1 0x1 ADD PUSH2 0x46AA JUMP JUMPDEST POP POP SWAP2 SWAP1 POP JUMP JUMPDEST PUSH1 0x1 PUSH1 0x1 PUSH1 0xA0 SHL SUB DUP2 AND PUSH1 0x0 SWAP1 DUP2 MSTORE PUSH1 0x10 PUSH1 0x20 MSTORE PUSH1 0x40 DUP2 KECCAK256 PUSH1 0x1 DUP2 ADD SLOAD SWAP1 SWAP2 SWAP1 ISZERO PUSH2 0x4759 JUMPI PUSH2 0x4754 DUP3 PUSH1 0x1 ADD SLOAD PUSH2 0x4671 JUMP JUMPDEST PUSH2 0x475C JUMP JUMPDEST PUSH1 0x0 JUMPDEST SWAP1 POP PUSH1 0x0 DUP1 DUP4 PUSH1 0x1 ADD SLOAD GT DUP1 ISZERO PUSH2 0x4778 JUMPI POP PUSH1 0x3 DUP4 ADD SLOAD PUSH1 0xFF AND ISZERO JUMPDEST DUP1 ISZERO PUSH2 0x4784 JUMPI POP PUSH1 0x0 DUP3 GT JUMPDEST DUP1 ISZERO PUSH2 0x4798 JUMPI POP DUP2 PUSH2 0x4795 DUP6 PUSH2 0x4690 JUMP JUMPDEST LT ISZERO JUMPDEST PUSH1 0x1 PUSH1 0x1 PUSH1 0xA0 SHL SUB DUP6 AND PUSH1 0x0 SWAP1 DUP2 MSTORE PUSH1 0xF PUSH1 0x20 MSTORE PUSH1 0x40 SWAP1 KECCAK256 PUSH1 0x5 ADD SLOAD SWAP1 SWAP2 POP PUSH1 0xFF AND DUP1 ISZERO ISZERO DUP3 ISZERO ISZERO SUB PUSH2 0x47CC JUMPI POP POP POP POP POP JUMP JUMPDEST PUSH1 0x1 PUSH1 0x1 PUSH1 0xA0 SHL SUB DUP6 DUP2 AND PUSH1 0x0 SWAP1 DUP2 MSTORE PUSH1 0xF PUSH1 0x20 MSTORE PUSH1 0x40 SWAP1 KECCAK256 PUSH1 0x5 DUP2 ADD DUP1 SLOAD PUSH1 0xFF NOT AND DUP6 ISZERO ISZERO OR SWAP1 SSTORE SLOAD AND DUP1 PUSH2 0x4804 JUMPI POP POP POP POP POP POP JUMP JUMPDEST DUP3 ISZERO PUSH2 0x483B JUMPI PUSH1 0x1 PUSH1 0x1 PUSH1 0xA0 SHL SUB DUP2 AND PUSH1 0x0 SWAP1 DUP2 MSTORE PUSH1 0xF PUSH1 0x20 MSTORE PUSH1 0x40 DUP2 KECCAK256 PUSH1 0x1 ADD DUP1 SLOAD SWAP2 PUSH2 0x4831 DUP4 PUSH2 0x5E8A JUMP JUMPDEST SWAP2 SWAP1 POP SSTORE POP PUSH2 0x4889 JUMP JUMPDEST PUSH1 0x1 PUSH1 0x1 PUSH1 0xA0 SHL SUB DUP2 AND PUSH1 0x0 SWAP1 DUP2 MSTORE PUSH1 0xF PUSH1 0x20 MSTORE PUSH1 0x40 SWAP1 KECCAK256 PUSH1 0x1 ADD SLOAD ISZERO PUSH2 0x4889 JUMPI PUSH1 0x1 PUSH1 0x1 PUSH1 0xA0 SHL SUB DUP2 AND PUSH1 0x0 SWAP1 DUP2 MSTORE PUSH1 0xF PUSH1 0x20 MSTORE PUSH1 0x40 DUP2 KECCAK256 PUSH1 0x1 ADD DUP1 SLOAD SWAP2 PUSH2 0x4883 DUP4 PUSH2 0x5EF0 JUMP JUMPDEST SWAP2 SWAP1 POP SSTORE POP JUMPDEST POP POP POP POP POP POP JUMP JUMPDEST ADDRESS PUSH1 0x1 PUSH1 0x1 PUSH1 0xA0 SHL SUB PUSH32 0x0 AND EQ DUP1 PUSH2 0x4918 JUMPI POP PUSH32 0x0 PUSH1 0x1 PUSH1 0x1 PUSH1 0xA0 SHL SUB AND PUSH2 0x490C PUSH1 0x0 DUP1 MLOAD PUSH1 0x20 PUSH2 0x5F64 DUP4 CODECOPY DUP2 MLOAD SWAP2 MSTORE SLOAD PUSH1 0x1 PUSH1 0x1 PUSH1 0xA0 SHL SUB AND SWAP1 JUMP JUMPDEST PUSH1 0x1 PUSH1 0x1 PUSH1 0xA0 SHL SUB AND EQ ISZERO JUMPDEST ISZERO PUSH2 0x19BD JUMPI PUSH1 0x40 MLOAD PUSH4 0x703E46DD PUSH1 0xE1 SHL DUP2 MSTORE PUSH1 0x4 ADD PUSH1 0x40 MLOAD DUP1 SWAP2 SUB SWAP1 REVERT JUMPDEST PUSH2 0x11D3 PUSH2 0x42BA JUMP JUMPDEST DUP2 PUSH1 0x1 PUSH1 0x1 PUSH1 0xA0 SHL SUB AND PUSH4 0x52D1902D PUSH1 0x40 MLOAD DUP2 PUSH4 0xFFFFFFFF AND PUSH1 0xE0 SHL DUP2 MSTORE PUSH1 0x4 ADD PUSH1 0x20 PUSH1 0x40 MLOAD DUP1 DUP4 SUB DUP2 DUP7 GAS STATICCALL SWAP3 POP POP POP DUP1 ISZERO PUSH2 0x4998 JUMPI POP PUSH1 0x40 DUP1 MLOAD PUSH1 0x1F RETURNDATASIZE SWAP1 DUP2 ADD PUSH1 0x1F NOT AND DUP3 ADD SWAP1 SWAP3 MSTORE PUSH2 0x4995 SWAP2 DUP2 ADD SWAP1 PUSH2 0x5E0E JUMP JUMPDEST PUSH1 0x1 JUMPDEST PUSH2 0x49B7 JUMPI DUP2 PUSH1 0x40 MLOAD PUSH4 0x4C9C8CE3 PUSH1 0xE0 SHL DUP2 MSTORE PUSH1 0x4 ADD PUSH2 0xCDD SWAP2 SWAP1 PUSH2 0x57FA JUMP JUMPDEST PUSH1 0x0 DUP1 MLOAD PUSH1 0x20 PUSH2 0x5F64 DUP4 CODECOPY DUP2 MLOAD SWAP2 MSTORE DUP2 EQ PUSH2 0x49E8 JUMPI PUSH1 0x40 MLOAD PUSH4 0x2A875269 PUSH1 0xE2 SHL DUP2 MSTORE PUSH1 0x4 DUP2 ADD DUP3 SWAP1 MSTORE PUSH1 0x24 ADD PUSH2 0xCDD JUMP JUMPDEST PUSH2 0x22E0 DUP4 DUP4 PUSH2 0x54A3 JUMP JUMPDEST ADDRESS PUSH1 0x1 PUSH1 0x1 PUSH1 0xA0 SHL SUB PUSH32 0x0 AND EQ PUSH2 0x19BD JUMPI PUSH1 0x40 MLOAD PUSH4 0x703E46DD PUSH1 0xE1 SHL DUP2 MSTORE PUSH1 0x4 ADD PUSH1 0x40 MLOAD DUP1 SWAP2 SUB SWAP1 REVERT JUMPDEST PUSH1 0x1 PUSH1 0x1 PUSH1 0xA0 SHL SUB DUP2 AND PUSH1 0x0 SWAP1 DUP2 MSTORE PUSH1 0x10 PUSH1 0x20 MSTORE PUSH1 0x40 SWAP1 KECCAK256 PUSH1 0x1 DUP2 ADD SLOAD ISZERO DUP1 PUSH2 0x4A68 JUMPI POP PUSH1 0x3 DUP2 ADD SLOAD PUSH1 0xFF AND JUMPDEST ISZERO PUSH2 0x4A71 JUMPI POP POP JUMP JUMPDEST PUSH1 0x0 PUSH2 0x4A7C DUP4 PUSH2 0x4690 JUMP JUMPDEST GT ISZERO PUSH2 0x4A86 JUMPI POP POP JUMP JUMPDEST PUSH1 0x15 SLOAD DUP2 PUSH1 0x2 ADD SLOAD PUSH2 0x4A98 SWAP2 SWAP1 PUSH2 0x5D5D JUMP JUMPDEST TIMESTAMP GT PUSH2 0x4AA2 JUMPI POP POP JUMP JUMPDEST DUP1 SLOAD PUSH1 0x1 DUP3 ADD SLOAD PUSH1 0x1 PUSH1 0x1 PUSH1 0xA0 SHL SUB DUP1 DUP6 AND PUSH1 0x0 SWAP1 DUP2 MSTORE PUSH1 0xF PUSH1 0x20 MSTORE PUSH1 0x40 SWAP1 KECCAK256 DUP1 SLOAD PUSH1 0x5 SWAP1 SWAP2 ADD SLOAD SWAP2 AND SWAP1 PUSH1 0xFF AND DUP1 ISZERO PUSH2 0x4AE4 JUMPI POP PUSH1 0x1 PUSH1 0x1 PUSH1 0xA0 SHL SUB DUP2 AND ISZERO ISZERO JUMPDEST DUP1 ISZERO PUSH2 0x4B0A JUMPI POP PUSH1 0x1 PUSH1 0x1 PUSH1 0xA0 SHL SUB DUP2 AND PUSH1 0x0 SWAP1 DUP2 MSTORE PUSH1 0xF PUSH1 0x20 MSTORE PUSH1 0x40 SWAP1 KECCAK256 PUSH1 0x1 ADD SLOAD ISZERO ISZERO JUMPDEST ISZERO PUSH2 0x4B3C JUMPI PUSH1 0x1 PUSH1 0x1 PUSH1 0xA0 SHL SUB DUP2 AND PUSH1 0x0 SWAP1 DUP2 MSTORE PUSH1 0xF PUSH1 0x20 MSTORE PUSH1 0x40 DUP2 KECCAK256 PUSH1 0x1 ADD DUP1 SLOAD SWAP2 PUSH2 0x4B36 DUP4 PUSH2 0x5EF0 JUMP JUMPDEST SWAP2 SWAP1 POP SSTORE POP JUMPDEST PUSH1 0x1 PUSH1 0x1 PUSH1 0xA0 SHL SUB DUP6 AND PUSH1 0x0 SWAP1 DUP2 MSTORE PUSH1 0xF PUSH1 0x20 MSTORE PUSH1 0x40 DUP2 KECCAK256 PUSH1 0x5 DUP2 ADD DUP1 SLOAD PUSH1 0xFF NOT SWAP1 DUP2 AND SWAP1 SWAP2 SSTORE PUSH1 0x3 DUP1 DUP4 ADD DUP5 SWAP1 SSTORE PUSH1 0x4 SWAP1 SWAP3 ADD DUP4 SWAP1 SSTORE DUP3 DUP8 SSTORE PUSH1 0x1 DUP8 ADD DUP4 SWAP1 SSTORE PUSH1 0x2 DUP8 ADD SWAP3 SWAP1 SWAP3 SSTORE DUP6 ADD DUP1 SLOAD SWAP1 SWAP2 AND SWAP1 SSTORE DUP3 ISZERO PUSH2 0x4BC8 JUMPI PUSH1 0x0 DUP4 DUP2 MSTORE PUSH1 0x13 PUSH1 0x20 MSTORE PUSH1 0x40 DUP2 KECCAK256 PUSH2 0x4BAB SWAP2 PUSH2 0x56D5 JUMP JUMPDEST PUSH1 0x0 DUP4 DUP2 MSTORE PUSH1 0x1C PUSH1 0x20 MSTORE PUSH1 0x40 SWAP1 KECCAK256 DUP1 SLOAD PUSH1 0x1 PUSH1 0x1 PUSH1 0xA0 SHL SUB NOT AND SWAP1 SSTORE JUMPDEST DUP5 PUSH1 0x1 PUSH1 0x1 PUSH1 0xA0 SHL SUB AND PUSH32 0x57025F0027038907EDA728B59164FB63D06048F42E618A35267E6A12E49B2E46 DUP5 DUP5 PUSH1 0x40 MLOAD PUSH2 0x4C03 SWAP3 SWAP2 SWAP1 PUSH2 0x5AA0 JUMP JUMPDEST PUSH1 0x40 MLOAD DUP1 SWAP2 SUB SWAP1 LOG2 POP POP POP POP POP JUMP JUMPDEST PUSH1 0x1 PUSH1 0x1 PUSH1 0xA0 SHL SUB DUP4 AND PUSH1 0x0 SWAP1 DUP2 MSTORE PUSH1 0xF PUSH1 0x20 SWAP1 DUP2 MSTORE PUSH1 0x40 DUP1 DUP4 KECCAK256 PUSH1 0x10 SWAP1 SWAP3 MSTORE DUP3 KECCAK256 PUSH1 0x5 DUP3 ADD SLOAD PUSH1 0xFF AND ISZERO DUP1 PUSH2 0x4C4C JUMPI POP PUSH1 0x3 DUP2 ADD SLOAD PUSH1 0xFF AND JUMPDEST DUP1 PUSH2 0x4C59 JUMPI POP PUSH1 0x1 DUP2 ADD SLOAD ISZERO JUMPDEST ISZERO PUSH2 0x4C69 JUMPI PUSH1 0x0 SWAP3 POP POP POP PUSH2 0xEA2 JUMP JUMPDEST PUSH1 0x0 DUP3 PUSH1 0x3 ADD SLOAD DUP4 PUSH1 0x4 ADD SLOAD PUSH2 0x4C7F SWAP2 SWAP1 PUSH2 0x5DFB JUMP JUMPDEST SWAP1 POP DUP6 DUP2 DUP2 GT ISZERO PUSH2 0x4CBF JUMPI DUP2 SWAP1 POP DUP8 PUSH1 0x1 PUSH1 0x1 PUSH1 0xA0 SHL SUB AND PUSH1 0x0 DUP1 MLOAD PUSH1 0x20 PUSH2 0x5F84 DUP4 CODECOPY DUP2 MLOAD SWAP2 MSTORE DUP9 DUP5 PUSH1 0x40 MLOAD PUSH2 0x4CB6 SWAP3 SWAP2 SWAP1 PUSH2 0x5AA0 JUMP JUMPDEST PUSH1 0x40 MLOAD DUP1 SWAP2 SUB SWAP1 LOG2 JUMPDEST DUP1 ISZERO PUSH2 0x4D86 JUMPI DUP1 DUP5 PUSH1 0x3 ADD PUSH1 0x0 DUP3 DUP3 SLOAD PUSH2 0x4CD9 SWAP2 SWAP1 PUSH2 0x5D5D JUMP JUMPDEST SWAP1 SWAP2 SSTORE POP POP PUSH1 0x0 SLOAD PUSH1 0x40 MLOAD PUSH4 0xA9059CBB PUSH1 0xE0 SHL DUP2 MSTORE PUSH1 0x1 PUSH1 0x1 PUSH1 0xA0 SHL SUB SWAP1 SWAP2 AND SWAP1 PUSH4 0xA9059CBB SWAP1 PUSH2 0x4D10 SWAP1 DUP12 SWAP1 DUP6 SWAP1 PUSH1 0x4 ADD PUSH2 0x5A33 JUMP JUMPDEST PUSH1 0x20 PUSH1 0x40 MLOAD DUP1 DUP4 SUB DUP2 PUSH1 0x0 DUP8 GAS CALL ISZERO DUP1 ISZERO PUSH2 0x4D2F JUMPI RETURNDATASIZE PUSH1 0x0 DUP1 RETURNDATACOPY RETURNDATASIZE PUSH1 0x0 REVERT JUMPDEST POP POP POP POP PUSH1 0x40 MLOAD RETURNDATASIZE PUSH1 0x1F NOT PUSH1 0x1F DUP3 ADD AND DUP3 ADD DUP1 PUSH1 0x40 MSTORE POP DUP2 ADD SWAP1 PUSH2 0x4D53 SWAP2 SWAP1 PUSH2 0x5DDE JUMP JUMPDEST POP DUP8 PUSH1 0x1 PUSH1 0x1 PUSH1 0xA0 SHL SUB AND PUSH1 0x0 DUP1 MLOAD PUSH1 0x20 PUSH2 0x5FC4 DUP4 CODECOPY DUP2 MLOAD SWAP2 MSTORE DUP3 DUP9 PUSH1 0x40 MLOAD PUSH2 0x4D7D SWAP3 SWAP2 SWAP1 PUSH2 0x5E3D JUMP JUMPDEST PUSH1 0x40 MLOAD DUP1 SWAP2 SUB SWAP1 LOG2 JUMPDEST DUP4 PUSH1 0x4 ADD SLOAD DUP5 PUSH1 0x3 ADD SLOAD LT PUSH2 0x4D9E JUMPI PUSH2 0x4D9E DUP9 PUSH2 0x4333 JUMP JUMPDEST SWAP8 SWAP7 POP POP POP POP POP POP POP JUMP JUMPDEST PUSH1 0x1 PUSH1 0x1 PUSH1 0xA0 SHL SUB DUP1 DUP5 AND PUSH1 0x0 SWAP1 DUP2 MSTORE PUSH1 0xF PUSH1 0x20 MSTORE PUSH1 0x40 DUP2 KECCAK256 SLOAD SWAP1 SWAP2 AND SWAP1 DUP1 JUMPDEST PUSH1 0x1 PUSH1 0x1 PUSH1 0xA0 SHL SUB DUP4 AND ISZERO DUP1 ISZERO SWAP1 PUSH2 0x4DE1 JUMPI POP PUSH1 0x14 DUP2 LT JUMPDEST ISZERO PUSH2 0x4889 JUMPI PUSH1 0x1 PUSH1 0x1 PUSH1 0xA0 SHL SUB DUP4 AND PUSH1 0x0 SWAP1 DUP2 MSTORE PUSH1 0xF PUSH1 0x20 MSTORE PUSH1 0x40 SWAP1 KECCAK256 PUSH1 0x5 ADD SLOAD PUSH1 0xFF AND PUSH2 0x4E39 JUMPI PUSH1 0x1 PUSH1 0x1 PUSH1 0xA0 SHL SUB SWAP3 DUP4 AND PUSH1 0x0 SWAP1 DUP2 MSTORE PUSH1 0xF PUSH1 0x20 MSTORE PUSH1 0x40 SWAP1 KECCAK256 SLOAD SWAP1 SWAP3 AND SWAP2 DUP1 PUSH2 0x4E31 DUP2 PUSH2 0x5E8A JUMP JUMPDEST SWAP2 POP POP PUSH2 0x4DC9 JUMP JUMPDEST PUSH1 0x1 PUSH1 0x1 PUSH1 0xA0 SHL SUB DUP4 AND PUSH1 0x0 SWAP1 DUP2 MSTORE PUSH1 0x10 PUSH1 0x20 MSTORE PUSH1 0x40 SWAP1 KECCAK256 PUSH1 0x1 DUP2 ADD SLOAD ISZERO DUP1 PUSH2 0x4E66 JUMPI POP PUSH1 0x3 DUP2 ADD SLOAD PUSH1 0xFF AND JUMPDEST ISZERO PUSH2 0x4E9C JUMPI PUSH1 0x1 PUSH1 0x1 PUSH1 0xA0 SHL SUB SWAP4 DUP5 AND PUSH1 0x0 SWAP1 DUP2 MSTORE PUSH1 0xF PUSH1 0x20 MSTORE PUSH1 0x40 SWAP1 KECCAK256 SLOAD SWAP1 SWAP4 AND SWAP3 DUP2 PUSH2 0x4E93 DUP2 PUSH2 0x5E8A JUMP JUMPDEST SWAP3 POP POP POP PUSH2 0x4DC9 JUMP JUMPDEST PUSH1 0x1 PUSH1 0x1 PUSH1 0xA0 SHL SUB DUP5 AND PUSH1 0x0 SWAP1 DUP2 MSTORE PUSH1 0xF PUSH1 0x20 MSTORE PUSH1 0x40 DUP2 KECCAK256 PUSH1 0x1 ADD SLOAD PUSH2 0x4EC1 SWAP1 PUSH2 0x2BCB JUMP JUMPDEST SWAP2 POP POP DUP4 DUP2 GT ISZERO PUSH2 0x4FA6 JUMPI PUSH1 0x0 PUSH2 0x4ED8 DUP6 DUP4 PUSH2 0x5DFB JUMP JUMPDEST PUSH1 0x1 DUP5 ADD SLOAD SWAP1 SWAP2 POP DUP9 SWAP1 DUP2 GT ISZERO PUSH2 0x4EF0 JUMPI POP PUSH1 0x1 DUP4 ADD SLOAD JUMPDEST PUSH1 0x0 PUSH1 0x64 PUSH2 0x4EFE DUP5 DUP5 PUSH2 0x5D46 JUMP JUMPDEST PUSH2 0x4F08 SWAP2 SWAP1 PUSH2 0x5D70 JUMP JUMPDEST PUSH1 0x0 DUP11 DUP2 MSTORE PUSH1 0x13 PUSH1 0x20 SWAP1 DUP2 MSTORE PUSH1 0x40 DUP1 DUP4 KECCAK256 DUP2 MLOAD DUP1 DUP4 ADD DUP4 MSTORE PUSH1 0x1 PUSH1 0x1 PUSH1 0xA0 SHL SUB DUP15 DUP2 AND DUP1 DUP4 MSTORE DUP3 DUP7 ADD DUP9 DUP2 MSTORE DUP5 SLOAD PUSH1 0x1 DUP1 DUP3 ADD DUP8 SSTORE SWAP6 DUP10 MSTORE SWAP8 DUP8 SWAP1 KECCAK256 SWAP4 MLOAD PUSH1 0x2 SWAP1 SWAP9 MUL SWAP1 SWAP4 ADD DUP1 SLOAD PUSH1 0x1 PUSH1 0x1 PUSH1 0xA0 SHL SUB NOT AND SWAP8 SWAP1 SWAP3 AND SWAP7 SWAP1 SWAP7 OR DUP2 SSTORE SWAP1 MLOAD SWAP2 ADD SSTORE MLOAD DUP4 DUP2 MSTORE SWAP3 SWAP4 POP SWAP1 SWAP2 DUP12 SWAP2 PUSH32 0xBD5E0947444D5ADB46B3D24786F72907C1E8176CB1348960766A6CD6FAD13E9F SWAP2 ADD PUSH1 0x40 MLOAD DUP1 SWAP2 SUB SWAP1 LOG3 DUP4 SWAP7 POP POP POP POP JUMPDEST PUSH1 0x2D DUP2 LT PUSH2 0x4FB5 JUMPI POP POP PUSH2 0x4889 JUMP JUMPDEST PUSH1 0x1 PUSH1 0x1 PUSH1 0xA0 SHL SUB SWAP5 DUP6 AND PUSH1 0x0 SWAP1 DUP2 MSTORE PUSH1 0xF PUSH1 0x20 MSTORE PUSH1 0x40 SWAP1 KECCAK256 SLOAD SWAP1 SWAP5 AND SWAP4 DUP3 PUSH2 0x4FDD DUP2 PUSH2 0x5E8A JUMP JUMPDEST SWAP4 POP POP POP POP PUSH2 0x4DC9 JUMP JUMPDEST DUP1 PUSH1 0x0 SUB PUSH2 0x4FF2 JUMPI POP JUMP JUMPDEST PUSH1 0x17 SLOAD ISZERO DUP1 PUSH2 0x5001 JUMPI POP PUSH1 0x18 SLOAD ISZERO JUMPDEST ISZERO PUSH2 0x5009 JUMPI POP JUMP JUMPDEST DUP1 PUSH1 0x17 SLOAD PUSH2 0x5017 SWAP2 SWAP1 PUSH2 0x5D5D JUMP JUMPDEST PUSH1 0x0 SLOAD PUSH1 0x40 MLOAD PUSH4 0x70A08231 PUSH1 0xE0 SHL DUP2 MSTORE PUSH1 0x1 PUSH1 0x1 PUSH1 0xA0 SHL SUB SWAP1 SWAP2 AND SWAP1 PUSH4 0x70A08231 SWAP1 PUSH2 0x5047 SWAP1 ADDRESS SWAP1 PUSH1 0x4 ADD PUSH2 0x57FA JUMP JUMPDEST PUSH1 0x20 PUSH1 0x40 MLOAD DUP1 DUP4 SUB DUP2 DUP7 GAS STATICCALL ISZERO DUP1 ISZERO PUSH2 0x5064 JUMPI RETURNDATASIZE PUSH1 0x0 DUP1 RETURNDATACOPY RETURNDATASIZE PUSH1 0x0 REVERT JUMPDEST POP POP POP POP PUSH1 0x40 MLOAD RETURNDATASIZE PUSH1 0x1F NOT PUSH1 0x1F DUP3 ADD AND DUP3 ADD DUP1 PUSH1 0x40 MSTORE POP DUP2 ADD SWAP1 PUSH2 0x5088 SWAP2 SWAP1 PUSH2 0x5E0E JUMP JUMPDEST LT ISZERO PUSH2 0x5091 JUMPI POP JUMP JUMPDEST PUSH1 0x0 PUSH2 0x50A2 DUP3 PUSH1 0x17 SLOAD PUSH1 0x18 SLOAD PUSH2 0xDD5 JUMP JUMPDEST SWAP1 POP DUP1 ISZERO DUP1 PUSH2 0x50B2 JUMPI POP PUSH1 0x18 SLOAD DUP2 GT JUMPDEST ISZERO PUSH2 0x50BB JUMPI POP POP JUMP JUMPDEST PUSH1 0x18 SLOAD PUSH1 0x1 SLOAD PUSH1 0x40 MLOAD PUSH4 0x70A08231 PUSH1 0xE0 SHL DUP2 MSTORE PUSH1 0x1 PUSH1 0x1 PUSH1 0xA0 SHL SUB SWAP1 SWAP2 AND SWAP1 PUSH4 0x70A08231 SWAP1 PUSH2 0x50EE SWAP1 ADDRESS SWAP1 PUSH1 0x4 ADD PUSH2 0x57FA JUMP JUMPDEST PUSH1 0x20 PUSH1 0x40 MLOAD DUP1 DUP4 SUB DUP2 DUP7 GAS STATICCALL ISZERO DUP1 ISZERO PUSH2 0x510B JUMPI RETURNDATASIZE PUSH1 0x0 DUP1 RETURNDATACOPY RETURNDATASIZE PUSH1 0x0 REVERT JUMPDEST POP POP POP POP PUSH1 0x40 MLOAD RETURNDATASIZE PUSH1 0x1F NOT PUSH1 0x1F DUP3 ADD AND DUP3 ADD DUP1 PUSH1 0x40 MSTORE POP DUP2 ADD SWAP1 PUSH2 0x512F SWAP2 SWAP1 PUSH2 0x5E0E JUMP JUMPDEST LT ISZERO PUSH2 0x5139 JUMPI POP POP JUMP JUMPDEST DUP2 PUSH1 0x17 PUSH1 0x0 DUP3 DUP3 SLOAD PUSH2 0x514B SWAP2 SWAP1 PUSH2 0x5D5D JUMP JUMPDEST SWAP3 POP POP DUP2 SWAP1 SSTORE POP DUP1 PUSH1 0x18 PUSH1 0x0 DUP3 DUP3 SLOAD PUSH2 0x5164 SWAP2 SWAP1 PUSH2 0x5DFB JUMP JUMPDEST SWAP1 SWAP2 SSTORE POP POP PUSH1 0x1 SLOAD PUSH1 0x40 MLOAD PUSH4 0x852CD8D PUSH1 0xE3 SHL DUP2 MSTORE PUSH1 0x4 DUP2 ADD DUP4 SWAP1 MSTORE PUSH1 0x1 PUSH1 0x1 PUSH1 0xA0 SHL SUB SWAP1 SWAP2 AND SWAP1 PUSH4 0x42966C68 SWAP1 PUSH1 0x24 ADD PUSH1 0x0 PUSH1 0x40 MLOAD DUP1 DUP4 SUB DUP2 PUSH1 0x0 DUP8 DUP1 EXTCODESIZE ISZERO DUP1 ISZERO PUSH2 0x51AF JUMPI PUSH1 0x0 DUP1 REVERT JUMPDEST POP GAS CALL ISZERO DUP1 ISZERO PUSH2 0x51C3 JUMPI RETURNDATASIZE PUSH1 0x0 DUP1 RETURNDATACOPY RETURNDATASIZE PUSH1 0x0 REVERT JUMPDEST POP POP POP POP PUSH1 0x0 DUP1 MLOAD PUSH1 0x20 PUSH2 0x5FA4 DUP4 CODECOPY DUP2 MLOAD SWAP2 MSTORE DUP3 DUP3 PUSH1 0x40 MLOAD PUSH2 0x2E9B SWAP3 SWAP2 SWAP1 PUSH2 0x5AA0 JUMP JUMPDEST PUSH1 0x0 PUSH2 0x51F0 PUSH2 0x5242 JUMP JUMPDEST DUP1 SLOAD PUSH1 0x1 PUSH1 0x1 PUSH1 0xA0 SHL SUB DUP5 DUP2 AND PUSH1 0x1 PUSH1 0x1 PUSH1 0xA0 SHL SUB NOT DUP4 AND DUP2 OR DUP5 SSTORE PUSH1 0x40 MLOAD SWAP4 SWAP5 POP SWAP2 AND SWAP2 DUP3 SWAP1 PUSH32 0x8BE0079C531659141344CD1FD0A4F28419497F9722A3DAAFE3B4186F6B6457E0 SWAP1 PUSH1 0x0 SWAP1 LOG3 POP POP POP JUMP JUMPDEST PUSH32 0x9016D09D72D40FDAE2FD8CEAC6B6234C7706214FD39C1CD1E609A0528C199300 SWAP1 JUMP JUMPDEST PUSH1 0x0 DUP2 DUP2 MSTORE PUSH1 0x1C PUSH1 0x20 SWAP1 DUP2 MSTORE PUSH1 0x40 DUP1 DUP4 KECCAK256 SLOAD PUSH1 0x13 DUP4 MSTORE DUP2 DUP5 KECCAK256 DUP1 SLOAD DUP4 MLOAD DUP2 DUP7 MUL DUP2 ADD DUP7 ADD SWAP1 SWAP5 MSTORE DUP1 DUP5 MSTORE PUSH1 0x1 PUSH1 0x1 PUSH1 0xA0 SHL SUB SWAP1 SWAP3 AND SWAP5 SWAP4 SWAP1 SWAP2 SWAP1 DUP5 SWAP1 DUP5 ADD JUMPDEST DUP3 DUP3 LT ISZERO PUSH2 0x52ED JUMPI PUSH1 0x0 DUP5 DUP2 MSTORE PUSH1 0x20 SWAP1 DUP2 SWAP1 KECCAK256 PUSH1 0x40 DUP1 MLOAD DUP1 DUP3 ADD SWAP1 SWAP2 MSTORE PUSH1 0x2 DUP6 MUL SWAP1 SWAP2 ADD DUP1 SLOAD PUSH1 0x1 PUSH1 0x1 PUSH1 0xA0 SHL SUB AND DUP3 MSTORE PUSH1 0x1 SWAP1 DUP2 ADD SLOAD DUP3 DUP5 ADD MSTORE SWAP1 DUP4 MSTORE SWAP1 SWAP3 ADD SWAP2 ADD PUSH2 0x52A5 JUMP JUMPDEST POP POP POP POP SWAP1 POP PUSH1 0x0 JUMPDEST DUP2 MLOAD DUP2 LT ISZERO PUSH2 0x5415 JUMPI PUSH1 0x0 PUSH2 0x5347 DUP4 DUP4 DUP2 MLOAD DUP2 LT PUSH2 0x5316 JUMPI PUSH2 0x5316 PUSH2 0x5E27 JUMP JUMPDEST PUSH1 0x20 MUL PUSH1 0x20 ADD ADD MLOAD PUSH1 0x0 ADD MLOAD DUP5 DUP5 DUP2 MLOAD DUP2 LT PUSH2 0x5334 JUMPI PUSH2 0x5334 PUSH2 0x5E27 JUMP JUMPDEST PUSH1 0x20 MUL PUSH1 0x20 ADD ADD MLOAD PUSH1 0x20 ADD MLOAD PUSH1 0x3 PUSH2 0x4C12 JUMP JUMPDEST SWAP1 POP DUP1 ISZERO PUSH2 0x53AB JUMPI DUP4 PUSH1 0x1 PUSH1 0x1 PUSH1 0xA0 SHL SUB AND DUP4 DUP4 DUP2 MLOAD DUP2 LT PUSH2 0x536B JUMPI PUSH2 0x536B PUSH2 0x5E27 JUMP JUMPDEST PUSH1 0x20 MUL PUSH1 0x20 ADD ADD MLOAD PUSH1 0x0 ADD MLOAD PUSH1 0x1 PUSH1 0x1 PUSH1 0xA0 SHL SUB AND PUSH1 0x0 DUP1 MLOAD PUSH1 0x20 PUSH2 0x5F24 DUP4 CODECOPY DUP2 MLOAD SWAP2 MSTORE DUP4 PUSH1 0x3 DUP10 PUSH1 0x40 MLOAD PUSH2 0x53A2 SWAP4 SWAP3 SWAP2 SWAP1 PUSH2 0x5EC1 JUMP JUMPDEST PUSH1 0x40 MLOAD DUP1 SWAP2 SUB SWAP1 LOG3 JUMPDEST DUP3 DUP3 DUP2 MLOAD DUP2 LT PUSH2 0x53BD JUMPI PUSH2 0x53BD PUSH2 0x5E27 JUMP JUMPDEST PUSH1 0x20 MUL PUSH1 0x20 ADD ADD MLOAD PUSH1 0x0 ADD MLOAD PUSH1 0x1 PUSH1 0x1 PUSH1 0xA0 SHL SUB AND DUP6 PUSH32 0x380D782EC118E5171A4D1E7081DB076C4C94CA49C623D531763D402B094B4F24 DUP4 PUSH1 0x40 MLOAD PUSH2 0x5404 SWAP2 DUP2 MSTORE PUSH1 0x20 ADD SWAP1 JUMP JUMPDEST PUSH1 0x40 MLOAD DUP1 SWAP2 SUB SWAP1 LOG3 POP PUSH1 0x1 ADD PUSH2 0x52F6 JUMP JUMPDEST POP PUSH1 0x0 DUP4 DUP2 MSTORE PUSH1 0x13 PUSH1 0x20 MSTORE PUSH1 0x40 DUP2 KECCAK256 PUSH2 0x22E0 SWAP2 PUSH2 0x56D5 JUMP JUMPDEST PUSH1 0x0 DUP1 PUSH32 0xF0C57E16840DF040F15088DC2F81FE391C3923BEC73E23A9662EFC9C229C6A00 PUSH2 0x468A JUMP JUMPDEST PUSH2 0x545E PUSH2 0x54F9 JUMP JUMPDEST PUSH2 0x11D3 DUP2 PUSH2 0x551E JUMP JUMPDEST PUSH2 0x546F PUSH2 0x54F9 JUMP JUMPDEST PUSH2 0x19BD PUSH2 0x5526 JUMP JUMPDEST PUSH2 0x19BD PUSH2 0x54F9 JUMP JUMPDEST PUSH32 0x9B779B17422D0DF92223018B32B4D1FA46E071723D6817E2486D003BECC55F00 SWAP1 JUMP JUMPDEST PUSH2 0x54AC DUP3 PUSH2 0x552E JUMP JUMPDEST PUSH1 0x40 MLOAD PUSH1 0x1 PUSH1 0x1 PUSH1 0xA0 SHL SUB DUP4 AND SWAP1 PUSH32 0xBC7CD75A20EE27FD9ADEBAB32041F755214DBC6BFFA90CC0225B39DA2E5C2D3B SWAP1 PUSH1 0x0 SWAP1 LOG2 DUP1 MLOAD ISZERO PUSH2 0x54F1 JUMPI PUSH2 0x22E0 DUP3 DUP3 PUSH2 0x558A JUMP JUMPDEST PUSH2 0x1EF1 PUSH2 0x5600 JUMP JUMPDEST PUSH2 0x5501 PUSH2 0x561F JUMP JUMPDEST PUSH2 0x19BD JUMPI PUSH1 0x40 MLOAD PUSH4 0x1AFCD79F PUSH1 0xE3 SHL DUP2 MSTORE PUSH1 0x4 ADD PUSH1 0x40 MLOAD DUP1 SWAP2 SUB SWAP1 REVERT JUMPDEST PUSH2 0x4287 PUSH2 0x54F9 JUMP JUMPDEST PUSH2 0x4322 PUSH2 0x54F9 JUMP JUMPDEST DUP1 PUSH1 0x1 PUSH1 0x1 PUSH1 0xA0 SHL SUB AND EXTCODESIZE PUSH1 0x0 SUB PUSH2 0x555B JUMPI DUP1 PUSH1 0x40 MLOAD PUSH4 0x4C9C8CE3 PUSH1 0xE0 SHL DUP2 MSTORE PUSH1 0x4 ADD PUSH2 0xCDD SWAP2 SWAP1 PUSH2 0x57FA JUMP JUMPDEST PUSH1 0x0 DUP1 MLOAD PUSH1 0x20 PUSH2 0x5F64 DUP4 CODECOPY DUP2 MLOAD SWAP2 MSTORE DUP1 SLOAD PUSH1 0x1 PUSH1 0x1 PUSH1 0xA0 SHL SUB NOT AND PUSH1 0x1 PUSH1 0x1 PUSH1 0xA0 SHL SUB SWAP3 SWAP1 SWAP3 AND SWAP2 SWAP1 SWAP2 OR SWAP1 SSTORE JUMP JUMPDEST PUSH1 0x60 PUSH1 0x0 DUP1 DUP5 PUSH1 0x1 PUSH1 0x1 PUSH1 0xA0 SHL SUB AND DUP5 PUSH1 0x40 MLOAD PUSH2 0x55A7 SWAP2 SWAP1 PUSH2 0x5F07 JUMP JUMPDEST PUSH1 0x0 PUSH1 0x40 MLOAD DUP1 DUP4 SUB DUP2 DUP6 GAS DELEGATECALL SWAP2 POP POP RETURNDATASIZE DUP1 PUSH1 0x0 DUP2 EQ PUSH2 0x55E2 JUMPI PUSH1 0x40 MLOAD SWAP2 POP PUSH1 0x1F NOT PUSH1 0x3F RETURNDATASIZE ADD AND DUP3 ADD PUSH1 0x40 MSTORE RETURNDATASIZE DUP3 MSTORE RETURNDATASIZE PUSH1 0x0 PUSH1 0x20 DUP5 ADD RETURNDATACOPY PUSH2 0x55E7 JUMP JUMPDEST PUSH1 0x60 SWAP2 POP JUMPDEST POP SWAP2 POP SWAP2 POP PUSH2 0x55F7 DUP6 DUP4 DUP4 PUSH2 0x5639 JUMP JUMPDEST SWAP6 SWAP5 POP POP POP POP POP JUMP JUMPDEST CALLVALUE ISZERO PUSH2 0x19BD JUMPI PUSH1 0x40 MLOAD PUSH4 0xB398979F PUSH1 0xE0 SHL DUP2 MSTORE PUSH1 0x4 ADD PUSH1 0x40 MLOAD DUP1 SWAP2 SUB SWAP1 REVERT JUMPDEST PUSH1 0x0 PUSH2 0x5629 PUSH2 0x542D JUMP JUMPDEST SLOAD PUSH1 0x1 PUSH1 0x40 SHL SWAP1 DIV PUSH1 0xFF AND SWAP2 SWAP1 POP JUMP JUMPDEST PUSH1 0x60 DUP3 PUSH2 0x564E JUMPI PUSH2 0x5649 DUP3 PUSH2 0x568C JUMP JUMPDEST PUSH2 0xEA2 JUMP JUMPDEST DUP2 MLOAD ISZERO DUP1 ISZERO PUSH2 0x5665 JUMPI POP PUSH1 0x1 PUSH1 0x1 PUSH1 0xA0 SHL SUB DUP5 AND EXTCODESIZE ISZERO JUMPDEST ISZERO PUSH2 0x5685 JUMPI DUP4 PUSH1 0x40 MLOAD PUSH4 0x9996B315 PUSH1 0xE0 SHL DUP2 MSTORE PUSH1 0x4 ADD PUSH2 0xCDD SWAP2 SWAP1 PUSH2 0x57FA JUMP JUMPDEST POP DUP1 PUSH2 0xEA2 JUMP JUMPDEST DUP1 MLOAD ISZERO PUSH2 0x569B JUMPI DUP1 MLOAD PUSH1 0x20 DUP3 ADD REVERT JUMPDEST PUSH1 0x40 MLOAD PUSH4 0xD6BDA275 PUSH1 0xE0 SHL DUP2 MSTORE PUSH1 0x4 ADD PUSH1 0x40 MLOAD DUP1 SWAP2 SUB SWAP1 REVERT JUMPDEST POP DUP1 SLOAD PUSH1 0x0 DUP3 SSTORE PUSH1 0x3 MUL SWAP1 PUSH1 0x0 MSTORE PUSH1 0x20 PUSH1 0x0 KECCAK256 SWAP1 DUP2 ADD SWAP1 PUSH2 0x11D3 SWAP2 SWAP1 PUSH2 0x56F6 JUMP JUMPDEST POP DUP1 SLOAD PUSH1 0x0 DUP3 SSTORE PUSH1 0x2 MUL SWAP1 PUSH1 0x0 MSTORE PUSH1 0x20 PUSH1 0x0 KECCAK256 SWAP1 DUP2 ADD SWAP1 PUSH2 0x11D3 SWAP2 SWAP1 PUSH2 0x571C JUMP JUMPDEST JUMPDEST DUP1 DUP3 GT ISZERO PUSH2 0x5718 JUMPI PUSH1 0x0 DUP1 DUP3 SSTORE PUSH1 0x1 DUP3 ADD DUP2 SWAP1 SSTORE PUSH1 0x2 DUP3 ADD SSTORE PUSH1 0x3 ADD PUSH2 0x56F7 JUMP JUMPDEST POP SWAP1 JUMP JUMPDEST JUMPDEST DUP1 DUP3 GT ISZERO PUSH2 0x5718 JUMPI DUP1 SLOAD PUSH1 0x1 PUSH1 0x1 PUSH1 0xA0 SHL SUB NOT AND DUP2 SSTORE PUSH1 0x0 PUSH1 0x1 DUP3 ADD SSTORE PUSH1 0x2 ADD PUSH2 0x571D JUMP JUMPDEST DUP1 ISZERO ISZERO DUP2 EQ PUSH2 0x11D3 JUMPI PUSH1 0x0 DUP1 REVERT JUMPDEST PUSH1 0x0 PUSH1 0x20 DUP3 DUP5 SUB SLT ISZERO PUSH2 0x5762 JUMPI PUSH1 0x0 DUP1 REVERT JUMPDEST DUP2 CALLDATALOAD PUSH2 0xEA2 DUP2 PUSH2 0x5742 JUMP JUMPDEST DUP1 CALLDATALOAD PUSH1 0x1 PUSH1 0x1 PUSH1 0xA0 SHL SUB DUP2 AND DUP2 EQ PUSH2 0x5784 JUMPI PUSH1 0x0 DUP1 REVERT JUMPDEST SWAP2 SWAP1 POP JUMP JUMPDEST PUSH1 0x0 PUSH1 0x20 DUP3 DUP5 SUB SLT ISZERO PUSH2 0x579B JUMPI PUSH1 0x0 DUP1 REVERT JUMPDEST PUSH2 0xEA2 DUP3 PUSH2 0x576D JUMP JUMPDEST PUSH1 0x0 DUP1 PUSH1 0x0 PUSH1 0x60 DUP5 DUP7 SUB SLT ISZERO PUSH2 0x57B9 JUMPI PUSH1 0x0 DUP1 REVERT JUMPDEST POP POP DUP2 CALLDATALOAD SWAP4 PUSH1 0x20 DUP4 ADD CALLDATALOAD SWAP4 POP PUSH1 0x40 SWAP1 SWAP3 ADD CALLDATALOAD SWAP2 SWAP1 POP JUMP JUMPDEST PUSH1 0x0 DUP1 PUSH1 0x40 DUP4 DUP6 SUB SLT ISZERO PUSH2 0x57E3 JUMPI PUSH1 0x0 DUP1 REVERT JUMPDEST PUSH2 0x57EC DUP4 PUSH2 0x576D JUMP JUMPDEST SWAP5 PUSH1 0x20 SWAP4 SWAP1 SWAP4 ADD CALLDATALOAD SWAP4 POP POP POP JUMP JUMPDEST PUSH1 0x1 PUSH1 0x1 PUSH1 0xA0 SHL SUB SWAP2 SWAP1 SWAP2 AND DUP2 MSTORE PUSH1 0x20 ADD SWAP1 JUMP JUMPDEST PUSH1 0x0 PUSH1 0x20 DUP3 DUP5 SUB SLT ISZERO PUSH2 0x5820 JUMPI PUSH1 0x0 DUP1 REVERT JUMPDEST POP CALLDATALOAD SWAP2 SWAP1 POP JUMP JUMPDEST PUSH1 0x20 DUP1 DUP3 MSTORE DUP3 MLOAD DUP3 DUP3 ADD DUP2 SWAP1 MSTORE PUSH1 0x0 SWAP2 SWAP1 PUSH1 0x40 SWAP1 DUP2 DUP6 ADD SWAP1 DUP7 DUP5 ADD DUP6 JUMPDEST DUP3 DUP2 LT ISZERO PUSH2 0x587C JUMPI DUP2 MLOAD DUP1 MLOAD PUSH1 0x1 PUSH1 0x1 PUSH1 0xA0 SHL SUB AND DUP6 MSTORE DUP7 DUP2 ADD MLOAD DUP8 DUP7 ADD MSTORE DUP6 ADD MLOAD DUP6 DUP6 ADD MSTORE PUSH1 0x60 SWAP1 SWAP4 ADD SWAP3 SWAP1 DUP6 ADD SWAP1 PUSH1 0x1 ADD PUSH2 0x5844 JUMP JUMPDEST POP SWAP2 SWAP8 SWAP7 POP POP POP POP POP POP POP JUMP JUMPDEST SWAP3 DUP4 MSTORE PUSH1 0x20 DUP4 ADD SWAP2 SWAP1 SWAP2 MSTORE PUSH1 0x40 DUP3 ADD MSTORE PUSH1 0x60 ADD SWAP1 JUMP JUMPDEST PUSH1 0x0 DUP1 PUSH1 0x40 DUP4 DUP6 SUB SLT ISZERO PUSH2 0x58B2 JUMPI PUSH1 0x0 DUP1 REVERT JUMPDEST POP POP DUP1 CALLDATALOAD SWAP3 PUSH1 0x20 SWAP1 SWAP2 ADD CALLDATALOAD SWAP2 POP JUMP JUMPDEST PUSH4 0x4E487B71 PUSH1 0xE0 SHL PUSH1 0x0 MSTORE PUSH1 0x41 PUSH1 0x4 MSTORE PUSH1 0x24 PUSH1 0x0 REVERT JUMPDEST PUSH1 0x40 MLOAD PUSH1 0x60 DUP2 ADD PUSH1 0x1 PUSH1 0x1 PUSH1 0x40 SHL SUB DUP2 GT DUP3 DUP3 LT OR ISZERO PUSH2 0x58F9 JUMPI PUSH2 0x58F9 PUSH2 0x58C1 JUMP JUMPDEST PUSH1 0x40 MSTORE SWAP1 JUMP JUMPDEST PUSH1 0x40 MLOAD PUSH1 0x1F DUP3 ADD PUSH1 0x1F NOT AND DUP2 ADD PUSH1 0x1 PUSH1 0x1 PUSH1 0x40 SHL SUB DUP2 GT DUP3 DUP3 LT OR ISZERO PUSH2 0x5927 JUMPI PUSH2 0x5927 PUSH2 0x58C1 JUMP JUMPDEST PUSH1 0x40 MSTORE SWAP2 SWAP1 POP JUMP JUMPDEST PUSH1 0x0 DUP1 PUSH1 0x40 DUP4 DUP6 SUB SLT ISZERO PUSH2 0x5942 JUMPI PUSH1 0x0 DUP1 REVERT JUMPDEST PUSH2 0x594B DUP4 PUSH2 0x576D JUMP JUMPDEST SWAP2 POP PUSH1 0x20 DUP4 DUP2 ADD CALLDATALOAD PUSH1 0x1 PUSH1 0x1 PUSH1 0x40 SHL SUB DUP1 DUP3 GT ISZERO PUSH2 0x5968 JUMPI PUSH1 0x0 DUP1 REVERT JUMPDEST DUP2 DUP7 ADD SWAP2 POP DUP7 PUSH1 0x1F DUP4 ADD SLT PUSH2 0x597C JUMPI PUSH1 0x0 DUP1 REVERT JUMPDEST DUP2 CALLDATALOAD DUP2 DUP2 GT ISZERO PUSH2 0x598E JUMPI PUSH2 0x598E PUSH2 0x58C1 JUMP JUMPDEST PUSH2 0x59A0 PUSH1 0x1F DUP3 ADD PUSH1 0x1F NOT AND DUP6 ADD PUSH2 0x58FF JUMP JUMPDEST SWAP2 POP DUP1 DUP3 MSTORE DUP8 DUP5 DUP3 DUP6 ADD ADD GT ISZERO PUSH2 0x59B6 JUMPI PUSH1 0x0 DUP1 REVERT JUMPDEST DUP1 DUP5 DUP5 ADD DUP6 DUP5 ADD CALLDATACOPY PUSH1 0x0 DUP5 DUP3 DUP5 ADD ADD MSTORE POP DUP1 SWAP4 POP POP POP POP SWAP3 POP SWAP3 SWAP1 POP JUMP JUMPDEST PUSH1 0x0 DUP1 PUSH1 0x40 DUP4 DUP6 SUB SLT ISZERO PUSH2 0x59E7 JUMPI PUSH1 0x0 DUP1 REVERT JUMPDEST DUP3 CALLDATALOAD SWAP2 POP PUSH2 0x59F7 PUSH1 0x20 DUP5 ADD PUSH2 0x576D JUMP JUMPDEST SWAP1 POP SWAP3 POP SWAP3 SWAP1 POP JUMP JUMPDEST PUSH1 0x0 DUP1 PUSH1 0x0 PUSH1 0x60 DUP5 DUP7 SUB SLT ISZERO PUSH2 0x5A15 JUMPI PUSH1 0x0 DUP1 REVERT JUMPDEST PUSH2 0x5A1E DUP5 PUSH2 0x576D JUMP JUMPDEST SWAP6 PUSH1 0x20 DUP6 ADD CALLDATALOAD SWAP6 POP PUSH1 0x40 SWAP1 SWAP5 ADD CALLDATALOAD SWAP4 SWAP3 POP POP POP JUMP JUMPDEST PUSH1 0x1 PUSH1 0x1 PUSH1 0xA0 SHL SUB SWAP3 SWAP1 SWAP3 AND DUP3 MSTORE PUSH1 0x20 DUP3 ADD MSTORE PUSH1 0x40 ADD SWAP1 JUMP JUMPDEST PUSH1 0x0 DUP1 PUSH1 0x0 DUP1 PUSH1 0x80 DUP6 DUP8 SUB SLT ISZERO PUSH2 0x5A62 JUMPI PUSH1 0x0 DUP1 REVERT JUMPDEST PUSH2 0x5A6B DUP6 PUSH2 0x576D JUMP JUMPDEST SWAP4 POP PUSH2 0x5A79 PUSH1 0x20 DUP7 ADD PUSH2 0x576D JUMP JUMPDEST SWAP3 POP PUSH2 0x5A87 PUSH1 0x40 DUP7 ADD PUSH2 0x576D JUMP JUMPDEST SWAP2 POP PUSH2 0x5A95 PUSH1 0x60 DUP7 ADD PUSH2 0x576D JUMP JUMPDEST SWAP1 POP SWAP3 SWAP6 SWAP2 SWAP5 POP SWAP3 POP JUMP JUMPDEST SWAP2 DUP3 MSTORE PUSH1 0x20 DUP3 ADD MSTORE PUSH1 0x40 ADD SWAP1 JUMP JUMPDEST PUSH1 0x0 DUP1 PUSH1 0x40 DUP4 DUP6 SUB SLT ISZERO PUSH2 0x5AC1 JUMPI PUSH1 0x0 DUP1 REVERT JUMPDEST PUSH2 0x5ACA DUP4 PUSH2 0x576D JUMP JUMPDEST SWAP2 POP PUSH2 0x59F7 PUSH1 0x20 DUP5 ADD PUSH2 0x576D JUMP JUMPDEST PUSH1 0x0 JUMPDEST DUP4 DUP2 LT ISZERO PUSH2 0x5AF3 JUMPI DUP2 DUP2 ADD MLOAD DUP4 DUP3 ADD MSTORE PUSH1 0x20 ADD PUSH2 0x5ADB JUMP JUMPDEST POP POP PUSH1 0x0 SWAP2 ADD MSTORE JUMP JUMPDEST PUSH1 0x20 DUP2 MSTORE PUSH1 0x0 DUP3 MLOAD DUP1 PUSH1 0x20 DUP5 ADD MSTORE PUSH2 0x5B1B DUP2 PUSH1 0x40 DUP6 ADD PUSH1 0x20 DUP8 ADD PUSH2 0x5AD8 JUMP JUMPDEST PUSH1 0x1F ADD PUSH1 0x1F NOT AND SWAP2 SWAP1 SWAP2 ADD PUSH1 0x40 ADD SWAP3 SWAP2 POP POP JUMP JUMPDEST PUSH1 0x0 PUSH1 0x20 DUP1 DUP4 DUP6 SUB SLT ISZERO PUSH2 0x5B42 JUMPI PUSH1 0x0 DUP1 REVERT JUMPDEST DUP3 CALLDATALOAD PUSH1 0x1 PUSH1 0x1 PUSH1 0x40 SHL SUB DUP1 DUP3 GT ISZERO PUSH2 0x5B59 JUMPI PUSH1 0x0 DUP1 REVERT JUMPDEST DUP2 DUP6 ADD SWAP2 POP DUP6 PUSH1 0x1F DUP4 ADD SLT PUSH2 0x5B6D JUMPI PUSH1 0x0 DUP1 REVERT JUMPDEST DUP2 CALLDATALOAD DUP2 DUP2 GT ISZERO PUSH2 0x5B7F JUMPI PUSH2 0x5B7F PUSH2 0x58C1 JUMP JUMPDEST PUSH2 0x5B8D DUP5 DUP3 PUSH1 0x5 SHL ADD PUSH2 0x58FF JUMP JUMPDEST DUP2 DUP2 MSTORE DUP5 DUP2 ADD SWAP3 POP PUSH1 0x60 SWAP2 DUP3 MUL DUP5 ADD DUP6 ADD SWAP2 DUP9 DUP4 GT ISZERO PUSH2 0x5BAC JUMPI PUSH1 0x0 DUP1 REVERT JUMPDEST SWAP4 DUP6 ADD SWAP4 JUMPDEST DUP3 DUP6 LT ISZERO PUSH2 0x5BF6 JUMPI DUP1 DUP6 DUP11 SUB SLT ISZERO PUSH2 0x5BC9 JUMPI PUSH1 0x0 DUP1 DUP2 REVERT JUMPDEST PUSH2 0x5BD1 PUSH2 0x58D7 JUMP JUMPDEST DUP6 CALLDATALOAD DUP2 MSTORE DUP7 DUP7 ADD CALLDATALOAD DUP8 DUP3 ADD MSTORE PUSH1 0x40 DUP1 DUP8 ADD CALLDATALOAD SWAP1 DUP3 ADD MSTORE DUP5 MSTORE SWAP4 DUP5 ADD SWAP4 SWAP3 DUP6 ADD SWAP3 PUSH2 0x5BB1 JUMP JUMPDEST POP SWAP8 SWAP7 POP POP POP POP POP POP POP JUMP JUMPDEST PUSH1 0x0 DUP1 PUSH1 0x0 DUP1 PUSH1 0x0 DUP1 PUSH1 0xC0 DUP8 DUP10 SUB SLT ISZERO PUSH2 0x5C1B JUMPI PUSH1 0x0 DUP1 REVERT JUMPDEST PUSH2 0x5C24 DUP8 PUSH2 0x576D JUMP JUMPDEST SWAP6 POP PUSH2 0x5C32 PUSH1 0x20 DUP9 ADD PUSH2 0x576D JUMP JUMPDEST SWAP5 POP PUSH2 0x5C40 PUSH1 0x40 DUP9 ADD PUSH2 0x576D JUMP JUMPDEST SWAP4 POP PUSH2 0x5C4E PUSH1 0x60 DUP9 ADD PUSH2 0x576D JUMP JUMPDEST SWAP3 POP PUSH2 0x5C5C PUSH1 0x80 DUP9 ADD PUSH2 0x576D JUMP JUMPDEST SWAP2 POP PUSH2 0x5C6A PUSH1 0xA0 DUP9 ADD PUSH2 0x576D JUMP JUMPDEST SWAP1 POP SWAP3 SWAP6 POP SWAP3 SWAP6 POP SWAP3 SWAP6 JUMP JUMPDEST PUSH1 0x20 DUP1 DUP3 MSTORE DUP3 MLOAD DUP3 DUP3 ADD DUP2 SWAP1 MSTORE PUSH1 0x0 SWAP2 SWAP1 DUP5 DUP3 ADD SWAP1 PUSH1 0x40 DUP6 ADD SWAP1 DUP5 JUMPDEST DUP2 DUP2 LT ISZERO PUSH2 0x5CB7 JUMPI DUP4 MLOAD PUSH1 0x1 PUSH1 0x1 PUSH1 0xA0 SHL SUB AND DUP4 MSTORE SWAP3 DUP5 ADD SWAP3 SWAP2 DUP5 ADD SWAP2 PUSH1 0x1 ADD PUSH2 0x5C92 JUMP JUMPDEST POP SWAP1 SWAP7 SWAP6 POP POP POP POP POP POP JUMP JUMPDEST PUSH1 0x0 DUP1 PUSH1 0x0 DUP1 PUSH1 0x0 DUP1 PUSH1 0xC0 DUP8 DUP10 SUB SLT ISZERO PUSH2 0x5CDC JUMPI PUSH1 0x0 DUP1 REVERT JUMPDEST POP POP DUP5 CALLDATALOAD SWAP7 PUSH1 0x20 DUP7 ADD CALLDATALOAD SWAP7 POP PUSH1 0x40 DUP7 ADD CALLDATALOAD SWAP6 PUSH1 0x60 DUP2 ADD CALLDATALOAD SWAP6 POP PUSH1 0x80 DUP2 ADD CALLDATALOAD SWAP5 POP PUSH1 0xA0 ADD CALLDATALOAD SWAP3 POP SWAP1 POP JUMP JUMPDEST PUSH1 0x20 DUP1 DUP3 MSTORE PUSH1 0x10 SWAP1 DUP3 ADD MSTORE PUSH16 0x21B0B73737BA103134B7321039B2B633 PUSH1 0x81 SHL PUSH1 0x40 DUP3 ADD MSTORE PUSH1 0x60 ADD SWAP1 JUMP JUMPDEST PUSH4 0x4E487B71 PUSH1 0xE0 SHL PUSH1 0x0 MSTORE PUSH1 0x11 PUSH1 0x4 MSTORE PUSH1 0x24 PUSH1 0x0 REVERT JUMPDEST DUP1 DUP3 MUL DUP2 ISZERO DUP3 DUP3 DIV DUP5 EQ OR PUSH2 0x468A JUMPI PUSH2 0x468A PUSH2 0x5D30 JUMP JUMPDEST DUP1 DUP3 ADD DUP1 DUP3 GT ISZERO PUSH2 0x468A JUMPI PUSH2 0x468A PUSH2 0x5D30 JUMP JUMPDEST PUSH1 0x0 DUP3 PUSH2 0x5D8D JUMPI PUSH4 0x4E487B71 PUSH1 0xE0 SHL PUSH1 0x0 MSTORE PUSH1 0x12 PUSH1 0x4 MSTORE PUSH1 0x24 PUSH1 0x0 REVERT JUMPDEST POP DIV SWAP1 JUMP JUMPDEST PUSH1 0x20 DUP1 DUP3 MSTORE PUSH1 0xE SWAP1 DUP3 ADD MSTORE PUSH14 0x125B9D985B1A5908185B5BDD5B9D PUSH1 0x92 SHL PUSH1 0x40 DUP3 ADD MSTORE PUSH1 0x60 ADD SWAP1 JUMP JUMPDEST PUSH1 0x1 PUSH1 0x1 PUSH1 0xA0 SHL SUB SWAP4 DUP5 AND DUP2 MSTORE SWAP2 SWAP1 SWAP3 AND PUSH1 0x20 DUP3 ADD MSTORE PUSH1 0x40 DUP2 ADD SWAP2 SWAP1 SWAP2 MSTORE PUSH1 0x60 ADD SWAP1 JUMP JUMPDEST PUSH1 0x0 PUSH1 0x20 DUP3 DUP5 SUB SLT ISZERO PUSH2 0x5DF0 JUMPI PUSH1 0x0 DUP1 REVERT JUMPDEST DUP2 MLOAD PUSH2 0xEA2 DUP2 PUSH2 0x5742 JUMP JUMPDEST DUP2 DUP2 SUB DUP2 DUP2 GT ISZERO PUSH2 0x468A JUMPI PUSH2 0x468A PUSH2 0x5D30 JUMP JUMPDEST PUSH1 0x0 PUSH1 0x20 DUP3 DUP5 SUB SLT ISZERO PUSH2 0x5E20 JUMPI PUSH1 0x0 DUP1 REVERT JUMPDEST POP MLOAD SWAP2 SWAP1 POP JUMP JUMPDEST PUSH4 0x4E487B71 PUSH1 0xE0 SHL PUSH1 0x0 MSTORE PUSH1 0x32 PUSH1 0x4 MSTORE PUSH1 0x24 PUSH1 0x0 REVERT JUMPDEST SWAP2 DUP3 MSTORE PUSH1 0xFF AND PUSH1 0x20 DUP3 ADD MSTORE PUSH1 0x40 ADD SWAP1 JUMP JUMPDEST SWAP4 DUP5 MSTORE PUSH1 0x20 DUP5 ADD SWAP3 SWAP1 SWAP3 MSTORE PUSH1 0xFF AND PUSH1 0x40 DUP4 ADD MSTORE PUSH1 0x60 DUP3 ADD MSTORE PUSH1 0x80 ADD SWAP1 JUMP JUMPDEST PUSH1 0x20 DUP1 DUP3 MSTORE PUSH1 0x4 SWAP1 DUP3 ADD MSTORE PUSH4 0x5A65726F PUSH1 0xE0 SHL PUSH1 0x40 DUP3 ADD MSTORE PUSH1 0x60 ADD SWAP1 JUMP JUMPDEST PUSH1 0x0 PUSH1 0x1 DUP3 ADD PUSH2 0x5E9C JUMPI PUSH2 0x5E9C PUSH2 0x5D30 JUMP JUMPDEST POP PUSH1 0x1 ADD SWAP1 JUMP JUMPDEST PUSH1 0x20 DUP1 DUP3 MSTORE PUSH1 0x4 SWAP1 DUP3 ADD MSTORE PUSH4 0x27BB32B9 PUSH1 0xE1 SHL PUSH1 0x40 DUP3 ADD MSTORE PUSH1 0x60 ADD SWAP1 JUMP JUMPDEST SWAP3 DUP4 MSTORE PUSH1 0xFF SWAP2 SWAP1 SWAP2 AND PUSH1 0x20 DUP4 ADD MSTORE PUSH1 0x40 DUP3 ADD MSTORE PUSH1 0x60 ADD SWAP1 JUMP JUMPDEST PUSH4 0x4E487B71 PUSH1 0xE0 SHL PUSH1 0x0 MSTORE PUSH1 0x31 PUSH1 0x4 MSTORE PUSH1 0x24 PUSH1 0x0 REVERT JUMPDEST PUSH1 0x0 DUP2 PUSH2 0x5EFF JUMPI PUSH2 0x5EFF PUSH2 0x5D30 JUMP JUMPDEST POP PUSH1 0x0 NOT ADD SWAP1 JUMP JUMPDEST PUSH1 0x0 DUP3 MLOAD PUSH2 0x5F19 DUP2 DUP5 PUSH1 0x20 DUP8 ADD PUSH2 0x5AD8 JUMP JUMPDEST SWAP2 SWAP1 SWAP2 ADD SWAP3 SWAP2 POP POP JUMP INVALID SWAP12 EXTCODECOPY 0xC7 EQ DUP3 LOG1 0xB2 0xEE 0xBE PUSH23 0x4A739F46F1FE99291FD0183BE81951532B29D0C9C8DA6F 0xCE 0xBD EXP 0x2C 0xE9 DUP12 0x28 0xCB CODECOPY SAR PUSH1 0x8 0xBB 0xC7 PUSH10 0x378C9A4919628E11639C 0xB5 PUSH22 0xCD320FCC360894A13BA1A3210667C828492DB98DCA3E KECCAK256 PUSH23 0xCC3735A920A3CA505D382BBCB5987AAB1AFD379F6695F1 MOD DUP9 PUSH10 0xEE8CA6A0D02304C57935 0xA9 0xCC RETURNDATASIZE RETURNDATACOPY LOG2 0xE5 0x1E 0x4D 0xE 0xC3 SWAP3 SWAP1 PUSH2 0xCBBB 0xEE 0xCB ORIGIN JUMP 0x23 0xE7 0xD5 0xA8 PUSH13 0x3DAE11CB8A22CA45DC09729556 JUMPI 0xDA 0x25 RETURN DUP2 PC BALANCE GASLIMIT 0xE9 SIGNEXTEND DUP3 0xCC 0x5E MSTORE SWAP12 DELEGATECALL 0xFC 0x4D 0xE PREVRANDAO CODECOPY PUSH18 0x74CDF145C4251AC33EF195A424F3A670CD3A 0xF7 0xD6 0x4B BASEFEE DUP10 0x26 DUP9 ADDMOD DUP10 0xD0 DUP11 DUP6 DUP6 LOG1 CODESIZE SELFDESTRUCT GASLIMIT MSTORE 0x27 0xAF PUSH8 0x37339A1EC262A264 PUSH10 0x706673582212209B3E07 PUSH3 0x786438 LOG2 PUSH5 0x980AF09C55 SSTORE PUSH21 0x43AF7E36E1F7CBA86061F99CE4C964A264736F6C63 NUMBER STOP ADDMOD AND STOP CALLER "},"methodIdentifiers":{"REWARD_DIRECT()":"0e2be210","REWARD_DYNAMIC()":"8a859a85","REWARD_LEVEL()":"8c0eaa48","REWARD_STATIC()":"1427f616","SECONDS_IN_UNIT()":"488b5d97","UPGRADE_INTERFACE_VERSION()":"ad3cb1cc","addLiquidity(uint256,uint256)":"9cd441da","adminSetReferrer(address,address)":"a2af9226","adminSetUserStats(address,uint256,uint256)":"6fb3c47c","adminWithdrawJBC(uint256,address)":"62eea914","adminWithdrawMC(uint256,address)":"d241e001","bindReferrer(address)":"04f618cb","buyTicket(uint256)":"67dd74ca","buybackPercent()":"e4412f68","buybackWallet()":"deab8aea","claimRewards()":"372500ab","dailyBurn()":"81eeef5c","directReferrals(address,uint256)":"05ad3935","directRewardPercent()":"ccf61944","expireMyTicket()":"98b8972f","getAmountOut(uint256,uint256,uint256)":"054d50d4","getDirectReferrals(address)":"d2c8e0e5","getDirectReferralsData(address)":"0fc4fc1a","getJBCPrice()":"3a3ea2f0","getLevel(uint256)":"86481d40","initialize(address,address,address,address,address,address)":"cc2a9a5b","jbcToken()":"1788513c","lastBurnTime()":"e3067449","levelConfigs(uint256)":"21f483d3","levelRewardPercent()":"bd594dcf","liquidityEnabled()":"b048a4bb","lpInjectionPercent()":"ceaa366d","lpInjectionWallet()":"88fd4d33","marketingPercent()":"d8020a18","marketingWallet()":"75f0a874","mcToken()":"95253992","nextStakeId()":"75506c96","nextTicketId()":"6031a52f","owner()":"8da5cb5b","proxiableUUID()":"52d1902d","redeem()":"be040fb0","redeemEnabled()":"d2f82536","redemptionFeePercent()":"dec7fa3b","renounceOwnership()":"715018a6","setDistributionPercents(uint256,uint256,uint256,uint256,uint256,uint256)":"ecda2d32","setLevelConfigs((uint256,uint256,uint256)[])":"be574799","setLiquidityEnabled(bool)":"480937de","setRedeemEnabled(bool)":"021d2893","setRedemptionFee(uint256)":"7dbc1df0","setSwapTaxes(uint256,uint256)":"90b0eb51","setTicketFlexibilityDuration(uint256)":"9d99eca4","setWallets(address,address,address,address)":"83672f3e","stakeLiquidity(uint256,uint256)":"4ea4c6b3","swapBuyTax()":"27f082f4","swapJBCToMC(uint256)":"52778b05","swapMCToJBC(uint256)":"0a5c4567","swapReserveJBC()":"1d0dac76","swapReserveMC()":"77a2a540","swapSellTax()":"9370b080","ticketFlexibilityDuration()":"6dd66827","ticketOwner(uint256)":"c2ff12fc","ticketPendingRewards(uint256,uint256)":"813380cd","transferOwnership(address)":"f2fde38b","treasuryPercent()":"04ef9d58","treasuryWallet()":"4626402b","upgradeToAndCall(address,bytes)":"4f1ef286","userInfo(address)":"1959a002","userStakes(address,uint256)":"b5d5b5fa","userTicket(address)":"8710bcaa"}},"storageLayout":{"storage":[{"astId":2768,"contract":"contracts/JinbaoProtocol.sol:JinbaoProtocol","label":"mcToken","offset":0,"slot":"0","type":"t_contract(IERC20)2032"},{"astId":2771,"contract":"contracts/JinbaoProtocol.sol:JinbaoProtocol","label":"jbcToken","offset":0,"slot":"1","type":"t_contract(IJBC)2701"},{"astId":2773,"contract":"contracts/JinbaoProtocol.sol:JinbaoProtocol","label":"marketingWallet","offset":0,"slot":"2","type":"t_address"},{"astId":2775,"contract":"contracts/JinbaoProtocol.sol:JinbaoProtocol","label":"treasuryWallet","offset":0,"slot":"3","type":"t_address"},{"astId":2777,"contract":"contracts/JinbaoProtocol.sol:JinbaoProtocol","label":"lpInjectionWallet","offset":0,"slot":"4","type":"t_address"},{"astId":2779,"contract":"contracts/JinbaoProtocol.sol:JinbaoProtocol","label":"buybackWallet","offset":0,"slot":"5","type":"t_address"},{"astId":2784,"contract":"contracts/JinbaoProtocol.sol:JinbaoProtocol","label":"directRewardPercent","offset":0,"slot":"6","type":"t_uint256"},{"astId":2786,"contract":"contracts/JinbaoProtocol.sol:JinbaoProtocol","label":"levelRewardPercent","offset":0,"slot":"7","type":"t_uint256"},{"astId":2788,"contract":"contracts/JinbaoProtocol.sol:JinbaoProtocol","label":"marketingPercent","offset":0,"slot":"8","type":"t_uint256"},{"astId":2790,"contract":"contracts/JinbaoProtocol.sol:JinbaoProtocol","label":"buybackPercent","offset":0,"slot":"9","type":"t_uint256"},{"astId":2792,"contract":"contracts/JinbaoProtocol.sol:JinbaoProtocol","label":"lpInjectionPercent","offset":0,"slot":"10","type":"t_uint256"},{"astId":2794,"contract":"contracts/JinbaoProtocol.sol:JinbaoProtocol","label":"treasuryPercent","offset":0,"slot":"11","type":"t_uint256"},{"astId":2796,"contract":"contracts/JinbaoProtocol.sol:JinbaoProtocol","label":"redemptionFeePercent","offset":0,"slot":"12","type":"t_uint256"},{"astId":2798,"contract":"contracts/JinbaoProtocol.sol:JinbaoProtocol","label":"swapBuyTax","offset":0,"slot":"13","type":"t_uint256"},{"astId":2800,"contract":"contracts/JinbaoProtocol.sol:JinbaoProtocol","label":"swapSellTax","offset":0,"slot":"14","type":"t_uint256"},{"astId":2817,"contract":"contracts/JinbaoProtocol.sol:JinbaoProtocol","label":"userInfo","offset":0,"slot":"15","type":"t_mapping(t_address,t_struct(UserInfo)2724_storage)"},{"astId":2822,"contract":"contracts/JinbaoProtocol.sol:JinbaoProtocol","label":"userTicket","offset":0,"slot":"16","type":"t_mapping(t_address,t_struct(Ticket)2746_storage)"},{"astId":2828,"contract":"contracts/JinbaoProtocol.sol:JinbaoProtocol","label":"userStakes","offset":0,"slot":"17","type":"t_mapping(t_address,t_array(t_struct(Stake)2737_storage)dyn_storage)"},{"astId":2833,"contract":"contracts/JinbaoProtocol.sol:JinbaoProtocol","label":"directReferrals","offset":0,"slot":"18","type":"t_mapping(t_address,t_array(t_address)dyn_storage)"},{"astId":2839,"contract":"contracts/JinbaoProtocol.sol:JinbaoProtocol","label":"ticketPendingRewards","offset":0,"slot":"19","type":"t_mapping(t_uint256,t_array(t_struct(PendingReward)2751_storage)dyn_storage)"},{"astId":2843,"contract":"contracts/JinbaoProtocol.sol:JinbaoProtocol","label":"levelConfigs","offset":0,"slot":"20","type":"t_array(t_struct(LevelConfig)2758_storage)dyn_storage"},{"astId":2845,"contract":"contracts/JinbaoProtocol.sol:JinbaoProtocol","label":"ticketFlexibilityDuration","offset":0,"slot":"21","type":"t_uint256"},{"astId":2847,"contract":"contracts/JinbaoProtocol.sol:JinbaoProtocol","label":"liquidityEnabled","offset":0,"slot":"22","type":"t_bool"},{"astId":2849,"contract":"contracts/JinbaoProtocol.sol:JinbaoProtocol","label":"redeemEnabled","offset":1,"slot":"22","type":"t_bool"},{"astId":2851,"contract":"contracts/JinbaoProtocol.sol:JinbaoProtocol","label":"swapReserveMC","offset":0,"slot":"23","type":"t_uint256"},{"astId":2853,"contract":"contracts/JinbaoProtocol.sol:JinbaoProtocol","label":"swapReserveJBC","offset":0,"slot":"24","type":"t_uint256"},{"astId":2855,"contract":"contracts/JinbaoProtocol.sol:JinbaoProtocol","label":"nextTicketId","offset":0,"slot":"25","type":"t_uint256"},{"astId":2857,"contract":"contracts/JinbaoProtocol.sol:JinbaoProtocol","label":"nextStakeId","offset":0,"slot":"26","type":"t_uint256"},{"astId":2859,"contract":"contracts/JinbaoProtocol.sol:JinbaoProtocol","label":"lastBurnTime","offset":0,"slot":"27","type":"t_uint256"},{"astId":2863,"contract":"contracts/JinbaoProtocol.sol:JinbaoProtocol","label":"ticketOwner","offset":0,"slot":"28","type":"t_mapping(t_uint256,t_address)"}],"types":{"t_address":{"encoding":"inplace","label":"address","numberOfBytes":"20"},"t_array(t_address)dyn_storage":{"base":"t_address","encoding":"dynamic_array","label":"address[]","numberOfBytes":"32"},"t_array(t_struct(LevelConfig)2758_storage)dyn_storage":{"base":"t_struct(LevelConfig)2758_storage","encoding":"dynamic_array","label":"struct JinbaoProtocol.LevelConfig[]","numberOfBytes":"32"},"t_array(t_struct(PendingReward)2751_storage)dyn_storage":{"base":"t_struct(PendingReward)2751_storage","encoding":"dynamic_array","label":"struct JinbaoProtocol.PendingReward[]","numberOfBytes":"32"},"t_array(t_struct(Stake)2737_storage)dyn_storage":{"base":"t_struct(Stake)2737_storage","encoding":"dynamic_array","label":"struct JinbaoProtocol.Stake[]","numberOfBytes":"32"},"t_bool":{"encoding":"inplace","label":"bool","numberOfBytes":"1"},"t_contract(IERC20)2032":{"encoding":"inplace","label":"contract IERC20","numberOfBytes":"20"},"t_contract(IJBC)2701":{"encoding":"inplace","label":"contract IJBC","numberOfBytes":"20"},"t_mapping(t_address,t_array(t_address)dyn_storage)":{"encoding":"mapping","key":"t_address","label":"mapping(address => address[])","numberOfBytes":"32","value":"t_array(t_address)dyn_storage"},"t_mapping(t_address,t_array(t_struct(Stake)2737_storage)dyn_storage)":{"encoding":"mapping","key":"t_address","label":"mapping(address => struct JinbaoProtocol.Stake[])","numberOfBytes":"32","value":"t_array(t_struct(Stake)2737_storage)dyn_storage"},"t_mapping(t_address,t_struct(Ticket)2746_storage)":{"encoding":"mapping","key":"t_address","label":"mapping(address => struct JinbaoProtocol.Ticket)","numberOfBytes":"32","value":"t_struct(Ticket)2746_storage"},"t_mapping(t_address,t_struct(UserInfo)2724_storage)":{"encoding":"mapping","key":"t_address","label":"mapping(address => struct JinbaoProtocol.UserInfo)","numberOfBytes":"32","value":"t_struct(UserInfo)2724_storage"},"t_mapping(t_uint256,t_address)":{"encoding":"mapping","key":"t_uint256","label":"mapping(uint256 => address)","numberOfBytes":"32","value":"t_address"},"t_mapping(t_uint256,t_array(t_struct(PendingReward)2751_storage)dyn_storage)":{"encoding":"mapping","key":"t_uint256","label":"mapping(uint256 => struct JinbaoProtocol.PendingReward[])","numberOfBytes":"32","value":"t_array(t_struct(PendingReward)2751_storage)dyn_storage"},"t_struct(LevelConfig)2758_storage":{"encoding":"inplace","label":"struct JinbaoProtocol.LevelConfig","members":[{"astId":2753,"contract":"contracts/JinbaoProtocol.sol:JinbaoProtocol","label":"minDirects","offset":0,"slot":"0","type":"t_uint256"},{"astId":2755,"contract":"contracts/JinbaoProtocol.sol:JinbaoProtocol","label":"level","offset":0,"slot":"1","type":"t_uint256"},{"astId":2757,"contract":"contracts/JinbaoProtocol.sol:JinbaoProtocol","label":"percent","offset":0,"slot":"2","type":"t_uint256"}],"numberOfBytes":"96"},"t_struct(PendingReward)2751_storage":{"encoding":"inplace","label":"struct JinbaoProtocol.PendingReward","members":[{"astId":2748,"contract":"contracts/JinbaoProtocol.sol:JinbaoProtocol","label":"upline","offset":0,"slot":"0","type":"t_address"},{"astId":2750,"contract":"contracts/JinbaoProtocol.sol:JinbaoProtocol","label":"amount","offset":0,"slot":"1","type":"t_uint256"}],"numberOfBytes":"64"},"t_struct(Stake)2737_storage":{"encoding":"inplace","label":"struct JinbaoProtocol.Stake","members":[{"astId":2726,"contract":"contracts/JinbaoProtocol.sol:JinbaoProtocol","label":"id","offset":0,"slot":"0","type":"t_uint256"},{"astId":2728,"contract":"contracts/JinbaoProtocol.sol:JinbaoProtocol","label":"amount","offset":0,"slot":"1","type":"t_uint256"},{"astId":2730,"contract":"contracts/JinbaoProtocol.sol:JinbaoProtocol","label":"startTime","offset":0,"slot":"2","type":"t_uint256"},{"astId":2732,"contract":"contracts/JinbaoProtocol.sol:JinbaoProtocol","label":"cycleDays","offset":0,"slot":"3","type":"t_uint256"},{"astId":2734,"contract":"contracts/JinbaoProtocol.sol:JinbaoProtocol","label":"active","offset":0,"slot":"4","type":"t_bool"},{"astId":2736,"contract":"contracts/JinbaoProtocol.sol:JinbaoProtocol","label":"paid","offset":0,"slot":"5","type":"t_uint256"}],"numberOfBytes":"192"},"t_struct(Ticket)2746_storage":{"encoding":"inplace","label":"struct JinbaoProtocol.Ticket","members":[{"astId":2739,"contract":"contracts/JinbaoProtocol.sol:JinbaoProtocol","label":"ticketId","offset":0,"slot":"0","type":"t_uint256"},{"astId":2741,"contract":"contracts/JinbaoProtocol.sol:JinbaoProtocol","label":"amount","offset":0,"slot":"1","type":"t_uint256"},{"astId":2743,"contract":"contracts/JinbaoProtocol.sol:JinbaoProtocol","label":"purchaseTime","offset":0,"slot":"2","type":"t_uint256"},{"astId":2745,"contract":"contracts/JinbaoProtocol.sol:JinbaoProtocol","label":"exited","offset":0,"slot":"3","type":"t_bool"}],"numberOfBytes":"128"},"t_struct(UserInfo)2724_storage":{"encoding":"inplace","label":"struct JinbaoProtocol.UserInfo","members":[{"astId":2711,"contract":"contracts/JinbaoProtocol.sol:JinbaoProtocol","label":"referrer","offset":0,"slot":"0","type":"t_address"},{"astId":2713,"contract":"contracts/JinbaoProtocol.sol:JinbaoProtocol","label":"activeDirects","offset":0,"slot":"1","type":"t_uint256"},{"astId":2715,"contract":"contracts/JinbaoProtocol.sol:JinbaoProtocol","label":"teamCount","offset":0,"slot":"2","type":"t_uint256"},{"astId":2717,"contract":"contracts/JinbaoProtocol.sol:JinbaoProtocol","label":"totalRevenue","offset":0,"slot":"3","type":"t_uint256"},{"astId":2719,"contract":"contracts/JinbaoProtocol.sol:JinbaoProtocol","label":"currentCap","offset":0,"slot":"4","type":"t_uint256"},{"astId":2721,"contract":"contracts/JinbaoProtocol.sol:JinbaoProtocol","label":"isActive","offset":0,"slot":"5","type":"t_bool"},{"astId":2723,"contract":"contracts/JinbaoProtocol.sol:JinbaoProtocol","label":"refundFeeAmount","offset":0,"slot":"6","type":"t_uint256"}],"numberOfBytes":"224"},"t_uint256":{"encoding":"inplace","label":"uint256","numberOfBytes":"32"}}}}}}