{"contracts/JinbaoProtocolNative.sol":{"JinbaoProtocolNative":{"abi":[{"inputs":[],"stateMutability":"nonpayable","type":"constructor"},{"inputs":[],"name":"ActionTooEarly","type":"error"},{"inputs":[{"internalType":"address","name":"target","type":"address"}],"name":"AddressEmptyCode","type":"error"},{"inputs":[],"name":"AlreadyBound","type":"error"},{"inputs":[],"name":"AlreadyExited","type":"error"},{"inputs":[],"name":"BatchUpdateSizeMismatch","type":"error"},{"inputs":[],"name":"ContractPaused","type":"error"},{"inputs":[{"internalType":"address","name":"implementation","type":"address"}],"name":"ERC1967InvalidImplementation","type":"error"},{"inputs":[],"name":"ERC1967NonPayable","type":"error"},{"inputs":[],"name":"Expired","type":"error"},{"inputs":[],"name":"FailedCall","type":"error"},{"inputs":[],"name":"InsufficientBalance","type":"error"},{"inputs":[],"name":"InsufficientNativeBalance","type":"error"},{"inputs":[],"name":"InvalidAddress","type":"error"},{"inputs":[],"name":"InvalidAmount","type":"error"},{"inputs":[],"name":"InvalidCycle","type":"error"},{"inputs":[],"name":"InvalidFee","type":"error"},{"inputs":[],"name":"InvalidInitialization","type":"error"},{"inputs":[],"name":"InvalidLevelConfig","type":"error"},{"inputs":[],"name":"InvalidRate","type":"error"},{"inputs":[],"name":"InvalidTax","type":"error"},{"inputs":[],"name":"InvalidTeamCountUpdate","type":"error"},{"inputs":[],"name":"LowLiquidity","type":"error"},{"inputs":[],"name":"MustBindReferrer","type":"error"},{"inputs":[],"name":"NativeTransferFailed","type":"error"},{"inputs":[],"name":"NoRewards","type":"error"},{"inputs":[],"name":"NotActive","type":"error"},{"inputs":[],"name":"NotInitializing","type":"error"},{"inputs":[],"name":"NothingToRedeem","type":"error"},{"inputs":[{"internalType":"address","name":"owner","type":"address"}],"name":"OwnableInvalidOwner","type":"error"},{"inputs":[{"internalType":"address","name":"account","type":"address"}],"name":"OwnableUnauthorizedAccount","type":"error"},{"inputs":[],"name":"RecursionDepthExceeded","type":"error"},{"inputs":[],"name":"ReentrancyGuardReentrantCall","type":"error"},{"inputs":[],"name":"SelfReference","type":"error"},{"inputs":[],"name":"SumNot100","type":"error"},{"inputs":[{"internalType":"address","name":"user","type":"address"},{"internalType":"uint256","name":"expected","type":"uint256"},{"internalType":"uint256","name":"actual","type":"uint256"}],"name":"TeamCountMismatch","type":"error"},{"inputs":[],"name":"TeamCountOverflow","type":"error"},{"inputs":[],"name":"TransferFailed","type":"error"},{"inputs":[{"internalType":"string","name":"reason","type":"string"}],"name":"TransferFromFailed","type":"error"},{"inputs":[],"name":"TransferFromFailedLowLevel","type":"error"},{"inputs":[],"name":"UUPSUnauthorizedCallContext","type":"error"},{"inputs":[{"internalType":"bytes32","name":"slot","type":"bytes32"}],"name":"UUPSUnsupportedProxiableUUID","type":"error"},{"inputs":[],"name":"Unauthorized","type":"error"},{"anonymous":false,"inputs":[{"indexed":false,"internalType":"uint256","name":"usersUpdated","type":"uint256"}],"name":"BatchTeamCountsUpdated","type":"event"},{"anonymous":false,"inputs":[{"indexed":true,"internalType":"address","name":"user","type":"address"},{"indexed":true,"internalType":"address","name":"referrer","type":"address"}],"name":"BoundReferrer","type":"event"},{"anonymous":false,"inputs":[{"indexed":false,"internalType":"uint256","name":"mcAmount","type":"uint256"},{"indexed":false,"internalType":"uint256","name":"jbcBurned","type":"uint256"}],"name":"BuybackAndBurn","type":"event"},{"anonymous":false,"inputs":[{"indexed":true,"internalType":"address","name":"user","type":"address"},{"indexed":false,"internalType":"uint256","name":"totalAmount","type":"uint256"},{"indexed":false,"internalType":"uint256","name":"mcPart","type":"uint256"},{"indexed":false,"internalType":"uint256","name":"jbcValuePart","type":"uint256"},{"indexed":false,"internalType":"uint256","name":"jbcPrice","type":"uint256"},{"indexed":false,"internalType":"uint256","name":"jbcAmount","type":"uint256"}],"name":"DifferentialRewardCalculated","type":"event"},{"anonymous":false,"inputs":[{"indexed":true,"internalType":"address","name":"user","type":"address"},{"indexed":false,"internalType":"uint256","name":"mcAmount","type":"uint256"},{"indexed":false,"internalType":"uint256","name":"jbcAmount","type":"uint256"},{"indexed":false,"internalType":"uint256","name":"jbcPrice","type":"uint256"},{"indexed":false,"internalType":"uint256","name":"timestamp","type":"uint256"}],"name":"DifferentialRewardDistributed","type":"event"},{"anonymous":false,"inputs":[{"indexed":true,"internalType":"address","name":"user","type":"address"},{"indexed":false,"internalType":"uint256","name":"totalAmount","type":"uint256"},{"indexed":false,"internalType":"uint256","name":"mcPart","type":"uint256"},{"indexed":false,"internalType":"uint256","name":"jbcAmount","type":"uint256"},{"indexed":false,"internalType":"string","name":"reason","type":"string"}],"name":"DifferentialRewardFailed","type":"event"},{"anonymous":false,"inputs":[{"indexed":true,"internalType":"uint256","name":"stakeId","type":"uint256"},{"indexed":true,"internalType":"address","name":"upline","type":"address"},{"indexed":false,"internalType":"uint256","name":"amount","type":"uint256"}],"name":"DifferentialRewardRecorded","type":"event"},{"anonymous":false,"inputs":[{"indexed":true,"internalType":"uint256","name":"stakeId","type":"uint256"},{"indexed":true,"internalType":"address","name":"upline","type":"address"},{"indexed":false,"internalType":"uint256","name":"amount","type":"uint256"}],"name":"DifferentialRewardReleased","type":"event"},{"anonymous":false,"inputs":[{"indexed":false,"internalType":"uint256","name":"direct","type":"uint256"},{"indexed":false,"internalType":"uint256","name":"level","type":"uint256"},{"indexed":false,"internalType":"uint256","name":"marketing","type":"uint256"},{"indexed":false,"internalType":"uint256","name":"buyback","type":"uint256"},{"indexed":false,"internalType":"uint256","name":"lpInjection","type":"uint256"},{"indexed":false,"internalType":"uint256","name":"treasury","type":"uint256"}],"name":"DistributionConfigUpdated","type":"event"},{"anonymous":false,"inputs":[],"name":"EmergencyPaused","type":"event"},{"anonymous":false,"inputs":[],"name":"EmergencyUnpaused","type":"event"},{"anonymous":false,"inputs":[{"indexed":true,"internalType":"address","name":"user","type":"address"},{"indexed":false,"internalType":"uint256","name":"ticketId","type":"uint256"}],"name":"Exited","type":"event"},{"anonymous":false,"inputs":[{"indexed":true,"internalType":"address","name":"user","type":"address"},{"indexed":false,"internalType":"uint256","name":"amount","type":"uint256"}],"name":"FeeRefunded","type":"event"},{"anonymous":false,"inputs":[{"indexed":false,"internalType":"uint64","name":"version","type":"uint64"}],"name":"Initialized","type":"event"},{"anonymous":false,"inputs":[],"name":"LevelConfigsUpdated","type":"event"},{"anonymous":false,"inputs":[{"indexed":false,"internalType":"uint256","name":"amount","type":"uint256"},{"indexed":false,"internalType":"uint256","name":"newTotal","type":"uint256"}],"name":"LevelRewardPoolUpdated","type":"event"},{"anonymous":false,"inputs":[{"indexed":true,"internalType":"address","name":"to","type":"address"},{"indexed":false,"internalType":"uint256","name":"amount","type":"uint256"}],"name":"LevelRewardPoolWithdrawn","type":"event"},{"anonymous":false,"inputs":[{"indexed":true,"internalType":"uint256","name":"ticketId","type":"uint256"},{"indexed":true,"internalType":"address","name":"upline","type":"address"},{"indexed":false,"internalType":"uint256","name":"amount","type":"uint256"}],"name":"LevelRewardRecorded","type":"event"},{"anonymous":false,"inputs":[{"indexed":true,"internalType":"uint256","name":"ticketId","type":"uint256"},{"indexed":true,"internalType":"address","name":"upline","type":"address"},{"indexed":false,"internalType":"uint256","name":"amount","type":"uint256"}],"name":"LevelRewardReleased","type":"event"},{"anonymous":false,"inputs":[{"indexed":false,"internalType":"uint256","name":"mcAmount","type":"uint256"},{"indexed":false,"internalType":"uint256","name":"jbcAmount","type":"uint256"}],"name":"LiquidityAdded","type":"event"},{"anonymous":false,"inputs":[{"indexed":true,"internalType":"address","name":"user","type":"address"},{"indexed":false,"internalType":"uint256","name":"adjustedJbcAmount","type":"uint256"}],"name":"LiquidityProtectionTriggered","type":"event"},{"anonymous":false,"inputs":[{"indexed":true,"internalType":"address","name":"user","type":"address"},{"indexed":false,"internalType":"uint256","name":"amount","type":"uint256"},{"indexed":false,"internalType":"uint256","name":"cycleDays","type":"uint256"},{"indexed":false,"internalType":"uint256","name":"stakeId","type":"uint256"}],"name":"LiquidityStaked","type":"event"},{"anonymous":false,"inputs":[{"indexed":false,"internalType":"bool","name":"enabled","type":"bool"}],"name":"LiquidityStatusUpdated","type":"event"},{"anonymous":false,"inputs":[{"indexed":true,"internalType":"address","name":"from","type":"address"},{"indexed":false,"internalType":"uint256","name":"amount","type":"uint256"}],"name":"NativeMCReceived","type":"event"},{"anonymous":false,"inputs":[{"indexed":true,"internalType":"address","name":"to","type":"address"},{"indexed":false,"internalType":"uint256","name":"amount","type":"uint256"}],"name":"NativeMCWithdrawn","type":"event"},{"anonymous":false,"inputs":[{"indexed":true,"internalType":"address","name":"previousOwner","type":"address"},{"indexed":true,"internalType":"address","name":"newOwner","type":"address"}],"name":"OwnershipTransferred","type":"event"},{"anonymous":false,"inputs":[{"indexed":true,"internalType":"address","name":"user","type":"address"},{"indexed":false,"internalType":"uint256","name":"mcRequested","type":"uint256"},{"indexed":false,"internalType":"uint256","name":"mcTransferred","type":"uint256"},{"indexed":false,"internalType":"uint256","name":"jbcRequested","type":"uint256"},{"indexed":false,"internalType":"uint256","name":"jbcTransferred","type":"uint256"}],"name":"PartialRewardTransfer","type":"event"},{"anonymous":false,"inputs":[{"indexed":false,"internalType":"bool","name":"enabled","type":"bool"}],"name":"RedeemStatusUpdated","type":"event"},{"anonymous":false,"inputs":[{"indexed":true,"internalType":"address","name":"user","type":"address"},{"indexed":false,"internalType":"uint256","name":"principal","type":"uint256"},{"indexed":false,"internalType":"uint256","name":"fee","type":"uint256"}],"name":"Redeemed","type":"event"},{"anonymous":false,"inputs":[{"indexed":false,"internalType":"uint256","name":"newFee","type":"uint256"}],"name":"RedemptionFeeUpdated","type":"event"},{"anonymous":false,"inputs":[{"indexed":true,"internalType":"address","name":"user","type":"address"},{"indexed":true,"internalType":"address","name":"from","type":"address"},{"indexed":false,"internalType":"uint256","name":"mcAmount","type":"uint256"},{"indexed":false,"internalType":"uint256","name":"jbcAmount","type":"uint256"},{"indexed":false,"internalType":"uint8","name":"rewardType","type":"uint8"},{"indexed":false,"internalType":"uint256","name":"ticketId","type":"uint256"}],"name":"ReferralRewardPaid","type":"event"},{"anonymous":false,"inputs":[{"indexed":true,"internalType":"address","name":"user","type":"address"},{"indexed":true,"internalType":"address","name":"oldReferrer","type":"address"},{"indexed":true,"internalType":"address","name":"newReferrer","type":"address"}],"name":"ReferrerChanged","type":"event"},{"anonymous":false,"inputs":[{"indexed":true,"internalType":"address","name":"user","type":"address"},{"indexed":false,"internalType":"uint256","name":"amount","type":"uint256"},{"indexed":false,"internalType":"uint256","name":"cappedAmount","type":"uint256"}],"name":"RewardCapped","type":"event"},{"anonymous":false,"inputs":[{"indexed":true,"internalType":"address","name":"user","type":"address"},{"indexed":false,"internalType":"uint256","name":"mcAmount","type":"uint256"},{"indexed":false,"internalType":"uint256","name":"jbcAmount","type":"uint256"},{"indexed":false,"internalType":"uint8","name":"rewardType","type":"uint8"},{"indexed":false,"internalType":"uint256","name":"ticketId","type":"uint256"}],"name":"RewardClaimed","type":"event"},{"anonymous":false,"inputs":[{"indexed":true,"internalType":"address","name":"user","type":"address"},{"indexed":false,"internalType":"uint256","name":"amount","type":"uint256"},{"indexed":false,"internalType":"uint8","name":"rewardType","type":"uint8"}],"name":"RewardPaid","type":"event"},{"anonymous":false,"inputs":[{"indexed":true,"internalType":"address","name":"user","type":"address"},{"indexed":false,"internalType":"uint256","name":"mcAmount","type":"uint256"},{"indexed":false,"internalType":"uint256","name":"jbcAmount","type":"uint256"},{"indexed":false,"internalType":"string","name":"reason","type":"string"}],"name":"RewardTransferFailed","type":"event"},{"anonymous":false,"inputs":[{"indexed":false,"internalType":"uint256","name":"mcAmount","type":"uint256"},{"indexed":false,"internalType":"uint256","name":"jbcAmount","type":"uint256"}],"name":"SwapReservesWithdrawn","type":"event"},{"anonymous":false,"inputs":[{"indexed":false,"internalType":"uint256","name":"buyTax","type":"uint256"},{"indexed":false,"internalType":"uint256","name":"sellTax","type":"uint256"}],"name":"SwapTaxesUpdated","type":"event"},{"anonymous":false,"inputs":[{"indexed":true,"internalType":"address","name":"user","type":"address"},{"indexed":false,"internalType":"uint256","name":"jbcAmount","type":"uint256"},{"indexed":false,"internalType":"uint256","name":"mcAmount","type":"uint256"},{"indexed":false,"internalType":"uint256","name":"tax","type":"uint256"}],"name":"SwappedJBCToMC","type":"event"},{"anonymous":false,"inputs":[{"indexed":true,"internalType":"address","name":"user","type":"address"},{"indexed":false,"internalType":"uint256","name":"mcAmount","type":"uint256"},{"indexed":false,"internalType":"uint256","name":"jbcAmount","type":"uint256"},{"indexed":false,"internalType":"uint256","name":"tax","type":"uint256"}],"name":"SwappedMCToJBC","type":"event"},{"anonymous":false,"inputs":[{"indexed":true,"internalType":"uint256","name":"stakeId","type":"uint256"},{"indexed":true,"internalType":"address","name":"upline","type":"address"},{"indexed":false,"internalType":"uint256","name":"amount","type":"uint256"},{"indexed":false,"internalType":"uint256","name":"teamCount","type":"uint256"}],"name":"TeamBasedRewardCalculated","type":"event"},{"anonymous":false,"inputs":[{"indexed":true,"internalType":"address","name":"user","type":"address"},{"indexed":false,"internalType":"uint256","name":"oldCount","type":"uint256"},{"indexed":false,"internalType":"uint256","name":"newCount","type":"uint256"}],"name":"TeamCountUpdated","type":"event"},{"anonymous":false,"inputs":[{"indexed":true,"internalType":"address","name":"user","type":"address"},{"indexed":false,"internalType":"uint256","name":"expected","type":"uint256"},{"indexed":false,"internalType":"uint256","name":"actual","type":"uint256"}],"name":"TeamCountValidationFailed","type":"event"},{"anonymous":false,"inputs":[{"indexed":true,"internalType":"address","name":"user","type":"address"},{"indexed":false,"internalType":"uint256","name":"ticketId","type":"uint256"},{"indexed":false,"internalType":"uint256","name":"amount","type":"uint256"}],"name":"TicketExpired","type":"event"},{"anonymous":false,"inputs":[{"indexed":false,"internalType":"uint256","name":"newDuration","type":"uint256"}],"name":"TicketFlexibilityDurationUpdated","type":"event"},{"anonymous":false,"inputs":[{"indexed":true,"internalType":"address","name":"user","type":"address"},{"indexed":false,"internalType":"uint256","name":"amount","type":"uint256"},{"indexed":false,"internalType":"uint256","name":"ticketId","type":"uint256"}],"name":"TicketPurchased","type":"event"},{"anonymous":false,"inputs":[{"indexed":false,"internalType":"address","name":"token","type":"address"},{"indexed":false,"internalType":"address","name":"to","type":"address"},{"indexed":false,"internalType":"uint256","name":"amount","type":"uint256"}],"name":"TokensRescued","type":"event"},{"anonymous":false,"inputs":[{"indexed":true,"internalType":"address","name":"implementation","type":"address"}],"name":"Upgraded","type":"event"},{"anonymous":false,"inputs":[{"indexed":true,"internalType":"address","name":"user","type":"address"},{"indexed":false,"internalType":"uint8","name":"field","type":"uint8"},{"indexed":false,"internalType":"uint256","name":"value","type":"uint256"}],"name":"UserDataFieldUpdated","type":"event"},{"anonymous":false,"inputs":[{"indexed":true,"internalType":"address","name":"user","type":"address"},{"indexed":false,"internalType":"uint256","name":"oldLevel","type":"uint256"},{"indexed":false,"internalType":"uint256","name":"newLevel","type":"uint256"},{"indexed":false,"internalType":"uint256","name":"teamCount","type":"uint256"}],"name":"UserLevelChanged","type":"event"},{"anonymous":false,"inputs":[{"indexed":false,"internalType":"address","name":"marketing","type":"address"},{"indexed":false,"internalType":"address","name":"treasury","type":"address"},{"indexed":false,"internalType":"address","name":"lpInjection","type":"address"},{"indexed":false,"internalType":"address","name":"buyback","type":"address"}],"name":"WalletsUpdated","type":"event"},{"inputs":[],"name":"MAX_PRICE_IMPACT","outputs":[{"internalType":"uint256","name":"","type":"uint256"}],"stateMutability":"view","type":"function"},{"inputs":[],"name":"MIN_LIQUIDITY","outputs":[{"internalType":"uint256","name":"","type":"uint256"}],"stateMutability":"view","type":"function"},{"inputs":[],"name":"REWARD_DIFFERENTIAL","outputs":[{"internalType":"uint8","name":"","type":"uint8"}],"stateMutability":"view","type":"function"},{"inputs":[],"name":"REWARD_DIRECT","outputs":[{"internalType":"uint8","name":"","type":"uint8"}],"stateMutability":"view","type":"function"},{"inputs":[],"name":"REWARD_DYNAMIC","outputs":[{"internalType":"uint8","name":"","type":"uint8"}],"stateMutability":"view","type":"function"},{"inputs":[],"name":"REWARD_LEVEL","outputs":[{"internalType":"uint8","name":"","type":"uint8"}],"stateMutability":"view","type":"function"},{"inputs":[],"name":"REWARD_STATIC","outputs":[{"internalType":"uint8","name":"","type":"uint8"}],"stateMutability":"view","type":"function"},{"inputs":[],"name":"SECONDS_IN_UNIT","outputs":[{"internalType":"uint256","name":"","type":"uint256"}],"stateMutability":"view","type":"function"},{"inputs":[],"name":"UPGRADE_INTERFACE_VERSION","outputs":[{"internalType":"string","name":"","type":"string"}],"stateMutability":"view","type":"function"},{"inputs":[{"internalType":"uint256","name":"jbcAmount","type":"uint256"}],"name":"addLiquidity","outputs":[],"stateMutability":"payable","type":"function"},{"inputs":[{"internalType":"address","name":"user","type":"address"},{"internalType":"address","name":"newReferrer","type":"address"}],"name":"adminSetReferrer","outputs":[],"stateMutability":"nonpayable","type":"function"},{"inputs":[{"internalType":"address","name":"_referrer","type":"address"}],"name":"bindReferrer","outputs":[],"stateMutability":"nonpayable","type":"function"},{"inputs":[],"name":"buyTicket","outputs":[],"stateMutability":"payable","type":"function"},{"inputs":[],"name":"buybackPercent","outputs":[{"internalType":"uint256","name":"","type":"uint256"}],"stateMutability":"view","type":"function"},{"inputs":[],"name":"buybackWallet","outputs":[{"internalType":"address","name":"","type":"address"}],"stateMutability":"view","type":"function"},{"inputs":[{"internalType":"uint256","name":"teamCount","type":"uint256"}],"name":"calculateLevel","outputs":[{"internalType":"uint256","name":"level","type":"uint256"},{"internalType":"uint256","name":"percent","type":"uint256"}],"stateMutability":"pure","type":"function"},{"inputs":[],"name":"claimRewards","outputs":[],"stateMutability":"nonpayable","type":"function"},{"inputs":[],"name":"dailyBurn","outputs":[],"stateMutability":"nonpayable","type":"function"},{"inputs":[{"internalType":"address","name":"","type":"address"},{"internalType":"uint256","name":"","type":"uint256"}],"name":"directReferrals","outputs":[{"internalType":"address","name":"","type":"address"}],"stateMutability":"view","type":"function"},{"inputs":[],"name":"directRewardPercent","outputs":[{"internalType":"uint256","name":"","type":"uint256"}],"stateMutability":"view","type":"function"},{"inputs":[],"name":"emergencyPause","outputs":[],"stateMutability":"nonpayable","type":"function"},{"inputs":[],"name":"emergencyPaused","outputs":[{"internalType":"bool","name":"","type":"bool"}],"stateMutability":"view","type":"function"},{"inputs":[],"name":"emergencyUnpause","outputs":[],"stateMutability":"nonpayable","type":"function"},{"inputs":[{"internalType":"address","name":"_to","type":"address"},{"internalType":"uint256","name":"_amount","type":"uint256"}],"name":"emergencyWithdrawNative","outputs":[],"stateMutability":"nonpayable","type":"function"},{"inputs":[],"name":"executeBuybackAndBurn","outputs":[],"stateMutability":"payable","type":"function"},{"inputs":[{"internalType":"address","name":"user","type":"address"}],"name":"getDirectReferrals","outputs":[{"internalType":"address[]","name":"","type":"address[]"}],"stateMutability":"view","type":"function"},{"inputs":[{"internalType":"uint256","name":"activeDirects","type":"uint256"}],"name":"getLevelRewardLayers","outputs":[{"internalType":"uint256","name":"","type":"uint256"}],"stateMutability":"pure","type":"function"},{"inputs":[{"internalType":"address","name":"user","type":"address"}],"name":"getUserDynamicRewards","outputs":[{"internalType":"uint256","name":"totalEarned","type":"uint256"},{"internalType":"uint256","name":"totalClaimed","type":"uint256"},{"internalType":"uint256","name":"pendingAmount","type":"uint256"},{"internalType":"uint256","name":"claimableAmount","type":"uint256"}],"stateMutability":"view","type":"function"},{"inputs":[{"internalType":"address","name":"user","type":"address"}],"name":"getUserLevel","outputs":[{"internalType":"uint256","name":"level","type":"uint256"},{"internalType":"uint256","name":"percent","type":"uint256"},{"internalType":"uint256","name":"teamCount","type":"uint256"}],"stateMutability":"view","type":"function"},{"inputs":[{"internalType":"address","name":"_jbcToken","type":"address"},{"internalType":"address","name":"_marketing","type":"address"},{"internalType":"address","name":"_treasury","type":"address"},{"internalType":"address","name":"_lpInjection","type":"address"},{"internalType":"address","name":"_buybackWallet","type":"address"}],"name":"initialize","outputs":[],"stateMutability":"nonpayable","type":"function"},{"inputs":[],"name":"jbcToken","outputs":[{"internalType":"contract IJBC","name":"","type":"address"}],"stateMutability":"view","type":"function"},{"inputs":[],"name":"lastBurnTime","outputs":[{"internalType":"uint256","name":"","type":"uint256"}],"stateMutability":"view","type":"function"},{"inputs":[{"internalType":"uint256","name":"","type":"uint256"}],"name":"levelConfigs","outputs":[{"internalType":"uint256","name":"minDirects","type":"uint256"},{"internalType":"uint256","name":"level","type":"uint256"},{"internalType":"uint256","name":"percent","type":"uint256"}],"stateMutability":"view","type":"function"},{"inputs":[],"name":"levelRewardPercent","outputs":[{"internalType":"uint256","name":"","type":"uint256"}],"stateMutability":"view","type":"function"},{"inputs":[],"name":"levelRewardPool","outputs":[{"internalType":"uint256","name":"","type":"uint256"}],"stateMutability":"view","type":"function"},{"inputs":[],"name":"liquidityEnabled","outputs":[{"internalType":"bool","name":"","type":"bool"}],"stateMutability":"view","type":"function"},{"inputs":[],"name":"lpInjectionPercent","outputs":[{"internalType":"uint256","name":"","type":"uint256"}],"stateMutability":"view","type":"function"},{"inputs":[],"name":"lpInjectionWallet","outputs":[{"internalType":"address","name":"","type":"address"}],"stateMutability":"view","type":"function"},{"inputs":[],"name":"marketingPercent","outputs":[{"internalType":"uint256","name":"","type":"uint256"}],"stateMutability":"view","type":"function"},{"inputs":[],"name":"marketingWallet","outputs":[{"internalType":"address","name":"","type":"address"}],"stateMutability":"view","type":"function"},{"inputs":[],"name":"nextStakeId","outputs":[{"internalType":"uint256","name":"","type":"uint256"}],"stateMutability":"view","type":"function"},{"inputs":[],"name":"nextTicketId","outputs":[{"internalType":"uint256","name":"","type":"uint256"}],"stateMutability":"view","type":"function"},{"inputs":[],"name":"owner","outputs":[{"internalType":"address","name":"","type":"address"}],"stateMutability":"view","type":"function"},{"inputs":[],"name":"priceOracle","outputs":[{"internalType":"address","name":"","type":"address"}],"stateMutability":"view","type":"function"},{"inputs":[],"name":"proxiableUUID","outputs":[{"internalType":"bytes32","name":"","type":"bytes32"}],"stateMutability":"view","type":"function"},{"inputs":[],"name":"redeem","outputs":[],"stateMutability":"nonpayable","type":"function"},{"inputs":[],"name":"redeemEnabled","outputs":[{"internalType":"bool","name":"","type":"bool"}],"stateMutability":"view","type":"function"},{"inputs":[],"name":"redemptionFeePercent","outputs":[{"internalType":"uint256","name":"","type":"uint256"}],"stateMutability":"view","type":"function"},{"inputs":[],"name":"renounceOwnership","outputs":[],"stateMutability":"nonpayable","type":"function"},{"inputs":[{"internalType":"address","name":"_token","type":"address"},{"internalType":"address","name":"_to","type":"address"},{"internalType":"uint256","name":"_amount","type":"uint256"}],"name":"rescueTokens","outputs":[],"stateMutability":"nonpayable","type":"function"},{"inputs":[{"internalType":"uint256","name":"_direct","type":"uint256"},{"internalType":"uint256","name":"_level","type":"uint256"},{"internalType":"uint256","name":"_marketing","type":"uint256"},{"internalType":"uint256","name":"_buyback","type":"uint256"},{"internalType":"uint256","name":"_lpInjection","type":"uint256"},{"internalType":"uint256","name":"_treasury","type":"uint256"}],"name":"setDistributionConfig","outputs":[],"stateMutability":"nonpayable","type":"function"},{"inputs":[{"internalType":"bool","name":"_liquidityEnabled","type":"bool"},{"internalType":"bool","name":"_redeemEnabled","type":"bool"}],"name":"setOperationalStatus","outputs":[],"stateMutability":"nonpayable","type":"function"},{"inputs":[{"internalType":"uint256","name":"_fee","type":"uint256"}],"name":"setRedemptionFeePercent","outputs":[],"stateMutability":"nonpayable","type":"function"},{"inputs":[{"internalType":"uint256","name":"_buyTax","type":"uint256"},{"internalType":"uint256","name":"_sellTax","type":"uint256"}],"name":"setSwapTaxes","outputs":[],"stateMutability":"nonpayable","type":"function"},{"inputs":[{"internalType":"uint256","name":"_duration","type":"uint256"}],"name":"setTicketFlexibilityDuration","outputs":[],"stateMutability":"nonpayable","type":"function"},{"inputs":[{"internalType":"address","name":"_marketing","type":"address"},{"internalType":"address","name":"_treasury","type":"address"},{"internalType":"address","name":"_lpInjection","type":"address"},{"internalType":"address","name":"_buyback","type":"address"}],"name":"setWallets","outputs":[],"stateMutability":"nonpayable","type":"function"},{"inputs":[{"internalType":"uint256","name":"cycleDays","type":"uint256"}],"name":"stakeLiquidity","outputs":[],"stateMutability":"payable","type":"function"},{"inputs":[{"internalType":"uint256","name":"","type":"uint256"}],"name":"stakeOwner","outputs":[{"internalType":"address","name":"","type":"address"}],"stateMutability":"view","type":"function"},{"inputs":[{"internalType":"uint256","name":"","type":"uint256"},{"internalType":"uint256","name":"","type":"uint256"}],"name":"stakePendingRewards","outputs":[{"internalType":"address","name":"upline","type":"address"},{"internalType":"uint256","name":"amount","type":"uint256"}],"stateMutability":"view","type":"function"},{"inputs":[],"name":"swapBuyTax","outputs":[{"internalType":"uint256","name":"","type":"uint256"}],"stateMutability":"view","type":"function"},{"inputs":[{"internalType":"uint256","name":"jbcAmount","type":"uint256"}],"name":"swapJBCToMC","outputs":[],"stateMutability":"nonpayable","type":"function"},{"inputs":[],"name":"swapMCToJBC","outputs":[],"stateMutability":"payable","type":"function"},{"inputs":[],"name":"swapReserveJBC","outputs":[{"internalType":"uint256","name":"","type":"uint256"}],"stateMutability":"view","type":"function"},{"inputs":[],"name":"swapReserveMC","outputs":[{"internalType":"uint256","name":"","type":"uint256"}],"stateMutability":"view","type":"function"},{"inputs":[],"name":"swapSellTax","outputs":[{"internalType":"uint256","name":"","type":"uint256"}],"stateMutability":"view","type":"function"},{"inputs":[],"name":"ticketFlexibilityDuration","outputs":[{"internalType":"uint256","name":"","type":"uint256"}],"stateMutability":"view","type":"function"},{"inputs":[{"internalType":"uint256","name":"","type":"uint256"}],"name":"ticketOwner","outputs":[{"internalType":"address","name":"","type":"address"}],"stateMutability":"view","type":"function"},{"inputs":[{"internalType":"uint256","name":"","type":"uint256"},{"internalType":"uint256","name":"","type":"uint256"}],"name":"ticketPendingRewards","outputs":[{"internalType":"address","name":"upline","type":"address"},{"internalType":"uint256","name":"amount","type":"uint256"}],"stateMutability":"view","type":"function"},{"inputs":[{"internalType":"address","name":"","type":"address"}],"name":"totalDynamicClaimed","outputs":[{"internalType":"uint256","name":"","type":"uint256"}],"stateMutability":"view","type":"function"},{"inputs":[{"internalType":"address","name":"","type":"address"}],"name":"totalDynamicEarned","outputs":[{"internalType":"uint256","name":"","type":"uint256"}],"stateMutability":"view","type":"function"},{"inputs":[{"internalType":"address","name":"newOwner","type":"address"}],"name":"transferOwnership","outputs":[],"stateMutability":"nonpayable","type":"function"},{"inputs":[],"name":"treasuryPercent","outputs":[{"internalType":"uint256","name":"","type":"uint256"}],"stateMutability":"view","type":"function"},{"inputs":[],"name":"treasuryWallet","outputs":[{"internalType":"address","name":"","type":"address"}],"stateMutability":"view","type":"function"},{"inputs":[{"internalType":"address","name":"newImplementation","type":"address"},{"internalType":"bytes","name":"data","type":"bytes"}],"name":"upgradeToAndCall","outputs":[],"stateMutability":"payable","type":"function"},{"inputs":[{"internalType":"address","name":"","type":"address"}],"name":"userInfo","outputs":[{"internalType":"address","name":"referrer","type":"address"},{"internalType":"uint256","name":"activeDirects","type":"uint256"},{"internalType":"uint256","name":"teamCount","type":"uint256"},{"internalType":"uint256","name":"totalRevenue","type":"uint256"},{"internalType":"uint256","name":"currentCap","type":"uint256"},{"internalType":"bool","name":"isActive","type":"bool"},{"internalType":"uint256","name":"refundFeeAmount","type":"uint256"},{"internalType":"uint256","name":"teamTotalVolume","type":"uint256"},{"internalType":"uint256","name":"teamTotalCap","type":"uint256"},{"internalType":"uint256","name":"maxTicketAmount","type":"uint256"},{"internalType":"uint256","name":"maxSingleTicketAmount","type":"uint256"}],"stateMutability":"view","type":"function"},{"inputs":[{"internalType":"address","name":"","type":"address"},{"internalType":"uint256","name":"","type":"uint256"}],"name":"userStakes","outputs":[{"internalType":"uint256","name":"id","type":"uint256"},{"internalType":"uint256","name":"amount","type":"uint256"},{"internalType":"uint256","name":"startTime","type":"uint256"},{"internalType":"uint256","name":"cycleDays","type":"uint256"},{"internalType":"bool","name":"active","type":"bool"},{"internalType":"uint256","name":"paid","type":"uint256"}],"stateMutability":"view","type":"function"},{"inputs":[{"internalType":"address","name":"","type":"address"}],"name":"userTicket","outputs":[{"internalType":"uint256","name":"ticketId","type":"uint256"},{"internalType":"uint256","name":"amount","type":"uint256"},{"internalType":"uint256","name":"purchaseTime","type":"uint256"},{"internalType":"bool","name":"exited","type":"bool"}],"stateMutability":"view","type":"function"},{"inputs":[{"internalType":"address","name":"_to","type":"address"},{"internalType":"uint256","name":"_amount","type":"uint256"}],"name":"withdrawLevelRewardPool","outputs":[],"stateMutability":"nonpayable","type":"function"},{"inputs":[{"internalType":"address","name":"_toMC","type":"address"},{"internalType":"uint256","name":"_amountMC","type":"uint256"},{"internalType":"address","name":"_toJBC","type":"address"},{"internalType":"uint256","name":"_amountJBC","type":"uint256"}],"name":"withdrawSwapReserves","outputs":[],"stateMutability":"nonpayable","type":"function"},{"stateMutability":"payable","type":"receive"}],"evm":{"bytecode":{"linkReferences":{},"object":"60a08060405234620000d157306080527ff0c57e16840df040f15088dc2f81fe391c3923bec73e23a9662efc9c229c6a009081549060ff8260401c16620000c257506001600160401b036002600160401b0319828216016200007c575b6040516155239081620000d78239608051818181611f7401526123b30152f35b6001600160401b031990911681179091556040519081527fc7f505b2f371ae2175ee4913f4499e1f2633a7b5936321eed1cdaeb6115181d290602090a13880806200005c565b63f92ee8a960e01b8152600490fd5b600080fdfe60806040526004361015610056575b361561001957600080fd5b61002534601654613696565b6016556040513481527fc8382e3e3003d34021113f35bf95ee86b77a09ec08c4eb3cbe64076e60468f4e60203392a2005b6000803560e01c806301d62efb146132f357806304ef9d58146132d557806304f618cb1461310657806305ad3935146130ab5780630e2be2101461308f5780631427f616146130735780631459457a14612e795780631788513c14612e52578063182c84cc14612e2b5780631959a00214612d795780631d0dac7614612d5b57806321923bde14612d0c57806321b77d6314612ce857806321f483d314612ca05780632630c12f14612c73578063263f30b314612c3b57806327c830a914612c1857806327f082f414612bfa578063350763731461266b578063372500ab1461264a5780633dbd46bd146126175780634348b59b146125d85780634626402b146125af578063488b5d97146125915780634a4e3bd5146125475780634f1ef2861461233857806351858e27146122eb57806351c6590a1461219c57806352778b0514611fcc57806352d1902d14611f615780636031a52f14611f435780636839b5fa14611f265780636dd6682714611f08578063715018a614611eaf57806375506c9614611e9157806375f0a87414611e6857806377a2a54014611e4a578063813380cd14611e1c57806381eeef5c14611d3757806383672f3e14611c3f578063841d308b146119e55780638710bcaa1461198457806388481b611461196857806388fd4d331461193f5780638a859a85146119235780638c0eaa48146119075780638da5cb5b146118d157806390b0eb51146118815780639370b0801461186357806398ad675a1461182a57806399b6024d1461179f5780639b788504146117235780639d99eca4146116d5578063a1d7d1a91461166f578063a2af92261461163c578063ac8f50aa146115e8578063ad3cb1cc146115a6578063b048a4bb14611583578063b5d5b5fa146114f5578063b759936b146114d7578063bd594dcf146114b9578063be040fb014610fa4578063c2ff12fc14610f71578063ccf6194414610f53578063cea9d26f14610e60578063ceaa366d14610e42578063d0f1647014610db8578063d2c8e0e514610d09578063d2f8253614610ce3578063d4f0014214610b87578063d8020a1814610b69578063dce3dc1f14610b3e578063deab8aea14610b15578063dec7fa3b14610af7578063e306744914610ad9578063e4412f6814610abb578063ece7126614610a6d578063edca914c146103f65763f2fde38b146103c7575061000e565b346103f35760203660031901126103f3576103f06103e361339a565b6103eb613f31565b613ecf565b80f35b80fd5b50806003193601126103f35761040a614019565b60ff604e5416610a5b57338152600e60205260408120546001600160a01b031615610a495761043833614841565b68056bc75e2d6310000034141580610a36575b80610a23575b80610a10575b6109fe57338152600f6020526040812060038101805460ff161561093357610480601854613631565b80601855825534600183015542600283015560ff198154169055338252600e602052816003604082200155600334023481046003143415171561091f57338352600e60205260046040842001555b600a6001820154338452600e60205260408420906009820180548211610917575b5050018054341161090e575b5080548252601b6020908152604080842080546001600160a01b031916339081179091558452600e9091528220546001600160a01b0316801515806108fa575b156108d857610558606461055160055434613656565b0482614a0d565b90816108a3575b50505b338252600e6020526040822054829182916001600160a01b0316908290348015908004600114171561088f579394915b6001600160a01b038116151580610885575b8061087b575b156106ae576001600160a01b0381168452600e60205260408420600581015460ff161561068f575060018060a01b03811690818552600e602052836105f56001604088200154613601565b1161062f575b508352600e60205260408320546001600160a01b0316916106259061061f90613631565b95613631565b935b939491610592565b61063d906064340490614b46565b80156105fb57918261064e91613696565b91338552600f60205260408520546040519182528560208301526003604083015260608201528160008051602061536e83398151915260803393a3386105fb565b5492956001600160a01b03909316926106a89150613631565b93610627565b83856106c88460646106c260065434613656565b04613689565b80610836575b5060018060a01b03600154166106f560079160646106ee60075434613656565b0490614108565b606461070360085434613656565b048061081a575b5061072760018060a01b036003541660646106ee60095434613656565b61074360018060a01b036002541660646106ee600a5434613656565b336000908152600e6020526040812054909234151592916001600160a01b03165b6001600160a01b031680151580610810575b156107bd57600052600e6020526107a2836040600020906107a8575b546001600160a01b031694613631565b93610764565b8381016107b6348254613696565b9055610792565b85826107c833614056565b546040519034825260208201527f2a91574e12ad96234e84923e146b0946ecfb871cd8d5534dc1fdcbe87a7c01b360403392a260016000805160206154ae8339815191525580f35b50601e8510610776565b60045461083091906001600160a01b0316614108565b8361070a565b6040816108667fca2e2bff26d2adb9fe155e9265350494c16751676879cb7ced9141e0fcf3934393601e54613696565b80601e5582519182526020820152a1826106ce565b50601486106105aa565b50600f83106105a4565b634e487b7160e01b84526011600452602484fd5b825460405192835284602084015260026040840152606083015260008051602061536e83398151915260803393a3388061055f565b506108f560018060a01b036001541660646106ee60055434613656565b610562565b5080835260ff60056040852001541661053b565b349055386104fb565b5538806104ef565b634e487b7160e01b83526011600452602483fd5b60018201805480610999575061094a601854613631565b80601855835534905542600283015560ff198154169055338252600e602052816003604082200155600334023481046003143415171561091f57338352600e60205260046040842001556104ce565b6109a69192503490613696565b9055338252600e60205260ff6005604084200154166109f3575b600334023481046003143415171561091f57338352600e6020526109ec60046040852001918254613696565b90556104ce565b4260028201556109c0565b60405163162908e360e11b8152600490fd5b50683635c9adc5dea00000341415610457565b50681b1ae4d6e2ef500000341415610451565b50681043561a882930000034141561044b565b604051635359877d60e01b8152600490fd5b60405163ab35696f60e01b8152600490fd5b50346103f35760203660031901126103f3577fc7f6975dcffc536e6e57dd1d1dea810fff534a70563baf2d6f977b119bd00e1b6020600435610aad613f31565b80600b55604051908152a180f35b50346103f357806003193601126103f3576020600854604051908152f35b50346103f357806003193601126103f3576020601a54604051908152f35b50346103f357806003193601126103f3576020600b54604051908152f35b50346103f357806003193601126103f3576004546040516001600160a01b039091168152602090f35b50346103f35760203660031901126103f3576040610b5d600435613f6a565b82519182526020820152f35b50346103f357806003193601126103f3576020600754604051908152f35b50346103f35760803660031901126103f357610ba161339a565b60243590610bad6133c6565b60643591610bb9613f31565b83610c8d575b5081610be8575b5060008051602061540e8339815191529160409182519182526020820152a180f35b91602082610c2794610bfc82601754613689565b60175560018060a01b03875416908760405180988195829463a9059cbb60e01b845260048401613505565b03925af1918215610c825760008051602061540e83398151915293604093610c53575b50915091610bc6565b610c749060203d602011610c7b575b610c6c8183613495565b8101906136a3565b5038610c4a565b503d610c62565b6040513d86823e3d90fd5b834710610cd157848080868194610ca682601654613689565b6016555af1610cb3613b90565b5015610cbf5738610bbf565b604051633d2cec6f60e21b8152600490fd5b60405163dbc3a71f60e01b8152600490fd5b50346103f357806003193601126103f357602060ff60155460081c166040519015158152f35b50346103f357602090816003193601126103f3576001600160a01b03919082610d3061339a565b168152601182526040812090604051808484549182815201908194845285842090845b818110610da25750505081610d69910382613495565b6040519380850191818652518092526040850193925b828110610d8c5785850386f35b8351871685529381019392810192600101610d7f565b8254891684529287019260019283019201610d53565b50346103f35760c03660031901126103f3577f66682b276e4cd1a4e1f68b55b1143766c5332f472eb593cf2a70a25d9d5d991760c060043560a435608435606435604435602435610e07613f31565b856005558060065581600755826008558360095584600a55604051958652602086015260408501526060840152608083015260a0820152a180f35b50346103f357806003193601126103f3576020600954604051908152f35b50346103f35760603660031901126103f357610e7a61339a565b610e826133b0565b60443591610e8e613f31565b83546001600160a01b03828116949181168514610f4157831615610f41576020604051809563a9059cbb60e01b8252818881610ece878a60048401613505565b03925af1908115610f36577f77023e19c7343ad491fd706c36335ca0e738340a91f29b1fd81e2673d44896c494610f1192610f17575b5060405193849384613afd565b0390a180f35b610f2f9060203d602011610c7b57610c6c8183613495565b5038610f04565b6040513d87823e3d90fd5b60405163e6c4247b60e01b8152600490fd5b50346103f357806003193601126103f3576020600554604051908152f35b50346103f35760203660031901126103f3576020906004358152601b8252604060018060a01b0391205416604051908152f35b50346103f357806003193601126103f357610fbd614019565b60ff8060155460081c16156114a85733825260209160108352604081209281828391845b875481101561115d57866004610ff7838b6135a2565b500154161561115557600261100c828a6135a2565b500154600361101b838b6135a2565b50015490620151809182810292818404149015171561114157899161103f91613696565b421015611052575b506001905b01610fe1565b938192936110ea9161109260056110888661108261107b61107560019a8e6135a2565b5061412e565b8096613696565b9a6135a2565b5001918254613696565b9055338852600e875260096040892001548015611130575b6110b9606491600b5490613656565b04836110c5868d6135a2565b5001548181111561111d57906110de816110e493613689565b92613696565b94613696565b9160046110f7828b6135a2565b5001805460ff1916905561111561110e828b6135a2565b505461420f565b905087611047565b905061112891613696565b938790613696565b50600f8752604088208301546110aa565b634e487b7160e01b88526011600452602488fd5b60019061104c565b5084939181159081806114a0575b61148e5780611479575b50836111dc575b600e9350156111cc575b5061119033614056565b33835252604081206004600382015491015411156111be575b60016000805160206154ae8339815191525580f35b6111c733614403565b6111a9565b6111d69033614108565b83611186565b338552600e83526111fa604086206003600482015491015490613689565b808511611451575b50831561117c57338552600e835260036040862001611222858254613696565b90558360011c85908047101580611448575b611436575b60175480158015611422575b156113e15750670de0b6b3a7640000905b670de0b6b3a764000090818102918183041490151715611141579061127a91613669565b86546040516370a0823160e01b815230600482015288926001600160a01b0390921691908781602481865afa80156113d65782918b916113a0575b50101580611397575b61131e575b505060008051602061538e83398151915290600e9660405190815260008782015260008051602061548e83398151915260403392a2338852600f8652604088205490611316604051928392339684613520565b0390a261117c565b91509585604051809863a9059cbb60e01b8252818b81611342883360048401613505565b03925af191821561138c57600e9760008051602061538e8339815191529361136f575b50918197506112c3565b61138590883d8a11610c7b57610c6c8183613495565b5089611365565b6040513d8a823e3d90fd5b508015156112be565b809250898092503d83116113cf575b6113b98183613495565b810103126113ca578190518b6112b5565b600080fd5b503d6113af565b6040513d8c823e3d90fd5b601654670de0b6b3a76400009081810291818304149015171561140e579061140891613669565b90611256565b634e487b7160e01b89526011600452602489fd5b50683635c9adc5dea0000060165410611245565b90506114428133614108565b80611239565b50801515611234565b909360405190815281848201526000805160206153ee83398151915260403392a29285611202565b61148590601654613696565b60165585611175565b6040516304c4857b60e51b8152600490fd5b50841561116b565b6040516282b42960e81b8152600490fd5b50346103f357806003193601126103f3576020600654604051908152f35b50346103f357806003193601126103f3576020601e54604051908152f35b50346103f35760403660031901126103f35761150f61339a565b6001600160a01b03168152601060205260408120805460243592908310156103f35760c061153d84846135a2565b508054906001810154906002810154600382015490600560ff600485015416930154936040519586526020860152604085015260608401521515608083015260a0820152f35b50346103f357806003193601126103f357602060ff601554166040519015158152f35b50346103f357806003193601126103f3576115e46040516115c681613436565b60058152640352e302e360dc1b602082015260405191829182613559565b0390f35b50346103f3576115f7366134d3565b908252601c6020526040822080548210156116385761161692506134e9565b5080546001909101546040519182916115e4916001600160a01b031683613505565b8280fd5b50346103f35760403660031901126103f3576103f061165961339a565b6116616133b0565b9061166a613f31565b613bc0565b50346103f35760203660031901126103f3576001600160a01b0361169161339a565b168152601f6020526040812054602080526040822054918282116000146116cc57506115e46116c08383613689565b60405193849384613520565b6115e4906116c0565b50346103f35760203660031901126103f3577fd28d9e4ce68d89af7920cb8618e342a78f51e545c530ce60f1cb1d6f0235b47f6020600435611715613f31565b80601455604051908152a180f35b50346103f35760403660031901126103f35761173d61339a565b60243590611749613f31565b814710610cd1578280808085855af1611760613b90565b5015610cbf576040519182526001600160a01b0316907f288155da11d775f8595652c04f862708561d601d9fd3f04f7aed5f8311296e2490602090a280f35b50346103f35760403660031901126103f3576117b961339a565b602435906117c5613f31565b814710610cd1576117d882601e54613689565b601e558280808085855af16117eb613b90565b5015610cbf576040519182526001600160a01b0316907f27971ee1acbfbdfb20656657ceb2e0e7b519b9e60fe1a6b1f6d27b159f4a607c90602090a280f35b50346103f35760203660031901126103f3576020906040906001600160a01b0361185261339a565b168152601f83522054604051908152f35b50346103f357806003193601126103f3576020600d54604051908152f35b50346103f3577f4e9dd03193a0c81552fb8e6d32280f0d7e0ce8087241dc3d17ef3d193ee231d760406118b3366134d3565b6118bb613f31565b81600c5580600d5582519182526020820152a180f35b50346103f357806003193601126103f3576000805160206153ae833981519152546040516001600160a01b039091168152602090f35b50346103f357806003193601126103f357602060405160038152f35b50346103f357806003193601126103f357602060405160018152f35b50346103f357806003193601126103f3576003546040516001600160a01b039091168152602090f35b50346103f357806003193601126103f357602060405160048152f35b50346103f35760203660031901126103f3576080906040906001600160a01b036119ac61339a565b168152600f6020522080549060018101549060ff6003600283015492015416916040519384526020840152604083015215156060820152f35b50806003193601126103f3576119f9614019565b60ff604e5416610a5b5734156109fe57601654683635c9adc5dea00000808210908115611c33575b50611bdc5760175490611a47611a378334613656565b611a413484613696565b90613669565b6127108034029034820403611c1f57611a63836103e892613669565b116109fe576064611a76600c5483613656565b0491611a828383613689565b85546040516370a0823160e01b815230600482015291956020946001600160a01b03949193928516928681602481875afa80156113d65782918b91611bee575b5010611bdc578893611ad8611ae0933490613696565b601655613689565b601755803b15611bd857818091602460405180948193630852cd8d60e31b83528a60048401525af18015611bcd57611bb5575b5054169181604051809463a9059cbb60e01b8252818881611b388a3360048401613505565b03925af1918215610f36577f36864aeefce16bc4aaceeb6b0cdfb2ad1455a8cb4ccb0db148a2bc6e7166f97c93611b7f93611b97575b505060405191829133953484613420565b0390a260016000805160206154ae8339815191525580f35b81611bad92903d10610c7b57610c6c8183613495565b503880611b6e565b611bbe90613467565b611bc9578438611b13565b8480fd5b6040513d84823e3d90fd5b5080fd5b6040516343c7ad8160e11b8152600490fd5b809250888092503d8311611c18575b611c078183613495565b810103126113ca5781905138611ac2565b503d611bfd565b634e487b7160e01b85526011600452602485fd5b90506017541038611a21565b50346103f35760803660031901126103f357611c5961339a565b611c616133b0565b90611c6a6133c6565b91611c736133dc565b90611c7c613f31565b6001600160a01b039283169182158015611d2d575b8015611d23575b8015611d19575b610f41577f213f1de8063c19612a553f1480ff341bea689d36a56a2089f1b9060d599b5d8394848060809660018060a01b031995878760015416176001551692838660025416176002551692838560035416176003551680936004541617600455604051938452602084015260408301526060820152a180f35b5083811615611c9f565b5083851615611c98565b5083821615611c91565b50346103f357806003193601126103f357601a54620151808101809111611e08574210611df65760175480156109fe57606481049081156109fe5781611d7c91613689565b601755815482906001600160a01b0316803b15611bd857818091602460405180948193630852cd8d60e31b83528860048401525af18015611bcd57611de2575b5060008051602061544e83398151915260408342601a558151908482526020820152a180f35b611deb90613467565b611bd8578138611dbc565b604051636f47a98b60e11b8152600490fd5b634e487b7160e01b82526011600452602482fd5b50346103f357611e2b366134d3565b90825260126020526040822080548210156116385761161692506134e9565b50346103f357806003193601126103f3576020601654604051908152f35b50346103f357806003193601126103f3576001546040516001600160a01b039091168152602090f35b50346103f357806003193601126103f3576020601954604051908152f35b50346103f357806003193601126103f357611ec8613f31565b6000805160206153ae83398151915280546001600160a01b031981169091556000906001600160a01b031660008051602061546e8339815191528280a380f35b50346103f357806003193601126103f3576020601454604051908152f35b50346103f357806003193601126103f35760206040516103e88152f35b50346103f357806003193601126103f3576020601854604051908152f35b50346103f357806003193601126103f3577f00000000000000000000000000000000000000000000000000000000000000006001600160a01b03163003611fba5760206040516000805160206153ce8339815191528152f35b60405163703e46dd60e11b8152600490fd5b50346103f35760203660031901126103f357600435611fe9614019565b60ff604e5416610a5b5780156109fe57683635c9adc5dea000008060165410908115612190575b50611bdc5781546040516323b872dd60e01b81526001600160a01b03916020908290841681878161204689303360048501613afd565b03925af18015610c8257612171575b506064612064600d5484613656565b0461206f8184613689565b9161271080840290848204148415171561215d576120936103e89160175490613669565b116109fe578490815416803b15611bd8578190602460405180948193630852cd8d60e31b83528760048401525af18015610f365761214a575b50601654916120db8382613656565b6120ec60175491611a418484613696565b91824710611bdc577f223c8ad0806f634524940a8595f819c5cfc7b1f4f4f45791269301df0a7e61d594612124849261212c94613696565b601755613689565b6016556121398133614108565b611b7f604051928392339684613420565b61215690949194613467565b92386120cc565b634e487b7160e01b86526011600452602486fd5b6121899060203d602011610c7b57610c6c8183613495565b5038612055565b90506017541038612010565b5060203660031901126103f3576004356121b4613f31565b346122d7575b806121e1575b604060008051602061534e833981519152918151903482526020820152a180f35b81546040516323b872dd60e01b81529060209082906001600160a01b031681868161221188303360048501613afd565b03925af190816122b8575b5061228f57508060033d1161227e575b506308c379a01461224a575b6040516320a9b82760e21b8152600490fd5b612252613b1f565b8061225d5750612238565b6040516387a26b7560e01b815290819061227a9060048301613559565b0390fd5b9050600481803e5160e01c3861222c565b6040816122ad60008051602061534e83398151915293601754613696565b6017559150506121c0565b6122d09060203d602011610c7b57610c6c8183613495565b503861221c565b6122e334601654613696565b6016556121ba565b50346103f357806003193601126103f357612304613f31565b600160ff19604e541617604e557f4cb3183d0bf66f9634b15cfc3539fdddc96c2c9324848af89b56586a6739fec48180a180f35b5060403660031901126103f35761234d61339a565b60249182356001600160401b038111611bd85736602382011215611bd85780600401359261237a846134b8565b6123876040519182613495565b848152602094858201933688838301011161252057818692898993018737830101526001600160a01b037f0000000000000000000000000000000000000000000000000000000000000000811630811490811561252b575b50611fba576123ec613f31565b6040516352d1902d60e01b81529083169580826004818a5afa91829187936124f7575b505061242d57604051634c9c8ce360e01b8152600481018790528790fd5b8590876000805160206153ce833981519152918281036124e25750843b156124cc575080546001600160a01b031916821790556040518592917fbc7cd75a20ee27fd9adebab32041f755214dbc6bffa90cc0225b39da2e5c2d3b8480a28151156124af57506124ab9382915190845af46124a5613b90565b916152a9565b5080f35b9350505050346124bd575080f35b63b398979f60e01b8152600490fd5b604051634c9c8ce360e01b815260048101849052fd5b60405190632a87526960e21b82526004820152fd5b9080929350813d8311612524575b61250f8183613495565b81010312612520575190388061240f565b8580fd5b503d612505565b9050816000805160206153ce83398151915254161415386123df565b50346103f357806003193601126103f357612560613f31565b60ff19604e5416604e557f15de7ad89d29fd1c6d2e6b1e878453569b4080edf34e0105faaa3bd52f0185308180a180f35b50346103f357806003193601126103f3576020604051620151808152f35b50346103f357806003193601126103f3576002546040516001600160a01b039091168152602090f35b50806003193601126103f3576125ec614019565b60ff604e5416610a5b576004546001600160a01b031633036114a85734156109fe576111a934614696565b50346103f35760203660031901126103f3576020906004358152601d8252604060018060a01b0391205416604051908152f35b50346103f357806003193601126103f357612663614019565b6111a96136bb565b5060203660031901126103f357612680614019565b60ff604e5416610a5b5760ff6015541615612bc057338152600f60205260408120600181015415612bae5760ff600382015416612b9c576007600435141580612b8f575b80612b82575b612b705734156109fe576126df601954613631565b60198190553383526010602052604080842090519160c083016001600160401b03811184821017612b5c5760405282523460208301524260408301526004356060830152600160808301528360a0830152805490600160401b821015612b48579061274f916001820181556135a2565b919091612b345760a08160059251845560208101516001850155604081015160028501556060810151600385015561279c60808201511515600486019060ff801983541691151516179055565b01519101556019548252601d602052604082203360018060a01b0319825416179055338252600e602052600a60408320018054918215612b23575b5050609681029080820460961490151715611e08576064900434036109fe576127ff33614056565b601954906040517fa8a1b9e33e503eed12bf7e7c8c01c7f3b60217a496bddd0f5db351dd8c056c1c339180612838866004353484613420565b0390a2338152600e6020526040812054819081906001600160a01b03165b6001600160a01b038116151580612b19575b15612b0f576001600160a01b0381168452600e60205260408420600581015460ff1615612afa57506001600160a01b0381168452600f602052604084206001810154908115908115612aeb575b50612ac6576001600160a01b0382168552600e60205260408520600201546128dc90613f6a565b9190508482116129be575b50602d111561291b576001600160a01b039081168452600e6020526040842054169061291290613631565b915b9190612856565b50505090505b338152600e602052600660408220018181549182612950575b5060016000805160206154ae8339815191525580f35b5560165481811015806129b4575b61296a575b829061293a565b8161297491613689565b6016556129818133614108565b6040519081527f3437b9ea7fa19c6d233dd70cc787a70fab87cee64d8ba4571512cc84402748f960203392a23880612963565b508147101561295e565b6129e0906129cf8396606494613689565b903490803411612abe575b50613656565b04858552601c60205260408520604051906129fa82613436565b6001600160a01b038416825260208201839052805490600160401b821015612aaa5790612a2c916001820181556134e9565b919091612a9657805182546001600160a01b0319166001600160a01b03918216178355602091820151600193909301929092556040519283529083169187917f7c6505ab8279235ad21ebf427336cc8d97c017b4aa1f10ffdff11d3261e4934e91a382602d6128e7565b634e487b7160e01b87526004879052602487fd5b634e487b7160e01b88526041600452602488fd5b9050386129da565b5050600e60205260408320546001600160a01b031690612ae590613631565b91612914565b60ff91506003015416386128b5565b546001600160a01b031691612ae59150613631565b5050509050612921565b5060148210612868565b6001919250015480915538806127d7565b634e487b7160e01b84526004849052602484fd5b634e487b7160e01b85526041600452602485fd5b634e487b7160e01b86526041600452602486fd5b604051634dc7f5ff60e11b8152600490fd5b50601e60043514156126ca565b50600f60043514156126c4565b604051631ecb2c4f60e31b8152600490fd5b604051634065aaf160e11b8152600490fd5b60405162461bcd60e51b8152602060048201526012602482015271131a5c5d5a591a5d1e48191a5cd8589b195960721b6044820152606490fd5b50346103f357806003193601126103f3576020600c54604051908152f35b50346103f357806003193601126103f357602060ff604e54166040519015158152f35b50346103f35760203660031901126103f3576020906040906001600160a01b03612c6361339a565b1681528280522054604051908152f35b50346103f357806003193601126103f357604e5460405160089190911c6001600160a01b03168152602090f35b50346103f35760203660031901126103f357600435906013548210156103f3576020816013600393522091020180546115e46002600184015493015460405193849384613420565b50346103f357806003193601126103f3576020604051683635c9adc5dea000008152f35b50346103f35760203660031901126103f3576115e4906002906040906001600160a01b03612d3861339a565b168152600e602052200154612d4c81613f6a565b92909160405193849384613420565b50346103f357806003193601126103f3576020601754604051908152f35b50346103f35760203660031901126103f357610160906001600160a01b039060409082612da461339a565b168152600e60205220908154169060018101549060028101546003820154600483015460ff600585015416600685015491600786015493600887015495600a6009890154980154986040519a8b5260208b015260408a015260608901526080880152151560a087015260c086015260e0850152610100840152610120830152610140820152f35b50346103f35760203660031901126103f3576020612e4a600435613601565b604051908152f35b50346103f357806003193601126103f357546040516001600160a01b039091168152602090f35b50346103f35760a03660031901126103f357612e9361339a565b612e9b6133b0565b90612ea46133c6565b612eac6133dc565b916084356001600160a01b03818116929183900361306f576000805160206154ce8339815191529485549660ff8860401c16159560018060401b03891698891580613068575b6001809b14908161305e575b159081613055575b50613043576001600160401b031981168a1789558492839189613028575b50612f2d6151f4565b612f356151f4565b612f3e33613ecf565b612f466151f4565b612f4e6151f4565b612f566151f4565b8a6000805160206154ae833981519152558160018060a01b03199716878d5416178c5516858a5416178955168360025416176002551681600354161760035560045416176004556019600555600f6006556005600755600560085560196009556019600a5582600b556032600c556019600d556203f48060145561010161ffff19601554161760155542601a55612feb578280f35b805460ff60401b191690556040519081527fc7f505b2f371ae2175ee4913f4499e1f2633a7b5936321eed1cdaeb6115181d290602090a138808280f35b6001600160481b0319166001600160401b01178a5538612f24565b60405163f92ee8a960e01b8152600490fd5b90501538612f06565b303b159150612efe565b5087612ef2565b8680fd5b50346103f357806003193601126103f357602090604051908152f35b50346103f357806003193601126103f357602060405160028152f35b50346103f35760403660031901126103f3576130c561339a565b6001600160a01b039081168252601160205260408220805460243593908410156103f357506020926130f6916133f2565b9190546040519260031b1c168152f35b50346103f357602080600319360112611bd85761312161339a565b338352600e808352604084205490926001600160a01b0392909183166132c35782163381146132b1578015610f415733808652600e8352604080872080546001600160a01b0319168417905582875260118085529087209091613183916135be565b338652600e835283604087205416948487965b16801515806132a7575b1561327d57808852818552604088209060028201805460018101918282116132695792826132068b9693837fa0eea20e678cb42233c1c456c84cedce7ea53fa360bb71bf3b761b760956777060408e8b996132269b5586825191868352820152a2613f6a565b5061321082613f6a565b509080820361322c575b50505050541697613631565b96613196565b61325d7fea8384d3ca7bf5b7510d3faee44a3774406c1fd3ac14fff110a8c98d47a259569360405193849384613420565b0390a23880808061321a565b634e487b7160e01b8c52600487905260248cfd5b8784337fa6dbb5aa28f35437de94d685d66edce5fb4812196b4984b91dfd5a7b38c0fb308380a380f35b50601e87106131a0565b604051631acade8960e31b8152600490fd5b60405163682a906560e01b8152600490fd5b50346103f357806003193601126103f3576020600a54604051908152f35b50346103f35760403660031901126103f357600435801515809103611bd85760243590811515809203611638577f03cb373f89de891077fe47cec43663b6727713de0337af46bebd1178122251b7917fb886fcb5b9c12916f26d967ebe962dbd51ec249fb55961da39c851cdfc10115c6020809361336f613f31565b6015805461ffff191660ff831617600886901b61ff0016179055604051908152a1604051908152a180f35b600435906001600160a01b03821682036113ca57565b602435906001600160a01b03821682036113ca57565b604435906001600160a01b03821682036113ca57565b606435906001600160a01b03821682036113ca57565b805482101561340a5760005260206000200190600090565b634e487b7160e01b600052603260045260246000fd5b6040919493926060820195825260208201520152565b604081019081106001600160401b0382111761345157604052565b634e487b7160e01b600052604160045260246000fd5b6001600160401b03811161345157604052565b606081019081106001600160401b0382111761345157604052565b601f909101601f19168101906001600160401b0382119082101761345157604052565b6001600160401b03811161345157601f01601f191660200190565b60409060031901126113ca576004359060243590565b805482101561340a5760005260206000209060011b0190600090565b6001600160a01b039091168152602081019190915260400190565b606091949392608082019582526020820152600060408201520152565b9094939260609260808301968352602083015260408201520152565b6020808252825181830181905290939260005b82811061358e57505060409293506000838284010152601f8019910116010190565b81810186015184820160400152850161356c565b805482101561340a576000526006602060002091020190600090565b80549190600160401b83101561345157826135e19160016135ff950181556133f2565b90919060018060a01b038084549260031b9316831b921b1916179055565b565b600381101561362b576002811015613625576001111561362057600090565b600590565b50600a90565b50600f90565b60001981146136405760010190565b634e487b7160e01b600052601160045260246000fd5b8181029291811591840414171561364057565b8115613673570490565b634e487b7160e01b600052601260045260246000fd5b9190820391821161364057565b9190820180921161364057565b908160209103126113ca575180151581036113ca5790565b6000338152602090600f8252604090818120926001936001810154158015613aef575b613ade57338352601082528383209483958185905b6139dd575b50505084156139cc57338352600e82526137188560038686200154613696565b94338452600e835284842095600496878101548092116139b6575b505080156139a757338452600e8352600385852001613753828254613696565b90558060011c918492804710158061399e575b61398c575b60175480158015613978575b156139385750670de0b6b3a7640000905b670de0b6b3a76400009081810291818304149015171561392557906137ac91613669565b855487516370a0823160e01b8152308a820152879492916001600160a01b0316908781602481855afa90811561391b579083918a916138e6575b501015806138dd575b61385c575b50509160008051602061538e83398151915291600e9594938851908152878682015260008051602061548e833981519152893392a2549061383b8851928392339684613520565b0390a233835252206003810154910154111561385357565b6135ff33614403565b816138839293955087918b8a8c5180968195829463a9059cbb60e01b845233908401613505565b03925af180156138d3579160008051602061538e8339815191529391600e979695936138b6575b509394958193506137f4565b6138cc90873d8911610c7b57610c6c8183613495565b50386138aa565b88513d89823e3d90fd5b508115156137ef565b809250898092503d8311613914575b6138ff8183613495565b8101031261391057829051386137e6565b8880fd5b503d6138f5565b8a513d8b823e3d90fd5b634e487b7160e01b875260118952602487fd5b601654670de0b6b3a764000090818102918183041490151715613965579061395f91613669565b90613788565b634e487b7160e01b885260118a52602488fd5b50683635c9adc5dea0000060165410613777565b92506139988333614108565b8261376b565b50801515613766565b5050505050506135ff33614403565b6139c592506003015490613689565b3880613733565b8351630fec21fd60e21b8152600490fd5b8154811015613ad9576139f081836135a2565b508360ff6004809301541615613acf5750613a0e61107583856135a2565b9081613a24575b5050908280925b0190916136f3565b909889613a3091613696565b98613a40600561108885876135a2565b90556002613a4e83856135a2565b5001546003613a5d84866135a2565b500154906201518091828102928184041490151715613abc5791613a85869594928694613696565b421015613a95575b509192613a15565b613a9f82856135a2565b5001805460ff19169055613ab661110e82856135a2565b38613a8d565b634e487b7160e01b895260118352602489fd5b9291839150613a1c565b6136f8565b8351634065aaf160e11b8152600490fd5b5060ff6003820154166136de565b6001600160a01b03918216815291166020820152604081019190915260600190565b600060443d10613b7c57604051600319913d83016004833e81516001600160401b03918282113d602484011117613b7f57818401948551938411613b87573d85010160208487010111613b7f5750613b7c92910160200190613495565b90565b949350505050565b50949350505050565b3d15613bbb573d90613ba1826134b8565b91613baf6040519384613495565b82523d6000602084013e565b606090565b916001600160a01b03908184169081158015613ec5575b610f41578284168083146132b15784846000965b1680151580613ebb575b15613c21578481146132b157600052600e60205284613c1b816040600020541697613631565b96613beb565b506000848152600e60208181526040928390208054969a959950868916989496898b14613eae576001600160a01b0319168a1790558715159485613db6575b613c75908a60005260118352846000206135be565b866000528181526002956002846000200154906001966001830180931161364057613d36575b8a613cd0575b50505050505050507ff8b9fe4d008320e6f048c61e41e9cc56ce351354ad0cb9a868bd3c4bd6928fd5600080a4565b600090875b613ce0575b50613ca1565b861680151580613d2c575b15613d275780600052848452888660002001613d08848254613696565b9055600052838352613d208686600020541691613631565b9087613cd5565b613cda565b50601e8210613ceb565b866000878c835b613d4b575b50505050613c9b565b1680151580613dac575b15613da55760008181528787528890208b0180548611613d9c57613d7a868254613689565b90555b600052858552613d938888600020541691613631565b90889083613d3d565b60009055613d7d565b8890613d42565b50601e8210613d55565b989796959493929190876000526011808252836000209a60005b8c5480821015613e975787908b8f84613de8916133f2565b939054600394851b1c1614613e01575050600101613dd0565b60009e9291939495969798999a9b9c9d9e1995868201918211613e835750906135e18a613e31613e3f94866133f2565b905490871b1c1691846133f2565b80548015613e6d57613c759489910192613e5984846133f2565b81939154921b1b19169055555b9050613c60565b634e487b7160e01b600052603160045260246000fd5b634e487b7160e01b60005260045260246000fd5b50509050613c759192939495969798999a50613e66565b5050505050505050505050565b5060328710613bf5565b5082841615613bd7565b6001600160a01b03908116908115613f18576000805160206153ae83398151915280546001600160a01b0319811684179091551660008051602061546e833981519152600080a3565b604051631e4fbdf760e01b815260006004820152602490fd5b6000805160206153ae833981519152546001600160a01b03163303613f5257565b60405163118cdaa760e01b8152336004820152602490fd5b620186a08110156140105761753081101561400757612710811015613ffe57610bb8811015613ff5576103e8811015613fec5761012c811015613fe3576064811015613fda57601e811015613fd157600a1115613fc957600090600090565b600190600590565b50600290600a90565b50600390600f90565b50600490601490565b50600590601990565b50600690601e90565b50600790602390565b50600890602890565b50600990602d90565b6000805160206154ae83398151915260028154146140375760029055565b604051633ee5aeb560e01b8152600490fd5b8015613640576000190190565b60018060a01b0380600092168252600f60205260408220906001820154151591826140f8575b50600e602052604083206005810160ff8154161515841515146140f157805460ff191660ff8515151617905554169182156140ec57600192604092156140d3578152600e60205220016140cf8154613631565b9055565b815220018054806140e3575b5050565b6140cf90614049565b505050565b5050505050565b6003015460ff161591503861407c565b81156140df57814710610cd157600080809381935af1614126613b90565b5015610cbf57565b600381015461413c81615223565b906201518061414f600285015442613689565b04908082116141a1575b5080156141995761417e633b9aca00916141796005946001870154613656565b613656565b04910154808211614190575050600090565b613b7c91613689565b505050600090565b905038614159565b805182101561340a5760209160051b010190565b805490600090818155826141d057505050565b6001906001600160ff1b038416840361091f578252602082209260011b8301925b8381106141fe5750505050565b8083600292558383820155016141f1565b6000818152601d6020908152604080832054601c83528184208054939695929492936001600160a01b03928316906001600160401b038111612b485786519261425d8a8360051b0185613495565b818452855288852085908a8086015b8484106143d4575050505050835b82518110156143be57808983858a886142b081614299600199866141a9565b515116866142a789876141a9565b51015190614c3b565b948b866142f9575b5091508b93506142e9867fae629b396150638d6eb6de457cbffe5d618a10c8cc199a94976bed2b16ecd993946141a9565b515116938c51908152a30161427a565b8360008051602061536e833981519152946004928560809661431b8d8b6141a9565b5151168252601f86528282206143328c8254613696565b90558061433f8d8b6141a9565b51511682528580528282206143558c8254613696565b90556143618c8a6141a9565b5151168152604f855220928d6143998b84519961437d8b61347a565b87548b5260028f89015498868d01998a520154868c01526141a9565b515116965193519082519485528401528201528c6060820152a383858a888e8b6142b8565b50505050906135ff9394601c91835252206141bd565b6001916002918c516143e581613436565b8a865416815284860154838201528152019201920191908b9061426c565b9060018060a01b039182811690600090828252602091600f8352604091828220916003830190815460ff811615614441575b50505050505050509050565b600160ff1991821681179093556010875285822091998a94859347908590875b6145cc575b505088948d948c9d9e948d867f920bb94eb3842a728db98228c375ff6b00c5bc5a54fac6736155517a0a20a61a9f9b97968f8b979088917ff3a670cd3af7d64b488926880889d08a8585a138ff455227af6737339a1ec2629e9a614570575b50505050505085614551575b898352600e8d52838320600581018054938416905554169060ff1680614548575b80614537575b61451e575b5050519283525087820152a2549051908152a2803880808080808080614435565b8152200161452c8154614049565b9055388381806144fd565b5080825283838320015415156144f8565b508015156144f2565b898352600e8d52600684842001614569878254613696565b90556144d1565b848110614590575050506145849250614108565b8987388f8790826144c5565b9091926000805160206153ee833981519152945081806145bc575b50508251918c8352820152a2614584565b6145c591614108565b38816145ab565b909d8e825411156146905760ff8f6145e6600491856135a2565b500154161561468557878f6145fb90846135a2565b50015480891b9080820460021490151715611141578f614659908a94938561463561012c61462d8397600b5490613656565b0493876135a2565b500154828110614679579061464d8361465393613689565b90613696565b9b613696565b9f600461466682856135a2565b50018881541690555b01919e989e614461565b8b925061465391613696565b979d9087809261466f565b9d614466565b90811561483d57601654683635c9adc5dea00000808210908115614831575b5061482c57476146c58483613696565b1161482c57612710830261270f1984820401613640576146e8826103e892613669565b1161482c57601754926147086146fe8583613656565b611a418385613696565b80158015614823575b61481c5760009460018060a01b038654169060409485516370a0823160e01b8152306004820152602081602481875afa908115614812579083918a916147dd575b50106147d35783889392611ad88761476994613696565b601755803b15611bd85781906024865180948193630852cd8d60e31b83528760048401525af180156147c95760008051602061544e8339815191529596506147ba575b5082519182526020820152a1565b6147c390613467565b386147ac565b84513d88823e3d90fd5b5050505050509050565b9150506020813d60201161480a575b816147f960209383613495565b810103126139105782905138614752565b3d91506147ec565b87513d8b823e3d90fd5b5050509050565b50848111614711565b509050565b905060175410386146b5565b9050565b6001600160a01b039081166000818152600f602090815260408083206001818101805496979096939590949291841580156149ff575b6149aa57601084528682208054839291835b8281106149bf57505050506149b55760028201966148ab885460145490613696565b4211156149aa57600383837f57025f0027038907eda728b59164fb63d06048f42e618a35267e6a12e49b2e469a8a9654998d8352600e895260ff60058985209283541692015416806149a1575b8061498f575b614975575b508c8252600e88528187812095816004600589019860ff19998a81541690558289820155015581855555550190815416905584614946575b5051928352820152a2565b848152601283526149588282206141bd565b848152601b83522080546001600160a01b0319169055833861493b565b82526001878320016149878154614049565b905538614903565b508083526001888420015415156148fe565b508015156148f8565b505050505050505050565b5050505050505050565b60ff60046149cd83856135a2565b500154166149dd575b8301614889565b936149f78491826149ee88866135a2565b50015490613696565b9490506149d6565b5060ff600384015416614877565b60018060a01b0381166000818152600e60205260409182822092600f60205280832060ff60058601541615908115614b37575b8115614b2a575b50614b2157600484019360038554910193614a6485548093613689565b88818111614af8575b50508715614aed57874710614ac6575090614a978760008051602061548e83398151915293613696565b8455614aa38787614108565b805187815260026020820152a25490541115614abd575090565b613b7c90614403565b96929550506000805160206153ee833981519152935080925051908152846020820152a290565b965050505050505090565b819950846000805160206153ee8339815191529187939b82519182526020820152a23880614a6d565b50509250505090565b6001915001541538614a47565b600381015460ff169150614a40565b60018060a01b0381166000818152600e60205260409182822092600f60205280832060ff60058601541615908115614c2c575b8115614c1f575b50614b2157600484019360038554910193614b9d85548093613689565b88818111614bf6575b50508715614aed57874710614ac6575090614bd08760008051602061548e83398151915293613696565b8455614bdc8787614108565b805187815260036020820152a25490541115614abd575090565b819950846000805160206153ee8339815191529187939b82519182526020820152a23880614ba6565b6001915001541538614b80565b600381015460ff169150614b79565b60018060a01b038116600052600e6020526040600020600f602052604060002060ff600583015416159081156151e5575b81156151d8575b50614199578060036004614c8c93015491015490613689565b828181116151a4575b5050811561519d576001600160a01b0381166000908152600e6020526040902090614cbe615249565b90670de0b6b3a76400008460011c028460011c8104670de0b6b3a7640000148560011c1517156136405782614cf291613669565b936040518181528160011c60208201528160011c60408201528360608201528560808201527fa7e66afc02702ffeb435ee9bacce4988459c7b329bf0dd9f8f551d823d1fece060a0600180821b03851692a28492600094600092614d5588615336565b15615157575b8060011c15158061514e575b6150b7575b6000546040516370a0823160e01b81523060048201526001600160a01b0390911696906020816024818b5afa90811561500957600091615085575b508115158061507c575b614f96575b5060029650878260011c118015614f8d575b614f46575b50614deb670de0b6b3a7640000614de48587613656565b0488613696565b978815614ecf5750508060036004920192614e07898554613696565b93849055604080518a8152602081018590526001600160a01b0388169160008051602061548e83398151915291a27fe83062c7bae5146a0afc41b3a8342f225ed2581a8e234e0ba69d9ff8c53a48d660405180614e718b60018060a01b038b16958a42928561353d565b0390a201541115614ec1575b60405193614e8a8561347a565b845260208401908152604084019185835260018060a01b0316600052604f6020526040600020935184555160018401555191015590565b614eca82614403565b614e7d565b915091506040519180835260011c60208301526040820152608060608201526015608082015274139bc81d1bdad95b9cc81d1c985b9cd9995c9c9959605a1b60a08201527fd8349f8ffff882edf1f3a7f209a1d24fb5e821ba347cf8da7f016de352368fd060c060018060a01b03851692a2614e7d565b7f60369b7cd498d613812af36dd7cb398ba493ee0afe0fc21d90a9f8b5fc620aa360405180614f848860018060a01b038b16958d8860011c8561353d565b0390a238614dcd565b50848111614dc8565b94508481111561507657845b948590811161501557506020604051809863a9059cbb60e01b825281600081614fcf8b8d60048401613505565b03925af196871561500957600297614fea575b505b38614db6565b6150029060203d602011610c7b57610c6c8183613495565b5038614fe2565b6040513d6000823e3d90fd5b9094506002965060405190600082526020820152606060408201526013606082015272129090c81d1c985b9cd9995c8819985a5b1959606a1b608082015260008051602061542e83398151915260a0600180821b03881692a2600093614fe4565b80614fa2565b50801515614db1565b90506020813d6020116150af575b816150a060209383613495565b810103126113ca575138614da7565b3d9150615093565b9550478660011c116000146151445747955b864781116150e157506150dc8786614108565b614d6c565b9096506040519081526000602082015260606040820152601960608201527813985d1a5d99481350c81d1c985b9cd9995c8819985a5b1959603a1b608082015260008051602061542e83398151915260a0600180821b03871692a2600095614d6c565b8560011c956150c9565b50471515614d67565b601754604051601490910480825296506001600160a01b038616907fa3c9509a6af5ab7ab677b3caa94bb10373473b146705f236c71768d7b6b1a51390602090a2614d5b565b5050600090565b60408051918252602082018390529193506001600160a01b038316916000805160206153ee83398151915291a23880614c95565b6001915001541538614c73565b600381015460ff169150614c6c565b60ff6000805160206154ce8339815191525460401c161561521157565b604051631afcd79f60e31b8152600490fd5b6007811461524157600f1461523a576301312d0090565b62fe502b90565b5062cb735690565b60175480158015615295575b61528857601654670de0b6b3a76400009081810291818304149015171561364057613b7c9161528391613669565b61530c565b50670de0b6b3a764000090565b50683635c9adc5dea0000060165410615255565b906152d057508051156152be57602081519101fd5b60405163d6bda27560e01b8152600490fd5b81511580615303575b6152e1575090565b604051639996b31560e01b81526001600160a01b039091166004820152602490fd5b50803b156152d9565b67016345785d8a00008082106153315750678ac7230489e80000808211615331575090565b905090565b801561534757601460175404101590565b5060019056fe38f8a0c92f4c5b0b6877f878cb4c0c8d348a47b76d716c8e78f425043df9515b62c4ea4229c396c9b5c33779ec09ed411b29ed8782e48ac358eaa9e8aa58a9b06fcebd0a2ce98b28cb391d6008bbc769378c9a4919628e11639cb575cd320fcc9016d09d72d40fdae2fd8ceac6b6234c7706214fd39c1cd1e609a0528c199300360894a13ba1a3210667c828492db98dca3e2076cc3735a920a3ca505d382bbcb5987aab1afd379f6695f1068869ee8ca6a0d02304c57935a9cc3d3ea2e51e4d520bc217d25ef4588524228dffcfa518f4ad52178c71d49b8061d016213cd311da109f9a8d0129326c2906f581adfd38d938005d44218a2f7c843b9b105af9ba0ec3929061cbbbeecb325623e7d5a86c3dae11cb8a22ca45dc0972955657da258be0079c531659141344cd1fd0a4f28419497f9722a3daafe3b4186f6b6457e0f381583145e90b82cc5e529bf4fc4d0e44397174cdf145c4251ac33ef195a4249b779b17422d0df92223018b32b4d1fa46e071723d6817e2486d003becc55f00f0c57e16840df040f15088dc2f81fe391c3923bec73e23a9662efc9c229c6a00a264697066735822122053b431697870c7b719c14f4195015b1a0b3a5950b47b0646912150f9e31395e964736f6c63430008160033","opcodes":"PUSH1 0xA0 DUP1 PUSH1 0x40 MSTORE CALLVALUE PUSH3 0xD1 JUMPI ADDRESS PUSH1 0x80 MSTORE PUSH32 0xF0C57E16840DF040F15088DC2F81FE391C3923BEC73E23A9662EFC9C229C6A00 SWAP1 DUP2 SLOAD SWAP1 PUSH1 0xFF DUP3 PUSH1 0x40 SHR AND PUSH3 0xC2 JUMPI POP PUSH1 0x1 PUSH1 0x1 PUSH1 0x40 SHL SUB PUSH1 0x2 PUSH1 0x1 PUSH1 0x40 SHL SUB NOT DUP3 DUP3 AND ADD PUSH3 0x7C JUMPI JUMPDEST PUSH1 0x40 MLOAD PUSH2 0x5523 SWAP1 DUP2 PUSH3 0xD7 DUP3 CODECOPY PUSH1 0x80 MLOAD DUP2 DUP2 DUP2 PUSH2 0x1F74 ADD MSTORE PUSH2 0x23B3 ADD MSTORE RETURN JUMPDEST PUSH1 0x1 PUSH1 0x1 PUSH1 0x40 SHL SUB NOT SWAP1 SWAP2 AND DUP2 OR SWAP1 SWAP2 SSTORE PUSH1 0x40 MLOAD SWAP1 DUP2 MSTORE PUSH32 0xC7F505B2F371AE2175EE4913F4499E1F2633A7B5936321EED1CDAEB6115181D2 SWAP1 PUSH1 0x20 SWAP1 LOG1 CODESIZE DUP1 DUP1 PUSH3 0x5C JUMP JUMPDEST PUSH4 0xF92EE8A9 PUSH1 0xE0 SHL DUP2 MSTORE PUSH1 0x4 SWAP1 REVERT JUMPDEST PUSH1 0x0 DUP1 REVERT INVALID PUSH1 0x80 PUSH1 0x40 MSTORE PUSH1 0x4 CALLDATASIZE LT ISZERO PUSH2 0x56 JUMPI JUMPDEST CALLDATASIZE ISZERO PUSH2 0x19 JUMPI PUSH1 0x0 DUP1 REVERT JUMPDEST PUSH2 0x25 CALLVALUE PUSH1 0x16 SLOAD PUSH2 0x3696 JUMP JUMPDEST PUSH1 0x16 SSTORE PUSH1 0x40 MLOAD CALLVALUE DUP2 MSTORE PUSH32 0xC8382E3E3003D34021113F35BF95EE86B77A09EC08C4EB3CBE64076E60468F4E PUSH1 0x20 CALLER SWAP3 LOG2 STOP JUMPDEST PUSH1 0x0 DUP1 CALLDATALOAD PUSH1 0xE0 SHR DUP1 PUSH4 0x1D62EFB EQ PUSH2 0x32F3 JUMPI DUP1 PUSH4 0x4EF9D58 EQ PUSH2 0x32D5 JUMPI DUP1 PUSH4 0x4F618CB EQ PUSH2 0x3106 JUMPI DUP1 PUSH4 0x5AD3935 EQ PUSH2 0x30AB JUMPI DUP1 PUSH4 0xE2BE210 EQ PUSH2 0x308F JUMPI DUP1 PUSH4 0x1427F616 EQ PUSH2 0x3073 JUMPI DUP1 PUSH4 0x1459457A EQ PUSH2 0x2E79 JUMPI DUP1 PUSH4 0x1788513C EQ PUSH2 0x2E52 JUMPI DUP1 PUSH4 0x182C84CC EQ PUSH2 0x2E2B JUMPI DUP1 PUSH4 0x1959A002 EQ PUSH2 0x2D79 JUMPI DUP1 PUSH4 0x1D0DAC76 EQ PUSH2 0x2D5B JUMPI DUP1 PUSH4 0x21923BDE EQ PUSH2 0x2D0C JUMPI DUP1 PUSH4 0x21B77D63 EQ PUSH2 0x2CE8 JUMPI DUP1 PUSH4 0x21F483D3 EQ PUSH2 0x2CA0 JUMPI DUP1 PUSH4 0x2630C12F EQ PUSH2 0x2C73 JUMPI DUP1 PUSH4 0x263F30B3 EQ PUSH2 0x2C3B JUMPI DUP1 PUSH4 0x27C830A9 EQ PUSH2 0x2C18 JUMPI DUP1 PUSH4 0x27F082F4 EQ PUSH2 0x2BFA JUMPI DUP1 PUSH4 0x35076373 EQ PUSH2 0x266B JUMPI DUP1 PUSH4 0x372500AB EQ PUSH2 0x264A JUMPI DUP1 PUSH4 0x3DBD46BD EQ PUSH2 0x2617 JUMPI DUP1 PUSH4 0x4348B59B EQ PUSH2 0x25D8 JUMPI DUP1 PUSH4 0x4626402B EQ PUSH2 0x25AF JUMPI DUP1 PUSH4 0x488B5D97 EQ PUSH2 0x2591 JUMPI DUP1 PUSH4 0x4A4E3BD5 EQ PUSH2 0x2547 JUMPI DUP1 PUSH4 0x4F1EF286 EQ PUSH2 0x2338 JUMPI DUP1 PUSH4 0x51858E27 EQ PUSH2 0x22EB JUMPI DUP1 PUSH4 0x51C6590A EQ PUSH2 0x219C JUMPI DUP1 PUSH4 0x52778B05 EQ PUSH2 0x1FCC JUMPI DUP1 PUSH4 0x52D1902D EQ PUSH2 0x1F61 JUMPI DUP1 PUSH4 0x6031A52F EQ PUSH2 0x1F43 JUMPI DUP1 PUSH4 0x6839B5FA EQ PUSH2 0x1F26 JUMPI DUP1 PUSH4 0x6DD66827 EQ PUSH2 0x1F08 JUMPI DUP1 PUSH4 0x715018A6 EQ PUSH2 0x1EAF JUMPI DUP1 PUSH4 0x75506C96 EQ PUSH2 0x1E91 JUMPI DUP1 PUSH4 0x75F0A874 EQ PUSH2 0x1E68 JUMPI DUP1 PUSH4 0x77A2A540 EQ PUSH2 0x1E4A JUMPI DUP1 PUSH4 0x813380CD EQ PUSH2 0x1E1C JUMPI DUP1 PUSH4 0x81EEEF5C EQ PUSH2 0x1D37 JUMPI DUP1 PUSH4 0x83672F3E EQ PUSH2 0x1C3F JUMPI DUP1 PUSH4 0x841D308B EQ PUSH2 0x19E5 JUMPI DUP1 PUSH4 0x8710BCAA EQ PUSH2 0x1984 JUMPI DUP1 PUSH4 0x88481B61 EQ PUSH2 0x1968 JUMPI DUP1 PUSH4 0x88FD4D33 EQ PUSH2 0x193F JUMPI DUP1 PUSH4 0x8A859A85 EQ PUSH2 0x1923 JUMPI DUP1 PUSH4 0x8C0EAA48 EQ PUSH2 0x1907 JUMPI DUP1 PUSH4 0x8DA5CB5B EQ PUSH2 0x18D1 JUMPI DUP1 PUSH4 0x90B0EB51 EQ PUSH2 0x1881 JUMPI DUP1 PUSH4 0x9370B080 EQ PUSH2 0x1863 JUMPI DUP1 PUSH4 0x98AD675A EQ PUSH2 0x182A JUMPI DUP1 PUSH4 0x99B6024D EQ PUSH2 0x179F JUMPI DUP1 PUSH4 0x9B788504 EQ PUSH2 0x1723 JUMPI DUP1 PUSH4 0x9D99ECA4 EQ PUSH2 0x16D5 JUMPI DUP1 PUSH4 0xA1D7D1A9 EQ PUSH2 0x166F JUMPI DUP1 PUSH4 0xA2AF9226 EQ PUSH2 0x163C JUMPI DUP1 PUSH4 0xAC8F50AA EQ PUSH2 0x15E8 JUMPI DUP1 PUSH4 0xAD3CB1CC EQ PUSH2 0x15A6 JUMPI DUP1 PUSH4 0xB048A4BB EQ PUSH2 0x1583 JUMPI DUP1 PUSH4 0xB5D5B5FA EQ PUSH2 0x14F5 JUMPI DUP1 PUSH4 0xB759936B EQ PUSH2 0x14D7 JUMPI DUP1 PUSH4 0xBD594DCF EQ PUSH2 0x14B9 JUMPI DUP1 PUSH4 0xBE040FB0 EQ PUSH2 0xFA4 JUMPI DUP1 PUSH4 0xC2FF12FC EQ PUSH2 0xF71 JUMPI DUP1 PUSH4 0xCCF61944 EQ PUSH2 0xF53 JUMPI DUP1 PUSH4 0xCEA9D26F EQ PUSH2 0xE60 JUMPI DUP1 PUSH4 0xCEAA366D EQ PUSH2 0xE42 JUMPI DUP1 PUSH4 0xD0F16470 EQ PUSH2 0xDB8 JUMPI DUP1 PUSH4 0xD2C8E0E5 EQ PUSH2 0xD09 JUMPI DUP1 PUSH4 0xD2F82536 EQ PUSH2 0xCE3 JUMPI DUP1 PUSH4 0xD4F00142 EQ PUSH2 0xB87 JUMPI DUP1 PUSH4 0xD8020A18 EQ PUSH2 0xB69 JUMPI DUP1 PUSH4 0xDCE3DC1F EQ PUSH2 0xB3E JUMPI DUP1 PUSH4 0xDEAB8AEA EQ PUSH2 0xB15 JUMPI DUP1 PUSH4 0xDEC7FA3B EQ PUSH2 0xAF7 JUMPI DUP1 PUSH4 0xE3067449 EQ PUSH2 0xAD9 JUMPI DUP1 PUSH4 0xE4412F68 EQ PUSH2 0xABB JUMPI DUP1 PUSH4 0xECE71266 EQ PUSH2 0xA6D JUMPI DUP1 PUSH4 0xEDCA914C EQ PUSH2 0x3F6 JUMPI PUSH4 0xF2FDE38B EQ PUSH2 0x3C7 JUMPI POP PUSH2 0xE JUMP JUMPDEST CALLVALUE PUSH2 0x3F3 JUMPI PUSH1 0x20 CALLDATASIZE PUSH1 0x3 NOT ADD SLT PUSH2 0x3F3 JUMPI PUSH2 0x3F0 PUSH2 0x3E3 PUSH2 0x339A JUMP JUMPDEST PUSH2 0x3EB PUSH2 0x3F31 JUMP JUMPDEST PUSH2 0x3ECF JUMP JUMPDEST DUP1 RETURN JUMPDEST DUP1 REVERT JUMPDEST POP DUP1 PUSH1 0x3 NOT CALLDATASIZE ADD SLT PUSH2 0x3F3 JUMPI PUSH2 0x40A PUSH2 0x4019 JUMP JUMPDEST PUSH1 0xFF PUSH1 0x4E SLOAD AND PUSH2 0xA5B JUMPI CALLER DUP2 MSTORE PUSH1 0xE PUSH1 0x20 MSTORE PUSH1 0x40 DUP2 KECCAK256 SLOAD PUSH1 0x1 PUSH1 0x1 PUSH1 0xA0 SHL SUB AND ISZERO PUSH2 0xA49 JUMPI PUSH2 0x438 CALLER PUSH2 0x4841 JUMP JUMPDEST PUSH9 0x56BC75E2D63100000 CALLVALUE EQ ISZERO DUP1 PUSH2 0xA36 JUMPI JUMPDEST DUP1 PUSH2 0xA23 JUMPI JUMPDEST DUP1 PUSH2 0xA10 JUMPI JUMPDEST PUSH2 0x9FE JUMPI CALLER DUP2 MSTORE PUSH1 0xF PUSH1 0x20 MSTORE PUSH1 0x40 DUP2 KECCAK256 PUSH1 0x3 DUP2 ADD DUP1 SLOAD PUSH1 0xFF AND ISZERO PUSH2 0x933 JUMPI PUSH2 0x480 PUSH1 0x18 SLOAD PUSH2 0x3631 JUMP JUMPDEST DUP1 PUSH1 0x18 SSTORE DUP3 SSTORE CALLVALUE PUSH1 0x1 DUP4 ADD SSTORE TIMESTAMP PUSH1 0x2 DUP4 ADD SSTORE PUSH1 0xFF NOT DUP2 SLOAD AND SWAP1 SSTORE CALLER DUP3 MSTORE PUSH1 0xE PUSH1 0x20 MSTORE DUP2 PUSH1 0x3 PUSH1 0x40 DUP3 KECCAK256 ADD SSTORE PUSH1 0x3 CALLVALUE MUL CALLVALUE DUP2 DIV PUSH1 0x3 EQ CALLVALUE ISZERO OR ISZERO PUSH2 0x91F JUMPI CALLER DUP4 MSTORE PUSH1 0xE PUSH1 0x20 MSTORE PUSH1 0x4 PUSH1 0x40 DUP5 KECCAK256 ADD SSTORE JUMPDEST PUSH1 0xA PUSH1 0x1 DUP3 ADD SLOAD CALLER DUP5 MSTORE PUSH1 0xE PUSH1 0x20 MSTORE PUSH1 0x40 DUP5 KECCAK256 SWAP1 PUSH1 0x9 DUP3 ADD DUP1 SLOAD DUP3 GT PUSH2 0x917 JUMPI JUMPDEST POP POP ADD DUP1 SLOAD CALLVALUE GT PUSH2 0x90E JUMPI JUMPDEST POP DUP1 SLOAD DUP3 MSTORE PUSH1 0x1B PUSH1 0x20 SWAP1 DUP2 MSTORE PUSH1 0x40 DUP1 DUP5 KECCAK256 DUP1 SLOAD PUSH1 0x1 PUSH1 0x1 PUSH1 0xA0 SHL SUB NOT AND CALLER SWAP1 DUP2 OR SWAP1 SWAP2 SSTORE DUP5 MSTORE PUSH1 0xE SWAP1 SWAP2 MSTORE DUP3 KECCAK256 SLOAD PUSH1 0x1 PUSH1 0x1 PUSH1 0xA0 SHL SUB AND DUP1 ISZERO ISZERO DUP1 PUSH2 0x8FA JUMPI JUMPDEST ISZERO PUSH2 0x8D8 JUMPI PUSH2 0x558 PUSH1 0x64 PUSH2 0x551 PUSH1 0x5 SLOAD CALLVALUE PUSH2 0x3656 JUMP JUMPDEST DIV DUP3 PUSH2 0x4A0D JUMP JUMPDEST SWAP1 DUP2 PUSH2 0x8A3 JUMPI JUMPDEST POP POP JUMPDEST CALLER DUP3 MSTORE PUSH1 0xE PUSH1 0x20 MSTORE PUSH1 0x40 DUP3 KECCAK256 SLOAD DUP3 SWAP2 DUP3 SWAP2 PUSH1 0x1 PUSH1 0x1 PUSH1 0xA0 SHL SUB AND SWAP1 DUP3 SWAP1 CALLVALUE DUP1 ISZERO SWAP1 DUP1 DIV PUSH1 0x1 EQ OR ISZERO PUSH2 0x88F JUMPI SWAP4 SWAP5 SWAP2 JUMPDEST PUSH1 0x1 PUSH1 0x1 PUSH1 0xA0 SHL SUB DUP2 AND ISZERO ISZERO DUP1 PUSH2 0x885 JUMPI JUMPDEST DUP1 PUSH2 0x87B JUMPI JUMPDEST ISZERO PUSH2 0x6AE JUMPI PUSH1 0x1 PUSH1 0x1 PUSH1 0xA0 SHL SUB DUP2 AND DUP5 MSTORE PUSH1 0xE PUSH1 0x20 MSTORE PUSH1 0x40 DUP5 KECCAK256 PUSH1 0x5 DUP2 ADD SLOAD PUSH1 0xFF AND ISZERO PUSH2 0x68F JUMPI POP PUSH1 0x1 DUP1 PUSH1 0xA0 SHL SUB DUP2 AND SWAP1 DUP2 DUP6 MSTORE PUSH1 0xE PUSH1 0x20 MSTORE DUP4 PUSH2 0x5F5 PUSH1 0x1 PUSH1 0x40 DUP9 KECCAK256 ADD SLOAD PUSH2 0x3601 JUMP JUMPDEST GT PUSH2 0x62F JUMPI JUMPDEST POP DUP4 MSTORE PUSH1 0xE PUSH1 0x20 MSTORE PUSH1 0x40 DUP4 KECCAK256 SLOAD PUSH1 0x1 PUSH1 0x1 PUSH1 0xA0 SHL SUB AND SWAP2 PUSH2 0x625 SWAP1 PUSH2 0x61F SWAP1 PUSH2 0x3631 JUMP JUMPDEST SWAP6 PUSH2 0x3631 JUMP JUMPDEST SWAP4 JUMPDEST SWAP4 SWAP5 SWAP2 PUSH2 0x592 JUMP JUMPDEST PUSH2 0x63D SWAP1 PUSH1 0x64 CALLVALUE DIV SWAP1 PUSH2 0x4B46 JUMP JUMPDEST DUP1 ISZERO PUSH2 0x5FB JUMPI SWAP2 DUP3 PUSH2 0x64E SWAP2 PUSH2 0x3696 JUMP JUMPDEST SWAP2 CALLER DUP6 MSTORE PUSH1 0xF PUSH1 0x20 MSTORE PUSH1 0x40 DUP6 KECCAK256 SLOAD PUSH1 0x40 MLOAD SWAP2 DUP3 MSTORE DUP6 PUSH1 0x20 DUP4 ADD MSTORE PUSH1 0x3 PUSH1 0x40 DUP4 ADD MSTORE PUSH1 0x60 DUP3 ADD MSTORE DUP2 PUSH1 0x0 DUP1 MLOAD PUSH1 0x20 PUSH2 0x536E DUP4 CODECOPY DUP2 MLOAD SWAP2 MSTORE PUSH1 0x80 CALLER SWAP4 LOG3 CODESIZE PUSH2 0x5FB JUMP JUMPDEST SLOAD SWAP3 SWAP6 PUSH1 0x1 PUSH1 0x1 PUSH1 0xA0 SHL SUB SWAP1 SWAP4 AND SWAP3 PUSH2 0x6A8 SWAP2 POP PUSH2 0x3631 JUMP JUMPDEST SWAP4 PUSH2 0x627 JUMP JUMPDEST DUP4 DUP6 PUSH2 0x6C8 DUP5 PUSH1 0x64 PUSH2 0x6C2 PUSH1 0x6 SLOAD CALLVALUE PUSH2 0x3656 JUMP JUMPDEST DIV PUSH2 0x3689 JUMP JUMPDEST DUP1 PUSH2 0x836 JUMPI JUMPDEST POP PUSH1 0x1 DUP1 PUSH1 0xA0 SHL SUB PUSH1 0x1 SLOAD AND PUSH2 0x6F5 PUSH1 0x7 SWAP2 PUSH1 0x64 PUSH2 0x6EE PUSH1 0x7 SLOAD CALLVALUE PUSH2 0x3656 JUMP JUMPDEST DIV SWAP1 PUSH2 0x4108 JUMP JUMPDEST PUSH1 0x64 PUSH2 0x703 PUSH1 0x8 SLOAD CALLVALUE PUSH2 0x3656 JUMP JUMPDEST DIV DUP1 PUSH2 0x81A JUMPI JUMPDEST POP PUSH2 0x727 PUSH1 0x1 DUP1 PUSH1 0xA0 SHL SUB PUSH1 0x3 SLOAD AND PUSH1 0x64 PUSH2 0x6EE PUSH1 0x9 SLOAD CALLVALUE PUSH2 0x3656 JUMP JUMPDEST PUSH2 0x743 PUSH1 0x1 DUP1 PUSH1 0xA0 SHL SUB PUSH1 0x2 SLOAD AND PUSH1 0x64 PUSH2 0x6EE PUSH1 0xA SLOAD CALLVALUE PUSH2 0x3656 JUMP JUMPDEST CALLER PUSH1 0x0 SWAP1 DUP2 MSTORE PUSH1 0xE PUSH1 0x20 MSTORE PUSH1 0x40 DUP2 KECCAK256 SLOAD SWAP1 SWAP3 CALLVALUE ISZERO ISZERO SWAP3 SWAP2 PUSH1 0x1 PUSH1 0x1 PUSH1 0xA0 SHL SUB AND JUMPDEST PUSH1 0x1 PUSH1 0x1 PUSH1 0xA0 SHL SUB AND DUP1 ISZERO ISZERO DUP1 PUSH2 0x810 JUMPI JUMPDEST ISZERO PUSH2 0x7BD JUMPI PUSH1 0x0 MSTORE PUSH1 0xE PUSH1 0x20 MSTORE PUSH2 0x7A2 DUP4 PUSH1 0x40 PUSH1 0x0 KECCAK256 SWAP1 PUSH2 0x7A8 JUMPI JUMPDEST SLOAD PUSH1 0x1 PUSH1 0x1 PUSH1 0xA0 SHL SUB AND SWAP5 PUSH2 0x3631 JUMP JUMPDEST SWAP4 PUSH2 0x764 JUMP JUMPDEST DUP4 DUP2 ADD PUSH2 0x7B6 CALLVALUE DUP3 SLOAD PUSH2 0x3696 JUMP JUMPDEST SWAP1 SSTORE PUSH2 0x792 JUMP JUMPDEST DUP6 DUP3 PUSH2 0x7C8 CALLER PUSH2 0x4056 JUMP JUMPDEST SLOAD PUSH1 0x40 MLOAD SWAP1 CALLVALUE DUP3 MSTORE PUSH1 0x20 DUP3 ADD MSTORE PUSH32 0x2A91574E12AD96234E84923E146B0946ECFB871CD8D5534DC1FDCBE87A7C01B3 PUSH1 0x40 CALLER SWAP3 LOG2 PUSH1 0x1 PUSH1 0x0 DUP1 MLOAD PUSH1 0x20 PUSH2 0x54AE DUP4 CODECOPY DUP2 MLOAD SWAP2 MSTORE SSTORE DUP1 RETURN JUMPDEST POP PUSH1 0x1E DUP6 LT PUSH2 0x776 JUMP JUMPDEST PUSH1 0x4 SLOAD PUSH2 0x830 SWAP2 SWAP1 PUSH1 0x1 PUSH1 0x1 PUSH1 0xA0 SHL SUB AND PUSH2 0x4108 JUMP JUMPDEST DUP4 PUSH2 0x70A JUMP JUMPDEST PUSH1 0x40 DUP2 PUSH2 0x866 PUSH32 0xCA2E2BFF26D2ADB9FE155E9265350494C16751676879CB7CED9141E0FCF39343 SWAP4 PUSH1 0x1E SLOAD PUSH2 0x3696 JUMP JUMPDEST DUP1 PUSH1 0x1E SSTORE DUP3 MLOAD SWAP2 DUP3 MSTORE PUSH1 0x20 DUP3 ADD MSTORE LOG1 DUP3 PUSH2 0x6CE JUMP JUMPDEST POP PUSH1 0x14 DUP7 LT PUSH2 0x5AA JUMP JUMPDEST POP PUSH1 0xF DUP4 LT PUSH2 0x5A4 JUMP JUMPDEST PUSH4 0x4E487B71 PUSH1 0xE0 SHL DUP5 MSTORE PUSH1 0x11 PUSH1 0x4 MSTORE PUSH1 0x24 DUP5 REVERT JUMPDEST DUP3 SLOAD PUSH1 0x40 MLOAD SWAP3 DUP4 MSTORE DUP5 PUSH1 0x20 DUP5 ADD MSTORE PUSH1 0x2 PUSH1 0x40 DUP5 ADD MSTORE PUSH1 0x60 DUP4 ADD MSTORE PUSH1 0x0 DUP1 MLOAD PUSH1 0x20 PUSH2 0x536E DUP4 CODECOPY DUP2 MLOAD SWAP2 MSTORE PUSH1 0x80 CALLER SWAP4 LOG3 CODESIZE DUP1 PUSH2 0x55F JUMP JUMPDEST POP PUSH2 0x8F5 PUSH1 0x1 DUP1 PUSH1 0xA0 SHL SUB PUSH1 0x1 SLOAD AND PUSH1 0x64 PUSH2 0x6EE PUSH1 0x5 SLOAD CALLVALUE PUSH2 0x3656 JUMP JUMPDEST PUSH2 0x562 JUMP JUMPDEST POP DUP1 DUP4 MSTORE PUSH1 0xFF PUSH1 0x5 PUSH1 0x40 DUP6 KECCAK256 ADD SLOAD AND PUSH2 0x53B JUMP JUMPDEST CALLVALUE SWAP1 SSTORE CODESIZE PUSH2 0x4FB JUMP JUMPDEST SSTORE CODESIZE DUP1 PUSH2 0x4EF JUMP JUMPDEST PUSH4 0x4E487B71 PUSH1 0xE0 SHL DUP4 MSTORE PUSH1 0x11 PUSH1 0x4 MSTORE PUSH1 0x24 DUP4 REVERT JUMPDEST PUSH1 0x1 DUP3 ADD DUP1 SLOAD DUP1 PUSH2 0x999 JUMPI POP PUSH2 0x94A PUSH1 0x18 SLOAD PUSH2 0x3631 JUMP JUMPDEST DUP1 PUSH1 0x18 SSTORE DUP4 SSTORE CALLVALUE SWAP1 SSTORE TIMESTAMP PUSH1 0x2 DUP4 ADD SSTORE PUSH1 0xFF NOT DUP2 SLOAD AND SWAP1 SSTORE CALLER DUP3 MSTORE PUSH1 0xE PUSH1 0x20 MSTORE DUP2 PUSH1 0x3 PUSH1 0x40 DUP3 KECCAK256 ADD SSTORE PUSH1 0x3 CALLVALUE MUL CALLVALUE DUP2 DIV PUSH1 0x3 EQ CALLVALUE ISZERO OR ISZERO PUSH2 0x91F JUMPI CALLER DUP4 MSTORE PUSH1 0xE PUSH1 0x20 MSTORE PUSH1 0x4 PUSH1 0x40 DUP5 KECCAK256 ADD SSTORE PUSH2 0x4CE JUMP JUMPDEST PUSH2 0x9A6 SWAP2 SWAP3 POP CALLVALUE SWAP1 PUSH2 0x3696 JUMP JUMPDEST SWAP1 SSTORE CALLER DUP3 MSTORE PUSH1 0xE PUSH1 0x20 MSTORE PUSH1 0xFF PUSH1 0x5 PUSH1 0x40 DUP5 KECCAK256 ADD SLOAD AND PUSH2 0x9F3 JUMPI JUMPDEST PUSH1 0x3 CALLVALUE MUL CALLVALUE DUP2 DIV PUSH1 0x3 EQ CALLVALUE ISZERO OR ISZERO PUSH2 0x91F JUMPI CALLER DUP4 MSTORE PUSH1 0xE PUSH1 0x20 MSTORE PUSH2 0x9EC PUSH1 0x4 PUSH1 0x40 DUP6 KECCAK256 ADD SWAP2 DUP3 SLOAD PUSH2 0x3696 JUMP JUMPDEST SWAP1 SSTORE PUSH2 0x4CE JUMP JUMPDEST TIMESTAMP PUSH1 0x2 DUP3 ADD SSTORE PUSH2 0x9C0 JUMP JUMPDEST PUSH1 0x40 MLOAD PUSH4 0x162908E3 PUSH1 0xE1 SHL DUP2 MSTORE PUSH1 0x4 SWAP1 REVERT JUMPDEST POP PUSH9 0x3635C9ADC5DEA00000 CALLVALUE EQ ISZERO PUSH2 0x457 JUMP JUMPDEST POP PUSH9 0x1B1AE4D6E2EF500000 CALLVALUE EQ ISZERO PUSH2 0x451 JUMP JUMPDEST POP PUSH9 0x1043561A8829300000 CALLVALUE EQ ISZERO PUSH2 0x44B JUMP JUMPDEST PUSH1 0x40 MLOAD PUSH4 0x5359877D PUSH1 0xE0 SHL DUP2 MSTORE PUSH1 0x4 SWAP1 REVERT JUMPDEST PUSH1 0x40 MLOAD PUSH4 0xAB35696F PUSH1 0xE0 SHL DUP2 MSTORE PUSH1 0x4 SWAP1 REVERT JUMPDEST POP CALLVALUE PUSH2 0x3F3 JUMPI PUSH1 0x20 CALLDATASIZE PUSH1 0x3 NOT ADD SLT PUSH2 0x3F3 JUMPI PUSH32 0xC7F6975DCFFC536E6E57DD1D1DEA810FFF534A70563BAF2D6F977B119BD00E1B PUSH1 0x20 PUSH1 0x4 CALLDATALOAD PUSH2 0xAAD PUSH2 0x3F31 JUMP JUMPDEST DUP1 PUSH1 0xB SSTORE PUSH1 0x40 MLOAD SWAP1 DUP2 MSTORE LOG1 DUP1 RETURN JUMPDEST POP CALLVALUE PUSH2 0x3F3 JUMPI DUP1 PUSH1 0x3 NOT CALLDATASIZE ADD SLT PUSH2 0x3F3 JUMPI PUSH1 0x20 PUSH1 0x8 SLOAD PUSH1 0x40 MLOAD SWAP1 DUP2 MSTORE RETURN JUMPDEST POP CALLVALUE PUSH2 0x3F3 JUMPI DUP1 PUSH1 0x3 NOT CALLDATASIZE ADD SLT PUSH2 0x3F3 JUMPI PUSH1 0x20 PUSH1 0x1A SLOAD PUSH1 0x40 MLOAD SWAP1 DUP2 MSTORE RETURN JUMPDEST POP CALLVALUE PUSH2 0x3F3 JUMPI DUP1 PUSH1 0x3 NOT CALLDATASIZE ADD SLT PUSH2 0x3F3 JUMPI PUSH1 0x20 PUSH1 0xB SLOAD PUSH1 0x40 MLOAD SWAP1 DUP2 MSTORE RETURN JUMPDEST POP CALLVALUE PUSH2 0x3F3 JUMPI DUP1 PUSH1 0x3 NOT CALLDATASIZE ADD SLT PUSH2 0x3F3 JUMPI PUSH1 0x4 SLOAD PUSH1 0x40 MLOAD PUSH1 0x1 PUSH1 0x1 PUSH1 0xA0 SHL SUB SWAP1 SWAP2 AND DUP2 MSTORE PUSH1 0x20 SWAP1 RETURN JUMPDEST POP CALLVALUE PUSH2 0x3F3 JUMPI PUSH1 0x20 CALLDATASIZE PUSH1 0x3 NOT ADD SLT PUSH2 0x3F3 JUMPI PUSH1 0x40 PUSH2 0xB5D PUSH1 0x4 CALLDATALOAD PUSH2 0x3F6A JUMP JUMPDEST DUP3 MLOAD SWAP2 DUP3 MSTORE PUSH1 0x20 DUP3 ADD MSTORE RETURN JUMPDEST POP CALLVALUE PUSH2 0x3F3 JUMPI DUP1 PUSH1 0x3 NOT CALLDATASIZE ADD SLT PUSH2 0x3F3 JUMPI PUSH1 0x20 PUSH1 0x7 SLOAD PUSH1 0x40 MLOAD SWAP1 DUP2 MSTORE RETURN JUMPDEST POP CALLVALUE PUSH2 0x3F3 JUMPI PUSH1 0x80 CALLDATASIZE PUSH1 0x3 NOT ADD SLT PUSH2 0x3F3 JUMPI PUSH2 0xBA1 PUSH2 0x339A JUMP JUMPDEST PUSH1 0x24 CALLDATALOAD SWAP1 PUSH2 0xBAD PUSH2 0x33C6 JUMP JUMPDEST PUSH1 0x64 CALLDATALOAD SWAP2 PUSH2 0xBB9 PUSH2 0x3F31 JUMP JUMPDEST DUP4 PUSH2 0xC8D JUMPI JUMPDEST POP DUP2 PUSH2 0xBE8 JUMPI JUMPDEST POP PUSH1 0x0 DUP1 MLOAD PUSH1 0x20 PUSH2 0x540E DUP4 CODECOPY DUP2 MLOAD SWAP2 MSTORE SWAP2 PUSH1 0x40 SWAP2 DUP3 MLOAD SWAP2 DUP3 MSTORE PUSH1 0x20 DUP3 ADD MSTORE LOG1 DUP1 RETURN JUMPDEST SWAP2 PUSH1 0x20 DUP3 PUSH2 0xC27 SWAP5 PUSH2 0xBFC DUP3 PUSH1 0x17 SLOAD PUSH2 0x3689 JUMP JUMPDEST PUSH1 0x17 SSTORE PUSH1 0x1 DUP1 PUSH1 0xA0 SHL SUB DUP8 SLOAD AND SWAP1 DUP8 PUSH1 0x40 MLOAD DUP1 SWAP9 DUP2 SWAP6 DUP3 SWAP5 PUSH4 0xA9059CBB PUSH1 0xE0 SHL DUP5 MSTORE PUSH1 0x4 DUP5 ADD PUSH2 0x3505 JUMP JUMPDEST SUB SWAP3 GAS CALL SWAP2 DUP3 ISZERO PUSH2 0xC82 JUMPI PUSH1 0x0 DUP1 MLOAD PUSH1 0x20 PUSH2 0x540E DUP4 CODECOPY DUP2 MLOAD SWAP2 MSTORE SWAP4 PUSH1 0x40 SWAP4 PUSH2 0xC53 JUMPI JUMPDEST POP SWAP2 POP SWAP2 PUSH2 0xBC6 JUMP JUMPDEST PUSH2 0xC74 SWAP1 PUSH1 0x20 RETURNDATASIZE PUSH1 0x20 GT PUSH2 0xC7B JUMPI JUMPDEST PUSH2 0xC6C DUP2 DUP4 PUSH2 0x3495 JUMP JUMPDEST DUP2 ADD SWAP1 PUSH2 0x36A3 JUMP JUMPDEST POP CODESIZE PUSH2 0xC4A JUMP JUMPDEST POP RETURNDATASIZE PUSH2 0xC62 JUMP JUMPDEST PUSH1 0x40 MLOAD RETURNDATASIZE DUP7 DUP3 RETURNDATACOPY RETURNDATASIZE SWAP1 REVERT JUMPDEST DUP4 SELFBALANCE LT PUSH2 0xCD1 JUMPI DUP5 DUP1 DUP1 DUP7 DUP2 SWAP5 PUSH2 0xCA6 DUP3 PUSH1 0x16 SLOAD PUSH2 0x3689 JUMP JUMPDEST PUSH1 0x16 SSTORE GAS CALL PUSH2 0xCB3 PUSH2 0x3B90 JUMP JUMPDEST POP ISZERO PUSH2 0xCBF JUMPI CODESIZE PUSH2 0xBBF JUMP JUMPDEST PUSH1 0x40 MLOAD PUSH4 0x3D2CEC6F PUSH1 0xE2 SHL DUP2 MSTORE PUSH1 0x4 SWAP1 REVERT JUMPDEST PUSH1 0x40 MLOAD PUSH4 0xDBC3A71F PUSH1 0xE0 SHL DUP2 MSTORE PUSH1 0x4 SWAP1 REVERT JUMPDEST POP CALLVALUE PUSH2 0x3F3 JUMPI DUP1 PUSH1 0x3 NOT CALLDATASIZE ADD SLT PUSH2 0x3F3 JUMPI PUSH1 0x20 PUSH1 0xFF PUSH1 0x15 SLOAD PUSH1 0x8 SHR AND PUSH1 0x40 MLOAD SWAP1 ISZERO ISZERO DUP2 MSTORE RETURN JUMPDEST POP CALLVALUE PUSH2 0x3F3 JUMPI PUSH1 0x20 SWAP1 DUP2 PUSH1 0x3 NOT CALLDATASIZE ADD SLT PUSH2 0x3F3 JUMPI PUSH1 0x1 PUSH1 0x1 PUSH1 0xA0 SHL SUB SWAP2 SWAP1 DUP3 PUSH2 0xD30 PUSH2 0x339A JUMP JUMPDEST AND DUP2 MSTORE PUSH1 0x11 DUP3 MSTORE PUSH1 0x40 DUP2 KECCAK256 SWAP1 PUSH1 0x40 MLOAD DUP1 DUP5 DUP5 SLOAD SWAP2 DUP3 DUP2 MSTORE ADD SWAP1 DUP2 SWAP5 DUP5 MSTORE DUP6 DUP5 KECCAK256 SWAP1 DUP5 JUMPDEST DUP2 DUP2 LT PUSH2 0xDA2 JUMPI POP POP POP DUP2 PUSH2 0xD69 SWAP2 SUB DUP3 PUSH2 0x3495 JUMP JUMPDEST PUSH1 0x40 MLOAD SWAP4 DUP1 DUP6 ADD SWAP2 DUP2 DUP7 MSTORE MLOAD DUP1 SWAP3 MSTORE PUSH1 0x40 DUP6 ADD SWAP4 SWAP3 JUMPDEST DUP3 DUP2 LT PUSH2 0xD8C JUMPI DUP6 DUP6 SUB DUP7 RETURN JUMPDEST DUP4 MLOAD DUP8 AND DUP6 MSTORE SWAP4 DUP2 ADD SWAP4 SWAP3 DUP2 ADD SWAP3 PUSH1 0x1 ADD PUSH2 0xD7F JUMP JUMPDEST DUP3 SLOAD DUP10 AND DUP5 MSTORE SWAP3 DUP8 ADD SWAP3 PUSH1 0x1 SWAP3 DUP4 ADD SWAP3 ADD PUSH2 0xD53 JUMP JUMPDEST POP CALLVALUE PUSH2 0x3F3 JUMPI PUSH1 0xC0 CALLDATASIZE PUSH1 0x3 NOT ADD SLT PUSH2 0x3F3 JUMPI PUSH32 0x66682B276E4CD1A4E1F68B55B1143766C5332F472EB593CF2A70A25D9D5D9917 PUSH1 0xC0 PUSH1 0x4 CALLDATALOAD PUSH1 0xA4 CALLDATALOAD PUSH1 0x84 CALLDATALOAD PUSH1 0x64 CALLDATALOAD PUSH1 0x44 CALLDATALOAD PUSH1 0x24 CALLDATALOAD PUSH2 0xE07 PUSH2 0x3F31 JUMP JUMPDEST DUP6 PUSH1 0x5 SSTORE DUP1 PUSH1 0x6 SSTORE DUP2 PUSH1 0x7 SSTORE DUP3 PUSH1 0x8 SSTORE DUP4 PUSH1 0x9 SSTORE DUP5 PUSH1 0xA SSTORE PUSH1 0x40 MLOAD SWAP6 DUP7 MSTORE PUSH1 0x20 DUP7 ADD MSTORE PUSH1 0x40 DUP6 ADD MSTORE PUSH1 0x60 DUP5 ADD MSTORE PUSH1 0x80 DUP4 ADD MSTORE PUSH1 0xA0 DUP3 ADD MSTORE LOG1 DUP1 RETURN JUMPDEST POP CALLVALUE PUSH2 0x3F3 JUMPI DUP1 PUSH1 0x3 NOT CALLDATASIZE ADD SLT PUSH2 0x3F3 JUMPI PUSH1 0x20 PUSH1 0x9 SLOAD PUSH1 0x40 MLOAD SWAP1 DUP2 MSTORE RETURN JUMPDEST POP CALLVALUE PUSH2 0x3F3 JUMPI PUSH1 0x60 CALLDATASIZE PUSH1 0x3 NOT ADD SLT PUSH2 0x3F3 JUMPI PUSH2 0xE7A PUSH2 0x339A JUMP JUMPDEST PUSH2 0xE82 PUSH2 0x33B0 JUMP JUMPDEST PUSH1 0x44 CALLDATALOAD SWAP2 PUSH2 0xE8E PUSH2 0x3F31 JUMP JUMPDEST DUP4 SLOAD PUSH1 0x1 PUSH1 0x1 PUSH1 0xA0 SHL SUB DUP3 DUP2 AND SWAP5 SWAP2 DUP2 AND DUP6 EQ PUSH2 0xF41 JUMPI DUP4 AND ISZERO PUSH2 0xF41 JUMPI PUSH1 0x20 PUSH1 0x40 MLOAD DUP1 SWAP6 PUSH4 0xA9059CBB PUSH1 0xE0 SHL DUP3 MSTORE DUP2 DUP9 DUP2 PUSH2 0xECE DUP8 DUP11 PUSH1 0x4 DUP5 ADD PUSH2 0x3505 JUMP JUMPDEST SUB SWAP3 GAS CALL SWAP1 DUP2 ISZERO PUSH2 0xF36 JUMPI PUSH32 0x77023E19C7343AD491FD706C36335CA0E738340A91F29B1FD81E2673D44896C4 SWAP5 PUSH2 0xF11 SWAP3 PUSH2 0xF17 JUMPI JUMPDEST POP PUSH1 0x40 MLOAD SWAP4 DUP5 SWAP4 DUP5 PUSH2 0x3AFD JUMP JUMPDEST SUB SWAP1 LOG1 DUP1 RETURN JUMPDEST PUSH2 0xF2F SWAP1 PUSH1 0x20 RETURNDATASIZE PUSH1 0x20 GT PUSH2 0xC7B JUMPI PUSH2 0xC6C DUP2 DUP4 PUSH2 0x3495 JUMP JUMPDEST POP CODESIZE PUSH2 0xF04 JUMP JUMPDEST PUSH1 0x40 MLOAD RETURNDATASIZE DUP8 DUP3 RETURNDATACOPY RETURNDATASIZE SWAP1 REVERT JUMPDEST PUSH1 0x40 MLOAD PUSH4 0xE6C4247B PUSH1 0xE0 SHL DUP2 MSTORE PUSH1 0x4 SWAP1 REVERT JUMPDEST POP CALLVALUE PUSH2 0x3F3 JUMPI DUP1 PUSH1 0x3 NOT CALLDATASIZE ADD SLT PUSH2 0x3F3 JUMPI PUSH1 0x20 PUSH1 0x5 SLOAD PUSH1 0x40 MLOAD SWAP1 DUP2 MSTORE RETURN JUMPDEST POP CALLVALUE PUSH2 0x3F3 JUMPI PUSH1 0x20 CALLDATASIZE PUSH1 0x3 NOT ADD SLT PUSH2 0x3F3 JUMPI PUSH1 0x20 SWAP1 PUSH1 0x4 CALLDATALOAD DUP2 MSTORE PUSH1 0x1B DUP3 MSTORE PUSH1 0x40 PUSH1 0x1 DUP1 PUSH1 0xA0 SHL SUB SWAP2 KECCAK256 SLOAD AND PUSH1 0x40 MLOAD SWAP1 DUP2 MSTORE RETURN JUMPDEST POP CALLVALUE PUSH2 0x3F3 JUMPI DUP1 PUSH1 0x3 NOT CALLDATASIZE ADD SLT PUSH2 0x3F3 JUMPI PUSH2 0xFBD PUSH2 0x4019 JUMP JUMPDEST PUSH1 0xFF DUP1 PUSH1 0x15 SLOAD PUSH1 0x8 SHR AND ISZERO PUSH2 0x14A8 JUMPI CALLER DUP3 MSTORE PUSH1 0x20 SWAP2 PUSH1 0x10 DUP4 MSTORE PUSH1 0x40 DUP2 KECCAK256 SWAP3 DUP2 DUP3 DUP4 SWAP2 DUP5 JUMPDEST DUP8 SLOAD DUP2 LT ISZERO PUSH2 0x115D JUMPI DUP7 PUSH1 0x4 PUSH2 0xFF7 DUP4 DUP12 PUSH2 0x35A2 JUMP JUMPDEST POP ADD SLOAD AND ISZERO PUSH2 0x1155 JUMPI PUSH1 0x2 PUSH2 0x100C DUP3 DUP11 PUSH2 0x35A2 JUMP JUMPDEST POP ADD SLOAD PUSH1 0x3 PUSH2 0x101B DUP4 DUP12 PUSH2 0x35A2 JUMP JUMPDEST POP ADD SLOAD SWAP1 PUSH3 0x15180 SWAP2 DUP3 DUP2 MUL SWAP3 DUP2 DUP5 DIV EQ SWAP1 ISZERO OR ISZERO PUSH2 0x1141 JUMPI DUP10 SWAP2 PUSH2 0x103F SWAP2 PUSH2 0x3696 JUMP JUMPDEST TIMESTAMP LT ISZERO PUSH2 0x1052 JUMPI JUMPDEST POP PUSH1 0x1 SWAP1 JUMPDEST ADD PUSH2 0xFE1 JUMP JUMPDEST SWAP4 DUP2 SWAP3 SWAP4 PUSH2 0x10EA SWAP2 PUSH2 0x1092 PUSH1 0x5 PUSH2 0x1088 DUP7 PUSH2 0x1082 PUSH2 0x107B PUSH2 0x1075 PUSH1 0x1 SWAP11 DUP15 PUSH2 0x35A2 JUMP JUMPDEST POP PUSH2 0x412E JUMP JUMPDEST DUP1 SWAP7 PUSH2 0x3696 JUMP JUMPDEST SWAP11 PUSH2 0x35A2 JUMP JUMPDEST POP ADD SWAP2 DUP3 SLOAD PUSH2 0x3696 JUMP JUMPDEST SWAP1 SSTORE CALLER DUP9 MSTORE PUSH1 0xE DUP8 MSTORE PUSH1 0x9 PUSH1 0x40 DUP10 KECCAK256 ADD SLOAD DUP1 ISZERO PUSH2 0x1130 JUMPI JUMPDEST PUSH2 0x10B9 PUSH1 0x64 SWAP2 PUSH1 0xB SLOAD SWAP1 PUSH2 0x3656 JUMP JUMPDEST DIV DUP4 PUSH2 0x10C5 DUP7 DUP14 PUSH2 0x35A2 JUMP JUMPDEST POP ADD SLOAD DUP2 DUP2 GT ISZERO PUSH2 0x111D JUMPI SWAP1 PUSH2 0x10DE DUP2 PUSH2 0x10E4 SWAP4 PUSH2 0x3689 JUMP JUMPDEST SWAP3 PUSH2 0x3696 JUMP JUMPDEST SWAP5 PUSH2 0x3696 JUMP JUMPDEST SWAP2 PUSH1 0x4 PUSH2 0x10F7 DUP3 DUP12 PUSH2 0x35A2 JUMP JUMPDEST POP ADD DUP1 SLOAD PUSH1 0xFF NOT AND SWAP1 SSTORE PUSH2 0x1115 PUSH2 0x110E DUP3 DUP12 PUSH2 0x35A2 JUMP JUMPDEST POP SLOAD PUSH2 0x420F JUMP JUMPDEST SWAP1 POP DUP8 PUSH2 0x1047 JUMP JUMPDEST SWAP1 POP PUSH2 0x1128 SWAP2 PUSH2 0x3696 JUMP JUMPDEST SWAP4 DUP8 SWAP1 PUSH2 0x3696 JUMP JUMPDEST POP PUSH1 0xF DUP8 MSTORE PUSH1 0x40 DUP9 KECCAK256 DUP4 ADD SLOAD PUSH2 0x10AA JUMP JUMPDEST PUSH4 0x4E487B71 PUSH1 0xE0 SHL DUP9 MSTORE PUSH1 0x11 PUSH1 0x4 MSTORE PUSH1 0x24 DUP9 REVERT JUMPDEST PUSH1 0x1 SWAP1 PUSH2 0x104C JUMP JUMPDEST POP DUP5 SWAP4 SWAP2 DUP2 ISZERO SWAP1 DUP2 DUP1 PUSH2 0x14A0 JUMPI JUMPDEST PUSH2 0x148E JUMPI DUP1 PUSH2 0x1479 JUMPI JUMPDEST POP DUP4 PUSH2 0x11DC JUMPI JUMPDEST PUSH1 0xE SWAP4 POP ISZERO PUSH2 0x11CC JUMPI JUMPDEST POP PUSH2 0x1190 CALLER PUSH2 0x4056 JUMP JUMPDEST CALLER DUP4 MSTORE MSTORE PUSH1 0x40 DUP2 KECCAK256 PUSH1 0x4 PUSH1 0x3 DUP3 ADD SLOAD SWAP2 ADD SLOAD GT ISZERO PUSH2 0x11BE JUMPI JUMPDEST PUSH1 0x1 PUSH1 0x0 DUP1 MLOAD PUSH1 0x20 PUSH2 0x54AE DUP4 CODECOPY DUP2 MLOAD SWAP2 MSTORE SSTORE DUP1 RETURN JUMPDEST PUSH2 0x11C7 CALLER PUSH2 0x4403 JUMP JUMPDEST PUSH2 0x11A9 JUMP JUMPDEST PUSH2 0x11D6 SWAP1 CALLER PUSH2 0x4108 JUMP JUMPDEST DUP4 PUSH2 0x1186 JUMP JUMPDEST CALLER DUP6 MSTORE PUSH1 0xE DUP4 MSTORE PUSH2 0x11FA PUSH1 0x40 DUP7 KECCAK256 PUSH1 0x3 PUSH1 0x4 DUP3 ADD SLOAD SWAP2 ADD SLOAD SWAP1 PUSH2 0x3689 JUMP JUMPDEST DUP1 DUP6 GT PUSH2 0x1451 JUMPI JUMPDEST POP DUP4 ISZERO PUSH2 0x117C JUMPI CALLER DUP6 MSTORE PUSH1 0xE DUP4 MSTORE PUSH1 0x3 PUSH1 0x40 DUP7 KECCAK256 ADD PUSH2 0x1222 DUP6 DUP3 SLOAD PUSH2 0x3696 JUMP JUMPDEST SWAP1 SSTORE DUP4 PUSH1 0x1 SHR DUP6 SWAP1 DUP1 SELFBALANCE LT ISZERO DUP1 PUSH2 0x1448 JUMPI JUMPDEST PUSH2 0x1436 JUMPI JUMPDEST PUSH1 0x17 SLOAD DUP1 ISZERO DUP1 ISZERO PUSH2 0x1422 JUMPI JUMPDEST ISZERO PUSH2 0x13E1 JUMPI POP PUSH8 0xDE0B6B3A7640000 SWAP1 JUMPDEST PUSH8 0xDE0B6B3A7640000 SWAP1 DUP2 DUP2 MUL SWAP2 DUP2 DUP4 DIV EQ SWAP1 ISZERO OR ISZERO PUSH2 0x1141 JUMPI SWAP1 PUSH2 0x127A SWAP2 PUSH2 0x3669 JUMP JUMPDEST DUP7 SLOAD PUSH1 0x40 MLOAD PUSH4 0x70A08231 PUSH1 0xE0 SHL DUP2 MSTORE ADDRESS PUSH1 0x4 DUP3 ADD MSTORE DUP9 SWAP3 PUSH1 0x1 PUSH1 0x1 PUSH1 0xA0 SHL SUB SWAP1 SWAP3 AND SWAP2 SWAP1 DUP8 DUP2 PUSH1 0x24 DUP2 DUP7 GAS STATICCALL DUP1 ISZERO PUSH2 0x13D6 JUMPI DUP3 SWAP2 DUP12 SWAP2 PUSH2 0x13A0 JUMPI JUMPDEST POP LT ISZERO DUP1 PUSH2 0x1397 JUMPI JUMPDEST PUSH2 0x131E JUMPI JUMPDEST POP POP PUSH1 0x0 DUP1 MLOAD PUSH1 0x20 PUSH2 0x538E DUP4 CODECOPY DUP2 MLOAD SWAP2 MSTORE SWAP1 PUSH1 0xE SWAP7 PUSH1 0x40 MLOAD SWAP1 DUP2 MSTORE PUSH1 0x0 DUP8 DUP3 ADD MSTORE PUSH1 0x0 DUP1 MLOAD PUSH1 0x20 PUSH2 0x548E DUP4 CODECOPY DUP2 MLOAD SWAP2 MSTORE PUSH1 0x40 CALLER SWAP3 LOG2 CALLER DUP9 MSTORE PUSH1 0xF DUP7 MSTORE PUSH1 0x40 DUP9 KECCAK256 SLOAD SWAP1 PUSH2 0x1316 PUSH1 0x40 MLOAD SWAP3 DUP4 SWAP3 CALLER SWAP7 DUP5 PUSH2 0x3520 JUMP JUMPDEST SUB SWAP1 LOG2 PUSH2 0x117C JUMP JUMPDEST SWAP2 POP SWAP6 DUP6 PUSH1 0x40 MLOAD DUP1 SWAP9 PUSH4 0xA9059CBB PUSH1 0xE0 SHL DUP3 MSTORE DUP2 DUP12 DUP2 PUSH2 0x1342 DUP9 CALLER PUSH1 0x4 DUP5 ADD PUSH2 0x3505 JUMP JUMPDEST SUB SWAP3 GAS CALL SWAP2 DUP3 ISZERO PUSH2 0x138C JUMPI PUSH1 0xE SWAP8 PUSH1 0x0 DUP1 MLOAD PUSH1 0x20 PUSH2 0x538E DUP4 CODECOPY DUP2 MLOAD SWAP2 MSTORE SWAP4 PUSH2 0x136F JUMPI JUMPDEST POP SWAP2 DUP2 SWAP8 POP PUSH2 0x12C3 JUMP JUMPDEST PUSH2 0x1385 SWAP1 DUP9 RETURNDATASIZE DUP11 GT PUSH2 0xC7B JUMPI PUSH2 0xC6C DUP2 DUP4 PUSH2 0x3495 JUMP JUMPDEST POP DUP10 PUSH2 0x1365 JUMP JUMPDEST PUSH1 0x40 MLOAD RETURNDATASIZE DUP11 DUP3 RETURNDATACOPY RETURNDATASIZE SWAP1 REVERT JUMPDEST POP DUP1 ISZERO ISZERO PUSH2 0x12BE JUMP JUMPDEST DUP1 SWAP3 POP DUP10 DUP1 SWAP3 POP RETURNDATASIZE DUP4 GT PUSH2 0x13CF JUMPI JUMPDEST PUSH2 0x13B9 DUP2 DUP4 PUSH2 0x3495 JUMP JUMPDEST DUP2 ADD SUB SLT PUSH2 0x13CA JUMPI DUP2 SWAP1 MLOAD DUP12 PUSH2 0x12B5 JUMP JUMPDEST PUSH1 0x0 DUP1 REVERT JUMPDEST POP RETURNDATASIZE PUSH2 0x13AF JUMP JUMPDEST PUSH1 0x40 MLOAD RETURNDATASIZE DUP13 DUP3 RETURNDATACOPY RETURNDATASIZE SWAP1 REVERT JUMPDEST PUSH1 0x16 SLOAD PUSH8 0xDE0B6B3A7640000 SWAP1 DUP2 DUP2 MUL SWAP2 DUP2 DUP4 DIV EQ SWAP1 ISZERO OR ISZERO PUSH2 0x140E JUMPI SWAP1 PUSH2 0x1408 SWAP2 PUSH2 0x3669 JUMP JUMPDEST SWAP1 PUSH2 0x1256 JUMP JUMPDEST PUSH4 0x4E487B71 PUSH1 0xE0 SHL DUP10 MSTORE PUSH1 0x11 PUSH1 0x4 MSTORE PUSH1 0x24 DUP10 REVERT JUMPDEST POP PUSH9 0x3635C9ADC5DEA00000 PUSH1 0x16 SLOAD LT PUSH2 0x1245 JUMP JUMPDEST SWAP1 POP PUSH2 0x1442 DUP2 CALLER PUSH2 0x4108 JUMP JUMPDEST DUP1 PUSH2 0x1239 JUMP JUMPDEST POP DUP1 ISZERO ISZERO PUSH2 0x1234 JUMP JUMPDEST SWAP1 SWAP4 PUSH1 0x40 MLOAD SWAP1 DUP2 MSTORE DUP2 DUP5 DUP3 ADD MSTORE PUSH1 0x0 DUP1 MLOAD PUSH1 0x20 PUSH2 0x53EE DUP4 CODECOPY DUP2 MLOAD SWAP2 MSTORE PUSH1 0x40 CALLER SWAP3 LOG2 SWAP3 DUP6 PUSH2 0x1202 JUMP JUMPDEST PUSH2 0x1485 SWAP1 PUSH1 0x16 SLOAD PUSH2 0x3696 JUMP JUMPDEST PUSH1 0x16 SSTORE DUP6 PUSH2 0x1175 JUMP JUMPDEST PUSH1 0x40 MLOAD PUSH4 0x4C4857B PUSH1 0xE5 SHL DUP2 MSTORE PUSH1 0x4 SWAP1 REVERT JUMPDEST POP DUP5 ISZERO PUSH2 0x116B JUMP JUMPDEST PUSH1 0x40 MLOAD PUSH3 0x82B429 PUSH1 0xE8 SHL DUP2 MSTORE PUSH1 0x4 SWAP1 REVERT JUMPDEST POP CALLVALUE PUSH2 0x3F3 JUMPI DUP1 PUSH1 0x3 NOT CALLDATASIZE ADD SLT PUSH2 0x3F3 JUMPI PUSH1 0x20 PUSH1 0x6 SLOAD PUSH1 0x40 MLOAD SWAP1 DUP2 MSTORE RETURN JUMPDEST POP CALLVALUE PUSH2 0x3F3 JUMPI DUP1 PUSH1 0x3 NOT CALLDATASIZE ADD SLT PUSH2 0x3F3 JUMPI PUSH1 0x20 PUSH1 0x1E SLOAD PUSH1 0x40 MLOAD SWAP1 DUP2 MSTORE RETURN JUMPDEST POP CALLVALUE PUSH2 0x3F3 JUMPI PUSH1 0x40 CALLDATASIZE PUSH1 0x3 NOT ADD SLT PUSH2 0x3F3 JUMPI PUSH2 0x150F PUSH2 0x339A JUMP JUMPDEST PUSH1 0x1 PUSH1 0x1 PUSH1 0xA0 SHL SUB AND DUP2 MSTORE PUSH1 0x10 PUSH1 0x20 MSTORE PUSH1 0x40 DUP2 KECCAK256 DUP1 SLOAD PUSH1 0x24 CALLDATALOAD SWAP3 SWAP1 DUP4 LT ISZERO PUSH2 0x3F3 JUMPI PUSH1 0xC0 PUSH2 0x153D DUP5 DUP5 PUSH2 0x35A2 JUMP JUMPDEST POP DUP1 SLOAD SWAP1 PUSH1 0x1 DUP2 ADD SLOAD SWAP1 PUSH1 0x2 DUP2 ADD SLOAD PUSH1 0x3 DUP3 ADD SLOAD SWAP1 PUSH1 0x5 PUSH1 0xFF PUSH1 0x4 DUP6 ADD SLOAD AND SWAP4 ADD SLOAD SWAP4 PUSH1 0x40 MLOAD SWAP6 DUP7 MSTORE PUSH1 0x20 DUP7 ADD MSTORE PUSH1 0x40 DUP6 ADD MSTORE PUSH1 0x60 DUP5 ADD MSTORE ISZERO ISZERO PUSH1 0x80 DUP4 ADD MSTORE PUSH1 0xA0 DUP3 ADD MSTORE RETURN JUMPDEST POP CALLVALUE PUSH2 0x3F3 JUMPI DUP1 PUSH1 0x3 NOT CALLDATASIZE ADD SLT PUSH2 0x3F3 JUMPI PUSH1 0x20 PUSH1 0xFF PUSH1 0x15 SLOAD AND PUSH1 0x40 MLOAD SWAP1 ISZERO ISZERO DUP2 MSTORE RETURN JUMPDEST POP CALLVALUE PUSH2 0x3F3 JUMPI DUP1 PUSH1 0x3 NOT CALLDATASIZE ADD SLT PUSH2 0x3F3 JUMPI PUSH2 0x15E4 PUSH1 0x40 MLOAD PUSH2 0x15C6 DUP2 PUSH2 0x3436 JUMP JUMPDEST PUSH1 0x5 DUP2 MSTORE PUSH5 0x352E302E3 PUSH1 0xDC SHL PUSH1 0x20 DUP3 ADD MSTORE PUSH1 0x40 MLOAD SWAP2 DUP3 SWAP2 DUP3 PUSH2 0x3559 JUMP JUMPDEST SUB SWAP1 RETURN JUMPDEST POP CALLVALUE PUSH2 0x3F3 JUMPI PUSH2 0x15F7 CALLDATASIZE PUSH2 0x34D3 JUMP JUMPDEST SWAP1 DUP3 MSTORE PUSH1 0x1C PUSH1 0x20 MSTORE PUSH1 0x40 DUP3 KECCAK256 DUP1 SLOAD DUP3 LT ISZERO PUSH2 0x1638 JUMPI PUSH2 0x1616 SWAP3 POP PUSH2 0x34E9 JUMP JUMPDEST POP DUP1 SLOAD PUSH1 0x1 SWAP1 SWAP2 ADD SLOAD PUSH1 0x40 MLOAD SWAP2 DUP3 SWAP2 PUSH2 0x15E4 SWAP2 PUSH1 0x1 PUSH1 0x1 PUSH1 0xA0 SHL SUB AND DUP4 PUSH2 0x3505 JUMP JUMPDEST DUP3 DUP1 REVERT JUMPDEST POP CALLVALUE PUSH2 0x3F3 JUMPI PUSH1 0x40 CALLDATASIZE PUSH1 0x3 NOT ADD SLT PUSH2 0x3F3 JUMPI PUSH2 0x3F0 PUSH2 0x1659 PUSH2 0x339A JUMP JUMPDEST PUSH2 0x1661 PUSH2 0x33B0 JUMP JUMPDEST SWAP1 PUSH2 0x166A PUSH2 0x3F31 JUMP JUMPDEST PUSH2 0x3BC0 JUMP JUMPDEST POP CALLVALUE PUSH2 0x3F3 JUMPI PUSH1 0x20 CALLDATASIZE PUSH1 0x3 NOT ADD SLT PUSH2 0x3F3 JUMPI PUSH1 0x1 PUSH1 0x1 PUSH1 0xA0 SHL SUB PUSH2 0x1691 PUSH2 0x339A JUMP JUMPDEST AND DUP2 MSTORE PUSH1 0x1F PUSH1 0x20 MSTORE PUSH1 0x40 DUP2 KECCAK256 SLOAD PUSH1 0x20 DUP1 MSTORE PUSH1 0x40 DUP3 KECCAK256 SLOAD SWAP2 DUP3 DUP3 GT PUSH1 0x0 EQ PUSH2 0x16CC JUMPI POP PUSH2 0x15E4 PUSH2 0x16C0 DUP4 DUP4 PUSH2 0x3689 JUMP JUMPDEST PUSH1 0x40 MLOAD SWAP4 DUP5 SWAP4 DUP5 PUSH2 0x3520 JUMP JUMPDEST PUSH2 0x15E4 SWAP1 PUSH2 0x16C0 JUMP JUMPDEST POP CALLVALUE PUSH2 0x3F3 JUMPI PUSH1 0x20 CALLDATASIZE PUSH1 0x3 NOT ADD SLT PUSH2 0x3F3 JUMPI PUSH32 0xD28D9E4CE68D89AF7920CB8618E342A78F51E545C530CE60F1CB1D6F0235B47F PUSH1 0x20 PUSH1 0x4 CALLDATALOAD PUSH2 0x1715 PUSH2 0x3F31 JUMP JUMPDEST DUP1 PUSH1 0x14 SSTORE PUSH1 0x40 MLOAD SWAP1 DUP2 MSTORE LOG1 DUP1 RETURN JUMPDEST POP CALLVALUE PUSH2 0x3F3 JUMPI PUSH1 0x40 CALLDATASIZE PUSH1 0x3 NOT ADD SLT PUSH2 0x3F3 JUMPI PUSH2 0x173D PUSH2 0x339A JUMP JUMPDEST PUSH1 0x24 CALLDATALOAD SWAP1 PUSH2 0x1749 PUSH2 0x3F31 JUMP JUMPDEST DUP2 SELFBALANCE LT PUSH2 0xCD1 JUMPI DUP3 DUP1 DUP1 DUP1 DUP6 DUP6 GAS CALL PUSH2 0x1760 PUSH2 0x3B90 JUMP JUMPDEST POP ISZERO PUSH2 0xCBF JUMPI PUSH1 0x40 MLOAD SWAP2 DUP3 MSTORE PUSH1 0x1 PUSH1 0x1 PUSH1 0xA0 SHL SUB AND SWAP1 PUSH32 0x288155DA11D775F8595652C04F862708561D601D9FD3F04F7AED5F8311296E24 SWAP1 PUSH1 0x20 SWAP1 LOG2 DUP1 RETURN JUMPDEST POP CALLVALUE PUSH2 0x3F3 JUMPI PUSH1 0x40 CALLDATASIZE PUSH1 0x3 NOT ADD SLT PUSH2 0x3F3 JUMPI PUSH2 0x17B9 PUSH2 0x339A JUMP JUMPDEST PUSH1 0x24 CALLDATALOAD SWAP1 PUSH2 0x17C5 PUSH2 0x3F31 JUMP JUMPDEST DUP2 SELFBALANCE LT PUSH2 0xCD1 JUMPI PUSH2 0x17D8 DUP3 PUSH1 0x1E SLOAD PUSH2 0x3689 JUMP JUMPDEST PUSH1 0x1E SSTORE DUP3 DUP1 DUP1 DUP1 DUP6 DUP6 GAS CALL PUSH2 0x17EB PUSH2 0x3B90 JUMP JUMPDEST POP ISZERO PUSH2 0xCBF JUMPI PUSH1 0x40 MLOAD SWAP2 DUP3 MSTORE PUSH1 0x1 PUSH1 0x1 PUSH1 0xA0 SHL SUB AND SWAP1 PUSH32 0x27971EE1ACBFBDFB20656657CEB2E0E7B519B9E60FE1A6B1F6D27B159F4A607C SWAP1 PUSH1 0x20 SWAP1 LOG2 DUP1 RETURN JUMPDEST POP CALLVALUE PUSH2 0x3F3 JUMPI PUSH1 0x20 CALLDATASIZE PUSH1 0x3 NOT ADD SLT PUSH2 0x3F3 JUMPI PUSH1 0x20 SWAP1 PUSH1 0x40 SWAP1 PUSH1 0x1 PUSH1 0x1 PUSH1 0xA0 SHL SUB PUSH2 0x1852 PUSH2 0x339A JUMP JUMPDEST AND DUP2 MSTORE PUSH1 0x1F DUP4 MSTORE KECCAK256 SLOAD PUSH1 0x40 MLOAD SWAP1 DUP2 MSTORE RETURN JUMPDEST POP CALLVALUE PUSH2 0x3F3 JUMPI DUP1 PUSH1 0x3 NOT CALLDATASIZE ADD SLT PUSH2 0x3F3 JUMPI PUSH1 0x20 PUSH1 0xD SLOAD PUSH1 0x40 MLOAD SWAP1 DUP2 MSTORE RETURN JUMPDEST POP CALLVALUE PUSH2 0x3F3 JUMPI PUSH32 0x4E9DD03193A0C81552FB8E6D32280F0D7E0CE8087241DC3D17EF3D193EE231D7 PUSH1 0x40 PUSH2 0x18B3 CALLDATASIZE PUSH2 0x34D3 JUMP JUMPDEST PUSH2 0x18BB PUSH2 0x3F31 JUMP JUMPDEST DUP2 PUSH1 0xC SSTORE DUP1 PUSH1 0xD SSTORE DUP3 MLOAD SWAP2 DUP3 MSTORE PUSH1 0x20 DUP3 ADD MSTORE LOG1 DUP1 RETURN JUMPDEST POP CALLVALUE PUSH2 0x3F3 JUMPI DUP1 PUSH1 0x3 NOT CALLDATASIZE ADD SLT PUSH2 0x3F3 JUMPI PUSH1 0x0 DUP1 MLOAD PUSH1 0x20 PUSH2 0x53AE DUP4 CODECOPY DUP2 MLOAD SWAP2 MSTORE SLOAD PUSH1 0x40 MLOAD PUSH1 0x1 PUSH1 0x1 PUSH1 0xA0 SHL SUB SWAP1 SWAP2 AND DUP2 MSTORE PUSH1 0x20 SWAP1 RETURN JUMPDEST POP CALLVALUE PUSH2 0x3F3 JUMPI DUP1 PUSH1 0x3 NOT CALLDATASIZE ADD SLT PUSH2 0x3F3 JUMPI PUSH1 0x20 PUSH1 0x40 MLOAD PUSH1 0x3 DUP2 MSTORE RETURN JUMPDEST POP CALLVALUE PUSH2 0x3F3 JUMPI DUP1 PUSH1 0x3 NOT CALLDATASIZE ADD SLT PUSH2 0x3F3 JUMPI PUSH1 0x20 PUSH1 0x40 MLOAD PUSH1 0x1 DUP2 MSTORE RETURN JUMPDEST POP CALLVALUE PUSH2 0x3F3 JUMPI DUP1 PUSH1 0x3 NOT CALLDATASIZE ADD SLT PUSH2 0x3F3 JUMPI PUSH1 0x3 SLOAD PUSH1 0x40 MLOAD PUSH1 0x1 PUSH1 0x1 PUSH1 0xA0 SHL SUB SWAP1 SWAP2 AND DUP2 MSTORE PUSH1 0x20 SWAP1 RETURN JUMPDEST POP CALLVALUE PUSH2 0x3F3 JUMPI DUP1 PUSH1 0x3 NOT CALLDATASIZE ADD SLT PUSH2 0x3F3 JUMPI PUSH1 0x20 PUSH1 0x40 MLOAD PUSH1 0x4 DUP2 MSTORE RETURN JUMPDEST POP CALLVALUE PUSH2 0x3F3 JUMPI PUSH1 0x20 CALLDATASIZE PUSH1 0x3 NOT ADD SLT PUSH2 0x3F3 JUMPI PUSH1 0x80 SWAP1 PUSH1 0x40 SWAP1 PUSH1 0x1 PUSH1 0x1 PUSH1 0xA0 SHL SUB PUSH2 0x19AC PUSH2 0x339A JUMP JUMPDEST AND DUP2 MSTORE PUSH1 0xF PUSH1 0x20 MSTORE KECCAK256 DUP1 SLOAD SWAP1 PUSH1 0x1 DUP2 ADD SLOAD SWAP1 PUSH1 0xFF PUSH1 0x3 PUSH1 0x2 DUP4 ADD SLOAD SWAP3 ADD SLOAD AND SWAP2 PUSH1 0x40 MLOAD SWAP4 DUP5 MSTORE PUSH1 0x20 DUP5 ADD MSTORE PUSH1 0x40 DUP4 ADD MSTORE ISZERO ISZERO PUSH1 0x60 DUP3 ADD MSTORE RETURN JUMPDEST POP DUP1 PUSH1 0x3 NOT CALLDATASIZE ADD SLT PUSH2 0x3F3 JUMPI PUSH2 0x19F9 PUSH2 0x4019 JUMP JUMPDEST PUSH1 0xFF PUSH1 0x4E SLOAD AND PUSH2 0xA5B JUMPI CALLVALUE ISZERO PUSH2 0x9FE JUMPI PUSH1 0x16 SLOAD PUSH9 0x3635C9ADC5DEA00000 DUP1 DUP3 LT SWAP1 DUP2 ISZERO PUSH2 0x1C33 JUMPI JUMPDEST POP PUSH2 0x1BDC JUMPI PUSH1 0x17 SLOAD SWAP1 PUSH2 0x1A47 PUSH2 0x1A37 DUP4 CALLVALUE PUSH2 0x3656 JUMP JUMPDEST PUSH2 0x1A41 CALLVALUE DUP5 PUSH2 0x3696 JUMP JUMPDEST SWAP1 PUSH2 0x3669 JUMP JUMPDEST PUSH2 0x2710 DUP1 CALLVALUE MUL SWAP1 CALLVALUE DUP3 DIV SUB PUSH2 0x1C1F JUMPI PUSH2 0x1A63 DUP4 PUSH2 0x3E8 SWAP3 PUSH2 0x3669 JUMP JUMPDEST GT PUSH2 0x9FE JUMPI PUSH1 0x64 PUSH2 0x1A76 PUSH1 0xC SLOAD DUP4 PUSH2 0x3656 JUMP JUMPDEST DIV SWAP2 PUSH2 0x1A82 DUP4 DUP4 PUSH2 0x3689 JUMP JUMPDEST DUP6 SLOAD PUSH1 0x40 MLOAD PUSH4 0x70A08231 PUSH1 0xE0 SHL DUP2 MSTORE ADDRESS PUSH1 0x4 DUP3 ADD MSTORE SWAP2 SWAP6 PUSH1 0x20 SWAP5 PUSH1 0x1 PUSH1 0x1 PUSH1 0xA0 SHL SUB SWAP5 SWAP2 SWAP4 SWAP3 DUP6 AND SWAP3 DUP7 DUP2 PUSH1 0x24 DUP2 DUP8 GAS STATICCALL DUP1 ISZERO PUSH2 0x13D6 JUMPI DUP3 SWAP2 DUP12 SWAP2 PUSH2 0x1BEE JUMPI JUMPDEST POP LT PUSH2 0x1BDC JUMPI DUP9 SWAP4 PUSH2 0x1AD8 PUSH2 0x1AE0 SWAP4 CALLVALUE SWAP1 PUSH2 0x3696 JUMP JUMPDEST PUSH1 0x16 SSTORE PUSH2 0x3689 JUMP JUMPDEST PUSH1 0x17 SSTORE DUP1 EXTCODESIZE ISZERO PUSH2 0x1BD8 JUMPI DUP2 DUP1 SWAP2 PUSH1 0x24 PUSH1 0x40 MLOAD DUP1 SWAP5 DUP2 SWAP4 PUSH4 0x852CD8D PUSH1 0xE3 SHL DUP4 MSTORE DUP11 PUSH1 0x4 DUP5 ADD MSTORE GAS CALL DUP1 ISZERO PUSH2 0x1BCD JUMPI PUSH2 0x1BB5 JUMPI JUMPDEST POP SLOAD AND SWAP2 DUP2 PUSH1 0x40 MLOAD DUP1 SWAP5 PUSH4 0xA9059CBB PUSH1 0xE0 SHL DUP3 MSTORE DUP2 DUP9 DUP2 PUSH2 0x1B38 DUP11 CALLER PUSH1 0x4 DUP5 ADD PUSH2 0x3505 JUMP JUMPDEST SUB SWAP3 GAS CALL SWAP2 DUP3 ISZERO PUSH2 0xF36 JUMPI PUSH32 0x36864AEEFCE16BC4AACEEB6B0CDFB2AD1455A8CB4CCB0DB148A2BC6E7166F97C SWAP4 PUSH2 0x1B7F SWAP4 PUSH2 0x1B97 JUMPI JUMPDEST POP POP PUSH1 0x40 MLOAD SWAP2 DUP3 SWAP2 CALLER SWAP6 CALLVALUE DUP5 PUSH2 0x3420 JUMP JUMPDEST SUB SWAP1 LOG2 PUSH1 0x1 PUSH1 0x0 DUP1 MLOAD PUSH1 0x20 PUSH2 0x54AE DUP4 CODECOPY DUP2 MLOAD SWAP2 MSTORE SSTORE DUP1 RETURN JUMPDEST DUP2 PUSH2 0x1BAD SWAP3 SWAP1 RETURNDATASIZE LT PUSH2 0xC7B JUMPI PUSH2 0xC6C DUP2 DUP4 PUSH2 0x3495 JUMP JUMPDEST POP CODESIZE DUP1 PUSH2 0x1B6E JUMP JUMPDEST PUSH2 0x1BBE SWAP1 PUSH2 0x3467 JUMP JUMPDEST PUSH2 0x1BC9 JUMPI DUP5 CODESIZE PUSH2 0x1B13 JUMP JUMPDEST DUP5 DUP1 REVERT JUMPDEST PUSH1 0x40 MLOAD RETURNDATASIZE DUP5 DUP3 RETURNDATACOPY RETURNDATASIZE SWAP1 REVERT JUMPDEST POP DUP1 REVERT JUMPDEST PUSH1 0x40 MLOAD PUSH4 0x43C7AD81 PUSH1 0xE1 SHL DUP2 MSTORE PUSH1 0x4 SWAP1 REVERT JUMPDEST DUP1 SWAP3 POP DUP9 DUP1 SWAP3 POP RETURNDATASIZE DUP4 GT PUSH2 0x1C18 JUMPI JUMPDEST PUSH2 0x1C07 DUP2 DUP4 PUSH2 0x3495 JUMP JUMPDEST DUP2 ADD SUB SLT PUSH2 0x13CA JUMPI DUP2 SWAP1 MLOAD CODESIZE PUSH2 0x1AC2 JUMP JUMPDEST POP RETURNDATASIZE PUSH2 0x1BFD JUMP JUMPDEST PUSH4 0x4E487B71 PUSH1 0xE0 SHL DUP6 MSTORE PUSH1 0x11 PUSH1 0x4 MSTORE PUSH1 0x24 DUP6 REVERT JUMPDEST SWAP1 POP PUSH1 0x17 SLOAD LT CODESIZE PUSH2 0x1A21 JUMP JUMPDEST POP CALLVALUE PUSH2 0x3F3 JUMPI PUSH1 0x80 CALLDATASIZE PUSH1 0x3 NOT ADD SLT PUSH2 0x3F3 JUMPI PUSH2 0x1C59 PUSH2 0x339A JUMP JUMPDEST PUSH2 0x1C61 PUSH2 0x33B0 JUMP JUMPDEST SWAP1 PUSH2 0x1C6A PUSH2 0x33C6 JUMP JUMPDEST SWAP2 PUSH2 0x1C73 PUSH2 0x33DC JUMP JUMPDEST SWAP1 PUSH2 0x1C7C PUSH2 0x3F31 JUMP JUMPDEST PUSH1 0x1 PUSH1 0x1 PUSH1 0xA0 SHL SUB SWAP3 DUP4 AND SWAP2 DUP3 ISZERO DUP1 ISZERO PUSH2 0x1D2D JUMPI JUMPDEST DUP1 ISZERO PUSH2 0x1D23 JUMPI JUMPDEST DUP1 ISZERO PUSH2 0x1D19 JUMPI JUMPDEST PUSH2 0xF41 JUMPI PUSH32 0x213F1DE8063C19612A553F1480FF341BEA689D36A56A2089F1B9060D599B5D83 SWAP5 DUP5 DUP1 PUSH1 0x80 SWAP7 PUSH1 0x1 DUP1 PUSH1 0xA0 SHL SUB NOT SWAP6 DUP8 DUP8 PUSH1 0x1 SLOAD AND OR PUSH1 0x1 SSTORE AND SWAP3 DUP4 DUP7 PUSH1 0x2 SLOAD AND OR PUSH1 0x2 SSTORE AND SWAP3 DUP4 DUP6 PUSH1 0x3 SLOAD AND OR PUSH1 0x3 SSTORE AND DUP1 SWAP4 PUSH1 0x4 SLOAD AND OR PUSH1 0x4 SSTORE PUSH1 0x40 MLOAD SWAP4 DUP5 MSTORE PUSH1 0x20 DUP5 ADD MSTORE PUSH1 0x40 DUP4 ADD MSTORE PUSH1 0x60 DUP3 ADD MSTORE LOG1 DUP1 RETURN JUMPDEST POP DUP4 DUP2 AND ISZERO PUSH2 0x1C9F JUMP JUMPDEST POP DUP4 DUP6 AND ISZERO PUSH2 0x1C98 JUMP JUMPDEST POP DUP4 DUP3 AND ISZERO PUSH2 0x1C91 JUMP JUMPDEST POP CALLVALUE PUSH2 0x3F3 JUMPI DUP1 PUSH1 0x3 NOT CALLDATASIZE ADD SLT PUSH2 0x3F3 JUMPI PUSH1 0x1A SLOAD PUSH3 0x15180 DUP2 ADD DUP1 SWAP2 GT PUSH2 0x1E08 JUMPI TIMESTAMP LT PUSH2 0x1DF6 JUMPI PUSH1 0x17 SLOAD DUP1 ISZERO PUSH2 0x9FE JUMPI PUSH1 0x64 DUP2 DIV SWAP1 DUP2 ISZERO PUSH2 0x9FE JUMPI DUP2 PUSH2 0x1D7C SWAP2 PUSH2 0x3689 JUMP JUMPDEST PUSH1 0x17 SSTORE DUP2 SLOAD DUP3 SWAP1 PUSH1 0x1 PUSH1 0x1 PUSH1 0xA0 SHL SUB AND DUP1 EXTCODESIZE ISZERO PUSH2 0x1BD8 JUMPI DUP2 DUP1 SWAP2 PUSH1 0x24 PUSH1 0x40 MLOAD DUP1 SWAP5 DUP2 SWAP4 PUSH4 0x852CD8D PUSH1 0xE3 SHL DUP4 MSTORE DUP9 PUSH1 0x4 DUP5 ADD MSTORE GAS CALL DUP1 ISZERO PUSH2 0x1BCD JUMPI PUSH2 0x1DE2 JUMPI JUMPDEST POP PUSH1 0x0 DUP1 MLOAD PUSH1 0x20 PUSH2 0x544E DUP4 CODECOPY DUP2 MLOAD SWAP2 MSTORE PUSH1 0x40 DUP4 TIMESTAMP PUSH1 0x1A SSTORE DUP2 MLOAD SWAP1 DUP5 DUP3 MSTORE PUSH1 0x20 DUP3 ADD MSTORE LOG1 DUP1 RETURN JUMPDEST PUSH2 0x1DEB SWAP1 PUSH2 0x3467 JUMP JUMPDEST PUSH2 0x1BD8 JUMPI DUP2 CODESIZE PUSH2 0x1DBC JUMP JUMPDEST PUSH1 0x40 MLOAD PUSH4 0x6F47A98B PUSH1 0xE1 SHL DUP2 MSTORE PUSH1 0x4 SWAP1 REVERT JUMPDEST PUSH4 0x4E487B71 PUSH1 0xE0 SHL DUP3 MSTORE PUSH1 0x11 PUSH1 0x4 MSTORE PUSH1 0x24 DUP3 REVERT JUMPDEST POP CALLVALUE PUSH2 0x3F3 JUMPI PUSH2 0x1E2B CALLDATASIZE PUSH2 0x34D3 JUMP JUMPDEST SWAP1 DUP3 MSTORE PUSH1 0x12 PUSH1 0x20 MSTORE PUSH1 0x40 DUP3 KECCAK256 DUP1 SLOAD DUP3 LT ISZERO PUSH2 0x1638 JUMPI PUSH2 0x1616 SWAP3 POP PUSH2 0x34E9 JUMP JUMPDEST POP CALLVALUE PUSH2 0x3F3 JUMPI DUP1 PUSH1 0x3 NOT CALLDATASIZE ADD SLT PUSH2 0x3F3 JUMPI PUSH1 0x20 PUSH1 0x16 SLOAD PUSH1 0x40 MLOAD SWAP1 DUP2 MSTORE RETURN JUMPDEST POP CALLVALUE PUSH2 0x3F3 JUMPI DUP1 PUSH1 0x3 NOT CALLDATASIZE ADD SLT PUSH2 0x3F3 JUMPI PUSH1 0x1 SLOAD PUSH1 0x40 MLOAD PUSH1 0x1 PUSH1 0x1 PUSH1 0xA0 SHL SUB SWAP1 SWAP2 AND DUP2 MSTORE PUSH1 0x20 SWAP1 RETURN JUMPDEST POP CALLVALUE PUSH2 0x3F3 JUMPI DUP1 PUSH1 0x3 NOT CALLDATASIZE ADD SLT PUSH2 0x3F3 JUMPI PUSH1 0x20 PUSH1 0x19 SLOAD PUSH1 0x40 MLOAD SWAP1 DUP2 MSTORE RETURN JUMPDEST POP CALLVALUE PUSH2 0x3F3 JUMPI DUP1 PUSH1 0x3 NOT CALLDATASIZE ADD SLT PUSH2 0x3F3 JUMPI PUSH2 0x1EC8 PUSH2 0x3F31 JUMP JUMPDEST PUSH1 0x0 DUP1 MLOAD PUSH1 0x20 PUSH2 0x53AE DUP4 CODECOPY DUP2 MLOAD SWAP2 MSTORE DUP1 SLOAD PUSH1 0x1 PUSH1 0x1 PUSH1 0xA0 SHL SUB NOT DUP2 AND SWAP1 SWAP2 SSTORE PUSH1 0x0 SWAP1 PUSH1 0x1 PUSH1 0x1 PUSH1 0xA0 SHL SUB AND PUSH1 0x0 DUP1 MLOAD PUSH1 0x20 PUSH2 0x546E DUP4 CODECOPY DUP2 MLOAD SWAP2 MSTORE DUP3 DUP1 LOG3 DUP1 RETURN JUMPDEST POP CALLVALUE PUSH2 0x3F3 JUMPI DUP1 PUSH1 0x3 NOT CALLDATASIZE ADD SLT PUSH2 0x3F3 JUMPI PUSH1 0x20 PUSH1 0x14 SLOAD PUSH1 0x40 MLOAD SWAP1 DUP2 MSTORE RETURN JUMPDEST POP CALLVALUE PUSH2 0x3F3 JUMPI DUP1 PUSH1 0x3 NOT CALLDATASIZE ADD SLT PUSH2 0x3F3 JUMPI PUSH1 0x20 PUSH1 0x40 MLOAD PUSH2 0x3E8 DUP2 MSTORE RETURN JUMPDEST POP CALLVALUE PUSH2 0x3F3 JUMPI DUP1 PUSH1 0x3 NOT CALLDATASIZE ADD SLT PUSH2 0x3F3 JUMPI PUSH1 0x20 PUSH1 0x18 SLOAD PUSH1 0x40 MLOAD SWAP1 DUP2 MSTORE RETURN JUMPDEST POP CALLVALUE PUSH2 0x3F3 JUMPI DUP1 PUSH1 0x3 NOT CALLDATASIZE ADD SLT PUSH2 0x3F3 JUMPI PUSH32 0x0 PUSH1 0x1 PUSH1 0x1 PUSH1 0xA0 SHL SUB AND ADDRESS SUB PUSH2 0x1FBA JUMPI PUSH1 0x20 PUSH1 0x40 MLOAD PUSH1 0x0 DUP1 MLOAD PUSH1 0x20 PUSH2 0x53CE DUP4 CODECOPY DUP2 MLOAD SWAP2 MSTORE DUP2 MSTORE RETURN JUMPDEST PUSH1 0x40 MLOAD PUSH4 0x703E46DD PUSH1 0xE1 SHL DUP2 MSTORE PUSH1 0x4 SWAP1 REVERT JUMPDEST POP CALLVALUE PUSH2 0x3F3 JUMPI PUSH1 0x20 CALLDATASIZE PUSH1 0x3 NOT ADD SLT PUSH2 0x3F3 JUMPI PUSH1 0x4 CALLDATALOAD PUSH2 0x1FE9 PUSH2 0x4019 JUMP JUMPDEST PUSH1 0xFF PUSH1 0x4E SLOAD AND PUSH2 0xA5B JUMPI DUP1 ISZERO PUSH2 0x9FE JUMPI PUSH9 0x3635C9ADC5DEA00000 DUP1 PUSH1 0x16 SLOAD LT SWAP1 DUP2 ISZERO PUSH2 0x2190 JUMPI JUMPDEST POP PUSH2 0x1BDC JUMPI DUP2 SLOAD PUSH1 0x40 MLOAD PUSH4 0x23B872DD PUSH1 0xE0 SHL DUP2 MSTORE PUSH1 0x1 PUSH1 0x1 PUSH1 0xA0 SHL SUB SWAP2 PUSH1 0x20 SWAP1 DUP3 SWAP1 DUP5 AND DUP2 DUP8 DUP2 PUSH2 0x2046 DUP10 ADDRESS CALLER PUSH1 0x4 DUP6 ADD PUSH2 0x3AFD JUMP JUMPDEST SUB SWAP3 GAS CALL DUP1 ISZERO PUSH2 0xC82 JUMPI PUSH2 0x2171 JUMPI JUMPDEST POP PUSH1 0x64 PUSH2 0x2064 PUSH1 0xD SLOAD DUP5 PUSH2 0x3656 JUMP JUMPDEST DIV PUSH2 0x206F DUP2 DUP5 PUSH2 0x3689 JUMP JUMPDEST SWAP2 PUSH2 0x2710 DUP1 DUP5 MUL SWAP1 DUP5 DUP3 DIV EQ DUP5 ISZERO OR ISZERO PUSH2 0x215D JUMPI PUSH2 0x2093 PUSH2 0x3E8 SWAP2 PUSH1 0x17 SLOAD SWAP1 PUSH2 0x3669 JUMP JUMPDEST GT PUSH2 0x9FE JUMPI DUP5 SWAP1 DUP2 SLOAD AND DUP1 EXTCODESIZE ISZERO PUSH2 0x1BD8 JUMPI DUP2 SWAP1 PUSH1 0x24 PUSH1 0x40 MLOAD DUP1 SWAP5 DUP2 SWAP4 PUSH4 0x852CD8D PUSH1 0xE3 SHL DUP4 MSTORE DUP8 PUSH1 0x4 DUP5 ADD MSTORE GAS CALL DUP1 ISZERO PUSH2 0xF36 JUMPI PUSH2 0x214A JUMPI JUMPDEST POP PUSH1 0x16 SLOAD SWAP2 PUSH2 0x20DB DUP4 DUP3 PUSH2 0x3656 JUMP JUMPDEST PUSH2 0x20EC PUSH1 0x17 SLOAD SWAP2 PUSH2 0x1A41 DUP5 DUP5 PUSH2 0x3696 JUMP JUMPDEST SWAP2 DUP3 SELFBALANCE LT PUSH2 0x1BDC JUMPI PUSH32 0x223C8AD0806F634524940A8595F819C5CFC7B1F4F4F45791269301DF0A7E61D5 SWAP5 PUSH2 0x2124 DUP5 SWAP3 PUSH2 0x212C SWAP5 PUSH2 0x3696 JUMP JUMPDEST PUSH1 0x17 SSTORE PUSH2 0x3689 JUMP JUMPDEST PUSH1 0x16 SSTORE PUSH2 0x2139 DUP2 CALLER PUSH2 0x4108 JUMP JUMPDEST PUSH2 0x1B7F PUSH1 0x40 MLOAD SWAP3 DUP4 SWAP3 CALLER SWAP7 DUP5 PUSH2 0x3420 JUMP JUMPDEST PUSH2 0x2156 SWAP1 SWAP5 SWAP2 SWAP5 PUSH2 0x3467 JUMP JUMPDEST SWAP3 CODESIZE PUSH2 0x20CC JUMP JUMPDEST PUSH4 0x4E487B71 PUSH1 0xE0 SHL DUP7 MSTORE PUSH1 0x11 PUSH1 0x4 MSTORE PUSH1 0x24 DUP7 REVERT JUMPDEST PUSH2 0x2189 SWAP1 PUSH1 0x20 RETURNDATASIZE PUSH1 0x20 GT PUSH2 0xC7B JUMPI PUSH2 0xC6C DUP2 DUP4 PUSH2 0x3495 JUMP JUMPDEST POP CODESIZE PUSH2 0x2055 JUMP JUMPDEST SWAP1 POP PUSH1 0x17 SLOAD LT CODESIZE PUSH2 0x2010 JUMP JUMPDEST POP PUSH1 0x20 CALLDATASIZE PUSH1 0x3 NOT ADD SLT PUSH2 0x3F3 JUMPI PUSH1 0x4 CALLDATALOAD PUSH2 0x21B4 PUSH2 0x3F31 JUMP JUMPDEST CALLVALUE PUSH2 0x22D7 JUMPI JUMPDEST DUP1 PUSH2 0x21E1 JUMPI JUMPDEST PUSH1 0x40 PUSH1 0x0 DUP1 MLOAD PUSH1 0x20 PUSH2 0x534E DUP4 CODECOPY DUP2 MLOAD SWAP2 MSTORE SWAP2 DUP2 MLOAD SWAP1 CALLVALUE DUP3 MSTORE PUSH1 0x20 DUP3 ADD MSTORE LOG1 DUP1 RETURN JUMPDEST DUP2 SLOAD PUSH1 0x40 MLOAD PUSH4 0x23B872DD PUSH1 0xE0 SHL DUP2 MSTORE SWAP1 PUSH1 0x20 SWAP1 DUP3 SWAP1 PUSH1 0x1 PUSH1 0x1 PUSH1 0xA0 SHL SUB AND DUP2 DUP7 DUP2 PUSH2 0x2211 DUP9 ADDRESS CALLER PUSH1 0x4 DUP6 ADD PUSH2 0x3AFD JUMP JUMPDEST SUB SWAP3 GAS CALL SWAP1 DUP2 PUSH2 0x22B8 JUMPI JUMPDEST POP PUSH2 0x228F JUMPI POP DUP1 PUSH1 0x3 RETURNDATASIZE GT PUSH2 0x227E JUMPI JUMPDEST POP PUSH4 0x8C379A0 EQ PUSH2 0x224A JUMPI JUMPDEST PUSH1 0x40 MLOAD PUSH4 0x20A9B827 PUSH1 0xE2 SHL DUP2 MSTORE PUSH1 0x4 SWAP1 REVERT JUMPDEST PUSH2 0x2252 PUSH2 0x3B1F JUMP JUMPDEST DUP1 PUSH2 0x225D JUMPI POP PUSH2 0x2238 JUMP JUMPDEST PUSH1 0x40 MLOAD PUSH4 0x87A26B75 PUSH1 0xE0 SHL DUP2 MSTORE SWAP1 DUP2 SWAP1 PUSH2 0x227A SWAP1 PUSH1 0x4 DUP4 ADD PUSH2 0x3559 JUMP JUMPDEST SUB SWAP1 REVERT JUMPDEST SWAP1 POP PUSH1 0x4 DUP2 DUP1 RETURNDATACOPY MLOAD PUSH1 0xE0 SHR CODESIZE PUSH2 0x222C JUMP JUMPDEST PUSH1 0x40 DUP2 PUSH2 0x22AD PUSH1 0x0 DUP1 MLOAD PUSH1 0x20 PUSH2 0x534E DUP4 CODECOPY DUP2 MLOAD SWAP2 MSTORE SWAP4 PUSH1 0x17 SLOAD PUSH2 0x3696 JUMP JUMPDEST PUSH1 0x17 SSTORE SWAP2 POP POP PUSH2 0x21C0 JUMP JUMPDEST PUSH2 0x22D0 SWAP1 PUSH1 0x20 RETURNDATASIZE PUSH1 0x20 GT PUSH2 0xC7B JUMPI PUSH2 0xC6C DUP2 DUP4 PUSH2 0x3495 JUMP JUMPDEST POP CODESIZE PUSH2 0x221C JUMP JUMPDEST PUSH2 0x22E3 CALLVALUE PUSH1 0x16 SLOAD PUSH2 0x3696 JUMP JUMPDEST PUSH1 0x16 SSTORE PUSH2 0x21BA JUMP JUMPDEST POP CALLVALUE PUSH2 0x3F3 JUMPI DUP1 PUSH1 0x3 NOT CALLDATASIZE ADD SLT PUSH2 0x3F3 JUMPI PUSH2 0x2304 PUSH2 0x3F31 JUMP JUMPDEST PUSH1 0x1 PUSH1 0xFF NOT PUSH1 0x4E SLOAD AND OR PUSH1 0x4E SSTORE PUSH32 0x4CB3183D0BF66F9634B15CFC3539FDDDC96C2C9324848AF89B56586A6739FEC4 DUP2 DUP1 LOG1 DUP1 RETURN JUMPDEST POP PUSH1 0x40 CALLDATASIZE PUSH1 0x3 NOT ADD SLT PUSH2 0x3F3 JUMPI PUSH2 0x234D PUSH2 0x339A JUMP JUMPDEST PUSH1 0x24 SWAP2 DUP3 CALLDATALOAD PUSH1 0x1 PUSH1 0x1 PUSH1 0x40 SHL SUB DUP2 GT PUSH2 0x1BD8 JUMPI CALLDATASIZE PUSH1 0x23 DUP3 ADD SLT ISZERO PUSH2 0x1BD8 JUMPI DUP1 PUSH1 0x4 ADD CALLDATALOAD SWAP3 PUSH2 0x237A DUP5 PUSH2 0x34B8 JUMP JUMPDEST PUSH2 0x2387 PUSH1 0x40 MLOAD SWAP2 DUP3 PUSH2 0x3495 JUMP JUMPDEST DUP5 DUP2 MSTORE PUSH1 0x20 SWAP5 DUP6 DUP3 ADD SWAP4 CALLDATASIZE DUP9 DUP4 DUP4 ADD ADD GT PUSH2 0x2520 JUMPI DUP2 DUP7 SWAP3 DUP10 DUP10 SWAP4 ADD DUP8 CALLDATACOPY DUP4 ADD ADD MSTORE PUSH1 0x1 PUSH1 0x1 PUSH1 0xA0 SHL SUB PUSH32 0x0 DUP2 AND ADDRESS DUP2 EQ SWAP1 DUP2 ISZERO PUSH2 0x252B JUMPI JUMPDEST POP PUSH2 0x1FBA JUMPI PUSH2 0x23EC PUSH2 0x3F31 JUMP JUMPDEST PUSH1 0x40 MLOAD PUSH4 0x52D1902D PUSH1 0xE0 SHL DUP2 MSTORE SWAP1 DUP4 AND SWAP6 DUP1 DUP3 PUSH1 0x4 DUP2 DUP11 GAS STATICCALL SWAP2 DUP3 SWAP2 DUP8 SWAP4 PUSH2 0x24F7 JUMPI JUMPDEST POP POP PUSH2 0x242D JUMPI PUSH1 0x40 MLOAD PUSH4 0x4C9C8CE3 PUSH1 0xE0 SHL DUP2 MSTORE PUSH1 0x4 DUP2 ADD DUP8 SWAP1 MSTORE DUP8 SWAP1 REVERT JUMPDEST DUP6 SWAP1 DUP8 PUSH1 0x0 DUP1 MLOAD PUSH1 0x20 PUSH2 0x53CE DUP4 CODECOPY DUP2 MLOAD SWAP2 MSTORE SWAP2 DUP3 DUP2 SUB PUSH2 0x24E2 JUMPI POP DUP5 EXTCODESIZE ISZERO PUSH2 0x24CC JUMPI POP DUP1 SLOAD PUSH1 0x1 PUSH1 0x1 PUSH1 0xA0 SHL SUB NOT AND DUP3 OR SWAP1 SSTORE PUSH1 0x40 MLOAD DUP6 SWAP3 SWAP2 PUSH32 0xBC7CD75A20EE27FD9ADEBAB32041F755214DBC6BFFA90CC0225B39DA2E5C2D3B DUP5 DUP1 LOG2 DUP2 MLOAD ISZERO PUSH2 0x24AF JUMPI POP PUSH2 0x24AB SWAP4 DUP3 SWAP2 MLOAD SWAP1 DUP5 GAS DELEGATECALL PUSH2 0x24A5 PUSH2 0x3B90 JUMP JUMPDEST SWAP2 PUSH2 0x52A9 JUMP JUMPDEST POP DUP1 RETURN JUMPDEST SWAP4 POP POP POP POP CALLVALUE PUSH2 0x24BD JUMPI POP DUP1 RETURN JUMPDEST PUSH4 0xB398979F PUSH1 0xE0 SHL DUP2 MSTORE PUSH1 0x4 SWAP1 REVERT JUMPDEST PUSH1 0x40 MLOAD PUSH4 0x4C9C8CE3 PUSH1 0xE0 SHL DUP2 MSTORE PUSH1 0x4 DUP2 ADD DUP5 SWAP1 MSTORE REVERT JUMPDEST PUSH1 0x40 MLOAD SWAP1 PUSH4 0x2A875269 PUSH1 0xE2 SHL DUP3 MSTORE PUSH1 0x4 DUP3 ADD MSTORE REVERT JUMPDEST SWAP1 DUP1 SWAP3 SWAP4 POP DUP2 RETURNDATASIZE DUP4 GT PUSH2 0x2524 JUMPI JUMPDEST PUSH2 0x250F DUP2 DUP4 PUSH2 0x3495 JUMP JUMPDEST DUP2 ADD SUB SLT PUSH2 0x2520 JUMPI MLOAD SWAP1 CODESIZE DUP1 PUSH2 0x240F JUMP JUMPDEST DUP6 DUP1 REVERT JUMPDEST POP RETURNDATASIZE PUSH2 0x2505 JUMP JUMPDEST SWAP1 POP DUP2 PUSH1 0x0 DUP1 MLOAD PUSH1 0x20 PUSH2 0x53CE DUP4 CODECOPY DUP2 MLOAD SWAP2 MSTORE SLOAD AND EQ ISZERO CODESIZE PUSH2 0x23DF JUMP JUMPDEST POP CALLVALUE PUSH2 0x3F3 JUMPI DUP1 PUSH1 0x3 NOT CALLDATASIZE ADD SLT PUSH2 0x3F3 JUMPI PUSH2 0x2560 PUSH2 0x3F31 JUMP JUMPDEST PUSH1 0xFF NOT PUSH1 0x4E SLOAD AND PUSH1 0x4E SSTORE PUSH32 0x15DE7AD89D29FD1C6D2E6B1E878453569B4080EDF34E0105FAAA3BD52F018530 DUP2 DUP1 LOG1 DUP1 RETURN JUMPDEST POP CALLVALUE PUSH2 0x3F3 JUMPI DUP1 PUSH1 0x3 NOT CALLDATASIZE ADD SLT PUSH2 0x3F3 JUMPI PUSH1 0x20 PUSH1 0x40 MLOAD PUSH3 0x15180 DUP2 MSTORE RETURN JUMPDEST POP CALLVALUE PUSH2 0x3F3 JUMPI DUP1 PUSH1 0x3 NOT CALLDATASIZE ADD SLT PUSH2 0x3F3 JUMPI PUSH1 0x2 SLOAD PUSH1 0x40 MLOAD PUSH1 0x1 PUSH1 0x1 PUSH1 0xA0 SHL SUB SWAP1 SWAP2 AND DUP2 MSTORE PUSH1 0x20 SWAP1 RETURN JUMPDEST POP DUP1 PUSH1 0x3 NOT CALLDATASIZE ADD SLT PUSH2 0x3F3 JUMPI PUSH2 0x25EC PUSH2 0x4019 JUMP JUMPDEST PUSH1 0xFF PUSH1 0x4E SLOAD AND PUSH2 0xA5B JUMPI PUSH1 0x4 SLOAD PUSH1 0x1 PUSH1 0x1 PUSH1 0xA0 SHL SUB AND CALLER SUB PUSH2 0x14A8 JUMPI CALLVALUE ISZERO PUSH2 0x9FE JUMPI PUSH2 0x11A9 CALLVALUE PUSH2 0x4696 JUMP JUMPDEST POP CALLVALUE PUSH2 0x3F3 JUMPI PUSH1 0x20 CALLDATASIZE PUSH1 0x3 NOT ADD SLT PUSH2 0x3F3 JUMPI PUSH1 0x20 SWAP1 PUSH1 0x4 CALLDATALOAD DUP2 MSTORE PUSH1 0x1D DUP3 MSTORE PUSH1 0x40 PUSH1 0x1 DUP1 PUSH1 0xA0 SHL SUB SWAP2 KECCAK256 SLOAD AND PUSH1 0x40 MLOAD SWAP1 DUP2 MSTORE RETURN JUMPDEST POP CALLVALUE PUSH2 0x3F3 JUMPI DUP1 PUSH1 0x3 NOT CALLDATASIZE ADD SLT PUSH2 0x3F3 JUMPI PUSH2 0x2663 PUSH2 0x4019 JUMP JUMPDEST PUSH2 0x11A9 PUSH2 0x36BB JUMP JUMPDEST POP PUSH1 0x20 CALLDATASIZE PUSH1 0x3 NOT ADD SLT PUSH2 0x3F3 JUMPI PUSH2 0x2680 PUSH2 0x4019 JUMP JUMPDEST PUSH1 0xFF PUSH1 0x4E SLOAD AND PUSH2 0xA5B JUMPI PUSH1 0xFF PUSH1 0x15 SLOAD AND ISZERO PUSH2 0x2BC0 JUMPI CALLER DUP2 MSTORE PUSH1 0xF PUSH1 0x20 MSTORE PUSH1 0x40 DUP2 KECCAK256 PUSH1 0x1 DUP2 ADD SLOAD ISZERO PUSH2 0x2BAE JUMPI PUSH1 0xFF PUSH1 0x3 DUP3 ADD SLOAD AND PUSH2 0x2B9C JUMPI PUSH1 0x7 PUSH1 0x4 CALLDATALOAD EQ ISZERO DUP1 PUSH2 0x2B8F JUMPI JUMPDEST DUP1 PUSH2 0x2B82 JUMPI JUMPDEST PUSH2 0x2B70 JUMPI CALLVALUE ISZERO PUSH2 0x9FE JUMPI PUSH2 0x26DF PUSH1 0x19 SLOAD PUSH2 0x3631 JUMP JUMPDEST PUSH1 0x19 DUP2 SWAP1 SSTORE CALLER DUP4 MSTORE PUSH1 0x10 PUSH1 0x20 MSTORE PUSH1 0x40 DUP1 DUP5 KECCAK256 SWAP1 MLOAD SWAP2 PUSH1 0xC0 DUP4 ADD PUSH1 0x1 PUSH1 0x1 PUSH1 0x40 SHL SUB DUP2 GT DUP5 DUP3 LT OR PUSH2 0x2B5C JUMPI PUSH1 0x40 MSTORE DUP3 MSTORE CALLVALUE PUSH1 0x20 DUP4 ADD MSTORE TIMESTAMP PUSH1 0x40 DUP4 ADD MSTORE PUSH1 0x4 CALLDATALOAD PUSH1 0x60 DUP4 ADD MSTORE PUSH1 0x1 PUSH1 0x80 DUP4 ADD MSTORE DUP4 PUSH1 0xA0 DUP4 ADD MSTORE DUP1 SLOAD SWAP1 PUSH1 0x1 PUSH1 0x40 SHL DUP3 LT ISZERO PUSH2 0x2B48 JUMPI SWAP1 PUSH2 0x274F SWAP2 PUSH1 0x1 DUP3 ADD DUP2 SSTORE PUSH2 0x35A2 JUMP JUMPDEST SWAP2 SWAP1 SWAP2 PUSH2 0x2B34 JUMPI PUSH1 0xA0 DUP2 PUSH1 0x5 SWAP3 MLOAD DUP5 SSTORE PUSH1 0x20 DUP2 ADD MLOAD PUSH1 0x1 DUP6 ADD SSTORE PUSH1 0x40 DUP2 ADD MLOAD PUSH1 0x2 DUP6 ADD SSTORE PUSH1 0x60 DUP2 ADD MLOAD PUSH1 0x3 DUP6 ADD SSTORE PUSH2 0x279C PUSH1 0x80 DUP3 ADD MLOAD ISZERO ISZERO PUSH1 0x4 DUP7 ADD SWAP1 PUSH1 0xFF DUP1 NOT DUP4 SLOAD AND SWAP2 ISZERO ISZERO AND OR SWAP1 SSTORE JUMP JUMPDEST ADD MLOAD SWAP2 ADD SSTORE PUSH1 0x19 SLOAD DUP3 MSTORE PUSH1 0x1D PUSH1 0x20 MSTORE PUSH1 0x40 DUP3 KECCAK256 CALLER PUSH1 0x1 DUP1 PUSH1 0xA0 SHL SUB NOT DUP3 SLOAD AND OR SWAP1 SSTORE CALLER DUP3 MSTORE PUSH1 0xE PUSH1 0x20 MSTORE PUSH1 0xA PUSH1 0x40 DUP4 KECCAK256 ADD DUP1 SLOAD SWAP2 DUP3 ISZERO PUSH2 0x2B23 JUMPI JUMPDEST POP POP PUSH1 0x96 DUP2 MUL SWAP1 DUP1 DUP3 DIV PUSH1 0x96 EQ SWAP1 ISZERO OR ISZERO PUSH2 0x1E08 JUMPI PUSH1 0x64 SWAP1 DIV CALLVALUE SUB PUSH2 0x9FE JUMPI PUSH2 0x27FF CALLER PUSH2 0x4056 JUMP JUMPDEST PUSH1 0x19 SLOAD SWAP1 PUSH1 0x40 MLOAD PUSH32 0xA8A1B9E33E503EED12BF7E7C8C01C7F3B60217A496BDDD0F5DB351DD8C056C1C CALLER SWAP2 DUP1 PUSH2 0x2838 DUP7 PUSH1 0x4 CALLDATALOAD CALLVALUE DUP5 PUSH2 0x3420 JUMP JUMPDEST SUB SWAP1 LOG2 CALLER DUP2 MSTORE PUSH1 0xE PUSH1 0x20 MSTORE PUSH1 0x40 DUP2 KECCAK256 SLOAD DUP2 SWAP1 DUP2 SWAP1 PUSH1 0x1 PUSH1 0x1 PUSH1 0xA0 SHL SUB AND JUMPDEST PUSH1 0x1 PUSH1 0x1 PUSH1 0xA0 SHL SUB DUP2 AND ISZERO ISZERO DUP1 PUSH2 0x2B19 JUMPI JUMPDEST ISZERO PUSH2 0x2B0F JUMPI PUSH1 0x1 PUSH1 0x1 PUSH1 0xA0 SHL SUB DUP2 AND DUP5 MSTORE PUSH1 0xE PUSH1 0x20 MSTORE PUSH1 0x40 DUP5 KECCAK256 PUSH1 0x5 DUP2 ADD SLOAD PUSH1 0xFF AND ISZERO PUSH2 0x2AFA JUMPI POP PUSH1 0x1 PUSH1 0x1 PUSH1 0xA0 SHL SUB DUP2 AND DUP5 MSTORE PUSH1 0xF PUSH1 0x20 MSTORE PUSH1 0x40 DUP5 KECCAK256 PUSH1 0x1 DUP2 ADD SLOAD SWAP1 DUP2 ISZERO SWAP1 DUP2 ISZERO PUSH2 0x2AEB JUMPI JUMPDEST POP PUSH2 0x2AC6 JUMPI PUSH1 0x1 PUSH1 0x1 PUSH1 0xA0 SHL SUB DUP3 AND DUP6 MSTORE PUSH1 0xE PUSH1 0x20 MSTORE PUSH1 0x40 DUP6 KECCAK256 PUSH1 0x2 ADD SLOAD PUSH2 0x28DC SWAP1 PUSH2 0x3F6A JUMP JUMPDEST SWAP2 SWAP1 POP DUP5 DUP3 GT PUSH2 0x29BE JUMPI JUMPDEST POP PUSH1 0x2D GT ISZERO PUSH2 0x291B JUMPI PUSH1 0x1 PUSH1 0x1 PUSH1 0xA0 SHL SUB SWAP1 DUP2 AND DUP5 MSTORE PUSH1 0xE PUSH1 0x20 MSTORE PUSH1 0x40 DUP5 KECCAK256 SLOAD AND SWAP1 PUSH2 0x2912 SWAP1 PUSH2 0x3631 JUMP JUMPDEST SWAP2 JUMPDEST SWAP2 SWAP1 PUSH2 0x2856 JUMP JUMPDEST POP POP POP SWAP1 POP JUMPDEST CALLER DUP2 MSTORE PUSH1 0xE PUSH1 0x20 MSTORE PUSH1 0x6 PUSH1 0x40 DUP3 KECCAK256 ADD DUP2 DUP2 SLOAD SWAP2 DUP3 PUSH2 0x2950 JUMPI JUMPDEST POP PUSH1 0x1 PUSH1 0x0 DUP1 MLOAD PUSH1 0x20 PUSH2 0x54AE DUP4 CODECOPY DUP2 MLOAD SWAP2 MSTORE SSTORE DUP1 RETURN JUMPDEST SSTORE PUSH1 0x16 SLOAD DUP2 DUP2 LT ISZERO DUP1 PUSH2 0x29B4 JUMPI JUMPDEST PUSH2 0x296A JUMPI JUMPDEST DUP3 SWAP1 PUSH2 0x293A JUMP JUMPDEST DUP2 PUSH2 0x2974 SWAP2 PUSH2 0x3689 JUMP JUMPDEST PUSH1 0x16 SSTORE PUSH2 0x2981 DUP2 CALLER PUSH2 0x4108 JUMP JUMPDEST PUSH1 0x40 MLOAD SWAP1 DUP2 MSTORE PUSH32 0x3437B9EA7FA19C6D233DD70CC787A70FAB87CEE64D8BA4571512CC84402748F9 PUSH1 0x20 CALLER SWAP3 LOG2 CODESIZE DUP1 PUSH2 0x2963 JUMP JUMPDEST POP DUP2 SELFBALANCE LT ISZERO PUSH2 0x295E JUMP JUMPDEST PUSH2 0x29E0 SWAP1 PUSH2 0x29CF DUP4 SWAP7 PUSH1 0x64 SWAP5 PUSH2 0x3689 JUMP JUMPDEST SWAP1 CALLVALUE SWAP1 DUP1 CALLVALUE GT PUSH2 0x2ABE JUMPI JUMPDEST POP PUSH2 0x3656 JUMP JUMPDEST DIV DUP6 DUP6 MSTORE PUSH1 0x1C PUSH1 0x20 MSTORE PUSH1 0x40 DUP6 KECCAK256 PUSH1 0x40 MLOAD SWAP1 PUSH2 0x29FA DUP3 PUSH2 0x3436 JUMP JUMPDEST PUSH1 0x1 PUSH1 0x1 PUSH1 0xA0 SHL SUB DUP5 AND DUP3 MSTORE PUSH1 0x20 DUP3 ADD DUP4 SWAP1 MSTORE DUP1 SLOAD SWAP1 PUSH1 0x1 PUSH1 0x40 SHL DUP3 LT ISZERO PUSH2 0x2AAA JUMPI SWAP1 PUSH2 0x2A2C SWAP2 PUSH1 0x1 DUP3 ADD DUP2 SSTORE PUSH2 0x34E9 JUMP JUMPDEST SWAP2 SWAP1 SWAP2 PUSH2 0x2A96 JUMPI DUP1 MLOAD DUP3 SLOAD PUSH1 0x1 PUSH1 0x1 PUSH1 0xA0 SHL SUB NOT AND PUSH1 0x1 PUSH1 0x1 PUSH1 0xA0 SHL SUB SWAP2 DUP3 AND OR DUP4 SSTORE PUSH1 0x20 SWAP2 DUP3 ADD MLOAD PUSH1 0x1 SWAP4 SWAP1 SWAP4 ADD SWAP3 SWAP1 SWAP3 SSTORE PUSH1 0x40 MLOAD SWAP3 DUP4 MSTORE SWAP1 DUP4 AND SWAP2 DUP8 SWAP2 PUSH32 0x7C6505AB8279235AD21EBF427336CC8D97C017B4AA1F10FFDFF11D3261E4934E SWAP2 LOG3 DUP3 PUSH1 0x2D PUSH2 0x28E7 JUMP JUMPDEST PUSH4 0x4E487B71 PUSH1 0xE0 SHL DUP8 MSTORE PUSH1 0x4 DUP8 SWAP1 MSTORE PUSH1 0x24 DUP8 REVERT JUMPDEST PUSH4 0x4E487B71 PUSH1 0xE0 SHL DUP9 MSTORE PUSH1 0x41 PUSH1 0x4 MSTORE PUSH1 0x24 DUP9 REVERT JUMPDEST SWAP1 POP CODESIZE PUSH2 0x29DA JUMP JUMPDEST POP POP PUSH1 0xE PUSH1 0x20 MSTORE PUSH1 0x40 DUP4 KECCAK256 SLOAD PUSH1 0x1 PUSH1 0x1 PUSH1 0xA0 SHL SUB AND SWAP1 PUSH2 0x2AE5 SWAP1 PUSH2 0x3631 JUMP JUMPDEST SWAP2 PUSH2 0x2914 JUMP JUMPDEST PUSH1 0xFF SWAP2 POP PUSH1 0x3 ADD SLOAD AND CODESIZE PUSH2 0x28B5 JUMP JUMPDEST SLOAD PUSH1 0x1 PUSH1 0x1 PUSH1 0xA0 SHL SUB AND SWAP2 PUSH2 0x2AE5 SWAP2 POP PUSH2 0x3631 JUMP JUMPDEST POP POP POP SWAP1 POP PUSH2 0x2921 JUMP JUMPDEST POP PUSH1 0x14 DUP3 LT PUSH2 0x2868 JUMP JUMPDEST PUSH1 0x1 SWAP2 SWAP3 POP ADD SLOAD DUP1 SWAP2 SSTORE CODESIZE DUP1 PUSH2 0x27D7 JUMP JUMPDEST PUSH4 0x4E487B71 PUSH1 0xE0 SHL DUP5 MSTORE PUSH1 0x4 DUP5 SWAP1 MSTORE PUSH1 0x24 DUP5 REVERT JUMPDEST PUSH4 0x4E487B71 PUSH1 0xE0 SHL DUP6 MSTORE PUSH1 0x41 PUSH1 0x4 MSTORE PUSH1 0x24 DUP6 REVERT JUMPDEST PUSH4 0x4E487B71 PUSH1 0xE0 SHL DUP7 MSTORE PUSH1 0x41 PUSH1 0x4 MSTORE PUSH1 0x24 DUP7 REVERT JUMPDEST PUSH1 0x40 MLOAD PUSH4 0x4DC7F5FF PUSH1 0xE1 SHL DUP2 MSTORE PUSH1 0x4 SWAP1 REVERT JUMPDEST POP PUSH1 0x1E PUSH1 0x4 CALLDATALOAD EQ ISZERO PUSH2 0x26CA JUMP JUMPDEST POP PUSH1 0xF PUSH1 0x4 CALLDATALOAD EQ ISZERO PUSH2 0x26C4 JUMP JUMPDEST PUSH1 0x40 MLOAD PUSH4 0x1ECB2C4F PUSH1 0xE3 SHL DUP2 MSTORE PUSH1 0x4 SWAP1 REVERT JUMPDEST PUSH1 0x40 MLOAD PUSH4 0x4065AAF1 PUSH1 0xE1 SHL DUP2 MSTORE PUSH1 0x4 SWAP1 REVERT JUMPDEST PUSH1 0x40 MLOAD PUSH3 0x461BCD PUSH1 0xE5 SHL DUP2 MSTORE PUSH1 0x20 PUSH1 0x4 DUP3 ADD MSTORE PUSH1 0x12 PUSH1 0x24 DUP3 ADD MSTORE PUSH18 0x131A5C5D5A591A5D1E48191A5CD8589B1959 PUSH1 0x72 SHL PUSH1 0x44 DUP3 ADD MSTORE PUSH1 0x64 SWAP1 REVERT JUMPDEST POP CALLVALUE PUSH2 0x3F3 JUMPI DUP1 PUSH1 0x3 NOT CALLDATASIZE ADD SLT PUSH2 0x3F3 JUMPI PUSH1 0x20 PUSH1 0xC SLOAD PUSH1 0x40 MLOAD SWAP1 DUP2 MSTORE RETURN JUMPDEST POP CALLVALUE PUSH2 0x3F3 JUMPI DUP1 PUSH1 0x3 NOT CALLDATASIZE ADD SLT PUSH2 0x3F3 JUMPI PUSH1 0x20 PUSH1 0xFF PUSH1 0x4E SLOAD AND PUSH1 0x40 MLOAD SWAP1 ISZERO ISZERO DUP2 MSTORE RETURN JUMPDEST POP CALLVALUE PUSH2 0x3F3 JUMPI PUSH1 0x20 CALLDATASIZE PUSH1 0x3 NOT ADD SLT PUSH2 0x3F3 JUMPI PUSH1 0x20 SWAP1 PUSH1 0x40 SWAP1 PUSH1 0x1 PUSH1 0x1 PUSH1 0xA0 SHL SUB PUSH2 0x2C63 PUSH2 0x339A JUMP JUMPDEST AND DUP2 MSTORE DUP3 DUP1 MSTORE KECCAK256 SLOAD PUSH1 0x40 MLOAD SWAP1 DUP2 MSTORE RETURN JUMPDEST POP CALLVALUE PUSH2 0x3F3 JUMPI DUP1 PUSH1 0x3 NOT CALLDATASIZE ADD SLT PUSH2 0x3F3 JUMPI PUSH1 0x4E SLOAD PUSH1 0x40 MLOAD PUSH1 0x8 SWAP2 SWAP1 SWAP2 SHR PUSH1 0x1 PUSH1 0x1 PUSH1 0xA0 SHL SUB AND DUP2 MSTORE PUSH1 0x20 SWAP1 RETURN JUMPDEST POP CALLVALUE PUSH2 0x3F3 JUMPI PUSH1 0x20 CALLDATASIZE PUSH1 0x3 NOT ADD SLT PUSH2 0x3F3 JUMPI PUSH1 0x4 CALLDATALOAD SWAP1 PUSH1 0x13 SLOAD DUP3 LT ISZERO PUSH2 0x3F3 JUMPI PUSH1 0x20 DUP2 PUSH1 0x13 PUSH1 0x3 SWAP4 MSTORE KECCAK256 SWAP2 MUL ADD DUP1 SLOAD PUSH2 0x15E4 PUSH1 0x2 PUSH1 0x1 DUP5 ADD SLOAD SWAP4 ADD SLOAD PUSH1 0x40 MLOAD SWAP4 DUP5 SWAP4 DUP5 PUSH2 0x3420 JUMP JUMPDEST POP CALLVALUE PUSH2 0x3F3 JUMPI DUP1 PUSH1 0x3 NOT CALLDATASIZE ADD SLT PUSH2 0x3F3 JUMPI PUSH1 0x20 PUSH1 0x40 MLOAD PUSH9 0x3635C9ADC5DEA00000 DUP2 MSTORE RETURN JUMPDEST POP CALLVALUE PUSH2 0x3F3 JUMPI PUSH1 0x20 CALLDATASIZE PUSH1 0x3 NOT ADD SLT PUSH2 0x3F3 JUMPI PUSH2 0x15E4 SWAP1 PUSH1 0x2 SWAP1 PUSH1 0x40 SWAP1 PUSH1 0x1 PUSH1 0x1 PUSH1 0xA0 SHL SUB PUSH2 0x2D38 PUSH2 0x339A JUMP JUMPDEST AND DUP2 MSTORE PUSH1 0xE PUSH1 0x20 MSTORE KECCAK256 ADD SLOAD PUSH2 0x2D4C DUP2 PUSH2 0x3F6A JUMP JUMPDEST SWAP3 SWAP1 SWAP2 PUSH1 0x40 MLOAD SWAP4 DUP5 SWAP4 DUP5 PUSH2 0x3420 JUMP JUMPDEST POP CALLVALUE PUSH2 0x3F3 JUMPI DUP1 PUSH1 0x3 NOT CALLDATASIZE ADD SLT PUSH2 0x3F3 JUMPI PUSH1 0x20 PUSH1 0x17 SLOAD PUSH1 0x40 MLOAD SWAP1 DUP2 MSTORE RETURN JUMPDEST POP CALLVALUE PUSH2 0x3F3 JUMPI PUSH1 0x20 CALLDATASIZE PUSH1 0x3 NOT ADD SLT PUSH2 0x3F3 JUMPI PUSH2 0x160 SWAP1 PUSH1 0x1 PUSH1 0x1 PUSH1 0xA0 SHL SUB SWAP1 PUSH1 0x40 SWAP1 DUP3 PUSH2 0x2DA4 PUSH2 0x339A JUMP JUMPDEST AND DUP2 MSTORE PUSH1 0xE PUSH1 0x20 MSTORE KECCAK256 SWAP1 DUP2 SLOAD AND SWAP1 PUSH1 0x1 DUP2 ADD SLOAD SWAP1 PUSH1 0x2 DUP2 ADD SLOAD PUSH1 0x3 DUP3 ADD SLOAD PUSH1 0x4 DUP4 ADD SLOAD PUSH1 0xFF PUSH1 0x5 DUP6 ADD SLOAD AND PUSH1 0x6 DUP6 ADD SLOAD SWAP2 PUSH1 0x7 DUP7 ADD SLOAD SWAP4 PUSH1 0x8 DUP8 ADD SLOAD SWAP6 PUSH1 0xA PUSH1 0x9 DUP10 ADD SLOAD SWAP9 ADD SLOAD SWAP9 PUSH1 0x40 MLOAD SWAP11 DUP12 MSTORE PUSH1 0x20 DUP12 ADD MSTORE PUSH1 0x40 DUP11 ADD MSTORE PUSH1 0x60 DUP10 ADD MSTORE PUSH1 0x80 DUP9 ADD MSTORE ISZERO ISZERO PUSH1 0xA0 DUP8 ADD MSTORE PUSH1 0xC0 DUP7 ADD MSTORE PUSH1 0xE0 DUP6 ADD MSTORE PUSH2 0x100 DUP5 ADD MSTORE PUSH2 0x120 DUP4 ADD MSTORE PUSH2 0x140 DUP3 ADD MSTORE RETURN JUMPDEST POP CALLVALUE PUSH2 0x3F3 JUMPI PUSH1 0x20 CALLDATASIZE PUSH1 0x3 NOT ADD SLT PUSH2 0x3F3 JUMPI PUSH1 0x20 PUSH2 0x2E4A PUSH1 0x4 CALLDATALOAD PUSH2 0x3601 JUMP JUMPDEST PUSH1 0x40 MLOAD SWAP1 DUP2 MSTORE RETURN JUMPDEST POP CALLVALUE PUSH2 0x3F3 JUMPI DUP1 PUSH1 0x3 NOT CALLDATASIZE ADD SLT PUSH2 0x3F3 JUMPI SLOAD PUSH1 0x40 MLOAD PUSH1 0x1 PUSH1 0x1 PUSH1 0xA0 SHL SUB SWAP1 SWAP2 AND DUP2 MSTORE PUSH1 0x20 SWAP1 RETURN JUMPDEST POP CALLVALUE PUSH2 0x3F3 JUMPI PUSH1 0xA0 CALLDATASIZE PUSH1 0x3 NOT ADD SLT PUSH2 0x3F3 JUMPI PUSH2 0x2E93 PUSH2 0x339A JUMP JUMPDEST PUSH2 0x2E9B PUSH2 0x33B0 JUMP JUMPDEST SWAP1 PUSH2 0x2EA4 PUSH2 0x33C6 JUMP JUMPDEST PUSH2 0x2EAC PUSH2 0x33DC JUMP JUMPDEST SWAP2 PUSH1 0x84 CALLDATALOAD PUSH1 0x1 PUSH1 0x1 PUSH1 0xA0 SHL SUB DUP2 DUP2 AND SWAP3 SWAP2 DUP4 SWAP1 SUB PUSH2 0x306F JUMPI PUSH1 0x0 DUP1 MLOAD PUSH1 0x20 PUSH2 0x54CE DUP4 CODECOPY DUP2 MLOAD SWAP2 MSTORE SWAP5 DUP6 SLOAD SWAP7 PUSH1 0xFF DUP9 PUSH1 0x40 SHR AND ISZERO SWAP6 PUSH1 0x1 DUP1 PUSH1 0x40 SHL SUB DUP10 AND SWAP9 DUP10 ISZERO DUP1 PUSH2 0x3068 JUMPI JUMPDEST PUSH1 0x1 DUP1 SWAP12 EQ SWAP1 DUP2 PUSH2 0x305E JUMPI JUMPDEST ISZERO SWAP1 DUP2 PUSH2 0x3055 JUMPI JUMPDEST POP PUSH2 0x3043 JUMPI PUSH1 0x1 PUSH1 0x1 PUSH1 0x40 SHL SUB NOT DUP2 AND DUP11 OR DUP10 SSTORE DUP5 SWAP3 DUP4 SWAP2 DUP10 PUSH2 0x3028 JUMPI JUMPDEST POP PUSH2 0x2F2D PUSH2 0x51F4 JUMP JUMPDEST PUSH2 0x2F35 PUSH2 0x51F4 JUMP JUMPDEST PUSH2 0x2F3E CALLER PUSH2 0x3ECF JUMP JUMPDEST PUSH2 0x2F46 PUSH2 0x51F4 JUMP JUMPDEST PUSH2 0x2F4E PUSH2 0x51F4 JUMP JUMPDEST PUSH2 0x2F56 PUSH2 0x51F4 JUMP JUMPDEST DUP11 PUSH1 0x0 DUP1 MLOAD PUSH1 0x20 PUSH2 0x54AE DUP4 CODECOPY DUP2 MLOAD SWAP2 MSTORE SSTORE DUP2 PUSH1 0x1 DUP1 PUSH1 0xA0 SHL SUB NOT SWAP8 AND DUP8 DUP14 SLOAD AND OR DUP13 SSTORE AND DUP6 DUP11 SLOAD AND OR DUP10 SSTORE AND DUP4 PUSH1 0x2 SLOAD AND OR PUSH1 0x2 SSTORE AND DUP2 PUSH1 0x3 SLOAD AND OR PUSH1 0x3 SSTORE PUSH1 0x4 SLOAD AND OR PUSH1 0x4 SSTORE PUSH1 0x19 PUSH1 0x5 SSTORE PUSH1 0xF PUSH1 0x6 SSTORE PUSH1 0x5 PUSH1 0x7 SSTORE PUSH1 0x5 PUSH1 0x8 SSTORE PUSH1 0x19 PUSH1 0x9 SSTORE PUSH1 0x19 PUSH1 0xA SSTORE DUP3 PUSH1 0xB SSTORE PUSH1 0x32 PUSH1 0xC SSTORE PUSH1 0x19 PUSH1 0xD SSTORE PUSH3 0x3F480 PUSH1 0x14 SSTORE PUSH2 0x101 PUSH2 0xFFFF NOT PUSH1 0x15 SLOAD AND OR PUSH1 0x15 SSTORE TIMESTAMP PUSH1 0x1A SSTORE PUSH2 0x2FEB JUMPI DUP3 DUP1 RETURN JUMPDEST DUP1 SLOAD PUSH1 0xFF PUSH1 0x40 SHL NOT AND SWAP1 SSTORE PUSH1 0x40 MLOAD SWAP1 DUP2 MSTORE PUSH32 0xC7F505B2F371AE2175EE4913F4499E1F2633A7B5936321EED1CDAEB6115181D2 SWAP1 PUSH1 0x20 SWAP1 LOG1 CODESIZE DUP1 DUP3 DUP1 RETURN JUMPDEST PUSH1 0x1 PUSH1 0x1 PUSH1 0x48 SHL SUB NOT AND PUSH1 0x1 PUSH1 0x1 PUSH1 0x40 SHL ADD OR DUP11 SSTORE CODESIZE PUSH2 0x2F24 JUMP JUMPDEST PUSH1 0x40 MLOAD PUSH4 0xF92EE8A9 PUSH1 0xE0 SHL DUP2 MSTORE PUSH1 0x4 SWAP1 REVERT JUMPDEST SWAP1 POP ISZERO CODESIZE PUSH2 0x2F06 JUMP JUMPDEST ADDRESS EXTCODESIZE ISZERO SWAP2 POP PUSH2 0x2EFE JUMP JUMPDEST POP DUP8 PUSH2 0x2EF2 JUMP JUMPDEST DUP7 DUP1 REVERT JUMPDEST POP CALLVALUE PUSH2 0x3F3 JUMPI DUP1 PUSH1 0x3 NOT CALLDATASIZE ADD SLT PUSH2 0x3F3 JUMPI PUSH1 0x20 SWAP1 PUSH1 0x40 MLOAD SWAP1 DUP2 MSTORE RETURN JUMPDEST POP CALLVALUE PUSH2 0x3F3 JUMPI DUP1 PUSH1 0x3 NOT CALLDATASIZE ADD SLT PUSH2 0x3F3 JUMPI PUSH1 0x20 PUSH1 0x40 MLOAD PUSH1 0x2 DUP2 MSTORE RETURN JUMPDEST POP CALLVALUE PUSH2 0x3F3 JUMPI PUSH1 0x40 CALLDATASIZE PUSH1 0x3 NOT ADD SLT PUSH2 0x3F3 JUMPI PUSH2 0x30C5 PUSH2 0x339A JUMP JUMPDEST PUSH1 0x1 PUSH1 0x1 PUSH1 0xA0 SHL SUB SWAP1 DUP2 AND DUP3 MSTORE PUSH1 0x11 PUSH1 0x20 MSTORE PUSH1 0x40 DUP3 KECCAK256 DUP1 SLOAD PUSH1 0x24 CALLDATALOAD SWAP4 SWAP1 DUP5 LT ISZERO PUSH2 0x3F3 JUMPI POP PUSH1 0x20 SWAP3 PUSH2 0x30F6 SWAP2 PUSH2 0x33F2 JUMP JUMPDEST SWAP2 SWAP1 SLOAD PUSH1 0x40 MLOAD SWAP3 PUSH1 0x3 SHL SHR AND DUP2 MSTORE RETURN JUMPDEST POP CALLVALUE PUSH2 0x3F3 JUMPI PUSH1 0x20 DUP1 PUSH1 0x3 NOT CALLDATASIZE ADD SLT PUSH2 0x1BD8 JUMPI PUSH2 0x3121 PUSH2 0x339A JUMP JUMPDEST CALLER DUP4 MSTORE PUSH1 0xE DUP1 DUP4 MSTORE PUSH1 0x40 DUP5 KECCAK256 SLOAD SWAP1 SWAP3 PUSH1 0x1 PUSH1 0x1 PUSH1 0xA0 SHL SUB SWAP3 SWAP1 SWAP2 DUP4 AND PUSH2 0x32C3 JUMPI DUP3 AND CALLER DUP2 EQ PUSH2 0x32B1 JUMPI DUP1 ISZERO PUSH2 0xF41 JUMPI CALLER DUP1 DUP7 MSTORE PUSH1 0xE DUP4 MSTORE PUSH1 0x40 DUP1 DUP8 KECCAK256 DUP1 SLOAD PUSH1 0x1 PUSH1 0x1 PUSH1 0xA0 SHL SUB NOT AND DUP5 OR SWAP1 SSTORE DUP3 DUP8 MSTORE PUSH1 0x11 DUP1 DUP6 MSTORE SWAP1 DUP8 KECCAK256 SWAP1 SWAP2 PUSH2 0x3183 SWAP2 PUSH2 0x35BE JUMP JUMPDEST CALLER DUP7 MSTORE PUSH1 0xE DUP4 MSTORE DUP4 PUSH1 0x40 DUP8 KECCAK256 SLOAD AND SWAP5 DUP5 DUP8 SWAP7 JUMPDEST AND DUP1 ISZERO ISZERO DUP1 PUSH2 0x32A7 JUMPI JUMPDEST ISZERO PUSH2 0x327D JUMPI DUP1 DUP9 MSTORE DUP2 DUP6 MSTORE PUSH1 0x40 DUP9 KECCAK256 SWAP1 PUSH1 0x2 DUP3 ADD DUP1 SLOAD PUSH1 0x1 DUP2 ADD SWAP2 DUP3 DUP3 GT PUSH2 0x3269 JUMPI SWAP3 DUP3 PUSH2 0x3206 DUP12 SWAP7 SWAP4 DUP4 PUSH32 0xA0EEA20E678CB42233C1C456C84CEDCE7EA53FA360BB71BF3B761B7609567770 PUSH1 0x40 DUP15 DUP12 SWAP10 PUSH2 0x3226 SWAP12 SSTORE DUP7 DUP3 MLOAD SWAP2 DUP7 DUP4 MSTORE DUP3 ADD MSTORE LOG2 PUSH2 0x3F6A JUMP JUMPDEST POP PUSH2 0x3210 DUP3 PUSH2 0x3F6A JUMP JUMPDEST POP SWAP1 DUP1 DUP3 SUB PUSH2 0x322C JUMPI JUMPDEST POP POP POP POP SLOAD AND SWAP8 PUSH2 0x3631 JUMP JUMPDEST SWAP7 PUSH2 0x3196 JUMP JUMPDEST PUSH2 0x325D PUSH32 0xEA8384D3CA7BF5B7510D3FAEE44A3774406C1FD3AC14FFF110A8C98D47A25956 SWAP4 PUSH1 0x40 MLOAD SWAP4 DUP5 SWAP4 DUP5 PUSH2 0x3420 JUMP JUMPDEST SUB SWAP1 LOG2 CODESIZE DUP1 DUP1 DUP1 PUSH2 0x321A JUMP JUMPDEST PUSH4 0x4E487B71 PUSH1 0xE0 SHL DUP13 MSTORE PUSH1 0x4 DUP8 SWAP1 MSTORE PUSH1 0x24 DUP13 REVERT JUMPDEST DUP8 DUP5 CALLER PUSH32 0xA6DBB5AA28F35437DE94D685D66EDCE5FB4812196B4984B91DFD5A7B38C0FB30 DUP4 DUP1 LOG3 DUP1 RETURN JUMPDEST POP PUSH1 0x1E DUP8 LT PUSH2 0x31A0 JUMP JUMPDEST PUSH1 0x40 MLOAD PUSH4 0x1ACADE89 PUSH1 0xE3 SHL DUP2 MSTORE PUSH1 0x4 SWAP1 REVERT JUMPDEST PUSH1 0x40 MLOAD PUSH4 0x682A9065 PUSH1 0xE0 SHL DUP2 MSTORE PUSH1 0x4 SWAP1 REVERT JUMPDEST POP CALLVALUE PUSH2 0x3F3 JUMPI DUP1 PUSH1 0x3 NOT CALLDATASIZE ADD SLT PUSH2 0x3F3 JUMPI PUSH1 0x20 PUSH1 0xA SLOAD PUSH1 0x40 MLOAD SWAP1 DUP2 MSTORE RETURN JUMPDEST POP CALLVALUE PUSH2 0x3F3 JUMPI PUSH1 0x40 CALLDATASIZE PUSH1 0x3 NOT ADD SLT PUSH2 0x3F3 JUMPI PUSH1 0x4 CALLDATALOAD DUP1 ISZERO ISZERO DUP1 SWAP2 SUB PUSH2 0x1BD8 JUMPI PUSH1 0x24 CALLDATALOAD SWAP1 DUP2 ISZERO ISZERO DUP1 SWAP3 SUB PUSH2 0x1638 JUMPI PUSH32 0x3CB373F89DE891077FE47CEC43663B6727713DE0337AF46BEBD1178122251B7 SWAP2 PUSH32 0xB886FCB5B9C12916F26D967EBE962DBD51EC249FB55961DA39C851CDFC10115C PUSH1 0x20 DUP1 SWAP4 PUSH2 0x336F PUSH2 0x3F31 JUMP JUMPDEST PUSH1 0x15 DUP1 SLOAD PUSH2 0xFFFF NOT AND PUSH1 0xFF DUP4 AND OR PUSH1 0x8 DUP7 SWAP1 SHL PUSH2 0xFF00 AND OR SWAP1 SSTORE PUSH1 0x40 MLOAD SWAP1 DUP2 MSTORE LOG1 PUSH1 0x40 MLOAD SWAP1 DUP2 MSTORE LOG1 DUP1 RETURN JUMPDEST PUSH1 0x4 CALLDATALOAD SWAP1 PUSH1 0x1 PUSH1 0x1 PUSH1 0xA0 SHL SUB DUP3 AND DUP3 SUB PUSH2 0x13CA JUMPI JUMP JUMPDEST PUSH1 0x24 CALLDATALOAD SWAP1 PUSH1 0x1 PUSH1 0x1 PUSH1 0xA0 SHL SUB DUP3 AND DUP3 SUB PUSH2 0x13CA JUMPI JUMP JUMPDEST PUSH1 0x44 CALLDATALOAD SWAP1 PUSH1 0x1 PUSH1 0x1 PUSH1 0xA0 SHL SUB DUP3 AND DUP3 SUB PUSH2 0x13CA JUMPI JUMP JUMPDEST PUSH1 0x64 CALLDATALOAD SWAP1 PUSH1 0x1 PUSH1 0x1 PUSH1 0xA0 SHL SUB DUP3 AND DUP3 SUB PUSH2 0x13CA JUMPI JUMP JUMPDEST DUP1 SLOAD DUP3 LT ISZERO PUSH2 0x340A JUMPI PUSH1 0x0 MSTORE PUSH1 0x20 PUSH1 0x0 KECCAK256 ADD SWAP1 PUSH1 0x0 SWAP1 JUMP JUMPDEST PUSH4 0x4E487B71 PUSH1 0xE0 SHL PUSH1 0x0 MSTORE PUSH1 0x32 PUSH1 0x4 MSTORE PUSH1 0x24 PUSH1 0x0 REVERT JUMPDEST PUSH1 0x40 SWAP2 SWAP5 SWAP4 SWAP3 PUSH1 0x60 DUP3 ADD SWAP6 DUP3 MSTORE PUSH1 0x20 DUP3 ADD MSTORE ADD MSTORE JUMP JUMPDEST PUSH1 0x40 DUP2 ADD SWAP1 DUP2 LT PUSH1 0x1 PUSH1 0x1 PUSH1 0x40 SHL SUB DUP3 GT OR PUSH2 0x3451 JUMPI PUSH1 0x40 MSTORE JUMP JUMPDEST PUSH4 0x4E487B71 PUSH1 0xE0 SHL PUSH1 0x0 MSTORE PUSH1 0x41 PUSH1 0x4 MSTORE PUSH1 0x24 PUSH1 0x0 REVERT JUMPDEST PUSH1 0x1 PUSH1 0x1 PUSH1 0x40 SHL SUB DUP2 GT PUSH2 0x3451 JUMPI PUSH1 0x40 MSTORE JUMP JUMPDEST PUSH1 0x60 DUP2 ADD SWAP1 DUP2 LT PUSH1 0x1 PUSH1 0x1 PUSH1 0x40 SHL SUB DUP3 GT OR PUSH2 0x3451 JUMPI PUSH1 0x40 MSTORE JUMP JUMPDEST PUSH1 0x1F SWAP1 SWAP2 ADD PUSH1 0x1F NOT AND DUP2 ADD SWAP1 PUSH1 0x1 PUSH1 0x1 PUSH1 0x40 SHL SUB DUP3 GT SWAP1 DUP3 LT OR PUSH2 0x3451 JUMPI PUSH1 0x40 MSTORE JUMP JUMPDEST PUSH1 0x1 PUSH1 0x1 PUSH1 0x40 SHL SUB DUP2 GT PUSH2 0x3451 JUMPI PUSH1 0x1F ADD PUSH1 0x1F NOT AND PUSH1 0x20 ADD SWAP1 JUMP JUMPDEST PUSH1 0x40 SWAP1 PUSH1 0x3 NOT ADD SLT PUSH2 0x13CA JUMPI PUSH1 0x4 CALLDATALOAD SWAP1 PUSH1 0x24 CALLDATALOAD SWAP1 JUMP JUMPDEST DUP1 SLOAD DUP3 LT ISZERO PUSH2 0x340A JUMPI PUSH1 0x0 MSTORE PUSH1 0x20 PUSH1 0x0 KECCAK256 SWAP1 PUSH1 0x1 SHL ADD SWAP1 PUSH1 0x0 SWAP1 JUMP JUMPDEST PUSH1 0x1 PUSH1 0x1 PUSH1 0xA0 SHL SUB SWAP1 SWAP2 AND DUP2 MSTORE PUSH1 0x20 DUP2 ADD SWAP2 SWAP1 SWAP2 MSTORE PUSH1 0x40 ADD SWAP1 JUMP JUMPDEST PUSH1 0x60 SWAP2 SWAP5 SWAP4 SWAP3 PUSH1 0x80 DUP3 ADD SWAP6 DUP3 MSTORE PUSH1 0x20 DUP3 ADD MSTORE PUSH1 0x0 PUSH1 0x40 DUP3 ADD MSTORE ADD MSTORE JUMP JUMPDEST SWAP1 SWAP5 SWAP4 SWAP3 PUSH1 0x60 SWAP3 PUSH1 0x80 DUP4 ADD SWAP7 DUP4 MSTORE PUSH1 0x20 DUP4 ADD MSTORE PUSH1 0x40 DUP3 ADD MSTORE ADD MSTORE JUMP JUMPDEST PUSH1 0x20 DUP1 DUP3 MSTORE DUP3 MLOAD DUP2 DUP4 ADD DUP2 SWAP1 MSTORE SWAP1 SWAP4 SWAP3 PUSH1 0x0 JUMPDEST DUP3 DUP2 LT PUSH2 0x358E JUMPI POP POP PUSH1 0x40 SWAP3 SWAP4 POP PUSH1 0x0 DUP4 DUP3 DUP5 ADD ADD MSTORE PUSH1 0x1F DUP1 NOT SWAP2 ADD AND ADD ADD SWAP1 JUMP JUMPDEST DUP2 DUP2 ADD DUP7 ADD MLOAD DUP5 DUP3 ADD PUSH1 0x40 ADD MSTORE DUP6 ADD PUSH2 0x356C JUMP JUMPDEST DUP1 SLOAD DUP3 LT ISZERO PUSH2 0x340A JUMPI PUSH1 0x0 MSTORE PUSH1 0x6 PUSH1 0x20 PUSH1 0x0 KECCAK256 SWAP2 MUL ADD SWAP1 PUSH1 0x0 SWAP1 JUMP JUMPDEST DUP1 SLOAD SWAP2 SWAP1 PUSH1 0x1 PUSH1 0x40 SHL DUP4 LT ISZERO PUSH2 0x3451 JUMPI DUP3 PUSH2 0x35E1 SWAP2 PUSH1 0x1 PUSH2 0x35FF SWAP6 ADD DUP2 SSTORE PUSH2 0x33F2 JUMP JUMPDEST SWAP1 SWAP2 SWAP1 PUSH1 0x1 DUP1 PUSH1 0xA0 SHL SUB DUP1 DUP5 SLOAD SWAP3 PUSH1 0x3 SHL SWAP4 AND DUP4 SHL SWAP3 SHL NOT AND OR SWAP1 SSTORE JUMP JUMPDEST JUMP JUMPDEST PUSH1 0x3 DUP2 LT ISZERO PUSH2 0x362B JUMPI PUSH1 0x2 DUP2 LT ISZERO PUSH2 0x3625 JUMPI PUSH1 0x1 GT ISZERO PUSH2 0x3620 JUMPI PUSH1 0x0 SWAP1 JUMP JUMPDEST PUSH1 0x5 SWAP1 JUMP JUMPDEST POP PUSH1 0xA SWAP1 JUMP JUMPDEST POP PUSH1 0xF SWAP1 JUMP JUMPDEST PUSH1 0x0 NOT DUP2 EQ PUSH2 0x3640 JUMPI PUSH1 0x1 ADD SWAP1 JUMP JUMPDEST PUSH4 0x4E487B71 PUSH1 0xE0 SHL PUSH1 0x0 MSTORE PUSH1 0x11 PUSH1 0x4 MSTORE PUSH1 0x24 PUSH1 0x0 REVERT JUMPDEST DUP2 DUP2 MUL SWAP3 SWAP2 DUP2 ISZERO SWAP2 DUP5 DIV EQ OR ISZERO PUSH2 0x3640 JUMPI JUMP JUMPDEST DUP2 ISZERO PUSH2 0x3673 JUMPI DIV SWAP1 JUMP JUMPDEST PUSH4 0x4E487B71 PUSH1 0xE0 SHL PUSH1 0x0 MSTORE PUSH1 0x12 PUSH1 0x4 MSTORE PUSH1 0x24 PUSH1 0x0 REVERT JUMPDEST SWAP2 SWAP1 DUP3 SUB SWAP2 DUP3 GT PUSH2 0x3640 JUMPI JUMP JUMPDEST SWAP2 SWAP1 DUP3 ADD DUP1 SWAP3 GT PUSH2 0x3640 JUMPI JUMP JUMPDEST SWAP1 DUP2 PUSH1 0x20 SWAP2 SUB SLT PUSH2 0x13CA JUMPI MLOAD DUP1 ISZERO ISZERO DUP2 SUB PUSH2 0x13CA JUMPI SWAP1 JUMP JUMPDEST PUSH1 0x0 CALLER DUP2 MSTORE PUSH1 0x20 SWAP1 PUSH1 0xF DUP3 MSTORE PUSH1 0x40 SWAP1 DUP2 DUP2 KECCAK256 SWAP3 PUSH1 0x1 SWAP4 PUSH1 0x1 DUP2 ADD SLOAD ISZERO DUP1 ISZERO PUSH2 0x3AEF JUMPI JUMPDEST PUSH2 0x3ADE JUMPI CALLER DUP4 MSTORE PUSH1 0x10 DUP3 MSTORE DUP4 DUP4 KECCAK256 SWAP5 DUP4 SWAP6 DUP2 DUP6 SWAP1 JUMPDEST PUSH2 0x39DD JUMPI JUMPDEST POP POP POP DUP5 ISZERO PUSH2 0x39CC JUMPI CALLER DUP4 MSTORE PUSH1 0xE DUP3 MSTORE PUSH2 0x3718 DUP6 PUSH1 0x3 DUP7 DUP7 KECCAK256 ADD SLOAD PUSH2 0x3696 JUMP JUMPDEST SWAP5 CALLER DUP5 MSTORE PUSH1 0xE DUP4 MSTORE DUP5 DUP5 KECCAK256 SWAP6 PUSH1 0x4 SWAP7 DUP8 DUP2 ADD SLOAD DUP1 SWAP3 GT PUSH2 0x39B6 JUMPI JUMPDEST POP POP DUP1 ISZERO PUSH2 0x39A7 JUMPI CALLER DUP5 MSTORE PUSH1 0xE DUP4 MSTORE PUSH1 0x3 DUP6 DUP6 KECCAK256 ADD PUSH2 0x3753 DUP3 DUP3 SLOAD PUSH2 0x3696 JUMP JUMPDEST SWAP1 SSTORE DUP1 PUSH1 0x1 SHR SWAP2 DUP5 SWAP3 DUP1 SELFBALANCE LT ISZERO DUP1 PUSH2 0x399E JUMPI JUMPDEST PUSH2 0x398C JUMPI JUMPDEST PUSH1 0x17 SLOAD DUP1 ISZERO DUP1 ISZERO PUSH2 0x3978 JUMPI JUMPDEST ISZERO PUSH2 0x3938 JUMPI POP PUSH8 0xDE0B6B3A7640000 SWAP1 JUMPDEST PUSH8 0xDE0B6B3A7640000 SWAP1 DUP2 DUP2 MUL SWAP2 DUP2 DUP4 DIV EQ SWAP1 ISZERO OR ISZERO PUSH2 0x3925 JUMPI SWAP1 PUSH2 0x37AC SWAP2 PUSH2 0x3669 JUMP JUMPDEST DUP6 SLOAD DUP8 MLOAD PUSH4 0x70A08231 PUSH1 0xE0 SHL DUP2 MSTORE ADDRESS DUP11 DUP3 ADD MSTORE DUP8 SWAP5 SWAP3 SWAP2 PUSH1 0x1 PUSH1 0x1 PUSH1 0xA0 SHL SUB AND SWAP1 DUP8 DUP2 PUSH1 0x24 DUP2 DUP6 GAS STATICCALL SWAP1 DUP2 ISZERO PUSH2 0x391B JUMPI SWAP1 DUP4 SWAP2 DUP11 SWAP2 PUSH2 0x38E6 JUMPI JUMPDEST POP LT ISZERO DUP1 PUSH2 0x38DD JUMPI JUMPDEST PUSH2 0x385C JUMPI JUMPDEST POP POP SWAP2 PUSH1 0x0 DUP1 MLOAD PUSH1 0x20 PUSH2 0x538E DUP4 CODECOPY DUP2 MLOAD SWAP2 MSTORE SWAP2 PUSH1 0xE SWAP6 SWAP5 SWAP4 DUP9 MLOAD SWAP1 DUP2 MSTORE DUP8 DUP7 DUP3 ADD MSTORE PUSH1 0x0 DUP1 MLOAD PUSH1 0x20 PUSH2 0x548E DUP4 CODECOPY DUP2 MLOAD SWAP2 MSTORE DUP10 CALLER SWAP3 LOG2 SLOAD SWAP1 PUSH2 0x383B DUP9 MLOAD SWAP3 DUP4 SWAP3 CALLER SWAP7 DUP5 PUSH2 0x3520 JUMP JUMPDEST SUB SWAP1 LOG2 CALLER DUP4 MSTORE MSTORE KECCAK256 PUSH1 0x3 DUP2 ADD SLOAD SWAP2 ADD SLOAD GT ISZERO PUSH2 0x3853 JUMPI JUMP JUMPDEST PUSH2 0x35FF CALLER PUSH2 0x4403 JUMP JUMPDEST DUP2 PUSH2 0x3883 SWAP3 SWAP4 SWAP6 POP DUP8 SWAP2 DUP12 DUP11 DUP13 MLOAD DUP1 SWAP7 DUP2 SWAP6 DUP3 SWAP5 PUSH4 0xA9059CBB PUSH1 0xE0 SHL DUP5 MSTORE CALLER SWAP1 DUP5 ADD PUSH2 0x3505 JUMP JUMPDEST SUB SWAP3 GAS CALL DUP1 ISZERO PUSH2 0x38D3 JUMPI SWAP2 PUSH1 0x0 DUP1 MLOAD PUSH1 0x20 PUSH2 0x538E DUP4 CODECOPY DUP2 MLOAD SWAP2 MSTORE SWAP4 SWAP2 PUSH1 0xE SWAP8 SWAP7 SWAP6 SWAP4 PUSH2 0x38B6 JUMPI JUMPDEST POP SWAP4 SWAP5 SWAP6 DUP2 SWAP4 POP PUSH2 0x37F4 JUMP JUMPDEST PUSH2 0x38CC SWAP1 DUP8 RETURNDATASIZE DUP10 GT PUSH2 0xC7B JUMPI PUSH2 0xC6C DUP2 DUP4 PUSH2 0x3495 JUMP JUMPDEST POP CODESIZE PUSH2 0x38AA JUMP JUMPDEST DUP9 MLOAD RETURNDATASIZE DUP10 DUP3 RETURNDATACOPY RETURNDATASIZE SWAP1 REVERT JUMPDEST POP DUP2 ISZERO ISZERO PUSH2 0x37EF JUMP JUMPDEST DUP1 SWAP3 POP DUP10 DUP1 SWAP3 POP RETURNDATASIZE DUP4 GT PUSH2 0x3914 JUMPI JUMPDEST PUSH2 0x38FF DUP2 DUP4 PUSH2 0x3495 JUMP JUMPDEST DUP2 ADD SUB SLT PUSH2 0x3910 JUMPI DUP3 SWAP1 MLOAD CODESIZE PUSH2 0x37E6 JUMP JUMPDEST DUP9 DUP1 REVERT JUMPDEST POP RETURNDATASIZE PUSH2 0x38F5 JUMP JUMPDEST DUP11 MLOAD RETURNDATASIZE DUP12 DUP3 RETURNDATACOPY RETURNDATASIZE SWAP1 REVERT JUMPDEST PUSH4 0x4E487B71 PUSH1 0xE0 SHL DUP8 MSTORE PUSH1 0x11 DUP10 MSTORE PUSH1 0x24 DUP8 REVERT JUMPDEST PUSH1 0x16 SLOAD PUSH8 0xDE0B6B3A7640000 SWAP1 DUP2 DUP2 MUL SWAP2 DUP2 DUP4 DIV EQ SWAP1 ISZERO OR ISZERO PUSH2 0x3965 JUMPI SWAP1 PUSH2 0x395F SWAP2 PUSH2 0x3669 JUMP JUMPDEST SWAP1 PUSH2 0x3788 JUMP JUMPDEST PUSH4 0x4E487B71 PUSH1 0xE0 SHL DUP9 MSTORE PUSH1 0x11 DUP11 MSTORE PUSH1 0x24 DUP9 REVERT JUMPDEST POP PUSH9 0x3635C9ADC5DEA00000 PUSH1 0x16 SLOAD LT PUSH2 0x3777 JUMP JUMPDEST SWAP3 POP PUSH2 0x3998 DUP4 CALLER PUSH2 0x4108 JUMP JUMPDEST DUP3 PUSH2 0x376B JUMP JUMPDEST POP DUP1 ISZERO ISZERO PUSH2 0x3766 JUMP JUMPDEST POP POP POP POP POP POP PUSH2 0x35FF CALLER PUSH2 0x4403 JUMP JUMPDEST PUSH2 0x39C5 SWAP3 POP PUSH1 0x3 ADD SLOAD SWAP1 PUSH2 0x3689 JUMP JUMPDEST CODESIZE DUP1 PUSH2 0x3733 JUMP JUMPDEST DUP4 MLOAD PUSH4 0xFEC21FD PUSH1 0xE2 SHL DUP2 MSTORE PUSH1 0x4 SWAP1 REVERT JUMPDEST DUP2 SLOAD DUP2 LT ISZERO PUSH2 0x3AD9 JUMPI PUSH2 0x39F0 DUP2 DUP4 PUSH2 0x35A2 JUMP JUMPDEST POP DUP4 PUSH1 0xFF PUSH1 0x4 DUP1 SWAP4 ADD SLOAD AND ISZERO PUSH2 0x3ACF JUMPI POP PUSH2 0x3A0E PUSH2 0x1075 DUP4 DUP6 PUSH2 0x35A2 JUMP JUMPDEST SWAP1 DUP2 PUSH2 0x3A24 JUMPI JUMPDEST POP POP SWAP1 DUP3 DUP1 SWAP3 JUMPDEST ADD SWAP1 SWAP2 PUSH2 0x36F3 JUMP JUMPDEST SWAP1 SWAP9 DUP10 PUSH2 0x3A30 SWAP2 PUSH2 0x3696 JUMP JUMPDEST SWAP9 PUSH2 0x3A40 PUSH1 0x5 PUSH2 0x1088 DUP6 DUP8 PUSH2 0x35A2 JUMP JUMPDEST SWAP1 SSTORE PUSH1 0x2 PUSH2 0x3A4E DUP4 DUP6 PUSH2 0x35A2 JUMP JUMPDEST POP ADD SLOAD PUSH1 0x3 PUSH2 0x3A5D DUP5 DUP7 PUSH2 0x35A2 JUMP JUMPDEST POP ADD SLOAD SWAP1 PUSH3 0x15180 SWAP2 DUP3 DUP2 MUL SWAP3 DUP2 DUP5 DIV EQ SWAP1 ISZERO OR ISZERO PUSH2 0x3ABC JUMPI SWAP2 PUSH2 0x3A85 DUP7 SWAP6 SWAP5 SWAP3 DUP7 SWAP5 PUSH2 0x3696 JUMP JUMPDEST TIMESTAMP LT ISZERO PUSH2 0x3A95 JUMPI JUMPDEST POP SWAP2 SWAP3 PUSH2 0x3A15 JUMP JUMPDEST PUSH2 0x3A9F DUP3 DUP6 PUSH2 0x35A2 JUMP JUMPDEST POP ADD DUP1 SLOAD PUSH1 0xFF NOT AND SWAP1 SSTORE PUSH2 0x3AB6 PUSH2 0x110E DUP3 DUP6 PUSH2 0x35A2 JUMP JUMPDEST CODESIZE PUSH2 0x3A8D JUMP JUMPDEST PUSH4 0x4E487B71 PUSH1 0xE0 SHL DUP10 MSTORE PUSH1 0x11 DUP4 MSTORE PUSH1 0x24 DUP10 REVERT JUMPDEST SWAP3 SWAP2 DUP4 SWAP2 POP PUSH2 0x3A1C JUMP JUMPDEST PUSH2 0x36F8 JUMP JUMPDEST DUP4 MLOAD PUSH4 0x4065AAF1 PUSH1 0xE1 SHL DUP2 MSTORE PUSH1 0x4 SWAP1 REVERT JUMPDEST POP PUSH1 0xFF PUSH1 0x3 DUP3 ADD SLOAD AND PUSH2 0x36DE JUMP JUMPDEST PUSH1 0x1 PUSH1 0x1 PUSH1 0xA0 SHL SUB SWAP2 DUP3 AND DUP2 MSTORE SWAP2 AND PUSH1 0x20 DUP3 ADD MSTORE PUSH1 0x40 DUP2 ADD SWAP2 SWAP1 SWAP2 MSTORE PUSH1 0x60 ADD SWAP1 JUMP JUMPDEST PUSH1 0x0 PUSH1 0x44 RETURNDATASIZE LT PUSH2 0x3B7C JUMPI PUSH1 0x40 MLOAD PUSH1 0x3 NOT SWAP2 RETURNDATASIZE DUP4 ADD PUSH1 0x4 DUP4 RETURNDATACOPY DUP2 MLOAD PUSH1 0x1 PUSH1 0x1 PUSH1 0x40 SHL SUB SWAP2 DUP3 DUP3 GT RETURNDATASIZE PUSH1 0x24 DUP5 ADD GT OR PUSH2 0x3B7F JUMPI DUP2 DUP5 ADD SWAP5 DUP6 MLOAD SWAP4 DUP5 GT PUSH2 0x3B87 JUMPI RETURNDATASIZE DUP6 ADD ADD PUSH1 0x20 DUP5 DUP8 ADD ADD GT PUSH2 0x3B7F JUMPI POP PUSH2 0x3B7C SWAP3 SWAP2 ADD PUSH1 0x20 ADD SWAP1 PUSH2 0x3495 JUMP JUMPDEST SWAP1 JUMP JUMPDEST SWAP5 SWAP4 POP POP POP POP JUMP JUMPDEST POP SWAP5 SWAP4 POP POP POP POP JUMP JUMPDEST RETURNDATASIZE ISZERO PUSH2 0x3BBB JUMPI RETURNDATASIZE SWAP1 PUSH2 0x3BA1 DUP3 PUSH2 0x34B8 JUMP JUMPDEST SWAP2 PUSH2 0x3BAF PUSH1 0x40 MLOAD SWAP4 DUP5 PUSH2 0x3495 JUMP JUMPDEST DUP3 MSTORE RETURNDATASIZE PUSH1 0x0 PUSH1 0x20 DUP5 ADD RETURNDATACOPY JUMP JUMPDEST PUSH1 0x60 SWAP1 JUMP JUMPDEST SWAP2 PUSH1 0x1 PUSH1 0x1 PUSH1 0xA0 SHL SUB SWAP1 DUP2 DUP5 AND SWAP1 DUP2 ISZERO DUP1 ISZERO PUSH2 0x3EC5 JUMPI JUMPDEST PUSH2 0xF41 JUMPI DUP3 DUP5 AND DUP1 DUP4 EQ PUSH2 0x32B1 JUMPI DUP5 DUP5 PUSH1 0x0 SWAP7 JUMPDEST AND DUP1 ISZERO ISZERO DUP1 PUSH2 0x3EBB JUMPI JUMPDEST ISZERO PUSH2 0x3C21 JUMPI DUP5 DUP2 EQ PUSH2 0x32B1 JUMPI PUSH1 0x0 MSTORE PUSH1 0xE PUSH1 0x20 MSTORE DUP5 PUSH2 0x3C1B DUP2 PUSH1 0x40 PUSH1 0x0 KECCAK256 SLOAD AND SWAP8 PUSH2 0x3631 JUMP JUMPDEST SWAP7 PUSH2 0x3BEB JUMP JUMPDEST POP PUSH1 0x0 DUP5 DUP2 MSTORE PUSH1 0xE PUSH1 0x20 DUP2 DUP2 MSTORE PUSH1 0x40 SWAP3 DUP4 SWAP1 KECCAK256 DUP1 SLOAD SWAP7 SWAP11 SWAP6 SWAP10 POP DUP7 DUP10 AND SWAP9 SWAP5 SWAP7 DUP10 DUP12 EQ PUSH2 0x3EAE JUMPI PUSH1 0x1 PUSH1 0x1 PUSH1 0xA0 SHL SUB NOT AND DUP11 OR SWAP1 SSTORE DUP8 ISZERO ISZERO SWAP5 DUP6 PUSH2 0x3DB6 JUMPI JUMPDEST PUSH2 0x3C75 SWAP1 DUP11 PUSH1 0x0 MSTORE PUSH1 0x11 DUP4 MSTORE DUP5 PUSH1 0x0 KECCAK256 PUSH2 0x35BE JUMP JUMPDEST DUP7 PUSH1 0x0 MSTORE DUP2 DUP2 MSTORE PUSH1 0x2 SWAP6 PUSH1 0x2 DUP5 PUSH1 0x0 KECCAK256 ADD SLOAD SWAP1 PUSH1 0x1 SWAP7 PUSH1 0x1 DUP4 ADD DUP1 SWAP4 GT PUSH2 0x3640 JUMPI PUSH2 0x3D36 JUMPI JUMPDEST DUP11 PUSH2 0x3CD0 JUMPI JUMPDEST POP POP POP POP POP POP POP POP PUSH32 0xF8B9FE4D008320E6F048C61E41E9CC56CE351354AD0CB9A868BD3C4BD6928FD5 PUSH1 0x0 DUP1 LOG4 JUMP JUMPDEST PUSH1 0x0 SWAP1 DUP8 JUMPDEST PUSH2 0x3CE0 JUMPI JUMPDEST POP PUSH2 0x3CA1 JUMP JUMPDEST DUP7 AND DUP1 ISZERO ISZERO DUP1 PUSH2 0x3D2C JUMPI JUMPDEST ISZERO PUSH2 0x3D27 JUMPI DUP1 PUSH1 0x0 MSTORE DUP5 DUP5 MSTORE DUP9 DUP7 PUSH1 0x0 KECCAK256 ADD PUSH2 0x3D08 DUP5 DUP3 SLOAD PUSH2 0x3696 JUMP JUMPDEST SWAP1 SSTORE PUSH1 0x0 MSTORE DUP4 DUP4 MSTORE PUSH2 0x3D20 DUP7 DUP7 PUSH1 0x0 KECCAK256 SLOAD AND SWAP2 PUSH2 0x3631 JUMP JUMPDEST SWAP1 DUP8 PUSH2 0x3CD5 JUMP JUMPDEST PUSH2 0x3CDA JUMP JUMPDEST POP PUSH1 0x1E DUP3 LT PUSH2 0x3CEB JUMP JUMPDEST DUP7 PUSH1 0x0 DUP8 DUP13 DUP4 JUMPDEST PUSH2 0x3D4B JUMPI JUMPDEST POP POP POP POP PUSH2 0x3C9B JUMP JUMPDEST AND DUP1 ISZERO ISZERO DUP1 PUSH2 0x3DAC JUMPI JUMPDEST ISZERO PUSH2 0x3DA5 JUMPI PUSH1 0x0 DUP2 DUP2 MSTORE DUP8 DUP8 MSTORE DUP9 SWAP1 KECCAK256 DUP12 ADD DUP1 SLOAD DUP7 GT PUSH2 0x3D9C JUMPI PUSH2 0x3D7A DUP7 DUP3 SLOAD PUSH2 0x3689 JUMP JUMPDEST SWAP1 SSTORE JUMPDEST PUSH1 0x0 MSTORE DUP6 DUP6 MSTORE PUSH2 0x3D93 DUP9 DUP9 PUSH1 0x0 KECCAK256 SLOAD AND SWAP2 PUSH2 0x3631 JUMP JUMPDEST SWAP1 DUP9 SWAP1 DUP4 PUSH2 0x3D3D JUMP JUMPDEST PUSH1 0x0 SWAP1 SSTORE PUSH2 0x3D7D JUMP JUMPDEST DUP9 SWAP1 PUSH2 0x3D42 JUMP JUMPDEST POP PUSH1 0x1E DUP3 LT PUSH2 0x3D55 JUMP JUMPDEST SWAP9 SWAP8 SWAP7 SWAP6 SWAP5 SWAP4 SWAP3 SWAP2 SWAP1 DUP8 PUSH1 0x0 MSTORE PUSH1 0x11 DUP1 DUP3 MSTORE DUP4 PUSH1 0x0 KECCAK256 SWAP11 PUSH1 0x0 JUMPDEST DUP13 SLOAD DUP1 DUP3 LT ISZERO PUSH2 0x3E97 JUMPI DUP8 SWAP1 DUP12 DUP16 DUP5 PUSH2 0x3DE8 SWAP2 PUSH2 0x33F2 JUMP JUMPDEST SWAP4 SWAP1 SLOAD PUSH1 0x3 SWAP5 DUP6 SHL SHR AND EQ PUSH2 0x3E01 JUMPI POP POP PUSH1 0x1 ADD PUSH2 0x3DD0 JUMP JUMPDEST PUSH1 0x0 SWAP15 SWAP3 SWAP2 SWAP4 SWAP5 SWAP6 SWAP7 SWAP8 SWAP9 SWAP10 SWAP11 SWAP12 SWAP13 SWAP14 SWAP15 NOT SWAP6 DUP7 DUP3 ADD SWAP2 DUP3 GT PUSH2 0x3E83 JUMPI POP SWAP1 PUSH2 0x35E1 DUP11 PUSH2 0x3E31 PUSH2 0x3E3F SWAP5 DUP7 PUSH2 0x33F2 JUMP JUMPDEST SWAP1 SLOAD SWAP1 DUP8 SHL SHR AND SWAP2 DUP5 PUSH2 0x33F2 JUMP JUMPDEST DUP1 SLOAD DUP1 ISZERO PUSH2 0x3E6D JUMPI PUSH2 0x3C75 SWAP5 DUP10 SWAP2 ADD SWAP3 PUSH2 0x3E59 DUP5 DUP5 PUSH2 0x33F2 JUMP JUMPDEST DUP2 SWAP4 SWAP2 SLOAD SWAP3 SHL SHL NOT AND SWAP1 SSTORE SSTORE JUMPDEST SWAP1 POP PUSH2 0x3C60 JUMP JUMPDEST PUSH4 0x4E487B71 PUSH1 0xE0 SHL PUSH1 0x0 MSTORE PUSH1 0x31 PUSH1 0x4 MSTORE PUSH1 0x24 PUSH1 0x0 REVERT JUMPDEST PUSH4 0x4E487B71 PUSH1 0xE0 SHL PUSH1 0x0 MSTORE PUSH1 0x4 MSTORE PUSH1 0x24 PUSH1 0x0 REVERT JUMPDEST POP POP SWAP1 POP PUSH2 0x3C75 SWAP2 SWAP3 SWAP4 SWAP5 SWAP6 SWAP7 SWAP8 SWAP9 SWAP10 SWAP11 POP PUSH2 0x3E66 JUMP JUMPDEST POP POP POP POP POP POP POP POP POP POP POP JUMP JUMPDEST POP PUSH1 0x32 DUP8 LT PUSH2 0x3BF5 JUMP JUMPDEST POP DUP3 DUP5 AND ISZERO PUSH2 0x3BD7 JUMP JUMPDEST PUSH1 0x1 PUSH1 0x1 PUSH1 0xA0 SHL SUB SWAP1 DUP2 AND SWAP1 DUP2 ISZERO PUSH2 0x3F18 JUMPI PUSH1 0x0 DUP1 MLOAD PUSH1 0x20 PUSH2 0x53AE DUP4 CODECOPY DUP2 MLOAD SWAP2 MSTORE DUP1 SLOAD PUSH1 0x1 PUSH1 0x1 PUSH1 0xA0 SHL SUB NOT DUP2 AND DUP5 OR SWAP1 SWAP2 SSTORE AND PUSH1 0x0 DUP1 MLOAD PUSH1 0x20 PUSH2 0x546E DUP4 CODECOPY DUP2 MLOAD SWAP2 MSTORE PUSH1 0x0 DUP1 LOG3 JUMP JUMPDEST PUSH1 0x40 MLOAD PUSH4 0x1E4FBDF7 PUSH1 0xE0 SHL DUP2 MSTORE PUSH1 0x0 PUSH1 0x4 DUP3 ADD MSTORE PUSH1 0x24 SWAP1 REVERT JUMPDEST PUSH1 0x0 DUP1 MLOAD PUSH1 0x20 PUSH2 0x53AE DUP4 CODECOPY DUP2 MLOAD SWAP2 MSTORE SLOAD PUSH1 0x1 PUSH1 0x1 PUSH1 0xA0 SHL SUB AND CALLER SUB PUSH2 0x3F52 JUMPI JUMP JUMPDEST PUSH1 0x40 MLOAD PUSH4 0x118CDAA7 PUSH1 0xE0 SHL DUP2 MSTORE CALLER PUSH1 0x4 DUP3 ADD MSTORE PUSH1 0x24 SWAP1 REVERT JUMPDEST PUSH3 0x186A0 DUP2 LT ISZERO PUSH2 0x4010 JUMPI PUSH2 0x7530 DUP2 LT ISZERO PUSH2 0x4007 JUMPI PUSH2 0x2710 DUP2 LT ISZERO PUSH2 0x3FFE JUMPI PUSH2 0xBB8 DUP2 LT ISZERO PUSH2 0x3FF5 JUMPI PUSH2 0x3E8 DUP2 LT ISZERO PUSH2 0x3FEC JUMPI PUSH2 0x12C DUP2 LT ISZERO PUSH2 0x3FE3 JUMPI PUSH1 0x64 DUP2 LT ISZERO PUSH2 0x3FDA JUMPI PUSH1 0x1E DUP2 LT ISZERO PUSH2 0x3FD1 JUMPI PUSH1 0xA GT ISZERO PUSH2 0x3FC9 JUMPI PUSH1 0x0 SWAP1 PUSH1 0x0 SWAP1 JUMP JUMPDEST PUSH1 0x1 SWAP1 PUSH1 0x5 SWAP1 JUMP JUMPDEST POP PUSH1 0x2 SWAP1 PUSH1 0xA SWAP1 JUMP JUMPDEST POP PUSH1 0x3 SWAP1 PUSH1 0xF SWAP1 JUMP JUMPDEST POP PUSH1 0x4 SWAP1 PUSH1 0x14 SWAP1 JUMP JUMPDEST POP PUSH1 0x5 SWAP1 PUSH1 0x19 SWAP1 JUMP JUMPDEST POP PUSH1 0x6 SWAP1 PUSH1 0x1E SWAP1 JUMP JUMPDEST POP PUSH1 0x7 SWAP1 PUSH1 0x23 SWAP1 JUMP JUMPDEST POP PUSH1 0x8 SWAP1 PUSH1 0x28 SWAP1 JUMP JUMPDEST POP PUSH1 0x9 SWAP1 PUSH1 0x2D SWAP1 JUMP JUMPDEST PUSH1 0x0 DUP1 MLOAD PUSH1 0x20 PUSH2 0x54AE DUP4 CODECOPY DUP2 MLOAD SWAP2 MSTORE PUSH1 0x2 DUP2 SLOAD EQ PUSH2 0x4037 JUMPI PUSH1 0x2 SWAP1 SSTORE JUMP JUMPDEST PUSH1 0x40 MLOAD PUSH4 0x3EE5AEB5 PUSH1 0xE0 SHL DUP2 MSTORE PUSH1 0x4 SWAP1 REVERT JUMPDEST DUP1 ISZERO PUSH2 0x3640 JUMPI PUSH1 0x0 NOT ADD SWAP1 JUMP JUMPDEST PUSH1 0x1 DUP1 PUSH1 0xA0 SHL SUB DUP1 PUSH1 0x0 SWAP3 AND DUP3 MSTORE PUSH1 0xF PUSH1 0x20 MSTORE PUSH1 0x40 DUP3 KECCAK256 SWAP1 PUSH1 0x1 DUP3 ADD SLOAD ISZERO ISZERO SWAP2 DUP3 PUSH2 0x40F8 JUMPI JUMPDEST POP PUSH1 0xE PUSH1 0x20 MSTORE PUSH1 0x40 DUP4 KECCAK256 PUSH1 0x5 DUP2 ADD PUSH1 0xFF DUP2 SLOAD AND ISZERO ISZERO DUP5 ISZERO ISZERO EQ PUSH2 0x40F1 JUMPI DUP1 SLOAD PUSH1 0xFF NOT AND PUSH1 0xFF DUP6 ISZERO ISZERO AND OR SWAP1 SSTORE SLOAD AND SWAP2 DUP3 ISZERO PUSH2 0x40EC JUMPI PUSH1 0x1 SWAP3 PUSH1 0x40 SWAP3 ISZERO PUSH2 0x40D3 JUMPI DUP2 MSTORE PUSH1 0xE PUSH1 0x20 MSTORE KECCAK256 ADD PUSH2 0x40CF DUP2 SLOAD PUSH2 0x3631 JUMP JUMPDEST SWAP1 SSTORE JUMP JUMPDEST DUP2 MSTORE KECCAK256 ADD DUP1 SLOAD DUP1 PUSH2 0x40E3 JUMPI JUMPDEST POP POP JUMP JUMPDEST PUSH2 0x40CF SWAP1 PUSH2 0x4049 JUMP JUMPDEST POP POP POP JUMP JUMPDEST POP POP POP POP POP JUMP JUMPDEST PUSH1 0x3 ADD SLOAD PUSH1 0xFF AND ISZERO SWAP2 POP CODESIZE PUSH2 0x407C JUMP JUMPDEST DUP2 ISZERO PUSH2 0x40DF JUMPI DUP2 SELFBALANCE LT PUSH2 0xCD1 JUMPI PUSH1 0x0 DUP1 DUP1 SWAP4 DUP2 SWAP4 GAS CALL PUSH2 0x4126 PUSH2 0x3B90 JUMP JUMPDEST POP ISZERO PUSH2 0xCBF JUMPI JUMP JUMPDEST PUSH1 0x3 DUP2 ADD SLOAD PUSH2 0x413C DUP2 PUSH2 0x5223 JUMP JUMPDEST SWAP1 PUSH3 0x15180 PUSH2 0x414F PUSH1 0x2 DUP6 ADD SLOAD TIMESTAMP PUSH2 0x3689 JUMP JUMPDEST DIV SWAP1 DUP1 DUP3 GT PUSH2 0x41A1 JUMPI JUMPDEST POP DUP1 ISZERO PUSH2 0x4199 JUMPI PUSH2 0x417E PUSH4 0x3B9ACA00 SWAP2 PUSH2 0x4179 PUSH1 0x5 SWAP5 PUSH1 0x1 DUP8 ADD SLOAD PUSH2 0x3656 JUMP JUMPDEST PUSH2 0x3656 JUMP JUMPDEST DIV SWAP2 ADD SLOAD DUP1 DUP3 GT PUSH2 0x4190 JUMPI POP POP PUSH1 0x0 SWAP1 JUMP JUMPDEST PUSH2 0x3B7C SWAP2 PUSH2 0x3689 JUMP JUMPDEST POP POP POP PUSH1 0x0 SWAP1 JUMP JUMPDEST SWAP1 POP CODESIZE PUSH2 0x4159 JUMP JUMPDEST DUP1 MLOAD DUP3 LT ISZERO PUSH2 0x340A JUMPI PUSH1 0x20 SWAP2 PUSH1 0x5 SHL ADD ADD SWAP1 JUMP JUMPDEST DUP1 SLOAD SWAP1 PUSH1 0x0 SWAP1 DUP2 DUP2 SSTORE DUP3 PUSH2 0x41D0 JUMPI POP POP POP JUMP JUMPDEST PUSH1 0x1 SWAP1 PUSH1 0x1 PUSH1 0x1 PUSH1 0xFF SHL SUB DUP5 AND DUP5 SUB PUSH2 0x91F JUMPI DUP3 MSTORE PUSH1 0x20 DUP3 KECCAK256 SWAP3 PUSH1 0x1 SHL DUP4 ADD SWAP3 JUMPDEST DUP4 DUP2 LT PUSH2 0x41FE JUMPI POP POP POP POP JUMP JUMPDEST DUP1 DUP4 PUSH1 0x2 SWAP3 SSTORE DUP4 DUP4 DUP3 ADD SSTORE ADD PUSH2 0x41F1 JUMP JUMPDEST PUSH1 0x0 DUP2 DUP2 MSTORE PUSH1 0x1D PUSH1 0x20 SWAP1 DUP2 MSTORE PUSH1 0x40 DUP1 DUP4 KECCAK256 SLOAD PUSH1 0x1C DUP4 MSTORE DUP2 DUP5 KECCAK256 DUP1 SLOAD SWAP4 SWAP7 SWAP6 SWAP3 SWAP5 SWAP3 SWAP4 PUSH1 0x1 PUSH1 0x1 PUSH1 0xA0 SHL SUB SWAP3 DUP4 AND SWAP1 PUSH1 0x1 PUSH1 0x1 PUSH1 0x40 SHL SUB DUP2 GT PUSH2 0x2B48 JUMPI DUP7 MLOAD SWAP3 PUSH2 0x425D DUP11 DUP4 PUSH1 0x5 SHL ADD DUP6 PUSH2 0x3495 JUMP JUMPDEST DUP2 DUP5 MSTORE DUP6 MSTORE DUP9 DUP6 KECCAK256 DUP6 SWAP1 DUP11 DUP1 DUP7 ADD JUMPDEST DUP5 DUP5 LT PUSH2 0x43D4 JUMPI POP POP POP POP POP DUP4 JUMPDEST DUP3 MLOAD DUP2 LT ISZERO PUSH2 0x43BE JUMPI DUP1 DUP10 DUP4 DUP6 DUP11 DUP9 PUSH2 0x42B0 DUP2 PUSH2 0x4299 PUSH1 0x1 SWAP10 DUP7 PUSH2 0x41A9 JUMP JUMPDEST MLOAD MLOAD AND DUP7 PUSH2 0x42A7 DUP10 DUP8 PUSH2 0x41A9 JUMP JUMPDEST MLOAD ADD MLOAD SWAP1 PUSH2 0x4C3B JUMP JUMPDEST SWAP5 DUP12 DUP7 PUSH2 0x42F9 JUMPI JUMPDEST POP SWAP2 POP DUP12 SWAP4 POP PUSH2 0x42E9 DUP7 PUSH32 0xAE629B396150638D6EB6DE457CBFFE5D618A10C8CC199A94976BED2B16ECD993 SWAP5 PUSH2 0x41A9 JUMP JUMPDEST MLOAD MLOAD AND SWAP4 DUP13 MLOAD SWAP1 DUP2 MSTORE LOG3 ADD PUSH2 0x427A JUMP JUMPDEST DUP4 PUSH1 0x0 DUP1 MLOAD PUSH1 0x20 PUSH2 0x536E DUP4 CODECOPY DUP2 MLOAD SWAP2 MSTORE SWAP5 PUSH1 0x4 SWAP3 DUP6 PUSH1 0x80 SWAP7 PUSH2 0x431B DUP14 DUP12 PUSH2 0x41A9 JUMP JUMPDEST MLOAD MLOAD AND DUP3 MSTORE PUSH1 0x1F DUP7 MSTORE DUP3 DUP3 KECCAK256 PUSH2 0x4332 DUP13 DUP3 SLOAD PUSH2 0x3696 JUMP JUMPDEST SWAP1 SSTORE DUP1 PUSH2 0x433F DUP14 DUP12 PUSH2 0x41A9 JUMP JUMPDEST MLOAD MLOAD AND DUP3 MSTORE DUP6 DUP1 MSTORE DUP3 DUP3 KECCAK256 PUSH2 0x4355 DUP13 DUP3 SLOAD PUSH2 0x3696 JUMP JUMPDEST SWAP1 SSTORE PUSH2 0x4361 DUP13 DUP11 PUSH2 0x41A9 JUMP JUMPDEST MLOAD MLOAD AND DUP2 MSTORE PUSH1 0x4F DUP6 MSTORE KECCAK256 SWAP3 DUP14 PUSH2 0x4399 DUP12 DUP5 MLOAD SWAP10 PUSH2 0x437D DUP12 PUSH2 0x347A JUMP JUMPDEST DUP8 SLOAD DUP12 MSTORE PUSH1 0x2 DUP16 DUP10 ADD SLOAD SWAP9 DUP7 DUP14 ADD SWAP10 DUP11 MSTORE ADD SLOAD DUP7 DUP13 ADD MSTORE PUSH2 0x41A9 JUMP JUMPDEST MLOAD MLOAD AND SWAP7 MLOAD SWAP4 MLOAD SWAP1 DUP3 MLOAD SWAP5 DUP6 MSTORE DUP5 ADD MSTORE DUP3 ADD MSTORE DUP13 PUSH1 0x60 DUP3 ADD MSTORE LOG3 DUP4 DUP6 DUP11 DUP9 DUP15 DUP12 PUSH2 0x42B8 JUMP JUMPDEST POP POP POP POP SWAP1 PUSH2 0x35FF SWAP4 SWAP5 PUSH1 0x1C SWAP2 DUP4 MSTORE MSTORE KECCAK256 PUSH2 0x41BD JUMP JUMPDEST PUSH1 0x1 SWAP2 PUSH1 0x2 SWAP2 DUP13 MLOAD PUSH2 0x43E5 DUP2 PUSH2 0x3436 JUMP JUMPDEST DUP11 DUP7 SLOAD AND DUP2 MSTORE DUP5 DUP7 ADD SLOAD DUP4 DUP3 ADD MSTORE DUP2 MSTORE ADD SWAP3 ADD SWAP3 ADD SWAP2 SWAP1 DUP12 SWAP1 PUSH2 0x426C JUMP JUMPDEST SWAP1 PUSH1 0x1 DUP1 PUSH1 0xA0 SHL SUB SWAP2 DUP3 DUP2 AND SWAP1 PUSH1 0x0 SWAP1 DUP3 DUP3 MSTORE PUSH1 0x20 SWAP2 PUSH1 0xF DUP4 MSTORE PUSH1 0x40 SWAP2 DUP3 DUP3 KECCAK256 SWAP2 PUSH1 0x3 DUP4 ADD SWAP1 DUP2 SLOAD PUSH1 0xFF DUP2 AND ISZERO PUSH2 0x4441 JUMPI JUMPDEST POP POP POP POP POP POP POP POP SWAP1 POP JUMP JUMPDEST PUSH1 0x1 PUSH1 0xFF NOT SWAP2 DUP3 AND DUP2 OR SWAP1 SWAP4 SSTORE PUSH1 0x10 DUP8 MSTORE DUP6 DUP3 KECCAK256 SWAP2 SWAP10 DUP11 SWAP5 DUP6 SWAP4 SELFBALANCE SWAP1 DUP6 SWAP1 DUP8 JUMPDEST PUSH2 0x45CC JUMPI JUMPDEST POP POP DUP9 SWAP5 DUP14 SWAP5 DUP13 SWAP14 SWAP15 SWAP5 DUP14 DUP7 PUSH32 0x920BB94EB3842A728DB98228C375FF6B00C5BC5A54FAC6736155517A0A20A61A SWAP16 SWAP12 SWAP8 SWAP7 DUP16 DUP12 SWAP8 SWAP1 DUP9 SWAP2 PUSH32 0xF3A670CD3AF7D64B488926880889D08A8585A138FF455227AF6737339A1EC262 SWAP15 SWAP11 PUSH2 0x4570 JUMPI JUMPDEST POP POP POP POP POP POP DUP6 PUSH2 0x4551 JUMPI JUMPDEST DUP10 DUP4 MSTORE PUSH1 0xE DUP14 MSTORE DUP4 DUP4 KECCAK256 PUSH1 0x5 DUP2 ADD DUP1 SLOAD SWAP4 DUP5 AND SWAP1 SSTORE SLOAD AND SWAP1 PUSH1 0xFF AND DUP1 PUSH2 0x4548 JUMPI JUMPDEST DUP1 PUSH2 0x4537 JUMPI JUMPDEST PUSH2 0x451E JUMPI JUMPDEST POP POP MLOAD SWAP3 DUP4 MSTORE POP DUP8 DUP3 ADD MSTORE LOG2 SLOAD SWAP1 MLOAD SWAP1 DUP2 MSTORE LOG2 DUP1 CODESIZE DUP1 DUP1 DUP1 DUP1 DUP1 DUP1 DUP1 PUSH2 0x4435 JUMP JUMPDEST DUP2 MSTORE KECCAK256 ADD PUSH2 0x452C DUP2 SLOAD PUSH2 0x4049 JUMP JUMPDEST SWAP1 SSTORE CODESIZE DUP4 DUP2 DUP1 PUSH2 0x44FD JUMP JUMPDEST POP DUP1 DUP3 MSTORE DUP4 DUP4 DUP4 KECCAK256 ADD SLOAD ISZERO ISZERO PUSH2 0x44F8 JUMP JUMPDEST POP DUP1 ISZERO ISZERO PUSH2 0x44F2 JUMP JUMPDEST DUP10 DUP4 MSTORE PUSH1 0xE DUP14 MSTORE PUSH1 0x6 DUP5 DUP5 KECCAK256 ADD PUSH2 0x4569 DUP8 DUP3 SLOAD PUSH2 0x3696 JUMP JUMPDEST SWAP1 SSTORE PUSH2 0x44D1 JUMP JUMPDEST DUP5 DUP2 LT PUSH2 0x4590 JUMPI POP POP POP PUSH2 0x4584 SWAP3 POP PUSH2 0x4108 JUMP JUMPDEST DUP10 DUP8 CODESIZE DUP16 DUP8 SWAP1 DUP3 PUSH2 0x44C5 JUMP JUMPDEST SWAP1 SWAP2 SWAP3 PUSH1 0x0 DUP1 MLOAD PUSH1 0x20 PUSH2 0x53EE DUP4 CODECOPY DUP2 MLOAD SWAP2 MSTORE SWAP5 POP DUP2 DUP1 PUSH2 0x45BC JUMPI JUMPDEST POP POP DUP3 MLOAD SWAP2 DUP13 DUP4 MSTORE DUP3 ADD MSTORE LOG2 PUSH2 0x4584 JUMP JUMPDEST PUSH2 0x45C5 SWAP2 PUSH2 0x4108 JUMP JUMPDEST CODESIZE DUP2 PUSH2 0x45AB JUMP JUMPDEST SWAP1 SWAP14 DUP15 DUP3 SLOAD GT ISZERO PUSH2 0x4690 JUMPI PUSH1 0xFF DUP16 PUSH2 0x45E6 PUSH1 0x4 SWAP2 DUP6 PUSH2 0x35A2 JUMP JUMPDEST POP ADD SLOAD AND ISZERO PUSH2 0x4685 JUMPI DUP8 DUP16 PUSH2 0x45FB SWAP1 DUP5 PUSH2 0x35A2 JUMP JUMPDEST POP ADD SLOAD DUP1 DUP10 SHL SWAP1 DUP1 DUP3 DIV PUSH1 0x2 EQ SWAP1 ISZERO OR ISZERO PUSH2 0x1141 JUMPI DUP16 PUSH2 0x4659 SWAP1 DUP11 SWAP5 SWAP4 DUP6 PUSH2 0x4635 PUSH2 0x12C PUSH2 0x462D DUP4 SWAP8 PUSH1 0xB SLOAD SWAP1 PUSH2 0x3656 JUMP JUMPDEST DIV SWAP4 DUP8 PUSH2 0x35A2 JUMP JUMPDEST POP ADD SLOAD DUP3 DUP2 LT PUSH2 0x4679 JUMPI SWAP1 PUSH2 0x464D DUP4 PUSH2 0x4653 SWAP4 PUSH2 0x3689 JUMP JUMPDEST SWAP1 PUSH2 0x3696 JUMP JUMPDEST SWAP12 PUSH2 0x3696 JUMP JUMPDEST SWAP16 PUSH1 0x4 PUSH2 0x4666 DUP3 DUP6 PUSH2 0x35A2 JUMP JUMPDEST POP ADD DUP9 DUP2 SLOAD AND SWAP1 SSTORE JUMPDEST ADD SWAP2 SWAP15 SWAP9 SWAP15 PUSH2 0x4461 JUMP JUMPDEST DUP12 SWAP3 POP PUSH2 0x4653 SWAP2 PUSH2 0x3696 JUMP JUMPDEST SWAP8 SWAP14 SWAP1 DUP8 DUP1 SWAP3 PUSH2 0x466F JUMP JUMPDEST SWAP14 PUSH2 0x4466 JUMP JUMPDEST SWAP1 DUP2 ISZERO PUSH2 0x483D JUMPI PUSH1 0x16 SLOAD PUSH9 0x3635C9ADC5DEA00000 DUP1 DUP3 LT SWAP1 DUP2 ISZERO PUSH2 0x4831 JUMPI JUMPDEST POP PUSH2 0x482C JUMPI SELFBALANCE PUSH2 0x46C5 DUP5 DUP4 PUSH2 0x3696 JUMP JUMPDEST GT PUSH2 0x482C JUMPI PUSH2 0x2710 DUP4 MUL PUSH2 0x270F NOT DUP5 DUP3 DIV ADD PUSH2 0x3640 JUMPI PUSH2 0x46E8 DUP3 PUSH2 0x3E8 SWAP3 PUSH2 0x3669 JUMP JUMPDEST GT PUSH2 0x482C JUMPI PUSH1 0x17 SLOAD SWAP3 PUSH2 0x4708 PUSH2 0x46FE DUP6 DUP4 PUSH2 0x3656 JUMP JUMPDEST PUSH2 0x1A41 DUP4 DUP6 PUSH2 0x3696 JUMP JUMPDEST DUP1 ISZERO DUP1 ISZERO PUSH2 0x4823 JUMPI JUMPDEST PUSH2 0x481C JUMPI PUSH1 0x0 SWAP5 PUSH1 0x1 DUP1 PUSH1 0xA0 SHL SUB DUP7 SLOAD AND SWAP1 PUSH1 0x40 SWAP5 DUP6 MLOAD PUSH4 0x70A08231 PUSH1 0xE0 SHL DUP2 MSTORE ADDRESS PUSH1 0x4 DUP3 ADD MSTORE PUSH1 0x20 DUP2 PUSH1 0x24 DUP2 DUP8 GAS STATICCALL SWAP1 DUP2 ISZERO PUSH2 0x4812 JUMPI SWAP1 DUP4 SWAP2 DUP11 SWAP2 PUSH2 0x47DD JUMPI JUMPDEST POP LT PUSH2 0x47D3 JUMPI DUP4 DUP9 SWAP4 SWAP3 PUSH2 0x1AD8 DUP8 PUSH2 0x4769 SWAP5 PUSH2 0x3696 JUMP JUMPDEST PUSH1 0x17 SSTORE DUP1 EXTCODESIZE ISZERO PUSH2 0x1BD8 JUMPI DUP2 SWAP1 PUSH1 0x24 DUP7 MLOAD DUP1 SWAP5 DUP2 SWAP4 PUSH4 0x852CD8D PUSH1 0xE3 SHL DUP4 MSTORE DUP8 PUSH1 0x4 DUP5 ADD MSTORE GAS CALL DUP1 ISZERO PUSH2 0x47C9 JUMPI PUSH1 0x0 DUP1 MLOAD PUSH1 0x20 PUSH2 0x544E DUP4 CODECOPY DUP2 MLOAD SWAP2 MSTORE SWAP6 SWAP7 POP PUSH2 0x47BA JUMPI JUMPDEST POP DUP3 MLOAD SWAP2 DUP3 MSTORE PUSH1 0x20 DUP3 ADD MSTORE LOG1 JUMP JUMPDEST PUSH2 0x47C3 SWAP1 PUSH2 0x3467 JUMP JUMPDEST CODESIZE PUSH2 0x47AC JUMP JUMPDEST DUP5 MLOAD RETURNDATASIZE DUP9 DUP3 RETURNDATACOPY RETURNDATASIZE SWAP1 REVERT JUMPDEST POP POP POP POP POP POP SWAP1 POP JUMP JUMPDEST SWAP2 POP POP PUSH1 0x20 DUP2 RETURNDATASIZE PUSH1 0x20 GT PUSH2 0x480A JUMPI JUMPDEST DUP2 PUSH2 0x47F9 PUSH1 0x20 SWAP4 DUP4 PUSH2 0x3495 JUMP JUMPDEST DUP2 ADD SUB SLT PUSH2 0x3910 JUMPI DUP3 SWAP1 MLOAD CODESIZE PUSH2 0x4752 JUMP JUMPDEST RETURNDATASIZE SWAP2 POP PUSH2 0x47EC JUMP JUMPDEST DUP8 MLOAD RETURNDATASIZE DUP12 DUP3 RETURNDATACOPY RETURNDATASIZE SWAP1 REVERT JUMPDEST POP POP POP SWAP1 POP JUMP JUMPDEST POP DUP5 DUP2 GT PUSH2 0x4711 JUMP JUMPDEST POP SWAP1 POP JUMP JUMPDEST SWAP1 POP PUSH1 0x17 SLOAD LT CODESIZE PUSH2 0x46B5 JUMP JUMPDEST SWAP1 POP JUMP JUMPDEST PUSH1 0x1 PUSH1 0x1 PUSH1 0xA0 SHL SUB SWAP1 DUP2 AND PUSH1 0x0 DUP2 DUP2 MSTORE PUSH1 0xF PUSH1 0x20 SWAP1 DUP2 MSTORE PUSH1 0x40 DUP1 DUP4 KECCAK256 PUSH1 0x1 DUP2 DUP2 ADD DUP1 SLOAD SWAP7 SWAP8 SWAP1 SWAP7 SWAP4 SWAP6 SWAP1 SWAP5 SWAP3 SWAP2 DUP5 ISZERO DUP1 ISZERO PUSH2 0x49FF JUMPI JUMPDEST PUSH2 0x49AA JUMPI PUSH1 0x10 DUP5 MSTORE DUP7 DUP3 KECCAK256 DUP1 SLOAD DUP4 SWAP3 SWAP2 DUP4 JUMPDEST DUP3 DUP2 LT PUSH2 0x49BF JUMPI POP POP POP POP PUSH2 0x49B5 JUMPI PUSH1 0x2 DUP3 ADD SWAP7 PUSH2 0x48AB DUP9 SLOAD PUSH1 0x14 SLOAD SWAP1 PUSH2 0x3696 JUMP JUMPDEST TIMESTAMP GT ISZERO PUSH2 0x49AA JUMPI PUSH1 0x3 DUP4 DUP4 PUSH32 0x57025F0027038907EDA728B59164FB63D06048F42E618A35267E6A12E49B2E46 SWAP11 DUP11 SWAP7 SLOAD SWAP10 DUP14 DUP4 MSTORE PUSH1 0xE DUP10 MSTORE PUSH1 0xFF PUSH1 0x5 DUP10 DUP6 KECCAK256 SWAP3 DUP4 SLOAD AND SWAP3 ADD SLOAD AND DUP1 PUSH2 0x49A1 JUMPI JUMPDEST DUP1 PUSH2 0x498F JUMPI JUMPDEST PUSH2 0x4975 JUMPI JUMPDEST POP DUP13 DUP3 MSTORE PUSH1 0xE DUP9 MSTORE DUP2 DUP8 DUP2 KECCAK256 SWAP6 DUP2 PUSH1 0x4 PUSH1 0x5 DUP10 ADD SWAP9 PUSH1 0xFF NOT SWAP10 DUP11 DUP2 SLOAD AND SWAP1 SSTORE DUP3 DUP10 DUP3 ADD SSTORE ADD SSTORE DUP2 DUP6 SSTORE SSTORE SSTORE ADD SWAP1 DUP2 SLOAD AND SWAP1 SSTORE DUP5 PUSH2 0x4946 JUMPI JUMPDEST POP MLOAD SWAP3 DUP4 MSTORE DUP3 ADD MSTORE LOG2 JUMP JUMPDEST DUP5 DUP2 MSTORE PUSH1 0x12 DUP4 MSTORE PUSH2 0x4958 DUP3 DUP3 KECCAK256 PUSH2 0x41BD JUMP JUMPDEST DUP5 DUP2 MSTORE PUSH1 0x1B DUP4 MSTORE KECCAK256 DUP1 SLOAD PUSH1 0x1 PUSH1 0x1 PUSH1 0xA0 SHL SUB NOT AND SWAP1 SSTORE DUP4 CODESIZE PUSH2 0x493B JUMP JUMPDEST DUP3 MSTORE PUSH1 0x1 DUP8 DUP4 KECCAK256 ADD PUSH2 0x4987 DUP2 SLOAD PUSH2 0x4049 JUMP JUMPDEST SWAP1 SSTORE CODESIZE PUSH2 0x4903 JUMP JUMPDEST POP DUP1 DUP4 MSTORE PUSH1 0x1 DUP9 DUP5 KECCAK256 ADD SLOAD ISZERO ISZERO PUSH2 0x48FE JUMP JUMPDEST POP DUP1 ISZERO ISZERO PUSH2 0x48F8 JUMP JUMPDEST POP POP POP POP POP POP POP POP POP JUMP JUMPDEST POP POP POP POP POP POP POP POP JUMP JUMPDEST PUSH1 0xFF PUSH1 0x4 PUSH2 0x49CD DUP4 DUP6 PUSH2 0x35A2 JUMP JUMPDEST POP ADD SLOAD AND PUSH2 0x49DD JUMPI JUMPDEST DUP4 ADD PUSH2 0x4889 JUMP JUMPDEST SWAP4 PUSH2 0x49F7 DUP5 SWAP2 DUP3 PUSH2 0x49EE DUP9 DUP7 PUSH2 0x35A2 JUMP JUMPDEST POP ADD SLOAD SWAP1 PUSH2 0x3696 JUMP JUMPDEST SWAP5 SWAP1 POP PUSH2 0x49D6 JUMP JUMPDEST POP PUSH1 0xFF PUSH1 0x3 DUP5 ADD SLOAD AND PUSH2 0x4877 JUMP JUMPDEST PUSH1 0x1 DUP1 PUSH1 0xA0 SHL SUB DUP2 AND PUSH1 0x0 DUP2 DUP2 MSTORE PUSH1 0xE PUSH1 0x20 MSTORE PUSH1 0x40 SWAP2 DUP3 DUP3 KECCAK256 SWAP3 PUSH1 0xF PUSH1 0x20 MSTORE DUP1 DUP4 KECCAK256 PUSH1 0xFF PUSH1 0x5 DUP7 ADD SLOAD AND ISZERO SWAP1 DUP2 ISZERO PUSH2 0x4B37 JUMPI JUMPDEST DUP2 ISZERO PUSH2 0x4B2A JUMPI JUMPDEST POP PUSH2 0x4B21 JUMPI PUSH1 0x4 DUP5 ADD SWAP4 PUSH1 0x3 DUP6 SLOAD SWAP2 ADD SWAP4 PUSH2 0x4A64 DUP6 SLOAD DUP1 SWAP4 PUSH2 0x3689 JUMP JUMPDEST DUP9 DUP2 DUP2 GT PUSH2 0x4AF8 JUMPI JUMPDEST POP POP DUP8 ISZERO PUSH2 0x4AED JUMPI DUP8 SELFBALANCE LT PUSH2 0x4AC6 JUMPI POP SWAP1 PUSH2 0x4A97 DUP8 PUSH1 0x0 DUP1 MLOAD PUSH1 0x20 PUSH2 0x548E DUP4 CODECOPY DUP2 MLOAD SWAP2 MSTORE SWAP4 PUSH2 0x3696 JUMP JUMPDEST DUP5 SSTORE PUSH2 0x4AA3 DUP8 DUP8 PUSH2 0x4108 JUMP JUMPDEST DUP1 MLOAD DUP8 DUP2 MSTORE PUSH1 0x2 PUSH1 0x20 DUP3 ADD MSTORE LOG2 SLOAD SWAP1 SLOAD GT ISZERO PUSH2 0x4ABD JUMPI POP SWAP1 JUMP JUMPDEST PUSH2 0x3B7C SWAP1 PUSH2 0x4403 JUMP JUMPDEST SWAP7 SWAP3 SWAP6 POP POP PUSH1 0x0 DUP1 MLOAD PUSH1 0x20 PUSH2 0x53EE DUP4 CODECOPY DUP2 MLOAD SWAP2 MSTORE SWAP4 POP DUP1 SWAP3 POP MLOAD SWAP1 DUP2 MSTORE DUP5 PUSH1 0x20 DUP3 ADD MSTORE LOG2 SWAP1 JUMP JUMPDEST SWAP7 POP POP POP POP POP POP POP SWAP1 JUMP JUMPDEST DUP2 SWAP10 POP DUP5 PUSH1 0x0 DUP1 MLOAD PUSH1 0x20 PUSH2 0x53EE DUP4 CODECOPY DUP2 MLOAD SWAP2 MSTORE SWAP2 DUP8 SWAP4 SWAP12 DUP3 MLOAD SWAP2 DUP3 MSTORE PUSH1 0x20 DUP3 ADD MSTORE LOG2 CODESIZE DUP1 PUSH2 0x4A6D JUMP JUMPDEST POP POP SWAP3 POP POP POP SWAP1 JUMP JUMPDEST PUSH1 0x1 SWAP2 POP ADD SLOAD ISZERO CODESIZE PUSH2 0x4A47 JUMP JUMPDEST PUSH1 0x3 DUP2 ADD SLOAD PUSH1 0xFF AND SWAP2 POP PUSH2 0x4A40 JUMP JUMPDEST PUSH1 0x1 DUP1 PUSH1 0xA0 SHL SUB DUP2 AND PUSH1 0x0 DUP2 DUP2 MSTORE PUSH1 0xE PUSH1 0x20 MSTORE PUSH1 0x40 SWAP2 DUP3 DUP3 KECCAK256 SWAP3 PUSH1 0xF PUSH1 0x20 MSTORE DUP1 DUP4 KECCAK256 PUSH1 0xFF PUSH1 0x5 DUP7 ADD SLOAD AND ISZERO SWAP1 DUP2 ISZERO PUSH2 0x4C2C JUMPI JUMPDEST DUP2 ISZERO PUSH2 0x4C1F JUMPI JUMPDEST POP PUSH2 0x4B21 JUMPI PUSH1 0x4 DUP5 ADD SWAP4 PUSH1 0x3 DUP6 SLOAD SWAP2 ADD SWAP4 PUSH2 0x4B9D DUP6 SLOAD DUP1 SWAP4 PUSH2 0x3689 JUMP JUMPDEST DUP9 DUP2 DUP2 GT PUSH2 0x4BF6 JUMPI JUMPDEST POP POP DUP8 ISZERO PUSH2 0x4AED JUMPI DUP8 SELFBALANCE LT PUSH2 0x4AC6 JUMPI POP SWAP1 PUSH2 0x4BD0 DUP8 PUSH1 0x0 DUP1 MLOAD PUSH1 0x20 PUSH2 0x548E DUP4 CODECOPY DUP2 MLOAD SWAP2 MSTORE SWAP4 PUSH2 0x3696 JUMP JUMPDEST DUP5 SSTORE PUSH2 0x4BDC DUP8 DUP8 PUSH2 0x4108 JUMP JUMPDEST DUP1 MLOAD DUP8 DUP2 MSTORE PUSH1 0x3 PUSH1 0x20 DUP3 ADD MSTORE LOG2 SLOAD SWAP1 SLOAD GT ISZERO PUSH2 0x4ABD JUMPI POP SWAP1 JUMP JUMPDEST DUP2 SWAP10 POP DUP5 PUSH1 0x0 DUP1 MLOAD PUSH1 0x20 PUSH2 0x53EE DUP4 CODECOPY DUP2 MLOAD SWAP2 MSTORE SWAP2 DUP8 SWAP4 SWAP12 DUP3 MLOAD SWAP2 DUP3 MSTORE PUSH1 0x20 DUP3 ADD MSTORE LOG2 CODESIZE DUP1 PUSH2 0x4BA6 JUMP JUMPDEST PUSH1 0x1 SWAP2 POP ADD SLOAD ISZERO CODESIZE PUSH2 0x4B80 JUMP JUMPDEST PUSH1 0x3 DUP2 ADD SLOAD PUSH1 0xFF AND SWAP2 POP PUSH2 0x4B79 JUMP JUMPDEST PUSH1 0x1 DUP1 PUSH1 0xA0 SHL SUB DUP2 AND PUSH1 0x0 MSTORE PUSH1 0xE PUSH1 0x20 MSTORE PUSH1 0x40 PUSH1 0x0 KECCAK256 PUSH1 0xF PUSH1 0x20 MSTORE PUSH1 0x40 PUSH1 0x0 KECCAK256 PUSH1 0xFF PUSH1 0x5 DUP4 ADD SLOAD AND ISZERO SWAP1 DUP2 ISZERO PUSH2 0x51E5 JUMPI JUMPDEST DUP2 ISZERO PUSH2 0x51D8 JUMPI JUMPDEST POP PUSH2 0x4199 JUMPI DUP1 PUSH1 0x3 PUSH1 0x4 PUSH2 0x4C8C SWAP4 ADD SLOAD SWAP2 ADD SLOAD SWAP1 PUSH2 0x3689 JUMP JUMPDEST DUP3 DUP2 DUP2 GT PUSH2 0x51A4 JUMPI JUMPDEST POP POP DUP2 ISZERO PUSH2 0x519D JUMPI PUSH1 0x1 PUSH1 0x1 PUSH1 0xA0 SHL SUB DUP2 AND PUSH1 0x0 SWAP1 DUP2 MSTORE PUSH1 0xE PUSH1 0x20 MSTORE PUSH1 0x40 SWAP1 KECCAK256 SWAP1 PUSH2 0x4CBE PUSH2 0x5249 JUMP JUMPDEST SWAP1 PUSH8 0xDE0B6B3A7640000 DUP5 PUSH1 0x1 SHR MUL DUP5 PUSH1 0x1 SHR DUP2 DIV PUSH8 0xDE0B6B3A7640000 EQ DUP6 PUSH1 0x1 SHR ISZERO OR ISZERO PUSH2 0x3640 JUMPI DUP3 PUSH2 0x4CF2 SWAP2 PUSH2 0x3669 JUMP JUMPDEST SWAP4 PUSH1 0x40 MLOAD DUP2 DUP2 MSTORE DUP2 PUSH1 0x1 SHR PUSH1 0x20 DUP3 ADD MSTORE DUP2 PUSH1 0x1 SHR PUSH1 0x40 DUP3 ADD MSTORE DUP4 PUSH1 0x60 DUP3 ADD MSTORE DUP6 PUSH1 0x80 DUP3 ADD MSTORE PUSH32 0xA7E66AFC02702FFEB435EE9BACCE4988459C7B329BF0DD9F8F551D823D1FECE0 PUSH1 0xA0 PUSH1 0x1 DUP1 DUP3 SHL SUB DUP6 AND SWAP3 LOG2 DUP5 SWAP3 PUSH1 0x0 SWAP5 PUSH1 0x0 SWAP3 PUSH2 0x4D55 DUP9 PUSH2 0x5336 JUMP JUMPDEST ISZERO PUSH2 0x5157 JUMPI JUMPDEST DUP1 PUSH1 0x1 SHR ISZERO ISZERO DUP1 PUSH2 0x514E JUMPI JUMPDEST PUSH2 0x50B7 JUMPI JUMPDEST PUSH1 0x0 SLOAD PUSH1 0x40 MLOAD PUSH4 0x70A08231 PUSH1 0xE0 SHL DUP2 MSTORE ADDRESS PUSH1 0x4 DUP3 ADD MSTORE PUSH1 0x1 PUSH1 0x1 PUSH1 0xA0 SHL SUB SWAP1 SWAP2 AND SWAP7 SWAP1 PUSH1 0x20 DUP2 PUSH1 0x24 DUP2 DUP12 GAS STATICCALL SWAP1 DUP2 ISZERO PUSH2 0x5009 JUMPI PUSH1 0x0 SWAP2 PUSH2 0x5085 JUMPI JUMPDEST POP DUP2 ISZERO ISZERO DUP1 PUSH2 0x507C JUMPI JUMPDEST PUSH2 0x4F96 JUMPI JUMPDEST POP PUSH1 0x2 SWAP7 POP DUP8 DUP3 PUSH1 0x1 SHR GT DUP1 ISZERO PUSH2 0x4F8D JUMPI JUMPDEST PUSH2 0x4F46 JUMPI JUMPDEST POP PUSH2 0x4DEB PUSH8 0xDE0B6B3A7640000 PUSH2 0x4DE4 DUP6 DUP8 PUSH2 0x3656 JUMP JUMPDEST DIV DUP9 PUSH2 0x3696 JUMP JUMPDEST SWAP8 DUP9 ISZERO PUSH2 0x4ECF JUMPI POP POP DUP1 PUSH1 0x3 PUSH1 0x4 SWAP3 ADD SWAP3 PUSH2 0x4E07 DUP10 DUP6 SLOAD PUSH2 0x3696 JUMP JUMPDEST SWAP4 DUP5 SWAP1 SSTORE PUSH1 0x40 DUP1 MLOAD DUP11 DUP2 MSTORE PUSH1 0x20 DUP2 ADD DUP6 SWAP1 MSTORE PUSH1 0x1 PUSH1 0x1 PUSH1 0xA0 SHL SUB DUP9 AND SWAP2 PUSH1 0x0 DUP1 MLOAD PUSH1 0x20 PUSH2 0x548E DUP4 CODECOPY DUP2 MLOAD SWAP2 MSTORE SWAP2 LOG2 PUSH32 0xE83062C7BAE5146A0AFC41B3A8342F225ED2581A8E234E0BA69D9FF8C53A48D6 PUSH1 0x40 MLOAD DUP1 PUSH2 0x4E71 DUP12 PUSH1 0x1 DUP1 PUSH1 0xA0 SHL SUB DUP12 AND SWAP6 DUP11 TIMESTAMP SWAP3 DUP6 PUSH2 0x353D JUMP JUMPDEST SUB SWAP1 LOG2 ADD SLOAD GT ISZERO PUSH2 0x4EC1 JUMPI JUMPDEST PUSH1 0x40 MLOAD SWAP4 PUSH2 0x4E8A DUP6 PUSH2 0x347A JUMP JUMPDEST DUP5 MSTORE PUSH1 0x20 DUP5 ADD SWAP1 DUP2 MSTORE PUSH1 0x40 DUP5 ADD SWAP2 DUP6 DUP4 MSTORE PUSH1 0x1 DUP1 PUSH1 0xA0 SHL SUB AND PUSH1 0x0 MSTORE PUSH1 0x4F PUSH1 0x20 MSTORE PUSH1 0x40 PUSH1 0x0 KECCAK256 SWAP4 MLOAD DUP5 SSTORE MLOAD PUSH1 0x1 DUP5 ADD SSTORE MLOAD SWAP2 ADD SSTORE SWAP1 JUMP JUMPDEST PUSH2 0x4ECA DUP3 PUSH2 0x4403 JUMP JUMPDEST PUSH2 0x4E7D JUMP JUMPDEST SWAP2 POP SWAP2 POP PUSH1 0x40 MLOAD SWAP2 DUP1 DUP4 MSTORE PUSH1 0x1 SHR PUSH1 0x20 DUP4 ADD MSTORE PUSH1 0x40 DUP3 ADD MSTORE PUSH1 0x80 PUSH1 0x60 DUP3 ADD MSTORE PUSH1 0x15 PUSH1 0x80 DUP3 ADD MSTORE PUSH21 0x139BC81D1BDAD95B9CC81D1C985B9CD9995C9C9959 PUSH1 0x5A SHL PUSH1 0xA0 DUP3 ADD MSTORE PUSH32 0xD8349F8FFFF882EDF1F3A7F209A1D24FB5E821BA347CF8DA7F016DE352368FD0 PUSH1 0xC0 PUSH1 0x1 DUP1 PUSH1 0xA0 SHL SUB DUP6 AND SWAP3 LOG2 PUSH2 0x4E7D JUMP JUMPDEST PUSH32 0x60369B7CD498D613812AF36DD7CB398BA493EE0AFE0FC21D90A9F8B5FC620AA3 PUSH1 0x40 MLOAD DUP1 PUSH2 0x4F84 DUP9 PUSH1 0x1 DUP1 PUSH1 0xA0 SHL SUB DUP12 AND SWAP6 DUP14 DUP9 PUSH1 0x1 SHR DUP6 PUSH2 0x353D JUMP JUMPDEST SUB SWAP1 LOG2 CODESIZE PUSH2 0x4DCD JUMP JUMPDEST POP DUP5 DUP2 GT PUSH2 0x4DC8 JUMP JUMPDEST SWAP5 POP DUP5 DUP2 GT ISZERO PUSH2 0x5076 JUMPI DUP5 JUMPDEST SWAP5 DUP6 SWAP1 DUP2 GT PUSH2 0x5015 JUMPI POP PUSH1 0x20 PUSH1 0x40 MLOAD DUP1 SWAP9 PUSH4 0xA9059CBB PUSH1 0xE0 SHL DUP3 MSTORE DUP2 PUSH1 0x0 DUP2 PUSH2 0x4FCF DUP12 DUP14 PUSH1 0x4 DUP5 ADD PUSH2 0x3505 JUMP JUMPDEST SUB SWAP3 GAS CALL SWAP7 DUP8 ISZERO PUSH2 0x5009 JUMPI PUSH1 0x2 SWAP8 PUSH2 0x4FEA JUMPI JUMPDEST POP JUMPDEST CODESIZE PUSH2 0x4DB6 JUMP JUMPDEST PUSH2 0x5002 SWAP1 PUSH1 0x20 RETURNDATASIZE PUSH1 0x20 GT PUSH2 0xC7B JUMPI PUSH2 0xC6C DUP2 DUP4 PUSH2 0x3495 JUMP JUMPDEST POP CODESIZE PUSH2 0x4FE2 JUMP JUMPDEST PUSH1 0x40 MLOAD RETURNDATASIZE PUSH1 0x0 DUP3 RETURNDATACOPY RETURNDATASIZE SWAP1 REVERT JUMPDEST SWAP1 SWAP5 POP PUSH1 0x2 SWAP7 POP PUSH1 0x40 MLOAD SWAP1 PUSH1 0x0 DUP3 MSTORE PUSH1 0x20 DUP3 ADD MSTORE PUSH1 0x60 PUSH1 0x40 DUP3 ADD MSTORE PUSH1 0x13 PUSH1 0x60 DUP3 ADD MSTORE PUSH19 0x129090C81D1C985B9CD9995C8819985A5B1959 PUSH1 0x6A SHL PUSH1 0x80 DUP3 ADD MSTORE PUSH1 0x0 DUP1 MLOAD PUSH1 0x20 PUSH2 0x542E DUP4 CODECOPY DUP2 MLOAD SWAP2 MSTORE PUSH1 0xA0 PUSH1 0x1 DUP1 DUP3 SHL SUB DUP9 AND SWAP3 LOG2 PUSH1 0x0 SWAP4 PUSH2 0x4FE4 JUMP JUMPDEST DUP1 PUSH2 0x4FA2 JUMP JUMPDEST POP DUP1 ISZERO ISZERO PUSH2 0x4DB1 JUMP JUMPDEST SWAP1 POP PUSH1 0x20 DUP2 RETURNDATASIZE PUSH1 0x20 GT PUSH2 0x50AF JUMPI JUMPDEST DUP2 PUSH2 0x50A0 PUSH1 0x20 SWAP4 DUP4 PUSH2 0x3495 JUMP JUMPDEST DUP2 ADD SUB SLT PUSH2 0x13CA JUMPI MLOAD CODESIZE PUSH2 0x4DA7 JUMP JUMPDEST RETURNDATASIZE SWAP2 POP PUSH2 0x5093 JUMP JUMPDEST SWAP6 POP SELFBALANCE DUP7 PUSH1 0x1 SHR GT PUSH1 0x0 EQ PUSH2 0x5144 JUMPI SELFBALANCE SWAP6 JUMPDEST DUP7 SELFBALANCE DUP2 GT PUSH2 0x50E1 JUMPI POP PUSH2 0x50DC DUP8 DUP7 PUSH2 0x4108 JUMP JUMPDEST PUSH2 0x4D6C JUMP JUMPDEST SWAP1 SWAP7 POP PUSH1 0x40 MLOAD SWAP1 DUP2 MSTORE PUSH1 0x0 PUSH1 0x20 DUP3 ADD MSTORE PUSH1 0x60 PUSH1 0x40 DUP3 ADD MSTORE PUSH1 0x19 PUSH1 0x60 DUP3 ADD MSTORE PUSH25 0x13985D1A5D99481350C81D1C985B9CD9995C8819985A5B1959 PUSH1 0x3A SHL PUSH1 0x80 DUP3 ADD MSTORE PUSH1 0x0 DUP1 MLOAD PUSH1 0x20 PUSH2 0x542E DUP4 CODECOPY DUP2 MLOAD SWAP2 MSTORE PUSH1 0xA0 PUSH1 0x1 DUP1 DUP3 SHL SUB DUP8 AND SWAP3 LOG2 PUSH1 0x0 SWAP6 PUSH2 0x4D6C JUMP JUMPDEST DUP6 PUSH1 0x1 SHR SWAP6 PUSH2 0x50C9 JUMP JUMPDEST POP SELFBALANCE ISZERO ISZERO PUSH2 0x4D67 JUMP JUMPDEST PUSH1 0x17 SLOAD PUSH1 0x40 MLOAD PUSH1 0x14 SWAP1 SWAP2 DIV DUP1 DUP3 MSTORE SWAP7 POP PUSH1 0x1 PUSH1 0x1 PUSH1 0xA0 SHL SUB DUP7 AND SWAP1 PUSH32 0xA3C9509A6AF5AB7AB677B3CAA94BB10373473B146705F236C71768D7B6B1A513 SWAP1 PUSH1 0x20 SWAP1 LOG2 PUSH2 0x4D5B JUMP JUMPDEST POP POP PUSH1 0x0 SWAP1 JUMP JUMPDEST PUSH1 0x40 DUP1 MLOAD SWAP2 DUP3 MSTORE PUSH1 0x20 DUP3 ADD DUP4 SWAP1 MSTORE SWAP2 SWAP4 POP PUSH1 0x1 PUSH1 0x1 PUSH1 0xA0 SHL SUB DUP4 AND SWAP2 PUSH1 0x0 DUP1 MLOAD PUSH1 0x20 PUSH2 0x53EE DUP4 CODECOPY DUP2 MLOAD SWAP2 MSTORE SWAP2 LOG2 CODESIZE DUP1 PUSH2 0x4C95 JUMP JUMPDEST PUSH1 0x1 SWAP2 POP ADD SLOAD ISZERO CODESIZE PUSH2 0x4C73 JUMP JUMPDEST PUSH1 0x3 DUP2 ADD SLOAD PUSH1 0xFF AND SWAP2 POP PUSH2 0x4C6C JUMP JUMPDEST PUSH1 0xFF PUSH1 0x0 DUP1 MLOAD PUSH1 0x20 PUSH2 0x54CE DUP4 CODECOPY DUP2 MLOAD SWAP2 MSTORE SLOAD PUSH1 0x40 SHR AND ISZERO PUSH2 0x5211 JUMPI JUMP JUMPDEST PUSH1 0x40 MLOAD PUSH4 0x1AFCD79F PUSH1 0xE3 SHL DUP2 MSTORE PUSH1 0x4 SWAP1 REVERT JUMPDEST PUSH1 0x7 DUP2 EQ PUSH2 0x5241 JUMPI PUSH1 0xF EQ PUSH2 0x523A JUMPI PUSH4 0x1312D00 SWAP1 JUMP JUMPDEST PUSH3 0xFE502B SWAP1 JUMP JUMPDEST POP PUSH3 0xCB7356 SWAP1 JUMP JUMPDEST PUSH1 0x17 SLOAD DUP1 ISZERO DUP1 ISZERO PUSH2 0x5295 JUMPI JUMPDEST PUSH2 0x5288 JUMPI PUSH1 0x16 SLOAD PUSH8 0xDE0B6B3A7640000 SWAP1 DUP2 DUP2 MUL SWAP2 DUP2 DUP4 DIV EQ SWAP1 ISZERO OR ISZERO PUSH2 0x3640 JUMPI PUSH2 0x3B7C SWAP2 PUSH2 0x5283 SWAP2 PUSH2 0x3669 JUMP JUMPDEST PUSH2 0x530C JUMP JUMPDEST POP PUSH8 0xDE0B6B3A7640000 SWAP1 JUMP JUMPDEST POP PUSH9 0x3635C9ADC5DEA00000 PUSH1 0x16 SLOAD LT PUSH2 0x5255 JUMP JUMPDEST SWAP1 PUSH2 0x52D0 JUMPI POP DUP1 MLOAD ISZERO PUSH2 0x52BE JUMPI PUSH1 0x20 DUP2 MLOAD SWAP2 ADD REVERT JUMPDEST PUSH1 0x40 MLOAD PUSH4 0xD6BDA275 PUSH1 0xE0 SHL DUP2 MSTORE PUSH1 0x4 SWAP1 REVERT JUMPDEST DUP2 MLOAD ISZERO DUP1 PUSH2 0x5303 JUMPI JUMPDEST PUSH2 0x52E1 JUMPI POP SWAP1 JUMP JUMPDEST PUSH1 0x40 MLOAD PUSH4 0x9996B315 PUSH1 0xE0 SHL DUP2 MSTORE PUSH1 0x1 PUSH1 0x1 PUSH1 0xA0 SHL SUB SWAP1 SWAP2 AND PUSH1 0x4 DUP3 ADD MSTORE PUSH1 0x24 SWAP1 REVERT JUMPDEST POP DUP1 EXTCODESIZE ISZERO PUSH2 0x52D9 JUMP JUMPDEST PUSH8 0x16345785D8A0000 DUP1 DUP3 LT PUSH2 0x5331 JUMPI POP PUSH8 0x8AC7230489E80000 DUP1 DUP3 GT PUSH2 0x5331 JUMPI POP SWAP1 JUMP JUMPDEST SWAP1 POP SWAP1 JUMP JUMPDEST DUP1 ISZERO PUSH2 0x5347 JUMPI PUSH1 0x14 PUSH1 0x17 SLOAD DIV LT ISZERO SWAP1 JUMP JUMPDEST POP PUSH1 0x1 SWAP1 JUMP INVALID CODESIZE 0xF8 LOG0 0xC9 0x2F 0x4C JUMPDEST SIGNEXTEND PUSH9 0x77F878CB4C0C8D348A SELFBALANCE 0xB7 PUSH14 0x716C8E78F425043DF9515B62C4EA TIMESTAMP 0x29 0xC3 SWAP7 0xC9 0xB5 0xC3 CALLDATACOPY PUSH26 0xEC09ED411B29ED8782E48AC358EAA9E8AA58A9B06FCEBD0A2CE9 DUP12 0x28 0xCB CODECOPY SAR PUSH1 0x8 0xBB 0xC7 PUSH10 0x378C9A4919628E11639C 0xB5 PUSH22 0xCD320FCC9016D09D72D40FDAE2FD8CEAC6B6234C7706 0x21 0x4F 0xD3 SWAP13 SHR 0xD1 0xE6 MULMOD LOG0 MSTORE DUP13 NOT SWAP4 STOP CALLDATASIZE ADDMOD SWAP5 LOG1 EXTCODESIZE LOG1 LOG3 0x21 MOD PUSH8 0xC828492DB98DCA3E KECCAK256 PUSH23 0xCC3735A920A3CA505D382BBCB5987AAB1AFD379F6695F1 MOD DUP9 PUSH10 0xEE8CA6A0D02304C57935 0xA9 0xCC RETURNDATASIZE RETURNDATACOPY LOG2 0xE5 0x1E 0x4D MSTORE SIGNEXTEND 0xC2 OR 0xD2 0x5E DELEGATECALL PC DUP6 0x24 0x22 DUP14 SELFDESTRUCT 0xCF 0xA5 XOR DELEGATECALL 0xAD MSTORE OR DUP13 PUSH18 0xD49B8061D016213CD311DA109F9A8D012932 PUSH13 0x2906F581ADFD38D938005D4421 DUP11 0x2F PUSH29 0x843B9B105AF9BA0EC3929061CBBBEECB325623E7D5A86C3DAE11CB8A22 0xCA GASLIMIT 0xDC MULMOD PUSH19 0x955657DA258BE0079C531659141344CD1FD0A4 CALLCODE DUP5 NOT 0x49 PUSH32 0x9722A3DAAFE3B4186F6B6457E0F381583145E90B82CC5E529BF4FC4D0E443971 PUSH21 0xCDF145C4251AC33EF195A4249B779B17422D0DF922 0x23 ADD DUP12 ORIGIN 0xB4 0xD1 STATICCALL CHAINID 0xE0 PUSH18 0x723D6817E2486D003BECC55F00F0C57E1684 0xD CREATE BLOCKHASH CALL POP DUP9 0xDC 0x2F DUP2 INVALID CODECOPY SHR CODECOPY 0x23 0xBE 0xC7 RETURNDATACOPY 0x23 0xA9 PUSH7 0x2EFC9C229C6A00 LOG2 PUSH5 0x6970667358 0x22 SLT KECCAK256 MSTORE8 0xB4 BALANCE PUSH10 0x7870C7B719C14F419501 JUMPDEST BYTE SIGNEXTEND GASPRICE MSIZE POP 0xB4 PUSH28 0x646912150F9E31395E964736F6C6343000816003300000000000000 "},"methodIdentifiers":{"MAX_PRICE_IMPACT()":"6839b5fa","MIN_LIQUIDITY()":"21b77d63","REWARD_DIFFERENTIAL()":"88481b61","REWARD_DIRECT()":"0e2be210","REWARD_DYNAMIC()":"8a859a85","REWARD_LEVEL()":"8c0eaa48","REWARD_STATIC()":"1427f616","SECONDS_IN_UNIT()":"488b5d97","UPGRADE_INTERFACE_VERSION()":"ad3cb1cc","addLiquidity(uint256)":"51c6590a","adminSetReferrer(address,address)":"a2af9226","bindReferrer(address)":"04f618cb","buyTicket()":"edca914c","buybackPercent()":"e4412f68","buybackWallet()":"deab8aea","calculateLevel(uint256)":"dce3dc1f","claimRewards()":"372500ab","dailyBurn()":"81eeef5c","directReferrals(address,uint256)":"05ad3935","directRewardPercent()":"ccf61944","emergencyPause()":"51858e27","emergencyPaused()":"27c830a9","emergencyUnpause()":"4a4e3bd5","emergencyWithdrawNative(address,uint256)":"9b788504","executeBuybackAndBurn()":"4348b59b","getDirectReferrals(address)":"d2c8e0e5","getLevelRewardLayers(uint256)":"182c84cc","getUserDynamicRewards(address)":"a1d7d1a9","getUserLevel(address)":"21923bde","initialize(address,address,address,address,address)":"1459457a","jbcToken()":"1788513c","lastBurnTime()":"e3067449","levelConfigs(uint256)":"21f483d3","levelRewardPercent()":"bd594dcf","levelRewardPool()":"b759936b","liquidityEnabled()":"b048a4bb","lpInjectionPercent()":"ceaa366d","lpInjectionWallet()":"88fd4d33","marketingPercent()":"d8020a18","marketingWallet()":"75f0a874","nextStakeId()":"75506c96","nextTicketId()":"6031a52f","owner()":"8da5cb5b","priceOracle()":"2630c12f","proxiableUUID()":"52d1902d","redeem()":"be040fb0","redeemEnabled()":"d2f82536","redemptionFeePercent()":"dec7fa3b","renounceOwnership()":"715018a6","rescueTokens(address,address,uint256)":"cea9d26f","setDistributionConfig(uint256,uint256,uint256,uint256,uint256,uint256)":"d0f16470","setOperationalStatus(bool,bool)":"01d62efb","setRedemptionFeePercent(uint256)":"ece71266","setSwapTaxes(uint256,uint256)":"90b0eb51","setTicketFlexibilityDuration(uint256)":"9d99eca4","setWallets(address,address,address,address)":"83672f3e","stakeLiquidity(uint256)":"35076373","stakeOwner(uint256)":"3dbd46bd","stakePendingRewards(uint256,uint256)":"ac8f50aa","swapBuyTax()":"27f082f4","swapJBCToMC(uint256)":"52778b05","swapMCToJBC()":"841d308b","swapReserveJBC()":"1d0dac76","swapReserveMC()":"77a2a540","swapSellTax()":"9370b080","ticketFlexibilityDuration()":"6dd66827","ticketOwner(uint256)":"c2ff12fc","ticketPendingRewards(uint256,uint256)":"813380cd","totalDynamicClaimed(address)":"263f30b3","totalDynamicEarned(address)":"98ad675a","transferOwnership(address)":"f2fde38b","treasuryPercent()":"04ef9d58","treasuryWallet()":"4626402b","upgradeToAndCall(address,bytes)":"4f1ef286","userInfo(address)":"1959a002","userStakes(address,uint256)":"b5d5b5fa","userTicket(address)":"8710bcaa","withdrawLevelRewardPool(address,uint256)":"99b6024d","withdrawSwapReserves(address,uint256,address,uint256)":"d4f00142"}},"storageLayout":{"storage":[{"astId":1727,"contract":"contracts/JinbaoProtocolNative.sol:JinbaoProtocolNative","label":"jbcToken","offset":0,"slot":"0","type":"t_contract(IJBC)1654"},{"astId":1729,"contract":"contracts/JinbaoProtocolNative.sol:JinbaoProtocolNative","label":"marketingWallet","offset":0,"slot":"1","type":"t_address"},{"astId":1731,"contract":"contracts/JinbaoProtocolNative.sol:JinbaoProtocolNative","label":"treasuryWallet","offset":0,"slot":"2","type":"t_address"},{"astId":1733,"contract":"contracts/JinbaoProtocolNative.sol:JinbaoProtocolNative","label":"lpInjectionWallet","offset":0,"slot":"3","type":"t_address"},{"astId":1735,"contract":"contracts/JinbaoProtocolNative.sol:JinbaoProtocolNative","label":"buybackWallet","offset":0,"slot":"4","type":"t_address"},{"astId":1740,"contract":"contracts/JinbaoProtocolNative.sol:JinbaoProtocolNative","label":"directRewardPercent","offset":0,"slot":"5","type":"t_uint256"},{"astId":1742,"contract":"contracts/JinbaoProtocolNative.sol:JinbaoProtocolNative","label":"levelRewardPercent","offset":0,"slot":"6","type":"t_uint256"},{"astId":1744,"contract":"contracts/JinbaoProtocolNative.sol:JinbaoProtocolNative","label":"marketingPercent","offset":0,"slot":"7","type":"t_uint256"},{"astId":1746,"contract":"contracts/JinbaoProtocolNative.sol:JinbaoProtocolNative","label":"buybackPercent","offset":0,"slot":"8","type":"t_uint256"},{"astId":1748,"contract":"contracts/JinbaoProtocolNative.sol:JinbaoProtocolNative","label":"lpInjectionPercent","offset":0,"slot":"9","type":"t_uint256"},{"astId":1750,"contract":"contracts/JinbaoProtocolNative.sol:JinbaoProtocolNative","label":"treasuryPercent","offset":0,"slot":"10","type":"t_uint256"},{"astId":1752,"contract":"contracts/JinbaoProtocolNative.sol:JinbaoProtocolNative","label":"redemptionFeePercent","offset":0,"slot":"11","type":"t_uint256"},{"astId":1754,"contract":"contracts/JinbaoProtocolNative.sol:JinbaoProtocolNative","label":"swapBuyTax","offset":0,"slot":"12","type":"t_uint256"},{"astId":1756,"contract":"contracts/JinbaoProtocolNative.sol:JinbaoProtocolNative","label":"swapSellTax","offset":0,"slot":"13","type":"t_uint256"},{"astId":1776,"contract":"contracts/JinbaoProtocolNative.sol:JinbaoProtocolNative","label":"userInfo","offset":0,"slot":"14","type":"t_mapping(t_address,t_struct(UserInfo)1690_storage)"},{"astId":1781,"contract":"contracts/JinbaoProtocolNative.sol:JinbaoProtocolNative","label":"userTicket","offset":0,"slot":"15","type":"t_mapping(t_address,t_struct(Ticket)1712_storage)"},{"astId":1787,"contract":"contracts/JinbaoProtocolNative.sol:JinbaoProtocolNative","label":"userStakes","offset":0,"slot":"16","type":"t_mapping(t_address,t_array(t_struct(Stake)1703_storage)dyn_storage)"},{"astId":1792,"contract":"contracts/JinbaoProtocolNative.sol:JinbaoProtocolNative","label":"directReferrals","offset":0,"slot":"17","type":"t_mapping(t_address,t_array(t_address)dyn_storage)"},{"astId":1798,"contract":"contracts/JinbaoProtocolNative.sol:JinbaoProtocolNative","label":"ticketPendingRewards","offset":0,"slot":"18","type":"t_mapping(t_uint256,t_array(t_struct(PendingReward)1717_storage)dyn_storage)"},{"astId":1809,"contract":"contracts/JinbaoProtocolNative.sol:JinbaoProtocolNative","label":"levelConfigs","offset":0,"slot":"19","type":"t_array(t_struct(LevelConfig)1805_storage)dyn_storage"},{"astId":1811,"contract":"contracts/JinbaoProtocolNative.sol:JinbaoProtocolNative","label":"ticketFlexibilityDuration","offset":0,"slot":"20","type":"t_uint256"},{"astId":1813,"contract":"contracts/JinbaoProtocolNative.sol:JinbaoProtocolNative","label":"liquidityEnabled","offset":0,"slot":"21","type":"t_bool"},{"astId":1815,"contract":"contracts/JinbaoProtocolNative.sol:JinbaoProtocolNative","label":"redeemEnabled","offset":1,"slot":"21","type":"t_bool"},{"astId":1817,"contract":"contracts/JinbaoProtocolNative.sol:JinbaoProtocolNative","label":"swapReserveMC","offset":0,"slot":"22","type":"t_uint256"},{"astId":1819,"contract":"contracts/JinbaoProtocolNative.sol:JinbaoProtocolNative","label":"swapReserveJBC","offset":0,"slot":"23","type":"t_uint256"},{"astId":1829,"contract":"contracts/JinbaoProtocolNative.sol:JinbaoProtocolNative","label":"nextTicketId","offset":0,"slot":"24","type":"t_uint256"},{"astId":1831,"contract":"contracts/JinbaoProtocolNative.sol:JinbaoProtocolNative","label":"nextStakeId","offset":0,"slot":"25","type":"t_uint256"},{"astId":1833,"contract":"contracts/JinbaoProtocolNative.sol:JinbaoProtocolNative","label":"lastBurnTime","offset":0,"slot":"26","type":"t_uint256"},{"astId":1837,"contract":"contracts/JinbaoProtocolNative.sol:JinbaoProtocolNative","label":"ticketOwner","offset":0,"slot":"27","type":"t_mapping(t_uint256,t_address)"},{"astId":1843,"contract":"contracts/JinbaoProtocolNative.sol:JinbaoProtocolNative","label":"stakePendingRewards","offset":0,"slot":"28","type":"t_mapping(t_uint256,t_array(t_struct(PendingReward)1717_storage)dyn_storage)"},{"astId":1847,"contract":"contracts/JinbaoProtocolNative.sol:JinbaoProtocolNative","label":"stakeOwner","offset":0,"slot":"29","type":"t_mapping(t_uint256,t_address)"},{"astId":1849,"contract":"contracts/JinbaoProtocolNative.sol:JinbaoProtocolNative","label":"levelRewardPool","offset":0,"slot":"30","type":"t_uint256"},{"astId":1853,"contract":"contracts/JinbaoProtocolNative.sol:JinbaoProtocolNative","label":"totalDynamicEarned","offset":0,"slot":"31","type":"t_mapping(t_address,t_uint256)"},{"astId":1857,"contract":"contracts/JinbaoProtocolNative.sol:JinbaoProtocolNative","label":"totalDynamicClaimed","offset":0,"slot":"32","type":"t_mapping(t_address,t_uint256)"},{"astId":1861,"contract":"contracts/JinbaoProtocolNative.sol:JinbaoProtocolNative","label":"__gap","offset":0,"slot":"33","type":"t_array(t_uint256)45_storage"},{"astId":1863,"contract":"contracts/JinbaoProtocolNative.sol:JinbaoProtocolNative","label":"emergencyPaused","offset":0,"slot":"78","type":"t_bool"},{"astId":1865,"contract":"contracts/JinbaoProtocolNative.sol:JinbaoProtocolNative","label":"priceOracle","offset":1,"slot":"78","type":"t_address"},{"astId":5043,"contract":"contracts/JinbaoProtocolNative.sol:JinbaoProtocolNative","label":"_lastDifferentialDistribution","offset":0,"slot":"79","type":"t_mapping(t_address,t_struct(DifferentialDistribution)5038_storage)"}],"types":{"t_address":{"encoding":"inplace","label":"address","numberOfBytes":"20"},"t_array(t_address)dyn_storage":{"base":"t_address","encoding":"dynamic_array","label":"address[]","numberOfBytes":"32"},"t_array(t_struct(LevelConfig)1805_storage)dyn_storage":{"base":"t_struct(LevelConfig)1805_storage","encoding":"dynamic_array","label":"struct JinbaoProtocolNative.LevelConfig[]","numberOfBytes":"32"},"t_array(t_struct(PendingReward)1717_storage)dyn_storage":{"base":"t_struct(PendingReward)1717_storage","encoding":"dynamic_array","label":"struct JinbaoProtocolNative.PendingReward[]","numberOfBytes":"32"},"t_array(t_struct(Stake)1703_storage)dyn_storage":{"base":"t_struct(Stake)1703_storage","encoding":"dynamic_array","label":"struct JinbaoProtocolNative.Stake[]","numberOfBytes":"32"},"t_array(t_uint256)45_storage":{"base":"t_uint256","encoding":"inplace","label":"uint256[45]","numberOfBytes":"1440"},"t_bool":{"encoding":"inplace","label":"bool","numberOfBytes":"1"},"t_contract(IJBC)1654":{"encoding":"inplace","label":"contract IJBC","numberOfBytes":"20"},"t_mapping(t_address,t_array(t_address)dyn_storage)":{"encoding":"mapping","key":"t_address","label":"mapping(address => address[])","numberOfBytes":"32","value":"t_array(t_address)dyn_storage"},"t_mapping(t_address,t_array(t_struct(Stake)1703_storage)dyn_storage)":{"encoding":"mapping","key":"t_address","label":"mapping(address => struct JinbaoProtocolNative.Stake[])","numberOfBytes":"32","value":"t_array(t_struct(Stake)1703_storage)dyn_storage"},"t_mapping(t_address,t_struct(DifferentialDistribution)5038_storage)":{"encoding":"mapping","key":"t_address","label":"mapping(address => struct JinbaoProtocolNative.DifferentialDistribution)","numberOfBytes":"32","value":"t_struct(DifferentialDistribution)5038_storage"},"t_mapping(t_address,t_struct(Ticket)1712_storage)":{"encoding":"mapping","key":"t_address","label":"mapping(address => struct JinbaoProtocolNative.Ticket)","numberOfBytes":"32","value":"t_struct(Ticket)1712_storage"},"t_mapping(t_address,t_struct(UserInfo)1690_storage)":{"encoding":"mapping","key":"t_address","label":"mapping(address => struct JinbaoProtocolNative.UserInfo)","numberOfBytes":"32","value":"t_struct(UserInfo)1690_storage"},"t_mapping(t_address,t_uint256)":{"encoding":"mapping","key":"t_address","label":"mapping(address => uint256)","numberOfBytes":"32","value":"t_uint256"},"t_mapping(t_uint256,t_address)":{"encoding":"mapping","key":"t_uint256","label":"mapping(uint256 => address)","numberOfBytes":"32","value":"t_address"},"t_mapping(t_uint256,t_array(t_struct(PendingReward)1717_storage)dyn_storage)":{"encoding":"mapping","key":"t_uint256","label":"mapping(uint256 => struct JinbaoProtocolNative.PendingReward[])","numberOfBytes":"32","value":"t_array(t_struct(PendingReward)1717_storage)dyn_storage"},"t_struct(DifferentialDistribution)5038_storage":{"encoding":"inplace","label":"struct JinbaoProtocolNative.DifferentialDistribution","members":[{"astId":5033,"contract":"contracts/JinbaoProtocolNative.sol:JinbaoProtocolNative","label":"mcAmount","offset":0,"slot":"0","type":"t_uint256"},{"astId":5035,"contract":"contracts/JinbaoProtocolNative.sol:JinbaoProtocolNative","label":"jbcAmount","offset":0,"slot":"1","type":"t_uint256"},{"astId":5037,"contract":"contracts/JinbaoProtocolNative.sol:JinbaoProtocolNative","label":"totalValue","offset":0,"slot":"2","type":"t_uint256"}],"numberOfBytes":"96"},"t_struct(LevelConfig)1805_storage":{"encoding":"inplace","label":"struct JinbaoProtocolNative.LevelConfig","members":[{"astId":1800,"contract":"contracts/JinbaoProtocolNative.sol:JinbaoProtocolNative","label":"minDirects","offset":0,"slot":"0","type":"t_uint256"},{"astId":1802,"contract":"contracts/JinbaoProtocolNative.sol:JinbaoProtocolNative","label":"level","offset":0,"slot":"1","type":"t_uint256"},{"astId":1804,"contract":"contracts/JinbaoProtocolNative.sol:JinbaoProtocolNative","label":"percent","offset":0,"slot":"2","type":"t_uint256"}],"numberOfBytes":"96"},"t_struct(PendingReward)1717_storage":{"encoding":"inplace","label":"struct JinbaoProtocolNative.PendingReward","members":[{"astId":1714,"contract":"contracts/JinbaoProtocolNative.sol:JinbaoProtocolNative","label":"upline","offset":0,"slot":"0","type":"t_address"},{"astId":1716,"contract":"contracts/JinbaoProtocolNative.sol:JinbaoProtocolNative","label":"amount","offset":0,"slot":"1","type":"t_uint256"}],"numberOfBytes":"64"},"t_struct(Stake)1703_storage":{"encoding":"inplace","label":"struct JinbaoProtocolNative.Stake","members":[{"astId":1692,"contract":"contracts/JinbaoProtocolNative.sol:JinbaoProtocolNative","label":"id","offset":0,"slot":"0","type":"t_uint256"},{"astId":1694,"contract":"contracts/JinbaoProtocolNative.sol:JinbaoProtocolNative","label":"amount","offset":0,"slot":"1","type":"t_uint256"},{"astId":1696,"contract":"contracts/JinbaoProtocolNative.sol:JinbaoProtocolNative","label":"startTime","offset":0,"slot":"2","type":"t_uint256"},{"astId":1698,"contract":"contracts/JinbaoProtocolNative.sol:JinbaoProtocolNative","label":"cycleDays","offset":0,"slot":"3","type":"t_uint256"},{"astId":1700,"contract":"contracts/JinbaoProtocolNative.sol:JinbaoProtocolNative","label":"active","offset":0,"slot":"4","type":"t_bool"},{"astId":1702,"contract":"contracts/JinbaoProtocolNative.sol:JinbaoProtocolNative","label":"paid","offset":0,"slot":"5","type":"t_uint256"}],"numberOfBytes":"192"},"t_struct(Ticket)1712_storage":{"encoding":"inplace","label":"struct JinbaoProtocolNative.Ticket","members":[{"astId":1705,"contract":"contracts/JinbaoProtocolNative.sol:JinbaoProtocolNative","label":"ticketId","offset":0,"slot":"0","type":"t_uint256"},{"astId":1707,"contract":"contracts/JinbaoProtocolNative.sol:JinbaoProtocolNative","label":"amount","offset":0,"slot":"1","type":"t_uint256"},{"astId":1709,"contract":"contracts/JinbaoProtocolNative.sol:JinbaoProtocolNative","label":"purchaseTime","offset":0,"slot":"2","type":"t_uint256"},{"astId":1711,"contract":"contracts/JinbaoProtocolNative.sol:JinbaoProtocolNative","label":"exited","offset":0,"slot":"3","type":"t_bool"}],"numberOfBytes":"128"},"t_struct(UserInfo)1690_storage":{"encoding":"inplace","label":"struct JinbaoProtocolNative.UserInfo","members":[{"astId":1669,"contract":"contracts/JinbaoProtocolNative.sol:JinbaoProtocolNative","label":"referrer","offset":0,"slot":"0","type":"t_address"},{"astId":1671,"contract":"contracts/JinbaoProtocolNative.sol:JinbaoProtocolNative","label":"activeDirects","offset":0,"slot":"1","type":"t_uint256"},{"astId":1673,"contract":"contracts/JinbaoProtocolNative.sol:JinbaoProtocolNative","label":"teamCount","offset":0,"slot":"2","type":"t_uint256"},{"astId":1675,"contract":"contracts/JinbaoProtocolNative.sol:JinbaoProtocolNative","label":"totalRevenue","offset":0,"slot":"3","type":"t_uint256"},{"astId":1677,"contract":"contracts/JinbaoProtocolNative.sol:JinbaoProtocolNative","label":"currentCap","offset":0,"slot":"4","type":"t_uint256"},{"astId":1679,"contract":"contracts/JinbaoProtocolNative.sol:JinbaoProtocolNative","label":"isActive","offset":0,"slot":"5","type":"t_bool"},{"astId":1681,"contract":"contracts/JinbaoProtocolNative.sol:JinbaoProtocolNative","label":"refundFeeAmount","offset":0,"slot":"6","type":"t_uint256"},{"astId":1683,"contract":"contracts/JinbaoProtocolNative.sol:JinbaoProtocolNative","label":"teamTotalVolume","offset":0,"slot":"7","type":"t_uint256"},{"astId":1685,"contract":"contracts/JinbaoProtocolNative.sol:JinbaoProtocolNative","label":"teamTotalCap","offset":0,"slot":"8","type":"t_uint256"},{"astId":1687,"contract":"contracts/JinbaoProtocolNative.sol:JinbaoProtocolNative","label":"maxTicketAmount","offset":0,"slot":"9","type":"t_uint256"},{"astId":1689,"contract":"contracts/JinbaoProtocolNative.sol:JinbaoProtocolNative","label":"maxSingleTicketAmount","offset":0,"slot":"10","type":"t_uint256"}],"numberOfBytes":"352"},"t_uint256":{"encoding":"inplace","label":"uint256","numberOfBytes":"32"}}}}}}