{"contracts/JinbaoProtocol.sol":{"JinbaoProtocol":{"abi":[{"inputs":[],"stateMutability":"nonpayable","type":"constructor"},{"inputs":[{"internalType":"address","name":"target","type":"address"}],"name":"AddressEmptyCode","type":"error"},{"inputs":[],"name":"AlreadyBound","type":"error"},{"inputs":[],"name":"AlreadyExited","type":"error"},{"inputs":[],"name":"BatchUpdateSizeMismatch","type":"error"},{"inputs":[{"internalType":"address","name":"implementation","type":"address"}],"name":"ERC1967InvalidImplementation","type":"error"},{"inputs":[],"name":"ERC1967NonPayable","type":"error"},{"inputs":[],"name":"Expired","type":"error"},{"inputs":[],"name":"FailedCall","type":"error"},{"inputs":[],"name":"InsufficientBalance","type":"error"},{"inputs":[],"name":"InvalidAddress","type":"error"},{"inputs":[],"name":"InvalidAmount","type":"error"},{"inputs":[],"name":"InvalidCycle","type":"error"},{"inputs":[],"name":"InvalidFee","type":"error"},{"inputs":[],"name":"InvalidInitialization","type":"error"},{"inputs":[],"name":"InvalidLevelConfig","type":"error"},{"inputs":[],"name":"InvalidRate","type":"error"},{"inputs":[],"name":"InvalidTax","type":"error"},{"inputs":[],"name":"InvalidTeamCountUpdate","type":"error"},{"inputs":[],"name":"LowLiquidity","type":"error"},{"inputs":[],"name":"NoRewards","type":"error"},{"inputs":[],"name":"NotActive","type":"error"},{"inputs":[],"name":"NotInitializing","type":"error"},{"inputs":[],"name":"NothingToRedeem","type":"error"},{"inputs":[{"internalType":"address","name":"owner","type":"address"}],"name":"OwnableInvalidOwner","type":"error"},{"inputs":[{"internalType":"address","name":"account","type":"address"}],"name":"OwnableUnauthorizedAccount","type":"error"},{"inputs":[],"name":"RecursionDepthExceeded","type":"error"},{"inputs":[],"name":"ReentrancyGuardReentrantCall","type":"error"},{"inputs":[],"name":"SelfReference","type":"error"},{"inputs":[],"name":"SumNot100","type":"error"},{"inputs":[{"internalType":"address","name":"user","type":"address"},{"internalType":"uint256","name":"expected","type":"uint256"},{"internalType":"uint256","name":"actual","type":"uint256"}],"name":"TeamCountMismatch","type":"error"},{"inputs":[],"name":"TeamCountOverflow","type":"error"},{"inputs":[],"name":"TransferFailed","type":"error"},{"inputs":[],"name":"UUPSUnauthorizedCallContext","type":"error"},{"inputs":[{"internalType":"bytes32","name":"slot","type":"bytes32"}],"name":"UUPSUnsupportedProxiableUUID","type":"error"},{"inputs":[],"name":"Unauthorized","type":"error"},{"anonymous":false,"inputs":[{"indexed":false,"internalType":"uint256","name":"usersUpdated","type":"uint256"}],"name":"BatchTeamCountsUpdated","type":"event"},{"anonymous":false,"inputs":[{"indexed":true,"internalType":"address","name":"user","type":"address"},{"indexed":true,"internalType":"address","name":"referrer","type":"address"}],"name":"BoundReferrer","type":"event"},{"anonymous":false,"inputs":[{"indexed":false,"internalType":"uint256","name":"mcAmount","type":"uint256"},{"indexed":false,"internalType":"uint256","name":"jbcBurned","type":"uint256"}],"name":"BuybackAndBurn","type":"event"},{"anonymous":false,"inputs":[{"indexed":true,"internalType":"uint256","name":"stakeId","type":"uint256"},{"indexed":true,"internalType":"address","name":"upline","type":"address"},{"indexed":false,"internalType":"uint256","name":"amount","type":"uint256"}],"name":"DifferentialRewardRecorded","type":"event"},{"anonymous":false,"inputs":[{"indexed":true,"internalType":"uint256","name":"stakeId","type":"uint256"},{"indexed":true,"internalType":"address","name":"upline","type":"address"},{"indexed":false,"internalType":"uint256","name":"amount","type":"uint256"}],"name":"DifferentialRewardReleased","type":"event"},{"anonymous":false,"inputs":[{"indexed":false,"internalType":"uint256","name":"direct","type":"uint256"},{"indexed":false,"internalType":"uint256","name":"level","type":"uint256"},{"indexed":false,"internalType":"uint256","name":"marketing","type":"uint256"},{"indexed":false,"internalType":"uint256","name":"buyback","type":"uint256"},{"indexed":false,"internalType":"uint256","name":"lpInjection","type":"uint256"},{"indexed":false,"internalType":"uint256","name":"treasury","type":"uint256"}],"name":"DistributionConfigUpdated","type":"event"},{"anonymous":false,"inputs":[],"name":"EmergencyPaused","type":"event"},{"anonymous":false,"inputs":[],"name":"EmergencyUnpaused","type":"event"},{"anonymous":false,"inputs":[{"indexed":true,"internalType":"address","name":"user","type":"address"},{"indexed":false,"internalType":"uint256","name":"ticketId","type":"uint256"}],"name":"Exited","type":"event"},{"anonymous":false,"inputs":[{"indexed":true,"internalType":"address","name":"user","type":"address"},{"indexed":false,"internalType":"uint256","name":"amount","type":"uint256"}],"name":"FeeRefunded","type":"event"},{"anonymous":false,"inputs":[{"indexed":false,"internalType":"uint64","name":"version","type":"uint64"}],"name":"Initialized","type":"event"},{"anonymous":false,"inputs":[],"name":"LevelConfigsUpdated","type":"event"},{"anonymous":false,"inputs":[{"indexed":false,"internalType":"uint256","name":"amount","type":"uint256"},{"indexed":false,"internalType":"uint256","name":"newTotal","type":"uint256"}],"name":"LevelRewardPoolUpdated","type":"event"},{"anonymous":false,"inputs":[{"indexed":true,"internalType":"address","name":"to","type":"address"},{"indexed":false,"internalType":"uint256","name":"amount","type":"uint256"}],"name":"LevelRewardPoolWithdrawn","type":"event"},{"anonymous":false,"inputs":[{"indexed":true,"internalType":"uint256","name":"ticketId","type":"uint256"},{"indexed":true,"internalType":"address","name":"upline","type":"address"},{"indexed":false,"internalType":"uint256","name":"amount","type":"uint256"}],"name":"LevelRewardRecorded","type":"event"},{"anonymous":false,"inputs":[{"indexed":true,"internalType":"uint256","name":"ticketId","type":"uint256"},{"indexed":true,"internalType":"address","name":"upline","type":"address"},{"indexed":false,"internalType":"uint256","name":"amount","type":"uint256"}],"name":"LevelRewardReleased","type":"event"},{"anonymous":false,"inputs":[{"indexed":false,"internalType":"uint256","name":"mcAmount","type":"uint256"},{"indexed":false,"internalType":"uint256","name":"jbcAmount","type":"uint256"}],"name":"LiquidityAdded","type":"event"},{"anonymous":false,"inputs":[{"indexed":true,"internalType":"address","name":"user","type":"address"},{"indexed":false,"internalType":"uint256","name":"amount","type":"uint256"},{"indexed":false,"internalType":"uint256","name":"cycleDays","type":"uint256"},{"indexed":false,"internalType":"uint256","name":"stakeId","type":"uint256"}],"name":"LiquidityStaked","type":"event"},{"anonymous":false,"inputs":[{"indexed":false,"internalType":"bool","name":"enabled","type":"bool"}],"name":"LiquidityStatusUpdated","type":"event"},{"anonymous":false,"inputs":[{"indexed":true,"internalType":"address","name":"previousOwner","type":"address"},{"indexed":true,"internalType":"address","name":"newOwner","type":"address"}],"name":"OwnershipTransferred","type":"event"},{"anonymous":false,"inputs":[{"indexed":false,"internalType":"bool","name":"enabled","type":"bool"}],"name":"RedeemStatusUpdated","type":"event"},{"anonymous":false,"inputs":[{"indexed":true,"internalType":"address","name":"user","type":"address"},{"indexed":false,"internalType":"uint256","name":"principal","type":"uint256"},{"indexed":false,"internalType":"uint256","name":"fee","type":"uint256"}],"name":"Redeemed","type":"event"},{"anonymous":false,"inputs":[{"indexed":false,"internalType":"uint256","name":"newFee","type":"uint256"}],"name":"RedemptionFeeUpdated","type":"event"},{"anonymous":false,"inputs":[{"indexed":true,"internalType":"address","name":"user","type":"address"},{"indexed":true,"internalType":"address","name":"from","type":"address"},{"indexed":false,"internalType":"uint256","name":"mcAmount","type":"uint256"},{"indexed":false,"internalType":"uint8","name":"rewardType","type":"uint8"},{"indexed":false,"internalType":"uint256","name":"ticketId","type":"uint256"}],"name":"ReferralRewardPaid","type":"event"},{"anonymous":false,"inputs":[{"indexed":true,"internalType":"address","name":"user","type":"address"},{"indexed":true,"internalType":"address","name":"oldReferrer","type":"address"},{"indexed":true,"internalType":"address","name":"newReferrer","type":"address"}],"name":"ReferrerChanged","type":"event"},{"anonymous":false,"inputs":[{"indexed":true,"internalType":"address","name":"user","type":"address"},{"indexed":false,"internalType":"uint256","name":"amount","type":"uint256"},{"indexed":false,"internalType":"uint256","name":"cappedAmount","type":"uint256"}],"name":"RewardCapped","type":"event"},{"anonymous":false,"inputs":[{"indexed":true,"internalType":"address","name":"user","type":"address"},{"indexed":false,"internalType":"uint256","name":"mcAmount","type":"uint256"},{"indexed":false,"internalType":"uint256","name":"jbcAmount","type":"uint256"},{"indexed":false,"internalType":"uint8","name":"rewardType","type":"uint8"},{"indexed":false,"internalType":"uint256","name":"ticketId","type":"uint256"}],"name":"RewardClaimed","type":"event"},{"anonymous":false,"inputs":[{"indexed":true,"internalType":"address","name":"user","type":"address"},{"indexed":false,"internalType":"uint256","name":"amount","type":"uint256"},{"indexed":false,"internalType":"uint8","name":"rewardType","type":"uint8"}],"name":"RewardPaid","type":"event"},{"anonymous":false,"inputs":[{"indexed":false,"internalType":"uint256","name":"mcAmount","type":"uint256"},{"indexed":false,"internalType":"uint256","name":"jbcAmount","type":"uint256"}],"name":"SwapReservesWithdrawn","type":"event"},{"anonymous":false,"inputs":[{"indexed":false,"internalType":"uint256","name":"buyTax","type":"uint256"},{"indexed":false,"internalType":"uint256","name":"sellTax","type":"uint256"}],"name":"SwapTaxesUpdated","type":"event"},{"anonymous":false,"inputs":[{"indexed":true,"internalType":"address","name":"user","type":"address"},{"indexed":false,"internalType":"uint256","name":"jbcAmount","type":"uint256"},{"indexed":false,"internalType":"uint256","name":"mcAmount","type":"uint256"},{"indexed":false,"internalType":"uint256","name":"tax","type":"uint256"}],"name":"SwappedJBCToMC","type":"event"},{"anonymous":false,"inputs":[{"indexed":true,"internalType":"address","name":"user","type":"address"},{"indexed":false,"internalType":"uint256","name":"mcAmount","type":"uint256"},{"indexed":false,"internalType":"uint256","name":"jbcAmount","type":"uint256"},{"indexed":false,"internalType":"uint256","name":"tax","type":"uint256"}],"name":"SwappedMCToJBC","type":"event"},{"anonymous":false,"inputs":[{"indexed":true,"internalType":"uint256","name":"stakeId","type":"uint256"},{"indexed":true,"internalType":"address","name":"upline","type":"address"},{"indexed":false,"internalType":"uint256","name":"amount","type":"uint256"},{"indexed":false,"internalType":"uint256","name":"teamCount","type":"uint256"}],"name":"TeamBasedRewardCalculated","type":"event"},{"anonymous":false,"inputs":[{"indexed":true,"internalType":"address","name":"user","type":"address"},{"indexed":false,"internalType":"uint256","name":"oldCount","type":"uint256"},{"indexed":false,"internalType":"uint256","name":"newCount","type":"uint256"}],"name":"TeamCountUpdated","type":"event"},{"anonymous":false,"inputs":[{"indexed":true,"internalType":"address","name":"user","type":"address"},{"indexed":false,"internalType":"uint256","name":"expected","type":"uint256"},{"indexed":false,"internalType":"uint256","name":"actual","type":"uint256"}],"name":"TeamCountValidationFailed","type":"event"},{"anonymous":false,"inputs":[{"indexed":true,"internalType":"address","name":"user","type":"address"},{"indexed":false,"internalType":"uint256","name":"ticketId","type":"uint256"},{"indexed":false,"internalType":"uint256","name":"amount","type":"uint256"}],"name":"TicketExpired","type":"event"},{"anonymous":false,"inputs":[{"indexed":false,"internalType":"uint256","name":"newDuration","type":"uint256"}],"name":"TicketFlexibilityDurationUpdated","type":"event"},{"anonymous":false,"inputs":[{"indexed":true,"internalType":"address","name":"user","type":"address"},{"indexed":false,"internalType":"uint256","name":"amount","type":"uint256"},{"indexed":false,"internalType":"uint256","name":"ticketId","type":"uint256"}],"name":"TicketPurchased","type":"event"},{"anonymous":false,"inputs":[{"indexed":false,"internalType":"address","name":"token","type":"address"},{"indexed":false,"internalType":"address","name":"to","type":"address"},{"indexed":false,"internalType":"uint256","name":"amount","type":"uint256"}],"name":"TokensRescued","type":"event"},{"anonymous":false,"inputs":[{"indexed":true,"internalType":"address","name":"implementation","type":"address"}],"name":"Upgraded","type":"event"},{"anonymous":false,"inputs":[{"indexed":true,"internalType":"address","name":"user","type":"address"},{"indexed":false,"internalType":"uint256","name":"activeDirects","type":"uint256"},{"indexed":false,"internalType":"uint256","name":"totalRevenue","type":"uint256"},{"indexed":false,"internalType":"uint256","name":"currentCap","type":"uint256"},{"indexed":false,"internalType":"uint256","name":"refundFee","type":"uint256"}],"name":"UserDataUpdated","type":"event"},{"anonymous":false,"inputs":[{"indexed":false,"internalType":"address","name":"marketing","type":"address"},{"indexed":false,"internalType":"address","name":"treasury","type":"address"},{"indexed":false,"internalType":"address","name":"lpInjection","type":"address"},{"indexed":false,"internalType":"address","name":"buyback","type":"address"}],"name":"WalletsUpdated","type":"event"},{"inputs":[],"name":"MAX_PRICE_IMPACT","outputs":[{"internalType":"uint256","name":"","type":"uint256"}],"stateMutability":"view","type":"function"},{"inputs":[],"name":"MIN_LIQUIDITY","outputs":[{"internalType":"uint256","name":"","type":"uint256"}],"stateMutability":"view","type":"function"},{"inputs":[],"name":"REWARD_DIFFERENTIAL","outputs":[{"internalType":"uint8","name":"","type":"uint8"}],"stateMutability":"view","type":"function"},{"inputs":[],"name":"REWARD_DIRECT","outputs":[{"internalType":"uint8","name":"","type":"uint8"}],"stateMutability":"view","type":"function"},{"inputs":[],"name":"REWARD_DYNAMIC","outputs":[{"internalType":"uint8","name":"","type":"uint8"}],"stateMutability":"view","type":"function"},{"inputs":[],"name":"REWARD_LEVEL","outputs":[{"internalType":"uint8","name":"","type":"uint8"}],"stateMutability":"view","type":"function"},{"inputs":[],"name":"REWARD_STATIC","outputs":[{"internalType":"uint8","name":"","type":"uint8"}],"stateMutability":"view","type":"function"},{"inputs":[],"name":"SECONDS_IN_UNIT","outputs":[{"internalType":"uint256","name":"","type":"uint256"}],"stateMutability":"view","type":"function"},{"inputs":[],"name":"UPGRADE_INTERFACE_VERSION","outputs":[{"internalType":"string","name":"","type":"string"}],"stateMutability":"view","type":"function"},{"inputs":[{"internalType":"uint256","name":"mcAmount","type":"uint256"},{"internalType":"uint256","name":"jbcAmount","type":"uint256"}],"name":"addLiquidity","outputs":[],"stateMutability":"nonpayable","type":"function"},{"inputs":[{"internalType":"address","name":"user","type":"address"},{"internalType":"address","name":"newReferrer","type":"address"}],"name":"adminSetReferrer","outputs":[],"stateMutability":"nonpayable","type":"function"},{"inputs":[{"internalType":"address","name":"user","type":"address"},{"internalType":"bool","name":"updateActiveDirects","type":"bool"},{"internalType":"uint256","name":"newActiveDirects","type":"uint256"},{"internalType":"bool","name":"updateTeamCount","type":"bool"},{"internalType":"uint256","name":"newTeamCount","type":"uint256"},{"internalType":"bool","name":"updateTotalRevenue","type":"bool"},{"internalType":"uint256","name":"newTotalRevenue","type":"uint256"},{"internalType":"bool","name":"updateCurrentCap","type":"bool"},{"internalType":"uint256","name":"newCurrentCap","type":"uint256"},{"internalType":"bool","name":"updateRefundFee","type":"bool"},{"internalType":"uint256","name":"newRefundFee","type":"uint256"}],"name":"adminUpdateUserData","outputs":[],"stateMutability":"nonpayable","type":"function"},{"inputs":[{"internalType":"address[]","name":"users","type":"address[]"},{"internalType":"uint256[]","name":"counts","type":"uint256[]"},{"internalType":"uint256[]","name":"volumes","type":"uint256[]"}],"name":"batchUpdateUserStats","outputs":[],"stateMutability":"nonpayable","type":"function"},{"inputs":[{"internalType":"address","name":"_referrer","type":"address"}],"name":"bindReferrer","outputs":[],"stateMutability":"nonpayable","type":"function"},{"inputs":[{"internalType":"uint256","name":"amount","type":"uint256"}],"name":"buyTicket","outputs":[],"stateMutability":"nonpayable","type":"function"},{"inputs":[],"name":"buybackPercent","outputs":[{"internalType":"uint256","name":"","type":"uint256"}],"stateMutability":"view","type":"function"},{"inputs":[],"name":"buybackWallet","outputs":[{"internalType":"address","name":"","type":"address"}],"stateMutability":"view","type":"function"},{"inputs":[],"name":"claimRewards","outputs":[],"stateMutability":"nonpayable","type":"function"},{"inputs":[{"internalType":"address","name":"","type":"address"},{"internalType":"uint256","name":"","type":"uint256"}],"name":"directReferrals","outputs":[{"internalType":"address","name":"","type":"address"}],"stateMutability":"view","type":"function"},{"inputs":[],"name":"directRewardPercent","outputs":[{"internalType":"uint256","name":"","type":"uint256"}],"stateMutability":"view","type":"function"},{"inputs":[],"name":"emergencyPause","outputs":[],"stateMutability":"nonpayable","type":"function"},{"inputs":[],"name":"emergencyPaused","outputs":[{"internalType":"bool","name":"","type":"bool"}],"stateMutability":"view","type":"function"},{"inputs":[],"name":"emergencyUnpause","outputs":[],"stateMutability":"nonpayable","type":"function"},{"inputs":[{"internalType":"address","name":"user","type":"address"}],"name":"getDirectReferrals","outputs":[{"internalType":"address[]","name":"","type":"address[]"}],"stateMutability":"view","type":"function"},{"inputs":[{"internalType":"uint256","name":"activeDirects","type":"uint256"}],"name":"getLevelRewardLayers","outputs":[{"internalType":"uint256","name":"","type":"uint256"}],"stateMutability":"pure","type":"function"},{"inputs":[{"internalType":"address","name":"_mcToken","type":"address"},{"internalType":"address","name":"_jbcToken","type":"address"},{"internalType":"address","name":"_marketing","type":"address"},{"internalType":"address","name":"_treasury","type":"address"},{"internalType":"address","name":"_lpInjection","type":"address"},{"internalType":"address","name":"_buybackWallet","type":"address"}],"name":"initialize","outputs":[],"stateMutability":"nonpayable","type":"function"},{"inputs":[],"name":"jbcToken","outputs":[{"internalType":"contract IJBC","name":"","type":"address"}],"stateMutability":"view","type":"function"},{"inputs":[],"name":"lastBurnTime","outputs":[{"internalType":"uint256","name":"","type":"uint256"}],"stateMutability":"view","type":"function"},{"inputs":[{"internalType":"uint256","name":"","type":"uint256"}],"name":"levelConfigs","outputs":[{"internalType":"uint256","name":"minDirects","type":"uint256"},{"internalType":"uint256","name":"level","type":"uint256"},{"internalType":"uint256","name":"percent","type":"uint256"}],"stateMutability":"view","type":"function"},{"inputs":[],"name":"levelRewardPercent","outputs":[{"internalType":"uint256","name":"","type":"uint256"}],"stateMutability":"view","type":"function"},{"inputs":[],"name":"levelRewardPool","outputs":[{"internalType":"uint256","name":"","type":"uint256"}],"stateMutability":"view","type":"function"},{"inputs":[],"name":"liquidityEnabled","outputs":[{"internalType":"bool","name":"","type":"bool"}],"stateMutability":"view","type":"function"},{"inputs":[],"name":"lpInjectionPercent","outputs":[{"internalType":"uint256","name":"","type":"uint256"}],"stateMutability":"view","type":"function"},{"inputs":[],"name":"lpInjectionWallet","outputs":[{"internalType":"address","name":"","type":"address"}],"stateMutability":"view","type":"function"},{"inputs":[],"name":"marketingPercent","outputs":[{"internalType":"uint256","name":"","type":"uint256"}],"stateMutability":"view","type":"function"},{"inputs":[],"name":"marketingWallet","outputs":[{"internalType":"address","name":"","type":"address"}],"stateMutability":"view","type":"function"},{"inputs":[],"name":"mcToken","outputs":[{"internalType":"contract IERC20","name":"","type":"address"}],"stateMutability":"view","type":"function"},{"inputs":[],"name":"nextStakeId","outputs":[{"internalType":"uint256","name":"","type":"uint256"}],"stateMutability":"view","type":"function"},{"inputs":[],"name":"nextTicketId","outputs":[{"internalType":"uint256","name":"","type":"uint256"}],"stateMutability":"view","type":"function"},{"inputs":[],"name":"owner","outputs":[{"internalType":"address","name":"","type":"address"}],"stateMutability":"view","type":"function"},{"inputs":[],"name":"priceOracle","outputs":[{"internalType":"address","name":"","type":"address"}],"stateMutability":"view","type":"function"},{"inputs":[],"name":"proxiableUUID","outputs":[{"internalType":"bytes32","name":"","type":"bytes32"}],"stateMutability":"view","type":"function"},{"inputs":[],"name":"redeem","outputs":[],"stateMutability":"nonpayable","type":"function"},{"inputs":[],"name":"redeemEnabled","outputs":[{"internalType":"bool","name":"","type":"bool"}],"stateMutability":"view","type":"function"},{"inputs":[{"internalType":"uint256","name":"stakeId","type":"uint256"}],"name":"redeemStake","outputs":[],"stateMutability":"nonpayable","type":"function"},{"inputs":[],"name":"redemptionFeePercent","outputs":[{"internalType":"uint256","name":"","type":"uint256"}],"stateMutability":"view","type":"function"},{"inputs":[],"name":"renounceOwnership","outputs":[],"stateMutability":"nonpayable","type":"function"},{"inputs":[{"internalType":"address","name":"_token","type":"address"},{"internalType":"address","name":"_to","type":"address"},{"internalType":"uint256","name":"_amount","type":"uint256"}],"name":"rescueTokens","outputs":[],"stateMutability":"nonpayable","type":"function"},{"inputs":[{"internalType":"uint256","name":"_direct","type":"uint256"},{"internalType":"uint256","name":"_level","type":"uint256"},{"internalType":"uint256","name":"_marketing","type":"uint256"},{"internalType":"uint256","name":"_buyback","type":"uint256"},{"internalType":"uint256","name":"_lpInjection","type":"uint256"},{"internalType":"uint256","name":"_treasury","type":"uint256"}],"name":"setDistributionConfig","outputs":[],"stateMutability":"nonpayable","type":"function"},{"inputs":[{"internalType":"bool","name":"_liquidityEnabled","type":"bool"},{"internalType":"bool","name":"_redeemEnabled","type":"bool"}],"name":"setOperationalStatus","outputs":[],"stateMutability":"nonpayable","type":"function"},{"inputs":[{"internalType":"uint256","name":"_fee","type":"uint256"}],"name":"setRedemptionFeePercent","outputs":[],"stateMutability":"nonpayable","type":"function"},{"inputs":[{"internalType":"uint256","name":"_buyTax","type":"uint256"},{"internalType":"uint256","name":"_sellTax","type":"uint256"}],"name":"setSwapTaxes","outputs":[],"stateMutability":"nonpayable","type":"function"},{"inputs":[{"internalType":"uint256","name":"_duration","type":"uint256"}],"name":"setTicketFlexibilityDuration","outputs":[],"stateMutability":"nonpayable","type":"function"},{"inputs":[{"internalType":"address","name":"_marketing","type":"address"},{"internalType":"address","name":"_treasury","type":"address"},{"internalType":"address","name":"_lpInjection","type":"address"},{"internalType":"address","name":"_buyback","type":"address"}],"name":"setWallets","outputs":[],"stateMutability":"nonpayable","type":"function"},{"inputs":[{"internalType":"uint256","name":"amount","type":"uint256"},{"internalType":"uint256","name":"cycleDays","type":"uint256"}],"name":"stakeLiquidity","outputs":[],"stateMutability":"nonpayable","type":"function"},{"inputs":[{"internalType":"uint256","name":"","type":"uint256"}],"name":"stakeOwner","outputs":[{"internalType":"address","name":"","type":"address"}],"stateMutability":"view","type":"function"},{"inputs":[{"internalType":"uint256","name":"","type":"uint256"},{"internalType":"uint256","name":"","type":"uint256"}],"name":"stakePendingRewards","outputs":[{"internalType":"address","name":"upline","type":"address"},{"internalType":"uint256","name":"amount","type":"uint256"}],"stateMutability":"view","type":"function"},{"inputs":[],"name":"swapBuyTax","outputs":[{"internalType":"uint256","name":"","type":"uint256"}],"stateMutability":"view","type":"function"},{"inputs":[{"internalType":"uint256","name":"jbcAmount","type":"uint256"}],"name":"swapJBCToMC","outputs":[],"stateMutability":"nonpayable","type":"function"},{"inputs":[{"internalType":"uint256","name":"mcAmount","type":"uint256"}],"name":"swapMCToJBC","outputs":[],"stateMutability":"nonpayable","type":"function"},{"inputs":[],"name":"swapReserveJBC","outputs":[{"internalType":"uint256","name":"","type":"uint256"}],"stateMutability":"view","type":"function"},{"inputs":[],"name":"swapReserveMC","outputs":[{"internalType":"uint256","name":"","type":"uint256"}],"stateMutability":"view","type":"function"},{"inputs":[],"name":"swapSellTax","outputs":[{"internalType":"uint256","name":"","type":"uint256"}],"stateMutability":"view","type":"function"},{"inputs":[],"name":"ticketFlexibilityDuration","outputs":[{"internalType":"uint256","name":"","type":"uint256"}],"stateMutability":"view","type":"function"},{"inputs":[{"internalType":"uint256","name":"","type":"uint256"}],"name":"ticketOwner","outputs":[{"internalType":"address","name":"","type":"address"}],"stateMutability":"view","type":"function"},{"inputs":[{"internalType":"uint256","name":"","type":"uint256"},{"internalType":"uint256","name":"","type":"uint256"}],"name":"ticketPendingRewards","outputs":[{"internalType":"address","name":"upline","type":"address"},{"internalType":"uint256","name":"amount","type":"uint256"}],"stateMutability":"view","type":"function"},{"inputs":[{"internalType":"address","name":"newOwner","type":"address"}],"name":"transferOwnership","outputs":[],"stateMutability":"nonpayable","type":"function"},{"inputs":[],"name":"treasuryPercent","outputs":[{"internalType":"uint256","name":"","type":"uint256"}],"stateMutability":"view","type":"function"},{"inputs":[],"name":"treasuryWallet","outputs":[{"internalType":"address","name":"","type":"address"}],"stateMutability":"view","type":"function"},{"inputs":[{"internalType":"address","name":"newImplementation","type":"address"},{"internalType":"bytes","name":"data","type":"bytes"}],"name":"upgradeToAndCall","outputs":[],"stateMutability":"payable","type":"function"},{"inputs":[{"internalType":"address","name":"","type":"address"}],"name":"userInfo","outputs":[{"internalType":"address","name":"referrer","type":"address"},{"internalType":"uint256","name":"activeDirects","type":"uint256"},{"internalType":"uint256","name":"teamCount","type":"uint256"},{"internalType":"uint256","name":"totalRevenue","type":"uint256"},{"internalType":"uint256","name":"currentCap","type":"uint256"},{"internalType":"bool","name":"isActive","type":"bool"},{"internalType":"uint256","name":"refundFeeAmount","type":"uint256"},{"internalType":"uint256","name":"teamTotalVolume","type":"uint256"},{"internalType":"uint256","name":"teamTotalCap","type":"uint256"},{"internalType":"uint256","name":"maxTicketAmount","type":"uint256"},{"internalType":"uint256","name":"maxSingleTicketAmount","type":"uint256"}],"stateMutability":"view","type":"function"},{"inputs":[{"internalType":"address","name":"","type":"address"},{"internalType":"uint256","name":"","type":"uint256"}],"name":"userStakes","outputs":[{"internalType":"uint256","name":"id","type":"uint256"},{"internalType":"uint256","name":"amount","type":"uint256"},{"internalType":"uint256","name":"startTime","type":"uint256"},{"internalType":"uint256","name":"cycleDays","type":"uint256"},{"internalType":"bool","name":"active","type":"bool"},{"internalType":"uint256","name":"paid","type":"uint256"}],"stateMutability":"view","type":"function"},{"inputs":[{"internalType":"address","name":"","type":"address"}],"name":"userTicket","outputs":[{"internalType":"uint256","name":"ticketId","type":"uint256"},{"internalType":"uint256","name":"amount","type":"uint256"},{"internalType":"uint256","name":"purchaseTime","type":"uint256"},{"internalType":"bool","name":"exited","type":"bool"}],"stateMutability":"view","type":"function"},{"inputs":[{"internalType":"address","name":"_to","type":"address"},{"internalType":"uint256","name":"_amount","type":"uint256"}],"name":"withdrawLevelRewardPool","outputs":[],"stateMutability":"nonpayable","type":"function"},{"inputs":[{"internalType":"address","name":"_toMC","type":"address"},{"internalType":"uint256","name":"_amountMC","type":"uint256"},{"internalType":"address","name":"_toJBC","type":"address"},{"internalType":"uint256","name":"_amountJBC","type":"uint256"}],"name":"withdrawSwapReserves","outputs":[],"stateMutability":"nonpayable","type":"function"}],"evm":{"bytecode":{"linkReferences":{},"object":"60a08060405234620000d157306080527ff0c57e16840df040f15088dc2f81fe391c3923bec73e23a9662efc9c229c6a009081549060ff8260401c16620000c257506001600160401b036002600160401b0319828216016200007c575b604051615fd19081620000d782396080518181816126890152612a680152f35b6001600160401b031990911681179091556040519081527fc7f505b2f371ae2175ee4913f4499e1f2633a7b5936321eed1cdaeb6115181d290602090a13880806200005c565b63f92ee8a960e01b8152600490fd5b600080fdfe6080604052600436101561001257600080fd5b6000803560e01c806301d62efb14613c7557806304ef9d5814613c5757806304f618cb14613afc57806305ad393514613aa15780630a5c4567146138435780630e2be2101461382757806310ff994d146133205780631427f616146133045780631788513c146132db578063182c84cc146132b45780631959a002146132025780631d0dac76146131e457806321b77d63146131c057806321f483d3146131785780632630c12f1461314b57806327c830a91461312857806327f082f41461310a578063372500ab146130e95780633dbd46bd146130b65780634626402b1461308d578063488b5d97146130715780634a4e3bd5146130275780634ea4c6b314612c205780634f1ef286146129ed57806351858e27146129a057806352778b05146126e157806352d1902d146126765780636031a52f1461265857806366bb335e146124df57806367dd74ca14611caa5780636839b5fa14611c8d5780636dd6682714611c6f578063715018a614611c1657806375506c9614611bf857806375f0a87414611bcf57806377a2a54014611bb1578063813380cd14611b8357806383672f3e14611a525780638710bcaa146119f157806388481b61146119d557806388fd4d33146119ac5780638a859a85146119905780638c0eaa48146119745780638da5cb5b1461193e57806390b0eb51146118ee5780639370b080146118d057806395253992146118a957806399b6024d146117e35780639cd441da1461169f5780639d99eca414611651578063a2af92261461161e578063ac8f50aa146115c6578063ad3cb1cc14611521578063b048a4bb146114fe578063b5d5b5fa14611470578063b759936b14611452578063bd594dcf14611434578063be040fb014610cd2578063c2ff12fc14610c9f578063cc2a9a5b14610a8c578063ccf6194414610a6e578063cea9d26f14610904578063ceaa366d146108e6578063d0f164701461085c578063d2c8e0e5146107ad578063d2f8253614610787578063d4f0014214610600578063d7edbc0c14610474578063d8020a1814610456578063deab8aea1461042d578063dec7fa3b1461040f578063e3067449146103f1578063e4412f68146103d3578063ece71266146103855763f2fde38b1461035657600080fd5b346103825760203660031901126103825761037f610372613d2a565b61037a6149f4565b614992565b80f35b80fd5b5034610382576020366003190112610382577fc7f6975dcffc536e6e57dd1d1dea810fff534a70563baf2d6f977b119bd00e1b60206004356103c56149f4565b80600c55604051908152a180f35b50346103825780600319360112610382576020600954604051908152f35b50346103825780600319360112610382576020601b54604051908152f35b50346103825780600319360112610382576020600c54604051908152f35b50346103825780600319360112610382576005546040516001600160a01b039091168152602090f35b50346103825780600319360112610382576020600854604051908152f35b5034610382576060366003190112610382576001600160401b03906004358281116105fc576104a7903690600401613e80565b90926024358181116105f8576104c1903690600401613e80565b90916044359081116105f4576104db903690600401613e80565b90926104e56149f4565b8285148015906105ea575b6105d857855b85811061052c57867f9c03d1f6ba485b6cf0a120117d651729467751d3079318d05171b6f389f6bf4b602088604051908152a180f35b8087600080516020615e5c833981519152604088816105b961057b8f988e60019a898f8f8f906105618761059794819461496e565b6001600160a01b039b90358c61058061057b868b8b61496e565b61497e565b1686526002600f9c8d9760209e8f5220015561496e565b3590886105a861057b87878761496e565b168c5287526007898c20015561496e565b906105c5878c8b61496e565b359084519687528601521692a2016104f6565b60405163980a3f3160e01b8152600490fd5b50818514156104f0565b8480fd5b8380fd5b5080fd5b50346103825760803660031901126103825761061a613d2a565b60243590610626613d56565b82606435926106336149f4565b81610709575b505081610663575b50600080516020615ebc8339815191529160409182519182526020820152a180f35b916020826106a39461067782601854613fc4565b60185560018060a01b0360015416908760405180988195829463a9059cbb60e01b845260048401613e49565b03925af19182156106fe57600080516020615ebc833981519152936040936106cf575b50915091610641565b6106f09060203d6020116106f7575b6106e88183613def565b810190613f34565b50386106c6565b503d6106de565b6040513d86823e3d90fd5b8160209161071c61074794601754613fc4565b60175560018060a01b03885416908860405180968195829463a9059cbb60e01b845260048401613e49565b03925af1801561077c5761075d575b8390610639565b6107759060203d6020116106f7576106e88183613def565b5038610756565b6040513d87823e3d90fd5b5034610382578060031936011261038257602060ff60165460081c166040519015158152f35b50346103825760209081600319360112610382576001600160a01b039190826107d4613d2a565b168152601282526040812090604051808484549182815201908194845285842090845b818110610846575050508161080d910382613def565b6040519380850191818652518092526040850193925b8281106108305785850386f35b8351871685529381019392810192600101610823565b82548916845292870192600192830192016107f7565b50346103825760c0366003190112610382577f66682b276e4cd1a4e1f68b55b1143766c5332f472eb593cf2a70a25d9d5d991760c060043560a4356084356064356044356024356108ab6149f4565b8560065580600755816008558260095583600a5584600b55604051958652602086015260408501526060840152608083015260a0820152a180f35b50346103825780600319360112610382576020600a54604051908152f35b50346103825760603660031901126103825761091e613d2a565b610926613d40565b604435916109326149f4565b83546001600160a01b038281169491811685141580610a60575b15610a1b578316156109e2576020604051809563a9059cbb60e01b825281888161097a878a60048401613e49565b03925af190811561077c577f77023e19c7343ad491fd706c36335ca0e738340a91f29b1fd81e2673d44896c4946109bd926109c3575b5060405193849384613f4c565b0390a180f35b6109db9060203d6020116106f7576106e88183613def565b50386109b0565b60405162461bcd60e51b8152602060048201526011602482015270125b9d985b1a59081c9958da5c1a595b9d607a1b6044820152606490fd5b60405162461bcd60e51b815260206004820152601d60248201527f43616e6e6f74207265736375652070726f746f636f6c20746f6b656e730000006044820152606490fd5b50806001541685141561094c565b50346103825780600319360112610382576020600654604051908152f35b50346103825760c036600319011261038257610aa6613d2a565b610aae613d40565b610ab6613d56565b610abe613d6c565b916001600160a01b0360843581811690819003610c9a5760a43592828416809403610c9a57600080516020615f7c83398151915295865460ff8160401c16159660018060401b038216998a1580610c93575b6001809c149081610c89575b159081610c80575b50610c6e576001600160401b031983168b178a558694859384928e918c610c53575b50610b4f615d49565b610b57615d49565b610b6033614992565b610b68615d49565b610b70615d49565b610b78615d49565b8d600080516020615f3c8339815191525560018060a01b0319998a9116915416178d5516868b5416178a55168460025416176002551682600354161760035581600454161760045560055416176005556019600655600f600755600560085560056009556019600a556019600b5582600c556032600d556019600e556203f48060155561010161ffff19601654161760165542601b55610c16578280f35b805460ff60401b191690556040519081527fc7f505b2f371ae2175ee4913f4499e1f2633a7b5936321eed1cdaeb6115181d290602090a138808280f35b6001600160481b0319166001600160401b01178d5538610b46565b60405163f92ee8a960e01b8152600490fd5b90501538610b24565b303b159150610b1c565b5088610b10565b600080fd5b5034610382576020366003190112610382576020906004358152601c8252604060018060a01b0391205416604051908152f35b5034610382578060031936011261038257610ceb614a2d565b60ff610cfe60ff60165460081c16613fd1565b33825260119160206011815260408220938283908492855b8854811015610f8c57876004610d2c838c613e64565b5001541615610f84576002610d41828b613e64565b500154610d4e828b613e64565b509060038092015490603c91828102928184041490151715610f70578b9291610d7691613f97565b421015610d8a575b50506001905b01610d16565b90958895929495600783610d9e888b613e64565b50015403610f175750633b9aca00610de362cb7356935b610dcf610dc2898c613e64565b5095600180970154613f6e565b90610dda898c613e64565b50015490613f6e565b04908991610df1878a613e64565b508760059a8b809301548411610eef575b5050505081610e1091613f97565b96610e1b868d613e64565b500190815490610e2a91613f97565b9055338852600f87526040882060090154918a828a878b8715600198610e9298610e6d95606494610e6694610ed9575b505050600c5490613f6e565b0493613e64565b50015481811115610ec65790610e8681610e8c93613fc4565b92613f97565b95613f97565b926004610e9f828c613e64565b5001805460ff19169055610ebd610eb6828c613e64565b5054614dbc565b90508838610d7e565b9050610ed191613f97565b948890613f97565b6040929350601090522001548f8f908791610e5a565b610e10949550610f0d939291610f0491613e64565b50015490613fc4565b919088878e610e02565b600f83610f24888b613e64565b50015403610f3f5750633b9aca00610de362fe502b93610db5565b91601e81610f4d888b613e64565b50015414610f64575b610de3633b9aca0091610db5565b6301312d009250610f56565b634e487b7160e01b8a52600485905260248afd5b600190610d84565b50509092918115908115809261142b575b156113f257846113de575b80611081575b5061101a575b600f9260405191825282820152600080516020615f5c83398151915260403392a2610fde33614f50565b338352526040812060046003820154910154111561100c575b6001600080516020615f3c8339815191525580f35b61101533615001565b610ff7565b835460405163a9059cbb60e01b81529390839085906001600160a01b0316818881611049883360048401613e49565b03925af193841561077c57600f94611064575b509250610fb4565b61107a90843d86116106f7576106e88183613def565b508561105c565b338652600f845261109f604087206003600482015491015490613fc4565b8082116113b8575b508015610fae57338652600f8452600360408720016110c7828254613f97565b905585546040516370a0823160e01b808252306004830152889390926001600160a01b0392600183901c918416908981602481855afa80156113ad5783918d9161137c575b50101580611373575b61130f575b50601854801580156112fb575b156112ba5750670de0b6b3a7640000905b670de0b6b3a7640000908181029181830414901517156112a6579061115c91613fa4565b899260015416936040519081523060048201528881602481885afa801561129b5782918c9161126a575b50101580611261575b6111ed575b50600080516020615e1c8339815191529250604051908152600087820152600080516020615f1c83398151915260403392a2338852601086526040882054906111e4604051928392339684614038565b0390a285610fae565b90915086604051809463a9059cbb60e01b8252818c81611211873360048401613e49565b03925af192831561125657600080516020615e1c83398151915293611239575b509089611194565b61124f90883d8a116106f7576106e88183613def565b5089611231565b6040513d8b823e3d90fd5b5080151561118f565b8092508a8092503d8311611294575b6112838183613def565b81010312610c9a578190518c611186565b503d611279565b6040513d8d823e3d90fd5b634e487b7160e01b8b52601160045260248bfd5b601754670de0b6b3a7640000908181029181830414901517156112e757906112e191613fa4565b90611138565b634e487b7160e01b8c52601160045260248cfd5b50683635c9adc5dea0000060175410611127565b60405163a9059cbb60e01b815291955088908290818d816113348b3360048401613e49565b03925af180156113685761134b575b50838a61111a565b61136190883d8a116106f7576106e88183613def565b5089611343565b6040513d8c823e3d90fd5b50811515611115565b8092508b8092503d83116113a6575b6113958183613def565b81010312610c9a578290518d61110c565b503d61138b565b6040513d8e823e3d90fd5b906040519081528185820152600080516020615e9c83398151915260403392a2866110a7565b6113ea85601754613f97565b601755610fa8565b60405162461bcd60e51b81526004810185905260116024820152704e6f7468696e6720746f2072656465656d60781b6044820152606490fd5b50801515610f9d565b50346103825780600319360112610382576020600754604051908152f35b50346103825780600319360112610382576020601f54604051908152f35b50346103825760403660031901126103825761148a613d2a565b6001600160a01b03168152601160205260408120805460243592908310156103825760c06114b88484613e64565b508054906001810154906002810154600382015490600560ff600485015416930154936040519586526020860152604085015260608401521515608083015260a0820152f35b5034610382578060031936011261038257602060ff601654166040519015158152f35b5034610382578060031936011261038257604080519081016001600160401b038111828210176115b05760405260058152602091640352e302e360dc1b602083015260405192839160208352835191826020850152815b83811061159957505060408094508284010152601f80199101168101030190f35b808601820151878201604001528694508101611578565b634e487b7160e01b600052604160045260246000fd5b5034610382576115d536613dc6565b908252601d60205260408220805482101561161a576115f49250613e2d565b508054600190910154604051918291611616916001600160a01b031683613e49565b0390f35b8280fd5b50346103825760403660031901126103825761037f61163b613d2a565b611643613d40565b9061164c6149f4565b614614565b5034610382576020366003190112610382577fd28d9e4ce68d89af7920cb8618e342a78f51e545c530ce60f1cb1d6f0235b47f60206004356116916149f4565b80601555604051908152a180f35b5034610382576116ae36613dc6565b6116b66149f4565b81611770575b806116e3575b600080516020615dfc8339815191529160409182519182526020820152a180f35b6001546040516323b872dd60e01b8152929060209084906001600160a01b031681878161171588303360048501613f4c565b03925af19182156106fe57600080516020615dfc83398151915293604093611751575b5061174581601854613f97565b601855915091506116c2565b6117699060203d6020116106f7576106e88183613def565b5038611738565b82546040516323b872dd60e01b81529060209082906001600160a01b03168187816117a089303360048501613f4c565b03925af180156106fe576117c4575b506117bc82601754613f97565b6017556116bc565b6117dc9060203d6020116106f7576106e88183613def565b50386117af565b5034610382576040366003190112610382576117fd613d2a565b602435906118096149f4565b61181582601f54613fc4565b601f55825460405163a9059cbb60e01b815291906001600160a01b03906020908490831681888161184a8a8960048401613e49565b03925af191821561077c577f27971ee1acbfbdfb20656657ceb2e0e7b519b9e60fe1a6b1f6d27b159f4a607c9360209361188c575b506040519485521692a280f35b6118a290843d86116106f7576106e88183613def565b503861187f565b5034610382578060031936011261038257546040516001600160a01b039091168152602090f35b50346103825780600319360112610382576020600e54604051908152f35b5034610382577f4e9dd03193a0c81552fb8e6d32280f0d7e0ce8087241dc3d17ef3d193ee231d7604061192036613dc6565b6119286149f4565b81600d5580600e5582519182526020820152a180f35b5034610382578060031936011261038257600080516020615e3c833981519152546040516001600160a01b039091168152602090f35b5034610382578060031936011261038257602060405160038152f35b5034610382578060031936011261038257602060405160018152f35b50346103825780600319360112610382576004546040516001600160a01b039091168152602090f35b5034610382578060031936011261038257602060405160048152f35b5034610382576020366003190112610382576080906040906001600160a01b03611a19613d2a565b16815260106020522080549060018101549060ff6003600283015492015416916040519384526020840152604083015215156060820152f35b503461038257608036600319011261038257611a6c613d2a565b611a74613d40565b90611a7d613d56565b91611a86613d6c565b90611a8f6149f4565b6001600160a01b039283169182151580611b78575b80611b6d575b80611b62575b15611b2b577f213f1de8063c19612a553f1480ff341bea689d36a56a2089f1b9060d599b5d8394848060809660018060a01b031995878760025416176002551692838660035416176003551692838560045416176004551680936005541617600555604051938452602084015260408301526060820152a180f35b60405162461bcd60e51b815260206004820152600f60248201526e496e76616c6964206164647265737360881b6044820152606490fd5b508381161515611ab0565b508385161515611aaa565b508382161515611aa4565b503461038257611b9236613dc6565b908252601360205260408220805482101561161a576115f49250613e2d565b50346103825780600319360112610382576020601754604051908152f35b50346103825780600319360112610382576002546040516001600160a01b039091168152602090f35b50346103825780600319360112610382576020601a54604051908152f35b5034610382578060031936011261038257611c2f6149f4565b600080516020615e3c83398151915280546001600160a01b031981169091556000906001600160a01b0316600080516020615edc8339815191528280a380f35b50346103825780600319360112610382576020601554604051908152f35b503461038257806003193601126103825760206040516103e88152f35b503461038257602036600319011261038257611cc4614a2d565b611cd360ff604f541615613ef3565b611cdc3361540f565b68056bc75e2d631000006004351415806124ca575b806124b5575b806124a0575b61248e5780546040516323b872dd60e01b81529060209082906001600160a01b0316818581611d356004803590309033908501613f4c565b03925af1801561248357612464575b5033815260106020526040812060038101805460ff161561238957611d6a6019546145cf565b806019558255600435600183015542600283015560ff198154169055338252600f602052816003604082200155600360043502600435810460031460043515171561237557338352600f60205260046040842001555b600a6001820154338452600f6020526040842090600982018054821161236d575b505001805460043511612362575b5080548252601c6020908152604080842080546001600160a01b031916339081179091558452600f9091528220546001600160a01b03168015158061234e575b156122c257611e4e6064611e47600654600435613f6e565b04826155db565b9081612293575b50505b338252600f6020526040822054829182916001600160a01b03169082906004358015908004600114171561227f579394915b6001600160a01b03811680151580612275575b8061226b575b15611faa578452600f6020526040842060ff60058201541615611f8b57506001600160a01b0381168452600f60205260408420600101548390611ee590614008565b11611f21575b6001600160a01b039081168452600f60205260408420541691611f1790611f11906145cf565b956145cf565b935b939491611e8a565b611f30606460043504826157df565b80611f3c575b50611eeb565b9182611f4791613f97565b91338552601060205260408520546040519182526003602083015260408201523390600080516020615ddc833981519152606060018060a01b03851692a338611f36565b5492956001600160a01b0390931692611fa491506145cf565b93611f19565b848684611fc96007916064611fc3600754600435613f6e565b04613fc4565b80612226575b508260018060a01b03815416602061201b60018060a01b0360025416926064611ffc600854600435613f6e565b0460405195868094819363a9059cbb60e01b9889845260048401613e49565b03925af191821561077c5761208992612207575b506120496064612043600954600435613f6e565b04615b05565b845460048054600a546020936001600160a01b03928316939216916064916120719135613f6e565b04918860405180978195829489845260048401613e49565b03925af190811561077c576120de926020926121ea575b5060018060a01b0386541660018060a01b03600354168760646120c7600b54600435613f6e565b049360405196879586948593845260048401613e49565b03925af180156106fe576121cb575b50336000908152600f60205260408120549092600435151592916001600160a01b03165b6001600160a01b0316801515806121c1575b1561216c57600052600f60205261214f83604060002090612155575b546001600160a01b0316946145cf565b93612111565b8381016121656004358254613f97565b905561213f565b858261217733614f50565b5460405190600435825260208201527f2a91574e12ad96234e84923e146b0946ecfb871cd8d5534dc1fdcbe87a7c01b360403392a26001600080516020615f3c8339815191525580f35b50601e8510612123565b6121e39060203d6020116106f7576106e88183613def565b50836120ed565b61220090833d85116106f7576106e88183613def565b50866120a0565b61221f9060203d6020116106f7576106e88183613def565b508561202f565b6040816122567fca2e2bff26d2adb9fe155e9265350494c16751676879cb7ced9141e0fcf3934393601f54613f97565b80601f5582519182526020820152a183611fcf565b5060148710611ea3565b50600f8410611e9d565b634e487b7160e01b84526011600452602484fd5b8254604051928352600260208401526040830152600080516020615ddc83398151915260603393a33880611e55565b50815460025460065461230f926020926001600160a01b03908116929116906064906122f090600435613f6e565b04918660405180968195829463a9059cbb60e01b845260048401613e49565b03925af1801561234357612324575b50611e58565b61233c9060203d6020116106f7576106e88183613def565b503861231e565b6040513d85823e3d90fd5b5080835260ff600560408520015416611e2f565b600435905538611def565b553880611de1565b634e487b7160e01b83526011600452602483fd5b600182018054806123f757506123a06019546145cf565b806019558355600435905542600283015560ff198154169055338252600f602052816003604082200155600360043502600435810460031460043515171561237557338352600f6020526004604084200155611dc0565b61240691925060043590613f97565b9055338252600f60205260ff600560408420015416612459575b600360043502600435810460031460043515171561237557338352600f60205261245260046040852001918254613f97565b9055611dc0565b426002820155612420565b61247c9060203d6020116106f7576106e88183613def565b5038611d44565b6040513d84823e3d90fd5b60405163162908e360e11b8152600490fd5b50683635c9adc5dea000006004351415611cfd565b50681b1ae4d6e2ef5000006004351415611cf7565b50681043561a88293000006004351415611cf1565b503461038257610160366003190112610382576124fa613d2a565b612502613d1b565b606435151560643503610c9a5760a435151560a43503610c9a5760e435151560e43503610c9a576101243515156101243503610c9a576125406149f4565b6125546001600160a01b03831615156145de565b6001600160a01b0382168352600f602052604083209061264b575b60643561260e575b60a435612601575b60e4356125f3575b610124356125e4575b507f8fb1f6e3f39354fc80c1defc040c6d354638b0c8e5f9c63cd0292ef9842197e9608060405192604435845260c435602085015261010435604085015261014435606085015260018060a01b031692a280f35b60066101443591015538612590565b610104356004820155612587565b60c435600382015561257f565b600281018054608435918290556040805191825260208201929092526001600160a01b03841691600080516020615e5c83398151915291a2612577565b604435600182015561256f565b50346103825780600319360112610382576020601954604051908152f35b50346103825780600319360112610382577f00000000000000000000000000000000000000000000000000000000000000006001600160a01b031630036126cf576020604051600080516020615e7c8339815191528152f35b60405163703e46dd60e11b8152600490fd5b5034610382576020806003193601126105fc5760043590612700614a2d565b61270f60ff604f541615613ef3565b811561248e57683635c9adc5dea000008060175410908115612994575b50612908576001546040516323b872dd60e01b81526001600160a01b03918390829084168188816127628a303360048501613f4c565b03925af1801561077c57612977575b506064612780600e5485613f6e565b049061278c8285613fc4565b92612710808502908582041485151715612963576127b06103e89160185490613fa4565b1161248e57858260015416803b156105fc57818091602460405180948193630852cd8d60e31b83528a60048401525af180156124835761294b575b5050601754936127fb8582613f6e565b906128136018549261280d8385613f97565b90613fa4565b93885416956040516370a0823160e01b815230600482015284816024818b5afa80156113685786918b9161291a575b501061290857612856859261285e94613f97565b601855613fc4565b60175580604051809563a9059cbb60e01b8252818981612882883360048401613e49565b03925af19384156128fd577f223c8ad0806f634524940a8595f819c5cfc7b1f4f4f45791269301df0a7e61d5946128df575b50506128c7604051928392339684613db0565b0390a26001600080516020615f3c8339815191525580f35b816128f592903d106106f7576106e88183613def565b5038806128b4565b6040513d88823e3d90fd5b6040516343c7ad8160e11b8152600490fd5b809250868092503d8311612944575b6129338183613def565b81010312610c9a5785905138612842565b503d612929565b61295490613ddc565b61295f5785386127eb565b8580fd5b634e487b7160e01b87526011600452602487fd5b61298d90833d85116106f7576106e88183613def565b5038612771565b9050601854103861272c565b50346103825780600319360112610382576129b96149f4565b600160ff19604f541617604f557f4cb3183d0bf66f9634b15cfc3539fdddc96c2c9324848af89b56586a6739fec48180a180f35b50604036600319011261038257612a02613d2a565b60249182356001600160401b0381116105fc57366023820112156105fc578060040135612a2e81613e12565b93612a3c6040519586613def565b818552602091828601933688838301011161295f57818692898693018737870101526001600160a01b037f00000000000000000000000000000000000000000000000000000000000000008116308114908115612c04575b506126cf57612aa16149f4565b8116946040516352d1902d60e01b815283816004818a5afa869181612bd1575b50612ade57604051634c9c8ce360e01b8152600481018890528890fd5b869088600080516020615e7c83398151915291828103612bbc5750843b15612ba6575080546001600160a01b031916821790556040518692917fbc7cd75a20ee27fd9adebab32041f755214dbc6bffa90cc0225b39da2e5c2d3b8480a2815115612b885750612b7b9482915190845af4903d15612b7f573d612b5f81613e12565b90612b6d6040519283613def565b81528581943d92013e615d78565b5080f35b60609250615d78565b94505050505034612b97575080f35b63b398979f60e01b8152600490fd5b604051634c9c8ce360e01b815260048101849052fd5b60405190632a87526960e21b82526004820152fd5b9091508481813d8311612bfd575b612be98183613def565b81010312612bf957519038612ac1565b8680fd5b503d612bdf565b905081600080516020615e7c8339815191525416141538612a94565b503461038257612c2f36613dc6565b90612c38614a2d565b612c4760ff604f541615613ef3565b3383526020906010825260408420926001840193845415613015576003015460ff1661300357600781141580612ff8575b80612fed575b612fdb57811561248e5784546040516323b872dd60e01b81526001600160a01b039591859082908816818a81612cb98a303360048501613f4c565b03925af18015612fd057612fb3575b50612cd4601a546145cf565b601a81905533875260118552604080882090519160c083016001600160401b038111848210176115b057604052825285820185815260408301428152606084019086825260808501926001845260a08601948c8652805490600160401b821015612f9f5790612d4891600182018155613e64565b969096612f8b5791612d8793916005969593518855516001880155516002870155516003860155511515600485019060ff801983541691151516179055565b51910155601a548652601e8452604080872080546001600160a01b031916339081179091558752600f85528620600a018054918215612f7d575b5050609681029080820460961490151715612f695760649004820361248e577fa8a1b9e33e503eed12bf7e7c8c01c7f3b60217a496bddd0f5db351dd8c056c1c90612e0b33614f50565b601a5490612e20604051928392339684613db0565b0390a2338352600f815260066040842001918383549384612e52575b506001600080516020615f3c8339815191525580f35b556017548381101580612f00575b612e6c575b8490612e3c565b83612e7691613fc4565b6017558354169080604051809363a9059cbb60e01b8252818781612e9e893360048401613e49565b03925af19182156106fe577f3437b9ea7fa19c6d233dd70cc787a70fab87cee64d8ba4571512cc84402748f992612ee3575b506040519283523392a238808080612e65565b612ef990823d84116106f7576106e88183613def565b5038612ed0565b5060248383875416604051928380926370a0823160e01b82523060048301525afa80156128fd5785918791612f38575b501015612e60565b809250858092503d8311612f62575b612f518183613def565b81010312610c9a5784905138612f30565b503d612f47565b634e487b7160e01b86526011600452602486fd5b909150548091553880612dc1565b634e487b7160e01b8d5260048d905260248dfd5b634e487b7160e01b8e52604160045260248efd5b612fc990853d87116106f7576106e88183613def565b5038612cc8565b6040513d89823e3d90fd5b604051634dc7f5ff60e11b8152600490fd5b50601e811415612c7e565b50600f811415612c78565b604051631ecb2c4f60e31b8152600490fd5b604051634065aaf160e11b8152600490fd5b50346103825780600319360112610382576130406149f4565b60ff19604f5416604f557f15de7ad89d29fd1c6d2e6b1e878453569b4080edf34e0105faaa3bd52f0185308180a180f35b50346103825780600319360112610382576020604051603c8152f35b50346103825780600319360112610382576003546040516001600160a01b039091168152602090f35b5034610382576020366003190112610382576020906004358152601e8252604060018060a01b0391205416604051908152f35b5034610382578060031936011261038257613102614a2d565b610ff7614055565b50346103825780600319360112610382576020600d54604051908152f35b5034610382578060031936011261038257602060ff604f54166040519015158152f35b5034610382578060031936011261038257604f5460405160089190911c6001600160a01b03168152602090f35b50346103825760203660031901126103825760043590601454821015610382576020816014600393522091020180546116166002600184015493015460405193849384613db0565b50346103825780600319360112610382576020604051683635c9adc5dea000008152f35b50346103825780600319360112610382576020601854604051908152f35b503461038257602036600319011261038257610160906001600160a01b03906040908261322d613d2a565b168152600f60205220908154169060018101549060028101546003820154600483015460ff600585015416600685015491600786015493600887015495600a6009890154980154986040519a8b5260208b015260408a015260608901526080880152151560a087015260c086015260e0850152610100840152610120830152610140820152f35b50346103825760203660031901126103825760206132d3600435614008565b604051908152f35b50346103825780600319360112610382576001546040516001600160a01b039091168152602090f35b5034610382578060031936011261038257602090604051908152f35b5034610382576020806003193601126105fc5760043561333e614a2d565b61334f60ff60165460081c16613fd1565b3383526011825260408320805482108061380f575b156137da579061337391613e64565b5090600182019182549260028201549160038101549460058201805494338952600f97888852600960408b20015460108952600160408c200154600c54916040519361010085019585871060018060401b038811176115b057613400966040528886528c8601526040850152896060850152608084015260a083015260c0820152603c60e0820152614a5d565b94919290968395156137a7578361341691613f97565b905560048101805460ff1916905588546001600160a01b039361344191889190309033908816614b4f565b15613772576134569086613744575b54614dbc565b80613488575b505050549060405191825282820152600080516020615f5c83398151915260403392a2610fde33614f50565b3388528686526134a5604089206003600482015491015490613fc4565b80911161373c575b50816134ba575b8061345c565b338752858552600360408820016134d2838254613f97565b90558160011c908088541691604051926370a0823160e01b938481523060048201528881602481855afa801561129b5783918c9161370b575b50101580613702575b6136b5575b50601854801580156136a1575b156136715750613540670de0b6b3a7640000915b85613fc4565b670de0b6b3a76400009081810291818304149015171561365d578993929161356791613fa4565b90600154166040519283523060048401528783602481845afa80156106fe5788938591613628575b508211158061361f575b6135c9575b50505050604051908152600084820152600080516020615f1c83398151915260403392a238806134b4565b6135ea9160405194858094819363a9059cbb60e01b83523360048401613e49565b03925af18015612fd057613602575b8481889261359e565b61361890853d87116106f7576106e88183613def565b50386135f9565b50811515613599565b93809295508491503d8311613656575b6136428183613def565b81010312610c9a578892818893519061358f565b503d613638565b634e487b7160e01b8a52601160045260248afd5b601754670de0b6b3a7640000908181029181830414901517156112a6576135409161369b91613fa4565b9161353a565b50683635c9adc5dea0000060175410613526565b87604051809263a9059cbb60e01b8252818d816136d6883360048401613e49565b03925af180156113685715613519576136fb90883d8a116106f7576106e88183613def565b5038613519565b50811515613514565b8092508a8092503d8311613735575b6137248183613def565b81010312610c9a578290513861350b565b503d61371a565b9150386134ad565b61375087601754613f97565b601755338a52888852600660408b200161376b888254613f97565b9055613450565b606487896040519162461bcd60e51b8352600483015260248201526e151c985b9cd9995c8819985a5b1959608a1b6044820152fd5b60405162461bcd60e51b8152600481018a9052600b60248201526a139bdd08195e1c1a5c995960aa1b6044820152606490fd5b60405162461bcd60e51b815260048101849052600d60248201526c496e76616c6964207374616b6560981b6044820152606490fd5b5060ff600461381e8484613e64565b50015416613364565b5034610382578060031936011261038257602060405160028152f35b5034610382576020806003193601126105fc5760043590613862614a2d565b61387160ff604f541615613ef3565b811561248e57683635c9adc5dea000008060175410908115613a95575b506129085782546040516323b872dd60e01b81526001600160a01b03918390829084168188816138c38a303360048501613f4c565b03925af1801561077c57613a78575b50601854906138e18285613f6e565b906138f36017549261280d8785613f97565b92612710860261270f1987820401613a6457613912846103e892613fa4565b1161248e576064613925600d5486613f6e565b04936139318582613fc4565b938360015416916040516370a0823160e01b81523060048201528881602481875afa801561129b5782918c91613a2f575b50106129085789936139778a61397f94613f97565b601755613fc4565b601855803b156105fc578190602460405180948193630852cd8d60e31b83528960048401525af18015612fd057613a1c575b50600154169280604051809563a9059cbb60e01b82528189816139d8883360048401613e49565b03925af19384156128fd577f36864aeefce16bc4aaceeb6b0cdfb2ad1455a8cb4ccb0db148a2bc6e7166f97c946128df5750506128c7604051928392339684613db0565b613a2890969196613ddc565b94386139b1565b8092508a8092503d8311613a5d575b613a488183613def565b81010312613a595781905138613962565b8a80fd5b503d613a3e565b634e487b7160e01b88526011600452602488fd5b613a8e90833d85116106f7576106e88183613def565b50386138d2565b9050601854103861388e565b503461038257604036600319011261038257613abb613d2a565b6001600160a01b039081168252601260205260408220805460243593908410156103825750602092613aec91613d82565b9190546040519260031b1c168152f35b5034610382576020908160031936011261038257613b18613d2a565b338252600f808452604083205490926001600160a01b039290918316613c45578216338114613c33578015613c215733808352600f8652604080842080546001600160a01b03191684179055828452601287528320613b779190613eb0565b338252600f855282604083205416938383955b1680151580613c17575b15613bed578084528187526040842090600282018054906001820190818311613a645792600080516020615e5c83398151915260408a969394858e8997613be799558351928352820152a25416966145cf565b95613b8a565b5050337fa6dbb5aa28f35437de94d685d66edce5fb4812196b4984b91dfd5a7b38c0fb308380a380f35b50601e8610613b94565b60405163e6c4247b60e01b8152600490fd5b604051631acade8960e31b8152600490fd5b60405163682a906560e01b8152600490fd5b50346103825780600319360112610382576020600b54604051908152f35b5034610382576040366003190112610382576004358015158091036105fc5760207f03cb373f89de891077fe47cec43663b6727713de0337af46bebd1178122251b7917fb886fcb5b9c12916f26d967ebe962dbd51ec249fb55961da39c851cdfc10115c82613ce2613d1b565b92613ceb6149f4565b6016549315159361ff008560081b169060ff83169061ffff19161717601655604051908152a1604051908152a180f35b602435908115158203610c9a57565b600435906001600160a01b0382168203610c9a57565b602435906001600160a01b0382168203610c9a57565b604435906001600160a01b0382168203610c9a57565b606435906001600160a01b0382168203610c9a57565b8054821015613d9a5760005260206000200190600090565b634e487b7160e01b600052603260045260246000fd5b6040919493926060820195825260208201520152565b6040906003190112610c9a576004359060243590565b6001600160401b0381116115b057604052565b601f909101601f19168101906001600160401b038211908210176115b057604052565b6001600160401b0381116115b057601f01601f191660200190565b8054821015613d9a5760005260206000209060011b0190600090565b6001600160a01b039091168152602081019190915260400190565b8054821015613d9a576000526006602060002091020190600090565b9181601f84011215610c9a578235916001600160401b038311610c9a576020808501948460051b010111610c9a57565b80549190600160401b8310156115b05782613ed3916001613ef195018155613d82565b90919060018060a01b038084549260031b9316831b921b1916179055565b565b15613efa57565b60405162461bcd60e51b815260206004820152601260248201527110dbdb9d1c9858dd081a5cc81c185d5cd95960721b6044820152606490fd5b90816020910312610c9a57518015158103610c9a5790565b6001600160a01b03918216815291166020820152604081019190915260600190565b81810292918115918404141715613f8157565b634e487b7160e01b600052601160045260246000fd5b91908201809211613f8157565b8115613fae570490565b634e487b7160e01b600052601260045260246000fd5b91908203918211613f8157565b15613fd857565b60405162461bcd60e51b8152602060048201526008602482015267111a5cd8589b195960c21b6044820152606490fd5b600381101561403257600281101561402c576001111561402757600090565b600590565b50600a90565b50600f90565b606091949392608082019582526020820152600060408201520152565b600033815260209060108252604090818120926001808501541580156145c1575b6145b0573383526011825283832083919082825b614436575b5050811561442557338452600f83526140ae8260038787200154613f97565b95338552600f8452858520966004978881015480921161440d575b505082156143fd57338552600f84526003868620016140e9848254613f97565b9055845486516370a0823160e01b808252308a8301528795926001600160a01b039284871c918416908981602481855afa9081156143f3578b8d8f928d9594879184916143ba575b501015806143b1575b614354575b505050505060185480158015614340575b156143005750670de0b6b3a7640000905b670de0b6b3a7640000908181029181830414901517156142ed579061418591613fa4565b9188955416908951908152308b8201528781602481855afa9081156142e3579083918a916142ae575b501015806142a5575b614224575b505091600080516020615e1c83398151915291600f95949388519081528786820152600080516020615f1c833981519152893392a254906142038851928392339684614038565b0390a233835252206003810154910154111561421b57565b613ef133615001565b8161424b9293955087918b8a8c5180968195829463a9059cbb60e01b845233908401613e49565b03925af1801561429b5791600080516020615e1c8339815191529391600f9796959361427e575b509394958193506141bc565b61429490873d89116106f7576106e88183613def565b5038614272565b88513d89823e3d90fd5b508115156141b7565b809250898092503d83116142dc575b6142c78183613def565b810103126142d857829051386141ae565b8880fd5b503d6142bd565b8a513d8b823e3d90fd5b634e487b7160e01b8a5260118c5260248afd5b601754670de0b6b3a76400009081810291818304149015171561432d579061432791613fa4565b90614161565b634e487b7160e01b8b5260118d5260248bfd5b50683635c9adc5dea0000060175410614150565b5163a9059cbb60e01b8152949a508492918391908290614379908e9033908401613e49565b03925af180156142e357614394575b508587388c8b8d61413f565b6143aa90883d8a116106f7576106e88183613def565b5038614388565b5085151561413a565b959694505050505081813d83116143ec575b6143d68183613def565b81010312613a5957908c8b8d858d955138614131565b503d6143cc565b8c513d8d823e3d90fd5b50505050505050613ef133615001565b61441d9294506003015490613fc4565b9138806140c9565b8451630fec21fd60e21b8152600490fd5b81548110156145ab578260ff600461444e8486613e64565b50015416156145a35750856144638284613e64565b5090600760038093015414600014614564575062cb73565b603c614495600261448c8688613e64565b50015442613fc4565b0491806144a28587613e64565b500154831161454d575b5084821561454157916144d46144d992633b9aca00946144cc8789613e64565b500154613f6e565b613f6e565b046144e48284613e64565b509060058092015490818111614505575b505050908280925b01909161408a565b9561453761452261451b8897969488969a613fc4565b8093613f97565b9761452d8487613e64565b5001918254613f97565b90559192386144f5565b939290508391506144fd565b90915061455a8385613e64565b50015490386144ac565b600f826145718587613e64565b50015403614583575062fe502b61447b565b601e826145908587613e64565b5001540361447b57506301312d0061447b565b8092916144fd565b61408f565b8351634065aaf160e11b8152600490fd5b5060ff600386015416614076565b6000198114613f815760010190565b156145e557565b60405162461bcd60e51b8152602060048201526007602482015266125b9d985b1a5960ca1b6044820152606490fd5b916001600160a01b03908184169081151580614963575b614634906145de565b8284168083146149335784846000965b1680151580614929575b156146aa5784811461467a57600052600f602052846146748160406000205416976145cf565b96614644565b60405162461bcd60e51b815260206004820152600860248201526721b4b931bab630b960c11b6044820152606490fd5b506000848152600f60208181526040928390208054969a959950868916989496898b1461491c576001600160a01b0319168a179055871515948561483f575b6146fe908a6000526012835284600020613eb0565b8660005281815260029560028460002001549060019660018301809311613f81576147bf575b8a614759575b50505050505050507ff8b9fe4d008320e6f048c61e41e9cc56ce351354ad0cb9a868bd3c4bd6928fd5600080a4565b600090875b614769575b5061472a565b8616801515806147b5575b156147b05780600052848452888660002001614791848254613f97565b90556000528383526147a986866000205416916145cf565b908761475e565b614763565b50601e8210614774565b866000878c835b6147d4575b50505050614724565b1680151580614835575b1561482e5760008181528787528890208b018054861161482557614803868254613fc4565b90555b60005285855261481c88886000205416916145cf565b908890836147c6565b60009055614806565b88906147cb565b50601e82106147de565b9897969594939291908760005260128152826000209960005b8b54808210156149075786908a6148708f8590613d82565b939054600394851b1c1614614889575050600101614858565b60009d91929495969798999a9b9c9d1994858201918211613f8157613ed38a6148b56148c39486613d82565b905490871b1c169184613d82565b805480156148f1576146fe94899101926148dd8484613d82565b81939154921b1b19169055555b90506146e9565b634e487b7160e01b600052603160045260246000fd5b50506146fe9192939495969798999a506148ea565b5050505050505050505050565b506032871061464e565b60405162461bcd60e51b815260206004820152600860248201526729b2b633103932b360c11b6044820152606490fd5b50838316151561462b565b9190811015613d9a5760051b0190565b356001600160a01b0381168103610c9a5790565b6001600160a01b039081169081156149db57600080516020615e3c83398151915280546001600160a01b03198116841790915516600080516020615edc833981519152600080a3565b604051631e4fbdf760e01b815260006004820152602490fd5b600080516020615e3c833981519152546001600160a01b03163303614a1557565b60405163118cdaa760e01b8152336004820152602490fd5b600080516020615f3c8339815191526002815414614a4b5760029055565b604051633ee5aeb560e01b8152600490fd5b906020820151614a816040840191614a7b835160e087015190613f6e565b90613f97565b421090811591614b4357614abf81633b9aca00925160078114600014614b195750614ab763ffffffff62cb73565b168751613f6e565b905190613f6e565b046060840151808211600014614b0b57614ade614af991606493613fc4565b60808601519095908015614afd5760c090915b015190613f6e565b0491565b5060c060a082015191614af1565b50506064614af96000614ade565b600f03614b3157614ab763ffffffff62fe502b614aaf565b614ab763ffffffff6301312d00614aaf565b50600092508291829150565b93909181614bc8575b505060405163a9059cbb60e01b815292602092849283916000918391614b819160048401613e49565b03926001600160a01b03165af1908115614bbc57600091614ba0575090565b614bb9915060203d6020116106f7576106e88183613def565b90565b6040513d6000823e3d90fd5b60018060a09594951b03808616916040938451926370a0823160e01b84528088169081600486015260209485816024818a5afa908115614d4b57908491600091614d1a575b5010614d0b57865191636eb1769f60e11b83526004830152831660248201528381604481885afa908115614d0057908291600091614ccf575b5010614cc257614c70938392600087518097819582946323b872dd60e01b84528d60048501613f4c565b03925af1928315614cb85750600092614c9b575b505015614c9357903880614b58565b505050600090565b614cb19250803d106106f7576106e88183613def565b3880614c84565b513d6000823e3d90fd5b5050505050505050600090565b809250858092503d8311614cf9575b614ce88183613def565b81010312610c9a5781905138614c46565b503d614cde565b86513d6000823e3d90fd5b50505050505050505050600090565b809250878092503d8311614d44575b614d338183613def565b81010312610c9a5783905138614c0d565b503d614d29565b88513d6000823e3d90fd5b8051821015613d9a5760209160051b010190565b80549060009081815582614d7d57505050565b6001906001600160ff1b0384168403612375578252602082209260011b8301925b838110614dab5750505050565b808360029255838382015501614d9e565b6000818152601e6020908152604080832054601d8352818420805493969495929492936001600160a01b0392831693906001600160401b0390818111614f2f5787519391614e10600583901b8c0186613def565b81855291895289892089928b86015b838510614ef8575050505050865b8251811015614ee15780614e5e85614e4760019487614d56565b5151168b614e558488614d56565b51015190615972565b86898c83614ea8575b8a92507fae629b396150638d6eb6de457cbffe5d618a10c8cc199a94976bed2b16ecd993915088614e98868a614d56565b515116938c51908152a301614e2d565b6060600080516020615ddc833981519152918c8b614ec6898d614d56565b515116946004815193898552840152820152a386898c614e67565b5096915050601d9150613ef1949283525220614d6a565b8a518b810181811084821117612f9f576001928f91926002938f528b87541681528487015483820152815201930194019391614e1f565b634e487b7160e01b89526041600452602489fd5b8015613f81576000190190565b60018060a01b038060009216825260106020526040822090600182015415159182614ff1575b50600f602052604083206005810160ff815416151584151514614fea57805460ff191660ff851515161790555416918215614fe55760019260409215614fcd578152600f6020522001614fc981546145cf565b9055565b81522001805480614fdc575050565b614fc990614f43565b505050565b5050505050565b6003015460ff1615915038614f76565b6001600160a01b038116600081815260106020526040902060038101805492939260ff811615615032575050505050565b906001602495969260ff19161790556011602052604060002094600092600094602060018060a01b0360005416604051988980926370a0823160e01b82523060048301525afa968715614bbc576000976153db575b50600095945b88548710156151485760ff60046150a4898c613e64565b500154161561513e5760016150b9888b613e64565b50015490818060011b0460021482151715613f8157896151119160016150f38b61012c6150ec8498600c5490861b613f6e565b0494613e64565b5001548281106151315790614a7b8361510b93613fc4565b97613f97565b96600461511e828c613e64565b5001805460ff191690555b01959461508d565b6000925061510b91613f97565b9495600190615129565b939750909450819593919383615238575b505091600080516020615f5c8339815191526040600080516020615efc833981519152959385602096615217575b6000858152600f885283902060058101805460ff19811690915590546001600160a01b03169060ff168061520e575b806151fa575b6151de575b50825191825286820152a254604051908152a23880808080614fea565b600052600183600020016151f28154614f43565b9055386151c1565b5080600052600184600020015415156151bc565b508015156151b6565b84600052600f875260068360002001615231828254613f97565b9055615187565b90949293908481106152dc5750506000805460405163a9059cbb60e01b81529560209287926001600160a01b031691839190829061527b908a9060048401613e49565b03925af1938415614bbc5760406020948793600080516020615f5c83398151915293600080516020615efc833981519152986152bf575b505b939550939550615159565b6152d590883d8a116106f7576106e88183613def565b50386152b2565b909293948161532f575b506040600080516020615efc83398151915295849360209695600080516020615e9c83398151915284600080516020615f5c833981519152968151908682528b820152a26152b4565b81615365929395945060209160018060a01b036000541690600060405180968195829463a9059cbb60e01b845260048401613e49565b03925af18015614bbc57600080516020615efc8339815191529560209588600080516020615e9c83398151915260408297600080516020615f5c8339815191529782976153be575b5096505050509394955095506152e6565b6153d4908c3d8e116106f7576106e88183613def565b50386153ad565b9096506020813d602011615407575b816153f760209383613def565b81010312610c9a57519538615087565b3d91506153ea565b6001600160a01b0390811660008181526010602090815260408083206001818101805496979096939590949291841580156155cd575b61557857601184528682208054839291835b82811061558d5750505050615583576002820196615479885460155490613f97565b42111561557857600383837f57025f0027038907eda728b59164fb63d06048f42e618a35267e6a12e49b2e469a8a9654998d8352600f895260ff600589852092835416920154168061556f575b8061555d575b615543575b508c8252600f88528187812095816004600589019860ff19998a81541690558289820155015581855555550190815416905584615514575b5051928352820152a2565b84815260138352615526828220614d6a565b848152601c83522080546001600160a01b03191690558338615509565b82526001878320016155558154614f43565b9055386154d1565b508083526001888420015415156154cc565b508015156154c6565b505050505050505050565b5050505050505050565b60ff600461559b8385613e64565b500154166155ab575b8301615457565b936155c58491826155bc8886613e64565b50015490613f97565b9490506155a4565b5060ff600384015416615445565b60018060a01b03808216906000918083526020600f8152604090818520936010825282862060ff600587015416159081156157d0575b81156157c3575b506157b857602482828854168551928380926370a0823160e01b82523060048301525afa9081156157ae57908991889161577d575b50106157585760048501956003875496019561566b87548092613fc4565b8a818111615730575b5050898061569a575b505050505050505490541115615691575090565b614bb990615001565b6156cb936156a9828794613f97565b89558354168a84885180978195829463a9059cbb60e01b845260048401613e49565b03925af1908115615725575090600080516020615f1c833981519152939291615708575b506002825191898352820152a23880808080808961567d565b61571e90823d84116106f7576106e88183613def565b50386156ef565b8451903d90823e3d90fd5b819b5086600080516020615e9c8339815191529189939d825191825288820152a23880615674565b50849692955081600080516020615e9c8339815191529592945051928352820152a290565b809250848092503d83116157a7575b6157968183613def565b81010312612bf9578890513861564d565b503d61578c565b84513d89823e3d90fd5b505050505091505090565b6001915001541538615618565b600381015460ff169150615611565b60018060a01b03808216906000918083526020600f8152604090818520936010825282862060ff60058701541615908115615963575b8115615956575b506157b857602482828854168551928380926370a0823160e01b82523060048301525afa9081156157ae579089918891615925575b50106157585760048501956003875496019561586f87548092613fc4565b8a8181116158fd575b5050898061589457505050505050505490541115615691575090565b6158a3936156a9828794613f97565b03925af1908115615725575090600080516020615f1c8339815191529392916158e0575b506003825191898352820152a23880808080808961567d565b6158f690823d84116106f7576106e88183613def565b50386158c7565b819b5086600080516020615e9c8339815191529189939d825191825288820152a23880615878565b809250848092503d831161594f575b61593e8183613def565b81010312612bf95788905138615851565b503d615934565b600191500154153861581c565b600381015460ff169150615815565b60018060a01b03808216906000918083526020600f8152604090818520936010825282862060ff60058701541615908115615af6575b8115615ae9575b506157b857602482828854168551928380926370a0823160e01b82523060048301525afa9081156157ae579089918891615ab8575b501061575857600485019560038754960195615a0287548092613fc4565b8a818111615a90575b50508980615a2757505050505050505490541115615691575090565b615a36936156a9828794613f97565b03925af1908115615725575090600080516020615f1c833981519152939291615a73575b506004825191898352820152a23880808080808961567d565b615a8990823d84116106f7576106e88183613def565b5038615a5a565b819b5086600080516020615e9c8339815191529189939d825191825288820152a23880615a0b565b809250848092503d8311615ae2575b615ad18183613def565b81010312612bf957889051386159e4565b503d615ac7565b60019150015415386159af565b600381015460ff1691506159a8565b908115615d4557601754683635c9adc5dea00000808210908115615d39575b50615d345760018060a01b03926000938085541692604093845191826370a0823160e01b9283825230600483015281602460209687935afa908115615d2a578991615cfd575b50615b758683613f97565b11615cdf57612710850261270f1986820401615ce957615b98826103e892613fa4565b11615cdf5760185490615bb8615bae8388613f6e565b61280d8884613f97565b9485158015615cd6575b615cca57600154169287519081523060048201528481602481875afa908115615cc0579083918b91615c8b575b5010615c80578489939261397788615c0694613f97565b601855803b156105fc5781906024875180948193630852cd8d60e31b83528860048401525af18015615c76577f0ec3929061cbbbeecb325623e7d5a86c3dae11cb8a22ca45dc0972955657da25969750615c67575b508351928352820152a1565b615c7090613ddc565b38615c5b565b85513d89823e3d90fd5b505050505050509050565b809250868092503d8311615cb9575b615ca48183613def565b81010312615cb55782905138615bef565b8980fd5b503d615c9a565b88513d8c823e3d90fd5b50505050505050509050565b50828611615bc2565b5050505050509050565b634e487b7160e01b89526011600452602489fd5b90508381813d8311615d23575b615d148183613def565b810103126142d8575138615b6a565b503d615d0a565b87513d8b823e3d90fd5b509050565b90506018541038615b24565b9050565b60ff600080516020615f7c8339815191525460401c1615615d6657565b604051631afcd79f60e31b8152600490fd5b90615d9f5750805115615d8d57602081519101fd5b60405163d6bda27560e01b8152600490fd5b81511580615dd2575b615db0575090565b604051639996b31560e01b81526001600160a01b039091166004820152602490fd5b50803b15615da856fe9b3cc71482a1b2eebe764a739f46f1fe99291fd0183be81951532b29d0c9c8da38f8a0c92f4c5b0b6877f878cb4c0c8d348a47b76d716c8e78f425043df9515b6fcebd0a2ce98b28cb391d6008bbc769378c9a4919628e11639cb575cd320fcc9016d09d72d40fdae2fd8ceac6b6234c7706214fd39c1cd1e609a0528c199300a0eea20e678cb42233c1c456c84cedce7ea53fa360bb71bf3b761b7609567770360894a13ba1a3210667c828492db98dca3e2076cc3735a920a3ca505d382bbcb5987aab1afd379f6695f1068869ee8ca6a0d02304c57935a9cc3d3ea2e51e4d520bc217d25ef4588524228dffcfa518f4ad52178c71d49b8061d016213cd3118be0079c531659141344cd1fd0a4f28419497f9722a3daafe3b4186f6b6457e0920bb94eb3842a728db98228c375ff6b00c5bc5a54fac6736155517a0a20a61af381583145e90b82cc5e529bf4fc4d0e44397174cdf145c4251ac33ef195a4249b779b17422d0df92223018b32b4d1fa46e071723d6817e2486d003becc55f00f3a670cd3af7d64b488926880889d08a8585a138ff455227af6737339a1ec262f0c57e16840df040f15088dc2f81fe391c3923bec73e23a9662efc9c229c6a00a2646970667358221220165b9b1106f28c2afe382eb884b5337200f0d96fa8a5ef3928e53757dd3685a964736f6c63430008160033","opcodes":"PUSH1 0xA0 DUP1 PUSH1 0x40 MSTORE CALLVALUE PUSH3 0xD1 JUMPI ADDRESS PUSH1 0x80 MSTORE PUSH32 0xF0C57E16840DF040F15088DC2F81FE391C3923BEC73E23A9662EFC9C229C6A00 SWAP1 DUP2 SLOAD SWAP1 PUSH1 0xFF DUP3 PUSH1 0x40 SHR AND PUSH3 0xC2 JUMPI POP PUSH1 0x1 PUSH1 0x1 PUSH1 0x40 SHL SUB PUSH1 0x2 PUSH1 0x1 PUSH1 0x40 SHL SUB NOT DUP3 DUP3 AND ADD PUSH3 0x7C JUMPI JUMPDEST PUSH1 0x40 MLOAD PUSH2 0x5FD1 SWAP1 DUP2 PUSH3 0xD7 DUP3 CODECOPY PUSH1 0x80 MLOAD DUP2 DUP2 DUP2 PUSH2 0x2689 ADD MSTORE PUSH2 0x2A68 ADD MSTORE RETURN JUMPDEST PUSH1 0x1 PUSH1 0x1 PUSH1 0x40 SHL SUB NOT SWAP1 SWAP2 AND DUP2 OR SWAP1 SWAP2 SSTORE PUSH1 0x40 MLOAD SWAP1 DUP2 MSTORE PUSH32 0xC7F505B2F371AE2175EE4913F4499E1F2633A7B5936321EED1CDAEB6115181D2 SWAP1 PUSH1 0x20 SWAP1 LOG1 CODESIZE DUP1 DUP1 PUSH3 0x5C JUMP JUMPDEST PUSH4 0xF92EE8A9 PUSH1 0xE0 SHL DUP2 MSTORE PUSH1 0x4 SWAP1 REVERT JUMPDEST PUSH1 0x0 DUP1 REVERT INVALID PUSH1 0x80 PUSH1 0x40 MSTORE PUSH1 0x4 CALLDATASIZE LT ISZERO PUSH2 0x12 JUMPI PUSH1 0x0 DUP1 REVERT JUMPDEST PUSH1 0x0 DUP1 CALLDATALOAD PUSH1 0xE0 SHR DUP1 PUSH4 0x1D62EFB EQ PUSH2 0x3C75 JUMPI DUP1 PUSH4 0x4EF9D58 EQ PUSH2 0x3C57 JUMPI DUP1 PUSH4 0x4F618CB EQ PUSH2 0x3AFC JUMPI DUP1 PUSH4 0x5AD3935 EQ PUSH2 0x3AA1 JUMPI DUP1 PUSH4 0xA5C4567 EQ PUSH2 0x3843 JUMPI DUP1 PUSH4 0xE2BE210 EQ PUSH2 0x3827 JUMPI DUP1 PUSH4 0x10FF994D EQ PUSH2 0x3320 JUMPI DUP1 PUSH4 0x1427F616 EQ PUSH2 0x3304 JUMPI DUP1 PUSH4 0x1788513C EQ PUSH2 0x32DB JUMPI DUP1 PUSH4 0x182C84CC EQ PUSH2 0x32B4 JUMPI DUP1 PUSH4 0x1959A002 EQ PUSH2 0x3202 JUMPI DUP1 PUSH4 0x1D0DAC76 EQ PUSH2 0x31E4 JUMPI DUP1 PUSH4 0x21B77D63 EQ PUSH2 0x31C0 JUMPI DUP1 PUSH4 0x21F483D3 EQ PUSH2 0x3178 JUMPI DUP1 PUSH4 0x2630C12F EQ PUSH2 0x314B JUMPI DUP1 PUSH4 0x27C830A9 EQ PUSH2 0x3128 JUMPI DUP1 PUSH4 0x27F082F4 EQ PUSH2 0x310A JUMPI DUP1 PUSH4 0x372500AB EQ PUSH2 0x30E9 JUMPI DUP1 PUSH4 0x3DBD46BD EQ PUSH2 0x30B6 JUMPI DUP1 PUSH4 0x4626402B EQ PUSH2 0x308D JUMPI DUP1 PUSH4 0x488B5D97 EQ PUSH2 0x3071 JUMPI DUP1 PUSH4 0x4A4E3BD5 EQ PUSH2 0x3027 JUMPI DUP1 PUSH4 0x4EA4C6B3 EQ PUSH2 0x2C20 JUMPI DUP1 PUSH4 0x4F1EF286 EQ PUSH2 0x29ED JUMPI DUP1 PUSH4 0x51858E27 EQ PUSH2 0x29A0 JUMPI DUP1 PUSH4 0x52778B05 EQ PUSH2 0x26E1 JUMPI DUP1 PUSH4 0x52D1902D EQ PUSH2 0x2676 JUMPI DUP1 PUSH4 0x6031A52F EQ PUSH2 0x2658 JUMPI DUP1 PUSH4 0x66BB335E EQ PUSH2 0x24DF JUMPI DUP1 PUSH4 0x67DD74CA EQ PUSH2 0x1CAA JUMPI DUP1 PUSH4 0x6839B5FA EQ PUSH2 0x1C8D JUMPI DUP1 PUSH4 0x6DD66827 EQ PUSH2 0x1C6F JUMPI DUP1 PUSH4 0x715018A6 EQ PUSH2 0x1C16 JUMPI DUP1 PUSH4 0x75506C96 EQ PUSH2 0x1BF8 JUMPI DUP1 PUSH4 0x75F0A874 EQ PUSH2 0x1BCF JUMPI DUP1 PUSH4 0x77A2A540 EQ PUSH2 0x1BB1 JUMPI DUP1 PUSH4 0x813380CD EQ PUSH2 0x1B83 JUMPI DUP1 PUSH4 0x83672F3E EQ PUSH2 0x1A52 JUMPI DUP1 PUSH4 0x8710BCAA EQ PUSH2 0x19F1 JUMPI DUP1 PUSH4 0x88481B61 EQ PUSH2 0x19D5 JUMPI DUP1 PUSH4 0x88FD4D33 EQ PUSH2 0x19AC JUMPI DUP1 PUSH4 0x8A859A85 EQ PUSH2 0x1990 JUMPI DUP1 PUSH4 0x8C0EAA48 EQ PUSH2 0x1974 JUMPI DUP1 PUSH4 0x8DA5CB5B EQ PUSH2 0x193E JUMPI DUP1 PUSH4 0x90B0EB51 EQ PUSH2 0x18EE JUMPI DUP1 PUSH4 0x9370B080 EQ PUSH2 0x18D0 JUMPI DUP1 PUSH4 0x95253992 EQ PUSH2 0x18A9 JUMPI DUP1 PUSH4 0x99B6024D EQ PUSH2 0x17E3 JUMPI DUP1 PUSH4 0x9CD441DA EQ PUSH2 0x169F JUMPI DUP1 PUSH4 0x9D99ECA4 EQ PUSH2 0x1651 JUMPI DUP1 PUSH4 0xA2AF9226 EQ PUSH2 0x161E JUMPI DUP1 PUSH4 0xAC8F50AA EQ PUSH2 0x15C6 JUMPI DUP1 PUSH4 0xAD3CB1CC EQ PUSH2 0x1521 JUMPI DUP1 PUSH4 0xB048A4BB EQ PUSH2 0x14FE JUMPI DUP1 PUSH4 0xB5D5B5FA EQ PUSH2 0x1470 JUMPI DUP1 PUSH4 0xB759936B EQ PUSH2 0x1452 JUMPI DUP1 PUSH4 0xBD594DCF EQ PUSH2 0x1434 JUMPI DUP1 PUSH4 0xBE040FB0 EQ PUSH2 0xCD2 JUMPI DUP1 PUSH4 0xC2FF12FC EQ PUSH2 0xC9F JUMPI DUP1 PUSH4 0xCC2A9A5B EQ PUSH2 0xA8C JUMPI DUP1 PUSH4 0xCCF61944 EQ PUSH2 0xA6E JUMPI DUP1 PUSH4 0xCEA9D26F EQ PUSH2 0x904 JUMPI DUP1 PUSH4 0xCEAA366D EQ PUSH2 0x8E6 JUMPI DUP1 PUSH4 0xD0F16470 EQ PUSH2 0x85C JUMPI DUP1 PUSH4 0xD2C8E0E5 EQ PUSH2 0x7AD JUMPI DUP1 PUSH4 0xD2F82536 EQ PUSH2 0x787 JUMPI DUP1 PUSH4 0xD4F00142 EQ PUSH2 0x600 JUMPI DUP1 PUSH4 0xD7EDBC0C EQ PUSH2 0x474 JUMPI DUP1 PUSH4 0xD8020A18 EQ PUSH2 0x456 JUMPI DUP1 PUSH4 0xDEAB8AEA EQ PUSH2 0x42D JUMPI DUP1 PUSH4 0xDEC7FA3B EQ PUSH2 0x40F JUMPI DUP1 PUSH4 0xE3067449 EQ PUSH2 0x3F1 JUMPI DUP1 PUSH4 0xE4412F68 EQ PUSH2 0x3D3 JUMPI DUP1 PUSH4 0xECE71266 EQ PUSH2 0x385 JUMPI PUSH4 0xF2FDE38B EQ PUSH2 0x356 JUMPI PUSH1 0x0 DUP1 REVERT JUMPDEST CALLVALUE PUSH2 0x382 JUMPI PUSH1 0x20 CALLDATASIZE PUSH1 0x3 NOT ADD SLT PUSH2 0x382 JUMPI PUSH2 0x37F PUSH2 0x372 PUSH2 0x3D2A JUMP JUMPDEST PUSH2 0x37A PUSH2 0x49F4 JUMP JUMPDEST PUSH2 0x4992 JUMP JUMPDEST DUP1 RETURN JUMPDEST DUP1 REVERT JUMPDEST POP CALLVALUE PUSH2 0x382 JUMPI PUSH1 0x20 CALLDATASIZE PUSH1 0x3 NOT ADD SLT PUSH2 0x382 JUMPI PUSH32 0xC7F6975DCFFC536E6E57DD1D1DEA810FFF534A70563BAF2D6F977B119BD00E1B PUSH1 0x20 PUSH1 0x4 CALLDATALOAD PUSH2 0x3C5 PUSH2 0x49F4 JUMP JUMPDEST DUP1 PUSH1 0xC SSTORE PUSH1 0x40 MLOAD SWAP1 DUP2 MSTORE LOG1 DUP1 RETURN JUMPDEST POP CALLVALUE PUSH2 0x382 JUMPI DUP1 PUSH1 0x3 NOT CALLDATASIZE ADD SLT PUSH2 0x382 JUMPI PUSH1 0x20 PUSH1 0x9 SLOAD PUSH1 0x40 MLOAD SWAP1 DUP2 MSTORE RETURN JUMPDEST POP CALLVALUE PUSH2 0x382 JUMPI DUP1 PUSH1 0x3 NOT CALLDATASIZE ADD SLT PUSH2 0x382 JUMPI PUSH1 0x20 PUSH1 0x1B SLOAD PUSH1 0x40 MLOAD SWAP1 DUP2 MSTORE RETURN JUMPDEST POP CALLVALUE PUSH2 0x382 JUMPI DUP1 PUSH1 0x3 NOT CALLDATASIZE ADD SLT PUSH2 0x382 JUMPI PUSH1 0x20 PUSH1 0xC SLOAD PUSH1 0x40 MLOAD SWAP1 DUP2 MSTORE RETURN JUMPDEST POP CALLVALUE PUSH2 0x382 JUMPI DUP1 PUSH1 0x3 NOT CALLDATASIZE ADD SLT PUSH2 0x382 JUMPI PUSH1 0x5 SLOAD PUSH1 0x40 MLOAD PUSH1 0x1 PUSH1 0x1 PUSH1 0xA0 SHL SUB SWAP1 SWAP2 AND DUP2 MSTORE PUSH1 0x20 SWAP1 RETURN JUMPDEST POP CALLVALUE PUSH2 0x382 JUMPI DUP1 PUSH1 0x3 NOT CALLDATASIZE ADD SLT PUSH2 0x382 JUMPI PUSH1 0x20 PUSH1 0x8 SLOAD PUSH1 0x40 MLOAD SWAP1 DUP2 MSTORE RETURN JUMPDEST POP CALLVALUE PUSH2 0x382 JUMPI PUSH1 0x60 CALLDATASIZE PUSH1 0x3 NOT ADD SLT PUSH2 0x382 JUMPI PUSH1 0x1 PUSH1 0x1 PUSH1 0x40 SHL SUB SWAP1 PUSH1 0x4 CALLDATALOAD DUP3 DUP2 GT PUSH2 0x5FC JUMPI PUSH2 0x4A7 SWAP1 CALLDATASIZE SWAP1 PUSH1 0x4 ADD PUSH2 0x3E80 JUMP JUMPDEST SWAP1 SWAP3 PUSH1 0x24 CALLDATALOAD DUP2 DUP2 GT PUSH2 0x5F8 JUMPI PUSH2 0x4C1 SWAP1 CALLDATASIZE SWAP1 PUSH1 0x4 ADD PUSH2 0x3E80 JUMP JUMPDEST SWAP1 SWAP2 PUSH1 0x44 CALLDATALOAD SWAP1 DUP2 GT PUSH2 0x5F4 JUMPI PUSH2 0x4DB SWAP1 CALLDATASIZE SWAP1 PUSH1 0x4 ADD PUSH2 0x3E80 JUMP JUMPDEST SWAP1 SWAP3 PUSH2 0x4E5 PUSH2 0x49F4 JUMP JUMPDEST DUP3 DUP6 EQ DUP1 ISZERO SWAP1 PUSH2 0x5EA JUMPI JUMPDEST PUSH2 0x5D8 JUMPI DUP6 JUMPDEST DUP6 DUP2 LT PUSH2 0x52C JUMPI DUP7 PUSH32 0x9C03D1F6BA485B6CF0A120117D651729467751D3079318D05171B6F389F6BF4B PUSH1 0x20 DUP9 PUSH1 0x40 MLOAD SWAP1 DUP2 MSTORE LOG1 DUP1 RETURN JUMPDEST DUP1 DUP8 PUSH1 0x0 DUP1 MLOAD PUSH1 0x20 PUSH2 0x5E5C DUP4 CODECOPY DUP2 MLOAD SWAP2 MSTORE PUSH1 0x40 DUP9 DUP2 PUSH2 0x5B9 PUSH2 0x57B DUP16 SWAP9 DUP15 PUSH1 0x1 SWAP11 DUP10 DUP16 DUP16 DUP16 SWAP1 PUSH2 0x561 DUP8 PUSH2 0x597 SWAP5 DUP2 SWAP5 PUSH2 0x496E JUMP JUMPDEST PUSH1 0x1 PUSH1 0x1 PUSH1 0xA0 SHL SUB SWAP12 SWAP1 CALLDATALOAD DUP13 PUSH2 0x580 PUSH2 0x57B DUP7 DUP12 DUP12 PUSH2 0x496E JUMP JUMPDEST PUSH2 0x497E JUMP JUMPDEST AND DUP7 MSTORE PUSH1 0x2 PUSH1 0xF SWAP13 DUP14 SWAP8 PUSH1 0x20 SWAP15 DUP16 MSTORE KECCAK256 ADD SSTORE PUSH2 0x496E JUMP JUMPDEST CALLDATALOAD SWAP1 DUP9 PUSH2 0x5A8 PUSH2 0x57B DUP8 DUP8 DUP8 PUSH2 0x496E JUMP JUMPDEST AND DUP13 MSTORE DUP8 MSTORE PUSH1 0x7 DUP10 DUP13 KECCAK256 ADD SSTORE PUSH2 0x496E JUMP JUMPDEST SWAP1 PUSH2 0x5C5 DUP8 DUP13 DUP12 PUSH2 0x496E JUMP JUMPDEST CALLDATALOAD SWAP1 DUP5 MLOAD SWAP7 DUP8 MSTORE DUP7 ADD MSTORE AND SWAP3 LOG2 ADD PUSH2 0x4F6 JUMP JUMPDEST PUSH1 0x40 MLOAD PUSH4 0x980A3F31 PUSH1 0xE0 SHL DUP2 MSTORE PUSH1 0x4 SWAP1 REVERT JUMPDEST POP DUP2 DUP6 EQ ISZERO PUSH2 0x4F0 JUMP JUMPDEST DUP5 DUP1 REVERT JUMPDEST DUP4 DUP1 REVERT JUMPDEST POP DUP1 REVERT JUMPDEST POP CALLVALUE PUSH2 0x382 JUMPI PUSH1 0x80 CALLDATASIZE PUSH1 0x3 NOT ADD SLT PUSH2 0x382 JUMPI PUSH2 0x61A PUSH2 0x3D2A JUMP JUMPDEST PUSH1 0x24 CALLDATALOAD SWAP1 PUSH2 0x626 PUSH2 0x3D56 JUMP JUMPDEST DUP3 PUSH1 0x64 CALLDATALOAD SWAP3 PUSH2 0x633 PUSH2 0x49F4 JUMP JUMPDEST DUP2 PUSH2 0x709 JUMPI JUMPDEST POP POP DUP2 PUSH2 0x663 JUMPI JUMPDEST POP PUSH1 0x0 DUP1 MLOAD PUSH1 0x20 PUSH2 0x5EBC DUP4 CODECOPY DUP2 MLOAD SWAP2 MSTORE SWAP2 PUSH1 0x40 SWAP2 DUP3 MLOAD SWAP2 DUP3 MSTORE PUSH1 0x20 DUP3 ADD MSTORE LOG1 DUP1 RETURN JUMPDEST SWAP2 PUSH1 0x20 DUP3 PUSH2 0x6A3 SWAP5 PUSH2 0x677 DUP3 PUSH1 0x18 SLOAD PUSH2 0x3FC4 JUMP JUMPDEST PUSH1 0x18 SSTORE PUSH1 0x1 DUP1 PUSH1 0xA0 SHL SUB PUSH1 0x1 SLOAD AND SWAP1 DUP8 PUSH1 0x40 MLOAD DUP1 SWAP9 DUP2 SWAP6 DUP3 SWAP5 PUSH4 0xA9059CBB PUSH1 0xE0 SHL DUP5 MSTORE PUSH1 0x4 DUP5 ADD PUSH2 0x3E49 JUMP JUMPDEST SUB SWAP3 GAS CALL SWAP2 DUP3 ISZERO PUSH2 0x6FE JUMPI PUSH1 0x0 DUP1 MLOAD PUSH1 0x20 PUSH2 0x5EBC DUP4 CODECOPY DUP2 MLOAD SWAP2 MSTORE SWAP4 PUSH1 0x40 SWAP4 PUSH2 0x6CF JUMPI JUMPDEST POP SWAP2 POP SWAP2 PUSH2 0x641 JUMP JUMPDEST PUSH2 0x6F0 SWAP1 PUSH1 0x20 RETURNDATASIZE PUSH1 0x20 GT PUSH2 0x6F7 JUMPI JUMPDEST PUSH2 0x6E8 DUP2 DUP4 PUSH2 0x3DEF JUMP JUMPDEST DUP2 ADD SWAP1 PUSH2 0x3F34 JUMP JUMPDEST POP CODESIZE PUSH2 0x6C6 JUMP JUMPDEST POP RETURNDATASIZE PUSH2 0x6DE JUMP JUMPDEST PUSH1 0x40 MLOAD RETURNDATASIZE DUP7 DUP3 RETURNDATACOPY RETURNDATASIZE SWAP1 REVERT JUMPDEST DUP2 PUSH1 0x20 SWAP2 PUSH2 0x71C PUSH2 0x747 SWAP5 PUSH1 0x17 SLOAD PUSH2 0x3FC4 JUMP JUMPDEST PUSH1 0x17 SSTORE PUSH1 0x1 DUP1 PUSH1 0xA0 SHL SUB DUP9 SLOAD AND SWAP1 DUP9 PUSH1 0x40 MLOAD DUP1 SWAP7 DUP2 SWAP6 DUP3 SWAP5 PUSH4 0xA9059CBB PUSH1 0xE0 SHL DUP5 MSTORE PUSH1 0x4 DUP5 ADD PUSH2 0x3E49 JUMP JUMPDEST SUB SWAP3 GAS CALL DUP1 ISZERO PUSH2 0x77C JUMPI PUSH2 0x75D JUMPI JUMPDEST DUP4 SWAP1 PUSH2 0x639 JUMP JUMPDEST PUSH2 0x775 SWAP1 PUSH1 0x20 RETURNDATASIZE PUSH1 0x20 GT PUSH2 0x6F7 JUMPI PUSH2 0x6E8 DUP2 DUP4 PUSH2 0x3DEF JUMP JUMPDEST POP CODESIZE PUSH2 0x756 JUMP JUMPDEST PUSH1 0x40 MLOAD RETURNDATASIZE DUP8 DUP3 RETURNDATACOPY RETURNDATASIZE SWAP1 REVERT JUMPDEST POP CALLVALUE PUSH2 0x382 JUMPI DUP1 PUSH1 0x3 NOT CALLDATASIZE ADD SLT PUSH2 0x382 JUMPI PUSH1 0x20 PUSH1 0xFF PUSH1 0x16 SLOAD PUSH1 0x8 SHR AND PUSH1 0x40 MLOAD SWAP1 ISZERO ISZERO DUP2 MSTORE RETURN JUMPDEST POP CALLVALUE PUSH2 0x382 JUMPI PUSH1 0x20 SWAP1 DUP2 PUSH1 0x3 NOT CALLDATASIZE ADD SLT PUSH2 0x382 JUMPI PUSH1 0x1 PUSH1 0x1 PUSH1 0xA0 SHL SUB SWAP2 SWAP1 DUP3 PUSH2 0x7D4 PUSH2 0x3D2A JUMP JUMPDEST AND DUP2 MSTORE PUSH1 0x12 DUP3 MSTORE PUSH1 0x40 DUP2 KECCAK256 SWAP1 PUSH1 0x40 MLOAD DUP1 DUP5 DUP5 SLOAD SWAP2 DUP3 DUP2 MSTORE ADD SWAP1 DUP2 SWAP5 DUP5 MSTORE DUP6 DUP5 KECCAK256 SWAP1 DUP5 JUMPDEST DUP2 DUP2 LT PUSH2 0x846 JUMPI POP POP POP DUP2 PUSH2 0x80D SWAP2 SUB DUP3 PUSH2 0x3DEF JUMP JUMPDEST PUSH1 0x40 MLOAD SWAP4 DUP1 DUP6 ADD SWAP2 DUP2 DUP7 MSTORE MLOAD DUP1 SWAP3 MSTORE PUSH1 0x40 DUP6 ADD SWAP4 SWAP3 JUMPDEST DUP3 DUP2 LT PUSH2 0x830 JUMPI DUP6 DUP6 SUB DUP7 RETURN JUMPDEST DUP4 MLOAD DUP8 AND DUP6 MSTORE SWAP4 DUP2 ADD SWAP4 SWAP3 DUP2 ADD SWAP3 PUSH1 0x1 ADD PUSH2 0x823 JUMP JUMPDEST DUP3 SLOAD DUP10 AND DUP5 MSTORE SWAP3 DUP8 ADD SWAP3 PUSH1 0x1 SWAP3 DUP4 ADD SWAP3 ADD PUSH2 0x7F7 JUMP JUMPDEST POP CALLVALUE PUSH2 0x382 JUMPI PUSH1 0xC0 CALLDATASIZE PUSH1 0x3 NOT ADD SLT PUSH2 0x382 JUMPI PUSH32 0x66682B276E4CD1A4E1F68B55B1143766C5332F472EB593CF2A70A25D9D5D9917 PUSH1 0xC0 PUSH1 0x4 CALLDATALOAD PUSH1 0xA4 CALLDATALOAD PUSH1 0x84 CALLDATALOAD PUSH1 0x64 CALLDATALOAD PUSH1 0x44 CALLDATALOAD PUSH1 0x24 CALLDATALOAD PUSH2 0x8AB PUSH2 0x49F4 JUMP JUMPDEST DUP6 PUSH1 0x6 SSTORE DUP1 PUSH1 0x7 SSTORE DUP2 PUSH1 0x8 SSTORE DUP3 PUSH1 0x9 SSTORE DUP4 PUSH1 0xA SSTORE DUP5 PUSH1 0xB SSTORE PUSH1 0x40 MLOAD SWAP6 DUP7 MSTORE PUSH1 0x20 DUP7 ADD MSTORE PUSH1 0x40 DUP6 ADD MSTORE PUSH1 0x60 DUP5 ADD MSTORE PUSH1 0x80 DUP4 ADD MSTORE PUSH1 0xA0 DUP3 ADD MSTORE LOG1 DUP1 RETURN JUMPDEST POP CALLVALUE PUSH2 0x382 JUMPI DUP1 PUSH1 0x3 NOT CALLDATASIZE ADD SLT PUSH2 0x382 JUMPI PUSH1 0x20 PUSH1 0xA SLOAD PUSH1 0x40 MLOAD SWAP1 DUP2 MSTORE RETURN JUMPDEST POP CALLVALUE PUSH2 0x382 JUMPI PUSH1 0x60 CALLDATASIZE PUSH1 0x3 NOT ADD SLT PUSH2 0x382 JUMPI PUSH2 0x91E PUSH2 0x3D2A JUMP JUMPDEST PUSH2 0x926 PUSH2 0x3D40 JUMP JUMPDEST PUSH1 0x44 CALLDATALOAD SWAP2 PUSH2 0x932 PUSH2 0x49F4 JUMP JUMPDEST DUP4 SLOAD PUSH1 0x1 PUSH1 0x1 PUSH1 0xA0 SHL SUB DUP3 DUP2 AND SWAP5 SWAP2 DUP2 AND DUP6 EQ ISZERO DUP1 PUSH2 0xA60 JUMPI JUMPDEST ISZERO PUSH2 0xA1B JUMPI DUP4 AND ISZERO PUSH2 0x9E2 JUMPI PUSH1 0x20 PUSH1 0x40 MLOAD DUP1 SWAP6 PUSH4 0xA9059CBB PUSH1 0xE0 SHL DUP3 MSTORE DUP2 DUP9 DUP2 PUSH2 0x97A DUP8 DUP11 PUSH1 0x4 DUP5 ADD PUSH2 0x3E49 JUMP JUMPDEST SUB SWAP3 GAS CALL SWAP1 DUP2 ISZERO PUSH2 0x77C JUMPI PUSH32 0x77023E19C7343AD491FD706C36335CA0E738340A91F29B1FD81E2673D44896C4 SWAP5 PUSH2 0x9BD SWAP3 PUSH2 0x9C3 JUMPI JUMPDEST POP PUSH1 0x40 MLOAD SWAP4 DUP5 SWAP4 DUP5 PUSH2 0x3F4C JUMP JUMPDEST SUB SWAP1 LOG1 DUP1 RETURN JUMPDEST PUSH2 0x9DB SWAP1 PUSH1 0x20 RETURNDATASIZE PUSH1 0x20 GT PUSH2 0x6F7 JUMPI PUSH2 0x6E8 DUP2 DUP4 PUSH2 0x3DEF JUMP JUMPDEST POP CODESIZE PUSH2 0x9B0 JUMP JUMPDEST PUSH1 0x40 MLOAD PUSH3 0x461BCD PUSH1 0xE5 SHL DUP2 MSTORE PUSH1 0x20 PUSH1 0x4 DUP3 ADD MSTORE PUSH1 0x11 PUSH1 0x24 DUP3 ADD MSTORE PUSH17 0x125B9D985B1A59081C9958DA5C1A595B9D PUSH1 0x7A SHL PUSH1 0x44 DUP3 ADD MSTORE PUSH1 0x64 SWAP1 REVERT JUMPDEST PUSH1 0x40 MLOAD PUSH3 0x461BCD PUSH1 0xE5 SHL DUP2 MSTORE PUSH1 0x20 PUSH1 0x4 DUP3 ADD MSTORE PUSH1 0x1D PUSH1 0x24 DUP3 ADD MSTORE PUSH32 0x43616E6E6F74207265736375652070726F746F636F6C20746F6B656E73000000 PUSH1 0x44 DUP3 ADD MSTORE PUSH1 0x64 SWAP1 REVERT JUMPDEST POP DUP1 PUSH1 0x1 SLOAD AND DUP6 EQ ISZERO PUSH2 0x94C JUMP JUMPDEST POP CALLVALUE PUSH2 0x382 JUMPI DUP1 PUSH1 0x3 NOT CALLDATASIZE ADD SLT PUSH2 0x382 JUMPI PUSH1 0x20 PUSH1 0x6 SLOAD PUSH1 0x40 MLOAD SWAP1 DUP2 MSTORE RETURN JUMPDEST POP CALLVALUE PUSH2 0x382 JUMPI PUSH1 0xC0 CALLDATASIZE PUSH1 0x3 NOT ADD SLT PUSH2 0x382 JUMPI PUSH2 0xAA6 PUSH2 0x3D2A JUMP JUMPDEST PUSH2 0xAAE PUSH2 0x3D40 JUMP JUMPDEST PUSH2 0xAB6 PUSH2 0x3D56 JUMP JUMPDEST PUSH2 0xABE PUSH2 0x3D6C JUMP JUMPDEST SWAP2 PUSH1 0x1 PUSH1 0x1 PUSH1 0xA0 SHL SUB PUSH1 0x84 CALLDATALOAD DUP2 DUP2 AND SWAP1 DUP2 SWAP1 SUB PUSH2 0xC9A JUMPI PUSH1 0xA4 CALLDATALOAD SWAP3 DUP3 DUP5 AND DUP1 SWAP5 SUB PUSH2 0xC9A JUMPI PUSH1 0x0 DUP1 MLOAD PUSH1 0x20 PUSH2 0x5F7C DUP4 CODECOPY DUP2 MLOAD SWAP2 MSTORE SWAP6 DUP7 SLOAD PUSH1 0xFF DUP2 PUSH1 0x40 SHR AND ISZERO SWAP7 PUSH1 0x1 DUP1 PUSH1 0x40 SHL SUB DUP3 AND SWAP10 DUP11 ISZERO DUP1 PUSH2 0xC93 JUMPI JUMPDEST PUSH1 0x1 DUP1 SWAP13 EQ SWAP1 DUP2 PUSH2 0xC89 JUMPI JUMPDEST ISZERO SWAP1 DUP2 PUSH2 0xC80 JUMPI JUMPDEST POP PUSH2 0xC6E JUMPI PUSH1 0x1 PUSH1 0x1 PUSH1 0x40 SHL SUB NOT DUP4 AND DUP12 OR DUP11 SSTORE DUP7 SWAP5 DUP6 SWAP4 DUP5 SWAP3 DUP15 SWAP2 DUP13 PUSH2 0xC53 JUMPI JUMPDEST POP PUSH2 0xB4F PUSH2 0x5D49 JUMP JUMPDEST PUSH2 0xB57 PUSH2 0x5D49 JUMP JUMPDEST PUSH2 0xB60 CALLER PUSH2 0x4992 JUMP JUMPDEST PUSH2 0xB68 PUSH2 0x5D49 JUMP JUMPDEST PUSH2 0xB70 PUSH2 0x5D49 JUMP JUMPDEST PUSH2 0xB78 PUSH2 0x5D49 JUMP JUMPDEST DUP14 PUSH1 0x0 DUP1 MLOAD PUSH1 0x20 PUSH2 0x5F3C DUP4 CODECOPY DUP2 MLOAD SWAP2 MSTORE SSTORE PUSH1 0x1 DUP1 PUSH1 0xA0 SHL SUB NOT SWAP10 DUP11 SWAP2 AND SWAP2 SLOAD AND OR DUP14 SSTORE AND DUP7 DUP12 SLOAD AND OR DUP11 SSTORE AND DUP5 PUSH1 0x2 SLOAD AND OR PUSH1 0x2 SSTORE AND DUP3 PUSH1 0x3 SLOAD AND OR PUSH1 0x3 SSTORE DUP2 PUSH1 0x4 SLOAD AND OR PUSH1 0x4 SSTORE PUSH1 0x5 SLOAD AND OR PUSH1 0x5 SSTORE PUSH1 0x19 PUSH1 0x6 SSTORE PUSH1 0xF PUSH1 0x7 SSTORE PUSH1 0x5 PUSH1 0x8 SSTORE PUSH1 0x5 PUSH1 0x9 SSTORE PUSH1 0x19 PUSH1 0xA SSTORE PUSH1 0x19 PUSH1 0xB SSTORE DUP3 PUSH1 0xC SSTORE PUSH1 0x32 PUSH1 0xD SSTORE PUSH1 0x19 PUSH1 0xE SSTORE PUSH3 0x3F480 PUSH1 0x15 SSTORE PUSH2 0x101 PUSH2 0xFFFF NOT PUSH1 0x16 SLOAD AND OR PUSH1 0x16 SSTORE TIMESTAMP PUSH1 0x1B SSTORE PUSH2 0xC16 JUMPI DUP3 DUP1 RETURN JUMPDEST DUP1 SLOAD PUSH1 0xFF PUSH1 0x40 SHL NOT AND SWAP1 SSTORE PUSH1 0x40 MLOAD SWAP1 DUP2 MSTORE PUSH32 0xC7F505B2F371AE2175EE4913F4499E1F2633A7B5936321EED1CDAEB6115181D2 SWAP1 PUSH1 0x20 SWAP1 LOG1 CODESIZE DUP1 DUP3 DUP1 RETURN JUMPDEST PUSH1 0x1 PUSH1 0x1 PUSH1 0x48 SHL SUB NOT AND PUSH1 0x1 PUSH1 0x1 PUSH1 0x40 SHL ADD OR DUP14 SSTORE CODESIZE PUSH2 0xB46 JUMP JUMPDEST PUSH1 0x40 MLOAD PUSH4 0xF92EE8A9 PUSH1 0xE0 SHL DUP2 MSTORE PUSH1 0x4 SWAP1 REVERT JUMPDEST SWAP1 POP ISZERO CODESIZE PUSH2 0xB24 JUMP JUMPDEST ADDRESS EXTCODESIZE ISZERO SWAP2 POP PUSH2 0xB1C JUMP JUMPDEST POP DUP9 PUSH2 0xB10 JUMP JUMPDEST PUSH1 0x0 DUP1 REVERT JUMPDEST POP CALLVALUE PUSH2 0x382 JUMPI PUSH1 0x20 CALLDATASIZE PUSH1 0x3 NOT ADD SLT PUSH2 0x382 JUMPI PUSH1 0x20 SWAP1 PUSH1 0x4 CALLDATALOAD DUP2 MSTORE PUSH1 0x1C DUP3 MSTORE PUSH1 0x40 PUSH1 0x1 DUP1 PUSH1 0xA0 SHL SUB SWAP2 KECCAK256 SLOAD AND PUSH1 0x40 MLOAD SWAP1 DUP2 MSTORE RETURN JUMPDEST POP CALLVALUE PUSH2 0x382 JUMPI DUP1 PUSH1 0x3 NOT CALLDATASIZE ADD SLT PUSH2 0x382 JUMPI PUSH2 0xCEB PUSH2 0x4A2D JUMP JUMPDEST PUSH1 0xFF PUSH2 0xCFE PUSH1 0xFF PUSH1 0x16 SLOAD PUSH1 0x8 SHR AND PUSH2 0x3FD1 JUMP JUMPDEST CALLER DUP3 MSTORE PUSH1 0x11 SWAP2 PUSH1 0x20 PUSH1 0x11 DUP2 MSTORE PUSH1 0x40 DUP3 KECCAK256 SWAP4 DUP3 DUP4 SWAP1 DUP5 SWAP3 DUP6 JUMPDEST DUP9 SLOAD DUP2 LT ISZERO PUSH2 0xF8C JUMPI DUP8 PUSH1 0x4 PUSH2 0xD2C DUP4 DUP13 PUSH2 0x3E64 JUMP JUMPDEST POP ADD SLOAD AND ISZERO PUSH2 0xF84 JUMPI PUSH1 0x2 PUSH2 0xD41 DUP3 DUP12 PUSH2 0x3E64 JUMP JUMPDEST POP ADD SLOAD PUSH2 0xD4E DUP3 DUP12 PUSH2 0x3E64 JUMP JUMPDEST POP SWAP1 PUSH1 0x3 DUP1 SWAP3 ADD SLOAD SWAP1 PUSH1 0x3C SWAP2 DUP3 DUP2 MUL SWAP3 DUP2 DUP5 DIV EQ SWAP1 ISZERO OR ISZERO PUSH2 0xF70 JUMPI DUP12 SWAP3 SWAP2 PUSH2 0xD76 SWAP2 PUSH2 0x3F97 JUMP JUMPDEST TIMESTAMP LT ISZERO PUSH2 0xD8A JUMPI JUMPDEST POP POP PUSH1 0x1 SWAP1 JUMPDEST ADD PUSH2 0xD16 JUMP JUMPDEST SWAP1 SWAP6 DUP9 SWAP6 SWAP3 SWAP5 SWAP6 PUSH1 0x7 DUP4 PUSH2 0xD9E DUP9 DUP12 PUSH2 0x3E64 JUMP JUMPDEST POP ADD SLOAD SUB PUSH2 0xF17 JUMPI POP PUSH4 0x3B9ACA00 PUSH2 0xDE3 PUSH3 0xCB7356 SWAP4 JUMPDEST PUSH2 0xDCF PUSH2 0xDC2 DUP10 DUP13 PUSH2 0x3E64 JUMP JUMPDEST POP SWAP6 PUSH1 0x1 DUP1 SWAP8 ADD SLOAD PUSH2 0x3F6E JUMP JUMPDEST SWAP1 PUSH2 0xDDA DUP10 DUP13 PUSH2 0x3E64 JUMP JUMPDEST POP ADD SLOAD SWAP1 PUSH2 0x3F6E JUMP JUMPDEST DIV SWAP1 DUP10 SWAP2 PUSH2 0xDF1 DUP8 DUP11 PUSH2 0x3E64 JUMP JUMPDEST POP DUP8 PUSH1 0x5 SWAP11 DUP12 DUP1 SWAP4 ADD SLOAD DUP5 GT PUSH2 0xEEF JUMPI JUMPDEST POP POP POP POP DUP2 PUSH2 0xE10 SWAP2 PUSH2 0x3F97 JUMP JUMPDEST SWAP7 PUSH2 0xE1B DUP7 DUP14 PUSH2 0x3E64 JUMP JUMPDEST POP ADD SWAP1 DUP2 SLOAD SWAP1 PUSH2 0xE2A SWAP2 PUSH2 0x3F97 JUMP JUMPDEST SWAP1 SSTORE CALLER DUP9 MSTORE PUSH1 0xF DUP8 MSTORE PUSH1 0x40 DUP9 KECCAK256 PUSH1 0x9 ADD SLOAD SWAP2 DUP11 DUP3 DUP11 DUP8 DUP12 DUP8 ISZERO PUSH1 0x1 SWAP9 PUSH2 0xE92 SWAP9 PUSH2 0xE6D SWAP6 PUSH1 0x64 SWAP5 PUSH2 0xE66 SWAP5 PUSH2 0xED9 JUMPI JUMPDEST POP POP POP PUSH1 0xC SLOAD SWAP1 PUSH2 0x3F6E JUMP JUMPDEST DIV SWAP4 PUSH2 0x3E64 JUMP JUMPDEST POP ADD SLOAD DUP2 DUP2 GT ISZERO PUSH2 0xEC6 JUMPI SWAP1 PUSH2 0xE86 DUP2 PUSH2 0xE8C SWAP4 PUSH2 0x3FC4 JUMP JUMPDEST SWAP3 PUSH2 0x3F97 JUMP JUMPDEST SWAP6 PUSH2 0x3F97 JUMP JUMPDEST SWAP3 PUSH1 0x4 PUSH2 0xE9F DUP3 DUP13 PUSH2 0x3E64 JUMP JUMPDEST POP ADD DUP1 SLOAD PUSH1 0xFF NOT AND SWAP1 SSTORE PUSH2 0xEBD PUSH2 0xEB6 DUP3 DUP13 PUSH2 0x3E64 JUMP JUMPDEST POP SLOAD PUSH2 0x4DBC JUMP JUMPDEST SWAP1 POP DUP9 CODESIZE PUSH2 0xD7E JUMP JUMPDEST SWAP1 POP PUSH2 0xED1 SWAP2 PUSH2 0x3F97 JUMP JUMPDEST SWAP5 DUP9 SWAP1 PUSH2 0x3F97 JUMP JUMPDEST PUSH1 0x40 SWAP3 SWAP4 POP PUSH1 0x10 SWAP1 MSTORE KECCAK256 ADD SLOAD DUP16 DUP16 SWAP1 DUP8 SWAP2 PUSH2 0xE5A JUMP JUMPDEST PUSH2 0xE10 SWAP5 SWAP6 POP PUSH2 0xF0D SWAP4 SWAP3 SWAP2 PUSH2 0xF04 SWAP2 PUSH2 0x3E64 JUMP JUMPDEST POP ADD SLOAD SWAP1 PUSH2 0x3FC4 JUMP JUMPDEST SWAP2 SWAP1 DUP9 DUP8 DUP15 PUSH2 0xE02 JUMP JUMPDEST PUSH1 0xF DUP4 PUSH2 0xF24 DUP9 DUP12 PUSH2 0x3E64 JUMP JUMPDEST POP ADD SLOAD SUB PUSH2 0xF3F JUMPI POP PUSH4 0x3B9ACA00 PUSH2 0xDE3 PUSH3 0xFE502B SWAP4 PUSH2 0xDB5 JUMP JUMPDEST SWAP2 PUSH1 0x1E DUP2 PUSH2 0xF4D DUP9 DUP12 PUSH2 0x3E64 JUMP JUMPDEST POP ADD SLOAD EQ PUSH2 0xF64 JUMPI JUMPDEST PUSH2 0xDE3 PUSH4 0x3B9ACA00 SWAP2 PUSH2 0xDB5 JUMP JUMPDEST PUSH4 0x1312D00 SWAP3 POP PUSH2 0xF56 JUMP JUMPDEST PUSH4 0x4E487B71 PUSH1 0xE0 SHL DUP11 MSTORE PUSH1 0x4 DUP6 SWAP1 MSTORE PUSH1 0x24 DUP11 REVERT JUMPDEST PUSH1 0x1 SWAP1 PUSH2 0xD84 JUMP JUMPDEST POP POP SWAP1 SWAP3 SWAP2 DUP2 ISZERO SWAP1 DUP2 ISZERO DUP1 SWAP3 PUSH2 0x142B JUMPI JUMPDEST ISZERO PUSH2 0x13F2 JUMPI DUP5 PUSH2 0x13DE JUMPI JUMPDEST DUP1 PUSH2 0x1081 JUMPI JUMPDEST POP PUSH2 0x101A JUMPI JUMPDEST PUSH1 0xF SWAP3 PUSH1 0x40 MLOAD SWAP2 DUP3 MSTORE DUP3 DUP3 ADD MSTORE PUSH1 0x0 DUP1 MLOAD PUSH1 0x20 PUSH2 0x5F5C DUP4 CODECOPY DUP2 MLOAD SWAP2 MSTORE PUSH1 0x40 CALLER SWAP3 LOG2 PUSH2 0xFDE CALLER PUSH2 0x4F50 JUMP JUMPDEST CALLER DUP4 MSTORE MSTORE PUSH1 0x40 DUP2 KECCAK256 PUSH1 0x4 PUSH1 0x3 DUP3 ADD SLOAD SWAP2 ADD SLOAD GT ISZERO PUSH2 0x100C JUMPI JUMPDEST PUSH1 0x1 PUSH1 0x0 DUP1 MLOAD PUSH1 0x20 PUSH2 0x5F3C DUP4 CODECOPY DUP2 MLOAD SWAP2 MSTORE SSTORE DUP1 RETURN JUMPDEST PUSH2 0x1015 CALLER PUSH2 0x5001 JUMP JUMPDEST PUSH2 0xFF7 JUMP JUMPDEST DUP4 SLOAD PUSH1 0x40 MLOAD PUSH4 0xA9059CBB PUSH1 0xE0 SHL DUP2 MSTORE SWAP4 SWAP1 DUP4 SWAP1 DUP6 SWAP1 PUSH1 0x1 PUSH1 0x1 PUSH1 0xA0 SHL SUB AND DUP2 DUP9 DUP2 PUSH2 0x1049 DUP9 CALLER PUSH1 0x4 DUP5 ADD PUSH2 0x3E49 JUMP JUMPDEST SUB SWAP3 GAS CALL SWAP4 DUP5 ISZERO PUSH2 0x77C JUMPI PUSH1 0xF SWAP5 PUSH2 0x1064 JUMPI JUMPDEST POP SWAP3 POP PUSH2 0xFB4 JUMP JUMPDEST PUSH2 0x107A SWAP1 DUP5 RETURNDATASIZE DUP7 GT PUSH2 0x6F7 JUMPI PUSH2 0x6E8 DUP2 DUP4 PUSH2 0x3DEF JUMP JUMPDEST POP DUP6 PUSH2 0x105C JUMP JUMPDEST CALLER DUP7 MSTORE PUSH1 0xF DUP5 MSTORE PUSH2 0x109F PUSH1 0x40 DUP8 KECCAK256 PUSH1 0x3 PUSH1 0x4 DUP3 ADD SLOAD SWAP2 ADD SLOAD SWAP1 PUSH2 0x3FC4 JUMP JUMPDEST DUP1 DUP3 GT PUSH2 0x13B8 JUMPI JUMPDEST POP DUP1 ISZERO PUSH2 0xFAE JUMPI CALLER DUP7 MSTORE PUSH1 0xF DUP5 MSTORE PUSH1 0x3 PUSH1 0x40 DUP8 KECCAK256 ADD PUSH2 0x10C7 DUP3 DUP3 SLOAD PUSH2 0x3F97 JUMP JUMPDEST SWAP1 SSTORE DUP6 SLOAD PUSH1 0x40 MLOAD PUSH4 0x70A08231 PUSH1 0xE0 SHL DUP1 DUP3 MSTORE ADDRESS PUSH1 0x4 DUP4 ADD MSTORE DUP9 SWAP4 SWAP1 SWAP3 PUSH1 0x1 PUSH1 0x1 PUSH1 0xA0 SHL SUB SWAP3 PUSH1 0x1 DUP4 SWAP1 SHR SWAP2 DUP5 AND SWAP1 DUP10 DUP2 PUSH1 0x24 DUP2 DUP6 GAS STATICCALL DUP1 ISZERO PUSH2 0x13AD JUMPI DUP4 SWAP2 DUP14 SWAP2 PUSH2 0x137C JUMPI JUMPDEST POP LT ISZERO DUP1 PUSH2 0x1373 JUMPI JUMPDEST PUSH2 0x130F JUMPI JUMPDEST POP PUSH1 0x18 SLOAD DUP1 ISZERO DUP1 ISZERO PUSH2 0x12FB JUMPI JUMPDEST ISZERO PUSH2 0x12BA JUMPI POP PUSH8 0xDE0B6B3A7640000 SWAP1 JUMPDEST PUSH8 0xDE0B6B3A7640000 SWAP1 DUP2 DUP2 MUL SWAP2 DUP2 DUP4 DIV EQ SWAP1 ISZERO OR ISZERO PUSH2 0x12A6 JUMPI SWAP1 PUSH2 0x115C SWAP2 PUSH2 0x3FA4 JUMP JUMPDEST DUP10 SWAP3 PUSH1 0x1 SLOAD AND SWAP4 PUSH1 0x40 MLOAD SWAP1 DUP2 MSTORE ADDRESS PUSH1 0x4 DUP3 ADD MSTORE DUP9 DUP2 PUSH1 0x24 DUP2 DUP9 GAS STATICCALL DUP1 ISZERO PUSH2 0x129B JUMPI DUP3 SWAP2 DUP13 SWAP2 PUSH2 0x126A JUMPI JUMPDEST POP LT ISZERO DUP1 PUSH2 0x1261 JUMPI JUMPDEST PUSH2 0x11ED JUMPI JUMPDEST POP PUSH1 0x0 DUP1 MLOAD PUSH1 0x20 PUSH2 0x5E1C DUP4 CODECOPY DUP2 MLOAD SWAP2 MSTORE SWAP3 POP PUSH1 0x40 MLOAD SWAP1 DUP2 MSTORE PUSH1 0x0 DUP8 DUP3 ADD MSTORE PUSH1 0x0 DUP1 MLOAD PUSH1 0x20 PUSH2 0x5F1C DUP4 CODECOPY DUP2 MLOAD SWAP2 MSTORE PUSH1 0x40 CALLER SWAP3 LOG2 CALLER DUP9 MSTORE PUSH1 0x10 DUP7 MSTORE PUSH1 0x40 DUP9 KECCAK256 SLOAD SWAP1 PUSH2 0x11E4 PUSH1 0x40 MLOAD SWAP3 DUP4 SWAP3 CALLER SWAP7 DUP5 PUSH2 0x4038 JUMP JUMPDEST SUB SWAP1 LOG2 DUP6 PUSH2 0xFAE JUMP JUMPDEST SWAP1 SWAP2 POP DUP7 PUSH1 0x40 MLOAD DUP1 SWAP5 PUSH4 0xA9059CBB PUSH1 0xE0 SHL DUP3 MSTORE DUP2 DUP13 DUP2 PUSH2 0x1211 DUP8 CALLER PUSH1 0x4 DUP5 ADD PUSH2 0x3E49 JUMP JUMPDEST SUB SWAP3 GAS CALL SWAP3 DUP4 ISZERO PUSH2 0x1256 JUMPI PUSH1 0x0 DUP1 MLOAD PUSH1 0x20 PUSH2 0x5E1C DUP4 CODECOPY DUP2 MLOAD SWAP2 MSTORE SWAP4 PUSH2 0x1239 JUMPI JUMPDEST POP SWAP1 DUP10 PUSH2 0x1194 JUMP JUMPDEST PUSH2 0x124F SWAP1 DUP9 RETURNDATASIZE DUP11 GT PUSH2 0x6F7 JUMPI PUSH2 0x6E8 DUP2 DUP4 PUSH2 0x3DEF JUMP JUMPDEST POP DUP10 PUSH2 0x1231 JUMP JUMPDEST PUSH1 0x40 MLOAD RETURNDATASIZE DUP12 DUP3 RETURNDATACOPY RETURNDATASIZE SWAP1 REVERT JUMPDEST POP DUP1 ISZERO ISZERO PUSH2 0x118F JUMP JUMPDEST DUP1 SWAP3 POP DUP11 DUP1 SWAP3 POP RETURNDATASIZE DUP4 GT PUSH2 0x1294 JUMPI JUMPDEST PUSH2 0x1283 DUP2 DUP4 PUSH2 0x3DEF JUMP JUMPDEST DUP2 ADD SUB SLT PUSH2 0xC9A JUMPI DUP2 SWAP1 MLOAD DUP13 PUSH2 0x1186 JUMP JUMPDEST POP RETURNDATASIZE PUSH2 0x1279 JUMP JUMPDEST PUSH1 0x40 MLOAD RETURNDATASIZE DUP14 DUP3 RETURNDATACOPY RETURNDATASIZE SWAP1 REVERT JUMPDEST PUSH4 0x4E487B71 PUSH1 0xE0 SHL DUP12 MSTORE PUSH1 0x11 PUSH1 0x4 MSTORE PUSH1 0x24 DUP12 REVERT JUMPDEST PUSH1 0x17 SLOAD PUSH8 0xDE0B6B3A7640000 SWAP1 DUP2 DUP2 MUL SWAP2 DUP2 DUP4 DIV EQ SWAP1 ISZERO OR ISZERO PUSH2 0x12E7 JUMPI SWAP1 PUSH2 0x12E1 SWAP2 PUSH2 0x3FA4 JUMP JUMPDEST SWAP1 PUSH2 0x1138 JUMP JUMPDEST PUSH4 0x4E487B71 PUSH1 0xE0 SHL DUP13 MSTORE PUSH1 0x11 PUSH1 0x4 MSTORE PUSH1 0x24 DUP13 REVERT JUMPDEST POP PUSH9 0x3635C9ADC5DEA00000 PUSH1 0x17 SLOAD LT PUSH2 0x1127 JUMP JUMPDEST PUSH1 0x40 MLOAD PUSH4 0xA9059CBB PUSH1 0xE0 SHL DUP2 MSTORE SWAP2 SWAP6 POP DUP9 SWAP1 DUP3 SWAP1 DUP2 DUP14 DUP2 PUSH2 0x1334 DUP12 CALLER PUSH1 0x4 DUP5 ADD PUSH2 0x3E49 JUMP JUMPDEST SUB SWAP3 GAS CALL DUP1 ISZERO PUSH2 0x1368 JUMPI PUSH2 0x134B JUMPI JUMPDEST POP DUP4 DUP11 PUSH2 0x111A JUMP JUMPDEST PUSH2 0x1361 SWAP1 DUP9 RETURNDATASIZE DUP11 GT PUSH2 0x6F7 JUMPI PUSH2 0x6E8 DUP2 DUP4 PUSH2 0x3DEF JUMP JUMPDEST POP DUP10 PUSH2 0x1343 JUMP JUMPDEST PUSH1 0x40 MLOAD RETURNDATASIZE DUP13 DUP3 RETURNDATACOPY RETURNDATASIZE SWAP1 REVERT JUMPDEST POP DUP2 ISZERO ISZERO PUSH2 0x1115 JUMP JUMPDEST DUP1 SWAP3 POP DUP12 DUP1 SWAP3 POP RETURNDATASIZE DUP4 GT PUSH2 0x13A6 JUMPI JUMPDEST PUSH2 0x1395 DUP2 DUP4 PUSH2 0x3DEF JUMP JUMPDEST DUP2 ADD SUB SLT PUSH2 0xC9A JUMPI DUP3 SWAP1 MLOAD DUP14 PUSH2 0x110C JUMP JUMPDEST POP RETURNDATASIZE PUSH2 0x138B JUMP JUMPDEST PUSH1 0x40 MLOAD RETURNDATASIZE DUP15 DUP3 RETURNDATACOPY RETURNDATASIZE SWAP1 REVERT JUMPDEST SWAP1 PUSH1 0x40 MLOAD SWAP1 DUP2 MSTORE DUP2 DUP6 DUP3 ADD MSTORE PUSH1 0x0 DUP1 MLOAD PUSH1 0x20 PUSH2 0x5E9C DUP4 CODECOPY DUP2 MLOAD SWAP2 MSTORE PUSH1 0x40 CALLER SWAP3 LOG2 DUP7 PUSH2 0x10A7 JUMP JUMPDEST PUSH2 0x13EA DUP6 PUSH1 0x17 SLOAD PUSH2 0x3F97 JUMP JUMPDEST PUSH1 0x17 SSTORE PUSH2 0xFA8 JUMP JUMPDEST PUSH1 0x40 MLOAD PUSH3 0x461BCD PUSH1 0xE5 SHL DUP2 MSTORE PUSH1 0x4 DUP2 ADD DUP6 SWAP1 MSTORE PUSH1 0x11 PUSH1 0x24 DUP3 ADD MSTORE PUSH17 0x4E6F7468696E6720746F2072656465656D PUSH1 0x78 SHL PUSH1 0x44 DUP3 ADD MSTORE PUSH1 0x64 SWAP1 REVERT JUMPDEST POP DUP1 ISZERO ISZERO PUSH2 0xF9D JUMP JUMPDEST POP CALLVALUE PUSH2 0x382 JUMPI DUP1 PUSH1 0x3 NOT CALLDATASIZE ADD SLT PUSH2 0x382 JUMPI PUSH1 0x20 PUSH1 0x7 SLOAD PUSH1 0x40 MLOAD SWAP1 DUP2 MSTORE RETURN JUMPDEST POP CALLVALUE PUSH2 0x382 JUMPI DUP1 PUSH1 0x3 NOT CALLDATASIZE ADD SLT PUSH2 0x382 JUMPI PUSH1 0x20 PUSH1 0x1F SLOAD PUSH1 0x40 MLOAD SWAP1 DUP2 MSTORE RETURN JUMPDEST POP CALLVALUE PUSH2 0x382 JUMPI PUSH1 0x40 CALLDATASIZE PUSH1 0x3 NOT ADD SLT PUSH2 0x382 JUMPI PUSH2 0x148A PUSH2 0x3D2A JUMP JUMPDEST PUSH1 0x1 PUSH1 0x1 PUSH1 0xA0 SHL SUB AND DUP2 MSTORE PUSH1 0x11 PUSH1 0x20 MSTORE PUSH1 0x40 DUP2 KECCAK256 DUP1 SLOAD PUSH1 0x24 CALLDATALOAD SWAP3 SWAP1 DUP4 LT ISZERO PUSH2 0x382 JUMPI PUSH1 0xC0 PUSH2 0x14B8 DUP5 DUP5 PUSH2 0x3E64 JUMP JUMPDEST POP DUP1 SLOAD SWAP1 PUSH1 0x1 DUP2 ADD SLOAD SWAP1 PUSH1 0x2 DUP2 ADD SLOAD PUSH1 0x3 DUP3 ADD SLOAD SWAP1 PUSH1 0x5 PUSH1 0xFF PUSH1 0x4 DUP6 ADD SLOAD AND SWAP4 ADD SLOAD SWAP4 PUSH1 0x40 MLOAD SWAP6 DUP7 MSTORE PUSH1 0x20 DUP7 ADD MSTORE PUSH1 0x40 DUP6 ADD MSTORE PUSH1 0x60 DUP5 ADD MSTORE ISZERO ISZERO PUSH1 0x80 DUP4 ADD MSTORE PUSH1 0xA0 DUP3 ADD MSTORE RETURN JUMPDEST POP CALLVALUE PUSH2 0x382 JUMPI DUP1 PUSH1 0x3 NOT CALLDATASIZE ADD SLT PUSH2 0x382 JUMPI PUSH1 0x20 PUSH1 0xFF PUSH1 0x16 SLOAD AND PUSH1 0x40 MLOAD SWAP1 ISZERO ISZERO DUP2 MSTORE RETURN JUMPDEST POP CALLVALUE PUSH2 0x382 JUMPI DUP1 PUSH1 0x3 NOT CALLDATASIZE ADD SLT PUSH2 0x382 JUMPI PUSH1 0x40 DUP1 MLOAD SWAP1 DUP2 ADD PUSH1 0x1 PUSH1 0x1 PUSH1 0x40 SHL SUB DUP2 GT DUP3 DUP3 LT OR PUSH2 0x15B0 JUMPI PUSH1 0x40 MSTORE PUSH1 0x5 DUP2 MSTORE PUSH1 0x20 SWAP2 PUSH5 0x352E302E3 PUSH1 0xDC SHL PUSH1 0x20 DUP4 ADD MSTORE PUSH1 0x40 MLOAD SWAP3 DUP4 SWAP2 PUSH1 0x20 DUP4 MSTORE DUP4 MLOAD SWAP2 DUP3 PUSH1 0x20 DUP6 ADD MSTORE DUP2 JUMPDEST DUP4 DUP2 LT PUSH2 0x1599 JUMPI POP POP PUSH1 0x40 DUP1 SWAP5 POP DUP3 DUP5 ADD ADD MSTORE PUSH1 0x1F DUP1 NOT SWAP2 ADD AND DUP2 ADD SUB ADD SWAP1 RETURN JUMPDEST DUP1 DUP7 ADD DUP3 ADD MLOAD DUP8 DUP3 ADD PUSH1 0x40 ADD MSTORE DUP7 SWAP5 POP DUP2 ADD PUSH2 0x1578 JUMP JUMPDEST PUSH4 0x4E487B71 PUSH1 0xE0 SHL PUSH1 0x0 MSTORE PUSH1 0x41 PUSH1 0x4 MSTORE PUSH1 0x24 PUSH1 0x0 REVERT JUMPDEST POP CALLVALUE PUSH2 0x382 JUMPI PUSH2 0x15D5 CALLDATASIZE PUSH2 0x3DC6 JUMP JUMPDEST SWAP1 DUP3 MSTORE PUSH1 0x1D PUSH1 0x20 MSTORE PUSH1 0x40 DUP3 KECCAK256 DUP1 SLOAD DUP3 LT ISZERO PUSH2 0x161A JUMPI PUSH2 0x15F4 SWAP3 POP PUSH2 0x3E2D JUMP JUMPDEST POP DUP1 SLOAD PUSH1 0x1 SWAP1 SWAP2 ADD SLOAD PUSH1 0x40 MLOAD SWAP2 DUP3 SWAP2 PUSH2 0x1616 SWAP2 PUSH1 0x1 PUSH1 0x1 PUSH1 0xA0 SHL SUB AND DUP4 PUSH2 0x3E49 JUMP JUMPDEST SUB SWAP1 RETURN JUMPDEST DUP3 DUP1 REVERT JUMPDEST POP CALLVALUE PUSH2 0x382 JUMPI PUSH1 0x40 CALLDATASIZE PUSH1 0x3 NOT ADD SLT PUSH2 0x382 JUMPI PUSH2 0x37F PUSH2 0x163B PUSH2 0x3D2A JUMP JUMPDEST PUSH2 0x1643 PUSH2 0x3D40 JUMP JUMPDEST SWAP1 PUSH2 0x164C PUSH2 0x49F4 JUMP JUMPDEST PUSH2 0x4614 JUMP JUMPDEST POP CALLVALUE PUSH2 0x382 JUMPI PUSH1 0x20 CALLDATASIZE PUSH1 0x3 NOT ADD SLT PUSH2 0x382 JUMPI PUSH32 0xD28D9E4CE68D89AF7920CB8618E342A78F51E545C530CE60F1CB1D6F0235B47F PUSH1 0x20 PUSH1 0x4 CALLDATALOAD PUSH2 0x1691 PUSH2 0x49F4 JUMP JUMPDEST DUP1 PUSH1 0x15 SSTORE PUSH1 0x40 MLOAD SWAP1 DUP2 MSTORE LOG1 DUP1 RETURN JUMPDEST POP CALLVALUE PUSH2 0x382 JUMPI PUSH2 0x16AE CALLDATASIZE PUSH2 0x3DC6 JUMP JUMPDEST PUSH2 0x16B6 PUSH2 0x49F4 JUMP JUMPDEST DUP2 PUSH2 0x1770 JUMPI JUMPDEST DUP1 PUSH2 0x16E3 JUMPI JUMPDEST PUSH1 0x0 DUP1 MLOAD PUSH1 0x20 PUSH2 0x5DFC DUP4 CODECOPY DUP2 MLOAD SWAP2 MSTORE SWAP2 PUSH1 0x40 SWAP2 DUP3 MLOAD SWAP2 DUP3 MSTORE PUSH1 0x20 DUP3 ADD MSTORE LOG1 DUP1 RETURN JUMPDEST PUSH1 0x1 SLOAD PUSH1 0x40 MLOAD PUSH4 0x23B872DD PUSH1 0xE0 SHL DUP2 MSTORE SWAP3 SWAP1 PUSH1 0x20 SWAP1 DUP5 SWAP1 PUSH1 0x1 PUSH1 0x1 PUSH1 0xA0 SHL SUB AND DUP2 DUP8 DUP2 PUSH2 0x1715 DUP9 ADDRESS CALLER PUSH1 0x4 DUP6 ADD PUSH2 0x3F4C JUMP JUMPDEST SUB SWAP3 GAS CALL SWAP2 DUP3 ISZERO PUSH2 0x6FE JUMPI PUSH1 0x0 DUP1 MLOAD PUSH1 0x20 PUSH2 0x5DFC DUP4 CODECOPY DUP2 MLOAD SWAP2 MSTORE SWAP4 PUSH1 0x40 SWAP4 PUSH2 0x1751 JUMPI JUMPDEST POP PUSH2 0x1745 DUP2 PUSH1 0x18 SLOAD PUSH2 0x3F97 JUMP JUMPDEST PUSH1 0x18 SSTORE SWAP2 POP SWAP2 POP PUSH2 0x16C2 JUMP JUMPDEST PUSH2 0x1769 SWAP1 PUSH1 0x20 RETURNDATASIZE PUSH1 0x20 GT PUSH2 0x6F7 JUMPI PUSH2 0x6E8 DUP2 DUP4 PUSH2 0x3DEF JUMP JUMPDEST POP CODESIZE PUSH2 0x1738 JUMP JUMPDEST DUP3 SLOAD PUSH1 0x40 MLOAD PUSH4 0x23B872DD PUSH1 0xE0 SHL DUP2 MSTORE SWAP1 PUSH1 0x20 SWAP1 DUP3 SWAP1 PUSH1 0x1 PUSH1 0x1 PUSH1 0xA0 SHL SUB AND DUP2 DUP8 DUP2 PUSH2 0x17A0 DUP10 ADDRESS CALLER PUSH1 0x4 DUP6 ADD PUSH2 0x3F4C JUMP JUMPDEST SUB SWAP3 GAS CALL DUP1 ISZERO PUSH2 0x6FE JUMPI PUSH2 0x17C4 JUMPI JUMPDEST POP PUSH2 0x17BC DUP3 PUSH1 0x17 SLOAD PUSH2 0x3F97 JUMP JUMPDEST PUSH1 0x17 SSTORE PUSH2 0x16BC JUMP JUMPDEST PUSH2 0x17DC SWAP1 PUSH1 0x20 RETURNDATASIZE PUSH1 0x20 GT PUSH2 0x6F7 JUMPI PUSH2 0x6E8 DUP2 DUP4 PUSH2 0x3DEF JUMP JUMPDEST POP CODESIZE PUSH2 0x17AF JUMP JUMPDEST POP CALLVALUE PUSH2 0x382 JUMPI PUSH1 0x40 CALLDATASIZE PUSH1 0x3 NOT ADD SLT PUSH2 0x382 JUMPI PUSH2 0x17FD PUSH2 0x3D2A JUMP JUMPDEST PUSH1 0x24 CALLDATALOAD SWAP1 PUSH2 0x1809 PUSH2 0x49F4 JUMP JUMPDEST PUSH2 0x1815 DUP3 PUSH1 0x1F SLOAD PUSH2 0x3FC4 JUMP JUMPDEST PUSH1 0x1F SSTORE DUP3 SLOAD PUSH1 0x40 MLOAD PUSH4 0xA9059CBB PUSH1 0xE0 SHL DUP2 MSTORE SWAP2 SWAP1 PUSH1 0x1 PUSH1 0x1 PUSH1 0xA0 SHL SUB SWAP1 PUSH1 0x20 SWAP1 DUP5 SWAP1 DUP4 AND DUP2 DUP9 DUP2 PUSH2 0x184A DUP11 DUP10 PUSH1 0x4 DUP5 ADD PUSH2 0x3E49 JUMP JUMPDEST SUB SWAP3 GAS CALL SWAP2 DUP3 ISZERO PUSH2 0x77C JUMPI PUSH32 0x27971EE1ACBFBDFB20656657CEB2E0E7B519B9E60FE1A6B1F6D27B159F4A607C SWAP4 PUSH1 0x20 SWAP4 PUSH2 0x188C JUMPI JUMPDEST POP PUSH1 0x40 MLOAD SWAP5 DUP6 MSTORE AND SWAP3 LOG2 DUP1 RETURN JUMPDEST PUSH2 0x18A2 SWAP1 DUP5 RETURNDATASIZE DUP7 GT PUSH2 0x6F7 JUMPI PUSH2 0x6E8 DUP2 DUP4 PUSH2 0x3DEF JUMP JUMPDEST POP CODESIZE PUSH2 0x187F JUMP JUMPDEST POP CALLVALUE PUSH2 0x382 JUMPI DUP1 PUSH1 0x3 NOT CALLDATASIZE ADD SLT PUSH2 0x382 JUMPI SLOAD PUSH1 0x40 MLOAD PUSH1 0x1 PUSH1 0x1 PUSH1 0xA0 SHL SUB SWAP1 SWAP2 AND DUP2 MSTORE PUSH1 0x20 SWAP1 RETURN JUMPDEST POP CALLVALUE PUSH2 0x382 JUMPI DUP1 PUSH1 0x3 NOT CALLDATASIZE ADD SLT PUSH2 0x382 JUMPI PUSH1 0x20 PUSH1 0xE SLOAD PUSH1 0x40 MLOAD SWAP1 DUP2 MSTORE RETURN JUMPDEST POP CALLVALUE PUSH2 0x382 JUMPI PUSH32 0x4E9DD03193A0C81552FB8E6D32280F0D7E0CE8087241DC3D17EF3D193EE231D7 PUSH1 0x40 PUSH2 0x1920 CALLDATASIZE PUSH2 0x3DC6 JUMP JUMPDEST PUSH2 0x1928 PUSH2 0x49F4 JUMP JUMPDEST DUP2 PUSH1 0xD SSTORE DUP1 PUSH1 0xE SSTORE DUP3 MLOAD SWAP2 DUP3 MSTORE PUSH1 0x20 DUP3 ADD MSTORE LOG1 DUP1 RETURN JUMPDEST POP CALLVALUE PUSH2 0x382 JUMPI DUP1 PUSH1 0x3 NOT CALLDATASIZE ADD SLT PUSH2 0x382 JUMPI PUSH1 0x0 DUP1 MLOAD PUSH1 0x20 PUSH2 0x5E3C DUP4 CODECOPY DUP2 MLOAD SWAP2 MSTORE SLOAD PUSH1 0x40 MLOAD PUSH1 0x1 PUSH1 0x1 PUSH1 0xA0 SHL SUB SWAP1 SWAP2 AND DUP2 MSTORE PUSH1 0x20 SWAP1 RETURN JUMPDEST POP CALLVALUE PUSH2 0x382 JUMPI DUP1 PUSH1 0x3 NOT CALLDATASIZE ADD SLT PUSH2 0x382 JUMPI PUSH1 0x20 PUSH1 0x40 MLOAD PUSH1 0x3 DUP2 MSTORE RETURN JUMPDEST POP CALLVALUE PUSH2 0x382 JUMPI DUP1 PUSH1 0x3 NOT CALLDATASIZE ADD SLT PUSH2 0x382 JUMPI PUSH1 0x20 PUSH1 0x40 MLOAD PUSH1 0x1 DUP2 MSTORE RETURN JUMPDEST POP CALLVALUE PUSH2 0x382 JUMPI DUP1 PUSH1 0x3 NOT CALLDATASIZE ADD SLT PUSH2 0x382 JUMPI PUSH1 0x4 SLOAD PUSH1 0x40 MLOAD PUSH1 0x1 PUSH1 0x1 PUSH1 0xA0 SHL SUB SWAP1 SWAP2 AND DUP2 MSTORE PUSH1 0x20 SWAP1 RETURN JUMPDEST POP CALLVALUE PUSH2 0x382 JUMPI DUP1 PUSH1 0x3 NOT CALLDATASIZE ADD SLT PUSH2 0x382 JUMPI PUSH1 0x20 PUSH1 0x40 MLOAD PUSH1 0x4 DUP2 MSTORE RETURN JUMPDEST POP CALLVALUE PUSH2 0x382 JUMPI PUSH1 0x20 CALLDATASIZE PUSH1 0x3 NOT ADD SLT PUSH2 0x382 JUMPI PUSH1 0x80 SWAP1 PUSH1 0x40 SWAP1 PUSH1 0x1 PUSH1 0x1 PUSH1 0xA0 SHL SUB PUSH2 0x1A19 PUSH2 0x3D2A JUMP JUMPDEST AND DUP2 MSTORE PUSH1 0x10 PUSH1 0x20 MSTORE KECCAK256 DUP1 SLOAD SWAP1 PUSH1 0x1 DUP2 ADD SLOAD SWAP1 PUSH1 0xFF PUSH1 0x3 PUSH1 0x2 DUP4 ADD SLOAD SWAP3 ADD SLOAD AND SWAP2 PUSH1 0x40 MLOAD SWAP4 DUP5 MSTORE PUSH1 0x20 DUP5 ADD MSTORE PUSH1 0x40 DUP4 ADD MSTORE ISZERO ISZERO PUSH1 0x60 DUP3 ADD MSTORE RETURN JUMPDEST POP CALLVALUE PUSH2 0x382 JUMPI PUSH1 0x80 CALLDATASIZE PUSH1 0x3 NOT ADD SLT PUSH2 0x382 JUMPI PUSH2 0x1A6C PUSH2 0x3D2A JUMP JUMPDEST PUSH2 0x1A74 PUSH2 0x3D40 JUMP JUMPDEST SWAP1 PUSH2 0x1A7D PUSH2 0x3D56 JUMP JUMPDEST SWAP2 PUSH2 0x1A86 PUSH2 0x3D6C JUMP JUMPDEST SWAP1 PUSH2 0x1A8F PUSH2 0x49F4 JUMP JUMPDEST PUSH1 0x1 PUSH1 0x1 PUSH1 0xA0 SHL SUB SWAP3 DUP4 AND SWAP2 DUP3 ISZERO ISZERO DUP1 PUSH2 0x1B78 JUMPI JUMPDEST DUP1 PUSH2 0x1B6D JUMPI JUMPDEST DUP1 PUSH2 0x1B62 JUMPI JUMPDEST ISZERO PUSH2 0x1B2B JUMPI PUSH32 0x213F1DE8063C19612A553F1480FF341BEA689D36A56A2089F1B9060D599B5D83 SWAP5 DUP5 DUP1 PUSH1 0x80 SWAP7 PUSH1 0x1 DUP1 PUSH1 0xA0 SHL SUB NOT SWAP6 DUP8 DUP8 PUSH1 0x2 SLOAD AND OR PUSH1 0x2 SSTORE AND SWAP3 DUP4 DUP7 PUSH1 0x3 SLOAD AND OR PUSH1 0x3 SSTORE AND SWAP3 DUP4 DUP6 PUSH1 0x4 SLOAD AND OR PUSH1 0x4 SSTORE AND DUP1 SWAP4 PUSH1 0x5 SLOAD AND OR PUSH1 0x5 SSTORE PUSH1 0x40 MLOAD SWAP4 DUP5 MSTORE PUSH1 0x20 DUP5 ADD MSTORE PUSH1 0x40 DUP4 ADD MSTORE PUSH1 0x60 DUP3 ADD MSTORE LOG1 DUP1 RETURN JUMPDEST PUSH1 0x40 MLOAD PUSH3 0x461BCD PUSH1 0xE5 SHL DUP2 MSTORE PUSH1 0x20 PUSH1 0x4 DUP3 ADD MSTORE PUSH1 0xF PUSH1 0x24 DUP3 ADD MSTORE PUSH15 0x496E76616C69642061646472657373 PUSH1 0x88 SHL PUSH1 0x44 DUP3 ADD MSTORE PUSH1 0x64 SWAP1 REVERT JUMPDEST POP DUP4 DUP2 AND ISZERO ISZERO PUSH2 0x1AB0 JUMP JUMPDEST POP DUP4 DUP6 AND ISZERO ISZERO PUSH2 0x1AAA JUMP JUMPDEST POP DUP4 DUP3 AND ISZERO ISZERO PUSH2 0x1AA4 JUMP JUMPDEST POP CALLVALUE PUSH2 0x382 JUMPI PUSH2 0x1B92 CALLDATASIZE PUSH2 0x3DC6 JUMP JUMPDEST SWAP1 DUP3 MSTORE PUSH1 0x13 PUSH1 0x20 MSTORE PUSH1 0x40 DUP3 KECCAK256 DUP1 SLOAD DUP3 LT ISZERO PUSH2 0x161A JUMPI PUSH2 0x15F4 SWAP3 POP PUSH2 0x3E2D JUMP JUMPDEST POP CALLVALUE PUSH2 0x382 JUMPI DUP1 PUSH1 0x3 NOT CALLDATASIZE ADD SLT PUSH2 0x382 JUMPI PUSH1 0x20 PUSH1 0x17 SLOAD PUSH1 0x40 MLOAD SWAP1 DUP2 MSTORE RETURN JUMPDEST POP CALLVALUE PUSH2 0x382 JUMPI DUP1 PUSH1 0x3 NOT CALLDATASIZE ADD SLT PUSH2 0x382 JUMPI PUSH1 0x2 SLOAD PUSH1 0x40 MLOAD PUSH1 0x1 PUSH1 0x1 PUSH1 0xA0 SHL SUB SWAP1 SWAP2 AND DUP2 MSTORE PUSH1 0x20 SWAP1 RETURN JUMPDEST POP CALLVALUE PUSH2 0x382 JUMPI DUP1 PUSH1 0x3 NOT CALLDATASIZE ADD SLT PUSH2 0x382 JUMPI PUSH1 0x20 PUSH1 0x1A SLOAD PUSH1 0x40 MLOAD SWAP1 DUP2 MSTORE RETURN JUMPDEST POP CALLVALUE PUSH2 0x382 JUMPI DUP1 PUSH1 0x3 NOT CALLDATASIZE ADD SLT PUSH2 0x382 JUMPI PUSH2 0x1C2F PUSH2 0x49F4 JUMP JUMPDEST PUSH1 0x0 DUP1 MLOAD PUSH1 0x20 PUSH2 0x5E3C DUP4 CODECOPY DUP2 MLOAD SWAP2 MSTORE DUP1 SLOAD PUSH1 0x1 PUSH1 0x1 PUSH1 0xA0 SHL SUB NOT DUP2 AND SWAP1 SWAP2 SSTORE PUSH1 0x0 SWAP1 PUSH1 0x1 PUSH1 0x1 PUSH1 0xA0 SHL SUB AND PUSH1 0x0 DUP1 MLOAD PUSH1 0x20 PUSH2 0x5EDC DUP4 CODECOPY DUP2 MLOAD SWAP2 MSTORE DUP3 DUP1 LOG3 DUP1 RETURN JUMPDEST POP CALLVALUE PUSH2 0x382 JUMPI DUP1 PUSH1 0x3 NOT CALLDATASIZE ADD SLT PUSH2 0x382 JUMPI PUSH1 0x20 PUSH1 0x15 SLOAD PUSH1 0x40 MLOAD SWAP1 DUP2 MSTORE RETURN JUMPDEST POP CALLVALUE PUSH2 0x382 JUMPI DUP1 PUSH1 0x3 NOT CALLDATASIZE ADD SLT PUSH2 0x382 JUMPI PUSH1 0x20 PUSH1 0x40 MLOAD PUSH2 0x3E8 DUP2 MSTORE RETURN JUMPDEST POP CALLVALUE PUSH2 0x382 JUMPI PUSH1 0x20 CALLDATASIZE PUSH1 0x3 NOT ADD SLT PUSH2 0x382 JUMPI PUSH2 0x1CC4 PUSH2 0x4A2D JUMP JUMPDEST PUSH2 0x1CD3 PUSH1 0xFF PUSH1 0x4F SLOAD AND ISZERO PUSH2 0x3EF3 JUMP JUMPDEST PUSH2 0x1CDC CALLER PUSH2 0x540F JUMP JUMPDEST PUSH9 0x56BC75E2D63100000 PUSH1 0x4 CALLDATALOAD EQ ISZERO DUP1 PUSH2 0x24CA JUMPI JUMPDEST DUP1 PUSH2 0x24B5 JUMPI JUMPDEST DUP1 PUSH2 0x24A0 JUMPI JUMPDEST PUSH2 0x248E JUMPI DUP1 SLOAD PUSH1 0x40 MLOAD PUSH4 0x23B872DD PUSH1 0xE0 SHL DUP2 MSTORE SWAP1 PUSH1 0x20 SWAP1 DUP3 SWAP1 PUSH1 0x1 PUSH1 0x1 PUSH1 0xA0 SHL SUB AND DUP2 DUP6 DUP2 PUSH2 0x1D35 PUSH1 0x4 DUP1 CALLDATALOAD SWAP1 ADDRESS SWAP1 CALLER SWAP1 DUP6 ADD PUSH2 0x3F4C JUMP JUMPDEST SUB SWAP3 GAS CALL DUP1 ISZERO PUSH2 0x2483 JUMPI PUSH2 0x2464 JUMPI JUMPDEST POP CALLER DUP2 MSTORE PUSH1 0x10 PUSH1 0x20 MSTORE PUSH1 0x40 DUP2 KECCAK256 PUSH1 0x3 DUP2 ADD DUP1 SLOAD PUSH1 0xFF AND ISZERO PUSH2 0x2389 JUMPI PUSH2 0x1D6A PUSH1 0x19 SLOAD PUSH2 0x45CF JUMP JUMPDEST DUP1 PUSH1 0x19 SSTORE DUP3 SSTORE PUSH1 0x4 CALLDATALOAD PUSH1 0x1 DUP4 ADD SSTORE TIMESTAMP PUSH1 0x2 DUP4 ADD SSTORE PUSH1 0xFF NOT DUP2 SLOAD AND SWAP1 SSTORE CALLER DUP3 MSTORE PUSH1 0xF PUSH1 0x20 MSTORE DUP2 PUSH1 0x3 PUSH1 0x40 DUP3 KECCAK256 ADD SSTORE PUSH1 0x3 PUSH1 0x4 CALLDATALOAD MUL PUSH1 0x4 CALLDATALOAD DUP2 DIV PUSH1 0x3 EQ PUSH1 0x4 CALLDATALOAD ISZERO OR ISZERO PUSH2 0x2375 JUMPI CALLER DUP4 MSTORE PUSH1 0xF PUSH1 0x20 MSTORE PUSH1 0x4 PUSH1 0x40 DUP5 KECCAK256 ADD SSTORE JUMPDEST PUSH1 0xA PUSH1 0x1 DUP3 ADD SLOAD CALLER DUP5 MSTORE PUSH1 0xF PUSH1 0x20 MSTORE PUSH1 0x40 DUP5 KECCAK256 SWAP1 PUSH1 0x9 DUP3 ADD DUP1 SLOAD DUP3 GT PUSH2 0x236D JUMPI JUMPDEST POP POP ADD DUP1 SLOAD PUSH1 0x4 CALLDATALOAD GT PUSH2 0x2362 JUMPI JUMPDEST POP DUP1 SLOAD DUP3 MSTORE PUSH1 0x1C PUSH1 0x20 SWAP1 DUP2 MSTORE PUSH1 0x40 DUP1 DUP5 KECCAK256 DUP1 SLOAD PUSH1 0x1 PUSH1 0x1 PUSH1 0xA0 SHL SUB NOT AND CALLER SWAP1 DUP2 OR SWAP1 SWAP2 SSTORE DUP5 MSTORE PUSH1 0xF SWAP1 SWAP2 MSTORE DUP3 KECCAK256 SLOAD PUSH1 0x1 PUSH1 0x1 PUSH1 0xA0 SHL SUB AND DUP1 ISZERO ISZERO DUP1 PUSH2 0x234E JUMPI JUMPDEST ISZERO PUSH2 0x22C2 JUMPI PUSH2 0x1E4E PUSH1 0x64 PUSH2 0x1E47 PUSH1 0x6 SLOAD PUSH1 0x4 CALLDATALOAD PUSH2 0x3F6E JUMP JUMPDEST DIV DUP3 PUSH2 0x55DB JUMP JUMPDEST SWAP1 DUP2 PUSH2 0x2293 JUMPI JUMPDEST POP POP JUMPDEST CALLER DUP3 MSTORE PUSH1 0xF PUSH1 0x20 MSTORE PUSH1 0x40 DUP3 KECCAK256 SLOAD DUP3 SWAP2 DUP3 SWAP2 PUSH1 0x1 PUSH1 0x1 PUSH1 0xA0 SHL SUB AND SWAP1 DUP3 SWAP1 PUSH1 0x4 CALLDATALOAD DUP1 ISZERO SWAP1 DUP1 DIV PUSH1 0x1 EQ OR ISZERO PUSH2 0x227F JUMPI SWAP4 SWAP5 SWAP2 JUMPDEST PUSH1 0x1 PUSH1 0x1 PUSH1 0xA0 SHL SUB DUP2 AND DUP1 ISZERO ISZERO DUP1 PUSH2 0x2275 JUMPI JUMPDEST DUP1 PUSH2 0x226B JUMPI JUMPDEST ISZERO PUSH2 0x1FAA JUMPI DUP5 MSTORE PUSH1 0xF PUSH1 0x20 MSTORE PUSH1 0x40 DUP5 KECCAK256 PUSH1 0xFF PUSH1 0x5 DUP3 ADD SLOAD AND ISZERO PUSH2 0x1F8B JUMPI POP PUSH1 0x1 PUSH1 0x1 PUSH1 0xA0 SHL SUB DUP2 AND DUP5 MSTORE PUSH1 0xF PUSH1 0x20 MSTORE PUSH1 0x40 DUP5 KECCAK256 PUSH1 0x1 ADD SLOAD DUP4 SWAP1 PUSH2 0x1EE5 SWAP1 PUSH2 0x4008 JUMP JUMPDEST GT PUSH2 0x1F21 JUMPI JUMPDEST PUSH1 0x1 PUSH1 0x1 PUSH1 0xA0 SHL SUB SWAP1 DUP2 AND DUP5 MSTORE PUSH1 0xF PUSH1 0x20 MSTORE PUSH1 0x40 DUP5 KECCAK256 SLOAD AND SWAP2 PUSH2 0x1F17 SWAP1 PUSH2 0x1F11 SWAP1 PUSH2 0x45CF JUMP JUMPDEST SWAP6 PUSH2 0x45CF JUMP JUMPDEST SWAP4 JUMPDEST SWAP4 SWAP5 SWAP2 PUSH2 0x1E8A JUMP JUMPDEST PUSH2 0x1F30 PUSH1 0x64 PUSH1 0x4 CALLDATALOAD DIV DUP3 PUSH2 0x57DF JUMP JUMPDEST DUP1 PUSH2 0x1F3C JUMPI JUMPDEST POP PUSH2 0x1EEB JUMP JUMPDEST SWAP2 DUP3 PUSH2 0x1F47 SWAP2 PUSH2 0x3F97 JUMP JUMPDEST SWAP2 CALLER DUP6 MSTORE PUSH1 0x10 PUSH1 0x20 MSTORE PUSH1 0x40 DUP6 KECCAK256 SLOAD PUSH1 0x40 MLOAD SWAP2 DUP3 MSTORE PUSH1 0x3 PUSH1 0x20 DUP4 ADD MSTORE PUSH1 0x40 DUP3 ADD MSTORE CALLER SWAP1 PUSH1 0x0 DUP1 MLOAD PUSH1 0x20 PUSH2 0x5DDC DUP4 CODECOPY DUP2 MLOAD SWAP2 MSTORE PUSH1 0x60 PUSH1 0x1 DUP1 PUSH1 0xA0 SHL SUB DUP6 AND SWAP3 LOG3 CODESIZE PUSH2 0x1F36 JUMP JUMPDEST SLOAD SWAP3 SWAP6 PUSH1 0x1 PUSH1 0x1 PUSH1 0xA0 SHL SUB SWAP1 SWAP4 AND SWAP3 PUSH2 0x1FA4 SWAP2 POP PUSH2 0x45CF JUMP JUMPDEST SWAP4 PUSH2 0x1F19 JUMP JUMPDEST DUP5 DUP7 DUP5 PUSH2 0x1FC9 PUSH1 0x7 SWAP2 PUSH1 0x64 PUSH2 0x1FC3 PUSH1 0x7 SLOAD PUSH1 0x4 CALLDATALOAD PUSH2 0x3F6E JUMP JUMPDEST DIV PUSH2 0x3FC4 JUMP JUMPDEST DUP1 PUSH2 0x2226 JUMPI JUMPDEST POP DUP3 PUSH1 0x1 DUP1 PUSH1 0xA0 SHL SUB DUP2 SLOAD AND PUSH1 0x20 PUSH2 0x201B PUSH1 0x1 DUP1 PUSH1 0xA0 SHL SUB PUSH1 0x2 SLOAD AND SWAP3 PUSH1 0x64 PUSH2 0x1FFC PUSH1 0x8 SLOAD PUSH1 0x4 CALLDATALOAD PUSH2 0x3F6E JUMP JUMPDEST DIV PUSH1 0x40 MLOAD SWAP6 DUP7 DUP1 SWAP5 DUP2 SWAP4 PUSH4 0xA9059CBB PUSH1 0xE0 SHL SWAP9 DUP10 DUP5 MSTORE PUSH1 0x4 DUP5 ADD PUSH2 0x3E49 JUMP JUMPDEST SUB SWAP3 GAS CALL SWAP2 DUP3 ISZERO PUSH2 0x77C JUMPI PUSH2 0x2089 SWAP3 PUSH2 0x2207 JUMPI JUMPDEST POP PUSH2 0x2049 PUSH1 0x64 PUSH2 0x2043 PUSH1 0x9 SLOAD PUSH1 0x4 CALLDATALOAD PUSH2 0x3F6E JUMP JUMPDEST DIV PUSH2 0x5B05 JUMP JUMPDEST DUP5 SLOAD PUSH1 0x4 DUP1 SLOAD PUSH1 0xA SLOAD PUSH1 0x20 SWAP4 PUSH1 0x1 PUSH1 0x1 PUSH1 0xA0 SHL SUB SWAP3 DUP4 AND SWAP4 SWAP3 AND SWAP2 PUSH1 0x64 SWAP2 PUSH2 0x2071 SWAP2 CALLDATALOAD PUSH2 0x3F6E JUMP JUMPDEST DIV SWAP2 DUP9 PUSH1 0x40 MLOAD DUP1 SWAP8 DUP2 SWAP6 DUP3 SWAP5 DUP10 DUP5 MSTORE PUSH1 0x4 DUP5 ADD PUSH2 0x3E49 JUMP JUMPDEST SUB SWAP3 GAS CALL SWAP1 DUP2 ISZERO PUSH2 0x77C JUMPI PUSH2 0x20DE SWAP3 PUSH1 0x20 SWAP3 PUSH2 0x21EA JUMPI JUMPDEST POP PUSH1 0x1 DUP1 PUSH1 0xA0 SHL SUB DUP7 SLOAD AND PUSH1 0x1 DUP1 PUSH1 0xA0 SHL SUB PUSH1 0x3 SLOAD AND DUP8 PUSH1 0x64 PUSH2 0x20C7 PUSH1 0xB SLOAD PUSH1 0x4 CALLDATALOAD PUSH2 0x3F6E JUMP JUMPDEST DIV SWAP4 PUSH1 0x40 MLOAD SWAP7 DUP8 SWAP6 DUP7 SWAP5 DUP6 SWAP4 DUP5 MSTORE PUSH1 0x4 DUP5 ADD PUSH2 0x3E49 JUMP JUMPDEST SUB SWAP3 GAS CALL DUP1 ISZERO PUSH2 0x6FE JUMPI PUSH2 0x21CB JUMPI JUMPDEST POP CALLER PUSH1 0x0 SWAP1 DUP2 MSTORE PUSH1 0xF PUSH1 0x20 MSTORE PUSH1 0x40 DUP2 KECCAK256 SLOAD SWAP1 SWAP3 PUSH1 0x4 CALLDATALOAD ISZERO ISZERO SWAP3 SWAP2 PUSH1 0x1 PUSH1 0x1 PUSH1 0xA0 SHL SUB AND JUMPDEST PUSH1 0x1 PUSH1 0x1 PUSH1 0xA0 SHL SUB AND DUP1 ISZERO ISZERO DUP1 PUSH2 0x21C1 JUMPI JUMPDEST ISZERO PUSH2 0x216C JUMPI PUSH1 0x0 MSTORE PUSH1 0xF PUSH1 0x20 MSTORE PUSH2 0x214F DUP4 PUSH1 0x40 PUSH1 0x0 KECCAK256 SWAP1 PUSH2 0x2155 JUMPI JUMPDEST SLOAD PUSH1 0x1 PUSH1 0x1 PUSH1 0xA0 SHL SUB AND SWAP5 PUSH2 0x45CF JUMP JUMPDEST SWAP4 PUSH2 0x2111 JUMP JUMPDEST DUP4 DUP2 ADD PUSH2 0x2165 PUSH1 0x4 CALLDATALOAD DUP3 SLOAD PUSH2 0x3F97 JUMP JUMPDEST SWAP1 SSTORE PUSH2 0x213F JUMP JUMPDEST DUP6 DUP3 PUSH2 0x2177 CALLER PUSH2 0x4F50 JUMP JUMPDEST SLOAD PUSH1 0x40 MLOAD SWAP1 PUSH1 0x4 CALLDATALOAD DUP3 MSTORE PUSH1 0x20 DUP3 ADD MSTORE PUSH32 0x2A91574E12AD96234E84923E146B0946ECFB871CD8D5534DC1FDCBE87A7C01B3 PUSH1 0x40 CALLER SWAP3 LOG2 PUSH1 0x1 PUSH1 0x0 DUP1 MLOAD PUSH1 0x20 PUSH2 0x5F3C DUP4 CODECOPY DUP2 MLOAD SWAP2 MSTORE SSTORE DUP1 RETURN JUMPDEST POP PUSH1 0x1E DUP6 LT PUSH2 0x2123 JUMP JUMPDEST PUSH2 0x21E3 SWAP1 PUSH1 0x20 RETURNDATASIZE PUSH1 0x20 GT PUSH2 0x6F7 JUMPI PUSH2 0x6E8 DUP2 DUP4 PUSH2 0x3DEF JUMP JUMPDEST POP DUP4 PUSH2 0x20ED JUMP JUMPDEST PUSH2 0x2200 SWAP1 DUP4 RETURNDATASIZE DUP6 GT PUSH2 0x6F7 JUMPI PUSH2 0x6E8 DUP2 DUP4 PUSH2 0x3DEF JUMP JUMPDEST POP DUP7 PUSH2 0x20A0 JUMP JUMPDEST PUSH2 0x221F SWAP1 PUSH1 0x20 RETURNDATASIZE PUSH1 0x20 GT PUSH2 0x6F7 JUMPI PUSH2 0x6E8 DUP2 DUP4 PUSH2 0x3DEF JUMP JUMPDEST POP DUP6 PUSH2 0x202F JUMP JUMPDEST PUSH1 0x40 DUP2 PUSH2 0x2256 PUSH32 0xCA2E2BFF26D2ADB9FE155E9265350494C16751676879CB7CED9141E0FCF39343 SWAP4 PUSH1 0x1F SLOAD PUSH2 0x3F97 JUMP JUMPDEST DUP1 PUSH1 0x1F SSTORE DUP3 MLOAD SWAP2 DUP3 MSTORE PUSH1 0x20 DUP3 ADD MSTORE LOG1 DUP4 PUSH2 0x1FCF JUMP JUMPDEST POP PUSH1 0x14 DUP8 LT PUSH2 0x1EA3 JUMP JUMPDEST POP PUSH1 0xF DUP5 LT PUSH2 0x1E9D JUMP JUMPDEST PUSH4 0x4E487B71 PUSH1 0xE0 SHL DUP5 MSTORE PUSH1 0x11 PUSH1 0x4 MSTORE PUSH1 0x24 DUP5 REVERT JUMPDEST DUP3 SLOAD PUSH1 0x40 MLOAD SWAP3 DUP4 MSTORE PUSH1 0x2 PUSH1 0x20 DUP5 ADD MSTORE PUSH1 0x40 DUP4 ADD MSTORE PUSH1 0x0 DUP1 MLOAD PUSH1 0x20 PUSH2 0x5DDC DUP4 CODECOPY DUP2 MLOAD SWAP2 MSTORE PUSH1 0x60 CALLER SWAP4 LOG3 CODESIZE DUP1 PUSH2 0x1E55 JUMP JUMPDEST POP DUP2 SLOAD PUSH1 0x2 SLOAD PUSH1 0x6 SLOAD PUSH2 0x230F SWAP3 PUSH1 0x20 SWAP3 PUSH1 0x1 PUSH1 0x1 PUSH1 0xA0 SHL SUB SWAP1 DUP2 AND SWAP3 SWAP2 AND SWAP1 PUSH1 0x64 SWAP1 PUSH2 0x22F0 SWAP1 PUSH1 0x4 CALLDATALOAD PUSH2 0x3F6E JUMP JUMPDEST DIV SWAP2 DUP7 PUSH1 0x40 MLOAD DUP1 SWAP7 DUP2 SWAP6 DUP3 SWAP5 PUSH4 0xA9059CBB PUSH1 0xE0 SHL DUP5 MSTORE PUSH1 0x4 DUP5 ADD PUSH2 0x3E49 JUMP JUMPDEST SUB SWAP3 GAS CALL DUP1 ISZERO PUSH2 0x2343 JUMPI PUSH2 0x2324 JUMPI JUMPDEST POP PUSH2 0x1E58 JUMP JUMPDEST PUSH2 0x233C SWAP1 PUSH1 0x20 RETURNDATASIZE PUSH1 0x20 GT PUSH2 0x6F7 JUMPI PUSH2 0x6E8 DUP2 DUP4 PUSH2 0x3DEF JUMP JUMPDEST POP CODESIZE PUSH2 0x231E JUMP JUMPDEST PUSH1 0x40 MLOAD RETURNDATASIZE DUP6 DUP3 RETURNDATACOPY RETURNDATASIZE SWAP1 REVERT JUMPDEST POP DUP1 DUP4 MSTORE PUSH1 0xFF PUSH1 0x5 PUSH1 0x40 DUP6 KECCAK256 ADD SLOAD AND PUSH2 0x1E2F JUMP JUMPDEST PUSH1 0x4 CALLDATALOAD SWAP1 SSTORE CODESIZE PUSH2 0x1DEF JUMP JUMPDEST SSTORE CODESIZE DUP1 PUSH2 0x1DE1 JUMP JUMPDEST PUSH4 0x4E487B71 PUSH1 0xE0 SHL DUP4 MSTORE PUSH1 0x11 PUSH1 0x4 MSTORE PUSH1 0x24 DUP4 REVERT JUMPDEST PUSH1 0x1 DUP3 ADD DUP1 SLOAD DUP1 PUSH2 0x23F7 JUMPI POP PUSH2 0x23A0 PUSH1 0x19 SLOAD PUSH2 0x45CF JUMP JUMPDEST DUP1 PUSH1 0x19 SSTORE DUP4 SSTORE PUSH1 0x4 CALLDATALOAD SWAP1 SSTORE TIMESTAMP PUSH1 0x2 DUP4 ADD SSTORE PUSH1 0xFF NOT DUP2 SLOAD AND SWAP1 SSTORE CALLER DUP3 MSTORE PUSH1 0xF PUSH1 0x20 MSTORE DUP2 PUSH1 0x3 PUSH1 0x40 DUP3 KECCAK256 ADD SSTORE PUSH1 0x3 PUSH1 0x4 CALLDATALOAD MUL PUSH1 0x4 CALLDATALOAD DUP2 DIV PUSH1 0x3 EQ PUSH1 0x4 CALLDATALOAD ISZERO OR ISZERO PUSH2 0x2375 JUMPI CALLER DUP4 MSTORE PUSH1 0xF PUSH1 0x20 MSTORE PUSH1 0x4 PUSH1 0x40 DUP5 KECCAK256 ADD SSTORE PUSH2 0x1DC0 JUMP JUMPDEST PUSH2 0x2406 SWAP2 SWAP3 POP PUSH1 0x4 CALLDATALOAD SWAP1 PUSH2 0x3F97 JUMP JUMPDEST SWAP1 SSTORE CALLER DUP3 MSTORE PUSH1 0xF PUSH1 0x20 MSTORE PUSH1 0xFF PUSH1 0x5 PUSH1 0x40 DUP5 KECCAK256 ADD SLOAD AND PUSH2 0x2459 JUMPI JUMPDEST PUSH1 0x3 PUSH1 0x4 CALLDATALOAD MUL PUSH1 0x4 CALLDATALOAD DUP2 DIV PUSH1 0x3 EQ PUSH1 0x4 CALLDATALOAD ISZERO OR ISZERO PUSH2 0x2375 JUMPI CALLER DUP4 MSTORE PUSH1 0xF PUSH1 0x20 MSTORE PUSH2 0x2452 PUSH1 0x4 PUSH1 0x40 DUP6 KECCAK256 ADD SWAP2 DUP3 SLOAD PUSH2 0x3F97 JUMP JUMPDEST SWAP1 SSTORE PUSH2 0x1DC0 JUMP JUMPDEST TIMESTAMP PUSH1 0x2 DUP3 ADD SSTORE PUSH2 0x2420 JUMP JUMPDEST PUSH2 0x247C SWAP1 PUSH1 0x20 RETURNDATASIZE PUSH1 0x20 GT PUSH2 0x6F7 JUMPI PUSH2 0x6E8 DUP2 DUP4 PUSH2 0x3DEF JUMP JUMPDEST POP CODESIZE PUSH2 0x1D44 JUMP JUMPDEST PUSH1 0x40 MLOAD RETURNDATASIZE DUP5 DUP3 RETURNDATACOPY RETURNDATASIZE SWAP1 REVERT JUMPDEST PUSH1 0x40 MLOAD PUSH4 0x162908E3 PUSH1 0xE1 SHL DUP2 MSTORE PUSH1 0x4 SWAP1 REVERT JUMPDEST POP PUSH9 0x3635C9ADC5DEA00000 PUSH1 0x4 CALLDATALOAD EQ ISZERO PUSH2 0x1CFD JUMP JUMPDEST POP PUSH9 0x1B1AE4D6E2EF500000 PUSH1 0x4 CALLDATALOAD EQ ISZERO PUSH2 0x1CF7 JUMP JUMPDEST POP PUSH9 0x1043561A8829300000 PUSH1 0x4 CALLDATALOAD EQ ISZERO PUSH2 0x1CF1 JUMP JUMPDEST POP CALLVALUE PUSH2 0x382 JUMPI PUSH2 0x160 CALLDATASIZE PUSH1 0x3 NOT ADD SLT PUSH2 0x382 JUMPI PUSH2 0x24FA PUSH2 0x3D2A JUMP JUMPDEST PUSH2 0x2502 PUSH2 0x3D1B JUMP JUMPDEST PUSH1 0x64 CALLDATALOAD ISZERO ISZERO PUSH1 0x64 CALLDATALOAD SUB PUSH2 0xC9A JUMPI PUSH1 0xA4 CALLDATALOAD ISZERO ISZERO PUSH1 0xA4 CALLDATALOAD SUB PUSH2 0xC9A JUMPI PUSH1 0xE4 CALLDATALOAD ISZERO ISZERO PUSH1 0xE4 CALLDATALOAD SUB PUSH2 0xC9A JUMPI PUSH2 0x124 CALLDATALOAD ISZERO ISZERO PUSH2 0x124 CALLDATALOAD SUB PUSH2 0xC9A JUMPI PUSH2 0x2540 PUSH2 0x49F4 JUMP JUMPDEST PUSH2 0x2554 PUSH1 0x1 PUSH1 0x1 PUSH1 0xA0 SHL SUB DUP4 AND ISZERO ISZERO PUSH2 0x45DE JUMP JUMPDEST PUSH1 0x1 PUSH1 0x1 PUSH1 0xA0 SHL SUB DUP3 AND DUP4 MSTORE PUSH1 0xF PUSH1 0x20 MSTORE PUSH1 0x40 DUP4 KECCAK256 SWAP1 PUSH2 0x264B JUMPI JUMPDEST PUSH1 0x64 CALLDATALOAD PUSH2 0x260E JUMPI JUMPDEST PUSH1 0xA4 CALLDATALOAD PUSH2 0x2601 JUMPI JUMPDEST PUSH1 0xE4 CALLDATALOAD PUSH2 0x25F3 JUMPI JUMPDEST PUSH2 0x124 CALLDATALOAD PUSH2 0x25E4 JUMPI JUMPDEST POP PUSH32 0x8FB1F6E3F39354FC80C1DEFC040C6D354638B0C8E5F9C63CD0292EF9842197E9 PUSH1 0x80 PUSH1 0x40 MLOAD SWAP3 PUSH1 0x44 CALLDATALOAD DUP5 MSTORE PUSH1 0xC4 CALLDATALOAD PUSH1 0x20 DUP6 ADD MSTORE PUSH2 0x104 CALLDATALOAD PUSH1 0x40 DUP6 ADD MSTORE PUSH2 0x144 CALLDATALOAD PUSH1 0x60 DUP6 ADD MSTORE PUSH1 0x1 DUP1 PUSH1 0xA0 SHL SUB AND SWAP3 LOG2 DUP1 RETURN JUMPDEST PUSH1 0x6 PUSH2 0x144 CALLDATALOAD SWAP2 ADD SSTORE CODESIZE PUSH2 0x2590 JUMP JUMPDEST PUSH2 0x104 CALLDATALOAD PUSH1 0x4 DUP3 ADD SSTORE PUSH2 0x2587 JUMP JUMPDEST PUSH1 0xC4 CALLDATALOAD PUSH1 0x3 DUP3 ADD SSTORE PUSH2 0x257F JUMP JUMPDEST PUSH1 0x2 DUP2 ADD DUP1 SLOAD PUSH1 0x84 CALLDATALOAD SWAP2 DUP3 SWAP1 SSTORE PUSH1 0x40 DUP1 MLOAD SWAP2 DUP3 MSTORE PUSH1 0x20 DUP3 ADD SWAP3 SWAP1 SWAP3 MSTORE PUSH1 0x1 PUSH1 0x1 PUSH1 0xA0 SHL SUB DUP5 AND SWAP2 PUSH1 0x0 DUP1 MLOAD PUSH1 0x20 PUSH2 0x5E5C DUP4 CODECOPY DUP2 MLOAD SWAP2 MSTORE SWAP2 LOG2 PUSH2 0x2577 JUMP JUMPDEST PUSH1 0x44 CALLDATALOAD PUSH1 0x1 DUP3 ADD SSTORE PUSH2 0x256F JUMP JUMPDEST POP CALLVALUE PUSH2 0x382 JUMPI DUP1 PUSH1 0x3 NOT CALLDATASIZE ADD SLT PUSH2 0x382 JUMPI PUSH1 0x20 PUSH1 0x19 SLOAD PUSH1 0x40 MLOAD SWAP1 DUP2 MSTORE RETURN JUMPDEST POP CALLVALUE PUSH2 0x382 JUMPI DUP1 PUSH1 0x3 NOT CALLDATASIZE ADD SLT PUSH2 0x382 JUMPI PUSH32 0x0 PUSH1 0x1 PUSH1 0x1 PUSH1 0xA0 SHL SUB AND ADDRESS SUB PUSH2 0x26CF JUMPI PUSH1 0x20 PUSH1 0x40 MLOAD PUSH1 0x0 DUP1 MLOAD PUSH1 0x20 PUSH2 0x5E7C DUP4 CODECOPY DUP2 MLOAD SWAP2 MSTORE DUP2 MSTORE RETURN JUMPDEST PUSH1 0x40 MLOAD PUSH4 0x703E46DD PUSH1 0xE1 SHL DUP2 MSTORE PUSH1 0x4 SWAP1 REVERT JUMPDEST POP CALLVALUE PUSH2 0x382 JUMPI PUSH1 0x20 DUP1 PUSH1 0x3 NOT CALLDATASIZE ADD SLT PUSH2 0x5FC JUMPI PUSH1 0x4 CALLDATALOAD SWAP1 PUSH2 0x2700 PUSH2 0x4A2D JUMP JUMPDEST PUSH2 0x270F PUSH1 0xFF PUSH1 0x4F SLOAD AND ISZERO PUSH2 0x3EF3 JUMP JUMPDEST DUP2 ISZERO PUSH2 0x248E JUMPI PUSH9 0x3635C9ADC5DEA00000 DUP1 PUSH1 0x17 SLOAD LT SWAP1 DUP2 ISZERO PUSH2 0x2994 JUMPI JUMPDEST POP PUSH2 0x2908 JUMPI PUSH1 0x1 SLOAD PUSH1 0x40 MLOAD PUSH4 0x23B872DD PUSH1 0xE0 SHL DUP2 MSTORE PUSH1 0x1 PUSH1 0x1 PUSH1 0xA0 SHL SUB SWAP2 DUP4 SWAP1 DUP3 SWAP1 DUP5 AND DUP2 DUP9 DUP2 PUSH2 0x2762 DUP11 ADDRESS CALLER PUSH1 0x4 DUP6 ADD PUSH2 0x3F4C JUMP JUMPDEST SUB SWAP3 GAS CALL DUP1 ISZERO PUSH2 0x77C JUMPI PUSH2 0x2977 JUMPI JUMPDEST POP PUSH1 0x64 PUSH2 0x2780 PUSH1 0xE SLOAD DUP6 PUSH2 0x3F6E JUMP JUMPDEST DIV SWAP1 PUSH2 0x278C DUP3 DUP6 PUSH2 0x3FC4 JUMP JUMPDEST SWAP3 PUSH2 0x2710 DUP1 DUP6 MUL SWAP1 DUP6 DUP3 DIV EQ DUP6 ISZERO OR ISZERO PUSH2 0x2963 JUMPI PUSH2 0x27B0 PUSH2 0x3E8 SWAP2 PUSH1 0x18 SLOAD SWAP1 PUSH2 0x3FA4 JUMP JUMPDEST GT PUSH2 0x248E JUMPI DUP6 DUP3 PUSH1 0x1 SLOAD AND DUP1 EXTCODESIZE ISZERO PUSH2 0x5FC JUMPI DUP2 DUP1 SWAP2 PUSH1 0x24 PUSH1 0x40 MLOAD DUP1 SWAP5 DUP2 SWAP4 PUSH4 0x852CD8D PUSH1 0xE3 SHL DUP4 MSTORE DUP11 PUSH1 0x4 DUP5 ADD MSTORE GAS CALL DUP1 ISZERO PUSH2 0x2483 JUMPI PUSH2 0x294B JUMPI JUMPDEST POP POP PUSH1 0x17 SLOAD SWAP4 PUSH2 0x27FB DUP6 DUP3 PUSH2 0x3F6E JUMP JUMPDEST SWAP1 PUSH2 0x2813 PUSH1 0x18 SLOAD SWAP3 PUSH2 0x280D DUP4 DUP6 PUSH2 0x3F97 JUMP JUMPDEST SWAP1 PUSH2 0x3FA4 JUMP JUMPDEST SWAP4 DUP9 SLOAD AND SWAP6 PUSH1 0x40 MLOAD PUSH4 0x70A08231 PUSH1 0xE0 SHL DUP2 MSTORE ADDRESS PUSH1 0x4 DUP3 ADD MSTORE DUP5 DUP2 PUSH1 0x24 DUP2 DUP12 GAS STATICCALL DUP1 ISZERO PUSH2 0x1368 JUMPI DUP7 SWAP2 DUP12 SWAP2 PUSH2 0x291A JUMPI JUMPDEST POP LT PUSH2 0x2908 JUMPI PUSH2 0x2856 DUP6 SWAP3 PUSH2 0x285E SWAP5 PUSH2 0x3F97 JUMP JUMPDEST PUSH1 0x18 SSTORE PUSH2 0x3FC4 JUMP JUMPDEST PUSH1 0x17 SSTORE DUP1 PUSH1 0x40 MLOAD DUP1 SWAP6 PUSH4 0xA9059CBB PUSH1 0xE0 SHL DUP3 MSTORE DUP2 DUP10 DUP2 PUSH2 0x2882 DUP9 CALLER PUSH1 0x4 DUP5 ADD PUSH2 0x3E49 JUMP JUMPDEST SUB SWAP3 GAS CALL SWAP4 DUP5 ISZERO PUSH2 0x28FD JUMPI PUSH32 0x223C8AD0806F634524940A8595F819C5CFC7B1F4F4F45791269301DF0A7E61D5 SWAP5 PUSH2 0x28DF JUMPI JUMPDEST POP POP PUSH2 0x28C7 PUSH1 0x40 MLOAD SWAP3 DUP4 SWAP3 CALLER SWAP7 DUP5 PUSH2 0x3DB0 JUMP JUMPDEST SUB SWAP1 LOG2 PUSH1 0x1 PUSH1 0x0 DUP1 MLOAD PUSH1 0x20 PUSH2 0x5F3C DUP4 CODECOPY DUP2 MLOAD SWAP2 MSTORE SSTORE DUP1 RETURN JUMPDEST DUP2 PUSH2 0x28F5 SWAP3 SWAP1 RETURNDATASIZE LT PUSH2 0x6F7 JUMPI PUSH2 0x6E8 DUP2 DUP4 PUSH2 0x3DEF JUMP JUMPDEST POP CODESIZE DUP1 PUSH2 0x28B4 JUMP JUMPDEST PUSH1 0x40 MLOAD RETURNDATASIZE DUP9 DUP3 RETURNDATACOPY RETURNDATASIZE SWAP1 REVERT JUMPDEST PUSH1 0x40 MLOAD PUSH4 0x43C7AD81 PUSH1 0xE1 SHL DUP2 MSTORE PUSH1 0x4 SWAP1 REVERT JUMPDEST DUP1 SWAP3 POP DUP7 DUP1 SWAP3 POP RETURNDATASIZE DUP4 GT PUSH2 0x2944 JUMPI JUMPDEST PUSH2 0x2933 DUP2 DUP4 PUSH2 0x3DEF JUMP JUMPDEST DUP2 ADD SUB SLT PUSH2 0xC9A JUMPI DUP6 SWAP1 MLOAD CODESIZE PUSH2 0x2842 JUMP JUMPDEST POP RETURNDATASIZE PUSH2 0x2929 JUMP JUMPDEST PUSH2 0x2954 SWAP1 PUSH2 0x3DDC JUMP JUMPDEST PUSH2 0x295F JUMPI DUP6 CODESIZE PUSH2 0x27EB JUMP JUMPDEST DUP6 DUP1 REVERT JUMPDEST PUSH4 0x4E487B71 PUSH1 0xE0 SHL DUP8 MSTORE PUSH1 0x11 PUSH1 0x4 MSTORE PUSH1 0x24 DUP8 REVERT JUMPDEST PUSH2 0x298D SWAP1 DUP4 RETURNDATASIZE DUP6 GT PUSH2 0x6F7 JUMPI PUSH2 0x6E8 DUP2 DUP4 PUSH2 0x3DEF JUMP JUMPDEST POP CODESIZE PUSH2 0x2771 JUMP JUMPDEST SWAP1 POP PUSH1 0x18 SLOAD LT CODESIZE PUSH2 0x272C JUMP JUMPDEST POP CALLVALUE PUSH2 0x382 JUMPI DUP1 PUSH1 0x3 NOT CALLDATASIZE ADD SLT PUSH2 0x382 JUMPI PUSH2 0x29B9 PUSH2 0x49F4 JUMP JUMPDEST PUSH1 0x1 PUSH1 0xFF NOT PUSH1 0x4F SLOAD AND OR PUSH1 0x4F SSTORE PUSH32 0x4CB3183D0BF66F9634B15CFC3539FDDDC96C2C9324848AF89B56586A6739FEC4 DUP2 DUP1 LOG1 DUP1 RETURN JUMPDEST POP PUSH1 0x40 CALLDATASIZE PUSH1 0x3 NOT ADD SLT PUSH2 0x382 JUMPI PUSH2 0x2A02 PUSH2 0x3D2A JUMP JUMPDEST PUSH1 0x24 SWAP2 DUP3 CALLDATALOAD PUSH1 0x1 PUSH1 0x1 PUSH1 0x40 SHL SUB DUP2 GT PUSH2 0x5FC JUMPI CALLDATASIZE PUSH1 0x23 DUP3 ADD SLT ISZERO PUSH2 0x5FC JUMPI DUP1 PUSH1 0x4 ADD CALLDATALOAD PUSH2 0x2A2E DUP2 PUSH2 0x3E12 JUMP JUMPDEST SWAP4 PUSH2 0x2A3C PUSH1 0x40 MLOAD SWAP6 DUP7 PUSH2 0x3DEF JUMP JUMPDEST DUP2 DUP6 MSTORE PUSH1 0x20 SWAP2 DUP3 DUP7 ADD SWAP4 CALLDATASIZE DUP9 DUP4 DUP4 ADD ADD GT PUSH2 0x295F JUMPI DUP2 DUP7 SWAP3 DUP10 DUP7 SWAP4 ADD DUP8 CALLDATACOPY DUP8 ADD ADD MSTORE PUSH1 0x1 PUSH1 0x1 PUSH1 0xA0 SHL SUB PUSH32 0x0 DUP2 AND ADDRESS DUP2 EQ SWAP1 DUP2 ISZERO PUSH2 0x2C04 JUMPI JUMPDEST POP PUSH2 0x26CF JUMPI PUSH2 0x2AA1 PUSH2 0x49F4 JUMP JUMPDEST DUP2 AND SWAP5 PUSH1 0x40 MLOAD PUSH4 0x52D1902D PUSH1 0xE0 SHL DUP2 MSTORE DUP4 DUP2 PUSH1 0x4 DUP2 DUP11 GAS STATICCALL DUP7 SWAP2 DUP2 PUSH2 0x2BD1 JUMPI JUMPDEST POP PUSH2 0x2ADE JUMPI PUSH1 0x40 MLOAD PUSH4 0x4C9C8CE3 PUSH1 0xE0 SHL DUP2 MSTORE PUSH1 0x4 DUP2 ADD DUP9 SWAP1 MSTORE DUP9 SWAP1 REVERT JUMPDEST DUP7 SWAP1 DUP9 PUSH1 0x0 DUP1 MLOAD PUSH1 0x20 PUSH2 0x5E7C DUP4 CODECOPY DUP2 MLOAD SWAP2 MSTORE SWAP2 DUP3 DUP2 SUB PUSH2 0x2BBC JUMPI POP DUP5 EXTCODESIZE ISZERO PUSH2 0x2BA6 JUMPI POP DUP1 SLOAD PUSH1 0x1 PUSH1 0x1 PUSH1 0xA0 SHL SUB NOT AND DUP3 OR SWAP1 SSTORE PUSH1 0x40 MLOAD DUP7 SWAP3 SWAP2 PUSH32 0xBC7CD75A20EE27FD9ADEBAB32041F755214DBC6BFFA90CC0225B39DA2E5C2D3B DUP5 DUP1 LOG2 DUP2 MLOAD ISZERO PUSH2 0x2B88 JUMPI POP PUSH2 0x2B7B SWAP5 DUP3 SWAP2 MLOAD SWAP1 DUP5 GAS DELEGATECALL SWAP1 RETURNDATASIZE ISZERO PUSH2 0x2B7F JUMPI RETURNDATASIZE PUSH2 0x2B5F DUP2 PUSH2 0x3E12 JUMP JUMPDEST SWAP1 PUSH2 0x2B6D PUSH1 0x40 MLOAD SWAP3 DUP4 PUSH2 0x3DEF JUMP JUMPDEST DUP2 MSTORE DUP6 DUP2 SWAP5 RETURNDATASIZE SWAP3 ADD RETURNDATACOPY PUSH2 0x5D78 JUMP JUMPDEST POP DUP1 RETURN JUMPDEST PUSH1 0x60 SWAP3 POP PUSH2 0x5D78 JUMP JUMPDEST SWAP5 POP POP POP POP POP CALLVALUE PUSH2 0x2B97 JUMPI POP DUP1 RETURN JUMPDEST PUSH4 0xB398979F PUSH1 0xE0 SHL DUP2 MSTORE PUSH1 0x4 SWAP1 REVERT JUMPDEST PUSH1 0x40 MLOAD PUSH4 0x4C9C8CE3 PUSH1 0xE0 SHL DUP2 MSTORE PUSH1 0x4 DUP2 ADD DUP5 SWAP1 MSTORE REVERT JUMPDEST PUSH1 0x40 MLOAD SWAP1 PUSH4 0x2A875269 PUSH1 0xE2 SHL DUP3 MSTORE PUSH1 0x4 DUP3 ADD MSTORE REVERT JUMPDEST SWAP1 SWAP2 POP DUP5 DUP2 DUP2 RETURNDATASIZE DUP4 GT PUSH2 0x2BFD JUMPI JUMPDEST PUSH2 0x2BE9 DUP2 DUP4 PUSH2 0x3DEF JUMP JUMPDEST DUP2 ADD SUB SLT PUSH2 0x2BF9 JUMPI MLOAD SWAP1 CODESIZE PUSH2 0x2AC1 JUMP JUMPDEST DUP7 DUP1 REVERT JUMPDEST POP RETURNDATASIZE PUSH2 0x2BDF JUMP JUMPDEST SWAP1 POP DUP2 PUSH1 0x0 DUP1 MLOAD PUSH1 0x20 PUSH2 0x5E7C DUP4 CODECOPY DUP2 MLOAD SWAP2 MSTORE SLOAD AND EQ ISZERO CODESIZE PUSH2 0x2A94 JUMP JUMPDEST POP CALLVALUE PUSH2 0x382 JUMPI PUSH2 0x2C2F CALLDATASIZE PUSH2 0x3DC6 JUMP JUMPDEST SWAP1 PUSH2 0x2C38 PUSH2 0x4A2D JUMP JUMPDEST PUSH2 0x2C47 PUSH1 0xFF PUSH1 0x4F SLOAD AND ISZERO PUSH2 0x3EF3 JUMP JUMPDEST CALLER DUP4 MSTORE PUSH1 0x20 SWAP1 PUSH1 0x10 DUP3 MSTORE PUSH1 0x40 DUP5 KECCAK256 SWAP3 PUSH1 0x1 DUP5 ADD SWAP4 DUP5 SLOAD ISZERO PUSH2 0x3015 JUMPI PUSH1 0x3 ADD SLOAD PUSH1 0xFF AND PUSH2 0x3003 JUMPI PUSH1 0x7 DUP2 EQ ISZERO DUP1 PUSH2 0x2FF8 JUMPI JUMPDEST DUP1 PUSH2 0x2FED JUMPI JUMPDEST PUSH2 0x2FDB JUMPI DUP2 ISZERO PUSH2 0x248E JUMPI DUP5 SLOAD PUSH1 0x40 MLOAD PUSH4 0x23B872DD PUSH1 0xE0 SHL DUP2 MSTORE PUSH1 0x1 PUSH1 0x1 PUSH1 0xA0 SHL SUB SWAP6 SWAP2 DUP6 SWAP1 DUP3 SWAP1 DUP9 AND DUP2 DUP11 DUP2 PUSH2 0x2CB9 DUP11 ADDRESS CALLER PUSH1 0x4 DUP6 ADD PUSH2 0x3F4C JUMP JUMPDEST SUB SWAP3 GAS CALL DUP1 ISZERO PUSH2 0x2FD0 JUMPI PUSH2 0x2FB3 JUMPI JUMPDEST POP PUSH2 0x2CD4 PUSH1 0x1A SLOAD PUSH2 0x45CF JUMP JUMPDEST PUSH1 0x1A DUP2 SWAP1 SSTORE CALLER DUP8 MSTORE PUSH1 0x11 DUP6 MSTORE PUSH1 0x40 DUP1 DUP9 KECCAK256 SWAP1 MLOAD SWAP2 PUSH1 0xC0 DUP4 ADD PUSH1 0x1 PUSH1 0x1 PUSH1 0x40 SHL SUB DUP2 GT DUP5 DUP3 LT OR PUSH2 0x15B0 JUMPI PUSH1 0x40 MSTORE DUP3 MSTORE DUP6 DUP3 ADD DUP6 DUP2 MSTORE PUSH1 0x40 DUP4 ADD TIMESTAMP DUP2 MSTORE PUSH1 0x60 DUP5 ADD SWAP1 DUP7 DUP3 MSTORE PUSH1 0x80 DUP6 ADD SWAP3 PUSH1 0x1 DUP5 MSTORE PUSH1 0xA0 DUP7 ADD SWAP5 DUP13 DUP7 MSTORE DUP1 SLOAD SWAP1 PUSH1 0x1 PUSH1 0x40 SHL DUP3 LT ISZERO PUSH2 0x2F9F JUMPI SWAP1 PUSH2 0x2D48 SWAP2 PUSH1 0x1 DUP3 ADD DUP2 SSTORE PUSH2 0x3E64 JUMP JUMPDEST SWAP7 SWAP1 SWAP7 PUSH2 0x2F8B JUMPI SWAP2 PUSH2 0x2D87 SWAP4 SWAP2 PUSH1 0x5 SWAP7 SWAP6 SWAP4 MLOAD DUP9 SSTORE MLOAD PUSH1 0x1 DUP9 ADD SSTORE MLOAD PUSH1 0x2 DUP8 ADD SSTORE MLOAD PUSH1 0x3 DUP7 ADD SSTORE MLOAD ISZERO ISZERO PUSH1 0x4 DUP6 ADD SWAP1 PUSH1 0xFF DUP1 NOT DUP4 SLOAD AND SWAP2 ISZERO ISZERO AND OR SWAP1 SSTORE JUMP JUMPDEST MLOAD SWAP2 ADD SSTORE PUSH1 0x1A SLOAD DUP7 MSTORE PUSH1 0x1E DUP5 MSTORE PUSH1 0x40 DUP1 DUP8 KECCAK256 DUP1 SLOAD PUSH1 0x1 PUSH1 0x1 PUSH1 0xA0 SHL SUB NOT AND CALLER SWAP1 DUP2 OR SWAP1 SWAP2 SSTORE DUP8 MSTORE PUSH1 0xF DUP6 MSTORE DUP7 KECCAK256 PUSH1 0xA ADD DUP1 SLOAD SWAP2 DUP3 ISZERO PUSH2 0x2F7D JUMPI JUMPDEST POP POP PUSH1 0x96 DUP2 MUL SWAP1 DUP1 DUP3 DIV PUSH1 0x96 EQ SWAP1 ISZERO OR ISZERO PUSH2 0x2F69 JUMPI PUSH1 0x64 SWAP1 DIV DUP3 SUB PUSH2 0x248E JUMPI PUSH32 0xA8A1B9E33E503EED12BF7E7C8C01C7F3B60217A496BDDD0F5DB351DD8C056C1C SWAP1 PUSH2 0x2E0B CALLER PUSH2 0x4F50 JUMP JUMPDEST PUSH1 0x1A SLOAD SWAP1 PUSH2 0x2E20 PUSH1 0x40 MLOAD SWAP3 DUP4 SWAP3 CALLER SWAP7 DUP5 PUSH2 0x3DB0 JUMP JUMPDEST SUB SWAP1 LOG2 CALLER DUP4 MSTORE PUSH1 0xF DUP2 MSTORE PUSH1 0x6 PUSH1 0x40 DUP5 KECCAK256 ADD SWAP2 DUP4 DUP4 SLOAD SWAP4 DUP5 PUSH2 0x2E52 JUMPI JUMPDEST POP PUSH1 0x1 PUSH1 0x0 DUP1 MLOAD PUSH1 0x20 PUSH2 0x5F3C DUP4 CODECOPY DUP2 MLOAD SWAP2 MSTORE SSTORE DUP1 RETURN JUMPDEST SSTORE PUSH1 0x17 SLOAD DUP4 DUP2 LT ISZERO DUP1 PUSH2 0x2F00 JUMPI JUMPDEST PUSH2 0x2E6C JUMPI JUMPDEST DUP5 SWAP1 PUSH2 0x2E3C JUMP JUMPDEST DUP4 PUSH2 0x2E76 SWAP2 PUSH2 0x3FC4 JUMP JUMPDEST PUSH1 0x17 SSTORE DUP4 SLOAD AND SWAP1 DUP1 PUSH1 0x40 MLOAD DUP1 SWAP4 PUSH4 0xA9059CBB PUSH1 0xE0 SHL DUP3 MSTORE DUP2 DUP8 DUP2 PUSH2 0x2E9E DUP10 CALLER PUSH1 0x4 DUP5 ADD PUSH2 0x3E49 JUMP JUMPDEST SUB SWAP3 GAS CALL SWAP2 DUP3 ISZERO PUSH2 0x6FE JUMPI PUSH32 0x3437B9EA7FA19C6D233DD70CC787A70FAB87CEE64D8BA4571512CC84402748F9 SWAP3 PUSH2 0x2EE3 JUMPI JUMPDEST POP PUSH1 0x40 MLOAD SWAP3 DUP4 MSTORE CALLER SWAP3 LOG2 CODESIZE DUP1 DUP1 DUP1 PUSH2 0x2E65 JUMP JUMPDEST PUSH2 0x2EF9 SWAP1 DUP3 RETURNDATASIZE DUP5 GT PUSH2 0x6F7 JUMPI PUSH2 0x6E8 DUP2 DUP4 PUSH2 0x3DEF JUMP JUMPDEST POP CODESIZE PUSH2 0x2ED0 JUMP JUMPDEST POP PUSH1 0x24 DUP4 DUP4 DUP8 SLOAD AND PUSH1 0x40 MLOAD SWAP3 DUP4 DUP1 SWAP3 PUSH4 0x70A08231 PUSH1 0xE0 SHL DUP3 MSTORE ADDRESS PUSH1 0x4 DUP4 ADD MSTORE GAS STATICCALL DUP1 ISZERO PUSH2 0x28FD JUMPI DUP6 SWAP2 DUP8 SWAP2 PUSH2 0x2F38 JUMPI JUMPDEST POP LT ISZERO PUSH2 0x2E60 JUMP JUMPDEST DUP1 SWAP3 POP DUP6 DUP1 SWAP3 POP RETURNDATASIZE DUP4 GT PUSH2 0x2F62 JUMPI JUMPDEST PUSH2 0x2F51 DUP2 DUP4 PUSH2 0x3DEF JUMP JUMPDEST DUP2 ADD SUB SLT PUSH2 0xC9A JUMPI DUP5 SWAP1 MLOAD CODESIZE PUSH2 0x2F30 JUMP JUMPDEST POP RETURNDATASIZE PUSH2 0x2F47 JUMP JUMPDEST PUSH4 0x4E487B71 PUSH1 0xE0 SHL DUP7 MSTORE PUSH1 0x11 PUSH1 0x4 MSTORE PUSH1 0x24 DUP7 REVERT JUMPDEST SWAP1 SWAP2 POP SLOAD DUP1 SWAP2 SSTORE CODESIZE DUP1 PUSH2 0x2DC1 JUMP JUMPDEST PUSH4 0x4E487B71 PUSH1 0xE0 SHL DUP14 MSTORE PUSH1 0x4 DUP14 SWAP1 MSTORE PUSH1 0x24 DUP14 REVERT JUMPDEST PUSH4 0x4E487B71 PUSH1 0xE0 SHL DUP15 MSTORE PUSH1 0x41 PUSH1 0x4 MSTORE PUSH1 0x24 DUP15 REVERT JUMPDEST PUSH2 0x2FC9 SWAP1 DUP6 RETURNDATASIZE DUP8 GT PUSH2 0x6F7 JUMPI PUSH2 0x6E8 DUP2 DUP4 PUSH2 0x3DEF JUMP JUMPDEST POP CODESIZE PUSH2 0x2CC8 JUMP JUMPDEST PUSH1 0x40 MLOAD RETURNDATASIZE DUP10 DUP3 RETURNDATACOPY RETURNDATASIZE SWAP1 REVERT JUMPDEST PUSH1 0x40 MLOAD PUSH4 0x4DC7F5FF PUSH1 0xE1 SHL DUP2 MSTORE PUSH1 0x4 SWAP1 REVERT JUMPDEST POP PUSH1 0x1E DUP2 EQ ISZERO PUSH2 0x2C7E JUMP JUMPDEST POP PUSH1 0xF DUP2 EQ ISZERO PUSH2 0x2C78 JUMP JUMPDEST PUSH1 0x40 MLOAD PUSH4 0x1ECB2C4F PUSH1 0xE3 SHL DUP2 MSTORE PUSH1 0x4 SWAP1 REVERT JUMPDEST PUSH1 0x40 MLOAD PUSH4 0x4065AAF1 PUSH1 0xE1 SHL DUP2 MSTORE PUSH1 0x4 SWAP1 REVERT JUMPDEST POP CALLVALUE PUSH2 0x382 JUMPI DUP1 PUSH1 0x3 NOT CALLDATASIZE ADD SLT PUSH2 0x382 JUMPI PUSH2 0x3040 PUSH2 0x49F4 JUMP JUMPDEST PUSH1 0xFF NOT PUSH1 0x4F SLOAD AND PUSH1 0x4F SSTORE PUSH32 0x15DE7AD89D29FD1C6D2E6B1E878453569B4080EDF34E0105FAAA3BD52F018530 DUP2 DUP1 LOG1 DUP1 RETURN JUMPDEST POP CALLVALUE PUSH2 0x382 JUMPI DUP1 PUSH1 0x3 NOT CALLDATASIZE ADD SLT PUSH2 0x382 JUMPI PUSH1 0x20 PUSH1 0x40 MLOAD PUSH1 0x3C DUP2 MSTORE RETURN JUMPDEST POP CALLVALUE PUSH2 0x382 JUMPI DUP1 PUSH1 0x3 NOT CALLDATASIZE ADD SLT PUSH2 0x382 JUMPI PUSH1 0x3 SLOAD PUSH1 0x40 MLOAD PUSH1 0x1 PUSH1 0x1 PUSH1 0xA0 SHL SUB SWAP1 SWAP2 AND DUP2 MSTORE PUSH1 0x20 SWAP1 RETURN JUMPDEST POP CALLVALUE PUSH2 0x382 JUMPI PUSH1 0x20 CALLDATASIZE PUSH1 0x3 NOT ADD SLT PUSH2 0x382 JUMPI PUSH1 0x20 SWAP1 PUSH1 0x4 CALLDATALOAD DUP2 MSTORE PUSH1 0x1E DUP3 MSTORE PUSH1 0x40 PUSH1 0x1 DUP1 PUSH1 0xA0 SHL SUB SWAP2 KECCAK256 SLOAD AND PUSH1 0x40 MLOAD SWAP1 DUP2 MSTORE RETURN JUMPDEST POP CALLVALUE PUSH2 0x382 JUMPI DUP1 PUSH1 0x3 NOT CALLDATASIZE ADD SLT PUSH2 0x382 JUMPI PUSH2 0x3102 PUSH2 0x4A2D JUMP JUMPDEST PUSH2 0xFF7 PUSH2 0x4055 JUMP JUMPDEST POP CALLVALUE PUSH2 0x382 JUMPI DUP1 PUSH1 0x3 NOT CALLDATASIZE ADD SLT PUSH2 0x382 JUMPI PUSH1 0x20 PUSH1 0xD SLOAD PUSH1 0x40 MLOAD SWAP1 DUP2 MSTORE RETURN JUMPDEST POP CALLVALUE PUSH2 0x382 JUMPI DUP1 PUSH1 0x3 NOT CALLDATASIZE ADD SLT PUSH2 0x382 JUMPI PUSH1 0x20 PUSH1 0xFF PUSH1 0x4F SLOAD AND PUSH1 0x40 MLOAD SWAP1 ISZERO ISZERO DUP2 MSTORE RETURN JUMPDEST POP CALLVALUE PUSH2 0x382 JUMPI DUP1 PUSH1 0x3 NOT CALLDATASIZE ADD SLT PUSH2 0x382 JUMPI PUSH1 0x4F SLOAD PUSH1 0x40 MLOAD PUSH1 0x8 SWAP2 SWAP1 SWAP2 SHR PUSH1 0x1 PUSH1 0x1 PUSH1 0xA0 SHL SUB AND DUP2 MSTORE PUSH1 0x20 SWAP1 RETURN JUMPDEST POP CALLVALUE PUSH2 0x382 JUMPI PUSH1 0x20 CALLDATASIZE PUSH1 0x3 NOT ADD SLT PUSH2 0x382 JUMPI PUSH1 0x4 CALLDATALOAD SWAP1 PUSH1 0x14 SLOAD DUP3 LT ISZERO PUSH2 0x382 JUMPI PUSH1 0x20 DUP2 PUSH1 0x14 PUSH1 0x3 SWAP4 MSTORE KECCAK256 SWAP2 MUL ADD DUP1 SLOAD PUSH2 0x1616 PUSH1 0x2 PUSH1 0x1 DUP5 ADD SLOAD SWAP4 ADD SLOAD PUSH1 0x40 MLOAD SWAP4 DUP5 SWAP4 DUP5 PUSH2 0x3DB0 JUMP JUMPDEST POP CALLVALUE PUSH2 0x382 JUMPI DUP1 PUSH1 0x3 NOT CALLDATASIZE ADD SLT PUSH2 0x382 JUMPI PUSH1 0x20 PUSH1 0x40 MLOAD PUSH9 0x3635C9ADC5DEA00000 DUP2 MSTORE RETURN JUMPDEST POP CALLVALUE PUSH2 0x382 JUMPI DUP1 PUSH1 0x3 NOT CALLDATASIZE ADD SLT PUSH2 0x382 JUMPI PUSH1 0x20 PUSH1 0x18 SLOAD PUSH1 0x40 MLOAD SWAP1 DUP2 MSTORE RETURN JUMPDEST POP CALLVALUE PUSH2 0x382 JUMPI PUSH1 0x20 CALLDATASIZE PUSH1 0x3 NOT ADD SLT PUSH2 0x382 JUMPI PUSH2 0x160 SWAP1 PUSH1 0x1 PUSH1 0x1 PUSH1 0xA0 SHL SUB SWAP1 PUSH1 0x40 SWAP1 DUP3 PUSH2 0x322D PUSH2 0x3D2A JUMP JUMPDEST AND DUP2 MSTORE PUSH1 0xF PUSH1 0x20 MSTORE KECCAK256 SWAP1 DUP2 SLOAD AND SWAP1 PUSH1 0x1 DUP2 ADD SLOAD SWAP1 PUSH1 0x2 DUP2 ADD SLOAD PUSH1 0x3 DUP3 ADD SLOAD PUSH1 0x4 DUP4 ADD SLOAD PUSH1 0xFF PUSH1 0x5 DUP6 ADD SLOAD AND PUSH1 0x6 DUP6 ADD SLOAD SWAP2 PUSH1 0x7 DUP7 ADD SLOAD SWAP4 PUSH1 0x8 DUP8 ADD SLOAD SWAP6 PUSH1 0xA PUSH1 0x9 DUP10 ADD SLOAD SWAP9 ADD SLOAD SWAP9 PUSH1 0x40 MLOAD SWAP11 DUP12 MSTORE PUSH1 0x20 DUP12 ADD MSTORE PUSH1 0x40 DUP11 ADD MSTORE PUSH1 0x60 DUP10 ADD MSTORE PUSH1 0x80 DUP9 ADD MSTORE ISZERO ISZERO PUSH1 0xA0 DUP8 ADD MSTORE PUSH1 0xC0 DUP7 ADD MSTORE PUSH1 0xE0 DUP6 ADD MSTORE PUSH2 0x100 DUP5 ADD MSTORE PUSH2 0x120 DUP4 ADD MSTORE PUSH2 0x140 DUP3 ADD MSTORE RETURN JUMPDEST POP CALLVALUE PUSH2 0x382 JUMPI PUSH1 0x20 CALLDATASIZE PUSH1 0x3 NOT ADD SLT PUSH2 0x382 JUMPI PUSH1 0x20 PUSH2 0x32D3 PUSH1 0x4 CALLDATALOAD PUSH2 0x4008 JUMP JUMPDEST PUSH1 0x40 MLOAD SWAP1 DUP2 MSTORE RETURN JUMPDEST POP CALLVALUE PUSH2 0x382 JUMPI DUP1 PUSH1 0x3 NOT CALLDATASIZE ADD SLT PUSH2 0x382 JUMPI PUSH1 0x1 SLOAD PUSH1 0x40 MLOAD PUSH1 0x1 PUSH1 0x1 PUSH1 0xA0 SHL SUB SWAP1 SWAP2 AND DUP2 MSTORE PUSH1 0x20 SWAP1 RETURN JUMPDEST POP CALLVALUE PUSH2 0x382 JUMPI DUP1 PUSH1 0x3 NOT CALLDATASIZE ADD SLT PUSH2 0x382 JUMPI PUSH1 0x20 SWAP1 PUSH1 0x40 MLOAD SWAP1 DUP2 MSTORE RETURN JUMPDEST POP CALLVALUE PUSH2 0x382 JUMPI PUSH1 0x20 DUP1 PUSH1 0x3 NOT CALLDATASIZE ADD SLT PUSH2 0x5FC JUMPI PUSH1 0x4 CALLDATALOAD PUSH2 0x333E PUSH2 0x4A2D JUMP JUMPDEST PUSH2 0x334F PUSH1 0xFF PUSH1 0x16 SLOAD PUSH1 0x8 SHR AND PUSH2 0x3FD1 JUMP JUMPDEST CALLER DUP4 MSTORE PUSH1 0x11 DUP3 MSTORE PUSH1 0x40 DUP4 KECCAK256 DUP1 SLOAD DUP3 LT DUP1 PUSH2 0x380F JUMPI JUMPDEST ISZERO PUSH2 0x37DA JUMPI SWAP1 PUSH2 0x3373 SWAP2 PUSH2 0x3E64 JUMP JUMPDEST POP SWAP1 PUSH1 0x1 DUP3 ADD SWAP2 DUP3 SLOAD SWAP3 PUSH1 0x2 DUP3 ADD SLOAD SWAP2 PUSH1 0x3 DUP2 ADD SLOAD SWAP5 PUSH1 0x5 DUP3 ADD DUP1 SLOAD SWAP5 CALLER DUP10 MSTORE PUSH1 0xF SWAP8 DUP9 DUP9 MSTORE PUSH1 0x9 PUSH1 0x40 DUP12 KECCAK256 ADD SLOAD PUSH1 0x10 DUP10 MSTORE PUSH1 0x1 PUSH1 0x40 DUP13 KECCAK256 ADD SLOAD PUSH1 0xC SLOAD SWAP2 PUSH1 0x40 MLOAD SWAP4 PUSH2 0x100 DUP6 ADD SWAP6 DUP6 DUP8 LT PUSH1 0x1 DUP1 PUSH1 0x40 SHL SUB DUP9 GT OR PUSH2 0x15B0 JUMPI PUSH2 0x3400 SWAP7 PUSH1 0x40 MSTORE DUP9 DUP7 MSTORE DUP13 DUP7 ADD MSTORE PUSH1 0x40 DUP6 ADD MSTORE DUP10 PUSH1 0x60 DUP6 ADD MSTORE PUSH1 0x80 DUP5 ADD MSTORE PUSH1 0xA0 DUP4 ADD MSTORE PUSH1 0xC0 DUP3 ADD MSTORE PUSH1 0x3C PUSH1 0xE0 DUP3 ADD MSTORE PUSH2 0x4A5D JUMP JUMPDEST SWAP5 SWAP2 SWAP3 SWAP1 SWAP7 DUP4 SWAP6 ISZERO PUSH2 0x37A7 JUMPI DUP4 PUSH2 0x3416 SWAP2 PUSH2 0x3F97 JUMP JUMPDEST SWAP1 SSTORE PUSH1 0x4 DUP2 ADD DUP1 SLOAD PUSH1 0xFF NOT AND SWAP1 SSTORE DUP9 SLOAD PUSH1 0x1 PUSH1 0x1 PUSH1 0xA0 SHL SUB SWAP4 PUSH2 0x3441 SWAP2 DUP9 SWAP2 SWAP1 ADDRESS SWAP1 CALLER SWAP1 DUP9 AND PUSH2 0x4B4F JUMP JUMPDEST ISZERO PUSH2 0x3772 JUMPI PUSH2 0x3456 SWAP1 DUP7 PUSH2 0x3744 JUMPI JUMPDEST SLOAD PUSH2 0x4DBC JUMP JUMPDEST DUP1 PUSH2 0x3488 JUMPI JUMPDEST POP POP POP SLOAD SWAP1 PUSH1 0x40 MLOAD SWAP2 DUP3 MSTORE DUP3 DUP3 ADD MSTORE PUSH1 0x0 DUP1 MLOAD PUSH1 0x20 PUSH2 0x5F5C DUP4 CODECOPY DUP2 MLOAD SWAP2 MSTORE PUSH1 0x40 CALLER SWAP3 LOG2 PUSH2 0xFDE CALLER PUSH2 0x4F50 JUMP JUMPDEST CALLER DUP9 MSTORE DUP7 DUP7 MSTORE PUSH2 0x34A5 PUSH1 0x40 DUP10 KECCAK256 PUSH1 0x3 PUSH1 0x4 DUP3 ADD SLOAD SWAP2 ADD SLOAD SWAP1 PUSH2 0x3FC4 JUMP JUMPDEST DUP1 SWAP2 GT PUSH2 0x373C JUMPI JUMPDEST POP DUP2 PUSH2 0x34BA JUMPI JUMPDEST DUP1 PUSH2 0x345C JUMP JUMPDEST CALLER DUP8 MSTORE DUP6 DUP6 MSTORE PUSH1 0x3 PUSH1 0x40 DUP9 KECCAK256 ADD PUSH2 0x34D2 DUP4 DUP3 SLOAD PUSH2 0x3F97 JUMP JUMPDEST SWAP1 SSTORE DUP2 PUSH1 0x1 SHR SWAP1 DUP1 DUP9 SLOAD AND SWAP2 PUSH1 0x40 MLOAD SWAP3 PUSH4 0x70A08231 PUSH1 0xE0 SHL SWAP4 DUP5 DUP2 MSTORE ADDRESS PUSH1 0x4 DUP3 ADD MSTORE DUP9 DUP2 PUSH1 0x24 DUP2 DUP6 GAS STATICCALL DUP1 ISZERO PUSH2 0x129B JUMPI DUP4 SWAP2 DUP13 SWAP2 PUSH2 0x370B JUMPI JUMPDEST POP LT ISZERO DUP1 PUSH2 0x3702 JUMPI JUMPDEST PUSH2 0x36B5 JUMPI JUMPDEST POP PUSH1 0x18 SLOAD DUP1 ISZERO DUP1 ISZERO PUSH2 0x36A1 JUMPI JUMPDEST ISZERO PUSH2 0x3671 JUMPI POP PUSH2 0x3540 PUSH8 0xDE0B6B3A7640000 SWAP2 JUMPDEST DUP6 PUSH2 0x3FC4 JUMP JUMPDEST PUSH8 0xDE0B6B3A7640000 SWAP1 DUP2 DUP2 MUL SWAP2 DUP2 DUP4 DIV EQ SWAP1 ISZERO OR ISZERO PUSH2 0x365D JUMPI DUP10 SWAP4 SWAP3 SWAP2 PUSH2 0x3567 SWAP2 PUSH2 0x3FA4 JUMP JUMPDEST SWAP1 PUSH1 0x1 SLOAD AND PUSH1 0x40 MLOAD SWAP3 DUP4 MSTORE ADDRESS PUSH1 0x4 DUP5 ADD MSTORE DUP8 DUP4 PUSH1 0x24 DUP2 DUP5 GAS STATICCALL DUP1 ISZERO PUSH2 0x6FE JUMPI DUP9 SWAP4 DUP6 SWAP2 PUSH2 0x3628 JUMPI JUMPDEST POP DUP3 GT ISZERO DUP1 PUSH2 0x361F JUMPI JUMPDEST PUSH2 0x35C9 JUMPI JUMPDEST POP POP POP POP PUSH1 0x40 MLOAD SWAP1 DUP2 MSTORE PUSH1 0x0 DUP5 DUP3 ADD MSTORE PUSH1 0x0 DUP1 MLOAD PUSH1 0x20 PUSH2 0x5F1C DUP4 CODECOPY DUP2 MLOAD SWAP2 MSTORE PUSH1 0x40 CALLER SWAP3 LOG2 CODESIZE DUP1 PUSH2 0x34B4 JUMP JUMPDEST PUSH2 0x35EA SWAP2 PUSH1 0x40 MLOAD SWAP5 DUP6 DUP1 SWAP5 DUP2 SWAP4 PUSH4 0xA9059CBB PUSH1 0xE0 SHL DUP4 MSTORE CALLER PUSH1 0x4 DUP5 ADD PUSH2 0x3E49 JUMP JUMPDEST SUB SWAP3 GAS CALL DUP1 ISZERO PUSH2 0x2FD0 JUMPI PUSH2 0x3602 JUMPI JUMPDEST DUP5 DUP2 DUP9 SWAP3 PUSH2 0x359E JUMP JUMPDEST PUSH2 0x3618 SWAP1 DUP6 RETURNDATASIZE DUP8 GT PUSH2 0x6F7 JUMPI PUSH2 0x6E8 DUP2 DUP4 PUSH2 0x3DEF JUMP JUMPDEST POP CODESIZE PUSH2 0x35F9 JUMP JUMPDEST POP DUP2 ISZERO ISZERO PUSH2 0x3599 JUMP JUMPDEST SWAP4 DUP1 SWAP3 SWAP6 POP DUP5 SWAP2 POP RETURNDATASIZE DUP4 GT PUSH2 0x3656 JUMPI JUMPDEST PUSH2 0x3642 DUP2 DUP4 PUSH2 0x3DEF JUMP JUMPDEST DUP2 ADD SUB SLT PUSH2 0xC9A JUMPI DUP9 SWAP3 DUP2 DUP9 SWAP4 MLOAD SWAP1 PUSH2 0x358F JUMP JUMPDEST POP RETURNDATASIZE PUSH2 0x3638 JUMP JUMPDEST PUSH4 0x4E487B71 PUSH1 0xE0 SHL DUP11 MSTORE PUSH1 0x11 PUSH1 0x4 MSTORE PUSH1 0x24 DUP11 REVERT JUMPDEST PUSH1 0x17 SLOAD PUSH8 0xDE0B6B3A7640000 SWAP1 DUP2 DUP2 MUL SWAP2 DUP2 DUP4 DIV EQ SWAP1 ISZERO OR ISZERO PUSH2 0x12A6 JUMPI PUSH2 0x3540 SWAP2 PUSH2 0x369B SWAP2 PUSH2 0x3FA4 JUMP JUMPDEST SWAP2 PUSH2 0x353A JUMP JUMPDEST POP PUSH9 0x3635C9ADC5DEA00000 PUSH1 0x17 SLOAD LT PUSH2 0x3526 JUMP JUMPDEST DUP8 PUSH1 0x40 MLOAD DUP1 SWAP3 PUSH4 0xA9059CBB PUSH1 0xE0 SHL DUP3 MSTORE DUP2 DUP14 DUP2 PUSH2 0x36D6 DUP9 CALLER PUSH1 0x4 DUP5 ADD PUSH2 0x3E49 JUMP JUMPDEST SUB SWAP3 GAS CALL DUP1 ISZERO PUSH2 0x1368 JUMPI ISZERO PUSH2 0x3519 JUMPI PUSH2 0x36FB SWAP1 DUP9 RETURNDATASIZE DUP11 GT PUSH2 0x6F7 JUMPI PUSH2 0x6E8 DUP2 DUP4 PUSH2 0x3DEF JUMP JUMPDEST POP CODESIZE PUSH2 0x3519 JUMP JUMPDEST POP DUP2 ISZERO ISZERO PUSH2 0x3514 JUMP JUMPDEST DUP1 SWAP3 POP DUP11 DUP1 SWAP3 POP RETURNDATASIZE DUP4 GT PUSH2 0x3735 JUMPI JUMPDEST PUSH2 0x3724 DUP2 DUP4 PUSH2 0x3DEF JUMP JUMPDEST DUP2 ADD SUB SLT PUSH2 0xC9A JUMPI DUP3 SWAP1 MLOAD CODESIZE PUSH2 0x350B JUMP JUMPDEST POP RETURNDATASIZE PUSH2 0x371A JUMP JUMPDEST SWAP2 POP CODESIZE PUSH2 0x34AD JUMP JUMPDEST PUSH2 0x3750 DUP8 PUSH1 0x17 SLOAD PUSH2 0x3F97 JUMP JUMPDEST PUSH1 0x17 SSTORE CALLER DUP11 MSTORE DUP9 DUP9 MSTORE PUSH1 0x6 PUSH1 0x40 DUP12 KECCAK256 ADD PUSH2 0x376B DUP9 DUP3 SLOAD PUSH2 0x3F97 JUMP JUMPDEST SWAP1 SSTORE PUSH2 0x3450 JUMP JUMPDEST PUSH1 0x64 DUP8 DUP10 PUSH1 0x40 MLOAD SWAP2 PUSH3 0x461BCD PUSH1 0xE5 SHL DUP4 MSTORE PUSH1 0x4 DUP4 ADD MSTORE PUSH1 0x24 DUP3 ADD MSTORE PUSH15 0x151C985B9CD9995C8819985A5B1959 PUSH1 0x8A SHL PUSH1 0x44 DUP3 ADD MSTORE REVERT JUMPDEST PUSH1 0x40 MLOAD PUSH3 0x461BCD PUSH1 0xE5 SHL DUP2 MSTORE PUSH1 0x4 DUP2 ADD DUP11 SWAP1 MSTORE PUSH1 0xB PUSH1 0x24 DUP3 ADD MSTORE PUSH11 0x139BDD08195E1C1A5C9959 PUSH1 0xAA SHL PUSH1 0x44 DUP3 ADD MSTORE PUSH1 0x64 SWAP1 REVERT JUMPDEST PUSH1 0x40 MLOAD PUSH3 0x461BCD PUSH1 0xE5 SHL DUP2 MSTORE PUSH1 0x4 DUP2 ADD DUP5 SWAP1 MSTORE PUSH1 0xD PUSH1 0x24 DUP3 ADD MSTORE PUSH13 0x496E76616C6964207374616B65 PUSH1 0x98 SHL PUSH1 0x44 DUP3 ADD MSTORE PUSH1 0x64 SWAP1 REVERT JUMPDEST POP PUSH1 0xFF PUSH1 0x4 PUSH2 0x381E DUP5 DUP5 PUSH2 0x3E64 JUMP JUMPDEST POP ADD SLOAD AND PUSH2 0x3364 JUMP JUMPDEST POP CALLVALUE PUSH2 0x382 JUMPI DUP1 PUSH1 0x3 NOT CALLDATASIZE ADD SLT PUSH2 0x382 JUMPI PUSH1 0x20 PUSH1 0x40 MLOAD PUSH1 0x2 DUP2 MSTORE RETURN JUMPDEST POP CALLVALUE PUSH2 0x382 JUMPI PUSH1 0x20 DUP1 PUSH1 0x3 NOT CALLDATASIZE ADD SLT PUSH2 0x5FC JUMPI PUSH1 0x4 CALLDATALOAD SWAP1 PUSH2 0x3862 PUSH2 0x4A2D JUMP JUMPDEST PUSH2 0x3871 PUSH1 0xFF PUSH1 0x4F SLOAD AND ISZERO PUSH2 0x3EF3 JUMP JUMPDEST DUP2 ISZERO PUSH2 0x248E JUMPI PUSH9 0x3635C9ADC5DEA00000 DUP1 PUSH1 0x17 SLOAD LT SWAP1 DUP2 ISZERO PUSH2 0x3A95 JUMPI JUMPDEST POP PUSH2 0x2908 JUMPI DUP3 SLOAD PUSH1 0x40 MLOAD PUSH4 0x23B872DD PUSH1 0xE0 SHL DUP2 MSTORE PUSH1 0x1 PUSH1 0x1 PUSH1 0xA0 SHL SUB SWAP2 DUP4 SWAP1 DUP3 SWAP1 DUP5 AND DUP2 DUP9 DUP2 PUSH2 0x38C3 DUP11 ADDRESS CALLER PUSH1 0x4 DUP6 ADD PUSH2 0x3F4C JUMP JUMPDEST SUB SWAP3 GAS CALL DUP1 ISZERO PUSH2 0x77C JUMPI PUSH2 0x3A78 JUMPI JUMPDEST POP PUSH1 0x18 SLOAD SWAP1 PUSH2 0x38E1 DUP3 DUP6 PUSH2 0x3F6E JUMP JUMPDEST SWAP1 PUSH2 0x38F3 PUSH1 0x17 SLOAD SWAP3 PUSH2 0x280D DUP8 DUP6 PUSH2 0x3F97 JUMP JUMPDEST SWAP3 PUSH2 0x2710 DUP7 MUL PUSH2 0x270F NOT DUP8 DUP3 DIV ADD PUSH2 0x3A64 JUMPI PUSH2 0x3912 DUP5 PUSH2 0x3E8 SWAP3 PUSH2 0x3FA4 JUMP JUMPDEST GT PUSH2 0x248E JUMPI PUSH1 0x64 PUSH2 0x3925 PUSH1 0xD SLOAD DUP7 PUSH2 0x3F6E JUMP JUMPDEST DIV SWAP4 PUSH2 0x3931 DUP6 DUP3 PUSH2 0x3FC4 JUMP JUMPDEST SWAP4 DUP4 PUSH1 0x1 SLOAD AND SWAP2 PUSH1 0x40 MLOAD PUSH4 0x70A08231 PUSH1 0xE0 SHL DUP2 MSTORE ADDRESS PUSH1 0x4 DUP3 ADD MSTORE DUP9 DUP2 PUSH1 0x24 DUP2 DUP8 GAS STATICCALL DUP1 ISZERO PUSH2 0x129B JUMPI DUP3 SWAP2 DUP13 SWAP2 PUSH2 0x3A2F JUMPI JUMPDEST POP LT PUSH2 0x2908 JUMPI DUP10 SWAP4 PUSH2 0x3977 DUP11 PUSH2 0x397F SWAP5 PUSH2 0x3F97 JUMP JUMPDEST PUSH1 0x17 SSTORE PUSH2 0x3FC4 JUMP JUMPDEST PUSH1 0x18 SSTORE DUP1 EXTCODESIZE ISZERO PUSH2 0x5FC JUMPI DUP2 SWAP1 PUSH1 0x24 PUSH1 0x40 MLOAD DUP1 SWAP5 DUP2 SWAP4 PUSH4 0x852CD8D PUSH1 0xE3 SHL DUP4 MSTORE DUP10 PUSH1 0x4 DUP5 ADD MSTORE GAS CALL DUP1 ISZERO PUSH2 0x2FD0 JUMPI PUSH2 0x3A1C JUMPI JUMPDEST POP PUSH1 0x1 SLOAD AND SWAP3 DUP1 PUSH1 0x40 MLOAD DUP1 SWAP6 PUSH4 0xA9059CBB PUSH1 0xE0 SHL DUP3 MSTORE DUP2 DUP10 DUP2 PUSH2 0x39D8 DUP9 CALLER PUSH1 0x4 DUP5 ADD PUSH2 0x3E49 JUMP JUMPDEST SUB SWAP3 GAS CALL SWAP4 DUP5 ISZERO PUSH2 0x28FD JUMPI PUSH32 0x36864AEEFCE16BC4AACEEB6B0CDFB2AD1455A8CB4CCB0DB148A2BC6E7166F97C SWAP5 PUSH2 0x28DF JUMPI POP POP PUSH2 0x28C7 PUSH1 0x40 MLOAD SWAP3 DUP4 SWAP3 CALLER SWAP7 DUP5 PUSH2 0x3DB0 JUMP JUMPDEST PUSH2 0x3A28 SWAP1 SWAP7 SWAP2 SWAP7 PUSH2 0x3DDC JUMP JUMPDEST SWAP5 CODESIZE PUSH2 0x39B1 JUMP JUMPDEST DUP1 SWAP3 POP DUP11 DUP1 SWAP3 POP RETURNDATASIZE DUP4 GT PUSH2 0x3A5D JUMPI JUMPDEST PUSH2 0x3A48 DUP2 DUP4 PUSH2 0x3DEF JUMP JUMPDEST DUP2 ADD SUB SLT PUSH2 0x3A59 JUMPI DUP2 SWAP1 MLOAD CODESIZE PUSH2 0x3962 JUMP JUMPDEST DUP11 DUP1 REVERT JUMPDEST POP RETURNDATASIZE PUSH2 0x3A3E JUMP JUMPDEST PUSH4 0x4E487B71 PUSH1 0xE0 SHL DUP9 MSTORE PUSH1 0x11 PUSH1 0x4 MSTORE PUSH1 0x24 DUP9 REVERT JUMPDEST PUSH2 0x3A8E SWAP1 DUP4 RETURNDATASIZE DUP6 GT PUSH2 0x6F7 JUMPI PUSH2 0x6E8 DUP2 DUP4 PUSH2 0x3DEF JUMP JUMPDEST POP CODESIZE PUSH2 0x38D2 JUMP JUMPDEST SWAP1 POP PUSH1 0x18 SLOAD LT CODESIZE PUSH2 0x388E JUMP JUMPDEST POP CALLVALUE PUSH2 0x382 JUMPI PUSH1 0x40 CALLDATASIZE PUSH1 0x3 NOT ADD SLT PUSH2 0x382 JUMPI PUSH2 0x3ABB PUSH2 0x3D2A JUMP JUMPDEST PUSH1 0x1 PUSH1 0x1 PUSH1 0xA0 SHL SUB SWAP1 DUP2 AND DUP3 MSTORE PUSH1 0x12 PUSH1 0x20 MSTORE PUSH1 0x40 DUP3 KECCAK256 DUP1 SLOAD PUSH1 0x24 CALLDATALOAD SWAP4 SWAP1 DUP5 LT ISZERO PUSH2 0x382 JUMPI POP PUSH1 0x20 SWAP3 PUSH2 0x3AEC SWAP2 PUSH2 0x3D82 JUMP JUMPDEST SWAP2 SWAP1 SLOAD PUSH1 0x40 MLOAD SWAP3 PUSH1 0x3 SHL SHR AND DUP2 MSTORE RETURN JUMPDEST POP CALLVALUE PUSH2 0x382 JUMPI PUSH1 0x20 SWAP1 DUP2 PUSH1 0x3 NOT CALLDATASIZE ADD SLT PUSH2 0x382 JUMPI PUSH2 0x3B18 PUSH2 0x3D2A JUMP JUMPDEST CALLER DUP3 MSTORE PUSH1 0xF DUP1 DUP5 MSTORE PUSH1 0x40 DUP4 KECCAK256 SLOAD SWAP1 SWAP3 PUSH1 0x1 PUSH1 0x1 PUSH1 0xA0 SHL SUB SWAP3 SWAP1 SWAP2 DUP4 AND PUSH2 0x3C45 JUMPI DUP3 AND CALLER DUP2 EQ PUSH2 0x3C33 JUMPI DUP1 ISZERO PUSH2 0x3C21 JUMPI CALLER DUP1 DUP4 MSTORE PUSH1 0xF DUP7 MSTORE PUSH1 0x40 DUP1 DUP5 KECCAK256 DUP1 SLOAD PUSH1 0x1 PUSH1 0x1 PUSH1 0xA0 SHL SUB NOT AND DUP5 OR SWAP1 SSTORE DUP3 DUP5 MSTORE PUSH1 0x12 DUP8 MSTORE DUP4 KECCAK256 PUSH2 0x3B77 SWAP2 SWAP1 PUSH2 0x3EB0 JUMP JUMPDEST CALLER DUP3 MSTORE PUSH1 0xF DUP6 MSTORE DUP3 PUSH1 0x40 DUP4 KECCAK256 SLOAD AND SWAP4 DUP4 DUP4 SWAP6 JUMPDEST AND DUP1 ISZERO ISZERO DUP1 PUSH2 0x3C17 JUMPI JUMPDEST ISZERO PUSH2 0x3BED JUMPI DUP1 DUP5 MSTORE DUP2 DUP8 MSTORE PUSH1 0x40 DUP5 KECCAK256 SWAP1 PUSH1 0x2 DUP3 ADD DUP1 SLOAD SWAP1 PUSH1 0x1 DUP3 ADD SWAP1 DUP2 DUP4 GT PUSH2 0x3A64 JUMPI SWAP3 PUSH1 0x0 DUP1 MLOAD PUSH1 0x20 PUSH2 0x5E5C DUP4 CODECOPY DUP2 MLOAD SWAP2 MSTORE PUSH1 0x40 DUP11 SWAP7 SWAP4 SWAP5 DUP6 DUP15 DUP10 SWAP8 PUSH2 0x3BE7 SWAP10 SSTORE DUP4 MLOAD SWAP3 DUP4 MSTORE DUP3 ADD MSTORE LOG2 SLOAD AND SWAP7 PUSH2 0x45CF JUMP JUMPDEST SWAP6 PUSH2 0x3B8A JUMP JUMPDEST POP POP CALLER PUSH32 0xA6DBB5AA28F35437DE94D685D66EDCE5FB4812196B4984B91DFD5A7B38C0FB30 DUP4 DUP1 LOG3 DUP1 RETURN JUMPDEST POP PUSH1 0x1E DUP7 LT PUSH2 0x3B94 JUMP JUMPDEST PUSH1 0x40 MLOAD PUSH4 0xE6C4247B PUSH1 0xE0 SHL DUP2 MSTORE PUSH1 0x4 SWAP1 REVERT JUMPDEST PUSH1 0x40 MLOAD PUSH4 0x1ACADE89 PUSH1 0xE3 SHL DUP2 MSTORE PUSH1 0x4 SWAP1 REVERT JUMPDEST PUSH1 0x40 MLOAD PUSH4 0x682A9065 PUSH1 0xE0 SHL DUP2 MSTORE PUSH1 0x4 SWAP1 REVERT JUMPDEST POP CALLVALUE PUSH2 0x382 JUMPI DUP1 PUSH1 0x3 NOT CALLDATASIZE ADD SLT PUSH2 0x382 JUMPI PUSH1 0x20 PUSH1 0xB SLOAD PUSH1 0x40 MLOAD SWAP1 DUP2 MSTORE RETURN JUMPDEST POP CALLVALUE PUSH2 0x382 JUMPI PUSH1 0x40 CALLDATASIZE PUSH1 0x3 NOT ADD SLT PUSH2 0x382 JUMPI PUSH1 0x4 CALLDATALOAD DUP1 ISZERO ISZERO DUP1 SWAP2 SUB PUSH2 0x5FC JUMPI PUSH1 0x20 PUSH32 0x3CB373F89DE891077FE47CEC43663B6727713DE0337AF46BEBD1178122251B7 SWAP2 PUSH32 0xB886FCB5B9C12916F26D967EBE962DBD51EC249FB55961DA39C851CDFC10115C DUP3 PUSH2 0x3CE2 PUSH2 0x3D1B JUMP JUMPDEST SWAP3 PUSH2 0x3CEB PUSH2 0x49F4 JUMP JUMPDEST PUSH1 0x16 SLOAD SWAP4 ISZERO ISZERO SWAP4 PUSH2 0xFF00 DUP6 PUSH1 0x8 SHL AND SWAP1 PUSH1 0xFF DUP4 AND SWAP1 PUSH2 0xFFFF NOT AND OR OR PUSH1 0x16 SSTORE PUSH1 0x40 MLOAD SWAP1 DUP2 MSTORE LOG1 PUSH1 0x40 MLOAD SWAP1 DUP2 MSTORE LOG1 DUP1 RETURN JUMPDEST PUSH1 0x24 CALLDATALOAD SWAP1 DUP2 ISZERO ISZERO DUP3 SUB PUSH2 0xC9A JUMPI JUMP JUMPDEST PUSH1 0x4 CALLDATALOAD SWAP1 PUSH1 0x1 PUSH1 0x1 PUSH1 0xA0 SHL SUB DUP3 AND DUP3 SUB PUSH2 0xC9A JUMPI JUMP JUMPDEST PUSH1 0x24 CALLDATALOAD SWAP1 PUSH1 0x1 PUSH1 0x1 PUSH1 0xA0 SHL SUB DUP3 AND DUP3 SUB PUSH2 0xC9A JUMPI JUMP JUMPDEST PUSH1 0x44 CALLDATALOAD SWAP1 PUSH1 0x1 PUSH1 0x1 PUSH1 0xA0 SHL SUB DUP3 AND DUP3 SUB PUSH2 0xC9A JUMPI JUMP JUMPDEST PUSH1 0x64 CALLDATALOAD SWAP1 PUSH1 0x1 PUSH1 0x1 PUSH1 0xA0 SHL SUB DUP3 AND DUP3 SUB PUSH2 0xC9A JUMPI JUMP JUMPDEST DUP1 SLOAD DUP3 LT ISZERO PUSH2 0x3D9A JUMPI PUSH1 0x0 MSTORE PUSH1 0x20 PUSH1 0x0 KECCAK256 ADD SWAP1 PUSH1 0x0 SWAP1 JUMP JUMPDEST PUSH4 0x4E487B71 PUSH1 0xE0 SHL PUSH1 0x0 MSTORE PUSH1 0x32 PUSH1 0x4 MSTORE PUSH1 0x24 PUSH1 0x0 REVERT JUMPDEST PUSH1 0x40 SWAP2 SWAP5 SWAP4 SWAP3 PUSH1 0x60 DUP3 ADD SWAP6 DUP3 MSTORE PUSH1 0x20 DUP3 ADD MSTORE ADD MSTORE JUMP JUMPDEST PUSH1 0x40 SWAP1 PUSH1 0x3 NOT ADD SLT PUSH2 0xC9A JUMPI PUSH1 0x4 CALLDATALOAD SWAP1 PUSH1 0x24 CALLDATALOAD SWAP1 JUMP JUMPDEST PUSH1 0x1 PUSH1 0x1 PUSH1 0x40 SHL SUB DUP2 GT PUSH2 0x15B0 JUMPI PUSH1 0x40 MSTORE JUMP JUMPDEST PUSH1 0x1F SWAP1 SWAP2 ADD PUSH1 0x1F NOT AND DUP2 ADD SWAP1 PUSH1 0x1 PUSH1 0x1 PUSH1 0x40 SHL SUB DUP3 GT SWAP1 DUP3 LT OR PUSH2 0x15B0 JUMPI PUSH1 0x40 MSTORE JUMP JUMPDEST PUSH1 0x1 PUSH1 0x1 PUSH1 0x40 SHL SUB DUP2 GT PUSH2 0x15B0 JUMPI PUSH1 0x1F ADD PUSH1 0x1F NOT AND PUSH1 0x20 ADD SWAP1 JUMP JUMPDEST DUP1 SLOAD DUP3 LT ISZERO PUSH2 0x3D9A JUMPI PUSH1 0x0 MSTORE PUSH1 0x20 PUSH1 0x0 KECCAK256 SWAP1 PUSH1 0x1 SHL ADD SWAP1 PUSH1 0x0 SWAP1 JUMP JUMPDEST PUSH1 0x1 PUSH1 0x1 PUSH1 0xA0 SHL SUB SWAP1 SWAP2 AND DUP2 MSTORE PUSH1 0x20 DUP2 ADD SWAP2 SWAP1 SWAP2 MSTORE PUSH1 0x40 ADD SWAP1 JUMP JUMPDEST DUP1 SLOAD DUP3 LT ISZERO PUSH2 0x3D9A JUMPI PUSH1 0x0 MSTORE PUSH1 0x6 PUSH1 0x20 PUSH1 0x0 KECCAK256 SWAP2 MUL ADD SWAP1 PUSH1 0x0 SWAP1 JUMP JUMPDEST SWAP2 DUP2 PUSH1 0x1F DUP5 ADD SLT ISZERO PUSH2 0xC9A JUMPI DUP3 CALLDATALOAD SWAP2 PUSH1 0x1 PUSH1 0x1 PUSH1 0x40 SHL SUB DUP4 GT PUSH2 0xC9A JUMPI PUSH1 0x20 DUP1 DUP6 ADD SWAP5 DUP5 PUSH1 0x5 SHL ADD ADD GT PUSH2 0xC9A JUMPI JUMP JUMPDEST DUP1 SLOAD SWAP2 SWAP1 PUSH1 0x1 PUSH1 0x40 SHL DUP4 LT ISZERO PUSH2 0x15B0 JUMPI DUP3 PUSH2 0x3ED3 SWAP2 PUSH1 0x1 PUSH2 0x3EF1 SWAP6 ADD DUP2 SSTORE PUSH2 0x3D82 JUMP JUMPDEST SWAP1 SWAP2 SWAP1 PUSH1 0x1 DUP1 PUSH1 0xA0 SHL SUB DUP1 DUP5 SLOAD SWAP3 PUSH1 0x3 SHL SWAP4 AND DUP4 SHL SWAP3 SHL NOT AND OR SWAP1 SSTORE JUMP JUMPDEST JUMP JUMPDEST ISZERO PUSH2 0x3EFA JUMPI JUMP JUMPDEST PUSH1 0x40 MLOAD PUSH3 0x461BCD PUSH1 0xE5 SHL DUP2 MSTORE PUSH1 0x20 PUSH1 0x4 DUP3 ADD MSTORE PUSH1 0x12 PUSH1 0x24 DUP3 ADD MSTORE PUSH18 0x10DBDB9D1C9858DD081A5CC81C185D5CD959 PUSH1 0x72 SHL PUSH1 0x44 DUP3 ADD MSTORE PUSH1 0x64 SWAP1 REVERT JUMPDEST SWAP1 DUP2 PUSH1 0x20 SWAP2 SUB SLT PUSH2 0xC9A JUMPI MLOAD DUP1 ISZERO ISZERO DUP2 SUB PUSH2 0xC9A JUMPI SWAP1 JUMP JUMPDEST PUSH1 0x1 PUSH1 0x1 PUSH1 0xA0 SHL SUB SWAP2 DUP3 AND DUP2 MSTORE SWAP2 AND PUSH1 0x20 DUP3 ADD MSTORE PUSH1 0x40 DUP2 ADD SWAP2 SWAP1 SWAP2 MSTORE PUSH1 0x60 ADD SWAP1 JUMP JUMPDEST DUP2 DUP2 MUL SWAP3 SWAP2 DUP2 ISZERO SWAP2 DUP5 DIV EQ OR ISZERO PUSH2 0x3F81 JUMPI JUMP JUMPDEST PUSH4 0x4E487B71 PUSH1 0xE0 SHL PUSH1 0x0 MSTORE PUSH1 0x11 PUSH1 0x4 MSTORE PUSH1 0x24 PUSH1 0x0 REVERT JUMPDEST SWAP2 SWAP1 DUP3 ADD DUP1 SWAP3 GT PUSH2 0x3F81 JUMPI JUMP JUMPDEST DUP2 ISZERO PUSH2 0x3FAE JUMPI DIV SWAP1 JUMP JUMPDEST PUSH4 0x4E487B71 PUSH1 0xE0 SHL PUSH1 0x0 MSTORE PUSH1 0x12 PUSH1 0x4 MSTORE PUSH1 0x24 PUSH1 0x0 REVERT JUMPDEST SWAP2 SWAP1 DUP3 SUB SWAP2 DUP3 GT PUSH2 0x3F81 JUMPI JUMP JUMPDEST ISZERO PUSH2 0x3FD8 JUMPI JUMP JUMPDEST PUSH1 0x40 MLOAD PUSH3 0x461BCD PUSH1 0xE5 SHL DUP2 MSTORE PUSH1 0x20 PUSH1 0x4 DUP3 ADD MSTORE PUSH1 0x8 PUSH1 0x24 DUP3 ADD MSTORE PUSH8 0x111A5CD8589B1959 PUSH1 0xC2 SHL PUSH1 0x44 DUP3 ADD MSTORE PUSH1 0x64 SWAP1 REVERT JUMPDEST PUSH1 0x3 DUP2 LT ISZERO PUSH2 0x4032 JUMPI PUSH1 0x2 DUP2 LT ISZERO PUSH2 0x402C JUMPI PUSH1 0x1 GT ISZERO PUSH2 0x4027 JUMPI PUSH1 0x0 SWAP1 JUMP JUMPDEST PUSH1 0x5 SWAP1 JUMP JUMPDEST POP PUSH1 0xA SWAP1 JUMP JUMPDEST POP PUSH1 0xF SWAP1 JUMP JUMPDEST PUSH1 0x60 SWAP2 SWAP5 SWAP4 SWAP3 PUSH1 0x80 DUP3 ADD SWAP6 DUP3 MSTORE PUSH1 0x20 DUP3 ADD MSTORE PUSH1 0x0 PUSH1 0x40 DUP3 ADD MSTORE ADD MSTORE JUMP JUMPDEST PUSH1 0x0 CALLER DUP2 MSTORE PUSH1 0x20 SWAP1 PUSH1 0x10 DUP3 MSTORE PUSH1 0x40 SWAP1 DUP2 DUP2 KECCAK256 SWAP3 PUSH1 0x1 DUP1 DUP6 ADD SLOAD ISZERO DUP1 ISZERO PUSH2 0x45C1 JUMPI JUMPDEST PUSH2 0x45B0 JUMPI CALLER DUP4 MSTORE PUSH1 0x11 DUP3 MSTORE DUP4 DUP4 KECCAK256 DUP4 SWAP2 SWAP1 DUP3 DUP3 JUMPDEST PUSH2 0x4436 JUMPI JUMPDEST POP POP DUP2 ISZERO PUSH2 0x4425 JUMPI CALLER DUP5 MSTORE PUSH1 0xF DUP4 MSTORE PUSH2 0x40AE DUP3 PUSH1 0x3 DUP8 DUP8 KECCAK256 ADD SLOAD PUSH2 0x3F97 JUMP JUMPDEST SWAP6 CALLER DUP6 MSTORE PUSH1 0xF DUP5 MSTORE DUP6 DUP6 KECCAK256 SWAP7 PUSH1 0x4 SWAP8 DUP9 DUP2 ADD SLOAD DUP1 SWAP3 GT PUSH2 0x440D JUMPI JUMPDEST POP POP DUP3 ISZERO PUSH2 0x43FD JUMPI CALLER DUP6 MSTORE PUSH1 0xF DUP5 MSTORE PUSH1 0x3 DUP7 DUP7 KECCAK256 ADD PUSH2 0x40E9 DUP5 DUP3 SLOAD PUSH2 0x3F97 JUMP JUMPDEST SWAP1 SSTORE DUP5 SLOAD DUP7 MLOAD PUSH4 0x70A08231 PUSH1 0xE0 SHL DUP1 DUP3 MSTORE ADDRESS DUP11 DUP4 ADD MSTORE DUP8 SWAP6 SWAP3 PUSH1 0x1 PUSH1 0x1 PUSH1 0xA0 SHL SUB SWAP3 DUP5 DUP8 SHR SWAP2 DUP5 AND SWAP1 DUP10 DUP2 PUSH1 0x24 DUP2 DUP6 GAS STATICCALL SWAP1 DUP2 ISZERO PUSH2 0x43F3 JUMPI DUP12 DUP14 DUP16 SWAP3 DUP14 SWAP6 SWAP5 DUP8 SWAP2 DUP5 SWAP2 PUSH2 0x43BA JUMPI JUMPDEST POP LT ISZERO DUP1 PUSH2 0x43B1 JUMPI JUMPDEST PUSH2 0x4354 JUMPI JUMPDEST POP POP POP POP POP PUSH1 0x18 SLOAD DUP1 ISZERO DUP1 ISZERO PUSH2 0x4340 JUMPI JUMPDEST ISZERO PUSH2 0x4300 JUMPI POP PUSH8 0xDE0B6B3A7640000 SWAP1 JUMPDEST PUSH8 0xDE0B6B3A7640000 SWAP1 DUP2 DUP2 MUL SWAP2 DUP2 DUP4 DIV EQ SWAP1 ISZERO OR ISZERO PUSH2 0x42ED JUMPI SWAP1 PUSH2 0x4185 SWAP2 PUSH2 0x3FA4 JUMP JUMPDEST SWAP2 DUP9 SWAP6 SLOAD AND SWAP1 DUP10 MLOAD SWAP1 DUP2 MSTORE ADDRESS DUP12 DUP3 ADD MSTORE DUP8 DUP2 PUSH1 0x24 DUP2 DUP6 GAS STATICCALL SWAP1 DUP2 ISZERO PUSH2 0x42E3 JUMPI SWAP1 DUP4 SWAP2 DUP11 SWAP2 PUSH2 0x42AE JUMPI JUMPDEST POP LT ISZERO DUP1 PUSH2 0x42A5 JUMPI JUMPDEST PUSH2 0x4224 JUMPI JUMPDEST POP POP SWAP2 PUSH1 0x0 DUP1 MLOAD PUSH1 0x20 PUSH2 0x5E1C DUP4 CODECOPY DUP2 MLOAD SWAP2 MSTORE SWAP2 PUSH1 0xF SWAP6 SWAP5 SWAP4 DUP9 MLOAD SWAP1 DUP2 MSTORE DUP8 DUP7 DUP3 ADD MSTORE PUSH1 0x0 DUP1 MLOAD PUSH1 0x20 PUSH2 0x5F1C DUP4 CODECOPY DUP2 MLOAD SWAP2 MSTORE DUP10 CALLER SWAP3 LOG2 SLOAD SWAP1 PUSH2 0x4203 DUP9 MLOAD SWAP3 DUP4 SWAP3 CALLER SWAP7 DUP5 PUSH2 0x4038 JUMP JUMPDEST SUB SWAP1 LOG2 CALLER DUP4 MSTORE MSTORE KECCAK256 PUSH1 0x3 DUP2 ADD SLOAD SWAP2 ADD SLOAD GT ISZERO PUSH2 0x421B JUMPI JUMP JUMPDEST PUSH2 0x3EF1 CALLER PUSH2 0x5001 JUMP JUMPDEST DUP2 PUSH2 0x424B SWAP3 SWAP4 SWAP6 POP DUP8 SWAP2 DUP12 DUP11 DUP13 MLOAD DUP1 SWAP7 DUP2 SWAP6 DUP3 SWAP5 PUSH4 0xA9059CBB PUSH1 0xE0 SHL DUP5 MSTORE CALLER SWAP1 DUP5 ADD PUSH2 0x3E49 JUMP JUMPDEST SUB SWAP3 GAS CALL DUP1 ISZERO PUSH2 0x429B JUMPI SWAP2 PUSH1 0x0 DUP1 MLOAD PUSH1 0x20 PUSH2 0x5E1C DUP4 CODECOPY DUP2 MLOAD SWAP2 MSTORE SWAP4 SWAP2 PUSH1 0xF SWAP8 SWAP7 SWAP6 SWAP4 PUSH2 0x427E JUMPI JUMPDEST POP SWAP4 SWAP5 SWAP6 DUP2 SWAP4 POP PUSH2 0x41BC JUMP JUMPDEST PUSH2 0x4294 SWAP1 DUP8 RETURNDATASIZE DUP10 GT PUSH2 0x6F7 JUMPI PUSH2 0x6E8 DUP2 DUP4 PUSH2 0x3DEF JUMP JUMPDEST POP CODESIZE PUSH2 0x4272 JUMP JUMPDEST DUP9 MLOAD RETURNDATASIZE DUP10 DUP3 RETURNDATACOPY RETURNDATASIZE SWAP1 REVERT JUMPDEST POP DUP2 ISZERO ISZERO PUSH2 0x41B7 JUMP JUMPDEST DUP1 SWAP3 POP DUP10 DUP1 SWAP3 POP RETURNDATASIZE DUP4 GT PUSH2 0x42DC JUMPI JUMPDEST PUSH2 0x42C7 DUP2 DUP4 PUSH2 0x3DEF JUMP JUMPDEST DUP2 ADD SUB SLT PUSH2 0x42D8 JUMPI DUP3 SWAP1 MLOAD CODESIZE PUSH2 0x41AE JUMP JUMPDEST DUP9 DUP1 REVERT JUMPDEST POP RETURNDATASIZE PUSH2 0x42BD JUMP JUMPDEST DUP11 MLOAD RETURNDATASIZE DUP12 DUP3 RETURNDATACOPY RETURNDATASIZE SWAP1 REVERT JUMPDEST PUSH4 0x4E487B71 PUSH1 0xE0 SHL DUP11 MSTORE PUSH1 0x11 DUP13 MSTORE PUSH1 0x24 DUP11 REVERT JUMPDEST PUSH1 0x17 SLOAD PUSH8 0xDE0B6B3A7640000 SWAP1 DUP2 DUP2 MUL SWAP2 DUP2 DUP4 DIV EQ SWAP1 ISZERO OR ISZERO PUSH2 0x432D JUMPI SWAP1 PUSH2 0x4327 SWAP2 PUSH2 0x3FA4 JUMP JUMPDEST SWAP1 PUSH2 0x4161 JUMP JUMPDEST PUSH4 0x4E487B71 PUSH1 0xE0 SHL DUP12 MSTORE PUSH1 0x11 DUP14 MSTORE PUSH1 0x24 DUP12 REVERT JUMPDEST POP PUSH9 0x3635C9ADC5DEA00000 PUSH1 0x17 SLOAD LT PUSH2 0x4150 JUMP JUMPDEST MLOAD PUSH4 0xA9059CBB PUSH1 0xE0 SHL DUP2 MSTORE SWAP5 SWAP11 POP DUP5 SWAP3 SWAP2 DUP4 SWAP2 SWAP1 DUP3 SWAP1 PUSH2 0x4379 SWAP1 DUP15 SWAP1 CALLER SWAP1 DUP5 ADD PUSH2 0x3E49 JUMP JUMPDEST SUB SWAP3 GAS CALL DUP1 ISZERO PUSH2 0x42E3 JUMPI PUSH2 0x4394 JUMPI JUMPDEST POP DUP6 DUP8 CODESIZE DUP13 DUP12 DUP14 PUSH2 0x413F JUMP JUMPDEST PUSH2 0x43AA SWAP1 DUP9 RETURNDATASIZE DUP11 GT PUSH2 0x6F7 JUMPI PUSH2 0x6E8 DUP2 DUP4 PUSH2 0x3DEF JUMP JUMPDEST POP CODESIZE PUSH2 0x4388 JUMP JUMPDEST POP DUP6 ISZERO ISZERO PUSH2 0x413A JUMP JUMPDEST SWAP6 SWAP7 SWAP5 POP POP POP POP POP DUP2 DUP2 RETURNDATASIZE DUP4 GT PUSH2 0x43EC JUMPI JUMPDEST PUSH2 0x43D6 DUP2 DUP4 PUSH2 0x3DEF JUMP JUMPDEST DUP2 ADD SUB SLT PUSH2 0x3A59 JUMPI SWAP1 DUP13 DUP12 DUP14 DUP6 DUP14 SWAP6 MLOAD CODESIZE PUSH2 0x4131 JUMP JUMPDEST POP RETURNDATASIZE PUSH2 0x43CC JUMP JUMPDEST DUP13 MLOAD RETURNDATASIZE DUP14 DUP3 RETURNDATACOPY RETURNDATASIZE SWAP1 REVERT JUMPDEST POP POP POP POP POP POP POP PUSH2 0x3EF1 CALLER PUSH2 0x5001 JUMP JUMPDEST PUSH2 0x441D SWAP3 SWAP5 POP PUSH1 0x3 ADD SLOAD SWAP1 PUSH2 0x3FC4 JUMP JUMPDEST SWAP2 CODESIZE DUP1 PUSH2 0x40C9 JUMP JUMPDEST DUP5 MLOAD PUSH4 0xFEC21FD PUSH1 0xE2 SHL DUP2 MSTORE PUSH1 0x4 SWAP1 REVERT JUMPDEST DUP2 SLOAD DUP2 LT ISZERO PUSH2 0x45AB JUMPI DUP3 PUSH1 0xFF PUSH1 0x4 PUSH2 0x444E DUP5 DUP7 PUSH2 0x3E64 JUMP JUMPDEST POP ADD SLOAD AND ISZERO PUSH2 0x45A3 JUMPI POP DUP6 PUSH2 0x4463 DUP3 DUP5 PUSH2 0x3E64 JUMP JUMPDEST POP SWAP1 PUSH1 0x7 PUSH1 0x3 DUP1 SWAP4 ADD SLOAD EQ PUSH1 0x0 EQ PUSH2 0x4564 JUMPI POP PUSH3 0xCB7356 JUMPDEST PUSH1 0x3C PUSH2 0x4495 PUSH1 0x2 PUSH2 0x448C DUP7 DUP9 PUSH2 0x3E64 JUMP JUMPDEST POP ADD SLOAD TIMESTAMP PUSH2 0x3FC4 JUMP JUMPDEST DIV SWAP2 DUP1 PUSH2 0x44A2 DUP6 DUP8 PUSH2 0x3E64 JUMP JUMPDEST POP ADD SLOAD DUP4 GT PUSH2 0x454D JUMPI JUMPDEST POP DUP5 DUP3 ISZERO PUSH2 0x4541 JUMPI SWAP2 PUSH2 0x44D4 PUSH2 0x44D9 SWAP3 PUSH4 0x3B9ACA00 SWAP5 PUSH2 0x44CC DUP8 DUP10 PUSH2 0x3E64 JUMP JUMPDEST POP ADD SLOAD PUSH2 0x3F6E JUMP JUMPDEST PUSH2 0x3F6E JUMP JUMPDEST DIV PUSH2 0x44E4 DUP3 DUP5 PUSH2 0x3E64 JUMP JUMPDEST POP SWAP1 PUSH1 0x5 DUP1 SWAP3 ADD SLOAD SWAP1 DUP2 DUP2 GT PUSH2 0x4505 JUMPI JUMPDEST POP POP POP SWAP1 DUP3 DUP1 SWAP3 JUMPDEST ADD SWAP1 SWAP2 PUSH2 0x408A JUMP JUMPDEST SWAP6 PUSH2 0x4537 PUSH2 0x4522 PUSH2 0x451B DUP9 SWAP8 SWAP7 SWAP5 DUP9 SWAP7 SWAP11 PUSH2 0x3FC4 JUMP JUMPDEST DUP1 SWAP4 PUSH2 0x3F97 JUMP JUMPDEST SWAP8 PUSH2 0x452D DUP5 DUP8 PUSH2 0x3E64 JUMP JUMPDEST POP ADD SWAP2 DUP3 SLOAD PUSH2 0x3F97 JUMP JUMPDEST SWAP1 SSTORE SWAP2 SWAP3 CODESIZE PUSH2 0x44F5 JUMP JUMPDEST SWAP4 SWAP3 SWAP1 POP DUP4 SWAP2 POP PUSH2 0x44FD JUMP JUMPDEST SWAP1 SWAP2 POP PUSH2 0x455A DUP4 DUP6 PUSH2 0x3E64 JUMP JUMPDEST POP ADD SLOAD SWAP1 CODESIZE PUSH2 0x44AC JUMP JUMPDEST PUSH1 0xF DUP3 PUSH2 0x4571 DUP6 DUP8 PUSH2 0x3E64 JUMP JUMPDEST POP ADD SLOAD SUB PUSH2 0x4583 JUMPI POP PUSH3 0xFE502B PUSH2 0x447B JUMP JUMPDEST PUSH1 0x1E DUP3 PUSH2 0x4590 DUP6 DUP8 PUSH2 0x3E64 JUMP JUMPDEST POP ADD SLOAD SUB PUSH2 0x447B JUMPI POP PUSH4 0x1312D00 PUSH2 0x447B JUMP JUMPDEST DUP1 SWAP3 SWAP2 PUSH2 0x44FD JUMP JUMPDEST PUSH2 0x408F JUMP JUMPDEST DUP4 MLOAD PUSH4 0x4065AAF1 PUSH1 0xE1 SHL DUP2 MSTORE PUSH1 0x4 SWAP1 REVERT JUMPDEST POP PUSH1 0xFF PUSH1 0x3 DUP7 ADD SLOAD AND PUSH2 0x4076 JUMP JUMPDEST PUSH1 0x0 NOT DUP2 EQ PUSH2 0x3F81 JUMPI PUSH1 0x1 ADD SWAP1 JUMP JUMPDEST ISZERO PUSH2 0x45E5 JUMPI JUMP JUMPDEST PUSH1 0x40 MLOAD PUSH3 0x461BCD PUSH1 0xE5 SHL DUP2 MSTORE PUSH1 0x20 PUSH1 0x4 DUP3 ADD MSTORE PUSH1 0x7 PUSH1 0x24 DUP3 ADD MSTORE PUSH7 0x125B9D985B1A59 PUSH1 0xCA SHL PUSH1 0x44 DUP3 ADD MSTORE PUSH1 0x64 SWAP1 REVERT JUMPDEST SWAP2 PUSH1 0x1 PUSH1 0x1 PUSH1 0xA0 SHL SUB SWAP1 DUP2 DUP5 AND SWAP1 DUP2 ISZERO ISZERO DUP1 PUSH2 0x4963 JUMPI JUMPDEST PUSH2 0x4634 SWAP1 PUSH2 0x45DE JUMP JUMPDEST DUP3 DUP5 AND DUP1 DUP4 EQ PUSH2 0x4933 JUMPI DUP5 DUP5 PUSH1 0x0 SWAP7 JUMPDEST AND DUP1 ISZERO ISZERO DUP1 PUSH2 0x4929 JUMPI JUMPDEST ISZERO PUSH2 0x46AA JUMPI DUP5 DUP2 EQ PUSH2 0x467A JUMPI PUSH1 0x0 MSTORE PUSH1 0xF PUSH1 0x20 MSTORE DUP5 PUSH2 0x4674 DUP2 PUSH1 0x40 PUSH1 0x0 KECCAK256 SLOAD AND SWAP8 PUSH2 0x45CF JUMP JUMPDEST SWAP7 PUSH2 0x4644 JUMP JUMPDEST PUSH1 0x40 MLOAD PUSH3 0x461BCD PUSH1 0xE5 SHL DUP2 MSTORE PUSH1 0x20 PUSH1 0x4 DUP3 ADD MSTORE PUSH1 0x8 PUSH1 0x24 DUP3 ADD MSTORE PUSH8 0x21B4B931BAB630B9 PUSH1 0xC1 SHL PUSH1 0x44 DUP3 ADD MSTORE PUSH1 0x64 SWAP1 REVERT JUMPDEST POP PUSH1 0x0 DUP5 DUP2 MSTORE PUSH1 0xF PUSH1 0x20 DUP2 DUP2 MSTORE PUSH1 0x40 SWAP3 DUP4 SWAP1 KECCAK256 DUP1 SLOAD SWAP7 SWAP11 SWAP6 SWAP10 POP DUP7 DUP10 AND SWAP9 SWAP5 SWAP7 DUP10 DUP12 EQ PUSH2 0x491C JUMPI PUSH1 0x1 PUSH1 0x1 PUSH1 0xA0 SHL SUB NOT AND DUP11 OR SWAP1 SSTORE DUP8 ISZERO ISZERO SWAP5 DUP6 PUSH2 0x483F JUMPI JUMPDEST PUSH2 0x46FE SWAP1 DUP11 PUSH1 0x0 MSTORE PUSH1 0x12 DUP4 MSTORE DUP5 PUSH1 0x0 KECCAK256 PUSH2 0x3EB0 JUMP JUMPDEST DUP7 PUSH1 0x0 MSTORE DUP2 DUP2 MSTORE PUSH1 0x2 SWAP6 PUSH1 0x2 DUP5 PUSH1 0x0 KECCAK256 ADD SLOAD SWAP1 PUSH1 0x1 SWAP7 PUSH1 0x1 DUP4 ADD DUP1 SWAP4 GT PUSH2 0x3F81 JUMPI PUSH2 0x47BF JUMPI JUMPDEST DUP11 PUSH2 0x4759 JUMPI JUMPDEST POP POP POP POP POP POP POP POP PUSH32 0xF8B9FE4D008320E6F048C61E41E9CC56CE351354AD0CB9A868BD3C4BD6928FD5 PUSH1 0x0 DUP1 LOG4 JUMP JUMPDEST PUSH1 0x0 SWAP1 DUP8 JUMPDEST PUSH2 0x4769 JUMPI JUMPDEST POP PUSH2 0x472A JUMP JUMPDEST DUP7 AND DUP1 ISZERO ISZERO DUP1 PUSH2 0x47B5 JUMPI JUMPDEST ISZERO PUSH2 0x47B0 JUMPI DUP1 PUSH1 0x0 MSTORE DUP5 DUP5 MSTORE DUP9 DUP7 PUSH1 0x0 KECCAK256 ADD PUSH2 0x4791 DUP5 DUP3 SLOAD PUSH2 0x3F97 JUMP JUMPDEST SWAP1 SSTORE PUSH1 0x0 MSTORE DUP4 DUP4 MSTORE PUSH2 0x47A9 DUP7 DUP7 PUSH1 0x0 KECCAK256 SLOAD AND SWAP2 PUSH2 0x45CF JUMP JUMPDEST SWAP1 DUP8 PUSH2 0x475E JUMP JUMPDEST PUSH2 0x4763 JUMP JUMPDEST POP PUSH1 0x1E DUP3 LT PUSH2 0x4774 JUMP JUMPDEST DUP7 PUSH1 0x0 DUP8 DUP13 DUP4 JUMPDEST PUSH2 0x47D4 JUMPI JUMPDEST POP POP POP POP PUSH2 0x4724 JUMP JUMPDEST AND DUP1 ISZERO ISZERO DUP1 PUSH2 0x4835 JUMPI JUMPDEST ISZERO PUSH2 0x482E JUMPI PUSH1 0x0 DUP2 DUP2 MSTORE DUP8 DUP8 MSTORE DUP9 SWAP1 KECCAK256 DUP12 ADD DUP1 SLOAD DUP7 GT PUSH2 0x4825 JUMPI PUSH2 0x4803 DUP7 DUP3 SLOAD PUSH2 0x3FC4 JUMP JUMPDEST SWAP1 SSTORE JUMPDEST PUSH1 0x0 MSTORE DUP6 DUP6 MSTORE PUSH2 0x481C DUP9 DUP9 PUSH1 0x0 KECCAK256 SLOAD AND SWAP2 PUSH2 0x45CF JUMP JUMPDEST SWAP1 DUP9 SWAP1 DUP4 PUSH2 0x47C6 JUMP JUMPDEST PUSH1 0x0 SWAP1 SSTORE PUSH2 0x4806 JUMP JUMPDEST DUP9 SWAP1 PUSH2 0x47CB JUMP JUMPDEST POP PUSH1 0x1E DUP3 LT PUSH2 0x47DE JUMP JUMPDEST SWAP9 SWAP8 SWAP7 SWAP6 SWAP5 SWAP4 SWAP3 SWAP2 SWAP1 DUP8 PUSH1 0x0 MSTORE PUSH1 0x12 DUP2 MSTORE DUP3 PUSH1 0x0 KECCAK256 SWAP10 PUSH1 0x0 JUMPDEST DUP12 SLOAD DUP1 DUP3 LT ISZERO PUSH2 0x4907 JUMPI DUP7 SWAP1 DUP11 PUSH2 0x4870 DUP16 DUP6 SWAP1 PUSH2 0x3D82 JUMP JUMPDEST SWAP4 SWAP1 SLOAD PUSH1 0x3 SWAP5 DUP6 SHL SHR AND EQ PUSH2 0x4889 JUMPI POP POP PUSH1 0x1 ADD PUSH2 0x4858 JUMP JUMPDEST PUSH1 0x0 SWAP14 SWAP2 SWAP3 SWAP5 SWAP6 SWAP7 SWAP8 SWAP9 SWAP10 SWAP11 SWAP12 SWAP13 SWAP14 NOT SWAP5 DUP6 DUP3 ADD SWAP2 DUP3 GT PUSH2 0x3F81 JUMPI PUSH2 0x3ED3 DUP11 PUSH2 0x48B5 PUSH2 0x48C3 SWAP5 DUP7 PUSH2 0x3D82 JUMP JUMPDEST SWAP1 SLOAD SWAP1 DUP8 SHL SHR AND SWAP2 DUP5 PUSH2 0x3D82 JUMP JUMPDEST DUP1 SLOAD DUP1 ISZERO PUSH2 0x48F1 JUMPI PUSH2 0x46FE SWAP5 DUP10 SWAP2 ADD SWAP3 PUSH2 0x48DD DUP5 DUP5 PUSH2 0x3D82 JUMP JUMPDEST DUP2 SWAP4 SWAP2 SLOAD SWAP3 SHL SHL NOT AND SWAP1 SSTORE SSTORE JUMPDEST SWAP1 POP PUSH2 0x46E9 JUMP JUMPDEST PUSH4 0x4E487B71 PUSH1 0xE0 SHL PUSH1 0x0 MSTORE PUSH1 0x31 PUSH1 0x4 MSTORE PUSH1 0x24 PUSH1 0x0 REVERT JUMPDEST POP POP PUSH2 0x46FE SWAP2 SWAP3 SWAP4 SWAP5 SWAP6 SWAP7 SWAP8 SWAP9 SWAP10 SWAP11 POP PUSH2 0x48EA JUMP JUMPDEST POP POP POP POP POP POP POP POP POP POP POP JUMP JUMPDEST POP PUSH1 0x32 DUP8 LT PUSH2 0x464E JUMP JUMPDEST PUSH1 0x40 MLOAD PUSH3 0x461BCD PUSH1 0xE5 SHL DUP2 MSTORE PUSH1 0x20 PUSH1 0x4 DUP3 ADD MSTORE PUSH1 0x8 PUSH1 0x24 DUP3 ADD MSTORE PUSH8 0x29B2B633103932B3 PUSH1 0xC1 SHL PUSH1 0x44 DUP3 ADD MSTORE PUSH1 0x64 SWAP1 REVERT JUMPDEST POP DUP4 DUP4 AND ISZERO ISZERO PUSH2 0x462B JUMP JUMPDEST SWAP2 SWAP1 DUP2 LT ISZERO PUSH2 0x3D9A JUMPI PUSH1 0x5 SHL ADD SWAP1 JUMP JUMPDEST CALLDATALOAD PUSH1 0x1 PUSH1 0x1 PUSH1 0xA0 SHL SUB DUP2 AND DUP2 SUB PUSH2 0xC9A JUMPI SWAP1 JUMP JUMPDEST PUSH1 0x1 PUSH1 0x1 PUSH1 0xA0 SHL SUB SWAP1 DUP2 AND SWAP1 DUP2 ISZERO PUSH2 0x49DB JUMPI PUSH1 0x0 DUP1 MLOAD PUSH1 0x20 PUSH2 0x5E3C DUP4 CODECOPY DUP2 MLOAD SWAP2 MSTORE DUP1 SLOAD PUSH1 0x1 PUSH1 0x1 PUSH1 0xA0 SHL SUB NOT DUP2 AND DUP5 OR SWAP1 SWAP2 SSTORE AND PUSH1 0x0 DUP1 MLOAD PUSH1 0x20 PUSH2 0x5EDC DUP4 CODECOPY DUP2 MLOAD SWAP2 MSTORE PUSH1 0x0 DUP1 LOG3 JUMP JUMPDEST PUSH1 0x40 MLOAD PUSH4 0x1E4FBDF7 PUSH1 0xE0 SHL DUP2 MSTORE PUSH1 0x0 PUSH1 0x4 DUP3 ADD MSTORE PUSH1 0x24 SWAP1 REVERT JUMPDEST PUSH1 0x0 DUP1 MLOAD PUSH1 0x20 PUSH2 0x5E3C DUP4 CODECOPY DUP2 MLOAD SWAP2 MSTORE SLOAD PUSH1 0x1 PUSH1 0x1 PUSH1 0xA0 SHL SUB AND CALLER SUB PUSH2 0x4A15 JUMPI JUMP JUMPDEST PUSH1 0x40 MLOAD PUSH4 0x118CDAA7 PUSH1 0xE0 SHL DUP2 MSTORE CALLER PUSH1 0x4 DUP3 ADD MSTORE PUSH1 0x24 SWAP1 REVERT JUMPDEST PUSH1 0x0 DUP1 MLOAD PUSH1 0x20 PUSH2 0x5F3C DUP4 CODECOPY DUP2 MLOAD SWAP2 MSTORE PUSH1 0x2 DUP2 SLOAD EQ PUSH2 0x4A4B JUMPI PUSH1 0x2 SWAP1 SSTORE JUMP JUMPDEST PUSH1 0x40 MLOAD PUSH4 0x3EE5AEB5 PUSH1 0xE0 SHL DUP2 MSTORE PUSH1 0x4 SWAP1 REVERT JUMPDEST SWAP1 PUSH1 0x20 DUP3 ADD MLOAD PUSH2 0x4A81 PUSH1 0x40 DUP5 ADD SWAP2 PUSH2 0x4A7B DUP4 MLOAD PUSH1 0xE0 DUP8 ADD MLOAD SWAP1 PUSH2 0x3F6E JUMP JUMPDEST SWAP1 PUSH2 0x3F97 JUMP JUMPDEST TIMESTAMP LT SWAP1 DUP2 ISZERO SWAP2 PUSH2 0x4B43 JUMPI PUSH2 0x4ABF DUP2 PUSH4 0x3B9ACA00 SWAP3 MLOAD PUSH1 0x7 DUP2 EQ PUSH1 0x0 EQ PUSH2 0x4B19 JUMPI POP PUSH2 0x4AB7 PUSH4 0xFFFFFFFF PUSH3 0xCB7356 JUMPDEST AND DUP8 MLOAD PUSH2 0x3F6E JUMP JUMPDEST SWAP1 MLOAD SWAP1 PUSH2 0x3F6E JUMP JUMPDEST DIV PUSH1 0x60 DUP5 ADD MLOAD DUP1 DUP3 GT PUSH1 0x0 EQ PUSH2 0x4B0B JUMPI PUSH2 0x4ADE PUSH2 0x4AF9 SWAP2 PUSH1 0x64 SWAP4 PUSH2 0x3FC4 JUMP JUMPDEST PUSH1 0x80 DUP7 ADD MLOAD SWAP1 SWAP6 SWAP1 DUP1 ISZERO PUSH2 0x4AFD JUMPI PUSH1 0xC0 SWAP1 SWAP2 JUMPDEST ADD MLOAD SWAP1 PUSH2 0x3F6E JUMP JUMPDEST DIV SWAP2 JUMP JUMPDEST POP PUSH1 0xC0 PUSH1 0xA0 DUP3 ADD MLOAD SWAP2 PUSH2 0x4AF1 JUMP JUMPDEST POP POP PUSH1 0x64 PUSH2 0x4AF9 PUSH1 0x0 PUSH2 0x4ADE JUMP JUMPDEST PUSH1 0xF SUB PUSH2 0x4B31 JUMPI PUSH2 0x4AB7 PUSH4 0xFFFFFFFF PUSH3 0xFE502B PUSH2 0x4AAF JUMP JUMPDEST PUSH2 0x4AB7 PUSH4 0xFFFFFFFF PUSH4 0x1312D00 PUSH2 0x4AAF JUMP JUMPDEST POP PUSH1 0x0 SWAP3 POP DUP3 SWAP2 DUP3 SWAP2 POP JUMP JUMPDEST SWAP4 SWAP1 SWAP2 DUP2 PUSH2 0x4BC8 JUMPI JUMPDEST POP POP PUSH1 0x40 MLOAD PUSH4 0xA9059CBB PUSH1 0xE0 SHL DUP2 MSTORE SWAP3 PUSH1 0x20 SWAP3 DUP5 SWAP3 DUP4 SWAP2 PUSH1 0x0 SWAP2 DUP4 SWAP2 PUSH2 0x4B81 SWAP2 PUSH1 0x4 DUP5 ADD PUSH2 0x3E49 JUMP JUMPDEST SUB SWAP3 PUSH1 0x1 PUSH1 0x1 PUSH1 0xA0 SHL SUB AND GAS CALL SWAP1 DUP2 ISZERO PUSH2 0x4BBC JUMPI PUSH1 0x0 SWAP2 PUSH2 0x4BA0 JUMPI POP SWAP1 JUMP JUMPDEST PUSH2 0x4BB9 SWAP2 POP PUSH1 0x20 RETURNDATASIZE PUSH1 0x20 GT PUSH2 0x6F7 JUMPI PUSH2 0x6E8 DUP2 DUP4 PUSH2 0x3DEF JUMP JUMPDEST SWAP1 JUMP JUMPDEST PUSH1 0x40 MLOAD RETURNDATASIZE PUSH1 0x0 DUP3 RETURNDATACOPY RETURNDATASIZE SWAP1 REVERT JUMPDEST PUSH1 0x1 DUP1 PUSH1 0xA0 SWAP6 SWAP5 SWAP6 SHL SUB DUP1 DUP7 AND SWAP2 PUSH1 0x40 SWAP4 DUP5 MLOAD SWAP3 PUSH4 0x70A08231 PUSH1 0xE0 SHL DUP5 MSTORE DUP1 DUP9 AND SWAP1 DUP2 PUSH1 0x4 DUP7 ADD MSTORE PUSH1 0x20 SWAP5 DUP6 DUP2 PUSH1 0x24 DUP2 DUP11 GAS STATICCALL SWAP1 DUP2 ISZERO PUSH2 0x4D4B JUMPI SWAP1 DUP5 SWAP2 PUSH1 0x0 SWAP2 PUSH2 0x4D1A JUMPI JUMPDEST POP LT PUSH2 0x4D0B JUMPI DUP7 MLOAD SWAP2 PUSH4 0x6EB1769F PUSH1 0xE1 SHL DUP4 MSTORE PUSH1 0x4 DUP4 ADD MSTORE DUP4 AND PUSH1 0x24 DUP3 ADD MSTORE DUP4 DUP2 PUSH1 0x44 DUP2 DUP9 GAS STATICCALL SWAP1 DUP2 ISZERO PUSH2 0x4D00 JUMPI SWAP1 DUP3 SWAP2 PUSH1 0x0 SWAP2 PUSH2 0x4CCF JUMPI JUMPDEST POP LT PUSH2 0x4CC2 JUMPI PUSH2 0x4C70 SWAP4 DUP4 SWAP3 PUSH1 0x0 DUP8 MLOAD DUP1 SWAP8 DUP2 SWAP6 DUP3 SWAP5 PUSH4 0x23B872DD PUSH1 0xE0 SHL DUP5 MSTORE DUP14 PUSH1 0x4 DUP6 ADD PUSH2 0x3F4C JUMP JUMPDEST SUB SWAP3 GAS CALL SWAP3 DUP4 ISZERO PUSH2 0x4CB8 JUMPI POP PUSH1 0x0 SWAP3 PUSH2 0x4C9B JUMPI JUMPDEST POP POP ISZERO PUSH2 0x4C93 JUMPI SWAP1 CODESIZE DUP1 PUSH2 0x4B58 JUMP JUMPDEST POP POP POP PUSH1 0x0 SWAP1 JUMP JUMPDEST PUSH2 0x4CB1 SWAP3 POP DUP1 RETURNDATASIZE LT PUSH2 0x6F7 JUMPI PUSH2 0x6E8 DUP2 DUP4 PUSH2 0x3DEF JUMP JUMPDEST CODESIZE DUP1 PUSH2 0x4C84 JUMP JUMPDEST MLOAD RETURNDATASIZE PUSH1 0x0 DUP3 RETURNDATACOPY RETURNDATASIZE SWAP1 REVERT JUMPDEST POP POP POP POP POP POP POP POP PUSH1 0x0 SWAP1 JUMP JUMPDEST DUP1 SWAP3 POP DUP6 DUP1 SWAP3 POP RETURNDATASIZE DUP4 GT PUSH2 0x4CF9 JUMPI JUMPDEST PUSH2 0x4CE8 DUP2 DUP4 PUSH2 0x3DEF JUMP JUMPDEST DUP2 ADD SUB SLT PUSH2 0xC9A JUMPI DUP2 SWAP1 MLOAD CODESIZE PUSH2 0x4C46 JUMP JUMPDEST POP RETURNDATASIZE PUSH2 0x4CDE JUMP JUMPDEST DUP7 MLOAD RETURNDATASIZE PUSH1 0x0 DUP3 RETURNDATACOPY RETURNDATASIZE SWAP1 REVERT JUMPDEST POP POP POP POP POP POP POP POP POP POP PUSH1 0x0 SWAP1 JUMP JUMPDEST DUP1 SWAP3 POP DUP8 DUP1 SWAP3 POP RETURNDATASIZE DUP4 GT PUSH2 0x4D44 JUMPI JUMPDEST PUSH2 0x4D33 DUP2 DUP4 PUSH2 0x3DEF JUMP JUMPDEST DUP2 ADD SUB SLT PUSH2 0xC9A JUMPI DUP4 SWAP1 MLOAD CODESIZE PUSH2 0x4C0D JUMP JUMPDEST POP RETURNDATASIZE PUSH2 0x4D29 JUMP JUMPDEST DUP9 MLOAD RETURNDATASIZE PUSH1 0x0 DUP3 RETURNDATACOPY RETURNDATASIZE SWAP1 REVERT JUMPDEST DUP1 MLOAD DUP3 LT ISZERO PUSH2 0x3D9A JUMPI PUSH1 0x20 SWAP2 PUSH1 0x5 SHL ADD ADD SWAP1 JUMP JUMPDEST DUP1 SLOAD SWAP1 PUSH1 0x0 SWAP1 DUP2 DUP2 SSTORE DUP3 PUSH2 0x4D7D JUMPI POP POP POP JUMP JUMPDEST PUSH1 0x1 SWAP1 PUSH1 0x1 PUSH1 0x1 PUSH1 0xFF SHL SUB DUP5 AND DUP5 SUB PUSH2 0x2375 JUMPI DUP3 MSTORE PUSH1 0x20 DUP3 KECCAK256 SWAP3 PUSH1 0x1 SHL DUP4 ADD SWAP3 JUMPDEST DUP4 DUP2 LT PUSH2 0x4DAB JUMPI POP POP POP POP JUMP JUMPDEST DUP1 DUP4 PUSH1 0x2 SWAP3 SSTORE DUP4 DUP4 DUP3 ADD SSTORE ADD PUSH2 0x4D9E JUMP JUMPDEST PUSH1 0x0 DUP2 DUP2 MSTORE PUSH1 0x1E PUSH1 0x20 SWAP1 DUP2 MSTORE PUSH1 0x40 DUP1 DUP4 KECCAK256 SLOAD PUSH1 0x1D DUP4 MSTORE DUP2 DUP5 KECCAK256 DUP1 SLOAD SWAP4 SWAP7 SWAP5 SWAP6 SWAP3 SWAP5 SWAP3 SWAP4 PUSH1 0x1 PUSH1 0x1 PUSH1 0xA0 SHL SUB SWAP3 DUP4 AND SWAP4 SWAP1 PUSH1 0x1 PUSH1 0x1 PUSH1 0x40 SHL SUB SWAP1 DUP2 DUP2 GT PUSH2 0x4F2F JUMPI DUP8 MLOAD SWAP4 SWAP2 PUSH2 0x4E10 PUSH1 0x5 DUP4 SWAP1 SHL DUP13 ADD DUP7 PUSH2 0x3DEF JUMP JUMPDEST DUP2 DUP6 MSTORE SWAP2 DUP10 MSTORE DUP10 DUP10 KECCAK256 DUP10 SWAP3 DUP12 DUP7 ADD JUMPDEST DUP4 DUP6 LT PUSH2 0x4EF8 JUMPI POP POP POP POP POP DUP7 JUMPDEST DUP3 MLOAD DUP2 LT ISZERO PUSH2 0x4EE1 JUMPI DUP1 PUSH2 0x4E5E DUP6 PUSH2 0x4E47 PUSH1 0x1 SWAP5 DUP8 PUSH2 0x4D56 JUMP JUMPDEST MLOAD MLOAD AND DUP12 PUSH2 0x4E55 DUP5 DUP9 PUSH2 0x4D56 JUMP JUMPDEST MLOAD ADD MLOAD SWAP1 PUSH2 0x5972 JUMP JUMPDEST DUP7 DUP10 DUP13 DUP4 PUSH2 0x4EA8 JUMPI JUMPDEST DUP11 SWAP3 POP PUSH32 0xAE629B396150638D6EB6DE457CBFFE5D618A10C8CC199A94976BED2B16ECD993 SWAP2 POP DUP9 PUSH2 0x4E98 DUP7 DUP11 PUSH2 0x4D56 JUMP JUMPDEST MLOAD MLOAD AND SWAP4 DUP13 MLOAD SWAP1 DUP2 MSTORE LOG3 ADD PUSH2 0x4E2D JUMP JUMPDEST PUSH1 0x60 PUSH1 0x0 DUP1 MLOAD PUSH1 0x20 PUSH2 0x5DDC DUP4 CODECOPY DUP2 MLOAD SWAP2 MSTORE SWAP2 DUP13 DUP12 PUSH2 0x4EC6 DUP10 DUP14 PUSH2 0x4D56 JUMP JUMPDEST MLOAD MLOAD AND SWAP5 PUSH1 0x4 DUP2 MLOAD SWAP4 DUP10 DUP6 MSTORE DUP5 ADD MSTORE DUP3 ADD MSTORE LOG3 DUP7 DUP10 DUP13 PUSH2 0x4E67 JUMP JUMPDEST POP SWAP7 SWAP2 POP POP PUSH1 0x1D SWAP2 POP PUSH2 0x3EF1 SWAP5 SWAP3 DUP4 MSTORE MSTORE KECCAK256 PUSH2 0x4D6A JUMP JUMPDEST DUP11 MLOAD DUP12 DUP2 ADD DUP2 DUP2 LT DUP5 DUP3 GT OR PUSH2 0x2F9F JUMPI PUSH1 0x1 SWAP3 DUP16 SWAP2 SWAP3 PUSH1 0x2 SWAP4 DUP16 MSTORE DUP12 DUP8 SLOAD AND DUP2 MSTORE DUP5 DUP8 ADD SLOAD DUP4 DUP3 ADD MSTORE DUP2 MSTORE ADD SWAP4 ADD SWAP5 ADD SWAP4 SWAP2 PUSH2 0x4E1F JUMP JUMPDEST PUSH4 0x4E487B71 PUSH1 0xE0 SHL DUP10 MSTORE PUSH1 0x41 PUSH1 0x4 MSTORE PUSH1 0x24 DUP10 REVERT JUMPDEST DUP1 ISZERO PUSH2 0x3F81 JUMPI PUSH1 0x0 NOT ADD SWAP1 JUMP JUMPDEST PUSH1 0x1 DUP1 PUSH1 0xA0 SHL SUB DUP1 PUSH1 0x0 SWAP3 AND DUP3 MSTORE PUSH1 0x10 PUSH1 0x20 MSTORE PUSH1 0x40 DUP3 KECCAK256 SWAP1 PUSH1 0x1 DUP3 ADD SLOAD ISZERO ISZERO SWAP2 DUP3 PUSH2 0x4FF1 JUMPI JUMPDEST POP PUSH1 0xF PUSH1 0x20 MSTORE PUSH1 0x40 DUP4 KECCAK256 PUSH1 0x5 DUP2 ADD PUSH1 0xFF DUP2 SLOAD AND ISZERO ISZERO DUP5 ISZERO ISZERO EQ PUSH2 0x4FEA JUMPI DUP1 SLOAD PUSH1 0xFF NOT AND PUSH1 0xFF DUP6 ISZERO ISZERO AND OR SWAP1 SSTORE SLOAD AND SWAP2 DUP3 ISZERO PUSH2 0x4FE5 JUMPI PUSH1 0x1 SWAP3 PUSH1 0x40 SWAP3 ISZERO PUSH2 0x4FCD JUMPI DUP2 MSTORE PUSH1 0xF PUSH1 0x20 MSTORE KECCAK256 ADD PUSH2 0x4FC9 DUP2 SLOAD PUSH2 0x45CF JUMP JUMPDEST SWAP1 SSTORE JUMP JUMPDEST DUP2 MSTORE KECCAK256 ADD DUP1 SLOAD DUP1 PUSH2 0x4FDC JUMPI POP POP JUMP JUMPDEST PUSH2 0x4FC9 SWAP1 PUSH2 0x4F43 JUMP JUMPDEST POP POP POP JUMP JUMPDEST POP POP POP POP POP JUMP JUMPDEST PUSH1 0x3 ADD SLOAD PUSH1 0xFF AND ISZERO SWAP2 POP CODESIZE PUSH2 0x4F76 JUMP JUMPDEST PUSH1 0x1 PUSH1 0x1 PUSH1 0xA0 SHL SUB DUP2 AND PUSH1 0x0 DUP2 DUP2 MSTORE PUSH1 0x10 PUSH1 0x20 MSTORE PUSH1 0x40 SWAP1 KECCAK256 PUSH1 0x3 DUP2 ADD DUP1 SLOAD SWAP3 SWAP4 SWAP3 PUSH1 0xFF DUP2 AND ISZERO PUSH2 0x5032 JUMPI POP POP POP POP POP JUMP JUMPDEST SWAP1 PUSH1 0x1 PUSH1 0x24 SWAP6 SWAP7 SWAP3 PUSH1 0xFF NOT AND OR SWAP1 SSTORE PUSH1 0x11 PUSH1 0x20 MSTORE PUSH1 0x40 PUSH1 0x0 KECCAK256 SWAP5 PUSH1 0x0 SWAP3 PUSH1 0x0 SWAP5 PUSH1 0x20 PUSH1 0x1 DUP1 PUSH1 0xA0 SHL SUB PUSH1 0x0 SLOAD AND PUSH1 0x40 MLOAD SWAP9 DUP10 DUP1 SWAP3 PUSH4 0x70A08231 PUSH1 0xE0 SHL DUP3 MSTORE ADDRESS PUSH1 0x4 DUP4 ADD MSTORE GAS STATICCALL SWAP7 DUP8 ISZERO PUSH2 0x4BBC JUMPI PUSH1 0x0 SWAP8 PUSH2 0x53DB JUMPI JUMPDEST POP PUSH1 0x0 SWAP6 SWAP5 JUMPDEST DUP9 SLOAD DUP8 LT ISZERO PUSH2 0x5148 JUMPI PUSH1 0xFF PUSH1 0x4 PUSH2 0x50A4 DUP10 DUP13 PUSH2 0x3E64 JUMP JUMPDEST POP ADD SLOAD AND ISZERO PUSH2 0x513E JUMPI PUSH1 0x1 PUSH2 0x50B9 DUP9 DUP12 PUSH2 0x3E64 JUMP JUMPDEST POP ADD SLOAD SWAP1 DUP2 DUP1 PUSH1 0x1 SHL DIV PUSH1 0x2 EQ DUP3 ISZERO OR ISZERO PUSH2 0x3F81 JUMPI DUP10 PUSH2 0x5111 SWAP2 PUSH1 0x1 PUSH2 0x50F3 DUP12 PUSH2 0x12C PUSH2 0x50EC DUP5 SWAP9 PUSH1 0xC SLOAD SWAP1 DUP7 SHL PUSH2 0x3F6E JUMP JUMPDEST DIV SWAP5 PUSH2 0x3E64 JUMP JUMPDEST POP ADD SLOAD DUP3 DUP2 LT PUSH2 0x5131 JUMPI SWAP1 PUSH2 0x4A7B DUP4 PUSH2 0x510B SWAP4 PUSH2 0x3FC4 JUMP JUMPDEST SWAP8 PUSH2 0x3F97 JUMP JUMPDEST SWAP7 PUSH1 0x4 PUSH2 0x511E DUP3 DUP13 PUSH2 0x3E64 JUMP JUMPDEST POP ADD DUP1 SLOAD PUSH1 0xFF NOT AND SWAP1 SSTORE JUMPDEST ADD SWAP6 SWAP5 PUSH2 0x508D JUMP JUMPDEST PUSH1 0x0 SWAP3 POP PUSH2 0x510B SWAP2 PUSH2 0x3F97 JUMP JUMPDEST SWAP5 SWAP6 PUSH1 0x1 SWAP1 PUSH2 0x5129 JUMP JUMPDEST SWAP4 SWAP8 POP SWAP1 SWAP5 POP DUP2 SWAP6 SWAP4 SWAP2 SWAP4 DUP4 PUSH2 0x5238 JUMPI JUMPDEST POP POP SWAP2 PUSH1 0x0 DUP1 MLOAD PUSH1 0x20 PUSH2 0x5F5C DUP4 CODECOPY DUP2 MLOAD SWAP2 MSTORE PUSH1 0x40 PUSH1 0x0 DUP1 MLOAD PUSH1 0x20 PUSH2 0x5EFC DUP4 CODECOPY DUP2 MLOAD SWAP2 MSTORE SWAP6 SWAP4 DUP6 PUSH1 0x20 SWAP7 PUSH2 0x5217 JUMPI JUMPDEST PUSH1 0x0 DUP6 DUP2 MSTORE PUSH1 0xF DUP9 MSTORE DUP4 SWAP1 KECCAK256 PUSH1 0x5 DUP2 ADD DUP1 SLOAD PUSH1 0xFF NOT DUP2 AND SWAP1 SWAP2 SSTORE SWAP1 SLOAD PUSH1 0x1 PUSH1 0x1 PUSH1 0xA0 SHL SUB AND SWAP1 PUSH1 0xFF AND DUP1 PUSH2 0x520E JUMPI JUMPDEST DUP1 PUSH2 0x51FA JUMPI JUMPDEST PUSH2 0x51DE JUMPI JUMPDEST POP DUP3 MLOAD SWAP2 DUP3 MSTORE DUP7 DUP3 ADD MSTORE LOG2 SLOAD PUSH1 0x40 MLOAD SWAP1 DUP2 MSTORE LOG2 CODESIZE DUP1 DUP1 DUP1 DUP1 PUSH2 0x4FEA JUMP JUMPDEST PUSH1 0x0 MSTORE PUSH1 0x1 DUP4 PUSH1 0x0 KECCAK256 ADD PUSH2 0x51F2 DUP2 SLOAD PUSH2 0x4F43 JUMP JUMPDEST SWAP1 SSTORE CODESIZE PUSH2 0x51C1 JUMP JUMPDEST POP DUP1 PUSH1 0x0 MSTORE PUSH1 0x1 DUP5 PUSH1 0x0 KECCAK256 ADD SLOAD ISZERO ISZERO PUSH2 0x51BC JUMP JUMPDEST POP DUP1 ISZERO ISZERO PUSH2 0x51B6 JUMP JUMPDEST DUP5 PUSH1 0x0 MSTORE PUSH1 0xF DUP8 MSTORE PUSH1 0x6 DUP4 PUSH1 0x0 KECCAK256 ADD PUSH2 0x5231 DUP3 DUP3 SLOAD PUSH2 0x3F97 JUMP JUMPDEST SWAP1 SSTORE PUSH2 0x5187 JUMP JUMPDEST SWAP1 SWAP5 SWAP3 SWAP4 SWAP1 DUP5 DUP2 LT PUSH2 0x52DC JUMPI POP POP PUSH1 0x0 DUP1 SLOAD PUSH1 0x40 MLOAD PUSH4 0xA9059CBB PUSH1 0xE0 SHL DUP2 MSTORE SWAP6 PUSH1 0x20 SWAP3 DUP8 SWAP3 PUSH1 0x1 PUSH1 0x1 PUSH1 0xA0 SHL SUB AND SWAP2 DUP4 SWAP2 SWAP1 DUP3 SWAP1 PUSH2 0x527B SWAP1 DUP11 SWAP1 PUSH1 0x4 DUP5 ADD PUSH2 0x3E49 JUMP JUMPDEST SUB SWAP3 GAS CALL SWAP4 DUP5 ISZERO PUSH2 0x4BBC JUMPI PUSH1 0x40 PUSH1 0x20 SWAP5 DUP8 SWAP4 PUSH1 0x0 DUP1 MLOAD PUSH1 0x20 PUSH2 0x5F5C DUP4 CODECOPY DUP2 MLOAD SWAP2 MSTORE SWAP4 PUSH1 0x0 DUP1 MLOAD PUSH1 0x20 PUSH2 0x5EFC DUP4 CODECOPY DUP2 MLOAD SWAP2 MSTORE SWAP9 PUSH2 0x52BF JUMPI JUMPDEST POP JUMPDEST SWAP4 SWAP6 POP SWAP4 SWAP6 POP PUSH2 0x5159 JUMP JUMPDEST PUSH2 0x52D5 SWAP1 DUP9 RETURNDATASIZE DUP11 GT PUSH2 0x6F7 JUMPI PUSH2 0x6E8 DUP2 DUP4 PUSH2 0x3DEF JUMP JUMPDEST POP CODESIZE PUSH2 0x52B2 JUMP JUMPDEST SWAP1 SWAP3 SWAP4 SWAP5 DUP2 PUSH2 0x532F JUMPI JUMPDEST POP PUSH1 0x40 PUSH1 0x0 DUP1 MLOAD PUSH1 0x20 PUSH2 0x5EFC DUP4 CODECOPY DUP2 MLOAD SWAP2 MSTORE SWAP6 DUP5 SWAP4 PUSH1 0x20 SWAP7 SWAP6 PUSH1 0x0 DUP1 MLOAD PUSH1 0x20 PUSH2 0x5E9C DUP4 CODECOPY DUP2 MLOAD SWAP2 MSTORE DUP5 PUSH1 0x0 DUP1 MLOAD PUSH1 0x20 PUSH2 0x5F5C DUP4 CODECOPY DUP2 MLOAD SWAP2 MSTORE SWAP7 DUP2 MLOAD SWAP1 DUP7 DUP3 MSTORE DUP12 DUP3 ADD MSTORE LOG2 PUSH2 0x52B4 JUMP JUMPDEST DUP2 PUSH2 0x5365 SWAP3 SWAP4 SWAP6 SWAP5 POP PUSH1 0x20 SWAP2 PUSH1 0x1 DUP1 PUSH1 0xA0 SHL SUB PUSH1 0x0 SLOAD AND SWAP1 PUSH1 0x0 PUSH1 0x40 MLOAD DUP1 SWAP7 DUP2 SWAP6 DUP3 SWAP5 PUSH4 0xA9059CBB PUSH1 0xE0 SHL DUP5 MSTORE PUSH1 0x4 DUP5 ADD PUSH2 0x3E49 JUMP JUMPDEST SUB SWAP3 GAS CALL DUP1 ISZERO PUSH2 0x4BBC JUMPI PUSH1 0x0 DUP1 MLOAD PUSH1 0x20 PUSH2 0x5EFC DUP4 CODECOPY DUP2 MLOAD SWAP2 MSTORE SWAP6 PUSH1 0x20 SWAP6 DUP9 PUSH1 0x0 DUP1 MLOAD PUSH1 0x20 PUSH2 0x5E9C DUP4 CODECOPY DUP2 MLOAD SWAP2 MSTORE PUSH1 0x40 DUP3 SWAP8 PUSH1 0x0 DUP1 MLOAD PUSH1 0x20 PUSH2 0x5F5C DUP4 CODECOPY DUP2 MLOAD SWAP2 MSTORE SWAP8 DUP3 SWAP8 PUSH2 0x53BE JUMPI JUMPDEST POP SWAP7 POP POP POP POP SWAP4 SWAP5 SWAP6 POP SWAP6 POP PUSH2 0x52E6 JUMP JUMPDEST PUSH2 0x53D4 SWAP1 DUP13 RETURNDATASIZE DUP15 GT PUSH2 0x6F7 JUMPI PUSH2 0x6E8 DUP2 DUP4 PUSH2 0x3DEF JUMP JUMPDEST POP CODESIZE PUSH2 0x53AD JUMP JUMPDEST SWAP1 SWAP7 POP PUSH1 0x20 DUP2 RETURNDATASIZE PUSH1 0x20 GT PUSH2 0x5407 JUMPI JUMPDEST DUP2 PUSH2 0x53F7 PUSH1 0x20 SWAP4 DUP4 PUSH2 0x3DEF JUMP JUMPDEST DUP2 ADD SUB SLT PUSH2 0xC9A JUMPI MLOAD SWAP6 CODESIZE PUSH2 0x5087 JUMP JUMPDEST RETURNDATASIZE SWAP2 POP PUSH2 0x53EA JUMP JUMPDEST PUSH1 0x1 PUSH1 0x1 PUSH1 0xA0 SHL SUB SWAP1 DUP2 AND PUSH1 0x0 DUP2 DUP2 MSTORE PUSH1 0x10 PUSH1 0x20 SWAP1 DUP2 MSTORE PUSH1 0x40 DUP1 DUP4 KECCAK256 PUSH1 0x1 DUP2 DUP2 ADD DUP1 SLOAD SWAP7 SWAP8 SWAP1 SWAP7 SWAP4 SWAP6 SWAP1 SWAP5 SWAP3 SWAP2 DUP5 ISZERO DUP1 ISZERO PUSH2 0x55CD JUMPI JUMPDEST PUSH2 0x5578 JUMPI PUSH1 0x11 DUP5 MSTORE DUP7 DUP3 KECCAK256 DUP1 SLOAD DUP4 SWAP3 SWAP2 DUP4 JUMPDEST DUP3 DUP2 LT PUSH2 0x558D JUMPI POP POP POP POP PUSH2 0x5583 JUMPI PUSH1 0x2 DUP3 ADD SWAP7 PUSH2 0x5479 DUP9 SLOAD PUSH1 0x15 SLOAD SWAP1 PUSH2 0x3F97 JUMP JUMPDEST TIMESTAMP GT ISZERO PUSH2 0x5578 JUMPI PUSH1 0x3 DUP4 DUP4 PUSH32 0x57025F0027038907EDA728B59164FB63D06048F42E618A35267E6A12E49B2E46 SWAP11 DUP11 SWAP7 SLOAD SWAP10 DUP14 DUP4 MSTORE PUSH1 0xF DUP10 MSTORE PUSH1 0xFF PUSH1 0x5 DUP10 DUP6 KECCAK256 SWAP3 DUP4 SLOAD AND SWAP3 ADD SLOAD AND DUP1 PUSH2 0x556F JUMPI JUMPDEST DUP1 PUSH2 0x555D JUMPI JUMPDEST PUSH2 0x5543 JUMPI JUMPDEST POP DUP13 DUP3 MSTORE PUSH1 0xF DUP9 MSTORE DUP2 DUP8 DUP2 KECCAK256 SWAP6 DUP2 PUSH1 0x4 PUSH1 0x5 DUP10 ADD SWAP9 PUSH1 0xFF NOT SWAP10 DUP11 DUP2 SLOAD AND SWAP1 SSTORE DUP3 DUP10 DUP3 ADD SSTORE ADD SSTORE DUP2 DUP6 SSTORE SSTORE SSTORE ADD SWAP1 DUP2 SLOAD AND SWAP1 SSTORE DUP5 PUSH2 0x5514 JUMPI JUMPDEST POP MLOAD SWAP3 DUP4 MSTORE DUP3 ADD MSTORE LOG2 JUMP JUMPDEST DUP5 DUP2 MSTORE PUSH1 0x13 DUP4 MSTORE PUSH2 0x5526 DUP3 DUP3 KECCAK256 PUSH2 0x4D6A JUMP JUMPDEST DUP5 DUP2 MSTORE PUSH1 0x1C DUP4 MSTORE KECCAK256 DUP1 SLOAD PUSH1 0x1 PUSH1 0x1 PUSH1 0xA0 SHL SUB NOT AND SWAP1 SSTORE DUP4 CODESIZE PUSH2 0x5509 JUMP JUMPDEST DUP3 MSTORE PUSH1 0x1 DUP8 DUP4 KECCAK256 ADD PUSH2 0x5555 DUP2 SLOAD PUSH2 0x4F43 JUMP JUMPDEST SWAP1 SSTORE CODESIZE PUSH2 0x54D1 JUMP JUMPDEST POP DUP1 DUP4 MSTORE PUSH1 0x1 DUP9 DUP5 KECCAK256 ADD SLOAD ISZERO ISZERO PUSH2 0x54CC JUMP JUMPDEST POP DUP1 ISZERO ISZERO PUSH2 0x54C6 JUMP JUMPDEST POP POP POP POP POP POP POP POP POP JUMP JUMPDEST POP POP POP POP POP POP POP POP JUMP JUMPDEST PUSH1 0xFF PUSH1 0x4 PUSH2 0x559B DUP4 DUP6 PUSH2 0x3E64 JUMP JUMPDEST POP ADD SLOAD AND PUSH2 0x55AB JUMPI JUMPDEST DUP4 ADD PUSH2 0x5457 JUMP JUMPDEST SWAP4 PUSH2 0x55C5 DUP5 SWAP2 DUP3 PUSH2 0x55BC DUP9 DUP7 PUSH2 0x3E64 JUMP JUMPDEST POP ADD SLOAD SWAP1 PUSH2 0x3F97 JUMP JUMPDEST SWAP5 SWAP1 POP PUSH2 0x55A4 JUMP JUMPDEST POP PUSH1 0xFF PUSH1 0x3 DUP5 ADD SLOAD AND PUSH2 0x5445 JUMP JUMPDEST PUSH1 0x1 DUP1 PUSH1 0xA0 SHL SUB DUP1 DUP3 AND SWAP1 PUSH1 0x0 SWAP2 DUP1 DUP4 MSTORE PUSH1 0x20 PUSH1 0xF DUP2 MSTORE PUSH1 0x40 SWAP1 DUP2 DUP6 KECCAK256 SWAP4 PUSH1 0x10 DUP3 MSTORE DUP3 DUP7 KECCAK256 PUSH1 0xFF PUSH1 0x5 DUP8 ADD SLOAD AND ISZERO SWAP1 DUP2 ISZERO PUSH2 0x57D0 JUMPI JUMPDEST DUP2 ISZERO PUSH2 0x57C3 JUMPI JUMPDEST POP PUSH2 0x57B8 JUMPI PUSH1 0x24 DUP3 DUP3 DUP9 SLOAD AND DUP6 MLOAD SWAP3 DUP4 DUP1 SWAP3 PUSH4 0x70A08231 PUSH1 0xE0 SHL DUP3 MSTORE ADDRESS PUSH1 0x4 DUP4 ADD MSTORE GAS STATICCALL SWAP1 DUP2 ISZERO PUSH2 0x57AE JUMPI SWAP1 DUP10 SWAP2 DUP9 SWAP2 PUSH2 0x577D JUMPI JUMPDEST POP LT PUSH2 0x5758 JUMPI PUSH1 0x4 DUP6 ADD SWAP6 PUSH1 0x3 DUP8 SLOAD SWAP7 ADD SWAP6 PUSH2 0x566B DUP8 SLOAD DUP1 SWAP3 PUSH2 0x3FC4 JUMP JUMPDEST DUP11 DUP2 DUP2 GT PUSH2 0x5730 JUMPI JUMPDEST POP POP DUP10 DUP1 PUSH2 0x569A JUMPI JUMPDEST POP POP POP POP POP POP POP SLOAD SWAP1 SLOAD GT ISZERO PUSH2 0x5691 JUMPI POP SWAP1 JUMP JUMPDEST PUSH2 0x4BB9 SWAP1 PUSH2 0x5001 JUMP JUMPDEST PUSH2 0x56CB SWAP4 PUSH2 0x56A9 DUP3 DUP8 SWAP5 PUSH2 0x3F97 JUMP JUMPDEST DUP10 SSTORE DUP4 SLOAD AND DUP11 DUP5 DUP9 MLOAD DUP1 SWAP8 DUP2 SWAP6 DUP3 SWAP5 PUSH4 0xA9059CBB PUSH1 0xE0 SHL DUP5 MSTORE PUSH1 0x4 DUP5 ADD PUSH2 0x3E49 JUMP JUMPDEST SUB SWAP3 GAS CALL SWAP1 DUP2 ISZERO PUSH2 0x5725 JUMPI POP SWAP1 PUSH1 0x0 DUP1 MLOAD PUSH1 0x20 PUSH2 0x5F1C DUP4 CODECOPY DUP2 MLOAD SWAP2 MSTORE SWAP4 SWAP3 SWAP2 PUSH2 0x5708 JUMPI JUMPDEST POP PUSH1 0x2 DUP3 MLOAD SWAP2 DUP10 DUP4 MSTORE DUP3 ADD MSTORE LOG2 CODESIZE DUP1 DUP1 DUP1 DUP1 DUP1 DUP10 PUSH2 0x567D JUMP JUMPDEST PUSH2 0x571E SWAP1 DUP3 RETURNDATASIZE DUP5 GT PUSH2 0x6F7 JUMPI PUSH2 0x6E8 DUP2 DUP4 PUSH2 0x3DEF JUMP JUMPDEST POP CODESIZE PUSH2 0x56EF JUMP JUMPDEST DUP5 MLOAD SWAP1 RETURNDATASIZE SWAP1 DUP3 RETURNDATACOPY RETURNDATASIZE SWAP1 REVERT JUMPDEST DUP2 SWAP12 POP DUP7 PUSH1 0x0 DUP1 MLOAD PUSH1 0x20 PUSH2 0x5E9C DUP4 CODECOPY DUP2 MLOAD SWAP2 MSTORE SWAP2 DUP10 SWAP4 SWAP14 DUP3 MLOAD SWAP2 DUP3 MSTORE DUP9 DUP3 ADD MSTORE LOG2 CODESIZE DUP1 PUSH2 0x5674 JUMP JUMPDEST POP DUP5 SWAP7 SWAP3 SWAP6 POP DUP2 PUSH1 0x0 DUP1 MLOAD PUSH1 0x20 PUSH2 0x5E9C DUP4 CODECOPY DUP2 MLOAD SWAP2 MSTORE SWAP6 SWAP3 SWAP5 POP MLOAD SWAP3 DUP4 MSTORE DUP3 ADD MSTORE LOG2 SWAP1 JUMP JUMPDEST DUP1 SWAP3 POP DUP5 DUP1 SWAP3 POP RETURNDATASIZE DUP4 GT PUSH2 0x57A7 JUMPI JUMPDEST PUSH2 0x5796 DUP2 DUP4 PUSH2 0x3DEF JUMP JUMPDEST DUP2 ADD SUB SLT PUSH2 0x2BF9 JUMPI DUP9 SWAP1 MLOAD CODESIZE PUSH2 0x564D JUMP JUMPDEST POP RETURNDATASIZE PUSH2 0x578C JUMP JUMPDEST DUP5 MLOAD RETURNDATASIZE DUP10 DUP3 RETURNDATACOPY RETURNDATASIZE SWAP1 REVERT JUMPDEST POP POP POP POP POP SWAP2 POP POP SWAP1 JUMP JUMPDEST PUSH1 0x1 SWAP2 POP ADD SLOAD ISZERO CODESIZE PUSH2 0x5618 JUMP JUMPDEST PUSH1 0x3 DUP2 ADD SLOAD PUSH1 0xFF AND SWAP2 POP PUSH2 0x5611 JUMP JUMPDEST PUSH1 0x1 DUP1 PUSH1 0xA0 SHL SUB DUP1 DUP3 AND SWAP1 PUSH1 0x0 SWAP2 DUP1 DUP4 MSTORE PUSH1 0x20 PUSH1 0xF DUP2 MSTORE PUSH1 0x40 SWAP1 DUP2 DUP6 KECCAK256 SWAP4 PUSH1 0x10 DUP3 MSTORE DUP3 DUP7 KECCAK256 PUSH1 0xFF PUSH1 0x5 DUP8 ADD SLOAD AND ISZERO SWAP1 DUP2 ISZERO PUSH2 0x5963 JUMPI JUMPDEST DUP2 ISZERO PUSH2 0x5956 JUMPI JUMPDEST POP PUSH2 0x57B8 JUMPI PUSH1 0x24 DUP3 DUP3 DUP9 SLOAD AND DUP6 MLOAD SWAP3 DUP4 DUP1 SWAP3 PUSH4 0x70A08231 PUSH1 0xE0 SHL DUP3 MSTORE ADDRESS PUSH1 0x4 DUP4 ADD MSTORE GAS STATICCALL SWAP1 DUP2 ISZERO PUSH2 0x57AE JUMPI SWAP1 DUP10 SWAP2 DUP9 SWAP2 PUSH2 0x5925 JUMPI JUMPDEST POP LT PUSH2 0x5758 JUMPI PUSH1 0x4 DUP6 ADD SWAP6 PUSH1 0x3 DUP8 SLOAD SWAP7 ADD SWAP6 PUSH2 0x586F DUP8 SLOAD DUP1 SWAP3 PUSH2 0x3FC4 JUMP JUMPDEST DUP11 DUP2 DUP2 GT PUSH2 0x58FD JUMPI JUMPDEST POP POP DUP10 DUP1 PUSH2 0x5894 JUMPI POP POP POP POP POP POP POP SLOAD SWAP1 SLOAD GT ISZERO PUSH2 0x5691 JUMPI POP SWAP1 JUMP JUMPDEST PUSH2 0x58A3 SWAP4 PUSH2 0x56A9 DUP3 DUP8 SWAP5 PUSH2 0x3F97 JUMP JUMPDEST SUB SWAP3 GAS CALL SWAP1 DUP2 ISZERO PUSH2 0x5725 JUMPI POP SWAP1 PUSH1 0x0 DUP1 MLOAD PUSH1 0x20 PUSH2 0x5F1C DUP4 CODECOPY DUP2 MLOAD SWAP2 MSTORE SWAP4 SWAP3 SWAP2 PUSH2 0x58E0 JUMPI JUMPDEST POP PUSH1 0x3 DUP3 MLOAD SWAP2 DUP10 DUP4 MSTORE DUP3 ADD MSTORE LOG2 CODESIZE DUP1 DUP1 DUP1 DUP1 DUP1 DUP10 PUSH2 0x567D JUMP JUMPDEST PUSH2 0x58F6 SWAP1 DUP3 RETURNDATASIZE DUP5 GT PUSH2 0x6F7 JUMPI PUSH2 0x6E8 DUP2 DUP4 PUSH2 0x3DEF JUMP JUMPDEST POP CODESIZE PUSH2 0x58C7 JUMP JUMPDEST DUP2 SWAP12 POP DUP7 PUSH1 0x0 DUP1 MLOAD PUSH1 0x20 PUSH2 0x5E9C DUP4 CODECOPY DUP2 MLOAD SWAP2 MSTORE SWAP2 DUP10 SWAP4 SWAP14 DUP3 MLOAD SWAP2 DUP3 MSTORE DUP9 DUP3 ADD MSTORE LOG2 CODESIZE DUP1 PUSH2 0x5878 JUMP JUMPDEST DUP1 SWAP3 POP DUP5 DUP1 SWAP3 POP RETURNDATASIZE DUP4 GT PUSH2 0x594F JUMPI JUMPDEST PUSH2 0x593E DUP2 DUP4 PUSH2 0x3DEF JUMP JUMPDEST DUP2 ADD SUB SLT PUSH2 0x2BF9 JUMPI DUP9 SWAP1 MLOAD CODESIZE PUSH2 0x5851 JUMP JUMPDEST POP RETURNDATASIZE PUSH2 0x5934 JUMP JUMPDEST PUSH1 0x1 SWAP2 POP ADD SLOAD ISZERO CODESIZE PUSH2 0x581C JUMP JUMPDEST PUSH1 0x3 DUP2 ADD SLOAD PUSH1 0xFF AND SWAP2 POP PUSH2 0x5815 JUMP JUMPDEST PUSH1 0x1 DUP1 PUSH1 0xA0 SHL SUB DUP1 DUP3 AND SWAP1 PUSH1 0x0 SWAP2 DUP1 DUP4 MSTORE PUSH1 0x20 PUSH1 0xF DUP2 MSTORE PUSH1 0x40 SWAP1 DUP2 DUP6 KECCAK256 SWAP4 PUSH1 0x10 DUP3 MSTORE DUP3 DUP7 KECCAK256 PUSH1 0xFF PUSH1 0x5 DUP8 ADD SLOAD AND ISZERO SWAP1 DUP2 ISZERO PUSH2 0x5AF6 JUMPI JUMPDEST DUP2 ISZERO PUSH2 0x5AE9 JUMPI JUMPDEST POP PUSH2 0x57B8 JUMPI PUSH1 0x24 DUP3 DUP3 DUP9 SLOAD AND DUP6 MLOAD SWAP3 DUP4 DUP1 SWAP3 PUSH4 0x70A08231 PUSH1 0xE0 SHL DUP3 MSTORE ADDRESS PUSH1 0x4 DUP4 ADD MSTORE GAS STATICCALL SWAP1 DUP2 ISZERO PUSH2 0x57AE JUMPI SWAP1 DUP10 SWAP2 DUP9 SWAP2 PUSH2 0x5AB8 JUMPI JUMPDEST POP LT PUSH2 0x5758 JUMPI PUSH1 0x4 DUP6 ADD SWAP6 PUSH1 0x3 DUP8 SLOAD SWAP7 ADD SWAP6 PUSH2 0x5A02 DUP8 SLOAD DUP1 SWAP3 PUSH2 0x3FC4 JUMP JUMPDEST DUP11 DUP2 DUP2 GT PUSH2 0x5A90 JUMPI JUMPDEST POP POP DUP10 DUP1 PUSH2 0x5A27 JUMPI POP POP POP POP POP POP POP SLOAD SWAP1 SLOAD GT ISZERO PUSH2 0x5691 JUMPI POP SWAP1 JUMP JUMPDEST PUSH2 0x5A36 SWAP4 PUSH2 0x56A9 DUP3 DUP8 SWAP5 PUSH2 0x3F97 JUMP JUMPDEST SUB SWAP3 GAS CALL SWAP1 DUP2 ISZERO PUSH2 0x5725 JUMPI POP SWAP1 PUSH1 0x0 DUP1 MLOAD PUSH1 0x20 PUSH2 0x5F1C DUP4 CODECOPY DUP2 MLOAD SWAP2 MSTORE SWAP4 SWAP3 SWAP2 PUSH2 0x5A73 JUMPI JUMPDEST POP PUSH1 0x4 DUP3 MLOAD SWAP2 DUP10 DUP4 MSTORE DUP3 ADD MSTORE LOG2 CODESIZE DUP1 DUP1 DUP1 DUP1 DUP1 DUP10 PUSH2 0x567D JUMP JUMPDEST PUSH2 0x5A89 SWAP1 DUP3 RETURNDATASIZE DUP5 GT PUSH2 0x6F7 JUMPI PUSH2 0x6E8 DUP2 DUP4 PUSH2 0x3DEF JUMP JUMPDEST POP CODESIZE PUSH2 0x5A5A JUMP JUMPDEST DUP2 SWAP12 POP DUP7 PUSH1 0x0 DUP1 MLOAD PUSH1 0x20 PUSH2 0x5E9C DUP4 CODECOPY DUP2 MLOAD SWAP2 MSTORE SWAP2 DUP10 SWAP4 SWAP14 DUP3 MLOAD SWAP2 DUP3 MSTORE DUP9 DUP3 ADD MSTORE LOG2 CODESIZE DUP1 PUSH2 0x5A0B JUMP JUMPDEST DUP1 SWAP3 POP DUP5 DUP1 SWAP3 POP RETURNDATASIZE DUP4 GT PUSH2 0x5AE2 JUMPI JUMPDEST PUSH2 0x5AD1 DUP2 DUP4 PUSH2 0x3DEF JUMP JUMPDEST DUP2 ADD SUB SLT PUSH2 0x2BF9 JUMPI DUP9 SWAP1 MLOAD CODESIZE PUSH2 0x59E4 JUMP JUMPDEST POP RETURNDATASIZE PUSH2 0x5AC7 JUMP JUMPDEST PUSH1 0x1 SWAP2 POP ADD SLOAD ISZERO CODESIZE PUSH2 0x59AF JUMP JUMPDEST PUSH1 0x3 DUP2 ADD SLOAD PUSH1 0xFF AND SWAP2 POP PUSH2 0x59A8 JUMP JUMPDEST SWAP1 DUP2 ISZERO PUSH2 0x5D45 JUMPI PUSH1 0x17 SLOAD PUSH9 0x3635C9ADC5DEA00000 DUP1 DUP3 LT SWAP1 DUP2 ISZERO PUSH2 0x5D39 JUMPI JUMPDEST POP PUSH2 0x5D34 JUMPI PUSH1 0x1 DUP1 PUSH1 0xA0 SHL SUB SWAP3 PUSH1 0x0 SWAP4 DUP1 DUP6 SLOAD AND SWAP3 PUSH1 0x40 SWAP4 DUP5 MLOAD SWAP2 DUP3 PUSH4 0x70A08231 PUSH1 0xE0 SHL SWAP3 DUP4 DUP3 MSTORE ADDRESS PUSH1 0x4 DUP4 ADD MSTORE DUP2 PUSH1 0x24 PUSH1 0x20 SWAP7 DUP8 SWAP4 GAS STATICCALL SWAP1 DUP2 ISZERO PUSH2 0x5D2A JUMPI DUP10 SWAP2 PUSH2 0x5CFD JUMPI JUMPDEST POP PUSH2 0x5B75 DUP7 DUP4 PUSH2 0x3F97 JUMP JUMPDEST GT PUSH2 0x5CDF JUMPI PUSH2 0x2710 DUP6 MUL PUSH2 0x270F NOT DUP7 DUP3 DIV ADD PUSH2 0x5CE9 JUMPI PUSH2 0x5B98 DUP3 PUSH2 0x3E8 SWAP3 PUSH2 0x3FA4 JUMP JUMPDEST GT PUSH2 0x5CDF JUMPI PUSH1 0x18 SLOAD SWAP1 PUSH2 0x5BB8 PUSH2 0x5BAE DUP4 DUP9 PUSH2 0x3F6E JUMP JUMPDEST PUSH2 0x280D DUP9 DUP5 PUSH2 0x3F97 JUMP JUMPDEST SWAP5 DUP6 ISZERO DUP1 ISZERO PUSH2 0x5CD6 JUMPI JUMPDEST PUSH2 0x5CCA JUMPI PUSH1 0x1 SLOAD AND SWAP3 DUP8 MLOAD SWAP1 DUP2 MSTORE ADDRESS PUSH1 0x4 DUP3 ADD MSTORE DUP5 DUP2 PUSH1 0x24 DUP2 DUP8 GAS STATICCALL SWAP1 DUP2 ISZERO PUSH2 0x5CC0 JUMPI SWAP1 DUP4 SWAP2 DUP12 SWAP2 PUSH2 0x5C8B JUMPI JUMPDEST POP LT PUSH2 0x5C80 JUMPI DUP5 DUP10 SWAP4 SWAP3 PUSH2 0x3977 DUP9 PUSH2 0x5C06 SWAP5 PUSH2 0x3F97 JUMP JUMPDEST PUSH1 0x18 SSTORE DUP1 EXTCODESIZE ISZERO PUSH2 0x5FC JUMPI DUP2 SWAP1 PUSH1 0x24 DUP8 MLOAD DUP1 SWAP5 DUP2 SWAP4 PUSH4 0x852CD8D PUSH1 0xE3 SHL DUP4 MSTORE DUP9 PUSH1 0x4 DUP5 ADD MSTORE GAS CALL DUP1 ISZERO PUSH2 0x5C76 JUMPI PUSH32 0xEC3929061CBBBEECB325623E7D5A86C3DAE11CB8A22CA45DC0972955657DA25 SWAP7 SWAP8 POP PUSH2 0x5C67 JUMPI JUMPDEST POP DUP4 MLOAD SWAP3 DUP4 MSTORE DUP3 ADD MSTORE LOG1 JUMP JUMPDEST PUSH2 0x5C70 SWAP1 PUSH2 0x3DDC JUMP JUMPDEST CODESIZE PUSH2 0x5C5B JUMP JUMPDEST DUP6 MLOAD RETURNDATASIZE DUP10 DUP3 RETURNDATACOPY RETURNDATASIZE SWAP1 REVERT JUMPDEST POP POP POP POP POP POP POP SWAP1 POP JUMP JUMPDEST DUP1 SWAP3 POP DUP7 DUP1 SWAP3 POP RETURNDATASIZE DUP4 GT PUSH2 0x5CB9 JUMPI JUMPDEST PUSH2 0x5CA4 DUP2 DUP4 PUSH2 0x3DEF JUMP JUMPDEST DUP2 ADD SUB SLT PUSH2 0x5CB5 JUMPI DUP3 SWAP1 MLOAD CODESIZE PUSH2 0x5BEF JUMP JUMPDEST DUP10 DUP1 REVERT JUMPDEST POP RETURNDATASIZE PUSH2 0x5C9A JUMP JUMPDEST DUP9 MLOAD RETURNDATASIZE DUP13 DUP3 RETURNDATACOPY RETURNDATASIZE SWAP1 REVERT JUMPDEST POP POP POP POP POP POP POP POP SWAP1 POP JUMP JUMPDEST POP DUP3 DUP7 GT PUSH2 0x5BC2 JUMP JUMPDEST POP POP POP POP POP POP SWAP1 POP JUMP JUMPDEST PUSH4 0x4E487B71 PUSH1 0xE0 SHL DUP10 MSTORE PUSH1 0x11 PUSH1 0x4 MSTORE PUSH1 0x24 DUP10 REVERT JUMPDEST SWAP1 POP DUP4 DUP2 DUP2 RETURNDATASIZE DUP4 GT PUSH2 0x5D23 JUMPI JUMPDEST PUSH2 0x5D14 DUP2 DUP4 PUSH2 0x3DEF JUMP JUMPDEST DUP2 ADD SUB SLT PUSH2 0x42D8 JUMPI MLOAD CODESIZE PUSH2 0x5B6A JUMP JUMPDEST POP RETURNDATASIZE PUSH2 0x5D0A JUMP JUMPDEST DUP8 MLOAD RETURNDATASIZE DUP12 DUP3 RETURNDATACOPY RETURNDATASIZE SWAP1 REVERT JUMPDEST POP SWAP1 POP JUMP JUMPDEST SWAP1 POP PUSH1 0x18 SLOAD LT CODESIZE PUSH2 0x5B24 JUMP JUMPDEST SWAP1 POP JUMP JUMPDEST PUSH1 0xFF PUSH1 0x0 DUP1 MLOAD PUSH1 0x20 PUSH2 0x5F7C DUP4 CODECOPY DUP2 MLOAD SWAP2 MSTORE SLOAD PUSH1 0x40 SHR AND ISZERO PUSH2 0x5D66 JUMPI JUMP JUMPDEST PUSH1 0x40 MLOAD PUSH4 0x1AFCD79F PUSH1 0xE3 SHL DUP2 MSTORE PUSH1 0x4 SWAP1 REVERT JUMPDEST SWAP1 PUSH2 0x5D9F JUMPI POP DUP1 MLOAD ISZERO PUSH2 0x5D8D JUMPI PUSH1 0x20 DUP2 MLOAD SWAP2 ADD REVERT JUMPDEST PUSH1 0x40 MLOAD PUSH4 0xD6BDA275 PUSH1 0xE0 SHL DUP2 MSTORE PUSH1 0x4 SWAP1 REVERT JUMPDEST DUP2 MLOAD ISZERO DUP1 PUSH2 0x5DD2 JUMPI JUMPDEST PUSH2 0x5DB0 JUMPI POP SWAP1 JUMP JUMPDEST PUSH1 0x40 MLOAD PUSH4 0x9996B315 PUSH1 0xE0 SHL DUP2 MSTORE PUSH1 0x1 PUSH1 0x1 PUSH1 0xA0 SHL SUB SWAP1 SWAP2 AND PUSH1 0x4 DUP3 ADD MSTORE PUSH1 0x24 SWAP1 REVERT JUMPDEST POP DUP1 EXTCODESIZE ISZERO PUSH2 0x5DA8 JUMP INVALID SWAP12 EXTCODECOPY 0xC7 EQ DUP3 LOG1 0xB2 0xEE 0xBE PUSH23 0x4A739F46F1FE99291FD0183BE81951532B29D0C9C8DA38 0xF8 LOG0 0xC9 0x2F 0x4C JUMPDEST SIGNEXTEND PUSH9 0x77F878CB4C0C8D348A SELFBALANCE 0xB7 PUSH14 0x716C8E78F425043DF9515B6FCEBD EXP 0x2C 0xE9 DUP12 0x28 0xCB CODECOPY SAR PUSH1 0x8 0xBB 0xC7 PUSH10 0x378C9A4919628E11639C 0xB5 PUSH22 0xCD320FCC9016D09D72D40FDAE2FD8CEAC6B6234C7706 0x21 0x4F 0xD3 SWAP13 SHR 0xD1 0xE6 MULMOD LOG0 MSTORE DUP13 NOT SWAP4 STOP LOG0 0xEE LOG2 0xE PUSH8 0x8CB42233C1C456C8 0x4C 0xED 0xCE PUSH31 0xA53FA360BB71BF3B761B7609567770360894A13BA1A3210667C828492DB98D 0xCA RETURNDATACOPY KECCAK256 PUSH23 0xCC3735A920A3CA505D382BBCB5987AAB1AFD379F6695F1 MOD DUP9 PUSH10 0xEE8CA6A0D02304C57935 0xA9 0xCC RETURNDATASIZE RETURNDATACOPY LOG2 0xE5 0x1E 0x4D MSTORE SIGNEXTEND 0xC2 OR 0xD2 0x5E DELEGATECALL PC DUP6 0x24 0x22 DUP14 SELFDESTRUCT 0xCF 0xA5 XOR DELEGATECALL 0xAD MSTORE OR DUP13 PUSH18 0xD49B8061D016213CD3118BE0079C53165914 SGT PREVRANDAO 0xCD 0x1F 0xD0 LOG4 CALLCODE DUP5 NOT 0x49 PUSH32 0x9722A3DAAFE3B4186F6B6457E0920BB94EB3842A728DB98228C375FF6B00C5BC GAS SLOAD STATICCALL 0xC6 PUSH20 0x6155517A0A20A61AF381583145E90B82CC5E529B DELEGATECALL 0xFC 0x4D 0xE PREVRANDAO CODECOPY PUSH18 0x74CDF145C4251AC33EF195A4249B779B1742 0x2D 0xD 0xF9 0x22 0x23 ADD DUP12 ORIGIN 0xB4 0xD1 STATICCALL CHAINID 0xE0 PUSH18 0x723D6817E2486D003BECC55F00F3A670CD3A 0xF7 0xD6 0x4B BASEFEE DUP10 0x26 DUP9 ADDMOD DUP10 0xD0 DUP11 DUP6 DUP6 LOG1 CODESIZE SELFDESTRUCT GASLIMIT MSTORE 0x27 0xAF PUSH8 0x37339A1EC262F0C5 PUSH31 0x16840DF040F15088DC2F81FE391C3923BEC73E23A9662EFC9C229C6A00A264 PUSH10 0x70667358221220165B9B GT MOD CALLCODE DUP13 0x2A INVALID CODESIZE 0x2E 0xB8 DUP5 0xB5 CALLER PUSH19 0xF0D96FA8A5EF3928E53757DD3685A964736F PUSH13 0x63430008160033000000000000 "},"methodIdentifiers":{"MAX_PRICE_IMPACT()":"6839b5fa","MIN_LIQUIDITY()":"21b77d63","REWARD_DIFFERENTIAL()":"88481b61","REWARD_DIRECT()":"0e2be210","REWARD_DYNAMIC()":"8a859a85","REWARD_LEVEL()":"8c0eaa48","REWARD_STATIC()":"1427f616","SECONDS_IN_UNIT()":"488b5d97","UPGRADE_INTERFACE_VERSION()":"ad3cb1cc","addLiquidity(uint256,uint256)":"9cd441da","adminSetReferrer(address,address)":"a2af9226","adminUpdateUserData(address,bool,uint256,bool,uint256,bool,uint256,bool,uint256,bool,uint256)":"66bb335e","batchUpdateUserStats(address[],uint256[],uint256[])":"d7edbc0c","bindReferrer(address)":"04f618cb","buyTicket(uint256)":"67dd74ca","buybackPercent()":"e4412f68","buybackWallet()":"deab8aea","claimRewards()":"372500ab","directReferrals(address,uint256)":"05ad3935","directRewardPercent()":"ccf61944","emergencyPause()":"51858e27","emergencyPaused()":"27c830a9","emergencyUnpause()":"4a4e3bd5","getDirectReferrals(address)":"d2c8e0e5","getLevelRewardLayers(uint256)":"182c84cc","initialize(address,address,address,address,address,address)":"cc2a9a5b","jbcToken()":"1788513c","lastBurnTime()":"e3067449","levelConfigs(uint256)":"21f483d3","levelRewardPercent()":"bd594dcf","levelRewardPool()":"b759936b","liquidityEnabled()":"b048a4bb","lpInjectionPercent()":"ceaa366d","lpInjectionWallet()":"88fd4d33","marketingPercent()":"d8020a18","marketingWallet()":"75f0a874","mcToken()":"95253992","nextStakeId()":"75506c96","nextTicketId()":"6031a52f","owner()":"8da5cb5b","priceOracle()":"2630c12f","proxiableUUID()":"52d1902d","redeem()":"be040fb0","redeemEnabled()":"d2f82536","redeemStake(uint256)":"10ff994d","redemptionFeePercent()":"dec7fa3b","renounceOwnership()":"715018a6","rescueTokens(address,address,uint256)":"cea9d26f","setDistributionConfig(uint256,uint256,uint256,uint256,uint256,uint256)":"d0f16470","setOperationalStatus(bool,bool)":"01d62efb","setRedemptionFeePercent(uint256)":"ece71266","setSwapTaxes(uint256,uint256)":"90b0eb51","setTicketFlexibilityDuration(uint256)":"9d99eca4","setWallets(address,address,address,address)":"83672f3e","stakeLiquidity(uint256,uint256)":"4ea4c6b3","stakeOwner(uint256)":"3dbd46bd","stakePendingRewards(uint256,uint256)":"ac8f50aa","swapBuyTax()":"27f082f4","swapJBCToMC(uint256)":"52778b05","swapMCToJBC(uint256)":"0a5c4567","swapReserveJBC()":"1d0dac76","swapReserveMC()":"77a2a540","swapSellTax()":"9370b080","ticketFlexibilityDuration()":"6dd66827","ticketOwner(uint256)":"c2ff12fc","ticketPendingRewards(uint256,uint256)":"813380cd","transferOwnership(address)":"f2fde38b","treasuryPercent()":"04ef9d58","treasuryWallet()":"4626402b","upgradeToAndCall(address,bytes)":"4f1ef286","userInfo(address)":"1959a002","userStakes(address,uint256)":"b5d5b5fa","userTicket(address)":"8710bcaa","withdrawLevelRewardPool(address,uint256)":"99b6024d","withdrawSwapReserves(address,uint256,address,uint256)":"d4f00142"}},"storageLayout":{"storage":[{"astId":1726,"contract":"contracts/JinbaoProtocol.sol:JinbaoProtocol","label":"mcToken","offset":0,"slot":"0","type":"t_contract(IERC20)1232"},{"astId":1729,"contract":"contracts/JinbaoProtocol.sol:JinbaoProtocol","label":"jbcToken","offset":0,"slot":"1","type":"t_contract(IJBC)1654"},{"astId":1731,"contract":"contracts/JinbaoProtocol.sol:JinbaoProtocol","label":"marketingWallet","offset":0,"slot":"2","type":"t_address"},{"astId":1733,"contract":"contracts/JinbaoProtocol.sol:JinbaoProtocol","label":"treasuryWallet","offset":0,"slot":"3","type":"t_address"},{"astId":1735,"contract":"contracts/JinbaoProtocol.sol:JinbaoProtocol","label":"lpInjectionWallet","offset":0,"slot":"4","type":"t_address"},{"astId":1737,"contract":"contracts/JinbaoProtocol.sol:JinbaoProtocol","label":"buybackWallet","offset":0,"slot":"5","type":"t_address"},{"astId":1742,"contract":"contracts/JinbaoProtocol.sol:JinbaoProtocol","label":"directRewardPercent","offset":0,"slot":"6","type":"t_uint256"},{"astId":1744,"contract":"contracts/JinbaoProtocol.sol:JinbaoProtocol","label":"levelRewardPercent","offset":0,"slot":"7","type":"t_uint256"},{"astId":1746,"contract":"contracts/JinbaoProtocol.sol:JinbaoProtocol","label":"marketingPercent","offset":0,"slot":"8","type":"t_uint256"},{"astId":1748,"contract":"contracts/JinbaoProtocol.sol:JinbaoProtocol","label":"buybackPercent","offset":0,"slot":"9","type":"t_uint256"},{"astId":1750,"contract":"contracts/JinbaoProtocol.sol:JinbaoProtocol","label":"lpInjectionPercent","offset":0,"slot":"10","type":"t_uint256"},{"astId":1752,"contract":"contracts/JinbaoProtocol.sol:JinbaoProtocol","label":"treasuryPercent","offset":0,"slot":"11","type":"t_uint256"},{"astId":1754,"contract":"contracts/JinbaoProtocol.sol:JinbaoProtocol","label":"redemptionFeePercent","offset":0,"slot":"12","type":"t_uint256"},{"astId":1756,"contract":"contracts/JinbaoProtocol.sol:JinbaoProtocol","label":"swapBuyTax","offset":0,"slot":"13","type":"t_uint256"},{"astId":1758,"contract":"contracts/JinbaoProtocol.sol:JinbaoProtocol","label":"swapSellTax","offset":0,"slot":"14","type":"t_uint256"},{"astId":1778,"contract":"contracts/JinbaoProtocol.sol:JinbaoProtocol","label":"userInfo","offset":0,"slot":"15","type":"t_mapping(t_address,t_struct(UserInfo)1689_storage)"},{"astId":1783,"contract":"contracts/JinbaoProtocol.sol:JinbaoProtocol","label":"userTicket","offset":0,"slot":"16","type":"t_mapping(t_address,t_struct(Ticket)1711_storage)"},{"astId":1789,"contract":"contracts/JinbaoProtocol.sol:JinbaoProtocol","label":"userStakes","offset":0,"slot":"17","type":"t_mapping(t_address,t_array(t_struct(Stake)1702_storage)dyn_storage)"},{"astId":1794,"contract":"contracts/JinbaoProtocol.sol:JinbaoProtocol","label":"directReferrals","offset":0,"slot":"18","type":"t_mapping(t_address,t_array(t_address)dyn_storage)"},{"astId":1800,"contract":"contracts/JinbaoProtocol.sol:JinbaoProtocol","label":"ticketPendingRewards","offset":0,"slot":"19","type":"t_mapping(t_uint256,t_array(t_struct(PendingReward)1716_storage)dyn_storage)"},{"astId":1811,"contract":"contracts/JinbaoProtocol.sol:JinbaoProtocol","label":"levelConfigs","offset":0,"slot":"20","type":"t_array(t_struct(LevelConfig)1807_storage)dyn_storage"},{"astId":1813,"contract":"contracts/JinbaoProtocol.sol:JinbaoProtocol","label":"ticketFlexibilityDuration","offset":0,"slot":"21","type":"t_uint256"},{"astId":1815,"contract":"contracts/JinbaoProtocol.sol:JinbaoProtocol","label":"liquidityEnabled","offset":0,"slot":"22","type":"t_bool"},{"astId":1817,"contract":"contracts/JinbaoProtocol.sol:JinbaoProtocol","label":"redeemEnabled","offset":1,"slot":"22","type":"t_bool"},{"astId":1819,"contract":"contracts/JinbaoProtocol.sol:JinbaoProtocol","label":"swapReserveMC","offset":0,"slot":"23","type":"t_uint256"},{"astId":1821,"contract":"contracts/JinbaoProtocol.sol:JinbaoProtocol","label":"swapReserveJBC","offset":0,"slot":"24","type":"t_uint256"},{"astId":1831,"contract":"contracts/JinbaoProtocol.sol:JinbaoProtocol","label":"nextTicketId","offset":0,"slot":"25","type":"t_uint256"},{"astId":1833,"contract":"contracts/JinbaoProtocol.sol:JinbaoProtocol","label":"nextStakeId","offset":0,"slot":"26","type":"t_uint256"},{"astId":1835,"contract":"contracts/JinbaoProtocol.sol:JinbaoProtocol","label":"lastBurnTime","offset":0,"slot":"27","type":"t_uint256"},{"astId":1839,"contract":"contracts/JinbaoProtocol.sol:JinbaoProtocol","label":"ticketOwner","offset":0,"slot":"28","type":"t_mapping(t_uint256,t_address)"},{"astId":1845,"contract":"contracts/JinbaoProtocol.sol:JinbaoProtocol","label":"stakePendingRewards","offset":0,"slot":"29","type":"t_mapping(t_uint256,t_array(t_struct(PendingReward)1716_storage)dyn_storage)"},{"astId":1849,"contract":"contracts/JinbaoProtocol.sol:JinbaoProtocol","label":"stakeOwner","offset":0,"slot":"30","type":"t_mapping(t_uint256,t_address)"},{"astId":1851,"contract":"contracts/JinbaoProtocol.sol:JinbaoProtocol","label":"levelRewardPool","offset":0,"slot":"31","type":"t_uint256"},{"astId":1855,"contract":"contracts/JinbaoProtocol.sol:JinbaoProtocol","label":"__gap","offset":0,"slot":"32","type":"t_array(t_uint256)47_storage"},{"astId":1857,"contract":"contracts/JinbaoProtocol.sol:JinbaoProtocol","label":"emergencyPaused","offset":0,"slot":"79","type":"t_bool"},{"astId":1859,"contract":"contracts/JinbaoProtocol.sol:JinbaoProtocol","label":"priceOracle","offset":1,"slot":"79","type":"t_address"}],"types":{"t_address":{"encoding":"inplace","label":"address","numberOfBytes":"20"},"t_array(t_address)dyn_storage":{"base":"t_address","encoding":"dynamic_array","label":"address[]","numberOfBytes":"32"},"t_array(t_struct(LevelConfig)1807_storage)dyn_storage":{"base":"t_struct(LevelConfig)1807_storage","encoding":"dynamic_array","label":"struct JinbaoProtocol.LevelConfig[]","numberOfBytes":"32"},"t_array(t_struct(PendingReward)1716_storage)dyn_storage":{"base":"t_struct(PendingReward)1716_storage","encoding":"dynamic_array","label":"struct JinbaoProtocol.PendingReward[]","numberOfBytes":"32"},"t_array(t_struct(Stake)1702_storage)dyn_storage":{"base":"t_struct(Stake)1702_storage","encoding":"dynamic_array","label":"struct JinbaoProtocol.Stake[]","numberOfBytes":"32"},"t_array(t_uint256)47_storage":{"base":"t_uint256","encoding":"inplace","label":"uint256[47]","numberOfBytes":"1504"},"t_bool":{"encoding":"inplace","label":"bool","numberOfBytes":"1"},"t_contract(IERC20)1232":{"encoding":"inplace","label":"contract IERC20","numberOfBytes":"20"},"t_contract(IJBC)1654":{"encoding":"inplace","label":"contract IJBC","numberOfBytes":"20"},"t_mapping(t_address,t_array(t_address)dyn_storage)":{"encoding":"mapping","key":"t_address","label":"mapping(address => address[])","numberOfBytes":"32","value":"t_array(t_address)dyn_storage"},"t_mapping(t_address,t_array(t_struct(Stake)1702_storage)dyn_storage)":{"encoding":"mapping","key":"t_address","label":"mapping(address => struct JinbaoProtocol.Stake[])","numberOfBytes":"32","value":"t_array(t_struct(Stake)1702_storage)dyn_storage"},"t_mapping(t_address,t_struct(Ticket)1711_storage)":{"encoding":"mapping","key":"t_address","label":"mapping(address => struct JinbaoProtocol.Ticket)","numberOfBytes":"32","value":"t_struct(Ticket)1711_storage"},"t_mapping(t_address,t_struct(UserInfo)1689_storage)":{"encoding":"mapping","key":"t_address","label":"mapping(address => struct JinbaoProtocol.UserInfo)","numberOfBytes":"32","value":"t_struct(UserInfo)1689_storage"},"t_mapping(t_uint256,t_address)":{"encoding":"mapping","key":"t_uint256","label":"mapping(uint256 => address)","numberOfBytes":"32","value":"t_address"},"t_mapping(t_uint256,t_array(t_struct(PendingReward)1716_storage)dyn_storage)":{"encoding":"mapping","key":"t_uint256","label":"mapping(uint256 => struct JinbaoProtocol.PendingReward[])","numberOfBytes":"32","value":"t_array(t_struct(PendingReward)1716_storage)dyn_storage"},"t_struct(LevelConfig)1807_storage":{"encoding":"inplace","label":"struct JinbaoProtocol.LevelConfig","members":[{"astId":1802,"contract":"contracts/JinbaoProtocol.sol:JinbaoProtocol","label":"minDirects","offset":0,"slot":"0","type":"t_uint256"},{"astId":1804,"contract":"contracts/JinbaoProtocol.sol:JinbaoProtocol","label":"level","offset":0,"slot":"1","type":"t_uint256"},{"astId":1806,"contract":"contracts/JinbaoProtocol.sol:JinbaoProtocol","label":"percent","offset":0,"slot":"2","type":"t_uint256"}],"numberOfBytes":"96"},"t_struct(PendingReward)1716_storage":{"encoding":"inplace","label":"struct JinbaoProtocol.PendingReward","members":[{"astId":1713,"contract":"contracts/JinbaoProtocol.sol:JinbaoProtocol","label":"upline","offset":0,"slot":"0","type":"t_address"},{"astId":1715,"contract":"contracts/JinbaoProtocol.sol:JinbaoProtocol","label":"amount","offset":0,"slot":"1","type":"t_uint256"}],"numberOfBytes":"64"},"t_struct(Stake)1702_storage":{"encoding":"inplace","label":"struct JinbaoProtocol.Stake","members":[{"astId":1691,"contract":"contracts/JinbaoProtocol.sol:JinbaoProtocol","label":"id","offset":0,"slot":"0","type":"t_uint256"},{"astId":1693,"contract":"contracts/JinbaoProtocol.sol:JinbaoProtocol","label":"amount","offset":0,"slot":"1","type":"t_uint256"},{"astId":1695,"contract":"contracts/JinbaoProtocol.sol:JinbaoProtocol","label":"startTime","offset":0,"slot":"2","type":"t_uint256"},{"astId":1697,"contract":"contracts/JinbaoProtocol.sol:JinbaoProtocol","label":"cycleDays","offset":0,"slot":"3","type":"t_uint256"},{"astId":1699,"contract":"contracts/JinbaoProtocol.sol:JinbaoProtocol","label":"active","offset":0,"slot":"4","type":"t_bool"},{"astId":1701,"contract":"contracts/JinbaoProtocol.sol:JinbaoProtocol","label":"paid","offset":0,"slot":"5","type":"t_uint256"}],"numberOfBytes":"192"},"t_struct(Ticket)1711_storage":{"encoding":"inplace","label":"struct JinbaoProtocol.Ticket","members":[{"astId":1704,"contract":"contracts/JinbaoProtocol.sol:JinbaoProtocol","label":"ticketId","offset":0,"slot":"0","type":"t_uint256"},{"astId":1706,"contract":"contracts/JinbaoProtocol.sol:JinbaoProtocol","label":"amount","offset":0,"slot":"1","type":"t_uint256"},{"astId":1708,"contract":"contracts/JinbaoProtocol.sol:JinbaoProtocol","label":"purchaseTime","offset":0,"slot":"2","type":"t_uint256"},{"astId":1710,"contract":"contracts/JinbaoProtocol.sol:JinbaoProtocol","label":"exited","offset":0,"slot":"3","type":"t_bool"}],"numberOfBytes":"128"},"t_struct(UserInfo)1689_storage":{"encoding":"inplace","label":"struct JinbaoProtocol.UserInfo","members":[{"astId":1668,"contract":"contracts/JinbaoProtocol.sol:JinbaoProtocol","label":"referrer","offset":0,"slot":"0","type":"t_address"},{"astId":1670,"contract":"contracts/JinbaoProtocol.sol:JinbaoProtocol","label":"activeDirects","offset":0,"slot":"1","type":"t_uint256"},{"astId":1672,"contract":"contracts/JinbaoProtocol.sol:JinbaoProtocol","label":"teamCount","offset":0,"slot":"2","type":"t_uint256"},{"astId":1674,"contract":"contracts/JinbaoProtocol.sol:JinbaoProtocol","label":"totalRevenue","offset":0,"slot":"3","type":"t_uint256"},{"astId":1676,"contract":"contracts/JinbaoProtocol.sol:JinbaoProtocol","label":"currentCap","offset":0,"slot":"4","type":"t_uint256"},{"astId":1678,"contract":"contracts/JinbaoProtocol.sol:JinbaoProtocol","label":"isActive","offset":0,"slot":"5","type":"t_bool"},{"astId":1680,"contract":"contracts/JinbaoProtocol.sol:JinbaoProtocol","label":"refundFeeAmount","offset":0,"slot":"6","type":"t_uint256"},{"astId":1682,"contract":"contracts/JinbaoProtocol.sol:JinbaoProtocol","label":"teamTotalVolume","offset":0,"slot":"7","type":"t_uint256"},{"astId":1684,"contract":"contracts/JinbaoProtocol.sol:JinbaoProtocol","label":"teamTotalCap","offset":0,"slot":"8","type":"t_uint256"},{"astId":1686,"contract":"contracts/JinbaoProtocol.sol:JinbaoProtocol","label":"maxTicketAmount","offset":0,"slot":"9","type":"t_uint256"},{"astId":1688,"contract":"contracts/JinbaoProtocol.sol:JinbaoProtocol","label":"maxSingleTicketAmount","offset":0,"slot":"10","type":"t_uint256"}],"numberOfBytes":"352"},"t_uint256":{"encoding":"inplace","label":"uint256","numberOfBytes":"32"}}}}}}