{"contracts/DailyBurnManager.sol":{"DailyBurnManager":{"abi":[{"inputs":[{"internalType":"address","name":"_protocol","type":"address"},{"internalType":"address","name":"_jbcToken","type":"address"}],"stateMutability":"nonpayable","type":"constructor"},{"inputs":[{"internalType":"address","name":"owner","type":"address"}],"name":"OwnableInvalidOwner","type":"error"},{"inputs":[{"internalType":"address","name":"account","type":"address"}],"name":"OwnableUnauthorizedAccount","type":"error"},{"anonymous":false,"inputs":[{"indexed":false,"internalType":"uint256","name":"newInterval","type":"uint256"},{"indexed":false,"internalType":"uint256","name":"newPercentage","type":"uint256"}],"name":"BurnParametersUpdated","type":"event"},{"anonymous":false,"inputs":[{"indexed":false,"internalType":"uint256","name":"burnAmount","type":"uint256"},{"indexed":false,"internalType":"uint256","name":"timestamp","type":"uint256"},{"indexed":false,"internalType":"address","name":"executor","type":"address"}],"name":"DailyBurnExecuted","type":"event"},{"anonymous":false,"inputs":[{"indexed":true,"internalType":"address","name":"previousOwner","type":"address"},{"indexed":true,"internalType":"address","name":"newOwner","type":"address"}],"name":"OwnershipTransferred","type":"event"},{"inputs":[],"name":"BURN_INTERVAL","outputs":[{"internalType":"uint256","name":"","type":"uint256"}],"stateMutability":"view","type":"function"},{"inputs":[],"name":"BURN_PERCENTAGE","outputs":[{"internalType":"uint256","name":"","type":"uint256"}],"stateMutability":"view","type":"function"},{"inputs":[],"name":"canBurn","outputs":[{"internalType":"bool","name":"","type":"bool"}],"stateMutability":"view","type":"function"},{"inputs":[],"name":"dailyBurn","outputs":[],"stateMutability":"nonpayable","type":"function"},{"inputs":[],"name":"emergencyPause","outputs":[],"stateMutability":"nonpayable","type":"function"},{"inputs":[],"name":"getBurnAmount","outputs":[{"internalType":"uint256","name":"","type":"uint256"}],"stateMutability":"view","type":"function"},{"inputs":[],"name":"jbcToken","outputs":[{"internalType":"contract IJBC","name":"","type":"address"}],"stateMutability":"view","type":"function"},{"inputs":[],"name":"lastBurnTime","outputs":[{"internalType":"uint256","name":"","type":"uint256"}],"stateMutability":"view","type":"function"},{"inputs":[],"name":"nextBurnTime","outputs":[{"internalType":"uint256","name":"","type":"uint256"}],"stateMutability":"view","type":"function"},{"inputs":[],"name":"owner","outputs":[{"internalType":"address","name":"","type":"address"}],"stateMutability":"view","type":"function"},{"inputs":[],"name":"protocol","outputs":[{"internalType":"contract JinbaoProtocol","name":"","type":"address"}],"stateMutability":"view","type":"function"},{"inputs":[],"name":"renounceOwnership","outputs":[],"stateMutability":"nonpayable","type":"function"},{"inputs":[],"name":"resumeBurn","outputs":[],"stateMutability":"nonpayable","type":"function"},{"inputs":[],"name":"timeUntilNextBurn","outputs":[{"internalType":"uint256","name":"","type":"uint256"}],"stateMutability":"view","type":"function"},{"inputs":[{"internalType":"address","name":"newOwner","type":"address"}],"name":"transferOwnership","outputs":[],"stateMutability":"nonpayable","type":"function"}],"evm":{"bytecode":{"linkReferences":{},"object":"60c03461010757601f61099c38819003918201601f19168301916001600160401b0383118484101761010c57808492604094855283398101031261010757610052602061004b83610122565b9201610122565b9033156100ee5760008054336001600160a01b0319821681178355604051946001600160a01b0394909385939192918416907f8be0079c531659141344cd1fd0a4f28419497f9722a3daafe3b4186f6b6457e09080a3166080521660a05242600155610865908161013782396080518181816101a3015281816102ae0152818161035b015261076c015260a0518181816103c401526106940152f35b604051631e4fbdf760e01b815260006004820152602490fd5b600080fd5b634e487b7160e01b600052604160045260246000fd5b51906001600160a01b03821682036101075756fe608060408181526004908136101561001657600080fd5b600092833560e01c9081631788513c14610680575080633f8a09ee1461066057806351858e271461063e5780635a1ab7801461061a578063715018a6146105c05780637b1648e2146105a257806381eeef5c1461031e578063893dbf61146102dd5780638ce74426146102995780638da5cb5b146102715780639649b91014610255578063c1eb18401461022f578063d0c5c5851461017c578063e3067449146101595763f2fde38b146100c957600080fd5b34610155576020366003190112610155576001600160a01b03823581811693919290849003610151576100fa610803565b831561013b57505082546001600160a01b0319811683178455167f8be0079c531659141344cd1fd0a4f28419497f9722a3daafe3b4186f6b6457e08380a380f35b51631e4fbdf760e01b8152908101849052602490fd5b8480fd5b8280fd5b8382346101785781600319360112610178576020906001549051908152f35b5080fd5b5090346101555782600319360112610155578151630e86d63b60e11b8152906020908290817f00000000000000000000000000000000000000000000000000000000000000006001600160a01b03165afa9283156102245780936101e8575b6020846064855191048152f35b9092506020833d60201161021c575b8161020460209383610709565b810103126102195750606460209251926101db565b80fd5b3d91506101f7565b8251903d90823e3d90fd5b83823461017857816003193601126101785760209061024c610741565b90519015158152f35b8382346101785781600319360112610178576020905160648152f35b838234610178578160031936011261017857905490516001600160a01b039091168152602090f35b838234610178578160031936011261017857517f00000000000000000000000000000000000000000000000000000000000000006001600160a01b03168152602090f35b508290346101785781600319360112610178576001549162015180830180931161030b576020838351908152f35b634e487b7160e01b815260118452602490fd5b503461015557826003193601126101555760015462015180810180911161058f574210610560578051630e86d63b60e11b81526001600160a01b037f000000000000000000000000000000000000000000000000000000000000000081169360209290919083818481895afa908115610556578791610525575b5080156104f157606490049485156104b657839060248651809481936370a0823160e01b8352878301527f0000000000000000000000000000000000000000000000000000000000000000165afa9081156104ac579085918791610477575b501061043b5750916060917fff7a68675d35a4d13ee082b117e0dd66fde26cf62ec42d62157f3ae9de881d909342600155815192835242908301523390820152a180f35b915162461bcd60e51b8152918201526018602482015277496e73756666696369656e74204a42432062616c616e636560401b6044820152606490fd5b809250848092503d83116104a5575b6104908183610709565b810103126104a157849051386103f7565b8580fd5b503d610486565b84513d88823e3d90fd5b845162461bcd60e51b81528084018590526015602482015274109d5c9b88185b5bdd5b9d081d1bdbc81cdb585b1b605a1b6044820152606490fd5b845162461bcd60e51b8152808401859052600e60248201526d273790252121903a3790313ab93760911b6044820152606490fd5b90508381813d831161054f575b61053c8183610709565b8101031261054b575138610398565b8680fd5b503d610532565b85513d89823e3d90fd5b906020606492519162461bcd60e51b83528201526009602482015268546f6f206561726c7960b81b6044820152fd5b634e487b7160e01b845260118352602484fd5b83823461017857816003193601126101785760209051620151808152f35b83346102195780600319360112610219576105d9610803565b80546001600160a01b03198116825581906001600160a01b03167f8be0079c531659141344cd1fd0a4f28419497f9722a3daafe3b4186f6b6457e08280a380f35b8382346101785781600319360112610178576020906106376106c3565b9051908152f35b8334610219578060031936011261021957610657610803565b60001960015580f35b8334610219578060031936011261021957610679610803565b4260015580f35b8490346101785781600319360112610178577f00000000000000000000000000000000000000000000000000000000000000006001600160a01b03168152602090f35b60015462015180808201918281116106eb578242101561070157429003019081116106eb5790565b634e487b7160e01b600052601160045260246000fd5b505050600090565b90601f8019910116810190811067ffffffffffffffff82111761072b57604052565b634e487b7160e01b600052604160045260246000fd5b6001546201518081018091116106eb5742106107fe57604051630e86d63b60e11b81526020816004817f00000000000000000000000000000000000000000000000000000000000000006001600160a01b03165afa9081156107f2576000916107bb575b5080156107b55760649004151590565b50600090565b90506020813d6020116107ea575b816107d660209383610709565b810103126107e55751386107a5565b600080fd5b3d91506107c9565b6040513d6000823e3d90fd5b600090565b6000546001600160a01b0316330361081757565b60405163118cdaa760e01b8152336004820152602490fdfea2646970667358221220f70aac116da32037c5616e46b169af95cb8bd7aba41ba887adeeb34e64d15e0b64736f6c63430008160033","opcodes":"PUSH1 0xC0 CALLVALUE PUSH2 0x107 JUMPI PUSH1 0x1F PUSH2 0x99C CODESIZE DUP2 SWAP1 SUB SWAP2 DUP3 ADD PUSH1 0x1F NOT AND DUP4 ADD SWAP2 PUSH1 0x1 PUSH1 0x1 PUSH1 0x40 SHL SUB DUP4 GT DUP5 DUP5 LT OR PUSH2 0x10C JUMPI DUP1 DUP5 SWAP3 PUSH1 0x40 SWAP5 DUP6 MSTORE DUP4 CODECOPY DUP2 ADD SUB SLT PUSH2 0x107 JUMPI PUSH2 0x52 PUSH1 0x20 PUSH2 0x4B DUP4 PUSH2 0x122 JUMP JUMPDEST SWAP3 ADD PUSH2 0x122 JUMP JUMPDEST SWAP1 CALLER ISZERO PUSH2 0xEE JUMPI PUSH1 0x0 DUP1 SLOAD CALLER PUSH1 0x1 PUSH1 0x1 PUSH1 0xA0 SHL SUB NOT DUP3 AND DUP2 OR DUP4 SSTORE PUSH1 0x40 MLOAD SWAP5 PUSH1 0x1 PUSH1 0x1 PUSH1 0xA0 SHL SUB SWAP5 SWAP1 SWAP4 DUP6 SWAP4 SWAP2 SWAP3 SWAP2 DUP5 AND SWAP1 PUSH32 0x8BE0079C531659141344CD1FD0A4F28419497F9722A3DAAFE3B4186F6B6457E0 SWAP1 DUP1 LOG3 AND PUSH1 0x80 MSTORE AND PUSH1 0xA0 MSTORE TIMESTAMP PUSH1 0x1 SSTORE PUSH2 0x865 SWAP1 DUP2 PUSH2 0x137 DUP3 CODECOPY PUSH1 0x80 MLOAD DUP2 DUP2 DUP2 PUSH2 0x1A3 ADD MSTORE DUP2 DUP2 PUSH2 0x2AE ADD MSTORE DUP2 DUP2 PUSH2 0x35B ADD MSTORE PUSH2 0x76C ADD MSTORE PUSH1 0xA0 MLOAD DUP2 DUP2 DUP2 PUSH2 0x3C4 ADD MSTORE PUSH2 0x694 ADD MSTORE RETURN JUMPDEST PUSH1 0x40 MLOAD PUSH4 0x1E4FBDF7 PUSH1 0xE0 SHL DUP2 MSTORE PUSH1 0x0 PUSH1 0x4 DUP3 ADD MSTORE PUSH1 0x24 SWAP1 REVERT JUMPDEST PUSH1 0x0 DUP1 REVERT JUMPDEST PUSH4 0x4E487B71 PUSH1 0xE0 SHL PUSH1 0x0 MSTORE PUSH1 0x41 PUSH1 0x4 MSTORE PUSH1 0x24 PUSH1 0x0 REVERT JUMPDEST MLOAD SWAP1 PUSH1 0x1 PUSH1 0x1 PUSH1 0xA0 SHL SUB DUP3 AND DUP3 SUB PUSH2 0x107 JUMPI JUMP INVALID PUSH1 0x80 PUSH1 0x40 DUP2 DUP2 MSTORE PUSH1 0x4 SWAP1 DUP2 CALLDATASIZE LT ISZERO PUSH2 0x16 JUMPI PUSH1 0x0 DUP1 REVERT JUMPDEST PUSH1 0x0 SWAP3 DUP4 CALLDATALOAD PUSH1 0xE0 SHR SWAP1 DUP2 PUSH4 0x1788513C EQ PUSH2 0x680 JUMPI POP DUP1 PUSH4 0x3F8A09EE EQ PUSH2 0x660 JUMPI DUP1 PUSH4 0x51858E27 EQ PUSH2 0x63E JUMPI DUP1 PUSH4 0x5A1AB780 EQ PUSH2 0x61A JUMPI DUP1 PUSH4 0x715018A6 EQ PUSH2 0x5C0 JUMPI DUP1 PUSH4 0x7B1648E2 EQ PUSH2 0x5A2 JUMPI DUP1 PUSH4 0x81EEEF5C EQ PUSH2 0x31E JUMPI DUP1 PUSH4 0x893DBF61 EQ PUSH2 0x2DD JUMPI DUP1 PUSH4 0x8CE74426 EQ PUSH2 0x299 JUMPI DUP1 PUSH4 0x8DA5CB5B EQ PUSH2 0x271 JUMPI DUP1 PUSH4 0x9649B910 EQ PUSH2 0x255 JUMPI DUP1 PUSH4 0xC1EB1840 EQ PUSH2 0x22F JUMPI DUP1 PUSH4 0xD0C5C585 EQ PUSH2 0x17C JUMPI DUP1 PUSH4 0xE3067449 EQ PUSH2 0x159 JUMPI PUSH4 0xF2FDE38B EQ PUSH2 0xC9 JUMPI PUSH1 0x0 DUP1 REVERT JUMPDEST CALLVALUE PUSH2 0x155 JUMPI PUSH1 0x20 CALLDATASIZE PUSH1 0x3 NOT ADD SLT PUSH2 0x155 JUMPI PUSH1 0x1 PUSH1 0x1 PUSH1 0xA0 SHL SUB DUP3 CALLDATALOAD DUP2 DUP2 AND SWAP4 SWAP2 SWAP3 SWAP1 DUP5 SWAP1 SUB PUSH2 0x151 JUMPI PUSH2 0xFA PUSH2 0x803 JUMP JUMPDEST DUP4 ISZERO PUSH2 0x13B JUMPI POP POP DUP3 SLOAD PUSH1 0x1 PUSH1 0x1 PUSH1 0xA0 SHL SUB NOT DUP2 AND DUP4 OR DUP5 SSTORE AND PUSH32 0x8BE0079C531659141344CD1FD0A4F28419497F9722A3DAAFE3B4186F6B6457E0 DUP4 DUP1 LOG3 DUP1 RETURN JUMPDEST MLOAD PUSH4 0x1E4FBDF7 PUSH1 0xE0 SHL DUP2 MSTORE SWAP1 DUP2 ADD DUP5 SWAP1 MSTORE PUSH1 0x24 SWAP1 REVERT JUMPDEST DUP5 DUP1 REVERT JUMPDEST DUP3 DUP1 REVERT JUMPDEST DUP4 DUP3 CALLVALUE PUSH2 0x178 JUMPI DUP2 PUSH1 0x3 NOT CALLDATASIZE ADD SLT PUSH2 0x178 JUMPI PUSH1 0x20 SWAP1 PUSH1 0x1 SLOAD SWAP1 MLOAD SWAP1 DUP2 MSTORE RETURN JUMPDEST POP DUP1 REVERT JUMPDEST POP SWAP1 CALLVALUE PUSH2 0x155 JUMPI DUP3 PUSH1 0x3 NOT CALLDATASIZE ADD SLT PUSH2 0x155 JUMPI DUP2 MLOAD PUSH4 0xE86D63B PUSH1 0xE1 SHL DUP2 MSTORE SWAP1 PUSH1 0x20 SWAP1 DUP3 SWAP1 DUP2 PUSH32 0x0 PUSH1 0x1 PUSH1 0x1 PUSH1 0xA0 SHL SUB AND GAS STATICCALL SWAP3 DUP4 ISZERO PUSH2 0x224 JUMPI DUP1 SWAP4 PUSH2 0x1E8 JUMPI JUMPDEST PUSH1 0x20 DUP5 PUSH1 0x64 DUP6 MLOAD SWAP2 DIV DUP2 MSTORE RETURN JUMPDEST SWAP1 SWAP3 POP PUSH1 0x20 DUP4 RETURNDATASIZE PUSH1 0x20 GT PUSH2 0x21C JUMPI JUMPDEST DUP2 PUSH2 0x204 PUSH1 0x20 SWAP4 DUP4 PUSH2 0x709 JUMP JUMPDEST DUP2 ADD SUB SLT PUSH2 0x219 JUMPI POP PUSH1 0x64 PUSH1 0x20 SWAP3 MLOAD SWAP3 PUSH2 0x1DB JUMP JUMPDEST DUP1 REVERT JUMPDEST RETURNDATASIZE SWAP2 POP PUSH2 0x1F7 JUMP JUMPDEST DUP3 MLOAD SWAP1 RETURNDATASIZE SWAP1 DUP3 RETURNDATACOPY RETURNDATASIZE SWAP1 REVERT JUMPDEST DUP4 DUP3 CALLVALUE PUSH2 0x178 JUMPI DUP2 PUSH1 0x3 NOT CALLDATASIZE ADD SLT PUSH2 0x178 JUMPI PUSH1 0x20 SWAP1 PUSH2 0x24C PUSH2 0x741 JUMP JUMPDEST SWAP1 MLOAD SWAP1 ISZERO ISZERO DUP2 MSTORE RETURN JUMPDEST DUP4 DUP3 CALLVALUE PUSH2 0x178 JUMPI DUP2 PUSH1 0x3 NOT CALLDATASIZE ADD SLT PUSH2 0x178 JUMPI PUSH1 0x20 SWAP1 MLOAD PUSH1 0x64 DUP2 MSTORE RETURN JUMPDEST DUP4 DUP3 CALLVALUE PUSH2 0x178 JUMPI DUP2 PUSH1 0x3 NOT CALLDATASIZE ADD SLT PUSH2 0x178 JUMPI SWAP1 SLOAD SWAP1 MLOAD PUSH1 0x1 PUSH1 0x1 PUSH1 0xA0 SHL SUB SWAP1 SWAP2 AND DUP2 MSTORE PUSH1 0x20 SWAP1 RETURN JUMPDEST DUP4 DUP3 CALLVALUE PUSH2 0x178 JUMPI DUP2 PUSH1 0x3 NOT CALLDATASIZE ADD SLT PUSH2 0x178 JUMPI MLOAD PUSH32 0x0 PUSH1 0x1 PUSH1 0x1 PUSH1 0xA0 SHL SUB AND DUP2 MSTORE PUSH1 0x20 SWAP1 RETURN JUMPDEST POP DUP3 SWAP1 CALLVALUE PUSH2 0x178 JUMPI DUP2 PUSH1 0x3 NOT CALLDATASIZE ADD SLT PUSH2 0x178 JUMPI PUSH1 0x1 SLOAD SWAP2 PUSH3 0x15180 DUP4 ADD DUP1 SWAP4 GT PUSH2 0x30B JUMPI PUSH1 0x20 DUP4 DUP4 MLOAD SWAP1 DUP2 MSTORE RETURN JUMPDEST PUSH4 0x4E487B71 PUSH1 0xE0 SHL DUP2 MSTORE PUSH1 0x11 DUP5 MSTORE PUSH1 0x24 SWAP1 REVERT JUMPDEST POP CALLVALUE PUSH2 0x155 JUMPI DUP3 PUSH1 0x3 NOT CALLDATASIZE ADD SLT PUSH2 0x155 JUMPI PUSH1 0x1 SLOAD PUSH3 0x15180 DUP2 ADD DUP1 SWAP2 GT PUSH2 0x58F JUMPI TIMESTAMP LT PUSH2 0x560 JUMPI DUP1 MLOAD PUSH4 0xE86D63B PUSH1 0xE1 SHL DUP2 MSTORE PUSH1 0x1 PUSH1 0x1 PUSH1 0xA0 SHL SUB PUSH32 0x0 DUP2 AND SWAP4 PUSH1 0x20 SWAP3 SWAP1 SWAP2 SWAP1 DUP4 DUP2 DUP5 DUP2 DUP10 GAS STATICCALL SWAP1 DUP2 ISZERO PUSH2 0x556 JUMPI DUP8 SWAP2 PUSH2 0x525 JUMPI JUMPDEST POP DUP1 ISZERO PUSH2 0x4F1 JUMPI PUSH1 0x64 SWAP1 DIV SWAP5 DUP6 ISZERO PUSH2 0x4B6 JUMPI DUP4 SWAP1 PUSH1 0x24 DUP7 MLOAD DUP1 SWAP5 DUP2 SWAP4 PUSH4 0x70A08231 PUSH1 0xE0 SHL DUP4 MSTORE DUP8 DUP4 ADD MSTORE PUSH32 0x0 AND GAS STATICCALL SWAP1 DUP2 ISZERO PUSH2 0x4AC JUMPI SWAP1 DUP6 SWAP2 DUP8 SWAP2 PUSH2 0x477 JUMPI JUMPDEST POP LT PUSH2 0x43B JUMPI POP SWAP2 PUSH1 0x60 SWAP2 PUSH32 0xFF7A68675D35A4D13EE082B117E0DD66FDE26CF62EC42D62157F3AE9DE881D90 SWAP4 TIMESTAMP PUSH1 0x1 SSTORE DUP2 MLOAD SWAP3 DUP4 MSTORE TIMESTAMP SWAP1 DUP4 ADD MSTORE CALLER SWAP1 DUP3 ADD MSTORE LOG1 DUP1 RETURN JUMPDEST SWAP2 MLOAD PUSH3 0x461BCD PUSH1 0xE5 SHL DUP2 MSTORE SWAP2 DUP3 ADD MSTORE PUSH1 0x18 PUSH1 0x24 DUP3 ADD MSTORE PUSH24 0x496E73756666696369656E74204A42432062616C616E6365 PUSH1 0x40 SHL PUSH1 0x44 DUP3 ADD MSTORE PUSH1 0x64 SWAP1 REVERT JUMPDEST DUP1 SWAP3 POP DUP5 DUP1 SWAP3 POP RETURNDATASIZE DUP4 GT PUSH2 0x4A5 JUMPI JUMPDEST PUSH2 0x490 DUP2 DUP4 PUSH2 0x709 JUMP JUMPDEST DUP2 ADD SUB SLT PUSH2 0x4A1 JUMPI DUP5 SWAP1 MLOAD CODESIZE PUSH2 0x3F7 JUMP JUMPDEST DUP6 DUP1 REVERT JUMPDEST POP RETURNDATASIZE PUSH2 0x486 JUMP JUMPDEST DUP5 MLOAD RETURNDATASIZE DUP9 DUP3 RETURNDATACOPY RETURNDATASIZE SWAP1 REVERT JUMPDEST DUP5 MLOAD PUSH3 0x461BCD PUSH1 0xE5 SHL DUP2 MSTORE DUP1 DUP5 ADD DUP6 SWAP1 MSTORE PUSH1 0x15 PUSH1 0x24 DUP3 ADD MSTORE PUSH21 0x109D5C9B88185B5BDD5B9D081D1BDBC81CDB585B1B PUSH1 0x5A SHL PUSH1 0x44 DUP3 ADD MSTORE PUSH1 0x64 SWAP1 REVERT JUMPDEST DUP5 MLOAD PUSH3 0x461BCD PUSH1 0xE5 SHL DUP2 MSTORE DUP1 DUP5 ADD DUP6 SWAP1 MSTORE PUSH1 0xE PUSH1 0x24 DUP3 ADD MSTORE PUSH14 0x273790252121903A3790313AB937 PUSH1 0x91 SHL PUSH1 0x44 DUP3 ADD MSTORE PUSH1 0x64 SWAP1 REVERT JUMPDEST SWAP1 POP DUP4 DUP2 DUP2 RETURNDATASIZE DUP4 GT PUSH2 0x54F JUMPI JUMPDEST PUSH2 0x53C DUP2 DUP4 PUSH2 0x709 JUMP JUMPDEST DUP2 ADD SUB SLT PUSH2 0x54B JUMPI MLOAD CODESIZE PUSH2 0x398 JUMP JUMPDEST DUP7 DUP1 REVERT JUMPDEST POP RETURNDATASIZE PUSH2 0x532 JUMP JUMPDEST DUP6 MLOAD RETURNDATASIZE DUP10 DUP3 RETURNDATACOPY RETURNDATASIZE SWAP1 REVERT JUMPDEST SWAP1 PUSH1 0x20 PUSH1 0x64 SWAP3 MLOAD SWAP2 PUSH3 0x461BCD PUSH1 0xE5 SHL DUP4 MSTORE DUP3 ADD MSTORE PUSH1 0x9 PUSH1 0x24 DUP3 ADD MSTORE PUSH9 0x546F6F206561726C79 PUSH1 0xB8 SHL PUSH1 0x44 DUP3 ADD MSTORE REVERT JUMPDEST PUSH4 0x4E487B71 PUSH1 0xE0 SHL DUP5 MSTORE PUSH1 0x11 DUP4 MSTORE PUSH1 0x24 DUP5 REVERT JUMPDEST DUP4 DUP3 CALLVALUE PUSH2 0x178 JUMPI DUP2 PUSH1 0x3 NOT CALLDATASIZE ADD SLT PUSH2 0x178 JUMPI PUSH1 0x20 SWAP1 MLOAD PUSH3 0x15180 DUP2 MSTORE RETURN JUMPDEST DUP4 CALLVALUE PUSH2 0x219 JUMPI DUP1 PUSH1 0x3 NOT CALLDATASIZE ADD SLT PUSH2 0x219 JUMPI PUSH2 0x5D9 PUSH2 0x803 JUMP JUMPDEST DUP1 SLOAD PUSH1 0x1 PUSH1 0x1 PUSH1 0xA0 SHL SUB NOT DUP2 AND DUP3 SSTORE DUP2 SWAP1 PUSH1 0x1 PUSH1 0x1 PUSH1 0xA0 SHL SUB AND PUSH32 0x8BE0079C531659141344CD1FD0A4F28419497F9722A3DAAFE3B4186F6B6457E0 DUP3 DUP1 LOG3 DUP1 RETURN JUMPDEST DUP4 DUP3 CALLVALUE PUSH2 0x178 JUMPI DUP2 PUSH1 0x3 NOT CALLDATASIZE ADD SLT PUSH2 0x178 JUMPI PUSH1 0x20 SWAP1 PUSH2 0x637 PUSH2 0x6C3 JUMP JUMPDEST SWAP1 MLOAD SWAP1 DUP2 MSTORE RETURN JUMPDEST DUP4 CALLVALUE PUSH2 0x219 JUMPI DUP1 PUSH1 0x3 NOT CALLDATASIZE ADD SLT PUSH2 0x219 JUMPI PUSH2 0x657 PUSH2 0x803 JUMP JUMPDEST PUSH1 0x0 NOT PUSH1 0x1 SSTORE DUP1 RETURN JUMPDEST DUP4 CALLVALUE PUSH2 0x219 JUMPI DUP1 PUSH1 0x3 NOT CALLDATASIZE ADD SLT PUSH2 0x219 JUMPI PUSH2 0x679 PUSH2 0x803 JUMP JUMPDEST TIMESTAMP PUSH1 0x1 SSTORE DUP1 RETURN JUMPDEST DUP5 SWAP1 CALLVALUE PUSH2 0x178 JUMPI DUP2 PUSH1 0x3 NOT CALLDATASIZE ADD SLT PUSH2 0x178 JUMPI PUSH32 0x0 PUSH1 0x1 PUSH1 0x1 PUSH1 0xA0 SHL SUB AND DUP2 MSTORE PUSH1 0x20 SWAP1 RETURN JUMPDEST PUSH1 0x1 SLOAD PUSH3 0x15180 DUP1 DUP3 ADD SWAP2 DUP3 DUP2 GT PUSH2 0x6EB JUMPI DUP3 TIMESTAMP LT ISZERO PUSH2 0x701 JUMPI TIMESTAMP SWAP1 SUB ADD SWAP1 DUP2 GT PUSH2 0x6EB JUMPI SWAP1 JUMP JUMPDEST PUSH4 0x4E487B71 PUSH1 0xE0 SHL PUSH1 0x0 MSTORE PUSH1 0x11 PUSH1 0x4 MSTORE PUSH1 0x24 PUSH1 0x0 REVERT JUMPDEST POP POP POP PUSH1 0x0 SWAP1 JUMP JUMPDEST SWAP1 PUSH1 0x1F DUP1 NOT SWAP2 ADD AND DUP2 ADD SWAP1 DUP2 LT PUSH8 0xFFFFFFFFFFFFFFFF DUP3 GT OR PUSH2 0x72B JUMPI PUSH1 0x40 MSTORE JUMP JUMPDEST PUSH4 0x4E487B71 PUSH1 0xE0 SHL PUSH1 0x0 MSTORE PUSH1 0x41 PUSH1 0x4 MSTORE PUSH1 0x24 PUSH1 0x0 REVERT JUMPDEST PUSH1 0x1 SLOAD PUSH3 0x15180 DUP2 ADD DUP1 SWAP2 GT PUSH2 0x6EB JUMPI TIMESTAMP LT PUSH2 0x7FE JUMPI PUSH1 0x40 MLOAD PUSH4 0xE86D63B PUSH1 0xE1 SHL DUP2 MSTORE PUSH1 0x20 DUP2 PUSH1 0x4 DUP2 PUSH32 0x0 PUSH1 0x1 PUSH1 0x1 PUSH1 0xA0 SHL SUB AND GAS STATICCALL SWAP1 DUP2 ISZERO PUSH2 0x7F2 JUMPI PUSH1 0x0 SWAP2 PUSH2 0x7BB JUMPI JUMPDEST POP DUP1 ISZERO PUSH2 0x7B5 JUMPI PUSH1 0x64 SWAP1 DIV ISZERO ISZERO SWAP1 JUMP JUMPDEST POP PUSH1 0x0 SWAP1 JUMP JUMPDEST SWAP1 POP PUSH1 0x20 DUP2 RETURNDATASIZE PUSH1 0x20 GT PUSH2 0x7EA JUMPI JUMPDEST DUP2 PUSH2 0x7D6 PUSH1 0x20 SWAP4 DUP4 PUSH2 0x709 JUMP JUMPDEST DUP2 ADD SUB SLT PUSH2 0x7E5 JUMPI MLOAD CODESIZE PUSH2 0x7A5 JUMP JUMPDEST PUSH1 0x0 DUP1 REVERT JUMPDEST RETURNDATASIZE SWAP2 POP PUSH2 0x7C9 JUMP JUMPDEST PUSH1 0x40 MLOAD RETURNDATASIZE PUSH1 0x0 DUP3 RETURNDATACOPY RETURNDATASIZE SWAP1 REVERT JUMPDEST PUSH1 0x0 SWAP1 JUMP JUMPDEST PUSH1 0x0 SLOAD PUSH1 0x1 PUSH1 0x1 PUSH1 0xA0 SHL SUB AND CALLER SUB PUSH2 0x817 JUMPI JUMP JUMPDEST PUSH1 0x40 MLOAD PUSH4 0x118CDAA7 PUSH1 0xE0 SHL DUP2 MSTORE CALLER PUSH1 0x4 DUP3 ADD MSTORE PUSH1 0x24 SWAP1 REVERT INVALID LOG2 PUSH5 0x6970667358 0x22 SLT KECCAK256 0xF7 EXP 0xAC GT PUSH14 0xA32037C5616E46B169AF95CB8BD7 0xAB LOG4 SHL 0xA8 DUP8 0xAD 0xEE 0xB3 0x4E PUSH5 0xD15E0B6473 PUSH16 0x6C634300081600330000000000000000 "},"methodIdentifiers":{"BURN_INTERVAL()":"7b1648e2","BURN_PERCENTAGE()":"9649b910","canBurn()":"c1eb1840","dailyBurn()":"81eeef5c","emergencyPause()":"51858e27","getBurnAmount()":"d0c5c585","jbcToken()":"1788513c","lastBurnTime()":"e3067449","nextBurnTime()":"893dbf61","owner()":"8da5cb5b","protocol()":"8ce74426","renounceOwnership()":"715018a6","resumeBurn()":"3f8a09ee","timeUntilNextBurn()":"5a1ab780","transferOwnership(address)":"f2fde38b"}},"storageLayout":{"storage":[{"astId":828,"contract":"contracts/DailyBurnManager.sol:DailyBurnManager","label":"_owner","offset":0,"slot":"0","type":"t_address"},{"astId":1976,"contract":"contracts/DailyBurnManager.sol:DailyBurnManager","label":"lastBurnTime","offset":0,"slot":"1","type":"t_uint256"}],"types":{"t_address":{"encoding":"inplace","label":"address","numberOfBytes":"20"},"t_uint256":{"encoding":"inplace","label":"uint256","numberOfBytes":"32"}}}}}}