{"contracts/DailyBurnExtension.sol":{"DailyBurnExtension":{"abi":[{"inputs":[{"internalType":"address","name":"_protocol","type":"address"}],"stateMutability":"nonpayable","type":"constructor"},{"anonymous":false,"inputs":[{"indexed":false,"internalType":"uint256","name":"burnAmount","type":"uint256"},{"indexed":false,"internalType":"uint256","name":"timestamp","type":"uint256"}],"name":"DailyBurnExecuted","type":"event"},{"inputs":[],"name":"canBurn","outputs":[{"internalType":"bool","name":"","type":"bool"}],"stateMutability":"view","type":"function"},{"inputs":[],"name":"dailyBurn","outputs":[],"stateMutability":"nonpayable","type":"function"},{"inputs":[],"name":"getBurnAmount","outputs":[{"internalType":"uint256","name":"","type":"uint256"}],"stateMutability":"view","type":"function"},{"inputs":[],"name":"nextBurnTime","outputs":[{"internalType":"uint256","name":"","type":"uint256"}],"stateMutability":"view","type":"function"},{"inputs":[],"name":"protocol","outputs":[{"internalType":"contract JinbaoProtocol","name":"","type":"address"}],"stateMutability":"view","type":"function"}],"evm":{"bytecode":{"linkReferences":{},"object":"60a03461008757601f61066238819003918201601f19168301916001600160401b0383118484101761008c5780849260209460405283398101031261008757516001600160a01b03811690819003610087576080526040516105bf90816100a38239608051818181607f0152818161013201528181610259015281816102af01526103740152f35b600080fd5b634e487b7160e01b600052604160045260246000fdfe6080604081815260048036101561001557600080fd5b600092833560e01c90816381eeef5c1461035257508063893dbf61146102885780638ce7442614610244578063c1eb18401461010f5763d0c5c5851461005a57600080fd5b3461010b578260031936011261010b578151630e86d63b60e11b8152906020908290817f00000000000000000000000000000000000000000000000000000000000000006001600160a01b03165afa9283156101005780936100c4575b6020846064855191048152f35b9092506020833d6020116100f8575b816100e060209383610551565b810103126100f55750606460209251926100b7565b80fd5b3d91506100d3565b8251903d90823e3d90fd5b8280fd5b50903461010b578260031936011261010b57805163e306744960e01b81526020937f00000000000000000000000000000000000000000000000000000000000000006001600160a01b031685838681845afa92831561020857859187918495610212575b508551630e86d63b60e11b815296879182905afa9485156102085782956101d5575b506201518083018093116101c257505042101591826101b8575b50519015158152f35b15159150386101af565b634e487b7160e01b825260119052602490fd5b9094508581813d8311610201575b6101ed8183610551565b810103126101fd57519338610195565b5080fd5b503d6101e3565b84513d84823e3d90fd5b9250935081813d831161023d575b61022a8183610551565b810103126101fd57858591519338610173565b503d610220565b5050346101fd57816003193601126101fd57517f00000000000000000000000000000000000000000000000000000000000000006001600160a01b03168152602090f35b509190346101fd57816003193601126101fd57805163e306744960e01b81529160208385817f00000000000000000000000000000000000000000000000000000000000000006001600160a01b03165afa928315610346578193610312575b506201518083018093116102ff576020838351908152f35b634e487b7160e01b815260118452602490fd5b9092506020813d60201161033e575b8161032e60209383610551565b8101031261010b575191386102e7565b3d9150610321565b509051903d90823e3d90fd5b8484843461010b578260031936011261010b5763e306744960e01b84526020937f00000000000000000000000000000000000000000000000000000000000000006001600160a01b03169085818481855afa908115610547578591610516575b506201518081018091116105035742106104d957848291845192838092630e86d63b60e11b82525afa9081156104cc57849161049b575b508015610468576064900490811561042d57507fdc0c563433098d6d033236e322193bd62cdc1680f10682d3cb4ede4fab3f08fa929382519182524290820152a180f35b825162461bcd60e51b81529081018590526015602482015274109d5c9b88185b5bdd5b9d081d1bdbc81cdb585b1b605a1b6044820152606490fd5b5083606492519162461bcd60e51b8352820152600e60248201526d273790252121903a3790313ab93760911b6044820152fd5b90508481813d83116104c5575b6104b28183610551565b810103126104c15751856103e9565b8380fd5b503d6104a8565b50505051903d90823e3d90fd5b5083606492519162461bcd60e51b835282015260056024820152644561726c7960d81b6044820152fd5b634e487b7160e01b855260118352602485fd5b90508581813d8311610540575b61052d8183610551565b8101031261053c5751866103b2565b8480fd5b503d610523565b84513d87823e3d90fd5b90601f8019910116810190811067ffffffffffffffff82111761057357604052565b634e487b7160e01b600052604160045260246000fdfea2646970667358221220f7d1f8f10c46d55a9b2f0db7037e43e143b99892ede73cdf070118c950571e7c64736f6c63430008160033","opcodes":"PUSH1 0xA0 CALLVALUE PUSH2 0x87 JUMPI PUSH1 0x1F PUSH2 0x662 CODESIZE DUP2 SWAP1 SUB SWAP2 DUP3 ADD PUSH1 0x1F NOT AND DUP4 ADD SWAP2 PUSH1 0x1 PUSH1 0x1 PUSH1 0x40 SHL SUB DUP4 GT DUP5 DUP5 LT OR PUSH2 0x8C JUMPI DUP1 DUP5 SWAP3 PUSH1 0x20 SWAP5 PUSH1 0x40 MSTORE DUP4 CODECOPY DUP2 ADD SUB SLT PUSH2 0x87 JUMPI MLOAD PUSH1 0x1 PUSH1 0x1 PUSH1 0xA0 SHL SUB DUP2 AND SWAP1 DUP2 SWAP1 SUB PUSH2 0x87 JUMPI PUSH1 0x80 MSTORE PUSH1 0x40 MLOAD PUSH2 0x5BF SWAP1 DUP2 PUSH2 0xA3 DUP3 CODECOPY PUSH1 0x80 MLOAD DUP2 DUP2 DUP2 PUSH1 0x7F ADD MSTORE DUP2 DUP2 PUSH2 0x132 ADD MSTORE DUP2 DUP2 PUSH2 0x259 ADD MSTORE DUP2 DUP2 PUSH2 0x2AF ADD MSTORE PUSH2 0x374 ADD MSTORE RETURN JUMPDEST PUSH1 0x0 DUP1 REVERT JUMPDEST PUSH4 0x4E487B71 PUSH1 0xE0 SHL PUSH1 0x0 MSTORE PUSH1 0x41 PUSH1 0x4 MSTORE PUSH1 0x24 PUSH1 0x0 REVERT INVALID PUSH1 0x80 PUSH1 0x40 DUP2 DUP2 MSTORE PUSH1 0x4 DUP1 CALLDATASIZE LT ISZERO PUSH2 0x15 JUMPI PUSH1 0x0 DUP1 REVERT JUMPDEST PUSH1 0x0 SWAP3 DUP4 CALLDATALOAD PUSH1 0xE0 SHR SWAP1 DUP2 PUSH4 0x81EEEF5C EQ PUSH2 0x352 JUMPI POP DUP1 PUSH4 0x893DBF61 EQ PUSH2 0x288 JUMPI DUP1 PUSH4 0x8CE74426 EQ PUSH2 0x244 JUMPI DUP1 PUSH4 0xC1EB1840 EQ PUSH2 0x10F JUMPI PUSH4 0xD0C5C585 EQ PUSH2 0x5A JUMPI PUSH1 0x0 DUP1 REVERT JUMPDEST CALLVALUE PUSH2 0x10B JUMPI DUP3 PUSH1 0x3 NOT CALLDATASIZE ADD SLT PUSH2 0x10B JUMPI DUP2 MLOAD PUSH4 0xE86D63B PUSH1 0xE1 SHL DUP2 MSTORE SWAP1 PUSH1 0x20 SWAP1 DUP3 SWAP1 DUP2 PUSH32 0x0 PUSH1 0x1 PUSH1 0x1 PUSH1 0xA0 SHL SUB AND GAS STATICCALL SWAP3 DUP4 ISZERO PUSH2 0x100 JUMPI DUP1 SWAP4 PUSH2 0xC4 JUMPI JUMPDEST PUSH1 0x20 DUP5 PUSH1 0x64 DUP6 MLOAD SWAP2 DIV DUP2 MSTORE RETURN JUMPDEST SWAP1 SWAP3 POP PUSH1 0x20 DUP4 RETURNDATASIZE PUSH1 0x20 GT PUSH2 0xF8 JUMPI JUMPDEST DUP2 PUSH2 0xE0 PUSH1 0x20 SWAP4 DUP4 PUSH2 0x551 JUMP JUMPDEST DUP2 ADD SUB SLT PUSH2 0xF5 JUMPI POP PUSH1 0x64 PUSH1 0x20 SWAP3 MLOAD SWAP3 PUSH2 0xB7 JUMP JUMPDEST DUP1 REVERT JUMPDEST RETURNDATASIZE SWAP2 POP PUSH2 0xD3 JUMP JUMPDEST DUP3 MLOAD SWAP1 RETURNDATASIZE SWAP1 DUP3 RETURNDATACOPY RETURNDATASIZE SWAP1 REVERT JUMPDEST DUP3 DUP1 REVERT JUMPDEST POP SWAP1 CALLVALUE PUSH2 0x10B JUMPI DUP3 PUSH1 0x3 NOT CALLDATASIZE ADD SLT PUSH2 0x10B JUMPI DUP1 MLOAD PUSH4 0xE3067449 PUSH1 0xE0 SHL DUP2 MSTORE PUSH1 0x20 SWAP4 PUSH32 0x0 PUSH1 0x1 PUSH1 0x1 PUSH1 0xA0 SHL SUB AND DUP6 DUP4 DUP7 DUP2 DUP5 GAS STATICCALL SWAP3 DUP4 ISZERO PUSH2 0x208 JUMPI DUP6 SWAP2 DUP8 SWAP2 DUP5 SWAP6 PUSH2 0x212 JUMPI JUMPDEST POP DUP6 MLOAD PUSH4 0xE86D63B PUSH1 0xE1 SHL DUP2 MSTORE SWAP7 DUP8 SWAP2 DUP3 SWAP1 GAS STATICCALL SWAP5 DUP6 ISZERO PUSH2 0x208 JUMPI DUP3 SWAP6 PUSH2 0x1D5 JUMPI JUMPDEST POP PUSH3 0x15180 DUP4 ADD DUP1 SWAP4 GT PUSH2 0x1C2 JUMPI POP POP TIMESTAMP LT ISZERO SWAP2 DUP3 PUSH2 0x1B8 JUMPI JUMPDEST POP MLOAD SWAP1 ISZERO ISZERO DUP2 MSTORE RETURN JUMPDEST ISZERO ISZERO SWAP2 POP CODESIZE PUSH2 0x1AF JUMP JUMPDEST PUSH4 0x4E487B71 PUSH1 0xE0 SHL DUP3 MSTORE PUSH1 0x11 SWAP1 MSTORE PUSH1 0x24 SWAP1 REVERT JUMPDEST SWAP1 SWAP5 POP DUP6 DUP2 DUP2 RETURNDATASIZE DUP4 GT PUSH2 0x201 JUMPI JUMPDEST PUSH2 0x1ED DUP2 DUP4 PUSH2 0x551 JUMP JUMPDEST DUP2 ADD SUB SLT PUSH2 0x1FD JUMPI MLOAD SWAP4 CODESIZE PUSH2 0x195 JUMP JUMPDEST POP DUP1 REVERT JUMPDEST POP RETURNDATASIZE PUSH2 0x1E3 JUMP JUMPDEST DUP5 MLOAD RETURNDATASIZE DUP5 DUP3 RETURNDATACOPY RETURNDATASIZE SWAP1 REVERT JUMPDEST SWAP3 POP SWAP4 POP DUP2 DUP2 RETURNDATASIZE DUP4 GT PUSH2 0x23D JUMPI JUMPDEST PUSH2 0x22A DUP2 DUP4 PUSH2 0x551 JUMP JUMPDEST DUP2 ADD SUB SLT PUSH2 0x1FD JUMPI DUP6 DUP6 SWAP2 MLOAD SWAP4 CODESIZE PUSH2 0x173 JUMP JUMPDEST POP RETURNDATASIZE PUSH2 0x220 JUMP JUMPDEST POP POP CALLVALUE PUSH2 0x1FD JUMPI DUP2 PUSH1 0x3 NOT CALLDATASIZE ADD SLT PUSH2 0x1FD JUMPI MLOAD PUSH32 0x0 PUSH1 0x1 PUSH1 0x1 PUSH1 0xA0 SHL SUB AND DUP2 MSTORE PUSH1 0x20 SWAP1 RETURN JUMPDEST POP SWAP2 SWAP1 CALLVALUE PUSH2 0x1FD JUMPI DUP2 PUSH1 0x3 NOT CALLDATASIZE ADD SLT PUSH2 0x1FD JUMPI DUP1 MLOAD PUSH4 0xE3067449 PUSH1 0xE0 SHL DUP2 MSTORE SWAP2 PUSH1 0x20 DUP4 DUP6 DUP2 PUSH32 0x0 PUSH1 0x1 PUSH1 0x1 PUSH1 0xA0 SHL SUB AND GAS STATICCALL SWAP3 DUP4 ISZERO PUSH2 0x346 JUMPI DUP2 SWAP4 PUSH2 0x312 JUMPI JUMPDEST POP PUSH3 0x15180 DUP4 ADD DUP1 SWAP4 GT PUSH2 0x2FF JUMPI PUSH1 0x20 DUP4 DUP4 MLOAD SWAP1 DUP2 MSTORE RETURN JUMPDEST PUSH4 0x4E487B71 PUSH1 0xE0 SHL DUP2 MSTORE PUSH1 0x11 DUP5 MSTORE PUSH1 0x24 SWAP1 REVERT JUMPDEST SWAP1 SWAP3 POP PUSH1 0x20 DUP2 RETURNDATASIZE PUSH1 0x20 GT PUSH2 0x33E JUMPI JUMPDEST DUP2 PUSH2 0x32E PUSH1 0x20 SWAP4 DUP4 PUSH2 0x551 JUMP JUMPDEST DUP2 ADD SUB SLT PUSH2 0x10B JUMPI MLOAD SWAP2 CODESIZE PUSH2 0x2E7 JUMP JUMPDEST RETURNDATASIZE SWAP2 POP PUSH2 0x321 JUMP JUMPDEST POP SWAP1 MLOAD SWAP1 RETURNDATASIZE SWAP1 DUP3 RETURNDATACOPY RETURNDATASIZE SWAP1 REVERT JUMPDEST DUP5 DUP5 DUP5 CALLVALUE PUSH2 0x10B JUMPI DUP3 PUSH1 0x3 NOT CALLDATASIZE ADD SLT PUSH2 0x10B JUMPI PUSH4 0xE3067449 PUSH1 0xE0 SHL DUP5 MSTORE PUSH1 0x20 SWAP4 PUSH32 0x0 PUSH1 0x1 PUSH1 0x1 PUSH1 0xA0 SHL SUB AND SWAP1 DUP6 DUP2 DUP5 DUP2 DUP6 GAS STATICCALL SWAP1 DUP2 ISZERO PUSH2 0x547 JUMPI DUP6 SWAP2 PUSH2 0x516 JUMPI JUMPDEST POP PUSH3 0x15180 DUP2 ADD DUP1 SWAP2 GT PUSH2 0x503 JUMPI TIMESTAMP LT PUSH2 0x4D9 JUMPI DUP5 DUP3 SWAP2 DUP5 MLOAD SWAP3 DUP4 DUP1 SWAP3 PUSH4 0xE86D63B PUSH1 0xE1 SHL DUP3 MSTORE GAS STATICCALL SWAP1 DUP2 ISZERO PUSH2 0x4CC JUMPI DUP5 SWAP2 PUSH2 0x49B JUMPI JUMPDEST POP DUP1 ISZERO PUSH2 0x468 JUMPI PUSH1 0x64 SWAP1 DIV SWAP1 DUP2 ISZERO PUSH2 0x42D JUMPI POP PUSH32 0xDC0C563433098D6D033236E322193BD62CDC1680F10682D3CB4EDE4FAB3F08FA SWAP3 SWAP4 DUP3 MLOAD SWAP2 DUP3 MSTORE TIMESTAMP SWAP1 DUP3 ADD MSTORE LOG1 DUP1 RETURN JUMPDEST DUP3 MLOAD PUSH3 0x461BCD PUSH1 0xE5 SHL DUP2 MSTORE SWAP1 DUP2 ADD DUP6 SWAP1 MSTORE PUSH1 0x15 PUSH1 0x24 DUP3 ADD MSTORE PUSH21 0x109D5C9B88185B5BDD5B9D081D1BDBC81CDB585B1B PUSH1 0x5A SHL PUSH1 0x44 DUP3 ADD MSTORE PUSH1 0x64 SWAP1 REVERT JUMPDEST POP DUP4 PUSH1 0x64 SWAP3 MLOAD SWAP2 PUSH3 0x461BCD PUSH1 0xE5 SHL DUP4 MSTORE DUP3 ADD MSTORE PUSH1 0xE PUSH1 0x24 DUP3 ADD MSTORE PUSH14 0x273790252121903A3790313AB937 PUSH1 0x91 SHL PUSH1 0x44 DUP3 ADD MSTORE REVERT JUMPDEST SWAP1 POP DUP5 DUP2 DUP2 RETURNDATASIZE DUP4 GT PUSH2 0x4C5 JUMPI JUMPDEST PUSH2 0x4B2 DUP2 DUP4 PUSH2 0x551 JUMP JUMPDEST DUP2 ADD SUB SLT PUSH2 0x4C1 JUMPI MLOAD DUP6 PUSH2 0x3E9 JUMP JUMPDEST DUP4 DUP1 REVERT JUMPDEST POP RETURNDATASIZE PUSH2 0x4A8 JUMP JUMPDEST POP POP POP MLOAD SWAP1 RETURNDATASIZE SWAP1 DUP3 RETURNDATACOPY RETURNDATASIZE SWAP1 REVERT JUMPDEST POP DUP4 PUSH1 0x64 SWAP3 MLOAD SWAP2 PUSH3 0x461BCD PUSH1 0xE5 SHL DUP4 MSTORE DUP3 ADD MSTORE PUSH1 0x5 PUSH1 0x24 DUP3 ADD MSTORE PUSH5 0x4561726C79 PUSH1 0xD8 SHL PUSH1 0x44 DUP3 ADD MSTORE REVERT JUMPDEST PUSH4 0x4E487B71 PUSH1 0xE0 SHL DUP6 MSTORE PUSH1 0x11 DUP4 MSTORE PUSH1 0x24 DUP6 REVERT JUMPDEST SWAP1 POP DUP6 DUP2 DUP2 RETURNDATASIZE DUP4 GT PUSH2 0x540 JUMPI JUMPDEST PUSH2 0x52D DUP2 DUP4 PUSH2 0x551 JUMP JUMPDEST DUP2 ADD SUB SLT PUSH2 0x53C JUMPI MLOAD DUP7 PUSH2 0x3B2 JUMP JUMPDEST DUP5 DUP1 REVERT JUMPDEST POP RETURNDATASIZE PUSH2 0x523 JUMP JUMPDEST DUP5 MLOAD RETURNDATASIZE DUP8 DUP3 RETURNDATACOPY RETURNDATASIZE SWAP1 REVERT JUMPDEST SWAP1 PUSH1 0x1F DUP1 NOT SWAP2 ADD AND DUP2 ADD SWAP1 DUP2 LT PUSH8 0xFFFFFFFFFFFFFFFF DUP3 GT OR PUSH2 0x573 JUMPI PUSH1 0x40 MSTORE JUMP JUMPDEST PUSH4 0x4E487B71 PUSH1 0xE0 SHL PUSH1 0x0 MSTORE PUSH1 0x41 PUSH1 0x4 MSTORE PUSH1 0x24 PUSH1 0x0 REVERT INVALID LOG2 PUSH5 0x6970667358 0x22 SLT KECCAK256 0xF7 0xD1 0xF8 CALL 0xC CHAINID 0xD5 GAS SWAP12 0x2F 0xD 0xB7 SUB PUSH31 0x43E143B99892EDE73CDF070118C950571E7C64736F6C634300081600330000 "},"methodIdentifiers":{"canBurn()":"c1eb1840","dailyBurn()":"81eeef5c","getBurnAmount()":"d0c5c585","nextBurnTime()":"893dbf61","protocol()":"8ce74426"}},"storageLayout":{"storage":[],"types":null}}}}