{"contracts/JinbaoProtocol.sol":{"JinbaoProtocol":{"abi":[{"inputs":[],"stateMutability":"nonpayable","type":"constructor"},{"inputs":[{"internalType":"address","name":"target","type":"address"}],"name":"AddressEmptyCode","type":"error"},{"inputs":[],"name":"AlreadyBound","type":"error"},{"inputs":[],"name":"AlreadyExited","type":"error"},{"inputs":[],"name":"BatchUpdateSizeMismatch","type":"error"},{"inputs":[{"internalType":"address","name":"implementation","type":"address"}],"name":"ERC1967InvalidImplementation","type":"error"},{"inputs":[],"name":"ERC1967NonPayable","type":"error"},{"inputs":[],"name":"Expired","type":"error"},{"inputs":[],"name":"FailedCall","type":"error"},{"inputs":[],"name":"InsufficientBalance","type":"error"},{"inputs":[],"name":"InvalidAddress","type":"error"},{"inputs":[],"name":"InvalidAmount","type":"error"},{"inputs":[],"name":"InvalidCycle","type":"error"},{"inputs":[],"name":"InvalidFee","type":"error"},{"inputs":[],"name":"InvalidInitialization","type":"error"},{"inputs":[],"name":"InvalidLevelConfig","type":"error"},{"inputs":[],"name":"InvalidRate","type":"error"},{"inputs":[],"name":"InvalidTax","type":"error"},{"inputs":[],"name":"InvalidTeamCountUpdate","type":"error"},{"inputs":[],"name":"LowLiquidity","type":"error"},{"inputs":[],"name":"NoRewards","type":"error"},{"inputs":[],"name":"NotActive","type":"error"},{"inputs":[],"name":"NotInitializing","type":"error"},{"inputs":[],"name":"NothingToRedeem","type":"error"},{"inputs":[{"internalType":"address","name":"owner","type":"address"}],"name":"OwnableInvalidOwner","type":"error"},{"inputs":[{"internalType":"address","name":"account","type":"address"}],"name":"OwnableUnauthorizedAccount","type":"error"},{"inputs":[],"name":"RecursionDepthExceeded","type":"error"},{"inputs":[],"name":"ReentrancyGuardReentrantCall","type":"error"},{"inputs":[],"name":"SelfReference","type":"error"},{"inputs":[],"name":"SumNot100","type":"error"},{"inputs":[{"internalType":"address","name":"user","type":"address"},{"internalType":"uint256","name":"expected","type":"uint256"},{"internalType":"uint256","name":"actual","type":"uint256"}],"name":"TeamCountMismatch","type":"error"},{"inputs":[],"name":"TeamCountOverflow","type":"error"},{"inputs":[],"name":"TransferFailed","type":"error"},{"inputs":[],"name":"UUPSUnauthorizedCallContext","type":"error"},{"inputs":[{"internalType":"bytes32","name":"slot","type":"bytes32"}],"name":"UUPSUnsupportedProxiableUUID","type":"error"},{"inputs":[],"name":"Unauthorized","type":"error"},{"anonymous":false,"inputs":[{"indexed":false,"internalType":"uint256","name":"usersUpdated","type":"uint256"}],"name":"BatchTeamCountsUpdated","type":"event"},{"anonymous":false,"inputs":[{"indexed":true,"internalType":"address","name":"user","type":"address"},{"indexed":true,"internalType":"address","name":"referrer","type":"address"}],"name":"BoundReferrer","type":"event"},{"anonymous":false,"inputs":[{"indexed":false,"internalType":"uint256","name":"mcAmount","type":"uint256"},{"indexed":false,"internalType":"uint256","name":"jbcBurned","type":"uint256"}],"name":"BuybackAndBurn","type":"event"},{"anonymous":false,"inputs":[{"indexed":true,"internalType":"uint256","name":"stakeId","type":"uint256"},{"indexed":true,"internalType":"address","name":"upline","type":"address"},{"indexed":false,"internalType":"uint256","name":"amount","type":"uint256"}],"name":"DifferentialRewardRecorded","type":"event"},{"anonymous":false,"inputs":[{"indexed":true,"internalType":"uint256","name":"stakeId","type":"uint256"},{"indexed":true,"internalType":"address","name":"upline","type":"address"},{"indexed":false,"internalType":"uint256","name":"amount","type":"uint256"}],"name":"DifferentialRewardReleased","type":"event"},{"anonymous":false,"inputs":[{"indexed":false,"internalType":"uint256","name":"direct","type":"uint256"},{"indexed":false,"internalType":"uint256","name":"level","type":"uint256"},{"indexed":false,"internalType":"uint256","name":"marketing","type":"uint256"},{"indexed":false,"internalType":"uint256","name":"buyback","type":"uint256"},{"indexed":false,"internalType":"uint256","name":"lpInjection","type":"uint256"},{"indexed":false,"internalType":"uint256","name":"treasury","type":"uint256"}],"name":"DistributionConfigUpdated","type":"event"},{"anonymous":false,"inputs":[],"name":"EmergencyPaused","type":"event"},{"anonymous":false,"inputs":[],"name":"EmergencyUnpaused","type":"event"},{"anonymous":false,"inputs":[{"indexed":true,"internalType":"address","name":"user","type":"address"},{"indexed":false,"internalType":"uint256","name":"ticketId","type":"uint256"}],"name":"Exited","type":"event"},{"anonymous":false,"inputs":[{"indexed":true,"internalType":"address","name":"user","type":"address"},{"indexed":false,"internalType":"uint256","name":"amount","type":"uint256"}],"name":"FeeRefunded","type":"event"},{"anonymous":false,"inputs":[{"indexed":false,"internalType":"uint64","name":"version","type":"uint64"}],"name":"Initialized","type":"event"},{"anonymous":false,"inputs":[],"name":"LevelConfigsUpdated","type":"event"},{"anonymous":false,"inputs":[{"indexed":false,"internalType":"uint256","name":"amount","type":"uint256"},{"indexed":false,"internalType":"uint256","name":"newTotal","type":"uint256"}],"name":"LevelRewardPoolUpdated","type":"event"},{"anonymous":false,"inputs":[{"indexed":true,"internalType":"address","name":"to","type":"address"},{"indexed":false,"internalType":"uint256","name":"amount","type":"uint256"}],"name":"LevelRewardPoolWithdrawn","type":"event"},{"anonymous":false,"inputs":[{"indexed":true,"internalType":"uint256","name":"ticketId","type":"uint256"},{"indexed":true,"internalType":"address","name":"upline","type":"address"},{"indexed":false,"internalType":"uint256","name":"amount","type":"uint256"}],"name":"LevelRewardRecorded","type":"event"},{"anonymous":false,"inputs":[{"indexed":true,"internalType":"uint256","name":"ticketId","type":"uint256"},{"indexed":true,"internalType":"address","name":"upline","type":"address"},{"indexed":false,"internalType":"uint256","name":"amount","type":"uint256"}],"name":"LevelRewardReleased","type":"event"},{"anonymous":false,"inputs":[{"indexed":false,"internalType":"uint256","name":"mcAmount","type":"uint256"},{"indexed":false,"internalType":"uint256","name":"jbcAmount","type":"uint256"}],"name":"LiquidityAdded","type":"event"},{"anonymous":false,"inputs":[{"indexed":true,"internalType":"address","name":"user","type":"address"},{"indexed":false,"internalType":"uint256","name":"amount","type":"uint256"},{"indexed":false,"internalType":"uint256","name":"cycleDays","type":"uint256"},{"indexed":false,"internalType":"uint256","name":"stakeId","type":"uint256"}],"name":"LiquidityStaked","type":"event"},{"anonymous":false,"inputs":[{"indexed":false,"internalType":"bool","name":"enabled","type":"bool"}],"name":"LiquidityStatusUpdated","type":"event"},{"anonymous":false,"inputs":[{"indexed":true,"internalType":"address","name":"previousOwner","type":"address"},{"indexed":true,"internalType":"address","name":"newOwner","type":"address"}],"name":"OwnershipTransferred","type":"event"},{"anonymous":false,"inputs":[{"indexed":false,"internalType":"bool","name":"enabled","type":"bool"}],"name":"RedeemStatusUpdated","type":"event"},{"anonymous":false,"inputs":[{"indexed":true,"internalType":"address","name":"user","type":"address"},{"indexed":false,"internalType":"uint256","name":"principal","type":"uint256"},{"indexed":false,"internalType":"uint256","name":"fee","type":"uint256"}],"name":"Redeemed","type":"event"},{"anonymous":false,"inputs":[{"indexed":false,"internalType":"uint256","name":"newFee","type":"uint256"}],"name":"RedemptionFeeUpdated","type":"event"},{"anonymous":false,"inputs":[{"indexed":true,"internalType":"address","name":"user","type":"address"},{"indexed":true,"internalType":"address","name":"from","type":"address"},{"indexed":false,"internalType":"uint256","name":"mcAmount","type":"uint256"},{"indexed":false,"internalType":"uint8","name":"rewardType","type":"uint8"},{"indexed":false,"internalType":"uint256","name":"ticketId","type":"uint256"}],"name":"ReferralRewardPaid","type":"event"},{"anonymous":false,"inputs":[{"indexed":true,"internalType":"address","name":"user","type":"address"},{"indexed":true,"internalType":"address","name":"oldReferrer","type":"address"},{"indexed":true,"internalType":"address","name":"newReferrer","type":"address"}],"name":"ReferrerChanged","type":"event"},{"anonymous":false,"inputs":[{"indexed":true,"internalType":"address","name":"user","type":"address"},{"indexed":false,"internalType":"uint256","name":"amount","type":"uint256"},{"indexed":false,"internalType":"uint256","name":"cappedAmount","type":"uint256"}],"name":"RewardCapped","type":"event"},{"anonymous":false,"inputs":[{"indexed":true,"internalType":"address","name":"user","type":"address"},{"indexed":false,"internalType":"uint256","name":"mcAmount","type":"uint256"},{"indexed":false,"internalType":"uint256","name":"jbcAmount","type":"uint256"},{"indexed":false,"internalType":"uint8","name":"rewardType","type":"uint8"},{"indexed":false,"internalType":"uint256","name":"ticketId","type":"uint256"}],"name":"RewardClaimed","type":"event"},{"anonymous":false,"inputs":[{"indexed":true,"internalType":"address","name":"user","type":"address"},{"indexed":false,"internalType":"uint256","name":"amount","type":"uint256"},{"indexed":false,"internalType":"uint8","name":"rewardType","type":"uint8"}],"name":"RewardPaid","type":"event"},{"anonymous":false,"inputs":[{"indexed":false,"internalType":"uint256","name":"mcAmount","type":"uint256"},{"indexed":false,"internalType":"uint256","name":"jbcAmount","type":"uint256"}],"name":"SwapReservesWithdrawn","type":"event"},{"anonymous":false,"inputs":[{"indexed":false,"internalType":"uint256","name":"buyTax","type":"uint256"},{"indexed":false,"internalType":"uint256","name":"sellTax","type":"uint256"}],"name":"SwapTaxesUpdated","type":"event"},{"anonymous":false,"inputs":[{"indexed":true,"internalType":"address","name":"user","type":"address"},{"indexed":false,"internalType":"uint256","name":"jbcAmount","type":"uint256"},{"indexed":false,"internalType":"uint256","name":"mcAmount","type":"uint256"},{"indexed":false,"internalType":"uint256","name":"tax","type":"uint256"}],"name":"SwappedJBCToMC","type":"event"},{"anonymous":false,"inputs":[{"indexed":true,"internalType":"address","name":"user","type":"address"},{"indexed":false,"internalType":"uint256","name":"mcAmount","type":"uint256"},{"indexed":false,"internalType":"uint256","name":"jbcAmount","type":"uint256"},{"indexed":false,"internalType":"uint256","name":"tax","type":"uint256"}],"name":"SwappedMCToJBC","type":"event"},{"anonymous":false,"inputs":[{"indexed":true,"internalType":"uint256","name":"stakeId","type":"uint256"},{"indexed":true,"internalType":"address","name":"upline","type":"address"},{"indexed":false,"internalType":"uint256","name":"amount","type":"uint256"},{"indexed":false,"internalType":"uint256","name":"teamCount","type":"uint256"}],"name":"TeamBasedRewardCalculated","type":"event"},{"anonymous":false,"inputs":[{"indexed":true,"internalType":"address","name":"user","type":"address"},{"indexed":false,"internalType":"uint256","name":"oldCount","type":"uint256"},{"indexed":false,"internalType":"uint256","name":"newCount","type":"uint256"}],"name":"TeamCountUpdated","type":"event"},{"anonymous":false,"inputs":[{"indexed":true,"internalType":"address","name":"user","type":"address"},{"indexed":false,"internalType":"uint256","name":"expected","type":"uint256"},{"indexed":false,"internalType":"uint256","name":"actual","type":"uint256"}],"name":"TeamCountValidationFailed","type":"event"},{"anonymous":false,"inputs":[{"indexed":true,"internalType":"address","name":"user","type":"address"},{"indexed":false,"internalType":"uint256","name":"ticketId","type":"uint256"},{"indexed":false,"internalType":"uint256","name":"amount","type":"uint256"}],"name":"TicketExpired","type":"event"},{"anonymous":false,"inputs":[{"indexed":false,"internalType":"uint256","name":"newDuration","type":"uint256"}],"name":"TicketFlexibilityDurationUpdated","type":"event"},{"anonymous":false,"inputs":[{"indexed":true,"internalType":"address","name":"user","type":"address"},{"indexed":false,"internalType":"uint256","name":"amount","type":"uint256"},{"indexed":false,"internalType":"uint256","name":"ticketId","type":"uint256"}],"name":"TicketPurchased","type":"event"},{"anonymous":false,"inputs":[{"indexed":false,"internalType":"address","name":"token","type":"address"},{"indexed":false,"internalType":"address","name":"to","type":"address"},{"indexed":false,"internalType":"uint256","name":"amount","type":"uint256"}],"name":"TokensRescued","type":"event"},{"anonymous":false,"inputs":[{"indexed":true,"internalType":"address","name":"implementation","type":"address"}],"name":"Upgraded","type":"event"},{"anonymous":false,"inputs":[{"indexed":true,"internalType":"address","name":"user","type":"address"},{"indexed":false,"internalType":"uint256","name":"activeDirects","type":"uint256"},{"indexed":false,"internalType":"uint256","name":"totalRevenue","type":"uint256"},{"indexed":false,"internalType":"uint256","name":"currentCap","type":"uint256"},{"indexed":false,"internalType":"uint256","name":"refundFee","type":"uint256"}],"name":"UserDataUpdated","type":"event"},{"anonymous":false,"inputs":[{"indexed":false,"internalType":"address","name":"marketing","type":"address"},{"indexed":false,"internalType":"address","name":"treasury","type":"address"},{"indexed":false,"internalType":"address","name":"lpInjection","type":"address"},{"indexed":false,"internalType":"address","name":"buyback","type":"address"}],"name":"WalletsUpdated","type":"event"},{"inputs":[],"name":"MAX_PRICE_IMPACT","outputs":[{"internalType":"uint256","name":"","type":"uint256"}],"stateMutability":"view","type":"function"},{"inputs":[],"name":"MIN_LIQUIDITY","outputs":[{"internalType":"uint256","name":"","type":"uint256"}],"stateMutability":"view","type":"function"},{"inputs":[],"name":"REWARD_DIFFERENTIAL","outputs":[{"internalType":"uint8","name":"","type":"uint8"}],"stateMutability":"view","type":"function"},{"inputs":[],"name":"REWARD_DIRECT","outputs":[{"internalType":"uint8","name":"","type":"uint8"}],"stateMutability":"view","type":"function"},{"inputs":[],"name":"REWARD_DYNAMIC","outputs":[{"internalType":"uint8","name":"","type":"uint8"}],"stateMutability":"view","type":"function"},{"inputs":[],"name":"REWARD_LEVEL","outputs":[{"internalType":"uint8","name":"","type":"uint8"}],"stateMutability":"view","type":"function"},{"inputs":[],"name":"REWARD_STATIC","outputs":[{"internalType":"uint8","name":"","type":"uint8"}],"stateMutability":"view","type":"function"},{"inputs":[],"name":"SECONDS_IN_UNIT","outputs":[{"internalType":"uint256","name":"","type":"uint256"}],"stateMutability":"view","type":"function"},{"inputs":[],"name":"UPGRADE_INTERFACE_VERSION","outputs":[{"internalType":"string","name":"","type":"string"}],"stateMutability":"view","type":"function"},{"inputs":[{"internalType":"uint256","name":"mcAmount","type":"uint256"},{"internalType":"uint256","name":"jbcAmount","type":"uint256"}],"name":"addLiquidity","outputs":[],"stateMutability":"nonpayable","type":"function"},{"inputs":[{"internalType":"address","name":"user","type":"address"},{"internalType":"address","name":"newReferrer","type":"address"}],"name":"adminSetReferrer","outputs":[],"stateMutability":"nonpayable","type":"function"},{"inputs":[{"internalType":"address","name":"user","type":"address"},{"internalType":"bool","name":"updateActiveDirects","type":"bool"},{"internalType":"uint256","name":"newActiveDirects","type":"uint256"},{"internalType":"bool","name":"updateTotalRevenue","type":"bool"},{"internalType":"uint256","name":"newTotalRevenue","type":"uint256"},{"internalType":"bool","name":"updateCurrentCap","type":"bool"},{"internalType":"uint256","name":"newCurrentCap","type":"uint256"},{"internalType":"bool","name":"updateRefundFee","type":"bool"},{"internalType":"uint256","name":"newRefundFee","type":"uint256"}],"name":"adminUpdateUserData","outputs":[],"stateMutability":"nonpayable","type":"function"},{"inputs":[{"internalType":"address[]","name":"users","type":"address[]"},{"internalType":"uint256[]","name":"counts","type":"uint256[]"},{"internalType":"uint256[]","name":"volumes","type":"uint256[]"}],"name":"batchUpdateUserStats","outputs":[],"stateMutability":"nonpayable","type":"function"},{"inputs":[{"internalType":"address","name":"_referrer","type":"address"}],"name":"bindReferrer","outputs":[],"stateMutability":"nonpayable","type":"function"},{"inputs":[{"internalType":"uint256","name":"amount","type":"uint256"}],"name":"buyTicket","outputs":[],"stateMutability":"nonpayable","type":"function"},{"inputs":[],"name":"buybackPercent","outputs":[{"internalType":"uint256","name":"","type":"uint256"}],"stateMutability":"view","type":"function"},{"inputs":[],"name":"buybackWallet","outputs":[{"internalType":"address","name":"","type":"address"}],"stateMutability":"view","type":"function"},{"inputs":[],"name":"claimRewards","outputs":[],"stateMutability":"nonpayable","type":"function"},{"inputs":[{"internalType":"address","name":"","type":"address"},{"internalType":"uint256","name":"","type":"uint256"}],"name":"directReferrals","outputs":[{"internalType":"address","name":"","type":"address"}],"stateMutability":"view","type":"function"},{"inputs":[],"name":"directRewardPercent","outputs":[{"internalType":"uint256","name":"","type":"uint256"}],"stateMutability":"view","type":"function"},{"inputs":[],"name":"emergencyPause","outputs":[],"stateMutability":"nonpayable","type":"function"},{"inputs":[],"name":"emergencyPaused","outputs":[{"internalType":"bool","name":"","type":"bool"}],"stateMutability":"view","type":"function"},{"inputs":[],"name":"emergencyUnpause","outputs":[],"stateMutability":"nonpayable","type":"function"},{"inputs":[{"internalType":"address","name":"user","type":"address"}],"name":"getDirectReferrals","outputs":[{"internalType":"address[]","name":"","type":"address[]"}],"stateMutability":"view","type":"function"},{"inputs":[{"internalType":"uint256","name":"activeDirects","type":"uint256"}],"name":"getLevelRewardLayers","outputs":[{"internalType":"uint256","name":"","type":"uint256"}],"stateMutability":"pure","type":"function"},{"inputs":[{"internalType":"address","name":"_mcToken","type":"address"},{"internalType":"address","name":"_jbcToken","type":"address"},{"internalType":"address","name":"_marketing","type":"address"},{"internalType":"address","name":"_treasury","type":"address"},{"internalType":"address","name":"_lpInjection","type":"address"},{"internalType":"address","name":"_buybackWallet","type":"address"}],"name":"initialize","outputs":[],"stateMutability":"nonpayable","type":"function"},{"inputs":[],"name":"jbcToken","outputs":[{"internalType":"contract IJBC","name":"","type":"address"}],"stateMutability":"view","type":"function"},{"inputs":[],"name":"lastBurnTime","outputs":[{"internalType":"uint256","name":"","type":"uint256"}],"stateMutability":"view","type":"function"},{"inputs":[{"internalType":"uint256","name":"","type":"uint256"}],"name":"levelConfigs","outputs":[{"internalType":"uint256","name":"minDirects","type":"uint256"},{"internalType":"uint256","name":"level","type":"uint256"},{"internalType":"uint256","name":"percent","type":"uint256"}],"stateMutability":"view","type":"function"},{"inputs":[],"name":"levelRewardPercent","outputs":[{"internalType":"uint256","name":"","type":"uint256"}],"stateMutability":"view","type":"function"},{"inputs":[],"name":"levelRewardPool","outputs":[{"internalType":"uint256","name":"","type":"uint256"}],"stateMutability":"view","type":"function"},{"inputs":[],"name":"liquidityEnabled","outputs":[{"internalType":"bool","name":"","type":"bool"}],"stateMutability":"view","type":"function"},{"inputs":[],"name":"lpInjectionPercent","outputs":[{"internalType":"uint256","name":"","type":"uint256"}],"stateMutability":"view","type":"function"},{"inputs":[],"name":"lpInjectionWallet","outputs":[{"internalType":"address","name":"","type":"address"}],"stateMutability":"view","type":"function"},{"inputs":[],"name":"marketingPercent","outputs":[{"internalType":"uint256","name":"","type":"uint256"}],"stateMutability":"view","type":"function"},{"inputs":[],"name":"marketingWallet","outputs":[{"internalType":"address","name":"","type":"address"}],"stateMutability":"view","type":"function"},{"inputs":[],"name":"mcToken","outputs":[{"internalType":"contract IERC20","name":"","type":"address"}],"stateMutability":"view","type":"function"},{"inputs":[],"name":"nextStakeId","outputs":[{"internalType":"uint256","name":"","type":"uint256"}],"stateMutability":"view","type":"function"},{"inputs":[],"name":"nextTicketId","outputs":[{"internalType":"uint256","name":"","type":"uint256"}],"stateMutability":"view","type":"function"},{"inputs":[],"name":"owner","outputs":[{"internalType":"address","name":"","type":"address"}],"stateMutability":"view","type":"function"},{"inputs":[],"name":"priceOracle","outputs":[{"internalType":"address","name":"","type":"address"}],"stateMutability":"view","type":"function"},{"inputs":[],"name":"proxiableUUID","outputs":[{"internalType":"bytes32","name":"","type":"bytes32"}],"stateMutability":"view","type":"function"},{"inputs":[],"name":"redeem","outputs":[],"stateMutability":"nonpayable","type":"function"},{"inputs":[],"name":"redeemEnabled","outputs":[{"internalType":"bool","name":"","type":"bool"}],"stateMutability":"view","type":"function"},{"inputs":[{"internalType":"uint256","name":"stakeId","type":"uint256"}],"name":"redeemStake","outputs":[],"stateMutability":"nonpayable","type":"function"},{"inputs":[],"name":"redemptionFeePercent","outputs":[{"internalType":"uint256","name":"","type":"uint256"}],"stateMutability":"view","type":"function"},{"inputs":[],"name":"renounceOwnership","outputs":[],"stateMutability":"nonpayable","type":"function"},{"inputs":[{"internalType":"address","name":"_token","type":"address"},{"internalType":"address","name":"_to","type":"address"},{"internalType":"uint256","name":"_amount","type":"uint256"}],"name":"rescueTokens","outputs":[],"stateMutability":"nonpayable","type":"function"},{"inputs":[{"internalType":"uint256","name":"_direct","type":"uint256"},{"internalType":"uint256","name":"_level","type":"uint256"},{"internalType":"uint256","name":"_marketing","type":"uint256"},{"internalType":"uint256","name":"_buyback","type":"uint256"},{"internalType":"uint256","name":"_lpInjection","type":"uint256"},{"internalType":"uint256","name":"_treasury","type":"uint256"}],"name":"setDistributionConfig","outputs":[],"stateMutability":"nonpayable","type":"function"},{"inputs":[{"internalType":"bool","name":"_liquidityEnabled","type":"bool"},{"internalType":"bool","name":"_redeemEnabled","type":"bool"}],"name":"setOperationalStatus","outputs":[],"stateMutability":"nonpayable","type":"function"},{"inputs":[{"internalType":"uint256","name":"_fee","type":"uint256"}],"name":"setRedemptionFeePercent","outputs":[],"stateMutability":"nonpayable","type":"function"},{"inputs":[{"internalType":"uint256","name":"_buyTax","type":"uint256"},{"internalType":"uint256","name":"_sellTax","type":"uint256"}],"name":"setSwapTaxes","outputs":[],"stateMutability":"nonpayable","type":"function"},{"inputs":[{"internalType":"uint256","name":"_duration","type":"uint256"}],"name":"setTicketFlexibilityDuration","outputs":[],"stateMutability":"nonpayable","type":"function"},{"inputs":[{"internalType":"address","name":"_marketing","type":"address"},{"internalType":"address","name":"_treasury","type":"address"},{"internalType":"address","name":"_lpInjection","type":"address"},{"internalType":"address","name":"_buyback","type":"address"}],"name":"setWallets","outputs":[],"stateMutability":"nonpayable","type":"function"},{"inputs":[{"internalType":"uint256","name":"amount","type":"uint256"},{"internalType":"uint256","name":"cycleDays","type":"uint256"}],"name":"stakeLiquidity","outputs":[],"stateMutability":"nonpayable","type":"function"},{"inputs":[{"internalType":"uint256","name":"","type":"uint256"}],"name":"stakeOwner","outputs":[{"internalType":"address","name":"","type":"address"}],"stateMutability":"view","type":"function"},{"inputs":[{"internalType":"uint256","name":"","type":"uint256"},{"internalType":"uint256","name":"","type":"uint256"}],"name":"stakePendingRewards","outputs":[{"internalType":"address","name":"upline","type":"address"},{"internalType":"uint256","name":"amount","type":"uint256"}],"stateMutability":"view","type":"function"},{"inputs":[],"name":"swapBuyTax","outputs":[{"internalType":"uint256","name":"","type":"uint256"}],"stateMutability":"view","type":"function"},{"inputs":[{"internalType":"uint256","name":"jbcAmount","type":"uint256"}],"name":"swapJBCToMC","outputs":[],"stateMutability":"nonpayable","type":"function"},{"inputs":[{"internalType":"uint256","name":"mcAmount","type":"uint256"}],"name":"swapMCToJBC","outputs":[],"stateMutability":"nonpayable","type":"function"},{"inputs":[],"name":"swapReserveJBC","outputs":[{"internalType":"uint256","name":"","type":"uint256"}],"stateMutability":"view","type":"function"},{"inputs":[],"name":"swapReserveMC","outputs":[{"internalType":"uint256","name":"","type":"uint256"}],"stateMutability":"view","type":"function"},{"inputs":[],"name":"swapSellTax","outputs":[{"internalType":"uint256","name":"","type":"uint256"}],"stateMutability":"view","type":"function"},{"inputs":[],"name":"ticketFlexibilityDuration","outputs":[{"internalType":"uint256","name":"","type":"uint256"}],"stateMutability":"view","type":"function"},{"inputs":[{"internalType":"uint256","name":"","type":"uint256"}],"name":"ticketOwner","outputs":[{"internalType":"address","name":"","type":"address"}],"stateMutability":"view","type":"function"},{"inputs":[{"internalType":"uint256","name":"","type":"uint256"},{"internalType":"uint256","name":"","type":"uint256"}],"name":"ticketPendingRewards","outputs":[{"internalType":"address","name":"upline","type":"address"},{"internalType":"uint256","name":"amount","type":"uint256"}],"stateMutability":"view","type":"function"},{"inputs":[{"internalType":"address","name":"newOwner","type":"address"}],"name":"transferOwnership","outputs":[],"stateMutability":"nonpayable","type":"function"},{"inputs":[],"name":"treasuryPercent","outputs":[{"internalType":"uint256","name":"","type":"uint256"}],"stateMutability":"view","type":"function"},{"inputs":[],"name":"treasuryWallet","outputs":[{"internalType":"address","name":"","type":"address"}],"stateMutability":"view","type":"function"},{"inputs":[{"internalType":"address","name":"newImplementation","type":"address"},{"internalType":"bytes","name":"data","type":"bytes"}],"name":"upgradeToAndCall","outputs":[],"stateMutability":"payable","type":"function"},{"inputs":[{"internalType":"address","name":"","type":"address"}],"name":"userInfo","outputs":[{"internalType":"address","name":"referrer","type":"address"},{"internalType":"uint256","name":"activeDirects","type":"uint256"},{"internalType":"uint256","name":"teamCount","type":"uint256"},{"internalType":"uint256","name":"totalRevenue","type":"uint256"},{"internalType":"uint256","name":"currentCap","type":"uint256"},{"internalType":"bool","name":"isActive","type":"bool"},{"internalType":"uint256","name":"refundFeeAmount","type":"uint256"},{"internalType":"uint256","name":"teamTotalVolume","type":"uint256"},{"internalType":"uint256","name":"teamTotalCap","type":"uint256"},{"internalType":"uint256","name":"maxTicketAmount","type":"uint256"},{"internalType":"uint256","name":"maxSingleTicketAmount","type":"uint256"}],"stateMutability":"view","type":"function"},{"inputs":[{"internalType":"address","name":"","type":"address"},{"internalType":"uint256","name":"","type":"uint256"}],"name":"userStakes","outputs":[{"internalType":"uint256","name":"id","type":"uint256"},{"internalType":"uint256","name":"amount","type":"uint256"},{"internalType":"uint256","name":"startTime","type":"uint256"},{"internalType":"uint256","name":"cycleDays","type":"uint256"},{"internalType":"bool","name":"active","type":"bool"},{"internalType":"uint256","name":"paid","type":"uint256"}],"stateMutability":"view","type":"function"},{"inputs":[{"internalType":"address","name":"","type":"address"}],"name":"userTicket","outputs":[{"internalType":"uint256","name":"ticketId","type":"uint256"},{"internalType":"uint256","name":"amount","type":"uint256"},{"internalType":"uint256","name":"purchaseTime","type":"uint256"},{"internalType":"bool","name":"exited","type":"bool"}],"stateMutability":"view","type":"function"},{"inputs":[{"internalType":"address","name":"_to","type":"address"},{"internalType":"uint256","name":"_amount","type":"uint256"}],"name":"withdrawLevelRewardPool","outputs":[],"stateMutability":"nonpayable","type":"function"},{"inputs":[{"internalType":"address","name":"_toMC","type":"address"},{"internalType":"uint256","name":"_amountMC","type":"uint256"},{"internalType":"address","name":"_toJBC","type":"address"},{"internalType":"uint256","name":"_amountJBC","type":"uint256"}],"name":"withdrawSwapReserves","outputs":[],"stateMutability":"nonpayable","type":"function"}],"evm":{"bytecode":{"linkReferences":{},"object":"60a08060405234620000d157306080527ff0c57e16840df040f15088dc2f81fe391c3923bec73e23a9662efc9c229c6a009081549060ff8260401c16620000c257506001600160401b036002600160401b0319828216016200007c575b604051615f5c9081620000d7823960805181818161261401526129f30152f35b6001600160401b031990911681179091556040519081527fc7f505b2f371ae2175ee4913f4499e1f2633a7b5936321eed1cdaeb6115181d290602090a13880806200005c565b63f92ee8a960e01b8152600490fd5b600080fdfe6080604052600436101561001257600080fd5b6000803560e01c806301d62efb14613c0057806304ef9d5814613be257806304f618cb14613a8757806305ad393514613a2c5780630a5c4567146137ce5780630e2be210146137b257806310ff994d146132ab5780631427f6161461328f5780631788513c14613266578063182c84cc1461323f5780631959a0021461318d5780631d0dac761461316f57806321b77d631461314b57806321f483d3146131035780632630c12f146130d657806327c830a9146130b357806327f082f414613095578063372500ab146130745780633dbd46bd146130415780634626402b14613018578063488b5d9714612ffc5780634a4e3bd514612fb25780634ea4c6b314612bab5780634f1ef2861461297857806351858e271461292b57806352778b051461266c57806352d1902d146126015780636031a52f146125e357806367dd74ca14611dae5780636839b5fa14611d915780636dd6682714611d73578063715018a614611d1a57806375506c9614611cfc57806375f0a87414611cd357806377a2a54014611cb5578063813380cd14611c8757806383672f3e14611b565780638710bcaa14611af557806388481b6114611ad957806388fd4d3314611ab05780638a859a8514611a945780638c0eaa4814611a785780638da5cb5b14611a4257806390b0eb51146119f25780639370b080146119d457806395253992146119ad57806399b6024d146118e75780639a5fb0fe146117e35780639cd441da1461169f5780639d99eca414611651578063a2af92261461161e578063ac8f50aa146115c6578063ad3cb1cc14611521578063b048a4bb146114fe578063b5d5b5fa14611470578063b759936b14611452578063bd594dcf14611434578063be040fb014610cd2578063c2ff12fc14610c9f578063cc2a9a5b14610a8c578063ccf6194414610a6e578063cea9d26f14610904578063ceaa366d146108e6578063d0f164701461085c578063d2c8e0e5146107ad578063d2f8253614610787578063d4f0014214610600578063d7edbc0c14610474578063d8020a1814610456578063deab8aea1461042d578063dec7fa3b1461040f578063e3067449146103f1578063e4412f68146103d3578063ece71266146103855763f2fde38b1461035657600080fd5b346103825760203660031901126103825761037f610372613cb5565b61037a61497f565b61491d565b80f35b80fd5b5034610382576020366003190112610382577fc7f6975dcffc536e6e57dd1d1dea810fff534a70563baf2d6f977b119bd00e1b60206004356103c561497f565b80600c55604051908152a180f35b50346103825780600319360112610382576020600954604051908152f35b50346103825780600319360112610382576020601b54604051908152f35b50346103825780600319360112610382576020600c54604051908152f35b50346103825780600319360112610382576005546040516001600160a01b039091168152602090f35b50346103825780600319360112610382576020600854604051908152f35b5034610382576060366003190112610382576001600160401b03906004358281116105fc576104a7903690600401613e0b565b90926024358181116105f8576104c1903690600401613e0b565b90916044359081116105f4576104db903690600401613e0b565b90926104e561497f565b8285148015906105ea575b6105d857855b85811061052c57867f9c03d1f6ba485b6cf0a120117d651729467751d3079318d05171b6f389f6bf4b602088604051908152a180f35b8087600080516020615de7833981519152604088816105b961057b8f988e60019a898f8f8f90610561876105979481946148f9565b6001600160a01b039b90358c61058061057b868b8b6148f9565b614909565b1686526002600f9c8d9760209e8f522001556148f9565b3590886105a861057b8787876148f9565b168c5287526007898c2001556148f9565b906105c5878c8b6148f9565b359084519687528601521692a2016104f6565b60405163980a3f3160e01b8152600490fd5b50818514156104f0565b8480fd5b8380fd5b5080fd5b50346103825760803660031901126103825761061a613cb5565b60243590610626613ce1565b826064359261063361497f565b81610709575b505081610663575b50600080516020615e478339815191529160409182519182526020820152a180f35b916020826106a39461067782601854613f4f565b60185560018060a01b0360015416908760405180988195829463a9059cbb60e01b845260048401613dd4565b03925af19182156106fe57600080516020615e47833981519152936040936106cf575b50915091610641565b6106f09060203d6020116106f7575b6106e88183613d7a565b810190613ebf565b50386106c6565b503d6106de565b6040513d86823e3d90fd5b8160209161071c61074794601754613f4f565b60175560018060a01b03885416908860405180968195829463a9059cbb60e01b845260048401613dd4565b03925af1801561077c5761075d575b8390610639565b6107759060203d6020116106f7576106e88183613d7a565b5038610756565b6040513d87823e3d90fd5b5034610382578060031936011261038257602060ff60165460081c166040519015158152f35b50346103825760209081600319360112610382576001600160a01b039190826107d4613cb5565b168152601282526040812090604051808484549182815201908194845285842090845b818110610846575050508161080d910382613d7a565b6040519380850191818652518092526040850193925b8281106108305785850386f35b8351871685529381019392810192600101610823565b82548916845292870192600192830192016107f7565b50346103825760c0366003190112610382577f66682b276e4cd1a4e1f68b55b1143766c5332f472eb593cf2a70a25d9d5d991760c060043560a4356084356064356044356024356108ab61497f565b8560065580600755816008558260095583600a5584600b55604051958652602086015260408501526060840152608083015260a0820152a180f35b50346103825780600319360112610382576020600a54604051908152f35b50346103825760603660031901126103825761091e613cb5565b610926613ccb565b6044359161093261497f565b83546001600160a01b038281169491811685141580610a60575b15610a1b578316156109e2576020604051809563a9059cbb60e01b825281888161097a878a60048401613dd4565b03925af190811561077c577f77023e19c7343ad491fd706c36335ca0e738340a91f29b1fd81e2673d44896c4946109bd926109c3575b5060405193849384613ed7565b0390a180f35b6109db9060203d6020116106f7576106e88183613d7a565b50386109b0565b60405162461bcd60e51b8152602060048201526011602482015270125b9d985b1a59081c9958da5c1a595b9d607a1b6044820152606490fd5b60405162461bcd60e51b815260206004820152601d60248201527f43616e6e6f74207265736375652070726f746f636f6c20746f6b656e730000006044820152606490fd5b50806001541685141561094c565b50346103825780600319360112610382576020600654604051908152f35b50346103825760c036600319011261038257610aa6613cb5565b610aae613ccb565b610ab6613ce1565b610abe613cf7565b916001600160a01b0360843581811690819003610c9a5760a43592828416809403610c9a57600080516020615f0783398151915295865460ff8160401c16159660018060401b038216998a1580610c93575b6001809c149081610c89575b159081610c80575b50610c6e576001600160401b031983168b178a558694859384928e918c610c53575b50610b4f615cd4565b610b57615cd4565b610b603361491d565b610b68615cd4565b610b70615cd4565b610b78615cd4565b8d600080516020615ec78339815191525560018060a01b0319998a9116915416178d5516868b5416178a55168460025416176002551682600354161760035581600454161760045560055416176005556019600655600f600755600560085560056009556019600a556019600b5582600c556032600d556019600e556203f48060155561010161ffff19601654161760165542601b55610c16578280f35b805460ff60401b191690556040519081527fc7f505b2f371ae2175ee4913f4499e1f2633a7b5936321eed1cdaeb6115181d290602090a138808280f35b6001600160481b0319166001600160401b01178d5538610b46565b60405163f92ee8a960e01b8152600490fd5b90501538610b24565b303b159150610b1c565b5088610b10565b600080fd5b5034610382576020366003190112610382576020906004358152601c8252604060018060a01b0391205416604051908152f35b5034610382578060031936011261038257610ceb6149b8565b60ff610cfe60ff60165460081c16613f5c565b33825260119160206011815260408220938283908492855b8854811015610f8c57876004610d2c838c613def565b5001541615610f84576002610d41828b613def565b500154610d4e828b613def565b509060038092015490603c91828102928184041490151715610f70578b9291610d7691613f22565b421015610d8a575b50506001905b01610d16565b90958895929495600783610d9e888b613def565b50015403610f175750633b9aca00610de362cb7356935b610dcf610dc2898c613def565b5095600180970154613ef9565b90610dda898c613def565b50015490613ef9565b04908991610df1878a613def565b508760059a8b809301548411610eef575b5050505081610e1091613f22565b96610e1b868d613def565b500190815490610e2a91613f22565b9055338852600f87526040882060090154918a828a878b8715600198610e9298610e6d95606494610e6694610ed9575b505050600c5490613ef9565b0493613def565b50015481811115610ec65790610e8681610e8c93613f4f565b92613f22565b95613f22565b926004610e9f828c613def565b5001805460ff19169055610ebd610eb6828c613def565b5054614d47565b90508838610d7e565b9050610ed191613f22565b948890613f22565b6040929350601090522001548f8f908791610e5a565b610e10949550610f0d939291610f0491613def565b50015490613f4f565b919088878e610e02565b600f83610f24888b613def565b50015403610f3f5750633b9aca00610de362fe502b93610db5565b91601e81610f4d888b613def565b50015414610f64575b610de3633b9aca0091610db5565b6301312d009250610f56565b634e487b7160e01b8a52600485905260248afd5b600190610d84565b50509092918115908115809261142b575b156113f257846113de575b80611081575b5061101a575b600f9260405191825282820152600080516020615ee783398151915260403392a2610fde33614edb565b338352526040812060046003820154910154111561100c575b6001600080516020615ec78339815191525580f35b61101533614f8c565b610ff7565b835460405163a9059cbb60e01b81529390839085906001600160a01b0316818881611049883360048401613dd4565b03925af193841561077c57600f94611064575b509250610fb4565b61107a90843d86116106f7576106e88183613d7a565b508561105c565b338652600f845261109f604087206003600482015491015490613f4f565b8082116113b8575b508015610fae57338652600f8452600360408720016110c7828254613f22565b905585546040516370a0823160e01b808252306004830152889390926001600160a01b0392600183901c918416908981602481855afa80156113ad5783918d9161137c575b50101580611373575b61130f575b50601854801580156112fb575b156112ba5750670de0b6b3a7640000905b670de0b6b3a7640000908181029181830414901517156112a6579061115c91613f2f565b899260015416936040519081523060048201528881602481885afa801561129b5782918c9161126a575b50101580611261575b6111ed575b50600080516020615da78339815191529250604051908152600087820152600080516020615ea783398151915260403392a2338852601086526040882054906111e4604051928392339684613fc3565b0390a285610fae565b90915086604051809463a9059cbb60e01b8252818c81611211873360048401613dd4565b03925af192831561125657600080516020615da783398151915293611239575b509089611194565b61124f90883d8a116106f7576106e88183613d7a565b5089611231565b6040513d8b823e3d90fd5b5080151561118f565b8092508a8092503d8311611294575b6112838183613d7a565b81010312610c9a578190518c611186565b503d611279565b6040513d8d823e3d90fd5b634e487b7160e01b8b52601160045260248bfd5b601754670de0b6b3a7640000908181029181830414901517156112e757906112e191613f2f565b90611138565b634e487b7160e01b8c52601160045260248cfd5b50683635c9adc5dea0000060175410611127565b60405163a9059cbb60e01b815291955088908290818d816113348b3360048401613dd4565b03925af180156113685761134b575b50838a61111a565b61136190883d8a116106f7576106e88183613d7a565b5089611343565b6040513d8c823e3d90fd5b50811515611115565b8092508b8092503d83116113a6575b6113958183613d7a565b81010312610c9a578290518d61110c565b503d61138b565b6040513d8e823e3d90fd5b906040519081528185820152600080516020615e2783398151915260403392a2866110a7565b6113ea85601754613f22565b601755610fa8565b60405162461bcd60e51b81526004810185905260116024820152704e6f7468696e6720746f2072656465656d60781b6044820152606490fd5b50801515610f9d565b50346103825780600319360112610382576020600754604051908152f35b50346103825780600319360112610382576020601f54604051908152f35b50346103825760403660031901126103825761148a613cb5565b6001600160a01b03168152601160205260408120805460243592908310156103825760c06114b88484613def565b508054906001810154906002810154600382015490600560ff600485015416930154936040519586526020860152604085015260608401521515608083015260a0820152f35b5034610382578060031936011261038257602060ff601654166040519015158152f35b5034610382578060031936011261038257604080519081016001600160401b038111828210176115b05760405260058152602091640352e302e360dc1b602083015260405192839160208352835191826020850152815b83811061159957505060408094508284010152601f80199101168101030190f35b808601820151878201604001528694508101611578565b634e487b7160e01b600052604160045260246000fd5b5034610382576115d536613d51565b908252601d60205260408220805482101561161a576115f49250613db8565b508054600190910154604051918291611616916001600160a01b031683613dd4565b0390f35b8280fd5b50346103825760403660031901126103825761037f61163b613cb5565b611643613ccb565b9061164c61497f565b61459f565b5034610382576020366003190112610382577fd28d9e4ce68d89af7920cb8618e342a78f51e545c530ce60f1cb1d6f0235b47f602060043561169161497f565b80601555604051908152a180f35b5034610382576116ae36613d51565b6116b661497f565b81611770575b806116e3575b600080516020615d878339815191529160409182519182526020820152a180f35b6001546040516323b872dd60e01b8152929060209084906001600160a01b031681878161171588303360048501613ed7565b03925af19182156106fe57600080516020615d8783398151915293604093611751575b5061174581601854613f22565b601855915091506116c2565b6117699060203d6020116106f7576106e88183613d7a565b5038611738565b82546040516323b872dd60e01b81529060209082906001600160a01b03168187816117a089303360048501613ed7565b03925af180156106fe576117c4575b506117bc82601754613f22565b6017556116bc565b6117dc9060203d6020116106f7576106e88183613d7a565b50386117af565b503461038257610120366003190112610382576117fe613cb5565b611806613ca6565b606435916044358315158403610c9a5760a4356084358115158203610c9a5760c4359060e435948515158603610c9a577f8fb1f6e3f39354fc80c1defc040c6d354638b0c8e5f9c63cd0292ef9842197e9966080966101043595869361186a61497f565b6001600160a01b03169a61187f8c1515614569565b8b8d52600f60205260408d20936118dc575b6118d1575b6118c6575b6118bb575b5050604051938452602084015260408301526060820152a280f35b6006015582386118a0565b84600483015561189b565b846003840155611896565b886001850155611891565b503461038257604036600319011261038257611901613cb5565b6024359061190d61497f565b61191982601f54613f4f565b601f55825460405163a9059cbb60e01b815291906001600160a01b03906020908490831681888161194e8a8960048401613dd4565b03925af191821561077c577f27971ee1acbfbdfb20656657ceb2e0e7b519b9e60fe1a6b1f6d27b159f4a607c93602093611990575b506040519485521692a280f35b6119a690843d86116106f7576106e88183613d7a565b5038611983565b5034610382578060031936011261038257546040516001600160a01b039091168152602090f35b50346103825780600319360112610382576020600e54604051908152f35b5034610382577f4e9dd03193a0c81552fb8e6d32280f0d7e0ce8087241dc3d17ef3d193ee231d76040611a2436613d51565b611a2c61497f565b81600d5580600e5582519182526020820152a180f35b5034610382578060031936011261038257600080516020615dc7833981519152546040516001600160a01b039091168152602090f35b5034610382578060031936011261038257602060405160038152f35b5034610382578060031936011261038257602060405160018152f35b50346103825780600319360112610382576004546040516001600160a01b039091168152602090f35b5034610382578060031936011261038257602060405160048152f35b5034610382576020366003190112610382576080906040906001600160a01b03611b1d613cb5565b16815260106020522080549060018101549060ff6003600283015492015416916040519384526020840152604083015215156060820152f35b503461038257608036600319011261038257611b70613cb5565b611b78613ccb565b90611b81613ce1565b91611b8a613cf7565b90611b9361497f565b6001600160a01b039283169182151580611c7c575b80611c71575b80611c66575b15611c2f577f213f1de8063c19612a553f1480ff341bea689d36a56a2089f1b9060d599b5d8394848060809660018060a01b031995878760025416176002551692838660035416176003551692838560045416176004551680936005541617600555604051938452602084015260408301526060820152a180f35b60405162461bcd60e51b815260206004820152600f60248201526e496e76616c6964206164647265737360881b6044820152606490fd5b508381161515611bb4565b508385161515611bae565b508382161515611ba8565b503461038257611c9636613d51565b908252601360205260408220805482101561161a576115f49250613db8565b50346103825780600319360112610382576020601754604051908152f35b50346103825780600319360112610382576002546040516001600160a01b039091168152602090f35b50346103825780600319360112610382576020601a54604051908152f35b5034610382578060031936011261038257611d3361497f565b600080516020615dc783398151915280546001600160a01b031981169091556000906001600160a01b0316600080516020615e678339815191528280a380f35b50346103825780600319360112610382576020601554604051908152f35b503461038257806003193601126103825760206040516103e88152f35b503461038257602036600319011261038257611dc86149b8565b611dd760ff604f541615613e7e565b611de03361539a565b68056bc75e2d631000006004351415806125ce575b806125b9575b806125a4575b6125925780546040516323b872dd60e01b81529060209082906001600160a01b0316818581611e396004803590309033908501613ed7565b03925af1801561258757612568575b5033815260106020526040812060038101805460ff161561248d57611e6e60195461455a565b806019558255600435600183015542600283015560ff198154169055338252600f602052816003604082200155600360043502600435810460031460043515171561247957338352600f60205260046040842001555b600a6001820154338452600f60205260408420906009820180548211612471575b505001805460043511612466575b5080548252601c6020908152604080842080546001600160a01b031916339081179091558452600f9091528220546001600160a01b031680151580612452575b156123c657611f526064611f4b600654600435613ef9565b0482615566565b9081612397575b50505b338252600f6020526040822054829182916001600160a01b031690829060043580159080046001141715612383579394915b6001600160a01b03811680151580612379575b8061236f575b156120ae578452600f6020526040842060ff6005820154161561208f57506001600160a01b0381168452600f60205260408420600101548390611fe990613f93565b11612025575b6001600160a01b039081168452600f6020526040842054169161201b906120159061455a565b9561455a565b935b939491611f8e565b6120346064600435048261576a565b80612040575b50611fef565b918261204b91613f22565b91338552601060205260408520546040519182526003602083015260408201523390600080516020615d67833981519152606060018060a01b03851692a33861203a565b5492956001600160a01b03909316926120a8915061455a565b9361201d565b8486846120cd60079160646120c7600754600435613ef9565b04613f4f565b8061232a575b508260018060a01b03815416602061211f60018060a01b0360025416926064612100600854600435613ef9565b0460405195868094819363a9059cbb60e01b9889845260048401613dd4565b03925af191821561077c5761218d9261230b575b5061214d6064612147600954600435613ef9565b04615a90565b845460048054600a546020936001600160a01b03928316939216916064916121759135613ef9565b04918860405180978195829489845260048401613dd4565b03925af190811561077c576121e2926020926122ee575b5060018060a01b0386541660018060a01b03600354168760646121cb600b54600435613ef9565b049360405196879586948593845260048401613dd4565b03925af180156106fe576122cf575b50336000908152600f60205260408120549092600435151592916001600160a01b03165b6001600160a01b0316801515806122c5575b1561227057600052600f60205261225383604060002090612259575b546001600160a01b03169461455a565b93612215565b8381016122696004358254613f22565b9055612243565b858261227b33614edb565b5460405190600435825260208201527f2a91574e12ad96234e84923e146b0946ecfb871cd8d5534dc1fdcbe87a7c01b360403392a26001600080516020615ec78339815191525580f35b50601e8510612227565b6122e79060203d6020116106f7576106e88183613d7a565b50836121f1565b61230490833d85116106f7576106e88183613d7a565b50866121a4565b6123239060203d6020116106f7576106e88183613d7a565b5085612133565b60408161235a7fca2e2bff26d2adb9fe155e9265350494c16751676879cb7ced9141e0fcf3934393601f54613f22565b80601f5582519182526020820152a1836120d3565b5060148710611fa7565b50600f8410611fa1565b634e487b7160e01b84526011600452602484fd5b8254604051928352600260208401526040830152600080516020615d6783398151915260603393a33880611f59565b508154600254600654612413926020926001600160a01b03908116929116906064906123f490600435613ef9565b04918660405180968195829463a9059cbb60e01b845260048401613dd4565b03925af1801561244757612428575b50611f5c565b6124409060203d6020116106f7576106e88183613d7a565b5038612422565b6040513d85823e3d90fd5b5080835260ff600560408520015416611f33565b600435905538611ef3565b553880611ee5565b634e487b7160e01b83526011600452602483fd5b600182018054806124fb57506124a460195461455a565b806019558355600435905542600283015560ff198154169055338252600f602052816003604082200155600360043502600435810460031460043515171561247957338352600f6020526004604084200155611ec4565b61250a91925060043590613f22565b9055338252600f60205260ff60056040842001541661255d575b600360043502600435810460031460043515171561247957338352600f60205261255660046040852001918254613f22565b9055611ec4565b426002820155612524565b6125809060203d6020116106f7576106e88183613d7a565b5038611e48565b6040513d84823e3d90fd5b60405163162908e360e11b8152600490fd5b50683635c9adc5dea000006004351415611e01565b50681b1ae4d6e2ef5000006004351415611dfb565b50681043561a88293000006004351415611df5565b50346103825780600319360112610382576020601954604051908152f35b50346103825780600319360112610382577f00000000000000000000000000000000000000000000000000000000000000006001600160a01b0316300361265a576020604051600080516020615e078339815191528152f35b60405163703e46dd60e11b8152600490fd5b5034610382576020806003193601126105fc576004359061268b6149b8565b61269a60ff604f541615613e7e565b811561259257683635c9adc5dea00000806017541090811561291f575b50612893576001546040516323b872dd60e01b81526001600160a01b03918390829084168188816126ed8a303360048501613ed7565b03925af1801561077c57612902575b50606461270b600e5485613ef9565b04906127178285613f4f565b926127108085029085820414851517156128ee5761273b6103e89160185490613f2f565b1161259257858260015416803b156105fc57818091602460405180948193630852cd8d60e31b83528a60048401525af18015612587576128d6575b5050601754936127868582613ef9565b9061279e601854926127988385613f22565b90613f2f565b93885416956040516370a0823160e01b815230600482015284816024818b5afa80156113685786918b916128a5575b5010612893576127e185926127e994613f22565b601855613f4f565b60175580604051809563a9059cbb60e01b825281898161280d883360048401613dd4565b03925af1938415612888577f223c8ad0806f634524940a8595f819c5cfc7b1f4f4f45791269301df0a7e61d59461286a575b5050612852604051928392339684613d3b565b0390a26001600080516020615ec78339815191525580f35b8161288092903d106106f7576106e88183613d7a565b50388061283f565b6040513d88823e3d90fd5b6040516343c7ad8160e11b8152600490fd5b809250868092503d83116128cf575b6128be8183613d7a565b81010312610c9a57859051386127cd565b503d6128b4565b6128df90613d67565b6128ea578538612776565b8580fd5b634e487b7160e01b87526011600452602487fd5b61291890833d85116106f7576106e88183613d7a565b50386126fc565b905060185410386126b7565b503461038257806003193601126103825761294461497f565b600160ff19604f541617604f557f4cb3183d0bf66f9634b15cfc3539fdddc96c2c9324848af89b56586a6739fec48180a180f35b5060403660031901126103825761298d613cb5565b60249182356001600160401b0381116105fc57366023820112156105fc5780600401356129b981613d9d565b936129c76040519586613d7a565b81855260209182860193368883830101116128ea57818692898693018737870101526001600160a01b037f00000000000000000000000000000000000000000000000000000000000000008116308114908115612b8f575b5061265a57612a2c61497f565b8116946040516352d1902d60e01b815283816004818a5afa869181612b5c575b50612a6957604051634c9c8ce360e01b8152600481018890528890fd5b869088600080516020615e0783398151915291828103612b475750843b15612b31575080546001600160a01b031916821790556040518692917fbc7cd75a20ee27fd9adebab32041f755214dbc6bffa90cc0225b39da2e5c2d3b8480a2815115612b135750612b069482915190845af4903d15612b0a573d612aea81613d9d565b90612af86040519283613d7a565b81528581943d92013e615d03565b5080f35b60609250615d03565b94505050505034612b22575080f35b63b398979f60e01b8152600490fd5b604051634c9c8ce360e01b815260048101849052fd5b60405190632a87526960e21b82526004820152fd5b9091508481813d8311612b88575b612b748183613d7a565b81010312612b8457519038612a4c565b8680fd5b503d612b6a565b905081600080516020615e078339815191525416141538612a1f565b503461038257612bba36613d51565b90612bc36149b8565b612bd260ff604f541615613e7e565b3383526020906010825260408420926001840193845415612fa0576003015460ff16612f8e57600781141580612f83575b80612f78575b612f665781156125925784546040516323b872dd60e01b81526001600160a01b039591859082908816818a81612c448a303360048501613ed7565b03925af18015612f5b57612f3e575b50612c5f601a5461455a565b601a81905533875260118552604080882090519160c083016001600160401b038111848210176115b057604052825285820185815260408301428152606084019086825260808501926001845260a08601948c8652805490600160401b821015612f2a5790612cd391600182018155613def565b969096612f165791612d1293916005969593518855516001880155516002870155516003860155511515600485019060ff801983541691151516179055565b51910155601a548652601e8452604080872080546001600160a01b031916339081179091558752600f85528620600a018054918215612f08575b5050609681029080820460961490151715612ef457606490048203612592577fa8a1b9e33e503eed12bf7e7c8c01c7f3b60217a496bddd0f5db351dd8c056c1c90612d9633614edb565b601a5490612dab604051928392339684613d3b565b0390a2338352600f815260066040842001918383549384612ddd575b506001600080516020615ec78339815191525580f35b556017548381101580612e8b575b612df7575b8490612dc7565b83612e0191613f4f565b6017558354169080604051809363a9059cbb60e01b8252818781612e29893360048401613dd4565b03925af19182156106fe577f3437b9ea7fa19c6d233dd70cc787a70fab87cee64d8ba4571512cc84402748f992612e6e575b506040519283523392a238808080612df0565b612e8490823d84116106f7576106e88183613d7a565b5038612e5b565b5060248383875416604051928380926370a0823160e01b82523060048301525afa80156128885785918791612ec3575b501015612deb565b809250858092503d8311612eed575b612edc8183613d7a565b81010312610c9a5784905138612ebb565b503d612ed2565b634e487b7160e01b86526011600452602486fd5b909150548091553880612d4c565b634e487b7160e01b8d5260048d905260248dfd5b634e487b7160e01b8e52604160045260248efd5b612f5490853d87116106f7576106e88183613d7a565b5038612c53565b6040513d89823e3d90fd5b604051634dc7f5ff60e11b8152600490fd5b50601e811415612c09565b50600f811415612c03565b604051631ecb2c4f60e31b8152600490fd5b604051634065aaf160e11b8152600490fd5b5034610382578060031936011261038257612fcb61497f565b60ff19604f5416604f557f15de7ad89d29fd1c6d2e6b1e878453569b4080edf34e0105faaa3bd52f0185308180a180f35b50346103825780600319360112610382576020604051603c8152f35b50346103825780600319360112610382576003546040516001600160a01b039091168152602090f35b5034610382576020366003190112610382576020906004358152601e8252604060018060a01b0391205416604051908152f35b503461038257806003193601126103825761308d6149b8565b610ff7613fe0565b50346103825780600319360112610382576020600d54604051908152f35b5034610382578060031936011261038257602060ff604f54166040519015158152f35b5034610382578060031936011261038257604f5460405160089190911c6001600160a01b03168152602090f35b50346103825760203660031901126103825760043590601454821015610382576020816014600393522091020180546116166002600184015493015460405193849384613d3b565b50346103825780600319360112610382576020604051683635c9adc5dea000008152f35b50346103825780600319360112610382576020601854604051908152f35b503461038257602036600319011261038257610160906001600160a01b0390604090826131b8613cb5565b168152600f60205220908154169060018101549060028101546003820154600483015460ff600585015416600685015491600786015493600887015495600a6009890154980154986040519a8b5260208b015260408a015260608901526080880152151560a087015260c086015260e0850152610100840152610120830152610140820152f35b503461038257602036600319011261038257602061325e600435613f93565b604051908152f35b50346103825780600319360112610382576001546040516001600160a01b039091168152602090f35b5034610382578060031936011261038257602090604051908152f35b5034610382576020806003193601126105fc576004356132c96149b8565b6132da60ff60165460081c16613f5c565b3383526011825260408320805482108061379a575b1561376557906132fe91613def565b5090600182019182549260028201549160038101549460058201805494338952600f97888852600960408b20015460108952600160408c200154600c54916040519361010085019585871060018060401b038811176115b05761338b966040528886528c8601526040850152896060850152608084015260a083015260c0820152603c60e08201526149e8565b949192909683951561373257836133a191613f22565b905560048101805460ff1916905588546001600160a01b03936133cc91889190309033908816614ada565b156136fd576133e190866136cf575b54614d47565b80613413575b505050549060405191825282820152600080516020615ee783398151915260403392a2610fde33614edb565b338852868652613430604089206003600482015491015490613f4f565b8091116136c7575b5081613445575b806133e7565b3387528585526003604088200161345d838254613f22565b90558160011c908088541691604051926370a0823160e01b938481523060048201528881602481855afa801561129b5783918c91613696575b5010158061368d575b613640575b506018548015801561362c575b156135fc57506134cb670de0b6b3a7640000915b85613f4f565b670de0b6b3a7640000908181029181830414901517156135e857899392916134f291613f2f565b90600154166040519283523060048401528783602481845afa80156106fe57889385916135b3575b50821115806135aa575b613554575b50505050604051908152600084820152600080516020615ea783398151915260403392a2388061343f565b6135759160405194858094819363a9059cbb60e01b83523360048401613dd4565b03925af18015612f5b5761358d575b84818892613529565b6135a390853d87116106f7576106e88183613d7a565b5038613584565b50811515613524565b93809295508491503d83116135e1575b6135cd8183613d7a565b81010312610c9a578892818893519061351a565b503d6135c3565b634e487b7160e01b8a52601160045260248afd5b601754670de0b6b3a7640000908181029181830414901517156112a6576134cb9161362691613f2f565b916134c5565b50683635c9adc5dea00000601754106134b1565b87604051809263a9059cbb60e01b8252818d81613661883360048401613dd4565b03925af1801561136857156134a45761368690883d8a116106f7576106e88183613d7a565b50386134a4565b5081151561349f565b8092508a8092503d83116136c0575b6136af8183613d7a565b81010312610c9a5782905138613496565b503d6136a5565b915038613438565b6136db87601754613f22565b601755338a52888852600660408b20016136f6888254613f22565b90556133db565b606487896040519162461bcd60e51b8352600483015260248201526e151c985b9cd9995c8819985a5b1959608a1b6044820152fd5b60405162461bcd60e51b8152600481018a9052600b60248201526a139bdd08195e1c1a5c995960aa1b6044820152606490fd5b60405162461bcd60e51b815260048101849052600d60248201526c496e76616c6964207374616b6560981b6044820152606490fd5b5060ff60046137a98484613def565b500154166132ef565b5034610382578060031936011261038257602060405160028152f35b5034610382576020806003193601126105fc57600435906137ed6149b8565b6137fc60ff604f541615613e7e565b811561259257683635c9adc5dea000008060175410908115613a20575b506128935782546040516323b872dd60e01b81526001600160a01b039183908290841681888161384e8a303360048501613ed7565b03925af1801561077c57613a03575b506018549061386c8285613ef9565b9061387e601754926127988785613f22565b92612710860261270f19878204016139ef5761389d846103e892613f2f565b116125925760646138b0600d5486613ef9565b04936138bc8582613f4f565b938360015416916040516370a0823160e01b81523060048201528881602481875afa801561129b5782918c916139ba575b50106128935789936139028a61390a94613f22565b601755613f4f565b601855803b156105fc578190602460405180948193630852cd8d60e31b83528960048401525af18015612f5b576139a7575b50600154169280604051809563a9059cbb60e01b8252818981613963883360048401613dd4565b03925af1938415612888577f36864aeefce16bc4aaceeb6b0cdfb2ad1455a8cb4ccb0db148a2bc6e7166f97c9461286a575050612852604051928392339684613d3b565b6139b390969196613d67565b943861393c565b8092508a8092503d83116139e8575b6139d38183613d7a565b810103126139e457819051386138ed565b8a80fd5b503d6139c9565b634e487b7160e01b88526011600452602488fd5b613a1990833d85116106f7576106e88183613d7a565b503861385d565b90506018541038613819565b503461038257604036600319011261038257613a46613cb5565b6001600160a01b039081168252601260205260408220805460243593908410156103825750602092613a7791613d0d565b9190546040519260031b1c168152f35b5034610382576020908160031936011261038257613aa3613cb5565b338252600f808452604083205490926001600160a01b039290918316613bd0578216338114613bbe578015613bac5733808352600f8652604080842080546001600160a01b03191684179055828452601287528320613b029190613e3b565b338252600f855282604083205416938383955b1680151580613ba2575b15613b785780845281875260408420906002820180549060018201908183116139ef5792600080516020615de783398151915260408a969394858e8997613b7299558351928352820152a254169661455a565b95613b15565b5050337fa6dbb5aa28f35437de94d685d66edce5fb4812196b4984b91dfd5a7b38c0fb308380a380f35b50601e8610613b1f565b60405163e6c4247b60e01b8152600490fd5b604051631acade8960e31b8152600490fd5b60405163682a906560e01b8152600490fd5b50346103825780600319360112610382576020600b54604051908152f35b5034610382576040366003190112610382576004358015158091036105fc5760207f03cb373f89de891077fe47cec43663b6727713de0337af46bebd1178122251b7917fb886fcb5b9c12916f26d967ebe962dbd51ec249fb55961da39c851cdfc10115c82613c6d613ca6565b92613c7661497f565b6016549315159361ff008560081b169060ff83169061ffff19161717601655604051908152a1604051908152a180f35b602435908115158203610c9a57565b600435906001600160a01b0382168203610c9a57565b602435906001600160a01b0382168203610c9a57565b604435906001600160a01b0382168203610c9a57565b606435906001600160a01b0382168203610c9a57565b8054821015613d255760005260206000200190600090565b634e487b7160e01b600052603260045260246000fd5b6040919493926060820195825260208201520152565b6040906003190112610c9a576004359060243590565b6001600160401b0381116115b057604052565b601f909101601f19168101906001600160401b038211908210176115b057604052565b6001600160401b0381116115b057601f01601f191660200190565b8054821015613d255760005260206000209060011b0190600090565b6001600160a01b039091168152602081019190915260400190565b8054821015613d25576000526006602060002091020190600090565b9181601f84011215610c9a578235916001600160401b038311610c9a576020808501948460051b010111610c9a57565b80549190600160401b8310156115b05782613e5e916001613e7c95018155613d0d565b90919060018060a01b038084549260031b9316831b921b1916179055565b565b15613e8557565b60405162461bcd60e51b815260206004820152601260248201527110dbdb9d1c9858dd081a5cc81c185d5cd95960721b6044820152606490fd5b90816020910312610c9a57518015158103610c9a5790565b6001600160a01b03918216815291166020820152604081019190915260600190565b81810292918115918404141715613f0c57565b634e487b7160e01b600052601160045260246000fd5b91908201809211613f0c57565b8115613f39570490565b634e487b7160e01b600052601260045260246000fd5b91908203918211613f0c57565b15613f6357565b60405162461bcd60e51b8152602060048201526008602482015267111a5cd8589b195960c21b6044820152606490fd5b6003811015613fbd576002811015613fb75760011115613fb257600090565b600590565b50600a90565b50600f90565b606091949392608082019582526020820152600060408201520152565b6000338152602090601082526040908181209260018085015415801561454c575b61453b573383526011825283832083919082825b6143c1575b505081156143b057338452600f83526140398260038787200154613f22565b95338552600f84528585209660049788810154809211614398575b5050821561438857338552600f8452600386862001614074848254613f22565b9055845486516370a0823160e01b808252308a8301528795926001600160a01b039284871c918416908981602481855afa90811561437e578b8d8f928d959487918491614345575b5010158061433c575b6142df575b5050505050601854801580156142cb575b1561428b5750670de0b6b3a7640000905b670de0b6b3a764000090818102918183041490151715614278579061411091613f2f565b9188955416908951908152308b8201528781602481855afa90811561426e579083918a91614239575b50101580614230575b6141af575b505091600080516020615da783398151915291600f95949388519081528786820152600080516020615ea7833981519152893392a2549061418e8851928392339684613fc3565b0390a23383525220600381015491015411156141a657565b613e7c33614f8c565b816141d69293955087918b8a8c5180968195829463a9059cbb60e01b845233908401613dd4565b03925af180156142265791600080516020615da78339815191529391600f97969593614209575b50939495819350614147565b61421f90873d89116106f7576106e88183613d7a565b50386141fd565b88513d89823e3d90fd5b50811515614142565b809250898092503d8311614267575b6142528183613d7a565b810103126142635782905138614139565b8880fd5b503d614248565b8a513d8b823e3d90fd5b634e487b7160e01b8a5260118c5260248afd5b601754670de0b6b3a7640000908181029181830414901517156142b857906142b291613f2f565b906140ec565b634e487b7160e01b8b5260118d5260248bfd5b50683635c9adc5dea00000601754106140db565b5163a9059cbb60e01b8152949a508492918391908290614304908e9033908401613dd4565b03925af1801561426e5761431f575b508587388c8b8d6140ca565b61433590883d8a116106f7576106e88183613d7a565b5038614313565b508515156140c5565b959694505050505081813d8311614377575b6143618183613d7a565b810103126139e457908c8b8d858d9551386140bc565b503d614357565b8c513d8d823e3d90fd5b50505050505050613e7c33614f8c565b6143a89294506003015490613f4f565b913880614054565b8451630fec21fd60e21b8152600490fd5b8154811015614536578260ff60046143d98486613def565b500154161561452e5750856143ee8284613def565b50906007600380930154146000146144ef575062cb73565b603c61442060026144178688613def565b50015442613f4f565b04918061442d8587613def565b50015483116144d8575b508482156144cc579161445f61446492633b9aca00946144578789613def565b500154613ef9565b613ef9565b0461446f8284613def565b509060058092015490818111614490575b505050908280925b019091614015565b956144c26144ad6144a68897969488969a613f4f565b8093613f22565b976144b88487613def565b5001918254613f22565b9055919238614480565b93929050839150614488565b9091506144e58385613def565b5001549038614437565b600f826144fc8587613def565b5001540361450e575062fe502b614406565b601e8261451b8587613def565b5001540361440657506301312d00614406565b809291614488565b61401a565b8351634065aaf160e11b8152600490fd5b5060ff600386015416614001565b6000198114613f0c5760010190565b1561457057565b60405162461bcd60e51b8152602060048201526007602482015266125b9d985b1a5960ca1b6044820152606490fd5b916001600160a01b039081841690811515806148ee575b6145bf90614569565b8284168083146148be5784846000965b16801515806148b4575b156146355784811461460557600052600f602052846145ff81604060002054169761455a565b966145cf565b60405162461bcd60e51b815260206004820152600860248201526721b4b931bab630b960c11b6044820152606490fd5b506000848152600f60208181526040928390208054969a959950868916989496898b146148a7576001600160a01b0319168a17905587151594856147ca575b614689908a6000526012835284600020613e3b565b8660005281815260029560028460002001549060019660018301809311613f0c5761474a575b8a6146e4575b50505050505050507ff8b9fe4d008320e6f048c61e41e9cc56ce351354ad0cb9a868bd3c4bd6928fd5600080a4565b600090875b6146f4575b506146b5565b861680151580614740575b1561473b578060005284845288866000200161471c848254613f22565b9055600052838352614734868660002054169161455a565b90876146e9565b6146ee565b50601e82106146ff565b866000878c835b61475f575b505050506146af565b16801515806147c0575b156147b95760008181528787528890208b01805486116147b05761478e868254613f4f565b90555b6000528585526147a7888860002054169161455a565b90889083614751565b60009055614791565b8890614756565b50601e8210614769565b9897969594939291908760005260128152826000209960005b8b54808210156148925786908a6147fb8f8590613d0d565b939054600394851b1c16146148145750506001016147e3565b60009d91929495969798999a9b9c9d1994858201918211613f0c57613e5e8a61484061484e9486613d0d565b905490871b1c169184613d0d565b8054801561487c5761468994899101926148688484613d0d565b81939154921b1b19169055555b9050614674565b634e487b7160e01b600052603160045260246000fd5b50506146899192939495969798999a50614875565b5050505050505050505050565b50603287106145d9565b60405162461bcd60e51b815260206004820152600860248201526729b2b633103932b360c11b6044820152606490fd5b5083831615156145b6565b9190811015613d255760051b0190565b356001600160a01b0381168103610c9a5790565b6001600160a01b0390811690811561496657600080516020615dc783398151915280546001600160a01b03198116841790915516600080516020615e67833981519152600080a3565b604051631e4fbdf760e01b815260006004820152602490fd5b600080516020615dc7833981519152546001600160a01b031633036149a057565b60405163118cdaa760e01b8152336004820152602490fd5b600080516020615ec783398151915260028154146149d65760029055565b604051633ee5aeb560e01b8152600490fd5b906020820151614a0c6040840191614a06835160e087015190613ef9565b90613f22565b421090811591614ace57614a4a81633b9aca00925160078114600014614aa45750614a4263ffffffff62cb73565b168751613ef9565b905190613ef9565b046060840151808211600014614a9657614a69614a8491606493613f4f565b60808601519095908015614a885760c090915b015190613ef9565b0491565b5060c060a082015191614a7c565b50506064614a846000614a69565b600f03614abc57614a4263ffffffff62fe502b614a3a565b614a4263ffffffff6301312d00614a3a565b50600092508291829150565b93909181614b53575b505060405163a9059cbb60e01b815292602092849283916000918391614b0c9160048401613dd4565b03926001600160a01b03165af1908115614b4757600091614b2b575090565b614b44915060203d6020116106f7576106e88183613d7a565b90565b6040513d6000823e3d90fd5b60018060a09594951b03808616916040938451926370a0823160e01b84528088169081600486015260209485816024818a5afa908115614cd657908491600091614ca5575b5010614c9657865191636eb1769f60e11b83526004830152831660248201528381604481885afa908115614c8b57908291600091614c5a575b5010614c4d57614bfb938392600087518097819582946323b872dd60e01b84528d60048501613ed7565b03925af1928315614c435750600092614c26575b505015614c1e57903880614ae3565b505050600090565b614c3c9250803d106106f7576106e88183613d7a565b3880614c0f565b513d6000823e3d90fd5b5050505050505050600090565b809250858092503d8311614c84575b614c738183613d7a565b81010312610c9a5781905138614bd1565b503d614c69565b86513d6000823e3d90fd5b50505050505050505050600090565b809250878092503d8311614ccf575b614cbe8183613d7a565b81010312610c9a5783905138614b98565b503d614cb4565b88513d6000823e3d90fd5b8051821015613d255760209160051b010190565b80549060009081815582614d0857505050565b6001906001600160ff1b0384168403612479578252602082209260011b8301925b838110614d365750505050565b808360029255838382015501614d29565b6000818152601e6020908152604080832054601d8352818420805493969495929492936001600160a01b0392831693906001600160401b0390818111614eba5787519391614d9b600583901b8c0186613d7a565b81855291895289892089928b86015b838510614e83575050505050865b8251811015614e6c5780614de985614dd260019487614ce1565b5151168b614de08488614ce1565b510151906158fd565b86898c83614e33575b8a92507fae629b396150638d6eb6de457cbffe5d618a10c8cc199a94976bed2b16ecd993915088614e23868a614ce1565b515116938c51908152a301614db8565b6060600080516020615d67833981519152918c8b614e51898d614ce1565b515116946004815193898552840152820152a386898c614df2565b5096915050601d9150613e7c949283525220614cf5565b8a518b810181811084821117612f2a576001928f91926002938f528b87541681528487015483820152815201930194019391614daa565b634e487b7160e01b89526041600452602489fd5b8015613f0c576000190190565b60018060a01b038060009216825260106020526040822090600182015415159182614f7c575b50600f602052604083206005810160ff815416151584151514614f7557805460ff191660ff851515161790555416918215614f705760019260409215614f58578152600f6020522001614f54815461455a565b9055565b81522001805480614f67575050565b614f5490614ece565b505050565b5050505050565b6003015460ff1615915038614f01565b6001600160a01b038116600081815260106020526040902060038101805492939260ff811615614fbd575050505050565b906001602495969260ff19161790556011602052604060002094600092600094602060018060a01b0360005416604051988980926370a0823160e01b82523060048301525afa968715614b4757600097615366575b50600095945b88548710156150d35760ff600461502f898c613def565b50015416156150c9576001615044888b613def565b50015490818060011b0460021482151715613f0c578961509c91600161507e8b61012c6150778498600c5490861b613ef9565b0494613def565b5001548281106150bc5790614a068361509693613f4f565b97613f22565b9660046150a9828c613def565b5001805460ff191690555b019594615018565b6000925061509691613f22565b94956001906150b4565b9397509094508195939193836151c3575b505091600080516020615ee78339815191526040600080516020615e878339815191529593856020966151a2575b6000858152600f885283902060058101805460ff19811690915590546001600160a01b03169060ff1680615199575b80615185575b615169575b50825191825286820152a254604051908152a23880808080614f75565b6000526001836000200161517d8154614ece565b90553861514c565b508060005260018460002001541515615147565b50801515615141565b84600052600f8752600683600020016151bc828254613f22565b9055615112565b90949293908481106152675750506000805460405163a9059cbb60e01b81529560209287926001600160a01b0316918391908290615206908a9060048401613dd4565b03925af1938415614b475760406020948793600080516020615ee783398151915293600080516020615e878339815191529861524a575b505b9395509395506150e4565b61526090883d8a116106f7576106e88183613d7a565b503861523d565b90929394816152ba575b506040600080516020615e8783398151915295849360209695600080516020615e2783398151915284600080516020615ee7833981519152968151908682528b820152a261523f565b816152f0929395945060209160018060a01b036000541690600060405180968195829463a9059cbb60e01b845260048401613dd4565b03925af18015614b4757600080516020615e878339815191529560209588600080516020615e2783398151915260408297600080516020615ee7833981519152978297615349575b509650505050939495509550615271565b61535f908c3d8e116106f7576106e88183613d7a565b5038615338565b9096506020813d602011615392575b8161538260209383613d7a565b81010312610c9a57519538615012565b3d9150615375565b6001600160a01b039081166000818152601060209081526040808320600181810180549697909693959094929184158015615558575b61550357601184528682208054839291835b828110615518575050505061550e576002820196615404885460155490613f22565b42111561550357600383837f57025f0027038907eda728b59164fb63d06048f42e618a35267e6a12e49b2e469a8a9654998d8352600f895260ff60058985209283541692015416806154fa575b806154e8575b6154ce575b508c8252600f88528187812095816004600589019860ff19998a8154169055828982015501558185555555019081541690558461549f575b5051928352820152a2565b848152601383526154b1828220614cf5565b848152601c83522080546001600160a01b03191690558338615494565b82526001878320016154e08154614ece565b90553861545c565b50808352600188842001541515615457565b50801515615451565b505050505050505050565b5050505050505050565b60ff60046155268385613def565b50015416615536575b83016153e2565b936155508491826155478886613def565b50015490613f22565b94905061552f565b5060ff6003840154166153d0565b60018060a01b03808216906000918083526020600f8152604090818520936010825282862060ff6005870154161590811561575b575b811561574e575b5061574357602482828854168551928380926370a0823160e01b82523060048301525afa908115615739579089918891615708575b50106156e3576004850195600387549601956155f687548092613f4f565b8a8181116156bb575b50508980615625575b50505050505050549054111561561c575090565b614b4490614f8c565b61565693615634828794613f22565b89558354168a84885180978195829463a9059cbb60e01b845260048401613dd4565b03925af19081156156b0575090600080516020615ea7833981519152939291615693575b506002825191898352820152a238808080808089615608565b6156a990823d84116106f7576106e88183613d7a565b503861567a565b8451903d90823e3d90fd5b819b5086600080516020615e278339815191529189939d825191825288820152a238806155ff565b50849692955081600080516020615e278339815191529592945051928352820152a290565b809250848092503d8311615732575b6157218183613d7a565b81010312612b8457889051386155d8565b503d615717565b84513d89823e3d90fd5b505050505091505090565b60019150015415386155a3565b600381015460ff16915061559c565b60018060a01b03808216906000918083526020600f8152604090818520936010825282862060ff600587015416159081156158ee575b81156158e1575b5061574357602482828854168551928380926370a0823160e01b82523060048301525afa9081156157395790899188916158b0575b50106156e3576004850195600387549601956157fa87548092613f4f565b8a818111615888575b5050898061581f5750505050505050549054111561561c575090565b61582e93615634828794613f22565b03925af19081156156b0575090600080516020615ea783398151915293929161586b575b506003825191898352820152a238808080808089615608565b61588190823d84116106f7576106e88183613d7a565b5038615852565b819b5086600080516020615e278339815191529189939d825191825288820152a23880615803565b809250848092503d83116158da575b6158c98183613d7a565b81010312612b8457889051386157dc565b503d6158bf565b60019150015415386157a7565b600381015460ff1691506157a0565b60018060a01b03808216906000918083526020600f8152604090818520936010825282862060ff60058701541615908115615a81575b8115615a74575b5061574357602482828854168551928380926370a0823160e01b82523060048301525afa908115615739579089918891615a43575b50106156e35760048501956003875496019561598d87548092613f4f565b8a818111615a1b575b505089806159b25750505050505050549054111561561c575090565b6159c193615634828794613f22565b03925af19081156156b0575090600080516020615ea78339815191529392916159fe575b506004825191898352820152a238808080808089615608565b615a1490823d84116106f7576106e88183613d7a565b50386159e5565b819b5086600080516020615e278339815191529189939d825191825288820152a23880615996565b809250848092503d8311615a6d575b615a5c8183613d7a565b81010312612b84578890513861596f565b503d615a52565b600191500154153861593a565b600381015460ff169150615933565b908115615cd057601754683635c9adc5dea00000808210908115615cc4575b50615cbf5760018060a01b03926000938085541692604093845191826370a0823160e01b9283825230600483015281602460209687935afa908115615cb5578991615c88575b50615b008683613f22565b11615c6a57612710850261270f1986820401615c7457615b23826103e892613f2f565b11615c6a5760185490615b43615b398388613ef9565b6127988884613f22565b9485158015615c61575b615c5557600154169287519081523060048201528481602481875afa908115615c4b579083918b91615c16575b5010615c0b578489939261390288615b9194613f22565b601855803b156105fc5781906024875180948193630852cd8d60e31b83528860048401525af18015615c01577f0ec3929061cbbbeecb325623e7d5a86c3dae11cb8a22ca45dc0972955657da25969750615bf2575b508351928352820152a1565b615bfb90613d67565b38615be6565b85513d89823e3d90fd5b505050505050509050565b809250868092503d8311615c44575b615c2f8183613d7a565b81010312615c405782905138615b7a565b8980fd5b503d615c25565b88513d8c823e3d90fd5b50505050505050509050565b50828611615b4d565b5050505050509050565b634e487b7160e01b89526011600452602489fd5b90508381813d8311615cae575b615c9f8183613d7a565b81010312614263575138615af5565b503d615c95565b87513d8b823e3d90fd5b509050565b90506018541038615aaf565b9050565b60ff600080516020615f078339815191525460401c1615615cf157565b604051631afcd79f60e31b8152600490fd5b90615d2a5750805115615d1857602081519101fd5b60405163d6bda27560e01b8152600490fd5b81511580615d5d575b615d3b575090565b604051639996b31560e01b81526001600160a01b039091166004820152602490fd5b50803b15615d3356fe9b3cc71482a1b2eebe764a739f46f1fe99291fd0183be81951532b29d0c9c8da38f8a0c92f4c5b0b6877f878cb4c0c8d348a47b76d716c8e78f425043df9515b6fcebd0a2ce98b28cb391d6008bbc769378c9a4919628e11639cb575cd320fcc9016d09d72d40fdae2fd8ceac6b6234c7706214fd39c1cd1e609a0528c199300a0eea20e678cb42233c1c456c84cedce7ea53fa360bb71bf3b761b7609567770360894a13ba1a3210667c828492db98dca3e2076cc3735a920a3ca505d382bbcb5987aab1afd379f6695f1068869ee8ca6a0d02304c57935a9cc3d3ea2e51e4d520bc217d25ef4588524228dffcfa518f4ad52178c71d49b8061d016213cd3118be0079c531659141344cd1fd0a4f28419497f9722a3daafe3b4186f6b6457e0920bb94eb3842a728db98228c375ff6b00c5bc5a54fac6736155517a0a20a61af381583145e90b82cc5e529bf4fc4d0e44397174cdf145c4251ac33ef195a4249b779b17422d0df92223018b32b4d1fa46e071723d6817e2486d003becc55f00f3a670cd3af7d64b488926880889d08a8585a138ff455227af6737339a1ec262f0c57e16840df040f15088dc2f81fe391c3923bec73e23a9662efc9c229c6a00a264697066735822122014865179ec9a7b4a775ce6a9b819ff0abd1fbeff5747997266cf3039b411f6e564736f6c63430008160033","opcodes":"PUSH1 0xA0 DUP1 PUSH1 0x40 MSTORE CALLVALUE PUSH3 0xD1 JUMPI ADDRESS PUSH1 0x80 MSTORE PUSH32 0xF0C57E16840DF040F15088DC2F81FE391C3923BEC73E23A9662EFC9C229C6A00 SWAP1 DUP2 SLOAD SWAP1 PUSH1 0xFF DUP3 PUSH1 0x40 SHR AND PUSH3 0xC2 JUMPI POP PUSH1 0x1 PUSH1 0x1 PUSH1 0x40 SHL SUB PUSH1 0x2 PUSH1 0x1 PUSH1 0x40 SHL SUB NOT DUP3 DUP3 AND ADD PUSH3 0x7C JUMPI JUMPDEST PUSH1 0x40 MLOAD PUSH2 0x5F5C SWAP1 DUP2 PUSH3 0xD7 DUP3 CODECOPY PUSH1 0x80 MLOAD DUP2 DUP2 DUP2 PUSH2 0x2614 ADD MSTORE PUSH2 0x29F3 ADD MSTORE RETURN JUMPDEST PUSH1 0x1 PUSH1 0x1 PUSH1 0x40 SHL SUB NOT SWAP1 SWAP2 AND DUP2 OR SWAP1 SWAP2 SSTORE PUSH1 0x40 MLOAD SWAP1 DUP2 MSTORE PUSH32 0xC7F505B2F371AE2175EE4913F4499E1F2633A7B5936321EED1CDAEB6115181D2 SWAP1 PUSH1 0x20 SWAP1 LOG1 CODESIZE DUP1 DUP1 PUSH3 0x5C JUMP JUMPDEST PUSH4 0xF92EE8A9 PUSH1 0xE0 SHL DUP2 MSTORE PUSH1 0x4 SWAP1 REVERT JUMPDEST PUSH1 0x0 DUP1 REVERT INVALID PUSH1 0x80 PUSH1 0x40 MSTORE PUSH1 0x4 CALLDATASIZE LT ISZERO PUSH2 0x12 JUMPI PUSH1 0x0 DUP1 REVERT JUMPDEST PUSH1 0x0 DUP1 CALLDATALOAD PUSH1 0xE0 SHR DUP1 PUSH4 0x1D62EFB EQ PUSH2 0x3C00 JUMPI DUP1 PUSH4 0x4EF9D58 EQ PUSH2 0x3BE2 JUMPI DUP1 PUSH4 0x4F618CB EQ PUSH2 0x3A87 JUMPI DUP1 PUSH4 0x5AD3935 EQ PUSH2 0x3A2C JUMPI DUP1 PUSH4 0xA5C4567 EQ PUSH2 0x37CE JUMPI DUP1 PUSH4 0xE2BE210 EQ PUSH2 0x37B2 JUMPI DUP1 PUSH4 0x10FF994D EQ PUSH2 0x32AB JUMPI DUP1 PUSH4 0x1427F616 EQ PUSH2 0x328F JUMPI DUP1 PUSH4 0x1788513C EQ PUSH2 0x3266 JUMPI DUP1 PUSH4 0x182C84CC EQ PUSH2 0x323F JUMPI DUP1 PUSH4 0x1959A002 EQ PUSH2 0x318D JUMPI DUP1 PUSH4 0x1D0DAC76 EQ PUSH2 0x316F JUMPI DUP1 PUSH4 0x21B77D63 EQ PUSH2 0x314B JUMPI DUP1 PUSH4 0x21F483D3 EQ PUSH2 0x3103 JUMPI DUP1 PUSH4 0x2630C12F EQ PUSH2 0x30D6 JUMPI DUP1 PUSH4 0x27C830A9 EQ PUSH2 0x30B3 JUMPI DUP1 PUSH4 0x27F082F4 EQ PUSH2 0x3095 JUMPI DUP1 PUSH4 0x372500AB EQ PUSH2 0x3074 JUMPI DUP1 PUSH4 0x3DBD46BD EQ PUSH2 0x3041 JUMPI DUP1 PUSH4 0x4626402B EQ PUSH2 0x3018 JUMPI DUP1 PUSH4 0x488B5D97 EQ PUSH2 0x2FFC JUMPI DUP1 PUSH4 0x4A4E3BD5 EQ PUSH2 0x2FB2 JUMPI DUP1 PUSH4 0x4EA4C6B3 EQ PUSH2 0x2BAB JUMPI DUP1 PUSH4 0x4F1EF286 EQ PUSH2 0x2978 JUMPI DUP1 PUSH4 0x51858E27 EQ PUSH2 0x292B JUMPI DUP1 PUSH4 0x52778B05 EQ PUSH2 0x266C JUMPI DUP1 PUSH4 0x52D1902D EQ PUSH2 0x2601 JUMPI DUP1 PUSH4 0x6031A52F EQ PUSH2 0x25E3 JUMPI DUP1 PUSH4 0x67DD74CA EQ PUSH2 0x1DAE JUMPI DUP1 PUSH4 0x6839B5FA EQ PUSH2 0x1D91 JUMPI DUP1 PUSH4 0x6DD66827 EQ PUSH2 0x1D73 JUMPI DUP1 PUSH4 0x715018A6 EQ PUSH2 0x1D1A JUMPI DUP1 PUSH4 0x75506C96 EQ PUSH2 0x1CFC JUMPI DUP1 PUSH4 0x75F0A874 EQ PUSH2 0x1CD3 JUMPI DUP1 PUSH4 0x77A2A540 EQ PUSH2 0x1CB5 JUMPI DUP1 PUSH4 0x813380CD EQ PUSH2 0x1C87 JUMPI DUP1 PUSH4 0x83672F3E EQ PUSH2 0x1B56 JUMPI DUP1 PUSH4 0x8710BCAA EQ PUSH2 0x1AF5 JUMPI DUP1 PUSH4 0x88481B61 EQ PUSH2 0x1AD9 JUMPI DUP1 PUSH4 0x88FD4D33 EQ PUSH2 0x1AB0 JUMPI DUP1 PUSH4 0x8A859A85 EQ PUSH2 0x1A94 JUMPI DUP1 PUSH4 0x8C0EAA48 EQ PUSH2 0x1A78 JUMPI DUP1 PUSH4 0x8DA5CB5B EQ PUSH2 0x1A42 JUMPI DUP1 PUSH4 0x90B0EB51 EQ PUSH2 0x19F2 JUMPI DUP1 PUSH4 0x9370B080 EQ PUSH2 0x19D4 JUMPI DUP1 PUSH4 0x95253992 EQ PUSH2 0x19AD JUMPI DUP1 PUSH4 0x99B6024D EQ PUSH2 0x18E7 JUMPI DUP1 PUSH4 0x9A5FB0FE EQ PUSH2 0x17E3 JUMPI DUP1 PUSH4 0x9CD441DA EQ PUSH2 0x169F JUMPI DUP1 PUSH4 0x9D99ECA4 EQ PUSH2 0x1651 JUMPI DUP1 PUSH4 0xA2AF9226 EQ PUSH2 0x161E JUMPI DUP1 PUSH4 0xAC8F50AA EQ PUSH2 0x15C6 JUMPI DUP1 PUSH4 0xAD3CB1CC EQ PUSH2 0x1521 JUMPI DUP1 PUSH4 0xB048A4BB EQ PUSH2 0x14FE JUMPI DUP1 PUSH4 0xB5D5B5FA EQ PUSH2 0x1470 JUMPI DUP1 PUSH4 0xB759936B EQ PUSH2 0x1452 JUMPI DUP1 PUSH4 0xBD594DCF EQ PUSH2 0x1434 JUMPI DUP1 PUSH4 0xBE040FB0 EQ PUSH2 0xCD2 JUMPI DUP1 PUSH4 0xC2FF12FC EQ PUSH2 0xC9F JUMPI DUP1 PUSH4 0xCC2A9A5B EQ PUSH2 0xA8C JUMPI DUP1 PUSH4 0xCCF61944 EQ PUSH2 0xA6E JUMPI DUP1 PUSH4 0xCEA9D26F EQ PUSH2 0x904 JUMPI DUP1 PUSH4 0xCEAA366D EQ PUSH2 0x8E6 JUMPI DUP1 PUSH4 0xD0F16470 EQ PUSH2 0x85C JUMPI DUP1 PUSH4 0xD2C8E0E5 EQ PUSH2 0x7AD JUMPI DUP1 PUSH4 0xD2F82536 EQ PUSH2 0x787 JUMPI DUP1 PUSH4 0xD4F00142 EQ PUSH2 0x600 JUMPI DUP1 PUSH4 0xD7EDBC0C EQ PUSH2 0x474 JUMPI DUP1 PUSH4 0xD8020A18 EQ PUSH2 0x456 JUMPI DUP1 PUSH4 0xDEAB8AEA EQ PUSH2 0x42D JUMPI DUP1 PUSH4 0xDEC7FA3B EQ PUSH2 0x40F JUMPI DUP1 PUSH4 0xE3067449 EQ PUSH2 0x3F1 JUMPI DUP1 PUSH4 0xE4412F68 EQ PUSH2 0x3D3 JUMPI DUP1 PUSH4 0xECE71266 EQ PUSH2 0x385 JUMPI PUSH4 0xF2FDE38B EQ PUSH2 0x356 JUMPI PUSH1 0x0 DUP1 REVERT JUMPDEST CALLVALUE PUSH2 0x382 JUMPI PUSH1 0x20 CALLDATASIZE PUSH1 0x3 NOT ADD SLT PUSH2 0x382 JUMPI PUSH2 0x37F PUSH2 0x372 PUSH2 0x3CB5 JUMP JUMPDEST PUSH2 0x37A PUSH2 0x497F JUMP JUMPDEST PUSH2 0x491D JUMP JUMPDEST DUP1 RETURN JUMPDEST DUP1 REVERT JUMPDEST POP CALLVALUE PUSH2 0x382 JUMPI PUSH1 0x20 CALLDATASIZE PUSH1 0x3 NOT ADD SLT PUSH2 0x382 JUMPI PUSH32 0xC7F6975DCFFC536E6E57DD1D1DEA810FFF534A70563BAF2D6F977B119BD00E1B PUSH1 0x20 PUSH1 0x4 CALLDATALOAD PUSH2 0x3C5 PUSH2 0x497F JUMP JUMPDEST DUP1 PUSH1 0xC SSTORE PUSH1 0x40 MLOAD SWAP1 DUP2 MSTORE LOG1 DUP1 RETURN JUMPDEST POP CALLVALUE PUSH2 0x382 JUMPI DUP1 PUSH1 0x3 NOT CALLDATASIZE ADD SLT PUSH2 0x382 JUMPI PUSH1 0x20 PUSH1 0x9 SLOAD PUSH1 0x40 MLOAD SWAP1 DUP2 MSTORE RETURN JUMPDEST POP CALLVALUE PUSH2 0x382 JUMPI DUP1 PUSH1 0x3 NOT CALLDATASIZE ADD SLT PUSH2 0x382 JUMPI PUSH1 0x20 PUSH1 0x1B SLOAD PUSH1 0x40 MLOAD SWAP1 DUP2 MSTORE RETURN JUMPDEST POP CALLVALUE PUSH2 0x382 JUMPI DUP1 PUSH1 0x3 NOT CALLDATASIZE ADD SLT PUSH2 0x382 JUMPI PUSH1 0x20 PUSH1 0xC SLOAD PUSH1 0x40 MLOAD SWAP1 DUP2 MSTORE RETURN JUMPDEST POP CALLVALUE PUSH2 0x382 JUMPI DUP1 PUSH1 0x3 NOT CALLDATASIZE ADD SLT PUSH2 0x382 JUMPI PUSH1 0x5 SLOAD PUSH1 0x40 MLOAD PUSH1 0x1 PUSH1 0x1 PUSH1 0xA0 SHL SUB SWAP1 SWAP2 AND DUP2 MSTORE PUSH1 0x20 SWAP1 RETURN JUMPDEST POP CALLVALUE PUSH2 0x382 JUMPI DUP1 PUSH1 0x3 NOT CALLDATASIZE ADD SLT PUSH2 0x382 JUMPI PUSH1 0x20 PUSH1 0x8 SLOAD PUSH1 0x40 MLOAD SWAP1 DUP2 MSTORE RETURN JUMPDEST POP CALLVALUE PUSH2 0x382 JUMPI PUSH1 0x60 CALLDATASIZE PUSH1 0x3 NOT ADD SLT PUSH2 0x382 JUMPI PUSH1 0x1 PUSH1 0x1 PUSH1 0x40 SHL SUB SWAP1 PUSH1 0x4 CALLDATALOAD DUP3 DUP2 GT PUSH2 0x5FC JUMPI PUSH2 0x4A7 SWAP1 CALLDATASIZE SWAP1 PUSH1 0x4 ADD PUSH2 0x3E0B JUMP JUMPDEST SWAP1 SWAP3 PUSH1 0x24 CALLDATALOAD DUP2 DUP2 GT PUSH2 0x5F8 JUMPI PUSH2 0x4C1 SWAP1 CALLDATASIZE SWAP1 PUSH1 0x4 ADD PUSH2 0x3E0B JUMP JUMPDEST SWAP1 SWAP2 PUSH1 0x44 CALLDATALOAD SWAP1 DUP2 GT PUSH2 0x5F4 JUMPI PUSH2 0x4DB SWAP1 CALLDATASIZE SWAP1 PUSH1 0x4 ADD PUSH2 0x3E0B JUMP JUMPDEST SWAP1 SWAP3 PUSH2 0x4E5 PUSH2 0x497F JUMP JUMPDEST DUP3 DUP6 EQ DUP1 ISZERO SWAP1 PUSH2 0x5EA JUMPI JUMPDEST PUSH2 0x5D8 JUMPI DUP6 JUMPDEST DUP6 DUP2 LT PUSH2 0x52C JUMPI DUP7 PUSH32 0x9C03D1F6BA485B6CF0A120117D651729467751D3079318D05171B6F389F6BF4B PUSH1 0x20 DUP9 PUSH1 0x40 MLOAD SWAP1 DUP2 MSTORE LOG1 DUP1 RETURN JUMPDEST DUP1 DUP8 PUSH1 0x0 DUP1 MLOAD PUSH1 0x20 PUSH2 0x5DE7 DUP4 CODECOPY DUP2 MLOAD SWAP2 MSTORE PUSH1 0x40 DUP9 DUP2 PUSH2 0x5B9 PUSH2 0x57B DUP16 SWAP9 DUP15 PUSH1 0x1 SWAP11 DUP10 DUP16 DUP16 DUP16 SWAP1 PUSH2 0x561 DUP8 PUSH2 0x597 SWAP5 DUP2 SWAP5 PUSH2 0x48F9 JUMP JUMPDEST PUSH1 0x1 PUSH1 0x1 PUSH1 0xA0 SHL SUB SWAP12 SWAP1 CALLDATALOAD DUP13 PUSH2 0x580 PUSH2 0x57B DUP7 DUP12 DUP12 PUSH2 0x48F9 JUMP JUMPDEST PUSH2 0x4909 JUMP JUMPDEST AND DUP7 MSTORE PUSH1 0x2 PUSH1 0xF SWAP13 DUP14 SWAP8 PUSH1 0x20 SWAP15 DUP16 MSTORE KECCAK256 ADD SSTORE PUSH2 0x48F9 JUMP JUMPDEST CALLDATALOAD SWAP1 DUP9 PUSH2 0x5A8 PUSH2 0x57B DUP8 DUP8 DUP8 PUSH2 0x48F9 JUMP JUMPDEST AND DUP13 MSTORE DUP8 MSTORE PUSH1 0x7 DUP10 DUP13 KECCAK256 ADD SSTORE PUSH2 0x48F9 JUMP JUMPDEST SWAP1 PUSH2 0x5C5 DUP8 DUP13 DUP12 PUSH2 0x48F9 JUMP JUMPDEST CALLDATALOAD SWAP1 DUP5 MLOAD SWAP7 DUP8 MSTORE DUP7 ADD MSTORE AND SWAP3 LOG2 ADD PUSH2 0x4F6 JUMP JUMPDEST PUSH1 0x40 MLOAD PUSH4 0x980A3F31 PUSH1 0xE0 SHL DUP2 MSTORE PUSH1 0x4 SWAP1 REVERT JUMPDEST POP DUP2 DUP6 EQ ISZERO PUSH2 0x4F0 JUMP JUMPDEST DUP5 DUP1 REVERT JUMPDEST DUP4 DUP1 REVERT JUMPDEST POP DUP1 REVERT JUMPDEST POP CALLVALUE PUSH2 0x382 JUMPI PUSH1 0x80 CALLDATASIZE PUSH1 0x3 NOT ADD SLT PUSH2 0x382 JUMPI PUSH2 0x61A PUSH2 0x3CB5 JUMP JUMPDEST PUSH1 0x24 CALLDATALOAD SWAP1 PUSH2 0x626 PUSH2 0x3CE1 JUMP JUMPDEST DUP3 PUSH1 0x64 CALLDATALOAD SWAP3 PUSH2 0x633 PUSH2 0x497F JUMP JUMPDEST DUP2 PUSH2 0x709 JUMPI JUMPDEST POP POP DUP2 PUSH2 0x663 JUMPI JUMPDEST POP PUSH1 0x0 DUP1 MLOAD PUSH1 0x20 PUSH2 0x5E47 DUP4 CODECOPY DUP2 MLOAD SWAP2 MSTORE SWAP2 PUSH1 0x40 SWAP2 DUP3 MLOAD SWAP2 DUP3 MSTORE PUSH1 0x20 DUP3 ADD MSTORE LOG1 DUP1 RETURN JUMPDEST SWAP2 PUSH1 0x20 DUP3 PUSH2 0x6A3 SWAP5 PUSH2 0x677 DUP3 PUSH1 0x18 SLOAD PUSH2 0x3F4F JUMP JUMPDEST PUSH1 0x18 SSTORE PUSH1 0x1 DUP1 PUSH1 0xA0 SHL SUB PUSH1 0x1 SLOAD AND SWAP1 DUP8 PUSH1 0x40 MLOAD DUP1 SWAP9 DUP2 SWAP6 DUP3 SWAP5 PUSH4 0xA9059CBB PUSH1 0xE0 SHL DUP5 MSTORE PUSH1 0x4 DUP5 ADD PUSH2 0x3DD4 JUMP JUMPDEST SUB SWAP3 GAS CALL SWAP2 DUP3 ISZERO PUSH2 0x6FE JUMPI PUSH1 0x0 DUP1 MLOAD PUSH1 0x20 PUSH2 0x5E47 DUP4 CODECOPY DUP2 MLOAD SWAP2 MSTORE SWAP4 PUSH1 0x40 SWAP4 PUSH2 0x6CF JUMPI JUMPDEST POP SWAP2 POP SWAP2 PUSH2 0x641 JUMP JUMPDEST PUSH2 0x6F0 SWAP1 PUSH1 0x20 RETURNDATASIZE PUSH1 0x20 GT PUSH2 0x6F7 JUMPI JUMPDEST PUSH2 0x6E8 DUP2 DUP4 PUSH2 0x3D7A JUMP JUMPDEST DUP2 ADD SWAP1 PUSH2 0x3EBF JUMP JUMPDEST POP CODESIZE PUSH2 0x6C6 JUMP JUMPDEST POP RETURNDATASIZE PUSH2 0x6DE JUMP JUMPDEST PUSH1 0x40 MLOAD RETURNDATASIZE DUP7 DUP3 RETURNDATACOPY RETURNDATASIZE SWAP1 REVERT JUMPDEST DUP2 PUSH1 0x20 SWAP2 PUSH2 0x71C PUSH2 0x747 SWAP5 PUSH1 0x17 SLOAD PUSH2 0x3F4F JUMP JUMPDEST PUSH1 0x17 SSTORE PUSH1 0x1 DUP1 PUSH1 0xA0 SHL SUB DUP9 SLOAD AND SWAP1 DUP9 PUSH1 0x40 MLOAD DUP1 SWAP7 DUP2 SWAP6 DUP3 SWAP5 PUSH4 0xA9059CBB PUSH1 0xE0 SHL DUP5 MSTORE PUSH1 0x4 DUP5 ADD PUSH2 0x3DD4 JUMP JUMPDEST SUB SWAP3 GAS CALL DUP1 ISZERO PUSH2 0x77C JUMPI PUSH2 0x75D JUMPI JUMPDEST DUP4 SWAP1 PUSH2 0x639 JUMP JUMPDEST PUSH2 0x775 SWAP1 PUSH1 0x20 RETURNDATASIZE PUSH1 0x20 GT PUSH2 0x6F7 JUMPI PUSH2 0x6E8 DUP2 DUP4 PUSH2 0x3D7A JUMP JUMPDEST POP CODESIZE PUSH2 0x756 JUMP JUMPDEST PUSH1 0x40 MLOAD RETURNDATASIZE DUP8 DUP3 RETURNDATACOPY RETURNDATASIZE SWAP1 REVERT JUMPDEST POP CALLVALUE PUSH2 0x382 JUMPI DUP1 PUSH1 0x3 NOT CALLDATASIZE ADD SLT PUSH2 0x382 JUMPI PUSH1 0x20 PUSH1 0xFF PUSH1 0x16 SLOAD PUSH1 0x8 SHR AND PUSH1 0x40 MLOAD SWAP1 ISZERO ISZERO DUP2 MSTORE RETURN JUMPDEST POP CALLVALUE PUSH2 0x382 JUMPI PUSH1 0x20 SWAP1 DUP2 PUSH1 0x3 NOT CALLDATASIZE ADD SLT PUSH2 0x382 JUMPI PUSH1 0x1 PUSH1 0x1 PUSH1 0xA0 SHL SUB SWAP2 SWAP1 DUP3 PUSH2 0x7D4 PUSH2 0x3CB5 JUMP JUMPDEST AND DUP2 MSTORE PUSH1 0x12 DUP3 MSTORE PUSH1 0x40 DUP2 KECCAK256 SWAP1 PUSH1 0x40 MLOAD DUP1 DUP5 DUP5 SLOAD SWAP2 DUP3 DUP2 MSTORE ADD SWAP1 DUP2 SWAP5 DUP5 MSTORE DUP6 DUP5 KECCAK256 SWAP1 DUP5 JUMPDEST DUP2 DUP2 LT PUSH2 0x846 JUMPI POP POP POP DUP2 PUSH2 0x80D SWAP2 SUB DUP3 PUSH2 0x3D7A JUMP JUMPDEST PUSH1 0x40 MLOAD SWAP4 DUP1 DUP6 ADD SWAP2 DUP2 DUP7 MSTORE MLOAD DUP1 SWAP3 MSTORE PUSH1 0x40 DUP6 ADD SWAP4 SWAP3 JUMPDEST DUP3 DUP2 LT PUSH2 0x830 JUMPI DUP6 DUP6 SUB DUP7 RETURN JUMPDEST DUP4 MLOAD DUP8 AND DUP6 MSTORE SWAP4 DUP2 ADD SWAP4 SWAP3 DUP2 ADD SWAP3 PUSH1 0x1 ADD PUSH2 0x823 JUMP JUMPDEST DUP3 SLOAD DUP10 AND DUP5 MSTORE SWAP3 DUP8 ADD SWAP3 PUSH1 0x1 SWAP3 DUP4 ADD SWAP3 ADD PUSH2 0x7F7 JUMP JUMPDEST POP CALLVALUE PUSH2 0x382 JUMPI PUSH1 0xC0 CALLDATASIZE PUSH1 0x3 NOT ADD SLT PUSH2 0x382 JUMPI PUSH32 0x66682B276E4CD1A4E1F68B55B1143766C5332F472EB593CF2A70A25D9D5D9917 PUSH1 0xC0 PUSH1 0x4 CALLDATALOAD PUSH1 0xA4 CALLDATALOAD PUSH1 0x84 CALLDATALOAD PUSH1 0x64 CALLDATALOAD PUSH1 0x44 CALLDATALOAD PUSH1 0x24 CALLDATALOAD PUSH2 0x8AB PUSH2 0x497F JUMP JUMPDEST DUP6 PUSH1 0x6 SSTORE DUP1 PUSH1 0x7 SSTORE DUP2 PUSH1 0x8 SSTORE DUP3 PUSH1 0x9 SSTORE DUP4 PUSH1 0xA SSTORE DUP5 PUSH1 0xB SSTORE PUSH1 0x40 MLOAD SWAP6 DUP7 MSTORE PUSH1 0x20 DUP7 ADD MSTORE PUSH1 0x40 DUP6 ADD MSTORE PUSH1 0x60 DUP5 ADD MSTORE PUSH1 0x80 DUP4 ADD MSTORE PUSH1 0xA0 DUP3 ADD MSTORE LOG1 DUP1 RETURN JUMPDEST POP CALLVALUE PUSH2 0x382 JUMPI DUP1 PUSH1 0x3 NOT CALLDATASIZE ADD SLT PUSH2 0x382 JUMPI PUSH1 0x20 PUSH1 0xA SLOAD PUSH1 0x40 MLOAD SWAP1 DUP2 MSTORE RETURN JUMPDEST POP CALLVALUE PUSH2 0x382 JUMPI PUSH1 0x60 CALLDATASIZE PUSH1 0x3 NOT ADD SLT PUSH2 0x382 JUMPI PUSH2 0x91E PUSH2 0x3CB5 JUMP JUMPDEST PUSH2 0x926 PUSH2 0x3CCB JUMP JUMPDEST PUSH1 0x44 CALLDATALOAD SWAP2 PUSH2 0x932 PUSH2 0x497F JUMP JUMPDEST DUP4 SLOAD PUSH1 0x1 PUSH1 0x1 PUSH1 0xA0 SHL SUB DUP3 DUP2 AND SWAP5 SWAP2 DUP2 AND DUP6 EQ ISZERO DUP1 PUSH2 0xA60 JUMPI JUMPDEST ISZERO PUSH2 0xA1B JUMPI DUP4 AND ISZERO PUSH2 0x9E2 JUMPI PUSH1 0x20 PUSH1 0x40 MLOAD DUP1 SWAP6 PUSH4 0xA9059CBB PUSH1 0xE0 SHL DUP3 MSTORE DUP2 DUP9 DUP2 PUSH2 0x97A DUP8 DUP11 PUSH1 0x4 DUP5 ADD PUSH2 0x3DD4 JUMP JUMPDEST SUB SWAP3 GAS CALL SWAP1 DUP2 ISZERO PUSH2 0x77C JUMPI PUSH32 0x77023E19C7343AD491FD706C36335CA0E738340A91F29B1FD81E2673D44896C4 SWAP5 PUSH2 0x9BD SWAP3 PUSH2 0x9C3 JUMPI JUMPDEST POP PUSH1 0x40 MLOAD SWAP4 DUP5 SWAP4 DUP5 PUSH2 0x3ED7 JUMP JUMPDEST SUB SWAP1 LOG1 DUP1 RETURN JUMPDEST PUSH2 0x9DB SWAP1 PUSH1 0x20 RETURNDATASIZE PUSH1 0x20 GT PUSH2 0x6F7 JUMPI PUSH2 0x6E8 DUP2 DUP4 PUSH2 0x3D7A JUMP JUMPDEST POP CODESIZE PUSH2 0x9B0 JUMP JUMPDEST PUSH1 0x40 MLOAD PUSH3 0x461BCD PUSH1 0xE5 SHL DUP2 MSTORE PUSH1 0x20 PUSH1 0x4 DUP3 ADD MSTORE PUSH1 0x11 PUSH1 0x24 DUP3 ADD MSTORE PUSH17 0x125B9D985B1A59081C9958DA5C1A595B9D PUSH1 0x7A SHL PUSH1 0x44 DUP3 ADD MSTORE PUSH1 0x64 SWAP1 REVERT JUMPDEST PUSH1 0x40 MLOAD PUSH3 0x461BCD PUSH1 0xE5 SHL DUP2 MSTORE PUSH1 0x20 PUSH1 0x4 DUP3 ADD MSTORE PUSH1 0x1D PUSH1 0x24 DUP3 ADD MSTORE PUSH32 0x43616E6E6F74207265736375652070726F746F636F6C20746F6B656E73000000 PUSH1 0x44 DUP3 ADD MSTORE PUSH1 0x64 SWAP1 REVERT JUMPDEST POP DUP1 PUSH1 0x1 SLOAD AND DUP6 EQ ISZERO PUSH2 0x94C JUMP JUMPDEST POP CALLVALUE PUSH2 0x382 JUMPI DUP1 PUSH1 0x3 NOT CALLDATASIZE ADD SLT PUSH2 0x382 JUMPI PUSH1 0x20 PUSH1 0x6 SLOAD PUSH1 0x40 MLOAD SWAP1 DUP2 MSTORE RETURN JUMPDEST POP CALLVALUE PUSH2 0x382 JUMPI PUSH1 0xC0 CALLDATASIZE PUSH1 0x3 NOT ADD SLT PUSH2 0x382 JUMPI PUSH2 0xAA6 PUSH2 0x3CB5 JUMP JUMPDEST PUSH2 0xAAE PUSH2 0x3CCB JUMP JUMPDEST PUSH2 0xAB6 PUSH2 0x3CE1 JUMP JUMPDEST PUSH2 0xABE PUSH2 0x3CF7 JUMP JUMPDEST SWAP2 PUSH1 0x1 PUSH1 0x1 PUSH1 0xA0 SHL SUB PUSH1 0x84 CALLDATALOAD DUP2 DUP2 AND SWAP1 DUP2 SWAP1 SUB PUSH2 0xC9A JUMPI PUSH1 0xA4 CALLDATALOAD SWAP3 DUP3 DUP5 AND DUP1 SWAP5 SUB PUSH2 0xC9A JUMPI PUSH1 0x0 DUP1 MLOAD PUSH1 0x20 PUSH2 0x5F07 DUP4 CODECOPY DUP2 MLOAD SWAP2 MSTORE SWAP6 DUP7 SLOAD PUSH1 0xFF DUP2 PUSH1 0x40 SHR AND ISZERO SWAP7 PUSH1 0x1 DUP1 PUSH1 0x40 SHL SUB DUP3 AND SWAP10 DUP11 ISZERO DUP1 PUSH2 0xC93 JUMPI JUMPDEST PUSH1 0x1 DUP1 SWAP13 EQ SWAP1 DUP2 PUSH2 0xC89 JUMPI JUMPDEST ISZERO SWAP1 DUP2 PUSH2 0xC80 JUMPI JUMPDEST POP PUSH2 0xC6E JUMPI PUSH1 0x1 PUSH1 0x1 PUSH1 0x40 SHL SUB NOT DUP4 AND DUP12 OR DUP11 SSTORE DUP7 SWAP5 DUP6 SWAP4 DUP5 SWAP3 DUP15 SWAP2 DUP13 PUSH2 0xC53 JUMPI JUMPDEST POP PUSH2 0xB4F PUSH2 0x5CD4 JUMP JUMPDEST PUSH2 0xB57 PUSH2 0x5CD4 JUMP JUMPDEST PUSH2 0xB60 CALLER PUSH2 0x491D JUMP JUMPDEST PUSH2 0xB68 PUSH2 0x5CD4 JUMP JUMPDEST PUSH2 0xB70 PUSH2 0x5CD4 JUMP JUMPDEST PUSH2 0xB78 PUSH2 0x5CD4 JUMP JUMPDEST DUP14 PUSH1 0x0 DUP1 MLOAD PUSH1 0x20 PUSH2 0x5EC7 DUP4 CODECOPY DUP2 MLOAD SWAP2 MSTORE SSTORE PUSH1 0x1 DUP1 PUSH1 0xA0 SHL SUB NOT SWAP10 DUP11 SWAP2 AND SWAP2 SLOAD AND OR DUP14 SSTORE AND DUP7 DUP12 SLOAD AND OR DUP11 SSTORE AND DUP5 PUSH1 0x2 SLOAD AND OR PUSH1 0x2 SSTORE AND DUP3 PUSH1 0x3 SLOAD AND OR PUSH1 0x3 SSTORE DUP2 PUSH1 0x4 SLOAD AND OR PUSH1 0x4 SSTORE PUSH1 0x5 SLOAD AND OR PUSH1 0x5 SSTORE PUSH1 0x19 PUSH1 0x6 SSTORE PUSH1 0xF PUSH1 0x7 SSTORE PUSH1 0x5 PUSH1 0x8 SSTORE PUSH1 0x5 PUSH1 0x9 SSTORE PUSH1 0x19 PUSH1 0xA SSTORE PUSH1 0x19 PUSH1 0xB SSTORE DUP3 PUSH1 0xC SSTORE PUSH1 0x32 PUSH1 0xD SSTORE PUSH1 0x19 PUSH1 0xE SSTORE PUSH3 0x3F480 PUSH1 0x15 SSTORE PUSH2 0x101 PUSH2 0xFFFF NOT PUSH1 0x16 SLOAD AND OR PUSH1 0x16 SSTORE TIMESTAMP PUSH1 0x1B SSTORE PUSH2 0xC16 JUMPI DUP3 DUP1 RETURN JUMPDEST DUP1 SLOAD PUSH1 0xFF PUSH1 0x40 SHL NOT AND SWAP1 SSTORE PUSH1 0x40 MLOAD SWAP1 DUP2 MSTORE PUSH32 0xC7F505B2F371AE2175EE4913F4499E1F2633A7B5936321EED1CDAEB6115181D2 SWAP1 PUSH1 0x20 SWAP1 LOG1 CODESIZE DUP1 DUP3 DUP1 RETURN JUMPDEST PUSH1 0x1 PUSH1 0x1 PUSH1 0x48 SHL SUB NOT AND PUSH1 0x1 PUSH1 0x1 PUSH1 0x40 SHL ADD OR DUP14 SSTORE CODESIZE PUSH2 0xB46 JUMP JUMPDEST PUSH1 0x40 MLOAD PUSH4 0xF92EE8A9 PUSH1 0xE0 SHL DUP2 MSTORE PUSH1 0x4 SWAP1 REVERT JUMPDEST SWAP1 POP ISZERO CODESIZE PUSH2 0xB24 JUMP JUMPDEST ADDRESS EXTCODESIZE ISZERO SWAP2 POP PUSH2 0xB1C JUMP JUMPDEST POP DUP9 PUSH2 0xB10 JUMP JUMPDEST PUSH1 0x0 DUP1 REVERT JUMPDEST POP CALLVALUE PUSH2 0x382 JUMPI PUSH1 0x20 CALLDATASIZE PUSH1 0x3 NOT ADD SLT PUSH2 0x382 JUMPI PUSH1 0x20 SWAP1 PUSH1 0x4 CALLDATALOAD DUP2 MSTORE PUSH1 0x1C DUP3 MSTORE PUSH1 0x40 PUSH1 0x1 DUP1 PUSH1 0xA0 SHL SUB SWAP2 KECCAK256 SLOAD AND PUSH1 0x40 MLOAD SWAP1 DUP2 MSTORE RETURN JUMPDEST POP CALLVALUE PUSH2 0x382 JUMPI DUP1 PUSH1 0x3 NOT CALLDATASIZE ADD SLT PUSH2 0x382 JUMPI PUSH2 0xCEB PUSH2 0x49B8 JUMP JUMPDEST PUSH1 0xFF PUSH2 0xCFE PUSH1 0xFF PUSH1 0x16 SLOAD PUSH1 0x8 SHR AND PUSH2 0x3F5C JUMP JUMPDEST CALLER DUP3 MSTORE PUSH1 0x11 SWAP2 PUSH1 0x20 PUSH1 0x11 DUP2 MSTORE PUSH1 0x40 DUP3 KECCAK256 SWAP4 DUP3 DUP4 SWAP1 DUP5 SWAP3 DUP6 JUMPDEST DUP9 SLOAD DUP2 LT ISZERO PUSH2 0xF8C JUMPI DUP8 PUSH1 0x4 PUSH2 0xD2C DUP4 DUP13 PUSH2 0x3DEF JUMP JUMPDEST POP ADD SLOAD AND ISZERO PUSH2 0xF84 JUMPI PUSH1 0x2 PUSH2 0xD41 DUP3 DUP12 PUSH2 0x3DEF JUMP JUMPDEST POP ADD SLOAD PUSH2 0xD4E DUP3 DUP12 PUSH2 0x3DEF JUMP JUMPDEST POP SWAP1 PUSH1 0x3 DUP1 SWAP3 ADD SLOAD SWAP1 PUSH1 0x3C SWAP2 DUP3 DUP2 MUL SWAP3 DUP2 DUP5 DIV EQ SWAP1 ISZERO OR ISZERO PUSH2 0xF70 JUMPI DUP12 SWAP3 SWAP2 PUSH2 0xD76 SWAP2 PUSH2 0x3F22 JUMP JUMPDEST TIMESTAMP LT ISZERO PUSH2 0xD8A JUMPI JUMPDEST POP POP PUSH1 0x1 SWAP1 JUMPDEST ADD PUSH2 0xD16 JUMP JUMPDEST SWAP1 SWAP6 DUP9 SWAP6 SWAP3 SWAP5 SWAP6 PUSH1 0x7 DUP4 PUSH2 0xD9E DUP9 DUP12 PUSH2 0x3DEF JUMP JUMPDEST POP ADD SLOAD SUB PUSH2 0xF17 JUMPI POP PUSH4 0x3B9ACA00 PUSH2 0xDE3 PUSH3 0xCB7356 SWAP4 JUMPDEST PUSH2 0xDCF PUSH2 0xDC2 DUP10 DUP13 PUSH2 0x3DEF JUMP JUMPDEST POP SWAP6 PUSH1 0x1 DUP1 SWAP8 ADD SLOAD PUSH2 0x3EF9 JUMP JUMPDEST SWAP1 PUSH2 0xDDA DUP10 DUP13 PUSH2 0x3DEF JUMP JUMPDEST POP ADD SLOAD SWAP1 PUSH2 0x3EF9 JUMP JUMPDEST DIV SWAP1 DUP10 SWAP2 PUSH2 0xDF1 DUP8 DUP11 PUSH2 0x3DEF JUMP JUMPDEST POP DUP8 PUSH1 0x5 SWAP11 DUP12 DUP1 SWAP4 ADD SLOAD DUP5 GT PUSH2 0xEEF JUMPI JUMPDEST POP POP POP POP DUP2 PUSH2 0xE10 SWAP2 PUSH2 0x3F22 JUMP JUMPDEST SWAP7 PUSH2 0xE1B DUP7 DUP14 PUSH2 0x3DEF JUMP JUMPDEST POP ADD SWAP1 DUP2 SLOAD SWAP1 PUSH2 0xE2A SWAP2 PUSH2 0x3F22 JUMP JUMPDEST SWAP1 SSTORE CALLER DUP9 MSTORE PUSH1 0xF DUP8 MSTORE PUSH1 0x40 DUP9 KECCAK256 PUSH1 0x9 ADD SLOAD SWAP2 DUP11 DUP3 DUP11 DUP8 DUP12 DUP8 ISZERO PUSH1 0x1 SWAP9 PUSH2 0xE92 SWAP9 PUSH2 0xE6D SWAP6 PUSH1 0x64 SWAP5 PUSH2 0xE66 SWAP5 PUSH2 0xED9 JUMPI JUMPDEST POP POP POP PUSH1 0xC SLOAD SWAP1 PUSH2 0x3EF9 JUMP JUMPDEST DIV SWAP4 PUSH2 0x3DEF JUMP JUMPDEST POP ADD SLOAD DUP2 DUP2 GT ISZERO PUSH2 0xEC6 JUMPI SWAP1 PUSH2 0xE86 DUP2 PUSH2 0xE8C SWAP4 PUSH2 0x3F4F JUMP JUMPDEST SWAP3 PUSH2 0x3F22 JUMP JUMPDEST SWAP6 PUSH2 0x3F22 JUMP JUMPDEST SWAP3 PUSH1 0x4 PUSH2 0xE9F DUP3 DUP13 PUSH2 0x3DEF JUMP JUMPDEST POP ADD DUP1 SLOAD PUSH1 0xFF NOT AND SWAP1 SSTORE PUSH2 0xEBD PUSH2 0xEB6 DUP3 DUP13 PUSH2 0x3DEF JUMP JUMPDEST POP SLOAD PUSH2 0x4D47 JUMP JUMPDEST SWAP1 POP DUP9 CODESIZE PUSH2 0xD7E JUMP JUMPDEST SWAP1 POP PUSH2 0xED1 SWAP2 PUSH2 0x3F22 JUMP JUMPDEST SWAP5 DUP9 SWAP1 PUSH2 0x3F22 JUMP JUMPDEST PUSH1 0x40 SWAP3 SWAP4 POP PUSH1 0x10 SWAP1 MSTORE KECCAK256 ADD SLOAD DUP16 DUP16 SWAP1 DUP8 SWAP2 PUSH2 0xE5A JUMP JUMPDEST PUSH2 0xE10 SWAP5 SWAP6 POP PUSH2 0xF0D SWAP4 SWAP3 SWAP2 PUSH2 0xF04 SWAP2 PUSH2 0x3DEF JUMP JUMPDEST POP ADD SLOAD SWAP1 PUSH2 0x3F4F JUMP JUMPDEST SWAP2 SWAP1 DUP9 DUP8 DUP15 PUSH2 0xE02 JUMP JUMPDEST PUSH1 0xF DUP4 PUSH2 0xF24 DUP9 DUP12 PUSH2 0x3DEF JUMP JUMPDEST POP ADD SLOAD SUB PUSH2 0xF3F JUMPI POP PUSH4 0x3B9ACA00 PUSH2 0xDE3 PUSH3 0xFE502B SWAP4 PUSH2 0xDB5 JUMP JUMPDEST SWAP2 PUSH1 0x1E DUP2 PUSH2 0xF4D DUP9 DUP12 PUSH2 0x3DEF JUMP JUMPDEST POP ADD SLOAD EQ PUSH2 0xF64 JUMPI JUMPDEST PUSH2 0xDE3 PUSH4 0x3B9ACA00 SWAP2 PUSH2 0xDB5 JUMP JUMPDEST PUSH4 0x1312D00 SWAP3 POP PUSH2 0xF56 JUMP JUMPDEST PUSH4 0x4E487B71 PUSH1 0xE0 SHL DUP11 MSTORE PUSH1 0x4 DUP6 SWAP1 MSTORE PUSH1 0x24 DUP11 REVERT JUMPDEST PUSH1 0x1 SWAP1 PUSH2 0xD84 JUMP JUMPDEST POP POP SWAP1 SWAP3 SWAP2 DUP2 ISZERO SWAP1 DUP2 ISZERO DUP1 SWAP3 PUSH2 0x142B JUMPI JUMPDEST ISZERO PUSH2 0x13F2 JUMPI DUP5 PUSH2 0x13DE JUMPI JUMPDEST DUP1 PUSH2 0x1081 JUMPI JUMPDEST POP PUSH2 0x101A JUMPI JUMPDEST PUSH1 0xF SWAP3 PUSH1 0x40 MLOAD SWAP2 DUP3 MSTORE DUP3 DUP3 ADD MSTORE PUSH1 0x0 DUP1 MLOAD PUSH1 0x20 PUSH2 0x5EE7 DUP4 CODECOPY DUP2 MLOAD SWAP2 MSTORE PUSH1 0x40 CALLER SWAP3 LOG2 PUSH2 0xFDE CALLER PUSH2 0x4EDB JUMP JUMPDEST CALLER DUP4 MSTORE MSTORE PUSH1 0x40 DUP2 KECCAK256 PUSH1 0x4 PUSH1 0x3 DUP3 ADD SLOAD SWAP2 ADD SLOAD GT ISZERO PUSH2 0x100C JUMPI JUMPDEST PUSH1 0x1 PUSH1 0x0 DUP1 MLOAD PUSH1 0x20 PUSH2 0x5EC7 DUP4 CODECOPY DUP2 MLOAD SWAP2 MSTORE SSTORE DUP1 RETURN JUMPDEST PUSH2 0x1015 CALLER PUSH2 0x4F8C JUMP JUMPDEST PUSH2 0xFF7 JUMP JUMPDEST DUP4 SLOAD PUSH1 0x40 MLOAD PUSH4 0xA9059CBB PUSH1 0xE0 SHL DUP2 MSTORE SWAP4 SWAP1 DUP4 SWAP1 DUP6 SWAP1 PUSH1 0x1 PUSH1 0x1 PUSH1 0xA0 SHL SUB AND DUP2 DUP9 DUP2 PUSH2 0x1049 DUP9 CALLER PUSH1 0x4 DUP5 ADD PUSH2 0x3DD4 JUMP JUMPDEST SUB SWAP3 GAS CALL SWAP4 DUP5 ISZERO PUSH2 0x77C JUMPI PUSH1 0xF SWAP5 PUSH2 0x1064 JUMPI JUMPDEST POP SWAP3 POP PUSH2 0xFB4 JUMP JUMPDEST PUSH2 0x107A SWAP1 DUP5 RETURNDATASIZE DUP7 GT PUSH2 0x6F7 JUMPI PUSH2 0x6E8 DUP2 DUP4 PUSH2 0x3D7A JUMP JUMPDEST POP DUP6 PUSH2 0x105C JUMP JUMPDEST CALLER DUP7 MSTORE PUSH1 0xF DUP5 MSTORE PUSH2 0x109F PUSH1 0x40 DUP8 KECCAK256 PUSH1 0x3 PUSH1 0x4 DUP3 ADD SLOAD SWAP2 ADD SLOAD SWAP1 PUSH2 0x3F4F JUMP JUMPDEST DUP1 DUP3 GT PUSH2 0x13B8 JUMPI JUMPDEST POP DUP1 ISZERO PUSH2 0xFAE JUMPI CALLER DUP7 MSTORE PUSH1 0xF DUP5 MSTORE PUSH1 0x3 PUSH1 0x40 DUP8 KECCAK256 ADD PUSH2 0x10C7 DUP3 DUP3 SLOAD PUSH2 0x3F22 JUMP JUMPDEST SWAP1 SSTORE DUP6 SLOAD PUSH1 0x40 MLOAD PUSH4 0x70A08231 PUSH1 0xE0 SHL DUP1 DUP3 MSTORE ADDRESS PUSH1 0x4 DUP4 ADD MSTORE DUP9 SWAP4 SWAP1 SWAP3 PUSH1 0x1 PUSH1 0x1 PUSH1 0xA0 SHL SUB SWAP3 PUSH1 0x1 DUP4 SWAP1 SHR SWAP2 DUP5 AND SWAP1 DUP10 DUP2 PUSH1 0x24 DUP2 DUP6 GAS STATICCALL DUP1 ISZERO PUSH2 0x13AD JUMPI DUP4 SWAP2 DUP14 SWAP2 PUSH2 0x137C JUMPI JUMPDEST POP LT ISZERO DUP1 PUSH2 0x1373 JUMPI JUMPDEST PUSH2 0x130F JUMPI JUMPDEST POP PUSH1 0x18 SLOAD DUP1 ISZERO DUP1 ISZERO PUSH2 0x12FB JUMPI JUMPDEST ISZERO PUSH2 0x12BA JUMPI POP PUSH8 0xDE0B6B3A7640000 SWAP1 JUMPDEST PUSH8 0xDE0B6B3A7640000 SWAP1 DUP2 DUP2 MUL SWAP2 DUP2 DUP4 DIV EQ SWAP1 ISZERO OR ISZERO PUSH2 0x12A6 JUMPI SWAP1 PUSH2 0x115C SWAP2 PUSH2 0x3F2F JUMP JUMPDEST DUP10 SWAP3 PUSH1 0x1 SLOAD AND SWAP4 PUSH1 0x40 MLOAD SWAP1 DUP2 MSTORE ADDRESS PUSH1 0x4 DUP3 ADD MSTORE DUP9 DUP2 PUSH1 0x24 DUP2 DUP9 GAS STATICCALL DUP1 ISZERO PUSH2 0x129B JUMPI DUP3 SWAP2 DUP13 SWAP2 PUSH2 0x126A JUMPI JUMPDEST POP LT ISZERO DUP1 PUSH2 0x1261 JUMPI JUMPDEST PUSH2 0x11ED JUMPI JUMPDEST POP PUSH1 0x0 DUP1 MLOAD PUSH1 0x20 PUSH2 0x5DA7 DUP4 CODECOPY DUP2 MLOAD SWAP2 MSTORE SWAP3 POP PUSH1 0x40 MLOAD SWAP1 DUP2 MSTORE PUSH1 0x0 DUP8 DUP3 ADD MSTORE PUSH1 0x0 DUP1 MLOAD PUSH1 0x20 PUSH2 0x5EA7 DUP4 CODECOPY DUP2 MLOAD SWAP2 MSTORE PUSH1 0x40 CALLER SWAP3 LOG2 CALLER DUP9 MSTORE PUSH1 0x10 DUP7 MSTORE PUSH1 0x40 DUP9 KECCAK256 SLOAD SWAP1 PUSH2 0x11E4 PUSH1 0x40 MLOAD SWAP3 DUP4 SWAP3 CALLER SWAP7 DUP5 PUSH2 0x3FC3 JUMP JUMPDEST SUB SWAP1 LOG2 DUP6 PUSH2 0xFAE JUMP JUMPDEST SWAP1 SWAP2 POP DUP7 PUSH1 0x40 MLOAD DUP1 SWAP5 PUSH4 0xA9059CBB PUSH1 0xE0 SHL DUP3 MSTORE DUP2 DUP13 DUP2 PUSH2 0x1211 DUP8 CALLER PUSH1 0x4 DUP5 ADD PUSH2 0x3DD4 JUMP JUMPDEST SUB SWAP3 GAS CALL SWAP3 DUP4 ISZERO PUSH2 0x1256 JUMPI PUSH1 0x0 DUP1 MLOAD PUSH1 0x20 PUSH2 0x5DA7 DUP4 CODECOPY DUP2 MLOAD SWAP2 MSTORE SWAP4 PUSH2 0x1239 JUMPI JUMPDEST POP SWAP1 DUP10 PUSH2 0x1194 JUMP JUMPDEST PUSH2 0x124F SWAP1 DUP9 RETURNDATASIZE DUP11 GT PUSH2 0x6F7 JUMPI PUSH2 0x6E8 DUP2 DUP4 PUSH2 0x3D7A JUMP JUMPDEST POP DUP10 PUSH2 0x1231 JUMP JUMPDEST PUSH1 0x40 MLOAD RETURNDATASIZE DUP12 DUP3 RETURNDATACOPY RETURNDATASIZE SWAP1 REVERT JUMPDEST POP DUP1 ISZERO ISZERO PUSH2 0x118F JUMP JUMPDEST DUP1 SWAP3 POP DUP11 DUP1 SWAP3 POP RETURNDATASIZE DUP4 GT PUSH2 0x1294 JUMPI JUMPDEST PUSH2 0x1283 DUP2 DUP4 PUSH2 0x3D7A JUMP JUMPDEST DUP2 ADD SUB SLT PUSH2 0xC9A JUMPI DUP2 SWAP1 MLOAD DUP13 PUSH2 0x1186 JUMP JUMPDEST POP RETURNDATASIZE PUSH2 0x1279 JUMP JUMPDEST PUSH1 0x40 MLOAD RETURNDATASIZE DUP14 DUP3 RETURNDATACOPY RETURNDATASIZE SWAP1 REVERT JUMPDEST PUSH4 0x4E487B71 PUSH1 0xE0 SHL DUP12 MSTORE PUSH1 0x11 PUSH1 0x4 MSTORE PUSH1 0x24 DUP12 REVERT JUMPDEST PUSH1 0x17 SLOAD PUSH8 0xDE0B6B3A7640000 SWAP1 DUP2 DUP2 MUL SWAP2 DUP2 DUP4 DIV EQ SWAP1 ISZERO OR ISZERO PUSH2 0x12E7 JUMPI SWAP1 PUSH2 0x12E1 SWAP2 PUSH2 0x3F2F JUMP JUMPDEST SWAP1 PUSH2 0x1138 JUMP JUMPDEST PUSH4 0x4E487B71 PUSH1 0xE0 SHL DUP13 MSTORE PUSH1 0x11 PUSH1 0x4 MSTORE PUSH1 0x24 DUP13 REVERT JUMPDEST POP PUSH9 0x3635C9ADC5DEA00000 PUSH1 0x17 SLOAD LT PUSH2 0x1127 JUMP JUMPDEST PUSH1 0x40 MLOAD PUSH4 0xA9059CBB PUSH1 0xE0 SHL DUP2 MSTORE SWAP2 SWAP6 POP DUP9 SWAP1 DUP3 SWAP1 DUP2 DUP14 DUP2 PUSH2 0x1334 DUP12 CALLER PUSH1 0x4 DUP5 ADD PUSH2 0x3DD4 JUMP JUMPDEST SUB SWAP3 GAS CALL DUP1 ISZERO PUSH2 0x1368 JUMPI PUSH2 0x134B JUMPI JUMPDEST POP DUP4 DUP11 PUSH2 0x111A JUMP JUMPDEST PUSH2 0x1361 SWAP1 DUP9 RETURNDATASIZE DUP11 GT PUSH2 0x6F7 JUMPI PUSH2 0x6E8 DUP2 DUP4 PUSH2 0x3D7A JUMP JUMPDEST POP DUP10 PUSH2 0x1343 JUMP JUMPDEST PUSH1 0x40 MLOAD RETURNDATASIZE DUP13 DUP3 RETURNDATACOPY RETURNDATASIZE SWAP1 REVERT JUMPDEST POP DUP2 ISZERO ISZERO PUSH2 0x1115 JUMP JUMPDEST DUP1 SWAP3 POP DUP12 DUP1 SWAP3 POP RETURNDATASIZE DUP4 GT PUSH2 0x13A6 JUMPI JUMPDEST PUSH2 0x1395 DUP2 DUP4 PUSH2 0x3D7A JUMP JUMPDEST DUP2 ADD SUB SLT PUSH2 0xC9A JUMPI DUP3 SWAP1 MLOAD DUP14 PUSH2 0x110C JUMP JUMPDEST POP RETURNDATASIZE PUSH2 0x138B JUMP JUMPDEST PUSH1 0x40 MLOAD RETURNDATASIZE DUP15 DUP3 RETURNDATACOPY RETURNDATASIZE SWAP1 REVERT JUMPDEST SWAP1 PUSH1 0x40 MLOAD SWAP1 DUP2 MSTORE DUP2 DUP6 DUP3 ADD MSTORE PUSH1 0x0 DUP1 MLOAD PUSH1 0x20 PUSH2 0x5E27 DUP4 CODECOPY DUP2 MLOAD SWAP2 MSTORE PUSH1 0x40 CALLER SWAP3 LOG2 DUP7 PUSH2 0x10A7 JUMP JUMPDEST PUSH2 0x13EA DUP6 PUSH1 0x17 SLOAD PUSH2 0x3F22 JUMP JUMPDEST PUSH1 0x17 SSTORE PUSH2 0xFA8 JUMP JUMPDEST PUSH1 0x40 MLOAD PUSH3 0x461BCD PUSH1 0xE5 SHL DUP2 MSTORE PUSH1 0x4 DUP2 ADD DUP6 SWAP1 MSTORE PUSH1 0x11 PUSH1 0x24 DUP3 ADD MSTORE PUSH17 0x4E6F7468696E6720746F2072656465656D PUSH1 0x78 SHL PUSH1 0x44 DUP3 ADD MSTORE PUSH1 0x64 SWAP1 REVERT JUMPDEST POP DUP1 ISZERO ISZERO PUSH2 0xF9D JUMP JUMPDEST POP CALLVALUE PUSH2 0x382 JUMPI DUP1 PUSH1 0x3 NOT CALLDATASIZE ADD SLT PUSH2 0x382 JUMPI PUSH1 0x20 PUSH1 0x7 SLOAD PUSH1 0x40 MLOAD SWAP1 DUP2 MSTORE RETURN JUMPDEST POP CALLVALUE PUSH2 0x382 JUMPI DUP1 PUSH1 0x3 NOT CALLDATASIZE ADD SLT PUSH2 0x382 JUMPI PUSH1 0x20 PUSH1 0x1F SLOAD PUSH1 0x40 MLOAD SWAP1 DUP2 MSTORE RETURN JUMPDEST POP CALLVALUE PUSH2 0x382 JUMPI PUSH1 0x40 CALLDATASIZE PUSH1 0x3 NOT ADD SLT PUSH2 0x382 JUMPI PUSH2 0x148A PUSH2 0x3CB5 JUMP JUMPDEST PUSH1 0x1 PUSH1 0x1 PUSH1 0xA0 SHL SUB AND DUP2 MSTORE PUSH1 0x11 PUSH1 0x20 MSTORE PUSH1 0x40 DUP2 KECCAK256 DUP1 SLOAD PUSH1 0x24 CALLDATALOAD SWAP3 SWAP1 DUP4 LT ISZERO PUSH2 0x382 JUMPI PUSH1 0xC0 PUSH2 0x14B8 DUP5 DUP5 PUSH2 0x3DEF JUMP JUMPDEST POP DUP1 SLOAD SWAP1 PUSH1 0x1 DUP2 ADD SLOAD SWAP1 PUSH1 0x2 DUP2 ADD SLOAD PUSH1 0x3 DUP3 ADD SLOAD SWAP1 PUSH1 0x5 PUSH1 0xFF PUSH1 0x4 DUP6 ADD SLOAD AND SWAP4 ADD SLOAD SWAP4 PUSH1 0x40 MLOAD SWAP6 DUP7 MSTORE PUSH1 0x20 DUP7 ADD MSTORE PUSH1 0x40 DUP6 ADD MSTORE PUSH1 0x60 DUP5 ADD MSTORE ISZERO ISZERO PUSH1 0x80 DUP4 ADD MSTORE PUSH1 0xA0 DUP3 ADD MSTORE RETURN JUMPDEST POP CALLVALUE PUSH2 0x382 JUMPI DUP1 PUSH1 0x3 NOT CALLDATASIZE ADD SLT PUSH2 0x382 JUMPI PUSH1 0x20 PUSH1 0xFF PUSH1 0x16 SLOAD AND PUSH1 0x40 MLOAD SWAP1 ISZERO ISZERO DUP2 MSTORE RETURN JUMPDEST POP CALLVALUE PUSH2 0x382 JUMPI DUP1 PUSH1 0x3 NOT CALLDATASIZE ADD SLT PUSH2 0x382 JUMPI PUSH1 0x40 DUP1 MLOAD SWAP1 DUP2 ADD PUSH1 0x1 PUSH1 0x1 PUSH1 0x40 SHL SUB DUP2 GT DUP3 DUP3 LT OR PUSH2 0x15B0 JUMPI PUSH1 0x40 MSTORE PUSH1 0x5 DUP2 MSTORE PUSH1 0x20 SWAP2 PUSH5 0x352E302E3 PUSH1 0xDC SHL PUSH1 0x20 DUP4 ADD MSTORE PUSH1 0x40 MLOAD SWAP3 DUP4 SWAP2 PUSH1 0x20 DUP4 MSTORE DUP4 MLOAD SWAP2 DUP3 PUSH1 0x20 DUP6 ADD MSTORE DUP2 JUMPDEST DUP4 DUP2 LT PUSH2 0x1599 JUMPI POP POP PUSH1 0x40 DUP1 SWAP5 POP DUP3 DUP5 ADD ADD MSTORE PUSH1 0x1F DUP1 NOT SWAP2 ADD AND DUP2 ADD SUB ADD SWAP1 RETURN JUMPDEST DUP1 DUP7 ADD DUP3 ADD MLOAD DUP8 DUP3 ADD PUSH1 0x40 ADD MSTORE DUP7 SWAP5 POP DUP2 ADD PUSH2 0x1578 JUMP JUMPDEST PUSH4 0x4E487B71 PUSH1 0xE0 SHL PUSH1 0x0 MSTORE PUSH1 0x41 PUSH1 0x4 MSTORE PUSH1 0x24 PUSH1 0x0 REVERT JUMPDEST POP CALLVALUE PUSH2 0x382 JUMPI PUSH2 0x15D5 CALLDATASIZE PUSH2 0x3D51 JUMP JUMPDEST SWAP1 DUP3 MSTORE PUSH1 0x1D PUSH1 0x20 MSTORE PUSH1 0x40 DUP3 KECCAK256 DUP1 SLOAD DUP3 LT ISZERO PUSH2 0x161A JUMPI PUSH2 0x15F4 SWAP3 POP PUSH2 0x3DB8 JUMP JUMPDEST POP DUP1 SLOAD PUSH1 0x1 SWAP1 SWAP2 ADD SLOAD PUSH1 0x40 MLOAD SWAP2 DUP3 SWAP2 PUSH2 0x1616 SWAP2 PUSH1 0x1 PUSH1 0x1 PUSH1 0xA0 SHL SUB AND DUP4 PUSH2 0x3DD4 JUMP JUMPDEST SUB SWAP1 RETURN JUMPDEST DUP3 DUP1 REVERT JUMPDEST POP CALLVALUE PUSH2 0x382 JUMPI PUSH1 0x40 CALLDATASIZE PUSH1 0x3 NOT ADD SLT PUSH2 0x382 JUMPI PUSH2 0x37F PUSH2 0x163B PUSH2 0x3CB5 JUMP JUMPDEST PUSH2 0x1643 PUSH2 0x3CCB JUMP JUMPDEST SWAP1 PUSH2 0x164C PUSH2 0x497F JUMP JUMPDEST PUSH2 0x459F JUMP JUMPDEST POP CALLVALUE PUSH2 0x382 JUMPI PUSH1 0x20 CALLDATASIZE PUSH1 0x3 NOT ADD SLT PUSH2 0x382 JUMPI PUSH32 0xD28D9E4CE68D89AF7920CB8618E342A78F51E545C530CE60F1CB1D6F0235B47F PUSH1 0x20 PUSH1 0x4 CALLDATALOAD PUSH2 0x1691 PUSH2 0x497F JUMP JUMPDEST DUP1 PUSH1 0x15 SSTORE PUSH1 0x40 MLOAD SWAP1 DUP2 MSTORE LOG1 DUP1 RETURN JUMPDEST POP CALLVALUE PUSH2 0x382 JUMPI PUSH2 0x16AE CALLDATASIZE PUSH2 0x3D51 JUMP JUMPDEST PUSH2 0x16B6 PUSH2 0x497F JUMP JUMPDEST DUP2 PUSH2 0x1770 JUMPI JUMPDEST DUP1 PUSH2 0x16E3 JUMPI JUMPDEST PUSH1 0x0 DUP1 MLOAD PUSH1 0x20 PUSH2 0x5D87 DUP4 CODECOPY DUP2 MLOAD SWAP2 MSTORE SWAP2 PUSH1 0x40 SWAP2 DUP3 MLOAD SWAP2 DUP3 MSTORE PUSH1 0x20 DUP3 ADD MSTORE LOG1 DUP1 RETURN JUMPDEST PUSH1 0x1 SLOAD PUSH1 0x40 MLOAD PUSH4 0x23B872DD PUSH1 0xE0 SHL DUP2 MSTORE SWAP3 SWAP1 PUSH1 0x20 SWAP1 DUP5 SWAP1 PUSH1 0x1 PUSH1 0x1 PUSH1 0xA0 SHL SUB AND DUP2 DUP8 DUP2 PUSH2 0x1715 DUP9 ADDRESS CALLER PUSH1 0x4 DUP6 ADD PUSH2 0x3ED7 JUMP JUMPDEST SUB SWAP3 GAS CALL SWAP2 DUP3 ISZERO PUSH2 0x6FE JUMPI PUSH1 0x0 DUP1 MLOAD PUSH1 0x20 PUSH2 0x5D87 DUP4 CODECOPY DUP2 MLOAD SWAP2 MSTORE SWAP4 PUSH1 0x40 SWAP4 PUSH2 0x1751 JUMPI JUMPDEST POP PUSH2 0x1745 DUP2 PUSH1 0x18 SLOAD PUSH2 0x3F22 JUMP JUMPDEST PUSH1 0x18 SSTORE SWAP2 POP SWAP2 POP PUSH2 0x16C2 JUMP JUMPDEST PUSH2 0x1769 SWAP1 PUSH1 0x20 RETURNDATASIZE PUSH1 0x20 GT PUSH2 0x6F7 JUMPI PUSH2 0x6E8 DUP2 DUP4 PUSH2 0x3D7A JUMP JUMPDEST POP CODESIZE PUSH2 0x1738 JUMP JUMPDEST DUP3 SLOAD PUSH1 0x40 MLOAD PUSH4 0x23B872DD PUSH1 0xE0 SHL DUP2 MSTORE SWAP1 PUSH1 0x20 SWAP1 DUP3 SWAP1 PUSH1 0x1 PUSH1 0x1 PUSH1 0xA0 SHL SUB AND DUP2 DUP8 DUP2 PUSH2 0x17A0 DUP10 ADDRESS CALLER PUSH1 0x4 DUP6 ADD PUSH2 0x3ED7 JUMP JUMPDEST SUB SWAP3 GAS CALL DUP1 ISZERO PUSH2 0x6FE JUMPI PUSH2 0x17C4 JUMPI JUMPDEST POP PUSH2 0x17BC DUP3 PUSH1 0x17 SLOAD PUSH2 0x3F22 JUMP JUMPDEST PUSH1 0x17 SSTORE PUSH2 0x16BC JUMP JUMPDEST PUSH2 0x17DC SWAP1 PUSH1 0x20 RETURNDATASIZE PUSH1 0x20 GT PUSH2 0x6F7 JUMPI PUSH2 0x6E8 DUP2 DUP4 PUSH2 0x3D7A JUMP JUMPDEST POP CODESIZE PUSH2 0x17AF JUMP JUMPDEST POP CALLVALUE PUSH2 0x382 JUMPI PUSH2 0x120 CALLDATASIZE PUSH1 0x3 NOT ADD SLT PUSH2 0x382 JUMPI PUSH2 0x17FE PUSH2 0x3CB5 JUMP JUMPDEST PUSH2 0x1806 PUSH2 0x3CA6 JUMP JUMPDEST PUSH1 0x64 CALLDATALOAD SWAP2 PUSH1 0x44 CALLDATALOAD DUP4 ISZERO ISZERO DUP5 SUB PUSH2 0xC9A JUMPI PUSH1 0xA4 CALLDATALOAD PUSH1 0x84 CALLDATALOAD DUP2 ISZERO ISZERO DUP3 SUB PUSH2 0xC9A JUMPI PUSH1 0xC4 CALLDATALOAD SWAP1 PUSH1 0xE4 CALLDATALOAD SWAP5 DUP6 ISZERO ISZERO DUP7 SUB PUSH2 0xC9A JUMPI PUSH32 0x8FB1F6E3F39354FC80C1DEFC040C6D354638B0C8E5F9C63CD0292EF9842197E9 SWAP7 PUSH1 0x80 SWAP7 PUSH2 0x104 CALLDATALOAD SWAP6 DUP7 SWAP4 PUSH2 0x186A PUSH2 0x497F JUMP JUMPDEST PUSH1 0x1 PUSH1 0x1 PUSH1 0xA0 SHL SUB AND SWAP11 PUSH2 0x187F DUP13 ISZERO ISZERO PUSH2 0x4569 JUMP JUMPDEST DUP12 DUP14 MSTORE PUSH1 0xF PUSH1 0x20 MSTORE PUSH1 0x40 DUP14 KECCAK256 SWAP4 PUSH2 0x18DC JUMPI JUMPDEST PUSH2 0x18D1 JUMPI JUMPDEST PUSH2 0x18C6 JUMPI JUMPDEST PUSH2 0x18BB JUMPI JUMPDEST POP POP PUSH1 0x40 MLOAD SWAP4 DUP5 MSTORE PUSH1 0x20 DUP5 ADD MSTORE PUSH1 0x40 DUP4 ADD MSTORE PUSH1 0x60 DUP3 ADD MSTORE LOG2 DUP1 RETURN JUMPDEST PUSH1 0x6 ADD SSTORE DUP3 CODESIZE PUSH2 0x18A0 JUMP JUMPDEST DUP5 PUSH1 0x4 DUP4 ADD SSTORE PUSH2 0x189B JUMP JUMPDEST DUP5 PUSH1 0x3 DUP5 ADD SSTORE PUSH2 0x1896 JUMP JUMPDEST DUP9 PUSH1 0x1 DUP6 ADD SSTORE PUSH2 0x1891 JUMP JUMPDEST POP CALLVALUE PUSH2 0x382 JUMPI PUSH1 0x40 CALLDATASIZE PUSH1 0x3 NOT ADD SLT PUSH2 0x382 JUMPI PUSH2 0x1901 PUSH2 0x3CB5 JUMP JUMPDEST PUSH1 0x24 CALLDATALOAD SWAP1 PUSH2 0x190D PUSH2 0x497F JUMP JUMPDEST PUSH2 0x1919 DUP3 PUSH1 0x1F SLOAD PUSH2 0x3F4F JUMP JUMPDEST PUSH1 0x1F SSTORE DUP3 SLOAD PUSH1 0x40 MLOAD PUSH4 0xA9059CBB PUSH1 0xE0 SHL DUP2 MSTORE SWAP2 SWAP1 PUSH1 0x1 PUSH1 0x1 PUSH1 0xA0 SHL SUB SWAP1 PUSH1 0x20 SWAP1 DUP5 SWAP1 DUP4 AND DUP2 DUP9 DUP2 PUSH2 0x194E DUP11 DUP10 PUSH1 0x4 DUP5 ADD PUSH2 0x3DD4 JUMP JUMPDEST SUB SWAP3 GAS CALL SWAP2 DUP3 ISZERO PUSH2 0x77C JUMPI PUSH32 0x27971EE1ACBFBDFB20656657CEB2E0E7B519B9E60FE1A6B1F6D27B159F4A607C SWAP4 PUSH1 0x20 SWAP4 PUSH2 0x1990 JUMPI JUMPDEST POP PUSH1 0x40 MLOAD SWAP5 DUP6 MSTORE AND SWAP3 LOG2 DUP1 RETURN JUMPDEST PUSH2 0x19A6 SWAP1 DUP5 RETURNDATASIZE DUP7 GT PUSH2 0x6F7 JUMPI PUSH2 0x6E8 DUP2 DUP4 PUSH2 0x3D7A JUMP JUMPDEST POP CODESIZE PUSH2 0x1983 JUMP JUMPDEST POP CALLVALUE PUSH2 0x382 JUMPI DUP1 PUSH1 0x3 NOT CALLDATASIZE ADD SLT PUSH2 0x382 JUMPI SLOAD PUSH1 0x40 MLOAD PUSH1 0x1 PUSH1 0x1 PUSH1 0xA0 SHL SUB SWAP1 SWAP2 AND DUP2 MSTORE PUSH1 0x20 SWAP1 RETURN JUMPDEST POP CALLVALUE PUSH2 0x382 JUMPI DUP1 PUSH1 0x3 NOT CALLDATASIZE ADD SLT PUSH2 0x382 JUMPI PUSH1 0x20 PUSH1 0xE SLOAD PUSH1 0x40 MLOAD SWAP1 DUP2 MSTORE RETURN JUMPDEST POP CALLVALUE PUSH2 0x382 JUMPI PUSH32 0x4E9DD03193A0C81552FB8E6D32280F0D7E0CE8087241DC3D17EF3D193EE231D7 PUSH1 0x40 PUSH2 0x1A24 CALLDATASIZE PUSH2 0x3D51 JUMP JUMPDEST PUSH2 0x1A2C PUSH2 0x497F JUMP JUMPDEST DUP2 PUSH1 0xD SSTORE DUP1 PUSH1 0xE SSTORE DUP3 MLOAD SWAP2 DUP3 MSTORE PUSH1 0x20 DUP3 ADD MSTORE LOG1 DUP1 RETURN JUMPDEST POP CALLVALUE PUSH2 0x382 JUMPI DUP1 PUSH1 0x3 NOT CALLDATASIZE ADD SLT PUSH2 0x382 JUMPI PUSH1 0x0 DUP1 MLOAD PUSH1 0x20 PUSH2 0x5DC7 DUP4 CODECOPY DUP2 MLOAD SWAP2 MSTORE SLOAD PUSH1 0x40 MLOAD PUSH1 0x1 PUSH1 0x1 PUSH1 0xA0 SHL SUB SWAP1 SWAP2 AND DUP2 MSTORE PUSH1 0x20 SWAP1 RETURN JUMPDEST POP CALLVALUE PUSH2 0x382 JUMPI DUP1 PUSH1 0x3 NOT CALLDATASIZE ADD SLT PUSH2 0x382 JUMPI PUSH1 0x20 PUSH1 0x40 MLOAD PUSH1 0x3 DUP2 MSTORE RETURN JUMPDEST POP CALLVALUE PUSH2 0x382 JUMPI DUP1 PUSH1 0x3 NOT CALLDATASIZE ADD SLT PUSH2 0x382 JUMPI PUSH1 0x20 PUSH1 0x40 MLOAD PUSH1 0x1 DUP2 MSTORE RETURN JUMPDEST POP CALLVALUE PUSH2 0x382 JUMPI DUP1 PUSH1 0x3 NOT CALLDATASIZE ADD SLT PUSH2 0x382 JUMPI PUSH1 0x4 SLOAD PUSH1 0x40 MLOAD PUSH1 0x1 PUSH1 0x1 PUSH1 0xA0 SHL SUB SWAP1 SWAP2 AND DUP2 MSTORE PUSH1 0x20 SWAP1 RETURN JUMPDEST POP CALLVALUE PUSH2 0x382 JUMPI DUP1 PUSH1 0x3 NOT CALLDATASIZE ADD SLT PUSH2 0x382 JUMPI PUSH1 0x20 PUSH1 0x40 MLOAD PUSH1 0x4 DUP2 MSTORE RETURN JUMPDEST POP CALLVALUE PUSH2 0x382 JUMPI PUSH1 0x20 CALLDATASIZE PUSH1 0x3 NOT ADD SLT PUSH2 0x382 JUMPI PUSH1 0x80 SWAP1 PUSH1 0x40 SWAP1 PUSH1 0x1 PUSH1 0x1 PUSH1 0xA0 SHL SUB PUSH2 0x1B1D PUSH2 0x3CB5 JUMP JUMPDEST AND DUP2 MSTORE PUSH1 0x10 PUSH1 0x20 MSTORE KECCAK256 DUP1 SLOAD SWAP1 PUSH1 0x1 DUP2 ADD SLOAD SWAP1 PUSH1 0xFF PUSH1 0x3 PUSH1 0x2 DUP4 ADD SLOAD SWAP3 ADD SLOAD AND SWAP2 PUSH1 0x40 MLOAD SWAP4 DUP5 MSTORE PUSH1 0x20 DUP5 ADD MSTORE PUSH1 0x40 DUP4 ADD MSTORE ISZERO ISZERO PUSH1 0x60 DUP3 ADD MSTORE RETURN JUMPDEST POP CALLVALUE PUSH2 0x382 JUMPI PUSH1 0x80 CALLDATASIZE PUSH1 0x3 NOT ADD SLT PUSH2 0x382 JUMPI PUSH2 0x1B70 PUSH2 0x3CB5 JUMP JUMPDEST PUSH2 0x1B78 PUSH2 0x3CCB JUMP JUMPDEST SWAP1 PUSH2 0x1B81 PUSH2 0x3CE1 JUMP JUMPDEST SWAP2 PUSH2 0x1B8A PUSH2 0x3CF7 JUMP JUMPDEST SWAP1 PUSH2 0x1B93 PUSH2 0x497F JUMP JUMPDEST PUSH1 0x1 PUSH1 0x1 PUSH1 0xA0 SHL SUB SWAP3 DUP4 AND SWAP2 DUP3 ISZERO ISZERO DUP1 PUSH2 0x1C7C JUMPI JUMPDEST DUP1 PUSH2 0x1C71 JUMPI JUMPDEST DUP1 PUSH2 0x1C66 JUMPI JUMPDEST ISZERO PUSH2 0x1C2F JUMPI PUSH32 0x213F1DE8063C19612A553F1480FF341BEA689D36A56A2089F1B9060D599B5D83 SWAP5 DUP5 DUP1 PUSH1 0x80 SWAP7 PUSH1 0x1 DUP1 PUSH1 0xA0 SHL SUB NOT SWAP6 DUP8 DUP8 PUSH1 0x2 SLOAD AND OR PUSH1 0x2 SSTORE AND SWAP3 DUP4 DUP7 PUSH1 0x3 SLOAD AND OR PUSH1 0x3 SSTORE AND SWAP3 DUP4 DUP6 PUSH1 0x4 SLOAD AND OR PUSH1 0x4 SSTORE AND DUP1 SWAP4 PUSH1 0x5 SLOAD AND OR PUSH1 0x5 SSTORE PUSH1 0x40 MLOAD SWAP4 DUP5 MSTORE PUSH1 0x20 DUP5 ADD MSTORE PUSH1 0x40 DUP4 ADD MSTORE PUSH1 0x60 DUP3 ADD MSTORE LOG1 DUP1 RETURN JUMPDEST PUSH1 0x40 MLOAD PUSH3 0x461BCD PUSH1 0xE5 SHL DUP2 MSTORE PUSH1 0x20 PUSH1 0x4 DUP3 ADD MSTORE PUSH1 0xF PUSH1 0x24 DUP3 ADD MSTORE PUSH15 0x496E76616C69642061646472657373 PUSH1 0x88 SHL PUSH1 0x44 DUP3 ADD MSTORE PUSH1 0x64 SWAP1 REVERT JUMPDEST POP DUP4 DUP2 AND ISZERO ISZERO PUSH2 0x1BB4 JUMP JUMPDEST POP DUP4 DUP6 AND ISZERO ISZERO PUSH2 0x1BAE JUMP JUMPDEST POP DUP4 DUP3 AND ISZERO ISZERO PUSH2 0x1BA8 JUMP JUMPDEST POP CALLVALUE PUSH2 0x382 JUMPI PUSH2 0x1C96 CALLDATASIZE PUSH2 0x3D51 JUMP JUMPDEST SWAP1 DUP3 MSTORE PUSH1 0x13 PUSH1 0x20 MSTORE PUSH1 0x40 DUP3 KECCAK256 DUP1 SLOAD DUP3 LT ISZERO PUSH2 0x161A JUMPI PUSH2 0x15F4 SWAP3 POP PUSH2 0x3DB8 JUMP JUMPDEST POP CALLVALUE PUSH2 0x382 JUMPI DUP1 PUSH1 0x3 NOT CALLDATASIZE ADD SLT PUSH2 0x382 JUMPI PUSH1 0x20 PUSH1 0x17 SLOAD PUSH1 0x40 MLOAD SWAP1 DUP2 MSTORE RETURN JUMPDEST POP CALLVALUE PUSH2 0x382 JUMPI DUP1 PUSH1 0x3 NOT CALLDATASIZE ADD SLT PUSH2 0x382 JUMPI PUSH1 0x2 SLOAD PUSH1 0x40 MLOAD PUSH1 0x1 PUSH1 0x1 PUSH1 0xA0 SHL SUB SWAP1 SWAP2 AND DUP2 MSTORE PUSH1 0x20 SWAP1 RETURN JUMPDEST POP CALLVALUE PUSH2 0x382 JUMPI DUP1 PUSH1 0x3 NOT CALLDATASIZE ADD SLT PUSH2 0x382 JUMPI PUSH1 0x20 PUSH1 0x1A SLOAD PUSH1 0x40 MLOAD SWAP1 DUP2 MSTORE RETURN JUMPDEST POP CALLVALUE PUSH2 0x382 JUMPI DUP1 PUSH1 0x3 NOT CALLDATASIZE ADD SLT PUSH2 0x382 JUMPI PUSH2 0x1D33 PUSH2 0x497F JUMP JUMPDEST PUSH1 0x0 DUP1 MLOAD PUSH1 0x20 PUSH2 0x5DC7 DUP4 CODECOPY DUP2 MLOAD SWAP2 MSTORE DUP1 SLOAD PUSH1 0x1 PUSH1 0x1 PUSH1 0xA0 SHL SUB NOT DUP2 AND SWAP1 SWAP2 SSTORE PUSH1 0x0 SWAP1 PUSH1 0x1 PUSH1 0x1 PUSH1 0xA0 SHL SUB AND PUSH1 0x0 DUP1 MLOAD PUSH1 0x20 PUSH2 0x5E67 DUP4 CODECOPY DUP2 MLOAD SWAP2 MSTORE DUP3 DUP1 LOG3 DUP1 RETURN JUMPDEST POP CALLVALUE PUSH2 0x382 JUMPI DUP1 PUSH1 0x3 NOT CALLDATASIZE ADD SLT PUSH2 0x382 JUMPI PUSH1 0x20 PUSH1 0x15 SLOAD PUSH1 0x40 MLOAD SWAP1 DUP2 MSTORE RETURN JUMPDEST POP CALLVALUE PUSH2 0x382 JUMPI DUP1 PUSH1 0x3 NOT CALLDATASIZE ADD SLT PUSH2 0x382 JUMPI PUSH1 0x20 PUSH1 0x40 MLOAD PUSH2 0x3E8 DUP2 MSTORE RETURN JUMPDEST POP CALLVALUE PUSH2 0x382 JUMPI PUSH1 0x20 CALLDATASIZE PUSH1 0x3 NOT ADD SLT PUSH2 0x382 JUMPI PUSH2 0x1DC8 PUSH2 0x49B8 JUMP JUMPDEST PUSH2 0x1DD7 PUSH1 0xFF PUSH1 0x4F SLOAD AND ISZERO PUSH2 0x3E7E JUMP JUMPDEST PUSH2 0x1DE0 CALLER PUSH2 0x539A JUMP JUMPDEST PUSH9 0x56BC75E2D63100000 PUSH1 0x4 CALLDATALOAD EQ ISZERO DUP1 PUSH2 0x25CE JUMPI JUMPDEST DUP1 PUSH2 0x25B9 JUMPI JUMPDEST DUP1 PUSH2 0x25A4 JUMPI JUMPDEST PUSH2 0x2592 JUMPI DUP1 SLOAD PUSH1 0x40 MLOAD PUSH4 0x23B872DD PUSH1 0xE0 SHL DUP2 MSTORE SWAP1 PUSH1 0x20 SWAP1 DUP3 SWAP1 PUSH1 0x1 PUSH1 0x1 PUSH1 0xA0 SHL SUB AND DUP2 DUP6 DUP2 PUSH2 0x1E39 PUSH1 0x4 DUP1 CALLDATALOAD SWAP1 ADDRESS SWAP1 CALLER SWAP1 DUP6 ADD PUSH2 0x3ED7 JUMP JUMPDEST SUB SWAP3 GAS CALL DUP1 ISZERO PUSH2 0x2587 JUMPI PUSH2 0x2568 JUMPI JUMPDEST POP CALLER DUP2 MSTORE PUSH1 0x10 PUSH1 0x20 MSTORE PUSH1 0x40 DUP2 KECCAK256 PUSH1 0x3 DUP2 ADD DUP1 SLOAD PUSH1 0xFF AND ISZERO PUSH2 0x248D JUMPI PUSH2 0x1E6E PUSH1 0x19 SLOAD PUSH2 0x455A JUMP JUMPDEST DUP1 PUSH1 0x19 SSTORE DUP3 SSTORE PUSH1 0x4 CALLDATALOAD PUSH1 0x1 DUP4 ADD SSTORE TIMESTAMP PUSH1 0x2 DUP4 ADD SSTORE PUSH1 0xFF NOT DUP2 SLOAD AND SWAP1 SSTORE CALLER DUP3 MSTORE PUSH1 0xF PUSH1 0x20 MSTORE DUP2 PUSH1 0x3 PUSH1 0x40 DUP3 KECCAK256 ADD SSTORE PUSH1 0x3 PUSH1 0x4 CALLDATALOAD MUL PUSH1 0x4 CALLDATALOAD DUP2 DIV PUSH1 0x3 EQ PUSH1 0x4 CALLDATALOAD ISZERO OR ISZERO PUSH2 0x2479 JUMPI CALLER DUP4 MSTORE PUSH1 0xF PUSH1 0x20 MSTORE PUSH1 0x4 PUSH1 0x40 DUP5 KECCAK256 ADD SSTORE JUMPDEST PUSH1 0xA PUSH1 0x1 DUP3 ADD SLOAD CALLER DUP5 MSTORE PUSH1 0xF PUSH1 0x20 MSTORE PUSH1 0x40 DUP5 KECCAK256 SWAP1 PUSH1 0x9 DUP3 ADD DUP1 SLOAD DUP3 GT PUSH2 0x2471 JUMPI JUMPDEST POP POP ADD DUP1 SLOAD PUSH1 0x4 CALLDATALOAD GT PUSH2 0x2466 JUMPI JUMPDEST POP DUP1 SLOAD DUP3 MSTORE PUSH1 0x1C PUSH1 0x20 SWAP1 DUP2 MSTORE PUSH1 0x40 DUP1 DUP5 KECCAK256 DUP1 SLOAD PUSH1 0x1 PUSH1 0x1 PUSH1 0xA0 SHL SUB NOT AND CALLER SWAP1 DUP2 OR SWAP1 SWAP2 SSTORE DUP5 MSTORE PUSH1 0xF SWAP1 SWAP2 MSTORE DUP3 KECCAK256 SLOAD PUSH1 0x1 PUSH1 0x1 PUSH1 0xA0 SHL SUB AND DUP1 ISZERO ISZERO DUP1 PUSH2 0x2452 JUMPI JUMPDEST ISZERO PUSH2 0x23C6 JUMPI PUSH2 0x1F52 PUSH1 0x64 PUSH2 0x1F4B PUSH1 0x6 SLOAD PUSH1 0x4 CALLDATALOAD PUSH2 0x3EF9 JUMP JUMPDEST DIV DUP3 PUSH2 0x5566 JUMP JUMPDEST SWAP1 DUP2 PUSH2 0x2397 JUMPI JUMPDEST POP POP JUMPDEST CALLER DUP3 MSTORE PUSH1 0xF PUSH1 0x20 MSTORE PUSH1 0x40 DUP3 KECCAK256 SLOAD DUP3 SWAP2 DUP3 SWAP2 PUSH1 0x1 PUSH1 0x1 PUSH1 0xA0 SHL SUB AND SWAP1 DUP3 SWAP1 PUSH1 0x4 CALLDATALOAD DUP1 ISZERO SWAP1 DUP1 DIV PUSH1 0x1 EQ OR ISZERO PUSH2 0x2383 JUMPI SWAP4 SWAP5 SWAP2 JUMPDEST PUSH1 0x1 PUSH1 0x1 PUSH1 0xA0 SHL SUB DUP2 AND DUP1 ISZERO ISZERO DUP1 PUSH2 0x2379 JUMPI JUMPDEST DUP1 PUSH2 0x236F JUMPI JUMPDEST ISZERO PUSH2 0x20AE JUMPI DUP5 MSTORE PUSH1 0xF PUSH1 0x20 MSTORE PUSH1 0x40 DUP5 KECCAK256 PUSH1 0xFF PUSH1 0x5 DUP3 ADD SLOAD AND ISZERO PUSH2 0x208F JUMPI POP PUSH1 0x1 PUSH1 0x1 PUSH1 0xA0 SHL SUB DUP2 AND DUP5 MSTORE PUSH1 0xF PUSH1 0x20 MSTORE PUSH1 0x40 DUP5 KECCAK256 PUSH1 0x1 ADD SLOAD DUP4 SWAP1 PUSH2 0x1FE9 SWAP1 PUSH2 0x3F93 JUMP JUMPDEST GT PUSH2 0x2025 JUMPI JUMPDEST PUSH1 0x1 PUSH1 0x1 PUSH1 0xA0 SHL SUB SWAP1 DUP2 AND DUP5 MSTORE PUSH1 0xF PUSH1 0x20 MSTORE PUSH1 0x40 DUP5 KECCAK256 SLOAD AND SWAP2 PUSH2 0x201B SWAP1 PUSH2 0x2015 SWAP1 PUSH2 0x455A JUMP JUMPDEST SWAP6 PUSH2 0x455A JUMP JUMPDEST SWAP4 JUMPDEST SWAP4 SWAP5 SWAP2 PUSH2 0x1F8E JUMP JUMPDEST PUSH2 0x2034 PUSH1 0x64 PUSH1 0x4 CALLDATALOAD DIV DUP3 PUSH2 0x576A JUMP JUMPDEST DUP1 PUSH2 0x2040 JUMPI JUMPDEST POP PUSH2 0x1FEF JUMP JUMPDEST SWAP2 DUP3 PUSH2 0x204B SWAP2 PUSH2 0x3F22 JUMP JUMPDEST SWAP2 CALLER DUP6 MSTORE PUSH1 0x10 PUSH1 0x20 MSTORE PUSH1 0x40 DUP6 KECCAK256 SLOAD PUSH1 0x40 MLOAD SWAP2 DUP3 MSTORE PUSH1 0x3 PUSH1 0x20 DUP4 ADD MSTORE PUSH1 0x40 DUP3 ADD MSTORE CALLER SWAP1 PUSH1 0x0 DUP1 MLOAD PUSH1 0x20 PUSH2 0x5D67 DUP4 CODECOPY DUP2 MLOAD SWAP2 MSTORE PUSH1 0x60 PUSH1 0x1 DUP1 PUSH1 0xA0 SHL SUB DUP6 AND SWAP3 LOG3 CODESIZE PUSH2 0x203A JUMP JUMPDEST SLOAD SWAP3 SWAP6 PUSH1 0x1 PUSH1 0x1 PUSH1 0xA0 SHL SUB SWAP1 SWAP4 AND SWAP3 PUSH2 0x20A8 SWAP2 POP PUSH2 0x455A JUMP JUMPDEST SWAP4 PUSH2 0x201D JUMP JUMPDEST DUP5 DUP7 DUP5 PUSH2 0x20CD PUSH1 0x7 SWAP2 PUSH1 0x64 PUSH2 0x20C7 PUSH1 0x7 SLOAD PUSH1 0x4 CALLDATALOAD PUSH2 0x3EF9 JUMP JUMPDEST DIV PUSH2 0x3F4F JUMP JUMPDEST DUP1 PUSH2 0x232A JUMPI JUMPDEST POP DUP3 PUSH1 0x1 DUP1 PUSH1 0xA0 SHL SUB DUP2 SLOAD AND PUSH1 0x20 PUSH2 0x211F PUSH1 0x1 DUP1 PUSH1 0xA0 SHL SUB PUSH1 0x2 SLOAD AND SWAP3 PUSH1 0x64 PUSH2 0x2100 PUSH1 0x8 SLOAD PUSH1 0x4 CALLDATALOAD PUSH2 0x3EF9 JUMP JUMPDEST DIV PUSH1 0x40 MLOAD SWAP6 DUP7 DUP1 SWAP5 DUP2 SWAP4 PUSH4 0xA9059CBB PUSH1 0xE0 SHL SWAP9 DUP10 DUP5 MSTORE PUSH1 0x4 DUP5 ADD PUSH2 0x3DD4 JUMP JUMPDEST SUB SWAP3 GAS CALL SWAP2 DUP3 ISZERO PUSH2 0x77C JUMPI PUSH2 0x218D SWAP3 PUSH2 0x230B JUMPI JUMPDEST POP PUSH2 0x214D PUSH1 0x64 PUSH2 0x2147 PUSH1 0x9 SLOAD PUSH1 0x4 CALLDATALOAD PUSH2 0x3EF9 JUMP JUMPDEST DIV PUSH2 0x5A90 JUMP JUMPDEST DUP5 SLOAD PUSH1 0x4 DUP1 SLOAD PUSH1 0xA SLOAD PUSH1 0x20 SWAP4 PUSH1 0x1 PUSH1 0x1 PUSH1 0xA0 SHL SUB SWAP3 DUP4 AND SWAP4 SWAP3 AND SWAP2 PUSH1 0x64 SWAP2 PUSH2 0x2175 SWAP2 CALLDATALOAD PUSH2 0x3EF9 JUMP JUMPDEST DIV SWAP2 DUP9 PUSH1 0x40 MLOAD DUP1 SWAP8 DUP2 SWAP6 DUP3 SWAP5 DUP10 DUP5 MSTORE PUSH1 0x4 DUP5 ADD PUSH2 0x3DD4 JUMP JUMPDEST SUB SWAP3 GAS CALL SWAP1 DUP2 ISZERO PUSH2 0x77C JUMPI PUSH2 0x21E2 SWAP3 PUSH1 0x20 SWAP3 PUSH2 0x22EE JUMPI JUMPDEST POP PUSH1 0x1 DUP1 PUSH1 0xA0 SHL SUB DUP7 SLOAD AND PUSH1 0x1 DUP1 PUSH1 0xA0 SHL SUB PUSH1 0x3 SLOAD AND DUP8 PUSH1 0x64 PUSH2 0x21CB PUSH1 0xB SLOAD PUSH1 0x4 CALLDATALOAD PUSH2 0x3EF9 JUMP JUMPDEST DIV SWAP4 PUSH1 0x40 MLOAD SWAP7 DUP8 SWAP6 DUP7 SWAP5 DUP6 SWAP4 DUP5 MSTORE PUSH1 0x4 DUP5 ADD PUSH2 0x3DD4 JUMP JUMPDEST SUB SWAP3 GAS CALL DUP1 ISZERO PUSH2 0x6FE JUMPI PUSH2 0x22CF JUMPI JUMPDEST POP CALLER PUSH1 0x0 SWAP1 DUP2 MSTORE PUSH1 0xF PUSH1 0x20 MSTORE PUSH1 0x40 DUP2 KECCAK256 SLOAD SWAP1 SWAP3 PUSH1 0x4 CALLDATALOAD ISZERO ISZERO SWAP3 SWAP2 PUSH1 0x1 PUSH1 0x1 PUSH1 0xA0 SHL SUB AND JUMPDEST PUSH1 0x1 PUSH1 0x1 PUSH1 0xA0 SHL SUB AND DUP1 ISZERO ISZERO DUP1 PUSH2 0x22C5 JUMPI JUMPDEST ISZERO PUSH2 0x2270 JUMPI PUSH1 0x0 MSTORE PUSH1 0xF PUSH1 0x20 MSTORE PUSH2 0x2253 DUP4 PUSH1 0x40 PUSH1 0x0 KECCAK256 SWAP1 PUSH2 0x2259 JUMPI JUMPDEST SLOAD PUSH1 0x1 PUSH1 0x1 PUSH1 0xA0 SHL SUB AND SWAP5 PUSH2 0x455A JUMP JUMPDEST SWAP4 PUSH2 0x2215 JUMP JUMPDEST DUP4 DUP2 ADD PUSH2 0x2269 PUSH1 0x4 CALLDATALOAD DUP3 SLOAD PUSH2 0x3F22 JUMP JUMPDEST SWAP1 SSTORE PUSH2 0x2243 JUMP JUMPDEST DUP6 DUP3 PUSH2 0x227B CALLER PUSH2 0x4EDB JUMP JUMPDEST SLOAD PUSH1 0x40 MLOAD SWAP1 PUSH1 0x4 CALLDATALOAD DUP3 MSTORE PUSH1 0x20 DUP3 ADD MSTORE PUSH32 0x2A91574E12AD96234E84923E146B0946ECFB871CD8D5534DC1FDCBE87A7C01B3 PUSH1 0x40 CALLER SWAP3 LOG2 PUSH1 0x1 PUSH1 0x0 DUP1 MLOAD PUSH1 0x20 PUSH2 0x5EC7 DUP4 CODECOPY DUP2 MLOAD SWAP2 MSTORE SSTORE DUP1 RETURN JUMPDEST POP PUSH1 0x1E DUP6 LT PUSH2 0x2227 JUMP JUMPDEST PUSH2 0x22E7 SWAP1 PUSH1 0x20 RETURNDATASIZE PUSH1 0x20 GT PUSH2 0x6F7 JUMPI PUSH2 0x6E8 DUP2 DUP4 PUSH2 0x3D7A JUMP JUMPDEST POP DUP4 PUSH2 0x21F1 JUMP JUMPDEST PUSH2 0x2304 SWAP1 DUP4 RETURNDATASIZE DUP6 GT PUSH2 0x6F7 JUMPI PUSH2 0x6E8 DUP2 DUP4 PUSH2 0x3D7A JUMP JUMPDEST POP DUP7 PUSH2 0x21A4 JUMP JUMPDEST PUSH2 0x2323 SWAP1 PUSH1 0x20 RETURNDATASIZE PUSH1 0x20 GT PUSH2 0x6F7 JUMPI PUSH2 0x6E8 DUP2 DUP4 PUSH2 0x3D7A JUMP JUMPDEST POP DUP6 PUSH2 0x2133 JUMP JUMPDEST PUSH1 0x40 DUP2 PUSH2 0x235A PUSH32 0xCA2E2BFF26D2ADB9FE155E9265350494C16751676879CB7CED9141E0FCF39343 SWAP4 PUSH1 0x1F SLOAD PUSH2 0x3F22 JUMP JUMPDEST DUP1 PUSH1 0x1F SSTORE DUP3 MLOAD SWAP2 DUP3 MSTORE PUSH1 0x20 DUP3 ADD MSTORE LOG1 DUP4 PUSH2 0x20D3 JUMP JUMPDEST POP PUSH1 0x14 DUP8 LT PUSH2 0x1FA7 JUMP JUMPDEST POP PUSH1 0xF DUP5 LT PUSH2 0x1FA1 JUMP JUMPDEST PUSH4 0x4E487B71 PUSH1 0xE0 SHL DUP5 MSTORE PUSH1 0x11 PUSH1 0x4 MSTORE PUSH1 0x24 DUP5 REVERT JUMPDEST DUP3 SLOAD PUSH1 0x40 MLOAD SWAP3 DUP4 MSTORE PUSH1 0x2 PUSH1 0x20 DUP5 ADD MSTORE PUSH1 0x40 DUP4 ADD MSTORE PUSH1 0x0 DUP1 MLOAD PUSH1 0x20 PUSH2 0x5D67 DUP4 CODECOPY DUP2 MLOAD SWAP2 MSTORE PUSH1 0x60 CALLER SWAP4 LOG3 CODESIZE DUP1 PUSH2 0x1F59 JUMP JUMPDEST POP DUP2 SLOAD PUSH1 0x2 SLOAD PUSH1 0x6 SLOAD PUSH2 0x2413 SWAP3 PUSH1 0x20 SWAP3 PUSH1 0x1 PUSH1 0x1 PUSH1 0xA0 SHL SUB SWAP1 DUP2 AND SWAP3 SWAP2 AND SWAP1 PUSH1 0x64 SWAP1 PUSH2 0x23F4 SWAP1 PUSH1 0x4 CALLDATALOAD PUSH2 0x3EF9 JUMP JUMPDEST DIV SWAP2 DUP7 PUSH1 0x40 MLOAD DUP1 SWAP7 DUP2 SWAP6 DUP3 SWAP5 PUSH4 0xA9059CBB PUSH1 0xE0 SHL DUP5 MSTORE PUSH1 0x4 DUP5 ADD PUSH2 0x3DD4 JUMP JUMPDEST SUB SWAP3 GAS CALL DUP1 ISZERO PUSH2 0x2447 JUMPI PUSH2 0x2428 JUMPI JUMPDEST POP PUSH2 0x1F5C JUMP JUMPDEST PUSH2 0x2440 SWAP1 PUSH1 0x20 RETURNDATASIZE PUSH1 0x20 GT PUSH2 0x6F7 JUMPI PUSH2 0x6E8 DUP2 DUP4 PUSH2 0x3D7A JUMP JUMPDEST POP CODESIZE PUSH2 0x2422 JUMP JUMPDEST PUSH1 0x40 MLOAD RETURNDATASIZE DUP6 DUP3 RETURNDATACOPY RETURNDATASIZE SWAP1 REVERT JUMPDEST POP DUP1 DUP4 MSTORE PUSH1 0xFF PUSH1 0x5 PUSH1 0x40 DUP6 KECCAK256 ADD SLOAD AND PUSH2 0x1F33 JUMP JUMPDEST PUSH1 0x4 CALLDATALOAD SWAP1 SSTORE CODESIZE PUSH2 0x1EF3 JUMP JUMPDEST SSTORE CODESIZE DUP1 PUSH2 0x1EE5 JUMP JUMPDEST PUSH4 0x4E487B71 PUSH1 0xE0 SHL DUP4 MSTORE PUSH1 0x11 PUSH1 0x4 MSTORE PUSH1 0x24 DUP4 REVERT JUMPDEST PUSH1 0x1 DUP3 ADD DUP1 SLOAD DUP1 PUSH2 0x24FB JUMPI POP PUSH2 0x24A4 PUSH1 0x19 SLOAD PUSH2 0x455A JUMP JUMPDEST DUP1 PUSH1 0x19 SSTORE DUP4 SSTORE PUSH1 0x4 CALLDATALOAD SWAP1 SSTORE TIMESTAMP PUSH1 0x2 DUP4 ADD SSTORE PUSH1 0xFF NOT DUP2 SLOAD AND SWAP1 SSTORE CALLER DUP3 MSTORE PUSH1 0xF PUSH1 0x20 MSTORE DUP2 PUSH1 0x3 PUSH1 0x40 DUP3 KECCAK256 ADD SSTORE PUSH1 0x3 PUSH1 0x4 CALLDATALOAD MUL PUSH1 0x4 CALLDATALOAD DUP2 DIV PUSH1 0x3 EQ PUSH1 0x4 CALLDATALOAD ISZERO OR ISZERO PUSH2 0x2479 JUMPI CALLER DUP4 MSTORE PUSH1 0xF PUSH1 0x20 MSTORE PUSH1 0x4 PUSH1 0x40 DUP5 KECCAK256 ADD SSTORE PUSH2 0x1EC4 JUMP JUMPDEST PUSH2 0x250A SWAP2 SWAP3 POP PUSH1 0x4 CALLDATALOAD SWAP1 PUSH2 0x3F22 JUMP JUMPDEST SWAP1 SSTORE CALLER DUP3 MSTORE PUSH1 0xF PUSH1 0x20 MSTORE PUSH1 0xFF PUSH1 0x5 PUSH1 0x40 DUP5 KECCAK256 ADD SLOAD AND PUSH2 0x255D JUMPI JUMPDEST PUSH1 0x3 PUSH1 0x4 CALLDATALOAD MUL PUSH1 0x4 CALLDATALOAD DUP2 DIV PUSH1 0x3 EQ PUSH1 0x4 CALLDATALOAD ISZERO OR ISZERO PUSH2 0x2479 JUMPI CALLER DUP4 MSTORE PUSH1 0xF PUSH1 0x20 MSTORE PUSH2 0x2556 PUSH1 0x4 PUSH1 0x40 DUP6 KECCAK256 ADD SWAP2 DUP3 SLOAD PUSH2 0x3F22 JUMP JUMPDEST SWAP1 SSTORE PUSH2 0x1EC4 JUMP JUMPDEST TIMESTAMP PUSH1 0x2 DUP3 ADD SSTORE PUSH2 0x2524 JUMP JUMPDEST PUSH2 0x2580 SWAP1 PUSH1 0x20 RETURNDATASIZE PUSH1 0x20 GT PUSH2 0x6F7 JUMPI PUSH2 0x6E8 DUP2 DUP4 PUSH2 0x3D7A JUMP JUMPDEST POP CODESIZE PUSH2 0x1E48 JUMP JUMPDEST PUSH1 0x40 MLOAD RETURNDATASIZE DUP5 DUP3 RETURNDATACOPY RETURNDATASIZE SWAP1 REVERT JUMPDEST PUSH1 0x40 MLOAD PUSH4 0x162908E3 PUSH1 0xE1 SHL DUP2 MSTORE PUSH1 0x4 SWAP1 REVERT JUMPDEST POP PUSH9 0x3635C9ADC5DEA00000 PUSH1 0x4 CALLDATALOAD EQ ISZERO PUSH2 0x1E01 JUMP JUMPDEST POP PUSH9 0x1B1AE4D6E2EF500000 PUSH1 0x4 CALLDATALOAD EQ ISZERO PUSH2 0x1DFB JUMP JUMPDEST POP PUSH9 0x1043561A8829300000 PUSH1 0x4 CALLDATALOAD EQ ISZERO PUSH2 0x1DF5 JUMP JUMPDEST POP CALLVALUE PUSH2 0x382 JUMPI DUP1 PUSH1 0x3 NOT CALLDATASIZE ADD SLT PUSH2 0x382 JUMPI PUSH1 0x20 PUSH1 0x19 SLOAD PUSH1 0x40 MLOAD SWAP1 DUP2 MSTORE RETURN JUMPDEST POP CALLVALUE PUSH2 0x382 JUMPI DUP1 PUSH1 0x3 NOT CALLDATASIZE ADD SLT PUSH2 0x382 JUMPI PUSH32 0x0 PUSH1 0x1 PUSH1 0x1 PUSH1 0xA0 SHL SUB AND ADDRESS SUB PUSH2 0x265A JUMPI PUSH1 0x20 PUSH1 0x40 MLOAD PUSH1 0x0 DUP1 MLOAD PUSH1 0x20 PUSH2 0x5E07 DUP4 CODECOPY DUP2 MLOAD SWAP2 MSTORE DUP2 MSTORE RETURN JUMPDEST PUSH1 0x40 MLOAD PUSH4 0x703E46DD PUSH1 0xE1 SHL DUP2 MSTORE PUSH1 0x4 SWAP1 REVERT JUMPDEST POP CALLVALUE PUSH2 0x382 JUMPI PUSH1 0x20 DUP1 PUSH1 0x3 NOT CALLDATASIZE ADD SLT PUSH2 0x5FC JUMPI PUSH1 0x4 CALLDATALOAD SWAP1 PUSH2 0x268B PUSH2 0x49B8 JUMP JUMPDEST PUSH2 0x269A PUSH1 0xFF PUSH1 0x4F SLOAD AND ISZERO PUSH2 0x3E7E JUMP JUMPDEST DUP2 ISZERO PUSH2 0x2592 JUMPI PUSH9 0x3635C9ADC5DEA00000 DUP1 PUSH1 0x17 SLOAD LT SWAP1 DUP2 ISZERO PUSH2 0x291F JUMPI JUMPDEST POP PUSH2 0x2893 JUMPI PUSH1 0x1 SLOAD PUSH1 0x40 MLOAD PUSH4 0x23B872DD PUSH1 0xE0 SHL DUP2 MSTORE PUSH1 0x1 PUSH1 0x1 PUSH1 0xA0 SHL SUB SWAP2 DUP4 SWAP1 DUP3 SWAP1 DUP5 AND DUP2 DUP9 DUP2 PUSH2 0x26ED DUP11 ADDRESS CALLER PUSH1 0x4 DUP6 ADD PUSH2 0x3ED7 JUMP JUMPDEST SUB SWAP3 GAS CALL DUP1 ISZERO PUSH2 0x77C JUMPI PUSH2 0x2902 JUMPI JUMPDEST POP PUSH1 0x64 PUSH2 0x270B PUSH1 0xE SLOAD DUP6 PUSH2 0x3EF9 JUMP JUMPDEST DIV SWAP1 PUSH2 0x2717 DUP3 DUP6 PUSH2 0x3F4F JUMP JUMPDEST SWAP3 PUSH2 0x2710 DUP1 DUP6 MUL SWAP1 DUP6 DUP3 DIV EQ DUP6 ISZERO OR ISZERO PUSH2 0x28EE JUMPI PUSH2 0x273B PUSH2 0x3E8 SWAP2 PUSH1 0x18 SLOAD SWAP1 PUSH2 0x3F2F JUMP JUMPDEST GT PUSH2 0x2592 JUMPI DUP6 DUP3 PUSH1 0x1 SLOAD AND DUP1 EXTCODESIZE ISZERO PUSH2 0x5FC JUMPI DUP2 DUP1 SWAP2 PUSH1 0x24 PUSH1 0x40 MLOAD DUP1 SWAP5 DUP2 SWAP4 PUSH4 0x852CD8D PUSH1 0xE3 SHL DUP4 MSTORE DUP11 PUSH1 0x4 DUP5 ADD MSTORE GAS CALL DUP1 ISZERO PUSH2 0x2587 JUMPI PUSH2 0x28D6 JUMPI JUMPDEST POP POP PUSH1 0x17 SLOAD SWAP4 PUSH2 0x2786 DUP6 DUP3 PUSH2 0x3EF9 JUMP JUMPDEST SWAP1 PUSH2 0x279E PUSH1 0x18 SLOAD SWAP3 PUSH2 0x2798 DUP4 DUP6 PUSH2 0x3F22 JUMP JUMPDEST SWAP1 PUSH2 0x3F2F JUMP JUMPDEST SWAP4 DUP9 SLOAD AND SWAP6 PUSH1 0x40 MLOAD PUSH4 0x70A08231 PUSH1 0xE0 SHL DUP2 MSTORE ADDRESS PUSH1 0x4 DUP3 ADD MSTORE DUP5 DUP2 PUSH1 0x24 DUP2 DUP12 GAS STATICCALL DUP1 ISZERO PUSH2 0x1368 JUMPI DUP7 SWAP2 DUP12 SWAP2 PUSH2 0x28A5 JUMPI JUMPDEST POP LT PUSH2 0x2893 JUMPI PUSH2 0x27E1 DUP6 SWAP3 PUSH2 0x27E9 SWAP5 PUSH2 0x3F22 JUMP JUMPDEST PUSH1 0x18 SSTORE PUSH2 0x3F4F JUMP JUMPDEST PUSH1 0x17 SSTORE DUP1 PUSH1 0x40 MLOAD DUP1 SWAP6 PUSH4 0xA9059CBB PUSH1 0xE0 SHL DUP3 MSTORE DUP2 DUP10 DUP2 PUSH2 0x280D DUP9 CALLER PUSH1 0x4 DUP5 ADD PUSH2 0x3DD4 JUMP JUMPDEST SUB SWAP3 GAS CALL SWAP4 DUP5 ISZERO PUSH2 0x2888 JUMPI PUSH32 0x223C8AD0806F634524940A8595F819C5CFC7B1F4F4F45791269301DF0A7E61D5 SWAP5 PUSH2 0x286A JUMPI JUMPDEST POP POP PUSH2 0x2852 PUSH1 0x40 MLOAD SWAP3 DUP4 SWAP3 CALLER SWAP7 DUP5 PUSH2 0x3D3B JUMP JUMPDEST SUB SWAP1 LOG2 PUSH1 0x1 PUSH1 0x0 DUP1 MLOAD PUSH1 0x20 PUSH2 0x5EC7 DUP4 CODECOPY DUP2 MLOAD SWAP2 MSTORE SSTORE DUP1 RETURN JUMPDEST DUP2 PUSH2 0x2880 SWAP3 SWAP1 RETURNDATASIZE LT PUSH2 0x6F7 JUMPI PUSH2 0x6E8 DUP2 DUP4 PUSH2 0x3D7A JUMP JUMPDEST POP CODESIZE DUP1 PUSH2 0x283F JUMP JUMPDEST PUSH1 0x40 MLOAD RETURNDATASIZE DUP9 DUP3 RETURNDATACOPY RETURNDATASIZE SWAP1 REVERT JUMPDEST PUSH1 0x40 MLOAD PUSH4 0x43C7AD81 PUSH1 0xE1 SHL DUP2 MSTORE PUSH1 0x4 SWAP1 REVERT JUMPDEST DUP1 SWAP3 POP DUP7 DUP1 SWAP3 POP RETURNDATASIZE DUP4 GT PUSH2 0x28CF JUMPI JUMPDEST PUSH2 0x28BE DUP2 DUP4 PUSH2 0x3D7A JUMP JUMPDEST DUP2 ADD SUB SLT PUSH2 0xC9A JUMPI DUP6 SWAP1 MLOAD CODESIZE PUSH2 0x27CD JUMP JUMPDEST POP RETURNDATASIZE PUSH2 0x28B4 JUMP JUMPDEST PUSH2 0x28DF SWAP1 PUSH2 0x3D67 JUMP JUMPDEST PUSH2 0x28EA JUMPI DUP6 CODESIZE PUSH2 0x2776 JUMP JUMPDEST DUP6 DUP1 REVERT JUMPDEST PUSH4 0x4E487B71 PUSH1 0xE0 SHL DUP8 MSTORE PUSH1 0x11 PUSH1 0x4 MSTORE PUSH1 0x24 DUP8 REVERT JUMPDEST PUSH2 0x2918 SWAP1 DUP4 RETURNDATASIZE DUP6 GT PUSH2 0x6F7 JUMPI PUSH2 0x6E8 DUP2 DUP4 PUSH2 0x3D7A JUMP JUMPDEST POP CODESIZE PUSH2 0x26FC JUMP JUMPDEST SWAP1 POP PUSH1 0x18 SLOAD LT CODESIZE PUSH2 0x26B7 JUMP JUMPDEST POP CALLVALUE PUSH2 0x382 JUMPI DUP1 PUSH1 0x3 NOT CALLDATASIZE ADD SLT PUSH2 0x382 JUMPI PUSH2 0x2944 PUSH2 0x497F JUMP JUMPDEST PUSH1 0x1 PUSH1 0xFF NOT PUSH1 0x4F SLOAD AND OR PUSH1 0x4F SSTORE PUSH32 0x4CB3183D0BF66F9634B15CFC3539FDDDC96C2C9324848AF89B56586A6739FEC4 DUP2 DUP1 LOG1 DUP1 RETURN JUMPDEST POP PUSH1 0x40 CALLDATASIZE PUSH1 0x3 NOT ADD SLT PUSH2 0x382 JUMPI PUSH2 0x298D PUSH2 0x3CB5 JUMP JUMPDEST PUSH1 0x24 SWAP2 DUP3 CALLDATALOAD PUSH1 0x1 PUSH1 0x1 PUSH1 0x40 SHL SUB DUP2 GT PUSH2 0x5FC JUMPI CALLDATASIZE PUSH1 0x23 DUP3 ADD SLT ISZERO PUSH2 0x5FC JUMPI DUP1 PUSH1 0x4 ADD CALLDATALOAD PUSH2 0x29B9 DUP2 PUSH2 0x3D9D JUMP JUMPDEST SWAP4 PUSH2 0x29C7 PUSH1 0x40 MLOAD SWAP6 DUP7 PUSH2 0x3D7A JUMP JUMPDEST DUP2 DUP6 MSTORE PUSH1 0x20 SWAP2 DUP3 DUP7 ADD SWAP4 CALLDATASIZE DUP9 DUP4 DUP4 ADD ADD GT PUSH2 0x28EA JUMPI DUP2 DUP7 SWAP3 DUP10 DUP7 SWAP4 ADD DUP8 CALLDATACOPY DUP8 ADD ADD MSTORE PUSH1 0x1 PUSH1 0x1 PUSH1 0xA0 SHL SUB PUSH32 0x0 DUP2 AND ADDRESS DUP2 EQ SWAP1 DUP2 ISZERO PUSH2 0x2B8F JUMPI JUMPDEST POP PUSH2 0x265A JUMPI PUSH2 0x2A2C PUSH2 0x497F JUMP JUMPDEST DUP2 AND SWAP5 PUSH1 0x40 MLOAD PUSH4 0x52D1902D PUSH1 0xE0 SHL DUP2 MSTORE DUP4 DUP2 PUSH1 0x4 DUP2 DUP11 GAS STATICCALL DUP7 SWAP2 DUP2 PUSH2 0x2B5C JUMPI JUMPDEST POP PUSH2 0x2A69 JUMPI PUSH1 0x40 MLOAD PUSH4 0x4C9C8CE3 PUSH1 0xE0 SHL DUP2 MSTORE PUSH1 0x4 DUP2 ADD DUP9 SWAP1 MSTORE DUP9 SWAP1 REVERT JUMPDEST DUP7 SWAP1 DUP9 PUSH1 0x0 DUP1 MLOAD PUSH1 0x20 PUSH2 0x5E07 DUP4 CODECOPY DUP2 MLOAD SWAP2 MSTORE SWAP2 DUP3 DUP2 SUB PUSH2 0x2B47 JUMPI POP DUP5 EXTCODESIZE ISZERO PUSH2 0x2B31 JUMPI POP DUP1 SLOAD PUSH1 0x1 PUSH1 0x1 PUSH1 0xA0 SHL SUB NOT AND DUP3 OR SWAP1 SSTORE PUSH1 0x40 MLOAD DUP7 SWAP3 SWAP2 PUSH32 0xBC7CD75A20EE27FD9ADEBAB32041F755214DBC6BFFA90CC0225B39DA2E5C2D3B DUP5 DUP1 LOG2 DUP2 MLOAD ISZERO PUSH2 0x2B13 JUMPI POP PUSH2 0x2B06 SWAP5 DUP3 SWAP2 MLOAD SWAP1 DUP5 GAS DELEGATECALL SWAP1 RETURNDATASIZE ISZERO PUSH2 0x2B0A JUMPI RETURNDATASIZE PUSH2 0x2AEA DUP2 PUSH2 0x3D9D JUMP JUMPDEST SWAP1 PUSH2 0x2AF8 PUSH1 0x40 MLOAD SWAP3 DUP4 PUSH2 0x3D7A JUMP JUMPDEST DUP2 MSTORE DUP6 DUP2 SWAP5 RETURNDATASIZE SWAP3 ADD RETURNDATACOPY PUSH2 0x5D03 JUMP JUMPDEST POP DUP1 RETURN JUMPDEST PUSH1 0x60 SWAP3 POP PUSH2 0x5D03 JUMP JUMPDEST SWAP5 POP POP POP POP POP CALLVALUE PUSH2 0x2B22 JUMPI POP DUP1 RETURN JUMPDEST PUSH4 0xB398979F PUSH1 0xE0 SHL DUP2 MSTORE PUSH1 0x4 SWAP1 REVERT JUMPDEST PUSH1 0x40 MLOAD PUSH4 0x4C9C8CE3 PUSH1 0xE0 SHL DUP2 MSTORE PUSH1 0x4 DUP2 ADD DUP5 SWAP1 MSTORE REVERT JUMPDEST PUSH1 0x40 MLOAD SWAP1 PUSH4 0x2A875269 PUSH1 0xE2 SHL DUP3 MSTORE PUSH1 0x4 DUP3 ADD MSTORE REVERT JUMPDEST SWAP1 SWAP2 POP DUP5 DUP2 DUP2 RETURNDATASIZE DUP4 GT PUSH2 0x2B88 JUMPI JUMPDEST PUSH2 0x2B74 DUP2 DUP4 PUSH2 0x3D7A JUMP JUMPDEST DUP2 ADD SUB SLT PUSH2 0x2B84 JUMPI MLOAD SWAP1 CODESIZE PUSH2 0x2A4C JUMP JUMPDEST DUP7 DUP1 REVERT JUMPDEST POP RETURNDATASIZE PUSH2 0x2B6A JUMP JUMPDEST SWAP1 POP DUP2 PUSH1 0x0 DUP1 MLOAD PUSH1 0x20 PUSH2 0x5E07 DUP4 CODECOPY DUP2 MLOAD SWAP2 MSTORE SLOAD AND EQ ISZERO CODESIZE PUSH2 0x2A1F JUMP JUMPDEST POP CALLVALUE PUSH2 0x382 JUMPI PUSH2 0x2BBA CALLDATASIZE PUSH2 0x3D51 JUMP JUMPDEST SWAP1 PUSH2 0x2BC3 PUSH2 0x49B8 JUMP JUMPDEST PUSH2 0x2BD2 PUSH1 0xFF PUSH1 0x4F SLOAD AND ISZERO PUSH2 0x3E7E JUMP JUMPDEST CALLER DUP4 MSTORE PUSH1 0x20 SWAP1 PUSH1 0x10 DUP3 MSTORE PUSH1 0x40 DUP5 KECCAK256 SWAP3 PUSH1 0x1 DUP5 ADD SWAP4 DUP5 SLOAD ISZERO PUSH2 0x2FA0 JUMPI PUSH1 0x3 ADD SLOAD PUSH1 0xFF AND PUSH2 0x2F8E JUMPI PUSH1 0x7 DUP2 EQ ISZERO DUP1 PUSH2 0x2F83 JUMPI JUMPDEST DUP1 PUSH2 0x2F78 JUMPI JUMPDEST PUSH2 0x2F66 JUMPI DUP2 ISZERO PUSH2 0x2592 JUMPI DUP5 SLOAD PUSH1 0x40 MLOAD PUSH4 0x23B872DD PUSH1 0xE0 SHL DUP2 MSTORE PUSH1 0x1 PUSH1 0x1 PUSH1 0xA0 SHL SUB SWAP6 SWAP2 DUP6 SWAP1 DUP3 SWAP1 DUP9 AND DUP2 DUP11 DUP2 PUSH2 0x2C44 DUP11 ADDRESS CALLER PUSH1 0x4 DUP6 ADD PUSH2 0x3ED7 JUMP JUMPDEST SUB SWAP3 GAS CALL DUP1 ISZERO PUSH2 0x2F5B JUMPI PUSH2 0x2F3E JUMPI JUMPDEST POP PUSH2 0x2C5F PUSH1 0x1A SLOAD PUSH2 0x455A JUMP JUMPDEST PUSH1 0x1A DUP2 SWAP1 SSTORE CALLER DUP8 MSTORE PUSH1 0x11 DUP6 MSTORE PUSH1 0x40 DUP1 DUP9 KECCAK256 SWAP1 MLOAD SWAP2 PUSH1 0xC0 DUP4 ADD PUSH1 0x1 PUSH1 0x1 PUSH1 0x40 SHL SUB DUP2 GT DUP5 DUP3 LT OR PUSH2 0x15B0 JUMPI PUSH1 0x40 MSTORE DUP3 MSTORE DUP6 DUP3 ADD DUP6 DUP2 MSTORE PUSH1 0x40 DUP4 ADD TIMESTAMP DUP2 MSTORE PUSH1 0x60 DUP5 ADD SWAP1 DUP7 DUP3 MSTORE PUSH1 0x80 DUP6 ADD SWAP3 PUSH1 0x1 DUP5 MSTORE PUSH1 0xA0 DUP7 ADD SWAP5 DUP13 DUP7 MSTORE DUP1 SLOAD SWAP1 PUSH1 0x1 PUSH1 0x40 SHL DUP3 LT ISZERO PUSH2 0x2F2A JUMPI SWAP1 PUSH2 0x2CD3 SWAP2 PUSH1 0x1 DUP3 ADD DUP2 SSTORE PUSH2 0x3DEF JUMP JUMPDEST SWAP7 SWAP1 SWAP7 PUSH2 0x2F16 JUMPI SWAP2 PUSH2 0x2D12 SWAP4 SWAP2 PUSH1 0x5 SWAP7 SWAP6 SWAP4 MLOAD DUP9 SSTORE MLOAD PUSH1 0x1 DUP9 ADD SSTORE MLOAD PUSH1 0x2 DUP8 ADD SSTORE MLOAD PUSH1 0x3 DUP7 ADD SSTORE MLOAD ISZERO ISZERO PUSH1 0x4 DUP6 ADD SWAP1 PUSH1 0xFF DUP1 NOT DUP4 SLOAD AND SWAP2 ISZERO ISZERO AND OR SWAP1 SSTORE JUMP JUMPDEST MLOAD SWAP2 ADD SSTORE PUSH1 0x1A SLOAD DUP7 MSTORE PUSH1 0x1E DUP5 MSTORE PUSH1 0x40 DUP1 DUP8 KECCAK256 DUP1 SLOAD PUSH1 0x1 PUSH1 0x1 PUSH1 0xA0 SHL SUB NOT AND CALLER SWAP1 DUP2 OR SWAP1 SWAP2 SSTORE DUP8 MSTORE PUSH1 0xF DUP6 MSTORE DUP7 KECCAK256 PUSH1 0xA ADD DUP1 SLOAD SWAP2 DUP3 ISZERO PUSH2 0x2F08 JUMPI JUMPDEST POP POP PUSH1 0x96 DUP2 MUL SWAP1 DUP1 DUP3 DIV PUSH1 0x96 EQ SWAP1 ISZERO OR ISZERO PUSH2 0x2EF4 JUMPI PUSH1 0x64 SWAP1 DIV DUP3 SUB PUSH2 0x2592 JUMPI PUSH32 0xA8A1B9E33E503EED12BF7E7C8C01C7F3B60217A496BDDD0F5DB351DD8C056C1C SWAP1 PUSH2 0x2D96 CALLER PUSH2 0x4EDB JUMP JUMPDEST PUSH1 0x1A SLOAD SWAP1 PUSH2 0x2DAB PUSH1 0x40 MLOAD SWAP3 DUP4 SWAP3 CALLER SWAP7 DUP5 PUSH2 0x3D3B JUMP JUMPDEST SUB SWAP1 LOG2 CALLER DUP4 MSTORE PUSH1 0xF DUP2 MSTORE PUSH1 0x6 PUSH1 0x40 DUP5 KECCAK256 ADD SWAP2 DUP4 DUP4 SLOAD SWAP4 DUP5 PUSH2 0x2DDD JUMPI JUMPDEST POP PUSH1 0x1 PUSH1 0x0 DUP1 MLOAD PUSH1 0x20 PUSH2 0x5EC7 DUP4 CODECOPY DUP2 MLOAD SWAP2 MSTORE SSTORE DUP1 RETURN JUMPDEST SSTORE PUSH1 0x17 SLOAD DUP4 DUP2 LT ISZERO DUP1 PUSH2 0x2E8B JUMPI JUMPDEST PUSH2 0x2DF7 JUMPI JUMPDEST DUP5 SWAP1 PUSH2 0x2DC7 JUMP JUMPDEST DUP4 PUSH2 0x2E01 SWAP2 PUSH2 0x3F4F JUMP JUMPDEST PUSH1 0x17 SSTORE DUP4 SLOAD AND SWAP1 DUP1 PUSH1 0x40 MLOAD DUP1 SWAP4 PUSH4 0xA9059CBB PUSH1 0xE0 SHL DUP3 MSTORE DUP2 DUP8 DUP2 PUSH2 0x2E29 DUP10 CALLER PUSH1 0x4 DUP5 ADD PUSH2 0x3DD4 JUMP JUMPDEST SUB SWAP3 GAS CALL SWAP2 DUP3 ISZERO PUSH2 0x6FE JUMPI PUSH32 0x3437B9EA7FA19C6D233DD70CC787A70FAB87CEE64D8BA4571512CC84402748F9 SWAP3 PUSH2 0x2E6E JUMPI JUMPDEST POP PUSH1 0x40 MLOAD SWAP3 DUP4 MSTORE CALLER SWAP3 LOG2 CODESIZE DUP1 DUP1 DUP1 PUSH2 0x2DF0 JUMP JUMPDEST PUSH2 0x2E84 SWAP1 DUP3 RETURNDATASIZE DUP5 GT PUSH2 0x6F7 JUMPI PUSH2 0x6E8 DUP2 DUP4 PUSH2 0x3D7A JUMP JUMPDEST POP CODESIZE PUSH2 0x2E5B JUMP JUMPDEST POP PUSH1 0x24 DUP4 DUP4 DUP8 SLOAD AND PUSH1 0x40 MLOAD SWAP3 DUP4 DUP1 SWAP3 PUSH4 0x70A08231 PUSH1 0xE0 SHL DUP3 MSTORE ADDRESS PUSH1 0x4 DUP4 ADD MSTORE GAS STATICCALL DUP1 ISZERO PUSH2 0x2888 JUMPI DUP6 SWAP2 DUP8 SWAP2 PUSH2 0x2EC3 JUMPI JUMPDEST POP LT ISZERO PUSH2 0x2DEB JUMP JUMPDEST DUP1 SWAP3 POP DUP6 DUP1 SWAP3 POP RETURNDATASIZE DUP4 GT PUSH2 0x2EED JUMPI JUMPDEST PUSH2 0x2EDC DUP2 DUP4 PUSH2 0x3D7A JUMP JUMPDEST DUP2 ADD SUB SLT PUSH2 0xC9A JUMPI DUP5 SWAP1 MLOAD CODESIZE PUSH2 0x2EBB JUMP JUMPDEST POP RETURNDATASIZE PUSH2 0x2ED2 JUMP JUMPDEST PUSH4 0x4E487B71 PUSH1 0xE0 SHL DUP7 MSTORE PUSH1 0x11 PUSH1 0x4 MSTORE PUSH1 0x24 DUP7 REVERT JUMPDEST SWAP1 SWAP2 POP SLOAD DUP1 SWAP2 SSTORE CODESIZE DUP1 PUSH2 0x2D4C JUMP JUMPDEST PUSH4 0x4E487B71 PUSH1 0xE0 SHL DUP14 MSTORE PUSH1 0x4 DUP14 SWAP1 MSTORE PUSH1 0x24 DUP14 REVERT JUMPDEST PUSH4 0x4E487B71 PUSH1 0xE0 SHL DUP15 MSTORE PUSH1 0x41 PUSH1 0x4 MSTORE PUSH1 0x24 DUP15 REVERT JUMPDEST PUSH2 0x2F54 SWAP1 DUP6 RETURNDATASIZE DUP8 GT PUSH2 0x6F7 JUMPI PUSH2 0x6E8 DUP2 DUP4 PUSH2 0x3D7A JUMP JUMPDEST POP CODESIZE PUSH2 0x2C53 JUMP JUMPDEST PUSH1 0x40 MLOAD RETURNDATASIZE DUP10 DUP3 RETURNDATACOPY RETURNDATASIZE SWAP1 REVERT JUMPDEST PUSH1 0x40 MLOAD PUSH4 0x4DC7F5FF PUSH1 0xE1 SHL DUP2 MSTORE PUSH1 0x4 SWAP1 REVERT JUMPDEST POP PUSH1 0x1E DUP2 EQ ISZERO PUSH2 0x2C09 JUMP JUMPDEST POP PUSH1 0xF DUP2 EQ ISZERO PUSH2 0x2C03 JUMP JUMPDEST PUSH1 0x40 MLOAD PUSH4 0x1ECB2C4F PUSH1 0xE3 SHL DUP2 MSTORE PUSH1 0x4 SWAP1 REVERT JUMPDEST PUSH1 0x40 MLOAD PUSH4 0x4065AAF1 PUSH1 0xE1 SHL DUP2 MSTORE PUSH1 0x4 SWAP1 REVERT JUMPDEST POP CALLVALUE PUSH2 0x382 JUMPI DUP1 PUSH1 0x3 NOT CALLDATASIZE ADD SLT PUSH2 0x382 JUMPI PUSH2 0x2FCB PUSH2 0x497F JUMP JUMPDEST PUSH1 0xFF NOT PUSH1 0x4F SLOAD AND PUSH1 0x4F SSTORE PUSH32 0x15DE7AD89D29FD1C6D2E6B1E878453569B4080EDF34E0105FAAA3BD52F018530 DUP2 DUP1 LOG1 DUP1 RETURN JUMPDEST POP CALLVALUE PUSH2 0x382 JUMPI DUP1 PUSH1 0x3 NOT CALLDATASIZE ADD SLT PUSH2 0x382 JUMPI PUSH1 0x20 PUSH1 0x40 MLOAD PUSH1 0x3C DUP2 MSTORE RETURN JUMPDEST POP CALLVALUE PUSH2 0x382 JUMPI DUP1 PUSH1 0x3 NOT CALLDATASIZE ADD SLT PUSH2 0x382 JUMPI PUSH1 0x3 SLOAD PUSH1 0x40 MLOAD PUSH1 0x1 PUSH1 0x1 PUSH1 0xA0 SHL SUB SWAP1 SWAP2 AND DUP2 MSTORE PUSH1 0x20 SWAP1 RETURN JUMPDEST POP CALLVALUE PUSH2 0x382 JUMPI PUSH1 0x20 CALLDATASIZE PUSH1 0x3 NOT ADD SLT PUSH2 0x382 JUMPI PUSH1 0x20 SWAP1 PUSH1 0x4 CALLDATALOAD DUP2 MSTORE PUSH1 0x1E DUP3 MSTORE PUSH1 0x40 PUSH1 0x1 DUP1 PUSH1 0xA0 SHL SUB SWAP2 KECCAK256 SLOAD AND PUSH1 0x40 MLOAD SWAP1 DUP2 MSTORE RETURN JUMPDEST POP CALLVALUE PUSH2 0x382 JUMPI DUP1 PUSH1 0x3 NOT CALLDATASIZE ADD SLT PUSH2 0x382 JUMPI PUSH2 0x308D PUSH2 0x49B8 JUMP JUMPDEST PUSH2 0xFF7 PUSH2 0x3FE0 JUMP JUMPDEST POP CALLVALUE PUSH2 0x382 JUMPI DUP1 PUSH1 0x3 NOT CALLDATASIZE ADD SLT PUSH2 0x382 JUMPI PUSH1 0x20 PUSH1 0xD SLOAD PUSH1 0x40 MLOAD SWAP1 DUP2 MSTORE RETURN JUMPDEST POP CALLVALUE PUSH2 0x382 JUMPI DUP1 PUSH1 0x3 NOT CALLDATASIZE ADD SLT PUSH2 0x382 JUMPI PUSH1 0x20 PUSH1 0xFF PUSH1 0x4F SLOAD AND PUSH1 0x40 MLOAD SWAP1 ISZERO ISZERO DUP2 MSTORE RETURN JUMPDEST POP CALLVALUE PUSH2 0x382 JUMPI DUP1 PUSH1 0x3 NOT CALLDATASIZE ADD SLT PUSH2 0x382 JUMPI PUSH1 0x4F SLOAD PUSH1 0x40 MLOAD PUSH1 0x8 SWAP2 SWAP1 SWAP2 SHR PUSH1 0x1 PUSH1 0x1 PUSH1 0xA0 SHL SUB AND DUP2 MSTORE PUSH1 0x20 SWAP1 RETURN JUMPDEST POP CALLVALUE PUSH2 0x382 JUMPI PUSH1 0x20 CALLDATASIZE PUSH1 0x3 NOT ADD SLT PUSH2 0x382 JUMPI PUSH1 0x4 CALLDATALOAD SWAP1 PUSH1 0x14 SLOAD DUP3 LT ISZERO PUSH2 0x382 JUMPI PUSH1 0x20 DUP2 PUSH1 0x14 PUSH1 0x3 SWAP4 MSTORE KECCAK256 SWAP2 MUL ADD DUP1 SLOAD PUSH2 0x1616 PUSH1 0x2 PUSH1 0x1 DUP5 ADD SLOAD SWAP4 ADD SLOAD PUSH1 0x40 MLOAD SWAP4 DUP5 SWAP4 DUP5 PUSH2 0x3D3B JUMP JUMPDEST POP CALLVALUE PUSH2 0x382 JUMPI DUP1 PUSH1 0x3 NOT CALLDATASIZE ADD SLT PUSH2 0x382 JUMPI PUSH1 0x20 PUSH1 0x40 MLOAD PUSH9 0x3635C9ADC5DEA00000 DUP2 MSTORE RETURN JUMPDEST POP CALLVALUE PUSH2 0x382 JUMPI DUP1 PUSH1 0x3 NOT CALLDATASIZE ADD SLT PUSH2 0x382 JUMPI PUSH1 0x20 PUSH1 0x18 SLOAD PUSH1 0x40 MLOAD SWAP1 DUP2 MSTORE RETURN JUMPDEST POP CALLVALUE PUSH2 0x382 JUMPI PUSH1 0x20 CALLDATASIZE PUSH1 0x3 NOT ADD SLT PUSH2 0x382 JUMPI PUSH2 0x160 SWAP1 PUSH1 0x1 PUSH1 0x1 PUSH1 0xA0 SHL SUB SWAP1 PUSH1 0x40 SWAP1 DUP3 PUSH2 0x31B8 PUSH2 0x3CB5 JUMP JUMPDEST AND DUP2 MSTORE PUSH1 0xF PUSH1 0x20 MSTORE KECCAK256 SWAP1 DUP2 SLOAD AND SWAP1 PUSH1 0x1 DUP2 ADD SLOAD SWAP1 PUSH1 0x2 DUP2 ADD SLOAD PUSH1 0x3 DUP3 ADD SLOAD PUSH1 0x4 DUP4 ADD SLOAD PUSH1 0xFF PUSH1 0x5 DUP6 ADD SLOAD AND PUSH1 0x6 DUP6 ADD SLOAD SWAP2 PUSH1 0x7 DUP7 ADD SLOAD SWAP4 PUSH1 0x8 DUP8 ADD SLOAD SWAP6 PUSH1 0xA PUSH1 0x9 DUP10 ADD SLOAD SWAP9 ADD SLOAD SWAP9 PUSH1 0x40 MLOAD SWAP11 DUP12 MSTORE PUSH1 0x20 DUP12 ADD MSTORE PUSH1 0x40 DUP11 ADD MSTORE PUSH1 0x60 DUP10 ADD MSTORE PUSH1 0x80 DUP9 ADD MSTORE ISZERO ISZERO PUSH1 0xA0 DUP8 ADD MSTORE PUSH1 0xC0 DUP7 ADD MSTORE PUSH1 0xE0 DUP6 ADD MSTORE PUSH2 0x100 DUP5 ADD MSTORE PUSH2 0x120 DUP4 ADD MSTORE PUSH2 0x140 DUP3 ADD MSTORE RETURN JUMPDEST POP CALLVALUE PUSH2 0x382 JUMPI PUSH1 0x20 CALLDATASIZE PUSH1 0x3 NOT ADD SLT PUSH2 0x382 JUMPI PUSH1 0x20 PUSH2 0x325E PUSH1 0x4 CALLDATALOAD PUSH2 0x3F93 JUMP JUMPDEST PUSH1 0x40 MLOAD SWAP1 DUP2 MSTORE RETURN JUMPDEST POP CALLVALUE PUSH2 0x382 JUMPI DUP1 PUSH1 0x3 NOT CALLDATASIZE ADD SLT PUSH2 0x382 JUMPI PUSH1 0x1 SLOAD PUSH1 0x40 MLOAD PUSH1 0x1 PUSH1 0x1 PUSH1 0xA0 SHL SUB SWAP1 SWAP2 AND DUP2 MSTORE PUSH1 0x20 SWAP1 RETURN JUMPDEST POP CALLVALUE PUSH2 0x382 JUMPI DUP1 PUSH1 0x3 NOT CALLDATASIZE ADD SLT PUSH2 0x382 JUMPI PUSH1 0x20 SWAP1 PUSH1 0x40 MLOAD SWAP1 DUP2 MSTORE RETURN JUMPDEST POP CALLVALUE PUSH2 0x382 JUMPI PUSH1 0x20 DUP1 PUSH1 0x3 NOT CALLDATASIZE ADD SLT PUSH2 0x5FC JUMPI PUSH1 0x4 CALLDATALOAD PUSH2 0x32C9 PUSH2 0x49B8 JUMP JUMPDEST PUSH2 0x32DA PUSH1 0xFF PUSH1 0x16 SLOAD PUSH1 0x8 SHR AND PUSH2 0x3F5C JUMP JUMPDEST CALLER DUP4 MSTORE PUSH1 0x11 DUP3 MSTORE PUSH1 0x40 DUP4 KECCAK256 DUP1 SLOAD DUP3 LT DUP1 PUSH2 0x379A JUMPI JUMPDEST ISZERO PUSH2 0x3765 JUMPI SWAP1 PUSH2 0x32FE SWAP2 PUSH2 0x3DEF JUMP JUMPDEST POP SWAP1 PUSH1 0x1 DUP3 ADD SWAP2 DUP3 SLOAD SWAP3 PUSH1 0x2 DUP3 ADD SLOAD SWAP2 PUSH1 0x3 DUP2 ADD SLOAD SWAP5 PUSH1 0x5 DUP3 ADD DUP1 SLOAD SWAP5 CALLER DUP10 MSTORE PUSH1 0xF SWAP8 DUP9 DUP9 MSTORE PUSH1 0x9 PUSH1 0x40 DUP12 KECCAK256 ADD SLOAD PUSH1 0x10 DUP10 MSTORE PUSH1 0x1 PUSH1 0x40 DUP13 KECCAK256 ADD SLOAD PUSH1 0xC SLOAD SWAP2 PUSH1 0x40 MLOAD SWAP4 PUSH2 0x100 DUP6 ADD SWAP6 DUP6 DUP8 LT PUSH1 0x1 DUP1 PUSH1 0x40 SHL SUB DUP9 GT OR PUSH2 0x15B0 JUMPI PUSH2 0x338B SWAP7 PUSH1 0x40 MSTORE DUP9 DUP7 MSTORE DUP13 DUP7 ADD MSTORE PUSH1 0x40 DUP6 ADD MSTORE DUP10 PUSH1 0x60 DUP6 ADD MSTORE PUSH1 0x80 DUP5 ADD MSTORE PUSH1 0xA0 DUP4 ADD MSTORE PUSH1 0xC0 DUP3 ADD MSTORE PUSH1 0x3C PUSH1 0xE0 DUP3 ADD MSTORE PUSH2 0x49E8 JUMP JUMPDEST SWAP5 SWAP2 SWAP3 SWAP1 SWAP7 DUP4 SWAP6 ISZERO PUSH2 0x3732 JUMPI DUP4 PUSH2 0x33A1 SWAP2 PUSH2 0x3F22 JUMP JUMPDEST SWAP1 SSTORE PUSH1 0x4 DUP2 ADD DUP1 SLOAD PUSH1 0xFF NOT AND SWAP1 SSTORE DUP9 SLOAD PUSH1 0x1 PUSH1 0x1 PUSH1 0xA0 SHL SUB SWAP4 PUSH2 0x33CC SWAP2 DUP9 SWAP2 SWAP1 ADDRESS SWAP1 CALLER SWAP1 DUP9 AND PUSH2 0x4ADA JUMP JUMPDEST ISZERO PUSH2 0x36FD JUMPI PUSH2 0x33E1 SWAP1 DUP7 PUSH2 0x36CF JUMPI JUMPDEST SLOAD PUSH2 0x4D47 JUMP JUMPDEST DUP1 PUSH2 0x3413 JUMPI JUMPDEST POP POP POP SLOAD SWAP1 PUSH1 0x40 MLOAD SWAP2 DUP3 MSTORE DUP3 DUP3 ADD MSTORE PUSH1 0x0 DUP1 MLOAD PUSH1 0x20 PUSH2 0x5EE7 DUP4 CODECOPY DUP2 MLOAD SWAP2 MSTORE PUSH1 0x40 CALLER SWAP3 LOG2 PUSH2 0xFDE CALLER PUSH2 0x4EDB JUMP JUMPDEST CALLER DUP9 MSTORE DUP7 DUP7 MSTORE PUSH2 0x3430 PUSH1 0x40 DUP10 KECCAK256 PUSH1 0x3 PUSH1 0x4 DUP3 ADD SLOAD SWAP2 ADD SLOAD SWAP1 PUSH2 0x3F4F JUMP JUMPDEST DUP1 SWAP2 GT PUSH2 0x36C7 JUMPI JUMPDEST POP DUP2 PUSH2 0x3445 JUMPI JUMPDEST DUP1 PUSH2 0x33E7 JUMP JUMPDEST CALLER DUP8 MSTORE DUP6 DUP6 MSTORE PUSH1 0x3 PUSH1 0x40 DUP9 KECCAK256 ADD PUSH2 0x345D DUP4 DUP3 SLOAD PUSH2 0x3F22 JUMP JUMPDEST SWAP1 SSTORE DUP2 PUSH1 0x1 SHR SWAP1 DUP1 DUP9 SLOAD AND SWAP2 PUSH1 0x40 MLOAD SWAP3 PUSH4 0x70A08231 PUSH1 0xE0 SHL SWAP4 DUP5 DUP2 MSTORE ADDRESS PUSH1 0x4 DUP3 ADD MSTORE DUP9 DUP2 PUSH1 0x24 DUP2 DUP6 GAS STATICCALL DUP1 ISZERO PUSH2 0x129B JUMPI DUP4 SWAP2 DUP13 SWAP2 PUSH2 0x3696 JUMPI JUMPDEST POP LT ISZERO DUP1 PUSH2 0x368D JUMPI JUMPDEST PUSH2 0x3640 JUMPI JUMPDEST POP PUSH1 0x18 SLOAD DUP1 ISZERO DUP1 ISZERO PUSH2 0x362C JUMPI JUMPDEST ISZERO PUSH2 0x35FC JUMPI POP PUSH2 0x34CB PUSH8 0xDE0B6B3A7640000 SWAP2 JUMPDEST DUP6 PUSH2 0x3F4F JUMP JUMPDEST PUSH8 0xDE0B6B3A7640000 SWAP1 DUP2 DUP2 MUL SWAP2 DUP2 DUP4 DIV EQ SWAP1 ISZERO OR ISZERO PUSH2 0x35E8 JUMPI DUP10 SWAP4 SWAP3 SWAP2 PUSH2 0x34F2 SWAP2 PUSH2 0x3F2F JUMP JUMPDEST SWAP1 PUSH1 0x1 SLOAD AND PUSH1 0x40 MLOAD SWAP3 DUP4 MSTORE ADDRESS PUSH1 0x4 DUP5 ADD MSTORE DUP8 DUP4 PUSH1 0x24 DUP2 DUP5 GAS STATICCALL DUP1 ISZERO PUSH2 0x6FE JUMPI DUP9 SWAP4 DUP6 SWAP2 PUSH2 0x35B3 JUMPI JUMPDEST POP DUP3 GT ISZERO DUP1 PUSH2 0x35AA JUMPI JUMPDEST PUSH2 0x3554 JUMPI JUMPDEST POP POP POP POP PUSH1 0x40 MLOAD SWAP1 DUP2 MSTORE PUSH1 0x0 DUP5 DUP3 ADD MSTORE PUSH1 0x0 DUP1 MLOAD PUSH1 0x20 PUSH2 0x5EA7 DUP4 CODECOPY DUP2 MLOAD SWAP2 MSTORE PUSH1 0x40 CALLER SWAP3 LOG2 CODESIZE DUP1 PUSH2 0x343F JUMP JUMPDEST PUSH2 0x3575 SWAP2 PUSH1 0x40 MLOAD SWAP5 DUP6 DUP1 SWAP5 DUP2 SWAP4 PUSH4 0xA9059CBB PUSH1 0xE0 SHL DUP4 MSTORE CALLER PUSH1 0x4 DUP5 ADD PUSH2 0x3DD4 JUMP JUMPDEST SUB SWAP3 GAS CALL DUP1 ISZERO PUSH2 0x2F5B JUMPI PUSH2 0x358D JUMPI JUMPDEST DUP5 DUP2 DUP9 SWAP3 PUSH2 0x3529 JUMP JUMPDEST PUSH2 0x35A3 SWAP1 DUP6 RETURNDATASIZE DUP8 GT PUSH2 0x6F7 JUMPI PUSH2 0x6E8 DUP2 DUP4 PUSH2 0x3D7A JUMP JUMPDEST POP CODESIZE PUSH2 0x3584 JUMP JUMPDEST POP DUP2 ISZERO ISZERO PUSH2 0x3524 JUMP JUMPDEST SWAP4 DUP1 SWAP3 SWAP6 POP DUP5 SWAP2 POP RETURNDATASIZE DUP4 GT PUSH2 0x35E1 JUMPI JUMPDEST PUSH2 0x35CD DUP2 DUP4 PUSH2 0x3D7A JUMP JUMPDEST DUP2 ADD SUB SLT PUSH2 0xC9A JUMPI DUP9 SWAP3 DUP2 DUP9 SWAP4 MLOAD SWAP1 PUSH2 0x351A JUMP JUMPDEST POP RETURNDATASIZE PUSH2 0x35C3 JUMP JUMPDEST PUSH4 0x4E487B71 PUSH1 0xE0 SHL DUP11 MSTORE PUSH1 0x11 PUSH1 0x4 MSTORE PUSH1 0x24 DUP11 REVERT JUMPDEST PUSH1 0x17 SLOAD PUSH8 0xDE0B6B3A7640000 SWAP1 DUP2 DUP2 MUL SWAP2 DUP2 DUP4 DIV EQ SWAP1 ISZERO OR ISZERO PUSH2 0x12A6 JUMPI PUSH2 0x34CB SWAP2 PUSH2 0x3626 SWAP2 PUSH2 0x3F2F JUMP JUMPDEST SWAP2 PUSH2 0x34C5 JUMP JUMPDEST POP PUSH9 0x3635C9ADC5DEA00000 PUSH1 0x17 SLOAD LT PUSH2 0x34B1 JUMP JUMPDEST DUP8 PUSH1 0x40 MLOAD DUP1 SWAP3 PUSH4 0xA9059CBB PUSH1 0xE0 SHL DUP3 MSTORE DUP2 DUP14 DUP2 PUSH2 0x3661 DUP9 CALLER PUSH1 0x4 DUP5 ADD PUSH2 0x3DD4 JUMP JUMPDEST SUB SWAP3 GAS CALL DUP1 ISZERO PUSH2 0x1368 JUMPI ISZERO PUSH2 0x34A4 JUMPI PUSH2 0x3686 SWAP1 DUP9 RETURNDATASIZE DUP11 GT PUSH2 0x6F7 JUMPI PUSH2 0x6E8 DUP2 DUP4 PUSH2 0x3D7A JUMP JUMPDEST POP CODESIZE PUSH2 0x34A4 JUMP JUMPDEST POP DUP2 ISZERO ISZERO PUSH2 0x349F JUMP JUMPDEST DUP1 SWAP3 POP DUP11 DUP1 SWAP3 POP RETURNDATASIZE DUP4 GT PUSH2 0x36C0 JUMPI JUMPDEST PUSH2 0x36AF DUP2 DUP4 PUSH2 0x3D7A JUMP JUMPDEST DUP2 ADD SUB SLT PUSH2 0xC9A JUMPI DUP3 SWAP1 MLOAD CODESIZE PUSH2 0x3496 JUMP JUMPDEST POP RETURNDATASIZE PUSH2 0x36A5 JUMP JUMPDEST SWAP2 POP CODESIZE PUSH2 0x3438 JUMP JUMPDEST PUSH2 0x36DB DUP8 PUSH1 0x17 SLOAD PUSH2 0x3F22 JUMP JUMPDEST PUSH1 0x17 SSTORE CALLER DUP11 MSTORE DUP9 DUP9 MSTORE PUSH1 0x6 PUSH1 0x40 DUP12 KECCAK256 ADD PUSH2 0x36F6 DUP9 DUP3 SLOAD PUSH2 0x3F22 JUMP JUMPDEST SWAP1 SSTORE PUSH2 0x33DB JUMP JUMPDEST PUSH1 0x64 DUP8 DUP10 PUSH1 0x40 MLOAD SWAP2 PUSH3 0x461BCD PUSH1 0xE5 SHL DUP4 MSTORE PUSH1 0x4 DUP4 ADD MSTORE PUSH1 0x24 DUP3 ADD MSTORE PUSH15 0x151C985B9CD9995C8819985A5B1959 PUSH1 0x8A SHL PUSH1 0x44 DUP3 ADD MSTORE REVERT JUMPDEST PUSH1 0x40 MLOAD PUSH3 0x461BCD PUSH1 0xE5 SHL DUP2 MSTORE PUSH1 0x4 DUP2 ADD DUP11 SWAP1 MSTORE PUSH1 0xB PUSH1 0x24 DUP3 ADD MSTORE PUSH11 0x139BDD08195E1C1A5C9959 PUSH1 0xAA SHL PUSH1 0x44 DUP3 ADD MSTORE PUSH1 0x64 SWAP1 REVERT JUMPDEST PUSH1 0x40 MLOAD PUSH3 0x461BCD PUSH1 0xE5 SHL DUP2 MSTORE PUSH1 0x4 DUP2 ADD DUP5 SWAP1 MSTORE PUSH1 0xD PUSH1 0x24 DUP3 ADD MSTORE PUSH13 0x496E76616C6964207374616B65 PUSH1 0x98 SHL PUSH1 0x44 DUP3 ADD MSTORE PUSH1 0x64 SWAP1 REVERT JUMPDEST POP PUSH1 0xFF PUSH1 0x4 PUSH2 0x37A9 DUP5 DUP5 PUSH2 0x3DEF JUMP JUMPDEST POP ADD SLOAD AND PUSH2 0x32EF JUMP JUMPDEST POP CALLVALUE PUSH2 0x382 JUMPI DUP1 PUSH1 0x3 NOT CALLDATASIZE ADD SLT PUSH2 0x382 JUMPI PUSH1 0x20 PUSH1 0x40 MLOAD PUSH1 0x2 DUP2 MSTORE RETURN JUMPDEST POP CALLVALUE PUSH2 0x382 JUMPI PUSH1 0x20 DUP1 PUSH1 0x3 NOT CALLDATASIZE ADD SLT PUSH2 0x5FC JUMPI PUSH1 0x4 CALLDATALOAD SWAP1 PUSH2 0x37ED PUSH2 0x49B8 JUMP JUMPDEST PUSH2 0x37FC PUSH1 0xFF PUSH1 0x4F SLOAD AND ISZERO PUSH2 0x3E7E JUMP JUMPDEST DUP2 ISZERO PUSH2 0x2592 JUMPI PUSH9 0x3635C9ADC5DEA00000 DUP1 PUSH1 0x17 SLOAD LT SWAP1 DUP2 ISZERO PUSH2 0x3A20 JUMPI JUMPDEST POP PUSH2 0x2893 JUMPI DUP3 SLOAD PUSH1 0x40 MLOAD PUSH4 0x23B872DD PUSH1 0xE0 SHL DUP2 MSTORE PUSH1 0x1 PUSH1 0x1 PUSH1 0xA0 SHL SUB SWAP2 DUP4 SWAP1 DUP3 SWAP1 DUP5 AND DUP2 DUP9 DUP2 PUSH2 0x384E DUP11 ADDRESS CALLER PUSH1 0x4 DUP6 ADD PUSH2 0x3ED7 JUMP JUMPDEST SUB SWAP3 GAS CALL DUP1 ISZERO PUSH2 0x77C JUMPI PUSH2 0x3A03 JUMPI JUMPDEST POP PUSH1 0x18 SLOAD SWAP1 PUSH2 0x386C DUP3 DUP6 PUSH2 0x3EF9 JUMP JUMPDEST SWAP1 PUSH2 0x387E PUSH1 0x17 SLOAD SWAP3 PUSH2 0x2798 DUP8 DUP6 PUSH2 0x3F22 JUMP JUMPDEST SWAP3 PUSH2 0x2710 DUP7 MUL PUSH2 0x270F NOT DUP8 DUP3 DIV ADD PUSH2 0x39EF JUMPI PUSH2 0x389D DUP5 PUSH2 0x3E8 SWAP3 PUSH2 0x3F2F JUMP JUMPDEST GT PUSH2 0x2592 JUMPI PUSH1 0x64 PUSH2 0x38B0 PUSH1 0xD SLOAD DUP7 PUSH2 0x3EF9 JUMP JUMPDEST DIV SWAP4 PUSH2 0x38BC DUP6 DUP3 PUSH2 0x3F4F JUMP JUMPDEST SWAP4 DUP4 PUSH1 0x1 SLOAD AND SWAP2 PUSH1 0x40 MLOAD PUSH4 0x70A08231 PUSH1 0xE0 SHL DUP2 MSTORE ADDRESS PUSH1 0x4 DUP3 ADD MSTORE DUP9 DUP2 PUSH1 0x24 DUP2 DUP8 GAS STATICCALL DUP1 ISZERO PUSH2 0x129B JUMPI DUP3 SWAP2 DUP13 SWAP2 PUSH2 0x39BA JUMPI JUMPDEST POP LT PUSH2 0x2893 JUMPI DUP10 SWAP4 PUSH2 0x3902 DUP11 PUSH2 0x390A SWAP5 PUSH2 0x3F22 JUMP JUMPDEST PUSH1 0x17 SSTORE PUSH2 0x3F4F JUMP JUMPDEST PUSH1 0x18 SSTORE DUP1 EXTCODESIZE ISZERO PUSH2 0x5FC JUMPI DUP2 SWAP1 PUSH1 0x24 PUSH1 0x40 MLOAD DUP1 SWAP5 DUP2 SWAP4 PUSH4 0x852CD8D PUSH1 0xE3 SHL DUP4 MSTORE DUP10 PUSH1 0x4 DUP5 ADD MSTORE GAS CALL DUP1 ISZERO PUSH2 0x2F5B JUMPI PUSH2 0x39A7 JUMPI JUMPDEST POP PUSH1 0x1 SLOAD AND SWAP3 DUP1 PUSH1 0x40 MLOAD DUP1 SWAP6 PUSH4 0xA9059CBB PUSH1 0xE0 SHL DUP3 MSTORE DUP2 DUP10 DUP2 PUSH2 0x3963 DUP9 CALLER PUSH1 0x4 DUP5 ADD PUSH2 0x3DD4 JUMP JUMPDEST SUB SWAP3 GAS CALL SWAP4 DUP5 ISZERO PUSH2 0x2888 JUMPI PUSH32 0x36864AEEFCE16BC4AACEEB6B0CDFB2AD1455A8CB4CCB0DB148A2BC6E7166F97C SWAP5 PUSH2 0x286A JUMPI POP POP PUSH2 0x2852 PUSH1 0x40 MLOAD SWAP3 DUP4 SWAP3 CALLER SWAP7 DUP5 PUSH2 0x3D3B JUMP JUMPDEST PUSH2 0x39B3 SWAP1 SWAP7 SWAP2 SWAP7 PUSH2 0x3D67 JUMP JUMPDEST SWAP5 CODESIZE PUSH2 0x393C JUMP JUMPDEST DUP1 SWAP3 POP DUP11 DUP1 SWAP3 POP RETURNDATASIZE DUP4 GT PUSH2 0x39E8 JUMPI JUMPDEST PUSH2 0x39D3 DUP2 DUP4 PUSH2 0x3D7A JUMP JUMPDEST DUP2 ADD SUB SLT PUSH2 0x39E4 JUMPI DUP2 SWAP1 MLOAD CODESIZE PUSH2 0x38ED JUMP JUMPDEST DUP11 DUP1 REVERT JUMPDEST POP RETURNDATASIZE PUSH2 0x39C9 JUMP JUMPDEST PUSH4 0x4E487B71 PUSH1 0xE0 SHL DUP9 MSTORE PUSH1 0x11 PUSH1 0x4 MSTORE PUSH1 0x24 DUP9 REVERT JUMPDEST PUSH2 0x3A19 SWAP1 DUP4 RETURNDATASIZE DUP6 GT PUSH2 0x6F7 JUMPI PUSH2 0x6E8 DUP2 DUP4 PUSH2 0x3D7A JUMP JUMPDEST POP CODESIZE PUSH2 0x385D JUMP JUMPDEST SWAP1 POP PUSH1 0x18 SLOAD LT CODESIZE PUSH2 0x3819 JUMP JUMPDEST POP CALLVALUE PUSH2 0x382 JUMPI PUSH1 0x40 CALLDATASIZE PUSH1 0x3 NOT ADD SLT PUSH2 0x382 JUMPI PUSH2 0x3A46 PUSH2 0x3CB5 JUMP JUMPDEST PUSH1 0x1 PUSH1 0x1 PUSH1 0xA0 SHL SUB SWAP1 DUP2 AND DUP3 MSTORE PUSH1 0x12 PUSH1 0x20 MSTORE PUSH1 0x40 DUP3 KECCAK256 DUP1 SLOAD PUSH1 0x24 CALLDATALOAD SWAP4 SWAP1 DUP5 LT ISZERO PUSH2 0x382 JUMPI POP PUSH1 0x20 SWAP3 PUSH2 0x3A77 SWAP2 PUSH2 0x3D0D JUMP JUMPDEST SWAP2 SWAP1 SLOAD PUSH1 0x40 MLOAD SWAP3 PUSH1 0x3 SHL SHR AND DUP2 MSTORE RETURN JUMPDEST POP CALLVALUE PUSH2 0x382 JUMPI PUSH1 0x20 SWAP1 DUP2 PUSH1 0x3 NOT CALLDATASIZE ADD SLT PUSH2 0x382 JUMPI PUSH2 0x3AA3 PUSH2 0x3CB5 JUMP JUMPDEST CALLER DUP3 MSTORE PUSH1 0xF DUP1 DUP5 MSTORE PUSH1 0x40 DUP4 KECCAK256 SLOAD SWAP1 SWAP3 PUSH1 0x1 PUSH1 0x1 PUSH1 0xA0 SHL SUB SWAP3 SWAP1 SWAP2 DUP4 AND PUSH2 0x3BD0 JUMPI DUP3 AND CALLER DUP2 EQ PUSH2 0x3BBE JUMPI DUP1 ISZERO PUSH2 0x3BAC JUMPI CALLER DUP1 DUP4 MSTORE PUSH1 0xF DUP7 MSTORE PUSH1 0x40 DUP1 DUP5 KECCAK256 DUP1 SLOAD PUSH1 0x1 PUSH1 0x1 PUSH1 0xA0 SHL SUB NOT AND DUP5 OR SWAP1 SSTORE DUP3 DUP5 MSTORE PUSH1 0x12 DUP8 MSTORE DUP4 KECCAK256 PUSH2 0x3B02 SWAP2 SWAP1 PUSH2 0x3E3B JUMP JUMPDEST CALLER DUP3 MSTORE PUSH1 0xF DUP6 MSTORE DUP3 PUSH1 0x40 DUP4 KECCAK256 SLOAD AND SWAP4 DUP4 DUP4 SWAP6 JUMPDEST AND DUP1 ISZERO ISZERO DUP1 PUSH2 0x3BA2 JUMPI JUMPDEST ISZERO PUSH2 0x3B78 JUMPI DUP1 DUP5 MSTORE DUP2 DUP8 MSTORE PUSH1 0x40 DUP5 KECCAK256 SWAP1 PUSH1 0x2 DUP3 ADD DUP1 SLOAD SWAP1 PUSH1 0x1 DUP3 ADD SWAP1 DUP2 DUP4 GT PUSH2 0x39EF JUMPI SWAP3 PUSH1 0x0 DUP1 MLOAD PUSH1 0x20 PUSH2 0x5DE7 DUP4 CODECOPY DUP2 MLOAD SWAP2 MSTORE PUSH1 0x40 DUP11 SWAP7 SWAP4 SWAP5 DUP6 DUP15 DUP10 SWAP8 PUSH2 0x3B72 SWAP10 SSTORE DUP4 MLOAD SWAP3 DUP4 MSTORE DUP3 ADD MSTORE LOG2 SLOAD AND SWAP7 PUSH2 0x455A JUMP JUMPDEST SWAP6 PUSH2 0x3B15 JUMP JUMPDEST POP POP CALLER PUSH32 0xA6DBB5AA28F35437DE94D685D66EDCE5FB4812196B4984B91DFD5A7B38C0FB30 DUP4 DUP1 LOG3 DUP1 RETURN JUMPDEST POP PUSH1 0x1E DUP7 LT PUSH2 0x3B1F JUMP JUMPDEST PUSH1 0x40 MLOAD PUSH4 0xE6C4247B PUSH1 0xE0 SHL DUP2 MSTORE PUSH1 0x4 SWAP1 REVERT JUMPDEST PUSH1 0x40 MLOAD PUSH4 0x1ACADE89 PUSH1 0xE3 SHL DUP2 MSTORE PUSH1 0x4 SWAP1 REVERT JUMPDEST PUSH1 0x40 MLOAD PUSH4 0x682A9065 PUSH1 0xE0 SHL DUP2 MSTORE PUSH1 0x4 SWAP1 REVERT JUMPDEST POP CALLVALUE PUSH2 0x382 JUMPI DUP1 PUSH1 0x3 NOT CALLDATASIZE ADD SLT PUSH2 0x382 JUMPI PUSH1 0x20 PUSH1 0xB SLOAD PUSH1 0x40 MLOAD SWAP1 DUP2 MSTORE RETURN JUMPDEST POP CALLVALUE PUSH2 0x382 JUMPI PUSH1 0x40 CALLDATASIZE PUSH1 0x3 NOT ADD SLT PUSH2 0x382 JUMPI PUSH1 0x4 CALLDATALOAD DUP1 ISZERO ISZERO DUP1 SWAP2 SUB PUSH2 0x5FC JUMPI PUSH1 0x20 PUSH32 0x3CB373F89DE891077FE47CEC43663B6727713DE0337AF46BEBD1178122251B7 SWAP2 PUSH32 0xB886FCB5B9C12916F26D967EBE962DBD51EC249FB55961DA39C851CDFC10115C DUP3 PUSH2 0x3C6D PUSH2 0x3CA6 JUMP JUMPDEST SWAP3 PUSH2 0x3C76 PUSH2 0x497F JUMP JUMPDEST PUSH1 0x16 SLOAD SWAP4 ISZERO ISZERO SWAP4 PUSH2 0xFF00 DUP6 PUSH1 0x8 SHL AND SWAP1 PUSH1 0xFF DUP4 AND SWAP1 PUSH2 0xFFFF NOT AND OR OR PUSH1 0x16 SSTORE PUSH1 0x40 MLOAD SWAP1 DUP2 MSTORE LOG1 PUSH1 0x40 MLOAD SWAP1 DUP2 MSTORE LOG1 DUP1 RETURN JUMPDEST PUSH1 0x24 CALLDATALOAD SWAP1 DUP2 ISZERO ISZERO DUP3 SUB PUSH2 0xC9A JUMPI JUMP JUMPDEST PUSH1 0x4 CALLDATALOAD SWAP1 PUSH1 0x1 PUSH1 0x1 PUSH1 0xA0 SHL SUB DUP3 AND DUP3 SUB PUSH2 0xC9A JUMPI JUMP JUMPDEST PUSH1 0x24 CALLDATALOAD SWAP1 PUSH1 0x1 PUSH1 0x1 PUSH1 0xA0 SHL SUB DUP3 AND DUP3 SUB PUSH2 0xC9A JUMPI JUMP JUMPDEST PUSH1 0x44 CALLDATALOAD SWAP1 PUSH1 0x1 PUSH1 0x1 PUSH1 0xA0 SHL SUB DUP3 AND DUP3 SUB PUSH2 0xC9A JUMPI JUMP JUMPDEST PUSH1 0x64 CALLDATALOAD SWAP1 PUSH1 0x1 PUSH1 0x1 PUSH1 0xA0 SHL SUB DUP3 AND DUP3 SUB PUSH2 0xC9A JUMPI JUMP JUMPDEST DUP1 SLOAD DUP3 LT ISZERO PUSH2 0x3D25 JUMPI PUSH1 0x0 MSTORE PUSH1 0x20 PUSH1 0x0 KECCAK256 ADD SWAP1 PUSH1 0x0 SWAP1 JUMP JUMPDEST PUSH4 0x4E487B71 PUSH1 0xE0 SHL PUSH1 0x0 MSTORE PUSH1 0x32 PUSH1 0x4 MSTORE PUSH1 0x24 PUSH1 0x0 REVERT JUMPDEST PUSH1 0x40 SWAP2 SWAP5 SWAP4 SWAP3 PUSH1 0x60 DUP3 ADD SWAP6 DUP3 MSTORE PUSH1 0x20 DUP3 ADD MSTORE ADD MSTORE JUMP JUMPDEST PUSH1 0x40 SWAP1 PUSH1 0x3 NOT ADD SLT PUSH2 0xC9A JUMPI PUSH1 0x4 CALLDATALOAD SWAP1 PUSH1 0x24 CALLDATALOAD SWAP1 JUMP JUMPDEST PUSH1 0x1 PUSH1 0x1 PUSH1 0x40 SHL SUB DUP2 GT PUSH2 0x15B0 JUMPI PUSH1 0x40 MSTORE JUMP JUMPDEST PUSH1 0x1F SWAP1 SWAP2 ADD PUSH1 0x1F NOT AND DUP2 ADD SWAP1 PUSH1 0x1 PUSH1 0x1 PUSH1 0x40 SHL SUB DUP3 GT SWAP1 DUP3 LT OR PUSH2 0x15B0 JUMPI PUSH1 0x40 MSTORE JUMP JUMPDEST PUSH1 0x1 PUSH1 0x1 PUSH1 0x40 SHL SUB DUP2 GT PUSH2 0x15B0 JUMPI PUSH1 0x1F ADD PUSH1 0x1F NOT AND PUSH1 0x20 ADD SWAP1 JUMP JUMPDEST DUP1 SLOAD DUP3 LT ISZERO PUSH2 0x3D25 JUMPI PUSH1 0x0 MSTORE PUSH1 0x20 PUSH1 0x0 KECCAK256 SWAP1 PUSH1 0x1 SHL ADD SWAP1 PUSH1 0x0 SWAP1 JUMP JUMPDEST PUSH1 0x1 PUSH1 0x1 PUSH1 0xA0 SHL SUB SWAP1 SWAP2 AND DUP2 MSTORE PUSH1 0x20 DUP2 ADD SWAP2 SWAP1 SWAP2 MSTORE PUSH1 0x40 ADD SWAP1 JUMP JUMPDEST DUP1 SLOAD DUP3 LT ISZERO PUSH2 0x3D25 JUMPI PUSH1 0x0 MSTORE PUSH1 0x6 PUSH1 0x20 PUSH1 0x0 KECCAK256 SWAP2 MUL ADD SWAP1 PUSH1 0x0 SWAP1 JUMP JUMPDEST SWAP2 DUP2 PUSH1 0x1F DUP5 ADD SLT ISZERO PUSH2 0xC9A JUMPI DUP3 CALLDATALOAD SWAP2 PUSH1 0x1 PUSH1 0x1 PUSH1 0x40 SHL SUB DUP4 GT PUSH2 0xC9A JUMPI PUSH1 0x20 DUP1 DUP6 ADD SWAP5 DUP5 PUSH1 0x5 SHL ADD ADD GT PUSH2 0xC9A JUMPI JUMP JUMPDEST DUP1 SLOAD SWAP2 SWAP1 PUSH1 0x1 PUSH1 0x40 SHL DUP4 LT ISZERO PUSH2 0x15B0 JUMPI DUP3 PUSH2 0x3E5E SWAP2 PUSH1 0x1 PUSH2 0x3E7C SWAP6 ADD DUP2 SSTORE PUSH2 0x3D0D JUMP JUMPDEST SWAP1 SWAP2 SWAP1 PUSH1 0x1 DUP1 PUSH1 0xA0 SHL SUB DUP1 DUP5 SLOAD SWAP3 PUSH1 0x3 SHL SWAP4 AND DUP4 SHL SWAP3 SHL NOT AND OR SWAP1 SSTORE JUMP JUMPDEST JUMP JUMPDEST ISZERO PUSH2 0x3E85 JUMPI JUMP JUMPDEST PUSH1 0x40 MLOAD PUSH3 0x461BCD PUSH1 0xE5 SHL DUP2 MSTORE PUSH1 0x20 PUSH1 0x4 DUP3 ADD MSTORE PUSH1 0x12 PUSH1 0x24 DUP3 ADD MSTORE PUSH18 0x10DBDB9D1C9858DD081A5CC81C185D5CD959 PUSH1 0x72 SHL PUSH1 0x44 DUP3 ADD MSTORE PUSH1 0x64 SWAP1 REVERT JUMPDEST SWAP1 DUP2 PUSH1 0x20 SWAP2 SUB SLT PUSH2 0xC9A JUMPI MLOAD DUP1 ISZERO ISZERO DUP2 SUB PUSH2 0xC9A JUMPI SWAP1 JUMP JUMPDEST PUSH1 0x1 PUSH1 0x1 PUSH1 0xA0 SHL SUB SWAP2 DUP3 AND DUP2 MSTORE SWAP2 AND PUSH1 0x20 DUP3 ADD MSTORE PUSH1 0x40 DUP2 ADD SWAP2 SWAP1 SWAP2 MSTORE PUSH1 0x60 ADD SWAP1 JUMP JUMPDEST DUP2 DUP2 MUL SWAP3 SWAP2 DUP2 ISZERO SWAP2 DUP5 DIV EQ OR ISZERO PUSH2 0x3F0C JUMPI JUMP JUMPDEST PUSH4 0x4E487B71 PUSH1 0xE0 SHL PUSH1 0x0 MSTORE PUSH1 0x11 PUSH1 0x4 MSTORE PUSH1 0x24 PUSH1 0x0 REVERT JUMPDEST SWAP2 SWAP1 DUP3 ADD DUP1 SWAP3 GT PUSH2 0x3F0C JUMPI JUMP JUMPDEST DUP2 ISZERO PUSH2 0x3F39 JUMPI DIV SWAP1 JUMP JUMPDEST PUSH4 0x4E487B71 PUSH1 0xE0 SHL PUSH1 0x0 MSTORE PUSH1 0x12 PUSH1 0x4 MSTORE PUSH1 0x24 PUSH1 0x0 REVERT JUMPDEST SWAP2 SWAP1 DUP3 SUB SWAP2 DUP3 GT PUSH2 0x3F0C JUMPI JUMP JUMPDEST ISZERO PUSH2 0x3F63 JUMPI JUMP JUMPDEST PUSH1 0x40 MLOAD PUSH3 0x461BCD PUSH1 0xE5 SHL DUP2 MSTORE PUSH1 0x20 PUSH1 0x4 DUP3 ADD MSTORE PUSH1 0x8 PUSH1 0x24 DUP3 ADD MSTORE PUSH8 0x111A5CD8589B1959 PUSH1 0xC2 SHL PUSH1 0x44 DUP3 ADD MSTORE PUSH1 0x64 SWAP1 REVERT JUMPDEST PUSH1 0x3 DUP2 LT ISZERO PUSH2 0x3FBD JUMPI PUSH1 0x2 DUP2 LT ISZERO PUSH2 0x3FB7 JUMPI PUSH1 0x1 GT ISZERO PUSH2 0x3FB2 JUMPI PUSH1 0x0 SWAP1 JUMP JUMPDEST PUSH1 0x5 SWAP1 JUMP JUMPDEST POP PUSH1 0xA SWAP1 JUMP JUMPDEST POP PUSH1 0xF SWAP1 JUMP JUMPDEST PUSH1 0x60 SWAP2 SWAP5 SWAP4 SWAP3 PUSH1 0x80 DUP3 ADD SWAP6 DUP3 MSTORE PUSH1 0x20 DUP3 ADD MSTORE PUSH1 0x0 PUSH1 0x40 DUP3 ADD MSTORE ADD MSTORE JUMP JUMPDEST PUSH1 0x0 CALLER DUP2 MSTORE PUSH1 0x20 SWAP1 PUSH1 0x10 DUP3 MSTORE PUSH1 0x40 SWAP1 DUP2 DUP2 KECCAK256 SWAP3 PUSH1 0x1 DUP1 DUP6 ADD SLOAD ISZERO DUP1 ISZERO PUSH2 0x454C JUMPI JUMPDEST PUSH2 0x453B JUMPI CALLER DUP4 MSTORE PUSH1 0x11 DUP3 MSTORE DUP4 DUP4 KECCAK256 DUP4 SWAP2 SWAP1 DUP3 DUP3 JUMPDEST PUSH2 0x43C1 JUMPI JUMPDEST POP POP DUP2 ISZERO PUSH2 0x43B0 JUMPI CALLER DUP5 MSTORE PUSH1 0xF DUP4 MSTORE PUSH2 0x4039 DUP3 PUSH1 0x3 DUP8 DUP8 KECCAK256 ADD SLOAD PUSH2 0x3F22 JUMP JUMPDEST SWAP6 CALLER DUP6 MSTORE PUSH1 0xF DUP5 MSTORE DUP6 DUP6 KECCAK256 SWAP7 PUSH1 0x4 SWAP8 DUP9 DUP2 ADD SLOAD DUP1 SWAP3 GT PUSH2 0x4398 JUMPI JUMPDEST POP POP DUP3 ISZERO PUSH2 0x4388 JUMPI CALLER DUP6 MSTORE PUSH1 0xF DUP5 MSTORE PUSH1 0x3 DUP7 DUP7 KECCAK256 ADD PUSH2 0x4074 DUP5 DUP3 SLOAD PUSH2 0x3F22 JUMP JUMPDEST SWAP1 SSTORE DUP5 SLOAD DUP7 MLOAD PUSH4 0x70A08231 PUSH1 0xE0 SHL DUP1 DUP3 MSTORE ADDRESS DUP11 DUP4 ADD MSTORE DUP8 SWAP6 SWAP3 PUSH1 0x1 PUSH1 0x1 PUSH1 0xA0 SHL SUB SWAP3 DUP5 DUP8 SHR SWAP2 DUP5 AND SWAP1 DUP10 DUP2 PUSH1 0x24 DUP2 DUP6 GAS STATICCALL SWAP1 DUP2 ISZERO PUSH2 0x437E JUMPI DUP12 DUP14 DUP16 SWAP3 DUP14 SWAP6 SWAP5 DUP8 SWAP2 DUP5 SWAP2 PUSH2 0x4345 JUMPI JUMPDEST POP LT ISZERO DUP1 PUSH2 0x433C JUMPI JUMPDEST PUSH2 0x42DF JUMPI JUMPDEST POP POP POP POP POP PUSH1 0x18 SLOAD DUP1 ISZERO DUP1 ISZERO PUSH2 0x42CB JUMPI JUMPDEST ISZERO PUSH2 0x428B JUMPI POP PUSH8 0xDE0B6B3A7640000 SWAP1 JUMPDEST PUSH8 0xDE0B6B3A7640000 SWAP1 DUP2 DUP2 MUL SWAP2 DUP2 DUP4 DIV EQ SWAP1 ISZERO OR ISZERO PUSH2 0x4278 JUMPI SWAP1 PUSH2 0x4110 SWAP2 PUSH2 0x3F2F JUMP JUMPDEST SWAP2 DUP9 SWAP6 SLOAD AND SWAP1 DUP10 MLOAD SWAP1 DUP2 MSTORE ADDRESS DUP12 DUP3 ADD MSTORE DUP8 DUP2 PUSH1 0x24 DUP2 DUP6 GAS STATICCALL SWAP1 DUP2 ISZERO PUSH2 0x426E JUMPI SWAP1 DUP4 SWAP2 DUP11 SWAP2 PUSH2 0x4239 JUMPI JUMPDEST POP LT ISZERO DUP1 PUSH2 0x4230 JUMPI JUMPDEST PUSH2 0x41AF JUMPI JUMPDEST POP POP SWAP2 PUSH1 0x0 DUP1 MLOAD PUSH1 0x20 PUSH2 0x5DA7 DUP4 CODECOPY DUP2 MLOAD SWAP2 MSTORE SWAP2 PUSH1 0xF SWAP6 SWAP5 SWAP4 DUP9 MLOAD SWAP1 DUP2 MSTORE DUP8 DUP7 DUP3 ADD MSTORE PUSH1 0x0 DUP1 MLOAD PUSH1 0x20 PUSH2 0x5EA7 DUP4 CODECOPY DUP2 MLOAD SWAP2 MSTORE DUP10 CALLER SWAP3 LOG2 SLOAD SWAP1 PUSH2 0x418E DUP9 MLOAD SWAP3 DUP4 SWAP3 CALLER SWAP7 DUP5 PUSH2 0x3FC3 JUMP JUMPDEST SUB SWAP1 LOG2 CALLER DUP4 MSTORE MSTORE KECCAK256 PUSH1 0x3 DUP2 ADD SLOAD SWAP2 ADD SLOAD GT ISZERO PUSH2 0x41A6 JUMPI JUMP JUMPDEST PUSH2 0x3E7C CALLER PUSH2 0x4F8C JUMP JUMPDEST DUP2 PUSH2 0x41D6 SWAP3 SWAP4 SWAP6 POP DUP8 SWAP2 DUP12 DUP11 DUP13 MLOAD DUP1 SWAP7 DUP2 SWAP6 DUP3 SWAP5 PUSH4 0xA9059CBB PUSH1 0xE0 SHL DUP5 MSTORE CALLER SWAP1 DUP5 ADD PUSH2 0x3DD4 JUMP JUMPDEST SUB SWAP3 GAS CALL DUP1 ISZERO PUSH2 0x4226 JUMPI SWAP2 PUSH1 0x0 DUP1 MLOAD PUSH1 0x20 PUSH2 0x5DA7 DUP4 CODECOPY DUP2 MLOAD SWAP2 MSTORE SWAP4 SWAP2 PUSH1 0xF SWAP8 SWAP7 SWAP6 SWAP4 PUSH2 0x4209 JUMPI JUMPDEST POP SWAP4 SWAP5 SWAP6 DUP2 SWAP4 POP PUSH2 0x4147 JUMP JUMPDEST PUSH2 0x421F SWAP1 DUP8 RETURNDATASIZE DUP10 GT PUSH2 0x6F7 JUMPI PUSH2 0x6E8 DUP2 DUP4 PUSH2 0x3D7A JUMP JUMPDEST POP CODESIZE PUSH2 0x41FD JUMP JUMPDEST DUP9 MLOAD RETURNDATASIZE DUP10 DUP3 RETURNDATACOPY RETURNDATASIZE SWAP1 REVERT JUMPDEST POP DUP2 ISZERO ISZERO PUSH2 0x4142 JUMP JUMPDEST DUP1 SWAP3 POP DUP10 DUP1 SWAP3 POP RETURNDATASIZE DUP4 GT PUSH2 0x4267 JUMPI JUMPDEST PUSH2 0x4252 DUP2 DUP4 PUSH2 0x3D7A JUMP JUMPDEST DUP2 ADD SUB SLT PUSH2 0x4263 JUMPI DUP3 SWAP1 MLOAD CODESIZE PUSH2 0x4139 JUMP JUMPDEST DUP9 DUP1 REVERT JUMPDEST POP RETURNDATASIZE PUSH2 0x4248 JUMP JUMPDEST DUP11 MLOAD RETURNDATASIZE DUP12 DUP3 RETURNDATACOPY RETURNDATASIZE SWAP1 REVERT JUMPDEST PUSH4 0x4E487B71 PUSH1 0xE0 SHL DUP11 MSTORE PUSH1 0x11 DUP13 MSTORE PUSH1 0x24 DUP11 REVERT JUMPDEST PUSH1 0x17 SLOAD PUSH8 0xDE0B6B3A7640000 SWAP1 DUP2 DUP2 MUL SWAP2 DUP2 DUP4 DIV EQ SWAP1 ISZERO OR ISZERO PUSH2 0x42B8 JUMPI SWAP1 PUSH2 0x42B2 SWAP2 PUSH2 0x3F2F JUMP JUMPDEST SWAP1 PUSH2 0x40EC JUMP JUMPDEST PUSH4 0x4E487B71 PUSH1 0xE0 SHL DUP12 MSTORE PUSH1 0x11 DUP14 MSTORE PUSH1 0x24 DUP12 REVERT JUMPDEST POP PUSH9 0x3635C9ADC5DEA00000 PUSH1 0x17 SLOAD LT PUSH2 0x40DB JUMP JUMPDEST MLOAD PUSH4 0xA9059CBB PUSH1 0xE0 SHL DUP2 MSTORE SWAP5 SWAP11 POP DUP5 SWAP3 SWAP2 DUP4 SWAP2 SWAP1 DUP3 SWAP1 PUSH2 0x4304 SWAP1 DUP15 SWAP1 CALLER SWAP1 DUP5 ADD PUSH2 0x3DD4 JUMP JUMPDEST SUB SWAP3 GAS CALL DUP1 ISZERO PUSH2 0x426E JUMPI PUSH2 0x431F JUMPI JUMPDEST POP DUP6 DUP8 CODESIZE DUP13 DUP12 DUP14 PUSH2 0x40CA JUMP JUMPDEST PUSH2 0x4335 SWAP1 DUP9 RETURNDATASIZE DUP11 GT PUSH2 0x6F7 JUMPI PUSH2 0x6E8 DUP2 DUP4 PUSH2 0x3D7A JUMP JUMPDEST POP CODESIZE PUSH2 0x4313 JUMP JUMPDEST POP DUP6 ISZERO ISZERO PUSH2 0x40C5 JUMP JUMPDEST SWAP6 SWAP7 SWAP5 POP POP POP POP POP DUP2 DUP2 RETURNDATASIZE DUP4 GT PUSH2 0x4377 JUMPI JUMPDEST PUSH2 0x4361 DUP2 DUP4 PUSH2 0x3D7A JUMP JUMPDEST DUP2 ADD SUB SLT PUSH2 0x39E4 JUMPI SWAP1 DUP13 DUP12 DUP14 DUP6 DUP14 SWAP6 MLOAD CODESIZE PUSH2 0x40BC JUMP JUMPDEST POP RETURNDATASIZE PUSH2 0x4357 JUMP JUMPDEST DUP13 MLOAD RETURNDATASIZE DUP14 DUP3 RETURNDATACOPY RETURNDATASIZE SWAP1 REVERT JUMPDEST POP POP POP POP POP POP POP PUSH2 0x3E7C CALLER PUSH2 0x4F8C JUMP JUMPDEST PUSH2 0x43A8 SWAP3 SWAP5 POP PUSH1 0x3 ADD SLOAD SWAP1 PUSH2 0x3F4F JUMP JUMPDEST SWAP2 CODESIZE DUP1 PUSH2 0x4054 JUMP JUMPDEST DUP5 MLOAD PUSH4 0xFEC21FD PUSH1 0xE2 SHL DUP2 MSTORE PUSH1 0x4 SWAP1 REVERT JUMPDEST DUP2 SLOAD DUP2 LT ISZERO PUSH2 0x4536 JUMPI DUP3 PUSH1 0xFF PUSH1 0x4 PUSH2 0x43D9 DUP5 DUP7 PUSH2 0x3DEF JUMP JUMPDEST POP ADD SLOAD AND ISZERO PUSH2 0x452E JUMPI POP DUP6 PUSH2 0x43EE DUP3 DUP5 PUSH2 0x3DEF JUMP JUMPDEST POP SWAP1 PUSH1 0x7 PUSH1 0x3 DUP1 SWAP4 ADD SLOAD EQ PUSH1 0x0 EQ PUSH2 0x44EF JUMPI POP PUSH3 0xCB7356 JUMPDEST PUSH1 0x3C PUSH2 0x4420 PUSH1 0x2 PUSH2 0x4417 DUP7 DUP9 PUSH2 0x3DEF JUMP JUMPDEST POP ADD SLOAD TIMESTAMP PUSH2 0x3F4F JUMP JUMPDEST DIV SWAP2 DUP1 PUSH2 0x442D DUP6 DUP8 PUSH2 0x3DEF JUMP JUMPDEST POP ADD SLOAD DUP4 GT PUSH2 0x44D8 JUMPI JUMPDEST POP DUP5 DUP3 ISZERO PUSH2 0x44CC JUMPI SWAP2 PUSH2 0x445F PUSH2 0x4464 SWAP3 PUSH4 0x3B9ACA00 SWAP5 PUSH2 0x4457 DUP8 DUP10 PUSH2 0x3DEF JUMP JUMPDEST POP ADD SLOAD PUSH2 0x3EF9 JUMP JUMPDEST PUSH2 0x3EF9 JUMP JUMPDEST DIV PUSH2 0x446F DUP3 DUP5 PUSH2 0x3DEF JUMP JUMPDEST POP SWAP1 PUSH1 0x5 DUP1 SWAP3 ADD SLOAD SWAP1 DUP2 DUP2 GT PUSH2 0x4490 JUMPI JUMPDEST POP POP POP SWAP1 DUP3 DUP1 SWAP3 JUMPDEST ADD SWAP1 SWAP2 PUSH2 0x4015 JUMP JUMPDEST SWAP6 PUSH2 0x44C2 PUSH2 0x44AD PUSH2 0x44A6 DUP9 SWAP8 SWAP7 SWAP5 DUP9 SWAP7 SWAP11 PUSH2 0x3F4F JUMP JUMPDEST DUP1 SWAP4 PUSH2 0x3F22 JUMP JUMPDEST SWAP8 PUSH2 0x44B8 DUP5 DUP8 PUSH2 0x3DEF JUMP JUMPDEST POP ADD SWAP2 DUP3 SLOAD PUSH2 0x3F22 JUMP JUMPDEST SWAP1 SSTORE SWAP2 SWAP3 CODESIZE PUSH2 0x4480 JUMP JUMPDEST SWAP4 SWAP3 SWAP1 POP DUP4 SWAP2 POP PUSH2 0x4488 JUMP JUMPDEST SWAP1 SWAP2 POP PUSH2 0x44E5 DUP4 DUP6 PUSH2 0x3DEF JUMP JUMPDEST POP ADD SLOAD SWAP1 CODESIZE PUSH2 0x4437 JUMP JUMPDEST PUSH1 0xF DUP3 PUSH2 0x44FC DUP6 DUP8 PUSH2 0x3DEF JUMP JUMPDEST POP ADD SLOAD SUB PUSH2 0x450E JUMPI POP PUSH3 0xFE502B PUSH2 0x4406 JUMP JUMPDEST PUSH1 0x1E DUP3 PUSH2 0x451B DUP6 DUP8 PUSH2 0x3DEF JUMP JUMPDEST POP ADD SLOAD SUB PUSH2 0x4406 JUMPI POP PUSH4 0x1312D00 PUSH2 0x4406 JUMP JUMPDEST DUP1 SWAP3 SWAP2 PUSH2 0x4488 JUMP JUMPDEST PUSH2 0x401A JUMP JUMPDEST DUP4 MLOAD PUSH4 0x4065AAF1 PUSH1 0xE1 SHL DUP2 MSTORE PUSH1 0x4 SWAP1 REVERT JUMPDEST POP PUSH1 0xFF PUSH1 0x3 DUP7 ADD SLOAD AND PUSH2 0x4001 JUMP JUMPDEST PUSH1 0x0 NOT DUP2 EQ PUSH2 0x3F0C JUMPI PUSH1 0x1 ADD SWAP1 JUMP JUMPDEST ISZERO PUSH2 0x4570 JUMPI JUMP JUMPDEST PUSH1 0x40 MLOAD PUSH3 0x461BCD PUSH1 0xE5 SHL DUP2 MSTORE PUSH1 0x20 PUSH1 0x4 DUP3 ADD MSTORE PUSH1 0x7 PUSH1 0x24 DUP3 ADD MSTORE PUSH7 0x125B9D985B1A59 PUSH1 0xCA SHL PUSH1 0x44 DUP3 ADD MSTORE PUSH1 0x64 SWAP1 REVERT JUMPDEST SWAP2 PUSH1 0x1 PUSH1 0x1 PUSH1 0xA0 SHL SUB SWAP1 DUP2 DUP5 AND SWAP1 DUP2 ISZERO ISZERO DUP1 PUSH2 0x48EE JUMPI JUMPDEST PUSH2 0x45BF SWAP1 PUSH2 0x4569 JUMP JUMPDEST DUP3 DUP5 AND DUP1 DUP4 EQ PUSH2 0x48BE JUMPI DUP5 DUP5 PUSH1 0x0 SWAP7 JUMPDEST AND DUP1 ISZERO ISZERO DUP1 PUSH2 0x48B4 JUMPI JUMPDEST ISZERO PUSH2 0x4635 JUMPI DUP5 DUP2 EQ PUSH2 0x4605 JUMPI PUSH1 0x0 MSTORE PUSH1 0xF PUSH1 0x20 MSTORE DUP5 PUSH2 0x45FF DUP2 PUSH1 0x40 PUSH1 0x0 KECCAK256 SLOAD AND SWAP8 PUSH2 0x455A JUMP JUMPDEST SWAP7 PUSH2 0x45CF JUMP JUMPDEST PUSH1 0x40 MLOAD PUSH3 0x461BCD PUSH1 0xE5 SHL DUP2 MSTORE PUSH1 0x20 PUSH1 0x4 DUP3 ADD MSTORE PUSH1 0x8 PUSH1 0x24 DUP3 ADD MSTORE PUSH8 0x21B4B931BAB630B9 PUSH1 0xC1 SHL PUSH1 0x44 DUP3 ADD MSTORE PUSH1 0x64 SWAP1 REVERT JUMPDEST POP PUSH1 0x0 DUP5 DUP2 MSTORE PUSH1 0xF PUSH1 0x20 DUP2 DUP2 MSTORE PUSH1 0x40 SWAP3 DUP4 SWAP1 KECCAK256 DUP1 SLOAD SWAP7 SWAP11 SWAP6 SWAP10 POP DUP7 DUP10 AND SWAP9 SWAP5 SWAP7 DUP10 DUP12 EQ PUSH2 0x48A7 JUMPI PUSH1 0x1 PUSH1 0x1 PUSH1 0xA0 SHL SUB NOT AND DUP11 OR SWAP1 SSTORE DUP8 ISZERO ISZERO SWAP5 DUP6 PUSH2 0x47CA JUMPI JUMPDEST PUSH2 0x4689 SWAP1 DUP11 PUSH1 0x0 MSTORE PUSH1 0x12 DUP4 MSTORE DUP5 PUSH1 0x0 KECCAK256 PUSH2 0x3E3B JUMP JUMPDEST DUP7 PUSH1 0x0 MSTORE DUP2 DUP2 MSTORE PUSH1 0x2 SWAP6 PUSH1 0x2 DUP5 PUSH1 0x0 KECCAK256 ADD SLOAD SWAP1 PUSH1 0x1 SWAP7 PUSH1 0x1 DUP4 ADD DUP1 SWAP4 GT PUSH2 0x3F0C JUMPI PUSH2 0x474A JUMPI JUMPDEST DUP11 PUSH2 0x46E4 JUMPI JUMPDEST POP POP POP POP POP POP POP POP PUSH32 0xF8B9FE4D008320E6F048C61E41E9CC56CE351354AD0CB9A868BD3C4BD6928FD5 PUSH1 0x0 DUP1 LOG4 JUMP JUMPDEST PUSH1 0x0 SWAP1 DUP8 JUMPDEST PUSH2 0x46F4 JUMPI JUMPDEST POP PUSH2 0x46B5 JUMP JUMPDEST DUP7 AND DUP1 ISZERO ISZERO DUP1 PUSH2 0x4740 JUMPI JUMPDEST ISZERO PUSH2 0x473B JUMPI DUP1 PUSH1 0x0 MSTORE DUP5 DUP5 MSTORE DUP9 DUP7 PUSH1 0x0 KECCAK256 ADD PUSH2 0x471C DUP5 DUP3 SLOAD PUSH2 0x3F22 JUMP JUMPDEST SWAP1 SSTORE PUSH1 0x0 MSTORE DUP4 DUP4 MSTORE PUSH2 0x4734 DUP7 DUP7 PUSH1 0x0 KECCAK256 SLOAD AND SWAP2 PUSH2 0x455A JUMP JUMPDEST SWAP1 DUP8 PUSH2 0x46E9 JUMP JUMPDEST PUSH2 0x46EE JUMP JUMPDEST POP PUSH1 0x1E DUP3 LT PUSH2 0x46FF JUMP JUMPDEST DUP7 PUSH1 0x0 DUP8 DUP13 DUP4 JUMPDEST PUSH2 0x475F JUMPI JUMPDEST POP POP POP POP PUSH2 0x46AF JUMP JUMPDEST AND DUP1 ISZERO ISZERO DUP1 PUSH2 0x47C0 JUMPI JUMPDEST ISZERO PUSH2 0x47B9 JUMPI PUSH1 0x0 DUP2 DUP2 MSTORE DUP8 DUP8 MSTORE DUP9 SWAP1 KECCAK256 DUP12 ADD DUP1 SLOAD DUP7 GT PUSH2 0x47B0 JUMPI PUSH2 0x478E DUP7 DUP3 SLOAD PUSH2 0x3F4F JUMP JUMPDEST SWAP1 SSTORE JUMPDEST PUSH1 0x0 MSTORE DUP6 DUP6 MSTORE PUSH2 0x47A7 DUP9 DUP9 PUSH1 0x0 KECCAK256 SLOAD AND SWAP2 PUSH2 0x455A JUMP JUMPDEST SWAP1 DUP9 SWAP1 DUP4 PUSH2 0x4751 JUMP JUMPDEST PUSH1 0x0 SWAP1 SSTORE PUSH2 0x4791 JUMP JUMPDEST DUP9 SWAP1 PUSH2 0x4756 JUMP JUMPDEST POP PUSH1 0x1E DUP3 LT PUSH2 0x4769 JUMP JUMPDEST SWAP9 SWAP8 SWAP7 SWAP6 SWAP5 SWAP4 SWAP3 SWAP2 SWAP1 DUP8 PUSH1 0x0 MSTORE PUSH1 0x12 DUP2 MSTORE DUP3 PUSH1 0x0 KECCAK256 SWAP10 PUSH1 0x0 JUMPDEST DUP12 SLOAD DUP1 DUP3 LT ISZERO PUSH2 0x4892 JUMPI DUP7 SWAP1 DUP11 PUSH2 0x47FB DUP16 DUP6 SWAP1 PUSH2 0x3D0D JUMP JUMPDEST SWAP4 SWAP1 SLOAD PUSH1 0x3 SWAP5 DUP6 SHL SHR AND EQ PUSH2 0x4814 JUMPI POP POP PUSH1 0x1 ADD PUSH2 0x47E3 JUMP JUMPDEST PUSH1 0x0 SWAP14 SWAP2 SWAP3 SWAP5 SWAP6 SWAP7 SWAP8 SWAP9 SWAP10 SWAP11 SWAP12 SWAP13 SWAP14 NOT SWAP5 DUP6 DUP3 ADD SWAP2 DUP3 GT PUSH2 0x3F0C JUMPI PUSH2 0x3E5E DUP11 PUSH2 0x4840 PUSH2 0x484E SWAP5 DUP7 PUSH2 0x3D0D JUMP JUMPDEST SWAP1 SLOAD SWAP1 DUP8 SHL SHR AND SWAP2 DUP5 PUSH2 0x3D0D JUMP JUMPDEST DUP1 SLOAD DUP1 ISZERO PUSH2 0x487C JUMPI PUSH2 0x4689 SWAP5 DUP10 SWAP2 ADD SWAP3 PUSH2 0x4868 DUP5 DUP5 PUSH2 0x3D0D JUMP JUMPDEST DUP2 SWAP4 SWAP2 SLOAD SWAP3 SHL SHL NOT AND SWAP1 SSTORE SSTORE JUMPDEST SWAP1 POP PUSH2 0x4674 JUMP JUMPDEST PUSH4 0x4E487B71 PUSH1 0xE0 SHL PUSH1 0x0 MSTORE PUSH1 0x31 PUSH1 0x4 MSTORE PUSH1 0x24 PUSH1 0x0 REVERT JUMPDEST POP POP PUSH2 0x4689 SWAP2 SWAP3 SWAP4 SWAP5 SWAP6 SWAP7 SWAP8 SWAP9 SWAP10 SWAP11 POP PUSH2 0x4875 JUMP JUMPDEST POP POP POP POP POP POP POP POP POP POP POP JUMP JUMPDEST POP PUSH1 0x32 DUP8 LT PUSH2 0x45D9 JUMP JUMPDEST PUSH1 0x40 MLOAD PUSH3 0x461BCD PUSH1 0xE5 SHL DUP2 MSTORE PUSH1 0x20 PUSH1 0x4 DUP3 ADD MSTORE PUSH1 0x8 PUSH1 0x24 DUP3 ADD MSTORE PUSH8 0x29B2B633103932B3 PUSH1 0xC1 SHL PUSH1 0x44 DUP3 ADD MSTORE PUSH1 0x64 SWAP1 REVERT JUMPDEST POP DUP4 DUP4 AND ISZERO ISZERO PUSH2 0x45B6 JUMP JUMPDEST SWAP2 SWAP1 DUP2 LT ISZERO PUSH2 0x3D25 JUMPI PUSH1 0x5 SHL ADD SWAP1 JUMP JUMPDEST CALLDATALOAD PUSH1 0x1 PUSH1 0x1 PUSH1 0xA0 SHL SUB DUP2 AND DUP2 SUB PUSH2 0xC9A JUMPI SWAP1 JUMP JUMPDEST PUSH1 0x1 PUSH1 0x1 PUSH1 0xA0 SHL SUB SWAP1 DUP2 AND SWAP1 DUP2 ISZERO PUSH2 0x4966 JUMPI PUSH1 0x0 DUP1 MLOAD PUSH1 0x20 PUSH2 0x5DC7 DUP4 CODECOPY DUP2 MLOAD SWAP2 MSTORE DUP1 SLOAD PUSH1 0x1 PUSH1 0x1 PUSH1 0xA0 SHL SUB NOT DUP2 AND DUP5 OR SWAP1 SWAP2 SSTORE AND PUSH1 0x0 DUP1 MLOAD PUSH1 0x20 PUSH2 0x5E67 DUP4 CODECOPY DUP2 MLOAD SWAP2 MSTORE PUSH1 0x0 DUP1 LOG3 JUMP JUMPDEST PUSH1 0x40 MLOAD PUSH4 0x1E4FBDF7 PUSH1 0xE0 SHL DUP2 MSTORE PUSH1 0x0 PUSH1 0x4 DUP3 ADD MSTORE PUSH1 0x24 SWAP1 REVERT JUMPDEST PUSH1 0x0 DUP1 MLOAD PUSH1 0x20 PUSH2 0x5DC7 DUP4 CODECOPY DUP2 MLOAD SWAP2 MSTORE SLOAD PUSH1 0x1 PUSH1 0x1 PUSH1 0xA0 SHL SUB AND CALLER SUB PUSH2 0x49A0 JUMPI JUMP JUMPDEST PUSH1 0x40 MLOAD PUSH4 0x118CDAA7 PUSH1 0xE0 SHL DUP2 MSTORE CALLER PUSH1 0x4 DUP3 ADD MSTORE PUSH1 0x24 SWAP1 REVERT JUMPDEST PUSH1 0x0 DUP1 MLOAD PUSH1 0x20 PUSH2 0x5EC7 DUP4 CODECOPY DUP2 MLOAD SWAP2 MSTORE PUSH1 0x2 DUP2 SLOAD EQ PUSH2 0x49D6 JUMPI PUSH1 0x2 SWAP1 SSTORE JUMP JUMPDEST PUSH1 0x40 MLOAD PUSH4 0x3EE5AEB5 PUSH1 0xE0 SHL DUP2 MSTORE PUSH1 0x4 SWAP1 REVERT JUMPDEST SWAP1 PUSH1 0x20 DUP3 ADD MLOAD PUSH2 0x4A0C PUSH1 0x40 DUP5 ADD SWAP2 PUSH2 0x4A06 DUP4 MLOAD PUSH1 0xE0 DUP8 ADD MLOAD SWAP1 PUSH2 0x3EF9 JUMP JUMPDEST SWAP1 PUSH2 0x3F22 JUMP JUMPDEST TIMESTAMP LT SWAP1 DUP2 ISZERO SWAP2 PUSH2 0x4ACE JUMPI PUSH2 0x4A4A DUP2 PUSH4 0x3B9ACA00 SWAP3 MLOAD PUSH1 0x7 DUP2 EQ PUSH1 0x0 EQ PUSH2 0x4AA4 JUMPI POP PUSH2 0x4A42 PUSH4 0xFFFFFFFF PUSH3 0xCB7356 JUMPDEST AND DUP8 MLOAD PUSH2 0x3EF9 JUMP JUMPDEST SWAP1 MLOAD SWAP1 PUSH2 0x3EF9 JUMP JUMPDEST DIV PUSH1 0x60 DUP5 ADD MLOAD DUP1 DUP3 GT PUSH1 0x0 EQ PUSH2 0x4A96 JUMPI PUSH2 0x4A69 PUSH2 0x4A84 SWAP2 PUSH1 0x64 SWAP4 PUSH2 0x3F4F JUMP JUMPDEST PUSH1 0x80 DUP7 ADD MLOAD SWAP1 SWAP6 SWAP1 DUP1 ISZERO PUSH2 0x4A88 JUMPI PUSH1 0xC0 SWAP1 SWAP2 JUMPDEST ADD MLOAD SWAP1 PUSH2 0x3EF9 JUMP JUMPDEST DIV SWAP2 JUMP JUMPDEST POP PUSH1 0xC0 PUSH1 0xA0 DUP3 ADD MLOAD SWAP2 PUSH2 0x4A7C JUMP JUMPDEST POP POP PUSH1 0x64 PUSH2 0x4A84 PUSH1 0x0 PUSH2 0x4A69 JUMP JUMPDEST PUSH1 0xF SUB PUSH2 0x4ABC JUMPI PUSH2 0x4A42 PUSH4 0xFFFFFFFF PUSH3 0xFE502B PUSH2 0x4A3A JUMP JUMPDEST PUSH2 0x4A42 PUSH4 0xFFFFFFFF PUSH4 0x1312D00 PUSH2 0x4A3A JUMP JUMPDEST POP PUSH1 0x0 SWAP3 POP DUP3 SWAP2 DUP3 SWAP2 POP JUMP JUMPDEST SWAP4 SWAP1 SWAP2 DUP2 PUSH2 0x4B53 JUMPI JUMPDEST POP POP PUSH1 0x40 MLOAD PUSH4 0xA9059CBB PUSH1 0xE0 SHL DUP2 MSTORE SWAP3 PUSH1 0x20 SWAP3 DUP5 SWAP3 DUP4 SWAP2 PUSH1 0x0 SWAP2 DUP4 SWAP2 PUSH2 0x4B0C SWAP2 PUSH1 0x4 DUP5 ADD PUSH2 0x3DD4 JUMP JUMPDEST SUB SWAP3 PUSH1 0x1 PUSH1 0x1 PUSH1 0xA0 SHL SUB AND GAS CALL SWAP1 DUP2 ISZERO PUSH2 0x4B47 JUMPI PUSH1 0x0 SWAP2 PUSH2 0x4B2B JUMPI POP SWAP1 JUMP JUMPDEST PUSH2 0x4B44 SWAP2 POP PUSH1 0x20 RETURNDATASIZE PUSH1 0x20 GT PUSH2 0x6F7 JUMPI PUSH2 0x6E8 DUP2 DUP4 PUSH2 0x3D7A JUMP JUMPDEST SWAP1 JUMP JUMPDEST PUSH1 0x40 MLOAD RETURNDATASIZE PUSH1 0x0 DUP3 RETURNDATACOPY RETURNDATASIZE SWAP1 REVERT JUMPDEST PUSH1 0x1 DUP1 PUSH1 0xA0 SWAP6 SWAP5 SWAP6 SHL SUB DUP1 DUP7 AND SWAP2 PUSH1 0x40 SWAP4 DUP5 MLOAD SWAP3 PUSH4 0x70A08231 PUSH1 0xE0 SHL DUP5 MSTORE DUP1 DUP9 AND SWAP1 DUP2 PUSH1 0x4 DUP7 ADD MSTORE PUSH1 0x20 SWAP5 DUP6 DUP2 PUSH1 0x24 DUP2 DUP11 GAS STATICCALL SWAP1 DUP2 ISZERO PUSH2 0x4CD6 JUMPI SWAP1 DUP5 SWAP2 PUSH1 0x0 SWAP2 PUSH2 0x4CA5 JUMPI JUMPDEST POP LT PUSH2 0x4C96 JUMPI DUP7 MLOAD SWAP2 PUSH4 0x6EB1769F PUSH1 0xE1 SHL DUP4 MSTORE PUSH1 0x4 DUP4 ADD MSTORE DUP4 AND PUSH1 0x24 DUP3 ADD MSTORE DUP4 DUP2 PUSH1 0x44 DUP2 DUP9 GAS STATICCALL SWAP1 DUP2 ISZERO PUSH2 0x4C8B JUMPI SWAP1 DUP3 SWAP2 PUSH1 0x0 SWAP2 PUSH2 0x4C5A JUMPI JUMPDEST POP LT PUSH2 0x4C4D JUMPI PUSH2 0x4BFB SWAP4 DUP4 SWAP3 PUSH1 0x0 DUP8 MLOAD DUP1 SWAP8 DUP2 SWAP6 DUP3 SWAP5 PUSH4 0x23B872DD PUSH1 0xE0 SHL DUP5 MSTORE DUP14 PUSH1 0x4 DUP6 ADD PUSH2 0x3ED7 JUMP JUMPDEST SUB SWAP3 GAS CALL SWAP3 DUP4 ISZERO PUSH2 0x4C43 JUMPI POP PUSH1 0x0 SWAP3 PUSH2 0x4C26 JUMPI JUMPDEST POP POP ISZERO PUSH2 0x4C1E JUMPI SWAP1 CODESIZE DUP1 PUSH2 0x4AE3 JUMP JUMPDEST POP POP POP PUSH1 0x0 SWAP1 JUMP JUMPDEST PUSH2 0x4C3C SWAP3 POP DUP1 RETURNDATASIZE LT PUSH2 0x6F7 JUMPI PUSH2 0x6E8 DUP2 DUP4 PUSH2 0x3D7A JUMP JUMPDEST CODESIZE DUP1 PUSH2 0x4C0F JUMP JUMPDEST MLOAD RETURNDATASIZE PUSH1 0x0 DUP3 RETURNDATACOPY RETURNDATASIZE SWAP1 REVERT JUMPDEST POP POP POP POP POP POP POP POP PUSH1 0x0 SWAP1 JUMP JUMPDEST DUP1 SWAP3 POP DUP6 DUP1 SWAP3 POP RETURNDATASIZE DUP4 GT PUSH2 0x4C84 JUMPI JUMPDEST PUSH2 0x4C73 DUP2 DUP4 PUSH2 0x3D7A JUMP JUMPDEST DUP2 ADD SUB SLT PUSH2 0xC9A JUMPI DUP2 SWAP1 MLOAD CODESIZE PUSH2 0x4BD1 JUMP JUMPDEST POP RETURNDATASIZE PUSH2 0x4C69 JUMP JUMPDEST DUP7 MLOAD RETURNDATASIZE PUSH1 0x0 DUP3 RETURNDATACOPY RETURNDATASIZE SWAP1 REVERT JUMPDEST POP POP POP POP POP POP POP POP POP POP PUSH1 0x0 SWAP1 JUMP JUMPDEST DUP1 SWAP3 POP DUP8 DUP1 SWAP3 POP RETURNDATASIZE DUP4 GT PUSH2 0x4CCF JUMPI JUMPDEST PUSH2 0x4CBE DUP2 DUP4 PUSH2 0x3D7A JUMP JUMPDEST DUP2 ADD SUB SLT PUSH2 0xC9A JUMPI DUP4 SWAP1 MLOAD CODESIZE PUSH2 0x4B98 JUMP JUMPDEST POP RETURNDATASIZE PUSH2 0x4CB4 JUMP JUMPDEST DUP9 MLOAD RETURNDATASIZE PUSH1 0x0 DUP3 RETURNDATACOPY RETURNDATASIZE SWAP1 REVERT JUMPDEST DUP1 MLOAD DUP3 LT ISZERO PUSH2 0x3D25 JUMPI PUSH1 0x20 SWAP2 PUSH1 0x5 SHL ADD ADD SWAP1 JUMP JUMPDEST DUP1 SLOAD SWAP1 PUSH1 0x0 SWAP1 DUP2 DUP2 SSTORE DUP3 PUSH2 0x4D08 JUMPI POP POP POP JUMP JUMPDEST PUSH1 0x1 SWAP1 PUSH1 0x1 PUSH1 0x1 PUSH1 0xFF SHL SUB DUP5 AND DUP5 SUB PUSH2 0x2479 JUMPI DUP3 MSTORE PUSH1 0x20 DUP3 KECCAK256 SWAP3 PUSH1 0x1 SHL DUP4 ADD SWAP3 JUMPDEST DUP4 DUP2 LT PUSH2 0x4D36 JUMPI POP POP POP POP JUMP JUMPDEST DUP1 DUP4 PUSH1 0x2 SWAP3 SSTORE DUP4 DUP4 DUP3 ADD SSTORE ADD PUSH2 0x4D29 JUMP JUMPDEST PUSH1 0x0 DUP2 DUP2 MSTORE PUSH1 0x1E PUSH1 0x20 SWAP1 DUP2 MSTORE PUSH1 0x40 DUP1 DUP4 KECCAK256 SLOAD PUSH1 0x1D DUP4 MSTORE DUP2 DUP5 KECCAK256 DUP1 SLOAD SWAP4 SWAP7 SWAP5 SWAP6 SWAP3 SWAP5 SWAP3 SWAP4 PUSH1 0x1 PUSH1 0x1 PUSH1 0xA0 SHL SUB SWAP3 DUP4 AND SWAP4 SWAP1 PUSH1 0x1 PUSH1 0x1 PUSH1 0x40 SHL SUB SWAP1 DUP2 DUP2 GT PUSH2 0x4EBA JUMPI DUP8 MLOAD SWAP4 SWAP2 PUSH2 0x4D9B PUSH1 0x5 DUP4 SWAP1 SHL DUP13 ADD DUP7 PUSH2 0x3D7A JUMP JUMPDEST DUP2 DUP6 MSTORE SWAP2 DUP10 MSTORE DUP10 DUP10 KECCAK256 DUP10 SWAP3 DUP12 DUP7 ADD JUMPDEST DUP4 DUP6 LT PUSH2 0x4E83 JUMPI POP POP POP POP POP DUP7 JUMPDEST DUP3 MLOAD DUP2 LT ISZERO PUSH2 0x4E6C JUMPI DUP1 PUSH2 0x4DE9 DUP6 PUSH2 0x4DD2 PUSH1 0x1 SWAP5 DUP8 PUSH2 0x4CE1 JUMP JUMPDEST MLOAD MLOAD AND DUP12 PUSH2 0x4DE0 DUP5 DUP9 PUSH2 0x4CE1 JUMP JUMPDEST MLOAD ADD MLOAD SWAP1 PUSH2 0x58FD JUMP JUMPDEST DUP7 DUP10 DUP13 DUP4 PUSH2 0x4E33 JUMPI JUMPDEST DUP11 SWAP3 POP PUSH32 0xAE629B396150638D6EB6DE457CBFFE5D618A10C8CC199A94976BED2B16ECD993 SWAP2 POP DUP9 PUSH2 0x4E23 DUP7 DUP11 PUSH2 0x4CE1 JUMP JUMPDEST MLOAD MLOAD AND SWAP4 DUP13 MLOAD SWAP1 DUP2 MSTORE LOG3 ADD PUSH2 0x4DB8 JUMP JUMPDEST PUSH1 0x60 PUSH1 0x0 DUP1 MLOAD PUSH1 0x20 PUSH2 0x5D67 DUP4 CODECOPY DUP2 MLOAD SWAP2 MSTORE SWAP2 DUP13 DUP12 PUSH2 0x4E51 DUP10 DUP14 PUSH2 0x4CE1 JUMP JUMPDEST MLOAD MLOAD AND SWAP5 PUSH1 0x4 DUP2 MLOAD SWAP4 DUP10 DUP6 MSTORE DUP5 ADD MSTORE DUP3 ADD MSTORE LOG3 DUP7 DUP10 DUP13 PUSH2 0x4DF2 JUMP JUMPDEST POP SWAP7 SWAP2 POP POP PUSH1 0x1D SWAP2 POP PUSH2 0x3E7C SWAP5 SWAP3 DUP4 MSTORE MSTORE KECCAK256 PUSH2 0x4CF5 JUMP JUMPDEST DUP11 MLOAD DUP12 DUP2 ADD DUP2 DUP2 LT DUP5 DUP3 GT OR PUSH2 0x2F2A JUMPI PUSH1 0x1 SWAP3 DUP16 SWAP2 SWAP3 PUSH1 0x2 SWAP4 DUP16 MSTORE DUP12 DUP8 SLOAD AND DUP2 MSTORE DUP5 DUP8 ADD SLOAD DUP4 DUP3 ADD MSTORE DUP2 MSTORE ADD SWAP4 ADD SWAP5 ADD SWAP4 SWAP2 PUSH2 0x4DAA JUMP JUMPDEST PUSH4 0x4E487B71 PUSH1 0xE0 SHL DUP10 MSTORE PUSH1 0x41 PUSH1 0x4 MSTORE PUSH1 0x24 DUP10 REVERT JUMPDEST DUP1 ISZERO PUSH2 0x3F0C JUMPI PUSH1 0x0 NOT ADD SWAP1 JUMP JUMPDEST PUSH1 0x1 DUP1 PUSH1 0xA0 SHL SUB DUP1 PUSH1 0x0 SWAP3 AND DUP3 MSTORE PUSH1 0x10 PUSH1 0x20 MSTORE PUSH1 0x40 DUP3 KECCAK256 SWAP1 PUSH1 0x1 DUP3 ADD SLOAD ISZERO ISZERO SWAP2 DUP3 PUSH2 0x4F7C JUMPI JUMPDEST POP PUSH1 0xF PUSH1 0x20 MSTORE PUSH1 0x40 DUP4 KECCAK256 PUSH1 0x5 DUP2 ADD PUSH1 0xFF DUP2 SLOAD AND ISZERO ISZERO DUP5 ISZERO ISZERO EQ PUSH2 0x4F75 JUMPI DUP1 SLOAD PUSH1 0xFF NOT AND PUSH1 0xFF DUP6 ISZERO ISZERO AND OR SWAP1 SSTORE SLOAD AND SWAP2 DUP3 ISZERO PUSH2 0x4F70 JUMPI PUSH1 0x1 SWAP3 PUSH1 0x40 SWAP3 ISZERO PUSH2 0x4F58 JUMPI DUP2 MSTORE PUSH1 0xF PUSH1 0x20 MSTORE KECCAK256 ADD PUSH2 0x4F54 DUP2 SLOAD PUSH2 0x455A JUMP JUMPDEST SWAP1 SSTORE JUMP JUMPDEST DUP2 MSTORE KECCAK256 ADD DUP1 SLOAD DUP1 PUSH2 0x4F67 JUMPI POP POP JUMP JUMPDEST PUSH2 0x4F54 SWAP1 PUSH2 0x4ECE JUMP JUMPDEST POP POP POP JUMP JUMPDEST POP POP POP POP POP JUMP JUMPDEST PUSH1 0x3 ADD SLOAD PUSH1 0xFF AND ISZERO SWAP2 POP CODESIZE PUSH2 0x4F01 JUMP JUMPDEST PUSH1 0x1 PUSH1 0x1 PUSH1 0xA0 SHL SUB DUP2 AND PUSH1 0x0 DUP2 DUP2 MSTORE PUSH1 0x10 PUSH1 0x20 MSTORE PUSH1 0x40 SWAP1 KECCAK256 PUSH1 0x3 DUP2 ADD DUP1 SLOAD SWAP3 SWAP4 SWAP3 PUSH1 0xFF DUP2 AND ISZERO PUSH2 0x4FBD JUMPI POP POP POP POP POP JUMP JUMPDEST SWAP1 PUSH1 0x1 PUSH1 0x24 SWAP6 SWAP7 SWAP3 PUSH1 0xFF NOT AND OR SWAP1 SSTORE PUSH1 0x11 PUSH1 0x20 MSTORE PUSH1 0x40 PUSH1 0x0 KECCAK256 SWAP5 PUSH1 0x0 SWAP3 PUSH1 0x0 SWAP5 PUSH1 0x20 PUSH1 0x1 DUP1 PUSH1 0xA0 SHL SUB PUSH1 0x0 SLOAD AND PUSH1 0x40 MLOAD SWAP9 DUP10 DUP1 SWAP3 PUSH4 0x70A08231 PUSH1 0xE0 SHL DUP3 MSTORE ADDRESS PUSH1 0x4 DUP4 ADD MSTORE GAS STATICCALL SWAP7 DUP8 ISZERO PUSH2 0x4B47 JUMPI PUSH1 0x0 SWAP8 PUSH2 0x5366 JUMPI JUMPDEST POP PUSH1 0x0 SWAP6 SWAP5 JUMPDEST DUP9 SLOAD DUP8 LT ISZERO PUSH2 0x50D3 JUMPI PUSH1 0xFF PUSH1 0x4 PUSH2 0x502F DUP10 DUP13 PUSH2 0x3DEF JUMP JUMPDEST POP ADD SLOAD AND ISZERO PUSH2 0x50C9 JUMPI PUSH1 0x1 PUSH2 0x5044 DUP9 DUP12 PUSH2 0x3DEF JUMP JUMPDEST POP ADD SLOAD SWAP1 DUP2 DUP1 PUSH1 0x1 SHL DIV PUSH1 0x2 EQ DUP3 ISZERO OR ISZERO PUSH2 0x3F0C JUMPI DUP10 PUSH2 0x509C SWAP2 PUSH1 0x1 PUSH2 0x507E DUP12 PUSH2 0x12C PUSH2 0x5077 DUP5 SWAP9 PUSH1 0xC SLOAD SWAP1 DUP7 SHL PUSH2 0x3EF9 JUMP JUMPDEST DIV SWAP5 PUSH2 0x3DEF JUMP JUMPDEST POP ADD SLOAD DUP3 DUP2 LT PUSH2 0x50BC JUMPI SWAP1 PUSH2 0x4A06 DUP4 PUSH2 0x5096 SWAP4 PUSH2 0x3F4F JUMP JUMPDEST SWAP8 PUSH2 0x3F22 JUMP JUMPDEST SWAP7 PUSH1 0x4 PUSH2 0x50A9 DUP3 DUP13 PUSH2 0x3DEF JUMP JUMPDEST POP ADD DUP1 SLOAD PUSH1 0xFF NOT AND SWAP1 SSTORE JUMPDEST ADD SWAP6 SWAP5 PUSH2 0x5018 JUMP JUMPDEST PUSH1 0x0 SWAP3 POP PUSH2 0x5096 SWAP2 PUSH2 0x3F22 JUMP JUMPDEST SWAP5 SWAP6 PUSH1 0x1 SWAP1 PUSH2 0x50B4 JUMP JUMPDEST SWAP4 SWAP8 POP SWAP1 SWAP5 POP DUP2 SWAP6 SWAP4 SWAP2 SWAP4 DUP4 PUSH2 0x51C3 JUMPI JUMPDEST POP POP SWAP2 PUSH1 0x0 DUP1 MLOAD PUSH1 0x20 PUSH2 0x5EE7 DUP4 CODECOPY DUP2 MLOAD SWAP2 MSTORE PUSH1 0x40 PUSH1 0x0 DUP1 MLOAD PUSH1 0x20 PUSH2 0x5E87 DUP4 CODECOPY DUP2 MLOAD SWAP2 MSTORE SWAP6 SWAP4 DUP6 PUSH1 0x20 SWAP7 PUSH2 0x51A2 JUMPI JUMPDEST PUSH1 0x0 DUP6 DUP2 MSTORE PUSH1 0xF DUP9 MSTORE DUP4 SWAP1 KECCAK256 PUSH1 0x5 DUP2 ADD DUP1 SLOAD PUSH1 0xFF NOT DUP2 AND SWAP1 SWAP2 SSTORE SWAP1 SLOAD PUSH1 0x1 PUSH1 0x1 PUSH1 0xA0 SHL SUB AND SWAP1 PUSH1 0xFF AND DUP1 PUSH2 0x5199 JUMPI JUMPDEST DUP1 PUSH2 0x5185 JUMPI JUMPDEST PUSH2 0x5169 JUMPI JUMPDEST POP DUP3 MLOAD SWAP2 DUP3 MSTORE DUP7 DUP3 ADD MSTORE LOG2 SLOAD PUSH1 0x40 MLOAD SWAP1 DUP2 MSTORE LOG2 CODESIZE DUP1 DUP1 DUP1 DUP1 PUSH2 0x4F75 JUMP JUMPDEST PUSH1 0x0 MSTORE PUSH1 0x1 DUP4 PUSH1 0x0 KECCAK256 ADD PUSH2 0x517D DUP2 SLOAD PUSH2 0x4ECE JUMP JUMPDEST SWAP1 SSTORE CODESIZE PUSH2 0x514C JUMP JUMPDEST POP DUP1 PUSH1 0x0 MSTORE PUSH1 0x1 DUP5 PUSH1 0x0 KECCAK256 ADD SLOAD ISZERO ISZERO PUSH2 0x5147 JUMP JUMPDEST POP DUP1 ISZERO ISZERO PUSH2 0x5141 JUMP JUMPDEST DUP5 PUSH1 0x0 MSTORE PUSH1 0xF DUP8 MSTORE PUSH1 0x6 DUP4 PUSH1 0x0 KECCAK256 ADD PUSH2 0x51BC DUP3 DUP3 SLOAD PUSH2 0x3F22 JUMP JUMPDEST SWAP1 SSTORE PUSH2 0x5112 JUMP JUMPDEST SWAP1 SWAP5 SWAP3 SWAP4 SWAP1 DUP5 DUP2 LT PUSH2 0x5267 JUMPI POP POP PUSH1 0x0 DUP1 SLOAD PUSH1 0x40 MLOAD PUSH4 0xA9059CBB PUSH1 0xE0 SHL DUP2 MSTORE SWAP6 PUSH1 0x20 SWAP3 DUP8 SWAP3 PUSH1 0x1 PUSH1 0x1 PUSH1 0xA0 SHL SUB AND SWAP2 DUP4 SWAP2 SWAP1 DUP3 SWAP1 PUSH2 0x5206 SWAP1 DUP11 SWAP1 PUSH1 0x4 DUP5 ADD PUSH2 0x3DD4 JUMP JUMPDEST SUB SWAP3 GAS CALL SWAP4 DUP5 ISZERO PUSH2 0x4B47 JUMPI PUSH1 0x40 PUSH1 0x20 SWAP5 DUP8 SWAP4 PUSH1 0x0 DUP1 MLOAD PUSH1 0x20 PUSH2 0x5EE7 DUP4 CODECOPY DUP2 MLOAD SWAP2 MSTORE SWAP4 PUSH1 0x0 DUP1 MLOAD PUSH1 0x20 PUSH2 0x5E87 DUP4 CODECOPY DUP2 MLOAD SWAP2 MSTORE SWAP9 PUSH2 0x524A JUMPI JUMPDEST POP JUMPDEST SWAP4 SWAP6 POP SWAP4 SWAP6 POP PUSH2 0x50E4 JUMP JUMPDEST PUSH2 0x5260 SWAP1 DUP9 RETURNDATASIZE DUP11 GT PUSH2 0x6F7 JUMPI PUSH2 0x6E8 DUP2 DUP4 PUSH2 0x3D7A JUMP JUMPDEST POP CODESIZE PUSH2 0x523D JUMP JUMPDEST SWAP1 SWAP3 SWAP4 SWAP5 DUP2 PUSH2 0x52BA JUMPI JUMPDEST POP PUSH1 0x40 PUSH1 0x0 DUP1 MLOAD PUSH1 0x20 PUSH2 0x5E87 DUP4 CODECOPY DUP2 MLOAD SWAP2 MSTORE SWAP6 DUP5 SWAP4 PUSH1 0x20 SWAP7 SWAP6 PUSH1 0x0 DUP1 MLOAD PUSH1 0x20 PUSH2 0x5E27 DUP4 CODECOPY DUP2 MLOAD SWAP2 MSTORE DUP5 PUSH1 0x0 DUP1 MLOAD PUSH1 0x20 PUSH2 0x5EE7 DUP4 CODECOPY DUP2 MLOAD SWAP2 MSTORE SWAP7 DUP2 MLOAD SWAP1 DUP7 DUP3 MSTORE DUP12 DUP3 ADD MSTORE LOG2 PUSH2 0x523F JUMP JUMPDEST DUP2 PUSH2 0x52F0 SWAP3 SWAP4 SWAP6 SWAP5 POP PUSH1 0x20 SWAP2 PUSH1 0x1 DUP1 PUSH1 0xA0 SHL SUB PUSH1 0x0 SLOAD AND SWAP1 PUSH1 0x0 PUSH1 0x40 MLOAD DUP1 SWAP7 DUP2 SWAP6 DUP3 SWAP5 PUSH4 0xA9059CBB PUSH1 0xE0 SHL DUP5 MSTORE PUSH1 0x4 DUP5 ADD PUSH2 0x3DD4 JUMP JUMPDEST SUB SWAP3 GAS CALL DUP1 ISZERO PUSH2 0x4B47 JUMPI PUSH1 0x0 DUP1 MLOAD PUSH1 0x20 PUSH2 0x5E87 DUP4 CODECOPY DUP2 MLOAD SWAP2 MSTORE SWAP6 PUSH1 0x20 SWAP6 DUP9 PUSH1 0x0 DUP1 MLOAD PUSH1 0x20 PUSH2 0x5E27 DUP4 CODECOPY DUP2 MLOAD SWAP2 MSTORE PUSH1 0x40 DUP3 SWAP8 PUSH1 0x0 DUP1 MLOAD PUSH1 0x20 PUSH2 0x5EE7 DUP4 CODECOPY DUP2 MLOAD SWAP2 MSTORE SWAP8 DUP3 SWAP8 PUSH2 0x5349 JUMPI JUMPDEST POP SWAP7 POP POP POP POP SWAP4 SWAP5 SWAP6 POP SWAP6 POP PUSH2 0x5271 JUMP JUMPDEST PUSH2 0x535F SWAP1 DUP13 RETURNDATASIZE DUP15 GT PUSH2 0x6F7 JUMPI PUSH2 0x6E8 DUP2 DUP4 PUSH2 0x3D7A JUMP JUMPDEST POP CODESIZE PUSH2 0x5338 JUMP JUMPDEST SWAP1 SWAP7 POP PUSH1 0x20 DUP2 RETURNDATASIZE PUSH1 0x20 GT PUSH2 0x5392 JUMPI JUMPDEST DUP2 PUSH2 0x5382 PUSH1 0x20 SWAP4 DUP4 PUSH2 0x3D7A JUMP JUMPDEST DUP2 ADD SUB SLT PUSH2 0xC9A JUMPI MLOAD SWAP6 CODESIZE PUSH2 0x5012 JUMP JUMPDEST RETURNDATASIZE SWAP2 POP PUSH2 0x5375 JUMP JUMPDEST PUSH1 0x1 PUSH1 0x1 PUSH1 0xA0 SHL SUB SWAP1 DUP2 AND PUSH1 0x0 DUP2 DUP2 MSTORE PUSH1 0x10 PUSH1 0x20 SWAP1 DUP2 MSTORE PUSH1 0x40 DUP1 DUP4 KECCAK256 PUSH1 0x1 DUP2 DUP2 ADD DUP1 SLOAD SWAP7 SWAP8 SWAP1 SWAP7 SWAP4 SWAP6 SWAP1 SWAP5 SWAP3 SWAP2 DUP5 ISZERO DUP1 ISZERO PUSH2 0x5558 JUMPI JUMPDEST PUSH2 0x5503 JUMPI PUSH1 0x11 DUP5 MSTORE DUP7 DUP3 KECCAK256 DUP1 SLOAD DUP4 SWAP3 SWAP2 DUP4 JUMPDEST DUP3 DUP2 LT PUSH2 0x5518 JUMPI POP POP POP POP PUSH2 0x550E JUMPI PUSH1 0x2 DUP3 ADD SWAP7 PUSH2 0x5404 DUP9 SLOAD PUSH1 0x15 SLOAD SWAP1 PUSH2 0x3F22 JUMP JUMPDEST TIMESTAMP GT ISZERO PUSH2 0x5503 JUMPI PUSH1 0x3 DUP4 DUP4 PUSH32 0x57025F0027038907EDA728B59164FB63D06048F42E618A35267E6A12E49B2E46 SWAP11 DUP11 SWAP7 SLOAD SWAP10 DUP14 DUP4 MSTORE PUSH1 0xF DUP10 MSTORE PUSH1 0xFF PUSH1 0x5 DUP10 DUP6 KECCAK256 SWAP3 DUP4 SLOAD AND SWAP3 ADD SLOAD AND DUP1 PUSH2 0x54FA JUMPI JUMPDEST DUP1 PUSH2 0x54E8 JUMPI JUMPDEST PUSH2 0x54CE JUMPI JUMPDEST POP DUP13 DUP3 MSTORE PUSH1 0xF DUP9 MSTORE DUP2 DUP8 DUP2 KECCAK256 SWAP6 DUP2 PUSH1 0x4 PUSH1 0x5 DUP10 ADD SWAP9 PUSH1 0xFF NOT SWAP10 DUP11 DUP2 SLOAD AND SWAP1 SSTORE DUP3 DUP10 DUP3 ADD SSTORE ADD SSTORE DUP2 DUP6 SSTORE SSTORE SSTORE ADD SWAP1 DUP2 SLOAD AND SWAP1 SSTORE DUP5 PUSH2 0x549F JUMPI JUMPDEST POP MLOAD SWAP3 DUP4 MSTORE DUP3 ADD MSTORE LOG2 JUMP JUMPDEST DUP5 DUP2 MSTORE PUSH1 0x13 DUP4 MSTORE PUSH2 0x54B1 DUP3 DUP3 KECCAK256 PUSH2 0x4CF5 JUMP JUMPDEST DUP5 DUP2 MSTORE PUSH1 0x1C DUP4 MSTORE KECCAK256 DUP1 SLOAD PUSH1 0x1 PUSH1 0x1 PUSH1 0xA0 SHL SUB NOT AND SWAP1 SSTORE DUP4 CODESIZE PUSH2 0x5494 JUMP JUMPDEST DUP3 MSTORE PUSH1 0x1 DUP8 DUP4 KECCAK256 ADD PUSH2 0x54E0 DUP2 SLOAD PUSH2 0x4ECE JUMP JUMPDEST SWAP1 SSTORE CODESIZE PUSH2 0x545C JUMP JUMPDEST POP DUP1 DUP4 MSTORE PUSH1 0x1 DUP9 DUP5 KECCAK256 ADD SLOAD ISZERO ISZERO PUSH2 0x5457 JUMP JUMPDEST POP DUP1 ISZERO ISZERO PUSH2 0x5451 JUMP JUMPDEST POP POP POP POP POP POP POP POP POP JUMP JUMPDEST POP POP POP POP POP POP POP POP JUMP JUMPDEST PUSH1 0xFF PUSH1 0x4 PUSH2 0x5526 DUP4 DUP6 PUSH2 0x3DEF JUMP JUMPDEST POP ADD SLOAD AND PUSH2 0x5536 JUMPI JUMPDEST DUP4 ADD PUSH2 0x53E2 JUMP JUMPDEST SWAP4 PUSH2 0x5550 DUP5 SWAP2 DUP3 PUSH2 0x5547 DUP9 DUP7 PUSH2 0x3DEF JUMP JUMPDEST POP ADD SLOAD SWAP1 PUSH2 0x3F22 JUMP JUMPDEST SWAP5 SWAP1 POP PUSH2 0x552F JUMP JUMPDEST POP PUSH1 0xFF PUSH1 0x3 DUP5 ADD SLOAD AND PUSH2 0x53D0 JUMP JUMPDEST PUSH1 0x1 DUP1 PUSH1 0xA0 SHL SUB DUP1 DUP3 AND SWAP1 PUSH1 0x0 SWAP2 DUP1 DUP4 MSTORE PUSH1 0x20 PUSH1 0xF DUP2 MSTORE PUSH1 0x40 SWAP1 DUP2 DUP6 KECCAK256 SWAP4 PUSH1 0x10 DUP3 MSTORE DUP3 DUP7 KECCAK256 PUSH1 0xFF PUSH1 0x5 DUP8 ADD SLOAD AND ISZERO SWAP1 DUP2 ISZERO PUSH2 0x575B JUMPI JUMPDEST DUP2 ISZERO PUSH2 0x574E JUMPI JUMPDEST POP PUSH2 0x5743 JUMPI PUSH1 0x24 DUP3 DUP3 DUP9 SLOAD AND DUP6 MLOAD SWAP3 DUP4 DUP1 SWAP3 PUSH4 0x70A08231 PUSH1 0xE0 SHL DUP3 MSTORE ADDRESS PUSH1 0x4 DUP4 ADD MSTORE GAS STATICCALL SWAP1 DUP2 ISZERO PUSH2 0x5739 JUMPI SWAP1 DUP10 SWAP2 DUP9 SWAP2 PUSH2 0x5708 JUMPI JUMPDEST POP LT PUSH2 0x56E3 JUMPI PUSH1 0x4 DUP6 ADD SWAP6 PUSH1 0x3 DUP8 SLOAD SWAP7 ADD SWAP6 PUSH2 0x55F6 DUP8 SLOAD DUP1 SWAP3 PUSH2 0x3F4F JUMP JUMPDEST DUP11 DUP2 DUP2 GT PUSH2 0x56BB JUMPI JUMPDEST POP POP DUP10 DUP1 PUSH2 0x5625 JUMPI JUMPDEST POP POP POP POP POP POP POP SLOAD SWAP1 SLOAD GT ISZERO PUSH2 0x561C JUMPI POP SWAP1 JUMP JUMPDEST PUSH2 0x4B44 SWAP1 PUSH2 0x4F8C JUMP JUMPDEST PUSH2 0x5656 SWAP4 PUSH2 0x5634 DUP3 DUP8 SWAP5 PUSH2 0x3F22 JUMP JUMPDEST DUP10 SSTORE DUP4 SLOAD AND DUP11 DUP5 DUP9 MLOAD DUP1 SWAP8 DUP2 SWAP6 DUP3 SWAP5 PUSH4 0xA9059CBB PUSH1 0xE0 SHL DUP5 MSTORE PUSH1 0x4 DUP5 ADD PUSH2 0x3DD4 JUMP JUMPDEST SUB SWAP3 GAS CALL SWAP1 DUP2 ISZERO PUSH2 0x56B0 JUMPI POP SWAP1 PUSH1 0x0 DUP1 MLOAD PUSH1 0x20 PUSH2 0x5EA7 DUP4 CODECOPY DUP2 MLOAD SWAP2 MSTORE SWAP4 SWAP3 SWAP2 PUSH2 0x5693 JUMPI JUMPDEST POP PUSH1 0x2 DUP3 MLOAD SWAP2 DUP10 DUP4 MSTORE DUP3 ADD MSTORE LOG2 CODESIZE DUP1 DUP1 DUP1 DUP1 DUP1 DUP10 PUSH2 0x5608 JUMP JUMPDEST PUSH2 0x56A9 SWAP1 DUP3 RETURNDATASIZE DUP5 GT PUSH2 0x6F7 JUMPI PUSH2 0x6E8 DUP2 DUP4 PUSH2 0x3D7A JUMP JUMPDEST POP CODESIZE PUSH2 0x567A JUMP JUMPDEST DUP5 MLOAD SWAP1 RETURNDATASIZE SWAP1 DUP3 RETURNDATACOPY RETURNDATASIZE SWAP1 REVERT JUMPDEST DUP2 SWAP12 POP DUP7 PUSH1 0x0 DUP1 MLOAD PUSH1 0x20 PUSH2 0x5E27 DUP4 CODECOPY DUP2 MLOAD SWAP2 MSTORE SWAP2 DUP10 SWAP4 SWAP14 DUP3 MLOAD SWAP2 DUP3 MSTORE DUP9 DUP3 ADD MSTORE LOG2 CODESIZE DUP1 PUSH2 0x55FF JUMP JUMPDEST POP DUP5 SWAP7 SWAP3 SWAP6 POP DUP2 PUSH1 0x0 DUP1 MLOAD PUSH1 0x20 PUSH2 0x5E27 DUP4 CODECOPY DUP2 MLOAD SWAP2 MSTORE SWAP6 SWAP3 SWAP5 POP MLOAD SWAP3 DUP4 MSTORE DUP3 ADD MSTORE LOG2 SWAP1 JUMP JUMPDEST DUP1 SWAP3 POP DUP5 DUP1 SWAP3 POP RETURNDATASIZE DUP4 GT PUSH2 0x5732 JUMPI JUMPDEST PUSH2 0x5721 DUP2 DUP4 PUSH2 0x3D7A JUMP JUMPDEST DUP2 ADD SUB SLT PUSH2 0x2B84 JUMPI DUP9 SWAP1 MLOAD CODESIZE PUSH2 0x55D8 JUMP JUMPDEST POP RETURNDATASIZE PUSH2 0x5717 JUMP JUMPDEST DUP5 MLOAD RETURNDATASIZE DUP10 DUP3 RETURNDATACOPY RETURNDATASIZE SWAP1 REVERT JUMPDEST POP POP POP POP POP SWAP2 POP POP SWAP1 JUMP JUMPDEST PUSH1 0x1 SWAP2 POP ADD SLOAD ISZERO CODESIZE PUSH2 0x55A3 JUMP JUMPDEST PUSH1 0x3 DUP2 ADD SLOAD PUSH1 0xFF AND SWAP2 POP PUSH2 0x559C JUMP JUMPDEST PUSH1 0x1 DUP1 PUSH1 0xA0 SHL SUB DUP1 DUP3 AND SWAP1 PUSH1 0x0 SWAP2 DUP1 DUP4 MSTORE PUSH1 0x20 PUSH1 0xF DUP2 MSTORE PUSH1 0x40 SWAP1 DUP2 DUP6 KECCAK256 SWAP4 PUSH1 0x10 DUP3 MSTORE DUP3 DUP7 KECCAK256 PUSH1 0xFF PUSH1 0x5 DUP8 ADD SLOAD AND ISZERO SWAP1 DUP2 ISZERO PUSH2 0x58EE JUMPI JUMPDEST DUP2 ISZERO PUSH2 0x58E1 JUMPI JUMPDEST POP PUSH2 0x5743 JUMPI PUSH1 0x24 DUP3 DUP3 DUP9 SLOAD AND DUP6 MLOAD SWAP3 DUP4 DUP1 SWAP3 PUSH4 0x70A08231 PUSH1 0xE0 SHL DUP3 MSTORE ADDRESS PUSH1 0x4 DUP4 ADD MSTORE GAS STATICCALL SWAP1 DUP2 ISZERO PUSH2 0x5739 JUMPI SWAP1 DUP10 SWAP2 DUP9 SWAP2 PUSH2 0x58B0 JUMPI JUMPDEST POP LT PUSH2 0x56E3 JUMPI PUSH1 0x4 DUP6 ADD SWAP6 PUSH1 0x3 DUP8 SLOAD SWAP7 ADD SWAP6 PUSH2 0x57FA DUP8 SLOAD DUP1 SWAP3 PUSH2 0x3F4F JUMP JUMPDEST DUP11 DUP2 DUP2 GT PUSH2 0x5888 JUMPI JUMPDEST POP POP DUP10 DUP1 PUSH2 0x581F JUMPI POP POP POP POP POP POP POP SLOAD SWAP1 SLOAD GT ISZERO PUSH2 0x561C JUMPI POP SWAP1 JUMP JUMPDEST PUSH2 0x582E SWAP4 PUSH2 0x5634 DUP3 DUP8 SWAP5 PUSH2 0x3F22 JUMP JUMPDEST SUB SWAP3 GAS CALL SWAP1 DUP2 ISZERO PUSH2 0x56B0 JUMPI POP SWAP1 PUSH1 0x0 DUP1 MLOAD PUSH1 0x20 PUSH2 0x5EA7 DUP4 CODECOPY DUP2 MLOAD SWAP2 MSTORE SWAP4 SWAP3 SWAP2 PUSH2 0x586B JUMPI JUMPDEST POP PUSH1 0x3 DUP3 MLOAD SWAP2 DUP10 DUP4 MSTORE DUP3 ADD MSTORE LOG2 CODESIZE DUP1 DUP1 DUP1 DUP1 DUP1 DUP10 PUSH2 0x5608 JUMP JUMPDEST PUSH2 0x5881 SWAP1 DUP3 RETURNDATASIZE DUP5 GT PUSH2 0x6F7 JUMPI PUSH2 0x6E8 DUP2 DUP4 PUSH2 0x3D7A JUMP JUMPDEST POP CODESIZE PUSH2 0x5852 JUMP JUMPDEST DUP2 SWAP12 POP DUP7 PUSH1 0x0 DUP1 MLOAD PUSH1 0x20 PUSH2 0x5E27 DUP4 CODECOPY DUP2 MLOAD SWAP2 MSTORE SWAP2 DUP10 SWAP4 SWAP14 DUP3 MLOAD SWAP2 DUP3 MSTORE DUP9 DUP3 ADD MSTORE LOG2 CODESIZE DUP1 PUSH2 0x5803 JUMP JUMPDEST DUP1 SWAP3 POP DUP5 DUP1 SWAP3 POP RETURNDATASIZE DUP4 GT PUSH2 0x58DA JUMPI JUMPDEST PUSH2 0x58C9 DUP2 DUP4 PUSH2 0x3D7A JUMP JUMPDEST DUP2 ADD SUB SLT PUSH2 0x2B84 JUMPI DUP9 SWAP1 MLOAD CODESIZE PUSH2 0x57DC JUMP JUMPDEST POP RETURNDATASIZE PUSH2 0x58BF JUMP JUMPDEST PUSH1 0x1 SWAP2 POP ADD SLOAD ISZERO CODESIZE PUSH2 0x57A7 JUMP JUMPDEST PUSH1 0x3 DUP2 ADD SLOAD PUSH1 0xFF AND SWAP2 POP PUSH2 0x57A0 JUMP JUMPDEST PUSH1 0x1 DUP1 PUSH1 0xA0 SHL SUB DUP1 DUP3 AND SWAP1 PUSH1 0x0 SWAP2 DUP1 DUP4 MSTORE PUSH1 0x20 PUSH1 0xF DUP2 MSTORE PUSH1 0x40 SWAP1 DUP2 DUP6 KECCAK256 SWAP4 PUSH1 0x10 DUP3 MSTORE DUP3 DUP7 KECCAK256 PUSH1 0xFF PUSH1 0x5 DUP8 ADD SLOAD AND ISZERO SWAP1 DUP2 ISZERO PUSH2 0x5A81 JUMPI JUMPDEST DUP2 ISZERO PUSH2 0x5A74 JUMPI JUMPDEST POP PUSH2 0x5743 JUMPI PUSH1 0x24 DUP3 DUP3 DUP9 SLOAD AND DUP6 MLOAD SWAP3 DUP4 DUP1 SWAP3 PUSH4 0x70A08231 PUSH1 0xE0 SHL DUP3 MSTORE ADDRESS PUSH1 0x4 DUP4 ADD MSTORE GAS STATICCALL SWAP1 DUP2 ISZERO PUSH2 0x5739 JUMPI SWAP1 DUP10 SWAP2 DUP9 SWAP2 PUSH2 0x5A43 JUMPI JUMPDEST POP LT PUSH2 0x56E3 JUMPI PUSH1 0x4 DUP6 ADD SWAP6 PUSH1 0x3 DUP8 SLOAD SWAP7 ADD SWAP6 PUSH2 0x598D DUP8 SLOAD DUP1 SWAP3 PUSH2 0x3F4F JUMP JUMPDEST DUP11 DUP2 DUP2 GT PUSH2 0x5A1B JUMPI JUMPDEST POP POP DUP10 DUP1 PUSH2 0x59B2 JUMPI POP POP POP POP POP POP POP SLOAD SWAP1 SLOAD GT ISZERO PUSH2 0x561C JUMPI POP SWAP1 JUMP JUMPDEST PUSH2 0x59C1 SWAP4 PUSH2 0x5634 DUP3 DUP8 SWAP5 PUSH2 0x3F22 JUMP JUMPDEST SUB SWAP3 GAS CALL SWAP1 DUP2 ISZERO PUSH2 0x56B0 JUMPI POP SWAP1 PUSH1 0x0 DUP1 MLOAD PUSH1 0x20 PUSH2 0x5EA7 DUP4 CODECOPY DUP2 MLOAD SWAP2 MSTORE SWAP4 SWAP3 SWAP2 PUSH2 0x59FE JUMPI JUMPDEST POP PUSH1 0x4 DUP3 MLOAD SWAP2 DUP10 DUP4 MSTORE DUP3 ADD MSTORE LOG2 CODESIZE DUP1 DUP1 DUP1 DUP1 DUP1 DUP10 PUSH2 0x5608 JUMP JUMPDEST PUSH2 0x5A14 SWAP1 DUP3 RETURNDATASIZE DUP5 GT PUSH2 0x6F7 JUMPI PUSH2 0x6E8 DUP2 DUP4 PUSH2 0x3D7A JUMP JUMPDEST POP CODESIZE PUSH2 0x59E5 JUMP JUMPDEST DUP2 SWAP12 POP DUP7 PUSH1 0x0 DUP1 MLOAD PUSH1 0x20 PUSH2 0x5E27 DUP4 CODECOPY DUP2 MLOAD SWAP2 MSTORE SWAP2 DUP10 SWAP4 SWAP14 DUP3 MLOAD SWAP2 DUP3 MSTORE DUP9 DUP3 ADD MSTORE LOG2 CODESIZE DUP1 PUSH2 0x5996 JUMP JUMPDEST DUP1 SWAP3 POP DUP5 DUP1 SWAP3 POP RETURNDATASIZE DUP4 GT PUSH2 0x5A6D JUMPI JUMPDEST PUSH2 0x5A5C DUP2 DUP4 PUSH2 0x3D7A JUMP JUMPDEST DUP2 ADD SUB SLT PUSH2 0x2B84 JUMPI DUP9 SWAP1 MLOAD CODESIZE PUSH2 0x596F JUMP JUMPDEST POP RETURNDATASIZE PUSH2 0x5A52 JUMP JUMPDEST PUSH1 0x1 SWAP2 POP ADD SLOAD ISZERO CODESIZE PUSH2 0x593A JUMP JUMPDEST PUSH1 0x3 DUP2 ADD SLOAD PUSH1 0xFF AND SWAP2 POP PUSH2 0x5933 JUMP JUMPDEST SWAP1 DUP2 ISZERO PUSH2 0x5CD0 JUMPI PUSH1 0x17 SLOAD PUSH9 0x3635C9ADC5DEA00000 DUP1 DUP3 LT SWAP1 DUP2 ISZERO PUSH2 0x5CC4 JUMPI JUMPDEST POP PUSH2 0x5CBF JUMPI PUSH1 0x1 DUP1 PUSH1 0xA0 SHL SUB SWAP3 PUSH1 0x0 SWAP4 DUP1 DUP6 SLOAD AND SWAP3 PUSH1 0x40 SWAP4 DUP5 MLOAD SWAP2 DUP3 PUSH4 0x70A08231 PUSH1 0xE0 SHL SWAP3 DUP4 DUP3 MSTORE ADDRESS PUSH1 0x4 DUP4 ADD MSTORE DUP2 PUSH1 0x24 PUSH1 0x20 SWAP7 DUP8 SWAP4 GAS STATICCALL SWAP1 DUP2 ISZERO PUSH2 0x5CB5 JUMPI DUP10 SWAP2 PUSH2 0x5C88 JUMPI JUMPDEST POP PUSH2 0x5B00 DUP7 DUP4 PUSH2 0x3F22 JUMP JUMPDEST GT PUSH2 0x5C6A JUMPI PUSH2 0x2710 DUP6 MUL PUSH2 0x270F NOT DUP7 DUP3 DIV ADD PUSH2 0x5C74 JUMPI PUSH2 0x5B23 DUP3 PUSH2 0x3E8 SWAP3 PUSH2 0x3F2F JUMP JUMPDEST GT PUSH2 0x5C6A JUMPI PUSH1 0x18 SLOAD SWAP1 PUSH2 0x5B43 PUSH2 0x5B39 DUP4 DUP9 PUSH2 0x3EF9 JUMP JUMPDEST PUSH2 0x2798 DUP9 DUP5 PUSH2 0x3F22 JUMP JUMPDEST SWAP5 DUP6 ISZERO DUP1 ISZERO PUSH2 0x5C61 JUMPI JUMPDEST PUSH2 0x5C55 JUMPI PUSH1 0x1 SLOAD AND SWAP3 DUP8 MLOAD SWAP1 DUP2 MSTORE ADDRESS PUSH1 0x4 DUP3 ADD MSTORE DUP5 DUP2 PUSH1 0x24 DUP2 DUP8 GAS STATICCALL SWAP1 DUP2 ISZERO PUSH2 0x5C4B JUMPI SWAP1 DUP4 SWAP2 DUP12 SWAP2 PUSH2 0x5C16 JUMPI JUMPDEST POP LT PUSH2 0x5C0B JUMPI DUP5 DUP10 SWAP4 SWAP3 PUSH2 0x3902 DUP9 PUSH2 0x5B91 SWAP5 PUSH2 0x3F22 JUMP JUMPDEST PUSH1 0x18 SSTORE DUP1 EXTCODESIZE ISZERO PUSH2 0x5FC JUMPI DUP2 SWAP1 PUSH1 0x24 DUP8 MLOAD DUP1 SWAP5 DUP2 SWAP4 PUSH4 0x852CD8D PUSH1 0xE3 SHL DUP4 MSTORE DUP9 PUSH1 0x4 DUP5 ADD MSTORE GAS CALL DUP1 ISZERO PUSH2 0x5C01 JUMPI PUSH32 0xEC3929061CBBBEECB325623E7D5A86C3DAE11CB8A22CA45DC0972955657DA25 SWAP7 SWAP8 POP PUSH2 0x5BF2 JUMPI JUMPDEST POP DUP4 MLOAD SWAP3 DUP4 MSTORE DUP3 ADD MSTORE LOG1 JUMP JUMPDEST PUSH2 0x5BFB SWAP1 PUSH2 0x3D67 JUMP JUMPDEST CODESIZE PUSH2 0x5BE6 JUMP JUMPDEST DUP6 MLOAD RETURNDATASIZE DUP10 DUP3 RETURNDATACOPY RETURNDATASIZE SWAP1 REVERT JUMPDEST POP POP POP POP POP POP POP SWAP1 POP JUMP JUMPDEST DUP1 SWAP3 POP DUP7 DUP1 SWAP3 POP RETURNDATASIZE DUP4 GT PUSH2 0x5C44 JUMPI JUMPDEST PUSH2 0x5C2F DUP2 DUP4 PUSH2 0x3D7A JUMP JUMPDEST DUP2 ADD SUB SLT PUSH2 0x5C40 JUMPI DUP3 SWAP1 MLOAD CODESIZE PUSH2 0x5B7A JUMP JUMPDEST DUP10 DUP1 REVERT JUMPDEST POP RETURNDATASIZE PUSH2 0x5C25 JUMP JUMPDEST DUP9 MLOAD RETURNDATASIZE DUP13 DUP3 RETURNDATACOPY RETURNDATASIZE SWAP1 REVERT JUMPDEST POP POP POP POP POP POP POP POP SWAP1 POP JUMP JUMPDEST POP DUP3 DUP7 GT PUSH2 0x5B4D JUMP JUMPDEST POP POP POP POP POP POP SWAP1 POP JUMP JUMPDEST PUSH4 0x4E487B71 PUSH1 0xE0 SHL DUP10 MSTORE PUSH1 0x11 PUSH1 0x4 MSTORE PUSH1 0x24 DUP10 REVERT JUMPDEST SWAP1 POP DUP4 DUP2 DUP2 RETURNDATASIZE DUP4 GT PUSH2 0x5CAE JUMPI JUMPDEST PUSH2 0x5C9F DUP2 DUP4 PUSH2 0x3D7A JUMP JUMPDEST DUP2 ADD SUB SLT PUSH2 0x4263 JUMPI MLOAD CODESIZE PUSH2 0x5AF5 JUMP JUMPDEST POP RETURNDATASIZE PUSH2 0x5C95 JUMP JUMPDEST DUP8 MLOAD RETURNDATASIZE DUP12 DUP3 RETURNDATACOPY RETURNDATASIZE SWAP1 REVERT JUMPDEST POP SWAP1 POP JUMP JUMPDEST SWAP1 POP PUSH1 0x18 SLOAD LT CODESIZE PUSH2 0x5AAF JUMP JUMPDEST SWAP1 POP JUMP JUMPDEST PUSH1 0xFF PUSH1 0x0 DUP1 MLOAD PUSH1 0x20 PUSH2 0x5F07 DUP4 CODECOPY DUP2 MLOAD SWAP2 MSTORE SLOAD PUSH1 0x40 SHR AND ISZERO PUSH2 0x5CF1 JUMPI JUMP JUMPDEST PUSH1 0x40 MLOAD PUSH4 0x1AFCD79F PUSH1 0xE3 SHL DUP2 MSTORE PUSH1 0x4 SWAP1 REVERT JUMPDEST SWAP1 PUSH2 0x5D2A JUMPI POP DUP1 MLOAD ISZERO PUSH2 0x5D18 JUMPI PUSH1 0x20 DUP2 MLOAD SWAP2 ADD REVERT JUMPDEST PUSH1 0x40 MLOAD PUSH4 0xD6BDA275 PUSH1 0xE0 SHL DUP2 MSTORE PUSH1 0x4 SWAP1 REVERT JUMPDEST DUP2 MLOAD ISZERO DUP1 PUSH2 0x5D5D JUMPI JUMPDEST PUSH2 0x5D3B JUMPI POP SWAP1 JUMP JUMPDEST PUSH1 0x40 MLOAD PUSH4 0x9996B315 PUSH1 0xE0 SHL DUP2 MSTORE PUSH1 0x1 PUSH1 0x1 PUSH1 0xA0 SHL SUB SWAP1 SWAP2 AND PUSH1 0x4 DUP3 ADD MSTORE PUSH1 0x24 SWAP1 REVERT JUMPDEST POP DUP1 EXTCODESIZE ISZERO PUSH2 0x5D33 JUMP INVALID SWAP12 EXTCODECOPY 0xC7 EQ DUP3 LOG1 0xB2 0xEE 0xBE PUSH23 0x4A739F46F1FE99291FD0183BE81951532B29D0C9C8DA38 0xF8 LOG0 0xC9 0x2F 0x4C JUMPDEST SIGNEXTEND PUSH9 0x77F878CB4C0C8D348A SELFBALANCE 0xB7 PUSH14 0x716C8E78F425043DF9515B6FCEBD EXP 0x2C 0xE9 DUP12 0x28 0xCB CODECOPY SAR PUSH1 0x8 0xBB 0xC7 PUSH10 0x378C9A4919628E11639C 0xB5 PUSH22 0xCD320FCC9016D09D72D40FDAE2FD8CEAC6B6234C7706 0x21 0x4F 0xD3 SWAP13 SHR 0xD1 0xE6 MULMOD LOG0 MSTORE DUP13 NOT SWAP4 STOP LOG0 0xEE LOG2 0xE PUSH8 0x8CB42233C1C456C8 0x4C 0xED 0xCE PUSH31 0xA53FA360BB71BF3B761B7609567770360894A13BA1A3210667C828492DB98D 0xCA RETURNDATACOPY KECCAK256 PUSH23 0xCC3735A920A3CA505D382BBCB5987AAB1AFD379F6695F1 MOD DUP9 PUSH10 0xEE8CA6A0D02304C57935 0xA9 0xCC RETURNDATASIZE RETURNDATACOPY LOG2 0xE5 0x1E 0x4D MSTORE SIGNEXTEND 0xC2 OR 0xD2 0x5E DELEGATECALL PC DUP6 0x24 0x22 DUP14 SELFDESTRUCT 0xCF 0xA5 XOR DELEGATECALL 0xAD MSTORE OR DUP13 PUSH18 0xD49B8061D016213CD3118BE0079C53165914 SGT PREVRANDAO 0xCD 0x1F 0xD0 LOG4 CALLCODE DUP5 NOT 0x49 PUSH32 0x9722A3DAAFE3B4186F6B6457E0920BB94EB3842A728DB98228C375FF6B00C5BC GAS SLOAD STATICCALL 0xC6 PUSH20 0x6155517A0A20A61AF381583145E90B82CC5E529B DELEGATECALL 0xFC 0x4D 0xE PREVRANDAO CODECOPY PUSH18 0x74CDF145C4251AC33EF195A4249B779B1742 0x2D 0xD 0xF9 0x22 0x23 ADD DUP12 ORIGIN 0xB4 0xD1 STATICCALL CHAINID 0xE0 PUSH18 0x723D6817E2486D003BECC55F00F3A670CD3A 0xF7 0xD6 0x4B BASEFEE DUP10 0x26 DUP9 ADDMOD DUP10 0xD0 DUP11 DUP6 DUP6 LOG1 CODESIZE SELFDESTRUCT GASLIMIT MSTORE 0x27 0xAF PUSH8 0x37339A1EC262F0C5 PUSH31 0x16840DF040F15088DC2F81FE391C3923BEC73E23A9662EFC9C229C6A00A264 PUSH10 0x70667358221220148651 PUSH26 0xEC9A7B4A775CE6A9B819FF0ABD1FBEFF5747997266CF3039B411 0xF6 0xE5 PUSH5 0x736F6C6343 STOP ADDMOD AND STOP CALLER "},"methodIdentifiers":{"MAX_PRICE_IMPACT()":"6839b5fa","MIN_LIQUIDITY()":"21b77d63","REWARD_DIFFERENTIAL()":"88481b61","REWARD_DIRECT()":"0e2be210","REWARD_DYNAMIC()":"8a859a85","REWARD_LEVEL()":"8c0eaa48","REWARD_STATIC()":"1427f616","SECONDS_IN_UNIT()":"488b5d97","UPGRADE_INTERFACE_VERSION()":"ad3cb1cc","addLiquidity(uint256,uint256)":"9cd441da","adminSetReferrer(address,address)":"a2af9226","adminUpdateUserData(address,bool,uint256,bool,uint256,bool,uint256,bool,uint256)":"9a5fb0fe","batchUpdateUserStats(address[],uint256[],uint256[])":"d7edbc0c","bindReferrer(address)":"04f618cb","buyTicket(uint256)":"67dd74ca","buybackPercent()":"e4412f68","buybackWallet()":"deab8aea","claimRewards()":"372500ab","directReferrals(address,uint256)":"05ad3935","directRewardPercent()":"ccf61944","emergencyPause()":"51858e27","emergencyPaused()":"27c830a9","emergencyUnpause()":"4a4e3bd5","getDirectReferrals(address)":"d2c8e0e5","getLevelRewardLayers(uint256)":"182c84cc","initialize(address,address,address,address,address,address)":"cc2a9a5b","jbcToken()":"1788513c","lastBurnTime()":"e3067449","levelConfigs(uint256)":"21f483d3","levelRewardPercent()":"bd594dcf","levelRewardPool()":"b759936b","liquidityEnabled()":"b048a4bb","lpInjectionPercent()":"ceaa366d","lpInjectionWallet()":"88fd4d33","marketingPercent()":"d8020a18","marketingWallet()":"75f0a874","mcToken()":"95253992","nextStakeId()":"75506c96","nextTicketId()":"6031a52f","owner()":"8da5cb5b","priceOracle()":"2630c12f","proxiableUUID()":"52d1902d","redeem()":"be040fb0","redeemEnabled()":"d2f82536","redeemStake(uint256)":"10ff994d","redemptionFeePercent()":"dec7fa3b","renounceOwnership()":"715018a6","rescueTokens(address,address,uint256)":"cea9d26f","setDistributionConfig(uint256,uint256,uint256,uint256,uint256,uint256)":"d0f16470","setOperationalStatus(bool,bool)":"01d62efb","setRedemptionFeePercent(uint256)":"ece71266","setSwapTaxes(uint256,uint256)":"90b0eb51","setTicketFlexibilityDuration(uint256)":"9d99eca4","setWallets(address,address,address,address)":"83672f3e","stakeLiquidity(uint256,uint256)":"4ea4c6b3","stakeOwner(uint256)":"3dbd46bd","stakePendingRewards(uint256,uint256)":"ac8f50aa","swapBuyTax()":"27f082f4","swapJBCToMC(uint256)":"52778b05","swapMCToJBC(uint256)":"0a5c4567","swapReserveJBC()":"1d0dac76","swapReserveMC()":"77a2a540","swapSellTax()":"9370b080","ticketFlexibilityDuration()":"6dd66827","ticketOwner(uint256)":"c2ff12fc","ticketPendingRewards(uint256,uint256)":"813380cd","transferOwnership(address)":"f2fde38b","treasuryPercent()":"04ef9d58","treasuryWallet()":"4626402b","upgradeToAndCall(address,bytes)":"4f1ef286","userInfo(address)":"1959a002","userStakes(address,uint256)":"b5d5b5fa","userTicket(address)":"8710bcaa","withdrawLevelRewardPool(address,uint256)":"99b6024d","withdrawSwapReserves(address,uint256,address,uint256)":"d4f00142"}},"storageLayout":{"storage":[{"astId":1726,"contract":"contracts/JinbaoProtocol.sol:JinbaoProtocol","label":"mcToken","offset":0,"slot":"0","type":"t_contract(IERC20)1232"},{"astId":1729,"contract":"contracts/JinbaoProtocol.sol:JinbaoProtocol","label":"jbcToken","offset":0,"slot":"1","type":"t_contract(IJBC)1654"},{"astId":1731,"contract":"contracts/JinbaoProtocol.sol:JinbaoProtocol","label":"marketingWallet","offset":0,"slot":"2","type":"t_address"},{"astId":1733,"contract":"contracts/JinbaoProtocol.sol:JinbaoProtocol","label":"treasuryWallet","offset":0,"slot":"3","type":"t_address"},{"astId":1735,"contract":"contracts/JinbaoProtocol.sol:JinbaoProtocol","label":"lpInjectionWallet","offset":0,"slot":"4","type":"t_address"},{"astId":1737,"contract":"contracts/JinbaoProtocol.sol:JinbaoProtocol","label":"buybackWallet","offset":0,"slot":"5","type":"t_address"},{"astId":1742,"contract":"contracts/JinbaoProtocol.sol:JinbaoProtocol","label":"directRewardPercent","offset":0,"slot":"6","type":"t_uint256"},{"astId":1744,"contract":"contracts/JinbaoProtocol.sol:JinbaoProtocol","label":"levelRewardPercent","offset":0,"slot":"7","type":"t_uint256"},{"astId":1746,"contract":"contracts/JinbaoProtocol.sol:JinbaoProtocol","label":"marketingPercent","offset":0,"slot":"8","type":"t_uint256"},{"astId":1748,"contract":"contracts/JinbaoProtocol.sol:JinbaoProtocol","label":"buybackPercent","offset":0,"slot":"9","type":"t_uint256"},{"astId":1750,"contract":"contracts/JinbaoProtocol.sol:JinbaoProtocol","label":"lpInjectionPercent","offset":0,"slot":"10","type":"t_uint256"},{"astId":1752,"contract":"contracts/JinbaoProtocol.sol:JinbaoProtocol","label":"treasuryPercent","offset":0,"slot":"11","type":"t_uint256"},{"astId":1754,"contract":"contracts/JinbaoProtocol.sol:JinbaoProtocol","label":"redemptionFeePercent","offset":0,"slot":"12","type":"t_uint256"},{"astId":1756,"contract":"contracts/JinbaoProtocol.sol:JinbaoProtocol","label":"swapBuyTax","offset":0,"slot":"13","type":"t_uint256"},{"astId":1758,"contract":"contracts/JinbaoProtocol.sol:JinbaoProtocol","label":"swapSellTax","offset":0,"slot":"14","type":"t_uint256"},{"astId":1778,"contract":"contracts/JinbaoProtocol.sol:JinbaoProtocol","label":"userInfo","offset":0,"slot":"15","type":"t_mapping(t_address,t_struct(UserInfo)1689_storage)"},{"astId":1783,"contract":"contracts/JinbaoProtocol.sol:JinbaoProtocol","label":"userTicket","offset":0,"slot":"16","type":"t_mapping(t_address,t_struct(Ticket)1711_storage)"},{"astId":1789,"contract":"contracts/JinbaoProtocol.sol:JinbaoProtocol","label":"userStakes","offset":0,"slot":"17","type":"t_mapping(t_address,t_array(t_struct(Stake)1702_storage)dyn_storage)"},{"astId":1794,"contract":"contracts/JinbaoProtocol.sol:JinbaoProtocol","label":"directReferrals","offset":0,"slot":"18","type":"t_mapping(t_address,t_array(t_address)dyn_storage)"},{"astId":1800,"contract":"contracts/JinbaoProtocol.sol:JinbaoProtocol","label":"ticketPendingRewards","offset":0,"slot":"19","type":"t_mapping(t_uint256,t_array(t_struct(PendingReward)1716_storage)dyn_storage)"},{"astId":1811,"contract":"contracts/JinbaoProtocol.sol:JinbaoProtocol","label":"levelConfigs","offset":0,"slot":"20","type":"t_array(t_struct(LevelConfig)1807_storage)dyn_storage"},{"astId":1813,"contract":"contracts/JinbaoProtocol.sol:JinbaoProtocol","label":"ticketFlexibilityDuration","offset":0,"slot":"21","type":"t_uint256"},{"astId":1815,"contract":"contracts/JinbaoProtocol.sol:JinbaoProtocol","label":"liquidityEnabled","offset":0,"slot":"22","type":"t_bool"},{"astId":1817,"contract":"contracts/JinbaoProtocol.sol:JinbaoProtocol","label":"redeemEnabled","offset":1,"slot":"22","type":"t_bool"},{"astId":1819,"contract":"contracts/JinbaoProtocol.sol:JinbaoProtocol","label":"swapReserveMC","offset":0,"slot":"23","type":"t_uint256"},{"astId":1821,"contract":"contracts/JinbaoProtocol.sol:JinbaoProtocol","label":"swapReserveJBC","offset":0,"slot":"24","type":"t_uint256"},{"astId":1831,"contract":"contracts/JinbaoProtocol.sol:JinbaoProtocol","label":"nextTicketId","offset":0,"slot":"25","type":"t_uint256"},{"astId":1833,"contract":"contracts/JinbaoProtocol.sol:JinbaoProtocol","label":"nextStakeId","offset":0,"slot":"26","type":"t_uint256"},{"astId":1835,"contract":"contracts/JinbaoProtocol.sol:JinbaoProtocol","label":"lastBurnTime","offset":0,"slot":"27","type":"t_uint256"},{"astId":1839,"contract":"contracts/JinbaoProtocol.sol:JinbaoProtocol","label":"ticketOwner","offset":0,"slot":"28","type":"t_mapping(t_uint256,t_address)"},{"astId":1845,"contract":"contracts/JinbaoProtocol.sol:JinbaoProtocol","label":"stakePendingRewards","offset":0,"slot":"29","type":"t_mapping(t_uint256,t_array(t_struct(PendingReward)1716_storage)dyn_storage)"},{"astId":1849,"contract":"contracts/JinbaoProtocol.sol:JinbaoProtocol","label":"stakeOwner","offset":0,"slot":"30","type":"t_mapping(t_uint256,t_address)"},{"astId":1851,"contract":"contracts/JinbaoProtocol.sol:JinbaoProtocol","label":"levelRewardPool","offset":0,"slot":"31","type":"t_uint256"},{"astId":1855,"contract":"contracts/JinbaoProtocol.sol:JinbaoProtocol","label":"__gap","offset":0,"slot":"32","type":"t_array(t_uint256)47_storage"},{"astId":1857,"contract":"contracts/JinbaoProtocol.sol:JinbaoProtocol","label":"emergencyPaused","offset":0,"slot":"79","type":"t_bool"},{"astId":1859,"contract":"contracts/JinbaoProtocol.sol:JinbaoProtocol","label":"priceOracle","offset":1,"slot":"79","type":"t_address"}],"types":{"t_address":{"encoding":"inplace","label":"address","numberOfBytes":"20"},"t_array(t_address)dyn_storage":{"base":"t_address","encoding":"dynamic_array","label":"address[]","numberOfBytes":"32"},"t_array(t_struct(LevelConfig)1807_storage)dyn_storage":{"base":"t_struct(LevelConfig)1807_storage","encoding":"dynamic_array","label":"struct JinbaoProtocol.LevelConfig[]","numberOfBytes":"32"},"t_array(t_struct(PendingReward)1716_storage)dyn_storage":{"base":"t_struct(PendingReward)1716_storage","encoding":"dynamic_array","label":"struct JinbaoProtocol.PendingReward[]","numberOfBytes":"32"},"t_array(t_struct(Stake)1702_storage)dyn_storage":{"base":"t_struct(Stake)1702_storage","encoding":"dynamic_array","label":"struct JinbaoProtocol.Stake[]","numberOfBytes":"32"},"t_array(t_uint256)47_storage":{"base":"t_uint256","encoding":"inplace","label":"uint256[47]","numberOfBytes":"1504"},"t_bool":{"encoding":"inplace","label":"bool","numberOfBytes":"1"},"t_contract(IERC20)1232":{"encoding":"inplace","label":"contract IERC20","numberOfBytes":"20"},"t_contract(IJBC)1654":{"encoding":"inplace","label":"contract IJBC","numberOfBytes":"20"},"t_mapping(t_address,t_array(t_address)dyn_storage)":{"encoding":"mapping","key":"t_address","label":"mapping(address => address[])","numberOfBytes":"32","value":"t_array(t_address)dyn_storage"},"t_mapping(t_address,t_array(t_struct(Stake)1702_storage)dyn_storage)":{"encoding":"mapping","key":"t_address","label":"mapping(address => struct JinbaoProtocol.Stake[])","numberOfBytes":"32","value":"t_array(t_struct(Stake)1702_storage)dyn_storage"},"t_mapping(t_address,t_struct(Ticket)1711_storage)":{"encoding":"mapping","key":"t_address","label":"mapping(address => struct JinbaoProtocol.Ticket)","numberOfBytes":"32","value":"t_struct(Ticket)1711_storage"},"t_mapping(t_address,t_struct(UserInfo)1689_storage)":{"encoding":"mapping","key":"t_address","label":"mapping(address => struct JinbaoProtocol.UserInfo)","numberOfBytes":"32","value":"t_struct(UserInfo)1689_storage"},"t_mapping(t_uint256,t_address)":{"encoding":"mapping","key":"t_uint256","label":"mapping(uint256 => address)","numberOfBytes":"32","value":"t_address"},"t_mapping(t_uint256,t_array(t_struct(PendingReward)1716_storage)dyn_storage)":{"encoding":"mapping","key":"t_uint256","label":"mapping(uint256 => struct JinbaoProtocol.PendingReward[])","numberOfBytes":"32","value":"t_array(t_struct(PendingReward)1716_storage)dyn_storage"},"t_struct(LevelConfig)1807_storage":{"encoding":"inplace","label":"struct JinbaoProtocol.LevelConfig","members":[{"astId":1802,"contract":"contracts/JinbaoProtocol.sol:JinbaoProtocol","label":"minDirects","offset":0,"slot":"0","type":"t_uint256"},{"astId":1804,"contract":"contracts/JinbaoProtocol.sol:JinbaoProtocol","label":"level","offset":0,"slot":"1","type":"t_uint256"},{"astId":1806,"contract":"contracts/JinbaoProtocol.sol:JinbaoProtocol","label":"percent","offset":0,"slot":"2","type":"t_uint256"}],"numberOfBytes":"96"},"t_struct(PendingReward)1716_storage":{"encoding":"inplace","label":"struct JinbaoProtocol.PendingReward","members":[{"astId":1713,"contract":"contracts/JinbaoProtocol.sol:JinbaoProtocol","label":"upline","offset":0,"slot":"0","type":"t_address"},{"astId":1715,"contract":"contracts/JinbaoProtocol.sol:JinbaoProtocol","label":"amount","offset":0,"slot":"1","type":"t_uint256"}],"numberOfBytes":"64"},"t_struct(Stake)1702_storage":{"encoding":"inplace","label":"struct JinbaoProtocol.Stake","members":[{"astId":1691,"contract":"contracts/JinbaoProtocol.sol:JinbaoProtocol","label":"id","offset":0,"slot":"0","type":"t_uint256"},{"astId":1693,"contract":"contracts/JinbaoProtocol.sol:JinbaoProtocol","label":"amount","offset":0,"slot":"1","type":"t_uint256"},{"astId":1695,"contract":"contracts/JinbaoProtocol.sol:JinbaoProtocol","label":"startTime","offset":0,"slot":"2","type":"t_uint256"},{"astId":1697,"contract":"contracts/JinbaoProtocol.sol:JinbaoProtocol","label":"cycleDays","offset":0,"slot":"3","type":"t_uint256"},{"astId":1699,"contract":"contracts/JinbaoProtocol.sol:JinbaoProtocol","label":"active","offset":0,"slot":"4","type":"t_bool"},{"astId":1701,"contract":"contracts/JinbaoProtocol.sol:JinbaoProtocol","label":"paid","offset":0,"slot":"5","type":"t_uint256"}],"numberOfBytes":"192"},"t_struct(Ticket)1711_storage":{"encoding":"inplace","label":"struct JinbaoProtocol.Ticket","members":[{"astId":1704,"contract":"contracts/JinbaoProtocol.sol:JinbaoProtocol","label":"ticketId","offset":0,"slot":"0","type":"t_uint256"},{"astId":1706,"contract":"contracts/JinbaoProtocol.sol:JinbaoProtocol","label":"amount","offset":0,"slot":"1","type":"t_uint256"},{"astId":1708,"contract":"contracts/JinbaoProtocol.sol:JinbaoProtocol","label":"purchaseTime","offset":0,"slot":"2","type":"t_uint256"},{"astId":1710,"contract":"contracts/JinbaoProtocol.sol:JinbaoProtocol","label":"exited","offset":0,"slot":"3","type":"t_bool"}],"numberOfBytes":"128"},"t_struct(UserInfo)1689_storage":{"encoding":"inplace","label":"struct JinbaoProtocol.UserInfo","members":[{"astId":1668,"contract":"contracts/JinbaoProtocol.sol:JinbaoProtocol","label":"referrer","offset":0,"slot":"0","type":"t_address"},{"astId":1670,"contract":"contracts/JinbaoProtocol.sol:JinbaoProtocol","label":"activeDirects","offset":0,"slot":"1","type":"t_uint256"},{"astId":1672,"contract":"contracts/JinbaoProtocol.sol:JinbaoProtocol","label":"teamCount","offset":0,"slot":"2","type":"t_uint256"},{"astId":1674,"contract":"contracts/JinbaoProtocol.sol:JinbaoProtocol","label":"totalRevenue","offset":0,"slot":"3","type":"t_uint256"},{"astId":1676,"contract":"contracts/JinbaoProtocol.sol:JinbaoProtocol","label":"currentCap","offset":0,"slot":"4","type":"t_uint256"},{"astId":1678,"contract":"contracts/JinbaoProtocol.sol:JinbaoProtocol","label":"isActive","offset":0,"slot":"5","type":"t_bool"},{"astId":1680,"contract":"contracts/JinbaoProtocol.sol:JinbaoProtocol","label":"refundFeeAmount","offset":0,"slot":"6","type":"t_uint256"},{"astId":1682,"contract":"contracts/JinbaoProtocol.sol:JinbaoProtocol","label":"teamTotalVolume","offset":0,"slot":"7","type":"t_uint256"},{"astId":1684,"contract":"contracts/JinbaoProtocol.sol:JinbaoProtocol","label":"teamTotalCap","offset":0,"slot":"8","type":"t_uint256"},{"astId":1686,"contract":"contracts/JinbaoProtocol.sol:JinbaoProtocol","label":"maxTicketAmount","offset":0,"slot":"9","type":"t_uint256"},{"astId":1688,"contract":"contracts/JinbaoProtocol.sol:JinbaoProtocol","label":"maxSingleTicketAmount","offset":0,"slot":"10","type":"t_uint256"}],"numberOfBytes":"352"},"t_uint256":{"encoding":"inplace","label":"uint256","numberOfBytes":"32"}}}}}}