{"contracts/JinbaoProtocol.sol":{"JinbaoProtocol":{"abi":[{"inputs":[],"stateMutability":"nonpayable","type":"constructor"},{"inputs":[{"internalType":"address","name":"target","type":"address"}],"name":"AddressEmptyCode","type":"error"},{"inputs":[],"name":"AlreadyBound","type":"error"},{"inputs":[],"name":"AlreadyExited","type":"error"},{"inputs":[],"name":"BatchUpdateSizeMismatch","type":"error"},{"inputs":[{"internalType":"address","name":"implementation","type":"address"}],"name":"ERC1967InvalidImplementation","type":"error"},{"inputs":[],"name":"ERC1967NonPayable","type":"error"},{"inputs":[],"name":"Expired","type":"error"},{"inputs":[],"name":"FailedCall","type":"error"},{"inputs":[],"name":"InsufficientBalance","type":"error"},{"inputs":[],"name":"InvalidAddress","type":"error"},{"inputs":[],"name":"InvalidAmount","type":"error"},{"inputs":[],"name":"InvalidCycle","type":"error"},{"inputs":[],"name":"InvalidFee","type":"error"},{"inputs":[],"name":"InvalidInitialization","type":"error"},{"inputs":[],"name":"InvalidLevelConfig","type":"error"},{"inputs":[],"name":"InvalidRate","type":"error"},{"inputs":[],"name":"InvalidTax","type":"error"},{"inputs":[],"name":"InvalidTeamCountUpdate","type":"error"},{"inputs":[],"name":"LowLiquidity","type":"error"},{"inputs":[],"name":"NoRewards","type":"error"},{"inputs":[],"name":"NotActive","type":"error"},{"inputs":[],"name":"NotInitializing","type":"error"},{"inputs":[],"name":"NothingToRedeem","type":"error"},{"inputs":[{"internalType":"address","name":"owner","type":"address"}],"name":"OwnableInvalidOwner","type":"error"},{"inputs":[{"internalType":"address","name":"account","type":"address"}],"name":"OwnableUnauthorizedAccount","type":"error"},{"inputs":[],"name":"RecursionDepthExceeded","type":"error"},{"inputs":[],"name":"ReentrancyGuardReentrantCall","type":"error"},{"inputs":[],"name":"SelfReference","type":"error"},{"inputs":[],"name":"SumNot100","type":"error"},{"inputs":[{"internalType":"address","name":"user","type":"address"},{"internalType":"uint256","name":"expected","type":"uint256"},{"internalType":"uint256","name":"actual","type":"uint256"}],"name":"TeamCountMismatch","type":"error"},{"inputs":[],"name":"TeamCountOverflow","type":"error"},{"inputs":[],"name":"TransferFailed","type":"error"},{"inputs":[],"name":"UUPSUnauthorizedCallContext","type":"error"},{"inputs":[{"internalType":"bytes32","name":"slot","type":"bytes32"}],"name":"UUPSUnsupportedProxiableUUID","type":"error"},{"inputs":[],"name":"Unauthorized","type":"error"},{"anonymous":false,"inputs":[{"indexed":false,"internalType":"uint256","name":"usersUpdated","type":"uint256"}],"name":"BatchTeamCountsUpdated","type":"event"},{"anonymous":false,"inputs":[{"indexed":true,"internalType":"address","name":"user","type":"address"},{"indexed":true,"internalType":"address","name":"referrer","type":"address"}],"name":"BoundReferrer","type":"event"},{"anonymous":false,"inputs":[{"indexed":false,"internalType":"uint256","name":"mcAmount","type":"uint256"},{"indexed":false,"internalType":"uint256","name":"jbcBurned","type":"uint256"}],"name":"BuybackAndBurn","type":"event"},{"anonymous":false,"inputs":[{"indexed":true,"internalType":"uint256","name":"stakeId","type":"uint256"},{"indexed":true,"internalType":"address","name":"upline","type":"address"},{"indexed":false,"internalType":"uint256","name":"amount","type":"uint256"}],"name":"DifferentialRewardRecorded","type":"event"},{"anonymous":false,"inputs":[{"indexed":true,"internalType":"uint256","name":"stakeId","type":"uint256"},{"indexed":true,"internalType":"address","name":"upline","type":"address"},{"indexed":false,"internalType":"uint256","name":"amount","type":"uint256"}],"name":"DifferentialRewardReleased","type":"event"},{"anonymous":false,"inputs":[{"indexed":false,"internalType":"uint256","name":"direct","type":"uint256"},{"indexed":false,"internalType":"uint256","name":"level","type":"uint256"},{"indexed":false,"internalType":"uint256","name":"marketing","type":"uint256"},{"indexed":false,"internalType":"uint256","name":"buyback","type":"uint256"},{"indexed":false,"internalType":"uint256","name":"lpInjection","type":"uint256"},{"indexed":false,"internalType":"uint256","name":"treasury","type":"uint256"}],"name":"DistributionConfigUpdated","type":"event"},{"anonymous":false,"inputs":[],"name":"EmergencyPaused","type":"event"},{"anonymous":false,"inputs":[],"name":"EmergencyUnpaused","type":"event"},{"anonymous":false,"inputs":[{"indexed":true,"internalType":"address","name":"user","type":"address"},{"indexed":false,"internalType":"uint256","name":"ticketId","type":"uint256"}],"name":"Exited","type":"event"},{"anonymous":false,"inputs":[{"indexed":true,"internalType":"address","name":"user","type":"address"},{"indexed":false,"internalType":"uint256","name":"amount","type":"uint256"}],"name":"FeeRefunded","type":"event"},{"anonymous":false,"inputs":[{"indexed":false,"internalType":"uint64","name":"version","type":"uint64"}],"name":"Initialized","type":"event"},{"anonymous":false,"inputs":[],"name":"LevelConfigsUpdated","type":"event"},{"anonymous":false,"inputs":[{"indexed":false,"internalType":"uint256","name":"amount","type":"uint256"},{"indexed":false,"internalType":"uint256","name":"newTotal","type":"uint256"}],"name":"LevelRewardPoolUpdated","type":"event"},{"anonymous":false,"inputs":[{"indexed":true,"internalType":"address","name":"to","type":"address"},{"indexed":false,"internalType":"uint256","name":"amount","type":"uint256"}],"name":"LevelRewardPoolWithdrawn","type":"event"},{"anonymous":false,"inputs":[{"indexed":true,"internalType":"uint256","name":"ticketId","type":"uint256"},{"indexed":true,"internalType":"address","name":"upline","type":"address"},{"indexed":false,"internalType":"uint256","name":"amount","type":"uint256"}],"name":"LevelRewardRecorded","type":"event"},{"anonymous":false,"inputs":[{"indexed":true,"internalType":"uint256","name":"ticketId","type":"uint256"},{"indexed":true,"internalType":"address","name":"upline","type":"address"},{"indexed":false,"internalType":"uint256","name":"amount","type":"uint256"}],"name":"LevelRewardReleased","type":"event"},{"anonymous":false,"inputs":[{"indexed":false,"internalType":"uint256","name":"mcAmount","type":"uint256"},{"indexed":false,"internalType":"uint256","name":"jbcAmount","type":"uint256"}],"name":"LiquidityAdded","type":"event"},{"anonymous":false,"inputs":[{"indexed":true,"internalType":"address","name":"user","type":"address"},{"indexed":false,"internalType":"uint256","name":"amount","type":"uint256"},{"indexed":false,"internalType":"uint256","name":"cycleDays","type":"uint256"},{"indexed":false,"internalType":"uint256","name":"stakeId","type":"uint256"}],"name":"LiquidityStaked","type":"event"},{"anonymous":false,"inputs":[{"indexed":false,"internalType":"bool","name":"enabled","type":"bool"}],"name":"LiquidityStatusUpdated","type":"event"},{"anonymous":false,"inputs":[{"indexed":true,"internalType":"address","name":"previousOwner","type":"address"},{"indexed":true,"internalType":"address","name":"newOwner","type":"address"}],"name":"OwnershipTransferred","type":"event"},{"anonymous":false,"inputs":[{"indexed":false,"internalType":"bool","name":"enabled","type":"bool"}],"name":"RedeemStatusUpdated","type":"event"},{"anonymous":false,"inputs":[{"indexed":true,"internalType":"address","name":"user","type":"address"},{"indexed":false,"internalType":"uint256","name":"principal","type":"uint256"},{"indexed":false,"internalType":"uint256","name":"fee","type":"uint256"}],"name":"Redeemed","type":"event"},{"anonymous":false,"inputs":[{"indexed":false,"internalType":"uint256","name":"newFee","type":"uint256"}],"name":"RedemptionFeeUpdated","type":"event"},{"anonymous":false,"inputs":[{"indexed":true,"internalType":"address","name":"user","type":"address"},{"indexed":true,"internalType":"address","name":"from","type":"address"},{"indexed":false,"internalType":"uint256","name":"mcAmount","type":"uint256"},{"indexed":false,"internalType":"uint8","name":"rewardType","type":"uint8"},{"indexed":false,"internalType":"uint256","name":"ticketId","type":"uint256"}],"name":"ReferralRewardPaid","type":"event"},{"anonymous":false,"inputs":[{"indexed":true,"internalType":"address","name":"user","type":"address"},{"indexed":false,"internalType":"uint256","name":"amount","type":"uint256"},{"indexed":false,"internalType":"uint256","name":"cappedAmount","type":"uint256"}],"name":"RewardCapped","type":"event"},{"anonymous":false,"inputs":[{"indexed":true,"internalType":"address","name":"user","type":"address"},{"indexed":false,"internalType":"uint256","name":"mcAmount","type":"uint256"},{"indexed":false,"internalType":"uint256","name":"jbcAmount","type":"uint256"},{"indexed":false,"internalType":"uint8","name":"rewardType","type":"uint8"},{"indexed":false,"internalType":"uint256","name":"ticketId","type":"uint256"}],"name":"RewardClaimed","type":"event"},{"anonymous":false,"inputs":[{"indexed":true,"internalType":"address","name":"user","type":"address"},{"indexed":false,"internalType":"uint256","name":"amount","type":"uint256"},{"indexed":false,"internalType":"uint8","name":"rewardType","type":"uint8"}],"name":"RewardPaid","type":"event"},{"anonymous":false,"inputs":[{"indexed":false,"internalType":"uint256","name":"mcAmount","type":"uint256"},{"indexed":false,"internalType":"uint256","name":"jbcAmount","type":"uint256"}],"name":"SwapReservesWithdrawn","type":"event"},{"anonymous":false,"inputs":[{"indexed":false,"internalType":"uint256","name":"buyTax","type":"uint256"},{"indexed":false,"internalType":"uint256","name":"sellTax","type":"uint256"}],"name":"SwapTaxesUpdated","type":"event"},{"anonymous":false,"inputs":[{"indexed":true,"internalType":"address","name":"user","type":"address"},{"indexed":false,"internalType":"uint256","name":"jbcAmount","type":"uint256"},{"indexed":false,"internalType":"uint256","name":"mcAmount","type":"uint256"},{"indexed":false,"internalType":"uint256","name":"tax","type":"uint256"}],"name":"SwappedJBCToMC","type":"event"},{"anonymous":false,"inputs":[{"indexed":true,"internalType":"address","name":"user","type":"address"},{"indexed":false,"internalType":"uint256","name":"mcAmount","type":"uint256"},{"indexed":false,"internalType":"uint256","name":"jbcAmount","type":"uint256"},{"indexed":false,"internalType":"uint256","name":"tax","type":"uint256"}],"name":"SwappedMCToJBC","type":"event"},{"anonymous":false,"inputs":[{"indexed":true,"internalType":"uint256","name":"stakeId","type":"uint256"},{"indexed":true,"internalType":"address","name":"upline","type":"address"},{"indexed":false,"internalType":"uint256","name":"amount","type":"uint256"},{"indexed":false,"internalType":"uint256","name":"teamCount","type":"uint256"}],"name":"TeamBasedRewardCalculated","type":"event"},{"anonymous":false,"inputs":[{"indexed":true,"internalType":"address","name":"user","type":"address"},{"indexed":false,"internalType":"uint256","name":"oldCount","type":"uint256"},{"indexed":false,"internalType":"uint256","name":"newCount","type":"uint256"}],"name":"TeamCountUpdated","type":"event"},{"anonymous":false,"inputs":[{"indexed":true,"internalType":"address","name":"user","type":"address"},{"indexed":false,"internalType":"uint256","name":"expected","type":"uint256"},{"indexed":false,"internalType":"uint256","name":"actual","type":"uint256"}],"name":"TeamCountValidationFailed","type":"event"},{"anonymous":false,"inputs":[{"indexed":true,"internalType":"address","name":"user","type":"address"},{"indexed":false,"internalType":"uint256","name":"ticketId","type":"uint256"},{"indexed":false,"internalType":"uint256","name":"amount","type":"uint256"}],"name":"TicketExpired","type":"event"},{"anonymous":false,"inputs":[{"indexed":false,"internalType":"uint256","name":"newDuration","type":"uint256"}],"name":"TicketFlexibilityDurationUpdated","type":"event"},{"anonymous":false,"inputs":[{"indexed":true,"internalType":"address","name":"user","type":"address"},{"indexed":false,"internalType":"uint256","name":"amount","type":"uint256"},{"indexed":false,"internalType":"uint256","name":"ticketId","type":"uint256"}],"name":"TicketPurchased","type":"event"},{"anonymous":false,"inputs":[{"indexed":false,"internalType":"address","name":"token","type":"address"},{"indexed":false,"internalType":"address","name":"to","type":"address"},{"indexed":false,"internalType":"uint256","name":"amount","type":"uint256"}],"name":"TokensRescued","type":"event"},{"anonymous":false,"inputs":[{"indexed":true,"internalType":"address","name":"implementation","type":"address"}],"name":"Upgraded","type":"event"},{"anonymous":false,"inputs":[{"indexed":false,"internalType":"address","name":"marketing","type":"address"},{"indexed":false,"internalType":"address","name":"treasury","type":"address"},{"indexed":false,"internalType":"address","name":"lpInjection","type":"address"},{"indexed":false,"internalType":"address","name":"buyback","type":"address"}],"name":"WalletsUpdated","type":"event"},{"inputs":[],"name":"MAX_PRICE_IMPACT","outputs":[{"internalType":"uint256","name":"","type":"uint256"}],"stateMutability":"view","type":"function"},{"inputs":[],"name":"MIN_LIQUIDITY","outputs":[{"internalType":"uint256","name":"","type":"uint256"}],"stateMutability":"view","type":"function"},{"inputs":[],"name":"REWARD_DIFFERENTIAL","outputs":[{"internalType":"uint8","name":"","type":"uint8"}],"stateMutability":"view","type":"function"},{"inputs":[],"name":"REWARD_DIRECT","outputs":[{"internalType":"uint8","name":"","type":"uint8"}],"stateMutability":"view","type":"function"},{"inputs":[],"name":"REWARD_DYNAMIC","outputs":[{"internalType":"uint8","name":"","type":"uint8"}],"stateMutability":"view","type":"function"},{"inputs":[],"name":"REWARD_LEVEL","outputs":[{"internalType":"uint8","name":"","type":"uint8"}],"stateMutability":"view","type":"function"},{"inputs":[],"name":"REWARD_STATIC","outputs":[{"internalType":"uint8","name":"","type":"uint8"}],"stateMutability":"view","type":"function"},{"inputs":[],"name":"SECONDS_IN_UNIT","outputs":[{"internalType":"uint256","name":"","type":"uint256"}],"stateMutability":"view","type":"function"},{"inputs":[],"name":"UPGRADE_INTERFACE_VERSION","outputs":[{"internalType":"string","name":"","type":"string"}],"stateMutability":"view","type":"function"},{"inputs":[{"internalType":"uint256","name":"mcAmount","type":"uint256"},{"internalType":"uint256","name":"jbcAmount","type":"uint256"}],"name":"addLiquidity","outputs":[],"stateMutability":"nonpayable","type":"function"},{"inputs":[{"internalType":"address[]","name":"users","type":"address[]"},{"internalType":"uint256[]","name":"counts","type":"uint256[]"}],"name":"batchUpdateTeamCounts","outputs":[],"stateMutability":"nonpayable","type":"function"},{"inputs":[{"internalType":"address[]","name":"users","type":"address[]"},{"internalType":"uint256[]","name":"volumes","type":"uint256[]"}],"name":"batchUpdateTeamVolumes","outputs":[],"stateMutability":"nonpayable","type":"function"},{"inputs":[{"internalType":"address","name":"_referrer","type":"address"}],"name":"bindReferrer","outputs":[],"stateMutability":"nonpayable","type":"function"},{"inputs":[{"internalType":"uint256","name":"amount","type":"uint256"}],"name":"buyTicket","outputs":[],"stateMutability":"nonpayable","type":"function"},{"inputs":[],"name":"buybackPercent","outputs":[{"internalType":"uint256","name":"","type":"uint256"}],"stateMutability":"view","type":"function"},{"inputs":[],"name":"buybackWallet","outputs":[{"internalType":"address","name":"","type":"address"}],"stateMutability":"view","type":"function"},{"inputs":[],"name":"claimRewards","outputs":[],"stateMutability":"nonpayable","type":"function"},{"inputs":[{"internalType":"address","name":"","type":"address"},{"internalType":"uint256","name":"","type":"uint256"}],"name":"directReferrals","outputs":[{"internalType":"address","name":"","type":"address"}],"stateMutability":"view","type":"function"},{"inputs":[],"name":"directRewardPercent","outputs":[{"internalType":"uint256","name":"","type":"uint256"}],"stateMutability":"view","type":"function"},{"inputs":[],"name":"emergencyPause","outputs":[],"stateMutability":"nonpayable","type":"function"},{"inputs":[],"name":"emergencyPaused","outputs":[{"internalType":"bool","name":"","type":"bool"}],"stateMutability":"view","type":"function"},{"inputs":[],"name":"emergencyUnpause","outputs":[],"stateMutability":"nonpayable","type":"function"},{"inputs":[{"internalType":"address","name":"user","type":"address"}],"name":"getDirectReferrals","outputs":[{"internalType":"address[]","name":"","type":"address[]"}],"stateMutability":"view","type":"function"},{"inputs":[],"name":"getJBCPrice","outputs":[{"internalType":"uint256","name":"","type":"uint256"}],"stateMutability":"view","type":"function"},{"inputs":[{"internalType":"uint256","name":"activeDirects","type":"uint256"}],"name":"getLevel","outputs":[{"internalType":"uint256","name":"level","type":"uint256"},{"internalType":"uint256","name":"percent","type":"uint256"}],"stateMutability":"pure","type":"function"},{"inputs":[{"internalType":"uint256","name":"teamCount","type":"uint256"}],"name":"getLevelByTeamCount","outputs":[{"internalType":"uint256","name":"level","type":"uint256"},{"internalType":"uint256","name":"percent","type":"uint256"}],"stateMutability":"pure","type":"function"},{"inputs":[{"internalType":"uint256","name":"activeDirects","type":"uint256"}],"name":"getLevelRewardLayers","outputs":[{"internalType":"uint256","name":"","type":"uint256"}],"stateMutability":"pure","type":"function"},{"inputs":[{"internalType":"address","name":"_mcToken","type":"address"},{"internalType":"address","name":"_jbcToken","type":"address"},{"internalType":"address","name":"_marketing","type":"address"},{"internalType":"address","name":"_treasury","type":"address"},{"internalType":"address","name":"_lpInjection","type":"address"},{"internalType":"address","name":"_buybackWallet","type":"address"}],"name":"initialize","outputs":[],"stateMutability":"nonpayable","type":"function"},{"inputs":[],"name":"jbcToken","outputs":[{"internalType":"contract IJBC","name":"","type":"address"}],"stateMutability":"view","type":"function"},{"inputs":[],"name":"lastBurnTime","outputs":[{"internalType":"uint256","name":"","type":"uint256"}],"stateMutability":"view","type":"function"},{"inputs":[{"internalType":"uint256","name":"","type":"uint256"}],"name":"levelConfigs","outputs":[{"internalType":"uint256","name":"minDirects","type":"uint256"},{"internalType":"uint256","name":"level","type":"uint256"},{"internalType":"uint256","name":"percent","type":"uint256"}],"stateMutability":"view","type":"function"},{"inputs":[],"name":"levelRewardPercent","outputs":[{"internalType":"uint256","name":"","type":"uint256"}],"stateMutability":"view","type":"function"},{"inputs":[],"name":"levelRewardPool","outputs":[{"internalType":"uint256","name":"","type":"uint256"}],"stateMutability":"view","type":"function"},{"inputs":[],"name":"liquidityEnabled","outputs":[{"internalType":"bool","name":"","type":"bool"}],"stateMutability":"view","type":"function"},{"inputs":[],"name":"lpInjectionPercent","outputs":[{"internalType":"uint256","name":"","type":"uint256"}],"stateMutability":"view","type":"function"},{"inputs":[],"name":"lpInjectionWallet","outputs":[{"internalType":"address","name":"","type":"address"}],"stateMutability":"view","type":"function"},{"inputs":[],"name":"marketingPercent","outputs":[{"internalType":"uint256","name":"","type":"uint256"}],"stateMutability":"view","type":"function"},{"inputs":[],"name":"marketingWallet","outputs":[{"internalType":"address","name":"","type":"address"}],"stateMutability":"view","type":"function"},{"inputs":[],"name":"mcToken","outputs":[{"internalType":"contract IERC20","name":"","type":"address"}],"stateMutability":"view","type":"function"},{"inputs":[],"name":"nextStakeId","outputs":[{"internalType":"uint256","name":"","type":"uint256"}],"stateMutability":"view","type":"function"},{"inputs":[],"name":"nextTicketId","outputs":[{"internalType":"uint256","name":"","type":"uint256"}],"stateMutability":"view","type":"function"},{"inputs":[],"name":"owner","outputs":[{"internalType":"address","name":"","type":"address"}],"stateMutability":"view","type":"function"},{"inputs":[],"name":"priceOracle","outputs":[{"internalType":"address","name":"","type":"address"}],"stateMutability":"view","type":"function"},{"inputs":[],"name":"proxiableUUID","outputs":[{"internalType":"bytes32","name":"","type":"bytes32"}],"stateMutability":"view","type":"function"},{"inputs":[],"name":"redeem","outputs":[],"stateMutability":"nonpayable","type":"function"},{"inputs":[],"name":"redeemEnabled","outputs":[{"internalType":"bool","name":"","type":"bool"}],"stateMutability":"view","type":"function"},{"inputs":[{"internalType":"uint256","name":"stakeId","type":"uint256"}],"name":"redeemStake","outputs":[],"stateMutability":"nonpayable","type":"function"},{"inputs":[],"name":"redemptionFeePercent","outputs":[{"internalType":"uint256","name":"","type":"uint256"}],"stateMutability":"view","type":"function"},{"inputs":[],"name":"renounceOwnership","outputs":[],"stateMutability":"nonpayable","type":"function"},{"inputs":[{"internalType":"address","name":"_token","type":"address"},{"internalType":"address","name":"_to","type":"address"},{"internalType":"uint256","name":"_amount","type":"uint256"}],"name":"rescueTokens","outputs":[],"stateMutability":"nonpayable","type":"function"},{"inputs":[{"internalType":"uint256","name":"_direct","type":"uint256"},{"internalType":"uint256","name":"_level","type":"uint256"},{"internalType":"uint256","name":"_marketing","type":"uint256"},{"internalType":"uint256","name":"_buyback","type":"uint256"},{"internalType":"uint256","name":"_lpInjection","type":"uint256"},{"internalType":"uint256","name":"_treasury","type":"uint256"}],"name":"setDistributionConfig","outputs":[],"stateMutability":"nonpayable","type":"function"},{"inputs":[{"internalType":"bool","name":"_liquidityEnabled","type":"bool"},{"internalType":"bool","name":"_redeemEnabled","type":"bool"}],"name":"setOperationalStatus","outputs":[],"stateMutability":"nonpayable","type":"function"},{"inputs":[{"internalType":"address","name":"_oracle","type":"address"}],"name":"setPriceOracle","outputs":[],"stateMutability":"nonpayable","type":"function"},{"inputs":[{"internalType":"uint256","name":"_fee","type":"uint256"}],"name":"setRedemptionFeePercent","outputs":[],"stateMutability":"nonpayable","type":"function"},{"inputs":[{"internalType":"uint256","name":"_buyTax","type":"uint256"},{"internalType":"uint256","name":"_sellTax","type":"uint256"}],"name":"setSwapTaxes","outputs":[],"stateMutability":"nonpayable","type":"function"},{"inputs":[{"internalType":"uint256","name":"_duration","type":"uint256"}],"name":"setTicketFlexibilityDuration","outputs":[],"stateMutability":"nonpayable","type":"function"},{"inputs":[{"internalType":"address","name":"_marketing","type":"address"},{"internalType":"address","name":"_treasury","type":"address"},{"internalType":"address","name":"_lpInjection","type":"address"},{"internalType":"address","name":"_buyback","type":"address"}],"name":"setWallets","outputs":[],"stateMutability":"nonpayable","type":"function"},{"inputs":[{"internalType":"uint256","name":"amount","type":"uint256"},{"internalType":"uint256","name":"cycleDays","type":"uint256"}],"name":"stakeLiquidity","outputs":[],"stateMutability":"nonpayable","type":"function"},{"inputs":[{"internalType":"uint256","name":"","type":"uint256"}],"name":"stakeOwner","outputs":[{"internalType":"address","name":"","type":"address"}],"stateMutability":"view","type":"function"},{"inputs":[{"internalType":"uint256","name":"","type":"uint256"},{"internalType":"uint256","name":"","type":"uint256"}],"name":"stakePendingRewards","outputs":[{"internalType":"address","name":"upline","type":"address"},{"internalType":"uint256","name":"amount","type":"uint256"}],"stateMutability":"view","type":"function"},{"inputs":[],"name":"swapBuyTax","outputs":[{"internalType":"uint256","name":"","type":"uint256"}],"stateMutability":"view","type":"function"},{"inputs":[{"internalType":"uint256","name":"jbcAmount","type":"uint256"}],"name":"swapJBCToMC","outputs":[],"stateMutability":"nonpayable","type":"function"},{"inputs":[{"internalType":"uint256","name":"mcAmount","type":"uint256"}],"name":"swapMCToJBC","outputs":[],"stateMutability":"nonpayable","type":"function"},{"inputs":[],"name":"swapReserveJBC","outputs":[{"internalType":"uint256","name":"","type":"uint256"}],"stateMutability":"view","type":"function"},{"inputs":[],"name":"swapReserveMC","outputs":[{"internalType":"uint256","name":"","type":"uint256"}],"stateMutability":"view","type":"function"},{"inputs":[],"name":"swapSellTax","outputs":[{"internalType":"uint256","name":"","type":"uint256"}],"stateMutability":"view","type":"function"},{"inputs":[],"name":"ticketFlexibilityDuration","outputs":[{"internalType":"uint256","name":"","type":"uint256"}],"stateMutability":"view","type":"function"},{"inputs":[{"internalType":"uint256","name":"","type":"uint256"}],"name":"ticketOwner","outputs":[{"internalType":"address","name":"","type":"address"}],"stateMutability":"view","type":"function"},{"inputs":[{"internalType":"uint256","name":"","type":"uint256"},{"internalType":"uint256","name":"","type":"uint256"}],"name":"ticketPendingRewards","outputs":[{"internalType":"address","name":"upline","type":"address"},{"internalType":"uint256","name":"amount","type":"uint256"}],"stateMutability":"view","type":"function"},{"inputs":[{"internalType":"address","name":"newOwner","type":"address"}],"name":"transferOwnership","outputs":[],"stateMutability":"nonpayable","type":"function"},{"inputs":[],"name":"treasuryPercent","outputs":[{"internalType":"uint256","name":"","type":"uint256"}],"stateMutability":"view","type":"function"},{"inputs":[],"name":"treasuryWallet","outputs":[{"internalType":"address","name":"","type":"address"}],"stateMutability":"view","type":"function"},{"inputs":[{"internalType":"address","name":"newImplementation","type":"address"},{"internalType":"bytes","name":"data","type":"bytes"}],"name":"upgradeToAndCall","outputs":[],"stateMutability":"payable","type":"function"},{"inputs":[{"internalType":"address","name":"","type":"address"}],"name":"userInfo","outputs":[{"internalType":"address","name":"referrer","type":"address"},{"internalType":"uint256","name":"activeDirects","type":"uint256"},{"internalType":"uint256","name":"teamCount","type":"uint256"},{"internalType":"uint256","name":"totalRevenue","type":"uint256"},{"internalType":"uint256","name":"currentCap","type":"uint256"},{"internalType":"bool","name":"isActive","type":"bool"},{"internalType":"uint256","name":"refundFeeAmount","type":"uint256"},{"internalType":"uint256","name":"teamTotalVolume","type":"uint256"},{"internalType":"uint256","name":"teamTotalCap","type":"uint256"},{"internalType":"uint256","name":"maxTicketAmount","type":"uint256"},{"internalType":"uint256","name":"maxSingleTicketAmount","type":"uint256"}],"stateMutability":"view","type":"function"},{"inputs":[{"internalType":"address","name":"","type":"address"},{"internalType":"uint256","name":"","type":"uint256"}],"name":"userStakes","outputs":[{"internalType":"uint256","name":"id","type":"uint256"},{"internalType":"uint256","name":"amount","type":"uint256"},{"internalType":"uint256","name":"startTime","type":"uint256"},{"internalType":"uint256","name":"cycleDays","type":"uint256"},{"internalType":"bool","name":"active","type":"bool"},{"internalType":"uint256","name":"paid","type":"uint256"}],"stateMutability":"view","type":"function"},{"inputs":[{"internalType":"address","name":"","type":"address"}],"name":"userTicket","outputs":[{"internalType":"uint256","name":"ticketId","type":"uint256"},{"internalType":"uint256","name":"amount","type":"uint256"},{"internalType":"uint256","name":"purchaseTime","type":"uint256"},{"internalType":"bool","name":"exited","type":"bool"}],"stateMutability":"view","type":"function"},{"inputs":[{"internalType":"address","name":"_to","type":"address"},{"internalType":"uint256","name":"_amount","type":"uint256"}],"name":"withdrawLevelRewardPool","outputs":[],"stateMutability":"nonpayable","type":"function"},{"inputs":[{"internalType":"address","name":"_toMC","type":"address"},{"internalType":"uint256","name":"_amountMC","type":"uint256"},{"internalType":"address","name":"_toJBC","type":"address"},{"internalType":"uint256","name":"_amountJBC","type":"uint256"}],"name":"withdrawSwapReserves","outputs":[],"stateMutability":"nonpayable","type":"function"}],"evm":{"bytecode":{"linkReferences":{},"object":"60a0604052306080523480156200001557600080fd5b506200002062000026565b620000da565b7ff0c57e16840df040f15088dc2f81fe391c3923bec73e23a9662efc9c229c6a00805468010000000000000000900460ff1615620000775760405163f92ee8a960e01b815260040160405180910390fd5b80546001600160401b0390811614620000d75780546001600160401b0319166001600160401b0390811782556040519081527fc7f505b2f371ae2175ee4913f4499e1f2633a7b5936321eed1cdaeb6115181d29060200160405180910390a15b50565b6080516166d76200010460003960008181614f4401528181614f6d01526150a501526166d76000f3fe60806040526004361061036d5760003560e01c806301d62efb1461037257806304ef9d581461039457806304f618cb146103bd57806305ad3935146103dd5780630a5c45671461040a5780630e2be2101461042a57806310ff994d146104515780631427f616146104715780631788513c14610486578063182c84cc146104a65780631959a002146104c65780631d0dac76146105a557806321b77d63146105bb57806321f483d3146105d85780632630c12f1461060757806327c830a91461062c57806327f082f414610656578063372500ab1461066c5780633a3ea2f0146106815780633dbd46bd146106965780634626402b146106cc57806347194001146106ec578063488b5d971461071a5780634a4e3bd51461072f5780634ea4c6b3146107445780634f1ef2861461076457806351858e271461077757806352778b051461078c57806352d1902d146107ac578063530e784f146107c15780636031a52f146107e157806367dd74ca146107f75780636839b5fa146108175780636dd668271461082d578063715018a61461084357806374b0eecf1461085857806375506c961461087857806375f0a8741461088e57806377a2a540146108ae578063813380cd146108c457806383672f3e146108f257806386481d40146106ec5780638710bcaa1461091257806388481b611461097957806388fd4d331461098e5780638a859a85146109ae5780638c0eaa48146109c35780638da5cb5b146109d857806390b0eb51146109ed5780639370b08014610a0d5780639525399214610a2357806399b6024d14610a435780639cd441da14610a635780639d99eca414610a83578063ac8f50aa14610aa3578063ad3cb1cc14610ac3578063b048a4bb14610b01578063b5d5b5fa14610b1b578063b759936b14610b6a578063bd594dcf14610b80578063be040fb014610b96578063c2ff12fc14610bab578063c3b369d714610be1578063cc2a9a5b14610c01578063ccf6194414610c21578063cea9d26f14610c37578063ceaa366d14610c57578063d0f1647014610c6d578063d2c8e0e514610c8d578063d2f8253614610cba578063d4f0014214610cd9578063d8020a1814610cf9578063deab8aea14610d0f578063dec7fa3b14610d2f578063e306744914610d45578063e4412f6814610d5b578063ece7126614610d71578063f2fde38b14610d91575b600080fd5b34801561037e57600080fd5b5061039261038d366004615f18565b610db1565b005b3480156103a057600080fd5b506103aa600b5481565b6040519081526020015b60405180910390f35b3480156103c957600080fd5b506103926103d8366004615f6d565b610e47565b3480156103e957600080fd5b506103fd6103f8366004615f88565b610f4c565b6040516103b49190615fb2565b34801561041657600080fd5b50610392610425366004615fc6565b610f84565b34801561043657600080fd5b5061043f600281565b60405160ff90911681526020016103b4565b34801561045d57600080fd5b5061039261046c366004615fc6565b61131f565b34801561047d57600080fd5b5061043f600081565b34801561049257600080fd5b506001546103fd906001600160a01b031681565b3480156104b257600080fd5b506103aa6104c1366004615fc6565b611a69565b3480156104d257600080fd5b506105486104e1366004615f6d565b600f60205260009081526040902080546001820154600283015460038401546004850154600586015460068701546007880154600889015460098a0154600a909a01546001600160a01b0390991699979896979596949560ff90941694929391929091908b565b604080516001600160a01b03909c168c5260208c019a909a52988a01979097526060890195909552608088019390935290151560a087015260c086015260e0850152610100840152610120830152610140820152610160016103b4565b3480156105b157600080fd5b506103aa60185481565b3480156105c757600080fd5b506103aa683635c9adc5dea0000081565b3480156105e457600080fd5b506105f86105f3366004615fc6565b611aa3565b6040516103b493929190615fdf565b34801561061357600080fd5b50604f546103fd9061010090046001600160a01b031681565b34801561063857600080fd5b50604f546106469060ff1681565b60405190151581526020016103b4565b34801561066257600080fd5b506103aa600d5481565b34801561067857600080fd5b50610392611ad6565b34801561068d57600080fd5b506103aa612126565b3480156106a257600080fd5b506103fd6106b1366004615fc6565b601e602052600090815260409020546001600160a01b031681565b3480156106d857600080fd5b506003546103fd906001600160a01b031681565b3480156106f857600080fd5b5061070c610707366004615fc6565b612215565b6040516103b4929190615ff5565b34801561072657600080fd5b506103aa603c81565b34801561073b57600080fd5b5061039261222a565b34801561075057600080fd5b5061039261075f366004616003565b612267565b61039261077236600461603b565b6126c3565b34801561078357600080fd5b506103926126de565b34801561079857600080fd5b506103926107a7366004615fc6565b61271e565b3480156107b857600080fd5b506103aa612a97565b3480156107cd57600080fd5b506103926107dc366004615f6d565b612ab4565b3480156107ed57600080fd5b506103aa60195481565b34801561080357600080fd5b50610392610812366004615fc6565b612ae4565b34801561082357600080fd5b506103aa6103e881565b34801561083957600080fd5b506103aa60155481565b34801561084f57600080fd5b50610392613151565b34801561086457600080fd5b50610392610873366004616147565b613163565b34801561088457600080fd5b506103aa601a5481565b34801561089a57600080fd5b506002546103fd906001600160a01b031681565b3480156108ba57600080fd5b506103aa60175481565b3480156108d057600080fd5b506108e46108df366004616003565b6132ac565b6040516103b49291906161b2565b3480156108fe57600080fd5b5061039261090d3660046161cb565b6132f2565b34801561091e57600080fd5b5061095761092d366004615f6d565b60106020526000908152604090208054600182015460028301546003909301549192909160ff1684565b60408051948552602085019390935291830152151560608201526080016103b4565b34801561098557600080fd5b5061043f600481565b34801561099a57600080fd5b506004546103fd906001600160a01b031681565b3480156109ba57600080fd5b5061043f600181565b3480156109cf57600080fd5b5061043f600381565b3480156109e457600080fd5b506103fd61341c565b3480156109f957600080fd5b50610392610a08366004616003565b613437565b348015610a1957600080fd5b506103aa600e5481565b348015610a2f57600080fd5b506000546103fd906001600160a01b031681565b348015610a4f57600080fd5b50610392610a5e366004615f88565b61347b565b348015610a6f57600080fd5b50610392610a7e366004616003565b613557565b348015610a8f57600080fd5b50610392610a9e366004615fc6565b6136bc565b348015610aaf57600080fd5b506108e4610abe366004616003565b613700565b348015610acf57600080fd5b50610af4604051806040016040528060058152602001640352e302e360dc1b81525081565b6040516103b49190616243565b348015610b0d57600080fd5b506016546106469060ff1681565b348015610b2757600080fd5b50610b3b610b36366004615f88565b61371c565b6040805196875260208701959095529385019290925260608401521515608083015260a082015260c0016103b4565b348015610b7657600080fd5b506103aa601f5481565b348015610b8c57600080fd5b506103aa60075481565b348015610ba257600080fd5b50610392613776565b348015610bb757600080fd5b506103fd610bc6366004615fc6565b601c602052600090815260409020546001600160a01b031681565b348015610bed57600080fd5b50610392610bfc366004616147565b613fef565b348015610c0d57600080fd5b50610392610c1c366004616276565b614094565b348015610c2d57600080fd5b506103aa60065481565b348015610c4357600080fd5b50610392610c523660046162ea565b61424d565b348015610c6357600080fd5b506103aa600a5481565b348015610c7957600080fd5b50610392610c88366004616326565b6143c9565b348015610c9957600080fd5b50610cad610ca8366004615f6d565b61444d565b6040516103b49190616369565b348015610cc657600080fd5b5060165461064690610100900460ff1681565b348015610ce557600080fd5b50610392610cf43660046163b6565b6144c3565b348015610d0557600080fd5b506103aa60085481565b348015610d1b57600080fd5b506005546103fd906001600160a01b031681565b348015610d3b57600080fd5b506103aa600c5481565b348015610d5157600080fd5b506103aa601b5481565b348015610d6757600080fd5b506103aa60095481565b348015610d7d57600080fd5b50610392610d8c366004615fc6565b614624565b348015610d9d57600080fd5b50610392610dac366004615f6d565b614661565b610db961469c565b6016805461ffff191683151561ff001981169190911761010084151502179091556040519081527fb886fcb5b9c12916f26d967ebe962dbd51ec249fb55961da39c851cdfc10115c9060200160405180910390a160405181151581527f03cb373f89de891077fe47cec43663b6727713de0337af46bebd1178122251b7906020015b60405180910390a15050565b336000908152600f60205260409020546001600160a01b031615610e7e5760405163682a906560e01b815260040160405180910390fd5b336001600160a01b03821603610ea757604051631acade8960e31b815260040160405180910390fd5b6001600160a01b038116610ece5760405163e6c4247b60e01b815260040160405180910390fd5b336000818152600f6020908152604080832080546001600160a01b0387166001600160a01b0319918216811790925581855260128452828520805460018101825590865293852090930180549093168517909255519092917fa6dbb5aa28f35437de94d685d66edce5fb4812196b4984b91dfd5a7b38c0fb3091a350565b60126020528160005260406000208181548110610f6857600080fd5b6000918252602090912001546001600160a01b03169150829050565b610f8c6146ce565b604f5460ff1615610fb85760405162461bcd60e51b8152600401610faf906163fa565b60405180910390fd5b80600003610fd95760405163162908e360e11b815260040160405180910390fd5b683635c9adc5dea000006017541080610ffc5750683635c9adc5dea00000601854105b1561101a576040516343c7ad8160e11b815260040160405180910390fd5b6000546040516323b872dd60e01b81526001600160a01b03909116906323b872dd9061104e90339030908690600401616426565b6020604051808303816000875af115801561106d573d6000803e3d6000fd5b505050506040513d601f19601f82011682018060405250810190611091919061644a565b506000601854826110a2919061647d565b90506000826017546110b49190616494565b905060006110c282846164a7565b90506000601754856127106110d7919061647d565b6110e191906164a7565b90506103e88111156111065760405163162908e360e11b815260040160405180910390fd5b60006064600d5484611118919061647d565b61112291906164a7565b9050600061113082856164c9565b6001546040516370a0823160e01b815291925085916001600160a01b03909116906370a0823190611165903090600401615fb2565b602060405180830381865afa158015611182573d6000803e3d6000fd5b505050506040513d601f19601f820116820180604052508101906111a691906164dc565b10156111c5576040516343c7ad8160e11b815260040160405180910390fd5b86601760008282546111d79190616494565b9250508190555083601860008282546111f091906164c9565b9091555050600154604051630852cd8d60e31b8152600481018490526001600160a01b03909116906342966c6890602401600060405180830381600087803b15801561123b57600080fd5b505af115801561124f573d6000803e3d6000fd5b505060015460405163a9059cbb60e01b81526001600160a01b03909116925063a9059cbb915061128590339085906004016161b2565b6020604051808303816000875af11580156112a4573d6000803e3d6000fd5b505050506040513d601f19601f820116820180604052508101906112c8919061644a565b50336001600160a01b03167f36864aeefce16bc4aaceeb6b0cdfb2ad1455a8cb4ccb0db148a2bc6e7166f97c88838560405161130693929190615fdf565b60405180910390a250505050505061131c614704565b50565b6113276146ce565b601654610100900460ff1661134e5760405162461bcd60e51b8152600401610faf906164f5565b336000908152601160205260409020805482108015611392575080828154811061137a5761137a616517565b600091825260209091206004600690920201015460ff165b6113ce5760405162461bcd60e51b815260206004820152600d60248201526c496e76616c6964207374616b6560981b6044820152606401610faf565b603c8183815481106113e2576113e2616517565b9060005260206000209060060201600301546113fe919061647d565b81838154811061141057611410616517565b90600052602060002090600602016002015461142c9190616494565b4210156114695760405162461bcd60e51b815260206004820152600b60248201526a139bdd08195e1c1a5c995960aa1b6044820152606401610faf565b600081838154811061147d5761147d616517565b90600052602060002090600602019050600081600301546007146114ba578160030154600f146114b1576301312d006114bf565b62fe502b6114bf565b62cb73565b63ffffffff1690506000633b9aca0083600301548385600101546114e3919061647d565b6114ed919061647d565b6114f791906164a7565b905060008360050154821161150d57600061151c565b600584015461151c90836164c9565b9050808460050160008282546115329190616494565b9091555050336000908152600f6020526040812060090154908190036115675750336000908152601060205260409020600101545b60006064600c5483611579919061647d565b61158391906164a7565b90508015611683576000546040516323b872dd60e01b81526001600160a01b03909116906323b872dd906115bf90339030908690600401616426565b6020604051808303816000875af11580156115de573d6000803e3d6000fd5b505050506040513d601f19601f82011682018060405250810190611602919061644a565b6116445760405162461bcd60e51b8152602060048201526013602482015272119959481d1c985b9cd9995c8819985a5b1959606a1b6044820152606401610faf565b80601760008282546116569190616494565b9091555050336000908152600f60205260408120600601805483929061167d908490616494565b90915550505b60048601805460ff19169055855461169a90614715565b821561197a57336000908152600f6020526040812060038101546004909101546116c491906164c9565b9050808411156116d2578093505b831561197857336000908152600f6020526040812060030180548692906116fa908490616494565b909155506000905061170d6002866164a7565b6000546040516370a0823160e01b815291925082916001600160a01b03909116906370a0823190611742903090600401615fb2565b602060405180830381865afa15801561175f573d6000803e3d6000fd5b505050506040513d601f19601f8201168201806040525081019061178391906164dc565b101580156117915750600081115b1561180d5760005460405163a9059cbb60e01b81526001600160a01b039091169063a9059cbb906117c890339085906004016161b2565b6020604051808303816000875af11580156117e7573d6000803e3d6000fd5b505050506040513d601f19601f8201168201806040525081019061180b919061644a565b505b6000611817612126565b905060008161182684896164c9565b61183890670de0b6b3a764000061647d565b61184291906164a7565b6001546040516370a0823160e01b815291925082916001600160a01b03909116906370a0823190611877903090600401615fb2565b602060405180830381865afa158015611894573d6000803e3d6000fd5b505050506040513d601f19601f820116820180604052508101906118b891906164dc565b101580156118c65750600081115b156119425760015460405163a9059cbb60e01b81526001600160a01b039091169063a9059cbb906118fd90339085906004016161b2565b6020604051808303816000875af115801561191c573d6000803e3d6000fd5b505050506040513d601f19601f82011682018060405250810190611940919061644a565b505b336001600160a01b031660008051602061666283398151915288600060405161196c92919061652d565b60405180910390a25050505b505b600054600187015460405163a9059cbb60e01b81526001600160a01b039092169163a9059cbb916119b0913391906004016161b2565b6020604051808303816000875af11580156119cf573d6000803e3d6000fd5b505050506040513d601f19601f820116820180604052508101906119f3919061644a565b50336001600160a01b0316600080516020616682833981519152876001015483604051611a21929190615ff5565b60405180910390a2611a32336148e1565b336000908152600f60205260409020600481015460039091015410611a5a57611a5a33614a0a565b5050505050505061131c614704565b600060038210611a7b5750600f919050565b60028210611a8b5750600a919050565b60018210611a9b57506005919050565b506000919050565b60148181548110611ab357600080fd5b600091825260209091206003909102018054600182015460029092015490925083565b611ade6146ce565b33600090815260106020526040902060018101541580611b025750600381015460ff165b15611b2057604051634065aaf160e11b815260040160405180910390fd5b33600090815260116020526040812090805b8254811015611d8557828181548110611b4d57611b4d616517565b600091825260209091206004600690920201015460ff1615611d7d576000838281548110611b7d57611b7d616517565b906000526020600020906006020160030154600703611ba0575062cb7356611c07565b838281548110611bb257611bb2616517565b906000526020600020906006020160030154600f03611bd5575062fe502b611c07565b838281548110611be757611be7616517565b906000526020600020906006020160030154601e03611c0757506301312d005b6000603c858481548110611c1d57611c1d616517565b90600052602060002090600602016002015442611c3a91906164c9565b611c4491906164a7565b9050848381548110611c5857611c58616517565b906000526020600020906006020160030154811115611c9857848381548110611c8357611c83616517565b90600052602060002090600602016003015490505b80600003611ca7575050611d7d565b6000633b9aca008284888781548110611cc257611cc2616517565b906000526020600020906006020160010154611cde919061647d565b611ce8919061647d565b611cf291906164a7565b90506000868581548110611d0857611d08616517565b906000526020600020906006020160050154905080821115611d78576000611d3082846164c9565b9050611d3c8188616494565b965080888781548110611d5157611d51616517565b90600052602060002090600602016005016000828254611d719190616494565b9091555050505b505050505b600101611b32565b5080600003611da757604051630fec21fd60e21b815260040160405180910390fd5b336000908152600f602052604090206004810154600390910154611dcc908390616494565b1115611df957336000908152600f602052604090206003810154600490910154611df691906164c9565b90505b80600003611e1257611e0a33614a0a565b50505061211c565b336000908152600f602052604081206003018054839290611e34908490616494565b9091555060009050611e476002836164a7565b90506000611e566002846164a7565b600080546040516370a0823160e01b8152929350909184916001600160a01b0316906370a0823190611e8c903090600401615fb2565b602060405180830381865afa158015611ea9573d6000803e3d6000fd5b505050506040513d601f19601f82011682018060405250810190611ecd91906164dc565b10158015611edb5750600083115b15611f5a5760005460405163a9059cbb60e01b81526001600160a01b039091169063a9059cbb90611f1290339087906004016161b2565b6020604051808303816000875af1158015611f31573d6000803e3d6000fd5b505050506040513d601f19601f82011682018060405250810190611f55919061644a565b508290505b6000611f64612126565b9050600081611f7b85670de0b6b3a764000061647d565b611f8591906164a7565b6001546040516370a0823160e01b815291925060009183916001600160a01b0316906370a0823190611fbb903090600401615fb2565b602060405180830381865afa158015611fd8573d6000803e3d6000fd5b505050506040513d601f19601f82011682018060405250810190611ffc91906164dc565b1015801561200a5750600082115b156120895760015460405163a9059cbb60e01b81526001600160a01b039091169063a9059cbb9061204190339086906004016161b2565b6020604051808303816000875af1158015612060573d6000803e3d6000fd5b505050506040513d601f19601f82011682018060405250810190612084919061644a565b508190505b336001600160a01b03166000805160206166628339815191528860006040516120b392919061652d565b60405180910390a2885460405133916000805160206165e2833981519152916120e2918891869160009161653e565b60405180910390a2336000908152600f602052604090206004810154600390910154106121125761211233614a0a565b5050505050505050505b612124614704565b565b604f5460009061010090046001600160a01b0316156121c357604f546001546040516341976e0960e01b81526001600160a01b036101009093048316926341976e099261217892911690600401615fb2565b602060405180830381865afa9250505080156121b1575060408051601f3d908101601f191682019092526121ae918101906164dc565b60015b156121c35780156121c157919050565b505b60185415806121dc5750683635c9adc5dea00000601754105b156121ee5750670de0b6b3a764000090565b60185460175461220690670de0b6b3a764000061647d565b61221091906164a7565b905090565b60008061222183614e72565b91509150915091565b61223261469c565b604f805460ff191690556040517f15de7ad89d29fd1c6d2e6b1e878453569b4080edf34e0105faaa3bd52f01853090600090a1565b61226f6146ce565b604f5460ff16156122925760405162461bcd60e51b8152600401610faf906163fa565b33600090815260106020526040812060018101549091036122c657604051634065aaf160e11b815260040160405180910390fd5b600381015460ff16156122ec57604051631ecb2c4f60e31b815260040160405180910390fd5b816007141580156122fe575081600f14155b801561230b575081601e14155b1561232957604051634dc7f5ff60e11b815260040160405180910390fd5b8260000361234a5760405163162908e360e11b815260040160405180910390fd5b6000546040516323b872dd60e01b81526001600160a01b03909116906323b872dd9061237e90339030908890600401616426565b6020604051808303816000875af115801561239d573d6000803e3d6000fd5b505050506040513d601f19601f820116820180604052508101906123c1919061644a565b50601a80549060006123d28361655c565b9091555050336000818152601160209081526040808320815160c081018352601a805482528185018a815242838601908152606084018b815260016080860181815260a087018b815288548084018a55988c528a8c2097516006909902909701978855935190870155905160028601555160038501555160048401805460ff19169115159190911790559051600590920191909155548352601e825280832080546001600160a01b03191685179055928252600f9052908120600a0154908190036124b357506001810154336000908152600f60205260409020600a018190555b600060646124c283609661647d565b6124cc91906164a7565b90508085146124ee5760405163162908e360e11b815260040160405180910390fd5b6124f7336148e1565b336001600160a01b03167fa8a1b9e33e503eed12bf7e7c8c01c7f3b60217a496bddd0f5db351dd8c056c1c8686601a5460405161253693929190615fdf565b60405180910390a2336000908152600f602052604090206006015480156126b357336000908152600f602052604081206006015560175481118015906125eb57506000546040516370a0823160e01b815282916001600160a01b0316906370a08231906125a7903090600401615fb2565b602060405180830381865afa1580156125c4573d6000803e3d6000fd5b505050506040513d601f19601f820116820180604052508101906125e891906164dc565b10155b156126b357806017600082825461260291906164c9565b909155505060005460405163a9059cbb60e01b81526001600160a01b039091169063a9059cbb9061263990339085906004016161b2565b6020604051808303816000875af1158015612658573d6000803e3d6000fd5b505050506040513d601f19601f8201168201806040525081019061267c919061644a565b5060405181815233907f3437b9ea7fa19c6d233dd70cc787a70fab87cee64d8ba4571512cc84402748f99060200160405180910390a25b505050506126bf614704565b5050565b6126cb614f39565b6126d482614fde565b6126bf8282614fe6565b6126e661469c565b604f805460ff191660011790556040517f4cb3183d0bf66f9634b15cfc3539fdddc96c2c9324848af89b56586a6739fec490600090a1565b6127266146ce565b604f5460ff16156127495760405162461bcd60e51b8152600401610faf906163fa565b8060000361276a5760405163162908e360e11b815260040160405180910390fd5b683635c9adc5dea00000601754108061278d5750683635c9adc5dea00000601854105b156127ab576040516343c7ad8160e11b815260040160405180910390fd5b6001546040516323b872dd60e01b81526001600160a01b03909116906323b872dd906127df90339030908690600401616426565b6020604051808303816000875af11580156127fe573d6000803e3d6000fd5b505050506040513d601f19601f82011682018060405250810190612822919061644a565b5060006064600e5483612835919061647d565b61283f91906164a7565b9050600061284d82846164c9565b9050600060185482612710612862919061647d565b61286c91906164a7565b90506103e88111156128915760405163162908e360e11b815260040160405180910390fd5b600154604051630852cd8d60e31b8152600481018590526001600160a01b03909116906342966c6890602401600060405180830381600087803b1580156128d757600080fd5b505af11580156128eb573d6000803e3d6000fd5b505050506000601754836128ff919061647d565b90506000836018546129119190616494565b9050600061291f82846164a7565b6000546040516370a0823160e01b815291925082916001600160a01b03909116906370a0823190612954903090600401615fb2565b602060405180830381865afa158015612971573d6000803e3d6000fd5b505050506040513d601f19601f8201168201806040525081019061299591906164dc565b10156129b4576040516343c7ad8160e11b815260040160405180910390fd5b84601860008282546129c69190616494565b9250508190555080601760008282546129df91906164c9565b909155505060005460405163a9059cbb60e01b81526001600160a01b039091169063a9059cbb90612a1690339085906004016161b2565b6020604051808303816000875af1158015612a35573d6000803e3d6000fd5b505050506040513d601f19601f82011682018060405250810190612a59919061644a565b50336001600160a01b03167f223c8ad0806f634524940a8595f819c5cfc7b1f4f4f45791269301df0a7e61d588838960405161130693929190615fdf565b6000612aa161509a565b5060008051602061662283398151915290565b612abc61469c565b604f80546001600160a01b0390921661010002610100600160a81b0319909216919091179055565b612aec6146ce565b604f5460ff1615612b0f5760405162461bcd60e51b8152600401610faf906163fa565b336000818152600f60205260409020600901541590612b2d906150e3565b8168056bc75e2d6310000014158015612b4f575081681043561a882930000014155b8015612b64575081681b1ae4d6e2ef50000014155b8015612b79575081683635c9adc5dea0000014155b15612b975760405163162908e360e11b815260040160405180910390fd5b6000546040516323b872dd60e01b81526001600160a01b03909116906323b872dd90612bcb90339030908790600401616426565b6020604051808303816000875af1158015612bea573d6000803e3d6000fd5b505050506040513d601f19601f82011682018060405250810190612c0e919061644a565b50336000908152601060205260409020600381015460ff1615612c945760198054906000612c3b8361655c565b90915550506019548155600181018390554260028201556003808201805460ff19169055336000908152600f60205260408120820155612c7c90849061647d565b336000908152600f6020526040902060040155612d1e565b8060010154600003612cb05760198054906000612c3b8361655c565b82816001016000828254612cc49190616494565b9091555050336000908152600f602052604090206005015460ff1615612ceb574260028201555b612cf683600361647d565b336000908152600f602052604081206004018054909190612d18908490616494565b90915550505b336000908152600f602052604090206009015460018201541115612d55576001810154336000908152600f60205260409020600901555b336000908152600f60205260409020600a0154831115612d8557336000908152600f60205260409020600a018390555b80546000908152601c6020908152604080832080546001600160a01b031916339081179091558352600f9091529020546001600160a01b03168015801590612de857506001600160a01b0381166000908152600f602052604090206005015460ff165b15612e61576000606460065486612dff919061647d565b612e0991906164a7565b90506000612e19838360026152ba565b90508015612e5a57835460405133916001600160a01b038616916000805160206165c283398151915291612e51918691600291616575565b60405180910390a35b5050612ef7565b6000546002546006546001600160a01b039283169263a9059cbb921690606490612e8b908961647d565b612e9591906164a7565b6040518363ffffffff1660e01b8152600401612eb29291906161b2565b6020604051808303816000875af1158015612ed1573d6000803e3d6000fd5b505050506040513d601f19601f82011682018060405250810190612ef5919061644a565b505b612f013385615507565b6000546002546008546001600160a01b039283169263a9059cbb921690606490612f2b908961647d565b612f3591906164a7565b6040518363ffffffff1660e01b8152600401612f529291906161b2565b6020604051808303816000875af1158015612f71573d6000803e3d6000fd5b505050506040513d601f19601f82011682018060405250810190612f95919061644a565b506000606460095486612fa8919061647d565b612fb291906164a7565b9050612fbd8161572d565b600054600454600a546001600160a01b039283169263a9059cbb921690606490612fe7908a61647d565b612ff191906164a7565b6040518363ffffffff1660e01b815260040161300e9291906161b2565b6020604051808303816000875af115801561302d573d6000803e3d6000fd5b505050506040513d601f19601f82011682018060405250810190613051919061644a565b50600054600354600b546001600160a01b039283169263a9059cbb92169060649061307c908a61647d565b61308691906164a7565b6040518363ffffffff1660e01b81526004016130a39291906161b2565b6020604051808303816000875af11580156130c2573d6000803e3d6000fd5b505050506040513d601f19601f820116820180604052508101906130e6919061644a565b506130f133866159a3565b83156131005761310033615a45565b613109336148e1565b825460405133917f2a91574e12ad96234e84923e146b0946ecfb871cd8d5534dc1fdcbe87a7c01b39161313d918991615ff5565b60405180910390a25050505061131c614704565b61315961469c565b6121246000615b29565b61316b61469c565b82811461318b5760405163980a3f3160e01b815260040160405180910390fd5b8260005b81811015613270578383828181106131a9576131a9616517565b90506020020135600f60008888858181106131c6576131c6616517565b90506020020160208101906131db9190615f6d565b6001600160a01b0316815260208101919091526040016000206002015585858281811061320a5761320a616517565b905060200201602081019061321f9190615f6d565b6001600160a01b0316600080516020616602833981519152600086868581811061324b5761324b616517565b90506020020135604051613260929190615ff5565b60405180910390a260010161318f565b506040518181527f9c03d1f6ba485b6cf0a120117d651729467751d3079318d05171b6f389f6bf4b906020015b60405180910390a15050505050565b601360205281600052604060002081815481106132c857600080fd5b6000918252602090912060029091020180546001909101546001600160a01b039091169250905082565b6132fa61469c565b6001600160a01b0384161580159061331a57506001600160a01b03831615155b801561332e57506001600160a01b03821615155b801561334257506001600160a01b03811615155b6133805760405162461bcd60e51b815260206004820152600f60248201526e496e76616c6964206164647265737360881b6044820152606401610faf565b600280546001600160a01b038681166001600160a01b031992831681179093556003805487831690841681179091556004805487841690851681179091556005805493871693909416831790935560408051948552602085019190915283019190915260608201527f213f1de8063c19612a553f1480ff341bea689d36a56a2089f1b9060d599b5d83906080015b60405180910390a150505050565b600080613427615b85565b546001600160a01b031692915050565b61343f61469c565b600d829055600e8190556040517f4e9dd03193a0c81552fb8e6d32280f0d7e0ce8087241dc3d17ef3d193ee231d790610e3b9084908490615ff5565b61348361469c565b80601f600082825461349591906164c9565b909155505060005460405163a9059cbb60e01b81526001600160a01b039091169063a9059cbb906134cc90859085906004016161b2565b6020604051808303816000875af11580156134eb573d6000803e3d6000fd5b505050506040513d601f19601f8201168201806040525081019061350f919061644a565b50816001600160a01b03167f27971ee1acbfbdfb20656657ceb2e0e7b519b9e60fe1a6b1f6d27b159f4a607c8260405161354b91815260200190565b60405180910390a25050565b61355f61469c565b81156135f5576000546040516323b872dd60e01b81526001600160a01b03909116906323b872dd9061359990339030908790600401616426565b6020604051808303816000875af11580156135b8573d6000803e3d6000fd5b505050506040513d601f19601f820116820180604052508101906135dc919061644a565b5081601760008282546135ef9190616494565b90915550505b801561368b576001546040516323b872dd60e01b81526001600160a01b03909116906323b872dd9061362f90339030908690600401616426565b6020604051808303816000875af115801561364e573d6000803e3d6000fd5b505050506040513d601f19601f82011682018060405250810190613672919061644a565b5080601860008282546136859190616494565b90915550505b7f38f8a0c92f4c5b0b6877f878cb4c0c8d348a47b76d716c8e78f425043df9515b8282604051610e3b929190615ff5565b6136c461469c565b60158190556040518181527fd28d9e4ce68d89af7920cb8618e342a78f51e545c530ce60f1cb1d6f0235b47f906020015b60405180910390a150565b601d60205281600052604060002081815481106132c857600080fd5b6011602052816000526040600020818154811061373857600080fd5b600091825260209091206006909102018054600182015460028301546003840154600485015460059095015493965091945092909160ff9091169086565b61377e6146ce565b601654610100900460ff166137a55760405162461bcd60e51b8152600401610faf906164f5565b336000908152601160205260408120908080805b8454811015613b3b578481815481106137d4576137d4616517565b600091825260209091206004600690920201015460ff1615613b33576000603c86838154811061380657613806616517565b906000526020600020906006020160030154613822919061647d565b86838154811061383457613834616517565b9060005260206000209060060201600201546138509190616494565b9050804210613b3157600086838154811061386d5761386d616517565b906000526020600020906006020160030154600703613890575062cb73566138f7565b8683815481106138a2576138a2616517565b906000526020600020906006020160030154600f036138c5575062fe502b6138f7565b8683815481106138d7576138d7616517565b906000526020600020906006020160030154601e036138f757506301312d005b6000633b9aca0088858154811061391057613910616517565b906000526020600020906006020160030154838a878154811061393557613935616517565b906000526020600020906006020160010154613951919061647d565b61395b919061647d565b61396591906164a7565b9050600088858154811061397b5761397b616517565b9060005260206000209060060201600501548211156139c6578885815481106139a6576139a6616517565b906000526020600020906006020160050154826139c391906164c9565b90505b6139d08187616494565b9550808986815481106139e5576139e5616517565b90600052602060002090600602016005016000828254613a059190616494565b9091555050336000908152600f602052604081206009015490819003613a3a5750336000908152601060205260409020600101545b60006064600c5483613a4c919061647d565b613a5691906164a7565b905060008b8881548110613a6c57613a6c616517565b906000526020600020906006020160010154905081811115613aa557613a9282826164c9565b9050613a9e828b616494565b9950613ab6565b613aaf818b616494565b9950600090505b613ac0818c616494565b9a5060008c8981548110613ad657613ad6616517565b906000526020600020906006020160040160006101000a81548160ff021916908315150217905550613b2a8c8981548110613b1357613b13616517565b906000526020600020906006020160000154614715565b5050505050505b505b6001016137b9565b506000831180613b4b5750600081115b613b8b5760405162461bcd60e51b81526020600482015260116024820152704e6f7468696e6720746f2072656465656d60781b6044820152606401610faf565b8115613ba9578160176000828254613ba39190616494565b90915550505b8015613f0457336000908152600f602052604081206003810154600490910154613bd391906164c9565b905080821115613c1257336001600160a01b03166000805160206166428339815191528383604051613c06929190615ff5565b60405180910390a28091505b8115613f0257336000908152600f602052604081206003018054849290613c3a908490616494565b9091555060009050613c4d6002846164a7565b90506000613c5c6002856164a7565b600080546040516370a0823160e01b8152929350909184916001600160a01b0316906370a0823190613c92903090600401615fb2565b602060405180830381865afa158015613caf573d6000803e3d6000fd5b505050506040513d601f19601f82011682018060405250810190613cd391906164dc565b10158015613ce15750600083115b15613d605760005460405163a9059cbb60e01b81526001600160a01b039091169063a9059cbb90613d1890339087906004016161b2565b6020604051808303816000875af1158015613d37573d6000803e3d6000fd5b505050506040513d601f19601f82011682018060405250810190613d5b919061644a565b508290505b6000613d6a612126565b9050600081613d8185670de0b6b3a764000061647d565b613d8b91906164a7565b6001546040516370a0823160e01b815291925060009183916001600160a01b0316906370a0823190613dc1903090600401615fb2565b602060405180830381865afa158015613dde573d6000803e3d6000fd5b505050506040513d601f19601f82011682018060405250810190613e0291906164dc565b10158015613e105750600082115b15613e8f5760015460405163a9059cbb60e01b81526001600160a01b039091169063a9059cbb90613e4790339086906004016161b2565b6020604051808303816000875af1158015613e66573d6000803e3d6000fd5b505050506040513d601f19601f82011682018060405250810190613e8a919061644a565b508190505b336001600160a01b0316600080516020616662833981519152896000604051613eb992919061652d565b60405180910390a2336000818152601060205260408082205490516000805160206165e283398151915292613ef39289928792919061653e565b60405180910390a25050505050505b505b8215613f815760005460405163a9059cbb60e01b81526001600160a01b039091169063a9059cbb90613f3c90339087906004016161b2565b6020604051808303816000875af1158015613f5b573d6000803e3d6000fd5b505050506040513d601f19601f82011682018060405250810190613f7f919061644a565b505b336001600160a01b03166000805160206166828339815191528484604051613faa929190615ff5565b60405180910390a2613fbb336148e1565b336000908152600f60205260409020600481015460039091015410613fe357613fe333614a0a565b50505050612124614704565b613ff761469c565b8281146140175760405163980a3f3160e01b815260040160405180910390fd5b8260005b8181101561408c5783838281811061403557614035616517565b90506020020135600f600088888581811061405257614052616517565b90506020020160208101906140679190615f6d565b6001600160a01b0316815260208101919091526040016000206007015560010161401b565b505050505050565b600061409e615ba9565b805490915060ff600160401b82041615906001600160401b03166000811580156140c55750825b90506000826001600160401b031660011480156140e15750303b155b9050811580156140ef575080155b1561410d5760405163f92ee8a960e01b815260040160405180910390fd5b84546001600160401b0319166001178555831561413657845460ff60401b1916600160401b1785555b61413f33615bd4565b614147615be5565b61414f615bed565b600080546001600160a01b03199081166001600160a01b038e8116919091179092556001805482168d84161781556002805483168d85161790556003805483168c85161790556004805483168b85161790556005805490921692891692909217815560196006819055600f6007556008829055600991909155600a819055600b819055600c919091556032600d55600e556203f4806015556016805461ffff191661010117905542601b55831561424057845460ff60401b19168555604051600181527fc7f505b2f371ae2175ee4913f4499e1f2633a7b5936321eed1cdaeb6115181d29060200160405180910390a15b5050505050505050505050565b61425561469c565b6000546001600160a01b0384811691161480159061428157506001546001600160a01b03848116911614155b6142cd5760405162461bcd60e51b815260206004820152601d60248201527f43616e6e6f74207265736375652070726f746f636f6c20746f6b656e730000006044820152606401610faf565b6001600160a01b0382166143175760405162461bcd60e51b8152602060048201526011602482015270125b9d985b1a59081c9958da5c1a595b9d607a1b6044820152606401610faf565b60405163a9059cbb60e01b81526001600160a01b0384169063a9059cbb9061434590859085906004016161b2565b6020604051808303816000875af1158015614364573d6000803e3d6000fd5b505050506040513d601f19601f82011682018060405250810190614388919061644a565b507f77023e19c7343ad491fd706c36335ca0e738340a91f29b1fd81e2673d44896c48383836040516143bc93929190616426565b60405180910390a1505050565b6143d161469c565b6006869055600785905560088490556009839055600a829055600b8190556040805187815260208101879052908101859052606081018490526080810183905260a081018290527f66682b276e4cd1a4e1f68b55b1143766c5332f472eb593cf2a70a25d9d5d99179060c00160405180910390a1505050505050565b6001600160a01b0381166000908152601260209081526040918290208054835181840281018401909452808452606093928301828280156144b757602002820191906000526020600020905b81546001600160a01b03168152600190910190602001808311614499575b50505050509050919050565b6144cb61469c565b821561455f5782601760008282546144e391906164c9565b909155505060005460405163a9059cbb60e01b81526001600160a01b039091169063a9059cbb9061451a90879087906004016161b2565b6020604051808303816000875af1158015614539573d6000803e3d6000fd5b505050506040513d601f19601f8201168201806040525081019061455d919061644a565b505b80156145f357806018600082825461457791906164c9565b909155505060015460405163a9059cbb60e01b81526001600160a01b039091169063a9059cbb906145ae90859085906004016161b2565b6020604051808303816000875af11580156145cd573d6000803e3d6000fd5b505050506040513d601f19601f820116820180604052508101906145f1919061644a565b505b7f520bc217d25ef4588524228dffcfa518f4ad52178c71d49b8061d016213cd311838260405161340e929190615ff5565b61462c61469c565b600c8190556040518181527fc7f6975dcffc536e6e57dd1d1dea810fff534a70563baf2d6f977b119bd00e1b906020016136f5565b61466961469c565b6001600160a01b038116614693576000604051631e4fbdf760e01b8152600401610faf9190615fb2565b61131c81615b29565b336146a561341c565b6001600160a01b031614612124573360405163118cdaa760e01b8152600401610faf9190615fb2565b60006146d8615bfd565b8054909150600119016146fe57604051633ee5aeb560e01b815260040160405180910390fd5b60029055565b600061470e615bfd565b6001905550565b6000818152601e6020908152604080832054601d835281842080548351818602810186019094528084526001600160a01b039092169493909190849084015b8282101561479c576000848152602090819020604080518082019091526002850290910180546001600160a01b03168252600190810154828401529083529092019101614754565b50505050905060005b81518110156148c45760006147f68383815181106147c5576147c5616517565b6020026020010151600001518484815181106147e3576147e3616517565b60200260200101516020015160046152ba565b9050801561485a57836001600160a01b031683838151811061481a5761481a616517565b6020026020010151600001516001600160a01b03166000805160206165c28339815191528360048960405161485193929190616575565b60405180910390a35b82828151811061486c5761486c616517565b6020026020010151600001516001600160a01b0316857fae629b396150638d6eb6de457cbffe5d618a10c8cc199a94976bed2b16ecd993836040516148b391815260200190565b60405180910390a3506001016147a5565b506000838152601d602052604081206148dc91615ec4565b505050565b6001600160a01b03811660009081526010602052604081206001810154909190158015906149145750600382015460ff16155b6001600160a01b0384166000908152600f602052604090206005015490915060ff16801515821515036149475750505050565b6001600160a01b038481166000908152600f6020526040902060058101805460ff191685151517905554168061497e575050505050565b82156149b5576001600160a01b0381166000908152600f602052604081206001018054916149ab8361655c565b9190505550614a03565b6001600160a01b0381166000908152600f602052604090206001015415614a03576001600160a01b0381166000908152600f602052604081206001018054916149fd8361658e565b91905055505b5050505050565b6001600160a01b0381166000908152601060205260409020600381015460ff166126bf5760038101805460ff191660011790556001600160a01b03808316600090815260116020526040808220825491516370a0823160e01b81529093839283929116906370a0823190614a82903090600401615fb2565b602060405180830381865afa158015614a9f573d6000803e3d6000fd5b505050506040513d601f19601f82011682018060405250810190614ac391906164dc565b905060005b8454811015614beb57848181548110614ae357614ae3616517565b600091825260209091206004600690920201015460ff1615614be357600061012c600c54878481548110614b1957614b19616517565b9060005260206000209060060201600101546002614b37919061647d565b614b41919061647d565b614b4b91906164a7565b90506000868381548110614b6157614b61616517565b9060005260206000209060060201600101549050818110614b8d57614b8682826164c9565b9050614b92565b600091505b614b9c8187616494565b9550614ba88286616494565b94506000878481548110614bbe57614bbe616517565b60009182526020909120600690910201600401805460ff191691151591909117905550505b600101614ac8565b508215614d2357828110614c745760005460405163a9059cbb60e01b81526001600160a01b039091169063a9059cbb90614c2b90899087906004016161b2565b6020604051808303816000875af1158015614c4a573d6000803e3d6000fd5b505050506040513d601f19601f82011682018060405250810190614c6e919061644a565b50614d23565b8015614cf15760005460405163a9059cbb60e01b81526001600160a01b039091169063a9059cbb90614cac90899085906004016161b2565b6020604051808303816000875af1158015614ccb573d6000803e3d6000fd5b505050506040513d601f19601f82011682018060405250810190614cef919061644a565b505b856001600160a01b03166000805160206166428339815191528483604051614d1a929190615ff5565b60405180910390a25b8115614d5a576001600160a01b0386166000908152600f602052604081206006018054849290614d54908490616494565b90915550505b6001600160a01b038087166000908152600f6020526040902060058101805460ff198116909155905460ff9091169116818015614d9f57506001600160a01b03811615155b8015614dc557506001600160a01b0381166000908152600f602052604090206001015415155b15614df7576001600160a01b0381166000908152600f60205260408120600101805491614df18361658e565b91905055505b876001600160a01b03166000805160206166828339815191528686604051614e20929190615ff5565b60405180910390a286546040519081526001600160a01b038916907f920bb94eb3842a728db98228c375ff6b00c5bc5a54fac6736155517a0a20a61a9060200160405180910390a25050505050505050565b6000806127108310614e8a5750600992602d92509050565b6113888310614e9f5750600892602892509050565b6107d08310614eb45750600792602392509050565b6103e88310614ec95750600692601e92509050565b6101f48310614ede5750600592601992509050565b60c88310614ef25750600492601492509050565b60648310614f065750600392600f92509050565b60328310614f1a5750600292600a92509050565b60148310614f2e5750600192600592509050565b506000928392509050565b306001600160a01b037f0000000000000000000000000000000000000000000000000000000000000000161480614fc057507f00000000000000000000000000000000000000000000000000000000000000006001600160a01b0316614fb4600080516020616622833981519152546001600160a01b031690565b6001600160a01b031614155b156121245760405163703e46dd60e11b815260040160405180910390fd5b61131c61469c565b816001600160a01b03166352d1902d6040518163ffffffff1660e01b8152600401602060405180830381865afa925050508015615040575060408051601f3d908101601f1916820190925261503d918101906164dc565b60015b61505f5781604051634c9c8ce360e01b8152600401610faf9190615fb2565b600080516020616622833981519152811461509057604051632a87526960e21b815260048101829052602401610faf565b6148dc8383615c21565b306001600160a01b037f000000000000000000000000000000000000000000000000000000000000000016146121245760405163703e46dd60e11b815260040160405180910390fd5b6001600160a01b0381166000908152601060205260409020600181015415806151105750600381015460ff165b15615119575050565b600061512483615c77565b111561512e575050565b60155481600201546151409190616494565b421161514a575050565b805460018201546001600160a01b038085166000908152600f60205260409020805460059091015491169060ff16801561518c57506001600160a01b03811615155b80156151b257506001600160a01b0381166000908152600f602052604090206001015415155b156151e4576001600160a01b0381166000908152600f602052604081206001018054916151de8361658e565b91905055505b6001600160a01b0385166000908152600f6020526040812060058101805460ff1990811690915560038083018490556004909201839055828755600187018390556002870192909255850180549091169055821561527057600083815260136020526040812061525391615ec4565b6000838152601c6020526040902080546001600160a01b03191690555b846001600160a01b03167f57025f0027038907eda728b59164fb63d06048f42e618a35267e6a12e49b2e4684846040516152ab929190615ff5565b60405180910390a25050505050565b6001600160a01b0383166000908152600f6020908152604080832060109092528220600582015460ff1615806152f45750600381015460ff165b8061530157506001810154155b1561531157600092505050615500565b6000546040516370a0823160e01b815286916001600160a01b0316906370a0823190615341903090600401615fb2565b602060405180830381865afa15801561535e573d6000803e3d6000fd5b505050506040513d601f19601f8201168201806040525081019061538291906164dc565b10156153c557856001600160a01b03166000805160206166428339815191528660006040516153b2929190615ff5565b60405180910390a2600092505050615500565b6000826003015483600401546153db91906164c9565b9050858181111561541b57819050876001600160a01b03166000805160206166428339815191528884604051615412929190615ff5565b60405180910390a25b80156154e257808460030160008282546154359190616494565b909155505060005460405163a9059cbb60e01b81526001600160a01b039091169063a9059cbb9061546c908b9085906004016161b2565b6020604051808303816000875af115801561548b573d6000803e3d6000fd5b505050506040513d601f19601f820116820180604052508101906154af919061644a565b50876001600160a01b031660008051602061666283398151915282886040516154d992919061652d565b60405180910390a25b83600401548460030154106154fa576154fa88614a0a565b93505050505b9392505050565b6001600160a01b038083166000908152600f602052604081205490911690808080606461553587600161647d565b61553f91906164a7565b90505b6001600160a01b0385161580159061555a5750600f83105b80156155665750601482105b1561569c576001600160a01b0385166000908152600f602052604090206005015460ff166155be576001600160a01b039485166000908152600f602052604090205490941693816155b68161655c565b925050615542565b6001600160a01b0385166000908152600f60205260408120600101546155e390611a69565b90508381111561565d5760006155fb878460036152ba565b9050801561565b5761560d8187616494565b6001600160a01b03808b16600081815260106020526040908190205490519399509092918a16916000805160206165c283398151915291615652918691600391616575565b60405180910390a35b505b6001600160a01b039586166000908152600f602052604090205490951694836156858161655c565b94505082806156939061655c565b93505050615542565b60006064600754886156ae919061647d565b6156b891906164a7565b905060006156c686836164c9565b905080156157225780601f60008282546156e09190616494565b9091555050601f546040517fca2e2bff26d2adb9fe155e9265350494c16751676879cb7ced9141e0fcf393439161571991849190615ff5565b60405180910390a15b505050505050505050565b806000036157385750565b683635c9adc5dea00000601754108061575b5750683635c9adc5dea00000601854105b156157635750565b806017546157719190616494565b6000546040516370a0823160e01b81526001600160a01b03909116906370a08231906157a1903090600401615fb2565b602060405180830381865afa1580156157be573d6000803e3d6000fd5b505050506040513d601f19601f820116820180604052508101906157e291906164dc565b10156157eb5750565b6017546000906157fd8361271061647d565b61580791906164a7565b90506103e8811115615817575050565b600060185483615827919061647d565b90506000836017546158399190616494565b9050600061584782846164a7565b9050801580615857575060185481115b15615863575050505050565b6018546001546040516370a0823160e01b81526001600160a01b03909116906370a0823190615896903090600401615fb2565b602060405180830381865afa1580156158b3573d6000803e3d6000fd5b505050506040513d601f19601f820116820180604052508101906158d791906164dc565b10156158e4575050505050565b84601760008282546158f69190616494565b92505081905550806018600082825461590f91906164c9565b9091555050600154604051630852cd8d60e31b8152600481018390526001600160a01b03909116906342966c6890602401600060405180830381600087803b15801561595a57600080fd5b505af115801561596e573d6000803e3d6000fd5b505050507f0ec3929061cbbbeecb325623e7d5a86c3dae11cb8a22ca45dc0972955657da25858260405161329d929190615ff5565b6001600160a01b038083166000908152600f6020526040812054909116905b6001600160a01b038216158015906159da5750601e81105b15615a3f576001600160a01b0382166000908152600f602052604081206007018054859290615a0a908490616494565b90915550506001600160a01b039182166000908152600f60205260409020549091169080615a378161655c565b9150506159c2565b50505050565b6001600160a01b038082166000908152600f6020526040812054909116905b6001600160a01b03821615801590615a7c5750601e81105b156148dc576001600160a01b0382166000908152600f6020526040902060020154615aa8816001616494565b6001600160a01b0384166000818152600f602052604090206002019190915560008051602061660283398151915282615ae2816001616494565b604051615af0929190615ff5565b60405180910390a26001600160a01b039283166000908152600f60205260409020549092169181615b208161655c565b92505050615a64565b6000615b33615b85565b80546001600160a01b038481166001600160a01b031983168117845560405193945091169182907f8be0079c531659141344cd1fd0a4f28419497f9722a3daafe3b4186f6b6457e090600090a3505050565b7f9016d09d72d40fdae2fd8ceac6b6234c7706214fd39c1cd1e609a0528c19930090565b6000807ff0c57e16840df040f15088dc2f81fe391c3923bec73e23a9662efc9c229c6a005b92915050565b615bdc615d09565b61131c81615d2e565b612124615d09565b615bf5615d09565b612124615d36565b7f9b779b17422d0df92223018b32b4d1fa46e071723d6817e2486d003becc55f0090565b615c2a82615d3e565b6040516001600160a01b038316907fbc7cd75a20ee27fd9adebab32041f755214dbc6bffa90cc0225b39da2e5c2d3b90600090a2805115615c6f576148dc8282615d9a565b6126bf615e10565b6001600160a01b0381166000908152601160205260408120815b8154811015615d0257818181548110615cac57615cac616517565b600091825260209091206004600690920201015460ff1615615cfa57818181548110615cda57615cda616517565b90600052602060002090600602016001015483615cf79190616494565b92505b600101615c91565b5050919050565b615d11615e2f565b61212457604051631afcd79f60e31b815260040160405180910390fd5b614669615d09565b614704615d09565b806001600160a01b03163b600003615d6b5780604051634c9c8ce360e01b8152600401610faf9190615fb2565b60008051602061662283398151915280546001600160a01b0319166001600160a01b0392909216919091179055565b6060600080846001600160a01b031684604051615db791906165a5565b600060405180830381855af49150503d8060008114615df2576040519150601f19603f3d011682016040523d82523d6000602084013e615df7565b606091505b5091509150615e07858383615e49565b95945050505050565b34156121245760405163b398979f60e01b815260040160405180910390fd5b6000615e39615ba9565b54600160401b900460ff16919050565b606082615e5e57615e5982615e9c565b615500565b8151158015615e7557506001600160a01b0384163b155b15615e955783604051639996b31560e01b8152600401610faf9190615fb2565b5080615500565b805115615eab57805160208201fd5b60405163d6bda27560e01b815260040160405180910390fd5b508054600082556002029060005260206000209081019061131c91905b80821115615f065780546001600160a01b031916815560006001820155600201615ee1565b5090565b801515811461131c57600080fd5b60008060408385031215615f2b57600080fd5b8235615f3681615f0a565b91506020830135615f4681615f0a565b809150509250929050565b80356001600160a01b0381168114615f6857600080fd5b919050565b600060208284031215615f7f57600080fd5b61550082615f51565b60008060408385031215615f9b57600080fd5b615fa483615f51565b946020939093013593505050565b6001600160a01b0391909116815260200190565b600060208284031215615fd857600080fd5b5035919050565b9283526020830191909152604082015260600190565b918252602082015260400190565b6000806040838503121561601657600080fd5b50508035926020909101359150565b634e487b7160e01b600052604160045260246000fd5b6000806040838503121561604e57600080fd5b61605783615f51565b915060208301356001600160401b038082111561607357600080fd5b818501915085601f83011261608757600080fd5b81358181111561609957616099616025565b604051601f8201601f19908116603f011681019083821181831017156160c1576160c1616025565b816040528281528860208487010111156160da57600080fd5b8260208601602083013760006020848301015280955050505050509250929050565b60008083601f84011261610e57600080fd5b5081356001600160401b0381111561612557600080fd5b6020830191508360208260051b850101111561614057600080fd5b9250929050565b6000806000806040858703121561615d57600080fd5b84356001600160401b038082111561617457600080fd5b616180888389016160fc565b9096509450602087013591508082111561619957600080fd5b506161a6878288016160fc565b95989497509550505050565b6001600160a01b03929092168252602082015260400190565b600080600080608085870312156161e157600080fd5b6161ea85615f51565b93506161f860208601615f51565b925061620660408601615f51565b915061621460608601615f51565b905092959194509250565b60005b8381101561623a578181015183820152602001616222565b50506000910152565b602081526000825180602084015261626281604085016020870161621f565b601f01601f19169190910160400192915050565b60008060008060008060c0878903121561628f57600080fd5b61629887615f51565b95506162a660208801615f51565b94506162b460408801615f51565b93506162c260608801615f51565b92506162d060808801615f51565b91506162de60a08801615f51565b90509295509295509295565b6000806000606084860312156162ff57600080fd5b61630884615f51565b925061631660208501615f51565b9150604084013590509250925092565b60008060008060008060c0878903121561633f57600080fd5b505084359660208601359650604086013595606081013595506080810135945060a0013592509050565b6020808252825182820181905260009190848201906040850190845b818110156163aa5783516001600160a01b031683529284019291840191600101616385565b50909695505050505050565b600080600080608085870312156163cc57600080fd5b6163d585615f51565b9350602085013592506163ea60408601615f51565b9396929550929360600135925050565b60208082526012908201527110dbdb9d1c9858dd081a5cc81c185d5cd95960721b604082015260600190565b6001600160a01b039384168152919092166020820152604081019190915260600190565b60006020828403121561645c57600080fd5b815161550081615f0a565b634e487b7160e01b600052601160045260246000fd5b8082028115828204841417615bce57615bce616467565b80820180821115615bce57615bce616467565b6000826164c457634e487b7160e01b600052601260045260246000fd5b500490565b81810381811115615bce57615bce616467565b6000602082840312156164ee57600080fd5b5051919050565b602080825260089082015267111a5cd8589b195960c21b604082015260600190565b634e487b7160e01b600052603260045260246000fd5b91825260ff16602082015260400190565b938452602084019290925260ff166040830152606082015260800190565b60006001820161656e5761656e616467565b5060010190565b92835260ff919091166020830152604082015260600190565b60008161659d5761659d616467565b506000190190565b600082516165b781846020870161621f565b919091019291505056fe9b3cc71482a1b2eebe764a739f46f1fe99291fd0183be81951532b29d0c9c8da6fcebd0a2ce98b28cb391d6008bbc769378c9a4919628e11639cb575cd320fcca0eea20e678cb42233c1c456c84cedce7ea53fa360bb71bf3b761b7609567770360894a13ba1a3210667c828492db98dca3e2076cc3735a920a3ca505d382bbcb5987aab1afd379f6695f1068869ee8ca6a0d02304c57935a9cc3d3ea2e51e4df381583145e90b82cc5e529bf4fc4d0e44397174cdf145c4251ac33ef195a424f3a670cd3af7d64b488926880889d08a8585a138ff455227af6737339a1ec262a264697066735822122076127d82fdb04a1d52ff429c95be9cf40478a597a4a17026aecc8e08a5ca219864736f6c63430008160033","opcodes":"PUSH1 0xA0 PUSH1 0x40 MSTORE ADDRESS PUSH1 0x80 MSTORE CALLVALUE DUP1 ISZERO PUSH3 0x15 JUMPI PUSH1 0x0 DUP1 REVERT JUMPDEST POP PUSH3 0x20 PUSH3 0x26 JUMP JUMPDEST PUSH3 0xDA JUMP JUMPDEST PUSH32 0xF0C57E16840DF040F15088DC2F81FE391C3923BEC73E23A9662EFC9C229C6A00 DUP1 SLOAD PUSH9 0x10000000000000000 SWAP1 DIV PUSH1 0xFF AND ISZERO PUSH3 0x77 JUMPI PUSH1 0x40 MLOAD PUSH4 0xF92EE8A9 PUSH1 0xE0 SHL DUP2 MSTORE PUSH1 0x4 ADD PUSH1 0x40 MLOAD DUP1 SWAP2 SUB SWAP1 REVERT JUMPDEST DUP1 SLOAD PUSH1 0x1 PUSH1 0x1 PUSH1 0x40 SHL SUB SWAP1 DUP2 AND EQ PUSH3 0xD7 JUMPI DUP1 SLOAD PUSH1 0x1 PUSH1 0x1 PUSH1 0x40 SHL SUB NOT AND PUSH1 0x1 PUSH1 0x1 PUSH1 0x40 SHL SUB SWAP1 DUP2 OR DUP3 SSTORE PUSH1 0x40 MLOAD SWAP1 DUP2 MSTORE PUSH32 0xC7F505B2F371AE2175EE4913F4499E1F2633A7B5936321EED1CDAEB6115181D2 SWAP1 PUSH1 0x20 ADD PUSH1 0x40 MLOAD DUP1 SWAP2 SUB SWAP1 LOG1 JUMPDEST POP JUMP JUMPDEST PUSH1 0x80 MLOAD PUSH2 0x66D7 PUSH3 0x104 PUSH1 0x0 CODECOPY PUSH1 0x0 DUP2 DUP2 PUSH2 0x4F44 ADD MSTORE DUP2 DUP2 PUSH2 0x4F6D ADD MSTORE PUSH2 0x50A5 ADD MSTORE PUSH2 0x66D7 PUSH1 0x0 RETURN INVALID PUSH1 0x80 PUSH1 0x40 MSTORE PUSH1 0x4 CALLDATASIZE LT PUSH2 0x36D JUMPI PUSH1 0x0 CALLDATALOAD PUSH1 0xE0 SHR DUP1 PUSH4 0x1D62EFB EQ PUSH2 0x372 JUMPI DUP1 PUSH4 0x4EF9D58 EQ PUSH2 0x394 JUMPI DUP1 PUSH4 0x4F618CB EQ PUSH2 0x3BD JUMPI DUP1 PUSH4 0x5AD3935 EQ PUSH2 0x3DD JUMPI DUP1 PUSH4 0xA5C4567 EQ PUSH2 0x40A JUMPI DUP1 PUSH4 0xE2BE210 EQ PUSH2 0x42A JUMPI DUP1 PUSH4 0x10FF994D EQ PUSH2 0x451 JUMPI DUP1 PUSH4 0x1427F616 EQ PUSH2 0x471 JUMPI DUP1 PUSH4 0x1788513C EQ PUSH2 0x486 JUMPI DUP1 PUSH4 0x182C84CC EQ PUSH2 0x4A6 JUMPI DUP1 PUSH4 0x1959A002 EQ PUSH2 0x4C6 JUMPI DUP1 PUSH4 0x1D0DAC76 EQ PUSH2 0x5A5 JUMPI DUP1 PUSH4 0x21B77D63 EQ PUSH2 0x5BB JUMPI DUP1 PUSH4 0x21F483D3 EQ PUSH2 0x5D8 JUMPI DUP1 PUSH4 0x2630C12F EQ PUSH2 0x607 JUMPI DUP1 PUSH4 0x27C830A9 EQ PUSH2 0x62C JUMPI DUP1 PUSH4 0x27F082F4 EQ PUSH2 0x656 JUMPI DUP1 PUSH4 0x372500AB EQ PUSH2 0x66C JUMPI DUP1 PUSH4 0x3A3EA2F0 EQ PUSH2 0x681 JUMPI DUP1 PUSH4 0x3DBD46BD EQ PUSH2 0x696 JUMPI DUP1 PUSH4 0x4626402B EQ PUSH2 0x6CC JUMPI DUP1 PUSH4 0x47194001 EQ PUSH2 0x6EC JUMPI DUP1 PUSH4 0x488B5D97 EQ PUSH2 0x71A JUMPI DUP1 PUSH4 0x4A4E3BD5 EQ PUSH2 0x72F JUMPI DUP1 PUSH4 0x4EA4C6B3 EQ PUSH2 0x744 JUMPI DUP1 PUSH4 0x4F1EF286 EQ PUSH2 0x764 JUMPI DUP1 PUSH4 0x51858E27 EQ PUSH2 0x777 JUMPI DUP1 PUSH4 0x52778B05 EQ PUSH2 0x78C JUMPI DUP1 PUSH4 0x52D1902D EQ PUSH2 0x7AC JUMPI DUP1 PUSH4 0x530E784F EQ PUSH2 0x7C1 JUMPI DUP1 PUSH4 0x6031A52F EQ PUSH2 0x7E1 JUMPI DUP1 PUSH4 0x67DD74CA EQ PUSH2 0x7F7 JUMPI DUP1 PUSH4 0x6839B5FA EQ PUSH2 0x817 JUMPI DUP1 PUSH4 0x6DD66827 EQ PUSH2 0x82D JUMPI DUP1 PUSH4 0x715018A6 EQ PUSH2 0x843 JUMPI DUP1 PUSH4 0x74B0EECF EQ PUSH2 0x858 JUMPI DUP1 PUSH4 0x75506C96 EQ PUSH2 0x878 JUMPI DUP1 PUSH4 0x75F0A874 EQ PUSH2 0x88E JUMPI DUP1 PUSH4 0x77A2A540 EQ PUSH2 0x8AE JUMPI DUP1 PUSH4 0x813380CD EQ PUSH2 0x8C4 JUMPI DUP1 PUSH4 0x83672F3E EQ PUSH2 0x8F2 JUMPI DUP1 PUSH4 0x86481D40 EQ PUSH2 0x6EC JUMPI DUP1 PUSH4 0x8710BCAA EQ PUSH2 0x912 JUMPI DUP1 PUSH4 0x88481B61 EQ PUSH2 0x979 JUMPI DUP1 PUSH4 0x88FD4D33 EQ PUSH2 0x98E JUMPI DUP1 PUSH4 0x8A859A85 EQ PUSH2 0x9AE JUMPI DUP1 PUSH4 0x8C0EAA48 EQ PUSH2 0x9C3 JUMPI DUP1 PUSH4 0x8DA5CB5B EQ PUSH2 0x9D8 JUMPI DUP1 PUSH4 0x90B0EB51 EQ PUSH2 0x9ED JUMPI DUP1 PUSH4 0x9370B080 EQ PUSH2 0xA0D JUMPI DUP1 PUSH4 0x95253992 EQ PUSH2 0xA23 JUMPI DUP1 PUSH4 0x99B6024D EQ PUSH2 0xA43 JUMPI DUP1 PUSH4 0x9CD441DA EQ PUSH2 0xA63 JUMPI DUP1 PUSH4 0x9D99ECA4 EQ PUSH2 0xA83 JUMPI DUP1 PUSH4 0xAC8F50AA EQ PUSH2 0xAA3 JUMPI DUP1 PUSH4 0xAD3CB1CC EQ PUSH2 0xAC3 JUMPI DUP1 PUSH4 0xB048A4BB EQ PUSH2 0xB01 JUMPI DUP1 PUSH4 0xB5D5B5FA EQ PUSH2 0xB1B JUMPI DUP1 PUSH4 0xB759936B EQ PUSH2 0xB6A JUMPI DUP1 PUSH4 0xBD594DCF EQ PUSH2 0xB80 JUMPI DUP1 PUSH4 0xBE040FB0 EQ PUSH2 0xB96 JUMPI DUP1 PUSH4 0xC2FF12FC EQ PUSH2 0xBAB JUMPI DUP1 PUSH4 0xC3B369D7 EQ PUSH2 0xBE1 JUMPI DUP1 PUSH4 0xCC2A9A5B EQ PUSH2 0xC01 JUMPI DUP1 PUSH4 0xCCF61944 EQ PUSH2 0xC21 JUMPI DUP1 PUSH4 0xCEA9D26F EQ PUSH2 0xC37 JUMPI DUP1 PUSH4 0xCEAA366D EQ PUSH2 0xC57 JUMPI DUP1 PUSH4 0xD0F16470 EQ PUSH2 0xC6D JUMPI DUP1 PUSH4 0xD2C8E0E5 EQ PUSH2 0xC8D JUMPI DUP1 PUSH4 0xD2F82536 EQ PUSH2 0xCBA JUMPI DUP1 PUSH4 0xD4F00142 EQ PUSH2 0xCD9 JUMPI DUP1 PUSH4 0xD8020A18 EQ PUSH2 0xCF9 JUMPI DUP1 PUSH4 0xDEAB8AEA EQ PUSH2 0xD0F JUMPI DUP1 PUSH4 0xDEC7FA3B EQ PUSH2 0xD2F JUMPI DUP1 PUSH4 0xE3067449 EQ PUSH2 0xD45 JUMPI DUP1 PUSH4 0xE4412F68 EQ PUSH2 0xD5B JUMPI DUP1 PUSH4 0xECE71266 EQ PUSH2 0xD71 JUMPI DUP1 PUSH4 0xF2FDE38B EQ PUSH2 0xD91 JUMPI JUMPDEST PUSH1 0x0 DUP1 REVERT JUMPDEST CALLVALUE DUP1 ISZERO PUSH2 0x37E JUMPI PUSH1 0x0 DUP1 REVERT JUMPDEST POP PUSH2 0x392 PUSH2 0x38D CALLDATASIZE PUSH1 0x4 PUSH2 0x5F18 JUMP JUMPDEST PUSH2 0xDB1 JUMP JUMPDEST STOP JUMPDEST CALLVALUE DUP1 ISZERO PUSH2 0x3A0 JUMPI PUSH1 0x0 DUP1 REVERT JUMPDEST POP PUSH2 0x3AA PUSH1 0xB SLOAD DUP2 JUMP JUMPDEST PUSH1 0x40 MLOAD SWAP1 DUP2 MSTORE PUSH1 0x20 ADD JUMPDEST PUSH1 0x40 MLOAD DUP1 SWAP2 SUB SWAP1 RETURN JUMPDEST CALLVALUE DUP1 ISZERO PUSH2 0x3C9 JUMPI PUSH1 0x0 DUP1 REVERT JUMPDEST POP PUSH2 0x392 PUSH2 0x3D8 CALLDATASIZE PUSH1 0x4 PUSH2 0x5F6D JUMP JUMPDEST PUSH2 0xE47 JUMP JUMPDEST CALLVALUE DUP1 ISZERO PUSH2 0x3E9 JUMPI PUSH1 0x0 DUP1 REVERT JUMPDEST POP PUSH2 0x3FD PUSH2 0x3F8 CALLDATASIZE PUSH1 0x4 PUSH2 0x5F88 JUMP JUMPDEST PUSH2 0xF4C JUMP JUMPDEST PUSH1 0x40 MLOAD PUSH2 0x3B4 SWAP2 SWAP1 PUSH2 0x5FB2 JUMP JUMPDEST CALLVALUE DUP1 ISZERO PUSH2 0x416 JUMPI PUSH1 0x0 DUP1 REVERT JUMPDEST POP PUSH2 0x392 PUSH2 0x425 CALLDATASIZE PUSH1 0x4 PUSH2 0x5FC6 JUMP JUMPDEST PUSH2 0xF84 JUMP JUMPDEST CALLVALUE DUP1 ISZERO PUSH2 0x436 JUMPI PUSH1 0x0 DUP1 REVERT JUMPDEST POP PUSH2 0x43F PUSH1 0x2 DUP2 JUMP JUMPDEST PUSH1 0x40 MLOAD PUSH1 0xFF SWAP1 SWAP2 AND DUP2 MSTORE PUSH1 0x20 ADD PUSH2 0x3B4 JUMP JUMPDEST CALLVALUE DUP1 ISZERO PUSH2 0x45D JUMPI PUSH1 0x0 DUP1 REVERT JUMPDEST POP PUSH2 0x392 PUSH2 0x46C CALLDATASIZE PUSH1 0x4 PUSH2 0x5FC6 JUMP JUMPDEST PUSH2 0x131F JUMP JUMPDEST CALLVALUE DUP1 ISZERO PUSH2 0x47D JUMPI PUSH1 0x0 DUP1 REVERT JUMPDEST POP PUSH2 0x43F PUSH1 0x0 DUP2 JUMP JUMPDEST CALLVALUE DUP1 ISZERO PUSH2 0x492 JUMPI PUSH1 0x0 DUP1 REVERT JUMPDEST POP PUSH1 0x1 SLOAD PUSH2 0x3FD SWAP1 PUSH1 0x1 PUSH1 0x1 PUSH1 0xA0 SHL SUB AND DUP2 JUMP JUMPDEST CALLVALUE DUP1 ISZERO PUSH2 0x4B2 JUMPI PUSH1 0x0 DUP1 REVERT JUMPDEST POP PUSH2 0x3AA PUSH2 0x4C1 CALLDATASIZE PUSH1 0x4 PUSH2 0x5FC6 JUMP JUMPDEST PUSH2 0x1A69 JUMP JUMPDEST CALLVALUE DUP1 ISZERO PUSH2 0x4D2 JUMPI PUSH1 0x0 DUP1 REVERT JUMPDEST POP PUSH2 0x548 PUSH2 0x4E1 CALLDATASIZE PUSH1 0x4 PUSH2 0x5F6D JUMP JUMPDEST PUSH1 0xF PUSH1 0x20 MSTORE PUSH1 0x0 SWAP1 DUP2 MSTORE PUSH1 0x40 SWAP1 KECCAK256 DUP1 SLOAD PUSH1 0x1 DUP3 ADD SLOAD PUSH1 0x2 DUP4 ADD SLOAD PUSH1 0x3 DUP5 ADD SLOAD PUSH1 0x4 DUP6 ADD SLOAD PUSH1 0x5 DUP7 ADD SLOAD PUSH1 0x6 DUP8 ADD SLOAD PUSH1 0x7 DUP9 ADD SLOAD PUSH1 0x8 DUP10 ADD SLOAD PUSH1 0x9 DUP11 ADD SLOAD PUSH1 0xA SWAP1 SWAP11 ADD SLOAD PUSH1 0x1 PUSH1 0x1 PUSH1 0xA0 SHL SUB SWAP1 SWAP10 AND SWAP10 SWAP8 SWAP9 SWAP7 SWAP8 SWAP6 SWAP7 SWAP5 SWAP6 PUSH1 0xFF SWAP1 SWAP5 AND SWAP5 SWAP3 SWAP4 SWAP2 SWAP3 SWAP1 SWAP2 SWAP1 DUP12 JUMP JUMPDEST PUSH1 0x40 DUP1 MLOAD PUSH1 0x1 PUSH1 0x1 PUSH1 0xA0 SHL SUB SWAP1 SWAP13 AND DUP13 MSTORE PUSH1 0x20 DUP13 ADD SWAP11 SWAP1 SWAP11 MSTORE SWAP9 DUP11 ADD SWAP8 SWAP1 SWAP8 MSTORE PUSH1 0x60 DUP10 ADD SWAP6 SWAP1 SWAP6 MSTORE PUSH1 0x80 DUP9 ADD SWAP4 SWAP1 SWAP4 MSTORE SWAP1 ISZERO ISZERO PUSH1 0xA0 DUP8 ADD MSTORE PUSH1 0xC0 DUP7 ADD MSTORE PUSH1 0xE0 DUP6 ADD MSTORE PUSH2 0x100 DUP5 ADD MSTORE PUSH2 0x120 DUP4 ADD MSTORE PUSH2 0x140 DUP3 ADD MSTORE PUSH2 0x160 ADD PUSH2 0x3B4 JUMP JUMPDEST CALLVALUE DUP1 ISZERO PUSH2 0x5B1 JUMPI PUSH1 0x0 DUP1 REVERT JUMPDEST POP PUSH2 0x3AA PUSH1 0x18 SLOAD DUP2 JUMP JUMPDEST CALLVALUE DUP1 ISZERO PUSH2 0x5C7 JUMPI PUSH1 0x0 DUP1 REVERT JUMPDEST POP PUSH2 0x3AA PUSH9 0x3635C9ADC5DEA00000 DUP2 JUMP JUMPDEST CALLVALUE DUP1 ISZERO PUSH2 0x5E4 JUMPI PUSH1 0x0 DUP1 REVERT JUMPDEST POP PUSH2 0x5F8 PUSH2 0x5F3 CALLDATASIZE PUSH1 0x4 PUSH2 0x5FC6 JUMP JUMPDEST PUSH2 0x1AA3 JUMP JUMPDEST PUSH1 0x40 MLOAD PUSH2 0x3B4 SWAP4 SWAP3 SWAP2 SWAP1 PUSH2 0x5FDF JUMP JUMPDEST CALLVALUE DUP1 ISZERO PUSH2 0x613 JUMPI PUSH1 0x0 DUP1 REVERT JUMPDEST POP PUSH1 0x4F SLOAD PUSH2 0x3FD SWAP1 PUSH2 0x100 SWAP1 DIV PUSH1 0x1 PUSH1 0x1 PUSH1 0xA0 SHL SUB AND DUP2 JUMP JUMPDEST CALLVALUE DUP1 ISZERO PUSH2 0x638 JUMPI PUSH1 0x0 DUP1 REVERT JUMPDEST POP PUSH1 0x4F SLOAD PUSH2 0x646 SWAP1 PUSH1 0xFF AND DUP2 JUMP JUMPDEST PUSH1 0x40 MLOAD SWAP1 ISZERO ISZERO DUP2 MSTORE PUSH1 0x20 ADD PUSH2 0x3B4 JUMP JUMPDEST CALLVALUE DUP1 ISZERO PUSH2 0x662 JUMPI PUSH1 0x0 DUP1 REVERT JUMPDEST POP PUSH2 0x3AA PUSH1 0xD SLOAD DUP2 JUMP JUMPDEST CALLVALUE DUP1 ISZERO PUSH2 0x678 JUMPI PUSH1 0x0 DUP1 REVERT JUMPDEST POP PUSH2 0x392 PUSH2 0x1AD6 JUMP JUMPDEST CALLVALUE DUP1 ISZERO PUSH2 0x68D JUMPI PUSH1 0x0 DUP1 REVERT JUMPDEST POP PUSH2 0x3AA PUSH2 0x2126 JUMP JUMPDEST CALLVALUE DUP1 ISZERO PUSH2 0x6A2 JUMPI PUSH1 0x0 DUP1 REVERT JUMPDEST POP PUSH2 0x3FD PUSH2 0x6B1 CALLDATASIZE PUSH1 0x4 PUSH2 0x5FC6 JUMP JUMPDEST PUSH1 0x1E PUSH1 0x20 MSTORE PUSH1 0x0 SWAP1 DUP2 MSTORE PUSH1 0x40 SWAP1 KECCAK256 SLOAD PUSH1 0x1 PUSH1 0x1 PUSH1 0xA0 SHL SUB AND DUP2 JUMP JUMPDEST CALLVALUE DUP1 ISZERO PUSH2 0x6D8 JUMPI PUSH1 0x0 DUP1 REVERT JUMPDEST POP PUSH1 0x3 SLOAD PUSH2 0x3FD SWAP1 PUSH1 0x1 PUSH1 0x1 PUSH1 0xA0 SHL SUB AND DUP2 JUMP JUMPDEST CALLVALUE DUP1 ISZERO PUSH2 0x6F8 JUMPI PUSH1 0x0 DUP1 REVERT JUMPDEST POP PUSH2 0x70C PUSH2 0x707 CALLDATASIZE PUSH1 0x4 PUSH2 0x5FC6 JUMP JUMPDEST PUSH2 0x2215 JUMP JUMPDEST PUSH1 0x40 MLOAD PUSH2 0x3B4 SWAP3 SWAP2 SWAP1 PUSH2 0x5FF5 JUMP JUMPDEST CALLVALUE DUP1 ISZERO PUSH2 0x726 JUMPI PUSH1 0x0 DUP1 REVERT JUMPDEST POP PUSH2 0x3AA PUSH1 0x3C DUP2 JUMP JUMPDEST CALLVALUE DUP1 ISZERO PUSH2 0x73B JUMPI PUSH1 0x0 DUP1 REVERT JUMPDEST POP PUSH2 0x392 PUSH2 0x222A JUMP JUMPDEST CALLVALUE DUP1 ISZERO PUSH2 0x750 JUMPI PUSH1 0x0 DUP1 REVERT JUMPDEST POP PUSH2 0x392 PUSH2 0x75F CALLDATASIZE PUSH1 0x4 PUSH2 0x6003 JUMP JUMPDEST PUSH2 0x2267 JUMP JUMPDEST PUSH2 0x392 PUSH2 0x772 CALLDATASIZE PUSH1 0x4 PUSH2 0x603B JUMP JUMPDEST PUSH2 0x26C3 JUMP JUMPDEST CALLVALUE DUP1 ISZERO PUSH2 0x783 JUMPI PUSH1 0x0 DUP1 REVERT JUMPDEST POP PUSH2 0x392 PUSH2 0x26DE JUMP JUMPDEST CALLVALUE DUP1 ISZERO PUSH2 0x798 JUMPI PUSH1 0x0 DUP1 REVERT JUMPDEST POP PUSH2 0x392 PUSH2 0x7A7 CALLDATASIZE PUSH1 0x4 PUSH2 0x5FC6 JUMP JUMPDEST PUSH2 0x271E JUMP JUMPDEST CALLVALUE DUP1 ISZERO PUSH2 0x7B8 JUMPI PUSH1 0x0 DUP1 REVERT JUMPDEST POP PUSH2 0x3AA PUSH2 0x2A97 JUMP JUMPDEST CALLVALUE DUP1 ISZERO PUSH2 0x7CD JUMPI PUSH1 0x0 DUP1 REVERT JUMPDEST POP PUSH2 0x392 PUSH2 0x7DC CALLDATASIZE PUSH1 0x4 PUSH2 0x5F6D JUMP JUMPDEST PUSH2 0x2AB4 JUMP JUMPDEST CALLVALUE DUP1 ISZERO PUSH2 0x7ED JUMPI PUSH1 0x0 DUP1 REVERT JUMPDEST POP PUSH2 0x3AA PUSH1 0x19 SLOAD DUP2 JUMP JUMPDEST CALLVALUE DUP1 ISZERO PUSH2 0x803 JUMPI PUSH1 0x0 DUP1 REVERT JUMPDEST POP PUSH2 0x392 PUSH2 0x812 CALLDATASIZE PUSH1 0x4 PUSH2 0x5FC6 JUMP JUMPDEST PUSH2 0x2AE4 JUMP JUMPDEST CALLVALUE DUP1 ISZERO PUSH2 0x823 JUMPI PUSH1 0x0 DUP1 REVERT JUMPDEST POP PUSH2 0x3AA PUSH2 0x3E8 DUP2 JUMP JUMPDEST CALLVALUE DUP1 ISZERO PUSH2 0x839 JUMPI PUSH1 0x0 DUP1 REVERT JUMPDEST POP PUSH2 0x3AA PUSH1 0x15 SLOAD DUP2 JUMP JUMPDEST CALLVALUE DUP1 ISZERO PUSH2 0x84F JUMPI PUSH1 0x0 DUP1 REVERT JUMPDEST POP PUSH2 0x392 PUSH2 0x3151 JUMP JUMPDEST CALLVALUE DUP1 ISZERO PUSH2 0x864 JUMPI PUSH1 0x0 DUP1 REVERT JUMPDEST POP PUSH2 0x392 PUSH2 0x873 CALLDATASIZE PUSH1 0x4 PUSH2 0x6147 JUMP JUMPDEST PUSH2 0x3163 JUMP JUMPDEST CALLVALUE DUP1 ISZERO PUSH2 0x884 JUMPI PUSH1 0x0 DUP1 REVERT JUMPDEST POP PUSH2 0x3AA PUSH1 0x1A SLOAD DUP2 JUMP JUMPDEST CALLVALUE DUP1 ISZERO PUSH2 0x89A JUMPI PUSH1 0x0 DUP1 REVERT JUMPDEST POP PUSH1 0x2 SLOAD PUSH2 0x3FD SWAP1 PUSH1 0x1 PUSH1 0x1 PUSH1 0xA0 SHL SUB AND DUP2 JUMP JUMPDEST CALLVALUE DUP1 ISZERO PUSH2 0x8BA JUMPI PUSH1 0x0 DUP1 REVERT JUMPDEST POP PUSH2 0x3AA PUSH1 0x17 SLOAD DUP2 JUMP JUMPDEST CALLVALUE DUP1 ISZERO PUSH2 0x8D0 JUMPI PUSH1 0x0 DUP1 REVERT JUMPDEST POP PUSH2 0x8E4 PUSH2 0x8DF CALLDATASIZE PUSH1 0x4 PUSH2 0x6003 JUMP JUMPDEST PUSH2 0x32AC JUMP JUMPDEST PUSH1 0x40 MLOAD PUSH2 0x3B4 SWAP3 SWAP2 SWAP1 PUSH2 0x61B2 JUMP JUMPDEST CALLVALUE DUP1 ISZERO PUSH2 0x8FE JUMPI PUSH1 0x0 DUP1 REVERT JUMPDEST POP PUSH2 0x392 PUSH2 0x90D CALLDATASIZE PUSH1 0x4 PUSH2 0x61CB JUMP JUMPDEST PUSH2 0x32F2 JUMP JUMPDEST CALLVALUE DUP1 ISZERO PUSH2 0x91E JUMPI PUSH1 0x0 DUP1 REVERT JUMPDEST POP PUSH2 0x957 PUSH2 0x92D CALLDATASIZE PUSH1 0x4 PUSH2 0x5F6D JUMP JUMPDEST PUSH1 0x10 PUSH1 0x20 MSTORE PUSH1 0x0 SWAP1 DUP2 MSTORE PUSH1 0x40 SWAP1 KECCAK256 DUP1 SLOAD PUSH1 0x1 DUP3 ADD SLOAD PUSH1 0x2 DUP4 ADD SLOAD PUSH1 0x3 SWAP1 SWAP4 ADD SLOAD SWAP2 SWAP3 SWAP1 SWAP2 PUSH1 0xFF AND DUP5 JUMP JUMPDEST PUSH1 0x40 DUP1 MLOAD SWAP5 DUP6 MSTORE PUSH1 0x20 DUP6 ADD SWAP4 SWAP1 SWAP4 MSTORE SWAP2 DUP4 ADD MSTORE ISZERO ISZERO PUSH1 0x60 DUP3 ADD MSTORE PUSH1 0x80 ADD PUSH2 0x3B4 JUMP JUMPDEST CALLVALUE DUP1 ISZERO PUSH2 0x985 JUMPI PUSH1 0x0 DUP1 REVERT JUMPDEST POP PUSH2 0x43F PUSH1 0x4 DUP2 JUMP JUMPDEST CALLVALUE DUP1 ISZERO PUSH2 0x99A JUMPI PUSH1 0x0 DUP1 REVERT JUMPDEST POP PUSH1 0x4 SLOAD PUSH2 0x3FD SWAP1 PUSH1 0x1 PUSH1 0x1 PUSH1 0xA0 SHL SUB AND DUP2 JUMP JUMPDEST CALLVALUE DUP1 ISZERO PUSH2 0x9BA JUMPI PUSH1 0x0 DUP1 REVERT JUMPDEST POP PUSH2 0x43F PUSH1 0x1 DUP2 JUMP JUMPDEST CALLVALUE DUP1 ISZERO PUSH2 0x9CF JUMPI PUSH1 0x0 DUP1 REVERT JUMPDEST POP PUSH2 0x43F PUSH1 0x3 DUP2 JUMP JUMPDEST CALLVALUE DUP1 ISZERO PUSH2 0x9E4 JUMPI PUSH1 0x0 DUP1 REVERT JUMPDEST POP PUSH2 0x3FD PUSH2 0x341C JUMP JUMPDEST CALLVALUE DUP1 ISZERO PUSH2 0x9F9 JUMPI PUSH1 0x0 DUP1 REVERT JUMPDEST POP PUSH2 0x392 PUSH2 0xA08 CALLDATASIZE PUSH1 0x4 PUSH2 0x6003 JUMP JUMPDEST PUSH2 0x3437 JUMP JUMPDEST CALLVALUE DUP1 ISZERO PUSH2 0xA19 JUMPI PUSH1 0x0 DUP1 REVERT JUMPDEST POP PUSH2 0x3AA PUSH1 0xE SLOAD DUP2 JUMP JUMPDEST CALLVALUE DUP1 ISZERO PUSH2 0xA2F JUMPI PUSH1 0x0 DUP1 REVERT JUMPDEST POP PUSH1 0x0 SLOAD PUSH2 0x3FD SWAP1 PUSH1 0x1 PUSH1 0x1 PUSH1 0xA0 SHL SUB AND DUP2 JUMP JUMPDEST CALLVALUE DUP1 ISZERO PUSH2 0xA4F JUMPI PUSH1 0x0 DUP1 REVERT JUMPDEST POP PUSH2 0x392 PUSH2 0xA5E CALLDATASIZE PUSH1 0x4 PUSH2 0x5F88 JUMP JUMPDEST PUSH2 0x347B JUMP JUMPDEST CALLVALUE DUP1 ISZERO PUSH2 0xA6F JUMPI PUSH1 0x0 DUP1 REVERT JUMPDEST POP PUSH2 0x392 PUSH2 0xA7E CALLDATASIZE PUSH1 0x4 PUSH2 0x6003 JUMP JUMPDEST PUSH2 0x3557 JUMP JUMPDEST CALLVALUE DUP1 ISZERO PUSH2 0xA8F JUMPI PUSH1 0x0 DUP1 REVERT JUMPDEST POP PUSH2 0x392 PUSH2 0xA9E CALLDATASIZE PUSH1 0x4 PUSH2 0x5FC6 JUMP JUMPDEST PUSH2 0x36BC JUMP JUMPDEST CALLVALUE DUP1 ISZERO PUSH2 0xAAF JUMPI PUSH1 0x0 DUP1 REVERT JUMPDEST POP PUSH2 0x8E4 PUSH2 0xABE CALLDATASIZE PUSH1 0x4 PUSH2 0x6003 JUMP JUMPDEST PUSH2 0x3700 JUMP JUMPDEST CALLVALUE DUP1 ISZERO PUSH2 0xACF JUMPI PUSH1 0x0 DUP1 REVERT JUMPDEST POP PUSH2 0xAF4 PUSH1 0x40 MLOAD DUP1 PUSH1 0x40 ADD PUSH1 0x40 MSTORE DUP1 PUSH1 0x5 DUP2 MSTORE PUSH1 0x20 ADD PUSH5 0x352E302E3 PUSH1 0xDC SHL DUP2 MSTORE POP DUP2 JUMP JUMPDEST PUSH1 0x40 MLOAD PUSH2 0x3B4 SWAP2 SWAP1 PUSH2 0x6243 JUMP JUMPDEST CALLVALUE DUP1 ISZERO PUSH2 0xB0D JUMPI PUSH1 0x0 DUP1 REVERT JUMPDEST POP PUSH1 0x16 SLOAD PUSH2 0x646 SWAP1 PUSH1 0xFF AND DUP2 JUMP JUMPDEST CALLVALUE DUP1 ISZERO PUSH2 0xB27 JUMPI PUSH1 0x0 DUP1 REVERT JUMPDEST POP PUSH2 0xB3B PUSH2 0xB36 CALLDATASIZE PUSH1 0x4 PUSH2 0x5F88 JUMP JUMPDEST PUSH2 0x371C JUMP JUMPDEST PUSH1 0x40 DUP1 MLOAD SWAP7 DUP8 MSTORE PUSH1 0x20 DUP8 ADD SWAP6 SWAP1 SWAP6 MSTORE SWAP4 DUP6 ADD SWAP3 SWAP1 SWAP3 MSTORE PUSH1 0x60 DUP5 ADD MSTORE ISZERO ISZERO PUSH1 0x80 DUP4 ADD MSTORE PUSH1 0xA0 DUP3 ADD MSTORE PUSH1 0xC0 ADD PUSH2 0x3B4 JUMP JUMPDEST CALLVALUE DUP1 ISZERO PUSH2 0xB76 JUMPI PUSH1 0x0 DUP1 REVERT JUMPDEST POP PUSH2 0x3AA PUSH1 0x1F SLOAD DUP2 JUMP JUMPDEST CALLVALUE DUP1 ISZERO PUSH2 0xB8C JUMPI PUSH1 0x0 DUP1 REVERT JUMPDEST POP PUSH2 0x3AA PUSH1 0x7 SLOAD DUP2 JUMP JUMPDEST CALLVALUE DUP1 ISZERO PUSH2 0xBA2 JUMPI PUSH1 0x0 DUP1 REVERT JUMPDEST POP PUSH2 0x392 PUSH2 0x3776 JUMP JUMPDEST CALLVALUE DUP1 ISZERO PUSH2 0xBB7 JUMPI PUSH1 0x0 DUP1 REVERT JUMPDEST POP PUSH2 0x3FD PUSH2 0xBC6 CALLDATASIZE PUSH1 0x4 PUSH2 0x5FC6 JUMP JUMPDEST PUSH1 0x1C PUSH1 0x20 MSTORE PUSH1 0x0 SWAP1 DUP2 MSTORE PUSH1 0x40 SWAP1 KECCAK256 SLOAD PUSH1 0x1 PUSH1 0x1 PUSH1 0xA0 SHL SUB AND DUP2 JUMP JUMPDEST CALLVALUE DUP1 ISZERO PUSH2 0xBED JUMPI PUSH1 0x0 DUP1 REVERT JUMPDEST POP PUSH2 0x392 PUSH2 0xBFC CALLDATASIZE PUSH1 0x4 PUSH2 0x6147 JUMP JUMPDEST PUSH2 0x3FEF JUMP JUMPDEST CALLVALUE DUP1 ISZERO PUSH2 0xC0D JUMPI PUSH1 0x0 DUP1 REVERT JUMPDEST POP PUSH2 0x392 PUSH2 0xC1C CALLDATASIZE PUSH1 0x4 PUSH2 0x6276 JUMP JUMPDEST PUSH2 0x4094 JUMP JUMPDEST CALLVALUE DUP1 ISZERO PUSH2 0xC2D JUMPI PUSH1 0x0 DUP1 REVERT JUMPDEST POP PUSH2 0x3AA PUSH1 0x6 SLOAD DUP2 JUMP JUMPDEST CALLVALUE DUP1 ISZERO PUSH2 0xC43 JUMPI PUSH1 0x0 DUP1 REVERT JUMPDEST POP PUSH2 0x392 PUSH2 0xC52 CALLDATASIZE PUSH1 0x4 PUSH2 0x62EA JUMP JUMPDEST PUSH2 0x424D JUMP JUMPDEST CALLVALUE DUP1 ISZERO PUSH2 0xC63 JUMPI PUSH1 0x0 DUP1 REVERT JUMPDEST POP PUSH2 0x3AA PUSH1 0xA SLOAD DUP2 JUMP JUMPDEST CALLVALUE DUP1 ISZERO PUSH2 0xC79 JUMPI PUSH1 0x0 DUP1 REVERT JUMPDEST POP PUSH2 0x392 PUSH2 0xC88 CALLDATASIZE PUSH1 0x4 PUSH2 0x6326 JUMP JUMPDEST PUSH2 0x43C9 JUMP JUMPDEST CALLVALUE DUP1 ISZERO PUSH2 0xC99 JUMPI PUSH1 0x0 DUP1 REVERT JUMPDEST POP PUSH2 0xCAD PUSH2 0xCA8 CALLDATASIZE PUSH1 0x4 PUSH2 0x5F6D JUMP JUMPDEST PUSH2 0x444D JUMP JUMPDEST PUSH1 0x40 MLOAD PUSH2 0x3B4 SWAP2 SWAP1 PUSH2 0x6369 JUMP JUMPDEST CALLVALUE DUP1 ISZERO PUSH2 0xCC6 JUMPI PUSH1 0x0 DUP1 REVERT JUMPDEST POP PUSH1 0x16 SLOAD PUSH2 0x646 SWAP1 PUSH2 0x100 SWAP1 DIV PUSH1 0xFF AND DUP2 JUMP JUMPDEST CALLVALUE DUP1 ISZERO PUSH2 0xCE5 JUMPI PUSH1 0x0 DUP1 REVERT JUMPDEST POP PUSH2 0x392 PUSH2 0xCF4 CALLDATASIZE PUSH1 0x4 PUSH2 0x63B6 JUMP JUMPDEST PUSH2 0x44C3 JUMP JUMPDEST CALLVALUE DUP1 ISZERO PUSH2 0xD05 JUMPI PUSH1 0x0 DUP1 REVERT JUMPDEST POP PUSH2 0x3AA PUSH1 0x8 SLOAD DUP2 JUMP JUMPDEST CALLVALUE DUP1 ISZERO PUSH2 0xD1B JUMPI PUSH1 0x0 DUP1 REVERT JUMPDEST POP PUSH1 0x5 SLOAD PUSH2 0x3FD SWAP1 PUSH1 0x1 PUSH1 0x1 PUSH1 0xA0 SHL SUB AND DUP2 JUMP JUMPDEST CALLVALUE DUP1 ISZERO PUSH2 0xD3B JUMPI PUSH1 0x0 DUP1 REVERT JUMPDEST POP PUSH2 0x3AA PUSH1 0xC SLOAD DUP2 JUMP JUMPDEST CALLVALUE DUP1 ISZERO PUSH2 0xD51 JUMPI PUSH1 0x0 DUP1 REVERT JUMPDEST POP PUSH2 0x3AA PUSH1 0x1B SLOAD DUP2 JUMP JUMPDEST CALLVALUE DUP1 ISZERO PUSH2 0xD67 JUMPI PUSH1 0x0 DUP1 REVERT JUMPDEST POP PUSH2 0x3AA PUSH1 0x9 SLOAD DUP2 JUMP JUMPDEST CALLVALUE DUP1 ISZERO PUSH2 0xD7D JUMPI PUSH1 0x0 DUP1 REVERT JUMPDEST POP PUSH2 0x392 PUSH2 0xD8C CALLDATASIZE PUSH1 0x4 PUSH2 0x5FC6 JUMP JUMPDEST PUSH2 0x4624 JUMP JUMPDEST CALLVALUE DUP1 ISZERO PUSH2 0xD9D JUMPI PUSH1 0x0 DUP1 REVERT JUMPDEST POP PUSH2 0x392 PUSH2 0xDAC CALLDATASIZE PUSH1 0x4 PUSH2 0x5F6D JUMP JUMPDEST PUSH2 0x4661 JUMP JUMPDEST PUSH2 0xDB9 PUSH2 0x469C JUMP JUMPDEST PUSH1 0x16 DUP1 SLOAD PUSH2 0xFFFF NOT AND DUP4 ISZERO ISZERO PUSH2 0xFF00 NOT DUP2 AND SWAP2 SWAP1 SWAP2 OR PUSH2 0x100 DUP5 ISZERO ISZERO MUL OR SWAP1 SWAP2 SSTORE PUSH1 0x40 MLOAD SWAP1 DUP2 MSTORE PUSH32 0xB886FCB5B9C12916F26D967EBE962DBD51EC249FB55961DA39C851CDFC10115C SWAP1 PUSH1 0x20 ADD PUSH1 0x40 MLOAD DUP1 SWAP2 SUB SWAP1 LOG1 PUSH1 0x40 MLOAD DUP2 ISZERO ISZERO DUP2 MSTORE PUSH32 0x3CB373F89DE891077FE47CEC43663B6727713DE0337AF46BEBD1178122251B7 SWAP1 PUSH1 0x20 ADD JUMPDEST PUSH1 0x40 MLOAD DUP1 SWAP2 SUB SWAP1 LOG1 POP POP JUMP JUMPDEST CALLER PUSH1 0x0 SWAP1 DUP2 MSTORE PUSH1 0xF PUSH1 0x20 MSTORE PUSH1 0x40 SWAP1 KECCAK256 SLOAD PUSH1 0x1 PUSH1 0x1 PUSH1 0xA0 SHL SUB AND ISZERO PUSH2 0xE7E JUMPI PUSH1 0x40 MLOAD PUSH4 0x682A9065 PUSH1 0xE0 SHL DUP2 MSTORE PUSH1 0x4 ADD PUSH1 0x40 MLOAD DUP1 SWAP2 SUB SWAP1 REVERT JUMPDEST CALLER PUSH1 0x1 PUSH1 0x1 PUSH1 0xA0 SHL SUB DUP3 AND SUB PUSH2 0xEA7 JUMPI PUSH1 0x40 MLOAD PUSH4 0x1ACADE89 PUSH1 0xE3 SHL DUP2 MSTORE PUSH1 0x4 ADD PUSH1 0x40 MLOAD DUP1 SWAP2 SUB SWAP1 REVERT JUMPDEST PUSH1 0x1 PUSH1 0x1 PUSH1 0xA0 SHL SUB DUP2 AND PUSH2 0xECE JUMPI PUSH1 0x40 MLOAD PUSH4 0xE6C4247B PUSH1 0xE0 SHL DUP2 MSTORE PUSH1 0x4 ADD PUSH1 0x40 MLOAD DUP1 SWAP2 SUB SWAP1 REVERT JUMPDEST CALLER PUSH1 0x0 DUP2 DUP2 MSTORE PUSH1 0xF PUSH1 0x20 SWAP1 DUP2 MSTORE PUSH1 0x40 DUP1 DUP4 KECCAK256 DUP1 SLOAD PUSH1 0x1 PUSH1 0x1 PUSH1 0xA0 SHL SUB DUP8 AND PUSH1 0x1 PUSH1 0x1 PUSH1 0xA0 SHL SUB NOT SWAP2 DUP3 AND DUP2 OR SWAP1 SWAP3 SSTORE DUP2 DUP6 MSTORE PUSH1 0x12 DUP5 MSTORE DUP3 DUP6 KECCAK256 DUP1 SLOAD PUSH1 0x1 DUP2 ADD DUP3 SSTORE SWAP1 DUP7 MSTORE SWAP4 DUP6 KECCAK256 SWAP1 SWAP4 ADD DUP1 SLOAD SWAP1 SWAP4 AND DUP6 OR SWAP1 SWAP3 SSTORE MLOAD SWAP1 SWAP3 SWAP2 PUSH32 0xA6DBB5AA28F35437DE94D685D66EDCE5FB4812196B4984B91DFD5A7B38C0FB30 SWAP2 LOG3 POP JUMP JUMPDEST PUSH1 0x12 PUSH1 0x20 MSTORE DUP2 PUSH1 0x0 MSTORE PUSH1 0x40 PUSH1 0x0 KECCAK256 DUP2 DUP2 SLOAD DUP2 LT PUSH2 0xF68 JUMPI PUSH1 0x0 DUP1 REVERT JUMPDEST PUSH1 0x0 SWAP2 DUP3 MSTORE PUSH1 0x20 SWAP1 SWAP2 KECCAK256 ADD SLOAD PUSH1 0x1 PUSH1 0x1 PUSH1 0xA0 SHL SUB AND SWAP2 POP DUP3 SWAP1 POP JUMP JUMPDEST PUSH2 0xF8C PUSH2 0x46CE JUMP JUMPDEST PUSH1 0x4F SLOAD PUSH1 0xFF AND ISZERO PUSH2 0xFB8 JUMPI PUSH1 0x40 MLOAD PUSH3 0x461BCD PUSH1 0xE5 SHL DUP2 MSTORE PUSH1 0x4 ADD PUSH2 0xFAF SWAP1 PUSH2 0x63FA JUMP JUMPDEST PUSH1 0x40 MLOAD DUP1 SWAP2 SUB SWAP1 REVERT JUMPDEST DUP1 PUSH1 0x0 SUB PUSH2 0xFD9 JUMPI PUSH1 0x40 MLOAD PUSH4 0x162908E3 PUSH1 0xE1 SHL DUP2 MSTORE PUSH1 0x4 ADD PUSH1 0x40 MLOAD DUP1 SWAP2 SUB SWAP1 REVERT JUMPDEST PUSH9 0x3635C9ADC5DEA00000 PUSH1 0x17 SLOAD LT DUP1 PUSH2 0xFFC JUMPI POP PUSH9 0x3635C9ADC5DEA00000 PUSH1 0x18 SLOAD LT JUMPDEST ISZERO PUSH2 0x101A JUMPI PUSH1 0x40 MLOAD PUSH4 0x43C7AD81 PUSH1 0xE1 SHL DUP2 MSTORE PUSH1 0x4 ADD PUSH1 0x40 MLOAD DUP1 SWAP2 SUB SWAP1 REVERT JUMPDEST PUSH1 0x0 SLOAD PUSH1 0x40 MLOAD PUSH4 0x23B872DD PUSH1 0xE0 SHL DUP2 MSTORE PUSH1 0x1 PUSH1 0x1 PUSH1 0xA0 SHL SUB SWAP1 SWAP2 AND SWAP1 PUSH4 0x23B872DD SWAP1 PUSH2 0x104E SWAP1 CALLER SWAP1 ADDRESS SWAP1 DUP7 SWAP1 PUSH1 0x4 ADD PUSH2 0x6426 JUMP JUMPDEST PUSH1 0x20 PUSH1 0x40 MLOAD DUP1 DUP4 SUB DUP2 PUSH1 0x0 DUP8 GAS CALL ISZERO DUP1 ISZERO PUSH2 0x106D JUMPI RETURNDATASIZE PUSH1 0x0 DUP1 RETURNDATACOPY RETURNDATASIZE PUSH1 0x0 REVERT JUMPDEST POP POP POP POP PUSH1 0x40 MLOAD RETURNDATASIZE PUSH1 0x1F NOT PUSH1 0x1F DUP3 ADD AND DUP3 ADD DUP1 PUSH1 0x40 MSTORE POP DUP2 ADD SWAP1 PUSH2 0x1091 SWAP2 SWAP1 PUSH2 0x644A JUMP JUMPDEST POP PUSH1 0x0 PUSH1 0x18 SLOAD DUP3 PUSH2 0x10A2 SWAP2 SWAP1 PUSH2 0x647D JUMP JUMPDEST SWAP1 POP PUSH1 0x0 DUP3 PUSH1 0x17 SLOAD PUSH2 0x10B4 SWAP2 SWAP1 PUSH2 0x6494 JUMP JUMPDEST SWAP1 POP PUSH1 0x0 PUSH2 0x10C2 DUP3 DUP5 PUSH2 0x64A7 JUMP JUMPDEST SWAP1 POP PUSH1 0x0 PUSH1 0x17 SLOAD DUP6 PUSH2 0x2710 PUSH2 0x10D7 SWAP2 SWAP1 PUSH2 0x647D JUMP JUMPDEST PUSH2 0x10E1 SWAP2 SWAP1 PUSH2 0x64A7 JUMP JUMPDEST SWAP1 POP PUSH2 0x3E8 DUP2 GT ISZERO PUSH2 0x1106 JUMPI PUSH1 0x40 MLOAD PUSH4 0x162908E3 PUSH1 0xE1 SHL DUP2 MSTORE PUSH1 0x4 ADD PUSH1 0x40 MLOAD DUP1 SWAP2 SUB SWAP1 REVERT JUMPDEST PUSH1 0x0 PUSH1 0x64 PUSH1 0xD SLOAD DUP5 PUSH2 0x1118 SWAP2 SWAP1 PUSH2 0x647D JUMP JUMPDEST PUSH2 0x1122 SWAP2 SWAP1 PUSH2 0x64A7 JUMP JUMPDEST SWAP1 POP PUSH1 0x0 PUSH2 0x1130 DUP3 DUP6 PUSH2 0x64C9 JUMP JUMPDEST PUSH1 0x1 SLOAD PUSH1 0x40 MLOAD PUSH4 0x70A08231 PUSH1 0xE0 SHL DUP2 MSTORE SWAP2 SWAP3 POP DUP6 SWAP2 PUSH1 0x1 PUSH1 0x1 PUSH1 0xA0 SHL SUB SWAP1 SWAP2 AND SWAP1 PUSH4 0x70A08231 SWAP1 PUSH2 0x1165 SWAP1 ADDRESS SWAP1 PUSH1 0x4 ADD PUSH2 0x5FB2 JUMP JUMPDEST PUSH1 0x20 PUSH1 0x40 MLOAD DUP1 DUP4 SUB DUP2 DUP7 GAS STATICCALL ISZERO DUP1 ISZERO PUSH2 0x1182 JUMPI RETURNDATASIZE PUSH1 0x0 DUP1 RETURNDATACOPY RETURNDATASIZE PUSH1 0x0 REVERT JUMPDEST POP POP POP POP PUSH1 0x40 MLOAD RETURNDATASIZE PUSH1 0x1F NOT PUSH1 0x1F DUP3 ADD AND DUP3 ADD DUP1 PUSH1 0x40 MSTORE POP DUP2 ADD SWAP1 PUSH2 0x11A6 SWAP2 SWAP1 PUSH2 0x64DC JUMP JUMPDEST LT ISZERO PUSH2 0x11C5 JUMPI PUSH1 0x40 MLOAD PUSH4 0x43C7AD81 PUSH1 0xE1 SHL DUP2 MSTORE PUSH1 0x4 ADD PUSH1 0x40 MLOAD DUP1 SWAP2 SUB SWAP1 REVERT JUMPDEST DUP7 PUSH1 0x17 PUSH1 0x0 DUP3 DUP3 SLOAD PUSH2 0x11D7 SWAP2 SWAP1 PUSH2 0x6494 JUMP JUMPDEST SWAP3 POP POP DUP2 SWAP1 SSTORE POP DUP4 PUSH1 0x18 PUSH1 0x0 DUP3 DUP3 SLOAD PUSH2 0x11F0 SWAP2 SWAP1 PUSH2 0x64C9 JUMP JUMPDEST SWAP1 SWAP2 SSTORE POP POP PUSH1 0x1 SLOAD PUSH1 0x40 MLOAD PUSH4 0x852CD8D PUSH1 0xE3 SHL DUP2 MSTORE PUSH1 0x4 DUP2 ADD DUP5 SWAP1 MSTORE PUSH1 0x1 PUSH1 0x1 PUSH1 0xA0 SHL SUB SWAP1 SWAP2 AND SWAP1 PUSH4 0x42966C68 SWAP1 PUSH1 0x24 ADD PUSH1 0x0 PUSH1 0x40 MLOAD DUP1 DUP4 SUB DUP2 PUSH1 0x0 DUP8 DUP1 EXTCODESIZE ISZERO DUP1 ISZERO PUSH2 0x123B JUMPI PUSH1 0x0 DUP1 REVERT JUMPDEST POP GAS CALL ISZERO DUP1 ISZERO PUSH2 0x124F JUMPI RETURNDATASIZE PUSH1 0x0 DUP1 RETURNDATACOPY RETURNDATASIZE PUSH1 0x0 REVERT JUMPDEST POP POP PUSH1 0x1 SLOAD PUSH1 0x40 MLOAD PUSH4 0xA9059CBB PUSH1 0xE0 SHL DUP2 MSTORE PUSH1 0x1 PUSH1 0x1 PUSH1 0xA0 SHL SUB SWAP1 SWAP2 AND SWAP3 POP PUSH4 0xA9059CBB SWAP2 POP PUSH2 0x1285 SWAP1 CALLER SWAP1 DUP6 SWAP1 PUSH1 0x4 ADD PUSH2 0x61B2 JUMP JUMPDEST PUSH1 0x20 PUSH1 0x40 MLOAD DUP1 DUP4 SUB DUP2 PUSH1 0x0 DUP8 GAS CALL ISZERO DUP1 ISZERO PUSH2 0x12A4 JUMPI RETURNDATASIZE PUSH1 0x0 DUP1 RETURNDATACOPY RETURNDATASIZE PUSH1 0x0 REVERT JUMPDEST POP POP POP POP PUSH1 0x40 MLOAD RETURNDATASIZE PUSH1 0x1F NOT PUSH1 0x1F DUP3 ADD AND DUP3 ADD DUP1 PUSH1 0x40 MSTORE POP DUP2 ADD SWAP1 PUSH2 0x12C8 SWAP2 SWAP1 PUSH2 0x644A JUMP JUMPDEST POP CALLER PUSH1 0x1 PUSH1 0x1 PUSH1 0xA0 SHL SUB AND PUSH32 0x36864AEEFCE16BC4AACEEB6B0CDFB2AD1455A8CB4CCB0DB148A2BC6E7166F97C DUP9 DUP4 DUP6 PUSH1 0x40 MLOAD PUSH2 0x1306 SWAP4 SWAP3 SWAP2 SWAP1 PUSH2 0x5FDF JUMP JUMPDEST PUSH1 0x40 MLOAD DUP1 SWAP2 SUB SWAP1 LOG2 POP POP POP POP POP POP PUSH2 0x131C PUSH2 0x4704 JUMP JUMPDEST POP JUMP JUMPDEST PUSH2 0x1327 PUSH2 0x46CE JUMP JUMPDEST PUSH1 0x16 SLOAD PUSH2 0x100 SWAP1 DIV PUSH1 0xFF AND PUSH2 0x134E JUMPI PUSH1 0x40 MLOAD PUSH3 0x461BCD PUSH1 0xE5 SHL DUP2 MSTORE PUSH1 0x4 ADD PUSH2 0xFAF SWAP1 PUSH2 0x64F5 JUMP JUMPDEST CALLER PUSH1 0x0 SWAP1 DUP2 MSTORE PUSH1 0x11 PUSH1 0x20 MSTORE PUSH1 0x40 SWAP1 KECCAK256 DUP1 SLOAD DUP3 LT DUP1 ISZERO PUSH2 0x1392 JUMPI POP DUP1 DUP3 DUP2 SLOAD DUP2 LT PUSH2 0x137A JUMPI PUSH2 0x137A PUSH2 0x6517 JUMP JUMPDEST PUSH1 0x0 SWAP2 DUP3 MSTORE PUSH1 0x20 SWAP1 SWAP2 KECCAK256 PUSH1 0x4 PUSH1 0x6 SWAP1 SWAP3 MUL ADD ADD SLOAD PUSH1 0xFF AND JUMPDEST PUSH2 0x13CE JUMPI PUSH1 0x40 MLOAD PUSH3 0x461BCD PUSH1 0xE5 SHL DUP2 MSTORE PUSH1 0x20 PUSH1 0x4 DUP3 ADD MSTORE PUSH1 0xD PUSH1 0x24 DUP3 ADD MSTORE PUSH13 0x496E76616C6964207374616B65 PUSH1 0x98 SHL PUSH1 0x44 DUP3 ADD MSTORE PUSH1 0x64 ADD PUSH2 0xFAF JUMP JUMPDEST PUSH1 0x3C DUP2 DUP4 DUP2 SLOAD DUP2 LT PUSH2 0x13E2 JUMPI PUSH2 0x13E2 PUSH2 0x6517 JUMP JUMPDEST SWAP1 PUSH1 0x0 MSTORE PUSH1 0x20 PUSH1 0x0 KECCAK256 SWAP1 PUSH1 0x6 MUL ADD PUSH1 0x3 ADD SLOAD PUSH2 0x13FE SWAP2 SWAP1 PUSH2 0x647D JUMP JUMPDEST DUP2 DUP4 DUP2 SLOAD DUP2 LT PUSH2 0x1410 JUMPI PUSH2 0x1410 PUSH2 0x6517 JUMP JUMPDEST SWAP1 PUSH1 0x0 MSTORE PUSH1 0x20 PUSH1 0x0 KECCAK256 SWAP1 PUSH1 0x6 MUL ADD PUSH1 0x2 ADD SLOAD PUSH2 0x142C SWAP2 SWAP1 PUSH2 0x6494 JUMP JUMPDEST TIMESTAMP LT ISZERO PUSH2 0x1469 JUMPI PUSH1 0x40 MLOAD PUSH3 0x461BCD PUSH1 0xE5 SHL DUP2 MSTORE PUSH1 0x20 PUSH1 0x4 DUP3 ADD MSTORE PUSH1 0xB PUSH1 0x24 DUP3 ADD MSTORE PUSH11 0x139BDD08195E1C1A5C9959 PUSH1 0xAA SHL PUSH1 0x44 DUP3 ADD MSTORE PUSH1 0x64 ADD PUSH2 0xFAF JUMP JUMPDEST PUSH1 0x0 DUP2 DUP4 DUP2 SLOAD DUP2 LT PUSH2 0x147D JUMPI PUSH2 0x147D PUSH2 0x6517 JUMP JUMPDEST SWAP1 PUSH1 0x0 MSTORE PUSH1 0x20 PUSH1 0x0 KECCAK256 SWAP1 PUSH1 0x6 MUL ADD SWAP1 POP PUSH1 0x0 DUP2 PUSH1 0x3 ADD SLOAD PUSH1 0x7 EQ PUSH2 0x14BA JUMPI DUP2 PUSH1 0x3 ADD SLOAD PUSH1 0xF EQ PUSH2 0x14B1 JUMPI PUSH4 0x1312D00 PUSH2 0x14BF JUMP JUMPDEST PUSH3 0xFE502B PUSH2 0x14BF JUMP JUMPDEST PUSH3 0xCB7356 JUMPDEST PUSH4 0xFFFFFFFF AND SWAP1 POP PUSH1 0x0 PUSH4 0x3B9ACA00 DUP4 PUSH1 0x3 ADD SLOAD DUP4 DUP6 PUSH1 0x1 ADD SLOAD PUSH2 0x14E3 SWAP2 SWAP1 PUSH2 0x647D JUMP JUMPDEST PUSH2 0x14ED SWAP2 SWAP1 PUSH2 0x647D JUMP JUMPDEST PUSH2 0x14F7 SWAP2 SWAP1 PUSH2 0x64A7 JUMP JUMPDEST SWAP1 POP PUSH1 0x0 DUP4 PUSH1 0x5 ADD SLOAD DUP3 GT PUSH2 0x150D JUMPI PUSH1 0x0 PUSH2 0x151C JUMP JUMPDEST PUSH1 0x5 DUP5 ADD SLOAD PUSH2 0x151C SWAP1 DUP4 PUSH2 0x64C9 JUMP JUMPDEST SWAP1 POP DUP1 DUP5 PUSH1 0x5 ADD PUSH1 0x0 DUP3 DUP3 SLOAD PUSH2 0x1532 SWAP2 SWAP1 PUSH2 0x6494 JUMP JUMPDEST SWAP1 SWAP2 SSTORE POP POP CALLER PUSH1 0x0 SWAP1 DUP2 MSTORE PUSH1 0xF PUSH1 0x20 MSTORE PUSH1 0x40 DUP2 KECCAK256 PUSH1 0x9 ADD SLOAD SWAP1 DUP2 SWAP1 SUB PUSH2 0x1567 JUMPI POP CALLER PUSH1 0x0 SWAP1 DUP2 MSTORE PUSH1 0x10 PUSH1 0x20 MSTORE PUSH1 0x40 SWAP1 KECCAK256 PUSH1 0x1 ADD SLOAD JUMPDEST PUSH1 0x0 PUSH1 0x64 PUSH1 0xC SLOAD DUP4 PUSH2 0x1579 SWAP2 SWAP1 PUSH2 0x647D JUMP JUMPDEST PUSH2 0x1583 SWAP2 SWAP1 PUSH2 0x64A7 JUMP JUMPDEST SWAP1 POP DUP1 ISZERO PUSH2 0x1683 JUMPI PUSH1 0x0 SLOAD PUSH1 0x40 MLOAD PUSH4 0x23B872DD PUSH1 0xE0 SHL DUP2 MSTORE PUSH1 0x1 PUSH1 0x1 PUSH1 0xA0 SHL SUB SWAP1 SWAP2 AND SWAP1 PUSH4 0x23B872DD SWAP1 PUSH2 0x15BF SWAP1 CALLER SWAP1 ADDRESS SWAP1 DUP7 SWAP1 PUSH1 0x4 ADD PUSH2 0x6426 JUMP JUMPDEST PUSH1 0x20 PUSH1 0x40 MLOAD DUP1 DUP4 SUB DUP2 PUSH1 0x0 DUP8 GAS CALL ISZERO DUP1 ISZERO PUSH2 0x15DE JUMPI RETURNDATASIZE PUSH1 0x0 DUP1 RETURNDATACOPY RETURNDATASIZE PUSH1 0x0 REVERT JUMPDEST POP POP POP POP PUSH1 0x40 MLOAD RETURNDATASIZE PUSH1 0x1F NOT PUSH1 0x1F DUP3 ADD AND DUP3 ADD DUP1 PUSH1 0x40 MSTORE POP DUP2 ADD SWAP1 PUSH2 0x1602 SWAP2 SWAP1 PUSH2 0x644A JUMP JUMPDEST PUSH2 0x1644 JUMPI PUSH1 0x40 MLOAD PUSH3 0x461BCD PUSH1 0xE5 SHL DUP2 MSTORE PUSH1 0x20 PUSH1 0x4 DUP3 ADD MSTORE PUSH1 0x13 PUSH1 0x24 DUP3 ADD MSTORE PUSH19 0x119959481D1C985B9CD9995C8819985A5B1959 PUSH1 0x6A SHL PUSH1 0x44 DUP3 ADD MSTORE PUSH1 0x64 ADD PUSH2 0xFAF JUMP JUMPDEST DUP1 PUSH1 0x17 PUSH1 0x0 DUP3 DUP3 SLOAD PUSH2 0x1656 SWAP2 SWAP1 PUSH2 0x6494 JUMP JUMPDEST SWAP1 SWAP2 SSTORE POP POP CALLER PUSH1 0x0 SWAP1 DUP2 MSTORE PUSH1 0xF PUSH1 0x20 MSTORE PUSH1 0x40 DUP2 KECCAK256 PUSH1 0x6 ADD DUP1 SLOAD DUP4 SWAP3 SWAP1 PUSH2 0x167D SWAP1 DUP5 SWAP1 PUSH2 0x6494 JUMP JUMPDEST SWAP1 SWAP2 SSTORE POP POP JUMPDEST PUSH1 0x4 DUP7 ADD DUP1 SLOAD PUSH1 0xFF NOT AND SWAP1 SSTORE DUP6 SLOAD PUSH2 0x169A SWAP1 PUSH2 0x4715 JUMP JUMPDEST DUP3 ISZERO PUSH2 0x197A JUMPI CALLER PUSH1 0x0 SWAP1 DUP2 MSTORE PUSH1 0xF PUSH1 0x20 MSTORE PUSH1 0x40 DUP2 KECCAK256 PUSH1 0x3 DUP2 ADD SLOAD PUSH1 0x4 SWAP1 SWAP2 ADD SLOAD PUSH2 0x16C4 SWAP2 SWAP1 PUSH2 0x64C9 JUMP JUMPDEST SWAP1 POP DUP1 DUP5 GT ISZERO PUSH2 0x16D2 JUMPI DUP1 SWAP4 POP JUMPDEST DUP4 ISZERO PUSH2 0x1978 JUMPI CALLER PUSH1 0x0 SWAP1 DUP2 MSTORE PUSH1 0xF PUSH1 0x20 MSTORE PUSH1 0x40 DUP2 KECCAK256 PUSH1 0x3 ADD DUP1 SLOAD DUP7 SWAP3 SWAP1 PUSH2 0x16FA SWAP1 DUP5 SWAP1 PUSH2 0x6494 JUMP JUMPDEST SWAP1 SWAP2 SSTORE POP PUSH1 0x0 SWAP1 POP PUSH2 0x170D PUSH1 0x2 DUP7 PUSH2 0x64A7 JUMP JUMPDEST PUSH1 0x0 SLOAD PUSH1 0x40 MLOAD PUSH4 0x70A08231 PUSH1 0xE0 SHL DUP2 MSTORE SWAP2 SWAP3 POP DUP3 SWAP2 PUSH1 0x1 PUSH1 0x1 PUSH1 0xA0 SHL SUB SWAP1 SWAP2 AND SWAP1 PUSH4 0x70A08231 SWAP1 PUSH2 0x1742 SWAP1 ADDRESS SWAP1 PUSH1 0x4 ADD PUSH2 0x5FB2 JUMP JUMPDEST PUSH1 0x20 PUSH1 0x40 MLOAD DUP1 DUP4 SUB DUP2 DUP7 GAS STATICCALL ISZERO DUP1 ISZERO PUSH2 0x175F JUMPI RETURNDATASIZE PUSH1 0x0 DUP1 RETURNDATACOPY RETURNDATASIZE PUSH1 0x0 REVERT JUMPDEST POP POP POP POP PUSH1 0x40 MLOAD RETURNDATASIZE PUSH1 0x1F NOT PUSH1 0x1F DUP3 ADD AND DUP3 ADD DUP1 PUSH1 0x40 MSTORE POP DUP2 ADD SWAP1 PUSH2 0x1783 SWAP2 SWAP1 PUSH2 0x64DC JUMP JUMPDEST LT ISZERO DUP1 ISZERO PUSH2 0x1791 JUMPI POP PUSH1 0x0 DUP2 GT JUMPDEST ISZERO PUSH2 0x180D JUMPI PUSH1 0x0 SLOAD PUSH1 0x40 MLOAD PUSH4 0xA9059CBB PUSH1 0xE0 SHL DUP2 MSTORE PUSH1 0x1 PUSH1 0x1 PUSH1 0xA0 SHL SUB SWAP1 SWAP2 AND SWAP1 PUSH4 0xA9059CBB SWAP1 PUSH2 0x17C8 SWAP1 CALLER SWAP1 DUP6 SWAP1 PUSH1 0x4 ADD PUSH2 0x61B2 JUMP JUMPDEST PUSH1 0x20 PUSH1 0x40 MLOAD DUP1 DUP4 SUB DUP2 PUSH1 0x0 DUP8 GAS CALL ISZERO DUP1 ISZERO PUSH2 0x17E7 JUMPI RETURNDATASIZE PUSH1 0x0 DUP1 RETURNDATACOPY RETURNDATASIZE PUSH1 0x0 REVERT JUMPDEST POP POP POP POP PUSH1 0x40 MLOAD RETURNDATASIZE PUSH1 0x1F NOT PUSH1 0x1F DUP3 ADD AND DUP3 ADD DUP1 PUSH1 0x40 MSTORE POP DUP2 ADD SWAP1 PUSH2 0x180B SWAP2 SWAP1 PUSH2 0x644A JUMP JUMPDEST POP JUMPDEST PUSH1 0x0 PUSH2 0x1817 PUSH2 0x2126 JUMP JUMPDEST SWAP1 POP PUSH1 0x0 DUP2 PUSH2 0x1826 DUP5 DUP10 PUSH2 0x64C9 JUMP JUMPDEST PUSH2 0x1838 SWAP1 PUSH8 0xDE0B6B3A7640000 PUSH2 0x647D JUMP JUMPDEST PUSH2 0x1842 SWAP2 SWAP1 PUSH2 0x64A7 JUMP JUMPDEST PUSH1 0x1 SLOAD PUSH1 0x40 MLOAD PUSH4 0x70A08231 PUSH1 0xE0 SHL DUP2 MSTORE SWAP2 SWAP3 POP DUP3 SWAP2 PUSH1 0x1 PUSH1 0x1 PUSH1 0xA0 SHL SUB SWAP1 SWAP2 AND SWAP1 PUSH4 0x70A08231 SWAP1 PUSH2 0x1877 SWAP1 ADDRESS SWAP1 PUSH1 0x4 ADD PUSH2 0x5FB2 JUMP JUMPDEST PUSH1 0x20 PUSH1 0x40 MLOAD DUP1 DUP4 SUB DUP2 DUP7 GAS STATICCALL ISZERO DUP1 ISZERO PUSH2 0x1894 JUMPI RETURNDATASIZE PUSH1 0x0 DUP1 RETURNDATACOPY RETURNDATASIZE PUSH1 0x0 REVERT JUMPDEST POP POP POP POP PUSH1 0x40 MLOAD RETURNDATASIZE PUSH1 0x1F NOT PUSH1 0x1F DUP3 ADD AND DUP3 ADD DUP1 PUSH1 0x40 MSTORE POP DUP2 ADD SWAP1 PUSH2 0x18B8 SWAP2 SWAP1 PUSH2 0x64DC JUMP JUMPDEST LT ISZERO DUP1 ISZERO PUSH2 0x18C6 JUMPI POP PUSH1 0x0 DUP2 GT JUMPDEST ISZERO PUSH2 0x1942 JUMPI PUSH1 0x1 SLOAD PUSH1 0x40 MLOAD PUSH4 0xA9059CBB PUSH1 0xE0 SHL DUP2 MSTORE PUSH1 0x1 PUSH1 0x1 PUSH1 0xA0 SHL SUB SWAP1 SWAP2 AND SWAP1 PUSH4 0xA9059CBB SWAP1 PUSH2 0x18FD SWAP1 CALLER SWAP1 DUP6 SWAP1 PUSH1 0x4 ADD PUSH2 0x61B2 JUMP JUMPDEST PUSH1 0x20 PUSH1 0x40 MLOAD DUP1 DUP4 SUB DUP2 PUSH1 0x0 DUP8 GAS CALL ISZERO DUP1 ISZERO PUSH2 0x191C JUMPI RETURNDATASIZE PUSH1 0x0 DUP1 RETURNDATACOPY RETURNDATASIZE PUSH1 0x0 REVERT JUMPDEST POP POP POP POP PUSH1 0x40 MLOAD RETURNDATASIZE PUSH1 0x1F NOT PUSH1 0x1F DUP3 ADD AND DUP3 ADD DUP1 PUSH1 0x40 MSTORE POP DUP2 ADD SWAP1 PUSH2 0x1940 SWAP2 SWAP1 PUSH2 0x644A JUMP JUMPDEST POP JUMPDEST CALLER PUSH1 0x1 PUSH1 0x1 PUSH1 0xA0 SHL SUB AND PUSH1 0x0 DUP1 MLOAD PUSH1 0x20 PUSH2 0x6662 DUP4 CODECOPY DUP2 MLOAD SWAP2 MSTORE DUP9 PUSH1 0x0 PUSH1 0x40 MLOAD PUSH2 0x196C SWAP3 SWAP2 SWAP1 PUSH2 0x652D JUMP JUMPDEST PUSH1 0x40 MLOAD DUP1 SWAP2 SUB SWAP1 LOG2 POP POP POP JUMPDEST POP JUMPDEST PUSH1 0x0 SLOAD PUSH1 0x1 DUP8 ADD SLOAD PUSH1 0x40 MLOAD PUSH4 0xA9059CBB PUSH1 0xE0 SHL DUP2 MSTORE PUSH1 0x1 PUSH1 0x1 PUSH1 0xA0 SHL SUB SWAP1 SWAP3 AND SWAP2 PUSH4 0xA9059CBB SWAP2 PUSH2 0x19B0 SWAP2 CALLER SWAP2 SWAP1 PUSH1 0x4 ADD PUSH2 0x61B2 JUMP JUMPDEST PUSH1 0x20 PUSH1 0x40 MLOAD DUP1 DUP4 SUB DUP2 PUSH1 0x0 DUP8 GAS CALL ISZERO DUP1 ISZERO PUSH2 0x19CF JUMPI RETURNDATASIZE PUSH1 0x0 DUP1 RETURNDATACOPY RETURNDATASIZE PUSH1 0x0 REVERT JUMPDEST POP POP POP POP PUSH1 0x40 MLOAD RETURNDATASIZE PUSH1 0x1F NOT PUSH1 0x1F DUP3 ADD AND DUP3 ADD DUP1 PUSH1 0x40 MSTORE POP DUP2 ADD SWAP1 PUSH2 0x19F3 SWAP2 SWAP1 PUSH2 0x644A JUMP JUMPDEST POP CALLER PUSH1 0x1 PUSH1 0x1 PUSH1 0xA0 SHL SUB AND PUSH1 0x0 DUP1 MLOAD PUSH1 0x20 PUSH2 0x6682 DUP4 CODECOPY DUP2 MLOAD SWAP2 MSTORE DUP8 PUSH1 0x1 ADD SLOAD DUP4 PUSH1 0x40 MLOAD PUSH2 0x1A21 SWAP3 SWAP2 SWAP1 PUSH2 0x5FF5 JUMP JUMPDEST PUSH1 0x40 MLOAD DUP1 SWAP2 SUB SWAP1 LOG2 PUSH2 0x1A32 CALLER PUSH2 0x48E1 JUMP JUMPDEST CALLER PUSH1 0x0 SWAP1 DUP2 MSTORE PUSH1 0xF PUSH1 0x20 MSTORE PUSH1 0x40 SWAP1 KECCAK256 PUSH1 0x4 DUP2 ADD SLOAD PUSH1 0x3 SWAP1 SWAP2 ADD SLOAD LT PUSH2 0x1A5A JUMPI PUSH2 0x1A5A CALLER PUSH2 0x4A0A JUMP JUMPDEST POP POP POP POP POP POP POP PUSH2 0x131C PUSH2 0x4704 JUMP JUMPDEST PUSH1 0x0 PUSH1 0x3 DUP3 LT PUSH2 0x1A7B JUMPI POP PUSH1 0xF SWAP2 SWAP1 POP JUMP JUMPDEST PUSH1 0x2 DUP3 LT PUSH2 0x1A8B JUMPI POP PUSH1 0xA SWAP2 SWAP1 POP JUMP JUMPDEST PUSH1 0x1 DUP3 LT PUSH2 0x1A9B JUMPI POP PUSH1 0x5 SWAP2 SWAP1 POP JUMP JUMPDEST POP PUSH1 0x0 SWAP2 SWAP1 POP JUMP JUMPDEST PUSH1 0x14 DUP2 DUP2 SLOAD DUP2 LT PUSH2 0x1AB3 JUMPI PUSH1 0x0 DUP1 REVERT JUMPDEST PUSH1 0x0 SWAP2 DUP3 MSTORE PUSH1 0x20 SWAP1 SWAP2 KECCAK256 PUSH1 0x3 SWAP1 SWAP2 MUL ADD DUP1 SLOAD PUSH1 0x1 DUP3 ADD SLOAD PUSH1 0x2 SWAP1 SWAP3 ADD SLOAD SWAP1 SWAP3 POP DUP4 JUMP JUMPDEST PUSH2 0x1ADE PUSH2 0x46CE JUMP JUMPDEST CALLER PUSH1 0x0 SWAP1 DUP2 MSTORE PUSH1 0x10 PUSH1 0x20 MSTORE PUSH1 0x40 SWAP1 KECCAK256 PUSH1 0x1 DUP2 ADD SLOAD ISZERO DUP1 PUSH2 0x1B02 JUMPI POP PUSH1 0x3 DUP2 ADD SLOAD PUSH1 0xFF AND JUMPDEST ISZERO PUSH2 0x1B20 JUMPI PUSH1 0x40 MLOAD PUSH4 0x4065AAF1 PUSH1 0xE1 SHL DUP2 MSTORE PUSH1 0x4 ADD PUSH1 0x40 MLOAD DUP1 SWAP2 SUB SWAP1 REVERT JUMPDEST CALLER PUSH1 0x0 SWAP1 DUP2 MSTORE PUSH1 0x11 PUSH1 0x20 MSTORE PUSH1 0x40 DUP2 KECCAK256 SWAP1 DUP1 JUMPDEST DUP3 SLOAD DUP2 LT ISZERO PUSH2 0x1D85 JUMPI DUP3 DUP2 DUP2 SLOAD DUP2 LT PUSH2 0x1B4D JUMPI PUSH2 0x1B4D PUSH2 0x6517 JUMP JUMPDEST PUSH1 0x0 SWAP2 DUP3 MSTORE PUSH1 0x20 SWAP1 SWAP2 KECCAK256 PUSH1 0x4 PUSH1 0x6 SWAP1 SWAP3 MUL ADD ADD SLOAD PUSH1 0xFF AND ISZERO PUSH2 0x1D7D JUMPI PUSH1 0x0 DUP4 DUP3 DUP2 SLOAD DUP2 LT PUSH2 0x1B7D JUMPI PUSH2 0x1B7D PUSH2 0x6517 JUMP JUMPDEST SWAP1 PUSH1 0x0 MSTORE PUSH1 0x20 PUSH1 0x0 KECCAK256 SWAP1 PUSH1 0x6 MUL ADD PUSH1 0x3 ADD SLOAD PUSH1 0x7 SUB PUSH2 0x1BA0 JUMPI POP PUSH3 0xCB7356 PUSH2 0x1C07 JUMP JUMPDEST DUP4 DUP3 DUP2 SLOAD DUP2 LT PUSH2 0x1BB2 JUMPI PUSH2 0x1BB2 PUSH2 0x6517 JUMP JUMPDEST SWAP1 PUSH1 0x0 MSTORE PUSH1 0x20 PUSH1 0x0 KECCAK256 SWAP1 PUSH1 0x6 MUL ADD PUSH1 0x3 ADD SLOAD PUSH1 0xF SUB PUSH2 0x1BD5 JUMPI POP PUSH3 0xFE502B PUSH2 0x1C07 JUMP JUMPDEST DUP4 DUP3 DUP2 SLOAD DUP2 LT PUSH2 0x1BE7 JUMPI PUSH2 0x1BE7 PUSH2 0x6517 JUMP JUMPDEST SWAP1 PUSH1 0x0 MSTORE PUSH1 0x20 PUSH1 0x0 KECCAK256 SWAP1 PUSH1 0x6 MUL ADD PUSH1 0x3 ADD SLOAD PUSH1 0x1E SUB PUSH2 0x1C07 JUMPI POP PUSH4 0x1312D00 JUMPDEST PUSH1 0x0 PUSH1 0x3C DUP6 DUP5 DUP2 SLOAD DUP2 LT PUSH2 0x1C1D JUMPI PUSH2 0x1C1D PUSH2 0x6517 JUMP JUMPDEST SWAP1 PUSH1 0x0 MSTORE PUSH1 0x20 PUSH1 0x0 KECCAK256 SWAP1 PUSH1 0x6 MUL ADD PUSH1 0x2 ADD SLOAD TIMESTAMP PUSH2 0x1C3A SWAP2 SWAP1 PUSH2 0x64C9 JUMP JUMPDEST PUSH2 0x1C44 SWAP2 SWAP1 PUSH2 0x64A7 JUMP JUMPDEST SWAP1 POP DUP5 DUP4 DUP2 SLOAD DUP2 LT PUSH2 0x1C58 JUMPI PUSH2 0x1C58 PUSH2 0x6517 JUMP JUMPDEST SWAP1 PUSH1 0x0 MSTORE PUSH1 0x20 PUSH1 0x0 KECCAK256 SWAP1 PUSH1 0x6 MUL ADD PUSH1 0x3 ADD SLOAD DUP2 GT ISZERO PUSH2 0x1C98 JUMPI DUP5 DUP4 DUP2 SLOAD DUP2 LT PUSH2 0x1C83 JUMPI PUSH2 0x1C83 PUSH2 0x6517 JUMP JUMPDEST SWAP1 PUSH1 0x0 MSTORE PUSH1 0x20 PUSH1 0x0 KECCAK256 SWAP1 PUSH1 0x6 MUL ADD PUSH1 0x3 ADD SLOAD SWAP1 POP JUMPDEST DUP1 PUSH1 0x0 SUB PUSH2 0x1CA7 JUMPI POP POP PUSH2 0x1D7D JUMP JUMPDEST PUSH1 0x0 PUSH4 0x3B9ACA00 DUP3 DUP5 DUP9 DUP8 DUP2 SLOAD DUP2 LT PUSH2 0x1CC2 JUMPI PUSH2 0x1CC2 PUSH2 0x6517 JUMP JUMPDEST SWAP1 PUSH1 0x0 MSTORE PUSH1 0x20 PUSH1 0x0 KECCAK256 SWAP1 PUSH1 0x6 MUL ADD PUSH1 0x1 ADD SLOAD PUSH2 0x1CDE SWAP2 SWAP1 PUSH2 0x647D JUMP JUMPDEST PUSH2 0x1CE8 SWAP2 SWAP1 PUSH2 0x647D JUMP JUMPDEST PUSH2 0x1CF2 SWAP2 SWAP1 PUSH2 0x64A7 JUMP JUMPDEST SWAP1 POP PUSH1 0x0 DUP7 DUP6 DUP2 SLOAD DUP2 LT PUSH2 0x1D08 JUMPI PUSH2 0x1D08 PUSH2 0x6517 JUMP JUMPDEST SWAP1 PUSH1 0x0 MSTORE PUSH1 0x20 PUSH1 0x0 KECCAK256 SWAP1 PUSH1 0x6 MUL ADD PUSH1 0x5 ADD SLOAD SWAP1 POP DUP1 DUP3 GT ISZERO PUSH2 0x1D78 JUMPI PUSH1 0x0 PUSH2 0x1D30 DUP3 DUP5 PUSH2 0x64C9 JUMP JUMPDEST SWAP1 POP PUSH2 0x1D3C DUP2 DUP9 PUSH2 0x6494 JUMP JUMPDEST SWAP7 POP DUP1 DUP9 DUP8 DUP2 SLOAD DUP2 LT PUSH2 0x1D51 JUMPI PUSH2 0x1D51 PUSH2 0x6517 JUMP JUMPDEST SWAP1 PUSH1 0x0 MSTORE PUSH1 0x20 PUSH1 0x0 KECCAK256 SWAP1 PUSH1 0x6 MUL ADD PUSH1 0x5 ADD PUSH1 0x0 DUP3 DUP3 SLOAD PUSH2 0x1D71 SWAP2 SWAP1 PUSH2 0x6494 JUMP JUMPDEST SWAP1 SWAP2 SSTORE POP POP POP JUMPDEST POP POP POP POP JUMPDEST PUSH1 0x1 ADD PUSH2 0x1B32 JUMP JUMPDEST POP DUP1 PUSH1 0x0 SUB PUSH2 0x1DA7 JUMPI PUSH1 0x40 MLOAD PUSH4 0xFEC21FD PUSH1 0xE2 SHL DUP2 MSTORE PUSH1 0x4 ADD PUSH1 0x40 MLOAD DUP1 SWAP2 SUB SWAP1 REVERT JUMPDEST CALLER PUSH1 0x0 SWAP1 DUP2 MSTORE PUSH1 0xF PUSH1 0x20 MSTORE PUSH1 0x40 SWAP1 KECCAK256 PUSH1 0x4 DUP2 ADD SLOAD PUSH1 0x3 SWAP1 SWAP2 ADD SLOAD PUSH2 0x1DCC SWAP1 DUP4 SWAP1 PUSH2 0x6494 JUMP JUMPDEST GT ISZERO PUSH2 0x1DF9 JUMPI CALLER PUSH1 0x0 SWAP1 DUP2 MSTORE PUSH1 0xF PUSH1 0x20 MSTORE PUSH1 0x40 SWAP1 KECCAK256 PUSH1 0x3 DUP2 ADD SLOAD PUSH1 0x4 SWAP1 SWAP2 ADD SLOAD PUSH2 0x1DF6 SWAP2 SWAP1 PUSH2 0x64C9 JUMP JUMPDEST SWAP1 POP JUMPDEST DUP1 PUSH1 0x0 SUB PUSH2 0x1E12 JUMPI PUSH2 0x1E0A CALLER PUSH2 0x4A0A JUMP JUMPDEST POP POP POP PUSH2 0x211C JUMP JUMPDEST CALLER PUSH1 0x0 SWAP1 DUP2 MSTORE PUSH1 0xF PUSH1 0x20 MSTORE PUSH1 0x40 DUP2 KECCAK256 PUSH1 0x3 ADD DUP1 SLOAD DUP4 SWAP3 SWAP1 PUSH2 0x1E34 SWAP1 DUP5 SWAP1 PUSH2 0x6494 JUMP JUMPDEST SWAP1 SWAP2 SSTORE POP PUSH1 0x0 SWAP1 POP PUSH2 0x1E47 PUSH1 0x2 DUP4 PUSH2 0x64A7 JUMP JUMPDEST SWAP1 POP PUSH1 0x0 PUSH2 0x1E56 PUSH1 0x2 DUP5 PUSH2 0x64A7 JUMP JUMPDEST PUSH1 0x0 DUP1 SLOAD PUSH1 0x40 MLOAD PUSH4 0x70A08231 PUSH1 0xE0 SHL DUP2 MSTORE SWAP3 SWAP4 POP SWAP1 SWAP2 DUP5 SWAP2 PUSH1 0x1 PUSH1 0x1 PUSH1 0xA0 SHL SUB AND SWAP1 PUSH4 0x70A08231 SWAP1 PUSH2 0x1E8C SWAP1 ADDRESS SWAP1 PUSH1 0x4 ADD PUSH2 0x5FB2 JUMP JUMPDEST PUSH1 0x20 PUSH1 0x40 MLOAD DUP1 DUP4 SUB DUP2 DUP7 GAS STATICCALL ISZERO DUP1 ISZERO PUSH2 0x1EA9 JUMPI RETURNDATASIZE PUSH1 0x0 DUP1 RETURNDATACOPY RETURNDATASIZE PUSH1 0x0 REVERT JUMPDEST POP POP POP POP PUSH1 0x40 MLOAD RETURNDATASIZE PUSH1 0x1F NOT PUSH1 0x1F DUP3 ADD AND DUP3 ADD DUP1 PUSH1 0x40 MSTORE POP DUP2 ADD SWAP1 PUSH2 0x1ECD SWAP2 SWAP1 PUSH2 0x64DC JUMP JUMPDEST LT ISZERO DUP1 ISZERO PUSH2 0x1EDB JUMPI POP PUSH1 0x0 DUP4 GT JUMPDEST ISZERO PUSH2 0x1F5A JUMPI PUSH1 0x0 SLOAD PUSH1 0x40 MLOAD PUSH4 0xA9059CBB PUSH1 0xE0 SHL DUP2 MSTORE PUSH1 0x1 PUSH1 0x1 PUSH1 0xA0 SHL SUB SWAP1 SWAP2 AND SWAP1 PUSH4 0xA9059CBB SWAP1 PUSH2 0x1F12 SWAP1 CALLER SWAP1 DUP8 SWAP1 PUSH1 0x4 ADD PUSH2 0x61B2 JUMP JUMPDEST PUSH1 0x20 PUSH1 0x40 MLOAD DUP1 DUP4 SUB DUP2 PUSH1 0x0 DUP8 GAS CALL ISZERO DUP1 ISZERO PUSH2 0x1F31 JUMPI RETURNDATASIZE PUSH1 0x0 DUP1 RETURNDATACOPY RETURNDATASIZE PUSH1 0x0 REVERT JUMPDEST POP POP POP POP PUSH1 0x40 MLOAD RETURNDATASIZE PUSH1 0x1F NOT PUSH1 0x1F DUP3 ADD AND DUP3 ADD DUP1 PUSH1 0x40 MSTORE POP DUP2 ADD SWAP1 PUSH2 0x1F55 SWAP2 SWAP1 PUSH2 0x644A JUMP JUMPDEST POP DUP3 SWAP1 POP JUMPDEST PUSH1 0x0 PUSH2 0x1F64 PUSH2 0x2126 JUMP JUMPDEST SWAP1 POP PUSH1 0x0 DUP2 PUSH2 0x1F7B DUP6 PUSH8 0xDE0B6B3A7640000 PUSH2 0x647D JUMP JUMPDEST PUSH2 0x1F85 SWAP2 SWAP1 PUSH2 0x64A7 JUMP JUMPDEST PUSH1 0x1 SLOAD PUSH1 0x40 MLOAD PUSH4 0x70A08231 PUSH1 0xE0 SHL DUP2 MSTORE SWAP2 SWAP3 POP PUSH1 0x0 SWAP2 DUP4 SWAP2 PUSH1 0x1 PUSH1 0x1 PUSH1 0xA0 SHL SUB AND SWAP1 PUSH4 0x70A08231 SWAP1 PUSH2 0x1FBB SWAP1 ADDRESS SWAP1 PUSH1 0x4 ADD PUSH2 0x5FB2 JUMP JUMPDEST PUSH1 0x20 PUSH1 0x40 MLOAD DUP1 DUP4 SUB DUP2 DUP7 GAS STATICCALL ISZERO DUP1 ISZERO PUSH2 0x1FD8 JUMPI RETURNDATASIZE PUSH1 0x0 DUP1 RETURNDATACOPY RETURNDATASIZE PUSH1 0x0 REVERT JUMPDEST POP POP POP POP PUSH1 0x40 MLOAD RETURNDATASIZE PUSH1 0x1F NOT PUSH1 0x1F DUP3 ADD AND DUP3 ADD DUP1 PUSH1 0x40 MSTORE POP DUP2 ADD SWAP1 PUSH2 0x1FFC SWAP2 SWAP1 PUSH2 0x64DC JUMP JUMPDEST LT ISZERO DUP1 ISZERO PUSH2 0x200A JUMPI POP PUSH1 0x0 DUP3 GT JUMPDEST ISZERO PUSH2 0x2089 JUMPI PUSH1 0x1 SLOAD PUSH1 0x40 MLOAD PUSH4 0xA9059CBB PUSH1 0xE0 SHL DUP2 MSTORE PUSH1 0x1 PUSH1 0x1 PUSH1 0xA0 SHL SUB SWAP1 SWAP2 AND SWAP1 PUSH4 0xA9059CBB SWAP1 PUSH2 0x2041 SWAP1 CALLER SWAP1 DUP7 SWAP1 PUSH1 0x4 ADD PUSH2 0x61B2 JUMP JUMPDEST PUSH1 0x20 PUSH1 0x40 MLOAD DUP1 DUP4 SUB DUP2 PUSH1 0x0 DUP8 GAS CALL ISZERO DUP1 ISZERO PUSH2 0x2060 JUMPI RETURNDATASIZE PUSH1 0x0 DUP1 RETURNDATACOPY RETURNDATASIZE PUSH1 0x0 REVERT JUMPDEST POP POP POP POP PUSH1 0x40 MLOAD RETURNDATASIZE PUSH1 0x1F NOT PUSH1 0x1F DUP3 ADD AND DUP3 ADD DUP1 PUSH1 0x40 MSTORE POP DUP2 ADD SWAP1 PUSH2 0x2084 SWAP2 SWAP1 PUSH2 0x644A JUMP JUMPDEST POP DUP2 SWAP1 POP JUMPDEST CALLER PUSH1 0x1 PUSH1 0x1 PUSH1 0xA0 SHL SUB AND PUSH1 0x0 DUP1 MLOAD PUSH1 0x20 PUSH2 0x6662 DUP4 CODECOPY DUP2 MLOAD SWAP2 MSTORE DUP9 PUSH1 0x0 PUSH1 0x40 MLOAD PUSH2 0x20B3 SWAP3 SWAP2 SWAP1 PUSH2 0x652D JUMP JUMPDEST PUSH1 0x40 MLOAD DUP1 SWAP2 SUB SWAP1 LOG2 DUP9 SLOAD PUSH1 0x40 MLOAD CALLER SWAP2 PUSH1 0x0 DUP1 MLOAD PUSH1 0x20 PUSH2 0x65E2 DUP4 CODECOPY DUP2 MLOAD SWAP2 MSTORE SWAP2 PUSH2 0x20E2 SWAP2 DUP9 SWAP2 DUP7 SWAP2 PUSH1 0x0 SWAP2 PUSH2 0x653E JUMP JUMPDEST PUSH1 0x40 MLOAD DUP1 SWAP2 SUB SWAP1 LOG2 CALLER PUSH1 0x0 SWAP1 DUP2 MSTORE PUSH1 0xF PUSH1 0x20 MSTORE PUSH1 0x40 SWAP1 KECCAK256 PUSH1 0x4 DUP2 ADD SLOAD PUSH1 0x3 SWAP1 SWAP2 ADD SLOAD LT PUSH2 0x2112 JUMPI PUSH2 0x2112 CALLER PUSH2 0x4A0A JUMP JUMPDEST POP POP POP POP POP POP POP POP POP JUMPDEST PUSH2 0x2124 PUSH2 0x4704 JUMP JUMPDEST JUMP JUMPDEST PUSH1 0x4F SLOAD PUSH1 0x0 SWAP1 PUSH2 0x100 SWAP1 DIV PUSH1 0x1 PUSH1 0x1 PUSH1 0xA0 SHL SUB AND ISZERO PUSH2 0x21C3 JUMPI PUSH1 0x4F SLOAD PUSH1 0x1 SLOAD PUSH1 0x40 MLOAD PUSH4 0x41976E09 PUSH1 0xE0 SHL DUP2 MSTORE PUSH1 0x1 PUSH1 0x1 PUSH1 0xA0 SHL SUB PUSH2 0x100 SWAP1 SWAP4 DIV DUP4 AND SWAP3 PUSH4 0x41976E09 SWAP3 PUSH2 0x2178 SWAP3 SWAP2 AND SWAP1 PUSH1 0x4 ADD PUSH2 0x5FB2 JUMP JUMPDEST PUSH1 0x20 PUSH1 0x40 MLOAD DUP1 DUP4 SUB DUP2 DUP7 GAS STATICCALL SWAP3 POP POP POP DUP1 ISZERO PUSH2 0x21B1 JUMPI POP PUSH1 0x40 DUP1 MLOAD PUSH1 0x1F RETURNDATASIZE SWAP1 DUP2 ADD PUSH1 0x1F NOT AND DUP3 ADD SWAP1 SWAP3 MSTORE PUSH2 0x21AE SWAP2 DUP2 ADD SWAP1 PUSH2 0x64DC JUMP JUMPDEST PUSH1 0x1 JUMPDEST ISZERO PUSH2 0x21C3 JUMPI DUP1 ISZERO PUSH2 0x21C1 JUMPI SWAP2 SWAP1 POP JUMP JUMPDEST POP JUMPDEST PUSH1 0x18 SLOAD ISZERO DUP1 PUSH2 0x21DC JUMPI POP PUSH9 0x3635C9ADC5DEA00000 PUSH1 0x17 SLOAD LT JUMPDEST ISZERO PUSH2 0x21EE JUMPI POP PUSH8 0xDE0B6B3A7640000 SWAP1 JUMP JUMPDEST PUSH1 0x18 SLOAD PUSH1 0x17 SLOAD PUSH2 0x2206 SWAP1 PUSH8 0xDE0B6B3A7640000 PUSH2 0x647D JUMP JUMPDEST PUSH2 0x2210 SWAP2 SWAP1 PUSH2 0x64A7 JUMP JUMPDEST SWAP1 POP SWAP1 JUMP JUMPDEST PUSH1 0x0 DUP1 PUSH2 0x2221 DUP4 PUSH2 0x4E72 JUMP JUMPDEST SWAP2 POP SWAP2 POP SWAP2 POP SWAP2 JUMP JUMPDEST PUSH2 0x2232 PUSH2 0x469C JUMP JUMPDEST PUSH1 0x4F DUP1 SLOAD PUSH1 0xFF NOT AND SWAP1 SSTORE PUSH1 0x40 MLOAD PUSH32 0x15DE7AD89D29FD1C6D2E6B1E878453569B4080EDF34E0105FAAA3BD52F018530 SWAP1 PUSH1 0x0 SWAP1 LOG1 JUMP JUMPDEST PUSH2 0x226F PUSH2 0x46CE JUMP JUMPDEST PUSH1 0x4F SLOAD PUSH1 0xFF AND ISZERO PUSH2 0x2292 JUMPI PUSH1 0x40 MLOAD PUSH3 0x461BCD PUSH1 0xE5 SHL DUP2 MSTORE PUSH1 0x4 ADD PUSH2 0xFAF SWAP1 PUSH2 0x63FA JUMP JUMPDEST CALLER PUSH1 0x0 SWAP1 DUP2 MSTORE PUSH1 0x10 PUSH1 0x20 MSTORE PUSH1 0x40 DUP2 KECCAK256 PUSH1 0x1 DUP2 ADD SLOAD SWAP1 SWAP2 SUB PUSH2 0x22C6 JUMPI PUSH1 0x40 MLOAD PUSH4 0x4065AAF1 PUSH1 0xE1 SHL DUP2 MSTORE PUSH1 0x4 ADD PUSH1 0x40 MLOAD DUP1 SWAP2 SUB SWAP1 REVERT JUMPDEST PUSH1 0x3 DUP2 ADD SLOAD PUSH1 0xFF AND ISZERO PUSH2 0x22EC JUMPI PUSH1 0x40 MLOAD PUSH4 0x1ECB2C4F PUSH1 0xE3 SHL DUP2 MSTORE PUSH1 0x4 ADD PUSH1 0x40 MLOAD DUP1 SWAP2 SUB SWAP1 REVERT JUMPDEST DUP2 PUSH1 0x7 EQ ISZERO DUP1 ISZERO PUSH2 0x22FE JUMPI POP DUP2 PUSH1 0xF EQ ISZERO JUMPDEST DUP1 ISZERO PUSH2 0x230B JUMPI POP DUP2 PUSH1 0x1E EQ ISZERO JUMPDEST ISZERO PUSH2 0x2329 JUMPI PUSH1 0x40 MLOAD PUSH4 0x4DC7F5FF PUSH1 0xE1 SHL DUP2 MSTORE PUSH1 0x4 ADD PUSH1 0x40 MLOAD DUP1 SWAP2 SUB SWAP1 REVERT JUMPDEST DUP3 PUSH1 0x0 SUB PUSH2 0x234A JUMPI PUSH1 0x40 MLOAD PUSH4 0x162908E3 PUSH1 0xE1 SHL DUP2 MSTORE PUSH1 0x4 ADD PUSH1 0x40 MLOAD DUP1 SWAP2 SUB SWAP1 REVERT JUMPDEST PUSH1 0x0 SLOAD PUSH1 0x40 MLOAD PUSH4 0x23B872DD PUSH1 0xE0 SHL DUP2 MSTORE PUSH1 0x1 PUSH1 0x1 PUSH1 0xA0 SHL SUB SWAP1 SWAP2 AND SWAP1 PUSH4 0x23B872DD SWAP1 PUSH2 0x237E SWAP1 CALLER SWAP1 ADDRESS SWAP1 DUP9 SWAP1 PUSH1 0x4 ADD PUSH2 0x6426 JUMP JUMPDEST PUSH1 0x20 PUSH1 0x40 MLOAD DUP1 DUP4 SUB DUP2 PUSH1 0x0 DUP8 GAS CALL ISZERO DUP1 ISZERO PUSH2 0x239D JUMPI RETURNDATASIZE PUSH1 0x0 DUP1 RETURNDATACOPY RETURNDATASIZE PUSH1 0x0 REVERT JUMPDEST POP POP POP POP PUSH1 0x40 MLOAD RETURNDATASIZE PUSH1 0x1F NOT PUSH1 0x1F DUP3 ADD AND DUP3 ADD DUP1 PUSH1 0x40 MSTORE POP DUP2 ADD SWAP1 PUSH2 0x23C1 SWAP2 SWAP1 PUSH2 0x644A JUMP JUMPDEST POP PUSH1 0x1A DUP1 SLOAD SWAP1 PUSH1 0x0 PUSH2 0x23D2 DUP4 PUSH2 0x655C JUMP JUMPDEST SWAP1 SWAP2 SSTORE POP POP CALLER PUSH1 0x0 DUP2 DUP2 MSTORE PUSH1 0x11 PUSH1 0x20 SWAP1 DUP2 MSTORE PUSH1 0x40 DUP1 DUP4 KECCAK256 DUP2 MLOAD PUSH1 0xC0 DUP2 ADD DUP4 MSTORE PUSH1 0x1A DUP1 SLOAD DUP3 MSTORE DUP2 DUP6 ADD DUP11 DUP2 MSTORE TIMESTAMP DUP4 DUP7 ADD SWAP1 DUP2 MSTORE PUSH1 0x60 DUP5 ADD DUP12 DUP2 MSTORE PUSH1 0x1 PUSH1 0x80 DUP7 ADD DUP2 DUP2 MSTORE PUSH1 0xA0 DUP8 ADD DUP12 DUP2 MSTORE DUP9 SLOAD DUP1 DUP5 ADD DUP11 SSTORE SWAP9 DUP13 MSTORE DUP11 DUP13 KECCAK256 SWAP8 MLOAD PUSH1 0x6 SWAP1 SWAP10 MUL SWAP1 SWAP8 ADD SWAP8 DUP9 SSTORE SWAP4 MLOAD SWAP1 DUP8 ADD SSTORE SWAP1 MLOAD PUSH1 0x2 DUP7 ADD SSTORE MLOAD PUSH1 0x3 DUP6 ADD SSTORE MLOAD PUSH1 0x4 DUP5 ADD DUP1 SLOAD PUSH1 0xFF NOT AND SWAP2 ISZERO ISZERO SWAP2 SWAP1 SWAP2 OR SWAP1 SSTORE SWAP1 MLOAD PUSH1 0x5 SWAP1 SWAP3 ADD SWAP2 SWAP1 SWAP2 SSTORE SLOAD DUP4 MSTORE PUSH1 0x1E DUP3 MSTORE DUP1 DUP4 KECCAK256 DUP1 SLOAD PUSH1 0x1 PUSH1 0x1 PUSH1 0xA0 SHL SUB NOT AND DUP6 OR SWAP1 SSTORE SWAP3 DUP3 MSTORE PUSH1 0xF SWAP1 MSTORE SWAP1 DUP2 KECCAK256 PUSH1 0xA ADD SLOAD SWAP1 DUP2 SWAP1 SUB PUSH2 0x24B3 JUMPI POP PUSH1 0x1 DUP2 ADD SLOAD CALLER PUSH1 0x0 SWAP1 DUP2 MSTORE PUSH1 0xF PUSH1 0x20 MSTORE PUSH1 0x40 SWAP1 KECCAK256 PUSH1 0xA ADD DUP2 SWAP1 SSTORE JUMPDEST PUSH1 0x0 PUSH1 0x64 PUSH2 0x24C2 DUP4 PUSH1 0x96 PUSH2 0x647D JUMP JUMPDEST PUSH2 0x24CC SWAP2 SWAP1 PUSH2 0x64A7 JUMP JUMPDEST SWAP1 POP DUP1 DUP6 EQ PUSH2 0x24EE JUMPI PUSH1 0x40 MLOAD PUSH4 0x162908E3 PUSH1 0xE1 SHL DUP2 MSTORE PUSH1 0x4 ADD PUSH1 0x40 MLOAD DUP1 SWAP2 SUB SWAP1 REVERT JUMPDEST PUSH2 0x24F7 CALLER PUSH2 0x48E1 JUMP JUMPDEST CALLER PUSH1 0x1 PUSH1 0x1 PUSH1 0xA0 SHL SUB AND PUSH32 0xA8A1B9E33E503EED12BF7E7C8C01C7F3B60217A496BDDD0F5DB351DD8C056C1C DUP7 DUP7 PUSH1 0x1A SLOAD PUSH1 0x40 MLOAD PUSH2 0x2536 SWAP4 SWAP3 SWAP2 SWAP1 PUSH2 0x5FDF JUMP JUMPDEST PUSH1 0x40 MLOAD DUP1 SWAP2 SUB SWAP1 LOG2 CALLER PUSH1 0x0 SWAP1 DUP2 MSTORE PUSH1 0xF PUSH1 0x20 MSTORE PUSH1 0x40 SWAP1 KECCAK256 PUSH1 0x6 ADD SLOAD DUP1 ISZERO PUSH2 0x26B3 JUMPI CALLER PUSH1 0x0 SWAP1 DUP2 MSTORE PUSH1 0xF PUSH1 0x20 MSTORE PUSH1 0x40 DUP2 KECCAK256 PUSH1 0x6 ADD SSTORE PUSH1 0x17 SLOAD DUP2 GT DUP1 ISZERO SWAP1 PUSH2 0x25EB JUMPI POP PUSH1 0x0 SLOAD PUSH1 0x40 MLOAD PUSH4 0x70A08231 PUSH1 0xE0 SHL DUP2 MSTORE DUP3 SWAP2 PUSH1 0x1 PUSH1 0x1 PUSH1 0xA0 SHL SUB AND SWAP1 PUSH4 0x70A08231 SWAP1 PUSH2 0x25A7 SWAP1 ADDRESS SWAP1 PUSH1 0x4 ADD PUSH2 0x5FB2 JUMP JUMPDEST PUSH1 0x20 PUSH1 0x40 MLOAD DUP1 DUP4 SUB DUP2 DUP7 GAS STATICCALL ISZERO DUP1 ISZERO PUSH2 0x25C4 JUMPI RETURNDATASIZE PUSH1 0x0 DUP1 RETURNDATACOPY RETURNDATASIZE PUSH1 0x0 REVERT JUMPDEST POP POP POP POP PUSH1 0x40 MLOAD RETURNDATASIZE PUSH1 0x1F NOT PUSH1 0x1F DUP3 ADD AND DUP3 ADD DUP1 PUSH1 0x40 MSTORE POP DUP2 ADD SWAP1 PUSH2 0x25E8 SWAP2 SWAP1 PUSH2 0x64DC JUMP JUMPDEST LT ISZERO JUMPDEST ISZERO PUSH2 0x26B3 JUMPI DUP1 PUSH1 0x17 PUSH1 0x0 DUP3 DUP3 SLOAD PUSH2 0x2602 SWAP2 SWAP1 PUSH2 0x64C9 JUMP JUMPDEST SWAP1 SWAP2 SSTORE POP POP PUSH1 0x0 SLOAD PUSH1 0x40 MLOAD PUSH4 0xA9059CBB PUSH1 0xE0 SHL DUP2 MSTORE PUSH1 0x1 PUSH1 0x1 PUSH1 0xA0 SHL SUB SWAP1 SWAP2 AND SWAP1 PUSH4 0xA9059CBB SWAP1 PUSH2 0x2639 SWAP1 CALLER SWAP1 DUP6 SWAP1 PUSH1 0x4 ADD PUSH2 0x61B2 JUMP JUMPDEST PUSH1 0x20 PUSH1 0x40 MLOAD DUP1 DUP4 SUB DUP2 PUSH1 0x0 DUP8 GAS CALL ISZERO DUP1 ISZERO PUSH2 0x2658 JUMPI RETURNDATASIZE PUSH1 0x0 DUP1 RETURNDATACOPY RETURNDATASIZE PUSH1 0x0 REVERT JUMPDEST POP POP POP POP PUSH1 0x40 MLOAD RETURNDATASIZE PUSH1 0x1F NOT PUSH1 0x1F DUP3 ADD AND DUP3 ADD DUP1 PUSH1 0x40 MSTORE POP DUP2 ADD SWAP1 PUSH2 0x267C SWAP2 SWAP1 PUSH2 0x644A JUMP JUMPDEST POP PUSH1 0x40 MLOAD DUP2 DUP2 MSTORE CALLER SWAP1 PUSH32 0x3437B9EA7FA19C6D233DD70CC787A70FAB87CEE64D8BA4571512CC84402748F9 SWAP1 PUSH1 0x20 ADD PUSH1 0x40 MLOAD DUP1 SWAP2 SUB SWAP1 LOG2 JUMPDEST POP POP POP POP PUSH2 0x26BF PUSH2 0x4704 JUMP JUMPDEST POP POP JUMP JUMPDEST PUSH2 0x26CB PUSH2 0x4F39 JUMP JUMPDEST PUSH2 0x26D4 DUP3 PUSH2 0x4FDE JUMP JUMPDEST PUSH2 0x26BF DUP3 DUP3 PUSH2 0x4FE6 JUMP JUMPDEST PUSH2 0x26E6 PUSH2 0x469C JUMP JUMPDEST PUSH1 0x4F DUP1 SLOAD PUSH1 0xFF NOT AND PUSH1 0x1 OR SWAP1 SSTORE PUSH1 0x40 MLOAD PUSH32 0x4CB3183D0BF66F9634B15CFC3539FDDDC96C2C9324848AF89B56586A6739FEC4 SWAP1 PUSH1 0x0 SWAP1 LOG1 JUMP JUMPDEST PUSH2 0x2726 PUSH2 0x46CE JUMP JUMPDEST PUSH1 0x4F SLOAD PUSH1 0xFF AND ISZERO PUSH2 0x2749 JUMPI PUSH1 0x40 MLOAD PUSH3 0x461BCD PUSH1 0xE5 SHL DUP2 MSTORE PUSH1 0x4 ADD PUSH2 0xFAF SWAP1 PUSH2 0x63FA JUMP JUMPDEST DUP1 PUSH1 0x0 SUB PUSH2 0x276A JUMPI PUSH1 0x40 MLOAD PUSH4 0x162908E3 PUSH1 0xE1 SHL DUP2 MSTORE PUSH1 0x4 ADD PUSH1 0x40 MLOAD DUP1 SWAP2 SUB SWAP1 REVERT JUMPDEST PUSH9 0x3635C9ADC5DEA00000 PUSH1 0x17 SLOAD LT DUP1 PUSH2 0x278D JUMPI POP PUSH9 0x3635C9ADC5DEA00000 PUSH1 0x18 SLOAD LT JUMPDEST ISZERO PUSH2 0x27AB JUMPI PUSH1 0x40 MLOAD PUSH4 0x43C7AD81 PUSH1 0xE1 SHL DUP2 MSTORE PUSH1 0x4 ADD PUSH1 0x40 MLOAD DUP1 SWAP2 SUB SWAP1 REVERT JUMPDEST PUSH1 0x1 SLOAD PUSH1 0x40 MLOAD PUSH4 0x23B872DD PUSH1 0xE0 SHL DUP2 MSTORE PUSH1 0x1 PUSH1 0x1 PUSH1 0xA0 SHL SUB SWAP1 SWAP2 AND SWAP1 PUSH4 0x23B872DD SWAP1 PUSH2 0x27DF SWAP1 CALLER SWAP1 ADDRESS SWAP1 DUP7 SWAP1 PUSH1 0x4 ADD PUSH2 0x6426 JUMP JUMPDEST PUSH1 0x20 PUSH1 0x40 MLOAD DUP1 DUP4 SUB DUP2 PUSH1 0x0 DUP8 GAS CALL ISZERO DUP1 ISZERO PUSH2 0x27FE JUMPI RETURNDATASIZE PUSH1 0x0 DUP1 RETURNDATACOPY RETURNDATASIZE PUSH1 0x0 REVERT JUMPDEST POP POP POP POP PUSH1 0x40 MLOAD RETURNDATASIZE PUSH1 0x1F NOT PUSH1 0x1F DUP3 ADD AND DUP3 ADD DUP1 PUSH1 0x40 MSTORE POP DUP2 ADD SWAP1 PUSH2 0x2822 SWAP2 SWAP1 PUSH2 0x644A JUMP JUMPDEST POP PUSH1 0x0 PUSH1 0x64 PUSH1 0xE SLOAD DUP4 PUSH2 0x2835 SWAP2 SWAP1 PUSH2 0x647D JUMP JUMPDEST PUSH2 0x283F SWAP2 SWAP1 PUSH2 0x64A7 JUMP JUMPDEST SWAP1 POP PUSH1 0x0 PUSH2 0x284D DUP3 DUP5 PUSH2 0x64C9 JUMP JUMPDEST SWAP1 POP PUSH1 0x0 PUSH1 0x18 SLOAD DUP3 PUSH2 0x2710 PUSH2 0x2862 SWAP2 SWAP1 PUSH2 0x647D JUMP JUMPDEST PUSH2 0x286C SWAP2 SWAP1 PUSH2 0x64A7 JUMP JUMPDEST SWAP1 POP PUSH2 0x3E8 DUP2 GT ISZERO PUSH2 0x2891 JUMPI PUSH1 0x40 MLOAD PUSH4 0x162908E3 PUSH1 0xE1 SHL DUP2 MSTORE PUSH1 0x4 ADD PUSH1 0x40 MLOAD DUP1 SWAP2 SUB SWAP1 REVERT JUMPDEST PUSH1 0x1 SLOAD PUSH1 0x40 MLOAD PUSH4 0x852CD8D PUSH1 0xE3 SHL DUP2 MSTORE PUSH1 0x4 DUP2 ADD DUP6 SWAP1 MSTORE PUSH1 0x1 PUSH1 0x1 PUSH1 0xA0 SHL SUB SWAP1 SWAP2 AND SWAP1 PUSH4 0x42966C68 SWAP1 PUSH1 0x24 ADD PUSH1 0x0 PUSH1 0x40 MLOAD DUP1 DUP4 SUB DUP2 PUSH1 0x0 DUP8 DUP1 EXTCODESIZE ISZERO DUP1 ISZERO PUSH2 0x28D7 JUMPI PUSH1 0x0 DUP1 REVERT JUMPDEST POP GAS CALL ISZERO DUP1 ISZERO PUSH2 0x28EB JUMPI RETURNDATASIZE PUSH1 0x0 DUP1 RETURNDATACOPY RETURNDATASIZE PUSH1 0x0 REVERT JUMPDEST POP POP POP POP PUSH1 0x0 PUSH1 0x17 SLOAD DUP4 PUSH2 0x28FF SWAP2 SWAP1 PUSH2 0x647D JUMP JUMPDEST SWAP1 POP PUSH1 0x0 DUP4 PUSH1 0x18 SLOAD PUSH2 0x2911 SWAP2 SWAP1 PUSH2 0x6494 JUMP JUMPDEST SWAP1 POP PUSH1 0x0 PUSH2 0x291F DUP3 DUP5 PUSH2 0x64A7 JUMP JUMPDEST PUSH1 0x0 SLOAD PUSH1 0x40 MLOAD PUSH4 0x70A08231 PUSH1 0xE0 SHL DUP2 MSTORE SWAP2 SWAP3 POP DUP3 SWAP2 PUSH1 0x1 PUSH1 0x1 PUSH1 0xA0 SHL SUB SWAP1 SWAP2 AND SWAP1 PUSH4 0x70A08231 SWAP1 PUSH2 0x2954 SWAP1 ADDRESS SWAP1 PUSH1 0x4 ADD PUSH2 0x5FB2 JUMP JUMPDEST PUSH1 0x20 PUSH1 0x40 MLOAD DUP1 DUP4 SUB DUP2 DUP7 GAS STATICCALL ISZERO DUP1 ISZERO PUSH2 0x2971 JUMPI RETURNDATASIZE PUSH1 0x0 DUP1 RETURNDATACOPY RETURNDATASIZE PUSH1 0x0 REVERT JUMPDEST POP POP POP POP PUSH1 0x40 MLOAD RETURNDATASIZE PUSH1 0x1F NOT PUSH1 0x1F DUP3 ADD AND DUP3 ADD DUP1 PUSH1 0x40 MSTORE POP DUP2 ADD SWAP1 PUSH2 0x2995 SWAP2 SWAP1 PUSH2 0x64DC JUMP JUMPDEST LT ISZERO PUSH2 0x29B4 JUMPI PUSH1 0x40 MLOAD PUSH4 0x43C7AD81 PUSH1 0xE1 SHL DUP2 MSTORE PUSH1 0x4 ADD PUSH1 0x40 MLOAD DUP1 SWAP2 SUB SWAP1 REVERT JUMPDEST DUP5 PUSH1 0x18 PUSH1 0x0 DUP3 DUP3 SLOAD PUSH2 0x29C6 SWAP2 SWAP1 PUSH2 0x6494 JUMP JUMPDEST SWAP3 POP POP DUP2 SWAP1 SSTORE POP DUP1 PUSH1 0x17 PUSH1 0x0 DUP3 DUP3 SLOAD PUSH2 0x29DF SWAP2 SWAP1 PUSH2 0x64C9 JUMP JUMPDEST SWAP1 SWAP2 SSTORE POP POP PUSH1 0x0 SLOAD PUSH1 0x40 MLOAD PUSH4 0xA9059CBB PUSH1 0xE0 SHL DUP2 MSTORE PUSH1 0x1 PUSH1 0x1 PUSH1 0xA0 SHL SUB SWAP1 SWAP2 AND SWAP1 PUSH4 0xA9059CBB SWAP1 PUSH2 0x2A16 SWAP1 CALLER SWAP1 DUP6 SWAP1 PUSH1 0x4 ADD PUSH2 0x61B2 JUMP JUMPDEST PUSH1 0x20 PUSH1 0x40 MLOAD DUP1 DUP4 SUB DUP2 PUSH1 0x0 DUP8 GAS CALL ISZERO DUP1 ISZERO PUSH2 0x2A35 JUMPI RETURNDATASIZE PUSH1 0x0 DUP1 RETURNDATACOPY RETURNDATASIZE PUSH1 0x0 REVERT JUMPDEST POP POP POP POP PUSH1 0x40 MLOAD RETURNDATASIZE PUSH1 0x1F NOT PUSH1 0x1F DUP3 ADD AND DUP3 ADD DUP1 PUSH1 0x40 MSTORE POP DUP2 ADD SWAP1 PUSH2 0x2A59 SWAP2 SWAP1 PUSH2 0x644A JUMP JUMPDEST POP CALLER PUSH1 0x1 PUSH1 0x1 PUSH1 0xA0 SHL SUB AND PUSH32 0x223C8AD0806F634524940A8595F819C5CFC7B1F4F4F45791269301DF0A7E61D5 DUP9 DUP4 DUP10 PUSH1 0x40 MLOAD PUSH2 0x1306 SWAP4 SWAP3 SWAP2 SWAP1 PUSH2 0x5FDF JUMP JUMPDEST PUSH1 0x0 PUSH2 0x2AA1 PUSH2 0x509A JUMP JUMPDEST POP PUSH1 0x0 DUP1 MLOAD PUSH1 0x20 PUSH2 0x6622 DUP4 CODECOPY DUP2 MLOAD SWAP2 MSTORE SWAP1 JUMP JUMPDEST PUSH2 0x2ABC PUSH2 0x469C JUMP JUMPDEST PUSH1 0x4F DUP1 SLOAD PUSH1 0x1 PUSH1 0x1 PUSH1 0xA0 SHL SUB SWAP1 SWAP3 AND PUSH2 0x100 MUL PUSH2 0x100 PUSH1 0x1 PUSH1 0xA8 SHL SUB NOT SWAP1 SWAP3 AND SWAP2 SWAP1 SWAP2 OR SWAP1 SSTORE JUMP JUMPDEST PUSH2 0x2AEC PUSH2 0x46CE JUMP JUMPDEST PUSH1 0x4F SLOAD PUSH1 0xFF AND ISZERO PUSH2 0x2B0F JUMPI PUSH1 0x40 MLOAD PUSH3 0x461BCD PUSH1 0xE5 SHL DUP2 MSTORE PUSH1 0x4 ADD PUSH2 0xFAF SWAP1 PUSH2 0x63FA JUMP JUMPDEST CALLER PUSH1 0x0 DUP2 DUP2 MSTORE PUSH1 0xF PUSH1 0x20 MSTORE PUSH1 0x40 SWAP1 KECCAK256 PUSH1 0x9 ADD SLOAD ISZERO SWAP1 PUSH2 0x2B2D SWAP1 PUSH2 0x50E3 JUMP JUMPDEST DUP2 PUSH9 0x56BC75E2D63100000 EQ ISZERO DUP1 ISZERO PUSH2 0x2B4F JUMPI POP DUP2 PUSH9 0x1043561A8829300000 EQ ISZERO JUMPDEST DUP1 ISZERO PUSH2 0x2B64 JUMPI POP DUP2 PUSH9 0x1B1AE4D6E2EF500000 EQ ISZERO JUMPDEST DUP1 ISZERO PUSH2 0x2B79 JUMPI POP DUP2 PUSH9 0x3635C9ADC5DEA00000 EQ ISZERO JUMPDEST ISZERO PUSH2 0x2B97 JUMPI PUSH1 0x40 MLOAD PUSH4 0x162908E3 PUSH1 0xE1 SHL DUP2 MSTORE PUSH1 0x4 ADD PUSH1 0x40 MLOAD DUP1 SWAP2 SUB SWAP1 REVERT JUMPDEST PUSH1 0x0 SLOAD PUSH1 0x40 MLOAD PUSH4 0x23B872DD PUSH1 0xE0 SHL DUP2 MSTORE PUSH1 0x1 PUSH1 0x1 PUSH1 0xA0 SHL SUB SWAP1 SWAP2 AND SWAP1 PUSH4 0x23B872DD SWAP1 PUSH2 0x2BCB SWAP1 CALLER SWAP1 ADDRESS SWAP1 DUP8 SWAP1 PUSH1 0x4 ADD PUSH2 0x6426 JUMP JUMPDEST PUSH1 0x20 PUSH1 0x40 MLOAD DUP1 DUP4 SUB DUP2 PUSH1 0x0 DUP8 GAS CALL ISZERO DUP1 ISZERO PUSH2 0x2BEA JUMPI RETURNDATASIZE PUSH1 0x0 DUP1 RETURNDATACOPY RETURNDATASIZE PUSH1 0x0 REVERT JUMPDEST POP POP POP POP PUSH1 0x40 MLOAD RETURNDATASIZE PUSH1 0x1F NOT PUSH1 0x1F DUP3 ADD AND DUP3 ADD DUP1 PUSH1 0x40 MSTORE POP DUP2 ADD SWAP1 PUSH2 0x2C0E SWAP2 SWAP1 PUSH2 0x644A JUMP JUMPDEST POP CALLER PUSH1 0x0 SWAP1 DUP2 MSTORE PUSH1 0x10 PUSH1 0x20 MSTORE PUSH1 0x40 SWAP1 KECCAK256 PUSH1 0x3 DUP2 ADD SLOAD PUSH1 0xFF AND ISZERO PUSH2 0x2C94 JUMPI PUSH1 0x19 DUP1 SLOAD SWAP1 PUSH1 0x0 PUSH2 0x2C3B DUP4 PUSH2 0x655C JUMP JUMPDEST SWAP1 SWAP2 SSTORE POP POP PUSH1 0x19 SLOAD DUP2 SSTORE PUSH1 0x1 DUP2 ADD DUP4 SWAP1 SSTORE TIMESTAMP PUSH1 0x2 DUP3 ADD SSTORE PUSH1 0x3 DUP1 DUP3 ADD DUP1 SLOAD PUSH1 0xFF NOT AND SWAP1 SSTORE CALLER PUSH1 0x0 SWAP1 DUP2 MSTORE PUSH1 0xF PUSH1 0x20 MSTORE PUSH1 0x40 DUP2 KECCAK256 DUP3 ADD SSTORE PUSH2 0x2C7C SWAP1 DUP5 SWAP1 PUSH2 0x647D JUMP JUMPDEST CALLER PUSH1 0x0 SWAP1 DUP2 MSTORE PUSH1 0xF PUSH1 0x20 MSTORE PUSH1 0x40 SWAP1 KECCAK256 PUSH1 0x4 ADD SSTORE PUSH2 0x2D1E JUMP JUMPDEST DUP1 PUSH1 0x1 ADD SLOAD PUSH1 0x0 SUB PUSH2 0x2CB0 JUMPI PUSH1 0x19 DUP1 SLOAD SWAP1 PUSH1 0x0 PUSH2 0x2C3B DUP4 PUSH2 0x655C JUMP JUMPDEST DUP3 DUP2 PUSH1 0x1 ADD PUSH1 0x0 DUP3 DUP3 SLOAD PUSH2 0x2CC4 SWAP2 SWAP1 PUSH2 0x6494 JUMP JUMPDEST SWAP1 SWAP2 SSTORE POP POP CALLER PUSH1 0x0 SWAP1 DUP2 MSTORE PUSH1 0xF PUSH1 0x20 MSTORE PUSH1 0x40 SWAP1 KECCAK256 PUSH1 0x5 ADD SLOAD PUSH1 0xFF AND ISZERO PUSH2 0x2CEB JUMPI TIMESTAMP PUSH1 0x2 DUP3 ADD SSTORE JUMPDEST PUSH2 0x2CF6 DUP4 PUSH1 0x3 PUSH2 0x647D JUMP JUMPDEST CALLER PUSH1 0x0 SWAP1 DUP2 MSTORE PUSH1 0xF PUSH1 0x20 MSTORE PUSH1 0x40 DUP2 KECCAK256 PUSH1 0x4 ADD DUP1 SLOAD SWAP1 SWAP2 SWAP1 PUSH2 0x2D18 SWAP1 DUP5 SWAP1 PUSH2 0x6494 JUMP JUMPDEST SWAP1 SWAP2 SSTORE POP POP JUMPDEST CALLER PUSH1 0x0 SWAP1 DUP2 MSTORE PUSH1 0xF PUSH1 0x20 MSTORE PUSH1 0x40 SWAP1 KECCAK256 PUSH1 0x9 ADD SLOAD PUSH1 0x1 DUP3 ADD SLOAD GT ISZERO PUSH2 0x2D55 JUMPI PUSH1 0x1 DUP2 ADD SLOAD CALLER PUSH1 0x0 SWAP1 DUP2 MSTORE PUSH1 0xF PUSH1 0x20 MSTORE PUSH1 0x40 SWAP1 KECCAK256 PUSH1 0x9 ADD SSTORE JUMPDEST CALLER PUSH1 0x0 SWAP1 DUP2 MSTORE PUSH1 0xF PUSH1 0x20 MSTORE PUSH1 0x40 SWAP1 KECCAK256 PUSH1 0xA ADD SLOAD DUP4 GT ISZERO PUSH2 0x2D85 JUMPI CALLER PUSH1 0x0 SWAP1 DUP2 MSTORE PUSH1 0xF PUSH1 0x20 MSTORE PUSH1 0x40 SWAP1 KECCAK256 PUSH1 0xA ADD DUP4 SWAP1 SSTORE JUMPDEST DUP1 SLOAD PUSH1 0x0 SWAP1 DUP2 MSTORE PUSH1 0x1C PUSH1 0x20 SWAP1 DUP2 MSTORE PUSH1 0x40 DUP1 DUP4 KECCAK256 DUP1 SLOAD PUSH1 0x1 PUSH1 0x1 PUSH1 0xA0 SHL SUB NOT AND CALLER SWAP1 DUP2 OR SWAP1 SWAP2 SSTORE DUP4 MSTORE PUSH1 0xF SWAP1 SWAP2 MSTORE SWAP1 KECCAK256 SLOAD PUSH1 0x1 PUSH1 0x1 PUSH1 0xA0 SHL SUB AND DUP1 ISZERO DUP1 ISZERO SWAP1 PUSH2 0x2DE8 JUMPI POP PUSH1 0x1 PUSH1 0x1 PUSH1 0xA0 SHL SUB DUP2 AND PUSH1 0x0 SWAP1 DUP2 MSTORE PUSH1 0xF PUSH1 0x20 MSTORE PUSH1 0x40 SWAP1 KECCAK256 PUSH1 0x5 ADD SLOAD PUSH1 0xFF AND JUMPDEST ISZERO PUSH2 0x2E61 JUMPI PUSH1 0x0 PUSH1 0x64 PUSH1 0x6 SLOAD DUP7 PUSH2 0x2DFF SWAP2 SWAP1 PUSH2 0x647D JUMP JUMPDEST PUSH2 0x2E09 SWAP2 SWAP1 PUSH2 0x64A7 JUMP JUMPDEST SWAP1 POP PUSH1 0x0 PUSH2 0x2E19 DUP4 DUP4 PUSH1 0x2 PUSH2 0x52BA JUMP JUMPDEST SWAP1 POP DUP1 ISZERO PUSH2 0x2E5A JUMPI DUP4 SLOAD PUSH1 0x40 MLOAD CALLER SWAP2 PUSH1 0x1 PUSH1 0x1 PUSH1 0xA0 SHL SUB DUP7 AND SWAP2 PUSH1 0x0 DUP1 MLOAD PUSH1 0x20 PUSH2 0x65C2 DUP4 CODECOPY DUP2 MLOAD SWAP2 MSTORE SWAP2 PUSH2 0x2E51 SWAP2 DUP7 SWAP2 PUSH1 0x2 SWAP2 PUSH2 0x6575 JUMP JUMPDEST PUSH1 0x40 MLOAD DUP1 SWAP2 SUB SWAP1 LOG3 JUMPDEST POP POP PUSH2 0x2EF7 JUMP JUMPDEST PUSH1 0x0 SLOAD PUSH1 0x2 SLOAD PUSH1 0x6 SLOAD PUSH1 0x1 PUSH1 0x1 PUSH1 0xA0 SHL SUB SWAP3 DUP4 AND SWAP3 PUSH4 0xA9059CBB SWAP3 AND SWAP1 PUSH1 0x64 SWAP1 PUSH2 0x2E8B SWAP1 DUP10 PUSH2 0x647D JUMP JUMPDEST PUSH2 0x2E95 SWAP2 SWAP1 PUSH2 0x64A7 JUMP JUMPDEST PUSH1 0x40 MLOAD DUP4 PUSH4 0xFFFFFFFF AND PUSH1 0xE0 SHL DUP2 MSTORE PUSH1 0x4 ADD PUSH2 0x2EB2 SWAP3 SWAP2 SWAP1 PUSH2 0x61B2 JUMP JUMPDEST PUSH1 0x20 PUSH1 0x40 MLOAD DUP1 DUP4 SUB DUP2 PUSH1 0x0 DUP8 GAS CALL ISZERO DUP1 ISZERO PUSH2 0x2ED1 JUMPI RETURNDATASIZE PUSH1 0x0 DUP1 RETURNDATACOPY RETURNDATASIZE PUSH1 0x0 REVERT JUMPDEST POP POP POP POP PUSH1 0x40 MLOAD RETURNDATASIZE PUSH1 0x1F NOT PUSH1 0x1F DUP3 ADD AND DUP3 ADD DUP1 PUSH1 0x40 MSTORE POP DUP2 ADD SWAP1 PUSH2 0x2EF5 SWAP2 SWAP1 PUSH2 0x644A JUMP JUMPDEST POP JUMPDEST PUSH2 0x2F01 CALLER DUP6 PUSH2 0x5507 JUMP JUMPDEST PUSH1 0x0 SLOAD PUSH1 0x2 SLOAD PUSH1 0x8 SLOAD PUSH1 0x1 PUSH1 0x1 PUSH1 0xA0 SHL SUB SWAP3 DUP4 AND SWAP3 PUSH4 0xA9059CBB SWAP3 AND SWAP1 PUSH1 0x64 SWAP1 PUSH2 0x2F2B SWAP1 DUP10 PUSH2 0x647D JUMP JUMPDEST PUSH2 0x2F35 SWAP2 SWAP1 PUSH2 0x64A7 JUMP JUMPDEST PUSH1 0x40 MLOAD DUP4 PUSH4 0xFFFFFFFF AND PUSH1 0xE0 SHL DUP2 MSTORE PUSH1 0x4 ADD PUSH2 0x2F52 SWAP3 SWAP2 SWAP1 PUSH2 0x61B2 JUMP JUMPDEST PUSH1 0x20 PUSH1 0x40 MLOAD DUP1 DUP4 SUB DUP2 PUSH1 0x0 DUP8 GAS CALL ISZERO DUP1 ISZERO PUSH2 0x2F71 JUMPI RETURNDATASIZE PUSH1 0x0 DUP1 RETURNDATACOPY RETURNDATASIZE PUSH1 0x0 REVERT JUMPDEST POP POP POP POP PUSH1 0x40 MLOAD RETURNDATASIZE PUSH1 0x1F NOT PUSH1 0x1F DUP3 ADD AND DUP3 ADD DUP1 PUSH1 0x40 MSTORE POP DUP2 ADD SWAP1 PUSH2 0x2F95 SWAP2 SWAP1 PUSH2 0x644A JUMP JUMPDEST POP PUSH1 0x0 PUSH1 0x64 PUSH1 0x9 SLOAD DUP7 PUSH2 0x2FA8 SWAP2 SWAP1 PUSH2 0x647D JUMP JUMPDEST PUSH2 0x2FB2 SWAP2 SWAP1 PUSH2 0x64A7 JUMP JUMPDEST SWAP1 POP PUSH2 0x2FBD DUP2 PUSH2 0x572D JUMP JUMPDEST PUSH1 0x0 SLOAD PUSH1 0x4 SLOAD PUSH1 0xA SLOAD PUSH1 0x1 PUSH1 0x1 PUSH1 0xA0 SHL SUB SWAP3 DUP4 AND SWAP3 PUSH4 0xA9059CBB SWAP3 AND SWAP1 PUSH1 0x64 SWAP1 PUSH2 0x2FE7 SWAP1 DUP11 PUSH2 0x647D JUMP JUMPDEST PUSH2 0x2FF1 SWAP2 SWAP1 PUSH2 0x64A7 JUMP JUMPDEST PUSH1 0x40 MLOAD DUP4 PUSH4 0xFFFFFFFF AND PUSH1 0xE0 SHL DUP2 MSTORE PUSH1 0x4 ADD PUSH2 0x300E SWAP3 SWAP2 SWAP1 PUSH2 0x61B2 JUMP JUMPDEST PUSH1 0x20 PUSH1 0x40 MLOAD DUP1 DUP4 SUB DUP2 PUSH1 0x0 DUP8 GAS CALL ISZERO DUP1 ISZERO PUSH2 0x302D JUMPI RETURNDATASIZE PUSH1 0x0 DUP1 RETURNDATACOPY RETURNDATASIZE PUSH1 0x0 REVERT JUMPDEST POP POP POP POP PUSH1 0x40 MLOAD RETURNDATASIZE PUSH1 0x1F NOT PUSH1 0x1F DUP3 ADD AND DUP3 ADD DUP1 PUSH1 0x40 MSTORE POP DUP2 ADD SWAP1 PUSH2 0x3051 SWAP2 SWAP1 PUSH2 0x644A JUMP JUMPDEST POP PUSH1 0x0 SLOAD PUSH1 0x3 SLOAD PUSH1 0xB SLOAD PUSH1 0x1 PUSH1 0x1 PUSH1 0xA0 SHL SUB SWAP3 DUP4 AND SWAP3 PUSH4 0xA9059CBB SWAP3 AND SWAP1 PUSH1 0x64 SWAP1 PUSH2 0x307C SWAP1 DUP11 PUSH2 0x647D JUMP JUMPDEST PUSH2 0x3086 SWAP2 SWAP1 PUSH2 0x64A7 JUMP JUMPDEST PUSH1 0x40 MLOAD DUP4 PUSH4 0xFFFFFFFF AND PUSH1 0xE0 SHL DUP2 MSTORE PUSH1 0x4 ADD PUSH2 0x30A3 SWAP3 SWAP2 SWAP1 PUSH2 0x61B2 JUMP JUMPDEST PUSH1 0x20 PUSH1 0x40 MLOAD DUP1 DUP4 SUB DUP2 PUSH1 0x0 DUP8 GAS CALL ISZERO DUP1 ISZERO PUSH2 0x30C2 JUMPI RETURNDATASIZE PUSH1 0x0 DUP1 RETURNDATACOPY RETURNDATASIZE PUSH1 0x0 REVERT JUMPDEST POP POP POP POP PUSH1 0x40 MLOAD RETURNDATASIZE PUSH1 0x1F NOT PUSH1 0x1F DUP3 ADD AND DUP3 ADD DUP1 PUSH1 0x40 MSTORE POP DUP2 ADD SWAP1 PUSH2 0x30E6 SWAP2 SWAP1 PUSH2 0x644A JUMP JUMPDEST POP PUSH2 0x30F1 CALLER DUP7 PUSH2 0x59A3 JUMP JUMPDEST DUP4 ISZERO PUSH2 0x3100 JUMPI PUSH2 0x3100 CALLER PUSH2 0x5A45 JUMP JUMPDEST PUSH2 0x3109 CALLER PUSH2 0x48E1 JUMP JUMPDEST DUP3 SLOAD PUSH1 0x40 MLOAD CALLER SWAP2 PUSH32 0x2A91574E12AD96234E84923E146B0946ECFB871CD8D5534DC1FDCBE87A7C01B3 SWAP2 PUSH2 0x313D SWAP2 DUP10 SWAP2 PUSH2 0x5FF5 JUMP JUMPDEST PUSH1 0x40 MLOAD DUP1 SWAP2 SUB SWAP1 LOG2 POP POP POP POP PUSH2 0x131C PUSH2 0x4704 JUMP JUMPDEST PUSH2 0x3159 PUSH2 0x469C JUMP JUMPDEST PUSH2 0x2124 PUSH1 0x0 PUSH2 0x5B29 JUMP JUMPDEST PUSH2 0x316B PUSH2 0x469C JUMP JUMPDEST DUP3 DUP2 EQ PUSH2 0x318B JUMPI PUSH1 0x40 MLOAD PUSH4 0x980A3F31 PUSH1 0xE0 SHL DUP2 MSTORE PUSH1 0x4 ADD PUSH1 0x40 MLOAD DUP1 SWAP2 SUB SWAP1 REVERT JUMPDEST DUP3 PUSH1 0x0 JUMPDEST DUP2 DUP2 LT ISZERO PUSH2 0x3270 JUMPI DUP4 DUP4 DUP3 DUP2 DUP2 LT PUSH2 0x31A9 JUMPI PUSH2 0x31A9 PUSH2 0x6517 JUMP JUMPDEST SWAP1 POP PUSH1 0x20 MUL ADD CALLDATALOAD PUSH1 0xF PUSH1 0x0 DUP9 DUP9 DUP6 DUP2 DUP2 LT PUSH2 0x31C6 JUMPI PUSH2 0x31C6 PUSH2 0x6517 JUMP JUMPDEST SWAP1 POP PUSH1 0x20 MUL ADD PUSH1 0x20 DUP2 ADD SWAP1 PUSH2 0x31DB SWAP2 SWAP1 PUSH2 0x5F6D JUMP JUMPDEST PUSH1 0x1 PUSH1 0x1 PUSH1 0xA0 SHL SUB AND DUP2 MSTORE PUSH1 0x20 DUP2 ADD SWAP2 SWAP1 SWAP2 MSTORE PUSH1 0x40 ADD PUSH1 0x0 KECCAK256 PUSH1 0x2 ADD SSTORE DUP6 DUP6 DUP3 DUP2 DUP2 LT PUSH2 0x320A JUMPI PUSH2 0x320A PUSH2 0x6517 JUMP JUMPDEST SWAP1 POP PUSH1 0x20 MUL ADD PUSH1 0x20 DUP2 ADD SWAP1 PUSH2 0x321F SWAP2 SWAP1 PUSH2 0x5F6D JUMP JUMPDEST PUSH1 0x1 PUSH1 0x1 PUSH1 0xA0 SHL SUB AND PUSH1 0x0 DUP1 MLOAD PUSH1 0x20 PUSH2 0x6602 DUP4 CODECOPY DUP2 MLOAD SWAP2 MSTORE PUSH1 0x0 DUP7 DUP7 DUP6 DUP2 DUP2 LT PUSH2 0x324B JUMPI PUSH2 0x324B PUSH2 0x6517 JUMP JUMPDEST SWAP1 POP PUSH1 0x20 MUL ADD CALLDATALOAD PUSH1 0x40 MLOAD PUSH2 0x3260 SWAP3 SWAP2 SWAP1 PUSH2 0x5FF5 JUMP JUMPDEST PUSH1 0x40 MLOAD DUP1 SWAP2 SUB SWAP1 LOG2 PUSH1 0x1 ADD PUSH2 0x318F JUMP JUMPDEST POP PUSH1 0x40 MLOAD DUP2 DUP2 MSTORE PUSH32 0x9C03D1F6BA485B6CF0A120117D651729467751D3079318D05171B6F389F6BF4B SWAP1 PUSH1 0x20 ADD JUMPDEST PUSH1 0x40 MLOAD DUP1 SWAP2 SUB SWAP1 LOG1 POP POP POP POP POP JUMP JUMPDEST PUSH1 0x13 PUSH1 0x20 MSTORE DUP2 PUSH1 0x0 MSTORE PUSH1 0x40 PUSH1 0x0 KECCAK256 DUP2 DUP2 SLOAD DUP2 LT PUSH2 0x32C8 JUMPI PUSH1 0x0 DUP1 REVERT JUMPDEST PUSH1 0x0 SWAP2 DUP3 MSTORE PUSH1 0x20 SWAP1 SWAP2 KECCAK256 PUSH1 0x2 SWAP1 SWAP2 MUL ADD DUP1 SLOAD PUSH1 0x1 SWAP1 SWAP2 ADD SLOAD PUSH1 0x1 PUSH1 0x1 PUSH1 0xA0 SHL SUB SWAP1 SWAP2 AND SWAP3 POP SWAP1 POP DUP3 JUMP JUMPDEST PUSH2 0x32FA PUSH2 0x469C JUMP JUMPDEST PUSH1 0x1 PUSH1 0x1 PUSH1 0xA0 SHL SUB DUP5 AND ISZERO DUP1 ISZERO SWAP1 PUSH2 0x331A JUMPI POP PUSH1 0x1 PUSH1 0x1 PUSH1 0xA0 SHL SUB DUP4 AND ISZERO ISZERO JUMPDEST DUP1 ISZERO PUSH2 0x332E JUMPI POP PUSH1 0x1 PUSH1 0x1 PUSH1 0xA0 SHL SUB DUP3 AND ISZERO ISZERO JUMPDEST DUP1 ISZERO PUSH2 0x3342 JUMPI POP PUSH1 0x1 PUSH1 0x1 PUSH1 0xA0 SHL SUB DUP2 AND ISZERO ISZERO JUMPDEST PUSH2 0x3380 JUMPI PUSH1 0x40 MLOAD PUSH3 0x461BCD PUSH1 0xE5 SHL DUP2 MSTORE PUSH1 0x20 PUSH1 0x4 DUP3 ADD MSTORE PUSH1 0xF PUSH1 0x24 DUP3 ADD MSTORE PUSH15 0x496E76616C69642061646472657373 PUSH1 0x88 SHL PUSH1 0x44 DUP3 ADD MSTORE PUSH1 0x64 ADD PUSH2 0xFAF JUMP JUMPDEST PUSH1 0x2 DUP1 SLOAD PUSH1 0x1 PUSH1 0x1 PUSH1 0xA0 SHL SUB DUP7 DUP2 AND PUSH1 0x1 PUSH1 0x1 PUSH1 0xA0 SHL SUB NOT SWAP3 DUP4 AND DUP2 OR SWAP1 SWAP4 SSTORE PUSH1 0x3 DUP1 SLOAD DUP8 DUP4 AND SWAP1 DUP5 AND DUP2 OR SWAP1 SWAP2 SSTORE PUSH1 0x4 DUP1 SLOAD DUP8 DUP5 AND SWAP1 DUP6 AND DUP2 OR SWAP1 SWAP2 SSTORE PUSH1 0x5 DUP1 SLOAD SWAP4 DUP8 AND SWAP4 SWAP1 SWAP5 AND DUP4 OR SWAP1 SWAP4 SSTORE PUSH1 0x40 DUP1 MLOAD SWAP5 DUP6 MSTORE PUSH1 0x20 DUP6 ADD SWAP2 SWAP1 SWAP2 MSTORE DUP4 ADD SWAP2 SWAP1 SWAP2 MSTORE PUSH1 0x60 DUP3 ADD MSTORE PUSH32 0x213F1DE8063C19612A553F1480FF341BEA689D36A56A2089F1B9060D599B5D83 SWAP1 PUSH1 0x80 ADD JUMPDEST PUSH1 0x40 MLOAD DUP1 SWAP2 SUB SWAP1 LOG1 POP POP POP POP JUMP JUMPDEST PUSH1 0x0 DUP1 PUSH2 0x3427 PUSH2 0x5B85 JUMP JUMPDEST SLOAD PUSH1 0x1 PUSH1 0x1 PUSH1 0xA0 SHL SUB AND SWAP3 SWAP2 POP POP JUMP JUMPDEST PUSH2 0x343F PUSH2 0x469C JUMP JUMPDEST PUSH1 0xD DUP3 SWAP1 SSTORE PUSH1 0xE DUP2 SWAP1 SSTORE PUSH1 0x40 MLOAD PUSH32 0x4E9DD03193A0C81552FB8E6D32280F0D7E0CE8087241DC3D17EF3D193EE231D7 SWAP1 PUSH2 0xE3B SWAP1 DUP5 SWAP1 DUP5 SWAP1 PUSH2 0x5FF5 JUMP JUMPDEST PUSH2 0x3483 PUSH2 0x469C JUMP JUMPDEST DUP1 PUSH1 0x1F PUSH1 0x0 DUP3 DUP3 SLOAD PUSH2 0x3495 SWAP2 SWAP1 PUSH2 0x64C9 JUMP JUMPDEST SWAP1 SWAP2 SSTORE POP POP PUSH1 0x0 SLOAD PUSH1 0x40 MLOAD PUSH4 0xA9059CBB PUSH1 0xE0 SHL DUP2 MSTORE PUSH1 0x1 PUSH1 0x1 PUSH1 0xA0 SHL SUB SWAP1 SWAP2 AND SWAP1 PUSH4 0xA9059CBB SWAP1 PUSH2 0x34CC SWAP1 DUP6 SWAP1 DUP6 SWAP1 PUSH1 0x4 ADD PUSH2 0x61B2 JUMP JUMPDEST PUSH1 0x20 PUSH1 0x40 MLOAD DUP1 DUP4 SUB DUP2 PUSH1 0x0 DUP8 GAS CALL ISZERO DUP1 ISZERO PUSH2 0x34EB JUMPI RETURNDATASIZE PUSH1 0x0 DUP1 RETURNDATACOPY RETURNDATASIZE PUSH1 0x0 REVERT JUMPDEST POP POP POP POP PUSH1 0x40 MLOAD RETURNDATASIZE PUSH1 0x1F NOT PUSH1 0x1F DUP3 ADD AND DUP3 ADD DUP1 PUSH1 0x40 MSTORE POP DUP2 ADD SWAP1 PUSH2 0x350F SWAP2 SWAP1 PUSH2 0x644A JUMP JUMPDEST POP DUP2 PUSH1 0x1 PUSH1 0x1 PUSH1 0xA0 SHL SUB AND PUSH32 0x27971EE1ACBFBDFB20656657CEB2E0E7B519B9E60FE1A6B1F6D27B159F4A607C DUP3 PUSH1 0x40 MLOAD PUSH2 0x354B SWAP2 DUP2 MSTORE PUSH1 0x20 ADD SWAP1 JUMP JUMPDEST PUSH1 0x40 MLOAD DUP1 SWAP2 SUB SWAP1 LOG2 POP POP JUMP JUMPDEST PUSH2 0x355F PUSH2 0x469C JUMP JUMPDEST DUP2 ISZERO PUSH2 0x35F5 JUMPI PUSH1 0x0 SLOAD PUSH1 0x40 MLOAD PUSH4 0x23B872DD PUSH1 0xE0 SHL DUP2 MSTORE PUSH1 0x1 PUSH1 0x1 PUSH1 0xA0 SHL SUB SWAP1 SWAP2 AND SWAP1 PUSH4 0x23B872DD SWAP1 PUSH2 0x3599 SWAP1 CALLER SWAP1 ADDRESS SWAP1 DUP8 SWAP1 PUSH1 0x4 ADD PUSH2 0x6426 JUMP JUMPDEST PUSH1 0x20 PUSH1 0x40 MLOAD DUP1 DUP4 SUB DUP2 PUSH1 0x0 DUP8 GAS CALL ISZERO DUP1 ISZERO PUSH2 0x35B8 JUMPI RETURNDATASIZE PUSH1 0x0 DUP1 RETURNDATACOPY RETURNDATASIZE PUSH1 0x0 REVERT JUMPDEST POP POP POP POP PUSH1 0x40 MLOAD RETURNDATASIZE PUSH1 0x1F NOT PUSH1 0x1F DUP3 ADD AND DUP3 ADD DUP1 PUSH1 0x40 MSTORE POP DUP2 ADD SWAP1 PUSH2 0x35DC SWAP2 SWAP1 PUSH2 0x644A JUMP JUMPDEST POP DUP2 PUSH1 0x17 PUSH1 0x0 DUP3 DUP3 SLOAD PUSH2 0x35EF SWAP2 SWAP1 PUSH2 0x6494 JUMP JUMPDEST SWAP1 SWAP2 SSTORE POP POP JUMPDEST DUP1 ISZERO PUSH2 0x368B JUMPI PUSH1 0x1 SLOAD PUSH1 0x40 MLOAD PUSH4 0x23B872DD PUSH1 0xE0 SHL DUP2 MSTORE PUSH1 0x1 PUSH1 0x1 PUSH1 0xA0 SHL SUB SWAP1 SWAP2 AND SWAP1 PUSH4 0x23B872DD SWAP1 PUSH2 0x362F SWAP1 CALLER SWAP1 ADDRESS SWAP1 DUP7 SWAP1 PUSH1 0x4 ADD PUSH2 0x6426 JUMP JUMPDEST PUSH1 0x20 PUSH1 0x40 MLOAD DUP1 DUP4 SUB DUP2 PUSH1 0x0 DUP8 GAS CALL ISZERO DUP1 ISZERO PUSH2 0x364E JUMPI RETURNDATASIZE PUSH1 0x0 DUP1 RETURNDATACOPY RETURNDATASIZE PUSH1 0x0 REVERT JUMPDEST POP POP POP POP PUSH1 0x40 MLOAD RETURNDATASIZE PUSH1 0x1F NOT PUSH1 0x1F DUP3 ADD AND DUP3 ADD DUP1 PUSH1 0x40 MSTORE POP DUP2 ADD SWAP1 PUSH2 0x3672 SWAP2 SWAP1 PUSH2 0x644A JUMP JUMPDEST POP DUP1 PUSH1 0x18 PUSH1 0x0 DUP3 DUP3 SLOAD PUSH2 0x3685 SWAP2 SWAP1 PUSH2 0x6494 JUMP JUMPDEST SWAP1 SWAP2 SSTORE POP POP JUMPDEST PUSH32 0x38F8A0C92F4C5B0B6877F878CB4C0C8D348A47B76D716C8E78F425043DF9515B DUP3 DUP3 PUSH1 0x40 MLOAD PUSH2 0xE3B SWAP3 SWAP2 SWAP1 PUSH2 0x5FF5 JUMP JUMPDEST PUSH2 0x36C4 PUSH2 0x469C JUMP JUMPDEST PUSH1 0x15 DUP2 SWAP1 SSTORE PUSH1 0x40 MLOAD DUP2 DUP2 MSTORE PUSH32 0xD28D9E4CE68D89AF7920CB8618E342A78F51E545C530CE60F1CB1D6F0235B47F SWAP1 PUSH1 0x20 ADD JUMPDEST PUSH1 0x40 MLOAD DUP1 SWAP2 SUB SWAP1 LOG1 POP JUMP JUMPDEST PUSH1 0x1D PUSH1 0x20 MSTORE DUP2 PUSH1 0x0 MSTORE PUSH1 0x40 PUSH1 0x0 KECCAK256 DUP2 DUP2 SLOAD DUP2 LT PUSH2 0x32C8 JUMPI PUSH1 0x0 DUP1 REVERT JUMPDEST PUSH1 0x11 PUSH1 0x20 MSTORE DUP2 PUSH1 0x0 MSTORE PUSH1 0x40 PUSH1 0x0 KECCAK256 DUP2 DUP2 SLOAD DUP2 LT PUSH2 0x3738 JUMPI PUSH1 0x0 DUP1 REVERT JUMPDEST PUSH1 0x0 SWAP2 DUP3 MSTORE PUSH1 0x20 SWAP1 SWAP2 KECCAK256 PUSH1 0x6 SWAP1 SWAP2 MUL ADD DUP1 SLOAD PUSH1 0x1 DUP3 ADD SLOAD PUSH1 0x2 DUP4 ADD SLOAD PUSH1 0x3 DUP5 ADD SLOAD PUSH1 0x4 DUP6 ADD SLOAD PUSH1 0x5 SWAP1 SWAP6 ADD SLOAD SWAP4 SWAP7 POP SWAP2 SWAP5 POP SWAP3 SWAP1 SWAP2 PUSH1 0xFF SWAP1 SWAP2 AND SWAP1 DUP7 JUMP JUMPDEST PUSH2 0x377E PUSH2 0x46CE JUMP JUMPDEST PUSH1 0x16 SLOAD PUSH2 0x100 SWAP1 DIV PUSH1 0xFF AND PUSH2 0x37A5 JUMPI PUSH1 0x40 MLOAD PUSH3 0x461BCD PUSH1 0xE5 SHL DUP2 MSTORE PUSH1 0x4 ADD PUSH2 0xFAF SWAP1 PUSH2 0x64F5 JUMP JUMPDEST CALLER PUSH1 0x0 SWAP1 DUP2 MSTORE PUSH1 0x11 PUSH1 0x20 MSTORE PUSH1 0x40 DUP2 KECCAK256 SWAP1 DUP1 DUP1 DUP1 JUMPDEST DUP5 SLOAD DUP2 LT ISZERO PUSH2 0x3B3B JUMPI DUP5 DUP2 DUP2 SLOAD DUP2 LT PUSH2 0x37D4 JUMPI PUSH2 0x37D4 PUSH2 0x6517 JUMP JUMPDEST PUSH1 0x0 SWAP2 DUP3 MSTORE PUSH1 0x20 SWAP1 SWAP2 KECCAK256 PUSH1 0x4 PUSH1 0x6 SWAP1 SWAP3 MUL ADD ADD SLOAD PUSH1 0xFF AND ISZERO PUSH2 0x3B33 JUMPI PUSH1 0x0 PUSH1 0x3C DUP7 DUP4 DUP2 SLOAD DUP2 LT PUSH2 0x3806 JUMPI PUSH2 0x3806 PUSH2 0x6517 JUMP JUMPDEST SWAP1 PUSH1 0x0 MSTORE PUSH1 0x20 PUSH1 0x0 KECCAK256 SWAP1 PUSH1 0x6 MUL ADD PUSH1 0x3 ADD SLOAD PUSH2 0x3822 SWAP2 SWAP1 PUSH2 0x647D JUMP JUMPDEST DUP7 DUP4 DUP2 SLOAD DUP2 LT PUSH2 0x3834 JUMPI PUSH2 0x3834 PUSH2 0x6517 JUMP JUMPDEST SWAP1 PUSH1 0x0 MSTORE PUSH1 0x20 PUSH1 0x0 KECCAK256 SWAP1 PUSH1 0x6 MUL ADD PUSH1 0x2 ADD SLOAD PUSH2 0x3850 SWAP2 SWAP1 PUSH2 0x6494 JUMP JUMPDEST SWAP1 POP DUP1 TIMESTAMP LT PUSH2 0x3B31 JUMPI PUSH1 0x0 DUP7 DUP4 DUP2 SLOAD DUP2 LT PUSH2 0x386D JUMPI PUSH2 0x386D PUSH2 0x6517 JUMP JUMPDEST SWAP1 PUSH1 0x0 MSTORE PUSH1 0x20 PUSH1 0x0 KECCAK256 SWAP1 PUSH1 0x6 MUL ADD PUSH1 0x3 ADD SLOAD PUSH1 0x7 SUB PUSH2 0x3890 JUMPI POP PUSH3 0xCB7356 PUSH2 0x38F7 JUMP JUMPDEST DUP7 DUP4 DUP2 SLOAD DUP2 LT PUSH2 0x38A2 JUMPI PUSH2 0x38A2 PUSH2 0x6517 JUMP JUMPDEST SWAP1 PUSH1 0x0 MSTORE PUSH1 0x20 PUSH1 0x0 KECCAK256 SWAP1 PUSH1 0x6 MUL ADD PUSH1 0x3 ADD SLOAD PUSH1 0xF SUB PUSH2 0x38C5 JUMPI POP PUSH3 0xFE502B PUSH2 0x38F7 JUMP JUMPDEST DUP7 DUP4 DUP2 SLOAD DUP2 LT PUSH2 0x38D7 JUMPI PUSH2 0x38D7 PUSH2 0x6517 JUMP JUMPDEST SWAP1 PUSH1 0x0 MSTORE PUSH1 0x20 PUSH1 0x0 KECCAK256 SWAP1 PUSH1 0x6 MUL ADD PUSH1 0x3 ADD SLOAD PUSH1 0x1E SUB PUSH2 0x38F7 JUMPI POP PUSH4 0x1312D00 JUMPDEST PUSH1 0x0 PUSH4 0x3B9ACA00 DUP9 DUP6 DUP2 SLOAD DUP2 LT PUSH2 0x3910 JUMPI PUSH2 0x3910 PUSH2 0x6517 JUMP JUMPDEST SWAP1 PUSH1 0x0 MSTORE PUSH1 0x20 PUSH1 0x0 KECCAK256 SWAP1 PUSH1 0x6 MUL ADD PUSH1 0x3 ADD SLOAD DUP4 DUP11 DUP8 DUP2 SLOAD DUP2 LT PUSH2 0x3935 JUMPI PUSH2 0x3935 PUSH2 0x6517 JUMP JUMPDEST SWAP1 PUSH1 0x0 MSTORE PUSH1 0x20 PUSH1 0x0 KECCAK256 SWAP1 PUSH1 0x6 MUL ADD PUSH1 0x1 ADD SLOAD PUSH2 0x3951 SWAP2 SWAP1 PUSH2 0x647D JUMP JUMPDEST PUSH2 0x395B SWAP2 SWAP1 PUSH2 0x647D JUMP JUMPDEST PUSH2 0x3965 SWAP2 SWAP1 PUSH2 0x64A7 JUMP JUMPDEST SWAP1 POP PUSH1 0x0 DUP9 DUP6 DUP2 SLOAD DUP2 LT PUSH2 0x397B JUMPI PUSH2 0x397B PUSH2 0x6517 JUMP JUMPDEST SWAP1 PUSH1 0x0 MSTORE PUSH1 0x20 PUSH1 0x0 KECCAK256 SWAP1 PUSH1 0x6 MUL ADD PUSH1 0x5 ADD SLOAD DUP3 GT ISZERO PUSH2 0x39C6 JUMPI DUP9 DUP6 DUP2 SLOAD DUP2 LT PUSH2 0x39A6 JUMPI PUSH2 0x39A6 PUSH2 0x6517 JUMP JUMPDEST SWAP1 PUSH1 0x0 MSTORE PUSH1 0x20 PUSH1 0x0 KECCAK256 SWAP1 PUSH1 0x6 MUL ADD PUSH1 0x5 ADD SLOAD DUP3 PUSH2 0x39C3 SWAP2 SWAP1 PUSH2 0x64C9 JUMP JUMPDEST SWAP1 POP JUMPDEST PUSH2 0x39D0 DUP2 DUP8 PUSH2 0x6494 JUMP JUMPDEST SWAP6 POP DUP1 DUP10 DUP7 DUP2 SLOAD DUP2 LT PUSH2 0x39E5 JUMPI PUSH2 0x39E5 PUSH2 0x6517 JUMP JUMPDEST SWAP1 PUSH1 0x0 MSTORE PUSH1 0x20 PUSH1 0x0 KECCAK256 SWAP1 PUSH1 0x6 MUL ADD PUSH1 0x5 ADD PUSH1 0x0 DUP3 DUP3 SLOAD PUSH2 0x3A05 SWAP2 SWAP1 PUSH2 0x6494 JUMP JUMPDEST SWAP1 SWAP2 SSTORE POP POP CALLER PUSH1 0x0 SWAP1 DUP2 MSTORE PUSH1 0xF PUSH1 0x20 MSTORE PUSH1 0x40 DUP2 KECCAK256 PUSH1 0x9 ADD SLOAD SWAP1 DUP2 SWAP1 SUB PUSH2 0x3A3A JUMPI POP CALLER PUSH1 0x0 SWAP1 DUP2 MSTORE PUSH1 0x10 PUSH1 0x20 MSTORE PUSH1 0x40 SWAP1 KECCAK256 PUSH1 0x1 ADD SLOAD JUMPDEST PUSH1 0x0 PUSH1 0x64 PUSH1 0xC SLOAD DUP4 PUSH2 0x3A4C SWAP2 SWAP1 PUSH2 0x647D JUMP JUMPDEST PUSH2 0x3A56 SWAP2 SWAP1 PUSH2 0x64A7 JUMP JUMPDEST SWAP1 POP PUSH1 0x0 DUP12 DUP9 DUP2 SLOAD DUP2 LT PUSH2 0x3A6C JUMPI PUSH2 0x3A6C PUSH2 0x6517 JUMP JUMPDEST SWAP1 PUSH1 0x0 MSTORE PUSH1 0x20 PUSH1 0x0 KECCAK256 SWAP1 PUSH1 0x6 MUL ADD PUSH1 0x1 ADD SLOAD SWAP1 POP DUP2 DUP2 GT ISZERO PUSH2 0x3AA5 JUMPI PUSH2 0x3A92 DUP3 DUP3 PUSH2 0x64C9 JUMP JUMPDEST SWAP1 POP PUSH2 0x3A9E DUP3 DUP12 PUSH2 0x6494 JUMP JUMPDEST SWAP10 POP PUSH2 0x3AB6 JUMP JUMPDEST PUSH2 0x3AAF DUP2 DUP12 PUSH2 0x6494 JUMP JUMPDEST SWAP10 POP PUSH1 0x0 SWAP1 POP JUMPDEST PUSH2 0x3AC0 DUP2 DUP13 PUSH2 0x6494 JUMP JUMPDEST SWAP11 POP PUSH1 0x0 DUP13 DUP10 DUP2 SLOAD DUP2 LT PUSH2 0x3AD6 JUMPI PUSH2 0x3AD6 PUSH2 0x6517 JUMP JUMPDEST SWAP1 PUSH1 0x0 MSTORE PUSH1 0x20 PUSH1 0x0 KECCAK256 SWAP1 PUSH1 0x6 MUL ADD PUSH1 0x4 ADD PUSH1 0x0 PUSH2 0x100 EXP DUP2 SLOAD DUP2 PUSH1 0xFF MUL NOT AND SWAP1 DUP4 ISZERO ISZERO MUL OR SWAP1 SSTORE POP PUSH2 0x3B2A DUP13 DUP10 DUP2 SLOAD DUP2 LT PUSH2 0x3B13 JUMPI PUSH2 0x3B13 PUSH2 0x6517 JUMP JUMPDEST SWAP1 PUSH1 0x0 MSTORE PUSH1 0x20 PUSH1 0x0 KECCAK256 SWAP1 PUSH1 0x6 MUL ADD PUSH1 0x0 ADD SLOAD PUSH2 0x4715 JUMP JUMPDEST POP POP POP POP POP POP JUMPDEST POP JUMPDEST PUSH1 0x1 ADD PUSH2 0x37B9 JUMP JUMPDEST POP PUSH1 0x0 DUP4 GT DUP1 PUSH2 0x3B4B JUMPI POP PUSH1 0x0 DUP2 GT JUMPDEST PUSH2 0x3B8B JUMPI PUSH1 0x40 MLOAD PUSH3 0x461BCD PUSH1 0xE5 SHL DUP2 MSTORE PUSH1 0x20 PUSH1 0x4 DUP3 ADD MSTORE PUSH1 0x11 PUSH1 0x24 DUP3 ADD MSTORE PUSH17 0x4E6F7468696E6720746F2072656465656D PUSH1 0x78 SHL PUSH1 0x44 DUP3 ADD MSTORE PUSH1 0x64 ADD PUSH2 0xFAF JUMP JUMPDEST DUP2 ISZERO PUSH2 0x3BA9 JUMPI DUP2 PUSH1 0x17 PUSH1 0x0 DUP3 DUP3 SLOAD PUSH2 0x3BA3 SWAP2 SWAP1 PUSH2 0x6494 JUMP JUMPDEST SWAP1 SWAP2 SSTORE POP POP JUMPDEST DUP1 ISZERO PUSH2 0x3F04 JUMPI CALLER PUSH1 0x0 SWAP1 DUP2 MSTORE PUSH1 0xF PUSH1 0x20 MSTORE PUSH1 0x40 DUP2 KECCAK256 PUSH1 0x3 DUP2 ADD SLOAD PUSH1 0x4 SWAP1 SWAP2 ADD SLOAD PUSH2 0x3BD3 SWAP2 SWAP1 PUSH2 0x64C9 JUMP JUMPDEST SWAP1 POP DUP1 DUP3 GT ISZERO PUSH2 0x3C12 JUMPI CALLER PUSH1 0x1 PUSH1 0x1 PUSH1 0xA0 SHL SUB AND PUSH1 0x0 DUP1 MLOAD PUSH1 0x20 PUSH2 0x6642 DUP4 CODECOPY DUP2 MLOAD SWAP2 MSTORE DUP4 DUP4 PUSH1 0x40 MLOAD PUSH2 0x3C06 SWAP3 SWAP2 SWAP1 PUSH2 0x5FF5 JUMP JUMPDEST PUSH1 0x40 MLOAD DUP1 SWAP2 SUB SWAP1 LOG2 DUP1 SWAP2 POP JUMPDEST DUP2 ISZERO PUSH2 0x3F02 JUMPI CALLER PUSH1 0x0 SWAP1 DUP2 MSTORE PUSH1 0xF PUSH1 0x20 MSTORE PUSH1 0x40 DUP2 KECCAK256 PUSH1 0x3 ADD DUP1 SLOAD DUP5 SWAP3 SWAP1 PUSH2 0x3C3A SWAP1 DUP5 SWAP1 PUSH2 0x6494 JUMP JUMPDEST SWAP1 SWAP2 SSTORE POP PUSH1 0x0 SWAP1 POP PUSH2 0x3C4D PUSH1 0x2 DUP5 PUSH2 0x64A7 JUMP JUMPDEST SWAP1 POP PUSH1 0x0 PUSH2 0x3C5C PUSH1 0x2 DUP6 PUSH2 0x64A7 JUMP JUMPDEST PUSH1 0x0 DUP1 SLOAD PUSH1 0x40 MLOAD PUSH4 0x70A08231 PUSH1 0xE0 SHL DUP2 MSTORE SWAP3 SWAP4 POP SWAP1 SWAP2 DUP5 SWAP2 PUSH1 0x1 PUSH1 0x1 PUSH1 0xA0 SHL SUB AND SWAP1 PUSH4 0x70A08231 SWAP1 PUSH2 0x3C92 SWAP1 ADDRESS SWAP1 PUSH1 0x4 ADD PUSH2 0x5FB2 JUMP JUMPDEST PUSH1 0x20 PUSH1 0x40 MLOAD DUP1 DUP4 SUB DUP2 DUP7 GAS STATICCALL ISZERO DUP1 ISZERO PUSH2 0x3CAF JUMPI RETURNDATASIZE PUSH1 0x0 DUP1 RETURNDATACOPY RETURNDATASIZE PUSH1 0x0 REVERT JUMPDEST POP POP POP POP PUSH1 0x40 MLOAD RETURNDATASIZE PUSH1 0x1F NOT PUSH1 0x1F DUP3 ADD AND DUP3 ADD DUP1 PUSH1 0x40 MSTORE POP DUP2 ADD SWAP1 PUSH2 0x3CD3 SWAP2 SWAP1 PUSH2 0x64DC JUMP JUMPDEST LT ISZERO DUP1 ISZERO PUSH2 0x3CE1 JUMPI POP PUSH1 0x0 DUP4 GT JUMPDEST ISZERO PUSH2 0x3D60 JUMPI PUSH1 0x0 SLOAD PUSH1 0x40 MLOAD PUSH4 0xA9059CBB PUSH1 0xE0 SHL DUP2 MSTORE PUSH1 0x1 PUSH1 0x1 PUSH1 0xA0 SHL SUB SWAP1 SWAP2 AND SWAP1 PUSH4 0xA9059CBB SWAP1 PUSH2 0x3D18 SWAP1 CALLER SWAP1 DUP8 SWAP1 PUSH1 0x4 ADD PUSH2 0x61B2 JUMP JUMPDEST PUSH1 0x20 PUSH1 0x40 MLOAD DUP1 DUP4 SUB DUP2 PUSH1 0x0 DUP8 GAS CALL ISZERO DUP1 ISZERO PUSH2 0x3D37 JUMPI RETURNDATASIZE PUSH1 0x0 DUP1 RETURNDATACOPY RETURNDATASIZE PUSH1 0x0 REVERT JUMPDEST POP POP POP POP PUSH1 0x40 MLOAD RETURNDATASIZE PUSH1 0x1F NOT PUSH1 0x1F DUP3 ADD AND DUP3 ADD DUP1 PUSH1 0x40 MSTORE POP DUP2 ADD SWAP1 PUSH2 0x3D5B SWAP2 SWAP1 PUSH2 0x644A JUMP JUMPDEST POP DUP3 SWAP1 POP JUMPDEST PUSH1 0x0 PUSH2 0x3D6A PUSH2 0x2126 JUMP JUMPDEST SWAP1 POP PUSH1 0x0 DUP2 PUSH2 0x3D81 DUP6 PUSH8 0xDE0B6B3A7640000 PUSH2 0x647D JUMP JUMPDEST PUSH2 0x3D8B SWAP2 SWAP1 PUSH2 0x64A7 JUMP JUMPDEST PUSH1 0x1 SLOAD PUSH1 0x40 MLOAD PUSH4 0x70A08231 PUSH1 0xE0 SHL DUP2 MSTORE SWAP2 SWAP3 POP PUSH1 0x0 SWAP2 DUP4 SWAP2 PUSH1 0x1 PUSH1 0x1 PUSH1 0xA0 SHL SUB AND SWAP1 PUSH4 0x70A08231 SWAP1 PUSH2 0x3DC1 SWAP1 ADDRESS SWAP1 PUSH1 0x4 ADD PUSH2 0x5FB2 JUMP JUMPDEST PUSH1 0x20 PUSH1 0x40 MLOAD DUP1 DUP4 SUB DUP2 DUP7 GAS STATICCALL ISZERO DUP1 ISZERO PUSH2 0x3DDE JUMPI RETURNDATASIZE PUSH1 0x0 DUP1 RETURNDATACOPY RETURNDATASIZE PUSH1 0x0 REVERT JUMPDEST POP POP POP POP PUSH1 0x40 MLOAD RETURNDATASIZE PUSH1 0x1F NOT PUSH1 0x1F DUP3 ADD AND DUP3 ADD DUP1 PUSH1 0x40 MSTORE POP DUP2 ADD SWAP1 PUSH2 0x3E02 SWAP2 SWAP1 PUSH2 0x64DC JUMP JUMPDEST LT ISZERO DUP1 ISZERO PUSH2 0x3E10 JUMPI POP PUSH1 0x0 DUP3 GT JUMPDEST ISZERO PUSH2 0x3E8F JUMPI PUSH1 0x1 SLOAD PUSH1 0x40 MLOAD PUSH4 0xA9059CBB PUSH1 0xE0 SHL DUP2 MSTORE PUSH1 0x1 PUSH1 0x1 PUSH1 0xA0 SHL SUB SWAP1 SWAP2 AND SWAP1 PUSH4 0xA9059CBB SWAP1 PUSH2 0x3E47 SWAP1 CALLER SWAP1 DUP7 SWAP1 PUSH1 0x4 ADD PUSH2 0x61B2 JUMP JUMPDEST PUSH1 0x20 PUSH1 0x40 MLOAD DUP1 DUP4 SUB DUP2 PUSH1 0x0 DUP8 GAS CALL ISZERO DUP1 ISZERO PUSH2 0x3E66 JUMPI RETURNDATASIZE PUSH1 0x0 DUP1 RETURNDATACOPY RETURNDATASIZE PUSH1 0x0 REVERT JUMPDEST POP POP POP POP PUSH1 0x40 MLOAD RETURNDATASIZE PUSH1 0x1F NOT PUSH1 0x1F DUP3 ADD AND DUP3 ADD DUP1 PUSH1 0x40 MSTORE POP DUP2 ADD SWAP1 PUSH2 0x3E8A SWAP2 SWAP1 PUSH2 0x644A JUMP JUMPDEST POP DUP2 SWAP1 POP JUMPDEST CALLER PUSH1 0x1 PUSH1 0x1 PUSH1 0xA0 SHL SUB AND PUSH1 0x0 DUP1 MLOAD PUSH1 0x20 PUSH2 0x6662 DUP4 CODECOPY DUP2 MLOAD SWAP2 MSTORE DUP10 PUSH1 0x0 PUSH1 0x40 MLOAD PUSH2 0x3EB9 SWAP3 SWAP2 SWAP1 PUSH2 0x652D JUMP JUMPDEST PUSH1 0x40 MLOAD DUP1 SWAP2 SUB SWAP1 LOG2 CALLER PUSH1 0x0 DUP2 DUP2 MSTORE PUSH1 0x10 PUSH1 0x20 MSTORE PUSH1 0x40 DUP1 DUP3 KECCAK256 SLOAD SWAP1 MLOAD PUSH1 0x0 DUP1 MLOAD PUSH1 0x20 PUSH2 0x65E2 DUP4 CODECOPY DUP2 MLOAD SWAP2 MSTORE SWAP3 PUSH2 0x3EF3 SWAP3 DUP10 SWAP3 DUP8 SWAP3 SWAP2 SWAP1 PUSH2 0x653E JUMP JUMPDEST PUSH1 0x40 MLOAD DUP1 SWAP2 SUB SWAP1 LOG2 POP POP POP POP POP POP JUMPDEST POP JUMPDEST DUP3 ISZERO PUSH2 0x3F81 JUMPI PUSH1 0x0 SLOAD PUSH1 0x40 MLOAD PUSH4 0xA9059CBB PUSH1 0xE0 SHL DUP2 MSTORE PUSH1 0x1 PUSH1 0x1 PUSH1 0xA0 SHL SUB SWAP1 SWAP2 AND SWAP1 PUSH4 0xA9059CBB SWAP1 PUSH2 0x3F3C SWAP1 CALLER SWAP1 DUP8 SWAP1 PUSH1 0x4 ADD PUSH2 0x61B2 JUMP JUMPDEST PUSH1 0x20 PUSH1 0x40 MLOAD DUP1 DUP4 SUB DUP2 PUSH1 0x0 DUP8 GAS CALL ISZERO DUP1 ISZERO PUSH2 0x3F5B JUMPI RETURNDATASIZE PUSH1 0x0 DUP1 RETURNDATACOPY RETURNDATASIZE PUSH1 0x0 REVERT JUMPDEST POP POP POP POP PUSH1 0x40 MLOAD RETURNDATASIZE PUSH1 0x1F NOT PUSH1 0x1F DUP3 ADD AND DUP3 ADD DUP1 PUSH1 0x40 MSTORE POP DUP2 ADD SWAP1 PUSH2 0x3F7F SWAP2 SWAP1 PUSH2 0x644A JUMP JUMPDEST POP JUMPDEST CALLER PUSH1 0x1 PUSH1 0x1 PUSH1 0xA0 SHL SUB AND PUSH1 0x0 DUP1 MLOAD PUSH1 0x20 PUSH2 0x6682 DUP4 CODECOPY DUP2 MLOAD SWAP2 MSTORE DUP5 DUP5 PUSH1 0x40 MLOAD PUSH2 0x3FAA SWAP3 SWAP2 SWAP1 PUSH2 0x5FF5 JUMP JUMPDEST PUSH1 0x40 MLOAD DUP1 SWAP2 SUB SWAP1 LOG2 PUSH2 0x3FBB CALLER PUSH2 0x48E1 JUMP JUMPDEST CALLER PUSH1 0x0 SWAP1 DUP2 MSTORE PUSH1 0xF PUSH1 0x20 MSTORE PUSH1 0x40 SWAP1 KECCAK256 PUSH1 0x4 DUP2 ADD SLOAD PUSH1 0x3 SWAP1 SWAP2 ADD SLOAD LT PUSH2 0x3FE3 JUMPI PUSH2 0x3FE3 CALLER PUSH2 0x4A0A JUMP JUMPDEST POP POP POP POP PUSH2 0x2124 PUSH2 0x4704 JUMP JUMPDEST PUSH2 0x3FF7 PUSH2 0x469C JUMP JUMPDEST DUP3 DUP2 EQ PUSH2 0x4017 JUMPI PUSH1 0x40 MLOAD PUSH4 0x980A3F31 PUSH1 0xE0 SHL DUP2 MSTORE PUSH1 0x4 ADD PUSH1 0x40 MLOAD DUP1 SWAP2 SUB SWAP1 REVERT JUMPDEST DUP3 PUSH1 0x0 JUMPDEST DUP2 DUP2 LT ISZERO PUSH2 0x408C JUMPI DUP4 DUP4 DUP3 DUP2 DUP2 LT PUSH2 0x4035 JUMPI PUSH2 0x4035 PUSH2 0x6517 JUMP JUMPDEST SWAP1 POP PUSH1 0x20 MUL ADD CALLDATALOAD PUSH1 0xF PUSH1 0x0 DUP9 DUP9 DUP6 DUP2 DUP2 LT PUSH2 0x4052 JUMPI PUSH2 0x4052 PUSH2 0x6517 JUMP JUMPDEST SWAP1 POP PUSH1 0x20 MUL ADD PUSH1 0x20 DUP2 ADD SWAP1 PUSH2 0x4067 SWAP2 SWAP1 PUSH2 0x5F6D JUMP JUMPDEST PUSH1 0x1 PUSH1 0x1 PUSH1 0xA0 SHL SUB AND DUP2 MSTORE PUSH1 0x20 DUP2 ADD SWAP2 SWAP1 SWAP2 MSTORE PUSH1 0x40 ADD PUSH1 0x0 KECCAK256 PUSH1 0x7 ADD SSTORE PUSH1 0x1 ADD PUSH2 0x401B JUMP JUMPDEST POP POP POP POP POP POP JUMP JUMPDEST PUSH1 0x0 PUSH2 0x409E PUSH2 0x5BA9 JUMP JUMPDEST DUP1 SLOAD SWAP1 SWAP2 POP PUSH1 0xFF PUSH1 0x1 PUSH1 0x40 SHL DUP3 DIV AND ISZERO SWAP1 PUSH1 0x1 PUSH1 0x1 PUSH1 0x40 SHL SUB AND PUSH1 0x0 DUP2 ISZERO DUP1 ISZERO PUSH2 0x40C5 JUMPI POP DUP3 JUMPDEST SWAP1 POP PUSH1 0x0 DUP3 PUSH1 0x1 PUSH1 0x1 PUSH1 0x40 SHL SUB AND PUSH1 0x1 EQ DUP1 ISZERO PUSH2 0x40E1 JUMPI POP ADDRESS EXTCODESIZE ISZERO JUMPDEST SWAP1 POP DUP2 ISZERO DUP1 ISZERO PUSH2 0x40EF JUMPI POP DUP1 ISZERO JUMPDEST ISZERO PUSH2 0x410D JUMPI PUSH1 0x40 MLOAD PUSH4 0xF92EE8A9 PUSH1 0xE0 SHL DUP2 MSTORE PUSH1 0x4 ADD PUSH1 0x40 MLOAD DUP1 SWAP2 SUB SWAP1 REVERT JUMPDEST DUP5 SLOAD PUSH1 0x1 PUSH1 0x1 PUSH1 0x40 SHL SUB NOT AND PUSH1 0x1 OR DUP6 SSTORE DUP4 ISZERO PUSH2 0x4136 JUMPI DUP5 SLOAD PUSH1 0xFF PUSH1 0x40 SHL NOT AND PUSH1 0x1 PUSH1 0x40 SHL OR DUP6 SSTORE JUMPDEST PUSH2 0x413F CALLER PUSH2 0x5BD4 JUMP JUMPDEST PUSH2 0x4147 PUSH2 0x5BE5 JUMP JUMPDEST PUSH2 0x414F PUSH2 0x5BED JUMP JUMPDEST PUSH1 0x0 DUP1 SLOAD PUSH1 0x1 PUSH1 0x1 PUSH1 0xA0 SHL SUB NOT SWAP1 DUP2 AND PUSH1 0x1 PUSH1 0x1 PUSH1 0xA0 SHL SUB DUP15 DUP2 AND SWAP2 SWAP1 SWAP2 OR SWAP1 SWAP3 SSTORE PUSH1 0x1 DUP1 SLOAD DUP3 AND DUP14 DUP5 AND OR DUP2 SSTORE PUSH1 0x2 DUP1 SLOAD DUP4 AND DUP14 DUP6 AND OR SWAP1 SSTORE PUSH1 0x3 DUP1 SLOAD DUP4 AND DUP13 DUP6 AND OR SWAP1 SSTORE PUSH1 0x4 DUP1 SLOAD DUP4 AND DUP12 DUP6 AND OR SWAP1 SSTORE PUSH1 0x5 DUP1 SLOAD SWAP1 SWAP3 AND SWAP3 DUP10 AND SWAP3 SWAP1 SWAP3 OR DUP2 SSTORE PUSH1 0x19 PUSH1 0x6 DUP2 SWAP1 SSTORE PUSH1 0xF PUSH1 0x7 SSTORE PUSH1 0x8 DUP3 SWAP1 SSTORE PUSH1 0x9 SWAP2 SWAP1 SWAP2 SSTORE PUSH1 0xA DUP2 SWAP1 SSTORE PUSH1 0xB DUP2 SWAP1 SSTORE PUSH1 0xC SWAP2 SWAP1 SWAP2 SSTORE PUSH1 0x32 PUSH1 0xD SSTORE PUSH1 0xE SSTORE PUSH3 0x3F480 PUSH1 0x15 SSTORE PUSH1 0x16 DUP1 SLOAD PUSH2 0xFFFF NOT AND PUSH2 0x101 OR SWAP1 SSTORE TIMESTAMP PUSH1 0x1B SSTORE DUP4 ISZERO PUSH2 0x4240 JUMPI DUP5 SLOAD PUSH1 0xFF PUSH1 0x40 SHL NOT AND DUP6 SSTORE PUSH1 0x40 MLOAD PUSH1 0x1 DUP2 MSTORE PUSH32 0xC7F505B2F371AE2175EE4913F4499E1F2633A7B5936321EED1CDAEB6115181D2 SWAP1 PUSH1 0x20 ADD PUSH1 0x40 MLOAD DUP1 SWAP2 SUB SWAP1 LOG1 JUMPDEST POP POP POP POP POP POP POP POP POP POP POP JUMP JUMPDEST PUSH2 0x4255 PUSH2 0x469C JUMP JUMPDEST PUSH1 0x0 SLOAD PUSH1 0x1 PUSH1 0x1 PUSH1 0xA0 SHL SUB DUP5 DUP2 AND SWAP2 AND EQ DUP1 ISZERO SWAP1 PUSH2 0x4281 JUMPI POP PUSH1 0x1 SLOAD PUSH1 0x1 PUSH1 0x1 PUSH1 0xA0 SHL SUB DUP5 DUP2 AND SWAP2 AND EQ ISZERO JUMPDEST PUSH2 0x42CD JUMPI PUSH1 0x40 MLOAD PUSH3 0x461BCD PUSH1 0xE5 SHL DUP2 MSTORE PUSH1 0x20 PUSH1 0x4 DUP3 ADD MSTORE PUSH1 0x1D PUSH1 0x24 DUP3 ADD MSTORE PUSH32 0x43616E6E6F74207265736375652070726F746F636F6C20746F6B656E73000000 PUSH1 0x44 DUP3 ADD MSTORE PUSH1 0x64 ADD PUSH2 0xFAF JUMP JUMPDEST PUSH1 0x1 PUSH1 0x1 PUSH1 0xA0 SHL SUB DUP3 AND PUSH2 0x4317 JUMPI PUSH1 0x40 MLOAD PUSH3 0x461BCD PUSH1 0xE5 SHL DUP2 MSTORE PUSH1 0x20 PUSH1 0x4 DUP3 ADD MSTORE PUSH1 0x11 PUSH1 0x24 DUP3 ADD MSTORE PUSH17 0x125B9D985B1A59081C9958DA5C1A595B9D PUSH1 0x7A SHL PUSH1 0x44 DUP3 ADD MSTORE PUSH1 0x64 ADD PUSH2 0xFAF JUMP JUMPDEST PUSH1 0x40 MLOAD PUSH4 0xA9059CBB PUSH1 0xE0 SHL DUP2 MSTORE PUSH1 0x1 PUSH1 0x1 PUSH1 0xA0 SHL SUB DUP5 AND SWAP1 PUSH4 0xA9059CBB SWAP1 PUSH2 0x4345 SWAP1 DUP6 SWAP1 DUP6 SWAP1 PUSH1 0x4 ADD PUSH2 0x61B2 JUMP JUMPDEST PUSH1 0x20 PUSH1 0x40 MLOAD DUP1 DUP4 SUB DUP2 PUSH1 0x0 DUP8 GAS CALL ISZERO DUP1 ISZERO PUSH2 0x4364 JUMPI RETURNDATASIZE PUSH1 0x0 DUP1 RETURNDATACOPY RETURNDATASIZE PUSH1 0x0 REVERT JUMPDEST POP POP POP POP PUSH1 0x40 MLOAD RETURNDATASIZE PUSH1 0x1F NOT PUSH1 0x1F DUP3 ADD AND DUP3 ADD DUP1 PUSH1 0x40 MSTORE POP DUP2 ADD SWAP1 PUSH2 0x4388 SWAP2 SWAP1 PUSH2 0x644A JUMP JUMPDEST POP PUSH32 0x77023E19C7343AD491FD706C36335CA0E738340A91F29B1FD81E2673D44896C4 DUP4 DUP4 DUP4 PUSH1 0x40 MLOAD PUSH2 0x43BC SWAP4 SWAP3 SWAP2 SWAP1 PUSH2 0x6426 JUMP JUMPDEST PUSH1 0x40 MLOAD DUP1 SWAP2 SUB SWAP1 LOG1 POP POP POP JUMP JUMPDEST PUSH2 0x43D1 PUSH2 0x469C JUMP JUMPDEST PUSH1 0x6 DUP7 SWAP1 SSTORE PUSH1 0x7 DUP6 SWAP1 SSTORE PUSH1 0x8 DUP5 SWAP1 SSTORE PUSH1 0x9 DUP4 SWAP1 SSTORE PUSH1 0xA DUP3 SWAP1 SSTORE PUSH1 0xB DUP2 SWAP1 SSTORE PUSH1 0x40 DUP1 MLOAD DUP8 DUP2 MSTORE PUSH1 0x20 DUP2 ADD DUP8 SWAP1 MSTORE SWAP1 DUP2 ADD DUP6 SWAP1 MSTORE PUSH1 0x60 DUP2 ADD DUP5 SWAP1 MSTORE PUSH1 0x80 DUP2 ADD DUP4 SWAP1 MSTORE PUSH1 0xA0 DUP2 ADD DUP3 SWAP1 MSTORE PUSH32 0x66682B276E4CD1A4E1F68B55B1143766C5332F472EB593CF2A70A25D9D5D9917 SWAP1 PUSH1 0xC0 ADD PUSH1 0x40 MLOAD DUP1 SWAP2 SUB SWAP1 LOG1 POP POP POP POP POP POP JUMP JUMPDEST PUSH1 0x1 PUSH1 0x1 PUSH1 0xA0 SHL SUB DUP2 AND PUSH1 0x0 SWAP1 DUP2 MSTORE PUSH1 0x12 PUSH1 0x20 SWAP1 DUP2 MSTORE PUSH1 0x40 SWAP2 DUP3 SWAP1 KECCAK256 DUP1 SLOAD DUP4 MLOAD DUP2 DUP5 MUL DUP2 ADD DUP5 ADD SWAP1 SWAP5 MSTORE DUP1 DUP5 MSTORE PUSH1 0x60 SWAP4 SWAP3 DUP4 ADD DUP3 DUP3 DUP1 ISZERO PUSH2 0x44B7 JUMPI PUSH1 0x20 MUL DUP3 ADD SWAP2 SWAP1 PUSH1 0x0 MSTORE PUSH1 0x20 PUSH1 0x0 KECCAK256 SWAP1 JUMPDEST DUP2 SLOAD PUSH1 0x1 PUSH1 0x1 PUSH1 0xA0 SHL SUB AND DUP2 MSTORE PUSH1 0x1 SWAP1 SWAP2 ADD SWAP1 PUSH1 0x20 ADD DUP1 DUP4 GT PUSH2 0x4499 JUMPI JUMPDEST POP POP POP POP POP SWAP1 POP SWAP2 SWAP1 POP JUMP JUMPDEST PUSH2 0x44CB PUSH2 0x469C JUMP JUMPDEST DUP3 ISZERO PUSH2 0x455F JUMPI DUP3 PUSH1 0x17 PUSH1 0x0 DUP3 DUP3 SLOAD PUSH2 0x44E3 SWAP2 SWAP1 PUSH2 0x64C9 JUMP JUMPDEST SWAP1 SWAP2 SSTORE POP POP PUSH1 0x0 SLOAD PUSH1 0x40 MLOAD PUSH4 0xA9059CBB PUSH1 0xE0 SHL DUP2 MSTORE PUSH1 0x1 PUSH1 0x1 PUSH1 0xA0 SHL SUB SWAP1 SWAP2 AND SWAP1 PUSH4 0xA9059CBB SWAP1 PUSH2 0x451A SWAP1 DUP8 SWAP1 DUP8 SWAP1 PUSH1 0x4 ADD PUSH2 0x61B2 JUMP JUMPDEST PUSH1 0x20 PUSH1 0x40 MLOAD DUP1 DUP4 SUB DUP2 PUSH1 0x0 DUP8 GAS CALL ISZERO DUP1 ISZERO PUSH2 0x4539 JUMPI RETURNDATASIZE PUSH1 0x0 DUP1 RETURNDATACOPY RETURNDATASIZE PUSH1 0x0 REVERT JUMPDEST POP POP POP POP PUSH1 0x40 MLOAD RETURNDATASIZE PUSH1 0x1F NOT PUSH1 0x1F DUP3 ADD AND DUP3 ADD DUP1 PUSH1 0x40 MSTORE POP DUP2 ADD SWAP1 PUSH2 0x455D SWAP2 SWAP1 PUSH2 0x644A JUMP JUMPDEST POP JUMPDEST DUP1 ISZERO PUSH2 0x45F3 JUMPI DUP1 PUSH1 0x18 PUSH1 0x0 DUP3 DUP3 SLOAD PUSH2 0x4577 SWAP2 SWAP1 PUSH2 0x64C9 JUMP JUMPDEST SWAP1 SWAP2 SSTORE POP POP PUSH1 0x1 SLOAD PUSH1 0x40 MLOAD PUSH4 0xA9059CBB PUSH1 0xE0 SHL DUP2 MSTORE PUSH1 0x1 PUSH1 0x1 PUSH1 0xA0 SHL SUB SWAP1 SWAP2 AND SWAP1 PUSH4 0xA9059CBB SWAP1 PUSH2 0x45AE SWAP1 DUP6 SWAP1 DUP6 SWAP1 PUSH1 0x4 ADD PUSH2 0x61B2 JUMP JUMPDEST PUSH1 0x20 PUSH1 0x40 MLOAD DUP1 DUP4 SUB DUP2 PUSH1 0x0 DUP8 GAS CALL ISZERO DUP1 ISZERO PUSH2 0x45CD JUMPI RETURNDATASIZE PUSH1 0x0 DUP1 RETURNDATACOPY RETURNDATASIZE PUSH1 0x0 REVERT JUMPDEST POP POP POP POP PUSH1 0x40 MLOAD RETURNDATASIZE PUSH1 0x1F NOT PUSH1 0x1F DUP3 ADD AND DUP3 ADD DUP1 PUSH1 0x40 MSTORE POP DUP2 ADD SWAP1 PUSH2 0x45F1 SWAP2 SWAP1 PUSH2 0x644A JUMP JUMPDEST POP JUMPDEST PUSH32 0x520BC217D25EF4588524228DFFCFA518F4AD52178C71D49B8061D016213CD311 DUP4 DUP3 PUSH1 0x40 MLOAD PUSH2 0x340E SWAP3 SWAP2 SWAP1 PUSH2 0x5FF5 JUMP JUMPDEST PUSH2 0x462C PUSH2 0x469C JUMP JUMPDEST PUSH1 0xC DUP2 SWAP1 SSTORE PUSH1 0x40 MLOAD DUP2 DUP2 MSTORE PUSH32 0xC7F6975DCFFC536E6E57DD1D1DEA810FFF534A70563BAF2D6F977B119BD00E1B SWAP1 PUSH1 0x20 ADD PUSH2 0x36F5 JUMP JUMPDEST PUSH2 0x4669 PUSH2 0x469C JUMP JUMPDEST PUSH1 0x1 PUSH1 0x1 PUSH1 0xA0 SHL SUB DUP2 AND PUSH2 0x4693 JUMPI PUSH1 0x0 PUSH1 0x40 MLOAD PUSH4 0x1E4FBDF7 PUSH1 0xE0 SHL DUP2 MSTORE PUSH1 0x4 ADD PUSH2 0xFAF SWAP2 SWAP1 PUSH2 0x5FB2 JUMP JUMPDEST PUSH2 0x131C DUP2 PUSH2 0x5B29 JUMP JUMPDEST CALLER PUSH2 0x46A5 PUSH2 0x341C JUMP JUMPDEST PUSH1 0x1 PUSH1 0x1 PUSH1 0xA0 SHL SUB AND EQ PUSH2 0x2124 JUMPI CALLER PUSH1 0x40 MLOAD PUSH4 0x118CDAA7 PUSH1 0xE0 SHL DUP2 MSTORE PUSH1 0x4 ADD PUSH2 0xFAF SWAP2 SWAP1 PUSH2 0x5FB2 JUMP JUMPDEST PUSH1 0x0 PUSH2 0x46D8 PUSH2 0x5BFD JUMP JUMPDEST DUP1 SLOAD SWAP1 SWAP2 POP PUSH1 0x1 NOT ADD PUSH2 0x46FE JUMPI PUSH1 0x40 MLOAD PUSH4 0x3EE5AEB5 PUSH1 0xE0 SHL DUP2 MSTORE PUSH1 0x4 ADD PUSH1 0x40 MLOAD DUP1 SWAP2 SUB SWAP1 REVERT JUMPDEST PUSH1 0x2 SWAP1 SSTORE JUMP JUMPDEST PUSH1 0x0 PUSH2 0x470E PUSH2 0x5BFD JUMP JUMPDEST PUSH1 0x1 SWAP1 SSTORE POP JUMP JUMPDEST PUSH1 0x0 DUP2 DUP2 MSTORE PUSH1 0x1E PUSH1 0x20 SWAP1 DUP2 MSTORE PUSH1 0x40 DUP1 DUP4 KECCAK256 SLOAD PUSH1 0x1D DUP4 MSTORE DUP2 DUP5 KECCAK256 DUP1 SLOAD DUP4 MLOAD DUP2 DUP7 MUL DUP2 ADD DUP7 ADD SWAP1 SWAP5 MSTORE DUP1 DUP5 MSTORE PUSH1 0x1 PUSH1 0x1 PUSH1 0xA0 SHL SUB SWAP1 SWAP3 AND SWAP5 SWAP4 SWAP1 SWAP2 SWAP1 DUP5 SWAP1 DUP5 ADD JUMPDEST DUP3 DUP3 LT ISZERO PUSH2 0x479C JUMPI PUSH1 0x0 DUP5 DUP2 MSTORE PUSH1 0x20 SWAP1 DUP2 SWAP1 KECCAK256 PUSH1 0x40 DUP1 MLOAD DUP1 DUP3 ADD SWAP1 SWAP2 MSTORE PUSH1 0x2 DUP6 MUL SWAP1 SWAP2 ADD DUP1 SLOAD PUSH1 0x1 PUSH1 0x1 PUSH1 0xA0 SHL SUB AND DUP3 MSTORE PUSH1 0x1 SWAP1 DUP2 ADD SLOAD DUP3 DUP5 ADD MSTORE SWAP1 DUP4 MSTORE SWAP1 SWAP3 ADD SWAP2 ADD PUSH2 0x4754 JUMP JUMPDEST POP POP POP POP SWAP1 POP PUSH1 0x0 JUMPDEST DUP2 MLOAD DUP2 LT ISZERO PUSH2 0x48C4 JUMPI PUSH1 0x0 PUSH2 0x47F6 DUP4 DUP4 DUP2 MLOAD DUP2 LT PUSH2 0x47C5 JUMPI PUSH2 0x47C5 PUSH2 0x6517 JUMP JUMPDEST PUSH1 0x20 MUL PUSH1 0x20 ADD ADD MLOAD PUSH1 0x0 ADD MLOAD DUP5 DUP5 DUP2 MLOAD DUP2 LT PUSH2 0x47E3 JUMPI PUSH2 0x47E3 PUSH2 0x6517 JUMP JUMPDEST PUSH1 0x20 MUL PUSH1 0x20 ADD ADD MLOAD PUSH1 0x20 ADD MLOAD PUSH1 0x4 PUSH2 0x52BA JUMP JUMPDEST SWAP1 POP DUP1 ISZERO PUSH2 0x485A JUMPI DUP4 PUSH1 0x1 PUSH1 0x1 PUSH1 0xA0 SHL SUB AND DUP4 DUP4 DUP2 MLOAD DUP2 LT PUSH2 0x481A JUMPI PUSH2 0x481A PUSH2 0x6517 JUMP JUMPDEST PUSH1 0x20 MUL PUSH1 0x20 ADD ADD MLOAD PUSH1 0x0 ADD MLOAD PUSH1 0x1 PUSH1 0x1 PUSH1 0xA0 SHL SUB AND PUSH1 0x0 DUP1 MLOAD PUSH1 0x20 PUSH2 0x65C2 DUP4 CODECOPY DUP2 MLOAD SWAP2 MSTORE DUP4 PUSH1 0x4 DUP10 PUSH1 0x40 MLOAD PUSH2 0x4851 SWAP4 SWAP3 SWAP2 SWAP1 PUSH2 0x6575 JUMP JUMPDEST PUSH1 0x40 MLOAD DUP1 SWAP2 SUB SWAP1 LOG3 JUMPDEST DUP3 DUP3 DUP2 MLOAD DUP2 LT PUSH2 0x486C JUMPI PUSH2 0x486C PUSH2 0x6517 JUMP JUMPDEST PUSH1 0x20 MUL PUSH1 0x20 ADD ADD MLOAD PUSH1 0x0 ADD MLOAD PUSH1 0x1 PUSH1 0x1 PUSH1 0xA0 SHL SUB AND DUP6 PUSH32 0xAE629B396150638D6EB6DE457CBFFE5D618A10C8CC199A94976BED2B16ECD993 DUP4 PUSH1 0x40 MLOAD PUSH2 0x48B3 SWAP2 DUP2 MSTORE PUSH1 0x20 ADD SWAP1 JUMP JUMPDEST PUSH1 0x40 MLOAD DUP1 SWAP2 SUB SWAP1 LOG3 POP PUSH1 0x1 ADD PUSH2 0x47A5 JUMP JUMPDEST POP PUSH1 0x0 DUP4 DUP2 MSTORE PUSH1 0x1D PUSH1 0x20 MSTORE PUSH1 0x40 DUP2 KECCAK256 PUSH2 0x48DC SWAP2 PUSH2 0x5EC4 JUMP JUMPDEST POP POP POP JUMP JUMPDEST PUSH1 0x1 PUSH1 0x1 PUSH1 0xA0 SHL SUB DUP2 AND PUSH1 0x0 SWAP1 DUP2 MSTORE PUSH1 0x10 PUSH1 0x20 MSTORE PUSH1 0x40 DUP2 KECCAK256 PUSH1 0x1 DUP2 ADD SLOAD SWAP1 SWAP2 SWAP1 ISZERO DUP1 ISZERO SWAP1 PUSH2 0x4914 JUMPI POP PUSH1 0x3 DUP3 ADD SLOAD PUSH1 0xFF AND ISZERO JUMPDEST PUSH1 0x1 PUSH1 0x1 PUSH1 0xA0 SHL SUB DUP5 AND PUSH1 0x0 SWAP1 DUP2 MSTORE PUSH1 0xF PUSH1 0x20 MSTORE PUSH1 0x40 SWAP1 KECCAK256 PUSH1 0x5 ADD SLOAD SWAP1 SWAP2 POP PUSH1 0xFF AND DUP1 ISZERO ISZERO DUP3 ISZERO ISZERO SUB PUSH2 0x4947 JUMPI POP POP POP POP JUMP JUMPDEST PUSH1 0x1 PUSH1 0x1 PUSH1 0xA0 SHL SUB DUP5 DUP2 AND PUSH1 0x0 SWAP1 DUP2 MSTORE PUSH1 0xF PUSH1 0x20 MSTORE PUSH1 0x40 SWAP1 KECCAK256 PUSH1 0x5 DUP2 ADD DUP1 SLOAD PUSH1 0xFF NOT AND DUP6 ISZERO ISZERO OR SWAP1 SSTORE SLOAD AND DUP1 PUSH2 0x497E JUMPI POP POP POP POP POP JUMP JUMPDEST DUP3 ISZERO PUSH2 0x49B5 JUMPI PUSH1 0x1 PUSH1 0x1 PUSH1 0xA0 SHL SUB DUP2 AND PUSH1 0x0 SWAP1 DUP2 MSTORE PUSH1 0xF PUSH1 0x20 MSTORE PUSH1 0x40 DUP2 KECCAK256 PUSH1 0x1 ADD DUP1 SLOAD SWAP2 PUSH2 0x49AB DUP4 PUSH2 0x655C JUMP JUMPDEST SWAP2 SWAP1 POP SSTORE POP PUSH2 0x4A03 JUMP JUMPDEST PUSH1 0x1 PUSH1 0x1 PUSH1 0xA0 SHL SUB DUP2 AND PUSH1 0x0 SWAP1 DUP2 MSTORE PUSH1 0xF PUSH1 0x20 MSTORE PUSH1 0x40 SWAP1 KECCAK256 PUSH1 0x1 ADD SLOAD ISZERO PUSH2 0x4A03 JUMPI PUSH1 0x1 PUSH1 0x1 PUSH1 0xA0 SHL SUB DUP2 AND PUSH1 0x0 SWAP1 DUP2 MSTORE PUSH1 0xF PUSH1 0x20 MSTORE PUSH1 0x40 DUP2 KECCAK256 PUSH1 0x1 ADD DUP1 SLOAD SWAP2 PUSH2 0x49FD DUP4 PUSH2 0x658E JUMP JUMPDEST SWAP2 SWAP1 POP SSTORE POP JUMPDEST POP POP POP POP POP JUMP JUMPDEST PUSH1 0x1 PUSH1 0x1 PUSH1 0xA0 SHL SUB DUP2 AND PUSH1 0x0 SWAP1 DUP2 MSTORE PUSH1 0x10 PUSH1 0x20 MSTORE PUSH1 0x40 SWAP1 KECCAK256 PUSH1 0x3 DUP2 ADD SLOAD PUSH1 0xFF AND PUSH2 0x26BF JUMPI PUSH1 0x3 DUP2 ADD DUP1 SLOAD PUSH1 0xFF NOT AND PUSH1 0x1 OR SWAP1 SSTORE PUSH1 0x1 PUSH1 0x1 PUSH1 0xA0 SHL SUB DUP1 DUP4 AND PUSH1 0x0 SWAP1 DUP2 MSTORE PUSH1 0x11 PUSH1 0x20 MSTORE PUSH1 0x40 DUP1 DUP3 KECCAK256 DUP3 SLOAD SWAP2 MLOAD PUSH4 0x70A08231 PUSH1 0xE0 SHL DUP2 MSTORE SWAP1 SWAP4 DUP4 SWAP3 DUP4 SWAP3 SWAP2 AND SWAP1 PUSH4 0x70A08231 SWAP1 PUSH2 0x4A82 SWAP1 ADDRESS SWAP1 PUSH1 0x4 ADD PUSH2 0x5FB2 JUMP JUMPDEST PUSH1 0x20 PUSH1 0x40 MLOAD DUP1 DUP4 SUB DUP2 DUP7 GAS STATICCALL ISZERO DUP1 ISZERO PUSH2 0x4A9F JUMPI RETURNDATASIZE PUSH1 0x0 DUP1 RETURNDATACOPY RETURNDATASIZE PUSH1 0x0 REVERT JUMPDEST POP POP POP POP PUSH1 0x40 MLOAD RETURNDATASIZE PUSH1 0x1F NOT PUSH1 0x1F DUP3 ADD AND DUP3 ADD DUP1 PUSH1 0x40 MSTORE POP DUP2 ADD SWAP1 PUSH2 0x4AC3 SWAP2 SWAP1 PUSH2 0x64DC JUMP JUMPDEST SWAP1 POP PUSH1 0x0 JUMPDEST DUP5 SLOAD DUP2 LT ISZERO PUSH2 0x4BEB JUMPI DUP5 DUP2 DUP2 SLOAD DUP2 LT PUSH2 0x4AE3 JUMPI PUSH2 0x4AE3 PUSH2 0x6517 JUMP JUMPDEST PUSH1 0x0 SWAP2 DUP3 MSTORE PUSH1 0x20 SWAP1 SWAP2 KECCAK256 PUSH1 0x4 PUSH1 0x6 SWAP1 SWAP3 MUL ADD ADD SLOAD PUSH1 0xFF AND ISZERO PUSH2 0x4BE3 JUMPI PUSH1 0x0 PUSH2 0x12C PUSH1 0xC SLOAD DUP8 DUP5 DUP2 SLOAD DUP2 LT PUSH2 0x4B19 JUMPI PUSH2 0x4B19 PUSH2 0x6517 JUMP JUMPDEST SWAP1 PUSH1 0x0 MSTORE PUSH1 0x20 PUSH1 0x0 KECCAK256 SWAP1 PUSH1 0x6 MUL ADD PUSH1 0x1 ADD SLOAD PUSH1 0x2 PUSH2 0x4B37 SWAP2 SWAP1 PUSH2 0x647D JUMP JUMPDEST PUSH2 0x4B41 SWAP2 SWAP1 PUSH2 0x647D JUMP JUMPDEST PUSH2 0x4B4B SWAP2 SWAP1 PUSH2 0x64A7 JUMP JUMPDEST SWAP1 POP PUSH1 0x0 DUP7 DUP4 DUP2 SLOAD DUP2 LT PUSH2 0x4B61 JUMPI PUSH2 0x4B61 PUSH2 0x6517 JUMP JUMPDEST SWAP1 PUSH1 0x0 MSTORE PUSH1 0x20 PUSH1 0x0 KECCAK256 SWAP1 PUSH1 0x6 MUL ADD PUSH1 0x1 ADD SLOAD SWAP1 POP DUP2 DUP2 LT PUSH2 0x4B8D JUMPI PUSH2 0x4B86 DUP3 DUP3 PUSH2 0x64C9 JUMP JUMPDEST SWAP1 POP PUSH2 0x4B92 JUMP JUMPDEST PUSH1 0x0 SWAP2 POP JUMPDEST PUSH2 0x4B9C DUP2 DUP8 PUSH2 0x6494 JUMP JUMPDEST SWAP6 POP PUSH2 0x4BA8 DUP3 DUP7 PUSH2 0x6494 JUMP JUMPDEST SWAP5 POP PUSH1 0x0 DUP8 DUP5 DUP2 SLOAD DUP2 LT PUSH2 0x4BBE JUMPI PUSH2 0x4BBE PUSH2 0x6517 JUMP JUMPDEST PUSH1 0x0 SWAP2 DUP3 MSTORE PUSH1 0x20 SWAP1 SWAP2 KECCAK256 PUSH1 0x6 SWAP1 SWAP2 MUL ADD PUSH1 0x4 ADD DUP1 SLOAD PUSH1 0xFF NOT AND SWAP2 ISZERO ISZERO SWAP2 SWAP1 SWAP2 OR SWAP1 SSTORE POP POP JUMPDEST PUSH1 0x1 ADD PUSH2 0x4AC8 JUMP JUMPDEST POP DUP3 ISZERO PUSH2 0x4D23 JUMPI DUP3 DUP2 LT PUSH2 0x4C74 JUMPI PUSH1 0x0 SLOAD PUSH1 0x40 MLOAD PUSH4 0xA9059CBB PUSH1 0xE0 SHL DUP2 MSTORE PUSH1 0x1 PUSH1 0x1 PUSH1 0xA0 SHL SUB SWAP1 SWAP2 AND SWAP1 PUSH4 0xA9059CBB SWAP1 PUSH2 0x4C2B SWAP1 DUP10 SWAP1 DUP8 SWAP1 PUSH1 0x4 ADD PUSH2 0x61B2 JUMP JUMPDEST PUSH1 0x20 PUSH1 0x40 MLOAD DUP1 DUP4 SUB DUP2 PUSH1 0x0 DUP8 GAS CALL ISZERO DUP1 ISZERO PUSH2 0x4C4A JUMPI RETURNDATASIZE PUSH1 0x0 DUP1 RETURNDATACOPY RETURNDATASIZE PUSH1 0x0 REVERT JUMPDEST POP POP POP POP PUSH1 0x40 MLOAD RETURNDATASIZE PUSH1 0x1F NOT PUSH1 0x1F DUP3 ADD AND DUP3 ADD DUP1 PUSH1 0x40 MSTORE POP DUP2 ADD SWAP1 PUSH2 0x4C6E SWAP2 SWAP1 PUSH2 0x644A JUMP JUMPDEST POP PUSH2 0x4D23 JUMP JUMPDEST DUP1 ISZERO PUSH2 0x4CF1 JUMPI PUSH1 0x0 SLOAD PUSH1 0x40 MLOAD PUSH4 0xA9059CBB PUSH1 0xE0 SHL DUP2 MSTORE PUSH1 0x1 PUSH1 0x1 PUSH1 0xA0 SHL SUB SWAP1 SWAP2 AND SWAP1 PUSH4 0xA9059CBB SWAP1 PUSH2 0x4CAC SWAP1 DUP10 SWAP1 DUP6 SWAP1 PUSH1 0x4 ADD PUSH2 0x61B2 JUMP JUMPDEST PUSH1 0x20 PUSH1 0x40 MLOAD DUP1 DUP4 SUB DUP2 PUSH1 0x0 DUP8 GAS CALL ISZERO DUP1 ISZERO PUSH2 0x4CCB JUMPI RETURNDATASIZE PUSH1 0x0 DUP1 RETURNDATACOPY RETURNDATASIZE PUSH1 0x0 REVERT JUMPDEST POP POP POP POP PUSH1 0x40 MLOAD RETURNDATASIZE PUSH1 0x1F NOT PUSH1 0x1F DUP3 ADD AND DUP3 ADD DUP1 PUSH1 0x40 MSTORE POP DUP2 ADD SWAP1 PUSH2 0x4CEF SWAP2 SWAP1 PUSH2 0x644A JUMP JUMPDEST POP JUMPDEST DUP6 PUSH1 0x1 PUSH1 0x1 PUSH1 0xA0 SHL SUB AND PUSH1 0x0 DUP1 MLOAD PUSH1 0x20 PUSH2 0x6642 DUP4 CODECOPY DUP2 MLOAD SWAP2 MSTORE DUP5 DUP4 PUSH1 0x40 MLOAD PUSH2 0x4D1A SWAP3 SWAP2 SWAP1 PUSH2 0x5FF5 JUMP JUMPDEST PUSH1 0x40 MLOAD DUP1 SWAP2 SUB SWAP1 LOG2 JUMPDEST DUP2 ISZERO PUSH2 0x4D5A JUMPI PUSH1 0x1 PUSH1 0x1 PUSH1 0xA0 SHL SUB DUP7 AND PUSH1 0x0 SWAP1 DUP2 MSTORE PUSH1 0xF PUSH1 0x20 MSTORE PUSH1 0x40 DUP2 KECCAK256 PUSH1 0x6 ADD DUP1 SLOAD DUP5 SWAP3 SWAP1 PUSH2 0x4D54 SWAP1 DUP5 SWAP1 PUSH2 0x6494 JUMP JUMPDEST SWAP1 SWAP2 SSTORE POP POP JUMPDEST PUSH1 0x1 PUSH1 0x1 PUSH1 0xA0 SHL SUB DUP1 DUP8 AND PUSH1 0x0 SWAP1 DUP2 MSTORE PUSH1 0xF PUSH1 0x20 MSTORE PUSH1 0x40 SWAP1 KECCAK256 PUSH1 0x5 DUP2 ADD DUP1 SLOAD PUSH1 0xFF NOT DUP2 AND SWAP1 SWAP2 SSTORE SWAP1 SLOAD PUSH1 0xFF SWAP1 SWAP2 AND SWAP2 AND DUP2 DUP1 ISZERO PUSH2 0x4D9F JUMPI POP PUSH1 0x1 PUSH1 0x1 PUSH1 0xA0 SHL SUB DUP2 AND ISZERO ISZERO JUMPDEST DUP1 ISZERO PUSH2 0x4DC5 JUMPI POP PUSH1 0x1 PUSH1 0x1 PUSH1 0xA0 SHL SUB DUP2 AND PUSH1 0x0 SWAP1 DUP2 MSTORE PUSH1 0xF PUSH1 0x20 MSTORE PUSH1 0x40 SWAP1 KECCAK256 PUSH1 0x1 ADD SLOAD ISZERO ISZERO JUMPDEST ISZERO PUSH2 0x4DF7 JUMPI PUSH1 0x1 PUSH1 0x1 PUSH1 0xA0 SHL SUB DUP2 AND PUSH1 0x0 SWAP1 DUP2 MSTORE PUSH1 0xF PUSH1 0x20 MSTORE PUSH1 0x40 DUP2 KECCAK256 PUSH1 0x1 ADD DUP1 SLOAD SWAP2 PUSH2 0x4DF1 DUP4 PUSH2 0x658E JUMP JUMPDEST SWAP2 SWAP1 POP SSTORE POP JUMPDEST DUP8 PUSH1 0x1 PUSH1 0x1 PUSH1 0xA0 SHL SUB AND PUSH1 0x0 DUP1 MLOAD PUSH1 0x20 PUSH2 0x6682 DUP4 CODECOPY DUP2 MLOAD SWAP2 MSTORE DUP7 DUP7 PUSH1 0x40 MLOAD PUSH2 0x4E20 SWAP3 SWAP2 SWAP1 PUSH2 0x5FF5 JUMP JUMPDEST PUSH1 0x40 MLOAD DUP1 SWAP2 SUB SWAP1 LOG2 DUP7 SLOAD PUSH1 0x40 MLOAD SWAP1 DUP2 MSTORE PUSH1 0x1 PUSH1 0x1 PUSH1 0xA0 SHL SUB DUP10 AND SWAP1 PUSH32 0x920BB94EB3842A728DB98228C375FF6B00C5BC5A54FAC6736155517A0A20A61A SWAP1 PUSH1 0x20 ADD PUSH1 0x40 MLOAD DUP1 SWAP2 SUB SWAP1 LOG2 POP POP POP POP POP POP POP POP JUMP JUMPDEST PUSH1 0x0 DUP1 PUSH2 0x2710 DUP4 LT PUSH2 0x4E8A JUMPI POP PUSH1 0x9 SWAP3 PUSH1 0x2D SWAP3 POP SWAP1 POP JUMP JUMPDEST PUSH2 0x1388 DUP4 LT PUSH2 0x4E9F JUMPI POP PUSH1 0x8 SWAP3 PUSH1 0x28 SWAP3 POP SWAP1 POP JUMP JUMPDEST PUSH2 0x7D0 DUP4 LT PUSH2 0x4EB4 JUMPI POP PUSH1 0x7 SWAP3 PUSH1 0x23 SWAP3 POP SWAP1 POP JUMP JUMPDEST PUSH2 0x3E8 DUP4 LT PUSH2 0x4EC9 JUMPI POP PUSH1 0x6 SWAP3 PUSH1 0x1E SWAP3 POP SWAP1 POP JUMP JUMPDEST PUSH2 0x1F4 DUP4 LT PUSH2 0x4EDE JUMPI POP PUSH1 0x5 SWAP3 PUSH1 0x19 SWAP3 POP SWAP1 POP JUMP JUMPDEST PUSH1 0xC8 DUP4 LT PUSH2 0x4EF2 JUMPI POP PUSH1 0x4 SWAP3 PUSH1 0x14 SWAP3 POP SWAP1 POP JUMP JUMPDEST PUSH1 0x64 DUP4 LT PUSH2 0x4F06 JUMPI POP PUSH1 0x3 SWAP3 PUSH1 0xF SWAP3 POP SWAP1 POP JUMP JUMPDEST PUSH1 0x32 DUP4 LT PUSH2 0x4F1A JUMPI POP PUSH1 0x2 SWAP3 PUSH1 0xA SWAP3 POP SWAP1 POP JUMP JUMPDEST PUSH1 0x14 DUP4 LT PUSH2 0x4F2E JUMPI POP PUSH1 0x1 SWAP3 PUSH1 0x5 SWAP3 POP SWAP1 POP JUMP JUMPDEST POP PUSH1 0x0 SWAP3 DUP4 SWAP3 POP SWAP1 POP JUMP JUMPDEST ADDRESS PUSH1 0x1 PUSH1 0x1 PUSH1 0xA0 SHL SUB PUSH32 0x0 AND EQ DUP1 PUSH2 0x4FC0 JUMPI POP PUSH32 0x0 PUSH1 0x1 PUSH1 0x1 PUSH1 0xA0 SHL SUB AND PUSH2 0x4FB4 PUSH1 0x0 DUP1 MLOAD PUSH1 0x20 PUSH2 0x6622 DUP4 CODECOPY DUP2 MLOAD SWAP2 MSTORE SLOAD PUSH1 0x1 PUSH1 0x1 PUSH1 0xA0 SHL SUB AND SWAP1 JUMP JUMPDEST PUSH1 0x1 PUSH1 0x1 PUSH1 0xA0 SHL SUB AND EQ ISZERO JUMPDEST ISZERO PUSH2 0x2124 JUMPI PUSH1 0x40 MLOAD PUSH4 0x703E46DD PUSH1 0xE1 SHL DUP2 MSTORE PUSH1 0x4 ADD PUSH1 0x40 MLOAD DUP1 SWAP2 SUB SWAP1 REVERT JUMPDEST PUSH2 0x131C PUSH2 0x469C JUMP JUMPDEST DUP2 PUSH1 0x1 PUSH1 0x1 PUSH1 0xA0 SHL SUB AND PUSH4 0x52D1902D PUSH1 0x40 MLOAD DUP2 PUSH4 0xFFFFFFFF AND PUSH1 0xE0 SHL DUP2 MSTORE PUSH1 0x4 ADD PUSH1 0x20 PUSH1 0x40 MLOAD DUP1 DUP4 SUB DUP2 DUP7 GAS STATICCALL SWAP3 POP POP POP DUP1 ISZERO PUSH2 0x5040 JUMPI POP PUSH1 0x40 DUP1 MLOAD PUSH1 0x1F RETURNDATASIZE SWAP1 DUP2 ADD PUSH1 0x1F NOT AND DUP3 ADD SWAP1 SWAP3 MSTORE PUSH2 0x503D SWAP2 DUP2 ADD SWAP1 PUSH2 0x64DC JUMP JUMPDEST PUSH1 0x1 JUMPDEST PUSH2 0x505F JUMPI DUP2 PUSH1 0x40 MLOAD PUSH4 0x4C9C8CE3 PUSH1 0xE0 SHL DUP2 MSTORE PUSH1 0x4 ADD PUSH2 0xFAF SWAP2 SWAP1 PUSH2 0x5FB2 JUMP JUMPDEST PUSH1 0x0 DUP1 MLOAD PUSH1 0x20 PUSH2 0x6622 DUP4 CODECOPY DUP2 MLOAD SWAP2 MSTORE DUP2 EQ PUSH2 0x5090 JUMPI PUSH1 0x40 MLOAD PUSH4 0x2A875269 PUSH1 0xE2 SHL DUP2 MSTORE PUSH1 0x4 DUP2 ADD DUP3 SWAP1 MSTORE PUSH1 0x24 ADD PUSH2 0xFAF JUMP JUMPDEST PUSH2 0x48DC DUP4 DUP4 PUSH2 0x5C21 JUMP JUMPDEST ADDRESS PUSH1 0x1 PUSH1 0x1 PUSH1 0xA0 SHL SUB PUSH32 0x0 AND EQ PUSH2 0x2124 JUMPI PUSH1 0x40 MLOAD PUSH4 0x703E46DD PUSH1 0xE1 SHL DUP2 MSTORE PUSH1 0x4 ADD PUSH1 0x40 MLOAD DUP1 SWAP2 SUB SWAP1 REVERT JUMPDEST PUSH1 0x1 PUSH1 0x1 PUSH1 0xA0 SHL SUB DUP2 AND PUSH1 0x0 SWAP1 DUP2 MSTORE PUSH1 0x10 PUSH1 0x20 MSTORE PUSH1 0x40 SWAP1 KECCAK256 PUSH1 0x1 DUP2 ADD SLOAD ISZERO DUP1 PUSH2 0x5110 JUMPI POP PUSH1 0x3 DUP2 ADD SLOAD PUSH1 0xFF AND JUMPDEST ISZERO PUSH2 0x5119 JUMPI POP POP JUMP JUMPDEST PUSH1 0x0 PUSH2 0x5124 DUP4 PUSH2 0x5C77 JUMP JUMPDEST GT ISZERO PUSH2 0x512E JUMPI POP POP JUMP JUMPDEST PUSH1 0x15 SLOAD DUP2 PUSH1 0x2 ADD SLOAD PUSH2 0x5140 SWAP2 SWAP1 PUSH2 0x6494 JUMP JUMPDEST TIMESTAMP GT PUSH2 0x514A JUMPI POP POP JUMP JUMPDEST DUP1 SLOAD PUSH1 0x1 DUP3 ADD SLOAD PUSH1 0x1 PUSH1 0x1 PUSH1 0xA0 SHL SUB DUP1 DUP6 AND PUSH1 0x0 SWAP1 DUP2 MSTORE PUSH1 0xF PUSH1 0x20 MSTORE PUSH1 0x40 SWAP1 KECCAK256 DUP1 SLOAD PUSH1 0x5 SWAP1 SWAP2 ADD SLOAD SWAP2 AND SWAP1 PUSH1 0xFF AND DUP1 ISZERO PUSH2 0x518C JUMPI POP PUSH1 0x1 PUSH1 0x1 PUSH1 0xA0 SHL SUB DUP2 AND ISZERO ISZERO JUMPDEST DUP1 ISZERO PUSH2 0x51B2 JUMPI POP PUSH1 0x1 PUSH1 0x1 PUSH1 0xA0 SHL SUB DUP2 AND PUSH1 0x0 SWAP1 DUP2 MSTORE PUSH1 0xF PUSH1 0x20 MSTORE PUSH1 0x40 SWAP1 KECCAK256 PUSH1 0x1 ADD SLOAD ISZERO ISZERO JUMPDEST ISZERO PUSH2 0x51E4 JUMPI PUSH1 0x1 PUSH1 0x1 PUSH1 0xA0 SHL SUB DUP2 AND PUSH1 0x0 SWAP1 DUP2 MSTORE PUSH1 0xF PUSH1 0x20 MSTORE PUSH1 0x40 DUP2 KECCAK256 PUSH1 0x1 ADD DUP1 SLOAD SWAP2 PUSH2 0x51DE DUP4 PUSH2 0x658E JUMP JUMPDEST SWAP2 SWAP1 POP SSTORE POP JUMPDEST PUSH1 0x1 PUSH1 0x1 PUSH1 0xA0 SHL SUB DUP6 AND PUSH1 0x0 SWAP1 DUP2 MSTORE PUSH1 0xF PUSH1 0x20 MSTORE PUSH1 0x40 DUP2 KECCAK256 PUSH1 0x5 DUP2 ADD DUP1 SLOAD PUSH1 0xFF NOT SWAP1 DUP2 AND SWAP1 SWAP2 SSTORE PUSH1 0x3 DUP1 DUP4 ADD DUP5 SWAP1 SSTORE PUSH1 0x4 SWAP1 SWAP3 ADD DUP4 SWAP1 SSTORE DUP3 DUP8 SSTORE PUSH1 0x1 DUP8 ADD DUP4 SWAP1 SSTORE PUSH1 0x2 DUP8 ADD SWAP3 SWAP1 SWAP3 SSTORE DUP6 ADD DUP1 SLOAD SWAP1 SWAP2 AND SWAP1 SSTORE DUP3 ISZERO PUSH2 0x5270 JUMPI PUSH1 0x0 DUP4 DUP2 MSTORE PUSH1 0x13 PUSH1 0x20 MSTORE PUSH1 0x40 DUP2 KECCAK256 PUSH2 0x5253 SWAP2 PUSH2 0x5EC4 JUMP JUMPDEST PUSH1 0x0 DUP4 DUP2 MSTORE PUSH1 0x1C PUSH1 0x20 MSTORE PUSH1 0x40 SWAP1 KECCAK256 DUP1 SLOAD PUSH1 0x1 PUSH1 0x1 PUSH1 0xA0 SHL SUB NOT AND SWAP1 SSTORE JUMPDEST DUP5 PUSH1 0x1 PUSH1 0x1 PUSH1 0xA0 SHL SUB AND PUSH32 0x57025F0027038907EDA728B59164FB63D06048F42E618A35267E6A12E49B2E46 DUP5 DUP5 PUSH1 0x40 MLOAD PUSH2 0x52AB SWAP3 SWAP2 SWAP1 PUSH2 0x5FF5 JUMP JUMPDEST PUSH1 0x40 MLOAD DUP1 SWAP2 SUB SWAP1 LOG2 POP POP POP POP POP JUMP JUMPDEST PUSH1 0x1 PUSH1 0x1 PUSH1 0xA0 SHL SUB DUP4 AND PUSH1 0x0 SWAP1 DUP2 MSTORE PUSH1 0xF PUSH1 0x20 SWAP1 DUP2 MSTORE PUSH1 0x40 DUP1 DUP4 KECCAK256 PUSH1 0x10 SWAP1 SWAP3 MSTORE DUP3 KECCAK256 PUSH1 0x5 DUP3 ADD SLOAD PUSH1 0xFF AND ISZERO DUP1 PUSH2 0x52F4 JUMPI POP PUSH1 0x3 DUP2 ADD SLOAD PUSH1 0xFF AND JUMPDEST DUP1 PUSH2 0x5301 JUMPI POP PUSH1 0x1 DUP2 ADD SLOAD ISZERO JUMPDEST ISZERO PUSH2 0x5311 JUMPI PUSH1 0x0 SWAP3 POP POP POP PUSH2 0x5500 JUMP JUMPDEST PUSH1 0x0 SLOAD PUSH1 0x40 MLOAD PUSH4 0x70A08231 PUSH1 0xE0 SHL DUP2 MSTORE DUP7 SWAP2 PUSH1 0x1 PUSH1 0x1 PUSH1 0xA0 SHL SUB AND SWAP1 PUSH4 0x70A08231 SWAP1 PUSH2 0x5341 SWAP1 ADDRESS SWAP1 PUSH1 0x4 ADD PUSH2 0x5FB2 JUMP JUMPDEST PUSH1 0x20 PUSH1 0x40 MLOAD DUP1 DUP4 SUB DUP2 DUP7 GAS STATICCALL ISZERO DUP1 ISZERO PUSH2 0x535E JUMPI RETURNDATASIZE PUSH1 0x0 DUP1 RETURNDATACOPY RETURNDATASIZE PUSH1 0x0 REVERT JUMPDEST POP POP POP POP PUSH1 0x40 MLOAD RETURNDATASIZE PUSH1 0x1F NOT PUSH1 0x1F DUP3 ADD AND DUP3 ADD DUP1 PUSH1 0x40 MSTORE POP DUP2 ADD SWAP1 PUSH2 0x5382 SWAP2 SWAP1 PUSH2 0x64DC JUMP JUMPDEST LT ISZERO PUSH2 0x53C5 JUMPI DUP6 PUSH1 0x1 PUSH1 0x1 PUSH1 0xA0 SHL SUB AND PUSH1 0x0 DUP1 MLOAD PUSH1 0x20 PUSH2 0x6642 DUP4 CODECOPY DUP2 MLOAD SWAP2 MSTORE DUP7 PUSH1 0x0 PUSH1 0x40 MLOAD PUSH2 0x53B2 SWAP3 SWAP2 SWAP1 PUSH2 0x5FF5 JUMP JUMPDEST PUSH1 0x40 MLOAD DUP1 SWAP2 SUB SWAP1 LOG2 PUSH1 0x0 SWAP3 POP POP POP PUSH2 0x5500 JUMP JUMPDEST PUSH1 0x0 DUP3 PUSH1 0x3 ADD SLOAD DUP4 PUSH1 0x4 ADD SLOAD PUSH2 0x53DB SWAP2 SWAP1 PUSH2 0x64C9 JUMP JUMPDEST SWAP1 POP DUP6 DUP2 DUP2 GT ISZERO PUSH2 0x541B JUMPI DUP2 SWAP1 POP DUP8 PUSH1 0x1 PUSH1 0x1 PUSH1 0xA0 SHL SUB AND PUSH1 0x0 DUP1 MLOAD PUSH1 0x20 PUSH2 0x6642 DUP4 CODECOPY DUP2 MLOAD SWAP2 MSTORE DUP9 DUP5 PUSH1 0x40 MLOAD PUSH2 0x5412 SWAP3 SWAP2 SWAP1 PUSH2 0x5FF5 JUMP JUMPDEST PUSH1 0x40 MLOAD DUP1 SWAP2 SUB SWAP1 LOG2 JUMPDEST DUP1 ISZERO PUSH2 0x54E2 JUMPI DUP1 DUP5 PUSH1 0x3 ADD PUSH1 0x0 DUP3 DUP3 SLOAD PUSH2 0x5435 SWAP2 SWAP1 PUSH2 0x6494 JUMP JUMPDEST SWAP1 SWAP2 SSTORE POP POP PUSH1 0x0 SLOAD PUSH1 0x40 MLOAD PUSH4 0xA9059CBB PUSH1 0xE0 SHL DUP2 MSTORE PUSH1 0x1 PUSH1 0x1 PUSH1 0xA0 SHL SUB SWAP1 SWAP2 AND SWAP1 PUSH4 0xA9059CBB SWAP1 PUSH2 0x546C SWAP1 DUP12 SWAP1 DUP6 SWAP1 PUSH1 0x4 ADD PUSH2 0x61B2 JUMP JUMPDEST PUSH1 0x20 PUSH1 0x40 MLOAD DUP1 DUP4 SUB DUP2 PUSH1 0x0 DUP8 GAS CALL ISZERO DUP1 ISZERO PUSH2 0x548B JUMPI RETURNDATASIZE PUSH1 0x0 DUP1 RETURNDATACOPY RETURNDATASIZE PUSH1 0x0 REVERT JUMPDEST POP POP POP POP PUSH1 0x40 MLOAD RETURNDATASIZE PUSH1 0x1F NOT PUSH1 0x1F DUP3 ADD AND DUP3 ADD DUP1 PUSH1 0x40 MSTORE POP DUP2 ADD SWAP1 PUSH2 0x54AF SWAP2 SWAP1 PUSH2 0x644A JUMP JUMPDEST POP DUP8 PUSH1 0x1 PUSH1 0x1 PUSH1 0xA0 SHL SUB AND PUSH1 0x0 DUP1 MLOAD PUSH1 0x20 PUSH2 0x6662 DUP4 CODECOPY DUP2 MLOAD SWAP2 MSTORE DUP3 DUP9 PUSH1 0x40 MLOAD PUSH2 0x54D9 SWAP3 SWAP2 SWAP1 PUSH2 0x652D JUMP JUMPDEST PUSH1 0x40 MLOAD DUP1 SWAP2 SUB SWAP1 LOG2 JUMPDEST DUP4 PUSH1 0x4 ADD SLOAD DUP5 PUSH1 0x3 ADD SLOAD LT PUSH2 0x54FA JUMPI PUSH2 0x54FA DUP9 PUSH2 0x4A0A JUMP JUMPDEST SWAP4 POP POP POP POP JUMPDEST SWAP4 SWAP3 POP POP POP JUMP JUMPDEST PUSH1 0x1 PUSH1 0x1 PUSH1 0xA0 SHL SUB DUP1 DUP4 AND PUSH1 0x0 SWAP1 DUP2 MSTORE PUSH1 0xF PUSH1 0x20 MSTORE PUSH1 0x40 DUP2 KECCAK256 SLOAD SWAP1 SWAP2 AND SWAP1 DUP1 DUP1 DUP1 PUSH1 0x64 PUSH2 0x5535 DUP8 PUSH1 0x1 PUSH2 0x647D JUMP JUMPDEST PUSH2 0x553F SWAP2 SWAP1 PUSH2 0x64A7 JUMP JUMPDEST SWAP1 POP JUMPDEST PUSH1 0x1 PUSH1 0x1 PUSH1 0xA0 SHL SUB DUP6 AND ISZERO DUP1 ISZERO SWAP1 PUSH2 0x555A JUMPI POP PUSH1 0xF DUP4 LT JUMPDEST DUP1 ISZERO PUSH2 0x5566 JUMPI POP PUSH1 0x14 DUP3 LT JUMPDEST ISZERO PUSH2 0x569C JUMPI PUSH1 0x1 PUSH1 0x1 PUSH1 0xA0 SHL SUB DUP6 AND PUSH1 0x0 SWAP1 DUP2 MSTORE PUSH1 0xF PUSH1 0x20 MSTORE PUSH1 0x40 SWAP1 KECCAK256 PUSH1 0x5 ADD SLOAD PUSH1 0xFF AND PUSH2 0x55BE JUMPI PUSH1 0x1 PUSH1 0x1 PUSH1 0xA0 SHL SUB SWAP5 DUP6 AND PUSH1 0x0 SWAP1 DUP2 MSTORE PUSH1 0xF PUSH1 0x20 MSTORE PUSH1 0x40 SWAP1 KECCAK256 SLOAD SWAP1 SWAP5 AND SWAP4 DUP2 PUSH2 0x55B6 DUP2 PUSH2 0x655C JUMP JUMPDEST SWAP3 POP POP PUSH2 0x5542 JUMP JUMPDEST PUSH1 0x1 PUSH1 0x1 PUSH1 0xA0 SHL SUB DUP6 AND PUSH1 0x0 SWAP1 DUP2 MSTORE PUSH1 0xF PUSH1 0x20 MSTORE PUSH1 0x40 DUP2 KECCAK256 PUSH1 0x1 ADD SLOAD PUSH2 0x55E3 SWAP1 PUSH2 0x1A69 JUMP JUMPDEST SWAP1 POP DUP4 DUP2 GT ISZERO PUSH2 0x565D JUMPI PUSH1 0x0 PUSH2 0x55FB DUP8 DUP5 PUSH1 0x3 PUSH2 0x52BA JUMP JUMPDEST SWAP1 POP DUP1 ISZERO PUSH2 0x565B JUMPI PUSH2 0x560D DUP2 DUP8 PUSH2 0x6494 JUMP JUMPDEST PUSH1 0x1 PUSH1 0x1 PUSH1 0xA0 SHL SUB DUP1 DUP12 AND PUSH1 0x0 DUP2 DUP2 MSTORE PUSH1 0x10 PUSH1 0x20 MSTORE PUSH1 0x40 SWAP1 DUP2 SWAP1 KECCAK256 SLOAD SWAP1 MLOAD SWAP4 SWAP10 POP SWAP1 SWAP3 SWAP2 DUP11 AND SWAP2 PUSH1 0x0 DUP1 MLOAD PUSH1 0x20 PUSH2 0x65C2 DUP4 CODECOPY DUP2 MLOAD SWAP2 MSTORE SWAP2 PUSH2 0x5652 SWAP2 DUP7 SWAP2 PUSH1 0x3 SWAP2 PUSH2 0x6575 JUMP JUMPDEST PUSH1 0x40 MLOAD DUP1 SWAP2 SUB SWAP1 LOG3 JUMPDEST POP JUMPDEST PUSH1 0x1 PUSH1 0x1 PUSH1 0xA0 SHL SUB SWAP6 DUP7 AND PUSH1 0x0 SWAP1 DUP2 MSTORE PUSH1 0xF PUSH1 0x20 MSTORE PUSH1 0x40 SWAP1 KECCAK256 SLOAD SWAP1 SWAP6 AND SWAP5 DUP4 PUSH2 0x5685 DUP2 PUSH2 0x655C JUMP JUMPDEST SWAP5 POP POP DUP3 DUP1 PUSH2 0x5693 SWAP1 PUSH2 0x655C JUMP JUMPDEST SWAP4 POP POP POP PUSH2 0x5542 JUMP JUMPDEST PUSH1 0x0 PUSH1 0x64 PUSH1 0x7 SLOAD DUP9 PUSH2 0x56AE SWAP2 SWAP1 PUSH2 0x647D JUMP JUMPDEST PUSH2 0x56B8 SWAP2 SWAP1 PUSH2 0x64A7 JUMP JUMPDEST SWAP1 POP PUSH1 0x0 PUSH2 0x56C6 DUP7 DUP4 PUSH2 0x64C9 JUMP JUMPDEST SWAP1 POP DUP1 ISZERO PUSH2 0x5722 JUMPI DUP1 PUSH1 0x1F PUSH1 0x0 DUP3 DUP3 SLOAD PUSH2 0x56E0 SWAP2 SWAP1 PUSH2 0x6494 JUMP JUMPDEST SWAP1 SWAP2 SSTORE POP POP PUSH1 0x1F SLOAD PUSH1 0x40 MLOAD PUSH32 0xCA2E2BFF26D2ADB9FE155E9265350494C16751676879CB7CED9141E0FCF39343 SWAP2 PUSH2 0x5719 SWAP2 DUP5 SWAP2 SWAP1 PUSH2 0x5FF5 JUMP JUMPDEST PUSH1 0x40 MLOAD DUP1 SWAP2 SUB SWAP1 LOG1 JUMPDEST POP POP POP POP POP POP POP POP POP JUMP JUMPDEST DUP1 PUSH1 0x0 SUB PUSH2 0x5738 JUMPI POP JUMP JUMPDEST PUSH9 0x3635C9ADC5DEA00000 PUSH1 0x17 SLOAD LT DUP1 PUSH2 0x575B JUMPI POP PUSH9 0x3635C9ADC5DEA00000 PUSH1 0x18 SLOAD LT JUMPDEST ISZERO PUSH2 0x5763 JUMPI POP JUMP JUMPDEST DUP1 PUSH1 0x17 SLOAD PUSH2 0x5771 SWAP2 SWAP1 PUSH2 0x6494 JUMP JUMPDEST PUSH1 0x0 SLOAD PUSH1 0x40 MLOAD PUSH4 0x70A08231 PUSH1 0xE0 SHL DUP2 MSTORE PUSH1 0x1 PUSH1 0x1 PUSH1 0xA0 SHL SUB SWAP1 SWAP2 AND SWAP1 PUSH4 0x70A08231 SWAP1 PUSH2 0x57A1 SWAP1 ADDRESS SWAP1 PUSH1 0x4 ADD PUSH2 0x5FB2 JUMP JUMPDEST PUSH1 0x20 PUSH1 0x40 MLOAD DUP1 DUP4 SUB DUP2 DUP7 GAS STATICCALL ISZERO DUP1 ISZERO PUSH2 0x57BE JUMPI RETURNDATASIZE PUSH1 0x0 DUP1 RETURNDATACOPY RETURNDATASIZE PUSH1 0x0 REVERT JUMPDEST POP POP POP POP PUSH1 0x40 MLOAD RETURNDATASIZE PUSH1 0x1F NOT PUSH1 0x1F DUP3 ADD AND DUP3 ADD DUP1 PUSH1 0x40 MSTORE POP DUP2 ADD SWAP1 PUSH2 0x57E2 SWAP2 SWAP1 PUSH2 0x64DC JUMP JUMPDEST LT ISZERO PUSH2 0x57EB JUMPI POP JUMP JUMPDEST PUSH1 0x17 SLOAD PUSH1 0x0 SWAP1 PUSH2 0x57FD DUP4 PUSH2 0x2710 PUSH2 0x647D JUMP JUMPDEST PUSH2 0x5807 SWAP2 SWAP1 PUSH2 0x64A7 JUMP JUMPDEST SWAP1 POP PUSH2 0x3E8 DUP2 GT ISZERO PUSH2 0x5817 JUMPI POP POP JUMP JUMPDEST PUSH1 0x0 PUSH1 0x18 SLOAD DUP4 PUSH2 0x5827 SWAP2 SWAP1 PUSH2 0x647D JUMP JUMPDEST SWAP1 POP PUSH1 0x0 DUP4 PUSH1 0x17 SLOAD PUSH2 0x5839 SWAP2 SWAP1 PUSH2 0x6494 JUMP JUMPDEST SWAP1 POP PUSH1 0x0 PUSH2 0x5847 DUP3 DUP5 PUSH2 0x64A7 JUMP JUMPDEST SWAP1 POP DUP1 ISZERO DUP1 PUSH2 0x5857 JUMPI POP PUSH1 0x18 SLOAD DUP2 GT JUMPDEST ISZERO PUSH2 0x5863 JUMPI POP POP POP POP POP JUMP JUMPDEST PUSH1 0x18 SLOAD PUSH1 0x1 SLOAD PUSH1 0x40 MLOAD PUSH4 0x70A08231 PUSH1 0xE0 SHL DUP2 MSTORE PUSH1 0x1 PUSH1 0x1 PUSH1 0xA0 SHL SUB SWAP1 SWAP2 AND SWAP1 PUSH4 0x70A08231 SWAP1 PUSH2 0x5896 SWAP1 ADDRESS SWAP1 PUSH1 0x4 ADD PUSH2 0x5FB2 JUMP JUMPDEST PUSH1 0x20 PUSH1 0x40 MLOAD DUP1 DUP4 SUB DUP2 DUP7 GAS STATICCALL ISZERO DUP1 ISZERO PUSH2 0x58B3 JUMPI RETURNDATASIZE PUSH1 0x0 DUP1 RETURNDATACOPY RETURNDATASIZE PUSH1 0x0 REVERT JUMPDEST POP POP POP POP PUSH1 0x40 MLOAD RETURNDATASIZE PUSH1 0x1F NOT PUSH1 0x1F DUP3 ADD AND DUP3 ADD DUP1 PUSH1 0x40 MSTORE POP DUP2 ADD SWAP1 PUSH2 0x58D7 SWAP2 SWAP1 PUSH2 0x64DC JUMP JUMPDEST LT ISZERO PUSH2 0x58E4 JUMPI POP POP POP POP POP JUMP JUMPDEST DUP5 PUSH1 0x17 PUSH1 0x0 DUP3 DUP3 SLOAD PUSH2 0x58F6 SWAP2 SWAP1 PUSH2 0x6494 JUMP JUMPDEST SWAP3 POP POP DUP2 SWAP1 SSTORE POP DUP1 PUSH1 0x18 PUSH1 0x0 DUP3 DUP3 SLOAD PUSH2 0x590F SWAP2 SWAP1 PUSH2 0x64C9 JUMP JUMPDEST SWAP1 SWAP2 SSTORE POP POP PUSH1 0x1 SLOAD PUSH1 0x40 MLOAD PUSH4 0x852CD8D PUSH1 0xE3 SHL DUP2 MSTORE PUSH1 0x4 DUP2 ADD DUP4 SWAP1 MSTORE PUSH1 0x1 PUSH1 0x1 PUSH1 0xA0 SHL SUB SWAP1 SWAP2 AND SWAP1 PUSH4 0x42966C68 SWAP1 PUSH1 0x24 ADD PUSH1 0x0 PUSH1 0x40 MLOAD DUP1 DUP4 SUB DUP2 PUSH1 0x0 DUP8 DUP1 EXTCODESIZE ISZERO DUP1 ISZERO PUSH2 0x595A JUMPI PUSH1 0x0 DUP1 REVERT JUMPDEST POP GAS CALL ISZERO DUP1 ISZERO PUSH2 0x596E JUMPI RETURNDATASIZE PUSH1 0x0 DUP1 RETURNDATACOPY RETURNDATASIZE PUSH1 0x0 REVERT JUMPDEST POP POP POP POP PUSH32 0xEC3929061CBBBEECB325623E7D5A86C3DAE11CB8A22CA45DC0972955657DA25 DUP6 DUP3 PUSH1 0x40 MLOAD PUSH2 0x329D SWAP3 SWAP2 SWAP1 PUSH2 0x5FF5 JUMP JUMPDEST PUSH1 0x1 PUSH1 0x1 PUSH1 0xA0 SHL SUB DUP1 DUP4 AND PUSH1 0x0 SWAP1 DUP2 MSTORE PUSH1 0xF PUSH1 0x20 MSTORE PUSH1 0x40 DUP2 KECCAK256 SLOAD SWAP1 SWAP2 AND SWAP1 JUMPDEST PUSH1 0x1 PUSH1 0x1 PUSH1 0xA0 SHL SUB DUP3 AND ISZERO DUP1 ISZERO SWAP1 PUSH2 0x59DA JUMPI POP PUSH1 0x1E DUP2 LT JUMPDEST ISZERO PUSH2 0x5A3F JUMPI PUSH1 0x1 PUSH1 0x1 PUSH1 0xA0 SHL SUB DUP3 AND PUSH1 0x0 SWAP1 DUP2 MSTORE PUSH1 0xF PUSH1 0x20 MSTORE PUSH1 0x40 DUP2 KECCAK256 PUSH1 0x7 ADD DUP1 SLOAD DUP6 SWAP3 SWAP1 PUSH2 0x5A0A SWAP1 DUP5 SWAP1 PUSH2 0x6494 JUMP JUMPDEST SWAP1 SWAP2 SSTORE POP POP PUSH1 0x1 PUSH1 0x1 PUSH1 0xA0 SHL SUB SWAP2 DUP3 AND PUSH1 0x0 SWAP1 DUP2 MSTORE PUSH1 0xF PUSH1 0x20 MSTORE PUSH1 0x40 SWAP1 KECCAK256 SLOAD SWAP1 SWAP2 AND SWAP1 DUP1 PUSH2 0x5A37 DUP2 PUSH2 0x655C JUMP JUMPDEST SWAP2 POP POP PUSH2 0x59C2 JUMP JUMPDEST POP POP POP POP JUMP JUMPDEST PUSH1 0x1 PUSH1 0x1 PUSH1 0xA0 SHL SUB DUP1 DUP3 AND PUSH1 0x0 SWAP1 DUP2 MSTORE PUSH1 0xF PUSH1 0x20 MSTORE PUSH1 0x40 DUP2 KECCAK256 SLOAD SWAP1 SWAP2 AND SWAP1 JUMPDEST PUSH1 0x1 PUSH1 0x1 PUSH1 0xA0 SHL SUB DUP3 AND ISZERO DUP1 ISZERO SWAP1 PUSH2 0x5A7C JUMPI POP PUSH1 0x1E DUP2 LT JUMPDEST ISZERO PUSH2 0x48DC JUMPI PUSH1 0x1 PUSH1 0x1 PUSH1 0xA0 SHL SUB DUP3 AND PUSH1 0x0 SWAP1 DUP2 MSTORE PUSH1 0xF PUSH1 0x20 MSTORE PUSH1 0x40 SWAP1 KECCAK256 PUSH1 0x2 ADD SLOAD PUSH2 0x5AA8 DUP2 PUSH1 0x1 PUSH2 0x6494 JUMP JUMPDEST PUSH1 0x1 PUSH1 0x1 PUSH1 0xA0 SHL SUB DUP5 AND PUSH1 0x0 DUP2 DUP2 MSTORE PUSH1 0xF PUSH1 0x20 MSTORE PUSH1 0x40 SWAP1 KECCAK256 PUSH1 0x2 ADD SWAP2 SWAP1 SWAP2 SSTORE PUSH1 0x0 DUP1 MLOAD PUSH1 0x20 PUSH2 0x6602 DUP4 CODECOPY DUP2 MLOAD SWAP2 MSTORE DUP3 PUSH2 0x5AE2 DUP2 PUSH1 0x1 PUSH2 0x6494 JUMP JUMPDEST PUSH1 0x40 MLOAD PUSH2 0x5AF0 SWAP3 SWAP2 SWAP1 PUSH2 0x5FF5 JUMP JUMPDEST PUSH1 0x40 MLOAD DUP1 SWAP2 SUB SWAP1 LOG2 PUSH1 0x1 PUSH1 0x1 PUSH1 0xA0 SHL SUB SWAP3 DUP4 AND PUSH1 0x0 SWAP1 DUP2 MSTORE PUSH1 0xF PUSH1 0x20 MSTORE PUSH1 0x40 SWAP1 KECCAK256 SLOAD SWAP1 SWAP3 AND SWAP2 DUP2 PUSH2 0x5B20 DUP2 PUSH2 0x655C JUMP JUMPDEST SWAP3 POP POP POP PUSH2 0x5A64 JUMP JUMPDEST PUSH1 0x0 PUSH2 0x5B33 PUSH2 0x5B85 JUMP JUMPDEST DUP1 SLOAD PUSH1 0x1 PUSH1 0x1 PUSH1 0xA0 SHL SUB DUP5 DUP2 AND PUSH1 0x1 PUSH1 0x1 PUSH1 0xA0 SHL SUB NOT DUP4 AND DUP2 OR DUP5 SSTORE PUSH1 0x40 MLOAD SWAP4 SWAP5 POP SWAP2 AND SWAP2 DUP3 SWAP1 PUSH32 0x8BE0079C531659141344CD1FD0A4F28419497F9722A3DAAFE3B4186F6B6457E0 SWAP1 PUSH1 0x0 SWAP1 LOG3 POP POP POP JUMP JUMPDEST PUSH32 0x9016D09D72D40FDAE2FD8CEAC6B6234C7706214FD39C1CD1E609A0528C199300 SWAP1 JUMP JUMPDEST PUSH1 0x0 DUP1 PUSH32 0xF0C57E16840DF040F15088DC2F81FE391C3923BEC73E23A9662EFC9C229C6A00 JUMPDEST SWAP3 SWAP2 POP POP JUMP JUMPDEST PUSH2 0x5BDC PUSH2 0x5D09 JUMP JUMPDEST PUSH2 0x131C DUP2 PUSH2 0x5D2E JUMP JUMPDEST PUSH2 0x2124 PUSH2 0x5D09 JUMP JUMPDEST PUSH2 0x5BF5 PUSH2 0x5D09 JUMP JUMPDEST PUSH2 0x2124 PUSH2 0x5D36 JUMP JUMPDEST PUSH32 0x9B779B17422D0DF92223018B32B4D1FA46E071723D6817E2486D003BECC55F00 SWAP1 JUMP JUMPDEST PUSH2 0x5C2A DUP3 PUSH2 0x5D3E JUMP JUMPDEST PUSH1 0x40 MLOAD PUSH1 0x1 PUSH1 0x1 PUSH1 0xA0 SHL SUB DUP4 AND SWAP1 PUSH32 0xBC7CD75A20EE27FD9ADEBAB32041F755214DBC6BFFA90CC0225B39DA2E5C2D3B SWAP1 PUSH1 0x0 SWAP1 LOG2 DUP1 MLOAD ISZERO PUSH2 0x5C6F JUMPI PUSH2 0x48DC DUP3 DUP3 PUSH2 0x5D9A JUMP JUMPDEST PUSH2 0x26BF PUSH2 0x5E10 JUMP JUMPDEST PUSH1 0x1 PUSH1 0x1 PUSH1 0xA0 SHL SUB DUP2 AND PUSH1 0x0 SWAP1 DUP2 MSTORE PUSH1 0x11 PUSH1 0x20 MSTORE PUSH1 0x40 DUP2 KECCAK256 DUP2 JUMPDEST DUP2 SLOAD DUP2 LT ISZERO PUSH2 0x5D02 JUMPI DUP2 DUP2 DUP2 SLOAD DUP2 LT PUSH2 0x5CAC JUMPI PUSH2 0x5CAC PUSH2 0x6517 JUMP JUMPDEST PUSH1 0x0 SWAP2 DUP3 MSTORE PUSH1 0x20 SWAP1 SWAP2 KECCAK256 PUSH1 0x4 PUSH1 0x6 SWAP1 SWAP3 MUL ADD ADD SLOAD PUSH1 0xFF AND ISZERO PUSH2 0x5CFA JUMPI DUP2 DUP2 DUP2 SLOAD DUP2 LT PUSH2 0x5CDA JUMPI PUSH2 0x5CDA PUSH2 0x6517 JUMP JUMPDEST SWAP1 PUSH1 0x0 MSTORE PUSH1 0x20 PUSH1 0x0 KECCAK256 SWAP1 PUSH1 0x6 MUL ADD PUSH1 0x1 ADD SLOAD DUP4 PUSH2 0x5CF7 SWAP2 SWAP1 PUSH2 0x6494 JUMP JUMPDEST SWAP3 POP JUMPDEST PUSH1 0x1 ADD PUSH2 0x5C91 JUMP JUMPDEST POP POP SWAP2 SWAP1 POP JUMP JUMPDEST PUSH2 0x5D11 PUSH2 0x5E2F JUMP JUMPDEST PUSH2 0x2124 JUMPI PUSH1 0x40 MLOAD PUSH4 0x1AFCD79F PUSH1 0xE3 SHL DUP2 MSTORE PUSH1 0x4 ADD PUSH1 0x40 MLOAD DUP1 SWAP2 SUB SWAP1 REVERT JUMPDEST PUSH2 0x4669 PUSH2 0x5D09 JUMP JUMPDEST PUSH2 0x4704 PUSH2 0x5D09 JUMP JUMPDEST DUP1 PUSH1 0x1 PUSH1 0x1 PUSH1 0xA0 SHL SUB AND EXTCODESIZE PUSH1 0x0 SUB PUSH2 0x5D6B JUMPI DUP1 PUSH1 0x40 MLOAD PUSH4 0x4C9C8CE3 PUSH1 0xE0 SHL DUP2 MSTORE PUSH1 0x4 ADD PUSH2 0xFAF SWAP2 SWAP1 PUSH2 0x5FB2 JUMP JUMPDEST PUSH1 0x0 DUP1 MLOAD PUSH1 0x20 PUSH2 0x6622 DUP4 CODECOPY DUP2 MLOAD SWAP2 MSTORE DUP1 SLOAD PUSH1 0x1 PUSH1 0x1 PUSH1 0xA0 SHL SUB NOT AND PUSH1 0x1 PUSH1 0x1 PUSH1 0xA0 SHL SUB SWAP3 SWAP1 SWAP3 AND SWAP2 SWAP1 SWAP2 OR SWAP1 SSTORE JUMP JUMPDEST PUSH1 0x60 PUSH1 0x0 DUP1 DUP5 PUSH1 0x1 PUSH1 0x1 PUSH1 0xA0 SHL SUB AND DUP5 PUSH1 0x40 MLOAD PUSH2 0x5DB7 SWAP2 SWAP1 PUSH2 0x65A5 JUMP JUMPDEST PUSH1 0x0 PUSH1 0x40 MLOAD DUP1 DUP4 SUB DUP2 DUP6 GAS DELEGATECALL SWAP2 POP POP RETURNDATASIZE DUP1 PUSH1 0x0 DUP2 EQ PUSH2 0x5DF2 JUMPI PUSH1 0x40 MLOAD SWAP2 POP PUSH1 0x1F NOT PUSH1 0x3F RETURNDATASIZE ADD AND DUP3 ADD PUSH1 0x40 MSTORE RETURNDATASIZE DUP3 MSTORE RETURNDATASIZE PUSH1 0x0 PUSH1 0x20 DUP5 ADD RETURNDATACOPY PUSH2 0x5DF7 JUMP JUMPDEST PUSH1 0x60 SWAP2 POP JUMPDEST POP SWAP2 POP SWAP2 POP PUSH2 0x5E07 DUP6 DUP4 DUP4 PUSH2 0x5E49 JUMP JUMPDEST SWAP6 SWAP5 POP POP POP POP POP JUMP JUMPDEST CALLVALUE ISZERO PUSH2 0x2124 JUMPI PUSH1 0x40 MLOAD PUSH4 0xB398979F PUSH1 0xE0 SHL DUP2 MSTORE PUSH1 0x4 ADD PUSH1 0x40 MLOAD DUP1 SWAP2 SUB SWAP1 REVERT JUMPDEST PUSH1 0x0 PUSH2 0x5E39 PUSH2 0x5BA9 JUMP JUMPDEST SLOAD PUSH1 0x1 PUSH1 0x40 SHL SWAP1 DIV PUSH1 0xFF AND SWAP2 SWAP1 POP JUMP JUMPDEST PUSH1 0x60 DUP3 PUSH2 0x5E5E JUMPI PUSH2 0x5E59 DUP3 PUSH2 0x5E9C JUMP JUMPDEST PUSH2 0x5500 JUMP JUMPDEST DUP2 MLOAD ISZERO DUP1 ISZERO PUSH2 0x5E75 JUMPI POP PUSH1 0x1 PUSH1 0x1 PUSH1 0xA0 SHL SUB DUP5 AND EXTCODESIZE ISZERO JUMPDEST ISZERO PUSH2 0x5E95 JUMPI DUP4 PUSH1 0x40 MLOAD PUSH4 0x9996B315 PUSH1 0xE0 SHL DUP2 MSTORE PUSH1 0x4 ADD PUSH2 0xFAF SWAP2 SWAP1 PUSH2 0x5FB2 JUMP JUMPDEST POP DUP1 PUSH2 0x5500 JUMP JUMPDEST DUP1 MLOAD ISZERO PUSH2 0x5EAB JUMPI DUP1 MLOAD PUSH1 0x20 DUP3 ADD REVERT JUMPDEST PUSH1 0x40 MLOAD PUSH4 0xD6BDA275 PUSH1 0xE0 SHL DUP2 MSTORE PUSH1 0x4 ADD PUSH1 0x40 MLOAD DUP1 SWAP2 SUB SWAP1 REVERT JUMPDEST POP DUP1 SLOAD PUSH1 0x0 DUP3 SSTORE PUSH1 0x2 MUL SWAP1 PUSH1 0x0 MSTORE PUSH1 0x20 PUSH1 0x0 KECCAK256 SWAP1 DUP2 ADD SWAP1 PUSH2 0x131C SWAP2 SWAP1 JUMPDEST DUP1 DUP3 GT ISZERO PUSH2 0x5F06 JUMPI DUP1 SLOAD PUSH1 0x1 PUSH1 0x1 PUSH1 0xA0 SHL SUB NOT AND DUP2 SSTORE PUSH1 0x0 PUSH1 0x1 DUP3 ADD SSTORE PUSH1 0x2 ADD PUSH2 0x5EE1 JUMP JUMPDEST POP SWAP1 JUMP JUMPDEST DUP1 ISZERO ISZERO DUP2 EQ PUSH2 0x131C JUMPI PUSH1 0x0 DUP1 REVERT JUMPDEST PUSH1 0x0 DUP1 PUSH1 0x40 DUP4 DUP6 SUB SLT ISZERO PUSH2 0x5F2B JUMPI PUSH1 0x0 DUP1 REVERT JUMPDEST DUP3 CALLDATALOAD PUSH2 0x5F36 DUP2 PUSH2 0x5F0A JUMP JUMPDEST SWAP2 POP PUSH1 0x20 DUP4 ADD CALLDATALOAD PUSH2 0x5F46 DUP2 PUSH2 0x5F0A JUMP JUMPDEST DUP1 SWAP2 POP POP SWAP3 POP SWAP3 SWAP1 POP JUMP JUMPDEST DUP1 CALLDATALOAD PUSH1 0x1 PUSH1 0x1 PUSH1 0xA0 SHL SUB DUP2 AND DUP2 EQ PUSH2 0x5F68 JUMPI PUSH1 0x0 DUP1 REVERT JUMPDEST SWAP2 SWAP1 POP JUMP JUMPDEST PUSH1 0x0 PUSH1 0x20 DUP3 DUP5 SUB SLT ISZERO PUSH2 0x5F7F JUMPI PUSH1 0x0 DUP1 REVERT JUMPDEST PUSH2 0x5500 DUP3 PUSH2 0x5F51 JUMP JUMPDEST PUSH1 0x0 DUP1 PUSH1 0x40 DUP4 DUP6 SUB SLT ISZERO PUSH2 0x5F9B JUMPI PUSH1 0x0 DUP1 REVERT JUMPDEST PUSH2 0x5FA4 DUP4 PUSH2 0x5F51 JUMP JUMPDEST SWAP5 PUSH1 0x20 SWAP4 SWAP1 SWAP4 ADD CALLDATALOAD SWAP4 POP POP POP JUMP JUMPDEST PUSH1 0x1 PUSH1 0x1 PUSH1 0xA0 SHL SUB SWAP2 SWAP1 SWAP2 AND DUP2 MSTORE PUSH1 0x20 ADD SWAP1 JUMP JUMPDEST PUSH1 0x0 PUSH1 0x20 DUP3 DUP5 SUB SLT ISZERO PUSH2 0x5FD8 JUMPI PUSH1 0x0 DUP1 REVERT JUMPDEST POP CALLDATALOAD SWAP2 SWAP1 POP JUMP JUMPDEST SWAP3 DUP4 MSTORE PUSH1 0x20 DUP4 ADD SWAP2 SWAP1 SWAP2 MSTORE PUSH1 0x40 DUP3 ADD MSTORE PUSH1 0x60 ADD SWAP1 JUMP JUMPDEST SWAP2 DUP3 MSTORE PUSH1 0x20 DUP3 ADD MSTORE PUSH1 0x40 ADD SWAP1 JUMP JUMPDEST PUSH1 0x0 DUP1 PUSH1 0x40 DUP4 DUP6 SUB SLT ISZERO PUSH2 0x6016 JUMPI PUSH1 0x0 DUP1 REVERT JUMPDEST POP POP DUP1 CALLDATALOAD SWAP3 PUSH1 0x20 SWAP1 SWAP2 ADD CALLDATALOAD SWAP2 POP JUMP JUMPDEST PUSH4 0x4E487B71 PUSH1 0xE0 SHL PUSH1 0x0 MSTORE PUSH1 0x41 PUSH1 0x4 MSTORE PUSH1 0x24 PUSH1 0x0 REVERT JUMPDEST PUSH1 0x0 DUP1 PUSH1 0x40 DUP4 DUP6 SUB SLT ISZERO PUSH2 0x604E JUMPI PUSH1 0x0 DUP1 REVERT JUMPDEST PUSH2 0x6057 DUP4 PUSH2 0x5F51 JUMP JUMPDEST SWAP2 POP PUSH1 0x20 DUP4 ADD CALLDATALOAD PUSH1 0x1 PUSH1 0x1 PUSH1 0x40 SHL SUB DUP1 DUP3 GT ISZERO PUSH2 0x6073 JUMPI PUSH1 0x0 DUP1 REVERT JUMPDEST DUP2 DUP6 ADD SWAP2 POP DUP6 PUSH1 0x1F DUP4 ADD SLT PUSH2 0x6087 JUMPI PUSH1 0x0 DUP1 REVERT JUMPDEST DUP2 CALLDATALOAD DUP2 DUP2 GT ISZERO PUSH2 0x6099 JUMPI PUSH2 0x6099 PUSH2 0x6025 JUMP JUMPDEST PUSH1 0x40 MLOAD PUSH1 0x1F DUP3 ADD PUSH1 0x1F NOT SWAP1 DUP2 AND PUSH1 0x3F ADD AND DUP2 ADD SWAP1 DUP4 DUP3 GT DUP2 DUP4 LT OR ISZERO PUSH2 0x60C1 JUMPI PUSH2 0x60C1 PUSH2 0x6025 JUMP JUMPDEST DUP2 PUSH1 0x40 MSTORE DUP3 DUP2 MSTORE DUP9 PUSH1 0x20 DUP5 DUP8 ADD ADD GT ISZERO PUSH2 0x60DA JUMPI PUSH1 0x0 DUP1 REVERT JUMPDEST DUP3 PUSH1 0x20 DUP7 ADD PUSH1 0x20 DUP4 ADD CALLDATACOPY PUSH1 0x0 PUSH1 0x20 DUP5 DUP4 ADD ADD MSTORE DUP1 SWAP6 POP POP POP POP POP POP SWAP3 POP SWAP3 SWAP1 POP JUMP JUMPDEST PUSH1 0x0 DUP1 DUP4 PUSH1 0x1F DUP5 ADD SLT PUSH2 0x610E JUMPI PUSH1 0x0 DUP1 REVERT JUMPDEST POP DUP2 CALLDATALOAD PUSH1 0x1 PUSH1 0x1 PUSH1 0x40 SHL SUB DUP2 GT ISZERO PUSH2 0x6125 JUMPI PUSH1 0x0 DUP1 REVERT JUMPDEST PUSH1 0x20 DUP4 ADD SWAP2 POP DUP4 PUSH1 0x20 DUP3 PUSH1 0x5 SHL DUP6 ADD ADD GT ISZERO PUSH2 0x6140 JUMPI PUSH1 0x0 DUP1 REVERT JUMPDEST SWAP3 POP SWAP3 SWAP1 POP JUMP JUMPDEST PUSH1 0x0 DUP1 PUSH1 0x0 DUP1 PUSH1 0x40 DUP6 DUP8 SUB SLT ISZERO PUSH2 0x615D JUMPI PUSH1 0x0 DUP1 REVERT JUMPDEST DUP5 CALLDATALOAD PUSH1 0x1 PUSH1 0x1 PUSH1 0x40 SHL SUB DUP1 DUP3 GT ISZERO PUSH2 0x6174 JUMPI PUSH1 0x0 DUP1 REVERT JUMPDEST PUSH2 0x6180 DUP9 DUP4 DUP10 ADD PUSH2 0x60FC JUMP JUMPDEST SWAP1 SWAP7 POP SWAP5 POP PUSH1 0x20 DUP8 ADD CALLDATALOAD SWAP2 POP DUP1 DUP3 GT ISZERO PUSH2 0x6199 JUMPI PUSH1 0x0 DUP1 REVERT JUMPDEST POP PUSH2 0x61A6 DUP8 DUP3 DUP9 ADD PUSH2 0x60FC JUMP JUMPDEST SWAP6 SWAP9 SWAP5 SWAP8 POP SWAP6 POP POP POP POP JUMP JUMPDEST PUSH1 0x1 PUSH1 0x1 PUSH1 0xA0 SHL SUB SWAP3 SWAP1 SWAP3 AND DUP3 MSTORE PUSH1 0x20 DUP3 ADD MSTORE PUSH1 0x40 ADD SWAP1 JUMP JUMPDEST PUSH1 0x0 DUP1 PUSH1 0x0 DUP1 PUSH1 0x80 DUP6 DUP8 SUB SLT ISZERO PUSH2 0x61E1 JUMPI PUSH1 0x0 DUP1 REVERT JUMPDEST PUSH2 0x61EA DUP6 PUSH2 0x5F51 JUMP JUMPDEST SWAP4 POP PUSH2 0x61F8 PUSH1 0x20 DUP7 ADD PUSH2 0x5F51 JUMP JUMPDEST SWAP3 POP PUSH2 0x6206 PUSH1 0x40 DUP7 ADD PUSH2 0x5F51 JUMP JUMPDEST SWAP2 POP PUSH2 0x6214 PUSH1 0x60 DUP7 ADD PUSH2 0x5F51 JUMP JUMPDEST SWAP1 POP SWAP3 SWAP6 SWAP2 SWAP5 POP SWAP3 POP JUMP JUMPDEST PUSH1 0x0 JUMPDEST DUP4 DUP2 LT ISZERO PUSH2 0x623A JUMPI DUP2 DUP2 ADD MLOAD DUP4 DUP3 ADD MSTORE PUSH1 0x20 ADD PUSH2 0x6222 JUMP JUMPDEST POP POP PUSH1 0x0 SWAP2 ADD MSTORE JUMP JUMPDEST PUSH1 0x20 DUP2 MSTORE PUSH1 0x0 DUP3 MLOAD DUP1 PUSH1 0x20 DUP5 ADD MSTORE PUSH2 0x6262 DUP2 PUSH1 0x40 DUP6 ADD PUSH1 0x20 DUP8 ADD PUSH2 0x621F JUMP JUMPDEST PUSH1 0x1F ADD PUSH1 0x1F NOT AND SWAP2 SWAP1 SWAP2 ADD PUSH1 0x40 ADD SWAP3 SWAP2 POP POP JUMP JUMPDEST PUSH1 0x0 DUP1 PUSH1 0x0 DUP1 PUSH1 0x0 DUP1 PUSH1 0xC0 DUP8 DUP10 SUB SLT ISZERO PUSH2 0x628F JUMPI PUSH1 0x0 DUP1 REVERT JUMPDEST PUSH2 0x6298 DUP8 PUSH2 0x5F51 JUMP JUMPDEST SWAP6 POP PUSH2 0x62A6 PUSH1 0x20 DUP9 ADD PUSH2 0x5F51 JUMP JUMPDEST SWAP5 POP PUSH2 0x62B4 PUSH1 0x40 DUP9 ADD PUSH2 0x5F51 JUMP JUMPDEST SWAP4 POP PUSH2 0x62C2 PUSH1 0x60 DUP9 ADD PUSH2 0x5F51 JUMP JUMPDEST SWAP3 POP PUSH2 0x62D0 PUSH1 0x80 DUP9 ADD PUSH2 0x5F51 JUMP JUMPDEST SWAP2 POP PUSH2 0x62DE PUSH1 0xA0 DUP9 ADD PUSH2 0x5F51 JUMP JUMPDEST SWAP1 POP SWAP3 SWAP6 POP SWAP3 SWAP6 POP SWAP3 SWAP6 JUMP JUMPDEST PUSH1 0x0 DUP1 PUSH1 0x0 PUSH1 0x60 DUP5 DUP7 SUB SLT ISZERO PUSH2 0x62FF JUMPI PUSH1 0x0 DUP1 REVERT JUMPDEST PUSH2 0x6308 DUP5 PUSH2 0x5F51 JUMP JUMPDEST SWAP3 POP PUSH2 0x6316 PUSH1 0x20 DUP6 ADD PUSH2 0x5F51 JUMP JUMPDEST SWAP2 POP PUSH1 0x40 DUP5 ADD CALLDATALOAD SWAP1 POP SWAP3 POP SWAP3 POP SWAP3 JUMP JUMPDEST PUSH1 0x0 DUP1 PUSH1 0x0 DUP1 PUSH1 0x0 DUP1 PUSH1 0xC0 DUP8 DUP10 SUB SLT ISZERO PUSH2 0x633F JUMPI PUSH1 0x0 DUP1 REVERT JUMPDEST POP POP DUP5 CALLDATALOAD SWAP7 PUSH1 0x20 DUP7 ADD CALLDATALOAD SWAP7 POP PUSH1 0x40 DUP7 ADD CALLDATALOAD SWAP6 PUSH1 0x60 DUP2 ADD CALLDATALOAD SWAP6 POP PUSH1 0x80 DUP2 ADD CALLDATALOAD SWAP5 POP PUSH1 0xA0 ADD CALLDATALOAD SWAP3 POP SWAP1 POP JUMP JUMPDEST PUSH1 0x20 DUP1 DUP3 MSTORE DUP3 MLOAD DUP3 DUP3 ADD DUP2 SWAP1 MSTORE PUSH1 0x0 SWAP2 SWAP1 DUP5 DUP3 ADD SWAP1 PUSH1 0x40 DUP6 ADD SWAP1 DUP5 JUMPDEST DUP2 DUP2 LT ISZERO PUSH2 0x63AA JUMPI DUP4 MLOAD PUSH1 0x1 PUSH1 0x1 PUSH1 0xA0 SHL SUB AND DUP4 MSTORE SWAP3 DUP5 ADD SWAP3 SWAP2 DUP5 ADD SWAP2 PUSH1 0x1 ADD PUSH2 0x6385 JUMP JUMPDEST POP SWAP1 SWAP7 SWAP6 POP POP POP POP POP POP JUMP JUMPDEST PUSH1 0x0 DUP1 PUSH1 0x0 DUP1 PUSH1 0x80 DUP6 DUP8 SUB SLT ISZERO PUSH2 0x63CC JUMPI PUSH1 0x0 DUP1 REVERT JUMPDEST PUSH2 0x63D5 DUP6 PUSH2 0x5F51 JUMP JUMPDEST SWAP4 POP PUSH1 0x20 DUP6 ADD CALLDATALOAD SWAP3 POP PUSH2 0x63EA PUSH1 0x40 DUP7 ADD PUSH2 0x5F51 JUMP JUMPDEST SWAP4 SWAP7 SWAP3 SWAP6 POP SWAP3 SWAP4 PUSH1 0x60 ADD CALLDATALOAD SWAP3 POP POP JUMP JUMPDEST PUSH1 0x20 DUP1 DUP3 MSTORE PUSH1 0x12 SWAP1 DUP3 ADD MSTORE PUSH18 0x10DBDB9D1C9858DD081A5CC81C185D5CD959 PUSH1 0x72 SHL PUSH1 0x40 DUP3 ADD MSTORE PUSH1 0x60 ADD SWAP1 JUMP JUMPDEST PUSH1 0x1 PUSH1 0x1 PUSH1 0xA0 SHL SUB SWAP4 DUP5 AND DUP2 MSTORE SWAP2 SWAP1 SWAP3 AND PUSH1 0x20 DUP3 ADD MSTORE PUSH1 0x40 DUP2 ADD SWAP2 SWAP1 SWAP2 MSTORE PUSH1 0x60 ADD SWAP1 JUMP JUMPDEST PUSH1 0x0 PUSH1 0x20 DUP3 DUP5 SUB SLT ISZERO PUSH2 0x645C JUMPI PUSH1 0x0 DUP1 REVERT JUMPDEST DUP2 MLOAD PUSH2 0x5500 DUP2 PUSH2 0x5F0A JUMP JUMPDEST PUSH4 0x4E487B71 PUSH1 0xE0 SHL PUSH1 0x0 MSTORE PUSH1 0x11 PUSH1 0x4 MSTORE PUSH1 0x24 PUSH1 0x0 REVERT JUMPDEST DUP1 DUP3 MUL DUP2 ISZERO DUP3 DUP3 DIV DUP5 EQ OR PUSH2 0x5BCE JUMPI PUSH2 0x5BCE PUSH2 0x6467 JUMP JUMPDEST DUP1 DUP3 ADD DUP1 DUP3 GT ISZERO PUSH2 0x5BCE JUMPI PUSH2 0x5BCE PUSH2 0x6467 JUMP JUMPDEST PUSH1 0x0 DUP3 PUSH2 0x64C4 JUMPI PUSH4 0x4E487B71 PUSH1 0xE0 SHL PUSH1 0x0 MSTORE PUSH1 0x12 PUSH1 0x4 MSTORE PUSH1 0x24 PUSH1 0x0 REVERT JUMPDEST POP DIV SWAP1 JUMP JUMPDEST DUP2 DUP2 SUB DUP2 DUP2 GT ISZERO PUSH2 0x5BCE JUMPI PUSH2 0x5BCE PUSH2 0x6467 JUMP JUMPDEST PUSH1 0x0 PUSH1 0x20 DUP3 DUP5 SUB SLT ISZERO PUSH2 0x64EE JUMPI PUSH1 0x0 DUP1 REVERT JUMPDEST POP MLOAD SWAP2 SWAP1 POP JUMP JUMPDEST PUSH1 0x20 DUP1 DUP3 MSTORE PUSH1 0x8 SWAP1 DUP3 ADD MSTORE PUSH8 0x111A5CD8589B1959 PUSH1 0xC2 SHL PUSH1 0x40 DUP3 ADD MSTORE PUSH1 0x60 ADD SWAP1 JUMP JUMPDEST PUSH4 0x4E487B71 PUSH1 0xE0 SHL PUSH1 0x0 MSTORE PUSH1 0x32 PUSH1 0x4 MSTORE PUSH1 0x24 PUSH1 0x0 REVERT JUMPDEST SWAP2 DUP3 MSTORE PUSH1 0xFF AND PUSH1 0x20 DUP3 ADD MSTORE PUSH1 0x40 ADD SWAP1 JUMP JUMPDEST SWAP4 DUP5 MSTORE PUSH1 0x20 DUP5 ADD SWAP3 SWAP1 SWAP3 MSTORE PUSH1 0xFF AND PUSH1 0x40 DUP4 ADD MSTORE PUSH1 0x60 DUP3 ADD MSTORE PUSH1 0x80 ADD SWAP1 JUMP JUMPDEST PUSH1 0x0 PUSH1 0x1 DUP3 ADD PUSH2 0x656E JUMPI PUSH2 0x656E PUSH2 0x6467 JUMP JUMPDEST POP PUSH1 0x1 ADD SWAP1 JUMP JUMPDEST SWAP3 DUP4 MSTORE PUSH1 0xFF SWAP2 SWAP1 SWAP2 AND PUSH1 0x20 DUP4 ADD MSTORE PUSH1 0x40 DUP3 ADD MSTORE PUSH1 0x60 ADD SWAP1 JUMP JUMPDEST PUSH1 0x0 DUP2 PUSH2 0x659D JUMPI PUSH2 0x659D PUSH2 0x6467 JUMP JUMPDEST POP PUSH1 0x0 NOT ADD SWAP1 JUMP JUMPDEST PUSH1 0x0 DUP3 MLOAD PUSH2 0x65B7 DUP2 DUP5 PUSH1 0x20 DUP8 ADD PUSH2 0x621F JUMP JUMPDEST SWAP2 SWAP1 SWAP2 ADD SWAP3 SWAP2 POP POP JUMP INVALID SWAP12 EXTCODECOPY 0xC7 EQ DUP3 LOG1 0xB2 0xEE 0xBE PUSH23 0x4A739F46F1FE99291FD0183BE81951532B29D0C9C8DA6F 0xCE 0xBD EXP 0x2C 0xE9 DUP12 0x28 0xCB CODECOPY SAR PUSH1 0x8 0xBB 0xC7 PUSH10 0x378C9A4919628E11639C 0xB5 PUSH22 0xCD320FCCA0EEA20E678CB42233C1C456C84CEDCE7EA5 EXTCODEHASH LOG3 PUSH1 0xBB PUSH18 0xBF3B761B7609567770360894A13BA1A32106 PUSH8 0xC828492DB98DCA3E KECCAK256 PUSH23 0xCC3735A920A3CA505D382BBCB5987AAB1AFD379F6695F1 MOD DUP9 PUSH10 0xEE8CA6A0D02304C57935 0xA9 0xCC RETURNDATASIZE RETURNDATACOPY LOG2 0xE5 0x1E 0x4D RETURN DUP2 PC BALANCE GASLIMIT 0xE9 SIGNEXTEND DUP3 0xCC 0x5E MSTORE SWAP12 DELEGATECALL 0xFC 0x4D 0xE PREVRANDAO CODECOPY PUSH18 0x74CDF145C4251AC33EF195A424F3A670CD3A 0xF7 0xD6 0x4B BASEFEE DUP10 0x26 DUP9 ADDMOD DUP10 0xD0 DUP11 DUP6 DUP6 LOG1 CODESIZE SELFDESTRUCT GASLIMIT MSTORE 0x27 0xAF PUSH8 0x37339A1EC262A264 PUSH10 0x7066735822122076127D DUP3 REVERT 0xB0 0x4A SAR MSTORE SELFDESTRUCT TIMESTAMP SWAP13 SWAP6 0xBE SWAP13 DELEGATECALL DIV PUSH25 0xA597A4A17026AECC8E08A5CA219864736F6C63430008160033 "},"methodIdentifiers":{"MAX_PRICE_IMPACT()":"6839b5fa","MIN_LIQUIDITY()":"21b77d63","REWARD_DIFFERENTIAL()":"88481b61","REWARD_DIRECT()":"0e2be210","REWARD_DYNAMIC()":"8a859a85","REWARD_LEVEL()":"8c0eaa48","REWARD_STATIC()":"1427f616","SECONDS_IN_UNIT()":"488b5d97","UPGRADE_INTERFACE_VERSION()":"ad3cb1cc","addLiquidity(uint256,uint256)":"9cd441da","batchUpdateTeamCounts(address[],uint256[])":"74b0eecf","batchUpdateTeamVolumes(address[],uint256[])":"c3b369d7","bindReferrer(address)":"04f618cb","buyTicket(uint256)":"67dd74ca","buybackPercent()":"e4412f68","buybackWallet()":"deab8aea","claimRewards()":"372500ab","directReferrals(address,uint256)":"05ad3935","directRewardPercent()":"ccf61944","emergencyPause()":"51858e27","emergencyPaused()":"27c830a9","emergencyUnpause()":"4a4e3bd5","getDirectReferrals(address)":"d2c8e0e5","getJBCPrice()":"3a3ea2f0","getLevel(uint256)":"86481d40","getLevelByTeamCount(uint256)":"47194001","getLevelRewardLayers(uint256)":"182c84cc","initialize(address,address,address,address,address,address)":"cc2a9a5b","jbcToken()":"1788513c","lastBurnTime()":"e3067449","levelConfigs(uint256)":"21f483d3","levelRewardPercent()":"bd594dcf","levelRewardPool()":"b759936b","liquidityEnabled()":"b048a4bb","lpInjectionPercent()":"ceaa366d","lpInjectionWallet()":"88fd4d33","marketingPercent()":"d8020a18","marketingWallet()":"75f0a874","mcToken()":"95253992","nextStakeId()":"75506c96","nextTicketId()":"6031a52f","owner()":"8da5cb5b","priceOracle()":"2630c12f","proxiableUUID()":"52d1902d","redeem()":"be040fb0","redeemEnabled()":"d2f82536","redeemStake(uint256)":"10ff994d","redemptionFeePercent()":"dec7fa3b","renounceOwnership()":"715018a6","rescueTokens(address,address,uint256)":"cea9d26f","setDistributionConfig(uint256,uint256,uint256,uint256,uint256,uint256)":"d0f16470","setOperationalStatus(bool,bool)":"01d62efb","setPriceOracle(address)":"530e784f","setRedemptionFeePercent(uint256)":"ece71266","setSwapTaxes(uint256,uint256)":"90b0eb51","setTicketFlexibilityDuration(uint256)":"9d99eca4","setWallets(address,address,address,address)":"83672f3e","stakeLiquidity(uint256,uint256)":"4ea4c6b3","stakeOwner(uint256)":"3dbd46bd","stakePendingRewards(uint256,uint256)":"ac8f50aa","swapBuyTax()":"27f082f4","swapJBCToMC(uint256)":"52778b05","swapMCToJBC(uint256)":"0a5c4567","swapReserveJBC()":"1d0dac76","swapReserveMC()":"77a2a540","swapSellTax()":"9370b080","ticketFlexibilityDuration()":"6dd66827","ticketOwner(uint256)":"c2ff12fc","ticketPendingRewards(uint256,uint256)":"813380cd","transferOwnership(address)":"f2fde38b","treasuryPercent()":"04ef9d58","treasuryWallet()":"4626402b","upgradeToAndCall(address,bytes)":"4f1ef286","userInfo(address)":"1959a002","userStakes(address,uint256)":"b5d5b5fa","userTicket(address)":"8710bcaa","withdrawLevelRewardPool(address,uint256)":"99b6024d","withdrawSwapReserves(address,uint256,address,uint256)":"d4f00142"}},"storageLayout":{"storage":[{"astId":1729,"contract":"contracts/JinbaoProtocol.sol:JinbaoProtocol","label":"mcToken","offset":0,"slot":"0","type":"t_contract(IERC20)1232"},{"astId":1732,"contract":"contracts/JinbaoProtocol.sol:JinbaoProtocol","label":"jbcToken","offset":0,"slot":"1","type":"t_contract(IJBC)1653"},{"astId":1734,"contract":"contracts/JinbaoProtocol.sol:JinbaoProtocol","label":"marketingWallet","offset":0,"slot":"2","type":"t_address"},{"astId":1736,"contract":"contracts/JinbaoProtocol.sol:JinbaoProtocol","label":"treasuryWallet","offset":0,"slot":"3","type":"t_address"},{"astId":1738,"contract":"contracts/JinbaoProtocol.sol:JinbaoProtocol","label":"lpInjectionWallet","offset":0,"slot":"4","type":"t_address"},{"astId":1740,"contract":"contracts/JinbaoProtocol.sol:JinbaoProtocol","label":"buybackWallet","offset":0,"slot":"5","type":"t_address"},{"astId":1745,"contract":"contracts/JinbaoProtocol.sol:JinbaoProtocol","label":"directRewardPercent","offset":0,"slot":"6","type":"t_uint256"},{"astId":1747,"contract":"contracts/JinbaoProtocol.sol:JinbaoProtocol","label":"levelRewardPercent","offset":0,"slot":"7","type":"t_uint256"},{"astId":1749,"contract":"contracts/JinbaoProtocol.sol:JinbaoProtocol","label":"marketingPercent","offset":0,"slot":"8","type":"t_uint256"},{"astId":1751,"contract":"contracts/JinbaoProtocol.sol:JinbaoProtocol","label":"buybackPercent","offset":0,"slot":"9","type":"t_uint256"},{"astId":1753,"contract":"contracts/JinbaoProtocol.sol:JinbaoProtocol","label":"lpInjectionPercent","offset":0,"slot":"10","type":"t_uint256"},{"astId":1755,"contract":"contracts/JinbaoProtocol.sol:JinbaoProtocol","label":"treasuryPercent","offset":0,"slot":"11","type":"t_uint256"},{"astId":1757,"contract":"contracts/JinbaoProtocol.sol:JinbaoProtocol","label":"redemptionFeePercent","offset":0,"slot":"12","type":"t_uint256"},{"astId":1759,"contract":"contracts/JinbaoProtocol.sol:JinbaoProtocol","label":"swapBuyTax","offset":0,"slot":"13","type":"t_uint256"},{"astId":1761,"contract":"contracts/JinbaoProtocol.sol:JinbaoProtocol","label":"swapSellTax","offset":0,"slot":"14","type":"t_uint256"},{"astId":1781,"contract":"contracts/JinbaoProtocol.sol:JinbaoProtocol","label":"userInfo","offset":0,"slot":"15","type":"t_mapping(t_address,t_struct(UserInfo)1692_storage)"},{"astId":1786,"contract":"contracts/JinbaoProtocol.sol:JinbaoProtocol","label":"userTicket","offset":0,"slot":"16","type":"t_mapping(t_address,t_struct(Ticket)1714_storage)"},{"astId":1792,"contract":"contracts/JinbaoProtocol.sol:JinbaoProtocol","label":"userStakes","offset":0,"slot":"17","type":"t_mapping(t_address,t_array(t_struct(Stake)1705_storage)dyn_storage)"},{"astId":1797,"contract":"contracts/JinbaoProtocol.sol:JinbaoProtocol","label":"directReferrals","offset":0,"slot":"18","type":"t_mapping(t_address,t_array(t_address)dyn_storage)"},{"astId":1803,"contract":"contracts/JinbaoProtocol.sol:JinbaoProtocol","label":"ticketPendingRewards","offset":0,"slot":"19","type":"t_mapping(t_uint256,t_array(t_struct(PendingReward)1719_storage)dyn_storage)"},{"astId":1814,"contract":"contracts/JinbaoProtocol.sol:JinbaoProtocol","label":"levelConfigs","offset":0,"slot":"20","type":"t_array(t_struct(LevelConfig)1810_storage)dyn_storage"},{"astId":1816,"contract":"contracts/JinbaoProtocol.sol:JinbaoProtocol","label":"ticketFlexibilityDuration","offset":0,"slot":"21","type":"t_uint256"},{"astId":1818,"contract":"contracts/JinbaoProtocol.sol:JinbaoProtocol","label":"liquidityEnabled","offset":0,"slot":"22","type":"t_bool"},{"astId":1820,"contract":"contracts/JinbaoProtocol.sol:JinbaoProtocol","label":"redeemEnabled","offset":1,"slot":"22","type":"t_bool"},{"astId":1822,"contract":"contracts/JinbaoProtocol.sol:JinbaoProtocol","label":"swapReserveMC","offset":0,"slot":"23","type":"t_uint256"},{"astId":1824,"contract":"contracts/JinbaoProtocol.sol:JinbaoProtocol","label":"swapReserveJBC","offset":0,"slot":"24","type":"t_uint256"},{"astId":1834,"contract":"contracts/JinbaoProtocol.sol:JinbaoProtocol","label":"nextTicketId","offset":0,"slot":"25","type":"t_uint256"},{"astId":1836,"contract":"contracts/JinbaoProtocol.sol:JinbaoProtocol","label":"nextStakeId","offset":0,"slot":"26","type":"t_uint256"},{"astId":1838,"contract":"contracts/JinbaoProtocol.sol:JinbaoProtocol","label":"lastBurnTime","offset":0,"slot":"27","type":"t_uint256"},{"astId":1842,"contract":"contracts/JinbaoProtocol.sol:JinbaoProtocol","label":"ticketOwner","offset":0,"slot":"28","type":"t_mapping(t_uint256,t_address)"},{"astId":1848,"contract":"contracts/JinbaoProtocol.sol:JinbaoProtocol","label":"stakePendingRewards","offset":0,"slot":"29","type":"t_mapping(t_uint256,t_array(t_struct(PendingReward)1719_storage)dyn_storage)"},{"astId":1852,"contract":"contracts/JinbaoProtocol.sol:JinbaoProtocol","label":"stakeOwner","offset":0,"slot":"30","type":"t_mapping(t_uint256,t_address)"},{"astId":1854,"contract":"contracts/JinbaoProtocol.sol:JinbaoProtocol","label":"levelRewardPool","offset":0,"slot":"31","type":"t_uint256"},{"astId":1858,"contract":"contracts/JinbaoProtocol.sol:JinbaoProtocol","label":"__gap","offset":0,"slot":"32","type":"t_array(t_uint256)47_storage"},{"astId":1860,"contract":"contracts/JinbaoProtocol.sol:JinbaoProtocol","label":"emergencyPaused","offset":0,"slot":"79","type":"t_bool"},{"astId":1862,"contract":"contracts/JinbaoProtocol.sol:JinbaoProtocol","label":"priceOracle","offset":1,"slot":"79","type":"t_address"}],"types":{"t_address":{"encoding":"inplace","label":"address","numberOfBytes":"20"},"t_array(t_address)dyn_storage":{"base":"t_address","encoding":"dynamic_array","label":"address[]","numberOfBytes":"32"},"t_array(t_struct(LevelConfig)1810_storage)dyn_storage":{"base":"t_struct(LevelConfig)1810_storage","encoding":"dynamic_array","label":"struct JinbaoProtocol.LevelConfig[]","numberOfBytes":"32"},"t_array(t_struct(PendingReward)1719_storage)dyn_storage":{"base":"t_struct(PendingReward)1719_storage","encoding":"dynamic_array","label":"struct JinbaoProtocol.PendingReward[]","numberOfBytes":"32"},"t_array(t_struct(Stake)1705_storage)dyn_storage":{"base":"t_struct(Stake)1705_storage","encoding":"dynamic_array","label":"struct JinbaoProtocol.Stake[]","numberOfBytes":"32"},"t_array(t_uint256)47_storage":{"base":"t_uint256","encoding":"inplace","label":"uint256[47]","numberOfBytes":"1504"},"t_bool":{"encoding":"inplace","label":"bool","numberOfBytes":"1"},"t_contract(IERC20)1232":{"encoding":"inplace","label":"contract IERC20","numberOfBytes":"20"},"t_contract(IJBC)1653":{"encoding":"inplace","label":"contract IJBC","numberOfBytes":"20"},"t_mapping(t_address,t_array(t_address)dyn_storage)":{"encoding":"mapping","key":"t_address","label":"mapping(address => address[])","numberOfBytes":"32","value":"t_array(t_address)dyn_storage"},"t_mapping(t_address,t_array(t_struct(Stake)1705_storage)dyn_storage)":{"encoding":"mapping","key":"t_address","label":"mapping(address => struct JinbaoProtocol.Stake[])","numberOfBytes":"32","value":"t_array(t_struct(Stake)1705_storage)dyn_storage"},"t_mapping(t_address,t_struct(Ticket)1714_storage)":{"encoding":"mapping","key":"t_address","label":"mapping(address => struct JinbaoProtocol.Ticket)","numberOfBytes":"32","value":"t_struct(Ticket)1714_storage"},"t_mapping(t_address,t_struct(UserInfo)1692_storage)":{"encoding":"mapping","key":"t_address","label":"mapping(address => struct JinbaoProtocol.UserInfo)","numberOfBytes":"32","value":"t_struct(UserInfo)1692_storage"},"t_mapping(t_uint256,t_address)":{"encoding":"mapping","key":"t_uint256","label":"mapping(uint256 => address)","numberOfBytes":"32","value":"t_address"},"t_mapping(t_uint256,t_array(t_struct(PendingReward)1719_storage)dyn_storage)":{"encoding":"mapping","key":"t_uint256","label":"mapping(uint256 => struct JinbaoProtocol.PendingReward[])","numberOfBytes":"32","value":"t_array(t_struct(PendingReward)1719_storage)dyn_storage"},"t_struct(LevelConfig)1810_storage":{"encoding":"inplace","label":"struct JinbaoProtocol.LevelConfig","members":[{"astId":1805,"contract":"contracts/JinbaoProtocol.sol:JinbaoProtocol","label":"minDirects","offset":0,"slot":"0","type":"t_uint256"},{"astId":1807,"contract":"contracts/JinbaoProtocol.sol:JinbaoProtocol","label":"level","offset":0,"slot":"1","type":"t_uint256"},{"astId":1809,"contract":"contracts/JinbaoProtocol.sol:JinbaoProtocol","label":"percent","offset":0,"slot":"2","type":"t_uint256"}],"numberOfBytes":"96"},"t_struct(PendingReward)1719_storage":{"encoding":"inplace","label":"struct JinbaoProtocol.PendingReward","members":[{"astId":1716,"contract":"contracts/JinbaoProtocol.sol:JinbaoProtocol","label":"upline","offset":0,"slot":"0","type":"t_address"},{"astId":1718,"contract":"contracts/JinbaoProtocol.sol:JinbaoProtocol","label":"amount","offset":0,"slot":"1","type":"t_uint256"}],"numberOfBytes":"64"},"t_struct(Stake)1705_storage":{"encoding":"inplace","label":"struct JinbaoProtocol.Stake","members":[{"astId":1694,"contract":"contracts/JinbaoProtocol.sol:JinbaoProtocol","label":"id","offset":0,"slot":"0","type":"t_uint256"},{"astId":1696,"contract":"contracts/JinbaoProtocol.sol:JinbaoProtocol","label":"amount","offset":0,"slot":"1","type":"t_uint256"},{"astId":1698,"contract":"contracts/JinbaoProtocol.sol:JinbaoProtocol","label":"startTime","offset":0,"slot":"2","type":"t_uint256"},{"astId":1700,"contract":"contracts/JinbaoProtocol.sol:JinbaoProtocol","label":"cycleDays","offset":0,"slot":"3","type":"t_uint256"},{"astId":1702,"contract":"contracts/JinbaoProtocol.sol:JinbaoProtocol","label":"active","offset":0,"slot":"4","type":"t_bool"},{"astId":1704,"contract":"contracts/JinbaoProtocol.sol:JinbaoProtocol","label":"paid","offset":0,"slot":"5","type":"t_uint256"}],"numberOfBytes":"192"},"t_struct(Ticket)1714_storage":{"encoding":"inplace","label":"struct JinbaoProtocol.Ticket","members":[{"astId":1707,"contract":"contracts/JinbaoProtocol.sol:JinbaoProtocol","label":"ticketId","offset":0,"slot":"0","type":"t_uint256"},{"astId":1709,"contract":"contracts/JinbaoProtocol.sol:JinbaoProtocol","label":"amount","offset":0,"slot":"1","type":"t_uint256"},{"astId":1711,"contract":"contracts/JinbaoProtocol.sol:JinbaoProtocol","label":"purchaseTime","offset":0,"slot":"2","type":"t_uint256"},{"astId":1713,"contract":"contracts/JinbaoProtocol.sol:JinbaoProtocol","label":"exited","offset":0,"slot":"3","type":"t_bool"}],"numberOfBytes":"128"},"t_struct(UserInfo)1692_storage":{"encoding":"inplace","label":"struct JinbaoProtocol.UserInfo","members":[{"astId":1671,"contract":"contracts/JinbaoProtocol.sol:JinbaoProtocol","label":"referrer","offset":0,"slot":"0","type":"t_address"},{"astId":1673,"contract":"contracts/JinbaoProtocol.sol:JinbaoProtocol","label":"activeDirects","offset":0,"slot":"1","type":"t_uint256"},{"astId":1675,"contract":"contracts/JinbaoProtocol.sol:JinbaoProtocol","label":"teamCount","offset":0,"slot":"2","type":"t_uint256"},{"astId":1677,"contract":"contracts/JinbaoProtocol.sol:JinbaoProtocol","label":"totalRevenue","offset":0,"slot":"3","type":"t_uint256"},{"astId":1679,"contract":"contracts/JinbaoProtocol.sol:JinbaoProtocol","label":"currentCap","offset":0,"slot":"4","type":"t_uint256"},{"astId":1681,"contract":"contracts/JinbaoProtocol.sol:JinbaoProtocol","label":"isActive","offset":0,"slot":"5","type":"t_bool"},{"astId":1683,"contract":"contracts/JinbaoProtocol.sol:JinbaoProtocol","label":"refundFeeAmount","offset":0,"slot":"6","type":"t_uint256"},{"astId":1685,"contract":"contracts/JinbaoProtocol.sol:JinbaoProtocol","label":"teamTotalVolume","offset":0,"slot":"7","type":"t_uint256"},{"astId":1687,"contract":"contracts/JinbaoProtocol.sol:JinbaoProtocol","label":"teamTotalCap","offset":0,"slot":"8","type":"t_uint256"},{"astId":1689,"contract":"contracts/JinbaoProtocol.sol:JinbaoProtocol","label":"maxTicketAmount","offset":0,"slot":"9","type":"t_uint256"},{"astId":1691,"contract":"contracts/JinbaoProtocol.sol:JinbaoProtocol","label":"maxSingleTicketAmount","offset":0,"slot":"10","type":"t_uint256"}],"numberOfBytes":"352"},"t_uint256":{"encoding":"inplace","label":"uint256","numberOfBytes":"32"}}}}}}