{
  "_format": "hh-sol-artifact-1",
  "contractName": "JinbaoProtocolComplete",
  "sourceName": "contracts/JinbaoProtocolComplete.sol",
  "abi": [
    {
      "inputs": [],
      "stateMutability": "nonpayable",
      "type": "constructor"
    },
    {
      "inputs": [
        {
          "internalType": "address",
          "name": "target",
          "type": "address"
        }
      ],
      "name": "AddressEmptyCode",
      "type": "error"
    },
    {
      "inputs": [
        {
          "internalType": "address",
          "name": "implementation",
          "type": "address"
        }
      ],
      "name": "ERC1967InvalidImplementation",
      "type": "error"
    },
    {
      "inputs": [],
      "name": "ERC1967NonPayable",
      "type": "error"
    },
    {
      "inputs": [],
      "name": "FailedCall",
      "type": "error"
    },
    {
      "inputs": [],
      "name": "InvalidInitialization",
      "type": "error"
    },
    {
      "inputs": [],
      "name": "NotInitializing",
      "type": "error"
    },
    {
      "inputs": [
        {
          "internalType": "address",
          "name": "owner",
          "type": "address"
        }
      ],
      "name": "OwnableInvalidOwner",
      "type": "error"
    },
    {
      "inputs": [
        {
          "internalType": "address",
          "name": "account",
          "type": "address"
        }
      ],
      "name": "OwnableUnauthorizedAccount",
      "type": "error"
    },
    {
      "inputs": [],
      "name": "ReentrancyGuardReentrantCall",
      "type": "error"
    },
    {
      "inputs": [],
      "name": "UUPSUnauthorizedCallContext",
      "type": "error"
    },
    {
      "inputs": [
        {
          "internalType": "bytes32",
          "name": "slot",
          "type": "bytes32"
        }
      ],
      "name": "UUPSUnsupportedProxiableUUID",
      "type": "error"
    },
    {
      "anonymous": false,
      "inputs": [
        {
          "indexed": true,
          "internalType": "address",
          "name": "user",
          "type": "address"
        },
        {
          "indexed": true,
          "internalType": "address",
          "name": "referrer",
          "type": "address"
        }
      ],
      "name": "BoundReferrer",
      "type": "event"
    },
    {
      "anonymous": false,
      "inputs": [
        {
          "indexed": false,
          "internalType": "uint64",
          "name": "version",
          "type": "uint64"
        }
      ],
      "name": "Initialized",
      "type": "event"
    },
    {
      "anonymous": false,
      "inputs": [
        {
          "indexed": true,
          "internalType": "address",
          "name": "user",
          "type": "address"
        },
        {
          "indexed": false,
          "internalType": "uint256",
          "name": "amount",
          "type": "uint256"
        },
        {
          "indexed": false,
          "internalType": "uint256",
          "name": "cycleDays",
          "type": "uint256"
        },
        {
          "indexed": false,
          "internalType": "uint256",
          "name": "stakeId",
          "type": "uint256"
        }
      ],
      "name": "LiquidityStaked",
      "type": "event"
    },
    {
      "anonymous": false,
      "inputs": [
        {
          "indexed": true,
          "internalType": "address",
          "name": "previousOwner",
          "type": "address"
        },
        {
          "indexed": true,
          "internalType": "address",
          "name": "newOwner",
          "type": "address"
        }
      ],
      "name": "OwnershipTransferred",
      "type": "event"
    },
    {
      "anonymous": false,
      "inputs": [
        {
          "indexed": true,
          "internalType": "address",
          "name": "user",
          "type": "address"
        },
        {
          "indexed": false,
          "internalType": "uint256",
          "name": "principal",
          "type": "uint256"
        },
        {
          "indexed": false,
          "internalType": "uint256",
          "name": "fee",
          "type": "uint256"
        }
      ],
      "name": "Redeemed",
      "type": "event"
    },
    {
      "anonymous": false,
      "inputs": [
        {
          "indexed": true,
          "internalType": "address",
          "name": "user",
          "type": "address"
        },
        {
          "indexed": false,
          "internalType": "uint256",
          "name": "amount",
          "type": "uint256"
        },
        {
          "indexed": false,
          "internalType": "uint256",
          "name": "cappedAmount",
          "type": "uint256"
        }
      ],
      "name": "RewardCapped",
      "type": "event"
    },
    {
      "anonymous": false,
      "inputs": [
        {
          "indexed": true,
          "internalType": "address",
          "name": "user",
          "type": "address"
        },
        {
          "indexed": false,
          "internalType": "uint256",
          "name": "mcAmount",
          "type": "uint256"
        },
        {
          "indexed": false,
          "internalType": "uint256",
          "name": "jbcAmount",
          "type": "uint256"
        },
        {
          "indexed": false,
          "internalType": "uint8",
          "name": "rewardType",
          "type": "uint8"
        },
        {
          "indexed": false,
          "internalType": "uint256",
          "name": "ticketId",
          "type": "uint256"
        }
      ],
      "name": "RewardClaimed",
      "type": "event"
    },
    {
      "anonymous": false,
      "inputs": [
        {
          "indexed": true,
          "internalType": "address",
          "name": "user",
          "type": "address"
        },
        {
          "indexed": false,
          "internalType": "uint256",
          "name": "amount",
          "type": "uint256"
        },
        {
          "indexed": false,
          "internalType": "uint8",
          "name": "rewardType",
          "type": "uint8"
        }
      ],
      "name": "RewardPaid",
      "type": "event"
    },
    {
      "anonymous": false,
      "inputs": [
        {
          "indexed": true,
          "internalType": "address",
          "name": "user",
          "type": "address"
        },
        {
          "indexed": false,
          "internalType": "uint256",
          "name": "oldCount",
          "type": "uint256"
        },
        {
          "indexed": false,
          "internalType": "uint256",
          "name": "newCount",
          "type": "uint256"
        }
      ],
      "name": "TeamCountUpdated",
      "type": "event"
    },
    {
      "anonymous": false,
      "inputs": [
        {
          "indexed": true,
          "internalType": "address",
          "name": "user",
          "type": "address"
        },
        {
          "indexed": false,
          "internalType": "uint256",
          "name": "amount",
          "type": "uint256"
        },
        {
          "indexed": false,
          "internalType": "uint256",
          "name": "ticketId",
          "type": "uint256"
        }
      ],
      "name": "TicketPurchased",
      "type": "event"
    },
    {
      "anonymous": false,
      "inputs": [
        {
          "indexed": true,
          "internalType": "address",
          "name": "implementation",
          "type": "address"
        }
      ],
      "name": "Upgraded",
      "type": "event"
    },
    {
      "anonymous": false,
      "inputs": [
        {
          "indexed": true,
          "internalType": "address",
          "name": "user",
          "type": "address"
        },
        {
          "indexed": false,
          "internalType": "uint256",
          "name": "oldLevel",
          "type": "uint256"
        },
        {
          "indexed": false,
          "internalType": "uint256",
          "name": "newLevel",
          "type": "uint256"
        },
        {
          "indexed": false,
          "internalType": "uint256",
          "name": "teamCount",
          "type": "uint256"
        }
      ],
      "name": "UserLevelChanged",
      "type": "event"
    },
    {
      "inputs": [],
      "name": "MAX_PRICE_IMPACT",
      "outputs": [
        {
          "internalType": "uint256",
          "name": "",
          "type": "uint256"
        }
      ],
      "stateMutability": "view",
      "type": "function"
    },
    {
      "inputs": [],
      "name": "MIN_LIQUIDITY",
      "outputs": [
        {
          "internalType": "uint256",
          "name": "",
          "type": "uint256"
        }
      ],
      "stateMutability": "view",
      "type": "function"
    },
    {
      "inputs": [],
      "name": "REWARD_DIFFERENTIAL",
      "outputs": [
        {
          "internalType": "uint8",
          "name": "",
          "type": "uint8"
        }
      ],
      "stateMutability": "view",
      "type": "function"
    },
    {
      "inputs": [],
      "name": "REWARD_DIRECT",
      "outputs": [
        {
          "internalType": "uint8",
          "name": "",
          "type": "uint8"
        }
      ],
      "stateMutability": "view",
      "type": "function"
    },
    {
      "inputs": [],
      "name": "REWARD_DYNAMIC",
      "outputs": [
        {
          "internalType": "uint8",
          "name": "",
          "type": "uint8"
        }
      ],
      "stateMutability": "view",
      "type": "function"
    },
    {
      "inputs": [],
      "name": "REWARD_LEVEL",
      "outputs": [
        {
          "internalType": "uint8",
          "name": "",
          "type": "uint8"
        }
      ],
      "stateMutability": "view",
      "type": "function"
    },
    {
      "inputs": [],
      "name": "REWARD_STATIC",
      "outputs": [
        {
          "internalType": "uint8",
          "name": "",
          "type": "uint8"
        }
      ],
      "stateMutability": "view",
      "type": "function"
    },
    {
      "inputs": [],
      "name": "SECONDS_IN_UNIT",
      "outputs": [
        {
          "internalType": "uint256",
          "name": "",
          "type": "uint256"
        }
      ],
      "stateMutability": "view",
      "type": "function"
    },
    {
      "inputs": [],
      "name": "UPGRADE_INTERFACE_VERSION",
      "outputs": [
        {
          "internalType": "string",
          "name": "",
          "type": "string"
        }
      ],
      "stateMutability": "view",
      "type": "function"
    },
    {
      "inputs": [
        {
          "internalType": "uint256",
          "name": "mcAmount",
          "type": "uint256"
        },
        {
          "internalType": "uint256",
          "name": "jbcAmount",
          "type": "uint256"
        }
      ],
      "name": "addLiquidity",
      "outputs": [],
      "stateMutability": "nonpayable",
      "type": "function"
    },
    {
      "inputs": [
        {
          "internalType": "address",
          "name": "_referrer",
          "type": "address"
        }
      ],
      "name": "bindReferrer",
      "outputs": [],
      "stateMutability": "nonpayable",
      "type": "function"
    },
    {
      "inputs": [
        {
          "internalType": "uint256",
          "name": "amount",
          "type": "uint256"
        }
      ],
      "name": "buyTicket",
      "outputs": [],
      "stateMutability": "nonpayable",
      "type": "function"
    },
    {
      "inputs": [],
      "name": "buybackPercent",
      "outputs": [
        {
          "internalType": "uint256",
          "name": "",
          "type": "uint256"
        }
      ],
      "stateMutability": "view",
      "type": "function"
    },
    {
      "inputs": [],
      "name": "buybackWallet",
      "outputs": [
        {
          "internalType": "address",
          "name": "",
          "type": "address"
        }
      ],
      "stateMutability": "view",
      "type": "function"
    },
    {
      "inputs": [
        {
          "internalType": "uint256",
          "name": "teamCount",
          "type": "uint256"
        }
      ],
      "name": "calculateLevel",
      "outputs": [
        {
          "internalType": "uint256",
          "name": "level",
          "type": "uint256"
        },
        {
          "internalType": "uint256",
          "name": "percent",
          "type": "uint256"
        }
      ],
      "stateMutability": "pure",
      "type": "function"
    },
    {
      "inputs": [],
      "name": "claimRewards",
      "outputs": [],
      "stateMutability": "nonpayable",
      "type": "function"
    },
    {
      "inputs": [
        {
          "internalType": "address",
          "name": "",
          "type": "address"
        },
        {
          "internalType": "uint256",
          "name": "",
          "type": "uint256"
        }
      ],
      "name": "directReferrals",
      "outputs": [
        {
          "internalType": "address",
          "name": "",
          "type": "address"
        }
      ],
      "stateMutability": "view",
      "type": "function"
    },
    {
      "inputs": [],
      "name": "directRewardPercent",
      "outputs": [
        {
          "internalType": "uint256",
          "name": "",
          "type": "uint256"
        }
      ],
      "stateMutability": "view",
      "type": "function"
    },
    {
      "inputs": [],
      "name": "emergencyPaused",
      "outputs": [
        {
          "internalType": "bool",
          "name": "",
          "type": "bool"
        }
      ],
      "stateMutability": "view",
      "type": "function"
    },
    {
      "inputs": [
        {
          "internalType": "address",
          "name": "user",
          "type": "address"
        }
      ],
      "name": "getDirectReferrals",
      "outputs": [
        {
          "internalType": "address[]",
          "name": "",
          "type": "address[]"
        }
      ],
      "stateMutability": "view",
      "type": "function"
    },
    {
      "inputs": [
        {
          "internalType": "address",
          "name": "user",
          "type": "address"
        }
      ],
      "name": "getUserLevel",
      "outputs": [
        {
          "internalType": "uint256",
          "name": "level",
          "type": "uint256"
        },
        {
          "internalType": "uint256",
          "name": "percent",
          "type": "uint256"
        },
        {
          "internalType": "uint256",
          "name": "teamCount",
          "type": "uint256"
        }
      ],
      "stateMutability": "view",
      "type": "function"
    },
    {
      "inputs": [],
      "name": "jbcToken",
      "outputs": [
        {
          "internalType": "contract IJBC",
          "name": "",
          "type": "address"
        }
      ],
      "stateMutability": "view",
      "type": "function"
    },
    {
      "inputs": [],
      "name": "lastBurnTime",
      "outputs": [
        {
          "internalType": "uint256",
          "name": "",
          "type": "uint256"
        }
      ],
      "stateMutability": "view",
      "type": "function"
    },
    {
      "inputs": [],
      "name": "levelRewardPercent",
      "outputs": [
        {
          "internalType": "uint256",
          "name": "",
          "type": "uint256"
        }
      ],
      "stateMutability": "view",
      "type": "function"
    },
    {
      "inputs": [],
      "name": "levelRewardPool",
      "outputs": [
        {
          "internalType": "uint256",
          "name": "",
          "type": "uint256"
        }
      ],
      "stateMutability": "view",
      "type": "function"
    },
    {
      "inputs": [],
      "name": "liquidityEnabled",
      "outputs": [
        {
          "internalType": "bool",
          "name": "",
          "type": "bool"
        }
      ],
      "stateMutability": "view",
      "type": "function"
    },
    {
      "inputs": [],
      "name": "lpInjectionPercent",
      "outputs": [
        {
          "internalType": "uint256",
          "name": "",
          "type": "uint256"
        }
      ],
      "stateMutability": "view",
      "type": "function"
    },
    {
      "inputs": [],
      "name": "lpInjectionWallet",
      "outputs": [
        {
          "internalType": "address",
          "name": "",
          "type": "address"
        }
      ],
      "stateMutability": "view",
      "type": "function"
    },
    {
      "inputs": [],
      "name": "marketingPercent",
      "outputs": [
        {
          "internalType": "uint256",
          "name": "",
          "type": "uint256"
        }
      ],
      "stateMutability": "view",
      "type": "function"
    },
    {
      "inputs": [],
      "name": "marketingWallet",
      "outputs": [
        {
          "internalType": "address",
          "name": "",
          "type": "address"
        }
      ],
      "stateMutability": "view",
      "type": "function"
    },
    {
      "inputs": [],
      "name": "mcToken",
      "outputs": [
        {
          "internalType": "contract IERC20",
          "name": "",
          "type": "address"
        }
      ],
      "stateMutability": "view",
      "type": "function"
    },
    {
      "inputs": [],
      "name": "nextStakeId",
      "outputs": [
        {
          "internalType": "uint256",
          "name": "",
          "type": "uint256"
        }
      ],
      "stateMutability": "view",
      "type": "function"
    },
    {
      "inputs": [],
      "name": "nextTicketId",
      "outputs": [
        {
          "internalType": "uint256",
          "name": "",
          "type": "uint256"
        }
      ],
      "stateMutability": "view",
      "type": "function"
    },
    {
      "inputs": [],
      "name": "owner",
      "outputs": [
        {
          "internalType": "address",
          "name": "",
          "type": "address"
        }
      ],
      "stateMutability": "view",
      "type": "function"
    },
    {
      "inputs": [],
      "name": "priceOracle",
      "outputs": [
        {
          "internalType": "address",
          "name": "",
          "type": "address"
        }
      ],
      "stateMutability": "view",
      "type": "function"
    },
    {
      "inputs": [],
      "name": "proxiableUUID",
      "outputs": [
        {
          "internalType": "bytes32",
          "name": "",
          "type": "bytes32"
        }
      ],
      "stateMutability": "view",
      "type": "function"
    },
    {
      "inputs": [],
      "name": "redeemEnabled",
      "outputs": [
        {
          "internalType": "bool",
          "name": "",
          "type": "bool"
        }
      ],
      "stateMutability": "view",
      "type": "function"
    },
    {
      "inputs": [
        {
          "internalType": "uint256",
          "name": "stakeId",
          "type": "uint256"
        }
      ],
      "name": "redeemStake",
      "outputs": [],
      "stateMutability": "nonpayable",
      "type": "function"
    },
    {
      "inputs": [],
      "name": "redemptionFeePercent",
      "outputs": [
        {
          "internalType": "uint256",
          "name": "",
          "type": "uint256"
        }
      ],
      "stateMutability": "view",
      "type": "function"
    },
    {
      "inputs": [],
      "name": "renounceOwnership",
      "outputs": [],
      "stateMutability": "nonpayable",
      "type": "function"
    },
    {
      "inputs": [
        {
          "internalType": "bool",
          "name": "_liquidityEnabled",
          "type": "bool"
        },
        {
          "internalType": "bool",
          "name": "_redeemEnabled",
          "type": "bool"
        }
      ],
      "name": "setOperationalStatus",
      "outputs": [],
      "stateMutability": "nonpayable",
      "type": "function"
    },
    {
      "inputs": [
        {
          "internalType": "uint256",
          "name": "_fee",
          "type": "uint256"
        }
      ],
      "name": "setRedemptionFeePercent",
      "outputs": [],
      "stateMutability": "nonpayable",
      "type": "function"
    },
    {
      "inputs": [
        {
          "internalType": "uint256",
          "name": "amount",
          "type": "uint256"
        },
        {
          "internalType": "uint256",
          "name": "cycleDays",
          "type": "uint256"
        }
      ],
      "name": "stakeLiquidity",
      "outputs": [],
      "stateMutability": "nonpayable",
      "type": "function"
    },
    {
      "inputs": [
        {
          "internalType": "uint256",
          "name": "",
          "type": "uint256"
        }
      ],
      "name": "stakeOwner",
      "outputs": [
        {
          "internalType": "address",
          "name": "",
          "type": "address"
        }
      ],
      "stateMutability": "view",
      "type": "function"
    },
    {
      "inputs": [
        {
          "internalType": "uint256",
          "name": "",
          "type": "uint256"
        },
        {
          "internalType": "uint256",
          "name": "",
          "type": "uint256"
        }
      ],
      "name": "stakePendingRewards",
      "outputs": [
        {
          "internalType": "address",
          "name": "upline",
          "type": "address"
        },
        {
          "internalType": "uint256",
          "name": "amount",
          "type": "uint256"
        }
      ],
      "stateMutability": "view",
      "type": "function"
    },
    {
      "inputs": [],
      "name": "swapBuyTax",
      "outputs": [
        {
          "internalType": "uint256",
          "name": "",
          "type": "uint256"
        }
      ],
      "stateMutability": "view",
      "type": "function"
    },
    {
      "inputs": [],
      "name": "swapReserveJBC",
      "outputs": [
        {
          "internalType": "uint256",
          "name": "",
          "type": "uint256"
        }
      ],
      "stateMutability": "view",
      "type": "function"
    },
    {
      "inputs": [],
      "name": "swapReserveMC",
      "outputs": [
        {
          "internalType": "uint256",
          "name": "",
          "type": "uint256"
        }
      ],
      "stateMutability": "view",
      "type": "function"
    },
    {
      "inputs": [],
      "name": "swapSellTax",
      "outputs": [
        {
          "internalType": "uint256",
          "name": "",
          "type": "uint256"
        }
      ],
      "stateMutability": "view",
      "type": "function"
    },
    {
      "inputs": [],
      "name": "ticketFlexibilityDuration",
      "outputs": [
        {
          "internalType": "uint256",
          "name": "",
          "type": "uint256"
        }
      ],
      "stateMutability": "view",
      "type": "function"
    },
    {
      "inputs": [
        {
          "internalType": "uint256",
          "name": "",
          "type": "uint256"
        }
      ],
      "name": "ticketOwner",
      "outputs": [
        {
          "internalType": "address",
          "name": "",
          "type": "address"
        }
      ],
      "stateMutability": "view",
      "type": "function"
    },
    {
      "inputs": [
        {
          "internalType": "uint256",
          "name": "",
          "type": "uint256"
        },
        {
          "internalType": "uint256",
          "name": "",
          "type": "uint256"
        }
      ],
      "name": "ticketPendingRewards",
      "outputs": [
        {
          "internalType": "address",
          "name": "upline",
          "type": "address"
        },
        {
          "internalType": "uint256",
          "name": "amount",
          "type": "uint256"
        }
      ],
      "stateMutability": "view",
      "type": "function"
    },
    {
      "inputs": [
        {
          "internalType": "address",
          "name": "newOwner",
          "type": "address"
        }
      ],
      "name": "transferOwnership",
      "outputs": [],
      "stateMutability": "nonpayable",
      "type": "function"
    },
    {
      "inputs": [],
      "name": "treasuryPercent",
      "outputs": [
        {
          "internalType": "uint256",
          "name": "",
          "type": "uint256"
        }
      ],
      "stateMutability": "view",
      "type": "function"
    },
    {
      "inputs": [],
      "name": "treasuryWallet",
      "outputs": [
        {
          "internalType": "address",
          "name": "",
          "type": "address"
        }
      ],
      "stateMutability": "view",
      "type": "function"
    },
    {
      "inputs": [
        {
          "internalType": "address",
          "name": "newImplementation",
          "type": "address"
        },
        {
          "internalType": "bytes",
          "name": "data",
          "type": "bytes"
        }
      ],
      "name": "upgradeToAndCall",
      "outputs": [],
      "stateMutability": "payable",
      "type": "function"
    },
    {
      "inputs": [
        {
          "internalType": "address",
          "name": "",
          "type": "address"
        }
      ],
      "name": "userInfo",
      "outputs": [
        {
          "internalType": "address",
          "name": "referrer",
          "type": "address"
        },
        {
          "internalType": "uint256",
          "name": "activeDirects",
          "type": "uint256"
        },
        {
          "internalType": "uint256",
          "name": "teamCount",
          "type": "uint256"
        },
        {
          "internalType": "uint256",
          "name": "totalRevenue",
          "type": "uint256"
        },
        {
          "internalType": "uint256",
          "name": "currentCap",
          "type": "uint256"
        },
        {
          "internalType": "bool",
          "name": "isActive",
          "type": "bool"
        },
        {
          "internalType": "uint256",
          "name": "refundFeeAmount",
          "type": "uint256"
        },
        {
          "internalType": "uint256",
          "name": "teamTotalVolume",
          "type": "uint256"
        },
        {
          "internalType": "uint256",
          "name": "teamTotalCap",
          "type": "uint256"
        },
        {
          "internalType": "uint256",
          "name": "maxTicketAmount",
          "type": "uint256"
        },
        {
          "internalType": "uint256",
          "name": "maxSingleTicketAmount",
          "type": "uint256"
        }
      ],
      "stateMutability": "view",
      "type": "function"
    },
    {
      "inputs": [
        {
          "internalType": "address",
          "name": "",
          "type": "address"
        },
        {
          "internalType": "uint256",
          "name": "",
          "type": "uint256"
        }
      ],
      "name": "userStakes",
      "outputs": [
        {
          "internalType": "uint256",
          "name": "id",
          "type": "uint256"
        },
        {
          "internalType": "uint256",
          "name": "amount",
          "type": "uint256"
        },
        {
          "internalType": "uint256",
          "name": "startTime",
          "type": "uint256"
        },
        {
          "internalType": "uint256",
          "name": "cycleDays",
          "type": "uint256"
        },
        {
          "internalType": "bool",
          "name": "active",
          "type": "bool"
        },
        {
          "internalType": "uint256",
          "name": "paid",
          "type": "uint256"
        }
      ],
      "stateMutability": "view",
      "type": "function"
    },
    {
      "inputs": [
        {
          "internalType": "address",
          "name": "",
          "type": "address"
        }
      ],
      "name": "userTicket",
      "outputs": [
        {
          "internalType": "uint256",
          "name": "ticketId",
          "type": "uint256"
        },
        {
          "internalType": "uint256",
          "name": "amount",
          "type": "uint256"
        },
        {
          "internalType": "uint256",
          "name": "purchaseTime",
          "type": "uint256"
        },
        {
          "internalType": "bool",
          "name": "exited",
          "type": "bool"
        }
      ],
      "stateMutability": "view",
      "type": "function"
    }
  ],
  "bytecode": "0x60a080604052346100cd57306080527ff0c57e16840df040f15088dc2f81fe391c3923bec73e23a9662efc9c229c6a009081549060ff8260401c166100be57506001600160401b036002600160401b031982821601610079575b6040516130e09081620000d38239608051818181610ea10152610f6d0152f35b6001600160401b031990911681179091556040519081527fc7f505b2f371ae2175ee4913f4499e1f2633a7b5936321eed1cdaeb6115181d290602090a1388080610059565b63f92ee8a960e01b8152600490fd5b600080fdfe6040608081526004908136101561001557600080fd5b600091823560e01c806301d62efb146126a957806304ef9d581461268a57806304f618cb1461244257806305ad3935146123e95780630e2be210146123cd57806310ff994d14611c4a5780631427f61614611c2f5780631788513c14611c065780631959a00214611b575780631d0dac7614611b3857806321923bde14611ada57806321b77d6314611ab65780632630c12f14611a8957806327c830a914611a6557806327f082f414611a46578063372500ab146114a75780633dbd46bd146114755780634626402b1461144c578063488b5d97146114305780634ea4c6b3146111385780634f1ef28614610ef357806352d1902d14610e8c5780636031a52f14610e6d57806367dd74ca14610b255780636839b5fa14610b085780636dd6682714610ae9578063715018a614610a7f57806375506c9614610a6057806375f0a87414610a3757806377a2a54014610a18578063813380cd146109ea5780638710bcaa1461098b57806388481b611461096f57806388fd4d33146109485780638a859a851461092c5780638c0eaa48146109105780638da5cb5b146108da5780639370b080146108bb57806395253992146108935780639cd441da14610758578063ac8f50aa14610705578063ad3cb1cc14610668578063b048a4bb14610644578063b5d5b5fa146105ba578063b759936b1461059b578063bd594dcf1461057c578063c2ff12fc1461054a578063ccf619441461052b578063ceaa366d1461050c578063d2c8e0e514610462578063d2f825361461043b578063d8020a181461041c578063dce3dc1f146103ef578063deab8aea146103c6578063dec7fa3b146103a7578063e306744914610388578063e4412f6814610369578063ece71266146103435763f2fde38b146102aa57600080fd5b3461033f57602036600319011261033f576102c36126f7565b906102cc612964565b6001600160a01b0391821692831561032957505060008051602061300b83398151915280546001600160a01b031981168417909155167f8be0079c531659141344cd1fd0a4f28419497f9722a3daafe3b4186f6b6457e08380a380f35b51631e4fbdf760e01b8152908101849052602490fd5b8280fd5b8382346103655760203660031901126103655761035e612964565b35600c5580f35b5080fd5b5050346103655781600319360112610365576020906009549051908152f35b505034610365578160031936011261036557602090601a549051908152f35b505034610365578160031936011261036557602090600c549051908152f35b50503461036557816003193601126103655760055490516001600160a01b039091168152602090f35b508234610419576020366003190112610419575061040d9035612b3e565b82519182526020820152f35b80fd5b5050346103655781600319360112610365576020906008549051908152f35b50503461036557816003193601126103655760209060ff60155460081c1690519015158152f35b5050346103655760208060031936011261033f576001600160a01b0392836104886126f7565b1681526012825282812091835190818185549182815201908195855282852090855b8181106104f657505050826104c0910383612756565b8451948186019282875251809352850193925b8281106104e05785850386f35b83518716855293810193928101926001016104d3565b82548a16845292840192600192830192016104aa565b505034610365578160031936011261036557602090600a549051908152f35b5050346103655781600319360112610365576020906006549051908152f35b503461033f57602036600319011261033f57358252601b6020908152918190205490516001600160a01b039091168152f35b5050346103655781600319360112610365576020906007549051908152f35b505034610365578160031936011261036557602090601e549051908152f35b50903461033f578060031936011261033f576105d46126f7565b6001600160a01b03168352601160205280832080546024359490851015610419575060c093610602916127df565b50805492600182015492600283015490600560ff60038601549486015416940154948151968752602087015285015260608401521515608083015260a0820152f35b50503461036557816003193601126103655760209060ff6015541690519015158152f35b503461033f578260031936011261033f57815190828201908282106001600160401b038311176106f25750825260058152602090640352e302e360dc1b6020820152825193849260208452825192836020860152825b8481106106dc57505050828201840152601f01601f19168101030190f35b81810183015188820188015287955082016106be565b634e487b7160e01b855260419052602484fd5b5050346103655761071536612740565b908352601c60205281832080548210156107545790610733916127a8565b506107506001808060a01b038354169201549251928392836127c4565b0390f35b8380fd5b503461033f5761076736612740565b9190610771612964565b80610815575b5081610781578380f35b6020826107b29260018060a01b0360015416908787518096819582946323b872dd60e01b8452309033908501612836565b03925af18015610808576107cf93506107d9575b506017546127fb565b6017553880808380f35b6107fa9060203d602011610801575b6107f28183612756565b81019061281e565b50386107c6565b503d6107e8565b50505051903d90823e3d90fd5b845484516323b872dd60e01b8152919060209083906001600160a01b03168189816108448730338c8501612836565b03925af1918215610889576108619261086a575b506016546127fb565b60165538610777565b6108829060203d602011610801576107f28183612756565b5038610858565b85513d88823e3d90fd5b505034610365578160031936011261036557905490516001600160a01b039091168152602090f35b505034610365578160031936011261036557602090600e549051908152f35b50503461036557816003193601126103655760008051602061300b8339815191525490516001600160a01b039091168152602090f35b5050346103655781600319360112610365576020905160038152f35b5050346103655781600319360112610365576020905160018152f35b503461033f578260031936011261033f575490516001600160a01b03909116815260209150f35b50903461033f578260031936011261033f576020925051908152f35b5050346103655760203660031901126103655760809181906001600160a01b036109b36126f7565b1681526010602052209081549160018101549160ff6003600284015493015416928151948552602085015283015215156060820152f35b505034610365576109fa36612740565b908352601360205281832080548210156107545790610733916127a8565b5050346103655781600319360112610365576020906016549051908152f35b50503461036557816003193601126103655760025490516001600160a01b039091168152602090f35b5050346103655781600319360112610365576020906019549051908152f35b8334610419578060031936011261041957610a98612964565b60008051602061300b83398151915280546001600160a01b0319811690915581906001600160a01b03167f8be0079c531659141344cd1fd0a4f28419497f9722a3daafe3b4186f6b6457e08280a380f35b5050346103655781600319360112610365576020906014549051908152f35b505034610365578160031936011261036557602090516103e88152f35b50919034610365576020908160031936011261033f57833591610b4661299d565b610b5560ff604e5416156128d7565b68056bc75e2d6310000083148015610e5b575b8015610e49575b8015610e37575b610b7f90612918565b60018060a01b03610bae828583885416898988518096819582946323b872dd60e01b8452309033908501612836565b03925af18015610e2d57610e10575b50338552601082528285209560039081880160ff8154168015610e04575b15610dc457610beb601854612955565b8060185589558660018a01554260028a015560ff198154169055338752600f845286828682200155818602918683041486151715610db157338752600f845284872001555b600190600187015433875285600a600f92600f8752878a20906009820180548211610da9575b50500180548211610da1575b505087548752601b845284872080546001600160a01b031916339081179091558752600f845284872054821680151580610d8e575b610d6e575b5085610cfe575b5050507f2a91574e12ad96234e84923e146b0946ecfb871cd8d5534dc1fdcbe87a7c01b3929394610cd333612f47565b610cdc33612abf565b549082519485528401523392a2600160008051602061306b8339815191525580f35b338752600f84528282868920541688915b610d1b575b5050610ca3565b831680151580610d64575b15610d5f578089528286526007878a2001610d428982546127fb565b90558852818552610d5883878a20541691612955565b9084610d0f565b610d14565b50601e8210610d26565b610d87906064610d806006548a612885565b0490612bed565b5038610c9c565b5080885260ff6005878a20015416610c97565b558538610c62565b553880610c56565b634e487b7160e01b875260119052602486fd5b5060018801610dd48782546127fb565b9055818602918683041486151715610db157610dfd90338852600f8552858820019182546127fb565b9055610c30565b50600189015415610bdb565b610e2690833d8511610801576107f28183612756565b5038610bbd565b84513d88823e3d90fd5b50683635c9adc5dea000008314610b76565b50681b1ae4d6e2ef5000008314610b6f565b50681043561a88293000008314610b68565b5050346103655781600319360112610365576020906018549051908152f35b509134610419578060031936011261041957507f00000000000000000000000000000000000000000000000000000000000000006001600160a01b03163003610ee6576020905160008051602061302b8339815191528152f35b5163703e46dd60e11b8152fd5b50908060031936011261033f57610f086126f7565b9060249384356001600160401b03811161036557366023820112156103655780850135610f348161278d565b94610f4185519687612756565b81865260209182870193368a8383010111611134578186928b8693018737880101526001600160a01b037f00000000000000000000000000000000000000000000000000000000000000008116308114908115611118575b5061110857610fa6612964565b81169585516352d1902d60e01b815283818a818b5afa8691816110d5575b50610fe0575050505050505191634c9c8ce360e01b8352820152fd5b9088888894938c60008051602061302b833981519152918281036110c05750853b156110ac575080546001600160a01b031916821790558451889392917fbc7cd75a20ee27fd9adebab32041f755214dbc6bffa90cc0225b39da2e5c2d3b8580a282511561108e5750506110809582915190845af4913d15611084573d6110726110698261278d565b92519283612756565b81528581943d92013e612fa7565b5080f35b5060609250612fa7565b9550955050505050346110a057505080f35b63b398979f60e01b8152fd5b8651634c9c8ce360e01b8152808501849052fd5b8751632a87526960e21b815280860191909152fd5b9091508481813d8311611101575b6110ed8183612756565b810103126110fd57519038610fc4565b8680fd5b503d6110e3565b855163703e46dd60e11b81528890fd5b90508160008051602061302b8339815191525416141538610f99565b8580fd5b509190346103655761114936612740565b61115492919261299d565b61116360ff604e5416156128d7565b60ff60155416156113f85733845260206010815260ff600384872061118d60018201541515612898565b0154166113c6576007821480156113bc575b80156113b2575b15611380576111b6841515612918565b6111e4818560018060a01b03885416898988518096819582946323b872dd60e01b8452309033908501612836565b03925af18015610e2d57611363575b506111ff601954612955565b806019553386526011825283862084519160c083018381106001600160401b038211176113505786528252828201868152858301428152606084019086825260808501926001845260a08601948b8652805490600160401b82101561133c579061126e916001820181556127df565b96909661132a5793601d979695936112d4937fa8a1b9e33e503eed12bf7e7c8c01c7f3b60217a496bddd0f5db351dd8c056c1c9c9d9e936005975189555160018901555160028801555160038701555115159085019060ff801983541691151516179055565b5191015560195487525281852080546001600160a01b031916339081179091556112fd90612abf565b6019549151938452602084015260408301523391606090a2600160008051602061306b8339815191525580f35b634e487b7160e01b8c528b8d5260248cfd5b50634e487b7160e01b8c5260418d5260248cfd5b634e487b7160e01b895260418a52602489fd5b61137990823d8411610801576107f28183612756565b50386111f3565b8560649184519162461bcd60e51b8352820152600d60248201526c496e76616c6964206379636c6560981b6044820152fd5b50601e82146111a6565b50600f821461119f565b8560649184519162461bcd60e51b8352820152600d60248201526c151a58dad95d08195e1a5d1959609a1b6044820152fd5b815162461bcd60e51b81526020818701526012602482015271131a5c5d5a591a5d1e48191a5cd8589b195960721b6044820152606490fd5b50503461036557816003193601126103655760209051603c8152f35b50503461036557816003193601126103655760035490516001600160a01b039091168152602090f35b503461033f57602036600319011261033f57358252601d6020908152918190205490516001600160a01b039091168152f35b509190346103655781600319360112610365576114c261299d565b3382526020601081528183209060019283830154151580611a37575b6114e790612898565b33855260118252808520928486948188905b6118c8575b505050831561189857338652600f835261151e84600384892001546127fb565b338752600f845282872088810154809211611880575b5050831561184f57338652600f83526003828720016115548582546127fb565b9055855482516370a0823160e01b808252308a83015288966001600160a01b0394939092838a1c918616908881602481855afa908115611845579083918d91611810575b50101580611807575b6117a3575b506017548015801561178f575b1561174f5750670de0b6b3a7640000905b670de0b6b3a76400009081810291818304149015171561173c57916115ef8c928c9897969594612865565b9187958b541691875190815230828201528981602481865afa908115611732578a93929185918b916116fc575b501015806116f3575b611696575b505050508351908152848682015260008051602061304b833981519152843392a25493825195865285015283015260608201527f6fcebd0a2ce98b28cb391d6008bbc769378c9a4919628e11639cb575cd320fcc60803392a260008051602061306b8339815191525580f35b83949650906116bc939189895180968195829463a9059cbb60e01b8452339084016127c4565b03925af18015610889576116d6575b50918986818061162a565b6116ec90873d8911610801576107f28183612756565b50896116cb565b50831515611625565b948092508591503d831161172b575b6117158183612756565b8101031261172757838a93518f61161c565b8880fd5b503d61170b565b88513d8b823e3d90fd5b634e487b7160e01b8b5260118c5260248bfd5b601654670de0b6b3a76400009081810291818304149015171561177c579061177691612865565b906115c4565b634e487b7160e01b8c5260118d5260248cfd5b50683635c9adc5dea00000601654106115b3565b816117c992995088918d8d8a5180968195829463a9059cbb60e01b8452339084016127c4565b03925af180156117fd576117e0575b5086386115a6565b6117f690873d8911610801576107f28183612756565b50386117d8565b86513d8c823e3d90fd5b508115156115a1565b8092508a8092503d831161183e575b6118298183612756565b8101031261183a5782905138611598565b8b80fd5b503d61181f565b88513d8e823e3d90fd5b815162461bcd60e51b8152808801849052600b60248201526a10d85c081c995858da195960aa1b6044820152606490fd5b6118909295506003015490612858565b923880611534565b815162461bcd60e51b8152808801849052600a6024820152694e6f207265776172647360b01b6044820152606490fd5b8154811015611a32578260ff8b6118df84866127df565b5001541615611a2c5750886118f482846127df565b50906007600380930154146000146119ed575062cb73565b603c611926600261191d86886127df565b50015442612858565b04918061193385876127df565b50015483116119d6575b508482156119cd579161196561196a92633b9aca009461195d87896127df565b500154612885565b612885565b0461197582846127df565b509060058092015490818111611993575b50505082905b01826114f9565b6119ae6119a78795949b936119c393612858565b80936127fb565b996119b984876127df565b50019182546127fb565b9055903880611986565b9291505061198c565b9091506119e383856127df565b500154903861193d565b600f826119fa85876127df565b50015403611a0c575062fe502b61190c565b601e82611a1985876127df565b5001540361190c57506301312d0061190c565b9061198c565b6114fe565b50600383015460ff16156114de565b505034610365578160031936011261036557602090600d549051908152f35b50503461036557816003193601126103655760209060ff604e541690519015158152f35b505034610365578160031936011261036557604e54905160089190911c6001600160a01b03168152602090f35b50503461036557816003193601126103655760209051683635c9adc5dea000008152f35b8284346104195760203660031901126104195760029082906001600160a01b03611b026126f7565b168152600f60205220015490610750611b1a83612b3e565b93909251938493846040919493926060820195825260208201520152565b5050346103655781600319360112610365576020906017549051908152f35b503461033f57602036600319011261033f57610160926001600160a01b0390839082611b816126f7565b168152600f60205220908154169260018201549260028301549060038401549084015460ff60058601541690600686015492600787015494600888015496600a60098a01549901549981519b8c5260208c01528a015260608901526080880152151560a087015260c086015260e0850152610100840152610120830152610140820152f35b50503461036557816003193601126103655760015490516001600160a01b039091168152602090f35b50503461036557816003193601126103655751908152602090f35b50903461033f5760209081600319360112610754578235611c6961299d565b60ff60155460081c16156123a057338552601183528185208054821080612389575b156123565790611c9a916127df565b506001810180549160028101546003820154936005830191825495338b52600f89526009888c20015460108a526001898d20015491600c54938a519561010087018781106001600160401b03821117612341578c5286528b8601528985015260608401889052608084015260a083015260c0820152603c60e0820152611d1f906129cd565b93919290958394156123105790611d38848b94936127fb565b905501805460ff1916905583612136575b60018060a01b03968789541691845492888b89519283809281611d7a63a9059cbb60e01b9a8b8352338b84016127c4565b03925af1801561212c5761210f575b5080611dcf575b898860008051602061308b833981519152898989549382519485528401523392a2611dba33612abf565b600160008051602061306b8339815191525580f35b338a52600f8852611deb878b2060038482015491015490612858565b908181116120d4575b505082611e02575b80611d90565b338952600f87526003868a2001611e1a8482546127fb565b90558260011c91888a5416928751936370a0823160e01b9485815230858201528a81602481855afa908d82156120c957908492612094575b5010158061208b575b61203c575b5060175480158015612028575b15611fe55750611e87670de0b6b3a7640000915b86612858565b670de0b6b3a764000090818102918183041490151715611fd2578b9291611ead91612865565b996001541693885190815230848201528981602481885afa908115611fc857908b918491611f97575b50101580611f8e575b611f20575b5050505060008051602061308b8339815191529495508351908152868682015260008051602061304b833981519152843392a284933880611dfc565b91889391611f3d9a9389519b8c95869485938452339084016127c4565b03925af1958615611f845760008051602061308b8339815191529596611f67575b86958882611ee4565b611f7d90873d8911610801576107f28183612756565b5038611f5e565b84513d89823e3d90fd5b50891515611edf565b8092508b8092503d8311611fc1575b611fb08183612756565b8101031261033f578a905138611ed6565b503d611fa6565b89513d85823e3d90fd5b634e487b7160e01b8c526011845260248cfd5b601654670de0b6b3a76400009081810291818304149015171561201557611e879161200f91612865565b91611e81565b634e487b7160e01b8d526011855260248dfd5b50683635c9adc5dea0000060165410611e6d565b898c8a51928380928782528161205588338c84016127c4565b03925af180156120815715611e605761207a908a3d8c11610801576107f28183612756565b5038611e60565b89513d8e823e3d90fd5b50811515611e5b565b8092508c8092503d83116120c2575b6120ad8183612756565b810103126120be5782905138611e52565b8c80fd5b503d6120a3565b8b51903d90823e3d90fd5b90919350865190815281888201527fb5987aab1afd379f6695f1068869ee8ca6a0d02304c57935a9cc3d3ea2e51e4d873392a2913880611df4565b61212590893d8b11610801576107f28183612756565b5038611d89565b88513d8d823e3d90fd5b875485516370a0823160e01b815233898201526001600160a01b03909116908781602481855afa908115612292579086918b916122df575b501061229c578551636eb1769f60e11b815233898201523060248201528781604481855afa908115612292579086918b9161225d575b501061221a5786856121cf928a8c8a518096819582946323b872dd60e01b8452309033908501612836565b03925af18015612210576121f3575b506121eb846016546127fb565b601655611d49565b61220990873d8911610801576107f28183612756565b50386121de565b86513d8b823e3d90fd5b855162461bcd60e51b8152808901889052601e60248201527f496e73756666696369656e7420616c6c6f77616e636520666f722066656500006044820152606490fd5b809250898092503d831161228b575b6122768183612756565b8101031261228757859051386121a4565b8980fd5b503d61226c565b87513d8c823e3d90fd5b855162461bcd60e51b8152808901889052601c60248201527f496e73756666696369656e742062616c616e636520666f7220666565000000006044820152606490fd5b809250898092503d8311612309575b6122f88183612756565b81010312612287578590513861216e565b503d6122ee565b875162461bcd60e51b8152808b018a9052600b60248201526a139bdd08195e1c1a5c995960aa1b6044820152606490fd5b5050634e487b7160e01b8e5260418d5260248efd5b50505162461bcd60e51b815291820152600d60248201526c496e76616c6964207374616b6560981b604482015260649150fd5b5060ff8561239784846127df565b50015416611c8b565b505162461bcd60e51b8152918201526008602482015267111a5cd8589b195960c21b604482015260649150fd5b5050346103655781600319360112610365576020905160028152f35b5050346103655780600319360112610365576124036126f7565b6001600160a01b039081168352601260205281832080546024359490851015610419575060209361243391612712565b92905490519260031b1c168152f35b503461033f576020806003193601126107545761245d6126f7565b338552600f8083528486205490946001600160a01b039290918316612657578216943386146126235785156125f05733875280845281872080546001600160a01b03191687179055858752601284528187208054909490600160401b8110156125dd576124d290600196600182018155612712565b81549060031b908633831b921b19161790553388528181528484848a20541689915b61252c575b898961250433612f47565b337fa6dbb5aa28f35437de94d685d66edce5fb4812196b4984b91dfd5a7b38c0fb308380a380f35b85811690811515806125d3575b156125cd57818b52848452600280878d20015490898201908183116125ba578861259e94938f93807fa0eea20e678cb42233c1c456c84cedce7ea53fa360bb71bf3b761b76095677709484878e8e8d809b5252200155825191825289820152a2612f47565b8952828252856125b386868c20541692612955565b91906124f4565b634e487b7160e01b8e5260118c5260248efd5b506124f9565b50601e8310612539565b634e487b7160e01b895260418752602489fd5b849084606493519262461bcd60e51b845283015260248201526e496e76616c6964206164647265737360881b6044820152fd5b815162461bcd60e51b8152808601859052600e60248201526d53656c66207265666572656e636560901b6044820152606490fd5b815162461bcd60e51b8152808601859052600d60248201526c105b1c9958591e48189bdd5b99609a1b6044820152606490fd5b505034610365578160031936011261036557602090600b549051908152f35b50903461033f5736600319011261036557358015158091036103655760243580151580910361033f576126da612964565b60ff61ff006015549260081b1692169061ffff1916171760155580f35b600435906001600160a01b038216820361270d57565b600080fd5b805482101561272a5760005260206000200190600090565b634e487b7160e01b600052603260045260246000fd5b604090600319011261270d576004359060243590565b90601f801991011681019081106001600160401b0382111761277757604052565b634e487b7160e01b600052604160045260246000fd5b6001600160401b03811161277757601f01601f191660200190565b805482101561272a5760005260206000209060011b0190600090565b6001600160a01b039091168152602081019190915260400190565b805482101561272a576000526006602060002091020190600090565b9190820180921161280857565b634e487b7160e01b600052601160045260246000fd5b9081602091031261270d5751801515810361270d5790565b6001600160a01b03918216815291166020820152604081019190915260600190565b9190820391821161280857565b811561286f570490565b634e487b7160e01b600052601260045260246000fd5b8181029291811591840414171561280857565b1561289f57565b60405162461bcd60e51b815260206004820152601060248201526f139bc81858dd1a5d99481d1a58dad95d60821b6044820152606490fd5b156128de57565b60405162461bcd60e51b815260206004820152601260248201527110dbdb9d1c9858dd081a5cc81c185d5cd95960721b6044820152606490fd5b1561291f57565b60405162461bcd60e51b815260206004820152600e60248201526d125b9d985b1a5908185b5bdd5b9d60921b6044820152606490fd5b60001981146128085760010190565b60008051602061300b833981519152546001600160a01b0316330361298557565b60405163118cdaa760e01b8152336004820152602490fd5b60008051602061306b83398151915260028154146129bb5760029055565b604051633ee5aeb560e01b8152600490fd5b9060208201516129f160408401916129eb835160e087015190612885565b906127fb565b421090811591612ab357612a2f81633b9aca00925160078114600014612a895750612a2763ffffffff62cb73565b168751612885565b905190612885565b046060840151808211600014612a7b57612a4e612a6991606493612858565b60808601519095908015612a6d5760c090915b015190612885565b0491565b5060c060a082015191612a61565b50506064612a696000612a4e565b600f03612aa157612a2763ffffffff62fe502b612a1f565b612a2763ffffffff6301312d00612a1f565b50600092508291829150565b6001600160a01b0316600081815260116020526040812080548291825b828110612b0c575b505050604081612b0a9460059352600f60205220019060ff801983541691151516179055565b565b60ff6004612b1a83856127df565b50015416612b2a57600101612adc565b506001935060409150829050612b0a612ae4565b620186a0811015612be457617530811015612bdb57612710811015612bd257610bb8811015612bc9576103e8811015612bc05761012c811015612bb7576064811015612bae57601e811015612ba557600a1115612b9d57600090600090565b600190600590565b50600290600a90565b50600390600f90565b50600490601490565b50600590601990565b50600690601e90565b50600790602390565b50600890602890565b50600990602d90565b919060018060a01b039283811690600094828652602090600f8252604092838820906010845284892060ff60058401541615908115612f38575b8115612f2b575b50612f2257600491600383820154910190612c4b82548092612858565b808a11612f1a575b508815612f0f5788612c64916127fb565b90558660011c91838a5416928651936370a0823160e01b9485815230848201528781602481855afa908d8215612f0457908492612ed3575b50101580612eca575b612e7d575b5060175480158015612e69575b15612e265750612cd1670de0b6b3a7640000915b8a612858565b670de0b6b3a764000090818102918183041490151715612e135790612cf591612865565b936001541692865190815230828201528581602481875afa908115612e09579085918c91612dd4575b50101580612dcb575b612d53575b5050505060008051602061304b83398151915292939495506002825191868352820152a290565b91612d7693918a869488519687958694859363a9059cbb60e01b855284016127c4565b03925af18015612dc15760008051602061304b8339815191529495969750612da4575b869594938180612d2c565b612dba90823d8411610801576107f28183612756565b5038612d99565b83513d89823e3d90fd5b50831515612d27565b809250878092503d8311612e02575b612ded8183612756565b81010312612dfe5784905138612d1e565b8a80fd5b503d612de3565b87513d8d823e3d90fd5b634e487b7160e01b8c526011835260248cfd5b601654670de0b6b3a764000090818102918183041490151715612e5657612cd191612e5091612865565b91612ccb565b634e487b7160e01b8d526011845260248dfd5b50683635c9adc5dea0000060165410612cb7565b875163a9059cbb60e01b81529087908290818f81612e9e888b8b84016127c4565b03925af180156118455715612caa57612ec390873d8911610801576107f28183612756565b5038612caa565b50811515612ca5565b809250898092503d8311612efd575b612eec8183612756565b810103126120be5782905138612c9c565b503d612ee2565b8a51903d90823e3d90fd5b505050505050505050565b985038612c53565b50505050505050565b6001915001541538612c2e565b600381015460ff169150612c27565b6001600160a01b03166000818152600f60205260409020600201547fea8384d3ca7bf5b7510d3faee44a3774406c1fd3ac14fff110a8c98d47a2595690606090612f9081612b3e565b5090604051916000835260208301526040820152a2565b90612fce5750805115612fbc57602081519101fd5b60405163d6bda27560e01b8152600490fd5b81511580613001575b612fdf575090565b604051639996b31560e01b81526001600160a01b039091166004820152602490fd5b50803b15612fd756fe9016d09d72d40fdae2fd8ceac6b6234c7706214fd39c1cd1e609a0528c199300360894a13ba1a3210667c828492db98dca3e2076cc3735a920a3ca505d382bbcf381583145e90b82cc5e529bf4fc4d0e44397174cdf145c4251ac33ef195a4249b779b17422d0df92223018b32b4d1fa46e071723d6817e2486d003becc55f00f3a670cd3af7d64b488926880889d08a8585a138ff455227af6737339a1ec262a264697066735822122010b7d3126622780d02eae5f74b9d0dc3c82efee63c49c3f68b748847a15c419064736f6c63430008160033",
  "linkReferences": {},
  "deployedLinkReferences": {}
}