{
  "_format": "hh-sol-artifact-1",
  "contractName": "JinbaoProtocolComplete",
  "sourceName": "contracts/JinbaoProtocolComplete.sol",
  "abi": [
    {
      "inputs": [],
      "stateMutability": "nonpayable",
      "type": "constructor"
    },
    {
      "inputs": [
        {
          "internalType": "address",
          "name": "target",
          "type": "address"
        }
      ],
      "name": "AddressEmptyCode",
      "type": "error"
    },
    {
      "inputs": [
        {
          "internalType": "address",
          "name": "implementation",
          "type": "address"
        }
      ],
      "name": "ERC1967InvalidImplementation",
      "type": "error"
    },
    {
      "inputs": [],
      "name": "ERC1967NonPayable",
      "type": "error"
    },
    {
      "inputs": [],
      "name": "FailedCall",
      "type": "error"
    },
    {
      "inputs": [],
      "name": "InvalidInitialization",
      "type": "error"
    },
    {
      "inputs": [],
      "name": "NotInitializing",
      "type": "error"
    },
    {
      "inputs": [
        {
          "internalType": "address",
          "name": "owner",
          "type": "address"
        }
      ],
      "name": "OwnableInvalidOwner",
      "type": "error"
    },
    {
      "inputs": [
        {
          "internalType": "address",
          "name": "account",
          "type": "address"
        }
      ],
      "name": "OwnableUnauthorizedAccount",
      "type": "error"
    },
    {
      "inputs": [],
      "name": "ReentrancyGuardReentrantCall",
      "type": "error"
    },
    {
      "inputs": [],
      "name": "UUPSUnauthorizedCallContext",
      "type": "error"
    },
    {
      "inputs": [
        {
          "internalType": "bytes32",
          "name": "slot",
          "type": "bytes32"
        }
      ],
      "name": "UUPSUnsupportedProxiableUUID",
      "type": "error"
    },
    {
      "anonymous": false,
      "inputs": [
        {
          "indexed": true,
          "internalType": "address",
          "name": "user",
          "type": "address"
        },
        {
          "indexed": true,
          "internalType": "address",
          "name": "referrer",
          "type": "address"
        }
      ],
      "name": "BoundReferrer",
      "type": "event"
    },
    {
      "anonymous": false,
      "inputs": [
        {
          "indexed": false,
          "internalType": "uint64",
          "name": "version",
          "type": "uint64"
        }
      ],
      "name": "Initialized",
      "type": "event"
    },
    {
      "anonymous": false,
      "inputs": [
        {
          "indexed": true,
          "internalType": "address",
          "name": "user",
          "type": "address"
        },
        {
          "indexed": false,
          "internalType": "uint256",
          "name": "amount",
          "type": "uint256"
        },
        {
          "indexed": false,
          "internalType": "uint256",
          "name": "cycleDays",
          "type": "uint256"
        },
        {
          "indexed": false,
          "internalType": "uint256",
          "name": "stakeId",
          "type": "uint256"
        }
      ],
      "name": "LiquidityStaked",
      "type": "event"
    },
    {
      "anonymous": false,
      "inputs": [
        {
          "indexed": true,
          "internalType": "address",
          "name": "previousOwner",
          "type": "address"
        },
        {
          "indexed": true,
          "internalType": "address",
          "name": "newOwner",
          "type": "address"
        }
      ],
      "name": "OwnershipTransferred",
      "type": "event"
    },
    {
      "anonymous": false,
      "inputs": [
        {
          "indexed": true,
          "internalType": "address",
          "name": "user",
          "type": "address"
        },
        {
          "indexed": false,
          "internalType": "uint256",
          "name": "principal",
          "type": "uint256"
        },
        {
          "indexed": false,
          "internalType": "uint256",
          "name": "fee",
          "type": "uint256"
        }
      ],
      "name": "Redeemed",
      "type": "event"
    },
    {
      "anonymous": false,
      "inputs": [
        {
          "indexed": true,
          "internalType": "address",
          "name": "user",
          "type": "address"
        },
        {
          "indexed": false,
          "internalType": "uint256",
          "name": "amount",
          "type": "uint256"
        },
        {
          "indexed": false,
          "internalType": "uint256",
          "name": "cappedAmount",
          "type": "uint256"
        }
      ],
      "name": "RewardCapped",
      "type": "event"
    },
    {
      "anonymous": false,
      "inputs": [
        {
          "indexed": true,
          "internalType": "address",
          "name": "user",
          "type": "address"
        },
        {
          "indexed": false,
          "internalType": "uint256",
          "name": "mcAmount",
          "type": "uint256"
        },
        {
          "indexed": false,
          "internalType": "uint256",
          "name": "jbcAmount",
          "type": "uint256"
        },
        {
          "indexed": false,
          "internalType": "uint8",
          "name": "rewardType",
          "type": "uint8"
        },
        {
          "indexed": false,
          "internalType": "uint256",
          "name": "ticketId",
          "type": "uint256"
        }
      ],
      "name": "RewardClaimed",
      "type": "event"
    },
    {
      "anonymous": false,
      "inputs": [
        {
          "indexed": true,
          "internalType": "address",
          "name": "user",
          "type": "address"
        },
        {
          "indexed": false,
          "internalType": "uint256",
          "name": "amount",
          "type": "uint256"
        },
        {
          "indexed": false,
          "internalType": "uint8",
          "name": "rewardType",
          "type": "uint8"
        }
      ],
      "name": "RewardPaid",
      "type": "event"
    },
    {
      "anonymous": false,
      "inputs": [
        {
          "indexed": true,
          "internalType": "address",
          "name": "user",
          "type": "address"
        },
        {
          "indexed": false,
          "internalType": "uint256",
          "name": "oldCount",
          "type": "uint256"
        },
        {
          "indexed": false,
          "internalType": "uint256",
          "name": "newCount",
          "type": "uint256"
        }
      ],
      "name": "TeamCountUpdated",
      "type": "event"
    },
    {
      "anonymous": false,
      "inputs": [
        {
          "indexed": true,
          "internalType": "address",
          "name": "user",
          "type": "address"
        },
        {
          "indexed": false,
          "internalType": "uint256",
          "name": "amount",
          "type": "uint256"
        },
        {
          "indexed": false,
          "internalType": "uint256",
          "name": "ticketId",
          "type": "uint256"
        }
      ],
      "name": "TicketPurchased",
      "type": "event"
    },
    {
      "anonymous": false,
      "inputs": [
        {
          "indexed": true,
          "internalType": "address",
          "name": "implementation",
          "type": "address"
        }
      ],
      "name": "Upgraded",
      "type": "event"
    },
    {
      "anonymous": false,
      "inputs": [
        {
          "indexed": true,
          "internalType": "address",
          "name": "user",
          "type": "address"
        },
        {
          "indexed": false,
          "internalType": "uint256",
          "name": "oldLevel",
          "type": "uint256"
        },
        {
          "indexed": false,
          "internalType": "uint256",
          "name": "newLevel",
          "type": "uint256"
        },
        {
          "indexed": false,
          "internalType": "uint256",
          "name": "teamCount",
          "type": "uint256"
        }
      ],
      "name": "UserLevelChanged",
      "type": "event"
    },
    {
      "inputs": [],
      "name": "MAX_PRICE_IMPACT",
      "outputs": [
        {
          "internalType": "uint256",
          "name": "",
          "type": "uint256"
        }
      ],
      "stateMutability": "view",
      "type": "function"
    },
    {
      "inputs": [],
      "name": "MIN_LIQUIDITY",
      "outputs": [
        {
          "internalType": "uint256",
          "name": "",
          "type": "uint256"
        }
      ],
      "stateMutability": "view",
      "type": "function"
    },
    {
      "inputs": [],
      "name": "REWARD_DIFFERENTIAL",
      "outputs": [
        {
          "internalType": "uint8",
          "name": "",
          "type": "uint8"
        }
      ],
      "stateMutability": "view",
      "type": "function"
    },
    {
      "inputs": [],
      "name": "REWARD_DIRECT",
      "outputs": [
        {
          "internalType": "uint8",
          "name": "",
          "type": "uint8"
        }
      ],
      "stateMutability": "view",
      "type": "function"
    },
    {
      "inputs": [],
      "name": "REWARD_DYNAMIC",
      "outputs": [
        {
          "internalType": "uint8",
          "name": "",
          "type": "uint8"
        }
      ],
      "stateMutability": "view",
      "type": "function"
    },
    {
      "inputs": [],
      "name": "REWARD_LEVEL",
      "outputs": [
        {
          "internalType": "uint8",
          "name": "",
          "type": "uint8"
        }
      ],
      "stateMutability": "view",
      "type": "function"
    },
    {
      "inputs": [],
      "name": "REWARD_STATIC",
      "outputs": [
        {
          "internalType": "uint8",
          "name": "",
          "type": "uint8"
        }
      ],
      "stateMutability": "view",
      "type": "function"
    },
    {
      "inputs": [],
      "name": "SECONDS_IN_UNIT",
      "outputs": [
        {
          "internalType": "uint256",
          "name": "",
          "type": "uint256"
        }
      ],
      "stateMutability": "view",
      "type": "function"
    },
    {
      "inputs": [],
      "name": "UPGRADE_INTERFACE_VERSION",
      "outputs": [
        {
          "internalType": "string",
          "name": "",
          "type": "string"
        }
      ],
      "stateMutability": "view",
      "type": "function"
    },
    {
      "inputs": [
        {
          "internalType": "uint256",
          "name": "mcAmount",
          "type": "uint256"
        },
        {
          "internalType": "uint256",
          "name": "jbcAmount",
          "type": "uint256"
        }
      ],
      "name": "addLiquidity",
      "outputs": [],
      "stateMutability": "nonpayable",
      "type": "function"
    },
    {
      "inputs": [
        {
          "internalType": "address",
          "name": "_referrer",
          "type": "address"
        }
      ],
      "name": "bindReferrer",
      "outputs": [],
      "stateMutability": "nonpayable",
      "type": "function"
    },
    {
      "inputs": [
        {
          "internalType": "uint256",
          "name": "amount",
          "type": "uint256"
        }
      ],
      "name": "buyTicket",
      "outputs": [],
      "stateMutability": "nonpayable",
      "type": "function"
    },
    {
      "inputs": [],
      "name": "buybackPercent",
      "outputs": [
        {
          "internalType": "uint256",
          "name": "",
          "type": "uint256"
        }
      ],
      "stateMutability": "view",
      "type": "function"
    },
    {
      "inputs": [],
      "name": "buybackWallet",
      "outputs": [
        {
          "internalType": "address",
          "name": "",
          "type": "address"
        }
      ],
      "stateMutability": "view",
      "type": "function"
    },
    {
      "inputs": [
        {
          "internalType": "uint256",
          "name": "teamCount",
          "type": "uint256"
        }
      ],
      "name": "calculateLevel",
      "outputs": [
        {
          "internalType": "uint256",
          "name": "level",
          "type": "uint256"
        },
        {
          "internalType": "uint256",
          "name": "percent",
          "type": "uint256"
        }
      ],
      "stateMutability": "pure",
      "type": "function"
    },
    {
      "inputs": [],
      "name": "claimRewards",
      "outputs": [],
      "stateMutability": "nonpayable",
      "type": "function"
    },
    {
      "inputs": [
        {
          "internalType": "address",
          "name": "",
          "type": "address"
        },
        {
          "internalType": "uint256",
          "name": "",
          "type": "uint256"
        }
      ],
      "name": "directReferrals",
      "outputs": [
        {
          "internalType": "address",
          "name": "",
          "type": "address"
        }
      ],
      "stateMutability": "view",
      "type": "function"
    },
    {
      "inputs": [],
      "name": "directRewardPercent",
      "outputs": [
        {
          "internalType": "uint256",
          "name": "",
          "type": "uint256"
        }
      ],
      "stateMutability": "view",
      "type": "function"
    },
    {
      "inputs": [],
      "name": "emergencyPaused",
      "outputs": [
        {
          "internalType": "bool",
          "name": "",
          "type": "bool"
        }
      ],
      "stateMutability": "view",
      "type": "function"
    },
    {
      "inputs": [
        {
          "internalType": "address",
          "name": "user",
          "type": "address"
        }
      ],
      "name": "getDirectReferrals",
      "outputs": [
        {
          "internalType": "address[]",
          "name": "",
          "type": "address[]"
        }
      ],
      "stateMutability": "view",
      "type": "function"
    },
    {
      "inputs": [
        {
          "internalType": "address",
          "name": "user",
          "type": "address"
        }
      ],
      "name": "getUserLevel",
      "outputs": [
        {
          "internalType": "uint256",
          "name": "level",
          "type": "uint256"
        },
        {
          "internalType": "uint256",
          "name": "percent",
          "type": "uint256"
        },
        {
          "internalType": "uint256",
          "name": "teamCount",
          "type": "uint256"
        }
      ],
      "stateMutability": "view",
      "type": "function"
    },
    {
      "inputs": [],
      "name": "jbcToken",
      "outputs": [
        {
          "internalType": "contract IJBC",
          "name": "",
          "type": "address"
        }
      ],
      "stateMutability": "view",
      "type": "function"
    },
    {
      "inputs": [],
      "name": "lastBurnTime",
      "outputs": [
        {
          "internalType": "uint256",
          "name": "",
          "type": "uint256"
        }
      ],
      "stateMutability": "view",
      "type": "function"
    },
    {
      "inputs": [],
      "name": "levelRewardPercent",
      "outputs": [
        {
          "internalType": "uint256",
          "name": "",
          "type": "uint256"
        }
      ],
      "stateMutability": "view",
      "type": "function"
    },
    {
      "inputs": [],
      "name": "levelRewardPool",
      "outputs": [
        {
          "internalType": "uint256",
          "name": "",
          "type": "uint256"
        }
      ],
      "stateMutability": "view",
      "type": "function"
    },
    {
      "inputs": [],
      "name": "liquidityEnabled",
      "outputs": [
        {
          "internalType": "bool",
          "name": "",
          "type": "bool"
        }
      ],
      "stateMutability": "view",
      "type": "function"
    },
    {
      "inputs": [],
      "name": "lpInjectionPercent",
      "outputs": [
        {
          "internalType": "uint256",
          "name": "",
          "type": "uint256"
        }
      ],
      "stateMutability": "view",
      "type": "function"
    },
    {
      "inputs": [],
      "name": "lpInjectionWallet",
      "outputs": [
        {
          "internalType": "address",
          "name": "",
          "type": "address"
        }
      ],
      "stateMutability": "view",
      "type": "function"
    },
    {
      "inputs": [],
      "name": "marketingPercent",
      "outputs": [
        {
          "internalType": "uint256",
          "name": "",
          "type": "uint256"
        }
      ],
      "stateMutability": "view",
      "type": "function"
    },
    {
      "inputs": [],
      "name": "marketingWallet",
      "outputs": [
        {
          "internalType": "address",
          "name": "",
          "type": "address"
        }
      ],
      "stateMutability": "view",
      "type": "function"
    },
    {
      "inputs": [],
      "name": "mcToken",
      "outputs": [
        {
          "internalType": "contract IERC20",
          "name": "",
          "type": "address"
        }
      ],
      "stateMutability": "view",
      "type": "function"
    },
    {
      "inputs": [],
      "name": "nextStakeId",
      "outputs": [
        {
          "internalType": "uint256",
          "name": "",
          "type": "uint256"
        }
      ],
      "stateMutability": "view",
      "type": "function"
    },
    {
      "inputs": [],
      "name": "nextTicketId",
      "outputs": [
        {
          "internalType": "uint256",
          "name": "",
          "type": "uint256"
        }
      ],
      "stateMutability": "view",
      "type": "function"
    },
    {
      "inputs": [],
      "name": "owner",
      "outputs": [
        {
          "internalType": "address",
          "name": "",
          "type": "address"
        }
      ],
      "stateMutability": "view",
      "type": "function"
    },
    {
      "inputs": [],
      "name": "priceOracle",
      "outputs": [
        {
          "internalType": "address",
          "name": "",
          "type": "address"
        }
      ],
      "stateMutability": "view",
      "type": "function"
    },
    {
      "inputs": [],
      "name": "proxiableUUID",
      "outputs": [
        {
          "internalType": "bytes32",
          "name": "",
          "type": "bytes32"
        }
      ],
      "stateMutability": "view",
      "type": "function"
    },
    {
      "inputs": [],
      "name": "redeemEnabled",
      "outputs": [
        {
          "internalType": "bool",
          "name": "",
          "type": "bool"
        }
      ],
      "stateMutability": "view",
      "type": "function"
    },
    {
      "inputs": [
        {
          "internalType": "uint256",
          "name": "stakeId",
          "type": "uint256"
        }
      ],
      "name": "redeemStake",
      "outputs": [],
      "stateMutability": "nonpayable",
      "type": "function"
    },
    {
      "inputs": [],
      "name": "redemptionFeePercent",
      "outputs": [
        {
          "internalType": "uint256",
          "name": "",
          "type": "uint256"
        }
      ],
      "stateMutability": "view",
      "type": "function"
    },
    {
      "inputs": [],
      "name": "renounceOwnership",
      "outputs": [],
      "stateMutability": "nonpayable",
      "type": "function"
    },
    {
      "inputs": [
        {
          "internalType": "bool",
          "name": "_liquidityEnabled",
          "type": "bool"
        },
        {
          "internalType": "bool",
          "name": "_redeemEnabled",
          "type": "bool"
        }
      ],
      "name": "setOperationalStatus",
      "outputs": [],
      "stateMutability": "nonpayable",
      "type": "function"
    },
    {
      "inputs": [
        {
          "internalType": "uint256",
          "name": "_fee",
          "type": "uint256"
        }
      ],
      "name": "setRedemptionFeePercent",
      "outputs": [],
      "stateMutability": "nonpayable",
      "type": "function"
    },
    {
      "inputs": [
        {
          "internalType": "uint256",
          "name": "amount",
          "type": "uint256"
        },
        {
          "internalType": "uint256",
          "name": "cycleDays",
          "type": "uint256"
        }
      ],
      "name": "stakeLiquidity",
      "outputs": [],
      "stateMutability": "nonpayable",
      "type": "function"
    },
    {
      "inputs": [
        {
          "internalType": "uint256",
          "name": "",
          "type": "uint256"
        }
      ],
      "name": "stakeOwner",
      "outputs": [
        {
          "internalType": "address",
          "name": "",
          "type": "address"
        }
      ],
      "stateMutability": "view",
      "type": "function"
    },
    {
      "inputs": [
        {
          "internalType": "uint256",
          "name": "",
          "type": "uint256"
        },
        {
          "internalType": "uint256",
          "name": "",
          "type": "uint256"
        }
      ],
      "name": "stakePendingRewards",
      "outputs": [
        {
          "internalType": "address",
          "name": "upline",
          "type": "address"
        },
        {
          "internalType": "uint256",
          "name": "amount",
          "type": "uint256"
        }
      ],
      "stateMutability": "view",
      "type": "function"
    },
    {
      "inputs": [],
      "name": "swapBuyTax",
      "outputs": [
        {
          "internalType": "uint256",
          "name": "",
          "type": "uint256"
        }
      ],
      "stateMutability": "view",
      "type": "function"
    },
    {
      "inputs": [],
      "name": "swapReserveJBC",
      "outputs": [
        {
          "internalType": "uint256",
          "name": "",
          "type": "uint256"
        }
      ],
      "stateMutability": "view",
      "type": "function"
    },
    {
      "inputs": [],
      "name": "swapReserveMC",
      "outputs": [
        {
          "internalType": "uint256",
          "name": "",
          "type": "uint256"
        }
      ],
      "stateMutability": "view",
      "type": "function"
    },
    {
      "inputs": [],
      "name": "swapSellTax",
      "outputs": [
        {
          "internalType": "uint256",
          "name": "",
          "type": "uint256"
        }
      ],
      "stateMutability": "view",
      "type": "function"
    },
    {
      "inputs": [],
      "name": "ticketFlexibilityDuration",
      "outputs": [
        {
          "internalType": "uint256",
          "name": "",
          "type": "uint256"
        }
      ],
      "stateMutability": "view",
      "type": "function"
    },
    {
      "inputs": [
        {
          "internalType": "uint256",
          "name": "",
          "type": "uint256"
        }
      ],
      "name": "ticketOwner",
      "outputs": [
        {
          "internalType": "address",
          "name": "",
          "type": "address"
        }
      ],
      "stateMutability": "view",
      "type": "function"
    },
    {
      "inputs": [
        {
          "internalType": "uint256",
          "name": "",
          "type": "uint256"
        },
        {
          "internalType": "uint256",
          "name": "",
          "type": "uint256"
        }
      ],
      "name": "ticketPendingRewards",
      "outputs": [
        {
          "internalType": "address",
          "name": "upline",
          "type": "address"
        },
        {
          "internalType": "uint256",
          "name": "amount",
          "type": "uint256"
        }
      ],
      "stateMutability": "view",
      "type": "function"
    },
    {
      "inputs": [
        {
          "internalType": "address",
          "name": "newOwner",
          "type": "address"
        }
      ],
      "name": "transferOwnership",
      "outputs": [],
      "stateMutability": "nonpayable",
      "type": "function"
    },
    {
      "inputs": [],
      "name": "treasuryPercent",
      "outputs": [
        {
          "internalType": "uint256",
          "name": "",
          "type": "uint256"
        }
      ],
      "stateMutability": "view",
      "type": "function"
    },
    {
      "inputs": [],
      "name": "treasuryWallet",
      "outputs": [
        {
          "internalType": "address",
          "name": "",
          "type": "address"
        }
      ],
      "stateMutability": "view",
      "type": "function"
    },
    {
      "inputs": [
        {
          "internalType": "address",
          "name": "newImplementation",
          "type": "address"
        },
        {
          "internalType": "bytes",
          "name": "data",
          "type": "bytes"
        }
      ],
      "name": "upgradeToAndCall",
      "outputs": [],
      "stateMutability": "payable",
      "type": "function"
    },
    {
      "inputs": [
        {
          "internalType": "address",
          "name": "",
          "type": "address"
        }
      ],
      "name": "userInfo",
      "outputs": [
        {
          "internalType": "address",
          "name": "referrer",
          "type": "address"
        },
        {
          "internalType": "uint256",
          "name": "activeDirects",
          "type": "uint256"
        },
        {
          "internalType": "uint256",
          "name": "teamCount",
          "type": "uint256"
        },
        {
          "internalType": "uint256",
          "name": "totalRevenue",
          "type": "uint256"
        },
        {
          "internalType": "uint256",
          "name": "currentCap",
          "type": "uint256"
        },
        {
          "internalType": "bool",
          "name": "isActive",
          "type": "bool"
        },
        {
          "internalType": "uint256",
          "name": "refundFeeAmount",
          "type": "uint256"
        },
        {
          "internalType": "uint256",
          "name": "teamTotalVolume",
          "type": "uint256"
        },
        {
          "internalType": "uint256",
          "name": "teamTotalCap",
          "type": "uint256"
        },
        {
          "internalType": "uint256",
          "name": "maxTicketAmount",
          "type": "uint256"
        },
        {
          "internalType": "uint256",
          "name": "maxSingleTicketAmount",
          "type": "uint256"
        }
      ],
      "stateMutability": "view",
      "type": "function"
    },
    {
      "inputs": [
        {
          "internalType": "address",
          "name": "",
          "type": "address"
        },
        {
          "internalType": "uint256",
          "name": "",
          "type": "uint256"
        }
      ],
      "name": "userStakes",
      "outputs": [
        {
          "internalType": "uint256",
          "name": "id",
          "type": "uint256"
        },
        {
          "internalType": "uint256",
          "name": "amount",
          "type": "uint256"
        },
        {
          "internalType": "uint256",
          "name": "startTime",
          "type": "uint256"
        },
        {
          "internalType": "uint256",
          "name": "cycleDays",
          "type": "uint256"
        },
        {
          "internalType": "bool",
          "name": "active",
          "type": "bool"
        },
        {
          "internalType": "uint256",
          "name": "paid",
          "type": "uint256"
        }
      ],
      "stateMutability": "view",
      "type": "function"
    },
    {
      "inputs": [
        {
          "internalType": "address",
          "name": "",
          "type": "address"
        }
      ],
      "name": "userTicket",
      "outputs": [
        {
          "internalType": "uint256",
          "name": "ticketId",
          "type": "uint256"
        },
        {
          "internalType": "uint256",
          "name": "amount",
          "type": "uint256"
        },
        {
          "internalType": "uint256",
          "name": "purchaseTime",
          "type": "uint256"
        },
        {
          "internalType": "bool",
          "name": "exited",
          "type": "bool"
        }
      ],
      "stateMutability": "view",
      "type": "function"
    }
  ],
  "bytecode": "0x60a080604052346100cd57306080527ff0c57e16840df040f15088dc2f81fe391c3923bec73e23a9662efc9c229c6a009081549060ff8260401c166100be57506001600160401b036002600160401b031982821601610079575b6040516130e29081620000d38239608051818181610e7d0152610f4b0152f35b6001600160401b031990911681179091556040519081527fc7f505b2f371ae2175ee4913f4499e1f2633a7b5936321eed1cdaeb6115181d290602090a1388080610059565b63f92ee8a960e01b8152600490fd5b600080fdfe6040608081526004908136101561001557600080fd5b600091823560e01c806301d62efb1461267357806304ef9d581461265457806304f618cb1461240c57806305ad3935146123b35780630e2be2101461239757806310ff994d14611c165780631427f61614611bfb5780631788513c14611bd25780631959a00214611b235780631d0dac7614611b0457806321923bde14611ab757806321b77d6314611a935780632630c12f14611a6657806327c830a914611a4257806327f082f414611a23578063372500ab146114845780633dbd46bd146114525780634626402b14611429578063488b5d971461140d5780634ea4c6b3146111165780634f1ef28614610ecf57806352d1902d14610e685780636031a52f14610e4957806367dd74ca14610b015780636839b5fa14610ae45780636dd6682714610ac5578063715018a614610a6d57806375506c9614610a4e57806375f0a87414610a2557806377a2a54014610a06578063813380cd146109d85780638710bcaa1461097957806388481b611461095d57806388fd4d33146109365780638a859a851461091a5780638c0eaa48146108fe5780638da5cb5b146108c85780639370b080146108a957806395253992146108815780639cd441da14610746578063ac8f50aa146106f3578063ad3cb1cc14610656578063b048a4bb14610632578063b5d5b5fa146105a8578063b759936b14610589578063bd594dcf1461056a578063c2ff12fc14610538578063ccf6194414610519578063ceaa366d146104fa578063d2c8e0e514610450578063d2f8253614610429578063d8020a181461040a578063dce3dc1f146103dd578063deab8aea146103b4578063dec7fa3b14610395578063e306744914610376578063e4412f6814610357578063ece71266146103315763f2fde38b146102aa57600080fd5b3461032d57602036600319011261032d576102c36126c1565b906102cc612946565b6001600160a01b03918216928315610317575050600080516020612fed83398151915280546001600160a01b0319811684179091551660008051602061302d8339815191528380a380f35b51631e4fbdf760e01b8152908101849052602490fd5b8280fd5b8382346103535760203660031901126103535761034c612946565b35600c5580f35b5080fd5b5050346103535781600319360112610353576020906009549051908152f35b505034610353578160031936011261035357602090601a549051908152f35b505034610353578160031936011261035357602090600c549051908152f35b50503461035357816003193601126103535760055490516001600160a01b039091168152602090f35b50823461040757602036600319011261040757506103fb9035612b20565b82519182526020820152f35b80fd5b5050346103535781600319360112610353576020906008549051908152f35b50503461035357816003193601126103535760209060ff60155460081c1690519015158152f35b5050346103535760208060031936011261032d576001600160a01b0392836104766126c1565b1681526012825282812091835190818185549182815201908195855282852090855b8181106104e457505050826104ae910383612736565b8451948186019282875251809352850193925b8281106104ce5785850386f35b83518716855293810193928101926001016104c1565b82548a1684529284019260019283019201610498565b505034610353578160031936011261035357602090600a549051908152f35b5050346103535781600319360112610353576020906006549051908152f35b503461032d57602036600319011261032d57358252601b6020908152918190205490516001600160a01b039091168152f35b5050346103535781600319360112610353576020906007549051908152f35b505034610353578160031936011261035357602090601e549051908152f35b50903461032d578060031936011261032d576105c26126c1565b6001600160a01b03168352601160205280832080546024359490851015610407575060c0936105f0916127c1565b50805492600182015492600283015490600560ff60038601549486015416940154948151968752602087015285015260608401521515608083015260a0820152f35b50503461035357816003193601126103535760209060ff6015541690519015158152f35b503461032d578260031936011261032d57815190818301906001600160401b038211838310176106e05750825260058152602090640352e302e360dc1b6020820152825193849260208452825192836020860152825b8481106106ca57505050828201840152601f01601f19168101030190f35b81810183015188820188015287955082016106ac565b634e487b7160e01b855260419052602484fd5b5050346103535761070336612720565b908352601c602052818320805482101561074257906107219161278a565b5061073e6001808060a01b038354169201549251928392836127a6565b0390f35b8380fd5b503461032d5761075536612720565b919061075f612946565b80610803575b508161076f578380f35b6020826107a09260018060a01b0360015416908787518096819582946323b872dd60e01b8452309033908501612818565b03925af180156107f6576107bd93506107c7575b506017546127dd565b6017553880808380f35b6107e89060203d6020116107ef575b6107e08183612736565b810190612800565b50386107b4565b503d6107d6565b50505051903d90823e3d90fd5b845484516323b872dd60e01b8152919060209083906001600160a01b03168189816108328730338c8501612818565b03925af19182156108775761084f92610858575b506016546127dd565b60165538610765565b6108709060203d6020116107ef576107e08183612736565b5038610846565b85513d88823e3d90fd5b505034610353578160031936011261035357905490516001600160a01b039091168152602090f35b505034610353578160031936011261035357602090600e549051908152f35b505034610353578160031936011261035357600080516020612fed8339815191525490516001600160a01b039091168152602090f35b5050346103535781600319360112610353576020905160038152f35b5050346103535781600319360112610353576020905160018152f35b503461032d578260031936011261032d575490516001600160a01b03909116815260209150f35b50903461032d578260031936011261032d576020925051908152f35b5050346103535760203660031901126103535760809181906001600160a01b036109a16126c1565b1681526010602052209081549160018101549160ff6003600284015493015416928151948552602085015283015215156060820152f35b505034610353576109e836612720565b9083526013602052818320805482101561074257906107219161278a565b5050346103535781600319360112610353576020906016549051908152f35b50503461035357816003193601126103535760025490516001600160a01b039091168152602090f35b5050346103535781600319360112610353576020906019549051908152f35b8334610407578060031936011261040757610a86612946565b600080516020612fed83398151915280546001600160a01b0319811690915581906001600160a01b031660008051602061302d8339815191528280a380f35b5050346103535781600319360112610353576020906014549051908152f35b505034610353578160031936011261035357602090516103e88152f35b50919034610353576020908160031936011261032d57833591610b2261297f565b610b3160ff604e5416156128b9565b68056bc75e2d6310000083148015610e37575b8015610e25575b8015610e13575b610b5b906128fa565b60018060a01b03610b8a828583885416898988518096819582946323b872dd60e01b8452309033908501612818565b03925af18015610e0957610dec575b50338552601082528285209560039081880160ff8154168015610de0575b15610da057610bc7601854612937565b8060185589558660018a01554260028a015560ff198154169055338752600f845286828682200155818602918683041486151715610d8d57338752600f845284872001555b600190600187015433875285600a600f92600f8752878a20906009820180548211610d85575b50500180548211610d7d575b505087548752601b845284872080546001600160a01b031916339081179091558752600f845284872054821680151580610d6a575b610d4a575b5085610cda575b5050507f2a91574e12ad96234e84923e146b0946ecfb871cd8d5534dc1fdcbe87a7c01b3929394610caf33612f29565b610cb833612aa1565b549082519485528401523392a2600160008051602061306d8339815191525580f35b338752600f84528282868920541688915b610cf7575b5050610c7f565b831680151580610d40575b15610d3b578089528286526007878a2001610d1e8982546127dd565b90558852818552610d3483878a20541691612937565b9084610ceb565b610cf0565b50601e8210610d02565b610d63906064610d5c6006548a612867565b0490612bcf565b5038610c78565b5080885260ff6005878a20015416610c73565b558538610c3e565b553880610c32565b634e487b7160e01b875260119052602486fd5b5060018801610db08782546127dd565b9055818602918683041486151715610d8d57610dd990338852600f8552858820019182546127dd565b9055610c0c565b50600189015415610bb7565b610e0290833d85116107ef576107e08183612736565b5038610b99565b84513d88823e3d90fd5b50683635c9adc5dea000008314610b52565b50681b1ae4d6e2ef5000008314610b4b565b50681043561a88293000008314610b44565b5050346103535781600319360112610353576020906018549051908152f35b509134610407578060031936011261040757507f00000000000000000000000000000000000000000000000000000000000000006001600160a01b03163003610ec2576020905160008051602061300d8339815191528152f35b5163703e46dd60e11b8152fd5b50908060031936011261032d57610ee46126c1565b60249390919084356001600160401b03811161035357366023820112156103535780850135610f128161276f565b94610f1f85519687612736565b81865260209182870193368a8383010111611112578186928b8693018737880101526001600160a01b037f000000000000000000000000000000000000000000000000000000000000000081163081149081156110f6575b506110e657610f84612946565b81169585516352d1902d60e01b815283818a818b5afa8691816110b3575b50610fbe575050505050505191634c9c8ce360e01b8352820152fd5b9088888894938c60008051602061300d8339815191529182810361109e5750853b1561108a575080546001600160a01b031916821790558451889392917fbc7cd75a20ee27fd9adebab32041f755214dbc6bffa90cc0225b39da2e5c2d3b8580a282511561106c57505061105e9582915190845af4913d15611062573d6110506110478261276f565b92519283612736565b81528581943d92013e612f89565b5080f35b5060609250612f89565b95509550505050503461107e57505080f35b63b398979f60e01b8152fd5b8651634c9c8ce360e01b8152808501849052fd5b8751632a87526960e21b815280860191909152fd5b9091508481813d83116110df575b6110cb8183612736565b810103126110db57519038610fa2565b8680fd5b503d6110c1565b855163703e46dd60e11b81528890fd5b90508160008051602061300d8339815191525416141538610f77565b8580fd5b509190346103535761112736612720565b61113292919261297f565b61114160ff604e5416156128b9565b60ff60155416156113d55733845260206010815260ff600384872061116b6001820154151561287a565b0154166113a357600782148015611399575b801561138f575b1561135d576111948415156128fa565b6111c2818560018060a01b03885416898988518096819582946323b872dd60e01b8452309033908501612818565b03925af18015610e0957611340575b506111dd601954612937565b60198190553386526011825283862084519160c083016001600160401b0381118482101761132d5786528252828201868152858301428152606084019086825260808501926001845260a08601948b8652805490600160401b821015611319579061124d916001820181556127c1565b9690966113075793601d979695936112b3937fa8a1b9e33e503eed12bf7e7c8c01c7f3b60217a496bddd0f5db351dd8c056c1c9c9d9e936005975189555160018901555160028801555160038701555115159085019060ff801983541691151516179055565b5191015560195487525281852080546001600160a01b031916339081179091556112dc90612aa1565b6112ef601954925192839233968461270a565b0390a2600160008051602061306d8339815191525580f35b634e487b7160e01b8c528b8d5260248cfd5b50634e487b7160e01b8c5260418d5260248cfd5b634e487b7160e01b895260418a52602489fd5b61135690823d84116107ef576107e08183612736565b50386111d1565b8560649184519162461bcd60e51b8352820152600d60248201526c496e76616c6964206379636c6560981b6044820152fd5b50601e8214611184565b50600f821461117d565b8560649184519162461bcd60e51b8352820152600d60248201526c151a58dad95d08195e1a5d1959609a1b6044820152fd5b815162461bcd60e51b81526020818701526012602482015271131a5c5d5a591a5d1e48191a5cd8589b195960721b6044820152606490fd5b50503461035357816003193601126103535760209051603c8152f35b50503461035357816003193601126103535760035490516001600160a01b039091168152602090f35b503461032d57602036600319011261032d57358252601d6020908152918190205490516001600160a01b039091168152f35b5091903461035357816003193601126103535761149f61297f565b3382526020601081528183209060019283830154151580611a14575b6114c49061287a565b33855260118252808520928486948188905b6118a5575b505050831561187557338652600f83526114fb84600384892001546127dd565b338752600f84528287208881015480921161185d575b5050831561182c57338652600f83526003828720016115318582546127dd565b9055855482516370a0823160e01b808252308a83015288966001600160a01b0394939092838a1c918616908881602481855afa908115611822579083918d916117ed575b501015806117e4575b611780575b506017548015801561176c575b1561172c5750670de0b6b3a7640000905b670de0b6b3a76400009081810291818304149015171561171957916115cc8c928c9897969594612847565b9187958b541691875190815230828201528981602481865afa90811561170f578a93929185918b916116d9575b501015806116d0575b611673575b505050508351908152848682015260008051602061304d833981519152843392a25493825195865285015283015260608201527f6fcebd0a2ce98b28cb391d6008bbc769378c9a4919628e11639cb575cd320fcc60803392a260008051602061306d8339815191525580f35b8394965090611699939189895180968195829463a9059cbb60e01b8452339084016127a6565b03925af18015610877576116b3575b509189868180611607565b6116c990873d89116107ef576107e08183612736565b50896116a8565b50831515611602565b948092508591503d8311611708575b6116f28183612736565b8101031261170457838a93518f6115f9565b8880fd5b503d6116e8565b88513d8b823e3d90fd5b634e487b7160e01b8b5260118c5260248bfd5b601654670de0b6b3a764000090818102918183041490151715611759579061175391612847565b906115a1565b634e487b7160e01b8c5260118d5260248cfd5b50683635c9adc5dea0000060165410611590565b816117a692995088918d8d8a5180968195829463a9059cbb60e01b8452339084016127a6565b03925af180156117da576117bd575b508638611583565b6117d390873d89116107ef576107e08183612736565b50386117b5565b86513d8c823e3d90fd5b5081151561157e565b8092508a8092503d831161181b575b6118068183612736565b810103126118175782905138611575565b8b80fd5b503d6117fc565b88513d8e823e3d90fd5b815162461bcd60e51b8152808801849052600b60248201526a10d85c081c995858da195960aa1b6044820152606490fd5b61186d929550600301549061283a565b923880611511565b815162461bcd60e51b8152808801849052600a6024820152694e6f207265776172647360b01b6044820152606490fd5b8154811015611a0f578260ff8b6118bc84866127c1565b5001541615611a095750886118d182846127c1565b50906007600380930154146000146119ca575062cb73565b603c61190360026118fa86886127c1565b5001544261283a565b04918061191085876127c1565b50015483116119b3575b508482156119aa579161194261194792633b9aca009461193a87896127c1565b500154612867565b612867565b0461195282846127c1565b509060058092015490818111611970575b50505082905b01826114d6565b61198b6119848795949b936119a09361283a565b80936127dd565b9961199684876127c1565b50019182546127dd565b9055903880611963565b92915050611969565b9091506119c083856127c1565b500154903861191a565b600f826119d785876127c1565b500154036119e9575062fe502b6118e9565b601e826119f685876127c1565b500154036118e957506301312d006118e9565b90611969565b6114db565b50600383015460ff16156114bb565b505034610353578160031936011261035357602090600d549051908152f35b50503461035357816003193601126103535760209060ff604e541690519015158152f35b505034610353578160031936011261035357604e54905160089190911c6001600160a01b03168152602090f35b50503461035357816003193601126103535760209051683635c9adc5dea000008152f35b8284346104075760203660031901126104075760029082906001600160a01b03611adf6126c1565b168152600f6020522001549061073e611af783612b20565b939092519384938461270a565b5050346103535781600319360112610353576020906017549051908152f35b503461032d57602036600319011261032d57610160926001600160a01b0390839082611b4d6126c1565b168152600f60205220908154169260018201549260028301549060038401549084015460ff60058601541690600686015492600787015494600888015496600a60098a01549901549981519b8c5260208c01528a015260608901526080880152151560a087015260c086015260e0850152610100840152610120830152610140820152f35b50503461035357816003193601126103535760015490516001600160a01b039091168152602090f35b50503461035357816003193601126103535751908152602090f35b50903461032d5760209081600319360112610742578235611c3561297f565b60ff60155460081c161561236a57338552601183528185208054821080612353575b156123205790611c66916127c1565b506001810180549160028101546003820154936005830191825495338b52600f89526009888c20015460108a526001898d20015491600c54938a5195610100870187811060018060401b0382111761230b578c5286528b8601528985015260608401889052608084015260a083015260c0820152603c60e0820152611cea906129af565b93919290958394156122da5790611d03848b94936127dd565b905501805460ff1916905583612101575b60018060a01b03968789541691845492888b89519283809281611d4563a9059cbb60e01b9a8b8352338b84016127a6565b03925af180156120f7576120da575b5080611d9a575b898860008051602061308d833981519152898989549382519485528401523392a2611d8533612aa1565b600160008051602061306d8339815191525580f35b338a52600f8852611db6878b206003848201549101549061283a565b9081811161209f575b505082611dcd575b80611d5b565b338952600f87526003868a2001611de58482546127dd565b90558260011c91888a5416928751936370a0823160e01b9485815230858201528a81602481855afa908d82156120945790849261205f575b50101580612056575b612007575b5060175480158015611ff3575b15611fb05750611e52670de0b6b3a7640000915b8661283a565b670de0b6b3a764000090818102918183041490151715611f9d578b9291611e7891612847565b996001541693885190815230848201528981602481885afa908115611f9357908b918491611f62575b50101580611f59575b611eeb575b5050505060008051602061308d8339815191529495508351908152868682015260008051602061304d833981519152843392a284933880611dc7565b91889391611f089a9389519b8c95869485938452339084016127a6565b03925af1958615611f4f5760008051602061308d8339815191529596611f32575b86958882611eaf565b611f4890873d89116107ef576107e08183612736565b5038611f29565b84513d89823e3d90fd5b50891515611eaa565b8092508b8092503d8311611f8c575b611f7b8183612736565b8101031261032d578a905138611ea1565b503d611f71565b89513d85823e3d90fd5b634e487b7160e01b8c526011845260248cfd5b601654670de0b6b3a764000090818102918183041490151715611fe057611e5291611fda91612847565b91611e4c565b634e487b7160e01b8d526011855260248dfd5b50683635c9adc5dea0000060165410611e38565b898c8a51928380928782528161202088338c84016127a6565b03925af1801561204c5715611e2b57612045908a3d8c116107ef576107e08183612736565b5038611e2b565b89513d8e823e3d90fd5b50811515611e26565b8092508c8092503d831161208d575b6120788183612736565b810103126120895782905138611e1d565b8c80fd5b503d61206e565b8b51903d90823e3d90fd5b90919350865190815281888201527fb5987aab1afd379f6695f1068869ee8ca6a0d02304c57935a9cc3d3ea2e51e4d873392a2913880611dbf565b6120f090893d8b116107ef576107e08183612736565b5038611d54565b88513d8d823e3d90fd5b875485516370a0823160e01b815233898201526001600160a01b03909116908781602481855afa90811561225d579086918b916122a9575b5010612267578551636eb1769f60e11b815233898201523060248201528781604481855afa90811561225d579086918b91612228575b50106121e557868561219a928a8c8a518096819582946323b872dd60e01b8452309033908501612818565b03925af180156121db576121be575b506121b6846016546127dd565b601655611d14565b6121d490873d89116107ef576107e08183612736565b50386121a9565b86513d8b823e3d90fd5b855162461bcd60e51b8152808901889052601e60248201527f496e73756666696369656e7420616c6c6f77616e636520666f722066656500006044820152606490fd5b809250898092503d8311612256575b6122418183612736565b81010312612252578590513861216f565b8980fd5b503d612237565b87513d8c823e3d90fd5b855162461bcd60e51b8152808901889052601c60248201527b496e73756666696369656e742062616c616e636520666f722066656560201b6044820152606490fd5b809250898092503d83116122d3575b6122c28183612736565b810103126122525785905138612139565b503d6122b8565b875162461bcd60e51b8152808b018a9052600b60248201526a139bdd08195e1c1a5c995960aa1b6044820152606490fd5b5050634e487b7160e01b8e5260418d5260248efd5b50505162461bcd60e51b815291820152600d60248201526c496e76616c6964207374616b6560981b604482015260649150fd5b5060ff8561236184846127c1565b50015416611c57565b505162461bcd60e51b8152918201526008602482015267111a5cd8589b195960c21b604482015260649150fd5b5050346103535781600319360112610353576020905160028152f35b5050346103535780600319360112610353576123cd6126c1565b6001600160a01b03908116835260126020528183208054602435949085101561040757506020936123fd916126dc565b92905490519260031b1c168152f35b503461032d57602080600319360112610742576124276126c1565b338552600f8083528486205490946001600160a01b039290918316612621578216943386146125ed5785156125ba5733875280845281872080546001600160a01b03191687179055858752601284528187208054909490600160401b8110156125a75761249c906001966001820181556126dc565b81549060031b908633831b921b19161790553388528181528484848a20541689915b6124f6575b89896124ce33612f29565b337fa6dbb5aa28f35437de94d685d66edce5fb4812196b4984b91dfd5a7b38c0fb308380a380f35b858116908115158061259d575b1561259757818b52848452600280878d2001549089820190818311612584578861256894938f93807fa0eea20e678cb42233c1c456c84cedce7ea53fa360bb71bf3b761b76095677709484878e8e8d809b5252200155825191825289820152a2612f29565b89528282528561257d86868c20541692612937565b91906124be565b634e487b7160e01b8e5260118c5260248efd5b506124c3565b50601e8310612503565b634e487b7160e01b895260418752602489fd5b849084606493519262461bcd60e51b845283015260248201526e496e76616c6964206164647265737360881b6044820152fd5b815162461bcd60e51b8152808601859052600e60248201526d53656c66207265666572656e636560901b6044820152606490fd5b815162461bcd60e51b8152808601859052600d60248201526c105b1c9958591e48189bdd5b99609a1b6044820152606490fd5b505034610353578160031936011261035357602090600b549051908152f35b50903461032d5736600319011261035357358015158091036103535760243580151580910361032d576126a4612946565b60ff61ff006015549260081b1692169061ffff1916171760155580f35b600435906001600160a01b03821682036126d757565b600080fd5b80548210156126f45760005260206000200190600090565b634e487b7160e01b600052603260045260246000fd5b6040919493926060820195825260208201520152565b60409060031901126126d7576004359060243590565b601f909101601f19168101906001600160401b0382119082101761275957604052565b634e487b7160e01b600052604160045260246000fd5b6001600160401b03811161275957601f01601f191660200190565b80548210156126f45760005260206000209060011b0190600090565b6001600160a01b039091168152602081019190915260400190565b80548210156126f4576000526006602060002091020190600090565b919082018092116127ea57565b634e487b7160e01b600052601160045260246000fd5b908160209103126126d7575180151581036126d75790565b6001600160a01b03918216815291166020820152604081019190915260600190565b919082039182116127ea57565b8115612851570490565b634e487b7160e01b600052601260045260246000fd5b818102929181159184041417156127ea57565b1561288157565b60405162461bcd60e51b815260206004820152601060248201526f139bc81858dd1a5d99481d1a58dad95d60821b6044820152606490fd5b156128c057565b60405162461bcd60e51b815260206004820152601260248201527110dbdb9d1c9858dd081a5cc81c185d5cd95960721b6044820152606490fd5b1561290157565b60405162461bcd60e51b815260206004820152600e60248201526d125b9d985b1a5908185b5bdd5b9d60921b6044820152606490fd5b60001981146127ea5760010190565b600080516020612fed833981519152546001600160a01b0316330361296757565b60405163118cdaa760e01b8152336004820152602490fd5b60008051602061306d833981519152600281541461299d5760029055565b604051633ee5aeb560e01b8152600490fd5b9060208201516129d360408401916129cd835160e087015190612867565b906127dd565b421090811591612a9557612a1181633b9aca00925160078114600014612a6b5750612a0963ffffffff62cb73565b168751612867565b905190612867565b046060840151808211600014612a5d57612a30612a4b9160649361283a565b60808601519095908015612a4f5760c090915b015190612867565b0491565b5060c060a082015191612a43565b50506064612a4b6000612a30565b600f03612a8357612a0963ffffffff62fe502b612a01565b612a0963ffffffff6301312d00612a01565b50600092508291829150565b6001600160a01b0316600081815260116020526040812080548291825b828110612aee575b505050604081612aec9460059352600f60205220019060ff801983541691151516179055565b565b60ff6004612afc83856127c1565b50015416612b0c57600101612abe565b506001935060409150829050612aec612ac6565b620186a0811015612bc657617530811015612bbd57612710811015612bb457610bb8811015612bab576103e8811015612ba25761012c811015612b99576064811015612b9057601e811015612b8757600a1115612b7f57600090600090565b600190600590565b50600290600a90565b50600390600f90565b50600490601490565b50600590601990565b50600690601e90565b50600790602390565b50600890602890565b50600990602d90565b919060018060a01b039283811690600094828652602090600f8252604092838820906010845284892060ff60058401541615908115612f1a575b8115612f0d575b50612f0457600491600383820154910190612c2d8254809261283a565b808a11612efc575b508815612ef15788612c46916127dd565b90558660011c91838a5416928651936370a0823160e01b9485815230848201528781602481855afa908d8215612ee657908492612eb5575b50101580612eac575b612e5f575b5060175480158015612e4b575b15612e085750612cb3670de0b6b3a7640000915b8a61283a565b670de0b6b3a764000090818102918183041490151715612df55790612cd791612847565b936001541692865190815230828201528581602481875afa908115612deb579085918c91612db6575b50101580612dad575b612d35575b5050505060008051602061304d83398151915292939495506002825191868352820152a290565b91612d5893918a869488519687958694859363a9059cbb60e01b855284016127a6565b03925af18015612da35760008051602061304d8339815191529495969750612d86575b869594938180612d0e565b612d9c90823d84116107ef576107e08183612736565b5038612d7b565b83513d89823e3d90fd5b50831515612d09565b809250878092503d8311612de4575b612dcf8183612736565b81010312612de05784905138612d00565b8a80fd5b503d612dc5565b87513d8d823e3d90fd5b634e487b7160e01b8c526011835260248cfd5b601654670de0b6b3a764000090818102918183041490151715612e3857612cb391612e3291612847565b91612cad565b634e487b7160e01b8d526011845260248dfd5b50683635c9adc5dea0000060165410612c99565b875163a9059cbb60e01b81529087908290818f81612e80888b8b84016127a6565b03925af180156118225715612c8c57612ea590873d89116107ef576107e08183612736565b5038612c8c565b50811515612c87565b809250898092503d8311612edf575b612ece8183612736565b810103126120895782905138612c7e565b503d612ec4565b8a51903d90823e3d90fd5b505050505050505050565b985038612c35565b50505050505050565b6001915001541538612c10565b600381015460ff169150612c09565b6001600160a01b03166000818152600f60205260409020600201547fea8384d3ca7bf5b7510d3faee44a3774406c1fd3ac14fff110a8c98d47a2595690606090612f7281612b20565b5090604051916000835260208301526040820152a2565b90612fb05750805115612f9e57602081519101fd5b60405163d6bda27560e01b8152600490fd5b81511580612fe3575b612fc1575090565b604051639996b31560e01b81526001600160a01b039091166004820152602490fd5b50803b15612fb956fe9016d09d72d40fdae2fd8ceac6b6234c7706214fd39c1cd1e609a0528c199300360894a13ba1a3210667c828492db98dca3e2076cc3735a920a3ca505d382bbc8be0079c531659141344cd1fd0a4f28419497f9722a3daafe3b4186f6b6457e0f381583145e90b82cc5e529bf4fc4d0e44397174cdf145c4251ac33ef195a4249b779b17422d0df92223018b32b4d1fa46e071723d6817e2486d003becc55f00f3a670cd3af7d64b488926880889d08a8585a138ff455227af6737339a1ec262a26469706673582212201e004733a2b0c699bc464e2e63d6efa01cdbb9c317a56bce7089f3d4245fdef264736f6c63430008160033",
  "linkReferences": {},
  "deployedLinkReferences": {}
}