{
  "_format": "hh-sol-artifact-1",
  "contractName": "JinbaoProtocolNative",
  "sourceName": "contracts/JinbaoProtocolNative.sol",
  "abi": [
    {
      "inputs": [],
      "stateMutability": "nonpayable",
      "type": "constructor"
    },
    {
      "inputs": [],
      "name": "ActionTooEarly",
      "type": "error"
    },
    {
      "inputs": [
        {
          "internalType": "address",
          "name": "target",
          "type": "address"
        }
      ],
      "name": "AddressEmptyCode",
      "type": "error"
    },
    {
      "inputs": [],
      "name": "AlreadyBound",
      "type": "error"
    },
    {
      "inputs": [],
      "name": "AlreadyExited",
      "type": "error"
    },
    {
      "inputs": [],
      "name": "BatchUpdateSizeMismatch",
      "type": "error"
    },
    {
      "inputs": [],
      "name": "ContractPaused",
      "type": "error"
    },
    {
      "inputs": [
        {
          "internalType": "address",
          "name": "implementation",
          "type": "address"
        }
      ],
      "name": "ERC1967InvalidImplementation",
      "type": "error"
    },
    {
      "inputs": [],
      "name": "ERC1967NonPayable",
      "type": "error"
    },
    {
      "inputs": [],
      "name": "Expired",
      "type": "error"
    },
    {
      "inputs": [],
      "name": "FailedCall",
      "type": "error"
    },
    {
      "inputs": [],
      "name": "InsufficientBalance",
      "type": "error"
    },
    {
      "inputs": [],
      "name": "InsufficientNativeBalance",
      "type": "error"
    },
    {
      "inputs": [],
      "name": "InvalidAddress",
      "type": "error"
    },
    {
      "inputs": [],
      "name": "InvalidAmount",
      "type": "error"
    },
    {
      "inputs": [],
      "name": "InvalidCycle",
      "type": "error"
    },
    {
      "inputs": [],
      "name": "InvalidFee",
      "type": "error"
    },
    {
      "inputs": [],
      "name": "InvalidInitialization",
      "type": "error"
    },
    {
      "inputs": [],
      "name": "InvalidLevelConfig",
      "type": "error"
    },
    {
      "inputs": [],
      "name": "InvalidRate",
      "type": "error"
    },
    {
      "inputs": [],
      "name": "InvalidTax",
      "type": "error"
    },
    {
      "inputs": [],
      "name": "InvalidTeamCountUpdate",
      "type": "error"
    },
    {
      "inputs": [],
      "name": "LowLiquidity",
      "type": "error"
    },
    {
      "inputs": [],
      "name": "NativeTransferFailed",
      "type": "error"
    },
    {
      "inputs": [],
      "name": "NoRewards",
      "type": "error"
    },
    {
      "inputs": [],
      "name": "NotActive",
      "type": "error"
    },
    {
      "inputs": [],
      "name": "NotInitializing",
      "type": "error"
    },
    {
      "inputs": [],
      "name": "NothingToRedeem",
      "type": "error"
    },
    {
      "inputs": [
        {
          "internalType": "address",
          "name": "owner",
          "type": "address"
        }
      ],
      "name": "OwnableInvalidOwner",
      "type": "error"
    },
    {
      "inputs": [
        {
          "internalType": "address",
          "name": "account",
          "type": "address"
        }
      ],
      "name": "OwnableUnauthorizedAccount",
      "type": "error"
    },
    {
      "inputs": [],
      "name": "RecursionDepthExceeded",
      "type": "error"
    },
    {
      "inputs": [],
      "name": "ReentrancyGuardReentrantCall",
      "type": "error"
    },
    {
      "inputs": [],
      "name": "SelfReference",
      "type": "error"
    },
    {
      "inputs": [],
      "name": "SumNot100",
      "type": "error"
    },
    {
      "inputs": [
        {
          "internalType": "address",
          "name": "user",
          "type": "address"
        },
        {
          "internalType": "uint256",
          "name": "expected",
          "type": "uint256"
        },
        {
          "internalType": "uint256",
          "name": "actual",
          "type": "uint256"
        }
      ],
      "name": "TeamCountMismatch",
      "type": "error"
    },
    {
      "inputs": [],
      "name": "TeamCountOverflow",
      "type": "error"
    },
    {
      "inputs": [],
      "name": "TransferFailed",
      "type": "error"
    },
    {
      "inputs": [
        {
          "internalType": "string",
          "name": "reason",
          "type": "string"
        }
      ],
      "name": "TransferFromFailed",
      "type": "error"
    },
    {
      "inputs": [],
      "name": "TransferFromFailedLowLevel",
      "type": "error"
    },
    {
      "inputs": [],
      "name": "UUPSUnauthorizedCallContext",
      "type": "error"
    },
    {
      "inputs": [
        {
          "internalType": "bytes32",
          "name": "slot",
          "type": "bytes32"
        }
      ],
      "name": "UUPSUnsupportedProxiableUUID",
      "type": "error"
    },
    {
      "inputs": [],
      "name": "Unauthorized",
      "type": "error"
    },
    {
      "anonymous": false,
      "inputs": [
        {
          "indexed": false,
          "internalType": "uint256",
          "name": "usersUpdated",
          "type": "uint256"
        }
      ],
      "name": "BatchTeamCountsUpdated",
      "type": "event"
    },
    {
      "anonymous": false,
      "inputs": [
        {
          "indexed": true,
          "internalType": "address",
          "name": "user",
          "type": "address"
        },
        {
          "indexed": true,
          "internalType": "address",
          "name": "referrer",
          "type": "address"
        }
      ],
      "name": "BoundReferrer",
      "type": "event"
    },
    {
      "anonymous": false,
      "inputs": [
        {
          "indexed": false,
          "internalType": "uint256",
          "name": "mcAmount",
          "type": "uint256"
        },
        {
          "indexed": false,
          "internalType": "uint256",
          "name": "jbcBurned",
          "type": "uint256"
        }
      ],
      "name": "BuybackAndBurn",
      "type": "event"
    },
    {
      "anonymous": false,
      "inputs": [
        {
          "indexed": true,
          "internalType": "address",
          "name": "user",
          "type": "address"
        },
        {
          "indexed": false,
          "internalType": "uint256",
          "name": "totalAmount",
          "type": "uint256"
        },
        {
          "indexed": false,
          "internalType": "uint256",
          "name": "mcPart",
          "type": "uint256"
        },
        {
          "indexed": false,
          "internalType": "uint256",
          "name": "jbcValuePart",
          "type": "uint256"
        },
        {
          "indexed": false,
          "internalType": "uint256",
          "name": "jbcPrice",
          "type": "uint256"
        },
        {
          "indexed": false,
          "internalType": "uint256",
          "name": "jbcAmount",
          "type": "uint256"
        }
      ],
      "name": "DifferentialRewardCalculated",
      "type": "event"
    },
    {
      "anonymous": false,
      "inputs": [
        {
          "indexed": true,
          "internalType": "address",
          "name": "user",
          "type": "address"
        },
        {
          "indexed": false,
          "internalType": "uint256",
          "name": "mcAmount",
          "type": "uint256"
        },
        {
          "indexed": false,
          "internalType": "uint256",
          "name": "jbcAmount",
          "type": "uint256"
        },
        {
          "indexed": false,
          "internalType": "uint256",
          "name": "jbcPrice",
          "type": "uint256"
        },
        {
          "indexed": false,
          "internalType": "uint256",
          "name": "timestamp",
          "type": "uint256"
        }
      ],
      "name": "DifferentialRewardDistributed",
      "type": "event"
    },
    {
      "anonymous": false,
      "inputs": [
        {
          "indexed": true,
          "internalType": "address",
          "name": "user",
          "type": "address"
        },
        {
          "indexed": false,
          "internalType": "uint256",
          "name": "totalAmount",
          "type": "uint256"
        },
        {
          "indexed": false,
          "internalType": "uint256",
          "name": "mcPart",
          "type": "uint256"
        },
        {
          "indexed": false,
          "internalType": "uint256",
          "name": "jbcAmount",
          "type": "uint256"
        },
        {
          "indexed": false,
          "internalType": "string",
          "name": "reason",
          "type": "string"
        }
      ],
      "name": "DifferentialRewardFailed",
      "type": "event"
    },
    {
      "anonymous": false,
      "inputs": [
        {
          "indexed": true,
          "internalType": "uint256",
          "name": "stakeId",
          "type": "uint256"
        },
        {
          "indexed": true,
          "internalType": "address",
          "name": "upline",
          "type": "address"
        },
        {
          "indexed": false,
          "internalType": "uint256",
          "name": "amount",
          "type": "uint256"
        }
      ],
      "name": "DifferentialRewardRecorded",
      "type": "event"
    },
    {
      "anonymous": false,
      "inputs": [
        {
          "indexed": true,
          "internalType": "uint256",
          "name": "stakeId",
          "type": "uint256"
        },
        {
          "indexed": true,
          "internalType": "address",
          "name": "upline",
          "type": "address"
        },
        {
          "indexed": false,
          "internalType": "uint256",
          "name": "amount",
          "type": "uint256"
        }
      ],
      "name": "DifferentialRewardReleased",
      "type": "event"
    },
    {
      "anonymous": false,
      "inputs": [
        {
          "indexed": false,
          "internalType": "uint256",
          "name": "direct",
          "type": "uint256"
        },
        {
          "indexed": false,
          "internalType": "uint256",
          "name": "level",
          "type": "uint256"
        },
        {
          "indexed": false,
          "internalType": "uint256",
          "name": "marketing",
          "type": "uint256"
        },
        {
          "indexed": false,
          "internalType": "uint256",
          "name": "buyback",
          "type": "uint256"
        },
        {
          "indexed": false,
          "internalType": "uint256",
          "name": "lpInjection",
          "type": "uint256"
        },
        {
          "indexed": false,
          "internalType": "uint256",
          "name": "treasury",
          "type": "uint256"
        }
      ],
      "name": "DistributionConfigUpdated",
      "type": "event"
    },
    {
      "anonymous": false,
      "inputs": [],
      "name": "EmergencyPaused",
      "type": "event"
    },
    {
      "anonymous": false,
      "inputs": [],
      "name": "EmergencyUnpaused",
      "type": "event"
    },
    {
      "anonymous": false,
      "inputs": [
        {
          "indexed": true,
          "internalType": "address",
          "name": "user",
          "type": "address"
        },
        {
          "indexed": false,
          "internalType": "uint256",
          "name": "ticketId",
          "type": "uint256"
        }
      ],
      "name": "Exited",
      "type": "event"
    },
    {
      "anonymous": false,
      "inputs": [
        {
          "indexed": true,
          "internalType": "address",
          "name": "user",
          "type": "address"
        },
        {
          "indexed": false,
          "internalType": "uint256",
          "name": "amount",
          "type": "uint256"
        }
      ],
      "name": "FeeRefunded",
      "type": "event"
    },
    {
      "anonymous": false,
      "inputs": [
        {
          "indexed": false,
          "internalType": "uint64",
          "name": "version",
          "type": "uint64"
        }
      ],
      "name": "Initialized",
      "type": "event"
    },
    {
      "anonymous": false,
      "inputs": [],
      "name": "LevelConfigsUpdated",
      "type": "event"
    },
    {
      "anonymous": false,
      "inputs": [
        {
          "indexed": false,
          "internalType": "uint256",
          "name": "amount",
          "type": "uint256"
        },
        {
          "indexed": false,
          "internalType": "uint256",
          "name": "newTotal",
          "type": "uint256"
        }
      ],
      "name": "LevelRewardPoolUpdated",
      "type": "event"
    },
    {
      "anonymous": false,
      "inputs": [
        {
          "indexed": true,
          "internalType": "address",
          "name": "to",
          "type": "address"
        },
        {
          "indexed": false,
          "internalType": "uint256",
          "name": "amount",
          "type": "uint256"
        }
      ],
      "name": "LevelRewardPoolWithdrawn",
      "type": "event"
    },
    {
      "anonymous": false,
      "inputs": [
        {
          "indexed": true,
          "internalType": "uint256",
          "name": "ticketId",
          "type": "uint256"
        },
        {
          "indexed": true,
          "internalType": "address",
          "name": "upline",
          "type": "address"
        },
        {
          "indexed": false,
          "internalType": "uint256",
          "name": "amount",
          "type": "uint256"
        }
      ],
      "name": "LevelRewardRecorded",
      "type": "event"
    },
    {
      "anonymous": false,
      "inputs": [
        {
          "indexed": true,
          "internalType": "uint256",
          "name": "ticketId",
          "type": "uint256"
        },
        {
          "indexed": true,
          "internalType": "address",
          "name": "upline",
          "type": "address"
        },
        {
          "indexed": false,
          "internalType": "uint256",
          "name": "amount",
          "type": "uint256"
        }
      ],
      "name": "LevelRewardReleased",
      "type": "event"
    },
    {
      "anonymous": false,
      "inputs": [
        {
          "indexed": false,
          "internalType": "uint256",
          "name": "mcAmount",
          "type": "uint256"
        },
        {
          "indexed": false,
          "internalType": "uint256",
          "name": "jbcAmount",
          "type": "uint256"
        }
      ],
      "name": "LiquidityAdded",
      "type": "event"
    },
    {
      "anonymous": false,
      "inputs": [
        {
          "indexed": true,
          "internalType": "address",
          "name": "user",
          "type": "address"
        },
        {
          "indexed": false,
          "internalType": "uint256",
          "name": "adjustedJbcAmount",
          "type": "uint256"
        }
      ],
      "name": "LiquidityProtectionTriggered",
      "type": "event"
    },
    {
      "anonymous": false,
      "inputs": [
        {
          "indexed": true,
          "internalType": "address",
          "name": "user",
          "type": "address"
        },
        {
          "indexed": false,
          "internalType": "uint256",
          "name": "amount",
          "type": "uint256"
        },
        {
          "indexed": false,
          "internalType": "uint256",
          "name": "cycleDays",
          "type": "uint256"
        },
        {
          "indexed": false,
          "internalType": "uint256",
          "name": "stakeId",
          "type": "uint256"
        }
      ],
      "name": "LiquidityStaked",
      "type": "event"
    },
    {
      "anonymous": false,
      "inputs": [
        {
          "indexed": false,
          "internalType": "bool",
          "name": "enabled",
          "type": "bool"
        }
      ],
      "name": "LiquidityStatusUpdated",
      "type": "event"
    },
    {
      "anonymous": false,
      "inputs": [
        {
          "indexed": true,
          "internalType": "address",
          "name": "from",
          "type": "address"
        },
        {
          "indexed": false,
          "internalType": "uint256",
          "name": "amount",
          "type": "uint256"
        }
      ],
      "name": "NativeMCReceived",
      "type": "event"
    },
    {
      "anonymous": false,
      "inputs": [
        {
          "indexed": true,
          "internalType": "address",
          "name": "to",
          "type": "address"
        },
        {
          "indexed": false,
          "internalType": "uint256",
          "name": "amount",
          "type": "uint256"
        }
      ],
      "name": "NativeMCWithdrawn",
      "type": "event"
    },
    {
      "anonymous": false,
      "inputs": [
        {
          "indexed": true,
          "internalType": "address",
          "name": "previousOwner",
          "type": "address"
        },
        {
          "indexed": true,
          "internalType": "address",
          "name": "newOwner",
          "type": "address"
        }
      ],
      "name": "OwnershipTransferred",
      "type": "event"
    },
    {
      "anonymous": false,
      "inputs": [
        {
          "indexed": true,
          "internalType": "address",
          "name": "user",
          "type": "address"
        },
        {
          "indexed": false,
          "internalType": "uint256",
          "name": "mcRequested",
          "type": "uint256"
        },
        {
          "indexed": false,
          "internalType": "uint256",
          "name": "mcTransferred",
          "type": "uint256"
        },
        {
          "indexed": false,
          "internalType": "uint256",
          "name": "jbcRequested",
          "type": "uint256"
        },
        {
          "indexed": false,
          "internalType": "uint256",
          "name": "jbcTransferred",
          "type": "uint256"
        }
      ],
      "name": "PartialRewardTransfer",
      "type": "event"
    },
    {
      "anonymous": false,
      "inputs": [
        {
          "indexed": false,
          "internalType": "bool",
          "name": "enabled",
          "type": "bool"
        }
      ],
      "name": "RedeemStatusUpdated",
      "type": "event"
    },
    {
      "anonymous": false,
      "inputs": [
        {
          "indexed": true,
          "internalType": "address",
          "name": "user",
          "type": "address"
        },
        {
          "indexed": false,
          "internalType": "uint256",
          "name": "principal",
          "type": "uint256"
        },
        {
          "indexed": false,
          "internalType": "uint256",
          "name": "fee",
          "type": "uint256"
        }
      ],
      "name": "Redeemed",
      "type": "event"
    },
    {
      "anonymous": false,
      "inputs": [
        {
          "indexed": false,
          "internalType": "uint256",
          "name": "newFee",
          "type": "uint256"
        }
      ],
      "name": "RedemptionFeeUpdated",
      "type": "event"
    },
    {
      "anonymous": false,
      "inputs": [
        {
          "indexed": true,
          "internalType": "address",
          "name": "user",
          "type": "address"
        },
        {
          "indexed": true,
          "internalType": "address",
          "name": "from",
          "type": "address"
        },
        {
          "indexed": false,
          "internalType": "uint256",
          "name": "mcAmount",
          "type": "uint256"
        },
        {
          "indexed": false,
          "internalType": "uint256",
          "name": "jbcAmount",
          "type": "uint256"
        },
        {
          "indexed": false,
          "internalType": "uint8",
          "name": "rewardType",
          "type": "uint8"
        },
        {
          "indexed": false,
          "internalType": "uint256",
          "name": "ticketId",
          "type": "uint256"
        }
      ],
      "name": "ReferralRewardPaid",
      "type": "event"
    },
    {
      "anonymous": false,
      "inputs": [
        {
          "indexed": true,
          "internalType": "address",
          "name": "user",
          "type": "address"
        },
        {
          "indexed": true,
          "internalType": "address",
          "name": "oldReferrer",
          "type": "address"
        },
        {
          "indexed": true,
          "internalType": "address",
          "name": "newReferrer",
          "type": "address"
        }
      ],
      "name": "ReferrerChanged",
      "type": "event"
    },
    {
      "anonymous": false,
      "inputs": [
        {
          "indexed": true,
          "internalType": "address",
          "name": "user",
          "type": "address"
        },
        {
          "indexed": false,
          "internalType": "uint256",
          "name": "amount",
          "type": "uint256"
        },
        {
          "indexed": false,
          "internalType": "uint256",
          "name": "cappedAmount",
          "type": "uint256"
        }
      ],
      "name": "RewardCapped",
      "type": "event"
    },
    {
      "anonymous": false,
      "inputs": [
        {
          "indexed": true,
          "internalType": "address",
          "name": "user",
          "type": "address"
        },
        {
          "indexed": false,
          "internalType": "uint256",
          "name": "mcAmount",
          "type": "uint256"
        },
        {
          "indexed": false,
          "internalType": "uint256",
          "name": "jbcAmount",
          "type": "uint256"
        },
        {
          "indexed": false,
          "internalType": "uint8",
          "name": "rewardType",
          "type": "uint8"
        },
        {
          "indexed": false,
          "internalType": "uint256",
          "name": "ticketId",
          "type": "uint256"
        }
      ],
      "name": "RewardClaimed",
      "type": "event"
    },
    {
      "anonymous": false,
      "inputs": [
        {
          "indexed": true,
          "internalType": "address",
          "name": "user",
          "type": "address"
        },
        {
          "indexed": false,
          "internalType": "uint256",
          "name": "amount",
          "type": "uint256"
        },
        {
          "indexed": false,
          "internalType": "uint8",
          "name": "rewardType",
          "type": "uint8"
        }
      ],
      "name": "RewardPaid",
      "type": "event"
    },
    {
      "anonymous": false,
      "inputs": [
        {
          "indexed": true,
          "internalType": "address",
          "name": "user",
          "type": "address"
        },
        {
          "indexed": false,
          "internalType": "uint256",
          "name": "mcAmount",
          "type": "uint256"
        },
        {
          "indexed": false,
          "internalType": "uint256",
          "name": "jbcAmount",
          "type": "uint256"
        },
        {
          "indexed": false,
          "internalType": "string",
          "name": "reason",
          "type": "string"
        }
      ],
      "name": "RewardTransferFailed",
      "type": "event"
    },
    {
      "anonymous": false,
      "inputs": [
        {
          "indexed": false,
          "internalType": "uint256",
          "name": "mcAmount",
          "type": "uint256"
        },
        {
          "indexed": false,
          "internalType": "uint256",
          "name": "jbcAmount",
          "type": "uint256"
        }
      ],
      "name": "SwapReservesWithdrawn",
      "type": "event"
    },
    {
      "anonymous": false,
      "inputs": [
        {
          "indexed": false,
          "internalType": "uint256",
          "name": "buyTax",
          "type": "uint256"
        },
        {
          "indexed": false,
          "internalType": "uint256",
          "name": "sellTax",
          "type": "uint256"
        }
      ],
      "name": "SwapTaxesUpdated",
      "type": "event"
    },
    {
      "anonymous": false,
      "inputs": [
        {
          "indexed": true,
          "internalType": "address",
          "name": "user",
          "type": "address"
        },
        {
          "indexed": false,
          "internalType": "uint256",
          "name": "jbcAmount",
          "type": "uint256"
        },
        {
          "indexed": false,
          "internalType": "uint256",
          "name": "mcAmount",
          "type": "uint256"
        },
        {
          "indexed": false,
          "internalType": "uint256",
          "name": "tax",
          "type": "uint256"
        }
      ],
      "name": "SwappedJBCToMC",
      "type": "event"
    },
    {
      "anonymous": false,
      "inputs": [
        {
          "indexed": true,
          "internalType": "address",
          "name": "user",
          "type": "address"
        },
        {
          "indexed": false,
          "internalType": "uint256",
          "name": "mcAmount",
          "type": "uint256"
        },
        {
          "indexed": false,
          "internalType": "uint256",
          "name": "jbcAmount",
          "type": "uint256"
        },
        {
          "indexed": false,
          "internalType": "uint256",
          "name": "tax",
          "type": "uint256"
        }
      ],
      "name": "SwappedMCToJBC",
      "type": "event"
    },
    {
      "anonymous": false,
      "inputs": [
        {
          "indexed": true,
          "internalType": "uint256",
          "name": "stakeId",
          "type": "uint256"
        },
        {
          "indexed": true,
          "internalType": "address",
          "name": "upline",
          "type": "address"
        },
        {
          "indexed": false,
          "internalType": "uint256",
          "name": "amount",
          "type": "uint256"
        },
        {
          "indexed": false,
          "internalType": "uint256",
          "name": "teamCount",
          "type": "uint256"
        }
      ],
      "name": "TeamBasedRewardCalculated",
      "type": "event"
    },
    {
      "anonymous": false,
      "inputs": [
        {
          "indexed": true,
          "internalType": "address",
          "name": "user",
          "type": "address"
        },
        {
          "indexed": false,
          "internalType": "uint256",
          "name": "oldCount",
          "type": "uint256"
        },
        {
          "indexed": false,
          "internalType": "uint256",
          "name": "newCount",
          "type": "uint256"
        }
      ],
      "name": "TeamCountUpdated",
      "type": "event"
    },
    {
      "anonymous": false,
      "inputs": [
        {
          "indexed": true,
          "internalType": "address",
          "name": "user",
          "type": "address"
        },
        {
          "indexed": false,
          "internalType": "uint256",
          "name": "expected",
          "type": "uint256"
        },
        {
          "indexed": false,
          "internalType": "uint256",
          "name": "actual",
          "type": "uint256"
        }
      ],
      "name": "TeamCountValidationFailed",
      "type": "event"
    },
    {
      "anonymous": false,
      "inputs": [
        {
          "indexed": true,
          "internalType": "address",
          "name": "user",
          "type": "address"
        },
        {
          "indexed": false,
          "internalType": "uint256",
          "name": "ticketId",
          "type": "uint256"
        },
        {
          "indexed": false,
          "internalType": "uint256",
          "name": "amount",
          "type": "uint256"
        }
      ],
      "name": "TicketExpired",
      "type": "event"
    },
    {
      "anonymous": false,
      "inputs": [
        {
          "indexed": false,
          "internalType": "uint256",
          "name": "newDuration",
          "type": "uint256"
        }
      ],
      "name": "TicketFlexibilityDurationUpdated",
      "type": "event"
    },
    {
      "anonymous": false,
      "inputs": [
        {
          "indexed": true,
          "internalType": "address",
          "name": "user",
          "type": "address"
        },
        {
          "indexed": false,
          "internalType": "uint256",
          "name": "amount",
          "type": "uint256"
        },
        {
          "indexed": false,
          "internalType": "uint256",
          "name": "ticketId",
          "type": "uint256"
        }
      ],
      "name": "TicketPurchased",
      "type": "event"
    },
    {
      "anonymous": false,
      "inputs": [
        {
          "indexed": false,
          "internalType": "address",
          "name": "token",
          "type": "address"
        },
        {
          "indexed": false,
          "internalType": "address",
          "name": "to",
          "type": "address"
        },
        {
          "indexed": false,
          "internalType": "uint256",
          "name": "amount",
          "type": "uint256"
        }
      ],
      "name": "TokensRescued",
      "type": "event"
    },
    {
      "anonymous": false,
      "inputs": [
        {
          "indexed": true,
          "internalType": "address",
          "name": "implementation",
          "type": "address"
        }
      ],
      "name": "Upgraded",
      "type": "event"
    },
    {
      "anonymous": false,
      "inputs": [
        {
          "indexed": true,
          "internalType": "address",
          "name": "user",
          "type": "address"
        },
        {
          "indexed": false,
          "internalType": "uint8",
          "name": "field",
          "type": "uint8"
        },
        {
          "indexed": false,
          "internalType": "uint256",
          "name": "value",
          "type": "uint256"
        }
      ],
      "name": "UserDataFieldUpdated",
      "type": "event"
    },
    {
      "anonymous": false,
      "inputs": [
        {
          "indexed": true,
          "internalType": "address",
          "name": "user",
          "type": "address"
        },
        {
          "indexed": false,
          "internalType": "uint256",
          "name": "oldLevel",
          "type": "uint256"
        },
        {
          "indexed": false,
          "internalType": "uint256",
          "name": "newLevel",
          "type": "uint256"
        },
        {
          "indexed": false,
          "internalType": "uint256",
          "name": "teamCount",
          "type": "uint256"
        }
      ],
      "name": "UserLevelChanged",
      "type": "event"
    },
    {
      "anonymous": false,
      "inputs": [
        {
          "indexed": false,
          "internalType": "address",
          "name": "marketing",
          "type": "address"
        },
        {
          "indexed": false,
          "internalType": "address",
          "name": "treasury",
          "type": "address"
        },
        {
          "indexed": false,
          "internalType": "address",
          "name": "lpInjection",
          "type": "address"
        },
        {
          "indexed": false,
          "internalType": "address",
          "name": "buyback",
          "type": "address"
        }
      ],
      "name": "WalletsUpdated",
      "type": "event"
    },
    {
      "inputs": [],
      "name": "MAX_PRICE_IMPACT",
      "outputs": [
        {
          "internalType": "uint256",
          "name": "",
          "type": "uint256"
        }
      ],
      "stateMutability": "view",
      "type": "function"
    },
    {
      "inputs": [],
      "name": "MIN_LIQUIDITY",
      "outputs": [
        {
          "internalType": "uint256",
          "name": "",
          "type": "uint256"
        }
      ],
      "stateMutability": "view",
      "type": "function"
    },
    {
      "inputs": [],
      "name": "REWARD_DIFFERENTIAL",
      "outputs": [
        {
          "internalType": "uint8",
          "name": "",
          "type": "uint8"
        }
      ],
      "stateMutability": "view",
      "type": "function"
    },
    {
      "inputs": [],
      "name": "REWARD_DIRECT",
      "outputs": [
        {
          "internalType": "uint8",
          "name": "",
          "type": "uint8"
        }
      ],
      "stateMutability": "view",
      "type": "function"
    },
    {
      "inputs": [],
      "name": "REWARD_DYNAMIC",
      "outputs": [
        {
          "internalType": "uint8",
          "name": "",
          "type": "uint8"
        }
      ],
      "stateMutability": "view",
      "type": "function"
    },
    {
      "inputs": [],
      "name": "REWARD_LEVEL",
      "outputs": [
        {
          "internalType": "uint8",
          "name": "",
          "type": "uint8"
        }
      ],
      "stateMutability": "view",
      "type": "function"
    },
    {
      "inputs": [],
      "name": "REWARD_STATIC",
      "outputs": [
        {
          "internalType": "uint8",
          "name": "",
          "type": "uint8"
        }
      ],
      "stateMutability": "view",
      "type": "function"
    },
    {
      "inputs": [],
      "name": "SECONDS_IN_UNIT",
      "outputs": [
        {
          "internalType": "uint256",
          "name": "",
          "type": "uint256"
        }
      ],
      "stateMutability": "view",
      "type": "function"
    },
    {
      "inputs": [],
      "name": "UPGRADE_INTERFACE_VERSION",
      "outputs": [
        {
          "internalType": "string",
          "name": "",
          "type": "string"
        }
      ],
      "stateMutability": "view",
      "type": "function"
    },
    {
      "inputs": [
        {
          "internalType": "uint256",
          "name": "jbcAmount",
          "type": "uint256"
        }
      ],
      "name": "addLiquidity",
      "outputs": [],
      "stateMutability": "payable",
      "type": "function"
    },
    {
      "inputs": [
        {
          "internalType": "address",
          "name": "user",
          "type": "address"
        },
        {
          "internalType": "address",
          "name": "newReferrer",
          "type": "address"
        }
      ],
      "name": "adminSetReferrer",
      "outputs": [],
      "stateMutability": "nonpayable",
      "type": "function"
    },
    {
      "inputs": [
        {
          "internalType": "address",
          "name": "_referrer",
          "type": "address"
        }
      ],
      "name": "bindReferrer",
      "outputs": [],
      "stateMutability": "nonpayable",
      "type": "function"
    },
    {
      "inputs": [],
      "name": "buyTicket",
      "outputs": [],
      "stateMutability": "payable",
      "type": "function"
    },
    {
      "inputs": [],
      "name": "buybackPercent",
      "outputs": [
        {
          "internalType": "uint256",
          "name": "",
          "type": "uint256"
        }
      ],
      "stateMutability": "view",
      "type": "function"
    },
    {
      "inputs": [],
      "name": "buybackWallet",
      "outputs": [
        {
          "internalType": "address",
          "name": "",
          "type": "address"
        }
      ],
      "stateMutability": "view",
      "type": "function"
    },
    {
      "inputs": [
        {
          "internalType": "uint256",
          "name": "teamCount",
          "type": "uint256"
        }
      ],
      "name": "calculateLevel",
      "outputs": [
        {
          "internalType": "uint256",
          "name": "level",
          "type": "uint256"
        },
        {
          "internalType": "uint256",
          "name": "percent",
          "type": "uint256"
        }
      ],
      "stateMutability": "pure",
      "type": "function"
    },
    {
      "inputs": [],
      "name": "claimRewards",
      "outputs": [],
      "stateMutability": "nonpayable",
      "type": "function"
    },
    {
      "inputs": [],
      "name": "dailyBurn",
      "outputs": [],
      "stateMutability": "nonpayable",
      "type": "function"
    },
    {
      "inputs": [
        {
          "internalType": "address",
          "name": "",
          "type": "address"
        },
        {
          "internalType": "uint256",
          "name": "",
          "type": "uint256"
        }
      ],
      "name": "directReferrals",
      "outputs": [
        {
          "internalType": "address",
          "name": "",
          "type": "address"
        }
      ],
      "stateMutability": "view",
      "type": "function"
    },
    {
      "inputs": [],
      "name": "directRewardPercent",
      "outputs": [
        {
          "internalType": "uint256",
          "name": "",
          "type": "uint256"
        }
      ],
      "stateMutability": "view",
      "type": "function"
    },
    {
      "inputs": [],
      "name": "emergencyPause",
      "outputs": [],
      "stateMutability": "nonpayable",
      "type": "function"
    },
    {
      "inputs": [],
      "name": "emergencyPaused",
      "outputs": [
        {
          "internalType": "bool",
          "name": "",
          "type": "bool"
        }
      ],
      "stateMutability": "view",
      "type": "function"
    },
    {
      "inputs": [],
      "name": "emergencyUnpause",
      "outputs": [],
      "stateMutability": "nonpayable",
      "type": "function"
    },
    {
      "inputs": [
        {
          "internalType": "address",
          "name": "_to",
          "type": "address"
        },
        {
          "internalType": "uint256",
          "name": "_amount",
          "type": "uint256"
        }
      ],
      "name": "emergencyWithdrawNative",
      "outputs": [],
      "stateMutability": "nonpayable",
      "type": "function"
    },
    {
      "inputs": [
        {
          "internalType": "address",
          "name": "user",
          "type": "address"
        }
      ],
      "name": "getDirectReferrals",
      "outputs": [
        {
          "internalType": "address[]",
          "name": "",
          "type": "address[]"
        }
      ],
      "stateMutability": "view",
      "type": "function"
    },
    {
      "inputs": [
        {
          "internalType": "uint256",
          "name": "activeDirects",
          "type": "uint256"
        }
      ],
      "name": "getLevelRewardLayers",
      "outputs": [
        {
          "internalType": "uint256",
          "name": "",
          "type": "uint256"
        }
      ],
      "stateMutability": "pure",
      "type": "function"
    },
    {
      "inputs": [
        {
          "internalType": "address",
          "name": "user",
          "type": "address"
        }
      ],
      "name": "getUserLevel",
      "outputs": [
        {
          "internalType": "uint256",
          "name": "level",
          "type": "uint256"
        },
        {
          "internalType": "uint256",
          "name": "percent",
          "type": "uint256"
        },
        {
          "internalType": "uint256",
          "name": "teamCount",
          "type": "uint256"
        }
      ],
      "stateMutability": "view",
      "type": "function"
    },
    {
      "inputs": [
        {
          "internalType": "address",
          "name": "_jbcToken",
          "type": "address"
        },
        {
          "internalType": "address",
          "name": "_marketing",
          "type": "address"
        },
        {
          "internalType": "address",
          "name": "_treasury",
          "type": "address"
        },
        {
          "internalType": "address",
          "name": "_lpInjection",
          "type": "address"
        },
        {
          "internalType": "address",
          "name": "_buybackWallet",
          "type": "address"
        }
      ],
      "name": "initialize",
      "outputs": [],
      "stateMutability": "nonpayable",
      "type": "function"
    },
    {
      "inputs": [],
      "name": "jbcToken",
      "outputs": [
        {
          "internalType": "contract IJBC",
          "name": "",
          "type": "address"
        }
      ],
      "stateMutability": "view",
      "type": "function"
    },
    {
      "inputs": [],
      "name": "lastBurnTime",
      "outputs": [
        {
          "internalType": "uint256",
          "name": "",
          "type": "uint256"
        }
      ],
      "stateMutability": "view",
      "type": "function"
    },
    {
      "inputs": [
        {
          "internalType": "uint256",
          "name": "",
          "type": "uint256"
        }
      ],
      "name": "levelConfigs",
      "outputs": [
        {
          "internalType": "uint256",
          "name": "minDirects",
          "type": "uint256"
        },
        {
          "internalType": "uint256",
          "name": "level",
          "type": "uint256"
        },
        {
          "internalType": "uint256",
          "name": "percent",
          "type": "uint256"
        }
      ],
      "stateMutability": "view",
      "type": "function"
    },
    {
      "inputs": [],
      "name": "levelRewardPercent",
      "outputs": [
        {
          "internalType": "uint256",
          "name": "",
          "type": "uint256"
        }
      ],
      "stateMutability": "view",
      "type": "function"
    },
    {
      "inputs": [],
      "name": "levelRewardPool",
      "outputs": [
        {
          "internalType": "uint256",
          "name": "",
          "type": "uint256"
        }
      ],
      "stateMutability": "view",
      "type": "function"
    },
    {
      "inputs": [],
      "name": "liquidityEnabled",
      "outputs": [
        {
          "internalType": "bool",
          "name": "",
          "type": "bool"
        }
      ],
      "stateMutability": "view",
      "type": "function"
    },
    {
      "inputs": [],
      "name": "lpInjectionPercent",
      "outputs": [
        {
          "internalType": "uint256",
          "name": "",
          "type": "uint256"
        }
      ],
      "stateMutability": "view",
      "type": "function"
    },
    {
      "inputs": [],
      "name": "lpInjectionWallet",
      "outputs": [
        {
          "internalType": "address",
          "name": "",
          "type": "address"
        }
      ],
      "stateMutability": "view",
      "type": "function"
    },
    {
      "inputs": [],
      "name": "marketingPercent",
      "outputs": [
        {
          "internalType": "uint256",
          "name": "",
          "type": "uint256"
        }
      ],
      "stateMutability": "view",
      "type": "function"
    },
    {
      "inputs": [],
      "name": "marketingWallet",
      "outputs": [
        {
          "internalType": "address",
          "name": "",
          "type": "address"
        }
      ],
      "stateMutability": "view",
      "type": "function"
    },
    {
      "inputs": [],
      "name": "nextStakeId",
      "outputs": [
        {
          "internalType": "uint256",
          "name": "",
          "type": "uint256"
        }
      ],
      "stateMutability": "view",
      "type": "function"
    },
    {
      "inputs": [],
      "name": "nextTicketId",
      "outputs": [
        {
          "internalType": "uint256",
          "name": "",
          "type": "uint256"
        }
      ],
      "stateMutability": "view",
      "type": "function"
    },
    {
      "inputs": [],
      "name": "owner",
      "outputs": [
        {
          "internalType": "address",
          "name": "",
          "type": "address"
        }
      ],
      "stateMutability": "view",
      "type": "function"
    },
    {
      "inputs": [],
      "name": "priceOracle",
      "outputs": [
        {
          "internalType": "address",
          "name": "",
          "type": "address"
        }
      ],
      "stateMutability": "view",
      "type": "function"
    },
    {
      "inputs": [],
      "name": "proxiableUUID",
      "outputs": [
        {
          "internalType": "bytes32",
          "name": "",
          "type": "bytes32"
        }
      ],
      "stateMutability": "view",
      "type": "function"
    },
    {
      "inputs": [],
      "name": "redeem",
      "outputs": [],
      "stateMutability": "nonpayable",
      "type": "function"
    },
    {
      "inputs": [],
      "name": "redeemEnabled",
      "outputs": [
        {
          "internalType": "bool",
          "name": "",
          "type": "bool"
        }
      ],
      "stateMutability": "view",
      "type": "function"
    },
    {
      "inputs": [],
      "name": "redemptionFeePercent",
      "outputs": [
        {
          "internalType": "uint256",
          "name": "",
          "type": "uint256"
        }
      ],
      "stateMutability": "view",
      "type": "function"
    },
    {
      "inputs": [],
      "name": "renounceOwnership",
      "outputs": [],
      "stateMutability": "nonpayable",
      "type": "function"
    },
    {
      "inputs": [
        {
          "internalType": "address",
          "name": "_token",
          "type": "address"
        },
        {
          "internalType": "address",
          "name": "_to",
          "type": "address"
        },
        {
          "internalType": "uint256",
          "name": "_amount",
          "type": "uint256"
        }
      ],
      "name": "rescueTokens",
      "outputs": [],
      "stateMutability": "nonpayable",
      "type": "function"
    },
    {
      "inputs": [
        {
          "internalType": "uint256",
          "name": "_direct",
          "type": "uint256"
        },
        {
          "internalType": "uint256",
          "name": "_level",
          "type": "uint256"
        },
        {
          "internalType": "uint256",
          "name": "_marketing",
          "type": "uint256"
        },
        {
          "internalType": "uint256",
          "name": "_buyback",
          "type": "uint256"
        },
        {
          "internalType": "uint256",
          "name": "_lpInjection",
          "type": "uint256"
        },
        {
          "internalType": "uint256",
          "name": "_treasury",
          "type": "uint256"
        }
      ],
      "name": "setDistributionConfig",
      "outputs": [],
      "stateMutability": "nonpayable",
      "type": "function"
    },
    {
      "inputs": [
        {
          "internalType": "bool",
          "name": "_liquidityEnabled",
          "type": "bool"
        },
        {
          "internalType": "bool",
          "name": "_redeemEnabled",
          "type": "bool"
        }
      ],
      "name": "setOperationalStatus",
      "outputs": [],
      "stateMutability": "nonpayable",
      "type": "function"
    },
    {
      "inputs": [
        {
          "internalType": "uint256",
          "name": "_fee",
          "type": "uint256"
        }
      ],
      "name": "setRedemptionFeePercent",
      "outputs": [],
      "stateMutability": "nonpayable",
      "type": "function"
    },
    {
      "inputs": [
        {
          "internalType": "uint256",
          "name": "_buyTax",
          "type": "uint256"
        },
        {
          "internalType": "uint256",
          "name": "_sellTax",
          "type": "uint256"
        }
      ],
      "name": "setSwapTaxes",
      "outputs": [],
      "stateMutability": "nonpayable",
      "type": "function"
    },
    {
      "inputs": [
        {
          "internalType": "uint256",
          "name": "_duration",
          "type": "uint256"
        }
      ],
      "name": "setTicketFlexibilityDuration",
      "outputs": [],
      "stateMutability": "nonpayable",
      "type": "function"
    },
    {
      "inputs": [
        {
          "internalType": "address",
          "name": "_marketing",
          "type": "address"
        },
        {
          "internalType": "address",
          "name": "_treasury",
          "type": "address"
        },
        {
          "internalType": "address",
          "name": "_lpInjection",
          "type": "address"
        },
        {
          "internalType": "address",
          "name": "_buyback",
          "type": "address"
        }
      ],
      "name": "setWallets",
      "outputs": [],
      "stateMutability": "nonpayable",
      "type": "function"
    },
    {
      "inputs": [
        {
          "internalType": "uint256",
          "name": "cycleDays",
          "type": "uint256"
        }
      ],
      "name": "stakeLiquidity",
      "outputs": [],
      "stateMutability": "payable",
      "type": "function"
    },
    {
      "inputs": [
        {
          "internalType": "uint256",
          "name": "",
          "type": "uint256"
        }
      ],
      "name": "stakeOwner",
      "outputs": [
        {
          "internalType": "address",
          "name": "",
          "type": "address"
        }
      ],
      "stateMutability": "view",
      "type": "function"
    },
    {
      "inputs": [
        {
          "internalType": "uint256",
          "name": "",
          "type": "uint256"
        },
        {
          "internalType": "uint256",
          "name": "",
          "type": "uint256"
        }
      ],
      "name": "stakePendingRewards",
      "outputs": [
        {
          "internalType": "address",
          "name": "upline",
          "type": "address"
        },
        {
          "internalType": "uint256",
          "name": "amount",
          "type": "uint256"
        }
      ],
      "stateMutability": "view",
      "type": "function"
    },
    {
      "inputs": [],
      "name": "swapBuyTax",
      "outputs": [
        {
          "internalType": "uint256",
          "name": "",
          "type": "uint256"
        }
      ],
      "stateMutability": "view",
      "type": "function"
    },
    {
      "inputs": [
        {
          "internalType": "uint256",
          "name": "jbcAmount",
          "type": "uint256"
        }
      ],
      "name": "swapJBCToMC",
      "outputs": [],
      "stateMutability": "nonpayable",
      "type": "function"
    },
    {
      "inputs": [],
      "name": "swapMCToJBC",
      "outputs": [],
      "stateMutability": "payable",
      "type": "function"
    },
    {
      "inputs": [],
      "name": "swapReserveJBC",
      "outputs": [
        {
          "internalType": "uint256",
          "name": "",
          "type": "uint256"
        }
      ],
      "stateMutability": "view",
      "type": "function"
    },
    {
      "inputs": [],
      "name": "swapReserveMC",
      "outputs": [
        {
          "internalType": "uint256",
          "name": "",
          "type": "uint256"
        }
      ],
      "stateMutability": "view",
      "type": "function"
    },
    {
      "inputs": [],
      "name": "swapSellTax",
      "outputs": [
        {
          "internalType": "uint256",
          "name": "",
          "type": "uint256"
        }
      ],
      "stateMutability": "view",
      "type": "function"
    },
    {
      "inputs": [],
      "name": "ticketFlexibilityDuration",
      "outputs": [
        {
          "internalType": "uint256",
          "name": "",
          "type": "uint256"
        }
      ],
      "stateMutability": "view",
      "type": "function"
    },
    {
      "inputs": [
        {
          "internalType": "uint256",
          "name": "",
          "type": "uint256"
        }
      ],
      "name": "ticketOwner",
      "outputs": [
        {
          "internalType": "address",
          "name": "",
          "type": "address"
        }
      ],
      "stateMutability": "view",
      "type": "function"
    },
    {
      "inputs": [
        {
          "internalType": "uint256",
          "name": "",
          "type": "uint256"
        },
        {
          "internalType": "uint256",
          "name": "",
          "type": "uint256"
        }
      ],
      "name": "ticketPendingRewards",
      "outputs": [
        {
          "internalType": "address",
          "name": "upline",
          "type": "address"
        },
        {
          "internalType": "uint256",
          "name": "amount",
          "type": "uint256"
        }
      ],
      "stateMutability": "view",
      "type": "function"
    },
    {
      "inputs": [
        {
          "internalType": "address",
          "name": "newOwner",
          "type": "address"
        }
      ],
      "name": "transferOwnership",
      "outputs": [],
      "stateMutability": "nonpayable",
      "type": "function"
    },
    {
      "inputs": [],
      "name": "treasuryPercent",
      "outputs": [
        {
          "internalType": "uint256",
          "name": "",
          "type": "uint256"
        }
      ],
      "stateMutability": "view",
      "type": "function"
    },
    {
      "inputs": [],
      "name": "treasuryWallet",
      "outputs": [
        {
          "internalType": "address",
          "name": "",
          "type": "address"
        }
      ],
      "stateMutability": "view",
      "type": "function"
    },
    {
      "inputs": [
        {
          "internalType": "address",
          "name": "newImplementation",
          "type": "address"
        },
        {
          "internalType": "bytes",
          "name": "data",
          "type": "bytes"
        }
      ],
      "name": "upgradeToAndCall",
      "outputs": [],
      "stateMutability": "payable",
      "type": "function"
    },
    {
      "inputs": [
        {
          "internalType": "address",
          "name": "",
          "type": "address"
        }
      ],
      "name": "userInfo",
      "outputs": [
        {
          "internalType": "address",
          "name": "referrer",
          "type": "address"
        },
        {
          "internalType": "uint256",
          "name": "activeDirects",
          "type": "uint256"
        },
        {
          "internalType": "uint256",
          "name": "teamCount",
          "type": "uint256"
        },
        {
          "internalType": "uint256",
          "name": "totalRevenue",
          "type": "uint256"
        },
        {
          "internalType": "uint256",
          "name": "currentCap",
          "type": "uint256"
        },
        {
          "internalType": "bool",
          "name": "isActive",
          "type": "bool"
        },
        {
          "internalType": "uint256",
          "name": "refundFeeAmount",
          "type": "uint256"
        },
        {
          "internalType": "uint256",
          "name": "teamTotalVolume",
          "type": "uint256"
        },
        {
          "internalType": "uint256",
          "name": "teamTotalCap",
          "type": "uint256"
        },
        {
          "internalType": "uint256",
          "name": "maxTicketAmount",
          "type": "uint256"
        },
        {
          "internalType": "uint256",
          "name": "maxSingleTicketAmount",
          "type": "uint256"
        }
      ],
      "stateMutability": "view",
      "type": "function"
    },
    {
      "inputs": [
        {
          "internalType": "address",
          "name": "",
          "type": "address"
        },
        {
          "internalType": "uint256",
          "name": "",
          "type": "uint256"
        }
      ],
      "name": "userStakes",
      "outputs": [
        {
          "internalType": "uint256",
          "name": "id",
          "type": "uint256"
        },
        {
          "internalType": "uint256",
          "name": "amount",
          "type": "uint256"
        },
        {
          "internalType": "uint256",
          "name": "startTime",
          "type": "uint256"
        },
        {
          "internalType": "uint256",
          "name": "cycleDays",
          "type": "uint256"
        },
        {
          "internalType": "bool",
          "name": "active",
          "type": "bool"
        },
        {
          "internalType": "uint256",
          "name": "paid",
          "type": "uint256"
        }
      ],
      "stateMutability": "view",
      "type": "function"
    },
    {
      "inputs": [
        {
          "internalType": "address",
          "name": "",
          "type": "address"
        }
      ],
      "name": "userTicket",
      "outputs": [
        {
          "internalType": "uint256",
          "name": "ticketId",
          "type": "uint256"
        },
        {
          "internalType": "uint256",
          "name": "amount",
          "type": "uint256"
        },
        {
          "internalType": "uint256",
          "name": "purchaseTime",
          "type": "uint256"
        },
        {
          "internalType": "bool",
          "name": "exited",
          "type": "bool"
        }
      ],
      "stateMutability": "view",
      "type": "function"
    },
    {
      "inputs": [
        {
          "internalType": "address",
          "name": "_to",
          "type": "address"
        },
        {
          "internalType": "uint256",
          "name": "_amount",
          "type": "uint256"
        }
      ],
      "name": "withdrawLevelRewardPool",
      "outputs": [],
      "stateMutability": "nonpayable",
      "type": "function"
    },
    {
      "inputs": [
        {
          "internalType": "address",
          "name": "_toMC",
          "type": "address"
        },
        {
          "internalType": "uint256",
          "name": "_amountMC",
          "type": "uint256"
        },
        {
          "internalType": "address",
          "name": "_toJBC",
          "type": "address"
        },
        {
          "internalType": "uint256",
          "name": "_amountJBC",
          "type": "uint256"
        }
      ],
      "name": "withdrawSwapReserves",
      "outputs": [],
      "stateMutability": "nonpayable",
      "type": "function"
    },
    {
      "stateMutability": "payable",
      "type": "receive"
    }
  ],
  "bytecode": "0x60a08060405234620000d157306080527ff0c57e16840df040f15088dc2f81fe391c3923bec73e23a9662efc9c229c6a009081549060ff8260401c16620000c257506001600160401b036002600160401b0319828216016200007c575b6040516153159081620000d78239608051818181611e6901526122a80152f35b6001600160401b031990911681179091556040519081527fc7f505b2f371ae2175ee4913f4499e1f2633a7b5936321eed1cdaeb6115181d290602090a13880806200005c565b63f92ee8a960e01b8152600490fd5b600080fdfe60806040526004361015610056575b361561001957600080fd5b61002534601654613496565b6016556040513481527fc8382e3e3003d34021113f35bf95ee86b77a09ec08c4eb3cbe64076e60468f4e60203392a2005b6000803560e01c806301d62efb1461312c57806304ef9d581461310e57806304f618cb14612f3f57806305ad393514612ee45780630e2be21014612ec85780631427f61614612eac5780631459457a14612cb25780631788513c14612c8b578063182c84cc14612c645780631959a00214612bb25780631d0dac7614612b9457806321923bde14612b4557806321b77d6314612b2157806321f483d314612ad95780632630c12f14612aac57806327c830a914612a8957806327f082f414612a6b5780633507637314612521578063372500ab146125005780633dbd46bd146124cd5780634626402b146124a4578063488b5d97146124865780634a4e3bd51461243c5780634f1ef2861461222d57806351858e27146121e057806351c6590a1461209157806352778b0514611ec157806352d1902d14611e565780636031a52f14611e385780636839b5fa14611e1b5780636dd6682714611dfd578063715018a614611da457806375506c9614611d8657806375f0a87414611d5d57806377a2a54014611d3f578063813380cd14611d1157806381eeef5c14611c2c57806383672f3e14611b34578063841d308b146118da5780638710bcaa1461187957806388481b611461185d57806388fd4d33146118345780638a859a85146118185780638c0eaa48146117fc5780638da5cb5b146117c657806390b0eb51146117765780639370b0801461175857806399b6024d146116cd5780639b788504146116515780639d99eca414611603578063a2af9226146115d0578063ac8f50aa1461157c578063ad3cb1cc1461153a578063b048a4bb14611517578063b5d5b5fa14611489578063b759936b1461146b578063bd594dcf1461144d578063be040fb014610f38578063c2ff12fc14610f05578063ccf6194414610ee7578063cea9d26f14610df4578063ceaa366d14610dd6578063d0f1647014610d4c578063d2c8e0e514610c9d578063d2f8253614610c77578063d4f0014214610b1b578063d8020a1814610afd578063dce3dc1f14610ad2578063deab8aea14610aa9578063dec7fa3b14610a8b578063e306744914610a6d578063e4412f6814610a4f578063ece7126614610a01578063edca914c146103ca5763f2fde38b1461039b575061000e565b346103c75760203660031901126103c7576103c46103b76131d3565b6103bf613d4e565b613cec565b80f35b80fd5b50806003193601126103c7576103de613e36565b60ff604e54166109ef576103f13361446c565b68056bc75e2d63100000341415806109dc575b806109c9575b806109b6575b6109a457338152600f6020526040812060038101805460ff16156108d957610439601854613431565b80601855825534600183015542600283015560ff198154169055338252600e60205281600360408220015560033402348104600314341517156108c557338352600e60205260046040842001555b600a6001820154338452600e602052604084209060098201805482116108bd575b505001805434116108b4575b5080548252601b6020908152604080842080546001600160a01b031916339081179091558452600e9091528220546001600160a01b0316801515806108a0575b1561087e57610511606461050a60055434613456565b0482614638565b9081610849575b50505b338252600e6020526040822054829182916001600160a01b03169082903480159080046001141715610835579394915b6001600160a01b0381168015158061082b575b80610821575b1561066f578452600e6020526040842060ff6005820154161561065057506001600160a01b0381168452600e602052604084206001015483906105a690613401565b116105e2575b6001600160a01b039081168452600e602052604084205416916105d8906105d290613431565b95613431565b935b93949161054b565b6105ef6064340482614771565b806105fb575b506105ac565b918261060691613496565b91338552600f60205260408520546040519182528560208301526003604083015260608201523390600080516020615160833981519152608060018060a01b03851692a3386105f5565b5492956001600160a01b03909316926106699150613431565b936105da565b848661068985606461068360065434613456565b04613489565b806107dc575b5060018060a01b03600154166106b660079160646106af60075434613456565b0490613f25565b6106cd60646106c760085434613456565b04614e1f565b6106e960018060a01b036003541660646106af60095434613456565b61070560018060a01b036002541660646106af600a5434613456565b336000908152600e6020526040812054909234151592916001600160a01b03165b6001600160a01b0316801515806107d2575b1561077f57600052600e6020526107648360406000209061076a575b546001600160a01b031694613431565b93610726565b838101610778348254613496565b9055610754565b858261078a33613e73565b546040519034825260208201527f2a91574e12ad96234e84923e146b0946ecfb871cd8d5534dc1fdcbe87a7c01b360403392a260016000805160206152a08339815191525580f35b50601e8510610738565b60408161080c7fca2e2bff26d2adb9fe155e9265350494c16751676879cb7ced9141e0fcf3934393601e54613496565b80601e5582519182526020820152a18261068f565b5060148710610564565b50600f841061055e565b634e487b7160e01b84526011600452602484fd5b825460405192835284602084015260026040840152606083015260008051602061516083398151915260803393a33880610518565b5061089b60018060a01b036001541660646106af60055434613456565b61051b565b5080835260ff6005604085200154166104f4565b349055386104b4565b5538806104a8565b634e487b7160e01b83526011600452602483fd5b6001820180548061093f57506108f0601854613431565b80601855835534905542600283015560ff198154169055338252600e60205281600360408220015560033402348104600314341517156108c557338352600e6020526004604084200155610487565b61094c9192503490613496565b9055338252600e60205260ff600560408420015416610999575b60033402348104600314341517156108c557338352600e60205261099260046040852001918254613496565b9055610487565b426002820155610966565b60405163162908e360e11b8152600490fd5b50683635c9adc5dea00000341415610410565b50681b1ae4d6e2ef50000034141561040a565b50681043561a8829300000341415610404565b60405163ab35696f60e01b8152600490fd5b50346103c75760203660031901126103c7577fc7f6975dcffc536e6e57dd1d1dea810fff534a70563baf2d6f977b119bd00e1b6020600435610a41613d4e565b80600b55604051908152a180f35b50346103c757806003193601126103c7576020600854604051908152f35b50346103c757806003193601126103c7576020601a54604051908152f35b50346103c757806003193601126103c7576020600b54604051908152f35b50346103c757806003193601126103c7576004546040516001600160a01b039091168152602090f35b50346103c75760203660031901126103c7576040610af1600435613d87565b82519182526020820152f35b50346103c757806003193601126103c7576020600754604051908152f35b50346103c75760803660031901126103c757610b356131d3565b60243590610b416131ff565b60643591610b4d613d4e565b83610c21575b5081610b7c575b506000805160206152008339815191529160409182519182526020820152a180f35b91602082610bbb94610b9082601754613489565b60175560018060a01b03875416908760405180988195829463a9059cbb60e01b84526004840161333e565b03925af1918215610c165760008051602061520083398151915293604093610be7575b50915091610b5a565b610c089060203d602011610c0f575b610c0081836132ce565b8101906134a3565b5038610bde565b503d610bf6565b6040513d86823e3d90fd5b834710610c6557848080868194610c3a82601654613489565b6016555af1610c476139ad565b5015610c535738610b53565b604051633d2cec6f60e21b8152600490fd5b60405163dbc3a71f60e01b8152600490fd5b50346103c757806003193601126103c757602060ff60155460081c166040519015158152f35b50346103c757602090816003193601126103c7576001600160a01b03919082610cc46131d3565b168152601182526040812090604051808484549182815201908194845285842090845b818110610d365750505081610cfd9103826132ce565b6040519380850191818652518092526040850193925b828110610d205785850386f35b8351871685529381019392810192600101610d13565b8254891684529287019260019283019201610ce7565b50346103c75760c03660031901126103c7577f66682b276e4cd1a4e1f68b55b1143766c5332f472eb593cf2a70a25d9d5d991760c060043560a435608435606435604435602435610d9b613d4e565b856005558060065581600755826008558360095584600a55604051958652602086015260408501526060840152608083015260a0820152a180f35b50346103c757806003193601126103c7576020600954604051908152f35b50346103c75760603660031901126103c757610e0e6131d3565b610e166131e9565b60443591610e22613d4e565b83546001600160a01b03828116949181168514610ed557831615610ed5576020604051809563a9059cbb60e01b8252818881610e62878a6004840161333e565b03925af1908115610eca577f77023e19c7343ad491fd706c36335ca0e738340a91f29b1fd81e2673d44896c494610ea592610eab575b506040519384938461391a565b0390a180f35b610ec39060203d602011610c0f57610c0081836132ce565b5038610e98565b6040513d87823e3d90fd5b60405163e6c4247b60e01b8152600490fd5b50346103c757806003193601126103c7576020600554604051908152f35b50346103c75760203660031901126103c7576020906004358152601b8252604060018060a01b0391205416604051908152f35b50346103c757806003193601126103c757610f51613e36565b60ff8060155460081c161561143c5733825260209160108352604081209281828391845b87548110156110f157866004610f8b838b6133a2565b50015416156110e9576002610fa0828a6133a2565b5001546003610faf838b6133a2565b5001549062015180918281029281840414901517156110d5578991610fd391613496565b421015610fe6575b506001905b01610f75565b9381929361107e91611026600561101c8661101661100f61100960019a8e6133a2565b50613f4b565b8096613496565b9a6133a2565b5001918254613496565b9055338852600e8752600960408920015480156110c4575b61104d606491600b5490613456565b0483611059868d6133a2565b500154818111156110b157906110728161107893613489565b92613496565b94613496565b91600461108b828b6133a2565b5001805460ff191690556110a96110a2828b6133a2565b505461402c565b905087610fdb565b90506110bc91613496565b938790613496565b50600f87526040882083015461103e565b634e487b7160e01b88526011600452602488fd5b600190610fe0565b508493918115908180611434575b611422578061140d575b5083611170575b600e935015611160575b5061112433613e73565b3383525260408120600460038201549101541115611152575b60016000805160206152a08339815191525580f35b61115b336141d9565b61113d565b61116a9033613f25565b8361111a565b338552600e835261118e604086206003600482015491015490613489565b8085116113e5575b50831561111057338552600e8352600360408620016111b6858254613496565b90558360011c859080471015806113dc575b6113ca575b601754801580156113b6575b156113755750670de0b6b3a7640000905b670de0b6b3a7640000908181029181830414901517156110d5579061120e91613469565b86546040516370a0823160e01b815230600482015288926001600160a01b0390921691908781602481865afa801561136a5782918b91611334575b5010158061132b575b6112b2575b505060008051602061518083398151915290600e9660405190815260008782015260008051602061528083398151915260403392a2338852600f86526040882054906112aa6040519283923396846134bb565b0390a2611110565b91509585604051809863a9059cbb60e01b8252818b816112d688336004840161333e565b03925af191821561132057600e9760008051602061518083398151915293611303575b5091819750611257565b61131990883d8a11610c0f57610c0081836132ce565b50896112f9565b6040513d8a823e3d90fd5b50801515611252565b809250898092503d8311611363575b61134d81836132ce565b8101031261135e578190518b611249565b600080fd5b503d611343565b6040513d8c823e3d90fd5b601654670de0b6b3a7640000908181029181830414901517156113a2579061139c91613469565b906111ea565b634e487b7160e01b89526011600452602489fd5b50683635c9adc5dea00000601654106111d9565b90506113d68133613f25565b806111cd565b508015156111c8565b909360405190815281848201526000805160206151e083398151915260403392a29285611196565b61141990601654613496565b60165585611109565b6040516304c4857b60e51b8152600490fd5b5084156110ff565b6040516282b42960e81b8152600490fd5b50346103c757806003193601126103c7576020600654604051908152f35b50346103c757806003193601126103c7576020601e54604051908152f35b50346103c75760403660031901126103c7576114a36131d3565b6001600160a01b03168152601060205260408120805460243592908310156103c75760c06114d184846133a2565b508054906001810154906002810154600382015490600560ff600485015416930154936040519586526020860152604085015260608401521515608083015260a0820152f35b50346103c757806003193601126103c757602060ff601554166040519015158152f35b50346103c757806003193601126103c75761157860405161155a8161326f565b60058152640352e302e360dc1b602082015260405191829182613359565b0390f35b50346103c75761158b3661330c565b908252601c6020526040822080548210156115cc576115aa9250613322565b508054600190910154604051918291611578916001600160a01b03168361333e565b8280fd5b50346103c75760403660031901126103c7576103c46115ed6131d3565b6115f56131e9565b906115fe613d4e565b6139dd565b50346103c75760203660031901126103c7577fd28d9e4ce68d89af7920cb8618e342a78f51e545c530ce60f1cb1d6f0235b47f6020600435611643613d4e565b80601455604051908152a180f35b50346103c75760403660031901126103c75761166b6131d3565b60243590611677613d4e565b814710610c65578280808085855af161168e6139ad565b5015610c53576040519182526001600160a01b0316907f288155da11d775f8595652c04f862708561d601d9fd3f04f7aed5f8311296e2490602090a280f35b50346103c75760403660031901126103c7576116e76131d3565b602435906116f3613d4e565b814710610c655761170682601e54613489565b601e558280808085855af16117196139ad565b5015610c53576040519182526001600160a01b0316907f27971ee1acbfbdfb20656657ceb2e0e7b519b9e60fe1a6b1f6d27b159f4a607c90602090a280f35b50346103c757806003193601126103c7576020600d54604051908152f35b50346103c7577f4e9dd03193a0c81552fb8e6d32280f0d7e0ce8087241dc3d17ef3d193ee231d760406117a83661330c565b6117b0613d4e565b81600c5580600d5582519182526020820152a180f35b50346103c757806003193601126103c7576000805160206151a0833981519152546040516001600160a01b039091168152602090f35b50346103c757806003193601126103c757602060405160038152f35b50346103c757806003193601126103c757602060405160018152f35b50346103c757806003193601126103c7576003546040516001600160a01b039091168152602090f35b50346103c757806003193601126103c757602060405160048152f35b50346103c75760203660031901126103c7576080906040906001600160a01b036118a16131d3565b168152600f6020522080549060018101549060ff6003600283015492015416916040519384526020840152604083015215156060820152f35b50806003193601126103c7576118ee613e36565b60ff604e54166109ef5734156109a457601654683635c9adc5dea00000808210908115611b28575b50611ad1576017549061193c61192c8334613456565b6119363484613496565b90613469565b6127108034029034820403611b1457611958836103e892613469565b116109a457606461196b600c5483613456565b04916119778383613489565b85546040516370a0823160e01b815230600482015291956020946001600160a01b03949193928516928681602481875afa801561136a5782918b91611ae3575b5010611ad15788936119cd6119d5933490613496565b601655613489565b601755803b15611acd57818091602460405180948193630852cd8d60e31b83528a60048401525af18015611ac257611aaa575b5054169181604051809463a9059cbb60e01b8252818881611a2d8a336004840161333e565b03925af1918215610eca577f36864aeefce16bc4aaceeb6b0cdfb2ad1455a8cb4ccb0db148a2bc6e7166f97c93611a7493611a8c575b505060405191829133953484613259565b0390a260016000805160206152a08339815191525580f35b81611aa292903d10610c0f57610c0081836132ce565b503880611a63565b611ab3906132a0565b611abe578438611a08565b8480fd5b6040513d84823e3d90fd5b5080fd5b6040516343c7ad8160e11b8152600490fd5b809250888092503d8311611b0d575b611afc81836132ce565b8101031261135e57819051386119b7565b503d611af2565b634e487b7160e01b85526011600452602485fd5b90506017541038611916565b50346103c75760803660031901126103c757611b4e6131d3565b611b566131e9565b90611b5f6131ff565b91611b68613215565b90611b71613d4e565b6001600160a01b039283169182158015611c22575b8015611c18575b8015611c0e575b610ed5577f213f1de8063c19612a553f1480ff341bea689d36a56a2089f1b9060d599b5d8394848060809660018060a01b031995878760015416176001551692838660025416176002551692838560035416176003551680936004541617600455604051938452602084015260408301526060820152a180f35b5083811615611b94565b5083851615611b8d565b5083821615611b86565b50346103c757806003193601126103c757601a54620151808101809111611cfd574210611ceb5760175480156109a457606481049081156109a45781611c7191613489565b601755815482906001600160a01b0316803b15611acd57818091602460405180948193630852cd8d60e31b83528860048401525af18015611ac257611cd7575b5060008051602061524083398151915260408342601a558151908482526020820152a180f35b611ce0906132a0565b611acd578138611cb1565b604051636f47a98b60e11b8152600490fd5b634e487b7160e01b82526011600452602482fd5b50346103c757611d203661330c565b90825260126020526040822080548210156115cc576115aa9250613322565b50346103c757806003193601126103c7576020601654604051908152f35b50346103c757806003193601126103c7576001546040516001600160a01b039091168152602090f35b50346103c757806003193601126103c7576020601954604051908152f35b50346103c757806003193601126103c757611dbd613d4e565b6000805160206151a083398151915280546001600160a01b031981169091556000906001600160a01b03166000805160206152608339815191528280a380f35b50346103c757806003193601126103c7576020601454604051908152f35b50346103c757806003193601126103c75760206040516103e88152f35b50346103c757806003193601126103c7576020601854604051908152f35b50346103c757806003193601126103c7577f00000000000000000000000000000000000000000000000000000000000000006001600160a01b03163003611eaf5760206040516000805160206151c08339815191528152f35b60405163703e46dd60e11b8152600490fd5b50346103c75760203660031901126103c757600435611ede613e36565b60ff604e54166109ef5780156109a457683635c9adc5dea000008060165410908115612085575b50611ad15781546040516323b872dd60e01b81526001600160a01b039160209082908416818781611f3b8930336004850161391a565b03925af18015610c1657612066575b506064611f59600d5484613456565b04611f648184613489565b9161271080840290848204148415171561205257611f886103e89160175490613469565b116109a4578490815416803b15611acd578190602460405180948193630852cd8d60e31b83528760048401525af18015610eca5761203f575b5060165491611fd08382613456565b611fe1601754916119368484613496565b91824710611ad1577f223c8ad0806f634524940a8595f819c5cfc7b1f4f4f45791269301df0a7e61d594612019849261202194613496565b601755613489565b60165561202e8133613f25565b611a74604051928392339684613259565b61204b909491946132a0565b9238611fc1565b634e487b7160e01b86526011600452602486fd5b61207e9060203d602011610c0f57610c0081836132ce565b5038611f4a565b90506017541038611f05565b5060203660031901126103c7576004356120a9613d4e565b346121cc575b806120d6575b6040600080516020615140833981519152918151903482526020820152a180f35b81546040516323b872dd60e01b81529060209082906001600160a01b03168186816121068830336004850161391a565b03925af190816121ad575b5061218457508060033d11612173575b506308c379a01461213f575b6040516320a9b82760e21b8152600490fd5b61214761393c565b80612152575061212d565b6040516387a26b7560e01b815290819061216f9060048301613359565b0390fd5b9050600481803e5160e01c38612121565b6040816121a260008051602061514083398151915293601754613496565b6017559150506120b5565b6121c59060203d602011610c0f57610c0081836132ce565b5038612111565b6121d834601654613496565b6016556120af565b50346103c757806003193601126103c7576121f9613d4e565b600160ff19604e541617604e557f4cb3183d0bf66f9634b15cfc3539fdddc96c2c9324848af89b56586a6739fec48180a180f35b5060403660031901126103c7576122426131d3565b60249182356001600160401b038111611acd5736602382011215611acd5780600401359261226f846132f1565b61227c60405191826132ce565b848152602094858201933688838301011161241557818692898993018737830101526001600160a01b037f00000000000000000000000000000000000000000000000000000000000000008116308114908115612420575b50611eaf576122e1613d4e565b6040516352d1902d60e01b81529083169580826004818a5afa91829187936123ec575b505061232257604051634c9c8ce360e01b8152600481018790528790fd5b8590876000805160206151c0833981519152918281036123d75750843b156123c1575080546001600160a01b031916821790556040518592917fbc7cd75a20ee27fd9adebab32041f755214dbc6bffa90cc0225b39da2e5c2d3b8480a28151156123a457506123a09382915190845af461239a6139ad565b9161509b565b5080f35b9350505050346123b2575080f35b63b398979f60e01b8152600490fd5b604051634c9c8ce360e01b815260048101849052fd5b60405190632a87526960e21b82526004820152fd5b9080929350813d8311612419575b61240481836132ce565b810103126124155751903880612304565b8580fd5b503d6123fa565b9050816000805160206151c083398151915254161415386122d4565b50346103c757806003193601126103c757612455613d4e565b60ff19604e5416604e557f15de7ad89d29fd1c6d2e6b1e878453569b4080edf34e0105faaa3bd52f0185308180a180f35b50346103c757806003193601126103c7576020604051620151808152f35b50346103c757806003193601126103c7576002546040516001600160a01b039091168152602090f35b50346103c75760203660031901126103c7576020906004358152601d8252604060018060a01b0391205416604051908152f35b50346103c757806003193601126103c757612519613e36565b61113d6134d8565b5060203660031901126103c757612536613e36565b60ff604e54166109ef57338152600f60205260408120600181015415612a595760ff600382015416612a47576007600435141580612a3a575b80612a2d575b612a1b5734156109a45761258a601954613431565b60198190553383526010602052604080842090519160c083016001600160401b03811184821017612a075760405282523460208301524260408301526004356060830152600160808301528360a0830152805490600160401b8210156129f357906125fa916001820181556133a2565b9190916129df5760a08160059251845560208101516001850155604081015160028501556060810151600385015561264760808201511515600486019060ff801983541691151516179055565b01519101556019548252601d602052604082203360018060a01b0319825416179055338252600e602052600a604083200180549182156129ce575b5050609681029080820460961490151715611cfd576064900434036109a4576126aa33613e73565b601954906040517fa8a1b9e33e503eed12bf7e7c8c01c7f3b60217a496bddd0f5db351dd8c056c1c3391806126e3866004353484613259565b0390a2338152600e6020526040812054819081906001600160a01b03165b6001600160a01b0381161515806129c4575b156129ba576001600160a01b0381168452600e60205260408420600581015460ff16156129a557506001600160a01b0381168452600f602052604084206001810154908115908115612996575b50612971576001600160a01b0382168552600e602052604085206002015461278790613d87565b919050848211612869575b50602d11156127c6576001600160a01b039081168452600e602052604084205416906127bd90613431565b915b9190612701565b50505090505b338152600e6020526006604082200181815491826127fb575b5060016000805160206152a08339815191525580f35b55601654818110158061285f575b612815575b82906127e5565b8161281f91613489565b60165561282c8133613f25565b6040519081527f3437b9ea7fa19c6d233dd70cc787a70fab87cee64d8ba4571512cc84402748f960203392a2388061280e565b5081471015612809565b61288b9061287a8396606494613489565b903490803411612969575b50613456565b04858552601c60205260408520604051906128a58261326f565b6001600160a01b038416825260208201839052805490600160401b82101561295557906128d791600182018155613322565b91909161294157805182546001600160a01b0319166001600160a01b03918216178355602091820151600193909301929092556040519283529083169187917f7c6505ab8279235ad21ebf427336cc8d97c017b4aa1f10ffdff11d3261e4934e91a382602d612792565b634e487b7160e01b87526004879052602487fd5b634e487b7160e01b88526041600452602488fd5b905038612885565b5050600e60205260408320546001600160a01b03169061299090613431565b916127bf565b60ff9150600301541638612760565b546001600160a01b0316916129909150613431565b50505090506127cc565b5060148210612713565b600191925001548091553880612682565b634e487b7160e01b84526004849052602484fd5b634e487b7160e01b85526041600452602485fd5b634e487b7160e01b86526041600452602486fd5b604051634dc7f5ff60e11b8152600490fd5b50601e6004351415612575565b50600f600435141561256f565b604051631ecb2c4f60e31b8152600490fd5b604051634065aaf160e11b8152600490fd5b50346103c757806003193601126103c7576020600c54604051908152f35b50346103c757806003193601126103c757602060ff604e54166040519015158152f35b50346103c757806003193601126103c757604e5460405160089190911c6001600160a01b03168152602090f35b50346103c75760203660031901126103c757600435906013548210156103c7576020816013600393522091020180546115786002600184015493015460405193849384613259565b50346103c757806003193601126103c7576020604051683635c9adc5dea000008152f35b50346103c75760203660031901126103c757611578906002906040906001600160a01b03612b716131d3565b168152600e602052200154612b8581613d87565b92909160405193849384613259565b50346103c757806003193601126103c7576020601754604051908152f35b50346103c75760203660031901126103c757610160906001600160a01b039060409082612bdd6131d3565b168152600e60205220908154169060018101549060028101546003820154600483015460ff600585015416600685015491600786015493600887015495600a6009890154980154986040519a8b5260208b015260408a015260608901526080880152151560a087015260c086015260e0850152610100840152610120830152610140820152f35b50346103c75760203660031901126103c7576020612c83600435613401565b604051908152f35b50346103c757806003193601126103c757546040516001600160a01b039091168152602090f35b50346103c75760a03660031901126103c757612ccc6131d3565b612cd46131e9565b90612cdd6131ff565b612ce5613215565b916084356001600160a01b038181169291839003612ea8576000805160206152c08339815191529485549660ff8860401c16159560018060401b03891698891580612ea1575b6001809b149081612e97575b159081612e8e575b50612e7c576001600160401b031981168a1789558492839189612e61575b50612d66614fca565b612d6e614fca565b612d7733613cec565b612d7f614fca565b612d87614fca565b612d8f614fca565b8a6000805160206152a0833981519152558160018060a01b03199716878d5416178c5516858a5416178955168360025416176002551681600354161760035560045416176004556019600555600f6006556005600755600560085560196009556019600a5582600b556032600c556019600d556203f48060145561010161ffff19601554161760155542601a55612e24578280f35b805460ff60401b191690556040519081527fc7f505b2f371ae2175ee4913f4499e1f2633a7b5936321eed1cdaeb6115181d290602090a138808280f35b6001600160481b0319166001600160401b01178a5538612d5d565b60405163f92ee8a960e01b8152600490fd5b90501538612d3f565b303b159150612d37565b5087612d2b565b8680fd5b50346103c757806003193601126103c757602090604051908152f35b50346103c757806003193601126103c757602060405160028152f35b50346103c75760403660031901126103c757612efe6131d3565b6001600160a01b039081168252601160205260408220805460243593908410156103c75750602092612f2f9161322b565b9190546040519260031b1c168152f35b50346103c757602080600319360112611acd57612f5a6131d3565b338352600e808352604084205490926001600160a01b0392909183166130fc5782163381146130ea578015610ed55733808652600e8352604080872080546001600160a01b0319168417905582875260118085529087209091612fbc916133be565b338652600e835283604087205416948487965b16801515806130e0575b156130b657808852818552604088209060028201805460018101918282116130a257928261303f8b9693837fa0eea20e678cb42233c1c456c84cedce7ea53fa360bb71bf3b761b760956777060408e8b9961305f9b5586825191868352820152a2613d87565b5061304982613d87565b5090808203613065575b50505050541697613431565b96612fcf565b6130967fea8384d3ca7bf5b7510d3faee44a3774406c1fd3ac14fff110a8c98d47a259569360405193849384613259565b0390a238808080613053565b634e487b7160e01b8c52600487905260248cfd5b8784337fa6dbb5aa28f35437de94d685d66edce5fb4812196b4984b91dfd5a7b38c0fb308380a380f35b50601e8710612fd9565b604051631acade8960e31b8152600490fd5b60405163682a906560e01b8152600490fd5b50346103c757806003193601126103c7576020600a54604051908152f35b50346103c75760403660031901126103c757600435801515809103611acd57602435908115158092036115cc577f03cb373f89de891077fe47cec43663b6727713de0337af46bebd1178122251b7917fb886fcb5b9c12916f26d967ebe962dbd51ec249fb55961da39c851cdfc10115c602080936131a8613d4e565b6015805461ffff191660ff831617600886901b61ff0016179055604051908152a1604051908152a180f35b600435906001600160a01b038216820361135e57565b602435906001600160a01b038216820361135e57565b604435906001600160a01b038216820361135e57565b606435906001600160a01b038216820361135e57565b80548210156132435760005260206000200190600090565b634e487b7160e01b600052603260045260246000fd5b6040919493926060820195825260208201520152565b604081019081106001600160401b0382111761328a57604052565b634e487b7160e01b600052604160045260246000fd5b6001600160401b03811161328a57604052565b606081019081106001600160401b0382111761328a57604052565b601f909101601f19168101906001600160401b0382119082101761328a57604052565b6001600160401b03811161328a57601f01601f191660200190565b604090600319011261135e576004359060243590565b80548210156132435760005260206000209060011b0190600090565b6001600160a01b039091168152602081019190915260400190565b6020808252825181830181905290939260005b82811061338e57505060409293506000838284010152601f8019910116010190565b81810186015184820160400152850161336c565b8054821015613243576000526006602060002091020190600090565b80549190600160401b83101561328a57826133e19160016133ff9501815561322b565b90919060018060a01b038084549260031b9316831b921b1916179055565b565b600381101561342b576002811015613425576001111561342057600090565b600590565b50600a90565b50600f90565b60001981146134405760010190565b634e487b7160e01b600052601160045260246000fd5b8181029291811591840414171561344057565b8115613473570490565b634e487b7160e01b600052601260045260246000fd5b9190820391821161344057565b9190820180921161344057565b9081602091031261135e5751801515810361135e5790565b606091949392608082019582526020820152600060408201520152565b6000338152602090600f825260409081812092600193600181015415801561390c575b6138fb57338352601082528383209483958185905b6137fa575b50505084156137e957338352600e82526135358560038686200154613496565b94338452600e835284842095600496878101548092116137d3575b505080156137c457338452600e8352600385852001613570828254613496565b90558060011c91849280471015806137bb575b6137a9575b60175480158015613795575b156137555750670de0b6b3a7640000905b670de0b6b3a76400009081810291818304149015171561374257906135c991613469565b855487516370a0823160e01b8152308a820152879492916001600160a01b0316908781602481855afa908115613738579083918a91613703575b501015806136fa575b613679575b50509160008051602061518083398151915291600e95949388519081528786820152600080516020615280833981519152893392a2549061365888519283923396846134bb565b0390a233835252206003810154910154111561367057565b6133ff336141d9565b816136a09293955087918b8a8c5180968195829463a9059cbb60e01b84523390840161333e565b03925af180156136f057916000805160206151808339815191529391600e979695936136d3575b50939495819350613611565b6136e990873d8911610c0f57610c0081836132ce565b50386136c7565b88513d89823e3d90fd5b5081151561360c565b809250898092503d8311613731575b61371c81836132ce565b8101031261372d5782905138613603565b8880fd5b503d613712565b8a513d8b823e3d90fd5b634e487b7160e01b875260118952602487fd5b601654670de0b6b3a764000090818102918183041490151715613782579061377c91613469565b906135a5565b634e487b7160e01b885260118a52602488fd5b50683635c9adc5dea0000060165410613594565b92506137b58333613f25565b82613588565b50801515613583565b5050505050506133ff336141d9565b6137e292506003015490613489565b3880613550565b8351630fec21fd60e21b8152600490fd5b81548110156138f65761380d81836133a2565b508360ff60048093015416156138ec575061382b61100983856133a2565b9081613841575b5050908280925b019091613510565b90988961384d91613496565b9861385d600561101c85876133a2565b9055600261386b83856133a2565b500154600361387a84866133a2565b5001549062015180918281029281840414901517156138d957916138a2869594928694613496565b4210156138b2575b509192613832565b6138bc82856133a2565b5001805460ff191690556138d36110a282856133a2565b386138aa565b634e487b7160e01b895260118352602489fd5b9291839150613839565b613515565b8351634065aaf160e11b8152600490fd5b5060ff6003820154166134fb565b6001600160a01b03918216815291166020820152604081019190915260600190565b600060443d1061399957604051600319913d83016004833e81516001600160401b03918282113d60248401111761399c578184019485519384116139a4573d8501016020848701011161399c5750613999929101602001906132ce565b90565b949350505050565b50949350505050565b3d156139d8573d906139be826132f1565b916139cc60405193846132ce565b82523d6000602084013e565b606090565b916001600160a01b03908184169081158015613ce2575b610ed5578284168083146130ea5784846000965b1680151580613cd8575b15613a3e578481146130ea57600052600e60205284613a38816040600020541697613431565b96613a08565b506000848152600e60208181526040928390208054969a959950868916989496898b14613ccb576001600160a01b0319168a1790558715159485613bd3575b613a92908a60005260118352846000206133be565b866000528181526002956002846000200154906001966001830180931161344057613b53575b8a613aed575b50505050505050507ff8b9fe4d008320e6f048c61e41e9cc56ce351354ad0cb9a868bd3c4bd6928fd5600080a4565b600090875b613afd575b50613abe565b861680151580613b49575b15613b445780600052848452888660002001613b25848254613496565b9055600052838352613b3d8686600020541691613431565b9087613af2565b613af7565b50601e8210613b08565b866000878c835b613b68575b50505050613ab8565b1680151580613bc9575b15613bc25760008181528787528890208b0180548611613bb957613b97868254613489565b90555b600052858552613bb08888600020541691613431565b90889083613b5a565b60009055613b9a565b8890613b5f565b50601e8210613b72565b989796959493929190876000526011808252836000209a60005b8c5480821015613cb45787908b8f84613c059161322b565b939054600394851b1c1614613c1e575050600101613bed565b60009e9291939495969798999a9b9c9d9e1995868201918211613ca05750906133e18a613c4e613c5c948661322b565b905490871b1c16918461322b565b80548015613c8a57613a929489910192613c76848461322b565b81939154921b1b19169055555b9050613a7d565b634e487b7160e01b600052603160045260246000fd5b634e487b7160e01b60005260045260246000fd5b50509050613a929192939495969798999a50613c83565b5050505050505050505050565b5060328710613a12565b50828416156139f4565b6001600160a01b03908116908115613d35576000805160206151a083398151915280546001600160a01b03198116841790915516600080516020615260833981519152600080a3565b604051631e4fbdf760e01b815260006004820152602490fd5b6000805160206151a0833981519152546001600160a01b03163303613d6f57565b60405163118cdaa760e01b8152336004820152602490fd5b620186a0811015613e2d57617530811015613e2457612710811015613e1b57610bb8811015613e12576103e8811015613e095761012c811015613e00576064811015613df757601e811015613dee57600a1115613de657600090600090565b600190600590565b50600290600a90565b50600390600f90565b50600490601490565b50600590601990565b50600690601e90565b50600790602390565b50600890602890565b50600990602d90565b6000805160206152a08339815191526002815414613e545760029055565b604051633ee5aeb560e01b8152600490fd5b8015613440576000190190565b60018060a01b0380600092168252600f6020526040822090600182015415159182613f15575b50600e602052604083206005810160ff815416151584151514613f0e57805460ff191660ff851515161790555416918215613f095760019260409215613ef0578152600e6020522001613eec8154613431565b9055565b81522001805480613f00575b5050565b613eec90613e66565b505050565b5050505050565b6003015460ff1615915038613e99565b8115613efc57814710610c6557600080809381935af1613f436139ad565b5015610c5357565b6003810154613f5981614ff9565b9062015180613f6c600285015442613489565b0490808211613fbe575b508015613fb657613f9b633b9aca0091613f966005946001870154613456565b613456565b04910154808211613fad575050600090565b61399991613489565b505050600090565b905038613f76565b80518210156132435760209160051b010190565b80549060009081815582613fed57505050565b6001906001600160ff1b03841684036108c5578252602082209260011b8301925b83811061401b5750505050565b80836002925583838201550161400e565b6000818152601d6020908152604080832054601c83528184208054939695929492936001600160a01b03928316906001600160401b0381116129f35786519261407a8a8360051b01856132ce565b818452855288852085908a8086015b8484106141aa575050505050835b825181101561419457808983858a886140cd816140b660019986613fc6565b515116866140c48987613fc6565b51015190614866565b948b86614116575b5091508b9350614106867fae629b396150638d6eb6de457cbffe5d618a10c8cc199a94976bed2b16ecd99394613fc6565b515116938c51908152a301614097565b83600080516020615160833981519152946004926080956141378c8a613fc6565b5151168152604f855220928d61416f8b8451996141538b6132b3565b87548b5260028f89015498868d01998a520154868c0152613fc6565b515116965193519082519485528401528201528c6060820152a383858a888e8b6140d5565b50505050906133ff9394601c9183525220613fda565b6001916002918c516141bb8161326f565b8a865416815284860154838201528152019201920191908b90614089565b9060018060a01b039182811690600090828252602091600f8352604091828220916003830190815460ff811615614217575b50505050505050509050565b600160ff1991821681179093556010875285822091998a94859347908590875b6143a2575b505088948d948c9d9e948d867f920bb94eb3842a728db98228c375ff6b00c5bc5a54fac6736155517a0a20a61a9f9b97968f8b979088917ff3a670cd3af7d64b488926880889d08a8585a138ff455227af6737339a1ec2629e9a614346575b50505050505085614327575b898352600e8d52838320600581018054938416905554169060ff168061431e575b8061430d575b6142f4575b5050519283525087820152a2549051908152a280388080808080808061420b565b815220016143028154613e66565b9055388381806142d3565b5080825283838320015415156142ce565b508015156142c8565b898352600e8d5260068484200161433f878254613496565b90556142a7565b8481106143665750505061435a9250613f25565b8987388f87908261429b565b9091926000805160206151e083398151915294508180614392575b50508251918c8352820152a261435a565b61439b91613f25565b3881614381565b909d8e825411156144665760ff8f6143bc600491856133a2565b500154161561445b57878f6143d190846133a2565b50015480891b90808204600214901517156110d5578f61442f908a94938561440b61012c6144038397600b5490613456565b0493876133a2565b50015482811061444f57906144238361442993613489565b90613496565b9b613496565b9f600461443c82856133a2565b50018881541690555b01919e989e614237565b8b925061442991613496565b979d90878092614445565b9d61423c565b6001600160a01b039081166000818152600f6020908152604080832060018181018054969790969395909492918415801561462a575b6145d557601084528682208054839291835b8281106145ea57505050506145e05760028201966144d6885460145490613496565b4211156145d557600383837f57025f0027038907eda728b59164fb63d06048f42e618a35267e6a12e49b2e469a8a9654998d8352600e895260ff60058985209283541692015416806145cc575b806145ba575b6145a0575b508c8252600e88528187812095816004600589019860ff19998a81541690558289820155015581855555550190815416905584614571575b5051928352820152a2565b84815260128352614583828220613fda565b848152601b83522080546001600160a01b03191690558338614566565b82526001878320016145b28154613e66565b90553861452e565b50808352600188842001541515614529565b50801515614523565b505050505050505050565b5050505050505050565b60ff60046145f883856133a2565b50015416614608575b83016144b4565b9361462284918261461988866133a2565b50015490613496565b949050614601565b5060ff6003840154166144a2565b60018060a01b0381166000818152600e60205260409182822092600f60205280832060ff60058601541615908115614762575b8115614755575b5061474c5760048401936003855491019361468f85548093613489565b88818111614723575b50508715614718578747106146f15750906146c28760008051602061528083398151915293613496565b84556146ce8787613f25565b805187815260026020820152a254905411156146e8575090565b613999906141d9565b96929550506000805160206151e0833981519152935080925051908152846020820152a290565b965050505050505090565b819950846000805160206151e08339815191529187939b82519182526020820152a23880614698565b50509250505090565b6001915001541538614672565b600381015460ff16915061466b565b60018060a01b0381166000818152600e60205260409182822092600f60205280832060ff60058601541615908115614857575b811561484a575b5061474c576004840193600385549101936147c885548093613489565b88818111614821575b50508715614718578747106146f15750906147fb8760008051602061528083398151915293613496565b84556148078787613f25565b805187815260036020820152a254905411156146e8575090565b819950846000805160206151e08339815191529187939b82519182526020820152a238806147d1565b60019150015415386147ab565b600381015460ff1691506147a4565b60018060a01b038116600052600e6020526040600020600f602052604060002060ff60058301541615908115614e10575b8115614e03575b50613fb65780600360046148b793015491015490613489565b82818111614dcf575b50508115614dc8576001600160a01b0381166000908152600e60205260409020906148e961503b565b90670de0b6b3a76400008460011c028460011c8104670de0b6b3a7640000148560011c151715613440578261491d91613469565b936040518181528160011c60208201528160011c60408201528360608201528560808201527fa7e66afc02702ffeb435ee9bacce4988459c7b329bf0dd9f8f551d823d1fece060a0600180821b03851692a2849260009460009261498088615128565b15614d82575b8060011c151580614d79575b614ce2575b6000546040516370a0823160e01b81523060048201526001600160a01b0390911696906020816024818b5afa908115614c3457600091614cb0575b5081151580614ca7575b614bc1575b5060029650878260011c118015614bb8575b614b71575b50614a16670de0b6b3a7640000614a0f8587613456565b0488613496565b978815614afa5750508060036004920192614a32898554613496565b93849055604080518a8152602081018590526001600160a01b0388169160008051602061528083398151915291a27fe83062c7bae5146a0afc41b3a8342f225ed2581a8e234e0ba69d9ff8c53a48d660405180614a9c8b60018060a01b038b16958a42928561501f565b0390a201541115614aec575b60405193614ab5856132b3565b845260208401908152604084019185835260018060a01b0316600052604f6020526040600020935184555160018401555191015590565b614af5826141d9565b614aa8565b915091506040519180835260011c60208301526040820152608060608201526015608082015274139bc81d1bdad95b9cc81d1c985b9cd9995c9c9959605a1b60a08201527fd8349f8ffff882edf1f3a7f209a1d24fb5e821ba347cf8da7f016de352368fd060c060018060a01b03851692a2614aa8565b7f60369b7cd498d613812af36dd7cb398ba493ee0afe0fc21d90a9f8b5fc620aa360405180614baf8860018060a01b038b16958d8860011c8561501f565b0390a2386149f8565b508481116149f3565b945084811115614ca157845b9485908111614c4057506020604051809863a9059cbb60e01b825281600081614bfa8b8d6004840161333e565b03925af1968715614c3457600297614c15575b505b386149e1565b614c2d9060203d602011610c0f57610c0081836132ce565b5038614c0d565b6040513d6000823e3d90fd5b9094506002965060405190600082526020820152606060408201526013606082015272129090c81d1c985b9cd9995c8819985a5b1959606a1b608082015260008051602061522083398151915260a0600180821b03881692a2600093614c0f565b80614bcd565b508015156149dc565b90506020813d602011614cda575b81614ccb602093836132ce565b8101031261135e5751386149d2565b3d9150614cbe565b9550478660011c11600014614d6f5747955b86478111614d0c5750614d078786613f25565b614997565b9096506040519081526000602082015260606040820152601960608201527813985d1a5d99481350c81d1c985b9cd9995c8819985a5b1959603a1b608082015260008051602061522083398151915260a0600180821b03871692a2600095614997565b8560011c95614cf4565b50471515614992565b601754604051601490910480825296506001600160a01b038616907fa3c9509a6af5ab7ab677b3caa94bb10373473b146705f236c71768d7b6b1a51390602090a2614986565b5050600090565b60408051918252602082018390529193506001600160a01b038316916000805160206151e083398151915291a238806148c0565b600191500154153861489e565b600381015460ff169150614897565b908115614fc657601654683635c9adc5dea00000808210908115614fba575b50614fb55747614e4e8483613496565b11614fb557612710830261270f198482040161344057614e71826103e892613469565b11614fb55760175492614e91614e878583613456565b6119368385613496565b80158015614fac575b614fa55760009460018060a01b038654169060409485516370a0823160e01b8152306004820152602081602481875afa908115614f9b579083918a91614f66575b5010614f5c57838893926119cd87614ef294613496565b601755803b15611acd5781906024865180948193630852cd8d60e31b83528760048401525af18015614f5257600080516020615240833981519152959650614f43575b5082519182526020820152a1565b614f4c906132a0565b38614f35565b84513d88823e3d90fd5b5050505050509050565b9150506020813d602011614f93575b81614f82602093836132ce565b8101031261372d5782905138614edb565b3d9150614f75565b87513d8b823e3d90fd5b5050509050565b50848111614e9a565b509050565b90506017541038614e3e565b9050565b60ff6000805160206152c08339815191525460401c1615614fe757565b604051631afcd79f60e31b8152600490fd5b6007811461501757600f14615010576301312d0090565b62fe502b90565b5062cb735690565b9094939260609260808301968352602083015260408201520152565b60175480158015615087575b61507a57601654670de0b6b3a764000090818102918183041490151715613440576139999161507591613469565b6150fe565b50670de0b6b3a764000090565b50683635c9adc5dea0000060165410615047565b906150c257508051156150b057602081519101fd5b60405163d6bda27560e01b8152600490fd5b815115806150f5575b6150d3575090565b604051639996b31560e01b81526001600160a01b039091166004820152602490fd5b50803b156150cb565b67016345785d8a00008082106151235750678ac7230489e80000808211615123575090565b905090565b801561513957601460175404101590565b5060019056fe38f8a0c92f4c5b0b6877f878cb4c0c8d348a47b76d716c8e78f425043df9515b62c4ea4229c396c9b5c33779ec09ed411b29ed8782e48ac358eaa9e8aa58a9b06fcebd0a2ce98b28cb391d6008bbc769378c9a4919628e11639cb575cd320fcc9016d09d72d40fdae2fd8ceac6b6234c7706214fd39c1cd1e609a0528c199300360894a13ba1a3210667c828492db98dca3e2076cc3735a920a3ca505d382bbcb5987aab1afd379f6695f1068869ee8ca6a0d02304c57935a9cc3d3ea2e51e4d520bc217d25ef4588524228dffcfa518f4ad52178c71d49b8061d016213cd311da109f9a8d0129326c2906f581adfd38d938005d44218a2f7c843b9b105af9ba0ec3929061cbbbeecb325623e7d5a86c3dae11cb8a22ca45dc0972955657da258be0079c531659141344cd1fd0a4f28419497f9722a3daafe3b4186f6b6457e0f381583145e90b82cc5e529bf4fc4d0e44397174cdf145c4251ac33ef195a4249b779b17422d0df92223018b32b4d1fa46e071723d6817e2486d003becc55f00f0c57e16840df040f15088dc2f81fe391c3923bec73e23a9662efc9c229c6a00a26469706673582212209ff17d4292ca37d958ee3f93ef7a5a9b27b19804ddfe89482aa6db70906ce52864736f6c63430008160033",
  "linkReferences": {},
  "deployedLinkReferences": {}
}