{
  "_format": "hh-sol-artifact-1",
  "contractName": "JinbaoProtocolNative",
  "sourceName": "contracts/JinbaoProtocolNative.sol",
  "abi": [
    {
      "inputs": [],
      "stateMutability": "nonpayable",
      "type": "constructor"
    },
    {
      "inputs": [],
      "name": "ActionTooEarly",
      "type": "error"
    },
    {
      "inputs": [
        {
          "internalType": "address",
          "name": "target",
          "type": "address"
        }
      ],
      "name": "AddressEmptyCode",
      "type": "error"
    },
    {
      "inputs": [],
      "name": "AlreadyBound",
      "type": "error"
    },
    {
      "inputs": [],
      "name": "AlreadyExited",
      "type": "error"
    },
    {
      "inputs": [],
      "name": "BatchUpdateSizeMismatch",
      "type": "error"
    },
    {
      "inputs": [],
      "name": "ContractPaused",
      "type": "error"
    },
    {
      "inputs": [
        {
          "internalType": "address",
          "name": "implementation",
          "type": "address"
        }
      ],
      "name": "ERC1967InvalidImplementation",
      "type": "error"
    },
    {
      "inputs": [],
      "name": "ERC1967NonPayable",
      "type": "error"
    },
    {
      "inputs": [],
      "name": "Expired",
      "type": "error"
    },
    {
      "inputs": [],
      "name": "FailedCall",
      "type": "error"
    },
    {
      "inputs": [],
      "name": "InsufficientBalance",
      "type": "error"
    },
    {
      "inputs": [],
      "name": "InsufficientNativeBalance",
      "type": "error"
    },
    {
      "inputs": [],
      "name": "InvalidAddress",
      "type": "error"
    },
    {
      "inputs": [],
      "name": "InvalidAmount",
      "type": "error"
    },
    {
      "inputs": [],
      "name": "InvalidCycle",
      "type": "error"
    },
    {
      "inputs": [],
      "name": "InvalidFee",
      "type": "error"
    },
    {
      "inputs": [],
      "name": "InvalidInitialization",
      "type": "error"
    },
    {
      "inputs": [],
      "name": "InvalidLevelConfig",
      "type": "error"
    },
    {
      "inputs": [],
      "name": "InvalidRate",
      "type": "error"
    },
    {
      "inputs": [],
      "name": "InvalidTax",
      "type": "error"
    },
    {
      "inputs": [],
      "name": "InvalidTeamCountUpdate",
      "type": "error"
    },
    {
      "inputs": [],
      "name": "LowLiquidity",
      "type": "error"
    },
    {
      "inputs": [],
      "name": "NativeTransferFailed",
      "type": "error"
    },
    {
      "inputs": [],
      "name": "NoRewards",
      "type": "error"
    },
    {
      "inputs": [],
      "name": "NotActive",
      "type": "error"
    },
    {
      "inputs": [],
      "name": "NotInitializing",
      "type": "error"
    },
    {
      "inputs": [],
      "name": "NothingToRedeem",
      "type": "error"
    },
    {
      "inputs": [
        {
          "internalType": "address",
          "name": "owner",
          "type": "address"
        }
      ],
      "name": "OwnableInvalidOwner",
      "type": "error"
    },
    {
      "inputs": [
        {
          "internalType": "address",
          "name": "account",
          "type": "address"
        }
      ],
      "name": "OwnableUnauthorizedAccount",
      "type": "error"
    },
    {
      "inputs": [],
      "name": "RecursionDepthExceeded",
      "type": "error"
    },
    {
      "inputs": [],
      "name": "ReentrancyGuardReentrantCall",
      "type": "error"
    },
    {
      "inputs": [],
      "name": "SelfReference",
      "type": "error"
    },
    {
      "inputs": [],
      "name": "SumNot100",
      "type": "error"
    },
    {
      "inputs": [
        {
          "internalType": "address",
          "name": "user",
          "type": "address"
        },
        {
          "internalType": "uint256",
          "name": "expected",
          "type": "uint256"
        },
        {
          "internalType": "uint256",
          "name": "actual",
          "type": "uint256"
        }
      ],
      "name": "TeamCountMismatch",
      "type": "error"
    },
    {
      "inputs": [],
      "name": "TeamCountOverflow",
      "type": "error"
    },
    {
      "inputs": [],
      "name": "TransferFailed",
      "type": "error"
    },
    {
      "inputs": [
        {
          "internalType": "string",
          "name": "reason",
          "type": "string"
        }
      ],
      "name": "TransferFromFailed",
      "type": "error"
    },
    {
      "inputs": [],
      "name": "TransferFromFailedLowLevel",
      "type": "error"
    },
    {
      "inputs": [],
      "name": "UUPSUnauthorizedCallContext",
      "type": "error"
    },
    {
      "inputs": [
        {
          "internalType": "bytes32",
          "name": "slot",
          "type": "bytes32"
        }
      ],
      "name": "UUPSUnsupportedProxiableUUID",
      "type": "error"
    },
    {
      "inputs": [],
      "name": "Unauthorized",
      "type": "error"
    },
    {
      "anonymous": false,
      "inputs": [
        {
          "indexed": false,
          "internalType": "uint256",
          "name": "usersUpdated",
          "type": "uint256"
        }
      ],
      "name": "BatchTeamCountsUpdated",
      "type": "event"
    },
    {
      "anonymous": false,
      "inputs": [
        {
          "indexed": true,
          "internalType": "address",
          "name": "user",
          "type": "address"
        },
        {
          "indexed": true,
          "internalType": "address",
          "name": "referrer",
          "type": "address"
        }
      ],
      "name": "BoundReferrer",
      "type": "event"
    },
    {
      "anonymous": false,
      "inputs": [
        {
          "indexed": false,
          "internalType": "uint256",
          "name": "mcAmount",
          "type": "uint256"
        },
        {
          "indexed": false,
          "internalType": "uint256",
          "name": "jbcBurned",
          "type": "uint256"
        }
      ],
      "name": "BuybackAndBurn",
      "type": "event"
    },
    {
      "anonymous": false,
      "inputs": [
        {
          "indexed": true,
          "internalType": "address",
          "name": "user",
          "type": "address"
        },
        {
          "indexed": false,
          "internalType": "uint256",
          "name": "totalAmount",
          "type": "uint256"
        },
        {
          "indexed": false,
          "internalType": "uint256",
          "name": "mcPart",
          "type": "uint256"
        },
        {
          "indexed": false,
          "internalType": "uint256",
          "name": "jbcValuePart",
          "type": "uint256"
        },
        {
          "indexed": false,
          "internalType": "uint256",
          "name": "jbcPrice",
          "type": "uint256"
        },
        {
          "indexed": false,
          "internalType": "uint256",
          "name": "jbcAmount",
          "type": "uint256"
        }
      ],
      "name": "DifferentialRewardCalculated",
      "type": "event"
    },
    {
      "anonymous": false,
      "inputs": [
        {
          "indexed": true,
          "internalType": "address",
          "name": "user",
          "type": "address"
        },
        {
          "indexed": false,
          "internalType": "uint256",
          "name": "mcAmount",
          "type": "uint256"
        },
        {
          "indexed": false,
          "internalType": "uint256",
          "name": "jbcAmount",
          "type": "uint256"
        },
        {
          "indexed": false,
          "internalType": "uint256",
          "name": "jbcPrice",
          "type": "uint256"
        },
        {
          "indexed": false,
          "internalType": "uint256",
          "name": "timestamp",
          "type": "uint256"
        }
      ],
      "name": "DifferentialRewardDistributed",
      "type": "event"
    },
    {
      "anonymous": false,
      "inputs": [
        {
          "indexed": true,
          "internalType": "address",
          "name": "user",
          "type": "address"
        },
        {
          "indexed": false,
          "internalType": "uint256",
          "name": "totalAmount",
          "type": "uint256"
        },
        {
          "indexed": false,
          "internalType": "uint256",
          "name": "mcPart",
          "type": "uint256"
        },
        {
          "indexed": false,
          "internalType": "uint256",
          "name": "jbcAmount",
          "type": "uint256"
        },
        {
          "indexed": false,
          "internalType": "string",
          "name": "reason",
          "type": "string"
        }
      ],
      "name": "DifferentialRewardFailed",
      "type": "event"
    },
    {
      "anonymous": false,
      "inputs": [
        {
          "indexed": true,
          "internalType": "uint256",
          "name": "stakeId",
          "type": "uint256"
        },
        {
          "indexed": true,
          "internalType": "address",
          "name": "upline",
          "type": "address"
        },
        {
          "indexed": false,
          "internalType": "uint256",
          "name": "amount",
          "type": "uint256"
        }
      ],
      "name": "DifferentialRewardRecorded",
      "type": "event"
    },
    {
      "anonymous": false,
      "inputs": [
        {
          "indexed": true,
          "internalType": "uint256",
          "name": "stakeId",
          "type": "uint256"
        },
        {
          "indexed": true,
          "internalType": "address",
          "name": "upline",
          "type": "address"
        },
        {
          "indexed": false,
          "internalType": "uint256",
          "name": "amount",
          "type": "uint256"
        }
      ],
      "name": "DifferentialRewardReleased",
      "type": "event"
    },
    {
      "anonymous": false,
      "inputs": [
        {
          "indexed": false,
          "internalType": "uint256",
          "name": "direct",
          "type": "uint256"
        },
        {
          "indexed": false,
          "internalType": "uint256",
          "name": "level",
          "type": "uint256"
        },
        {
          "indexed": false,
          "internalType": "uint256",
          "name": "marketing",
          "type": "uint256"
        },
        {
          "indexed": false,
          "internalType": "uint256",
          "name": "buyback",
          "type": "uint256"
        },
        {
          "indexed": false,
          "internalType": "uint256",
          "name": "lpInjection",
          "type": "uint256"
        },
        {
          "indexed": false,
          "internalType": "uint256",
          "name": "treasury",
          "type": "uint256"
        }
      ],
      "name": "DistributionConfigUpdated",
      "type": "event"
    },
    {
      "anonymous": false,
      "inputs": [],
      "name": "EmergencyPaused",
      "type": "event"
    },
    {
      "anonymous": false,
      "inputs": [],
      "name": "EmergencyUnpaused",
      "type": "event"
    },
    {
      "anonymous": false,
      "inputs": [
        {
          "indexed": true,
          "internalType": "address",
          "name": "user",
          "type": "address"
        },
        {
          "indexed": false,
          "internalType": "uint256",
          "name": "ticketId",
          "type": "uint256"
        }
      ],
      "name": "Exited",
      "type": "event"
    },
    {
      "anonymous": false,
      "inputs": [
        {
          "indexed": true,
          "internalType": "address",
          "name": "user",
          "type": "address"
        },
        {
          "indexed": false,
          "internalType": "uint256",
          "name": "amount",
          "type": "uint256"
        }
      ],
      "name": "FeeRefunded",
      "type": "event"
    },
    {
      "anonymous": false,
      "inputs": [
        {
          "indexed": false,
          "internalType": "uint64",
          "name": "version",
          "type": "uint64"
        }
      ],
      "name": "Initialized",
      "type": "event"
    },
    {
      "anonymous": false,
      "inputs": [],
      "name": "LevelConfigsUpdated",
      "type": "event"
    },
    {
      "anonymous": false,
      "inputs": [
        {
          "indexed": false,
          "internalType": "uint256",
          "name": "amount",
          "type": "uint256"
        },
        {
          "indexed": false,
          "internalType": "uint256",
          "name": "newTotal",
          "type": "uint256"
        }
      ],
      "name": "LevelRewardPoolUpdated",
      "type": "event"
    },
    {
      "anonymous": false,
      "inputs": [
        {
          "indexed": true,
          "internalType": "address",
          "name": "to",
          "type": "address"
        },
        {
          "indexed": false,
          "internalType": "uint256",
          "name": "amount",
          "type": "uint256"
        }
      ],
      "name": "LevelRewardPoolWithdrawn",
      "type": "event"
    },
    {
      "anonymous": false,
      "inputs": [
        {
          "indexed": true,
          "internalType": "uint256",
          "name": "ticketId",
          "type": "uint256"
        },
        {
          "indexed": true,
          "internalType": "address",
          "name": "upline",
          "type": "address"
        },
        {
          "indexed": false,
          "internalType": "uint256",
          "name": "amount",
          "type": "uint256"
        }
      ],
      "name": "LevelRewardRecorded",
      "type": "event"
    },
    {
      "anonymous": false,
      "inputs": [
        {
          "indexed": true,
          "internalType": "uint256",
          "name": "ticketId",
          "type": "uint256"
        },
        {
          "indexed": true,
          "internalType": "address",
          "name": "upline",
          "type": "address"
        },
        {
          "indexed": false,
          "internalType": "uint256",
          "name": "amount",
          "type": "uint256"
        }
      ],
      "name": "LevelRewardReleased",
      "type": "event"
    },
    {
      "anonymous": false,
      "inputs": [
        {
          "indexed": false,
          "internalType": "uint256",
          "name": "mcAmount",
          "type": "uint256"
        },
        {
          "indexed": false,
          "internalType": "uint256",
          "name": "jbcAmount",
          "type": "uint256"
        }
      ],
      "name": "LiquidityAdded",
      "type": "event"
    },
    {
      "anonymous": false,
      "inputs": [
        {
          "indexed": true,
          "internalType": "address",
          "name": "user",
          "type": "address"
        },
        {
          "indexed": false,
          "internalType": "uint256",
          "name": "adjustedJbcAmount",
          "type": "uint256"
        }
      ],
      "name": "LiquidityProtectionTriggered",
      "type": "event"
    },
    {
      "anonymous": false,
      "inputs": [
        {
          "indexed": true,
          "internalType": "address",
          "name": "user",
          "type": "address"
        },
        {
          "indexed": false,
          "internalType": "uint256",
          "name": "amount",
          "type": "uint256"
        },
        {
          "indexed": false,
          "internalType": "uint256",
          "name": "cycleDays",
          "type": "uint256"
        },
        {
          "indexed": false,
          "internalType": "uint256",
          "name": "stakeId",
          "type": "uint256"
        }
      ],
      "name": "LiquidityStaked",
      "type": "event"
    },
    {
      "anonymous": false,
      "inputs": [
        {
          "indexed": false,
          "internalType": "bool",
          "name": "enabled",
          "type": "bool"
        }
      ],
      "name": "LiquidityStatusUpdated",
      "type": "event"
    },
    {
      "anonymous": false,
      "inputs": [
        {
          "indexed": true,
          "internalType": "address",
          "name": "from",
          "type": "address"
        },
        {
          "indexed": false,
          "internalType": "uint256",
          "name": "amount",
          "type": "uint256"
        }
      ],
      "name": "NativeMCReceived",
      "type": "event"
    },
    {
      "anonymous": false,
      "inputs": [
        {
          "indexed": true,
          "internalType": "address",
          "name": "to",
          "type": "address"
        },
        {
          "indexed": false,
          "internalType": "uint256",
          "name": "amount",
          "type": "uint256"
        }
      ],
      "name": "NativeMCWithdrawn",
      "type": "event"
    },
    {
      "anonymous": false,
      "inputs": [
        {
          "indexed": true,
          "internalType": "address",
          "name": "previousOwner",
          "type": "address"
        },
        {
          "indexed": true,
          "internalType": "address",
          "name": "newOwner",
          "type": "address"
        }
      ],
      "name": "OwnershipTransferred",
      "type": "event"
    },
    {
      "anonymous": false,
      "inputs": [
        {
          "indexed": true,
          "internalType": "address",
          "name": "user",
          "type": "address"
        },
        {
          "indexed": false,
          "internalType": "uint256",
          "name": "mcRequested",
          "type": "uint256"
        },
        {
          "indexed": false,
          "internalType": "uint256",
          "name": "mcTransferred",
          "type": "uint256"
        },
        {
          "indexed": false,
          "internalType": "uint256",
          "name": "jbcRequested",
          "type": "uint256"
        },
        {
          "indexed": false,
          "internalType": "uint256",
          "name": "jbcTransferred",
          "type": "uint256"
        }
      ],
      "name": "PartialRewardTransfer",
      "type": "event"
    },
    {
      "anonymous": false,
      "inputs": [
        {
          "indexed": false,
          "internalType": "bool",
          "name": "enabled",
          "type": "bool"
        }
      ],
      "name": "RedeemStatusUpdated",
      "type": "event"
    },
    {
      "anonymous": false,
      "inputs": [
        {
          "indexed": true,
          "internalType": "address",
          "name": "user",
          "type": "address"
        },
        {
          "indexed": false,
          "internalType": "uint256",
          "name": "principal",
          "type": "uint256"
        },
        {
          "indexed": false,
          "internalType": "uint256",
          "name": "fee",
          "type": "uint256"
        }
      ],
      "name": "Redeemed",
      "type": "event"
    },
    {
      "anonymous": false,
      "inputs": [
        {
          "indexed": false,
          "internalType": "uint256",
          "name": "newFee",
          "type": "uint256"
        }
      ],
      "name": "RedemptionFeeUpdated",
      "type": "event"
    },
    {
      "anonymous": false,
      "inputs": [
        {
          "indexed": true,
          "internalType": "address",
          "name": "user",
          "type": "address"
        },
        {
          "indexed": true,
          "internalType": "address",
          "name": "from",
          "type": "address"
        },
        {
          "indexed": false,
          "internalType": "uint256",
          "name": "mcAmount",
          "type": "uint256"
        },
        {
          "indexed": false,
          "internalType": "uint256",
          "name": "jbcAmount",
          "type": "uint256"
        },
        {
          "indexed": false,
          "internalType": "uint8",
          "name": "rewardType",
          "type": "uint8"
        },
        {
          "indexed": false,
          "internalType": "uint256",
          "name": "ticketId",
          "type": "uint256"
        }
      ],
      "name": "ReferralRewardPaid",
      "type": "event"
    },
    {
      "anonymous": false,
      "inputs": [
        {
          "indexed": true,
          "internalType": "address",
          "name": "user",
          "type": "address"
        },
        {
          "indexed": true,
          "internalType": "address",
          "name": "oldReferrer",
          "type": "address"
        },
        {
          "indexed": true,
          "internalType": "address",
          "name": "newReferrer",
          "type": "address"
        }
      ],
      "name": "ReferrerChanged",
      "type": "event"
    },
    {
      "anonymous": false,
      "inputs": [
        {
          "indexed": true,
          "internalType": "address",
          "name": "user",
          "type": "address"
        },
        {
          "indexed": false,
          "internalType": "uint256",
          "name": "amount",
          "type": "uint256"
        },
        {
          "indexed": false,
          "internalType": "uint256",
          "name": "cappedAmount",
          "type": "uint256"
        }
      ],
      "name": "RewardCapped",
      "type": "event"
    },
    {
      "anonymous": false,
      "inputs": [
        {
          "indexed": true,
          "internalType": "address",
          "name": "user",
          "type": "address"
        },
        {
          "indexed": false,
          "internalType": "uint256",
          "name": "mcAmount",
          "type": "uint256"
        },
        {
          "indexed": false,
          "internalType": "uint256",
          "name": "jbcAmount",
          "type": "uint256"
        },
        {
          "indexed": false,
          "internalType": "uint8",
          "name": "rewardType",
          "type": "uint8"
        },
        {
          "indexed": false,
          "internalType": "uint256",
          "name": "ticketId",
          "type": "uint256"
        }
      ],
      "name": "RewardClaimed",
      "type": "event"
    },
    {
      "anonymous": false,
      "inputs": [
        {
          "indexed": true,
          "internalType": "address",
          "name": "user",
          "type": "address"
        },
        {
          "indexed": false,
          "internalType": "uint256",
          "name": "amount",
          "type": "uint256"
        },
        {
          "indexed": false,
          "internalType": "uint8",
          "name": "rewardType",
          "type": "uint8"
        }
      ],
      "name": "RewardPaid",
      "type": "event"
    },
    {
      "anonymous": false,
      "inputs": [
        {
          "indexed": true,
          "internalType": "address",
          "name": "user",
          "type": "address"
        },
        {
          "indexed": false,
          "internalType": "uint256",
          "name": "mcAmount",
          "type": "uint256"
        },
        {
          "indexed": false,
          "internalType": "uint256",
          "name": "jbcAmount",
          "type": "uint256"
        },
        {
          "indexed": false,
          "internalType": "string",
          "name": "reason",
          "type": "string"
        }
      ],
      "name": "RewardTransferFailed",
      "type": "event"
    },
    {
      "anonymous": false,
      "inputs": [
        {
          "indexed": false,
          "internalType": "uint256",
          "name": "mcAmount",
          "type": "uint256"
        },
        {
          "indexed": false,
          "internalType": "uint256",
          "name": "jbcAmount",
          "type": "uint256"
        }
      ],
      "name": "SwapReservesWithdrawn",
      "type": "event"
    },
    {
      "anonymous": false,
      "inputs": [
        {
          "indexed": false,
          "internalType": "uint256",
          "name": "buyTax",
          "type": "uint256"
        },
        {
          "indexed": false,
          "internalType": "uint256",
          "name": "sellTax",
          "type": "uint256"
        }
      ],
      "name": "SwapTaxesUpdated",
      "type": "event"
    },
    {
      "anonymous": false,
      "inputs": [
        {
          "indexed": true,
          "internalType": "address",
          "name": "user",
          "type": "address"
        },
        {
          "indexed": false,
          "internalType": "uint256",
          "name": "jbcAmount",
          "type": "uint256"
        },
        {
          "indexed": false,
          "internalType": "uint256",
          "name": "mcAmount",
          "type": "uint256"
        },
        {
          "indexed": false,
          "internalType": "uint256",
          "name": "tax",
          "type": "uint256"
        }
      ],
      "name": "SwappedJBCToMC",
      "type": "event"
    },
    {
      "anonymous": false,
      "inputs": [
        {
          "indexed": true,
          "internalType": "address",
          "name": "user",
          "type": "address"
        },
        {
          "indexed": false,
          "internalType": "uint256",
          "name": "mcAmount",
          "type": "uint256"
        },
        {
          "indexed": false,
          "internalType": "uint256",
          "name": "jbcAmount",
          "type": "uint256"
        },
        {
          "indexed": false,
          "internalType": "uint256",
          "name": "tax",
          "type": "uint256"
        }
      ],
      "name": "SwappedMCToJBC",
      "type": "event"
    },
    {
      "anonymous": false,
      "inputs": [
        {
          "indexed": true,
          "internalType": "uint256",
          "name": "stakeId",
          "type": "uint256"
        },
        {
          "indexed": true,
          "internalType": "address",
          "name": "upline",
          "type": "address"
        },
        {
          "indexed": false,
          "internalType": "uint256",
          "name": "amount",
          "type": "uint256"
        },
        {
          "indexed": false,
          "internalType": "uint256",
          "name": "teamCount",
          "type": "uint256"
        }
      ],
      "name": "TeamBasedRewardCalculated",
      "type": "event"
    },
    {
      "anonymous": false,
      "inputs": [
        {
          "indexed": true,
          "internalType": "address",
          "name": "user",
          "type": "address"
        },
        {
          "indexed": false,
          "internalType": "uint256",
          "name": "oldCount",
          "type": "uint256"
        },
        {
          "indexed": false,
          "internalType": "uint256",
          "name": "newCount",
          "type": "uint256"
        }
      ],
      "name": "TeamCountUpdated",
      "type": "event"
    },
    {
      "anonymous": false,
      "inputs": [
        {
          "indexed": true,
          "internalType": "address",
          "name": "user",
          "type": "address"
        },
        {
          "indexed": false,
          "internalType": "uint256",
          "name": "expected",
          "type": "uint256"
        },
        {
          "indexed": false,
          "internalType": "uint256",
          "name": "actual",
          "type": "uint256"
        }
      ],
      "name": "TeamCountValidationFailed",
      "type": "event"
    },
    {
      "anonymous": false,
      "inputs": [
        {
          "indexed": true,
          "internalType": "address",
          "name": "user",
          "type": "address"
        },
        {
          "indexed": false,
          "internalType": "uint256",
          "name": "ticketId",
          "type": "uint256"
        },
        {
          "indexed": false,
          "internalType": "uint256",
          "name": "amount",
          "type": "uint256"
        }
      ],
      "name": "TicketExpired",
      "type": "event"
    },
    {
      "anonymous": false,
      "inputs": [
        {
          "indexed": false,
          "internalType": "uint256",
          "name": "newDuration",
          "type": "uint256"
        }
      ],
      "name": "TicketFlexibilityDurationUpdated",
      "type": "event"
    },
    {
      "anonymous": false,
      "inputs": [
        {
          "indexed": true,
          "internalType": "address",
          "name": "user",
          "type": "address"
        },
        {
          "indexed": false,
          "internalType": "uint256",
          "name": "amount",
          "type": "uint256"
        },
        {
          "indexed": false,
          "internalType": "uint256",
          "name": "ticketId",
          "type": "uint256"
        }
      ],
      "name": "TicketPurchased",
      "type": "event"
    },
    {
      "anonymous": false,
      "inputs": [
        {
          "indexed": false,
          "internalType": "address",
          "name": "token",
          "type": "address"
        },
        {
          "indexed": false,
          "internalType": "address",
          "name": "to",
          "type": "address"
        },
        {
          "indexed": false,
          "internalType": "uint256",
          "name": "amount",
          "type": "uint256"
        }
      ],
      "name": "TokensRescued",
      "type": "event"
    },
    {
      "anonymous": false,
      "inputs": [
        {
          "indexed": true,
          "internalType": "address",
          "name": "implementation",
          "type": "address"
        }
      ],
      "name": "Upgraded",
      "type": "event"
    },
    {
      "anonymous": false,
      "inputs": [
        {
          "indexed": true,
          "internalType": "address",
          "name": "user",
          "type": "address"
        },
        {
          "indexed": false,
          "internalType": "uint8",
          "name": "field",
          "type": "uint8"
        },
        {
          "indexed": false,
          "internalType": "uint256",
          "name": "value",
          "type": "uint256"
        }
      ],
      "name": "UserDataFieldUpdated",
      "type": "event"
    },
    {
      "anonymous": false,
      "inputs": [
        {
          "indexed": true,
          "internalType": "address",
          "name": "user",
          "type": "address"
        },
        {
          "indexed": false,
          "internalType": "uint256",
          "name": "oldLevel",
          "type": "uint256"
        },
        {
          "indexed": false,
          "internalType": "uint256",
          "name": "newLevel",
          "type": "uint256"
        },
        {
          "indexed": false,
          "internalType": "uint256",
          "name": "teamCount",
          "type": "uint256"
        }
      ],
      "name": "UserLevelChanged",
      "type": "event"
    },
    {
      "anonymous": false,
      "inputs": [
        {
          "indexed": false,
          "internalType": "address",
          "name": "marketing",
          "type": "address"
        },
        {
          "indexed": false,
          "internalType": "address",
          "name": "treasury",
          "type": "address"
        },
        {
          "indexed": false,
          "internalType": "address",
          "name": "lpInjection",
          "type": "address"
        },
        {
          "indexed": false,
          "internalType": "address",
          "name": "buyback",
          "type": "address"
        }
      ],
      "name": "WalletsUpdated",
      "type": "event"
    },
    {
      "inputs": [],
      "name": "MAX_PRICE_IMPACT",
      "outputs": [
        {
          "internalType": "uint256",
          "name": "",
          "type": "uint256"
        }
      ],
      "stateMutability": "view",
      "type": "function"
    },
    {
      "inputs": [],
      "name": "MIN_LIQUIDITY",
      "outputs": [
        {
          "internalType": "uint256",
          "name": "",
          "type": "uint256"
        }
      ],
      "stateMutability": "view",
      "type": "function"
    },
    {
      "inputs": [],
      "name": "REWARD_DIFFERENTIAL",
      "outputs": [
        {
          "internalType": "uint8",
          "name": "",
          "type": "uint8"
        }
      ],
      "stateMutability": "view",
      "type": "function"
    },
    {
      "inputs": [],
      "name": "REWARD_DIRECT",
      "outputs": [
        {
          "internalType": "uint8",
          "name": "",
          "type": "uint8"
        }
      ],
      "stateMutability": "view",
      "type": "function"
    },
    {
      "inputs": [],
      "name": "REWARD_DYNAMIC",
      "outputs": [
        {
          "internalType": "uint8",
          "name": "",
          "type": "uint8"
        }
      ],
      "stateMutability": "view",
      "type": "function"
    },
    {
      "inputs": [],
      "name": "REWARD_LEVEL",
      "outputs": [
        {
          "internalType": "uint8",
          "name": "",
          "type": "uint8"
        }
      ],
      "stateMutability": "view",
      "type": "function"
    },
    {
      "inputs": [],
      "name": "REWARD_STATIC",
      "outputs": [
        {
          "internalType": "uint8",
          "name": "",
          "type": "uint8"
        }
      ],
      "stateMutability": "view",
      "type": "function"
    },
    {
      "inputs": [],
      "name": "SECONDS_IN_UNIT",
      "outputs": [
        {
          "internalType": "uint256",
          "name": "",
          "type": "uint256"
        }
      ],
      "stateMutability": "view",
      "type": "function"
    },
    {
      "inputs": [],
      "name": "UPGRADE_INTERFACE_VERSION",
      "outputs": [
        {
          "internalType": "string",
          "name": "",
          "type": "string"
        }
      ],
      "stateMutability": "view",
      "type": "function"
    },
    {
      "inputs": [
        {
          "internalType": "uint256",
          "name": "jbcAmount",
          "type": "uint256"
        }
      ],
      "name": "addLiquidity",
      "outputs": [],
      "stateMutability": "payable",
      "type": "function"
    },
    {
      "inputs": [
        {
          "internalType": "address",
          "name": "user",
          "type": "address"
        },
        {
          "internalType": "address",
          "name": "newReferrer",
          "type": "address"
        }
      ],
      "name": "adminSetReferrer",
      "outputs": [],
      "stateMutability": "nonpayable",
      "type": "function"
    },
    {
      "inputs": [
        {
          "internalType": "address",
          "name": "_referrer",
          "type": "address"
        }
      ],
      "name": "bindReferrer",
      "outputs": [],
      "stateMutability": "nonpayable",
      "type": "function"
    },
    {
      "inputs": [],
      "name": "buyTicket",
      "outputs": [],
      "stateMutability": "payable",
      "type": "function"
    },
    {
      "inputs": [],
      "name": "buybackPercent",
      "outputs": [
        {
          "internalType": "uint256",
          "name": "",
          "type": "uint256"
        }
      ],
      "stateMutability": "view",
      "type": "function"
    },
    {
      "inputs": [],
      "name": "buybackWallet",
      "outputs": [
        {
          "internalType": "address",
          "name": "",
          "type": "address"
        }
      ],
      "stateMutability": "view",
      "type": "function"
    },
    {
      "inputs": [
        {
          "internalType": "uint256",
          "name": "teamCount",
          "type": "uint256"
        }
      ],
      "name": "calculateLevel",
      "outputs": [
        {
          "internalType": "uint256",
          "name": "level",
          "type": "uint256"
        },
        {
          "internalType": "uint256",
          "name": "percent",
          "type": "uint256"
        }
      ],
      "stateMutability": "pure",
      "type": "function"
    },
    {
      "inputs": [],
      "name": "claimRewards",
      "outputs": [],
      "stateMutability": "nonpayable",
      "type": "function"
    },
    {
      "inputs": [],
      "name": "dailyBurn",
      "outputs": [],
      "stateMutability": "nonpayable",
      "type": "function"
    },
    {
      "inputs": [
        {
          "internalType": "address",
          "name": "",
          "type": "address"
        },
        {
          "internalType": "uint256",
          "name": "",
          "type": "uint256"
        }
      ],
      "name": "directReferrals",
      "outputs": [
        {
          "internalType": "address",
          "name": "",
          "type": "address"
        }
      ],
      "stateMutability": "view",
      "type": "function"
    },
    {
      "inputs": [],
      "name": "directRewardPercent",
      "outputs": [
        {
          "internalType": "uint256",
          "name": "",
          "type": "uint256"
        }
      ],
      "stateMutability": "view",
      "type": "function"
    },
    {
      "inputs": [],
      "name": "emergencyPause",
      "outputs": [],
      "stateMutability": "nonpayable",
      "type": "function"
    },
    {
      "inputs": [],
      "name": "emergencyPaused",
      "outputs": [
        {
          "internalType": "bool",
          "name": "",
          "type": "bool"
        }
      ],
      "stateMutability": "view",
      "type": "function"
    },
    {
      "inputs": [],
      "name": "emergencyUnpause",
      "outputs": [],
      "stateMutability": "nonpayable",
      "type": "function"
    },
    {
      "inputs": [
        {
          "internalType": "address",
          "name": "_to",
          "type": "address"
        },
        {
          "internalType": "uint256",
          "name": "_amount",
          "type": "uint256"
        }
      ],
      "name": "emergencyWithdrawNative",
      "outputs": [],
      "stateMutability": "nonpayable",
      "type": "function"
    },
    {
      "inputs": [
        {
          "internalType": "address",
          "name": "user",
          "type": "address"
        }
      ],
      "name": "getDirectReferrals",
      "outputs": [
        {
          "internalType": "address[]",
          "name": "",
          "type": "address[]"
        }
      ],
      "stateMutability": "view",
      "type": "function"
    },
    {
      "inputs": [
        {
          "internalType": "uint256",
          "name": "activeDirects",
          "type": "uint256"
        }
      ],
      "name": "getLevelRewardLayers",
      "outputs": [
        {
          "internalType": "uint256",
          "name": "",
          "type": "uint256"
        }
      ],
      "stateMutability": "pure",
      "type": "function"
    },
    {
      "inputs": [
        {
          "internalType": "address",
          "name": "user",
          "type": "address"
        }
      ],
      "name": "getUserDynamicRewards",
      "outputs": [
        {
          "internalType": "uint256",
          "name": "totalEarned",
          "type": "uint256"
        },
        {
          "internalType": "uint256",
          "name": "totalClaimed",
          "type": "uint256"
        },
        {
          "internalType": "uint256",
          "name": "pendingAmount",
          "type": "uint256"
        },
        {
          "internalType": "uint256",
          "name": "claimableAmount",
          "type": "uint256"
        }
      ],
      "stateMutability": "view",
      "type": "function"
    },
    {
      "inputs": [
        {
          "internalType": "address",
          "name": "user",
          "type": "address"
        }
      ],
      "name": "getUserLevel",
      "outputs": [
        {
          "internalType": "uint256",
          "name": "level",
          "type": "uint256"
        },
        {
          "internalType": "uint256",
          "name": "percent",
          "type": "uint256"
        },
        {
          "internalType": "uint256",
          "name": "teamCount",
          "type": "uint256"
        }
      ],
      "stateMutability": "view",
      "type": "function"
    },
    {
      "inputs": [
        {
          "internalType": "address",
          "name": "_jbcToken",
          "type": "address"
        },
        {
          "internalType": "address",
          "name": "_marketing",
          "type": "address"
        },
        {
          "internalType": "address",
          "name": "_treasury",
          "type": "address"
        },
        {
          "internalType": "address",
          "name": "_lpInjection",
          "type": "address"
        },
        {
          "internalType": "address",
          "name": "_buybackWallet",
          "type": "address"
        }
      ],
      "name": "initialize",
      "outputs": [],
      "stateMutability": "nonpayable",
      "type": "function"
    },
    {
      "inputs": [],
      "name": "jbcToken",
      "outputs": [
        {
          "internalType": "contract IJBC",
          "name": "",
          "type": "address"
        }
      ],
      "stateMutability": "view",
      "type": "function"
    },
    {
      "inputs": [],
      "name": "lastBurnTime",
      "outputs": [
        {
          "internalType": "uint256",
          "name": "",
          "type": "uint256"
        }
      ],
      "stateMutability": "view",
      "type": "function"
    },
    {
      "inputs": [
        {
          "internalType": "uint256",
          "name": "",
          "type": "uint256"
        }
      ],
      "name": "levelConfigs",
      "outputs": [
        {
          "internalType": "uint256",
          "name": "minDirects",
          "type": "uint256"
        },
        {
          "internalType": "uint256",
          "name": "level",
          "type": "uint256"
        },
        {
          "internalType": "uint256",
          "name": "percent",
          "type": "uint256"
        }
      ],
      "stateMutability": "view",
      "type": "function"
    },
    {
      "inputs": [],
      "name": "levelRewardPercent",
      "outputs": [
        {
          "internalType": "uint256",
          "name": "",
          "type": "uint256"
        }
      ],
      "stateMutability": "view",
      "type": "function"
    },
    {
      "inputs": [],
      "name": "levelRewardPool",
      "outputs": [
        {
          "internalType": "uint256",
          "name": "",
          "type": "uint256"
        }
      ],
      "stateMutability": "view",
      "type": "function"
    },
    {
      "inputs": [],
      "name": "liquidityEnabled",
      "outputs": [
        {
          "internalType": "bool",
          "name": "",
          "type": "bool"
        }
      ],
      "stateMutability": "view",
      "type": "function"
    },
    {
      "inputs": [],
      "name": "lpInjectionPercent",
      "outputs": [
        {
          "internalType": "uint256",
          "name": "",
          "type": "uint256"
        }
      ],
      "stateMutability": "view",
      "type": "function"
    },
    {
      "inputs": [],
      "name": "lpInjectionWallet",
      "outputs": [
        {
          "internalType": "address",
          "name": "",
          "type": "address"
        }
      ],
      "stateMutability": "view",
      "type": "function"
    },
    {
      "inputs": [],
      "name": "marketingPercent",
      "outputs": [
        {
          "internalType": "uint256",
          "name": "",
          "type": "uint256"
        }
      ],
      "stateMutability": "view",
      "type": "function"
    },
    {
      "inputs": [],
      "name": "marketingWallet",
      "outputs": [
        {
          "internalType": "address",
          "name": "",
          "type": "address"
        }
      ],
      "stateMutability": "view",
      "type": "function"
    },
    {
      "inputs": [],
      "name": "nextStakeId",
      "outputs": [
        {
          "internalType": "uint256",
          "name": "",
          "type": "uint256"
        }
      ],
      "stateMutability": "view",
      "type": "function"
    },
    {
      "inputs": [],
      "name": "nextTicketId",
      "outputs": [
        {
          "internalType": "uint256",
          "name": "",
          "type": "uint256"
        }
      ],
      "stateMutability": "view",
      "type": "function"
    },
    {
      "inputs": [],
      "name": "owner",
      "outputs": [
        {
          "internalType": "address",
          "name": "",
          "type": "address"
        }
      ],
      "stateMutability": "view",
      "type": "function"
    },
    {
      "inputs": [],
      "name": "priceOracle",
      "outputs": [
        {
          "internalType": "address",
          "name": "",
          "type": "address"
        }
      ],
      "stateMutability": "view",
      "type": "function"
    },
    {
      "inputs": [],
      "name": "proxiableUUID",
      "outputs": [
        {
          "internalType": "bytes32",
          "name": "",
          "type": "bytes32"
        }
      ],
      "stateMutability": "view",
      "type": "function"
    },
    {
      "inputs": [],
      "name": "redeem",
      "outputs": [],
      "stateMutability": "nonpayable",
      "type": "function"
    },
    {
      "inputs": [],
      "name": "redeemEnabled",
      "outputs": [
        {
          "internalType": "bool",
          "name": "",
          "type": "bool"
        }
      ],
      "stateMutability": "view",
      "type": "function"
    },
    {
      "inputs": [],
      "name": "redemptionFeePercent",
      "outputs": [
        {
          "internalType": "uint256",
          "name": "",
          "type": "uint256"
        }
      ],
      "stateMutability": "view",
      "type": "function"
    },
    {
      "inputs": [],
      "name": "renounceOwnership",
      "outputs": [],
      "stateMutability": "nonpayable",
      "type": "function"
    },
    {
      "inputs": [
        {
          "internalType": "address",
          "name": "_token",
          "type": "address"
        },
        {
          "internalType": "address",
          "name": "_to",
          "type": "address"
        },
        {
          "internalType": "uint256",
          "name": "_amount",
          "type": "uint256"
        }
      ],
      "name": "rescueTokens",
      "outputs": [],
      "stateMutability": "nonpayable",
      "type": "function"
    },
    {
      "inputs": [
        {
          "internalType": "uint256",
          "name": "_direct",
          "type": "uint256"
        },
        {
          "internalType": "uint256",
          "name": "_level",
          "type": "uint256"
        },
        {
          "internalType": "uint256",
          "name": "_marketing",
          "type": "uint256"
        },
        {
          "internalType": "uint256",
          "name": "_buyback",
          "type": "uint256"
        },
        {
          "internalType": "uint256",
          "name": "_lpInjection",
          "type": "uint256"
        },
        {
          "internalType": "uint256",
          "name": "_treasury",
          "type": "uint256"
        }
      ],
      "name": "setDistributionConfig",
      "outputs": [],
      "stateMutability": "nonpayable",
      "type": "function"
    },
    {
      "inputs": [
        {
          "internalType": "bool",
          "name": "_liquidityEnabled",
          "type": "bool"
        },
        {
          "internalType": "bool",
          "name": "_redeemEnabled",
          "type": "bool"
        }
      ],
      "name": "setOperationalStatus",
      "outputs": [],
      "stateMutability": "nonpayable",
      "type": "function"
    },
    {
      "inputs": [
        {
          "internalType": "uint256",
          "name": "_fee",
          "type": "uint256"
        }
      ],
      "name": "setRedemptionFeePercent",
      "outputs": [],
      "stateMutability": "nonpayable",
      "type": "function"
    },
    {
      "inputs": [
        {
          "internalType": "uint256",
          "name": "_buyTax",
          "type": "uint256"
        },
        {
          "internalType": "uint256",
          "name": "_sellTax",
          "type": "uint256"
        }
      ],
      "name": "setSwapTaxes",
      "outputs": [],
      "stateMutability": "nonpayable",
      "type": "function"
    },
    {
      "inputs": [
        {
          "internalType": "uint256",
          "name": "_duration",
          "type": "uint256"
        }
      ],
      "name": "setTicketFlexibilityDuration",
      "outputs": [],
      "stateMutability": "nonpayable",
      "type": "function"
    },
    {
      "inputs": [
        {
          "internalType": "address",
          "name": "_marketing",
          "type": "address"
        },
        {
          "internalType": "address",
          "name": "_treasury",
          "type": "address"
        },
        {
          "internalType": "address",
          "name": "_lpInjection",
          "type": "address"
        },
        {
          "internalType": "address",
          "name": "_buyback",
          "type": "address"
        }
      ],
      "name": "setWallets",
      "outputs": [],
      "stateMutability": "nonpayable",
      "type": "function"
    },
    {
      "inputs": [
        {
          "internalType": "uint256",
          "name": "cycleDays",
          "type": "uint256"
        }
      ],
      "name": "stakeLiquidity",
      "outputs": [],
      "stateMutability": "payable",
      "type": "function"
    },
    {
      "inputs": [
        {
          "internalType": "uint256",
          "name": "",
          "type": "uint256"
        }
      ],
      "name": "stakeOwner",
      "outputs": [
        {
          "internalType": "address",
          "name": "",
          "type": "address"
        }
      ],
      "stateMutability": "view",
      "type": "function"
    },
    {
      "inputs": [
        {
          "internalType": "uint256",
          "name": "",
          "type": "uint256"
        },
        {
          "internalType": "uint256",
          "name": "",
          "type": "uint256"
        }
      ],
      "name": "stakePendingRewards",
      "outputs": [
        {
          "internalType": "address",
          "name": "upline",
          "type": "address"
        },
        {
          "internalType": "uint256",
          "name": "amount",
          "type": "uint256"
        }
      ],
      "stateMutability": "view",
      "type": "function"
    },
    {
      "inputs": [],
      "name": "swapBuyTax",
      "outputs": [
        {
          "internalType": "uint256",
          "name": "",
          "type": "uint256"
        }
      ],
      "stateMutability": "view",
      "type": "function"
    },
    {
      "inputs": [
        {
          "internalType": "uint256",
          "name": "jbcAmount",
          "type": "uint256"
        }
      ],
      "name": "swapJBCToMC",
      "outputs": [],
      "stateMutability": "nonpayable",
      "type": "function"
    },
    {
      "inputs": [],
      "name": "swapMCToJBC",
      "outputs": [],
      "stateMutability": "payable",
      "type": "function"
    },
    {
      "inputs": [],
      "name": "swapReserveJBC",
      "outputs": [
        {
          "internalType": "uint256",
          "name": "",
          "type": "uint256"
        }
      ],
      "stateMutability": "view",
      "type": "function"
    },
    {
      "inputs": [],
      "name": "swapReserveMC",
      "outputs": [
        {
          "internalType": "uint256",
          "name": "",
          "type": "uint256"
        }
      ],
      "stateMutability": "view",
      "type": "function"
    },
    {
      "inputs": [],
      "name": "swapSellTax",
      "outputs": [
        {
          "internalType": "uint256",
          "name": "",
          "type": "uint256"
        }
      ],
      "stateMutability": "view",
      "type": "function"
    },
    {
      "inputs": [],
      "name": "ticketFlexibilityDuration",
      "outputs": [
        {
          "internalType": "uint256",
          "name": "",
          "type": "uint256"
        }
      ],
      "stateMutability": "view",
      "type": "function"
    },
    {
      "inputs": [
        {
          "internalType": "uint256",
          "name": "",
          "type": "uint256"
        }
      ],
      "name": "ticketOwner",
      "outputs": [
        {
          "internalType": "address",
          "name": "",
          "type": "address"
        }
      ],
      "stateMutability": "view",
      "type": "function"
    },
    {
      "inputs": [
        {
          "internalType": "uint256",
          "name": "",
          "type": "uint256"
        },
        {
          "internalType": "uint256",
          "name": "",
          "type": "uint256"
        }
      ],
      "name": "ticketPendingRewards",
      "outputs": [
        {
          "internalType": "address",
          "name": "upline",
          "type": "address"
        },
        {
          "internalType": "uint256",
          "name": "amount",
          "type": "uint256"
        }
      ],
      "stateMutability": "view",
      "type": "function"
    },
    {
      "inputs": [
        {
          "internalType": "address",
          "name": "",
          "type": "address"
        }
      ],
      "name": "totalDynamicClaimed",
      "outputs": [
        {
          "internalType": "uint256",
          "name": "",
          "type": "uint256"
        }
      ],
      "stateMutability": "view",
      "type": "function"
    },
    {
      "inputs": [
        {
          "internalType": "address",
          "name": "",
          "type": "address"
        }
      ],
      "name": "totalDynamicEarned",
      "outputs": [
        {
          "internalType": "uint256",
          "name": "",
          "type": "uint256"
        }
      ],
      "stateMutability": "view",
      "type": "function"
    },
    {
      "inputs": [
        {
          "internalType": "address",
          "name": "newOwner",
          "type": "address"
        }
      ],
      "name": "transferOwnership",
      "outputs": [],
      "stateMutability": "nonpayable",
      "type": "function"
    },
    {
      "inputs": [],
      "name": "treasuryPercent",
      "outputs": [
        {
          "internalType": "uint256",
          "name": "",
          "type": "uint256"
        }
      ],
      "stateMutability": "view",
      "type": "function"
    },
    {
      "inputs": [],
      "name": "treasuryWallet",
      "outputs": [
        {
          "internalType": "address",
          "name": "",
          "type": "address"
        }
      ],
      "stateMutability": "view",
      "type": "function"
    },
    {
      "inputs": [
        {
          "internalType": "address",
          "name": "newImplementation",
          "type": "address"
        },
        {
          "internalType": "bytes",
          "name": "data",
          "type": "bytes"
        }
      ],
      "name": "upgradeToAndCall",
      "outputs": [],
      "stateMutability": "payable",
      "type": "function"
    },
    {
      "inputs": [
        {
          "internalType": "address",
          "name": "",
          "type": "address"
        }
      ],
      "name": "userInfo",
      "outputs": [
        {
          "internalType": "address",
          "name": "referrer",
          "type": "address"
        },
        {
          "internalType": "uint256",
          "name": "activeDirects",
          "type": "uint256"
        },
        {
          "internalType": "uint256",
          "name": "teamCount",
          "type": "uint256"
        },
        {
          "internalType": "uint256",
          "name": "totalRevenue",
          "type": "uint256"
        },
        {
          "internalType": "uint256",
          "name": "currentCap",
          "type": "uint256"
        },
        {
          "internalType": "bool",
          "name": "isActive",
          "type": "bool"
        },
        {
          "internalType": "uint256",
          "name": "refundFeeAmount",
          "type": "uint256"
        },
        {
          "internalType": "uint256",
          "name": "teamTotalVolume",
          "type": "uint256"
        },
        {
          "internalType": "uint256",
          "name": "teamTotalCap",
          "type": "uint256"
        },
        {
          "internalType": "uint256",
          "name": "maxTicketAmount",
          "type": "uint256"
        },
        {
          "internalType": "uint256",
          "name": "maxSingleTicketAmount",
          "type": "uint256"
        }
      ],
      "stateMutability": "view",
      "type": "function"
    },
    {
      "inputs": [
        {
          "internalType": "address",
          "name": "",
          "type": "address"
        },
        {
          "internalType": "uint256",
          "name": "",
          "type": "uint256"
        }
      ],
      "name": "userStakes",
      "outputs": [
        {
          "internalType": "uint256",
          "name": "id",
          "type": "uint256"
        },
        {
          "internalType": "uint256",
          "name": "amount",
          "type": "uint256"
        },
        {
          "internalType": "uint256",
          "name": "startTime",
          "type": "uint256"
        },
        {
          "internalType": "uint256",
          "name": "cycleDays",
          "type": "uint256"
        },
        {
          "internalType": "bool",
          "name": "active",
          "type": "bool"
        },
        {
          "internalType": "uint256",
          "name": "paid",
          "type": "uint256"
        }
      ],
      "stateMutability": "view",
      "type": "function"
    },
    {
      "inputs": [
        {
          "internalType": "address",
          "name": "",
          "type": "address"
        }
      ],
      "name": "userTicket",
      "outputs": [
        {
          "internalType": "uint256",
          "name": "ticketId",
          "type": "uint256"
        },
        {
          "internalType": "uint256",
          "name": "amount",
          "type": "uint256"
        },
        {
          "internalType": "uint256",
          "name": "purchaseTime",
          "type": "uint256"
        },
        {
          "internalType": "bool",
          "name": "exited",
          "type": "bool"
        }
      ],
      "stateMutability": "view",
      "type": "function"
    },
    {
      "inputs": [
        {
          "internalType": "address",
          "name": "_to",
          "type": "address"
        },
        {
          "internalType": "uint256",
          "name": "_amount",
          "type": "uint256"
        }
      ],
      "name": "withdrawLevelRewardPool",
      "outputs": [],
      "stateMutability": "nonpayable",
      "type": "function"
    },
    {
      "inputs": [
        {
          "internalType": "address",
          "name": "_toMC",
          "type": "address"
        },
        {
          "internalType": "uint256",
          "name": "_amountMC",
          "type": "uint256"
        },
        {
          "internalType": "address",
          "name": "_toJBC",
          "type": "address"
        },
        {
          "internalType": "uint256",
          "name": "_amountJBC",
          "type": "uint256"
        }
      ],
      "name": "withdrawSwapReserves",
      "outputs": [],
      "stateMutability": "nonpayable",
      "type": "function"
    },
    {
      "stateMutability": "payable",
      "type": "receive"
    }
  ],
  "bytecode": "0x60a08060405234620000d157306080527ff0c57e16840df040f15088dc2f81fe391c3923bec73e23a9662efc9c229c6a009081549060ff8260401c16620000c257506001600160401b036002600160401b0319828216016200007c575b6040516154f49081620000d78239608051818181611f8401526123c30152f35b6001600160401b031990911681179091556040519081527fc7f505b2f371ae2175ee4913f4499e1f2633a7b5936321eed1cdaeb6115181d290602090a13880806200005c565b63f92ee8a960e01b8152600490fd5b600080fdfe60806040526004361015610056575b361561001957600080fd5b61002534601654613667565b6016556040513481527fc8382e3e3003d34021113f35bf95ee86b77a09ec08c4eb3cbe64076e60468f4e60203392a2005b6000803560e01c806301d62efb146132c457806304ef9d58146132a657806304f618cb146130d757806305ad39351461307c5780630e2be210146130605780631427f616146130445780631459457a14612e4a5780631788513c14612e23578063182c84cc14612dfc5780631959a00214612d4a5780631d0dac7614612d2c57806321923bde14612cdd57806321b77d6314612cb957806321f483d314612c715780632630c12f14612c44578063263f30b314612c0c57806327c830a914612be957806327f082f414612bcb578063350763731461263c578063372500ab1461261b5780633dbd46bd146125e85780634626402b146125bf578063488b5d97146125a15780634a4e3bd5146125575780634f1ef2861461234857806351858e27146122fb57806351c6590a146121ac57806352778b0514611fdc57806352d1902d14611f715780636031a52f14611f535780636839b5fa14611f365780636dd6682714611f18578063715018a614611ebf57806375506c9614611ea157806375f0a87414611e7857806377a2a54014611e5a578063813380cd14611e2c57806381eeef5c14611d4757806383672f3e14611c4f578063841d308b146119f55780638710bcaa1461199457806388481b611461197857806388fd4d331461194f5780638a859a85146119335780638c0eaa48146119175780638da5cb5b146118e157806390b0eb51146118915780639370b0801461187357806398ad675a1461183a57806399b6024d146117af5780639b788504146117335780639d99eca4146116e5578063a1d7d1a91461167f578063a2af92261461164c578063ac8f50aa146115f8578063ad3cb1cc146115b6578063b048a4bb14611593578063b5d5b5fa14611505578063b759936b146114e7578063bd594dcf146114c9578063be040fb014610fb4578063c2ff12fc14610f81578063ccf6194414610f63578063cea9d26f14610e70578063ceaa366d14610e52578063d0f1647014610dc8578063d2c8e0e514610d19578063d2f8253614610cf3578063d4f0014214610b97578063d8020a1814610b79578063dce3dc1f14610b4e578063deab8aea14610b25578063dec7fa3b14610b07578063e306744914610ae9578063e4412f6814610acb578063ece7126614610a7d578063edca914c146103eb5763f2fde38b146103bc575061000e565b346103e85760203660031901126103e8576103e56103d861336b565b6103e0613f02565b613ea0565b80f35b80fd5b50806003193601126103e8576103ff613fea565b60ff604e5416610a6b57338152600e60205260408120546001600160a01b031615610a2b5761042d33614667565b68056bc75e2d6310000034141580610a18575b80610a05575b806109f2575b6109e057338152600f6020526040812060038101805460ff161561091557610475601854613602565b80601855825534600183015542600283015560ff198154169055338252600e602052816003604082200155600334023481046003143415171561090157338352600e60205260046040842001555b600a6001820154338452600e602052604084209060098201805482116108f9575b505001805434116108f0575b5080548252601b6020908152604080842080546001600160a01b031916339081179091558452600e9091528220546001600160a01b0316801515806108dc575b156108ba5761054d606461054660055434613627565b0482614833565b9081610885575b50505b338252600e6020526040822054829182916001600160a01b03169082903480159080046001141715610871579394915b6001600160a01b03811680151580610867575b8061085d575b156106ab578452600e6020526040842060ff6005820154161561068c57506001600160a01b0381168452600e602052604084206001015483906105e2906135d2565b1161061e575b6001600160a01b039081168452600e602052604084205416916106149061060e90613602565b95613602565b935b939491610587565b61062b606434048261496c565b80610637575b506105e8565b918261064291613667565b91338552600f6020526040852054604051918252856020830152600360408301526060820152339060008051602061533f833981519152608060018060a01b03851692a338610631565b5492956001600160a01b03909316926106a59150613602565b93610616565b84866106c58560646106bf60065434613627565b0461365a565b80610818575b5060018060a01b03600154166106f260079160646106eb60075434613627565b04906140d9565b610709606461070360085434613627565b0461501a565b61072560018060a01b036003541660646106eb60095434613627565b61074160018060a01b036002541660646106eb600a5434613627565b336000908152600e6020526040812054909234151592916001600160a01b03165b6001600160a01b03168015158061080e575b156107bb57600052600e6020526107a0836040600020906107a6575b546001600160a01b031694613602565b93610762565b8381016107b4348254613667565b9055610790565b85826107c633614027565b546040519034825260208201527f2a91574e12ad96234e84923e146b0946ecfb871cd8d5534dc1fdcbe87a7c01b360403392a2600160008051602061547f8339815191525580f35b50601e8510610774565b6040816108487fca2e2bff26d2adb9fe155e9265350494c16751676879cb7ced9141e0fcf3934393601e54613667565b80601e5582519182526020820152a1826106cb565b50601487106105a0565b50600f841061059a565b634e487b7160e01b84526011600452602484fd5b825460405192835284602084015260026040840152606083015260008051602061533f83398151915260803393a33880610554565b506108d760018060a01b036001541660646106eb60055434613627565b610557565b5080835260ff600560408520015416610530565b349055386104f0565b5538806104e4565b634e487b7160e01b83526011600452602483fd5b6001820180548061097b575061092c601854613602565b80601855835534905542600283015560ff198154169055338252600e602052816003604082200155600334023481046003143415171561090157338352600e60205260046040842001556104c3565b6109889192503490613667565b9055338252600e60205260ff6005604084200154166109d5575b600334023481046003143415171561090157338352600e6020526109ce60046040852001918254613667565b90556104c3565b4260028201556109a2565b60405163162908e360e11b8152600490fd5b50683635c9adc5dea0000034141561044c565b50681b1ae4d6e2ef500000341415610446565b50681043561a8829300000341415610440565b60405162461bcd60e51b8152602060048201526018602482015277135d5cdd08189a5b99081c9959995c9c995c88199a5c9cdd60421b6044820152606490fd5b60405163ab35696f60e01b8152600490fd5b50346103e85760203660031901126103e8577fc7f6975dcffc536e6e57dd1d1dea810fff534a70563baf2d6f977b119bd00e1b6020600435610abd613f02565b80600b55604051908152a180f35b50346103e857806003193601126103e8576020600854604051908152f35b50346103e857806003193601126103e8576020601a54604051908152f35b50346103e857806003193601126103e8576020600b54604051908152f35b50346103e857806003193601126103e8576004546040516001600160a01b039091168152602090f35b50346103e85760203660031901126103e8576040610b6d600435613f3b565b82519182526020820152f35b50346103e857806003193601126103e8576020600754604051908152f35b50346103e85760803660031901126103e857610bb161336b565b60243590610bbd613397565b60643591610bc9613f02565b83610c9d575b5081610bf8575b506000805160206153df8339815191529160409182519182526020820152a180f35b91602082610c3794610c0c8260175461365a565b60175560018060a01b03875416908760405180988195829463a9059cbb60e01b8452600484016134d6565b03925af1918215610c92576000805160206153df83398151915293604093610c63575b50915091610bd6565b610c849060203d602011610c8b575b610c7c8183613466565b810190613674565b5038610c5a565b503d610c72565b6040513d86823e3d90fd5b834710610ce157848080868194610cb68260165461365a565b6016555af1610cc3613b61565b5015610ccf5738610bcf565b604051633d2cec6f60e21b8152600490fd5b60405163dbc3a71f60e01b8152600490fd5b50346103e857806003193601126103e857602060ff60155460081c166040519015158152f35b50346103e857602090816003193601126103e8576001600160a01b03919082610d4061336b565b168152601182526040812090604051808484549182815201908194845285842090845b818110610db25750505081610d79910382613466565b6040519380850191818652518092526040850193925b828110610d9c5785850386f35b8351871685529381019392810192600101610d8f565b8254891684529287019260019283019201610d63565b50346103e85760c03660031901126103e8577f66682b276e4cd1a4e1f68b55b1143766c5332f472eb593cf2a70a25d9d5d991760c060043560a435608435606435604435602435610e17613f02565b856005558060065581600755826008558360095584600a55604051958652602086015260408501526060840152608083015260a0820152a180f35b50346103e857806003193601126103e8576020600954604051908152f35b50346103e85760603660031901126103e857610e8a61336b565b610e92613381565b60443591610e9e613f02565b83546001600160a01b03828116949181168514610f5157831615610f51576020604051809563a9059cbb60e01b8252818881610ede878a600484016134d6565b03925af1908115610f46577f77023e19c7343ad491fd706c36335ca0e738340a91f29b1fd81e2673d44896c494610f2192610f27575b5060405193849384613ace565b0390a180f35b610f3f9060203d602011610c8b57610c7c8183613466565b5038610f14565b6040513d87823e3d90fd5b60405163e6c4247b60e01b8152600490fd5b50346103e857806003193601126103e8576020600554604051908152f35b50346103e85760203660031901126103e8576020906004358152601b8252604060018060a01b0391205416604051908152f35b50346103e857806003193601126103e857610fcd613fea565b60ff8060155460081c16156114b85733825260209160108352604081209281828391845b875481101561116d57866004611007838b613573565b500154161561116557600261101c828a613573565b500154600361102b838b613573565b50015490620151809182810292818404149015171561115157899161104f91613667565b421015611062575b506001905b01610ff1565b938192936110fa916110a260056110988661109261108b61108560019a8e613573565b506140ff565b8096613667565b9a613573565b5001918254613667565b9055338852600e875260096040892001548015611140575b6110c9606491600b5490613627565b04836110d5868d613573565b5001548181111561112d57906110ee816110f49361365a565b92613667565b94613667565b916004611107828b613573565b5001805460ff1916905561112561111e828b613573565b50546141e0565b905087611057565b905061113891613667565b938790613667565b50600f8752604088208301546110ba565b634e487b7160e01b88526011600452602488fd5b60019061105c565b5084939181159081806114b0575b61149e5780611489575b50836111ec575b600e9350156111dc575b506111a033614027565b33835252604081206004600382015491015411156111ce575b600160008051602061547f8339815191525580f35b6111d7336143d4565b6111b9565b6111e690336140d9565b83611196565b338552600e835261120a60408620600360048201549101549061365a565b808511611461575b50831561118c57338552600e835260036040862001611232858254613667565b90558360011c85908047101580611458575b611446575b60175480158015611432575b156113f15750670de0b6b3a7640000905b670de0b6b3a764000090818102918183041490151715611151579061128a9161363a565b86546040516370a0823160e01b815230600482015288926001600160a01b0390921691908781602481865afa80156113e65782918b916113b0575b501015806113a7575b61132e575b505060008051602061535f83398151915290600e9660405190815260008782015260008051602061545f83398151915260403392a2338852600f86526040882054906113266040519283923396846134f1565b0390a261118c565b91509585604051809863a9059cbb60e01b8252818b816113528833600484016134d6565b03925af191821561139c57600e9760008051602061535f8339815191529361137f575b50918197506112d3565b61139590883d8a11610c8b57610c7c8183613466565b5089611375565b6040513d8a823e3d90fd5b508015156112ce565b809250898092503d83116113df575b6113c98183613466565b810103126113da578190518b6112c5565b600080fd5b503d6113bf565b6040513d8c823e3d90fd5b601654670de0b6b3a76400009081810291818304149015171561141e57906114189161363a565b90611266565b634e487b7160e01b89526011600452602489fd5b50683635c9adc5dea0000060165410611255565b905061145281336140d9565b80611249565b50801515611244565b909360405190815281848201526000805160206153bf83398151915260403392a29285611212565b61149590601654613667565b60165585611185565b6040516304c4857b60e51b8152600490fd5b50841561117b565b6040516282b42960e81b8152600490fd5b50346103e857806003193601126103e8576020600654604051908152f35b50346103e857806003193601126103e8576020601e54604051908152f35b50346103e85760403660031901126103e85761151f61336b565b6001600160a01b03168152601060205260408120805460243592908310156103e85760c061154d8484613573565b508054906001810154906002810154600382015490600560ff600485015416930154936040519586526020860152604085015260608401521515608083015260a0820152f35b50346103e857806003193601126103e857602060ff601554166040519015158152f35b50346103e857806003193601126103e8576115f46040516115d681613407565b60058152640352e302e360dc1b60208201526040519182918261352a565b0390f35b50346103e857611607366134a4565b908252601c6020526040822080548210156116485761162692506134ba565b5080546001909101546040519182916115f4916001600160a01b0316836134d6565b8280fd5b50346103e85760403660031901126103e8576103e561166961336b565b611671613381565b9061167a613f02565b613b91565b50346103e85760203660031901126103e8576001600160a01b036116a161336b565b168152601f6020526040812054602080526040822054918282116000146116dc57506115f46116d0838361365a565b604051938493846134f1565b6115f4906116d0565b50346103e85760203660031901126103e8577fd28d9e4ce68d89af7920cb8618e342a78f51e545c530ce60f1cb1d6f0235b47f6020600435611725613f02565b80601455604051908152a180f35b50346103e85760403660031901126103e85761174d61336b565b60243590611759613f02565b814710610ce1578280808085855af1611770613b61565b5015610ccf576040519182526001600160a01b0316907f288155da11d775f8595652c04f862708561d601d9fd3f04f7aed5f8311296e2490602090a280f35b50346103e85760403660031901126103e8576117c961336b565b602435906117d5613f02565b814710610ce1576117e882601e5461365a565b601e558280808085855af16117fb613b61565b5015610ccf576040519182526001600160a01b0316907f27971ee1acbfbdfb20656657ceb2e0e7b519b9e60fe1a6b1f6d27b159f4a607c90602090a280f35b50346103e85760203660031901126103e8576020906040906001600160a01b0361186261336b565b168152601f83522054604051908152f35b50346103e857806003193601126103e8576020600d54604051908152f35b50346103e8577f4e9dd03193a0c81552fb8e6d32280f0d7e0ce8087241dc3d17ef3d193ee231d760406118c3366134a4565b6118cb613f02565b81600c5580600d5582519182526020820152a180f35b50346103e857806003193601126103e85760008051602061537f833981519152546040516001600160a01b039091168152602090f35b50346103e857806003193601126103e857602060405160038152f35b50346103e857806003193601126103e857602060405160018152f35b50346103e857806003193601126103e8576003546040516001600160a01b039091168152602090f35b50346103e857806003193601126103e857602060405160048152f35b50346103e85760203660031901126103e8576080906040906001600160a01b036119bc61336b565b168152600f6020522080549060018101549060ff6003600283015492015416916040519384526020840152604083015215156060820152f35b50806003193601126103e857611a09613fea565b60ff604e5416610a6b5734156109e057601654683635c9adc5dea00000808210908115611c43575b50611bec5760175490611a57611a478334613627565b611a513484613667565b9061363a565b6127108034029034820403611c2f57611a73836103e89261363a565b116109e0576064611a86600c5483613627565b0491611a92838361365a565b85546040516370a0823160e01b815230600482015291956020946001600160a01b03949193928516928681602481875afa80156113e65782918b91611bfe575b5010611bec578893611ae8611af0933490613667565b60165561365a565b601755803b15611be857818091602460405180948193630852cd8d60e31b83528a60048401525af18015611bdd57611bc5575b5054169181604051809463a9059cbb60e01b8252818881611b488a33600484016134d6565b03925af1918215610f46577f36864aeefce16bc4aaceeb6b0cdfb2ad1455a8cb4ccb0db148a2bc6e7166f97c93611b8f93611ba7575b5050604051918291339534846133f1565b0390a2600160008051602061547f8339815191525580f35b81611bbd92903d10610c8b57610c7c8183613466565b503880611b7e565b611bce90613438565b611bd9578438611b23565b8480fd5b6040513d84823e3d90fd5b5080fd5b6040516343c7ad8160e11b8152600490fd5b809250888092503d8311611c28575b611c178183613466565b810103126113da5781905138611ad2565b503d611c0d565b634e487b7160e01b85526011600452602485fd5b90506017541038611a31565b50346103e85760803660031901126103e857611c6961336b565b611c71613381565b90611c7a613397565b91611c836133ad565b90611c8c613f02565b6001600160a01b039283169182158015611d3d575b8015611d33575b8015611d29575b610f51577f213f1de8063c19612a553f1480ff341bea689d36a56a2089f1b9060d599b5d8394848060809660018060a01b031995878760015416176001551692838660025416176002551692838560035416176003551680936004541617600455604051938452602084015260408301526060820152a180f35b5083811615611caf565b5083851615611ca8565b5083821615611ca1565b50346103e857806003193601126103e857601a54620151808101809111611e18574210611e065760175480156109e057606481049081156109e05781611d8c9161365a565b601755815482906001600160a01b0316803b15611be857818091602460405180948193630852cd8d60e31b83528860048401525af18015611bdd57611df2575b5060008051602061541f83398151915260408342601a558151908482526020820152a180f35b611dfb90613438565b611be8578138611dcc565b604051636f47a98b60e11b8152600490fd5b634e487b7160e01b82526011600452602482fd5b50346103e857611e3b366134a4565b90825260126020526040822080548210156116485761162692506134ba565b50346103e857806003193601126103e8576020601654604051908152f35b50346103e857806003193601126103e8576001546040516001600160a01b039091168152602090f35b50346103e857806003193601126103e8576020601954604051908152f35b50346103e857806003193601126103e857611ed8613f02565b60008051602061537f83398151915280546001600160a01b031981169091556000906001600160a01b031660008051602061543f8339815191528280a380f35b50346103e857806003193601126103e8576020601454604051908152f35b50346103e857806003193601126103e85760206040516103e88152f35b50346103e857806003193601126103e8576020601854604051908152f35b50346103e857806003193601126103e8577f00000000000000000000000000000000000000000000000000000000000000006001600160a01b03163003611fca57602060405160008051602061539f8339815191528152f35b60405163703e46dd60e11b8152600490fd5b50346103e85760203660031901126103e857600435611ff9613fea565b60ff604e5416610a6b5780156109e057683635c9adc5dea0000080601654109081156121a0575b50611bec5781546040516323b872dd60e01b81526001600160a01b03916020908290841681878161205689303360048501613ace565b03925af18015610c9257612181575b506064612074600d5484613627565b0461207f818461365a565b9161271080840290848204148415171561216d576120a36103e8916017549061363a565b116109e0578490815416803b15611be8578190602460405180948193630852cd8d60e31b83528760048401525af18015610f465761215a575b50601654916120eb8382613627565b6120fc60175491611a518484613667565b91824710611bec577f223c8ad0806f634524940a8595f819c5cfc7b1f4f4f45791269301df0a7e61d594612134849261213c94613667565b60175561365a565b60165561214981336140d9565b611b8f6040519283923396846133f1565b61216690949194613438565b92386120dc565b634e487b7160e01b86526011600452602486fd5b6121999060203d602011610c8b57610c7c8183613466565b5038612065565b90506017541038612020565b5060203660031901126103e8576004356121c4613f02565b346122e7575b806121f1575b604060008051602061531f833981519152918151903482526020820152a180f35b81546040516323b872dd60e01b81529060209082906001600160a01b031681868161222188303360048501613ace565b03925af190816122c8575b5061229f57508060033d1161228e575b506308c379a01461225a575b6040516320a9b82760e21b8152600490fd5b612262613af0565b8061226d5750612248565b6040516387a26b7560e01b815290819061228a906004830161352a565b0390fd5b9050600481803e5160e01c3861223c565b6040816122bd60008051602061531f83398151915293601754613667565b6017559150506121d0565b6122e09060203d602011610c8b57610c7c8183613466565b503861222c565b6122f334601654613667565b6016556121ca565b50346103e857806003193601126103e857612314613f02565b600160ff19604e541617604e557f4cb3183d0bf66f9634b15cfc3539fdddc96c2c9324848af89b56586a6739fec48180a180f35b5060403660031901126103e85761235d61336b565b60249182356001600160401b038111611be85736602382011215611be85780600401359261238a84613489565b6123976040519182613466565b848152602094858201933688838301011161253057818692898993018737830101526001600160a01b037f0000000000000000000000000000000000000000000000000000000000000000811630811490811561253b575b50611fca576123fc613f02565b6040516352d1902d60e01b81529083169580826004818a5afa9182918793612507575b505061243d57604051634c9c8ce360e01b8152600481018790528790fd5b85908760008051602061539f833981519152918281036124f25750843b156124dc575080546001600160a01b031916821790556040518592917fbc7cd75a20ee27fd9adebab32041f755214dbc6bffa90cc0225b39da2e5c2d3b8480a28151156124bf57506124bb9382915190845af46124b5613b61565b9161527a565b5080f35b9350505050346124cd575080f35b63b398979f60e01b8152600490fd5b604051634c9c8ce360e01b815260048101849052fd5b60405190632a87526960e21b82526004820152fd5b9080929350813d8311612534575b61251f8183613466565b81010312612530575190388061241f565b8580fd5b503d612515565b90508160008051602061539f83398151915254161415386123ef565b50346103e857806003193601126103e857612570613f02565b60ff19604e5416604e557f15de7ad89d29fd1c6d2e6b1e878453569b4080edf34e0105faaa3bd52f0185308180a180f35b50346103e857806003193601126103e8576020604051620151808152f35b50346103e857806003193601126103e8576002546040516001600160a01b039091168152602090f35b50346103e85760203660031901126103e8576020906004358152601d8252604060018060a01b0391205416604051908152f35b50346103e857806003193601126103e857612634613fea565b6111b961368c565b5060203660031901126103e857612651613fea565b60ff604e5416610a6b5760ff6015541615612b9157338152600f60205260408120600181015415612b7f5760ff600382015416612b6d576007600435141580612b60575b80612b53575b612b415734156109e0576126b0601954613602565b60198190553383526010602052604080842090519160c083016001600160401b03811184821017612b2d5760405282523460208301524260408301526004356060830152600160808301528360a0830152805490600160401b821015612b19579061272091600182018155613573565b919091612b055760a08160059251845560208101516001850155604081015160028501556060810151600385015561276d60808201511515600486019060ff801983541691151516179055565b01519101556019548252601d602052604082203360018060a01b0319825416179055338252600e602052600a60408320018054918215612af4575b5050609681029080820460961490151715611e18576064900434036109e0576127d033614027565b601954906040517fa8a1b9e33e503eed12bf7e7c8c01c7f3b60217a496bddd0f5db351dd8c056c1c3391806128098660043534846133f1565b0390a2338152600e6020526040812054819081906001600160a01b03165b6001600160a01b038116151580612aea575b15612ae0576001600160a01b0381168452600e60205260408420600581015460ff1615612acb57506001600160a01b0381168452600f602052604084206001810154908115908115612abc575b50612a97576001600160a01b0382168552600e60205260408520600201546128ad90613f3b565b91905084821161298f575b50602d11156128ec576001600160a01b039081168452600e602052604084205416906128e390613602565b915b9190612827565b50505090505b338152600e602052600660408220018181549182612921575b50600160008051602061547f8339815191525580f35b556016548181101580612985575b61293b575b829061290b565b816129459161365a565b60165561295281336140d9565b6040519081527f3437b9ea7fa19c6d233dd70cc787a70fab87cee64d8ba4571512cc84402748f960203392a23880612934565b508147101561292f565b6129b1906129a0839660649461365a565b903490803411612a8f575b50613627565b04858552601c60205260408520604051906129cb82613407565b6001600160a01b038416825260208201839052805490600160401b821015612a7b57906129fd916001820181556134ba565b919091612a6757805182546001600160a01b0319166001600160a01b03918216178355602091820151600193909301929092556040519283529083169187917f7c6505ab8279235ad21ebf427336cc8d97c017b4aa1f10ffdff11d3261e4934e91a382602d6128b8565b634e487b7160e01b87526004879052602487fd5b634e487b7160e01b88526041600452602488fd5b9050386129ab565b5050600e60205260408320546001600160a01b031690612ab690613602565b916128e5565b60ff9150600301541638612886565b546001600160a01b031691612ab69150613602565b50505090506128f2565b5060148210612839565b6001919250015480915538806127a8565b634e487b7160e01b84526004849052602484fd5b634e487b7160e01b85526041600452602485fd5b634e487b7160e01b86526041600452602486fd5b604051634dc7f5ff60e11b8152600490fd5b50601e600435141561269b565b50600f6004351415612695565b604051631ecb2c4f60e31b8152600490fd5b604051634065aaf160e11b8152600490fd5b60405162461bcd60e51b8152602060048201526012602482015271131a5c5d5a591a5d1e48191a5cd8589b195960721b6044820152606490fd5b50346103e857806003193601126103e8576020600c54604051908152f35b50346103e857806003193601126103e857602060ff604e54166040519015158152f35b50346103e85760203660031901126103e8576020906040906001600160a01b03612c3461336b565b1681528280522054604051908152f35b50346103e857806003193601126103e857604e5460405160089190911c6001600160a01b03168152602090f35b50346103e85760203660031901126103e857600435906013548210156103e8576020816013600393522091020180546115f460026001840154930154604051938493846133f1565b50346103e857806003193601126103e8576020604051683635c9adc5dea000008152f35b50346103e85760203660031901126103e8576115f4906002906040906001600160a01b03612d0961336b565b168152600e602052200154612d1d81613f3b565b929091604051938493846133f1565b50346103e857806003193601126103e8576020601754604051908152f35b50346103e85760203660031901126103e857610160906001600160a01b039060409082612d7561336b565b168152600e60205220908154169060018101549060028101546003820154600483015460ff600585015416600685015491600786015493600887015495600a6009890154980154986040519a8b5260208b015260408a015260608901526080880152151560a087015260c086015260e0850152610100840152610120830152610140820152f35b50346103e85760203660031901126103e8576020612e1b6004356135d2565b604051908152f35b50346103e857806003193601126103e857546040516001600160a01b039091168152602090f35b50346103e85760a03660031901126103e857612e6461336b565b612e6c613381565b90612e75613397565b612e7d6133ad565b916084356001600160a01b0381811692918390036130405760008051602061549f8339815191529485549660ff8860401c16159560018060401b03891698891580613039575b6001809b14908161302f575b159081613026575b50613014576001600160401b031981168a1789558492839189612ff9575b50612efe6151c5565b612f066151c5565b612f0f33613ea0565b612f176151c5565b612f1f6151c5565b612f276151c5565b8a60008051602061547f833981519152558160018060a01b03199716878d5416178c5516858a5416178955168360025416176002551681600354161760035560045416176004556019600555600f6006556005600755600560085560196009556019600a5582600b556032600c556019600d556203f48060145561010161ffff19601554161760155542601a55612fbc578280f35b805460ff60401b191690556040519081527fc7f505b2f371ae2175ee4913f4499e1f2633a7b5936321eed1cdaeb6115181d290602090a138808280f35b6001600160481b0319166001600160401b01178a5538612ef5565b60405163f92ee8a960e01b8152600490fd5b90501538612ed7565b303b159150612ecf565b5087612ec3565b8680fd5b50346103e857806003193601126103e857602090604051908152f35b50346103e857806003193601126103e857602060405160028152f35b50346103e85760403660031901126103e85761309661336b565b6001600160a01b039081168252601160205260408220805460243593908410156103e857506020926130c7916133c3565b9190546040519260031b1c168152f35b50346103e857602080600319360112611be8576130f261336b565b338352600e808352604084205490926001600160a01b039290918316613294578216338114613282578015610f515733808652600e8352604080872080546001600160a01b03191684179055828752601180855290872090916131549161358f565b338652600e835283604087205416948487965b1680151580613278575b1561324e578088528185526040882090600282018054600181019182821161323a5792826131d78b9693837fa0eea20e678cb42233c1c456c84cedce7ea53fa360bb71bf3b761b760956777060408e8b996131f79b5586825191868352820152a2613f3b565b506131e182613f3b565b50908082036131fd575b50505050541697613602565b96613167565b61322e7fea8384d3ca7bf5b7510d3faee44a3774406c1fd3ac14fff110a8c98d47a2595693604051938493846133f1565b0390a2388080806131eb565b634e487b7160e01b8c52600487905260248cfd5b8784337fa6dbb5aa28f35437de94d685d66edce5fb4812196b4984b91dfd5a7b38c0fb308380a380f35b50601e8710613171565b604051631acade8960e31b8152600490fd5b60405163682a906560e01b8152600490fd5b50346103e857806003193601126103e8576020600a54604051908152f35b50346103e85760403660031901126103e857600435801515809103611be85760243590811515809203611648577f03cb373f89de891077fe47cec43663b6727713de0337af46bebd1178122251b7917fb886fcb5b9c12916f26d967ebe962dbd51ec249fb55961da39c851cdfc10115c60208093613340613f02565b6015805461ffff191660ff831617600886901b61ff0016179055604051908152a1604051908152a180f35b600435906001600160a01b03821682036113da57565b602435906001600160a01b03821682036113da57565b604435906001600160a01b03821682036113da57565b606435906001600160a01b03821682036113da57565b80548210156133db5760005260206000200190600090565b634e487b7160e01b600052603260045260246000fd5b6040919493926060820195825260208201520152565b604081019081106001600160401b0382111761342257604052565b634e487b7160e01b600052604160045260246000fd5b6001600160401b03811161342257604052565b606081019081106001600160401b0382111761342257604052565b601f909101601f19168101906001600160401b0382119082101761342257604052565b6001600160401b03811161342257601f01601f191660200190565b60409060031901126113da576004359060243590565b80548210156133db5760005260206000209060011b0190600090565b6001600160a01b039091168152602081019190915260400190565b606091949392608082019582526020820152600060408201520152565b9094939260609260808301968352602083015260408201520152565b6020808252825181830181905290939260005b82811061355f57505060409293506000838284010152601f8019910116010190565b81810186015184820160400152850161353d565b80548210156133db576000526006602060002091020190600090565b80549190600160401b83101561342257826135b29160016135d0950181556133c3565b90919060018060a01b038084549260031b9316831b921b1916179055565b565b60038110156135fc5760028110156135f657600111156135f157600090565b600590565b50600a90565b50600f90565b60001981146136115760010190565b634e487b7160e01b600052601160045260246000fd5b8181029291811591840414171561361157565b8115613644570490565b634e487b7160e01b600052601260045260246000fd5b9190820391821161361157565b9190820180921161361157565b908160209103126113da575180151581036113da5790565b6000338152602090600f8252604090818120926001936001810154158015613ac0575b613aaf57338352601082528383209483958185905b6139ae575b505050841561399d57338352600e82526136e98560038686200154613667565b94338452600e83528484209560049687810154809211613987575b5050801561397857338452600e8352600385852001613724828254613667565b90558060011c918492804710158061396f575b61395d575b60175480158015613949575b156139095750670de0b6b3a7640000905b670de0b6b3a7640000908181029181830414901517156138f6579061377d9161363a565b855487516370a0823160e01b8152308a820152879492916001600160a01b0316908781602481855afa9081156138ec579083918a916138b7575b501015806138ae575b61382d575b50509160008051602061535f83398151915291600e9594938851908152878682015260008051602061545f833981519152893392a2549061380c88519283923396846134f1565b0390a233835252206003810154910154111561382457565b6135d0336143d4565b816138549293955087918b8a8c5180968195829463a9059cbb60e01b8452339084016134d6565b03925af180156138a4579160008051602061535f8339815191529391600e97969593613887575b509394958193506137c5565b61389d90873d8911610c8b57610c7c8183613466565b503861387b565b88513d89823e3d90fd5b508115156137c0565b809250898092503d83116138e5575b6138d08183613466565b810103126138e157829051386137b7565b8880fd5b503d6138c6565b8a513d8b823e3d90fd5b634e487b7160e01b875260118952602487fd5b601654670de0b6b3a76400009081810291818304149015171561393657906139309161363a565b90613759565b634e487b7160e01b885260118a52602488fd5b50683635c9adc5dea0000060165410613748565b925061396983336140d9565b8261373c565b50801515613737565b5050505050506135d0336143d4565b6139969250600301549061365a565b3880613704565b8351630fec21fd60e21b8152600490fd5b8154811015613aaa576139c18183613573565b508360ff6004809301541615613aa057506139df6110858385613573565b90816139f5575b5050908280925b0190916136c4565b909889613a0191613667565b98613a1160056110988587613573565b90556002613a1f8385613573565b5001546003613a2e8486613573565b500154906201518091828102928184041490151715613a8d5791613a56869594928694613667565b421015613a66575b5091926139e6565b613a708285613573565b5001805460ff19169055613a8761111e8285613573565b38613a5e565b634e487b7160e01b895260118352602489fd5b92918391506139ed565b6136c9565b8351634065aaf160e11b8152600490fd5b5060ff6003820154166136af565b6001600160a01b03918216815291166020820152604081019190915260600190565b600060443d10613b4d57604051600319913d83016004833e81516001600160401b03918282113d602484011117613b5057818401948551938411613b58573d85010160208487010111613b505750613b4d92910160200190613466565b90565b949350505050565b50949350505050565b3d15613b8c573d90613b7282613489565b91613b806040519384613466565b82523d6000602084013e565b606090565b916001600160a01b03908184169081158015613e96575b610f51578284168083146132825784846000965b1680151580613e8c575b15613bf25784811461328257600052600e60205284613bec816040600020541697613602565b96613bbc565b506000848152600e60208181526040928390208054969a959950868916989496898b14613e7f576001600160a01b0319168a1790558715159485613d87575b613c46908a600052601183528460002061358f565b866000528181526002956002846000200154906001966001830180931161361157613d07575b8a613ca1575b50505050505050507ff8b9fe4d008320e6f048c61e41e9cc56ce351354ad0cb9a868bd3c4bd6928fd5600080a4565b600090875b613cb1575b50613c72565b861680151580613cfd575b15613cf85780600052848452888660002001613cd9848254613667565b9055600052838352613cf18686600020541691613602565b9087613ca6565b613cab565b50601e8210613cbc565b866000878c835b613d1c575b50505050613c6c565b1680151580613d7d575b15613d765760008181528787528890208b0180548611613d6d57613d4b86825461365a565b90555b600052858552613d648888600020541691613602565b90889083613d0e565b60009055613d4e565b8890613d13565b50601e8210613d26565b989796959493929190876000526011808252836000209a60005b8c5480821015613e685787908b8f84613db9916133c3565b939054600394851b1c1614613dd2575050600101613da1565b60009e9291939495969798999a9b9c9d9e1995868201918211613e545750906135b28a613e02613e1094866133c3565b905490871b1c1691846133c3565b80548015613e3e57613c469489910192613e2a84846133c3565b81939154921b1b19169055555b9050613c31565b634e487b7160e01b600052603160045260246000fd5b634e487b7160e01b60005260045260246000fd5b50509050613c469192939495969798999a50613e37565b5050505050505050505050565b5060328710613bc6565b5082841615613ba8565b6001600160a01b03908116908115613ee95760008051602061537f83398151915280546001600160a01b0319811684179091551660008051602061543f833981519152600080a3565b604051631e4fbdf760e01b815260006004820152602490fd5b60008051602061537f833981519152546001600160a01b03163303613f2357565b60405163118cdaa760e01b8152336004820152602490fd5b620186a0811015613fe157617530811015613fd857612710811015613fcf57610bb8811015613fc6576103e8811015613fbd5761012c811015613fb4576064811015613fab57601e811015613fa257600a1115613f9a57600090600090565b600190600590565b50600290600a90565b50600390600f90565b50600490601490565b50600590601990565b50600690601e90565b50600790602390565b50600890602890565b50600990602d90565b60008051602061547f83398151915260028154146140085760029055565b604051633ee5aeb560e01b8152600490fd5b8015613611576000190190565b60018060a01b0380600092168252600f60205260408220906001820154151591826140c9575b50600e602052604083206005810160ff8154161515841515146140c257805460ff191660ff8515151617905554169182156140bd57600192604092156140a4578152600e60205220016140a08154613602565b9055565b815220018054806140b4575b5050565b6140a09061401a565b505050565b5050505050565b6003015460ff161591503861404d565b81156140b057814710610ce157600080809381935af16140f7613b61565b5015610ccf57565b600381015461410d816151f4565b906201518061412060028501544261365a565b0490808211614172575b50801561416a5761414f633b9aca009161414a6005946001870154613627565b613627565b04910154808211614161575050600090565b613b4d9161365a565b505050600090565b90503861412a565b80518210156133db5760209160051b010190565b805490600090818155826141a157505050565b6001906001600160ff1b0384168403610901578252602082209260011b8301925b8381106141cf5750505050565b8083600292558383820155016141c2565b6000818152601d6020908152604080832054601c83528184208054939695929492936001600160a01b03928316906001600160401b038111612b195786519261422e8a8360051b0185613466565b818452855288852085908a8086015b8484106143a5575050505050835b825181101561438f57808983858a886142818161426a6001998661417a565b51511686614278898761417a565b51015190614a61565b948b866142ca575b5091508b93506142ba867fae629b396150638d6eb6de457cbffe5d618a10c8cc199a94976bed2b16ecd9939461417a565b515116938c51908152a30161424b565b8360008051602061533f83398151915294600492856080966142ec8d8b61417a565b5151168252601f86528282206143038c8254613667565b9055806143108d8b61417a565b51511682528580528282206143268c8254613667565b90556143328c8a61417a565b5151168152604f855220928d61436a8b84519961434e8b61344b565b87548b5260028f89015498868d01998a520154868c015261417a565b515116965193519082519485528401528201528c6060820152a383858a888e8b614289565b50505050906135d09394601c918352522061418e565b6001916002918c516143b681613407565b8a865416815284860154838201528152019201920191908b9061423d565b9060018060a01b039182811690600090828252602091600f8352604091828220916003830190815460ff811615614412575b50505050505050509050565b600160ff1991821681179093556010875285822091998a94859347908590875b61459d575b505088948d948c9d9e948d867f920bb94eb3842a728db98228c375ff6b00c5bc5a54fac6736155517a0a20a61a9f9b97968f8b979088917ff3a670cd3af7d64b488926880889d08a8585a138ff455227af6737339a1ec2629e9a614541575b50505050505085614522575b898352600e8d52838320600581018054938416905554169060ff1680614519575b80614508575b6144ef575b5050519283525087820152a2549051908152a2803880808080808080614406565b815220016144fd815461401a565b9055388381806144ce565b5080825283838320015415156144c9565b508015156144c3565b898352600e8d5260068484200161453a878254613667565b90556144a2565b8481106145615750505061455592506140d9565b8987388f879082614496565b9091926000805160206153bf8339815191529450818061458d575b50508251918c8352820152a2614555565b614596916140d9565b388161457c565b909d8e825411156146615760ff8f6145b760049185613573565b500154161561465657878f6145cc9084613573565b50015480891b9080820460021490151715611151578f61462a908a94938561460661012c6145fe8397600b5490613627565b049387613573565b50015482811061464a579061461e836146249361365a565b90613667565b9b613667565b9f60046146378285613573565b50018881541690555b01919e989e614432565b8b925061462491613667565b979d90878092614640565b9d614437565b6001600160a01b039081166000818152600f60209081526040808320600181810180549697909693959094929184158015614825575b6147d057601084528682208054839291835b8281106147e557505050506147db5760028201966146d1885460145490613667565b4211156147d057600383837f57025f0027038907eda728b59164fb63d06048f42e618a35267e6a12e49b2e469a8a9654998d8352600e895260ff60058985209283541692015416806147c7575b806147b5575b61479b575b508c8252600e88528187812095816004600589019860ff19998a8154169055828982015501558185555555019081541690558461476c575b5051928352820152a2565b8481526012835261477e82822061418e565b848152601b83522080546001600160a01b03191690558338614761565b82526001878320016147ad815461401a565b905538614729565b50808352600188842001541515614724565b5080151561471e565b505050505050505050565b5050505050505050565b60ff60046147f38385613573565b50015416614803575b83016146af565b9361481d8491826148148886613573565b50015490613667565b9490506147fc565b5060ff60038401541661469d565b60018060a01b0381166000818152600e60205260409182822092600f60205280832060ff6005860154161590811561495d575b8115614950575b506149475760048401936003855491019361488a8554809361365a565b8881811161491e575b50508715614913578747106148ec5750906148bd8760008051602061545f83398151915293613667565b84556148c987876140d9565b805187815260026020820152a254905411156148e3575090565b613b4d906143d4565b96929550506000805160206153bf833981519152935080925051908152846020820152a290565b965050505050505090565b819950846000805160206153bf8339815191529187939b82519182526020820152a23880614893565b50509250505090565b600191500154153861486d565b600381015460ff169150614866565b60018060a01b0381166000818152600e60205260409182822092600f60205280832060ff60058601541615908115614a52575b8115614a45575b50614947576004840193600385549101936149c38554809361365a565b88818111614a1c575b50508715614913578747106148ec5750906149f68760008051602061545f83398151915293613667565b8455614a0287876140d9565b805187815260036020820152a254905411156148e3575090565b819950846000805160206153bf8339815191529187939b82519182526020820152a238806149cc565b60019150015415386149a6565b600381015460ff16915061499f565b60018060a01b038116600052600e6020526040600020600f602052604060002060ff6005830154161590811561500b575b8115614ffe575b5061416a578060036004614ab29301549101549061365a565b82818111614fca575b50508115614fc3576001600160a01b0381166000908152600e6020526040902090614ae461521a565b90670de0b6b3a76400008460011c028460011c8104670de0b6b3a7640000148560011c1517156136115782614b189161363a565b936040518181528160011c60208201528160011c60408201528360608201528560808201527fa7e66afc02702ffeb435ee9bacce4988459c7b329bf0dd9f8f551d823d1fece060a0600180821b03851692a28492600094600092614b7b88615307565b15614f7d575b8060011c151580614f74575b614edd575b6000546040516370a0823160e01b81523060048201526001600160a01b0390911696906020816024818b5afa908115614e2f57600091614eab575b5081151580614ea2575b614dbc575b5060029650878260011c118015614db3575b614d6c575b50614c11670de0b6b3a7640000614c0a8587613627565b0488613667565b978815614cf55750508060036004920192614c2d898554613667565b93849055604080518a8152602081018590526001600160a01b0388169160008051602061545f83398151915291a27fe83062c7bae5146a0afc41b3a8342f225ed2581a8e234e0ba69d9ff8c53a48d660405180614c978b60018060a01b038b16958a42928561350e565b0390a201541115614ce7575b60405193614cb08561344b565b845260208401908152604084019185835260018060a01b0316600052604f6020526040600020935184555160018401555191015590565b614cf0826143d4565b614ca3565b915091506040519180835260011c60208301526040820152608060608201526015608082015274139bc81d1bdad95b9cc81d1c985b9cd9995c9c9959605a1b60a08201527fd8349f8ffff882edf1f3a7f209a1d24fb5e821ba347cf8da7f016de352368fd060c060018060a01b03851692a2614ca3565b7f60369b7cd498d613812af36dd7cb398ba493ee0afe0fc21d90a9f8b5fc620aa360405180614daa8860018060a01b038b16958d8860011c8561350e565b0390a238614bf3565b50848111614bee565b945084811115614e9c57845b9485908111614e3b57506020604051809863a9059cbb60e01b825281600081614df58b8d600484016134d6565b03925af1968715614e2f57600297614e10575b505b38614bdc565b614e289060203d602011610c8b57610c7c8183613466565b5038614e08565b6040513d6000823e3d90fd5b9094506002965060405190600082526020820152606060408201526013606082015272129090c81d1c985b9cd9995c8819985a5b1959606a1b60808201526000805160206153ff83398151915260a0600180821b03881692a2600093614e0a565b80614dc8565b50801515614bd7565b90506020813d602011614ed5575b81614ec660209383613466565b810103126113da575138614bcd565b3d9150614eb9565b9550478660011c11600014614f6a5747955b86478111614f075750614f0287866140d9565b614b92565b9096506040519081526000602082015260606040820152601960608201527813985d1a5d99481350c81d1c985b9cd9995c8819985a5b1959603a1b60808201526000805160206153ff83398151915260a0600180821b03871692a2600095614b92565b8560011c95614eef565b50471515614b8d565b601754604051601490910480825296506001600160a01b038616907fa3c9509a6af5ab7ab677b3caa94bb10373473b146705f236c71768d7b6b1a51390602090a2614b81565b5050600090565b60408051918252602082018390529193506001600160a01b038316916000805160206153bf83398151915291a23880614abb565b6001915001541538614a99565b600381015460ff169150614a92565b9081156151c157601654683635c9adc5dea000008082109081156151b5575b506151b057476150498483613667565b116151b057612710830261270f19848204016136115761506c826103e89261363a565b116151b0576017549261508c6150828583613627565b611a518385613667565b801580156151a7575b6151a05760009460018060a01b038654169060409485516370a0823160e01b8152306004820152602081602481875afa908115615196579083918a91615161575b50106151575783889392611ae8876150ed94613667565b601755803b15611be85781906024865180948193630852cd8d60e31b83528760048401525af1801561514d5760008051602061541f83398151915295965061513e575b5082519182526020820152a1565b61514790613438565b38615130565b84513d88823e3d90fd5b5050505050509050565b9150506020813d60201161518e575b8161517d60209383613466565b810103126138e157829051386150d6565b3d9150615170565b87513d8b823e3d90fd5b5050509050565b50848111615095565b509050565b90506017541038615039565b9050565b60ff60008051602061549f8339815191525460401c16156151e257565b604051631afcd79f60e31b8152600490fd5b6007811461521257600f1461520b576301312d0090565b62fe502b90565b5062cb735690565b60175480158015615266575b61525957601654670de0b6b3a76400009081810291818304149015171561361157613b4d916152549161363a565b6152dd565b50670de0b6b3a764000090565b50683635c9adc5dea0000060165410615226565b906152a1575080511561528f57602081519101fd5b60405163d6bda27560e01b8152600490fd5b815115806152d4575b6152b2575090565b604051639996b31560e01b81526001600160a01b039091166004820152602490fd5b50803b156152aa565b67016345785d8a00008082106153025750678ac7230489e80000808211615302575090565b905090565b801561531857601460175404101590565b5060019056fe38f8a0c92f4c5b0b6877f878cb4c0c8d348a47b76d716c8e78f425043df9515b62c4ea4229c396c9b5c33779ec09ed411b29ed8782e48ac358eaa9e8aa58a9b06fcebd0a2ce98b28cb391d6008bbc769378c9a4919628e11639cb575cd320fcc9016d09d72d40fdae2fd8ceac6b6234c7706214fd39c1cd1e609a0528c199300360894a13ba1a3210667c828492db98dca3e2076cc3735a920a3ca505d382bbcb5987aab1afd379f6695f1068869ee8ca6a0d02304c57935a9cc3d3ea2e51e4d520bc217d25ef4588524228dffcfa518f4ad52178c71d49b8061d016213cd311da109f9a8d0129326c2906f581adfd38d938005d44218a2f7c843b9b105af9ba0ec3929061cbbbeecb325623e7d5a86c3dae11cb8a22ca45dc0972955657da258be0079c531659141344cd1fd0a4f28419497f9722a3daafe3b4186f6b6457e0f381583145e90b82cc5e529bf4fc4d0e44397174cdf145c4251ac33ef195a4249b779b17422d0df92223018b32b4d1fa46e071723d6817e2486d003becc55f00f0c57e16840df040f15088dc2f81fe391c3923bec73e23a9662efc9c229c6a00a2646970667358221220f5de4f3f689dbb8517eaf8ff4fb6b6de610bc11be029bc860304ae1132297de064736f6c63430008160033",
  "linkReferences": {},
  "deployedLinkReferences": {}
}