{
  "_format": "hh-sol-artifact-1",
  "contractName": "JinbaoProtocolNative",
  "sourceName": "contracts/JinbaoProtocolNative.sol",
  "abi": [
    {
      "inputs": [],
      "stateMutability": "nonpayable",
      "type": "constructor"
    },
    {
      "inputs": [],
      "name": "ActionTooEarly",
      "type": "error"
    },
    {
      "inputs": [
        {
          "internalType": "address",
          "name": "target",
          "type": "address"
        }
      ],
      "name": "AddressEmptyCode",
      "type": "error"
    },
    {
      "inputs": [],
      "name": "AlreadyBound",
      "type": "error"
    },
    {
      "inputs": [],
      "name": "AlreadyExited",
      "type": "error"
    },
    {
      "inputs": [],
      "name": "BatchUpdateSizeMismatch",
      "type": "error"
    },
    {
      "inputs": [],
      "name": "ContractPaused",
      "type": "error"
    },
    {
      "inputs": [
        {
          "internalType": "address",
          "name": "implementation",
          "type": "address"
        }
      ],
      "name": "ERC1967InvalidImplementation",
      "type": "error"
    },
    {
      "inputs": [],
      "name": "ERC1967NonPayable",
      "type": "error"
    },
    {
      "inputs": [],
      "name": "Expired",
      "type": "error"
    },
    {
      "inputs": [],
      "name": "FailedCall",
      "type": "error"
    },
    {
      "inputs": [],
      "name": "InsufficientBalance",
      "type": "error"
    },
    {
      "inputs": [],
      "name": "InsufficientNativeBalance",
      "type": "error"
    },
    {
      "inputs": [],
      "name": "InvalidAddress",
      "type": "error"
    },
    {
      "inputs": [],
      "name": "InvalidAmount",
      "type": "error"
    },
    {
      "inputs": [],
      "name": "InvalidCycle",
      "type": "error"
    },
    {
      "inputs": [],
      "name": "InvalidFee",
      "type": "error"
    },
    {
      "inputs": [],
      "name": "InvalidInitialization",
      "type": "error"
    },
    {
      "inputs": [],
      "name": "InvalidLevelConfig",
      "type": "error"
    },
    {
      "inputs": [],
      "name": "InvalidRate",
      "type": "error"
    },
    {
      "inputs": [],
      "name": "InvalidTax",
      "type": "error"
    },
    {
      "inputs": [],
      "name": "InvalidTeamCountUpdate",
      "type": "error"
    },
    {
      "inputs": [],
      "name": "LowLiquidity",
      "type": "error"
    },
    {
      "inputs": [],
      "name": "NativeTransferFailed",
      "type": "error"
    },
    {
      "inputs": [],
      "name": "NoRewards",
      "type": "error"
    },
    {
      "inputs": [],
      "name": "NotActive",
      "type": "error"
    },
    {
      "inputs": [],
      "name": "NotInitializing",
      "type": "error"
    },
    {
      "inputs": [],
      "name": "NothingToRedeem",
      "type": "error"
    },
    {
      "inputs": [
        {
          "internalType": "address",
          "name": "owner",
          "type": "address"
        }
      ],
      "name": "OwnableInvalidOwner",
      "type": "error"
    },
    {
      "inputs": [
        {
          "internalType": "address",
          "name": "account",
          "type": "address"
        }
      ],
      "name": "OwnableUnauthorizedAccount",
      "type": "error"
    },
    {
      "inputs": [],
      "name": "RecursionDepthExceeded",
      "type": "error"
    },
    {
      "inputs": [],
      "name": "ReentrancyGuardReentrantCall",
      "type": "error"
    },
    {
      "inputs": [],
      "name": "SelfReference",
      "type": "error"
    },
    {
      "inputs": [],
      "name": "SumNot100",
      "type": "error"
    },
    {
      "inputs": [
        {
          "internalType": "address",
          "name": "user",
          "type": "address"
        },
        {
          "internalType": "uint256",
          "name": "expected",
          "type": "uint256"
        },
        {
          "internalType": "uint256",
          "name": "actual",
          "type": "uint256"
        }
      ],
      "name": "TeamCountMismatch",
      "type": "error"
    },
    {
      "inputs": [],
      "name": "TeamCountOverflow",
      "type": "error"
    },
    {
      "inputs": [],
      "name": "TransferFailed",
      "type": "error"
    },
    {
      "inputs": [
        {
          "internalType": "string",
          "name": "reason",
          "type": "string"
        }
      ],
      "name": "TransferFromFailed",
      "type": "error"
    },
    {
      "inputs": [],
      "name": "TransferFromFailedLowLevel",
      "type": "error"
    },
    {
      "inputs": [],
      "name": "UUPSUnauthorizedCallContext",
      "type": "error"
    },
    {
      "inputs": [
        {
          "internalType": "bytes32",
          "name": "slot",
          "type": "bytes32"
        }
      ],
      "name": "UUPSUnsupportedProxiableUUID",
      "type": "error"
    },
    {
      "inputs": [],
      "name": "Unauthorized",
      "type": "error"
    },
    {
      "anonymous": false,
      "inputs": [
        {
          "indexed": false,
          "internalType": "uint256",
          "name": "usersUpdated",
          "type": "uint256"
        }
      ],
      "name": "BatchTeamCountsUpdated",
      "type": "event"
    },
    {
      "anonymous": false,
      "inputs": [
        {
          "indexed": true,
          "internalType": "address",
          "name": "user",
          "type": "address"
        },
        {
          "indexed": true,
          "internalType": "address",
          "name": "referrer",
          "type": "address"
        }
      ],
      "name": "BoundReferrer",
      "type": "event"
    },
    {
      "anonymous": false,
      "inputs": [
        {
          "indexed": false,
          "internalType": "uint256",
          "name": "mcAmount",
          "type": "uint256"
        },
        {
          "indexed": false,
          "internalType": "uint256",
          "name": "jbcBurned",
          "type": "uint256"
        }
      ],
      "name": "BuybackAndBurn",
      "type": "event"
    },
    {
      "anonymous": false,
      "inputs": [
        {
          "indexed": true,
          "internalType": "address",
          "name": "user",
          "type": "address"
        },
        {
          "indexed": false,
          "internalType": "uint256",
          "name": "totalAmount",
          "type": "uint256"
        },
        {
          "indexed": false,
          "internalType": "uint256",
          "name": "mcPart",
          "type": "uint256"
        },
        {
          "indexed": false,
          "internalType": "uint256",
          "name": "jbcValuePart",
          "type": "uint256"
        },
        {
          "indexed": false,
          "internalType": "uint256",
          "name": "jbcPrice",
          "type": "uint256"
        },
        {
          "indexed": false,
          "internalType": "uint256",
          "name": "jbcAmount",
          "type": "uint256"
        }
      ],
      "name": "DifferentialRewardCalculated",
      "type": "event"
    },
    {
      "anonymous": false,
      "inputs": [
        {
          "indexed": true,
          "internalType": "address",
          "name": "user",
          "type": "address"
        },
        {
          "indexed": false,
          "internalType": "uint256",
          "name": "mcAmount",
          "type": "uint256"
        },
        {
          "indexed": false,
          "internalType": "uint256",
          "name": "jbcAmount",
          "type": "uint256"
        },
        {
          "indexed": false,
          "internalType": "uint256",
          "name": "jbcPrice",
          "type": "uint256"
        },
        {
          "indexed": false,
          "internalType": "uint256",
          "name": "timestamp",
          "type": "uint256"
        }
      ],
      "name": "DifferentialRewardDistributed",
      "type": "event"
    },
    {
      "anonymous": false,
      "inputs": [
        {
          "indexed": true,
          "internalType": "address",
          "name": "user",
          "type": "address"
        },
        {
          "indexed": false,
          "internalType": "uint256",
          "name": "totalAmount",
          "type": "uint256"
        },
        {
          "indexed": false,
          "internalType": "uint256",
          "name": "mcPart",
          "type": "uint256"
        },
        {
          "indexed": false,
          "internalType": "uint256",
          "name": "jbcAmount",
          "type": "uint256"
        },
        {
          "indexed": false,
          "internalType": "string",
          "name": "reason",
          "type": "string"
        }
      ],
      "name": "DifferentialRewardFailed",
      "type": "event"
    },
    {
      "anonymous": false,
      "inputs": [
        {
          "indexed": true,
          "internalType": "uint256",
          "name": "stakeId",
          "type": "uint256"
        },
        {
          "indexed": true,
          "internalType": "address",
          "name": "upline",
          "type": "address"
        },
        {
          "indexed": false,
          "internalType": "uint256",
          "name": "amount",
          "type": "uint256"
        }
      ],
      "name": "DifferentialRewardRecorded",
      "type": "event"
    },
    {
      "anonymous": false,
      "inputs": [
        {
          "indexed": true,
          "internalType": "uint256",
          "name": "stakeId",
          "type": "uint256"
        },
        {
          "indexed": true,
          "internalType": "address",
          "name": "upline",
          "type": "address"
        },
        {
          "indexed": false,
          "internalType": "uint256",
          "name": "amount",
          "type": "uint256"
        }
      ],
      "name": "DifferentialRewardReleased",
      "type": "event"
    },
    {
      "anonymous": false,
      "inputs": [
        {
          "indexed": false,
          "internalType": "uint256",
          "name": "direct",
          "type": "uint256"
        },
        {
          "indexed": false,
          "internalType": "uint256",
          "name": "level",
          "type": "uint256"
        },
        {
          "indexed": false,
          "internalType": "uint256",
          "name": "marketing",
          "type": "uint256"
        },
        {
          "indexed": false,
          "internalType": "uint256",
          "name": "buyback",
          "type": "uint256"
        },
        {
          "indexed": false,
          "internalType": "uint256",
          "name": "lpInjection",
          "type": "uint256"
        },
        {
          "indexed": false,
          "internalType": "uint256",
          "name": "treasury",
          "type": "uint256"
        }
      ],
      "name": "DistributionConfigUpdated",
      "type": "event"
    },
    {
      "anonymous": false,
      "inputs": [],
      "name": "EmergencyPaused",
      "type": "event"
    },
    {
      "anonymous": false,
      "inputs": [],
      "name": "EmergencyUnpaused",
      "type": "event"
    },
    {
      "anonymous": false,
      "inputs": [
        {
          "indexed": true,
          "internalType": "address",
          "name": "user",
          "type": "address"
        },
        {
          "indexed": false,
          "internalType": "uint256",
          "name": "ticketId",
          "type": "uint256"
        }
      ],
      "name": "Exited",
      "type": "event"
    },
    {
      "anonymous": false,
      "inputs": [
        {
          "indexed": true,
          "internalType": "address",
          "name": "user",
          "type": "address"
        },
        {
          "indexed": false,
          "internalType": "uint256",
          "name": "amount",
          "type": "uint256"
        }
      ],
      "name": "FeeRefunded",
      "type": "event"
    },
    {
      "anonymous": false,
      "inputs": [
        {
          "indexed": false,
          "internalType": "uint64",
          "name": "version",
          "type": "uint64"
        }
      ],
      "name": "Initialized",
      "type": "event"
    },
    {
      "anonymous": false,
      "inputs": [],
      "name": "LevelConfigsUpdated",
      "type": "event"
    },
    {
      "anonymous": false,
      "inputs": [
        {
          "indexed": false,
          "internalType": "uint256",
          "name": "amount",
          "type": "uint256"
        },
        {
          "indexed": false,
          "internalType": "uint256",
          "name": "newTotal",
          "type": "uint256"
        }
      ],
      "name": "LevelRewardPoolUpdated",
      "type": "event"
    },
    {
      "anonymous": false,
      "inputs": [
        {
          "indexed": true,
          "internalType": "address",
          "name": "to",
          "type": "address"
        },
        {
          "indexed": false,
          "internalType": "uint256",
          "name": "amount",
          "type": "uint256"
        }
      ],
      "name": "LevelRewardPoolWithdrawn",
      "type": "event"
    },
    {
      "anonymous": false,
      "inputs": [
        {
          "indexed": true,
          "internalType": "uint256",
          "name": "ticketId",
          "type": "uint256"
        },
        {
          "indexed": true,
          "internalType": "address",
          "name": "upline",
          "type": "address"
        },
        {
          "indexed": false,
          "internalType": "uint256",
          "name": "amount",
          "type": "uint256"
        }
      ],
      "name": "LevelRewardRecorded",
      "type": "event"
    },
    {
      "anonymous": false,
      "inputs": [
        {
          "indexed": true,
          "internalType": "uint256",
          "name": "ticketId",
          "type": "uint256"
        },
        {
          "indexed": true,
          "internalType": "address",
          "name": "upline",
          "type": "address"
        },
        {
          "indexed": false,
          "internalType": "uint256",
          "name": "amount",
          "type": "uint256"
        }
      ],
      "name": "LevelRewardReleased",
      "type": "event"
    },
    {
      "anonymous": false,
      "inputs": [
        {
          "indexed": false,
          "internalType": "uint256",
          "name": "mcAmount",
          "type": "uint256"
        },
        {
          "indexed": false,
          "internalType": "uint256",
          "name": "jbcAmount",
          "type": "uint256"
        }
      ],
      "name": "LiquidityAdded",
      "type": "event"
    },
    {
      "anonymous": false,
      "inputs": [
        {
          "indexed": true,
          "internalType": "address",
          "name": "user",
          "type": "address"
        },
        {
          "indexed": false,
          "internalType": "uint256",
          "name": "adjustedJbcAmount",
          "type": "uint256"
        }
      ],
      "name": "LiquidityProtectionTriggered",
      "type": "event"
    },
    {
      "anonymous": false,
      "inputs": [
        {
          "indexed": true,
          "internalType": "address",
          "name": "user",
          "type": "address"
        },
        {
          "indexed": false,
          "internalType": "uint256",
          "name": "amount",
          "type": "uint256"
        },
        {
          "indexed": false,
          "internalType": "uint256",
          "name": "cycleDays",
          "type": "uint256"
        },
        {
          "indexed": false,
          "internalType": "uint256",
          "name": "stakeId",
          "type": "uint256"
        }
      ],
      "name": "LiquidityStaked",
      "type": "event"
    },
    {
      "anonymous": false,
      "inputs": [
        {
          "indexed": false,
          "internalType": "bool",
          "name": "enabled",
          "type": "bool"
        }
      ],
      "name": "LiquidityStatusUpdated",
      "type": "event"
    },
    {
      "anonymous": false,
      "inputs": [
        {
          "indexed": true,
          "internalType": "address",
          "name": "from",
          "type": "address"
        },
        {
          "indexed": false,
          "internalType": "uint256",
          "name": "amount",
          "type": "uint256"
        }
      ],
      "name": "NativeMCReceived",
      "type": "event"
    },
    {
      "anonymous": false,
      "inputs": [
        {
          "indexed": true,
          "internalType": "address",
          "name": "to",
          "type": "address"
        },
        {
          "indexed": false,
          "internalType": "uint256",
          "name": "amount",
          "type": "uint256"
        }
      ],
      "name": "NativeMCWithdrawn",
      "type": "event"
    },
    {
      "anonymous": false,
      "inputs": [
        {
          "indexed": true,
          "internalType": "address",
          "name": "previousOwner",
          "type": "address"
        },
        {
          "indexed": true,
          "internalType": "address",
          "name": "newOwner",
          "type": "address"
        }
      ],
      "name": "OwnershipTransferred",
      "type": "event"
    },
    {
      "anonymous": false,
      "inputs": [
        {
          "indexed": true,
          "internalType": "address",
          "name": "user",
          "type": "address"
        },
        {
          "indexed": false,
          "internalType": "uint256",
          "name": "mcRequested",
          "type": "uint256"
        },
        {
          "indexed": false,
          "internalType": "uint256",
          "name": "mcTransferred",
          "type": "uint256"
        },
        {
          "indexed": false,
          "internalType": "uint256",
          "name": "jbcRequested",
          "type": "uint256"
        },
        {
          "indexed": false,
          "internalType": "uint256",
          "name": "jbcTransferred",
          "type": "uint256"
        }
      ],
      "name": "PartialRewardTransfer",
      "type": "event"
    },
    {
      "anonymous": false,
      "inputs": [
        {
          "indexed": false,
          "internalType": "bool",
          "name": "enabled",
          "type": "bool"
        }
      ],
      "name": "RedeemStatusUpdated",
      "type": "event"
    },
    {
      "anonymous": false,
      "inputs": [
        {
          "indexed": true,
          "internalType": "address",
          "name": "user",
          "type": "address"
        },
        {
          "indexed": false,
          "internalType": "uint256",
          "name": "principal",
          "type": "uint256"
        },
        {
          "indexed": false,
          "internalType": "uint256",
          "name": "fee",
          "type": "uint256"
        }
      ],
      "name": "Redeemed",
      "type": "event"
    },
    {
      "anonymous": false,
      "inputs": [
        {
          "indexed": false,
          "internalType": "uint256",
          "name": "newFee",
          "type": "uint256"
        }
      ],
      "name": "RedemptionFeeUpdated",
      "type": "event"
    },
    {
      "anonymous": false,
      "inputs": [
        {
          "indexed": true,
          "internalType": "address",
          "name": "user",
          "type": "address"
        },
        {
          "indexed": true,
          "internalType": "address",
          "name": "from",
          "type": "address"
        },
        {
          "indexed": false,
          "internalType": "uint256",
          "name": "mcAmount",
          "type": "uint256"
        },
        {
          "indexed": false,
          "internalType": "uint256",
          "name": "jbcAmount",
          "type": "uint256"
        },
        {
          "indexed": false,
          "internalType": "uint8",
          "name": "rewardType",
          "type": "uint8"
        },
        {
          "indexed": false,
          "internalType": "uint256",
          "name": "ticketId",
          "type": "uint256"
        }
      ],
      "name": "ReferralRewardPaid",
      "type": "event"
    },
    {
      "anonymous": false,
      "inputs": [
        {
          "indexed": true,
          "internalType": "address",
          "name": "user",
          "type": "address"
        },
        {
          "indexed": true,
          "internalType": "address",
          "name": "oldReferrer",
          "type": "address"
        },
        {
          "indexed": true,
          "internalType": "address",
          "name": "newReferrer",
          "type": "address"
        }
      ],
      "name": "ReferrerChanged",
      "type": "event"
    },
    {
      "anonymous": false,
      "inputs": [
        {
          "indexed": true,
          "internalType": "address",
          "name": "user",
          "type": "address"
        },
        {
          "indexed": false,
          "internalType": "uint256",
          "name": "amount",
          "type": "uint256"
        },
        {
          "indexed": false,
          "internalType": "uint256",
          "name": "cappedAmount",
          "type": "uint256"
        }
      ],
      "name": "RewardCapped",
      "type": "event"
    },
    {
      "anonymous": false,
      "inputs": [
        {
          "indexed": true,
          "internalType": "address",
          "name": "user",
          "type": "address"
        },
        {
          "indexed": false,
          "internalType": "uint256",
          "name": "mcAmount",
          "type": "uint256"
        },
        {
          "indexed": false,
          "internalType": "uint256",
          "name": "jbcAmount",
          "type": "uint256"
        },
        {
          "indexed": false,
          "internalType": "uint8",
          "name": "rewardType",
          "type": "uint8"
        },
        {
          "indexed": false,
          "internalType": "uint256",
          "name": "ticketId",
          "type": "uint256"
        }
      ],
      "name": "RewardClaimed",
      "type": "event"
    },
    {
      "anonymous": false,
      "inputs": [
        {
          "indexed": true,
          "internalType": "address",
          "name": "user",
          "type": "address"
        },
        {
          "indexed": false,
          "internalType": "uint256",
          "name": "amount",
          "type": "uint256"
        },
        {
          "indexed": false,
          "internalType": "uint8",
          "name": "rewardType",
          "type": "uint8"
        }
      ],
      "name": "RewardPaid",
      "type": "event"
    },
    {
      "anonymous": false,
      "inputs": [
        {
          "indexed": true,
          "internalType": "address",
          "name": "user",
          "type": "address"
        },
        {
          "indexed": false,
          "internalType": "uint256",
          "name": "mcAmount",
          "type": "uint256"
        },
        {
          "indexed": false,
          "internalType": "uint256",
          "name": "jbcAmount",
          "type": "uint256"
        },
        {
          "indexed": false,
          "internalType": "string",
          "name": "reason",
          "type": "string"
        }
      ],
      "name": "RewardTransferFailed",
      "type": "event"
    },
    {
      "anonymous": false,
      "inputs": [
        {
          "indexed": false,
          "internalType": "uint256",
          "name": "mcAmount",
          "type": "uint256"
        },
        {
          "indexed": false,
          "internalType": "uint256",
          "name": "jbcAmount",
          "type": "uint256"
        }
      ],
      "name": "SwapReservesWithdrawn",
      "type": "event"
    },
    {
      "anonymous": false,
      "inputs": [
        {
          "indexed": false,
          "internalType": "uint256",
          "name": "buyTax",
          "type": "uint256"
        },
        {
          "indexed": false,
          "internalType": "uint256",
          "name": "sellTax",
          "type": "uint256"
        }
      ],
      "name": "SwapTaxesUpdated",
      "type": "event"
    },
    {
      "anonymous": false,
      "inputs": [
        {
          "indexed": true,
          "internalType": "address",
          "name": "user",
          "type": "address"
        },
        {
          "indexed": false,
          "internalType": "uint256",
          "name": "jbcAmount",
          "type": "uint256"
        },
        {
          "indexed": false,
          "internalType": "uint256",
          "name": "mcAmount",
          "type": "uint256"
        },
        {
          "indexed": false,
          "internalType": "uint256",
          "name": "tax",
          "type": "uint256"
        }
      ],
      "name": "SwappedJBCToMC",
      "type": "event"
    },
    {
      "anonymous": false,
      "inputs": [
        {
          "indexed": true,
          "internalType": "address",
          "name": "user",
          "type": "address"
        },
        {
          "indexed": false,
          "internalType": "uint256",
          "name": "mcAmount",
          "type": "uint256"
        },
        {
          "indexed": false,
          "internalType": "uint256",
          "name": "jbcAmount",
          "type": "uint256"
        },
        {
          "indexed": false,
          "internalType": "uint256",
          "name": "tax",
          "type": "uint256"
        }
      ],
      "name": "SwappedMCToJBC",
      "type": "event"
    },
    {
      "anonymous": false,
      "inputs": [
        {
          "indexed": true,
          "internalType": "uint256",
          "name": "stakeId",
          "type": "uint256"
        },
        {
          "indexed": true,
          "internalType": "address",
          "name": "upline",
          "type": "address"
        },
        {
          "indexed": false,
          "internalType": "uint256",
          "name": "amount",
          "type": "uint256"
        },
        {
          "indexed": false,
          "internalType": "uint256",
          "name": "teamCount",
          "type": "uint256"
        }
      ],
      "name": "TeamBasedRewardCalculated",
      "type": "event"
    },
    {
      "anonymous": false,
      "inputs": [
        {
          "indexed": true,
          "internalType": "address",
          "name": "user",
          "type": "address"
        },
        {
          "indexed": false,
          "internalType": "uint256",
          "name": "oldCount",
          "type": "uint256"
        },
        {
          "indexed": false,
          "internalType": "uint256",
          "name": "newCount",
          "type": "uint256"
        }
      ],
      "name": "TeamCountUpdated",
      "type": "event"
    },
    {
      "anonymous": false,
      "inputs": [
        {
          "indexed": true,
          "internalType": "address",
          "name": "user",
          "type": "address"
        },
        {
          "indexed": false,
          "internalType": "uint256",
          "name": "expected",
          "type": "uint256"
        },
        {
          "indexed": false,
          "internalType": "uint256",
          "name": "actual",
          "type": "uint256"
        }
      ],
      "name": "TeamCountValidationFailed",
      "type": "event"
    },
    {
      "anonymous": false,
      "inputs": [
        {
          "indexed": true,
          "internalType": "address",
          "name": "user",
          "type": "address"
        },
        {
          "indexed": false,
          "internalType": "uint256",
          "name": "ticketId",
          "type": "uint256"
        },
        {
          "indexed": false,
          "internalType": "uint256",
          "name": "amount",
          "type": "uint256"
        }
      ],
      "name": "TicketExpired",
      "type": "event"
    },
    {
      "anonymous": false,
      "inputs": [
        {
          "indexed": false,
          "internalType": "uint256",
          "name": "newDuration",
          "type": "uint256"
        }
      ],
      "name": "TicketFlexibilityDurationUpdated",
      "type": "event"
    },
    {
      "anonymous": false,
      "inputs": [
        {
          "indexed": true,
          "internalType": "address",
          "name": "user",
          "type": "address"
        },
        {
          "indexed": false,
          "internalType": "uint256",
          "name": "amount",
          "type": "uint256"
        },
        {
          "indexed": false,
          "internalType": "uint256",
          "name": "ticketId",
          "type": "uint256"
        }
      ],
      "name": "TicketPurchased",
      "type": "event"
    },
    {
      "anonymous": false,
      "inputs": [
        {
          "indexed": false,
          "internalType": "address",
          "name": "token",
          "type": "address"
        },
        {
          "indexed": false,
          "internalType": "address",
          "name": "to",
          "type": "address"
        },
        {
          "indexed": false,
          "internalType": "uint256",
          "name": "amount",
          "type": "uint256"
        }
      ],
      "name": "TokensRescued",
      "type": "event"
    },
    {
      "anonymous": false,
      "inputs": [
        {
          "indexed": true,
          "internalType": "address",
          "name": "implementation",
          "type": "address"
        }
      ],
      "name": "Upgraded",
      "type": "event"
    },
    {
      "anonymous": false,
      "inputs": [
        {
          "indexed": true,
          "internalType": "address",
          "name": "user",
          "type": "address"
        },
        {
          "indexed": false,
          "internalType": "uint8",
          "name": "field",
          "type": "uint8"
        },
        {
          "indexed": false,
          "internalType": "uint256",
          "name": "value",
          "type": "uint256"
        }
      ],
      "name": "UserDataFieldUpdated",
      "type": "event"
    },
    {
      "anonymous": false,
      "inputs": [
        {
          "indexed": true,
          "internalType": "address",
          "name": "user",
          "type": "address"
        },
        {
          "indexed": false,
          "internalType": "uint256",
          "name": "oldLevel",
          "type": "uint256"
        },
        {
          "indexed": false,
          "internalType": "uint256",
          "name": "newLevel",
          "type": "uint256"
        },
        {
          "indexed": false,
          "internalType": "uint256",
          "name": "teamCount",
          "type": "uint256"
        }
      ],
      "name": "UserLevelChanged",
      "type": "event"
    },
    {
      "anonymous": false,
      "inputs": [
        {
          "indexed": false,
          "internalType": "address",
          "name": "marketing",
          "type": "address"
        },
        {
          "indexed": false,
          "internalType": "address",
          "name": "treasury",
          "type": "address"
        },
        {
          "indexed": false,
          "internalType": "address",
          "name": "lpInjection",
          "type": "address"
        },
        {
          "indexed": false,
          "internalType": "address",
          "name": "buyback",
          "type": "address"
        }
      ],
      "name": "WalletsUpdated",
      "type": "event"
    },
    {
      "inputs": [],
      "name": "MAX_PRICE_IMPACT",
      "outputs": [
        {
          "internalType": "uint256",
          "name": "",
          "type": "uint256"
        }
      ],
      "stateMutability": "view",
      "type": "function"
    },
    {
      "inputs": [],
      "name": "MIN_LIQUIDITY",
      "outputs": [
        {
          "internalType": "uint256",
          "name": "",
          "type": "uint256"
        }
      ],
      "stateMutability": "view",
      "type": "function"
    },
    {
      "inputs": [],
      "name": "REWARD_DIFFERENTIAL",
      "outputs": [
        {
          "internalType": "uint8",
          "name": "",
          "type": "uint8"
        }
      ],
      "stateMutability": "view",
      "type": "function"
    },
    {
      "inputs": [],
      "name": "REWARD_DIRECT",
      "outputs": [
        {
          "internalType": "uint8",
          "name": "",
          "type": "uint8"
        }
      ],
      "stateMutability": "view",
      "type": "function"
    },
    {
      "inputs": [],
      "name": "REWARD_DYNAMIC",
      "outputs": [
        {
          "internalType": "uint8",
          "name": "",
          "type": "uint8"
        }
      ],
      "stateMutability": "view",
      "type": "function"
    },
    {
      "inputs": [],
      "name": "REWARD_LEVEL",
      "outputs": [
        {
          "internalType": "uint8",
          "name": "",
          "type": "uint8"
        }
      ],
      "stateMutability": "view",
      "type": "function"
    },
    {
      "inputs": [],
      "name": "REWARD_STATIC",
      "outputs": [
        {
          "internalType": "uint8",
          "name": "",
          "type": "uint8"
        }
      ],
      "stateMutability": "view",
      "type": "function"
    },
    {
      "inputs": [],
      "name": "SECONDS_IN_UNIT",
      "outputs": [
        {
          "internalType": "uint256",
          "name": "",
          "type": "uint256"
        }
      ],
      "stateMutability": "view",
      "type": "function"
    },
    {
      "inputs": [],
      "name": "UPGRADE_INTERFACE_VERSION",
      "outputs": [
        {
          "internalType": "string",
          "name": "",
          "type": "string"
        }
      ],
      "stateMutability": "view",
      "type": "function"
    },
    {
      "inputs": [
        {
          "internalType": "uint256",
          "name": "jbcAmount",
          "type": "uint256"
        }
      ],
      "name": "addLiquidity",
      "outputs": [],
      "stateMutability": "payable",
      "type": "function"
    },
    {
      "inputs": [
        {
          "internalType": "address",
          "name": "user",
          "type": "address"
        },
        {
          "internalType": "address",
          "name": "newReferrer",
          "type": "address"
        }
      ],
      "name": "adminSetReferrer",
      "outputs": [],
      "stateMutability": "nonpayable",
      "type": "function"
    },
    {
      "inputs": [
        {
          "internalType": "address",
          "name": "_referrer",
          "type": "address"
        }
      ],
      "name": "bindReferrer",
      "outputs": [],
      "stateMutability": "nonpayable",
      "type": "function"
    },
    {
      "inputs": [],
      "name": "buyTicket",
      "outputs": [],
      "stateMutability": "payable",
      "type": "function"
    },
    {
      "inputs": [],
      "name": "buybackPercent",
      "outputs": [
        {
          "internalType": "uint256",
          "name": "",
          "type": "uint256"
        }
      ],
      "stateMutability": "view",
      "type": "function"
    },
    {
      "inputs": [],
      "name": "buybackWallet",
      "outputs": [
        {
          "internalType": "address",
          "name": "",
          "type": "address"
        }
      ],
      "stateMutability": "view",
      "type": "function"
    },
    {
      "inputs": [
        {
          "internalType": "uint256",
          "name": "teamCount",
          "type": "uint256"
        }
      ],
      "name": "calculateLevel",
      "outputs": [
        {
          "internalType": "uint256",
          "name": "level",
          "type": "uint256"
        },
        {
          "internalType": "uint256",
          "name": "percent",
          "type": "uint256"
        }
      ],
      "stateMutability": "pure",
      "type": "function"
    },
    {
      "inputs": [],
      "name": "claimRewards",
      "outputs": [],
      "stateMutability": "nonpayable",
      "type": "function"
    },
    {
      "inputs": [],
      "name": "dailyBurn",
      "outputs": [],
      "stateMutability": "nonpayable",
      "type": "function"
    },
    {
      "inputs": [
        {
          "internalType": "address",
          "name": "",
          "type": "address"
        },
        {
          "internalType": "uint256",
          "name": "",
          "type": "uint256"
        }
      ],
      "name": "directReferrals",
      "outputs": [
        {
          "internalType": "address",
          "name": "",
          "type": "address"
        }
      ],
      "stateMutability": "view",
      "type": "function"
    },
    {
      "inputs": [],
      "name": "directRewardPercent",
      "outputs": [
        {
          "internalType": "uint256",
          "name": "",
          "type": "uint256"
        }
      ],
      "stateMutability": "view",
      "type": "function"
    },
    {
      "inputs": [],
      "name": "emergencyPause",
      "outputs": [],
      "stateMutability": "nonpayable",
      "type": "function"
    },
    {
      "inputs": [],
      "name": "emergencyPaused",
      "outputs": [
        {
          "internalType": "bool",
          "name": "",
          "type": "bool"
        }
      ],
      "stateMutability": "view",
      "type": "function"
    },
    {
      "inputs": [],
      "name": "emergencyUnpause",
      "outputs": [],
      "stateMutability": "nonpayable",
      "type": "function"
    },
    {
      "inputs": [
        {
          "internalType": "address",
          "name": "_to",
          "type": "address"
        },
        {
          "internalType": "uint256",
          "name": "_amount",
          "type": "uint256"
        }
      ],
      "name": "emergencyWithdrawNative",
      "outputs": [],
      "stateMutability": "nonpayable",
      "type": "function"
    },
    {
      "inputs": [
        {
          "internalType": "address",
          "name": "user",
          "type": "address"
        }
      ],
      "name": "getDirectReferrals",
      "outputs": [
        {
          "internalType": "address[]",
          "name": "",
          "type": "address[]"
        }
      ],
      "stateMutability": "view",
      "type": "function"
    },
    {
      "inputs": [
        {
          "internalType": "uint256",
          "name": "activeDirects",
          "type": "uint256"
        }
      ],
      "name": "getLevelRewardLayers",
      "outputs": [
        {
          "internalType": "uint256",
          "name": "",
          "type": "uint256"
        }
      ],
      "stateMutability": "pure",
      "type": "function"
    },
    {
      "inputs": [
        {
          "internalType": "address",
          "name": "user",
          "type": "address"
        }
      ],
      "name": "getUserLevel",
      "outputs": [
        {
          "internalType": "uint256",
          "name": "level",
          "type": "uint256"
        },
        {
          "internalType": "uint256",
          "name": "percent",
          "type": "uint256"
        },
        {
          "internalType": "uint256",
          "name": "teamCount",
          "type": "uint256"
        }
      ],
      "stateMutability": "view",
      "type": "function"
    },
    {
      "inputs": [
        {
          "internalType": "address",
          "name": "_jbcToken",
          "type": "address"
        },
        {
          "internalType": "address",
          "name": "_marketing",
          "type": "address"
        },
        {
          "internalType": "address",
          "name": "_treasury",
          "type": "address"
        },
        {
          "internalType": "address",
          "name": "_lpInjection",
          "type": "address"
        },
        {
          "internalType": "address",
          "name": "_buybackWallet",
          "type": "address"
        }
      ],
      "name": "initialize",
      "outputs": [],
      "stateMutability": "nonpayable",
      "type": "function"
    },
    {
      "inputs": [],
      "name": "jbcToken",
      "outputs": [
        {
          "internalType": "contract IJBC",
          "name": "",
          "type": "address"
        }
      ],
      "stateMutability": "view",
      "type": "function"
    },
    {
      "inputs": [],
      "name": "lastBurnTime",
      "outputs": [
        {
          "internalType": "uint256",
          "name": "",
          "type": "uint256"
        }
      ],
      "stateMutability": "view",
      "type": "function"
    },
    {
      "inputs": [
        {
          "internalType": "uint256",
          "name": "",
          "type": "uint256"
        }
      ],
      "name": "levelConfigs",
      "outputs": [
        {
          "internalType": "uint256",
          "name": "minDirects",
          "type": "uint256"
        },
        {
          "internalType": "uint256",
          "name": "level",
          "type": "uint256"
        },
        {
          "internalType": "uint256",
          "name": "percent",
          "type": "uint256"
        }
      ],
      "stateMutability": "view",
      "type": "function"
    },
    {
      "inputs": [],
      "name": "levelRewardPercent",
      "outputs": [
        {
          "internalType": "uint256",
          "name": "",
          "type": "uint256"
        }
      ],
      "stateMutability": "view",
      "type": "function"
    },
    {
      "inputs": [],
      "name": "levelRewardPool",
      "outputs": [
        {
          "internalType": "uint256",
          "name": "",
          "type": "uint256"
        }
      ],
      "stateMutability": "view",
      "type": "function"
    },
    {
      "inputs": [],
      "name": "liquidityEnabled",
      "outputs": [
        {
          "internalType": "bool",
          "name": "",
          "type": "bool"
        }
      ],
      "stateMutability": "view",
      "type": "function"
    },
    {
      "inputs": [],
      "name": "lpInjectionPercent",
      "outputs": [
        {
          "internalType": "uint256",
          "name": "",
          "type": "uint256"
        }
      ],
      "stateMutability": "view",
      "type": "function"
    },
    {
      "inputs": [],
      "name": "lpInjectionWallet",
      "outputs": [
        {
          "internalType": "address",
          "name": "",
          "type": "address"
        }
      ],
      "stateMutability": "view",
      "type": "function"
    },
    {
      "inputs": [],
      "name": "marketingPercent",
      "outputs": [
        {
          "internalType": "uint256",
          "name": "",
          "type": "uint256"
        }
      ],
      "stateMutability": "view",
      "type": "function"
    },
    {
      "inputs": [],
      "name": "marketingWallet",
      "outputs": [
        {
          "internalType": "address",
          "name": "",
          "type": "address"
        }
      ],
      "stateMutability": "view",
      "type": "function"
    },
    {
      "inputs": [],
      "name": "nextStakeId",
      "outputs": [
        {
          "internalType": "uint256",
          "name": "",
          "type": "uint256"
        }
      ],
      "stateMutability": "view",
      "type": "function"
    },
    {
      "inputs": [],
      "name": "nextTicketId",
      "outputs": [
        {
          "internalType": "uint256",
          "name": "",
          "type": "uint256"
        }
      ],
      "stateMutability": "view",
      "type": "function"
    },
    {
      "inputs": [],
      "name": "owner",
      "outputs": [
        {
          "internalType": "address",
          "name": "",
          "type": "address"
        }
      ],
      "stateMutability": "view",
      "type": "function"
    },
    {
      "inputs": [],
      "name": "priceOracle",
      "outputs": [
        {
          "internalType": "address",
          "name": "",
          "type": "address"
        }
      ],
      "stateMutability": "view",
      "type": "function"
    },
    {
      "inputs": [],
      "name": "proxiableUUID",
      "outputs": [
        {
          "internalType": "bytes32",
          "name": "",
          "type": "bytes32"
        }
      ],
      "stateMutability": "view",
      "type": "function"
    },
    {
      "inputs": [],
      "name": "redeem",
      "outputs": [],
      "stateMutability": "nonpayable",
      "type": "function"
    },
    {
      "inputs": [],
      "name": "redeemEnabled",
      "outputs": [
        {
          "internalType": "bool",
          "name": "",
          "type": "bool"
        }
      ],
      "stateMutability": "view",
      "type": "function"
    },
    {
      "inputs": [],
      "name": "redemptionFeePercent",
      "outputs": [
        {
          "internalType": "uint256",
          "name": "",
          "type": "uint256"
        }
      ],
      "stateMutability": "view",
      "type": "function"
    },
    {
      "inputs": [],
      "name": "renounceOwnership",
      "outputs": [],
      "stateMutability": "nonpayable",
      "type": "function"
    },
    {
      "inputs": [
        {
          "internalType": "address",
          "name": "_token",
          "type": "address"
        },
        {
          "internalType": "address",
          "name": "_to",
          "type": "address"
        },
        {
          "internalType": "uint256",
          "name": "_amount",
          "type": "uint256"
        }
      ],
      "name": "rescueTokens",
      "outputs": [],
      "stateMutability": "nonpayable",
      "type": "function"
    },
    {
      "inputs": [
        {
          "internalType": "uint256",
          "name": "_direct",
          "type": "uint256"
        },
        {
          "internalType": "uint256",
          "name": "_level",
          "type": "uint256"
        },
        {
          "internalType": "uint256",
          "name": "_marketing",
          "type": "uint256"
        },
        {
          "internalType": "uint256",
          "name": "_buyback",
          "type": "uint256"
        },
        {
          "internalType": "uint256",
          "name": "_lpInjection",
          "type": "uint256"
        },
        {
          "internalType": "uint256",
          "name": "_treasury",
          "type": "uint256"
        }
      ],
      "name": "setDistributionConfig",
      "outputs": [],
      "stateMutability": "nonpayable",
      "type": "function"
    },
    {
      "inputs": [
        {
          "internalType": "bool",
          "name": "_liquidityEnabled",
          "type": "bool"
        },
        {
          "internalType": "bool",
          "name": "_redeemEnabled",
          "type": "bool"
        }
      ],
      "name": "setOperationalStatus",
      "outputs": [],
      "stateMutability": "nonpayable",
      "type": "function"
    },
    {
      "inputs": [
        {
          "internalType": "uint256",
          "name": "_fee",
          "type": "uint256"
        }
      ],
      "name": "setRedemptionFeePercent",
      "outputs": [],
      "stateMutability": "nonpayable",
      "type": "function"
    },
    {
      "inputs": [
        {
          "internalType": "uint256",
          "name": "_buyTax",
          "type": "uint256"
        },
        {
          "internalType": "uint256",
          "name": "_sellTax",
          "type": "uint256"
        }
      ],
      "name": "setSwapTaxes",
      "outputs": [],
      "stateMutability": "nonpayable",
      "type": "function"
    },
    {
      "inputs": [
        {
          "internalType": "uint256",
          "name": "_duration",
          "type": "uint256"
        }
      ],
      "name": "setTicketFlexibilityDuration",
      "outputs": [],
      "stateMutability": "nonpayable",
      "type": "function"
    },
    {
      "inputs": [
        {
          "internalType": "address",
          "name": "_marketing",
          "type": "address"
        },
        {
          "internalType": "address",
          "name": "_treasury",
          "type": "address"
        },
        {
          "internalType": "address",
          "name": "_lpInjection",
          "type": "address"
        },
        {
          "internalType": "address",
          "name": "_buyback",
          "type": "address"
        }
      ],
      "name": "setWallets",
      "outputs": [],
      "stateMutability": "nonpayable",
      "type": "function"
    },
    {
      "inputs": [
        {
          "internalType": "uint256",
          "name": "cycleDays",
          "type": "uint256"
        }
      ],
      "name": "stakeLiquidity",
      "outputs": [],
      "stateMutability": "payable",
      "type": "function"
    },
    {
      "inputs": [
        {
          "internalType": "uint256",
          "name": "",
          "type": "uint256"
        }
      ],
      "name": "stakeOwner",
      "outputs": [
        {
          "internalType": "address",
          "name": "",
          "type": "address"
        }
      ],
      "stateMutability": "view",
      "type": "function"
    },
    {
      "inputs": [
        {
          "internalType": "uint256",
          "name": "",
          "type": "uint256"
        },
        {
          "internalType": "uint256",
          "name": "",
          "type": "uint256"
        }
      ],
      "name": "stakePendingRewards",
      "outputs": [
        {
          "internalType": "address",
          "name": "upline",
          "type": "address"
        },
        {
          "internalType": "uint256",
          "name": "amount",
          "type": "uint256"
        }
      ],
      "stateMutability": "view",
      "type": "function"
    },
    {
      "inputs": [],
      "name": "swapBuyTax",
      "outputs": [
        {
          "internalType": "uint256",
          "name": "",
          "type": "uint256"
        }
      ],
      "stateMutability": "view",
      "type": "function"
    },
    {
      "inputs": [
        {
          "internalType": "uint256",
          "name": "jbcAmount",
          "type": "uint256"
        }
      ],
      "name": "swapJBCToMC",
      "outputs": [],
      "stateMutability": "nonpayable",
      "type": "function"
    },
    {
      "inputs": [],
      "name": "swapMCToJBC",
      "outputs": [],
      "stateMutability": "payable",
      "type": "function"
    },
    {
      "inputs": [],
      "name": "swapReserveJBC",
      "outputs": [
        {
          "internalType": "uint256",
          "name": "",
          "type": "uint256"
        }
      ],
      "stateMutability": "view",
      "type": "function"
    },
    {
      "inputs": [],
      "name": "swapReserveMC",
      "outputs": [
        {
          "internalType": "uint256",
          "name": "",
          "type": "uint256"
        }
      ],
      "stateMutability": "view",
      "type": "function"
    },
    {
      "inputs": [],
      "name": "swapSellTax",
      "outputs": [
        {
          "internalType": "uint256",
          "name": "",
          "type": "uint256"
        }
      ],
      "stateMutability": "view",
      "type": "function"
    },
    {
      "inputs": [],
      "name": "ticketFlexibilityDuration",
      "outputs": [
        {
          "internalType": "uint256",
          "name": "",
          "type": "uint256"
        }
      ],
      "stateMutability": "view",
      "type": "function"
    },
    {
      "inputs": [
        {
          "internalType": "uint256",
          "name": "",
          "type": "uint256"
        }
      ],
      "name": "ticketOwner",
      "outputs": [
        {
          "internalType": "address",
          "name": "",
          "type": "address"
        }
      ],
      "stateMutability": "view",
      "type": "function"
    },
    {
      "inputs": [
        {
          "internalType": "uint256",
          "name": "",
          "type": "uint256"
        },
        {
          "internalType": "uint256",
          "name": "",
          "type": "uint256"
        }
      ],
      "name": "ticketPendingRewards",
      "outputs": [
        {
          "internalType": "address",
          "name": "upline",
          "type": "address"
        },
        {
          "internalType": "uint256",
          "name": "amount",
          "type": "uint256"
        }
      ],
      "stateMutability": "view",
      "type": "function"
    },
    {
      "inputs": [
        {
          "internalType": "address",
          "name": "newOwner",
          "type": "address"
        }
      ],
      "name": "transferOwnership",
      "outputs": [],
      "stateMutability": "nonpayable",
      "type": "function"
    },
    {
      "inputs": [],
      "name": "treasuryPercent",
      "outputs": [
        {
          "internalType": "uint256",
          "name": "",
          "type": "uint256"
        }
      ],
      "stateMutability": "view",
      "type": "function"
    },
    {
      "inputs": [],
      "name": "treasuryWallet",
      "outputs": [
        {
          "internalType": "address",
          "name": "",
          "type": "address"
        }
      ],
      "stateMutability": "view",
      "type": "function"
    },
    {
      "inputs": [
        {
          "internalType": "address",
          "name": "newImplementation",
          "type": "address"
        },
        {
          "internalType": "bytes",
          "name": "data",
          "type": "bytes"
        }
      ],
      "name": "upgradeToAndCall",
      "outputs": [],
      "stateMutability": "payable",
      "type": "function"
    },
    {
      "inputs": [
        {
          "internalType": "address",
          "name": "",
          "type": "address"
        }
      ],
      "name": "userInfo",
      "outputs": [
        {
          "internalType": "address",
          "name": "referrer",
          "type": "address"
        },
        {
          "internalType": "uint256",
          "name": "activeDirects",
          "type": "uint256"
        },
        {
          "internalType": "uint256",
          "name": "teamCount",
          "type": "uint256"
        },
        {
          "internalType": "uint256",
          "name": "totalRevenue",
          "type": "uint256"
        },
        {
          "internalType": "uint256",
          "name": "currentCap",
          "type": "uint256"
        },
        {
          "internalType": "bool",
          "name": "isActive",
          "type": "bool"
        },
        {
          "internalType": "uint256",
          "name": "refundFeeAmount",
          "type": "uint256"
        },
        {
          "internalType": "uint256",
          "name": "teamTotalVolume",
          "type": "uint256"
        },
        {
          "internalType": "uint256",
          "name": "teamTotalCap",
          "type": "uint256"
        },
        {
          "internalType": "uint256",
          "name": "maxTicketAmount",
          "type": "uint256"
        },
        {
          "internalType": "uint256",
          "name": "maxSingleTicketAmount",
          "type": "uint256"
        }
      ],
      "stateMutability": "view",
      "type": "function"
    },
    {
      "inputs": [
        {
          "internalType": "address",
          "name": "",
          "type": "address"
        },
        {
          "internalType": "uint256",
          "name": "",
          "type": "uint256"
        }
      ],
      "name": "userStakes",
      "outputs": [
        {
          "internalType": "uint256",
          "name": "id",
          "type": "uint256"
        },
        {
          "internalType": "uint256",
          "name": "amount",
          "type": "uint256"
        },
        {
          "internalType": "uint256",
          "name": "startTime",
          "type": "uint256"
        },
        {
          "internalType": "uint256",
          "name": "cycleDays",
          "type": "uint256"
        },
        {
          "internalType": "bool",
          "name": "active",
          "type": "bool"
        },
        {
          "internalType": "uint256",
          "name": "paid",
          "type": "uint256"
        }
      ],
      "stateMutability": "view",
      "type": "function"
    },
    {
      "inputs": [
        {
          "internalType": "address",
          "name": "",
          "type": "address"
        }
      ],
      "name": "userTicket",
      "outputs": [
        {
          "internalType": "uint256",
          "name": "ticketId",
          "type": "uint256"
        },
        {
          "internalType": "uint256",
          "name": "amount",
          "type": "uint256"
        },
        {
          "internalType": "uint256",
          "name": "purchaseTime",
          "type": "uint256"
        },
        {
          "internalType": "bool",
          "name": "exited",
          "type": "bool"
        }
      ],
      "stateMutability": "view",
      "type": "function"
    },
    {
      "inputs": [
        {
          "internalType": "address",
          "name": "_to",
          "type": "address"
        },
        {
          "internalType": "uint256",
          "name": "_amount",
          "type": "uint256"
        }
      ],
      "name": "withdrawLevelRewardPool",
      "outputs": [],
      "stateMutability": "nonpayable",
      "type": "function"
    },
    {
      "inputs": [
        {
          "internalType": "address",
          "name": "_toMC",
          "type": "address"
        },
        {
          "internalType": "uint256",
          "name": "_amountMC",
          "type": "uint256"
        },
        {
          "internalType": "address",
          "name": "_toJBC",
          "type": "address"
        },
        {
          "internalType": "uint256",
          "name": "_amountJBC",
          "type": "uint256"
        }
      ],
      "name": "withdrawSwapReserves",
      "outputs": [],
      "stateMutability": "nonpayable",
      "type": "function"
    },
    {
      "stateMutability": "payable",
      "type": "receive"
    }
  ],
  "bytecode": "0x60a08060405234620000d157306080527ff0c57e16840df040f15088dc2f81fe391c3923bec73e23a9662efc9c229c6a009081549060ff8260401c16620000c257506001600160401b036002600160401b0319828216016200007c575b6040516153b59081620000d78239608051818181611ec401526123030152f35b6001600160401b031990911681179091556040519081527fc7f505b2f371ae2175ee4913f4499e1f2633a7b5936321eed1cdaeb6115181d290602090a13880806200005c565b63f92ee8a960e01b8152600490fd5b600080fdfe60806040526004361015610056575b361561001957600080fd5b61002534601654613536565b6016556040513481527fc8382e3e3003d34021113f35bf95ee86b77a09ec08c4eb3cbe64076e60468f4e60203392a2005b6000803560e01c806301d62efb146131cc57806304ef9d58146131ae57806304f618cb14612fdf57806305ad393514612f845780630e2be21014612f685780631427f61614612f4c5780631459457a14612d525780631788513c14612d2b578063182c84cc14612d045780631959a00214612c525780631d0dac7614612c3457806321923bde14612be557806321b77d6314612bc157806321f483d314612b795780632630c12f14612b4c57806327c830a914612b2957806327f082f414612b0b578063350763731461257c578063372500ab1461255b5780633dbd46bd146125285780634626402b146124ff578063488b5d97146124e15780634a4e3bd5146124975780634f1ef2861461228857806351858e271461223b57806351c6590a146120ec57806352778b0514611f1c57806352d1902d14611eb15780636031a52f14611e935780636839b5fa14611e765780636dd6682714611e58578063715018a614611dff57806375506c9614611de157806375f0a87414611db857806377a2a54014611d9a578063813380cd14611d6c57806381eeef5c14611c8757806383672f3e14611b8f578063841d308b146119355780638710bcaa146118d457806388481b61146118b857806388fd4d331461188f5780638a859a85146118735780638c0eaa48146118575780638da5cb5b1461182157806390b0eb51146117d15780639370b080146117b357806399b6024d146117285780639b788504146116ac5780639d99eca41461165e578063a2af92261461162b578063ac8f50aa146115d7578063ad3cb1cc14611595578063b048a4bb14611572578063b5d5b5fa146114e4578063b759936b146114c6578063bd594dcf146114a8578063be040fb014610f93578063c2ff12fc14610f60578063ccf6194414610f42578063cea9d26f14610e4f578063ceaa366d14610e31578063d0f1647014610da7578063d2c8e0e514610cf8578063d2f8253614610cd2578063d4f0014214610b76578063d8020a1814610b58578063dce3dc1f14610b2d578063deab8aea14610b04578063dec7fa3b14610ae6578063e306744914610ac8578063e4412f6814610aaa578063ece7126614610a5c578063edca914c146103ca5763f2fde38b1461039b575061000e565b346103c75760203660031901126103c7576103c46103b7613273565b6103bf613dee565b613d8c565b80f35b80fd5b50806003193601126103c7576103de613ed6565b60ff604e5416610a4a57338152600e60205260408120546001600160a01b031615610a0a5761040c3361450c565b68056bc75e2d63100000341415806109f7575b806109e4575b806109d1575b6109bf57338152600f6020526040812060038101805460ff16156108f4576104546018546134d1565b80601855825534600183015542600283015560ff198154169055338252600e60205281600360408220015560033402348104600314341517156108e057338352600e60205260046040842001555b600a6001820154338452600e602052604084209060098201805482116108d8575b505001805434116108cf575b5080548252601b6020908152604080842080546001600160a01b031916339081179091558452600e9091528220546001600160a01b0316801515806108bb575b156108995761052c6064610525600554346134f6565b04826146d8565b9081610864575b50505b338252600e6020526040822054829182916001600160a01b03169082903480159080046001141715610850579394915b6001600160a01b03811680151580610846575b8061083c575b1561068a578452600e6020526040842060ff6005820154161561066b57506001600160a01b0381168452600e602052604084206001015483906105c1906134a1565b116105fd575b6001600160a01b039081168452600e602052604084205416916105f3906105ed906134d1565b956134d1565b935b939491610566565b61060a6064340482614811565b80610616575b506105c7565b918261062191613536565b91338552600f60205260408520546040519182528560208301526003604083015260608201523390600080516020615200833981519152608060018060a01b03851692a338610610565b5492956001600160a01b039093169261068491506134d1565b936105f5565b84866106a485606461069e600654346134f6565b04613529565b806107f7575b5060018060a01b03600154166106d160079160646106ca600754346134f6565b0490613fc5565b6106e860646106e2600854346134f6565b04614ebf565b61070460018060a01b036003541660646106ca600954346134f6565b61072060018060a01b036002541660646106ca600a54346134f6565b336000908152600e6020526040812054909234151592916001600160a01b03165b6001600160a01b0316801515806107ed575b1561079a57600052600e60205261077f83604060002090610785575b546001600160a01b0316946134d1565b93610741565b838101610793348254613536565b905561076f565b85826107a533613f13565b546040519034825260208201527f2a91574e12ad96234e84923e146b0946ecfb871cd8d5534dc1fdcbe87a7c01b360403392a260016000805160206153408339815191525580f35b50601e8510610753565b6040816108277fca2e2bff26d2adb9fe155e9265350494c16751676879cb7ced9141e0fcf3934393601e54613536565b80601e5582519182526020820152a1826106aa565b506014871061057f565b50600f8410610579565b634e487b7160e01b84526011600452602484fd5b825460405192835284602084015260026040840152606083015260008051602061520083398151915260803393a33880610533565b506108b660018060a01b036001541660646106ca600554346134f6565b610536565b5080835260ff60056040852001541661050f565b349055386104cf565b5538806104c3565b634e487b7160e01b83526011600452602483fd5b6001820180548061095a575061090b6018546134d1565b80601855835534905542600283015560ff198154169055338252600e60205281600360408220015560033402348104600314341517156108e057338352600e60205260046040842001556104a2565b6109679192503490613536565b9055338252600e60205260ff6005604084200154166109b4575b60033402348104600314341517156108e057338352600e6020526109ad60046040852001918254613536565b90556104a2565b426002820155610981565b60405163162908e360e11b8152600490fd5b50683635c9adc5dea0000034141561042b565b50681b1ae4d6e2ef500000341415610425565b50681043561a882930000034141561041f565b60405162461bcd60e51b8152602060048201526018602482015277135d5cdd08189a5b99081c9959995c9c995c88199a5c9cdd60421b6044820152606490fd5b60405163ab35696f60e01b8152600490fd5b50346103c75760203660031901126103c7577fc7f6975dcffc536e6e57dd1d1dea810fff534a70563baf2d6f977b119bd00e1b6020600435610a9c613dee565b80600b55604051908152a180f35b50346103c757806003193601126103c7576020600854604051908152f35b50346103c757806003193601126103c7576020601a54604051908152f35b50346103c757806003193601126103c7576020600b54604051908152f35b50346103c757806003193601126103c7576004546040516001600160a01b039091168152602090f35b50346103c75760203660031901126103c7576040610b4c600435613e27565b82519182526020820152f35b50346103c757806003193601126103c7576020600754604051908152f35b50346103c75760803660031901126103c757610b90613273565b60243590610b9c61329f565b60643591610ba8613dee565b83610c7c575b5081610bd7575b506000805160206152a08339815191529160409182519182526020820152a180f35b91602082610c1694610beb82601754613529565b60175560018060a01b03875416908760405180988195829463a9059cbb60e01b8452600484016133de565b03925af1918215610c71576000805160206152a083398151915293604093610c42575b50915091610bb5565b610c639060203d602011610c6a575b610c5b818361336e565b810190613543565b5038610c39565b503d610c51565b6040513d86823e3d90fd5b834710610cc057848080868194610c9582601654613529565b6016555af1610ca2613a4d565b5015610cae5738610bae565b604051633d2cec6f60e21b8152600490fd5b60405163dbc3a71f60e01b8152600490fd5b50346103c757806003193601126103c757602060ff60155460081c166040519015158152f35b50346103c757602090816003193601126103c7576001600160a01b03919082610d1f613273565b168152601182526040812090604051808484549182815201908194845285842090845b818110610d915750505081610d5891038261336e565b6040519380850191818652518092526040850193925b828110610d7b5785850386f35b8351871685529381019392810192600101610d6e565b8254891684529287019260019283019201610d42565b50346103c75760c03660031901126103c7577f66682b276e4cd1a4e1f68b55b1143766c5332f472eb593cf2a70a25d9d5d991760c060043560a435608435606435604435602435610df6613dee565b856005558060065581600755826008558360095584600a55604051958652602086015260408501526060840152608083015260a0820152a180f35b50346103c757806003193601126103c7576020600954604051908152f35b50346103c75760603660031901126103c757610e69613273565b610e71613289565b60443591610e7d613dee565b83546001600160a01b03828116949181168514610f3057831615610f30576020604051809563a9059cbb60e01b8252818881610ebd878a600484016133de565b03925af1908115610f25577f77023e19c7343ad491fd706c36335ca0e738340a91f29b1fd81e2673d44896c494610f0092610f06575b50604051938493846139ba565b0390a180f35b610f1e9060203d602011610c6a57610c5b818361336e565b5038610ef3565b6040513d87823e3d90fd5b60405163e6c4247b60e01b8152600490fd5b50346103c757806003193601126103c7576020600554604051908152f35b50346103c75760203660031901126103c7576020906004358152601b8252604060018060a01b0391205416604051908152f35b50346103c757806003193601126103c757610fac613ed6565b60ff8060155460081c16156114975733825260209160108352604081209281828391845b875481101561114c57866004610fe6838b613442565b5001541615611144576002610ffb828a613442565b500154600361100a838b613442565b50015490620151809182810292818404149015171561113057899161102e91613536565b421015611041575b506001905b01610fd0565b938192936110d99161108160056110778661107161106a61106460019a8e613442565b50613feb565b8096613536565b9a613442565b5001918254613536565b9055338852600e87526009604089200154801561111f575b6110a8606491600b54906134f6565b04836110b4868d613442565b5001548181111561110c57906110cd816110d393613529565b92613536565b94613536565b9160046110e6828b613442565b5001805460ff191690556111046110fd828b613442565b50546140cc565b905087611036565b905061111791613536565b938790613536565b50600f875260408820830154611099565b634e487b7160e01b88526011600452602488fd5b60019061103b565b50849391811590818061148f575b61147d5780611468575b50836111cb575b600e9350156111bb575b5061117f33613f13565b33835252604081206004600382015491015411156111ad575b60016000805160206153408339815191525580f35b6111b633614279565b611198565b6111c59033613fc5565b83611175565b338552600e83526111e9604086206003600482015491015490613529565b808511611440575b50831561116b57338552600e835260036040862001611211858254613536565b90558360011c85908047101580611437575b611425575b60175480158015611411575b156113d05750670de0b6b3a7640000905b670de0b6b3a764000090818102918183041490151715611130579061126991613509565b86546040516370a0823160e01b815230600482015288926001600160a01b0390921691908781602481865afa80156113c55782918b9161138f575b50101580611386575b61130d575b505060008051602061522083398151915290600e9660405190815260008782015260008051602061532083398151915260403392a2338852600f865260408820549061130560405192839233968461355b565b0390a261116b565b91509585604051809863a9059cbb60e01b8252818b816113318833600484016133de565b03925af191821561137b57600e976000805160206152208339815191529361135e575b50918197506112b2565b61137490883d8a11610c6a57610c5b818361336e565b5089611354565b6040513d8a823e3d90fd5b508015156112ad565b809250898092503d83116113be575b6113a8818361336e565b810103126113b9578190518b6112a4565b600080fd5b503d61139e565b6040513d8c823e3d90fd5b601654670de0b6b3a7640000908181029181830414901517156113fd57906113f791613509565b90611245565b634e487b7160e01b89526011600452602489fd5b50683635c9adc5dea0000060165410611234565b90506114318133613fc5565b80611228565b50801515611223565b9093604051908152818482015260008051602061528083398151915260403392a292856111f1565b61147490601654613536565b60165585611164565b6040516304c4857b60e51b8152600490fd5b50841561115a565b6040516282b42960e81b8152600490fd5b50346103c757806003193601126103c7576020600654604051908152f35b50346103c757806003193601126103c7576020601e54604051908152f35b50346103c75760403660031901126103c7576114fe613273565b6001600160a01b03168152601060205260408120805460243592908310156103c75760c061152c8484613442565b508054906001810154906002810154600382015490600560ff600485015416930154936040519586526020860152604085015260608401521515608083015260a0820152f35b50346103c757806003193601126103c757602060ff601554166040519015158152f35b50346103c757806003193601126103c7576115d36040516115b58161330f565b60058152640352e302e360dc1b6020820152604051918291826133f9565b0390f35b50346103c7576115e6366133ac565b908252601c6020526040822080548210156116275761160592506133c2565b5080546001909101546040519182916115d3916001600160a01b0316836133de565b8280fd5b50346103c75760403660031901126103c7576103c4611648613273565b611650613289565b90611659613dee565b613a7d565b50346103c75760203660031901126103c7577fd28d9e4ce68d89af7920cb8618e342a78f51e545c530ce60f1cb1d6f0235b47f602060043561169e613dee565b80601455604051908152a180f35b50346103c75760403660031901126103c7576116c6613273565b602435906116d2613dee565b814710610cc0578280808085855af16116e9613a4d565b5015610cae576040519182526001600160a01b0316907f288155da11d775f8595652c04f862708561d601d9fd3f04f7aed5f8311296e2490602090a280f35b50346103c75760403660031901126103c757611742613273565b6024359061174e613dee565b814710610cc05761176182601e54613529565b601e558280808085855af1611774613a4d565b5015610cae576040519182526001600160a01b0316907f27971ee1acbfbdfb20656657ceb2e0e7b519b9e60fe1a6b1f6d27b159f4a607c90602090a280f35b50346103c757806003193601126103c7576020600d54604051908152f35b50346103c7577f4e9dd03193a0c81552fb8e6d32280f0d7e0ce8087241dc3d17ef3d193ee231d76040611803366133ac565b61180b613dee565b81600c5580600d5582519182526020820152a180f35b50346103c757806003193601126103c757600080516020615240833981519152546040516001600160a01b039091168152602090f35b50346103c757806003193601126103c757602060405160038152f35b50346103c757806003193601126103c757602060405160018152f35b50346103c757806003193601126103c7576003546040516001600160a01b039091168152602090f35b50346103c757806003193601126103c757602060405160048152f35b50346103c75760203660031901126103c7576080906040906001600160a01b036118fc613273565b168152600f6020522080549060018101549060ff6003600283015492015416916040519384526020840152604083015215156060820152f35b50806003193601126103c757611949613ed6565b60ff604e5416610a4a5734156109bf57601654683635c9adc5dea00000808210908115611b83575b50611b2c576017549061199761198783346134f6565b6119913484613536565b90613509565b6127108034029034820403611b6f576119b3836103e892613509565b116109bf5760646119c6600c54836134f6565b04916119d28383613529565b85546040516370a0823160e01b815230600482015291956020946001600160a01b03949193928516928681602481875afa80156113c55782918b91611b3e575b5010611b2c578893611a28611a30933490613536565b601655613529565b601755803b15611b2857818091602460405180948193630852cd8d60e31b83528a60048401525af18015611b1d57611b05575b5054169181604051809463a9059cbb60e01b8252818881611a888a33600484016133de565b03925af1918215610f25577f36864aeefce16bc4aaceeb6b0cdfb2ad1455a8cb4ccb0db148a2bc6e7166f97c93611acf93611ae7575b5050604051918291339534846132f9565b0390a260016000805160206153408339815191525580f35b81611afd92903d10610c6a57610c5b818361336e565b503880611abe565b611b0e90613340565b611b19578438611a63565b8480fd5b6040513d84823e3d90fd5b5080fd5b6040516343c7ad8160e11b8152600490fd5b809250888092503d8311611b68575b611b57818361336e565b810103126113b95781905138611a12565b503d611b4d565b634e487b7160e01b85526011600452602485fd5b90506017541038611971565b50346103c75760803660031901126103c757611ba9613273565b611bb1613289565b90611bba61329f565b91611bc36132b5565b90611bcc613dee565b6001600160a01b039283169182158015611c7d575b8015611c73575b8015611c69575b610f30577f213f1de8063c19612a553f1480ff341bea689d36a56a2089f1b9060d599b5d8394848060809660018060a01b031995878760015416176001551692838660025416176002551692838560035416176003551680936004541617600455604051938452602084015260408301526060820152a180f35b5083811615611bef565b5083851615611be8565b5083821615611be1565b50346103c757806003193601126103c757601a54620151808101809111611d58574210611d465760175480156109bf57606481049081156109bf5781611ccc91613529565b601755815482906001600160a01b0316803b15611b2857818091602460405180948193630852cd8d60e31b83528860048401525af18015611b1d57611d32575b506000805160206152e083398151915260408342601a558151908482526020820152a180f35b611d3b90613340565b611b28578138611d0c565b604051636f47a98b60e11b8152600490fd5b634e487b7160e01b82526011600452602482fd5b50346103c757611d7b366133ac565b90825260126020526040822080548210156116275761160592506133c2565b50346103c757806003193601126103c7576020601654604051908152f35b50346103c757806003193601126103c7576001546040516001600160a01b039091168152602090f35b50346103c757806003193601126103c7576020601954604051908152f35b50346103c757806003193601126103c757611e18613dee565b60008051602061524083398151915280546001600160a01b031981169091556000906001600160a01b03166000805160206153008339815191528280a380f35b50346103c757806003193601126103c7576020601454604051908152f35b50346103c757806003193601126103c75760206040516103e88152f35b50346103c757806003193601126103c7576020601854604051908152f35b50346103c757806003193601126103c7577f00000000000000000000000000000000000000000000000000000000000000006001600160a01b03163003611f0a5760206040516000805160206152608339815191528152f35b60405163703e46dd60e11b8152600490fd5b50346103c75760203660031901126103c757600435611f39613ed6565b60ff604e5416610a4a5780156109bf57683635c9adc5dea0000080601654109081156120e0575b50611b2c5781546040516323b872dd60e01b81526001600160a01b039160209082908416818781611f96893033600485016139ba565b03925af18015610c71576120c1575b506064611fb4600d54846134f6565b04611fbf8184613529565b916127108084029084820414841517156120ad57611fe36103e89160175490613509565b116109bf578490815416803b15611b28578190602460405180948193630852cd8d60e31b83528760048401525af18015610f255761209a575b506016549161202b83826134f6565b61203c601754916119918484613536565b91824710611b2c577f223c8ad0806f634524940a8595f819c5cfc7b1f4f4f45791269301df0a7e61d594612074849261207c94613536565b601755613529565b6016556120898133613fc5565b611acf6040519283923396846132f9565b6120a690949194613340565b923861201c565b634e487b7160e01b86526011600452602486fd5b6120d99060203d602011610c6a57610c5b818361336e565b5038611fa5565b90506017541038611f60565b5060203660031901126103c757600435612104613dee565b34612227575b80612131575b60406000805160206151e0833981519152918151903482526020820152a180f35b81546040516323b872dd60e01b81529060209082906001600160a01b0316818681612161883033600485016139ba565b03925af19081612208575b506121df57508060033d116121ce575b506308c379a01461219a575b6040516320a9b82760e21b8152600490fd5b6121a26139dc565b806121ad5750612188565b6040516387a26b7560e01b81529081906121ca90600483016133f9565b0390fd5b9050600481803e5160e01c3861217c565b6040816121fd6000805160206151e083398151915293601754613536565b601755915050612110565b6122209060203d602011610c6a57610c5b818361336e565b503861216c565b61223334601654613536565b60165561210a565b50346103c757806003193601126103c757612254613dee565b600160ff19604e541617604e557f4cb3183d0bf66f9634b15cfc3539fdddc96c2c9324848af89b56586a6739fec48180a180f35b5060403660031901126103c75761229d613273565b60249182356001600160401b038111611b285736602382011215611b28578060040135926122ca84613391565b6122d7604051918261336e565b848152602094858201933688838301011161247057818692898993018737830101526001600160a01b037f0000000000000000000000000000000000000000000000000000000000000000811630811490811561247b575b50611f0a5761233c613dee565b6040516352d1902d60e01b81529083169580826004818a5afa9182918793612447575b505061237d57604051634c9c8ce360e01b8152600481018790528790fd5b859087600080516020615260833981519152918281036124325750843b1561241c575080546001600160a01b031916821790556040518592917fbc7cd75a20ee27fd9adebab32041f755214dbc6bffa90cc0225b39da2e5c2d3b8480a28151156123ff57506123fb9382915190845af46123f5613a4d565b9161513b565b5080f35b93505050503461240d575080f35b63b398979f60e01b8152600490fd5b604051634c9c8ce360e01b815260048101849052fd5b60405190632a87526960e21b82526004820152fd5b9080929350813d8311612474575b61245f818361336e565b81010312612470575190388061235f565b8580fd5b503d612455565b905081600080516020615260833981519152541614153861232f565b50346103c757806003193601126103c7576124b0613dee565b60ff19604e5416604e557f15de7ad89d29fd1c6d2e6b1e878453569b4080edf34e0105faaa3bd52f0185308180a180f35b50346103c757806003193601126103c7576020604051620151808152f35b50346103c757806003193601126103c7576002546040516001600160a01b039091168152602090f35b50346103c75760203660031901126103c7576020906004358152601d8252604060018060a01b0391205416604051908152f35b50346103c757806003193601126103c757612574613ed6565b611198613578565b5060203660031901126103c757612591613ed6565b60ff604e5416610a4a5760ff6015541615612ad157338152600f60205260408120600181015415612abf5760ff600382015416612aad576007600435141580612aa0575b80612a93575b612a815734156109bf576125f06019546134d1565b60198190553383526010602052604080842090519160c083016001600160401b03811184821017612a6d5760405282523460208301524260408301526004356060830152600160808301528360a0830152805490600160401b821015612a59579061266091600182018155613442565b919091612a455760a0816005925184556020810151600185015560408101516002850155606081015160038501556126ad60808201511515600486019060ff801983541691151516179055565b01519101556019548252601d602052604082203360018060a01b0319825416179055338252600e602052600a60408320018054918215612a34575b5050609681029080820460961490151715611d58576064900434036109bf5761271033613f13565b601954906040517fa8a1b9e33e503eed12bf7e7c8c01c7f3b60217a496bddd0f5db351dd8c056c1c3391806127498660043534846132f9565b0390a2338152600e6020526040812054819081906001600160a01b03165b6001600160a01b038116151580612a2a575b15612a20576001600160a01b0381168452600e60205260408420600581015460ff1615612a0b57506001600160a01b0381168452600f6020526040842060018101549081159081156129fc575b506129d7576001600160a01b0382168552600e60205260408520600201546127ed90613e27565b9190508482116128cf575b50602d111561282c576001600160a01b039081168452600e60205260408420541690612823906134d1565b915b9190612767565b50505090505b338152600e602052600660408220018181549182612861575b5060016000805160206153408339815191525580f35b5560165481811015806128c5575b61287b575b829061284b565b8161288591613529565b6016556128928133613fc5565b6040519081527f3437b9ea7fa19c6d233dd70cc787a70fab87cee64d8ba4571512cc84402748f960203392a23880612874565b508147101561286f565b6128f1906128e08396606494613529565b9034908034116129cf575b506134f6565b04858552601c602052604085206040519061290b8261330f565b6001600160a01b038416825260208201839052805490600160401b8210156129bb579061293d916001820181556133c2565b9190916129a757805182546001600160a01b0319166001600160a01b03918216178355602091820151600193909301929092556040519283529083169187917f7c6505ab8279235ad21ebf427336cc8d97c017b4aa1f10ffdff11d3261e4934e91a382602d6127f8565b634e487b7160e01b87526004879052602487fd5b634e487b7160e01b88526041600452602488fd5b9050386128eb565b5050600e60205260408320546001600160a01b0316906129f6906134d1565b91612825565b60ff91506003015416386127c6565b546001600160a01b0316916129f691506134d1565b5050509050612832565b5060148210612779565b6001919250015480915538806126e8565b634e487b7160e01b84526004849052602484fd5b634e487b7160e01b85526041600452602485fd5b634e487b7160e01b86526041600452602486fd5b604051634dc7f5ff60e11b8152600490fd5b50601e60043514156125db565b50600f60043514156125d5565b604051631ecb2c4f60e31b8152600490fd5b604051634065aaf160e11b8152600490fd5b60405162461bcd60e51b8152602060048201526012602482015271131a5c5d5a591a5d1e48191a5cd8589b195960721b6044820152606490fd5b50346103c757806003193601126103c7576020600c54604051908152f35b50346103c757806003193601126103c757602060ff604e54166040519015158152f35b50346103c757806003193601126103c757604e5460405160089190911c6001600160a01b03168152602090f35b50346103c75760203660031901126103c757600435906013548210156103c7576020816013600393522091020180546115d360026001840154930154604051938493846132f9565b50346103c757806003193601126103c7576020604051683635c9adc5dea000008152f35b50346103c75760203660031901126103c7576115d3906002906040906001600160a01b03612c11613273565b168152600e602052200154612c2581613e27565b929091604051938493846132f9565b50346103c757806003193601126103c7576020601754604051908152f35b50346103c75760203660031901126103c757610160906001600160a01b039060409082612c7d613273565b168152600e60205220908154169060018101549060028101546003820154600483015460ff600585015416600685015491600786015493600887015495600a6009890154980154986040519a8b5260208b015260408a015260608901526080880152151560a087015260c086015260e0850152610100840152610120830152610140820152f35b50346103c75760203660031901126103c7576020612d236004356134a1565b604051908152f35b50346103c757806003193601126103c757546040516001600160a01b039091168152602090f35b50346103c75760a03660031901126103c757612d6c613273565b612d74613289565b90612d7d61329f565b612d856132b5565b916084356001600160a01b038181169291839003612f48576000805160206153608339815191529485549660ff8860401c16159560018060401b03891698891580612f41575b6001809b149081612f37575b159081612f2e575b50612f1c576001600160401b031981168a1789558492839189612f01575b50612e0661506a565b612e0e61506a565b612e1733613d8c565b612e1f61506a565b612e2761506a565b612e2f61506a565b8a600080516020615340833981519152558160018060a01b03199716878d5416178c5516858a5416178955168360025416176002551681600354161760035560045416176004556019600555600f6006556005600755600560085560196009556019600a5582600b556032600c556019600d556203f48060145561010161ffff19601554161760155542601a55612ec4578280f35b805460ff60401b191690556040519081527fc7f505b2f371ae2175ee4913f4499e1f2633a7b5936321eed1cdaeb6115181d290602090a138808280f35b6001600160481b0319166001600160401b01178a5538612dfd565b60405163f92ee8a960e01b8152600490fd5b90501538612ddf565b303b159150612dd7565b5087612dcb565b8680fd5b50346103c757806003193601126103c757602090604051908152f35b50346103c757806003193601126103c757602060405160028152f35b50346103c75760403660031901126103c757612f9e613273565b6001600160a01b039081168252601160205260408220805460243593908410156103c75750602092612fcf916132cb565b9190546040519260031b1c168152f35b50346103c757602080600319360112611b2857612ffa613273565b338352600e808352604084205490926001600160a01b03929091831661319c57821633811461318a578015610f305733808652600e8352604080872080546001600160a01b031916841790558287526011808552908720909161305c9161345e565b338652600e835283604087205416948487965b1680151580613180575b1561315657808852818552604088209060028201805460018101918282116131425792826130df8b9693837fa0eea20e678cb42233c1c456c84cedce7ea53fa360bb71bf3b761b760956777060408e8b996130ff9b5586825191868352820152a2613e27565b506130e982613e27565b5090808203613105575b505050505416976134d1565b9661306f565b6131367fea8384d3ca7bf5b7510d3faee44a3774406c1fd3ac14fff110a8c98d47a2595693604051938493846132f9565b0390a2388080806130f3565b634e487b7160e01b8c52600487905260248cfd5b8784337fa6dbb5aa28f35437de94d685d66edce5fb4812196b4984b91dfd5a7b38c0fb308380a380f35b50601e8710613079565b604051631acade8960e31b8152600490fd5b60405163682a906560e01b8152600490fd5b50346103c757806003193601126103c7576020600a54604051908152f35b50346103c75760403660031901126103c757600435801515809103611b285760243590811515809203611627577f03cb373f89de891077fe47cec43663b6727713de0337af46bebd1178122251b7917fb886fcb5b9c12916f26d967ebe962dbd51ec249fb55961da39c851cdfc10115c60208093613248613dee565b6015805461ffff191660ff831617600886901b61ff0016179055604051908152a1604051908152a180f35b600435906001600160a01b03821682036113b957565b602435906001600160a01b03821682036113b957565b604435906001600160a01b03821682036113b957565b606435906001600160a01b03821682036113b957565b80548210156132e35760005260206000200190600090565b634e487b7160e01b600052603260045260246000fd5b6040919493926060820195825260208201520152565b604081019081106001600160401b0382111761332a57604052565b634e487b7160e01b600052604160045260246000fd5b6001600160401b03811161332a57604052565b606081019081106001600160401b0382111761332a57604052565b601f909101601f19168101906001600160401b0382119082101761332a57604052565b6001600160401b03811161332a57601f01601f191660200190565b60409060031901126113b9576004359060243590565b80548210156132e35760005260206000209060011b0190600090565b6001600160a01b039091168152602081019190915260400190565b6020808252825181830181905290939260005b82811061342e57505060409293506000838284010152601f8019910116010190565b81810186015184820160400152850161340c565b80548210156132e3576000526006602060002091020190600090565b80549190600160401b83101561332a578261348191600161349f950181556132cb565b90919060018060a01b038084549260031b9316831b921b1916179055565b565b60038110156134cb5760028110156134c557600111156134c057600090565b600590565b50600a90565b50600f90565b60001981146134e05760010190565b634e487b7160e01b600052601160045260246000fd5b818102929181159184041417156134e057565b8115613513570490565b634e487b7160e01b600052601260045260246000fd5b919082039182116134e057565b919082018092116134e057565b908160209103126113b9575180151581036113b95790565b606091949392608082019582526020820152600060408201520152565b6000338152602090600f82526040908181209260019360018101541580156139ac575b61399b57338352601082528383209483958185905b61389a575b505050841561388957338352600e82526135d58560038686200154613536565b94338452600e83528484209560049687810154809211613873575b5050801561386457338452600e8352600385852001613610828254613536565b90558060011c918492804710158061385b575b613849575b60175480158015613835575b156137f55750670de0b6b3a7640000905b670de0b6b3a7640000908181029181830414901517156137e2579061366991613509565b855487516370a0823160e01b8152308a820152879492916001600160a01b0316908781602481855afa9081156137d8579083918a916137a3575b5010158061379a575b613719575b50509160008051602061522083398151915291600e95949388519081528786820152600080516020615320833981519152893392a254906136f8885192839233968461355b565b0390a233835252206003810154910154111561371057565b61349f33614279565b816137409293955087918b8a8c5180968195829463a9059cbb60e01b8452339084016133de565b03925af1801561379057916000805160206152208339815191529391600e97969593613773575b509394958193506136b1565b61378990873d8911610c6a57610c5b818361336e565b5038613767565b88513d89823e3d90fd5b508115156136ac565b809250898092503d83116137d1575b6137bc818361336e565b810103126137cd57829051386136a3565b8880fd5b503d6137b2565b8a513d8b823e3d90fd5b634e487b7160e01b875260118952602487fd5b601654670de0b6b3a764000090818102918183041490151715613822579061381c91613509565b90613645565b634e487b7160e01b885260118a52602488fd5b50683635c9adc5dea0000060165410613634565b92506138558333613fc5565b82613628565b50801515613623565b50505050505061349f33614279565b61388292506003015490613529565b38806135f0565b8351630fec21fd60e21b8152600490fd5b8154811015613996576138ad8183613442565b508360ff600480930154161561398c57506138cb6110648385613442565b90816138e1575b5050908280925b0190916135b0565b9098896138ed91613536565b986138fd60056110778587613442565b9055600261390b8385613442565b500154600361391a8486613442565b5001549062015180918281029281840414901517156139795791613942869594928694613536565b421015613952575b5091926138d2565b61395c8285613442565b5001805460ff191690556139736110fd8285613442565b3861394a565b634e487b7160e01b895260118352602489fd5b92918391506138d9565b6135b5565b8351634065aaf160e11b8152600490fd5b5060ff60038201541661359b565b6001600160a01b03918216815291166020820152604081019190915260600190565b600060443d10613a3957604051600319913d83016004833e81516001600160401b03918282113d602484011117613a3c57818401948551938411613a44573d85010160208487010111613a3c5750613a399291016020019061336e565b90565b949350505050565b50949350505050565b3d15613a78573d90613a5e82613391565b91613a6c604051938461336e565b82523d6000602084013e565b606090565b916001600160a01b03908184169081158015613d82575b610f305782841680831461318a5784846000965b1680151580613d78575b15613ade5784811461318a57600052600e60205284613ad88160406000205416976134d1565b96613aa8565b506000848152600e60208181526040928390208054969a959950868916989496898b14613d6b576001600160a01b0319168a1790558715159485613c73575b613b32908a600052601183528460002061345e565b86600052818152600295600284600020015490600196600183018093116134e057613bf3575b8a613b8d575b50505050505050507ff8b9fe4d008320e6f048c61e41e9cc56ce351354ad0cb9a868bd3c4bd6928fd5600080a4565b600090875b613b9d575b50613b5e565b861680151580613be9575b15613be45780600052848452888660002001613bc5848254613536565b9055600052838352613bdd86866000205416916134d1565b9087613b92565b613b97565b50601e8210613ba8565b866000878c835b613c08575b50505050613b58565b1680151580613c69575b15613c625760008181528787528890208b0180548611613c5957613c37868254613529565b90555b600052858552613c5088886000205416916134d1565b90889083613bfa565b60009055613c3a565b8890613bff565b50601e8210613c12565b989796959493929190876000526011808252836000209a60005b8c5480821015613d545787908b8f84613ca5916132cb565b939054600394851b1c1614613cbe575050600101613c8d565b60009e9291939495969798999a9b9c9d9e1995868201918211613d405750906134818a613cee613cfc94866132cb565b905490871b1c1691846132cb565b80548015613d2a57613b329489910192613d1684846132cb565b81939154921b1b19169055555b9050613b1d565b634e487b7160e01b600052603160045260246000fd5b634e487b7160e01b60005260045260246000fd5b50509050613b329192939495969798999a50613d23565b5050505050505050505050565b5060328710613ab2565b5082841615613a94565b6001600160a01b03908116908115613dd55760008051602061524083398151915280546001600160a01b03198116841790915516600080516020615300833981519152600080a3565b604051631e4fbdf760e01b815260006004820152602490fd5b600080516020615240833981519152546001600160a01b03163303613e0f57565b60405163118cdaa760e01b8152336004820152602490fd5b620186a0811015613ecd57617530811015613ec457612710811015613ebb57610bb8811015613eb2576103e8811015613ea95761012c811015613ea0576064811015613e9757601e811015613e8e57600a1115613e8657600090600090565b600190600590565b50600290600a90565b50600390600f90565b50600490601490565b50600590601990565b50600690601e90565b50600790602390565b50600890602890565b50600990602d90565b6000805160206153408339815191526002815414613ef45760029055565b604051633ee5aeb560e01b8152600490fd5b80156134e0576000190190565b60018060a01b0380600092168252600f6020526040822090600182015415159182613fb5575b50600e602052604083206005810160ff815416151584151514613fae57805460ff191660ff851515161790555416918215613fa95760019260409215613f90578152600e6020522001613f8c81546134d1565b9055565b81522001805480613fa0575b5050565b613f8c90613f06565b505050565b5050505050565b6003015460ff1615915038613f39565b8115613f9c57814710610cc057600080809381935af1613fe3613a4d565b5015610cae57565b6003810154613ff981615099565b906201518061400c600285015442613529565b049080821161405e575b5080156140565761403b633b9aca009161403660059460018701546134f6565b6134f6565b0491015480821161404d575050600090565b613a3991613529565b505050600090565b905038614016565b80518210156132e35760209160051b010190565b8054906000908181558261408d57505050565b6001906001600160ff1b03841684036108e0578252602082209260011b8301925b8381106140bb5750505050565b8083600292558383820155016140ae565b6000818152601d6020908152604080832054601c83528184208054939695929492936001600160a01b03928316906001600160401b038111612a595786519261411a8a8360051b018561336e565b818452855288852085908a8086015b84841061424a575050505050835b825181101561423457808983858a8861416d8161415660019986614066565b515116866141648987614066565b51015190614906565b948b866141b6575b5091508b93506141a6867fae629b396150638d6eb6de457cbffe5d618a10c8cc199a94976bed2b16ecd99394614066565b515116938c51908152a301614137565b83600080516020615200833981519152946004926080956141d78c8a614066565b5151168152604f855220928d61420f8b8451996141f38b613353565b87548b5260028f89015498868d01998a520154868c0152614066565b515116965193519082519485528401528201528c6060820152a383858a888e8b614175565b505050509061349f9394601c918352522061407a565b6001916002918c5161425b8161330f565b8a865416815284860154838201528152019201920191908b90614129565b9060018060a01b039182811690600090828252602091600f8352604091828220916003830190815460ff8116156142b7575b50505050505050509050565b600160ff1991821681179093556010875285822091998a94859347908590875b614442575b505088948d948c9d9e948d867f920bb94eb3842a728db98228c375ff6b00c5bc5a54fac6736155517a0a20a61a9f9b97968f8b979088917ff3a670cd3af7d64b488926880889d08a8585a138ff455227af6737339a1ec2629e9a6143e6575b505050505050856143c7575b898352600e8d52838320600581018054938416905554169060ff16806143be575b806143ad575b614394575b5050519283525087820152a2549051908152a28038808080808080806142ab565b815220016143a28154613f06565b905538838180614373565b50808252838383200154151561436e565b50801515614368565b898352600e8d526006848420016143df878254613536565b9055614347565b848110614406575050506143fa9250613fc5565b8987388f87908261433b565b90919260008051602061528083398151915294508180614432575b50508251918c8352820152a26143fa565b61443b91613fc5565b3881614421565b909d8e825411156145065760ff8f61445c60049185613442565b50015416156144fb57878f6144719084613442565b50015480891b9080820460021490151715611130578f6144cf908a9493856144ab61012c6144a38397600b54906134f6565b049387613442565b5001548281106144ef57906144c3836144c993613529565b90613536565b9b613536565b9f60046144dc8285613442565b50018881541690555b01919e989e6142d7565b8b92506144c991613536565b979d908780926144e5565b9d6142dc565b6001600160a01b039081166000818152600f602090815260408083206001818101805496979096939590949291841580156146ca575b61467557601084528682208054839291835b82811061468a5750505050614680576002820196614576885460145490613536565b42111561467557600383837f57025f0027038907eda728b59164fb63d06048f42e618a35267e6a12e49b2e469a8a9654998d8352600e895260ff600589852092835416920154168061466c575b8061465a575b614640575b508c8252600e88528187812095816004600589019860ff19998a81541690558289820155015581855555550190815416905584614611575b5051928352820152a2565b8481526012835261462382822061407a565b848152601b83522080546001600160a01b03191690558338614606565b82526001878320016146528154613f06565b9055386145ce565b508083526001888420015415156145c9565b508015156145c3565b505050505050505050565b5050505050505050565b60ff60046146988385613442565b500154166146a8575b8301614554565b936146c28491826146b98886613442565b50015490613536565b9490506146a1565b5060ff600384015416614542565b60018060a01b0381166000818152600e60205260409182822092600f60205280832060ff60058601541615908115614802575b81156147f5575b506147ec5760048401936003855491019361472f85548093613529565b888181116147c3575b505087156147b8578747106147915750906147628760008051602061532083398151915293613536565b845561476e8787613fc5565b805187815260026020820152a25490541115614788575090565b613a3990614279565b9692955050600080516020615280833981519152935080925051908152846020820152a290565b965050505050505090565b819950846000805160206152808339815191529187939b82519182526020820152a23880614738565b50509250505090565b6001915001541538614712565b600381015460ff16915061470b565b60018060a01b0381166000818152600e60205260409182822092600f60205280832060ff600586015416159081156148f7575b81156148ea575b506147ec5760048401936003855491019361486885548093613529565b888181116148c1575b505087156147b85787471061479157509061489b8760008051602061532083398151915293613536565b84556148a78787613fc5565b805187815260036020820152a25490541115614788575090565b819950846000805160206152808339815191529187939b82519182526020820152a23880614871565b600191500154153861484b565b600381015460ff169150614844565b60018060a01b038116600052600e6020526040600020600f602052604060002060ff60058301541615908115614eb0575b8115614ea3575b5061405657806003600461495793015491015490613529565b82818111614e6f575b50508115614e68576001600160a01b0381166000908152600e60205260409020906149896150db565b90670de0b6b3a76400008460011c028460011c8104670de0b6b3a7640000148560011c1517156134e057826149bd91613509565b936040518181528160011c60208201528160011c60408201528360608201528560808201527fa7e66afc02702ffeb435ee9bacce4988459c7b329bf0dd9f8f551d823d1fece060a0600180821b03851692a28492600094600092614a20886151c8565b15614e22575b8060011c151580614e19575b614d82575b6000546040516370a0823160e01b81523060048201526001600160a01b0390911696906020816024818b5afa908115614cd457600091614d50575b5081151580614d47575b614c61575b5060029650878260011c118015614c58575b614c11575b50614ab6670de0b6b3a7640000614aaf85876134f6565b0488613536565b978815614b9a5750508060036004920192614ad2898554613536565b93849055604080518a8152602081018590526001600160a01b0388169160008051602061532083398151915291a27fe83062c7bae5146a0afc41b3a8342f225ed2581a8e234e0ba69d9ff8c53a48d660405180614b3c8b60018060a01b038b16958a4292856150bf565b0390a201541115614b8c575b60405193614b5585613353565b845260208401908152604084019185835260018060a01b0316600052604f6020526040600020935184555160018401555191015590565b614b9582614279565b614b48565b915091506040519180835260011c60208301526040820152608060608201526015608082015274139bc81d1bdad95b9cc81d1c985b9cd9995c9c9959605a1b60a08201527fd8349f8ffff882edf1f3a7f209a1d24fb5e821ba347cf8da7f016de352368fd060c060018060a01b03851692a2614b48565b7f60369b7cd498d613812af36dd7cb398ba493ee0afe0fc21d90a9f8b5fc620aa360405180614c4f8860018060a01b038b16958d8860011c856150bf565b0390a238614a98565b50848111614a93565b945084811115614d4157845b9485908111614ce057506020604051809863a9059cbb60e01b825281600081614c9a8b8d600484016133de565b03925af1968715614cd457600297614cb5575b505b38614a81565b614ccd9060203d602011610c6a57610c5b818361336e565b5038614cad565b6040513d6000823e3d90fd5b9094506002965060405190600082526020820152606060408201526013606082015272129090c81d1c985b9cd9995c8819985a5b1959606a1b60808201526000805160206152c083398151915260a0600180821b03881692a2600093614caf565b80614c6d565b50801515614a7c565b90506020813d602011614d7a575b81614d6b6020938361336e565b810103126113b9575138614a72565b3d9150614d5e565b9550478660011c11600014614e0f5747955b86478111614dac5750614da78786613fc5565b614a37565b9096506040519081526000602082015260606040820152601960608201527813985d1a5d99481350c81d1c985b9cd9995c8819985a5b1959603a1b60808201526000805160206152c083398151915260a0600180821b03871692a2600095614a37565b8560011c95614d94565b50471515614a32565b601754604051601490910480825296506001600160a01b038616907fa3c9509a6af5ab7ab677b3caa94bb10373473b146705f236c71768d7b6b1a51390602090a2614a26565b5050600090565b60408051918252602082018390529193506001600160a01b0383169160008051602061528083398151915291a23880614960565b600191500154153861493e565b600381015460ff169150614937565b90811561506657601654683635c9adc5dea0000080821090811561505a575b506150555747614eee8483613536565b1161505557612710830261270f19848204016134e057614f11826103e892613509565b116150555760175492614f31614f2785836134f6565b6119918385613536565b8015801561504c575b6150455760009460018060a01b038654169060409485516370a0823160e01b8152306004820152602081602481875afa90811561503b579083918a91615006575b5010614ffc5783889392611a2887614f9294613536565b601755803b15611b285781906024865180948193630852cd8d60e31b83528760048401525af18015614ff2576000805160206152e0833981519152959650614fe3575b5082519182526020820152a1565b614fec90613340565b38614fd5565b84513d88823e3d90fd5b5050505050509050565b9150506020813d602011615033575b816150226020938361336e565b810103126137cd5782905138614f7b565b3d9150615015565b87513d8b823e3d90fd5b5050509050565b50848111614f3a565b509050565b90506017541038614ede565b9050565b60ff6000805160206153608339815191525460401c161561508757565b604051631afcd79f60e31b8152600490fd5b600781146150b757600f146150b0576301312d0090565b62fe502b90565b5062cb735690565b9094939260609260808301968352602083015260408201520152565b60175480158015615127575b61511a57601654670de0b6b3a7640000908181029181830414901517156134e057613a399161511591613509565b61519e565b50670de0b6b3a764000090565b50683635c9adc5dea00000601654106150e7565b90615162575080511561515057602081519101fd5b60405163d6bda27560e01b8152600490fd5b81511580615195575b615173575090565b604051639996b31560e01b81526001600160a01b039091166004820152602490fd5b50803b1561516b565b67016345785d8a00008082106151c35750678ac7230489e800008082116151c3575090565b905090565b80156151d957601460175404101590565b5060019056fe38f8a0c92f4c5b0b6877f878cb4c0c8d348a47b76d716c8e78f425043df9515b62c4ea4229c396c9b5c33779ec09ed411b29ed8782e48ac358eaa9e8aa58a9b06fcebd0a2ce98b28cb391d6008bbc769378c9a4919628e11639cb575cd320fcc9016d09d72d40fdae2fd8ceac6b6234c7706214fd39c1cd1e609a0528c199300360894a13ba1a3210667c828492db98dca3e2076cc3735a920a3ca505d382bbcb5987aab1afd379f6695f1068869ee8ca6a0d02304c57935a9cc3d3ea2e51e4d520bc217d25ef4588524228dffcfa518f4ad52178c71d49b8061d016213cd311da109f9a8d0129326c2906f581adfd38d938005d44218a2f7c843b9b105af9ba0ec3929061cbbbeecb325623e7d5a86c3dae11cb8a22ca45dc0972955657da258be0079c531659141344cd1fd0a4f28419497f9722a3daafe3b4186f6b6457e0f381583145e90b82cc5e529bf4fc4d0e44397174cdf145c4251ac33ef195a4249b779b17422d0df92223018b32b4d1fa46e071723d6817e2486d003becc55f00f0c57e16840df040f15088dc2f81fe391c3923bec73e23a9662efc9c229c6a00a264697066735822122072033d3e01960257d7b531b98bb5b2d701c55fd986487525f4b62399a1e5dc7664736f6c63430008160033",
  "linkReferences": {},
  "deployedLinkReferences": {}
}