{
  "_format": "hh-sol-artifact-1",
  "contractName": "JinbaoProtocolNative",
  "sourceName": "contracts/JinbaoProtocolNative.sol",
  "abi": [
    {
      "inputs": [],
      "stateMutability": "nonpayable",
      "type": "constructor"
    },
    {
      "inputs": [],
      "name": "ActionTooEarly",
      "type": "error"
    },
    {
      "inputs": [
        {
          "internalType": "address",
          "name": "target",
          "type": "address"
        }
      ],
      "name": "AddressEmptyCode",
      "type": "error"
    },
    {
      "inputs": [],
      "name": "AlreadyBound",
      "type": "error"
    },
    {
      "inputs": [],
      "name": "AlreadyExited",
      "type": "error"
    },
    {
      "inputs": [],
      "name": "BatchUpdateSizeMismatch",
      "type": "error"
    },
    {
      "inputs": [],
      "name": "ContractPaused",
      "type": "error"
    },
    {
      "inputs": [
        {
          "internalType": "address",
          "name": "implementation",
          "type": "address"
        }
      ],
      "name": "ERC1967InvalidImplementation",
      "type": "error"
    },
    {
      "inputs": [],
      "name": "ERC1967NonPayable",
      "type": "error"
    },
    {
      "inputs": [],
      "name": "Expired",
      "type": "error"
    },
    {
      "inputs": [],
      "name": "FailedCall",
      "type": "error"
    },
    {
      "inputs": [],
      "name": "InsufficientBalance",
      "type": "error"
    },
    {
      "inputs": [],
      "name": "InsufficientNativeBalance",
      "type": "error"
    },
    {
      "inputs": [],
      "name": "InvalidAddress",
      "type": "error"
    },
    {
      "inputs": [],
      "name": "InvalidAmount",
      "type": "error"
    },
    {
      "inputs": [],
      "name": "InvalidCycle",
      "type": "error"
    },
    {
      "inputs": [],
      "name": "InvalidFee",
      "type": "error"
    },
    {
      "inputs": [],
      "name": "InvalidInitialization",
      "type": "error"
    },
    {
      "inputs": [],
      "name": "InvalidLevelConfig",
      "type": "error"
    },
    {
      "inputs": [],
      "name": "InvalidRate",
      "type": "error"
    },
    {
      "inputs": [],
      "name": "InvalidTax",
      "type": "error"
    },
    {
      "inputs": [],
      "name": "InvalidTeamCountUpdate",
      "type": "error"
    },
    {
      "inputs": [],
      "name": "LowLiquidity",
      "type": "error"
    },
    {
      "inputs": [],
      "name": "MustBindReferrer",
      "type": "error"
    },
    {
      "inputs": [],
      "name": "NativeTransferFailed",
      "type": "error"
    },
    {
      "inputs": [],
      "name": "NoRewards",
      "type": "error"
    },
    {
      "inputs": [],
      "name": "NotActive",
      "type": "error"
    },
    {
      "inputs": [],
      "name": "NotInitializing",
      "type": "error"
    },
    {
      "inputs": [],
      "name": "NothingToRedeem",
      "type": "error"
    },
    {
      "inputs": [
        {
          "internalType": "address",
          "name": "owner",
          "type": "address"
        }
      ],
      "name": "OwnableInvalidOwner",
      "type": "error"
    },
    {
      "inputs": [
        {
          "internalType": "address",
          "name": "account",
          "type": "address"
        }
      ],
      "name": "OwnableUnauthorizedAccount",
      "type": "error"
    },
    {
      "inputs": [],
      "name": "RecursionDepthExceeded",
      "type": "error"
    },
    {
      "inputs": [],
      "name": "ReentrancyGuardReentrantCall",
      "type": "error"
    },
    {
      "inputs": [],
      "name": "SelfReference",
      "type": "error"
    },
    {
      "inputs": [],
      "name": "SumNot100",
      "type": "error"
    },
    {
      "inputs": [
        {
          "internalType": "address",
          "name": "user",
          "type": "address"
        },
        {
          "internalType": "uint256",
          "name": "expected",
          "type": "uint256"
        },
        {
          "internalType": "uint256",
          "name": "actual",
          "type": "uint256"
        }
      ],
      "name": "TeamCountMismatch",
      "type": "error"
    },
    {
      "inputs": [],
      "name": "TeamCountOverflow",
      "type": "error"
    },
    {
      "inputs": [],
      "name": "TransferFailed",
      "type": "error"
    },
    {
      "inputs": [
        {
          "internalType": "string",
          "name": "reason",
          "type": "string"
        }
      ],
      "name": "TransferFromFailed",
      "type": "error"
    },
    {
      "inputs": [],
      "name": "TransferFromFailedLowLevel",
      "type": "error"
    },
    {
      "inputs": [],
      "name": "UUPSUnauthorizedCallContext",
      "type": "error"
    },
    {
      "inputs": [
        {
          "internalType": "bytes32",
          "name": "slot",
          "type": "bytes32"
        }
      ],
      "name": "UUPSUnsupportedProxiableUUID",
      "type": "error"
    },
    {
      "inputs": [],
      "name": "Unauthorized",
      "type": "error"
    },
    {
      "anonymous": false,
      "inputs": [
        {
          "indexed": false,
          "internalType": "uint256",
          "name": "usersUpdated",
          "type": "uint256"
        }
      ],
      "name": "BatchTeamCountsUpdated",
      "type": "event"
    },
    {
      "anonymous": false,
      "inputs": [
        {
          "indexed": true,
          "internalType": "address",
          "name": "user",
          "type": "address"
        },
        {
          "indexed": true,
          "internalType": "address",
          "name": "referrer",
          "type": "address"
        }
      ],
      "name": "BoundReferrer",
      "type": "event"
    },
    {
      "anonymous": false,
      "inputs": [
        {
          "indexed": false,
          "internalType": "uint256",
          "name": "mcAmount",
          "type": "uint256"
        },
        {
          "indexed": false,
          "internalType": "uint256",
          "name": "jbcBurned",
          "type": "uint256"
        }
      ],
      "name": "BuybackAndBurn",
      "type": "event"
    },
    {
      "anonymous": false,
      "inputs": [
        {
          "indexed": true,
          "internalType": "address",
          "name": "user",
          "type": "address"
        },
        {
          "indexed": false,
          "internalType": "uint256",
          "name": "totalAmount",
          "type": "uint256"
        },
        {
          "indexed": false,
          "internalType": "uint256",
          "name": "mcPart",
          "type": "uint256"
        },
        {
          "indexed": false,
          "internalType": "uint256",
          "name": "jbcValuePart",
          "type": "uint256"
        },
        {
          "indexed": false,
          "internalType": "uint256",
          "name": "jbcPrice",
          "type": "uint256"
        },
        {
          "indexed": false,
          "internalType": "uint256",
          "name": "jbcAmount",
          "type": "uint256"
        }
      ],
      "name": "DifferentialRewardCalculated",
      "type": "event"
    },
    {
      "anonymous": false,
      "inputs": [
        {
          "indexed": true,
          "internalType": "address",
          "name": "user",
          "type": "address"
        },
        {
          "indexed": false,
          "internalType": "uint256",
          "name": "mcAmount",
          "type": "uint256"
        },
        {
          "indexed": false,
          "internalType": "uint256",
          "name": "jbcAmount",
          "type": "uint256"
        },
        {
          "indexed": false,
          "internalType": "uint256",
          "name": "jbcPrice",
          "type": "uint256"
        },
        {
          "indexed": false,
          "internalType": "uint256",
          "name": "timestamp",
          "type": "uint256"
        }
      ],
      "name": "DifferentialRewardDistributed",
      "type": "event"
    },
    {
      "anonymous": false,
      "inputs": [
        {
          "indexed": true,
          "internalType": "address",
          "name": "user",
          "type": "address"
        },
        {
          "indexed": false,
          "internalType": "uint256",
          "name": "totalAmount",
          "type": "uint256"
        },
        {
          "indexed": false,
          "internalType": "uint256",
          "name": "mcPart",
          "type": "uint256"
        },
        {
          "indexed": false,
          "internalType": "uint256",
          "name": "jbcAmount",
          "type": "uint256"
        },
        {
          "indexed": false,
          "internalType": "string",
          "name": "reason",
          "type": "string"
        }
      ],
      "name": "DifferentialRewardFailed",
      "type": "event"
    },
    {
      "anonymous": false,
      "inputs": [
        {
          "indexed": true,
          "internalType": "uint256",
          "name": "stakeId",
          "type": "uint256"
        },
        {
          "indexed": true,
          "internalType": "address",
          "name": "upline",
          "type": "address"
        },
        {
          "indexed": false,
          "internalType": "uint256",
          "name": "amount",
          "type": "uint256"
        }
      ],
      "name": "DifferentialRewardRecorded",
      "type": "event"
    },
    {
      "anonymous": false,
      "inputs": [
        {
          "indexed": true,
          "internalType": "uint256",
          "name": "stakeId",
          "type": "uint256"
        },
        {
          "indexed": true,
          "internalType": "address",
          "name": "upline",
          "type": "address"
        },
        {
          "indexed": false,
          "internalType": "uint256",
          "name": "amount",
          "type": "uint256"
        }
      ],
      "name": "DifferentialRewardReleased",
      "type": "event"
    },
    {
      "anonymous": false,
      "inputs": [
        {
          "indexed": false,
          "internalType": "uint256",
          "name": "direct",
          "type": "uint256"
        },
        {
          "indexed": false,
          "internalType": "uint256",
          "name": "level",
          "type": "uint256"
        },
        {
          "indexed": false,
          "internalType": "uint256",
          "name": "marketing",
          "type": "uint256"
        },
        {
          "indexed": false,
          "internalType": "uint256",
          "name": "buyback",
          "type": "uint256"
        },
        {
          "indexed": false,
          "internalType": "uint256",
          "name": "lpInjection",
          "type": "uint256"
        },
        {
          "indexed": false,
          "internalType": "uint256",
          "name": "treasury",
          "type": "uint256"
        }
      ],
      "name": "DistributionConfigUpdated",
      "type": "event"
    },
    {
      "anonymous": false,
      "inputs": [],
      "name": "EmergencyPaused",
      "type": "event"
    },
    {
      "anonymous": false,
      "inputs": [],
      "name": "EmergencyUnpaused",
      "type": "event"
    },
    {
      "anonymous": false,
      "inputs": [
        {
          "indexed": true,
          "internalType": "address",
          "name": "user",
          "type": "address"
        },
        {
          "indexed": false,
          "internalType": "uint256",
          "name": "ticketId",
          "type": "uint256"
        }
      ],
      "name": "Exited",
      "type": "event"
    },
    {
      "anonymous": false,
      "inputs": [
        {
          "indexed": true,
          "internalType": "address",
          "name": "user",
          "type": "address"
        },
        {
          "indexed": false,
          "internalType": "uint256",
          "name": "amount",
          "type": "uint256"
        }
      ],
      "name": "FeeRefunded",
      "type": "event"
    },
    {
      "anonymous": false,
      "inputs": [
        {
          "indexed": false,
          "internalType": "uint64",
          "name": "version",
          "type": "uint64"
        }
      ],
      "name": "Initialized",
      "type": "event"
    },
    {
      "anonymous": false,
      "inputs": [],
      "name": "LevelConfigsUpdated",
      "type": "event"
    },
    {
      "anonymous": false,
      "inputs": [
        {
          "indexed": false,
          "internalType": "uint256",
          "name": "amount",
          "type": "uint256"
        },
        {
          "indexed": false,
          "internalType": "uint256",
          "name": "newTotal",
          "type": "uint256"
        }
      ],
      "name": "LevelRewardPoolUpdated",
      "type": "event"
    },
    {
      "anonymous": false,
      "inputs": [
        {
          "indexed": true,
          "internalType": "address",
          "name": "to",
          "type": "address"
        },
        {
          "indexed": false,
          "internalType": "uint256",
          "name": "amount",
          "type": "uint256"
        }
      ],
      "name": "LevelRewardPoolWithdrawn",
      "type": "event"
    },
    {
      "anonymous": false,
      "inputs": [
        {
          "indexed": true,
          "internalType": "uint256",
          "name": "ticketId",
          "type": "uint256"
        },
        {
          "indexed": true,
          "internalType": "address",
          "name": "upline",
          "type": "address"
        },
        {
          "indexed": false,
          "internalType": "uint256",
          "name": "amount",
          "type": "uint256"
        }
      ],
      "name": "LevelRewardRecorded",
      "type": "event"
    },
    {
      "anonymous": false,
      "inputs": [
        {
          "indexed": true,
          "internalType": "uint256",
          "name": "ticketId",
          "type": "uint256"
        },
        {
          "indexed": true,
          "internalType": "address",
          "name": "upline",
          "type": "address"
        },
        {
          "indexed": false,
          "internalType": "uint256",
          "name": "amount",
          "type": "uint256"
        }
      ],
      "name": "LevelRewardReleased",
      "type": "event"
    },
    {
      "anonymous": false,
      "inputs": [
        {
          "indexed": false,
          "internalType": "uint256",
          "name": "mcAmount",
          "type": "uint256"
        },
        {
          "indexed": false,
          "internalType": "uint256",
          "name": "jbcAmount",
          "type": "uint256"
        }
      ],
      "name": "LiquidityAdded",
      "type": "event"
    },
    {
      "anonymous": false,
      "inputs": [
        {
          "indexed": true,
          "internalType": "address",
          "name": "user",
          "type": "address"
        },
        {
          "indexed": false,
          "internalType": "uint256",
          "name": "adjustedJbcAmount",
          "type": "uint256"
        }
      ],
      "name": "LiquidityProtectionTriggered",
      "type": "event"
    },
    {
      "anonymous": false,
      "inputs": [
        {
          "indexed": true,
          "internalType": "address",
          "name": "user",
          "type": "address"
        },
        {
          "indexed": false,
          "internalType": "uint256",
          "name": "amount",
          "type": "uint256"
        },
        {
          "indexed": false,
          "internalType": "uint256",
          "name": "cycleDays",
          "type": "uint256"
        },
        {
          "indexed": false,
          "internalType": "uint256",
          "name": "stakeId",
          "type": "uint256"
        }
      ],
      "name": "LiquidityStaked",
      "type": "event"
    },
    {
      "anonymous": false,
      "inputs": [
        {
          "indexed": false,
          "internalType": "bool",
          "name": "enabled",
          "type": "bool"
        }
      ],
      "name": "LiquidityStatusUpdated",
      "type": "event"
    },
    {
      "anonymous": false,
      "inputs": [
        {
          "indexed": true,
          "internalType": "address",
          "name": "from",
          "type": "address"
        },
        {
          "indexed": false,
          "internalType": "uint256",
          "name": "amount",
          "type": "uint256"
        }
      ],
      "name": "NativeMCReceived",
      "type": "event"
    },
    {
      "anonymous": false,
      "inputs": [
        {
          "indexed": true,
          "internalType": "address",
          "name": "to",
          "type": "address"
        },
        {
          "indexed": false,
          "internalType": "uint256",
          "name": "amount",
          "type": "uint256"
        }
      ],
      "name": "NativeMCWithdrawn",
      "type": "event"
    },
    {
      "anonymous": false,
      "inputs": [
        {
          "indexed": true,
          "internalType": "address",
          "name": "previousOwner",
          "type": "address"
        },
        {
          "indexed": true,
          "internalType": "address",
          "name": "newOwner",
          "type": "address"
        }
      ],
      "name": "OwnershipTransferred",
      "type": "event"
    },
    {
      "anonymous": false,
      "inputs": [
        {
          "indexed": true,
          "internalType": "address",
          "name": "user",
          "type": "address"
        },
        {
          "indexed": false,
          "internalType": "uint256",
          "name": "mcRequested",
          "type": "uint256"
        },
        {
          "indexed": false,
          "internalType": "uint256",
          "name": "mcTransferred",
          "type": "uint256"
        },
        {
          "indexed": false,
          "internalType": "uint256",
          "name": "jbcRequested",
          "type": "uint256"
        },
        {
          "indexed": false,
          "internalType": "uint256",
          "name": "jbcTransferred",
          "type": "uint256"
        }
      ],
      "name": "PartialRewardTransfer",
      "type": "event"
    },
    {
      "anonymous": false,
      "inputs": [
        {
          "indexed": false,
          "internalType": "bool",
          "name": "enabled",
          "type": "bool"
        }
      ],
      "name": "RedeemStatusUpdated",
      "type": "event"
    },
    {
      "anonymous": false,
      "inputs": [
        {
          "indexed": true,
          "internalType": "address",
          "name": "user",
          "type": "address"
        },
        {
          "indexed": false,
          "internalType": "uint256",
          "name": "principal",
          "type": "uint256"
        },
        {
          "indexed": false,
          "internalType": "uint256",
          "name": "fee",
          "type": "uint256"
        }
      ],
      "name": "Redeemed",
      "type": "event"
    },
    {
      "anonymous": false,
      "inputs": [
        {
          "indexed": false,
          "internalType": "uint256",
          "name": "newFee",
          "type": "uint256"
        }
      ],
      "name": "RedemptionFeeUpdated",
      "type": "event"
    },
    {
      "anonymous": false,
      "inputs": [
        {
          "indexed": true,
          "internalType": "address",
          "name": "user",
          "type": "address"
        },
        {
          "indexed": true,
          "internalType": "address",
          "name": "from",
          "type": "address"
        },
        {
          "indexed": false,
          "internalType": "uint256",
          "name": "mcAmount",
          "type": "uint256"
        },
        {
          "indexed": false,
          "internalType": "uint256",
          "name": "jbcAmount",
          "type": "uint256"
        },
        {
          "indexed": false,
          "internalType": "uint8",
          "name": "rewardType",
          "type": "uint8"
        },
        {
          "indexed": false,
          "internalType": "uint256",
          "name": "ticketId",
          "type": "uint256"
        }
      ],
      "name": "ReferralRewardPaid",
      "type": "event"
    },
    {
      "anonymous": false,
      "inputs": [
        {
          "indexed": true,
          "internalType": "address",
          "name": "user",
          "type": "address"
        },
        {
          "indexed": true,
          "internalType": "address",
          "name": "oldReferrer",
          "type": "address"
        },
        {
          "indexed": true,
          "internalType": "address",
          "name": "newReferrer",
          "type": "address"
        }
      ],
      "name": "ReferrerChanged",
      "type": "event"
    },
    {
      "anonymous": false,
      "inputs": [
        {
          "indexed": true,
          "internalType": "address",
          "name": "user",
          "type": "address"
        },
        {
          "indexed": false,
          "internalType": "uint256",
          "name": "amount",
          "type": "uint256"
        },
        {
          "indexed": false,
          "internalType": "uint256",
          "name": "cappedAmount",
          "type": "uint256"
        }
      ],
      "name": "RewardCapped",
      "type": "event"
    },
    {
      "anonymous": false,
      "inputs": [
        {
          "indexed": true,
          "internalType": "address",
          "name": "user",
          "type": "address"
        },
        {
          "indexed": false,
          "internalType": "uint256",
          "name": "mcAmount",
          "type": "uint256"
        },
        {
          "indexed": false,
          "internalType": "uint256",
          "name": "jbcAmount",
          "type": "uint256"
        },
        {
          "indexed": false,
          "internalType": "uint8",
          "name": "rewardType",
          "type": "uint8"
        },
        {
          "indexed": false,
          "internalType": "uint256",
          "name": "ticketId",
          "type": "uint256"
        }
      ],
      "name": "RewardClaimed",
      "type": "event"
    },
    {
      "anonymous": false,
      "inputs": [
        {
          "indexed": true,
          "internalType": "address",
          "name": "user",
          "type": "address"
        },
        {
          "indexed": false,
          "internalType": "uint256",
          "name": "amount",
          "type": "uint256"
        },
        {
          "indexed": false,
          "internalType": "uint8",
          "name": "rewardType",
          "type": "uint8"
        }
      ],
      "name": "RewardPaid",
      "type": "event"
    },
    {
      "anonymous": false,
      "inputs": [
        {
          "indexed": true,
          "internalType": "address",
          "name": "user",
          "type": "address"
        },
        {
          "indexed": false,
          "internalType": "uint256",
          "name": "mcAmount",
          "type": "uint256"
        },
        {
          "indexed": false,
          "internalType": "uint256",
          "name": "jbcAmount",
          "type": "uint256"
        },
        {
          "indexed": false,
          "internalType": "string",
          "name": "reason",
          "type": "string"
        }
      ],
      "name": "RewardTransferFailed",
      "type": "event"
    },
    {
      "anonymous": false,
      "inputs": [
        {
          "indexed": false,
          "internalType": "uint256",
          "name": "mcAmount",
          "type": "uint256"
        },
        {
          "indexed": false,
          "internalType": "uint256",
          "name": "jbcAmount",
          "type": "uint256"
        }
      ],
      "name": "SwapReservesWithdrawn",
      "type": "event"
    },
    {
      "anonymous": false,
      "inputs": [
        {
          "indexed": false,
          "internalType": "uint256",
          "name": "buyTax",
          "type": "uint256"
        },
        {
          "indexed": false,
          "internalType": "uint256",
          "name": "sellTax",
          "type": "uint256"
        }
      ],
      "name": "SwapTaxesUpdated",
      "type": "event"
    },
    {
      "anonymous": false,
      "inputs": [
        {
          "indexed": true,
          "internalType": "address",
          "name": "user",
          "type": "address"
        },
        {
          "indexed": false,
          "internalType": "uint256",
          "name": "jbcAmount",
          "type": "uint256"
        },
        {
          "indexed": false,
          "internalType": "uint256",
          "name": "mcAmount",
          "type": "uint256"
        },
        {
          "indexed": false,
          "internalType": "uint256",
          "name": "tax",
          "type": "uint256"
        }
      ],
      "name": "SwappedJBCToMC",
      "type": "event"
    },
    {
      "anonymous": false,
      "inputs": [
        {
          "indexed": true,
          "internalType": "address",
          "name": "user",
          "type": "address"
        },
        {
          "indexed": false,
          "internalType": "uint256",
          "name": "mcAmount",
          "type": "uint256"
        },
        {
          "indexed": false,
          "internalType": "uint256",
          "name": "jbcAmount",
          "type": "uint256"
        },
        {
          "indexed": false,
          "internalType": "uint256",
          "name": "tax",
          "type": "uint256"
        }
      ],
      "name": "SwappedMCToJBC",
      "type": "event"
    },
    {
      "anonymous": false,
      "inputs": [
        {
          "indexed": true,
          "internalType": "uint256",
          "name": "stakeId",
          "type": "uint256"
        },
        {
          "indexed": true,
          "internalType": "address",
          "name": "upline",
          "type": "address"
        },
        {
          "indexed": false,
          "internalType": "uint256",
          "name": "amount",
          "type": "uint256"
        },
        {
          "indexed": false,
          "internalType": "uint256",
          "name": "teamCount",
          "type": "uint256"
        }
      ],
      "name": "TeamBasedRewardCalculated",
      "type": "event"
    },
    {
      "anonymous": false,
      "inputs": [
        {
          "indexed": true,
          "internalType": "address",
          "name": "user",
          "type": "address"
        },
        {
          "indexed": false,
          "internalType": "uint256",
          "name": "oldCount",
          "type": "uint256"
        },
        {
          "indexed": false,
          "internalType": "uint256",
          "name": "newCount",
          "type": "uint256"
        }
      ],
      "name": "TeamCountUpdated",
      "type": "event"
    },
    {
      "anonymous": false,
      "inputs": [
        {
          "indexed": true,
          "internalType": "address",
          "name": "user",
          "type": "address"
        },
        {
          "indexed": false,
          "internalType": "uint256",
          "name": "expected",
          "type": "uint256"
        },
        {
          "indexed": false,
          "internalType": "uint256",
          "name": "actual",
          "type": "uint256"
        }
      ],
      "name": "TeamCountValidationFailed",
      "type": "event"
    },
    {
      "anonymous": false,
      "inputs": [
        {
          "indexed": true,
          "internalType": "address",
          "name": "user",
          "type": "address"
        },
        {
          "indexed": false,
          "internalType": "uint256",
          "name": "ticketId",
          "type": "uint256"
        },
        {
          "indexed": false,
          "internalType": "uint256",
          "name": "amount",
          "type": "uint256"
        }
      ],
      "name": "TicketExpired",
      "type": "event"
    },
    {
      "anonymous": false,
      "inputs": [
        {
          "indexed": false,
          "internalType": "uint256",
          "name": "newDuration",
          "type": "uint256"
        }
      ],
      "name": "TicketFlexibilityDurationUpdated",
      "type": "event"
    },
    {
      "anonymous": false,
      "inputs": [
        {
          "indexed": true,
          "internalType": "address",
          "name": "user",
          "type": "address"
        },
        {
          "indexed": false,
          "internalType": "uint256",
          "name": "amount",
          "type": "uint256"
        },
        {
          "indexed": false,
          "internalType": "uint256",
          "name": "ticketId",
          "type": "uint256"
        }
      ],
      "name": "TicketPurchased",
      "type": "event"
    },
    {
      "anonymous": false,
      "inputs": [
        {
          "indexed": false,
          "internalType": "address",
          "name": "token",
          "type": "address"
        },
        {
          "indexed": false,
          "internalType": "address",
          "name": "to",
          "type": "address"
        },
        {
          "indexed": false,
          "internalType": "uint256",
          "name": "amount",
          "type": "uint256"
        }
      ],
      "name": "TokensRescued",
      "type": "event"
    },
    {
      "anonymous": false,
      "inputs": [
        {
          "indexed": true,
          "internalType": "address",
          "name": "implementation",
          "type": "address"
        }
      ],
      "name": "Upgraded",
      "type": "event"
    },
    {
      "anonymous": false,
      "inputs": [
        {
          "indexed": true,
          "internalType": "address",
          "name": "user",
          "type": "address"
        },
        {
          "indexed": false,
          "internalType": "uint8",
          "name": "field",
          "type": "uint8"
        },
        {
          "indexed": false,
          "internalType": "uint256",
          "name": "value",
          "type": "uint256"
        }
      ],
      "name": "UserDataFieldUpdated",
      "type": "event"
    },
    {
      "anonymous": false,
      "inputs": [
        {
          "indexed": true,
          "internalType": "address",
          "name": "user",
          "type": "address"
        },
        {
          "indexed": false,
          "internalType": "uint256",
          "name": "oldLevel",
          "type": "uint256"
        },
        {
          "indexed": false,
          "internalType": "uint256",
          "name": "newLevel",
          "type": "uint256"
        },
        {
          "indexed": false,
          "internalType": "uint256",
          "name": "teamCount",
          "type": "uint256"
        }
      ],
      "name": "UserLevelChanged",
      "type": "event"
    },
    {
      "anonymous": false,
      "inputs": [
        {
          "indexed": false,
          "internalType": "address",
          "name": "marketing",
          "type": "address"
        },
        {
          "indexed": false,
          "internalType": "address",
          "name": "treasury",
          "type": "address"
        },
        {
          "indexed": false,
          "internalType": "address",
          "name": "lpInjection",
          "type": "address"
        },
        {
          "indexed": false,
          "internalType": "address",
          "name": "buyback",
          "type": "address"
        }
      ],
      "name": "WalletsUpdated",
      "type": "event"
    },
    {
      "inputs": [],
      "name": "MAX_PRICE_IMPACT",
      "outputs": [
        {
          "internalType": "uint256",
          "name": "",
          "type": "uint256"
        }
      ],
      "stateMutability": "view",
      "type": "function"
    },
    {
      "inputs": [],
      "name": "MIN_LIQUIDITY",
      "outputs": [
        {
          "internalType": "uint256",
          "name": "",
          "type": "uint256"
        }
      ],
      "stateMutability": "view",
      "type": "function"
    },
    {
      "inputs": [],
      "name": "REWARD_DIFFERENTIAL",
      "outputs": [
        {
          "internalType": "uint8",
          "name": "",
          "type": "uint8"
        }
      ],
      "stateMutability": "view",
      "type": "function"
    },
    {
      "inputs": [],
      "name": "REWARD_DIRECT",
      "outputs": [
        {
          "internalType": "uint8",
          "name": "",
          "type": "uint8"
        }
      ],
      "stateMutability": "view",
      "type": "function"
    },
    {
      "inputs": [],
      "name": "REWARD_DYNAMIC",
      "outputs": [
        {
          "internalType": "uint8",
          "name": "",
          "type": "uint8"
        }
      ],
      "stateMutability": "view",
      "type": "function"
    },
    {
      "inputs": [],
      "name": "REWARD_LEVEL",
      "outputs": [
        {
          "internalType": "uint8",
          "name": "",
          "type": "uint8"
        }
      ],
      "stateMutability": "view",
      "type": "function"
    },
    {
      "inputs": [],
      "name": "REWARD_STATIC",
      "outputs": [
        {
          "internalType": "uint8",
          "name": "",
          "type": "uint8"
        }
      ],
      "stateMutability": "view",
      "type": "function"
    },
    {
      "inputs": [],
      "name": "SECONDS_IN_UNIT",
      "outputs": [
        {
          "internalType": "uint256",
          "name": "",
          "type": "uint256"
        }
      ],
      "stateMutability": "view",
      "type": "function"
    },
    {
      "inputs": [],
      "name": "UPGRADE_INTERFACE_VERSION",
      "outputs": [
        {
          "internalType": "string",
          "name": "",
          "type": "string"
        }
      ],
      "stateMutability": "view",
      "type": "function"
    },
    {
      "inputs": [
        {
          "internalType": "uint256",
          "name": "jbcAmount",
          "type": "uint256"
        }
      ],
      "name": "addLiquidity",
      "outputs": [],
      "stateMutability": "payable",
      "type": "function"
    },
    {
      "inputs": [
        {
          "internalType": "address",
          "name": "user",
          "type": "address"
        },
        {
          "internalType": "address",
          "name": "newReferrer",
          "type": "address"
        }
      ],
      "name": "adminSetReferrer",
      "outputs": [],
      "stateMutability": "nonpayable",
      "type": "function"
    },
    {
      "inputs": [
        {
          "internalType": "address",
          "name": "_referrer",
          "type": "address"
        }
      ],
      "name": "bindReferrer",
      "outputs": [],
      "stateMutability": "nonpayable",
      "type": "function"
    },
    {
      "inputs": [],
      "name": "buyTicket",
      "outputs": [],
      "stateMutability": "payable",
      "type": "function"
    },
    {
      "inputs": [],
      "name": "buybackPercent",
      "outputs": [
        {
          "internalType": "uint256",
          "name": "",
          "type": "uint256"
        }
      ],
      "stateMutability": "view",
      "type": "function"
    },
    {
      "inputs": [],
      "name": "buybackWallet",
      "outputs": [
        {
          "internalType": "address",
          "name": "",
          "type": "address"
        }
      ],
      "stateMutability": "view",
      "type": "function"
    },
    {
      "inputs": [
        {
          "internalType": "uint256",
          "name": "teamCount",
          "type": "uint256"
        }
      ],
      "name": "calculateLevel",
      "outputs": [
        {
          "internalType": "uint256",
          "name": "level",
          "type": "uint256"
        },
        {
          "internalType": "uint256",
          "name": "percent",
          "type": "uint256"
        }
      ],
      "stateMutability": "pure",
      "type": "function"
    },
    {
      "inputs": [],
      "name": "claimRewards",
      "outputs": [],
      "stateMutability": "nonpayable",
      "type": "function"
    },
    {
      "inputs": [],
      "name": "dailyBurn",
      "outputs": [],
      "stateMutability": "nonpayable",
      "type": "function"
    },
    {
      "inputs": [
        {
          "internalType": "address",
          "name": "",
          "type": "address"
        },
        {
          "internalType": "uint256",
          "name": "",
          "type": "uint256"
        }
      ],
      "name": "directReferrals",
      "outputs": [
        {
          "internalType": "address",
          "name": "",
          "type": "address"
        }
      ],
      "stateMutability": "view",
      "type": "function"
    },
    {
      "inputs": [],
      "name": "directRewardPercent",
      "outputs": [
        {
          "internalType": "uint256",
          "name": "",
          "type": "uint256"
        }
      ],
      "stateMutability": "view",
      "type": "function"
    },
    {
      "inputs": [],
      "name": "emergencyPause",
      "outputs": [],
      "stateMutability": "nonpayable",
      "type": "function"
    },
    {
      "inputs": [],
      "name": "emergencyPaused",
      "outputs": [
        {
          "internalType": "bool",
          "name": "",
          "type": "bool"
        }
      ],
      "stateMutability": "view",
      "type": "function"
    },
    {
      "inputs": [],
      "name": "emergencyUnpause",
      "outputs": [],
      "stateMutability": "nonpayable",
      "type": "function"
    },
    {
      "inputs": [
        {
          "internalType": "address",
          "name": "_to",
          "type": "address"
        },
        {
          "internalType": "uint256",
          "name": "_amount",
          "type": "uint256"
        }
      ],
      "name": "emergencyWithdrawNative",
      "outputs": [],
      "stateMutability": "nonpayable",
      "type": "function"
    },
    {
      "inputs": [],
      "name": "executeBuybackAndBurn",
      "outputs": [],
      "stateMutability": "payable",
      "type": "function"
    },
    {
      "inputs": [
        {
          "internalType": "address",
          "name": "user",
          "type": "address"
        }
      ],
      "name": "getDirectReferrals",
      "outputs": [
        {
          "internalType": "address[]",
          "name": "",
          "type": "address[]"
        }
      ],
      "stateMutability": "view",
      "type": "function"
    },
    {
      "inputs": [
        {
          "internalType": "uint256",
          "name": "activeDirects",
          "type": "uint256"
        }
      ],
      "name": "getLevelRewardLayers",
      "outputs": [
        {
          "internalType": "uint256",
          "name": "",
          "type": "uint256"
        }
      ],
      "stateMutability": "pure",
      "type": "function"
    },
    {
      "inputs": [
        {
          "internalType": "address",
          "name": "user",
          "type": "address"
        }
      ],
      "name": "getUserDynamicRewards",
      "outputs": [
        {
          "internalType": "uint256",
          "name": "totalEarned",
          "type": "uint256"
        },
        {
          "internalType": "uint256",
          "name": "totalClaimed",
          "type": "uint256"
        },
        {
          "internalType": "uint256",
          "name": "pendingAmount",
          "type": "uint256"
        },
        {
          "internalType": "uint256",
          "name": "claimableAmount",
          "type": "uint256"
        }
      ],
      "stateMutability": "view",
      "type": "function"
    },
    {
      "inputs": [
        {
          "internalType": "address",
          "name": "user",
          "type": "address"
        }
      ],
      "name": "getUserLevel",
      "outputs": [
        {
          "internalType": "uint256",
          "name": "level",
          "type": "uint256"
        },
        {
          "internalType": "uint256",
          "name": "percent",
          "type": "uint256"
        },
        {
          "internalType": "uint256",
          "name": "teamCount",
          "type": "uint256"
        }
      ],
      "stateMutability": "view",
      "type": "function"
    },
    {
      "inputs": [
        {
          "internalType": "address",
          "name": "_jbcToken",
          "type": "address"
        },
        {
          "internalType": "address",
          "name": "_marketing",
          "type": "address"
        },
        {
          "internalType": "address",
          "name": "_treasury",
          "type": "address"
        },
        {
          "internalType": "address",
          "name": "_lpInjection",
          "type": "address"
        },
        {
          "internalType": "address",
          "name": "_buybackWallet",
          "type": "address"
        }
      ],
      "name": "initialize",
      "outputs": [],
      "stateMutability": "nonpayable",
      "type": "function"
    },
    {
      "inputs": [],
      "name": "jbcToken",
      "outputs": [
        {
          "internalType": "contract IJBC",
          "name": "",
          "type": "address"
        }
      ],
      "stateMutability": "view",
      "type": "function"
    },
    {
      "inputs": [],
      "name": "lastBurnTime",
      "outputs": [
        {
          "internalType": "uint256",
          "name": "",
          "type": "uint256"
        }
      ],
      "stateMutability": "view",
      "type": "function"
    },
    {
      "inputs": [
        {
          "internalType": "uint256",
          "name": "",
          "type": "uint256"
        }
      ],
      "name": "levelConfigs",
      "outputs": [
        {
          "internalType": "uint256",
          "name": "minDirects",
          "type": "uint256"
        },
        {
          "internalType": "uint256",
          "name": "level",
          "type": "uint256"
        },
        {
          "internalType": "uint256",
          "name": "percent",
          "type": "uint256"
        }
      ],
      "stateMutability": "view",
      "type": "function"
    },
    {
      "inputs": [],
      "name": "levelRewardPercent",
      "outputs": [
        {
          "internalType": "uint256",
          "name": "",
          "type": "uint256"
        }
      ],
      "stateMutability": "view",
      "type": "function"
    },
    {
      "inputs": [],
      "name": "levelRewardPool",
      "outputs": [
        {
          "internalType": "uint256",
          "name": "",
          "type": "uint256"
        }
      ],
      "stateMutability": "view",
      "type": "function"
    },
    {
      "inputs": [],
      "name": "liquidityEnabled",
      "outputs": [
        {
          "internalType": "bool",
          "name": "",
          "type": "bool"
        }
      ],
      "stateMutability": "view",
      "type": "function"
    },
    {
      "inputs": [],
      "name": "lpInjectionPercent",
      "outputs": [
        {
          "internalType": "uint256",
          "name": "",
          "type": "uint256"
        }
      ],
      "stateMutability": "view",
      "type": "function"
    },
    {
      "inputs": [],
      "name": "lpInjectionWallet",
      "outputs": [
        {
          "internalType": "address",
          "name": "",
          "type": "address"
        }
      ],
      "stateMutability": "view",
      "type": "function"
    },
    {
      "inputs": [],
      "name": "marketingPercent",
      "outputs": [
        {
          "internalType": "uint256",
          "name": "",
          "type": "uint256"
        }
      ],
      "stateMutability": "view",
      "type": "function"
    },
    {
      "inputs": [],
      "name": "marketingWallet",
      "outputs": [
        {
          "internalType": "address",
          "name": "",
          "type": "address"
        }
      ],
      "stateMutability": "view",
      "type": "function"
    },
    {
      "inputs": [],
      "name": "nextStakeId",
      "outputs": [
        {
          "internalType": "uint256",
          "name": "",
          "type": "uint256"
        }
      ],
      "stateMutability": "view",
      "type": "function"
    },
    {
      "inputs": [],
      "name": "nextTicketId",
      "outputs": [
        {
          "internalType": "uint256",
          "name": "",
          "type": "uint256"
        }
      ],
      "stateMutability": "view",
      "type": "function"
    },
    {
      "inputs": [],
      "name": "owner",
      "outputs": [
        {
          "internalType": "address",
          "name": "",
          "type": "address"
        }
      ],
      "stateMutability": "view",
      "type": "function"
    },
    {
      "inputs": [],
      "name": "priceOracle",
      "outputs": [
        {
          "internalType": "address",
          "name": "",
          "type": "address"
        }
      ],
      "stateMutability": "view",
      "type": "function"
    },
    {
      "inputs": [],
      "name": "proxiableUUID",
      "outputs": [
        {
          "internalType": "bytes32",
          "name": "",
          "type": "bytes32"
        }
      ],
      "stateMutability": "view",
      "type": "function"
    },
    {
      "inputs": [],
      "name": "redeem",
      "outputs": [],
      "stateMutability": "nonpayable",
      "type": "function"
    },
    {
      "inputs": [],
      "name": "redeemEnabled",
      "outputs": [
        {
          "internalType": "bool",
          "name": "",
          "type": "bool"
        }
      ],
      "stateMutability": "view",
      "type": "function"
    },
    {
      "inputs": [],
      "name": "redemptionFeePercent",
      "outputs": [
        {
          "internalType": "uint256",
          "name": "",
          "type": "uint256"
        }
      ],
      "stateMutability": "view",
      "type": "function"
    },
    {
      "inputs": [],
      "name": "renounceOwnership",
      "outputs": [],
      "stateMutability": "nonpayable",
      "type": "function"
    },
    {
      "inputs": [
        {
          "internalType": "address",
          "name": "_token",
          "type": "address"
        },
        {
          "internalType": "address",
          "name": "_to",
          "type": "address"
        },
        {
          "internalType": "uint256",
          "name": "_amount",
          "type": "uint256"
        }
      ],
      "name": "rescueTokens",
      "outputs": [],
      "stateMutability": "nonpayable",
      "type": "function"
    },
    {
      "inputs": [
        {
          "internalType": "uint256",
          "name": "_direct",
          "type": "uint256"
        },
        {
          "internalType": "uint256",
          "name": "_level",
          "type": "uint256"
        },
        {
          "internalType": "uint256",
          "name": "_marketing",
          "type": "uint256"
        },
        {
          "internalType": "uint256",
          "name": "_buyback",
          "type": "uint256"
        },
        {
          "internalType": "uint256",
          "name": "_lpInjection",
          "type": "uint256"
        },
        {
          "internalType": "uint256",
          "name": "_treasury",
          "type": "uint256"
        }
      ],
      "name": "setDistributionConfig",
      "outputs": [],
      "stateMutability": "nonpayable",
      "type": "function"
    },
    {
      "inputs": [
        {
          "internalType": "bool",
          "name": "_liquidityEnabled",
          "type": "bool"
        },
        {
          "internalType": "bool",
          "name": "_redeemEnabled",
          "type": "bool"
        }
      ],
      "name": "setOperationalStatus",
      "outputs": [],
      "stateMutability": "nonpayable",
      "type": "function"
    },
    {
      "inputs": [
        {
          "internalType": "uint256",
          "name": "_fee",
          "type": "uint256"
        }
      ],
      "name": "setRedemptionFeePercent",
      "outputs": [],
      "stateMutability": "nonpayable",
      "type": "function"
    },
    {
      "inputs": [
        {
          "internalType": "uint256",
          "name": "_buyTax",
          "type": "uint256"
        },
        {
          "internalType": "uint256",
          "name": "_sellTax",
          "type": "uint256"
        }
      ],
      "name": "setSwapTaxes",
      "outputs": [],
      "stateMutability": "nonpayable",
      "type": "function"
    },
    {
      "inputs": [
        {
          "internalType": "uint256",
          "name": "_duration",
          "type": "uint256"
        }
      ],
      "name": "setTicketFlexibilityDuration",
      "outputs": [],
      "stateMutability": "nonpayable",
      "type": "function"
    },
    {
      "inputs": [
        {
          "internalType": "address",
          "name": "_marketing",
          "type": "address"
        },
        {
          "internalType": "address",
          "name": "_treasury",
          "type": "address"
        },
        {
          "internalType": "address",
          "name": "_lpInjection",
          "type": "address"
        },
        {
          "internalType": "address",
          "name": "_buyback",
          "type": "address"
        }
      ],
      "name": "setWallets",
      "outputs": [],
      "stateMutability": "nonpayable",
      "type": "function"
    },
    {
      "inputs": [
        {
          "internalType": "uint256",
          "name": "cycleDays",
          "type": "uint256"
        }
      ],
      "name": "stakeLiquidity",
      "outputs": [],
      "stateMutability": "payable",
      "type": "function"
    },
    {
      "inputs": [
        {
          "internalType": "uint256",
          "name": "",
          "type": "uint256"
        }
      ],
      "name": "stakeOwner",
      "outputs": [
        {
          "internalType": "address",
          "name": "",
          "type": "address"
        }
      ],
      "stateMutability": "view",
      "type": "function"
    },
    {
      "inputs": [
        {
          "internalType": "uint256",
          "name": "",
          "type": "uint256"
        },
        {
          "internalType": "uint256",
          "name": "",
          "type": "uint256"
        }
      ],
      "name": "stakePendingRewards",
      "outputs": [
        {
          "internalType": "address",
          "name": "upline",
          "type": "address"
        },
        {
          "internalType": "uint256",
          "name": "amount",
          "type": "uint256"
        }
      ],
      "stateMutability": "view",
      "type": "function"
    },
    {
      "inputs": [],
      "name": "swapBuyTax",
      "outputs": [
        {
          "internalType": "uint256",
          "name": "",
          "type": "uint256"
        }
      ],
      "stateMutability": "view",
      "type": "function"
    },
    {
      "inputs": [
        {
          "internalType": "uint256",
          "name": "jbcAmount",
          "type": "uint256"
        }
      ],
      "name": "swapJBCToMC",
      "outputs": [],
      "stateMutability": "nonpayable",
      "type": "function"
    },
    {
      "inputs": [],
      "name": "swapMCToJBC",
      "outputs": [],
      "stateMutability": "payable",
      "type": "function"
    },
    {
      "inputs": [],
      "name": "swapReserveJBC",
      "outputs": [
        {
          "internalType": "uint256",
          "name": "",
          "type": "uint256"
        }
      ],
      "stateMutability": "view",
      "type": "function"
    },
    {
      "inputs": [],
      "name": "swapReserveMC",
      "outputs": [
        {
          "internalType": "uint256",
          "name": "",
          "type": "uint256"
        }
      ],
      "stateMutability": "view",
      "type": "function"
    },
    {
      "inputs": [],
      "name": "swapSellTax",
      "outputs": [
        {
          "internalType": "uint256",
          "name": "",
          "type": "uint256"
        }
      ],
      "stateMutability": "view",
      "type": "function"
    },
    {
      "inputs": [],
      "name": "ticketFlexibilityDuration",
      "outputs": [
        {
          "internalType": "uint256",
          "name": "",
          "type": "uint256"
        }
      ],
      "stateMutability": "view",
      "type": "function"
    },
    {
      "inputs": [
        {
          "internalType": "uint256",
          "name": "",
          "type": "uint256"
        }
      ],
      "name": "ticketOwner",
      "outputs": [
        {
          "internalType": "address",
          "name": "",
          "type": "address"
        }
      ],
      "stateMutability": "view",
      "type": "function"
    },
    {
      "inputs": [
        {
          "internalType": "uint256",
          "name": "",
          "type": "uint256"
        },
        {
          "internalType": "uint256",
          "name": "",
          "type": "uint256"
        }
      ],
      "name": "ticketPendingRewards",
      "outputs": [
        {
          "internalType": "address",
          "name": "upline",
          "type": "address"
        },
        {
          "internalType": "uint256",
          "name": "amount",
          "type": "uint256"
        }
      ],
      "stateMutability": "view",
      "type": "function"
    },
    {
      "inputs": [
        {
          "internalType": "address",
          "name": "",
          "type": "address"
        }
      ],
      "name": "totalDynamicClaimed",
      "outputs": [
        {
          "internalType": "uint256",
          "name": "",
          "type": "uint256"
        }
      ],
      "stateMutability": "view",
      "type": "function"
    },
    {
      "inputs": [
        {
          "internalType": "address",
          "name": "",
          "type": "address"
        }
      ],
      "name": "totalDynamicEarned",
      "outputs": [
        {
          "internalType": "uint256",
          "name": "",
          "type": "uint256"
        }
      ],
      "stateMutability": "view",
      "type": "function"
    },
    {
      "inputs": [
        {
          "internalType": "address",
          "name": "newOwner",
          "type": "address"
        }
      ],
      "name": "transferOwnership",
      "outputs": [],
      "stateMutability": "nonpayable",
      "type": "function"
    },
    {
      "inputs": [],
      "name": "treasuryPercent",
      "outputs": [
        {
          "internalType": "uint256",
          "name": "",
          "type": "uint256"
        }
      ],
      "stateMutability": "view",
      "type": "function"
    },
    {
      "inputs": [],
      "name": "treasuryWallet",
      "outputs": [
        {
          "internalType": "address",
          "name": "",
          "type": "address"
        }
      ],
      "stateMutability": "view",
      "type": "function"
    },
    {
      "inputs": [
        {
          "internalType": "address",
          "name": "newImplementation",
          "type": "address"
        },
        {
          "internalType": "bytes",
          "name": "data",
          "type": "bytes"
        }
      ],
      "name": "upgradeToAndCall",
      "outputs": [],
      "stateMutability": "payable",
      "type": "function"
    },
    {
      "inputs": [
        {
          "internalType": "address",
          "name": "",
          "type": "address"
        }
      ],
      "name": "userInfo",
      "outputs": [
        {
          "internalType": "address",
          "name": "referrer",
          "type": "address"
        },
        {
          "internalType": "uint256",
          "name": "activeDirects",
          "type": "uint256"
        },
        {
          "internalType": "uint256",
          "name": "teamCount",
          "type": "uint256"
        },
        {
          "internalType": "uint256",
          "name": "totalRevenue",
          "type": "uint256"
        },
        {
          "internalType": "uint256",
          "name": "currentCap",
          "type": "uint256"
        },
        {
          "internalType": "bool",
          "name": "isActive",
          "type": "bool"
        },
        {
          "internalType": "uint256",
          "name": "refundFeeAmount",
          "type": "uint256"
        },
        {
          "internalType": "uint256",
          "name": "teamTotalVolume",
          "type": "uint256"
        },
        {
          "internalType": "uint256",
          "name": "teamTotalCap",
          "type": "uint256"
        },
        {
          "internalType": "uint256",
          "name": "maxTicketAmount",
          "type": "uint256"
        },
        {
          "internalType": "uint256",
          "name": "maxSingleTicketAmount",
          "type": "uint256"
        }
      ],
      "stateMutability": "view",
      "type": "function"
    },
    {
      "inputs": [
        {
          "internalType": "address",
          "name": "",
          "type": "address"
        },
        {
          "internalType": "uint256",
          "name": "",
          "type": "uint256"
        }
      ],
      "name": "userStakes",
      "outputs": [
        {
          "internalType": "uint256",
          "name": "id",
          "type": "uint256"
        },
        {
          "internalType": "uint256",
          "name": "amount",
          "type": "uint256"
        },
        {
          "internalType": "uint256",
          "name": "startTime",
          "type": "uint256"
        },
        {
          "internalType": "uint256",
          "name": "cycleDays",
          "type": "uint256"
        },
        {
          "internalType": "bool",
          "name": "active",
          "type": "bool"
        },
        {
          "internalType": "uint256",
          "name": "paid",
          "type": "uint256"
        }
      ],
      "stateMutability": "view",
      "type": "function"
    },
    {
      "inputs": [
        {
          "internalType": "address",
          "name": "",
          "type": "address"
        }
      ],
      "name": "userTicket",
      "outputs": [
        {
          "internalType": "uint256",
          "name": "ticketId",
          "type": "uint256"
        },
        {
          "internalType": "uint256",
          "name": "amount",
          "type": "uint256"
        },
        {
          "internalType": "uint256",
          "name": "purchaseTime",
          "type": "uint256"
        },
        {
          "internalType": "bool",
          "name": "exited",
          "type": "bool"
        }
      ],
      "stateMutability": "view",
      "type": "function"
    },
    {
      "inputs": [
        {
          "internalType": "address",
          "name": "_to",
          "type": "address"
        },
        {
          "internalType": "uint256",
          "name": "_amount",
          "type": "uint256"
        }
      ],
      "name": "withdrawLevelRewardPool",
      "outputs": [],
      "stateMutability": "nonpayable",
      "type": "function"
    },
    {
      "inputs": [
        {
          "internalType": "address",
          "name": "_toMC",
          "type": "address"
        },
        {
          "internalType": "uint256",
          "name": "_amountMC",
          "type": "uint256"
        },
        {
          "internalType": "address",
          "name": "_toJBC",
          "type": "address"
        },
        {
          "internalType": "uint256",
          "name": "_amountJBC",
          "type": "uint256"
        }
      ],
      "name": "withdrawSwapReserves",
      "outputs": [],
      "stateMutability": "nonpayable",
      "type": "function"
    },
    {
      "stateMutability": "payable",
      "type": "receive"
    }
  ],
  "bytecode": "0x60a08060405234620000d157306080527ff0c57e16840df040f15088dc2f81fe391c3923bec73e23a9662efc9c229c6a009081549060ff8260401c16620000c257506001600160401b036002600160401b0319828216016200007c575b6040516155239081620000d78239608051818181611f7401526123b30152f35b6001600160401b031990911681179091556040519081527fc7f505b2f371ae2175ee4913f4499e1f2633a7b5936321eed1cdaeb6115181d290602090a13880806200005c565b63f92ee8a960e01b8152600490fd5b600080fdfe60806040526004361015610056575b361561001957600080fd5b61002534601654613696565b6016556040513481527fc8382e3e3003d34021113f35bf95ee86b77a09ec08c4eb3cbe64076e60468f4e60203392a2005b6000803560e01c806301d62efb146132f357806304ef9d58146132d557806304f618cb1461310657806305ad3935146130ab5780630e2be2101461308f5780631427f616146130735780631459457a14612e795780631788513c14612e52578063182c84cc14612e2b5780631959a00214612d795780631d0dac7614612d5b57806321923bde14612d0c57806321b77d6314612ce857806321f483d314612ca05780632630c12f14612c73578063263f30b314612c3b57806327c830a914612c1857806327f082f414612bfa578063350763731461266b578063372500ab1461264a5780633dbd46bd146126175780634348b59b146125d85780634626402b146125af578063488b5d97146125915780634a4e3bd5146125475780634f1ef2861461233857806351858e27146122eb57806351c6590a1461219c57806352778b0514611fcc57806352d1902d14611f615780636031a52f14611f435780636839b5fa14611f265780636dd6682714611f08578063715018a614611eaf57806375506c9614611e9157806375f0a87414611e6857806377a2a54014611e4a578063813380cd14611e1c57806381eeef5c14611d3757806383672f3e14611c3f578063841d308b146119e55780638710bcaa1461198457806388481b611461196857806388fd4d331461193f5780638a859a85146119235780638c0eaa48146119075780638da5cb5b146118d157806390b0eb51146118815780639370b0801461186357806398ad675a1461182a57806399b6024d1461179f5780639b788504146117235780639d99eca4146116d5578063a1d7d1a91461166f578063a2af92261461163c578063ac8f50aa146115e8578063ad3cb1cc146115a6578063b048a4bb14611583578063b5d5b5fa146114f5578063b759936b146114d7578063bd594dcf146114b9578063be040fb014610fa4578063c2ff12fc14610f71578063ccf6194414610f53578063cea9d26f14610e60578063ceaa366d14610e42578063d0f1647014610db8578063d2c8e0e514610d09578063d2f8253614610ce3578063d4f0014214610b87578063d8020a1814610b69578063dce3dc1f14610b3e578063deab8aea14610b15578063dec7fa3b14610af7578063e306744914610ad9578063e4412f6814610abb578063ece7126614610a6d578063edca914c146103f65763f2fde38b146103c7575061000e565b346103f35760203660031901126103f3576103f06103e361339a565b6103eb613f31565b613ecf565b80f35b80fd5b50806003193601126103f35761040a614019565b60ff604e5416610a5b57338152600e60205260408120546001600160a01b031615610a495761043833614841565b68056bc75e2d6310000034141580610a36575b80610a23575b80610a10575b6109fe57338152600f6020526040812060038101805460ff161561093357610480601854613631565b80601855825534600183015542600283015560ff198154169055338252600e602052816003604082200155600334023481046003143415171561091f57338352600e60205260046040842001555b600a6001820154338452600e60205260408420906009820180548211610917575b5050018054341161090e575b5080548252601b6020908152604080842080546001600160a01b031916339081179091558452600e9091528220546001600160a01b0316801515806108fa575b156108d857610558606461055160055434613656565b0482614a0d565b90816108a3575b50505b338252600e6020526040822054829182916001600160a01b0316908290348015908004600114171561088f579394915b6001600160a01b038116151580610885575b8061087b575b156106ae576001600160a01b0381168452600e60205260408420600581015460ff161561068f575060018060a01b03811690818552600e602052836105f56001604088200154613601565b1161062f575b508352600e60205260408320546001600160a01b0316916106259061061f90613631565b95613631565b935b939491610592565b61063d906064340490614b46565b80156105fb57918261064e91613696565b91338552600f60205260408520546040519182528560208301526003604083015260608201528160008051602061536e83398151915260803393a3386105fb565b5492956001600160a01b03909316926106a89150613631565b93610627565b83856106c88460646106c260065434613656565b04613689565b80610836575b5060018060a01b03600154166106f560079160646106ee60075434613656565b0490614108565b606461070360085434613656565b048061081a575b5061072760018060a01b036003541660646106ee60095434613656565b61074360018060a01b036002541660646106ee600a5434613656565b336000908152600e6020526040812054909234151592916001600160a01b03165b6001600160a01b031680151580610810575b156107bd57600052600e6020526107a2836040600020906107a8575b546001600160a01b031694613631565b93610764565b8381016107b6348254613696565b9055610792565b85826107c833614056565b546040519034825260208201527f2a91574e12ad96234e84923e146b0946ecfb871cd8d5534dc1fdcbe87a7c01b360403392a260016000805160206154ae8339815191525580f35b50601e8510610776565b60045461083091906001600160a01b0316614108565b8361070a565b6040816108667fca2e2bff26d2adb9fe155e9265350494c16751676879cb7ced9141e0fcf3934393601e54613696565b80601e5582519182526020820152a1826106ce565b50601486106105aa565b50600f83106105a4565b634e487b7160e01b84526011600452602484fd5b825460405192835284602084015260026040840152606083015260008051602061536e83398151915260803393a3388061055f565b506108f560018060a01b036001541660646106ee60055434613656565b610562565b5080835260ff60056040852001541661053b565b349055386104fb565b5538806104ef565b634e487b7160e01b83526011600452602483fd5b60018201805480610999575061094a601854613631565b80601855835534905542600283015560ff198154169055338252600e602052816003604082200155600334023481046003143415171561091f57338352600e60205260046040842001556104ce565b6109a69192503490613696565b9055338252600e60205260ff6005604084200154166109f3575b600334023481046003143415171561091f57338352600e6020526109ec60046040852001918254613696565b90556104ce565b4260028201556109c0565b60405163162908e360e11b8152600490fd5b50683635c9adc5dea00000341415610457565b50681b1ae4d6e2ef500000341415610451565b50681043561a882930000034141561044b565b604051635359877d60e01b8152600490fd5b60405163ab35696f60e01b8152600490fd5b50346103f35760203660031901126103f3577fc7f6975dcffc536e6e57dd1d1dea810fff534a70563baf2d6f977b119bd00e1b6020600435610aad613f31565b80600b55604051908152a180f35b50346103f357806003193601126103f3576020600854604051908152f35b50346103f357806003193601126103f3576020601a54604051908152f35b50346103f357806003193601126103f3576020600b54604051908152f35b50346103f357806003193601126103f3576004546040516001600160a01b039091168152602090f35b50346103f35760203660031901126103f3576040610b5d600435613f6a565b82519182526020820152f35b50346103f357806003193601126103f3576020600754604051908152f35b50346103f35760803660031901126103f357610ba161339a565b60243590610bad6133c6565b60643591610bb9613f31565b83610c8d575b5081610be8575b5060008051602061540e8339815191529160409182519182526020820152a180f35b91602082610c2794610bfc82601754613689565b60175560018060a01b03875416908760405180988195829463a9059cbb60e01b845260048401613505565b03925af1918215610c825760008051602061540e83398151915293604093610c53575b50915091610bc6565b610c749060203d602011610c7b575b610c6c8183613495565b8101906136a3565b5038610c4a565b503d610c62565b6040513d86823e3d90fd5b834710610cd157848080868194610ca682601654613689565b6016555af1610cb3613b90565b5015610cbf5738610bbf565b604051633d2cec6f60e21b8152600490fd5b60405163dbc3a71f60e01b8152600490fd5b50346103f357806003193601126103f357602060ff60155460081c166040519015158152f35b50346103f357602090816003193601126103f3576001600160a01b03919082610d3061339a565b168152601182526040812090604051808484549182815201908194845285842090845b818110610da25750505081610d69910382613495565b6040519380850191818652518092526040850193925b828110610d8c5785850386f35b8351871685529381019392810192600101610d7f565b8254891684529287019260019283019201610d53565b50346103f35760c03660031901126103f3577f66682b276e4cd1a4e1f68b55b1143766c5332f472eb593cf2a70a25d9d5d991760c060043560a435608435606435604435602435610e07613f31565b856005558060065581600755826008558360095584600a55604051958652602086015260408501526060840152608083015260a0820152a180f35b50346103f357806003193601126103f3576020600954604051908152f35b50346103f35760603660031901126103f357610e7a61339a565b610e826133b0565b60443591610e8e613f31565b83546001600160a01b03828116949181168514610f4157831615610f41576020604051809563a9059cbb60e01b8252818881610ece878a60048401613505565b03925af1908115610f36577f77023e19c7343ad491fd706c36335ca0e738340a91f29b1fd81e2673d44896c494610f1192610f17575b5060405193849384613afd565b0390a180f35b610f2f9060203d602011610c7b57610c6c8183613495565b5038610f04565b6040513d87823e3d90fd5b60405163e6c4247b60e01b8152600490fd5b50346103f357806003193601126103f3576020600554604051908152f35b50346103f35760203660031901126103f3576020906004358152601b8252604060018060a01b0391205416604051908152f35b50346103f357806003193601126103f357610fbd614019565b60ff8060155460081c16156114a85733825260209160108352604081209281828391845b875481101561115d57866004610ff7838b6135a2565b500154161561115557600261100c828a6135a2565b500154600361101b838b6135a2565b50015490620151809182810292818404149015171561114157899161103f91613696565b421015611052575b506001905b01610fe1565b938192936110ea9161109260056110888661108261107b61107560019a8e6135a2565b5061412e565b8096613696565b9a6135a2565b5001918254613696565b9055338852600e875260096040892001548015611130575b6110b9606491600b5490613656565b04836110c5868d6135a2565b5001548181111561111d57906110de816110e493613689565b92613696565b94613696565b9160046110f7828b6135a2565b5001805460ff1916905561111561110e828b6135a2565b505461420f565b905087611047565b905061112891613696565b938790613696565b50600f8752604088208301546110aa565b634e487b7160e01b88526011600452602488fd5b60019061104c565b5084939181159081806114a0575b61148e5780611479575b50836111dc575b600e9350156111cc575b5061119033614056565b33835252604081206004600382015491015411156111be575b60016000805160206154ae8339815191525580f35b6111c733614403565b6111a9565b6111d69033614108565b83611186565b338552600e83526111fa604086206003600482015491015490613689565b808511611451575b50831561117c57338552600e835260036040862001611222858254613696565b90558360011c85908047101580611448575b611436575b60175480158015611422575b156113e15750670de0b6b3a7640000905b670de0b6b3a764000090818102918183041490151715611141579061127a91613669565b86546040516370a0823160e01b815230600482015288926001600160a01b0390921691908781602481865afa80156113d65782918b916113a0575b50101580611397575b61131e575b505060008051602061538e83398151915290600e9660405190815260008782015260008051602061548e83398151915260403392a2338852600f8652604088205490611316604051928392339684613520565b0390a261117c565b91509585604051809863a9059cbb60e01b8252818b81611342883360048401613505565b03925af191821561138c57600e9760008051602061538e8339815191529361136f575b50918197506112c3565b61138590883d8a11610c7b57610c6c8183613495565b5089611365565b6040513d8a823e3d90fd5b508015156112be565b809250898092503d83116113cf575b6113b98183613495565b810103126113ca578190518b6112b5565b600080fd5b503d6113af565b6040513d8c823e3d90fd5b601654670de0b6b3a76400009081810291818304149015171561140e579061140891613669565b90611256565b634e487b7160e01b89526011600452602489fd5b50683635c9adc5dea0000060165410611245565b90506114428133614108565b80611239565b50801515611234565b909360405190815281848201526000805160206153ee83398151915260403392a29285611202565b61148590601654613696565b60165585611175565b6040516304c4857b60e51b8152600490fd5b50841561116b565b6040516282b42960e81b8152600490fd5b50346103f357806003193601126103f3576020600654604051908152f35b50346103f357806003193601126103f3576020601e54604051908152f35b50346103f35760403660031901126103f35761150f61339a565b6001600160a01b03168152601060205260408120805460243592908310156103f35760c061153d84846135a2565b508054906001810154906002810154600382015490600560ff600485015416930154936040519586526020860152604085015260608401521515608083015260a0820152f35b50346103f357806003193601126103f357602060ff601554166040519015158152f35b50346103f357806003193601126103f3576115e46040516115c681613436565b60058152640352e302e360dc1b602082015260405191829182613559565b0390f35b50346103f3576115f7366134d3565b908252601c6020526040822080548210156116385761161692506134e9565b5080546001909101546040519182916115e4916001600160a01b031683613505565b8280fd5b50346103f35760403660031901126103f3576103f061165961339a565b6116616133b0565b9061166a613f31565b613bc0565b50346103f35760203660031901126103f3576001600160a01b0361169161339a565b168152601f6020526040812054602080526040822054918282116000146116cc57506115e46116c08383613689565b60405193849384613520565b6115e4906116c0565b50346103f35760203660031901126103f3577fd28d9e4ce68d89af7920cb8618e342a78f51e545c530ce60f1cb1d6f0235b47f6020600435611715613f31565b80601455604051908152a180f35b50346103f35760403660031901126103f35761173d61339a565b60243590611749613f31565b814710610cd1578280808085855af1611760613b90565b5015610cbf576040519182526001600160a01b0316907f288155da11d775f8595652c04f862708561d601d9fd3f04f7aed5f8311296e2490602090a280f35b50346103f35760403660031901126103f3576117b961339a565b602435906117c5613f31565b814710610cd1576117d882601e54613689565b601e558280808085855af16117eb613b90565b5015610cbf576040519182526001600160a01b0316907f27971ee1acbfbdfb20656657ceb2e0e7b519b9e60fe1a6b1f6d27b159f4a607c90602090a280f35b50346103f35760203660031901126103f3576020906040906001600160a01b0361185261339a565b168152601f83522054604051908152f35b50346103f357806003193601126103f3576020600d54604051908152f35b50346103f3577f4e9dd03193a0c81552fb8e6d32280f0d7e0ce8087241dc3d17ef3d193ee231d760406118b3366134d3565b6118bb613f31565b81600c5580600d5582519182526020820152a180f35b50346103f357806003193601126103f3576000805160206153ae833981519152546040516001600160a01b039091168152602090f35b50346103f357806003193601126103f357602060405160038152f35b50346103f357806003193601126103f357602060405160018152f35b50346103f357806003193601126103f3576003546040516001600160a01b039091168152602090f35b50346103f357806003193601126103f357602060405160048152f35b50346103f35760203660031901126103f3576080906040906001600160a01b036119ac61339a565b168152600f6020522080549060018101549060ff6003600283015492015416916040519384526020840152604083015215156060820152f35b50806003193601126103f3576119f9614019565b60ff604e5416610a5b5734156109fe57601654683635c9adc5dea00000808210908115611c33575b50611bdc5760175490611a47611a378334613656565b611a413484613696565b90613669565b6127108034029034820403611c1f57611a63836103e892613669565b116109fe576064611a76600c5483613656565b0491611a828383613689565b85546040516370a0823160e01b815230600482015291956020946001600160a01b03949193928516928681602481875afa80156113d65782918b91611bee575b5010611bdc578893611ad8611ae0933490613696565b601655613689565b601755803b15611bd857818091602460405180948193630852cd8d60e31b83528a60048401525af18015611bcd57611bb5575b5054169181604051809463a9059cbb60e01b8252818881611b388a3360048401613505565b03925af1918215610f36577f36864aeefce16bc4aaceeb6b0cdfb2ad1455a8cb4ccb0db148a2bc6e7166f97c93611b7f93611b97575b505060405191829133953484613420565b0390a260016000805160206154ae8339815191525580f35b81611bad92903d10610c7b57610c6c8183613495565b503880611b6e565b611bbe90613467565b611bc9578438611b13565b8480fd5b6040513d84823e3d90fd5b5080fd5b6040516343c7ad8160e11b8152600490fd5b809250888092503d8311611c18575b611c078183613495565b810103126113ca5781905138611ac2565b503d611bfd565b634e487b7160e01b85526011600452602485fd5b90506017541038611a21565b50346103f35760803660031901126103f357611c5961339a565b611c616133b0565b90611c6a6133c6565b91611c736133dc565b90611c7c613f31565b6001600160a01b039283169182158015611d2d575b8015611d23575b8015611d19575b610f41577f213f1de8063c19612a553f1480ff341bea689d36a56a2089f1b9060d599b5d8394848060809660018060a01b031995878760015416176001551692838660025416176002551692838560035416176003551680936004541617600455604051938452602084015260408301526060820152a180f35b5083811615611c9f565b5083851615611c98565b5083821615611c91565b50346103f357806003193601126103f357601a54620151808101809111611e08574210611df65760175480156109fe57606481049081156109fe5781611d7c91613689565b601755815482906001600160a01b0316803b15611bd857818091602460405180948193630852cd8d60e31b83528860048401525af18015611bcd57611de2575b5060008051602061544e83398151915260408342601a558151908482526020820152a180f35b611deb90613467565b611bd8578138611dbc565b604051636f47a98b60e11b8152600490fd5b634e487b7160e01b82526011600452602482fd5b50346103f357611e2b366134d3565b90825260126020526040822080548210156116385761161692506134e9565b50346103f357806003193601126103f3576020601654604051908152f35b50346103f357806003193601126103f3576001546040516001600160a01b039091168152602090f35b50346103f357806003193601126103f3576020601954604051908152f35b50346103f357806003193601126103f357611ec8613f31565b6000805160206153ae83398151915280546001600160a01b031981169091556000906001600160a01b031660008051602061546e8339815191528280a380f35b50346103f357806003193601126103f3576020601454604051908152f35b50346103f357806003193601126103f35760206040516103e88152f35b50346103f357806003193601126103f3576020601854604051908152f35b50346103f357806003193601126103f3577f00000000000000000000000000000000000000000000000000000000000000006001600160a01b03163003611fba5760206040516000805160206153ce8339815191528152f35b60405163703e46dd60e11b8152600490fd5b50346103f35760203660031901126103f357600435611fe9614019565b60ff604e5416610a5b5780156109fe57683635c9adc5dea000008060165410908115612190575b50611bdc5781546040516323b872dd60e01b81526001600160a01b03916020908290841681878161204689303360048501613afd565b03925af18015610c8257612171575b506064612064600d5484613656565b0461206f8184613689565b9161271080840290848204148415171561215d576120936103e89160175490613669565b116109fe578490815416803b15611bd8578190602460405180948193630852cd8d60e31b83528760048401525af18015610f365761214a575b50601654916120db8382613656565b6120ec60175491611a418484613696565b91824710611bdc577f223c8ad0806f634524940a8595f819c5cfc7b1f4f4f45791269301df0a7e61d594612124849261212c94613696565b601755613689565b6016556121398133614108565b611b7f604051928392339684613420565b61215690949194613467565b92386120cc565b634e487b7160e01b86526011600452602486fd5b6121899060203d602011610c7b57610c6c8183613495565b5038612055565b90506017541038612010565b5060203660031901126103f3576004356121b4613f31565b346122d7575b806121e1575b604060008051602061534e833981519152918151903482526020820152a180f35b81546040516323b872dd60e01b81529060209082906001600160a01b031681868161221188303360048501613afd565b03925af190816122b8575b5061228f57508060033d1161227e575b506308c379a01461224a575b6040516320a9b82760e21b8152600490fd5b612252613b1f565b8061225d5750612238565b6040516387a26b7560e01b815290819061227a9060048301613559565b0390fd5b9050600481803e5160e01c3861222c565b6040816122ad60008051602061534e83398151915293601754613696565b6017559150506121c0565b6122d09060203d602011610c7b57610c6c8183613495565b503861221c565b6122e334601654613696565b6016556121ba565b50346103f357806003193601126103f357612304613f31565b600160ff19604e541617604e557f4cb3183d0bf66f9634b15cfc3539fdddc96c2c9324848af89b56586a6739fec48180a180f35b5060403660031901126103f35761234d61339a565b60249182356001600160401b038111611bd85736602382011215611bd85780600401359261237a846134b8565b6123876040519182613495565b848152602094858201933688838301011161252057818692898993018737830101526001600160a01b037f0000000000000000000000000000000000000000000000000000000000000000811630811490811561252b575b50611fba576123ec613f31565b6040516352d1902d60e01b81529083169580826004818a5afa91829187936124f7575b505061242d57604051634c9c8ce360e01b8152600481018790528790fd5b8590876000805160206153ce833981519152918281036124e25750843b156124cc575080546001600160a01b031916821790556040518592917fbc7cd75a20ee27fd9adebab32041f755214dbc6bffa90cc0225b39da2e5c2d3b8480a28151156124af57506124ab9382915190845af46124a5613b90565b916152a9565b5080f35b9350505050346124bd575080f35b63b398979f60e01b8152600490fd5b604051634c9c8ce360e01b815260048101849052fd5b60405190632a87526960e21b82526004820152fd5b9080929350813d8311612524575b61250f8183613495565b81010312612520575190388061240f565b8580fd5b503d612505565b9050816000805160206153ce83398151915254161415386123df565b50346103f357806003193601126103f357612560613f31565b60ff19604e5416604e557f15de7ad89d29fd1c6d2e6b1e878453569b4080edf34e0105faaa3bd52f0185308180a180f35b50346103f357806003193601126103f3576020604051620151808152f35b50346103f357806003193601126103f3576002546040516001600160a01b039091168152602090f35b50806003193601126103f3576125ec614019565b60ff604e5416610a5b576004546001600160a01b031633036114a85734156109fe576111a934614696565b50346103f35760203660031901126103f3576020906004358152601d8252604060018060a01b0391205416604051908152f35b50346103f357806003193601126103f357612663614019565b6111a96136bb565b5060203660031901126103f357612680614019565b60ff604e5416610a5b5760ff6015541615612bc057338152600f60205260408120600181015415612bae5760ff600382015416612b9c576007600435141580612b8f575b80612b82575b612b705734156109fe576126df601954613631565b60198190553383526010602052604080842090519160c083016001600160401b03811184821017612b5c5760405282523460208301524260408301526004356060830152600160808301528360a0830152805490600160401b821015612b48579061274f916001820181556135a2565b919091612b345760a08160059251845560208101516001850155604081015160028501556060810151600385015561279c60808201511515600486019060ff801983541691151516179055565b01519101556019548252601d602052604082203360018060a01b0319825416179055338252600e602052600a60408320018054918215612b23575b5050609681029080820460961490151715611e08576064900434036109fe576127ff33614056565b601954906040517fa8a1b9e33e503eed12bf7e7c8c01c7f3b60217a496bddd0f5db351dd8c056c1c339180612838866004353484613420565b0390a2338152600e6020526040812054819081906001600160a01b03165b6001600160a01b038116151580612b19575b15612b0f576001600160a01b0381168452600e60205260408420600581015460ff1615612afa57506001600160a01b0381168452600f602052604084206001810154908115908115612aeb575b50612ac6576001600160a01b0382168552600e60205260408520600201546128dc90613f6a565b9190508482116129be575b50602d111561291b576001600160a01b039081168452600e6020526040842054169061291290613631565b915b9190612856565b50505090505b338152600e602052600660408220018181549182612950575b5060016000805160206154ae8339815191525580f35b5560165481811015806129b4575b61296a575b829061293a565b8161297491613689565b6016556129818133614108565b6040519081527f3437b9ea7fa19c6d233dd70cc787a70fab87cee64d8ba4571512cc84402748f960203392a23880612963565b508147101561295e565b6129e0906129cf8396606494613689565b903490803411612abe575b50613656565b04858552601c60205260408520604051906129fa82613436565b6001600160a01b038416825260208201839052805490600160401b821015612aaa5790612a2c916001820181556134e9565b919091612a9657805182546001600160a01b0319166001600160a01b03918216178355602091820151600193909301929092556040519283529083169187917f7c6505ab8279235ad21ebf427336cc8d97c017b4aa1f10ffdff11d3261e4934e91a382602d6128e7565b634e487b7160e01b87526004879052602487fd5b634e487b7160e01b88526041600452602488fd5b9050386129da565b5050600e60205260408320546001600160a01b031690612ae590613631565b91612914565b60ff91506003015416386128b5565b546001600160a01b031691612ae59150613631565b5050509050612921565b5060148210612868565b6001919250015480915538806127d7565b634e487b7160e01b84526004849052602484fd5b634e487b7160e01b85526041600452602485fd5b634e487b7160e01b86526041600452602486fd5b604051634dc7f5ff60e11b8152600490fd5b50601e60043514156126ca565b50600f60043514156126c4565b604051631ecb2c4f60e31b8152600490fd5b604051634065aaf160e11b8152600490fd5b60405162461bcd60e51b8152602060048201526012602482015271131a5c5d5a591a5d1e48191a5cd8589b195960721b6044820152606490fd5b50346103f357806003193601126103f3576020600c54604051908152f35b50346103f357806003193601126103f357602060ff604e54166040519015158152f35b50346103f35760203660031901126103f3576020906040906001600160a01b03612c6361339a565b1681528280522054604051908152f35b50346103f357806003193601126103f357604e5460405160089190911c6001600160a01b03168152602090f35b50346103f35760203660031901126103f357600435906013548210156103f3576020816013600393522091020180546115e46002600184015493015460405193849384613420565b50346103f357806003193601126103f3576020604051683635c9adc5dea000008152f35b50346103f35760203660031901126103f3576115e4906002906040906001600160a01b03612d3861339a565b168152600e602052200154612d4c81613f6a565b92909160405193849384613420565b50346103f357806003193601126103f3576020601754604051908152f35b50346103f35760203660031901126103f357610160906001600160a01b039060409082612da461339a565b168152600e60205220908154169060018101549060028101546003820154600483015460ff600585015416600685015491600786015493600887015495600a6009890154980154986040519a8b5260208b015260408a015260608901526080880152151560a087015260c086015260e0850152610100840152610120830152610140820152f35b50346103f35760203660031901126103f3576020612e4a600435613601565b604051908152f35b50346103f357806003193601126103f357546040516001600160a01b039091168152602090f35b50346103f35760a03660031901126103f357612e9361339a565b612e9b6133b0565b90612ea46133c6565b612eac6133dc565b916084356001600160a01b03818116929183900361306f576000805160206154ce8339815191529485549660ff8860401c16159560018060401b03891698891580613068575b6001809b14908161305e575b159081613055575b50613043576001600160401b031981168a1789558492839189613028575b50612f2d6151f4565b612f356151f4565b612f3e33613ecf565b612f466151f4565b612f4e6151f4565b612f566151f4565b8a6000805160206154ae833981519152558160018060a01b03199716878d5416178c5516858a5416178955168360025416176002551681600354161760035560045416176004556019600555600f6006556005600755600560085560196009556019600a5582600b556032600c556019600d556203f48060145561010161ffff19601554161760155542601a55612feb578280f35b805460ff60401b191690556040519081527fc7f505b2f371ae2175ee4913f4499e1f2633a7b5936321eed1cdaeb6115181d290602090a138808280f35b6001600160481b0319166001600160401b01178a5538612f24565b60405163f92ee8a960e01b8152600490fd5b90501538612f06565b303b159150612efe565b5087612ef2565b8680fd5b50346103f357806003193601126103f357602090604051908152f35b50346103f357806003193601126103f357602060405160028152f35b50346103f35760403660031901126103f3576130c561339a565b6001600160a01b039081168252601160205260408220805460243593908410156103f357506020926130f6916133f2565b9190546040519260031b1c168152f35b50346103f357602080600319360112611bd85761312161339a565b338352600e808352604084205490926001600160a01b0392909183166132c35782163381146132b1578015610f415733808652600e8352604080872080546001600160a01b0319168417905582875260118085529087209091613183916135be565b338652600e835283604087205416948487965b16801515806132a7575b1561327d57808852818552604088209060028201805460018101918282116132695792826132068b9693837fa0eea20e678cb42233c1c456c84cedce7ea53fa360bb71bf3b761b760956777060408e8b996132269b5586825191868352820152a2613f6a565b5061321082613f6a565b509080820361322c575b50505050541697613631565b96613196565b61325d7fea8384d3ca7bf5b7510d3faee44a3774406c1fd3ac14fff110a8c98d47a259569360405193849384613420565b0390a23880808061321a565b634e487b7160e01b8c52600487905260248cfd5b8784337fa6dbb5aa28f35437de94d685d66edce5fb4812196b4984b91dfd5a7b38c0fb308380a380f35b50601e87106131a0565b604051631acade8960e31b8152600490fd5b60405163682a906560e01b8152600490fd5b50346103f357806003193601126103f3576020600a54604051908152f35b50346103f35760403660031901126103f357600435801515809103611bd85760243590811515809203611638577f03cb373f89de891077fe47cec43663b6727713de0337af46bebd1178122251b7917fb886fcb5b9c12916f26d967ebe962dbd51ec249fb55961da39c851cdfc10115c6020809361336f613f31565b6015805461ffff191660ff831617600886901b61ff0016179055604051908152a1604051908152a180f35b600435906001600160a01b03821682036113ca57565b602435906001600160a01b03821682036113ca57565b604435906001600160a01b03821682036113ca57565b606435906001600160a01b03821682036113ca57565b805482101561340a5760005260206000200190600090565b634e487b7160e01b600052603260045260246000fd5b6040919493926060820195825260208201520152565b604081019081106001600160401b0382111761345157604052565b634e487b7160e01b600052604160045260246000fd5b6001600160401b03811161345157604052565b606081019081106001600160401b0382111761345157604052565b601f909101601f19168101906001600160401b0382119082101761345157604052565b6001600160401b03811161345157601f01601f191660200190565b60409060031901126113ca576004359060243590565b805482101561340a5760005260206000209060011b0190600090565b6001600160a01b039091168152602081019190915260400190565b606091949392608082019582526020820152600060408201520152565b9094939260609260808301968352602083015260408201520152565b6020808252825181830181905290939260005b82811061358e57505060409293506000838284010152601f8019910116010190565b81810186015184820160400152850161356c565b805482101561340a576000526006602060002091020190600090565b80549190600160401b83101561345157826135e19160016135ff950181556133f2565b90919060018060a01b038084549260031b9316831b921b1916179055565b565b600381101561362b576002811015613625576001111561362057600090565b600590565b50600a90565b50600f90565b60001981146136405760010190565b634e487b7160e01b600052601160045260246000fd5b8181029291811591840414171561364057565b8115613673570490565b634e487b7160e01b600052601260045260246000fd5b9190820391821161364057565b9190820180921161364057565b908160209103126113ca575180151581036113ca5790565b6000338152602090600f8252604090818120926001936001810154158015613aef575b613ade57338352601082528383209483958185905b6139dd575b50505084156139cc57338352600e82526137188560038686200154613696565b94338452600e835284842095600496878101548092116139b6575b505080156139a757338452600e8352600385852001613753828254613696565b90558060011c918492804710158061399e575b61398c575b60175480158015613978575b156139385750670de0b6b3a7640000905b670de0b6b3a76400009081810291818304149015171561392557906137ac91613669565b855487516370a0823160e01b8152308a820152879492916001600160a01b0316908781602481855afa90811561391b579083918a916138e6575b501015806138dd575b61385c575b50509160008051602061538e83398151915291600e9594938851908152878682015260008051602061548e833981519152893392a2549061383b8851928392339684613520565b0390a233835252206003810154910154111561385357565b6135ff33614403565b816138839293955087918b8a8c5180968195829463a9059cbb60e01b845233908401613505565b03925af180156138d3579160008051602061538e8339815191529391600e979695936138b6575b509394958193506137f4565b6138cc90873d8911610c7b57610c6c8183613495565b50386138aa565b88513d89823e3d90fd5b508115156137ef565b809250898092503d8311613914575b6138ff8183613495565b8101031261391057829051386137e6565b8880fd5b503d6138f5565b8a513d8b823e3d90fd5b634e487b7160e01b875260118952602487fd5b601654670de0b6b3a764000090818102918183041490151715613965579061395f91613669565b90613788565b634e487b7160e01b885260118a52602488fd5b50683635c9adc5dea0000060165410613777565b92506139988333614108565b8261376b565b50801515613766565b5050505050506135ff33614403565b6139c592506003015490613689565b3880613733565b8351630fec21fd60e21b8152600490fd5b8154811015613ad9576139f081836135a2565b508360ff6004809301541615613acf5750613a0e61107583856135a2565b9081613a24575b5050908280925b0190916136f3565b909889613a3091613696565b98613a40600561108885876135a2565b90556002613a4e83856135a2565b5001546003613a5d84866135a2565b500154906201518091828102928184041490151715613abc5791613a85869594928694613696565b421015613a95575b509192613a15565b613a9f82856135a2565b5001805460ff19169055613ab661110e82856135a2565b38613a8d565b634e487b7160e01b895260118352602489fd5b9291839150613a1c565b6136f8565b8351634065aaf160e11b8152600490fd5b5060ff6003820154166136de565b6001600160a01b03918216815291166020820152604081019190915260600190565b600060443d10613b7c57604051600319913d83016004833e81516001600160401b03918282113d602484011117613b7f57818401948551938411613b87573d85010160208487010111613b7f5750613b7c92910160200190613495565b90565b949350505050565b50949350505050565b3d15613bbb573d90613ba1826134b8565b91613baf6040519384613495565b82523d6000602084013e565b606090565b916001600160a01b03908184169081158015613ec5575b610f41578284168083146132b15784846000965b1680151580613ebb575b15613c21578481146132b157600052600e60205284613c1b816040600020541697613631565b96613beb565b506000848152600e60208181526040928390208054969a959950868916989496898b14613eae576001600160a01b0319168a1790558715159485613db6575b613c75908a60005260118352846000206135be565b866000528181526002956002846000200154906001966001830180931161364057613d36575b8a613cd0575b50505050505050507ff8b9fe4d008320e6f048c61e41e9cc56ce351354ad0cb9a868bd3c4bd6928fd5600080a4565b600090875b613ce0575b50613ca1565b861680151580613d2c575b15613d275780600052848452888660002001613d08848254613696565b9055600052838352613d208686600020541691613631565b9087613cd5565b613cda565b50601e8210613ceb565b866000878c835b613d4b575b50505050613c9b565b1680151580613dac575b15613da55760008181528787528890208b0180548611613d9c57613d7a868254613689565b90555b600052858552613d938888600020541691613631565b90889083613d3d565b60009055613d7d565b8890613d42565b50601e8210613d55565b989796959493929190876000526011808252836000209a60005b8c5480821015613e975787908b8f84613de8916133f2565b939054600394851b1c1614613e01575050600101613dd0565b60009e9291939495969798999a9b9c9d9e1995868201918211613e835750906135e18a613e31613e3f94866133f2565b905490871b1c1691846133f2565b80548015613e6d57613c759489910192613e5984846133f2565b81939154921b1b19169055555b9050613c60565b634e487b7160e01b600052603160045260246000fd5b634e487b7160e01b60005260045260246000fd5b50509050613c759192939495969798999a50613e66565b5050505050505050505050565b5060328710613bf5565b5082841615613bd7565b6001600160a01b03908116908115613f18576000805160206153ae83398151915280546001600160a01b0319811684179091551660008051602061546e833981519152600080a3565b604051631e4fbdf760e01b815260006004820152602490fd5b6000805160206153ae833981519152546001600160a01b03163303613f5257565b60405163118cdaa760e01b8152336004820152602490fd5b620186a08110156140105761753081101561400757612710811015613ffe57610bb8811015613ff5576103e8811015613fec5761012c811015613fe3576064811015613fda57601e811015613fd157600a1115613fc957600090600090565b600190600590565b50600290600a90565b50600390600f90565b50600490601490565b50600590601990565b50600690601e90565b50600790602390565b50600890602890565b50600990602d90565b6000805160206154ae83398151915260028154146140375760029055565b604051633ee5aeb560e01b8152600490fd5b8015613640576000190190565b60018060a01b0380600092168252600f60205260408220906001820154151591826140f8575b50600e602052604083206005810160ff8154161515841515146140f157805460ff191660ff8515151617905554169182156140ec57600192604092156140d3578152600e60205220016140cf8154613631565b9055565b815220018054806140e3575b5050565b6140cf90614049565b505050565b5050505050565b6003015460ff161591503861407c565b81156140df57814710610cd157600080809381935af1614126613b90565b5015610cbf57565b600381015461413c81615223565b906201518061414f600285015442613689565b04908082116141a1575b5080156141995761417e633b9aca00916141796005946001870154613656565b613656565b04910154808211614190575050600090565b613b7c91613689565b505050600090565b905038614159565b805182101561340a5760209160051b010190565b805490600090818155826141d057505050565b6001906001600160ff1b038416840361091f578252602082209260011b8301925b8381106141fe5750505050565b8083600292558383820155016141f1565b6000818152601d6020908152604080832054601c83528184208054939695929492936001600160a01b03928316906001600160401b038111612b485786519261425d8a8360051b0185613495565b818452855288852085908a8086015b8484106143d4575050505050835b82518110156143be57808983858a886142b081614299600199866141a9565b515116866142a789876141a9565b51015190614c3b565b948b866142f9575b5091508b93506142e9867fae629b396150638d6eb6de457cbffe5d618a10c8cc199a94976bed2b16ecd993946141a9565b515116938c51908152a30161427a565b8360008051602061536e833981519152946004928560809661431b8d8b6141a9565b5151168252601f86528282206143328c8254613696565b90558061433f8d8b6141a9565b51511682528580528282206143558c8254613696565b90556143618c8a6141a9565b5151168152604f855220928d6143998b84519961437d8b61347a565b87548b5260028f89015498868d01998a520154868c01526141a9565b515116965193519082519485528401528201528c6060820152a383858a888e8b6142b8565b50505050906135ff9394601c91835252206141bd565b6001916002918c516143e581613436565b8a865416815284860154838201528152019201920191908b9061426c565b9060018060a01b039182811690600090828252602091600f8352604091828220916003830190815460ff811615614441575b50505050505050509050565b600160ff1991821681179093556010875285822091998a94859347908590875b6145cc575b505088948d948c9d9e948d867f920bb94eb3842a728db98228c375ff6b00c5bc5a54fac6736155517a0a20a61a9f9b97968f8b979088917ff3a670cd3af7d64b488926880889d08a8585a138ff455227af6737339a1ec2629e9a614570575b50505050505085614551575b898352600e8d52838320600581018054938416905554169060ff1680614548575b80614537575b61451e575b5050519283525087820152a2549051908152a2803880808080808080614435565b8152200161452c8154614049565b9055388381806144fd565b5080825283838320015415156144f8565b508015156144f2565b898352600e8d52600684842001614569878254613696565b90556144d1565b848110614590575050506145849250614108565b8987388f8790826144c5565b9091926000805160206153ee833981519152945081806145bc575b50508251918c8352820152a2614584565b6145c591614108565b38816145ab565b909d8e825411156146905760ff8f6145e6600491856135a2565b500154161561468557878f6145fb90846135a2565b50015480891b9080820460021490151715611141578f614659908a94938561463561012c61462d8397600b5490613656565b0493876135a2565b500154828110614679579061464d8361465393613689565b90613696565b9b613696565b9f600461466682856135a2565b50018881541690555b01919e989e614461565b8b925061465391613696565b979d9087809261466f565b9d614466565b90811561483d57601654683635c9adc5dea00000808210908115614831575b5061482c57476146c58483613696565b1161482c57612710830261270f1984820401613640576146e8826103e892613669565b1161482c57601754926147086146fe8583613656565b611a418385613696565b80158015614823575b61481c5760009460018060a01b038654169060409485516370a0823160e01b8152306004820152602081602481875afa908115614812579083918a916147dd575b50106147d35783889392611ad88761476994613696565b601755803b15611bd85781906024865180948193630852cd8d60e31b83528760048401525af180156147c95760008051602061544e8339815191529596506147ba575b5082519182526020820152a1565b6147c390613467565b386147ac565b84513d88823e3d90fd5b5050505050509050565b9150506020813d60201161480a575b816147f960209383613495565b810103126139105782905138614752565b3d91506147ec565b87513d8b823e3d90fd5b5050509050565b50848111614711565b509050565b905060175410386146b5565b9050565b6001600160a01b039081166000818152600f602090815260408083206001818101805496979096939590949291841580156149ff575b6149aa57601084528682208054839291835b8281106149bf57505050506149b55760028201966148ab885460145490613696565b4211156149aa57600383837f57025f0027038907eda728b59164fb63d06048f42e618a35267e6a12e49b2e469a8a9654998d8352600e895260ff60058985209283541692015416806149a1575b8061498f575b614975575b508c8252600e88528187812095816004600589019860ff19998a81541690558289820155015581855555550190815416905584614946575b5051928352820152a2565b848152601283526149588282206141bd565b848152601b83522080546001600160a01b0319169055833861493b565b82526001878320016149878154614049565b905538614903565b508083526001888420015415156148fe565b508015156148f8565b505050505050505050565b5050505050505050565b60ff60046149cd83856135a2565b500154166149dd575b8301614889565b936149f78491826149ee88866135a2565b50015490613696565b9490506149d6565b5060ff600384015416614877565b60018060a01b0381166000818152600e60205260409182822092600f60205280832060ff60058601541615908115614b37575b8115614b2a575b50614b2157600484019360038554910193614a6485548093613689565b88818111614af8575b50508715614aed57874710614ac6575090614a978760008051602061548e83398151915293613696565b8455614aa38787614108565b805187815260026020820152a25490541115614abd575090565b613b7c90614403565b96929550506000805160206153ee833981519152935080925051908152846020820152a290565b965050505050505090565b819950846000805160206153ee8339815191529187939b82519182526020820152a23880614a6d565b50509250505090565b6001915001541538614a47565b600381015460ff169150614a40565b60018060a01b0381166000818152600e60205260409182822092600f60205280832060ff60058601541615908115614c2c575b8115614c1f575b50614b2157600484019360038554910193614b9d85548093613689565b88818111614bf6575b50508715614aed57874710614ac6575090614bd08760008051602061548e83398151915293613696565b8455614bdc8787614108565b805187815260036020820152a25490541115614abd575090565b819950846000805160206153ee8339815191529187939b82519182526020820152a23880614ba6565b6001915001541538614b80565b600381015460ff169150614b79565b60018060a01b038116600052600e6020526040600020600f602052604060002060ff600583015416159081156151e5575b81156151d8575b50614199578060036004614c8c93015491015490613689565b828181116151a4575b5050811561519d576001600160a01b0381166000908152600e6020526040902090614cbe615249565b90670de0b6b3a76400008460011c028460011c8104670de0b6b3a7640000148560011c1517156136405782614cf291613669565b936040518181528160011c60208201528160011c60408201528360608201528560808201527fa7e66afc02702ffeb435ee9bacce4988459c7b329bf0dd9f8f551d823d1fece060a0600180821b03851692a28492600094600092614d5588615336565b15615157575b8060011c15158061514e575b6150b7575b6000546040516370a0823160e01b81523060048201526001600160a01b0390911696906020816024818b5afa90811561500957600091615085575b508115158061507c575b614f96575b5060029650878260011c118015614f8d575b614f46575b50614deb670de0b6b3a7640000614de48587613656565b0488613696565b978815614ecf5750508060036004920192614e07898554613696565b93849055604080518a8152602081018590526001600160a01b0388169160008051602061548e83398151915291a27fe83062c7bae5146a0afc41b3a8342f225ed2581a8e234e0ba69d9ff8c53a48d660405180614e718b60018060a01b038b16958a42928561353d565b0390a201541115614ec1575b60405193614e8a8561347a565b845260208401908152604084019185835260018060a01b0316600052604f6020526040600020935184555160018401555191015590565b614eca82614403565b614e7d565b915091506040519180835260011c60208301526040820152608060608201526015608082015274139bc81d1bdad95b9cc81d1c985b9cd9995c9c9959605a1b60a08201527fd8349f8ffff882edf1f3a7f209a1d24fb5e821ba347cf8da7f016de352368fd060c060018060a01b03851692a2614e7d565b7f60369b7cd498d613812af36dd7cb398ba493ee0afe0fc21d90a9f8b5fc620aa360405180614f848860018060a01b038b16958d8860011c8561353d565b0390a238614dcd565b50848111614dc8565b94508481111561507657845b948590811161501557506020604051809863a9059cbb60e01b825281600081614fcf8b8d60048401613505565b03925af196871561500957600297614fea575b505b38614db6565b6150029060203d602011610c7b57610c6c8183613495565b5038614fe2565b6040513d6000823e3d90fd5b9094506002965060405190600082526020820152606060408201526013606082015272129090c81d1c985b9cd9995c8819985a5b1959606a1b608082015260008051602061542e83398151915260a0600180821b03881692a2600093614fe4565b80614fa2565b50801515614db1565b90506020813d6020116150af575b816150a060209383613495565b810103126113ca575138614da7565b3d9150615093565b9550478660011c116000146151445747955b864781116150e157506150dc8786614108565b614d6c565b9096506040519081526000602082015260606040820152601960608201527813985d1a5d99481350c81d1c985b9cd9995c8819985a5b1959603a1b608082015260008051602061542e83398151915260a0600180821b03871692a2600095614d6c565b8560011c956150c9565b50471515614d67565b601754604051601490910480825296506001600160a01b038616907fa3c9509a6af5ab7ab677b3caa94bb10373473b146705f236c71768d7b6b1a51390602090a2614d5b565b5050600090565b60408051918252602082018390529193506001600160a01b038316916000805160206153ee83398151915291a23880614c95565b6001915001541538614c73565b600381015460ff169150614c6c565b60ff6000805160206154ce8339815191525460401c161561521157565b604051631afcd79f60e31b8152600490fd5b6007811461524157600f1461523a576301312d0090565b62fe502b90565b5062cb735690565b60175480158015615295575b61528857601654670de0b6b3a76400009081810291818304149015171561364057613b7c9161528391613669565b61530c565b50670de0b6b3a764000090565b50683635c9adc5dea0000060165410615255565b906152d057508051156152be57602081519101fd5b60405163d6bda27560e01b8152600490fd5b81511580615303575b6152e1575090565b604051639996b31560e01b81526001600160a01b039091166004820152602490fd5b50803b156152d9565b67016345785d8a00008082106153315750678ac7230489e80000808211615331575090565b905090565b801561534757601460175404101590565b5060019056fe38f8a0c92f4c5b0b6877f878cb4c0c8d348a47b76d716c8e78f425043df9515b62c4ea4229c396c9b5c33779ec09ed411b29ed8782e48ac358eaa9e8aa58a9b06fcebd0a2ce98b28cb391d6008bbc769378c9a4919628e11639cb575cd320fcc9016d09d72d40fdae2fd8ceac6b6234c7706214fd39c1cd1e609a0528c199300360894a13ba1a3210667c828492db98dca3e2076cc3735a920a3ca505d382bbcb5987aab1afd379f6695f1068869ee8ca6a0d02304c57935a9cc3d3ea2e51e4d520bc217d25ef4588524228dffcfa518f4ad52178c71d49b8061d016213cd311da109f9a8d0129326c2906f581adfd38d938005d44218a2f7c843b9b105af9ba0ec3929061cbbbeecb325623e7d5a86c3dae11cb8a22ca45dc0972955657da258be0079c531659141344cd1fd0a4f28419497f9722a3daafe3b4186f6b6457e0f381583145e90b82cc5e529bf4fc4d0e44397174cdf145c4251ac33ef195a4249b779b17422d0df92223018b32b4d1fa46e071723d6817e2486d003becc55f00f0c57e16840df040f15088dc2f81fe391c3923bec73e23a9662efc9c229c6a00a264697066735822122053b431697870c7b719c14f4195015b1a0b3a5950b47b0646912150f9e31395e964736f6c63430008160033",
  "linkReferences": {},
  "deployedLinkReferences": {}
}