{
  "_format": "hh-sol-artifact-1",
  "contractName": "JinbaoProtocolNative",
  "sourceName": "contracts/JinbaoProtocolNative.sol",
  "abi": [
    {
      "inputs": [],
      "stateMutability": "nonpayable",
      "type": "constructor"
    },
    {
      "inputs": [],
      "name": "ActionTooEarly",
      "type": "error"
    },
    {
      "inputs": [
        {
          "internalType": "address",
          "name": "target",
          "type": "address"
        }
      ],
      "name": "AddressEmptyCode",
      "type": "error"
    },
    {
      "inputs": [],
      "name": "AlreadyBound",
      "type": "error"
    },
    {
      "inputs": [],
      "name": "AlreadyExited",
      "type": "error"
    },
    {
      "inputs": [],
      "name": "BatchUpdateSizeMismatch",
      "type": "error"
    },
    {
      "inputs": [],
      "name": "ContractPaused",
      "type": "error"
    },
    {
      "inputs": [
        {
          "internalType": "address",
          "name": "implementation",
          "type": "address"
        }
      ],
      "name": "ERC1967InvalidImplementation",
      "type": "error"
    },
    {
      "inputs": [],
      "name": "ERC1967NonPayable",
      "type": "error"
    },
    {
      "inputs": [],
      "name": "Expired",
      "type": "error"
    },
    {
      "inputs": [],
      "name": "FailedCall",
      "type": "error"
    },
    {
      "inputs": [],
      "name": "InsufficientBalance",
      "type": "error"
    },
    {
      "inputs": [],
      "name": "InsufficientNativeBalance",
      "type": "error"
    },
    {
      "inputs": [],
      "name": "InvalidAddress",
      "type": "error"
    },
    {
      "inputs": [],
      "name": "InvalidAmount",
      "type": "error"
    },
    {
      "inputs": [],
      "name": "InvalidCycle",
      "type": "error"
    },
    {
      "inputs": [],
      "name": "InvalidFee",
      "type": "error"
    },
    {
      "inputs": [],
      "name": "InvalidInitialization",
      "type": "error"
    },
    {
      "inputs": [],
      "name": "InvalidLevelConfig",
      "type": "error"
    },
    {
      "inputs": [],
      "name": "InvalidRate",
      "type": "error"
    },
    {
      "inputs": [],
      "name": "InvalidTax",
      "type": "error"
    },
    {
      "inputs": [],
      "name": "InvalidTeamCountUpdate",
      "type": "error"
    },
    {
      "inputs": [],
      "name": "LowLiquidity",
      "type": "error"
    },
    {
      "inputs": [],
      "name": "MustBindReferrer",
      "type": "error"
    },
    {
      "inputs": [],
      "name": "NativeTransferFailed",
      "type": "error"
    },
    {
      "inputs": [],
      "name": "NoRewards",
      "type": "error"
    },
    {
      "inputs": [],
      "name": "NotActive",
      "type": "error"
    },
    {
      "inputs": [],
      "name": "NotInitializing",
      "type": "error"
    },
    {
      "inputs": [],
      "name": "NothingToRedeem",
      "type": "error"
    },
    {
      "inputs": [
        {
          "internalType": "address",
          "name": "owner",
          "type": "address"
        }
      ],
      "name": "OwnableInvalidOwner",
      "type": "error"
    },
    {
      "inputs": [
        {
          "internalType": "address",
          "name": "account",
          "type": "address"
        }
      ],
      "name": "OwnableUnauthorizedAccount",
      "type": "error"
    },
    {
      "inputs": [],
      "name": "RecursionDepthExceeded",
      "type": "error"
    },
    {
      "inputs": [],
      "name": "ReentrancyGuardReentrantCall",
      "type": "error"
    },
    {
      "inputs": [],
      "name": "SelfReference",
      "type": "error"
    },
    {
      "inputs": [],
      "name": "SumNot100",
      "type": "error"
    },
    {
      "inputs": [
        {
          "internalType": "address",
          "name": "user",
          "type": "address"
        },
        {
          "internalType": "uint256",
          "name": "expected",
          "type": "uint256"
        },
        {
          "internalType": "uint256",
          "name": "actual",
          "type": "uint256"
        }
      ],
      "name": "TeamCountMismatch",
      "type": "error"
    },
    {
      "inputs": [],
      "name": "TeamCountOverflow",
      "type": "error"
    },
    {
      "inputs": [],
      "name": "TransferFailed",
      "type": "error"
    },
    {
      "inputs": [
        {
          "internalType": "string",
          "name": "reason",
          "type": "string"
        }
      ],
      "name": "TransferFromFailed",
      "type": "error"
    },
    {
      "inputs": [],
      "name": "TransferFromFailedLowLevel",
      "type": "error"
    },
    {
      "inputs": [],
      "name": "UUPSUnauthorizedCallContext",
      "type": "error"
    },
    {
      "inputs": [
        {
          "internalType": "bytes32",
          "name": "slot",
          "type": "bytes32"
        }
      ],
      "name": "UUPSUnsupportedProxiableUUID",
      "type": "error"
    },
    {
      "inputs": [],
      "name": "Unauthorized",
      "type": "error"
    },
    {
      "anonymous": false,
      "inputs": [
        {
          "indexed": false,
          "internalType": "uint256",
          "name": "usersUpdated",
          "type": "uint256"
        }
      ],
      "name": "BatchTeamCountsUpdated",
      "type": "event"
    },
    {
      "anonymous": false,
      "inputs": [
        {
          "indexed": true,
          "internalType": "address",
          "name": "user",
          "type": "address"
        },
        {
          "indexed": true,
          "internalType": "address",
          "name": "referrer",
          "type": "address"
        }
      ],
      "name": "BoundReferrer",
      "type": "event"
    },
    {
      "anonymous": false,
      "inputs": [
        {
          "indexed": false,
          "internalType": "uint256",
          "name": "mcAmount",
          "type": "uint256"
        },
        {
          "indexed": false,
          "internalType": "uint256",
          "name": "jbcBurned",
          "type": "uint256"
        }
      ],
      "name": "BuybackAndBurn",
      "type": "event"
    },
    {
      "anonymous": false,
      "inputs": [
        {
          "indexed": true,
          "internalType": "address",
          "name": "user",
          "type": "address"
        },
        {
          "indexed": false,
          "internalType": "uint256",
          "name": "totalAmount",
          "type": "uint256"
        },
        {
          "indexed": false,
          "internalType": "uint256",
          "name": "mcPart",
          "type": "uint256"
        },
        {
          "indexed": false,
          "internalType": "uint256",
          "name": "jbcValuePart",
          "type": "uint256"
        },
        {
          "indexed": false,
          "internalType": "uint256",
          "name": "jbcPrice",
          "type": "uint256"
        },
        {
          "indexed": false,
          "internalType": "uint256",
          "name": "jbcAmount",
          "type": "uint256"
        }
      ],
      "name": "DifferentialRewardCalculated",
      "type": "event"
    },
    {
      "anonymous": false,
      "inputs": [
        {
          "indexed": true,
          "internalType": "address",
          "name": "user",
          "type": "address"
        },
        {
          "indexed": false,
          "internalType": "uint256",
          "name": "mcAmount",
          "type": "uint256"
        },
        {
          "indexed": false,
          "internalType": "uint256",
          "name": "jbcAmount",
          "type": "uint256"
        },
        {
          "indexed": false,
          "internalType": "uint256",
          "name": "jbcPrice",
          "type": "uint256"
        },
        {
          "indexed": false,
          "internalType": "uint256",
          "name": "timestamp",
          "type": "uint256"
        }
      ],
      "name": "DifferentialRewardDistributed",
      "type": "event"
    },
    {
      "anonymous": false,
      "inputs": [
        {
          "indexed": true,
          "internalType": "address",
          "name": "user",
          "type": "address"
        },
        {
          "indexed": false,
          "internalType": "uint256",
          "name": "totalAmount",
          "type": "uint256"
        },
        {
          "indexed": false,
          "internalType": "uint256",
          "name": "mcPart",
          "type": "uint256"
        },
        {
          "indexed": false,
          "internalType": "uint256",
          "name": "jbcAmount",
          "type": "uint256"
        },
        {
          "indexed": false,
          "internalType": "string",
          "name": "reason",
          "type": "string"
        }
      ],
      "name": "DifferentialRewardFailed",
      "type": "event"
    },
    {
      "anonymous": false,
      "inputs": [
        {
          "indexed": true,
          "internalType": "uint256",
          "name": "stakeId",
          "type": "uint256"
        },
        {
          "indexed": true,
          "internalType": "address",
          "name": "upline",
          "type": "address"
        },
        {
          "indexed": false,
          "internalType": "uint256",
          "name": "amount",
          "type": "uint256"
        }
      ],
      "name": "DifferentialRewardRecorded",
      "type": "event"
    },
    {
      "anonymous": false,
      "inputs": [
        {
          "indexed": true,
          "internalType": "uint256",
          "name": "stakeId",
          "type": "uint256"
        },
        {
          "indexed": true,
          "internalType": "address",
          "name": "upline",
          "type": "address"
        },
        {
          "indexed": false,
          "internalType": "uint256",
          "name": "amount",
          "type": "uint256"
        }
      ],
      "name": "DifferentialRewardReleased",
      "type": "event"
    },
    {
      "anonymous": false,
      "inputs": [
        {
          "indexed": false,
          "internalType": "uint256",
          "name": "direct",
          "type": "uint256"
        },
        {
          "indexed": false,
          "internalType": "uint256",
          "name": "level",
          "type": "uint256"
        },
        {
          "indexed": false,
          "internalType": "uint256",
          "name": "marketing",
          "type": "uint256"
        },
        {
          "indexed": false,
          "internalType": "uint256",
          "name": "buyback",
          "type": "uint256"
        },
        {
          "indexed": false,
          "internalType": "uint256",
          "name": "lpInjection",
          "type": "uint256"
        },
        {
          "indexed": false,
          "internalType": "uint256",
          "name": "treasury",
          "type": "uint256"
        }
      ],
      "name": "DistributionConfigUpdated",
      "type": "event"
    },
    {
      "anonymous": false,
      "inputs": [],
      "name": "EmergencyPaused",
      "type": "event"
    },
    {
      "anonymous": false,
      "inputs": [],
      "name": "EmergencyUnpaused",
      "type": "event"
    },
    {
      "anonymous": false,
      "inputs": [
        {
          "indexed": true,
          "internalType": "address",
          "name": "user",
          "type": "address"
        },
        {
          "indexed": false,
          "internalType": "uint256",
          "name": "ticketId",
          "type": "uint256"
        }
      ],
      "name": "Exited",
      "type": "event"
    },
    {
      "anonymous": false,
      "inputs": [
        {
          "indexed": true,
          "internalType": "address",
          "name": "user",
          "type": "address"
        },
        {
          "indexed": false,
          "internalType": "uint256",
          "name": "amount",
          "type": "uint256"
        }
      ],
      "name": "FeeRefunded",
      "type": "event"
    },
    {
      "anonymous": false,
      "inputs": [
        {
          "indexed": false,
          "internalType": "uint64",
          "name": "version",
          "type": "uint64"
        }
      ],
      "name": "Initialized",
      "type": "event"
    },
    {
      "anonymous": false,
      "inputs": [
        {
          "indexed": true,
          "internalType": "address",
          "name": "oldJbcToken",
          "type": "address"
        },
        {
          "indexed": true,
          "internalType": "address",
          "name": "newJbcToken",
          "type": "address"
        }
      ],
      "name": "JbcTokenUpdated",
      "type": "event"
    },
    {
      "anonymous": false,
      "inputs": [],
      "name": "LevelConfigsUpdated",
      "type": "event"
    },
    {
      "anonymous": false,
      "inputs": [
        {
          "indexed": false,
          "internalType": "uint256",
          "name": "amount",
          "type": "uint256"
        },
        {
          "indexed": false,
          "internalType": "uint256",
          "name": "newTotal",
          "type": "uint256"
        }
      ],
      "name": "LevelRewardPoolUpdated",
      "type": "event"
    },
    {
      "anonymous": false,
      "inputs": [
        {
          "indexed": true,
          "internalType": "address",
          "name": "to",
          "type": "address"
        },
        {
          "indexed": false,
          "internalType": "uint256",
          "name": "amount",
          "type": "uint256"
        }
      ],
      "name": "LevelRewardPoolWithdrawn",
      "type": "event"
    },
    {
      "anonymous": false,
      "inputs": [
        {
          "indexed": true,
          "internalType": "uint256",
          "name": "ticketId",
          "type": "uint256"
        },
        {
          "indexed": true,
          "internalType": "address",
          "name": "upline",
          "type": "address"
        },
        {
          "indexed": false,
          "internalType": "uint256",
          "name": "amount",
          "type": "uint256"
        }
      ],
      "name": "LevelRewardRecorded",
      "type": "event"
    },
    {
      "anonymous": false,
      "inputs": [
        {
          "indexed": true,
          "internalType": "uint256",
          "name": "ticketId",
          "type": "uint256"
        },
        {
          "indexed": true,
          "internalType": "address",
          "name": "upline",
          "type": "address"
        },
        {
          "indexed": false,
          "internalType": "uint256",
          "name": "amount",
          "type": "uint256"
        }
      ],
      "name": "LevelRewardReleased",
      "type": "event"
    },
    {
      "anonymous": false,
      "inputs": [
        {
          "indexed": false,
          "internalType": "uint256",
          "name": "mcAmount",
          "type": "uint256"
        },
        {
          "indexed": false,
          "internalType": "uint256",
          "name": "jbcAmount",
          "type": "uint256"
        }
      ],
      "name": "LiquidityAdded",
      "type": "event"
    },
    {
      "anonymous": false,
      "inputs": [
        {
          "indexed": true,
          "internalType": "address",
          "name": "user",
          "type": "address"
        },
        {
          "indexed": false,
          "internalType": "uint256",
          "name": "adjustedJbcAmount",
          "type": "uint256"
        }
      ],
      "name": "LiquidityProtectionTriggered",
      "type": "event"
    },
    {
      "anonymous": false,
      "inputs": [
        {
          "indexed": true,
          "internalType": "address",
          "name": "user",
          "type": "address"
        },
        {
          "indexed": false,
          "internalType": "uint256",
          "name": "amount",
          "type": "uint256"
        },
        {
          "indexed": false,
          "internalType": "uint256",
          "name": "cycleDays",
          "type": "uint256"
        },
        {
          "indexed": false,
          "internalType": "uint256",
          "name": "stakeId",
          "type": "uint256"
        }
      ],
      "name": "LiquidityStaked",
      "type": "event"
    },
    {
      "anonymous": false,
      "inputs": [
        {
          "indexed": false,
          "internalType": "bool",
          "name": "enabled",
          "type": "bool"
        }
      ],
      "name": "LiquidityStatusUpdated",
      "type": "event"
    },
    {
      "anonymous": false,
      "inputs": [
        {
          "indexed": true,
          "internalType": "address",
          "name": "from",
          "type": "address"
        },
        {
          "indexed": false,
          "internalType": "uint256",
          "name": "amount",
          "type": "uint256"
        }
      ],
      "name": "NativeMCReceived",
      "type": "event"
    },
    {
      "anonymous": false,
      "inputs": [
        {
          "indexed": true,
          "internalType": "address",
          "name": "to",
          "type": "address"
        },
        {
          "indexed": false,
          "internalType": "uint256",
          "name": "amount",
          "type": "uint256"
        }
      ],
      "name": "NativeMCWithdrawn",
      "type": "event"
    },
    {
      "anonymous": false,
      "inputs": [
        {
          "indexed": true,
          "internalType": "address",
          "name": "previousOwner",
          "type": "address"
        },
        {
          "indexed": true,
          "internalType": "address",
          "name": "newOwner",
          "type": "address"
        }
      ],
      "name": "OwnershipTransferred",
      "type": "event"
    },
    {
      "anonymous": false,
      "inputs": [
        {
          "indexed": true,
          "internalType": "address",
          "name": "user",
          "type": "address"
        },
        {
          "indexed": false,
          "internalType": "uint256",
          "name": "mcRequested",
          "type": "uint256"
        },
        {
          "indexed": false,
          "internalType": "uint256",
          "name": "mcTransferred",
          "type": "uint256"
        },
        {
          "indexed": false,
          "internalType": "uint256",
          "name": "jbcRequested",
          "type": "uint256"
        },
        {
          "indexed": false,
          "internalType": "uint256",
          "name": "jbcTransferred",
          "type": "uint256"
        }
      ],
      "name": "PartialRewardTransfer",
      "type": "event"
    },
    {
      "anonymous": false,
      "inputs": [
        {
          "indexed": false,
          "internalType": "bool",
          "name": "enabled",
          "type": "bool"
        }
      ],
      "name": "RedeemStatusUpdated",
      "type": "event"
    },
    {
      "anonymous": false,
      "inputs": [
        {
          "indexed": true,
          "internalType": "address",
          "name": "user",
          "type": "address"
        },
        {
          "indexed": false,
          "internalType": "uint256",
          "name": "principal",
          "type": "uint256"
        },
        {
          "indexed": false,
          "internalType": "uint256",
          "name": "fee",
          "type": "uint256"
        }
      ],
      "name": "Redeemed",
      "type": "event"
    },
    {
      "anonymous": false,
      "inputs": [
        {
          "indexed": false,
          "internalType": "uint256",
          "name": "newFee",
          "type": "uint256"
        }
      ],
      "name": "RedemptionFeeUpdated",
      "type": "event"
    },
    {
      "anonymous": false,
      "inputs": [
        {
          "indexed": true,
          "internalType": "address",
          "name": "user",
          "type": "address"
        },
        {
          "indexed": true,
          "internalType": "address",
          "name": "from",
          "type": "address"
        },
        {
          "indexed": false,
          "internalType": "uint256",
          "name": "mcAmount",
          "type": "uint256"
        },
        {
          "indexed": false,
          "internalType": "uint256",
          "name": "jbcAmount",
          "type": "uint256"
        },
        {
          "indexed": false,
          "internalType": "uint8",
          "name": "rewardType",
          "type": "uint8"
        },
        {
          "indexed": false,
          "internalType": "uint256",
          "name": "ticketId",
          "type": "uint256"
        }
      ],
      "name": "ReferralRewardPaid",
      "type": "event"
    },
    {
      "anonymous": false,
      "inputs": [
        {
          "indexed": true,
          "internalType": "address",
          "name": "user",
          "type": "address"
        },
        {
          "indexed": true,
          "internalType": "address",
          "name": "oldReferrer",
          "type": "address"
        },
        {
          "indexed": true,
          "internalType": "address",
          "name": "newReferrer",
          "type": "address"
        }
      ],
      "name": "ReferrerChanged",
      "type": "event"
    },
    {
      "anonymous": false,
      "inputs": [
        {
          "indexed": true,
          "internalType": "address",
          "name": "user",
          "type": "address"
        },
        {
          "indexed": false,
          "internalType": "uint256",
          "name": "amount",
          "type": "uint256"
        },
        {
          "indexed": false,
          "internalType": "uint256",
          "name": "cappedAmount",
          "type": "uint256"
        }
      ],
      "name": "RewardCapped",
      "type": "event"
    },
    {
      "anonymous": false,
      "inputs": [
        {
          "indexed": true,
          "internalType": "address",
          "name": "user",
          "type": "address"
        },
        {
          "indexed": false,
          "internalType": "uint256",
          "name": "mcAmount",
          "type": "uint256"
        },
        {
          "indexed": false,
          "internalType": "uint256",
          "name": "jbcAmount",
          "type": "uint256"
        },
        {
          "indexed": false,
          "internalType": "uint8",
          "name": "rewardType",
          "type": "uint8"
        },
        {
          "indexed": false,
          "internalType": "uint256",
          "name": "ticketId",
          "type": "uint256"
        }
      ],
      "name": "RewardClaimed",
      "type": "event"
    },
    {
      "anonymous": false,
      "inputs": [
        {
          "indexed": true,
          "internalType": "address",
          "name": "user",
          "type": "address"
        },
        {
          "indexed": false,
          "internalType": "uint256",
          "name": "amount",
          "type": "uint256"
        },
        {
          "indexed": false,
          "internalType": "uint8",
          "name": "rewardType",
          "type": "uint8"
        }
      ],
      "name": "RewardPaid",
      "type": "event"
    },
    {
      "anonymous": false,
      "inputs": [
        {
          "indexed": true,
          "internalType": "address",
          "name": "user",
          "type": "address"
        },
        {
          "indexed": false,
          "internalType": "uint256",
          "name": "mcAmount",
          "type": "uint256"
        },
        {
          "indexed": false,
          "internalType": "uint256",
          "name": "jbcAmount",
          "type": "uint256"
        },
        {
          "indexed": false,
          "internalType": "string",
          "name": "reason",
          "type": "string"
        }
      ],
      "name": "RewardTransferFailed",
      "type": "event"
    },
    {
      "anonymous": false,
      "inputs": [
        {
          "indexed": false,
          "internalType": "uint256",
          "name": "mcAmount",
          "type": "uint256"
        },
        {
          "indexed": false,
          "internalType": "uint256",
          "name": "jbcAmount",
          "type": "uint256"
        }
      ],
      "name": "SwapReservesWithdrawn",
      "type": "event"
    },
    {
      "anonymous": false,
      "inputs": [
        {
          "indexed": false,
          "internalType": "uint256",
          "name": "buyTax",
          "type": "uint256"
        },
        {
          "indexed": false,
          "internalType": "uint256",
          "name": "sellTax",
          "type": "uint256"
        }
      ],
      "name": "SwapTaxesUpdated",
      "type": "event"
    },
    {
      "anonymous": false,
      "inputs": [
        {
          "indexed": true,
          "internalType": "address",
          "name": "user",
          "type": "address"
        },
        {
          "indexed": false,
          "internalType": "uint256",
          "name": "jbcAmount",
          "type": "uint256"
        },
        {
          "indexed": false,
          "internalType": "uint256",
          "name": "mcAmount",
          "type": "uint256"
        },
        {
          "indexed": false,
          "internalType": "uint256",
          "name": "tax",
          "type": "uint256"
        }
      ],
      "name": "SwappedJBCToMC",
      "type": "event"
    },
    {
      "anonymous": false,
      "inputs": [
        {
          "indexed": true,
          "internalType": "address",
          "name": "user",
          "type": "address"
        },
        {
          "indexed": false,
          "internalType": "uint256",
          "name": "mcAmount",
          "type": "uint256"
        },
        {
          "indexed": false,
          "internalType": "uint256",
          "name": "jbcAmount",
          "type": "uint256"
        },
        {
          "indexed": false,
          "internalType": "uint256",
          "name": "tax",
          "type": "uint256"
        }
      ],
      "name": "SwappedMCToJBC",
      "type": "event"
    },
    {
      "anonymous": false,
      "inputs": [
        {
          "indexed": true,
          "internalType": "uint256",
          "name": "stakeId",
          "type": "uint256"
        },
        {
          "indexed": true,
          "internalType": "address",
          "name": "upline",
          "type": "address"
        },
        {
          "indexed": false,
          "internalType": "uint256",
          "name": "amount",
          "type": "uint256"
        },
        {
          "indexed": false,
          "internalType": "uint256",
          "name": "teamCount",
          "type": "uint256"
        }
      ],
      "name": "TeamBasedRewardCalculated",
      "type": "event"
    },
    {
      "anonymous": false,
      "inputs": [
        {
          "indexed": true,
          "internalType": "address",
          "name": "user",
          "type": "address"
        },
        {
          "indexed": false,
          "internalType": "uint256",
          "name": "oldCount",
          "type": "uint256"
        },
        {
          "indexed": false,
          "internalType": "uint256",
          "name": "newCount",
          "type": "uint256"
        }
      ],
      "name": "TeamCountUpdated",
      "type": "event"
    },
    {
      "anonymous": false,
      "inputs": [
        {
          "indexed": true,
          "internalType": "address",
          "name": "user",
          "type": "address"
        },
        {
          "indexed": false,
          "internalType": "uint256",
          "name": "expected",
          "type": "uint256"
        },
        {
          "indexed": false,
          "internalType": "uint256",
          "name": "actual",
          "type": "uint256"
        }
      ],
      "name": "TeamCountValidationFailed",
      "type": "event"
    },
    {
      "anonymous": false,
      "inputs": [
        {
          "indexed": true,
          "internalType": "address",
          "name": "user",
          "type": "address"
        },
        {
          "indexed": false,
          "internalType": "uint256",
          "name": "ticketId",
          "type": "uint256"
        },
        {
          "indexed": false,
          "internalType": "uint256",
          "name": "amount",
          "type": "uint256"
        }
      ],
      "name": "TicketExpired",
      "type": "event"
    },
    {
      "anonymous": false,
      "inputs": [
        {
          "indexed": false,
          "internalType": "uint256",
          "name": "newDuration",
          "type": "uint256"
        }
      ],
      "name": "TicketFlexibilityDurationUpdated",
      "type": "event"
    },
    {
      "anonymous": false,
      "inputs": [
        {
          "indexed": true,
          "internalType": "address",
          "name": "user",
          "type": "address"
        },
        {
          "indexed": false,
          "internalType": "uint256",
          "name": "amount",
          "type": "uint256"
        },
        {
          "indexed": false,
          "internalType": "uint256",
          "name": "ticketId",
          "type": "uint256"
        }
      ],
      "name": "TicketPurchased",
      "type": "event"
    },
    {
      "anonymous": false,
      "inputs": [
        {
          "indexed": false,
          "internalType": "address",
          "name": "token",
          "type": "address"
        },
        {
          "indexed": false,
          "internalType": "address",
          "name": "to",
          "type": "address"
        },
        {
          "indexed": false,
          "internalType": "uint256",
          "name": "amount",
          "type": "uint256"
        }
      ],
      "name": "TokensRescued",
      "type": "event"
    },
    {
      "anonymous": false,
      "inputs": [
        {
          "indexed": true,
          "internalType": "address",
          "name": "implementation",
          "type": "address"
        }
      ],
      "name": "Upgraded",
      "type": "event"
    },
    {
      "anonymous": false,
      "inputs": [
        {
          "indexed": true,
          "internalType": "address",
          "name": "user",
          "type": "address"
        },
        {
          "indexed": false,
          "internalType": "uint8",
          "name": "field",
          "type": "uint8"
        },
        {
          "indexed": false,
          "internalType": "uint256",
          "name": "value",
          "type": "uint256"
        }
      ],
      "name": "UserDataFieldUpdated",
      "type": "event"
    },
    {
      "anonymous": false,
      "inputs": [
        {
          "indexed": true,
          "internalType": "address",
          "name": "user",
          "type": "address"
        },
        {
          "indexed": false,
          "internalType": "uint256",
          "name": "oldLevel",
          "type": "uint256"
        },
        {
          "indexed": false,
          "internalType": "uint256",
          "name": "newLevel",
          "type": "uint256"
        },
        {
          "indexed": false,
          "internalType": "uint256",
          "name": "teamCount",
          "type": "uint256"
        }
      ],
      "name": "UserLevelChanged",
      "type": "event"
    },
    {
      "anonymous": false,
      "inputs": [
        {
          "indexed": false,
          "internalType": "address",
          "name": "marketing",
          "type": "address"
        },
        {
          "indexed": false,
          "internalType": "address",
          "name": "treasury",
          "type": "address"
        },
        {
          "indexed": false,
          "internalType": "address",
          "name": "lpInjection",
          "type": "address"
        },
        {
          "indexed": false,
          "internalType": "address",
          "name": "buyback",
          "type": "address"
        }
      ],
      "name": "WalletsUpdated",
      "type": "event"
    },
    {
      "inputs": [],
      "name": "MAX_PRICE_IMPACT",
      "outputs": [
        {
          "internalType": "uint256",
          "name": "",
          "type": "uint256"
        }
      ],
      "stateMutability": "view",
      "type": "function"
    },
    {
      "inputs": [],
      "name": "MIN_LIQUIDITY",
      "outputs": [
        {
          "internalType": "uint256",
          "name": "",
          "type": "uint256"
        }
      ],
      "stateMutability": "view",
      "type": "function"
    },
    {
      "inputs": [],
      "name": "REWARD_DIFFERENTIAL",
      "outputs": [
        {
          "internalType": "uint8",
          "name": "",
          "type": "uint8"
        }
      ],
      "stateMutability": "view",
      "type": "function"
    },
    {
      "inputs": [],
      "name": "REWARD_DIRECT",
      "outputs": [
        {
          "internalType": "uint8",
          "name": "",
          "type": "uint8"
        }
      ],
      "stateMutability": "view",
      "type": "function"
    },
    {
      "inputs": [],
      "name": "REWARD_DYNAMIC",
      "outputs": [
        {
          "internalType": "uint8",
          "name": "",
          "type": "uint8"
        }
      ],
      "stateMutability": "view",
      "type": "function"
    },
    {
      "inputs": [],
      "name": "REWARD_LEVEL",
      "outputs": [
        {
          "internalType": "uint8",
          "name": "",
          "type": "uint8"
        }
      ],
      "stateMutability": "view",
      "type": "function"
    },
    {
      "inputs": [],
      "name": "REWARD_STATIC",
      "outputs": [
        {
          "internalType": "uint8",
          "name": "",
          "type": "uint8"
        }
      ],
      "stateMutability": "view",
      "type": "function"
    },
    {
      "inputs": [],
      "name": "SECONDS_IN_UNIT",
      "outputs": [
        {
          "internalType": "uint256",
          "name": "",
          "type": "uint256"
        }
      ],
      "stateMutability": "view",
      "type": "function"
    },
    {
      "inputs": [],
      "name": "UPGRADE_INTERFACE_VERSION",
      "outputs": [
        {
          "internalType": "string",
          "name": "",
          "type": "string"
        }
      ],
      "stateMutability": "view",
      "type": "function"
    },
    {
      "inputs": [
        {
          "internalType": "uint256",
          "name": "jbcAmount",
          "type": "uint256"
        }
      ],
      "name": "addLiquidity",
      "outputs": [],
      "stateMutability": "payable",
      "type": "function"
    },
    {
      "inputs": [
        {
          "internalType": "address",
          "name": "user",
          "type": "address"
        },
        {
          "internalType": "address",
          "name": "newReferrer",
          "type": "address"
        }
      ],
      "name": "adminSetReferrer",
      "outputs": [],
      "stateMutability": "nonpayable",
      "type": "function"
    },
    {
      "inputs": [
        {
          "internalType": "address",
          "name": "_referrer",
          "type": "address"
        }
      ],
      "name": "bindReferrer",
      "outputs": [],
      "stateMutability": "nonpayable",
      "type": "function"
    },
    {
      "inputs": [],
      "name": "buyTicket",
      "outputs": [],
      "stateMutability": "payable",
      "type": "function"
    },
    {
      "inputs": [],
      "name": "buybackPercent",
      "outputs": [
        {
          "internalType": "uint256",
          "name": "",
          "type": "uint256"
        }
      ],
      "stateMutability": "view",
      "type": "function"
    },
    {
      "inputs": [],
      "name": "buybackWallet",
      "outputs": [
        {
          "internalType": "address",
          "name": "",
          "type": "address"
        }
      ],
      "stateMutability": "view",
      "type": "function"
    },
    {
      "inputs": [
        {
          "internalType": "uint256",
          "name": "teamCount",
          "type": "uint256"
        }
      ],
      "name": "calculateLevel",
      "outputs": [
        {
          "internalType": "uint256",
          "name": "level",
          "type": "uint256"
        },
        {
          "internalType": "uint256",
          "name": "percent",
          "type": "uint256"
        }
      ],
      "stateMutability": "pure",
      "type": "function"
    },
    {
      "inputs": [],
      "name": "claimRewards",
      "outputs": [],
      "stateMutability": "nonpayable",
      "type": "function"
    },
    {
      "inputs": [],
      "name": "dailyBurn",
      "outputs": [],
      "stateMutability": "nonpayable",
      "type": "function"
    },
    {
      "inputs": [
        {
          "internalType": "address",
          "name": "",
          "type": "address"
        },
        {
          "internalType": "uint256",
          "name": "",
          "type": "uint256"
        }
      ],
      "name": "directReferrals",
      "outputs": [
        {
          "internalType": "address",
          "name": "",
          "type": "address"
        }
      ],
      "stateMutability": "view",
      "type": "function"
    },
    {
      "inputs": [],
      "name": "directRewardPercent",
      "outputs": [
        {
          "internalType": "uint256",
          "name": "",
          "type": "uint256"
        }
      ],
      "stateMutability": "view",
      "type": "function"
    },
    {
      "inputs": [],
      "name": "emergencyPause",
      "outputs": [],
      "stateMutability": "nonpayable",
      "type": "function"
    },
    {
      "inputs": [],
      "name": "emergencyPaused",
      "outputs": [
        {
          "internalType": "bool",
          "name": "",
          "type": "bool"
        }
      ],
      "stateMutability": "view",
      "type": "function"
    },
    {
      "inputs": [],
      "name": "emergencyUnpause",
      "outputs": [],
      "stateMutability": "nonpayable",
      "type": "function"
    },
    {
      "inputs": [
        {
          "internalType": "address",
          "name": "_to",
          "type": "address"
        },
        {
          "internalType": "uint256",
          "name": "_amount",
          "type": "uint256"
        }
      ],
      "name": "emergencyWithdrawNative",
      "outputs": [],
      "stateMutability": "nonpayable",
      "type": "function"
    },
    {
      "inputs": [],
      "name": "executeBuybackAndBurn",
      "outputs": [],
      "stateMutability": "payable",
      "type": "function"
    },
    {
      "inputs": [
        {
          "internalType": "address",
          "name": "user",
          "type": "address"
        }
      ],
      "name": "getDirectReferrals",
      "outputs": [
        {
          "internalType": "address[]",
          "name": "",
          "type": "address[]"
        }
      ],
      "stateMutability": "view",
      "type": "function"
    },
    {
      "inputs": [
        {
          "internalType": "uint256",
          "name": "activeDirects",
          "type": "uint256"
        }
      ],
      "name": "getLevelRewardLayers",
      "outputs": [
        {
          "internalType": "uint256",
          "name": "",
          "type": "uint256"
        }
      ],
      "stateMutability": "pure",
      "type": "function"
    },
    {
      "inputs": [
        {
          "internalType": "address",
          "name": "user",
          "type": "address"
        }
      ],
      "name": "getUserDynamicRewards",
      "outputs": [
        {
          "internalType": "uint256",
          "name": "totalEarned",
          "type": "uint256"
        },
        {
          "internalType": "uint256",
          "name": "totalClaimed",
          "type": "uint256"
        },
        {
          "internalType": "uint256",
          "name": "pendingAmount",
          "type": "uint256"
        },
        {
          "internalType": "uint256",
          "name": "claimableAmount",
          "type": "uint256"
        }
      ],
      "stateMutability": "view",
      "type": "function"
    },
    {
      "inputs": [
        {
          "internalType": "address",
          "name": "user",
          "type": "address"
        }
      ],
      "name": "getUserLevel",
      "outputs": [
        {
          "internalType": "uint256",
          "name": "level",
          "type": "uint256"
        },
        {
          "internalType": "uint256",
          "name": "percent",
          "type": "uint256"
        },
        {
          "internalType": "uint256",
          "name": "teamCount",
          "type": "uint256"
        }
      ],
      "stateMutability": "view",
      "type": "function"
    },
    {
      "inputs": [
        {
          "internalType": "address",
          "name": "_jbcToken",
          "type": "address"
        },
        {
          "internalType": "address",
          "name": "_marketing",
          "type": "address"
        },
        {
          "internalType": "address",
          "name": "_treasury",
          "type": "address"
        },
        {
          "internalType": "address",
          "name": "_lpInjection",
          "type": "address"
        },
        {
          "internalType": "address",
          "name": "_buybackWallet",
          "type": "address"
        }
      ],
      "name": "initialize",
      "outputs": [],
      "stateMutability": "nonpayable",
      "type": "function"
    },
    {
      "inputs": [],
      "name": "jbcToken",
      "outputs": [
        {
          "internalType": "contract IJBC",
          "name": "",
          "type": "address"
        }
      ],
      "stateMutability": "view",
      "type": "function"
    },
    {
      "inputs": [],
      "name": "lastBurnTime",
      "outputs": [
        {
          "internalType": "uint256",
          "name": "",
          "type": "uint256"
        }
      ],
      "stateMutability": "view",
      "type": "function"
    },
    {
      "inputs": [
        {
          "internalType": "uint256",
          "name": "",
          "type": "uint256"
        }
      ],
      "name": "levelConfigs",
      "outputs": [
        {
          "internalType": "uint256",
          "name": "minDirects",
          "type": "uint256"
        },
        {
          "internalType": "uint256",
          "name": "level",
          "type": "uint256"
        },
        {
          "internalType": "uint256",
          "name": "percent",
          "type": "uint256"
        }
      ],
      "stateMutability": "view",
      "type": "function"
    },
    {
      "inputs": [],
      "name": "levelRewardPercent",
      "outputs": [
        {
          "internalType": "uint256",
          "name": "",
          "type": "uint256"
        }
      ],
      "stateMutability": "view",
      "type": "function"
    },
    {
      "inputs": [],
      "name": "levelRewardPool",
      "outputs": [
        {
          "internalType": "uint256",
          "name": "",
          "type": "uint256"
        }
      ],
      "stateMutability": "view",
      "type": "function"
    },
    {
      "inputs": [],
      "name": "liquidityEnabled",
      "outputs": [
        {
          "internalType": "bool",
          "name": "",
          "type": "bool"
        }
      ],
      "stateMutability": "view",
      "type": "function"
    },
    {
      "inputs": [],
      "name": "lpInjectionPercent",
      "outputs": [
        {
          "internalType": "uint256",
          "name": "",
          "type": "uint256"
        }
      ],
      "stateMutability": "view",
      "type": "function"
    },
    {
      "inputs": [],
      "name": "lpInjectionWallet",
      "outputs": [
        {
          "internalType": "address",
          "name": "",
          "type": "address"
        }
      ],
      "stateMutability": "view",
      "type": "function"
    },
    {
      "inputs": [],
      "name": "marketingPercent",
      "outputs": [
        {
          "internalType": "uint256",
          "name": "",
          "type": "uint256"
        }
      ],
      "stateMutability": "view",
      "type": "function"
    },
    {
      "inputs": [],
      "name": "marketingWallet",
      "outputs": [
        {
          "internalType": "address",
          "name": "",
          "type": "address"
        }
      ],
      "stateMutability": "view",
      "type": "function"
    },
    {
      "inputs": [],
      "name": "nextStakeId",
      "outputs": [
        {
          "internalType": "uint256",
          "name": "",
          "type": "uint256"
        }
      ],
      "stateMutability": "view",
      "type": "function"
    },
    {
      "inputs": [],
      "name": "nextTicketId",
      "outputs": [
        {
          "internalType": "uint256",
          "name": "",
          "type": "uint256"
        }
      ],
      "stateMutability": "view",
      "type": "function"
    },
    {
      "inputs": [],
      "name": "owner",
      "outputs": [
        {
          "internalType": "address",
          "name": "",
          "type": "address"
        }
      ],
      "stateMutability": "view",
      "type": "function"
    },
    {
      "inputs": [],
      "name": "priceOracle",
      "outputs": [
        {
          "internalType": "address",
          "name": "",
          "type": "address"
        }
      ],
      "stateMutability": "view",
      "type": "function"
    },
    {
      "inputs": [],
      "name": "proxiableUUID",
      "outputs": [
        {
          "internalType": "bytes32",
          "name": "",
          "type": "bytes32"
        }
      ],
      "stateMutability": "view",
      "type": "function"
    },
    {
      "inputs": [],
      "name": "redeem",
      "outputs": [],
      "stateMutability": "nonpayable",
      "type": "function"
    },
    {
      "inputs": [],
      "name": "redeemEnabled",
      "outputs": [
        {
          "internalType": "bool",
          "name": "",
          "type": "bool"
        }
      ],
      "stateMutability": "view",
      "type": "function"
    },
    {
      "inputs": [],
      "name": "redemptionFeePercent",
      "outputs": [
        {
          "internalType": "uint256",
          "name": "",
          "type": "uint256"
        }
      ],
      "stateMutability": "view",
      "type": "function"
    },
    {
      "inputs": [],
      "name": "renounceOwnership",
      "outputs": [],
      "stateMutability": "nonpayable",
      "type": "function"
    },
    {
      "inputs": [
        {
          "internalType": "address",
          "name": "_token",
          "type": "address"
        },
        {
          "internalType": "address",
          "name": "_to",
          "type": "address"
        },
        {
          "internalType": "uint256",
          "name": "_amount",
          "type": "uint256"
        }
      ],
      "name": "rescueTokens",
      "outputs": [],
      "stateMutability": "nonpayable",
      "type": "function"
    },
    {
      "inputs": [
        {
          "internalType": "uint256",
          "name": "_direct",
          "type": "uint256"
        },
        {
          "internalType": "uint256",
          "name": "_level",
          "type": "uint256"
        },
        {
          "internalType": "uint256",
          "name": "_marketing",
          "type": "uint256"
        },
        {
          "internalType": "uint256",
          "name": "_buyback",
          "type": "uint256"
        },
        {
          "internalType": "uint256",
          "name": "_lpInjection",
          "type": "uint256"
        },
        {
          "internalType": "uint256",
          "name": "_treasury",
          "type": "uint256"
        }
      ],
      "name": "setDistributionConfig",
      "outputs": [],
      "stateMutability": "nonpayable",
      "type": "function"
    },
    {
      "inputs": [
        {
          "internalType": "address",
          "name": "_newJbcToken",
          "type": "address"
        }
      ],
      "name": "setJbcToken",
      "outputs": [],
      "stateMutability": "nonpayable",
      "type": "function"
    },
    {
      "inputs": [
        {
          "internalType": "bool",
          "name": "_liquidityEnabled",
          "type": "bool"
        },
        {
          "internalType": "bool",
          "name": "_redeemEnabled",
          "type": "bool"
        }
      ],
      "name": "setOperationalStatus",
      "outputs": [],
      "stateMutability": "nonpayable",
      "type": "function"
    },
    {
      "inputs": [
        {
          "internalType": "uint256",
          "name": "_fee",
          "type": "uint256"
        }
      ],
      "name": "setRedemptionFeePercent",
      "outputs": [],
      "stateMutability": "nonpayable",
      "type": "function"
    },
    {
      "inputs": [
        {
          "internalType": "uint256",
          "name": "_buyTax",
          "type": "uint256"
        },
        {
          "internalType": "uint256",
          "name": "_sellTax",
          "type": "uint256"
        }
      ],
      "name": "setSwapTaxes",
      "outputs": [],
      "stateMutability": "nonpayable",
      "type": "function"
    },
    {
      "inputs": [
        {
          "internalType": "uint256",
          "name": "_duration",
          "type": "uint256"
        }
      ],
      "name": "setTicketFlexibilityDuration",
      "outputs": [],
      "stateMutability": "nonpayable",
      "type": "function"
    },
    {
      "inputs": [
        {
          "internalType": "address",
          "name": "_marketing",
          "type": "address"
        },
        {
          "internalType": "address",
          "name": "_treasury",
          "type": "address"
        },
        {
          "internalType": "address",
          "name": "_lpInjection",
          "type": "address"
        },
        {
          "internalType": "address",
          "name": "_buyback",
          "type": "address"
        }
      ],
      "name": "setWallets",
      "outputs": [],
      "stateMutability": "nonpayable",
      "type": "function"
    },
    {
      "inputs": [
        {
          "internalType": "uint256",
          "name": "cycleDays",
          "type": "uint256"
        }
      ],
      "name": "stakeLiquidity",
      "outputs": [],
      "stateMutability": "payable",
      "type": "function"
    },
    {
      "inputs": [
        {
          "internalType": "uint256",
          "name": "",
          "type": "uint256"
        }
      ],
      "name": "stakeOwner",
      "outputs": [
        {
          "internalType": "address",
          "name": "",
          "type": "address"
        }
      ],
      "stateMutability": "view",
      "type": "function"
    },
    {
      "inputs": [
        {
          "internalType": "uint256",
          "name": "",
          "type": "uint256"
        },
        {
          "internalType": "uint256",
          "name": "",
          "type": "uint256"
        }
      ],
      "name": "stakePendingRewards",
      "outputs": [
        {
          "internalType": "address",
          "name": "upline",
          "type": "address"
        },
        {
          "internalType": "uint256",
          "name": "amount",
          "type": "uint256"
        }
      ],
      "stateMutability": "view",
      "type": "function"
    },
    {
      "inputs": [],
      "name": "swapBuyTax",
      "outputs": [
        {
          "internalType": "uint256",
          "name": "",
          "type": "uint256"
        }
      ],
      "stateMutability": "view",
      "type": "function"
    },
    {
      "inputs": [
        {
          "internalType": "uint256",
          "name": "jbcAmount",
          "type": "uint256"
        }
      ],
      "name": "swapJBCToMC",
      "outputs": [],
      "stateMutability": "nonpayable",
      "type": "function"
    },
    {
      "inputs": [],
      "name": "swapMCToJBC",
      "outputs": [],
      "stateMutability": "payable",
      "type": "function"
    },
    {
      "inputs": [],
      "name": "swapReserveJBC",
      "outputs": [
        {
          "internalType": "uint256",
          "name": "",
          "type": "uint256"
        }
      ],
      "stateMutability": "view",
      "type": "function"
    },
    {
      "inputs": [],
      "name": "swapReserveMC",
      "outputs": [
        {
          "internalType": "uint256",
          "name": "",
          "type": "uint256"
        }
      ],
      "stateMutability": "view",
      "type": "function"
    },
    {
      "inputs": [],
      "name": "swapSellTax",
      "outputs": [
        {
          "internalType": "uint256",
          "name": "",
          "type": "uint256"
        }
      ],
      "stateMutability": "view",
      "type": "function"
    },
    {
      "inputs": [],
      "name": "ticketFlexibilityDuration",
      "outputs": [
        {
          "internalType": "uint256",
          "name": "",
          "type": "uint256"
        }
      ],
      "stateMutability": "view",
      "type": "function"
    },
    {
      "inputs": [
        {
          "internalType": "uint256",
          "name": "",
          "type": "uint256"
        }
      ],
      "name": "ticketOwner",
      "outputs": [
        {
          "internalType": "address",
          "name": "",
          "type": "address"
        }
      ],
      "stateMutability": "view",
      "type": "function"
    },
    {
      "inputs": [
        {
          "internalType": "uint256",
          "name": "",
          "type": "uint256"
        },
        {
          "internalType": "uint256",
          "name": "",
          "type": "uint256"
        }
      ],
      "name": "ticketPendingRewards",
      "outputs": [
        {
          "internalType": "address",
          "name": "upline",
          "type": "address"
        },
        {
          "internalType": "uint256",
          "name": "amount",
          "type": "uint256"
        }
      ],
      "stateMutability": "view",
      "type": "function"
    },
    {
      "inputs": [
        {
          "internalType": "address",
          "name": "",
          "type": "address"
        }
      ],
      "name": "totalDynamicClaimed",
      "outputs": [
        {
          "internalType": "uint256",
          "name": "",
          "type": "uint256"
        }
      ],
      "stateMutability": "view",
      "type": "function"
    },
    {
      "inputs": [
        {
          "internalType": "address",
          "name": "",
          "type": "address"
        }
      ],
      "name": "totalDynamicEarned",
      "outputs": [
        {
          "internalType": "uint256",
          "name": "",
          "type": "uint256"
        }
      ],
      "stateMutability": "view",
      "type": "function"
    },
    {
      "inputs": [
        {
          "internalType": "address",
          "name": "newOwner",
          "type": "address"
        }
      ],
      "name": "transferOwnership",
      "outputs": [],
      "stateMutability": "nonpayable",
      "type": "function"
    },
    {
      "inputs": [],
      "name": "treasuryPercent",
      "outputs": [
        {
          "internalType": "uint256",
          "name": "",
          "type": "uint256"
        }
      ],
      "stateMutability": "view",
      "type": "function"
    },
    {
      "inputs": [],
      "name": "treasuryWallet",
      "outputs": [
        {
          "internalType": "address",
          "name": "",
          "type": "address"
        }
      ],
      "stateMutability": "view",
      "type": "function"
    },
    {
      "inputs": [
        {
          "internalType": "address",
          "name": "newImplementation",
          "type": "address"
        },
        {
          "internalType": "bytes",
          "name": "data",
          "type": "bytes"
        }
      ],
      "name": "upgradeToAndCall",
      "outputs": [],
      "stateMutability": "payable",
      "type": "function"
    },
    {
      "inputs": [
        {
          "internalType": "address",
          "name": "",
          "type": "address"
        }
      ],
      "name": "userInfo",
      "outputs": [
        {
          "internalType": "address",
          "name": "referrer",
          "type": "address"
        },
        {
          "internalType": "uint256",
          "name": "activeDirects",
          "type": "uint256"
        },
        {
          "internalType": "uint256",
          "name": "teamCount",
          "type": "uint256"
        },
        {
          "internalType": "uint256",
          "name": "totalRevenue",
          "type": "uint256"
        },
        {
          "internalType": "uint256",
          "name": "currentCap",
          "type": "uint256"
        },
        {
          "internalType": "bool",
          "name": "isActive",
          "type": "bool"
        },
        {
          "internalType": "uint256",
          "name": "refundFeeAmount",
          "type": "uint256"
        },
        {
          "internalType": "uint256",
          "name": "teamTotalVolume",
          "type": "uint256"
        },
        {
          "internalType": "uint256",
          "name": "teamTotalCap",
          "type": "uint256"
        },
        {
          "internalType": "uint256",
          "name": "maxTicketAmount",
          "type": "uint256"
        },
        {
          "internalType": "uint256",
          "name": "maxSingleTicketAmount",
          "type": "uint256"
        }
      ],
      "stateMutability": "view",
      "type": "function"
    },
    {
      "inputs": [
        {
          "internalType": "address",
          "name": "",
          "type": "address"
        },
        {
          "internalType": "uint256",
          "name": "",
          "type": "uint256"
        }
      ],
      "name": "userStakes",
      "outputs": [
        {
          "internalType": "uint256",
          "name": "id",
          "type": "uint256"
        },
        {
          "internalType": "uint256",
          "name": "amount",
          "type": "uint256"
        },
        {
          "internalType": "uint256",
          "name": "startTime",
          "type": "uint256"
        },
        {
          "internalType": "uint256",
          "name": "cycleDays",
          "type": "uint256"
        },
        {
          "internalType": "bool",
          "name": "active",
          "type": "bool"
        },
        {
          "internalType": "uint256",
          "name": "paid",
          "type": "uint256"
        }
      ],
      "stateMutability": "view",
      "type": "function"
    },
    {
      "inputs": [
        {
          "internalType": "address",
          "name": "",
          "type": "address"
        }
      ],
      "name": "userTicket",
      "outputs": [
        {
          "internalType": "uint256",
          "name": "ticketId",
          "type": "uint256"
        },
        {
          "internalType": "uint256",
          "name": "amount",
          "type": "uint256"
        },
        {
          "internalType": "uint256",
          "name": "purchaseTime",
          "type": "uint256"
        },
        {
          "internalType": "bool",
          "name": "exited",
          "type": "bool"
        }
      ],
      "stateMutability": "view",
      "type": "function"
    },
    {
      "inputs": [
        {
          "internalType": "address",
          "name": "_to",
          "type": "address"
        },
        {
          "internalType": "uint256",
          "name": "_amount",
          "type": "uint256"
        }
      ],
      "name": "withdrawLevelRewardPool",
      "outputs": [],
      "stateMutability": "nonpayable",
      "type": "function"
    },
    {
      "inputs": [
        {
          "internalType": "address",
          "name": "_toMC",
          "type": "address"
        },
        {
          "internalType": "uint256",
          "name": "_amountMC",
          "type": "uint256"
        },
        {
          "internalType": "address",
          "name": "_toJBC",
          "type": "address"
        },
        {
          "internalType": "uint256",
          "name": "_amountJBC",
          "type": "uint256"
        }
      ],
      "name": "withdrawSwapReserves",
      "outputs": [],
      "stateMutability": "nonpayable",
      "type": "function"
    },
    {
      "stateMutability": "payable",
      "type": "receive"
    }
  ],
  "bytecode": "0x60a08060405234620000d157306080527ff0c57e16840df040f15088dc2f81fe391c3923bec73e23a9662efc9c229c6a009081549060ff8260401c16620000c257506001600160401b036002600160401b0319828216016200007c575b6040516155d29081620000d78239608051818181611f7f01526123be0152f35b6001600160401b031990911681179091556040519081527fc7f505b2f371ae2175ee4913f4499e1f2633a7b5936321eed1cdaeb6115181d290602090a13880806200005c565b63f92ee8a960e01b8152600490fd5b600080fdfe60806040526004361015610056575b361561001957600080fd5b61002534601654613745565b6016556040513481527fc8382e3e3003d34021113f35bf95ee86b77a09ec08c4eb3cbe64076e60468f4e60203392a2005b6000803560e01c8063013758ca146133a557806301d62efb146132fe57806304ef9d58146132e057806304f618cb1461311157806305ad3935146130b65780630e2be2101461309a5780631427f6161461307e5780631459457a14612e845780631788513c14612e5d578063182c84cc14612e365780631959a00214612d845780631d0dac7614612d6657806321923bde14612d1757806321b77d6314612cf357806321f483d314612cab5780632630c12f14612c7e578063263f30b314612c4657806327c830a914612c2357806327f082f414612c055780633507637314612676578063372500ab146126555780633dbd46bd146126225780634348b59b146125e35780634626402b146125ba578063488b5d971461259c5780634a4e3bd5146125525780634f1ef2861461234357806351858e27146122f657806351c6590a146121a757806352778b0514611fd757806352d1902d14611f6c5780636031a52f14611f4e5780636839b5fa14611f315780636dd6682714611f13578063715018a614611eba57806375506c9614611e9c57806375f0a87414611e7357806377a2a54014611e55578063813380cd14611e2757806381eeef5c14611d4257806383672f3e14611c4a578063841d308b146119f05780638710bcaa1461198f57806388481b611461197357806388fd4d331461194a5780638a859a851461192e5780638c0eaa48146119125780638da5cb5b146118dc57806390b0eb511461188c5780639370b0801461186e57806398ad675a1461183557806399b6024d146117aa5780639b7885041461172e5780639d99eca4146116e0578063a1d7d1a91461167a578063a2af922614611647578063ac8f50aa146115f3578063ad3cb1cc146115b1578063b048a4bb1461158e578063b5d5b5fa14611500578063b759936b146114e2578063bd594dcf146114c4578063be040fb014610faf578063c2ff12fc14610f7c578063ccf6194414610f5e578063cea9d26f14610e6b578063ceaa366d14610e4d578063d0f1647014610dc3578063d2c8e0e514610d14578063d2f8253614610cee578063d4f0014214610b92578063d8020a1814610b74578063dce3dc1f14610b49578063deab8aea14610b20578063dec7fa3b14610b02578063e306744914610ae4578063e4412f6814610ac6578063ece7126614610a78578063edca914c146104015763f2fde38b146103d2575061000e565b346103fe5760203660031901126103fe576103fb6103ee613449565b6103f6613fe0565b613f7e565b80f35b80fd5b50806003193601126103fe576104156140c8565b60ff604e5416610a6657338152600e60205260408120546001600160a01b031615610a5457610443336148f0565b68056bc75e2d6310000034141580610a41575b80610a2e575b80610a1b575b610a0957338152600f6020526040812060038101805460ff161561093e5761048b6018546136e0565b80601855825534600183015542600283015560ff198154169055338252600e602052816003604082200155600334023481046003143415171561092a57338352600e60205260046040842001555b600a6001820154338452600e60205260408420906009820180548211610922575b50500180543411610919575b5080548252601b6020908152604080842080546001600160a01b031916339081179091558452600e9091528220546001600160a01b031680151580610905575b156108e357610563606461055c60055434613705565b0482614abc565b90816108ae575b50505b338252600e6020526040822054829182916001600160a01b0316908290348015908004600114171561089a579394915b6001600160a01b038116151580610890575b80610886575b156106b9576001600160a01b0381168452600e60205260408420600581015460ff161561069a575060018060a01b03811690818552600e6020528361060060016040882001546136b0565b1161063a575b508352600e60205260408320546001600160a01b0316916106309061062a906136e0565b956136e0565b935b93949161059d565b610648906064340490614bf5565b801561060657918261065991613745565b91338552600f60205260408520546040519182528560208301526003604083015260608201528160008051602061541d83398151915260803393a338610606565b5492956001600160a01b03909316926106b391506136e0565b93610632565b83856106d38460646106cd60065434613705565b04613738565b80610841575b5060018060a01b036001541661070060079160646106f960075434613705565b04906141b7565b606461070e60085434613705565b0480610825575b5061073260018060a01b036003541660646106f960095434613705565b61074e60018060a01b036002541660646106f9600a5434613705565b336000908152600e6020526040812054909234151592916001600160a01b03165b6001600160a01b03168015158061081b575b156107c857600052600e6020526107ad836040600020906107b3575b546001600160a01b0316946136e0565b9361076f565b8381016107c1348254613745565b905561079d565b85826107d333614105565b546040519034825260208201527f2a91574e12ad96234e84923e146b0946ecfb871cd8d5534dc1fdcbe87a7c01b360403392a2600160008051602061555d8339815191525580f35b50601e8510610781565b60045461083b91906001600160a01b03166141b7565b83610715565b6040816108717fca2e2bff26d2adb9fe155e9265350494c16751676879cb7ced9141e0fcf3934393601e54613745565b80601e5582519182526020820152a1826106d9565b50601486106105b5565b50600f83106105af565b634e487b7160e01b84526011600452602484fd5b825460405192835284602084015260026040840152606083015260008051602061541d83398151915260803393a3388061056a565b5061090060018060a01b036001541660646106f960055434613705565b61056d565b5080835260ff600560408520015416610546565b34905538610506565b5538806104fa565b634e487b7160e01b83526011600452602483fd5b600182018054806109a457506109556018546136e0565b80601855835534905542600283015560ff198154169055338252600e602052816003604082200155600334023481046003143415171561092a57338352600e60205260046040842001556104d9565b6109b19192503490613745565b9055338252600e60205260ff6005604084200154166109fe575b600334023481046003143415171561092a57338352600e6020526109f760046040852001918254613745565b90556104d9565b4260028201556109cb565b60405163162908e360e11b8152600490fd5b50683635c9adc5dea00000341415610462565b50681b1ae4d6e2ef50000034141561045c565b50681043561a8829300000341415610456565b604051635359877d60e01b8152600490fd5b60405163ab35696f60e01b8152600490fd5b50346103fe5760203660031901126103fe577fc7f6975dcffc536e6e57dd1d1dea810fff534a70563baf2d6f977b119bd00e1b6020600435610ab8613fe0565b80600b55604051908152a180f35b50346103fe57806003193601126103fe576020600854604051908152f35b50346103fe57806003193601126103fe576020601a54604051908152f35b50346103fe57806003193601126103fe576020600b54604051908152f35b50346103fe57806003193601126103fe576004546040516001600160a01b039091168152602090f35b50346103fe5760203660031901126103fe576040610b68600435614019565b82519182526020820152f35b50346103fe57806003193601126103fe576020600754604051908152f35b50346103fe5760803660031901126103fe57610bac613449565b60243590610bb8613475565b60643591610bc4613fe0565b83610c98575b5081610bf3575b506000805160206154bd8339815191529160409182519182526020820152a180f35b91602082610c3294610c0782601754613738565b60175560018060a01b03875416908760405180988195829463a9059cbb60e01b8452600484016135b4565b03925af1918215610c8d576000805160206154bd83398151915293604093610c5e575b50915091610bd1565b610c7f9060203d602011610c86575b610c778183613544565b810190613752565b5038610c55565b503d610c6d565b6040513d86823e3d90fd5b834710610cdc57848080868194610cb182601654613738565b6016555af1610cbe613c3f565b5015610cca5738610bca565b604051633d2cec6f60e21b8152600490fd5b60405163dbc3a71f60e01b8152600490fd5b50346103fe57806003193601126103fe57602060ff60155460081c166040519015158152f35b50346103fe57602090816003193601126103fe576001600160a01b03919082610d3b613449565b168152601182526040812090604051808484549182815201908194845285842090845b818110610dad5750505081610d74910382613544565b6040519380850191818652518092526040850193925b828110610d975785850386f35b8351871685529381019392810192600101610d8a565b8254891684529287019260019283019201610d5e565b50346103fe5760c03660031901126103fe577f66682b276e4cd1a4e1f68b55b1143766c5332f472eb593cf2a70a25d9d5d991760c060043560a435608435606435604435602435610e12613fe0565b856005558060065581600755826008558360095584600a55604051958652602086015260408501526060840152608083015260a0820152a180f35b50346103fe57806003193601126103fe576020600954604051908152f35b50346103fe5760603660031901126103fe57610e85613449565b610e8d61345f565b60443591610e99613fe0565b83546001600160a01b03828116949181168514610f4c57831615610f4c576020604051809563a9059cbb60e01b8252818881610ed9878a600484016135b4565b03925af1908115610f41577f77023e19c7343ad491fd706c36335ca0e738340a91f29b1fd81e2673d44896c494610f1c92610f22575b5060405193849384613bac565b0390a180f35b610f3a9060203d602011610c8657610c778183613544565b5038610f0f565b6040513d87823e3d90fd5b60405163e6c4247b60e01b8152600490fd5b50346103fe57806003193601126103fe576020600554604051908152f35b50346103fe5760203660031901126103fe576020906004358152601b8252604060018060a01b0391205416604051908152f35b50346103fe57806003193601126103fe57610fc86140c8565b60ff8060155460081c16156114b35733825260209160108352604081209281828391845b875481101561116857866004611002838b613651565b5001541615611160576002611017828a613651565b5001546003611026838b613651565b50015490620151809182810292818404149015171561114c57899161104a91613745565b42101561105d575b506001905b01610fec565b938192936110f59161109d60056110938661108d61108661108060019a8e613651565b506141dd565b8096613745565b9a613651565b5001918254613745565b9055338852600e87526009604089200154801561113b575b6110c4606491600b5490613705565b04836110d0868d613651565b5001548181111561112857906110e9816110ef93613738565b92613745565b94613745565b916004611102828b613651565b5001805460ff19169055611120611119828b613651565b50546142be565b905087611052565b905061113391613745565b938790613745565b50600f8752604088208301546110b5565b634e487b7160e01b88526011600452602488fd5b600190611057565b5084939181159081806114ab575b6114995780611484575b50836111e7575b600e9350156111d7575b5061119b33614105565b33835252604081206004600382015491015411156111c9575b600160008051602061555d8339815191525580f35b6111d2336144b2565b6111b4565b6111e190336141b7565b83611191565b338552600e8352611205604086206003600482015491015490613738565b80851161145c575b50831561118757338552600e83526003604086200161122d858254613745565b90558360011c85908047101580611453575b611441575b6017548015801561142d575b156113ec5750670de0b6b3a7640000905b670de0b6b3a76400009081810291818304149015171561114c579061128591613718565b86546040516370a0823160e01b815230600482015288926001600160a01b0390921691908781602481865afa80156113e15782918b916113ab575b501015806113a2575b611329575b505060008051602061543d83398151915290600e9660405190815260008782015260008051602061553d83398151915260403392a2338852600f86526040882054906113216040519283923396846135cf565b0390a2611187565b91509585604051809863a9059cbb60e01b8252818b8161134d8833600484016135b4565b03925af191821561139757600e9760008051602061543d8339815191529361137a575b50918197506112ce565b61139090883d8a11610c8657610c778183613544565b5089611370565b6040513d8a823e3d90fd5b508015156112c9565b809250898092503d83116113da575b6113c48183613544565b810103126113d5578190518b6112c0565b600080fd5b503d6113ba565b6040513d8c823e3d90fd5b601654670de0b6b3a764000090818102918183041490151715611419579061141391613718565b90611261565b634e487b7160e01b89526011600452602489fd5b50683635c9adc5dea0000060165410611250565b905061144d81336141b7565b80611244565b5080151561123f565b9093604051908152818482015260008051602061549d83398151915260403392a2928561120d565b61149090601654613745565b60165585611180565b6040516304c4857b60e51b8152600490fd5b508415611176565b6040516282b42960e81b8152600490fd5b50346103fe57806003193601126103fe576020600654604051908152f35b50346103fe57806003193601126103fe576020601e54604051908152f35b50346103fe5760403660031901126103fe5761151a613449565b6001600160a01b03168152601060205260408120805460243592908310156103fe5760c06115488484613651565b508054906001810154906002810154600382015490600560ff600485015416930154936040519586526020860152604085015260608401521515608083015260a0820152f35b50346103fe57806003193601126103fe57602060ff601554166040519015158152f35b50346103fe57806003193601126103fe576115ef6040516115d1816134e5565b60058152640352e302e360dc1b602082015260405191829182613608565b0390f35b50346103fe5761160236613582565b908252601c602052604082208054821015611643576116219250613598565b5080546001909101546040519182916115ef916001600160a01b0316836135b4565b8280fd5b50346103fe5760403660031901126103fe576103fb611664613449565b61166c61345f565b90611675613fe0565b613c6f565b50346103fe5760203660031901126103fe576001600160a01b0361169c613449565b168152601f6020526040812054602080526040822054918282116000146116d757506115ef6116cb8383613738565b604051938493846135cf565b6115ef906116cb565b50346103fe5760203660031901126103fe577fd28d9e4ce68d89af7920cb8618e342a78f51e545c530ce60f1cb1d6f0235b47f6020600435611720613fe0565b80601455604051908152a180f35b50346103fe5760403660031901126103fe57611748613449565b60243590611754613fe0565b814710610cdc578280808085855af161176b613c3f565b5015610cca576040519182526001600160a01b0316907f288155da11d775f8595652c04f862708561d601d9fd3f04f7aed5f8311296e2490602090a280f35b50346103fe5760403660031901126103fe576117c4613449565b602435906117d0613fe0565b814710610cdc576117e382601e54613738565b601e558280808085855af16117f6613c3f565b5015610cca576040519182526001600160a01b0316907f27971ee1acbfbdfb20656657ceb2e0e7b519b9e60fe1a6b1f6d27b159f4a607c90602090a280f35b50346103fe5760203660031901126103fe576020906040906001600160a01b0361185d613449565b168152601f83522054604051908152f35b50346103fe57806003193601126103fe576020600d54604051908152f35b50346103fe577f4e9dd03193a0c81552fb8e6d32280f0d7e0ce8087241dc3d17ef3d193ee231d760406118be36613582565b6118c6613fe0565b81600c5580600d5582519182526020820152a180f35b50346103fe57806003193601126103fe5760008051602061545d833981519152546040516001600160a01b039091168152602090f35b50346103fe57806003193601126103fe57602060405160038152f35b50346103fe57806003193601126103fe57602060405160018152f35b50346103fe57806003193601126103fe576003546040516001600160a01b039091168152602090f35b50346103fe57806003193601126103fe57602060405160048152f35b50346103fe5760203660031901126103fe576080906040906001600160a01b036119b7613449565b168152600f6020522080549060018101549060ff6003600283015492015416916040519384526020840152604083015215156060820152f35b50806003193601126103fe57611a046140c8565b60ff604e5416610a66573415610a0957601654683635c9adc5dea00000808210908115611c3e575b50611be75760175490611a52611a428334613705565b611a4c3484613745565b90613718565b6127108034029034820403611c2a57611a6e836103e892613718565b11610a09576064611a81600c5483613705565b0491611a8d8383613738565b85546040516370a0823160e01b815230600482015291956020946001600160a01b03949193928516928681602481875afa80156113e15782918b91611bf9575b5010611be7578893611ae3611aeb933490613745565b601655613738565b601755803b15611be357818091602460405180948193630852cd8d60e31b83528a60048401525af18015611bd857611bc0575b5054169181604051809463a9059cbb60e01b8252818881611b438a33600484016135b4565b03925af1918215610f41577f36864aeefce16bc4aaceeb6b0cdfb2ad1455a8cb4ccb0db148a2bc6e7166f97c93611b8a93611ba2575b5050604051918291339534846134cf565b0390a2600160008051602061555d8339815191525580f35b81611bb892903d10610c8657610c778183613544565b503880611b79565b611bc990613516565b611bd4578438611b1e565b8480fd5b6040513d84823e3d90fd5b5080fd5b6040516343c7ad8160e11b8152600490fd5b809250888092503d8311611c23575b611c128183613544565b810103126113d55781905138611acd565b503d611c08565b634e487b7160e01b85526011600452602485fd5b90506017541038611a2c565b50346103fe5760803660031901126103fe57611c64613449565b611c6c61345f565b90611c75613475565b91611c7e61348b565b90611c87613fe0565b6001600160a01b039283169182158015611d38575b8015611d2e575b8015611d24575b610f4c577f213f1de8063c19612a553f1480ff341bea689d36a56a2089f1b9060d599b5d8394848060809660018060a01b031995878760015416176001551692838660025416176002551692838560035416176003551680936004541617600455604051938452602084015260408301526060820152a180f35b5083811615611caa565b5083851615611ca3565b5083821615611c9c565b50346103fe57806003193601126103fe57601a54620151808101809111611e13574210611e01576017548015610a095760648104908115610a095781611d8791613738565b601755815482906001600160a01b0316803b15611be357818091602460405180948193630852cd8d60e31b83528860048401525af18015611bd857611ded575b506000805160206154fd83398151915260408342601a558151908482526020820152a180f35b611df690613516565b611be3578138611dc7565b604051636f47a98b60e11b8152600490fd5b634e487b7160e01b82526011600452602482fd5b50346103fe57611e3636613582565b9082526012602052604082208054821015611643576116219250613598565b50346103fe57806003193601126103fe576020601654604051908152f35b50346103fe57806003193601126103fe576001546040516001600160a01b039091168152602090f35b50346103fe57806003193601126103fe576020601954604051908152f35b50346103fe57806003193601126103fe57611ed3613fe0565b60008051602061545d83398151915280546001600160a01b031981169091556000906001600160a01b031660008051602061551d8339815191528280a380f35b50346103fe57806003193601126103fe576020601454604051908152f35b50346103fe57806003193601126103fe5760206040516103e88152f35b50346103fe57806003193601126103fe576020601854604051908152f35b50346103fe57806003193601126103fe577f00000000000000000000000000000000000000000000000000000000000000006001600160a01b03163003611fc557602060405160008051602061547d8339815191528152f35b60405163703e46dd60e11b8152600490fd5b50346103fe5760203660031901126103fe57600435611ff46140c8565b60ff604e5416610a66578015610a0957683635c9adc5dea00000806016541090811561219b575b50611be75781546040516323b872dd60e01b81526001600160a01b03916020908290841681878161205189303360048501613bac565b03925af18015610c8d5761217c575b50606461206f600d5484613705565b0461207a8184613738565b916127108084029084820414841517156121685761209e6103e89160175490613718565b11610a09578490815416803b15611be3578190602460405180948193630852cd8d60e31b83528760048401525af18015610f4157612155575b50601654916120e68382613705565b6120f760175491611a4c8484613745565b91824710611be7577f223c8ad0806f634524940a8595f819c5cfc7b1f4f4f45791269301df0a7e61d59461212f849261213794613745565b601755613738565b60165561214481336141b7565b611b8a6040519283923396846134cf565b61216190949194613516565b92386120d7565b634e487b7160e01b86526011600452602486fd5b6121949060203d602011610c8657610c778183613544565b5038612060565b9050601754103861201b565b5060203660031901126103fe576004356121bf613fe0565b346122e2575b806121ec575b60406000805160206153fd833981519152918151903482526020820152a180f35b81546040516323b872dd60e01b81529060209082906001600160a01b031681868161221c88303360048501613bac565b03925af190816122c3575b5061229a57508060033d11612289575b506308c379a014612255575b6040516320a9b82760e21b8152600490fd5b61225d613bce565b806122685750612243565b6040516387a26b7560e01b81529081906122859060048301613608565b0390fd5b9050600481803e5160e01c38612237565b6040816122b86000805160206153fd83398151915293601754613745565b6017559150506121cb565b6122db9060203d602011610c8657610c778183613544565b5038612227565b6122ee34601654613745565b6016556121c5565b50346103fe57806003193601126103fe5761230f613fe0565b600160ff19604e541617604e557f4cb3183d0bf66f9634b15cfc3539fdddc96c2c9324848af89b56586a6739fec48180a180f35b5060403660031901126103fe57612358613449565b60249182356001600160401b038111611be35736602382011215611be35780600401359261238584613567565b6123926040519182613544565b848152602094858201933688838301011161252b57818692898993018737830101526001600160a01b037f00000000000000000000000000000000000000000000000000000000000000008116308114908115612536575b50611fc5576123f7613fe0565b6040516352d1902d60e01b81529083169580826004818a5afa9182918793612502575b505061243857604051634c9c8ce360e01b8152600481018790528790fd5b85908760008051602061547d833981519152918281036124ed5750843b156124d7575080546001600160a01b031916821790556040518592917fbc7cd75a20ee27fd9adebab32041f755214dbc6bffa90cc0225b39da2e5c2d3b8480a28151156124ba57506124b69382915190845af46124b0613c3f565b91615358565b5080f35b9350505050346124c8575080f35b63b398979f60e01b8152600490fd5b604051634c9c8ce360e01b815260048101849052fd5b60405190632a87526960e21b82526004820152fd5b9080929350813d831161252f575b61251a8183613544565b8101031261252b575190388061241a565b8580fd5b503d612510565b90508160008051602061547d83398151915254161415386123ea565b50346103fe57806003193601126103fe5761256b613fe0565b60ff19604e5416604e557f15de7ad89d29fd1c6d2e6b1e878453569b4080edf34e0105faaa3bd52f0185308180a180f35b50346103fe57806003193601126103fe576020604051620151808152f35b50346103fe57806003193601126103fe576002546040516001600160a01b039091168152602090f35b50806003193601126103fe576125f76140c8565b60ff604e5416610a66576004546001600160a01b031633036114b3573415610a09576111b434614745565b50346103fe5760203660031901126103fe576020906004358152601d8252604060018060a01b0391205416604051908152f35b50346103fe57806003193601126103fe5761266e6140c8565b6111b461376a565b5060203660031901126103fe5761268b6140c8565b60ff604e5416610a665760ff6015541615612bcb57338152600f60205260408120600181015415612bb95760ff600382015416612ba7576007600435141580612b9a575b80612b8d575b612b7b573415610a09576126ea6019546136e0565b60198190553383526010602052604080842090519160c083016001600160401b03811184821017612b675760405282523460208301524260408301526004356060830152600160808301528360a0830152805490600160401b821015612b53579061275a91600182018155613651565b919091612b3f5760a0816005925184556020810151600185015560408101516002850155606081015160038501556127a760808201511515600486019060ff801983541691151516179055565b01519101556019548252601d602052604082203360018060a01b0319825416179055338252600e602052600a60408320018054918215612b2e575b5050609681029080820460961490151715611e1357606490043403610a095761280a33614105565b601954906040517fa8a1b9e33e503eed12bf7e7c8c01c7f3b60217a496bddd0f5db351dd8c056c1c3391806128438660043534846134cf565b0390a2338152600e6020526040812054819081906001600160a01b03165b6001600160a01b038116151580612b24575b15612b1a576001600160a01b0381168452600e60205260408420600581015460ff1615612b0557506001600160a01b0381168452600f602052604084206001810154908115908115612af6575b50612ad1576001600160a01b0382168552600e60205260408520600201546128e790614019565b9190508482116129c9575b50602d1115612926576001600160a01b039081168452600e6020526040842054169061291d906136e0565b915b9190612861565b50505090505b338152600e60205260066040822001818154918261295b575b50600160008051602061555d8339815191525580f35b5560165481811015806129bf575b612975575b8290612945565b8161297f91613738565b60165561298c81336141b7565b6040519081527f3437b9ea7fa19c6d233dd70cc787a70fab87cee64d8ba4571512cc84402748f960203392a2388061296e565b5081471015612969565b6129eb906129da8396606494613738565b903490803411612ac9575b50613705565b04858552601c6020526040852060405190612a05826134e5565b6001600160a01b038416825260208201839052805490600160401b821015612ab55790612a3791600182018155613598565b919091612aa157805182546001600160a01b0319166001600160a01b03918216178355602091820151600193909301929092556040519283529083169187917f7c6505ab8279235ad21ebf427336cc8d97c017b4aa1f10ffdff11d3261e4934e91a382602d6128f2565b634e487b7160e01b87526004879052602487fd5b634e487b7160e01b88526041600452602488fd5b9050386129e5565b5050600e60205260408320546001600160a01b031690612af0906136e0565b9161291f565b60ff91506003015416386128c0565b546001600160a01b031691612af091506136e0565b505050905061292c565b5060148210612873565b6001919250015480915538806127e2565b634e487b7160e01b84526004849052602484fd5b634e487b7160e01b85526041600452602485fd5b634e487b7160e01b86526041600452602486fd5b604051634dc7f5ff60e11b8152600490fd5b50601e60043514156126d5565b50600f60043514156126cf565b604051631ecb2c4f60e31b8152600490fd5b604051634065aaf160e11b8152600490fd5b60405162461bcd60e51b8152602060048201526012602482015271131a5c5d5a591a5d1e48191a5cd8589b195960721b6044820152606490fd5b50346103fe57806003193601126103fe576020600c54604051908152f35b50346103fe57806003193601126103fe57602060ff604e54166040519015158152f35b50346103fe5760203660031901126103fe576020906040906001600160a01b03612c6e613449565b1681528280522054604051908152f35b50346103fe57806003193601126103fe57604e5460405160089190911c6001600160a01b03168152602090f35b50346103fe5760203660031901126103fe57600435906013548210156103fe576020816013600393522091020180546115ef60026001840154930154604051938493846134cf565b50346103fe57806003193601126103fe576020604051683635c9adc5dea000008152f35b50346103fe5760203660031901126103fe576115ef906002906040906001600160a01b03612d43613449565b168152600e602052200154612d5781614019565b929091604051938493846134cf565b50346103fe57806003193601126103fe576020601754604051908152f35b50346103fe5760203660031901126103fe57610160906001600160a01b039060409082612daf613449565b168152600e60205220908154169060018101549060028101546003820154600483015460ff600585015416600685015491600786015493600887015495600a6009890154980154986040519a8b5260208b015260408a015260608901526080880152151560a087015260c086015260e0850152610100840152610120830152610140820152f35b50346103fe5760203660031901126103fe576020612e556004356136b0565b604051908152f35b50346103fe57806003193601126103fe57546040516001600160a01b039091168152602090f35b50346103fe5760a03660031901126103fe57612e9e613449565b612ea661345f565b90612eaf613475565b612eb761348b565b916084356001600160a01b03818116929183900361307a5760008051602061557d8339815191529485549660ff8860401c16159560018060401b03891698891580613073575b6001809b149081613069575b159081613060575b5061304e576001600160401b031981168a1789558492839189613033575b50612f386152a3565b612f406152a3565b612f4933613f7e565b612f516152a3565b612f596152a3565b612f616152a3565b8a60008051602061555d833981519152558160018060a01b03199716878d5416178c5516858a5416178955168360025416176002551681600354161760035560045416176004556019600555600f6006556005600755600560085560196009556019600a5582600b556032600c556019600d556203f48060145561010161ffff19601554161760155542601a55612ff6578280f35b805460ff60401b191690556040519081527fc7f505b2f371ae2175ee4913f4499e1f2633a7b5936321eed1cdaeb6115181d290602090a138808280f35b6001600160481b0319166001600160401b01178a5538612f2f565b60405163f92ee8a960e01b8152600490fd5b90501538612f11565b303b159150612f09565b5087612efd565b8680fd5b50346103fe57806003193601126103fe57602090604051908152f35b50346103fe57806003193601126103fe57602060405160028152f35b50346103fe5760403660031901126103fe576130d0613449565b6001600160a01b039081168252601160205260408220805460243593908410156103fe5750602092613101916134a1565b9190546040519260031b1c168152f35b50346103fe57602080600319360112611be35761312c613449565b338352600e808352604084205490926001600160a01b0392909183166132ce5782163381146132bc578015610f4c5733808652600e8352604080872080546001600160a01b031916841790558287526011808552908720909161318e9161366d565b338652600e835283604087205416948487965b16801515806132b2575b1561328857808852818552604088209060028201805460018101918282116132745792826132118b9693837fa0eea20e678cb42233c1c456c84cedce7ea53fa360bb71bf3b761b760956777060408e8b996132319b5586825191868352820152a2614019565b5061321b82614019565b5090808203613237575b505050505416976136e0565b966131a1565b6132687fea8384d3ca7bf5b7510d3faee44a3774406c1fd3ac14fff110a8c98d47a2595693604051938493846134cf565b0390a238808080613225565b634e487b7160e01b8c52600487905260248cfd5b8784337fa6dbb5aa28f35437de94d685d66edce5fb4812196b4984b91dfd5a7b38c0fb308380a380f35b50601e87106131ab565b604051631acade8960e31b8152600490fd5b60405163682a906560e01b8152600490fd5b50346103fe57806003193601126103fe576020600a54604051908152f35b50346103fe5760403660031901126103fe57600435801515809103611be35760243590811515809203611643577f03cb373f89de891077fe47cec43663b6727713de0337af46bebd1178122251b7917fb886fcb5b9c12916f26d967ebe962dbd51ec249fb55961da39c851cdfc10115c6020809361337a613fe0565b6015805461ffff191660ff831617600886901b61ff0016179055604051908152a1604051908152a180f35b50346103fe5760203660031901126103fe576133bf613449565b6133c7613fe0565b6001600160a01b039081169081156134125782546001600160a01b0319811683178455167f0b499b1332f638ab70789e63adf87bde04c1d0254ee488465c256f2e5d0f488d8380a380f35b60405162461bcd60e51b815260206004820152600f60248201526e496e76616c6964206164647265737360881b6044820152606490fd5b600435906001600160a01b03821682036113d557565b602435906001600160a01b03821682036113d557565b604435906001600160a01b03821682036113d557565b606435906001600160a01b03821682036113d557565b80548210156134b95760005260206000200190600090565b634e487b7160e01b600052603260045260246000fd5b6040919493926060820195825260208201520152565b604081019081106001600160401b0382111761350057604052565b634e487b7160e01b600052604160045260246000fd5b6001600160401b03811161350057604052565b606081019081106001600160401b0382111761350057604052565b601f909101601f19168101906001600160401b0382119082101761350057604052565b6001600160401b03811161350057601f01601f191660200190565b60409060031901126113d5576004359060243590565b80548210156134b95760005260206000209060011b0190600090565b6001600160a01b039091168152602081019190915260400190565b606091949392608082019582526020820152600060408201520152565b9094939260609260808301968352602083015260408201520152565b6020808252825181830181905290939260005b82811061363d57505060409293506000838284010152601f8019910116010190565b81810186015184820160400152850161361b565b80548210156134b9576000526006602060002091020190600090565b80549190600160401b83101561350057826136909160016136ae950181556134a1565b90919060018060a01b038084549260031b9316831b921b1916179055565b565b60038110156136da5760028110156136d457600111156136cf57600090565b600590565b50600a90565b50600f90565b60001981146136ef5760010190565b634e487b7160e01b600052601160045260246000fd5b818102929181159184041417156136ef57565b8115613722570490565b634e487b7160e01b600052601260045260246000fd5b919082039182116136ef57565b919082018092116136ef57565b908160209103126113d5575180151581036113d55790565b6000338152602090600f8252604090818120926001936001810154158015613b9e575b613b8d57338352601082528383209483958185905b613a8c575b5050508415613a7b57338352600e82526137c78560038686200154613745565b94338452600e83528484209560049687810154809211613a65575b50508015613a5657338452600e8352600385852001613802828254613745565b90558060011c9184928047101580613a4d575b613a3b575b60175480158015613a27575b156139e75750670de0b6b3a7640000905b670de0b6b3a7640000908181029181830414901517156139d4579061385b91613718565b855487516370a0823160e01b8152308a820152879492916001600160a01b0316908781602481855afa9081156139ca579083918a91613995575b5010158061398c575b61390b575b50509160008051602061543d83398151915291600e9594938851908152878682015260008051602061553d833981519152893392a254906138ea88519283923396846135cf565b0390a233835252206003810154910154111561390257565b6136ae336144b2565b816139329293955087918b8a8c5180968195829463a9059cbb60e01b8452339084016135b4565b03925af18015613982579160008051602061543d8339815191529391600e97969593613965575b509394958193506138a3565b61397b90873d8911610c8657610c778183613544565b5038613959565b88513d89823e3d90fd5b5081151561389e565b809250898092503d83116139c3575b6139ae8183613544565b810103126139bf5782905138613895565b8880fd5b503d6139a4565b8a513d8b823e3d90fd5b634e487b7160e01b875260118952602487fd5b601654670de0b6b3a764000090818102918183041490151715613a145790613a0e91613718565b90613837565b634e487b7160e01b885260118a52602488fd5b50683635c9adc5dea0000060165410613826565b9250613a4783336141b7565b8261381a565b50801515613815565b5050505050506136ae336144b2565b613a7492506003015490613738565b38806137e2565b8351630fec21fd60e21b8152600490fd5b8154811015613b8857613a9f8183613651565b508360ff6004809301541615613b7e5750613abd6110808385613651565b9081613ad3575b5050908280925b0190916137a2565b909889613adf91613745565b98613aef60056110938587613651565b90556002613afd8385613651565b5001546003613b0c8486613651565b500154906201518091828102928184041490151715613b6b5791613b34869594928694613745565b421015613b44575b509192613ac4565b613b4e8285613651565b5001805460ff19169055613b656111198285613651565b38613b3c565b634e487b7160e01b895260118352602489fd5b9291839150613acb565b6137a7565b8351634065aaf160e11b8152600490fd5b5060ff60038201541661378d565b6001600160a01b03918216815291166020820152604081019190915260600190565b600060443d10613c2b57604051600319913d83016004833e81516001600160401b03918282113d602484011117613c2e57818401948551938411613c36573d85010160208487010111613c2e5750613c2b92910160200190613544565b90565b949350505050565b50949350505050565b3d15613c6a573d90613c5082613567565b91613c5e6040519384613544565b82523d6000602084013e565b606090565b916001600160a01b03908184169081158015613f74575b610f4c578284168083146132bc5784846000965b1680151580613f6a575b15613cd0578481146132bc57600052600e60205284613cca8160406000205416976136e0565b96613c9a565b506000848152600e60208181526040928390208054969a959950868916989496898b14613f5d576001600160a01b0319168a1790558715159485613e65575b613d24908a600052601183528460002061366d565b86600052818152600295600284600020015490600196600183018093116136ef57613de5575b8a613d7f575b50505050505050507ff8b9fe4d008320e6f048c61e41e9cc56ce351354ad0cb9a868bd3c4bd6928fd5600080a4565b600090875b613d8f575b50613d50565b861680151580613ddb575b15613dd65780600052848452888660002001613db7848254613745565b9055600052838352613dcf86866000205416916136e0565b9087613d84565b613d89565b50601e8210613d9a565b866000878c835b613dfa575b50505050613d4a565b1680151580613e5b575b15613e545760008181528787528890208b0180548611613e4b57613e29868254613738565b90555b600052858552613e4288886000205416916136e0565b90889083613dec565b60009055613e2c565b8890613df1565b50601e8210613e04565b989796959493929190876000526011808252836000209a60005b8c5480821015613f465787908b8f84613e97916134a1565b939054600394851b1c1614613eb0575050600101613e7f565b60009e9291939495969798999a9b9c9d9e1995868201918211613f325750906136908a613ee0613eee94866134a1565b905490871b1c1691846134a1565b80548015613f1c57613d249489910192613f0884846134a1565b81939154921b1b19169055555b9050613d0f565b634e487b7160e01b600052603160045260246000fd5b634e487b7160e01b60005260045260246000fd5b50509050613d249192939495969798999a50613f15565b5050505050505050505050565b5060328710613ca4565b5082841615613c86565b6001600160a01b03908116908115613fc75760008051602061545d83398151915280546001600160a01b0319811684179091551660008051602061551d833981519152600080a3565b604051631e4fbdf760e01b815260006004820152602490fd5b60008051602061545d833981519152546001600160a01b0316330361400157565b60405163118cdaa760e01b8152336004820152602490fd5b620186a08110156140bf576175308110156140b6576127108110156140ad57610bb88110156140a4576103e881101561409b5761012c81101561409257606481101561408957601e81101561408057600a111561407857600090600090565b600190600590565b50600290600a90565b50600390600f90565b50600490601490565b50600590601990565b50600690601e90565b50600790602390565b50600890602890565b50600990602d90565b60008051602061555d83398151915260028154146140e65760029055565b604051633ee5aeb560e01b8152600490fd5b80156136ef576000190190565b60018060a01b0380600092168252600f60205260408220906001820154151591826141a7575b50600e602052604083206005810160ff8154161515841515146141a057805460ff191660ff85151516179055541691821561419b5760019260409215614182578152600e602052200161417e81546136e0565b9055565b81522001805480614192575b5050565b61417e906140f8565b505050565b5050505050565b6003015460ff161591503861412b565b811561418e57814710610cdc57600080809381935af16141d5613c3f565b5015610cca57565b60038101546141eb816152d2565b90620151806141fe600285015442613738565b0490808211614250575b5080156142485761422d633b9aca00916142286005946001870154613705565b613705565b0491015480821161423f575050600090565b613c2b91613738565b505050600090565b905038614208565b80518210156134b95760209160051b010190565b8054906000908181558261427f57505050565b6001906001600160ff1b038416840361092a578252602082209260011b8301925b8381106142ad5750505050565b8083600292558383820155016142a0565b6000818152601d6020908152604080832054601c83528184208054939695929492936001600160a01b03928316906001600160401b038111612b535786519261430c8a8360051b0185613544565b818452855288852085908a8086015b848410614483575050505050835b825181101561446d57808983858a8861435f8161434860019986614258565b515116866143568987614258565b51015190614cea565b948b866143a8575b5091508b9350614398867fae629b396150638d6eb6de457cbffe5d618a10c8cc199a94976bed2b16ecd99394614258565b515116938c51908152a301614329565b8360008051602061541d83398151915294600492856080966143ca8d8b614258565b5151168252601f86528282206143e18c8254613745565b9055806143ee8d8b614258565b51511682528580528282206144048c8254613745565b90556144108c8a614258565b5151168152604f855220928d6144488b84519961442c8b613529565b87548b5260028f89015498868d01998a520154868c0152614258565b515116965193519082519485528401528201528c6060820152a383858a888e8b614367565b50505050906136ae9394601c918352522061426c565b6001916002918c51614494816134e5565b8a865416815284860154838201528152019201920191908b9061431b565b9060018060a01b039182811690600090828252602091600f8352604091828220916003830190815460ff8116156144f0575b50505050505050509050565b600160ff1991821681179093556010875285822091998a94859347908590875b61467b575b505088948d948c9d9e948d867f920bb94eb3842a728db98228c375ff6b00c5bc5a54fac6736155517a0a20a61a9f9b97968f8b979088917ff3a670cd3af7d64b488926880889d08a8585a138ff455227af6737339a1ec2629e9a61461f575b50505050505085614600575b898352600e8d52838320600581018054938416905554169060ff16806145f7575b806145e6575b6145cd575b5050519283525087820152a2549051908152a28038808080808080806144e4565b815220016145db81546140f8565b9055388381806145ac565b5080825283838320015415156145a7565b508015156145a1565b898352600e8d52600684842001614618878254613745565b9055614580565b84811061463f5750505061463392506141b7565b8987388f879082614574565b90919260008051602061549d8339815191529450818061466b575b50508251918c8352820152a2614633565b614674916141b7565b388161465a565b909d8e8254111561473f5760ff8f61469560049185613651565b500154161561473457878f6146aa9084613651565b50015480891b908082046002149015171561114c578f614708908a9493856146e461012c6146dc8397600b5490613705565b049387613651565b50015482811061472857906146fc8361470293613738565b90613745565b9b613745565b9f60046147158285613651565b50018881541690555b01919e989e614510565b8b925061470291613745565b979d9087809261471e565b9d614515565b9081156148ec57601654683635c9adc5dea000008082109081156148e0575b506148db57476147748483613745565b116148db57612710830261270f19848204016136ef57614797826103e892613718565b116148db57601754926147b76147ad8583613705565b611a4c8385613745565b801580156148d2575b6148cb5760009460018060a01b038654169060409485516370a0823160e01b8152306004820152602081602481875afa9081156148c1579083918a9161488c575b50106148825783889392611ae38761481894613745565b601755803b15611be35781906024865180948193630852cd8d60e31b83528760048401525af18015614878576000805160206154fd833981519152959650614869575b5082519182526020820152a1565b61487290613516565b3861485b565b84513d88823e3d90fd5b5050505050509050565b9150506020813d6020116148b9575b816148a860209383613544565b810103126139bf5782905138614801565b3d915061489b565b87513d8b823e3d90fd5b5050509050565b508481116147c0565b509050565b90506017541038614764565b9050565b6001600160a01b039081166000818152600f60209081526040808320600181810180549697909693959094929184158015614aae575b614a5957601084528682208054839291835b828110614a6e5750505050614a6457600282019661495a885460145490613745565b421115614a5957600383837f57025f0027038907eda728b59164fb63d06048f42e618a35267e6a12e49b2e469a8a9654998d8352600e895260ff6005898520928354169201541680614a50575b80614a3e575b614a24575b508c8252600e88528187812095816004600589019860ff19998a815416905582898201550155818555555501908154169055846149f5575b5051928352820152a2565b84815260128352614a0782822061426c565b848152601b83522080546001600160a01b031916905583386149ea565b8252600187832001614a3681546140f8565b9055386149b2565b508083526001888420015415156149ad565b508015156149a7565b505050505050505050565b5050505050505050565b60ff6004614a7c8385613651565b50015416614a8c575b8301614938565b93614aa6849182614a9d8886613651565b50015490613745565b949050614a85565b5060ff600384015416614926565b60018060a01b0381166000818152600e60205260409182822092600f60205280832060ff60058601541615908115614be6575b8115614bd9575b50614bd057600484019360038554910193614b1385548093613738565b88818111614ba7575b50508715614b9c57874710614b75575090614b468760008051602061553d83398151915293613745565b8455614b5287876141b7565b805187815260026020820152a25490541115614b6c575090565b613c2b906144b2565b969295505060008051602061549d833981519152935080925051908152846020820152a290565b965050505050505090565b8199508460008051602061549d8339815191529187939b82519182526020820152a23880614b1c565b50509250505090565b6001915001541538614af6565b600381015460ff169150614aef565b60018060a01b0381166000818152600e60205260409182822092600f60205280832060ff60058601541615908115614cdb575b8115614cce575b50614bd057600484019360038554910193614c4c85548093613738565b88818111614ca5575b50508715614b9c57874710614b75575090614c7f8760008051602061553d83398151915293613745565b8455614c8b87876141b7565b805187815260036020820152a25490541115614b6c575090565b8199508460008051602061549d8339815191529187939b82519182526020820152a23880614c55565b6001915001541538614c2f565b600381015460ff169150614c28565b60018060a01b038116600052600e6020526040600020600f602052604060002060ff60058301541615908115615294575b8115615287575b50614248578060036004614d3b93015491015490613738565b82818111615253575b5050811561524c576001600160a01b0381166000908152600e6020526040902090614d6d6152f8565b90670de0b6b3a76400008460011c028460011c8104670de0b6b3a7640000148560011c1517156136ef5782614da191613718565b936040518181528160011c60208201528160011c60408201528360608201528560808201527fa7e66afc02702ffeb435ee9bacce4988459c7b329bf0dd9f8f551d823d1fece060a0600180821b03851692a28492600094600092614e04886153e5565b15615206575b8060011c1515806151fd575b615166575b6000546040516370a0823160e01b81523060048201526001600160a01b0390911696906020816024818b5afa9081156150b857600091615134575b508115158061512b575b615045575b5060029650878260011c11801561503c575b614ff5575b50614e9a670de0b6b3a7640000614e938587613705565b0488613745565b978815614f7e5750508060036004920192614eb6898554613745565b93849055604080518a8152602081018590526001600160a01b0388169160008051602061553d83398151915291a27fe83062c7bae5146a0afc41b3a8342f225ed2581a8e234e0ba69d9ff8c53a48d660405180614f208b60018060a01b038b16958a4292856135ec565b0390a201541115614f70575b60405193614f3985613529565b845260208401908152604084019185835260018060a01b0316600052604f6020526040600020935184555160018401555191015590565b614f79826144b2565b614f2c565b915091506040519180835260011c60208301526040820152608060608201526015608082015274139bc81d1bdad95b9cc81d1c985b9cd9995c9c9959605a1b60a08201527fd8349f8ffff882edf1f3a7f209a1d24fb5e821ba347cf8da7f016de352368fd060c060018060a01b03851692a2614f2c565b7f60369b7cd498d613812af36dd7cb398ba493ee0afe0fc21d90a9f8b5fc620aa3604051806150338860018060a01b038b16958d8860011c856135ec565b0390a238614e7c565b50848111614e77565b94508481111561512557845b94859081116150c457506020604051809863a9059cbb60e01b82528160008161507e8b8d600484016135b4565b03925af19687156150b857600297615099575b505b38614e65565b6150b19060203d602011610c8657610c778183613544565b5038615091565b6040513d6000823e3d90fd5b9094506002965060405190600082526020820152606060408201526013606082015272129090c81d1c985b9cd9995c8819985a5b1959606a1b60808201526000805160206154dd83398151915260a0600180821b03881692a2600093615093565b80615051565b50801515614e60565b90506020813d60201161515e575b8161514f60209383613544565b810103126113d5575138614e56565b3d9150615142565b9550478660011c116000146151f35747955b86478111615190575061518b87866141b7565b614e1b565b9096506040519081526000602082015260606040820152601960608201527813985d1a5d99481350c81d1c985b9cd9995c8819985a5b1959603a1b60808201526000805160206154dd83398151915260a0600180821b03871692a2600095614e1b565b8560011c95615178565b50471515614e16565b601754604051601490910480825296506001600160a01b038616907fa3c9509a6af5ab7ab677b3caa94bb10373473b146705f236c71768d7b6b1a51390602090a2614e0a565b5050600090565b60408051918252602082018390529193506001600160a01b0383169160008051602061549d83398151915291a23880614d44565b6001915001541538614d22565b600381015460ff169150614d1b565b60ff60008051602061557d8339815191525460401c16156152c057565b604051631afcd79f60e31b8152600490fd5b600781146152f057600f146152e9576301312d0090565b62fe502b90565b5062cb735690565b60175480158015615344575b61533757601654670de0b6b3a7640000908181029181830414901517156136ef57613c2b9161533291613718565b6153bb565b50670de0b6b3a764000090565b50683635c9adc5dea0000060165410615304565b9061537f575080511561536d57602081519101fd5b60405163d6bda27560e01b8152600490fd5b815115806153b2575b615390575090565b604051639996b31560e01b81526001600160a01b039091166004820152602490fd5b50803b15615388565b67016345785d8a00008082106153e05750678ac7230489e800008082116153e0575090565b905090565b80156153f657601460175404101590565b5060019056fe38f8a0c92f4c5b0b6877f878cb4c0c8d348a47b76d716c8e78f425043df9515b62c4ea4229c396c9b5c33779ec09ed411b29ed8782e48ac358eaa9e8aa58a9b06fcebd0a2ce98b28cb391d6008bbc769378c9a4919628e11639cb575cd320fcc9016d09d72d40fdae2fd8ceac6b6234c7706214fd39c1cd1e609a0528c199300360894a13ba1a3210667c828492db98dca3e2076cc3735a920a3ca505d382bbcb5987aab1afd379f6695f1068869ee8ca6a0d02304c57935a9cc3d3ea2e51e4d520bc217d25ef4588524228dffcfa518f4ad52178c71d49b8061d016213cd311da109f9a8d0129326c2906f581adfd38d938005d44218a2f7c843b9b105af9ba0ec3929061cbbbeecb325623e7d5a86c3dae11cb8a22ca45dc0972955657da258be0079c531659141344cd1fd0a4f28419497f9722a3daafe3b4186f6b6457e0f381583145e90b82cc5e529bf4fc4d0e44397174cdf145c4251ac33ef195a4249b779b17422d0df92223018b32b4d1fa46e071723d6817e2486d003becc55f00f0c57e16840df040f15088dc2f81fe391c3923bec73e23a9662efc9c229c6a00a2646970667358221220bc0800bbccf2e616b8ffa7be75df97dfb5f4aa0bf402312b549c932113d68b3464736f6c63430008160033",
  "linkReferences": {},
  "deployedLinkReferences": {}
}