{
  "_format": "hh-sol-artifact-1",
  "contractName": "TestCompile",
  "sourceName": "contracts/TestCompile.sol",
  "abi": [
    {
      "inputs": [],
      "name": "name",
      "outputs": [
        {
          "internalType": "string",
          "name": "",
          "type": "string"
        }
      ],
      "stateMutability": "view",
      "type": "function"
    },
    {
      "inputs": [],
      "name": "test",
      "outputs": [
        {
          "internalType": "bool",
          "name": "",
          "type": "bool"
        }
      ],
      "stateMutability": "pure",
      "type": "function"
    }
  ],
  "bytecode": "0x608080604052346100935760008054600190600181811c91168015610089575b602082101461007557601f811161004c575b505060086315195cdd60e21b0190556101d790816100998239f35b828052601f60208420910160051c8101905b81811061006b5750610031565b838155820161005e565b634e487b7160e01b83526022600452602483fd5b90607f169061001f565b600080fdfe60806040818152600436101561001457600080fd5b600091823560e01c90816306fdde0314610056575063f8a8fd6d1461003857600080fd5b346100525781600319360112610052576020905160018152f35b5080fd5b9190503461019d578260031936011261019d5782918354936001938560011c9460018716968715610193575b602097888810811461017f5787865288929181156101605750600114610129575b5050829003601f01601f19908116830195939450926001600160401b038611838710176101155785929391838652818452845191828186015281955b8387106100fd5750508394508582601f949501015201168101030190f35b868101820151898801890152958101958895506100df565b634e487b7160e01b82526041600452602482fd5b83805281842091925083915b87831061014d575094955085945083010185386100a3565b8054868401850152918301918101610135565b60ff191683870152509495869550151560051b840101905085386100a3565b634e487b7160e01b85526022600452602485fd5b95607f1695610082565b8280fdfea264697066735822122056a4668fd4bf58051664e6a3073e923efc94484d94831017a7ed4dcb10a4c08864736f6c63430008160033",
  "linkReferences": {},
  "deployedLinkReferences": {}
}