{
  "_format": "hh-sol-artifact-1",
  "contractName": "TestCompile",
  "sourceName": "contracts/TestCompile.sol",
  "abi": [
    {
      "inputs": [],
      "name": "name",
      "outputs": [
        {
          "internalType": "string",
          "name": "",
          "type": "string"
        }
      ],
      "stateMutability": "view",
      "type": "function"
    },
    {
      "inputs": [],
      "name": "test",
      "outputs": [
        {
          "internalType": "bool",
          "name": "",
          "type": "bool"
        }
      ],
      "stateMutability": "pure",
      "type": "function"
    }
  ],
  "bytecode": "0x608080604052346100935760008054600190600181811c91168015610089575b602082101461007557601f811161004c575b505060086315195cdd60e21b0190556101d690816100998239f35b828052601f60208420910160051c8101905b81811061006b5750610031565b838155820161005e565b634e487b7160e01b83526022600452602483fd5b90607f169061001f565b600080fdfe60806040818152600436101561001457600080fd5b600091823560e01c90816306fdde0314610056575063f8a8fd6d1461003857600080fd5b346100525781600319360112610052576020905160018152f35b5080fd5b9190503461019c578260031936011261019c5782918354936001938560011c9460018716968715610192575b602097888810811461017e57878652889291811561015f5750600114610128575b505082939450601f801994859203011682019482861067ffffffffffffffff8711176101145785929391838652818452845191828186015281955b8387106100fc5750508394508582601f949501015201168101030190f35b868101820151898801890152958101958895506100de565b634e487b7160e01b82526041600452602482fd5b83805281842091925083915b87831061014c575094955085945083010185386100a3565b8054868401850152918301918101610134565b60ff191683870152509495869550151560051b840101905085386100a3565b634e487b7160e01b85526022600452602485fd5b95607f1695610082565b8280fdfea2646970667358221220bbcead8bfe89a235a55a7a74402754c500078c12b6056357e39e19859a8ff58664736f6c63430008160033",
  "linkReferences": {},
  "deployedLinkReferences": {}
}