{
  "_format": "hh-sol-artifact-1",
  "contractName": "JBC",
  "sourceName": "contracts/JBC.sol",
  "abi": [
    {
      "inputs": [
        {
          "internalType": "address",
          "name": "initialOwner",
          "type": "address"
        }
      ],
      "stateMutability": "nonpayable",
      "type": "constructor"
    },
    {
      "inputs": [
        {
          "internalType": "address",
          "name": "spender",
          "type": "address"
        },
        {
          "internalType": "uint256",
          "name": "allowance",
          "type": "uint256"
        },
        {
          "internalType": "uint256",
          "name": "needed",
          "type": "uint256"
        }
      ],
      "name": "ERC20InsufficientAllowance",
      "type": "error"
    },
    {
      "inputs": [
        {
          "internalType": "address",
          "name": "sender",
          "type": "address"
        },
        {
          "internalType": "uint256",
          "name": "balance",
          "type": "uint256"
        },
        {
          "internalType": "uint256",
          "name": "needed",
          "type": "uint256"
        }
      ],
      "name": "ERC20InsufficientBalance",
      "type": "error"
    },
    {
      "inputs": [
        {
          "internalType": "address",
          "name": "approver",
          "type": "address"
        }
      ],
      "name": "ERC20InvalidApprover",
      "type": "error"
    },
    {
      "inputs": [
        {
          "internalType": "address",
          "name": "receiver",
          "type": "address"
        }
      ],
      "name": "ERC20InvalidReceiver",
      "type": "error"
    },
    {
      "inputs": [
        {
          "internalType": "address",
          "name": "sender",
          "type": "address"
        }
      ],
      "name": "ERC20InvalidSender",
      "type": "error"
    },
    {
      "inputs": [
        {
          "internalType": "address",
          "name": "spender",
          "type": "address"
        }
      ],
      "name": "ERC20InvalidSpender",
      "type": "error"
    },
    {
      "inputs": [
        {
          "internalType": "address",
          "name": "owner",
          "type": "address"
        }
      ],
      "name": "OwnableInvalidOwner",
      "type": "error"
    },
    {
      "inputs": [
        {
          "internalType": "address",
          "name": "account",
          "type": "address"
        }
      ],
      "name": "OwnableUnauthorizedAccount",
      "type": "error"
    },
    {
      "anonymous": false,
      "inputs": [
        {
          "indexed": true,
          "internalType": "address",
          "name": "owner",
          "type": "address"
        },
        {
          "indexed": true,
          "internalType": "address",
          "name": "spender",
          "type": "address"
        },
        {
          "indexed": false,
          "internalType": "uint256",
          "name": "value",
          "type": "uint256"
        }
      ],
      "name": "Approval",
      "type": "event"
    },
    {
      "anonymous": false,
      "inputs": [
        {
          "indexed": true,
          "internalType": "address",
          "name": "previousOwner",
          "type": "address"
        },
        {
          "indexed": true,
          "internalType": "address",
          "name": "newOwner",
          "type": "address"
        }
      ],
      "name": "OwnershipTransferred",
      "type": "event"
    },
    {
      "anonymous": false,
      "inputs": [
        {
          "indexed": true,
          "internalType": "address",
          "name": "from",
          "type": "address"
        },
        {
          "indexed": true,
          "internalType": "address",
          "name": "to",
          "type": "address"
        },
        {
          "indexed": false,
          "internalType": "uint256",
          "name": "value",
          "type": "uint256"
        }
      ],
      "name": "Transfer",
      "type": "event"
    },
    {
      "inputs": [],
      "name": "BLACK_HOLE",
      "outputs": [
        {
          "internalType": "address",
          "name": "",
          "type": "address"
        }
      ],
      "stateMutability": "view",
      "type": "function"
    },
    {
      "inputs": [],
      "name": "BUY_TAX",
      "outputs": [
        {
          "internalType": "uint256",
          "name": "",
          "type": "uint256"
        }
      ],
      "stateMutability": "view",
      "type": "function"
    },
    {
      "inputs": [],
      "name": "SELL_TAX",
      "outputs": [
        {
          "internalType": "uint256",
          "name": "",
          "type": "uint256"
        }
      ],
      "stateMutability": "view",
      "type": "function"
    },
    {
      "inputs": [
        {
          "internalType": "address",
          "name": "owner",
          "type": "address"
        },
        {
          "internalType": "address",
          "name": "spender",
          "type": "address"
        }
      ],
      "name": "allowance",
      "outputs": [
        {
          "internalType": "uint256",
          "name": "",
          "type": "uint256"
        }
      ],
      "stateMutability": "view",
      "type": "function"
    },
    {
      "inputs": [
        {
          "internalType": "address",
          "name": "spender",
          "type": "address"
        },
        {
          "internalType": "uint256",
          "name": "value",
          "type": "uint256"
        }
      ],
      "name": "approve",
      "outputs": [
        {
          "internalType": "bool",
          "name": "",
          "type": "bool"
        }
      ],
      "stateMutability": "nonpayable",
      "type": "function"
    },
    {
      "inputs": [
        {
          "internalType": "address",
          "name": "account",
          "type": "address"
        }
      ],
      "name": "balanceOf",
      "outputs": [
        {
          "internalType": "uint256",
          "name": "",
          "type": "uint256"
        }
      ],
      "stateMutability": "view",
      "type": "function"
    },
    {
      "inputs": [
        {
          "internalType": "uint256",
          "name": "amount",
          "type": "uint256"
        }
      ],
      "name": "burn",
      "outputs": [],
      "stateMutability": "nonpayable",
      "type": "function"
    },
    {
      "inputs": [],
      "name": "decimals",
      "outputs": [
        {
          "internalType": "uint8",
          "name": "",
          "type": "uint8"
        }
      ],
      "stateMutability": "view",
      "type": "function"
    },
    {
      "inputs": [],
      "name": "name",
      "outputs": [
        {
          "internalType": "string",
          "name": "",
          "type": "string"
        }
      ],
      "stateMutability": "view",
      "type": "function"
    },
    {
      "inputs": [],
      "name": "owner",
      "outputs": [
        {
          "internalType": "address",
          "name": "",
          "type": "address"
        }
      ],
      "stateMutability": "view",
      "type": "function"
    },
    {
      "inputs": [],
      "name": "protocolAddress",
      "outputs": [
        {
          "internalType": "address",
          "name": "",
          "type": "address"
        }
      ],
      "stateMutability": "view",
      "type": "function"
    },
    {
      "inputs": [],
      "name": "renounceOwnership",
      "outputs": [],
      "stateMutability": "nonpayable",
      "type": "function"
    },
    {
      "inputs": [
        {
          "internalType": "address",
          "name": "_pair",
          "type": "address"
        }
      ],
      "name": "setPair",
      "outputs": [],
      "stateMutability": "nonpayable",
      "type": "function"
    },
    {
      "inputs": [
        {
          "internalType": "address",
          "name": "_protocol",
          "type": "address"
        }
      ],
      "name": "setProtocol",
      "outputs": [],
      "stateMutability": "nonpayable",
      "type": "function"
    },
    {
      "inputs": [],
      "name": "symbol",
      "outputs": [
        {
          "internalType": "string",
          "name": "",
          "type": "string"
        }
      ],
      "stateMutability": "view",
      "type": "function"
    },
    {
      "inputs": [],
      "name": "totalSupply",
      "outputs": [
        {
          "internalType": "uint256",
          "name": "",
          "type": "uint256"
        }
      ],
      "stateMutability": "view",
      "type": "function"
    },
    {
      "inputs": [
        {
          "internalType": "address",
          "name": "to",
          "type": "address"
        },
        {
          "internalType": "uint256",
          "name": "value",
          "type": "uint256"
        }
      ],
      "name": "transfer",
      "outputs": [
        {
          "internalType": "bool",
          "name": "",
          "type": "bool"
        }
      ],
      "stateMutability": "nonpayable",
      "type": "function"
    },
    {
      "inputs": [
        {
          "internalType": "address",
          "name": "from",
          "type": "address"
        },
        {
          "internalType": "address",
          "name": "to",
          "type": "address"
        },
        {
          "internalType": "uint256",
          "name": "value",
          "type": "uint256"
        }
      ],
      "name": "transferFrom",
      "outputs": [
        {
          "internalType": "bool",
          "name": "",
          "type": "bool"
        }
      ],
      "stateMutability": "nonpayable",
      "type": "function"
    },
    {
      "inputs": [
        {
          "internalType": "address",
          "name": "newOwner",
          "type": "address"
        }
      ],
      "name": "transferOwnership",
      "outputs": [],
      "stateMutability": "nonpayable",
      "type": "function"
    },
    {
      "inputs": [],
      "name": "uniswapV2Pair",
      "outputs": [
        {
          "internalType": "address",
          "name": "",
          "type": "address"
        }
      ],
      "stateMutability": "view",
      "type": "function"
    }
  ],
  "bytecode": "0x60806040523480156200001157600080fd5b50604051620012af380380620012af833981016040819052620000349162000409565b806040518060400160405280600b81526020016a2534b73130b79021b7b4b760a91b815250604051806040016040528060038152602001624a424360e81b8152508160039081620000869190620004df565b506004620000958282620004df565b5050506001600160a01b038116620000c857604051631e4fbdf760e01b8152600060048201526024015b60405180910390fd5b620000d38162000104565b50620000fd33620000e76012600a620006c0565b620000f7906305f5e100620006d1565b62000156565b506200073a565b600580546001600160a01b038381166001600160a01b0319831681179093556040519116919082907f8be0079c531659141344cd1fd0a4f28419497f9722a3daafe3b4186f6b6457e090600090a35050565b6001600160a01b038216620001825760405163ec442f0560e01b815260006004820152602401620000bf565b620001906000838362000194565b5050565b6005546001600160a01b0384811691161480620001be57506005546001600160a01b038381169116145b80620001d757506007546001600160a01b038481169116145b80620001f057506007546001600160a01b038381169116145b806200020557506006546001600160a01b0316155b156200021d5762000218838383620002d6565b505050565b6006546000906001600160a01b03908116908516036200025a57606462000246603284620006d1565b620002529190620006eb565b90506200028f565b6006546001600160a01b03908116908416036200028f57606462000280601984620006d1565b6200028c9190620006eb565b90505b8015620002c357620002a58461dead83620002d6565b620002bd8484620002b784866200070e565b620002d6565b620002d0565b620002d0848484620002d6565b50505050565b6001600160a01b03831662000305578060026000828254620002f9919062000724565b90915550620003799050565b6001600160a01b038316600090815260208190526040902054818110156200035a5760405163391434e360e21b81526001600160a01b03851660048201526024810182905260448101839052606401620000bf565b6001600160a01b03841660009081526020819052604090209082900390555b6001600160a01b0382166200039757600280548290039055620003b6565b6001600160a01b03821660009081526020819052604090208054820190555b816001600160a01b0316836001600160a01b03167fddf252ad1be2c89b69c2b068fc378daa952ba7f163c4a11628f55a4df523b3ef83604051620003fc91815260200190565b60405180910390a3505050565b6000602082840312156200041c57600080fd5b81516001600160a01b03811681146200043457600080fd5b9392505050565b634e487b7160e01b600052604160045260246000fd5b600181811c908216806200046657607f821691505b6020821081036200048757634e487b7160e01b600052602260045260246000fd5b50919050565b601f8211156200021857600081815260208120601f850160051c81016020861015620004b65750805b601f850160051c820191505b81811015620004d757828155600101620004c2565b505050505050565b81516001600160401b03811115620004fb57620004fb6200043b565b62000513816200050c845462000451565b846200048d565b602080601f8311600181146200054b5760008415620005325750858301515b600019600386901b1c1916600185901b178555620004d7565b600085815260208120601f198616915b828110156200057c578886015182559484019460019091019084016200055b565b50858210156200059b5787850151600019600388901b60f8161c191681555b5050505050600190811b01905550565b634e487b7160e01b600052601160045260246000fd5b600181815b8085111562000602578160001904821115620005e657620005e6620005ab565b80851615620005f457918102915b93841c9390800290620005c6565b509250929050565b6000826200061b57506001620006ba565b816200062a57506000620006ba565b81600181146200064357600281146200064e576200066e565b6001915050620006ba565b60ff841115620006625762000662620005ab565b50506001821b620006ba565b5060208310610133831016604e8410600b841016171562000693575081810a620006ba565b6200069f8383620005c1565b8060001904821115620006b657620006b6620005ab565b0290505b92915050565b60006200043460ff8416836200060a565b8082028115828204841417620006ba57620006ba620005ab565b6000826200070957634e487b7160e01b600052601260045260246000fd5b500490565b81810381811115620006ba57620006ba620005ab565b80820180821115620006ba57620006ba620005ab565b610b65806200074a6000396000f3fe608060405234801561001057600080fd5b506004361061012c5760003560e01c806354ad8aee116100ad5780638da5cb5b116100715780638da5cb5b1461026957806395d89b411461027a578063a9059cbb14610282578063dd62ed3e14610295578063f2fde38b146102ce57600080fd5b806354ad8aee1461021457806355eda4e81461021c57806370a0823114610225578063715018a61461024e5780638187f5161461025657600080fd5b806318160ddd116100f457806318160ddd146101c457806323b872dd146101cc578063313ce567146101df57806342966c68146101ee57806349bd5a5e1461020157600080fd5b806302af37bb146101315780630676c1b71461014c57806306fdde0314610177578063095ea7b31461018c5780630a9d793d146101af575b600080fd5b610139603281565b6040519081526020015b60405180910390f35b60075461015f906001600160a01b031681565b6040516001600160a01b039091168152602001610143565b61017f6102e1565b6040516101439190610942565b61019f61019a3660046109ac565b610373565b6040519015158152602001610143565b6101c26101bd3660046109d6565b61038d565b005b600254610139565b61019f6101da3660046109f8565b6103b7565b60405160128152602001610143565b6101c26101fc366004610a34565b6103db565b60065461015f906001600160a01b031681565b610139601981565b61015f61dead81565b6101396102333660046109d6565b6001600160a01b031660009081526020819052604090205490565b6101c26103e8565b6101c26102643660046109d6565b6103fc565b6005546001600160a01b031661015f565b61017f610426565b61019f6102903660046109ac565b610435565b6101396102a3366004610a4d565b6001600160a01b03918216600090815260016020908152604080832093909416825291909152205490565b6101c26102dc3660046109d6565b610443565b6060600380546102f090610a80565b80601f016020809104026020016040519081016040528092919081815260200182805461031c90610a80565b80156103695780601f1061033e57610100808354040283529160200191610369565b820191906000526020600020905b81548152906001019060200180831161034c57829003601f168201915b5050505050905090565b600033610381818585610483565b60019150505b92915050565b610395610495565b600780546001600160a01b0319166001600160a01b0392909216919091179055565b6000336103c58582856104c2565b6103d0858585610541565b506001949350505050565b6103e533826105a0565b50565b6103f0610495565b6103fa60006105da565b565b610404610495565b600680546001600160a01b0319166001600160a01b0392909216919091179055565b6060600480546102f090610a80565b600033610381818585610541565b61044b610495565b6001600160a01b03811661047a57604051631e4fbdf760e01b8152600060048201526024015b60405180910390fd5b6103e5816105da565b610490838383600161062c565b505050565b6005546001600160a01b031633146103fa5760405163118cdaa760e01b8152336004820152602401610471565b6001600160a01b0383811660009081526001602090815260408083209386168352929052205460001981101561053b578181101561052c57604051637dc7a0d960e11b81526001600160a01b03841660048201526024810182905260448101839052606401610471565b61053b8484848403600061062c565b50505050565b6001600160a01b03831661056b57604051634b637e8f60e11b815260006004820152602401610471565b6001600160a01b0382166105955760405163ec442f0560e01b815260006004820152602401610471565b610490838383610701565b6001600160a01b0382166105ca57604051634b637e8f60e11b815260006004820152602401610471565b6105d682600083610701565b5050565b600580546001600160a01b038381166001600160a01b0319831681179093556040519116919082907f8be0079c531659141344cd1fd0a4f28419497f9722a3daafe3b4186f6b6457e090600090a35050565b6001600160a01b0384166106565760405163e602df0560e01b815260006004820152602401610471565b6001600160a01b03831661068057604051634a1406b160e11b815260006004820152602401610471565b6001600160a01b038085166000908152600160209081526040808320938716835292905220829055801561053b57826001600160a01b0316846001600160a01b03167f8c5be1e5ebec7d5bd14f71427d1e84f3dd0314c0f7b2291e5b200ac8c7c3b925846040516106f391815260200190565b60405180910390a350505050565b6005546001600160a01b038481169116148061072a57506005546001600160a01b038381169116145b8061074257506007546001600160a01b038481169116145b8061075a57506007546001600160a01b038381169116145b8061076e57506006546001600160a01b0316155b1561077e57610490838383610818565b6006546000906001600160a01b03908116908516036107b55760646107a4603284610ad0565b6107ae9190610ae7565b90506107e5565b6006546001600160a01b03908116908416036107e55760646107d8601984610ad0565b6107e29190610ae7565b90505b8015610811576107f88461dead83610818565b61080c84846108078486610b09565b610818565b61053b565b61053b8484845b6001600160a01b0383166108435780600260008282546108389190610b1c565b909155506108b59050565b6001600160a01b038316600090815260208190526040902054818110156108965760405163391434e360e21b81526001600160a01b03851660048201526024810182905260448101839052606401610471565b6001600160a01b03841660009081526020819052604090209082900390555b6001600160a01b0382166108d1576002805482900390556108f0565b6001600160a01b03821660009081526020819052604090208054820190555b816001600160a01b0316836001600160a01b03167fddf252ad1be2c89b69c2b068fc378daa952ba7f163c4a11628f55a4df523b3ef8360405161093591815260200190565b60405180910390a3505050565b600060208083528351808285015260005b8181101561096f57858101830151858201604001528201610953565b506000604082860101526040601f19601f8301168501019250505092915050565b80356001600160a01b03811681146109a757600080fd5b919050565b600080604083850312156109bf57600080fd5b6109c883610990565b946020939093013593505050565b6000602082840312156109e857600080fd5b6109f182610990565b9392505050565b600080600060608486031215610a0d57600080fd5b610a1684610990565b9250610a2460208501610990565b9150604084013590509250925092565b600060208284031215610a4657600080fd5b5035919050565b60008060408385031215610a6057600080fd5b610a6983610990565b9150610a7760208401610990565b90509250929050565b600181811c90821680610a9457607f821691505b602082108103610ab457634e487b7160e01b600052602260045260246000fd5b50919050565b634e487b7160e01b600052601160045260246000fd5b808202811582820484141761038757610387610aba565b600082610b0457634e487b7160e01b600052601260045260246000fd5b500490565b8181038181111561038757610387610aba565b8082018082111561038757610387610aba56fea2646970667358221220517d6c97c3abca5e10b19a8bdbbc60f5f610476f4d43f1a5e9a05e2136a5014664736f6c63430008140033",
  "linkReferences": {},
  "deployedLinkReferences": {}
}