{
  "_format": "hh-sol-artifact-1",
  "contractName": "OwnershipTransferHelper",
  "sourceName": "contracts/OwnershipTransferHelper.sol",
  "abi": [
    {
      "inputs": [
        {
          "internalType": "address",
          "name": "_protocolAddress",
          "type": "address"
        },
        {
          "internalType": "address",
          "name": "_jbcTokenAddress",
          "type": "address"
        }
      ],
      "stateMutability": "nonpayable",
      "type": "constructor"
    },
    {
      "anonymous": false,
      "inputs": [
        {
          "indexed": true,
          "internalType": "address",
          "name": "previousOwner",
          "type": "address"
        },
        {
          "indexed": true,
          "internalType": "address",
          "name": "newOwner",
          "type": "address"
        }
      ],
      "name": "OwnershipTransferred",
      "type": "event"
    },
    {
      "anonymous": false,
      "inputs": [
        {
          "indexed": true,
          "internalType": "address",
          "name": "newOwner",
          "type": "address"
        }
      ],
      "name": "ProtocolOwnershipTransferAttempted",
      "type": "event"
    },
    {
      "inputs": [],
      "name": "isJbcTokenProtocolOwner",
      "outputs": [
        {
          "internalType": "bool",
          "name": "",
          "type": "bool"
        }
      ],
      "stateMutability": "view",
      "type": "function"
    },
    {
      "inputs": [],
      "name": "isProtocolOwner",
      "outputs": [
        {
          "internalType": "bool",
          "name": "",
          "type": "bool"
        }
      ],
      "stateMutability": "view",
      "type": "function"
    },
    {
      "inputs": [],
      "name": "jbcTokenAddress",
      "outputs": [
        {
          "internalType": "address",
          "name": "",
          "type": "address"
        }
      ],
      "stateMutability": "view",
      "type": "function"
    },
    {
      "inputs": [],
      "name": "owner",
      "outputs": [
        {
          "internalType": "address",
          "name": "",
          "type": "address"
        }
      ],
      "stateMutability": "view",
      "type": "function"
    },
    {
      "inputs": [],
      "name": "protocolAddress",
      "outputs": [
        {
          "internalType": "address",
          "name": "",
          "type": "address"
        }
      ],
      "stateMutability": "view",
      "type": "function"
    },
    {
      "inputs": [
        {
          "internalType": "address",
          "name": "newOwner",
          "type": "address"
        }
      ],
      "name": "transferProtocolOwnership",
      "outputs": [],
      "stateMutability": "nonpayable",
      "type": "function"
    }
  ],
  "bytecode": "0x60c0346100a857601f6105b138819003918201601f19168301916001600160401b038311848410176100ad5780849260409485528339810103126100a857610052602061004b836100c3565b92016100c3565b60809190915260a052600080546001600160a01b031916331790556040516104d990816100d8823960805181818160de015281816101c1015281816103a70152610417015260a051818181607a01526101170152f35b600080fd5b634e487b7160e01b600052604160045260246000fd5b51906001600160a01b03821682036100a85756fe608060408181526004918236101561001657600080fd5b600092833560e01c9182630676c1b71461040357508163541b1b5c146103765781638da5cb5b1461034e578163d7b518231461017b578163e26cbcc0146100ad575063f6257c881461006757600080fd5b346100a957816003193601126100a957517f00000000000000000000000000000000000000000000000000000000000000006001600160a01b03168152602090f35b5080fd5b9050346101775782600319360112610177578151638da5cb5b60e01b81526001600160a01b039290916020908390817f000000000000000000000000000000000000000000000000000000000000000087165afa91821561016d576020949261013e575b505191807f0000000000000000000000000000000000000000000000000000000000000000169116148152f35b61015f919250843d8611610166575b6101578183610446565b81019061047f565b9038610111565b503d61014d565b81513d86823e3d90fd5b8280fd5b9050823461034b57602092836003193601126100a9576001600160a01b0393833585811694919085900361034757858454163303610308578251638da5cb5b60e01b81527f0000000000000000000000000000000000000000000000000000000000000000871696828285818b5afa9182156102fe5786926102df575b503091160361028f5750843b156101775782809495602484518096819363f2fde38b60e01b83528a878401525af180156102855761025a575b83857f9bdb1f38b0771e04d1dfa9c2314fb223576cafc74f2194417d9b8a40b37f7b118280a280f35b6001600160401b038311610272575052828080610231565b634e487b7160e01b845260419052602483fd5b82513d86823e3d90fd5b608492519162461bcd60e51b8352820152602760248201527f5468697320636f6e7472616374206973206e6f74207468652070726f746f636f604482015266361037bbb732b960c91b6064820152fd5b6102f7919250833d8511610166576101578183610446565b90886101f8565b85513d88823e3d90fd5b80606493519262461bcd60e51b845283015260248201527f4f776e61626c653a2063616c6c6572206973206e6f7420746865206f776e65726044820152fd5b8380fd5b80fd5b5050346100a957816003193601126100a957905490516001600160a01b039091168152602090f35b9050346101775782600319360112610177578151638da5cb5b60e01b81526001600160a01b039290916020908390817f000000000000000000000000000000000000000000000000000000000000000087165afa91821561016d57602094926103e4575b5051911630148152f35b6103fc919250843d8611610166576101578183610446565b90386103da565b8490346100a957816003193601126100a9577f00000000000000000000000000000000000000000000000000000000000000006001600160a01b03168152602090f35b601f909101601f19168101906001600160401b0382119082101761046957604052565b634e487b7160e01b600052604160045260246000fd5b9081602091031261049e57516001600160a01b038116810361049e5790565b600080fdfea2646970667358221220e1fa36b6e9db0f08e01c17d4cd587554e7220be7f5030e8f3c4a20725c0eadc064736f6c63430008160033",
  "linkReferences": {},
  "deployedLinkReferences": {}
}