{
  "_format": "hh-sol-artifact-1",
  "contractName": "JinbaoProtocolFixed",
  "sourceName": "contracts/JinbaoProtocolFixed.sol",
  "abi": [
    {
      "inputs": [],
      "stateMutability": "nonpayable",
      "type": "constructor"
    },
    {
      "inputs": [
        {
          "internalType": "address",
          "name": "target",
          "type": "address"
        }
      ],
      "name": "AddressEmptyCode",
      "type": "error"
    },
    {
      "inputs": [
        {
          "internalType": "address",
          "name": "implementation",
          "type": "address"
        }
      ],
      "name": "ERC1967InvalidImplementation",
      "type": "error"
    },
    {
      "inputs": [],
      "name": "ERC1967NonPayable",
      "type": "error"
    },
    {
      "inputs": [],
      "name": "FailedCall",
      "type": "error"
    },
    {
      "inputs": [],
      "name": "InvalidInitialization",
      "type": "error"
    },
    {
      "inputs": [],
      "name": "NotInitializing",
      "type": "error"
    },
    {
      "inputs": [
        {
          "internalType": "address",
          "name": "owner",
          "type": "address"
        }
      ],
      "name": "OwnableInvalidOwner",
      "type": "error"
    },
    {
      "inputs": [
        {
          "internalType": "address",
          "name": "account",
          "type": "address"
        }
      ],
      "name": "OwnableUnauthorizedAccount",
      "type": "error"
    },
    {
      "inputs": [],
      "name": "ReentrancyGuardReentrantCall",
      "type": "error"
    },
    {
      "inputs": [],
      "name": "UUPSUnauthorizedCallContext",
      "type": "error"
    },
    {
      "inputs": [
        {
          "internalType": "bytes32",
          "name": "slot",
          "type": "bytes32"
        }
      ],
      "name": "UUPSUnsupportedProxiableUUID",
      "type": "error"
    },
    {
      "anonymous": false,
      "inputs": [
        {
          "indexed": true,
          "internalType": "address",
          "name": "user",
          "type": "address"
        },
        {
          "indexed": true,
          "internalType": "address",
          "name": "referrer",
          "type": "address"
        }
      ],
      "name": "BoundReferrer",
      "type": "event"
    },
    {
      "anonymous": false,
      "inputs": [
        {
          "indexed": false,
          "internalType": "uint64",
          "name": "version",
          "type": "uint64"
        }
      ],
      "name": "Initialized",
      "type": "event"
    },
    {
      "anonymous": false,
      "inputs": [
        {
          "indexed": true,
          "internalType": "address",
          "name": "user",
          "type": "address"
        },
        {
          "indexed": false,
          "internalType": "uint256",
          "name": "amount",
          "type": "uint256"
        },
        {
          "indexed": false,
          "internalType": "uint256",
          "name": "cycleDays",
          "type": "uint256"
        },
        {
          "indexed": false,
          "internalType": "uint256",
          "name": "stakeId",
          "type": "uint256"
        }
      ],
      "name": "LiquidityStaked",
      "type": "event"
    },
    {
      "anonymous": false,
      "inputs": [
        {
          "indexed": true,
          "internalType": "address",
          "name": "previousOwner",
          "type": "address"
        },
        {
          "indexed": true,
          "internalType": "address",
          "name": "newOwner",
          "type": "address"
        }
      ],
      "name": "OwnershipTransferred",
      "type": "event"
    },
    {
      "anonymous": false,
      "inputs": [
        {
          "indexed": true,
          "internalType": "address",
          "name": "user",
          "type": "address"
        },
        {
          "indexed": false,
          "internalType": "uint256",
          "name": "principal",
          "type": "uint256"
        },
        {
          "indexed": false,
          "internalType": "uint256",
          "name": "fee",
          "type": "uint256"
        }
      ],
      "name": "Redeemed",
      "type": "event"
    },
    {
      "anonymous": false,
      "inputs": [
        {
          "indexed": true,
          "internalType": "address",
          "name": "user",
          "type": "address"
        },
        {
          "indexed": false,
          "internalType": "uint256",
          "name": "amount",
          "type": "uint256"
        },
        {
          "indexed": false,
          "internalType": "uint256",
          "name": "cappedAmount",
          "type": "uint256"
        }
      ],
      "name": "RewardCapped",
      "type": "event"
    },
    {
      "anonymous": false,
      "inputs": [
        {
          "indexed": true,
          "internalType": "address",
          "name": "user",
          "type": "address"
        },
        {
          "indexed": false,
          "internalType": "uint256",
          "name": "mcAmount",
          "type": "uint256"
        },
        {
          "indexed": false,
          "internalType": "uint256",
          "name": "jbcAmount",
          "type": "uint256"
        },
        {
          "indexed": false,
          "internalType": "uint8",
          "name": "rewardType",
          "type": "uint8"
        },
        {
          "indexed": false,
          "internalType": "uint256",
          "name": "ticketId",
          "type": "uint256"
        }
      ],
      "name": "RewardClaimed",
      "type": "event"
    },
    {
      "anonymous": false,
      "inputs": [
        {
          "indexed": true,
          "internalType": "address",
          "name": "user",
          "type": "address"
        },
        {
          "indexed": false,
          "internalType": "uint256",
          "name": "amount",
          "type": "uint256"
        },
        {
          "indexed": false,
          "internalType": "uint8",
          "name": "rewardType",
          "type": "uint8"
        }
      ],
      "name": "RewardPaid",
      "type": "event"
    },
    {
      "anonymous": false,
      "inputs": [
        {
          "indexed": true,
          "internalType": "address",
          "name": "user",
          "type": "address"
        },
        {
          "indexed": false,
          "internalType": "uint256",
          "name": "oldCount",
          "type": "uint256"
        },
        {
          "indexed": false,
          "internalType": "uint256",
          "name": "newCount",
          "type": "uint256"
        }
      ],
      "name": "TeamCountUpdated",
      "type": "event"
    },
    {
      "anonymous": false,
      "inputs": [
        {
          "indexed": true,
          "internalType": "address",
          "name": "user",
          "type": "address"
        },
        {
          "indexed": false,
          "internalType": "uint256",
          "name": "amount",
          "type": "uint256"
        },
        {
          "indexed": false,
          "internalType": "uint256",
          "name": "ticketId",
          "type": "uint256"
        }
      ],
      "name": "TicketPurchased",
      "type": "event"
    },
    {
      "anonymous": false,
      "inputs": [
        {
          "indexed": true,
          "internalType": "address",
          "name": "implementation",
          "type": "address"
        }
      ],
      "name": "Upgraded",
      "type": "event"
    },
    {
      "anonymous": false,
      "inputs": [
        {
          "indexed": true,
          "internalType": "address",
          "name": "user",
          "type": "address"
        },
        {
          "indexed": false,
          "internalType": "uint256",
          "name": "oldLevel",
          "type": "uint256"
        },
        {
          "indexed": false,
          "internalType": "uint256",
          "name": "newLevel",
          "type": "uint256"
        },
        {
          "indexed": false,
          "internalType": "uint256",
          "name": "teamCount",
          "type": "uint256"
        }
      ],
      "name": "UserLevelChanged",
      "type": "event"
    },
    {
      "inputs": [],
      "name": "MAX_PRICE_IMPACT",
      "outputs": [
        {
          "internalType": "uint256",
          "name": "",
          "type": "uint256"
        }
      ],
      "stateMutability": "view",
      "type": "function"
    },
    {
      "inputs": [],
      "name": "MIN_LIQUIDITY",
      "outputs": [
        {
          "internalType": "uint256",
          "name": "",
          "type": "uint256"
        }
      ],
      "stateMutability": "view",
      "type": "function"
    },
    {
      "inputs": [],
      "name": "REWARD_DIFFERENTIAL",
      "outputs": [
        {
          "internalType": "uint8",
          "name": "",
          "type": "uint8"
        }
      ],
      "stateMutability": "view",
      "type": "function"
    },
    {
      "inputs": [],
      "name": "REWARD_DIRECT",
      "outputs": [
        {
          "internalType": "uint8",
          "name": "",
          "type": "uint8"
        }
      ],
      "stateMutability": "view",
      "type": "function"
    },
    {
      "inputs": [],
      "name": "REWARD_DYNAMIC",
      "outputs": [
        {
          "internalType": "uint8",
          "name": "",
          "type": "uint8"
        }
      ],
      "stateMutability": "view",
      "type": "function"
    },
    {
      "inputs": [],
      "name": "REWARD_LEVEL",
      "outputs": [
        {
          "internalType": "uint8",
          "name": "",
          "type": "uint8"
        }
      ],
      "stateMutability": "view",
      "type": "function"
    },
    {
      "inputs": [],
      "name": "REWARD_STATIC",
      "outputs": [
        {
          "internalType": "uint8",
          "name": "",
          "type": "uint8"
        }
      ],
      "stateMutability": "view",
      "type": "function"
    },
    {
      "inputs": [],
      "name": "SECONDS_IN_UNIT",
      "outputs": [
        {
          "internalType": "uint256",
          "name": "",
          "type": "uint256"
        }
      ],
      "stateMutability": "view",
      "type": "function"
    },
    {
      "inputs": [],
      "name": "UPGRADE_INTERFACE_VERSION",
      "outputs": [
        {
          "internalType": "string",
          "name": "",
          "type": "string"
        }
      ],
      "stateMutability": "view",
      "type": "function"
    },
    {
      "inputs": [
        {
          "internalType": "uint256",
          "name": "mcAmount",
          "type": "uint256"
        },
        {
          "internalType": "uint256",
          "name": "jbcAmount",
          "type": "uint256"
        }
      ],
      "name": "addLiquidity",
      "outputs": [],
      "stateMutability": "nonpayable",
      "type": "function"
    },
    {
      "inputs": [
        {
          "internalType": "address",
          "name": "_referrer",
          "type": "address"
        }
      ],
      "name": "bindReferrer",
      "outputs": [],
      "stateMutability": "nonpayable",
      "type": "function"
    },
    {
      "inputs": [
        {
          "internalType": "uint256",
          "name": "amount",
          "type": "uint256"
        }
      ],
      "name": "buyTicket",
      "outputs": [],
      "stateMutability": "nonpayable",
      "type": "function"
    },
    {
      "inputs": [],
      "name": "buybackPercent",
      "outputs": [
        {
          "internalType": "uint256",
          "name": "",
          "type": "uint256"
        }
      ],
      "stateMutability": "view",
      "type": "function"
    },
    {
      "inputs": [],
      "name": "buybackWallet",
      "outputs": [
        {
          "internalType": "address",
          "name": "",
          "type": "address"
        }
      ],
      "stateMutability": "view",
      "type": "function"
    },
    {
      "inputs": [
        {
          "internalType": "uint256",
          "name": "teamCount",
          "type": "uint256"
        }
      ],
      "name": "calculateLevel",
      "outputs": [
        {
          "internalType": "uint256",
          "name": "level",
          "type": "uint256"
        },
        {
          "internalType": "uint256",
          "name": "percent",
          "type": "uint256"
        }
      ],
      "stateMutability": "pure",
      "type": "function"
    },
    {
      "inputs": [],
      "name": "claimRewards",
      "outputs": [],
      "stateMutability": "nonpayable",
      "type": "function"
    },
    {
      "inputs": [
        {
          "internalType": "address",
          "name": "",
          "type": "address"
        },
        {
          "internalType": "uint256",
          "name": "",
          "type": "uint256"
        }
      ],
      "name": "directReferrals",
      "outputs": [
        {
          "internalType": "address",
          "name": "",
          "type": "address"
        }
      ],
      "stateMutability": "view",
      "type": "function"
    },
    {
      "inputs": [],
      "name": "directRewardPercent",
      "outputs": [
        {
          "internalType": "uint256",
          "name": "",
          "type": "uint256"
        }
      ],
      "stateMutability": "view",
      "type": "function"
    },
    {
      "inputs": [],
      "name": "emergencyPaused",
      "outputs": [
        {
          "internalType": "bool",
          "name": "",
          "type": "bool"
        }
      ],
      "stateMutability": "view",
      "type": "function"
    },
    {
      "inputs": [
        {
          "internalType": "address",
          "name": "user",
          "type": "address"
        }
      ],
      "name": "getDirectReferrals",
      "outputs": [
        {
          "internalType": "address[]",
          "name": "",
          "type": "address[]"
        }
      ],
      "stateMutability": "view",
      "type": "function"
    },
    {
      "inputs": [
        {
          "internalType": "address",
          "name": "user",
          "type": "address"
        }
      ],
      "name": "getUserLevel",
      "outputs": [
        {
          "internalType": "uint256",
          "name": "level",
          "type": "uint256"
        },
        {
          "internalType": "uint256",
          "name": "percent",
          "type": "uint256"
        },
        {
          "internalType": "uint256",
          "name": "teamCount",
          "type": "uint256"
        }
      ],
      "stateMutability": "view",
      "type": "function"
    },
    {
      "inputs": [],
      "name": "initializeMissingStates",
      "outputs": [],
      "stateMutability": "nonpayable",
      "type": "function"
    },
    {
      "inputs": [],
      "name": "jbcToken",
      "outputs": [
        {
          "internalType": "contract IJBC",
          "name": "",
          "type": "address"
        }
      ],
      "stateMutability": "view",
      "type": "function"
    },
    {
      "inputs": [],
      "name": "lastBurnTime",
      "outputs": [
        {
          "internalType": "uint256",
          "name": "",
          "type": "uint256"
        }
      ],
      "stateMutability": "view",
      "type": "function"
    },
    {
      "inputs": [],
      "name": "levelRewardPercent",
      "outputs": [
        {
          "internalType": "uint256",
          "name": "",
          "type": "uint256"
        }
      ],
      "stateMutability": "view",
      "type": "function"
    },
    {
      "inputs": [],
      "name": "levelRewardPool",
      "outputs": [
        {
          "internalType": "uint256",
          "name": "",
          "type": "uint256"
        }
      ],
      "stateMutability": "view",
      "type": "function"
    },
    {
      "inputs": [],
      "name": "liquidityEnabled",
      "outputs": [
        {
          "internalType": "bool",
          "name": "",
          "type": "bool"
        }
      ],
      "stateMutability": "view",
      "type": "function"
    },
    {
      "inputs": [],
      "name": "lpInjectionPercent",
      "outputs": [
        {
          "internalType": "uint256",
          "name": "",
          "type": "uint256"
        }
      ],
      "stateMutability": "view",
      "type": "function"
    },
    {
      "inputs": [],
      "name": "lpInjectionWallet",
      "outputs": [
        {
          "internalType": "address",
          "name": "",
          "type": "address"
        }
      ],
      "stateMutability": "view",
      "type": "function"
    },
    {
      "inputs": [],
      "name": "marketingPercent",
      "outputs": [
        {
          "internalType": "uint256",
          "name": "",
          "type": "uint256"
        }
      ],
      "stateMutability": "view",
      "type": "function"
    },
    {
      "inputs": [],
      "name": "marketingWallet",
      "outputs": [
        {
          "internalType": "address",
          "name": "",
          "type": "address"
        }
      ],
      "stateMutability": "view",
      "type": "function"
    },
    {
      "inputs": [],
      "name": "mcToken",
      "outputs": [
        {
          "internalType": "contract IERC20",
          "name": "",
          "type": "address"
        }
      ],
      "stateMutability": "view",
      "type": "function"
    },
    {
      "inputs": [],
      "name": "nextStakeId",
      "outputs": [
        {
          "internalType": "uint256",
          "name": "",
          "type": "uint256"
        }
      ],
      "stateMutability": "view",
      "type": "function"
    },
    {
      "inputs": [],
      "name": "nextTicketId",
      "outputs": [
        {
          "internalType": "uint256",
          "name": "",
          "type": "uint256"
        }
      ],
      "stateMutability": "view",
      "type": "function"
    },
    {
      "inputs": [],
      "name": "owner",
      "outputs": [
        {
          "internalType": "address",
          "name": "",
          "type": "address"
        }
      ],
      "stateMutability": "view",
      "type": "function"
    },
    {
      "inputs": [],
      "name": "priceOracle",
      "outputs": [
        {
          "internalType": "address",
          "name": "",
          "type": "address"
        }
      ],
      "stateMutability": "view",
      "type": "function"
    },
    {
      "inputs": [],
      "name": "proxiableUUID",
      "outputs": [
        {
          "internalType": "bytes32",
          "name": "",
          "type": "bytes32"
        }
      ],
      "stateMutability": "view",
      "type": "function"
    },
    {
      "inputs": [],
      "name": "redeemEnabled",
      "outputs": [
        {
          "internalType": "bool",
          "name": "",
          "type": "bool"
        }
      ],
      "stateMutability": "view",
      "type": "function"
    },
    {
      "inputs": [
        {
          "internalType": "uint256",
          "name": "stakeId",
          "type": "uint256"
        }
      ],
      "name": "redeemStake",
      "outputs": [],
      "stateMutability": "nonpayable",
      "type": "function"
    },
    {
      "inputs": [],
      "name": "redemptionFeePercent",
      "outputs": [
        {
          "internalType": "uint256",
          "name": "",
          "type": "uint256"
        }
      ],
      "stateMutability": "view",
      "type": "function"
    },
    {
      "inputs": [],
      "name": "renounceOwnership",
      "outputs": [],
      "stateMutability": "nonpayable",
      "type": "function"
    },
    {
      "inputs": [
        {
          "internalType": "bool",
          "name": "_liquidityEnabled",
          "type": "bool"
        },
        {
          "internalType": "bool",
          "name": "_redeemEnabled",
          "type": "bool"
        }
      ],
      "name": "setOperationalStatus",
      "outputs": [],
      "stateMutability": "nonpayable",
      "type": "function"
    },
    {
      "inputs": [
        {
          "internalType": "uint256",
          "name": "_fee",
          "type": "uint256"
        }
      ],
      "name": "setRedemptionFeePercent",
      "outputs": [],
      "stateMutability": "nonpayable",
      "type": "function"
    },
    {
      "inputs": [
        {
          "internalType": "uint256",
          "name": "amount",
          "type": "uint256"
        },
        {
          "internalType": "uint256",
          "name": "cycleDays",
          "type": "uint256"
        }
      ],
      "name": "stakeLiquidity",
      "outputs": [],
      "stateMutability": "nonpayable",
      "type": "function"
    },
    {
      "inputs": [
        {
          "internalType": "uint256",
          "name": "",
          "type": "uint256"
        }
      ],
      "name": "stakeOwner",
      "outputs": [
        {
          "internalType": "address",
          "name": "",
          "type": "address"
        }
      ],
      "stateMutability": "view",
      "type": "function"
    },
    {
      "inputs": [
        {
          "internalType": "uint256",
          "name": "",
          "type": "uint256"
        },
        {
          "internalType": "uint256",
          "name": "",
          "type": "uint256"
        }
      ],
      "name": "stakePendingRewards",
      "outputs": [
        {
          "internalType": "address",
          "name": "upline",
          "type": "address"
        },
        {
          "internalType": "uint256",
          "name": "amount",
          "type": "uint256"
        }
      ],
      "stateMutability": "view",
      "type": "function"
    },
    {
      "inputs": [],
      "name": "swapBuyTax",
      "outputs": [
        {
          "internalType": "uint256",
          "name": "",
          "type": "uint256"
        }
      ],
      "stateMutability": "view",
      "type": "function"
    },
    {
      "inputs": [],
      "name": "swapReserveJBC",
      "outputs": [
        {
          "internalType": "uint256",
          "name": "",
          "type": "uint256"
        }
      ],
      "stateMutability": "view",
      "type": "function"
    },
    {
      "inputs": [],
      "name": "swapReserveMC",
      "outputs": [
        {
          "internalType": "uint256",
          "name": "",
          "type": "uint256"
        }
      ],
      "stateMutability": "view",
      "type": "function"
    },
    {
      "inputs": [],
      "name": "swapSellTax",
      "outputs": [
        {
          "internalType": "uint256",
          "name": "",
          "type": "uint256"
        }
      ],
      "stateMutability": "view",
      "type": "function"
    },
    {
      "inputs": [],
      "name": "ticketFlexibilityDuration",
      "outputs": [
        {
          "internalType": "uint256",
          "name": "",
          "type": "uint256"
        }
      ],
      "stateMutability": "view",
      "type": "function"
    },
    {
      "inputs": [
        {
          "internalType": "uint256",
          "name": "",
          "type": "uint256"
        }
      ],
      "name": "ticketOwner",
      "outputs": [
        {
          "internalType": "address",
          "name": "",
          "type": "address"
        }
      ],
      "stateMutability": "view",
      "type": "function"
    },
    {
      "inputs": [
        {
          "internalType": "uint256",
          "name": "",
          "type": "uint256"
        },
        {
          "internalType": "uint256",
          "name": "",
          "type": "uint256"
        }
      ],
      "name": "ticketPendingRewards",
      "outputs": [
        {
          "internalType": "address",
          "name": "upline",
          "type": "address"
        },
        {
          "internalType": "uint256",
          "name": "amount",
          "type": "uint256"
        }
      ],
      "stateMutability": "view",
      "type": "function"
    },
    {
      "inputs": [
        {
          "internalType": "address",
          "name": "newOwner",
          "type": "address"
        }
      ],
      "name": "transferOwnership",
      "outputs": [],
      "stateMutability": "nonpayable",
      "type": "function"
    },
    {
      "inputs": [],
      "name": "treasuryPercent",
      "outputs": [
        {
          "internalType": "uint256",
          "name": "",
          "type": "uint256"
        }
      ],
      "stateMutability": "view",
      "type": "function"
    },
    {
      "inputs": [],
      "name": "treasuryWallet",
      "outputs": [
        {
          "internalType": "address",
          "name": "",
          "type": "address"
        }
      ],
      "stateMutability": "view",
      "type": "function"
    },
    {
      "inputs": [
        {
          "internalType": "address",
          "name": "newImplementation",
          "type": "address"
        },
        {
          "internalType": "bytes",
          "name": "data",
          "type": "bytes"
        }
      ],
      "name": "upgradeToAndCall",
      "outputs": [],
      "stateMutability": "payable",
      "type": "function"
    },
    {
      "inputs": [
        {
          "internalType": "address",
          "name": "",
          "type": "address"
        }
      ],
      "name": "userInfo",
      "outputs": [
        {
          "internalType": "address",
          "name": "referrer",
          "type": "address"
        },
        {
          "internalType": "uint256",
          "name": "activeDirects",
          "type": "uint256"
        },
        {
          "internalType": "uint256",
          "name": "teamCount",
          "type": "uint256"
        },
        {
          "internalType": "uint256",
          "name": "totalRevenue",
          "type": "uint256"
        },
        {
          "internalType": "uint256",
          "name": "currentCap",
          "type": "uint256"
        },
        {
          "internalType": "bool",
          "name": "isActive",
          "type": "bool"
        },
        {
          "internalType": "uint256",
          "name": "refundFeeAmount",
          "type": "uint256"
        },
        {
          "internalType": "uint256",
          "name": "teamTotalVolume",
          "type": "uint256"
        },
        {
          "internalType": "uint256",
          "name": "teamTotalCap",
          "type": "uint256"
        },
        {
          "internalType": "uint256",
          "name": "maxTicketAmount",
          "type": "uint256"
        },
        {
          "internalType": "uint256",
          "name": "maxSingleTicketAmount",
          "type": "uint256"
        }
      ],
      "stateMutability": "view",
      "type": "function"
    },
    {
      "inputs": [
        {
          "internalType": "address",
          "name": "",
          "type": "address"
        },
        {
          "internalType": "uint256",
          "name": "",
          "type": "uint256"
        }
      ],
      "name": "userStakes",
      "outputs": [
        {
          "internalType": "uint256",
          "name": "id",
          "type": "uint256"
        },
        {
          "internalType": "uint256",
          "name": "amount",
          "type": "uint256"
        },
        {
          "internalType": "uint256",
          "name": "startTime",
          "type": "uint256"
        },
        {
          "internalType": "uint256",
          "name": "cycleDays",
          "type": "uint256"
        },
        {
          "internalType": "bool",
          "name": "active",
          "type": "bool"
        },
        {
          "internalType": "uint256",
          "name": "paid",
          "type": "uint256"
        }
      ],
      "stateMutability": "view",
      "type": "function"
    },
    {
      "inputs": [
        {
          "internalType": "address",
          "name": "",
          "type": "address"
        }
      ],
      "name": "userTicket",
      "outputs": [
        {
          "internalType": "uint256",
          "name": "ticketId",
          "type": "uint256"
        },
        {
          "internalType": "uint256",
          "name": "amount",
          "type": "uint256"
        },
        {
          "internalType": "uint256",
          "name": "purchaseTime",
          "type": "uint256"
        },
        {
          "internalType": "bool",
          "name": "exited",
          "type": "bool"
        }
      ],
      "stateMutability": "view",
      "type": "function"
    }
  ],
  "bytecode": "0x60a080604052346100cd57306080527ff0c57e16840df040f15088dc2f81fe391c3923bec73e23a9662efc9c229c6a009081549060ff8260401c166100be57506001600160401b036002600160401b031982821601610079575b604051612dce9081620000d38239608051818181610e370152610f050152f35b6001600160401b031990911681179091556040519081527fc7f505b2f371ae2175ee4913f4499e1f2633a7b5936321eed1cdaeb6115181d290602090a1388080610059565b63f92ee8a960e01b8152600490fd5b600080fdfe6040608081526004908136101561001557600080fd5b600091823560e01c806301d62efb146126b957806304ef9d581461269a57806304f618cb1461245257806305ad3935146123f95780630e2be210146123dd57806310ff994d14611c5c5780631427f61614611c415780631788513c14611c185780631959a00214611b695780631d0dac7614611b4a57806321923bde14611afd57806321b77d6314611ad95780632630c12f14611aac57806327c830a914611a8857806327f082f414611a69578063372500ab146114ca5780633dbd46bd146114985780634553e4e81461140c5780634626402b146113e3578063488b5d97146113c75780634ea4c6b3146110d05780634f1ef28614610e8957806352d1902d14610e225780636031a52f14610e0357806367dd74ca14610b0c5780636839b5fa14610aef5780636dd6682714610ad0578063715018a614610a7857806375506c9614610a5957806375f0a87414610a3057806377a2a54014610a11578063813380cd146109e35780638710bcaa1461098457806388481b611461096857806388fd4d33146109415780638a859a85146109255780638c0eaa48146109095780638da5cb5b146108d35780639370b080146108b4578063952539921461088c5780639cd441da14610751578063ac8f50aa146106fe578063ad3cb1cc14610661578063b048a4bb1461063d578063b5d5b5fa146105b3578063b759936b14610594578063bd594dcf14610575578063c2ff12fc14610543578063ccf6194414610524578063ceaa366d14610505578063d2c8e0e51461045b578063d2f8253614610434578063d8020a1814610415578063dce3dc1f146103e8578063deab8aea146103bf578063dec7fa3b146103a0578063e306744914610381578063e4412f6814610362578063ece712661461033c5763f2fde38b146102b557600080fd5b34610338576020366003190112610338576102ce612707565b906102d761298c565b6001600160a01b03918216928315610322575050600080516020612cd983398151915280546001600160a01b03198116841790915516600080516020612d198339815191528380a380f35b51631e4fbdf760e01b8152908101849052602490fd5b8280fd5b83823461035e57602036600319011261035e5761035761298c565b35600c5580f35b5080fd5b50503461035e578160031936011261035e576020906009549051908152f35b50503461035e578160031936011261035e57602090601a549051908152f35b50503461035e578160031936011261035e57602090600c549051908152f35b50503461035e578160031936011261035e5760055490516001600160a01b039091168152602090f35b50823461041257602036600319011261041257506104069035612b66565b82519182526020820152f35b80fd5b50503461035e578160031936011261035e576020906008549051908152f35b50503461035e578160031936011261035e5760209060ff60155460081c1690519015158152f35b50503461035e57602080600319360112610338576001600160a01b039283610481612707565b1681526012825282812091835190818185549182815201908195855282852090855b8181106104ef57505050826104b991038361277c565b8451948186019282875251809352850193925b8281106104d95785850386f35b83518716855293810193928101926001016104cc565b82548a16845292840192600192830192016104a3565b50503461035e578160031936011261035e57602090600a549051908152f35b50503461035e578160031936011261035e576020906006549051908152f35b503461033857602036600319011261033857358252601b6020908152918190205490516001600160a01b039091168152f35b50503461035e578160031936011261035e576020906007549051908152f35b50503461035e578160031936011261035e57602090601e549051908152f35b5090346103385780600319360112610338576105cd612707565b6001600160a01b03168352601160205280832080546024359490851015610412575060c0936105fb91612807565b50805492600182015492600283015490600560ff60038601549486015416940154948151968752602087015285015260608401521515608083015260a0820152f35b50503461035e578160031936011261035e5760209060ff6015541690519015158152f35b5034610338578260031936011261033857815190818301906001600160401b038211838310176106eb5750825260058152602090640352e302e360dc1b6020820152825193849260208452825192836020860152825b8481106106d557505050828201840152601f01601f19168101030190f35b81810183015188820188015287955082016106b7565b634e487b7160e01b855260419052602484fd5b50503461035e5761070e36612766565b908352601c602052818320805482101561074d579061072c916127d0565b506107496001808060a01b038354169201549251928392836127ec565b0390f35b8380fd5b50346103385761076036612766565b919061076a61298c565b8061080e575b508161077a578380f35b6020826107ab9260018060a01b0360015416908787518096819582946323b872dd60e01b845230903390850161285e565b03925af18015610801576107c893506107d2575b50601754612823565b6017553880808380f35b6107f39060203d6020116107fa575b6107eb818361277c565b810190612846565b50386107bf565b503d6107e1565b50505051903d90823e3d90fd5b845484516323b872dd60e01b8152919060209083906001600160a01b031681898161083d8730338c850161285e565b03925af19182156108825761085a92610863575b50601654612823565b60165538610770565b61087b9060203d6020116107fa576107eb818361277c565b5038610851565b85513d88823e3d90fd5b50503461035e578160031936011261035e57905490516001600160a01b039091168152602090f35b50503461035e578160031936011261035e57602090600e549051908152f35b50503461035e578160031936011261035e57600080516020612cd98339815191525490516001600160a01b039091168152602090f35b50503461035e578160031936011261035e576020905160038152f35b50503461035e578160031936011261035e576020905160018152f35b50346103385782600319360112610338575490516001600160a01b03909116815260209150f35b5090346103385782600319360112610338576020925051908152f35b50503461035e57602036600319011261035e5760809181906001600160a01b036109ac612707565b1681526010602052209081549160018101549160ff6003600284015493015416928151948552602085015283015215156060820152f35b50503461035e576109f336612766565b9083526013602052818320805482101561074d579061072c916127d0565b50503461035e578160031936011261035e576020906016549051908152f35b50503461035e578160031936011261035e5760025490516001600160a01b039091168152602090f35b50503461035e578160031936011261035e576020906019549051908152f35b8334610412578060031936011261041257610a9161298c565b600080516020612cd983398151915280546001600160a01b0319811690915581906001600160a01b0316600080516020612d198339815191528280a380f35b50503461035e578160031936011261035e576020906014549051908152f35b50503461035e578160031936011261035e57602090516103e88152f35b5091903461035e576020908160031936011261033857833591610b2d6129c5565b610b3c60ff604e5416156128ff565b68056bc75e2d6310000083148015610df1575b8015610ddf575b8015610dcd575b610b6690612940565b60018060a01b03610b95828583885416898988518096819582946323b872dd60e01b845230903390850161285e565b03925af18015610dc357610da6575b50338552601082528285209560039081880160ff8154168015610d9a575b15610d5a57610bd260185461297d565b8060185589558660018a01554260028a015560ff198154169055338752600f845286828682200155818602918683041486151715610d4757338752600f845284872001555b600190600187015433875285600a600f92600f8752878a20906009820180548211610d3f575b50500180548211610d37575b505087548752601b845284872080546001600160a01b0319163317905585610cc7575b5050507f2a91574e12ad96234e84923e146b0946ecfb871cd8d5534dc1fdcbe87a7c01b3929394610c9c33612c15565b610ca533612ae7565b549082519485528401523392a26001600080516020612d598339815191525580f35b338752600f84528282868920541688915b610ce4575b5050610c6c565b831680151580610d2d575b15610d28578089528286526007878a2001610d0b898254612823565b90558852818552610d2183878a2054169161297d565b9084610cd8565b610cdd565b50601e8210610cef565b558538610c49565b553880610c3d565b634e487b7160e01b875260119052602486fd5b5060018801610d6a878254612823565b9055818602918683041486151715610d4757610d9390338852600f855285882001918254612823565b9055610c17565b50600189015415610bc2565b610dbc90833d85116107fa576107eb818361277c565b5038610ba4565b84513d88823e3d90fd5b50683635c9adc5dea000008314610b5d565b50681b1ae4d6e2ef5000008314610b56565b50681043561a88293000008314610b4f565b50503461035e578160031936011261035e576020906018549051908152f35b509134610412578060031936011261041257507f00000000000000000000000000000000000000000000000000000000000000006001600160a01b03163003610e7c5760209051600080516020612cf98339815191528152f35b5163703e46dd60e11b8152fd5b50908060031936011261033857610e9e612707565b60249390919084356001600160401b03811161035e573660238201121561035e5780850135610ecc816127b5565b94610ed98551968761277c565b81865260209182870193368a83830101116110cc578186928b8693018737880101526001600160a01b037f000000000000000000000000000000000000000000000000000000000000000081163081149081156110b0575b506110a057610f3e61298c565b81169585516352d1902d60e01b815283818a818b5afa86918161106d575b50610f78575050505050505191634c9c8ce360e01b8352820152fd5b9088888894938c600080516020612cf9833981519152918281036110585750853b15611044575080546001600160a01b031916821790558451889392917fbc7cd75a20ee27fd9adebab32041f755214dbc6bffa90cc0225b39da2e5c2d3b8580a28251156110265750506110189582915190845af4913d1561101c573d61100a611001826127b5565b9251928361277c565b81528581943d92013e612c75565b5080f35b5060609250612c75565b95509550505050503461103857505080f35b63b398979f60e01b8152fd5b8651634c9c8ce360e01b8152808501849052fd5b8751632a87526960e21b815280860191909152fd5b9091508481813d8311611099575b611085818361277c565b8101031261109557519038610f5c565b8680fd5b503d61107b565b855163703e46dd60e11b81528890fd5b905081600080516020612cf98339815191525416141538610f31565b8580fd5b5091903461035e576110e136612766565b6110ec9291926129c5565b6110fb60ff604e5416156128ff565b60ff601554161561138f5733845260206010815260ff6003848720611125600182015415156128c0565b01541661135d57600782148015611353575b8015611349575b156113175761114e841515612940565b61117c818560018060a01b03885416898988518096819582946323b872dd60e01b845230903390850161285e565b03925af18015610dc3576112fa575b5061119760195461297d565b60198190553386526011825283862084519160c083016001600160401b038111848210176112e75786528252828201868152858301428152606084019086825260808501926001845260a08601948b8652805490600160401b8210156112d3579061120791600182018155612807565b9690966112c15793601d9796959361126d937fa8a1b9e33e503eed12bf7e7c8c01c7f3b60217a496bddd0f5db351dd8c056c1c9c9d9e936005975189555160018901555160028801555160038701555115159085019060ff801983541691151516179055565b5191015560195487525281852080546001600160a01b0319163390811790915561129690612ae7565b6112a96019549251928392339684612750565b0390a26001600080516020612d598339815191525580f35b634e487b7160e01b8c528b8d5260248cfd5b50634e487b7160e01b8c5260418d5260248cfd5b634e487b7160e01b895260418a52602489fd5b61131090823d84116107fa576107eb818361277c565b503861118b565b8560649184519162461bcd60e51b8352820152600d60248201526c496e76616c6964206379636c6560981b6044820152fd5b50601e821461113e565b50600f8214611137565b8560649184519162461bcd60e51b8352820152600d60248201526c151a58dad95d08195e1a5d1959609a1b6044820152fd5b815162461bcd60e51b81526020818701526012602482015271131a5c5d5a591a5d1e48191a5cd8589b195960721b6044820152606490fd5b50503461035e578160031936011261035e5760209051603c8152f35b50503461035e578160031936011261035e5760035490516001600160a01b039091168152602090f35b833461041257806003193601126104125761142561298c565b600c541561148e575b60155460ff81161580611480575b61146e575b506006541561144d5780f35b6019600655600f600755600560085560056009556019600a556019600b5580f35b61ffff19166101011760155581611441565b5060ff8160081c161561143c565b6001600c5561142e565b503461033857602036600319011261033857358252601d6020908152918190205490516001600160a01b039091168152f35b5091903461035e578160031936011261035e576114e56129c5565b3382526020601081528183209060019283830154151580611a5a575b61150a906128c0565b33855260118252808520928486948188905b6118eb575b50505083156118bb57338652600f83526115418460038489200154612823565b338752600f8452828720888101548092116118a3575b5050831561187257338652600f8352600382872001611577858254612823565b9055855482516370a0823160e01b808252308a83015288966001600160a01b0394939092838a1c918616908881602481855afa908115611868579083918d91611833575b5010158061182a575b6117c6575b50601754801580156117b2575b156117725750670de0b6b3a7640000905b670de0b6b3a76400009081810291818304149015171561175f57916116128c928c989796959461288d565b9187958b541691875190815230828201528981602481865afa908115611755578a93929185918b9161171f575b50101580611716575b6116b9575b5050505083519081528486820152600080516020612d39833981519152843392a25493825195865285015283015260608201527f6fcebd0a2ce98b28cb391d6008bbc769378c9a4919628e11639cb575cd320fcc60803392a2600080516020612d598339815191525580f35b83949650906116df939189895180968195829463a9059cbb60e01b8452339084016127ec565b03925af18015610882576116f9575b50918986818061164d565b61170f90873d89116107fa576107eb818361277c565b50896116ee565b50831515611648565b948092508591503d831161174e575b611738818361277c565b8101031261174a57838a93518f61163f565b8880fd5b503d61172e565b88513d8b823e3d90fd5b634e487b7160e01b8b5260118c5260248bfd5b601654670de0b6b3a76400009081810291818304149015171561179f57906117999161288d565b906115e7565b634e487b7160e01b8c5260118d5260248cfd5b50683635c9adc5dea00000601654106115d6565b816117ec92995088918d8d8a5180968195829463a9059cbb60e01b8452339084016127ec565b03925af1801561182057611803575b5086386115c9565b61181990873d89116107fa576107eb818361277c565b50386117fb565b86513d8c823e3d90fd5b508115156115c4565b8092508a8092503d8311611861575b61184c818361277c565b8101031261185d57829051386115bb565b8b80fd5b503d611842565b88513d8e823e3d90fd5b815162461bcd60e51b8152808801849052600b60248201526a10d85c081c995858da195960aa1b6044820152606490fd5b6118b39295506003015490612880565b923880611557565b815162461bcd60e51b8152808801849052600a6024820152694e6f207265776172647360b01b6044820152606490fd5b8154811015611a55578260ff8b6119028486612807565b5001541615611a4f5750886119178284612807565b5090600760038093015414600014611a10575062cb73565b603c61194960026119408688612807565b50015442612880565b0491806119568587612807565b50015483116119f9575b508482156119f0579161198861198d92633b9aca00946119808789612807565b5001546128ad565b6128ad565b046119988284612807565b5090600580920154908181116119b6575b50505082905b018261151c565b6119d16119ca8795949b936119e693612880565b8093612823565b996119dc8487612807565b5001918254612823565b90559038806119a9565b929150506119af565b909150611a068385612807565b5001549038611960565b600f82611a1d8587612807565b50015403611a2f575062fe502b61192f565b601e82611a3c8587612807565b5001540361192f57506301312d0061192f565b906119af565b611521565b50600383015460ff1615611501565b50503461035e578160031936011261035e57602090600d549051908152f35b50503461035e578160031936011261035e5760209060ff604e541690519015158152f35b50503461035e578160031936011261035e57604e54905160089190911c6001600160a01b03168152602090f35b50503461035e578160031936011261035e5760209051683635c9adc5dea000008152f35b8284346104125760203660031901126104125760029082906001600160a01b03611b25612707565b168152600f60205220015490610749611b3d83612b66565b9390925193849384612750565b50503461035e578160031936011261035e576020906017549051908152f35b503461033857602036600319011261033857610160926001600160a01b0390839082611b93612707565b168152600f60205220908154169260018201549260028301549060038401549084015460ff60058601541690600686015492600787015494600888015496600a60098a01549901549981519b8c5260208c01528a015260608901526080880152151560a087015260c086015260e0850152610100840152610120830152610140820152f35b50503461035e578160031936011261035e5760015490516001600160a01b039091168152602090f35b50503461035e578160031936011261035e5751908152602090f35b509034610338576020908160031936011261074d578235611c7b6129c5565b60ff60155460081c16156123b057338552601183528185208054821080612399575b156123665790611cac91612807565b506001810180549160028101546003820154936005830191825495338b52600f89526009888c20015460108a526001898d20015491600c54938a5195610100870187811060018060401b03821117612351578c5286528b8601528985015260608401889052608084015260a083015260c0820152603c60e0820152611d30906129f5565b93919290958394156123205790611d49848b9493612823565b905501805460ff1916905583612147575b60018060a01b03968789541691845492888b89519283809281611d8b63a9059cbb60e01b9a8b8352338b84016127ec565b03925af1801561213d57612120575b5080611de0575b8988600080516020612d79833981519152898989549382519485528401523392a2611dcb33612ae7565b6001600080516020612d598339815191525580f35b338a52600f8852611dfc878b2060038482015491015490612880565b908181116120e5575b505082611e13575b80611da1565b338952600f87526003868a2001611e2b848254612823565b90558260011c91888a5416928751936370a0823160e01b9485815230858201528a81602481855afa908d82156120da579084926120a5575b5010158061209c575b61204d575b5060175480158015612039575b15611ff65750611e98670de0b6b3a7640000915b86612880565b670de0b6b3a764000090818102918183041490151715611fe3578b9291611ebe9161288d565b996001541693885190815230848201528981602481885afa908115611fd957908b918491611fa8575b50101580611f9f575b611f31575b50505050600080516020612d7983398151915294955083519081528686820152600080516020612d39833981519152843392a284933880611e0d565b91889391611f4e9a9389519b8c95869485938452339084016127ec565b03925af1958615611f9557600080516020612d798339815191529596611f78575b86958882611ef5565b611f8e90873d89116107fa576107eb818361277c565b5038611f6f565b84513d89823e3d90fd5b50891515611ef0565b8092508b8092503d8311611fd2575b611fc1818361277c565b81010312610338578a905138611ee7565b503d611fb7565b89513d85823e3d90fd5b634e487b7160e01b8c526011845260248cfd5b601654670de0b6b3a76400009081810291818304149015171561202657611e98916120209161288d565b91611e92565b634e487b7160e01b8d526011855260248dfd5b50683635c9adc5dea0000060165410611e7e565b898c8a51928380928782528161206688338c84016127ec565b03925af180156120925715611e715761208b908a3d8c116107fa576107eb818361277c565b5038611e71565b89513d8e823e3d90fd5b50811515611e6c565b8092508c8092503d83116120d3575b6120be818361277c565b810103126120cf5782905138611e63565b8c80fd5b503d6120b4565b8b51903d90823e3d90fd5b90919350865190815281888201527fb5987aab1afd379f6695f1068869ee8ca6a0d02304c57935a9cc3d3ea2e51e4d873392a2913880611e05565b61213690893d8b116107fa576107eb818361277c565b5038611d9a565b88513d8d823e3d90fd5b875485516370a0823160e01b815233898201526001600160a01b03909116908781602481855afa9081156122a3579086918b916122ef575b50106122ad578551636eb1769f60e11b815233898201523060248201528781604481855afa9081156122a3579086918b9161226e575b501061222b5786856121e0928a8c8a518096819582946323b872dd60e01b845230903390850161285e565b03925af1801561222157612204575b506121fc84601654612823565b601655611d5a565b61221a90873d89116107fa576107eb818361277c565b50386121ef565b86513d8b823e3d90fd5b855162461bcd60e51b8152808901889052601e60248201527f496e73756666696369656e7420616c6c6f77616e636520666f722066656500006044820152606490fd5b809250898092503d831161229c575b612287818361277c565b8101031261229857859051386121b5565b8980fd5b503d61227d565b87513d8c823e3d90fd5b855162461bcd60e51b8152808901889052601c60248201527b496e73756666696369656e742062616c616e636520666f722066656560201b6044820152606490fd5b809250898092503d8311612319575b612308818361277c565b81010312612298578590513861217f565b503d6122fe565b875162461bcd60e51b8152808b018a9052600b60248201526a139bdd08195e1c1a5c995960aa1b6044820152606490fd5b5050634e487b7160e01b8e5260418d5260248efd5b50505162461bcd60e51b815291820152600d60248201526c496e76616c6964207374616b6560981b604482015260649150fd5b5060ff856123a78484612807565b50015416611c9d565b505162461bcd60e51b8152918201526008602482015267111a5cd8589b195960c21b604482015260649150fd5b50503461035e578160031936011261035e576020905160028152f35b50503461035e578060031936011261035e57612413612707565b6001600160a01b039081168352601260205281832080546024359490851015610412575060209361244391612722565b92905490519260031b1c168152f35b50346103385760208060031936011261074d5761246d612707565b338552600f8083528486205490946001600160a01b039290918316612667578216943386146126335785156126005733875280845281872080546001600160a01b03191687179055858752601284528187208054909490600160401b8110156125ed576124e290600196600182018155612722565b81549060031b908633831b921b19161790553388528181528484848a20541689915b61253c575b898961251433612c15565b337fa6dbb5aa28f35437de94d685d66edce5fb4812196b4984b91dfd5a7b38c0fb308380a380f35b85811690811515806125e3575b156125dd57818b52848452600280878d20015490898201908183116125ca57886125ae94938f93807fa0eea20e678cb42233c1c456c84cedce7ea53fa360bb71bf3b761b76095677709484878e8e8d809b5252200155825191825289820152a2612c15565b8952828252856125c386868c2054169261297d565b9190612504565b634e487b7160e01b8e5260118c5260248efd5b50612509565b50601e8310612549565b634e487b7160e01b895260418752602489fd5b849084606493519262461bcd60e51b845283015260248201526e496e76616c6964206164647265737360881b6044820152fd5b815162461bcd60e51b8152808601859052600e60248201526d53656c66207265666572656e636560901b6044820152606490fd5b815162461bcd60e51b8152808601859052600d60248201526c105b1c9958591e48189bdd5b99609a1b6044820152606490fd5b50503461035e578160031936011261035e57602090600b549051908152f35b5090346103385736600319011261035e573580151580910361035e57602435801515809103610338576126ea61298c565b60ff61ff006015549260081b1692169061ffff1916171760155580f35b600435906001600160a01b038216820361271d57565b600080fd5b805482101561273a5760005260206000200190600090565b634e487b7160e01b600052603260045260246000fd5b6040919493926060820195825260208201520152565b604090600319011261271d576004359060243590565b601f909101601f19168101906001600160401b0382119082101761279f57604052565b634e487b7160e01b600052604160045260246000fd5b6001600160401b03811161279f57601f01601f191660200190565b805482101561273a5760005260206000209060011b0190600090565b6001600160a01b039091168152602081019190915260400190565b805482101561273a576000526006602060002091020190600090565b9190820180921161283057565b634e487b7160e01b600052601160045260246000fd5b9081602091031261271d5751801515810361271d5790565b6001600160a01b03918216815291166020820152604081019190915260600190565b9190820391821161283057565b8115612897570490565b634e487b7160e01b600052601260045260246000fd5b8181029291811591840414171561283057565b156128c757565b60405162461bcd60e51b815260206004820152601060248201526f139bc81858dd1a5d99481d1a58dad95d60821b6044820152606490fd5b1561290657565b60405162461bcd60e51b815260206004820152601260248201527110dbdb9d1c9858dd081a5cc81c185d5cd95960721b6044820152606490fd5b1561294757565b60405162461bcd60e51b815260206004820152600e60248201526d125b9d985b1a5908185b5bdd5b9d60921b6044820152606490fd5b60001981146128305760010190565b600080516020612cd9833981519152546001600160a01b031633036129ad57565b60405163118cdaa760e01b8152336004820152602490fd5b600080516020612d5983398151915260028154146129e35760029055565b604051633ee5aeb560e01b8152600490fd5b906020820151612a196040840191612a13835160e0870151906128ad565b90612823565b421090811591612adb57612a5781633b9aca00925160078114600014612ab15750612a4f63ffffffff62cb73565b1687516128ad565b9051906128ad565b046060840151808211600014612aa357612a76612a9191606493612880565b60808601519095908015612a955760c090915b0151906128ad565b0491565b5060c060a082015191612a89565b50506064612a916000612a76565b600f03612ac957612a4f63ffffffff62fe502b612a47565b612a4f63ffffffff6301312d00612a47565b50600092508291829150565b6001600160a01b0316600081815260116020526040812080548291825b828110612b34575b505050604081612b329460059352600f60205220019060ff801983541691151516179055565b565b60ff6004612b428385612807565b50015416612b5257600101612b04565b506001935060409150829050612b32612b0c565b620186a0811015612c0c57617530811015612c0357612710811015612bfa57610bb8811015612bf1576103e8811015612be85761012c811015612bdf576064811015612bd657601e811015612bcd57600a1115612bc557600090600090565b600190600590565b50600290600a90565b50600390600f90565b50600490601490565b50600590601990565b50600690601e90565b50600790602390565b50600890602890565b50600990602d90565b6001600160a01b03166000818152600f60205260409020600201547fea8384d3ca7bf5b7510d3faee44a3774406c1fd3ac14fff110a8c98d47a2595690606090612c5e81612b66565b5090604051916000835260208301526040820152a2565b90612c9c5750805115612c8a57602081519101fd5b60405163d6bda27560e01b8152600490fd5b81511580612ccf575b612cad575090565b604051639996b31560e01b81526001600160a01b039091166004820152602490fd5b50803b15612ca556fe9016d09d72d40fdae2fd8ceac6b6234c7706214fd39c1cd1e609a0528c199300360894a13ba1a3210667c828492db98dca3e2076cc3735a920a3ca505d382bbc8be0079c531659141344cd1fd0a4f28419497f9722a3daafe3b4186f6b6457e0f381583145e90b82cc5e529bf4fc4d0e44397174cdf145c4251ac33ef195a4249b779b17422d0df92223018b32b4d1fa46e071723d6817e2486d003becc55f00f3a670cd3af7d64b488926880889d08a8585a138ff455227af6737339a1ec262a26469706673582212200c6f7380f601ba86ad00dca69b6b5d67bde3677a87f89ecc773c2dc55926334f64736f6c63430008160033",
  "linkReferences": {},
  "deployedLinkReferences": {}
}