{
  "_format": "hh-sol-artifact-1",
  "contractName": "TestSimple",
  "sourceName": "contracts/TestSimple.sol",
  "abi": [
    {
      "inputs": [],
      "name": "getName",
      "outputs": [
        {
          "internalType": "string",
          "name": "",
          "type": "string"
        }
      ],
      "stateMutability": "view",
      "type": "function"
    },
    {
      "inputs": [],
      "name": "name",
      "outputs": [
        {
          "internalType": "string",
          "name": "",
          "type": "string"
        }
      ],
      "stateMutability": "view",
      "type": "function"
    }
  ],
  "bytecode": "0x608080604052346100935760008054600190600181811c91168015610089575b602082101461007557601f811161004c575b505060086315195cdd60e21b0190556101e390816100998239f35b828052601f60208420910160051c8101905b81811061006b5750610031565b838155820161005e565b634e487b7160e01b83526022600452602483fd5b90607f169061001f565b600080fdfe6080604052600436101561001257600080fd5b6000803560e01c806306fdde0314610061576317d7de7c1461003357600080fd5b3461005e578060031936011261005e5761005a61004e610079565b60405191829182610164565b0390f35b80fd5b503461005e578060031936011261005e5761005a61004e5b604051906000805460018160011c906001831692831561015a575b60209384841081146101465783885290811561012a57506001146100ef575b505050829003601f01601f191682016001600160401b038111838210176100d957604052565b634e487b7160e01b600052604160045260246000fd5b919250600080528260002091836000935b83851061011657505050508301013880806100b3565b805488860183015293019284908201610100565b60ff1916878501525050151560051b84010190503880806100b3565b634e487b7160e01b86526022600452602486fd5b91607f1691610094565b6020808252825181830181905290939260005b82811061019957505060409293506000838284010152601f8019910116010190565b81810186015184820160400152850161017756fea26469706673582212204df8a02eb535ff4ee639654cfed29184f982efc0cc4c62bed68b2645bcd3763764736f6c63430008160033",
  "linkReferences": {},
  "deployedLinkReferences": {}
}