{
  "_format": "hh-sol-artifact-1",
  "contractName": "DailyBurnManager",
  "sourceName": "contracts/DailyBurnManager.sol",
  "abi": [
    {
      "inputs": [
        {
          "internalType": "address",
          "name": "_protocol",
          "type": "address"
        },
        {
          "internalType": "address",
          "name": "_jbcToken",
          "type": "address"
        }
      ],
      "stateMutability": "nonpayable",
      "type": "constructor"
    },
    {
      "inputs": [
        {
          "internalType": "address",
          "name": "owner",
          "type": "address"
        }
      ],
      "name": "OwnableInvalidOwner",
      "type": "error"
    },
    {
      "inputs": [
        {
          "internalType": "address",
          "name": "account",
          "type": "address"
        }
      ],
      "name": "OwnableUnauthorizedAccount",
      "type": "error"
    },
    {
      "anonymous": false,
      "inputs": [
        {
          "indexed": false,
          "internalType": "uint256",
          "name": "newInterval",
          "type": "uint256"
        },
        {
          "indexed": false,
          "internalType": "uint256",
          "name": "newPercentage",
          "type": "uint256"
        }
      ],
      "name": "BurnParametersUpdated",
      "type": "event"
    },
    {
      "anonymous": false,
      "inputs": [
        {
          "indexed": false,
          "internalType": "uint256",
          "name": "burnAmount",
          "type": "uint256"
        },
        {
          "indexed": false,
          "internalType": "uint256",
          "name": "timestamp",
          "type": "uint256"
        },
        {
          "indexed": false,
          "internalType": "address",
          "name": "executor",
          "type": "address"
        }
      ],
      "name": "DailyBurnExecuted",
      "type": "event"
    },
    {
      "anonymous": false,
      "inputs": [
        {
          "indexed": true,
          "internalType": "address",
          "name": "previousOwner",
          "type": "address"
        },
        {
          "indexed": true,
          "internalType": "address",
          "name": "newOwner",
          "type": "address"
        }
      ],
      "name": "OwnershipTransferred",
      "type": "event"
    },
    {
      "inputs": [],
      "name": "BURN_INTERVAL",
      "outputs": [
        {
          "internalType": "uint256",
          "name": "",
          "type": "uint256"
        }
      ],
      "stateMutability": "view",
      "type": "function"
    },
    {
      "inputs": [],
      "name": "BURN_PERCENTAGE",
      "outputs": [
        {
          "internalType": "uint256",
          "name": "",
          "type": "uint256"
        }
      ],
      "stateMutability": "view",
      "type": "function"
    },
    {
      "inputs": [],
      "name": "canBurn",
      "outputs": [
        {
          "internalType": "bool",
          "name": "",
          "type": "bool"
        }
      ],
      "stateMutability": "view",
      "type": "function"
    },
    {
      "inputs": [],
      "name": "dailyBurn",
      "outputs": [],
      "stateMutability": "nonpayable",
      "type": "function"
    },
    {
      "inputs": [],
      "name": "emergencyPause",
      "outputs": [],
      "stateMutability": "nonpayable",
      "type": "function"
    },
    {
      "inputs": [],
      "name": "getBurnAmount",
      "outputs": [
        {
          "internalType": "uint256",
          "name": "",
          "type": "uint256"
        }
      ],
      "stateMutability": "view",
      "type": "function"
    },
    {
      "inputs": [],
      "name": "jbcToken",
      "outputs": [
        {
          "internalType": "contract IJBC",
          "name": "",
          "type": "address"
        }
      ],
      "stateMutability": "view",
      "type": "function"
    },
    {
      "inputs": [],
      "name": "lastBurnTime",
      "outputs": [
        {
          "internalType": "uint256",
          "name": "",
          "type": "uint256"
        }
      ],
      "stateMutability": "view",
      "type": "function"
    },
    {
      "inputs": [],
      "name": "nextBurnTime",
      "outputs": [
        {
          "internalType": "uint256",
          "name": "",
          "type": "uint256"
        }
      ],
      "stateMutability": "view",
      "type": "function"
    },
    {
      "inputs": [],
      "name": "owner",
      "outputs": [
        {
          "internalType": "address",
          "name": "",
          "type": "address"
        }
      ],
      "stateMutability": "view",
      "type": "function"
    },
    {
      "inputs": [],
      "name": "protocol",
      "outputs": [
        {
          "internalType": "contract JinbaoProtocol",
          "name": "",
          "type": "address"
        }
      ],
      "stateMutability": "view",
      "type": "function"
    },
    {
      "inputs": [],
      "name": "renounceOwnership",
      "outputs": [],
      "stateMutability": "nonpayable",
      "type": "function"
    },
    {
      "inputs": [],
      "name": "resumeBurn",
      "outputs": [],
      "stateMutability": "nonpayable",
      "type": "function"
    },
    {
      "inputs": [],
      "name": "timeUntilNextBurn",
      "outputs": [
        {
          "internalType": "uint256",
          "name": "",
          "type": "uint256"
        }
      ],
      "stateMutability": "view",
      "type": "function"
    },
    {
      "inputs": [
        {
          "internalType": "address",
          "name": "newOwner",
          "type": "address"
        }
      ],
      "name": "transferOwnership",
      "outputs": [],
      "stateMutability": "nonpayable",
      "type": "function"
    }
  ],
  "bytecode": "0x60c03461010757601f61099c38819003918201601f19168301916001600160401b0383118484101761010c57808492604094855283398101031261010757610052602061004b83610122565b9201610122565b9033156100ee5760008054336001600160a01b0319821681178355604051946001600160a01b0394909385939192918416907f8be0079c531659141344cd1fd0a4f28419497f9722a3daafe3b4186f6b6457e09080a3166080521660a05242600155610865908161013782396080518181816101a3015281816102ae0152818161035b015261076c015260a0518181816103c401526106940152f35b604051631e4fbdf760e01b815260006004820152602490fd5b600080fd5b634e487b7160e01b600052604160045260246000fd5b51906001600160a01b03821682036101075756fe608060408181526004908136101561001657600080fd5b600092833560e01c9081631788513c14610680575080633f8a09ee1461066057806351858e271461063e5780635a1ab7801461061a578063715018a6146105c05780637b1648e2146105a257806381eeef5c1461031e578063893dbf61146102dd5780638ce74426146102995780638da5cb5b146102715780639649b91014610255578063c1eb18401461022f578063d0c5c5851461017c578063e3067449146101595763f2fde38b146100c957600080fd5b34610155576020366003190112610155576001600160a01b03823581811693919290849003610151576100fa610803565b831561013b57505082546001600160a01b0319811683178455167f8be0079c531659141344cd1fd0a4f28419497f9722a3daafe3b4186f6b6457e08380a380f35b51631e4fbdf760e01b8152908101849052602490fd5b8480fd5b8280fd5b8382346101785781600319360112610178576020906001549051908152f35b5080fd5b5090346101555782600319360112610155578151630e86d63b60e11b8152906020908290817f00000000000000000000000000000000000000000000000000000000000000006001600160a01b03165afa9283156102245780936101e8575b6020846064855191048152f35b9092506020833d60201161021c575b8161020460209383610709565b810103126102195750606460209251926101db565b80fd5b3d91506101f7565b8251903d90823e3d90fd5b83823461017857816003193601126101785760209061024c610741565b90519015158152f35b8382346101785781600319360112610178576020905160648152f35b838234610178578160031936011261017857905490516001600160a01b039091168152602090f35b838234610178578160031936011261017857517f00000000000000000000000000000000000000000000000000000000000000006001600160a01b03168152602090f35b508290346101785781600319360112610178576001549162015180830180931161030b576020838351908152f35b634e487b7160e01b815260118452602490fd5b503461015557826003193601126101555760015462015180810180911161058f574210610560578051630e86d63b60e11b81526001600160a01b037f000000000000000000000000000000000000000000000000000000000000000081169360209290919083818481895afa908115610556578791610525575b5080156104f157606490049485156104b657839060248651809481936370a0823160e01b8352878301527f0000000000000000000000000000000000000000000000000000000000000000165afa9081156104ac579085918791610477575b501061043b5750916060917fff7a68675d35a4d13ee082b117e0dd66fde26cf62ec42d62157f3ae9de881d909342600155815192835242908301523390820152a180f35b915162461bcd60e51b8152918201526018602482015277496e73756666696369656e74204a42432062616c616e636560401b6044820152606490fd5b809250848092503d83116104a5575b6104908183610709565b810103126104a157849051386103f7565b8580fd5b503d610486565b84513d88823e3d90fd5b845162461bcd60e51b81528084018590526015602482015274109d5c9b88185b5bdd5b9d081d1bdbc81cdb585b1b605a1b6044820152606490fd5b845162461bcd60e51b8152808401859052600e60248201526d273790252121903a3790313ab93760911b6044820152606490fd5b90508381813d831161054f575b61053c8183610709565b8101031261054b575138610398565b8680fd5b503d610532565b85513d89823e3d90fd5b906020606492519162461bcd60e51b83528201526009602482015268546f6f206561726c7960b81b6044820152fd5b634e487b7160e01b845260118352602484fd5b83823461017857816003193601126101785760209051620151808152f35b83346102195780600319360112610219576105d9610803565b80546001600160a01b03198116825581906001600160a01b03167f8be0079c531659141344cd1fd0a4f28419497f9722a3daafe3b4186f6b6457e08280a380f35b8382346101785781600319360112610178576020906106376106c3565b9051908152f35b8334610219578060031936011261021957610657610803565b60001960015580f35b8334610219578060031936011261021957610679610803565b4260015580f35b8490346101785781600319360112610178577f00000000000000000000000000000000000000000000000000000000000000006001600160a01b03168152602090f35b60015462015180808201918281116106eb578242101561070157429003019081116106eb5790565b634e487b7160e01b600052601160045260246000fd5b505050600090565b90601f8019910116810190811067ffffffffffffffff82111761072b57604052565b634e487b7160e01b600052604160045260246000fd5b6001546201518081018091116106eb5742106107fe57604051630e86d63b60e11b81526020816004817f00000000000000000000000000000000000000000000000000000000000000006001600160a01b03165afa9081156107f2576000916107bb575b5080156107b55760649004151590565b50600090565b90506020813d6020116107ea575b816107d660209383610709565b810103126107e55751386107a5565b600080fd5b3d91506107c9565b6040513d6000823e3d90fd5b600090565b6000546001600160a01b0316330361081757565b60405163118cdaa760e01b8152336004820152602490fdfea2646970667358221220a1d8736ca6fc79cbfdd595f03c4c6520a9ddf39ddc75c5c4a95907ebac8a275f64736f6c63430008160033",
  "linkReferences": {},
  "deployedLinkReferences": {}
}