{
  "_format": "hh-sol-artifact-1",
  "contractName": "DailyBurnManager",
  "sourceName": "contracts/DailyBurnManager.sol",
  "abi": [
    {
      "inputs": [
        {
          "internalType": "address",
          "name": "_protocol",
          "type": "address"
        },
        {
          "internalType": "address",
          "name": "_jbcToken",
          "type": "address"
        }
      ],
      "stateMutability": "nonpayable",
      "type": "constructor"
    },
    {
      "inputs": [
        {
          "internalType": "address",
          "name": "owner",
          "type": "address"
        }
      ],
      "name": "OwnableInvalidOwner",
      "type": "error"
    },
    {
      "inputs": [
        {
          "internalType": "address",
          "name": "account",
          "type": "address"
        }
      ],
      "name": "OwnableUnauthorizedAccount",
      "type": "error"
    },
    {
      "anonymous": false,
      "inputs": [
        {
          "indexed": false,
          "internalType": "uint256",
          "name": "newInterval",
          "type": "uint256"
        },
        {
          "indexed": false,
          "internalType": "uint256",
          "name": "newPercentage",
          "type": "uint256"
        }
      ],
      "name": "BurnParametersUpdated",
      "type": "event"
    },
    {
      "anonymous": false,
      "inputs": [
        {
          "indexed": false,
          "internalType": "uint256",
          "name": "burnAmount",
          "type": "uint256"
        },
        {
          "indexed": false,
          "internalType": "uint256",
          "name": "timestamp",
          "type": "uint256"
        },
        {
          "indexed": false,
          "internalType": "address",
          "name": "executor",
          "type": "address"
        }
      ],
      "name": "DailyBurnExecuted",
      "type": "event"
    },
    {
      "anonymous": false,
      "inputs": [
        {
          "indexed": true,
          "internalType": "address",
          "name": "previousOwner",
          "type": "address"
        },
        {
          "indexed": true,
          "internalType": "address",
          "name": "newOwner",
          "type": "address"
        }
      ],
      "name": "OwnershipTransferred",
      "type": "event"
    },
    {
      "inputs": [],
      "name": "BURN_INTERVAL",
      "outputs": [
        {
          "internalType": "uint256",
          "name": "",
          "type": "uint256"
        }
      ],
      "stateMutability": "view",
      "type": "function"
    },
    {
      "inputs": [],
      "name": "BURN_PERCENTAGE",
      "outputs": [
        {
          "internalType": "uint256",
          "name": "",
          "type": "uint256"
        }
      ],
      "stateMutability": "view",
      "type": "function"
    },
    {
      "inputs": [],
      "name": "canBurn",
      "outputs": [
        {
          "internalType": "bool",
          "name": "",
          "type": "bool"
        }
      ],
      "stateMutability": "view",
      "type": "function"
    },
    {
      "inputs": [],
      "name": "dailyBurn",
      "outputs": [],
      "stateMutability": "nonpayable",
      "type": "function"
    },
    {
      "inputs": [],
      "name": "emergencyPause",
      "outputs": [],
      "stateMutability": "nonpayable",
      "type": "function"
    },
    {
      "inputs": [],
      "name": "getBurnAmount",
      "outputs": [
        {
          "internalType": "uint256",
          "name": "",
          "type": "uint256"
        }
      ],
      "stateMutability": "view",
      "type": "function"
    },
    {
      "inputs": [],
      "name": "jbcToken",
      "outputs": [
        {
          "internalType": "contract IJBC",
          "name": "",
          "type": "address"
        }
      ],
      "stateMutability": "view",
      "type": "function"
    },
    {
      "inputs": [],
      "name": "lastBurnTime",
      "outputs": [
        {
          "internalType": "uint256",
          "name": "",
          "type": "uint256"
        }
      ],
      "stateMutability": "view",
      "type": "function"
    },
    {
      "inputs": [],
      "name": "nextBurnTime",
      "outputs": [
        {
          "internalType": "uint256",
          "name": "",
          "type": "uint256"
        }
      ],
      "stateMutability": "view",
      "type": "function"
    },
    {
      "inputs": [],
      "name": "owner",
      "outputs": [
        {
          "internalType": "address",
          "name": "",
          "type": "address"
        }
      ],
      "stateMutability": "view",
      "type": "function"
    },
    {
      "inputs": [],
      "name": "protocol",
      "outputs": [
        {
          "internalType": "contract IJinbaoProtocol",
          "name": "",
          "type": "address"
        }
      ],
      "stateMutability": "view",
      "type": "function"
    },
    {
      "inputs": [],
      "name": "renounceOwnership",
      "outputs": [],
      "stateMutability": "nonpayable",
      "type": "function"
    },
    {
      "inputs": [],
      "name": "resumeBurn",
      "outputs": [],
      "stateMutability": "nonpayable",
      "type": "function"
    },
    {
      "inputs": [],
      "name": "timeUntilNextBurn",
      "outputs": [
        {
          "internalType": "uint256",
          "name": "",
          "type": "uint256"
        }
      ],
      "stateMutability": "view",
      "type": "function"
    },
    {
      "inputs": [
        {
          "internalType": "address",
          "name": "newOwner",
          "type": "address"
        }
      ],
      "name": "transferOwnership",
      "outputs": [],
      "stateMutability": "nonpayable",
      "type": "function"
    }
  ],
  "bytecode": "0x60c03461010757601f61099938819003918201601f19168301916001600160401b0383118484101761010c57808492604094855283398101031261010757610052602061004b83610122565b9201610122565b9033156100ee5760008054336001600160a01b0319821681178355604051946001600160a01b0394909385939192918416907f8be0079c531659141344cd1fd0a4f28419497f9722a3daafe3b4186f6b6457e09080a3166080521660a05242600155610862908161013782396080518181816101910152818161029c015281816103490152610749015260a0518181816103b201526106700152f35b604051631e4fbdf760e01b815260006004820152602490fd5b600080fd5b634e487b7160e01b600052604160045260246000fd5b51906001600160a01b03821682036101075756fe608060408181526004908136101561001657600080fd5b600092833560e01c9081631788513c1461065c575080633f8a09ee1461063c57806351858e271461061a5780635a1ab780146105f6578063715018a6146105ae5780637b1648e21461059057806381eeef5c1461030c578063893dbf61146102cb5780638ce74426146102875780638da5cb5b1461025f5780639649b91014610243578063c1eb18401461021d578063d0c5c5851461016a578063e3067449146101475763f2fde38b146100c957600080fd5b34610143576020366003190112610143576001600160a01b0382358181169391929084900361013f576100fa6107e0565b831561012957505082546001600160a01b03198116831784551660008051602061080d8339815191528380a380f35b51631e4fbdf760e01b8152908101849052602490fd5b8480fd5b8280fd5b8382346101665781600319360112610166576020906001549051908152f35b5080fd5b5090346101435782600319360112610143578151630e86d63b60e11b8152906020908290817f00000000000000000000000000000000000000000000000000000000000000006001600160a01b03165afa9283156102125780936101d6575b6020846064855191048152f35b9092506020833d60201161020a575b816101f2602093836106e5565b810103126102075750606460209251926101c9565b80fd5b3d91506101e5565b8251903d90823e3d90fd5b83823461016657816003193601126101665760209061023a61071e565b90519015158152f35b8382346101665781600319360112610166576020905160648152f35b838234610166578160031936011261016657905490516001600160a01b039091168152602090f35b838234610166578160031936011261016657517f00000000000000000000000000000000000000000000000000000000000000006001600160a01b03168152602090f35b50829034610166578160031936011261016657600154916201518083018093116102f9576020838351908152f35b634e487b7160e01b815260118452602490fd5b503461014357826003193601126101435760015462015180810180911161057d57421061054e578051630e86d63b60e11b81526001600160a01b037f000000000000000000000000000000000000000000000000000000000000000081169360209290919083818481895afa908115610544578791610513575b5080156104df57606490049485156104a457839060248651809481936370a0823160e01b8352878301527f0000000000000000000000000000000000000000000000000000000000000000165afa90811561049a579085918791610465575b50106104295750916060917fff7a68675d35a4d13ee082b117e0dd66fde26cf62ec42d62157f3ae9de881d909342600155815192835242908301523390820152a180f35b915162461bcd60e51b8152918201526018602482015277496e73756666696369656e74204a42432062616c616e636560401b6044820152606490fd5b809250848092503d8311610493575b61047e81836106e5565b8101031261048f57849051386103e5565b8580fd5b503d610474565b84513d88823e3d90fd5b845162461bcd60e51b81528084018590526015602482015274109d5c9b88185b5bdd5b9d081d1bdbc81cdb585b1b605a1b6044820152606490fd5b845162461bcd60e51b8152808401859052600e60248201526d273790252121903a3790313ab93760911b6044820152606490fd5b90508381813d831161053d575b61052a81836106e5565b81010312610539575138610386565b8680fd5b503d610520565b85513d89823e3d90fd5b906020606492519162461bcd60e51b83528201526009602482015268546f6f206561726c7960b81b6044820152fd5b634e487b7160e01b845260118352602484fd5b83823461016657816003193601126101665760209051620151808152f35b83346102075780600319360112610207576105c76107e0565b80546001600160a01b03198116825581906001600160a01b031660008051602061080d8339815191528280a380f35b83823461016657816003193601126101665760209061061361069f565b9051908152f35b83346102075780600319360112610207576106336107e0565b60001960015580f35b83346102075780600319360112610207576106556107e0565b4260015580f35b8490346101665781600319360112610166577f00000000000000000000000000000000000000000000000000000000000000006001600160a01b03168152602090f35b60015462015180808201918281116106c757824210156106dd57429003019081116106c75790565b634e487b7160e01b600052601160045260246000fd5b505050600090565b601f909101601f19168101906001600160401b0382119082101761070857604052565b634e487b7160e01b600052604160045260246000fd5b6001546201518081018091116106c75742106107db57604051630e86d63b60e11b81526020816004817f00000000000000000000000000000000000000000000000000000000000000006001600160a01b03165afa9081156107cf57600091610798575b5080156107925760649004151590565b50600090565b90506020813d6020116107c7575b816107b3602093836106e5565b810103126107c2575138610782565b600080fd5b3d91506107a6565b6040513d6000823e3d90fd5b600090565b6000546001600160a01b031633036107f457565b60405163118cdaa760e01b8152336004820152602490fdfe8be0079c531659141344cd1fd0a4f28419497f9722a3daafe3b4186f6b6457e0a26469706673582212201c11775d74663a104b90029fe771d1c5357c89a73f5331e26dc3997893463b0064736f6c63430008160033",
  "linkReferences": {},
  "deployedLinkReferences": {}
}