{
  "_format": "hh-sol-artifact-1",
  "contractName": "JinbaoProtocolProduction",
  "sourceName": "contracts/JinbaoProtocolProduction.sol",
  "abi": [
    {
      "inputs": [
        {
          "internalType": "address",
          "name": "target",
          "type": "address"
        }
      ],
      "name": "AddressEmptyCode",
      "type": "error"
    },
    {
      "inputs": [
        {
          "internalType": "address",
          "name": "implementation",
          "type": "address"
        }
      ],
      "name": "ERC1967InvalidImplementation",
      "type": "error"
    },
    {
      "inputs": [],
      "name": "ERC1967NonPayable",
      "type": "error"
    },
    {
      "inputs": [],
      "name": "FailedCall",
      "type": "error"
    },
    {
      "inputs": [],
      "name": "InvalidInitialization",
      "type": "error"
    },
    {
      "inputs": [],
      "name": "NotInitializing",
      "type": "error"
    },
    {
      "inputs": [
        {
          "internalType": "address",
          "name": "owner",
          "type": "address"
        }
      ],
      "name": "OwnableInvalidOwner",
      "type": "error"
    },
    {
      "inputs": [
        {
          "internalType": "address",
          "name": "account",
          "type": "address"
        }
      ],
      "name": "OwnableUnauthorizedAccount",
      "type": "error"
    },
    {
      "inputs": [],
      "name": "ReentrancyGuardReentrantCall",
      "type": "error"
    },
    {
      "inputs": [],
      "name": "UUPSUnauthorizedCallContext",
      "type": "error"
    },
    {
      "inputs": [
        {
          "internalType": "bytes32",
          "name": "slot",
          "type": "bytes32"
        }
      ],
      "name": "UUPSUnsupportedProxiableUUID",
      "type": "error"
    },
    {
      "anonymous": false,
      "inputs": [
        {
          "indexed": true,
          "internalType": "address",
          "name": "user",
          "type": "address"
        },
        {
          "indexed": true,
          "internalType": "address",
          "name": "referrer",
          "type": "address"
        }
      ],
      "name": "BoundReferrer",
      "type": "event"
    },
    {
      "anonymous": false,
      "inputs": [
        {
          "indexed": true,
          "internalType": "uint256",
          "name": "stakeId",
          "type": "uint256"
        },
        {
          "indexed": true,
          "internalType": "address",
          "name": "upline",
          "type": "address"
        },
        {
          "indexed": false,
          "internalType": "uint256",
          "name": "amount",
          "type": "uint256"
        }
      ],
      "name": "DifferentialRewardRecorded",
      "type": "event"
    },
    {
      "anonymous": false,
      "inputs": [
        {
          "indexed": true,
          "internalType": "uint256",
          "name": "stakeId",
          "type": "uint256"
        },
        {
          "indexed": true,
          "internalType": "address",
          "name": "upline",
          "type": "address"
        },
        {
          "indexed": false,
          "internalType": "uint256",
          "name": "amount",
          "type": "uint256"
        }
      ],
      "name": "DifferentialRewardReleased",
      "type": "event"
    },
    {
      "anonymous": false,
      "inputs": [
        {
          "indexed": false,
          "internalType": "uint64",
          "name": "version",
          "type": "uint64"
        }
      ],
      "name": "Initialized",
      "type": "event"
    },
    {
      "anonymous": false,
      "inputs": [
        {
          "indexed": true,
          "internalType": "address",
          "name": "user",
          "type": "address"
        },
        {
          "indexed": false,
          "internalType": "uint256",
          "name": "amount",
          "type": "uint256"
        },
        {
          "indexed": false,
          "internalType": "uint256",
          "name": "cycleDays",
          "type": "uint256"
        },
        {
          "indexed": false,
          "internalType": "uint256",
          "name": "stakeId",
          "type": "uint256"
        }
      ],
      "name": "LiquidityStaked",
      "type": "event"
    },
    {
      "anonymous": false,
      "inputs": [
        {
          "indexed": true,
          "internalType": "address",
          "name": "previousOwner",
          "type": "address"
        },
        {
          "indexed": true,
          "internalType": "address",
          "name": "newOwner",
          "type": "address"
        }
      ],
      "name": "OwnershipTransferred",
      "type": "event"
    },
    {
      "anonymous": false,
      "inputs": [
        {
          "indexed": true,
          "internalType": "address",
          "name": "user",
          "type": "address"
        },
        {
          "indexed": true,
          "internalType": "address",
          "name": "from",
          "type": "address"
        },
        {
          "indexed": false,
          "internalType": "uint256",
          "name": "mcAmount",
          "type": "uint256"
        },
        {
          "indexed": false,
          "internalType": "uint8",
          "name": "rewardType",
          "type": "uint8"
        },
        {
          "indexed": false,
          "internalType": "uint256",
          "name": "ticketId",
          "type": "uint256"
        }
      ],
      "name": "ReferralRewardPaid",
      "type": "event"
    },
    {
      "anonymous": false,
      "inputs": [
        {
          "indexed": true,
          "internalType": "address",
          "name": "user",
          "type": "address"
        },
        {
          "indexed": false,
          "internalType": "uint256",
          "name": "mcAmount",
          "type": "uint256"
        },
        {
          "indexed": false,
          "internalType": "uint256",
          "name": "jbcAmount",
          "type": "uint256"
        },
        {
          "indexed": false,
          "internalType": "uint8",
          "name": "rewardType",
          "type": "uint8"
        },
        {
          "indexed": false,
          "internalType": "uint256",
          "name": "ticketId",
          "type": "uint256"
        }
      ],
      "name": "RewardClaimed",
      "type": "event"
    },
    {
      "anonymous": false,
      "inputs": [
        {
          "indexed": true,
          "internalType": "address",
          "name": "user",
          "type": "address"
        },
        {
          "indexed": false,
          "internalType": "uint256",
          "name": "amount",
          "type": "uint256"
        },
        {
          "indexed": false,
          "internalType": "uint8",
          "name": "rewardType",
          "type": "uint8"
        }
      ],
      "name": "RewardPaid",
      "type": "event"
    },
    {
      "anonymous": false,
      "inputs": [
        {
          "indexed": true,
          "internalType": "address",
          "name": "user",
          "type": "address"
        },
        {
          "indexed": false,
          "internalType": "uint256",
          "name": "oldCount",
          "type": "uint256"
        },
        {
          "indexed": false,
          "internalType": "uint256",
          "name": "newCount",
          "type": "uint256"
        }
      ],
      "name": "TeamCountUpdated",
      "type": "event"
    },
    {
      "anonymous": false,
      "inputs": [
        {
          "indexed": true,
          "internalType": "address",
          "name": "user",
          "type": "address"
        },
        {
          "indexed": false,
          "internalType": "uint256",
          "name": "amount",
          "type": "uint256"
        },
        {
          "indexed": false,
          "internalType": "uint256",
          "name": "ticketId",
          "type": "uint256"
        }
      ],
      "name": "TicketPurchased",
      "type": "event"
    },
    {
      "anonymous": false,
      "inputs": [
        {
          "indexed": true,
          "internalType": "address",
          "name": "implementation",
          "type": "address"
        }
      ],
      "name": "Upgraded",
      "type": "event"
    },
    {
      "anonymous": false,
      "inputs": [
        {
          "indexed": true,
          "internalType": "address",
          "name": "user",
          "type": "address"
        },
        {
          "indexed": false,
          "internalType": "uint256",
          "name": "oldLevel",
          "type": "uint256"
        },
        {
          "indexed": false,
          "internalType": "uint256",
          "name": "newLevel",
          "type": "uint256"
        },
        {
          "indexed": false,
          "internalType": "uint256",
          "name": "teamCount",
          "type": "uint256"
        }
      ],
      "name": "UserLevelChanged",
      "type": "event"
    },
    {
      "inputs": [],
      "name": "MAX_PRICE_IMPACT",
      "outputs": [
        {
          "internalType": "uint256",
          "name": "",
          "type": "uint256"
        }
      ],
      "stateMutability": "view",
      "type": "function"
    },
    {
      "inputs": [],
      "name": "MIN_LIQUIDITY",
      "outputs": [
        {
          "internalType": "uint256",
          "name": "",
          "type": "uint256"
        }
      ],
      "stateMutability": "view",
      "type": "function"
    },
    {
      "inputs": [],
      "name": "REWARD_DIFFERENTIAL",
      "outputs": [
        {
          "internalType": "uint8",
          "name": "",
          "type": "uint8"
        }
      ],
      "stateMutability": "view",
      "type": "function"
    },
    {
      "inputs": [],
      "name": "REWARD_DIRECT",
      "outputs": [
        {
          "internalType": "uint8",
          "name": "",
          "type": "uint8"
        }
      ],
      "stateMutability": "view",
      "type": "function"
    },
    {
      "inputs": [],
      "name": "REWARD_DYNAMIC",
      "outputs": [
        {
          "internalType": "uint8",
          "name": "",
          "type": "uint8"
        }
      ],
      "stateMutability": "view",
      "type": "function"
    },
    {
      "inputs": [],
      "name": "REWARD_LEVEL",
      "outputs": [
        {
          "internalType": "uint8",
          "name": "",
          "type": "uint8"
        }
      ],
      "stateMutability": "view",
      "type": "function"
    },
    {
      "inputs": [],
      "name": "REWARD_STATIC",
      "outputs": [
        {
          "internalType": "uint8",
          "name": "",
          "type": "uint8"
        }
      ],
      "stateMutability": "view",
      "type": "function"
    },
    {
      "inputs": [],
      "name": "SECONDS_IN_UNIT",
      "outputs": [
        {
          "internalType": "uint256",
          "name": "",
          "type": "uint256"
        }
      ],
      "stateMutability": "view",
      "type": "function"
    },
    {
      "inputs": [],
      "name": "UPGRADE_INTERFACE_VERSION",
      "outputs": [
        {
          "internalType": "string",
          "name": "",
          "type": "string"
        }
      ],
      "stateMutability": "view",
      "type": "function"
    },
    {
      "inputs": [],
      "name": "buybackPercent",
      "outputs": [
        {
          "internalType": "uint256",
          "name": "",
          "type": "uint256"
        }
      ],
      "stateMutability": "view",
      "type": "function"
    },
    {
      "inputs": [],
      "name": "buybackWallet",
      "outputs": [
        {
          "internalType": "address",
          "name": "",
          "type": "address"
        }
      ],
      "stateMutability": "view",
      "type": "function"
    },
    {
      "inputs": [
        {
          "internalType": "uint256",
          "name": "teamCount",
          "type": "uint256"
        }
      ],
      "name": "calculateLevel",
      "outputs": [
        {
          "internalType": "uint256",
          "name": "level",
          "type": "uint256"
        },
        {
          "internalType": "uint256",
          "name": "percent",
          "type": "uint256"
        }
      ],
      "stateMutability": "pure",
      "type": "function"
    },
    {
      "inputs": [
        {
          "internalType": "address",
          "name": "user",
          "type": "address"
        }
      ],
      "name": "calculateStakeRewards",
      "outputs": [
        {
          "internalType": "uint256",
          "name": "",
          "type": "uint256"
        }
      ],
      "stateMutability": "view",
      "type": "function"
    },
    {
      "inputs": [
        {
          "internalType": "address",
          "name": "",
          "type": "address"
        },
        {
          "internalType": "uint256",
          "name": "",
          "type": "uint256"
        }
      ],
      "name": "directReferrals",
      "outputs": [
        {
          "internalType": "address",
          "name": "",
          "type": "address"
        }
      ],
      "stateMutability": "view",
      "type": "function"
    },
    {
      "inputs": [],
      "name": "directRewardPercent",
      "outputs": [
        {
          "internalType": "uint256",
          "name": "",
          "type": "uint256"
        }
      ],
      "stateMutability": "view",
      "type": "function"
    },
    {
      "inputs": [],
      "name": "emergencyPaused",
      "outputs": [
        {
          "internalType": "bool",
          "name": "",
          "type": "bool"
        }
      ],
      "stateMutability": "view",
      "type": "function"
    },
    {
      "inputs": [
        {
          "internalType": "address",
          "name": "user",
          "type": "address"
        }
      ],
      "name": "getDirectReferrals",
      "outputs": [
        {
          "internalType": "address[]",
          "name": "",
          "type": "address[]"
        }
      ],
      "stateMutability": "view",
      "type": "function"
    },
    {
      "inputs": [],
      "name": "getProductionConfig",
      "outputs": [
        {
          "internalType": "uint256",
          "name": "secondsInUnit",
          "type": "uint256"
        },
        {
          "internalType": "string",
          "name": "timeUnit",
          "type": "string"
        },
        {
          "internalType": "uint256[3]",
          "name": "supportedCycles",
          "type": "uint256[3]"
        },
        {
          "internalType": "uint256[3]",
          "name": "dailyRates",
          "type": "uint256[3]"
        }
      ],
      "stateMutability": "pure",
      "type": "function"
    },
    {
      "inputs": [
        {
          "internalType": "address",
          "name": "user",
          "type": "address"
        },
        {
          "internalType": "uint256",
          "name": "stakeIndex",
          "type": "uint256"
        }
      ],
      "name": "getStakeDetails",
      "outputs": [
        {
          "internalType": "uint256",
          "name": "amount",
          "type": "uint256"
        },
        {
          "internalType": "uint256",
          "name": "startTime",
          "type": "uint256"
        },
        {
          "internalType": "uint256",
          "name": "cycleDays",
          "type": "uint256"
        },
        {
          "internalType": "bool",
          "name": "active",
          "type": "bool"
        },
        {
          "internalType": "uint256",
          "name": "paid",
          "type": "uint256"
        },
        {
          "internalType": "uint256",
          "name": "daysRemaining",
          "type": "uint256"
        },
        {
          "internalType": "uint256",
          "name": "pendingRewards",
          "type": "uint256"
        },
        {
          "internalType": "uint256",
          "name": "dailyRate",
          "type": "uint256"
        }
      ],
      "stateMutability": "view",
      "type": "function"
    },
    {
      "inputs": [
        {
          "internalType": "address",
          "name": "user",
          "type": "address"
        }
      ],
      "name": "getUserLevel",
      "outputs": [
        {
          "internalType": "uint256",
          "name": "level",
          "type": "uint256"
        },
        {
          "internalType": "uint256",
          "name": "percent",
          "type": "uint256"
        },
        {
          "internalType": "uint256",
          "name": "teamCount",
          "type": "uint256"
        }
      ],
      "stateMutability": "view",
      "type": "function"
    },
    {
      "inputs": [
        {
          "internalType": "address",
          "name": "_mcToken",
          "type": "address"
        },
        {
          "internalType": "address",
          "name": "_jbcToken",
          "type": "address"
        },
        {
          "internalType": "address",
          "name": "_marketingWallet",
          "type": "address"
        },
        {
          "internalType": "address",
          "name": "_treasuryWallet",
          "type": "address"
        },
        {
          "internalType": "address",
          "name": "_lpInjectionWallet",
          "type": "address"
        },
        {
          "internalType": "address",
          "name": "_buybackWallet",
          "type": "address"
        }
      ],
      "name": "initialize",
      "outputs": [],
      "stateMutability": "nonpayable",
      "type": "function"
    },
    {
      "inputs": [],
      "name": "jbcToken",
      "outputs": [
        {
          "internalType": "contract IJBC",
          "name": "",
          "type": "address"
        }
      ],
      "stateMutability": "view",
      "type": "function"
    },
    {
      "inputs": [],
      "name": "lastBurnTime",
      "outputs": [
        {
          "internalType": "uint256",
          "name": "",
          "type": "uint256"
        }
      ],
      "stateMutability": "view",
      "type": "function"
    },
    {
      "inputs": [],
      "name": "levelRewardPercent",
      "outputs": [
        {
          "internalType": "uint256",
          "name": "",
          "type": "uint256"
        }
      ],
      "stateMutability": "view",
      "type": "function"
    },
    {
      "inputs": [],
      "name": "levelRewardPool",
      "outputs": [
        {
          "internalType": "uint256",
          "name": "",
          "type": "uint256"
        }
      ],
      "stateMutability": "view",
      "type": "function"
    },
    {
      "inputs": [],
      "name": "liquidityEnabled",
      "outputs": [
        {
          "internalType": "bool",
          "name": "",
          "type": "bool"
        }
      ],
      "stateMutability": "view",
      "type": "function"
    },
    {
      "inputs": [],
      "name": "lpInjectionPercent",
      "outputs": [
        {
          "internalType": "uint256",
          "name": "",
          "type": "uint256"
        }
      ],
      "stateMutability": "view",
      "type": "function"
    },
    {
      "inputs": [],
      "name": "lpInjectionWallet",
      "outputs": [
        {
          "internalType": "address",
          "name": "",
          "type": "address"
        }
      ],
      "stateMutability": "view",
      "type": "function"
    },
    {
      "inputs": [],
      "name": "marketingPercent",
      "outputs": [
        {
          "internalType": "uint256",
          "name": "",
          "type": "uint256"
        }
      ],
      "stateMutability": "view",
      "type": "function"
    },
    {
      "inputs": [],
      "name": "marketingWallet",
      "outputs": [
        {
          "internalType": "address",
          "name": "",
          "type": "address"
        }
      ],
      "stateMutability": "view",
      "type": "function"
    },
    {
      "inputs": [],
      "name": "mcToken",
      "outputs": [
        {
          "internalType": "contract IERC20",
          "name": "",
          "type": "address"
        }
      ],
      "stateMutability": "view",
      "type": "function"
    },
    {
      "inputs": [],
      "name": "nextStakeId",
      "outputs": [
        {
          "internalType": "uint256",
          "name": "",
          "type": "uint256"
        }
      ],
      "stateMutability": "view",
      "type": "function"
    },
    {
      "inputs": [],
      "name": "nextTicketId",
      "outputs": [
        {
          "internalType": "uint256",
          "name": "",
          "type": "uint256"
        }
      ],
      "stateMutability": "view",
      "type": "function"
    },
    {
      "inputs": [],
      "name": "owner",
      "outputs": [
        {
          "internalType": "address",
          "name": "",
          "type": "address"
        }
      ],
      "stateMutability": "view",
      "type": "function"
    },
    {
      "inputs": [],
      "name": "priceOracle",
      "outputs": [
        {
          "internalType": "address",
          "name": "",
          "type": "address"
        }
      ],
      "stateMutability": "view",
      "type": "function"
    },
    {
      "inputs": [],
      "name": "proxiableUUID",
      "outputs": [
        {
          "internalType": "bytes32",
          "name": "",
          "type": "bytes32"
        }
      ],
      "stateMutability": "view",
      "type": "function"
    },
    {
      "inputs": [],
      "name": "redeemEnabled",
      "outputs": [
        {
          "internalType": "bool",
          "name": "",
          "type": "bool"
        }
      ],
      "stateMutability": "view",
      "type": "function"
    },
    {
      "inputs": [],
      "name": "redemptionFeePercent",
      "outputs": [
        {
          "internalType": "uint256",
          "name": "",
          "type": "uint256"
        }
      ],
      "stateMutability": "view",
      "type": "function"
    },
    {
      "inputs": [],
      "name": "renounceOwnership",
      "outputs": [],
      "stateMutability": "nonpayable",
      "type": "function"
    },
    {
      "inputs": [
        {
          "internalType": "uint256",
          "name": "amount",
          "type": "uint256"
        },
        {
          "internalType": "uint256",
          "name": "cycleDays",
          "type": "uint256"
        }
      ],
      "name": "stakeLiquidity",
      "outputs": [],
      "stateMutability": "nonpayable",
      "type": "function"
    },
    {
      "inputs": [
        {
          "internalType": "uint256",
          "name": "",
          "type": "uint256"
        }
      ],
      "name": "stakeOwner",
      "outputs": [
        {
          "internalType": "address",
          "name": "",
          "type": "address"
        }
      ],
      "stateMutability": "view",
      "type": "function"
    },
    {
      "inputs": [
        {
          "internalType": "uint256",
          "name": "",
          "type": "uint256"
        },
        {
          "internalType": "uint256",
          "name": "",
          "type": "uint256"
        }
      ],
      "name": "stakePendingRewards",
      "outputs": [
        {
          "internalType": "address",
          "name": "upline",
          "type": "address"
        },
        {
          "internalType": "uint256",
          "name": "amount",
          "type": "uint256"
        }
      ],
      "stateMutability": "view",
      "type": "function"
    },
    {
      "inputs": [],
      "name": "swapBuyTax",
      "outputs": [
        {
          "internalType": "uint256",
          "name": "",
          "type": "uint256"
        }
      ],
      "stateMutability": "view",
      "type": "function"
    },
    {
      "inputs": [],
      "name": "swapReserveJBC",
      "outputs": [
        {
          "internalType": "uint256",
          "name": "",
          "type": "uint256"
        }
      ],
      "stateMutability": "view",
      "type": "function"
    },
    {
      "inputs": [],
      "name": "swapReserveMC",
      "outputs": [
        {
          "internalType": "uint256",
          "name": "",
          "type": "uint256"
        }
      ],
      "stateMutability": "view",
      "type": "function"
    },
    {
      "inputs": [],
      "name": "swapSellTax",
      "outputs": [
        {
          "internalType": "uint256",
          "name": "",
          "type": "uint256"
        }
      ],
      "stateMutability": "view",
      "type": "function"
    },
    {
      "inputs": [],
      "name": "ticketFlexibilityDuration",
      "outputs": [
        {
          "internalType": "uint256",
          "name": "",
          "type": "uint256"
        }
      ],
      "stateMutability": "view",
      "type": "function"
    },
    {
      "inputs": [
        {
          "internalType": "uint256",
          "name": "",
          "type": "uint256"
        }
      ],
      "name": "ticketOwner",
      "outputs": [
        {
          "internalType": "address",
          "name": "",
          "type": "address"
        }
      ],
      "stateMutability": "view",
      "type": "function"
    },
    {
      "inputs": [
        {
          "internalType": "uint256",
          "name": "",
          "type": "uint256"
        },
        {
          "internalType": "uint256",
          "name": "",
          "type": "uint256"
        }
      ],
      "name": "ticketPendingRewards",
      "outputs": [
        {
          "internalType": "address",
          "name": "upline",
          "type": "address"
        },
        {
          "internalType": "uint256",
          "name": "amount",
          "type": "uint256"
        }
      ],
      "stateMutability": "view",
      "type": "function"
    },
    {
      "inputs": [
        {
          "internalType": "address",
          "name": "newOwner",
          "type": "address"
        }
      ],
      "name": "transferOwnership",
      "outputs": [],
      "stateMutability": "nonpayable",
      "type": "function"
    },
    {
      "inputs": [],
      "name": "treasuryPercent",
      "outputs": [
        {
          "internalType": "uint256",
          "name": "",
          "type": "uint256"
        }
      ],
      "stateMutability": "view",
      "type": "function"
    },
    {
      "inputs": [],
      "name": "treasuryWallet",
      "outputs": [
        {
          "internalType": "address",
          "name": "",
          "type": "address"
        }
      ],
      "stateMutability": "view",
      "type": "function"
    },
    {
      "inputs": [
        {
          "internalType": "address",
          "name": "newImplementation",
          "type": "address"
        },
        {
          "internalType": "bytes",
          "name": "data",
          "type": "bytes"
        }
      ],
      "name": "upgradeToAndCall",
      "outputs": [],
      "stateMutability": "payable",
      "type": "function"
    },
    {
      "inputs": [
        {
          "internalType": "address",
          "name": "",
          "type": "address"
        }
      ],
      "name": "userInfo",
      "outputs": [
        {
          "internalType": "address",
          "name": "referrer",
          "type": "address"
        },
        {
          "internalType": "uint256",
          "name": "activeDirects",
          "type": "uint256"
        },
        {
          "internalType": "uint256",
          "name": "teamCount",
          "type": "uint256"
        },
        {
          "internalType": "uint256",
          "name": "totalRevenue",
          "type": "uint256"
        },
        {
          "internalType": "uint256",
          "name": "currentCap",
          "type": "uint256"
        },
        {
          "internalType": "bool",
          "name": "isActive",
          "type": "bool"
        },
        {
          "internalType": "uint256",
          "name": "refundFeeAmount",
          "type": "uint256"
        },
        {
          "internalType": "uint256",
          "name": "teamTotalVolume",
          "type": "uint256"
        },
        {
          "internalType": "uint256",
          "name": "teamTotalCap",
          "type": "uint256"
        },
        {
          "internalType": "uint256",
          "name": "maxTicketAmount",
          "type": "uint256"
        },
        {
          "internalType": "uint256",
          "name": "maxSingleTicketAmount",
          "type": "uint256"
        }
      ],
      "stateMutability": "view",
      "type": "function"
    },
    {
      "inputs": [
        {
          "internalType": "address",
          "name": "",
          "type": "address"
        },
        {
          "internalType": "uint256",
          "name": "",
          "type": "uint256"
        }
      ],
      "name": "userStakes",
      "outputs": [
        {
          "internalType": "uint256",
          "name": "id",
          "type": "uint256"
        },
        {
          "internalType": "uint256",
          "name": "amount",
          "type": "uint256"
        },
        {
          "internalType": "uint256",
          "name": "startTime",
          "type": "uint256"
        },
        {
          "internalType": "uint256",
          "name": "cycleDays",
          "type": "uint256"
        },
        {
          "internalType": "bool",
          "name": "active",
          "type": "bool"
        },
        {
          "internalType": "uint256",
          "name": "paid",
          "type": "uint256"
        }
      ],
      "stateMutability": "view",
      "type": "function"
    },
    {
      "inputs": [
        {
          "internalType": "address",
          "name": "",
          "type": "address"
        }
      ],
      "name": "userTicket",
      "outputs": [
        {
          "internalType": "uint256",
          "name": "ticketId",
          "type": "uint256"
        },
        {
          "internalType": "uint256",
          "name": "amount",
          "type": "uint256"
        },
        {
          "internalType": "uint256",
          "name": "purchaseTime",
          "type": "uint256"
        },
        {
          "internalType": "bool",
          "name": "exited",
          "type": "bool"
        }
      ],
      "stateMutability": "view",
      "type": "function"
    }
  ],
  "bytecode": "0x60a0806040523461002a5730608052611c7090816100308239608051818181610d100152610ea30152f35b600080fdfe60806040908082526004918236101561001757600080fd5b600092833560e01c92836304ef9d58146118395750826305ad3935146117e65782630e2be210146117ca5782630f0a4fef146116255782631427f6161461160a5782631788513c146115e15782631959a002146115305782631d0dac761461151157826321923bde146114b357826321b77d631461148f5782632630c12f1461146257826327c830a91461143e57826327f082f41461141f5782633dbd46bd146113eb5782634626402b146113c2578263488b5d97146113a45782634ea4c6b3146110665782634f1ef28614610e2957826350f6a79a14610d6257826352d1902d14610cfb5782636031a52f14610cdc5782636839b5fa14610cbf5782636dd6682714610ca0578263715018a614610c3657826375506c9614610c1757826375f0a87414610bee57826377a2a54014610bcf578263813380cd14610ba15782638710bcaa14610b4257826388481b6114610b2657826388fd4d3314610afd5782638a859a8514610ae15782638c0eaa4814610ac55782638da5cb5b14610a8f5782639370b08014610a7057826394c4da52146108d157826395253992146108a9578263ac8f50aa14610852578263ad3cb1cc14610809578263b048a4bb146107e5578263b5d5b5fa1461075b578263b759936b1461073c578263bd594dcf1461071d578263c2ff12fc146106e9578263cc2a9a5b146104a3578263ccf6194414610484578263ceaa366d14610465578263d2c8e0e5146103b7578263d2f8253614610390578263d8020a1814610371578263dce3dc1f1461034857508163deab8aea1461031f578163dec7fa3b14610300578163e3067449146102e1578163e4412f68146102be575063f2fde38b1461028f57600080fd5b346102bb5760203660031901126102bb576102b86102ab611855565b6102b3611b1d565b6119fa565b80f35b80fd5b9050346102dd57816003193601126102dd576020906009549051908152f35b5080fd5b9050346102dd57816003193601126102dd57602090601a549051908152f35b9050346102dd57816003193601126102dd57602090600c549051908152f35b9050346102dd57816003193601126102dd5760055490516001600160a01b039091168152602090f35b83346102bb5760203660031901126102bb57506103659035611a6e565b82519182526020820152f35b8382346102dd57816003193601126102dd576020906008549051908152f35b8382346102dd57816003193601126102dd5760209060ff60155460081c1690519015158152f35b8382346102dd57602080600319360112610461576001600160a01b0392836103dd611855565b1681526012825282812091835190818185549182815201908195855282852090855b81811061044b57505050826104159103836118d2565b8451948186019282875251809352850193925b8281106104355785850386f35b8351871685529381019392810192600101610428565b82548a16845292840192600192830192016103ff565b8280fd5b8382346102dd57816003193601126102dd57602090600a549051908152f35b8382346102dd57816003193601126102dd576020906006549051908152f35b909150346104615760c0366003190112610461576104bf611855565b906001600160a01b0360243581811692908390036106e557604435938285168095036106e157606435918383168093036106dd576084358481168091036106d95760a435938585168095036106d5577ff0c57e16840df040f15088dc2f81fe391c3923bec73e23a9662efc9c229c6a009788549760ff898c1c1615976001600160401b038a16998a15806106ce575b6001809c1490816106c4575b1590816106bb575b506106ab5767ffffffffffffffff1981168b178c558961068c575b50610586611b56565b61058e611b56565b610597336119fa565b61059f611b56565b6105a7611b56565b6105af611b56565b897f9b779b17422d0df92223018b32b4d1fa46e071723d6817e2486d003becc55f005560018060a01b03199616868d5416178c55858954161788558460025416176002558360035416176003558282541617905560055416176005556103e86006556101f48060075561012c8060085560c8600955600a5560c8600b55600c5561010161ffff196015541617601555816018558160195561064e578380f35b815460ff60401b191690915590519081527fc7f505b2f371ae2175ee4913f4499e1f2633a7b5936321eed1cdaeb6115181d290602090a13880808380f35b68ffffffffffffffffff191668010000000000000001178b553861057d565b8c5163f92ee8a960e01b81528790fd5b90501538610562565b303b15915061055a565b508961054e565b8980fd5b8880fd5b8780fd5b8680fd5b8580fd5b9091503461046157602036600319011261046157358252601b6020908152918190205490516001600160a01b039091168152f35b8382346102dd57816003193601126102dd576020906007549051908152f35b8382346102dd57816003193601126102dd57602090601e549051908152f35b915034610461578060031936011261046157610775611855565b6001600160a01b031683526011602052808320805460243594908510156102bb575060c0936107a3916119a8565b50805492600182015492600283015490600560ff60038601549486015416940154948151968752602087015285015260608401521515608083015260a0820152f35b8382346102dd57816003193601126102dd5760209060ff6015541690519015158152f35b8382346102dd57816003193601126102dd57805161084e9161082a826118b7565b60058252640352e302e360dc1b60208301525191829160208352602083019061190e565b0390f35b8382346102dd5761086236611870565b908352601c60205281832080548210156108a5579061088091611976565b50805460019091015491516001600160a01b0390911681526020810191909152604090f35b8380fd5b8382346102dd57816003193601126102dd57905490516001600160a01b039091168152602090f35b8382346102dd5760203660031901126102dd576001600160a01b036108f4611855565b168252601160208190528183208054918491825b848110610919576020878751908152f35b60ff8861092683856119a8565b5001541615610a68578361093a82846119a8565b5090600760038093015414600014610a29575062cb73565b6201518061096e600261096586886119a8565b500154426119c4565b04918061097b85876119a8565b5001548311610a12575b508115610a0857633b9aca00916109ad6109b29260016109a587896119a8565b5001546119e7565b6119e7565b0460056109bf83856119a8565b500154908181116109d7575b50506001905b01610908565b906109e4919892986119c4565b81018091116109f657956001896109cb565b634e487b7160e01b8452828852602484fd5b50506001906109d1565b909150610a1f83856119a8565b500154908a610985565b600f82610a3685876119a8565b50015403610a48575062fe502b610952565b601e82610a5585876119a8565b5001540361095257506301312d00610952565b6001906109d1565b8382346102dd57816003193601126102dd57602090600e549051908152f35b8382346102dd57816003193601126102dd57600080516020611bfb8339815191525490516001600160a01b039091168152602090f35b8382346102dd57816003193601126102dd576020905160038152f35b8382346102dd57816003193601126102dd576020905160018152f35b909150346104615782600319360112610461575490516001600160a01b03909116815260209150f35b9150346104615782600319360112610461576020925051908152f35b8382346102dd5760203660031901126102dd5760809181906001600160a01b03610b6a611855565b1681526010602052209081549160018101549160ff6003600284015493015416928151948552602085015283015215156060820152f35b8382346102dd57610bb136611870565b908352601360205281832080548210156108a5579061088091611976565b8382346102dd57816003193601126102dd576020906016549051908152f35b8382346102dd57816003193601126102dd5760025490516001600160a01b039091168152602090f35b8382346102dd57816003193601126102dd576020906019549051908152f35b83346102bb57806003193601126102bb57610c4f611b1d565b600080516020611bfb83398151915280546001600160a01b0319811690915581906001600160a01b03167f8be0079c531659141344cd1fd0a4f28419497f9722a3daafe3b4186f6b6457e08280a380f35b8382346102dd57816003193601126102dd576020906014549051908152f35b8382346102dd57816003193601126102dd57602090516103e88152f35b8382346102dd57816003193601126102dd576020906018549051908152f35b9083346102bb57806003193601126102bb57507f00000000000000000000000000000000000000000000000000000000000000006001600160a01b03163003610d555760209051600080516020611c1b8339815191528152f35b5163703e46dd60e11b8152fd5b915034610461578260031936011261046157610e16925060608151610d8681611886565b36903760608151610d9681611886565b36903761084e8151610da781611886565b60078152600f6020820152601e83820152610e1f835191610dc783611886565b62cb7356835262fe502b60208401526301312d0085840152845195610deb876118b7565b8652636461797360e01b602087015284519687966101006201518089528060208a015288019061190e565b9486019061194e565b60a084019061194e565b91508060031936011261046157610e3e611855565b9060249384356001600160401b0381116102dd57366023820112156102dd5780850135610e6a816118f3565b94610e77855196876118d2565b81865260209182870193368a83830101116106e5578186928b8693018737880101526001600160a01b037f0000000000000000000000000000000000000000000000000000000000000000811630811490811561104a575b5061103a57610edc611b1d565b81169585516352d1902d60e01b815283818a818b5afa86918161100b575b50610f16575050505050505191634c9c8ce360e01b8352820152fd5b9088888894938c600080516020611c1b83398151915291828103610ff65750853b15610fe2575080546001600160a01b031916821790558451889392917fbc7cd75a20ee27fd9adebab32041f755214dbc6bffa90cc0225b39da2e5c2d3b8580a2825115610fc4575050610fb69582915190845af4913d15610fba573d610fa8610f9f826118f3565b925192836118d2565b81528581943d92013e611b97565b5080f35b5060609250611b97565b955095505050505034610fd657505080f35b63b398979f60e01b8152fd5b8651634c9c8ce360e01b8152808501849052fd5b8751632a87526960e21b815280860191909152fd5b9091508481813d8311611033575b61102381836118d2565b810103126106e157519038610efa565b503d611019565b855163703e46dd60e11b81528890fd5b905081600080516020611c1b8339815191525416141538610ecf565b909150346104615761107736611870565b917f9b779b17422d0df92223018b32b4d1fa46e071723d6817e2486d003becc55f00926002845414611395576002845560ff601554161561135d5733865260209460108652808720956001968781015415611327576003015460ff166112f5576007831480156112eb575b80156112e1575b1561128e57841561125b57338852601181528188206019549083519160c083018381106001600160401b0382111761124857908b929186528352838301888152858401428152606085019188835260808601938d855260a08701958652805490600160401b8210156112345790611164918f820181556119a8565b96909661122257518655518c86015551600285015551600384015551868301805460ff191691151560ff1691909117905551600590910155601980548952601d9091528188208054336001600160a01b03199091161790555492600019841461120f5786840180601955841161120f5750519283526020830152604082015233907fa8a1b9e33e503eed12bf7e7c8c01c7f3b60217a496bddd0f5db351dd8c056c1c90606090a25580f35b634e487b7160e01b885260119052602487fd5b634e487b7160e01b8f528e8b5260248ffd5b50634e487b7160e01b8f5260418b5260248ffd5b634e487b7160e01b8c526041885260248cfd5b8390606492519162461bcd60e51b8352820152600e60248201526d125b9d985b1a5908185b5bdd5b9d60921b6044820152fd5b8390608492519162461bcd60e51b8352820152602860248201527f496e76616c6964206379636c653a206d75737420626520372c2031352c206f72604482015267203330206461797360c01b6064820152fd5b50601e83146110e9565b50600f83146110e2565b8390606492519162461bcd60e51b8352820152600d60248201526c151a58dad95d08195e1a5d1959609a1b6044820152fd5b825162461bcd60e51b8152808601839052601060248201526f139bc81858dd1a5d99481d1a58dad95d60821b6044820152606490fd5b845162461bcd60e51b81526020818401526012602482015271131a5c5d5a591a5d1e48191a5cd8589b195960721b6044820152606490fd5b508351633ee5aeb560e01b8152fd5b8382346102dd57816003193601126102dd5760209051620151808152f35b8382346102dd57816003193601126102dd5760035490516001600160a01b039091168152602090f35b9091503461046157602036600319011261046157358252601d6020908152918190205490516001600160a01b039091168152f35b8382346102dd57816003193601126102dd57602090600d549051908152f35b8382346102dd57816003193601126102dd5760209060ff604e541690519015158152f35b8382346102dd57816003193601126102dd57604e54905160089190911c6001600160a01b03168152602090f35b8382346102dd57816003193601126102dd5760209051683635c9adc5dea000008152f35b5082346102bb5760203660031901126102bb5760029082906001600160a01b036114db611855565b168152600f6020522001549061084e6114f383611a6e565b93909251938493846040919493926060820195825260208201520152565b8382346102dd57816003193601126102dd576020906017549051908152f35b9091503461046157602036600319011261046157610160926001600160a01b039083908261155c611855565b168152600f60205220908154169260018201549260028301549060038401549084015460ff60058601541690600686015492600787015494600888015496600a60098a01549901549981519b8c5260208c01528a015260608901526080880152151560a087015260c086015260e0850152610100840152610120830152610140820152f35b8382346102dd57816003193601126102dd5760015490516001600160a01b039091168152602090f35b8382346102dd57816003193601126102dd5751908152602090f35b83346102bb57826003193601126102bb5761163e611855565b6001600160a01b0316808252601160205283822054602435919082101561179157610100949161167791845260116020528284206119a8565b50906002820154926201518061168d85426119c4565b0493819260038501549081871061177f575b8360078303611737575060ff6116dc98633b9aca0062cb73569a8b9a5b6116cb60018c01549d8e6119e7565b9087811115611731575086906119e7565b049560058901548097818111600014611729576116f992506119c4565b975b015416928151988952602089015287015215156060860152608085015260a084015260c083015260e0820152f35b5050976116fb565b906119e7565b600f8303611757575060ff6116dc98633b9aca0062fe502b9a8b9a6116bc565b96601e8314611773575b8798633b9aca006116dc60ff936116bc565b6301312d009750611761565b935061178b86826119c4565b9361169f565b845162461bcd60e51b81526020818601526013602482015272092dcecc2d8d2c840e6e8c2d6ca40d2dcc8caf606b1b6044820152606490fd5b8382346102dd57816003193601126102dd576020905160028152f35b8382346102dd57806003193601126102dd57611800611855565b6001600160a01b0390811683526012602052818320805460243591908210156118355784526020938490200154915191168152f35b8480fd5b8490346102dd57816003193601126102dd57602090600b548152f35b600435906001600160a01b038216820361186b57565b600080fd5b604090600319011261186b576004359060243590565b606081019081106001600160401b038211176118a157604052565b634e487b7160e01b600052604160045260246000fd5b604081019081106001600160401b038211176118a157604052565b90601f801991011681019081106001600160401b038211176118a157604052565b6001600160401b0381116118a157601f01601f191660200190565b919082519283825260005b84811061193a575050826000602080949584010152601f8019910116010190565b602081830181015184830182015201611919565b6000915b6003831061195f57505050565b600190825181526020809101920192019190611952565b80548210156119925760005260206000209060011b0190600090565b634e487b7160e01b600052603260045260246000fd5b8054821015611992576000526006602060002091020190600090565b919082039182116119d157565b634e487b7160e01b600052601160045260246000fd5b818102929181159184041417156119d157565b6001600160a01b03908116908115611a5557600080516020611bfb83398151915280546001600160a01b031981168417909155167f8be0079c531659141344cd1fd0a4f28419497f9722a3daafe3b4186f6b6457e0600080a3565b604051631e4fbdf760e01b815260006004820152602490fd5b620186a0811015611b1457617530811015611b0b57612710811015611b0257610bb8811015611af9576103e8811015611af05761012c811015611ae7576064811015611ade57601e811015611ad557600a1115611acd57600090600090565b600190600590565b50600290600a90565b50600390600f90565b50600490601490565b50600590601990565b50600690601e90565b50600790602390565b50600890602890565b50600990602d90565b600080516020611bfb833981519152546001600160a01b03163303611b3e57565b60405163118cdaa760e01b8152336004820152602490fd5b60ff7ff0c57e16840df040f15088dc2f81fe391c3923bec73e23a9662efc9c229c6a005460401c1615611b8557565b604051631afcd79f60e31b8152600490fd5b90611bbe5750805115611bac57602081519101fd5b60405163d6bda27560e01b8152600490fd5b81511580611bf1575b611bcf575090565b604051639996b31560e01b81526001600160a01b039091166004820152602490fd5b50803b15611bc756fe9016d09d72d40fdae2fd8ceac6b6234c7706214fd39c1cd1e609a0528c199300360894a13ba1a3210667c828492db98dca3e2076cc3735a920a3ca505d382bbca26469706673582212207d58863b3d1e7472e840c3b9dcfed59e1b11bc607e86ab03e9afeb9f39aa55a564736f6c63430008160033",
  "linkReferences": {},
  "deployedLinkReferences": {}
}