{
  "_format": "hh-sol-artifact-1",
  "contractName": "JinbaoProtocolProduction",
  "sourceName": "contracts/JinbaoProtocolProduction.sol",
  "abi": [
    {
      "inputs": [
        {
          "internalType": "address",
          "name": "target",
          "type": "address"
        }
      ],
      "name": "AddressEmptyCode",
      "type": "error"
    },
    {
      "inputs": [
        {
          "internalType": "address",
          "name": "implementation",
          "type": "address"
        }
      ],
      "name": "ERC1967InvalidImplementation",
      "type": "error"
    },
    {
      "inputs": [],
      "name": "ERC1967NonPayable",
      "type": "error"
    },
    {
      "inputs": [],
      "name": "FailedCall",
      "type": "error"
    },
    {
      "inputs": [],
      "name": "InvalidInitialization",
      "type": "error"
    },
    {
      "inputs": [],
      "name": "NotInitializing",
      "type": "error"
    },
    {
      "inputs": [
        {
          "internalType": "address",
          "name": "owner",
          "type": "address"
        }
      ],
      "name": "OwnableInvalidOwner",
      "type": "error"
    },
    {
      "inputs": [
        {
          "internalType": "address",
          "name": "account",
          "type": "address"
        }
      ],
      "name": "OwnableUnauthorizedAccount",
      "type": "error"
    },
    {
      "inputs": [],
      "name": "ReentrancyGuardReentrantCall",
      "type": "error"
    },
    {
      "inputs": [],
      "name": "UUPSUnauthorizedCallContext",
      "type": "error"
    },
    {
      "inputs": [
        {
          "internalType": "bytes32",
          "name": "slot",
          "type": "bytes32"
        }
      ],
      "name": "UUPSUnsupportedProxiableUUID",
      "type": "error"
    },
    {
      "anonymous": false,
      "inputs": [
        {
          "indexed": true,
          "internalType": "address",
          "name": "user",
          "type": "address"
        },
        {
          "indexed": true,
          "internalType": "address",
          "name": "referrer",
          "type": "address"
        }
      ],
      "name": "BoundReferrer",
      "type": "event"
    },
    {
      "anonymous": false,
      "inputs": [
        {
          "indexed": true,
          "internalType": "uint256",
          "name": "stakeId",
          "type": "uint256"
        },
        {
          "indexed": true,
          "internalType": "address",
          "name": "upline",
          "type": "address"
        },
        {
          "indexed": false,
          "internalType": "uint256",
          "name": "amount",
          "type": "uint256"
        }
      ],
      "name": "DifferentialRewardRecorded",
      "type": "event"
    },
    {
      "anonymous": false,
      "inputs": [
        {
          "indexed": true,
          "internalType": "uint256",
          "name": "stakeId",
          "type": "uint256"
        },
        {
          "indexed": true,
          "internalType": "address",
          "name": "upline",
          "type": "address"
        },
        {
          "indexed": false,
          "internalType": "uint256",
          "name": "amount",
          "type": "uint256"
        }
      ],
      "name": "DifferentialRewardReleased",
      "type": "event"
    },
    {
      "anonymous": false,
      "inputs": [
        {
          "indexed": false,
          "internalType": "uint64",
          "name": "version",
          "type": "uint64"
        }
      ],
      "name": "Initialized",
      "type": "event"
    },
    {
      "anonymous": false,
      "inputs": [
        {
          "indexed": true,
          "internalType": "address",
          "name": "user",
          "type": "address"
        },
        {
          "indexed": false,
          "internalType": "uint256",
          "name": "amount",
          "type": "uint256"
        },
        {
          "indexed": false,
          "internalType": "uint256",
          "name": "cycleDays",
          "type": "uint256"
        },
        {
          "indexed": false,
          "internalType": "uint256",
          "name": "stakeId",
          "type": "uint256"
        }
      ],
      "name": "LiquidityStaked",
      "type": "event"
    },
    {
      "anonymous": false,
      "inputs": [
        {
          "indexed": true,
          "internalType": "address",
          "name": "previousOwner",
          "type": "address"
        },
        {
          "indexed": true,
          "internalType": "address",
          "name": "newOwner",
          "type": "address"
        }
      ],
      "name": "OwnershipTransferred",
      "type": "event"
    },
    {
      "anonymous": false,
      "inputs": [
        {
          "indexed": true,
          "internalType": "address",
          "name": "user",
          "type": "address"
        },
        {
          "indexed": true,
          "internalType": "address",
          "name": "from",
          "type": "address"
        },
        {
          "indexed": false,
          "internalType": "uint256",
          "name": "mcAmount",
          "type": "uint256"
        },
        {
          "indexed": false,
          "internalType": "uint8",
          "name": "rewardType",
          "type": "uint8"
        },
        {
          "indexed": false,
          "internalType": "uint256",
          "name": "ticketId",
          "type": "uint256"
        }
      ],
      "name": "ReferralRewardPaid",
      "type": "event"
    },
    {
      "anonymous": false,
      "inputs": [
        {
          "indexed": true,
          "internalType": "address",
          "name": "user",
          "type": "address"
        },
        {
          "indexed": false,
          "internalType": "uint256",
          "name": "mcAmount",
          "type": "uint256"
        },
        {
          "indexed": false,
          "internalType": "uint256",
          "name": "jbcAmount",
          "type": "uint256"
        },
        {
          "indexed": false,
          "internalType": "uint8",
          "name": "rewardType",
          "type": "uint8"
        },
        {
          "indexed": false,
          "internalType": "uint256",
          "name": "ticketId",
          "type": "uint256"
        }
      ],
      "name": "RewardClaimed",
      "type": "event"
    },
    {
      "anonymous": false,
      "inputs": [
        {
          "indexed": true,
          "internalType": "address",
          "name": "user",
          "type": "address"
        },
        {
          "indexed": false,
          "internalType": "uint256",
          "name": "amount",
          "type": "uint256"
        },
        {
          "indexed": false,
          "internalType": "uint8",
          "name": "rewardType",
          "type": "uint8"
        }
      ],
      "name": "RewardPaid",
      "type": "event"
    },
    {
      "anonymous": false,
      "inputs": [
        {
          "indexed": true,
          "internalType": "address",
          "name": "user",
          "type": "address"
        },
        {
          "indexed": false,
          "internalType": "uint256",
          "name": "oldCount",
          "type": "uint256"
        },
        {
          "indexed": false,
          "internalType": "uint256",
          "name": "newCount",
          "type": "uint256"
        }
      ],
      "name": "TeamCountUpdated",
      "type": "event"
    },
    {
      "anonymous": false,
      "inputs": [
        {
          "indexed": true,
          "internalType": "address",
          "name": "user",
          "type": "address"
        },
        {
          "indexed": false,
          "internalType": "uint256",
          "name": "amount",
          "type": "uint256"
        },
        {
          "indexed": false,
          "internalType": "uint256",
          "name": "ticketId",
          "type": "uint256"
        }
      ],
      "name": "TicketPurchased",
      "type": "event"
    },
    {
      "anonymous": false,
      "inputs": [
        {
          "indexed": true,
          "internalType": "address",
          "name": "implementation",
          "type": "address"
        }
      ],
      "name": "Upgraded",
      "type": "event"
    },
    {
      "anonymous": false,
      "inputs": [
        {
          "indexed": true,
          "internalType": "address",
          "name": "user",
          "type": "address"
        },
        {
          "indexed": false,
          "internalType": "uint256",
          "name": "oldLevel",
          "type": "uint256"
        },
        {
          "indexed": false,
          "internalType": "uint256",
          "name": "newLevel",
          "type": "uint256"
        },
        {
          "indexed": false,
          "internalType": "uint256",
          "name": "teamCount",
          "type": "uint256"
        }
      ],
      "name": "UserLevelChanged",
      "type": "event"
    },
    {
      "inputs": [],
      "name": "MAX_PRICE_IMPACT",
      "outputs": [
        {
          "internalType": "uint256",
          "name": "",
          "type": "uint256"
        }
      ],
      "stateMutability": "view",
      "type": "function"
    },
    {
      "inputs": [],
      "name": "MIN_LIQUIDITY",
      "outputs": [
        {
          "internalType": "uint256",
          "name": "",
          "type": "uint256"
        }
      ],
      "stateMutability": "view",
      "type": "function"
    },
    {
      "inputs": [],
      "name": "REWARD_DIFFERENTIAL",
      "outputs": [
        {
          "internalType": "uint8",
          "name": "",
          "type": "uint8"
        }
      ],
      "stateMutability": "view",
      "type": "function"
    },
    {
      "inputs": [],
      "name": "REWARD_DIRECT",
      "outputs": [
        {
          "internalType": "uint8",
          "name": "",
          "type": "uint8"
        }
      ],
      "stateMutability": "view",
      "type": "function"
    },
    {
      "inputs": [],
      "name": "REWARD_DYNAMIC",
      "outputs": [
        {
          "internalType": "uint8",
          "name": "",
          "type": "uint8"
        }
      ],
      "stateMutability": "view",
      "type": "function"
    },
    {
      "inputs": [],
      "name": "REWARD_LEVEL",
      "outputs": [
        {
          "internalType": "uint8",
          "name": "",
          "type": "uint8"
        }
      ],
      "stateMutability": "view",
      "type": "function"
    },
    {
      "inputs": [],
      "name": "REWARD_STATIC",
      "outputs": [
        {
          "internalType": "uint8",
          "name": "",
          "type": "uint8"
        }
      ],
      "stateMutability": "view",
      "type": "function"
    },
    {
      "inputs": [],
      "name": "SECONDS_IN_UNIT",
      "outputs": [
        {
          "internalType": "uint256",
          "name": "",
          "type": "uint256"
        }
      ],
      "stateMutability": "view",
      "type": "function"
    },
    {
      "inputs": [],
      "name": "UPGRADE_INTERFACE_VERSION",
      "outputs": [
        {
          "internalType": "string",
          "name": "",
          "type": "string"
        }
      ],
      "stateMutability": "view",
      "type": "function"
    },
    {
      "inputs": [],
      "name": "buybackPercent",
      "outputs": [
        {
          "internalType": "uint256",
          "name": "",
          "type": "uint256"
        }
      ],
      "stateMutability": "view",
      "type": "function"
    },
    {
      "inputs": [],
      "name": "buybackWallet",
      "outputs": [
        {
          "internalType": "address",
          "name": "",
          "type": "address"
        }
      ],
      "stateMutability": "view",
      "type": "function"
    },
    {
      "inputs": [
        {
          "internalType": "uint256",
          "name": "teamCount",
          "type": "uint256"
        }
      ],
      "name": "calculateLevel",
      "outputs": [
        {
          "internalType": "uint256",
          "name": "level",
          "type": "uint256"
        },
        {
          "internalType": "uint256",
          "name": "percent",
          "type": "uint256"
        }
      ],
      "stateMutability": "pure",
      "type": "function"
    },
    {
      "inputs": [
        {
          "internalType": "address",
          "name": "user",
          "type": "address"
        }
      ],
      "name": "calculateStakeRewards",
      "outputs": [
        {
          "internalType": "uint256",
          "name": "",
          "type": "uint256"
        }
      ],
      "stateMutability": "view",
      "type": "function"
    },
    {
      "inputs": [
        {
          "internalType": "address",
          "name": "",
          "type": "address"
        },
        {
          "internalType": "uint256",
          "name": "",
          "type": "uint256"
        }
      ],
      "name": "directReferrals",
      "outputs": [
        {
          "internalType": "address",
          "name": "",
          "type": "address"
        }
      ],
      "stateMutability": "view",
      "type": "function"
    },
    {
      "inputs": [],
      "name": "directRewardPercent",
      "outputs": [
        {
          "internalType": "uint256",
          "name": "",
          "type": "uint256"
        }
      ],
      "stateMutability": "view",
      "type": "function"
    },
    {
      "inputs": [],
      "name": "emergencyPaused",
      "outputs": [
        {
          "internalType": "bool",
          "name": "",
          "type": "bool"
        }
      ],
      "stateMutability": "view",
      "type": "function"
    },
    {
      "inputs": [
        {
          "internalType": "address",
          "name": "user",
          "type": "address"
        }
      ],
      "name": "getDirectReferrals",
      "outputs": [
        {
          "internalType": "address[]",
          "name": "",
          "type": "address[]"
        }
      ],
      "stateMutability": "view",
      "type": "function"
    },
    {
      "inputs": [],
      "name": "getProductionConfig",
      "outputs": [
        {
          "internalType": "uint256",
          "name": "secondsInUnit",
          "type": "uint256"
        },
        {
          "internalType": "string",
          "name": "timeUnit",
          "type": "string"
        },
        {
          "internalType": "uint256[3]",
          "name": "supportedCycles",
          "type": "uint256[3]"
        },
        {
          "internalType": "uint256[3]",
          "name": "dailyRates",
          "type": "uint256[3]"
        }
      ],
      "stateMutability": "pure",
      "type": "function"
    },
    {
      "inputs": [
        {
          "internalType": "address",
          "name": "user",
          "type": "address"
        },
        {
          "internalType": "uint256",
          "name": "stakeIndex",
          "type": "uint256"
        }
      ],
      "name": "getStakeDetails",
      "outputs": [
        {
          "internalType": "uint256",
          "name": "amount",
          "type": "uint256"
        },
        {
          "internalType": "uint256",
          "name": "startTime",
          "type": "uint256"
        },
        {
          "internalType": "uint256",
          "name": "cycleDays",
          "type": "uint256"
        },
        {
          "internalType": "bool",
          "name": "active",
          "type": "bool"
        },
        {
          "internalType": "uint256",
          "name": "paid",
          "type": "uint256"
        },
        {
          "internalType": "uint256",
          "name": "daysRemaining",
          "type": "uint256"
        },
        {
          "internalType": "uint256",
          "name": "pendingRewards",
          "type": "uint256"
        },
        {
          "internalType": "uint256",
          "name": "dailyRate",
          "type": "uint256"
        }
      ],
      "stateMutability": "view",
      "type": "function"
    },
    {
      "inputs": [
        {
          "internalType": "address",
          "name": "user",
          "type": "address"
        }
      ],
      "name": "getUserLevel",
      "outputs": [
        {
          "internalType": "uint256",
          "name": "level",
          "type": "uint256"
        },
        {
          "internalType": "uint256",
          "name": "percent",
          "type": "uint256"
        },
        {
          "internalType": "uint256",
          "name": "teamCount",
          "type": "uint256"
        }
      ],
      "stateMutability": "view",
      "type": "function"
    },
    {
      "inputs": [
        {
          "internalType": "address",
          "name": "_mcToken",
          "type": "address"
        },
        {
          "internalType": "address",
          "name": "_jbcToken",
          "type": "address"
        },
        {
          "internalType": "address",
          "name": "_marketingWallet",
          "type": "address"
        },
        {
          "internalType": "address",
          "name": "_treasuryWallet",
          "type": "address"
        },
        {
          "internalType": "address",
          "name": "_lpInjectionWallet",
          "type": "address"
        },
        {
          "internalType": "address",
          "name": "_buybackWallet",
          "type": "address"
        }
      ],
      "name": "initialize",
      "outputs": [],
      "stateMutability": "nonpayable",
      "type": "function"
    },
    {
      "inputs": [],
      "name": "jbcToken",
      "outputs": [
        {
          "internalType": "contract IJBC",
          "name": "",
          "type": "address"
        }
      ],
      "stateMutability": "view",
      "type": "function"
    },
    {
      "inputs": [],
      "name": "lastBurnTime",
      "outputs": [
        {
          "internalType": "uint256",
          "name": "",
          "type": "uint256"
        }
      ],
      "stateMutability": "view",
      "type": "function"
    },
    {
      "inputs": [],
      "name": "levelRewardPercent",
      "outputs": [
        {
          "internalType": "uint256",
          "name": "",
          "type": "uint256"
        }
      ],
      "stateMutability": "view",
      "type": "function"
    },
    {
      "inputs": [],
      "name": "levelRewardPool",
      "outputs": [
        {
          "internalType": "uint256",
          "name": "",
          "type": "uint256"
        }
      ],
      "stateMutability": "view",
      "type": "function"
    },
    {
      "inputs": [],
      "name": "liquidityEnabled",
      "outputs": [
        {
          "internalType": "bool",
          "name": "",
          "type": "bool"
        }
      ],
      "stateMutability": "view",
      "type": "function"
    },
    {
      "inputs": [],
      "name": "lpInjectionPercent",
      "outputs": [
        {
          "internalType": "uint256",
          "name": "",
          "type": "uint256"
        }
      ],
      "stateMutability": "view",
      "type": "function"
    },
    {
      "inputs": [],
      "name": "lpInjectionWallet",
      "outputs": [
        {
          "internalType": "address",
          "name": "",
          "type": "address"
        }
      ],
      "stateMutability": "view",
      "type": "function"
    },
    {
      "inputs": [],
      "name": "marketingPercent",
      "outputs": [
        {
          "internalType": "uint256",
          "name": "",
          "type": "uint256"
        }
      ],
      "stateMutability": "view",
      "type": "function"
    },
    {
      "inputs": [],
      "name": "marketingWallet",
      "outputs": [
        {
          "internalType": "address",
          "name": "",
          "type": "address"
        }
      ],
      "stateMutability": "view",
      "type": "function"
    },
    {
      "inputs": [],
      "name": "mcToken",
      "outputs": [
        {
          "internalType": "contract IERC20",
          "name": "",
          "type": "address"
        }
      ],
      "stateMutability": "view",
      "type": "function"
    },
    {
      "inputs": [],
      "name": "nextStakeId",
      "outputs": [
        {
          "internalType": "uint256",
          "name": "",
          "type": "uint256"
        }
      ],
      "stateMutability": "view",
      "type": "function"
    },
    {
      "inputs": [],
      "name": "nextTicketId",
      "outputs": [
        {
          "internalType": "uint256",
          "name": "",
          "type": "uint256"
        }
      ],
      "stateMutability": "view",
      "type": "function"
    },
    {
      "inputs": [],
      "name": "owner",
      "outputs": [
        {
          "internalType": "address",
          "name": "",
          "type": "address"
        }
      ],
      "stateMutability": "view",
      "type": "function"
    },
    {
      "inputs": [],
      "name": "priceOracle",
      "outputs": [
        {
          "internalType": "address",
          "name": "",
          "type": "address"
        }
      ],
      "stateMutability": "view",
      "type": "function"
    },
    {
      "inputs": [],
      "name": "proxiableUUID",
      "outputs": [
        {
          "internalType": "bytes32",
          "name": "",
          "type": "bytes32"
        }
      ],
      "stateMutability": "view",
      "type": "function"
    },
    {
      "inputs": [],
      "name": "redeemEnabled",
      "outputs": [
        {
          "internalType": "bool",
          "name": "",
          "type": "bool"
        }
      ],
      "stateMutability": "view",
      "type": "function"
    },
    {
      "inputs": [],
      "name": "redemptionFeePercent",
      "outputs": [
        {
          "internalType": "uint256",
          "name": "",
          "type": "uint256"
        }
      ],
      "stateMutability": "view",
      "type": "function"
    },
    {
      "inputs": [],
      "name": "renounceOwnership",
      "outputs": [],
      "stateMutability": "nonpayable",
      "type": "function"
    },
    {
      "inputs": [
        {
          "internalType": "uint256",
          "name": "amount",
          "type": "uint256"
        },
        {
          "internalType": "uint256",
          "name": "cycleDays",
          "type": "uint256"
        }
      ],
      "name": "stakeLiquidity",
      "outputs": [],
      "stateMutability": "nonpayable",
      "type": "function"
    },
    {
      "inputs": [
        {
          "internalType": "uint256",
          "name": "",
          "type": "uint256"
        }
      ],
      "name": "stakeOwner",
      "outputs": [
        {
          "internalType": "address",
          "name": "",
          "type": "address"
        }
      ],
      "stateMutability": "view",
      "type": "function"
    },
    {
      "inputs": [
        {
          "internalType": "uint256",
          "name": "",
          "type": "uint256"
        },
        {
          "internalType": "uint256",
          "name": "",
          "type": "uint256"
        }
      ],
      "name": "stakePendingRewards",
      "outputs": [
        {
          "internalType": "address",
          "name": "upline",
          "type": "address"
        },
        {
          "internalType": "uint256",
          "name": "amount",
          "type": "uint256"
        }
      ],
      "stateMutability": "view",
      "type": "function"
    },
    {
      "inputs": [],
      "name": "swapBuyTax",
      "outputs": [
        {
          "internalType": "uint256",
          "name": "",
          "type": "uint256"
        }
      ],
      "stateMutability": "view",
      "type": "function"
    },
    {
      "inputs": [],
      "name": "swapReserveJBC",
      "outputs": [
        {
          "internalType": "uint256",
          "name": "",
          "type": "uint256"
        }
      ],
      "stateMutability": "view",
      "type": "function"
    },
    {
      "inputs": [],
      "name": "swapReserveMC",
      "outputs": [
        {
          "internalType": "uint256",
          "name": "",
          "type": "uint256"
        }
      ],
      "stateMutability": "view",
      "type": "function"
    },
    {
      "inputs": [],
      "name": "swapSellTax",
      "outputs": [
        {
          "internalType": "uint256",
          "name": "",
          "type": "uint256"
        }
      ],
      "stateMutability": "view",
      "type": "function"
    },
    {
      "inputs": [],
      "name": "ticketFlexibilityDuration",
      "outputs": [
        {
          "internalType": "uint256",
          "name": "",
          "type": "uint256"
        }
      ],
      "stateMutability": "view",
      "type": "function"
    },
    {
      "inputs": [
        {
          "internalType": "uint256",
          "name": "",
          "type": "uint256"
        }
      ],
      "name": "ticketOwner",
      "outputs": [
        {
          "internalType": "address",
          "name": "",
          "type": "address"
        }
      ],
      "stateMutability": "view",
      "type": "function"
    },
    {
      "inputs": [
        {
          "internalType": "uint256",
          "name": "",
          "type": "uint256"
        },
        {
          "internalType": "uint256",
          "name": "",
          "type": "uint256"
        }
      ],
      "name": "ticketPendingRewards",
      "outputs": [
        {
          "internalType": "address",
          "name": "upline",
          "type": "address"
        },
        {
          "internalType": "uint256",
          "name": "amount",
          "type": "uint256"
        }
      ],
      "stateMutability": "view",
      "type": "function"
    },
    {
      "inputs": [
        {
          "internalType": "address",
          "name": "newOwner",
          "type": "address"
        }
      ],
      "name": "transferOwnership",
      "outputs": [],
      "stateMutability": "nonpayable",
      "type": "function"
    },
    {
      "inputs": [],
      "name": "treasuryPercent",
      "outputs": [
        {
          "internalType": "uint256",
          "name": "",
          "type": "uint256"
        }
      ],
      "stateMutability": "view",
      "type": "function"
    },
    {
      "inputs": [],
      "name": "treasuryWallet",
      "outputs": [
        {
          "internalType": "address",
          "name": "",
          "type": "address"
        }
      ],
      "stateMutability": "view",
      "type": "function"
    },
    {
      "inputs": [
        {
          "internalType": "address",
          "name": "newImplementation",
          "type": "address"
        },
        {
          "internalType": "bytes",
          "name": "data",
          "type": "bytes"
        }
      ],
      "name": "upgradeToAndCall",
      "outputs": [],
      "stateMutability": "payable",
      "type": "function"
    },
    {
      "inputs": [
        {
          "internalType": "address",
          "name": "",
          "type": "address"
        }
      ],
      "name": "userInfo",
      "outputs": [
        {
          "internalType": "address",
          "name": "referrer",
          "type": "address"
        },
        {
          "internalType": "uint256",
          "name": "activeDirects",
          "type": "uint256"
        },
        {
          "internalType": "uint256",
          "name": "teamCount",
          "type": "uint256"
        },
        {
          "internalType": "uint256",
          "name": "totalRevenue",
          "type": "uint256"
        },
        {
          "internalType": "uint256",
          "name": "currentCap",
          "type": "uint256"
        },
        {
          "internalType": "bool",
          "name": "isActive",
          "type": "bool"
        },
        {
          "internalType": "uint256",
          "name": "refundFeeAmount",
          "type": "uint256"
        },
        {
          "internalType": "uint256",
          "name": "teamTotalVolume",
          "type": "uint256"
        },
        {
          "internalType": "uint256",
          "name": "teamTotalCap",
          "type": "uint256"
        },
        {
          "internalType": "uint256",
          "name": "maxTicketAmount",
          "type": "uint256"
        },
        {
          "internalType": "uint256",
          "name": "maxSingleTicketAmount",
          "type": "uint256"
        }
      ],
      "stateMutability": "view",
      "type": "function"
    },
    {
      "inputs": [
        {
          "internalType": "address",
          "name": "",
          "type": "address"
        },
        {
          "internalType": "uint256",
          "name": "",
          "type": "uint256"
        }
      ],
      "name": "userStakes",
      "outputs": [
        {
          "internalType": "uint256",
          "name": "id",
          "type": "uint256"
        },
        {
          "internalType": "uint256",
          "name": "amount",
          "type": "uint256"
        },
        {
          "internalType": "uint256",
          "name": "startTime",
          "type": "uint256"
        },
        {
          "internalType": "uint256",
          "name": "cycleDays",
          "type": "uint256"
        },
        {
          "internalType": "bool",
          "name": "active",
          "type": "bool"
        },
        {
          "internalType": "uint256",
          "name": "paid",
          "type": "uint256"
        }
      ],
      "stateMutability": "view",
      "type": "function"
    },
    {
      "inputs": [
        {
          "internalType": "address",
          "name": "",
          "type": "address"
        }
      ],
      "name": "userTicket",
      "outputs": [
        {
          "internalType": "uint256",
          "name": "ticketId",
          "type": "uint256"
        },
        {
          "internalType": "uint256",
          "name": "amount",
          "type": "uint256"
        },
        {
          "internalType": "uint256",
          "name": "purchaseTime",
          "type": "uint256"
        },
        {
          "internalType": "bool",
          "name": "exited",
          "type": "bool"
        }
      ],
      "stateMutability": "view",
      "type": "function"
    }
  ],
  "bytecode": "0x60a0806040523461002a5730608052611c6790816100308239608051818181610cd40152610e690152f35b600080fdfe60806040908082526004918236101561001757600080fd5b600092833560e01c92836304ef9d58146117dc5750826305ad3935146117895782630e2be2101461176d5782630f0a4fef146115c85782631427f616146115ad5782631788513c146115845782631959a002146114d35782631d0dac76146114b457826321923bde1461146757826321b77d63146114435782632630c12f1461141657826327c830a9146113f257826327f082f4146113d35782633dbd46bd1461139f5782634626402b14611376578263488b5d97146113585782634ea4c6b31461102c5782634f1ef28614610ded57826350f6a79a14610d2657826352d1902d14610cbf5782636031a52f14610ca05782636839b5fa14610c835782636dd6682714610c64578263715018a614610c0c57826375506c9614610bed57826375f0a87414610bc457826377a2a54014610ba5578263813380cd14610b775782638710bcaa14610b1857826388481b6114610afc57826388fd4d3314610ad35782638a859a8514610ab75782638c0eaa4814610a9b5782638da5cb5b14610a655782639370b08014610a4657826394c4da52146108a7578263952539921461087f578263ac8f50aa14610828578263ad3cb1cc146107df578263b048a4bb146107bb578263b5d5b5fa14610731578263b759936b14610712578263bd594dcf146106f3578263c2ff12fc146106bf578263cc2a9a5b146104a3578263ccf6194414610484578263ceaa366d14610465578263d2c8e0e5146103b7578263d2f8253614610390578263d8020a1814610371578263dce3dc1f1461034857508163deab8aea1461031f578163dec7fa3b14610300578163e3067449146102e1578163e4412f68146102be575063f2fde38b1461028f57600080fd5b346102bb5760203660031901126102bb576102b86102ab6117f8565b6102b3611ac6565b6119b5565b80f35b80fd5b9050346102dd57816003193601126102dd576020906009549051908152f35b5080fd5b9050346102dd57816003193601126102dd57602090601a549051908152f35b9050346102dd57816003193601126102dd57602090600c549051908152f35b9050346102dd57816003193601126102dd5760055490516001600160a01b039091168152602090f35b83346102bb5760203660031901126102bb57506103659035611a17565b82519182526020820152f35b8382346102dd57816003193601126102dd576020906008549051908152f35b8382346102dd57816003193601126102dd5760209060ff60155460081c1690519015158152f35b8382346102dd57602080600319360112610461576001600160a01b0392836103dd6117f8565b1681526012825282812091835190818185549182815201908195855282852090855b81811061044b575050508261041591038361188b565b8451948186019282875251809352850193925b8281106104355785850386f35b8351871685529381019392810192600101610428565b82548a16845292840192600192830192016103ff565b8280fd5b8382346102dd57816003193601126102dd57602090600a549051908152f35b8382346102dd57816003193601126102dd576020906006549051908152f35b909150346104615760c0366003190112610461576104bf6117f8565b906001600160a01b0360243581811692908390036106bb57604435938285168095036106b757606435918383168093036106b3576084358481168091036106af5760a435938585168095036106ab57600080516020611c128339815191529788549760ff898c1c16159760018060401b038a16998a15806106a4575b6001809c14908161069a575b159081610691575b50610681576001600160401b031981168b178c5589610666575b50610572611aff565b61057a611aff565b610583336119b5565b61058b611aff565b610593611aff565b61059b611aff565b89600080516020611bf28339815191525560018060a01b03199616868d5416178c55858954161788558460025416176002558360035416176003558282541617905560055416176005556103e86006556101f48060075561012c8060085560c8600955600a5560c8600b55600c5561010161ffff1960155416176015558160185581601955610628578380f35b815460ff60401b191690915590519081527fc7f505b2f371ae2175ee4913f4499e1f2633a7b5936321eed1cdaeb6115181d290602090a13880808380f35b6001600160481b0319166001600160401b01178b5538610569565b8c5163f92ee8a960e01b81528790fd5b9050153861054f565b303b159150610547565b508961053b565b8980fd5b8880fd5b8780fd5b8680fd5b8580fd5b9091503461046157602036600319011261046157358252601b6020908152918190205490516001600160a01b039091168152f35b8382346102dd57816003193601126102dd576020906007549051908152f35b8382346102dd57816003193601126102dd57602090601e549051908152f35b91503461046157806003193601126104615761074b6117f8565b6001600160a01b031683526011602052808320805460243594908510156102bb575060c09361077991611963565b50805492600182015492600283015490600560ff60038601549486015416940154948151968752602087015285015260608401521515608083015260a0820152f35b8382346102dd57816003193601126102dd5760209060ff6015541690519015158152f35b8382346102dd57816003193601126102dd5780516108249161080082611870565b60058252640352e302e360dc1b6020830152519182916020835260208301906118c9565b0390f35b8382346102dd5761083836611829565b908352601c602052818320805482101561087b579061085691611931565b50805460019091015491516001600160a01b0390911681526020810191909152604090f35b8380fd5b8382346102dd57816003193601126102dd57905490516001600160a01b039091168152602090f35b8382346102dd5760203660031901126102dd576001600160a01b036108ca6117f8565b168252601160208190528183208054918491825b8481106108ef576020878751908152f35b60ff886108fc8385611963565b5001541615610a3e57836109108284611963565b50906007600380930154146000146109ff575062cb73565b62015180610944600261093b8688611963565b5001544261197f565b0491806109518587611963565b50015483116109e8575b5081156109de57633b9aca009161098361098892600161097b8789611963565b5001546119a2565b6119a2565b0460056109958385611963565b500154908181116109ad575b50506001905b016108de565b906109ba9198929861197f565b81018091116109cc57956001896109a1565b634e487b7160e01b8452828852602484fd5b50506001906109a7565b9091506109f58385611963565b500154908a61095b565b600f82610a0c8587611963565b50015403610a1e575062fe502b610928565b601e82610a2b8587611963565b5001540361092857506301312d00610928565b6001906109a7565b8382346102dd57816003193601126102dd57602090600e549051908152f35b8382346102dd57816003193601126102dd57600080516020611b928339815191525490516001600160a01b039091168152602090f35b8382346102dd57816003193601126102dd576020905160038152f35b8382346102dd57816003193601126102dd576020905160018152f35b909150346104615782600319360112610461575490516001600160a01b03909116815260209150f35b9150346104615782600319360112610461576020925051908152f35b8382346102dd5760203660031901126102dd5760809181906001600160a01b03610b406117f8565b1681526010602052209081549160018101549160ff6003600284015493015416928151948552602085015283015215156060820152f35b8382346102dd57610b8736611829565b9083526013602052818320805482101561087b579061085691611931565b8382346102dd57816003193601126102dd576020906016549051908152f35b8382346102dd57816003193601126102dd5760025490516001600160a01b039091168152602090f35b8382346102dd57816003193601126102dd576020906019549051908152f35b83346102bb57806003193601126102bb57610c25611ac6565b600080516020611b9283398151915280546001600160a01b0319811690915581906001600160a01b0316600080516020611bd28339815191528280a380f35b8382346102dd57816003193601126102dd576020906014549051908152f35b8382346102dd57816003193601126102dd57602090516103e88152f35b8382346102dd57816003193601126102dd576020906018549051908152f35b9083346102bb57806003193601126102bb57507f00000000000000000000000000000000000000000000000000000000000000006001600160a01b03163003610d195760209051600080516020611bb28339815191528152f35b5163703e46dd60e11b8152fd5b915034610461578260031936011261046157610dda925060608151610d4a8161183f565b36903760608151610d5a8161183f565b3690376108248151610d6b8161183f565b60078152600f6020820152601e83820152610de3835191610d8b8361183f565b62cb7356835262fe502b60208401526301312d0085840152845195610daf87611870565b8652636461797360e01b602087015284519687966101006201518089528060208a01528801906118c9565b94860190611909565b60a0840190611909565b91508060031936011261046157610e026117f8565b60249390919084356001600160401b0381116102dd57366023820112156102dd5780850135610e30816118ae565b94610e3d8551968761188b565b81865260209182870193368a83830101116106bb578186928b8693018737880101526001600160a01b037f00000000000000000000000000000000000000000000000000000000000000008116308114908115611010575b5061100057610ea2611ac6565b81169585516352d1902d60e01b815283818a818b5afa869181610fd1575b50610edc575050505050505191634c9c8ce360e01b8352820152fd5b9088888894938c600080516020611bb283398151915291828103610fbc5750853b15610fa8575080546001600160a01b031916821790558451889392917fbc7cd75a20ee27fd9adebab32041f755214dbc6bffa90cc0225b39da2e5c2d3b8580a2825115610f8a575050610f7c9582915190845af4913d15610f80573d610f6e610f65826118ae565b9251928361188b565b81528581943d92013e611b2e565b5080f35b5060609250611b2e565b955095505050505034610f9c57505080f35b63b398979f60e01b8152fd5b8651634c9c8ce360e01b8152808501849052fd5b8751632a87526960e21b815280860191909152fd5b9091508481813d8311610ff9575b610fe9818361188b565b810103126106b757519038610ec0565b503d610fdf565b855163703e46dd60e11b81528890fd5b905081600080516020611bb28339815191525416141538610e95565b909150346104615761103d36611829565b91600080516020611bf2833981519152926002845414611349576002845560ff601554161561131157338652602094601086528087209560019687810154156112db576003015460ff166112a95760078314801561129f575b8015611295575b1561124257841561120f57338852601181528188206019548351919060c083016001600160401b038111848210176111fc57908b929186528352838301888152858401428152606085019188835260808601938d855260a08701958652805490600160401b8210156111e85790611118918f82018155611963565b9690966111d657518655518c86015551600285015551600384015551868301805460ff191691151560ff1691909117905551600590910155601980548952601d9091528188208054336001600160a01b0319909116179055549260001984146111c3578684018060195584116111c35750906111bc7fa8a1b9e33e503eed12bf7e7c8c01c7f3b60217a496bddd0f5db351dd8c056c1c939251928392339684611813565b0390a25580f35b634e487b7160e01b885260119052602487fd5b634e487b7160e01b8f528e8b5260248ffd5b50634e487b7160e01b8f5260418b5260248ffd5b634e487b7160e01b8c526041885260248cfd5b8390606492519162461bcd60e51b8352820152600e60248201526d125b9d985b1a5908185b5bdd5b9d60921b6044820152fd5b8390608492519162461bcd60e51b8352820152602860248201527f496e76616c6964206379636c653a206d75737420626520372c2031352c206f72604482015267203330206461797360c01b6064820152fd5b50601e831461109d565b50600f8314611096565b8390606492519162461bcd60e51b8352820152600d60248201526c151a58dad95d08195e1a5d1959609a1b6044820152fd5b825162461bcd60e51b8152808601839052601060248201526f139bc81858dd1a5d99481d1a58dad95d60821b6044820152606490fd5b845162461bcd60e51b81526020818401526012602482015271131a5c5d5a591a5d1e48191a5cd8589b195960721b6044820152606490fd5b508351633ee5aeb560e01b8152fd5b8382346102dd57816003193601126102dd5760209051620151808152f35b8382346102dd57816003193601126102dd5760035490516001600160a01b039091168152602090f35b9091503461046157602036600319011261046157358252601d6020908152918190205490516001600160a01b039091168152f35b8382346102dd57816003193601126102dd57602090600d549051908152f35b8382346102dd57816003193601126102dd5760209060ff604e541690519015158152f35b8382346102dd57816003193601126102dd57604e54905160089190911c6001600160a01b03168152602090f35b8382346102dd57816003193601126102dd5760209051683635c9adc5dea000008152f35b5082346102bb5760203660031901126102bb5760029082906001600160a01b0361148f6117f8565b168152600f602052200154906108246114a783611a17565b9390925193849384611813565b8382346102dd57816003193601126102dd576020906017549051908152f35b9091503461046157602036600319011261046157610160926001600160a01b03908390826114ff6117f8565b168152600f60205220908154169260018201549260028301549060038401549084015460ff60058601541690600686015492600787015494600888015496600a60098a01549901549981519b8c5260208c01528a015260608901526080880152151560a087015260c086015260e0850152610100840152610120830152610140820152f35b8382346102dd57816003193601126102dd5760015490516001600160a01b039091168152602090f35b8382346102dd57816003193601126102dd5751908152602090f35b83346102bb57826003193601126102bb576115e16117f8565b6001600160a01b0316808252601160205283822054602435919082101561173457610100949161161a9184526011602052828420611963565b509060028201549262015180611630854261197f565b04938192600385015490818710611722575b83600783036116da575060ff61167f98633b9aca0062cb73569a8b9a5b61166e60018c01549d8e6119a2565b90878111156116d4575086906119a2565b0495600589015480978181116000146116cc5761169c925061197f565b975b015416928151988952602089015287015215156060860152608085015260a084015260c083015260e0820152f35b50509761169e565b906119a2565b600f83036116fa575060ff61167f98633b9aca0062fe502b9a8b9a61165f565b96601e8314611716575b8798633b9aca0061167f60ff9361165f565b6301312d009750611704565b935061172e868261197f565b93611642565b845162461bcd60e51b81526020818601526013602482015272092dcecc2d8d2c840e6e8c2d6ca40d2dcc8caf606b1b6044820152606490fd5b8382346102dd57816003193601126102dd576020905160028152f35b8382346102dd57806003193601126102dd576117a36117f8565b6001600160a01b0390811683526012602052818320805460243591908210156117d85784526020938490200154915191168152f35b8480fd5b8490346102dd57816003193601126102dd57602090600b548152f35b600435906001600160a01b038216820361180e57565b600080fd5b6040919493926060820195825260208201520152565b604090600319011261180e576004359060243590565b606081019081106001600160401b0382111761185a57604052565b634e487b7160e01b600052604160045260246000fd5b604081019081106001600160401b0382111761185a57604052565b601f909101601f19168101906001600160401b0382119082101761185a57604052565b6001600160401b03811161185a57601f01601f191660200190565b919082519283825260005b8481106118f5575050826000602080949584010152601f8019910116010190565b6020818301810151848301820152016118d4565b6000915b6003831061191a57505050565b60019082518152602080910192019201919061190d565b805482101561194d5760005260206000209060011b0190600090565b634e487b7160e01b600052603260045260246000fd5b805482101561194d576000526006602060002091020190600090565b9190820391821161198c57565b634e487b7160e01b600052601160045260246000fd5b8181029291811591840414171561198c57565b6001600160a01b039081169081156119fe57600080516020611b9283398151915280546001600160a01b03198116841790915516600080516020611bd2833981519152600080a3565b604051631e4fbdf760e01b815260006004820152602490fd5b620186a0811015611abd57617530811015611ab457612710811015611aab57610bb8811015611aa2576103e8811015611a995761012c811015611a90576064811015611a8757601e811015611a7e57600a1115611a7657600090600090565b600190600590565b50600290600a90565b50600390600f90565b50600490601490565b50600590601990565b50600690601e90565b50600790602390565b50600890602890565b50600990602d90565b600080516020611b92833981519152546001600160a01b03163303611ae757565b60405163118cdaa760e01b8152336004820152602490fd5b60ff600080516020611c128339815191525460401c1615611b1c57565b604051631afcd79f60e31b8152600490fd5b90611b555750805115611b4357602081519101fd5b60405163d6bda27560e01b8152600490fd5b81511580611b88575b611b66575090565b604051639996b31560e01b81526001600160a01b039091166004820152602490fd5b50803b15611b5e56fe9016d09d72d40fdae2fd8ceac6b6234c7706214fd39c1cd1e609a0528c199300360894a13ba1a3210667c828492db98dca3e2076cc3735a920a3ca505d382bbc8be0079c531659141344cd1fd0a4f28419497f9722a3daafe3b4186f6b6457e09b779b17422d0df92223018b32b4d1fa46e071723d6817e2486d003becc55f00f0c57e16840df040f15088dc2f81fe391c3923bec73e23a9662efc9c229c6a00a26469706673582212204547d1eb96b80e9632446c5d939e69667a097898a9ac4e7edf51c17622f813c964736f6c63430008160033",
  "linkReferences": {},
  "deployedLinkReferences": {}
}