{
  "_format": "hh-sol-artifact-1",
  "contractName": "JinbaoProtocol",
  "sourceName": "contracts/JinbaoProtocol.sol",
  "abi": [
    {
      "inputs": [],
      "stateMutability": "nonpayable",
      "type": "constructor"
    },
    {
      "inputs": [],
      "name": "ActionTooEarly",
      "type": "error"
    },
    {
      "inputs": [
        {
          "internalType": "address",
          "name": "target",
          "type": "address"
        }
      ],
      "name": "AddressEmptyCode",
      "type": "error"
    },
    {
      "inputs": [],
      "name": "AlreadyBound",
      "type": "error"
    },
    {
      "inputs": [],
      "name": "AlreadyExited",
      "type": "error"
    },
    {
      "inputs": [],
      "name": "BatchUpdateSizeMismatch",
      "type": "error"
    },
    {
      "inputs": [],
      "name": "ContractPaused",
      "type": "error"
    },
    {
      "inputs": [
        {
          "internalType": "address",
          "name": "implementation",
          "type": "address"
        }
      ],
      "name": "ERC1967InvalidImplementation",
      "type": "error"
    },
    {
      "inputs": [],
      "name": "ERC1967NonPayable",
      "type": "error"
    },
    {
      "inputs": [],
      "name": "Expired",
      "type": "error"
    },
    {
      "inputs": [],
      "name": "FailedCall",
      "type": "error"
    },
    {
      "inputs": [],
      "name": "InsufficientBalance",
      "type": "error"
    },
    {
      "inputs": [],
      "name": "InvalidAddress",
      "type": "error"
    },
    {
      "inputs": [],
      "name": "InvalidAmount",
      "type": "error"
    },
    {
      "inputs": [],
      "name": "InvalidCycle",
      "type": "error"
    },
    {
      "inputs": [],
      "name": "InvalidFee",
      "type": "error"
    },
    {
      "inputs": [],
      "name": "InvalidInitialization",
      "type": "error"
    },
    {
      "inputs": [],
      "name": "InvalidLevelConfig",
      "type": "error"
    },
    {
      "inputs": [],
      "name": "InvalidRate",
      "type": "error"
    },
    {
      "inputs": [],
      "name": "InvalidTax",
      "type": "error"
    },
    {
      "inputs": [],
      "name": "InvalidTeamCountUpdate",
      "type": "error"
    },
    {
      "inputs": [],
      "name": "LowLiquidity",
      "type": "error"
    },
    {
      "inputs": [],
      "name": "NoRewards",
      "type": "error"
    },
    {
      "inputs": [],
      "name": "NotActive",
      "type": "error"
    },
    {
      "inputs": [],
      "name": "NotInitializing",
      "type": "error"
    },
    {
      "inputs": [],
      "name": "NothingToRedeem",
      "type": "error"
    },
    {
      "inputs": [
        {
          "internalType": "address",
          "name": "owner",
          "type": "address"
        }
      ],
      "name": "OwnableInvalidOwner",
      "type": "error"
    },
    {
      "inputs": [
        {
          "internalType": "address",
          "name": "account",
          "type": "address"
        }
      ],
      "name": "OwnableUnauthorizedAccount",
      "type": "error"
    },
    {
      "inputs": [],
      "name": "RecursionDepthExceeded",
      "type": "error"
    },
    {
      "inputs": [],
      "name": "ReentrancyGuardReentrantCall",
      "type": "error"
    },
    {
      "inputs": [],
      "name": "SelfReference",
      "type": "error"
    },
    {
      "inputs": [],
      "name": "SumNot100",
      "type": "error"
    },
    {
      "inputs": [
        {
          "internalType": "address",
          "name": "user",
          "type": "address"
        },
        {
          "internalType": "uint256",
          "name": "expected",
          "type": "uint256"
        },
        {
          "internalType": "uint256",
          "name": "actual",
          "type": "uint256"
        }
      ],
      "name": "TeamCountMismatch",
      "type": "error"
    },
    {
      "inputs": [],
      "name": "TeamCountOverflow",
      "type": "error"
    },
    {
      "inputs": [],
      "name": "TransferFailed",
      "type": "error"
    },
    {
      "inputs": [
        {
          "internalType": "string",
          "name": "reason",
          "type": "string"
        }
      ],
      "name": "TransferFromFailed",
      "type": "error"
    },
    {
      "inputs": [],
      "name": "TransferFromFailedLowLevel",
      "type": "error"
    },
    {
      "inputs": [],
      "name": "UUPSUnauthorizedCallContext",
      "type": "error"
    },
    {
      "inputs": [
        {
          "internalType": "bytes32",
          "name": "slot",
          "type": "bytes32"
        }
      ],
      "name": "UUPSUnsupportedProxiableUUID",
      "type": "error"
    },
    {
      "inputs": [],
      "name": "Unauthorized",
      "type": "error"
    },
    {
      "anonymous": false,
      "inputs": [
        {
          "indexed": false,
          "internalType": "uint256",
          "name": "usersUpdated",
          "type": "uint256"
        }
      ],
      "name": "BatchTeamCountsUpdated",
      "type": "event"
    },
    {
      "anonymous": false,
      "inputs": [
        {
          "indexed": true,
          "internalType": "address",
          "name": "user",
          "type": "address"
        },
        {
          "indexed": true,
          "internalType": "address",
          "name": "referrer",
          "type": "address"
        }
      ],
      "name": "BoundReferrer",
      "type": "event"
    },
    {
      "anonymous": false,
      "inputs": [
        {
          "indexed": false,
          "internalType": "uint256",
          "name": "mcAmount",
          "type": "uint256"
        },
        {
          "indexed": false,
          "internalType": "uint256",
          "name": "jbcBurned",
          "type": "uint256"
        }
      ],
      "name": "BuybackAndBurn",
      "type": "event"
    },
    {
      "anonymous": false,
      "inputs": [
        {
          "indexed": true,
          "internalType": "uint256",
          "name": "stakeId",
          "type": "uint256"
        },
        {
          "indexed": true,
          "internalType": "address",
          "name": "upline",
          "type": "address"
        },
        {
          "indexed": false,
          "internalType": "uint256",
          "name": "amount",
          "type": "uint256"
        }
      ],
      "name": "DifferentialRewardRecorded",
      "type": "event"
    },
    {
      "anonymous": false,
      "inputs": [
        {
          "indexed": true,
          "internalType": "uint256",
          "name": "stakeId",
          "type": "uint256"
        },
        {
          "indexed": true,
          "internalType": "address",
          "name": "upline",
          "type": "address"
        },
        {
          "indexed": false,
          "internalType": "uint256",
          "name": "amount",
          "type": "uint256"
        }
      ],
      "name": "DifferentialRewardReleased",
      "type": "event"
    },
    {
      "anonymous": false,
      "inputs": [
        {
          "indexed": false,
          "internalType": "uint256",
          "name": "direct",
          "type": "uint256"
        },
        {
          "indexed": false,
          "internalType": "uint256",
          "name": "level",
          "type": "uint256"
        },
        {
          "indexed": false,
          "internalType": "uint256",
          "name": "marketing",
          "type": "uint256"
        },
        {
          "indexed": false,
          "internalType": "uint256",
          "name": "buyback",
          "type": "uint256"
        },
        {
          "indexed": false,
          "internalType": "uint256",
          "name": "lpInjection",
          "type": "uint256"
        },
        {
          "indexed": false,
          "internalType": "uint256",
          "name": "treasury",
          "type": "uint256"
        }
      ],
      "name": "DistributionConfigUpdated",
      "type": "event"
    },
    {
      "anonymous": false,
      "inputs": [],
      "name": "EmergencyPaused",
      "type": "event"
    },
    {
      "anonymous": false,
      "inputs": [],
      "name": "EmergencyUnpaused",
      "type": "event"
    },
    {
      "anonymous": false,
      "inputs": [
        {
          "indexed": true,
          "internalType": "address",
          "name": "user",
          "type": "address"
        },
        {
          "indexed": false,
          "internalType": "uint256",
          "name": "ticketId",
          "type": "uint256"
        }
      ],
      "name": "Exited",
      "type": "event"
    },
    {
      "anonymous": false,
      "inputs": [
        {
          "indexed": true,
          "internalType": "address",
          "name": "user",
          "type": "address"
        },
        {
          "indexed": false,
          "internalType": "uint256",
          "name": "amount",
          "type": "uint256"
        }
      ],
      "name": "FeeRefunded",
      "type": "event"
    },
    {
      "anonymous": false,
      "inputs": [
        {
          "indexed": false,
          "internalType": "uint64",
          "name": "version",
          "type": "uint64"
        }
      ],
      "name": "Initialized",
      "type": "event"
    },
    {
      "anonymous": false,
      "inputs": [],
      "name": "LevelConfigsUpdated",
      "type": "event"
    },
    {
      "anonymous": false,
      "inputs": [
        {
          "indexed": false,
          "internalType": "uint256",
          "name": "amount",
          "type": "uint256"
        },
        {
          "indexed": false,
          "internalType": "uint256",
          "name": "newTotal",
          "type": "uint256"
        }
      ],
      "name": "LevelRewardPoolUpdated",
      "type": "event"
    },
    {
      "anonymous": false,
      "inputs": [
        {
          "indexed": true,
          "internalType": "address",
          "name": "to",
          "type": "address"
        },
        {
          "indexed": false,
          "internalType": "uint256",
          "name": "amount",
          "type": "uint256"
        }
      ],
      "name": "LevelRewardPoolWithdrawn",
      "type": "event"
    },
    {
      "anonymous": false,
      "inputs": [
        {
          "indexed": true,
          "internalType": "uint256",
          "name": "ticketId",
          "type": "uint256"
        },
        {
          "indexed": true,
          "internalType": "address",
          "name": "upline",
          "type": "address"
        },
        {
          "indexed": false,
          "internalType": "uint256",
          "name": "amount",
          "type": "uint256"
        }
      ],
      "name": "LevelRewardRecorded",
      "type": "event"
    },
    {
      "anonymous": false,
      "inputs": [
        {
          "indexed": true,
          "internalType": "uint256",
          "name": "ticketId",
          "type": "uint256"
        },
        {
          "indexed": true,
          "internalType": "address",
          "name": "upline",
          "type": "address"
        },
        {
          "indexed": false,
          "internalType": "uint256",
          "name": "amount",
          "type": "uint256"
        }
      ],
      "name": "LevelRewardReleased",
      "type": "event"
    },
    {
      "anonymous": false,
      "inputs": [
        {
          "indexed": false,
          "internalType": "uint256",
          "name": "mcAmount",
          "type": "uint256"
        },
        {
          "indexed": false,
          "internalType": "uint256",
          "name": "jbcAmount",
          "type": "uint256"
        }
      ],
      "name": "LiquidityAdded",
      "type": "event"
    },
    {
      "anonymous": false,
      "inputs": [
        {
          "indexed": true,
          "internalType": "address",
          "name": "user",
          "type": "address"
        },
        {
          "indexed": false,
          "internalType": "uint256",
          "name": "amount",
          "type": "uint256"
        },
        {
          "indexed": false,
          "internalType": "uint256",
          "name": "cycleDays",
          "type": "uint256"
        },
        {
          "indexed": false,
          "internalType": "uint256",
          "name": "stakeId",
          "type": "uint256"
        }
      ],
      "name": "LiquidityStaked",
      "type": "event"
    },
    {
      "anonymous": false,
      "inputs": [
        {
          "indexed": false,
          "internalType": "bool",
          "name": "enabled",
          "type": "bool"
        }
      ],
      "name": "LiquidityStatusUpdated",
      "type": "event"
    },
    {
      "anonymous": false,
      "inputs": [
        {
          "indexed": true,
          "internalType": "address",
          "name": "previousOwner",
          "type": "address"
        },
        {
          "indexed": true,
          "internalType": "address",
          "name": "newOwner",
          "type": "address"
        }
      ],
      "name": "OwnershipTransferred",
      "type": "event"
    },
    {
      "anonymous": false,
      "inputs": [
        {
          "indexed": false,
          "internalType": "bool",
          "name": "enabled",
          "type": "bool"
        }
      ],
      "name": "RedeemStatusUpdated",
      "type": "event"
    },
    {
      "anonymous": false,
      "inputs": [
        {
          "indexed": true,
          "internalType": "address",
          "name": "user",
          "type": "address"
        },
        {
          "indexed": false,
          "internalType": "uint256",
          "name": "principal",
          "type": "uint256"
        },
        {
          "indexed": false,
          "internalType": "uint256",
          "name": "fee",
          "type": "uint256"
        }
      ],
      "name": "Redeemed",
      "type": "event"
    },
    {
      "anonymous": false,
      "inputs": [
        {
          "indexed": false,
          "internalType": "uint256",
          "name": "newFee",
          "type": "uint256"
        }
      ],
      "name": "RedemptionFeeUpdated",
      "type": "event"
    },
    {
      "anonymous": false,
      "inputs": [
        {
          "indexed": true,
          "internalType": "address",
          "name": "user",
          "type": "address"
        },
        {
          "indexed": true,
          "internalType": "address",
          "name": "from",
          "type": "address"
        },
        {
          "indexed": false,
          "internalType": "uint256",
          "name": "mcAmount",
          "type": "uint256"
        },
        {
          "indexed": false,
          "internalType": "uint8",
          "name": "rewardType",
          "type": "uint8"
        },
        {
          "indexed": false,
          "internalType": "uint256",
          "name": "ticketId",
          "type": "uint256"
        }
      ],
      "name": "ReferralRewardPaid",
      "type": "event"
    },
    {
      "anonymous": false,
      "inputs": [
        {
          "indexed": true,
          "internalType": "address",
          "name": "user",
          "type": "address"
        },
        {
          "indexed": true,
          "internalType": "address",
          "name": "oldReferrer",
          "type": "address"
        },
        {
          "indexed": true,
          "internalType": "address",
          "name": "newReferrer",
          "type": "address"
        }
      ],
      "name": "ReferrerChanged",
      "type": "event"
    },
    {
      "anonymous": false,
      "inputs": [
        {
          "indexed": true,
          "internalType": "address",
          "name": "user",
          "type": "address"
        },
        {
          "indexed": false,
          "internalType": "uint256",
          "name": "amount",
          "type": "uint256"
        },
        {
          "indexed": false,
          "internalType": "uint256",
          "name": "cappedAmount",
          "type": "uint256"
        }
      ],
      "name": "RewardCapped",
      "type": "event"
    },
    {
      "anonymous": false,
      "inputs": [
        {
          "indexed": true,
          "internalType": "address",
          "name": "user",
          "type": "address"
        },
        {
          "indexed": false,
          "internalType": "uint256",
          "name": "mcAmount",
          "type": "uint256"
        },
        {
          "indexed": false,
          "internalType": "uint256",
          "name": "jbcAmount",
          "type": "uint256"
        },
        {
          "indexed": false,
          "internalType": "uint8",
          "name": "rewardType",
          "type": "uint8"
        },
        {
          "indexed": false,
          "internalType": "uint256",
          "name": "ticketId",
          "type": "uint256"
        }
      ],
      "name": "RewardClaimed",
      "type": "event"
    },
    {
      "anonymous": false,
      "inputs": [
        {
          "indexed": true,
          "internalType": "address",
          "name": "user",
          "type": "address"
        },
        {
          "indexed": false,
          "internalType": "uint256",
          "name": "amount",
          "type": "uint256"
        },
        {
          "indexed": false,
          "internalType": "uint8",
          "name": "rewardType",
          "type": "uint8"
        }
      ],
      "name": "RewardPaid",
      "type": "event"
    },
    {
      "anonymous": false,
      "inputs": [
        {
          "indexed": false,
          "internalType": "uint256",
          "name": "mcAmount",
          "type": "uint256"
        },
        {
          "indexed": false,
          "internalType": "uint256",
          "name": "jbcAmount",
          "type": "uint256"
        }
      ],
      "name": "SwapReservesWithdrawn",
      "type": "event"
    },
    {
      "anonymous": false,
      "inputs": [
        {
          "indexed": false,
          "internalType": "uint256",
          "name": "buyTax",
          "type": "uint256"
        },
        {
          "indexed": false,
          "internalType": "uint256",
          "name": "sellTax",
          "type": "uint256"
        }
      ],
      "name": "SwapTaxesUpdated",
      "type": "event"
    },
    {
      "anonymous": false,
      "inputs": [
        {
          "indexed": true,
          "internalType": "address",
          "name": "user",
          "type": "address"
        },
        {
          "indexed": false,
          "internalType": "uint256",
          "name": "jbcAmount",
          "type": "uint256"
        },
        {
          "indexed": false,
          "internalType": "uint256",
          "name": "mcAmount",
          "type": "uint256"
        },
        {
          "indexed": false,
          "internalType": "uint256",
          "name": "tax",
          "type": "uint256"
        }
      ],
      "name": "SwappedJBCToMC",
      "type": "event"
    },
    {
      "anonymous": false,
      "inputs": [
        {
          "indexed": true,
          "internalType": "address",
          "name": "user",
          "type": "address"
        },
        {
          "indexed": false,
          "internalType": "uint256",
          "name": "mcAmount",
          "type": "uint256"
        },
        {
          "indexed": false,
          "internalType": "uint256",
          "name": "jbcAmount",
          "type": "uint256"
        },
        {
          "indexed": false,
          "internalType": "uint256",
          "name": "tax",
          "type": "uint256"
        }
      ],
      "name": "SwappedMCToJBC",
      "type": "event"
    },
    {
      "anonymous": false,
      "inputs": [
        {
          "indexed": true,
          "internalType": "uint256",
          "name": "stakeId",
          "type": "uint256"
        },
        {
          "indexed": true,
          "internalType": "address",
          "name": "upline",
          "type": "address"
        },
        {
          "indexed": false,
          "internalType": "uint256",
          "name": "amount",
          "type": "uint256"
        },
        {
          "indexed": false,
          "internalType": "uint256",
          "name": "teamCount",
          "type": "uint256"
        }
      ],
      "name": "TeamBasedRewardCalculated",
      "type": "event"
    },
    {
      "anonymous": false,
      "inputs": [
        {
          "indexed": true,
          "internalType": "address",
          "name": "user",
          "type": "address"
        },
        {
          "indexed": false,
          "internalType": "uint256",
          "name": "oldCount",
          "type": "uint256"
        },
        {
          "indexed": false,
          "internalType": "uint256",
          "name": "newCount",
          "type": "uint256"
        }
      ],
      "name": "TeamCountUpdated",
      "type": "event"
    },
    {
      "anonymous": false,
      "inputs": [
        {
          "indexed": true,
          "internalType": "address",
          "name": "user",
          "type": "address"
        },
        {
          "indexed": false,
          "internalType": "uint256",
          "name": "expected",
          "type": "uint256"
        },
        {
          "indexed": false,
          "internalType": "uint256",
          "name": "actual",
          "type": "uint256"
        }
      ],
      "name": "TeamCountValidationFailed",
      "type": "event"
    },
    {
      "anonymous": false,
      "inputs": [
        {
          "indexed": true,
          "internalType": "address",
          "name": "user",
          "type": "address"
        },
        {
          "indexed": false,
          "internalType": "uint256",
          "name": "ticketId",
          "type": "uint256"
        },
        {
          "indexed": false,
          "internalType": "uint256",
          "name": "amount",
          "type": "uint256"
        }
      ],
      "name": "TicketExpired",
      "type": "event"
    },
    {
      "anonymous": false,
      "inputs": [
        {
          "indexed": false,
          "internalType": "uint256",
          "name": "newDuration",
          "type": "uint256"
        }
      ],
      "name": "TicketFlexibilityDurationUpdated",
      "type": "event"
    },
    {
      "anonymous": false,
      "inputs": [
        {
          "indexed": true,
          "internalType": "address",
          "name": "user",
          "type": "address"
        },
        {
          "indexed": false,
          "internalType": "uint256",
          "name": "amount",
          "type": "uint256"
        },
        {
          "indexed": false,
          "internalType": "uint256",
          "name": "ticketId",
          "type": "uint256"
        }
      ],
      "name": "TicketPurchased",
      "type": "event"
    },
    {
      "anonymous": false,
      "inputs": [
        {
          "indexed": false,
          "internalType": "address",
          "name": "token",
          "type": "address"
        },
        {
          "indexed": false,
          "internalType": "address",
          "name": "to",
          "type": "address"
        },
        {
          "indexed": false,
          "internalType": "uint256",
          "name": "amount",
          "type": "uint256"
        }
      ],
      "name": "TokensRescued",
      "type": "event"
    },
    {
      "anonymous": false,
      "inputs": [
        {
          "indexed": true,
          "internalType": "address",
          "name": "implementation",
          "type": "address"
        }
      ],
      "name": "Upgraded",
      "type": "event"
    },
    {
      "anonymous": false,
      "inputs": [
        {
          "indexed": true,
          "internalType": "address",
          "name": "user",
          "type": "address"
        },
        {
          "indexed": false,
          "internalType": "uint8",
          "name": "field",
          "type": "uint8"
        },
        {
          "indexed": false,
          "internalType": "uint256",
          "name": "value",
          "type": "uint256"
        }
      ],
      "name": "UserDataFieldUpdated",
      "type": "event"
    },
    {
      "anonymous": false,
      "inputs": [
        {
          "indexed": true,
          "internalType": "address",
          "name": "user",
          "type": "address"
        },
        {
          "indexed": false,
          "internalType": "uint256",
          "name": "oldLevel",
          "type": "uint256"
        },
        {
          "indexed": false,
          "internalType": "uint256",
          "name": "newLevel",
          "type": "uint256"
        },
        {
          "indexed": false,
          "internalType": "uint256",
          "name": "teamCount",
          "type": "uint256"
        }
      ],
      "name": "UserLevelChanged",
      "type": "event"
    },
    {
      "anonymous": false,
      "inputs": [
        {
          "indexed": false,
          "internalType": "address",
          "name": "marketing",
          "type": "address"
        },
        {
          "indexed": false,
          "internalType": "address",
          "name": "treasury",
          "type": "address"
        },
        {
          "indexed": false,
          "internalType": "address",
          "name": "lpInjection",
          "type": "address"
        },
        {
          "indexed": false,
          "internalType": "address",
          "name": "buyback",
          "type": "address"
        }
      ],
      "name": "WalletsUpdated",
      "type": "event"
    },
    {
      "inputs": [],
      "name": "MAX_PRICE_IMPACT",
      "outputs": [
        {
          "internalType": "uint256",
          "name": "",
          "type": "uint256"
        }
      ],
      "stateMutability": "view",
      "type": "function"
    },
    {
      "inputs": [],
      "name": "MIN_LIQUIDITY",
      "outputs": [
        {
          "internalType": "uint256",
          "name": "",
          "type": "uint256"
        }
      ],
      "stateMutability": "view",
      "type": "function"
    },
    {
      "inputs": [],
      "name": "REWARD_DIFFERENTIAL",
      "outputs": [
        {
          "internalType": "uint8",
          "name": "",
          "type": "uint8"
        }
      ],
      "stateMutability": "view",
      "type": "function"
    },
    {
      "inputs": [],
      "name": "REWARD_DIRECT",
      "outputs": [
        {
          "internalType": "uint8",
          "name": "",
          "type": "uint8"
        }
      ],
      "stateMutability": "view",
      "type": "function"
    },
    {
      "inputs": [],
      "name": "REWARD_DYNAMIC",
      "outputs": [
        {
          "internalType": "uint8",
          "name": "",
          "type": "uint8"
        }
      ],
      "stateMutability": "view",
      "type": "function"
    },
    {
      "inputs": [],
      "name": "REWARD_LEVEL",
      "outputs": [
        {
          "internalType": "uint8",
          "name": "",
          "type": "uint8"
        }
      ],
      "stateMutability": "view",
      "type": "function"
    },
    {
      "inputs": [],
      "name": "REWARD_STATIC",
      "outputs": [
        {
          "internalType": "uint8",
          "name": "",
          "type": "uint8"
        }
      ],
      "stateMutability": "view",
      "type": "function"
    },
    {
      "inputs": [],
      "name": "SECONDS_IN_UNIT",
      "outputs": [
        {
          "internalType": "uint256",
          "name": "",
          "type": "uint256"
        }
      ],
      "stateMutability": "view",
      "type": "function"
    },
    {
      "inputs": [],
      "name": "UPGRADE_INTERFACE_VERSION",
      "outputs": [
        {
          "internalType": "string",
          "name": "",
          "type": "string"
        }
      ],
      "stateMutability": "view",
      "type": "function"
    },
    {
      "inputs": [
        {
          "internalType": "uint256",
          "name": "mcAmount",
          "type": "uint256"
        },
        {
          "internalType": "uint256",
          "name": "jbcAmount",
          "type": "uint256"
        }
      ],
      "name": "addLiquidity",
      "outputs": [],
      "stateMutability": "nonpayable",
      "type": "function"
    },
    {
      "inputs": [
        {
          "internalType": "address",
          "name": "user",
          "type": "address"
        },
        {
          "internalType": "address",
          "name": "newReferrer",
          "type": "address"
        }
      ],
      "name": "adminSetReferrer",
      "outputs": [],
      "stateMutability": "nonpayable",
      "type": "function"
    },
    {
      "inputs": [
        {
          "internalType": "address",
          "name": "user",
          "type": "address"
        },
        {
          "internalType": "uint8",
          "name": "field",
          "type": "uint8"
        },
        {
          "internalType": "uint256",
          "name": "value",
          "type": "uint256"
        }
      ],
      "name": "adminUpdateUserField",
      "outputs": [],
      "stateMutability": "nonpayable",
      "type": "function"
    },
    {
      "inputs": [
        {
          "internalType": "address[]",
          "name": "users",
          "type": "address[]"
        },
        {
          "internalType": "uint256[]",
          "name": "counts",
          "type": "uint256[]"
        },
        {
          "internalType": "uint256[]",
          "name": "volumes",
          "type": "uint256[]"
        }
      ],
      "name": "batchUpdateUserStats",
      "outputs": [],
      "stateMutability": "nonpayable",
      "type": "function"
    },
    {
      "inputs": [
        {
          "internalType": "address",
          "name": "_referrer",
          "type": "address"
        }
      ],
      "name": "bindReferrer",
      "outputs": [],
      "stateMutability": "nonpayable",
      "type": "function"
    },
    {
      "inputs": [
        {
          "internalType": "uint256",
          "name": "amount",
          "type": "uint256"
        }
      ],
      "name": "buyTicket",
      "outputs": [],
      "stateMutability": "nonpayable",
      "type": "function"
    },
    {
      "inputs": [],
      "name": "buybackPercent",
      "outputs": [
        {
          "internalType": "uint256",
          "name": "",
          "type": "uint256"
        }
      ],
      "stateMutability": "view",
      "type": "function"
    },
    {
      "inputs": [],
      "name": "buybackWallet",
      "outputs": [
        {
          "internalType": "address",
          "name": "",
          "type": "address"
        }
      ],
      "stateMutability": "view",
      "type": "function"
    },
    {
      "inputs": [
        {
          "internalType": "uint256",
          "name": "teamCount",
          "type": "uint256"
        }
      ],
      "name": "calculateLevel",
      "outputs": [
        {
          "internalType": "uint256",
          "name": "level",
          "type": "uint256"
        },
        {
          "internalType": "uint256",
          "name": "percent",
          "type": "uint256"
        }
      ],
      "stateMutability": "pure",
      "type": "function"
    },
    {
      "inputs": [],
      "name": "claimRewards",
      "outputs": [],
      "stateMutability": "nonpayable",
      "type": "function"
    },
    {
      "inputs": [],
      "name": "dailyBurn",
      "outputs": [],
      "stateMutability": "nonpayable",
      "type": "function"
    },
    {
      "inputs": [
        {
          "internalType": "address",
          "name": "",
          "type": "address"
        },
        {
          "internalType": "uint256",
          "name": "",
          "type": "uint256"
        }
      ],
      "name": "directReferrals",
      "outputs": [
        {
          "internalType": "address",
          "name": "",
          "type": "address"
        }
      ],
      "stateMutability": "view",
      "type": "function"
    },
    {
      "inputs": [],
      "name": "directRewardPercent",
      "outputs": [
        {
          "internalType": "uint256",
          "name": "",
          "type": "uint256"
        }
      ],
      "stateMutability": "view",
      "type": "function"
    },
    {
      "inputs": [],
      "name": "emergencyPause",
      "outputs": [],
      "stateMutability": "nonpayable",
      "type": "function"
    },
    {
      "inputs": [],
      "name": "emergencyPaused",
      "outputs": [
        {
          "internalType": "bool",
          "name": "",
          "type": "bool"
        }
      ],
      "stateMutability": "view",
      "type": "function"
    },
    {
      "inputs": [],
      "name": "emergencyUnpause",
      "outputs": [],
      "stateMutability": "nonpayable",
      "type": "function"
    },
    {
      "inputs": [
        {
          "internalType": "address",
          "name": "user",
          "type": "address"
        }
      ],
      "name": "getDirectReferrals",
      "outputs": [
        {
          "internalType": "address[]",
          "name": "",
          "type": "address[]"
        }
      ],
      "stateMutability": "view",
      "type": "function"
    },
    {
      "inputs": [
        {
          "internalType": "uint256",
          "name": "activeDirects",
          "type": "uint256"
        }
      ],
      "name": "getLevelRewardLayers",
      "outputs": [
        {
          "internalType": "uint256",
          "name": "",
          "type": "uint256"
        }
      ],
      "stateMutability": "pure",
      "type": "function"
    },
    {
      "inputs": [
        {
          "internalType": "address",
          "name": "user",
          "type": "address"
        }
      ],
      "name": "getUserLevel",
      "outputs": [
        {
          "internalType": "uint256",
          "name": "level",
          "type": "uint256"
        },
        {
          "internalType": "uint256",
          "name": "percent",
          "type": "uint256"
        },
        {
          "internalType": "uint256",
          "name": "teamCount",
          "type": "uint256"
        }
      ],
      "stateMutability": "view",
      "type": "function"
    },
    {
      "inputs": [
        {
          "internalType": "address",
          "name": "_mcToken",
          "type": "address"
        },
        {
          "internalType": "address",
          "name": "_jbcToken",
          "type": "address"
        },
        {
          "internalType": "address",
          "name": "_marketing",
          "type": "address"
        },
        {
          "internalType": "address",
          "name": "_treasury",
          "type": "address"
        },
        {
          "internalType": "address",
          "name": "_lpInjection",
          "type": "address"
        },
        {
          "internalType": "address",
          "name": "_buybackWallet",
          "type": "address"
        }
      ],
      "name": "initialize",
      "outputs": [],
      "stateMutability": "nonpayable",
      "type": "function"
    },
    {
      "inputs": [],
      "name": "jbcToken",
      "outputs": [
        {
          "internalType": "contract IJBC",
          "name": "",
          "type": "address"
        }
      ],
      "stateMutability": "view",
      "type": "function"
    },
    {
      "inputs": [],
      "name": "lastBurnTime",
      "outputs": [
        {
          "internalType": "uint256",
          "name": "",
          "type": "uint256"
        }
      ],
      "stateMutability": "view",
      "type": "function"
    },
    {
      "inputs": [
        {
          "internalType": "uint256",
          "name": "",
          "type": "uint256"
        }
      ],
      "name": "levelConfigs",
      "outputs": [
        {
          "internalType": "uint256",
          "name": "minDirects",
          "type": "uint256"
        },
        {
          "internalType": "uint256",
          "name": "level",
          "type": "uint256"
        },
        {
          "internalType": "uint256",
          "name": "percent",
          "type": "uint256"
        }
      ],
      "stateMutability": "view",
      "type": "function"
    },
    {
      "inputs": [],
      "name": "levelRewardPercent",
      "outputs": [
        {
          "internalType": "uint256",
          "name": "",
          "type": "uint256"
        }
      ],
      "stateMutability": "view",
      "type": "function"
    },
    {
      "inputs": [],
      "name": "levelRewardPool",
      "outputs": [
        {
          "internalType": "uint256",
          "name": "",
          "type": "uint256"
        }
      ],
      "stateMutability": "view",
      "type": "function"
    },
    {
      "inputs": [],
      "name": "liquidityEnabled",
      "outputs": [
        {
          "internalType": "bool",
          "name": "",
          "type": "bool"
        }
      ],
      "stateMutability": "view",
      "type": "function"
    },
    {
      "inputs": [],
      "name": "lpInjectionPercent",
      "outputs": [
        {
          "internalType": "uint256",
          "name": "",
          "type": "uint256"
        }
      ],
      "stateMutability": "view",
      "type": "function"
    },
    {
      "inputs": [],
      "name": "lpInjectionWallet",
      "outputs": [
        {
          "internalType": "address",
          "name": "",
          "type": "address"
        }
      ],
      "stateMutability": "view",
      "type": "function"
    },
    {
      "inputs": [],
      "name": "marketingPercent",
      "outputs": [
        {
          "internalType": "uint256",
          "name": "",
          "type": "uint256"
        }
      ],
      "stateMutability": "view",
      "type": "function"
    },
    {
      "inputs": [],
      "name": "marketingWallet",
      "outputs": [
        {
          "internalType": "address",
          "name": "",
          "type": "address"
        }
      ],
      "stateMutability": "view",
      "type": "function"
    },
    {
      "inputs": [],
      "name": "mcToken",
      "outputs": [
        {
          "internalType": "contract IERC20",
          "name": "",
          "type": "address"
        }
      ],
      "stateMutability": "view",
      "type": "function"
    },
    {
      "inputs": [],
      "name": "nextStakeId",
      "outputs": [
        {
          "internalType": "uint256",
          "name": "",
          "type": "uint256"
        }
      ],
      "stateMutability": "view",
      "type": "function"
    },
    {
      "inputs": [],
      "name": "nextTicketId",
      "outputs": [
        {
          "internalType": "uint256",
          "name": "",
          "type": "uint256"
        }
      ],
      "stateMutability": "view",
      "type": "function"
    },
    {
      "inputs": [],
      "name": "owner",
      "outputs": [
        {
          "internalType": "address",
          "name": "",
          "type": "address"
        }
      ],
      "stateMutability": "view",
      "type": "function"
    },
    {
      "inputs": [],
      "name": "priceOracle",
      "outputs": [
        {
          "internalType": "address",
          "name": "",
          "type": "address"
        }
      ],
      "stateMutability": "view",
      "type": "function"
    },
    {
      "inputs": [],
      "name": "proxiableUUID",
      "outputs": [
        {
          "internalType": "bytes32",
          "name": "",
          "type": "bytes32"
        }
      ],
      "stateMutability": "view",
      "type": "function"
    },
    {
      "inputs": [],
      "name": "redeem",
      "outputs": [],
      "stateMutability": "nonpayable",
      "type": "function"
    },
    {
      "inputs": [],
      "name": "redeemEnabled",
      "outputs": [
        {
          "internalType": "bool",
          "name": "",
          "type": "bool"
        }
      ],
      "stateMutability": "view",
      "type": "function"
    },
    {
      "inputs": [
        {
          "internalType": "uint256",
          "name": "stakeId",
          "type": "uint256"
        }
      ],
      "name": "redeemStake",
      "outputs": [],
      "stateMutability": "nonpayable",
      "type": "function"
    },
    {
      "inputs": [],
      "name": "redemptionFeePercent",
      "outputs": [
        {
          "internalType": "uint256",
          "name": "",
          "type": "uint256"
        }
      ],
      "stateMutability": "view",
      "type": "function"
    },
    {
      "inputs": [],
      "name": "renounceOwnership",
      "outputs": [],
      "stateMutability": "nonpayable",
      "type": "function"
    },
    {
      "inputs": [
        {
          "internalType": "address",
          "name": "_token",
          "type": "address"
        },
        {
          "internalType": "address",
          "name": "_to",
          "type": "address"
        },
        {
          "internalType": "uint256",
          "name": "_amount",
          "type": "uint256"
        }
      ],
      "name": "rescueTokens",
      "outputs": [],
      "stateMutability": "nonpayable",
      "type": "function"
    },
    {
      "inputs": [
        {
          "internalType": "uint256",
          "name": "_direct",
          "type": "uint256"
        },
        {
          "internalType": "uint256",
          "name": "_level",
          "type": "uint256"
        },
        {
          "internalType": "uint256",
          "name": "_marketing",
          "type": "uint256"
        },
        {
          "internalType": "uint256",
          "name": "_buyback",
          "type": "uint256"
        },
        {
          "internalType": "uint256",
          "name": "_lpInjection",
          "type": "uint256"
        },
        {
          "internalType": "uint256",
          "name": "_treasury",
          "type": "uint256"
        }
      ],
      "name": "setDistributionConfig",
      "outputs": [],
      "stateMutability": "nonpayable",
      "type": "function"
    },
    {
      "inputs": [
        {
          "internalType": "bool",
          "name": "_liquidityEnabled",
          "type": "bool"
        },
        {
          "internalType": "bool",
          "name": "_redeemEnabled",
          "type": "bool"
        }
      ],
      "name": "setOperationalStatus",
      "outputs": [],
      "stateMutability": "nonpayable",
      "type": "function"
    },
    {
      "inputs": [
        {
          "internalType": "uint256",
          "name": "_fee",
          "type": "uint256"
        }
      ],
      "name": "setRedemptionFeePercent",
      "outputs": [],
      "stateMutability": "nonpayable",
      "type": "function"
    },
    {
      "inputs": [
        {
          "internalType": "uint256",
          "name": "_buyTax",
          "type": "uint256"
        },
        {
          "internalType": "uint256",
          "name": "_sellTax",
          "type": "uint256"
        }
      ],
      "name": "setSwapTaxes",
      "outputs": [],
      "stateMutability": "nonpayable",
      "type": "function"
    },
    {
      "inputs": [
        {
          "internalType": "uint256",
          "name": "_duration",
          "type": "uint256"
        }
      ],
      "name": "setTicketFlexibilityDuration",
      "outputs": [],
      "stateMutability": "nonpayable",
      "type": "function"
    },
    {
      "inputs": [
        {
          "internalType": "address",
          "name": "_marketing",
          "type": "address"
        },
        {
          "internalType": "address",
          "name": "_treasury",
          "type": "address"
        },
        {
          "internalType": "address",
          "name": "_lpInjection",
          "type": "address"
        },
        {
          "internalType": "address",
          "name": "_buyback",
          "type": "address"
        }
      ],
      "name": "setWallets",
      "outputs": [],
      "stateMutability": "nonpayable",
      "type": "function"
    },
    {
      "inputs": [
        {
          "internalType": "uint256",
          "name": "amount",
          "type": "uint256"
        },
        {
          "internalType": "uint256",
          "name": "cycleDays",
          "type": "uint256"
        }
      ],
      "name": "stakeLiquidity",
      "outputs": [],
      "stateMutability": "nonpayable",
      "type": "function"
    },
    {
      "inputs": [
        {
          "internalType": "uint256",
          "name": "",
          "type": "uint256"
        }
      ],
      "name": "stakeOwner",
      "outputs": [
        {
          "internalType": "address",
          "name": "",
          "type": "address"
        }
      ],
      "stateMutability": "view",
      "type": "function"
    },
    {
      "inputs": [
        {
          "internalType": "uint256",
          "name": "",
          "type": "uint256"
        },
        {
          "internalType": "uint256",
          "name": "",
          "type": "uint256"
        }
      ],
      "name": "stakePendingRewards",
      "outputs": [
        {
          "internalType": "address",
          "name": "upline",
          "type": "address"
        },
        {
          "internalType": "uint256",
          "name": "amount",
          "type": "uint256"
        }
      ],
      "stateMutability": "view",
      "type": "function"
    },
    {
      "inputs": [],
      "name": "swapBuyTax",
      "outputs": [
        {
          "internalType": "uint256",
          "name": "",
          "type": "uint256"
        }
      ],
      "stateMutability": "view",
      "type": "function"
    },
    {
      "inputs": [
        {
          "internalType": "uint256",
          "name": "jbcAmount",
          "type": "uint256"
        }
      ],
      "name": "swapJBCToMC",
      "outputs": [],
      "stateMutability": "nonpayable",
      "type": "function"
    },
    {
      "inputs": [
        {
          "internalType": "uint256",
          "name": "mcAmount",
          "type": "uint256"
        }
      ],
      "name": "swapMCToJBC",
      "outputs": [],
      "stateMutability": "nonpayable",
      "type": "function"
    },
    {
      "inputs": [],
      "name": "swapReserveJBC",
      "outputs": [
        {
          "internalType": "uint256",
          "name": "",
          "type": "uint256"
        }
      ],
      "stateMutability": "view",
      "type": "function"
    },
    {
      "inputs": [],
      "name": "swapReserveMC",
      "outputs": [
        {
          "internalType": "uint256",
          "name": "",
          "type": "uint256"
        }
      ],
      "stateMutability": "view",
      "type": "function"
    },
    {
      "inputs": [],
      "name": "swapSellTax",
      "outputs": [
        {
          "internalType": "uint256",
          "name": "",
          "type": "uint256"
        }
      ],
      "stateMutability": "view",
      "type": "function"
    },
    {
      "inputs": [],
      "name": "ticketFlexibilityDuration",
      "outputs": [
        {
          "internalType": "uint256",
          "name": "",
          "type": "uint256"
        }
      ],
      "stateMutability": "view",
      "type": "function"
    },
    {
      "inputs": [
        {
          "internalType": "uint256",
          "name": "",
          "type": "uint256"
        }
      ],
      "name": "ticketOwner",
      "outputs": [
        {
          "internalType": "address",
          "name": "",
          "type": "address"
        }
      ],
      "stateMutability": "view",
      "type": "function"
    },
    {
      "inputs": [
        {
          "internalType": "uint256",
          "name": "",
          "type": "uint256"
        },
        {
          "internalType": "uint256",
          "name": "",
          "type": "uint256"
        }
      ],
      "name": "ticketPendingRewards",
      "outputs": [
        {
          "internalType": "address",
          "name": "upline",
          "type": "address"
        },
        {
          "internalType": "uint256",
          "name": "amount",
          "type": "uint256"
        }
      ],
      "stateMutability": "view",
      "type": "function"
    },
    {
      "inputs": [
        {
          "internalType": "address",
          "name": "newOwner",
          "type": "address"
        }
      ],
      "name": "transferOwnership",
      "outputs": [],
      "stateMutability": "nonpayable",
      "type": "function"
    },
    {
      "inputs": [],
      "name": "treasuryPercent",
      "outputs": [
        {
          "internalType": "uint256",
          "name": "",
          "type": "uint256"
        }
      ],
      "stateMutability": "view",
      "type": "function"
    },
    {
      "inputs": [],
      "name": "treasuryWallet",
      "outputs": [
        {
          "internalType": "address",
          "name": "",
          "type": "address"
        }
      ],
      "stateMutability": "view",
      "type": "function"
    },
    {
      "inputs": [
        {
          "internalType": "address",
          "name": "newImplementation",
          "type": "address"
        },
        {
          "internalType": "bytes",
          "name": "data",
          "type": "bytes"
        }
      ],
      "name": "upgradeToAndCall",
      "outputs": [],
      "stateMutability": "payable",
      "type": "function"
    },
    {
      "inputs": [
        {
          "internalType": "address",
          "name": "",
          "type": "address"
        }
      ],
      "name": "userInfo",
      "outputs": [
        {
          "internalType": "address",
          "name": "referrer",
          "type": "address"
        },
        {
          "internalType": "uint256",
          "name": "activeDirects",
          "type": "uint256"
        },
        {
          "internalType": "uint256",
          "name": "teamCount",
          "type": "uint256"
        },
        {
          "internalType": "uint256",
          "name": "totalRevenue",
          "type": "uint256"
        },
        {
          "internalType": "uint256",
          "name": "currentCap",
          "type": "uint256"
        },
        {
          "internalType": "bool",
          "name": "isActive",
          "type": "bool"
        },
        {
          "internalType": "uint256",
          "name": "refundFeeAmount",
          "type": "uint256"
        },
        {
          "internalType": "uint256",
          "name": "teamTotalVolume",
          "type": "uint256"
        },
        {
          "internalType": "uint256",
          "name": "teamTotalCap",
          "type": "uint256"
        },
        {
          "internalType": "uint256",
          "name": "maxTicketAmount",
          "type": "uint256"
        },
        {
          "internalType": "uint256",
          "name": "maxSingleTicketAmount",
          "type": "uint256"
        }
      ],
      "stateMutability": "view",
      "type": "function"
    },
    {
      "inputs": [
        {
          "internalType": "address",
          "name": "",
          "type": "address"
        },
        {
          "internalType": "uint256",
          "name": "",
          "type": "uint256"
        }
      ],
      "name": "userStakes",
      "outputs": [
        {
          "internalType": "uint256",
          "name": "id",
          "type": "uint256"
        },
        {
          "internalType": "uint256",
          "name": "amount",
          "type": "uint256"
        },
        {
          "internalType": "uint256",
          "name": "startTime",
          "type": "uint256"
        },
        {
          "internalType": "uint256",
          "name": "cycleDays",
          "type": "uint256"
        },
        {
          "internalType": "bool",
          "name": "active",
          "type": "bool"
        },
        {
          "internalType": "uint256",
          "name": "paid",
          "type": "uint256"
        }
      ],
      "stateMutability": "view",
      "type": "function"
    },
    {
      "inputs": [
        {
          "internalType": "address",
          "name": "",
          "type": "address"
        }
      ],
      "name": "userTicket",
      "outputs": [
        {
          "internalType": "uint256",
          "name": "ticketId",
          "type": "uint256"
        },
        {
          "internalType": "uint256",
          "name": "amount",
          "type": "uint256"
        },
        {
          "internalType": "uint256",
          "name": "purchaseTime",
          "type": "uint256"
        },
        {
          "internalType": "bool",
          "name": "exited",
          "type": "bool"
        }
      ],
      "stateMutability": "view",
      "type": "function"
    },
    {
      "inputs": [
        {
          "internalType": "address",
          "name": "_to",
          "type": "address"
        },
        {
          "internalType": "uint256",
          "name": "_amount",
          "type": "uint256"
        }
      ],
      "name": "withdrawLevelRewardPool",
      "outputs": [],
      "stateMutability": "nonpayable",
      "type": "function"
    },
    {
      "inputs": [
        {
          "internalType": "address",
          "name": "_toMC",
          "type": "address"
        },
        {
          "internalType": "uint256",
          "name": "_amountMC",
          "type": "uint256"
        },
        {
          "internalType": "address",
          "name": "_toJBC",
          "type": "address"
        },
        {
          "internalType": "uint256",
          "name": "_amountJBC",
          "type": "uint256"
        }
      ],
      "name": "withdrawSwapReserves",
      "outputs": [],
      "stateMutability": "nonpayable",
      "type": "function"
    }
  ],
  "bytecode": "0x60a08060405234620000d157306080527ff0c57e16840df040f15088dc2f81fe391c3923bec73e23a9662efc9c229c6a009081549060ff8260401c16620000c257506001600160401b036002600160401b0319828216016200007c575b604051615f489081620000d782396080518181816125c3015261299d0152f35b6001600160401b031990911681179091556040519081527fc7f505b2f371ae2175ee4913f4499e1f2633a7b5936321eed1cdaeb6115181d290602090a13880806200005c565b63f92ee8a960e01b8152600490fd5b600080fdfe6080604052600436101561001257600080fd5b6000803560e01c806301d62efb14613be957806304ef9d5814613bcb57806304f618cb14613a2357806305ad3935146139c85780630a5c4567146137835780630e2be2101461376757806310ff994d1461329f5780631427f616146132835780631788513c1461325a578063182c84cc146132335780631959a002146131815780631d0dac761461316357806321923bde1461311457806321b77d63146130f057806321f483d3146130a85780632630c12f1461307b57806327c830a91461305857806327f082f41461303a578063372500ab146130195780633dbd46bd14612fe65780634626402b14612fbd578063488b5d9714612fa15780634a4e3bd514612f575780634ea4c6b314612b555780634f1ef2861461292257806351858e27146128d557806352778b051461261b57806352d1902d146125b05780635b7a6b34146124aa5780636031a52f1461248c57806367dd74ca14611c675780636839b5fa14611c4a5780636dd6682714611c2c578063715018a614611bd357806375506c9614611bb557806375f0a87414611b8c57806377a2a54014611b6e578063813380cd14611b4057806381eeef5c14611a3d57806383672f3e146119455780638710bcaa146118e457806388481b61146118c857806388fd4d331461189f5780638a859a85146118835780638c0eaa48146118675780638da5cb5b1461183157806390b0eb51146117e15780639370b080146117c3578063952539921461179c57806399b6024d146116d65780639cd441da146115335780639d99eca4146114e5578063a2af9226146114b2578063ac8f50aa1461145e578063ad3cb1cc146113f4578063b048a4bb146113d1578063b5d5b5fa14611343578063b759936b14611325578063bd594dcf14611307578063be040fb014610cb0578063c2ff12fc14610c7d578063cc2a9a5b14610a6a578063ccf6194414610a4c578063cea9d26f14610950578063ceaa366d14610932578063d0f16470146108a8578063d2c8e0e5146107f9578063d2f82536146107d3578063d4f001421461064c578063d7edbc0c146104c0578063d8020a18146104a2578063dce3dc1f14610477578063deab8aea1461044e578063dec7fa3b14610430578063e306744914610412578063e4412f68146103f4578063ece71266146103a65763f2fde38b1461037757600080fd5b346103a35760203660031901126103a3576103a0610393613c90565b61039b614832565b6147d0565b80f35b80fd5b50346103a35760203660031901126103a3577fc7f6975dcffc536e6e57dd1d1dea810fff534a70563baf2d6f977b119bd00e1b60206004356103e6614832565b80600c55604051908152a180f35b50346103a357806003193601126103a3576020600954604051908152f35b50346103a357806003193601126103a3576020601b54604051908152f35b50346103a357806003193601126103a3576020600c54604051908152f35b50346103a357806003193601126103a3576005546040516001600160a01b039091168152602090f35b50346103a35760203660031901126103a357604061049660043561524a565b82519182526020820152f35b50346103a357806003193601126103a3576020600854604051908152f35b50346103a35760603660031901126103a3576001600160401b0390600435828111610648576104f3903690600401613e2f565b90926024358181116106445761050d903690600401613e2f565b909160443590811161064057610527903690600401613e2f565b9092610531614832565b828514801590610636575b61062457855b85811061057857867f9c03d1f6ba485b6cf0a120117d651729467751d3079318d05171b6f389f6bf4b602088604051908152a180f35b8087600080516020615db3833981519152604088816106056105c78f988e60019a898f8f8f906105ad876105e39481946147ac565b6001600160a01b039b90358c6105cc6105c7868b8b6147ac565b6147bc565b1686526002600f9c8d9760209e8f522001556147ac565b3590886105f46105c78787876147ac565b168c5287526007898c2001556147ac565b90610611878c8b6147ac565b359084519687528601521692a201610542565b60405163980a3f3160e01b8152600490fd5b508185141561053c565b8480fd5b8380fd5b5080fd5b50346103a35760803660031901126103a357610666613c90565b60243590610672613cbc565b826064359261067f614832565b81610755575b5050816106af575b50600080516020615e138339815191529160409182519182526020820152a180f35b916020826106ef946106c382601854613f32565b60185560018060a01b0360015416908760405180988195829463a9059cbb60e01b845260048401613daf565b03925af191821561074a57600080516020615e138339815191529360409361071b575b5091509161068d565b61073c9060203d602011610743575b6107348183613d55565b810190613ea2565b5038610712565b503d61072a565b6040513d86823e3d90fd5b8160209161076861079394601754613f32565b60175560018060a01b03885416908860405180968195829463a9059cbb60e01b845260048401613daf565b03925af180156107c8576107a9575b8390610685565b6107c19060203d602011610743576107348183613d55565b50386107a2565b6040513d87823e3d90fd5b50346103a357806003193601126103a357602060ff60165460081c166040519015158152f35b50346103a357602090816003193601126103a3576001600160a01b03919082610820613c90565b168152601282526040812090604051808484549182815201908194845285842090845b8181106108925750505081610859910382613d55565b6040519380850191818652518092526040850193925b82811061087c5785850386f35b835187168552938101939281019260010161086f565b8254891684529287019260019283019201610843565b50346103a35760c03660031901126103a3577f66682b276e4cd1a4e1f68b55b1143766c5332f472eb593cf2a70a25d9d5d991760c060043560a4356084356064356044356024356108f7614832565b8560065580600755816008558260095583600a5584600b55604051958652602086015260408501526060840152608083015260a0820152a180f35b50346103a357806003193601126103a3576020600a54604051908152f35b50346103a35760603660031901126103a35761096a613c90565b610972613ca6565b6044359161097e614832565b83546001600160a01b038281169491811685148015610a3f575b610a2d57831615610a2d576020604051809563a9059cbb60e01b82528188816109c5878a60048401613daf565b03925af19081156107c8577f77023e19c7343ad491fd706c36335ca0e738340a91f29b1fd81e2673d44896c494610a0892610a0e575b5060405193849384613eba565b0390a180f35b610a269060203d602011610743576107348183613d55565b50386109fb565b60405163e6c4247b60e01b8152600490fd5b5080600154168514610998565b50346103a357806003193601126103a3576020600654604051908152f35b50346103a35760c03660031901126103a357610a84613c90565b610a8c613ca6565b610a94613cbc565b610a9c613cd2565b916001600160a01b0360843581811690819003610c785760a43592828416809403610c7857600080516020615ef383398151915295865460ff8160401c16159660018060401b038216998a1580610c71575b6001809c149081610c67575b159081610c5e575b50610c4c576001600160401b031983168b178a558694859384928e918c610c31575b50610b2d615ca0565b610b35615ca0565b610b3e336147d0565b610b46615ca0565b610b4e615ca0565b610b56615ca0565b8d600080516020615eb38339815191525560018060a01b0319998a9116915416178d5516868b5416178a55168460025416176002551682600354161760035581600454161760045560055416176005556019600655600f600755600560085560056009556019600a556019600b5582600c556032600d556019600e556203f48060155561010161ffff19601654161760165542601b55610bf4578280f35b805460ff60401b191690556040519081527fc7f505b2f371ae2175ee4913f4499e1f2633a7b5936321eed1cdaeb6115181d290602090a138808280f35b6001600160481b0319166001600160401b01178d5538610b24565b60405163f92ee8a960e01b8152600490fd5b90501538610b02565b303b159150610afa565b5088610aee565b600080fd5b50346103a35760203660031901126103a3576020906004358152601c8252604060018060a01b0391205416604051908152f35b50346103a357806003193601126103a357610cc961486b565b60ff8060165460081c16156112f65733825260119160206011815260408220938283908492855b8854811015610e7757876004610d06838c613e13565b5001541615610e6f576002610d1b828b613e13565b5001546003610d2a838c613e13565b50015490603c91828102928184041490151715610e5b5790610d4b91613f05565b421015610d5d575b6001905b01610cf0565b809293610d6a828b613e13565b50610d74906152f9565b9586610d7f91613f05565b95610d8a838c613e13565b5060050190815490610d9b91613f05565b9055338852600f87526040882060090154908a89898415956064610dd6610e029760019995610ddd958b97610e47575b5050600c5490613edc565b0493613e13565b50015481811115610e345790610df681610dfc93613f32565b92613f05565b95613f05565b926004610e0f828c613e13565b5001805460ff19169055610e2d610e26828c613e13565b5054614bf7565b9050610d53565b9050610e3f91613f05565b948890613f05565b879250906010604092522001548f8f610dcb565b634e487b7160e01b89526004849052602489fd5b600190610d57565b50509092918115908180926112ee575b6112dc57846112c8575b80610f6b575b5015610f04575b600f9260405191825282820152600080516020615ed383398151915260403392a2610ec833614d8b565b3383525260408120600460038201549101541115610ef6575b6001600080516020615eb38339815191525580f35b610eff33614e3c565b610ee1565b835460405163a9059cbb60e01b81529390839085906001600160a01b0316818881610f33883360048401613daf565b03925af19384156107c857600f94610f4e575b509250610e9e565b610f6490843d8611610743576107348183613d55565b5085610f46565b338652600f8452610f89604087206003600482015491015490613f32565b8082116112a2575b508015610e9757338652600f845260036040872001610fb1828254613f05565b905585546040516370a0823160e01b808252306004830152889390926001600160a01b0392600183901c918416908981602481855afa80156112975783918d91611266575b5010158061125d575b6111f9575b50601854801580156111e5575b156111a45750670de0b6b3a7640000905b670de0b6b3a764000090818102918183041490151715611190579061104691613f12565b899260015416936040519081523060048201528881602481885afa80156111855782918c91611154575b5010158061114b575b6110d7575b50600080516020615d738339815191529250604051908152600087820152600080516020615e9383398151915260403392a2338852601086526040882054906110ce604051928392339684613f6f565b0390a285610e97565b90915086604051809463a9059cbb60e01b8252818c816110fb873360048401613daf565b03925af192831561114057600080516020615d7383398151915293611123575b50908961107e565b61113990883d8a11610743576107348183613d55565b508961111b565b6040513d8b823e3d90fd5b50801515611079565b8092508a8092503d831161117e575b61116d8183613d55565b81010312610c78578190518c611070565b503d611163565b6040513d8d823e3d90fd5b634e487b7160e01b8b52601160045260248bfd5b601754670de0b6b3a7640000908181029181830414901517156111d157906111cb91613f12565b90611022565b634e487b7160e01b8c52601160045260248cfd5b50683635c9adc5dea0000060175410611011565b60405163a9059cbb60e01b815291955088908290818d8161121e8b3360048401613daf565b03925af1801561125257611235575b50838a611004565b61124b90883d8a11610743576107348183613d55565b508961122d565b6040513d8c823e3d90fd5b50811515610fff565b8092508b8092503d8311611290575b61127f8183613d55565b81010312610c78578290518d610ff6565b503d611275565b6040513d8e823e3d90fd5b906040519081528185820152600080516020615df383398151915260403392a286610f91565b6112d485601754613f05565b601755610e91565b6040516304c4857b60e51b8152600490fd5b508015610e87565b6040516282b42960e81b8152600490fd5b50346103a357806003193601126103a3576020600754604051908152f35b50346103a357806003193601126103a3576020601f54604051908152f35b50346103a35760403660031901126103a35761135d613c90565b6001600160a01b03168152601160205260408120805460243592908310156103a35760c061138b8484613e13565b508054906001810154906002810154600382015490600560ff600485015416930154936040519586526020860152604085015260608401521515608083015260a0820152f35b50346103a357806003193601126103a357602060ff601654166040519015158152f35b50346103a357806003193601126103a35760408051908101906001600160401b03821181831017611448576114449160405260058152640352e302e360dc1b602082015260405191829182613dca565b0390f35b634e487b7160e01b600052604160045260246000fd5b50346103a35761146d36613d2c565b908252601d6020526040822080548210156114ae5761148c9250613d93565b508054600190910154604051918291611444916001600160a01b031683613daf565b8280fd5b50346103a35760403660031901126103a3576103a06114cf613c90565b6114d7613ca6565b906114e0614832565b6144b8565b50346103a35760203660031901126103a3577fd28d9e4ce68d89af7920cb8618e342a78f51e545c530ce60f1cb1d6f0235b47f6020600435611525614832565b80601555604051908152a180f35b50346103a35761154236613d2c565b61154a614832565b8161165b575b80611577575b600080516020615d538339815191529160409182519182526020820152a180f35b6001546040516323b872dd60e01b81529060209082906001600160a01b03168187816115a888303360048501613eba565b03925af1908161163c575b50611611576115c0614429565b6308c379a0146115dd575b6040516320a9b82760e21b8152600490fd5b6115e5614447565b806115f057506115cb565b6040516387a26b7560e01b815290819061160d9060048301613dca565b0390fd5b600080516020615d538339815191529181611630604093601854613f05565b60185591509150611556565b6116549060203d602011610743576107348183613d55565b50386115b3565b82546040516323b872dd60e01b81529060209082906001600160a01b031681878161168b89303360048501613eba565b03925af190816116b7575b506116a3576115c0614429565b6116af82601754613f05565b601755611550565b6116cf9060203d602011610743576107348183613d55565b5038611696565b50346103a35760403660031901126103a3576116f0613c90565b602435906116fc614832565b61170882601f54613f32565b601f55825460405163a9059cbb60e01b815291906001600160a01b03906020908490831681888161173d8a8960048401613daf565b03925af19182156107c8577f27971ee1acbfbdfb20656657ceb2e0e7b519b9e60fe1a6b1f6d27b159f4a607c9360209361177f575b506040519485521692a280f35b61179590843d8611610743576107348183613d55565b5038611772565b50346103a357806003193601126103a357546040516001600160a01b039091168152602090f35b50346103a357806003193601126103a3576020600e54604051908152f35b50346103a3577f4e9dd03193a0c81552fb8e6d32280f0d7e0ce8087241dc3d17ef3d193ee231d7604061181336613d2c565b61181b614832565b81600d5580600e5582519182526020820152a180f35b50346103a357806003193601126103a357600080516020615d93833981519152546040516001600160a01b039091168152602090f35b50346103a357806003193601126103a357602060405160038152f35b50346103a357806003193601126103a357602060405160018152f35b50346103a357806003193601126103a3576004546040516001600160a01b039091168152602090f35b50346103a357806003193601126103a357602060405160048152f35b50346103a35760203660031901126103a3576080906040906001600160a01b0361190c613c90565b16815260106020522080549060018101549060ff6003600283015492015416916040519384526020840152604083015215156060820152f35b50346103a35760803660031901126103a35761195f613c90565b611967613ca6565b90611970613cbc565b91611979613cd2565b90611982614832565b6001600160a01b039283169182158015611a33575b8015611a29575b8015611a1f575b610a2d577f213f1de8063c19612a553f1480ff341bea689d36a56a2089f1b9060d599b5d8394848060809660018060a01b031995878760025416176002551692838660035416176003551692838560045416176004551680936005541617600555604051938452602084015260408301526060820152a180f35b50838116156119a5565b508385161561199e565b5083821615611997565b50346103a357806003193601126103a357601b54620151808101809111611b2c574210611b1a576018548015611b085760648104908115611b085781611a8291613f32565b60185560015482906001600160a01b0316803b1561064857818091602460405180948193630852cd8d60e31b83528860048401525af18015611afd57611ae9575b50600080516020615e3383398151915260408342601b558151908482526020820152a180f35b611af290613d42565b610648578138611ac3565b6040513d84823e3d90fd5b60405163162908e360e11b8152600490fd5b604051636f47a98b60e11b8152600490fd5b634e487b7160e01b82526011600452602482fd5b50346103a357611b4f36613d2c565b90825260136020526040822080548210156114ae5761148c9250613d93565b50346103a357806003193601126103a3576020601754604051908152f35b50346103a357806003193601126103a3576002546040516001600160a01b039091168152602090f35b50346103a357806003193601126103a3576020601a54604051908152f35b50346103a357806003193601126103a357611bec614832565b600080516020615d9383398151915280546001600160a01b031981169091556000906001600160a01b0316600080516020615e538339815191528280a380f35b50346103a357806003193601126103a3576020601554604051908152f35b50346103a357806003193601126103a35760206040516103e88152f35b50346103a35760203660031901126103a357611c8161486b565b60ff604f541661247a57611c943361536a565b68056bc75e2d63100000600435141580612465575b80612450575b8061243b575b611b085780546040516323b872dd60e01b81529060209082906001600160a01b0316818581611ced6004803590309033908501613eba565b03925af18015611afd5761241c575b5033815260106020526040812060038101805460ff161561234157611d2260195461441a565b806019558255600435600183015542600283015560ff198154169055338252600f602052816003604082200155600360043502600435810460031460043515171561232d57338352600f60205260046040842001555b600a6001820154338452600f60205260408420906009820180548211612325575b50500180546004351161231a575b5080548252601c6020908152604080842080546001600160a01b031916339081179091558452600f9091528220546001600160a01b031680151580612306575b1561227a57611e066064611dff600654600435613edc565b0482615536565b908161224b575b50505b338252600f6020526040822054829182916001600160a01b031690829060043580159080046001141715612237579394915b6001600160a01b0381168015158061222d575b80612223575b15611f62578452600f6020526040842060ff60058201541615611f4357506001600160a01b0381168452600f60205260408420600101548390611e9d90613f3f565b11611ed9575b6001600160a01b039081168452600f60205260408420541691611ecf90611ec99061441a565b9561441a565b935b939491611e42565b611ee86064600435048261573a565b80611ef4575b50611ea3565b9182611eff91613f05565b91338552601060205260408520546040519182526003602083015260408201523390600080516020615d33833981519152606060018060a01b03851692a338611eee565b5492956001600160a01b0390931692611f5c915061441a565b93611ed1565b848684611f816007916064611f7b600754600435613edc565b04613f32565b806121de575b508260018060a01b038154166020611fd360018060a01b0360025416926064611fb4600854600435613edc565b0460405195868094819363a9059cbb60e01b9889845260048401613daf565b03925af19182156107c857612041926121bf575b506120016064611ffb600954600435613edc565b04615a60565b845460048054600a546020936001600160a01b03928316939216916064916120299135613edc565b04918860405180978195829489845260048401613daf565b03925af19081156107c857612096926020926121a2575b5060018060a01b0386541660018060a01b036003541687606461207f600b54600435613edc565b049360405196879586948593845260048401613daf565b03925af1801561074a57612183575b50336000908152600f60205260408120549092600435151592916001600160a01b03165b6001600160a01b031680151580612179575b1561212457600052600f6020526121078360406000209061210d575b546001600160a01b03169461441a565b936120c9565b83810161211d6004358254613f05565b90556120f7565b858261212f33614d8b565b5460405190600435825260208201527f2a91574e12ad96234e84923e146b0946ecfb871cd8d5534dc1fdcbe87a7c01b360403392a26001600080516020615eb38339815191525580f35b50601e85106120db565b61219b9060203d602011610743576107348183613d55565b50836120a5565b6121b890833d8511610743576107348183613d55565b5086612058565b6121d79060203d602011610743576107348183613d55565b5085611fe7565b60408161220e7fca2e2bff26d2adb9fe155e9265350494c16751676879cb7ced9141e0fcf3934393601f54613f05565b80601f5582519182526020820152a183611f87565b5060148710611e5b565b50600f8410611e55565b634e487b7160e01b84526011600452602484fd5b8254604051928352600260208401526040830152600080516020615d3383398151915260603393a33880611e0d565b5081546002546006546122c7926020926001600160a01b03908116929116906064906122a890600435613edc565b04918660405180968195829463a9059cbb60e01b845260048401613daf565b03925af180156122fb576122dc575b50611e10565b6122f49060203d602011610743576107348183613d55565b50386122d6565b6040513d85823e3d90fd5b5080835260ff600560408520015416611de7565b600435905538611da7565b553880611d99565b634e487b7160e01b83526011600452602483fd5b600182018054806123af575061235860195461441a565b806019558355600435905542600283015560ff198154169055338252600f602052816003604082200155600360043502600435810460031460043515171561232d57338352600f6020526004604084200155611d78565b6123be91925060043590613f05565b9055338252600f60205260ff600560408420015416612411575b600360043502600435810460031460043515171561232d57338352600f60205261240a60046040852001918254613f05565b9055611d78565b4260028201556123d8565b6124349060203d602011610743576107348183613d55565b5038611cfc565b50683635c9adc5dea000006004351415611cb5565b50681b1ae4d6e2ef5000006004351415611caf565b50681043561a88293000006004351415611ca9565b60405163ab35696f60e01b8152600490fd5b50346103a357806003193601126103a3576020601954604051908152f35b50346103a35760603660031901126103a3576124c4613c90565b60243560ff81168091036114ae57604435916124de614832565b6001600160a01b0316918215610a2d577fb21e06a24040d31ea53de8d9fd47be2839542a0a11c6ccacc9385ae51901762091604091848652600f6020528083872086841560001461253d5750600101555b82519182526020820152a280f35b91600185036125715750846002600080516020615db3833981519152920184815491558151908152846020820152a261252f565b915060028403612584576003015561252f565b60038403612595576004015561252f565b600484146125a5575b505061252f565b60060155803861259e565b50346103a357806003193601126103a3577f00000000000000000000000000000000000000000000000000000000000000006001600160a01b03163003612609576020604051600080516020615dd38339815191528152f35b60405163703e46dd60e11b8152600490fd5b50346103a357602080600319360112610648576004359061263a61486b565b60ff604f541661247a578115611b0857683635c9adc5dea0000080601754109081156128c9575b5061283d576001546040516323b872dd60e01b81526001600160a01b03918390829084168188816126978a303360048501613eba565b03925af180156107c8576128ac575b5060646126b5600e5485613edc565b04906126c18285613f32565b92612710808502908582041485151715612898576126e56103e89160185490613f12565b11611b0857858260015416803b1561064857818091602460405180948193630852cd8d60e31b83528a60048401525af18015611afd57612880575b5050601754936127308582613edc565b90612748601854926127428385613f05565b90613f12565b93885416956040516370a0823160e01b815230600482015284816024818b5afa80156112525786918b9161284f575b501061283d5761278b859261279394613f05565b601855613f32565b60175580604051809563a9059cbb60e01b82528189816127b7883360048401613daf565b03925af1938415612832577f223c8ad0806f634524940a8595f819c5cfc7b1f4f4f45791269301df0a7e61d594612814575b50506127fc604051928392339684613d16565b0390a26001600080516020615eb38339815191525580f35b8161282a92903d10610743576107348183613d55565b5038806127e9565b6040513d88823e3d90fd5b6040516343c7ad8160e11b8152600490fd5b809250868092503d8311612879575b6128688183613d55565b81010312610c785785905138612777565b503d61285e565b61288990613d42565b612894578538612720565b8580fd5b634e487b7160e01b87526011600452602487fd5b6128c290833d8511610743576107348183613d55565b50386126a6565b90506018541038612661565b50346103a357806003193601126103a3576128ee614832565b600160ff19604f541617604f557f4cb3183d0bf66f9634b15cfc3539fdddc96c2c9324848af89b56586a6739fec48180a180f35b5060403660031901126103a357612937613c90565b60249182356001600160401b038111610648573660238201121561064857806004013561296381613d78565b936129716040519586613d55565b818552602091828601933688838301011161289457818692898693018737870101526001600160a01b037f00000000000000000000000000000000000000000000000000000000000000008116308114908115612b39575b50612609576129d6614832565b8116946040516352d1902d60e01b815283816004818a5afa869181612b06575b50612a1357604051634c9c8ce360e01b8152600481018890528890fd5b869088600080516020615dd383398151915291828103612af15750843b15612adb575080546001600160a01b031916821790556040518692917fbc7cd75a20ee27fd9adebab32041f755214dbc6bffa90cc0225b39da2e5c2d3b8480a2815115612abd5750612ab09482915190845af4903d15612ab4573d612a9481613d78565b90612aa26040519283613d55565b81528581943d92013e615ccf565b5080f35b60609250615ccf565b94505050505034612acc575080f35b63b398979f60e01b8152600490fd5b604051634c9c8ce360e01b815260048101849052fd5b60405190632a87526960e21b82526004820152fd5b9091508481813d8311612b32575b612b1e8183613d55565b81010312612b2e575190386129f6565b8680fd5b503d612b14565b905081600080516020615dd383398151915254161415386129c9565b50346103a357612b6436613d2c565b90612b6d61486b565b60ff604f541661247a573383526020906010825260408420926001840193845415612f45576003015460ff16612f3357600781141580612f28575b80612f1d575b612f0b578115611b085784546040516323b872dd60e01b81526001600160a01b039591859082908816818a81612be98a303360048501613eba565b03925af18015612f0057612ee3575b50612c04601a5461441a565b601a81905533875260118552604080882090519160c083016001600160401b0381118482101761144857604052825285820185815260408301428152606084019086825260808501926001845260a08601948c8652805490600160401b821015612ecf5790612c7891600182018155613e13565b969096612ebb5791612cb793916005969593518855516001880155516002870155516003860155511515600485019060ff801983541691151516179055565b51910155601a548652601e8452604080872080546001600160a01b031916339081179091558752600f85528620600a018054918215612ead575b5050609681029080820460961490151715612e9957606490048203611b08577fa8a1b9e33e503eed12bf7e7c8c01c7f3b60217a496bddd0f5db351dd8c056c1c90612d3b33614d8b565b601a5490612d50604051928392339684613d16565b0390a2338352600f815260066040842001918383549384612d82575b506001600080516020615eb38339815191525580f35b556017548381101580612e30575b612d9c575b8490612d6c565b83612da691613f32565b6017558354169080604051809363a9059cbb60e01b8252818781612dce893360048401613daf565b03925af191821561074a577f3437b9ea7fa19c6d233dd70cc787a70fab87cee64d8ba4571512cc84402748f992612e13575b506040519283523392a238808080612d95565b612e2990823d8411610743576107348183613d55565b5038612e00565b5060248383875416604051928380926370a0823160e01b82523060048301525afa80156128325785918791612e68575b501015612d90565b809250858092503d8311612e92575b612e818183613d55565b81010312610c785784905138612e60565b503d612e77565b634e487b7160e01b86526011600452602486fd5b909150548091553880612cf1565b634e487b7160e01b8d5260048d905260248dfd5b634e487b7160e01b8e52604160045260248efd5b612ef990853d8711610743576107348183613d55565b5038612bf8565b6040513d89823e3d90fd5b604051634dc7f5ff60e11b8152600490fd5b50601e811415612bae565b50600f811415612ba8565b604051631ecb2c4f60e31b8152600490fd5b604051634065aaf160e11b8152600490fd5b50346103a357806003193601126103a357612f70614832565b60ff19604f5416604f557f15de7ad89d29fd1c6d2e6b1e878453569b4080edf34e0105faaa3bd52f0185308180a180f35b50346103a357806003193601126103a3576020604051603c8152f35b50346103a357806003193601126103a3576003546040516001600160a01b039091168152602090f35b50346103a35760203660031901126103a3576020906004358152601e8252604060018060a01b0391205416604051908152f35b50346103a357806003193601126103a35761303261486b565b610ee1613f8c565b50346103a357806003193601126103a3576020600d54604051908152f35b50346103a357806003193601126103a357602060ff604f54166040519015158152f35b50346103a357806003193601126103a357604f5460405160089190911c6001600160a01b03168152602090f35b50346103a35760203660031901126103a357600435906014548210156103a3576020816014600393522091020180546114446002600184015493015460405193849384613d16565b50346103a357806003193601126103a3576020604051683635c9adc5dea000008152f35b50346103a35760203660031901126103a357611444906002906040906001600160a01b03613140613c90565b168152600f6020522001546131548161524a565b92909160405193849384613d16565b50346103a357806003193601126103a3576020601854604051908152f35b50346103a35760203660031901126103a357610160906001600160a01b0390604090826131ac613c90565b168152600f60205220908154169060018101549060028101546003820154600483015460ff600585015416600685015491600786015493600887015495600a6009890154980154986040519a8b5260208b015260408a015260608901526080880152151560a087015260c086015260e0850152610100840152610120830152610140820152f35b50346103a35760203660031901126103a3576020613252600435613f3f565b604051908152f35b50346103a357806003193601126103a3576001546040516001600160a01b039091168152602090f35b50346103a357806003193601126103a357602090604051908152f35b50346103a357602090816003193601126103a3576004356132be61486b565b60ff60165460081c16156112f6573382526011835260408220908154811080159061374e575b612f45576132f191613e13565b509160018301928354936002820154916003810154926005820190815494338852600f8752600960408920015460108852600160408a200154600c54916040519361010085019585871060018060401b038811176114485761337d966040528d86528b8601526040850152886060850152608084015260a083015260c0820152603c60e082015261489b565b939192909583941561373c578361339391613f05565b905560048101805460ff1916905586546001600160a01b03986133be91879190309033908d1661498d565b1561372a576133d390856136fb575b54614bf7565b80613409575b5050600f939450549060405191825282820152600080516020615ed383398151915260403392a2610ec833614d8b565b338652600f8552613427604087206003600482015491015490613f32565b8091116136f3575b508061343c575b806133d9565b338552600f845260036040862001613455828254613f05565b90558060011c958086541690604051916370a0823160e01b928381523060048201528781602481855afa90811561114057918a89928b9485916136be575b501015806136b5575b61365f575b5050506018548015801561364b575b1561360757506134ca670de0b6b3a7640000985b84613f32565b670de0b6b3a7640000908181029181830414901517156135f35787986134ef91613f12565b9060015416916040519081523060048201528681602481865afa9081156135e85788916135b6575b50811115806135ad575b613553575b5050600f9450604051908152600084820152600080516020615e9383398151915260403392a28493613436565b85916135769160405198898094819363a9059cbb60e01b83523360048401613daf565b03925af194851561283257600f95613590575b8695613526565b6135a690853d8711610743576107348183613d55565b5038613589565b50801515613521565b809850878092503d83116135e1575b6135cf8183613d55565b81010312610c78578088975190613517565b503d6135c5565b6040513d8a823e3d90fd5b634e487b7160e01b88526011600452602488fd5b601754670de0b6b3a764000090818102918183041490151715613637576134ca9161363191613f12565b986134c4565b634e487b7160e01b89526011600452602489fd5b50683635c9adc5dea00000601754106134b0565b60405163a9059cbb60e01b8152928391908290816136818f3360048401613daf565b03925af180156135e857613698575b8688916134a1565b6136ae90873d8911610743576107348183613d55565b5038613690565b508a151561349c565b93929450505081813d83116136ec575b6136d88183613d55565b81010312610c785788918a89925138613493565b503d6136ce565b90503861342f565b61370786601754613f05565b601755338852600f875260066040892001613723878254613f05565b90556133cd565b6040516312171d8360e31b8152600490fd5b604051630407b05b60e31b8152600490fd5b5060ff600461375d8385613e13565b50015416156132e4565b50346103a357806003193601126103a357602060405160028152f35b50346103a35760208060031936011261064857600435906137a261486b565b60ff604f541661247a578115611b0857683635c9adc5dea0000080601754109081156139bc575b5061283d5782546040516323b872dd60e01b81526001600160a01b03918390829084168188816137fe8a303360048501613eba565b03925af180156107c85761399f575b506018549061381c8285613edc565b9061382e601754926127428785613f05565b92612710860261270f19878204016135f35761384d846103e892613f12565b11611b08576064613860600d5486613edc565b049361386c8582613f32565b938360015416916040516370a0823160e01b81523060048201528881602481875afa80156111855782918c9161396a575b501061283d5789936138b28a6138ba94613f05565b601755613f32565b601855803b15610648578190602460405180948193630852cd8d60e31b83528960048401525af18015612f0057613957575b50600154169280604051809563a9059cbb60e01b8252818981613913883360048401613daf565b03925af1938415612832577f36864aeefce16bc4aaceeb6b0cdfb2ad1455a8cb4ccb0db148a2bc6e7166f97c946128145750506127fc604051928392339684613d16565b61396390969196613d42565b94386138ec565b8092508a8092503d8311613998575b6139838183613d55565b81010312613994578190513861389d565b8a80fd5b503d613979565b6139b590833d8511610743576107348183613d55565b503861380d565b905060185410386137c9565b50346103a35760403660031901126103a3576139e2613c90565b6001600160a01b039081168252601260205260408220805460243593908410156103a35750602092613a1391613ce8565b9190546040519260031b1c168152f35b50346103a357602090816003193601126103a357613a3f613c90565b338252600f808452604083205490926001600160a01b039290918316613bb9578216338114613ba7578015610a2d5733808352600f8652604080842080546001600160a01b03191684179055828452601287528320613a9e9190613e5f565b338252600f855282604083205416938383955b1680151580613b9d575b15613b7357808452818752604084209060028201805460018101918282116135f3579282613b108a969383600080516020615db38339815191528f6040908b99613b309b5586825191868352820152a261524a565b50613b1a8261524a565b5090808203613b36575b5050505054169661441a565b95613ab1565b613b677fea8384d3ca7bf5b7510d3faee44a3774406c1fd3ac14fff110a8c98d47a259569360405193849384613d16565b0390a238808080613b24565b5050337fa6dbb5aa28f35437de94d685d66edce5fb4812196b4984b91dfd5a7b38c0fb308380a380f35b50601e8610613abb565b604051631acade8960e31b8152600490fd5b60405163682a906560e01b8152600490fd5b50346103a357806003193601126103a3576020600b54604051908152f35b50346103a35760403660031901126103a35760043580151580910361064857602435908115158092036114ae577f03cb373f89de891077fe47cec43663b6727713de0337af46bebd1178122251b7917fb886fcb5b9c12916f26d967ebe962dbd51ec249fb55961da39c851cdfc10115c60208093613c65614832565b6016805461ffff191660ff831617600886901b61ff0016179055604051908152a1604051908152a180f35b600435906001600160a01b0382168203610c7857565b602435906001600160a01b0382168203610c7857565b604435906001600160a01b0382168203610c7857565b606435906001600160a01b0382168203610c7857565b8054821015613d005760005260206000200190600090565b634e487b7160e01b600052603260045260246000fd5b6040919493926060820195825260208201520152565b6040906003190112610c78576004359060243590565b6001600160401b03811161144857604052565b601f909101601f19168101906001600160401b0382119082101761144857604052565b6001600160401b03811161144857601f01601f191660200190565b8054821015613d005760005260206000209060011b0190600090565b6001600160a01b039091168152602081019190915260400190565b6020808252825181830181905290939260005b828110613dff57505060409293506000838284010152601f8019910116010190565b818101860151848201604001528501613ddd565b8054821015613d00576000526006602060002091020190600090565b9181601f84011215610c78578235916001600160401b038311610c78576020808501948460051b010111610c7857565b80549190600160401b8310156114485782613e82916001613ea095018155613ce8565b90919060018060a01b038084549260031b9316831b921b1916179055565b565b90816020910312610c7857518015158103610c785790565b6001600160a01b03918216815291166020820152604081019190915260600190565b81810292918115918404141715613eef57565b634e487b7160e01b600052601160045260246000fd5b91908201809211613eef57565b8115613f1c570490565b634e487b7160e01b600052601260045260246000fd5b91908203918211613eef57565b6003811015613f69576002811015613f635760011115613f5e57600090565b600590565b50600a90565b50600f90565b606091949392608082019582526020820152600060408201520152565b6000338152602090601082526040908181209260018085015415801561440c575b6143fb573383526011825283832083919082825b614372575b505050801561436157338352600f8252613fe68160038686200154613f05565b94338452600f83528484209560049687810154809211614349575b5050811561433a57338452600f8352600385852001614021838254613f05565b9055835485516370a0823160e01b808252308983015286946001600160a01b0394939092600184901c918616908881602481855afa9081156143305789929184918c916142f8575b501015806142ef575b61428b575b505060185480158015614277575b156142375750670de0b6b3a7640000905b670de0b6b3a76400009081810291818304149015171561422457906140ba91613f12565b90879460015416908951908152308b8201528781602481855afa90811561421a579083918a916141e5575b501015806141dc575b61415b575b505091600080516020615d7383398151915291600f95949388519081528786820152600080516020615e93833981519152893392a2549061413a8851928392339684613f6f565b0390a233835252206003810154910154111561415257565b613ea033614e3c565b816141829293955087918b8a8c5180968195829463a9059cbb60e01b845233908401613daf565b03925af180156141d25791600080516020615d738339815191529391600f979695936141b5575b509394958193506140f3565b6141cb90873d8911610743576107348183613d55565b50386141a9565b88513d89823e3d90fd5b508115156140ee565b809250898092503d8311614213575b6141fe8183613d55565b8101031261420f57829051386140e5565b8880fd5b503d6141f4565b8a513d8b823e3d90fd5b634e487b7160e01b895260118b52602489fd5b601754670de0b6b3a764000090818102918183041490151715614264579061425e91613f12565b90614096565b634e487b7160e01b8a5260118c5260248afd5b50683635c9adc5dea0000060175410614085565b829750916142b0928c8b8d5180968195829463a9059cbb60e01b845233908401613daf565b03925af180156142e5576142c8575b50848638614077565b6142de90873d8911610743576107348183613d55565b50386142bf565b89513d8a823e3d90fd5b50821515614072565b92938092508391503d8311614329575b6143128183613d55565b8101031261432557908289925138614069565b8980fd5b503d614308565b8b513d8c823e3d90fd5b505050505050613ea033614e3c565b6143599293506003015490613f32565b903880614001565b8351630fec21fd60e21b8152600490fd5b81548110156143f6578260ff600461438a8486613e13565b50015416156143ee57506143a76143a18284613e13565b506152f9565b806143bb575b50908280925b019091613fc1565b938392916143ca868593613f05565b956143e460056143da8487613e13565b5001918254613f05565b90559192506143ad565b8092916143b3565b613fc6565b8351634065aaf160e11b8152600490fd5b5060ff600386015416613fad565b6000198114613eef5760010190565b60009060033d1161443657565b905060046000803e60005160e01c90565b600060443d106144a457604051600319913d83016004833e81516001600160401b03918282113d6024840111176144a7578184019485519384116144af573d850101602084870101116144a757506144a492910160200190613d55565b90565b949350505050565b50949350505050565b916001600160a01b039081841690811580156147a2575b610a2d57828416808314613ba75784846000965b1680151580614798575b1561451957848114613ba757600052600f6020528461451381604060002054169761441a565b966144e3565b506000848152600f60208181526040928390208054969a959950868916989496898b1461478b576001600160a01b0319168a17905587151594856146ae575b61456d908a6000526012835284600020613e5f565b8660005281815260029560028460002001549060019660018301809311613eef5761462e575b8a6145c8575b50505050505050507ff8b9fe4d008320e6f048c61e41e9cc56ce351354ad0cb9a868bd3c4bd6928fd5600080a4565b600090875b6145d8575b50614599565b861680151580614624575b1561461f5780600052848452888660002001614600848254613f05565b9055600052838352614618868660002054169161441a565b90876145cd565b6145d2565b50601e82106145e3565b866000878c835b614643575b50505050614593565b16801515806146a4575b1561469d5760008181528787528890208b018054861161469457614672868254613f32565b90555b60005285855261468b888860002054169161441a565b90889083614635565b60009055614675565b889061463a565b50601e821061464d565b9897969594939291908760005260128152826000209960005b8b54808210156147765786908a6146df8f8590613ce8565b939054600394851b1c16146146f85750506001016146c7565b60009d91929495969798999a9b9c9d1994858201918211613eef57613e828a6147246147329486613ce8565b905490871b1c169184613ce8565b805480156147605761456d948991019261474c8484613ce8565b81939154921b1b19169055555b9050614558565b634e487b7160e01b600052603160045260246000fd5b505061456d9192939495969798999a50614759565b5050505050505050505050565b50603287106144ed565b50828416156144cf565b9190811015613d005760051b0190565b356001600160a01b0381168103610c785790565b6001600160a01b0390811690811561481957600080516020615d9383398151915280546001600160a01b03198116841790915516600080516020615e53833981519152600080a3565b604051631e4fbdf760e01b815260006004820152602490fd5b600080516020615d93833981519152546001600160a01b0316330361485357565b60405163118cdaa760e01b8152336004820152602490fd5b600080516020615eb383398151915260028154146148895760029055565b604051633ee5aeb560e01b8152600490fd5b9060208201516148bf60408401916148b9835160e087015190613edc565b90613f05565b421090811591614981576148fd81633b9aca0092516007811460001461495757506148f563ffffffff62cb73565b168751613edc565b905190613edc565b0460608401518082116000146149495761491c61493791606493613f32565b6080860151909590801561493b5760c090915b015190613edc565b0491565b5060c060a08201519161492f565b50506064614937600061491c565b600f0361496f576148f563ffffffff62fe502b6148ed565b6148f563ffffffff6301312d006148ed565b50600092508291829150565b93909181614a03575b505060405163a9059cbb60e01b8152926020928492839160009183916149bf9160048401613daf565b03926001600160a01b03165af19081156149f7576000916149de575090565b6144a4915060203d602011610743576107348183613d55565b6040513d6000823e3d90fd5b60018060a09594951b03808616916040938451926370a0823160e01b84528088169081600486015260209485816024818a5afa908115614b8657908491600091614b55575b5010614b4657865191636eb1769f60e11b83526004830152831660248201528381604481885afa908115614b3b57908291600091614b0a575b5010614afd57614aab938392600087518097819582946323b872dd60e01b84528d60048501613eba565b03925af1928315614af35750600092614ad6575b505015614ace57903880614996565b505050600090565b614aec9250803d10610743576107348183613d55565b3880614abf565b513d6000823e3d90fd5b5050505050505050600090565b809250858092503d8311614b34575b614b238183613d55565b81010312610c785781905138614a81565b503d614b19565b86513d6000823e3d90fd5b50505050505050505050600090565b809250878092503d8311614b7f575b614b6e8183613d55565b81010312610c785783905138614a48565b503d614b64565b88513d6000823e3d90fd5b8051821015613d005760209160051b010190565b80549060009081815582614bb857505050565b6001906001600160ff1b038416840361232d578252602082209260011b8301925b838110614be65750505050565b808360029255838382015501614bd9565b6000818152601e6020908152604080832054601d8352818420805493969495929492936001600160a01b0392831693906001600160401b0390818111614d6a5787519391614c4b600583901b8c0186613d55565b81855291895289892089928b86015b838510614d33575050505050865b8251811015614d1c5780614c9985614c8260019487614b91565b5151168b614c908488614b91565b510151906158cd565b86898c83614ce3575b8a92507fae629b396150638d6eb6de457cbffe5d618a10c8cc199a94976bed2b16ecd993915088614cd3868a614b91565b515116938c51908152a301614c68565b6060600080516020615d33833981519152918c8b614d01898d614b91565b515116946004815193898552840152820152a386898c614ca2565b5096915050601d9150613ea0949283525220614ba5565b8a518b810181811084821117612ecf576001928f91926002938f528b87541681528487015483820152815201930194019391614c5a565b634e487b7160e01b89526041600452602489fd5b8015613eef576000190190565b60018060a01b038060009216825260106020526040822090600182015415159182614e2c575b50600f602052604083206005810160ff815416151584151514614e2557805460ff191660ff851515161790555416918215614e205760019260409215614e08578152600f6020522001614e04815461441a565b9055565b81522001805480614e17575050565b614e0490614d7e565b505050565b5050505050565b6003015460ff1615915038614db1565b6001600160a01b038116600081815260106020526040902060038101805492939260ff811615614e6d575050505050565b906001602495969260ff19161790556011602052604060002094600092600094602060018060a01b0360005416604051988980926370a0823160e01b82523060048301525afa9687156149f757600097615216575b50600095945b8854871015614f835760ff6004614edf898c613e13565b5001541615614f79576001614ef4888b613e13565b50015490818060011b0460021482151715613eef5789614f4c916001614f2e8b61012c614f278498600c5490861b613edc565b0494613e13565b500154828110614f6c57906148b983614f4693613f32565b97613f05565b966004614f59828c613e13565b5001805460ff191690555b019594614ec8565b60009250614f4691613f05565b9495600190614f64565b939750909450819593919383615073575b505091600080516020615ed38339815191526040600080516020615e73833981519152959385602096615052575b6000858152600f885283902060058101805460ff19811690915590546001600160a01b03169060ff1680615049575b80615035575b615019575b50825191825286820152a254604051908152a23880808080614e25565b6000526001836000200161502d8154614d7e565b905538614ffc565b508060005260018460002001541515614ff7565b50801515614ff1565b84600052600f87526006836000200161506c828254613f05565b9055614fc2565b90949293908481106151175750506000805460405163a9059cbb60e01b81529560209287926001600160a01b03169183919082906150b6908a9060048401613daf565b03925af19384156149f75760406020948793600080516020615ed383398151915293600080516020615e73833981519152986150fa575b505b939550939550614f94565b61511090883d8a11610743576107348183613d55565b50386150ed565b909293948161516a575b506040600080516020615e7383398151915295849360209695600080516020615df383398151915284600080516020615ed3833981519152968151908682528b820152a26150ef565b816151a0929395945060209160018060a01b036000541690600060405180968195829463a9059cbb60e01b845260048401613daf565b03925af180156149f757600080516020615e738339815191529560209588600080516020615df383398151915260408297600080516020615ed38339815191529782976151f9575b509650505050939495509550615121565b61520f908c3d8e11610743576107348183613d55565b50386151e8565b9096506020813d602011615242575b8161523260209383613d55565b81010312610c7857519538614ec2565b3d9150615225565b620186a08110156152f0576175308110156152e7576127108110156152de57610bb88110156152d5576103e88110156152cc5761012c8110156152c35760648110156152ba57601e8110156152b157600a11156152a957600090600090565b600190600590565b50600290600a90565b50600390600f90565b50600490601490565b50600590601990565b50600690601e90565b50600790602390565b50600890602890565b50600990602d90565b600381015461530781615c7a565b90603c615318600285015442613f32565b0490808211615362575b508015614ace57615347633b9aca00916153426005946001870154613edc565b613edc565b04910154808211615359575050600090565b6144a491613f32565b905038615322565b6001600160a01b039081166000818152601060209081526040808320600181810180549697909693959094929184158015615528575b6154d357601184528682208054839291835b8281106154e857505050506154de5760028201966153d4885460155490613f05565b4211156154d357600383837f57025f0027038907eda728b59164fb63d06048f42e618a35267e6a12e49b2e469a8a9654998d8352600f895260ff60058985209283541692015416806154ca575b806154b8575b61549e575b508c8252600f88528187812095816004600589019860ff19998a8154169055828982015501558185555555019081541690558461546f575b5051928352820152a2565b84815260138352615481828220614ba5565b848152601c83522080546001600160a01b03191690558338615464565b82526001878320016154b08154614d7e565b90553861542c565b50808352600188842001541515615427565b50801515615421565b505050505050505050565b5050505050505050565b60ff60046154f68385613e13565b50015416615506575b83016153b2565b936155208491826155178886613e13565b50015490613f05565b9490506154ff565b5060ff6003840154166153a0565b60018060a01b03808216906000918083526020600f8152604090818520936010825282862060ff6005870154161590811561572b575b811561571e575b5061571357602482828854168551928380926370a0823160e01b82523060048301525afa9081156157095790899188916156d8575b50106156b3576004850195600387549601956155c687548092613f32565b8a81811161568b575b505089806155f5575b5050505050505054905411156155ec575090565b6144a490614e3c565b61562693615604828794613f05565b89558354168a84885180978195829463a9059cbb60e01b845260048401613daf565b03925af1908115615680575090600080516020615e93833981519152939291615663575b506002825191898352820152a2388080808080896155d8565b61567990823d8411610743576107348183613d55565b503861564a565b8451903d90823e3d90fd5b819b5086600080516020615df38339815191529189939d825191825288820152a238806155cf565b50849692955081600080516020615df38339815191529592945051928352820152a290565b809250848092503d8311615702575b6156f18183613d55565b81010312612b2e57889051386155a8565b503d6156e7565b84513d89823e3d90fd5b505050505091505090565b6001915001541538615573565b600381015460ff16915061556c565b60018060a01b03808216906000918083526020600f8152604090818520936010825282862060ff600587015416159081156158be575b81156158b1575b5061571357602482828854168551928380926370a0823160e01b82523060048301525afa908115615709579089918891615880575b50106156b3576004850195600387549601956157ca87548092613f32565b8a818111615858575b505089806157ef575050505050505054905411156155ec575090565b6157fe93615604828794613f05565b03925af1908115615680575090600080516020615e9383398151915293929161583b575b506003825191898352820152a2388080808080896155d8565b61585190823d8411610743576107348183613d55565b5038615822565b819b5086600080516020615df38339815191529189939d825191825288820152a238806157d3565b809250848092503d83116158aa575b6158998183613d55565b81010312612b2e57889051386157ac565b503d61588f565b6001915001541538615777565b600381015460ff169150615770565b60018060a01b03808216906000918083526020600f8152604090818520936010825282862060ff60058701541615908115615a51575b8115615a44575b5061571357602482828854168551928380926370a0823160e01b82523060048301525afa908115615709579089918891615a13575b50106156b35760048501956003875496019561595d87548092613f32565b8a8181116159eb575b50508980615982575050505050505054905411156155ec575090565b61599193615604828794613f05565b03925af1908115615680575090600080516020615e938339815191529392916159ce575b506004825191898352820152a2388080808080896155d8565b6159e490823d8411610743576107348183613d55565b50386159b5565b819b5086600080516020615df38339815191529189939d825191825288820152a23880615966565b809250848092503d8311615a3d575b615a2c8183613d55565b81010312612b2e578890513861593f565b503d615a22565b600191500154153861590a565b600381015460ff169150615903565b908115615c7657601754683635c9adc5dea00000808210908115615c6a575b50615c655760018060a01b03926000938085541692604093845191826370a0823160e01b9283825230600483015281602460209687935afa908115615c5b578991615c2e575b50615ad08683613f05565b11615c2457612710850261270f198682040161363757615af3826103e892613f12565b11615c245760185490615b13615b098388613edc565b6127428884613f05565b9485158015615c1b575b615c0f57600154169287519081523060048201528481602481875afa908115615c05579083918b91615bd4575b5010615bc957848993926138b288615b6194613f05565b601855803b156106485781906024875180948193630852cd8d60e31b83528860048401525af18015615bbf57600080516020615e33833981519152969750615bb0575b508351928352820152a1565b615bb990613d42565b38615ba4565b85513d89823e3d90fd5b505050505050509050565b809250868092503d8311615bfe575b615bed8183613d55565b810103126143255782905138615b4a565b503d615be3565b88513d8c823e3d90fd5b50505050505050509050565b50828611615b1d565b5050505050509050565b90508381813d8311615c54575b615c458183613d55565b8101031261420f575138615ac5565b503d615c3b565b87513d8b823e3d90fd5b509050565b90506018541038615a7f565b9050565b60078114615c9857600f14615c91576301312d0090565b62fe502b90565b5062cb735690565b60ff600080516020615ef38339815191525460401c1615615cbd57565b604051631afcd79f60e31b8152600490fd5b90615cf65750805115615ce457602081519101fd5b60405163d6bda27560e01b8152600490fd5b81511580615d29575b615d07575090565b604051639996b31560e01b81526001600160a01b039091166004820152602490fd5b50803b15615cff56fe9b3cc71482a1b2eebe764a739f46f1fe99291fd0183be81951532b29d0c9c8da38f8a0c92f4c5b0b6877f878cb4c0c8d348a47b76d716c8e78f425043df9515b6fcebd0a2ce98b28cb391d6008bbc769378c9a4919628e11639cb575cd320fcc9016d09d72d40fdae2fd8ceac6b6234c7706214fd39c1cd1e609a0528c199300a0eea20e678cb42233c1c456c84cedce7ea53fa360bb71bf3b761b7609567770360894a13ba1a3210667c828492db98dca3e2076cc3735a920a3ca505d382bbcb5987aab1afd379f6695f1068869ee8ca6a0d02304c57935a9cc3d3ea2e51e4d520bc217d25ef4588524228dffcfa518f4ad52178c71d49b8061d016213cd3110ec3929061cbbbeecb325623e7d5a86c3dae11cb8a22ca45dc0972955657da258be0079c531659141344cd1fd0a4f28419497f9722a3daafe3b4186f6b6457e0920bb94eb3842a728db98228c375ff6b00c5bc5a54fac6736155517a0a20a61af381583145e90b82cc5e529bf4fc4d0e44397174cdf145c4251ac33ef195a4249b779b17422d0df92223018b32b4d1fa46e071723d6817e2486d003becc55f00f3a670cd3af7d64b488926880889d08a8585a138ff455227af6737339a1ec262f0c57e16840df040f15088dc2f81fe391c3923bec73e23a9662efc9c229c6a00a26469706673582212209253fb29e44d99c586a89f6be3dfa966a474dd4d95e84102b4d98be92aaa1cf964736f6c63430008160033",
  "linkReferences": {},
  "deployedLinkReferences": {}
}