{
  "_format": "hh-sol-artifact-1",
  "contractName": "JinbaoProtocol",
  "sourceName": "contracts/JinbaoProtocol.sol",
  "abi": [
    {
      "inputs": [
        {
          "internalType": "address",
          "name": "_mcToken",
          "type": "address"
        },
        {
          "internalType": "address",
          "name": "_jbcToken",
          "type": "address"
        },
        {
          "internalType": "address",
          "name": "_marketing",
          "type": "address"
        },
        {
          "internalType": "address",
          "name": "_treasury",
          "type": "address"
        },
        {
          "internalType": "address",
          "name": "_lpInjection",
          "type": "address"
        }
      ],
      "stateMutability": "nonpayable",
      "type": "constructor"
    },
    {
      "inputs": [
        {
          "internalType": "address",
          "name": "owner",
          "type": "address"
        }
      ],
      "name": "OwnableInvalidOwner",
      "type": "error"
    },
    {
      "inputs": [
        {
          "internalType": "address",
          "name": "account",
          "type": "address"
        }
      ],
      "name": "OwnableUnauthorizedAccount",
      "type": "error"
    },
    {
      "inputs": [],
      "name": "ReentrancyGuardReentrantCall",
      "type": "error"
    },
    {
      "anonymous": false,
      "inputs": [
        {
          "indexed": true,
          "internalType": "address",
          "name": "user",
          "type": "address"
        },
        {
          "indexed": true,
          "internalType": "address",
          "name": "referrer",
          "type": "address"
        }
      ],
      "name": "BoundReferrer",
      "type": "event"
    },
    {
      "anonymous": false,
      "inputs": [
        {
          "indexed": false,
          "internalType": "uint256",
          "name": "mcAmount",
          "type": "uint256"
        },
        {
          "indexed": false,
          "internalType": "uint256",
          "name": "jbcBurned",
          "type": "uint256"
        }
      ],
      "name": "BuybackAndBurn",
      "type": "event"
    },
    {
      "anonymous": false,
      "inputs": [
        {
          "indexed": true,
          "internalType": "address",
          "name": "user",
          "type": "address"
        },
        {
          "indexed": false,
          "internalType": "uint256",
          "name": "ticketId",
          "type": "uint256"
        }
      ],
      "name": "Exited",
      "type": "event"
    },
    {
      "anonymous": false,
      "inputs": [
        {
          "indexed": true,
          "internalType": "address",
          "name": "user",
          "type": "address"
        },
        {
          "indexed": false,
          "internalType": "uint256",
          "name": "amount",
          "type": "uint256"
        }
      ],
      "name": "FeeRefunded",
      "type": "event"
    },
    {
      "anonymous": false,
      "inputs": [
        {
          "indexed": true,
          "internalType": "uint256",
          "name": "ticketId",
          "type": "uint256"
        },
        {
          "indexed": true,
          "internalType": "address",
          "name": "upline",
          "type": "address"
        },
        {
          "indexed": false,
          "internalType": "uint256",
          "name": "amount",
          "type": "uint256"
        }
      ],
      "name": "LevelRewardRecorded",
      "type": "event"
    },
    {
      "anonymous": false,
      "inputs": [
        {
          "indexed": true,
          "internalType": "uint256",
          "name": "ticketId",
          "type": "uint256"
        },
        {
          "indexed": true,
          "internalType": "address",
          "name": "upline",
          "type": "address"
        },
        {
          "indexed": false,
          "internalType": "uint256",
          "name": "amount",
          "type": "uint256"
        }
      ],
      "name": "LevelRewardReleased",
      "type": "event"
    },
    {
      "anonymous": false,
      "inputs": [
        {
          "indexed": false,
          "internalType": "uint256",
          "name": "mcAmount",
          "type": "uint256"
        },
        {
          "indexed": false,
          "internalType": "uint256",
          "name": "jbcAmount",
          "type": "uint256"
        }
      ],
      "name": "LiquidityAdded",
      "type": "event"
    },
    {
      "anonymous": false,
      "inputs": [
        {
          "indexed": true,
          "internalType": "address",
          "name": "user",
          "type": "address"
        },
        {
          "indexed": false,
          "internalType": "uint256",
          "name": "amount",
          "type": "uint256"
        },
        {
          "indexed": false,
          "internalType": "uint256",
          "name": "cycleDays",
          "type": "uint256"
        }
      ],
      "name": "LiquidityStaked",
      "type": "event"
    },
    {
      "anonymous": false,
      "inputs": [
        {
          "indexed": true,
          "internalType": "address",
          "name": "previousOwner",
          "type": "address"
        },
        {
          "indexed": true,
          "internalType": "address",
          "name": "newOwner",
          "type": "address"
        }
      ],
      "name": "OwnershipTransferred",
      "type": "event"
    },
    {
      "anonymous": false,
      "inputs": [
        {
          "indexed": true,
          "internalType": "address",
          "name": "user",
          "type": "address"
        },
        {
          "indexed": false,
          "internalType": "uint256",
          "name": "principal",
          "type": "uint256"
        },
        {
          "indexed": false,
          "internalType": "uint256",
          "name": "fee",
          "type": "uint256"
        }
      ],
      "name": "Redeemed",
      "type": "event"
    },
    {
      "anonymous": false,
      "inputs": [
        {
          "indexed": true,
          "internalType": "address",
          "name": "user",
          "type": "address"
        },
        {
          "indexed": false,
          "internalType": "uint256",
          "name": "amount",
          "type": "uint256"
        },
        {
          "indexed": false,
          "internalType": "uint256",
          "name": "cappedAmount",
          "type": "uint256"
        }
      ],
      "name": "RewardCapped",
      "type": "event"
    },
    {
      "anonymous": false,
      "inputs": [
        {
          "indexed": true,
          "internalType": "address",
          "name": "user",
          "type": "address"
        },
        {
          "indexed": false,
          "internalType": "uint256",
          "name": "amount",
          "type": "uint256"
        },
        {
          "indexed": false,
          "internalType": "uint8",
          "name": "rewardType",
          "type": "uint8"
        }
      ],
      "name": "RewardPaid",
      "type": "event"
    },
    {
      "anonymous": false,
      "inputs": [
        {
          "indexed": true,
          "internalType": "address",
          "name": "user",
          "type": "address"
        },
        {
          "indexed": false,
          "internalType": "uint256",
          "name": "jbcAmount",
          "type": "uint256"
        },
        {
          "indexed": false,
          "internalType": "uint256",
          "name": "mcAmount",
          "type": "uint256"
        },
        {
          "indexed": false,
          "internalType": "uint256",
          "name": "tax",
          "type": "uint256"
        }
      ],
      "name": "SwappedJBCToMC",
      "type": "event"
    },
    {
      "anonymous": false,
      "inputs": [
        {
          "indexed": true,
          "internalType": "address",
          "name": "user",
          "type": "address"
        },
        {
          "indexed": false,
          "internalType": "uint256",
          "name": "mcAmount",
          "type": "uint256"
        },
        {
          "indexed": false,
          "internalType": "uint256",
          "name": "jbcAmount",
          "type": "uint256"
        },
        {
          "indexed": false,
          "internalType": "uint256",
          "name": "tax",
          "type": "uint256"
        }
      ],
      "name": "SwappedMCToJBC",
      "type": "event"
    },
    {
      "anonymous": false,
      "inputs": [
        {
          "indexed": true,
          "internalType": "address",
          "name": "user",
          "type": "address"
        },
        {
          "indexed": false,
          "internalType": "uint256",
          "name": "amount",
          "type": "uint256"
        },
        {
          "indexed": false,
          "internalType": "uint256",
          "name": "ticketId",
          "type": "uint256"
        }
      ],
      "name": "TicketPurchased",
      "type": "event"
    },
    {
      "inputs": [],
      "name": "REWARD_DIRECT",
      "outputs": [
        {
          "internalType": "uint8",
          "name": "",
          "type": "uint8"
        }
      ],
      "stateMutability": "view",
      "type": "function"
    },
    {
      "inputs": [],
      "name": "REWARD_DYNAMIC",
      "outputs": [
        {
          "internalType": "uint8",
          "name": "",
          "type": "uint8"
        }
      ],
      "stateMutability": "view",
      "type": "function"
    },
    {
      "inputs": [],
      "name": "REWARD_LEVEL",
      "outputs": [
        {
          "internalType": "uint8",
          "name": "",
          "type": "uint8"
        }
      ],
      "stateMutability": "view",
      "type": "function"
    },
    {
      "inputs": [],
      "name": "REWARD_STATIC",
      "outputs": [
        {
          "internalType": "uint8",
          "name": "",
          "type": "uint8"
        }
      ],
      "stateMutability": "view",
      "type": "function"
    },
    {
      "inputs": [],
      "name": "SECONDS_IN_UNIT",
      "outputs": [
        {
          "internalType": "uint256",
          "name": "",
          "type": "uint256"
        }
      ],
      "stateMutability": "view",
      "type": "function"
    },
    {
      "inputs": [
        {
          "internalType": "uint256",
          "name": "mcAmount",
          "type": "uint256"
        },
        {
          "internalType": "uint256",
          "name": "jbcAmount",
          "type": "uint256"
        }
      ],
      "name": "addLiquidity",
      "outputs": [],
      "stateMutability": "nonpayable",
      "type": "function"
    },
    {
      "inputs": [
        {
          "internalType": "address",
          "name": "user",
          "type": "address"
        },
        {
          "internalType": "address",
          "name": "newReferrer",
          "type": "address"
        }
      ],
      "name": "adminSetReferrer",
      "outputs": [],
      "stateMutability": "nonpayable",
      "type": "function"
    },
    {
      "inputs": [
        {
          "internalType": "address",
          "name": "user",
          "type": "address"
        },
        {
          "internalType": "uint256",
          "name": "_activeDirects",
          "type": "uint256"
        },
        {
          "internalType": "uint256",
          "name": "_teamCount",
          "type": "uint256"
        }
      ],
      "name": "adminSetUserStats",
      "outputs": [],
      "stateMutability": "nonpayable",
      "type": "function"
    },
    {
      "inputs": [
        {
          "internalType": "uint256",
          "name": "amount",
          "type": "uint256"
        },
        {
          "internalType": "address",
          "name": "to",
          "type": "address"
        }
      ],
      "name": "adminWithdrawJBC",
      "outputs": [],
      "stateMutability": "nonpayable",
      "type": "function"
    },
    {
      "inputs": [
        {
          "internalType": "uint256",
          "name": "amount",
          "type": "uint256"
        },
        {
          "internalType": "address",
          "name": "to",
          "type": "address"
        }
      ],
      "name": "adminWithdrawMC",
      "outputs": [],
      "stateMutability": "nonpayable",
      "type": "function"
    },
    {
      "inputs": [
        {
          "internalType": "address",
          "name": "_referrer",
          "type": "address"
        }
      ],
      "name": "bindReferrer",
      "outputs": [],
      "stateMutability": "nonpayable",
      "type": "function"
    },
    {
      "inputs": [
        {
          "internalType": "uint256",
          "name": "amount",
          "type": "uint256"
        }
      ],
      "name": "buyTicket",
      "outputs": [],
      "stateMutability": "nonpayable",
      "type": "function"
    },
    {
      "inputs": [],
      "name": "buybackPercent",
      "outputs": [
        {
          "internalType": "uint256",
          "name": "",
          "type": "uint256"
        }
      ],
      "stateMutability": "view",
      "type": "function"
    },
    {
      "inputs": [],
      "name": "claimRewards",
      "outputs": [],
      "stateMutability": "nonpayable",
      "type": "function"
    },
    {
      "inputs": [
        {
          "internalType": "address",
          "name": "",
          "type": "address"
        },
        {
          "internalType": "uint256",
          "name": "",
          "type": "uint256"
        }
      ],
      "name": "directReferrals",
      "outputs": [
        {
          "internalType": "address",
          "name": "",
          "type": "address"
        }
      ],
      "stateMutability": "view",
      "type": "function"
    },
    {
      "inputs": [],
      "name": "directRewardPercent",
      "outputs": [
        {
          "internalType": "uint256",
          "name": "",
          "type": "uint256"
        }
      ],
      "stateMutability": "view",
      "type": "function"
    },
    {
      "inputs": [
        {
          "internalType": "uint256",
          "name": "amountIn",
          "type": "uint256"
        },
        {
          "internalType": "uint256",
          "name": "reserveIn",
          "type": "uint256"
        },
        {
          "internalType": "uint256",
          "name": "reserveOut",
          "type": "uint256"
        }
      ],
      "name": "getAmountOut",
      "outputs": [
        {
          "internalType": "uint256",
          "name": "",
          "type": "uint256"
        }
      ],
      "stateMutability": "pure",
      "type": "function"
    },
    {
      "inputs": [],
      "name": "getJBCPrice",
      "outputs": [
        {
          "internalType": "uint256",
          "name": "",
          "type": "uint256"
        }
      ],
      "stateMutability": "view",
      "type": "function"
    },
    {
      "inputs": [
        {
          "internalType": "uint256",
          "name": "activeDirects",
          "type": "uint256"
        }
      ],
      "name": "getLevel",
      "outputs": [
        {
          "internalType": "uint256",
          "name": "level",
          "type": "uint256"
        },
        {
          "internalType": "uint256",
          "name": "percent",
          "type": "uint256"
        }
      ],
      "stateMutability": "pure",
      "type": "function"
    },
    {
      "inputs": [],
      "name": "jbcToken",
      "outputs": [
        {
          "internalType": "contract IJBC",
          "name": "",
          "type": "address"
        }
      ],
      "stateMutability": "view",
      "type": "function"
    },
    {
      "inputs": [],
      "name": "levelRewardPercent",
      "outputs": [
        {
          "internalType": "uint256",
          "name": "",
          "type": "uint256"
        }
      ],
      "stateMutability": "view",
      "type": "function"
    },
    {
      "inputs": [],
      "name": "lpInjectionPercent",
      "outputs": [
        {
          "internalType": "uint256",
          "name": "",
          "type": "uint256"
        }
      ],
      "stateMutability": "view",
      "type": "function"
    },
    {
      "inputs": [],
      "name": "lpInjectionWallet",
      "outputs": [
        {
          "internalType": "address",
          "name": "",
          "type": "address"
        }
      ],
      "stateMutability": "view",
      "type": "function"
    },
    {
      "inputs": [],
      "name": "marketingPercent",
      "outputs": [
        {
          "internalType": "uint256",
          "name": "",
          "type": "uint256"
        }
      ],
      "stateMutability": "view",
      "type": "function"
    },
    {
      "inputs": [],
      "name": "marketingWallet",
      "outputs": [
        {
          "internalType": "address",
          "name": "",
          "type": "address"
        }
      ],
      "stateMutability": "view",
      "type": "function"
    },
    {
      "inputs": [],
      "name": "mcToken",
      "outputs": [
        {
          "internalType": "contract IERC20",
          "name": "",
          "type": "address"
        }
      ],
      "stateMutability": "view",
      "type": "function"
    },
    {
      "inputs": [],
      "name": "nextTicketId",
      "outputs": [
        {
          "internalType": "uint256",
          "name": "",
          "type": "uint256"
        }
      ],
      "stateMutability": "view",
      "type": "function"
    },
    {
      "inputs": [],
      "name": "owner",
      "outputs": [
        {
          "internalType": "address",
          "name": "",
          "type": "address"
        }
      ],
      "stateMutability": "view",
      "type": "function"
    },
    {
      "inputs": [],
      "name": "redeem",
      "outputs": [],
      "stateMutability": "nonpayable",
      "type": "function"
    },
    {
      "inputs": [],
      "name": "redemptionFeePercent",
      "outputs": [
        {
          "internalType": "uint256",
          "name": "",
          "type": "uint256"
        }
      ],
      "stateMutability": "view",
      "type": "function"
    },
    {
      "inputs": [],
      "name": "renounceOwnership",
      "outputs": [],
      "stateMutability": "nonpayable",
      "type": "function"
    },
    {
      "inputs": [
        {
          "internalType": "address",
          "name": "_marketing",
          "type": "address"
        },
        {
          "internalType": "address",
          "name": "_treasury",
          "type": "address"
        },
        {
          "internalType": "address",
          "name": "_lpInjection",
          "type": "address"
        }
      ],
      "name": "setWallets",
      "outputs": [],
      "stateMutability": "nonpayable",
      "type": "function"
    },
    {
      "inputs": [
        {
          "internalType": "uint256",
          "name": "cycleDays",
          "type": "uint256"
        }
      ],
      "name": "stakeLiquidity",
      "outputs": [],
      "stateMutability": "nonpayable",
      "type": "function"
    },
    {
      "inputs": [],
      "name": "swapBuyTax",
      "outputs": [
        {
          "internalType": "uint256",
          "name": "",
          "type": "uint256"
        }
      ],
      "stateMutability": "view",
      "type": "function"
    },
    {
      "inputs": [
        {
          "internalType": "uint256",
          "name": "jbcAmount",
          "type": "uint256"
        }
      ],
      "name": "swapJBCToMC",
      "outputs": [],
      "stateMutability": "nonpayable",
      "type": "function"
    },
    {
      "inputs": [
        {
          "internalType": "uint256",
          "name": "mcAmount",
          "type": "uint256"
        }
      ],
      "name": "swapMCToJBC",
      "outputs": [],
      "stateMutability": "nonpayable",
      "type": "function"
    },
    {
      "inputs": [],
      "name": "swapReserveJBC",
      "outputs": [
        {
          "internalType": "uint256",
          "name": "",
          "type": "uint256"
        }
      ],
      "stateMutability": "view",
      "type": "function"
    },
    {
      "inputs": [],
      "name": "swapReserveMC",
      "outputs": [
        {
          "internalType": "uint256",
          "name": "",
          "type": "uint256"
        }
      ],
      "stateMutability": "view",
      "type": "function"
    },
    {
      "inputs": [],
      "name": "swapSellTax",
      "outputs": [
        {
          "internalType": "uint256",
          "name": "",
          "type": "uint256"
        }
      ],
      "stateMutability": "view",
      "type": "function"
    },
    {
      "inputs": [
        {
          "internalType": "uint256",
          "name": "",
          "type": "uint256"
        },
        {
          "internalType": "uint256",
          "name": "",
          "type": "uint256"
        }
      ],
      "name": "ticketPendingRewards",
      "outputs": [
        {
          "internalType": "address",
          "name": "upline",
          "type": "address"
        },
        {
          "internalType": "uint256",
          "name": "amount",
          "type": "uint256"
        }
      ],
      "stateMutability": "view",
      "type": "function"
    },
    {
      "inputs": [
        {
          "internalType": "uint256",
          "name": "",
          "type": "uint256"
        }
      ],
      "name": "ticketStaticPaid",
      "outputs": [
        {
          "internalType": "uint256",
          "name": "",
          "type": "uint256"
        }
      ],
      "stateMutability": "view",
      "type": "function"
    },
    {
      "inputs": [
        {
          "internalType": "address",
          "name": "newOwner",
          "type": "address"
        }
      ],
      "name": "transferOwnership",
      "outputs": [],
      "stateMutability": "nonpayable",
      "type": "function"
    },
    {
      "inputs": [],
      "name": "treasuryPercent",
      "outputs": [
        {
          "internalType": "uint256",
          "name": "",
          "type": "uint256"
        }
      ],
      "stateMutability": "view",
      "type": "function"
    },
    {
      "inputs": [],
      "name": "treasuryWallet",
      "outputs": [
        {
          "internalType": "address",
          "name": "",
          "type": "address"
        }
      ],
      "stateMutability": "view",
      "type": "function"
    },
    {
      "inputs": [
        {
          "internalType": "address",
          "name": "",
          "type": "address"
        }
      ],
      "name": "userInfo",
      "outputs": [
        {
          "internalType": "address",
          "name": "referrer",
          "type": "address"
        },
        {
          "internalType": "uint256",
          "name": "activeDirects",
          "type": "uint256"
        },
        {
          "internalType": "uint256",
          "name": "teamCount",
          "type": "uint256"
        },
        {
          "internalType": "uint256",
          "name": "totalRevenue",
          "type": "uint256"
        },
        {
          "internalType": "uint256",
          "name": "currentCap",
          "type": "uint256"
        },
        {
          "internalType": "bool",
          "name": "isActive",
          "type": "bool"
        },
        {
          "internalType": "uint256",
          "name": "refundFeeAmount",
          "type": "uint256"
        }
      ],
      "stateMutability": "view",
      "type": "function"
    },
    {
      "inputs": [
        {
          "internalType": "address",
          "name": "",
          "type": "address"
        }
      ],
      "name": "userTicket",
      "outputs": [
        {
          "internalType": "uint256",
          "name": "ticketId",
          "type": "uint256"
        },
        {
          "internalType": "uint256",
          "name": "amount",
          "type": "uint256"
        },
        {
          "internalType": "uint256",
          "name": "requiredLiquidity",
          "type": "uint256"
        },
        {
          "internalType": "uint256",
          "name": "purchaseTime",
          "type": "uint256"
        },
        {
          "internalType": "bool",
          "name": "liquidityProvided",
          "type": "bool"
        },
        {
          "internalType": "uint256",
          "name": "liquidityAmount",
          "type": "uint256"
        },
        {
          "internalType": "uint256",
          "name": "startTime",
          "type": "uint256"
        },
        {
          "internalType": "uint256",
          "name": "cycleDays",
          "type": "uint256"
        },
        {
          "internalType": "bool",
          "name": "redeemed",
          "type": "bool"
        },
        {
          "internalType": "bool",
          "name": "exited",
          "type": "bool"
        }
      ],
      "stateMutability": "view",
      "type": "function"
    }
  ],
  "bytecode": "0x60806040526019600755600f60085560056009556005600a556019600b556019600c556001600d556032600e556019600f553480156200003e57600080fd5b506040516200370438038062003704833981016040819052620000619162000168565b33806200008857604051631e4fbdf760e01b81526000600482015260240160405180910390fd5b6200009381620000fb565b5060018055600280546001600160a01b03199081166001600160a01b03978816179091556003805482169587169590951790945560048054851693861693909317909255600580548416918516919091179055600680549092169216919091179055620001d8565b600080546001600160a01b038381166001600160a01b0319831681178455604051919092169283917f8be0079c531659141344cd1fd0a4f28419497f9722a3daafe3b4186f6b6457e09190a35050565b80516001600160a01b03811681146200016357600080fd5b919050565b600080600080600060a086880312156200018157600080fd5b6200018c866200014b565b94506200019c602087016200014b565b9350620001ac604087016200014b565b9250620001bc606087016200014b565b9150620001cc608087016200014b565b90509295509295909350565b61351c80620001e86000396000f3fe608060405234801561001057600080fd5b506004361061028a5760003560e01c806375f0a8741161015c5780639cd441da116100ce578063d241e00111610087578063d241e00114610652578063d8020a1814610665578063dec7fa3b1461066e578063e4412f6814610677578063f1d34d4e14610680578063f2fde38b146106a057600080fd5b80639cd441da14610609578063a2af92261461061c578063bd594dcf1461062f578063be040fb014610638578063ccf6194414610640578063ceaa366d1461064957600080fd5b806388fd4d331161012057806388fd4d33146105b95780638a859a85146105cc5780638c0eaa48146105d45780638da5cb5b146105dc5780639370b080146105ed57806395253992146105f657600080fd5b806375f0a8741461049f57806377a2a540146104b2578063813380cd146104bb57806386481d40146104dc5780638710bcaa1461050457600080fd5b806335076373116102005780636031a52f116101b95780636031a52f1461044257806362eea9141461044b57806367dd74ca1461045e5780636fb3c47c14610471578063715018a61461048457806375cb1bd11461048c57600080fd5b806335076373146103f1578063372500ab146104045780633a3ea2f01461040c5780634626402b14610414578063488b5d971461042757806352778b051461042f57600080fd5b80630e2be210116102525780630e2be210146103115780631427f6161461032b5780631788513c146103335780631959a002146103465780631d0dac76146103df57806327f082f4146103e857600080fd5b806304ef9d581461028f57806304f618cb146102ab578063054d50d4146102c057806305ad3935146102d35780630a5c4567146102fe575b600080fd5b610298600c5481565b6040519081526020015b60405180910390f35b6102be6102b9366004613218565b6106b3565b005b6102986102ce36600461323a565b610820565b6102e66102e1366004613266565b6108f6565b6040516001600160a01b0390911681526020016102a2565b6102be61030c366004613290565b61092e565b610319600281565b60405160ff90911681526020016102a2565b610319600081565b6003546102e6906001600160a01b031681565b61039e610354366004613218565b60106020526000908152604090208054600182015460028301546003840154600485015460058601546006909601546001600160a01b0390951695939492939192909160ff169087565b604080516001600160a01b03909816885260208801969096529486019390935260608501919091526080840152151560a083015260c082015260e0016102a2565b61029860165481565b610298600e5481565b6102be6103ff366004613290565b610c42565b6102be61104b565b610298611563565b6005546102e6906001600160a01b031681565b610298603c81565b6102be61043d366004613290565b611684565b61029860175481565b6102be6104593660046132a9565b61199d565b6102be61046c366004613290565b611a1f565b6102be61047f3660046132d5565b612023565b6102be612052565b6102be61049a366004613308565b612064565b6004546102e6906001600160a01b031681565b61029860155481565b6104ce6104c936600461334b565b6120ab565b6040516102a292919061336d565b6104ef6104ea366004613290565b6120f1565b604080519283526020830191909152016102a2565b61056b610512366004613218565b601160205260009081526040902080546001820154600283015460038401546004850154600586015460068701546007880154600890980154969795969495939460ff938416949293919291818116916101009004168a565b604080519a8b5260208b0199909952978901969096526060880194909452911515608087015260a086015260c085015260e084015215156101008301521515610120820152610140016102a2565b6006546102e6906001600160a01b031681565b610319600181565b610319600381565b6000546001600160a01b03166102e6565b610298600f5481565b6002546102e6906001600160a01b031681565b6102be61061736600461334b565b6121ba565b6102be61062a366004613386565b612374565b61029860085481565b6102be612578565b61029860075481565b610298600b5481565b6102be6106603660046132a9565b612809565b61029860095481565b610298600d5481565b610298600a5481565b61029861068e366004613290565b60146020526000908152604090205481565b6102be6106ae366004613218565b612843565b336000908152601060205260409020546001600160a01b03161561070e5760405162461bcd60e51b815260206004820152600d60248201526c105b1c9958591e48189bdd5b99609a1b60448201526064015b60405180910390fd5b336001600160a01b038216036107595760405162461bcd60e51b815260206004820152601060248201526f21b0b73737ba103134b7321039b2b63360811b6044820152606401610705565b6001600160a01b0381166107a25760405162461bcd60e51b815260206004820152601060248201526f24b73b30b634b2103932b332b93932b960811b6044820152606401610705565b33600081815260106020908152604080832080546001600160a01b0387166001600160a01b0319918216811790925581855260128452828520805460018101825590865293852090930180549093168517909255519092917fa6dbb5aa28f35437de94d685d66edce5fb4812196b4984b91dfd5a7b38c0fb3091a350565b60008084116108715760405162461bcd60e51b815260206004820152601960248201527f496e73756666696369656e7420696e70757420616d6f756e74000000000000006044820152606401610705565b6000831180156108815750600082115b6108c65760405162461bcd60e51b8152602060048201526016602482015275496e73756666696369656e74206c697175696469747960501b6044820152606401610705565b60006108d283866133c6565b905060006108e086866133e3565b90506108ec81836133f6565b9695505050505050565b6012602052816000526040600020818154811061091257600080fd5b6000918252602090912001546001600160a01b03169150829050565b61093661287e565b600081116109775760405162461bcd60e51b815260206004820152600e60248201526d125b9d985b1a5908185b5bdd5b9d60921b6044820152606401610705565b6002546040516323b872dd60e01b81526001600160a01b03909116906323b872dd906109ab90339030908690600401613418565b6020604051808303816000875af11580156109ca573d6000803e3d6000fd5b505050506040513d601f19601f820116820180604052508101906109ee919061343c565b506000610a0082601554601654610820565b905060006064600e5483610a1491906133c6565b610a1e91906133f6565b90506000610a2c828461345e565b6003546040516370a0823160e01b815230600482015291925084916001600160a01b03909116906370a0823190602401602060405180830381865afa158015610a79573d6000803e3d6000fd5b505050506040513d601f19601f82011682018060405250810190610a9d9190613471565b1015610aeb5760405162461bcd60e51b815260206004820152601a60248201527f496e73756666696369656e74204a4243206c69717569646974790000000000006044820152606401610705565b8360156000828254610afd91906133e3565b925050819055508260166000828254610b16919061345e565b9091555050600354604051630852cd8d60e31b8152600481018490526001600160a01b03909116906342966c6890602401600060405180830381600087803b158015610b6157600080fd5b505af1158015610b75573d6000803e3d6000fd5b505060035460405163a9059cbb60e01b81526001600160a01b03909116925063a9059cbb9150610bab903390859060040161336d565b6020604051808303816000875af1158015610bca573d6000803e3d6000fd5b505050506040513d601f19601f82011682018060405250810190610bee919061343c565b50604080518581526020810183905290810183905233907f36864aeefce16bc4aaceeb6b0cdfb2ad1455a8cb4ccb0db148a2bc6e7166f97c906060015b60405180910390a2505050610c3f60018055565b50565b610c4a61287e565b336000908152601160205260409020600181015415801590610c715750600481015460ff16155b610cb45760405162461bcd60e51b8152602060048201526014602482015273496e76616c6964207469636b657420737461746560601b6044820152606401610705565b6008810154610100900460ff1615610cfe5760405162461bcd60e51b815260206004820152600d60248201526c151a58dad95d08195e1a5d1959609a1b6044820152606401610705565b6003810154610d10906203f4806133e3565b421115610d505760405162461bcd60e51b815260206004820152600e60248201526d151a58dad95d08195e1c1a5c995960921b6044820152606401610705565b8160071480610d5f575081600f145b80610d6a575081601e145b610da65760405162461bcd60e51b815260206004820152600d60248201526c496e76616c6964206379636c6560981b6044820152606401610705565b60028082015490546040516323b872dd60e01b81526001600160a01b03909116906323b872dd90610ddf90339030908690600401613418565b6020604051808303816000875af1158015610dfe573d6000803e3d6000fd5b505050506040513d601f19601f82011682018060405250810190610e22919061343c565b5060048201805460ff19166001179055600580830182905542600684015560078301849055336000908152601060205260409020015460ff16610ebc5733600090815260106020526040902060058101805460ff19166001179055546001600160a01b03168015610eba576001600160a01b0381166000908152601060205260408120600101805491610eb48361348a565b91905055505b505b604080518281526020810185905233917f1e54d7530dad81af38adb8ca9db02add3130668375f37be85396403616fc3d49910160405180910390a233600090815260106020526040902060060154801561103f57336000908152601060205260408082206006019190915560025490516370a0823160e01b815230600482015282916001600160a01b0316906370a0823190602401602060405180830381865afa158015610f6e573d6000803e3d6000fd5b505050506040513d601f19601f82011682018060405250810190610f929190613471565b1061103f5760025460405163a9059cbb60e01b81526001600160a01b039091169063a9059cbb90610fc9903390859060040161336d565b6020604051808303816000875af1158015610fe8573d6000803e3d6000fd5b505050506040513d601f19601f8201168201806040525081019061100c919061343c565b5060405181815233907f3437b9ea7fa19c6d233dd70cc787a70fab87cee64d8ba4571512cc84402748f990602001610c2b565b505050610c3f60018055565b61105361287e565b336000908152601160205260409020600481015460ff16801561107b5750600881015460ff16155b801561109157506008810154610100900460ff16155b6110ca5760405162461bcd60e51b815260206004820152600a6024820152694e6f742061637469766560b01b6044820152606401610705565b600081600701546007036110e057506014611104565b8160070154600f036110f457506019611104565b8160070154601e036111045750601e5b6000603c836006015442611118919061345e565b61112291906133f6565b90508260070154811115611137575060078201545b8060000361117a5760405162461bcd60e51b815260206004820152601060248201526f13195cdcc81d1a185b880c481d5b9a5d60821b6044820152606401610705565b60006103e88284866005015461119091906133c6565b61119a91906133c6565b6111a491906133f6565b8454600090815260146020526040812054919250818311156111cd576111ca828461345e565b90505b6000811161120e5760405162461bcd60e51b815260206004820152600e60248201526d4e6f206e6577207265776172647360901b6044820152606401610705565b33600090815260106020526040902060048101546003909101546112339083906133e3565b111561126057336000908152601060205260409020600381015460049091015461125d919061345e565b90505b8060000361127c57611271336128a8565b505050505050611558565b85546000908152601460205260408120805483929061129c9084906133e3565b909155505033600090815260106020526040812060030180548392906112c39084906133e3565b90915550600090506112d66002836133f6565b905060006112e56002846133f6565b6002546040516370a0823160e01b815230600482015291925083916001600160a01b03909116906370a0823190602401602060405180830381865afa158015611332573d6000803e3d6000fd5b505050506040513d601f19601f820116820180604052508101906113569190613471565b106113d25760025460405163a9059cbb60e01b81526001600160a01b039091169063a9059cbb9061138d903390869060040161336d565b6020604051808303816000875af11580156113ac573d6000803e3d6000fd5b505050506040513d601f19601f820116820180604052508101906113d0919061343c565b505b60006113dc611563565b90506000816113f384670de0b6b3a76400006133c6565b6113fd91906133f6565b6003546040516370a0823160e01b815230600482015291925082916001600160a01b03909116906370a0823190602401602060405180830381865afa15801561144a573d6000803e3d6000fd5b505050506040513d601f19601f8201168201806040525081019061146e9190613471565b106114ea5760035460405163a9059cbb60e01b81526001600160a01b039091169063a9059cbb906114a5903390859060040161336d565b6020604051808303816000875af11580156114c4573d6000803e3d6000fd5b505050506040513d601f19601f820116820180604052508101906114e8919061343c565b505b604080518681526000602082015233917ff381583145e90b82cc5e529bf4fc4d0e44397174cdf145c4251ac33ef195a424910160405180910390a233600090815260106020526040902060048101546003909101541061154d5761154d336128a8565b505050505050505050505b61156160018055565b565b6002546040516370a0823160e01b815230600482015260009182916001600160a01b03909116906370a0823190602401602060405180830381865afa1580156115b0573d6000803e3d6000fd5b505050506040513d601f19601f820116820180604052508101906115d49190613471565b6003546040516370a0823160e01b81523060048201529192506000916001600160a01b03909116906370a0823190602401602060405180830381865afa158015611622573d6000803e3d6000fd5b505050506040513d601f19601f820116820180604052508101906116469190613471565b90508060000361166057670de0b6b3a76400009250505090565b8061167383670de0b6b3a76400006133c6565b61167d91906133f6565b9250505090565b61168c61287e565b600081116116cd5760405162461bcd60e51b815260206004820152600e60248201526d125b9d985b1a5908185b5bdd5b9d60921b6044820152606401610705565b6003546040516323b872dd60e01b81526001600160a01b03909116906323b872dd9061170190339030908690600401613418565b6020604051808303816000875af1158015611720573d6000803e3d6000fd5b505050506040513d601f19601f82011682018060405250810190611744919061343c565b5060006064600f548361175791906133c6565b61176191906133f6565b9050600061176f828461345e565b600354604051630852cd8d60e31b8152600481018590529192506001600160a01b0316906342966c6890602401600060405180830381600087803b1580156117b657600080fd5b505af11580156117ca573d6000803e3d6000fd5b5050505060006117df82601654601554610820565b6002546040516370a0823160e01b815230600482015291925082916001600160a01b03909116906370a0823190602401602060405180830381865afa15801561182c573d6000803e3d6000fd5b505050506040513d601f19601f820116820180604052508101906118509190613471565b101561189e5760405162461bcd60e51b815260206004820152601960248201527f496e73756666696369656e74204d43206c6971756964697479000000000000006044820152606401610705565b83601660008282546118b091906133e3565b9250508190555081601660008282546118c991906133e3565b9250508190555080601560008282546118e2919061345e565b909155505060025460405163a9059cbb60e01b81526001600160a01b039091169063a9059cbb90611919903390859060040161336d565b6020604051808303816000875af1158015611938573d6000803e3d6000fd5b505050506040513d601f19601f8201168201806040525081019061195c919061343c565b50604080518581526020810183905290810184905233907f223c8ad0806f634524940a8595f819c5cfc7b1f4f4f45791269301df0a7e61d590606001610c2b565b6119a5612aec565b60035460405163a9059cbb60e01b81526001600160a01b039091169063a9059cbb906119d7908490869060040161336d565b6020604051808303816000875af11580156119f6573d6000803e3d6000fd5b505050506040513d601f19601f82011682018060405250810190611a1a919061343c565b505050565b611a2761287e565b8068056bc75e2d631000001480611a46575080681043561a8829300000145b80611a59575080681b1ae4d6e2ef500000145b80611a6c575080683635c9adc5dea00000145b611ab05760405162461bcd60e51b8152602060048201526015602482015274125b9d985b1a59081d1a58dad95d08185b5bdd5b9d605a1b6044820152606401610705565b336000908152601160205260409020600181015415611b5f57600481015460009060ff16158015611af157506003820154611aee906203f4806133e3565b42115b600883015490915060ff1680611b1057506008820154610100900460ff165b80611b185750805b611b5d5760405162461bcd60e51b815260206004820152601660248201527550726576696f7573207469636b65742061637469766560501b6044820152606401610705565b505b6002546040516323b872dd60e01b81526001600160a01b03909116906323b872dd90611b9390339030908790600401613418565b6020604051808303816000875af1158015611bb2573d6000803e3d6000fd5b505050506040513d601f19601f82011682018060405250810190611bd6919061343c565b5060178054906000611be78361348a565b919050555060405180610140016040528060175481526020018381526020016064846096611c1591906133c6565b611c1f91906133f6565b815242602080830191909152600060408084018290526060808501839052608080860184905260a080870185905260c080880186905260e09788018690523386526011875284862089518155898801516001820155898601516002820155938901516003808601919091559289015160048501805460ff1916911515919091179055908801516005840155870151600683015594860151600782015561010080870151600890920180546101209098015161ffff1990981692151561ff0019169290921796151502959095179094556010909152918220810191909155611d079083906133c6565b3360009081526010602052604090206004810191909155546001600160a01b03168015611d5e576000606460075485611d4091906133c6565b611d4a91906133f6565b9050611d5882826002612b19565b50611df4565b6002546004546007546001600160a01b039283169263a9059cbb921690606490611d8890886133c6565b611d9291906133f6565b6040518363ffffffff1660e01b8152600401611daf92919061336d565b6020604051808303816000875af1158015611dce573d6000803e3d6000fd5b505050506040513d601f19601f82011682018060405250810190611df2919061343c565b505b611e013384601754612cc8565b6002546004546009546001600160a01b039283169263a9059cbb921690606490611e2b90886133c6565b611e3591906133f6565b6040518363ffffffff1660e01b8152600401611e5292919061336d565b6020604051808303816000875af1158015611e71573d6000803e3d6000fd5b505050506040513d601f19601f82011682018060405250810190611e95919061343c565b5060006064600a5485611ea891906133c6565b611eb291906133f6565b9050611ebd81612e3f565b600254600654600b546001600160a01b039283169263a9059cbb921690606490611ee790896133c6565b611ef191906133f6565b6040518363ffffffff1660e01b8152600401611f0e92919061336d565b6020604051808303816000875af1158015611f2d573d6000803e3d6000fd5b505050506040513d601f19601f82011682018060405250810190611f51919061343c565b50600254600554600c546001600160a01b039283169263a9059cbb921690606490611f7c90896133c6565b611f8691906133f6565b6040518363ffffffff1660e01b8152600401611fa392919061336d565b6020604051808303816000875af1158015611fc2573d6000803e3d6000fd5b505050506040513d601f19601f82011682018060405250810190611fe6919061343c565b5060175460405133917f2a91574e12ad96234e84923e146b0946ecfb871cd8d5534dc1fdcbe87a7c01b391610c2b91888252602082015260400190565b61202b612aec565b6001600160a01b039092166000908152601060205260409020600181019190915560020155565b61205a612aec565b6115616000612ff7565b61206c612aec565b600480546001600160a01b039485166001600160a01b031991821617909155600580549385169382169390931790925560068054919093169116179055565b601360205281600052604060002081815481106120c757600080fd5b6000918252602090912060029091020180546001909101546001600160a01b039091169250905082565b600080620186a0831061210a5750600992602d92509050565b617530831061211f5750600892602892509050565b61271083106121345750600792602392509050565b610bb883106121495750600692601e92509050565b6103e8831061215e5750600592601992509050565b61012c83106121735750600492601492509050565b606483106121875750600392600f92509050565b601e831061219b5750600292600a92509050565b600a83106121af5750600192600592509050565b506000928392509050565b6121c2612aec565b60008211806121d15750600081115b61220b5760405162461bcd60e51b815260206004820152600b60248201526a16995c9bc8185b5bdd5b9d60aa1b6044820152606401610705565b81156122a1576002546040516323b872dd60e01b81526001600160a01b03909116906323b872dd9061224590339030908790600401613418565b6020604051808303816000875af1158015612264573d6000803e3d6000fd5b505050506040513d601f19601f82011682018060405250810190612288919061343c565b50816015600082825461229b91906133e3565b90915550505b8015612337576003546040516323b872dd60e01b81526001600160a01b03909116906323b872dd906122db90339030908690600401613418565b6020604051808303816000875af11580156122fa573d6000803e3d6000fd5b505050506040513d601f19601f8201168201806040525081019061231e919061343c565b50806016600082825461233191906133e3565b90915550505b60408051838152602081018390527f38f8a0c92f4c5b0b6877f878cb4c0c8d348a47b76d716c8e78f425043df9515b910160405180910390a15050565b61237c612aec565b806001600160a01b0316826001600160a01b0316036123d05760405162461bcd60e51b815260206004820152601060248201526f21b0b73737ba103134b7321039b2b63360811b6044820152606401610705565b6001600160a01b03808316600090815260106020526040902080548383166001600160a01b0319821617909155168015612527576001600160a01b0381166000908152601260205260408120905b815481101561252457846001600160a01b0316828281548110612443576124436134a3565b6000918252602090912001546001600160a01b031603612512578154829061246d9060019061345e565b8154811061247d5761247d6134a3565b9060005260206000200160009054906101000a90046001600160a01b03168282815481106124ad576124ad6134a3565b9060005260206000200160006101000a8154816001600160a01b0302191690836001600160a01b03160217905550818054806124eb576124eb6134b9565b600082815260209020810160001990810180546001600160a01b0319169055019055612524565b8061251c8161348a565b91505061241e565b50505b6001600160a01b03821615611a1a57506001600160a01b0390811660009081526012602090815260408220805460018101825590835291200180546001600160a01b03191692909116919091179055565b61258061287e565b336000908152601160205260409020600481015460ff1680156125a85750600881015460ff16155b80156125be57506008810154610100900460ff16155b6125fa5760405162461bcd60e51b815260206004820152600d60248201526c43616e6e6f742072656465656d60981b6044820152606401610705565b603c816007015461260b91906133c6565b816006015461261a91906133e3565b42101561265e5760405162461bcd60e51b815260206004820152601260248201527110de58db19481b9bdd08199a5b9a5cda195960721b6044820152606401610705565b60006064600d54836001015461267491906133c6565b61267e91906133f6565b600583015490915081811061269e57612697828261345e565b90506126a3565b600091505b60025460405163a9059cbb60e01b81526001600160a01b039091169063a9059cbb906126d5903390859060040161336d565b6020604051808303816000875af11580156126f4573d6000803e3d6000fd5b505050506040513d601f19601f82011682018060405250810190612718919061343c565b503360009081526010602052604090206006810183905560088401805460ff199081166001179091556005820180549091169055546001600160a01b0316801580159061277f57506001600160a01b03811660009081526010602052604090206001015415155b156127b1576001600160a01b03811660009081526010602052604081206001018054916127ab836134cf565b91905055505b6005840154604080519182526020820185905233917ff3a670cd3af7d64b488926880889d08a8585a138ff455227af6737339a1ec262910160405180910390a283546127fc90613047565b5050505061156160018055565b612811612aec565b60025460405163a9059cbb60e01b81526001600160a01b039091169063a9059cbb906119d7908490869060040161336d565b61284b612aec565b6001600160a01b03811661287557604051631e4fbdf760e01b815260006004820152602401610705565b610c3f81612ff7565b6002600154036128a157604051633ee5aeb560e01b815260040160405180910390fd5b6002600155565b6001600160a01b03811660009081526011602052604090206008810154610100900460ff16612ae85760088101805461ff001916610100179055600481015460ff1680156128fb5750600881015460ff16155b15612aa75760006064600d54836001015461291691906133c6565b61292091906133f6565b9050600081836005015411612936576000612946565b818360050154612946919061345e565b905080156129c55760025460405163a9059cbb60e01b81526001600160a01b039091169063a9059cbb90612980908790859060040161336d565b6020604051808303816000875af115801561299f573d6000803e3d6000fd5b505050506040513d601f19601f820116820180604052508101906129c3919061343c565b505b60088301805460ff199081166001179091556001600160a01b0380861660009081526010602052604090206005810180549093169092559054168015801590612a2857506001600160a01b03811660009081526010602052604090206001015415155b15612a5a576001600160a01b0381166000908152601060205260408120600101805491612a54836134cf565b91905055505b600584015460408051918252602082018590526001600160a01b038716917ff3a670cd3af7d64b488926880889d08a8585a138ff455227af6737339a1ec262910160405180910390a25050505b80546040519081526001600160a01b038316907f920bb94eb3842a728db98228c375ff6b00c5bc5a54fac6736155517a0a20a61a9060200160405180910390a25b5050565b6000546001600160a01b031633146115615760405163118cdaa760e01b8152336004820152602401610705565b6001600160a01b038316600090815260106020908152604080832060119092529091206008810154610100900460ff1680612b5657506001810154155b15612b62575050505050565b600082600301548360040154612b78919061345e565b90508481811115612bcb5750604080518681526020810183905282916001600160a01b038916917fb5987aab1afd379f6695f1068869ee8ca6a0d02304c57935a9cc3d3ea2e51e4d910160405180910390a25b8015612ca75780846003016000828254612be591906133e3565b909155505060025460405163a9059cbb60e01b81526001600160a01b039091169063a9059cbb90612c1c908a90859060040161336d565b6020604051808303816000875af1158015612c3b573d6000803e3d6000fd5b505050506040513d601f19601f82011682018060405250810190612c5f919061343c565b506040805182815260ff871660208201526001600160a01b038916917ff381583145e90b82cc5e529bf4fc4d0e44397174cdf145c4251ac33ef195a424910160405180910390a25b8360040154846003015410612cbf57612cbf876128a8565b50505050505050565b6001600160a01b0380841660009081526010602052604081205490911690805b6001600160a01b03831615801590612d005750601481105b15612e37576001600160a01b038316600090815260106020526040812060010154612d2a906120f1565b91505082811115612df8576000612d41848361345e565b905060006064612d51838a6133c6565b612d5b91906133f6565b6000888152601360209081526040808320815180830183526001600160a01b038c8116808352828601888152845460018082018755958952978790209351600290980290930180546001600160a01b03191697909216969096178155905191015551838152929350909189917fbd5e0947444d5adb46b3d24786f72907c1e8176cb1348960766a6cd6fad13e9f910160405180910390a382945050505b602d8110612e065750612e37565b6001600160a01b039384166000908152601060205260409020549093169281612e2e8161348a565b92505050612ce8565b505050505050565b6002546040516370a0823160e01b815230600482015260009183916001600160a01b03909116906370a0823190602401602060405180830381865afa158015612e8c573d6000803e3d6000fd5b505050506040513d601f19601f82011682018060405250810190612eb09190613471565b612eba919061345e565b6003546040516370a0823160e01b81523060048201529192506000916001600160a01b03909116906370a0823190602401602060405180830381865afa158015612f08573d6000803e3d6000fd5b505050506040513d601f19601f82011682018060405250810190612f2c9190613471565b9050600082118015612f3e5750600081115b15611a1a576000612f50848484610820565b90508015612ff157600354604051630852cd8d60e31b8152600481018390526001600160a01b03909116906342966c6890602401600060405180830381600087803b158015612f9e57600080fd5b505af1158015612fb2573d6000803e3d6000fd5b505060408051878152602081018590527f0ec3929061cbbbeecb325623e7d5a86c3dae11cb8a22ca45dc0972955657da25935001905060405180910390a15b50505050565b600080546001600160a01b038381166001600160a01b0319831681178455604051919092169283917f8be0079c531659141344cd1fd0a4f28419497f9722a3daafe3b4186f6b6457e09190a35050565b600081815260136020908152604080832080548251818502810185019093528083529192909190849084015b828210156130bb576000848152602090819020604080518082019091526002850290910180546001600160a01b03168252600190810154828401529083529092019101613073565b50505050905060005b81518110156131a3576131138282815181106130e2576130e26134a3565b602002602001015160000151838381518110613100576131006134a3565b6020026020010151602001516003612b19565b818181518110613125576131256134a3565b6020026020010151600001516001600160a01b0316837f380d782ec118e5171a4d1e7081db076c4c94ca49c623d531763d402b094b4f2484848151811061316e5761316e6134a3565b60200260200101516020015160405161318991815260200190565b60405180910390a38061319b8161348a565b9150506130c4565b506000828152601360205260408120612ae8915080546000825560020290600052602060002090810190610c3f91905b808211156131f85780546001600160a01b0319168155600060018201556002016131d3565b5090565b80356001600160a01b038116811461321357600080fd5b919050565b60006020828403121561322a57600080fd5b613233826131fc565b9392505050565b60008060006060848603121561324f57600080fd5b505081359360208301359350604090920135919050565b6000806040838503121561327957600080fd5b613282836131fc565b946020939093013593505050565b6000602082840312156132a257600080fd5b5035919050565b600080604083850312156132bc57600080fd5b823591506132cc602084016131fc565b90509250929050565b6000806000606084860312156132ea57600080fd5b6132f3846131fc565b95602085013595506040909401359392505050565b60008060006060848603121561331d57600080fd5b613326846131fc565b9250613334602085016131fc565b9150613342604085016131fc565b90509250925092565b6000806040838503121561335e57600080fd5b50508035926020909101359150565b6001600160a01b03929092168252602082015260400190565b6000806040838503121561339957600080fd5b6133a2836131fc565b91506132cc602084016131fc565b634e487b7160e01b600052601160045260246000fd5b80820281158282048414176133dd576133dd6133b0565b92915050565b808201808211156133dd576133dd6133b0565b60008261341357634e487b7160e01b600052601260045260246000fd5b500490565b6001600160a01b039384168152919092166020820152604081019190915260600190565b60006020828403121561344e57600080fd5b8151801515811461323357600080fd5b818103818111156133dd576133dd6133b0565b60006020828403121561348357600080fd5b5051919050565b60006001820161349c5761349c6133b0565b5060010190565b634e487b7160e01b600052603260045260246000fd5b634e487b7160e01b600052603160045260246000fd5b6000816134de576134de6133b0565b50600019019056fea2646970667358221220da1daf1d22e4e53afa895bebcd51189674ae763f7a8b6adf651318381f38876564736f6c63430008140033",
  "linkReferences": {},
  "deployedLinkReferences": {}
}