{
  "_format": "hh-sol-artifact-1",
  "contractName": "JinbaoProtocol",
  "sourceName": "contracts/JinbaoProtocol.sol",
  "abi": [
    {
      "inputs": [
        {
          "internalType": "address",
          "name": "_mcToken",
          "type": "address"
        },
        {
          "internalType": "address",
          "name": "_jbcToken",
          "type": "address"
        },
        {
          "internalType": "address",
          "name": "_marketing",
          "type": "address"
        },
        {
          "internalType": "address",
          "name": "_treasury",
          "type": "address"
        },
        {
          "internalType": "address",
          "name": "_lpInjection",
          "type": "address"
        },
        {
          "internalType": "address",
          "name": "_buyback",
          "type": "address"
        }
      ],
      "stateMutability": "nonpayable",
      "type": "constructor"
    },
    {
      "inputs": [
        {
          "internalType": "address",
          "name": "owner",
          "type": "address"
        }
      ],
      "name": "OwnableInvalidOwner",
      "type": "error"
    },
    {
      "inputs": [
        {
          "internalType": "address",
          "name": "account",
          "type": "address"
        }
      ],
      "name": "OwnableUnauthorizedAccount",
      "type": "error"
    },
    {
      "inputs": [],
      "name": "ReentrancyGuardReentrantCall",
      "type": "error"
    },
    {
      "anonymous": false,
      "inputs": [
        {
          "indexed": true,
          "internalType": "address",
          "name": "user",
          "type": "address"
        },
        {
          "indexed": true,
          "internalType": "address",
          "name": "referrer",
          "type": "address"
        }
      ],
      "name": "BoundReferrer",
      "type": "event"
    },
    {
      "anonymous": false,
      "inputs": [
        {
          "indexed": true,
          "internalType": "address",
          "name": "user",
          "type": "address"
        },
        {
          "indexed": false,
          "internalType": "uint256",
          "name": "amount",
          "type": "uint256"
        },
        {
          "indexed": false,
          "internalType": "uint256",
          "name": "cycleDays",
          "type": "uint256"
        }
      ],
      "name": "LiquidityStaked",
      "type": "event"
    },
    {
      "anonymous": false,
      "inputs": [
        {
          "indexed": true,
          "internalType": "address",
          "name": "previousOwner",
          "type": "address"
        },
        {
          "indexed": true,
          "internalType": "address",
          "name": "newOwner",
          "type": "address"
        }
      ],
      "name": "OwnershipTransferred",
      "type": "event"
    },
    {
      "anonymous": false,
      "inputs": [
        {
          "indexed": true,
          "internalType": "address",
          "name": "user",
          "type": "address"
        },
        {
          "indexed": false,
          "internalType": "uint256",
          "name": "principal",
          "type": "uint256"
        },
        {
          "indexed": false,
          "internalType": "uint256",
          "name": "fee",
          "type": "uint256"
        }
      ],
      "name": "Redeemed",
      "type": "event"
    },
    {
      "anonymous": false,
      "inputs": [
        {
          "indexed": true,
          "internalType": "address",
          "name": "user",
          "type": "address"
        },
        {
          "indexed": false,
          "internalType": "uint256",
          "name": "mcAmount",
          "type": "uint256"
        },
        {
          "indexed": false,
          "internalType": "uint256",
          "name": "jbcAmount",
          "type": "uint256"
        }
      ],
      "name": "RewardClaimed",
      "type": "event"
    },
    {
      "anonymous": false,
      "inputs": [
        {
          "indexed": true,
          "internalType": "address",
          "name": "user",
          "type": "address"
        },
        {
          "indexed": false,
          "internalType": "uint256",
          "name": "jbcAmount",
          "type": "uint256"
        },
        {
          "indexed": false,
          "internalType": "uint256",
          "name": "mcAmount",
          "type": "uint256"
        },
        {
          "indexed": false,
          "internalType": "uint256",
          "name": "tax",
          "type": "uint256"
        }
      ],
      "name": "SwappedJBCToMC",
      "type": "event"
    },
    {
      "anonymous": false,
      "inputs": [
        {
          "indexed": true,
          "internalType": "address",
          "name": "user",
          "type": "address"
        },
        {
          "indexed": false,
          "internalType": "uint256",
          "name": "mcAmount",
          "type": "uint256"
        },
        {
          "indexed": false,
          "internalType": "uint256",
          "name": "jbcAmount",
          "type": "uint256"
        },
        {
          "indexed": false,
          "internalType": "uint256",
          "name": "tax",
          "type": "uint256"
        }
      ],
      "name": "SwappedMCToJBC",
      "type": "event"
    },
    {
      "anonymous": false,
      "inputs": [
        {
          "indexed": true,
          "internalType": "address",
          "name": "user",
          "type": "address"
        },
        {
          "indexed": false,
          "internalType": "uint256",
          "name": "amount",
          "type": "uint256"
        }
      ],
      "name": "TicketPurchased",
      "type": "event"
    },
    {
      "inputs": [],
      "name": "REDEMPTION_FEE_PERCENT",
      "outputs": [
        {
          "internalType": "uint256",
          "name": "",
          "type": "uint256"
        }
      ],
      "stateMutability": "view",
      "type": "function"
    },
    {
      "inputs": [],
      "name": "SECONDS_IN_DAY",
      "outputs": [
        {
          "internalType": "uint256",
          "name": "",
          "type": "uint256"
        }
      ],
      "stateMutability": "view",
      "type": "function"
    },
    {
      "inputs": [
        {
          "internalType": "address",
          "name": "_referrer",
          "type": "address"
        }
      ],
      "name": "bindReferrer",
      "outputs": [],
      "stateMutability": "nonpayable",
      "type": "function"
    },
    {
      "inputs": [
        {
          "internalType": "uint256",
          "name": "amount",
          "type": "uint256"
        }
      ],
      "name": "buyTicket",
      "outputs": [],
      "stateMutability": "nonpayable",
      "type": "function"
    },
    {
      "inputs": [],
      "name": "buybackWallet",
      "outputs": [
        {
          "internalType": "address",
          "name": "",
          "type": "address"
        }
      ],
      "stateMutability": "view",
      "type": "function"
    },
    {
      "inputs": [],
      "name": "claimRewards",
      "outputs": [],
      "stateMutability": "nonpayable",
      "type": "function"
    },
    {
      "inputs": [],
      "name": "jbcToken",
      "outputs": [
        {
          "internalType": "contract IJBC",
          "name": "",
          "type": "address"
        }
      ],
      "stateMutability": "view",
      "type": "function"
    },
    {
      "inputs": [],
      "name": "lpInjectionWallet",
      "outputs": [
        {
          "internalType": "address",
          "name": "",
          "type": "address"
        }
      ],
      "stateMutability": "view",
      "type": "function"
    },
    {
      "inputs": [],
      "name": "marketingWallet",
      "outputs": [
        {
          "internalType": "address",
          "name": "",
          "type": "address"
        }
      ],
      "stateMutability": "view",
      "type": "function"
    },
    {
      "inputs": [],
      "name": "mcToken",
      "outputs": [
        {
          "internalType": "contract IERC20",
          "name": "",
          "type": "address"
        }
      ],
      "stateMutability": "view",
      "type": "function"
    },
    {
      "inputs": [],
      "name": "owner",
      "outputs": [
        {
          "internalType": "address",
          "name": "",
          "type": "address"
        }
      ],
      "stateMutability": "view",
      "type": "function"
    },
    {
      "inputs": [],
      "name": "redeem",
      "outputs": [],
      "stateMutability": "nonpayable",
      "type": "function"
    },
    {
      "inputs": [],
      "name": "renounceOwnership",
      "outputs": [],
      "stateMutability": "nonpayable",
      "type": "function"
    },
    {
      "inputs": [
        {
          "internalType": "uint256",
          "name": "cycleDays",
          "type": "uint256"
        }
      ],
      "name": "stakeLiquidity",
      "outputs": [],
      "stateMutability": "nonpayable",
      "type": "function"
    },
    {
      "inputs": [
        {
          "internalType": "uint256",
          "name": "jbcAmount",
          "type": "uint256"
        }
      ],
      "name": "swapJBCToMC",
      "outputs": [],
      "stateMutability": "nonpayable",
      "type": "function"
    },
    {
      "inputs": [
        {
          "internalType": "uint256",
          "name": "mcAmount",
          "type": "uint256"
        }
      ],
      "name": "swapMCToJBC",
      "outputs": [],
      "stateMutability": "nonpayable",
      "type": "function"
    },
    {
      "inputs": [
        {
          "internalType": "address",
          "name": "newOwner",
          "type": "address"
        }
      ],
      "name": "transferOwnership",
      "outputs": [],
      "stateMutability": "nonpayable",
      "type": "function"
    },
    {
      "inputs": [],
      "name": "treasuryWallet",
      "outputs": [
        {
          "internalType": "address",
          "name": "",
          "type": "address"
        }
      ],
      "stateMutability": "view",
      "type": "function"
    },
    {
      "inputs": [
        {
          "internalType": "address",
          "name": "",
          "type": "address"
        }
      ],
      "name": "userInfo",
      "outputs": [
        {
          "internalType": "address",
          "name": "referrer",
          "type": "address"
        },
        {
          "internalType": "uint256",
          "name": "activeDirects",
          "type": "uint256"
        },
        {
          "internalType": "uint256",
          "name": "teamCount",
          "type": "uint256"
        },
        {
          "internalType": "uint256",
          "name": "totalRevenue",
          "type": "uint256"
        },
        {
          "internalType": "uint256",
          "name": "currentCap",
          "type": "uint256"
        },
        {
          "internalType": "bool",
          "name": "isActive",
          "type": "bool"
        }
      ],
      "stateMutability": "view",
      "type": "function"
    },
    {
      "inputs": [
        {
          "internalType": "address",
          "name": "",
          "type": "address"
        }
      ],
      "name": "userTicket",
      "outputs": [
        {
          "internalType": "uint256",
          "name": "amount",
          "type": "uint256"
        },
        {
          "internalType": "uint256",
          "name": "requiredLiquidity",
          "type": "uint256"
        },
        {
          "internalType": "uint256",
          "name": "purchaseTime",
          "type": "uint256"
        },
        {
          "internalType": "bool",
          "name": "liquidityProvided",
          "type": "bool"
        },
        {
          "internalType": "uint256",
          "name": "liquidityAmount",
          "type": "uint256"
        },
        {
          "internalType": "uint256",
          "name": "startTime",
          "type": "uint256"
        },
        {
          "internalType": "uint256",
          "name": "cycleDays",
          "type": "uint256"
        },
        {
          "internalType": "bool",
          "name": "redeemed",
          "type": "bool"
        }
      ],
      "stateMutability": "view",
      "type": "function"
    }
  ],
  "bytecode": "0x60806040523480156200001157600080fd5b5060405162001f5a38038062001f5a83398101604081905262000034916200014b565b33806200005b57604051631e4fbdf760e01b81526000600482015260240160405180910390fd5b6200006681620000de565b5060018055600280546001600160a01b03199081166001600160a01b0398891617909155600380548216968816969096179095556004805486169487169490941790935560058054851692861692909217909155600680548416918516919091179055600780549092169216919091179055620001cc565b600080546001600160a01b038381166001600160a01b0319831681178455604051919092169283917f8be0079c531659141344cd1fd0a4f28419497f9722a3daafe3b4186f6b6457e09190a35050565b80516001600160a01b03811681146200014657600080fd5b919050565b60008060008060008060c087890312156200016557600080fd5b62000170876200012e565b955062000180602088016200012e565b945062000190604088016200012e565b9350620001a0606088016200012e565b9250620001b0608088016200012e565b9150620001c060a088016200012e565b90509295509295509295565b611d7e80620001dc6000396000f3fe608060405234801561001057600080fd5b506004361061012c5760003560e01c806367dd74ca116100ad5780638da5cb5b116100715780638da5cb5b14610349578063952539921461035a578063be040fb01461036d578063deab8aea14610375578063f2fde38b1461038857600080fd5b806367dd74ca14610273578063715018a61461028657806375f0a8741461028e5780638710bcaa146102a157806388fd4d331461033657600080fd5b806335076373116100f45780633507637314610228578063372500ab1461023b5780634626402b1461024357806352778b051461025657806361a52a361461026957600080fd5b806304f618cb146101315780630a5c4567146101465780631788513c146101595780631959a0021461018957806320b3ca9814610212575b600080fd5b61014461013f366004611bf3565b61039b565b005b610144610154366004611c23565b6104e1565b60035461016c906001600160a01b031681565b6040516001600160a01b0390911681526020015b60405180910390f35b6101d9610197366004611bf3565b6008602052600090815260409020805460018201546002830154600384015460048501546005909501546001600160a01b039094169492939192909160ff1686565b604080516001600160a01b03909716875260208701959095529385019290925260608401526080830152151560a082015260c001610180565b61021a600181565b604051908152602001610180565b610144610236366004611c23565b6107b0565b610144610a24565b60055461016c906001600160a01b031681565b610144610264366004611c23565b610f1f565b61021a6201518081565b610144610281366004611c23565b6111da565b6101446118a4565b60045461016c906001600160a01b031681565b6102f96102af366004611bf3565b6009602052600090815260409020805460018201546002830154600384015460048501546005860154600687015460079097015495969495939460ff938416949293919290911688565b604080519889526020890197909752958701949094529115156060860152608085015260a084015260c0830152151560e082015261010001610180565b60065461016c906001600160a01b031681565b6000546001600160a01b031661016c565b60025461016c906001600160a01b031681565b6101446118b6565b60075461016c906001600160a01b031681565b610144610396366004611bf3565b611b11565b336000908152600860205260409020546001600160a01b0316156103f65760405162461bcd60e51b815260206004820152600d60248201526c105b1c9958591e48189bdd5b99609a1b60448201526064015b60405180910390fd5b336001600160a01b038216036104415760405162461bcd60e51b815260206004820152601060248201526f21b0b73737ba103134b7321039b2b63360811b60448201526064016103ed565b6001600160a01b03811661048a5760405162461bcd60e51b815260206004820152601060248201526f24b73b30b634b2103932b332b93932b960811b60448201526064016103ed565b3360008181526008602052604080822080546001600160a01b0319166001600160a01b03861690811790915590519092917fa6dbb5aa28f35437de94d685d66edce5fb4812196b4984b91dfd5a7b38c0fb3091a350565b6104e9611b4c565b6000811161052a5760405162461bcd60e51b815260206004820152600e60248201526d125b9d985b1a5908185b5bdd5b9d60921b60448201526064016103ed565b6002546040516323b872dd60e01b81526001600160a01b03909116906323b872dd9061055e90339030908690600401611c3c565b6020604051808303816000875af115801561057d573d6000803e3d6000fd5b505050506040513d601f19601f820116820180604052508101906105a19190611c60565b5080600060646105b2836032611c98565b6105bc9190611cb5565b905060006105ca8284611cd7565b6003546040516370a0823160e01b815230600482015291925084916001600160a01b03909116906370a0823190602401602060405180830381865afa158015610617573d6000803e3d6000fd5b505050506040513d601f19601f8201168201806040525081019061063b9190611cea565b10156106895760405162461bcd60e51b815260206004820152601a60248201527f496e73756666696369656e74204a4243206c697175696469747900000000000060448201526064016103ed565b600354604051630852cd8d60e31b8152600481018490526001600160a01b03909116906342966c6890602401600060405180830381600087803b1580156106cf57600080fd5b505af11580156106e3573d6000803e3d6000fd5b505060035460405163a9059cbb60e01b81526001600160a01b03909116925063a9059cbb91506107199033908590600401611d03565b6020604051808303816000875af1158015610738573d6000803e3d6000fd5b505050506040513d601f19601f8201168201806040525081019061075c9190611c60565b50604080518581526020810183905290810183905233907f36864aeefce16bc4aaceeb6b0cdfb2ad1455a8cb4ccb0db148a2bc6e7166f97c906060015b60405180910390a25050506107ad60018055565b50565b6107b8611b4c565b3360009081526009602052604090208054158015906107dc5750600381015460ff16155b61081a5760405162461bcd60e51b815260206004820152600f60248201526e139bc81d985b1a59081d1a58dad95d608a1b60448201526064016103ed565b600281015461082c906203f480611d1c565b42111561086c5760405162461bcd60e51b815260206004820152600e60248201526d151a58dad95d08195e1c1a5c995960921b60448201526064016103ed565b816007148061087b575081600f145b80610886575081601e145b6108c25760405162461bcd60e51b815260206004820152600d60248201526c496e76616c6964206379636c6560981b60448201526064016103ed565b60018101546002546040516323b872dd60e01b81526001600160a01b03909116906323b872dd906108fb90339030908690600401611c3c565b6020604051808303816000875af115801561091a573d6000803e3d6000fd5b505050506040513d601f19601f8201168201806040525081019061093e9190611c60565b5060038201805460ff191660011790556004820181905542600583015560068201839055336000908152600860205260409020546001600160a01b0316801580159061099d57503360009081526008602052604090206005015460ff16155b156109ec576001600160a01b03811660009081526008602052604081206001018054916109c983611d2f565b9091555050336000908152600860205260409020600501805460ff191660011790555b604080518381526020810186905233917f1e54d7530dad81af38adb8ca9db02add3130668375f37be85396403616fc3d499101610799565b610a2c611b4c565b336000908152600960205260409020600381015460ff168015610a545750600781015460ff16155b610a8d5760405162461bcd60e51b815260206004820152600a6024820152694e6f742061637469766560b01b60448201526064016103ed565b60008160060154600703610aa357506014610ac7565b8160060154600f03610ab757506019610ac7565b8160060154601e03610ac75750601e5b600062015180836005015442610add9190611cd7565b610ae79190611cb5565b905060008111610b2a5760405162461bcd60e51b815260206004820152600e60248201526d139bc81c995dd85c991cc81e595d60921b60448201526064016103ed565b8260060154811115610b3d575060068201545b60006103e882848660000154610b539190611c98565b610b5d9190611c98565b610b679190611cb5565b336000908152600860205260409020600481015460039091015491925090610b90908390611d1c565b1115610bbd573360009081526008602052604090206003810154600490910154610bba9190611cd7565b90505b60008111610c035760405162461bcd60e51b81526020600482015260136024820152724e6f207265776172647320746f20636c61696d60681b60448201526064016103ed565b3360009081526008602052604081206003018054839290610c25908490611d1c565b9091555060009050610c38600283611cb5565b90506000610c47600284611cb5565b6002546040516370a0823160e01b815230600482015291925083916001600160a01b03909116906370a0823190602401602060405180830381865afa158015610c94573d6000803e3d6000fd5b505050506040513d601f19601f82011682018060405250810190610cb89190611cea565b1015610d065760405162461bcd60e51b815260206004820152601760248201527f496e73756666696369656e74204d4320696e20706f6f6c00000000000000000060448201526064016103ed565b60025460405163a9059cbb60e01b81526001600160a01b039091169063a9059cbb90610d389033908690600401611d03565b6020604051808303816000875af1158015610d57573d6000803e3d6000fd5b505050506040513d601f19601f82011682018060405250810190610d7b9190611c60565b50670de0b6b3a7640000600081610d928482611c98565b610d9c9190611cb5565b6003546040516370a0823160e01b815230600482015291925082916001600160a01b03909116906370a0823190602401602060405180830381865afa158015610de9573d6000803e3d6000fd5b505050506040513d601f19601f82011682018060405250810190610e0d9190611cea565b1015610e5b5760405162461bcd60e51b815260206004820152601860248201527f496e73756666696369656e74204a424320696e20706f6f6c000000000000000060448201526064016103ed565b60035460405163a9059cbb60e01b81526001600160a01b039091169063a9059cbb90610e8d9033908590600401611d03565b6020604051808303816000875af1158015610eac573d6000803e3d6000fd5b505050506040513d601f19601f82011682018060405250810190610ed09190611c60565b50604080518581526020810183905233917ff01da32686223933d8a18a391060918c7f11a3648639edd87ae013e2e2731743910160405180910390a25050505050505050610f1d60018055565b565b610f27611b4c565b60008111610f685760405162461bcd60e51b815260206004820152600e60248201526d125b9d985b1a5908185b5bdd5b9d60921b60448201526064016103ed565b6003546040516323b872dd60e01b81526001600160a01b03909116906323b872dd90610f9c90339030908690600401611c3c565b6020604051808303816000875af1158015610fbb573d6000803e3d6000fd5b505050506040513d601f19601f82011682018060405250810190610fdf9190611c60565b5060006064610fef836019611c98565b610ff99190611cb5565b905060006110078284611cd7565b600354604051630852cd8d60e31b8152600481018590529192506001600160a01b0316906342966c6890602401600060405180830381600087803b15801561104e57600080fd5b505af1158015611062573d6000803e3d6000fd5b50506002546040516370a0823160e01b81523060048201528493508392506001600160a01b03909116906370a0823190602401602060405180830381865afa1580156110b2573d6000803e3d6000fd5b505050506040513d601f19601f820116820180604052508101906110d69190611cea565b10156111245760405162461bcd60e51b815260206004820152601960248201527f496e73756666696369656e74204d43206c69717569646974790000000000000060448201526064016103ed565b60025460405163a9059cbb60e01b81526001600160a01b039091169063a9059cbb906111569033908590600401611d03565b6020604051808303816000875af1158015611175573d6000803e3d6000fd5b505050506040513d601f19601f820116820180604052508101906111999190611c60565b50604080518581526020810183905290810184905233907f223c8ad0806f634524940a8595f819c5cfc7b1f4f4f45791269301df0a7e61d590606001610799565b6111e2611b4c565b8068056bc75e2d631000001480611201575080681043561a8829300000145b80611214575080681b1ae4d6e2ef500000145b80611227575080683635c9adc5dea00000145b6112695760405162461bcd60e51b815260206004820152601360248201527224b73b30b634b2103a34b1b5b2ba103a34b2b960691b60448201526064016103ed565b3360009081526009602052604090206003015460ff16158061129d57503360009081526009602052604090206007015460ff165b6112e05760405162461bcd60e51b8152602060048201526014602482015273416374697665207469636b65742065786973747360601b60448201526064016103ed565b6002546040516323b872dd60e01b81526001600160a01b03909116906323b872dd9061131490339030908690600401611c3c565b6020604051808303816000875af1158015611333573d6000803e3d6000fd5b505050506040513d601f19601f820116820180604052508101906113579190611c60565b50336000908152600860205260409020546001600160a01b03168015611406576002546001600160a01b031663a9059cbb826064611396866019611c98565b6113a09190611cb5565b6040518363ffffffff1660e01b81526004016113bd929190611d03565b6020604051808303816000875af11580156113dc573d6000803e3d6000fd5b505050506040513d601f19601f820116820180604052508101906114009190611c60565b50611498565b6002546004546001600160a01b039182169163a9059cbb9116606461142c866019611c98565b6114369190611cb5565b6040518363ffffffff1660e01b8152600401611453929190611d03565b6020604051808303816000875af1158015611472573d6000803e3d6000fd5b505050506040513d601f19601f820116820180604052508101906114969190611c60565b505b6002546004546001600160a01b039182169163a9059cbb911660646114be86600f611c98565b6114c89190611cb5565b6040518363ffffffff1660e01b81526004016114e5929190611d03565b6020604051808303816000875af1158015611504573d6000803e3d6000fd5b505050506040513d601f19601f820116820180604052508101906115289190611c60565b506002546004546001600160a01b039182169163a9059cbb9116606461154f866005611c98565b6115599190611cb5565b6040518363ffffffff1660e01b8152600401611576929190611d03565b6020604051808303816000875af1158015611595573d6000803e3d6000fd5b505050506040513d601f19601f820116820180604052508101906115b99190611c60565b506002546007546001600160a01b039182169163a9059cbb911660646115e0866005611c98565b6115ea9190611cb5565b6040518363ffffffff1660e01b8152600401611607929190611d03565b6020604051808303816000875af1158015611626573d6000803e3d6000fd5b505050506040513d601f19601f8201168201806040525081019061164a9190611c60565b506002546006546001600160a01b039182169163a9059cbb91166064611671866019611c98565b61167b9190611cb5565b6040518363ffffffff1660e01b8152600401611698929190611d03565b6020604051808303816000875af11580156116b7573d6000803e3d6000fd5b505050506040513d601f19601f820116820180604052508101906116db9190611c60565b506002546005546001600160a01b039182169163a9059cbb91166064611702866019611c98565b61170c9190611cb5565b6040518363ffffffff1660e01b8152600401611729929190611d03565b6020604051808303816000875af1158015611748573d6000803e3d6000fd5b505050506040513d601f19601f8201168201806040525081019061176c9190611c60565b50604051806101000160405280838152602001606484609661178e9190611c98565b6117989190611cb5565b815242602080830191909152600060408084018290526060808501839052608080860184905260a080870185905260c09687018590523385526009865293839020875181559487015160018601559186015160028501558501516003808501805492151560ff1993841617905591860151600485015591850151600584015592840151600683015560e090930151600790910180549115159190931617909155611843908390611c98565b33600081815260086020526040808220600481019490945560039093015590517f0668f5b446eb814fe35b3206f43f14bd8567ba04ddaf7a3ee56516929ab22ccb906118929085815260200190565b60405180910390a2506107ad60018055565b6118ac611b76565b610f1d6000611ba3565b6118be611b4c565b336000908152600960205260409020600381015460ff1680156118e65750600781015460ff16155b6119225760405162461bcd60e51b815260206004820152600d60248201526c43616e6e6f742072656465656d60981b60448201526064016103ed565b60068101546119349062015180611c98565b81600501546119439190611d1c565b4210156119875760405162461bcd60e51b815260206004820152601260248201527110de58db19481b9bdd08199a5b9a5cda195960721b60448201526064016103ed565b600060646001836000015461199c9190611c98565b6119a69190611cb5565b6002546040516323b872dd60e01b81529192506001600160a01b0316906323b872dd906119db90339030908690600401611c3c565b6020604051808303816000875af11580156119fa573d6000803e3d6000fd5b505050506040513d601f19601f82011682018060405250810190611a1e9190611c60565b5060025460048084015460405163a9059cbb60e01b81526001600160a01b039093169263a9059cbb92611a55923392909101611d03565b6020604051808303816000875af1158015611a74573d6000803e3d6000fd5b505050506040513d601f19601f82011682018060405250810190611a989190611c60565b50600782018054600160ff19918216179091553360008181526008602090815260409182902060050180549094169093556004850154815190815292830184905290917ff3a670cd3af7d64b488926880889d08a8585a138ff455227af6737339a1ec262910160405180910390a25050610f1d60018055565b611b19611b76565b6001600160a01b038116611b4357604051631e4fbdf760e01b8152600060048201526024016103ed565b6107ad81611ba3565b600260015403611b6f57604051633ee5aeb560e01b815260040160405180910390fd5b6002600155565b6000546001600160a01b03163314610f1d5760405163118cdaa760e01b81523360048201526024016103ed565b600080546001600160a01b038381166001600160a01b0319831681178455604051919092169283917f8be0079c531659141344cd1fd0a4f28419497f9722a3daafe3b4186f6b6457e09190a35050565b600060208284031215611c0557600080fd5b81356001600160a01b0381168114611c1c57600080fd5b9392505050565b600060208284031215611c3557600080fd5b5035919050565b6001600160a01b039384168152919092166020820152604081019190915260600190565b600060208284031215611c7257600080fd5b81518015158114611c1c57600080fd5b634e487b7160e01b600052601160045260246000fd5b8082028115828204841417611caf57611caf611c82565b92915050565b600082611cd257634e487b7160e01b600052601260045260246000fd5b500490565b81810381811115611caf57611caf611c82565b600060208284031215611cfc57600080fd5b5051919050565b6001600160a01b03929092168252602082015260400190565b80820180821115611caf57611caf611c82565b600060018201611d4157611d41611c82565b506001019056fea2646970667358221220877174dbc3de575b7a055bdaefe4a66f5a075c4c07978bc02b046a00a6e8538464736f6c63430008140033",
  "linkReferences": {},
  "deployedLinkReferences": {}
}