{
  "_format": "hh-sol-artifact-1",
  "contractName": "JinbaoProtocol",
  "sourceName": "contracts/JinbaoProtocol.sol",
  "abi": [
    {
      "inputs": [
        {
          "internalType": "address",
          "name": "_mcToken",
          "type": "address"
        },
        {
          "internalType": "address",
          "name": "_jbcToken",
          "type": "address"
        },
        {
          "internalType": "address",
          "name": "_marketing",
          "type": "address"
        },
        {
          "internalType": "address",
          "name": "_treasury",
          "type": "address"
        },
        {
          "internalType": "address",
          "name": "_lpInjection",
          "type": "address"
        },
        {
          "internalType": "address",
          "name": "_buyback",
          "type": "address"
        }
      ],
      "stateMutability": "nonpayable",
      "type": "constructor"
    },
    {
      "inputs": [
        {
          "internalType": "address",
          "name": "owner",
          "type": "address"
        }
      ],
      "name": "OwnableInvalidOwner",
      "type": "error"
    },
    {
      "inputs": [
        {
          "internalType": "address",
          "name": "account",
          "type": "address"
        }
      ],
      "name": "OwnableUnauthorizedAccount",
      "type": "error"
    },
    {
      "inputs": [],
      "name": "ReentrancyGuardReentrantCall",
      "type": "error"
    },
    {
      "anonymous": false,
      "inputs": [
        {
          "indexed": true,
          "internalType": "address",
          "name": "user",
          "type": "address"
        },
        {
          "indexed": true,
          "internalType": "address",
          "name": "referrer",
          "type": "address"
        }
      ],
      "name": "BoundReferrer",
      "type": "event"
    },
    {
      "anonymous": false,
      "inputs": [
        {
          "indexed": true,
          "internalType": "address",
          "name": "user",
          "type": "address"
        },
        {
          "indexed": false,
          "internalType": "uint256",
          "name": "amount",
          "type": "uint256"
        },
        {
          "indexed": false,
          "internalType": "uint256",
          "name": "cycleDays",
          "type": "uint256"
        }
      ],
      "name": "LiquidityStaked",
      "type": "event"
    },
    {
      "anonymous": false,
      "inputs": [
        {
          "indexed": true,
          "internalType": "address",
          "name": "previousOwner",
          "type": "address"
        },
        {
          "indexed": true,
          "internalType": "address",
          "name": "newOwner",
          "type": "address"
        }
      ],
      "name": "OwnershipTransferred",
      "type": "event"
    },
    {
      "anonymous": false,
      "inputs": [
        {
          "indexed": true,
          "internalType": "address",
          "name": "user",
          "type": "address"
        },
        {
          "indexed": false,
          "internalType": "uint256",
          "name": "principal",
          "type": "uint256"
        },
        {
          "indexed": false,
          "internalType": "uint256",
          "name": "fee",
          "type": "uint256"
        }
      ],
      "name": "Redeemed",
      "type": "event"
    },
    {
      "anonymous": false,
      "inputs": [
        {
          "indexed": true,
          "internalType": "address",
          "name": "user",
          "type": "address"
        },
        {
          "indexed": true,
          "internalType": "address",
          "name": "from",
          "type": "address"
        },
        {
          "indexed": false,
          "internalType": "uint256",
          "name": "mcAmount",
          "type": "uint256"
        },
        {
          "indexed": false,
          "internalType": "uint8",
          "name": "rewardType",
          "type": "uint8"
        },
        {
          "indexed": false,
          "internalType": "uint256",
          "name": "ticketId",
          "type": "uint256"
        }
      ],
      "name": "ReferralRewardPaid",
      "type": "event"
    },
    {
      "anonymous": false,
      "inputs": [
        {
          "indexed": true,
          "internalType": "address",
          "name": "user",
          "type": "address"
        },
        {
          "indexed": false,
          "internalType": "uint256",
          "name": "mcAmount",
          "type": "uint256"
        },
        {
          "indexed": false,
          "internalType": "uint256",
          "name": "jbcAmount",
          "type": "uint256"
        },
        {
          "indexed": false,
          "internalType": "uint8",
          "name": "rewardType",
          "type": "uint8"
        },
        {
          "indexed": false,
          "internalType": "uint256",
          "name": "ticketId",
          "type": "uint256"
        }
      ],
      "name": "RewardClaimed",
      "type": "event"
    },
    {
      "anonymous": false,
      "inputs": [
        {
          "indexed": true,
          "internalType": "address",
          "name": "user",
          "type": "address"
        },
        {
          "indexed": false,
          "internalType": "uint256",
          "name": "jbcAmount",
          "type": "uint256"
        },
        {
          "indexed": false,
          "internalType": "uint256",
          "name": "mcAmount",
          "type": "uint256"
        },
        {
          "indexed": false,
          "internalType": "uint256",
          "name": "tax",
          "type": "uint256"
        }
      ],
      "name": "SwappedJBCToMC",
      "type": "event"
    },
    {
      "anonymous": false,
      "inputs": [
        {
          "indexed": true,
          "internalType": "address",
          "name": "user",
          "type": "address"
        },
        {
          "indexed": false,
          "internalType": "uint256",
          "name": "mcAmount",
          "type": "uint256"
        },
        {
          "indexed": false,
          "internalType": "uint256",
          "name": "jbcAmount",
          "type": "uint256"
        },
        {
          "indexed": false,
          "internalType": "uint256",
          "name": "tax",
          "type": "uint256"
        }
      ],
      "name": "SwappedMCToJBC",
      "type": "event"
    },
    {
      "anonymous": false,
      "inputs": [
        {
          "indexed": true,
          "internalType": "address",
          "name": "user",
          "type": "address"
        },
        {
          "indexed": false,
          "internalType": "uint256",
          "name": "amount",
          "type": "uint256"
        },
        {
          "indexed": false,
          "internalType": "uint256",
          "name": "ticketId",
          "type": "uint256"
        }
      ],
      "name": "TicketPurchased",
      "type": "event"
    },
    {
      "inputs": [],
      "name": "REWARD_DIRECT",
      "outputs": [
        {
          "internalType": "uint8",
          "name": "",
          "type": "uint8"
        }
      ],
      "stateMutability": "view",
      "type": "function"
    },
    {
      "inputs": [],
      "name": "REWARD_DYNAMIC",
      "outputs": [
        {
          "internalType": "uint8",
          "name": "",
          "type": "uint8"
        }
      ],
      "stateMutability": "view",
      "type": "function"
    },
    {
      "inputs": [],
      "name": "REWARD_LEVEL",
      "outputs": [
        {
          "internalType": "uint8",
          "name": "",
          "type": "uint8"
        }
      ],
      "stateMutability": "view",
      "type": "function"
    },
    {
      "inputs": [],
      "name": "REWARD_STATIC",
      "outputs": [
        {
          "internalType": "uint8",
          "name": "",
          "type": "uint8"
        }
      ],
      "stateMutability": "view",
      "type": "function"
    },
    {
      "inputs": [],
      "name": "SECONDS_IN_DAY",
      "outputs": [
        {
          "internalType": "uint256",
          "name": "",
          "type": "uint256"
        }
      ],
      "stateMutability": "view",
      "type": "function"
    },
    {
      "inputs": [],
      "name": "SECONDS_IN_MINUTE",
      "outputs": [
        {
          "internalType": "uint256",
          "name": "",
          "type": "uint256"
        }
      ],
      "stateMutability": "view",
      "type": "function"
    },
    {
      "inputs": [
        {
          "internalType": "address",
          "name": "user",
          "type": "address"
        },
        {
          "internalType": "address",
          "name": "newReferrer",
          "type": "address"
        }
      ],
      "name": "adminSetReferrer",
      "outputs": [],
      "stateMutability": "nonpayable",
      "type": "function"
    },
    {
      "inputs": [
        {
          "internalType": "address",
          "name": "user",
          "type": "address"
        },
        {
          "internalType": "uint256",
          "name": "_activeDirects",
          "type": "uint256"
        },
        {
          "internalType": "uint256",
          "name": "_teamCount",
          "type": "uint256"
        }
      ],
      "name": "adminSetUserStats",
      "outputs": [],
      "stateMutability": "nonpayable",
      "type": "function"
    },
    {
      "inputs": [
        {
          "internalType": "uint256",
          "name": "amount",
          "type": "uint256"
        },
        {
          "internalType": "address",
          "name": "to",
          "type": "address"
        }
      ],
      "name": "adminWithdrawJBC",
      "outputs": [],
      "stateMutability": "nonpayable",
      "type": "function"
    },
    {
      "inputs": [
        {
          "internalType": "uint256",
          "name": "amount",
          "type": "uint256"
        },
        {
          "internalType": "address",
          "name": "to",
          "type": "address"
        }
      ],
      "name": "adminWithdrawMC",
      "outputs": [],
      "stateMutability": "nonpayable",
      "type": "function"
    },
    {
      "inputs": [
        {
          "internalType": "address",
          "name": "_referrer",
          "type": "address"
        }
      ],
      "name": "bindReferrer",
      "outputs": [],
      "stateMutability": "nonpayable",
      "type": "function"
    },
    {
      "inputs": [
        {
          "internalType": "uint256",
          "name": "amount",
          "type": "uint256"
        }
      ],
      "name": "buyTicket",
      "outputs": [],
      "stateMutability": "nonpayable",
      "type": "function"
    },
    {
      "inputs": [],
      "name": "buybackPercent",
      "outputs": [
        {
          "internalType": "uint256",
          "name": "",
          "type": "uint256"
        }
      ],
      "stateMutability": "view",
      "type": "function"
    },
    {
      "inputs": [],
      "name": "buybackWallet",
      "outputs": [
        {
          "internalType": "address",
          "name": "",
          "type": "address"
        }
      ],
      "stateMutability": "view",
      "type": "function"
    },
    {
      "inputs": [],
      "name": "claimRewards",
      "outputs": [],
      "stateMutability": "nonpayable",
      "type": "function"
    },
    {
      "inputs": [
        {
          "internalType": "address",
          "name": "",
          "type": "address"
        },
        {
          "internalType": "uint256",
          "name": "",
          "type": "uint256"
        }
      ],
      "name": "directReferrals",
      "outputs": [
        {
          "internalType": "address",
          "name": "",
          "type": "address"
        }
      ],
      "stateMutability": "view",
      "type": "function"
    },
    {
      "inputs": [],
      "name": "directRewardPercent",
      "outputs": [
        {
          "internalType": "uint256",
          "name": "",
          "type": "uint256"
        }
      ],
      "stateMutability": "view",
      "type": "function"
    },
    {
      "inputs": [
        {
          "internalType": "uint256",
          "name": "amountIn",
          "type": "uint256"
        },
        {
          "internalType": "uint256",
          "name": "reserveIn",
          "type": "uint256"
        },
        {
          "internalType": "uint256",
          "name": "reserveOut",
          "type": "uint256"
        }
      ],
      "name": "getAmountOut",
      "outputs": [
        {
          "internalType": "uint256",
          "name": "",
          "type": "uint256"
        }
      ],
      "stateMutability": "pure",
      "type": "function"
    },
    {
      "inputs": [
        {
          "internalType": "address",
          "name": "_user",
          "type": "address"
        }
      ],
      "name": "getDirectReferrals",
      "outputs": [
        {
          "internalType": "address[]",
          "name": "",
          "type": "address[]"
        }
      ],
      "stateMutability": "view",
      "type": "function"
    },
    {
      "inputs": [
        {
          "internalType": "address",
          "name": "_user",
          "type": "address"
        }
      ],
      "name": "getDirectReferralsData",
      "outputs": [
        {
          "components": [
            {
              "internalType": "address",
              "name": "user",
              "type": "address"
            },
            {
              "internalType": "uint256",
              "name": "ticketAmount",
              "type": "uint256"
            },
            {
              "internalType": "uint256",
              "name": "joinTime",
              "type": "uint256"
            }
          ],
          "internalType": "struct JinbaoProtocol.ReferralData[]",
          "name": "",
          "type": "tuple[]"
        }
      ],
      "stateMutability": "view",
      "type": "function"
    },
    {
      "inputs": [],
      "name": "getJBCPrice",
      "outputs": [
        {
          "internalType": "uint256",
          "name": "",
          "type": "uint256"
        }
      ],
      "stateMutability": "view",
      "type": "function"
    },
    {
      "inputs": [],
      "name": "jbcToken",
      "outputs": [
        {
          "internalType": "contract IJBC",
          "name": "",
          "type": "address"
        }
      ],
      "stateMutability": "view",
      "type": "function"
    },
    {
      "inputs": [],
      "name": "levelRewardPercent",
      "outputs": [
        {
          "internalType": "uint256",
          "name": "",
          "type": "uint256"
        }
      ],
      "stateMutability": "view",
      "type": "function"
    },
    {
      "inputs": [],
      "name": "lpInjectionPercent",
      "outputs": [
        {
          "internalType": "uint256",
          "name": "",
          "type": "uint256"
        }
      ],
      "stateMutability": "view",
      "type": "function"
    },
    {
      "inputs": [],
      "name": "lpInjectionWallet",
      "outputs": [
        {
          "internalType": "address",
          "name": "",
          "type": "address"
        }
      ],
      "stateMutability": "view",
      "type": "function"
    },
    {
      "inputs": [],
      "name": "marketingPercent",
      "outputs": [
        {
          "internalType": "uint256",
          "name": "",
          "type": "uint256"
        }
      ],
      "stateMutability": "view",
      "type": "function"
    },
    {
      "inputs": [],
      "name": "marketingWallet",
      "outputs": [
        {
          "internalType": "address",
          "name": "",
          "type": "address"
        }
      ],
      "stateMutability": "view",
      "type": "function"
    },
    {
      "inputs": [],
      "name": "mcToken",
      "outputs": [
        {
          "internalType": "contract IERC20",
          "name": "",
          "type": "address"
        }
      ],
      "stateMutability": "view",
      "type": "function"
    },
    {
      "inputs": [],
      "name": "nextTicketId",
      "outputs": [
        {
          "internalType": "uint256",
          "name": "",
          "type": "uint256"
        }
      ],
      "stateMutability": "view",
      "type": "function"
    },
    {
      "inputs": [],
      "name": "owner",
      "outputs": [
        {
          "internalType": "address",
          "name": "",
          "type": "address"
        }
      ],
      "stateMutability": "view",
      "type": "function"
    },
    {
      "inputs": [],
      "name": "redeem",
      "outputs": [],
      "stateMutability": "nonpayable",
      "type": "function"
    },
    {
      "inputs": [],
      "name": "redemptionFeePercent",
      "outputs": [
        {
          "internalType": "uint256",
          "name": "",
          "type": "uint256"
        }
      ],
      "stateMutability": "view",
      "type": "function"
    },
    {
      "inputs": [],
      "name": "renounceOwnership",
      "outputs": [],
      "stateMutability": "nonpayable",
      "type": "function"
    },
    {
      "inputs": [
        {
          "internalType": "uint256",
          "name": "_direct",
          "type": "uint256"
        },
        {
          "internalType": "uint256",
          "name": "_level",
          "type": "uint256"
        },
        {
          "internalType": "uint256",
          "name": "_marketing",
          "type": "uint256"
        },
        {
          "internalType": "uint256",
          "name": "_buyback",
          "type": "uint256"
        },
        {
          "internalType": "uint256",
          "name": "_lpInjection",
          "type": "uint256"
        },
        {
          "internalType": "uint256",
          "name": "_treasury",
          "type": "uint256"
        }
      ],
      "name": "setDistributionPercents",
      "outputs": [],
      "stateMutability": "nonpayable",
      "type": "function"
    },
    {
      "inputs": [
        {
          "internalType": "uint256",
          "name": "_fee",
          "type": "uint256"
        }
      ],
      "name": "setRedemptionFee",
      "outputs": [],
      "stateMutability": "nonpayable",
      "type": "function"
    },
    {
      "inputs": [
        {
          "internalType": "uint256",
          "name": "_buyTax",
          "type": "uint256"
        },
        {
          "internalType": "uint256",
          "name": "_sellTax",
          "type": "uint256"
        }
      ],
      "name": "setSwapTaxes",
      "outputs": [],
      "stateMutability": "nonpayable",
      "type": "function"
    },
    {
      "inputs": [
        {
          "internalType": "address",
          "name": "_marketing",
          "type": "address"
        },
        {
          "internalType": "address",
          "name": "_treasury",
          "type": "address"
        },
        {
          "internalType": "address",
          "name": "_lpInjection",
          "type": "address"
        },
        {
          "internalType": "address",
          "name": "_buyback",
          "type": "address"
        }
      ],
      "name": "setWallets",
      "outputs": [],
      "stateMutability": "nonpayable",
      "type": "function"
    },
    {
      "inputs": [
        {
          "internalType": "uint256",
          "name": "cycleDays",
          "type": "uint256"
        }
      ],
      "name": "stakeLiquidity",
      "outputs": [],
      "stateMutability": "nonpayable",
      "type": "function"
    },
    {
      "inputs": [],
      "name": "swapBuyTax",
      "outputs": [
        {
          "internalType": "uint256",
          "name": "",
          "type": "uint256"
        }
      ],
      "stateMutability": "view",
      "type": "function"
    },
    {
      "inputs": [
        {
          "internalType": "uint256",
          "name": "jbcAmount",
          "type": "uint256"
        }
      ],
      "name": "swapJBCToMC",
      "outputs": [],
      "stateMutability": "nonpayable",
      "type": "function"
    },
    {
      "inputs": [
        {
          "internalType": "uint256",
          "name": "mcAmount",
          "type": "uint256"
        }
      ],
      "name": "swapMCToJBC",
      "outputs": [],
      "stateMutability": "nonpayable",
      "type": "function"
    },
    {
      "inputs": [],
      "name": "swapSellTax",
      "outputs": [
        {
          "internalType": "uint256",
          "name": "",
          "type": "uint256"
        }
      ],
      "stateMutability": "view",
      "type": "function"
    },
    {
      "inputs": [
        {
          "internalType": "address",
          "name": "newOwner",
          "type": "address"
        }
      ],
      "name": "transferOwnership",
      "outputs": [],
      "stateMutability": "nonpayable",
      "type": "function"
    },
    {
      "inputs": [],
      "name": "treasuryPercent",
      "outputs": [
        {
          "internalType": "uint256",
          "name": "",
          "type": "uint256"
        }
      ],
      "stateMutability": "view",
      "type": "function"
    },
    {
      "inputs": [],
      "name": "treasuryWallet",
      "outputs": [
        {
          "internalType": "address",
          "name": "",
          "type": "address"
        }
      ],
      "stateMutability": "view",
      "type": "function"
    },
    {
      "inputs": [
        {
          "internalType": "address",
          "name": "",
          "type": "address"
        }
      ],
      "name": "userInfo",
      "outputs": [
        {
          "internalType": "address",
          "name": "referrer",
          "type": "address"
        },
        {
          "internalType": "uint256",
          "name": "activeDirects",
          "type": "uint256"
        },
        {
          "internalType": "uint256",
          "name": "teamCount",
          "type": "uint256"
        },
        {
          "internalType": "uint256",
          "name": "totalRevenue",
          "type": "uint256"
        },
        {
          "internalType": "uint256",
          "name": "currentCap",
          "type": "uint256"
        },
        {
          "internalType": "bool",
          "name": "isActive",
          "type": "bool"
        }
      ],
      "stateMutability": "view",
      "type": "function"
    },
    {
      "inputs": [
        {
          "internalType": "address",
          "name": "",
          "type": "address"
        }
      ],
      "name": "userTicket",
      "outputs": [
        {
          "internalType": "uint256",
          "name": "ticketId",
          "type": "uint256"
        },
        {
          "internalType": "uint256",
          "name": "amount",
          "type": "uint256"
        },
        {
          "internalType": "uint256",
          "name": "requiredLiquidity",
          "type": "uint256"
        },
        {
          "internalType": "uint256",
          "name": "purchaseTime",
          "type": "uint256"
        },
        {
          "internalType": "bool",
          "name": "liquidityProvided",
          "type": "bool"
        },
        {
          "internalType": "uint256",
          "name": "liquidityAmount",
          "type": "uint256"
        },
        {
          "internalType": "uint256",
          "name": "startTime",
          "type": "uint256"
        },
        {
          "internalType": "uint256",
          "name": "cycleDays",
          "type": "uint256"
        },
        {
          "internalType": "bool",
          "name": "redeemed",
          "type": "bool"
        }
      ],
      "stateMutability": "view",
      "type": "function"
    }
  ],
  "bytecode": "0x608060405260016008556019600955600f600a556005600b556005600c556019600d556019600e556032600f5560196010553480156200003e57600080fd5b50604051620031ea380380620031ea833981016040819052620000619162000178565b33806200008857604051631e4fbdf760e01b81526000600482015260240160405180910390fd5b62000093816200010b565b5060018055600280546001600160a01b03199081166001600160a01b0398891617909155600380548216968816969096179095556004805486169487169490941790935560058054851692861692909217909155600680548416918516919091179055600780549092169216919091179055620001f9565b600080546001600160a01b038381166001600160a01b0319831681178455604051919092169283917f8be0079c531659141344cd1fd0a4f28419497f9722a3daafe3b4186f6b6457e09190a35050565b80516001600160a01b03811681146200017357600080fd5b919050565b60008060008060008060c087890312156200019257600080fd5b6200019d876200015b565b9550620001ad602088016200015b565b9450620001bd604088016200015b565b9350620001cd606088016200015b565b9250620001dd608088016200015b565b9150620001ed60a088016200015b565b90509295509295509295565b612fe180620002096000396000f3fe608060405234801561001057600080fd5b50600436106102955760003560e01c80637dbc1df011610167578063be040fb0116100ce578063deab8aea11610087578063deab8aea14610652578063dec7fa3b14610665578063e4412f681461066e578063ecda2d3214610677578063f23745511461068a578063f2fde38b1461069257600080fd5b8063be040fb0146105fc578063ccf6194414610604578063ceaa366d1461060d578063d241e00114610616578063d2c8e0e514610629578063d8020a181461064957600080fd5b80638da5cb5b116101205780638da5cb5b146105a057806390b0eb51146105b15780639370b080146105c457806395253992146105cd578063a2af9226146105e0578063bd594dcf146105f357600080fd5b80637dbc1df0146104b357806383672f3e146104c65780638710bcaa146104d957806388fd4d331461057d5780638a859a85146105905780638c0eaa481461059857600080fd5b8063350763731161020b57806361a52a36116101c457806361a52a361461045557806362eea9141461045f57806367dd74ca146104725780636fb3c47c14610485578063715018a61461049857806375f0a874146104a057600080fd5b80633507637314610403578063372500ab146104165780633a3ea2f01461041e5780634626402b1461042657806352778b05146104395780636031a52f1461044c57600080fd5b80630e2be2101161025d5780630e2be2101461031c5780630fc4fc1a146103365780631427f616146103565780631788513c1461035e5780631959a0021461037157806327f082f4146103fa57600080fd5b806304ef9d581461029a57806304f618cb146102b6578063054d50d4146102cb57806305ad3935146102de5780630a5c456714610309575b600080fd5b6102a3600e5481565b6040519081526020015b60405180910390f35b6102c96102c4366004612bb3565b6106a5565b005b6102a36102d9366004612bd5565b610812565b6102f16102ec366004612c01565b6108e8565b6040516001600160a01b0390911681526020016102ad565b6102c9610317366004612c2b565b610920565b610324600281565b60405160ff90911681526020016102ad565b610349610344366004612bb3565b610cd0565b6040516102ad9190612c44565b610324600081565b6003546102f1906001600160a01b031681565b6103c161037f366004612bb3565b6011602052600090815260409020805460018201546002830154600384015460048501546005909501546001600160a01b039094169492939192909160ff1686565b604080516001600160a01b03909716875260208701959095529385019290925260608401526080830152151560a082015260c0016102ad565b6102a3600f5481565b6102c9610411366004612c2b565b610ec0565b6102c9611146565b6102a3611650565b6005546102f1906001600160a01b031681565b6102c9610447366004612c2b565b61176a565b6102a360145481565b6102a36201518081565b6102c961046d366004612ca6565b611b04565b6102c9610480366004612c2b565b611c7d565b6102c9610493366004612cd2565b612359565b6102c9612388565b6004546102f1906001600160a01b031681565b6102c96104c1366004612c2b565b61239a565b6102c96104d4366004612d05565b6123a7565b6105376104e7366004612bb3565b601260205260009081526040902080546001820154600283015460038401546004850154600586015460068701546007880154600890980154969795969495939460ff9384169492939192911689565b60408051998a5260208a0198909852968801959095526060870193909352901515608086015260a085015260c084015260e08301521515610100820152610120016102ad565b6006546102f1906001600160a01b031681565b610324600181565b610324600381565b6000546001600160a01b03166102f1565b6102c96105bf366004612d59565b6123ff565b6102a360105481565b6002546102f1906001600160a01b031681565b6102c96105ee366004612d7b565b612412565b6102a3600a5481565b6102c9612616565b6102a360095481565b6102a3600d5481565b6102c9610624366004612ca6565b612871565b61063c610637366004612bb3565b6129a1565b6040516102ad9190612da5565b6102a3600b5481565b6007546102f1906001600160a01b031681565b6102a360085481565b6102a3600c5481565b6102c9610685366004612df2565b612a17565b6102a3603c81565b6102c96106a0366004612bb3565b612ab5565b336000908152601160205260409020546001600160a01b0316156107005760405162461bcd60e51b815260206004820152600d60248201526c105b1c9958591e48189bdd5b99609a1b60448201526064015b60405180910390fd5b336001600160a01b0382160361074b5760405162461bcd60e51b815260206004820152601060248201526f21b0b73737ba103134b7321039b2b63360811b60448201526064016106f7565b6001600160a01b0381166107945760405162461bcd60e51b815260206004820152601060248201526f24b73b30b634b2103932b332b93932b960811b60448201526064016106f7565b33600081815260116020908152604080832080546001600160a01b0387166001600160a01b0319918216811790925581855260138452828520805460018101825590865293852090930180549093168517909255519092917fa6dbb5aa28f35437de94d685d66edce5fb4812196b4984b91dfd5a7b38c0fb3091a350565b60008084116108635760405162461bcd60e51b815260206004820152601960248201527f496e73756666696369656e7420696e70757420616d6f756e740000000000000060448201526064016106f7565b6000831180156108735750600082115b6108b85760405162461bcd60e51b8152602060048201526016602482015275496e73756666696369656e74206c697175696469747960501b60448201526064016106f7565b60006108c48386612e4b565b905060006108d28686612e68565b90506108de8183612e7b565b9695505050505050565b6013602052816000526040600020818154811061090457600080fd5b6000918252602090912001546001600160a01b03169150829050565b610928612af0565b600081116109485760405162461bcd60e51b81526004016106f790612e9d565b6002546040516323b872dd60e01b81526001600160a01b03909116906323b872dd9061097c90339030908690600401612ec5565b6020604051808303816000875af115801561099b573d6000803e3d6000fd5b505050506040513d601f19601f820116820180604052508101906109bf9190612ee9565b506002546040516370a0823160e01b815230600482015260009183916001600160a01b03909116906370a0823190602401602060405180830381865afa158015610a0d573d6000803e3d6000fd5b505050506040513d601f19601f82011682018060405250810190610a319190612f0b565b610a3b9190612f24565b6003546040516370a0823160e01b81523060048201529192506000916001600160a01b03909116906370a0823190602401602060405180830381865afa158015610a89573d6000803e3d6000fd5b505050506040513d601f19601f82011682018060405250810190610aad9190612f0b565b90506000610abc848484610812565b905060006064600f5483610ad09190612e4b565b610ada9190612e7b565b90506000610ae88284612f24565b6003546040516370a0823160e01b815230600482015291925084916001600160a01b03909116906370a0823190602401602060405180830381865afa158015610b35573d6000803e3d6000fd5b505050506040513d601f19601f82011682018060405250810190610b599190612f0b565b1015610ba75760405162461bcd60e51b815260206004820152601a60248201527f496e73756666696369656e74204a4243206c697175696469747900000000000060448201526064016106f7565b600354604051630852cd8d60e31b8152600481018490526001600160a01b03909116906342966c6890602401600060405180830381600087803b158015610bed57600080fd5b505af1158015610c01573d6000803e3d6000fd5b505060035460405163a9059cbb60e01b81526001600160a01b03909116925063a9059cbb9150610c379033908590600401612f37565b6020604051808303816000875af1158015610c56573d6000803e3d6000fd5b505050506040513d601f19601f82011682018060405250810190610c7a9190612ee9565b50604080518781526020810183905290810183905233907f36864aeefce16bc4aaceeb6b0cdfb2ad1455a8cb4ccb0db148a2bc6e7166f97c906060015b60405180910390a25050505050610ccd60018055565b50565b6001600160a01b0381166000908152601360209081526040808320805482518185028101850190935280835260609493830182828015610d3957602002820191906000526020600020905b81546001600160a01b03168152600190910190602001808311610d1b575b505050505090506000815167ffffffffffffffff811115610d5c57610d5c612f50565b604051908082528060200260200182016040528015610dba57816020015b610da7604051806060016040528060006001600160a01b0316815260200160008152602001600081525090565b815260200190600190039081610d7a5790505b50905060005b8251811015610eb8576040518060600160405280848381518110610de657610de6612f66565b60200260200101516001600160a01b0316815260200160126000868581518110610e1257610e12612f66565b60200260200101516001600160a01b03166001600160a01b0316815260200190815260200160002060010154815260200160126000868581518110610e5957610e59612f66565b60200260200101516001600160a01b03166001600160a01b0316815260200190815260200160002060030154815250828281518110610e9a57610e9a612f66565b60200260200101819052508080610eb090612f7c565b915050610dc0565b509392505050565b610ec8612af0565b336000908152601260205260409020600181015415801590610eef5750600481015460ff16155b610f2d5760405162461bcd60e51b815260206004820152600f60248201526e139bc81d985b1a59081d1a58dad95d608a1b60448201526064016106f7565b6003810154610f3f906203f480612e68565b421115610f7f5760405162461bcd60e51b815260206004820152600e60248201526d151a58dad95d08195e1c1a5c995960921b60448201526064016106f7565b8160031480610f8e5750816005145b80610f995750816007145b610fd55760405162461bcd60e51b815260206004820152600d60248201526c496e76616c6964206379636c6560981b60448201526064016106f7565b60028082015490546040516323b872dd60e01b81526001600160a01b03909116906323b872dd9061100e90339030908690600401612ec5565b6020604051808303816000875af115801561102d573d6000803e3d6000fd5b505050506040513d601f19601f820116820180604052508101906110519190612ee9565b5060048201805460ff191660011790556005820181905542600683015560078201839055336000908152601160205260409020546001600160a01b031680158015906110b057503360009081526011602052604090206005015460ff16155b156110ff576001600160a01b03811660009081526011602052604081206001018054916110dc83612f7c565b9091555050336000908152601160205260409020600501805460ff191660011790555b604080518381526020810186905233917f1e54d7530dad81af38adb8ca9db02add3130668375f37be85396403616fc3d49910160405180910390a2505050610ccd60018055565b61114e612af0565b336000908152601260205260409020600481015460ff1680156111765750600881015460ff16155b6111af5760405162461bcd60e51b815260206004820152600a6024820152694e6f742061637469766560b01b60448201526064016106f7565b600081600701546003036111c5575060146111e9565b81600701546005036111d9575060196111e9565b81600701546007036111e95750601e5b6000603c8360060154426111fd9190612f24565b6112079190612e7b565b90506000811161124a5760405162461bcd60e51b815260206004820152600e60248201526d139bc81c995dd85c991cc81e595d60921b60448201526064016106f7565b826007015481111561125d575060078201545b60006103e8828486600101546112739190612e4b565b61127d9190612e4b565b6112879190612e7b565b3360009081526011602052604090206004810154600390910154919250906112b0908390612e68565b11156112dd5733600090815260116020526040902060038101546004909101546112da9190612f24565b90505b600081116113235760405162461bcd60e51b81526020600482015260136024820152724e6f207265776172647320746f20636c61696d60681b60448201526064016106f7565b3360009081526011602052604081206003018054839290611345908490612e68565b9091555060009050611358600283612e7b565b90506000611367600284612e7b565b6002546040516370a0823160e01b815230600482015291925083916001600160a01b03909116906370a0823190602401602060405180830381865afa1580156113b4573d6000803e3d6000fd5b505050506040513d601f19601f820116820180604052508101906113d89190612f0b565b10156114265760405162461bcd60e51b815260206004820152601760248201527f496e73756666696369656e74204d4320696e20706f6f6c00000000000000000060448201526064016106f7565b60025460405163a9059cbb60e01b81526001600160a01b039091169063a9059cbb906114589033908690600401612f37565b6020604051808303816000875af1158015611477573d6000803e3d6000fd5b505050506040513d601f19601f8201168201806040525081019061149b9190612ee9565b50670de0b6b3a76400006000816114b28482612e4b565b6114bc9190612e7b565b6003546040516370a0823160e01b815230600482015291925082916001600160a01b03909116906370a0823190602401602060405180830381865afa158015611509573d6000803e3d6000fd5b505050506040513d601f19601f8201168201806040525081019061152d9190612f0b565b101561157b5760405162461bcd60e51b815260206004820152601860248201527f496e73756666696369656e74204a424320696e20706f6f6c000000000000000060448201526064016106f7565b60035460405163a9059cbb60e01b81526001600160a01b039091169063a9059cbb906115ad9033908590600401612f37565b6020604051808303816000875af11580156115cc573d6000803e3d6000fd5b505050506040513d601f19601f820116820180604052508101906115f09190612ee9565b508754604080518681526020810184905260008183015260608101929092525133917f6fcebd0a2ce98b28cb391d6008bbc769378c9a4919628e11639cb575cd320fcc919081900360800190a2505050505050505061164e60018055565b565b6002546040516370a0823160e01b815230600482015260009182916001600160a01b03909116906370a0823190602401602060405180830381865afa15801561169d573d6000803e3d6000fd5b505050506040513d601f19601f820116820180604052508101906116c19190612f0b565b6003546040516370a0823160e01b81523060048201529192506000916001600160a01b03909116906370a0823190602401602060405180830381865afa15801561170f573d6000803e3d6000fd5b505050506040513d601f19601f820116820180604052508101906117339190612f0b565b9050806000036117465760009250505090565b8061175983670de0b6b3a7640000612e4b565b6117639190612e7b565b9250505090565b611772612af0565b600081116117925760405162461bcd60e51b81526004016106f790612e9d565b6003546040516323b872dd60e01b81526001600160a01b03909116906323b872dd906117c690339030908690600401612ec5565b6020604051808303816000875af11580156117e5573d6000803e3d6000fd5b505050506040513d601f19601f820116820180604052508101906118099190612ee9565b50600060646010548361181c9190612e4b565b6118269190612e7b565b905060006118348284612f24565b600354604051630852cd8d60e31b8152600481018590529192506001600160a01b0316906342966c6890602401600060405180830381600087803b15801561187b57600080fd5b505af115801561188f573d6000803e3d6000fd5b50506003546040516370a0823160e01b8152306004820152600093508492506001600160a01b03909116906370a0823190602401602060405180830381865afa1580156118e0573d6000803e3d6000fd5b505050506040513d601f19601f820116820180604052508101906119049190612f0b565b61190e9190612f24565b6002546040516370a0823160e01b81523060048201529192506000916001600160a01b03909116906370a0823190602401602060405180830381865afa15801561195c573d6000803e3d6000fd5b505050506040513d601f19601f820116820180604052508101906119809190612f0b565b9050600061198f848484610812565b6002546040516370a0823160e01b815230600482015291925082916001600160a01b03909116906370a0823190602401602060405180830381865afa1580156119dc573d6000803e3d6000fd5b505050506040513d601f19601f82011682018060405250810190611a009190612f0b565b1015611a4e5760405162461bcd60e51b815260206004820152601960248201527f496e73756666696369656e74204d43206c69717569646974790000000000000060448201526064016106f7565b60025460405163a9059cbb60e01b81526001600160a01b039091169063a9059cbb90611a809033908590600401612f37565b6020604051808303816000875af1158015611a9f573d6000803e3d6000fd5b505050506040513d601f19601f82011682018060405250810190611ac39190612ee9565b50604080518781526020810183905290810186905233907f223c8ad0806f634524940a8595f819c5cfc7b1f4f4f45791269301df0a7e61d590606001610cb7565b611b0c612b1a565b6001600160a01b038116611b565760405162461bcd60e51b8152602060048201526011602482015270125b9d985b1a59081c9958da5c1a595b9d607a1b60448201526064016106f7565b6003546040516370a0823160e01b815230600482015283916001600160a01b0316906370a0823190602401602060405180830381865afa158015611b9e573d6000803e3d6000fd5b505050506040513d601f19601f82011682018060405250810190611bc29190612f0b565b1015611c035760405162461bcd60e51b815260206004820152601060248201526f496e73756666696369656e74204a424360801b60448201526064016106f7565b60035460405163a9059cbb60e01b81526001600160a01b039091169063a9059cbb90611c359084908690600401612f37565b6020604051808303816000875af1158015611c54573d6000803e3d6000fd5b505050506040513d601f19601f82011682018060405250810190611c789190612ee9565b505050565b611c85612af0565b60008111611ca55760405162461bcd60e51b81526004016106f790612e9d565b6002546040516323b872dd60e01b81526001600160a01b03909116906323b872dd90611cd990339030908690600401612ec5565b6020604051808303816000875af1158015611cf8573d6000803e3d6000fd5b505050506040513d601f19601f82011682018060405250810190611d1c9190612ee9565b50600160146000828254611d309190612e68565b909155505060408051610120810182526014548152602081018390529081016064611d5c846096612e4b565b611d669190612e7b565b815242602080830191909152600060408084018290526060808501839052608080860184905260a080870185905260c09687018590523385526012865293839020875181559487015160018601559186015160028501558501516003808501919091559085015160048401805491151560ff1992831617905591850151600584015592840151600683015560e0840151600783015561010090930151600890910180549115159190931617909155611e1f908290612e4b565b33600090815260116020526040812060048101929092556003820155546001600160a01b03168015611f34576000606460095484611e5d9190612e4b565b611e679190612e7b565b60025460405163a9059cbb60e01b81529192506001600160a01b03169063a9059cbb90611e9a9085908590600401612f37565b6020604051808303816000875af1158015611eb9573d6000803e3d6000fd5b505050506040513d601f19601f82011682018060405250810190611edd9190612ee9565b506014546040805183815260026020820152808201929092525133916001600160a01b038516917f9b3cc71482a1b2eebe764a739f46f1fe99291fd0183be81951532b29d0c9c8da9181900360600190a350611fca565b6002546004546009546001600160a01b039283169263a9059cbb921690606490611f5e9087612e4b565b611f689190612e7b565b6040518363ffffffff1660e01b8152600401611f85929190612f37565b6020604051808303816000875af1158015611fa4573d6000803e3d6000fd5b505050506040513d601f19601f82011682018060405250810190611fc89190612ee9565b505b60006064600a5484611fdc9190612e4b565b611fe69190612e7b565b6002546004805460405163a9059cbb60e01b81529394506001600160a01b039283169363a9059cbb9361201e93921691869101612f37565b6020604051808303816000875af115801561203d573d6000803e3d6000fd5b505050506040513d601f19601f820116820180604052508101906120619190612ee9565b5060045460145460408051848152600360208201529081019190915233916001600160a01b0316907f9b3cc71482a1b2eebe764a739f46f1fe99291fd0183be81951532b29d0c9c8da9060600160405180910390a3600254600454600b546001600160a01b039283169263a9059cbb9216906064906120e09088612e4b565b6120ea9190612e7b565b6040518363ffffffff1660e01b8152600401612107929190612f37565b6020604051808303816000875af1158015612126573d6000803e3d6000fd5b505050506040513d601f19601f8201168201806040525081019061214a9190612ee9565b50600254600754600c546001600160a01b039283169263a9059cbb9216906064906121759088612e4b565b61217f9190612e7b565b6040518363ffffffff1660e01b815260040161219c929190612f37565b6020604051808303816000875af11580156121bb573d6000803e3d6000fd5b505050506040513d601f19601f820116820180604052508101906121df9190612ee9565b50600254600654600d546001600160a01b039283169263a9059cbb92169060649061220a9088612e4b565b6122149190612e7b565b6040518363ffffffff1660e01b8152600401612231929190612f37565b6020604051808303816000875af1158015612250573d6000803e3d6000fd5b505050506040513d601f19601f820116820180604052508101906122749190612ee9565b50600254600554600e546001600160a01b039283169263a9059cbb92169060649061229f9088612e4b565b6122a99190612e7b565b6040518363ffffffff1660e01b81526004016122c6929190612f37565b6020604051808303816000875af11580156122e5573d6000803e3d6000fd5b505050506040513d601f19601f820116820180604052508101906123099190612ee9565b5060145460405133917f2a91574e12ad96234e84923e146b0946ecfb871cd8d5534dc1fdcbe87a7c01b39161234691878252602082015260400190565b60405180910390a25050610ccd60018055565b612361612b1a565b6001600160a01b039092166000908152601160205260409020600181019190915560020155565b612390612b1a565b61164e6000612b47565b6123a2612b1a565b600855565b6123af612b1a565b600480546001600160a01b039586166001600160a01b0319918216179091556005805494861694821694909417909355600680549285169284169290921790915560078054919093169116179055565b612407612b1a565b600f91909155601055565b61241a612b1a565b806001600160a01b0316826001600160a01b03160361246e5760405162461bcd60e51b815260206004820152601060248201526f21b0b73737ba103134b7321039b2b63360811b60448201526064016106f7565b6001600160a01b03808316600090815260116020526040902080548383166001600160a01b03198216179091551680156125c5576001600160a01b0381166000908152601360205260408120905b81548110156125c257846001600160a01b03168282815481106124e1576124e1612f66565b6000918252602090912001546001600160a01b0316036125b0578154829061250b90600190612f24565b8154811061251b5761251b612f66565b9060005260206000200160009054906101000a90046001600160a01b031682828154811061254b5761254b612f66565b9060005260206000200160006101000a8154816001600160a01b0302191690836001600160a01b031602179055508180548061258957612589612f95565b600082815260209020810160001990810180546001600160a01b03191690550190556125c2565b806125ba81612f7c565b9150506124bc565b50505b6001600160a01b03821615611c7857506001600160a01b0390811660009081526013602090815260408220805460018101825590835291200180546001600160a01b03191692909116919091179055565b61261e612af0565b336000908152601260205260409020600481015460ff1680156126465750600881015460ff16155b6126825760405162461bcd60e51b815260206004820152600d60248201526c43616e6e6f742072656465656d60981b60448201526064016106f7565b600781015461269290603c612e4b565b81600601546126a19190612e68565b4210156126e55760405162461bcd60e51b815260206004820152601260248201527110de58db19481b9bdd08199a5b9a5cda195960721b60448201526064016106f7565b6000606460085483600101546126fb9190612e4b565b6127059190612e7b565b6002546040516323b872dd60e01b81529192506001600160a01b0316906323b872dd9061273a90339030908690600401612ec5565b6020604051808303816000875af1158015612759573d6000803e3d6000fd5b505050506040513d601f19601f8201168201806040525081019061277d9190612ee9565b50600254600583015460405163a9059cbb60e01b81526001600160a01b039092169163a9059cbb916127b491339190600401612f37565b6020604051808303816000875af11580156127d3573d6000803e3d6000fd5b505050506040513d601f19601f820116820180604052508101906127f79190612ee9565b50600882018054600160ff1991821617909155336000818152601160209081526040918290206005908101805490951690945592850154815190815292830184905290917ff3a670cd3af7d64b488926880889d08a8585a138ff455227af6737339a1ec262910160405180910390a2505061164e60018055565b612879612b1a565b6001600160a01b0381166128c35760405162461bcd60e51b8152602060048201526011602482015270125b9d985b1a59081c9958da5c1a595b9d607a1b60448201526064016106f7565b6002546040516370a0823160e01b815230600482015283916001600160a01b0316906370a0823190602401602060405180830381865afa15801561290b573d6000803e3d6000fd5b505050506040513d601f19601f8201168201806040525081019061292f9190612f0b565b101561296f5760405162461bcd60e51b815260206004820152600f60248201526e496e73756666696369656e74204d4360881b60448201526064016106f7565b60025460405163a9059cbb60e01b81526001600160a01b039091169063a9059cbb90611c359084908690600401612f37565b6001600160a01b038116600090815260136020908152604091829020805483518184028101840190945280845260609392830182828015612a0b57602002820191906000526020600020905b81546001600160a01b031681526001909101906020018083116129ed575b50505050509050919050565b612a1f612b1a565b80828486612a2d898b612e68565b612a379190612e68565b612a419190612e68565b612a4b9190612e68565b612a559190612e68565b606414612a985760405162461bcd60e51b81526020600482015260116024820152700546f74616c206d7573742062652031303607c1b60448201526064016106f7565b600995909555600a93909355600b91909155600c55600d55600e55565b612abd612b1a565b6001600160a01b038116612ae757604051631e4fbdf760e01b8152600060048201526024016106f7565b610ccd81612b47565b600260015403612b1357604051633ee5aeb560e01b815260040160405180910390fd5b6002600155565b6000546001600160a01b0316331461164e5760405163118cdaa760e01b81523360048201526024016106f7565b600080546001600160a01b038381166001600160a01b0319831681178455604051919092169283917f8be0079c531659141344cd1fd0a4f28419497f9722a3daafe3b4186f6b6457e09190a35050565b80356001600160a01b0381168114612bae57600080fd5b919050565b600060208284031215612bc557600080fd5b612bce82612b97565b9392505050565b600080600060608486031215612bea57600080fd5b505081359360208301359350604090920135919050565b60008060408385031215612c1457600080fd5b612c1d83612b97565b946020939093013593505050565b600060208284031215612c3d57600080fd5b5035919050565b602080825282518282018190526000919060409081850190868401855b82811015612c9957815180516001600160a01b0316855286810151878601528501518585015260609093019290850190600101612c61565b5091979650505050505050565b60008060408385031215612cb957600080fd5b82359150612cc960208401612b97565b90509250929050565b600080600060608486031215612ce757600080fd5b612cf084612b97565b95602085013595506040909401359392505050565b60008060008060808587031215612d1b57600080fd5b612d2485612b97565b9350612d3260208601612b97565b9250612d4060408601612b97565b9150612d4e60608601612b97565b905092959194509250565b60008060408385031215612d6c57600080fd5b50508035926020909101359150565b60008060408385031215612d8e57600080fd5b612d9783612b97565b9150612cc960208401612b97565b6020808252825182820181905260009190848201906040850190845b81811015612de65783516001600160a01b031683529284019291840191600101612dc1565b50909695505050505050565b60008060008060008060c08789031215612e0b57600080fd5b505084359660208601359650604086013595606081013595506080810135945060a0013592509050565b634e487b7160e01b600052601160045260246000fd5b8082028115828204841417612e6257612e62612e35565b92915050565b80820180821115612e6257612e62612e35565b600082612e9857634e487b7160e01b600052601260045260246000fd5b500490565b6020808252600e908201526d125b9d985b1a5908185b5bdd5b9d60921b604082015260600190565b6001600160a01b039384168152919092166020820152604081019190915260600190565b600060208284031215612efb57600080fd5b81518015158114612bce57600080fd5b600060208284031215612f1d57600080fd5b5051919050565b81810381811115612e6257612e62612e35565b6001600160a01b03929092168252602082015260400190565b634e487b7160e01b600052604160045260246000fd5b634e487b7160e01b600052603260045260246000fd5b600060018201612f8e57612f8e612e35565b5060010190565b634e487b7160e01b600052603160045260246000fdfea2646970667358221220b370324177e2d789c48606ec604735e858683d26627cd6d9d6f9f9e74f1be68064736f6c63430008140033",
  "linkReferences": {},
  "deployedLinkReferences": {}
}