{
  "_format": "hh-sol-artifact-1",
  "contractName": "JinbaoProtocol",
  "sourceName": "contracts/JinbaoProtocol.sol",
  "abi": [
    {
      "inputs": [],
      "stateMutability": "nonpayable",
      "type": "constructor"
    },
    {
      "inputs": [
        {
          "internalType": "address",
          "name": "target",
          "type": "address"
        }
      ],
      "name": "AddressEmptyCode",
      "type": "error"
    },
    {
      "inputs": [
        {
          "internalType": "address",
          "name": "implementation",
          "type": "address"
        }
      ],
      "name": "ERC1967InvalidImplementation",
      "type": "error"
    },
    {
      "inputs": [],
      "name": "ERC1967NonPayable",
      "type": "error"
    },
    {
      "inputs": [],
      "name": "FailedCall",
      "type": "error"
    },
    {
      "inputs": [],
      "name": "InvalidInitialization",
      "type": "error"
    },
    {
      "inputs": [],
      "name": "NotInitializing",
      "type": "error"
    },
    {
      "inputs": [
        {
          "internalType": "address",
          "name": "owner",
          "type": "address"
        }
      ],
      "name": "OwnableInvalidOwner",
      "type": "error"
    },
    {
      "inputs": [
        {
          "internalType": "address",
          "name": "account",
          "type": "address"
        }
      ],
      "name": "OwnableUnauthorizedAccount",
      "type": "error"
    },
    {
      "inputs": [],
      "name": "ReentrancyGuardReentrantCall",
      "type": "error"
    },
    {
      "inputs": [],
      "name": "UUPSUnauthorizedCallContext",
      "type": "error"
    },
    {
      "inputs": [
        {
          "internalType": "bytes32",
          "name": "slot",
          "type": "bytes32"
        }
      ],
      "name": "UUPSUnsupportedProxiableUUID",
      "type": "error"
    },
    {
      "anonymous": false,
      "inputs": [
        {
          "indexed": true,
          "internalType": "address",
          "name": "user",
          "type": "address"
        },
        {
          "indexed": true,
          "internalType": "address",
          "name": "referrer",
          "type": "address"
        }
      ],
      "name": "BoundReferrer",
      "type": "event"
    },
    {
      "anonymous": false,
      "inputs": [
        {
          "indexed": false,
          "internalType": "uint256",
          "name": "mcAmount",
          "type": "uint256"
        },
        {
          "indexed": false,
          "internalType": "uint256",
          "name": "jbcBurned",
          "type": "uint256"
        }
      ],
      "name": "BuybackAndBurn",
      "type": "event"
    },
    {
      "anonymous": false,
      "inputs": [
        {
          "indexed": true,
          "internalType": "address",
          "name": "user",
          "type": "address"
        },
        {
          "indexed": false,
          "internalType": "uint256",
          "name": "ticketId",
          "type": "uint256"
        }
      ],
      "name": "Exited",
      "type": "event"
    },
    {
      "anonymous": false,
      "inputs": [
        {
          "indexed": true,
          "internalType": "address",
          "name": "user",
          "type": "address"
        },
        {
          "indexed": false,
          "internalType": "uint256",
          "name": "amount",
          "type": "uint256"
        }
      ],
      "name": "FeeRefunded",
      "type": "event"
    },
    {
      "anonymous": false,
      "inputs": [
        {
          "indexed": false,
          "internalType": "uint64",
          "name": "version",
          "type": "uint64"
        }
      ],
      "name": "Initialized",
      "type": "event"
    },
    {
      "anonymous": false,
      "inputs": [],
      "name": "LevelConfigsUpdated",
      "type": "event"
    },
    {
      "anonymous": false,
      "inputs": [
        {
          "indexed": true,
          "internalType": "uint256",
          "name": "ticketId",
          "type": "uint256"
        },
        {
          "indexed": true,
          "internalType": "address",
          "name": "upline",
          "type": "address"
        },
        {
          "indexed": false,
          "internalType": "uint256",
          "name": "amount",
          "type": "uint256"
        }
      ],
      "name": "LevelRewardRecorded",
      "type": "event"
    },
    {
      "anonymous": false,
      "inputs": [
        {
          "indexed": true,
          "internalType": "uint256",
          "name": "ticketId",
          "type": "uint256"
        },
        {
          "indexed": true,
          "internalType": "address",
          "name": "upline",
          "type": "address"
        },
        {
          "indexed": false,
          "internalType": "uint256",
          "name": "amount",
          "type": "uint256"
        }
      ],
      "name": "LevelRewardReleased",
      "type": "event"
    },
    {
      "anonymous": false,
      "inputs": [
        {
          "indexed": false,
          "internalType": "uint256",
          "name": "mcAmount",
          "type": "uint256"
        },
        {
          "indexed": false,
          "internalType": "uint256",
          "name": "jbcAmount",
          "type": "uint256"
        }
      ],
      "name": "LiquidityAdded",
      "type": "event"
    },
    {
      "anonymous": false,
      "inputs": [
        {
          "indexed": true,
          "internalType": "address",
          "name": "user",
          "type": "address"
        },
        {
          "indexed": false,
          "internalType": "uint256",
          "name": "amount",
          "type": "uint256"
        },
        {
          "indexed": false,
          "internalType": "uint256",
          "name": "cycleDays",
          "type": "uint256"
        },
        {
          "indexed": false,
          "internalType": "uint256",
          "name": "stakeId",
          "type": "uint256"
        }
      ],
      "name": "LiquidityStaked",
      "type": "event"
    },
    {
      "anonymous": false,
      "inputs": [
        {
          "indexed": false,
          "internalType": "bool",
          "name": "enabled",
          "type": "bool"
        }
      ],
      "name": "LiquidityStatusUpdated",
      "type": "event"
    },
    {
      "anonymous": false,
      "inputs": [
        {
          "indexed": true,
          "internalType": "address",
          "name": "previousOwner",
          "type": "address"
        },
        {
          "indexed": true,
          "internalType": "address",
          "name": "newOwner",
          "type": "address"
        }
      ],
      "name": "OwnershipTransferred",
      "type": "event"
    },
    {
      "anonymous": false,
      "inputs": [
        {
          "indexed": false,
          "internalType": "bool",
          "name": "enabled",
          "type": "bool"
        }
      ],
      "name": "RedeemStatusUpdated",
      "type": "event"
    },
    {
      "anonymous": false,
      "inputs": [
        {
          "indexed": true,
          "internalType": "address",
          "name": "user",
          "type": "address"
        },
        {
          "indexed": false,
          "internalType": "uint256",
          "name": "principal",
          "type": "uint256"
        },
        {
          "indexed": false,
          "internalType": "uint256",
          "name": "fee",
          "type": "uint256"
        }
      ],
      "name": "Redeemed",
      "type": "event"
    },
    {
      "anonymous": false,
      "inputs": [
        {
          "indexed": true,
          "internalType": "address",
          "name": "user",
          "type": "address"
        },
        {
          "indexed": true,
          "internalType": "address",
          "name": "from",
          "type": "address"
        },
        {
          "indexed": false,
          "internalType": "uint256",
          "name": "mcAmount",
          "type": "uint256"
        },
        {
          "indexed": false,
          "internalType": "uint8",
          "name": "rewardType",
          "type": "uint8"
        },
        {
          "indexed": false,
          "internalType": "uint256",
          "name": "ticketId",
          "type": "uint256"
        }
      ],
      "name": "ReferralRewardPaid",
      "type": "event"
    },
    {
      "anonymous": false,
      "inputs": [
        {
          "indexed": true,
          "internalType": "address",
          "name": "user",
          "type": "address"
        },
        {
          "indexed": false,
          "internalType": "uint256",
          "name": "amount",
          "type": "uint256"
        },
        {
          "indexed": false,
          "internalType": "uint256",
          "name": "cappedAmount",
          "type": "uint256"
        }
      ],
      "name": "RewardCapped",
      "type": "event"
    },
    {
      "anonymous": false,
      "inputs": [
        {
          "indexed": true,
          "internalType": "address",
          "name": "user",
          "type": "address"
        },
        {
          "indexed": false,
          "internalType": "uint256",
          "name": "mcAmount",
          "type": "uint256"
        },
        {
          "indexed": false,
          "internalType": "uint256",
          "name": "jbcAmount",
          "type": "uint256"
        },
        {
          "indexed": false,
          "internalType": "uint8",
          "name": "rewardType",
          "type": "uint8"
        },
        {
          "indexed": false,
          "internalType": "uint256",
          "name": "ticketId",
          "type": "uint256"
        }
      ],
      "name": "RewardClaimed",
      "type": "event"
    },
    {
      "anonymous": false,
      "inputs": [
        {
          "indexed": true,
          "internalType": "address",
          "name": "user",
          "type": "address"
        },
        {
          "indexed": false,
          "internalType": "uint256",
          "name": "amount",
          "type": "uint256"
        },
        {
          "indexed": false,
          "internalType": "uint8",
          "name": "rewardType",
          "type": "uint8"
        }
      ],
      "name": "RewardPaid",
      "type": "event"
    },
    {
      "anonymous": false,
      "inputs": [
        {
          "indexed": true,
          "internalType": "address",
          "name": "user",
          "type": "address"
        },
        {
          "indexed": false,
          "internalType": "uint256",
          "name": "jbcAmount",
          "type": "uint256"
        },
        {
          "indexed": false,
          "internalType": "uint256",
          "name": "mcAmount",
          "type": "uint256"
        },
        {
          "indexed": false,
          "internalType": "uint256",
          "name": "tax",
          "type": "uint256"
        }
      ],
      "name": "SwappedJBCToMC",
      "type": "event"
    },
    {
      "anonymous": false,
      "inputs": [
        {
          "indexed": true,
          "internalType": "address",
          "name": "user",
          "type": "address"
        },
        {
          "indexed": false,
          "internalType": "uint256",
          "name": "mcAmount",
          "type": "uint256"
        },
        {
          "indexed": false,
          "internalType": "uint256",
          "name": "jbcAmount",
          "type": "uint256"
        },
        {
          "indexed": false,
          "internalType": "uint256",
          "name": "tax",
          "type": "uint256"
        }
      ],
      "name": "SwappedMCToJBC",
      "type": "event"
    },
    {
      "anonymous": false,
      "inputs": [
        {
          "indexed": true,
          "internalType": "address",
          "name": "user",
          "type": "address"
        },
        {
          "indexed": false,
          "internalType": "uint256",
          "name": "ticketId",
          "type": "uint256"
        },
        {
          "indexed": false,
          "internalType": "uint256",
          "name": "amount",
          "type": "uint256"
        }
      ],
      "name": "TicketExpired",
      "type": "event"
    },
    {
      "anonymous": false,
      "inputs": [
        {
          "indexed": false,
          "internalType": "uint256",
          "name": "newDuration",
          "type": "uint256"
        }
      ],
      "name": "TicketFlexibilityDurationUpdated",
      "type": "event"
    },
    {
      "anonymous": false,
      "inputs": [
        {
          "indexed": true,
          "internalType": "address",
          "name": "user",
          "type": "address"
        },
        {
          "indexed": false,
          "internalType": "uint256",
          "name": "amount",
          "type": "uint256"
        },
        {
          "indexed": false,
          "internalType": "uint256",
          "name": "ticketId",
          "type": "uint256"
        }
      ],
      "name": "TicketPurchased",
      "type": "event"
    },
    {
      "anonymous": false,
      "inputs": [
        {
          "indexed": true,
          "internalType": "address",
          "name": "implementation",
          "type": "address"
        }
      ],
      "name": "Upgraded",
      "type": "event"
    },
    {
      "inputs": [],
      "name": "REWARD_DIRECT",
      "outputs": [
        {
          "internalType": "uint8",
          "name": "",
          "type": "uint8"
        }
      ],
      "stateMutability": "view",
      "type": "function"
    },
    {
      "inputs": [],
      "name": "REWARD_DYNAMIC",
      "outputs": [
        {
          "internalType": "uint8",
          "name": "",
          "type": "uint8"
        }
      ],
      "stateMutability": "view",
      "type": "function"
    },
    {
      "inputs": [],
      "name": "REWARD_LEVEL",
      "outputs": [
        {
          "internalType": "uint8",
          "name": "",
          "type": "uint8"
        }
      ],
      "stateMutability": "view",
      "type": "function"
    },
    {
      "inputs": [],
      "name": "REWARD_STATIC",
      "outputs": [
        {
          "internalType": "uint8",
          "name": "",
          "type": "uint8"
        }
      ],
      "stateMutability": "view",
      "type": "function"
    },
    {
      "inputs": [],
      "name": "SECONDS_IN_UNIT",
      "outputs": [
        {
          "internalType": "uint256",
          "name": "",
          "type": "uint256"
        }
      ],
      "stateMutability": "view",
      "type": "function"
    },
    {
      "inputs": [],
      "name": "UPGRADE_INTERFACE_VERSION",
      "outputs": [
        {
          "internalType": "string",
          "name": "",
          "type": "string"
        }
      ],
      "stateMutability": "view",
      "type": "function"
    },
    {
      "inputs": [
        {
          "internalType": "uint256",
          "name": "mcAmount",
          "type": "uint256"
        },
        {
          "internalType": "uint256",
          "name": "jbcAmount",
          "type": "uint256"
        }
      ],
      "name": "addLiquidity",
      "outputs": [],
      "stateMutability": "nonpayable",
      "type": "function"
    },
    {
      "inputs": [
        {
          "internalType": "address",
          "name": "user",
          "type": "address"
        },
        {
          "internalType": "address",
          "name": "newReferrer",
          "type": "address"
        }
      ],
      "name": "adminSetReferrer",
      "outputs": [],
      "stateMutability": "nonpayable",
      "type": "function"
    },
    {
      "inputs": [
        {
          "internalType": "address",
          "name": "user",
          "type": "address"
        },
        {
          "internalType": "uint256",
          "name": "_activeDirects",
          "type": "uint256"
        },
        {
          "internalType": "uint256",
          "name": "_teamCount",
          "type": "uint256"
        },
        {
          "internalType": "uint256",
          "name": "_teamTotalVolume",
          "type": "uint256"
        },
        {
          "internalType": "uint256",
          "name": "_teamTotalCap",
          "type": "uint256"
        }
      ],
      "name": "adminSetUserStats",
      "outputs": [],
      "stateMutability": "nonpayable",
      "type": "function"
    },
    {
      "inputs": [
        {
          "internalType": "uint256",
          "name": "amount",
          "type": "uint256"
        },
        {
          "internalType": "address",
          "name": "to",
          "type": "address"
        }
      ],
      "name": "adminWithdrawJBC",
      "outputs": [],
      "stateMutability": "nonpayable",
      "type": "function"
    },
    {
      "inputs": [
        {
          "internalType": "uint256",
          "name": "amount",
          "type": "uint256"
        },
        {
          "internalType": "address",
          "name": "to",
          "type": "address"
        }
      ],
      "name": "adminWithdrawMC",
      "outputs": [],
      "stateMutability": "nonpayable",
      "type": "function"
    },
    {
      "inputs": [
        {
          "internalType": "address",
          "name": "_referrer",
          "type": "address"
        }
      ],
      "name": "bindReferrer",
      "outputs": [],
      "stateMutability": "nonpayable",
      "type": "function"
    },
    {
      "inputs": [
        {
          "internalType": "uint256",
          "name": "amount",
          "type": "uint256"
        }
      ],
      "name": "buyTicket",
      "outputs": [],
      "stateMutability": "nonpayable",
      "type": "function"
    },
    {
      "inputs": [],
      "name": "buybackPercent",
      "outputs": [
        {
          "internalType": "uint256",
          "name": "",
          "type": "uint256"
        }
      ],
      "stateMutability": "view",
      "type": "function"
    },
    {
      "inputs": [],
      "name": "buybackWallet",
      "outputs": [
        {
          "internalType": "address",
          "name": "",
          "type": "address"
        }
      ],
      "stateMutability": "view",
      "type": "function"
    },
    {
      "inputs": [],
      "name": "claimRewards",
      "outputs": [],
      "stateMutability": "nonpayable",
      "type": "function"
    },
    {
      "inputs": [],
      "name": "dailyBurn",
      "outputs": [],
      "stateMutability": "nonpayable",
      "type": "function"
    },
    {
      "inputs": [
        {
          "internalType": "address",
          "name": "",
          "type": "address"
        },
        {
          "internalType": "uint256",
          "name": "",
          "type": "uint256"
        }
      ],
      "name": "directReferrals",
      "outputs": [
        {
          "internalType": "address",
          "name": "",
          "type": "address"
        }
      ],
      "stateMutability": "view",
      "type": "function"
    },
    {
      "inputs": [],
      "name": "directRewardPercent",
      "outputs": [
        {
          "internalType": "uint256",
          "name": "",
          "type": "uint256"
        }
      ],
      "stateMutability": "view",
      "type": "function"
    },
    {
      "inputs": [],
      "name": "expireMyTicket",
      "outputs": [],
      "stateMutability": "nonpayable",
      "type": "function"
    },
    {
      "inputs": [
        {
          "internalType": "uint256",
          "name": "amountIn",
          "type": "uint256"
        },
        {
          "internalType": "uint256",
          "name": "reserveIn",
          "type": "uint256"
        },
        {
          "internalType": "uint256",
          "name": "reserveOut",
          "type": "uint256"
        }
      ],
      "name": "getAmountOut",
      "outputs": [
        {
          "internalType": "uint256",
          "name": "",
          "type": "uint256"
        }
      ],
      "stateMutability": "pure",
      "type": "function"
    },
    {
      "inputs": [
        {
          "internalType": "address",
          "name": "user",
          "type": "address"
        }
      ],
      "name": "getDirectReferrals",
      "outputs": [
        {
          "internalType": "address[]",
          "name": "",
          "type": "address[]"
        }
      ],
      "stateMutability": "view",
      "type": "function"
    },
    {
      "inputs": [
        {
          "internalType": "address",
          "name": "user",
          "type": "address"
        }
      ],
      "name": "getDirectReferralsData",
      "outputs": [
        {
          "components": [
            {
              "internalType": "address",
              "name": "user",
              "type": "address"
            },
            {
              "internalType": "uint256",
              "name": "ticketAmount",
              "type": "uint256"
            },
            {
              "internalType": "uint256",
              "name": "joinTime",
              "type": "uint256"
            }
          ],
          "internalType": "struct JinbaoProtocol.DirectReferralData[]",
          "name": "",
          "type": "tuple[]"
        }
      ],
      "stateMutability": "view",
      "type": "function"
    },
    {
      "inputs": [],
      "name": "getJBCPrice",
      "outputs": [
        {
          "internalType": "uint256",
          "name": "",
          "type": "uint256"
        }
      ],
      "stateMutability": "view",
      "type": "function"
    },
    {
      "inputs": [
        {
          "internalType": "uint256",
          "name": "activeDirects",
          "type": "uint256"
        }
      ],
      "name": "getLevel",
      "outputs": [
        {
          "internalType": "uint256",
          "name": "level",
          "type": "uint256"
        },
        {
          "internalType": "uint256",
          "name": "percent",
          "type": "uint256"
        }
      ],
      "stateMutability": "view",
      "type": "function"
    },
    {
      "inputs": [
        {
          "internalType": "address",
          "name": "_mcToken",
          "type": "address"
        },
        {
          "internalType": "address",
          "name": "_jbcToken",
          "type": "address"
        },
        {
          "internalType": "address",
          "name": "_marketing",
          "type": "address"
        },
        {
          "internalType": "address",
          "name": "_treasury",
          "type": "address"
        },
        {
          "internalType": "address",
          "name": "_lpInjection",
          "type": "address"
        },
        {
          "internalType": "address",
          "name": "_buybackWallet",
          "type": "address"
        }
      ],
      "name": "initialize",
      "outputs": [],
      "stateMutability": "nonpayable",
      "type": "function"
    },
    {
      "inputs": [],
      "name": "jbcToken",
      "outputs": [
        {
          "internalType": "contract IJBC",
          "name": "",
          "type": "address"
        }
      ],
      "stateMutability": "view",
      "type": "function"
    },
    {
      "inputs": [],
      "name": "lastBurnTime",
      "outputs": [
        {
          "internalType": "uint256",
          "name": "",
          "type": "uint256"
        }
      ],
      "stateMutability": "view",
      "type": "function"
    },
    {
      "inputs": [
        {
          "internalType": "uint256",
          "name": "",
          "type": "uint256"
        }
      ],
      "name": "levelConfigs",
      "outputs": [
        {
          "internalType": "uint256",
          "name": "minDirects",
          "type": "uint256"
        },
        {
          "internalType": "uint256",
          "name": "level",
          "type": "uint256"
        },
        {
          "internalType": "uint256",
          "name": "percent",
          "type": "uint256"
        }
      ],
      "stateMutability": "view",
      "type": "function"
    },
    {
      "inputs": [],
      "name": "levelRewardPercent",
      "outputs": [
        {
          "internalType": "uint256",
          "name": "",
          "type": "uint256"
        }
      ],
      "stateMutability": "view",
      "type": "function"
    },
    {
      "inputs": [],
      "name": "liquidityEnabled",
      "outputs": [
        {
          "internalType": "bool",
          "name": "",
          "type": "bool"
        }
      ],
      "stateMutability": "view",
      "type": "function"
    },
    {
      "inputs": [],
      "name": "lpInjectionPercent",
      "outputs": [
        {
          "internalType": "uint256",
          "name": "",
          "type": "uint256"
        }
      ],
      "stateMutability": "view",
      "type": "function"
    },
    {
      "inputs": [],
      "name": "lpInjectionWallet",
      "outputs": [
        {
          "internalType": "address",
          "name": "",
          "type": "address"
        }
      ],
      "stateMutability": "view",
      "type": "function"
    },
    {
      "inputs": [],
      "name": "marketingPercent",
      "outputs": [
        {
          "internalType": "uint256",
          "name": "",
          "type": "uint256"
        }
      ],
      "stateMutability": "view",
      "type": "function"
    },
    {
      "inputs": [],
      "name": "marketingWallet",
      "outputs": [
        {
          "internalType": "address",
          "name": "",
          "type": "address"
        }
      ],
      "stateMutability": "view",
      "type": "function"
    },
    {
      "inputs": [],
      "name": "mcToken",
      "outputs": [
        {
          "internalType": "contract IERC20",
          "name": "",
          "type": "address"
        }
      ],
      "stateMutability": "view",
      "type": "function"
    },
    {
      "inputs": [],
      "name": "nextStakeId",
      "outputs": [
        {
          "internalType": "uint256",
          "name": "",
          "type": "uint256"
        }
      ],
      "stateMutability": "view",
      "type": "function"
    },
    {
      "inputs": [],
      "name": "nextTicketId",
      "outputs": [
        {
          "internalType": "uint256",
          "name": "",
          "type": "uint256"
        }
      ],
      "stateMutability": "view",
      "type": "function"
    },
    {
      "inputs": [],
      "name": "owner",
      "outputs": [
        {
          "internalType": "address",
          "name": "",
          "type": "address"
        }
      ],
      "stateMutability": "view",
      "type": "function"
    },
    {
      "inputs": [],
      "name": "proxiableUUID",
      "outputs": [
        {
          "internalType": "bytes32",
          "name": "",
          "type": "bytes32"
        }
      ],
      "stateMutability": "view",
      "type": "function"
    },
    {
      "inputs": [],
      "name": "redeem",
      "outputs": [],
      "stateMutability": "nonpayable",
      "type": "function"
    },
    {
      "inputs": [],
      "name": "redeemEnabled",
      "outputs": [
        {
          "internalType": "bool",
          "name": "",
          "type": "bool"
        }
      ],
      "stateMutability": "view",
      "type": "function"
    },
    {
      "inputs": [],
      "name": "redemptionFeePercent",
      "outputs": [
        {
          "internalType": "uint256",
          "name": "",
          "type": "uint256"
        }
      ],
      "stateMutability": "view",
      "type": "function"
    },
    {
      "inputs": [],
      "name": "renounceOwnership",
      "outputs": [],
      "stateMutability": "nonpayable",
      "type": "function"
    },
    {
      "inputs": [
        {
          "internalType": "uint256",
          "name": "_direct",
          "type": "uint256"
        },
        {
          "internalType": "uint256",
          "name": "_level",
          "type": "uint256"
        },
        {
          "internalType": "uint256",
          "name": "_marketing",
          "type": "uint256"
        },
        {
          "internalType": "uint256",
          "name": "_buyback",
          "type": "uint256"
        },
        {
          "internalType": "uint256",
          "name": "_lp",
          "type": "uint256"
        },
        {
          "internalType": "uint256",
          "name": "_treasury",
          "type": "uint256"
        }
      ],
      "name": "setDistributionPercents",
      "outputs": [],
      "stateMutability": "nonpayable",
      "type": "function"
    },
    {
      "inputs": [
        {
          "components": [
            {
              "internalType": "uint256",
              "name": "minDirects",
              "type": "uint256"
            },
            {
              "internalType": "uint256",
              "name": "level",
              "type": "uint256"
            },
            {
              "internalType": "uint256",
              "name": "percent",
              "type": "uint256"
            }
          ],
          "internalType": "struct JinbaoProtocol.LevelConfig[]",
          "name": "_configs",
          "type": "tuple[]"
        }
      ],
      "name": "setLevelConfigs",
      "outputs": [],
      "stateMutability": "nonpayable",
      "type": "function"
    },
    {
      "inputs": [
        {
          "internalType": "bool",
          "name": "_enabled",
          "type": "bool"
        }
      ],
      "name": "setLiquidityEnabled",
      "outputs": [],
      "stateMutability": "nonpayable",
      "type": "function"
    },
    {
      "inputs": [
        {
          "internalType": "bool",
          "name": "_enabled",
          "type": "bool"
        }
      ],
      "name": "setRedeemEnabled",
      "outputs": [],
      "stateMutability": "nonpayable",
      "type": "function"
    },
    {
      "inputs": [
        {
          "internalType": "uint256",
          "name": "_fee",
          "type": "uint256"
        }
      ],
      "name": "setRedemptionFee",
      "outputs": [],
      "stateMutability": "nonpayable",
      "type": "function"
    },
    {
      "inputs": [
        {
          "internalType": "uint256",
          "name": "_buyTax",
          "type": "uint256"
        },
        {
          "internalType": "uint256",
          "name": "_sellTax",
          "type": "uint256"
        }
      ],
      "name": "setSwapTaxes",
      "outputs": [],
      "stateMutability": "nonpayable",
      "type": "function"
    },
    {
      "inputs": [
        {
          "internalType": "uint256",
          "name": "_duration",
          "type": "uint256"
        }
      ],
      "name": "setTicketFlexibilityDuration",
      "outputs": [],
      "stateMutability": "nonpayable",
      "type": "function"
    },
    {
      "inputs": [
        {
          "internalType": "address",
          "name": "_marketing",
          "type": "address"
        },
        {
          "internalType": "address",
          "name": "_treasury",
          "type": "address"
        },
        {
          "internalType": "address",
          "name": "_lpInjection",
          "type": "address"
        },
        {
          "internalType": "address",
          "name": "_buyback",
          "type": "address"
        }
      ],
      "name": "setWallets",
      "outputs": [],
      "stateMutability": "nonpayable",
      "type": "function"
    },
    {
      "inputs": [
        {
          "internalType": "uint256",
          "name": "amount",
          "type": "uint256"
        },
        {
          "internalType": "uint256",
          "name": "cycleDays",
          "type": "uint256"
        }
      ],
      "name": "stakeLiquidity",
      "outputs": [],
      "stateMutability": "nonpayable",
      "type": "function"
    },
    {
      "inputs": [],
      "name": "swapBuyTax",
      "outputs": [
        {
          "internalType": "uint256",
          "name": "",
          "type": "uint256"
        }
      ],
      "stateMutability": "view",
      "type": "function"
    },
    {
      "inputs": [
        {
          "internalType": "uint256",
          "name": "jbcAmount",
          "type": "uint256"
        }
      ],
      "name": "swapJBCToMC",
      "outputs": [],
      "stateMutability": "nonpayable",
      "type": "function"
    },
    {
      "inputs": [
        {
          "internalType": "uint256",
          "name": "mcAmount",
          "type": "uint256"
        }
      ],
      "name": "swapMCToJBC",
      "outputs": [],
      "stateMutability": "nonpayable",
      "type": "function"
    },
    {
      "inputs": [],
      "name": "swapReserveJBC",
      "outputs": [
        {
          "internalType": "uint256",
          "name": "",
          "type": "uint256"
        }
      ],
      "stateMutability": "view",
      "type": "function"
    },
    {
      "inputs": [],
      "name": "swapReserveMC",
      "outputs": [
        {
          "internalType": "uint256",
          "name": "",
          "type": "uint256"
        }
      ],
      "stateMutability": "view",
      "type": "function"
    },
    {
      "inputs": [],
      "name": "swapSellTax",
      "outputs": [
        {
          "internalType": "uint256",
          "name": "",
          "type": "uint256"
        }
      ],
      "stateMutability": "view",
      "type": "function"
    },
    {
      "inputs": [],
      "name": "ticketFlexibilityDuration",
      "outputs": [
        {
          "internalType": "uint256",
          "name": "",
          "type": "uint256"
        }
      ],
      "stateMutability": "view",
      "type": "function"
    },
    {
      "inputs": [
        {
          "internalType": "uint256",
          "name": "",
          "type": "uint256"
        }
      ],
      "name": "ticketOwner",
      "outputs": [
        {
          "internalType": "address",
          "name": "",
          "type": "address"
        }
      ],
      "stateMutability": "view",
      "type": "function"
    },
    {
      "inputs": [
        {
          "internalType": "uint256",
          "name": "",
          "type": "uint256"
        },
        {
          "internalType": "uint256",
          "name": "",
          "type": "uint256"
        }
      ],
      "name": "ticketPendingRewards",
      "outputs": [
        {
          "internalType": "address",
          "name": "upline",
          "type": "address"
        },
        {
          "internalType": "uint256",
          "name": "amount",
          "type": "uint256"
        }
      ],
      "stateMutability": "view",
      "type": "function"
    },
    {
      "inputs": [
        {
          "internalType": "address",
          "name": "newOwner",
          "type": "address"
        }
      ],
      "name": "transferOwnership",
      "outputs": [],
      "stateMutability": "nonpayable",
      "type": "function"
    },
    {
      "inputs": [],
      "name": "treasuryPercent",
      "outputs": [
        {
          "internalType": "uint256",
          "name": "",
          "type": "uint256"
        }
      ],
      "stateMutability": "view",
      "type": "function"
    },
    {
      "inputs": [],
      "name": "treasuryWallet",
      "outputs": [
        {
          "internalType": "address",
          "name": "",
          "type": "address"
        }
      ],
      "stateMutability": "view",
      "type": "function"
    },
    {
      "inputs": [
        {
          "internalType": "address",
          "name": "newImplementation",
          "type": "address"
        },
        {
          "internalType": "bytes",
          "name": "data",
          "type": "bytes"
        }
      ],
      "name": "upgradeToAndCall",
      "outputs": [],
      "stateMutability": "payable",
      "type": "function"
    },
    {
      "inputs": [
        {
          "internalType": "address",
          "name": "",
          "type": "address"
        }
      ],
      "name": "userInfo",
      "outputs": [
        {
          "internalType": "address",
          "name": "referrer",
          "type": "address"
        },
        {
          "internalType": "uint256",
          "name": "activeDirects",
          "type": "uint256"
        },
        {
          "internalType": "uint256",
          "name": "teamCount",
          "type": "uint256"
        },
        {
          "internalType": "uint256",
          "name": "totalRevenue",
          "type": "uint256"
        },
        {
          "internalType": "uint256",
          "name": "currentCap",
          "type": "uint256"
        },
        {
          "internalType": "bool",
          "name": "isActive",
          "type": "bool"
        },
        {
          "internalType": "uint256",
          "name": "refundFeeAmount",
          "type": "uint256"
        },
        {
          "internalType": "uint256",
          "name": "teamTotalVolume",
          "type": "uint256"
        },
        {
          "internalType": "uint256",
          "name": "teamTotalCap",
          "type": "uint256"
        }
      ],
      "stateMutability": "view",
      "type": "function"
    },
    {
      "inputs": [
        {
          "internalType": "address",
          "name": "",
          "type": "address"
        },
        {
          "internalType": "uint256",
          "name": "",
          "type": "uint256"
        }
      ],
      "name": "userStakes",
      "outputs": [
        {
          "internalType": "uint256",
          "name": "id",
          "type": "uint256"
        },
        {
          "internalType": "uint256",
          "name": "amount",
          "type": "uint256"
        },
        {
          "internalType": "uint256",
          "name": "startTime",
          "type": "uint256"
        },
        {
          "internalType": "uint256",
          "name": "cycleDays",
          "type": "uint256"
        },
        {
          "internalType": "bool",
          "name": "active",
          "type": "bool"
        },
        {
          "internalType": "uint256",
          "name": "paid",
          "type": "uint256"
        }
      ],
      "stateMutability": "view",
      "type": "function"
    },
    {
      "inputs": [
        {
          "internalType": "address",
          "name": "",
          "type": "address"
        }
      ],
      "name": "userTicket",
      "outputs": [
        {
          "internalType": "uint256",
          "name": "ticketId",
          "type": "uint256"
        },
        {
          "internalType": "uint256",
          "name": "amount",
          "type": "uint256"
        },
        {
          "internalType": "uint256",
          "name": "purchaseTime",
          "type": "uint256"
        },
        {
          "internalType": "bool",
          "name": "exited",
          "type": "bool"
        }
      ],
      "stateMutability": "view",
      "type": "function"
    }
  ],
  "bytecode": "0x60a0604052306080523480156200001557600080fd5b506200002062000026565b620000da565b7ff0c57e16840df040f15088dc2f81fe391c3923bec73e23a9662efc9c229c6a00805468010000000000000000900460ff1615620000775760405163f92ee8a960e01b815260040160405180910390fd5b80546001600160401b0390811614620000d75780546001600160401b0319166001600160401b0390811782556040519081527fc7f505b2f371ae2175ee4913f4499e1f2633a7b5936321eed1cdaeb6115181d29060200160405180910390a15b50565b608051615fb162000104600039600081816147a8015281816147d101526149090152615fb16000f3fe60806040526004361061030a5760003560e01c8063021d28931461030f57806304ef9d581461033157806304f618cb1461035a578063054d50d41461037a57806305ad39351461039a5780630a5c4567146103c75780630e2be210146103e75780630fc4fc1a1461040e5780631427f6161461043b5780631788513c146104505780631959a002146104705780631d0dac761461053457806321f483d31461054a57806327f082f414610579578063372500ab1461058f5780633a3ea2f0146105a45780634626402b146105b9578063480937de146105d9578063488b5d97146105f95780634ea4c6b31461060e5780634f1ef2861461062e57806352778b051461064157806352d1902d146106615780636031a52f1461067657806362eea9141461068c57806367dd74ca146106ac5780636dd66827146106cc578063715018a6146106e257806375506c96146106f757806375e6b5681461070d57806375f0a8741461072d57806377a2a5401461074d5780637dbc1df014610763578063813380cd1461078357806381eeef5c146107b157806383672f3e146107c657806386481d40146107e65780638710bcaa1461081457806388fd4d331461087b5780638a859a851461089b5780638c0eaa48146108b05780638da5cb5b146108c557806390b0eb51146108da5780639370b080146108fa578063952539921461091057806398b8972f146109305780639cd441da146109455780639d99eca414610965578063a2af922614610985578063ad3cb1cc146109a5578063b048a4bb146109e3578063b5d5b5fa14610a0d578063bd594dcf14610a5c578063be040fb014610a72578063be57479914610a87578063c2ff12fc14610aa7578063cc2a9a5b14610add578063ccf6194414610afd578063ceaa366d14610b13578063d241e00114610b29578063d2c8e0e514610b49578063d2f8253614610b76578063d8020a1814610b95578063deab8aea14610bab578063dec7fa3b14610bcb578063e306744914610be1578063e4412f6814610bf7578063ecda2d3214610c0d578063f2fde38b14610c2d575b600080fd5b34801561031b57600080fd5b5061032f61032a36600461565c565b610c4d565b005b34801561033d57600080fd5b50610347600b5481565b6040519081526020015b60405180910390f35b34801561036657600080fd5b5061032f610375366004615695565b610ca9565b34801561038657600080fd5b506103476103953660046156b0565b610df3565b3480156103a657600080fd5b506103ba6103b53660046156dc565b610e8b565b6040516103519190615706565b3480156103d357600080fd5b5061032f6103e236600461571a565b610ec3565b3480156103f357600080fd5b506103fc600281565b60405160ff9091168152602001610351565b34801561041a57600080fd5b5061042e610429366004615695565b61118b565b6040516103519190615733565b34801561044757600080fd5b506103fc600081565b34801561045c57600080fd5b506001546103ba906001600160a01b031681565b34801561047c57600080fd5b506104e461048b366004615695565b600f602052600090815260409020805460018201546002830154600384015460048501546005860154600687015460078801546008909801546001600160a01b0390971697959694959394929360ff9092169290919089565b604080516001600160a01b03909a168a5260208a01989098529688019590955260608701939093526080860191909152151560a085015260c084015260e083015261010082015261012001610351565b34801561054057600080fd5b5061034760185481565b34801561055657600080fd5b5061056a61056536600461571a565b6112bc565b60405161035193929190615795565b34801561058557600080fd5b50610347600d5481565b34801561059b57600080fd5b5061032f6112ef565b3480156105b057600080fd5b5061034761196e565b3480156105c557600080fd5b506003546103ba906001600160a01b031681565b3480156105e557600080fd5b5061032f6105f436600461565c565b6119ae565b34801561060557600080fd5b50610347603c81565b34801561061a57600080fd5b5061032f6106293660046157ab565b6119f7565b61032f61063c36600461583b565b611e6f565b34801561064d57600080fd5b5061032f61065c36600461571a565b611e8a565b34801561066d57600080fd5b50610347612154565b34801561068257600080fd5b5061034760195481565b34801561069857600080fd5b5061032f6106a73660046158e0565b612171565b3480156106b857600080fd5b5061032f6106c736600461571a565b61224c565b3480156106d857600080fd5b5061034760155481565b3480156106ee57600080fd5b5061032f6127f6565b34801561070357600080fd5b50610347601a5481565b34801561071957600080fd5b5061032f61072836600461590c565b612808565b34801561073957600080fd5b506002546103ba906001600160a01b031681565b34801561075957600080fd5b5061034760175481565b34801561076f57600080fd5b5061032f61077e36600461571a565b612844565b34801561078f57600080fd5b506107a361079e3660046157ab565b61288c565b60405161035192919061594e565b3480156107bd57600080fd5b5061032f6128d2565b3480156107d257600080fd5b5061032f6107e1366004615967565b612aa1565b3480156107f257600080fd5b5061080661080136600461571a565b612af9565b6040516103519291906159bb565b34801561082057600080fd5b5061085961082f366004615695565b60106020526000908152604090208054600182015460028301546003909301549192909160ff1684565b6040805194855260208501939093529183015215156060820152608001610351565b34801561088757600080fd5b506004546103ba906001600160a01b031681565b3480156108a757600080fd5b506103fc600181565b3480156108bc57600080fd5b506103fc600381565b3480156108d157600080fd5b506103ba612b9c565b3480156108e657600080fd5b5061032f6108f53660046157ab565b612bb7565b34801561090657600080fd5b50610347600e5481565b34801561091c57600080fd5b506000546103ba906001600160a01b031681565b34801561093c57600080fd5b5061032f612c12565b34801561095157600080fd5b5061032f6109603660046157ab565b612c1b565b34801561097157600080fd5b5061032f61098036600461571a565b612dd5565b34801561099157600080fd5b5061032f6109a03660046159c9565b612e12565b3480156109b157600080fd5b506109d6604051806040016040528060058152602001640352e302e360dc1b81525081565b6040516103519190615a17565b3480156109ef57600080fd5b506016546109fd9060ff1681565b6040519015158152602001610351565b348015610a1957600080fd5b50610a2d610a283660046156dc565b612fe9565b6040805196875260208701959095529385019290925260608401521515608083015260a082015260c001610351565b348015610a6857600080fd5b5061034760075481565b348015610a7e57600080fd5b5061032f613043565b348015610a9357600080fd5b5061032f610aa2366004615a4a565b613890565b348015610ab357600080fd5b506103ba610ac236600461571a565b601c602052600090815260409020546001600160a01b031681565b348015610ae957600080fd5b5061032f610af8366004615b1d565b613932565b348015610b0957600080fd5b5061034760065481565b348015610b1f57600080fd5b50610347600a5481565b348015610b3557600080fd5b5061032f610b443660046158e0565b613f70565b348015610b5557600080fd5b50610b69610b64366004615695565b614003565b6040516103519190615b91565b348015610b8257600080fd5b506016546109fd90610100900460ff1681565b348015610ba157600080fd5b5061034760085481565b348015610bb757600080fd5b506005546103ba906001600160a01b031681565b348015610bd757600080fd5b50610347600c5481565b348015610bed57600080fd5b50610347601b5481565b348015610c0357600080fd5b5061034760095481565b348015610c1957600080fd5b5061032f610c28366004615bde565b614079565b348015610c3957600080fd5b5061032f610c48366004615695565b61418b565b610c556141c6565b601680548215156101000261ff00199091161790556040517f03cb373f89de891077fe47cec43663b6727713de0337af46bebd1178122251b790610c9e90831515815260200190565b60405180910390a150565b336000908152600f60205260409020546001600160a01b031615610d045760405162461bcd60e51b815260206004820152600d60248201526c105b1c9958591e48189bdd5b99609a1b60448201526064015b60405180910390fd5b336001600160a01b03821603610d2c5760405162461bcd60e51b8152600401610cfb90615c21565b6001600160a01b038116610d755760405162461bcd60e51b815260206004820152601060248201526f24b73b30b634b2103932b332b93932b960811b6044820152606401610cfb565b336000818152600f6020908152604080832080546001600160a01b0387166001600160a01b0319918216811790925581855260128452828520805460018101825590865293852090930180549093168517909255519092917fa6dbb5aa28f35437de94d685d66edce5fb4812196b4984b91dfd5a7b38c0fb3091a350565b6000808411610e2d5760405162461bcd60e51b81526020600482015260066024820152652130b21034b760d11b6044820152606401610cfb565b600083118015610e3d5750600082115b610e595760405162461bcd60e51b8152600401610cfb90615c4b565b6000610e658386615c82565b90506000610e738686615c99565b9050610e7f8183615cac565b925050505b9392505050565b60126020528160005260406000208181548110610ea757600080fd5b6000918252602090912001546001600160a01b03169150829050565b610ecb6141f8565b60008111610eeb5760405162461bcd60e51b8152600401610cfb90615cce565b6000546040516323b872dd60e01b81526001600160a01b03909116906323b872dd90610f1f90339030908690600401615cef565b6020604051808303816000875af1158015610f3e573d6000803e3d6000fd5b505050506040513d601f19601f82011682018060405250810190610f629190615d13565b506000610f7482601754601854610df3565b905060006064600d5483610f889190615c82565b610f929190615cac565b90506000610fa08284615d30565b6001546040516370a0823160e01b815291925084916001600160a01b03909116906370a0823190610fd5903090600401615706565b602060405180830381865afa158015610ff2573d6000803e3d6000fd5b505050506040513d601f19601f820116820180604052508101906110169190615d43565b10156110345760405162461bcd60e51b8152600401610cfb90615d5c565b83601760008282546110469190615c99565b92505081905550826018600082825461105f9190615d30565b9091555050600154604051630852cd8d60e31b8152600481018490526001600160a01b03909116906342966c6890602401600060405180830381600087803b1580156110aa57600080fd5b505af11580156110be573d6000803e3d6000fd5b505060015460405163a9059cbb60e01b81526001600160a01b03909116925063a9059cbb91506110f4903390859060040161594e565b6020604051808303816000875af1158015611113573d6000803e3d6000fd5b505050506040513d601f19601f820116820180604052508101906111379190615d13565b50336001600160a01b03167f36864aeefce16bc4aaceeb6b0cdfb2ad1455a8cb4ccb0db148a2bc6e7166f97c85838560405161117593929190615795565b60405180910390a250505061118861422e565b50565b6001600160a01b03811660009081526012602052604081208054606092906001600160401b038111156111c0576111c06157cd565b60405190808252806020026020018201604052801561121e57816020015b61120b604051806060016040528060006001600160a01b0316815260200160008152602001600081525090565b8152602001906001900390816111de5790505b50905060005b82548110156112b457600083828154811061124157611241615d7d565b60009182526020808320909101546001600160a01b0316808352601082526040928390208351606081018552828152600182015493810193909352600281015493830193909352855190935085908590811061129f5761129f615d7d565b60209081029190910101525050600101611224565b509392505050565b601481815481106112cc57600080fd5b600091825260209091206003909102018054600182015460029092015490925083565b6112f76141f8565b33600090815260106020526040902060018101541580159061131e5750600381015460ff16155b6113555760405162461bcd60e51b8152602060048201526008602482015267496e61637469766560c01b6044820152606401610cfb565b33600090815260116020526040812090805b82548110156115b15782818154811061138257611382615d7d565b600091825260209091206004600690920201015460ff16156115a95760008382815481106113b2576113b2615d7d565b9060005260206000209060060201600301546007036113d357506014611435565b8382815481106113e5576113e5615d7d565b906000526020600020906006020160030154600f0361140657506019611435565b83828154811061141857611418615d7d565b906000526020600020906006020160030154601e036114355750601e5b6000603c85848154811061144b5761144b615d7d565b906000526020600020906006020160020154426114689190615d30565b6114729190615cac565b905084838154811061148657611486615d7d565b9060005260206000209060060201600301548111156114c6578483815481106114b1576114b1615d7d565b90600052602060002090600602016003015490505b806000036114d55750506115a9565b60006103e882848887815481106114ee576114ee615d7d565b90600052602060002090600602016001015461150a9190615c82565b6115149190615c82565b61151e9190615cac565b9050600086858154811061153457611534615d7d565b9060005260206000209060060201600501549050808211156115a457600061155c8284615d30565b90506115688188615c99565b96508088878154811061157d5761157d615d7d565b9060005260206000209060060201600501600082825461159d9190615c99565b9091555050505b505050505b600101611367565b50600081116115ef5760405162461bcd60e51b815260206004820152600a6024820152694e6f207265776172647360b01b6044820152606401610cfb565b336000908152600f602052604090206004810154600390910154611614908390615c99565b111561164157336000908152600f60205260409020600381015460049091015461163e9190615d30565b90505b8060000361165a576116523361423f565b505050611964565b336000908152600f60205260408120600301805483929061167c908490615c99565b909155506000905061168f600283615cac565b9050600061169e600284615cac565b600080546040516370a0823160e01b8152929350909184916001600160a01b0316906370a08231906116d4903090600401615706565b602060405180830381865afa1580156116f1573d6000803e3d6000fd5b505050506040513d601f19601f820116820180604052508101906117159190615d43565b101580156117235750600083115b156117a25760005460405163a9059cbb60e01b81526001600160a01b039091169063a9059cbb9061175a903390879060040161594e565b6020604051808303816000875af1158015611779573d6000803e3d6000fd5b505050506040513d601f19601f8201168201806040525081019061179d9190615d13565b508290505b60006117ac61196e565b90506000816117c385670de0b6b3a7640000615c82565b6117cd9190615cac565b6001546040516370a0823160e01b815291925060009183916001600160a01b0316906370a0823190611803903090600401615706565b602060405180830381865afa158015611820573d6000803e3d6000fd5b505050506040513d601f19601f820116820180604052508101906118449190615d43565b101580156118525750600082115b156118d15760015460405163a9059cbb60e01b81526001600160a01b039091169063a9059cbb90611889903390869060040161594e565b6020604051808303816000875af11580156118a8573d6000803e3d6000fd5b505050506040513d601f19601f820116820180604052508101906118cc9190615d13565b508190505b336001600160a01b0316600080516020615f3c8339815191528860006040516118fb929190615d93565b60405180910390a288546040513391600080516020615ebc8339815191529161192a9188918691600091615da4565b60405180910390a2336000908152600f6020526040902060048101546003909101541061195a5761195a3361423f565b5050505050505050505b61196c61422e565b565b60006018546000036119875750670de0b6b3a764000090565b60185460175461199f90670de0b6b3a7640000615c82565b6119a99190615cac565b905090565b6119b66141c6565b6016805460ff19168215159081179091556040519081527fb886fcb5b9c12916f26d967ebe962dbd51ec249fb55961da39c851cdfc10115c90602001610c9e565b6119ff6141f8565b60165460ff16611a215760405162461bcd60e51b8152600401610cfb90615dc2565b3360009081526010602052604090206001810154611a6d5760405162461bcd60e51b8152602060048201526009602482015268139bc81d1a58dad95d60ba1b6044820152606401610cfb565b600381015460ff1615611aab5760405162461bcd60e51b8152602060048201526006602482015265115e1a5d195960d21b6044820152606401610cfb565b6015548160020154611abd9190615c99565b421115611af65760405162461bcd60e51b8152602060048201526007602482015266115e1c1a5c995960ca1b6044820152606401610cfb565b8160071480611b05575081600f145b80611b10575081601e145b611b485760405162461bcd60e51b8152602060048201526009602482015268426164206379636c6560b81b6044820152606401610cfb565b60008311611b685760405162461bcd60e51b8152600401610cfb90615de4565b6000546040516323b872dd60e01b81526001600160a01b03909116906323b872dd90611b9c90339030908890600401615cef565b6020604051808303816000875af1158015611bbb573d6000803e3d6000fd5b505050506040513d601f19601f82011682018060405250810190611bdf9190615d13565b50601a8054906000611bf083615e02565b9091555050336000908152601160209081526040808320815160c081018352601a548152808401888152429382019384526060820188815260016080840181815260a0850189815286548084018855968a529789209451600690960290940194855591518483015593516002840155925160038301555160048201805460ff19169115159190911790559151600590920191909155820154611c919061457d565b90506000611c9e3361459c565b905081811015611cc05760405162461bcd60e51b8152600401610cfb90615c4b565b611cc93361462e565b336001600160a01b03167fa8a1b9e33e503eed12bf7e7c8c01c7f3b60217a496bddd0f5db351dd8c056c1c8686601a54604051611d0893929190615795565b60405180910390a2336000908152600f60205260409020600601548015611e5f57336000908152600f6020526040808220600601829055905490516370a0823160e01b815282916001600160a01b0316906370a0823190611d6d903090600401615706565b602060405180830381865afa158015611d8a573d6000803e3d6000fd5b505050506040513d601f19601f82011682018060405250810190611dae9190615d43565b10611e5f5760005460405163a9059cbb60e01b81526001600160a01b039091169063a9059cbb90611de5903390859060040161594e565b6020604051808303816000875af1158015611e04573d6000803e3d6000fd5b505050506040513d601f19601f82011682018060405250810190611e289190615d13565b5060405181815233907f3437b9ea7fa19c6d233dd70cc787a70fab87cee64d8ba4571512cc84402748f99060200160405180910390a25b50505050611e6b61422e565b5050565b611e7761479d565b611e8082614842565b611e6b828261484a565b611e926141f8565b60008111611eb25760405162461bcd60e51b8152600401610cfb90615cce565b6001546040516323b872dd60e01b81526001600160a01b03909116906323b872dd90611ee690339030908690600401615cef565b6020604051808303816000875af1158015611f05573d6000803e3d6000fd5b505050506040513d601f19601f82011682018060405250810190611f299190615d13565b5060006064600e5483611f3c9190615c82565b611f469190615cac565b90506000611f548284615d30565b600154604051630852cd8d60e31b8152600481018590529192506001600160a01b0316906342966c6890602401600060405180830381600087803b158015611f9b57600080fd5b505af1158015611faf573d6000803e3d6000fd5b505050506000611fc482601854601754610df3565b6000546040516370a0823160e01b815291925082916001600160a01b03909116906370a0823190611ff9903090600401615706565b602060405180830381865afa158015612016573d6000803e3d6000fd5b505050506040513d601f19601f8201168201806040525081019061203a9190615d43565b10156120715760405162461bcd60e51b81526020600482015260066024820152654c6f77204d4360d01b6044820152606401610cfb565b81601860008282546120839190615c99565b92505081905550806017600082825461209c9190615d30565b909155505060005460405163a9059cbb60e01b81526001600160a01b039091169063a9059cbb906120d3903390859060040161594e565b6020604051808303816000875af11580156120f2573d6000803e3d6000fd5b505050506040513d601f19601f820116820180604052508101906121169190615d13565b50336001600160a01b03167f223c8ad0806f634524940a8595f819c5cfc7b1f4f4f45791269301df0a7e61d585838660405161117593929190615795565b600061215e6148fe565b50600080516020615edc83398151915290565b6121796141c6565b600082116121995760405162461bcd60e51b8152600401610cfb90615de4565b6018548211156121bb5760405162461bcd60e51b8152600401610cfb90615e1b565b81601860008282546121cd9190615d30565b909155505060015460405163a9059cbb60e01b81526001600160a01b039091169063a9059cbb90612204908490869060040161594e565b6020604051808303816000875af1158015612223573d6000803e3d6000fd5b505050506040513d601f19601f820116820180604052508101906122479190615d13565b505050565b6122546141f8565b61225d33614947565b8068056bc75e2d63100000148061227c575080681043561a8829300000145b8061228f575080681b1ae4d6e2ef500000145b806122a2575080683635c9adc5dea00000145b6122be5760405162461bcd60e51b8152600401610cfb90615cce565b6000546040516323b872dd60e01b81526001600160a01b03909116906323b872dd906122f290339030908690600401615cef565b6020604051808303816000875af1158015612311573d6000803e3d6000fd5b505050506040513d601f19601f820116820180604052508101906123359190615d13565b50336000908152601060205260409020600381015460ff16156123bb576019805490600061236283615e02565b90915550506019548155600181018290554260028201556003808201805460ff19169055336000908152600f602052604081208201556123a3908390615c82565b336000908152600f6020526040902060040155612445565b80600101546000036123d7576019805490600061236283615e02565b818160010160008282546123eb9190615c99565b9091555050336000908152600f602052604090206005015460ff1615612412574260028201555b61241d826003615c82565b336000908152600f60205260408120600401805490919061243f908490615c99565b90915550505b80546000908152601c6020908152604080832080546001600160a01b031916339081179091558352600f9091529020546001600160a01b031680158015906124a857506001600160a01b0381166000908152600f602052604090206005015460ff165b156125215760006064600654856124bf9190615c82565b6124c99190615cac565b905060006124d983836002614b1e565b9050801561251a57835460405133916001600160a01b03861691600080516020615e9c83398151915291612511918691600291615e39565b60405180910390a35b50506125b7565b6000546002546006546001600160a01b039283169263a9059cbb92169060649061254b9088615c82565b6125559190615cac565b6040518363ffffffff1660e01b815260040161257292919061594e565b6020604051808303816000875af1158015612591573d6000803e3d6000fd5b505050506040513d601f19601f820116820180604052508101906125b59190615d13565b505b336000818152601060205260409020546125d391908590614cb5565b6000546002546008546001600160a01b039283169263a9059cbb9216906064906125fd9088615c82565b6126079190615cac565b6040518363ffffffff1660e01b815260040161262492919061594e565b6020604051808303816000875af1158015612643573d6000803e3d6000fd5b505050506040513d601f19601f820116820180604052508101906126679190615d13565b50600060646009548561267a9190615c82565b6126849190615cac565b905061268f81614ef3565b600054600454600a546001600160a01b039283169263a9059cbb9216906064906126b99089615c82565b6126c39190615cac565b6040518363ffffffff1660e01b81526004016126e092919061594e565b6020604051808303816000875af11580156126ff573d6000803e3d6000fd5b505050506040513d601f19601f820116820180604052508101906127239190615d13565b50600054600354600b546001600160a01b039283169263a9059cbb92169060649061274e9089615c82565b6127589190615cac565b6040518363ffffffff1660e01b815260040161277592919061594e565b6020604051808303816000875af1158015612794573d6000803e3d6000fd5b505050506040513d601f19601f820116820180604052508101906127b89190615d13565b506127c23361462e565b825460405133917f2a91574e12ad96234e84923e146b0946ecfb871cd8d5534dc1fdcbe87a7c01b3916111759188916159bb565b6127fe6141c6565b61196c60006150f2565b6128106141c6565b6001600160a01b039094166000908152600f6020526040902060018101939093556002830191909155600782015560080155565b61284c6141c6565b60328111156128875760405162461bcd60e51b81526020600482015260076024820152664665653e35302560c81b6044820152606401610cfb565b600c55565b601360205281600052604060002081815481106128a857600080fd5b6000918252602090912060029091020180546001909101546001600160a01b039091169250905082565b601b546128e29062015180615c99565b4210156129195760405162461bcd60e51b81526020600482015260056024820152644561726c7960d81b6044820152606401610cfb565b6000601854116129545760405162461bcd60e51b81526020600482015260066024820152654e6f2072657360d01b6044820152606401610cfb565b600060646018546129659190615cac565b90508015612a9a576001546040516370a0823160e01b815282916001600160a01b0316906370a082319061299d903090600401615706565b602060405180830381865afa1580156129ba573d6000803e3d6000fd5b505050506040513d601f19601f820116820180604052508101906129de9190615d43565b10156129fc5760405162461bcd60e51b8152600401610cfb90615d5c565b8060186000828254612a0e9190615d30565b9091555050600154604051630852cd8d60e31b8152600481018390526001600160a01b03909116906342966c6890602401600060405180830381600087803b158015612a5957600080fd5b505af1158015612a6d573d6000803e3d6000fd5b50505050600080516020615f1c833981519152600082604051612a919291906159bb565b60405180910390a15b5042601b55565b612aa96141c6565b600280546001600160a01b039586166001600160a01b0319918216179091556003805494861694821694909417909355600480549285169284169290921790915560058054919093169116179055565b60008060005b601454811015612b905760148181548110612b1c57612b1c615d7d565b9060005260206000209060030201600001548410612b885760148181548110612b4757612b47615d7d565b90600052602060002090600302016001015460148281548110612b6c57612b6c615d7d565b9060005260206000209060030201600201549250925050915091565b600101612aff565b50600093849350915050565b600080612ba761514e565b546001600160a01b031692915050565b612bbf6141c6565b60328211158015612bd1575060328111155b612c075760405162461bcd60e51b81526020600482015260076024820152665461783e35302560c81b6044820152606401610cfb565b600d91909155600e55565b61196c33614947565b612c236141c6565b6000821180612c325750600081115b612c6c5760405162461bcd60e51b815260206004820152600b60248201526a16995c9bc8185b5bdd5b9d60aa1b6044820152606401610cfb565b8115612d02576000546040516323b872dd60e01b81526001600160a01b03909116906323b872dd90612ca690339030908790600401615cef565b6020604051808303816000875af1158015612cc5573d6000803e3d6000fd5b505050506040513d601f19601f82011682018060405250810190612ce99190615d13565b508160176000828254612cfc9190615c99565b90915550505b8015612d98576001546040516323b872dd60e01b81526001600160a01b03909116906323b872dd90612d3c90339030908690600401615cef565b6020604051808303816000875af1158015612d5b573d6000803e3d6000fd5b505050506040513d601f19601f82011682018060405250810190612d7f9190615d13565b508060186000828254612d929190615c99565b90915550505b7f38f8a0c92f4c5b0b6877f878cb4c0c8d348a47b76d716c8e78f425043df9515b8282604051612dc99291906159bb565b60405180910390a15050565b612ddd6141c6565b60158190556040518181527fd28d9e4ce68d89af7920cb8618e342a78f51e545c530ce60f1cb1d6f0235b47f90602001610c9e565b612e1a6141c6565b806001600160a01b0316826001600160a01b031603612e4b5760405162461bcd60e51b8152600401610cfb90615c21565b6001600160a01b038083166000908152600f6020526040902080548383166001600160a01b0319821617909155168015612f98576001600160a01b0381166000908152601260205260408120905b8154811015612f9557846001600160a01b0316828281548110612ebe57612ebe615d7d565b6000918252602090912001546001600160a01b031603612f8d5781548290612ee890600190615d30565b81548110612ef857612ef8615d7d565b9060005260206000200160009054906101000a90046001600160a01b0316828281548110612f2857612f28615d7d565b9060005260206000200160006101000a8154816001600160a01b0302191690836001600160a01b0316021790555081805480612f6657612f66615e52565b600082815260209020810160001990810180546001600160a01b0319169055019055612f95565b600101612e99565b50505b6001600160a01b0382161561224757506001600160a01b0390811660009081526012602090815260408220805460018101825590835291200180546001600160a01b03191692909116919091179055565b6011602052816000526040600020818154811061300557600080fd5b600091825260209091206006909102018054600182015460028301546003840154600485015460059095015493965091945092909160ff9091169086565b61304b6141f8565b601654610100900460ff166130725760405162461bcd60e51b8152600401610cfb90615dc2565b336000908152601160205260408120908080805b84548110156133c1578481815481106130a1576130a1615d7d565b600091825260209091206004600690920201015460ff16156133b9576000603c8683815481106130d3576130d3615d7d565b9060005260206000209060060201600301546130ef9190615c82565b86838154811061310157613101615d7d565b90600052602060002090600602016002015461311d9190615c99565b90508042106133b757600086838154811061313a5761313a615d7d565b90600052602060002090600602016003015460070361315b575060146131bd565b86838154811061316d5761316d615d7d565b906000526020600020906006020160030154600f0361318e575060196131bd565b8683815481106131a0576131a0615d7d565b906000526020600020906006020160030154601e036131bd5750601e5b60006103e88885815481106131d4576131d4615d7d565b906000526020600020906006020160030154838a87815481106131f9576131f9615d7d565b9060005260206000209060060201600101546132159190615c82565b61321f9190615c82565b6132299190615cac565b9050600088858154811061323f5761323f615d7d565b90600052602060002090600602016005015482111561328a5788858154811061326a5761326a615d7d565b906000526020600020906006020160050154826132879190615d30565b90505b6132948187615c99565b9550808986815481106132a9576132a9615d7d565b906000526020600020906006020160050160008282546132c99190615c99565b92505081905550600061012c600c548b88815481106132ea576132ea615d7d565b90600052602060002090600602016001015460026133089190615c82565b6133129190615c82565b61331c9190615cac565b905060008a878154811061333257613332615d7d565b906000526020600020906006020160010154905081811061335e576133578282615d30565b9050613363565b600091505b61336d818b615c99565b9950613379828a615c99565b985060008b888154811061338f5761338f615d7d565b60009182526020909120600690910201600401805460ff191691151591909117905550505050505b505b600101613086565b5060008311806133d15750600081115b6134115760405162461bcd60e51b81526020600482015260116024820152704e6f7468696e6720746f2072656465656d60781b6044820152606401610cfb565b801561376c57336000908152600f60205260408120600381015460049091015461343b9190615d30565b90508082111561347a57336001600160a01b0316600080516020615efc833981519152838360405161346e9291906159bb565b60405180910390a28091505b811561376a57336000908152600f6020526040812060030180548492906134a2908490615c99565b90915550600090506134b5600284615cac565b905060006134c4600285615cac565b600080546040516370a0823160e01b8152929350909184916001600160a01b0316906370a08231906134fa903090600401615706565b602060405180830381865afa158015613517573d6000803e3d6000fd5b505050506040513d601f19601f8201168201806040525081019061353b9190615d43565b101580156135495750600083115b156135c85760005460405163a9059cbb60e01b81526001600160a01b039091169063a9059cbb90613580903390879060040161594e565b6020604051808303816000875af115801561359f573d6000803e3d6000fd5b505050506040513d601f19601f820116820180604052508101906135c39190615d13565b508290505b60006135d261196e565b90506000816135e985670de0b6b3a7640000615c82565b6135f39190615cac565b6001546040516370a0823160e01b815291925060009183916001600160a01b0316906370a0823190613629903090600401615706565b602060405180830381865afa158015613646573d6000803e3d6000fd5b505050506040513d601f19601f8201168201806040525081019061366a9190615d43565b101580156136785750600082115b156136f75760015460405163a9059cbb60e01b81526001600160a01b039091169063a9059cbb906136af903390869060040161594e565b6020604051808303816000875af11580156136ce573d6000803e3d6000fd5b505050506040513d601f19601f820116820180604052508101906136f29190615d13565b508190505b336001600160a01b0316600080516020615f3c833981519152896000604051613721929190615d93565b60405180910390a233600081815260106020526040808220549051600080516020615ebc8339815191529261375b92899287929190615da4565b60405180910390a25050505050505b505b82156137e95760005460405163a9059cbb60e01b81526001600160a01b039091169063a9059cbb906137a4903390879060040161594e565b6020604051808303816000875af11580156137c3573d6000803e3d6000fd5b505050506040513d601f19601f820116820180604052508101906137e79190615d13565b505b336000908152600f60205260408120600601805484929061380b908490615c99565b90915550506040513390600080516020615f5c8339815191529061383290869086906159bb565b60405180910390a23360009081526010602052604090205461385390615172565b61385c3361462e565b336000908152600f60205260409020600481015460039091015410613884576138843361423f565b5050505061196c61422e565b6138986141c6565b6138a4601460006155c0565b60005b81518110156139055760148282815181106138c4576138c4615d7d565b6020908102919091018101518254600181810185556000948552938390208251600390920201908155918101518284015560400151600290910155016138a7565b506040517f81086beec7078a58d4155c0b0d7d98e4d4df580e4737331309687e6ab8a6944090600090a150565b600061393c615339565b805490915060ff600160401b82041615906001600160401b03166000811580156139635750825b90506000826001600160401b0316600114801561397f5750303b155b90508115801561398d575080155b156139ab5760405163f92ee8a960e01b815260040160405180910390fd5b84546001600160401b031916600117855583156139d457845460ff60401b1916600160401b1785555b6139dd33615362565b6139e5615373565b6139ed615383565b8a6000806101000a8154816001600160a01b0302191690836001600160a01b0316021790555089600160006101000a8154816001600160a01b0302191690836001600160a01b0316021790555088600260006101000a8154816001600160a01b0302191690836001600160a01b0316021790555087600360006101000a8154816001600160a01b0302191690836001600160a01b0316021790555086600460006101000a8154816001600160a01b0302191690836001600160a01b0316021790555085600560006101000a8154816001600160a01b0302191690836001600160a01b031602179055506019600681905550600f600781905550600560088190555060056009819055506019600a819055506019600b819055506001600c819055506032600d819055506019600e819055506203f4806015819055506001601660006101000a81548160ff0219169083151502179055506001601660016101000a81548160ff02191690831515021790555042601b8190555060146040518060600160405280620186a0815260200160098152602001602d81525090806001815401808255809150506001900390600052602060002090600302016000909190919091506000820151816000015560208201518160010155604082015181600201555050601460405180606001604052806175308152602001600881526020016028815250908060018154018082558091505060019003906000526020600020906003020160009091909190915060008201518160000155602082015181600101556040820151816002015550506014604051806060016040528061271081526020016007815260200160238152509080600181540180825580915050600190039060005260206000209060030201600090919091909150600082015181600001556020820151816001015560408201518160020155505060146040518060600160405280610bb8815260200160068152602001601e81525090806001815401808255809150506001900390600052602060002090600302016000909190919091506000820151816000015560208201518160010155604082015181600201555050601460405180606001604052806103e88152602001600581526020016019815250908060018154018082558091505060019003906000526020600020906003020160009091909190915060008201518160000155602082015181600101556040820151816002015550506014604051806060016040528061012c815260200160048152602001601481525090806001815401808255809150506001900390600052602060002090600302016000909190919091506000820151816000015560208201518160010155604082015181600201555050601460405180606001604052806064815260200160038152602001600f8152509080600181540180825580915050600190039060005260206000209060030201600090919091909150600082015181600001556020820151816001015560408201518160020155505060146040518060600160405280601e815260200160028152602001600a8152509080600181540180825580915050600190039060005260206000209060030201600090919091909150600082015181600001556020820151816001015560408201518160020155505060146040518060600160405280600a8152602001600181526020016005815250908060018154018082558091505060019003906000526020600020906003020160009091909190915060008201518160000155602082015181600101556040820151816002015550508315613f6357845460ff60401b19168555604051600181527fc7f505b2f371ae2175ee4913f4499e1f2633a7b5936321eed1cdaeb6115181d29060200160405180910390a15b5050505050505050505050565b613f786141c6565b60008211613f985760405162461bcd60e51b8152600401610cfb90615de4565b601754821115613fba5760405162461bcd60e51b8152600401610cfb90615e1b565b8160176000828254613fcc9190615d30565b909155505060005460405163a9059cbb60e01b81526001600160a01b039091169063a9059cbb90612204908490869060040161594e565b6001600160a01b03811660009081526012602090815260409182902080548351818402810184019094528084526060939283018282801561406d57602002820191906000526020600020905b81546001600160a01b0316815260019091019060200180831161404f575b50505050509050919050565b6140816141c6565b8082848661408f898b615c99565b6140999190615c99565b6140a39190615c99565b6140ad9190615c99565b6140b79190615c99565b6064146140f15760405162461bcd60e51b8152602060048201526008602482015267053756d213d3130360c41b6044820152606401610cfb565b60328611158015614103575060328511155b8015614110575060328411155b801561411d575060328311155b801561412a575060328211155b8015614137575060328111155b61416e5760405162461bcd60e51b8152602060048201526008602482015267526174653e35302560c01b6044820152606401610cfb565b600695909555600793909355600891909155600955600a55600b55565b6141936141c6565b6001600160a01b0381166141bd576000604051631e4fbdf760e01b8152600401610cfb9190615706565b611188816150f2565b336141cf612b9c565b6001600160a01b03161461196c573360405163118cdaa760e01b8152600401610cfb9190615706565b600061420261538b565b80549091506001190161422857604051633ee5aeb560e01b815260040160405180910390fd5b60029055565b600061423861538b565b6001905550565b6001600160a01b0381166000908152601060205260409020600381015460ff16611e6b5760038101805460ff191660011790556001600160a01b03821660009081526011602052604081209080805b83548110156143b1578381815481106142a9576142a9615d7d565b600091825260209091206004600690920201015460ff16156143a957600061012c600c548684815481106142df576142df615d7d565b90600052602060002090600602016001015460026142fd9190615c82565b6143079190615c82565b6143119190615cac565b9050600085838154811061432757614327615d7d565b90600052602060002090600602016001015490508181106143535761434c8282615d30565b9050614358565b600091505b6143628186615c99565b945061436e8285615c99565b9350600086848154811061438457614384615d7d565b60009182526020909120600690910201600401805460ff191691151591909117905550505b60010161428e565b50811561442f5760005460405163a9059cbb60e01b81526001600160a01b039091169063a9059cbb906143ea908890869060040161594e565b6020604051808303816000875af1158015614409573d6000803e3d6000fd5b505050506040513d601f19601f8201168201806040525081019061442d9190615d13565b505b8015614466576001600160a01b0385166000908152600f602052604081206006018054839290614460908490615c99565b90915550505b6001600160a01b038086166000908152600f6020526040902060058101805460ff198116909155905460ff90911691168180156144ab57506001600160a01b03811615155b80156144d157506001600160a01b0381166000908152600f602052604090206001015415155b15614503576001600160a01b0381166000908152600f602052604081206001018054916144fd83615e68565b91905055505b866001600160a01b0316600080516020615f5c833981519152858560405161452c9291906159bb565b60405180910390a285546040519081526001600160a01b038816907f920bb94eb3842a728db98228c375ff6b00c5bc5a54fac6736155517a0a20a61a9060200160405180910390a250505050505050565b6000600261458c836003615c82565b6145969190615cac565b92915050565b6001600160a01b0381166000908152601160205260408120815b8154811015614627578181815481106145d1576145d1615d7d565b600091825260209091206004600690920201015460ff161561461f578181815481106145ff576145ff615d7d565b9060005260206000209060060201600101548361461c9190615c99565b92505b6001016145b6565b5050919050565b6001600160a01b038116600090815260106020526040812060018101549091901561466557614660826001015461457d565b614668565b60005b905060008083600101541180156146845750600383015460ff16155b80156146905750600082115b80156146a45750816146a18561459c565b10155b6001600160a01b0385166000908152600f602052604090206005015490915060ff16801515821515036146d8575050505050565b6001600160a01b038581166000908152600f6020526040902060058101805460ff191685151517905554168061471057505050505050565b8215614747576001600160a01b0381166000908152600f6020526040812060010180549161473d83615e02565b9190505550614795565b6001600160a01b0381166000908152600f602052604090206001015415614795576001600160a01b0381166000908152600f6020526040812060010180549161478f83615e68565b91905055505b505050505050565b306001600160a01b037f000000000000000000000000000000000000000000000000000000000000000016148061482457507f00000000000000000000000000000000000000000000000000000000000000006001600160a01b0316614818600080516020615edc833981519152546001600160a01b031690565b6001600160a01b031614155b1561196c5760405163703e46dd60e11b815260040160405180910390fd5b6111886141c6565b816001600160a01b03166352d1902d6040518163ffffffff1660e01b8152600401602060405180830381865afa9250505080156148a4575060408051601f3d908101601f191682019092526148a191810190615d43565b60015b6148c35781604051634c9c8ce360e01b8152600401610cfb9190615706565b600080516020615edc83398151915281146148f457604051632a87526960e21b815260048101829052602401610cfb565b61224783836153af565b306001600160a01b037f0000000000000000000000000000000000000000000000000000000000000000161461196c5760405163703e46dd60e11b815260040160405180910390fd5b6001600160a01b0381166000908152601060205260409020600181015415806149745750600381015460ff165b1561497d575050565b60006149888361459c565b1115614992575050565b60155481600201546149a49190615c99565b42116149ae575050565b805460018201546001600160a01b038085166000908152600f60205260409020805460059091015491169060ff1680156149f057506001600160a01b03811615155b8015614a1657506001600160a01b0381166000908152600f602052604090206001015415155b15614a48576001600160a01b0381166000908152600f60205260408120600101805491614a4283615e68565b91905055505b6001600160a01b0385166000908152600f6020526040812060058101805460ff19908116909155600380830184905560049092018390558287556001870183905560028701929092558501805490911690558215614ad4576000838152601360205260408120614ab7916155e1565b6000838152601c6020526040902080546001600160a01b03191690555b846001600160a01b03167f57025f0027038907eda728b59164fb63d06048f42e618a35267e6a12e49b2e468484604051614b0f9291906159bb565b60405180910390a25050505050565b6001600160a01b0383166000908152600f6020908152604080832060109092528220600582015460ff161580614b585750600381015460ff165b80614b6557506001810154155b15614b7557600092505050610e84565b600082600301548360040154614b8b9190615d30565b90508581811115614bcb57819050876001600160a01b0316600080516020615efc8339815191528884604051614bc29291906159bb565b60405180910390a25b8015614c925780846003016000828254614be59190615c99565b909155505060005460405163a9059cbb60e01b81526001600160a01b039091169063a9059cbb90614c1c908b90859060040161594e565b6020604051808303816000875af1158015614c3b573d6000803e3d6000fd5b505050506040513d601f19601f82011682018060405250810190614c5f9190615d13565b50876001600160a01b0316600080516020615f3c8339815191528288604051614c89929190615d93565b60405180910390a25b8360040154846003015410614caa57614caa8861423f565b979650505050505050565b6001600160a01b038084166000908152600f602052604081205490911690805b6001600160a01b03831615801590614ced5750601481105b15614795576001600160a01b0383166000908152600f602052604090206005015460ff16614d45576001600160a01b039283166000908152600f60205260409020549092169180614d3d81615e02565b915050614cd5565b6001600160a01b038316600090815260106020526040902060018101541580614d725750600381015460ff165b15614da8576001600160a01b039384166000908152600f60205260409020549093169281614d9f81615e02565b92505050614cd5565b6001600160a01b0384166000908152600f6020526040812060010154614dcd90612af9565b91505083811115614eb2576000614de48583615d30565b60018401549091508890811115614dfc575060018301545b60006064614e0a8484615c82565b614e149190615cac565b60008a8152601360209081526040808320815180830183526001600160a01b038e8116808352828601888152845460018082018755958952978790209351600290980290930180546001600160a01b0319169790921696909617815590519101555183815292935090918b917fbd5e0947444d5adb46b3d24786f72907c1e8176cb1348960766a6cd6fad13e9f910160405180910390a38396505050505b602d8110614ec1575050614795565b6001600160a01b039485166000908152600f60205260409020549094169382614ee981615e02565b9350505050614cd5565b80600003614efe5750565b6017541580614f0d5750601854155b15614f155750565b80601754614f239190615c99565b6000546040516370a0823160e01b81526001600160a01b03909116906370a0823190614f53903090600401615706565b602060405180830381865afa158015614f70573d6000803e3d6000fd5b505050506040513d601f19601f82011682018060405250810190614f949190615d43565b1015614f9d5750565b6000614fae82601754601854610df3565b9050801580614fbe575060185481115b15614fc7575050565b6018546001546040516370a0823160e01b81526001600160a01b03909116906370a0823190614ffa903090600401615706565b602060405180830381865afa158015615017573d6000803e3d6000fd5b505050506040513d601f19601f8201168201806040525081019061503b9190615d43565b1015615045575050565b81601760008282546150579190615c99565b9250508190555080601860008282546150709190615d30565b9091555050600154604051630852cd8d60e31b8152600481018390526001600160a01b03909116906342966c6890602401600060405180830381600087803b1580156150bb57600080fd5b505af11580156150cf573d6000803e3d6000fd5b50505050600080516020615f1c8339815191528282604051612dc99291906159bb565b60006150fc61514e565b80546001600160a01b038481166001600160a01b031983168117845560405193945091169182907f8be0079c531659141344cd1fd0a4f28419497f9722a3daafe3b4186f6b6457e090600090a3505050565b7f9016d09d72d40fdae2fd8ceac6b6234c7706214fd39c1cd1e609a0528c19930090565b6000818152601c60209081526040808320546013835281842080548351818602810186019094528084526001600160a01b039092169493909190849084015b828210156151f9576000848152602090819020604080518082019091526002850290910180546001600160a01b031682526001908101548284015290835290920191016151b1565b50505050905060005b815181101561532157600061525383838151811061522257615222615d7d565b60200260200101516000015184848151811061524057615240615d7d565b6020026020010151602001516003614b1e565b905080156152b757836001600160a01b031683838151811061527757615277615d7d565b6020026020010151600001516001600160a01b0316600080516020615e9c833981519152836003896040516152ae93929190615e39565b60405180910390a35b8282815181106152c9576152c9615d7d565b6020026020010151600001516001600160a01b0316857f380d782ec118e5171a4d1e7081db076c4c94ca49c623d531763d402b094b4f248360405161531091815260200190565b60405180910390a350600101615202565b506000838152601360205260408120612247916155e1565b6000807ff0c57e16840df040f15088dc2f81fe391c3923bec73e23a9662efc9c229c6a00614596565b61536a615405565b6111888161542a565b61537b615405565b61196c615432565b61196c615405565b7f9b779b17422d0df92223018b32b4d1fa46e071723d6817e2486d003becc55f0090565b6153b88261543a565b6040516001600160a01b038316907fbc7cd75a20ee27fd9adebab32041f755214dbc6bffa90cc0225b39da2e5c2d3b90600090a28051156153fd576122478282615496565b611e6b61550c565b61540d61552b565b61196c57604051631afcd79f60e31b815260040160405180910390fd5b614193615405565b61422e615405565b806001600160a01b03163b6000036154675780604051634c9c8ce360e01b8152600401610cfb9190615706565b600080516020615edc83398151915280546001600160a01b0319166001600160a01b0392909216919091179055565b6060600080846001600160a01b0316846040516154b39190615e7f565b600060405180830381855af49150503d80600081146154ee576040519150601f19603f3d011682016040523d82523d6000602084013e6154f3565b606091505b5091509150615503858383615545565b95945050505050565b341561196c5760405163b398979f60e01b815260040160405180910390fd5b6000615535615339565b54600160401b900460ff16919050565b60608261555a5761555582615598565b610e84565b815115801561557157506001600160a01b0384163b155b156155915783604051639996b31560e01b8152600401610cfb9190615706565b5080610e84565b8051156155a757805160208201fd5b60405163d6bda27560e01b815260040160405180910390fd5b50805460008255600302906000526020600020908101906111889190615602565b50805460008255600202906000526020600020908101906111889190615628565b5b80821115615624576000808255600182018190556002820155600301615603565b5090565b5b808211156156245780546001600160a01b031916815560006001820155600201615629565b801515811461118857600080fd5b60006020828403121561566e57600080fd5b8135610e848161564e565b80356001600160a01b038116811461569057600080fd5b919050565b6000602082840312156156a757600080fd5b610e8482615679565b6000806000606084860312156156c557600080fd5b505081359360208301359350604090920135919050565b600080604083850312156156ef57600080fd5b6156f883615679565b946020939093013593505050565b6001600160a01b0391909116815260200190565b60006020828403121561572c57600080fd5b5035919050565b602080825282518282018190526000919060409081850190868401855b8281101561578857815180516001600160a01b0316855286810151878601528501518585015260609093019290850190600101615750565b5091979650505050505050565b9283526020830191909152604082015260600190565b600080604083850312156157be57600080fd5b50508035926020909101359150565b634e487b7160e01b600052604160045260246000fd5b604051606081016001600160401b0381118282101715615805576158056157cd565b60405290565b604051601f8201601f191681016001600160401b0381118282101715615833576158336157cd565b604052919050565b6000806040838503121561584e57600080fd5b61585783615679565b91506020838101356001600160401b038082111561587457600080fd5b818601915086601f83011261588857600080fd5b81358181111561589a5761589a6157cd565b6158ac601f8201601f1916850161580b565b915080825287848285010111156158c257600080fd5b80848401858401376000848284010152508093505050509250929050565b600080604083850312156158f357600080fd5b8235915061590360208401615679565b90509250929050565b600080600080600060a0868803121561592457600080fd5b61592d86615679565b97602087013597506040870135966060810135965060800135945092505050565b6001600160a01b03929092168252602082015260400190565b6000806000806080858703121561597d57600080fd5b61598685615679565b935061599460208601615679565b92506159a260408601615679565b91506159b060608601615679565b905092959194509250565b918252602082015260400190565b600080604083850312156159dc57600080fd5b6159e583615679565b915061590360208401615679565b60005b83811015615a0e5781810151838201526020016159f6565b50506000910152565b6020815260008251806020840152615a368160408501602087016159f3565b601f01601f19169190910160400192915050565b60006020808385031215615a5d57600080fd5b82356001600160401b0380821115615a7457600080fd5b818501915085601f830112615a8857600080fd5b813581811115615a9a57615a9a6157cd565b615aa8848260051b0161580b565b81815284810192506060918202840185019188831115615ac757600080fd5b938501935b82851015615b115780858a031215615ae45760008081fd5b615aec6157e3565b8535815286860135878201526040808701359082015284529384019392850192615acc565b50979650505050505050565b60008060008060008060c08789031215615b3657600080fd5b615b3f87615679565b9550615b4d60208801615679565b9450615b5b60408801615679565b9350615b6960608801615679565b9250615b7760808801615679565b9150615b8560a08801615679565b90509295509295509295565b6020808252825182820181905260009190848201906040850190845b81811015615bd25783516001600160a01b031683529284019291840191600101615bad565b50909695505050505050565b60008060008060008060c08789031215615bf757600080fd5b505084359660208601359650604086013595606081013595506080810135945060a0013592509050565b60208082526010908201526f21b0b73737ba103134b7321039b2b63360811b604082015260600190565b6020808252600790820152664c6f77206c697160c81b604082015260600190565b634e487b7160e01b600052601160045260246000fd5b808202811582820484141761459657614596615c6c565b8082018082111561459657614596615c6c565b600082615cc957634e487b7160e01b600052601260045260246000fd5b500490565b60208082526007908201526610985908185b5d60ca1b604082015260600190565b6001600160a01b039384168152919092166020820152604081019190915260600190565b600060208284031215615d2557600080fd5b8151610e848161564e565b8181038181111561459657614596615c6c565b600060208284031215615d5557600080fd5b5051919050565b6020808252600790820152664c6f77204a424360c81b604082015260600190565b634e487b7160e01b600052603260045260246000fd5b91825260ff16602082015260400190565b938452602084019290925260ff166040830152606082015260800190565b602080825260089082015267111a5cd8589b195960c21b604082015260600190565b6020808252600490820152635a65726f60e01b604082015260600190565b600060018201615e1457615e14615c6c565b5060010190565b60208082526004908201526327bb32b960e11b604082015260600190565b92835260ff919091166020830152604082015260600190565b634e487b7160e01b600052603160045260246000fd5b600081615e7757615e77615c6c565b506000190190565b60008251615e918184602087016159f3565b919091019291505056fe9b3cc71482a1b2eebe764a739f46f1fe99291fd0183be81951532b29d0c9c8da6fcebd0a2ce98b28cb391d6008bbc769378c9a4919628e11639cb575cd320fcc360894a13ba1a3210667c828492db98dca3e2076cc3735a920a3ca505d382bbcb5987aab1afd379f6695f1068869ee8ca6a0d02304c57935a9cc3d3ea2e51e4d0ec3929061cbbbeecb325623e7d5a86c3dae11cb8a22ca45dc0972955657da25f381583145e90b82cc5e529bf4fc4d0e44397174cdf145c4251ac33ef195a424f3a670cd3af7d64b488926880889d08a8585a138ff455227af6737339a1ec262a2646970667358221220760cd8b00c5f0f04d129b4b58122311ca9724a17eaa1e5a345f542305546456764736f6c63430008160033",
  "linkReferences": {},
  "deployedLinkReferences": {}
}