{
  "_format": "hh-sol-artifact-1",
  "contractName": "JinbaoProtocol",
  "sourceName": "contracts/JinbaoProtocol.sol",
  "abi": [
    {
      "inputs": [],
      "stateMutability": "nonpayable",
      "type": "constructor"
    },
    {
      "inputs": [
        {
          "internalType": "address",
          "name": "target",
          "type": "address"
        }
      ],
      "name": "AddressEmptyCode",
      "type": "error"
    },
    {
      "inputs": [
        {
          "internalType": "address",
          "name": "implementation",
          "type": "address"
        }
      ],
      "name": "ERC1967InvalidImplementation",
      "type": "error"
    },
    {
      "inputs": [],
      "name": "ERC1967NonPayable",
      "type": "error"
    },
    {
      "inputs": [],
      "name": "FailedCall",
      "type": "error"
    },
    {
      "inputs": [],
      "name": "InvalidInitialization",
      "type": "error"
    },
    {
      "inputs": [],
      "name": "NotInitializing",
      "type": "error"
    },
    {
      "inputs": [
        {
          "internalType": "address",
          "name": "owner",
          "type": "address"
        }
      ],
      "name": "OwnableInvalidOwner",
      "type": "error"
    },
    {
      "inputs": [
        {
          "internalType": "address",
          "name": "account",
          "type": "address"
        }
      ],
      "name": "OwnableUnauthorizedAccount",
      "type": "error"
    },
    {
      "inputs": [],
      "name": "ReentrancyGuardReentrantCall",
      "type": "error"
    },
    {
      "inputs": [],
      "name": "UUPSUnauthorizedCallContext",
      "type": "error"
    },
    {
      "inputs": [
        {
          "internalType": "bytes32",
          "name": "slot",
          "type": "bytes32"
        }
      ],
      "name": "UUPSUnsupportedProxiableUUID",
      "type": "error"
    },
    {
      "anonymous": false,
      "inputs": [
        {
          "indexed": true,
          "internalType": "address",
          "name": "user",
          "type": "address"
        },
        {
          "indexed": true,
          "internalType": "address",
          "name": "referrer",
          "type": "address"
        }
      ],
      "name": "BoundReferrer",
      "type": "event"
    },
    {
      "anonymous": false,
      "inputs": [
        {
          "indexed": false,
          "internalType": "uint256",
          "name": "mcAmount",
          "type": "uint256"
        },
        {
          "indexed": false,
          "internalType": "uint256",
          "name": "jbcBurned",
          "type": "uint256"
        }
      ],
      "name": "BuybackAndBurn",
      "type": "event"
    },
    {
      "anonymous": false,
      "inputs": [
        {
          "indexed": true,
          "internalType": "address",
          "name": "user",
          "type": "address"
        },
        {
          "indexed": false,
          "internalType": "uint256",
          "name": "ticketId",
          "type": "uint256"
        }
      ],
      "name": "Exited",
      "type": "event"
    },
    {
      "anonymous": false,
      "inputs": [
        {
          "indexed": true,
          "internalType": "address",
          "name": "user",
          "type": "address"
        },
        {
          "indexed": false,
          "internalType": "uint256",
          "name": "amount",
          "type": "uint256"
        }
      ],
      "name": "FeeRefunded",
      "type": "event"
    },
    {
      "anonymous": false,
      "inputs": [
        {
          "indexed": false,
          "internalType": "uint64",
          "name": "version",
          "type": "uint64"
        }
      ],
      "name": "Initialized",
      "type": "event"
    },
    {
      "anonymous": false,
      "inputs": [],
      "name": "LevelConfigsUpdated",
      "type": "event"
    },
    {
      "anonymous": false,
      "inputs": [
        {
          "indexed": true,
          "internalType": "uint256",
          "name": "ticketId",
          "type": "uint256"
        },
        {
          "indexed": true,
          "internalType": "address",
          "name": "upline",
          "type": "address"
        },
        {
          "indexed": false,
          "internalType": "uint256",
          "name": "amount",
          "type": "uint256"
        }
      ],
      "name": "LevelRewardRecorded",
      "type": "event"
    },
    {
      "anonymous": false,
      "inputs": [
        {
          "indexed": true,
          "internalType": "uint256",
          "name": "ticketId",
          "type": "uint256"
        },
        {
          "indexed": true,
          "internalType": "address",
          "name": "upline",
          "type": "address"
        },
        {
          "indexed": false,
          "internalType": "uint256",
          "name": "amount",
          "type": "uint256"
        }
      ],
      "name": "LevelRewardReleased",
      "type": "event"
    },
    {
      "anonymous": false,
      "inputs": [
        {
          "indexed": false,
          "internalType": "uint256",
          "name": "mcAmount",
          "type": "uint256"
        },
        {
          "indexed": false,
          "internalType": "uint256",
          "name": "jbcAmount",
          "type": "uint256"
        }
      ],
      "name": "LiquidityAdded",
      "type": "event"
    },
    {
      "anonymous": false,
      "inputs": [
        {
          "indexed": true,
          "internalType": "address",
          "name": "user",
          "type": "address"
        },
        {
          "indexed": false,
          "internalType": "uint256",
          "name": "amount",
          "type": "uint256"
        },
        {
          "indexed": false,
          "internalType": "uint256",
          "name": "cycleDays",
          "type": "uint256"
        },
        {
          "indexed": false,
          "internalType": "uint256",
          "name": "stakeId",
          "type": "uint256"
        }
      ],
      "name": "LiquidityStaked",
      "type": "event"
    },
    {
      "anonymous": false,
      "inputs": [
        {
          "indexed": false,
          "internalType": "bool",
          "name": "enabled",
          "type": "bool"
        }
      ],
      "name": "LiquidityStatusUpdated",
      "type": "event"
    },
    {
      "anonymous": false,
      "inputs": [
        {
          "indexed": true,
          "internalType": "address",
          "name": "previousOwner",
          "type": "address"
        },
        {
          "indexed": true,
          "internalType": "address",
          "name": "newOwner",
          "type": "address"
        }
      ],
      "name": "OwnershipTransferred",
      "type": "event"
    },
    {
      "anonymous": false,
      "inputs": [
        {
          "indexed": false,
          "internalType": "bool",
          "name": "enabled",
          "type": "bool"
        }
      ],
      "name": "RedeemStatusUpdated",
      "type": "event"
    },
    {
      "anonymous": false,
      "inputs": [
        {
          "indexed": true,
          "internalType": "address",
          "name": "user",
          "type": "address"
        },
        {
          "indexed": false,
          "internalType": "uint256",
          "name": "principal",
          "type": "uint256"
        },
        {
          "indexed": false,
          "internalType": "uint256",
          "name": "fee",
          "type": "uint256"
        }
      ],
      "name": "Redeemed",
      "type": "event"
    },
    {
      "anonymous": false,
      "inputs": [
        {
          "indexed": true,
          "internalType": "address",
          "name": "user",
          "type": "address"
        },
        {
          "indexed": false,
          "internalType": "uint256",
          "name": "amount",
          "type": "uint256"
        },
        {
          "indexed": false,
          "internalType": "uint256",
          "name": "cappedAmount",
          "type": "uint256"
        }
      ],
      "name": "RewardCapped",
      "type": "event"
    },
    {
      "anonymous": false,
      "inputs": [
        {
          "indexed": true,
          "internalType": "address",
          "name": "user",
          "type": "address"
        },
        {
          "indexed": false,
          "internalType": "uint256",
          "name": "amount",
          "type": "uint256"
        },
        {
          "indexed": false,
          "internalType": "uint8",
          "name": "rewardType",
          "type": "uint8"
        }
      ],
      "name": "RewardPaid",
      "type": "event"
    },
    {
      "anonymous": false,
      "inputs": [
        {
          "indexed": true,
          "internalType": "address",
          "name": "user",
          "type": "address"
        },
        {
          "indexed": false,
          "internalType": "uint256",
          "name": "jbcAmount",
          "type": "uint256"
        },
        {
          "indexed": false,
          "internalType": "uint256",
          "name": "mcAmount",
          "type": "uint256"
        },
        {
          "indexed": false,
          "internalType": "uint256",
          "name": "tax",
          "type": "uint256"
        }
      ],
      "name": "SwappedJBCToMC",
      "type": "event"
    },
    {
      "anonymous": false,
      "inputs": [
        {
          "indexed": true,
          "internalType": "address",
          "name": "user",
          "type": "address"
        },
        {
          "indexed": false,
          "internalType": "uint256",
          "name": "mcAmount",
          "type": "uint256"
        },
        {
          "indexed": false,
          "internalType": "uint256",
          "name": "jbcAmount",
          "type": "uint256"
        },
        {
          "indexed": false,
          "internalType": "uint256",
          "name": "tax",
          "type": "uint256"
        }
      ],
      "name": "SwappedMCToJBC",
      "type": "event"
    },
    {
      "anonymous": false,
      "inputs": [
        {
          "indexed": false,
          "internalType": "uint256",
          "name": "newDuration",
          "type": "uint256"
        }
      ],
      "name": "TicketFlexibilityDurationUpdated",
      "type": "event"
    },
    {
      "anonymous": false,
      "inputs": [
        {
          "indexed": true,
          "internalType": "address",
          "name": "user",
          "type": "address"
        },
        {
          "indexed": false,
          "internalType": "uint256",
          "name": "amount",
          "type": "uint256"
        },
        {
          "indexed": false,
          "internalType": "uint256",
          "name": "ticketId",
          "type": "uint256"
        }
      ],
      "name": "TicketPurchased",
      "type": "event"
    },
    {
      "anonymous": false,
      "inputs": [
        {
          "indexed": true,
          "internalType": "address",
          "name": "implementation",
          "type": "address"
        }
      ],
      "name": "Upgraded",
      "type": "event"
    },
    {
      "inputs": [],
      "name": "REWARD_DIRECT",
      "outputs": [
        {
          "internalType": "uint8",
          "name": "",
          "type": "uint8"
        }
      ],
      "stateMutability": "view",
      "type": "function"
    },
    {
      "inputs": [],
      "name": "REWARD_DYNAMIC",
      "outputs": [
        {
          "internalType": "uint8",
          "name": "",
          "type": "uint8"
        }
      ],
      "stateMutability": "view",
      "type": "function"
    },
    {
      "inputs": [],
      "name": "REWARD_LEVEL",
      "outputs": [
        {
          "internalType": "uint8",
          "name": "",
          "type": "uint8"
        }
      ],
      "stateMutability": "view",
      "type": "function"
    },
    {
      "inputs": [],
      "name": "REWARD_STATIC",
      "outputs": [
        {
          "internalType": "uint8",
          "name": "",
          "type": "uint8"
        }
      ],
      "stateMutability": "view",
      "type": "function"
    },
    {
      "inputs": [],
      "name": "SECONDS_IN_UNIT",
      "outputs": [
        {
          "internalType": "uint256",
          "name": "",
          "type": "uint256"
        }
      ],
      "stateMutability": "view",
      "type": "function"
    },
    {
      "inputs": [],
      "name": "UPGRADE_INTERFACE_VERSION",
      "outputs": [
        {
          "internalType": "string",
          "name": "",
          "type": "string"
        }
      ],
      "stateMutability": "view",
      "type": "function"
    },
    {
      "inputs": [
        {
          "internalType": "uint256",
          "name": "mcAmount",
          "type": "uint256"
        },
        {
          "internalType": "uint256",
          "name": "jbcAmount",
          "type": "uint256"
        }
      ],
      "name": "addLiquidity",
      "outputs": [],
      "stateMutability": "nonpayable",
      "type": "function"
    },
    {
      "inputs": [
        {
          "internalType": "address",
          "name": "user",
          "type": "address"
        },
        {
          "internalType": "address",
          "name": "newReferrer",
          "type": "address"
        }
      ],
      "name": "adminSetReferrer",
      "outputs": [],
      "stateMutability": "nonpayable",
      "type": "function"
    },
    {
      "inputs": [
        {
          "internalType": "address",
          "name": "user",
          "type": "address"
        },
        {
          "internalType": "uint256",
          "name": "_activeDirects",
          "type": "uint256"
        },
        {
          "internalType": "uint256",
          "name": "_teamCount",
          "type": "uint256"
        }
      ],
      "name": "adminSetUserStats",
      "outputs": [],
      "stateMutability": "nonpayable",
      "type": "function"
    },
    {
      "inputs": [
        {
          "internalType": "uint256",
          "name": "amount",
          "type": "uint256"
        },
        {
          "internalType": "address",
          "name": "to",
          "type": "address"
        }
      ],
      "name": "adminWithdrawJBC",
      "outputs": [],
      "stateMutability": "nonpayable",
      "type": "function"
    },
    {
      "inputs": [
        {
          "internalType": "uint256",
          "name": "amount",
          "type": "uint256"
        },
        {
          "internalType": "address",
          "name": "to",
          "type": "address"
        }
      ],
      "name": "adminWithdrawMC",
      "outputs": [],
      "stateMutability": "nonpayable",
      "type": "function"
    },
    {
      "inputs": [
        {
          "internalType": "address",
          "name": "_referrer",
          "type": "address"
        }
      ],
      "name": "bindReferrer",
      "outputs": [],
      "stateMutability": "nonpayable",
      "type": "function"
    },
    {
      "inputs": [
        {
          "internalType": "uint256",
          "name": "amount",
          "type": "uint256"
        }
      ],
      "name": "buyTicket",
      "outputs": [],
      "stateMutability": "nonpayable",
      "type": "function"
    },
    {
      "inputs": [],
      "name": "buybackPercent",
      "outputs": [
        {
          "internalType": "uint256",
          "name": "",
          "type": "uint256"
        }
      ],
      "stateMutability": "view",
      "type": "function"
    },
    {
      "inputs": [],
      "name": "buybackWallet",
      "outputs": [
        {
          "internalType": "address",
          "name": "",
          "type": "address"
        }
      ],
      "stateMutability": "view",
      "type": "function"
    },
    {
      "inputs": [],
      "name": "claimRewards",
      "outputs": [],
      "stateMutability": "nonpayable",
      "type": "function"
    },
    {
      "inputs": [
        {
          "internalType": "address",
          "name": "",
          "type": "address"
        },
        {
          "internalType": "uint256",
          "name": "",
          "type": "uint256"
        }
      ],
      "name": "directReferrals",
      "outputs": [
        {
          "internalType": "address",
          "name": "",
          "type": "address"
        }
      ],
      "stateMutability": "view",
      "type": "function"
    },
    {
      "inputs": [],
      "name": "directRewardPercent",
      "outputs": [
        {
          "internalType": "uint256",
          "name": "",
          "type": "uint256"
        }
      ],
      "stateMutability": "view",
      "type": "function"
    },
    {
      "inputs": [
        {
          "internalType": "uint256",
          "name": "amountIn",
          "type": "uint256"
        },
        {
          "internalType": "uint256",
          "name": "reserveIn",
          "type": "uint256"
        },
        {
          "internalType": "uint256",
          "name": "reserveOut",
          "type": "uint256"
        }
      ],
      "name": "getAmountOut",
      "outputs": [
        {
          "internalType": "uint256",
          "name": "",
          "type": "uint256"
        }
      ],
      "stateMutability": "pure",
      "type": "function"
    },
    {
      "inputs": [],
      "name": "getJBCPrice",
      "outputs": [
        {
          "internalType": "uint256",
          "name": "",
          "type": "uint256"
        }
      ],
      "stateMutability": "view",
      "type": "function"
    },
    {
      "inputs": [
        {
          "internalType": "uint256",
          "name": "activeDirects",
          "type": "uint256"
        }
      ],
      "name": "getLevel",
      "outputs": [
        {
          "internalType": "uint256",
          "name": "level",
          "type": "uint256"
        },
        {
          "internalType": "uint256",
          "name": "percent",
          "type": "uint256"
        }
      ],
      "stateMutability": "view",
      "type": "function"
    },
    {
      "inputs": [
        {
          "internalType": "address",
          "name": "_mcToken",
          "type": "address"
        },
        {
          "internalType": "address",
          "name": "_jbcToken",
          "type": "address"
        },
        {
          "internalType": "address",
          "name": "_marketing",
          "type": "address"
        },
        {
          "internalType": "address",
          "name": "_treasury",
          "type": "address"
        },
        {
          "internalType": "address",
          "name": "_lpInjection",
          "type": "address"
        },
        {
          "internalType": "address",
          "name": "_buybackWallet",
          "type": "address"
        }
      ],
      "name": "initialize",
      "outputs": [],
      "stateMutability": "nonpayable",
      "type": "function"
    },
    {
      "inputs": [],
      "name": "jbcToken",
      "outputs": [
        {
          "internalType": "contract IJBC",
          "name": "",
          "type": "address"
        }
      ],
      "stateMutability": "view",
      "type": "function"
    },
    {
      "inputs": [
        {
          "internalType": "uint256",
          "name": "",
          "type": "uint256"
        }
      ],
      "name": "levelConfigs",
      "outputs": [
        {
          "internalType": "uint256",
          "name": "minDirects",
          "type": "uint256"
        },
        {
          "internalType": "uint256",
          "name": "level",
          "type": "uint256"
        },
        {
          "internalType": "uint256",
          "name": "percent",
          "type": "uint256"
        }
      ],
      "stateMutability": "view",
      "type": "function"
    },
    {
      "inputs": [],
      "name": "levelRewardPercent",
      "outputs": [
        {
          "internalType": "uint256",
          "name": "",
          "type": "uint256"
        }
      ],
      "stateMutability": "view",
      "type": "function"
    },
    {
      "inputs": [],
      "name": "liquidityEnabled",
      "outputs": [
        {
          "internalType": "bool",
          "name": "",
          "type": "bool"
        }
      ],
      "stateMutability": "view",
      "type": "function"
    },
    {
      "inputs": [],
      "name": "lpInjectionPercent",
      "outputs": [
        {
          "internalType": "uint256",
          "name": "",
          "type": "uint256"
        }
      ],
      "stateMutability": "view",
      "type": "function"
    },
    {
      "inputs": [],
      "name": "lpInjectionWallet",
      "outputs": [
        {
          "internalType": "address",
          "name": "",
          "type": "address"
        }
      ],
      "stateMutability": "view",
      "type": "function"
    },
    {
      "inputs": [],
      "name": "marketingPercent",
      "outputs": [
        {
          "internalType": "uint256",
          "name": "",
          "type": "uint256"
        }
      ],
      "stateMutability": "view",
      "type": "function"
    },
    {
      "inputs": [],
      "name": "marketingWallet",
      "outputs": [
        {
          "internalType": "address",
          "name": "",
          "type": "address"
        }
      ],
      "stateMutability": "view",
      "type": "function"
    },
    {
      "inputs": [],
      "name": "mcToken",
      "outputs": [
        {
          "internalType": "contract IERC20",
          "name": "",
          "type": "address"
        }
      ],
      "stateMutability": "view",
      "type": "function"
    },
    {
      "inputs": [],
      "name": "nextStakeId",
      "outputs": [
        {
          "internalType": "uint256",
          "name": "",
          "type": "uint256"
        }
      ],
      "stateMutability": "view",
      "type": "function"
    },
    {
      "inputs": [],
      "name": "nextTicketId",
      "outputs": [
        {
          "internalType": "uint256",
          "name": "",
          "type": "uint256"
        }
      ],
      "stateMutability": "view",
      "type": "function"
    },
    {
      "inputs": [],
      "name": "owner",
      "outputs": [
        {
          "internalType": "address",
          "name": "",
          "type": "address"
        }
      ],
      "stateMutability": "view",
      "type": "function"
    },
    {
      "inputs": [],
      "name": "proxiableUUID",
      "outputs": [
        {
          "internalType": "bytes32",
          "name": "",
          "type": "bytes32"
        }
      ],
      "stateMutability": "view",
      "type": "function"
    },
    {
      "inputs": [],
      "name": "redeem",
      "outputs": [],
      "stateMutability": "nonpayable",
      "type": "function"
    },
    {
      "inputs": [],
      "name": "redeemEnabled",
      "outputs": [
        {
          "internalType": "bool",
          "name": "",
          "type": "bool"
        }
      ],
      "stateMutability": "view",
      "type": "function"
    },
    {
      "inputs": [],
      "name": "redemptionFeePercent",
      "outputs": [
        {
          "internalType": "uint256",
          "name": "",
          "type": "uint256"
        }
      ],
      "stateMutability": "view",
      "type": "function"
    },
    {
      "inputs": [],
      "name": "renounceOwnership",
      "outputs": [],
      "stateMutability": "nonpayable",
      "type": "function"
    },
    {
      "inputs": [
        {
          "internalType": "uint256",
          "name": "_direct",
          "type": "uint256"
        },
        {
          "internalType": "uint256",
          "name": "_level",
          "type": "uint256"
        },
        {
          "internalType": "uint256",
          "name": "_marketing",
          "type": "uint256"
        },
        {
          "internalType": "uint256",
          "name": "_buyback",
          "type": "uint256"
        },
        {
          "internalType": "uint256",
          "name": "_lp",
          "type": "uint256"
        },
        {
          "internalType": "uint256",
          "name": "_treasury",
          "type": "uint256"
        }
      ],
      "name": "setDistributionPercents",
      "outputs": [],
      "stateMutability": "nonpayable",
      "type": "function"
    },
    {
      "inputs": [
        {
          "components": [
            {
              "internalType": "uint256",
              "name": "minDirects",
              "type": "uint256"
            },
            {
              "internalType": "uint256",
              "name": "level",
              "type": "uint256"
            },
            {
              "internalType": "uint256",
              "name": "percent",
              "type": "uint256"
            }
          ],
          "internalType": "struct JinbaoProtocol.LevelConfig[]",
          "name": "_configs",
          "type": "tuple[]"
        }
      ],
      "name": "setLevelConfigs",
      "outputs": [],
      "stateMutability": "nonpayable",
      "type": "function"
    },
    {
      "inputs": [
        {
          "internalType": "bool",
          "name": "_enabled",
          "type": "bool"
        }
      ],
      "name": "setLiquidityEnabled",
      "outputs": [],
      "stateMutability": "nonpayable",
      "type": "function"
    },
    {
      "inputs": [
        {
          "internalType": "bool",
          "name": "_enabled",
          "type": "bool"
        }
      ],
      "name": "setRedeemEnabled",
      "outputs": [],
      "stateMutability": "nonpayable",
      "type": "function"
    },
    {
      "inputs": [
        {
          "internalType": "uint256",
          "name": "_fee",
          "type": "uint256"
        }
      ],
      "name": "setRedemptionFee",
      "outputs": [],
      "stateMutability": "nonpayable",
      "type": "function"
    },
    {
      "inputs": [
        {
          "internalType": "uint256",
          "name": "_buyTax",
          "type": "uint256"
        },
        {
          "internalType": "uint256",
          "name": "_sellTax",
          "type": "uint256"
        }
      ],
      "name": "setSwapTaxes",
      "outputs": [],
      "stateMutability": "nonpayable",
      "type": "function"
    },
    {
      "inputs": [
        {
          "internalType": "uint256",
          "name": "_duration",
          "type": "uint256"
        }
      ],
      "name": "setTicketFlexibilityDuration",
      "outputs": [],
      "stateMutability": "nonpayable",
      "type": "function"
    },
    {
      "inputs": [
        {
          "internalType": "address",
          "name": "_marketing",
          "type": "address"
        },
        {
          "internalType": "address",
          "name": "_treasury",
          "type": "address"
        },
        {
          "internalType": "address",
          "name": "_lpInjection",
          "type": "address"
        },
        {
          "internalType": "address",
          "name": "_buyback",
          "type": "address"
        }
      ],
      "name": "setWallets",
      "outputs": [],
      "stateMutability": "nonpayable",
      "type": "function"
    },
    {
      "inputs": [
        {
          "internalType": "uint256",
          "name": "amount",
          "type": "uint256"
        },
        {
          "internalType": "uint256",
          "name": "cycleDays",
          "type": "uint256"
        }
      ],
      "name": "stakeLiquidity",
      "outputs": [],
      "stateMutability": "nonpayable",
      "type": "function"
    },
    {
      "inputs": [],
      "name": "swapBuyTax",
      "outputs": [
        {
          "internalType": "uint256",
          "name": "",
          "type": "uint256"
        }
      ],
      "stateMutability": "view",
      "type": "function"
    },
    {
      "inputs": [
        {
          "internalType": "uint256",
          "name": "jbcAmount",
          "type": "uint256"
        }
      ],
      "name": "swapJBCToMC",
      "outputs": [],
      "stateMutability": "nonpayable",
      "type": "function"
    },
    {
      "inputs": [
        {
          "internalType": "uint256",
          "name": "mcAmount",
          "type": "uint256"
        }
      ],
      "name": "swapMCToJBC",
      "outputs": [],
      "stateMutability": "nonpayable",
      "type": "function"
    },
    {
      "inputs": [],
      "name": "swapReserveJBC",
      "outputs": [
        {
          "internalType": "uint256",
          "name": "",
          "type": "uint256"
        }
      ],
      "stateMutability": "view",
      "type": "function"
    },
    {
      "inputs": [],
      "name": "swapReserveMC",
      "outputs": [
        {
          "internalType": "uint256",
          "name": "",
          "type": "uint256"
        }
      ],
      "stateMutability": "view",
      "type": "function"
    },
    {
      "inputs": [],
      "name": "swapSellTax",
      "outputs": [
        {
          "internalType": "uint256",
          "name": "",
          "type": "uint256"
        }
      ],
      "stateMutability": "view",
      "type": "function"
    },
    {
      "inputs": [],
      "name": "ticketFlexibilityDuration",
      "outputs": [
        {
          "internalType": "uint256",
          "name": "",
          "type": "uint256"
        }
      ],
      "stateMutability": "view",
      "type": "function"
    },
    {
      "inputs": [
        {
          "internalType": "uint256",
          "name": "",
          "type": "uint256"
        },
        {
          "internalType": "uint256",
          "name": "",
          "type": "uint256"
        }
      ],
      "name": "ticketPendingRewards",
      "outputs": [
        {
          "internalType": "address",
          "name": "upline",
          "type": "address"
        },
        {
          "internalType": "uint256",
          "name": "amount",
          "type": "uint256"
        }
      ],
      "stateMutability": "view",
      "type": "function"
    },
    {
      "inputs": [
        {
          "internalType": "address",
          "name": "newOwner",
          "type": "address"
        }
      ],
      "name": "transferOwnership",
      "outputs": [],
      "stateMutability": "nonpayable",
      "type": "function"
    },
    {
      "inputs": [],
      "name": "treasuryPercent",
      "outputs": [
        {
          "internalType": "uint256",
          "name": "",
          "type": "uint256"
        }
      ],
      "stateMutability": "view",
      "type": "function"
    },
    {
      "inputs": [],
      "name": "treasuryWallet",
      "outputs": [
        {
          "internalType": "address",
          "name": "",
          "type": "address"
        }
      ],
      "stateMutability": "view",
      "type": "function"
    },
    {
      "inputs": [
        {
          "internalType": "address",
          "name": "newImplementation",
          "type": "address"
        },
        {
          "internalType": "bytes",
          "name": "data",
          "type": "bytes"
        }
      ],
      "name": "upgradeToAndCall",
      "outputs": [],
      "stateMutability": "payable",
      "type": "function"
    },
    {
      "inputs": [
        {
          "internalType": "address",
          "name": "",
          "type": "address"
        }
      ],
      "name": "userInfo",
      "outputs": [
        {
          "internalType": "address",
          "name": "referrer",
          "type": "address"
        },
        {
          "internalType": "uint256",
          "name": "activeDirects",
          "type": "uint256"
        },
        {
          "internalType": "uint256",
          "name": "teamCount",
          "type": "uint256"
        },
        {
          "internalType": "uint256",
          "name": "totalRevenue",
          "type": "uint256"
        },
        {
          "internalType": "uint256",
          "name": "currentCap",
          "type": "uint256"
        },
        {
          "internalType": "bool",
          "name": "isActive",
          "type": "bool"
        },
        {
          "internalType": "uint256",
          "name": "refundFeeAmount",
          "type": "uint256"
        }
      ],
      "stateMutability": "view",
      "type": "function"
    },
    {
      "inputs": [
        {
          "internalType": "address",
          "name": "",
          "type": "address"
        },
        {
          "internalType": "uint256",
          "name": "",
          "type": "uint256"
        }
      ],
      "name": "userStakes",
      "outputs": [
        {
          "internalType": "uint256",
          "name": "id",
          "type": "uint256"
        },
        {
          "internalType": "uint256",
          "name": "amount",
          "type": "uint256"
        },
        {
          "internalType": "uint256",
          "name": "startTime",
          "type": "uint256"
        },
        {
          "internalType": "uint256",
          "name": "cycleDays",
          "type": "uint256"
        },
        {
          "internalType": "bool",
          "name": "active",
          "type": "bool"
        },
        {
          "internalType": "uint256",
          "name": "paid",
          "type": "uint256"
        }
      ],
      "stateMutability": "view",
      "type": "function"
    },
    {
      "inputs": [
        {
          "internalType": "address",
          "name": "",
          "type": "address"
        }
      ],
      "name": "userTicket",
      "outputs": [
        {
          "internalType": "uint256",
          "name": "ticketId",
          "type": "uint256"
        },
        {
          "internalType": "uint256",
          "name": "amount",
          "type": "uint256"
        },
        {
          "internalType": "uint256",
          "name": "purchaseTime",
          "type": "uint256"
        },
        {
          "internalType": "bool",
          "name": "exited",
          "type": "bool"
        }
      ],
      "stateMutability": "view",
      "type": "function"
    }
  ],
  "bytecode": "0x60a0604052306080523480156200001557600080fd5b506200002062000026565b620000da565b7ff0c57e16840df040f15088dc2f81fe391c3923bec73e23a9662efc9c229c6a00805468010000000000000000900460ff1615620000775760405163f92ee8a960e01b815260040160405180910390fd5b80546001600160401b0390811614620000d75780546001600160401b0319166001600160401b0390811782556040519081527fc7f505b2f371ae2175ee4913f4499e1f2633a7b5936321eed1cdaeb6115181d29060200160405180910390a15b50565b608051615385620001046000396000818161418a015281816141b301526142f401526153856000f3fe6080604052600436106103b85760003560e01c80637dbc1df0116101f2578063b048a4bb1161010d578063d241e001116100a0578063dec7fa3b1161006f578063dec7fa3b14610be7578063e4412f6814610bfd578063ecda2d3214610c13578063f2fde38b14610c3357600080fd5b8063d241e00114610b72578063d2f8253614610b92578063d8020a1814610bb1578063deab8aea14610bc757600080fd5b8063be574799116100dc578063be57479914610b06578063cc2a9a5b14610b26578063ccf6194414610b46578063ceaa366d14610b5c57600080fd5b8063b048a4bb14610a62578063b5d5b5fa14610a8c578063bd594dcf14610adb578063be040fb014610af157600080fd5b80638da5cb5b116101855780639cd441da116101545780639cd441da146109c45780639d99eca4146109e4578063a2af922614610a04578063ad3cb1cc14610a2457600080fd5b80638da5cb5b1461093157806390b0eb511461096e5780639370b0801461098e57806395253992146109a457600080fd5b80638710bcaa116101c15780638710bcaa1461088057806388fd4d33146108e75780638a859a85146109075780638c0eaa481461091c57600080fd5b80637dbc1df0146107dd578063813380cd146107fd57806383672f3e1461082b57806386481d401461084b57600080fd5b80634626402b116102e257806362eea91411610275578063715018a611610244578063715018a61461077c57806375506c961461079157806375f0a874146107a757806377a2a540146107c757600080fd5b806362eea9141461070657806367dd74ca146107265780636dd66827146107465780636fb3c47c1461075c57600080fd5b80634f1ef286116102b15780634f1ef286146106a857806352778b05146106bb57806352d1902d146106db5780636031a52f146106f057600080fd5b80634626402b14610633578063480937de14610653578063488b5d97146106735780634ea4c6b31461068857600080fd5b80631427f6161161035a57806321f483d31161032957806321f483d3146105b857806327f082f4146105f3578063372500ab146106095780633a3ea2f01461061e57600080fd5b80631427f616146104c75780631788513c146104dc5780631959a002146104fc5780631d0dac76146105a257600080fd5b8063054d50d411610396578063054d50d41461042857806305ad3935146104485780630a5c4567146104805780630e2be210146104a057600080fd5b8063021d2893146103bd57806304ef9d58146103df57806304f618cb14610408575b600080fd5b3480156103c957600080fd5b506103dd6103d8366004614cf5565b610c53565b005b3480156103eb57600080fd5b506103f5600b5481565b6040519081526020015b60405180910390f35b34801561041457600080fd5b506103dd610423366004614d2e565b610caf565b34801561043457600080fd5b506103f5610443366004614d49565b610e1c565b34801561045457600080fd5b50610468610463366004614d75565b610ef4565b6040516001600160a01b0390911681526020016103ff565b34801561048c57600080fd5b506103dd61049b366004614d9f565b610f2c565b3480156104ac57600080fd5b506104b5600281565b60405160ff90911681526020016103ff565b3480156104d357600080fd5b506104b5600081565b3480156104e857600080fd5b50600154610468906001600160a01b031681565b34801561050857600080fd5b50610561610517366004614d2e565b600f6020526000908152604090208054600182015460028301546003840154600485015460058601546006909601546001600160a01b0390951695939492939192909160ff169087565b604080516001600160a01b03909816885260208801969096529486019390935260608501919091526080840152151560a083015260c082015260e0016103ff565b3480156105ae57600080fd5b506103f560185481565b3480156105c457600080fd5b506105d86105d3366004614d9f565b61124e565b604080519384526020840192909252908201526060016103ff565b3480156105ff57600080fd5b506103f5600d5481565b34801561061557600080fd5b506103dd611281565b34801561062a57600080fd5b506103f56118bf565b34801561063f57600080fd5b50600354610468906001600160a01b031681565b34801561065f57600080fd5b506103dd61066e366004614cf5565b6119dc565b34801561067f57600080fd5b506103f5603c81565b34801561069457600080fd5b506103dd6106a3366004614db8565b611a25565b6103dd6106b6366004614e4a565b611e60565b3480156106c757600080fd5b506103dd6106d6366004614d9f565b611e7b565b3480156106e757600080fd5b506103f561217b565b3480156106fc57600080fd5b506103f560195481565b34801561071257600080fd5b506103dd610721366004614ef0565b612198565b34801561073257600080fd5b506103dd610741366004614d9f565b61221a565b34801561075257600080fd5b506103f560155481565b34801561076857600080fd5b506103dd610777366004614f1c565b61275e565b34801561078857600080fd5b506103dd61278d565b34801561079d57600080fd5b506103f5601a5481565b3480156107b357600080fd5b50600254610468906001600160a01b031681565b3480156107d357600080fd5b506103f560175481565b3480156107e957600080fd5b506103dd6107f8366004614d9f565b61279f565b34801561080957600080fd5b5061081d610818366004614db8565b6127eb565b6040516103ff929190614f4f565b34801561083757600080fd5b506103dd610846366004614f68565b612831565b34801561085757600080fd5b5061086b610866366004614d9f565b612889565b604080519283526020830191909152016103ff565b34801561088c57600080fd5b506108c561089b366004614d2e565b60106020526000908152604090208054600182015460028301546003909301549192909160ff1684565b60408051948552602085019390935291830152151560608201526080016103ff565b3480156108f357600080fd5b50600454610468906001600160a01b031681565b34801561091357600080fd5b506104b5600181565b34801561092857600080fd5b506104b5600381565b34801561093d57600080fd5b507f9016d09d72d40fdae2fd8ceac6b6234c7706214fd39c1cd1e609a0528c199300546001600160a01b0316610468565b34801561097a57600080fd5b506103dd610989366004614db8565b61292c565b34801561099a57600080fd5b506103f5600e5481565b3480156109b057600080fd5b50600054610468906001600160a01b031681565b3480156109d057600080fd5b506103dd6109df366004614db8565b61298b565b3480156109f057600080fd5b506103dd6109ff366004614d9f565b612b45565b348015610a1057600080fd5b506103dd610a1f366004614fbc565b612b82565b348015610a3057600080fd5b50610a55604051806040016040528060058152602001640352e302e360dc1b81525081565b6040516103ff919061500a565b348015610a6e57600080fd5b50601654610a7c9060ff1681565b60405190151581526020016103ff565b348015610a9857600080fd5b50610aac610aa7366004614d75565b612d7c565b6040805196875260208701959095529385019290925260608401521515608083015260a082015260c0016103ff565b348015610ae757600080fd5b506103f560075481565b348015610afd57600080fd5b506103dd612dd6565b348015610b1257600080fd5b506103dd610b2136600461503d565b6135f8565b348015610b3257600080fd5b506103dd610b41366004615111565b61369a565b348015610b5257600080fd5b506103f560065481565b348015610b6857600080fd5b506103f5600a5481565b348015610b7e57600080fd5b506103dd610b8d366004614ef0565b613cd4565b348015610b9e57600080fd5b50601654610a7c90610100900460ff1681565b348015610bbd57600080fd5b506103f560085481565b348015610bd357600080fd5b50600554610468906001600160a01b031681565b348015610bf357600080fd5b506103f5600c5481565b348015610c0957600080fd5b506103f560095481565b348015610c1f57600080fd5b506103dd610c2e366004615185565b613d0e565b348015610c3f57600080fd5b506103dd610c4e366004614d2e565b613dac565b610c5b613de7565b601680548215156101000261ff00199091161790556040517f03cb373f89de891077fe47cec43663b6727713de0337af46bebd1178122251b790610ca490831515815260200190565b60405180910390a150565b336000908152600f60205260409020546001600160a01b031615610d0a5760405162461bcd60e51b815260206004820152600d60248201526c105b1c9958591e48189bdd5b99609a1b60448201526064015b60405180910390fd5b336001600160a01b03821603610d555760405162461bcd60e51b815260206004820152601060248201526f21b0b73737ba103134b7321039b2b63360811b6044820152606401610d01565b6001600160a01b038116610d9e5760405162461bcd60e51b815260206004820152601060248201526f24b73b30b634b2103932b332b93932b960811b6044820152606401610d01565b336000818152600f6020908152604080832080546001600160a01b0387166001600160a01b0319918216811790925581855260128452828520805460018101825590865293852090930180549093168517909255519092917fa6dbb5aa28f35437de94d685d66edce5fb4812196b4984b91dfd5a7b38c0fb3091a350565b6000808411610e6d5760405162461bcd60e51b815260206004820152601960248201527f496e73756666696369656e7420696e70757420616d6f756e74000000000000006044820152606401610d01565b600083118015610e7d5750600082115b610ec25760405162461bcd60e51b8152602060048201526016602482015275496e73756666696369656e74206c697175696469747960501b6044820152606401610d01565b6000610ece83866151de565b90506000610edc86866151f5565b9050610ee88183615208565b925050505b9392505050565b60126020528160005260406000208181548110610f1057600080fd5b6000918252602090912001546001600160a01b03169150829050565b610f34613e42565b60008111610f755760405162461bcd60e51b815260206004820152600e60248201526d125b9d985b1a5908185b5bdd5b9d60921b6044820152606401610d01565b6000546040516323b872dd60e01b81526001600160a01b03909116906323b872dd90610fa99033903090869060040161522a565b6020604051808303816000875af1158015610fc8573d6000803e3d6000fd5b505050506040513d601f19601f82011682018060405250810190610fec919061524e565b506000610ffe82601754601854610e1c565b905060006064600d548361101291906151de565b61101c9190615208565b9050600061102a828461526b565b6001546040516370a0823160e01b815230600482015291925084916001600160a01b03909116906370a0823190602401602060405180830381865afa158015611077573d6000803e3d6000fd5b505050506040513d601f19601f8201168201806040525081019061109b919061527e565b10156110e95760405162461bcd60e51b815260206004820152601a60248201527f496e73756666696369656e74204a4243206c69717569646974790000000000006044820152606401610d01565b83601760008282546110fb91906151f5565b925050819055508260186000828254611114919061526b565b9091555050600154604051630852cd8d60e31b8152600481018490526001600160a01b03909116906342966c6890602401600060405180830381600087803b15801561115f57600080fd5b505af1158015611173573d6000803e3d6000fd5b505060015460405163a9059cbb60e01b81526001600160a01b03909116925063a9059cbb91506111a99033908590600401614f4f565b6020604051808303816000875af11580156111c8573d6000803e3d6000fd5b505050506040513d601f19601f820116820180604052508101906111ec919061524e565b50604080518581526020810183905290810183905233907f36864aeefce16bc4aaceeb6b0cdfb2ad1455a8cb4ccb0db148a2bc6e7166f97c906060015b60405180910390a250505061124b600160008051602061533083398151915255565b50565b6014818154811061125e57600080fd5b600091825260209091206003909102018054600182015460029092015490925083565b611289613e42565b3360009081526010602052604090206001810154158015906112b05750600381015460ff16155b6112e95760405162461bcd60e51b815260206004820152600a6024820152694e6f742061637469766560b01b6044820152606401610d01565b33600090815260116020526040812090805b82548110156115455782818154811061131657611316615297565b600091825260209091206004600690920201015460ff161561153d57600083828154811061134657611346615297565b906000526020600020906006020160030154600703611367575060146113c9565b83828154811061137957611379615297565b906000526020600020906006020160030154600f0361139a575060196113c9565b8382815481106113ac576113ac615297565b906000526020600020906006020160030154601e036113c95750601e5b6000603c8584815481106113df576113df615297565b906000526020600020906006020160020154426113fc919061526b565b6114069190615208565b905084838154811061141a5761141a615297565b90600052602060002090600602016003015481111561145a5784838154811061144557611445615297565b90600052602060002090600602016003015490505b8060000361146957505061153d565b60006103e8828488878154811061148257611482615297565b90600052602060002090600602016001015461149e91906151de565b6114a891906151de565b6114b29190615208565b905060008685815481106114c8576114c8615297565b9060005260206000209060060201600501549050808211156115385760006114f0828461526b565b90506114fc81886151f5565b96508088878154811061151157611511615297565b9060005260206000209060060201600501600082825461153191906151f5565b9091555050505b505050505b6001016112fb565b50600081116115875760405162461bcd60e51b815260206004820152600e60248201526d4e6f206e6577207265776172647360901b6044820152606401610d01565b336000908152600f6020526040902060048101546003909101546115ac9083906151f5565b11156115d957336000908152600f6020526040902060038101546004909101546115d6919061526b565b90505b806000036115f2576115ea33613e8e565b5050506118a6565b336000908152600f6020526040812060030180548392906116149084906151f5565b9091555060009050611627600283615208565b90506000611636600284615208565b6000546040516370a0823160e01b815230600482015291925083916001600160a01b03909116906370a0823190602401602060405180830381865afa158015611683573d6000803e3d6000fd5b505050506040513d601f19601f820116820180604052508101906116a7919061527e565b106117235760005460405163a9059cbb60e01b81526001600160a01b039091169063a9059cbb906116de9033908690600401614f4f565b6020604051808303816000875af11580156116fd573d6000803e3d6000fd5b505050506040513d601f19601f82011682018060405250810190611721919061524e565b505b600061172d6118bf565b905060008161174484670de0b6b3a76400006151de565b61174e9190615208565b6001546040516370a0823160e01b815230600482015291925082916001600160a01b03909116906370a0823190602401602060405180830381865afa15801561179b573d6000803e3d6000fd5b505050506040513d601f19601f820116820180604052508101906117bf919061527e565b1061183b5760015460405163a9059cbb60e01b81526001600160a01b039091169063a9059cbb906117f69033908590600401614f4f565b6020604051808303816000875af1158015611815573d6000803e3d6000fd5b505050506040513d601f19601f82011682018060405250810190611839919061524e565b505b604080518681526000602082015233917ff381583145e90b82cc5e529bf4fc4d0e44397174cdf145c4251ac33ef195a424910160405180910390a2336000908152600f6020526040902060048101546003909101541061189e5761189e33613e8e565b505050505050505b6118bd600160008051602061533083398151915255565b565b600080546040516370a0823160e01b815230600482015282916001600160a01b0316906370a0823190602401602060405180830381865afa158015611908573d6000803e3d6000fd5b505050506040513d601f19601f8201168201806040525081019061192c919061527e565b6001546040516370a0823160e01b81523060048201529192506000916001600160a01b03909116906370a0823190602401602060405180830381865afa15801561197a573d6000803e3d6000fd5b505050506040513d601f19601f8201168201806040525081019061199e919061527e565b9050806000036119b857670de0b6b3a76400009250505090565b806119cb83670de0b6b3a76400006151de565b6119d59190615208565b9250505090565b6119e4613de7565b6016805460ff19168215159081179091556040519081527fb886fcb5b9c12916f26d967ebe962dbd51ec249fb55961da39c851cdfc10115c90602001610ca4565b611a2d613e42565b60165460ff16611a745760405162461bcd60e51b8152602060048201526012602482015271131a5c5d5a591a5d1e48191a5cd8589b195960721b6044820152606401610d01565b3360009081526010602052604090206001810154611ac05760405162461bcd60e51b8152602060048201526009602482015268139bc81d1a58dad95d60ba1b6044820152606401610d01565b600381015460ff1615611b055760405162461bcd60e51b815260206004820152600d60248201526c151a58dad95d08195e1a5d1959609a1b6044820152606401610d01565b8160071480611b14575081600f145b80611b1f575081601e145b611b5b5760405162461bcd60e51b815260206004820152600d60248201526c496e76616c6964206379636c6560981b6044820152606401610d01565b60008311611b995760405162461bcd60e51b815260206004820152600b60248201526a16995c9bc8185b5bdd5b9d60aa1b6044820152606401610d01565b6000546040516323b872dd60e01b81526001600160a01b03909116906323b872dd90611bcd9033903090889060040161522a565b6020604051808303816000875af1158015611bec573d6000803e3d6000fd5b505050506040513d601f19601f82011682018060405250810190611c10919061524e565b50601a8054906000611c21836152ad565b9091555050336000818152601160209081526040808320815160c081018352601a805482528185018a81524283860190815260608085018c815260016080870181815260a088018c815289548084018b55998d529b8b9020975160069099029097019788559351938701939093559051600286015590516003850155915160048401805460ff1916911515919091179055945160059092019190915592548151888152928301879052908201527fa8a1b9e33e503eed12bf7e7c8c01c7f3b60217a496bddd0f5db351dd8c056c1c910160405180910390a2336000908152600f60205260409020600601548015611e4357336000908152600f6020526040808220600601829055905490516370a0823160e01b815230600482015282916001600160a01b0316906370a0823190602401602060405180830381865afa158015611d6e573d6000803e3d6000fd5b505050506040513d601f19601f82011682018060405250810190611d92919061527e565b10611e435760005460405163a9059cbb60e01b81526001600160a01b039091169063a9059cbb90611dc99033908590600401614f4f565b6020604051808303816000875af1158015611de8573d6000803e3d6000fd5b505050506040513d601f19601f82011682018060405250810190611e0c919061524e565b5060405181815233907f3437b9ea7fa19c6d233dd70cc787a70fab87cee64d8ba4571512cc84402748f99060200160405180910390a25b5050611e5c600160008051602061533083398151915255565b5050565b611e6861417f565b611e7182614224565b611e5c828261422c565b611e83613e42565b60008111611ec45760405162461bcd60e51b815260206004820152600e60248201526d125b9d985b1a5908185b5bdd5b9d60921b6044820152606401610d01565b6001546040516323b872dd60e01b81526001600160a01b03909116906323b872dd90611ef89033903090869060040161522a565b6020604051808303816000875af1158015611f17573d6000803e3d6000fd5b505050506040513d601f19601f82011682018060405250810190611f3b919061524e565b5060006064600e5483611f4e91906151de565b611f589190615208565b90506000611f66828461526b565b600154604051630852cd8d60e31b8152600481018590529192506001600160a01b0316906342966c6890602401600060405180830381600087803b158015611fad57600080fd5b505af1158015611fc1573d6000803e3d6000fd5b505050506000611fd682601854601754610e1c565b6000546040516370a0823160e01b815230600482015291925082916001600160a01b03909116906370a0823190602401602060405180830381865afa158015612023573d6000803e3d6000fd5b505050506040513d601f19601f82011682018060405250810190612047919061527e565b10156120955760405162461bcd60e51b815260206004820152601960248201527f496e73756666696369656e74204d43206c6971756964697479000000000000006044820152606401610d01565b81601860008282546120a791906151f5565b9250508190555080601760008282546120c0919061526b565b909155505060005460405163a9059cbb60e01b81526001600160a01b039091169063a9059cbb906120f79033908590600401614f4f565b6020604051808303816000875af1158015612116573d6000803e3d6000fd5b505050506040513d601f19601f8201168201806040525081019061213a919061524e565b50604080518581526020810183905290810184905233907f223c8ad0806f634524940a8595f819c5cfc7b1f4f4f45791269301df0a7e61d590606001611229565b60006121856142e9565b5060008051602061531083398151915290565b6121a0613de7565b60015460405163a9059cbb60e01b81526001600160a01b039091169063a9059cbb906121d29084908690600401614f4f565b6020604051808303816000875af11580156121f1573d6000803e3d6000fd5b505050506040513d601f19601f82011682018060405250810190612215919061524e565b505050565b612222613e42565b8068056bc75e2d631000001480612241575080681043561a8829300000145b80612254575080681b1ae4d6e2ef500000145b80612267575080683635c9adc5dea00000145b6122ab5760405162461bcd60e51b8152602060048201526015602482015274125b9d985b1a59081d1a58dad95d08185b5bdd5b9d605a1b6044820152606401610d01565b6000546040516323b872dd60e01b81526001600160a01b03909116906323b872dd906122df9033903090869060040161522a565b6020604051808303816000875af11580156122fe573d6000803e3d6000fd5b505050506040513d601f19601f82011682018060405250810190612322919061524e565b5060198054906000612333836152ad565b90915550506040805160808101825260195481526020808201848152428385019081526000606085018181523382526010855286822095518655925160018601559051600285015590516003938401805460ff1916911515919091179055600f9091529182208101919091556123aa9082906151de565b336000908152600f6020526040902060048101919091556005015460ff1661242957336000908152600f6020526040902060058101805460ff19166001179055546001600160a01b03168015612427576001600160a01b0381166000908152600f60205260408120600101805491612421836152ad565b91905055505b505b336000908152600f60205260409020546001600160a01b0316801561247857600060646006548461245a91906151de565b6124649190615208565b905061247282826002614332565b5061250e565b6000546002546006546001600160a01b039283169263a9059cbb9216906064906124a290876151de565b6124ac9190615208565b6040518363ffffffff1660e01b81526004016124c9929190614f4f565b6020604051808303816000875af11580156124e8573d6000803e3d6000fd5b505050506040513d601f19601f8201168201806040525081019061250c919061524e565b505b61251b33836019546144dc565b6000546002546008546001600160a01b039283169263a9059cbb92169060649061254590876151de565b61254f9190615208565b6040518363ffffffff1660e01b815260040161256c929190614f4f565b6020604051808303816000875af115801561258b573d6000803e3d6000fd5b505050506040513d601f19601f820116820180604052508101906125af919061524e565b5060006064600954846125c291906151de565b6125cc9190615208565b90506125d781614653565b600054600454600a546001600160a01b039283169263a9059cbb92169060649061260190886151de565b61260b9190615208565b6040518363ffffffff1660e01b8152600401612628929190614f4f565b6020604051808303816000875af1158015612647573d6000803e3d6000fd5b505050506040513d601f19601f8201168201806040525081019061266b919061524e565b50600054600354600b546001600160a01b039283169263a9059cbb92169060649061269690886151de565b6126a09190615208565b6040518363ffffffff1660e01b81526004016126bd929190614f4f565b6020604051808303816000875af11580156126dc573d6000803e3d6000fd5b505050506040513d601f19601f82011682018060405250810190612700919061524e565b5060195460405133917f2a91574e12ad96234e84923e146b0946ecfb871cd8d5534dc1fdcbe87a7c01b39161273d91878252602082015260400190565b60405180910390a2505061124b600160008051602061533083398151915255565b612766613de7565b6001600160a01b039092166000908152600f60205260409020600181019190915560020155565b612795613de7565b6118bd6000614807565b6127a7613de7565b60648111156127e65760405162461bcd60e51b815260206004820152600b60248201526a496e76616c69642066656560a81b6044820152606401610d01565b600c55565b6013602052816000526040600020818154811061280757600080fd5b6000918252602090912060029091020180546001909101546001600160a01b039091169250905082565b612839613de7565b600280546001600160a01b039586166001600160a01b0319918216179091556003805494861694821694909417909355600480549285169284169290921790915560058054919093169116179055565b60008060005b60145481101561292057601481815481106128ac576128ac615297565b906000526020600020906003020160000154841061291857601481815481106128d7576128d7615297565b906000526020600020906003020160010154601482815481106128fc576128fc615297565b9060005260206000209060030201600201549250925050915091565b60010161288f565b50600093849350915050565b612934613de7565b60648211158015612946575060648111155b6129805760405162461bcd60e51b815260206004820152600b60248201526a092dcecc2d8d2c840e8c2f60ab1b6044820152606401610d01565b600d91909155600e55565b612993613de7565b60008211806129a25750600081115b6129dc5760405162461bcd60e51b815260206004820152600b60248201526a16995c9bc8185b5bdd5b9d60aa1b6044820152606401610d01565b8115612a72576000546040516323b872dd60e01b81526001600160a01b03909116906323b872dd90612a169033903090879060040161522a565b6020604051808303816000875af1158015612a35573d6000803e3d6000fd5b505050506040513d601f19601f82011682018060405250810190612a59919061524e565b508160176000828254612a6c91906151f5565b90915550505b8015612b08576001546040516323b872dd60e01b81526001600160a01b03909116906323b872dd90612aac9033903090869060040161522a565b6020604051808303816000875af1158015612acb573d6000803e3d6000fd5b505050506040513d601f19601f82011682018060405250810190612aef919061524e565b508060186000828254612b0291906151f5565b90915550505b60408051838152602081018390527f38f8a0c92f4c5b0b6877f878cb4c0c8d348a47b76d716c8e78f425043df9515b910160405180910390a15050565b612b4d613de7565b60158190556040518181527fd28d9e4ce68d89af7920cb8618e342a78f51e545c530ce60f1cb1d6f0235b47f90602001610ca4565b612b8a613de7565b806001600160a01b0316826001600160a01b031603612bde5760405162461bcd60e51b815260206004820152601060248201526f21b0b73737ba103134b7321039b2b63360811b6044820152606401610d01565b6001600160a01b038083166000908152600f6020526040902080548383166001600160a01b0319821617909155168015612d2b576001600160a01b0381166000908152601260205260408120905b8154811015612d2857846001600160a01b0316828281548110612c5157612c51615297565b6000918252602090912001546001600160a01b031603612d205781548290612c7b9060019061526b565b81548110612c8b57612c8b615297565b9060005260206000200160009054906101000a90046001600160a01b0316828281548110612cbb57612cbb615297565b9060005260206000200160006101000a8154816001600160a01b0302191690836001600160a01b0316021790555081805480612cf957612cf96152c6565b600082815260209020810160001990810180546001600160a01b0319169055019055612d28565b600101612c2c565b50505b6001600160a01b0382161561221557506001600160a01b0390811660009081526012602090815260408220805460018101825590835291200180546001600160a01b03191692909116919091179055565b60116020528160005260406000208181548110612d9857600080fd5b600091825260209091206006909102018054600182015460028301546003840154600485015460059095015493965091945092909160ff9091169086565b612dde613e42565b601654610100900460ff16612e275760405162461bcd60e51b815260206004820152600f60248201526e14995919595b48191a5cd8589b1959608a1b6044820152606401610d01565b336000908152601160205260408120908080805b845481101561316957848181548110612e5657612e56615297565b600091825260209091206004600690920201015460ff1615613161576000603c868381548110612e8857612e88615297565b906000526020600020906006020160030154612ea491906151de565b868381548110612eb657612eb6615297565b906000526020600020906006020160020154612ed291906151f5565b905080421061315f576000868381548110612eef57612eef615297565b906000526020600020906006020160030154600703612f1057506014612f72565b868381548110612f2257612f22615297565b906000526020600020906006020160030154600f03612f4357506019612f72565b868381548110612f5557612f55615297565b906000526020600020906006020160030154601e03612f725750601e5b60006103e8888581548110612f8957612f89615297565b906000526020600020906006020160030154838a8781548110612fae57612fae615297565b906000526020600020906006020160010154612fca91906151de565b612fd491906151de565b612fde9190615208565b90506000888581548110612ff457612ff4615297565b90600052602060002090600602016005015482111561303f5788858154811061301f5761301f615297565b9060005260206000209060060201600501548261303c919061526b565b90505b61304981876151f5565b95508089868154811061305e5761305e615297565b9060005260206000209060060201600501600082825461307e91906151f5565b9250508190555060006064600c548b888154811061309e5761309e615297565b9060005260206000209060060201600101546130ba91906151de565b6130c49190615208565b905060008a87815481106130da576130da615297565b9060005260206000209060060201600101549050818110613106576130ff828261526b565b905061310b565b600091505b613115818b6151f5565b9950613121828a6151f5565b985060008b888154811061313757613137615297565b60009182526020909120600690910201600401805460ff191691151591909117905550505050505b505b600101612e3b565b5060008311806131795750600081115b6131b95760405162461bcd60e51b81526020600482015260116024820152704e6f7468696e6720746f2072656465656d60781b6044820152606401610d01565b80156134bd57336000908152600f6020526040812060038101546004909101546131e3919061526b565b90508082111561322c57604080518381526020810183905233917fb5987aab1afd379f6695f1068869ee8ca6a0d02304c57935a9cc3d3ea2e51e4d910160405180910390a28091505b81156134bb57336000908152600f6020526040812060030180548492906132549084906151f5565b9091555060009050613267600284615208565b90506000613276600285615208565b6000546040516370a0823160e01b815230600482015291925083916001600160a01b03909116906370a0823190602401602060405180830381865afa1580156132c3573d6000803e3d6000fd5b505050506040513d601f19601f820116820180604052508101906132e7919061527e565b106133635760005460405163a9059cbb60e01b81526001600160a01b039091169063a9059cbb9061331e9033908690600401614f4f565b6020604051808303816000875af115801561333d573d6000803e3d6000fd5b505050506040513d601f19601f82011682018060405250810190613361919061524e565b505b600061336d6118bf565b905060008161338484670de0b6b3a76400006151de565b61338e9190615208565b6001546040516370a0823160e01b815230600482015291925082916001600160a01b03909116906370a0823190602401602060405180830381865afa1580156133db573d6000803e3d6000fd5b505050506040513d601f19601f820116820180604052508101906133ff919061527e565b1061347b5760015460405163a9059cbb60e01b81526001600160a01b039091169063a9059cbb906134369033908590600401614f4f565b6020604051808303816000875af1158015613455573d6000803e3d6000fd5b505050506040513d601f19601f82011682018060405250810190613479919061524e565b505b604080518781526000602082015233917ff381583145e90b82cc5e529bf4fc4d0e44397174cdf145c4251ac33ef195a424910160405180910390a2505050505b505b821561353a5760005460405163a9059cbb60e01b81526001600160a01b039091169063a9059cbb906134f59033908790600401614f4f565b6020604051808303816000875af1158015613514573d6000803e3d6000fd5b505050506040513d601f19601f82011682018060405250810190613538919061524e565b505b336000908152600f60205260408120600601805484929061355c9084906151f5565b9091555050604080518481526020810184905233917ff3a670cd3af7d64b488926880889d08a8585a138ff455227af6737339a1ec262910160405180910390a2336000908152601060205260409020546135b590614878565b336000908152600f602052604090206004810154600390910154106135dd576135dd33613e8e565b505050506118bd600160008051602061533083398151915255565b613600613de7565b61360c60146000614c59565b60005b815181101561366d57601482828151811061362c5761362c615297565b60209081029190910181015182546001818101855560009485529383902082516003909202019081559181015182840155604001516002909101550161360f565b506040517f81086beec7078a58d4155c0b0d7d98e4d4df580e4737331309687e6ab8a6944090600090a150565b60006136a46149e2565b805490915060ff600160401b820416159067ffffffffffffffff166000811580156136cc5750825b905060008267ffffffffffffffff1660011480156136e95750303b155b9050811580156136f7575080155b156137155760405163f92ee8a960e01b815260040160405180910390fd5b845467ffffffffffffffff19166001178555831561373f57845460ff60401b1916600160401b1785555b61374833614a0d565b613750614a1e565b613758614a2e565b8a6000806101000a8154816001600160a01b0302191690836001600160a01b0316021790555089600160006101000a8154816001600160a01b0302191690836001600160a01b0316021790555088600260006101000a8154816001600160a01b0302191690836001600160a01b0316021790555087600360006101000a8154816001600160a01b0302191690836001600160a01b0316021790555086600460006101000a8154816001600160a01b0302191690836001600160a01b0316021790555085600560006101000a8154816001600160a01b0302191690836001600160a01b031602179055506019600681905550600f600781905550600560088190555060056009819055506019600a819055506019600b819055506001600c819055506032600d819055506019600e819055506203f4806015819055506001601660006101000a81548160ff0219169083151502179055506001601660016101000a81548160ff02191690831515021790555060146040518060600160405280620186a0815260200160098152602001602d81525090806001815401808255809150506001900390600052602060002090600302016000909190919091506000820151816000015560208201518160010155604082015181600201555050601460405180606001604052806175308152602001600881526020016028815250908060018154018082558091505060019003906000526020600020906003020160009091909190915060008201518160000155602082015181600101556040820151816002015550506014604051806060016040528061271081526020016007815260200160238152509080600181540180825580915050600190039060005260206000209060030201600090919091909150600082015181600001556020820151816001015560408201518160020155505060146040518060600160405280610bb8815260200160068152602001601e81525090806001815401808255809150506001900390600052602060002090600302016000909190919091506000820151816000015560208201518160010155604082015181600201555050601460405180606001604052806103e88152602001600581526020016019815250908060018154018082558091505060019003906000526020600020906003020160009091909190915060008201518160000155602082015181600101556040820151816002015550506014604051806060016040528061012c815260200160048152602001601481525090806001815401808255809150506001900390600052602060002090600302016000909190919091506000820151816000015560208201518160010155604082015181600201555050601460405180606001604052806064815260200160038152602001600f8152509080600181540180825580915050600190039060005260206000209060030201600090919091909150600082015181600001556020820151816001015560408201518160020155505060146040518060600160405280601e815260200160028152602001600a8152509080600181540180825580915050600190039060005260206000209060030201600090919091909150600082015181600001556020820151816001015560408201518160020155505060146040518060600160405280600a8152602001600181526020016005815250908060018154018082558091505060019003906000526020600020906003020160009091909190915060008201518160000155602082015181600101556040820151816002015550508315613cc757845460ff60401b19168555604051600181527fc7f505b2f371ae2175ee4913f4499e1f2633a7b5936321eed1cdaeb6115181d29060200160405180910390a15b5050505050505050505050565b613cdc613de7565b60005460405163a9059cbb60e01b81526001600160a01b039091169063a9059cbb906121d29084908690600401614f4f565b613d16613de7565b80828486613d24898b6151f5565b613d2e91906151f5565b613d3891906151f5565b613d4291906151f5565b613d4c91906151f5565b606414613d8f5760405162461bcd60e51b81526020600482015260116024820152700546f74616c206d7573742062652031303607c1b6044820152606401610d01565b600695909555600793909355600891909155600955600a55600b55565b613db4613de7565b6001600160a01b038116613dde57604051631e4fbdf760e01b815260006004820152602401610d01565b61124b81614807565b33613e197f9016d09d72d40fdae2fd8ceac6b6234c7706214fd39c1cd1e609a0528c199300546001600160a01b031690565b6001600160a01b0316146118bd5760405163118cdaa760e01b8152336004820152602401610d01565b600080516020615330833981519152805460011901613e7457604051633ee5aeb560e01b815260040160405180910390fd5b60029055565b600160008051602061533083398151915255565b6001600160a01b0381166000908152601060205260409020600381015460ff16611e5c5760038101805460ff191660011790556001600160a01b03821660009081526011602052604081209080805b8354811015613ff357838181548110613ef857613ef8615297565b600091825260209091206004600690920201015460ff1615613feb5760006064600c54868481548110613f2d57613f2d615297565b906000526020600020906006020160010154613f4991906151de565b613f539190615208565b90506000858381548110613f6957613f69615297565b9060005260206000209060060201600101549050818110613f9557613f8e828261526b565b9050613f9a565b600091505b613fa481866151f5565b9450613fb082856151f5565b93506000868481548110613fc657613fc6615297565b60009182526020909120600690910201600401805460ff191691151591909117905550505b600101613edd565b5081156140715760005460405163a9059cbb60e01b81526001600160a01b039091169063a9059cbb9061402c9088908690600401614f4f565b6020604051808303816000875af115801561404b573d6000803e3d6000fd5b505050506040513d601f19601f8201168201806040525081019061406f919061524e565b505b6001600160a01b038086166000908152600f6020526040902060058101805460ff19169055541680158015906140c157506001600160a01b0381166000908152600f602052604090206001015415155b156140f3576001600160a01b0381166000908152600f602052604081206001018054916140ed836152dc565b91905055505b60408051848152602081018490526001600160a01b038816917ff3a670cd3af7d64b488926880889d08a8585a138ff455227af6737339a1ec262910160405180910390a284546040519081526001600160a01b038716907f920bb94eb3842a728db98228c375ff6b00c5bc5a54fac6736155517a0a20a61a9060200160405180910390a2505050505050565b306001600160a01b037f000000000000000000000000000000000000000000000000000000000000000016148061420657507f00000000000000000000000000000000000000000000000000000000000000006001600160a01b03166141fa600080516020615310833981519152546001600160a01b031690565b6001600160a01b031614155b156118bd5760405163703e46dd60e11b815260040160405180910390fd5b61124b613de7565b816001600160a01b03166352d1902d6040518163ffffffff1660e01b8152600401602060405180830381865afa925050508015614286575060408051601f3d908101601f191682019092526142839181019061527e565b60015b6142ae57604051634c9c8ce360e01b81526001600160a01b0383166004820152602401610d01565b60008051602061531083398151915281146142df57604051632a87526960e21b815260048101829052602401610d01565b6122158383614a36565b306001600160a01b037f000000000000000000000000000000000000000000000000000000000000000016146118bd5760405163703e46dd60e11b815260040160405180910390fd5b6001600160a01b0383166000908152600f602090815260408083206010909252909120600381015460ff168061436a57506001810154155b15614376575050505050565b60008260030154836004015461438c919061526b565b905084818111156143df5750604080518681526020810183905282916001600160a01b038916917fb5987aab1afd379f6695f1068869ee8ca6a0d02304c57935a9cc3d3ea2e51e4d910160405180910390a25b80156144bb57808460030160008282546143f991906151f5565b909155505060005460405163a9059cbb60e01b81526001600160a01b039091169063a9059cbb90614430908a908590600401614f4f565b6020604051808303816000875af115801561444f573d6000803e3d6000fd5b505050506040513d601f19601f82011682018060405250810190614473919061524e565b506040805182815260ff871660208201526001600160a01b038916917ff381583145e90b82cc5e529bf4fc4d0e44397174cdf145c4251ac33ef195a424910160405180910390a25b83600401548460030154106144d3576144d387613e8e565b50505050505050565b6001600160a01b038084166000908152600f602052604081205490911690805b6001600160a01b038316158015906145145750601481105b1561464b576001600160a01b0383166000908152600f602052604081206001015461453e90612889565b9150508281111561460c576000614555848361526b565b905060006064614565838a6151de565b61456f9190615208565b6000888152601360209081526040808320815180830183526001600160a01b038c8116808352828601888152845460018082018755958952978790209351600290980290930180546001600160a01b03191697909216969096178155905191015551838152929350909189917fbd5e0947444d5adb46b3d24786f72907c1e8176cb1348960766a6cd6fad13e9f910160405180910390a382945050505b602d811061461a575061464b565b6001600160a01b039384166000908152600f60205260409020549093169281614642816152ad565b925050506144fc565b505050505050565b600080546040516370a0823160e01b815230600482015283916001600160a01b0316906370a0823190602401602060405180830381865afa15801561469c573d6000803e3d6000fd5b505050506040513d601f19601f820116820180604052508101906146c0919061527e565b6146ca919061526b565b6001546040516370a0823160e01b81523060048201529192506000916001600160a01b03909116906370a0823190602401602060405180830381865afa158015614718573d6000803e3d6000fd5b505050506040513d601f19601f8201168201806040525081019061473c919061527e565b905060008211801561474e5750600081115b15612215576000614760848484610e1c565b9050801561480157600154604051630852cd8d60e31b8152600481018390526001600160a01b03909116906342966c6890602401600060405180830381600087803b1580156147ae57600080fd5b505af11580156147c2573d6000803e3d6000fd5b505060408051878152602081018590527f0ec3929061cbbbeecb325623e7d5a86c3dae11cb8a22ca45dc0972955657da25935001905060405180910390a15b50505050565b7f9016d09d72d40fdae2fd8ceac6b6234c7706214fd39c1cd1e609a0528c19930080546001600160a01b031981166001600160a01b03848116918217845560405192169182907f8be0079c531659141344cd1fd0a4f28419497f9722a3daafe3b4186f6b6457e090600090a3505050565b600081815260136020908152604080832080548251818502810185019093528083529192909190849084015b828210156148ec576000848152602090819020604080518082019091526002850290910180546001600160a01b031682526001908101548284015290835290920191016148a4565b50505050905060005b81518110156149ca5761494482828151811061491357614913615297565b60200260200101516000015183838151811061493157614931615297565b6020026020010151602001516003614332565b81818151811061495657614956615297565b6020026020010151600001516001600160a01b0316837f380d782ec118e5171a4d1e7081db076c4c94ca49c623d531763d402b094b4f2484848151811061499f5761499f615297565b6020026020010151602001516040516149ba91815260200190565b60405180910390a36001016148f5565b506000828152601360205260408120611e5c91614c7a565b6000807ff0c57e16840df040f15088dc2f81fe391c3923bec73e23a9662efc9c229c6a005b92915050565b614a15614a8c565b61124b81614ab1565b614a26614a8c565b6118bd614ab9565b6118bd614a8c565b614a3f82614ac1565b6040516001600160a01b038316907fbc7cd75a20ee27fd9adebab32041f755214dbc6bffa90cc0225b39da2e5c2d3b90600090a2805115614a84576122158282614b26565b611e5c614b9c565b614a94614bbb565b6118bd57604051631afcd79f60e31b815260040160405180910390fd5b613db4614a8c565b613e7a614a8c565b806001600160a01b03163b600003614af757604051634c9c8ce360e01b81526001600160a01b0382166004820152602401610d01565b60008051602061531083398151915280546001600160a01b0319166001600160a01b0392909216919091179055565b6060600080846001600160a01b031684604051614b4391906152f3565b600060405180830381855af49150503d8060008114614b7e576040519150601f19603f3d011682016040523d82523d6000602084013e614b83565b606091505b5091509150614b93858383614bd5565b95945050505050565b34156118bd5760405163b398979f60e01b815260040160405180910390fd5b6000614bc56149e2565b54600160401b900460ff16919050565b606082614bea57614be582614c31565b610eed565b8151158015614c0157506001600160a01b0384163b155b15614c2a57604051639996b31560e01b81526001600160a01b0385166004820152602401610d01565b5080610eed565b805115614c4057805160208201fd5b60405163d6bda27560e01b815260040160405180910390fd5b508054600082556003029060005260206000209081019061124b9190614c9b565b508054600082556002029060005260206000209081019061124b9190614cc1565b5b80821115614cbd576000808255600182018190556002820155600301614c9c565b5090565b5b80821115614cbd5780546001600160a01b031916815560006001820155600201614cc2565b801515811461124b57600080fd5b600060208284031215614d0757600080fd5b8135610eed81614ce7565b80356001600160a01b0381168114614d2957600080fd5b919050565b600060208284031215614d4057600080fd5b610eed82614d12565b600080600060608486031215614d5e57600080fd5b505081359360208301359350604090920135919050565b60008060408385031215614d8857600080fd5b614d9183614d12565b946020939093013593505050565b600060208284031215614db157600080fd5b5035919050565b60008060408385031215614dcb57600080fd5b50508035926020909101359150565b634e487b7160e01b600052604160045260246000fd5b6040516060810167ffffffffffffffff81118282101715614e1357614e13614dda565b60405290565b604051601f8201601f1916810167ffffffffffffffff81118282101715614e4257614e42614dda565b604052919050565b60008060408385031215614e5d57600080fd5b614e6683614d12565b915060208084013567ffffffffffffffff80821115614e8457600080fd5b818601915086601f830112614e9857600080fd5b813581811115614eaa57614eaa614dda565b614ebc601f8201601f19168501614e19565b91508082528784828501011115614ed257600080fd5b80848401858401376000848284010152508093505050509250929050565b60008060408385031215614f0357600080fd5b82359150614f1360208401614d12565b90509250929050565b600080600060608486031215614f3157600080fd5b614f3a84614d12565b95602085013595506040909401359392505050565b6001600160a01b03929092168252602082015260400190565b60008060008060808587031215614f7e57600080fd5b614f8785614d12565b9350614f9560208601614d12565b9250614fa360408601614d12565b9150614fb160608601614d12565b905092959194509250565b60008060408385031215614fcf57600080fd5b614fd883614d12565b9150614f1360208401614d12565b60005b83811015615001578181015183820152602001614fe9565b50506000910152565b6020815260008251806020840152615029816040850160208701614fe6565b601f01601f19169190910160400192915050565b6000602080838503121561505057600080fd5b823567ffffffffffffffff8082111561506857600080fd5b818501915085601f83011261507c57600080fd5b81358181111561508e5761508e614dda565b61509c848260051b01614e19565b818152848101925060609182028401850191888311156150bb57600080fd5b938501935b828510156151055780858a0312156150d85760008081fd5b6150e0614df0565b85358152868601358782015260408087013590820152845293840193928501926150c0565b50979650505050505050565b60008060008060008060c0878903121561512a57600080fd5b61513387614d12565b955061514160208801614d12565b945061514f60408801614d12565b935061515d60608801614d12565b925061516b60808801614d12565b915061517960a08801614d12565b90509295509295509295565b60008060008060008060c0878903121561519e57600080fd5b505084359660208601359650604086013595606081013595506080810135945060a0013592509050565b634e487b7160e01b600052601160045260246000fd5b8082028115828204841417614a0757614a076151c8565b80820180821115614a0757614a076151c8565b60008261522557634e487b7160e01b600052601260045260246000fd5b500490565b6001600160a01b039384168152919092166020820152604081019190915260600190565b60006020828403121561526057600080fd5b8151610eed81614ce7565b81810381811115614a0757614a076151c8565b60006020828403121561529057600080fd5b5051919050565b634e487b7160e01b600052603260045260246000fd5b6000600182016152bf576152bf6151c8565b5060010190565b634e487b7160e01b600052603160045260246000fd5b6000816152eb576152eb6151c8565b506000190190565b60008251615305818460208701614fe6565b919091019291505056fe360894a13ba1a3210667c828492db98dca3e2076cc3735a920a3ca505d382bbc9b779b17422d0df92223018b32b4d1fa46e071723d6817e2486d003becc55f00a26469706673582212202a64ae4c22da28679f562b247279d2e34cb895968481352b58a32a318a9e93ca64736f6c63430008160033",
  "linkReferences": {},
  "deployedLinkReferences": {}
}