{
  "_format": "hh-sol-artifact-1",
  "contractName": "JinbaoProtocol",
  "sourceName": "contracts/JinbaoProtocol.sol",
  "abi": [
    {
      "inputs": [],
      "stateMutability": "nonpayable",
      "type": "constructor"
    },
    {
      "inputs": [
        {
          "internalType": "address",
          "name": "target",
          "type": "address"
        }
      ],
      "name": "AddressEmptyCode",
      "type": "error"
    },
    {
      "inputs": [],
      "name": "AlreadyBound",
      "type": "error"
    },
    {
      "inputs": [],
      "name": "AlreadyExited",
      "type": "error"
    },
    {
      "inputs": [],
      "name": "BatchUpdateSizeMismatch",
      "type": "error"
    },
    {
      "inputs": [
        {
          "internalType": "address",
          "name": "implementation",
          "type": "address"
        }
      ],
      "name": "ERC1967InvalidImplementation",
      "type": "error"
    },
    {
      "inputs": [],
      "name": "ERC1967NonPayable",
      "type": "error"
    },
    {
      "inputs": [],
      "name": "Expired",
      "type": "error"
    },
    {
      "inputs": [],
      "name": "FailedCall",
      "type": "error"
    },
    {
      "inputs": [],
      "name": "InsufficientBalance",
      "type": "error"
    },
    {
      "inputs": [],
      "name": "InvalidAddress",
      "type": "error"
    },
    {
      "inputs": [],
      "name": "InvalidAmount",
      "type": "error"
    },
    {
      "inputs": [],
      "name": "InvalidCycle",
      "type": "error"
    },
    {
      "inputs": [],
      "name": "InvalidFee",
      "type": "error"
    },
    {
      "inputs": [],
      "name": "InvalidInitialization",
      "type": "error"
    },
    {
      "inputs": [],
      "name": "InvalidLevelConfig",
      "type": "error"
    },
    {
      "inputs": [],
      "name": "InvalidRate",
      "type": "error"
    },
    {
      "inputs": [],
      "name": "InvalidTax",
      "type": "error"
    },
    {
      "inputs": [],
      "name": "InvalidTeamCountUpdate",
      "type": "error"
    },
    {
      "inputs": [],
      "name": "LowLiquidity",
      "type": "error"
    },
    {
      "inputs": [],
      "name": "NoRewards",
      "type": "error"
    },
    {
      "inputs": [],
      "name": "NotActive",
      "type": "error"
    },
    {
      "inputs": [],
      "name": "NotInitializing",
      "type": "error"
    },
    {
      "inputs": [],
      "name": "NothingToRedeem",
      "type": "error"
    },
    {
      "inputs": [
        {
          "internalType": "address",
          "name": "owner",
          "type": "address"
        }
      ],
      "name": "OwnableInvalidOwner",
      "type": "error"
    },
    {
      "inputs": [
        {
          "internalType": "address",
          "name": "account",
          "type": "address"
        }
      ],
      "name": "OwnableUnauthorizedAccount",
      "type": "error"
    },
    {
      "inputs": [],
      "name": "RecursionDepthExceeded",
      "type": "error"
    },
    {
      "inputs": [],
      "name": "ReentrancyGuardReentrantCall",
      "type": "error"
    },
    {
      "inputs": [],
      "name": "SelfReference",
      "type": "error"
    },
    {
      "inputs": [],
      "name": "SumNot100",
      "type": "error"
    },
    {
      "inputs": [
        {
          "internalType": "address",
          "name": "user",
          "type": "address"
        },
        {
          "internalType": "uint256",
          "name": "expected",
          "type": "uint256"
        },
        {
          "internalType": "uint256",
          "name": "actual",
          "type": "uint256"
        }
      ],
      "name": "TeamCountMismatch",
      "type": "error"
    },
    {
      "inputs": [],
      "name": "TeamCountOverflow",
      "type": "error"
    },
    {
      "inputs": [],
      "name": "TransferFailed",
      "type": "error"
    },
    {
      "inputs": [],
      "name": "UUPSUnauthorizedCallContext",
      "type": "error"
    },
    {
      "inputs": [
        {
          "internalType": "bytes32",
          "name": "slot",
          "type": "bytes32"
        }
      ],
      "name": "UUPSUnsupportedProxiableUUID",
      "type": "error"
    },
    {
      "inputs": [],
      "name": "Unauthorized",
      "type": "error"
    },
    {
      "anonymous": false,
      "inputs": [
        {
          "indexed": false,
          "internalType": "uint256",
          "name": "usersUpdated",
          "type": "uint256"
        }
      ],
      "name": "BatchTeamCountsUpdated",
      "type": "event"
    },
    {
      "anonymous": false,
      "inputs": [
        {
          "indexed": true,
          "internalType": "address",
          "name": "user",
          "type": "address"
        },
        {
          "indexed": true,
          "internalType": "address",
          "name": "referrer",
          "type": "address"
        }
      ],
      "name": "BoundReferrer",
      "type": "event"
    },
    {
      "anonymous": false,
      "inputs": [
        {
          "indexed": false,
          "internalType": "uint256",
          "name": "mcAmount",
          "type": "uint256"
        },
        {
          "indexed": false,
          "internalType": "uint256",
          "name": "jbcBurned",
          "type": "uint256"
        }
      ],
      "name": "BuybackAndBurn",
      "type": "event"
    },
    {
      "anonymous": false,
      "inputs": [
        {
          "indexed": true,
          "internalType": "uint256",
          "name": "stakeId",
          "type": "uint256"
        },
        {
          "indexed": true,
          "internalType": "address",
          "name": "upline",
          "type": "address"
        },
        {
          "indexed": false,
          "internalType": "uint256",
          "name": "amount",
          "type": "uint256"
        }
      ],
      "name": "DifferentialRewardRecorded",
      "type": "event"
    },
    {
      "anonymous": false,
      "inputs": [
        {
          "indexed": true,
          "internalType": "uint256",
          "name": "stakeId",
          "type": "uint256"
        },
        {
          "indexed": true,
          "internalType": "address",
          "name": "upline",
          "type": "address"
        },
        {
          "indexed": false,
          "internalType": "uint256",
          "name": "amount",
          "type": "uint256"
        }
      ],
      "name": "DifferentialRewardReleased",
      "type": "event"
    },
    {
      "anonymous": false,
      "inputs": [
        {
          "indexed": false,
          "internalType": "uint256",
          "name": "direct",
          "type": "uint256"
        },
        {
          "indexed": false,
          "internalType": "uint256",
          "name": "level",
          "type": "uint256"
        },
        {
          "indexed": false,
          "internalType": "uint256",
          "name": "marketing",
          "type": "uint256"
        },
        {
          "indexed": false,
          "internalType": "uint256",
          "name": "buyback",
          "type": "uint256"
        },
        {
          "indexed": false,
          "internalType": "uint256",
          "name": "lpInjection",
          "type": "uint256"
        },
        {
          "indexed": false,
          "internalType": "uint256",
          "name": "treasury",
          "type": "uint256"
        }
      ],
      "name": "DistributionConfigUpdated",
      "type": "event"
    },
    {
      "anonymous": false,
      "inputs": [],
      "name": "EmergencyPaused",
      "type": "event"
    },
    {
      "anonymous": false,
      "inputs": [],
      "name": "EmergencyUnpaused",
      "type": "event"
    },
    {
      "anonymous": false,
      "inputs": [
        {
          "indexed": true,
          "internalType": "address",
          "name": "user",
          "type": "address"
        },
        {
          "indexed": false,
          "internalType": "uint256",
          "name": "ticketId",
          "type": "uint256"
        }
      ],
      "name": "Exited",
      "type": "event"
    },
    {
      "anonymous": false,
      "inputs": [
        {
          "indexed": true,
          "internalType": "address",
          "name": "user",
          "type": "address"
        },
        {
          "indexed": false,
          "internalType": "uint256",
          "name": "amount",
          "type": "uint256"
        }
      ],
      "name": "FeeRefunded",
      "type": "event"
    },
    {
      "anonymous": false,
      "inputs": [
        {
          "indexed": false,
          "internalType": "uint64",
          "name": "version",
          "type": "uint64"
        }
      ],
      "name": "Initialized",
      "type": "event"
    },
    {
      "anonymous": false,
      "inputs": [],
      "name": "LevelConfigsUpdated",
      "type": "event"
    },
    {
      "anonymous": false,
      "inputs": [
        {
          "indexed": false,
          "internalType": "uint256",
          "name": "amount",
          "type": "uint256"
        },
        {
          "indexed": false,
          "internalType": "uint256",
          "name": "newTotal",
          "type": "uint256"
        }
      ],
      "name": "LevelRewardPoolUpdated",
      "type": "event"
    },
    {
      "anonymous": false,
      "inputs": [
        {
          "indexed": true,
          "internalType": "address",
          "name": "to",
          "type": "address"
        },
        {
          "indexed": false,
          "internalType": "uint256",
          "name": "amount",
          "type": "uint256"
        }
      ],
      "name": "LevelRewardPoolWithdrawn",
      "type": "event"
    },
    {
      "anonymous": false,
      "inputs": [
        {
          "indexed": true,
          "internalType": "uint256",
          "name": "ticketId",
          "type": "uint256"
        },
        {
          "indexed": true,
          "internalType": "address",
          "name": "upline",
          "type": "address"
        },
        {
          "indexed": false,
          "internalType": "uint256",
          "name": "amount",
          "type": "uint256"
        }
      ],
      "name": "LevelRewardRecorded",
      "type": "event"
    },
    {
      "anonymous": false,
      "inputs": [
        {
          "indexed": true,
          "internalType": "uint256",
          "name": "ticketId",
          "type": "uint256"
        },
        {
          "indexed": true,
          "internalType": "address",
          "name": "upline",
          "type": "address"
        },
        {
          "indexed": false,
          "internalType": "uint256",
          "name": "amount",
          "type": "uint256"
        }
      ],
      "name": "LevelRewardReleased",
      "type": "event"
    },
    {
      "anonymous": false,
      "inputs": [
        {
          "indexed": false,
          "internalType": "uint256",
          "name": "mcAmount",
          "type": "uint256"
        },
        {
          "indexed": false,
          "internalType": "uint256",
          "name": "jbcAmount",
          "type": "uint256"
        }
      ],
      "name": "LiquidityAdded",
      "type": "event"
    },
    {
      "anonymous": false,
      "inputs": [
        {
          "indexed": true,
          "internalType": "address",
          "name": "user",
          "type": "address"
        },
        {
          "indexed": false,
          "internalType": "uint256",
          "name": "amount",
          "type": "uint256"
        },
        {
          "indexed": false,
          "internalType": "uint256",
          "name": "cycleDays",
          "type": "uint256"
        },
        {
          "indexed": false,
          "internalType": "uint256",
          "name": "stakeId",
          "type": "uint256"
        }
      ],
      "name": "LiquidityStaked",
      "type": "event"
    },
    {
      "anonymous": false,
      "inputs": [
        {
          "indexed": false,
          "internalType": "bool",
          "name": "enabled",
          "type": "bool"
        }
      ],
      "name": "LiquidityStatusUpdated",
      "type": "event"
    },
    {
      "anonymous": false,
      "inputs": [
        {
          "indexed": true,
          "internalType": "address",
          "name": "previousOwner",
          "type": "address"
        },
        {
          "indexed": true,
          "internalType": "address",
          "name": "newOwner",
          "type": "address"
        }
      ],
      "name": "OwnershipTransferred",
      "type": "event"
    },
    {
      "anonymous": false,
      "inputs": [
        {
          "indexed": false,
          "internalType": "bool",
          "name": "enabled",
          "type": "bool"
        }
      ],
      "name": "RedeemStatusUpdated",
      "type": "event"
    },
    {
      "anonymous": false,
      "inputs": [
        {
          "indexed": true,
          "internalType": "address",
          "name": "user",
          "type": "address"
        },
        {
          "indexed": false,
          "internalType": "uint256",
          "name": "principal",
          "type": "uint256"
        },
        {
          "indexed": false,
          "internalType": "uint256",
          "name": "fee",
          "type": "uint256"
        }
      ],
      "name": "Redeemed",
      "type": "event"
    },
    {
      "anonymous": false,
      "inputs": [
        {
          "indexed": false,
          "internalType": "uint256",
          "name": "newFee",
          "type": "uint256"
        }
      ],
      "name": "RedemptionFeeUpdated",
      "type": "event"
    },
    {
      "anonymous": false,
      "inputs": [
        {
          "indexed": true,
          "internalType": "address",
          "name": "user",
          "type": "address"
        },
        {
          "indexed": true,
          "internalType": "address",
          "name": "from",
          "type": "address"
        },
        {
          "indexed": false,
          "internalType": "uint256",
          "name": "mcAmount",
          "type": "uint256"
        },
        {
          "indexed": false,
          "internalType": "uint8",
          "name": "rewardType",
          "type": "uint8"
        },
        {
          "indexed": false,
          "internalType": "uint256",
          "name": "ticketId",
          "type": "uint256"
        }
      ],
      "name": "ReferralRewardPaid",
      "type": "event"
    },
    {
      "anonymous": false,
      "inputs": [
        {
          "indexed": true,
          "internalType": "address",
          "name": "user",
          "type": "address"
        },
        {
          "indexed": true,
          "internalType": "address",
          "name": "oldReferrer",
          "type": "address"
        },
        {
          "indexed": true,
          "internalType": "address",
          "name": "newReferrer",
          "type": "address"
        }
      ],
      "name": "ReferrerChanged",
      "type": "event"
    },
    {
      "anonymous": false,
      "inputs": [
        {
          "indexed": true,
          "internalType": "address",
          "name": "user",
          "type": "address"
        },
        {
          "indexed": false,
          "internalType": "uint256",
          "name": "amount",
          "type": "uint256"
        },
        {
          "indexed": false,
          "internalType": "uint256",
          "name": "cappedAmount",
          "type": "uint256"
        }
      ],
      "name": "RewardCapped",
      "type": "event"
    },
    {
      "anonymous": false,
      "inputs": [
        {
          "indexed": true,
          "internalType": "address",
          "name": "user",
          "type": "address"
        },
        {
          "indexed": false,
          "internalType": "uint256",
          "name": "mcAmount",
          "type": "uint256"
        },
        {
          "indexed": false,
          "internalType": "uint256",
          "name": "jbcAmount",
          "type": "uint256"
        },
        {
          "indexed": false,
          "internalType": "uint8",
          "name": "rewardType",
          "type": "uint8"
        },
        {
          "indexed": false,
          "internalType": "uint256",
          "name": "ticketId",
          "type": "uint256"
        }
      ],
      "name": "RewardClaimed",
      "type": "event"
    },
    {
      "anonymous": false,
      "inputs": [
        {
          "indexed": true,
          "internalType": "address",
          "name": "user",
          "type": "address"
        },
        {
          "indexed": false,
          "internalType": "uint256",
          "name": "amount",
          "type": "uint256"
        },
        {
          "indexed": false,
          "internalType": "uint8",
          "name": "rewardType",
          "type": "uint8"
        }
      ],
      "name": "RewardPaid",
      "type": "event"
    },
    {
      "anonymous": false,
      "inputs": [
        {
          "indexed": false,
          "internalType": "uint256",
          "name": "mcAmount",
          "type": "uint256"
        },
        {
          "indexed": false,
          "internalType": "uint256",
          "name": "jbcAmount",
          "type": "uint256"
        }
      ],
      "name": "SwapReservesWithdrawn",
      "type": "event"
    },
    {
      "anonymous": false,
      "inputs": [
        {
          "indexed": false,
          "internalType": "uint256",
          "name": "buyTax",
          "type": "uint256"
        },
        {
          "indexed": false,
          "internalType": "uint256",
          "name": "sellTax",
          "type": "uint256"
        }
      ],
      "name": "SwapTaxesUpdated",
      "type": "event"
    },
    {
      "anonymous": false,
      "inputs": [
        {
          "indexed": true,
          "internalType": "address",
          "name": "user",
          "type": "address"
        },
        {
          "indexed": false,
          "internalType": "uint256",
          "name": "jbcAmount",
          "type": "uint256"
        },
        {
          "indexed": false,
          "internalType": "uint256",
          "name": "mcAmount",
          "type": "uint256"
        },
        {
          "indexed": false,
          "internalType": "uint256",
          "name": "tax",
          "type": "uint256"
        }
      ],
      "name": "SwappedJBCToMC",
      "type": "event"
    },
    {
      "anonymous": false,
      "inputs": [
        {
          "indexed": true,
          "internalType": "address",
          "name": "user",
          "type": "address"
        },
        {
          "indexed": false,
          "internalType": "uint256",
          "name": "mcAmount",
          "type": "uint256"
        },
        {
          "indexed": false,
          "internalType": "uint256",
          "name": "jbcAmount",
          "type": "uint256"
        },
        {
          "indexed": false,
          "internalType": "uint256",
          "name": "tax",
          "type": "uint256"
        }
      ],
      "name": "SwappedMCToJBC",
      "type": "event"
    },
    {
      "anonymous": false,
      "inputs": [
        {
          "indexed": true,
          "internalType": "uint256",
          "name": "stakeId",
          "type": "uint256"
        },
        {
          "indexed": true,
          "internalType": "address",
          "name": "upline",
          "type": "address"
        },
        {
          "indexed": false,
          "internalType": "uint256",
          "name": "amount",
          "type": "uint256"
        },
        {
          "indexed": false,
          "internalType": "uint256",
          "name": "teamCount",
          "type": "uint256"
        }
      ],
      "name": "TeamBasedRewardCalculated",
      "type": "event"
    },
    {
      "anonymous": false,
      "inputs": [
        {
          "indexed": true,
          "internalType": "address",
          "name": "user",
          "type": "address"
        },
        {
          "indexed": false,
          "internalType": "uint256",
          "name": "oldCount",
          "type": "uint256"
        },
        {
          "indexed": false,
          "internalType": "uint256",
          "name": "newCount",
          "type": "uint256"
        }
      ],
      "name": "TeamCountUpdated",
      "type": "event"
    },
    {
      "anonymous": false,
      "inputs": [
        {
          "indexed": true,
          "internalType": "address",
          "name": "user",
          "type": "address"
        },
        {
          "indexed": false,
          "internalType": "uint256",
          "name": "expected",
          "type": "uint256"
        },
        {
          "indexed": false,
          "internalType": "uint256",
          "name": "actual",
          "type": "uint256"
        }
      ],
      "name": "TeamCountValidationFailed",
      "type": "event"
    },
    {
      "anonymous": false,
      "inputs": [
        {
          "indexed": true,
          "internalType": "address",
          "name": "user",
          "type": "address"
        },
        {
          "indexed": false,
          "internalType": "uint256",
          "name": "ticketId",
          "type": "uint256"
        },
        {
          "indexed": false,
          "internalType": "uint256",
          "name": "amount",
          "type": "uint256"
        }
      ],
      "name": "TicketExpired",
      "type": "event"
    },
    {
      "anonymous": false,
      "inputs": [
        {
          "indexed": false,
          "internalType": "uint256",
          "name": "newDuration",
          "type": "uint256"
        }
      ],
      "name": "TicketFlexibilityDurationUpdated",
      "type": "event"
    },
    {
      "anonymous": false,
      "inputs": [
        {
          "indexed": true,
          "internalType": "address",
          "name": "user",
          "type": "address"
        },
        {
          "indexed": false,
          "internalType": "uint256",
          "name": "amount",
          "type": "uint256"
        },
        {
          "indexed": false,
          "internalType": "uint256",
          "name": "ticketId",
          "type": "uint256"
        }
      ],
      "name": "TicketPurchased",
      "type": "event"
    },
    {
      "anonymous": false,
      "inputs": [
        {
          "indexed": false,
          "internalType": "address",
          "name": "token",
          "type": "address"
        },
        {
          "indexed": false,
          "internalType": "address",
          "name": "to",
          "type": "address"
        },
        {
          "indexed": false,
          "internalType": "uint256",
          "name": "amount",
          "type": "uint256"
        }
      ],
      "name": "TokensRescued",
      "type": "event"
    },
    {
      "anonymous": false,
      "inputs": [
        {
          "indexed": true,
          "internalType": "address",
          "name": "implementation",
          "type": "address"
        }
      ],
      "name": "Upgraded",
      "type": "event"
    },
    {
      "anonymous": false,
      "inputs": [
        {
          "indexed": true,
          "internalType": "address",
          "name": "user",
          "type": "address"
        },
        {
          "indexed": false,
          "internalType": "uint256",
          "name": "activeDirects",
          "type": "uint256"
        },
        {
          "indexed": false,
          "internalType": "uint256",
          "name": "totalRevenue",
          "type": "uint256"
        },
        {
          "indexed": false,
          "internalType": "uint256",
          "name": "currentCap",
          "type": "uint256"
        },
        {
          "indexed": false,
          "internalType": "uint256",
          "name": "refundFee",
          "type": "uint256"
        }
      ],
      "name": "UserDataUpdated",
      "type": "event"
    },
    {
      "anonymous": false,
      "inputs": [
        {
          "indexed": false,
          "internalType": "address",
          "name": "marketing",
          "type": "address"
        },
        {
          "indexed": false,
          "internalType": "address",
          "name": "treasury",
          "type": "address"
        },
        {
          "indexed": false,
          "internalType": "address",
          "name": "lpInjection",
          "type": "address"
        },
        {
          "indexed": false,
          "internalType": "address",
          "name": "buyback",
          "type": "address"
        }
      ],
      "name": "WalletsUpdated",
      "type": "event"
    },
    {
      "inputs": [],
      "name": "MAX_PRICE_IMPACT",
      "outputs": [
        {
          "internalType": "uint256",
          "name": "",
          "type": "uint256"
        }
      ],
      "stateMutability": "view",
      "type": "function"
    },
    {
      "inputs": [],
      "name": "MIN_LIQUIDITY",
      "outputs": [
        {
          "internalType": "uint256",
          "name": "",
          "type": "uint256"
        }
      ],
      "stateMutability": "view",
      "type": "function"
    },
    {
      "inputs": [],
      "name": "REWARD_DIFFERENTIAL",
      "outputs": [
        {
          "internalType": "uint8",
          "name": "",
          "type": "uint8"
        }
      ],
      "stateMutability": "view",
      "type": "function"
    },
    {
      "inputs": [],
      "name": "REWARD_DIRECT",
      "outputs": [
        {
          "internalType": "uint8",
          "name": "",
          "type": "uint8"
        }
      ],
      "stateMutability": "view",
      "type": "function"
    },
    {
      "inputs": [],
      "name": "REWARD_DYNAMIC",
      "outputs": [
        {
          "internalType": "uint8",
          "name": "",
          "type": "uint8"
        }
      ],
      "stateMutability": "view",
      "type": "function"
    },
    {
      "inputs": [],
      "name": "REWARD_LEVEL",
      "outputs": [
        {
          "internalType": "uint8",
          "name": "",
          "type": "uint8"
        }
      ],
      "stateMutability": "view",
      "type": "function"
    },
    {
      "inputs": [],
      "name": "REWARD_STATIC",
      "outputs": [
        {
          "internalType": "uint8",
          "name": "",
          "type": "uint8"
        }
      ],
      "stateMutability": "view",
      "type": "function"
    },
    {
      "inputs": [],
      "name": "SECONDS_IN_UNIT",
      "outputs": [
        {
          "internalType": "uint256",
          "name": "",
          "type": "uint256"
        }
      ],
      "stateMutability": "view",
      "type": "function"
    },
    {
      "inputs": [],
      "name": "UPGRADE_INTERFACE_VERSION",
      "outputs": [
        {
          "internalType": "string",
          "name": "",
          "type": "string"
        }
      ],
      "stateMutability": "view",
      "type": "function"
    },
    {
      "inputs": [
        {
          "internalType": "uint256",
          "name": "mcAmount",
          "type": "uint256"
        },
        {
          "internalType": "uint256",
          "name": "jbcAmount",
          "type": "uint256"
        }
      ],
      "name": "addLiquidity",
      "outputs": [],
      "stateMutability": "nonpayable",
      "type": "function"
    },
    {
      "inputs": [
        {
          "internalType": "address",
          "name": "user",
          "type": "address"
        },
        {
          "internalType": "address",
          "name": "newReferrer",
          "type": "address"
        }
      ],
      "name": "adminSetReferrer",
      "outputs": [],
      "stateMutability": "nonpayable",
      "type": "function"
    },
    {
      "inputs": [
        {
          "internalType": "address",
          "name": "user",
          "type": "address"
        },
        {
          "internalType": "bool",
          "name": "updateActiveDirects",
          "type": "bool"
        },
        {
          "internalType": "uint256",
          "name": "newActiveDirects",
          "type": "uint256"
        },
        {
          "internalType": "bool",
          "name": "updateTotalRevenue",
          "type": "bool"
        },
        {
          "internalType": "uint256",
          "name": "newTotalRevenue",
          "type": "uint256"
        },
        {
          "internalType": "bool",
          "name": "updateCurrentCap",
          "type": "bool"
        },
        {
          "internalType": "uint256",
          "name": "newCurrentCap",
          "type": "uint256"
        },
        {
          "internalType": "bool",
          "name": "updateRefundFee",
          "type": "bool"
        },
        {
          "internalType": "uint256",
          "name": "newRefundFee",
          "type": "uint256"
        }
      ],
      "name": "adminUpdateUserData",
      "outputs": [],
      "stateMutability": "nonpayable",
      "type": "function"
    },
    {
      "inputs": [
        {
          "internalType": "address[]",
          "name": "users",
          "type": "address[]"
        },
        {
          "internalType": "uint256[]",
          "name": "counts",
          "type": "uint256[]"
        },
        {
          "internalType": "uint256[]",
          "name": "volumes",
          "type": "uint256[]"
        }
      ],
      "name": "batchUpdateUserStats",
      "outputs": [],
      "stateMutability": "nonpayable",
      "type": "function"
    },
    {
      "inputs": [
        {
          "internalType": "address",
          "name": "_referrer",
          "type": "address"
        }
      ],
      "name": "bindReferrer",
      "outputs": [],
      "stateMutability": "nonpayable",
      "type": "function"
    },
    {
      "inputs": [
        {
          "internalType": "uint256",
          "name": "amount",
          "type": "uint256"
        }
      ],
      "name": "buyTicket",
      "outputs": [],
      "stateMutability": "nonpayable",
      "type": "function"
    },
    {
      "inputs": [],
      "name": "buybackPercent",
      "outputs": [
        {
          "internalType": "uint256",
          "name": "",
          "type": "uint256"
        }
      ],
      "stateMutability": "view",
      "type": "function"
    },
    {
      "inputs": [],
      "name": "buybackWallet",
      "outputs": [
        {
          "internalType": "address",
          "name": "",
          "type": "address"
        }
      ],
      "stateMutability": "view",
      "type": "function"
    },
    {
      "inputs": [],
      "name": "claimRewards",
      "outputs": [],
      "stateMutability": "nonpayable",
      "type": "function"
    },
    {
      "inputs": [
        {
          "internalType": "address",
          "name": "",
          "type": "address"
        },
        {
          "internalType": "uint256",
          "name": "",
          "type": "uint256"
        }
      ],
      "name": "directReferrals",
      "outputs": [
        {
          "internalType": "address",
          "name": "",
          "type": "address"
        }
      ],
      "stateMutability": "view",
      "type": "function"
    },
    {
      "inputs": [],
      "name": "directRewardPercent",
      "outputs": [
        {
          "internalType": "uint256",
          "name": "",
          "type": "uint256"
        }
      ],
      "stateMutability": "view",
      "type": "function"
    },
    {
      "inputs": [],
      "name": "emergencyPause",
      "outputs": [],
      "stateMutability": "nonpayable",
      "type": "function"
    },
    {
      "inputs": [],
      "name": "emergencyPaused",
      "outputs": [
        {
          "internalType": "bool",
          "name": "",
          "type": "bool"
        }
      ],
      "stateMutability": "view",
      "type": "function"
    },
    {
      "inputs": [],
      "name": "emergencyUnpause",
      "outputs": [],
      "stateMutability": "nonpayable",
      "type": "function"
    },
    {
      "inputs": [
        {
          "internalType": "address",
          "name": "user",
          "type": "address"
        }
      ],
      "name": "getDirectReferrals",
      "outputs": [
        {
          "internalType": "address[]",
          "name": "",
          "type": "address[]"
        }
      ],
      "stateMutability": "view",
      "type": "function"
    },
    {
      "inputs": [
        {
          "internalType": "uint256",
          "name": "activeDirects",
          "type": "uint256"
        }
      ],
      "name": "getLevelRewardLayers",
      "outputs": [
        {
          "internalType": "uint256",
          "name": "",
          "type": "uint256"
        }
      ],
      "stateMutability": "pure",
      "type": "function"
    },
    {
      "inputs": [
        {
          "internalType": "address",
          "name": "_mcToken",
          "type": "address"
        },
        {
          "internalType": "address",
          "name": "_jbcToken",
          "type": "address"
        },
        {
          "internalType": "address",
          "name": "_marketing",
          "type": "address"
        },
        {
          "internalType": "address",
          "name": "_treasury",
          "type": "address"
        },
        {
          "internalType": "address",
          "name": "_lpInjection",
          "type": "address"
        },
        {
          "internalType": "address",
          "name": "_buybackWallet",
          "type": "address"
        }
      ],
      "name": "initialize",
      "outputs": [],
      "stateMutability": "nonpayable",
      "type": "function"
    },
    {
      "inputs": [],
      "name": "jbcToken",
      "outputs": [
        {
          "internalType": "contract IJBC",
          "name": "",
          "type": "address"
        }
      ],
      "stateMutability": "view",
      "type": "function"
    },
    {
      "inputs": [],
      "name": "lastBurnTime",
      "outputs": [
        {
          "internalType": "uint256",
          "name": "",
          "type": "uint256"
        }
      ],
      "stateMutability": "view",
      "type": "function"
    },
    {
      "inputs": [
        {
          "internalType": "uint256",
          "name": "",
          "type": "uint256"
        }
      ],
      "name": "levelConfigs",
      "outputs": [
        {
          "internalType": "uint256",
          "name": "minDirects",
          "type": "uint256"
        },
        {
          "internalType": "uint256",
          "name": "level",
          "type": "uint256"
        },
        {
          "internalType": "uint256",
          "name": "percent",
          "type": "uint256"
        }
      ],
      "stateMutability": "view",
      "type": "function"
    },
    {
      "inputs": [],
      "name": "levelRewardPercent",
      "outputs": [
        {
          "internalType": "uint256",
          "name": "",
          "type": "uint256"
        }
      ],
      "stateMutability": "view",
      "type": "function"
    },
    {
      "inputs": [],
      "name": "levelRewardPool",
      "outputs": [
        {
          "internalType": "uint256",
          "name": "",
          "type": "uint256"
        }
      ],
      "stateMutability": "view",
      "type": "function"
    },
    {
      "inputs": [],
      "name": "liquidityEnabled",
      "outputs": [
        {
          "internalType": "bool",
          "name": "",
          "type": "bool"
        }
      ],
      "stateMutability": "view",
      "type": "function"
    },
    {
      "inputs": [],
      "name": "lpInjectionPercent",
      "outputs": [
        {
          "internalType": "uint256",
          "name": "",
          "type": "uint256"
        }
      ],
      "stateMutability": "view",
      "type": "function"
    },
    {
      "inputs": [],
      "name": "lpInjectionWallet",
      "outputs": [
        {
          "internalType": "address",
          "name": "",
          "type": "address"
        }
      ],
      "stateMutability": "view",
      "type": "function"
    },
    {
      "inputs": [],
      "name": "marketingPercent",
      "outputs": [
        {
          "internalType": "uint256",
          "name": "",
          "type": "uint256"
        }
      ],
      "stateMutability": "view",
      "type": "function"
    },
    {
      "inputs": [],
      "name": "marketingWallet",
      "outputs": [
        {
          "internalType": "address",
          "name": "",
          "type": "address"
        }
      ],
      "stateMutability": "view",
      "type": "function"
    },
    {
      "inputs": [],
      "name": "mcToken",
      "outputs": [
        {
          "internalType": "contract IERC20",
          "name": "",
          "type": "address"
        }
      ],
      "stateMutability": "view",
      "type": "function"
    },
    {
      "inputs": [],
      "name": "nextStakeId",
      "outputs": [
        {
          "internalType": "uint256",
          "name": "",
          "type": "uint256"
        }
      ],
      "stateMutability": "view",
      "type": "function"
    },
    {
      "inputs": [],
      "name": "nextTicketId",
      "outputs": [
        {
          "internalType": "uint256",
          "name": "",
          "type": "uint256"
        }
      ],
      "stateMutability": "view",
      "type": "function"
    },
    {
      "inputs": [],
      "name": "owner",
      "outputs": [
        {
          "internalType": "address",
          "name": "",
          "type": "address"
        }
      ],
      "stateMutability": "view",
      "type": "function"
    },
    {
      "inputs": [],
      "name": "priceOracle",
      "outputs": [
        {
          "internalType": "address",
          "name": "",
          "type": "address"
        }
      ],
      "stateMutability": "view",
      "type": "function"
    },
    {
      "inputs": [],
      "name": "proxiableUUID",
      "outputs": [
        {
          "internalType": "bytes32",
          "name": "",
          "type": "bytes32"
        }
      ],
      "stateMutability": "view",
      "type": "function"
    },
    {
      "inputs": [],
      "name": "redeem",
      "outputs": [],
      "stateMutability": "nonpayable",
      "type": "function"
    },
    {
      "inputs": [],
      "name": "redeemEnabled",
      "outputs": [
        {
          "internalType": "bool",
          "name": "",
          "type": "bool"
        }
      ],
      "stateMutability": "view",
      "type": "function"
    },
    {
      "inputs": [
        {
          "internalType": "uint256",
          "name": "stakeId",
          "type": "uint256"
        }
      ],
      "name": "redeemStake",
      "outputs": [],
      "stateMutability": "nonpayable",
      "type": "function"
    },
    {
      "inputs": [],
      "name": "redemptionFeePercent",
      "outputs": [
        {
          "internalType": "uint256",
          "name": "",
          "type": "uint256"
        }
      ],
      "stateMutability": "view",
      "type": "function"
    },
    {
      "inputs": [],
      "name": "renounceOwnership",
      "outputs": [],
      "stateMutability": "nonpayable",
      "type": "function"
    },
    {
      "inputs": [
        {
          "internalType": "address",
          "name": "_token",
          "type": "address"
        },
        {
          "internalType": "address",
          "name": "_to",
          "type": "address"
        },
        {
          "internalType": "uint256",
          "name": "_amount",
          "type": "uint256"
        }
      ],
      "name": "rescueTokens",
      "outputs": [],
      "stateMutability": "nonpayable",
      "type": "function"
    },
    {
      "inputs": [
        {
          "internalType": "uint256",
          "name": "_direct",
          "type": "uint256"
        },
        {
          "internalType": "uint256",
          "name": "_level",
          "type": "uint256"
        },
        {
          "internalType": "uint256",
          "name": "_marketing",
          "type": "uint256"
        },
        {
          "internalType": "uint256",
          "name": "_buyback",
          "type": "uint256"
        },
        {
          "internalType": "uint256",
          "name": "_lpInjection",
          "type": "uint256"
        },
        {
          "internalType": "uint256",
          "name": "_treasury",
          "type": "uint256"
        }
      ],
      "name": "setDistributionConfig",
      "outputs": [],
      "stateMutability": "nonpayable",
      "type": "function"
    },
    {
      "inputs": [
        {
          "internalType": "bool",
          "name": "_liquidityEnabled",
          "type": "bool"
        },
        {
          "internalType": "bool",
          "name": "_redeemEnabled",
          "type": "bool"
        }
      ],
      "name": "setOperationalStatus",
      "outputs": [],
      "stateMutability": "nonpayable",
      "type": "function"
    },
    {
      "inputs": [
        {
          "internalType": "uint256",
          "name": "_fee",
          "type": "uint256"
        }
      ],
      "name": "setRedemptionFeePercent",
      "outputs": [],
      "stateMutability": "nonpayable",
      "type": "function"
    },
    {
      "inputs": [
        {
          "internalType": "uint256",
          "name": "_buyTax",
          "type": "uint256"
        },
        {
          "internalType": "uint256",
          "name": "_sellTax",
          "type": "uint256"
        }
      ],
      "name": "setSwapTaxes",
      "outputs": [],
      "stateMutability": "nonpayable",
      "type": "function"
    },
    {
      "inputs": [
        {
          "internalType": "uint256",
          "name": "_duration",
          "type": "uint256"
        }
      ],
      "name": "setTicketFlexibilityDuration",
      "outputs": [],
      "stateMutability": "nonpayable",
      "type": "function"
    },
    {
      "inputs": [
        {
          "internalType": "address",
          "name": "_marketing",
          "type": "address"
        },
        {
          "internalType": "address",
          "name": "_treasury",
          "type": "address"
        },
        {
          "internalType": "address",
          "name": "_lpInjection",
          "type": "address"
        },
        {
          "internalType": "address",
          "name": "_buyback",
          "type": "address"
        }
      ],
      "name": "setWallets",
      "outputs": [],
      "stateMutability": "nonpayable",
      "type": "function"
    },
    {
      "inputs": [
        {
          "internalType": "uint256",
          "name": "amount",
          "type": "uint256"
        },
        {
          "internalType": "uint256",
          "name": "cycleDays",
          "type": "uint256"
        }
      ],
      "name": "stakeLiquidity",
      "outputs": [],
      "stateMutability": "nonpayable",
      "type": "function"
    },
    {
      "inputs": [
        {
          "internalType": "uint256",
          "name": "",
          "type": "uint256"
        }
      ],
      "name": "stakeOwner",
      "outputs": [
        {
          "internalType": "address",
          "name": "",
          "type": "address"
        }
      ],
      "stateMutability": "view",
      "type": "function"
    },
    {
      "inputs": [
        {
          "internalType": "uint256",
          "name": "",
          "type": "uint256"
        },
        {
          "internalType": "uint256",
          "name": "",
          "type": "uint256"
        }
      ],
      "name": "stakePendingRewards",
      "outputs": [
        {
          "internalType": "address",
          "name": "upline",
          "type": "address"
        },
        {
          "internalType": "uint256",
          "name": "amount",
          "type": "uint256"
        }
      ],
      "stateMutability": "view",
      "type": "function"
    },
    {
      "inputs": [],
      "name": "swapBuyTax",
      "outputs": [
        {
          "internalType": "uint256",
          "name": "",
          "type": "uint256"
        }
      ],
      "stateMutability": "view",
      "type": "function"
    },
    {
      "inputs": [
        {
          "internalType": "uint256",
          "name": "jbcAmount",
          "type": "uint256"
        }
      ],
      "name": "swapJBCToMC",
      "outputs": [],
      "stateMutability": "nonpayable",
      "type": "function"
    },
    {
      "inputs": [
        {
          "internalType": "uint256",
          "name": "mcAmount",
          "type": "uint256"
        }
      ],
      "name": "swapMCToJBC",
      "outputs": [],
      "stateMutability": "nonpayable",
      "type": "function"
    },
    {
      "inputs": [],
      "name": "swapReserveJBC",
      "outputs": [
        {
          "internalType": "uint256",
          "name": "",
          "type": "uint256"
        }
      ],
      "stateMutability": "view",
      "type": "function"
    },
    {
      "inputs": [],
      "name": "swapReserveMC",
      "outputs": [
        {
          "internalType": "uint256",
          "name": "",
          "type": "uint256"
        }
      ],
      "stateMutability": "view",
      "type": "function"
    },
    {
      "inputs": [],
      "name": "swapSellTax",
      "outputs": [
        {
          "internalType": "uint256",
          "name": "",
          "type": "uint256"
        }
      ],
      "stateMutability": "view",
      "type": "function"
    },
    {
      "inputs": [],
      "name": "ticketFlexibilityDuration",
      "outputs": [
        {
          "internalType": "uint256",
          "name": "",
          "type": "uint256"
        }
      ],
      "stateMutability": "view",
      "type": "function"
    },
    {
      "inputs": [
        {
          "internalType": "uint256",
          "name": "",
          "type": "uint256"
        }
      ],
      "name": "ticketOwner",
      "outputs": [
        {
          "internalType": "address",
          "name": "",
          "type": "address"
        }
      ],
      "stateMutability": "view",
      "type": "function"
    },
    {
      "inputs": [
        {
          "internalType": "uint256",
          "name": "",
          "type": "uint256"
        },
        {
          "internalType": "uint256",
          "name": "",
          "type": "uint256"
        }
      ],
      "name": "ticketPendingRewards",
      "outputs": [
        {
          "internalType": "address",
          "name": "upline",
          "type": "address"
        },
        {
          "internalType": "uint256",
          "name": "amount",
          "type": "uint256"
        }
      ],
      "stateMutability": "view",
      "type": "function"
    },
    {
      "inputs": [
        {
          "internalType": "address",
          "name": "newOwner",
          "type": "address"
        }
      ],
      "name": "transferOwnership",
      "outputs": [],
      "stateMutability": "nonpayable",
      "type": "function"
    },
    {
      "inputs": [],
      "name": "treasuryPercent",
      "outputs": [
        {
          "internalType": "uint256",
          "name": "",
          "type": "uint256"
        }
      ],
      "stateMutability": "view",
      "type": "function"
    },
    {
      "inputs": [],
      "name": "treasuryWallet",
      "outputs": [
        {
          "internalType": "address",
          "name": "",
          "type": "address"
        }
      ],
      "stateMutability": "view",
      "type": "function"
    },
    {
      "inputs": [
        {
          "internalType": "address",
          "name": "newImplementation",
          "type": "address"
        },
        {
          "internalType": "bytes",
          "name": "data",
          "type": "bytes"
        }
      ],
      "name": "upgradeToAndCall",
      "outputs": [],
      "stateMutability": "payable",
      "type": "function"
    },
    {
      "inputs": [
        {
          "internalType": "address",
          "name": "",
          "type": "address"
        }
      ],
      "name": "userInfo",
      "outputs": [
        {
          "internalType": "address",
          "name": "referrer",
          "type": "address"
        },
        {
          "internalType": "uint256",
          "name": "activeDirects",
          "type": "uint256"
        },
        {
          "internalType": "uint256",
          "name": "teamCount",
          "type": "uint256"
        },
        {
          "internalType": "uint256",
          "name": "totalRevenue",
          "type": "uint256"
        },
        {
          "internalType": "uint256",
          "name": "currentCap",
          "type": "uint256"
        },
        {
          "internalType": "bool",
          "name": "isActive",
          "type": "bool"
        },
        {
          "internalType": "uint256",
          "name": "refundFeeAmount",
          "type": "uint256"
        },
        {
          "internalType": "uint256",
          "name": "teamTotalVolume",
          "type": "uint256"
        },
        {
          "internalType": "uint256",
          "name": "teamTotalCap",
          "type": "uint256"
        },
        {
          "internalType": "uint256",
          "name": "maxTicketAmount",
          "type": "uint256"
        },
        {
          "internalType": "uint256",
          "name": "maxSingleTicketAmount",
          "type": "uint256"
        }
      ],
      "stateMutability": "view",
      "type": "function"
    },
    {
      "inputs": [
        {
          "internalType": "address",
          "name": "",
          "type": "address"
        },
        {
          "internalType": "uint256",
          "name": "",
          "type": "uint256"
        }
      ],
      "name": "userStakes",
      "outputs": [
        {
          "internalType": "uint256",
          "name": "id",
          "type": "uint256"
        },
        {
          "internalType": "uint256",
          "name": "amount",
          "type": "uint256"
        },
        {
          "internalType": "uint256",
          "name": "startTime",
          "type": "uint256"
        },
        {
          "internalType": "uint256",
          "name": "cycleDays",
          "type": "uint256"
        },
        {
          "internalType": "bool",
          "name": "active",
          "type": "bool"
        },
        {
          "internalType": "uint256",
          "name": "paid",
          "type": "uint256"
        }
      ],
      "stateMutability": "view",
      "type": "function"
    },
    {
      "inputs": [
        {
          "internalType": "address",
          "name": "",
          "type": "address"
        }
      ],
      "name": "userTicket",
      "outputs": [
        {
          "internalType": "uint256",
          "name": "ticketId",
          "type": "uint256"
        },
        {
          "internalType": "uint256",
          "name": "amount",
          "type": "uint256"
        },
        {
          "internalType": "uint256",
          "name": "purchaseTime",
          "type": "uint256"
        },
        {
          "internalType": "bool",
          "name": "exited",
          "type": "bool"
        }
      ],
      "stateMutability": "view",
      "type": "function"
    },
    {
      "inputs": [
        {
          "internalType": "address",
          "name": "_to",
          "type": "address"
        },
        {
          "internalType": "uint256",
          "name": "_amount",
          "type": "uint256"
        }
      ],
      "name": "withdrawLevelRewardPool",
      "outputs": [],
      "stateMutability": "nonpayable",
      "type": "function"
    },
    {
      "inputs": [
        {
          "internalType": "address",
          "name": "_toMC",
          "type": "address"
        },
        {
          "internalType": "uint256",
          "name": "_amountMC",
          "type": "uint256"
        },
        {
          "internalType": "address",
          "name": "_toJBC",
          "type": "address"
        },
        {
          "internalType": "uint256",
          "name": "_amountJBC",
          "type": "uint256"
        }
      ],
      "name": "withdrawSwapReserves",
      "outputs": [],
      "stateMutability": "nonpayable",
      "type": "function"
    }
  ],
  "bytecode": "0x60a08060405234620000d157306080527ff0c57e16840df040f15088dc2f81fe391c3923bec73e23a9662efc9c229c6a009081549060ff8260401c16620000c257506001600160401b036002600160401b0319828216016200007c575b604051615f5c9081620000d7823960805181818161261401526129f30152f35b6001600160401b031990911681179091556040519081527fc7f505b2f371ae2175ee4913f4499e1f2633a7b5936321eed1cdaeb6115181d290602090a13880806200005c565b63f92ee8a960e01b8152600490fd5b600080fdfe6080604052600436101561001257600080fd5b6000803560e01c806301d62efb14613c0057806304ef9d5814613be257806304f618cb14613a8757806305ad393514613a2c5780630a5c4567146137ce5780630e2be210146137b257806310ff994d146132ab5780631427f6161461328f5780631788513c14613266578063182c84cc1461323f5780631959a0021461318d5780631d0dac761461316f57806321b77d631461314b57806321f483d3146131035780632630c12f146130d657806327c830a9146130b357806327f082f414613095578063372500ab146130745780633dbd46bd146130415780634626402b14613018578063488b5d9714612ffc5780634a4e3bd514612fb25780634ea4c6b314612bab5780634f1ef2861461297857806351858e271461292b57806352778b051461266c57806352d1902d146126015780636031a52f146125e357806367dd74ca14611dae5780636839b5fa14611d915780636dd6682714611d73578063715018a614611d1a57806375506c9614611cfc57806375f0a87414611cd357806377a2a54014611cb5578063813380cd14611c8757806383672f3e14611b565780638710bcaa14611af557806388481b6114611ad957806388fd4d3314611ab05780638a859a8514611a945780638c0eaa4814611a785780638da5cb5b14611a4257806390b0eb51146119f25780639370b080146119d457806395253992146119ad57806399b6024d146118e75780639a5fb0fe146117e35780639cd441da1461169f5780639d99eca414611651578063a2af92261461161e578063ac8f50aa146115c6578063ad3cb1cc14611521578063b048a4bb146114fe578063b5d5b5fa14611470578063b759936b14611452578063bd594dcf14611434578063be040fb014610cd2578063c2ff12fc14610c9f578063cc2a9a5b14610a8c578063ccf6194414610a6e578063cea9d26f14610904578063ceaa366d146108e6578063d0f164701461085c578063d2c8e0e5146107ad578063d2f8253614610787578063d4f0014214610600578063d7edbc0c14610474578063d8020a1814610456578063deab8aea1461042d578063dec7fa3b1461040f578063e3067449146103f1578063e4412f68146103d3578063ece71266146103855763f2fde38b1461035657600080fd5b346103825760203660031901126103825761037f610372613cb5565b61037a61497f565b61491d565b80f35b80fd5b5034610382576020366003190112610382577fc7f6975dcffc536e6e57dd1d1dea810fff534a70563baf2d6f977b119bd00e1b60206004356103c561497f565b80600c55604051908152a180f35b50346103825780600319360112610382576020600954604051908152f35b50346103825780600319360112610382576020601b54604051908152f35b50346103825780600319360112610382576020600c54604051908152f35b50346103825780600319360112610382576005546040516001600160a01b039091168152602090f35b50346103825780600319360112610382576020600854604051908152f35b5034610382576060366003190112610382576001600160401b03906004358281116105fc576104a7903690600401613e0b565b90926024358181116105f8576104c1903690600401613e0b565b90916044359081116105f4576104db903690600401613e0b565b90926104e561497f565b8285148015906105ea575b6105d857855b85811061052c57867f9c03d1f6ba485b6cf0a120117d651729467751d3079318d05171b6f389f6bf4b602088604051908152a180f35b8087600080516020615de7833981519152604088816105b961057b8f988e60019a898f8f8f90610561876105979481946148f9565b6001600160a01b039b90358c61058061057b868b8b6148f9565b614909565b1686526002600f9c8d9760209e8f522001556148f9565b3590886105a861057b8787876148f9565b168c5287526007898c2001556148f9565b906105c5878c8b6148f9565b359084519687528601521692a2016104f6565b60405163980a3f3160e01b8152600490fd5b50818514156104f0565b8480fd5b8380fd5b5080fd5b50346103825760803660031901126103825761061a613cb5565b60243590610626613ce1565b826064359261063361497f565b81610709575b505081610663575b50600080516020615e478339815191529160409182519182526020820152a180f35b916020826106a39461067782601854613f4f565b60185560018060a01b0360015416908760405180988195829463a9059cbb60e01b845260048401613dd4565b03925af19182156106fe57600080516020615e47833981519152936040936106cf575b50915091610641565b6106f09060203d6020116106f7575b6106e88183613d7a565b810190613ebf565b50386106c6565b503d6106de565b6040513d86823e3d90fd5b8160209161071c61074794601754613f4f565b60175560018060a01b03885416908860405180968195829463a9059cbb60e01b845260048401613dd4565b03925af1801561077c5761075d575b8390610639565b6107759060203d6020116106f7576106e88183613d7a565b5038610756565b6040513d87823e3d90fd5b5034610382578060031936011261038257602060ff60165460081c166040519015158152f35b50346103825760209081600319360112610382576001600160a01b039190826107d4613cb5565b168152601282526040812090604051808484549182815201908194845285842090845b818110610846575050508161080d910382613d7a565b6040519380850191818652518092526040850193925b8281106108305785850386f35b8351871685529381019392810192600101610823565b82548916845292870192600192830192016107f7565b50346103825760c0366003190112610382577f66682b276e4cd1a4e1f68b55b1143766c5332f472eb593cf2a70a25d9d5d991760c060043560a4356084356064356044356024356108ab61497f565b8560065580600755816008558260095583600a5584600b55604051958652602086015260408501526060840152608083015260a0820152a180f35b50346103825780600319360112610382576020600a54604051908152f35b50346103825760603660031901126103825761091e613cb5565b610926613ccb565b6044359161093261497f565b83546001600160a01b038281169491811685141580610a60575b15610a1b578316156109e2576020604051809563a9059cbb60e01b825281888161097a878a60048401613dd4565b03925af190811561077c577f77023e19c7343ad491fd706c36335ca0e738340a91f29b1fd81e2673d44896c4946109bd926109c3575b5060405193849384613ed7565b0390a180f35b6109db9060203d6020116106f7576106e88183613d7a565b50386109b0565b60405162461bcd60e51b8152602060048201526011602482015270125b9d985b1a59081c9958da5c1a595b9d607a1b6044820152606490fd5b60405162461bcd60e51b815260206004820152601d60248201527f43616e6e6f74207265736375652070726f746f636f6c20746f6b656e730000006044820152606490fd5b50806001541685141561094c565b50346103825780600319360112610382576020600654604051908152f35b50346103825760c036600319011261038257610aa6613cb5565b610aae613ccb565b610ab6613ce1565b610abe613cf7565b916001600160a01b0360843581811690819003610c9a5760a43592828416809403610c9a57600080516020615f0783398151915295865460ff8160401c16159660018060401b038216998a1580610c93575b6001809c149081610c89575b159081610c80575b50610c6e576001600160401b031983168b178a558694859384928e918c610c53575b50610b4f615cd4565b610b57615cd4565b610b603361491d565b610b68615cd4565b610b70615cd4565b610b78615cd4565b8d600080516020615ec78339815191525560018060a01b0319998a9116915416178d5516868b5416178a55168460025416176002551682600354161760035581600454161760045560055416176005556019600655600f600755600560085560056009556019600a556019600b5582600c556032600d556019600e556203f48060155561010161ffff19601654161760165542601b55610c16578280f35b805460ff60401b191690556040519081527fc7f505b2f371ae2175ee4913f4499e1f2633a7b5936321eed1cdaeb6115181d290602090a138808280f35b6001600160481b0319166001600160401b01178d5538610b46565b60405163f92ee8a960e01b8152600490fd5b90501538610b24565b303b159150610b1c565b5088610b10565b600080fd5b5034610382576020366003190112610382576020906004358152601c8252604060018060a01b0391205416604051908152f35b5034610382578060031936011261038257610ceb6149b8565b60ff610cfe60ff60165460081c16613f5c565b33825260119160206011815260408220938283908492855b8854811015610f8c57876004610d2c838c613def565b5001541615610f84576002610d41828b613def565b500154610d4e828b613def565b509060038092015490603c91828102928184041490151715610f70578b9291610d7691613f22565b421015610d8a575b50506001905b01610d16565b90958895929495600783610d9e888b613def565b50015403610f175750633b9aca00610de362cb7356935b610dcf610dc2898c613def565b5095600180970154613ef9565b90610dda898c613def565b50015490613ef9565b04908991610df1878a613def565b508760059a8b809301548411610eef575b5050505081610e1091613f22565b96610e1b868d613def565b500190815490610e2a91613f22565b9055338852600f87526040882060090154918a828a878b8715600198610e9298610e6d95606494610e6694610ed9575b505050600c5490613ef9565b0493613def565b50015481811115610ec65790610e8681610e8c93613f4f565b92613f22565b95613f22565b926004610e9f828c613def565b5001805460ff19169055610ebd610eb6828c613def565b5054614d47565b90508838610d7e565b9050610ed191613f22565b948890613f22565b6040929350601090522001548f8f908791610e5a565b610e10949550610f0d939291610f0491613def565b50015490613f4f565b919088878e610e02565b600f83610f24888b613def565b50015403610f3f5750633b9aca00610de362fe502b93610db5565b91601e81610f4d888b613def565b50015414610f64575b610de3633b9aca0091610db5565b6301312d009250610f56565b634e487b7160e01b8a52600485905260248afd5b600190610d84565b50509092918115908115809261142b575b156113f257846113de575b80611081575b5061101a575b600f9260405191825282820152600080516020615ee783398151915260403392a2610fde33614edb565b338352526040812060046003820154910154111561100c575b6001600080516020615ec78339815191525580f35b61101533614f8c565b610ff7565b835460405163a9059cbb60e01b81529390839085906001600160a01b0316818881611049883360048401613dd4565b03925af193841561077c57600f94611064575b509250610fb4565b61107a90843d86116106f7576106e88183613d7a565b508561105c565b338652600f845261109f604087206003600482015491015490613f4f565b8082116113b8575b508015610fae57338652600f8452600360408720016110c7828254613f22565b905585546040516370a0823160e01b808252306004830152889390926001600160a01b0392600183901c918416908981602481855afa80156113ad5783918d9161137c575b50101580611373575b61130f575b50601854801580156112fb575b156112ba5750670de0b6b3a7640000905b670de0b6b3a7640000908181029181830414901517156112a6579061115c91613f2f565b899260015416936040519081523060048201528881602481885afa801561129b5782918c9161126a575b50101580611261575b6111ed575b50600080516020615da78339815191529250604051908152600087820152600080516020615ea783398151915260403392a2338852601086526040882054906111e4604051928392339684613fc3565b0390a285610fae565b90915086604051809463a9059cbb60e01b8252818c81611211873360048401613dd4565b03925af192831561125657600080516020615da783398151915293611239575b509089611194565b61124f90883d8a116106f7576106e88183613d7a565b5089611231565b6040513d8b823e3d90fd5b5080151561118f565b8092508a8092503d8311611294575b6112838183613d7a565b81010312610c9a578190518c611186565b503d611279565b6040513d8d823e3d90fd5b634e487b7160e01b8b52601160045260248bfd5b601754670de0b6b3a7640000908181029181830414901517156112e757906112e191613f2f565b90611138565b634e487b7160e01b8c52601160045260248cfd5b50683635c9adc5dea0000060175410611127565b60405163a9059cbb60e01b815291955088908290818d816113348b3360048401613dd4565b03925af180156113685761134b575b50838a61111a565b61136190883d8a116106f7576106e88183613d7a565b5089611343565b6040513d8c823e3d90fd5b50811515611115565b8092508b8092503d83116113a6575b6113958183613d7a565b81010312610c9a578290518d61110c565b503d61138b565b6040513d8e823e3d90fd5b906040519081528185820152600080516020615e2783398151915260403392a2866110a7565b6113ea85601754613f22565b601755610fa8565b60405162461bcd60e51b81526004810185905260116024820152704e6f7468696e6720746f2072656465656d60781b6044820152606490fd5b50801515610f9d565b50346103825780600319360112610382576020600754604051908152f35b50346103825780600319360112610382576020601f54604051908152f35b50346103825760403660031901126103825761148a613cb5565b6001600160a01b03168152601160205260408120805460243592908310156103825760c06114b88484613def565b508054906001810154906002810154600382015490600560ff600485015416930154936040519586526020860152604085015260608401521515608083015260a0820152f35b5034610382578060031936011261038257602060ff601654166040519015158152f35b5034610382578060031936011261038257604080519081016001600160401b038111828210176115b05760405260058152602091640352e302e360dc1b602083015260405192839160208352835191826020850152815b83811061159957505060408094508284010152601f80199101168101030190f35b808601820151878201604001528694508101611578565b634e487b7160e01b600052604160045260246000fd5b5034610382576115d536613d51565b908252601d60205260408220805482101561161a576115f49250613db8565b508054600190910154604051918291611616916001600160a01b031683613dd4565b0390f35b8280fd5b50346103825760403660031901126103825761037f61163b613cb5565b611643613ccb565b9061164c61497f565b61459f565b5034610382576020366003190112610382577fd28d9e4ce68d89af7920cb8618e342a78f51e545c530ce60f1cb1d6f0235b47f602060043561169161497f565b80601555604051908152a180f35b5034610382576116ae36613d51565b6116b661497f565b81611770575b806116e3575b600080516020615d878339815191529160409182519182526020820152a180f35b6001546040516323b872dd60e01b8152929060209084906001600160a01b031681878161171588303360048501613ed7565b03925af19182156106fe57600080516020615d8783398151915293604093611751575b5061174581601854613f22565b601855915091506116c2565b6117699060203d6020116106f7576106e88183613d7a565b5038611738565b82546040516323b872dd60e01b81529060209082906001600160a01b03168187816117a089303360048501613ed7565b03925af180156106fe576117c4575b506117bc82601754613f22565b6017556116bc565b6117dc9060203d6020116106f7576106e88183613d7a565b50386117af565b503461038257610120366003190112610382576117fe613cb5565b611806613ca6565b606435916044358315158403610c9a5760a4356084358115158203610c9a5760c4359060e435948515158603610c9a577f8fb1f6e3f39354fc80c1defc040c6d354638b0c8e5f9c63cd0292ef9842197e9966080966101043595869361186a61497f565b6001600160a01b03169a61187f8c1515614569565b8b8d52600f60205260408d20936118dc575b6118d1575b6118c6575b6118bb575b5050604051938452602084015260408301526060820152a280f35b6006015582386118a0565b84600483015561189b565b846003840155611896565b886001850155611891565b503461038257604036600319011261038257611901613cb5565b6024359061190d61497f565b61191982601f54613f4f565b601f55825460405163a9059cbb60e01b815291906001600160a01b03906020908490831681888161194e8a8960048401613dd4565b03925af191821561077c577f27971ee1acbfbdfb20656657ceb2e0e7b519b9e60fe1a6b1f6d27b159f4a607c93602093611990575b506040519485521692a280f35b6119a690843d86116106f7576106e88183613d7a565b5038611983565b5034610382578060031936011261038257546040516001600160a01b039091168152602090f35b50346103825780600319360112610382576020600e54604051908152f35b5034610382577f4e9dd03193a0c81552fb8e6d32280f0d7e0ce8087241dc3d17ef3d193ee231d76040611a2436613d51565b611a2c61497f565b81600d5580600e5582519182526020820152a180f35b5034610382578060031936011261038257600080516020615dc7833981519152546040516001600160a01b039091168152602090f35b5034610382578060031936011261038257602060405160038152f35b5034610382578060031936011261038257602060405160018152f35b50346103825780600319360112610382576004546040516001600160a01b039091168152602090f35b5034610382578060031936011261038257602060405160048152f35b5034610382576020366003190112610382576080906040906001600160a01b03611b1d613cb5565b16815260106020522080549060018101549060ff6003600283015492015416916040519384526020840152604083015215156060820152f35b503461038257608036600319011261038257611b70613cb5565b611b78613ccb565b90611b81613ce1565b91611b8a613cf7565b90611b9361497f565b6001600160a01b039283169182151580611c7c575b80611c71575b80611c66575b15611c2f577f213f1de8063c19612a553f1480ff341bea689d36a56a2089f1b9060d599b5d8394848060809660018060a01b031995878760025416176002551692838660035416176003551692838560045416176004551680936005541617600555604051938452602084015260408301526060820152a180f35b60405162461bcd60e51b815260206004820152600f60248201526e496e76616c6964206164647265737360881b6044820152606490fd5b508381161515611bb4565b508385161515611bae565b508382161515611ba8565b503461038257611c9636613d51565b908252601360205260408220805482101561161a576115f49250613db8565b50346103825780600319360112610382576020601754604051908152f35b50346103825780600319360112610382576002546040516001600160a01b039091168152602090f35b50346103825780600319360112610382576020601a54604051908152f35b5034610382578060031936011261038257611d3361497f565b600080516020615dc783398151915280546001600160a01b031981169091556000906001600160a01b0316600080516020615e678339815191528280a380f35b50346103825780600319360112610382576020601554604051908152f35b503461038257806003193601126103825760206040516103e88152f35b503461038257602036600319011261038257611dc86149b8565b611dd760ff604f541615613e7e565b611de03361539a565b68056bc75e2d631000006004351415806125ce575b806125b9575b806125a4575b6125925780546040516323b872dd60e01b81529060209082906001600160a01b0316818581611e396004803590309033908501613ed7565b03925af1801561258757612568575b5033815260106020526040812060038101805460ff161561248d57611e6e60195461455a565b806019558255600435600183015542600283015560ff198154169055338252600f602052816003604082200155600360043502600435810460031460043515171561247957338352600f60205260046040842001555b600a6001820154338452600f60205260408420906009820180548211612471575b505001805460043511612466575b5080548252601c6020908152604080842080546001600160a01b031916339081179091558452600f9091528220546001600160a01b031680151580612452575b156123c657611f526064611f4b600654600435613ef9565b0482615566565b9081612397575b50505b338252600f6020526040822054829182916001600160a01b031690829060043580159080046001141715612383579394915b6001600160a01b03811680151580612379575b8061236f575b156120ae578452600f6020526040842060ff6005820154161561208f57506001600160a01b0381168452600f60205260408420600101548390611fe990613f93565b11612025575b6001600160a01b039081168452600f6020526040842054169161201b906120159061455a565b9561455a565b935b939491611f8e565b6120346064600435048261576a565b80612040575b50611fef565b918261204b91613f22565b91338552601060205260408520546040519182526003602083015260408201523390600080516020615d67833981519152606060018060a01b03851692a33861203a565b5492956001600160a01b03909316926120a8915061455a565b9361201d565b8486846120cd60079160646120c7600754600435613ef9565b04613f4f565b8061232a575b508260018060a01b03815416602061211f60018060a01b0360025416926064612100600854600435613ef9565b0460405195868094819363a9059cbb60e01b9889845260048401613dd4565b03925af191821561077c5761218d9261230b575b5061214d6064612147600954600435613ef9565b04615a90565b845460048054600a546020936001600160a01b03928316939216916064916121759135613ef9565b04918860405180978195829489845260048401613dd4565b03925af190811561077c576121e2926020926122ee575b5060018060a01b0386541660018060a01b03600354168760646121cb600b54600435613ef9565b049360405196879586948593845260048401613dd4565b03925af180156106fe576122cf575b50336000908152600f60205260408120549092600435151592916001600160a01b03165b6001600160a01b0316801515806122c5575b1561227057600052600f60205261225383604060002090612259575b546001600160a01b03169461455a565b93612215565b8381016122696004358254613f22565b9055612243565b858261227b33614edb565b5460405190600435825260208201527f2a91574e12ad96234e84923e146b0946ecfb871cd8d5534dc1fdcbe87a7c01b360403392a26001600080516020615ec78339815191525580f35b50601e8510612227565b6122e79060203d6020116106f7576106e88183613d7a565b50836121f1565b61230490833d85116106f7576106e88183613d7a565b50866121a4565b6123239060203d6020116106f7576106e88183613d7a565b5085612133565b60408161235a7fca2e2bff26d2adb9fe155e9265350494c16751676879cb7ced9141e0fcf3934393601f54613f22565b80601f5582519182526020820152a1836120d3565b5060148710611fa7565b50600f8410611fa1565b634e487b7160e01b84526011600452602484fd5b8254604051928352600260208401526040830152600080516020615d6783398151915260603393a33880611f59565b508154600254600654612413926020926001600160a01b03908116929116906064906123f490600435613ef9565b04918660405180968195829463a9059cbb60e01b845260048401613dd4565b03925af1801561244757612428575b50611f5c565b6124409060203d6020116106f7576106e88183613d7a565b5038612422565b6040513d85823e3d90fd5b5080835260ff600560408520015416611f33565b600435905538611ef3565b553880611ee5565b634e487b7160e01b83526011600452602483fd5b600182018054806124fb57506124a460195461455a565b806019558355600435905542600283015560ff198154169055338252600f602052816003604082200155600360043502600435810460031460043515171561247957338352600f6020526004604084200155611ec4565b61250a91925060043590613f22565b9055338252600f60205260ff60056040842001541661255d575b600360043502600435810460031460043515171561247957338352600f60205261255660046040852001918254613f22565b9055611ec4565b426002820155612524565b6125809060203d6020116106f7576106e88183613d7a565b5038611e48565b6040513d84823e3d90fd5b60405163162908e360e11b8152600490fd5b50683635c9adc5dea000006004351415611e01565b50681b1ae4d6e2ef5000006004351415611dfb565b50681043561a88293000006004351415611df5565b50346103825780600319360112610382576020601954604051908152f35b50346103825780600319360112610382577f00000000000000000000000000000000000000000000000000000000000000006001600160a01b0316300361265a576020604051600080516020615e078339815191528152f35b60405163703e46dd60e11b8152600490fd5b5034610382576020806003193601126105fc576004359061268b6149b8565b61269a60ff604f541615613e7e565b811561259257683635c9adc5dea00000806017541090811561291f575b50612893576001546040516323b872dd60e01b81526001600160a01b03918390829084168188816126ed8a303360048501613ed7565b03925af1801561077c57612902575b50606461270b600e5485613ef9565b04906127178285613f4f565b926127108085029085820414851517156128ee5761273b6103e89160185490613f2f565b1161259257858260015416803b156105fc57818091602460405180948193630852cd8d60e31b83528a60048401525af18015612587576128d6575b5050601754936127868582613ef9565b9061279e601854926127988385613f22565b90613f2f565b93885416956040516370a0823160e01b815230600482015284816024818b5afa80156113685786918b916128a5575b5010612893576127e185926127e994613f22565b601855613f4f565b60175580604051809563a9059cbb60e01b825281898161280d883360048401613dd4565b03925af1938415612888577f223c8ad0806f634524940a8595f819c5cfc7b1f4f4f45791269301df0a7e61d59461286a575b5050612852604051928392339684613d3b565b0390a26001600080516020615ec78339815191525580f35b8161288092903d106106f7576106e88183613d7a565b50388061283f565b6040513d88823e3d90fd5b6040516343c7ad8160e11b8152600490fd5b809250868092503d83116128cf575b6128be8183613d7a565b81010312610c9a57859051386127cd565b503d6128b4565b6128df90613d67565b6128ea578538612776565b8580fd5b634e487b7160e01b87526011600452602487fd5b61291890833d85116106f7576106e88183613d7a565b50386126fc565b905060185410386126b7565b503461038257806003193601126103825761294461497f565b600160ff19604f541617604f557f4cb3183d0bf66f9634b15cfc3539fdddc96c2c9324848af89b56586a6739fec48180a180f35b5060403660031901126103825761298d613cb5565b60249182356001600160401b0381116105fc57366023820112156105fc5780600401356129b981613d9d565b936129c76040519586613d7a565b81855260209182860193368883830101116128ea57818692898693018737870101526001600160a01b037f00000000000000000000000000000000000000000000000000000000000000008116308114908115612b8f575b5061265a57612a2c61497f565b8116946040516352d1902d60e01b815283816004818a5afa869181612b5c575b50612a6957604051634c9c8ce360e01b8152600481018890528890fd5b869088600080516020615e0783398151915291828103612b475750843b15612b31575080546001600160a01b031916821790556040518692917fbc7cd75a20ee27fd9adebab32041f755214dbc6bffa90cc0225b39da2e5c2d3b8480a2815115612b135750612b069482915190845af4903d15612b0a573d612aea81613d9d565b90612af86040519283613d7a565b81528581943d92013e615d03565b5080f35b60609250615d03565b94505050505034612b22575080f35b63b398979f60e01b8152600490fd5b604051634c9c8ce360e01b815260048101849052fd5b60405190632a87526960e21b82526004820152fd5b9091508481813d8311612b88575b612b748183613d7a565b81010312612b8457519038612a4c565b8680fd5b503d612b6a565b905081600080516020615e078339815191525416141538612a1f565b503461038257612bba36613d51565b90612bc36149b8565b612bd260ff604f541615613e7e565b3383526020906010825260408420926001840193845415612fa0576003015460ff16612f8e57600781141580612f83575b80612f78575b612f665781156125925784546040516323b872dd60e01b81526001600160a01b039591859082908816818a81612c448a303360048501613ed7565b03925af18015612f5b57612f3e575b50612c5f601a5461455a565b601a81905533875260118552604080882090519160c083016001600160401b038111848210176115b057604052825285820185815260408301428152606084019086825260808501926001845260a08601948c8652805490600160401b821015612f2a5790612cd391600182018155613def565b969096612f165791612d1293916005969593518855516001880155516002870155516003860155511515600485019060ff801983541691151516179055565b51910155601a548652601e8452604080872080546001600160a01b031916339081179091558752600f85528620600a018054918215612f08575b5050609681029080820460961490151715612ef457606490048203612592577fa8a1b9e33e503eed12bf7e7c8c01c7f3b60217a496bddd0f5db351dd8c056c1c90612d9633614edb565b601a5490612dab604051928392339684613d3b565b0390a2338352600f815260066040842001918383549384612ddd575b506001600080516020615ec78339815191525580f35b556017548381101580612e8b575b612df7575b8490612dc7565b83612e0191613f4f565b6017558354169080604051809363a9059cbb60e01b8252818781612e29893360048401613dd4565b03925af19182156106fe577f3437b9ea7fa19c6d233dd70cc787a70fab87cee64d8ba4571512cc84402748f992612e6e575b506040519283523392a238808080612df0565b612e8490823d84116106f7576106e88183613d7a565b5038612e5b565b5060248383875416604051928380926370a0823160e01b82523060048301525afa80156128885785918791612ec3575b501015612deb565b809250858092503d8311612eed575b612edc8183613d7a565b81010312610c9a5784905138612ebb565b503d612ed2565b634e487b7160e01b86526011600452602486fd5b909150548091553880612d4c565b634e487b7160e01b8d5260048d905260248dfd5b634e487b7160e01b8e52604160045260248efd5b612f5490853d87116106f7576106e88183613d7a565b5038612c53565b6040513d89823e3d90fd5b604051634dc7f5ff60e11b8152600490fd5b50601e811415612c09565b50600f811415612c03565b604051631ecb2c4f60e31b8152600490fd5b604051634065aaf160e11b8152600490fd5b5034610382578060031936011261038257612fcb61497f565b60ff19604f5416604f557f15de7ad89d29fd1c6d2e6b1e878453569b4080edf34e0105faaa3bd52f0185308180a180f35b50346103825780600319360112610382576020604051603c8152f35b50346103825780600319360112610382576003546040516001600160a01b039091168152602090f35b5034610382576020366003190112610382576020906004358152601e8252604060018060a01b0391205416604051908152f35b503461038257806003193601126103825761308d6149b8565b610ff7613fe0565b50346103825780600319360112610382576020600d54604051908152f35b5034610382578060031936011261038257602060ff604f54166040519015158152f35b5034610382578060031936011261038257604f5460405160089190911c6001600160a01b03168152602090f35b50346103825760203660031901126103825760043590601454821015610382576020816014600393522091020180546116166002600184015493015460405193849384613d3b565b50346103825780600319360112610382576020604051683635c9adc5dea000008152f35b50346103825780600319360112610382576020601854604051908152f35b503461038257602036600319011261038257610160906001600160a01b0390604090826131b8613cb5565b168152600f60205220908154169060018101549060028101546003820154600483015460ff600585015416600685015491600786015493600887015495600a6009890154980154986040519a8b5260208b015260408a015260608901526080880152151560a087015260c086015260e0850152610100840152610120830152610140820152f35b503461038257602036600319011261038257602061325e600435613f93565b604051908152f35b50346103825780600319360112610382576001546040516001600160a01b039091168152602090f35b5034610382578060031936011261038257602090604051908152f35b5034610382576020806003193601126105fc576004356132c96149b8565b6132da60ff60165460081c16613f5c565b3383526011825260408320805482108061379a575b1561376557906132fe91613def565b5090600182019182549260028201549160038101549460058201805494338952600f97888852600960408b20015460108952600160408c200154600c54916040519361010085019585871060018060401b038811176115b05761338b966040528886528c8601526040850152896060850152608084015260a083015260c0820152603c60e08201526149e8565b949192909683951561373257836133a191613f22565b905560048101805460ff1916905588546001600160a01b03936133cc91889190309033908816614ada565b156136fd576133e190866136cf575b54614d47565b80613413575b505050549060405191825282820152600080516020615ee783398151915260403392a2610fde33614edb565b338852868652613430604089206003600482015491015490613f4f565b8091116136c7575b5081613445575b806133e7565b3387528585526003604088200161345d838254613f22565b90558160011c908088541691604051926370a0823160e01b938481523060048201528881602481855afa801561129b5783918c91613696575b5010158061368d575b613640575b506018548015801561362c575b156135fc57506134cb670de0b6b3a7640000915b85613f4f565b670de0b6b3a7640000908181029181830414901517156135e857899392916134f291613f2f565b90600154166040519283523060048401528783602481845afa80156106fe57889385916135b3575b50821115806135aa575b613554575b50505050604051908152600084820152600080516020615ea783398151915260403392a2388061343f565b6135759160405194858094819363a9059cbb60e01b83523360048401613dd4565b03925af18015612f5b5761358d575b84818892613529565b6135a390853d87116106f7576106e88183613d7a565b5038613584565b50811515613524565b93809295508491503d83116135e1575b6135cd8183613d7a565b81010312610c9a578892818893519061351a565b503d6135c3565b634e487b7160e01b8a52601160045260248afd5b601754670de0b6b3a7640000908181029181830414901517156112a6576134cb9161362691613f2f565b916134c5565b50683635c9adc5dea00000601754106134b1565b87604051809263a9059cbb60e01b8252818d81613661883360048401613dd4565b03925af1801561136857156134a45761368690883d8a116106f7576106e88183613d7a565b50386134a4565b5081151561349f565b8092508a8092503d83116136c0575b6136af8183613d7a565b81010312610c9a5782905138613496565b503d6136a5565b915038613438565b6136db87601754613f22565b601755338a52888852600660408b20016136f6888254613f22565b90556133db565b606487896040519162461bcd60e51b8352600483015260248201526e151c985b9cd9995c8819985a5b1959608a1b6044820152fd5b60405162461bcd60e51b8152600481018a9052600b60248201526a139bdd08195e1c1a5c995960aa1b6044820152606490fd5b60405162461bcd60e51b815260048101849052600d60248201526c496e76616c6964207374616b6560981b6044820152606490fd5b5060ff60046137a98484613def565b500154166132ef565b5034610382578060031936011261038257602060405160028152f35b5034610382576020806003193601126105fc57600435906137ed6149b8565b6137fc60ff604f541615613e7e565b811561259257683635c9adc5dea000008060175410908115613a20575b506128935782546040516323b872dd60e01b81526001600160a01b039183908290841681888161384e8a303360048501613ed7565b03925af1801561077c57613a03575b506018549061386c8285613ef9565b9061387e601754926127988785613f22565b92612710860261270f19878204016139ef5761389d846103e892613f2f565b116125925760646138b0600d5486613ef9565b04936138bc8582613f4f565b938360015416916040516370a0823160e01b81523060048201528881602481875afa801561129b5782918c916139ba575b50106128935789936139028a61390a94613f22565b601755613f4f565b601855803b156105fc578190602460405180948193630852cd8d60e31b83528960048401525af18015612f5b576139a7575b50600154169280604051809563a9059cbb60e01b8252818981613963883360048401613dd4565b03925af1938415612888577f36864aeefce16bc4aaceeb6b0cdfb2ad1455a8cb4ccb0db148a2bc6e7166f97c9461286a575050612852604051928392339684613d3b565b6139b390969196613d67565b943861393c565b8092508a8092503d83116139e8575b6139d38183613d7a565b810103126139e457819051386138ed565b8a80fd5b503d6139c9565b634e487b7160e01b88526011600452602488fd5b613a1990833d85116106f7576106e88183613d7a565b503861385d565b90506018541038613819565b503461038257604036600319011261038257613a46613cb5565b6001600160a01b039081168252601260205260408220805460243593908410156103825750602092613a7791613d0d565b9190546040519260031b1c168152f35b5034610382576020908160031936011261038257613aa3613cb5565b338252600f808452604083205490926001600160a01b039290918316613bd0578216338114613bbe578015613bac5733808352600f8652604080842080546001600160a01b03191684179055828452601287528320613b029190613e3b565b338252600f855282604083205416938383955b1680151580613ba2575b15613b785780845281875260408420906002820180549060018201908183116139ef5792600080516020615de783398151915260408a969394858e8997613b7299558351928352820152a254169661455a565b95613b15565b5050337fa6dbb5aa28f35437de94d685d66edce5fb4812196b4984b91dfd5a7b38c0fb308380a380f35b50601e8610613b1f565b60405163e6c4247b60e01b8152600490fd5b604051631acade8960e31b8152600490fd5b60405163682a906560e01b8152600490fd5b50346103825780600319360112610382576020600b54604051908152f35b5034610382576040366003190112610382576004358015158091036105fc5760207f03cb373f89de891077fe47cec43663b6727713de0337af46bebd1178122251b7917fb886fcb5b9c12916f26d967ebe962dbd51ec249fb55961da39c851cdfc10115c82613c6d613ca6565b92613c7661497f565b6016549315159361ff008560081b169060ff83169061ffff19161717601655604051908152a1604051908152a180f35b602435908115158203610c9a57565b600435906001600160a01b0382168203610c9a57565b602435906001600160a01b0382168203610c9a57565b604435906001600160a01b0382168203610c9a57565b606435906001600160a01b0382168203610c9a57565b8054821015613d255760005260206000200190600090565b634e487b7160e01b600052603260045260246000fd5b6040919493926060820195825260208201520152565b6040906003190112610c9a576004359060243590565b6001600160401b0381116115b057604052565b601f909101601f19168101906001600160401b038211908210176115b057604052565b6001600160401b0381116115b057601f01601f191660200190565b8054821015613d255760005260206000209060011b0190600090565b6001600160a01b039091168152602081019190915260400190565b8054821015613d25576000526006602060002091020190600090565b9181601f84011215610c9a578235916001600160401b038311610c9a576020808501948460051b010111610c9a57565b80549190600160401b8310156115b05782613e5e916001613e7c95018155613d0d565b90919060018060a01b038084549260031b9316831b921b1916179055565b565b15613e8557565b60405162461bcd60e51b815260206004820152601260248201527110dbdb9d1c9858dd081a5cc81c185d5cd95960721b6044820152606490fd5b90816020910312610c9a57518015158103610c9a5790565b6001600160a01b03918216815291166020820152604081019190915260600190565b81810292918115918404141715613f0c57565b634e487b7160e01b600052601160045260246000fd5b91908201809211613f0c57565b8115613f39570490565b634e487b7160e01b600052601260045260246000fd5b91908203918211613f0c57565b15613f6357565b60405162461bcd60e51b8152602060048201526008602482015267111a5cd8589b195960c21b6044820152606490fd5b6003811015613fbd576002811015613fb75760011115613fb257600090565b600590565b50600a90565b50600f90565b606091949392608082019582526020820152600060408201520152565b6000338152602090601082526040908181209260018085015415801561454c575b61453b573383526011825283832083919082825b6143c1575b505081156143b057338452600f83526140398260038787200154613f22565b95338552600f84528585209660049788810154809211614398575b5050821561438857338552600f8452600386862001614074848254613f22565b9055845486516370a0823160e01b808252308a8301528795926001600160a01b039284871c918416908981602481855afa90811561437e578b8d8f928d959487918491614345575b5010158061433c575b6142df575b5050505050601854801580156142cb575b1561428b5750670de0b6b3a7640000905b670de0b6b3a764000090818102918183041490151715614278579061411091613f2f565b9188955416908951908152308b8201528781602481855afa90811561426e579083918a91614239575b50101580614230575b6141af575b505091600080516020615da783398151915291600f95949388519081528786820152600080516020615ea7833981519152893392a2549061418e8851928392339684613fc3565b0390a23383525220600381015491015411156141a657565b613e7c33614f8c565b816141d69293955087918b8a8c5180968195829463a9059cbb60e01b845233908401613dd4565b03925af180156142265791600080516020615da78339815191529391600f97969593614209575b50939495819350614147565b61421f90873d89116106f7576106e88183613d7a565b50386141fd565b88513d89823e3d90fd5b50811515614142565b809250898092503d8311614267575b6142528183613d7a565b810103126142635782905138614139565b8880fd5b503d614248565b8a513d8b823e3d90fd5b634e487b7160e01b8a5260118c5260248afd5b601754670de0b6b3a7640000908181029181830414901517156142b857906142b291613f2f565b906140ec565b634e487b7160e01b8b5260118d5260248bfd5b50683635c9adc5dea00000601754106140db565b5163a9059cbb60e01b8152949a508492918391908290614304908e9033908401613dd4565b03925af1801561426e5761431f575b508587388c8b8d6140ca565b61433590883d8a116106f7576106e88183613d7a565b5038614313565b508515156140c5565b959694505050505081813d8311614377575b6143618183613d7a565b810103126139e457908c8b8d858d9551386140bc565b503d614357565b8c513d8d823e3d90fd5b50505050505050613e7c33614f8c565b6143a89294506003015490613f4f565b913880614054565b8451630fec21fd60e21b8152600490fd5b8154811015614536578260ff60046143d98486613def565b500154161561452e5750856143ee8284613def565b50906007600380930154146000146144ef575062cb73565b603c61442060026144178688613def565b50015442613f4f565b04918061442d8587613def565b50015483116144d8575b508482156144cc579161445f61446492633b9aca00946144578789613def565b500154613ef9565b613ef9565b0461446f8284613def565b509060058092015490818111614490575b505050908280925b019091614015565b956144c26144ad6144a68897969488969a613f4f565b8093613f22565b976144b88487613def565b5001918254613f22565b9055919238614480565b93929050839150614488565b9091506144e58385613def565b5001549038614437565b600f826144fc8587613def565b5001540361450e575062fe502b614406565b601e8261451b8587613def565b5001540361440657506301312d00614406565b809291614488565b61401a565b8351634065aaf160e11b8152600490fd5b5060ff600386015416614001565b6000198114613f0c5760010190565b1561457057565b60405162461bcd60e51b8152602060048201526007602482015266125b9d985b1a5960ca1b6044820152606490fd5b916001600160a01b039081841690811515806148ee575b6145bf90614569565b8284168083146148be5784846000965b16801515806148b4575b156146355784811461460557600052600f602052846145ff81604060002054169761455a565b966145cf565b60405162461bcd60e51b815260206004820152600860248201526721b4b931bab630b960c11b6044820152606490fd5b506000848152600f60208181526040928390208054969a959950868916989496898b146148a7576001600160a01b0319168a17905587151594856147ca575b614689908a6000526012835284600020613e3b565b8660005281815260029560028460002001549060019660018301809311613f0c5761474a575b8a6146e4575b50505050505050507ff8b9fe4d008320e6f048c61e41e9cc56ce351354ad0cb9a868bd3c4bd6928fd5600080a4565b600090875b6146f4575b506146b5565b861680151580614740575b1561473b578060005284845288866000200161471c848254613f22565b9055600052838352614734868660002054169161455a565b90876146e9565b6146ee565b50601e82106146ff565b866000878c835b61475f575b505050506146af565b16801515806147c0575b156147b95760008181528787528890208b01805486116147b05761478e868254613f4f565b90555b6000528585526147a7888860002054169161455a565b90889083614751565b60009055614791565b8890614756565b50601e8210614769565b9897969594939291908760005260128152826000209960005b8b54808210156148925786908a6147fb8f8590613d0d565b939054600394851b1c16146148145750506001016147e3565b60009d91929495969798999a9b9c9d1994858201918211613f0c57613e5e8a61484061484e9486613d0d565b905490871b1c169184613d0d565b8054801561487c5761468994899101926148688484613d0d565b81939154921b1b19169055555b9050614674565b634e487b7160e01b600052603160045260246000fd5b50506146899192939495969798999a50614875565b5050505050505050505050565b50603287106145d9565b60405162461bcd60e51b815260206004820152600860248201526729b2b633103932b360c11b6044820152606490fd5b5083831615156145b6565b9190811015613d255760051b0190565b356001600160a01b0381168103610c9a5790565b6001600160a01b0390811690811561496657600080516020615dc783398151915280546001600160a01b03198116841790915516600080516020615e67833981519152600080a3565b604051631e4fbdf760e01b815260006004820152602490fd5b600080516020615dc7833981519152546001600160a01b031633036149a057565b60405163118cdaa760e01b8152336004820152602490fd5b600080516020615ec783398151915260028154146149d65760029055565b604051633ee5aeb560e01b8152600490fd5b906020820151614a0c6040840191614a06835160e087015190613ef9565b90613f22565b421090811591614ace57614a4a81633b9aca00925160078114600014614aa45750614a4263ffffffff62cb73565b168751613ef9565b905190613ef9565b046060840151808211600014614a9657614a69614a8491606493613f4f565b60808601519095908015614a885760c090915b015190613ef9565b0491565b5060c060a082015191614a7c565b50506064614a846000614a69565b600f03614abc57614a4263ffffffff62fe502b614a3a565b614a4263ffffffff6301312d00614a3a565b50600092508291829150565b93909181614b53575b505060405163a9059cbb60e01b815292602092849283916000918391614b0c9160048401613dd4565b03926001600160a01b03165af1908115614b4757600091614b2b575090565b614b44915060203d6020116106f7576106e88183613d7a565b90565b6040513d6000823e3d90fd5b60018060a09594951b03808616916040938451926370a0823160e01b84528088169081600486015260209485816024818a5afa908115614cd657908491600091614ca5575b5010614c9657865191636eb1769f60e11b83526004830152831660248201528381604481885afa908115614c8b57908291600091614c5a575b5010614c4d57614bfb938392600087518097819582946323b872dd60e01b84528d60048501613ed7565b03925af1928315614c435750600092614c26575b505015614c1e57903880614ae3565b505050600090565b614c3c9250803d106106f7576106e88183613d7a565b3880614c0f565b513d6000823e3d90fd5b5050505050505050600090565b809250858092503d8311614c84575b614c738183613d7a565b81010312610c9a5781905138614bd1565b503d614c69565b86513d6000823e3d90fd5b50505050505050505050600090565b809250878092503d8311614ccf575b614cbe8183613d7a565b81010312610c9a5783905138614b98565b503d614cb4565b88513d6000823e3d90fd5b8051821015613d255760209160051b010190565b80549060009081815582614d0857505050565b6001906001600160ff1b0384168403612479578252602082209260011b8301925b838110614d365750505050565b808360029255838382015501614d29565b6000818152601e6020908152604080832054601d8352818420805493969495929492936001600160a01b0392831693906001600160401b0390818111614eba5787519391614d9b600583901b8c0186613d7a565b81855291895289892089928b86015b838510614e83575050505050865b8251811015614e6c5780614de985614dd260019487614ce1565b5151168b614de08488614ce1565b510151906158fd565b86898c83614e33575b8a92507fae629b396150638d6eb6de457cbffe5d618a10c8cc199a94976bed2b16ecd993915088614e23868a614ce1565b515116938c51908152a301614db8565b6060600080516020615d67833981519152918c8b614e51898d614ce1565b515116946004815193898552840152820152a386898c614df2565b5096915050601d9150613e7c949283525220614cf5565b8a518b810181811084821117612f2a576001928f91926002938f528b87541681528487015483820152815201930194019391614daa565b634e487b7160e01b89526041600452602489fd5b8015613f0c576000190190565b60018060a01b038060009216825260106020526040822090600182015415159182614f7c575b50600f602052604083206005810160ff815416151584151514614f7557805460ff191660ff851515161790555416918215614f705760019260409215614f58578152600f6020522001614f54815461455a565b9055565b81522001805480614f67575050565b614f5490614ece565b505050565b5050505050565b6003015460ff1615915038614f01565b6001600160a01b038116600081815260106020526040902060038101805492939260ff811615614fbd575050505050565b906001602495969260ff19161790556011602052604060002094600092600094602060018060a01b0360005416604051988980926370a0823160e01b82523060048301525afa968715614b4757600097615366575b50600095945b88548710156150d35760ff600461502f898c613def565b50015416156150c9576001615044888b613def565b50015490818060011b0460021482151715613f0c578961509c91600161507e8b61012c6150778498600c5490861b613ef9565b0494613def565b5001548281106150bc5790614a068361509693613f4f565b97613f22565b9660046150a9828c613def565b5001805460ff191690555b019594615018565b6000925061509691613f22565b94956001906150b4565b9397509094508195939193836151c3575b505091600080516020615ee78339815191526040600080516020615e878339815191529593856020966151a2575b6000858152600f885283902060058101805460ff19811690915590546001600160a01b03169060ff1680615199575b80615185575b615169575b50825191825286820152a254604051908152a23880808080614f75565b6000526001836000200161517d8154614ece565b90553861514c565b508060005260018460002001541515615147565b50801515615141565b84600052600f8752600683600020016151bc828254613f22565b9055615112565b90949293908481106152675750506000805460405163a9059cbb60e01b81529560209287926001600160a01b0316918391908290615206908a9060048401613dd4565b03925af1938415614b475760406020948793600080516020615ee783398151915293600080516020615e878339815191529861524a575b505b9395509395506150e4565b61526090883d8a116106f7576106e88183613d7a565b503861523d565b90929394816152ba575b506040600080516020615e8783398151915295849360209695600080516020615e2783398151915284600080516020615ee7833981519152968151908682528b820152a261523f565b816152f0929395945060209160018060a01b036000541690600060405180968195829463a9059cbb60e01b845260048401613dd4565b03925af18015614b4757600080516020615e878339815191529560209588600080516020615e2783398151915260408297600080516020615ee7833981519152978297615349575b509650505050939495509550615271565b61535f908c3d8e116106f7576106e88183613d7a565b5038615338565b9096506020813d602011615392575b8161538260209383613d7a565b81010312610c9a57519538615012565b3d9150615375565b6001600160a01b039081166000818152601060209081526040808320600181810180549697909693959094929184158015615558575b61550357601184528682208054839291835b828110615518575050505061550e576002820196615404885460155490613f22565b42111561550357600383837f57025f0027038907eda728b59164fb63d06048f42e618a35267e6a12e49b2e469a8a9654998d8352600f895260ff60058985209283541692015416806154fa575b806154e8575b6154ce575b508c8252600f88528187812095816004600589019860ff19998a8154169055828982015501558185555555019081541690558461549f575b5051928352820152a2565b848152601383526154b1828220614cf5565b848152601c83522080546001600160a01b03191690558338615494565b82526001878320016154e08154614ece565b90553861545c565b50808352600188842001541515615457565b50801515615451565b505050505050505050565b5050505050505050565b60ff60046155268385613def565b50015416615536575b83016153e2565b936155508491826155478886613def565b50015490613f22565b94905061552f565b5060ff6003840154166153d0565b60018060a01b03808216906000918083526020600f8152604090818520936010825282862060ff6005870154161590811561575b575b811561574e575b5061574357602482828854168551928380926370a0823160e01b82523060048301525afa908115615739579089918891615708575b50106156e3576004850195600387549601956155f687548092613f4f565b8a8181116156bb575b50508980615625575b50505050505050549054111561561c575090565b614b4490614f8c565b61565693615634828794613f22565b89558354168a84885180978195829463a9059cbb60e01b845260048401613dd4565b03925af19081156156b0575090600080516020615ea7833981519152939291615693575b506002825191898352820152a238808080808089615608565b6156a990823d84116106f7576106e88183613d7a565b503861567a565b8451903d90823e3d90fd5b819b5086600080516020615e278339815191529189939d825191825288820152a238806155ff565b50849692955081600080516020615e278339815191529592945051928352820152a290565b809250848092503d8311615732575b6157218183613d7a565b81010312612b8457889051386155d8565b503d615717565b84513d89823e3d90fd5b505050505091505090565b60019150015415386155a3565b600381015460ff16915061559c565b60018060a01b03808216906000918083526020600f8152604090818520936010825282862060ff600587015416159081156158ee575b81156158e1575b5061574357602482828854168551928380926370a0823160e01b82523060048301525afa9081156157395790899188916158b0575b50106156e3576004850195600387549601956157fa87548092613f4f565b8a818111615888575b5050898061581f5750505050505050549054111561561c575090565b61582e93615634828794613f22565b03925af19081156156b0575090600080516020615ea783398151915293929161586b575b506003825191898352820152a238808080808089615608565b61588190823d84116106f7576106e88183613d7a565b5038615852565b819b5086600080516020615e278339815191529189939d825191825288820152a23880615803565b809250848092503d83116158da575b6158c98183613d7a565b81010312612b8457889051386157dc565b503d6158bf565b60019150015415386157a7565b600381015460ff1691506157a0565b60018060a01b03808216906000918083526020600f8152604090818520936010825282862060ff60058701541615908115615a81575b8115615a74575b5061574357602482828854168551928380926370a0823160e01b82523060048301525afa908115615739579089918891615a43575b50106156e35760048501956003875496019561598d87548092613f4f565b8a818111615a1b575b505089806159b25750505050505050549054111561561c575090565b6159c193615634828794613f22565b03925af19081156156b0575090600080516020615ea78339815191529392916159fe575b506004825191898352820152a238808080808089615608565b615a1490823d84116106f7576106e88183613d7a565b50386159e5565b819b5086600080516020615e278339815191529189939d825191825288820152a23880615996565b809250848092503d8311615a6d575b615a5c8183613d7a565b81010312612b84578890513861596f565b503d615a52565b600191500154153861593a565b600381015460ff169150615933565b908115615cd057601754683635c9adc5dea00000808210908115615cc4575b50615cbf5760018060a01b03926000938085541692604093845191826370a0823160e01b9283825230600483015281602460209687935afa908115615cb5578991615c88575b50615b008683613f22565b11615c6a57612710850261270f1986820401615c7457615b23826103e892613f2f565b11615c6a5760185490615b43615b398388613ef9565b6127988884613f22565b9485158015615c61575b615c5557600154169287519081523060048201528481602481875afa908115615c4b579083918b91615c16575b5010615c0b578489939261390288615b9194613f22565b601855803b156105fc5781906024875180948193630852cd8d60e31b83528860048401525af18015615c01577f0ec3929061cbbbeecb325623e7d5a86c3dae11cb8a22ca45dc0972955657da25969750615bf2575b508351928352820152a1565b615bfb90613d67565b38615be6565b85513d89823e3d90fd5b505050505050509050565b809250868092503d8311615c44575b615c2f8183613d7a565b81010312615c405782905138615b7a565b8980fd5b503d615c25565b88513d8c823e3d90fd5b50505050505050509050565b50828611615b4d565b5050505050509050565b634e487b7160e01b89526011600452602489fd5b90508381813d8311615cae575b615c9f8183613d7a565b81010312614263575138615af5565b503d615c95565b87513d8b823e3d90fd5b509050565b90506018541038615aaf565b9050565b60ff600080516020615f078339815191525460401c1615615cf157565b604051631afcd79f60e31b8152600490fd5b90615d2a5750805115615d1857602081519101fd5b60405163d6bda27560e01b8152600490fd5b81511580615d5d575b615d3b575090565b604051639996b31560e01b81526001600160a01b039091166004820152602490fd5b50803b15615d3356fe9b3cc71482a1b2eebe764a739f46f1fe99291fd0183be81951532b29d0c9c8da38f8a0c92f4c5b0b6877f878cb4c0c8d348a47b76d716c8e78f425043df9515b6fcebd0a2ce98b28cb391d6008bbc769378c9a4919628e11639cb575cd320fcc9016d09d72d40fdae2fd8ceac6b6234c7706214fd39c1cd1e609a0528c199300a0eea20e678cb42233c1c456c84cedce7ea53fa360bb71bf3b761b7609567770360894a13ba1a3210667c828492db98dca3e2076cc3735a920a3ca505d382bbcb5987aab1afd379f6695f1068869ee8ca6a0d02304c57935a9cc3d3ea2e51e4d520bc217d25ef4588524228dffcfa518f4ad52178c71d49b8061d016213cd3118be0079c531659141344cd1fd0a4f28419497f9722a3daafe3b4186f6b6457e0920bb94eb3842a728db98228c375ff6b00c5bc5a54fac6736155517a0a20a61af381583145e90b82cc5e529bf4fc4d0e44397174cdf145c4251ac33ef195a4249b779b17422d0df92223018b32b4d1fa46e071723d6817e2486d003becc55f00f3a670cd3af7d64b488926880889d08a8585a138ff455227af6737339a1ec262f0c57e16840df040f15088dc2f81fe391c3923bec73e23a9662efc9c229c6a00a264697066735822122014865179ec9a7b4a775ce6a9b819ff0abd1fbeff5747997266cf3039b411f6e564736f6c63430008160033",
  "linkReferences": {},
  "deployedLinkReferences": {}
}