{
  "_format": "hh-sol-artifact-1",
  "contractName": "JinbaoProtocol",
  "sourceName": "contracts/JinbaoProtocol.sol",
  "abi": [
    {
      "inputs": [
        {
          "internalType": "address",
          "name": "_mcToken",
          "type": "address"
        },
        {
          "internalType": "address",
          "name": "_jbcToken",
          "type": "address"
        },
        {
          "internalType": "address",
          "name": "_marketing",
          "type": "address"
        },
        {
          "internalType": "address",
          "name": "_treasury",
          "type": "address"
        },
        {
          "internalType": "address",
          "name": "_lpInjection",
          "type": "address"
        },
        {
          "internalType": "address",
          "name": "_buybackWallet",
          "type": "address"
        }
      ],
      "stateMutability": "nonpayable",
      "type": "constructor"
    },
    {
      "inputs": [
        {
          "internalType": "address",
          "name": "owner",
          "type": "address"
        }
      ],
      "name": "OwnableInvalidOwner",
      "type": "error"
    },
    {
      "inputs": [
        {
          "internalType": "address",
          "name": "account",
          "type": "address"
        }
      ],
      "name": "OwnableUnauthorizedAccount",
      "type": "error"
    },
    {
      "inputs": [],
      "name": "ReentrancyGuardReentrantCall",
      "type": "error"
    },
    {
      "anonymous": false,
      "inputs": [
        {
          "indexed": true,
          "internalType": "address",
          "name": "user",
          "type": "address"
        },
        {
          "indexed": true,
          "internalType": "address",
          "name": "referrer",
          "type": "address"
        }
      ],
      "name": "BoundReferrer",
      "type": "event"
    },
    {
      "anonymous": false,
      "inputs": [
        {
          "indexed": false,
          "internalType": "uint256",
          "name": "mcAmount",
          "type": "uint256"
        },
        {
          "indexed": false,
          "internalType": "uint256",
          "name": "jbcBurned",
          "type": "uint256"
        }
      ],
      "name": "BuybackAndBurn",
      "type": "event"
    },
    {
      "anonymous": false,
      "inputs": [
        {
          "indexed": true,
          "internalType": "address",
          "name": "user",
          "type": "address"
        },
        {
          "indexed": false,
          "internalType": "uint256",
          "name": "ticketId",
          "type": "uint256"
        }
      ],
      "name": "Exited",
      "type": "event"
    },
    {
      "anonymous": false,
      "inputs": [
        {
          "indexed": true,
          "internalType": "address",
          "name": "user",
          "type": "address"
        },
        {
          "indexed": false,
          "internalType": "uint256",
          "name": "amount",
          "type": "uint256"
        }
      ],
      "name": "FeeRefunded",
      "type": "event"
    },
    {
      "anonymous": false,
      "inputs": [
        {
          "indexed": true,
          "internalType": "uint256",
          "name": "ticketId",
          "type": "uint256"
        },
        {
          "indexed": true,
          "internalType": "address",
          "name": "upline",
          "type": "address"
        },
        {
          "indexed": false,
          "internalType": "uint256",
          "name": "amount",
          "type": "uint256"
        }
      ],
      "name": "LevelRewardRecorded",
      "type": "event"
    },
    {
      "anonymous": false,
      "inputs": [
        {
          "indexed": true,
          "internalType": "uint256",
          "name": "ticketId",
          "type": "uint256"
        },
        {
          "indexed": true,
          "internalType": "address",
          "name": "upline",
          "type": "address"
        },
        {
          "indexed": false,
          "internalType": "uint256",
          "name": "amount",
          "type": "uint256"
        }
      ],
      "name": "LevelRewardReleased",
      "type": "event"
    },
    {
      "anonymous": false,
      "inputs": [
        {
          "indexed": false,
          "internalType": "uint256",
          "name": "mcAmount",
          "type": "uint256"
        },
        {
          "indexed": false,
          "internalType": "uint256",
          "name": "jbcAmount",
          "type": "uint256"
        }
      ],
      "name": "LiquidityAdded",
      "type": "event"
    },
    {
      "anonymous": false,
      "inputs": [
        {
          "indexed": true,
          "internalType": "address",
          "name": "user",
          "type": "address"
        },
        {
          "indexed": false,
          "internalType": "uint256",
          "name": "amount",
          "type": "uint256"
        },
        {
          "indexed": false,
          "internalType": "uint256",
          "name": "cycleDays",
          "type": "uint256"
        },
        {
          "indexed": false,
          "internalType": "uint256",
          "name": "stakeId",
          "type": "uint256"
        }
      ],
      "name": "LiquidityStaked",
      "type": "event"
    },
    {
      "anonymous": false,
      "inputs": [
        {
          "indexed": true,
          "internalType": "address",
          "name": "previousOwner",
          "type": "address"
        },
        {
          "indexed": true,
          "internalType": "address",
          "name": "newOwner",
          "type": "address"
        }
      ],
      "name": "OwnershipTransferred",
      "type": "event"
    },
    {
      "anonymous": false,
      "inputs": [
        {
          "indexed": true,
          "internalType": "address",
          "name": "user",
          "type": "address"
        },
        {
          "indexed": false,
          "internalType": "uint256",
          "name": "principal",
          "type": "uint256"
        },
        {
          "indexed": false,
          "internalType": "uint256",
          "name": "fee",
          "type": "uint256"
        }
      ],
      "name": "Redeemed",
      "type": "event"
    },
    {
      "anonymous": false,
      "inputs": [
        {
          "indexed": true,
          "internalType": "address",
          "name": "user",
          "type": "address"
        },
        {
          "indexed": false,
          "internalType": "uint256",
          "name": "amount",
          "type": "uint256"
        },
        {
          "indexed": false,
          "internalType": "uint256",
          "name": "cappedAmount",
          "type": "uint256"
        }
      ],
      "name": "RewardCapped",
      "type": "event"
    },
    {
      "anonymous": false,
      "inputs": [
        {
          "indexed": true,
          "internalType": "address",
          "name": "user",
          "type": "address"
        },
        {
          "indexed": false,
          "internalType": "uint256",
          "name": "amount",
          "type": "uint256"
        },
        {
          "indexed": false,
          "internalType": "uint8",
          "name": "rewardType",
          "type": "uint8"
        }
      ],
      "name": "RewardPaid",
      "type": "event"
    },
    {
      "anonymous": false,
      "inputs": [
        {
          "indexed": true,
          "internalType": "address",
          "name": "user",
          "type": "address"
        },
        {
          "indexed": false,
          "internalType": "uint256",
          "name": "jbcAmount",
          "type": "uint256"
        },
        {
          "indexed": false,
          "internalType": "uint256",
          "name": "mcAmount",
          "type": "uint256"
        },
        {
          "indexed": false,
          "internalType": "uint256",
          "name": "tax",
          "type": "uint256"
        }
      ],
      "name": "SwappedJBCToMC",
      "type": "event"
    },
    {
      "anonymous": false,
      "inputs": [
        {
          "indexed": true,
          "internalType": "address",
          "name": "user",
          "type": "address"
        },
        {
          "indexed": false,
          "internalType": "uint256",
          "name": "mcAmount",
          "type": "uint256"
        },
        {
          "indexed": false,
          "internalType": "uint256",
          "name": "jbcAmount",
          "type": "uint256"
        },
        {
          "indexed": false,
          "internalType": "uint256",
          "name": "tax",
          "type": "uint256"
        }
      ],
      "name": "SwappedMCToJBC",
      "type": "event"
    },
    {
      "anonymous": false,
      "inputs": [
        {
          "indexed": true,
          "internalType": "address",
          "name": "user",
          "type": "address"
        },
        {
          "indexed": false,
          "internalType": "uint256",
          "name": "amount",
          "type": "uint256"
        },
        {
          "indexed": false,
          "internalType": "uint256",
          "name": "ticketId",
          "type": "uint256"
        }
      ],
      "name": "TicketPurchased",
      "type": "event"
    },
    {
      "inputs": [],
      "name": "REWARD_DIRECT",
      "outputs": [
        {
          "internalType": "uint8",
          "name": "",
          "type": "uint8"
        }
      ],
      "stateMutability": "view",
      "type": "function"
    },
    {
      "inputs": [],
      "name": "REWARD_DYNAMIC",
      "outputs": [
        {
          "internalType": "uint8",
          "name": "",
          "type": "uint8"
        }
      ],
      "stateMutability": "view",
      "type": "function"
    },
    {
      "inputs": [],
      "name": "REWARD_LEVEL",
      "outputs": [
        {
          "internalType": "uint8",
          "name": "",
          "type": "uint8"
        }
      ],
      "stateMutability": "view",
      "type": "function"
    },
    {
      "inputs": [],
      "name": "REWARD_STATIC",
      "outputs": [
        {
          "internalType": "uint8",
          "name": "",
          "type": "uint8"
        }
      ],
      "stateMutability": "view",
      "type": "function"
    },
    {
      "inputs": [],
      "name": "SECONDS_IN_UNIT",
      "outputs": [
        {
          "internalType": "uint256",
          "name": "",
          "type": "uint256"
        }
      ],
      "stateMutability": "view",
      "type": "function"
    },
    {
      "inputs": [
        {
          "internalType": "uint256",
          "name": "mcAmount",
          "type": "uint256"
        },
        {
          "internalType": "uint256",
          "name": "jbcAmount",
          "type": "uint256"
        }
      ],
      "name": "addLiquidity",
      "outputs": [],
      "stateMutability": "nonpayable",
      "type": "function"
    },
    {
      "inputs": [
        {
          "internalType": "address",
          "name": "user",
          "type": "address"
        },
        {
          "internalType": "address",
          "name": "newReferrer",
          "type": "address"
        }
      ],
      "name": "adminSetReferrer",
      "outputs": [],
      "stateMutability": "nonpayable",
      "type": "function"
    },
    {
      "inputs": [
        {
          "internalType": "address",
          "name": "user",
          "type": "address"
        },
        {
          "internalType": "uint256",
          "name": "_activeDirects",
          "type": "uint256"
        },
        {
          "internalType": "uint256",
          "name": "_teamCount",
          "type": "uint256"
        }
      ],
      "name": "adminSetUserStats",
      "outputs": [],
      "stateMutability": "nonpayable",
      "type": "function"
    },
    {
      "inputs": [
        {
          "internalType": "uint256",
          "name": "amount",
          "type": "uint256"
        },
        {
          "internalType": "address",
          "name": "to",
          "type": "address"
        }
      ],
      "name": "adminWithdrawJBC",
      "outputs": [],
      "stateMutability": "nonpayable",
      "type": "function"
    },
    {
      "inputs": [
        {
          "internalType": "uint256",
          "name": "amount",
          "type": "uint256"
        },
        {
          "internalType": "address",
          "name": "to",
          "type": "address"
        }
      ],
      "name": "adminWithdrawMC",
      "outputs": [],
      "stateMutability": "nonpayable",
      "type": "function"
    },
    {
      "inputs": [
        {
          "internalType": "address",
          "name": "_referrer",
          "type": "address"
        }
      ],
      "name": "bindReferrer",
      "outputs": [],
      "stateMutability": "nonpayable",
      "type": "function"
    },
    {
      "inputs": [
        {
          "internalType": "uint256",
          "name": "amount",
          "type": "uint256"
        }
      ],
      "name": "buyTicket",
      "outputs": [],
      "stateMutability": "nonpayable",
      "type": "function"
    },
    {
      "inputs": [],
      "name": "buybackPercent",
      "outputs": [
        {
          "internalType": "uint256",
          "name": "",
          "type": "uint256"
        }
      ],
      "stateMutability": "view",
      "type": "function"
    },
    {
      "inputs": [],
      "name": "buybackWallet",
      "outputs": [
        {
          "internalType": "address",
          "name": "",
          "type": "address"
        }
      ],
      "stateMutability": "view",
      "type": "function"
    },
    {
      "inputs": [],
      "name": "claimRewards",
      "outputs": [],
      "stateMutability": "nonpayable",
      "type": "function"
    },
    {
      "inputs": [
        {
          "internalType": "address",
          "name": "",
          "type": "address"
        },
        {
          "internalType": "uint256",
          "name": "",
          "type": "uint256"
        }
      ],
      "name": "directReferrals",
      "outputs": [
        {
          "internalType": "address",
          "name": "",
          "type": "address"
        }
      ],
      "stateMutability": "view",
      "type": "function"
    },
    {
      "inputs": [],
      "name": "directRewardPercent",
      "outputs": [
        {
          "internalType": "uint256",
          "name": "",
          "type": "uint256"
        }
      ],
      "stateMutability": "view",
      "type": "function"
    },
    {
      "inputs": [
        {
          "internalType": "uint256",
          "name": "amountIn",
          "type": "uint256"
        },
        {
          "internalType": "uint256",
          "name": "reserveIn",
          "type": "uint256"
        },
        {
          "internalType": "uint256",
          "name": "reserveOut",
          "type": "uint256"
        }
      ],
      "name": "getAmountOut",
      "outputs": [
        {
          "internalType": "uint256",
          "name": "",
          "type": "uint256"
        }
      ],
      "stateMutability": "pure",
      "type": "function"
    },
    {
      "inputs": [],
      "name": "getJBCPrice",
      "outputs": [
        {
          "internalType": "uint256",
          "name": "",
          "type": "uint256"
        }
      ],
      "stateMutability": "view",
      "type": "function"
    },
    {
      "inputs": [
        {
          "internalType": "uint256",
          "name": "activeDirects",
          "type": "uint256"
        }
      ],
      "name": "getLevel",
      "outputs": [
        {
          "internalType": "uint256",
          "name": "level",
          "type": "uint256"
        },
        {
          "internalType": "uint256",
          "name": "percent",
          "type": "uint256"
        }
      ],
      "stateMutability": "pure",
      "type": "function"
    },
    {
      "inputs": [],
      "name": "jbcToken",
      "outputs": [
        {
          "internalType": "contract IJBC",
          "name": "",
          "type": "address"
        }
      ],
      "stateMutability": "view",
      "type": "function"
    },
    {
      "inputs": [],
      "name": "levelRewardPercent",
      "outputs": [
        {
          "internalType": "uint256",
          "name": "",
          "type": "uint256"
        }
      ],
      "stateMutability": "view",
      "type": "function"
    },
    {
      "inputs": [],
      "name": "lpInjectionPercent",
      "outputs": [
        {
          "internalType": "uint256",
          "name": "",
          "type": "uint256"
        }
      ],
      "stateMutability": "view",
      "type": "function"
    },
    {
      "inputs": [],
      "name": "lpInjectionWallet",
      "outputs": [
        {
          "internalType": "address",
          "name": "",
          "type": "address"
        }
      ],
      "stateMutability": "view",
      "type": "function"
    },
    {
      "inputs": [],
      "name": "marketingPercent",
      "outputs": [
        {
          "internalType": "uint256",
          "name": "",
          "type": "uint256"
        }
      ],
      "stateMutability": "view",
      "type": "function"
    },
    {
      "inputs": [],
      "name": "marketingWallet",
      "outputs": [
        {
          "internalType": "address",
          "name": "",
          "type": "address"
        }
      ],
      "stateMutability": "view",
      "type": "function"
    },
    {
      "inputs": [],
      "name": "mcToken",
      "outputs": [
        {
          "internalType": "contract IERC20",
          "name": "",
          "type": "address"
        }
      ],
      "stateMutability": "view",
      "type": "function"
    },
    {
      "inputs": [],
      "name": "nextStakeId",
      "outputs": [
        {
          "internalType": "uint256",
          "name": "",
          "type": "uint256"
        }
      ],
      "stateMutability": "view",
      "type": "function"
    },
    {
      "inputs": [],
      "name": "nextTicketId",
      "outputs": [
        {
          "internalType": "uint256",
          "name": "",
          "type": "uint256"
        }
      ],
      "stateMutability": "view",
      "type": "function"
    },
    {
      "inputs": [],
      "name": "owner",
      "outputs": [
        {
          "internalType": "address",
          "name": "",
          "type": "address"
        }
      ],
      "stateMutability": "view",
      "type": "function"
    },
    {
      "inputs": [],
      "name": "redeem",
      "outputs": [],
      "stateMutability": "nonpayable",
      "type": "function"
    },
    {
      "inputs": [],
      "name": "redemptionFeePercent",
      "outputs": [
        {
          "internalType": "uint256",
          "name": "",
          "type": "uint256"
        }
      ],
      "stateMutability": "view",
      "type": "function"
    },
    {
      "inputs": [],
      "name": "renounceOwnership",
      "outputs": [],
      "stateMutability": "nonpayable",
      "type": "function"
    },
    {
      "inputs": [
        {
          "internalType": "uint256",
          "name": "_direct",
          "type": "uint256"
        },
        {
          "internalType": "uint256",
          "name": "_level",
          "type": "uint256"
        },
        {
          "internalType": "uint256",
          "name": "_marketing",
          "type": "uint256"
        },
        {
          "internalType": "uint256",
          "name": "_buyback",
          "type": "uint256"
        },
        {
          "internalType": "uint256",
          "name": "_lp",
          "type": "uint256"
        },
        {
          "internalType": "uint256",
          "name": "_treasury",
          "type": "uint256"
        }
      ],
      "name": "setDistributionPercents",
      "outputs": [],
      "stateMutability": "nonpayable",
      "type": "function"
    },
    {
      "inputs": [
        {
          "internalType": "uint256",
          "name": "_fee",
          "type": "uint256"
        }
      ],
      "name": "setRedemptionFee",
      "outputs": [],
      "stateMutability": "nonpayable",
      "type": "function"
    },
    {
      "inputs": [
        {
          "internalType": "uint256",
          "name": "_buyTax",
          "type": "uint256"
        },
        {
          "internalType": "uint256",
          "name": "_sellTax",
          "type": "uint256"
        }
      ],
      "name": "setSwapTaxes",
      "outputs": [],
      "stateMutability": "nonpayable",
      "type": "function"
    },
    {
      "inputs": [
        {
          "internalType": "address",
          "name": "_marketing",
          "type": "address"
        },
        {
          "internalType": "address",
          "name": "_treasury",
          "type": "address"
        },
        {
          "internalType": "address",
          "name": "_lpInjection",
          "type": "address"
        },
        {
          "internalType": "address",
          "name": "_buyback",
          "type": "address"
        }
      ],
      "name": "setWallets",
      "outputs": [],
      "stateMutability": "nonpayable",
      "type": "function"
    },
    {
      "inputs": [
        {
          "internalType": "uint256",
          "name": "amount",
          "type": "uint256"
        },
        {
          "internalType": "uint256",
          "name": "cycleDays",
          "type": "uint256"
        }
      ],
      "name": "stakeLiquidity",
      "outputs": [],
      "stateMutability": "nonpayable",
      "type": "function"
    },
    {
      "inputs": [],
      "name": "swapBuyTax",
      "outputs": [
        {
          "internalType": "uint256",
          "name": "",
          "type": "uint256"
        }
      ],
      "stateMutability": "view",
      "type": "function"
    },
    {
      "inputs": [
        {
          "internalType": "uint256",
          "name": "jbcAmount",
          "type": "uint256"
        }
      ],
      "name": "swapJBCToMC",
      "outputs": [],
      "stateMutability": "nonpayable",
      "type": "function"
    },
    {
      "inputs": [
        {
          "internalType": "uint256",
          "name": "mcAmount",
          "type": "uint256"
        }
      ],
      "name": "swapMCToJBC",
      "outputs": [],
      "stateMutability": "nonpayable",
      "type": "function"
    },
    {
      "inputs": [],
      "name": "swapReserveJBC",
      "outputs": [
        {
          "internalType": "uint256",
          "name": "",
          "type": "uint256"
        }
      ],
      "stateMutability": "view",
      "type": "function"
    },
    {
      "inputs": [],
      "name": "swapReserveMC",
      "outputs": [
        {
          "internalType": "uint256",
          "name": "",
          "type": "uint256"
        }
      ],
      "stateMutability": "view",
      "type": "function"
    },
    {
      "inputs": [],
      "name": "swapSellTax",
      "outputs": [
        {
          "internalType": "uint256",
          "name": "",
          "type": "uint256"
        }
      ],
      "stateMutability": "view",
      "type": "function"
    },
    {
      "inputs": [
        {
          "internalType": "uint256",
          "name": "",
          "type": "uint256"
        },
        {
          "internalType": "uint256",
          "name": "",
          "type": "uint256"
        }
      ],
      "name": "ticketPendingRewards",
      "outputs": [
        {
          "internalType": "address",
          "name": "upline",
          "type": "address"
        },
        {
          "internalType": "uint256",
          "name": "amount",
          "type": "uint256"
        }
      ],
      "stateMutability": "view",
      "type": "function"
    },
    {
      "inputs": [
        {
          "internalType": "address",
          "name": "newOwner",
          "type": "address"
        }
      ],
      "name": "transferOwnership",
      "outputs": [],
      "stateMutability": "nonpayable",
      "type": "function"
    },
    {
      "inputs": [],
      "name": "treasuryPercent",
      "outputs": [
        {
          "internalType": "uint256",
          "name": "",
          "type": "uint256"
        }
      ],
      "stateMutability": "view",
      "type": "function"
    },
    {
      "inputs": [],
      "name": "treasuryWallet",
      "outputs": [
        {
          "internalType": "address",
          "name": "",
          "type": "address"
        }
      ],
      "stateMutability": "view",
      "type": "function"
    },
    {
      "inputs": [
        {
          "internalType": "address",
          "name": "",
          "type": "address"
        }
      ],
      "name": "userInfo",
      "outputs": [
        {
          "internalType": "address",
          "name": "referrer",
          "type": "address"
        },
        {
          "internalType": "uint256",
          "name": "activeDirects",
          "type": "uint256"
        },
        {
          "internalType": "uint256",
          "name": "teamCount",
          "type": "uint256"
        },
        {
          "internalType": "uint256",
          "name": "totalRevenue",
          "type": "uint256"
        },
        {
          "internalType": "uint256",
          "name": "currentCap",
          "type": "uint256"
        },
        {
          "internalType": "bool",
          "name": "isActive",
          "type": "bool"
        },
        {
          "internalType": "uint256",
          "name": "refundFeeAmount",
          "type": "uint256"
        }
      ],
      "stateMutability": "view",
      "type": "function"
    },
    {
      "inputs": [
        {
          "internalType": "address",
          "name": "",
          "type": "address"
        },
        {
          "internalType": "uint256",
          "name": "",
          "type": "uint256"
        }
      ],
      "name": "userStakes",
      "outputs": [
        {
          "internalType": "uint256",
          "name": "id",
          "type": "uint256"
        },
        {
          "internalType": "uint256",
          "name": "amount",
          "type": "uint256"
        },
        {
          "internalType": "uint256",
          "name": "startTime",
          "type": "uint256"
        },
        {
          "internalType": "uint256",
          "name": "cycleDays",
          "type": "uint256"
        },
        {
          "internalType": "bool",
          "name": "active",
          "type": "bool"
        },
        {
          "internalType": "uint256",
          "name": "paid",
          "type": "uint256"
        }
      ],
      "stateMutability": "view",
      "type": "function"
    },
    {
      "inputs": [
        {
          "internalType": "address",
          "name": "",
          "type": "address"
        }
      ],
      "name": "userTicket",
      "outputs": [
        {
          "internalType": "uint256",
          "name": "ticketId",
          "type": "uint256"
        },
        {
          "internalType": "uint256",
          "name": "amount",
          "type": "uint256"
        },
        {
          "internalType": "uint256",
          "name": "purchaseTime",
          "type": "uint256"
        },
        {
          "internalType": "bool",
          "name": "exited",
          "type": "bool"
        }
      ],
      "stateMutability": "view",
      "type": "function"
    }
  ],
  "bytecode": "0x60806040526019600855600f6009556005600a556005600b556019600c556019600d556001600e556032600f5560196010553480156200003e57600080fd5b5060405162003b3f38038062003b3f833981016040819052620000619162000178565b33806200008857604051631e4fbdf760e01b81526000600482015260240160405180910390fd5b62000093816200010b565b5060018055600280546001600160a01b03199081166001600160a01b0398891617909155600380548216968816969096179095556004805486169487169490941790935560058054851692861692909217909155600680548416918516919091179055600780549092169216919091179055620001f9565b600080546001600160a01b038381166001600160a01b0319831681178455604051919092169283917f8be0079c531659141344cd1fd0a4f28419497f9722a3daafe3b4186f6b6457e09190a35050565b80516001600160a01b03811681146200017357600080fd5b919050565b60008060008060008060c087890312156200019257600080fd5b6200019d876200015b565b9550620001ad602088016200015b565b9450620001bd604088016200015b565b9350620001cd606088016200015b565b9250620001dd608088016200015b565b9150620001ed60a088016200015b565b90509295509295509295565b61393680620002096000396000f3fe608060405234801561001057600080fd5b50600436106102f15760003560e01c80637dbc1df01161019d578063a2af9226116100e9578063d241e001116100a2578063dec7fa3b1161007c578063dec7fa3b146106fe578063e4412f6814610707578063ecda2d3214610710578063f2fde38b1461072357600080fd5b8063d241e001146106cf578063d8020a18146106e2578063deab8aea146106eb57600080fd5b8063a2af922614610657578063b5d5b5fa1461066a578063bd594dcf146106ac578063be040fb0146106b5578063ccf61944146106bd578063ceaa366d146106c657600080fd5b80638a859a851161015657806390b0eb511161013057806390b0eb51146106155780639370b0801461062857806395253992146106315780639cd441da1461064457600080fd5b80638a859a85146105f45780638c0eaa48146105fc5780638da5cb5b1461060457600080fd5b80637dbc1df014610518578063813380cd1461052b57806383672f3e1461054c57806386481d401461055f5780638710bcaa1461058757806388fd4d33146105e157600080fd5b80633a3ea2f01161025c57806362eea91411610215578063715018a6116101ef578063715018a6146104eb57806375506c96146104f357806375f0a874146104fc57806377a2a5401461050f57600080fd5b806362eea914146104b257806367dd74ca146104c55780636fb3c47c146104d857600080fd5b80633a3ea2f0146104605780634626402b14610468578063488b5d971461047b5780634ea4c6b31461048357806352778b05146104965780636031a52f146104a957600080fd5b80631427f616116102ae5780631427f616146103925780631788513c1461039a5780631959a002146103ad5780631d0dac761461044657806327f082f41461044f578063372500ab1461045857600080fd5b806304ef9d58146102f657806304f618cb14610312578063054d50d41461032757806305ad39351461033a5780630a5c4567146103655780630e2be21014610378575b600080fd5b6102ff600d5481565b6040519081526020015b60405180910390f35b6103256103203660046135de565b610736565b005b6102ff610335366004613600565b6108a3565b61034d61034836600461362c565b610979565b6040516001600160a01b039091168152602001610309565b610325610373366004613656565b6109b1565b610380600281565b60405160ff9091168152602001610309565b610380600081565b60035461034d906001600160a01b031681565b6104056103bb3660046135de565b60116020526000908152604090208054600182015460028301546003840154600485015460058601546006909601546001600160a01b0390951695939492939192909160ff169087565b604080516001600160a01b03909816885260208801969096529486019390935260608501919091526080840152151560a083015260c082015260e001610309565b6102ff60175481565b6102ff600f5481565b610325610cc5565b6102ff6112ff565b60055461034d906001600160a01b031681565b6102ff603c81565b61032561049136600461366f565b611420565b6103256104a4366004613656565b611808565b6102ff60185481565b6103256104c0366004613691565b611b21565b6103256104d3366004613656565b611ba3565b6103256104e63660046136bd565b61212c565b61032561215b565b6102ff60195481565b60045461034d906001600160a01b031681565b6102ff60165481565b610325610526366004613656565b61216d565b61053e61053936600461366f565b6121b9565b6040516103099291906136f0565b61032561055a366004613709565b6121ff565b61057261056d366004613656565b612257565b60408051928352602083019190915201610309565b6105bf6105953660046135de565b60126020526000908152604090208054600182015460028301546003909301549192909160ff1684565b6040805194855260208501939093529183015215156060820152608001610309565b60065461034d906001600160a01b031681565b610380600181565b610380600381565b6000546001600160a01b031661034d565b61032561062336600461366f565b612320565b6102ff60105481565b60025461034d906001600160a01b031681565b61032561065236600461366f565b61237f565b61032561066536600461375d565b612539565b61067d61067836600461362c565b61273d565b6040805196875260208701959095529385019290925260608401521515608083015260a082015260c001610309565b6102ff60095481565b610325612797565b6102ff60085481565b6102ff600c5481565b6103256106dd366004613691565b612a7f565b6102ff600a5481565b60075461034d906001600160a01b031681565b6102ff600e5481565b6102ff600b5481565b61032561071e366004613787565b612ab9565b6103256107313660046135de565b612b57565b336000908152601160205260409020546001600160a01b0316156107915760405162461bcd60e51b815260206004820152600d60248201526c105b1c9958591e48189bdd5b99609a1b60448201526064015b60405180910390fd5b336001600160a01b038216036107dc5760405162461bcd60e51b815260206004820152601060248201526f21b0b73737ba103134b7321039b2b63360811b6044820152606401610788565b6001600160a01b0381166108255760405162461bcd60e51b815260206004820152601060248201526f24b73b30b634b2103932b332b93932b960811b6044820152606401610788565b33600081815260116020908152604080832080546001600160a01b0387166001600160a01b0319918216811790925581855260148452828520805460018101825590865293852090930180549093168517909255519092917fa6dbb5aa28f35437de94d685d66edce5fb4812196b4984b91dfd5a7b38c0fb3091a350565b60008084116108f45760405162461bcd60e51b815260206004820152601960248201527f496e73756666696369656e7420696e70757420616d6f756e74000000000000006044820152606401610788565b6000831180156109045750600082115b6109495760405162461bcd60e51b8152602060048201526016602482015275496e73756666696369656e74206c697175696469747960501b6044820152606401610788565b600061095583866137e0565b9050600061096386866137fd565b905061096f8183613810565b9695505050505050565b6014602052816000526040600020818154811061099557600080fd5b6000918252602090912001546001600160a01b03169150829050565b6109b9612b92565b600081116109fa5760405162461bcd60e51b815260206004820152600e60248201526d125b9d985b1a5908185b5bdd5b9d60921b6044820152606401610788565b6002546040516323b872dd60e01b81526001600160a01b03909116906323b872dd90610a2e90339030908690600401613832565b6020604051808303816000875af1158015610a4d573d6000803e3d6000fd5b505050506040513d601f19601f82011682018060405250810190610a719190613856565b506000610a83826016546017546108a3565b905060006064600f5483610a9791906137e0565b610aa19190613810565b90506000610aaf8284613878565b6003546040516370a0823160e01b815230600482015291925084916001600160a01b03909116906370a0823190602401602060405180830381865afa158015610afc573d6000803e3d6000fd5b505050506040513d601f19601f82011682018060405250810190610b20919061388b565b1015610b6e5760405162461bcd60e51b815260206004820152601a60248201527f496e73756666696369656e74204a4243206c69717569646974790000000000006044820152606401610788565b8360166000828254610b8091906137fd565b925050819055508260176000828254610b999190613878565b9091555050600354604051630852cd8d60e31b8152600481018490526001600160a01b03909116906342966c6890602401600060405180830381600087803b158015610be457600080fd5b505af1158015610bf8573d6000803e3d6000fd5b505060035460405163a9059cbb60e01b81526001600160a01b03909116925063a9059cbb9150610c2e90339085906004016136f0565b6020604051808303816000875af1158015610c4d573d6000803e3d6000fd5b505050506040513d601f19601f82011682018060405250810190610c719190613856565b50604080518581526020810183905290810183905233907f36864aeefce16bc4aaceeb6b0cdfb2ad1455a8cb4ccb0db148a2bc6e7166f97c906060015b60405180910390a2505050610cc260018055565b50565b610ccd612b92565b336000908152601260205260409020600181015415801590610cf45750600381015460ff16155b610d2d5760405162461bcd60e51b815260206004820152600a6024820152694e6f742061637469766560b01b6044820152606401610788565b33600090815260136020526040812090805b8254811015610f9357828181548110610d5a57610d5a6138a4565b600091825260209091206004600690920201015460ff1615610f81576000838281548110610d8a57610d8a6138a4565b906000526020600020906006020160030154600703610dab57506014610e0d565b838281548110610dbd57610dbd6138a4565b906000526020600020906006020160030154600f03610dde57506019610e0d565b838281548110610df057610df06138a4565b906000526020600020906006020160030154601e03610e0d5750601e5b6000603c858481548110610e2357610e236138a4565b90600052602060002090600602016002015442610e409190613878565b610e4a9190613810565b9050848381548110610e5e57610e5e6138a4565b906000526020600020906006020160030154811115610e9e57848381548110610e8957610e896138a4565b90600052602060002090600602016003015490505b80600003610ead575050610f81565b60006103e88284888781548110610ec657610ec66138a4565b906000526020600020906006020160010154610ee291906137e0565b610eec91906137e0565b610ef69190613810565b90506000868581548110610f0c57610f0c6138a4565b906000526020600020906006020160050154905080821115610f7c576000610f348284613878565b9050610f4081886137fd565b965080888781548110610f5557610f556138a4565b90600052602060002090600602016005016000828254610f7591906137fd565b9091555050505b505050505b80610f8b816138ba565b915050610d3f565b5060008111610fd55760405162461bcd60e51b815260206004820152600e60248201526d4e6f206e6577207265776172647360901b6044820152606401610788565b3360009081526011602052604090206004810154600390910154610ffa9083906137fd565b11156110275733600090815260116020526040902060038101546004909101546110249190613878565b90505b806000036110405761103833612bbc565b5050506112f4565b33600090815260116020526040812060030180548392906110629084906137fd565b9091555060009050611075600283613810565b90506000611084600284613810565b6002546040516370a0823160e01b815230600482015291925083916001600160a01b03909116906370a0823190602401602060405180830381865afa1580156110d1573d6000803e3d6000fd5b505050506040513d601f19601f820116820180604052508101906110f5919061388b565b106111715760025460405163a9059cbb60e01b81526001600160a01b039091169063a9059cbb9061112c90339086906004016136f0565b6020604051808303816000875af115801561114b573d6000803e3d6000fd5b505050506040513d601f19601f8201168201806040525081019061116f9190613856565b505b600061117b6112ff565b905060008161119284670de0b6b3a76400006137e0565b61119c9190613810565b6003546040516370a0823160e01b815230600482015291925082916001600160a01b03909116906370a0823190602401602060405180830381865afa1580156111e9573d6000803e3d6000fd5b505050506040513d601f19601f8201168201806040525081019061120d919061388b565b106112895760035460405163a9059cbb60e01b81526001600160a01b039091169063a9059cbb9061124490339085906004016136f0565b6020604051808303816000875af1158015611263573d6000803e3d6000fd5b505050506040513d601f19601f820116820180604052508101906112879190613856565b505b604080518681526000602082015233917ff381583145e90b82cc5e529bf4fc4d0e44397174cdf145c4251ac33ef195a424910160405180910390a23360009081526011602052604090206004810154600390910154106112ec576112ec33612bbc565b505050505050505b6112fd60018055565b565b6002546040516370a0823160e01b815230600482015260009182916001600160a01b03909116906370a0823190602401602060405180830381865afa15801561134c573d6000803e3d6000fd5b505050506040513d601f19601f82011682018060405250810190611370919061388b565b6003546040516370a0823160e01b81523060048201529192506000916001600160a01b03909116906370a0823190602401602060405180830381865afa1580156113be573d6000803e3d6000fd5b505050506040513d601f19601f820116820180604052508101906113e2919061388b565b9050806000036113fc57670de0b6b3a76400009250505090565b8061140f83670de0b6b3a76400006137e0565b6114199190613810565b9250505090565b611428612b92565b33600090815260126020526040902060018101546114745760405162461bcd60e51b8152602060048201526009602482015268139bc81d1a58dad95d60ba1b6044820152606401610788565b600381015460ff16156114b95760405162461bcd60e51b815260206004820152600d60248201526c151a58dad95d08195e1a5d1959609a1b6044820152606401610788565b81600714806114c8575081600f145b806114d3575081601e145b61150f5760405162461bcd60e51b815260206004820152600d60248201526c496e76616c6964206379636c6560981b6044820152606401610788565b6000831161154d5760405162461bcd60e51b815260206004820152600b60248201526a16995c9bc8185b5bdd5b9d60aa1b6044820152606401610788565b6002546040516323b872dd60e01b81526001600160a01b03909116906323b872dd9061158190339030908890600401613832565b6020604051808303816000875af11580156115a0573d6000803e3d6000fd5b505050506040513d601f19601f820116820180604052508101906115c49190613856565b50601980549060006115d5836138ba565b9091555050336000818152601360209081526040808320815160c0810183526019805482528185018a81524283860190815260608085018c815260016080870181815260a088018c815289548084018b55998d529b8b9020975160069099029097019788559351938701939093559051600286015590516003850155915160048401805460ff1916911515919091179055945160059092019190915592548151888152928301879052908201527fa8a1b9e33e503eed12bf7e7c8c01c7f3b60217a496bddd0f5db351dd8c056c1c910160405180910390a23360009081526011602052604090206006015480156117f957336000908152601160205260408082206006019190915560025490516370a0823160e01b815230600482015282916001600160a01b0316906370a0823190602401602060405180830381865afa158015611724573d6000803e3d6000fd5b505050506040513d601f19601f82011682018060405250810190611748919061388b565b106117f95760025460405163a9059cbb60e01b81526001600160a01b039091169063a9059cbb9061177f90339085906004016136f0565b6020604051808303816000875af115801561179e573d6000803e3d6000fd5b505050506040513d601f19601f820116820180604052508101906117c29190613856565b5060405181815233907f3437b9ea7fa19c6d233dd70cc787a70fab87cee64d8ba4571512cc84402748f99060200160405180910390a25b505061180460018055565b5050565b611810612b92565b600081116118515760405162461bcd60e51b815260206004820152600e60248201526d125b9d985b1a5908185b5bdd5b9d60921b6044820152606401610788565b6003546040516323b872dd60e01b81526001600160a01b03909116906323b872dd9061188590339030908690600401613832565b6020604051808303816000875af11580156118a4573d6000803e3d6000fd5b505050506040513d601f19601f820116820180604052508101906118c89190613856565b5060006064601054836118db91906137e0565b6118e59190613810565b905060006118f38284613878565b600354604051630852cd8d60e31b8152600481018590529192506001600160a01b0316906342966c6890602401600060405180830381600087803b15801561193a57600080fd5b505af115801561194e573d6000803e3d6000fd5b505050506000611963826017546016546108a3565b6002546040516370a0823160e01b815230600482015291925082916001600160a01b03909116906370a0823190602401602060405180830381865afa1580156119b0573d6000803e3d6000fd5b505050506040513d601f19601f820116820180604052508101906119d4919061388b565b1015611a225760405162461bcd60e51b815260206004820152601960248201527f496e73756666696369656e74204d43206c6971756964697479000000000000006044820152606401610788565b8360176000828254611a3491906137fd565b925050819055508160176000828254611a4d91906137fd565b925050819055508060166000828254611a669190613878565b909155505060025460405163a9059cbb60e01b81526001600160a01b039091169063a9059cbb90611a9d90339085906004016136f0565b6020604051808303816000875af1158015611abc573d6000803e3d6000fd5b505050506040513d601f19601f82011682018060405250810190611ae09190613856565b50604080518581526020810183905290810184905233907f223c8ad0806f634524940a8595f819c5cfc7b1f4f4f45791269301df0a7e61d590606001610cae565b611b29612eb7565b60035460405163a9059cbb60e01b81526001600160a01b039091169063a9059cbb90611b5b90849086906004016136f0565b6020604051808303816000875af1158015611b7a573d6000803e3d6000fd5b505050506040513d601f19601f82011682018060405250810190611b9e9190613856565b505050565b611bab612b92565b8068056bc75e2d631000001480611bca575080681043561a8829300000145b80611bdd575080681b1ae4d6e2ef500000145b80611bf0575080683635c9adc5dea00000145b611c345760405162461bcd60e51b8152602060048201526015602482015274125b9d985b1a59081d1a58dad95d08185b5bdd5b9d605a1b6044820152606401610788565b336000908152601260205260409020600181015415611c9a57600381015460ff16611c9a5760405162461bcd60e51b815260206004820152601660248201527550726576696f7573207469636b65742061637469766560501b6044820152606401610788565b6002546040516323b872dd60e01b81526001600160a01b03909116906323b872dd90611cce90339030908790600401613832565b6020604051808303816000875af1158015611ced573d6000803e3d6000fd5b505050506040513d601f19601f82011682018060405250810190611d119190613856565b5060188054906000611d22836138ba565b90915550506040805160808101825260185481526020808201858152428385019081526000606085018181523382526012855286822095518655925160018601559051600285015590516003938401805460ff19169115159190911790556011909152918220810191909155611d999083906137e0565b33600090815260116020526040902060048101919091556005015460ff16611e185733600090815260116020526040902060058101805460ff19166001179055546001600160a01b03168015611e16576001600160a01b0381166000908152601160205260408120600101805491611e10836138ba565b91905055505b505b336000908152601160205260409020546001600160a01b03168015611e67576000606460085485611e4991906137e0565b611e539190613810565b9050611e6182826002612ee4565b50611efd565b6002546004546008546001600160a01b039283169263a9059cbb921690606490611e9190886137e0565b611e9b9190613810565b6040518363ffffffff1660e01b8152600401611eb89291906136f0565b6020604051808303816000875af1158015611ed7573d6000803e3d6000fd5b505050506040513d601f19601f82011682018060405250810190611efb9190613856565b505b611f0a338460185461308e565b600254600454600a546001600160a01b039283169263a9059cbb921690606490611f3490886137e0565b611f3e9190613810565b6040518363ffffffff1660e01b8152600401611f5b9291906136f0565b6020604051808303816000875af1158015611f7a573d6000803e3d6000fd5b505050506040513d601f19601f82011682018060405250810190611f9e9190613856565b5060006064600b5485611fb191906137e0565b611fbb9190613810565b9050611fc681613205565b600254600654600c546001600160a01b039283169263a9059cbb921690606490611ff090896137e0565b611ffa9190613810565b6040518363ffffffff1660e01b81526004016120179291906136f0565b6020604051808303816000875af1158015612036573d6000803e3d6000fd5b505050506040513d601f19601f8201168201806040525081019061205a9190613856565b50600254600554600d546001600160a01b039283169263a9059cbb92169060649061208590896137e0565b61208f9190613810565b6040518363ffffffff1660e01b81526004016120ac9291906136f0565b6020604051808303816000875af11580156120cb573d6000803e3d6000fd5b505050506040513d601f19601f820116820180604052508101906120ef9190613856565b5060185460405133917f2a91574e12ad96234e84923e146b0946ecfb871cd8d5534dc1fdcbe87a7c01b391610cae91888252602082015260400190565b612134612eb7565b6001600160a01b039092166000908152601160205260409020600181019190915560020155565b612163612eb7565b6112fd60006133bd565b612175612eb7565b60648111156121b45760405162461bcd60e51b815260206004820152600b60248201526a496e76616c69642066656560a81b6044820152606401610788565b600e55565b601560205281600052604060002081815481106121d557600080fd5b6000918252602090912060029091020180546001909101546001600160a01b039091169250905082565b612207612eb7565b600480546001600160a01b039586166001600160a01b0319918216179091556005805494861694821694909417909355600680549285169284169290921790915560078054919093169116179055565b600080620186a083106122705750600992602d92509050565b61753083106122855750600892602892509050565b612710831061229a5750600792602392509050565b610bb883106122af5750600692601e92509050565b6103e883106122c45750600592601992509050565b61012c83106122d95750600492601492509050565b606483106122ed5750600392600f92509050565b601e83106123015750600292600a92509050565b600a83106123155750600192600592509050565b506000928392509050565b612328612eb7565b6064821115801561233a575060648111155b6123745760405162461bcd60e51b815260206004820152600b60248201526a092dcecc2d8d2c840e8c2f60ab1b6044820152606401610788565b600f91909155601055565b612387612eb7565b60008211806123965750600081115b6123d05760405162461bcd60e51b815260206004820152600b60248201526a16995c9bc8185b5bdd5b9d60aa1b6044820152606401610788565b8115612466576002546040516323b872dd60e01b81526001600160a01b03909116906323b872dd9061240a90339030908790600401613832565b6020604051808303816000875af1158015612429573d6000803e3d6000fd5b505050506040513d601f19601f8201168201806040525081019061244d9190613856565b50816016600082825461246091906137fd565b90915550505b80156124fc576003546040516323b872dd60e01b81526001600160a01b03909116906323b872dd906124a090339030908690600401613832565b6020604051808303816000875af11580156124bf573d6000803e3d6000fd5b505050506040513d601f19601f820116820180604052508101906124e39190613856565b5080601760008282546124f691906137fd565b90915550505b60408051838152602081018390527f38f8a0c92f4c5b0b6877f878cb4c0c8d348a47b76d716c8e78f425043df9515b910160405180910390a15050565b612541612eb7565b806001600160a01b0316826001600160a01b0316036125955760405162461bcd60e51b815260206004820152601060248201526f21b0b73737ba103134b7321039b2b63360811b6044820152606401610788565b6001600160a01b03808316600090815260116020526040902080548383166001600160a01b03198216179091551680156126ec576001600160a01b0381166000908152601460205260408120905b81548110156126e957846001600160a01b0316828281548110612608576126086138a4565b6000918252602090912001546001600160a01b0316036126d7578154829061263290600190613878565b81548110612642576126426138a4565b9060005260206000200160009054906101000a90046001600160a01b0316828281548110612672576126726138a4565b9060005260206000200160006101000a8154816001600160a01b0302191690836001600160a01b03160217905550818054806126b0576126b06138d3565b600082815260209020810160001990810180546001600160a01b03191690550190556126e9565b806126e1816138ba565b9150506125e3565b50505b6001600160a01b03821615611b9e57506001600160a01b0390811660009081526014602090815260408220805460018101825590835291200180546001600160a01b03191692909116919091179055565b6013602052816000526040600020818154811061275957600080fd5b600091825260209091206006909102018054600182015460028301546003840154600485015460059095015493965091945092909160ff9091169086565b61279f612b92565b3360009081526013602052604081209080805b835481101561293d578381815481106127cd576127cd6138a4565b600091825260209091206004600690920201015460ff161561292b576000603c8583815481106127ff576127ff6138a4565b90600052602060002090600602016003015461281b91906137e0565b85838154811061282d5761282d6138a4565b90600052602060002090600602016002015461284991906137fd565b90508042106129295760006064600e5487858154811061286b5761286b6138a4565b90600052602060002090600602016001015461288791906137e0565b6128919190613810565b905060008684815481106128a7576128a76138a4565b90600052602060002090600602016001015490508181106128d3576128cc8282613878565b90506128d8565b600091505b6128e281876137fd565b95506128ee82866137fd565b94506000878581548110612904576129046138a4565b60009182526020909120600690910201600401805460ff191691151591909117905550505b505b80612935816138ba565b9150506127b2565b50600082116129825760405162461bcd60e51b81526020600482015260116024820152704e6f7468696e6720746f2072656465656d60781b6044820152606401610788565b60025460405163a9059cbb60e01b81526001600160a01b039091169063a9059cbb906129b490339086906004016136f0565b6020604051808303816000875af11580156129d3573d6000803e3d6000fd5b505050506040513d601f19601f820116820180604052508101906129f79190613856565b503360009081526011602052604081206006018054839290612a1a9084906137fd565b9091555050604080518381526020810183905233917ff3a670cd3af7d64b488926880889d08a8585a138ff455227af6737339a1ec262910160405180910390a233600090815260126020526040902054612a739061340d565b5050506112fd60018055565b612a87612eb7565b60025460405163a9059cbb60e01b81526001600160a01b039091169063a9059cbb90611b5b90849086906004016136f0565b612ac1612eb7565b80828486612acf898b6137fd565b612ad991906137fd565b612ae391906137fd565b612aed91906137fd565b612af791906137fd565b606414612b3a5760405162461bcd60e51b81526020600482015260116024820152700546f74616c206d7573742062652031303607c1b6044820152606401610788565b600895909555600993909355600a91909155600b55600c55600d55565b612b5f612eb7565b6001600160a01b038116612b8957604051631e4fbdf760e01b815260006004820152602401610788565b610cc2816133bd565b600260015403612bb557604051633ee5aeb560e01b815260040160405180910390fd5b6002600155565b6001600160a01b0381166000908152601260205260409020600381015460ff166118045760038101805460ff191660011790556001600160a01b03821660009081526013602052604081209080805b8354811015612d2b57838181548110612c2657612c266138a4565b600091825260209091206004600690920201015460ff1615612d195760006064600e54868481548110612c5b57612c5b6138a4565b906000526020600020906006020160010154612c7791906137e0565b612c819190613810565b90506000858381548110612c9757612c976138a4565b9060005260206000209060060201600101549050818110612cc357612cbc8282613878565b9050612cc8565b600091505b612cd281866137fd565b9450612cde82856137fd565b93506000868481548110612cf457612cf46138a4565b60009182526020909120600690910201600401805460ff191691151591909117905550505b80612d23816138ba565b915050612c0b565b508115612da95760025460405163a9059cbb60e01b81526001600160a01b039091169063a9059cbb90612d6490889086906004016136f0565b6020604051808303816000875af1158015612d83573d6000803e3d6000fd5b505050506040513d601f19601f82011682018060405250810190612da79190613856565b505b6001600160a01b03808616600090815260116020526040902060058101805460ff1916905554168015801590612df957506001600160a01b03811660009081526011602052604090206001015415155b15612e2b576001600160a01b0381166000908152601160205260408120600101805491612e25836138e9565b91905055505b60408051848152602081018490526001600160a01b038816917ff3a670cd3af7d64b488926880889d08a8585a138ff455227af6737339a1ec262910160405180910390a284546040519081526001600160a01b038716907f920bb94eb3842a728db98228c375ff6b00c5bc5a54fac6736155517a0a20a61a9060200160405180910390a2505050505050565b6000546001600160a01b031633146112fd5760405163118cdaa760e01b8152336004820152602401610788565b6001600160a01b03831660009081526011602090815260408083206012909252909120600381015460ff1680612f1c57506001810154155b15612f28575050505050565b600082600301548360040154612f3e9190613878565b90508481811115612f915750604080518681526020810183905282916001600160a01b038916917fb5987aab1afd379f6695f1068869ee8ca6a0d02304c57935a9cc3d3ea2e51e4d910160405180910390a25b801561306d5780846003016000828254612fab91906137fd565b909155505060025460405163a9059cbb60e01b81526001600160a01b039091169063a9059cbb90612fe2908a9085906004016136f0565b6020604051808303816000875af1158015613001573d6000803e3d6000fd5b505050506040513d601f19601f820116820180604052508101906130259190613856565b506040805182815260ff871660208201526001600160a01b038916917ff381583145e90b82cc5e529bf4fc4d0e44397174cdf145c4251ac33ef195a424910160405180910390a25b83600401548460030154106130855761308587612bbc565b50505050505050565b6001600160a01b0380841660009081526011602052604081205490911690805b6001600160a01b038316158015906130c65750601481105b156131fd576001600160a01b0383166000908152601160205260408120600101546130f090612257565b915050828111156131be5760006131078483613878565b905060006064613117838a6137e0565b6131219190613810565b6000888152601560209081526040808320815180830183526001600160a01b038c8116808352828601888152845460018082018755958952978790209351600290980290930180546001600160a01b03191697909216969096178155905191015551838152929350909189917fbd5e0947444d5adb46b3d24786f72907c1e8176cb1348960766a6cd6fad13e9f910160405180910390a382945050505b602d81106131cc57506131fd565b6001600160a01b0393841660009081526011602052604090205490931692816131f4816138ba565b925050506130ae565b505050505050565b6002546040516370a0823160e01b815230600482015260009183916001600160a01b03909116906370a0823190602401602060405180830381865afa158015613252573d6000803e3d6000fd5b505050506040513d601f19601f82011682018060405250810190613276919061388b565b6132809190613878565b6003546040516370a0823160e01b81523060048201529192506000916001600160a01b03909116906370a0823190602401602060405180830381865afa1580156132ce573d6000803e3d6000fd5b505050506040513d601f19601f820116820180604052508101906132f2919061388b565b90506000821180156133045750600081115b15611b9e5760006133168484846108a3565b905080156133b757600354604051630852cd8d60e31b8152600481018390526001600160a01b03909116906342966c6890602401600060405180830381600087803b15801561336457600080fd5b505af1158015613378573d6000803e3d6000fd5b505060408051878152602081018590527f0ec3929061cbbbeecb325623e7d5a86c3dae11cb8a22ca45dc0972955657da25935001905060405180910390a15b50505050565b600080546001600160a01b038381166001600160a01b0319831681178455604051919092169283917f8be0079c531659141344cd1fd0a4f28419497f9722a3daafe3b4186f6b6457e09190a35050565b600081815260156020908152604080832080548251818502810185019093528083529192909190849084015b82821015613481576000848152602090819020604080518082019091526002850290910180546001600160a01b03168252600190810154828401529083529092019101613439565b50505050905060005b8151811015613569576134d98282815181106134a8576134a86138a4565b6020026020010151600001518383815181106134c6576134c66138a4565b6020026020010151602001516003612ee4565b8181815181106134eb576134eb6138a4565b6020026020010151600001516001600160a01b0316837f380d782ec118e5171a4d1e7081db076c4c94ca49c623d531763d402b094b4f24848481518110613534576135346138a4565b60200260200101516020015160405161354f91815260200190565b60405180910390a380613561816138ba565b91505061348a565b506000828152601560205260408120611804915080546000825560020290600052602060002090810190610cc291905b808211156135be5780546001600160a01b031916815560006001820155600201613599565b5090565b80356001600160a01b03811681146135d957600080fd5b919050565b6000602082840312156135f057600080fd5b6135f9826135c2565b9392505050565b60008060006060848603121561361557600080fd5b505081359360208301359350604090920135919050565b6000806040838503121561363f57600080fd5b613648836135c2565b946020939093013593505050565b60006020828403121561366857600080fd5b5035919050565b6000806040838503121561368257600080fd5b50508035926020909101359150565b600080604083850312156136a457600080fd5b823591506136b4602084016135c2565b90509250929050565b6000806000606084860312156136d257600080fd5b6136db846135c2565b95602085013595506040909401359392505050565b6001600160a01b03929092168252602082015260400190565b6000806000806080858703121561371f57600080fd5b613728856135c2565b9350613736602086016135c2565b9250613744604086016135c2565b9150613752606086016135c2565b905092959194509250565b6000806040838503121561377057600080fd5b613779836135c2565b91506136b4602084016135c2565b60008060008060008060c087890312156137a057600080fd5b505084359660208601359650604086013595606081013595506080810135945060a0013592509050565b634e487b7160e01b600052601160045260246000fd5b80820281158282048414176137f7576137f76137ca565b92915050565b808201808211156137f7576137f76137ca565b60008261382d57634e487b7160e01b600052601260045260246000fd5b500490565b6001600160a01b039384168152919092166020820152604081019190915260600190565b60006020828403121561386857600080fd5b815180151581146135f957600080fd5b818103818111156137f7576137f76137ca565b60006020828403121561389d57600080fd5b5051919050565b634e487b7160e01b600052603260045260246000fd5b6000600182016138cc576138cc6137ca565b5060010190565b634e487b7160e01b600052603160045260246000fd5b6000816138f8576138f86137ca565b50600019019056fea2646970667358221220d6cd0aa29c19559780e3dd339b654843e1966627847bcff4f96335d4831ec99364736f6c63430008140033",
  "linkReferences": {},
  "deployedLinkReferences": {}
}