{
  "_format": "hh-sol-artifact-1",
  "contractName": "JinbaoProtocol",
  "sourceName": "contracts/JinbaoProtocol.sol",
  "abi": [
    {
      "inputs": [],
      "stateMutability": "nonpayable",
      "type": "constructor"
    },
    {
      "inputs": [
        {
          "internalType": "address",
          "name": "target",
          "type": "address"
        }
      ],
      "name": "AddressEmptyCode",
      "type": "error"
    },
    {
      "inputs": [],
      "name": "AlreadyBound",
      "type": "error"
    },
    {
      "inputs": [],
      "name": "AlreadyExited",
      "type": "error"
    },
    {
      "inputs": [],
      "name": "BatchUpdateSizeMismatch",
      "type": "error"
    },
    {
      "inputs": [
        {
          "internalType": "address",
          "name": "implementation",
          "type": "address"
        }
      ],
      "name": "ERC1967InvalidImplementation",
      "type": "error"
    },
    {
      "inputs": [],
      "name": "ERC1967NonPayable",
      "type": "error"
    },
    {
      "inputs": [],
      "name": "Expired",
      "type": "error"
    },
    {
      "inputs": [],
      "name": "FailedCall",
      "type": "error"
    },
    {
      "inputs": [],
      "name": "InsufficientBalance",
      "type": "error"
    },
    {
      "inputs": [],
      "name": "InvalidAddress",
      "type": "error"
    },
    {
      "inputs": [],
      "name": "InvalidAmount",
      "type": "error"
    },
    {
      "inputs": [],
      "name": "InvalidCycle",
      "type": "error"
    },
    {
      "inputs": [],
      "name": "InvalidFee",
      "type": "error"
    },
    {
      "inputs": [],
      "name": "InvalidInitialization",
      "type": "error"
    },
    {
      "inputs": [],
      "name": "InvalidLevelConfig",
      "type": "error"
    },
    {
      "inputs": [],
      "name": "InvalidRate",
      "type": "error"
    },
    {
      "inputs": [],
      "name": "InvalidTax",
      "type": "error"
    },
    {
      "inputs": [],
      "name": "InvalidTeamCountUpdate",
      "type": "error"
    },
    {
      "inputs": [],
      "name": "LowLiquidity",
      "type": "error"
    },
    {
      "inputs": [],
      "name": "NoRewards",
      "type": "error"
    },
    {
      "inputs": [],
      "name": "NotActive",
      "type": "error"
    },
    {
      "inputs": [],
      "name": "NotInitializing",
      "type": "error"
    },
    {
      "inputs": [],
      "name": "NothingToRedeem",
      "type": "error"
    },
    {
      "inputs": [
        {
          "internalType": "address",
          "name": "owner",
          "type": "address"
        }
      ],
      "name": "OwnableInvalidOwner",
      "type": "error"
    },
    {
      "inputs": [
        {
          "internalType": "address",
          "name": "account",
          "type": "address"
        }
      ],
      "name": "OwnableUnauthorizedAccount",
      "type": "error"
    },
    {
      "inputs": [],
      "name": "RecursionDepthExceeded",
      "type": "error"
    },
    {
      "inputs": [],
      "name": "ReentrancyGuardReentrantCall",
      "type": "error"
    },
    {
      "inputs": [],
      "name": "SelfReference",
      "type": "error"
    },
    {
      "inputs": [],
      "name": "SumNot100",
      "type": "error"
    },
    {
      "inputs": [
        {
          "internalType": "address",
          "name": "user",
          "type": "address"
        },
        {
          "internalType": "uint256",
          "name": "expected",
          "type": "uint256"
        },
        {
          "internalType": "uint256",
          "name": "actual",
          "type": "uint256"
        }
      ],
      "name": "TeamCountMismatch",
      "type": "error"
    },
    {
      "inputs": [],
      "name": "TeamCountOverflow",
      "type": "error"
    },
    {
      "inputs": [],
      "name": "TransferFailed",
      "type": "error"
    },
    {
      "inputs": [],
      "name": "UUPSUnauthorizedCallContext",
      "type": "error"
    },
    {
      "inputs": [
        {
          "internalType": "bytes32",
          "name": "slot",
          "type": "bytes32"
        }
      ],
      "name": "UUPSUnsupportedProxiableUUID",
      "type": "error"
    },
    {
      "inputs": [],
      "name": "Unauthorized",
      "type": "error"
    },
    {
      "anonymous": false,
      "inputs": [
        {
          "indexed": false,
          "internalType": "uint256",
          "name": "usersUpdated",
          "type": "uint256"
        }
      ],
      "name": "BatchTeamCountsUpdated",
      "type": "event"
    },
    {
      "anonymous": false,
      "inputs": [
        {
          "indexed": true,
          "internalType": "address",
          "name": "user",
          "type": "address"
        },
        {
          "indexed": true,
          "internalType": "address",
          "name": "referrer",
          "type": "address"
        }
      ],
      "name": "BoundReferrer",
      "type": "event"
    },
    {
      "anonymous": false,
      "inputs": [
        {
          "indexed": false,
          "internalType": "uint256",
          "name": "mcAmount",
          "type": "uint256"
        },
        {
          "indexed": false,
          "internalType": "uint256",
          "name": "jbcBurned",
          "type": "uint256"
        }
      ],
      "name": "BuybackAndBurn",
      "type": "event"
    },
    {
      "anonymous": false,
      "inputs": [
        {
          "indexed": true,
          "internalType": "uint256",
          "name": "stakeId",
          "type": "uint256"
        },
        {
          "indexed": true,
          "internalType": "address",
          "name": "upline",
          "type": "address"
        },
        {
          "indexed": false,
          "internalType": "uint256",
          "name": "amount",
          "type": "uint256"
        }
      ],
      "name": "DifferentialRewardRecorded",
      "type": "event"
    },
    {
      "anonymous": false,
      "inputs": [
        {
          "indexed": true,
          "internalType": "uint256",
          "name": "stakeId",
          "type": "uint256"
        },
        {
          "indexed": true,
          "internalType": "address",
          "name": "upline",
          "type": "address"
        },
        {
          "indexed": false,
          "internalType": "uint256",
          "name": "amount",
          "type": "uint256"
        }
      ],
      "name": "DifferentialRewardReleased",
      "type": "event"
    },
    {
      "anonymous": false,
      "inputs": [
        {
          "indexed": false,
          "internalType": "uint256",
          "name": "direct",
          "type": "uint256"
        },
        {
          "indexed": false,
          "internalType": "uint256",
          "name": "level",
          "type": "uint256"
        },
        {
          "indexed": false,
          "internalType": "uint256",
          "name": "marketing",
          "type": "uint256"
        },
        {
          "indexed": false,
          "internalType": "uint256",
          "name": "buyback",
          "type": "uint256"
        },
        {
          "indexed": false,
          "internalType": "uint256",
          "name": "lpInjection",
          "type": "uint256"
        },
        {
          "indexed": false,
          "internalType": "uint256",
          "name": "treasury",
          "type": "uint256"
        }
      ],
      "name": "DistributionConfigUpdated",
      "type": "event"
    },
    {
      "anonymous": false,
      "inputs": [],
      "name": "EmergencyPaused",
      "type": "event"
    },
    {
      "anonymous": false,
      "inputs": [],
      "name": "EmergencyUnpaused",
      "type": "event"
    },
    {
      "anonymous": false,
      "inputs": [
        {
          "indexed": true,
          "internalType": "address",
          "name": "user",
          "type": "address"
        },
        {
          "indexed": false,
          "internalType": "uint256",
          "name": "ticketId",
          "type": "uint256"
        }
      ],
      "name": "Exited",
      "type": "event"
    },
    {
      "anonymous": false,
      "inputs": [
        {
          "indexed": true,
          "internalType": "address",
          "name": "user",
          "type": "address"
        },
        {
          "indexed": false,
          "internalType": "uint256",
          "name": "amount",
          "type": "uint256"
        }
      ],
      "name": "FeeRefunded",
      "type": "event"
    },
    {
      "anonymous": false,
      "inputs": [
        {
          "indexed": false,
          "internalType": "uint64",
          "name": "version",
          "type": "uint64"
        }
      ],
      "name": "Initialized",
      "type": "event"
    },
    {
      "anonymous": false,
      "inputs": [],
      "name": "LevelConfigsUpdated",
      "type": "event"
    },
    {
      "anonymous": false,
      "inputs": [
        {
          "indexed": false,
          "internalType": "uint256",
          "name": "amount",
          "type": "uint256"
        },
        {
          "indexed": false,
          "internalType": "uint256",
          "name": "newTotal",
          "type": "uint256"
        }
      ],
      "name": "LevelRewardPoolUpdated",
      "type": "event"
    },
    {
      "anonymous": false,
      "inputs": [
        {
          "indexed": true,
          "internalType": "address",
          "name": "to",
          "type": "address"
        },
        {
          "indexed": false,
          "internalType": "uint256",
          "name": "amount",
          "type": "uint256"
        }
      ],
      "name": "LevelRewardPoolWithdrawn",
      "type": "event"
    },
    {
      "anonymous": false,
      "inputs": [
        {
          "indexed": true,
          "internalType": "uint256",
          "name": "ticketId",
          "type": "uint256"
        },
        {
          "indexed": true,
          "internalType": "address",
          "name": "upline",
          "type": "address"
        },
        {
          "indexed": false,
          "internalType": "uint256",
          "name": "amount",
          "type": "uint256"
        }
      ],
      "name": "LevelRewardRecorded",
      "type": "event"
    },
    {
      "anonymous": false,
      "inputs": [
        {
          "indexed": true,
          "internalType": "uint256",
          "name": "ticketId",
          "type": "uint256"
        },
        {
          "indexed": true,
          "internalType": "address",
          "name": "upline",
          "type": "address"
        },
        {
          "indexed": false,
          "internalType": "uint256",
          "name": "amount",
          "type": "uint256"
        }
      ],
      "name": "LevelRewardReleased",
      "type": "event"
    },
    {
      "anonymous": false,
      "inputs": [
        {
          "indexed": false,
          "internalType": "uint256",
          "name": "mcAmount",
          "type": "uint256"
        },
        {
          "indexed": false,
          "internalType": "uint256",
          "name": "jbcAmount",
          "type": "uint256"
        }
      ],
      "name": "LiquidityAdded",
      "type": "event"
    },
    {
      "anonymous": false,
      "inputs": [
        {
          "indexed": true,
          "internalType": "address",
          "name": "user",
          "type": "address"
        },
        {
          "indexed": false,
          "internalType": "uint256",
          "name": "amount",
          "type": "uint256"
        },
        {
          "indexed": false,
          "internalType": "uint256",
          "name": "cycleDays",
          "type": "uint256"
        },
        {
          "indexed": false,
          "internalType": "uint256",
          "name": "stakeId",
          "type": "uint256"
        }
      ],
      "name": "LiquidityStaked",
      "type": "event"
    },
    {
      "anonymous": false,
      "inputs": [
        {
          "indexed": false,
          "internalType": "bool",
          "name": "enabled",
          "type": "bool"
        }
      ],
      "name": "LiquidityStatusUpdated",
      "type": "event"
    },
    {
      "anonymous": false,
      "inputs": [
        {
          "indexed": true,
          "internalType": "address",
          "name": "previousOwner",
          "type": "address"
        },
        {
          "indexed": true,
          "internalType": "address",
          "name": "newOwner",
          "type": "address"
        }
      ],
      "name": "OwnershipTransferred",
      "type": "event"
    },
    {
      "anonymous": false,
      "inputs": [
        {
          "indexed": false,
          "internalType": "bool",
          "name": "enabled",
          "type": "bool"
        }
      ],
      "name": "RedeemStatusUpdated",
      "type": "event"
    },
    {
      "anonymous": false,
      "inputs": [
        {
          "indexed": true,
          "internalType": "address",
          "name": "user",
          "type": "address"
        },
        {
          "indexed": false,
          "internalType": "uint256",
          "name": "principal",
          "type": "uint256"
        },
        {
          "indexed": false,
          "internalType": "uint256",
          "name": "fee",
          "type": "uint256"
        }
      ],
      "name": "Redeemed",
      "type": "event"
    },
    {
      "anonymous": false,
      "inputs": [
        {
          "indexed": false,
          "internalType": "uint256",
          "name": "newFee",
          "type": "uint256"
        }
      ],
      "name": "RedemptionFeeUpdated",
      "type": "event"
    },
    {
      "anonymous": false,
      "inputs": [
        {
          "indexed": true,
          "internalType": "address",
          "name": "user",
          "type": "address"
        },
        {
          "indexed": true,
          "internalType": "address",
          "name": "from",
          "type": "address"
        },
        {
          "indexed": false,
          "internalType": "uint256",
          "name": "mcAmount",
          "type": "uint256"
        },
        {
          "indexed": false,
          "internalType": "uint8",
          "name": "rewardType",
          "type": "uint8"
        },
        {
          "indexed": false,
          "internalType": "uint256",
          "name": "ticketId",
          "type": "uint256"
        }
      ],
      "name": "ReferralRewardPaid",
      "type": "event"
    },
    {
      "anonymous": false,
      "inputs": [
        {
          "indexed": true,
          "internalType": "address",
          "name": "user",
          "type": "address"
        },
        {
          "indexed": false,
          "internalType": "uint256",
          "name": "amount",
          "type": "uint256"
        },
        {
          "indexed": false,
          "internalType": "uint256",
          "name": "cappedAmount",
          "type": "uint256"
        }
      ],
      "name": "RewardCapped",
      "type": "event"
    },
    {
      "anonymous": false,
      "inputs": [
        {
          "indexed": true,
          "internalType": "address",
          "name": "user",
          "type": "address"
        },
        {
          "indexed": false,
          "internalType": "uint256",
          "name": "mcAmount",
          "type": "uint256"
        },
        {
          "indexed": false,
          "internalType": "uint256",
          "name": "jbcAmount",
          "type": "uint256"
        },
        {
          "indexed": false,
          "internalType": "uint8",
          "name": "rewardType",
          "type": "uint8"
        },
        {
          "indexed": false,
          "internalType": "uint256",
          "name": "ticketId",
          "type": "uint256"
        }
      ],
      "name": "RewardClaimed",
      "type": "event"
    },
    {
      "anonymous": false,
      "inputs": [
        {
          "indexed": true,
          "internalType": "address",
          "name": "user",
          "type": "address"
        },
        {
          "indexed": false,
          "internalType": "uint256",
          "name": "amount",
          "type": "uint256"
        },
        {
          "indexed": false,
          "internalType": "uint8",
          "name": "rewardType",
          "type": "uint8"
        }
      ],
      "name": "RewardPaid",
      "type": "event"
    },
    {
      "anonymous": false,
      "inputs": [
        {
          "indexed": false,
          "internalType": "uint256",
          "name": "mcAmount",
          "type": "uint256"
        },
        {
          "indexed": false,
          "internalType": "uint256",
          "name": "jbcAmount",
          "type": "uint256"
        }
      ],
      "name": "SwapReservesWithdrawn",
      "type": "event"
    },
    {
      "anonymous": false,
      "inputs": [
        {
          "indexed": false,
          "internalType": "uint256",
          "name": "buyTax",
          "type": "uint256"
        },
        {
          "indexed": false,
          "internalType": "uint256",
          "name": "sellTax",
          "type": "uint256"
        }
      ],
      "name": "SwapTaxesUpdated",
      "type": "event"
    },
    {
      "anonymous": false,
      "inputs": [
        {
          "indexed": true,
          "internalType": "address",
          "name": "user",
          "type": "address"
        },
        {
          "indexed": false,
          "internalType": "uint256",
          "name": "jbcAmount",
          "type": "uint256"
        },
        {
          "indexed": false,
          "internalType": "uint256",
          "name": "mcAmount",
          "type": "uint256"
        },
        {
          "indexed": false,
          "internalType": "uint256",
          "name": "tax",
          "type": "uint256"
        }
      ],
      "name": "SwappedJBCToMC",
      "type": "event"
    },
    {
      "anonymous": false,
      "inputs": [
        {
          "indexed": true,
          "internalType": "address",
          "name": "user",
          "type": "address"
        },
        {
          "indexed": false,
          "internalType": "uint256",
          "name": "mcAmount",
          "type": "uint256"
        },
        {
          "indexed": false,
          "internalType": "uint256",
          "name": "jbcAmount",
          "type": "uint256"
        },
        {
          "indexed": false,
          "internalType": "uint256",
          "name": "tax",
          "type": "uint256"
        }
      ],
      "name": "SwappedMCToJBC",
      "type": "event"
    },
    {
      "anonymous": false,
      "inputs": [
        {
          "indexed": true,
          "internalType": "uint256",
          "name": "stakeId",
          "type": "uint256"
        },
        {
          "indexed": true,
          "internalType": "address",
          "name": "upline",
          "type": "address"
        },
        {
          "indexed": false,
          "internalType": "uint256",
          "name": "amount",
          "type": "uint256"
        },
        {
          "indexed": false,
          "internalType": "uint256",
          "name": "teamCount",
          "type": "uint256"
        }
      ],
      "name": "TeamBasedRewardCalculated",
      "type": "event"
    },
    {
      "anonymous": false,
      "inputs": [
        {
          "indexed": true,
          "internalType": "address",
          "name": "user",
          "type": "address"
        },
        {
          "indexed": false,
          "internalType": "uint256",
          "name": "oldCount",
          "type": "uint256"
        },
        {
          "indexed": false,
          "internalType": "uint256",
          "name": "newCount",
          "type": "uint256"
        }
      ],
      "name": "TeamCountUpdated",
      "type": "event"
    },
    {
      "anonymous": false,
      "inputs": [
        {
          "indexed": true,
          "internalType": "address",
          "name": "user",
          "type": "address"
        },
        {
          "indexed": false,
          "internalType": "uint256",
          "name": "expected",
          "type": "uint256"
        },
        {
          "indexed": false,
          "internalType": "uint256",
          "name": "actual",
          "type": "uint256"
        }
      ],
      "name": "TeamCountValidationFailed",
      "type": "event"
    },
    {
      "anonymous": false,
      "inputs": [
        {
          "indexed": true,
          "internalType": "address",
          "name": "user",
          "type": "address"
        },
        {
          "indexed": false,
          "internalType": "uint256",
          "name": "ticketId",
          "type": "uint256"
        },
        {
          "indexed": false,
          "internalType": "uint256",
          "name": "amount",
          "type": "uint256"
        }
      ],
      "name": "TicketExpired",
      "type": "event"
    },
    {
      "anonymous": false,
      "inputs": [
        {
          "indexed": false,
          "internalType": "uint256",
          "name": "newDuration",
          "type": "uint256"
        }
      ],
      "name": "TicketFlexibilityDurationUpdated",
      "type": "event"
    },
    {
      "anonymous": false,
      "inputs": [
        {
          "indexed": true,
          "internalType": "address",
          "name": "user",
          "type": "address"
        },
        {
          "indexed": false,
          "internalType": "uint256",
          "name": "amount",
          "type": "uint256"
        },
        {
          "indexed": false,
          "internalType": "uint256",
          "name": "ticketId",
          "type": "uint256"
        }
      ],
      "name": "TicketPurchased",
      "type": "event"
    },
    {
      "anonymous": false,
      "inputs": [
        {
          "indexed": false,
          "internalType": "address",
          "name": "token",
          "type": "address"
        },
        {
          "indexed": false,
          "internalType": "address",
          "name": "to",
          "type": "address"
        },
        {
          "indexed": false,
          "internalType": "uint256",
          "name": "amount",
          "type": "uint256"
        }
      ],
      "name": "TokensRescued",
      "type": "event"
    },
    {
      "anonymous": false,
      "inputs": [
        {
          "indexed": true,
          "internalType": "address",
          "name": "implementation",
          "type": "address"
        }
      ],
      "name": "Upgraded",
      "type": "event"
    },
    {
      "anonymous": false,
      "inputs": [
        {
          "indexed": false,
          "internalType": "address",
          "name": "marketing",
          "type": "address"
        },
        {
          "indexed": false,
          "internalType": "address",
          "name": "treasury",
          "type": "address"
        },
        {
          "indexed": false,
          "internalType": "address",
          "name": "lpInjection",
          "type": "address"
        },
        {
          "indexed": false,
          "internalType": "address",
          "name": "buyback",
          "type": "address"
        }
      ],
      "name": "WalletsUpdated",
      "type": "event"
    },
    {
      "inputs": [],
      "name": "MAX_PRICE_IMPACT",
      "outputs": [
        {
          "internalType": "uint256",
          "name": "",
          "type": "uint256"
        }
      ],
      "stateMutability": "view",
      "type": "function"
    },
    {
      "inputs": [],
      "name": "MIN_LIQUIDITY",
      "outputs": [
        {
          "internalType": "uint256",
          "name": "",
          "type": "uint256"
        }
      ],
      "stateMutability": "view",
      "type": "function"
    },
    {
      "inputs": [],
      "name": "REWARD_DIFFERENTIAL",
      "outputs": [
        {
          "internalType": "uint8",
          "name": "",
          "type": "uint8"
        }
      ],
      "stateMutability": "view",
      "type": "function"
    },
    {
      "inputs": [],
      "name": "REWARD_DIRECT",
      "outputs": [
        {
          "internalType": "uint8",
          "name": "",
          "type": "uint8"
        }
      ],
      "stateMutability": "view",
      "type": "function"
    },
    {
      "inputs": [],
      "name": "REWARD_DYNAMIC",
      "outputs": [
        {
          "internalType": "uint8",
          "name": "",
          "type": "uint8"
        }
      ],
      "stateMutability": "view",
      "type": "function"
    },
    {
      "inputs": [],
      "name": "REWARD_LEVEL",
      "outputs": [
        {
          "internalType": "uint8",
          "name": "",
          "type": "uint8"
        }
      ],
      "stateMutability": "view",
      "type": "function"
    },
    {
      "inputs": [],
      "name": "REWARD_STATIC",
      "outputs": [
        {
          "internalType": "uint8",
          "name": "",
          "type": "uint8"
        }
      ],
      "stateMutability": "view",
      "type": "function"
    },
    {
      "inputs": [],
      "name": "SECONDS_IN_UNIT",
      "outputs": [
        {
          "internalType": "uint256",
          "name": "",
          "type": "uint256"
        }
      ],
      "stateMutability": "view",
      "type": "function"
    },
    {
      "inputs": [],
      "name": "UPGRADE_INTERFACE_VERSION",
      "outputs": [
        {
          "internalType": "string",
          "name": "",
          "type": "string"
        }
      ],
      "stateMutability": "view",
      "type": "function"
    },
    {
      "inputs": [
        {
          "internalType": "uint256",
          "name": "mcAmount",
          "type": "uint256"
        },
        {
          "internalType": "uint256",
          "name": "jbcAmount",
          "type": "uint256"
        }
      ],
      "name": "addLiquidity",
      "outputs": [],
      "stateMutability": "nonpayable",
      "type": "function"
    },
    {
      "inputs": [
        {
          "internalType": "address",
          "name": "_referrer",
          "type": "address"
        }
      ],
      "name": "bindReferrer",
      "outputs": [],
      "stateMutability": "nonpayable",
      "type": "function"
    },
    {
      "inputs": [
        {
          "internalType": "uint256",
          "name": "amount",
          "type": "uint256"
        }
      ],
      "name": "buyTicket",
      "outputs": [],
      "stateMutability": "nonpayable",
      "type": "function"
    },
    {
      "inputs": [],
      "name": "buybackPercent",
      "outputs": [
        {
          "internalType": "uint256",
          "name": "",
          "type": "uint256"
        }
      ],
      "stateMutability": "view",
      "type": "function"
    },
    {
      "inputs": [],
      "name": "buybackWallet",
      "outputs": [
        {
          "internalType": "address",
          "name": "",
          "type": "address"
        }
      ],
      "stateMutability": "view",
      "type": "function"
    },
    {
      "inputs": [],
      "name": "claimRewards",
      "outputs": [],
      "stateMutability": "nonpayable",
      "type": "function"
    },
    {
      "inputs": [
        {
          "internalType": "address",
          "name": "",
          "type": "address"
        },
        {
          "internalType": "uint256",
          "name": "",
          "type": "uint256"
        }
      ],
      "name": "directReferrals",
      "outputs": [
        {
          "internalType": "address",
          "name": "",
          "type": "address"
        }
      ],
      "stateMutability": "view",
      "type": "function"
    },
    {
      "inputs": [],
      "name": "directRewardPercent",
      "outputs": [
        {
          "internalType": "uint256",
          "name": "",
          "type": "uint256"
        }
      ],
      "stateMutability": "view",
      "type": "function"
    },
    {
      "inputs": [],
      "name": "emergencyPause",
      "outputs": [],
      "stateMutability": "nonpayable",
      "type": "function"
    },
    {
      "inputs": [],
      "name": "emergencyPaused",
      "outputs": [
        {
          "internalType": "bool",
          "name": "",
          "type": "bool"
        }
      ],
      "stateMutability": "view",
      "type": "function"
    },
    {
      "inputs": [],
      "name": "emergencyUnpause",
      "outputs": [],
      "stateMutability": "nonpayable",
      "type": "function"
    },
    {
      "inputs": [
        {
          "internalType": "address",
          "name": "user",
          "type": "address"
        }
      ],
      "name": "getDirectReferrals",
      "outputs": [
        {
          "internalType": "address[]",
          "name": "",
          "type": "address[]"
        }
      ],
      "stateMutability": "view",
      "type": "function"
    },
    {
      "inputs": [],
      "name": "getJBCPrice",
      "outputs": [
        {
          "internalType": "uint256",
          "name": "",
          "type": "uint256"
        }
      ],
      "stateMutability": "view",
      "type": "function"
    },
    {
      "inputs": [
        {
          "internalType": "uint256",
          "name": "activeDirects",
          "type": "uint256"
        }
      ],
      "name": "getLevel",
      "outputs": [
        {
          "internalType": "uint256",
          "name": "level",
          "type": "uint256"
        },
        {
          "internalType": "uint256",
          "name": "percent",
          "type": "uint256"
        }
      ],
      "stateMutability": "pure",
      "type": "function"
    },
    {
      "inputs": [
        {
          "internalType": "uint256",
          "name": "teamCount",
          "type": "uint256"
        }
      ],
      "name": "getLevelByTeamCount",
      "outputs": [
        {
          "internalType": "uint256",
          "name": "level",
          "type": "uint256"
        },
        {
          "internalType": "uint256",
          "name": "percent",
          "type": "uint256"
        }
      ],
      "stateMutability": "pure",
      "type": "function"
    },
    {
      "inputs": [
        {
          "internalType": "uint256",
          "name": "activeDirects",
          "type": "uint256"
        }
      ],
      "name": "getLevelRewardLayers",
      "outputs": [
        {
          "internalType": "uint256",
          "name": "",
          "type": "uint256"
        }
      ],
      "stateMutability": "pure",
      "type": "function"
    },
    {
      "inputs": [
        {
          "internalType": "address",
          "name": "_mcToken",
          "type": "address"
        },
        {
          "internalType": "address",
          "name": "_jbcToken",
          "type": "address"
        },
        {
          "internalType": "address",
          "name": "_marketing",
          "type": "address"
        },
        {
          "internalType": "address",
          "name": "_treasury",
          "type": "address"
        },
        {
          "internalType": "address",
          "name": "_lpInjection",
          "type": "address"
        },
        {
          "internalType": "address",
          "name": "_buybackWallet",
          "type": "address"
        }
      ],
      "name": "initialize",
      "outputs": [],
      "stateMutability": "nonpayable",
      "type": "function"
    },
    {
      "inputs": [],
      "name": "jbcToken",
      "outputs": [
        {
          "internalType": "contract IJBC",
          "name": "",
          "type": "address"
        }
      ],
      "stateMutability": "view",
      "type": "function"
    },
    {
      "inputs": [],
      "name": "lastBurnTime",
      "outputs": [
        {
          "internalType": "uint256",
          "name": "",
          "type": "uint256"
        }
      ],
      "stateMutability": "view",
      "type": "function"
    },
    {
      "inputs": [
        {
          "internalType": "uint256",
          "name": "",
          "type": "uint256"
        }
      ],
      "name": "levelConfigs",
      "outputs": [
        {
          "internalType": "uint256",
          "name": "minDirects",
          "type": "uint256"
        },
        {
          "internalType": "uint256",
          "name": "level",
          "type": "uint256"
        },
        {
          "internalType": "uint256",
          "name": "percent",
          "type": "uint256"
        }
      ],
      "stateMutability": "view",
      "type": "function"
    },
    {
      "inputs": [],
      "name": "levelRewardPercent",
      "outputs": [
        {
          "internalType": "uint256",
          "name": "",
          "type": "uint256"
        }
      ],
      "stateMutability": "view",
      "type": "function"
    },
    {
      "inputs": [],
      "name": "levelRewardPool",
      "outputs": [
        {
          "internalType": "uint256",
          "name": "",
          "type": "uint256"
        }
      ],
      "stateMutability": "view",
      "type": "function"
    },
    {
      "inputs": [],
      "name": "liquidityEnabled",
      "outputs": [
        {
          "internalType": "bool",
          "name": "",
          "type": "bool"
        }
      ],
      "stateMutability": "view",
      "type": "function"
    },
    {
      "inputs": [],
      "name": "lpInjectionPercent",
      "outputs": [
        {
          "internalType": "uint256",
          "name": "",
          "type": "uint256"
        }
      ],
      "stateMutability": "view",
      "type": "function"
    },
    {
      "inputs": [],
      "name": "lpInjectionWallet",
      "outputs": [
        {
          "internalType": "address",
          "name": "",
          "type": "address"
        }
      ],
      "stateMutability": "view",
      "type": "function"
    },
    {
      "inputs": [],
      "name": "marketingPercent",
      "outputs": [
        {
          "internalType": "uint256",
          "name": "",
          "type": "uint256"
        }
      ],
      "stateMutability": "view",
      "type": "function"
    },
    {
      "inputs": [],
      "name": "marketingWallet",
      "outputs": [
        {
          "internalType": "address",
          "name": "",
          "type": "address"
        }
      ],
      "stateMutability": "view",
      "type": "function"
    },
    {
      "inputs": [],
      "name": "mcToken",
      "outputs": [
        {
          "internalType": "contract IERC20",
          "name": "",
          "type": "address"
        }
      ],
      "stateMutability": "view",
      "type": "function"
    },
    {
      "inputs": [],
      "name": "nextStakeId",
      "outputs": [
        {
          "internalType": "uint256",
          "name": "",
          "type": "uint256"
        }
      ],
      "stateMutability": "view",
      "type": "function"
    },
    {
      "inputs": [],
      "name": "nextTicketId",
      "outputs": [
        {
          "internalType": "uint256",
          "name": "",
          "type": "uint256"
        }
      ],
      "stateMutability": "view",
      "type": "function"
    },
    {
      "inputs": [],
      "name": "owner",
      "outputs": [
        {
          "internalType": "address",
          "name": "",
          "type": "address"
        }
      ],
      "stateMutability": "view",
      "type": "function"
    },
    {
      "inputs": [],
      "name": "priceOracle",
      "outputs": [
        {
          "internalType": "address",
          "name": "",
          "type": "address"
        }
      ],
      "stateMutability": "view",
      "type": "function"
    },
    {
      "inputs": [],
      "name": "proxiableUUID",
      "outputs": [
        {
          "internalType": "bytes32",
          "name": "",
          "type": "bytes32"
        }
      ],
      "stateMutability": "view",
      "type": "function"
    },
    {
      "inputs": [],
      "name": "redeem",
      "outputs": [],
      "stateMutability": "nonpayable",
      "type": "function"
    },
    {
      "inputs": [],
      "name": "redeemEnabled",
      "outputs": [
        {
          "internalType": "bool",
          "name": "",
          "type": "bool"
        }
      ],
      "stateMutability": "view",
      "type": "function"
    },
    {
      "inputs": [],
      "name": "redemptionFeePercent",
      "outputs": [
        {
          "internalType": "uint256",
          "name": "",
          "type": "uint256"
        }
      ],
      "stateMutability": "view",
      "type": "function"
    },
    {
      "inputs": [],
      "name": "renounceOwnership",
      "outputs": [],
      "stateMutability": "nonpayable",
      "type": "function"
    },
    {
      "inputs": [
        {
          "internalType": "address",
          "name": "_token",
          "type": "address"
        },
        {
          "internalType": "address",
          "name": "_to",
          "type": "address"
        },
        {
          "internalType": "uint256",
          "name": "_amount",
          "type": "uint256"
        }
      ],
      "name": "rescueTokens",
      "outputs": [],
      "stateMutability": "nonpayable",
      "type": "function"
    },
    {
      "inputs": [
        {
          "internalType": "uint256",
          "name": "_direct",
          "type": "uint256"
        },
        {
          "internalType": "uint256",
          "name": "_level",
          "type": "uint256"
        },
        {
          "internalType": "uint256",
          "name": "_marketing",
          "type": "uint256"
        },
        {
          "internalType": "uint256",
          "name": "_buyback",
          "type": "uint256"
        },
        {
          "internalType": "uint256",
          "name": "_lpInjection",
          "type": "uint256"
        },
        {
          "internalType": "uint256",
          "name": "_treasury",
          "type": "uint256"
        }
      ],
      "name": "setDistributionConfig",
      "outputs": [],
      "stateMutability": "nonpayable",
      "type": "function"
    },
    {
      "inputs": [
        {
          "internalType": "bool",
          "name": "_liquidityEnabled",
          "type": "bool"
        },
        {
          "internalType": "bool",
          "name": "_redeemEnabled",
          "type": "bool"
        }
      ],
      "name": "setOperationalStatus",
      "outputs": [],
      "stateMutability": "nonpayable",
      "type": "function"
    },
    {
      "inputs": [
        {
          "internalType": "address",
          "name": "_oracle",
          "type": "address"
        }
      ],
      "name": "setPriceOracle",
      "outputs": [],
      "stateMutability": "nonpayable",
      "type": "function"
    },
    {
      "inputs": [
        {
          "internalType": "uint256",
          "name": "_fee",
          "type": "uint256"
        }
      ],
      "name": "setRedemptionFeePercent",
      "outputs": [],
      "stateMutability": "nonpayable",
      "type": "function"
    },
    {
      "inputs": [
        {
          "internalType": "uint256",
          "name": "_buyTax",
          "type": "uint256"
        },
        {
          "internalType": "uint256",
          "name": "_sellTax",
          "type": "uint256"
        }
      ],
      "name": "setSwapTaxes",
      "outputs": [],
      "stateMutability": "nonpayable",
      "type": "function"
    },
    {
      "inputs": [
        {
          "internalType": "uint256",
          "name": "_duration",
          "type": "uint256"
        }
      ],
      "name": "setTicketFlexibilityDuration",
      "outputs": [],
      "stateMutability": "nonpayable",
      "type": "function"
    },
    {
      "inputs": [
        {
          "internalType": "address",
          "name": "_marketing",
          "type": "address"
        },
        {
          "internalType": "address",
          "name": "_treasury",
          "type": "address"
        },
        {
          "internalType": "address",
          "name": "_lpInjection",
          "type": "address"
        },
        {
          "internalType": "address",
          "name": "_buyback",
          "type": "address"
        }
      ],
      "name": "setWallets",
      "outputs": [],
      "stateMutability": "nonpayable",
      "type": "function"
    },
    {
      "inputs": [
        {
          "internalType": "uint256",
          "name": "amount",
          "type": "uint256"
        },
        {
          "internalType": "uint256",
          "name": "cycleDays",
          "type": "uint256"
        }
      ],
      "name": "stakeLiquidity",
      "outputs": [],
      "stateMutability": "nonpayable",
      "type": "function"
    },
    {
      "inputs": [
        {
          "internalType": "uint256",
          "name": "",
          "type": "uint256"
        }
      ],
      "name": "stakeOwner",
      "outputs": [
        {
          "internalType": "address",
          "name": "",
          "type": "address"
        }
      ],
      "stateMutability": "view",
      "type": "function"
    },
    {
      "inputs": [
        {
          "internalType": "uint256",
          "name": "",
          "type": "uint256"
        },
        {
          "internalType": "uint256",
          "name": "",
          "type": "uint256"
        }
      ],
      "name": "stakePendingRewards",
      "outputs": [
        {
          "internalType": "address",
          "name": "upline",
          "type": "address"
        },
        {
          "internalType": "uint256",
          "name": "amount",
          "type": "uint256"
        }
      ],
      "stateMutability": "view",
      "type": "function"
    },
    {
      "inputs": [],
      "name": "swapBuyTax",
      "outputs": [
        {
          "internalType": "uint256",
          "name": "",
          "type": "uint256"
        }
      ],
      "stateMutability": "view",
      "type": "function"
    },
    {
      "inputs": [
        {
          "internalType": "uint256",
          "name": "jbcAmount",
          "type": "uint256"
        }
      ],
      "name": "swapJBCToMC",
      "outputs": [],
      "stateMutability": "nonpayable",
      "type": "function"
    },
    {
      "inputs": [
        {
          "internalType": "uint256",
          "name": "mcAmount",
          "type": "uint256"
        }
      ],
      "name": "swapMCToJBC",
      "outputs": [],
      "stateMutability": "nonpayable",
      "type": "function"
    },
    {
      "inputs": [],
      "name": "swapReserveJBC",
      "outputs": [
        {
          "internalType": "uint256",
          "name": "",
          "type": "uint256"
        }
      ],
      "stateMutability": "view",
      "type": "function"
    },
    {
      "inputs": [],
      "name": "swapReserveMC",
      "outputs": [
        {
          "internalType": "uint256",
          "name": "",
          "type": "uint256"
        }
      ],
      "stateMutability": "view",
      "type": "function"
    },
    {
      "inputs": [],
      "name": "swapSellTax",
      "outputs": [
        {
          "internalType": "uint256",
          "name": "",
          "type": "uint256"
        }
      ],
      "stateMutability": "view",
      "type": "function"
    },
    {
      "inputs": [],
      "name": "ticketFlexibilityDuration",
      "outputs": [
        {
          "internalType": "uint256",
          "name": "",
          "type": "uint256"
        }
      ],
      "stateMutability": "view",
      "type": "function"
    },
    {
      "inputs": [
        {
          "internalType": "uint256",
          "name": "",
          "type": "uint256"
        }
      ],
      "name": "ticketOwner",
      "outputs": [
        {
          "internalType": "address",
          "name": "",
          "type": "address"
        }
      ],
      "stateMutability": "view",
      "type": "function"
    },
    {
      "inputs": [
        {
          "internalType": "uint256",
          "name": "",
          "type": "uint256"
        },
        {
          "internalType": "uint256",
          "name": "",
          "type": "uint256"
        }
      ],
      "name": "ticketPendingRewards",
      "outputs": [
        {
          "internalType": "address",
          "name": "upline",
          "type": "address"
        },
        {
          "internalType": "uint256",
          "name": "amount",
          "type": "uint256"
        }
      ],
      "stateMutability": "view",
      "type": "function"
    },
    {
      "inputs": [
        {
          "internalType": "address",
          "name": "newOwner",
          "type": "address"
        }
      ],
      "name": "transferOwnership",
      "outputs": [],
      "stateMutability": "nonpayable",
      "type": "function"
    },
    {
      "inputs": [],
      "name": "treasuryPercent",
      "outputs": [
        {
          "internalType": "uint256",
          "name": "",
          "type": "uint256"
        }
      ],
      "stateMutability": "view",
      "type": "function"
    },
    {
      "inputs": [],
      "name": "treasuryWallet",
      "outputs": [
        {
          "internalType": "address",
          "name": "",
          "type": "address"
        }
      ],
      "stateMutability": "view",
      "type": "function"
    },
    {
      "inputs": [
        {
          "internalType": "address",
          "name": "newImplementation",
          "type": "address"
        },
        {
          "internalType": "bytes",
          "name": "data",
          "type": "bytes"
        }
      ],
      "name": "upgradeToAndCall",
      "outputs": [],
      "stateMutability": "payable",
      "type": "function"
    },
    {
      "inputs": [
        {
          "internalType": "address",
          "name": "",
          "type": "address"
        }
      ],
      "name": "userInfo",
      "outputs": [
        {
          "internalType": "address",
          "name": "referrer",
          "type": "address"
        },
        {
          "internalType": "uint256",
          "name": "activeDirects",
          "type": "uint256"
        },
        {
          "internalType": "uint256",
          "name": "teamCount",
          "type": "uint256"
        },
        {
          "internalType": "uint256",
          "name": "totalRevenue",
          "type": "uint256"
        },
        {
          "internalType": "uint256",
          "name": "currentCap",
          "type": "uint256"
        },
        {
          "internalType": "bool",
          "name": "isActive",
          "type": "bool"
        },
        {
          "internalType": "uint256",
          "name": "refundFeeAmount",
          "type": "uint256"
        },
        {
          "internalType": "uint256",
          "name": "teamTotalVolume",
          "type": "uint256"
        },
        {
          "internalType": "uint256",
          "name": "teamTotalCap",
          "type": "uint256"
        },
        {
          "internalType": "uint256",
          "name": "maxTicketAmount",
          "type": "uint256"
        },
        {
          "internalType": "uint256",
          "name": "maxSingleTicketAmount",
          "type": "uint256"
        }
      ],
      "stateMutability": "view",
      "type": "function"
    },
    {
      "inputs": [
        {
          "internalType": "address",
          "name": "",
          "type": "address"
        },
        {
          "internalType": "uint256",
          "name": "",
          "type": "uint256"
        }
      ],
      "name": "userStakes",
      "outputs": [
        {
          "internalType": "uint256",
          "name": "id",
          "type": "uint256"
        },
        {
          "internalType": "uint256",
          "name": "amount",
          "type": "uint256"
        },
        {
          "internalType": "uint256",
          "name": "startTime",
          "type": "uint256"
        },
        {
          "internalType": "uint256",
          "name": "cycleDays",
          "type": "uint256"
        },
        {
          "internalType": "bool",
          "name": "active",
          "type": "bool"
        },
        {
          "internalType": "uint256",
          "name": "paid",
          "type": "uint256"
        }
      ],
      "stateMutability": "view",
      "type": "function"
    },
    {
      "inputs": [
        {
          "internalType": "address",
          "name": "",
          "type": "address"
        }
      ],
      "name": "userTicket",
      "outputs": [
        {
          "internalType": "uint256",
          "name": "ticketId",
          "type": "uint256"
        },
        {
          "internalType": "uint256",
          "name": "amount",
          "type": "uint256"
        },
        {
          "internalType": "uint256",
          "name": "purchaseTime",
          "type": "uint256"
        },
        {
          "internalType": "bool",
          "name": "exited",
          "type": "bool"
        }
      ],
      "stateMutability": "view",
      "type": "function"
    },
    {
      "inputs": [
        {
          "internalType": "address",
          "name": "_to",
          "type": "address"
        },
        {
          "internalType": "uint256",
          "name": "_amount",
          "type": "uint256"
        }
      ],
      "name": "withdrawLevelRewardPool",
      "outputs": [],
      "stateMutability": "nonpayable",
      "type": "function"
    },
    {
      "inputs": [
        {
          "internalType": "address",
          "name": "_toMC",
          "type": "address"
        },
        {
          "internalType": "uint256",
          "name": "_amountMC",
          "type": "uint256"
        },
        {
          "internalType": "address",
          "name": "_toJBC",
          "type": "address"
        },
        {
          "internalType": "uint256",
          "name": "_amountJBC",
          "type": "uint256"
        }
      ],
      "name": "withdrawSwapReserves",
      "outputs": [],
      "stateMutability": "nonpayable",
      "type": "function"
    }
  ],
  "bytecode": "0x60a0604052306080523480156200001557600080fd5b506200002062000026565b620000da565b7ff0c57e16840df040f15088dc2f81fe391c3923bec73e23a9662efc9c229c6a00805468010000000000000000900460ff1615620000775760405163f92ee8a960e01b815260040160405180910390fd5b80546001600160401b0390811614620000d75780546001600160401b0319166001600160401b0390811782556040519081527fc7f505b2f371ae2175ee4913f4499e1f2633a7b5936321eed1cdaeb6115181d29060200160405180910390a15b50565b608051615a9b62000104600039600081816143ab015281816143d401526145110152615a9b6000f3fe60806040526004361061034c5760003560e01c806301d62efb1461035157806304ef9d581461037357806304f618cb1461039c57806305ad3935146103bc5780630a5c4567146103e95780630e2be210146104095780631427f616146104305780631788513c14610445578063182c84cc146104655780631959a002146104855780631d0dac761461056457806321b77d631461057a57806321f483d3146105975780632630c12f146105c657806327c830a9146105eb57806327f082f414610615578063372500ab1461062b5780633a3ea2f0146106405780633dbd46bd146106555780634626402b1461068b57806347194001146106ab578063488b5d97146106d95780634a4e3bd5146106ee5780634ea4c6b3146107035780634f1ef2861461072357806351858e271461073657806352778b051461074b57806352d1902d1461076b578063530e784f146107805780636031a52f146107a057806367dd74ca146107b65780636839b5fa146107d65780636dd66827146107ec578063715018a61461080257806375506c961461081757806375f0a8741461082d57806377a2a5401461084d578063813380cd1461086357806383672f3e1461089157806386481d40146106ab5780638710bcaa146108b157806388481b611461091857806388fd4d331461092d5780638a859a851461094d5780638c0eaa48146109625780638da5cb5b1461097757806390b0eb511461098c5780639370b080146109ac57806395253992146109c257806399b6024d146109e25780639cd441da14610a025780639d99eca414610a22578063ac8f50aa14610a42578063ad3cb1cc14610a62578063b048a4bb14610aa0578063b5d5b5fa14610aba578063b759936b14610b09578063bd594dcf14610b1f578063be040fb014610b35578063c2ff12fc14610b4a578063cc2a9a5b14610b80578063ccf6194414610ba0578063cea9d26f14610bb6578063ceaa366d14610bd6578063d0f1647014610bec578063d2c8e0e514610c0c578063d2f8253614610c39578063d4f0014214610c58578063d8020a1814610c78578063deab8aea14610c8e578063dec7fa3b14610cae578063e306744914610cc4578063e4412f6814610cda578063ece7126614610cf0578063f2fde38b14610d10575b600080fd5b34801561035d57600080fd5b5061037161036c3660046153d4565b610d30565b005b34801561037f57600080fd5b50610389600b5481565b6040519081526020015b60405180910390f35b3480156103a857600080fd5b506103716103b7366004615429565b610dc6565b3480156103c857600080fd5b506103dc6103d7366004615444565b610ecb565b604051610393919061546e565b3480156103f557600080fd5b50610371610404366004615482565b610f03565b34801561041557600080fd5b5061041e600281565b60405160ff9091168152602001610393565b34801561043c57600080fd5b5061041e600081565b34801561045157600080fd5b506001546103dc906001600160a01b031681565b34801561047157600080fd5b50610389610480366004615482565b61129e565b34801561049157600080fd5b506105076104a0366004615429565b600f60205260009081526040902080546001820154600283015460038401546004850154600586015460068701546007880154600889015460098a0154600a909a01546001600160a01b0390991699979896979596949560ff90941694929391929091908b565b604080516001600160a01b03909c168c5260208c019a909a52988a01979097526060890195909552608088019390935290151560a087015260c086015260e085015261010084015261012083015261014082015261016001610393565b34801561057057600080fd5b5061038960185481565b34801561058657600080fd5b50610389683635c9adc5dea0000081565b3480156105a357600080fd5b506105b76105b2366004615482565b6112d8565b6040516103939392919061549b565b3480156105d257600080fd5b50604f546103dc9061010090046001600160a01b031681565b3480156105f757600080fd5b50604f546106059060ff1681565b6040519015158152602001610393565b34801561062157600080fd5b50610389600d5481565b34801561063757600080fd5b5061037161130b565b34801561064c57600080fd5b5061038961195b565b34801561066157600080fd5b506103dc610670366004615482565b601e602052600090815260409020546001600160a01b031681565b34801561069757600080fd5b506003546103dc906001600160a01b031681565b3480156106b757600080fd5b506106cb6106c6366004615482565b611a4a565b6040516103939291906154b1565b3480156106e557600080fd5b50610389603c81565b3480156106fa57600080fd5b50610371611a5f565b34801561070f57600080fd5b5061037161071e3660046154bf565b611a9c565b6103716107313660046154f7565b611ef8565b34801561074257600080fd5b50610371611f13565b34801561075757600080fd5b50610371610766366004615482565b611f53565b34801561077757600080fd5b506103896122cc565b34801561078c57600080fd5b5061037161079b366004615429565b6122e9565b3480156107ac57600080fd5b5061038960195481565b3480156107c257600080fd5b506103716107d1366004615482565b612319565b3480156107e257600080fd5b506103896103e881565b3480156107f857600080fd5b5061038960155481565b34801561080e57600080fd5b50610371612957565b34801561082357600080fd5b50610389601a5481565b34801561083957600080fd5b506002546103dc906001600160a01b031681565b34801561085957600080fd5b5061038960175481565b34801561086f57600080fd5b5061088361087e3660046154bf565b612969565b6040516103939291906155b8565b34801561089d57600080fd5b506103716108ac3660046155d1565b6129af565b3480156108bd57600080fd5b506108f66108cc366004615429565b60106020526000908152604090208054600182015460028301546003909301549192909160ff1684565b6040805194855260208501939093529183015215156060820152608001610393565b34801561092457600080fd5b5061041e600481565b34801561093957600080fd5b506004546103dc906001600160a01b031681565b34801561095957600080fd5b5061041e600181565b34801561096e57600080fd5b5061041e600381565b34801561098357600080fd5b506103dc612ad9565b34801561099857600080fd5b506103716109a73660046154bf565b612af4565b3480156109b857600080fd5b50610389600e5481565b3480156109ce57600080fd5b506000546103dc906001600160a01b031681565b3480156109ee57600080fd5b506103716109fd366004615444565b612b38565b348015610a0e57600080fd5b50610371610a1d3660046154bf565b612c14565b348015610a2e57600080fd5b50610371610a3d366004615482565b612d79565b348015610a4e57600080fd5b50610883610a5d3660046154bf565b612dbd565b348015610a6e57600080fd5b50610a93604051806040016040528060058152602001640352e302e360dc1b81525081565b6040516103939190615649565b348015610aac57600080fd5b506016546106059060ff1681565b348015610ac657600080fd5b50610ada610ad5366004615444565b612dd9565b6040805196875260208701959095529385019290925260608401521515608083015260a082015260c001610393565b348015610b1557600080fd5b50610389601f5481565b348015610b2b57600080fd5b5061038960075481565b348015610b4157600080fd5b50610371612e33565b348015610b5657600080fd5b506103dc610b65366004615482565b601c602052600090815260409020546001600160a01b031681565b348015610b8c57600080fd5b50610371610b9b36600461567c565b6136c7565b348015610bac57600080fd5b5061038960065481565b348015610bc257600080fd5b50610371610bd13660046156f0565b613880565b348015610be257600080fd5b50610389600a5481565b348015610bf857600080fd5b50610371610c0736600461572c565b6139fc565b348015610c1857600080fd5b50610c2c610c27366004615429565b613a80565b604051610393919061576f565b348015610c4557600080fd5b5060165461060590610100900460ff1681565b348015610c6457600080fd5b50610371610c733660046157bc565b613af6565b348015610c8457600080fd5b5061038960085481565b348015610c9a57600080fd5b506005546103dc906001600160a01b031681565b348015610cba57600080fd5b50610389600c5481565b348015610cd057600080fd5b50610389601b5481565b348015610ce657600080fd5b5061038960095481565b348015610cfc57600080fd5b50610371610d0b366004615482565b613c57565b348015610d1c57600080fd5b50610371610d2b366004615429565b613c94565b610d38613ccf565b6016805461ffff191683151561ff001981169190911761010084151502179091556040519081527fb886fcb5b9c12916f26d967ebe962dbd51ec249fb55961da39c851cdfc10115c9060200160405180910390a160405181151581527f03cb373f89de891077fe47cec43663b6727713de0337af46bebd1178122251b7906020015b60405180910390a15050565b336000908152600f60205260409020546001600160a01b031615610dfd5760405163682a906560e01b815260040160405180910390fd5b336001600160a01b03821603610e2657604051631acade8960e31b815260040160405180910390fd5b6001600160a01b038116610e4d5760405163e6c4247b60e01b815260040160405180910390fd5b336000818152600f6020908152604080832080546001600160a01b0387166001600160a01b0319918216811790925581855260128452828520805460018101825590865293852090930180549093168517909255519092917fa6dbb5aa28f35437de94d685d66edce5fb4812196b4984b91dfd5a7b38c0fb3091a350565b60126020528160005260406000208181548110610ee757600080fd5b6000918252602090912001546001600160a01b03169150829050565b610f0b613d01565b604f5460ff1615610f375760405162461bcd60e51b8152600401610f2e90615800565b60405180910390fd5b80600003610f585760405163162908e360e11b815260040160405180910390fd5b683635c9adc5dea000006017541080610f7b5750683635c9adc5dea00000601854105b15610f99576040516343c7ad8160e11b815260040160405180910390fd5b6000546040516323b872dd60e01b81526001600160a01b03909116906323b872dd90610fcd9033903090869060040161582c565b6020604051808303816000875af1158015610fec573d6000803e3d6000fd5b505050506040513d601f19601f820116820180604052508101906110109190615850565b506000601854826110219190615883565b9050600082601754611033919061589a565b9050600061104182846158ad565b90506000601754856127106110569190615883565b61106091906158ad565b90506103e88111156110855760405163162908e360e11b815260040160405180910390fd5b60006064600d54846110979190615883565b6110a191906158ad565b905060006110af82856158cf565b6001546040516370a0823160e01b815291925085916001600160a01b03909116906370a08231906110e490309060040161546e565b602060405180830381865afa158015611101573d6000803e3d6000fd5b505050506040513d601f19601f8201168201806040525081019061112591906158e2565b1015611144576040516343c7ad8160e11b815260040160405180910390fd5b8660176000828254611156919061589a565b92505081905550836018600082825461116f91906158cf565b9091555050600154604051630852cd8d60e31b8152600481018490526001600160a01b03909116906342966c6890602401600060405180830381600087803b1580156111ba57600080fd5b505af11580156111ce573d6000803e3d6000fd5b505060015460405163a9059cbb60e01b81526001600160a01b03909116925063a9059cbb915061120490339085906004016155b8565b6020604051808303816000875af1158015611223573d6000803e3d6000fd5b505050506040513d601f19601f820116820180604052508101906112479190615850565b50336001600160a01b03167f36864aeefce16bc4aaceeb6b0cdfb2ad1455a8cb4ccb0db148a2bc6e7166f97c8883856040516112859392919061549b565b60405180910390a250505050505061129b613d37565b50565b6000600382106112b05750600f919050565b600282106112c05750600a919050565b600182106112d057506005919050565b506000919050565b601481815481106112e857600080fd5b600091825260209091206003909102018054600182015460029092015490925083565b611313613d01565b336000908152601060205260409020600181015415806113375750600381015460ff165b1561135557604051634065aaf160e11b815260040160405180910390fd5b33600090815260116020526040812090805b82548110156115ba57828181548110611382576113826158fb565b600091825260209091206004600690920201015460ff16156115b25760008382815481106113b2576113b26158fb565b9060005260206000209060060201600301546007036113d5575062cb735661143c565b8382815481106113e7576113e76158fb565b906000526020600020906006020160030154600f0361140a575062fe502b61143c565b83828154811061141c5761141c6158fb565b906000526020600020906006020160030154601e0361143c57506301312d005b6000603c858481548110611452576114526158fb565b9060005260206000209060060201600201544261146f91906158cf565b61147991906158ad565b905084838154811061148d5761148d6158fb565b9060005260206000209060060201600301548111156114cd578483815481106114b8576114b86158fb565b90600052602060002090600602016003015490505b806000036114dc5750506115b2565b6000633b9aca0082848887815481106114f7576114f76158fb565b9060005260206000209060060201600101546115139190615883565b61151d9190615883565b61152791906158ad565b9050600086858154811061153d5761153d6158fb565b9060005260206000209060060201600501549050808211156115ad57600061156582846158cf565b9050611571818861589a565b965080888781548110611586576115866158fb565b906000526020600020906006020160050160008282546115a6919061589a565b9091555050505b505050505b600101611367565b50806000036115dc57604051630fec21fd60e21b815260040160405180910390fd5b336000908152600f60205260409020600481015460039091015461160190839061589a565b111561162e57336000908152600f60205260409020600381015460049091015461162b91906158cf565b90505b806000036116475761163f33613d48565b505050611951565b336000908152600f60205260408120600301805483929061166990849061589a565b909155506000905061167c6002836158ad565b9050600061168b6002846158ad565b600080546040516370a0823160e01b8152929350909184916001600160a01b0316906370a08231906116c190309060040161546e565b602060405180830381865afa1580156116de573d6000803e3d6000fd5b505050506040513d601f19601f8201168201806040525081019061170291906158e2565b101580156117105750600083115b1561178f5760005460405163a9059cbb60e01b81526001600160a01b039091169063a9059cbb9061174790339087906004016155b8565b6020604051808303816000875af1158015611766573d6000803e3d6000fd5b505050506040513d601f19601f8201168201806040525081019061178a9190615850565b508290505b600061179961195b565b90506000816117b085670de0b6b3a7640000615883565b6117ba91906158ad565b6001546040516370a0823160e01b815291925060009183916001600160a01b0316906370a08231906117f090309060040161546e565b602060405180830381865afa15801561180d573d6000803e3d6000fd5b505050506040513d601f19601f8201168201806040525081019061183191906158e2565b1015801561183f5750600082115b156118be5760015460405163a9059cbb60e01b81526001600160a01b039091169063a9059cbb9061187690339086906004016155b8565b6020604051808303816000875af1158015611895573d6000803e3d6000fd5b505050506040513d601f19601f820116820180604052508101906118b99190615850565b508190505b336001600160a01b0316600080516020615a268339815191528860006040516118e8929190615911565b60405180910390a2885460405133916000805160206159c6833981519152916119179188918691600091615922565b60405180910390a2336000908152600f602052604090206004810154600390910154106119475761194733613d48565b5050505050505050505b611959613d37565b565b604f5460009061010090046001600160a01b0316156119f857604f546001546040516341976e0960e01b81526001600160a01b036101009093048316926341976e09926119ad9291169060040161546e565b602060405180830381865afa9250505080156119e6575060408051601f3d908101601f191682019092526119e3918101906158e2565b60015b156119f85780156119f657919050565b505b6018541580611a115750683635c9adc5dea00000601754105b15611a235750670de0b6b3a764000090565b601854601754611a3b90670de0b6b3a7640000615883565b611a4591906158ad565b905090565b600080611a56836141b0565b91509150915091565b611a67613ccf565b604f805460ff191690556040517f15de7ad89d29fd1c6d2e6b1e878453569b4080edf34e0105faaa3bd52f01853090600090a1565b611aa4613d01565b604f5460ff1615611ac75760405162461bcd60e51b8152600401610f2e90615800565b3360009081526010602052604081206001810154909103611afb57604051634065aaf160e11b815260040160405180910390fd5b600381015460ff1615611b2157604051631ecb2c4f60e31b815260040160405180910390fd5b81600714158015611b33575081600f14155b8015611b40575081601e14155b15611b5e57604051634dc7f5ff60e11b815260040160405180910390fd5b82600003611b7f5760405163162908e360e11b815260040160405180910390fd5b6000546040516323b872dd60e01b81526001600160a01b03909116906323b872dd90611bb39033903090889060040161582c565b6020604051808303816000875af1158015611bd2573d6000803e3d6000fd5b505050506040513d601f19601f82011682018060405250810190611bf69190615850565b50601a8054906000611c0783615940565b9091555050336000818152601160209081526040808320815160c081018352601a805482528185018a815242838601908152606084018b815260016080860181815260a087018b815288548084018a55988c528a8c2097516006909902909701978855935190870155905160028601555160038501555160048401805460ff19169115159190911790559051600590920191909155548352601e825280832080546001600160a01b03191685179055928252600f9052908120600a015490819003611ce857506001810154336000908152600f60205260409020600a018190555b60006064611cf7836096615883565b611d0191906158ad565b9050808514611d235760405163162908e360e11b815260040160405180910390fd5b611d2c33614277565b336001600160a01b03167fa8a1b9e33e503eed12bf7e7c8c01c7f3b60217a496bddd0f5db351dd8c056c1c8686601a54604051611d6b9392919061549b565b60405180910390a2336000908152600f60205260409020600601548015611ee857336000908152600f60205260408120600601556017548111801590611e2057506000546040516370a0823160e01b815282916001600160a01b0316906370a0823190611ddc90309060040161546e565b602060405180830381865afa158015611df9573d6000803e3d6000fd5b505050506040513d601f19601f82011682018060405250810190611e1d91906158e2565b10155b15611ee8578060176000828254611e3791906158cf565b909155505060005460405163a9059cbb60e01b81526001600160a01b039091169063a9059cbb90611e6e90339085906004016155b8565b6020604051808303816000875af1158015611e8d573d6000803e3d6000fd5b505050506040513d601f19601f82011682018060405250810190611eb19190615850565b5060405181815233907f3437b9ea7fa19c6d233dd70cc787a70fab87cee64d8ba4571512cc84402748f99060200160405180910390a25b50505050611ef4613d37565b5050565b611f006143a0565b611f0982614445565b611ef4828261444d565b611f1b613ccf565b604f805460ff191660011790556040517f4cb3183d0bf66f9634b15cfc3539fdddc96c2c9324848af89b56586a6739fec490600090a1565b611f5b613d01565b604f5460ff1615611f7e5760405162461bcd60e51b8152600401610f2e90615800565b80600003611f9f5760405163162908e360e11b815260040160405180910390fd5b683635c9adc5dea000006017541080611fc25750683635c9adc5dea00000601854105b15611fe0576040516343c7ad8160e11b815260040160405180910390fd5b6001546040516323b872dd60e01b81526001600160a01b03909116906323b872dd906120149033903090869060040161582c565b6020604051808303816000875af1158015612033573d6000803e3d6000fd5b505050506040513d601f19601f820116820180604052508101906120579190615850565b5060006064600e548361206a9190615883565b61207491906158ad565b9050600061208282846158cf565b90506000601854826127106120979190615883565b6120a191906158ad565b90506103e88111156120c65760405163162908e360e11b815260040160405180910390fd5b600154604051630852cd8d60e31b8152600481018590526001600160a01b03909116906342966c6890602401600060405180830381600087803b15801561210c57600080fd5b505af1158015612120573d6000803e3d6000fd5b505050506000601754836121349190615883565b9050600083601854612146919061589a565b9050600061215482846158ad565b6000546040516370a0823160e01b815291925082916001600160a01b03909116906370a082319061218990309060040161546e565b602060405180830381865afa1580156121a6573d6000803e3d6000fd5b505050506040513d601f19601f820116820180604052508101906121ca91906158e2565b10156121e9576040516343c7ad8160e11b815260040160405180910390fd5b84601860008282546121fb919061589a565b92505081905550806017600082825461221491906158cf565b909155505060005460405163a9059cbb60e01b81526001600160a01b039091169063a9059cbb9061224b90339085906004016155b8565b6020604051808303816000875af115801561226a573d6000803e3d6000fd5b505050506040513d601f19601f8201168201806040525081019061228e9190615850565b50336001600160a01b03167f223c8ad0806f634524940a8595f819c5cfc7b1f4f4f45791269301df0a7e61d58883896040516112859392919061549b565b60006122d6614506565b506000805160206159e683398151915290565b6122f1613ccf565b604f80546001600160a01b0390921661010002610100600160a81b0319909216919091179055565b612321613d01565b604f5460ff16156123445760405162461bcd60e51b8152600401610f2e90615800565b61234d3361454f565b8068056bc75e2d631000001415801561236f575080681043561a882930000014155b8015612384575080681b1ae4d6e2ef50000014155b8015612399575080683635c9adc5dea0000014155b156123b75760405163162908e360e11b815260040160405180910390fd5b6000546040516323b872dd60e01b81526001600160a01b03909116906323b872dd906123eb9033903090869060040161582c565b6020604051808303816000875af115801561240a573d6000803e3d6000fd5b505050506040513d601f19601f8201168201806040525081019061242e9190615850565b50336000908152601060205260409020600381015460ff16156124b4576019805490600061245b83615940565b90915550506019548155600181018290554260028201556003808201805460ff19169055336000908152600f6020526040812082015561249c908390615883565b336000908152600f602052604090206004015561253e565b80600101546000036124d0576019805490600061245b83615940565b818160010160008282546124e4919061589a565b9091555050336000908152600f602052604090206005015460ff161561250b574260028201555b612516826003615883565b336000908152600f60205260408120600401805490919061253890849061589a565b90915550505b336000908152600f602052604090206009015460018201541115612575576001810154336000908152600f60205260409020600901555b336000908152600f60205260409020600a01548211156125a557336000908152600f60205260409020600a018290555b80546000908152601c6020908152604080832080546001600160a01b031916339081179091558352600f9091529020546001600160a01b0316801580159061260857506001600160a01b0381166000908152600f602052604090206005015460ff165b1561268157600060646006548561261f9190615883565b61262991906158ad565b9050600061263983836002614726565b9050801561267a57835460405133916001600160a01b038616916000805160206159a683398151915291612671918691600291615959565b60405180910390a35b5050612717565b6000546002546006546001600160a01b039283169263a9059cbb9216906064906126ab9088615883565b6126b591906158ad565b6040518363ffffffff1660e01b81526004016126d29291906155b8565b6020604051808303816000875af11580156126f1573d6000803e3d6000fd5b505050506040513d601f19601f820116820180604052508101906127159190615850565b505b6127213384614973565b6000546002546008546001600160a01b039283169263a9059cbb92169060649061274b9088615883565b61275591906158ad565b6040518363ffffffff1660e01b81526004016127729291906155b8565b6020604051808303816000875af1158015612791573d6000803e3d6000fd5b505050506040513d601f19601f820116820180604052508101906127b59190615850565b5060006064600954856127c89190615883565b6127d291906158ad565b90506127dd81614b99565b600054600454600a546001600160a01b039283169263a9059cbb9216906064906128079089615883565b61281191906158ad565b6040518363ffffffff1660e01b815260040161282e9291906155b8565b6020604051808303816000875af115801561284d573d6000803e3d6000fd5b505050506040513d601f19601f820116820180604052508101906128719190615850565b50600054600354600b546001600160a01b039283169263a9059cbb92169060649061289c9089615883565b6128a691906158ad565b6040518363ffffffff1660e01b81526004016128c39291906155b8565b6020604051808303816000875af11580156128e2573d6000803e3d6000fd5b505050506040513d601f19601f820116820180604052508101906129069190615850565b5061291033614277565b825460405133917f2a91574e12ad96234e84923e146b0946ecfb871cd8d5534dc1fdcbe87a7c01b3916129449188916154b1565b60405180910390a250505061129b613d37565b61295f613ccf565b6119596000614e1e565b6013602052816000526040600020818154811061298557600080fd5b6000918252602090912060029091020180546001909101546001600160a01b039091169250905082565b6129b7613ccf565b6001600160a01b038416158015906129d757506001600160a01b03831615155b80156129eb57506001600160a01b03821615155b80156129ff57506001600160a01b03811615155b612a3d5760405162461bcd60e51b815260206004820152600f60248201526e496e76616c6964206164647265737360881b6044820152606401610f2e565b600280546001600160a01b038681166001600160a01b031992831681179093556003805487831690841681179091556004805487841690851681179091556005805493871693909416831790935560408051948552602085019190915283019190915260608201527f213f1de8063c19612a553f1480ff341bea689d36a56a2089f1b9060d599b5d83906080015b60405180910390a150505050565b600080612ae4614e7a565b546001600160a01b031692915050565b612afc613ccf565b600d829055600e8190556040517f4e9dd03193a0c81552fb8e6d32280f0d7e0ce8087241dc3d17ef3d193ee231d790610dba90849084906154b1565b612b40613ccf565b80601f6000828254612b5291906158cf565b909155505060005460405163a9059cbb60e01b81526001600160a01b039091169063a9059cbb90612b8990859085906004016155b8565b6020604051808303816000875af1158015612ba8573d6000803e3d6000fd5b505050506040513d601f19601f82011682018060405250810190612bcc9190615850565b50816001600160a01b03167f27971ee1acbfbdfb20656657ceb2e0e7b519b9e60fe1a6b1f6d27b159f4a607c82604051612c0891815260200190565b60405180910390a25050565b612c1c613ccf565b8115612cb2576000546040516323b872dd60e01b81526001600160a01b03909116906323b872dd90612c569033903090879060040161582c565b6020604051808303816000875af1158015612c75573d6000803e3d6000fd5b505050506040513d601f19601f82011682018060405250810190612c999190615850565b508160176000828254612cac919061589a565b90915550505b8015612d48576001546040516323b872dd60e01b81526001600160a01b03909116906323b872dd90612cec9033903090869060040161582c565b6020604051808303816000875af1158015612d0b573d6000803e3d6000fd5b505050506040513d601f19601f82011682018060405250810190612d2f9190615850565b508060186000828254612d42919061589a565b90915550505b7f38f8a0c92f4c5b0b6877f878cb4c0c8d348a47b76d716c8e78f425043df9515b8282604051610dba9291906154b1565b612d81613ccf565b60158190556040518181527fd28d9e4ce68d89af7920cb8618e342a78f51e545c530ce60f1cb1d6f0235b47f906020015b60405180910390a150565b601d602052816000526040600020818154811061298557600080fd5b60116020528160005260406000208181548110612df557600080fd5b600091825260209091206006909102018054600182015460028301546003840154600485015460059095015493965091945092909160ff9091169086565b612e3b613d01565b601654610100900460ff16612e7d5760405162461bcd60e51b8152602060048201526008602482015267111a5cd8589b195960c21b6044820152606401610f2e565b336000908152601160205260408120908080805b845481101561321357848181548110612eac57612eac6158fb565b600091825260209091206004600690920201015460ff161561320b576000603c868381548110612ede57612ede6158fb565b906000526020600020906006020160030154612efa9190615883565b868381548110612f0c57612f0c6158fb565b906000526020600020906006020160020154612f28919061589a565b9050804210613209576000868381548110612f4557612f456158fb565b906000526020600020906006020160030154600703612f68575062cb7356612fcf565b868381548110612f7a57612f7a6158fb565b906000526020600020906006020160030154600f03612f9d575062fe502b612fcf565b868381548110612faf57612faf6158fb565b906000526020600020906006020160030154601e03612fcf57506301312d005b6000633b9aca00888581548110612fe857612fe86158fb565b906000526020600020906006020160030154838a878154811061300d5761300d6158fb565b9060005260206000209060060201600101546130299190615883565b6130339190615883565b61303d91906158ad565b90506000888581548110613053576130536158fb565b90600052602060002090600602016005015482111561309e5788858154811061307e5761307e6158fb565b9060005260206000209060060201600501548261309b91906158cf565b90505b6130a8818761589a565b9550808986815481106130bd576130bd6158fb565b906000526020600020906006020160050160008282546130dd919061589a565b9091555050336000908152600f6020526040812060090154908190036131125750336000908152601060205260409020600101545b60006064600c54836131249190615883565b61312e91906158ad565b905060008b8881548110613144576131446158fb565b90600052602060002090600602016001015490508181111561317d5761316a82826158cf565b9050613176828b61589a565b995061318e565b613187818b61589a565b9950600090505b613198818c61589a565b9a5060008c89815481106131ae576131ae6158fb565b906000526020600020906006020160040160006101000a81548160ff0219169083151502179055506132028c89815481106131eb576131eb6158fb565b906000526020600020906006020160000154614e9e565b5050505050505b505b600101612e91565b5060008311806132235750600081115b6132635760405162461bcd60e51b81526020600482015260116024820152704e6f7468696e6720746f2072656465656d60781b6044820152606401610f2e565b811561328157816017600082825461327b919061589a565b90915550505b80156135dc57336000908152600f6020526040812060038101546004909101546132ab91906158cf565b9050808211156132ea57336001600160a01b0316600080516020615a0683398151915283836040516132de9291906154b1565b60405180910390a28091505b81156135da57336000908152600f60205260408120600301805484929061331290849061589a565b90915550600090506133256002846158ad565b905060006133346002856158ad565b600080546040516370a0823160e01b8152929350909184916001600160a01b0316906370a082319061336a90309060040161546e565b602060405180830381865afa158015613387573d6000803e3d6000fd5b505050506040513d601f19601f820116820180604052508101906133ab91906158e2565b101580156133b95750600083115b156134385760005460405163a9059cbb60e01b81526001600160a01b039091169063a9059cbb906133f090339087906004016155b8565b6020604051808303816000875af115801561340f573d6000803e3d6000fd5b505050506040513d601f19601f820116820180604052508101906134339190615850565b508290505b600061344261195b565b905060008161345985670de0b6b3a7640000615883565b61346391906158ad565b6001546040516370a0823160e01b815291925060009183916001600160a01b0316906370a082319061349990309060040161546e565b602060405180830381865afa1580156134b6573d6000803e3d6000fd5b505050506040513d601f19601f820116820180604052508101906134da91906158e2565b101580156134e85750600082115b156135675760015460405163a9059cbb60e01b81526001600160a01b039091169063a9059cbb9061351f90339086906004016155b8565b6020604051808303816000875af115801561353e573d6000803e3d6000fd5b505050506040513d601f19601f820116820180604052508101906135629190615850565b508190505b336001600160a01b0316600080516020615a26833981519152896000604051613591929190615911565b60405180910390a2336000818152601060205260408082205490516000805160206159c6833981519152926135cb92899287929190615922565b60405180910390a25050505050505b505b82156136595760005460405163a9059cbb60e01b81526001600160a01b039091169063a9059cbb9061361490339087906004016155b8565b6020604051808303816000875af1158015613633573d6000803e3d6000fd5b505050506040513d601f19601f820116820180604052508101906136579190615850565b505b336001600160a01b0316600080516020615a4683398151915284846040516136829291906154b1565b60405180910390a261369333614277565b336000908152600f602052604090206004810154600390910154106136bb576136bb33613d48565b50505050611959613d37565b60006136d1615065565b805490915060ff600160401b82041615906001600160401b03166000811580156136f85750825b90506000826001600160401b031660011480156137145750303b155b905081158015613722575080155b156137405760405163f92ee8a960e01b815260040160405180910390fd5b84546001600160401b0319166001178555831561376957845460ff60401b1916600160401b1785555b61377233615090565b61377a6150a1565b6137826150a9565b600080546001600160a01b03199081166001600160a01b038e8116919091179092556001805482168d84161781556002805483168d85161790556003805483168c85161790556004805483168b85161790556005805490921692891692909217815560196006819055600f6007556008829055600991909155600a819055600b819055600c919091556032600d55600e556203f4806015556016805461ffff191661010117905542601b55831561387357845460ff60401b19168555604051600181527fc7f505b2f371ae2175ee4913f4499e1f2633a7b5936321eed1cdaeb6115181d29060200160405180910390a15b5050505050505050505050565b613888613ccf565b6000546001600160a01b038481169116148015906138b457506001546001600160a01b03848116911614155b6139005760405162461bcd60e51b815260206004820152601d60248201527f43616e6e6f74207265736375652070726f746f636f6c20746f6b656e730000006044820152606401610f2e565b6001600160a01b03821661394a5760405162461bcd60e51b8152602060048201526011602482015270125b9d985b1a59081c9958da5c1a595b9d607a1b6044820152606401610f2e565b60405163a9059cbb60e01b81526001600160a01b0384169063a9059cbb9061397890859085906004016155b8565b6020604051808303816000875af1158015613997573d6000803e3d6000fd5b505050506040513d601f19601f820116820180604052508101906139bb9190615850565b507f77023e19c7343ad491fd706c36335ca0e738340a91f29b1fd81e2673d44896c48383836040516139ef9392919061582c565b60405180910390a1505050565b613a04613ccf565b6006869055600785905560088490556009839055600a829055600b8190556040805187815260208101879052908101859052606081018490526080810183905260a081018290527f66682b276e4cd1a4e1f68b55b1143766c5332f472eb593cf2a70a25d9d5d99179060c00160405180910390a1505050505050565b6001600160a01b038116600090815260126020908152604091829020805483518184028101840190945280845260609392830182828015613aea57602002820191906000526020600020905b81546001600160a01b03168152600190910190602001808311613acc575b50505050509050919050565b613afe613ccf565b8215613b92578260176000828254613b1691906158cf565b909155505060005460405163a9059cbb60e01b81526001600160a01b039091169063a9059cbb90613b4d90879087906004016155b8565b6020604051808303816000875af1158015613b6c573d6000803e3d6000fd5b505050506040513d601f19601f82011682018060405250810190613b909190615850565b505b8015613c26578060186000828254613baa91906158cf565b909155505060015460405163a9059cbb60e01b81526001600160a01b039091169063a9059cbb90613be190859085906004016155b8565b6020604051808303816000875af1158015613c00573d6000803e3d6000fd5b505050506040513d601f19601f82011682018060405250810190613c249190615850565b505b7f520bc217d25ef4588524228dffcfa518f4ad52178c71d49b8061d016213cd3118382604051612acb9291906154b1565b613c5f613ccf565b600c8190556040518181527fc7f6975dcffc536e6e57dd1d1dea810fff534a70563baf2d6f977b119bd00e1b90602001612db2565b613c9c613ccf565b6001600160a01b038116613cc6576000604051631e4fbdf760e01b8152600401610f2e919061546e565b61129b81614e1e565b33613cd8612ad9565b6001600160a01b031614611959573360405163118cdaa760e01b8152600401610f2e919061546e565b6000613d0b6150b9565b805490915060011901613d3157604051633ee5aeb560e01b815260040160405180910390fd5b60029055565b6000613d416150b9565b6001905550565b6001600160a01b0381166000908152601060205260409020600381015460ff16611ef45760038101805460ff191660011790556001600160a01b03808316600090815260116020526040808220825491516370a0823160e01b81529093839283929116906370a0823190613dc090309060040161546e565b602060405180830381865afa158015613ddd573d6000803e3d6000fd5b505050506040513d601f19601f82011682018060405250810190613e0191906158e2565b905060005b8454811015613f2957848181548110613e2157613e216158fb565b600091825260209091206004600690920201015460ff1615613f2157600061012c600c54878481548110613e5757613e576158fb565b9060005260206000209060060201600101546002613e759190615883565b613e7f9190615883565b613e8991906158ad565b90506000868381548110613e9f57613e9f6158fb565b9060005260206000209060060201600101549050818110613ecb57613ec482826158cf565b9050613ed0565b600091505b613eda818761589a565b9550613ee6828661589a565b94506000878481548110613efc57613efc6158fb565b60009182526020909120600690910201600401805460ff191691151591909117905550505b600101613e06565b50821561406157828110613fb25760005460405163a9059cbb60e01b81526001600160a01b039091169063a9059cbb90613f6990899087906004016155b8565b6020604051808303816000875af1158015613f88573d6000803e3d6000fd5b505050506040513d601f19601f82011682018060405250810190613fac9190615850565b50614061565b801561402f5760005460405163a9059cbb60e01b81526001600160a01b039091169063a9059cbb90613fea90899085906004016155b8565b6020604051808303816000875af1158015614009573d6000803e3d6000fd5b505050506040513d601f19601f8201168201806040525081019061402d9190615850565b505b856001600160a01b0316600080516020615a0683398151915284836040516140589291906154b1565b60405180910390a25b8115614098576001600160a01b0386166000908152600f60205260408120600601805484929061409290849061589a565b90915550505b6001600160a01b038087166000908152600f6020526040902060058101805460ff198116909155905460ff90911691168180156140dd57506001600160a01b03811615155b801561410357506001600160a01b0381166000908152600f602052604090206001015415155b15614135576001600160a01b0381166000908152600f6020526040812060010180549161412f83615972565b91905055505b876001600160a01b0316600080516020615a46833981519152868660405161415e9291906154b1565b60405180910390a286546040519081526001600160a01b038916907f920bb94eb3842a728db98228c375ff6b00c5bc5a54fac6736155517a0a20a61a9060200160405180910390a25050505050505050565b60008061271083106141c85750600992602d92509050565b61138883106141dd5750600892602892509050565b6107d083106141f25750600792602392509050565b6103e883106142075750600692601e92509050565b6101f4831061421c5750600592601992509050565b60c883106142305750600492601492509050565b606483106142445750600392600f92509050565b603283106142585750600292600a92509050565b6014831061426c5750600192600592509050565b506000928392509050565b6001600160a01b03811660009081526010602052604081206001810154909190158015906142aa5750600382015460ff16155b6001600160a01b0384166000908152600f602052604090206005015490915060ff16801515821515036142dd5750505050565b6001600160a01b038481166000908152600f6020526040902060058101805460ff1916851515179055541680614314575050505050565b821561434b576001600160a01b0381166000908152600f6020526040812060010180549161434183615940565b9190505550614399565b6001600160a01b0381166000908152600f602052604090206001015415614399576001600160a01b0381166000908152600f6020526040812060010180549161439383615972565b91905055505b5050505050565b306001600160a01b037f000000000000000000000000000000000000000000000000000000000000000016148061442757507f00000000000000000000000000000000000000000000000000000000000000006001600160a01b031661441b6000805160206159e6833981519152546001600160a01b031690565b6001600160a01b031614155b156119595760405163703e46dd60e11b815260040160405180910390fd5b61129b613ccf565b816001600160a01b03166352d1902d6040518163ffffffff1660e01b8152600401602060405180830381865afa9250505080156144a7575060408051601f3d908101601f191682019092526144a4918101906158e2565b60015b6144c65781604051634c9c8ce360e01b8152600401610f2e919061546e565b6000805160206159e683398151915281146144f757604051632a87526960e21b815260048101829052602401610f2e565b61450183836150dd565b505050565b306001600160a01b037f000000000000000000000000000000000000000000000000000000000000000016146119595760405163703e46dd60e11b815260040160405180910390fd5b6001600160a01b03811660009081526010602052604090206001810154158061457c5750600381015460ff165b15614585575050565b600061459083615133565b111561459a575050565b60155481600201546145ac919061589a565b42116145b6575050565b805460018201546001600160a01b038085166000908152600f60205260409020805460059091015491169060ff1680156145f857506001600160a01b03811615155b801561461e57506001600160a01b0381166000908152600f602052604090206001015415155b15614650576001600160a01b0381166000908152600f6020526040812060010180549161464a83615972565b91905055505b6001600160a01b0385166000908152600f6020526040812060058101805460ff199081169091556003808301849055600490920183905582875560018701839055600287019290925585018054909116905582156146dc5760008381526013602052604081206146bf91615380565b6000838152601c6020526040902080546001600160a01b03191690555b846001600160a01b03167f57025f0027038907eda728b59164fb63d06048f42e618a35267e6a12e49b2e4684846040516147179291906154b1565b60405180910390a25050505050565b6001600160a01b0383166000908152600f6020908152604080832060109092528220600582015460ff1615806147605750600381015460ff165b8061476d57506001810154155b1561477d5760009250505061496c565b6000546040516370a0823160e01b815286916001600160a01b0316906370a08231906147ad90309060040161546e565b602060405180830381865afa1580156147ca573d6000803e3d6000fd5b505050506040513d601f19601f820116820180604052508101906147ee91906158e2565b101561483157856001600160a01b0316600080516020615a0683398151915286600060405161481e9291906154b1565b60405180910390a260009250505061496c565b60008260030154836004015461484791906158cf565b9050858181111561488757819050876001600160a01b0316600080516020615a06833981519152888460405161487e9291906154b1565b60405180910390a25b801561494e57808460030160008282546148a1919061589a565b909155505060005460405163a9059cbb60e01b81526001600160a01b039091169063a9059cbb906148d8908b9085906004016155b8565b6020604051808303816000875af11580156148f7573d6000803e3d6000fd5b505050506040513d601f19601f8201168201806040525081019061491b9190615850565b50876001600160a01b0316600080516020615a268339815191528288604051614945929190615911565b60405180910390a25b83600401548460030154106149665761496688613d48565b93505050505b9392505050565b6001600160a01b038083166000908152600f60205260408120549091169080808060646149a1876001615883565b6149ab91906158ad565b90505b6001600160a01b038516158015906149c65750600f83105b80156149d25750601482105b15614b08576001600160a01b0385166000908152600f602052604090206005015460ff16614a2a576001600160a01b039485166000908152600f60205260409020549094169381614a2281615940565b9250506149ae565b6001600160a01b0385166000908152600f6020526040812060010154614a4f9061129e565b905083811115614ac9576000614a6787846003614726565b90508015614ac757614a79818761589a565b6001600160a01b03808b16600081815260106020526040908190205490519399509092918a16916000805160206159a683398151915291614abe918691600391615959565b60405180910390a35b505b6001600160a01b039586166000908152600f60205260409020549095169483614af181615940565b9450508280614aff90615940565b935050506149ae565b6000606460075488614b1a9190615883565b614b2491906158ad565b90506000614b3286836158cf565b90508015614b8e5780601f6000828254614b4c919061589a565b9091555050601f546040517fca2e2bff26d2adb9fe155e9265350494c16751676879cb7ced9141e0fcf3934391614b85918491906154b1565b60405180910390a15b505050505050505050565b80600003614ba45750565b683635c9adc5dea000006017541080614bc75750683635c9adc5dea00000601854105b15614bcf5750565b80601754614bdd919061589a565b6000546040516370a0823160e01b81526001600160a01b03909116906370a0823190614c0d90309060040161546e565b602060405180830381865afa158015614c2a573d6000803e3d6000fd5b505050506040513d601f19601f82011682018060405250810190614c4e91906158e2565b1015614c575750565b601754600090614c6983612710615883565b614c7391906158ad565b90506103e8811115614c83575050565b600060185483614c939190615883565b9050600083601754614ca5919061589a565b90506000614cb382846158ad565b9050801580614cc3575060185481115b15614ccf575050505050565b6018546001546040516370a0823160e01b81526001600160a01b03909116906370a0823190614d0290309060040161546e565b602060405180830381865afa158015614d1f573d6000803e3d6000fd5b505050506040513d601f19601f82011682018060405250810190614d4391906158e2565b1015614d50575050505050565b8460176000828254614d62919061589a565b925050819055508060186000828254614d7b91906158cf565b9091555050600154604051630852cd8d60e31b8152600481018390526001600160a01b03909116906342966c6890602401600060405180830381600087803b158015614dc657600080fd5b505af1158015614dda573d6000803e3d6000fd5b505050507f0ec3929061cbbbeecb325623e7d5a86c3dae11cb8a22ca45dc0972955657da258582604051614e0f9291906154b1565b60405180910390a15050505050565b6000614e28614e7a565b80546001600160a01b038481166001600160a01b031983168117845560405193945091169182907f8be0079c531659141344cd1fd0a4f28419497f9722a3daafe3b4186f6b6457e090600090a3505050565b7f9016d09d72d40fdae2fd8ceac6b6234c7706214fd39c1cd1e609a0528c19930090565b6000818152601e6020908152604080832054601d835281842080548351818602810186019094528084526001600160a01b039092169493909190849084015b82821015614f25576000848152602090819020604080518082019091526002850290910180546001600160a01b03168252600190810154828401529083529092019101614edd565b50505050905060005b815181101561504d576000614f7f838381518110614f4e57614f4e6158fb565b602002602001015160000151848481518110614f6c57614f6c6158fb565b6020026020010151602001516004614726565b90508015614fe357836001600160a01b0316838381518110614fa357614fa36158fb565b6020026020010151600001516001600160a01b03166000805160206159a683398151915283600489604051614fda93929190615959565b60405180910390a35b828281518110614ff557614ff56158fb565b6020026020010151600001516001600160a01b0316857fae629b396150638d6eb6de457cbffe5d618a10c8cc199a94976bed2b16ecd9938360405161503c91815260200190565b60405180910390a350600101614f2e565b506000838152601d6020526040812061450191615380565b6000807ff0c57e16840df040f15088dc2f81fe391c3923bec73e23a9662efc9c229c6a005b92915050565b6150986151c5565b61129b816151ea565b6119596151c5565b6150b16151c5565b6119596151f2565b7f9b779b17422d0df92223018b32b4d1fa46e071723d6817e2486d003becc55f0090565b6150e6826151fa565b6040516001600160a01b038316907fbc7cd75a20ee27fd9adebab32041f755214dbc6bffa90cc0225b39da2e5c2d3b90600090a280511561512b576145018282615256565b611ef46152cc565b6001600160a01b0381166000908152601160205260408120815b81548110156151be57818181548110615168576151686158fb565b600091825260209091206004600690920201015460ff16156151b657818181548110615196576151966158fb565b906000526020600020906006020160010154836151b3919061589a565b92505b60010161514d565b5050919050565b6151cd6152eb565b61195957604051631afcd79f60e31b815260040160405180910390fd5b613c9c6151c5565b613d376151c5565b806001600160a01b03163b6000036152275780604051634c9c8ce360e01b8152600401610f2e919061546e565b6000805160206159e683398151915280546001600160a01b0319166001600160a01b0392909216919091179055565b6060600080846001600160a01b0316846040516152739190615989565b600060405180830381855af49150503d80600081146152ae576040519150601f19603f3d011682016040523d82523d6000602084013e6152b3565b606091505b50915091506152c3858383615305565b95945050505050565b34156119595760405163b398979f60e01b815260040160405180910390fd5b60006152f5615065565b54600160401b900460ff16919050565b60608261531a5761531582615358565b61496c565b815115801561533157506001600160a01b0384163b155b156153515783604051639996b31560e01b8152600401610f2e919061546e565b508061496c565b80511561536757805160208201fd5b60405163d6bda27560e01b815260040160405180910390fd5b508054600082556002029060005260206000209081019061129b91905b808211156153c25780546001600160a01b03191681556000600182015560020161539d565b5090565b801515811461129b57600080fd5b600080604083850312156153e757600080fd5b82356153f2816153c6565b91506020830135615402816153c6565b809150509250929050565b80356001600160a01b038116811461542457600080fd5b919050565b60006020828403121561543b57600080fd5b61496c8261540d565b6000806040838503121561545757600080fd5b6154608361540d565b946020939093013593505050565b6001600160a01b0391909116815260200190565b60006020828403121561549457600080fd5b5035919050565b9283526020830191909152604082015260600190565b918252602082015260400190565b600080604083850312156154d257600080fd5b50508035926020909101359150565b634e487b7160e01b600052604160045260246000fd5b6000806040838503121561550a57600080fd5b6155138361540d565b915060208301356001600160401b038082111561552f57600080fd5b818501915085601f83011261554357600080fd5b813581811115615555576155556154e1565b604051601f8201601f19908116603f0116810190838211818310171561557d5761557d6154e1565b8160405282815288602084870101111561559657600080fd5b8260208601602083013760006020848301015280955050505050509250929050565b6001600160a01b03929092168252602082015260400190565b600080600080608085870312156155e757600080fd5b6155f08561540d565b93506155fe6020860161540d565b925061560c6040860161540d565b915061561a6060860161540d565b905092959194509250565b60005b83811015615640578181015183820152602001615628565b50506000910152565b6020815260008251806020840152615668816040850160208701615625565b601f01601f19169190910160400192915050565b60008060008060008060c0878903121561569557600080fd5b61569e8761540d565b95506156ac6020880161540d565b94506156ba6040880161540d565b93506156c86060880161540d565b92506156d66080880161540d565b91506156e460a0880161540d565b90509295509295509295565b60008060006060848603121561570557600080fd5b61570e8461540d565b925061571c6020850161540d565b9150604084013590509250925092565b60008060008060008060c0878903121561574557600080fd5b505084359660208601359650604086013595606081013595506080810135945060a0013592509050565b6020808252825182820181905260009190848201906040850190845b818110156157b05783516001600160a01b03168352928401929184019160010161578b565b50909695505050505050565b600080600080608085870312156157d257600080fd5b6157db8561540d565b9350602085013592506157f06040860161540d565b9396929550929360600135925050565b60208082526012908201527110dbdb9d1c9858dd081a5cc81c185d5cd95960721b604082015260600190565b6001600160a01b039384168152919092166020820152604081019190915260600190565b60006020828403121561586257600080fd5b815161496c816153c6565b634e487b7160e01b600052601160045260246000fd5b808202811582820484141761508a5761508a61586d565b8082018082111561508a5761508a61586d565b6000826158ca57634e487b7160e01b600052601260045260246000fd5b500490565b8181038181111561508a5761508a61586d565b6000602082840312156158f457600080fd5b5051919050565b634e487b7160e01b600052603260045260246000fd5b91825260ff16602082015260400190565b938452602084019290925260ff166040830152606082015260800190565b6000600182016159525761595261586d565b5060010190565b92835260ff919091166020830152604082015260600190565b6000816159815761598161586d565b506000190190565b6000825161599b818460208701615625565b919091019291505056fe9b3cc71482a1b2eebe764a739f46f1fe99291fd0183be81951532b29d0c9c8da6fcebd0a2ce98b28cb391d6008bbc769378c9a4919628e11639cb575cd320fcc360894a13ba1a3210667c828492db98dca3e2076cc3735a920a3ca505d382bbcb5987aab1afd379f6695f1068869ee8ca6a0d02304c57935a9cc3d3ea2e51e4df381583145e90b82cc5e529bf4fc4d0e44397174cdf145c4251ac33ef195a424f3a670cd3af7d64b488926880889d08a8585a138ff455227af6737339a1ec262a26469706673582212200ddd13eb79c58ee26862c391efe0d8a7aff18dea61ff74d6db89db3c4109116564736f6c63430008160033",
  "linkReferences": {},
  "deployedLinkReferences": {}
}