{
  "_format": "hh-sol-artifact-1",
  "contractName": "JinbaoProtocol",
  "sourceName": "contracts/JinbaoProtocol.sol",
  "abi": [
    {
      "inputs": [],
      "stateMutability": "nonpayable",
      "type": "constructor"
    },
    {
      "inputs": [
        {
          "internalType": "address",
          "name": "target",
          "type": "address"
        }
      ],
      "name": "AddressEmptyCode",
      "type": "error"
    },
    {
      "inputs": [],
      "name": "AlreadyBound",
      "type": "error"
    },
    {
      "inputs": [],
      "name": "AlreadyExited",
      "type": "error"
    },
    {
      "inputs": [
        {
          "internalType": "address",
          "name": "implementation",
          "type": "address"
        }
      ],
      "name": "ERC1967InvalidImplementation",
      "type": "error"
    },
    {
      "inputs": [],
      "name": "ERC1967NonPayable",
      "type": "error"
    },
    {
      "inputs": [],
      "name": "Expired",
      "type": "error"
    },
    {
      "inputs": [],
      "name": "FailedCall",
      "type": "error"
    },
    {
      "inputs": [],
      "name": "InsufficientBalance",
      "type": "error"
    },
    {
      "inputs": [],
      "name": "InvalidAddress",
      "type": "error"
    },
    {
      "inputs": [],
      "name": "InvalidAmount",
      "type": "error"
    },
    {
      "inputs": [],
      "name": "InvalidCycle",
      "type": "error"
    },
    {
      "inputs": [],
      "name": "InvalidFee",
      "type": "error"
    },
    {
      "inputs": [],
      "name": "InvalidInitialization",
      "type": "error"
    },
    {
      "inputs": [],
      "name": "InvalidLevelConfig",
      "type": "error"
    },
    {
      "inputs": [],
      "name": "InvalidRate",
      "type": "error"
    },
    {
      "inputs": [],
      "name": "InvalidTax",
      "type": "error"
    },
    {
      "inputs": [],
      "name": "LowLiquidity",
      "type": "error"
    },
    {
      "inputs": [],
      "name": "NoRewards",
      "type": "error"
    },
    {
      "inputs": [],
      "name": "NotActive",
      "type": "error"
    },
    {
      "inputs": [],
      "name": "NotInitializing",
      "type": "error"
    },
    {
      "inputs": [],
      "name": "NothingToRedeem",
      "type": "error"
    },
    {
      "inputs": [
        {
          "internalType": "address",
          "name": "owner",
          "type": "address"
        }
      ],
      "name": "OwnableInvalidOwner",
      "type": "error"
    },
    {
      "inputs": [
        {
          "internalType": "address",
          "name": "account",
          "type": "address"
        }
      ],
      "name": "OwnableUnauthorizedAccount",
      "type": "error"
    },
    {
      "inputs": [],
      "name": "ReentrancyGuardReentrantCall",
      "type": "error"
    },
    {
      "inputs": [],
      "name": "SelfReference",
      "type": "error"
    },
    {
      "inputs": [],
      "name": "SumNot100",
      "type": "error"
    },
    {
      "inputs": [],
      "name": "TransferFailed",
      "type": "error"
    },
    {
      "inputs": [],
      "name": "UUPSUnauthorizedCallContext",
      "type": "error"
    },
    {
      "inputs": [
        {
          "internalType": "bytes32",
          "name": "slot",
          "type": "bytes32"
        }
      ],
      "name": "UUPSUnsupportedProxiableUUID",
      "type": "error"
    },
    {
      "inputs": [],
      "name": "Unauthorized",
      "type": "error"
    },
    {
      "anonymous": false,
      "inputs": [
        {
          "indexed": true,
          "internalType": "address",
          "name": "user",
          "type": "address"
        },
        {
          "indexed": true,
          "internalType": "address",
          "name": "referrer",
          "type": "address"
        }
      ],
      "name": "BoundReferrer",
      "type": "event"
    },
    {
      "anonymous": false,
      "inputs": [
        {
          "indexed": false,
          "internalType": "uint256",
          "name": "mcAmount",
          "type": "uint256"
        },
        {
          "indexed": false,
          "internalType": "uint256",
          "name": "jbcBurned",
          "type": "uint256"
        }
      ],
      "name": "BuybackAndBurn",
      "type": "event"
    },
    {
      "anonymous": false,
      "inputs": [
        {
          "indexed": true,
          "internalType": "address",
          "name": "user",
          "type": "address"
        },
        {
          "indexed": false,
          "internalType": "uint256",
          "name": "ticketId",
          "type": "uint256"
        }
      ],
      "name": "Exited",
      "type": "event"
    },
    {
      "anonymous": false,
      "inputs": [
        {
          "indexed": true,
          "internalType": "address",
          "name": "user",
          "type": "address"
        },
        {
          "indexed": false,
          "internalType": "uint256",
          "name": "amount",
          "type": "uint256"
        }
      ],
      "name": "FeeRefunded",
      "type": "event"
    },
    {
      "anonymous": false,
      "inputs": [
        {
          "indexed": false,
          "internalType": "uint64",
          "name": "version",
          "type": "uint64"
        }
      ],
      "name": "Initialized",
      "type": "event"
    },
    {
      "anonymous": false,
      "inputs": [],
      "name": "LevelConfigsUpdated",
      "type": "event"
    },
    {
      "anonymous": false,
      "inputs": [
        {
          "indexed": true,
          "internalType": "uint256",
          "name": "ticketId",
          "type": "uint256"
        },
        {
          "indexed": true,
          "internalType": "address",
          "name": "upline",
          "type": "address"
        },
        {
          "indexed": false,
          "internalType": "uint256",
          "name": "amount",
          "type": "uint256"
        }
      ],
      "name": "LevelRewardRecorded",
      "type": "event"
    },
    {
      "anonymous": false,
      "inputs": [
        {
          "indexed": true,
          "internalType": "uint256",
          "name": "ticketId",
          "type": "uint256"
        },
        {
          "indexed": true,
          "internalType": "address",
          "name": "upline",
          "type": "address"
        },
        {
          "indexed": false,
          "internalType": "uint256",
          "name": "amount",
          "type": "uint256"
        }
      ],
      "name": "LevelRewardReleased",
      "type": "event"
    },
    {
      "anonymous": false,
      "inputs": [
        {
          "indexed": false,
          "internalType": "uint256",
          "name": "mcAmount",
          "type": "uint256"
        },
        {
          "indexed": false,
          "internalType": "uint256",
          "name": "jbcAmount",
          "type": "uint256"
        }
      ],
      "name": "LiquidityAdded",
      "type": "event"
    },
    {
      "anonymous": false,
      "inputs": [
        {
          "indexed": true,
          "internalType": "address",
          "name": "user",
          "type": "address"
        },
        {
          "indexed": false,
          "internalType": "uint256",
          "name": "amount",
          "type": "uint256"
        },
        {
          "indexed": false,
          "internalType": "uint256",
          "name": "cycleDays",
          "type": "uint256"
        },
        {
          "indexed": false,
          "internalType": "uint256",
          "name": "stakeId",
          "type": "uint256"
        }
      ],
      "name": "LiquidityStaked",
      "type": "event"
    },
    {
      "anonymous": false,
      "inputs": [
        {
          "indexed": false,
          "internalType": "bool",
          "name": "enabled",
          "type": "bool"
        }
      ],
      "name": "LiquidityStatusUpdated",
      "type": "event"
    },
    {
      "anonymous": false,
      "inputs": [
        {
          "indexed": true,
          "internalType": "address",
          "name": "previousOwner",
          "type": "address"
        },
        {
          "indexed": true,
          "internalType": "address",
          "name": "newOwner",
          "type": "address"
        }
      ],
      "name": "OwnershipTransferred",
      "type": "event"
    },
    {
      "anonymous": false,
      "inputs": [
        {
          "indexed": false,
          "internalType": "bool",
          "name": "enabled",
          "type": "bool"
        }
      ],
      "name": "RedeemStatusUpdated",
      "type": "event"
    },
    {
      "anonymous": false,
      "inputs": [
        {
          "indexed": true,
          "internalType": "address",
          "name": "user",
          "type": "address"
        },
        {
          "indexed": false,
          "internalType": "uint256",
          "name": "principal",
          "type": "uint256"
        },
        {
          "indexed": false,
          "internalType": "uint256",
          "name": "fee",
          "type": "uint256"
        }
      ],
      "name": "Redeemed",
      "type": "event"
    },
    {
      "anonymous": false,
      "inputs": [
        {
          "indexed": true,
          "internalType": "address",
          "name": "user",
          "type": "address"
        },
        {
          "indexed": true,
          "internalType": "address",
          "name": "from",
          "type": "address"
        },
        {
          "indexed": false,
          "internalType": "uint256",
          "name": "mcAmount",
          "type": "uint256"
        },
        {
          "indexed": false,
          "internalType": "uint8",
          "name": "rewardType",
          "type": "uint8"
        },
        {
          "indexed": false,
          "internalType": "uint256",
          "name": "ticketId",
          "type": "uint256"
        }
      ],
      "name": "ReferralRewardPaid",
      "type": "event"
    },
    {
      "anonymous": false,
      "inputs": [
        {
          "indexed": true,
          "internalType": "address",
          "name": "user",
          "type": "address"
        },
        {
          "indexed": false,
          "internalType": "uint256",
          "name": "amount",
          "type": "uint256"
        },
        {
          "indexed": false,
          "internalType": "uint256",
          "name": "cappedAmount",
          "type": "uint256"
        }
      ],
      "name": "RewardCapped",
      "type": "event"
    },
    {
      "anonymous": false,
      "inputs": [
        {
          "indexed": true,
          "internalType": "address",
          "name": "user",
          "type": "address"
        },
        {
          "indexed": false,
          "internalType": "uint256",
          "name": "mcAmount",
          "type": "uint256"
        },
        {
          "indexed": false,
          "internalType": "uint256",
          "name": "jbcAmount",
          "type": "uint256"
        },
        {
          "indexed": false,
          "internalType": "uint8",
          "name": "rewardType",
          "type": "uint8"
        },
        {
          "indexed": false,
          "internalType": "uint256",
          "name": "ticketId",
          "type": "uint256"
        }
      ],
      "name": "RewardClaimed",
      "type": "event"
    },
    {
      "anonymous": false,
      "inputs": [
        {
          "indexed": true,
          "internalType": "address",
          "name": "user",
          "type": "address"
        },
        {
          "indexed": false,
          "internalType": "uint256",
          "name": "amount",
          "type": "uint256"
        },
        {
          "indexed": false,
          "internalType": "uint8",
          "name": "rewardType",
          "type": "uint8"
        }
      ],
      "name": "RewardPaid",
      "type": "event"
    },
    {
      "anonymous": false,
      "inputs": [
        {
          "indexed": true,
          "internalType": "address",
          "name": "user",
          "type": "address"
        },
        {
          "indexed": false,
          "internalType": "uint256",
          "name": "jbcAmount",
          "type": "uint256"
        },
        {
          "indexed": false,
          "internalType": "uint256",
          "name": "mcAmount",
          "type": "uint256"
        },
        {
          "indexed": false,
          "internalType": "uint256",
          "name": "tax",
          "type": "uint256"
        }
      ],
      "name": "SwappedJBCToMC",
      "type": "event"
    },
    {
      "anonymous": false,
      "inputs": [
        {
          "indexed": true,
          "internalType": "address",
          "name": "user",
          "type": "address"
        },
        {
          "indexed": false,
          "internalType": "uint256",
          "name": "mcAmount",
          "type": "uint256"
        },
        {
          "indexed": false,
          "internalType": "uint256",
          "name": "jbcAmount",
          "type": "uint256"
        },
        {
          "indexed": false,
          "internalType": "uint256",
          "name": "tax",
          "type": "uint256"
        }
      ],
      "name": "SwappedMCToJBC",
      "type": "event"
    },
    {
      "anonymous": false,
      "inputs": [
        {
          "indexed": true,
          "internalType": "address",
          "name": "user",
          "type": "address"
        },
        {
          "indexed": false,
          "internalType": "uint256",
          "name": "ticketId",
          "type": "uint256"
        },
        {
          "indexed": false,
          "internalType": "uint256",
          "name": "amount",
          "type": "uint256"
        }
      ],
      "name": "TicketExpired",
      "type": "event"
    },
    {
      "anonymous": false,
      "inputs": [
        {
          "indexed": false,
          "internalType": "uint256",
          "name": "newDuration",
          "type": "uint256"
        }
      ],
      "name": "TicketFlexibilityDurationUpdated",
      "type": "event"
    },
    {
      "anonymous": false,
      "inputs": [
        {
          "indexed": true,
          "internalType": "address",
          "name": "user",
          "type": "address"
        },
        {
          "indexed": false,
          "internalType": "uint256",
          "name": "amount",
          "type": "uint256"
        },
        {
          "indexed": false,
          "internalType": "uint256",
          "name": "ticketId",
          "type": "uint256"
        }
      ],
      "name": "TicketPurchased",
      "type": "event"
    },
    {
      "anonymous": false,
      "inputs": [
        {
          "indexed": true,
          "internalType": "address",
          "name": "implementation",
          "type": "address"
        }
      ],
      "name": "Upgraded",
      "type": "event"
    },
    {
      "inputs": [],
      "name": "REWARD_DIRECT",
      "outputs": [
        {
          "internalType": "uint8",
          "name": "",
          "type": "uint8"
        }
      ],
      "stateMutability": "view",
      "type": "function"
    },
    {
      "inputs": [],
      "name": "REWARD_DYNAMIC",
      "outputs": [
        {
          "internalType": "uint8",
          "name": "",
          "type": "uint8"
        }
      ],
      "stateMutability": "view",
      "type": "function"
    },
    {
      "inputs": [],
      "name": "REWARD_LEVEL",
      "outputs": [
        {
          "internalType": "uint8",
          "name": "",
          "type": "uint8"
        }
      ],
      "stateMutability": "view",
      "type": "function"
    },
    {
      "inputs": [],
      "name": "REWARD_STATIC",
      "outputs": [
        {
          "internalType": "uint8",
          "name": "",
          "type": "uint8"
        }
      ],
      "stateMutability": "view",
      "type": "function"
    },
    {
      "inputs": [],
      "name": "SECONDS_IN_UNIT",
      "outputs": [
        {
          "internalType": "uint256",
          "name": "",
          "type": "uint256"
        }
      ],
      "stateMutability": "view",
      "type": "function"
    },
    {
      "inputs": [],
      "name": "UPGRADE_INTERFACE_VERSION",
      "outputs": [
        {
          "internalType": "string",
          "name": "",
          "type": "string"
        }
      ],
      "stateMutability": "view",
      "type": "function"
    },
    {
      "inputs": [
        {
          "internalType": "uint256",
          "name": "mcAmount",
          "type": "uint256"
        },
        {
          "internalType": "uint256",
          "name": "jbcAmount",
          "type": "uint256"
        }
      ],
      "name": "addLiquidity",
      "outputs": [],
      "stateMutability": "nonpayable",
      "type": "function"
    },
    {
      "inputs": [
        {
          "internalType": "address",
          "name": "user",
          "type": "address"
        },
        {
          "internalType": "address",
          "name": "newReferrer",
          "type": "address"
        }
      ],
      "name": "adminSetReferrer",
      "outputs": [],
      "stateMutability": "nonpayable",
      "type": "function"
    },
    {
      "inputs": [
        {
          "internalType": "address",
          "name": "user",
          "type": "address"
        },
        {
          "internalType": "uint256",
          "name": "_activeDirects",
          "type": "uint256"
        },
        {
          "internalType": "uint256",
          "name": "_teamCount",
          "type": "uint256"
        },
        {
          "internalType": "uint256",
          "name": "_teamTotalVolume",
          "type": "uint256"
        },
        {
          "internalType": "uint256",
          "name": "_teamTotalCap",
          "type": "uint256"
        }
      ],
      "name": "adminSetUserStats",
      "outputs": [],
      "stateMutability": "nonpayable",
      "type": "function"
    },
    {
      "inputs": [
        {
          "internalType": "uint256",
          "name": "amount",
          "type": "uint256"
        },
        {
          "internalType": "address",
          "name": "to",
          "type": "address"
        }
      ],
      "name": "adminWithdrawJBC",
      "outputs": [],
      "stateMutability": "nonpayable",
      "type": "function"
    },
    {
      "inputs": [
        {
          "internalType": "uint256",
          "name": "amount",
          "type": "uint256"
        },
        {
          "internalType": "address",
          "name": "to",
          "type": "address"
        }
      ],
      "name": "adminWithdrawMC",
      "outputs": [],
      "stateMutability": "nonpayable",
      "type": "function"
    },
    {
      "inputs": [
        {
          "internalType": "address",
          "name": "_referrer",
          "type": "address"
        }
      ],
      "name": "bindReferrer",
      "outputs": [],
      "stateMutability": "nonpayable",
      "type": "function"
    },
    {
      "inputs": [
        {
          "internalType": "uint256",
          "name": "amount",
          "type": "uint256"
        }
      ],
      "name": "buyTicket",
      "outputs": [],
      "stateMutability": "nonpayable",
      "type": "function"
    },
    {
      "inputs": [],
      "name": "buybackPercent",
      "outputs": [
        {
          "internalType": "uint256",
          "name": "",
          "type": "uint256"
        }
      ],
      "stateMutability": "view",
      "type": "function"
    },
    {
      "inputs": [],
      "name": "buybackWallet",
      "outputs": [
        {
          "internalType": "address",
          "name": "",
          "type": "address"
        }
      ],
      "stateMutability": "view",
      "type": "function"
    },
    {
      "inputs": [],
      "name": "claimRewards",
      "outputs": [],
      "stateMutability": "nonpayable",
      "type": "function"
    },
    {
      "inputs": [],
      "name": "dailyBurn",
      "outputs": [],
      "stateMutability": "nonpayable",
      "type": "function"
    },
    {
      "inputs": [
        {
          "internalType": "address",
          "name": "",
          "type": "address"
        },
        {
          "internalType": "uint256",
          "name": "",
          "type": "uint256"
        }
      ],
      "name": "directReferrals",
      "outputs": [
        {
          "internalType": "address",
          "name": "",
          "type": "address"
        }
      ],
      "stateMutability": "view",
      "type": "function"
    },
    {
      "inputs": [],
      "name": "directRewardPercent",
      "outputs": [
        {
          "internalType": "uint256",
          "name": "",
          "type": "uint256"
        }
      ],
      "stateMutability": "view",
      "type": "function"
    },
    {
      "inputs": [],
      "name": "expireMyTicket",
      "outputs": [],
      "stateMutability": "nonpayable",
      "type": "function"
    },
    {
      "inputs": [
        {
          "internalType": "uint256",
          "name": "amountIn",
          "type": "uint256"
        },
        {
          "internalType": "uint256",
          "name": "reserveIn",
          "type": "uint256"
        },
        {
          "internalType": "uint256",
          "name": "reserveOut",
          "type": "uint256"
        }
      ],
      "name": "getAmountOut",
      "outputs": [
        {
          "internalType": "uint256",
          "name": "",
          "type": "uint256"
        }
      ],
      "stateMutability": "pure",
      "type": "function"
    },
    {
      "inputs": [
        {
          "internalType": "address",
          "name": "user",
          "type": "address"
        }
      ],
      "name": "getDirectReferrals",
      "outputs": [
        {
          "internalType": "address[]",
          "name": "",
          "type": "address[]"
        }
      ],
      "stateMutability": "view",
      "type": "function"
    },
    {
      "inputs": [
        {
          "internalType": "address",
          "name": "user",
          "type": "address"
        }
      ],
      "name": "getDirectReferralsData",
      "outputs": [
        {
          "components": [
            {
              "internalType": "address",
              "name": "user",
              "type": "address"
            },
            {
              "internalType": "uint256",
              "name": "ticketAmount",
              "type": "uint256"
            },
            {
              "internalType": "uint256",
              "name": "joinTime",
              "type": "uint256"
            }
          ],
          "internalType": "struct JinbaoProtocol.DirectReferralData[]",
          "name": "",
          "type": "tuple[]"
        }
      ],
      "stateMutability": "view",
      "type": "function"
    },
    {
      "inputs": [],
      "name": "getJBCPrice",
      "outputs": [
        {
          "internalType": "uint256",
          "name": "",
          "type": "uint256"
        }
      ],
      "stateMutability": "view",
      "type": "function"
    },
    {
      "inputs": [
        {
          "internalType": "uint256",
          "name": "activeDirects",
          "type": "uint256"
        }
      ],
      "name": "getLevel",
      "outputs": [
        {
          "internalType": "uint256",
          "name": "level",
          "type": "uint256"
        },
        {
          "internalType": "uint256",
          "name": "percent",
          "type": "uint256"
        }
      ],
      "stateMutability": "view",
      "type": "function"
    },
    {
      "inputs": [
        {
          "internalType": "address",
          "name": "_mcToken",
          "type": "address"
        },
        {
          "internalType": "address",
          "name": "_jbcToken",
          "type": "address"
        },
        {
          "internalType": "address",
          "name": "_marketing",
          "type": "address"
        },
        {
          "internalType": "address",
          "name": "_treasury",
          "type": "address"
        },
        {
          "internalType": "address",
          "name": "_lpInjection",
          "type": "address"
        },
        {
          "internalType": "address",
          "name": "_buybackWallet",
          "type": "address"
        }
      ],
      "name": "initialize",
      "outputs": [],
      "stateMutability": "nonpayable",
      "type": "function"
    },
    {
      "inputs": [],
      "name": "jbcToken",
      "outputs": [
        {
          "internalType": "contract IJBC",
          "name": "",
          "type": "address"
        }
      ],
      "stateMutability": "view",
      "type": "function"
    },
    {
      "inputs": [],
      "name": "lastBurnTime",
      "outputs": [
        {
          "internalType": "uint256",
          "name": "",
          "type": "uint256"
        }
      ],
      "stateMutability": "view",
      "type": "function"
    },
    {
      "inputs": [
        {
          "internalType": "uint256",
          "name": "",
          "type": "uint256"
        }
      ],
      "name": "levelConfigs",
      "outputs": [
        {
          "internalType": "uint256",
          "name": "minDirects",
          "type": "uint256"
        },
        {
          "internalType": "uint256",
          "name": "level",
          "type": "uint256"
        },
        {
          "internalType": "uint256",
          "name": "percent",
          "type": "uint256"
        }
      ],
      "stateMutability": "view",
      "type": "function"
    },
    {
      "inputs": [],
      "name": "levelRewardPercent",
      "outputs": [
        {
          "internalType": "uint256",
          "name": "",
          "type": "uint256"
        }
      ],
      "stateMutability": "view",
      "type": "function"
    },
    {
      "inputs": [],
      "name": "liquidityEnabled",
      "outputs": [
        {
          "internalType": "bool",
          "name": "",
          "type": "bool"
        }
      ],
      "stateMutability": "view",
      "type": "function"
    },
    {
      "inputs": [],
      "name": "lpInjectionPercent",
      "outputs": [
        {
          "internalType": "uint256",
          "name": "",
          "type": "uint256"
        }
      ],
      "stateMutability": "view",
      "type": "function"
    },
    {
      "inputs": [],
      "name": "lpInjectionWallet",
      "outputs": [
        {
          "internalType": "address",
          "name": "",
          "type": "address"
        }
      ],
      "stateMutability": "view",
      "type": "function"
    },
    {
      "inputs": [],
      "name": "marketingPercent",
      "outputs": [
        {
          "internalType": "uint256",
          "name": "",
          "type": "uint256"
        }
      ],
      "stateMutability": "view",
      "type": "function"
    },
    {
      "inputs": [],
      "name": "marketingWallet",
      "outputs": [
        {
          "internalType": "address",
          "name": "",
          "type": "address"
        }
      ],
      "stateMutability": "view",
      "type": "function"
    },
    {
      "inputs": [],
      "name": "mcToken",
      "outputs": [
        {
          "internalType": "contract IERC20",
          "name": "",
          "type": "address"
        }
      ],
      "stateMutability": "view",
      "type": "function"
    },
    {
      "inputs": [],
      "name": "nextStakeId",
      "outputs": [
        {
          "internalType": "uint256",
          "name": "",
          "type": "uint256"
        }
      ],
      "stateMutability": "view",
      "type": "function"
    },
    {
      "inputs": [],
      "name": "nextTicketId",
      "outputs": [
        {
          "internalType": "uint256",
          "name": "",
          "type": "uint256"
        }
      ],
      "stateMutability": "view",
      "type": "function"
    },
    {
      "inputs": [],
      "name": "owner",
      "outputs": [
        {
          "internalType": "address",
          "name": "",
          "type": "address"
        }
      ],
      "stateMutability": "view",
      "type": "function"
    },
    {
      "inputs": [],
      "name": "proxiableUUID",
      "outputs": [
        {
          "internalType": "bytes32",
          "name": "",
          "type": "bytes32"
        }
      ],
      "stateMutability": "view",
      "type": "function"
    },
    {
      "inputs": [],
      "name": "redeem",
      "outputs": [],
      "stateMutability": "nonpayable",
      "type": "function"
    },
    {
      "inputs": [],
      "name": "redeemEnabled",
      "outputs": [
        {
          "internalType": "bool",
          "name": "",
          "type": "bool"
        }
      ],
      "stateMutability": "view",
      "type": "function"
    },
    {
      "inputs": [],
      "name": "redemptionFeePercent",
      "outputs": [
        {
          "internalType": "uint256",
          "name": "",
          "type": "uint256"
        }
      ],
      "stateMutability": "view",
      "type": "function"
    },
    {
      "inputs": [],
      "name": "renounceOwnership",
      "outputs": [],
      "stateMutability": "nonpayable",
      "type": "function"
    },
    {
      "inputs": [
        {
          "internalType": "uint256",
          "name": "_direct",
          "type": "uint256"
        },
        {
          "internalType": "uint256",
          "name": "_level",
          "type": "uint256"
        },
        {
          "internalType": "uint256",
          "name": "_marketing",
          "type": "uint256"
        },
        {
          "internalType": "uint256",
          "name": "_buyback",
          "type": "uint256"
        },
        {
          "internalType": "uint256",
          "name": "_lp",
          "type": "uint256"
        },
        {
          "internalType": "uint256",
          "name": "_treasury",
          "type": "uint256"
        }
      ],
      "name": "setDistributionPercents",
      "outputs": [],
      "stateMutability": "nonpayable",
      "type": "function"
    },
    {
      "inputs": [
        {
          "components": [
            {
              "internalType": "uint256",
              "name": "minDirects",
              "type": "uint256"
            },
            {
              "internalType": "uint256",
              "name": "level",
              "type": "uint256"
            },
            {
              "internalType": "uint256",
              "name": "percent",
              "type": "uint256"
            }
          ],
          "internalType": "struct JinbaoProtocol.LevelConfig[]",
          "name": "_configs",
          "type": "tuple[]"
        }
      ],
      "name": "setLevelConfigs",
      "outputs": [],
      "stateMutability": "nonpayable",
      "type": "function"
    },
    {
      "inputs": [
        {
          "internalType": "bool",
          "name": "_enabled",
          "type": "bool"
        }
      ],
      "name": "setLiquidityEnabled",
      "outputs": [],
      "stateMutability": "nonpayable",
      "type": "function"
    },
    {
      "inputs": [
        {
          "internalType": "bool",
          "name": "_enabled",
          "type": "bool"
        }
      ],
      "name": "setRedeemEnabled",
      "outputs": [],
      "stateMutability": "nonpayable",
      "type": "function"
    },
    {
      "inputs": [
        {
          "internalType": "uint256",
          "name": "_fee",
          "type": "uint256"
        }
      ],
      "name": "setRedemptionFee",
      "outputs": [],
      "stateMutability": "nonpayable",
      "type": "function"
    },
    {
      "inputs": [
        {
          "internalType": "uint256",
          "name": "_buyTax",
          "type": "uint256"
        },
        {
          "internalType": "uint256",
          "name": "_sellTax",
          "type": "uint256"
        }
      ],
      "name": "setSwapTaxes",
      "outputs": [],
      "stateMutability": "nonpayable",
      "type": "function"
    },
    {
      "inputs": [
        {
          "internalType": "uint256",
          "name": "_duration",
          "type": "uint256"
        }
      ],
      "name": "setTicketFlexibilityDuration",
      "outputs": [],
      "stateMutability": "nonpayable",
      "type": "function"
    },
    {
      "inputs": [
        {
          "internalType": "address",
          "name": "_marketing",
          "type": "address"
        },
        {
          "internalType": "address",
          "name": "_treasury",
          "type": "address"
        },
        {
          "internalType": "address",
          "name": "_lpInjection",
          "type": "address"
        },
        {
          "internalType": "address",
          "name": "_buyback",
          "type": "address"
        }
      ],
      "name": "setWallets",
      "outputs": [],
      "stateMutability": "nonpayable",
      "type": "function"
    },
    {
      "inputs": [
        {
          "internalType": "uint256",
          "name": "amount",
          "type": "uint256"
        },
        {
          "internalType": "uint256",
          "name": "cycleDays",
          "type": "uint256"
        }
      ],
      "name": "stakeLiquidity",
      "outputs": [],
      "stateMutability": "nonpayable",
      "type": "function"
    },
    {
      "inputs": [],
      "name": "swapBuyTax",
      "outputs": [
        {
          "internalType": "uint256",
          "name": "",
          "type": "uint256"
        }
      ],
      "stateMutability": "view",
      "type": "function"
    },
    {
      "inputs": [
        {
          "internalType": "uint256",
          "name": "jbcAmount",
          "type": "uint256"
        }
      ],
      "name": "swapJBCToMC",
      "outputs": [],
      "stateMutability": "nonpayable",
      "type": "function"
    },
    {
      "inputs": [
        {
          "internalType": "uint256",
          "name": "mcAmount",
          "type": "uint256"
        }
      ],
      "name": "swapMCToJBC",
      "outputs": [],
      "stateMutability": "nonpayable",
      "type": "function"
    },
    {
      "inputs": [],
      "name": "swapReserveJBC",
      "outputs": [
        {
          "internalType": "uint256",
          "name": "",
          "type": "uint256"
        }
      ],
      "stateMutability": "view",
      "type": "function"
    },
    {
      "inputs": [],
      "name": "swapReserveMC",
      "outputs": [
        {
          "internalType": "uint256",
          "name": "",
          "type": "uint256"
        }
      ],
      "stateMutability": "view",
      "type": "function"
    },
    {
      "inputs": [],
      "name": "swapSellTax",
      "outputs": [
        {
          "internalType": "uint256",
          "name": "",
          "type": "uint256"
        }
      ],
      "stateMutability": "view",
      "type": "function"
    },
    {
      "inputs": [],
      "name": "ticketFlexibilityDuration",
      "outputs": [
        {
          "internalType": "uint256",
          "name": "",
          "type": "uint256"
        }
      ],
      "stateMutability": "view",
      "type": "function"
    },
    {
      "inputs": [
        {
          "internalType": "uint256",
          "name": "",
          "type": "uint256"
        }
      ],
      "name": "ticketOwner",
      "outputs": [
        {
          "internalType": "address",
          "name": "",
          "type": "address"
        }
      ],
      "stateMutability": "view",
      "type": "function"
    },
    {
      "inputs": [
        {
          "internalType": "uint256",
          "name": "",
          "type": "uint256"
        },
        {
          "internalType": "uint256",
          "name": "",
          "type": "uint256"
        }
      ],
      "name": "ticketPendingRewards",
      "outputs": [
        {
          "internalType": "address",
          "name": "upline",
          "type": "address"
        },
        {
          "internalType": "uint256",
          "name": "amount",
          "type": "uint256"
        }
      ],
      "stateMutability": "view",
      "type": "function"
    },
    {
      "inputs": [
        {
          "internalType": "address",
          "name": "newOwner",
          "type": "address"
        }
      ],
      "name": "transferOwnership",
      "outputs": [],
      "stateMutability": "nonpayable",
      "type": "function"
    },
    {
      "inputs": [],
      "name": "treasuryPercent",
      "outputs": [
        {
          "internalType": "uint256",
          "name": "",
          "type": "uint256"
        }
      ],
      "stateMutability": "view",
      "type": "function"
    },
    {
      "inputs": [],
      "name": "treasuryWallet",
      "outputs": [
        {
          "internalType": "address",
          "name": "",
          "type": "address"
        }
      ],
      "stateMutability": "view",
      "type": "function"
    },
    {
      "inputs": [
        {
          "internalType": "address",
          "name": "newImplementation",
          "type": "address"
        },
        {
          "internalType": "bytes",
          "name": "data",
          "type": "bytes"
        }
      ],
      "name": "upgradeToAndCall",
      "outputs": [],
      "stateMutability": "payable",
      "type": "function"
    },
    {
      "inputs": [
        {
          "internalType": "address",
          "name": "",
          "type": "address"
        }
      ],
      "name": "userInfo",
      "outputs": [
        {
          "internalType": "address",
          "name": "referrer",
          "type": "address"
        },
        {
          "internalType": "uint256",
          "name": "activeDirects",
          "type": "uint256"
        },
        {
          "internalType": "uint256",
          "name": "teamCount",
          "type": "uint256"
        },
        {
          "internalType": "uint256",
          "name": "totalRevenue",
          "type": "uint256"
        },
        {
          "internalType": "uint256",
          "name": "currentCap",
          "type": "uint256"
        },
        {
          "internalType": "bool",
          "name": "isActive",
          "type": "bool"
        },
        {
          "internalType": "uint256",
          "name": "refundFeeAmount",
          "type": "uint256"
        },
        {
          "internalType": "uint256",
          "name": "teamTotalVolume",
          "type": "uint256"
        },
        {
          "internalType": "uint256",
          "name": "teamTotalCap",
          "type": "uint256"
        },
        {
          "internalType": "uint256",
          "name": "maxTicketAmount",
          "type": "uint256"
        }
      ],
      "stateMutability": "view",
      "type": "function"
    },
    {
      "inputs": [
        {
          "internalType": "address",
          "name": "",
          "type": "address"
        },
        {
          "internalType": "uint256",
          "name": "",
          "type": "uint256"
        }
      ],
      "name": "userStakes",
      "outputs": [
        {
          "internalType": "uint256",
          "name": "id",
          "type": "uint256"
        },
        {
          "internalType": "uint256",
          "name": "amount",
          "type": "uint256"
        },
        {
          "internalType": "uint256",
          "name": "startTime",
          "type": "uint256"
        },
        {
          "internalType": "uint256",
          "name": "cycleDays",
          "type": "uint256"
        },
        {
          "internalType": "bool",
          "name": "active",
          "type": "bool"
        },
        {
          "internalType": "uint256",
          "name": "paid",
          "type": "uint256"
        }
      ],
      "stateMutability": "view",
      "type": "function"
    },
    {
      "inputs": [
        {
          "internalType": "address",
          "name": "",
          "type": "address"
        }
      ],
      "name": "userTicket",
      "outputs": [
        {
          "internalType": "uint256",
          "name": "ticketId",
          "type": "uint256"
        },
        {
          "internalType": "uint256",
          "name": "amount",
          "type": "uint256"
        },
        {
          "internalType": "uint256",
          "name": "purchaseTime",
          "type": "uint256"
        },
        {
          "internalType": "bool",
          "name": "exited",
          "type": "bool"
        }
      ],
      "stateMutability": "view",
      "type": "function"
    }
  ],
  "bytecode": "0x60a0604052306080523480156200001557600080fd5b506200002062000026565b620000da565b7ff0c57e16840df040f15088dc2f81fe391c3923bec73e23a9662efc9c229c6a00805468010000000000000000900460ff1615620000775760405163f92ee8a960e01b815260040160405180910390fd5b80546001600160401b0390811614620000d75780546001600160401b0319166001600160401b0390811782556040519081527fc7f505b2f371ae2175ee4913f4499e1f2633a7b5936321eed1cdaeb6115181d29060200160405180910390a15b50565b608051615e6b620001046000396000818161474d0152818161477601526148ae0152615e6b6000f3fe60806040526004361061030a5760003560e01c8063021d28931461030f57806304ef9d581461033157806304f618cb1461035a578063054d50d41461037a57806305ad39351461039a5780630a5c4567146103c75780630e2be210146103e75780630fc4fc1a1461040e5780631427f6161461043b5780631788513c146104505780631959a002146104705780631d0dac761461054057806321f483d31461055657806327f082f414610585578063372500ab1461059b5780633a3ea2f0146105b05780634626402b146105c5578063480937de146105e5578063488b5d97146106055780634ea4c6b31461061a5780634f1ef2861461063a57806352778b051461064d57806352d1902d1461066d5780636031a52f1461068257806362eea9141461069857806367dd74ca146106b85780636dd66827146106d8578063715018a6146106ee57806375506c961461070357806375e6b5681461071957806375f0a8741461073957806377a2a540146107595780637dbc1df01461076f578063813380cd1461078f57806381eeef5c146107bd57806383672f3e146107d257806386481d40146107f25780638710bcaa1461082057806388fd4d33146108875780638a859a85146108a75780638c0eaa48146108bc5780638da5cb5b146108d157806390b0eb51146108e65780639370b08014610906578063952539921461091c57806398b8972f1461093c5780639cd441da146109515780639d99eca414610971578063a2af922614610991578063ad3cb1cc146109b1578063b048a4bb146109ef578063b5d5b5fa14610a19578063bd594dcf14610a68578063be040fb014610a7e578063be57479914610a93578063c2ff12fc14610ab3578063cc2a9a5b14610ae9578063ccf6194414610b09578063ceaa366d14610b1f578063d241e00114610b35578063d2c8e0e514610b55578063d2f8253614610b82578063d8020a1814610ba1578063deab8aea14610bb7578063dec7fa3b14610bd7578063e306744914610bed578063e4412f6814610c03578063ecda2d3214610c19578063f2fde38b14610c39575b600080fd5b34801561031b57600080fd5b5061032f61032a366004615601565b610c59565b005b34801561033d57600080fd5b50610347600b5481565b6040519081526020015b60405180910390f35b34801561036657600080fd5b5061032f61037536600461563a565b610cb5565b34801561038657600080fd5b50610347610395366004615655565b610dba565b3480156103a657600080fd5b506103ba6103b5366004615681565b610e38565b60405161035191906156ab565b3480156103d357600080fd5b5061032f6103e23660046156bf565b610e70565b3480156103f357600080fd5b506103fc600281565b60405160ff9091168152602001610351565b34801561041a57600080fd5b5061042e61042936600461563a565b61113a565b60405161035191906156d8565b34801561044757600080fd5b506103fc600081565b34801561045c57600080fd5b506001546103ba906001600160a01b031681565b34801561047c57600080fd5b506104ea61048b36600461563a565b600f6020526000908152604090208054600182015460028301546003840154600485015460058601546006870154600788015460088901546009909901546001600160a01b0390981698969795969495939460ff90931693919290918a565b604080516001600160a01b03909b168b5260208b01999099529789019690965260608801949094526080870192909252151560a086015260c085015260e084015261010083015261012082015261014001610351565b34801561054c57600080fd5b5061034760185481565b34801561056257600080fd5b506105766105713660046156bf565b61126b565b6040516103519392919061573a565b34801561059157600080fd5b50610347600d5481565b3480156105a757600080fd5b5061032f61129e565b3480156105bc57600080fd5b506103476118ee565b3480156105d157600080fd5b506003546103ba906001600160a01b031681565b3480156105f157600080fd5b5061032f610600366004615601565b61192e565b34801561061157600080fd5b50610347603c81565b34801561062657600080fd5b5061032f610635366004615750565b611977565b61032f6106483660046157e0565b611dba565b34801561065957600080fd5b5061032f6106683660046156bf565b611dd5565b34801561067957600080fd5b50610347612088565b34801561068e57600080fd5b5061034760195481565b3480156106a457600080fd5b5061032f6106b3366004615885565b6120a5565b3480156106c457600080fd5b5061032f6106d33660046156bf565b612182565b3480156106e457600080fd5b5061034760155481565b3480156106fa57600080fd5b5061032f61276c565b34801561070f57600080fd5b50610347601a5481565b34801561072557600080fd5b5061032f6107343660046158b1565b61277e565b34801561074557600080fd5b506002546103ba906001600160a01b031681565b34801561076557600080fd5b5061034760175481565b34801561077b57600080fd5b5061032f61078a3660046156bf565b6127ba565b34801561079b57600080fd5b506107af6107aa366004615750565b6127e9565b6040516103519291906158f3565b3480156107c957600080fd5b5061032f61282f565b3480156107de57600080fd5b5061032f6107ed36600461590c565b612a1d565b3480156107fe57600080fd5b5061081261080d3660046156bf565b612a75565b604051610351929190615960565b34801561082c57600080fd5b5061086561083b36600461563a565b60106020526000908152604090208054600182015460028301546003909301549192909160ff1684565b6040805194855260208501939093529183015215156060820152608001610351565b34801561089357600080fd5b506004546103ba906001600160a01b031681565b3480156108b357600080fd5b506103fc600181565b3480156108c857600080fd5b506103fc600381565b3480156108dd57600080fd5b506103ba612b18565b3480156108f257600080fd5b5061032f610901366004615750565b612b33565b34801561091257600080fd5b50610347600e5481565b34801561092857600080fd5b506000546103ba906001600160a01b031681565b34801561094857600080fd5b5061032f612b73565b34801561095d57600080fd5b5061032f61096c366004615750565b612b7c565b34801561097d57600080fd5b5061032f61098c3660046156bf565b612d17565b34801561099d57600080fd5b5061032f6109ac36600461596e565b612d54565b3480156109bd57600080fd5b506109e2604051806040016040528060058152602001640352e302e360dc1b81525081565b60405161035191906159bc565b3480156109fb57600080fd5b50601654610a099060ff1681565b6040519015158152602001610351565b348015610a2557600080fd5b50610a39610a34366004615681565b612f2c565b6040805196875260208701959095529385019290925260608401521515608083015260a082015260c001610351565b348015610a7457600080fd5b5061034760075481565b348015610a8a57600080fd5b5061032f612f86565b348015610a9f57600080fd5b5061032f610aae3660046159ef565b613871565b348015610abf57600080fd5b506103ba610ace3660046156bf565b601c602052600090815260409020546001600160a01b031681565b348015610af557600080fd5b5061032f610b04366004615ac2565b613913565b348015610b1557600080fd5b5061034760065481565b348015610b2b57600080fd5b50610347600a5481565b348015610b4157600080fd5b5061032f610b50366004615885565b613f51565b348015610b6157600080fd5b50610b75610b7036600461563a565b613fe6565b6040516103519190615b36565b348015610b8e57600080fd5b50601654610a0990610100900460ff1681565b348015610bad57600080fd5b5061034760085481565b348015610bc357600080fd5b506005546103ba906001600160a01b031681565b348015610be357600080fd5b50610347600c5481565b348015610bf957600080fd5b50610347601b5481565b348015610c0f57600080fd5b5061034760095481565b348015610c2557600080fd5b5061032f610c34366004615b83565b61405c565b348015610c4557600080fd5b5061032f610c5436600461563a565b614130565b610c6161416b565b601680548215156101000261ff00199091161790556040517f03cb373f89de891077fe47cec43663b6727713de0337af46bebd1178122251b790610caa90831515815260200190565b60405180910390a150565b336000908152600f60205260409020546001600160a01b031615610cec5760405163682a906560e01b815260040160405180910390fd5b336001600160a01b03821603610d1557604051631acade8960e31b815260040160405180910390fd5b6001600160a01b038116610d3c5760405163e6c4247b60e01b815260040160405180910390fd5b336000818152600f6020908152604080832080546001600160a01b0387166001600160a01b0319918216811790925581855260128452828520805460018101825590865293852090930180549093168517909255519092917fa6dbb5aa28f35437de94d685d66edce5fb4812196b4984b91dfd5a7b38c0fb3091a350565b600083600003610ddd5760405163162908e360e11b815260040160405180910390fd5b821580610de8575081155b15610e06576040516343c7ad8160e11b815260040160405180910390fd5b6000610e128386615bdc565b90506000610e208686615bf3565b9050610e2c8183615c06565b925050505b9392505050565b60126020528160005260406000208181548110610e5457600080fd5b6000918252602090912001546001600160a01b03169150829050565b610e7861419d565b80600003610e995760405163162908e360e11b815260040160405180910390fd5b6000546040516323b872dd60e01b81526001600160a01b03909116906323b872dd90610ecd90339030908690600401615c28565b6020604051808303816000875af1158015610eec573d6000803e3d6000fd5b505050506040513d601f19601f82011682018060405250810190610f109190615c4c565b506000610f2282601754601854610dba565b905060006064600d5483610f369190615bdc565b610f409190615c06565b90506000610f4e8284615c69565b6001546040516370a0823160e01b815291925084916001600160a01b03909116906370a0823190610f839030906004016156ab565b602060405180830381865afa158015610fa0573d6000803e3d6000fd5b505050506040513d601f19601f82011682018060405250810190610fc49190615c7c565b1015610fe3576040516343c7ad8160e11b815260040160405180910390fd5b8360176000828254610ff59190615bf3565b92505081905550826018600082825461100e9190615c69565b9091555050600154604051630852cd8d60e31b8152600481018490526001600160a01b03909116906342966c6890602401600060405180830381600087803b15801561105957600080fd5b505af115801561106d573d6000803e3d6000fd5b505060015460405163a9059cbb60e01b81526001600160a01b03909116925063a9059cbb91506110a390339085906004016158f3565b6020604051808303816000875af11580156110c2573d6000803e3d6000fd5b505050506040513d601f19601f820116820180604052508101906110e69190615c4c565b50336001600160a01b03167f36864aeefce16bc4aaceeb6b0cdfb2ad1455a8cb4ccb0db148a2bc6e7166f97c8583856040516111249392919061573a565b60405180910390a25050506111376141d3565b50565b6001600160a01b03811660009081526012602052604081208054606092906001600160401b0381111561116f5761116f615772565b6040519080825280602002602001820160405280156111cd57816020015b6111ba604051806060016040528060006001600160a01b0316815260200160008152602001600081525090565b81526020019060019003908161118d5790505b50905060005b82548110156112635760008382815481106111f0576111f0615c95565b60009182526020808320909101546001600160a01b0316808352601082526040928390208351606081018552828152600182015493810193909352600281015493830193909352855190935085908590811061124e5761124e615c95565b602090810291909101015250506001016111d3565b509392505050565b6014818154811061127b57600080fd5b600091825260209091206003909102018054600182015460029092015490925083565b6112a661419d565b336000908152601060205260409020600181015415806112ca5750600381015460ff165b156112e857604051634065aaf160e11b815260040160405180910390fd5b33600090815260116020526040812090805b825481101561154d5782818154811061131557611315615c95565b600091825260209091206004600690920201015460ff161561154557600083828154811061134557611345615c95565b906000526020600020906006020160030154600703611368575062cb73566113cf565b83828154811061137a5761137a615c95565b906000526020600020906006020160030154600f0361139d575062fe502b6113cf565b8382815481106113af576113af615c95565b906000526020600020906006020160030154601e036113cf57506301312d005b6000603c8584815481106113e5576113e5615c95565b906000526020600020906006020160020154426114029190615c69565b61140c9190615c06565b905084838154811061142057611420615c95565b9060005260206000209060060201600301548111156114605784838154811061144b5761144b615c95565b90600052602060002090600602016003015490505b8060000361146f575050611545565b6000633b9aca00828488878154811061148a5761148a615c95565b9060005260206000209060060201600101546114a69190615bdc565b6114b09190615bdc565b6114ba9190615c06565b905060008685815481106114d0576114d0615c95565b9060005260206000209060060201600501549050808211156115405760006114f88284615c69565b90506115048188615bf3565b96508088878154811061151957611519615c95565b906000526020600020906006020160050160008282546115399190615bf3565b9091555050505b505050505b6001016112fa565b508060000361156f57604051630fec21fd60e21b815260040160405180910390fd5b336000908152600f602052604090206004810154600390910154611594908390615bf3565b11156115c157336000908152600f6020526040902060038101546004909101546115be9190615c69565b90505b806000036115da576115d2336141e4565b5050506118e4565b336000908152600f6020526040812060030180548392906115fc908490615bf3565b909155506000905061160f600283615c06565b9050600061161e600284615c06565b600080546040516370a0823160e01b8152929350909184916001600160a01b0316906370a08231906116549030906004016156ab565b602060405180830381865afa158015611671573d6000803e3d6000fd5b505050506040513d601f19601f820116820180604052508101906116959190615c7c565b101580156116a35750600083115b156117225760005460405163a9059cbb60e01b81526001600160a01b039091169063a9059cbb906116da90339087906004016158f3565b6020604051808303816000875af11580156116f9573d6000803e3d6000fd5b505050506040513d601f19601f8201168201806040525081019061171d9190615c4c565b508290505b600061172c6118ee565b905060008161174385670de0b6b3a7640000615bdc565b61174d9190615c06565b6001546040516370a0823160e01b815291925060009183916001600160a01b0316906370a08231906117839030906004016156ab565b602060405180830381865afa1580156117a0573d6000803e3d6000fd5b505050506040513d601f19601f820116820180604052508101906117c49190615c7c565b101580156117d25750600082115b156118515760015460405163a9059cbb60e01b81526001600160a01b039091169063a9059cbb9061180990339086906004016158f3565b6020604051808303816000875af1158015611828573d6000803e3d6000fd5b505050506040513d601f19601f8201168201806040525081019061184c9190615c4c565b508190505b336001600160a01b0316600080516020615df683398151915288600060405161187b929190615cab565b60405180910390a288546040513391600080516020615d76833981519152916118aa9188918691600091615cbc565b60405180910390a2336000908152600f602052604090206004810154600390910154106118da576118da336141e4565b5050505050505050505b6118ec6141d3565b565b60006018546000036119075750670de0b6b3a764000090565b60185460175461191f90670de0b6b3a7640000615bdc565b6119299190615c06565b905090565b61193661416b565b6016805460ff19168215159081179091556040519081527fb886fcb5b9c12916f26d967ebe962dbd51ec249fb55961da39c851cdfc10115c90602001610caa565b61197f61419d565b60165460ff166119a257604051634065aaf160e11b815260040160405180910390fd5b33600090815260106020526040812060018101549091036119d657604051634065aaf160e11b815260040160405180910390fd5b600381015460ff16156119fc57604051631ecb2c4f60e31b815260040160405180910390fd5b6015548160020154611a0e9190615bf3565b421115611a2e57604051630407b05b60e31b815260040160405180910390fd5b81600714158015611a40575081600f14155b8015611a4d575081601e14155b15611a6b57604051634dc7f5ff60e11b815260040160405180910390fd5b82600003611a8c5760405163162908e360e11b815260040160405180910390fd5b6000546040516323b872dd60e01b81526001600160a01b03909116906323b872dd90611ac090339030908890600401615c28565b6020604051808303816000875af1158015611adf573d6000803e3d6000fd5b505050506040513d601f19601f82011682018060405250810190611b039190615c4c565b50601a8054906000611b1483615cda565b9091555050336000908152601160209081526040808320815160c081018352601a548152808401888152429382019384526060820188815260016080840181815260a0850189815286548084018855968a529789209451600690960290940194855591518483015593516002840155925160038301555160048201805460ff19169115159190911790559151600590920191909155820154611bb590614522565b90506000611bc233614541565b905081811015611be5576040516343c7ad8160e11b815260040160405180910390fd5b611bee336145d3565b336001600160a01b03167fa8a1b9e33e503eed12bf7e7c8c01c7f3b60217a496bddd0f5db351dd8c056c1c8686601a54604051611c2d9392919061573a565b60405180910390a2336000908152600f60205260409020600601548015611daa57336000908152600f60205260408120600601556017548111801590611ce257506000546040516370a0823160e01b815282916001600160a01b0316906370a0823190611c9e9030906004016156ab565b602060405180830381865afa158015611cbb573d6000803e3d6000fd5b505050506040513d601f19601f82011682018060405250810190611cdf9190615c7c565b10155b15611daa578060176000828254611cf99190615c69565b909155505060005460405163a9059cbb60e01b81526001600160a01b039091169063a9059cbb90611d3090339085906004016158f3565b6020604051808303816000875af1158015611d4f573d6000803e3d6000fd5b505050506040513d601f19601f82011682018060405250810190611d739190615c4c565b5060405181815233907f3437b9ea7fa19c6d233dd70cc787a70fab87cee64d8ba4571512cc84402748f99060200160405180910390a25b50505050611db66141d3565b5050565b611dc2614742565b611dcb826147e7565b611db682826147ef565b611ddd61419d565b80600003611dfe5760405163162908e360e11b815260040160405180910390fd5b6001546040516323b872dd60e01b81526001600160a01b03909116906323b872dd90611e3290339030908690600401615c28565b6020604051808303816000875af1158015611e51573d6000803e3d6000fd5b505050506040513d601f19601f82011682018060405250810190611e759190615c4c565b5060006064600e5483611e889190615bdc565b611e929190615c06565b90506000611ea08284615c69565b600154604051630852cd8d60e31b8152600481018590529192506001600160a01b0316906342966c6890602401600060405180830381600087803b158015611ee757600080fd5b505af1158015611efb573d6000803e3d6000fd5b505050506000611f1082601854601754610dba565b6000546040516370a0823160e01b815291925082916001600160a01b03909116906370a0823190611f459030906004016156ab565b602060405180830381865afa158015611f62573d6000803e3d6000fd5b505050506040513d601f19601f82011682018060405250810190611f869190615c7c565b1015611fa5576040516343c7ad8160e11b815260040160405180910390fd5b8160186000828254611fb79190615bf3565b925050819055508060176000828254611fd09190615c69565b909155505060005460405163a9059cbb60e01b81526001600160a01b039091169063a9059cbb9061200790339085906004016158f3565b6020604051808303816000875af1158015612026573d6000803e3d6000fd5b505050506040513d601f19601f8201168201806040525081019061204a9190615c4c565b50336001600160a01b03167f223c8ad0806f634524940a8595f819c5cfc7b1f4f4f45791269301df0a7e61d58583866040516111249392919061573a565b60006120926148a3565b50600080516020615d9683398151915290565b6120ad61416b565b816000036120ce5760405163162908e360e11b815260040160405180910390fd5b6018548211156120f157604051631e9acf1760e31b815260040160405180910390fd5b81601860008282546121039190615c69565b909155505060015460405163a9059cbb60e01b81526001600160a01b039091169063a9059cbb9061213a90849086906004016158f3565b6020604051808303816000875af1158015612159573d6000803e3d6000fd5b505050506040513d601f19601f8201168201806040525081019061217d9190615c4c565b505050565b61218a61419d565b612193336148ec565b8068056bc75e2d63100000141580156121b5575080681043561a882930000014155b80156121ca575080681b1ae4d6e2ef50000014155b80156121df575080683635c9adc5dea0000014155b156121fd5760405163162908e360e11b815260040160405180910390fd5b6000546040516323b872dd60e01b81526001600160a01b03909116906323b872dd9061223190339030908690600401615c28565b6020604051808303816000875af1158015612250573d6000803e3d6000fd5b505050506040513d601f19601f820116820180604052508101906122749190615c4c565b50336000908152601060205260409020600381015460ff16156122fa57601980549060006122a183615cda565b90915550506019548155600181018290554260028201556003808201805460ff19169055336000908152600f602052604081208201556122e2908390615bdc565b336000908152600f6020526040902060040155612384565b806001015460000361231657601980549060006122a183615cda565b8181600101600082825461232a9190615bf3565b9091555050336000908152600f602052604090206005015460ff1615612351574260028201555b61235c826003615bdc565b336000908152600f60205260408120600401805490919061237e908490615bf3565b90915550505b336000908152600f6020526040902060090154600182015411156123bb576001810154336000908152600f60205260409020600901555b80546000908152601c6020908152604080832080546001600160a01b031916339081179091558352600f9091529020546001600160a01b0316801580159061241e57506001600160a01b0381166000908152600f602052604090206005015460ff165b156124975760006064600654856124359190615bdc565b61243f9190615c06565b9050600061244f83836002614ac3565b9050801561249057835460405133916001600160a01b03861691600080516020615d5683398151915291612487918691600291615cf3565b60405180910390a35b505061252d565b6000546002546006546001600160a01b039283169263a9059cbb9216906064906124c19088615bdc565b6124cb9190615c06565b6040518363ffffffff1660e01b81526004016124e89291906158f3565b6020604051808303816000875af1158015612507573d6000803e3d6000fd5b505050506040513d601f19601f8201168201806040525081019061252b9190615c4c565b505b3360008181526010602052604090205461254991908590614c5a565b6000546002546008546001600160a01b039283169263a9059cbb9216906064906125739088615bdc565b61257d9190615c06565b6040518363ffffffff1660e01b815260040161259a9291906158f3565b6020604051808303816000875af11580156125b9573d6000803e3d6000fd5b505050506040513d601f19601f820116820180604052508101906125dd9190615c4c565b5060006064600954856125f09190615bdc565b6125fa9190615c06565b905061260581614e98565b600054600454600a546001600160a01b039283169263a9059cbb92169060649061262f9089615bdc565b6126399190615c06565b6040518363ffffffff1660e01b81526004016126569291906158f3565b6020604051808303816000875af1158015612675573d6000803e3d6000fd5b505050506040513d601f19601f820116820180604052508101906126999190615c4c565b50600054600354600b546001600160a01b039283169263a9059cbb9216906064906126c49089615bdc565b6126ce9190615c06565b6040518363ffffffff1660e01b81526004016126eb9291906158f3565b6020604051808303816000875af115801561270a573d6000803e3d6000fd5b505050506040513d601f19601f8201168201806040525081019061272e9190615c4c565b50612738336145d3565b825460405133917f2a91574e12ad96234e84923e146b0946ecfb871cd8d5534dc1fdcbe87a7c01b391611124918891615960565b61277461416b565b6118ec6000615097565b61278661416b565b6001600160a01b039094166000908152600f6020526040902060018101939093556002830191909155600782015560080155565b6127c261416b565b60328111156127e4576040516358d620b360e01b815260040160405180910390fd5b600c55565b6013602052816000526040600020818154811061280557600080fd5b6000918252602090912060029091020180546001909101546001600160a01b039091169250905082565b601b5461283f9062015180615bf3565b42101561287b5760405162461bcd60e51b81526020600482015260056024820152644561726c7960d81b60448201526064015b60405180910390fd5b6000601854116128b65760405162461bcd60e51b81526020600482015260066024820152654e6f2072657360d01b6044820152606401612872565b600060646018546128c79190615c06565b90508015612a16576001546040516370a0823160e01b815282916001600160a01b0316906370a08231906128ff9030906004016156ab565b602060405180830381865afa15801561291c573d6000803e3d6000fd5b505050506040513d601f19601f820116820180604052508101906129409190615c7c565b10156129785760405162461bcd60e51b81526020600482015260076024820152664c6f77204a424360c81b6044820152606401612872565b806018600082825461298a9190615c69565b9091555050600154604051630852cd8d60e31b8152600481018390526001600160a01b03909116906342966c6890602401600060405180830381600087803b1580156129d557600080fd5b505af11580156129e9573d6000803e3d6000fd5b50505050600080516020615dd6833981519152600082604051612a0d929190615960565b60405180910390a15b5042601b55565b612a2561416b565b600280546001600160a01b039586166001600160a01b0319918216179091556003805494861694821694909417909355600480549285169284169290921790915560058054919093169116179055565b60008060005b601454811015612b0c5760148181548110612a9857612a98615c95565b9060005260206000209060030201600001548410612b045760148181548110612ac357612ac3615c95565b90600052602060002090600302016001015460148281548110612ae857612ae8615c95565b9060005260206000209060030201600201549250925050915091565b600101612a7b565b50600093849350915050565b600080612b236150f3565b546001600160a01b031692915050565b612b3b61416b565b6032821180612b4a5750603281115b15612b68576040516337d4ed5b60e01b815260040160405180910390fd5b600d91909155600e55565b6118ec336148ec565b612b8461416b565b81158015612b90575080155b15612bae5760405163162908e360e11b815260040160405180910390fd5b8115612c44576000546040516323b872dd60e01b81526001600160a01b03909116906323b872dd90612be890339030908790600401615c28565b6020604051808303816000875af1158015612c07573d6000803e3d6000fd5b505050506040513d601f19601f82011682018060405250810190612c2b9190615c4c565b508160176000828254612c3e9190615bf3565b90915550505b8015612cda576001546040516323b872dd60e01b81526001600160a01b03909116906323b872dd90612c7e90339030908690600401615c28565b6020604051808303816000875af1158015612c9d573d6000803e3d6000fd5b505050506040513d601f19601f82011682018060405250810190612cc19190615c4c565b508060186000828254612cd49190615bf3565b90915550505b7f38f8a0c92f4c5b0b6877f878cb4c0c8d348a47b76d716c8e78f425043df9515b8282604051612d0b929190615960565b60405180910390a15050565b612d1f61416b565b60158190556040518181527fd28d9e4ce68d89af7920cb8618e342a78f51e545c530ce60f1cb1d6f0235b47f90602001610caa565b612d5c61416b565b806001600160a01b0316826001600160a01b031603612d8e57604051631acade8960e31b815260040160405180910390fd5b6001600160a01b038083166000908152600f6020526040902080548383166001600160a01b0319821617909155168015612edb576001600160a01b0381166000908152601260205260408120905b8154811015612ed857846001600160a01b0316828281548110612e0157612e01615c95565b6000918252602090912001546001600160a01b031603612ed05781548290612e2b90600190615c69565b81548110612e3b57612e3b615c95565b9060005260206000200160009054906101000a90046001600160a01b0316828281548110612e6b57612e6b615c95565b9060005260206000200160006101000a8154816001600160a01b0302191690836001600160a01b0316021790555081805480612ea957612ea9615d0c565b600082815260209020810160001990810180546001600160a01b0319169055019055612ed8565b600101612ddc565b50505b6001600160a01b0382161561217d57506001600160a01b0390811660009081526012602090815260408220805460018101825590835291200180546001600160a01b03191692909116919091179055565b60116020528160005260406000208181548110612f4857600080fd5b600091825260209091206006909102018054600182015460028301546003840154600485015460059095015493965091945092909160ff9091169086565b612f8e61419d565b601654610100900460ff16612fd05760405162461bcd60e51b8152602060048201526008602482015267111a5cd8589b195960c21b6044820152606401612872565b336000908152601160205260408120908080805b845481101561330c57848181548110612fff57612fff615c95565b600091825260209091206004600690920201015460ff1615613304576000603c86838154811061303157613031615c95565b90600052602060002090600602016003015461304d9190615bdc565b86838154811061305f5761305f615c95565b90600052602060002090600602016002015461307b9190615bf3565b905080421061330257600086838154811061309857613098615c95565b9060005260206000209060060201600301546007036130bb575062cb7356613122565b8683815481106130cd576130cd615c95565b906000526020600020906006020160030154600f036130f0575062fe502b613122565b86838154811061310257613102615c95565b906000526020600020906006020160030154601e0361312257506301312d005b6000633b9aca0088858154811061313b5761313b615c95565b906000526020600020906006020160030154838a878154811061316057613160615c95565b90600052602060002090600602016001015461317c9190615bdc565b6131869190615bdc565b6131909190615c06565b905060008885815481106131a6576131a6615c95565b9060005260206000209060060201600501548211156131f1578885815481106131d1576131d1615c95565b906000526020600020906006020160050154826131ee9190615c69565b90505b6131fb8187615bf3565b95508089868154811061321057613210615c95565b906000526020600020906006020160050160008282546132309190615bf3565b9091555050336000908152600f6020526040812060090154908190036132655750336000908152601060205260409020600101545b60006064600c54836132779190615bdc565b6132819190615c06565b905060008b888154811061329757613297615c95565b9060005260206000209060060201600101549050808b6132b79190615bf3565b9a506132c3828b615bf3565b995060008c89815481106132d9576132d9615c95565b60009182526020909120600690910201600401805460ff19169115159190911790555050505050505b505b600101612fe4565b50600083118061331c5750600081115b61335c5760405162461bcd60e51b81526020600482015260116024820152704e6f7468696e6720746f2072656465656d60781b6044820152606401612872565b81156133f2576000546040516323b872dd60e01b81526001600160a01b03909116906323b872dd9061339690339030908790600401615c28565b6020604051808303816000875af11580156133b5573d6000803e3d6000fd5b505050506040513d601f19601f820116820180604052508101906133d99190615c4c565b5081601760008282546133ec9190615bf3565b90915550505b801561374d57336000908152600f60205260408120600381015460049091015461341c9190615c69565b90508082111561345b57336001600160a01b0316600080516020615db6833981519152838360405161344f929190615960565b60405180910390a28091505b811561374b57336000908152600f602052604081206003018054849290613483908490615bf3565b9091555060009050613496600284615c06565b905060006134a5600285615c06565b600080546040516370a0823160e01b8152929350909184916001600160a01b0316906370a08231906134db9030906004016156ab565b602060405180830381865afa1580156134f8573d6000803e3d6000fd5b505050506040513d601f19601f8201168201806040525081019061351c9190615c7c565b1015801561352a5750600083115b156135a95760005460405163a9059cbb60e01b81526001600160a01b039091169063a9059cbb9061356190339087906004016158f3565b6020604051808303816000875af1158015613580573d6000803e3d6000fd5b505050506040513d601f19601f820116820180604052508101906135a49190615c4c565b508290505b60006135b36118ee565b90506000816135ca85670de0b6b3a7640000615bdc565b6135d49190615c06565b6001546040516370a0823160e01b815291925060009183916001600160a01b0316906370a082319061360a9030906004016156ab565b602060405180830381865afa158015613627573d6000803e3d6000fd5b505050506040513d601f19601f8201168201806040525081019061364b9190615c7c565b101580156136595750600082115b156136d85760015460405163a9059cbb60e01b81526001600160a01b039091169063a9059cbb9061369090339086906004016158f3565b6020604051808303816000875af11580156136af573d6000803e3d6000fd5b505050506040513d601f19601f820116820180604052508101906136d39190615c4c565b508190505b336001600160a01b0316600080516020615df6833981519152896000604051613702929190615cab565b60405180910390a233600081815260106020526040808220549051600080516020615d768339815191529261373c92899287929190615cbc565b60405180910390a25050505050505b505b82156137ca5760005460405163a9059cbb60e01b81526001600160a01b039091169063a9059cbb9061378590339087906004016158f3565b6020604051808303816000875af11580156137a4573d6000803e3d6000fd5b505050506040513d601f19601f820116820180604052508101906137c89190615c4c565b505b336000908152600f6020526040812060060180548492906137ec908490615bf3565b90915550506040513390600080516020615e16833981519152906138139086908690615960565b60405180910390a23360009081526010602052604090205461383490615117565b61383d336145d3565b336000908152600f6020526040902060048101546003909101541061386557613865336141e4565b505050506118ec6141d3565b61387961416b565b61388560146000615565565b60005b81518110156138e65760148282815181106138a5576138a5615c95565b602090810291909101810151825460018181018555600094855293839020825160039092020190815591810151828401556040015160029091015501613888565b506040517f81086beec7078a58d4155c0b0d7d98e4d4df580e4737331309687e6ab8a6944090600090a150565b600061391d6152de565b805490915060ff600160401b82041615906001600160401b03166000811580156139445750825b90506000826001600160401b031660011480156139605750303b155b90508115801561396e575080155b1561398c5760405163f92ee8a960e01b815260040160405180910390fd5b84546001600160401b031916600117855583156139b557845460ff60401b1916600160401b1785555b6139be33615307565b6139c6615318565b6139ce615328565b8a6000806101000a8154816001600160a01b0302191690836001600160a01b0316021790555089600160006101000a8154816001600160a01b0302191690836001600160a01b0316021790555088600260006101000a8154816001600160a01b0302191690836001600160a01b0316021790555087600360006101000a8154816001600160a01b0302191690836001600160a01b0316021790555086600460006101000a8154816001600160a01b0302191690836001600160a01b0316021790555085600560006101000a8154816001600160a01b0302191690836001600160a01b031602179055506019600681905550600f600781905550600560088190555060056009819055506019600a819055506019600b819055506001600c819055506032600d819055506019600e819055506203f4806015819055506001601660006101000a81548160ff0219169083151502179055506001601660016101000a81548160ff02191690831515021790555042601b8190555060146040518060600160405280620186a0815260200160098152602001602d81525090806001815401808255809150506001900390600052602060002090600302016000909190919091506000820151816000015560208201518160010155604082015181600201555050601460405180606001604052806175308152602001600881526020016028815250908060018154018082558091505060019003906000526020600020906003020160009091909190915060008201518160000155602082015181600101556040820151816002015550506014604051806060016040528061271081526020016007815260200160238152509080600181540180825580915050600190039060005260206000209060030201600090919091909150600082015181600001556020820151816001015560408201518160020155505060146040518060600160405280610bb8815260200160068152602001601e81525090806001815401808255809150506001900390600052602060002090600302016000909190919091506000820151816000015560208201518160010155604082015181600201555050601460405180606001604052806103e88152602001600581526020016019815250908060018154018082558091505060019003906000526020600020906003020160009091909190915060008201518160000155602082015181600101556040820151816002015550506014604051806060016040528061012c815260200160048152602001601481525090806001815401808255809150506001900390600052602060002090600302016000909190919091506000820151816000015560208201518160010155604082015181600201555050601460405180606001604052806064815260200160038152602001600f8152509080600181540180825580915050600190039060005260206000209060030201600090919091909150600082015181600001556020820151816001015560408201518160020155505060146040518060600160405280601e815260200160028152602001600a8152509080600181540180825580915050600190039060005260206000209060030201600090919091909150600082015181600001556020820151816001015560408201518160020155505060146040518060600160405280600a8152602001600181526020016005815250908060018154018082558091505060019003906000526020600020906003020160009091909190915060008201518160000155602082015181600101556040820151816002015550508315613f4457845460ff60401b19168555604051600181527fc7f505b2f371ae2175ee4913f4499e1f2633a7b5936321eed1cdaeb6115181d29060200160405180910390a15b5050505050505050505050565b613f5961416b565b81600003613f7a5760405163162908e360e11b815260040160405180910390fd5b601754821115613f9d57604051631e9acf1760e31b815260040160405180910390fd5b8160176000828254613faf9190615c69565b909155505060005460405163a9059cbb60e01b81526001600160a01b039091169063a9059cbb9061213a90849086906004016158f3565b6001600160a01b03811660009081526012602090815260409182902080548351818402810184019094528084526060939283018282801561405057602002820191906000526020600020905b81546001600160a01b03168152600190910190602001808311614032575b50505050509050919050565b61406461416b565b80828486614072898b615bf3565b61407c9190615bf3565b6140869190615bf3565b6140909190615bf3565b61409a9190615bf3565b6064146140ba57604051637e9832a560e01b815260040160405180910390fd5b60328611806140c95750603285115b806140d45750603284115b806140df5750603283115b806140ea5750603282115b806140f55750603281115b1561411357604051636a43f8d160e01b815260040160405180910390fd5b600695909555600793909355600891909155600955600a55600b55565b61413861416b565b6001600160a01b038116614162576000604051631e4fbdf760e01b815260040161287291906156ab565b61113781615097565b33614174612b18565b6001600160a01b0316146118ec573360405163118cdaa760e01b815260040161287291906156ab565b60006141a7615330565b8054909150600119016141cd57604051633ee5aeb560e01b815260040160405180910390fd5b60029055565b60006141dd615330565b6001905550565b6001600160a01b0381166000908152601060205260409020600381015460ff16611db65760038101805460ff191660011790556001600160a01b03821660009081526011602052604081209080805b83548110156143565783818154811061424e5761424e615c95565b600091825260209091206004600690920201015460ff161561434e57600061012c600c5486848154811061428457614284615c95565b90600052602060002090600602016001015460026142a29190615bdc565b6142ac9190615bdc565b6142b69190615c06565b905060008583815481106142cc576142cc615c95565b90600052602060002090600602016001015490508181106142f8576142f18282615c69565b90506142fd565b600091505b6143078186615bf3565b94506143138285615bf3565b9350600086848154811061432957614329615c95565b60009182526020909120600690910201600401805460ff191691151591909117905550505b600101614233565b5081156143d45760005460405163a9059cbb60e01b81526001600160a01b039091169063a9059cbb9061438f90889086906004016158f3565b6020604051808303816000875af11580156143ae573d6000803e3d6000fd5b505050506040513d601f19601f820116820180604052508101906143d29190615c4c565b505b801561440b576001600160a01b0385166000908152600f602052604081206006018054839290614405908490615bf3565b90915550505b6001600160a01b038086166000908152600f6020526040902060058101805460ff198116909155905460ff909116911681801561445057506001600160a01b03811615155b801561447657506001600160a01b0381166000908152600f602052604090206001015415155b156144a8576001600160a01b0381166000908152600f602052604081206001018054916144a283615d22565b91905055505b866001600160a01b0316600080516020615e1683398151915285856040516144d1929190615960565b60405180910390a285546040519081526001600160a01b038816907f920bb94eb3842a728db98228c375ff6b00c5bc5a54fac6736155517a0a20a61a9060200160405180910390a250505050505050565b60006002614531836003615bdc565b61453b9190615c06565b92915050565b6001600160a01b0381166000908152601160205260408120815b81548110156145cc5781818154811061457657614576615c95565b600091825260209091206004600690920201015460ff16156145c4578181815481106145a4576145a4615c95565b906000526020600020906006020160010154836145c19190615bf3565b92505b60010161455b565b5050919050565b6001600160a01b038116600090815260106020526040812060018101549091901561460a576146058260010154614522565b61460d565b60005b905060008083600101541180156146295750600383015460ff16155b80156146355750600082115b801561464957508161464685614541565b10155b6001600160a01b0385166000908152600f602052604090206005015490915060ff168015158215150361467d575050505050565b6001600160a01b038581166000908152600f6020526040902060058101805460ff19168515151790555416806146b557505050505050565b82156146ec576001600160a01b0381166000908152600f602052604081206001018054916146e283615cda565b919050555061473a565b6001600160a01b0381166000908152600f60205260409020600101541561473a576001600160a01b0381166000908152600f6020526040812060010180549161473483615d22565b91905055505b505050505050565b306001600160a01b037f00000000000000000000000000000000000000000000000000000000000000001614806147c957507f00000000000000000000000000000000000000000000000000000000000000006001600160a01b03166147bd600080516020615d96833981519152546001600160a01b031690565b6001600160a01b031614155b156118ec5760405163703e46dd60e11b815260040160405180910390fd5b61113761416b565b816001600160a01b03166352d1902d6040518163ffffffff1660e01b8152600401602060405180830381865afa925050508015614849575060408051601f3d908101601f1916820190925261484691810190615c7c565b60015b6148685781604051634c9c8ce360e01b815260040161287291906156ab565b600080516020615d96833981519152811461489957604051632a87526960e21b815260048101829052602401612872565b61217d8383615354565b306001600160a01b037f000000000000000000000000000000000000000000000000000000000000000016146118ec5760405163703e46dd60e11b815260040160405180910390fd5b6001600160a01b0381166000908152601060205260409020600181015415806149195750600381015460ff165b15614922575050565b600061492d83614541565b1115614937575050565b60155481600201546149499190615bf3565b4211614953575050565b805460018201546001600160a01b038085166000908152600f60205260409020805460059091015491169060ff16801561499557506001600160a01b03811615155b80156149bb57506001600160a01b0381166000908152600f602052604090206001015415155b156149ed576001600160a01b0381166000908152600f602052604081206001018054916149e783615d22565b91905055505b6001600160a01b0385166000908152600f6020526040812060058101805460ff19908116909155600380830184905560049092018390558287556001870183905560028701929092558501805490911690558215614a79576000838152601360205260408120614a5c91615586565b6000838152601c6020526040902080546001600160a01b03191690555b846001600160a01b03167f57025f0027038907eda728b59164fb63d06048f42e618a35267e6a12e49b2e468484604051614ab4929190615960565b60405180910390a25050505050565b6001600160a01b0383166000908152600f6020908152604080832060109092528220600582015460ff161580614afd5750600381015460ff165b80614b0a57506001810154155b15614b1a57600092505050610e31565b600082600301548360040154614b309190615c69565b90508581811115614b7057819050876001600160a01b0316600080516020615db68339815191528884604051614b67929190615960565b60405180910390a25b8015614c375780846003016000828254614b8a9190615bf3565b909155505060005460405163a9059cbb60e01b81526001600160a01b039091169063a9059cbb90614bc1908b9085906004016158f3565b6020604051808303816000875af1158015614be0573d6000803e3d6000fd5b505050506040513d601f19601f82011682018060405250810190614c049190615c4c565b50876001600160a01b0316600080516020615df68339815191528288604051614c2e929190615cab565b60405180910390a25b8360040154846003015410614c4f57614c4f886141e4565b979650505050505050565b6001600160a01b038084166000908152600f602052604081205490911690805b6001600160a01b03831615801590614c925750601481105b1561473a576001600160a01b0383166000908152600f602052604090206005015460ff16614cea576001600160a01b039283166000908152600f60205260409020549092169180614ce281615cda565b915050614c7a565b6001600160a01b038316600090815260106020526040902060018101541580614d175750600381015460ff165b15614d4d576001600160a01b039384166000908152600f60205260409020549093169281614d4481615cda565b92505050614c7a565b6001600160a01b0384166000908152600f6020526040812060010154614d7290612a75565b91505083811115614e57576000614d898583615c69565b60018401549091508890811115614da1575060018301545b60006064614daf8484615bdc565b614db99190615c06565b60008a8152601360209081526040808320815180830183526001600160a01b038e8116808352828601888152845460018082018755958952978790209351600290980290930180546001600160a01b0319169790921696909617815590519101555183815292935090918b917fbd5e0947444d5adb46b3d24786f72907c1e8176cb1348960766a6cd6fad13e9f910160405180910390a38396505050505b602d8110614e6657505061473a565b6001600160a01b039485166000908152600f60205260409020549094169382614e8e81615cda565b9350505050614c7a565b80600003614ea35750565b6017541580614eb25750601854155b15614eba5750565b80601754614ec89190615bf3565b6000546040516370a0823160e01b81526001600160a01b03909116906370a0823190614ef89030906004016156ab565b602060405180830381865afa158015614f15573d6000803e3d6000fd5b505050506040513d601f19601f82011682018060405250810190614f399190615c7c565b1015614f425750565b6000614f5382601754601854610dba565b9050801580614f63575060185481115b15614f6c575050565b6018546001546040516370a0823160e01b81526001600160a01b03909116906370a0823190614f9f9030906004016156ab565b602060405180830381865afa158015614fbc573d6000803e3d6000fd5b505050506040513d601f19601f82011682018060405250810190614fe09190615c7c565b1015614fea575050565b8160176000828254614ffc9190615bf3565b9250508190555080601860008282546150159190615c69565b9091555050600154604051630852cd8d60e31b8152600481018390526001600160a01b03909116906342966c6890602401600060405180830381600087803b15801561506057600080fd5b505af1158015615074573d6000803e3d6000fd5b50505050600080516020615dd68339815191528282604051612d0b929190615960565b60006150a16150f3565b80546001600160a01b038481166001600160a01b031983168117845560405193945091169182907f8be0079c531659141344cd1fd0a4f28419497f9722a3daafe3b4186f6b6457e090600090a3505050565b7f9016d09d72d40fdae2fd8ceac6b6234c7706214fd39c1cd1e609a0528c19930090565b6000818152601c60209081526040808320546013835281842080548351818602810186019094528084526001600160a01b039092169493909190849084015b8282101561519e576000848152602090819020604080518082019091526002850290910180546001600160a01b03168252600190810154828401529083529092019101615156565b50505050905060005b81518110156152c65760006151f88383815181106151c7576151c7615c95565b6020026020010151600001518484815181106151e5576151e5615c95565b6020026020010151602001516003614ac3565b9050801561525c57836001600160a01b031683838151811061521c5761521c615c95565b6020026020010151600001516001600160a01b0316600080516020615d568339815191528360038960405161525393929190615cf3565b60405180910390a35b82828151811061526e5761526e615c95565b6020026020010151600001516001600160a01b0316857f380d782ec118e5171a4d1e7081db076c4c94ca49c623d531763d402b094b4f24836040516152b591815260200190565b60405180910390a3506001016151a7565b50600083815260136020526040812061217d91615586565b6000807ff0c57e16840df040f15088dc2f81fe391c3923bec73e23a9662efc9c229c6a0061453b565b61530f6153aa565b611137816153cf565b6153206153aa565b6118ec6153d7565b6118ec6153aa565b7f9b779b17422d0df92223018b32b4d1fa46e071723d6817e2486d003becc55f0090565b61535d826153df565b6040516001600160a01b038316907fbc7cd75a20ee27fd9adebab32041f755214dbc6bffa90cc0225b39da2e5c2d3b90600090a28051156153a25761217d828261543b565b611db66154b1565b6153b26154d0565b6118ec57604051631afcd79f60e31b815260040160405180910390fd5b6141386153aa565b6141d36153aa565b806001600160a01b03163b60000361540c5780604051634c9c8ce360e01b815260040161287291906156ab565b600080516020615d9683398151915280546001600160a01b0319166001600160a01b0392909216919091179055565b6060600080846001600160a01b0316846040516154589190615d39565b600060405180830381855af49150503d8060008114615493576040519150601f19603f3d011682016040523d82523d6000602084013e615498565b606091505b50915091506154a88583836154ea565b95945050505050565b34156118ec5760405163b398979f60e01b815260040160405180910390fd5b60006154da6152de565b54600160401b900460ff16919050565b6060826154ff576154fa8261553d565b610e31565b815115801561551657506001600160a01b0384163b155b156155365783604051639996b31560e01b815260040161287291906156ab565b5080610e31565b80511561554c57805160208201fd5b60405163d6bda27560e01b815260040160405180910390fd5b508054600082556003029060005260206000209081019061113791906155a7565b508054600082556002029060005260206000209081019061113791906155cd565b5b808211156155c95760008082556001820181905560028201556003016155a8565b5090565b5b808211156155c95780546001600160a01b0319168155600060018201556002016155ce565b801515811461113757600080fd5b60006020828403121561561357600080fd5b8135610e31816155f3565b80356001600160a01b038116811461563557600080fd5b919050565b60006020828403121561564c57600080fd5b610e318261561e565b60008060006060848603121561566a57600080fd5b505081359360208301359350604090920135919050565b6000806040838503121561569457600080fd5b61569d8361561e565b946020939093013593505050565b6001600160a01b0391909116815260200190565b6000602082840312156156d157600080fd5b5035919050565b602080825282518282018190526000919060409081850190868401855b8281101561572d57815180516001600160a01b03168552868101518786015285015185850152606090930192908501906001016156f5565b5091979650505050505050565b9283526020830191909152604082015260600190565b6000806040838503121561576357600080fd5b50508035926020909101359150565b634e487b7160e01b600052604160045260246000fd5b604051606081016001600160401b03811182821017156157aa576157aa615772565b60405290565b604051601f8201601f191681016001600160401b03811182821017156157d8576157d8615772565b604052919050565b600080604083850312156157f357600080fd5b6157fc8361561e565b91506020838101356001600160401b038082111561581957600080fd5b818601915086601f83011261582d57600080fd5b81358181111561583f5761583f615772565b615851601f8201601f191685016157b0565b9150808252878482850101111561586757600080fd5b80848401858401376000848284010152508093505050509250929050565b6000806040838503121561589857600080fd5b823591506158a86020840161561e565b90509250929050565b600080600080600060a086880312156158c957600080fd5b6158d28661561e565b97602087013597506040870135966060810135965060800135945092505050565b6001600160a01b03929092168252602082015260400190565b6000806000806080858703121561592257600080fd5b61592b8561561e565b93506159396020860161561e565b92506159476040860161561e565b91506159556060860161561e565b905092959194509250565b918252602082015260400190565b6000806040838503121561598157600080fd5b61598a8361561e565b91506158a86020840161561e565b60005b838110156159b357818101518382015260200161599b565b50506000910152565b60208152600082518060208401526159db816040850160208701615998565b601f01601f19169190910160400192915050565b60006020808385031215615a0257600080fd5b82356001600160401b0380821115615a1957600080fd5b818501915085601f830112615a2d57600080fd5b813581811115615a3f57615a3f615772565b615a4d848260051b016157b0565b81815284810192506060918202840185019188831115615a6c57600080fd5b938501935b82851015615ab65780858a031215615a895760008081fd5b615a91615788565b8535815286860135878201526040808701359082015284529384019392850192615a71565b50979650505050505050565b60008060008060008060c08789031215615adb57600080fd5b615ae48761561e565b9550615af26020880161561e565b9450615b006040880161561e565b9350615b0e6060880161561e565b9250615b1c6080880161561e565b9150615b2a60a0880161561e565b90509295509295509295565b6020808252825182820181905260009190848201906040850190845b81811015615b775783516001600160a01b031683529284019291840191600101615b52565b50909695505050505050565b60008060008060008060c08789031215615b9c57600080fd5b505084359660208601359650604086013595606081013595506080810135945060a0013592509050565b634e487b7160e01b600052601160045260246000fd5b808202811582820484141761453b5761453b615bc6565b8082018082111561453b5761453b615bc6565b600082615c2357634e487b7160e01b600052601260045260246000fd5b500490565b6001600160a01b039384168152919092166020820152604081019190915260600190565b600060208284031215615c5e57600080fd5b8151610e31816155f3565b8181038181111561453b5761453b615bc6565b600060208284031215615c8e57600080fd5b5051919050565b634e487b7160e01b600052603260045260246000fd5b91825260ff16602082015260400190565b938452602084019290925260ff166040830152606082015260800190565b600060018201615cec57615cec615bc6565b5060010190565b92835260ff919091166020830152604082015260600190565b634e487b7160e01b600052603160045260246000fd5b600081615d3157615d31615bc6565b506000190190565b60008251615d4b818460208701615998565b919091019291505056fe9b3cc71482a1b2eebe764a739f46f1fe99291fd0183be81951532b29d0c9c8da6fcebd0a2ce98b28cb391d6008bbc769378c9a4919628e11639cb575cd320fcc360894a13ba1a3210667c828492db98dca3e2076cc3735a920a3ca505d382bbcb5987aab1afd379f6695f1068869ee8ca6a0d02304c57935a9cc3d3ea2e51e4d0ec3929061cbbbeecb325623e7d5a86c3dae11cb8a22ca45dc0972955657da25f381583145e90b82cc5e529bf4fc4d0e44397174cdf145c4251ac33ef195a424f3a670cd3af7d64b488926880889d08a8585a138ff455227af6737339a1ec262a2646970667358221220bc2a7d5933272e43c6dbfc29d5ee3f0ce26ac9ea966626072a525608c613020964736f6c63430008160033",
  "linkReferences": {},
  "deployedLinkReferences": {}
}