{
  "_format": "hh-sol-artifact-1",
  "contractName": "JinbaoProtocol",
  "sourceName": "contracts/JinbaoProtocol.sol",
  "abi": [
    {
      "inputs": [],
      "stateMutability": "nonpayable",
      "type": "constructor"
    },
    {
      "inputs": [
        {
          "internalType": "address",
          "name": "target",
          "type": "address"
        }
      ],
      "name": "AddressEmptyCode",
      "type": "error"
    },
    {
      "inputs": [],
      "name": "AlreadyBound",
      "type": "error"
    },
    {
      "inputs": [],
      "name": "AlreadyExited",
      "type": "error"
    },
    {
      "inputs": [
        {
          "internalType": "address",
          "name": "implementation",
          "type": "address"
        }
      ],
      "name": "ERC1967InvalidImplementation",
      "type": "error"
    },
    {
      "inputs": [],
      "name": "ERC1967NonPayable",
      "type": "error"
    },
    {
      "inputs": [],
      "name": "Expired",
      "type": "error"
    },
    {
      "inputs": [],
      "name": "FailedCall",
      "type": "error"
    },
    {
      "inputs": [],
      "name": "InsufficientBalance",
      "type": "error"
    },
    {
      "inputs": [],
      "name": "InvalidAddress",
      "type": "error"
    },
    {
      "inputs": [],
      "name": "InvalidAmount",
      "type": "error"
    },
    {
      "inputs": [],
      "name": "InvalidCycle",
      "type": "error"
    },
    {
      "inputs": [],
      "name": "InvalidFee",
      "type": "error"
    },
    {
      "inputs": [],
      "name": "InvalidInitialization",
      "type": "error"
    },
    {
      "inputs": [],
      "name": "InvalidLevelConfig",
      "type": "error"
    },
    {
      "inputs": [],
      "name": "InvalidRate",
      "type": "error"
    },
    {
      "inputs": [],
      "name": "InvalidTax",
      "type": "error"
    },
    {
      "inputs": [],
      "name": "LowLiquidity",
      "type": "error"
    },
    {
      "inputs": [],
      "name": "NoRewards",
      "type": "error"
    },
    {
      "inputs": [],
      "name": "NotActive",
      "type": "error"
    },
    {
      "inputs": [],
      "name": "NotInitializing",
      "type": "error"
    },
    {
      "inputs": [],
      "name": "NothingToRedeem",
      "type": "error"
    },
    {
      "inputs": [
        {
          "internalType": "address",
          "name": "owner",
          "type": "address"
        }
      ],
      "name": "OwnableInvalidOwner",
      "type": "error"
    },
    {
      "inputs": [
        {
          "internalType": "address",
          "name": "account",
          "type": "address"
        }
      ],
      "name": "OwnableUnauthorizedAccount",
      "type": "error"
    },
    {
      "inputs": [],
      "name": "ReentrancyGuardReentrantCall",
      "type": "error"
    },
    {
      "inputs": [],
      "name": "SelfReference",
      "type": "error"
    },
    {
      "inputs": [],
      "name": "SumNot100",
      "type": "error"
    },
    {
      "inputs": [],
      "name": "TransferFailed",
      "type": "error"
    },
    {
      "inputs": [],
      "name": "UUPSUnauthorizedCallContext",
      "type": "error"
    },
    {
      "inputs": [
        {
          "internalType": "bytes32",
          "name": "slot",
          "type": "bytes32"
        }
      ],
      "name": "UUPSUnsupportedProxiableUUID",
      "type": "error"
    },
    {
      "inputs": [],
      "name": "Unauthorized",
      "type": "error"
    },
    {
      "anonymous": false,
      "inputs": [
        {
          "indexed": true,
          "internalType": "address",
          "name": "user",
          "type": "address"
        },
        {
          "indexed": true,
          "internalType": "address",
          "name": "referrer",
          "type": "address"
        }
      ],
      "name": "BoundReferrer",
      "type": "event"
    },
    {
      "anonymous": false,
      "inputs": [
        {
          "indexed": false,
          "internalType": "uint256",
          "name": "mcAmount",
          "type": "uint256"
        },
        {
          "indexed": false,
          "internalType": "uint256",
          "name": "jbcBurned",
          "type": "uint256"
        }
      ],
      "name": "BuybackAndBurn",
      "type": "event"
    },
    {
      "anonymous": false,
      "inputs": [
        {
          "indexed": true,
          "internalType": "uint256",
          "name": "stakeId",
          "type": "uint256"
        },
        {
          "indexed": true,
          "internalType": "address",
          "name": "upline",
          "type": "address"
        },
        {
          "indexed": false,
          "internalType": "uint256",
          "name": "amount",
          "type": "uint256"
        }
      ],
      "name": "DifferentialRewardRecorded",
      "type": "event"
    },
    {
      "anonymous": false,
      "inputs": [
        {
          "indexed": true,
          "internalType": "uint256",
          "name": "stakeId",
          "type": "uint256"
        },
        {
          "indexed": true,
          "internalType": "address",
          "name": "upline",
          "type": "address"
        },
        {
          "indexed": false,
          "internalType": "uint256",
          "name": "amount",
          "type": "uint256"
        }
      ],
      "name": "DifferentialRewardReleased",
      "type": "event"
    },
    {
      "anonymous": false,
      "inputs": [
        {
          "indexed": true,
          "internalType": "address",
          "name": "user",
          "type": "address"
        },
        {
          "indexed": false,
          "internalType": "uint256",
          "name": "ticketId",
          "type": "uint256"
        }
      ],
      "name": "Exited",
      "type": "event"
    },
    {
      "anonymous": false,
      "inputs": [
        {
          "indexed": true,
          "internalType": "address",
          "name": "user",
          "type": "address"
        },
        {
          "indexed": false,
          "internalType": "uint256",
          "name": "amount",
          "type": "uint256"
        }
      ],
      "name": "FeeRefunded",
      "type": "event"
    },
    {
      "anonymous": false,
      "inputs": [
        {
          "indexed": false,
          "internalType": "uint64",
          "name": "version",
          "type": "uint64"
        }
      ],
      "name": "Initialized",
      "type": "event"
    },
    {
      "anonymous": false,
      "inputs": [],
      "name": "LevelConfigsUpdated",
      "type": "event"
    },
    {
      "anonymous": false,
      "inputs": [
        {
          "indexed": true,
          "internalType": "uint256",
          "name": "ticketId",
          "type": "uint256"
        },
        {
          "indexed": true,
          "internalType": "address",
          "name": "upline",
          "type": "address"
        },
        {
          "indexed": false,
          "internalType": "uint256",
          "name": "amount",
          "type": "uint256"
        }
      ],
      "name": "LevelRewardRecorded",
      "type": "event"
    },
    {
      "anonymous": false,
      "inputs": [
        {
          "indexed": true,
          "internalType": "uint256",
          "name": "ticketId",
          "type": "uint256"
        },
        {
          "indexed": true,
          "internalType": "address",
          "name": "upline",
          "type": "address"
        },
        {
          "indexed": false,
          "internalType": "uint256",
          "name": "amount",
          "type": "uint256"
        }
      ],
      "name": "LevelRewardReleased",
      "type": "event"
    },
    {
      "anonymous": false,
      "inputs": [
        {
          "indexed": false,
          "internalType": "uint256",
          "name": "mcAmount",
          "type": "uint256"
        },
        {
          "indexed": false,
          "internalType": "uint256",
          "name": "jbcAmount",
          "type": "uint256"
        }
      ],
      "name": "LiquidityAdded",
      "type": "event"
    },
    {
      "anonymous": false,
      "inputs": [
        {
          "indexed": true,
          "internalType": "address",
          "name": "user",
          "type": "address"
        },
        {
          "indexed": false,
          "internalType": "uint256",
          "name": "amount",
          "type": "uint256"
        },
        {
          "indexed": false,
          "internalType": "uint256",
          "name": "cycleDays",
          "type": "uint256"
        },
        {
          "indexed": false,
          "internalType": "uint256",
          "name": "stakeId",
          "type": "uint256"
        }
      ],
      "name": "LiquidityStaked",
      "type": "event"
    },
    {
      "anonymous": false,
      "inputs": [
        {
          "indexed": false,
          "internalType": "bool",
          "name": "enabled",
          "type": "bool"
        }
      ],
      "name": "LiquidityStatusUpdated",
      "type": "event"
    },
    {
      "anonymous": false,
      "inputs": [
        {
          "indexed": true,
          "internalType": "address",
          "name": "previousOwner",
          "type": "address"
        },
        {
          "indexed": true,
          "internalType": "address",
          "name": "newOwner",
          "type": "address"
        }
      ],
      "name": "OwnershipTransferred",
      "type": "event"
    },
    {
      "anonymous": false,
      "inputs": [
        {
          "indexed": false,
          "internalType": "bool",
          "name": "enabled",
          "type": "bool"
        }
      ],
      "name": "RedeemStatusUpdated",
      "type": "event"
    },
    {
      "anonymous": false,
      "inputs": [
        {
          "indexed": true,
          "internalType": "address",
          "name": "user",
          "type": "address"
        },
        {
          "indexed": false,
          "internalType": "uint256",
          "name": "principal",
          "type": "uint256"
        },
        {
          "indexed": false,
          "internalType": "uint256",
          "name": "fee",
          "type": "uint256"
        }
      ],
      "name": "Redeemed",
      "type": "event"
    },
    {
      "anonymous": false,
      "inputs": [
        {
          "indexed": true,
          "internalType": "address",
          "name": "user",
          "type": "address"
        },
        {
          "indexed": true,
          "internalType": "address",
          "name": "from",
          "type": "address"
        },
        {
          "indexed": false,
          "internalType": "uint256",
          "name": "mcAmount",
          "type": "uint256"
        },
        {
          "indexed": false,
          "internalType": "uint8",
          "name": "rewardType",
          "type": "uint8"
        },
        {
          "indexed": false,
          "internalType": "uint256",
          "name": "ticketId",
          "type": "uint256"
        }
      ],
      "name": "ReferralRewardPaid",
      "type": "event"
    },
    {
      "anonymous": false,
      "inputs": [
        {
          "indexed": true,
          "internalType": "address",
          "name": "user",
          "type": "address"
        },
        {
          "indexed": false,
          "internalType": "uint256",
          "name": "amount",
          "type": "uint256"
        },
        {
          "indexed": false,
          "internalType": "uint256",
          "name": "cappedAmount",
          "type": "uint256"
        }
      ],
      "name": "RewardCapped",
      "type": "event"
    },
    {
      "anonymous": false,
      "inputs": [
        {
          "indexed": true,
          "internalType": "address",
          "name": "user",
          "type": "address"
        },
        {
          "indexed": false,
          "internalType": "uint256",
          "name": "mcAmount",
          "type": "uint256"
        },
        {
          "indexed": false,
          "internalType": "uint256",
          "name": "jbcAmount",
          "type": "uint256"
        },
        {
          "indexed": false,
          "internalType": "uint8",
          "name": "rewardType",
          "type": "uint8"
        },
        {
          "indexed": false,
          "internalType": "uint256",
          "name": "ticketId",
          "type": "uint256"
        }
      ],
      "name": "RewardClaimed",
      "type": "event"
    },
    {
      "anonymous": false,
      "inputs": [
        {
          "indexed": true,
          "internalType": "address",
          "name": "user",
          "type": "address"
        },
        {
          "indexed": false,
          "internalType": "uint256",
          "name": "amount",
          "type": "uint256"
        },
        {
          "indexed": false,
          "internalType": "uint8",
          "name": "rewardType",
          "type": "uint8"
        }
      ],
      "name": "RewardPaid",
      "type": "event"
    },
    {
      "anonymous": false,
      "inputs": [
        {
          "indexed": true,
          "internalType": "address",
          "name": "user",
          "type": "address"
        },
        {
          "indexed": false,
          "internalType": "uint256",
          "name": "jbcAmount",
          "type": "uint256"
        },
        {
          "indexed": false,
          "internalType": "uint256",
          "name": "mcAmount",
          "type": "uint256"
        },
        {
          "indexed": false,
          "internalType": "uint256",
          "name": "tax",
          "type": "uint256"
        }
      ],
      "name": "SwappedJBCToMC",
      "type": "event"
    },
    {
      "anonymous": false,
      "inputs": [
        {
          "indexed": true,
          "internalType": "address",
          "name": "user",
          "type": "address"
        },
        {
          "indexed": false,
          "internalType": "uint256",
          "name": "mcAmount",
          "type": "uint256"
        },
        {
          "indexed": false,
          "internalType": "uint256",
          "name": "jbcAmount",
          "type": "uint256"
        },
        {
          "indexed": false,
          "internalType": "uint256",
          "name": "tax",
          "type": "uint256"
        }
      ],
      "name": "SwappedMCToJBC",
      "type": "event"
    },
    {
      "anonymous": false,
      "inputs": [
        {
          "indexed": true,
          "internalType": "address",
          "name": "user",
          "type": "address"
        },
        {
          "indexed": false,
          "internalType": "uint256",
          "name": "ticketId",
          "type": "uint256"
        },
        {
          "indexed": false,
          "internalType": "uint256",
          "name": "amount",
          "type": "uint256"
        }
      ],
      "name": "TicketExpired",
      "type": "event"
    },
    {
      "anonymous": false,
      "inputs": [
        {
          "indexed": false,
          "internalType": "uint256",
          "name": "newDuration",
          "type": "uint256"
        }
      ],
      "name": "TicketFlexibilityDurationUpdated",
      "type": "event"
    },
    {
      "anonymous": false,
      "inputs": [
        {
          "indexed": true,
          "internalType": "address",
          "name": "user",
          "type": "address"
        },
        {
          "indexed": false,
          "internalType": "uint256",
          "name": "amount",
          "type": "uint256"
        },
        {
          "indexed": false,
          "internalType": "uint256",
          "name": "ticketId",
          "type": "uint256"
        }
      ],
      "name": "TicketPurchased",
      "type": "event"
    },
    {
      "anonymous": false,
      "inputs": [
        {
          "indexed": true,
          "internalType": "address",
          "name": "implementation",
          "type": "address"
        }
      ],
      "name": "Upgraded",
      "type": "event"
    },
    {
      "inputs": [],
      "name": "REWARD_DIFFERENTIAL",
      "outputs": [
        {
          "internalType": "uint8",
          "name": "",
          "type": "uint8"
        }
      ],
      "stateMutability": "view",
      "type": "function"
    },
    {
      "inputs": [],
      "name": "REWARD_DIRECT",
      "outputs": [
        {
          "internalType": "uint8",
          "name": "",
          "type": "uint8"
        }
      ],
      "stateMutability": "view",
      "type": "function"
    },
    {
      "inputs": [],
      "name": "REWARD_DYNAMIC",
      "outputs": [
        {
          "internalType": "uint8",
          "name": "",
          "type": "uint8"
        }
      ],
      "stateMutability": "view",
      "type": "function"
    },
    {
      "inputs": [],
      "name": "REWARD_LEVEL",
      "outputs": [
        {
          "internalType": "uint8",
          "name": "",
          "type": "uint8"
        }
      ],
      "stateMutability": "view",
      "type": "function"
    },
    {
      "inputs": [],
      "name": "REWARD_STATIC",
      "outputs": [
        {
          "internalType": "uint8",
          "name": "",
          "type": "uint8"
        }
      ],
      "stateMutability": "view",
      "type": "function"
    },
    {
      "inputs": [],
      "name": "SECONDS_IN_UNIT",
      "outputs": [
        {
          "internalType": "uint256",
          "name": "",
          "type": "uint256"
        }
      ],
      "stateMutability": "view",
      "type": "function"
    },
    {
      "inputs": [],
      "name": "UPGRADE_INTERFACE_VERSION",
      "outputs": [
        {
          "internalType": "string",
          "name": "",
          "type": "string"
        }
      ],
      "stateMutability": "view",
      "type": "function"
    },
    {
      "inputs": [
        {
          "internalType": "uint256",
          "name": "mcAmount",
          "type": "uint256"
        },
        {
          "internalType": "uint256",
          "name": "jbcAmount",
          "type": "uint256"
        }
      ],
      "name": "addLiquidity",
      "outputs": [],
      "stateMutability": "nonpayable",
      "type": "function"
    },
    {
      "inputs": [
        {
          "internalType": "address",
          "name": "user",
          "type": "address"
        },
        {
          "internalType": "address",
          "name": "newReferrer",
          "type": "address"
        }
      ],
      "name": "adminSetReferrer",
      "outputs": [],
      "stateMutability": "nonpayable",
      "type": "function"
    },
    {
      "inputs": [
        {
          "internalType": "address",
          "name": "user",
          "type": "address"
        },
        {
          "internalType": "uint256",
          "name": "_activeDirects",
          "type": "uint256"
        },
        {
          "internalType": "uint256",
          "name": "_teamCount",
          "type": "uint256"
        },
        {
          "internalType": "uint256",
          "name": "_teamTotalVolume",
          "type": "uint256"
        },
        {
          "internalType": "uint256",
          "name": "_teamTotalCap",
          "type": "uint256"
        }
      ],
      "name": "adminSetUserStats",
      "outputs": [],
      "stateMutability": "nonpayable",
      "type": "function"
    },
    {
      "inputs": [
        {
          "internalType": "uint256",
          "name": "amount",
          "type": "uint256"
        },
        {
          "internalType": "address",
          "name": "to",
          "type": "address"
        }
      ],
      "name": "adminWithdrawJBC",
      "outputs": [],
      "stateMutability": "nonpayable",
      "type": "function"
    },
    {
      "inputs": [
        {
          "internalType": "uint256",
          "name": "amount",
          "type": "uint256"
        },
        {
          "internalType": "address",
          "name": "to",
          "type": "address"
        }
      ],
      "name": "adminWithdrawMC",
      "outputs": [],
      "stateMutability": "nonpayable",
      "type": "function"
    },
    {
      "inputs": [
        {
          "internalType": "address",
          "name": "_referrer",
          "type": "address"
        }
      ],
      "name": "bindReferrer",
      "outputs": [],
      "stateMutability": "nonpayable",
      "type": "function"
    },
    {
      "inputs": [
        {
          "internalType": "uint256",
          "name": "amount",
          "type": "uint256"
        }
      ],
      "name": "buyTicket",
      "outputs": [],
      "stateMutability": "nonpayable",
      "type": "function"
    },
    {
      "inputs": [],
      "name": "buybackPercent",
      "outputs": [
        {
          "internalType": "uint256",
          "name": "",
          "type": "uint256"
        }
      ],
      "stateMutability": "view",
      "type": "function"
    },
    {
      "inputs": [],
      "name": "buybackWallet",
      "outputs": [
        {
          "internalType": "address",
          "name": "",
          "type": "address"
        }
      ],
      "stateMutability": "view",
      "type": "function"
    },
    {
      "inputs": [],
      "name": "claimRewards",
      "outputs": [],
      "stateMutability": "nonpayable",
      "type": "function"
    },
    {
      "inputs": [],
      "name": "dailyBurn",
      "outputs": [],
      "stateMutability": "nonpayable",
      "type": "function"
    },
    {
      "inputs": [
        {
          "internalType": "address",
          "name": "",
          "type": "address"
        },
        {
          "internalType": "uint256",
          "name": "",
          "type": "uint256"
        }
      ],
      "name": "directReferrals",
      "outputs": [
        {
          "internalType": "address",
          "name": "",
          "type": "address"
        }
      ],
      "stateMutability": "view",
      "type": "function"
    },
    {
      "inputs": [],
      "name": "directRewardPercent",
      "outputs": [
        {
          "internalType": "uint256",
          "name": "",
          "type": "uint256"
        }
      ],
      "stateMutability": "view",
      "type": "function"
    },
    {
      "inputs": [],
      "name": "expireMyTicket",
      "outputs": [],
      "stateMutability": "nonpayable",
      "type": "function"
    },
    {
      "inputs": [
        {
          "internalType": "uint256",
          "name": "amountIn",
          "type": "uint256"
        },
        {
          "internalType": "uint256",
          "name": "reserveIn",
          "type": "uint256"
        },
        {
          "internalType": "uint256",
          "name": "reserveOut",
          "type": "uint256"
        }
      ],
      "name": "getAmountOut",
      "outputs": [
        {
          "internalType": "uint256",
          "name": "",
          "type": "uint256"
        }
      ],
      "stateMutability": "pure",
      "type": "function"
    },
    {
      "inputs": [
        {
          "internalType": "address",
          "name": "user",
          "type": "address"
        }
      ],
      "name": "getDirectReferrals",
      "outputs": [
        {
          "internalType": "address[]",
          "name": "",
          "type": "address[]"
        }
      ],
      "stateMutability": "view",
      "type": "function"
    },
    {
      "inputs": [
        {
          "internalType": "address",
          "name": "user",
          "type": "address"
        }
      ],
      "name": "getDirectReferralsData",
      "outputs": [
        {
          "components": [
            {
              "internalType": "address",
              "name": "user",
              "type": "address"
            },
            {
              "internalType": "uint256",
              "name": "ticketAmount",
              "type": "uint256"
            },
            {
              "internalType": "uint256",
              "name": "joinTime",
              "type": "uint256"
            }
          ],
          "internalType": "struct JinbaoProtocol.DirectReferralData[]",
          "name": "",
          "type": "tuple[]"
        }
      ],
      "stateMutability": "view",
      "type": "function"
    },
    {
      "inputs": [],
      "name": "getJBCPrice",
      "outputs": [
        {
          "internalType": "uint256",
          "name": "",
          "type": "uint256"
        }
      ],
      "stateMutability": "view",
      "type": "function"
    },
    {
      "inputs": [
        {
          "internalType": "uint256",
          "name": "activeDirects",
          "type": "uint256"
        }
      ],
      "name": "getLevel",
      "outputs": [
        {
          "internalType": "uint256",
          "name": "level",
          "type": "uint256"
        },
        {
          "internalType": "uint256",
          "name": "percent",
          "type": "uint256"
        }
      ],
      "stateMutability": "view",
      "type": "function"
    },
    {
      "inputs": [
        {
          "internalType": "address",
          "name": "_mcToken",
          "type": "address"
        },
        {
          "internalType": "address",
          "name": "_jbcToken",
          "type": "address"
        },
        {
          "internalType": "address",
          "name": "_marketing",
          "type": "address"
        },
        {
          "internalType": "address",
          "name": "_treasury",
          "type": "address"
        },
        {
          "internalType": "address",
          "name": "_lpInjection",
          "type": "address"
        },
        {
          "internalType": "address",
          "name": "_buybackWallet",
          "type": "address"
        }
      ],
      "name": "initialize",
      "outputs": [],
      "stateMutability": "nonpayable",
      "type": "function"
    },
    {
      "inputs": [],
      "name": "jbcToken",
      "outputs": [
        {
          "internalType": "contract IJBC",
          "name": "",
          "type": "address"
        }
      ],
      "stateMutability": "view",
      "type": "function"
    },
    {
      "inputs": [],
      "name": "lastBurnTime",
      "outputs": [
        {
          "internalType": "uint256",
          "name": "",
          "type": "uint256"
        }
      ],
      "stateMutability": "view",
      "type": "function"
    },
    {
      "inputs": [
        {
          "internalType": "uint256",
          "name": "",
          "type": "uint256"
        }
      ],
      "name": "levelConfigs",
      "outputs": [
        {
          "internalType": "uint256",
          "name": "minDirects",
          "type": "uint256"
        },
        {
          "internalType": "uint256",
          "name": "level",
          "type": "uint256"
        },
        {
          "internalType": "uint256",
          "name": "percent",
          "type": "uint256"
        }
      ],
      "stateMutability": "view",
      "type": "function"
    },
    {
      "inputs": [],
      "name": "levelRewardPercent",
      "outputs": [
        {
          "internalType": "uint256",
          "name": "",
          "type": "uint256"
        }
      ],
      "stateMutability": "view",
      "type": "function"
    },
    {
      "inputs": [],
      "name": "liquidityEnabled",
      "outputs": [
        {
          "internalType": "bool",
          "name": "",
          "type": "bool"
        }
      ],
      "stateMutability": "view",
      "type": "function"
    },
    {
      "inputs": [],
      "name": "lpInjectionPercent",
      "outputs": [
        {
          "internalType": "uint256",
          "name": "",
          "type": "uint256"
        }
      ],
      "stateMutability": "view",
      "type": "function"
    },
    {
      "inputs": [],
      "name": "lpInjectionWallet",
      "outputs": [
        {
          "internalType": "address",
          "name": "",
          "type": "address"
        }
      ],
      "stateMutability": "view",
      "type": "function"
    },
    {
      "inputs": [],
      "name": "marketingPercent",
      "outputs": [
        {
          "internalType": "uint256",
          "name": "",
          "type": "uint256"
        }
      ],
      "stateMutability": "view",
      "type": "function"
    },
    {
      "inputs": [],
      "name": "marketingWallet",
      "outputs": [
        {
          "internalType": "address",
          "name": "",
          "type": "address"
        }
      ],
      "stateMutability": "view",
      "type": "function"
    },
    {
      "inputs": [],
      "name": "mcToken",
      "outputs": [
        {
          "internalType": "contract IERC20",
          "name": "",
          "type": "address"
        }
      ],
      "stateMutability": "view",
      "type": "function"
    },
    {
      "inputs": [],
      "name": "nextStakeId",
      "outputs": [
        {
          "internalType": "uint256",
          "name": "",
          "type": "uint256"
        }
      ],
      "stateMutability": "view",
      "type": "function"
    },
    {
      "inputs": [],
      "name": "nextTicketId",
      "outputs": [
        {
          "internalType": "uint256",
          "name": "",
          "type": "uint256"
        }
      ],
      "stateMutability": "view",
      "type": "function"
    },
    {
      "inputs": [],
      "name": "owner",
      "outputs": [
        {
          "internalType": "address",
          "name": "",
          "type": "address"
        }
      ],
      "stateMutability": "view",
      "type": "function"
    },
    {
      "inputs": [],
      "name": "proxiableUUID",
      "outputs": [
        {
          "internalType": "bytes32",
          "name": "",
          "type": "bytes32"
        }
      ],
      "stateMutability": "view",
      "type": "function"
    },
    {
      "inputs": [],
      "name": "redeem",
      "outputs": [],
      "stateMutability": "nonpayable",
      "type": "function"
    },
    {
      "inputs": [],
      "name": "redeemEnabled",
      "outputs": [
        {
          "internalType": "bool",
          "name": "",
          "type": "bool"
        }
      ],
      "stateMutability": "view",
      "type": "function"
    },
    {
      "inputs": [],
      "name": "redemptionFeePercent",
      "outputs": [
        {
          "internalType": "uint256",
          "name": "",
          "type": "uint256"
        }
      ],
      "stateMutability": "view",
      "type": "function"
    },
    {
      "inputs": [],
      "name": "renounceOwnership",
      "outputs": [],
      "stateMutability": "nonpayable",
      "type": "function"
    },
    {
      "inputs": [
        {
          "components": [
            {
              "internalType": "uint256",
              "name": "minDirects",
              "type": "uint256"
            },
            {
              "internalType": "uint256",
              "name": "level",
              "type": "uint256"
            },
            {
              "internalType": "uint256",
              "name": "percent",
              "type": "uint256"
            }
          ],
          "internalType": "struct JinbaoProtocol.LevelConfig[]",
          "name": "_configs",
          "type": "tuple[]"
        }
      ],
      "name": "setLevelConfigs",
      "outputs": [],
      "stateMutability": "nonpayable",
      "type": "function"
    },
    {
      "inputs": [
        {
          "internalType": "uint256",
          "name": "amount",
          "type": "uint256"
        },
        {
          "internalType": "uint256",
          "name": "cycleDays",
          "type": "uint256"
        }
      ],
      "name": "stakeLiquidity",
      "outputs": [],
      "stateMutability": "nonpayable",
      "type": "function"
    },
    {
      "inputs": [
        {
          "internalType": "uint256",
          "name": "",
          "type": "uint256"
        }
      ],
      "name": "stakeOwner",
      "outputs": [
        {
          "internalType": "address",
          "name": "",
          "type": "address"
        }
      ],
      "stateMutability": "view",
      "type": "function"
    },
    {
      "inputs": [
        {
          "internalType": "uint256",
          "name": "",
          "type": "uint256"
        },
        {
          "internalType": "uint256",
          "name": "",
          "type": "uint256"
        }
      ],
      "name": "stakePendingRewards",
      "outputs": [
        {
          "internalType": "address",
          "name": "upline",
          "type": "address"
        },
        {
          "internalType": "uint256",
          "name": "amount",
          "type": "uint256"
        }
      ],
      "stateMutability": "view",
      "type": "function"
    },
    {
      "inputs": [],
      "name": "swapBuyTax",
      "outputs": [
        {
          "internalType": "uint256",
          "name": "",
          "type": "uint256"
        }
      ],
      "stateMutability": "view",
      "type": "function"
    },
    {
      "inputs": [
        {
          "internalType": "uint256",
          "name": "jbcAmount",
          "type": "uint256"
        }
      ],
      "name": "swapJBCToMC",
      "outputs": [],
      "stateMutability": "nonpayable",
      "type": "function"
    },
    {
      "inputs": [
        {
          "internalType": "uint256",
          "name": "mcAmount",
          "type": "uint256"
        }
      ],
      "name": "swapMCToJBC",
      "outputs": [],
      "stateMutability": "nonpayable",
      "type": "function"
    },
    {
      "inputs": [],
      "name": "swapReserveJBC",
      "outputs": [
        {
          "internalType": "uint256",
          "name": "",
          "type": "uint256"
        }
      ],
      "stateMutability": "view",
      "type": "function"
    },
    {
      "inputs": [],
      "name": "swapReserveMC",
      "outputs": [
        {
          "internalType": "uint256",
          "name": "",
          "type": "uint256"
        }
      ],
      "stateMutability": "view",
      "type": "function"
    },
    {
      "inputs": [],
      "name": "swapSellTax",
      "outputs": [
        {
          "internalType": "uint256",
          "name": "",
          "type": "uint256"
        }
      ],
      "stateMutability": "view",
      "type": "function"
    },
    {
      "inputs": [],
      "name": "ticketFlexibilityDuration",
      "outputs": [
        {
          "internalType": "uint256",
          "name": "",
          "type": "uint256"
        }
      ],
      "stateMutability": "view",
      "type": "function"
    },
    {
      "inputs": [
        {
          "internalType": "uint256",
          "name": "",
          "type": "uint256"
        }
      ],
      "name": "ticketOwner",
      "outputs": [
        {
          "internalType": "address",
          "name": "",
          "type": "address"
        }
      ],
      "stateMutability": "view",
      "type": "function"
    },
    {
      "inputs": [
        {
          "internalType": "uint256",
          "name": "",
          "type": "uint256"
        },
        {
          "internalType": "uint256",
          "name": "",
          "type": "uint256"
        }
      ],
      "name": "ticketPendingRewards",
      "outputs": [
        {
          "internalType": "address",
          "name": "upline",
          "type": "address"
        },
        {
          "internalType": "uint256",
          "name": "amount",
          "type": "uint256"
        }
      ],
      "stateMutability": "view",
      "type": "function"
    },
    {
      "inputs": [
        {
          "internalType": "address",
          "name": "newOwner",
          "type": "address"
        }
      ],
      "name": "transferOwnership",
      "outputs": [],
      "stateMutability": "nonpayable",
      "type": "function"
    },
    {
      "inputs": [],
      "name": "treasuryPercent",
      "outputs": [
        {
          "internalType": "uint256",
          "name": "",
          "type": "uint256"
        }
      ],
      "stateMutability": "view",
      "type": "function"
    },
    {
      "inputs": [],
      "name": "treasuryWallet",
      "outputs": [
        {
          "internalType": "address",
          "name": "",
          "type": "address"
        }
      ],
      "stateMutability": "view",
      "type": "function"
    },
    {
      "inputs": [
        {
          "internalType": "address",
          "name": "newImplementation",
          "type": "address"
        },
        {
          "internalType": "bytes",
          "name": "data",
          "type": "bytes"
        }
      ],
      "name": "upgradeToAndCall",
      "outputs": [],
      "stateMutability": "payable",
      "type": "function"
    },
    {
      "inputs": [
        {
          "internalType": "address",
          "name": "",
          "type": "address"
        }
      ],
      "name": "userInfo",
      "outputs": [
        {
          "internalType": "address",
          "name": "referrer",
          "type": "address"
        },
        {
          "internalType": "uint256",
          "name": "activeDirects",
          "type": "uint256"
        },
        {
          "internalType": "uint256",
          "name": "teamCount",
          "type": "uint256"
        },
        {
          "internalType": "uint256",
          "name": "totalRevenue",
          "type": "uint256"
        },
        {
          "internalType": "uint256",
          "name": "currentCap",
          "type": "uint256"
        },
        {
          "internalType": "bool",
          "name": "isActive",
          "type": "bool"
        },
        {
          "internalType": "uint256",
          "name": "refundFeeAmount",
          "type": "uint256"
        },
        {
          "internalType": "uint256",
          "name": "teamTotalVolume",
          "type": "uint256"
        },
        {
          "internalType": "uint256",
          "name": "teamTotalCap",
          "type": "uint256"
        },
        {
          "internalType": "uint256",
          "name": "maxTicketAmount",
          "type": "uint256"
        }
      ],
      "stateMutability": "view",
      "type": "function"
    },
    {
      "inputs": [
        {
          "internalType": "address",
          "name": "",
          "type": "address"
        },
        {
          "internalType": "uint256",
          "name": "",
          "type": "uint256"
        }
      ],
      "name": "userStakes",
      "outputs": [
        {
          "internalType": "uint256",
          "name": "id",
          "type": "uint256"
        },
        {
          "internalType": "uint256",
          "name": "amount",
          "type": "uint256"
        },
        {
          "internalType": "uint256",
          "name": "startTime",
          "type": "uint256"
        },
        {
          "internalType": "uint256",
          "name": "cycleDays",
          "type": "uint256"
        },
        {
          "internalType": "bool",
          "name": "active",
          "type": "bool"
        },
        {
          "internalType": "uint256",
          "name": "paid",
          "type": "uint256"
        }
      ],
      "stateMutability": "view",
      "type": "function"
    },
    {
      "inputs": [
        {
          "internalType": "address",
          "name": "",
          "type": "address"
        }
      ],
      "name": "userTicket",
      "outputs": [
        {
          "internalType": "uint256",
          "name": "ticketId",
          "type": "uint256"
        },
        {
          "internalType": "uint256",
          "name": "amount",
          "type": "uint256"
        },
        {
          "internalType": "uint256",
          "name": "purchaseTime",
          "type": "uint256"
        },
        {
          "internalType": "bool",
          "name": "exited",
          "type": "bool"
        }
      ],
      "stateMutability": "view",
      "type": "function"
    }
  ],
  "bytecode": "0x60a0604052306080523480156200001557600080fd5b506200002062000026565b620000da565b7ff0c57e16840df040f15088dc2f81fe391c3923bec73e23a9662efc9c229c6a00805468010000000000000000900460ff1615620000775760405163f92ee8a960e01b815260040160405180910390fd5b80546001600160401b0390811614620000d75780546001600160401b0319166001600160401b0390811782556040519081527fc7f505b2f371ae2175ee4913f4499e1f2633a7b5936321eed1cdaeb6115181d29060200160405180910390a15b50565b608051615d4b6200010460003960008181614691015281816146ba01526147f20152615d4b6000f3fe6080604052600436106102de5760003560e01c806304ef9d58146102e357806304f618cb1461030c578063054d50d41461032e57806305ad39351461034e5780630a5c45671461037b5780630e2be2101461039b5780630fc4fc1a146103c25780631427f616146103ef5780631788513c146104045780631959a002146104245780631d0dac76146104f457806321f483d31461050a57806327f082f414610539578063372500ab1461054f5780633a3ea2f0146105645780633dbd46bd146105795780634626402b146105af578063488b5d97146105cf5780634ea4c6b3146105e45780634f1ef2861461060457806352778b051461061757806352d1902d146106375780636031a52f1461064c57806362eea9141461066257806367dd74ca146106825780636dd66827146106a2578063715018a6146106b857806375506c96146106cd57806375e6b568146106e357806375f0a8741461070357806377a2a54014610723578063813380cd1461073957806381eeef5c1461076757806386481d401461077c5780638710bcaa146107aa57806388481b611461081157806388fd4d33146108265780638a859a85146108465780638c0eaa481461085b5780638da5cb5b146108705780639370b08014610885578063952539921461089b57806398b8972f146108bb5780639cd441da146108d0578063a2af9226146108f0578063ac8f50aa14610910578063ad3cb1cc14610930578063b048a4bb1461096e578063b5d5b5fa14610998578063bd594dcf146109e7578063be040fb0146109fd578063be57479914610a12578063c2ff12fc14610a32578063cc2a9a5b14610a68578063ccf6194414610a88578063ceaa366d14610a9e578063d241e00114610ab4578063d2c8e0e514610ad4578063d2f8253614610b01578063d8020a1814610b20578063deab8aea14610b36578063dec7fa3b14610b56578063e306744914610b6c578063e4412f6814610b82578063f2fde38b14610b98575b600080fd5b3480156102ef57600080fd5b506102f9600b5481565b6040519081526020015b60405180910390f35b34801561031857600080fd5b5061032c6103273660046155ac565b610bb8565b005b34801561033a57600080fd5b506102f96103493660046155c7565b610cbd565b34801561035a57600080fd5b5061036e6103693660046155f3565b610d3b565b604051610303919061561d565b34801561038757600080fd5b5061032c610396366004615631565b610d73565b3480156103a757600080fd5b506103b0600281565b60405160ff9091168152602001610303565b3480156103ce57600080fd5b506103e26103dd3660046155ac565b61103d565b604051610303919061564a565b3480156103fb57600080fd5b506103b0600081565b34801561041057600080fd5b5060015461036e906001600160a01b031681565b34801561043057600080fd5b5061049e61043f3660046155ac565b600f6020526000908152604090208054600182015460028301546003840154600485015460058601546006870154600788015460088901546009909901546001600160a01b0390981698969795969495939460ff90931693919290918a565b604080516001600160a01b03909b168b5260208b01999099529789019690965260608801949094526080870192909252151560a086015260c085015260e084015261010083015261012082015261014001610303565b34801561050057600080fd5b506102f960185481565b34801561051657600080fd5b5061052a610525366004615631565b61116e565b604051610303939291906156ac565b34801561054557600080fd5b506102f9600d5481565b34801561055b57600080fd5b5061032c6111a1565b34801561057057600080fd5b506102f96117f1565b34801561058557600080fd5b5061036e610594366004615631565b601e602052600090815260409020546001600160a01b031681565b3480156105bb57600080fd5b5060035461036e906001600160a01b031681565b3480156105db57600080fd5b506102f9603c81565b3480156105f057600080fd5b5061032c6105ff3660046156c2565b611831565b61032c610612366004615752565b611ca0565b34801561062357600080fd5b5061032c610632366004615631565b611cbb565b34801561064357600080fd5b506102f9611f6e565b34801561065857600080fd5b506102f960195481565b34801561066e57600080fd5b5061032c61067d3660046157f7565b611f8b565b34801561068e57600080fd5b5061032c61069d366004615631565b612068565b3480156106ae57600080fd5b506102f960155481565b3480156106c457600080fd5b5061032c612640565b3480156106d957600080fd5b506102f9601a5481565b3480156106ef57600080fd5b5061032c6106fe366004615823565b612652565b34801561070f57600080fd5b5060025461036e906001600160a01b031681565b34801561072f57600080fd5b506102f960175481565b34801561074557600080fd5b506107596107543660046156c2565b61268e565b604051610303929190615865565b34801561077357600080fd5b5061032c6126d4565b34801561078857600080fd5b5061079c610797366004615631565b6128c2565b60405161030392919061587e565b3480156107b657600080fd5b506107ef6107c53660046155ac565b60106020526000908152604090208054600182015460028301546003909301549192909160ff1684565b6040805194855260208501939093529183015215156060820152608001610303565b34801561081d57600080fd5b506103b0600481565b34801561083257600080fd5b5060045461036e906001600160a01b031681565b34801561085257600080fd5b506103b0600181565b34801561086757600080fd5b506103b0600381565b34801561087c57600080fd5b5061036e612965565b34801561089157600080fd5b506102f9600e5481565b3480156108a757600080fd5b5060005461036e906001600160a01b031681565b3480156108c757600080fd5b5061032c612980565b3480156108dc57600080fd5b5061032c6108eb3660046156c2565b612989565b3480156108fc57600080fd5b5061032c61090b36600461588c565b612b24565b34801561091c57600080fd5b5061075961092b3660046156c2565b612cfc565b34801561093c57600080fd5b50610961604051806040016040528060058152602001640352e302e360dc1b81525081565b60405161030391906158da565b34801561097a57600080fd5b506016546109889060ff1681565b6040519015158152602001610303565b3480156109a457600080fd5b506109b86109b33660046155f3565b612d18565b6040805196875260208701959095529385019290925260608401521515608083015260a082015260c001610303565b3480156109f357600080fd5b506102f960075481565b348015610a0957600080fd5b5061032c612d72565b348015610a1e57600080fd5b5061032c610a2d36600461590d565b613676565b348015610a3e57600080fd5b5061036e610a4d366004615631565b601c602052600090815260409020546001600160a01b031681565b348015610a7457600080fd5b5061032c610a833660046159e0565b613718565b348015610a9457600080fd5b506102f960065481565b348015610aaa57600080fd5b506102f9600a5481565b348015610ac057600080fd5b5061032c610acf3660046157f7565b613d56565b348015610ae057600080fd5b50610af4610aef3660046155ac565b613deb565b6040516103039190615a54565b348015610b0d57600080fd5b5060165461098890610100900460ff1681565b348015610b2c57600080fd5b506102f960085481565b348015610b4257600080fd5b5060055461036e906001600160a01b031681565b348015610b6257600080fd5b506102f9600c5481565b348015610b7857600080fd5b506102f9601b5481565b348015610b8e57600080fd5b506102f960095481565b348015610ba457600080fd5b5061032c610bb33660046155ac565b613e61565b336000908152600f60205260409020546001600160a01b031615610bef5760405163682a906560e01b815260040160405180910390fd5b336001600160a01b03821603610c1857604051631acade8960e31b815260040160405180910390fd5b6001600160a01b038116610c3f5760405163e6c4247b60e01b815260040160405180910390fd5b336000818152600f6020908152604080832080546001600160a01b0387166001600160a01b0319918216811790925581855260128452828520805460018101825590865293852090930180549093168517909255519092917fa6dbb5aa28f35437de94d685d66edce5fb4812196b4984b91dfd5a7b38c0fb3091a350565b600083600003610ce05760405163162908e360e11b815260040160405180910390fd5b821580610ceb575081155b15610d09576040516343c7ad8160e11b815260040160405180910390fd5b6000610d158386615ab7565b90506000610d238686615ace565b9050610d2f8183615ae1565b925050505b9392505050565b60126020528160005260406000208181548110610d5757600080fd5b6000918252602090912001546001600160a01b03169150829050565b610d7b613e9c565b80600003610d9c5760405163162908e360e11b815260040160405180910390fd5b6000546040516323b872dd60e01b81526001600160a01b03909116906323b872dd90610dd090339030908690600401615b03565b6020604051808303816000875af1158015610def573d6000803e3d6000fd5b505050506040513d601f19601f82011682018060405250810190610e139190615b27565b506000610e2582601754601854610cbd565b905060006064600d5483610e399190615ab7565b610e439190615ae1565b90506000610e518284615b49565b6001546040516370a0823160e01b815291925084916001600160a01b03909116906370a0823190610e8690309060040161561d565b602060405180830381865afa158015610ea3573d6000803e3d6000fd5b505050506040513d601f19601f82011682018060405250810190610ec79190615b5c565b1015610ee6576040516343c7ad8160e11b815260040160405180910390fd5b8360176000828254610ef89190615ace565b925050819055508260186000828254610f119190615b49565b9091555050600154604051630852cd8d60e31b8152600481018490526001600160a01b03909116906342966c6890602401600060405180830381600087803b158015610f5c57600080fd5b505af1158015610f70573d6000803e3d6000fd5b505060015460405163a9059cbb60e01b81526001600160a01b03909116925063a9059cbb9150610fa69033908590600401615865565b6020604051808303816000875af1158015610fc5573d6000803e3d6000fd5b505050506040513d601f19601f82011682018060405250810190610fe99190615b27565b50336001600160a01b03167f36864aeefce16bc4aaceeb6b0cdfb2ad1455a8cb4ccb0db148a2bc6e7166f97c858385604051611027939291906156ac565b60405180910390a250505061103a613ed2565b50565b6001600160a01b03811660009081526012602052604081208054606092906001600160401b03811115611072576110726156e4565b6040519080825280602002602001820160405280156110d057816020015b6110bd604051806060016040528060006001600160a01b0316815260200160008152602001600081525090565b8152602001906001900390816110905790505b50905060005b82548110156111665760008382815481106110f3576110f3615b75565b60009182526020808320909101546001600160a01b0316808352601082526040928390208351606081018552828152600182015493810193909352600281015493830193909352855190935085908590811061115157611151615b75565b602090810291909101015250506001016110d6565b509392505050565b6014818154811061117e57600080fd5b600091825260209091206003909102018054600182015460029092015490925083565b6111a9613e9c565b336000908152601060205260409020600181015415806111cd5750600381015460ff165b156111eb57604051634065aaf160e11b815260040160405180910390fd5b33600090815260116020526040812090805b82548110156114505782818154811061121857611218615b75565b600091825260209091206004600690920201015460ff161561144857600083828154811061124857611248615b75565b90600052602060002090600602016003015460070361126b575062cb73566112d2565b83828154811061127d5761127d615b75565b906000526020600020906006020160030154600f036112a0575062fe502b6112d2565b8382815481106112b2576112b2615b75565b906000526020600020906006020160030154601e036112d257506301312d005b6000603c8584815481106112e8576112e8615b75565b906000526020600020906006020160020154426113059190615b49565b61130f9190615ae1565b905084838154811061132357611323615b75565b9060005260206000209060060201600301548111156113635784838154811061134e5761134e615b75565b90600052602060002090600602016003015490505b80600003611372575050611448565b6000633b9aca00828488878154811061138d5761138d615b75565b9060005260206000209060060201600101546113a99190615ab7565b6113b39190615ab7565b6113bd9190615ae1565b905060008685815481106113d3576113d3615b75565b9060005260206000209060060201600501549050808211156114435760006113fb8284615b49565b90506114078188615ace565b96508088878154811061141c5761141c615b75565b9060005260206000209060060201600501600082825461143c9190615ace565b9091555050505b505050505b6001016111fd565b508060000361147257604051630fec21fd60e21b815260040160405180910390fd5b336000908152600f602052604090206004810154600390910154611497908390615ace565b11156114c457336000908152600f6020526040902060038101546004909101546114c19190615b49565b90505b806000036114dd576114d533613ee3565b5050506117e7565b336000908152600f6020526040812060030180548392906114ff908490615ace565b9091555060009050611512600283615ae1565b90506000611521600284615ae1565b600080546040516370a0823160e01b8152929350909184916001600160a01b0316906370a082319061155790309060040161561d565b602060405180830381865afa158015611574573d6000803e3d6000fd5b505050506040513d601f19601f820116820180604052508101906115989190615b5c565b101580156115a65750600083115b156116255760005460405163a9059cbb60e01b81526001600160a01b039091169063a9059cbb906115dd9033908790600401615865565b6020604051808303816000875af11580156115fc573d6000803e3d6000fd5b505050506040513d601f19601f820116820180604052508101906116209190615b27565b508290505b600061162f6117f1565b905060008161164685670de0b6b3a7640000615ab7565b6116509190615ae1565b6001546040516370a0823160e01b815291925060009183916001600160a01b0316906370a082319061168690309060040161561d565b602060405180830381865afa1580156116a3573d6000803e3d6000fd5b505050506040513d601f19601f820116820180604052508101906116c79190615b5c565b101580156116d55750600082115b156117545760015460405163a9059cbb60e01b81526001600160a01b039091169063a9059cbb9061170c9033908690600401615865565b6020604051808303816000875af115801561172b573d6000803e3d6000fd5b505050506040513d601f19601f8201168201806040525081019061174f9190615b27565b508190505b336001600160a01b0316600080516020615cd683398151915288600060405161177e929190615b8b565b60405180910390a288546040513391600080516020615c56833981519152916117ad9188918691600091615b9c565b60405180910390a2336000908152600f602052604090206004810154600390910154106117dd576117dd33613ee3565b5050505050505050505b6117ef613ed2565b565b600060185460000361180a5750670de0b6b3a764000090565b60185460175461182290670de0b6b3a7640000615ab7565b61182c9190615ae1565b905090565b611839613e9c565b60165460ff1661185c57604051634065aaf160e11b815260040160405180910390fd5b336000908152601060205260408120600181015490910361189057604051634065aaf160e11b815260040160405180910390fd5b600381015460ff16156118b657604051631ecb2c4f60e31b815260040160405180910390fd5b60155481600201546118c89190615ace565b4211156118e857604051630407b05b60e31b815260040160405180910390fd5b816007141580156118fa575081600f14155b8015611907575081601e14155b1561192557604051634dc7f5ff60e11b815260040160405180910390fd5b826000036119465760405163162908e360e11b815260040160405180910390fd5b6000546040516323b872dd60e01b81526001600160a01b03909116906323b872dd9061197a90339030908890600401615b03565b6020604051808303816000875af1158015611999573d6000803e3d6000fd5b505050506040513d601f19601f820116820180604052508101906119bd9190615b27565b50601a80549060006119ce83615bba565b9091555050336000818152601160209081526040808320815160c081018352601a805482528185018a815242838601908152606084018b815260016080860181815260a087018b815288548084018a55988c528a8c2097516006909902909701978855935190870155905160028601555160038501555160048401805460ff1916911515919091179055905160059092019190915580548452601e90925290912080546001600160a01b0319168317905554611a8c91908590614221565b6000611a9b8260010154614467565b90506000611aa833614486565b905081811015611acb576040516343c7ad8160e11b815260040160405180910390fd5b611ad433614518565b336001600160a01b03167fa8a1b9e33e503eed12bf7e7c8c01c7f3b60217a496bddd0f5db351dd8c056c1c8686601a54604051611b13939291906156ac565b60405180910390a2336000908152600f60205260409020600601548015611c9057336000908152600f60205260408120600601556017548111801590611bc857506000546040516370a0823160e01b815282916001600160a01b0316906370a0823190611b8490309060040161561d565b602060405180830381865afa158015611ba1573d6000803e3d6000fd5b505050506040513d601f19601f82011682018060405250810190611bc59190615b5c565b10155b15611c90578060176000828254611bdf9190615b49565b909155505060005460405163a9059cbb60e01b81526001600160a01b039091169063a9059cbb90611c169033908590600401615865565b6020604051808303816000875af1158015611c35573d6000803e3d6000fd5b505050506040513d601f19601f82011682018060405250810190611c599190615b27565b5060405181815233907f3437b9ea7fa19c6d233dd70cc787a70fab87cee64d8ba4571512cc84402748f99060200160405180910390a25b50505050611c9c613ed2565b5050565b611ca8614686565b611cb18261472b565b611c9c8282614733565b611cc3613e9c565b80600003611ce45760405163162908e360e11b815260040160405180910390fd5b6001546040516323b872dd60e01b81526001600160a01b03909116906323b872dd90611d1890339030908690600401615b03565b6020604051808303816000875af1158015611d37573d6000803e3d6000fd5b505050506040513d601f19601f82011682018060405250810190611d5b9190615b27565b5060006064600e5483611d6e9190615ab7565b611d789190615ae1565b90506000611d868284615b49565b600154604051630852cd8d60e31b8152600481018590529192506001600160a01b0316906342966c6890602401600060405180830381600087803b158015611dcd57600080fd5b505af1158015611de1573d6000803e3d6000fd5b505050506000611df682601854601754610cbd565b6000546040516370a0823160e01b815291925082916001600160a01b03909116906370a0823190611e2b90309060040161561d565b602060405180830381865afa158015611e48573d6000803e3d6000fd5b505050506040513d601f19601f82011682018060405250810190611e6c9190615b5c565b1015611e8b576040516343c7ad8160e11b815260040160405180910390fd5b8160186000828254611e9d9190615ace565b925050819055508060176000828254611eb69190615b49565b909155505060005460405163a9059cbb60e01b81526001600160a01b039091169063a9059cbb90611eed9033908590600401615865565b6020604051808303816000875af1158015611f0c573d6000803e3d6000fd5b505050506040513d601f19601f82011682018060405250810190611f309190615b27565b50336001600160a01b03167f223c8ad0806f634524940a8595f819c5cfc7b1f4f4f45791269301df0a7e61d5858386604051611027939291906156ac565b6000611f786147e7565b50600080516020615c7683398151915290565b611f93614830565b81600003611fb45760405163162908e360e11b815260040160405180910390fd5b601854821115611fd757604051631e9acf1760e31b815260040160405180910390fd5b8160186000828254611fe99190615b49565b909155505060015460405163a9059cbb60e01b81526001600160a01b039091169063a9059cbb906120209084908690600401615865565b6020604051808303816000875af115801561203f573d6000803e3d6000fd5b505050506040513d601f19601f820116820180604052508101906120639190615b27565b505050565b612070613e9c565b61207933614862565b8068056bc75e2d631000001415801561209b575080681043561a882930000014155b80156120b0575080681b1ae4d6e2ef50000014155b80156120c5575080683635c9adc5dea0000014155b156120e35760405163162908e360e11b815260040160405180910390fd5b6000546040516323b872dd60e01b81526001600160a01b03909116906323b872dd9061211790339030908690600401615b03565b6020604051808303816000875af1158015612136573d6000803e3d6000fd5b505050506040513d601f19601f8201168201806040525081019061215a9190615b27565b50336000908152601060205260409020600381015460ff16156121e0576019805490600061218783615bba565b90915550506019548155600181018290554260028201556003808201805460ff19169055336000908152600f602052604081208201556121c8908390615ab7565b336000908152600f602052604090206004015561226a565b80600101546000036121fc576019805490600061218783615bba565b818160010160008282546122109190615ace565b9091555050336000908152600f602052604090206005015460ff1615612237574260028201555b612242826003615ab7565b336000908152600f602052604081206004018054909190612264908490615ace565b90915550505b336000908152600f6020526040902060090154600182015411156122a1576001810154336000908152600f60205260409020600901555b80546000908152601c6020908152604080832080546001600160a01b031916339081179091558352600f9091529020546001600160a01b0316801580159061230457506001600160a01b0381166000908152600f602052604090206005015460ff165b1561237d57600060646006548561231b9190615ab7565b6123259190615ae1565b9050600061233583836002614a39565b9050801561237657835460405133916001600160a01b03861691600080516020615c368339815191529161236d918691600291615bd3565b60405180910390a35b5050612413565b6000546002546006546001600160a01b039283169263a9059cbb9216906064906123a79088615ab7565b6123b19190615ae1565b6040518363ffffffff1660e01b81526004016123ce929190615865565b6020604051808303816000875af11580156123ed573d6000803e3d6000fd5b505050506040513d601f19601f820116820180604052508101906124119190615b27565b505b61241d3384614bd0565b6000546002546008546001600160a01b039283169263a9059cbb9216906064906124479088615ab7565b6124519190615ae1565b6040518363ffffffff1660e01b815260040161246e929190615865565b6020604051808303816000875af115801561248d573d6000803e3d6000fd5b505050506040513d601f19601f820116820180604052508101906124b19190615b27565b5060006064600954856124c49190615ab7565b6124ce9190615ae1565b90506124d981614e35565b600054600454600a546001600160a01b039283169263a9059cbb9216906064906125039089615ab7565b61250d9190615ae1565b6040518363ffffffff1660e01b815260040161252a929190615865565b6020604051808303816000875af1158015612549573d6000803e3d6000fd5b505050506040513d601f19601f8201168201806040525081019061256d9190615b27565b50600054600354600b546001600160a01b039283169263a9059cbb9216906064906125989089615ab7565b6125a29190615ae1565b6040518363ffffffff1660e01b81526004016125bf929190615865565b6020604051808303816000875af11580156125de573d6000803e3d6000fd5b505050506040513d601f19601f820116820180604052508101906126029190615b27565b5061260c33614518565b825460405133917f2a91574e12ad96234e84923e146b0946ecfb871cd8d5534dc1fdcbe87a7c01b39161102791889161587e565b612648614830565b6117ef6000615034565b61265a614830565b6001600160a01b039094166000908152600f6020526040902060018101939093556002830191909155600782015560080155565b601360205281600052604060002081815481106126aa57600080fd5b6000918252602090912060029091020180546001909101546001600160a01b039091169250905082565b601b546126e49062015180615ace565b4210156127205760405162461bcd60e51b81526020600482015260056024820152644561726c7960d81b60448201526064015b60405180910390fd5b60006018541161275b5760405162461bcd60e51b81526020600482015260066024820152654e6f2072657360d01b6044820152606401612717565b6000606460185461276c9190615ae1565b905080156128bb576001546040516370a0823160e01b815282916001600160a01b0316906370a08231906127a490309060040161561d565b602060405180830381865afa1580156127c1573d6000803e3d6000fd5b505050506040513d601f19601f820116820180604052508101906127e59190615b5c565b101561281d5760405162461bcd60e51b81526020600482015260076024820152664c6f77204a424360c81b6044820152606401612717565b806018600082825461282f9190615b49565b9091555050600154604051630852cd8d60e31b8152600481018390526001600160a01b03909116906342966c6890602401600060405180830381600087803b15801561287a57600080fd5b505af115801561288e573d6000803e3d6000fd5b50505050600080516020615cb68339815191526000826040516128b292919061587e565b60405180910390a15b5042601b55565b60008060005b60145481101561295957601481815481106128e5576128e5615b75565b9060005260206000209060030201600001548410612951576014818154811061291057612910615b75565b9060005260206000209060030201600101546014828154811061293557612935615b75565b9060005260206000209060030201600201549250925050915091565b6001016128c8565b50600093849350915050565b600080612970615090565b546001600160a01b031692915050565b6117ef33614862565b612991614830565b8115801561299d575080155b156129bb5760405163162908e360e11b815260040160405180910390fd5b8115612a51576000546040516323b872dd60e01b81526001600160a01b03909116906323b872dd906129f590339030908790600401615b03565b6020604051808303816000875af1158015612a14573d6000803e3d6000fd5b505050506040513d601f19601f82011682018060405250810190612a389190615b27565b508160176000828254612a4b9190615ace565b90915550505b8015612ae7576001546040516323b872dd60e01b81526001600160a01b03909116906323b872dd90612a8b90339030908690600401615b03565b6020604051808303816000875af1158015612aaa573d6000803e3d6000fd5b505050506040513d601f19601f82011682018060405250810190612ace9190615b27565b508060186000828254612ae19190615ace565b90915550505b7f38f8a0c92f4c5b0b6877f878cb4c0c8d348a47b76d716c8e78f425043df9515b8282604051612b1892919061587e565b60405180910390a15050565b612b2c614830565b806001600160a01b0316826001600160a01b031603612b5e57604051631acade8960e31b815260040160405180910390fd5b6001600160a01b038083166000908152600f6020526040902080548383166001600160a01b0319821617909155168015612cab576001600160a01b0381166000908152601260205260408120905b8154811015612ca857846001600160a01b0316828281548110612bd157612bd1615b75565b6000918252602090912001546001600160a01b031603612ca05781548290612bfb90600190615b49565b81548110612c0b57612c0b615b75565b9060005260206000200160009054906101000a90046001600160a01b0316828281548110612c3b57612c3b615b75565b9060005260206000200160006101000a8154816001600160a01b0302191690836001600160a01b0316021790555081805480612c7957612c79615bec565b600082815260209020810160001990810180546001600160a01b0319169055019055612ca8565b600101612bac565b50505b6001600160a01b0382161561206357506001600160a01b0390811660009081526012602090815260408220805460018101825590835291200180546001600160a01b03191692909116919091179055565b601d60205281600052604060002081815481106126aa57600080fd5b60116020528160005260406000208181548110612d3457600080fd5b600091825260209091206006909102018054600182015460028301546003840154600485015460059095015493965091945092909160ff9091169086565b612d7a613e9c565b601654610100900460ff16612dbc5760405162461bcd60e51b8152602060048201526008602482015267111a5cd8589b195960c21b6044820152606401612717565b336000908152601160205260408120908080805b845481101561312a57848181548110612deb57612deb615b75565b600091825260209091206004600690920201015460ff1615613122576000603c868381548110612e1d57612e1d615b75565b906000526020600020906006020160030154612e399190615ab7565b868381548110612e4b57612e4b615b75565b906000526020600020906006020160020154612e679190615ace565b9050804210613120576000868381548110612e8457612e84615b75565b906000526020600020906006020160030154600703612ea7575062cb7356612f0e565b868381548110612eb957612eb9615b75565b906000526020600020906006020160030154600f03612edc575062fe502b612f0e565b868381548110612eee57612eee615b75565b906000526020600020906006020160030154601e03612f0e57506301312d005b6000633b9aca00888581548110612f2757612f27615b75565b906000526020600020906006020160030154838a8781548110612f4c57612f4c615b75565b906000526020600020906006020160010154612f689190615ab7565b612f729190615ab7565b612f7c9190615ae1565b90506000888581548110612f9257612f92615b75565b906000526020600020906006020160050154821115612fdd57888581548110612fbd57612fbd615b75565b90600052602060002090600602016005015482612fda9190615b49565b90505b612fe78187615ace565b955080898681548110612ffc57612ffc615b75565b9060005260206000209060060201600501600082825461301c9190615ace565b9091555050336000908152600f6020526040812060090154908190036130515750336000908152601060205260409020600101545b60006064600c54836130639190615ab7565b61306d9190615ae1565b905060008b888154811061308357613083615b75565b9060005260206000209060060201600101549050808b6130a39190615ace565b9a506130af828b615ace565b995060008c89815481106130c5576130c5615b75565b906000526020600020906006020160040160006101000a81548160ff0219169083151502179055506131198c898154811061310257613102615b75565b9060005260206000209060060201600001546150b4565b5050505050505b505b600101612dd0565b50600083118061313a5750600081115b61317a5760405162461bcd60e51b81526020600482015260116024820152704e6f7468696e6720746f2072656465656d60781b6044820152606401612717565b8115613210576000546040516323b872dd60e01b81526001600160a01b03909116906323b872dd906131b490339030908790600401615b03565b6020604051808303816000875af11580156131d3573d6000803e3d6000fd5b505050506040513d601f19601f820116820180604052508101906131f79190615b27565b50816017600082825461320a9190615ace565b90915550505b801561356b57336000908152600f60205260408120600381015460049091015461323a9190615b49565b90508082111561327957336001600160a01b0316600080516020615c96833981519152838360405161326d92919061587e565b60405180910390a28091505b811561356957336000908152600f6020526040812060030180548492906132a1908490615ace565b90915550600090506132b4600284615ae1565b905060006132c3600285615ae1565b600080546040516370a0823160e01b8152929350909184916001600160a01b0316906370a08231906132f990309060040161561d565b602060405180830381865afa158015613316573d6000803e3d6000fd5b505050506040513d601f19601f8201168201806040525081019061333a9190615b5c565b101580156133485750600083115b156133c75760005460405163a9059cbb60e01b81526001600160a01b039091169063a9059cbb9061337f9033908790600401615865565b6020604051808303816000875af115801561339e573d6000803e3d6000fd5b505050506040513d601f19601f820116820180604052508101906133c29190615b27565b508290505b60006133d16117f1565b90506000816133e885670de0b6b3a7640000615ab7565b6133f29190615ae1565b6001546040516370a0823160e01b815291925060009183916001600160a01b0316906370a082319061342890309060040161561d565b602060405180830381865afa158015613445573d6000803e3d6000fd5b505050506040513d601f19601f820116820180604052508101906134699190615b5c565b101580156134775750600082115b156134f65760015460405163a9059cbb60e01b81526001600160a01b039091169063a9059cbb906134ae9033908690600401615865565b6020604051808303816000875af11580156134cd573d6000803e3d6000fd5b505050506040513d601f19601f820116820180604052508101906134f19190615b27565b508190505b336001600160a01b0316600080516020615cd6833981519152896000604051613520929190615b8b565b60405180910390a233600081815260106020526040808220549051600080516020615c568339815191529261355a92899287929190615b9c565b60405180910390a25050505050505b505b82156135e85760005460405163a9059cbb60e01b81526001600160a01b039091169063a9059cbb906135a39033908790600401615865565b6020604051808303816000875af11580156135c2573d6000803e3d6000fd5b505050506040513d601f19601f820116820180604052508101906135e69190615b27565b505b336000908152600f60205260408120600601805484929061360a908490615ace565b90915550506040513390600080516020615cf683398151915290613631908690869061587e565b60405180910390a261364233614518565b336000908152600f6020526040902060048101546003909101541061366a5761366a33613ee3565b505050506117ef613ed2565b61367e614830565b61368a60146000615502565b60005b81518110156136eb5760148282815181106136aa576136aa615b75565b60209081029190910181015182546001818101855560009485529383902082516003909202019081559181015182840155604001516002909101550161368d565b506040517f81086beec7078a58d4155c0b0d7d98e4d4df580e4737331309687e6ab8a6944090600090a150565b600061372261527b565b805490915060ff600160401b82041615906001600160401b03166000811580156137495750825b90506000826001600160401b031660011480156137655750303b155b905081158015613773575080155b156137915760405163f92ee8a960e01b815260040160405180910390fd5b84546001600160401b031916600117855583156137ba57845460ff60401b1916600160401b1785555b6137c3336152a4565b6137cb6152b5565b6137d36152c5565b8a6000806101000a8154816001600160a01b0302191690836001600160a01b0316021790555089600160006101000a8154816001600160a01b0302191690836001600160a01b0316021790555088600260006101000a8154816001600160a01b0302191690836001600160a01b0316021790555087600360006101000a8154816001600160a01b0302191690836001600160a01b0316021790555086600460006101000a8154816001600160a01b0302191690836001600160a01b0316021790555085600560006101000a8154816001600160a01b0302191690836001600160a01b031602179055506019600681905550600f600781905550600560088190555060056009819055506019600a819055506019600b819055506001600c819055506032600d819055506019600e819055506203f4806015819055506001601660006101000a81548160ff0219169083151502179055506001601660016101000a81548160ff02191690831515021790555042601b8190555060146040518060600160405280620186a0815260200160098152602001602d81525090806001815401808255809150506001900390600052602060002090600302016000909190919091506000820151816000015560208201518160010155604082015181600201555050601460405180606001604052806175308152602001600881526020016028815250908060018154018082558091505060019003906000526020600020906003020160009091909190915060008201518160000155602082015181600101556040820151816002015550506014604051806060016040528061271081526020016007815260200160238152509080600181540180825580915050600190039060005260206000209060030201600090919091909150600082015181600001556020820151816001015560408201518160020155505060146040518060600160405280610bb8815260200160068152602001601e81525090806001815401808255809150506001900390600052602060002090600302016000909190919091506000820151816000015560208201518160010155604082015181600201555050601460405180606001604052806103e88152602001600581526020016019815250908060018154018082558091505060019003906000526020600020906003020160009091909190915060008201518160000155602082015181600101556040820151816002015550506014604051806060016040528061012c815260200160048152602001601481525090806001815401808255809150506001900390600052602060002090600302016000909190919091506000820151816000015560208201518160010155604082015181600201555050601460405180606001604052806064815260200160038152602001600f8152509080600181540180825580915050600190039060005260206000209060030201600090919091909150600082015181600001556020820151816001015560408201518160020155505060146040518060600160405280601e815260200160028152602001600a8152509080600181540180825580915050600190039060005260206000209060030201600090919091909150600082015181600001556020820151816001015560408201518160020155505060146040518060600160405280600a8152602001600181526020016005815250908060018154018082558091505060019003906000526020600020906003020160009091909190915060008201518160000155602082015181600101556040820151816002015550508315613d4957845460ff60401b19168555604051600181527fc7f505b2f371ae2175ee4913f4499e1f2633a7b5936321eed1cdaeb6115181d29060200160405180910390a15b5050505050505050505050565b613d5e614830565b81600003613d7f5760405163162908e360e11b815260040160405180910390fd5b601754821115613da257604051631e9acf1760e31b815260040160405180910390fd5b8160176000828254613db49190615b49565b909155505060005460405163a9059cbb60e01b81526001600160a01b039091169063a9059cbb906120209084908690600401615865565b6001600160a01b038116600090815260126020908152604091829020805483518184028101840190945280845260609392830182828015613e5557602002820191906000526020600020905b81546001600160a01b03168152600190910190602001808311613e37575b50505050509050919050565b613e69614830565b6001600160a01b038116613e93576000604051631e4fbdf760e01b8152600401612717919061561d565b61103a81615034565b6000613ea66152cd565b805490915060011901613ecc57604051633ee5aeb560e01b815260040160405180910390fd5b60029055565b6000613edc6152cd565b6001905550565b6001600160a01b0381166000908152601060205260409020600381015460ff16611c9c5760038101805460ff191660011790556001600160a01b03821660009081526011602052604081209080805b835481101561405557838181548110613f4d57613f4d615b75565b600091825260209091206004600690920201015460ff161561404d57600061012c600c54868481548110613f8357613f83615b75565b9060005260206000209060060201600101546002613fa19190615ab7565b613fab9190615ab7565b613fb59190615ae1565b90506000858381548110613fcb57613fcb615b75565b9060005260206000209060060201600101549050818110613ff757613ff08282615b49565b9050613ffc565b600091505b6140068186615ace565b94506140128285615ace565b9350600086848154811061402857614028615b75565b60009182526020909120600690910201600401805460ff191691151591909117905550505b600101613f32565b5081156140d35760005460405163a9059cbb60e01b81526001600160a01b039091169063a9059cbb9061408e9088908690600401615865565b6020604051808303816000875af11580156140ad573d6000803e3d6000fd5b505050506040513d601f19601f820116820180604052508101906140d19190615b27565b505b801561410a576001600160a01b0385166000908152600f602052604081206006018054839290614104908490615ace565b90915550505b6001600160a01b038086166000908152600f6020526040902060058101805460ff198116909155905460ff909116911681801561414f57506001600160a01b03811615155b801561417557506001600160a01b0381166000908152600f602052604090206001015415155b156141a7576001600160a01b0381166000908152600f602052604081206001018054916141a183615c02565b91905055505b866001600160a01b0316600080516020615cf683398151915285856040516141d092919061587e565b60405180910390a285546040519081526001600160a01b038816907f920bb94eb3842a728db98228c375ff6b00c5bc5a54fac6736155517a0a20a61a9060200160405180910390a250505050505050565b6001600160a01b038084166000908152600f602052604081205490911690805b6001600160a01b038316158015906142595750601481105b1561445f576001600160a01b0383166000908152600f602052604090206005015460ff166142b1576001600160a01b039283166000908152600f602052604090205490921691806142a981615bba565b915050614241565b6001600160a01b0383166000908152601060205260409020600181015415806142de5750600381015460ff165b15614314576001600160a01b039384166000908152600f6020526040902054909316928161430b81615bba565b92505050614241565b6001600160a01b0384166000908152600f6020526040812060010154614339906128c2565b9150508381111561441e5760006143508583615b49565b60018401549091508890811115614368575060018301545b600060646143768484615ab7565b6143809190615ae1565b60008a8152601d60209081526040808320815180830183526001600160a01b038e8116808352828601888152845460018082018755958952978790209351600290980290930180546001600160a01b0319169790921696909617815590519101555183815292935090918b917f7c6505ab8279235ad21ebf427336cc8d97c017b4aa1f10ffdff11d3261e4934e910160405180910390a38396505050505b602d811061442d57505061445f565b6001600160a01b039485166000908152600f6020526040902054909416938261445581615bba565b9350505050614241565b505050505050565b60006002614476836003615ab7565b6144809190615ae1565b92915050565b6001600160a01b0381166000908152601160205260408120815b8154811015614511578181815481106144bb576144bb615b75565b600091825260209091206004600690920201015460ff1615614509578181815481106144e9576144e9615b75565b906000526020600020906006020160010154836145069190615ace565b92505b6001016144a0565b5050919050565b6001600160a01b038116600090815260106020526040812060018101549091901561454f5761454a8260010154614467565b614552565b60005b9050600080836001015411801561456e5750600383015460ff16155b801561457a5750600082115b801561458e57508161458b85614486565b10155b6001600160a01b0385166000908152600f602052604090206005015490915060ff16801515821515036145c2575050505050565b6001600160a01b038581166000908152600f6020526040902060058101805460ff19168515151790555416806145fa57505050505050565b8215614631576001600160a01b0381166000908152600f6020526040812060010180549161462783615bba565b919050555061445f565b6001600160a01b0381166000908152600f60205260409020600101541561445f576001600160a01b0381166000908152600f6020526040812060010180549161467983615c02565b9190505550505050505050565b306001600160a01b037f000000000000000000000000000000000000000000000000000000000000000016148061470d57507f00000000000000000000000000000000000000000000000000000000000000006001600160a01b0316614701600080516020615c76833981519152546001600160a01b031690565b6001600160a01b031614155b156117ef5760405163703e46dd60e11b815260040160405180910390fd5b61103a614830565b816001600160a01b03166352d1902d6040518163ffffffff1660e01b8152600401602060405180830381865afa92505050801561478d575060408051601f3d908101601f1916820190925261478a91810190615b5c565b60015b6147ac5781604051634c9c8ce360e01b8152600401612717919061561d565b600080516020615c7683398151915281146147dd57604051632a87526960e21b815260048101829052602401612717565b61206383836152f1565b306001600160a01b037f000000000000000000000000000000000000000000000000000000000000000016146117ef5760405163703e46dd60e11b815260040160405180910390fd5b33614839612965565b6001600160a01b0316146117ef573360405163118cdaa760e01b8152600401612717919061561d565b6001600160a01b03811660009081526010602052604090206001810154158061488f5750600381015460ff165b15614898575050565b60006148a383614486565b11156148ad575050565b60155481600201546148bf9190615ace565b42116148c9575050565b805460018201546001600160a01b038085166000908152600f60205260409020805460059091015491169060ff16801561490b57506001600160a01b03811615155b801561493157506001600160a01b0381166000908152600f602052604090206001015415155b15614963576001600160a01b0381166000908152600f6020526040812060010180549161495d83615c02565b91905055505b6001600160a01b0385166000908152600f6020526040812060058101805460ff199081169091556003808301849055600490920183905582875560018701839055600287019290925585018054909116905582156149ef5760008381526013602052604081206149d291615523565b6000838152601c6020526040902080546001600160a01b03191690555b846001600160a01b03167f57025f0027038907eda728b59164fb63d06048f42e618a35267e6a12e49b2e468484604051614a2a92919061587e565b60405180910390a25050505050565b6001600160a01b0383166000908152600f6020908152604080832060109092528220600582015460ff161580614a735750600381015460ff165b80614a8057506001810154155b15614a9057600092505050610d34565b600082600301548360040154614aa69190615b49565b90508581811115614ae657819050876001600160a01b0316600080516020615c968339815191528884604051614add92919061587e565b60405180910390a25b8015614bad5780846003016000828254614b009190615ace565b909155505060005460405163a9059cbb60e01b81526001600160a01b039091169063a9059cbb90614b37908b908590600401615865565b6020604051808303816000875af1158015614b56573d6000803e3d6000fd5b505050506040513d601f19601f82011682018060405250810190614b7a9190615b27565b50876001600160a01b0316600080516020615cd68339815191528288604051614ba4929190615b8b565b60405180910390a25b8360040154846003015410614bc557614bc588613ee3565b979650505050505050565b6001600160a01b038083166000908152600f6020908152604080832054815160608101835260058082529381018490529182019290925292169190805b6001600160a01b03841615801590614c255750600382105b8015614c315750601481105b15614d5a576001600160a01b0384166000908152600f602052604090206005015460ff16614c89576001600160a01b039384166000908152600f60205260409020549093169280614c8181615bba565b915050614c0d565b60006064848460038110614c9f57614c9f615b75565b6020020151614cae9088615ab7565b614cb89190615ae1565b90506000614cc886836003614a39565b90508015614d1a576001600160a01b03808916600081815260106020526040908190205490519192891691600080516020615c3683398151915291614d11918691600391615bd3565b60405180910390a35b6001600160a01b039586166000908152600f60205260409020549095169483614d4281615bba565b9450508280614d5090615bba565b9350505050614c0d565b600382101561445f576000825b6003811015614d9b57848160038110614d8257614d82615b75565b6020020151614d919083615ace565b9150600101614d67565b506000546002546001600160a01b039182169163a9059cbb91166064614dc1858b615ab7565b614dcb9190615ae1565b6040518363ffffffff1660e01b8152600401614de8929190615865565b6020604051808303816000875af1158015614e07573d6000803e3d6000fd5b505050506040513d601f19601f82011682018060405250810190614e2b9190615b27565b5050505050505050565b80600003614e405750565b6017541580614e4f5750601854155b15614e575750565b80601754614e659190615ace565b6000546040516370a0823160e01b81526001600160a01b03909116906370a0823190614e9590309060040161561d565b602060405180830381865afa158015614eb2573d6000803e3d6000fd5b505050506040513d601f19601f82011682018060405250810190614ed69190615b5c565b1015614edf5750565b6000614ef082601754601854610cbd565b9050801580614f00575060185481115b15614f09575050565b6018546001546040516370a0823160e01b81526001600160a01b03909116906370a0823190614f3c90309060040161561d565b602060405180830381865afa158015614f59573d6000803e3d6000fd5b505050506040513d601f19601f82011682018060405250810190614f7d9190615b5c565b1015614f87575050565b8160176000828254614f999190615ace565b925050819055508060186000828254614fb29190615b49565b9091555050600154604051630852cd8d60e31b8152600481018390526001600160a01b03909116906342966c6890602401600060405180830381600087803b158015614ffd57600080fd5b505af1158015615011573d6000803e3d6000fd5b50505050600080516020615cb68339815191528282604051612b1892919061587e565b600061503e615090565b80546001600160a01b038481166001600160a01b031983168117845560405193945091169182907f8be0079c531659141344cd1fd0a4f28419497f9722a3daafe3b4186f6b6457e090600090a3505050565b7f9016d09d72d40fdae2fd8ceac6b6234c7706214fd39c1cd1e609a0528c19930090565b6000818152601e6020908152604080832054601d835281842080548351818602810186019094528084526001600160a01b039092169493909190849084015b8282101561513b576000848152602090819020604080518082019091526002850290910180546001600160a01b031682526001908101548284015290835290920191016150f3565b50505050905060005b815181101561526357600061519583838151811061516457615164615b75565b60200260200101516000015184848151811061518257615182615b75565b6020026020010151602001516004614a39565b905080156151f957836001600160a01b03168383815181106151b9576151b9615b75565b6020026020010151600001516001600160a01b0316600080516020615c36833981519152836004896040516151f093929190615bd3565b60405180910390a35b82828151811061520b5761520b615b75565b6020026020010151600001516001600160a01b0316857fae629b396150638d6eb6de457cbffe5d618a10c8cc199a94976bed2b16ecd9938360405161525291815260200190565b60405180910390a350600101615144565b506000838152601d6020526040812061206391615523565b6000807ff0c57e16840df040f15088dc2f81fe391c3923bec73e23a9662efc9c229c6a00614480565b6152ac615347565b61103a8161536c565b6152bd615347565b6117ef615374565b6117ef615347565b7f9b779b17422d0df92223018b32b4d1fa46e071723d6817e2486d003becc55f0090565b6152fa8261537c565b6040516001600160a01b038316907fbc7cd75a20ee27fd9adebab32041f755214dbc6bffa90cc0225b39da2e5c2d3b90600090a280511561533f5761206382826153d8565b611c9c61544e565b61534f61546d565b6117ef57604051631afcd79f60e31b815260040160405180910390fd5b613e69615347565b613ed2615347565b806001600160a01b03163b6000036153a95780604051634c9c8ce360e01b8152600401612717919061561d565b600080516020615c7683398151915280546001600160a01b0319166001600160a01b0392909216919091179055565b6060600080846001600160a01b0316846040516153f59190615c19565b600060405180830381855af49150503d8060008114615430576040519150601f19603f3d011682016040523d82523d6000602084013e615435565b606091505b5091509150615445858383615487565b95945050505050565b34156117ef5760405163b398979f60e01b815260040160405180910390fd5b600061547761527b565b54600160401b900460ff16919050565b60608261549c57615497826154da565b610d34565b81511580156154b357506001600160a01b0384163b155b156154d35783604051639996b31560e01b8152600401612717919061561d565b5080610d34565b8051156154e957805160208201fd5b60405163d6bda27560e01b815260040160405180910390fd5b508054600082556003029060005260206000209081019061103a9190615544565b508054600082556002029060005260206000209081019061103a919061556a565b5b80821115615566576000808255600182018190556002820155600301615545565b5090565b5b808211156155665780546001600160a01b03191681556000600182015560020161556b565b80356001600160a01b03811681146155a757600080fd5b919050565b6000602082840312156155be57600080fd5b610d3482615590565b6000806000606084860312156155dc57600080fd5b505081359360208301359350604090920135919050565b6000806040838503121561560657600080fd5b61560f83615590565b946020939093013593505050565b6001600160a01b0391909116815260200190565b60006020828403121561564357600080fd5b5035919050565b602080825282518282018190526000919060409081850190868401855b8281101561569f57815180516001600160a01b0316855286810151878601528501518585015260609093019290850190600101615667565b5091979650505050505050565b9283526020830191909152604082015260600190565b600080604083850312156156d557600080fd5b50508035926020909101359150565b634e487b7160e01b600052604160045260246000fd5b604051606081016001600160401b038111828210171561571c5761571c6156e4565b60405290565b604051601f8201601f191681016001600160401b038111828210171561574a5761574a6156e4565b604052919050565b6000806040838503121561576557600080fd5b61576e83615590565b91506020838101356001600160401b038082111561578b57600080fd5b818601915086601f83011261579f57600080fd5b8135818111156157b1576157b16156e4565b6157c3601f8201601f19168501615722565b915080825287848285010111156157d957600080fd5b80848401858401376000848284010152508093505050509250929050565b6000806040838503121561580a57600080fd5b8235915061581a60208401615590565b90509250929050565b600080600080600060a0868803121561583b57600080fd5b61584486615590565b97602087013597506040870135966060810135965060800135945092505050565b6001600160a01b03929092168252602082015260400190565b918252602082015260400190565b6000806040838503121561589f57600080fd5b6158a883615590565b915061581a60208401615590565b60005b838110156158d15781810151838201526020016158b9565b50506000910152565b60208152600082518060208401526158f98160408501602087016158b6565b601f01601f19169190910160400192915050565b6000602080838503121561592057600080fd5b82356001600160401b038082111561593757600080fd5b818501915085601f83011261594b57600080fd5b81358181111561595d5761595d6156e4565b61596b848260051b01615722565b8181528481019250606091820284018501918883111561598a57600080fd5b938501935b828510156159d45780858a0312156159a75760008081fd5b6159af6156fa565b853581528686013587820152604080870135908201528452938401939285019261598f565b50979650505050505050565b60008060008060008060c087890312156159f957600080fd5b615a0287615590565b9550615a1060208801615590565b9450615a1e60408801615590565b9350615a2c60608801615590565b9250615a3a60808801615590565b9150615a4860a08801615590565b90509295509295509295565b6020808252825182820181905260009190848201906040850190845b81811015615a955783516001600160a01b031683529284019291840191600101615a70565b50909695505050505050565b634e487b7160e01b600052601160045260246000fd5b808202811582820484141761448057614480615aa1565b8082018082111561448057614480615aa1565b600082615afe57634e487b7160e01b600052601260045260246000fd5b500490565b6001600160a01b039384168152919092166020820152604081019190915260600190565b600060208284031215615b3957600080fd5b81518015158114610d3457600080fd5b8181038181111561448057614480615aa1565b600060208284031215615b6e57600080fd5b5051919050565b634e487b7160e01b600052603260045260246000fd5b91825260ff16602082015260400190565b938452602084019290925260ff166040830152606082015260800190565b600060018201615bcc57615bcc615aa1565b5060010190565b92835260ff919091166020830152604082015260600190565b634e487b7160e01b600052603160045260246000fd5b600081615c1157615c11615aa1565b506000190190565b60008251615c2b8184602087016158b6565b919091019291505056fe9b3cc71482a1b2eebe764a739f46f1fe99291fd0183be81951532b29d0c9c8da6fcebd0a2ce98b28cb391d6008bbc769378c9a4919628e11639cb575cd320fcc360894a13ba1a3210667c828492db98dca3e2076cc3735a920a3ca505d382bbcb5987aab1afd379f6695f1068869ee8ca6a0d02304c57935a9cc3d3ea2e51e4d0ec3929061cbbbeecb325623e7d5a86c3dae11cb8a22ca45dc0972955657da25f381583145e90b82cc5e529bf4fc4d0e44397174cdf145c4251ac33ef195a424f3a670cd3af7d64b488926880889d08a8585a138ff455227af6737339a1ec262a2646970667358221220323e52e2df91789195d18c839cb957e0bf3b2c679a68e425c0230d094702efa264736f6c63430008160033",
  "linkReferences": {},
  "deployedLinkReferences": {}
}