{
  "_format": "hh-sol-artifact-1",
  "contractName": "JinbaoProtocol",
  "sourceName": "contracts/JinbaoProtocol.sol",
  "abi": [
    {
      "inputs": [
        {
          "internalType": "address",
          "name": "_mcToken",
          "type": "address"
        },
        {
          "internalType": "address",
          "name": "_jbcToken",
          "type": "address"
        },
        {
          "internalType": "address",
          "name": "_marketing",
          "type": "address"
        },
        {
          "internalType": "address",
          "name": "_treasury",
          "type": "address"
        },
        {
          "internalType": "address",
          "name": "_lpInjection",
          "type": "address"
        },
        {
          "internalType": "address",
          "name": "_buyback",
          "type": "address"
        }
      ],
      "stateMutability": "nonpayable",
      "type": "constructor"
    },
    {
      "inputs": [
        {
          "internalType": "address",
          "name": "owner",
          "type": "address"
        }
      ],
      "name": "OwnableInvalidOwner",
      "type": "error"
    },
    {
      "inputs": [
        {
          "internalType": "address",
          "name": "account",
          "type": "address"
        }
      ],
      "name": "OwnableUnauthorizedAccount",
      "type": "error"
    },
    {
      "inputs": [],
      "name": "ReentrancyGuardReentrantCall",
      "type": "error"
    },
    {
      "anonymous": false,
      "inputs": [
        {
          "indexed": true,
          "internalType": "address",
          "name": "user",
          "type": "address"
        },
        {
          "indexed": true,
          "internalType": "address",
          "name": "referrer",
          "type": "address"
        }
      ],
      "name": "BoundReferrer",
      "type": "event"
    },
    {
      "anonymous": false,
      "inputs": [
        {
          "indexed": true,
          "internalType": "address",
          "name": "user",
          "type": "address"
        },
        {
          "indexed": false,
          "internalType": "uint256",
          "name": "amount",
          "type": "uint256"
        },
        {
          "indexed": false,
          "internalType": "uint256",
          "name": "cycleDays",
          "type": "uint256"
        }
      ],
      "name": "LiquidityStaked",
      "type": "event"
    },
    {
      "anonymous": false,
      "inputs": [
        {
          "indexed": true,
          "internalType": "address",
          "name": "previousOwner",
          "type": "address"
        },
        {
          "indexed": true,
          "internalType": "address",
          "name": "newOwner",
          "type": "address"
        }
      ],
      "name": "OwnershipTransferred",
      "type": "event"
    },
    {
      "anonymous": false,
      "inputs": [
        {
          "indexed": true,
          "internalType": "address",
          "name": "user",
          "type": "address"
        },
        {
          "indexed": false,
          "internalType": "uint256",
          "name": "principal",
          "type": "uint256"
        },
        {
          "indexed": false,
          "internalType": "uint256",
          "name": "fee",
          "type": "uint256"
        }
      ],
      "name": "Redeemed",
      "type": "event"
    },
    {
      "anonymous": false,
      "inputs": [
        {
          "indexed": true,
          "internalType": "address",
          "name": "user",
          "type": "address"
        },
        {
          "indexed": false,
          "internalType": "uint256",
          "name": "mcAmount",
          "type": "uint256"
        },
        {
          "indexed": false,
          "internalType": "uint256",
          "name": "jbcAmount",
          "type": "uint256"
        }
      ],
      "name": "RewardClaimed",
      "type": "event"
    },
    {
      "anonymous": false,
      "inputs": [
        {
          "indexed": true,
          "internalType": "address",
          "name": "user",
          "type": "address"
        },
        {
          "indexed": false,
          "internalType": "uint256",
          "name": "jbcAmount",
          "type": "uint256"
        },
        {
          "indexed": false,
          "internalType": "uint256",
          "name": "mcAmount",
          "type": "uint256"
        },
        {
          "indexed": false,
          "internalType": "uint256",
          "name": "tax",
          "type": "uint256"
        }
      ],
      "name": "SwappedJBCToMC",
      "type": "event"
    },
    {
      "anonymous": false,
      "inputs": [
        {
          "indexed": true,
          "internalType": "address",
          "name": "user",
          "type": "address"
        },
        {
          "indexed": false,
          "internalType": "uint256",
          "name": "mcAmount",
          "type": "uint256"
        },
        {
          "indexed": false,
          "internalType": "uint256",
          "name": "jbcAmount",
          "type": "uint256"
        },
        {
          "indexed": false,
          "internalType": "uint256",
          "name": "tax",
          "type": "uint256"
        }
      ],
      "name": "SwappedMCToJBC",
      "type": "event"
    },
    {
      "anonymous": false,
      "inputs": [
        {
          "indexed": true,
          "internalType": "address",
          "name": "user",
          "type": "address"
        },
        {
          "indexed": false,
          "internalType": "uint256",
          "name": "amount",
          "type": "uint256"
        }
      ],
      "name": "TicketPurchased",
      "type": "event"
    },
    {
      "inputs": [],
      "name": "SECONDS_IN_DAY",
      "outputs": [
        {
          "internalType": "uint256",
          "name": "",
          "type": "uint256"
        }
      ],
      "stateMutability": "view",
      "type": "function"
    },
    {
      "inputs": [
        {
          "internalType": "address",
          "name": "user",
          "type": "address"
        },
        {
          "internalType": "address",
          "name": "newReferrer",
          "type": "address"
        }
      ],
      "name": "adminSetReferrer",
      "outputs": [],
      "stateMutability": "nonpayable",
      "type": "function"
    },
    {
      "inputs": [
        {
          "internalType": "address",
          "name": "user",
          "type": "address"
        },
        {
          "internalType": "uint256",
          "name": "_activeDirects",
          "type": "uint256"
        },
        {
          "internalType": "uint256",
          "name": "_teamCount",
          "type": "uint256"
        }
      ],
      "name": "adminSetUserStats",
      "outputs": [],
      "stateMutability": "nonpayable",
      "type": "function"
    },
    {
      "inputs": [
        {
          "internalType": "address",
          "name": "_referrer",
          "type": "address"
        }
      ],
      "name": "bindReferrer",
      "outputs": [],
      "stateMutability": "nonpayable",
      "type": "function"
    },
    {
      "inputs": [
        {
          "internalType": "uint256",
          "name": "amount",
          "type": "uint256"
        }
      ],
      "name": "buyTicket",
      "outputs": [],
      "stateMutability": "nonpayable",
      "type": "function"
    },
    {
      "inputs": [],
      "name": "buybackPercent",
      "outputs": [
        {
          "internalType": "uint256",
          "name": "",
          "type": "uint256"
        }
      ],
      "stateMutability": "view",
      "type": "function"
    },
    {
      "inputs": [],
      "name": "buybackWallet",
      "outputs": [
        {
          "internalType": "address",
          "name": "",
          "type": "address"
        }
      ],
      "stateMutability": "view",
      "type": "function"
    },
    {
      "inputs": [],
      "name": "claimRewards",
      "outputs": [],
      "stateMutability": "nonpayable",
      "type": "function"
    },
    {
      "inputs": [
        {
          "internalType": "address",
          "name": "",
          "type": "address"
        },
        {
          "internalType": "uint256",
          "name": "",
          "type": "uint256"
        }
      ],
      "name": "directReferrals",
      "outputs": [
        {
          "internalType": "address",
          "name": "",
          "type": "address"
        }
      ],
      "stateMutability": "view",
      "type": "function"
    },
    {
      "inputs": [],
      "name": "directRewardPercent",
      "outputs": [
        {
          "internalType": "uint256",
          "name": "",
          "type": "uint256"
        }
      ],
      "stateMutability": "view",
      "type": "function"
    },
    {
      "inputs": [
        {
          "internalType": "uint256",
          "name": "amountIn",
          "type": "uint256"
        },
        {
          "internalType": "uint256",
          "name": "reserveIn",
          "type": "uint256"
        },
        {
          "internalType": "uint256",
          "name": "reserveOut",
          "type": "uint256"
        }
      ],
      "name": "getAmountOut",
      "outputs": [
        {
          "internalType": "uint256",
          "name": "",
          "type": "uint256"
        }
      ],
      "stateMutability": "pure",
      "type": "function"
    },
    {
      "inputs": [
        {
          "internalType": "address",
          "name": "_user",
          "type": "address"
        }
      ],
      "name": "getDirectReferrals",
      "outputs": [
        {
          "internalType": "address[]",
          "name": "",
          "type": "address[]"
        }
      ],
      "stateMutability": "view",
      "type": "function"
    },
    {
      "inputs": [
        {
          "internalType": "address",
          "name": "_user",
          "type": "address"
        }
      ],
      "name": "getDirectReferralsData",
      "outputs": [
        {
          "components": [
            {
              "internalType": "address",
              "name": "user",
              "type": "address"
            },
            {
              "internalType": "uint256",
              "name": "ticketAmount",
              "type": "uint256"
            },
            {
              "internalType": "uint256",
              "name": "joinTime",
              "type": "uint256"
            }
          ],
          "internalType": "struct JinbaoProtocol.ReferralData[]",
          "name": "",
          "type": "tuple[]"
        }
      ],
      "stateMutability": "view",
      "type": "function"
    },
    {
      "inputs": [],
      "name": "getJBCPrice",
      "outputs": [
        {
          "internalType": "uint256",
          "name": "",
          "type": "uint256"
        }
      ],
      "stateMutability": "view",
      "type": "function"
    },
    {
      "inputs": [],
      "name": "jbcToken",
      "outputs": [
        {
          "internalType": "contract IJBC",
          "name": "",
          "type": "address"
        }
      ],
      "stateMutability": "view",
      "type": "function"
    },
    {
      "inputs": [],
      "name": "levelRewardPercent",
      "outputs": [
        {
          "internalType": "uint256",
          "name": "",
          "type": "uint256"
        }
      ],
      "stateMutability": "view",
      "type": "function"
    },
    {
      "inputs": [],
      "name": "lpInjectionPercent",
      "outputs": [
        {
          "internalType": "uint256",
          "name": "",
          "type": "uint256"
        }
      ],
      "stateMutability": "view",
      "type": "function"
    },
    {
      "inputs": [],
      "name": "lpInjectionWallet",
      "outputs": [
        {
          "internalType": "address",
          "name": "",
          "type": "address"
        }
      ],
      "stateMutability": "view",
      "type": "function"
    },
    {
      "inputs": [],
      "name": "marketingPercent",
      "outputs": [
        {
          "internalType": "uint256",
          "name": "",
          "type": "uint256"
        }
      ],
      "stateMutability": "view",
      "type": "function"
    },
    {
      "inputs": [],
      "name": "marketingWallet",
      "outputs": [
        {
          "internalType": "address",
          "name": "",
          "type": "address"
        }
      ],
      "stateMutability": "view",
      "type": "function"
    },
    {
      "inputs": [],
      "name": "mcToken",
      "outputs": [
        {
          "internalType": "contract IERC20",
          "name": "",
          "type": "address"
        }
      ],
      "stateMutability": "view",
      "type": "function"
    },
    {
      "inputs": [],
      "name": "owner",
      "outputs": [
        {
          "internalType": "address",
          "name": "",
          "type": "address"
        }
      ],
      "stateMutability": "view",
      "type": "function"
    },
    {
      "inputs": [],
      "name": "redeem",
      "outputs": [],
      "stateMutability": "nonpayable",
      "type": "function"
    },
    {
      "inputs": [],
      "name": "redemptionFeePercent",
      "outputs": [
        {
          "internalType": "uint256",
          "name": "",
          "type": "uint256"
        }
      ],
      "stateMutability": "view",
      "type": "function"
    },
    {
      "inputs": [],
      "name": "renounceOwnership",
      "outputs": [],
      "stateMutability": "nonpayable",
      "type": "function"
    },
    {
      "inputs": [
        {
          "internalType": "uint256",
          "name": "_direct",
          "type": "uint256"
        },
        {
          "internalType": "uint256",
          "name": "_level",
          "type": "uint256"
        },
        {
          "internalType": "uint256",
          "name": "_marketing",
          "type": "uint256"
        },
        {
          "internalType": "uint256",
          "name": "_buyback",
          "type": "uint256"
        },
        {
          "internalType": "uint256",
          "name": "_lpInjection",
          "type": "uint256"
        },
        {
          "internalType": "uint256",
          "name": "_treasury",
          "type": "uint256"
        }
      ],
      "name": "setDistributionPercents",
      "outputs": [],
      "stateMutability": "nonpayable",
      "type": "function"
    },
    {
      "inputs": [
        {
          "internalType": "uint256",
          "name": "_fee",
          "type": "uint256"
        }
      ],
      "name": "setRedemptionFee",
      "outputs": [],
      "stateMutability": "nonpayable",
      "type": "function"
    },
    {
      "inputs": [
        {
          "internalType": "uint256",
          "name": "_buyTax",
          "type": "uint256"
        },
        {
          "internalType": "uint256",
          "name": "_sellTax",
          "type": "uint256"
        }
      ],
      "name": "setSwapTaxes",
      "outputs": [],
      "stateMutability": "nonpayable",
      "type": "function"
    },
    {
      "inputs": [
        {
          "internalType": "address",
          "name": "_marketing",
          "type": "address"
        },
        {
          "internalType": "address",
          "name": "_treasury",
          "type": "address"
        },
        {
          "internalType": "address",
          "name": "_lpInjection",
          "type": "address"
        },
        {
          "internalType": "address",
          "name": "_buyback",
          "type": "address"
        }
      ],
      "name": "setWallets",
      "outputs": [],
      "stateMutability": "nonpayable",
      "type": "function"
    },
    {
      "inputs": [
        {
          "internalType": "uint256",
          "name": "cycleDays",
          "type": "uint256"
        }
      ],
      "name": "stakeLiquidity",
      "outputs": [],
      "stateMutability": "nonpayable",
      "type": "function"
    },
    {
      "inputs": [],
      "name": "swapBuyTax",
      "outputs": [
        {
          "internalType": "uint256",
          "name": "",
          "type": "uint256"
        }
      ],
      "stateMutability": "view",
      "type": "function"
    },
    {
      "inputs": [
        {
          "internalType": "uint256",
          "name": "jbcAmount",
          "type": "uint256"
        }
      ],
      "name": "swapJBCToMC",
      "outputs": [],
      "stateMutability": "nonpayable",
      "type": "function"
    },
    {
      "inputs": [
        {
          "internalType": "uint256",
          "name": "mcAmount",
          "type": "uint256"
        }
      ],
      "name": "swapMCToJBC",
      "outputs": [],
      "stateMutability": "nonpayable",
      "type": "function"
    },
    {
      "inputs": [],
      "name": "swapSellTax",
      "outputs": [
        {
          "internalType": "uint256",
          "name": "",
          "type": "uint256"
        }
      ],
      "stateMutability": "view",
      "type": "function"
    },
    {
      "inputs": [
        {
          "internalType": "address",
          "name": "newOwner",
          "type": "address"
        }
      ],
      "name": "transferOwnership",
      "outputs": [],
      "stateMutability": "nonpayable",
      "type": "function"
    },
    {
      "inputs": [],
      "name": "treasuryPercent",
      "outputs": [
        {
          "internalType": "uint256",
          "name": "",
          "type": "uint256"
        }
      ],
      "stateMutability": "view",
      "type": "function"
    },
    {
      "inputs": [],
      "name": "treasuryWallet",
      "outputs": [
        {
          "internalType": "address",
          "name": "",
          "type": "address"
        }
      ],
      "stateMutability": "view",
      "type": "function"
    },
    {
      "inputs": [
        {
          "internalType": "address",
          "name": "",
          "type": "address"
        }
      ],
      "name": "userInfo",
      "outputs": [
        {
          "internalType": "address",
          "name": "referrer",
          "type": "address"
        },
        {
          "internalType": "uint256",
          "name": "activeDirects",
          "type": "uint256"
        },
        {
          "internalType": "uint256",
          "name": "teamCount",
          "type": "uint256"
        },
        {
          "internalType": "uint256",
          "name": "totalRevenue",
          "type": "uint256"
        },
        {
          "internalType": "uint256",
          "name": "currentCap",
          "type": "uint256"
        },
        {
          "internalType": "bool",
          "name": "isActive",
          "type": "bool"
        }
      ],
      "stateMutability": "view",
      "type": "function"
    },
    {
      "inputs": [
        {
          "internalType": "address",
          "name": "",
          "type": "address"
        }
      ],
      "name": "userTicket",
      "outputs": [
        {
          "internalType": "uint256",
          "name": "amount",
          "type": "uint256"
        },
        {
          "internalType": "uint256",
          "name": "requiredLiquidity",
          "type": "uint256"
        },
        {
          "internalType": "uint256",
          "name": "purchaseTime",
          "type": "uint256"
        },
        {
          "internalType": "bool",
          "name": "liquidityProvided",
          "type": "bool"
        },
        {
          "internalType": "uint256",
          "name": "liquidityAmount",
          "type": "uint256"
        },
        {
          "internalType": "uint256",
          "name": "startTime",
          "type": "uint256"
        },
        {
          "internalType": "uint256",
          "name": "cycleDays",
          "type": "uint256"
        },
        {
          "internalType": "bool",
          "name": "redeemed",
          "type": "bool"
        }
      ],
      "stateMutability": "view",
      "type": "function"
    }
  ],
  "bytecode": "0x608060405260016008556019600955600f600a556005600b556005600c556019600d556019600e556032600f5560196010553480156200003e57600080fd5b5060405162002e6738038062002e67833981016040819052620000619162000178565b33806200008857604051631e4fbdf760e01b81526000600482015260240160405180910390fd5b62000093816200010b565b5060018055600280546001600160a01b03199081166001600160a01b0398891617909155600380548216968816969096179095556004805486169487169490941790935560058054851692861692909217909155600680548416918516919091179055600780549092169216919091179055620001f9565b600080546001600160a01b038381166001600160a01b0319831681178455604051919092169283917f8be0079c531659141344cd1fd0a4f28419497f9722a3daafe3b4186f6b6457e09190a35050565b80516001600160a01b03811681146200017357600080fd5b919050565b60008060008060008060c087890312156200019257600080fd5b6200019d876200015b565b9550620001ad602088016200015b565b9450620001bd604088016200015b565b9350620001cd606088016200015b565b9250620001dd608088016200015b565b9150620001ed60a088016200015b565b90509295509295509295565b612c5e80620002096000396000f3fe608060405234801561001057600080fd5b506004361061023d5760003560e01c80637dbc1df01161013b578063be040fb0116100b8578063deab8aea1161007c578063deab8aea1461058a578063dec7fa3b1461059d578063e4412f68146105a6578063ecda2d32146105af578063f2fde38b146105c257600080fd5b8063be040fb014610547578063ccf619441461054f578063ceaa366d14610558578063d2c8e0e514610561578063d8020a181461058157600080fd5b806390b0eb51116100ff57806390b0eb51146104fc5780639370b0801461050f5780639525399214610518578063a2af92261461052b578063bd594dcf1461053e57600080fd5b80637dbc1df01461041d57806383672f3e146104305780638710bcaa1461044357806388fd4d33146104d85780638da5cb5b146104eb57600080fd5b806335076373116101c957806361a52a361161018d57806361a52a36146103d257806367dd74ca146103dc5780636fb3c47c146103ef578063715018a61461040257806375f0a8741461040a57600080fd5b80633507637314610389578063372500ab1461039c5780633a3ea2f0146103a45780634626402b146103ac57806352778b05146103bf57600080fd5b80630a5c4567116102105780630a5c4567146102b15780630fc4fc1a146102c45780631788513c146102e45780631959a002146102f757806327f082f41461038057600080fd5b806304ef9d581461024257806304f618cb1461025e578063054d50d41461027357806305ad393514610286575b600080fd5b61024b600e5481565b6040519081526020015b60405180910390f35b61027161026c36600461287b565b6105d5565b005b61024b61028136600461289d565b610742565b6102996102943660046128c9565b610818565b6040516001600160a01b039091168152602001610255565b6102716102bf3660046128f3565b610850565b6102d76102d236600461287b565b610c21565b604051610255919061290c565b600354610299906001600160a01b031681565b61034761030536600461287b565b6011602052600090815260409020805460018201546002830154600384015460048501546005909501546001600160a01b039094169492939192909160ff1686565b604080516001600160a01b03909716875260208701959095529385019290925260608401526080830152151560a082015260c001610255565b61024b600f5481565b6102716103973660046128f3565b610e11565b610271611094565b61024b61158f565b600554610299906001600160a01b031681565b6102716103cd3660046128f3565b6116a9565b61024b6201518081565b6102716103ea3660046128f3565b611a64565b6102716103fd36600461296e565b61214e565b61027161217d565b600454610299906001600160a01b031681565b61027161042b3660046128f3565b61218f565b61027161043e3660046129a1565b61219c565b61049b61045136600461287b565b6012602052600090815260409020805460018201546002830154600384015460048501546005860154600687015460079097015495969495939460ff938416949293919290911688565b604080519889526020890197909752958701949094529115156060860152608085015260a084015260c0830152151560e082015261010001610255565b600654610299906001600160a01b031681565b6000546001600160a01b0316610299565b61027161050a3660046129f5565b6121f4565b61024b60105481565b600254610299906001600160a01b031681565b610271610539366004612a17565b612207565b61024b600a5481565b61027161240d565b61024b60095481565b61024b600d5481565b61057461056f36600461287b565b612669565b6040516102559190612a4a565b61024b600b5481565b600754610299906001600160a01b031681565b61024b60085481565b61024b600c5481565b6102716105bd366004612a97565b6126df565b6102716105d036600461287b565b61277d565b336000908152601160205260409020546001600160a01b0316156106305760405162461bcd60e51b815260206004820152600d60248201526c105b1c9958591e48189bdd5b99609a1b60448201526064015b60405180910390fd5b336001600160a01b0382160361067b5760405162461bcd60e51b815260206004820152601060248201526f21b0b73737ba103134b7321039b2b63360811b6044820152606401610627565b6001600160a01b0381166106c45760405162461bcd60e51b815260206004820152601060248201526f24b73b30b634b2103932b332b93932b960811b6044820152606401610627565b33600081815260116020908152604080832080546001600160a01b0387166001600160a01b0319918216811790925581855260138452828520805460018101825590865293852090930180549093168517909255519092917fa6dbb5aa28f35437de94d685d66edce5fb4812196b4984b91dfd5a7b38c0fb3091a350565b60008084116107935760405162461bcd60e51b815260206004820152601960248201527f496e73756666696369656e7420696e70757420616d6f756e74000000000000006044820152606401610627565b6000831180156107a35750600082115b6107e85760405162461bcd60e51b8152602060048201526016602482015275496e73756666696369656e74206c697175696469747960501b6044820152606401610627565b60006107f48386612af0565b905060006108028686612b0d565b905061080e8183612b20565b9695505050505050565b6013602052816000526040600020818154811061083457600080fd5b6000918252602090912001546001600160a01b03169150829050565b6108586127b8565b600081116108995760405162461bcd60e51b815260206004820152600e60248201526d125b9d985b1a5908185b5bdd5b9d60921b6044820152606401610627565b6002546040516323b872dd60e01b81526001600160a01b03909116906323b872dd906108cd90339030908690600401612b42565b6020604051808303816000875af11580156108ec573d6000803e3d6000fd5b505050506040513d601f19601f820116820180604052508101906109109190612b66565b506002546040516370a0823160e01b815230600482015260009183916001600160a01b03909116906370a0823190602401602060405180830381865afa15801561095e573d6000803e3d6000fd5b505050506040513d601f19601f820116820180604052508101906109829190612b88565b61098c9190612ba1565b6003546040516370a0823160e01b81523060048201529192506000916001600160a01b03909116906370a0823190602401602060405180830381865afa1580156109da573d6000803e3d6000fd5b505050506040513d601f19601f820116820180604052508101906109fe9190612b88565b90506000610a0d848484610742565b905060006064600f5483610a219190612af0565b610a2b9190612b20565b90506000610a398284612ba1565b6003546040516370a0823160e01b815230600482015291925084916001600160a01b03909116906370a0823190602401602060405180830381865afa158015610a86573d6000803e3d6000fd5b505050506040513d601f19601f82011682018060405250810190610aaa9190612b88565b1015610af85760405162461bcd60e51b815260206004820152601a60248201527f496e73756666696369656e74204a4243206c69717569646974790000000000006044820152606401610627565b600354604051630852cd8d60e31b8152600481018490526001600160a01b03909116906342966c6890602401600060405180830381600087803b158015610b3e57600080fd5b505af1158015610b52573d6000803e3d6000fd5b505060035460405163a9059cbb60e01b81526001600160a01b03909116925063a9059cbb9150610b889033908590600401612bb4565b6020604051808303816000875af1158015610ba7573d6000803e3d6000fd5b505050506040513d601f19601f82011682018060405250810190610bcb9190612b66565b50604080518781526020810183905290810183905233907f36864aeefce16bc4aaceeb6b0cdfb2ad1455a8cb4ccb0db148a2bc6e7166f97c906060015b60405180910390a25050505050610c1e60018055565b50565b6001600160a01b0381166000908152601360209081526040808320805482518185028101850190935280835260609493830182828015610c8a57602002820191906000526020600020905b81546001600160a01b03168152600190910190602001808311610c6c575b505050505090506000815167ffffffffffffffff811115610cad57610cad612bcd565b604051908082528060200260200182016040528015610d0b57816020015b610cf8604051806060016040528060006001600160a01b0316815260200160008152602001600081525090565b815260200190600190039081610ccb5790505b50905060005b8251811015610e09576040518060600160405280848381518110610d3757610d37612be3565b60200260200101516001600160a01b0316815260200160126000868581518110610d6357610d63612be3565b60200260200101516001600160a01b03166001600160a01b0316815260200190815260200160002060000154815260200160126000868581518110610daa57610daa612be3565b60200260200101516001600160a01b03166001600160a01b0316815260200190815260200160002060020154815250828281518110610deb57610deb612be3565b60200260200101819052508080610e0190612bf9565b915050610d11565b509392505050565b610e196127b8565b336000908152601260205260409020805415801590610e3d5750600381015460ff16155b610e7b5760405162461bcd60e51b815260206004820152600f60248201526e139bc81d985b1a59081d1a58dad95d608a1b6044820152606401610627565b6002810154610e8d906203f480612b0d565b421115610ecd5760405162461bcd60e51b815260206004820152600e60248201526d151a58dad95d08195e1c1a5c995960921b6044820152606401610627565b8160071480610edc575081600f145b80610ee7575081601e145b610f235760405162461bcd60e51b815260206004820152600d60248201526c496e76616c6964206379636c6560981b6044820152606401610627565b60018101546002546040516323b872dd60e01b81526001600160a01b03909116906323b872dd90610f5c90339030908690600401612b42565b6020604051808303816000875af1158015610f7b573d6000803e3d6000fd5b505050506040513d601f19601f82011682018060405250810190610f9f9190612b66565b5060038201805460ff191660011790556004820181905542600583015560068201839055336000908152601160205260409020546001600160a01b03168015801590610ffe57503360009081526011602052604090206005015460ff16155b1561104d576001600160a01b038116600090815260116020526040812060010180549161102a83612bf9565b9091555050336000908152601160205260409020600501805460ff191660011790555b604080518381526020810186905233917f1e54d7530dad81af38adb8ca9db02add3130668375f37be85396403616fc3d49910160405180910390a2505050610c1e60018055565b61109c6127b8565b336000908152601260205260409020600381015460ff1680156110c45750600781015460ff16155b6110fd5760405162461bcd60e51b815260206004820152600a6024820152694e6f742061637469766560b01b6044820152606401610627565b6000816006015460070361111357506014611137565b8160060154600f0361112757506019611137565b8160060154601e036111375750601e5b60006201518083600501544261114d9190612ba1565b6111579190612b20565b90506000811161119a5760405162461bcd60e51b815260206004820152600e60248201526d139bc81c995dd85c991cc81e595d60921b6044820152606401610627565b82600601548111156111ad575060068201545b60006103e8828486600001546111c39190612af0565b6111cd9190612af0565b6111d79190612b20565b336000908152601160205260409020600481015460039091015491925090611200908390612b0d565b111561122d57336000908152601160205260409020600381015460049091015461122a9190612ba1565b90505b600081116112735760405162461bcd60e51b81526020600482015260136024820152724e6f207265776172647320746f20636c61696d60681b6044820152606401610627565b3360009081526011602052604081206003018054839290611295908490612b0d565b90915550600090506112a8600283612b20565b905060006112b7600284612b20565b6002546040516370a0823160e01b815230600482015291925083916001600160a01b03909116906370a0823190602401602060405180830381865afa158015611304573d6000803e3d6000fd5b505050506040513d601f19601f820116820180604052508101906113289190612b88565b10156113765760405162461bcd60e51b815260206004820152601760248201527f496e73756666696369656e74204d4320696e20706f6f6c0000000000000000006044820152606401610627565b60025460405163a9059cbb60e01b81526001600160a01b039091169063a9059cbb906113a89033908690600401612bb4565b6020604051808303816000875af11580156113c7573d6000803e3d6000fd5b505050506040513d601f19601f820116820180604052508101906113eb9190612b66565b50670de0b6b3a76400006000816114028482612af0565b61140c9190612b20565b6003546040516370a0823160e01b815230600482015291925082916001600160a01b03909116906370a0823190602401602060405180830381865afa158015611459573d6000803e3d6000fd5b505050506040513d601f19601f8201168201806040525081019061147d9190612b88565b10156114cb5760405162461bcd60e51b815260206004820152601860248201527f496e73756666696369656e74204a424320696e20706f6f6c00000000000000006044820152606401610627565b60035460405163a9059cbb60e01b81526001600160a01b039091169063a9059cbb906114fd9033908590600401612bb4565b6020604051808303816000875af115801561151c573d6000803e3d6000fd5b505050506040513d601f19601f820116820180604052508101906115409190612b66565b50604080518581526020810183905233917ff01da32686223933d8a18a391060918c7f11a3648639edd87ae013e2e2731743910160405180910390a2505050505050505061158d60018055565b565b6002546040516370a0823160e01b815230600482015260009182916001600160a01b03909116906370a0823190602401602060405180830381865afa1580156115dc573d6000803e3d6000fd5b505050506040513d601f19601f820116820180604052508101906116009190612b88565b6003546040516370a0823160e01b81523060048201529192506000916001600160a01b03909116906370a0823190602401602060405180830381865afa15801561164e573d6000803e3d6000fd5b505050506040513d601f19601f820116820180604052508101906116729190612b88565b9050806000036116855760009250505090565b8061169883670de0b6b3a7640000612af0565b6116a29190612b20565b9250505090565b6116b16127b8565b600081116116f25760405162461bcd60e51b815260206004820152600e60248201526d125b9d985b1a5908185b5bdd5b9d60921b6044820152606401610627565b6003546040516323b872dd60e01b81526001600160a01b03909116906323b872dd9061172690339030908690600401612b42565b6020604051808303816000875af1158015611745573d6000803e3d6000fd5b505050506040513d601f19601f820116820180604052508101906117699190612b66565b50600060646010548361177c9190612af0565b6117869190612b20565b905060006117948284612ba1565b600354604051630852cd8d60e31b8152600481018590529192506001600160a01b0316906342966c6890602401600060405180830381600087803b1580156117db57600080fd5b505af11580156117ef573d6000803e3d6000fd5b50506003546040516370a0823160e01b8152306004820152600093508492506001600160a01b03909116906370a0823190602401602060405180830381865afa158015611840573d6000803e3d6000fd5b505050506040513d601f19601f820116820180604052508101906118649190612b88565b61186e9190612ba1565b6002546040516370a0823160e01b81523060048201529192506000916001600160a01b03909116906370a0823190602401602060405180830381865afa1580156118bc573d6000803e3d6000fd5b505050506040513d601f19601f820116820180604052508101906118e09190612b88565b905060006118ef848484610742565b6002546040516370a0823160e01b815230600482015291925082916001600160a01b03909116906370a0823190602401602060405180830381865afa15801561193c573d6000803e3d6000fd5b505050506040513d601f19601f820116820180604052508101906119609190612b88565b10156119ae5760405162461bcd60e51b815260206004820152601960248201527f496e73756666696369656e74204d43206c6971756964697479000000000000006044820152606401610627565b60025460405163a9059cbb60e01b81526001600160a01b039091169063a9059cbb906119e09033908590600401612bb4565b6020604051808303816000875af11580156119ff573d6000803e3d6000fd5b505050506040513d601f19601f82011682018060405250810190611a239190612b66565b50604080518781526020810183905290810186905233907f223c8ad0806f634524940a8595f819c5cfc7b1f4f4f45791269301df0a7e61d590606001610c08565b611a6c6127b8565b8068056bc75e2d631000001480611a8b575080681043561a8829300000145b80611a9e575080681b1ae4d6e2ef500000145b80611ab1575080683635c9adc5dea00000145b611af35760405162461bcd60e51b815260206004820152601360248201527224b73b30b634b2103a34b1b5b2ba103a34b2b960691b6044820152606401610627565b3360009081526012602052604090206003015460ff161580611b2757503360009081526012602052604090206007015460ff165b611b6a5760405162461bcd60e51b8152602060048201526014602482015273416374697665207469636b65742065786973747360601b6044820152606401610627565b6002546040516323b872dd60e01b81526001600160a01b03909116906323b872dd90611b9e90339030908690600401612b42565b6020604051808303816000875af1158015611bbd573d6000803e3d6000fd5b505050506040513d601f19601f82011682018060405250810190611be19190612b66565b50336000908152601160205260409020546001600160a01b03168015611c98576002546009546001600160a01b039091169063a9059cbb908390606490611c289087612af0565b611c329190612b20565b6040518363ffffffff1660e01b8152600401611c4f929190612bb4565b6020604051808303816000875af1158015611c6e573d6000803e3d6000fd5b505050506040513d601f19601f82011682018060405250810190611c929190612b66565b50611d2e565b6002546004546009546001600160a01b039283169263a9059cbb921690606490611cc29087612af0565b611ccc9190612b20565b6040518363ffffffff1660e01b8152600401611ce9929190612bb4565b6020604051808303816000875af1158015611d08573d6000803e3d6000fd5b505050506040513d601f19601f82011682018060405250810190611d2c9190612b66565b505b600254600454600a546001600160a01b039283169263a9059cbb921690606490611d589087612af0565b611d629190612b20565b6040518363ffffffff1660e01b8152600401611d7f929190612bb4565b6020604051808303816000875af1158015611d9e573d6000803e3d6000fd5b505050506040513d601f19601f82011682018060405250810190611dc29190612b66565b50600254600454600b546001600160a01b039283169263a9059cbb921690606490611ded9087612af0565b611df79190612b20565b6040518363ffffffff1660e01b8152600401611e14929190612bb4565b6020604051808303816000875af1158015611e33573d6000803e3d6000fd5b505050506040513d601f19601f82011682018060405250810190611e579190612b66565b50600254600754600c546001600160a01b039283169263a9059cbb921690606490611e829087612af0565b611e8c9190612b20565b6040518363ffffffff1660e01b8152600401611ea9929190612bb4565b6020604051808303816000875af1158015611ec8573d6000803e3d6000fd5b505050506040513d601f19601f82011682018060405250810190611eec9190612b66565b50600254600654600d546001600160a01b039283169263a9059cbb921690606490611f179087612af0565b611f219190612b20565b6040518363ffffffff1660e01b8152600401611f3e929190612bb4565b6020604051808303816000875af1158015611f5d573d6000803e3d6000fd5b505050506040513d601f19601f82011682018060405250810190611f819190612b66565b50600254600554600e546001600160a01b039283169263a9059cbb921690606490611fac9087612af0565b611fb69190612b20565b6040518363ffffffff1660e01b8152600401611fd3929190612bb4565b6020604051808303816000875af1158015611ff2573d6000803e3d6000fd5b505050506040513d601f19601f820116820180604052508101906120169190612b66565b5060405180610100016040528083815260200160648460966120389190612af0565b6120429190612b20565b815242602080830191909152600060408084018290526060808501839052608080860184905260a080870185905260c09687018590523385526012865293839020875181559487015160018601559186015160028501558501516003808501805492151560ff1993841617905591860151600485015591850151600584015592840151600683015560e0909301516007909101805491151591909316179091556120ed908390612af0565b33600081815260116020526040808220600481019490945560039093015590517f0668f5b446eb814fe35b3206f43f14bd8567ba04ddaf7a3ee56516929ab22ccb9061213c9085815260200190565b60405180910390a250610c1e60018055565b6121566127e2565b6001600160a01b039092166000908152601160205260409020600181019190915560020155565b6121856127e2565b61158d600061280f565b6121976127e2565b600855565b6121a46127e2565b600480546001600160a01b039586166001600160a01b0319918216179091556005805494861694821694909417909355600680549285169284169290921790915560078054919093169116179055565b6121fc6127e2565b600f91909155601055565b61220f6127e2565b806001600160a01b0316826001600160a01b0316036122635760405162461bcd60e51b815260206004820152601060248201526f21b0b73737ba103134b7321039b2b63360811b6044820152606401610627565b6001600160a01b03808316600090815260116020526040902080548383166001600160a01b03198216179091551680156123ba576001600160a01b0381166000908152601360205260408120905b81548110156123b757846001600160a01b03168282815481106122d6576122d6612be3565b6000918252602090912001546001600160a01b0316036123a5578154829061230090600190612ba1565b8154811061231057612310612be3565b9060005260206000200160009054906101000a90046001600160a01b031682828154811061234057612340612be3565b9060005260206000200160006101000a8154816001600160a01b0302191690836001600160a01b031602179055508180548061237e5761237e612c12565b600082815260209020810160001990810180546001600160a01b03191690550190556123b7565b806123af81612bf9565b9150506122b1565b50505b6001600160a01b03821615612408576001600160a01b0382811660009081526013602090815260408220805460018101825590835291200180546001600160a01b0319169185169190911790555b505050565b6124156127b8565b336000908152601260205260409020600381015460ff16801561243d5750600781015460ff16155b6124795760405162461bcd60e51b815260206004820152600d60248201526c43616e6e6f742072656465656d60981b6044820152606401610627565b600681015461248b9062015180612af0565b816005015461249a9190612b0d565b4210156124de5760405162461bcd60e51b815260206004820152601260248201527110de58db19481b9bdd08199a5b9a5cda195960721b6044820152606401610627565b6000606460085483600001546124f49190612af0565b6124fe9190612b20565b6002546040516323b872dd60e01b81529192506001600160a01b0316906323b872dd9061253390339030908690600401612b42565b6020604051808303816000875af1158015612552573d6000803e3d6000fd5b505050506040513d601f19601f820116820180604052508101906125769190612b66565b5060025460048084015460405163a9059cbb60e01b81526001600160a01b039093169263a9059cbb926125ad923392909101612bb4565b6020604051808303816000875af11580156125cc573d6000803e3d6000fd5b505050506040513d601f19601f820116820180604052508101906125f09190612b66565b50600782018054600160ff19918216179091553360008181526011602090815260409182902060050180549094169093556004850154815190815292830184905290917ff3a670cd3af7d64b488926880889d08a8585a138ff455227af6737339a1ec262910160405180910390a2505061158d60018055565b6001600160a01b0381166000908152601360209081526040918290208054835181840281018401909452808452606093928301828280156126d357602002820191906000526020600020905b81546001600160a01b031681526001909101906020018083116126b5575b50505050509050919050565b6126e76127e2565b808284866126f5898b612b0d565b6126ff9190612b0d565b6127099190612b0d565b6127139190612b0d565b61271d9190612b0d565b6064146127605760405162461bcd60e51b81526020600482015260116024820152700546f74616c206d7573742062652031303607c1b6044820152606401610627565b600995909555600a93909355600b91909155600c55600d55600e55565b6127856127e2565b6001600160a01b0381166127af57604051631e4fbdf760e01b815260006004820152602401610627565b610c1e8161280f565b6002600154036127db57604051633ee5aeb560e01b815260040160405180910390fd5b6002600155565b6000546001600160a01b0316331461158d5760405163118cdaa760e01b8152336004820152602401610627565b600080546001600160a01b038381166001600160a01b0319831681178455604051919092169283917f8be0079c531659141344cd1fd0a4f28419497f9722a3daafe3b4186f6b6457e09190a35050565b80356001600160a01b038116811461287657600080fd5b919050565b60006020828403121561288d57600080fd5b6128968261285f565b9392505050565b6000806000606084860312156128b257600080fd5b505081359360208301359350604090920135919050565b600080604083850312156128dc57600080fd5b6128e58361285f565b946020939093013593505050565b60006020828403121561290557600080fd5b5035919050565b602080825282518282018190526000919060409081850190868401855b8281101561296157815180516001600160a01b0316855286810151878601528501518585015260609093019290850190600101612929565b5091979650505050505050565b60008060006060848603121561298357600080fd5b61298c8461285f565b95602085013595506040909401359392505050565b600080600080608085870312156129b757600080fd5b6129c08561285f565b93506129ce6020860161285f565b92506129dc6040860161285f565b91506129ea6060860161285f565b905092959194509250565b60008060408385031215612a0857600080fd5b50508035926020909101359150565b60008060408385031215612a2a57600080fd5b612a338361285f565b9150612a416020840161285f565b90509250929050565b6020808252825182820181905260009190848201906040850190845b81811015612a8b5783516001600160a01b031683529284019291840191600101612a66565b50909695505050505050565b60008060008060008060c08789031215612ab057600080fd5b505084359660208601359650604086013595606081013595506080810135945060a0013592509050565b634e487b7160e01b600052601160045260246000fd5b8082028115828204841417612b0757612b07612ada565b92915050565b80820180821115612b0757612b07612ada565b600082612b3d57634e487b7160e01b600052601260045260246000fd5b500490565b6001600160a01b039384168152919092166020820152604081019190915260600190565b600060208284031215612b7857600080fd5b8151801515811461289657600080fd5b600060208284031215612b9a57600080fd5b5051919050565b81810381811115612b0757612b07612ada565b6001600160a01b03929092168252602082015260400190565b634e487b7160e01b600052604160045260246000fd5b634e487b7160e01b600052603260045260246000fd5b600060018201612c0b57612c0b612ada565b5060010190565b634e487b7160e01b600052603160045260246000fdfea264697066735822122090c50723025117e91f8f97236b33ba4698c1b84e7fa0ad9290e9413baf20672464736f6c63430008140033",
  "linkReferences": {},
  "deployedLinkReferences": {}
}