{
  "_format": "hh-sol-artifact-1",
  "contractName": "JinbaoProtocol",
  "sourceName": "contracts/JinbaoProtocol.sol",
  "abi": [
    {
      "inputs": [],
      "stateMutability": "nonpayable",
      "type": "constructor"
    },
    {
      "inputs": [
        {
          "internalType": "address",
          "name": "target",
          "type": "address"
        }
      ],
      "name": "AddressEmptyCode",
      "type": "error"
    },
    {
      "inputs": [],
      "name": "AlreadyBound",
      "type": "error"
    },
    {
      "inputs": [],
      "name": "AlreadyExited",
      "type": "error"
    },
    {
      "inputs": [],
      "name": "BatchUpdateSizeMismatch",
      "type": "error"
    },
    {
      "inputs": [
        {
          "internalType": "address",
          "name": "implementation",
          "type": "address"
        }
      ],
      "name": "ERC1967InvalidImplementation",
      "type": "error"
    },
    {
      "inputs": [],
      "name": "ERC1967NonPayable",
      "type": "error"
    },
    {
      "inputs": [],
      "name": "Expired",
      "type": "error"
    },
    {
      "inputs": [],
      "name": "FailedCall",
      "type": "error"
    },
    {
      "inputs": [],
      "name": "InsufficientBalance",
      "type": "error"
    },
    {
      "inputs": [],
      "name": "InvalidAddress",
      "type": "error"
    },
    {
      "inputs": [],
      "name": "InvalidAmount",
      "type": "error"
    },
    {
      "inputs": [],
      "name": "InvalidCycle",
      "type": "error"
    },
    {
      "inputs": [],
      "name": "InvalidFee",
      "type": "error"
    },
    {
      "inputs": [],
      "name": "InvalidInitialization",
      "type": "error"
    },
    {
      "inputs": [],
      "name": "InvalidLevelConfig",
      "type": "error"
    },
    {
      "inputs": [],
      "name": "InvalidRate",
      "type": "error"
    },
    {
      "inputs": [],
      "name": "InvalidTax",
      "type": "error"
    },
    {
      "inputs": [],
      "name": "InvalidTeamCountUpdate",
      "type": "error"
    },
    {
      "inputs": [],
      "name": "LowLiquidity",
      "type": "error"
    },
    {
      "inputs": [],
      "name": "NoRewards",
      "type": "error"
    },
    {
      "inputs": [],
      "name": "NotActive",
      "type": "error"
    },
    {
      "inputs": [],
      "name": "NotInitializing",
      "type": "error"
    },
    {
      "inputs": [],
      "name": "NothingToRedeem",
      "type": "error"
    },
    {
      "inputs": [
        {
          "internalType": "address",
          "name": "owner",
          "type": "address"
        }
      ],
      "name": "OwnableInvalidOwner",
      "type": "error"
    },
    {
      "inputs": [
        {
          "internalType": "address",
          "name": "account",
          "type": "address"
        }
      ],
      "name": "OwnableUnauthorizedAccount",
      "type": "error"
    },
    {
      "inputs": [],
      "name": "RecursionDepthExceeded",
      "type": "error"
    },
    {
      "inputs": [],
      "name": "SelfReference",
      "type": "error"
    },
    {
      "inputs": [],
      "name": "SumNot100",
      "type": "error"
    },
    {
      "inputs": [
        {
          "internalType": "address",
          "name": "user",
          "type": "address"
        },
        {
          "internalType": "uint256",
          "name": "expected",
          "type": "uint256"
        },
        {
          "internalType": "uint256",
          "name": "actual",
          "type": "uint256"
        }
      ],
      "name": "TeamCountMismatch",
      "type": "error"
    },
    {
      "inputs": [],
      "name": "TeamCountOverflow",
      "type": "error"
    },
    {
      "inputs": [],
      "name": "TransferFailed",
      "type": "error"
    },
    {
      "inputs": [],
      "name": "UUPSUnauthorizedCallContext",
      "type": "error"
    },
    {
      "inputs": [
        {
          "internalType": "bytes32",
          "name": "slot",
          "type": "bytes32"
        }
      ],
      "name": "UUPSUnsupportedProxiableUUID",
      "type": "error"
    },
    {
      "inputs": [],
      "name": "Unauthorized",
      "type": "error"
    },
    {
      "anonymous": false,
      "inputs": [
        {
          "indexed": false,
          "internalType": "uint256",
          "name": "usersUpdated",
          "type": "uint256"
        }
      ],
      "name": "BatchTeamCountsUpdated",
      "type": "event"
    },
    {
      "anonymous": false,
      "inputs": [
        {
          "indexed": true,
          "internalType": "address",
          "name": "user",
          "type": "address"
        },
        {
          "indexed": true,
          "internalType": "address",
          "name": "referrer",
          "type": "address"
        }
      ],
      "name": "BoundReferrer",
      "type": "event"
    },
    {
      "anonymous": false,
      "inputs": [
        {
          "indexed": false,
          "internalType": "uint256",
          "name": "mcAmount",
          "type": "uint256"
        },
        {
          "indexed": false,
          "internalType": "uint256",
          "name": "jbcBurned",
          "type": "uint256"
        }
      ],
      "name": "BuybackAndBurn",
      "type": "event"
    },
    {
      "anonymous": false,
      "inputs": [
        {
          "indexed": true,
          "internalType": "uint256",
          "name": "stakeId",
          "type": "uint256"
        },
        {
          "indexed": true,
          "internalType": "address",
          "name": "upline",
          "type": "address"
        },
        {
          "indexed": false,
          "internalType": "uint256",
          "name": "amount",
          "type": "uint256"
        }
      ],
      "name": "DifferentialRewardRecorded",
      "type": "event"
    },
    {
      "anonymous": false,
      "inputs": [
        {
          "indexed": true,
          "internalType": "uint256",
          "name": "stakeId",
          "type": "uint256"
        },
        {
          "indexed": true,
          "internalType": "address",
          "name": "upline",
          "type": "address"
        },
        {
          "indexed": false,
          "internalType": "uint256",
          "name": "amount",
          "type": "uint256"
        }
      ],
      "name": "DifferentialRewardReleased",
      "type": "event"
    },
    {
      "anonymous": false,
      "inputs": [
        {
          "indexed": false,
          "internalType": "uint256",
          "name": "direct",
          "type": "uint256"
        },
        {
          "indexed": false,
          "internalType": "uint256",
          "name": "level",
          "type": "uint256"
        },
        {
          "indexed": false,
          "internalType": "uint256",
          "name": "marketing",
          "type": "uint256"
        },
        {
          "indexed": false,
          "internalType": "uint256",
          "name": "buyback",
          "type": "uint256"
        },
        {
          "indexed": false,
          "internalType": "uint256",
          "name": "lpInjection",
          "type": "uint256"
        },
        {
          "indexed": false,
          "internalType": "uint256",
          "name": "treasury",
          "type": "uint256"
        }
      ],
      "name": "DistributionConfigUpdated",
      "type": "event"
    },
    {
      "anonymous": false,
      "inputs": [
        {
          "indexed": true,
          "internalType": "address",
          "name": "user",
          "type": "address"
        },
        {
          "indexed": false,
          "internalType": "uint256",
          "name": "ticketId",
          "type": "uint256"
        }
      ],
      "name": "Exited",
      "type": "event"
    },
    {
      "anonymous": false,
      "inputs": [
        {
          "indexed": true,
          "internalType": "address",
          "name": "user",
          "type": "address"
        },
        {
          "indexed": false,
          "internalType": "uint256",
          "name": "amount",
          "type": "uint256"
        }
      ],
      "name": "FeeRefunded",
      "type": "event"
    },
    {
      "anonymous": false,
      "inputs": [
        {
          "indexed": false,
          "internalType": "uint64",
          "name": "version",
          "type": "uint64"
        }
      ],
      "name": "Initialized",
      "type": "event"
    },
    {
      "anonymous": false,
      "inputs": [],
      "name": "LevelConfigsUpdated",
      "type": "event"
    },
    {
      "anonymous": false,
      "inputs": [
        {
          "indexed": false,
          "internalType": "uint256",
          "name": "amount",
          "type": "uint256"
        },
        {
          "indexed": false,
          "internalType": "uint256",
          "name": "newTotal",
          "type": "uint256"
        }
      ],
      "name": "LevelRewardPoolUpdated",
      "type": "event"
    },
    {
      "anonymous": false,
      "inputs": [
        {
          "indexed": true,
          "internalType": "address",
          "name": "to",
          "type": "address"
        },
        {
          "indexed": false,
          "internalType": "uint256",
          "name": "amount",
          "type": "uint256"
        }
      ],
      "name": "LevelRewardPoolWithdrawn",
      "type": "event"
    },
    {
      "anonymous": false,
      "inputs": [
        {
          "indexed": true,
          "internalType": "uint256",
          "name": "ticketId",
          "type": "uint256"
        },
        {
          "indexed": true,
          "internalType": "address",
          "name": "upline",
          "type": "address"
        },
        {
          "indexed": false,
          "internalType": "uint256",
          "name": "amount",
          "type": "uint256"
        }
      ],
      "name": "LevelRewardRecorded",
      "type": "event"
    },
    {
      "anonymous": false,
      "inputs": [
        {
          "indexed": true,
          "internalType": "uint256",
          "name": "ticketId",
          "type": "uint256"
        },
        {
          "indexed": true,
          "internalType": "address",
          "name": "upline",
          "type": "address"
        },
        {
          "indexed": false,
          "internalType": "uint256",
          "name": "amount",
          "type": "uint256"
        }
      ],
      "name": "LevelRewardReleased",
      "type": "event"
    },
    {
      "anonymous": false,
      "inputs": [
        {
          "indexed": false,
          "internalType": "uint256",
          "name": "mcAmount",
          "type": "uint256"
        },
        {
          "indexed": false,
          "internalType": "uint256",
          "name": "jbcAmount",
          "type": "uint256"
        }
      ],
      "name": "LiquidityAdded",
      "type": "event"
    },
    {
      "anonymous": false,
      "inputs": [
        {
          "indexed": true,
          "internalType": "address",
          "name": "user",
          "type": "address"
        },
        {
          "indexed": false,
          "internalType": "uint256",
          "name": "amount",
          "type": "uint256"
        },
        {
          "indexed": false,
          "internalType": "uint256",
          "name": "cycleDays",
          "type": "uint256"
        },
        {
          "indexed": false,
          "internalType": "uint256",
          "name": "stakeId",
          "type": "uint256"
        }
      ],
      "name": "LiquidityStaked",
      "type": "event"
    },
    {
      "anonymous": false,
      "inputs": [
        {
          "indexed": false,
          "internalType": "bool",
          "name": "enabled",
          "type": "bool"
        }
      ],
      "name": "LiquidityStatusUpdated",
      "type": "event"
    },
    {
      "anonymous": false,
      "inputs": [
        {
          "indexed": true,
          "internalType": "address",
          "name": "previousOwner",
          "type": "address"
        },
        {
          "indexed": true,
          "internalType": "address",
          "name": "newOwner",
          "type": "address"
        }
      ],
      "name": "OwnershipTransferred",
      "type": "event"
    },
    {
      "anonymous": false,
      "inputs": [
        {
          "indexed": false,
          "internalType": "bool",
          "name": "enabled",
          "type": "bool"
        }
      ],
      "name": "RedeemStatusUpdated",
      "type": "event"
    },
    {
      "anonymous": false,
      "inputs": [
        {
          "indexed": true,
          "internalType": "address",
          "name": "user",
          "type": "address"
        },
        {
          "indexed": false,
          "internalType": "uint256",
          "name": "principal",
          "type": "uint256"
        },
        {
          "indexed": false,
          "internalType": "uint256",
          "name": "fee",
          "type": "uint256"
        }
      ],
      "name": "Redeemed",
      "type": "event"
    },
    {
      "anonymous": false,
      "inputs": [
        {
          "indexed": false,
          "internalType": "uint256",
          "name": "newFee",
          "type": "uint256"
        }
      ],
      "name": "RedemptionFeeUpdated",
      "type": "event"
    },
    {
      "anonymous": false,
      "inputs": [
        {
          "indexed": true,
          "internalType": "address",
          "name": "user",
          "type": "address"
        },
        {
          "indexed": true,
          "internalType": "address",
          "name": "from",
          "type": "address"
        },
        {
          "indexed": false,
          "internalType": "uint256",
          "name": "mcAmount",
          "type": "uint256"
        },
        {
          "indexed": false,
          "internalType": "uint8",
          "name": "rewardType",
          "type": "uint8"
        },
        {
          "indexed": false,
          "internalType": "uint256",
          "name": "ticketId",
          "type": "uint256"
        }
      ],
      "name": "ReferralRewardPaid",
      "type": "event"
    },
    {
      "anonymous": false,
      "inputs": [
        {
          "indexed": true,
          "internalType": "address",
          "name": "user",
          "type": "address"
        },
        {
          "indexed": false,
          "internalType": "uint256",
          "name": "amount",
          "type": "uint256"
        },
        {
          "indexed": false,
          "internalType": "uint256",
          "name": "cappedAmount",
          "type": "uint256"
        }
      ],
      "name": "RewardCapped",
      "type": "event"
    },
    {
      "anonymous": false,
      "inputs": [
        {
          "indexed": true,
          "internalType": "address",
          "name": "user",
          "type": "address"
        },
        {
          "indexed": false,
          "internalType": "uint256",
          "name": "mcAmount",
          "type": "uint256"
        },
        {
          "indexed": false,
          "internalType": "uint256",
          "name": "jbcAmount",
          "type": "uint256"
        },
        {
          "indexed": false,
          "internalType": "uint8",
          "name": "rewardType",
          "type": "uint8"
        },
        {
          "indexed": false,
          "internalType": "uint256",
          "name": "ticketId",
          "type": "uint256"
        }
      ],
      "name": "RewardClaimed",
      "type": "event"
    },
    {
      "anonymous": false,
      "inputs": [
        {
          "indexed": true,
          "internalType": "address",
          "name": "user",
          "type": "address"
        },
        {
          "indexed": false,
          "internalType": "uint256",
          "name": "amount",
          "type": "uint256"
        },
        {
          "indexed": false,
          "internalType": "uint8",
          "name": "rewardType",
          "type": "uint8"
        }
      ],
      "name": "RewardPaid",
      "type": "event"
    },
    {
      "anonymous": false,
      "inputs": [
        {
          "indexed": false,
          "internalType": "uint256",
          "name": "mcAmount",
          "type": "uint256"
        },
        {
          "indexed": false,
          "internalType": "uint256",
          "name": "jbcAmount",
          "type": "uint256"
        }
      ],
      "name": "SwapReservesWithdrawn",
      "type": "event"
    },
    {
      "anonymous": false,
      "inputs": [
        {
          "indexed": false,
          "internalType": "uint256",
          "name": "buyTax",
          "type": "uint256"
        },
        {
          "indexed": false,
          "internalType": "uint256",
          "name": "sellTax",
          "type": "uint256"
        }
      ],
      "name": "SwapTaxesUpdated",
      "type": "event"
    },
    {
      "anonymous": false,
      "inputs": [
        {
          "indexed": true,
          "internalType": "address",
          "name": "user",
          "type": "address"
        },
        {
          "indexed": false,
          "internalType": "uint256",
          "name": "jbcAmount",
          "type": "uint256"
        },
        {
          "indexed": false,
          "internalType": "uint256",
          "name": "mcAmount",
          "type": "uint256"
        },
        {
          "indexed": false,
          "internalType": "uint256",
          "name": "tax",
          "type": "uint256"
        }
      ],
      "name": "SwappedJBCToMC",
      "type": "event"
    },
    {
      "anonymous": false,
      "inputs": [
        {
          "indexed": true,
          "internalType": "address",
          "name": "user",
          "type": "address"
        },
        {
          "indexed": false,
          "internalType": "uint256",
          "name": "mcAmount",
          "type": "uint256"
        },
        {
          "indexed": false,
          "internalType": "uint256",
          "name": "jbcAmount",
          "type": "uint256"
        },
        {
          "indexed": false,
          "internalType": "uint256",
          "name": "tax",
          "type": "uint256"
        }
      ],
      "name": "SwappedMCToJBC",
      "type": "event"
    },
    {
      "anonymous": false,
      "inputs": [
        {
          "indexed": true,
          "internalType": "uint256",
          "name": "stakeId",
          "type": "uint256"
        },
        {
          "indexed": true,
          "internalType": "address",
          "name": "upline",
          "type": "address"
        },
        {
          "indexed": false,
          "internalType": "uint256",
          "name": "amount",
          "type": "uint256"
        },
        {
          "indexed": false,
          "internalType": "uint256",
          "name": "teamCount",
          "type": "uint256"
        }
      ],
      "name": "TeamBasedRewardCalculated",
      "type": "event"
    },
    {
      "anonymous": false,
      "inputs": [
        {
          "indexed": true,
          "internalType": "address",
          "name": "user",
          "type": "address"
        },
        {
          "indexed": false,
          "internalType": "uint256",
          "name": "oldCount",
          "type": "uint256"
        },
        {
          "indexed": false,
          "internalType": "uint256",
          "name": "newCount",
          "type": "uint256"
        }
      ],
      "name": "TeamCountUpdated",
      "type": "event"
    },
    {
      "anonymous": false,
      "inputs": [
        {
          "indexed": true,
          "internalType": "address",
          "name": "user",
          "type": "address"
        },
        {
          "indexed": false,
          "internalType": "uint256",
          "name": "expected",
          "type": "uint256"
        },
        {
          "indexed": false,
          "internalType": "uint256",
          "name": "actual",
          "type": "uint256"
        }
      ],
      "name": "TeamCountValidationFailed",
      "type": "event"
    },
    {
      "anonymous": false,
      "inputs": [
        {
          "indexed": true,
          "internalType": "address",
          "name": "user",
          "type": "address"
        },
        {
          "indexed": false,
          "internalType": "uint256",
          "name": "ticketId",
          "type": "uint256"
        },
        {
          "indexed": false,
          "internalType": "uint256",
          "name": "amount",
          "type": "uint256"
        }
      ],
      "name": "TicketExpired",
      "type": "event"
    },
    {
      "anonymous": false,
      "inputs": [
        {
          "indexed": false,
          "internalType": "uint256",
          "name": "newDuration",
          "type": "uint256"
        }
      ],
      "name": "TicketFlexibilityDurationUpdated",
      "type": "event"
    },
    {
      "anonymous": false,
      "inputs": [
        {
          "indexed": true,
          "internalType": "address",
          "name": "user",
          "type": "address"
        },
        {
          "indexed": false,
          "internalType": "uint256",
          "name": "amount",
          "type": "uint256"
        },
        {
          "indexed": false,
          "internalType": "uint256",
          "name": "ticketId",
          "type": "uint256"
        }
      ],
      "name": "TicketPurchased",
      "type": "event"
    },
    {
      "anonymous": false,
      "inputs": [
        {
          "indexed": false,
          "internalType": "address",
          "name": "token",
          "type": "address"
        },
        {
          "indexed": false,
          "internalType": "address",
          "name": "to",
          "type": "address"
        },
        {
          "indexed": false,
          "internalType": "uint256",
          "name": "amount",
          "type": "uint256"
        }
      ],
      "name": "TokensRescued",
      "type": "event"
    },
    {
      "anonymous": false,
      "inputs": [
        {
          "indexed": true,
          "internalType": "address",
          "name": "implementation",
          "type": "address"
        }
      ],
      "name": "Upgraded",
      "type": "event"
    },
    {
      "anonymous": false,
      "inputs": [
        {
          "indexed": false,
          "internalType": "address",
          "name": "marketing",
          "type": "address"
        },
        {
          "indexed": false,
          "internalType": "address",
          "name": "treasury",
          "type": "address"
        },
        {
          "indexed": false,
          "internalType": "address",
          "name": "lpInjection",
          "type": "address"
        },
        {
          "indexed": false,
          "internalType": "address",
          "name": "buyback",
          "type": "address"
        }
      ],
      "name": "WalletsUpdated",
      "type": "event"
    },
    {
      "inputs": [],
      "name": "REWARD_DIFFERENTIAL",
      "outputs": [
        {
          "internalType": "uint8",
          "name": "",
          "type": "uint8"
        }
      ],
      "stateMutability": "view",
      "type": "function"
    },
    {
      "inputs": [],
      "name": "REWARD_DIRECT",
      "outputs": [
        {
          "internalType": "uint8",
          "name": "",
          "type": "uint8"
        }
      ],
      "stateMutability": "view",
      "type": "function"
    },
    {
      "inputs": [],
      "name": "REWARD_DYNAMIC",
      "outputs": [
        {
          "internalType": "uint8",
          "name": "",
          "type": "uint8"
        }
      ],
      "stateMutability": "view",
      "type": "function"
    },
    {
      "inputs": [],
      "name": "REWARD_LEVEL",
      "outputs": [
        {
          "internalType": "uint8",
          "name": "",
          "type": "uint8"
        }
      ],
      "stateMutability": "view",
      "type": "function"
    },
    {
      "inputs": [],
      "name": "REWARD_STATIC",
      "outputs": [
        {
          "internalType": "uint8",
          "name": "",
          "type": "uint8"
        }
      ],
      "stateMutability": "view",
      "type": "function"
    },
    {
      "inputs": [],
      "name": "SECONDS_IN_UNIT",
      "outputs": [
        {
          "internalType": "uint256",
          "name": "",
          "type": "uint256"
        }
      ],
      "stateMutability": "view",
      "type": "function"
    },
    {
      "inputs": [],
      "name": "UPGRADE_INTERFACE_VERSION",
      "outputs": [
        {
          "internalType": "string",
          "name": "",
          "type": "string"
        }
      ],
      "stateMutability": "view",
      "type": "function"
    },
    {
      "inputs": [
        {
          "internalType": "uint256",
          "name": "mcAmount",
          "type": "uint256"
        },
        {
          "internalType": "uint256",
          "name": "jbcAmount",
          "type": "uint256"
        }
      ],
      "name": "addLiquidity",
      "outputs": [],
      "stateMutability": "nonpayable",
      "type": "function"
    },
    {
      "inputs": [
        {
          "internalType": "address[]",
          "name": "users",
          "type": "address[]"
        },
        {
          "internalType": "uint256[]",
          "name": "newCounts",
          "type": "uint256[]"
        }
      ],
      "name": "batchUpdateTeamCounts",
      "outputs": [],
      "stateMutability": "nonpayable",
      "type": "function"
    },
    {
      "inputs": [
        {
          "internalType": "address",
          "name": "_referrer",
          "type": "address"
        }
      ],
      "name": "bindReferrer",
      "outputs": [],
      "stateMutability": "nonpayable",
      "type": "function"
    },
    {
      "inputs": [
        {
          "internalType": "uint256",
          "name": "amount",
          "type": "uint256"
        }
      ],
      "name": "buyTicket",
      "outputs": [],
      "stateMutability": "nonpayable",
      "type": "function"
    },
    {
      "inputs": [],
      "name": "buybackPercent",
      "outputs": [
        {
          "internalType": "uint256",
          "name": "",
          "type": "uint256"
        }
      ],
      "stateMutability": "view",
      "type": "function"
    },
    {
      "inputs": [],
      "name": "buybackWallet",
      "outputs": [
        {
          "internalType": "address",
          "name": "",
          "type": "address"
        }
      ],
      "stateMutability": "view",
      "type": "function"
    },
    {
      "inputs": [],
      "name": "claimRewards",
      "outputs": [],
      "stateMutability": "nonpayable",
      "type": "function"
    },
    {
      "inputs": [
        {
          "internalType": "address",
          "name": "",
          "type": "address"
        },
        {
          "internalType": "uint256",
          "name": "",
          "type": "uint256"
        }
      ],
      "name": "directReferrals",
      "outputs": [
        {
          "internalType": "address",
          "name": "",
          "type": "address"
        }
      ],
      "stateMutability": "view",
      "type": "function"
    },
    {
      "inputs": [],
      "name": "directRewardPercent",
      "outputs": [
        {
          "internalType": "uint256",
          "name": "",
          "type": "uint256"
        }
      ],
      "stateMutability": "view",
      "type": "function"
    },
    {
      "inputs": [
        {
          "internalType": "address",
          "name": "user",
          "type": "address"
        }
      ],
      "name": "getDirectReferrals",
      "outputs": [
        {
          "internalType": "address[]",
          "name": "",
          "type": "address[]"
        }
      ],
      "stateMutability": "view",
      "type": "function"
    },
    {
      "inputs": [
        {
          "internalType": "uint256",
          "name": "activeDirects",
          "type": "uint256"
        }
      ],
      "name": "getLevel",
      "outputs": [
        {
          "internalType": "uint256",
          "name": "level",
          "type": "uint256"
        },
        {
          "internalType": "uint256",
          "name": "percent",
          "type": "uint256"
        }
      ],
      "stateMutability": "view",
      "type": "function"
    },
    {
      "inputs": [
        {
          "internalType": "uint256",
          "name": "teamCount",
          "type": "uint256"
        }
      ],
      "name": "getLevelByTeamCount",
      "outputs": [
        {
          "internalType": "uint256",
          "name": "level",
          "type": "uint256"
        },
        {
          "internalType": "uint256",
          "name": "percent",
          "type": "uint256"
        }
      ],
      "stateMutability": "view",
      "type": "function"
    },
    {
      "inputs": [
        {
          "internalType": "uint256",
          "name": "activeDirects",
          "type": "uint256"
        }
      ],
      "name": "getLevelRewardLayers",
      "outputs": [
        {
          "internalType": "uint256",
          "name": "",
          "type": "uint256"
        }
      ],
      "stateMutability": "pure",
      "type": "function"
    },
    {
      "inputs": [
        {
          "internalType": "address",
          "name": "_mcToken",
          "type": "address"
        },
        {
          "internalType": "address",
          "name": "_jbcToken",
          "type": "address"
        },
        {
          "internalType": "address",
          "name": "_marketing",
          "type": "address"
        },
        {
          "internalType": "address",
          "name": "_treasury",
          "type": "address"
        },
        {
          "internalType": "address",
          "name": "_lpInjection",
          "type": "address"
        },
        {
          "internalType": "address",
          "name": "_buybackWallet",
          "type": "address"
        }
      ],
      "name": "initialize",
      "outputs": [],
      "stateMutability": "nonpayable",
      "type": "function"
    },
    {
      "inputs": [],
      "name": "jbcToken",
      "outputs": [
        {
          "internalType": "contract IJBC",
          "name": "",
          "type": "address"
        }
      ],
      "stateMutability": "view",
      "type": "function"
    },
    {
      "inputs": [],
      "name": "lastBurnTime",
      "outputs": [
        {
          "internalType": "uint256",
          "name": "",
          "type": "uint256"
        }
      ],
      "stateMutability": "view",
      "type": "function"
    },
    {
      "inputs": [],
      "name": "levelRewardPercent",
      "outputs": [
        {
          "internalType": "uint256",
          "name": "",
          "type": "uint256"
        }
      ],
      "stateMutability": "view",
      "type": "function"
    },
    {
      "inputs": [],
      "name": "levelRewardPool",
      "outputs": [
        {
          "internalType": "uint256",
          "name": "",
          "type": "uint256"
        }
      ],
      "stateMutability": "view",
      "type": "function"
    },
    {
      "inputs": [],
      "name": "liquidityEnabled",
      "outputs": [
        {
          "internalType": "bool",
          "name": "",
          "type": "bool"
        }
      ],
      "stateMutability": "view",
      "type": "function"
    },
    {
      "inputs": [],
      "name": "lpInjectionPercent",
      "outputs": [
        {
          "internalType": "uint256",
          "name": "",
          "type": "uint256"
        }
      ],
      "stateMutability": "view",
      "type": "function"
    },
    {
      "inputs": [],
      "name": "lpInjectionWallet",
      "outputs": [
        {
          "internalType": "address",
          "name": "",
          "type": "address"
        }
      ],
      "stateMutability": "view",
      "type": "function"
    },
    {
      "inputs": [],
      "name": "marketingPercent",
      "outputs": [
        {
          "internalType": "uint256",
          "name": "",
          "type": "uint256"
        }
      ],
      "stateMutability": "view",
      "type": "function"
    },
    {
      "inputs": [],
      "name": "marketingWallet",
      "outputs": [
        {
          "internalType": "address",
          "name": "",
          "type": "address"
        }
      ],
      "stateMutability": "view",
      "type": "function"
    },
    {
      "inputs": [],
      "name": "mcToken",
      "outputs": [
        {
          "internalType": "contract IERC20",
          "name": "",
          "type": "address"
        }
      ],
      "stateMutability": "view",
      "type": "function"
    },
    {
      "inputs": [],
      "name": "nextStakeId",
      "outputs": [
        {
          "internalType": "uint256",
          "name": "",
          "type": "uint256"
        }
      ],
      "stateMutability": "view",
      "type": "function"
    },
    {
      "inputs": [],
      "name": "nextTicketId",
      "outputs": [
        {
          "internalType": "uint256",
          "name": "",
          "type": "uint256"
        }
      ],
      "stateMutability": "view",
      "type": "function"
    },
    {
      "inputs": [],
      "name": "owner",
      "outputs": [
        {
          "internalType": "address",
          "name": "",
          "type": "address"
        }
      ],
      "stateMutability": "view",
      "type": "function"
    },
    {
      "inputs": [],
      "name": "proxiableUUID",
      "outputs": [
        {
          "internalType": "bytes32",
          "name": "",
          "type": "bytes32"
        }
      ],
      "stateMutability": "view",
      "type": "function"
    },
    {
      "inputs": [],
      "name": "redeem",
      "outputs": [],
      "stateMutability": "nonpayable",
      "type": "function"
    },
    {
      "inputs": [],
      "name": "redeemEnabled",
      "outputs": [
        {
          "internalType": "bool",
          "name": "",
          "type": "bool"
        }
      ],
      "stateMutability": "view",
      "type": "function"
    },
    {
      "inputs": [],
      "name": "redemptionFeePercent",
      "outputs": [
        {
          "internalType": "uint256",
          "name": "",
          "type": "uint256"
        }
      ],
      "stateMutability": "view",
      "type": "function"
    },
    {
      "inputs": [],
      "name": "renounceOwnership",
      "outputs": [],
      "stateMutability": "nonpayable",
      "type": "function"
    },
    {
      "inputs": [
        {
          "internalType": "address",
          "name": "_token",
          "type": "address"
        },
        {
          "internalType": "address",
          "name": "_to",
          "type": "address"
        },
        {
          "internalType": "uint256",
          "name": "_amount",
          "type": "uint256"
        }
      ],
      "name": "rescueTokens",
      "outputs": [],
      "stateMutability": "nonpayable",
      "type": "function"
    },
    {
      "inputs": [
        {
          "internalType": "uint256",
          "name": "_direct",
          "type": "uint256"
        },
        {
          "internalType": "uint256",
          "name": "_level",
          "type": "uint256"
        },
        {
          "internalType": "uint256",
          "name": "_marketing",
          "type": "uint256"
        },
        {
          "internalType": "uint256",
          "name": "_buyback",
          "type": "uint256"
        },
        {
          "internalType": "uint256",
          "name": "_lpInjection",
          "type": "uint256"
        },
        {
          "internalType": "uint256",
          "name": "_treasury",
          "type": "uint256"
        }
      ],
      "name": "setDistributionConfig",
      "outputs": [],
      "stateMutability": "nonpayable",
      "type": "function"
    },
    {
      "inputs": [
        {
          "internalType": "bool",
          "name": "_liquidityEnabled",
          "type": "bool"
        },
        {
          "internalType": "bool",
          "name": "_redeemEnabled",
          "type": "bool"
        }
      ],
      "name": "setOperationalStatus",
      "outputs": [],
      "stateMutability": "nonpayable",
      "type": "function"
    },
    {
      "inputs": [
        {
          "internalType": "uint256",
          "name": "_fee",
          "type": "uint256"
        }
      ],
      "name": "setRedemptionFeePercent",
      "outputs": [],
      "stateMutability": "nonpayable",
      "type": "function"
    },
    {
      "inputs": [
        {
          "internalType": "uint256",
          "name": "_buyTax",
          "type": "uint256"
        },
        {
          "internalType": "uint256",
          "name": "_sellTax",
          "type": "uint256"
        }
      ],
      "name": "setSwapTaxes",
      "outputs": [],
      "stateMutability": "nonpayable",
      "type": "function"
    },
    {
      "inputs": [
        {
          "internalType": "uint256",
          "name": "_duration",
          "type": "uint256"
        }
      ],
      "name": "setTicketFlexibilityDuration",
      "outputs": [],
      "stateMutability": "nonpayable",
      "type": "function"
    },
    {
      "inputs": [
        {
          "internalType": "address",
          "name": "_marketing",
          "type": "address"
        },
        {
          "internalType": "address",
          "name": "_treasury",
          "type": "address"
        },
        {
          "internalType": "address",
          "name": "_lpInjection",
          "type": "address"
        },
        {
          "internalType": "address",
          "name": "_buyback",
          "type": "address"
        }
      ],
      "name": "setWallets",
      "outputs": [],
      "stateMutability": "nonpayable",
      "type": "function"
    },
    {
      "inputs": [
        {
          "internalType": "uint256",
          "name": "amount",
          "type": "uint256"
        },
        {
          "internalType": "uint256",
          "name": "cycleDays",
          "type": "uint256"
        }
      ],
      "name": "stakeLiquidity",
      "outputs": [],
      "stateMutability": "nonpayable",
      "type": "function"
    },
    {
      "inputs": [
        {
          "internalType": "uint256",
          "name": "",
          "type": "uint256"
        }
      ],
      "name": "stakeOwner",
      "outputs": [
        {
          "internalType": "address",
          "name": "",
          "type": "address"
        }
      ],
      "stateMutability": "view",
      "type": "function"
    },
    {
      "inputs": [
        {
          "internalType": "uint256",
          "name": "",
          "type": "uint256"
        },
        {
          "internalType": "uint256",
          "name": "",
          "type": "uint256"
        }
      ],
      "name": "stakePendingRewards",
      "outputs": [
        {
          "internalType": "address",
          "name": "upline",
          "type": "address"
        },
        {
          "internalType": "uint256",
          "name": "amount",
          "type": "uint256"
        }
      ],
      "stateMutability": "view",
      "type": "function"
    },
    {
      "inputs": [],
      "name": "swapBuyTax",
      "outputs": [
        {
          "internalType": "uint256",
          "name": "",
          "type": "uint256"
        }
      ],
      "stateMutability": "view",
      "type": "function"
    },
    {
      "inputs": [
        {
          "internalType": "uint256",
          "name": "jbcAmount",
          "type": "uint256"
        }
      ],
      "name": "swapJBCToMC",
      "outputs": [],
      "stateMutability": "nonpayable",
      "type": "function"
    },
    {
      "inputs": [
        {
          "internalType": "uint256",
          "name": "mcAmount",
          "type": "uint256"
        }
      ],
      "name": "swapMCToJBC",
      "outputs": [],
      "stateMutability": "nonpayable",
      "type": "function"
    },
    {
      "inputs": [],
      "name": "swapReserveJBC",
      "outputs": [
        {
          "internalType": "uint256",
          "name": "",
          "type": "uint256"
        }
      ],
      "stateMutability": "view",
      "type": "function"
    },
    {
      "inputs": [],
      "name": "swapReserveMC",
      "outputs": [
        {
          "internalType": "uint256",
          "name": "",
          "type": "uint256"
        }
      ],
      "stateMutability": "view",
      "type": "function"
    },
    {
      "inputs": [],
      "name": "swapSellTax",
      "outputs": [
        {
          "internalType": "uint256",
          "name": "",
          "type": "uint256"
        }
      ],
      "stateMutability": "view",
      "type": "function"
    },
    {
      "inputs": [],
      "name": "ticketFlexibilityDuration",
      "outputs": [
        {
          "internalType": "uint256",
          "name": "",
          "type": "uint256"
        }
      ],
      "stateMutability": "view",
      "type": "function"
    },
    {
      "inputs": [
        {
          "internalType": "uint256",
          "name": "",
          "type": "uint256"
        }
      ],
      "name": "ticketOwner",
      "outputs": [
        {
          "internalType": "address",
          "name": "",
          "type": "address"
        }
      ],
      "stateMutability": "view",
      "type": "function"
    },
    {
      "inputs": [
        {
          "internalType": "uint256",
          "name": "",
          "type": "uint256"
        },
        {
          "internalType": "uint256",
          "name": "",
          "type": "uint256"
        }
      ],
      "name": "ticketPendingRewards",
      "outputs": [
        {
          "internalType": "address",
          "name": "upline",
          "type": "address"
        },
        {
          "internalType": "uint256",
          "name": "amount",
          "type": "uint256"
        }
      ],
      "stateMutability": "view",
      "type": "function"
    },
    {
      "inputs": [
        {
          "internalType": "address",
          "name": "newOwner",
          "type": "address"
        }
      ],
      "name": "transferOwnership",
      "outputs": [],
      "stateMutability": "nonpayable",
      "type": "function"
    },
    {
      "inputs": [],
      "name": "treasuryPercent",
      "outputs": [
        {
          "internalType": "uint256",
          "name": "",
          "type": "uint256"
        }
      ],
      "stateMutability": "view",
      "type": "function"
    },
    {
      "inputs": [],
      "name": "treasuryWallet",
      "outputs": [
        {
          "internalType": "address",
          "name": "",
          "type": "address"
        }
      ],
      "stateMutability": "view",
      "type": "function"
    },
    {
      "inputs": [
        {
          "internalType": "address",
          "name": "newImplementation",
          "type": "address"
        },
        {
          "internalType": "bytes",
          "name": "data",
          "type": "bytes"
        }
      ],
      "name": "upgradeToAndCall",
      "outputs": [],
      "stateMutability": "payable",
      "type": "function"
    },
    {
      "inputs": [
        {
          "internalType": "address",
          "name": "",
          "type": "address"
        }
      ],
      "name": "userInfo",
      "outputs": [
        {
          "internalType": "address",
          "name": "referrer",
          "type": "address"
        },
        {
          "internalType": "uint256",
          "name": "activeDirects",
          "type": "uint256"
        },
        {
          "internalType": "uint256",
          "name": "teamCount",
          "type": "uint256"
        },
        {
          "internalType": "uint256",
          "name": "totalRevenue",
          "type": "uint256"
        },
        {
          "internalType": "uint256",
          "name": "currentCap",
          "type": "uint256"
        },
        {
          "internalType": "bool",
          "name": "isActive",
          "type": "bool"
        },
        {
          "internalType": "uint256",
          "name": "refundFeeAmount",
          "type": "uint256"
        },
        {
          "internalType": "uint256",
          "name": "teamTotalVolume",
          "type": "uint256"
        },
        {
          "internalType": "uint256",
          "name": "teamTotalCap",
          "type": "uint256"
        },
        {
          "internalType": "uint256",
          "name": "maxTicketAmount",
          "type": "uint256"
        },
        {
          "internalType": "uint256",
          "name": "maxSingleTicketAmount",
          "type": "uint256"
        }
      ],
      "stateMutability": "view",
      "type": "function"
    },
    {
      "inputs": [
        {
          "internalType": "address",
          "name": "",
          "type": "address"
        },
        {
          "internalType": "uint256",
          "name": "",
          "type": "uint256"
        }
      ],
      "name": "userStakes",
      "outputs": [
        {
          "internalType": "uint256",
          "name": "id",
          "type": "uint256"
        },
        {
          "internalType": "uint256",
          "name": "amount",
          "type": "uint256"
        },
        {
          "internalType": "uint256",
          "name": "startTime",
          "type": "uint256"
        },
        {
          "internalType": "uint256",
          "name": "cycleDays",
          "type": "uint256"
        },
        {
          "internalType": "bool",
          "name": "active",
          "type": "bool"
        },
        {
          "internalType": "uint256",
          "name": "paid",
          "type": "uint256"
        }
      ],
      "stateMutability": "view",
      "type": "function"
    },
    {
      "inputs": [
        {
          "internalType": "address",
          "name": "",
          "type": "address"
        }
      ],
      "name": "userTicket",
      "outputs": [
        {
          "internalType": "uint256",
          "name": "ticketId",
          "type": "uint256"
        },
        {
          "internalType": "uint256",
          "name": "amount",
          "type": "uint256"
        },
        {
          "internalType": "uint256",
          "name": "purchaseTime",
          "type": "uint256"
        },
        {
          "internalType": "bool",
          "name": "exited",
          "type": "bool"
        }
      ],
      "stateMutability": "view",
      "type": "function"
    },
    {
      "inputs": [
        {
          "internalType": "address",
          "name": "_to",
          "type": "address"
        },
        {
          "internalType": "uint256",
          "name": "_amount",
          "type": "uint256"
        }
      ],
      "name": "withdrawLevelRewardPool",
      "outputs": [],
      "stateMutability": "nonpayable",
      "type": "function"
    },
    {
      "inputs": [
        {
          "internalType": "address",
          "name": "_toMC",
          "type": "address"
        },
        {
          "internalType": "uint256",
          "name": "_amountMC",
          "type": "uint256"
        },
        {
          "internalType": "address",
          "name": "_toJBC",
          "type": "address"
        },
        {
          "internalType": "uint256",
          "name": "_amountJBC",
          "type": "uint256"
        }
      ],
      "name": "withdrawSwapReserves",
      "outputs": [],
      "stateMutability": "nonpayable",
      "type": "function"
    }
  ],
  "bytecode": "0x60a0604052306080523480156200001557600080fd5b506200002062000026565b620000da565b7ff0c57e16840df040f15088dc2f81fe391c3923bec73e23a9662efc9c229c6a00805468010000000000000000900460ff1615620000775760405163f92ee8a960e01b815260040160405180910390fd5b80546001600160401b0390811614620000d75780546001600160401b0319166001600160401b0390811782556040519081527fc7f505b2f371ae2175ee4913f4499e1f2633a7b5936321eed1cdaeb6115181d29060200160405180910390a15b50565b60805161580862000104600039600081816140650152818161408e01526141c601526158086000f3fe6080604052600436106102f45760003560e01c806301d62efb146102f957806304ef9d581461031b57806304f618cb1461034457806305ad3935146103645780630a5c4567146103915780630e2be210146103b15780631427f616146103d85780631788513c146103ed578063182c84cc1461040d5780631959a0021461042d5780631d0dac761461050c57806327f082f414610522578063372500ab146105385780633dbd46bd1461054d5780634626402b1461058357806347194001146105a3578063488b5d97146105d15780634ea4c6b3146105e65780634f1ef2861461060657806352778b051461061957806352d1902d146106395780636031a52f1461064e57806367dd74ca146106645780636dd6682714610684578063715018a61461069a57806374b0eecf146106af57806375506c96146106cf57806375f0a874146106e557806377a2a54014610705578063813380cd1461071b57806383672f3e1461074957806386481d40146105a35780638710bcaa1461076957806388481b61146107d057806388fd4d33146107e55780638a859a85146108055780638c0eaa481461081a5780638da5cb5b1461082f57806390b0eb51146108445780639370b08014610864578063952539921461087a57806399b6024d1461089a5780639cd441da146108ba5780639d99eca4146108da578063ac8f50aa146108fa578063ad3cb1cc1461091a578063b048a4bb14610958578063b5d5b5fa14610982578063b759936b146109d1578063bd594dcf146109e7578063be040fb0146109fd578063c2ff12fc14610a12578063cc2a9a5b14610a48578063ccf6194414610a68578063cea9d26f14610a7e578063ceaa366d14610a9e578063d0f1647014610ab4578063d2c8e0e514610ad4578063d2f8253614610b01578063d4f0014214610b20578063d8020a1814610b40578063deab8aea14610b56578063dec7fa3b14610b76578063e306744914610b8c578063e4412f6814610ba2578063ece7126614610bb8578063f2fde38b14610bd8575b600080fd5b34801561030557600080fd5b5061031961031436600461507b565b610bf8565b005b34801561032757600080fd5b50610331600b5481565b6040519081526020015b60405180910390f35b34801561035057600080fd5b5061031961035f3660046150d0565b610c8e565b34801561037057600080fd5b5061038461037f3660046150eb565b610d93565b60405161033b9190615115565b34801561039d57600080fd5b506103196103ac366004615129565b610dcb565b3480156103bd57600080fd5b506103c6600281565b60405160ff909116815260200161033b565b3480156103e457600080fd5b506103c6600081565b3480156103f957600080fd5b50600154610384906001600160a01b031681565b34801561041957600080fd5b50610331610428366004615129565b6110a6565b34801561043957600080fd5b506104af6104483660046150d0565b600f60205260009081526040902080546001820154600283015460038401546004850154600586015460068701546007880154600889015460098a0154600a909a01546001600160a01b0390991699979896979596949560ff90941694929391929091908b565b604080516001600160a01b03909c168c5260208c019a909a52988a01979097526060890195909552608088019390935290151560a087015260c086015260e08501526101008401526101208301526101408201526101600161033b565b34801561051857600080fd5b5061033160175481565b34801561052e57600080fd5b50610331600d5481565b34801561054457600080fd5b506103196110e0565b34801561055957600080fd5b50610384610568366004615129565b601d602052600090815260409020546001600160a01b031681565b34801561058f57600080fd5b50600354610384906001600160a01b031681565b3480156105af57600080fd5b506105c36105be366004615129565b611750565b60405161033b929190615142565b3480156105dd57600080fd5b50610331603c81565b3480156105f257600080fd5b50610319610601366004615150565b611765565b610319610614366004615188565b611b2f565b34801561062557600080fd5b50610319610634366004615129565b611b4e565b34801561064557600080fd5b50610331611e18565b34801561065a57600080fd5b5061033160185481565b34801561067057600080fd5b5061031961067f366004615129565b611e35565b34801561069057600080fd5b5061033160145481565b3480156106a657600080fd5b50610319612435565b3480156106bb57600080fd5b506103196106ca366004615294565b612447565b3480156106db57600080fd5b5061033160195481565b3480156106f157600080fd5b50600254610384906001600160a01b031681565b34801561071157600080fd5b5061033160165481565b34801561072757600080fd5b5061073b610736366004615150565b6125e1565b60405161033b9291906152ff565b34801561075557600080fd5b50610319610764366004615318565b612627565b34801561077557600080fd5b506107ae6107843660046150d0565b60106020526000908152604090208054600182015460028301546003909301549192909160ff1684565b604080519485526020850193909352918301521515606082015260800161033b565b3480156107dc57600080fd5b506103c6600481565b3480156107f157600080fd5b50600454610384906001600160a01b031681565b34801561081157600080fd5b506103c6600181565b34801561082657600080fd5b506103c6600381565b34801561083b57600080fd5b506103846126c1565b34801561085057600080fd5b5061031961085f366004615150565b6126dc565b34801561087057600080fd5b50610331600e5481565b34801561088657600080fd5b50600054610384906001600160a01b031681565b3480156108a657600080fd5b506103196108b53660046150eb565b612720565b3480156108c657600080fd5b506103196108d5366004615150565b6127fc565b3480156108e657600080fd5b506103196108f5366004615129565b612961565b34801561090657600080fd5b5061073b610915366004615150565b6129a5565b34801561092657600080fd5b5061094b604051806040016040528060058152602001640352e302e360dc1b81525081565b60405161033b9190615390565b34801561096457600080fd5b506015546109729060ff1681565b604051901515815260200161033b565b34801561098e57600080fd5b506109a261099d3660046150eb565b6129c1565b6040805196875260208701959095529385019290925260608401521515608083015260a082015260c00161033b565b3480156109dd57600080fd5b50610331601e5481565b3480156109f357600080fd5b5061033160075481565b348015610a0957600080fd5b50610319612a1b565b348015610a1e57600080fd5b50610384610a2d366004615129565b601b602052600090815260409020546001600160a01b031681565b348015610a5457600080fd5b50610319610a633660046153c3565b613343565b348015610a7457600080fd5b5061033160065481565b348015610a8a57600080fd5b50610319610a99366004615437565b6134f4565b348015610aaa57600080fd5b50610331600a5481565b348015610ac057600080fd5b50610319610acf366004615473565b6135ae565b348015610ae057600080fd5b50610af4610aef3660046150d0565b613632565b60405161033b91906154b6565b348015610b0d57600080fd5b5060155461097290610100900460ff1681565b348015610b2c57600080fd5b50610319610b3b366004615503565b6136a8565b348015610b4c57600080fd5b5061033160085481565b348015610b6257600080fd5b50600554610384906001600160a01b031681565b348015610b8257600080fd5b50610331600c5481565b348015610b9857600080fd5b50610331601a5481565b348015610bae57600080fd5b5061033160095481565b348015610bc457600080fd5b50610319610bd3366004615129565b613809565b348015610be457600080fd5b50610319610bf33660046150d0565b613846565b610c00613884565b6015805461ffff191683151561ff001981169190911761010084151502179091556040519081527fb886fcb5b9c12916f26d967ebe962dbd51ec249fb55961da39c851cdfc10115c9060200160405180910390a160405181151581527f03cb373f89de891077fe47cec43663b6727713de0337af46bebd1178122251b7906020015b60405180910390a15050565b336000908152600f60205260409020546001600160a01b031615610cc55760405163682a906560e01b815260040160405180910390fd5b336001600160a01b03821603610cee57604051631acade8960e31b815260040160405180910390fd5b6001600160a01b038116610d155760405163e6c4247b60e01b815260040160405180910390fd5b336000818152600f6020908152604080832080546001600160a01b0387166001600160a01b0319918216811790925581855260128452828520805460018101825590865293852090930180549093168517909255519092917fa6dbb5aa28f35437de94d685d66edce5fb4812196b4984b91dfd5a7b38c0fb3091a350565b60126020528160005260406000208181548110610daf57600080fd5b6000918252602090912001546001600160a01b03169150829050565b80600003610dec5760405163162908e360e11b815260040160405180910390fd5b6000546040516323b872dd60e01b81526001600160a01b03909116906323b872dd90610e2090339030908690600401615547565b6020604051808303816000875af1158015610e3f573d6000803e3d6000fd5b505050506040513d601f19601f82011682018060405250810190610e63919061556b565b50600060175482610e74919061559e565b9050600082601654610e8691906155b5565b90506000610e9482846155c8565b905060006064600d5483610ea8919061559e565b610eb291906155c8565b90506000610ec082846155ea565b6001546040516370a0823160e01b815291925084916001600160a01b03909116906370a0823190610ef5903090600401615115565b602060405180830381865afa158015610f12573d6000803e3d6000fd5b505050506040513d601f19601f82011682018060405250810190610f3691906155fd565b1015610f55576040516343c7ad8160e11b815260040160405180910390fd5b8560166000828254610f6791906155b5565b925050819055508260176000828254610f8091906155ea565b9091555050600154604051630852cd8d60e31b8152600481018490526001600160a01b03909116906342966c6890602401600060405180830381600087803b158015610fcb57600080fd5b505af1158015610fdf573d6000803e3d6000fd5b505060015460405163a9059cbb60e01b81526001600160a01b03909116925063a9059cbb915061101590339085906004016152ff565b6020604051808303816000875af1158015611034573d6000803e3d6000fd5b505050506040513d601f19601f82011682018060405250810190611058919061556b565b50336001600160a01b03167f36864aeefce16bc4aaceeb6b0cdfb2ad1455a8cb4ccb0db148a2bc6e7166f97c87838560405161109693929190615616565b60405180910390a2505050505050565b6000600382106110b85750600f919050565b600282106110c85750600a919050565b600182106110d857506005919050565b506000919050565b336000908152601060205260409020600181015415806111045750600381015460ff165b1561112257604051634065aaf160e11b815260040160405180910390fd5b33600090815260116020526040812090805b82548110156113875782818154811061114f5761114f61562c565b600091825260209091206004600690920201015460ff161561137f57600083828154811061117f5761117f61562c565b9060005260206000209060060201600301546007036111a2575062cb7356611209565b8382815481106111b4576111b461562c565b906000526020600020906006020160030154600f036111d7575062fe502b611209565b8382815481106111e9576111e961562c565b906000526020600020906006020160030154601e0361120957506301312d005b6000603c85848154811061121f5761121f61562c565b9060005260206000209060060201600201544261123c91906155ea565b61124691906155c8565b905084838154811061125a5761125a61562c565b90600052602060002090600602016003015481111561129a578483815481106112855761128561562c565b90600052602060002090600602016003015490505b806000036112a957505061137f565b6000633b9aca0082848887815481106112c4576112c461562c565b9060005260206000209060060201600101546112e0919061559e565b6112ea919061559e565b6112f491906155c8565b9050600086858154811061130a5761130a61562c565b90600052602060002090600602016005015490508082111561137a57600061133282846155ea565b905061133e81886155b5565b9650808887815481106113535761135361562c565b9060005260206000209060060201600501600082825461137391906155b5565b9091555050505b505050505b600101611134565b50806000036113a957604051630fec21fd60e21b815260040160405180910390fd5b336000908152600f6020526040902060048101546003909101546113ce9083906155b5565b11156113fb57336000908152600f6020526040902060038101546004909101546113f891906155ea565b90505b806000036114115761140c336138b6565b505050565b336000908152600f6020526040812060030180548392906114339084906155b5565b90915550600090506114466002836155c8565b905060006114556002846155c8565b600080546040516370a0823160e01b8152929350909184916001600160a01b0316906370a082319061148b903090600401615115565b602060405180830381865afa1580156114a8573d6000803e3d6000fd5b505050506040513d601f19601f820116820180604052508101906114cc91906155fd565b101580156114da5750600083115b156115595760005460405163a9059cbb60e01b81526001600160a01b039091169063a9059cbb9061151190339087906004016152ff565b6020604051808303816000875af1158015611530573d6000803e3d6000fd5b505050506040513d601f19601f82011682018060405250810190611554919061556b565b508290505b600060175460001461158c5760175460165461157d90670de0b6b3a764000061559e565b61158791906155c8565b611596565b670de0b6b3a76400005b90506000816115ad85670de0b6b3a764000061559e565b6115b791906155c8565b6001546040516370a0823160e01b815291925060009183916001600160a01b0316906370a08231906115ed903090600401615115565b602060405180830381865afa15801561160a573d6000803e3d6000fd5b505050506040513d601f19601f8201168201806040525081019061162e91906155fd565b1015801561163c5750600082115b156116bb5760015460405163a9059cbb60e01b81526001600160a01b039091169063a9059cbb9061167390339086906004016152ff565b6020604051808303816000875af1158015611692573d6000803e3d6000fd5b505050506040513d601f19601f820116820180604052508101906116b6919061556b565b508190505b336001600160a01b03166000805160206157938339815191528860006040516116e5929190615642565b60405180910390a288546040513391600080516020615713833981519152916117149188918691600091615653565b60405180910390a2336000908152600f6020526040902060048101546003909101541061174457611744336138b6565b5050505050505050505b565b60008061175c83613bf4565b91509150915091565b336000908152601060205260408120600181015490910361179957604051634065aaf160e11b815260040160405180910390fd5b600381015460ff16156117bf57604051631ecb2c4f60e31b815260040160405180910390fd5b816007141580156117d1575081600f14155b80156117de575081601e14155b156117fc57604051634dc7f5ff60e11b815260040160405180910390fd5b8260000361181d5760405163162908e360e11b815260040160405180910390fd5b6000546040516323b872dd60e01b81526001600160a01b03909116906323b872dd9061185190339030908890600401615547565b6020604051808303816000875af1158015611870573d6000803e3d6000fd5b505050506040513d601f19601f82011682018060405250810190611894919061556b565b50601980549060006118a583615671565b9091555050336000818152601160209081526040808320815160c0810183526019805482528185018a815242838601908152606084018b815260016080860181815260a087018b815288548084018a55988c528a8c2097516006909902909701978855935190870155905160028601555160038501555160048401805460ff1916911515919091179055905160059092019190915580548452601d90925290912080546001600160a01b031916831790555461196391908590613cbb565b61196c33613f19565b336001600160a01b03167fa8a1b9e33e503eed12bf7e7c8c01c7f3b60217a496bddd0f5db351dd8c056c1c84846019546040516119ab93929190615616565b60405180910390a2336000908152600f60205260409020600601548015611b2957336000908152600f60205260408120600601556016548111801590611a6057506000546040516370a0823160e01b815282916001600160a01b0316906370a0823190611a1c903090600401615115565b602060405180830381865afa158015611a39573d6000803e3d6000fd5b505050506040513d601f19601f82011682018060405250810190611a5d91906155fd565b10155b15611b29578060166000828254611a7791906155ea565b909155505060005460405163a9059cbb60e01b81526001600160a01b039091169063a9059cbb90611aae90339085906004016152ff565b6020604051808303816000875af1158015611acd573d6000803e3d6000fd5b505050506040513d601f19601f82011682018060405250810190611af1919061556b565b5060405181815233907f3437b9ea7fa19c6d233dd70cc787a70fab87cee64d8ba4571512cc84402748f9906020015b60405180910390a25b50505050565b611b3761405a565b611b40826140ff565b611b4a8282614107565b5050565b80600003611b6f5760405163162908e360e11b815260040160405180910390fd5b6001546040516323b872dd60e01b81526001600160a01b03909116906323b872dd90611ba390339030908690600401615547565b6020604051808303816000875af1158015611bc2573d6000803e3d6000fd5b505050506040513d601f19601f82011682018060405250810190611be6919061556b565b5060006064600e5483611bf9919061559e565b611c0391906155c8565b90506000611c1182846155ea565b600154604051630852cd8d60e31b8152600481018590529192506001600160a01b0316906342966c6890602401600060405180830381600087803b158015611c5857600080fd5b505af1158015611c6c573d6000803e3d6000fd5b50505050600060165482611c80919061559e565b9050600082601754611c9291906155b5565b90506000611ca082846155c8565b6000546040516370a0823160e01b815291925082916001600160a01b03909116906370a0823190611cd5903090600401615115565b602060405180830381865afa158015611cf2573d6000803e3d6000fd5b505050506040513d601f19601f82011682018060405250810190611d1691906155fd565b1015611d35576040516343c7ad8160e11b815260040160405180910390fd5b8360176000828254611d4791906155b5565b925050819055508060166000828254611d6091906155ea565b909155505060005460405163a9059cbb60e01b81526001600160a01b039091169063a9059cbb90611d9790339085906004016152ff565b6020604051808303816000875af1158015611db6573d6000803e3d6000fd5b505050506040513d601f19601f82011682018060405250810190611dda919061556b565b50336001600160a01b03167f223c8ad0806f634524940a8595f819c5cfc7b1f4f4f45791269301df0a7e61d587838860405161109693929190615616565b6000611e226141bb565b5060008051602061575383398151915290565b611e3e33614204565b8068056bc75e2d6310000014158015611e60575080681043561a882930000014155b8015611e75575080681b1ae4d6e2ef50000014155b8015611e8a575080683635c9adc5dea0000014155b15611ea85760405163162908e360e11b815260040160405180910390fd5b6000546040516323b872dd60e01b81526001600160a01b03909116906323b872dd90611edc90339030908690600401615547565b6020604051808303816000875af1158015611efb573d6000803e3d6000fd5b505050506040513d601f19601f82011682018060405250810190611f1f919061556b565b50336000908152601060205260409020600381015460ff1615611fa55760188054906000611f4c83615671565b90915550506018548155600181018290554260028201556003808201805460ff19169055336000908152600f60205260408120820155611f8d90839061559e565b336000908152600f602052604090206004015561202f565b8060010154600003611fc15760188054906000611f4c83615671565b81816001016000828254611fd591906155b5565b9091555050336000908152600f602052604090206005015460ff1615611ffc574260028201555b61200782600361559e565b336000908152600f6020526040812060040180549091906120299084906155b5565b90915550505b336000908152600f602052604090206009015460018201541115612066576001810154336000908152600f60205260409020600901555b336000908152600f60205260409020600a015482111561209657336000908152600f60205260409020600a018290555b80546000908152601b6020908152604080832080546001600160a01b031916339081179091558352600f9091529020546001600160a01b031680158015906120f957506001600160a01b0381166000908152600f602052604090206005015460ff165b15612172576000606460065485612110919061559e565b61211a91906155c8565b9050600061212a838360026143db565b9050801561216b57835460405133916001600160a01b038616916000805160206156f38339815191529161216291869160029161568a565b60405180910390a35b5050612208565b6000546002546006546001600160a01b039283169263a9059cbb92169060649061219c908861559e565b6121a691906155c8565b6040518363ffffffff1660e01b81526004016121c39291906152ff565b6020604051808303816000875af11580156121e2573d6000803e3d6000fd5b505050506040513d601f19601f82011682018060405250810190612206919061556b565b505b6122123384614574565b6000546002546008546001600160a01b039283169263a9059cbb92169060649061223c908861559e565b61224691906155c8565b6040518363ffffffff1660e01b81526004016122639291906152ff565b6020604051808303816000875af1158015612282573d6000803e3d6000fd5b505050506040513d601f19601f820116820180604052508101906122a6919061556b565b5060006064600954856122b9919061559e565b6122c391906155c8565b90506122ce81614799565b600054600454600a546001600160a01b039283169263a9059cbb9216906064906122f8908961559e565b61230291906155c8565b6040518363ffffffff1660e01b815260040161231f9291906152ff565b6020604051808303816000875af115801561233e573d6000803e3d6000fd5b505050506040513d601f19601f82011682018060405250810190612362919061556b565b50600054600354600b546001600160a01b039283169263a9059cbb92169060649061238d908961559e565b61239791906155c8565b6040518363ffffffff1660e01b81526004016123b49291906152ff565b6020604051808303816000875af11580156123d3573d6000803e3d6000fd5b505050506040513d601f19601f820116820180604052508101906123f7919061556b565b5061240133613f19565b825460405133917f2a91574e12ad96234e84923e146b0946ecfb871cd8d5534dc1fdcbe87a7c01b391611b20918891615142565b61243d613884565b61174e60006149cd565b61244f613884565b82811461246f5760405163980a3f3160e01b815260040160405180910390fd5b60005b838110156125a6576000600f60008787858181106124925761249261562c565b90506020020160208101906124a791906150d0565b6001600160a01b03166001600160a01b031681526020019081526020016000206002015490508383838181106124df576124df61562c565b90506020020135600f60008888868181106124fc576124fc61562c565b905060200201602081019061251191906150d0565b6001600160a01b031681526020810191909152604001600020600201558585838181106125405761254061562c565b905060200201602081019061255591906150d0565b6001600160a01b0316600080516020615733833981519152828686868181106125805761258061562c565b90506020020135604051612595929190615142565b60405180910390a250600101612472565b506040518381527f9c03d1f6ba485b6cf0a120117d651729467751d3079318d05171b6f389f6bf4b906020015b60405180910390a150505050565b601360205281600052604060002081815481106125fd57600080fd5b6000918252602090912060029091020180546001909101546001600160a01b039091169250905082565b61262f613884565b600280546001600160a01b038681166001600160a01b031992831681179093556003805487831690841681179091556004805487841690851681179091556005805493871693909416831790935560408051948552602085019190915283019190915260608201527f213f1de8063c19612a553f1480ff341bea689d36a56a2089f1b9060d599b5d83906080016125d3565b6000806126cc614a29565b546001600160a01b031692915050565b6126e4613884565b600d829055600e8190556040517f4e9dd03193a0c81552fb8e6d32280f0d7e0ce8087241dc3d17ef3d193ee231d790610c829084908490615142565b612728613884565b80601e600082825461273a91906155ea565b909155505060005460405163a9059cbb60e01b81526001600160a01b039091169063a9059cbb9061277190859085906004016152ff565b6020604051808303816000875af1158015612790573d6000803e3d6000fd5b505050506040513d601f19601f820116820180604052508101906127b4919061556b565b50816001600160a01b03167f27971ee1acbfbdfb20656657ceb2e0e7b519b9e60fe1a6b1f6d27b159f4a607c826040516127f091815260200190565b60405180910390a25050565b612804613884565b811561289a576000546040516323b872dd60e01b81526001600160a01b03909116906323b872dd9061283e90339030908790600401615547565b6020604051808303816000875af115801561285d573d6000803e3d6000fd5b505050506040513d601f19601f82011682018060405250810190612881919061556b565b50816016600082825461289491906155b5565b90915550505b8015612930576001546040516323b872dd60e01b81526001600160a01b03909116906323b872dd906128d490339030908690600401615547565b6020604051808303816000875af11580156128f3573d6000803e3d6000fd5b505050506040513d601f19601f82011682018060405250810190612917919061556b565b50806017600082825461292a91906155b5565b90915550505b7f38f8a0c92f4c5b0b6877f878cb4c0c8d348a47b76d716c8e78f425043df9515b8282604051610c82929190615142565b612969613884565b60148190556040518181527fd28d9e4ce68d89af7920cb8618e342a78f51e545c530ce60f1cb1d6f0235b47f906020015b60405180910390a150565b601c60205281600052604060002081815481106125fd57600080fd5b601160205281600052604060002081815481106129dd57600080fd5b600091825260209091206006909102018054600182015460028301546003840154600485015460059095015493965091945092909160ff9091169086565b601554610100900460ff16612a625760405162461bcd60e51b8152602060048201526008602482015267111a5cd8589b195960c21b60448201526064015b60405180910390fd5b336000908152601160205260408120908080805b8454811015612dd057848181548110612a9157612a9161562c565b600091825260209091206004600690920201015460ff1615612dc8576000603c868381548110612ac357612ac361562c565b906000526020600020906006020160030154612adf919061559e565b868381548110612af157612af161562c565b906000526020600020906006020160020154612b0d91906155b5565b9050804210612dc6576000868381548110612b2a57612b2a61562c565b906000526020600020906006020160030154600703612b4d575062cb7356612bb4565b868381548110612b5f57612b5f61562c565b906000526020600020906006020160030154600f03612b82575062fe502b612bb4565b868381548110612b9457612b9461562c565b906000526020600020906006020160030154601e03612bb457506301312d005b6000633b9aca00888581548110612bcd57612bcd61562c565b906000526020600020906006020160030154838a8781548110612bf257612bf261562c565b906000526020600020906006020160010154612c0e919061559e565b612c18919061559e565b612c2291906155c8565b90506000888581548110612c3857612c3861562c565b906000526020600020906006020160050154821115612c8357888581548110612c6357612c6361562c565b90600052602060002090600602016005015482612c8091906155ea565b90505b612c8d81876155b5565b955080898681548110612ca257612ca261562c565b90600052602060002090600602016005016000828254612cc291906155b5565b9091555050336000908152600f602052604081206009015490819003612cf75750336000908152601060205260409020600101545b60006064600c5483612d09919061559e565b612d1391906155c8565b905060008b8881548110612d2957612d2961562c565b9060005260206000209060060201600101549050808b612d4991906155b5565b9a50612d55828b6155b5565b995060008c8981548110612d6b57612d6b61562c565b906000526020600020906006020160040160006101000a81548160ff021916908315150217905550612dbf8c8981548110612da857612da861562c565b906000526020600020906006020160000154614a4d565b5050505050505b505b600101612a76565b506000831180612de05750600081115b612e205760405162461bcd60e51b81526020600482015260116024820152704e6f7468696e6720746f2072656465656d60781b6044820152606401612a59565b8115612eb6576000546040516323b872dd60e01b81526001600160a01b03909116906323b872dd90612e5a90339030908790600401615547565b6020604051808303816000875af1158015612e79573d6000803e3d6000fd5b505050506040513d601f19601f82011682018060405250810190612e9d919061556b565b508160166000828254612eb091906155b5565b90915550505b801561324457336000908152600f602052604081206003810154600490910154612ee091906155ea565b905080821115612f1f57336001600160a01b03166000805160206157738339815191528383604051612f13929190615142565b60405180910390a28091505b811561324257336000908152600f602052604081206003018054849290612f479084906155b5565b9091555060009050612f5a6002846155c8565b90506000612f696002856155c8565b600080546040516370a0823160e01b8152929350909184916001600160a01b0316906370a0823190612f9f903090600401615115565b602060405180830381865afa158015612fbc573d6000803e3d6000fd5b505050506040513d601f19601f82011682018060405250810190612fe091906155fd565b10158015612fee5750600083115b1561306d5760005460405163a9059cbb60e01b81526001600160a01b039091169063a9059cbb9061302590339087906004016152ff565b6020604051808303816000875af1158015613044573d6000803e3d6000fd5b505050506040513d601f19601f82011682018060405250810190613068919061556b565b508290505b60006017546000146130a05760175460165461309190670de0b6b3a764000061559e565b61309b91906155c8565b6130aa565b670de0b6b3a76400005b90506000816130c185670de0b6b3a764000061559e565b6130cb91906155c8565b6001546040516370a0823160e01b815291925060009183916001600160a01b0316906370a0823190613101903090600401615115565b602060405180830381865afa15801561311e573d6000803e3d6000fd5b505050506040513d601f19601f8201168201806040525081019061314291906155fd565b101580156131505750600082115b156131cf5760015460405163a9059cbb60e01b81526001600160a01b039091169063a9059cbb9061318790339086906004016152ff565b6020604051808303816000875af11580156131a6573d6000803e3d6000fd5b505050506040513d601f19601f820116820180604052508101906131ca919061556b565b508190505b336001600160a01b03166000805160206157938339815191528960006040516131f9929190615642565b60405180910390a2336000818152601060205260408082205490516000805160206157138339815191529261323392899287929190615653565b60405180910390a25050505050505b505b82156132c15760005460405163a9059cbb60e01b81526001600160a01b039091169063a9059cbb9061327c90339087906004016152ff565b6020604051808303816000875af115801561329b573d6000803e3d6000fd5b505050506040513d601f19601f820116820180604052508101906132bf919061556b565b505b336000908152600f6020526040812060060180548492906132e39084906155b5565b909155505060405133906000805160206157b38339815191529061330a9086908690615142565b60405180910390a261331b33613f19565b336000908152600f60205260409020600481015460039091015410611b2957611b29336138b6565b600061334d614c14565b805490915060ff600160401b82041615906001600160401b03166000811580156133745750825b90506000826001600160401b031660011480156133905750303b155b90508115801561339e575080155b156133bc5760405163f92ee8a960e01b815260040160405180910390fd5b84546001600160401b031916600117855583156133e557845460ff60401b1916600160401b1785555b6133ee33614c3f565b6133f6614c50565b600080546001600160a01b03199081166001600160a01b038e8116919091179092556001805482168d84161781556002805483168d85161790556003805483168c85161790556004805483168b85161790556005805490921692891692909217815560196006819055600f6007556008829055600991909155600a819055600b819055600c919091556032600d55600e556203f4806014556015805461ffff191661010117905542601a5583156134e757845460ff60401b19168555604051600181527fc7f505b2f371ae2175ee4913f4499e1f2633a7b5936321eed1cdaeb6115181d29060200160405180910390a15b5050505050505050505050565b6134fc613884565b60405163a9059cbb60e01b81526001600160a01b0384169063a9059cbb9061352a90859085906004016152ff565b6020604051808303816000875af1158015613549573d6000803e3d6000fd5b505050506040513d601f19601f8201168201806040525081019061356d919061556b565b507f77023e19c7343ad491fd706c36335ca0e738340a91f29b1fd81e2673d44896c48383836040516135a193929190615547565b60405180910390a1505050565b6135b6613884565b6006869055600785905560088490556009839055600a829055600b8190556040805187815260208101879052908101859052606081018490526080810183905260a081018290527f66682b276e4cd1a4e1f68b55b1143766c5332f472eb593cf2a70a25d9d5d99179060c00160405180910390a1505050505050565b6001600160a01b03811660009081526012602090815260409182902080548351818402810184019094528084526060939283018282801561369c57602002820191906000526020600020905b81546001600160a01b0316815260019091019060200180831161367e575b50505050509050919050565b6136b0613884565b82156137445782601660008282546136c891906155ea565b909155505060005460405163a9059cbb60e01b81526001600160a01b039091169063a9059cbb906136ff90879087906004016152ff565b6020604051808303816000875af115801561371e573d6000803e3d6000fd5b505050506040513d601f19601f82011682018060405250810190613742919061556b565b505b80156137d857806017600082825461375c91906155ea565b909155505060015460405163a9059cbb60e01b81526001600160a01b039091169063a9059cbb9061379390859085906004016152ff565b6020604051808303816000875af11580156137b2573d6000803e3d6000fd5b505050506040513d601f19601f820116820180604052508101906137d6919061556b565b505b7f520bc217d25ef4588524228dffcfa518f4ad52178c71d49b8061d016213cd31183826040516125d3929190615142565b613811613884565b600c8190556040518181527fc7f6975dcffc536e6e57dd1d1dea810fff534a70563baf2d6f977b119bd00e1b9060200161299a565b61384e613884565b6001600160a01b038116613878576000604051631e4fbdf760e01b8152600401612a599190615115565b613881816149cd565b50565b3361388d6126c1565b6001600160a01b03161461174e573360405163118cdaa760e01b8152600401612a599190615115565b6001600160a01b0381166000908152601060205260409020600381015460ff16611b4a5760038101805460ff191660011790556001600160a01b03821660009081526011602052604081209080805b8354811015613a28578381815481106139205761392061562c565b600091825260209091206004600690920201015460ff1615613a2057600061012c600c548684815481106139565761395661562c565b9060005260206000209060060201600101546002613974919061559e565b61397e919061559e565b61398891906155c8565b9050600085838154811061399e5761399e61562c565b90600052602060002090600602016001015490508181106139ca576139c382826155ea565b90506139cf565b600091505b6139d981866155b5565b94506139e582856155b5565b935060008684815481106139fb576139fb61562c565b60009182526020909120600690910201600401805460ff191691151591909117905550505b600101613905565b508115613aa65760005460405163a9059cbb60e01b81526001600160a01b039091169063a9059cbb90613a6190889086906004016152ff565b6020604051808303816000875af1158015613a80573d6000803e3d6000fd5b505050506040513d601f19601f82011682018060405250810190613aa4919061556b565b505b8015613add576001600160a01b0385166000908152600f602052604081206006018054839290613ad79084906155b5565b90915550505b6001600160a01b038086166000908152600f6020526040902060058101805460ff198116909155905460ff9091169116818015613b2257506001600160a01b03811615155b8015613b4857506001600160a01b0381166000908152600f602052604090206001015415155b15613b7a576001600160a01b0381166000908152600f60205260408120600101805491613b74836156a3565b91905055505b866001600160a01b03166000805160206157b38339815191528585604051613ba3929190615142565b60405180910390a285546040519081526001600160a01b038816907f920bb94eb3842a728db98228c375ff6b00c5bc5a54fac6736155517a0a20a61a9060200160405180910390a250505050505050565b6000806127108310613c0c5750600992602d92509050565b6113888310613c215750600892602892509050565b6107d08310613c365750600792602392509050565b6103e88310613c4b5750600692601e92509050565b6101f48310613c605750600592601992509050565b60c88310613c745750600492601492509050565b60648310613c885750600392600f92509050565b60328310613c9c5750600292600a92509050565b60148310613cb05750600192600592509050565b506000928392509050565b6001600160a01b038084166000908152600f602052604081205490911690805b6001600160a01b03831615801590613cf35750601481105b15613f11576001600160a01b0383166000908152600f602052604090206005015460ff16613d4b576001600160a01b039283166000908152600f60205260409020549092169180613d4381615671565b915050613cdb565b6001600160a01b038316600090815260106020526040902060018101541580613d785750600381015460ff165b15613dae576001600160a01b039384166000908152600f60205260409020549093169281613da581615671565b92505050613cdb565b6001600160a01b0384166000908152600f6020526040812060020154613dd390611750565b91505083811115613ed0576000613dea85836155ea565b60018401549091508890811115613e02575060018301545b60006064613e10848461559e565b613e1a91906155c8565b60008a8152601c60209081526040808320815180830183526001600160a01b038e81168083528286018881528454600180820187559589528789209451600291820290950180546001600160a01b03191695909416949094178355519190930155818552600f9093529281902090910154905192935090918b917fcf2f68cc66431465b13b971ea50f7d9d3c6b29a6d132d354cc3c9cf9585ab59f91613ec1918691615142565b60405180910390a38396505050505b602d8110613edf575050613f11565b6001600160a01b039485166000908152600f60205260409020549094169382613f0781615671565b9350505050613cdb565b505050505050565b6001600160a01b03811660009081526010602052604081209080613f3c84614c58565b118015613f4e5750600382015460ff16155b6001600160a01b0384166000908152600f602052604090206005015490915060ff1680151582151503613f815750505050565b6001600160a01b038481166000908152600f6020526040902060058101805460ff1916851515179055541680613fb8575050505050565b8215613ffa576001600160a01b0381166000908152600f60205260408120600101805491613fe583615671565b9190505550613ff5856001614cea565b614053565b6001600160a01b0381166000908152600f602052604090206001015415614053576001600160a01b0381166000908152600f60205260408120600101805491614042836156a3565b919050555061405385600019614cea565b5050505050565b306001600160a01b037f00000000000000000000000000000000000000000000000000000000000000001614806140e157507f00000000000000000000000000000000000000000000000000000000000000006001600160a01b03166140d5600080516020615753833981519152546001600160a01b031690565b6001600160a01b031614155b1561174e5760405163703e46dd60e11b815260040160405180910390fd5b613881613884565b816001600160a01b03166352d1902d6040518163ffffffff1660e01b8152600401602060405180830381865afa925050508015614161575060408051601f3d908101601f1916820190925261415e918101906155fd565b60015b6141805781604051634c9c8ce360e01b8152600401612a599190615115565b60008051602061575383398151915281146141b157604051632a87526960e21b815260048101829052602401612a59565b61140c8383614e1e565b306001600160a01b037f0000000000000000000000000000000000000000000000000000000000000000161461174e5760405163703e46dd60e11b815260040160405180910390fd5b6001600160a01b0381166000908152601060205260409020600181015415806142315750600381015460ff165b1561423a575050565b600061424583614c58565b111561424f575050565b601454816002015461426191906155b5565b421161426b575050565b805460018201546001600160a01b038085166000908152600f60205260409020805460059091015491169060ff1680156142ad57506001600160a01b03811615155b80156142d357506001600160a01b0381166000908152600f602052604090206001015415155b15614305576001600160a01b0381166000908152600f602052604081206001018054916142ff836156a3565b91905055505b6001600160a01b0385166000908152600f6020526040812060058101805460ff1990811690915560038083018490556004909201839055828755600187018390556002870192909255850180549091169055821561439157600083815260136020526040812061437491615027565b6000838152601b6020526040902080546001600160a01b03191690555b846001600160a01b03167f57025f0027038907eda728b59164fb63d06048f42e618a35267e6a12e49b2e4684846040516143cc929190615142565b60405180910390a25050505050565b6001600160a01b0383166000908152600f6020908152604080832060109092528220600582015460ff1615806144155750600381015460ff165b8061442257506001810154155b156144325760009250505061456d565b60008260030154836004015461444891906155ea565b9050858181111561448857819050876001600160a01b0316600080516020615773833981519152888460405161447f929190615142565b60405180910390a25b801561454f57808460030160008282546144a291906155b5565b909155505060005460405163a9059cbb60e01b81526001600160a01b039091169063a9059cbb906144d9908b9085906004016152ff565b6020604051808303816000875af11580156144f8573d6000803e3d6000fd5b505050506040513d601f19601f8201168201806040525081019061451c919061556b565b50876001600160a01b03166000805160206157938339815191528288604051614546929190615642565b60405180910390a25b836004015484600301541061456757614567886138b6565b93505050505b9392505050565b6001600160a01b038083166000908152600f60205260408120549091169080808060646145a287600161559e565b6145ac91906155c8565b90505b6001600160a01b038516158015906145c75750600f83105b80156145d35750601482105b15614709576001600160a01b0385166000908152600f602052604090206005015460ff1661462b576001600160a01b039485166000908152600f6020526040902054909416938161462381615671565b9250506145af565b6001600160a01b0385166000908152600f6020526040812060010154614650906110a6565b9050838111156146ca576000614668878460036143db565b905080156146c85761467a81876155b5565b6001600160a01b03808b16600081815260106020526040908190205490519399509092918a16916000805160206156f3833981519152916146bf91869160039161568a565b60405180910390a35b505b6001600160a01b039586166000908152600f602052604090205490951694836146f281615671565b945050828061470090615671565b935050506145af565b600060646007548861471b919061559e565b61472591906155c8565b9050600061473386836155ea565b905080156117445780601e600082825461474d91906155b5565b9091555050601e546040517fca2e2bff26d2adb9fe155e9265350494c16751676879cb7ced9141e0fcf393439161478691849190615142565b60405180910390a1505050505050505050565b806000036147a45750565b60165415806147b35750601754155b156147bb5750565b806016546147c991906155b5565b6000546040516370a0823160e01b81526001600160a01b03909116906370a08231906147f9903090600401615115565b602060405180830381865afa158015614816573d6000803e3d6000fd5b505050506040513d601f19601f8201168201806040525081019061483a91906155fd565b10156148435750565b600060175482614853919061559e565b905060008260165461486591906155b5565b9050600061487382846155c8565b9050801580614883575060175481115b1561488e5750505050565b6017546001546040516370a0823160e01b81526001600160a01b03909116906370a08231906148c1903090600401615115565b602060405180830381865afa1580156148de573d6000803e3d6000fd5b505050506040513d601f19601f8201168201806040525081019061490291906155fd565b101561490e5750505050565b836016600082825461492091906155b5565b92505081905550806017600082825461493991906155ea565b9091555050600154604051630852cd8d60e31b8152600481018390526001600160a01b03909116906342966c6890602401600060405180830381600087803b15801561498457600080fd5b505af1158015614998573d6000803e3d6000fd5b505050507f0ec3929061cbbbeecb325623e7d5a86c3dae11cb8a22ca45dc0972955657da2584826040516125d3929190615142565b60006149d7614a29565b80546001600160a01b038481166001600160a01b031983168117845560405193945091169182907f8be0079c531659141344cd1fd0a4f28419497f9722a3daafe3b4186f6b6457e090600090a3505050565b7f9016d09d72d40fdae2fd8ceac6b6234c7706214fd39c1cd1e609a0528c19930090565b6000818152601d6020908152604080832054601c835281842080548351818602810186019094528084526001600160a01b039092169493909190849084015b82821015614ad4576000848152602090819020604080518082019091526002850290910180546001600160a01b03168252600190810154828401529083529092019101614a8c565b50505050905060005b8151811015614bfc576000614b2e838381518110614afd57614afd61562c565b602002602001015160000151848481518110614b1b57614b1b61562c565b60200260200101516020015160046143db565b90508015614b9257836001600160a01b0316838381518110614b5257614b5261562c565b6020026020010151600001516001600160a01b03166000805160206156f383398151915283600489604051614b899392919061568a565b60405180910390a35b828281518110614ba457614ba461562c565b6020026020010151600001516001600160a01b0316857fae629b396150638d6eb6de457cbffe5d618a10c8cc199a94976bed2b16ecd99383604051614beb91815260200190565b60405180910390a350600101614add565b506000838152601c6020526040812061140c91615027565b6000807ff0c57e16840df040f15088dc2f81fe391c3923bec73e23a9662efc9c229c6a005b92915050565b614c47614e74565b61388181614e99565b61174e614e74565b6001600160a01b0381166000908152601160205260408120815b8154811015614ce357818181548110614c8d57614c8d61562c565b600091825260209091206004600690920201015460ff1615614cdb57818181548110614cbb57614cbb61562c565b90600052602060002090600602016001015483614cd891906155b5565b92505b600101614c72565b5050919050565b6001600160a01b0382161580614cfe575080155b15614d07575050565b6001600160a01b038083166000908152600f6020526040812054909116905b6001600160a01b03821615801590614d3e5750601481105b15611b29576001600160a01b0382166000908152600f60205260408120600201549080851315614d7957614d7285836155b5565b9050614da6565b6000614d84866156ba565b905082811115614d975760009150614da4565b614da181846155ea565b91505b505b6001600160a01b0384166000818152600f6020526040908190206002018390555160008051602061573383398151915290614de49085908590615142565b60405180910390a26001600160a01b039384166000908152600f60205260409020549093169282614e1481615671565b9350505050614d26565b614e2782614ea1565b6040516001600160a01b038316907fbc7cd75a20ee27fd9adebab32041f755214dbc6bffa90cc0225b39da2e5c2d3b90600090a2805115614e6c5761140c8282614efd565b611b4a614f73565b614e7c614f92565b61174e57604051631afcd79f60e31b815260040160405180910390fd5b61384e614e74565b806001600160a01b03163b600003614ece5780604051634c9c8ce360e01b8152600401612a599190615115565b60008051602061575383398151915280546001600160a01b0319166001600160a01b0392909216919091179055565b6060600080846001600160a01b031684604051614f1a91906156d6565b600060405180830381855af49150503d8060008114614f55576040519150601f19603f3d011682016040523d82523d6000602084013e614f5a565b606091505b5091509150614f6a858383614fac565b95945050505050565b341561174e5760405163b398979f60e01b815260040160405180910390fd5b6000614f9c614c14565b54600160401b900460ff16919050565b606082614fc157614fbc82614fff565b61456d565b8151158015614fd857506001600160a01b0384163b155b15614ff85783604051639996b31560e01b8152600401612a599190615115565b508061456d565b80511561500e57805160208201fd5b60405163d6bda27560e01b815260040160405180910390fd5b508054600082556002029060005260206000209081019061388191905b808211156150695780546001600160a01b031916815560006001820155600201615044565b5090565b801515811461388157600080fd5b6000806040838503121561508e57600080fd5b82356150998161506d565b915060208301356150a98161506d565b809150509250929050565b80356001600160a01b03811681146150cb57600080fd5b919050565b6000602082840312156150e257600080fd5b61456d826150b4565b600080604083850312156150fe57600080fd5b615107836150b4565b946020939093013593505050565b6001600160a01b0391909116815260200190565b60006020828403121561513b57600080fd5b5035919050565b918252602082015260400190565b6000806040838503121561516357600080fd5b50508035926020909101359150565b634e487b7160e01b600052604160045260246000fd5b6000806040838503121561519b57600080fd5b6151a4836150b4565b915060208301356001600160401b03808211156151c057600080fd5b818501915085601f8301126151d457600080fd5b8135818111156151e6576151e6615172565b604051601f8201601f19908116603f0116810190838211818310171561520e5761520e615172565b8160405282815288602084870101111561522757600080fd5b8260208601602083013760006020848301015280955050505050509250929050565b60008083601f84011261525b57600080fd5b5081356001600160401b0381111561527257600080fd5b6020830191508360208260051b850101111561528d57600080fd5b9250929050565b600080600080604085870312156152aa57600080fd5b84356001600160401b03808211156152c157600080fd5b6152cd88838901615249565b909650945060208701359150808211156152e657600080fd5b506152f387828801615249565b95989497509550505050565b6001600160a01b03929092168252602082015260400190565b6000806000806080858703121561532e57600080fd5b615337856150b4565b9350615345602086016150b4565b9250615353604086016150b4565b9150615361606086016150b4565b905092959194509250565b60005b8381101561538757818101518382015260200161536f565b50506000910152565b60208152600082518060208401526153af81604085016020870161536c565b601f01601f19169190910160400192915050565b60008060008060008060c087890312156153dc57600080fd5b6153e5876150b4565b95506153f3602088016150b4565b9450615401604088016150b4565b935061540f606088016150b4565b925061541d608088016150b4565b915061542b60a088016150b4565b90509295509295509295565b60008060006060848603121561544c57600080fd5b615455846150b4565b9250615463602085016150b4565b9150604084013590509250925092565b60008060008060008060c0878903121561548c57600080fd5b505084359660208601359650604086013595606081013595506080810135945060a0013592509050565b6020808252825182820181905260009190848201906040850190845b818110156154f75783516001600160a01b0316835292840192918401916001016154d2565b50909695505050505050565b6000806000806080858703121561551957600080fd5b615522856150b4565b935060208501359250615537604086016150b4565b9396929550929360600135925050565b6001600160a01b039384168152919092166020820152604081019190915260600190565b60006020828403121561557d57600080fd5b815161456d8161506d565b634e487b7160e01b600052601160045260246000fd5b8082028115828204841417614c3957614c39615588565b80820180821115614c3957614c39615588565b6000826155e557634e487b7160e01b600052601260045260246000fd5b500490565b81810381811115614c3957614c39615588565b60006020828403121561560f57600080fd5b5051919050565b9283526020830191909152604082015260600190565b634e487b7160e01b600052603260045260246000fd5b91825260ff16602082015260400190565b938452602084019290925260ff166040830152606082015260800190565b60006001820161568357615683615588565b5060010190565b92835260ff919091166020830152604082015260600190565b6000816156b2576156b2615588565b506000190190565b6000600160ff1b82016156cf576156cf615588565b5060000390565b600082516156e881846020870161536c565b919091019291505056fe9b3cc71482a1b2eebe764a739f46f1fe99291fd0183be81951532b29d0c9c8da6fcebd0a2ce98b28cb391d6008bbc769378c9a4919628e11639cb575cd320fcca0eea20e678cb42233c1c456c84cedce7ea53fa360bb71bf3b761b7609567770360894a13ba1a3210667c828492db98dca3e2076cc3735a920a3ca505d382bbcb5987aab1afd379f6695f1068869ee8ca6a0d02304c57935a9cc3d3ea2e51e4df381583145e90b82cc5e529bf4fc4d0e44397174cdf145c4251ac33ef195a424f3a670cd3af7d64b488926880889d08a8585a138ff455227af6737339a1ec262a2646970667358221220e74edacfb476a4b12382bdff3d6a9f7f629e97d70f7b62bdb596038671551ed564736f6c63430008160033",
  "linkReferences": {},
  "deployedLinkReferences": {}
}