{
  "_format": "hh-sol-artifact-1",
  "contractName": "JinbaoProtocol",
  "sourceName": "contracts/JinbaoProtocol.sol",
  "abi": [
    {
      "inputs": [
        {
          "internalType": "address",
          "name": "_mcToken",
          "type": "address"
        },
        {
          "internalType": "address",
          "name": "_jbcToken",
          "type": "address"
        },
        {
          "internalType": "address",
          "name": "_marketing",
          "type": "address"
        },
        {
          "internalType": "address",
          "name": "_treasury",
          "type": "address"
        },
        {
          "internalType": "address",
          "name": "_lpInjection",
          "type": "address"
        },
        {
          "internalType": "address",
          "name": "_buyback",
          "type": "address"
        }
      ],
      "stateMutability": "nonpayable",
      "type": "constructor"
    },
    {
      "inputs": [
        {
          "internalType": "address",
          "name": "owner",
          "type": "address"
        }
      ],
      "name": "OwnableInvalidOwner",
      "type": "error"
    },
    {
      "inputs": [
        {
          "internalType": "address",
          "name": "account",
          "type": "address"
        }
      ],
      "name": "OwnableUnauthorizedAccount",
      "type": "error"
    },
    {
      "inputs": [],
      "name": "ReentrancyGuardReentrantCall",
      "type": "error"
    },
    {
      "anonymous": false,
      "inputs": [
        {
          "indexed": true,
          "internalType": "address",
          "name": "user",
          "type": "address"
        },
        {
          "indexed": true,
          "internalType": "address",
          "name": "referrer",
          "type": "address"
        }
      ],
      "name": "BoundReferrer",
      "type": "event"
    },
    {
      "anonymous": false,
      "inputs": [
        {
          "indexed": true,
          "internalType": "address",
          "name": "user",
          "type": "address"
        },
        {
          "indexed": false,
          "internalType": "uint256",
          "name": "amount",
          "type": "uint256"
        },
        {
          "indexed": false,
          "internalType": "uint256",
          "name": "cycleDays",
          "type": "uint256"
        }
      ],
      "name": "LiquidityStaked",
      "type": "event"
    },
    {
      "anonymous": false,
      "inputs": [
        {
          "indexed": true,
          "internalType": "address",
          "name": "previousOwner",
          "type": "address"
        },
        {
          "indexed": true,
          "internalType": "address",
          "name": "newOwner",
          "type": "address"
        }
      ],
      "name": "OwnershipTransferred",
      "type": "event"
    },
    {
      "anonymous": false,
      "inputs": [
        {
          "indexed": true,
          "internalType": "address",
          "name": "user",
          "type": "address"
        },
        {
          "indexed": false,
          "internalType": "uint256",
          "name": "principal",
          "type": "uint256"
        },
        {
          "indexed": false,
          "internalType": "uint256",
          "name": "fee",
          "type": "uint256"
        }
      ],
      "name": "Redeemed",
      "type": "event"
    },
    {
      "anonymous": false,
      "inputs": [
        {
          "indexed": true,
          "internalType": "address",
          "name": "user",
          "type": "address"
        },
        {
          "indexed": false,
          "internalType": "uint256",
          "name": "mcAmount",
          "type": "uint256"
        },
        {
          "indexed": false,
          "internalType": "uint256",
          "name": "jbcAmount",
          "type": "uint256"
        }
      ],
      "name": "RewardClaimed",
      "type": "event"
    },
    {
      "anonymous": false,
      "inputs": [
        {
          "indexed": true,
          "internalType": "address",
          "name": "user",
          "type": "address"
        },
        {
          "indexed": false,
          "internalType": "uint256",
          "name": "jbcAmount",
          "type": "uint256"
        },
        {
          "indexed": false,
          "internalType": "uint256",
          "name": "mcAmount",
          "type": "uint256"
        },
        {
          "indexed": false,
          "internalType": "uint256",
          "name": "tax",
          "type": "uint256"
        }
      ],
      "name": "SwappedJBCToMC",
      "type": "event"
    },
    {
      "anonymous": false,
      "inputs": [
        {
          "indexed": true,
          "internalType": "address",
          "name": "user",
          "type": "address"
        },
        {
          "indexed": false,
          "internalType": "uint256",
          "name": "mcAmount",
          "type": "uint256"
        },
        {
          "indexed": false,
          "internalType": "uint256",
          "name": "jbcAmount",
          "type": "uint256"
        },
        {
          "indexed": false,
          "internalType": "uint256",
          "name": "tax",
          "type": "uint256"
        }
      ],
      "name": "SwappedMCToJBC",
      "type": "event"
    },
    {
      "anonymous": false,
      "inputs": [
        {
          "indexed": true,
          "internalType": "address",
          "name": "user",
          "type": "address"
        },
        {
          "indexed": false,
          "internalType": "uint256",
          "name": "amount",
          "type": "uint256"
        }
      ],
      "name": "TicketPurchased",
      "type": "event"
    },
    {
      "inputs": [],
      "name": "SECONDS_IN_DAY",
      "outputs": [
        {
          "internalType": "uint256",
          "name": "",
          "type": "uint256"
        }
      ],
      "stateMutability": "view",
      "type": "function"
    },
    {
      "inputs": [
        {
          "internalType": "address",
          "name": "_referrer",
          "type": "address"
        }
      ],
      "name": "bindReferrer",
      "outputs": [],
      "stateMutability": "nonpayable",
      "type": "function"
    },
    {
      "inputs": [
        {
          "internalType": "uint256",
          "name": "amount",
          "type": "uint256"
        }
      ],
      "name": "buyTicket",
      "outputs": [],
      "stateMutability": "nonpayable",
      "type": "function"
    },
    {
      "inputs": [],
      "name": "buybackPercent",
      "outputs": [
        {
          "internalType": "uint256",
          "name": "",
          "type": "uint256"
        }
      ],
      "stateMutability": "view",
      "type": "function"
    },
    {
      "inputs": [],
      "name": "buybackWallet",
      "outputs": [
        {
          "internalType": "address",
          "name": "",
          "type": "address"
        }
      ],
      "stateMutability": "view",
      "type": "function"
    },
    {
      "inputs": [],
      "name": "claimRewards",
      "outputs": [],
      "stateMutability": "nonpayable",
      "type": "function"
    },
    {
      "inputs": [
        {
          "internalType": "address",
          "name": "",
          "type": "address"
        },
        {
          "internalType": "uint256",
          "name": "",
          "type": "uint256"
        }
      ],
      "name": "directReferrals",
      "outputs": [
        {
          "internalType": "address",
          "name": "",
          "type": "address"
        }
      ],
      "stateMutability": "view",
      "type": "function"
    },
    {
      "inputs": [],
      "name": "directRewardPercent",
      "outputs": [
        {
          "internalType": "uint256",
          "name": "",
          "type": "uint256"
        }
      ],
      "stateMutability": "view",
      "type": "function"
    },
    {
      "inputs": [
        {
          "internalType": "address",
          "name": "_user",
          "type": "address"
        }
      ],
      "name": "getDirectReferrals",
      "outputs": [
        {
          "internalType": "address[]",
          "name": "",
          "type": "address[]"
        }
      ],
      "stateMutability": "view",
      "type": "function"
    },
    {
      "inputs": [],
      "name": "jbcToken",
      "outputs": [
        {
          "internalType": "contract IJBC",
          "name": "",
          "type": "address"
        }
      ],
      "stateMutability": "view",
      "type": "function"
    },
    {
      "inputs": [],
      "name": "levelRewardPercent",
      "outputs": [
        {
          "internalType": "uint256",
          "name": "",
          "type": "uint256"
        }
      ],
      "stateMutability": "view",
      "type": "function"
    },
    {
      "inputs": [],
      "name": "lpInjectionPercent",
      "outputs": [
        {
          "internalType": "uint256",
          "name": "",
          "type": "uint256"
        }
      ],
      "stateMutability": "view",
      "type": "function"
    },
    {
      "inputs": [],
      "name": "lpInjectionWallet",
      "outputs": [
        {
          "internalType": "address",
          "name": "",
          "type": "address"
        }
      ],
      "stateMutability": "view",
      "type": "function"
    },
    {
      "inputs": [],
      "name": "marketingPercent",
      "outputs": [
        {
          "internalType": "uint256",
          "name": "",
          "type": "uint256"
        }
      ],
      "stateMutability": "view",
      "type": "function"
    },
    {
      "inputs": [],
      "name": "marketingWallet",
      "outputs": [
        {
          "internalType": "address",
          "name": "",
          "type": "address"
        }
      ],
      "stateMutability": "view",
      "type": "function"
    },
    {
      "inputs": [],
      "name": "mcToken",
      "outputs": [
        {
          "internalType": "contract IERC20",
          "name": "",
          "type": "address"
        }
      ],
      "stateMutability": "view",
      "type": "function"
    },
    {
      "inputs": [],
      "name": "owner",
      "outputs": [
        {
          "internalType": "address",
          "name": "",
          "type": "address"
        }
      ],
      "stateMutability": "view",
      "type": "function"
    },
    {
      "inputs": [],
      "name": "redeem",
      "outputs": [],
      "stateMutability": "nonpayable",
      "type": "function"
    },
    {
      "inputs": [],
      "name": "redemptionFeePercent",
      "outputs": [
        {
          "internalType": "uint256",
          "name": "",
          "type": "uint256"
        }
      ],
      "stateMutability": "view",
      "type": "function"
    },
    {
      "inputs": [],
      "name": "renounceOwnership",
      "outputs": [],
      "stateMutability": "nonpayable",
      "type": "function"
    },
    {
      "inputs": [
        {
          "internalType": "uint256",
          "name": "_direct",
          "type": "uint256"
        },
        {
          "internalType": "uint256",
          "name": "_level",
          "type": "uint256"
        },
        {
          "internalType": "uint256",
          "name": "_marketing",
          "type": "uint256"
        },
        {
          "internalType": "uint256",
          "name": "_buyback",
          "type": "uint256"
        },
        {
          "internalType": "uint256",
          "name": "_lpInjection",
          "type": "uint256"
        },
        {
          "internalType": "uint256",
          "name": "_treasury",
          "type": "uint256"
        }
      ],
      "name": "setDistributionPercents",
      "outputs": [],
      "stateMutability": "nonpayable",
      "type": "function"
    },
    {
      "inputs": [
        {
          "internalType": "uint256",
          "name": "_fee",
          "type": "uint256"
        }
      ],
      "name": "setRedemptionFee",
      "outputs": [],
      "stateMutability": "nonpayable",
      "type": "function"
    },
    {
      "inputs": [
        {
          "internalType": "uint256",
          "name": "_buyTax",
          "type": "uint256"
        },
        {
          "internalType": "uint256",
          "name": "_sellTax",
          "type": "uint256"
        }
      ],
      "name": "setSwapTaxes",
      "outputs": [],
      "stateMutability": "nonpayable",
      "type": "function"
    },
    {
      "inputs": [
        {
          "internalType": "address",
          "name": "_marketing",
          "type": "address"
        },
        {
          "internalType": "address",
          "name": "_treasury",
          "type": "address"
        },
        {
          "internalType": "address",
          "name": "_lpInjection",
          "type": "address"
        },
        {
          "internalType": "address",
          "name": "_buyback",
          "type": "address"
        }
      ],
      "name": "setWallets",
      "outputs": [],
      "stateMutability": "nonpayable",
      "type": "function"
    },
    {
      "inputs": [
        {
          "internalType": "uint256",
          "name": "cycleDays",
          "type": "uint256"
        }
      ],
      "name": "stakeLiquidity",
      "outputs": [],
      "stateMutability": "nonpayable",
      "type": "function"
    },
    {
      "inputs": [],
      "name": "swapBuyTax",
      "outputs": [
        {
          "internalType": "uint256",
          "name": "",
          "type": "uint256"
        }
      ],
      "stateMutability": "view",
      "type": "function"
    },
    {
      "inputs": [
        {
          "internalType": "uint256",
          "name": "jbcAmount",
          "type": "uint256"
        }
      ],
      "name": "swapJBCToMC",
      "outputs": [],
      "stateMutability": "nonpayable",
      "type": "function"
    },
    {
      "inputs": [
        {
          "internalType": "uint256",
          "name": "mcAmount",
          "type": "uint256"
        }
      ],
      "name": "swapMCToJBC",
      "outputs": [],
      "stateMutability": "nonpayable",
      "type": "function"
    },
    {
      "inputs": [],
      "name": "swapSellTax",
      "outputs": [
        {
          "internalType": "uint256",
          "name": "",
          "type": "uint256"
        }
      ],
      "stateMutability": "view",
      "type": "function"
    },
    {
      "inputs": [
        {
          "internalType": "address",
          "name": "newOwner",
          "type": "address"
        }
      ],
      "name": "transferOwnership",
      "outputs": [],
      "stateMutability": "nonpayable",
      "type": "function"
    },
    {
      "inputs": [],
      "name": "treasuryPercent",
      "outputs": [
        {
          "internalType": "uint256",
          "name": "",
          "type": "uint256"
        }
      ],
      "stateMutability": "view",
      "type": "function"
    },
    {
      "inputs": [],
      "name": "treasuryWallet",
      "outputs": [
        {
          "internalType": "address",
          "name": "",
          "type": "address"
        }
      ],
      "stateMutability": "view",
      "type": "function"
    },
    {
      "inputs": [
        {
          "internalType": "address",
          "name": "",
          "type": "address"
        }
      ],
      "name": "userInfo",
      "outputs": [
        {
          "internalType": "address",
          "name": "referrer",
          "type": "address"
        },
        {
          "internalType": "uint256",
          "name": "activeDirects",
          "type": "uint256"
        },
        {
          "internalType": "uint256",
          "name": "teamCount",
          "type": "uint256"
        },
        {
          "internalType": "uint256",
          "name": "totalRevenue",
          "type": "uint256"
        },
        {
          "internalType": "uint256",
          "name": "currentCap",
          "type": "uint256"
        },
        {
          "internalType": "bool",
          "name": "isActive",
          "type": "bool"
        }
      ],
      "stateMutability": "view",
      "type": "function"
    },
    {
      "inputs": [
        {
          "internalType": "address",
          "name": "",
          "type": "address"
        }
      ],
      "name": "userTicket",
      "outputs": [
        {
          "internalType": "uint256",
          "name": "amount",
          "type": "uint256"
        },
        {
          "internalType": "uint256",
          "name": "requiredLiquidity",
          "type": "uint256"
        },
        {
          "internalType": "uint256",
          "name": "purchaseTime",
          "type": "uint256"
        },
        {
          "internalType": "bool",
          "name": "liquidityProvided",
          "type": "bool"
        },
        {
          "internalType": "uint256",
          "name": "liquidityAmount",
          "type": "uint256"
        },
        {
          "internalType": "uint256",
          "name": "startTime",
          "type": "uint256"
        },
        {
          "internalType": "uint256",
          "name": "cycleDays",
          "type": "uint256"
        },
        {
          "internalType": "bool",
          "name": "redeemed",
          "type": "bool"
        }
      ],
      "stateMutability": "view",
      "type": "function"
    }
  ],
  "bytecode": "0x608060405260016008556019600955600f600a556005600b556005600c556019600d556019600e556032600f5560196010553480156200003e57600080fd5b506040516200247b3803806200247b833981016040819052620000619162000178565b33806200008857604051631e4fbdf760e01b81526000600482015260240160405180910390fd5b62000093816200010b565b5060018055600280546001600160a01b03199081166001600160a01b0398891617909155600380548216968816969096179095556004805486169487169490941790935560058054851692861692909217909155600680548416918516919091179055600780549092169216919091179055620001f9565b600080546001600160a01b038381166001600160a01b0319831681178455604051919092169283917f8be0079c531659141344cd1fd0a4f28419497f9722a3daafe3b4186f6b6457e09190a35050565b80516001600160a01b03811681146200017357600080fd5b919050565b60008060008060008060c087890312156200019257600080fd5b6200019d876200015b565b9550620001ad602088016200015b565b9450620001bd604088016200015b565b9350620001cd606088016200015b565b9250620001dd608088016200015b565b9150620001ed60a088016200015b565b90509295509295509295565b61227280620002096000396000f3fe608060405234801561001057600080fd5b50600436106102065760003560e01c80638710bcaa1161011a578063ccf61944116100ad578063deab8aea1161007c578063deab8aea146104f2578063dec7fa3b14610505578063e4412f681461050e578063ecda2d3214610517578063f2fde38b1461052a57600080fd5b8063ccf61944146104b7578063ceaa366d146104c0578063d2c8e0e5146104c9578063d8020a18146104e957600080fd5b80639370b080116100e95780639370b0801461048a5780639525399214610493578063bd594dcf146104a6578063be040fb0146104af57600080fd5b80638710bcaa146103be57806388fd4d33146104535780638da5cb5b1461046657806390b0eb511461047757600080fd5b8063372500ab1161019d57806367dd74ca1161016c57806367dd74ca1461036a578063715018a61461037d57806375f0a874146103855780637dbc1df01461039857806383672f3e146103ab57600080fd5b8063372500ab146103325780634626402b1461033a57806352778b051461034d57806361a52a361461036057600080fd5b80631788513c116101d95780631788513c1461027a5780631959a0021461028d57806327f082f414610316578063350763731461031f57600080fd5b806304ef9d581461020b57806304f618cb1461022757806305ad39351461023c5780630a5c456714610267575b600080fd5b610214600e5481565b6040519081526020015b60405180910390f35b61023a610235366004611fc5565b61053d565b005b61024f61024a366004611fe7565b6106aa565b6040516001600160a01b03909116815260200161021e565b61023a610275366004612011565b6106e2565b60035461024f906001600160a01b031681565b6102dd61029b366004611fc5565b6011602052600090815260409020805460018201546002830154600384015460048501546005909501546001600160a01b039094169492939192909160ff1686565b604080516001600160a01b03909716875260208701959095529385019290925260608401526080830152151560a082015260c00161021e565b610214600f5481565b61023a61032d366004612011565b6109b6565b61023a610c2a565b60055461024f906001600160a01b031681565b61023a61035b366004612011565b611125565b6102146201518081565b61023a610378366004612011565b6113e3565b61023a611acd565b60045461024f906001600160a01b031681565b61023a6103a6366004612011565b611adf565b61023a6103b936600461202a565b611aec565b6104166103cc366004611fc5565b6012602052600090815260409020805460018201546002830154600384015460048501546005860154600687015460079097015495969495939460ff938416949293919290911688565b604080519889526020890197909752958701949094529115156060860152608085015260a084015260c0830152151560e08201526101000161021e565b60065461024f906001600160a01b031681565b6000546001600160a01b031661024f565b61023a61048536600461207e565b611b44565b61021460105481565b60025461024f906001600160a01b031681565b610214600a5481565b61023a611b57565b61021460095481565b610214600d5481565b6104dc6104d7366004611fc5565b611db3565b60405161021e91906120a0565b610214600b5481565b60075461024f906001600160a01b031681565b61021460085481565b610214600c5481565b61023a6105253660046120ed565b611e29565b61023a610538366004611fc5565b611ec7565b336000908152601160205260409020546001600160a01b0316156105985760405162461bcd60e51b815260206004820152600d60248201526c105b1c9958591e48189bdd5b99609a1b60448201526064015b60405180910390fd5b336001600160a01b038216036105e35760405162461bcd60e51b815260206004820152601060248201526f21b0b73737ba103134b7321039b2b63360811b604482015260640161058f565b6001600160a01b03811661062c5760405162461bcd60e51b815260206004820152601060248201526f24b73b30b634b2103932b332b93932b960811b604482015260640161058f565b33600081815260116020908152604080832080546001600160a01b0387166001600160a01b0319918216811790925581855260138452828520805460018101825590865293852090930180549093168517909255519092917fa6dbb5aa28f35437de94d685d66edce5fb4812196b4984b91dfd5a7b38c0fb3091a350565b601360205281600052604060002081815481106106c657600080fd5b6000918252602090912001546001600160a01b03169150829050565b6106ea611f02565b6000811161072b5760405162461bcd60e51b815260206004820152600e60248201526d125b9d985b1a5908185b5bdd5b9d60921b604482015260640161058f565b6002546040516323b872dd60e01b81526001600160a01b03909116906323b872dd9061075f90339030908690600401612130565b6020604051808303816000875af115801561077e573d6000803e3d6000fd5b505050506040513d601f19601f820116820180604052508101906107a29190612154565b50600f5481906000906064906107b8908461218c565b6107c291906121a9565b905060006107d082846121cb565b6003546040516370a0823160e01b815230600482015291925084916001600160a01b03909116906370a0823190602401602060405180830381865afa15801561081d573d6000803e3d6000fd5b505050506040513d601f19601f8201168201806040525081019061084191906121de565b101561088f5760405162461bcd60e51b815260206004820152601a60248201527f496e73756666696369656e74204a4243206c6971756964697479000000000000604482015260640161058f565b600354604051630852cd8d60e31b8152600481018490526001600160a01b03909116906342966c6890602401600060405180830381600087803b1580156108d557600080fd5b505af11580156108e9573d6000803e3d6000fd5b505060035460405163a9059cbb60e01b81526001600160a01b03909116925063a9059cbb915061091f90339085906004016121f7565b6020604051808303816000875af115801561093e573d6000803e3d6000fd5b505050506040513d601f19601f820116820180604052508101906109629190612154565b50604080518581526020810183905290810183905233907f36864aeefce16bc4aaceeb6b0cdfb2ad1455a8cb4ccb0db148a2bc6e7166f97c906060015b60405180910390a25050506109b360018055565b50565b6109be611f02565b3360009081526012602052604090208054158015906109e25750600381015460ff16155b610a205760405162461bcd60e51b815260206004820152600f60248201526e139bc81d985b1a59081d1a58dad95d608a1b604482015260640161058f565b6002810154610a32906203f480612210565b421115610a725760405162461bcd60e51b815260206004820152600e60248201526d151a58dad95d08195e1c1a5c995960921b604482015260640161058f565b8160071480610a81575081600f145b80610a8c575081601e145b610ac85760405162461bcd60e51b815260206004820152600d60248201526c496e76616c6964206379636c6560981b604482015260640161058f565b60018101546002546040516323b872dd60e01b81526001600160a01b03909116906323b872dd90610b0190339030908690600401612130565b6020604051808303816000875af1158015610b20573d6000803e3d6000fd5b505050506040513d601f19601f82011682018060405250810190610b449190612154565b5060038201805460ff191660011790556004820181905542600583015560068201839055336000908152601160205260409020546001600160a01b03168015801590610ba357503360009081526011602052604090206005015460ff16155b15610bf2576001600160a01b0381166000908152601160205260408120600101805491610bcf83612223565b9091555050336000908152601160205260409020600501805460ff191660011790555b604080518381526020810186905233917f1e54d7530dad81af38adb8ca9db02add3130668375f37be85396403616fc3d49910161099f565b610c32611f02565b336000908152601260205260409020600381015460ff168015610c5a5750600781015460ff16155b610c935760405162461bcd60e51b815260206004820152600a6024820152694e6f742061637469766560b01b604482015260640161058f565b60008160060154600703610ca957506014610ccd565b8160060154600f03610cbd57506019610ccd565b8160060154601e03610ccd5750601e5b600062015180836005015442610ce391906121cb565b610ced91906121a9565b905060008111610d305760405162461bcd60e51b815260206004820152600e60248201526d139bc81c995dd85c991cc81e595d60921b604482015260640161058f565b8260060154811115610d43575060068201545b60006103e882848660000154610d59919061218c565b610d63919061218c565b610d6d91906121a9565b336000908152601160205260409020600481015460039091015491925090610d96908390612210565b1115610dc3573360009081526011602052604090206003810154600490910154610dc091906121cb565b90505b60008111610e095760405162461bcd60e51b81526020600482015260136024820152724e6f207265776172647320746f20636c61696d60681b604482015260640161058f565b3360009081526011602052604081206003018054839290610e2b908490612210565b9091555060009050610e3e6002836121a9565b90506000610e4d6002846121a9565b6002546040516370a0823160e01b815230600482015291925083916001600160a01b03909116906370a0823190602401602060405180830381865afa158015610e9a573d6000803e3d6000fd5b505050506040513d601f19601f82011682018060405250810190610ebe91906121de565b1015610f0c5760405162461bcd60e51b815260206004820152601760248201527f496e73756666696369656e74204d4320696e20706f6f6c000000000000000000604482015260640161058f565b60025460405163a9059cbb60e01b81526001600160a01b039091169063a9059cbb90610f3e90339086906004016121f7565b6020604051808303816000875af1158015610f5d573d6000803e3d6000fd5b505050506040513d601f19601f82011682018060405250810190610f819190612154565b50670de0b6b3a7640000600081610f98848261218c565b610fa291906121a9565b6003546040516370a0823160e01b815230600482015291925082916001600160a01b03909116906370a0823190602401602060405180830381865afa158015610fef573d6000803e3d6000fd5b505050506040513d601f19601f8201168201806040525081019061101391906121de565b10156110615760405162461bcd60e51b815260206004820152601860248201527f496e73756666696369656e74204a424320696e20706f6f6c0000000000000000604482015260640161058f565b60035460405163a9059cbb60e01b81526001600160a01b039091169063a9059cbb9061109390339085906004016121f7565b6020604051808303816000875af11580156110b2573d6000803e3d6000fd5b505050506040513d601f19601f820116820180604052508101906110d69190612154565b50604080518581526020810183905233917ff01da32686223933d8a18a391060918c7f11a3648639edd87ae013e2e2731743910160405180910390a2505050505050505061112360018055565b565b61112d611f02565b6000811161116e5760405162461bcd60e51b815260206004820152600e60248201526d125b9d985b1a5908185b5bdd5b9d60921b604482015260640161058f565b6003546040516323b872dd60e01b81526001600160a01b03909116906323b872dd906111a290339030908690600401612130565b6020604051808303816000875af11580156111c1573d6000803e3d6000fd5b505050506040513d601f19601f820116820180604052508101906111e59190612154565b5060006064601054836111f8919061218c565b61120291906121a9565b9050600061121082846121cb565b600354604051630852cd8d60e31b8152600481018590529192506001600160a01b0316906342966c6890602401600060405180830381600087803b15801561125757600080fd5b505af115801561126b573d6000803e3d6000fd5b50506002546040516370a0823160e01b81523060048201528493508392506001600160a01b03909116906370a0823190602401602060405180830381865afa1580156112bb573d6000803e3d6000fd5b505050506040513d601f19601f820116820180604052508101906112df91906121de565b101561132d5760405162461bcd60e51b815260206004820152601960248201527f496e73756666696369656e74204d43206c697175696469747900000000000000604482015260640161058f565b60025460405163a9059cbb60e01b81526001600160a01b039091169063a9059cbb9061135f90339085906004016121f7565b6020604051808303816000875af115801561137e573d6000803e3d6000fd5b505050506040513d601f19601f820116820180604052508101906113a29190612154565b50604080518581526020810183905290810184905233907f223c8ad0806f634524940a8595f819c5cfc7b1f4f4f45791269301df0a7e61d59060600161099f565b6113eb611f02565b8068056bc75e2d63100000148061140a575080681043561a8829300000145b8061141d575080681b1ae4d6e2ef500000145b80611430575080683635c9adc5dea00000145b6114725760405162461bcd60e51b815260206004820152601360248201527224b73b30b634b2103a34b1b5b2ba103a34b2b960691b604482015260640161058f565b3360009081526012602052604090206003015460ff1615806114a657503360009081526012602052604090206007015460ff165b6114e95760405162461bcd60e51b8152602060048201526014602482015273416374697665207469636b65742065786973747360601b604482015260640161058f565b6002546040516323b872dd60e01b81526001600160a01b03909116906323b872dd9061151d90339030908690600401612130565b6020604051808303816000875af115801561153c573d6000803e3d6000fd5b505050506040513d601f19601f820116820180604052508101906115609190612154565b50336000908152601160205260409020546001600160a01b03168015611617576002546009546001600160a01b039091169063a9059cbb9083906064906115a7908761218c565b6115b191906121a9565b6040518363ffffffff1660e01b81526004016115ce9291906121f7565b6020604051808303816000875af11580156115ed573d6000803e3d6000fd5b505050506040513d601f19601f820116820180604052508101906116119190612154565b506116ad565b6002546004546009546001600160a01b039283169263a9059cbb921690606490611641908761218c565b61164b91906121a9565b6040518363ffffffff1660e01b81526004016116689291906121f7565b6020604051808303816000875af1158015611687573d6000803e3d6000fd5b505050506040513d601f19601f820116820180604052508101906116ab9190612154565b505b600254600454600a546001600160a01b039283169263a9059cbb9216906064906116d7908761218c565b6116e191906121a9565b6040518363ffffffff1660e01b81526004016116fe9291906121f7565b6020604051808303816000875af115801561171d573d6000803e3d6000fd5b505050506040513d601f19601f820116820180604052508101906117419190612154565b50600254600454600b546001600160a01b039283169263a9059cbb92169060649061176c908761218c565b61177691906121a9565b6040518363ffffffff1660e01b81526004016117939291906121f7565b6020604051808303816000875af11580156117b2573d6000803e3d6000fd5b505050506040513d601f19601f820116820180604052508101906117d69190612154565b50600254600754600c546001600160a01b039283169263a9059cbb921690606490611801908761218c565b61180b91906121a9565b6040518363ffffffff1660e01b81526004016118289291906121f7565b6020604051808303816000875af1158015611847573d6000803e3d6000fd5b505050506040513d601f19601f8201168201806040525081019061186b9190612154565b50600254600654600d546001600160a01b039283169263a9059cbb921690606490611896908761218c565b6118a091906121a9565b6040518363ffffffff1660e01b81526004016118bd9291906121f7565b6020604051808303816000875af11580156118dc573d6000803e3d6000fd5b505050506040513d601f19601f820116820180604052508101906119009190612154565b50600254600554600e546001600160a01b039283169263a9059cbb92169060649061192b908761218c565b61193591906121a9565b6040518363ffffffff1660e01b81526004016119529291906121f7565b6020604051808303816000875af1158015611971573d6000803e3d6000fd5b505050506040513d601f19601f820116820180604052508101906119959190612154565b5060405180610100016040528083815260200160648460966119b7919061218c565b6119c191906121a9565b815242602080830191909152600060408084018290526060808501839052608080860184905260a080870185905260c09687018590523385526012865293839020875181559487015160018601559186015160028501558501516003808501805492151560ff1993841617905591860151600485015591850151600584015592840151600683015560e090930151600790910180549115159190931617909155611a6c90839061218c565b33600081815260116020526040808220600481019490945560039093015590517f0668f5b446eb814fe35b3206f43f14bd8567ba04ddaf7a3ee56516929ab22ccb90611abb9085815260200190565b60405180910390a2506109b360018055565b611ad5611f2c565b6111236000611f59565b611ae7611f2c565b600855565b611af4611f2c565b600480546001600160a01b039586166001600160a01b0319918216179091556005805494861694821694909417909355600680549285169284169290921790915560078054919093169116179055565b611b4c611f2c565b600f91909155601055565b611b5f611f02565b336000908152601260205260409020600381015460ff168015611b875750600781015460ff16155b611bc35760405162461bcd60e51b815260206004820152600d60248201526c43616e6e6f742072656465656d60981b604482015260640161058f565b6006810154611bd5906201518061218c565b8160050154611be49190612210565b421015611c285760405162461bcd60e51b815260206004820152601260248201527110de58db19481b9bdd08199a5b9a5cda195960721b604482015260640161058f565b600060646008548360000154611c3e919061218c565b611c4891906121a9565b6002546040516323b872dd60e01b81529192506001600160a01b0316906323b872dd90611c7d90339030908690600401612130565b6020604051808303816000875af1158015611c9c573d6000803e3d6000fd5b505050506040513d601f19601f82011682018060405250810190611cc09190612154565b5060025460048084015460405163a9059cbb60e01b81526001600160a01b039093169263a9059cbb92611cf79233929091016121f7565b6020604051808303816000875af1158015611d16573d6000803e3d6000fd5b505050506040513d601f19601f82011682018060405250810190611d3a9190612154565b50600782018054600160ff19918216179091553360008181526011602090815260409182902060050180549094169093556004850154815190815292830184905290917ff3a670cd3af7d64b488926880889d08a8585a138ff455227af6737339a1ec262910160405180910390a2505061112360018055565b6001600160a01b038116600090815260136020908152604091829020805483518184028101840190945280845260609392830182828015611e1d57602002820191906000526020600020905b81546001600160a01b03168152600190910190602001808311611dff575b50505050509050919050565b611e31611f2c565b80828486611e3f898b612210565b611e499190612210565b611e539190612210565b611e5d9190612210565b611e679190612210565b606414611eaa5760405162461bcd60e51b81526020600482015260116024820152700546f74616c206d7573742062652031303607c1b604482015260640161058f565b600995909555600a93909355600b91909155600c55600d55600e55565b611ecf611f2c565b6001600160a01b038116611ef957604051631e4fbdf760e01b81526000600482015260240161058f565b6109b381611f59565b600260015403611f2557604051633ee5aeb560e01b815260040160405180910390fd5b6002600155565b6000546001600160a01b031633146111235760405163118cdaa760e01b815233600482015260240161058f565b600080546001600160a01b038381166001600160a01b0319831681178455604051919092169283917f8be0079c531659141344cd1fd0a4f28419497f9722a3daafe3b4186f6b6457e09190a35050565b80356001600160a01b0381168114611fc057600080fd5b919050565b600060208284031215611fd757600080fd5b611fe082611fa9565b9392505050565b60008060408385031215611ffa57600080fd5b61200383611fa9565b946020939093013593505050565b60006020828403121561202357600080fd5b5035919050565b6000806000806080858703121561204057600080fd5b61204985611fa9565b935061205760208601611fa9565b925061206560408601611fa9565b915061207360608601611fa9565b905092959194509250565b6000806040838503121561209157600080fd5b50508035926020909101359150565b6020808252825182820181905260009190848201906040850190845b818110156120e15783516001600160a01b0316835292840192918401916001016120bc565b50909695505050505050565b60008060008060008060c0878903121561210657600080fd5b505084359660208601359650604086013595606081013595506080810135945060a0013592509050565b6001600160a01b039384168152919092166020820152604081019190915260600190565b60006020828403121561216657600080fd5b81518015158114611fe057600080fd5b634e487b7160e01b600052601160045260246000fd5b80820281158282048414176121a3576121a3612176565b92915050565b6000826121c657634e487b7160e01b600052601260045260246000fd5b500490565b818103818111156121a3576121a3612176565b6000602082840312156121f057600080fd5b5051919050565b6001600160a01b03929092168252602082015260400190565b808201808211156121a3576121a3612176565b60006001820161223557612235612176565b506001019056fea2646970667358221220e0a1720693cff08d974d9b35c309a345038a4885f71ffffabb747ae10758ff2164736f6c63430008140033",
  "linkReferences": {},
  "deployedLinkReferences": {}
}