{
  "_format": "hh-sol-artifact-1",
  "contractName": "JinbaoProtocol",
  "sourceName": "contracts/JinbaoProtocol.sol",
  "abi": [
    {
      "inputs": [],
      "stateMutability": "nonpayable",
      "type": "constructor"
    },
    {
      "inputs": [
        {
          "internalType": "address",
          "name": "target",
          "type": "address"
        }
      ],
      "name": "AddressEmptyCode",
      "type": "error"
    },
    {
      "inputs": [],
      "name": "AlreadyBound",
      "type": "error"
    },
    {
      "inputs": [],
      "name": "AlreadyExited",
      "type": "error"
    },
    {
      "inputs": [],
      "name": "BatchUpdateSizeMismatch",
      "type": "error"
    },
    {
      "inputs": [
        {
          "internalType": "address",
          "name": "implementation",
          "type": "address"
        }
      ],
      "name": "ERC1967InvalidImplementation",
      "type": "error"
    },
    {
      "inputs": [],
      "name": "ERC1967NonPayable",
      "type": "error"
    },
    {
      "inputs": [],
      "name": "Expired",
      "type": "error"
    },
    {
      "inputs": [],
      "name": "FailedCall",
      "type": "error"
    },
    {
      "inputs": [],
      "name": "InsufficientBalance",
      "type": "error"
    },
    {
      "inputs": [],
      "name": "InvalidAddress",
      "type": "error"
    },
    {
      "inputs": [],
      "name": "InvalidAmount",
      "type": "error"
    },
    {
      "inputs": [],
      "name": "InvalidCycle",
      "type": "error"
    },
    {
      "inputs": [],
      "name": "InvalidFee",
      "type": "error"
    },
    {
      "inputs": [],
      "name": "InvalidInitialization",
      "type": "error"
    },
    {
      "inputs": [],
      "name": "InvalidLevelConfig",
      "type": "error"
    },
    {
      "inputs": [],
      "name": "InvalidRate",
      "type": "error"
    },
    {
      "inputs": [],
      "name": "InvalidTax",
      "type": "error"
    },
    {
      "inputs": [],
      "name": "InvalidTeamCountUpdate",
      "type": "error"
    },
    {
      "inputs": [],
      "name": "LowLiquidity",
      "type": "error"
    },
    {
      "inputs": [],
      "name": "NoRewards",
      "type": "error"
    },
    {
      "inputs": [],
      "name": "NotActive",
      "type": "error"
    },
    {
      "inputs": [],
      "name": "NotInitializing",
      "type": "error"
    },
    {
      "inputs": [],
      "name": "NothingToRedeem",
      "type": "error"
    },
    {
      "inputs": [
        {
          "internalType": "address",
          "name": "owner",
          "type": "address"
        }
      ],
      "name": "OwnableInvalidOwner",
      "type": "error"
    },
    {
      "inputs": [
        {
          "internalType": "address",
          "name": "account",
          "type": "address"
        }
      ],
      "name": "OwnableUnauthorizedAccount",
      "type": "error"
    },
    {
      "inputs": [],
      "name": "RecursionDepthExceeded",
      "type": "error"
    },
    {
      "inputs": [],
      "name": "ReentrancyGuardReentrantCall",
      "type": "error"
    },
    {
      "inputs": [],
      "name": "SelfReference",
      "type": "error"
    },
    {
      "inputs": [],
      "name": "SumNot100",
      "type": "error"
    },
    {
      "inputs": [
        {
          "internalType": "address",
          "name": "user",
          "type": "address"
        },
        {
          "internalType": "uint256",
          "name": "expected",
          "type": "uint256"
        },
        {
          "internalType": "uint256",
          "name": "actual",
          "type": "uint256"
        }
      ],
      "name": "TeamCountMismatch",
      "type": "error"
    },
    {
      "inputs": [],
      "name": "TeamCountOverflow",
      "type": "error"
    },
    {
      "inputs": [],
      "name": "TransferFailed",
      "type": "error"
    },
    {
      "inputs": [],
      "name": "UUPSUnauthorizedCallContext",
      "type": "error"
    },
    {
      "inputs": [
        {
          "internalType": "bytes32",
          "name": "slot",
          "type": "bytes32"
        }
      ],
      "name": "UUPSUnsupportedProxiableUUID",
      "type": "error"
    },
    {
      "inputs": [],
      "name": "Unauthorized",
      "type": "error"
    },
    {
      "anonymous": false,
      "inputs": [
        {
          "indexed": false,
          "internalType": "uint256",
          "name": "usersUpdated",
          "type": "uint256"
        }
      ],
      "name": "BatchTeamCountsUpdated",
      "type": "event"
    },
    {
      "anonymous": false,
      "inputs": [
        {
          "indexed": true,
          "internalType": "address",
          "name": "user",
          "type": "address"
        },
        {
          "indexed": true,
          "internalType": "address",
          "name": "referrer",
          "type": "address"
        }
      ],
      "name": "BoundReferrer",
      "type": "event"
    },
    {
      "anonymous": false,
      "inputs": [
        {
          "indexed": false,
          "internalType": "uint256",
          "name": "mcAmount",
          "type": "uint256"
        },
        {
          "indexed": false,
          "internalType": "uint256",
          "name": "jbcBurned",
          "type": "uint256"
        }
      ],
      "name": "BuybackAndBurn",
      "type": "event"
    },
    {
      "anonymous": false,
      "inputs": [
        {
          "indexed": true,
          "internalType": "uint256",
          "name": "stakeId",
          "type": "uint256"
        },
        {
          "indexed": true,
          "internalType": "address",
          "name": "upline",
          "type": "address"
        },
        {
          "indexed": false,
          "internalType": "uint256",
          "name": "amount",
          "type": "uint256"
        }
      ],
      "name": "DifferentialRewardRecorded",
      "type": "event"
    },
    {
      "anonymous": false,
      "inputs": [
        {
          "indexed": true,
          "internalType": "uint256",
          "name": "stakeId",
          "type": "uint256"
        },
        {
          "indexed": true,
          "internalType": "address",
          "name": "upline",
          "type": "address"
        },
        {
          "indexed": false,
          "internalType": "uint256",
          "name": "amount",
          "type": "uint256"
        }
      ],
      "name": "DifferentialRewardReleased",
      "type": "event"
    },
    {
      "anonymous": false,
      "inputs": [
        {
          "indexed": true,
          "internalType": "address",
          "name": "user",
          "type": "address"
        },
        {
          "indexed": false,
          "internalType": "uint256",
          "name": "ticketId",
          "type": "uint256"
        }
      ],
      "name": "Exited",
      "type": "event"
    },
    {
      "anonymous": false,
      "inputs": [
        {
          "indexed": true,
          "internalType": "address",
          "name": "user",
          "type": "address"
        },
        {
          "indexed": false,
          "internalType": "uint256",
          "name": "amount",
          "type": "uint256"
        }
      ],
      "name": "FeeRefunded",
      "type": "event"
    },
    {
      "anonymous": false,
      "inputs": [
        {
          "indexed": false,
          "internalType": "uint64",
          "name": "version",
          "type": "uint64"
        }
      ],
      "name": "Initialized",
      "type": "event"
    },
    {
      "anonymous": false,
      "inputs": [],
      "name": "LevelConfigsUpdated",
      "type": "event"
    },
    {
      "anonymous": false,
      "inputs": [
        {
          "indexed": false,
          "internalType": "uint256",
          "name": "amount",
          "type": "uint256"
        },
        {
          "indexed": false,
          "internalType": "uint256",
          "name": "newTotal",
          "type": "uint256"
        }
      ],
      "name": "LevelRewardPoolUpdated",
      "type": "event"
    },
    {
      "anonymous": false,
      "inputs": [
        {
          "indexed": true,
          "internalType": "address",
          "name": "to",
          "type": "address"
        },
        {
          "indexed": false,
          "internalType": "uint256",
          "name": "amount",
          "type": "uint256"
        }
      ],
      "name": "LevelRewardPoolWithdrawn",
      "type": "event"
    },
    {
      "anonymous": false,
      "inputs": [
        {
          "indexed": true,
          "internalType": "uint256",
          "name": "ticketId",
          "type": "uint256"
        },
        {
          "indexed": true,
          "internalType": "address",
          "name": "upline",
          "type": "address"
        },
        {
          "indexed": false,
          "internalType": "uint256",
          "name": "amount",
          "type": "uint256"
        }
      ],
      "name": "LevelRewardRecorded",
      "type": "event"
    },
    {
      "anonymous": false,
      "inputs": [
        {
          "indexed": true,
          "internalType": "uint256",
          "name": "ticketId",
          "type": "uint256"
        },
        {
          "indexed": true,
          "internalType": "address",
          "name": "upline",
          "type": "address"
        },
        {
          "indexed": false,
          "internalType": "uint256",
          "name": "amount",
          "type": "uint256"
        }
      ],
      "name": "LevelRewardReleased",
      "type": "event"
    },
    {
      "anonymous": false,
      "inputs": [
        {
          "indexed": false,
          "internalType": "uint256",
          "name": "mcAmount",
          "type": "uint256"
        },
        {
          "indexed": false,
          "internalType": "uint256",
          "name": "jbcAmount",
          "type": "uint256"
        }
      ],
      "name": "LiquidityAdded",
      "type": "event"
    },
    {
      "anonymous": false,
      "inputs": [
        {
          "indexed": true,
          "internalType": "address",
          "name": "user",
          "type": "address"
        },
        {
          "indexed": false,
          "internalType": "uint256",
          "name": "amount",
          "type": "uint256"
        },
        {
          "indexed": false,
          "internalType": "uint256",
          "name": "cycleDays",
          "type": "uint256"
        },
        {
          "indexed": false,
          "internalType": "uint256",
          "name": "stakeId",
          "type": "uint256"
        }
      ],
      "name": "LiquidityStaked",
      "type": "event"
    },
    {
      "anonymous": false,
      "inputs": [
        {
          "indexed": false,
          "internalType": "bool",
          "name": "enabled",
          "type": "bool"
        }
      ],
      "name": "LiquidityStatusUpdated",
      "type": "event"
    },
    {
      "anonymous": false,
      "inputs": [
        {
          "indexed": true,
          "internalType": "address",
          "name": "previousOwner",
          "type": "address"
        },
        {
          "indexed": true,
          "internalType": "address",
          "name": "newOwner",
          "type": "address"
        }
      ],
      "name": "OwnershipTransferred",
      "type": "event"
    },
    {
      "anonymous": false,
      "inputs": [
        {
          "indexed": false,
          "internalType": "bool",
          "name": "enabled",
          "type": "bool"
        }
      ],
      "name": "RedeemStatusUpdated",
      "type": "event"
    },
    {
      "anonymous": false,
      "inputs": [
        {
          "indexed": true,
          "internalType": "address",
          "name": "user",
          "type": "address"
        },
        {
          "indexed": false,
          "internalType": "uint256",
          "name": "principal",
          "type": "uint256"
        },
        {
          "indexed": false,
          "internalType": "uint256",
          "name": "fee",
          "type": "uint256"
        }
      ],
      "name": "Redeemed",
      "type": "event"
    },
    {
      "anonymous": false,
      "inputs": [
        {
          "indexed": true,
          "internalType": "address",
          "name": "user",
          "type": "address"
        },
        {
          "indexed": true,
          "internalType": "address",
          "name": "from",
          "type": "address"
        },
        {
          "indexed": false,
          "internalType": "uint256",
          "name": "mcAmount",
          "type": "uint256"
        },
        {
          "indexed": false,
          "internalType": "uint8",
          "name": "rewardType",
          "type": "uint8"
        },
        {
          "indexed": false,
          "internalType": "uint256",
          "name": "ticketId",
          "type": "uint256"
        }
      ],
      "name": "ReferralRewardPaid",
      "type": "event"
    },
    {
      "anonymous": false,
      "inputs": [
        {
          "indexed": true,
          "internalType": "address",
          "name": "user",
          "type": "address"
        },
        {
          "indexed": false,
          "internalType": "uint256",
          "name": "amount",
          "type": "uint256"
        },
        {
          "indexed": false,
          "internalType": "uint256",
          "name": "cappedAmount",
          "type": "uint256"
        }
      ],
      "name": "RewardCapped",
      "type": "event"
    },
    {
      "anonymous": false,
      "inputs": [
        {
          "indexed": true,
          "internalType": "address",
          "name": "user",
          "type": "address"
        },
        {
          "indexed": false,
          "internalType": "uint256",
          "name": "mcAmount",
          "type": "uint256"
        },
        {
          "indexed": false,
          "internalType": "uint256",
          "name": "jbcAmount",
          "type": "uint256"
        },
        {
          "indexed": false,
          "internalType": "uint8",
          "name": "rewardType",
          "type": "uint8"
        },
        {
          "indexed": false,
          "internalType": "uint256",
          "name": "ticketId",
          "type": "uint256"
        }
      ],
      "name": "RewardClaimed",
      "type": "event"
    },
    {
      "anonymous": false,
      "inputs": [
        {
          "indexed": true,
          "internalType": "address",
          "name": "user",
          "type": "address"
        },
        {
          "indexed": false,
          "internalType": "uint256",
          "name": "amount",
          "type": "uint256"
        },
        {
          "indexed": false,
          "internalType": "uint8",
          "name": "rewardType",
          "type": "uint8"
        }
      ],
      "name": "RewardPaid",
      "type": "event"
    },
    {
      "anonymous": false,
      "inputs": [
        {
          "indexed": true,
          "internalType": "address",
          "name": "user",
          "type": "address"
        },
        {
          "indexed": false,
          "internalType": "uint256",
          "name": "jbcAmount",
          "type": "uint256"
        },
        {
          "indexed": false,
          "internalType": "uint256",
          "name": "mcAmount",
          "type": "uint256"
        },
        {
          "indexed": false,
          "internalType": "uint256",
          "name": "tax",
          "type": "uint256"
        }
      ],
      "name": "SwappedJBCToMC",
      "type": "event"
    },
    {
      "anonymous": false,
      "inputs": [
        {
          "indexed": true,
          "internalType": "address",
          "name": "user",
          "type": "address"
        },
        {
          "indexed": false,
          "internalType": "uint256",
          "name": "mcAmount",
          "type": "uint256"
        },
        {
          "indexed": false,
          "internalType": "uint256",
          "name": "jbcAmount",
          "type": "uint256"
        },
        {
          "indexed": false,
          "internalType": "uint256",
          "name": "tax",
          "type": "uint256"
        }
      ],
      "name": "SwappedMCToJBC",
      "type": "event"
    },
    {
      "anonymous": false,
      "inputs": [
        {
          "indexed": true,
          "internalType": "uint256",
          "name": "stakeId",
          "type": "uint256"
        },
        {
          "indexed": true,
          "internalType": "address",
          "name": "upline",
          "type": "address"
        },
        {
          "indexed": false,
          "internalType": "uint256",
          "name": "amount",
          "type": "uint256"
        },
        {
          "indexed": false,
          "internalType": "uint256",
          "name": "teamCount",
          "type": "uint256"
        }
      ],
      "name": "TeamBasedRewardCalculated",
      "type": "event"
    },
    {
      "anonymous": false,
      "inputs": [
        {
          "indexed": true,
          "internalType": "address",
          "name": "user",
          "type": "address"
        },
        {
          "indexed": false,
          "internalType": "uint256",
          "name": "oldCount",
          "type": "uint256"
        },
        {
          "indexed": false,
          "internalType": "uint256",
          "name": "newCount",
          "type": "uint256"
        }
      ],
      "name": "TeamCountUpdated",
      "type": "event"
    },
    {
      "anonymous": false,
      "inputs": [
        {
          "indexed": true,
          "internalType": "address",
          "name": "user",
          "type": "address"
        },
        {
          "indexed": false,
          "internalType": "uint256",
          "name": "expected",
          "type": "uint256"
        },
        {
          "indexed": false,
          "internalType": "uint256",
          "name": "actual",
          "type": "uint256"
        }
      ],
      "name": "TeamCountValidationFailed",
      "type": "event"
    },
    {
      "anonymous": false,
      "inputs": [
        {
          "indexed": true,
          "internalType": "address",
          "name": "user",
          "type": "address"
        },
        {
          "indexed": false,
          "internalType": "uint256",
          "name": "ticketId",
          "type": "uint256"
        },
        {
          "indexed": false,
          "internalType": "uint256",
          "name": "amount",
          "type": "uint256"
        }
      ],
      "name": "TicketExpired",
      "type": "event"
    },
    {
      "anonymous": false,
      "inputs": [
        {
          "indexed": false,
          "internalType": "uint256",
          "name": "newDuration",
          "type": "uint256"
        }
      ],
      "name": "TicketFlexibilityDurationUpdated",
      "type": "event"
    },
    {
      "anonymous": false,
      "inputs": [
        {
          "indexed": true,
          "internalType": "address",
          "name": "user",
          "type": "address"
        },
        {
          "indexed": false,
          "internalType": "uint256",
          "name": "amount",
          "type": "uint256"
        },
        {
          "indexed": false,
          "internalType": "uint256",
          "name": "ticketId",
          "type": "uint256"
        }
      ],
      "name": "TicketPurchased",
      "type": "event"
    },
    {
      "anonymous": false,
      "inputs": [
        {
          "indexed": true,
          "internalType": "address",
          "name": "implementation",
          "type": "address"
        }
      ],
      "name": "Upgraded",
      "type": "event"
    },
    {
      "inputs": [],
      "name": "REWARD_DIFFERENTIAL",
      "outputs": [
        {
          "internalType": "uint8",
          "name": "",
          "type": "uint8"
        }
      ],
      "stateMutability": "view",
      "type": "function"
    },
    {
      "inputs": [],
      "name": "REWARD_DIRECT",
      "outputs": [
        {
          "internalType": "uint8",
          "name": "",
          "type": "uint8"
        }
      ],
      "stateMutability": "view",
      "type": "function"
    },
    {
      "inputs": [],
      "name": "REWARD_DYNAMIC",
      "outputs": [
        {
          "internalType": "uint8",
          "name": "",
          "type": "uint8"
        }
      ],
      "stateMutability": "view",
      "type": "function"
    },
    {
      "inputs": [],
      "name": "REWARD_LEVEL",
      "outputs": [
        {
          "internalType": "uint8",
          "name": "",
          "type": "uint8"
        }
      ],
      "stateMutability": "view",
      "type": "function"
    },
    {
      "inputs": [],
      "name": "REWARD_STATIC",
      "outputs": [
        {
          "internalType": "uint8",
          "name": "",
          "type": "uint8"
        }
      ],
      "stateMutability": "view",
      "type": "function"
    },
    {
      "inputs": [],
      "name": "SECONDS_IN_UNIT",
      "outputs": [
        {
          "internalType": "uint256",
          "name": "",
          "type": "uint256"
        }
      ],
      "stateMutability": "view",
      "type": "function"
    },
    {
      "inputs": [],
      "name": "UPGRADE_INTERFACE_VERSION",
      "outputs": [
        {
          "internalType": "string",
          "name": "",
          "type": "string"
        }
      ],
      "stateMutability": "view",
      "type": "function"
    },
    {
      "inputs": [
        {
          "internalType": "uint256",
          "name": "mcAmount",
          "type": "uint256"
        },
        {
          "internalType": "uint256",
          "name": "jbcAmount",
          "type": "uint256"
        }
      ],
      "name": "addLiquidity",
      "outputs": [],
      "stateMutability": "nonpayable",
      "type": "function"
    },
    {
      "inputs": [
        {
          "internalType": "address[]",
          "name": "users",
          "type": "address[]"
        },
        {
          "internalType": "uint256[]",
          "name": "newCounts",
          "type": "uint256[]"
        }
      ],
      "name": "batchUpdateTeamCounts",
      "outputs": [],
      "stateMutability": "nonpayable",
      "type": "function"
    },
    {
      "inputs": [
        {
          "internalType": "address",
          "name": "_referrer",
          "type": "address"
        }
      ],
      "name": "bindReferrer",
      "outputs": [],
      "stateMutability": "nonpayable",
      "type": "function"
    },
    {
      "inputs": [
        {
          "internalType": "uint256",
          "name": "amount",
          "type": "uint256"
        }
      ],
      "name": "buyTicket",
      "outputs": [],
      "stateMutability": "nonpayable",
      "type": "function"
    },
    {
      "inputs": [],
      "name": "buybackPercent",
      "outputs": [
        {
          "internalType": "uint256",
          "name": "",
          "type": "uint256"
        }
      ],
      "stateMutability": "view",
      "type": "function"
    },
    {
      "inputs": [],
      "name": "buybackWallet",
      "outputs": [
        {
          "internalType": "address",
          "name": "",
          "type": "address"
        }
      ],
      "stateMutability": "view",
      "type": "function"
    },
    {
      "inputs": [],
      "name": "claimRewards",
      "outputs": [],
      "stateMutability": "nonpayable",
      "type": "function"
    },
    {
      "inputs": [
        {
          "internalType": "address",
          "name": "",
          "type": "address"
        },
        {
          "internalType": "uint256",
          "name": "",
          "type": "uint256"
        }
      ],
      "name": "directReferrals",
      "outputs": [
        {
          "internalType": "address",
          "name": "",
          "type": "address"
        }
      ],
      "stateMutability": "view",
      "type": "function"
    },
    {
      "inputs": [],
      "name": "directRewardPercent",
      "outputs": [
        {
          "internalType": "uint256",
          "name": "",
          "type": "uint256"
        }
      ],
      "stateMutability": "view",
      "type": "function"
    },
    {
      "inputs": [
        {
          "internalType": "uint256",
          "name": "amountIn",
          "type": "uint256"
        },
        {
          "internalType": "uint256",
          "name": "reserveIn",
          "type": "uint256"
        },
        {
          "internalType": "uint256",
          "name": "reserveOut",
          "type": "uint256"
        }
      ],
      "name": "getAmountOut",
      "outputs": [
        {
          "internalType": "uint256",
          "name": "",
          "type": "uint256"
        }
      ],
      "stateMutability": "pure",
      "type": "function"
    },
    {
      "inputs": [
        {
          "internalType": "address",
          "name": "user",
          "type": "address"
        }
      ],
      "name": "getDirectReferrals",
      "outputs": [
        {
          "internalType": "address[]",
          "name": "",
          "type": "address[]"
        }
      ],
      "stateMutability": "view",
      "type": "function"
    },
    {
      "inputs": [
        {
          "internalType": "address",
          "name": "user",
          "type": "address"
        }
      ],
      "name": "getDirectReferralsData",
      "outputs": [
        {
          "components": [
            {
              "internalType": "address",
              "name": "user",
              "type": "address"
            },
            {
              "internalType": "uint256",
              "name": "ticketAmount",
              "type": "uint256"
            },
            {
              "internalType": "uint256",
              "name": "joinTime",
              "type": "uint256"
            }
          ],
          "internalType": "struct JinbaoProtocol.DirectReferralData[]",
          "name": "",
          "type": "tuple[]"
        }
      ],
      "stateMutability": "view",
      "type": "function"
    },
    {
      "inputs": [],
      "name": "getJBCPrice",
      "outputs": [
        {
          "internalType": "uint256",
          "name": "",
          "type": "uint256"
        }
      ],
      "stateMutability": "view",
      "type": "function"
    },
    {
      "inputs": [
        {
          "internalType": "uint256",
          "name": "activeDirects",
          "type": "uint256"
        }
      ],
      "name": "getLevel",
      "outputs": [
        {
          "internalType": "uint256",
          "name": "level",
          "type": "uint256"
        },
        {
          "internalType": "uint256",
          "name": "percent",
          "type": "uint256"
        }
      ],
      "stateMutability": "view",
      "type": "function"
    },
    {
      "inputs": [
        {
          "internalType": "uint256",
          "name": "teamCount",
          "type": "uint256"
        }
      ],
      "name": "getLevelByTeamCount",
      "outputs": [
        {
          "internalType": "uint256",
          "name": "level",
          "type": "uint256"
        },
        {
          "internalType": "uint256",
          "name": "percent",
          "type": "uint256"
        }
      ],
      "stateMutability": "view",
      "type": "function"
    },
    {
      "inputs": [
        {
          "internalType": "uint256",
          "name": "activeDirects",
          "type": "uint256"
        }
      ],
      "name": "getLevelRewardLayers",
      "outputs": [
        {
          "internalType": "uint256",
          "name": "",
          "type": "uint256"
        }
      ],
      "stateMutability": "pure",
      "type": "function"
    },
    {
      "inputs": [
        {
          "internalType": "address",
          "name": "user",
          "type": "address"
        }
      ],
      "name": "getTeamCount",
      "outputs": [
        {
          "internalType": "uint256",
          "name": "",
          "type": "uint256"
        }
      ],
      "stateMutability": "view",
      "type": "function"
    },
    {
      "inputs": [
        {
          "internalType": "address",
          "name": "user",
          "type": "address"
        }
      ],
      "name": "getUserMaxSingleTicketAmount",
      "outputs": [
        {
          "internalType": "uint256",
          "name": "",
          "type": "uint256"
        }
      ],
      "stateMutability": "view",
      "type": "function"
    },
    {
      "inputs": [
        {
          "internalType": "address",
          "name": "_mcToken",
          "type": "address"
        },
        {
          "internalType": "address",
          "name": "_jbcToken",
          "type": "address"
        },
        {
          "internalType": "address",
          "name": "_marketing",
          "type": "address"
        },
        {
          "internalType": "address",
          "name": "_treasury",
          "type": "address"
        },
        {
          "internalType": "address",
          "name": "_lpInjection",
          "type": "address"
        },
        {
          "internalType": "address",
          "name": "_buybackWallet",
          "type": "address"
        }
      ],
      "name": "initialize",
      "outputs": [],
      "stateMutability": "nonpayable",
      "type": "function"
    },
    {
      "inputs": [],
      "name": "jbcToken",
      "outputs": [
        {
          "internalType": "contract IJBC",
          "name": "",
          "type": "address"
        }
      ],
      "stateMutability": "view",
      "type": "function"
    },
    {
      "inputs": [],
      "name": "lastBurnTime",
      "outputs": [
        {
          "internalType": "uint256",
          "name": "",
          "type": "uint256"
        }
      ],
      "stateMutability": "view",
      "type": "function"
    },
    {
      "inputs": [
        {
          "internalType": "uint256",
          "name": "",
          "type": "uint256"
        }
      ],
      "name": "levelConfigs",
      "outputs": [
        {
          "internalType": "uint256",
          "name": "minDirects",
          "type": "uint256"
        },
        {
          "internalType": "uint256",
          "name": "level",
          "type": "uint256"
        },
        {
          "internalType": "uint256",
          "name": "percent",
          "type": "uint256"
        }
      ],
      "stateMutability": "view",
      "type": "function"
    },
    {
      "inputs": [],
      "name": "levelRewardPercent",
      "outputs": [
        {
          "internalType": "uint256",
          "name": "",
          "type": "uint256"
        }
      ],
      "stateMutability": "view",
      "type": "function"
    },
    {
      "inputs": [],
      "name": "levelRewardPool",
      "outputs": [
        {
          "internalType": "uint256",
          "name": "",
          "type": "uint256"
        }
      ],
      "stateMutability": "view",
      "type": "function"
    },
    {
      "inputs": [],
      "name": "liquidityEnabled",
      "outputs": [
        {
          "internalType": "bool",
          "name": "",
          "type": "bool"
        }
      ],
      "stateMutability": "view",
      "type": "function"
    },
    {
      "inputs": [],
      "name": "lpInjectionPercent",
      "outputs": [
        {
          "internalType": "uint256",
          "name": "",
          "type": "uint256"
        }
      ],
      "stateMutability": "view",
      "type": "function"
    },
    {
      "inputs": [],
      "name": "lpInjectionWallet",
      "outputs": [
        {
          "internalType": "address",
          "name": "",
          "type": "address"
        }
      ],
      "stateMutability": "view",
      "type": "function"
    },
    {
      "inputs": [],
      "name": "marketingPercent",
      "outputs": [
        {
          "internalType": "uint256",
          "name": "",
          "type": "uint256"
        }
      ],
      "stateMutability": "view",
      "type": "function"
    },
    {
      "inputs": [],
      "name": "marketingWallet",
      "outputs": [
        {
          "internalType": "address",
          "name": "",
          "type": "address"
        }
      ],
      "stateMutability": "view",
      "type": "function"
    },
    {
      "inputs": [],
      "name": "mcToken",
      "outputs": [
        {
          "internalType": "contract IERC20",
          "name": "",
          "type": "address"
        }
      ],
      "stateMutability": "view",
      "type": "function"
    },
    {
      "inputs": [],
      "name": "nextStakeId",
      "outputs": [
        {
          "internalType": "uint256",
          "name": "",
          "type": "uint256"
        }
      ],
      "stateMutability": "view",
      "type": "function"
    },
    {
      "inputs": [],
      "name": "nextTicketId",
      "outputs": [
        {
          "internalType": "uint256",
          "name": "",
          "type": "uint256"
        }
      ],
      "stateMutability": "view",
      "type": "function"
    },
    {
      "inputs": [],
      "name": "owner",
      "outputs": [
        {
          "internalType": "address",
          "name": "",
          "type": "address"
        }
      ],
      "stateMutability": "view",
      "type": "function"
    },
    {
      "inputs": [],
      "name": "proxiableUUID",
      "outputs": [
        {
          "internalType": "bytes32",
          "name": "",
          "type": "bytes32"
        }
      ],
      "stateMutability": "view",
      "type": "function"
    },
    {
      "inputs": [
        {
          "internalType": "address",
          "name": "user",
          "type": "address"
        }
      ],
      "name": "recalculateTeamCount",
      "outputs": [
        {
          "internalType": "uint256",
          "name": "",
          "type": "uint256"
        }
      ],
      "stateMutability": "nonpayable",
      "type": "function"
    },
    {
      "inputs": [],
      "name": "redeem",
      "outputs": [],
      "stateMutability": "nonpayable",
      "type": "function"
    },
    {
      "inputs": [],
      "name": "redeemEnabled",
      "outputs": [
        {
          "internalType": "bool",
          "name": "",
          "type": "bool"
        }
      ],
      "stateMutability": "view",
      "type": "function"
    },
    {
      "inputs": [],
      "name": "redemptionFeePercent",
      "outputs": [
        {
          "internalType": "uint256",
          "name": "",
          "type": "uint256"
        }
      ],
      "stateMutability": "view",
      "type": "function"
    },
    {
      "inputs": [],
      "name": "renounceOwnership",
      "outputs": [],
      "stateMutability": "nonpayable",
      "type": "function"
    },
    {
      "inputs": [
        {
          "components": [
            {
              "internalType": "uint256",
              "name": "minDirects",
              "type": "uint256"
            },
            {
              "internalType": "uint256",
              "name": "level",
              "type": "uint256"
            },
            {
              "internalType": "uint256",
              "name": "percent",
              "type": "uint256"
            }
          ],
          "internalType": "struct JinbaoProtocol.LevelConfig[]",
          "name": "_configs",
          "type": "tuple[]"
        }
      ],
      "name": "setLevelConfigs",
      "outputs": [],
      "stateMutability": "nonpayable",
      "type": "function"
    },
    {
      "inputs": [
        {
          "internalType": "uint256",
          "name": "amount",
          "type": "uint256"
        },
        {
          "internalType": "uint256",
          "name": "cycleDays",
          "type": "uint256"
        }
      ],
      "name": "stakeLiquidity",
      "outputs": [],
      "stateMutability": "nonpayable",
      "type": "function"
    },
    {
      "inputs": [
        {
          "internalType": "uint256",
          "name": "",
          "type": "uint256"
        }
      ],
      "name": "stakeOwner",
      "outputs": [
        {
          "internalType": "address",
          "name": "",
          "type": "address"
        }
      ],
      "stateMutability": "view",
      "type": "function"
    },
    {
      "inputs": [
        {
          "internalType": "uint256",
          "name": "",
          "type": "uint256"
        },
        {
          "internalType": "uint256",
          "name": "",
          "type": "uint256"
        }
      ],
      "name": "stakePendingRewards",
      "outputs": [
        {
          "internalType": "address",
          "name": "upline",
          "type": "address"
        },
        {
          "internalType": "uint256",
          "name": "amount",
          "type": "uint256"
        }
      ],
      "stateMutability": "view",
      "type": "function"
    },
    {
      "inputs": [],
      "name": "swapBuyTax",
      "outputs": [
        {
          "internalType": "uint256",
          "name": "",
          "type": "uint256"
        }
      ],
      "stateMutability": "view",
      "type": "function"
    },
    {
      "inputs": [
        {
          "internalType": "uint256",
          "name": "jbcAmount",
          "type": "uint256"
        }
      ],
      "name": "swapJBCToMC",
      "outputs": [],
      "stateMutability": "nonpayable",
      "type": "function"
    },
    {
      "inputs": [
        {
          "internalType": "uint256",
          "name": "mcAmount",
          "type": "uint256"
        }
      ],
      "name": "swapMCToJBC",
      "outputs": [],
      "stateMutability": "nonpayable",
      "type": "function"
    },
    {
      "inputs": [],
      "name": "swapReserveJBC",
      "outputs": [
        {
          "internalType": "uint256",
          "name": "",
          "type": "uint256"
        }
      ],
      "stateMutability": "view",
      "type": "function"
    },
    {
      "inputs": [],
      "name": "swapReserveMC",
      "outputs": [
        {
          "internalType": "uint256",
          "name": "",
          "type": "uint256"
        }
      ],
      "stateMutability": "view",
      "type": "function"
    },
    {
      "inputs": [],
      "name": "swapSellTax",
      "outputs": [
        {
          "internalType": "uint256",
          "name": "",
          "type": "uint256"
        }
      ],
      "stateMutability": "view",
      "type": "function"
    },
    {
      "inputs": [],
      "name": "ticketFlexibilityDuration",
      "outputs": [
        {
          "internalType": "uint256",
          "name": "",
          "type": "uint256"
        }
      ],
      "stateMutability": "view",
      "type": "function"
    },
    {
      "inputs": [
        {
          "internalType": "uint256",
          "name": "",
          "type": "uint256"
        }
      ],
      "name": "ticketOwner",
      "outputs": [
        {
          "internalType": "address",
          "name": "",
          "type": "address"
        }
      ],
      "stateMutability": "view",
      "type": "function"
    },
    {
      "inputs": [
        {
          "internalType": "uint256",
          "name": "",
          "type": "uint256"
        },
        {
          "internalType": "uint256",
          "name": "",
          "type": "uint256"
        }
      ],
      "name": "ticketPendingRewards",
      "outputs": [
        {
          "internalType": "address",
          "name": "upline",
          "type": "address"
        },
        {
          "internalType": "uint256",
          "name": "amount",
          "type": "uint256"
        }
      ],
      "stateMutability": "view",
      "type": "function"
    },
    {
      "inputs": [
        {
          "internalType": "address",
          "name": "newOwner",
          "type": "address"
        }
      ],
      "name": "transferOwnership",
      "outputs": [],
      "stateMutability": "nonpayable",
      "type": "function"
    },
    {
      "inputs": [],
      "name": "treasuryPercent",
      "outputs": [
        {
          "internalType": "uint256",
          "name": "",
          "type": "uint256"
        }
      ],
      "stateMutability": "view",
      "type": "function"
    },
    {
      "inputs": [],
      "name": "treasuryWallet",
      "outputs": [
        {
          "internalType": "address",
          "name": "",
          "type": "address"
        }
      ],
      "stateMutability": "view",
      "type": "function"
    },
    {
      "inputs": [
        {
          "internalType": "address",
          "name": "newImplementation",
          "type": "address"
        },
        {
          "internalType": "bytes",
          "name": "data",
          "type": "bytes"
        }
      ],
      "name": "upgradeToAndCall",
      "outputs": [],
      "stateMutability": "payable",
      "type": "function"
    },
    {
      "inputs": [
        {
          "internalType": "address",
          "name": "",
          "type": "address"
        }
      ],
      "name": "userInfo",
      "outputs": [
        {
          "internalType": "address",
          "name": "referrer",
          "type": "address"
        },
        {
          "internalType": "uint256",
          "name": "activeDirects",
          "type": "uint256"
        },
        {
          "internalType": "uint256",
          "name": "teamCount",
          "type": "uint256"
        },
        {
          "internalType": "uint256",
          "name": "totalRevenue",
          "type": "uint256"
        },
        {
          "internalType": "uint256",
          "name": "currentCap",
          "type": "uint256"
        },
        {
          "internalType": "bool",
          "name": "isActive",
          "type": "bool"
        },
        {
          "internalType": "uint256",
          "name": "refundFeeAmount",
          "type": "uint256"
        },
        {
          "internalType": "uint256",
          "name": "teamTotalVolume",
          "type": "uint256"
        },
        {
          "internalType": "uint256",
          "name": "teamTotalCap",
          "type": "uint256"
        },
        {
          "internalType": "uint256",
          "name": "maxTicketAmount",
          "type": "uint256"
        },
        {
          "internalType": "uint256",
          "name": "maxSingleTicketAmount",
          "type": "uint256"
        }
      ],
      "stateMutability": "view",
      "type": "function"
    },
    {
      "inputs": [
        {
          "internalType": "address",
          "name": "",
          "type": "address"
        },
        {
          "internalType": "uint256",
          "name": "",
          "type": "uint256"
        }
      ],
      "name": "userStakes",
      "outputs": [
        {
          "internalType": "uint256",
          "name": "id",
          "type": "uint256"
        },
        {
          "internalType": "uint256",
          "name": "amount",
          "type": "uint256"
        },
        {
          "internalType": "uint256",
          "name": "startTime",
          "type": "uint256"
        },
        {
          "internalType": "uint256",
          "name": "cycleDays",
          "type": "uint256"
        },
        {
          "internalType": "bool",
          "name": "active",
          "type": "bool"
        },
        {
          "internalType": "uint256",
          "name": "paid",
          "type": "uint256"
        }
      ],
      "stateMutability": "view",
      "type": "function"
    },
    {
      "inputs": [
        {
          "internalType": "address",
          "name": "",
          "type": "address"
        }
      ],
      "name": "userTicket",
      "outputs": [
        {
          "internalType": "uint256",
          "name": "ticketId",
          "type": "uint256"
        },
        {
          "internalType": "uint256",
          "name": "amount",
          "type": "uint256"
        },
        {
          "internalType": "uint256",
          "name": "purchaseTime",
          "type": "uint256"
        },
        {
          "internalType": "bool",
          "name": "exited",
          "type": "bool"
        }
      ],
      "stateMutability": "view",
      "type": "function"
    },
    {
      "inputs": [
        {
          "internalType": "address",
          "name": "user",
          "type": "address"
        }
      ],
      "name": "validateTeamCount",
      "outputs": [
        {
          "internalType": "bool",
          "name": "",
          "type": "bool"
        }
      ],
      "stateMutability": "view",
      "type": "function"
    }
  ],
  "bytecode": "0x60a0604052306080523480156200001557600080fd5b506200002062000026565b620000da565b7ff0c57e16840df040f15088dc2f81fe391c3923bec73e23a9662efc9c229c6a00805468010000000000000000900460ff1615620000775760405163f92ee8a960e01b815260040160405180910390fd5b80546001600160401b0390811614620000d75780546001600160401b0319166001600160401b0390811782556040519081527fc7f505b2f371ae2175ee4913f4499e1f2633a7b5936321eed1cdaeb6115181d29060200160405180910390a15b50565b608051615e2162000104600039600081816145c8015281816145f1015261472e0152615e216000f3fe6080604052600436106102f45760003560e01c806304ef9d58146102f957806304f618cb14610322578063054d50d41461034457806305ad3935146103645780630a5c4567146103915780630e2be210146103b15780630fc4fc1a146103d85780631427f616146104055780631788513c1461041a578063182c84cc1461043a5780631959a0021461045a5780631d0dac761461053957806321f483d31461054f57806327f082f41461057e578063372500ab146105945780633a3ea2f0146105a95780633d96827c146105be5780633dbd46bd146105ee5780634626402b146106245780634719400114610644578063488b5d97146106725780634b950ccd146106875780634ea4c6b3146106c05780634f1ef286146106e057806352778b05146106f357806352d1902d146107135780636031a52f1461072857806367dd74ca1461073e5780636dd668271461075e578063715018a61461077457806371c757ec1461078957806374b0eecf146107c257806375506c96146107e257806375f0a874146107f857806377a2a54014610818578063813380cd1461082e57806386481d401461085c5780638710bcaa1461087c57806388481b61146108e357806388fd4d33146108f85780638a859a85146109185780638c0eaa481461092d5780638da5cb5b146109425780639370b08014610957578063952539921461096d5780639cd441da1461098d578063ac8f50aa146109ad578063ad3cb1cc146109cd578063b048a4bb14610a0b578063b5d5b5fa14610a25578063b759936b14610a74578063bd594dcf14610a8a578063be040fb014610aa0578063be57479914610ab5578063c2ff12fc14610ad5578063cc2a9a5b14610b0b578063ccf6194414610b2b578063ceaa366d14610b41578063d2c8e0e514610b57578063d2f8253614610b84578063d8020a1814610ba3578063deab8aea14610bb9578063dec7fa3b14610bd9578063e19434e714610bef578063e306744914610c0f578063e4412f6814610c25578063f2fde38b14610c3b575b600080fd5b34801561030557600080fd5b5061030f600b5481565b6040519081526020015b60405180910390f35b34801561032e57600080fd5b5061034261033d36600461565e565b610c5b565b005b34801561035057600080fd5b5061030f61035f366004615679565b610d60565b34801561037057600080fd5b5061038461037f3660046156a5565b610dde565b60405161031991906156cf565b34801561039d57600080fd5b506103426103ac3660046156e3565b610e16565b3480156103bd57600080fd5b506103c6600281565b60405160ff9091168152602001610319565b3480156103e457600080fd5b506103f86103f336600461565e565b6110e0565b60405161031991906156fc565b34801561041157600080fd5b506103c6600081565b34801561042657600080fd5b50600154610384906001600160a01b031681565b34801561044657600080fd5b5061030f6104553660046156e3565b611211565b34801561046657600080fd5b506104dc61047536600461565e565b600f60205260009081526040902080546001820154600283015460038401546004850154600586015460068701546007880154600889015460098a0154600a909a01546001600160a01b0390991699979896979596949560ff90941694929391929091908b565b604080516001600160a01b03909c168c5260208c019a909a52988a01979097526060890195909552608088019390935290151560a087015260c086015260e085015261010084015261012083015261014082015261016001610319565b34801561054557600080fd5b5061030f60185481565b34801561055b57600080fd5b5061056f61056a3660046156e3565b61124b565b6040516103199392919061575e565b34801561058a57600080fd5b5061030f600d5481565b3480156105a057600080fd5b5061034261127e565b3480156105b557600080fd5b5061030f6118ce565b3480156105ca57600080fd5b506105de6105d936600461565e565b61190e565b6040519015158152602001610319565b3480156105fa57600080fd5b506103846106093660046156e3565b601e602052600090815260409020546001600160a01b031681565b34801561063057600080fd5b50600354610384906001600160a01b031681565b34801561065057600080fd5b5061066461065f3660046156e3565b611942565b604051610319929190615774565b34801561067e57600080fd5b5061030f603c81565b34801561069357600080fd5b5061030f6106a236600461565e565b6001600160a01b03166000908152600f60205260409020600a015490565b3480156106cc57600080fd5b506103426106db366004615782565b6119e5565b6103426106ee366004615812565b611e54565b3480156106ff57600080fd5b5061034261070e3660046156e3565b611e6f565b34801561071f57600080fd5b5061030f612122565b34801561073457600080fd5b5061030f60195481565b34801561074a57600080fd5b506103426107593660046156e3565b61213f565b34801561076a57600080fd5b5061030f60155481565b34801561078057600080fd5b50610342612747565b34801561079557600080fd5b5061030f6107a436600461565e565b6001600160a01b03166000908152600f602052604090206002015490565b3480156107ce57600080fd5b506103426107dd366004615902565b612759565b3480156107ee57600080fd5b5061030f601a5481565b34801561080457600080fd5b50600254610384906001600160a01b031681565b34801561082457600080fd5b5061030f60175481565b34801561083a57600080fd5b5061084e610849366004615782565b6128f2565b60405161031992919061596d565b34801561086857600080fd5b506106646108773660046156e3565b612938565b34801561088857600080fd5b506108c161089736600461565e565b60106020526000908152604090208054600182015460028301546003909301549192909160ff1684565b6040805194855260208501939093529183015215156060820152608001610319565b3480156108ef57600080fd5b506103c6600481565b34801561090457600080fd5b50600454610384906001600160a01b031681565b34801561092457600080fd5b506103c6600181565b34801561093957600080fd5b506103c6600381565b34801561094e57600080fd5b5061038461298e565b34801561096357600080fd5b5061030f600e5481565b34801561097957600080fd5b50600054610384906001600160a01b031681565b34801561099957600080fd5b506103426109a8366004615782565b6129a9565b3480156109b957600080fd5b5061084e6109c8366004615782565b612b44565b3480156109d957600080fd5b506109fe604051806040016040528060058152602001640352e302e360dc1b81525081565b60405161031991906159aa565b348015610a1757600080fd5b506016546105de9060ff1681565b348015610a3157600080fd5b50610a45610a403660046156a5565b612b60565b6040805196875260208701959095529385019290925260608401521515608083015260a082015260c001610319565b348015610a8057600080fd5b5061030f601f5481565b348015610a9657600080fd5b5061030f60075481565b348015610aac57600080fd5b50610342612bba565b348015610ac157600080fd5b50610342610ad03660046159dd565b6134c3565b348015610ae157600080fd5b50610384610af03660046156e3565b601c602052600090815260409020546001600160a01b031681565b348015610b1757600080fd5b50610342610b26366004615ab0565b613565565b348015610b3757600080fd5b5061030f60065481565b348015610b4d57600080fd5b5061030f600a5481565b348015610b6357600080fd5b50610b77610b7236600461565e565b613ba1565b6040516103199190615b24565b348015610b9057600080fd5b506016546105de90610100900460ff1681565b348015610baf57600080fd5b5061030f60085481565b348015610bc557600080fd5b50600554610384906001600160a01b031681565b348015610be557600080fd5b5061030f600c5481565b348015610bfb57600080fd5b5061030f610c0a36600461565e565b613c17565b348015610c1b57600080fd5b5061030f601b5481565b348015610c3157600080fd5b5061030f60095481565b348015610c4757600080fd5b50610342610c5636600461565e565b613ca4565b336000908152600f60205260409020546001600160a01b031615610c925760405163682a906560e01b815260040160405180910390fd5b336001600160a01b03821603610cbb57604051631acade8960e31b815260040160405180910390fd5b6001600160a01b038116610ce25760405163e6c4247b60e01b815260040160405180910390fd5b336000818152600f6020908152604080832080546001600160a01b0387166001600160a01b0319918216811790925581855260128452828520805460018101825590865293852090930180549093168517909255519092917fa6dbb5aa28f35437de94d685d66edce5fb4812196b4984b91dfd5a7b38c0fb3091a350565b600083600003610d835760405163162908e360e11b815260040160405180910390fd5b821580610d8e575081155b15610dac576040516343c7ad8160e11b815260040160405180910390fd5b6000610db88386615b87565b90506000610dc68686615b9e565b9050610dd28183615bb1565b925050505b9392505050565b60126020528160005260406000208181548110610dfa57600080fd5b6000918252602090912001546001600160a01b03169150829050565b610e1e613cdf565b80600003610e3f5760405163162908e360e11b815260040160405180910390fd5b6000546040516323b872dd60e01b81526001600160a01b03909116906323b872dd90610e7390339030908690600401615bd3565b6020604051808303816000875af1158015610e92573d6000803e3d6000fd5b505050506040513d601f19601f82011682018060405250810190610eb69190615bf7565b506000610ec882601754601854610d60565b905060006064600d5483610edc9190615b87565b610ee69190615bb1565b90506000610ef48284615c19565b6001546040516370a0823160e01b815291925084916001600160a01b03909116906370a0823190610f299030906004016156cf565b602060405180830381865afa158015610f46573d6000803e3d6000fd5b505050506040513d601f19601f82011682018060405250810190610f6a9190615c2c565b1015610f89576040516343c7ad8160e11b815260040160405180910390fd5b8360176000828254610f9b9190615b9e565b925050819055508260186000828254610fb49190615c19565b9091555050600154604051630852cd8d60e31b8152600481018490526001600160a01b03909116906342966c6890602401600060405180830381600087803b158015610fff57600080fd5b505af1158015611013573d6000803e3d6000fd5b505060015460405163a9059cbb60e01b81526001600160a01b03909116925063a9059cbb9150611049903390859060040161596d565b6020604051808303816000875af1158015611068573d6000803e3d6000fd5b505050506040513d601f19601f8201168201806040525081019061108c9190615bf7565b50336001600160a01b03167f36864aeefce16bc4aaceeb6b0cdfb2ad1455a8cb4ccb0db148a2bc6e7166f97c8583856040516110ca9392919061575e565b60405180910390a25050506110dd613d15565b50565b6001600160a01b03811660009081526012602052604081208054606092906001600160401b03811115611115576111156157a4565b60405190808252806020026020018201604052801561117357816020015b611160604051806060016040528060006001600160a01b0316815260200160008152602001600081525090565b8152602001906001900390816111335790505b50905060005b825481101561120957600083828154811061119657611196615c45565b60009182526020808320909101546001600160a01b031680835260108252604092839020835160608101855282815260018201549381019390935260028101549383019390935285519093508590859081106111f4576111f4615c45565b60209081029190910101525050600101611179565b509392505050565b6000600382106112235750600f919050565b600282106112335750600a919050565b6001821061124357506005919050565b506000919050565b6014818154811061125b57600080fd5b600091825260209091206003909102018054600182015460029092015490925083565b611286613cdf565b336000908152601060205260409020600181015415806112aa5750600381015460ff165b156112c857604051634065aaf160e11b815260040160405180910390fd5b33600090815260116020526040812090805b825481101561152d578281815481106112f5576112f5615c45565b600091825260209091206004600690920201015460ff161561152557600083828154811061132557611325615c45565b906000526020600020906006020160030154600703611348575062cb73566113af565b83828154811061135a5761135a615c45565b906000526020600020906006020160030154600f0361137d575062fe502b6113af565b83828154811061138f5761138f615c45565b906000526020600020906006020160030154601e036113af57506301312d005b6000603c8584815481106113c5576113c5615c45565b906000526020600020906006020160020154426113e29190615c19565b6113ec9190615bb1565b905084838154811061140057611400615c45565b9060005260206000209060060201600301548111156114405784838154811061142b5761142b615c45565b90600052602060002090600602016003015490505b8060000361144f575050611525565b6000633b9aca00828488878154811061146a5761146a615c45565b9060005260206000209060060201600101546114869190615b87565b6114909190615b87565b61149a9190615bb1565b905060008685815481106114b0576114b0615c45565b9060005260206000209060060201600501549050808211156115205760006114d88284615c19565b90506114e48188615b9e565b9650808887815481106114f9576114f9615c45565b906000526020600020906006020160050160008282546115199190615b9e565b9091555050505b505050505b6001016112da565b508060000361154f57604051630fec21fd60e21b815260040160405180910390fd5b336000908152600f602052604090206004810154600390910154611574908390615b9e565b11156115a157336000908152600f60205260409020600381015460049091015461159e9190615c19565b90505b806000036115ba576115b233613d26565b5050506118c4565b336000908152600f6020526040812060030180548392906115dc908490615b9e565b90915550600090506115ef600283615bb1565b905060006115fe600284615bb1565b600080546040516370a0823160e01b8152929350909184916001600160a01b0316906370a08231906116349030906004016156cf565b602060405180830381865afa158015611651573d6000803e3d6000fd5b505050506040513d601f19601f820116820180604052508101906116759190615c2c565b101580156116835750600083115b156117025760005460405163a9059cbb60e01b81526001600160a01b039091169063a9059cbb906116ba903390879060040161596d565b6020604051808303816000875af11580156116d9573d6000803e3d6000fd5b505050506040513d601f19601f820116820180604052508101906116fd9190615bf7565b508290505b600061170c6118ce565b905060008161172385670de0b6b3a7640000615b87565b61172d9190615bb1565b6001546040516370a0823160e01b815291925060009183916001600160a01b0316906370a08231906117639030906004016156cf565b602060405180830381865afa158015611780573d6000803e3d6000fd5b505050506040513d601f19601f820116820180604052508101906117a49190615c2c565b101580156117b25750600082115b156118315760015460405163a9059cbb60e01b81526001600160a01b039091169063a9059cbb906117e9903390869060040161596d565b6020604051808303816000875af1158015611808573d6000803e3d6000fd5b505050506040513d601f19601f8201168201806040525081019061182c9190615bf7565b508190505b336001600160a01b0316600080516020615dac83398151915288600060405161185b929190615c5b565b60405180910390a288546040513391600080516020615d2c8339815191529161188a9188918691600091615c6c565b60405180910390a2336000908152600f602052604090206004810154600390910154106118ba576118ba33613d26565b5050505050505050505b6118cc613d15565b565b60006018546000036118e75750670de0b6b3a764000090565b6018546017546118ff90670de0b6b3a7640000615b87565b6119099190615bb1565b905090565b60008061191c836000614064565b6001600160a01b039093166000908152600f602052604090206002015490921492915050565b60008060005b6014548110156119d9576014818154811061196557611965615c45565b90600052602060002090600302016000015484106119d1576014818154811061199057611990615c45565b906000526020600020906003020160010154601482815481106119b5576119b5615c45565b9060005260206000209060030201600201549250925050915091565b600101611948565b50600093849350915050565b6119ed613cdf565b60165460ff16611a1057604051634065aaf160e11b815260040160405180910390fd5b3360009081526010602052604081206001810154909103611a4457604051634065aaf160e11b815260040160405180910390fd5b600381015460ff1615611a6a57604051631ecb2c4f60e31b815260040160405180910390fd5b6015548160020154611a7c9190615b9e565b421115611a9c57604051630407b05b60e31b815260040160405180910390fd5b81600714158015611aae575081600f14155b8015611abb575081601e14155b15611ad957604051634dc7f5ff60e11b815260040160405180910390fd5b82600003611afa5760405163162908e360e11b815260040160405180910390fd5b6000546040516323b872dd60e01b81526001600160a01b03909116906323b872dd90611b2e90339030908890600401615bd3565b6020604051808303816000875af1158015611b4d573d6000803e3d6000fd5b505050506040513d601f19601f82011682018060405250810190611b719190615bf7565b50601a8054906000611b8283615c8a565b9091555050336000818152601160209081526040808320815160c081018352601a805482528185018a815242838601908152606084018b815260016080860181815260a087018b815288548084018a55988c528a8c2097516006909902909701978855935190870155905160028601555160038501555160048401805460ff1916911515919091179055905160059092019190915580548452601e90925290912080546001600160a01b0319168317905554611c4091908590614137565b6000611c4f8260010154614395565b90506000611c5c336143ae565b905081811015611c7f576040516343c7ad8160e11b815260040160405180910390fd5b611c8833614440565b336001600160a01b03167fa8a1b9e33e503eed12bf7e7c8c01c7f3b60217a496bddd0f5db351dd8c056c1c8686601a54604051611cc79392919061575e565b60405180910390a2336000908152600f60205260409020600601548015611e4457336000908152600f60205260408120600601556017548111801590611d7c57506000546040516370a0823160e01b815282916001600160a01b0316906370a0823190611d389030906004016156cf565b602060405180830381865afa158015611d55573d6000803e3d6000fd5b505050506040513d601f19601f82011682018060405250810190611d799190615c2c565b10155b15611e44578060176000828254611d939190615c19565b909155505060005460405163a9059cbb60e01b81526001600160a01b039091169063a9059cbb90611dca903390859060040161596d565b6020604051808303816000875af1158015611de9573d6000803e3d6000fd5b505050506040513d601f19601f82011682018060405250810190611e0d9190615bf7565b5060405181815233907f3437b9ea7fa19c6d233dd70cc787a70fab87cee64d8ba4571512cc84402748f99060200160405180910390a25b50505050611e50613d15565b5050565b611e5c6145bd565b611e6582614662565b611e50828261466a565b611e77613cdf565b80600003611e985760405163162908e360e11b815260040160405180910390fd5b6001546040516323b872dd60e01b81526001600160a01b03909116906323b872dd90611ecc90339030908690600401615bd3565b6020604051808303816000875af1158015611eeb573d6000803e3d6000fd5b505050506040513d601f19601f82011682018060405250810190611f0f9190615bf7565b5060006064600e5483611f229190615b87565b611f2c9190615bb1565b90506000611f3a8284615c19565b600154604051630852cd8d60e31b8152600481018590529192506001600160a01b0316906342966c6890602401600060405180830381600087803b158015611f8157600080fd5b505af1158015611f95573d6000803e3d6000fd5b505050506000611faa82601854601754610d60565b6000546040516370a0823160e01b815291925082916001600160a01b03909116906370a0823190611fdf9030906004016156cf565b602060405180830381865afa158015611ffc573d6000803e3d6000fd5b505050506040513d601f19601f820116820180604052508101906120209190615c2c565b101561203f576040516343c7ad8160e11b815260040160405180910390fd5b81601860008282546120519190615b9e565b92505081905550806017600082825461206a9190615c19565b909155505060005460405163a9059cbb60e01b81526001600160a01b039091169063a9059cbb906120a1903390859060040161596d565b6020604051808303816000875af11580156120c0573d6000803e3d6000fd5b505050506040513d601f19601f820116820180604052508101906120e49190615bf7565b50336001600160a01b03167f223c8ad0806f634524940a8595f819c5cfc7b1f4f4f45791269301df0a7e61d58583866040516110ca9392919061575e565b600061212c614723565b50600080516020615d6c83398151915290565b612147613cdf565b6121503361476c565b8068056bc75e2d6310000014158015612172575080681043561a882930000014155b8015612187575080681b1ae4d6e2ef50000014155b801561219c575080683635c9adc5dea0000014155b156121ba5760405163162908e360e11b815260040160405180910390fd5b6000546040516323b872dd60e01b81526001600160a01b03909116906323b872dd906121ee90339030908690600401615bd3565b6020604051808303816000875af115801561220d573d6000803e3d6000fd5b505050506040513d601f19601f820116820180604052508101906122319190615bf7565b50336000908152601060205260409020600381015460ff16156122b7576019805490600061225e83615c8a565b90915550506019548155600181018290554260028201556003808201805460ff19169055336000908152600f6020526040812082015561229f908390615b87565b336000908152600f6020526040902060040155612341565b80600101546000036122d3576019805490600061225e83615c8a565b818160010160008282546122e79190615b9e565b9091555050336000908152600f602052604090206005015460ff161561230e574260028201555b612319826003615b87565b336000908152600f60205260408120600401805490919061233b908490615b9e565b90915550505b336000908152600f602052604090206009015460018201541115612378576001810154336000908152600f60205260409020600901555b336000908152600f60205260409020600a01548211156123a857336000908152600f60205260409020600a018290555b80546000908152601c6020908152604080832080546001600160a01b031916339081179091558352600f9091529020546001600160a01b0316801580159061240b57506001600160a01b0381166000908152600f602052604090206005015460ff165b156124845760006064600654856124229190615b87565b61242c9190615bb1565b9050600061243c83836002614943565b9050801561247d57835460405133916001600160a01b03861691600080516020615d0c83398151915291612474918691600291615ca3565b60405180910390a35b505061251a565b6000546002546006546001600160a01b039283169263a9059cbb9216906064906124ae9088615b87565b6124b89190615bb1565b6040518363ffffffff1660e01b81526004016124d592919061596d565b6020604051808303816000875af11580156124f4573d6000803e3d6000fd5b505050506040513d601f19601f820116820180604052508101906125189190615bf7565b505b6125243384614ada565b6000546002546008546001600160a01b039283169263a9059cbb92169060649061254e9088615b87565b6125589190615bb1565b6040518363ffffffff1660e01b815260040161257592919061596d565b6020604051808303816000875af1158015612594573d6000803e3d6000fd5b505050506040513d601f19601f820116820180604052508101906125b89190615bf7565b5060006064600954856125cb9190615b87565b6125d59190615bb1565b90506125e081614d00565b600054600454600a546001600160a01b039283169263a9059cbb92169060649061260a9089615b87565b6126149190615bb1565b6040518363ffffffff1660e01b815260040161263192919061596d565b6020604051808303816000875af1158015612650573d6000803e3d6000fd5b505050506040513d601f19601f820116820180604052508101906126749190615bf7565b50600054600354600b546001600160a01b039283169263a9059cbb92169060649061269f9089615b87565b6126a99190615bb1565b6040518363ffffffff1660e01b81526004016126c692919061596d565b6020604051808303816000875af11580156126e5573d6000803e3d6000fd5b505050506040513d601f19601f820116820180604052508101906127099190615bf7565b5061271333614440565b825460405133917f2a91574e12ad96234e84923e146b0946ecfb871cd8d5534dc1fdcbe87a7c01b3916110ca918891615774565b61274f614f11565b6118cc6000614f43565b612761614f11565b8281146127815760405163980a3f3160e01b815260040160405180910390fd5b60005b838110156128b8576000600f60008787858181106127a4576127a4615c45565b90506020020160208101906127b9919061565e565b6001600160a01b03166001600160a01b031681526020019081526020016000206002015490508383838181106127f1576127f1615c45565b90506020020135600f600088888681811061280e5761280e615c45565b9050602002016020810190612823919061565e565b6001600160a01b0316815260208101919091526040016000206002015585858381811061285257612852615c45565b9050602002016020810190612867919061565e565b6001600160a01b0316600080516020615d4c8339815191528286868681811061289257612892615c45565b905060200201356040516128a7929190615774565b60405180910390a250600101612784565b506040518381527f9c03d1f6ba485b6cf0a120117d651729467751d3079318d05171b6f389f6bf4b9060200160405180910390a150505050565b6013602052816000526040600020818154811061290e57600080fd5b6000918252602090912060029091020180546001909101546001600160a01b039091169250905082565b60008060005b6014548110156119d9576014818154811061295b5761295b615c45565b9060005260206000209060030201600001548410612986576014818154811061199057611990615c45565b60010161293e565b600080612999614f9f565b546001600160a01b031692915050565b6129b1614f11565b811580156129bd575080155b156129db5760405163162908e360e11b815260040160405180910390fd5b8115612a71576000546040516323b872dd60e01b81526001600160a01b03909116906323b872dd90612a1590339030908790600401615bd3565b6020604051808303816000875af1158015612a34573d6000803e3d6000fd5b505050506040513d601f19601f82011682018060405250810190612a589190615bf7565b508160176000828254612a6b9190615b9e565b90915550505b8015612b07576001546040516323b872dd60e01b81526001600160a01b03909116906323b872dd90612aab90339030908690600401615bd3565b6020604051808303816000875af1158015612aca573d6000803e3d6000fd5b505050506040513d601f19601f82011682018060405250810190612aee9190615bf7565b508060186000828254612b019190615b9e565b90915550505b7f38f8a0c92f4c5b0b6877f878cb4c0c8d348a47b76d716c8e78f425043df9515b8282604051612b38929190615774565b60405180910390a15050565b601d602052816000526040600020818154811061290e57600080fd5b60116020528160005260406000208181548110612b7c57600080fd5b600091825260209091206006909102018054600182015460028301546003840154600485015460059095015493965091945092909160ff9091169086565b612bc2613cdf565b601654610100900460ff16612c095760405162461bcd60e51b8152602060048201526008602482015267111a5cd8589b195960c21b60448201526064015b60405180910390fd5b336000908152601160205260408120908080805b8454811015612f7757848181548110612c3857612c38615c45565b600091825260209091206004600690920201015460ff1615612f6f576000603c868381548110612c6a57612c6a615c45565b906000526020600020906006020160030154612c869190615b87565b868381548110612c9857612c98615c45565b906000526020600020906006020160020154612cb49190615b9e565b9050804210612f6d576000868381548110612cd157612cd1615c45565b906000526020600020906006020160030154600703612cf4575062cb7356612d5b565b868381548110612d0657612d06615c45565b906000526020600020906006020160030154600f03612d29575062fe502b612d5b565b868381548110612d3b57612d3b615c45565b906000526020600020906006020160030154601e03612d5b57506301312d005b6000633b9aca00888581548110612d7457612d74615c45565b906000526020600020906006020160030154838a8781548110612d9957612d99615c45565b906000526020600020906006020160010154612db59190615b87565b612dbf9190615b87565b612dc99190615bb1565b90506000888581548110612ddf57612ddf615c45565b906000526020600020906006020160050154821115612e2a57888581548110612e0a57612e0a615c45565b90600052602060002090600602016005015482612e279190615c19565b90505b612e348187615b9e565b955080898681548110612e4957612e49615c45565b90600052602060002090600602016005016000828254612e699190615b9e565b9091555050336000908152600f602052604081206009015490819003612e9e5750336000908152601060205260409020600101545b60006064600c5483612eb09190615b87565b612eba9190615bb1565b905060008b8881548110612ed057612ed0615c45565b9060005260206000209060060201600101549050808b612ef09190615b9e565b9a50612efc828b615b9e565b995060008c8981548110612f1257612f12615c45565b906000526020600020906006020160040160006101000a81548160ff021916908315150217905550612f668c8981548110612f4f57612f4f615c45565b906000526020600020906006020160000154614fc3565b5050505050505b505b600101612c1d565b506000831180612f875750600081115b612fc75760405162461bcd60e51b81526020600482015260116024820152704e6f7468696e6720746f2072656465656d60781b6044820152606401612c00565b811561305d576000546040516323b872dd60e01b81526001600160a01b03909116906323b872dd9061300190339030908790600401615bd3565b6020604051808303816000875af1158015613020573d6000803e3d6000fd5b505050506040513d601f19601f820116820180604052508101906130449190615bf7565b5081601760008282546130579190615b9e565b90915550505b80156133b857336000908152600f6020526040812060038101546004909101546130879190615c19565b9050808211156130c657336001600160a01b0316600080516020615d8c83398151915283836040516130ba929190615774565b60405180910390a28091505b81156133b657336000908152600f6020526040812060030180548492906130ee908490615b9e565b9091555060009050613101600284615bb1565b90506000613110600285615bb1565b600080546040516370a0823160e01b8152929350909184916001600160a01b0316906370a08231906131469030906004016156cf565b602060405180830381865afa158015613163573d6000803e3d6000fd5b505050506040513d601f19601f820116820180604052508101906131879190615c2c565b101580156131955750600083115b156132145760005460405163a9059cbb60e01b81526001600160a01b039091169063a9059cbb906131cc903390879060040161596d565b6020604051808303816000875af11580156131eb573d6000803e3d6000fd5b505050506040513d601f19601f8201168201806040525081019061320f9190615bf7565b508290505b600061321e6118ce565b905060008161323585670de0b6b3a7640000615b87565b61323f9190615bb1565b6001546040516370a0823160e01b815291925060009183916001600160a01b0316906370a08231906132759030906004016156cf565b602060405180830381865afa158015613292573d6000803e3d6000fd5b505050506040513d601f19601f820116820180604052508101906132b69190615c2c565b101580156132c45750600082115b156133435760015460405163a9059cbb60e01b81526001600160a01b039091169063a9059cbb906132fb903390869060040161596d565b6020604051808303816000875af115801561331a573d6000803e3d6000fd5b505050506040513d601f19601f8201168201806040525081019061333e9190615bf7565b508190505b336001600160a01b0316600080516020615dac83398151915289600060405161336d929190615c5b565b60405180910390a233600081815260106020526040808220549051600080516020615d2c833981519152926133a792899287929190615c6c565b60405180910390a25050505050505b505b82156134355760005460405163a9059cbb60e01b81526001600160a01b039091169063a9059cbb906133f0903390879060040161596d565b6020604051808303816000875af115801561340f573d6000803e3d6000fd5b505050506040513d601f19601f820116820180604052508101906134339190615bf7565b505b336000908152600f602052604081206006018054849290613457908490615b9e565b90915550506040513390600080516020615dcc8339815191529061347e9086908690615774565b60405180910390a261348f33614440565b336000908152600f602052604090206004810154600390910154106134b7576134b733613d26565b505050506118cc613d15565b6134cb614f11565b6134d7601460006155b9565b60005b81518110156135385760148282815181106134f7576134f7615c45565b6020908102919091018101518254600181810185556000948552938390208251600390920201908155918101518284015560400151600290910155016134da565b506040517f81086beec7078a58d4155c0b0d7d98e4d4df580e4737331309687e6ab8a6944090600090a150565b600061356f61518a565b805490915060ff600160401b82041615906001600160401b03166000811580156135965750825b90506000826001600160401b031660011480156135b25750303b155b9050811580156135c0575080155b156135de5760405163f92ee8a960e01b815260040160405180910390fd5b84546001600160401b0319166001178555831561360757845460ff60401b1916600160401b1785555b613610336151b3565b6136186151c4565b6136206151d4565b8a6000806101000a8154816001600160a01b0302191690836001600160a01b0316021790555089600160006101000a8154816001600160a01b0302191690836001600160a01b0316021790555088600260006101000a8154816001600160a01b0302191690836001600160a01b0316021790555087600360006101000a8154816001600160a01b0302191690836001600160a01b0316021790555086600460006101000a8154816001600160a01b0302191690836001600160a01b0316021790555085600560006101000a8154816001600160a01b0302191690836001600160a01b031602179055506019600681905550600f600781905550600560088190555060056009819055506019600a819055506019600b819055506001600c819055506032600d819055506019600e819055506203f4806015819055506001601660006101000a81548160ff0219169083151502179055506001601660016101000a81548160ff02191690831515021790555042601b8190555060146040518060600160405280612710815260200160098152602001602d8152509080600181540180825580915050600190039060005260206000209060030201600090919091909150600082015181600001556020820151816001015560408201518160020155505060146040518060600160405280611388815260200160088152602001602881525090806001815401808255809150506001900390600052602060002090600302016000909190919091506000820151816000015560208201518160010155604082015181600201555050601460405180606001604052806107d0815260200160078152602001602381525090806001815401808255809150506001900390600052602060002090600302016000909190919091506000820151816000015560208201518160010155604082015181600201555050601460405180606001604052806103e8815260200160068152602001601e81525090806001815401808255809150506001900390600052602060002090600302016000909190919091506000820151816000015560208201518160010155604082015181600201555050601460405180606001604052806101f48152602001600581526020016019815250908060018154018082558091505060019003906000526020600020906003020160009091909190915060008201518160000155602082015181600101556040820151816002015550506014604051806060016040528060c8815260200160048152602001601481525090806001815401808255809150506001900390600052602060002090600302016000909190919091506000820151816000015560208201518160010155604082015181600201555050601460405180606001604052806064815260200160038152602001600f81525090806001815401808255809150506001900390600052602060002090600302016000909190919091506000820151816000015560208201518160010155604082015181600201555050601460405180606001604052806032815260200160028152602001600a815250908060018154018082558091505060019003906000526020600020906003020160009091909190915060008201518160000155602082015181600101556040820151816002015550506014604051806060016040528060148152602001600181526020016005815250908060018154018082558091505060019003906000526020600020906003020160009091909190915060008201518160000155602082015181600101556040820151816002015550508315613b9457845460ff60401b19168555604051600181527fc7f505b2f371ae2175ee4913f4499e1f2633a7b5936321eed1cdaeb6115181d29060200160405180910390a15b5050505050505050505050565b6001600160a01b038116600090815260126020908152604091829020805483518184028101840190945280845260609392830182828015613c0b57602002820191906000526020600020905b81546001600160a01b03168152600190910190602001808311613bed575b50505050509050919050565b6000613c21614f11565b6000613c2e836000614064565b6001600160a01b0384166000908152600f6020526040902060020154909150808214613c9b576001600160a01b0384166000818152600f60205260409081902060020184905551600080516020615d4c83398151915290613c929084908690615774565b60405180910390a25b5090505b919050565b613cac614f11565b6001600160a01b038116613cd6576000604051631e4fbdf760e01b8152600401612c0091906156cf565b6110dd81614f43565b6000613ce96151dc565b805490915060011901613d0f57604051633ee5aeb560e01b815260040160405180910390fd5b60029055565b6000613d1f6151dc565b6001905550565b6001600160a01b0381166000908152601060205260409020600381015460ff16611e505760038101805460ff191660011790556001600160a01b03821660009081526011602052604081209080805b8354811015613e9857838181548110613d9057613d90615c45565b600091825260209091206004600690920201015460ff1615613e9057600061012c600c54868481548110613dc657613dc6615c45565b9060005260206000209060060201600101546002613de49190615b87565b613dee9190615b87565b613df89190615bb1565b90506000858381548110613e0e57613e0e615c45565b9060005260206000209060060201600101549050818110613e3a57613e338282615c19565b9050613e3f565b600091505b613e498186615b9e565b9450613e558285615b9e565b93506000868481548110613e6b57613e6b615c45565b60009182526020909120600690910201600401805460ff191691151591909117905550505b600101613d75565b508115613f165760005460405163a9059cbb60e01b81526001600160a01b039091169063a9059cbb90613ed1908890869060040161596d565b6020604051808303816000875af1158015613ef0573d6000803e3d6000fd5b505050506040513d601f19601f82011682018060405250810190613f149190615bf7565b505b8015613f4d576001600160a01b0385166000908152600f602052604081206006018054839290613f47908490615b9e565b90915550505b6001600160a01b038086166000908152600f6020526040902060058101805460ff198116909155905460ff9091169116818015613f9257506001600160a01b03811615155b8015613fb857506001600160a01b0381166000908152600f602052604090206001015415155b15613fea576001600160a01b0381166000908152600f60205260408120600101805491613fe483615cbc565b91905055505b866001600160a01b0316600080516020615dcc8339815191528585604051614013929190615774565b60405180910390a285546040519081526001600160a01b038816907f920bb94eb3842a728db98228c375ff6b00c5bc5a54fac6736155517a0a20a61a9060200160405180910390a250505050505050565b60006001600160a01b038316158061407d575060148210155b1561408a57506000614131565b6001600160a01b0383166000908152601260205260408120815b815481101561412b5760008282815481106140c1576140c1615c45565b60009182526020808320909101546001600160a01b0316808352600f90915260409091206005015490915060ff1615614122576140ff600185615b9e565b935061411581614110886001615b9e565b614064565b61411f9085615b9e565b93505b506001016140a4565b50909150505b92915050565b6001600160a01b038084166000908152600f602052604081205490911690805b6001600160a01b0383161580159061416f5750601481105b1561438d576001600160a01b0383166000908152600f602052604090206005015460ff166141c7576001600160a01b039283166000908152600f602052604090205490921691806141bf81615c8a565b915050614157565b6001600160a01b0383166000908152601060205260409020600181015415806141f45750600381015460ff165b1561422a576001600160a01b039384166000908152600f6020526040902054909316928161422181615c8a565b92505050614157565b6001600160a01b0384166000908152600f602052604081206002015461424f90611942565b9150508381111561434c5760006142668583615c19565b6001840154909150889081111561427e575060018301545b6000606461428c8484615b87565b6142969190615bb1565b60008a8152601d60209081526040808320815180830183526001600160a01b038e81168083528286018881528454600180820187559589528789209451600291820290950180546001600160a01b03191695909416949094178355519190930155818552600f9093529281902090910154905192935090918b917fcf2f68cc66431465b13b971ea50f7d9d3c6b29a6d132d354cc3c9cf9585ab59f9161433d918691615774565b60405180910390a38396505050505b602d811061435b57505061438d565b6001600160a01b039485166000908152600f6020526040902054909416938261438381615c8a565b9350505050614157565b505050505050565b600060026143a4836003615b87565b6141319190615bb1565b6001600160a01b0381166000908152601160205260408120815b8154811015614439578181815481106143e3576143e3615c45565b600091825260209091206004600690920201015460ff16156144315781818154811061441157614411615c45565b9060005260206000209060060201600101548361442e9190615b9e565b92505b6001016143c8565b5050919050565b6001600160a01b0381166000908152601060205260408120600181015490919015614477576144728260010154614395565b61447a565b60005b905060008083600101541180156144965750600383015460ff16155b80156144a25750600082115b80156144b65750816144b3856143ae565b10155b6001600160a01b0385166000908152600f602052604090206005015490915060ff16801515821515036144ea575050505050565b6001600160a01b038581166000908152600f6020526040902060058101805460ff191685151517905554168061452257505050505050565b8215614564576001600160a01b0381166000908152600f6020526040812060010180549161454f83615c8a565b919050555061455f866001615200565b61438d565b6001600160a01b0381166000908152600f60205260409020600101541561438d576001600160a01b0381166000908152600f602052604081206001018054916145ac83615cbc565b919050555061438d86600019615200565b306001600160a01b037f000000000000000000000000000000000000000000000000000000000000000016148061464457507f00000000000000000000000000000000000000000000000000000000000000006001600160a01b0316614638600080516020615d6c833981519152546001600160a01b031690565b6001600160a01b031614155b156118cc5760405163703e46dd60e11b815260040160405180910390fd5b6110dd614f11565b816001600160a01b03166352d1902d6040518163ffffffff1660e01b8152600401602060405180830381865afa9250505080156146c4575060408051601f3d908101601f191682019092526146c191810190615c2c565b60015b6146e35781604051634c9c8ce360e01b8152600401612c0091906156cf565b600080516020615d6c833981519152811461471457604051632a87526960e21b815260048101829052602401612c00565b61471e83836153a8565b505050565b306001600160a01b037f000000000000000000000000000000000000000000000000000000000000000016146118cc5760405163703e46dd60e11b815260040160405180910390fd5b6001600160a01b0381166000908152601060205260409020600181015415806147995750600381015460ff165b156147a2575050565b60006147ad836143ae565b11156147b7575050565b60155481600201546147c99190615b9e565b42116147d3575050565b805460018201546001600160a01b038085166000908152600f60205260409020805460059091015491169060ff16801561481557506001600160a01b03811615155b801561483b57506001600160a01b0381166000908152600f602052604090206001015415155b1561486d576001600160a01b0381166000908152600f6020526040812060010180549161486783615cbc565b91905055505b6001600160a01b0385166000908152600f6020526040812060058101805460ff199081169091556003808301849055600490920183905582875560018701839055600287019290925585018054909116905582156148f95760008381526013602052604081206148dc916155da565b6000838152601c6020526040902080546001600160a01b03191690555b846001600160a01b03167f57025f0027038907eda728b59164fb63d06048f42e618a35267e6a12e49b2e468484604051614934929190615774565b60405180910390a25050505050565b6001600160a01b0383166000908152600f6020908152604080832060109092528220600582015460ff16158061497d5750600381015460ff165b8061498a57506001810154155b1561499a57600092505050610dd7565b6000826003015483600401546149b09190615c19565b905085818111156149f057819050876001600160a01b0316600080516020615d8c83398151915288846040516149e7929190615774565b60405180910390a25b8015614ab75780846003016000828254614a0a9190615b9e565b909155505060005460405163a9059cbb60e01b81526001600160a01b039091169063a9059cbb90614a41908b90859060040161596d565b6020604051808303816000875af1158015614a60573d6000803e3d6000fd5b505050506040513d601f19601f82011682018060405250810190614a849190615bf7565b50876001600160a01b0316600080516020615dac8339815191528288604051614aae929190615c5b565b60405180910390a25b8360040154846003015410614acf57614acf88613d26565b979650505050505050565b6001600160a01b038083166000908152600f6020526040812054909116908080806064614b08876001615b87565b614b129190615bb1565b90505b6001600160a01b03851615801590614b2d5750600f83105b8015614b395750601482105b15614c6f576001600160a01b0385166000908152600f602052604090206005015460ff16614b91576001600160a01b039485166000908152600f60205260409020549094169381614b8981615c8a565b925050614b15565b6001600160a01b0385166000908152600f6020526040812060010154614bb690611211565b905083811115614c30576000614bce87846003614943565b90508015614c2e57614be08187615b9e565b6001600160a01b03808b16600081815260106020526040908190205490519399509092918a1691600080516020615d0c83398151915291614c25918691600391615ca3565b60405180910390a35b505b6001600160a01b039586166000908152600f60205260409020549095169483614c5881615c8a565b9450508280614c6690615c8a565b93505050614b15565b6000606460075488614c819190615b87565b614c8b9190615bb1565b90506000614c998683615c19565b90508015614cf55780601f6000828254614cb39190615b9e565b9091555050601f546040517fca2e2bff26d2adb9fe155e9265350494c16751676879cb7ced9141e0fcf3934391614cec91849190615774565b60405180910390a15b505050505050505050565b80600003614d0b5750565b6017541580614d1a5750601854155b15614d225750565b80601754614d309190615b9e565b6000546040516370a0823160e01b81526001600160a01b03909116906370a0823190614d609030906004016156cf565b602060405180830381865afa158015614d7d573d6000803e3d6000fd5b505050506040513d601f19601f82011682018060405250810190614da19190615c2c565b1015614daa5750565b6000614dbb82601754601854610d60565b9050801580614dcb575060185481115b15614dd4575050565b6018546001546040516370a0823160e01b81526001600160a01b03909116906370a0823190614e079030906004016156cf565b602060405180830381865afa158015614e24573d6000803e3d6000fd5b505050506040513d601f19601f82011682018060405250810190614e489190615c2c565b1015614e52575050565b8160176000828254614e649190615b9e565b925050819055508060186000828254614e7d9190615c19565b9091555050600154604051630852cd8d60e31b8152600481018390526001600160a01b03909116906342966c6890602401600060405180830381600087803b158015614ec857600080fd5b505af1158015614edc573d6000803e3d6000fd5b505050507f0ec3929061cbbbeecb325623e7d5a86c3dae11cb8a22ca45dc0972955657da258282604051612b38929190615774565b33614f1a61298e565b6001600160a01b0316146118cc573360405163118cdaa760e01b8152600401612c0091906156cf565b6000614f4d614f9f565b80546001600160a01b038481166001600160a01b031983168117845560405193945091169182907f8be0079c531659141344cd1fd0a4f28419497f9722a3daafe3b4186f6b6457e090600090a3505050565b7f9016d09d72d40fdae2fd8ceac6b6234c7706214fd39c1cd1e609a0528c19930090565b6000818152601e6020908152604080832054601d835281842080548351818602810186019094528084526001600160a01b039092169493909190849084015b8282101561504a576000848152602090819020604080518082019091526002850290910180546001600160a01b03168252600190810154828401529083529092019101615002565b50505050905060005b81518110156151725760006150a483838151811061507357615073615c45565b60200260200101516000015184848151811061509157615091615c45565b6020026020010151602001516004614943565b9050801561510857836001600160a01b03168383815181106150c8576150c8615c45565b6020026020010151600001516001600160a01b0316600080516020615d0c833981519152836004896040516150ff93929190615ca3565b60405180910390a35b82828151811061511a5761511a615c45565b6020026020010151600001516001600160a01b0316857fae629b396150638d6eb6de457cbffe5d618a10c8cc199a94976bed2b16ecd9938360405161516191815260200190565b60405180910390a350600101615053565b506000838152601d6020526040812061471e916155da565b6000807ff0c57e16840df040f15088dc2f81fe391c3923bec73e23a9662efc9c229c6a00614131565b6151bb6153fe565b6110dd81615423565b6151cc6153fe565b6118cc61542b565b6118cc6153fe565b7f9b779b17422d0df92223018b32b4d1fa46e071723d6817e2486d003becc55f0090565b6001600160a01b0382161580615214575080155b1561521d575050565b6001600160a01b038083166000908152600f6020526040812054909116905b6001600160a01b038216158015906152545750601481105b15615355576001600160a01b0382166000908152600f602052604081206002015490808513156152b0576152888583615b9e565b9050818110156152ab57604051631e1fcdc960e11b815260040160405180910390fd5b6152dd565b60006152bb86615cd3565b9050828111156152ce57600091506152db565b6152d88184615c19565b91505b505b6001600160a01b0384166000818152600f60205260409081902060020183905551600080516020615d4c8339815191529061531b9085908590615774565b60405180910390a26001600160a01b039384166000908152600f6020526040902054909316928261534b81615c8a565b935050505061523c565b601481106153a257836001600160a01b03167ff281f8c4c46137a94f5d0d95d1fe19e9d2cbbea1ee37538e9f4e5375e8f774f0600083604051615399929190615774565b60405180910390a25b50505050565b6153b182615433565b6040516001600160a01b038316907fbc7cd75a20ee27fd9adebab32041f755214dbc6bffa90cc0225b39da2e5c2d3b90600090a28051156153f65761471e828261548f565b611e50615505565b615406615524565b6118cc57604051631afcd79f60e31b815260040160405180910390fd5b613cac6153fe565b613d156153fe565b806001600160a01b03163b6000036154605780604051634c9c8ce360e01b8152600401612c0091906156cf565b600080516020615d6c83398151915280546001600160a01b0319166001600160a01b0392909216919091179055565b6060600080846001600160a01b0316846040516154ac9190615cef565b600060405180830381855af49150503d80600081146154e7576040519150601f19603f3d011682016040523d82523d6000602084013e6154ec565b606091505b50915091506154fc85838361553e565b95945050505050565b34156118cc5760405163b398979f60e01b815260040160405180910390fd5b600061552e61518a565b54600160401b900460ff16919050565b6060826155535761554e82615591565b610dd7565b815115801561556a57506001600160a01b0384163b155b1561558a5783604051639996b31560e01b8152600401612c0091906156cf565b5080610dd7565b8051156155a057805160208201fd5b60405163d6bda27560e01b815260040160405180910390fd5b50805460008255600302906000526020600020908101906110dd91906155fb565b50805460008255600202906000526020600020908101906110dd9190615621565b5b8082111561561d5760008082556001820181905560028201556003016155fc565b5090565b5b8082111561561d5780546001600160a01b031916815560006001820155600201615622565b80356001600160a01b0381168114613c9f57600080fd5b60006020828403121561567057600080fd5b610dd782615647565b60008060006060848603121561568e57600080fd5b505081359360208301359350604090920135919050565b600080604083850312156156b857600080fd5b6156c183615647565b946020939093013593505050565b6001600160a01b0391909116815260200190565b6000602082840312156156f557600080fd5b5035919050565b602080825282518282018190526000919060409081850190868401855b8281101561575157815180516001600160a01b0316855286810151878601528501518585015260609093019290850190600101615719565b5091979650505050505050565b9283526020830191909152604082015260600190565b918252602082015260400190565b6000806040838503121561579557600080fd5b50508035926020909101359150565b634e487b7160e01b600052604160045260246000fd5b604051606081016001600160401b03811182821017156157dc576157dc6157a4565b60405290565b604051601f8201601f191681016001600160401b038111828210171561580a5761580a6157a4565b604052919050565b6000806040838503121561582557600080fd5b61582e83615647565b91506020838101356001600160401b038082111561584b57600080fd5b818601915086601f83011261585f57600080fd5b813581811115615871576158716157a4565b615883601f8201601f191685016157e2565b9150808252878482850101111561589957600080fd5b80848401858401376000848284010152508093505050509250929050565b60008083601f8401126158c957600080fd5b5081356001600160401b038111156158e057600080fd5b6020830191508360208260051b85010111156158fb57600080fd5b9250929050565b6000806000806040858703121561591857600080fd5b84356001600160401b038082111561592f57600080fd5b61593b888389016158b7565b9096509450602087013591508082111561595457600080fd5b50615961878288016158b7565b95989497509550505050565b6001600160a01b03929092168252602082015260400190565b60005b838110156159a1578181015183820152602001615989565b50506000910152565b60208152600082518060208401526159c9816040850160208701615986565b601f01601f19169190910160400192915050565b600060208083850312156159f057600080fd5b82356001600160401b0380821115615a0757600080fd5b818501915085601f830112615a1b57600080fd5b813581811115615a2d57615a2d6157a4565b615a3b848260051b016157e2565b81815284810192506060918202840185019188831115615a5a57600080fd5b938501935b82851015615aa45780858a031215615a775760008081fd5b615a7f6157ba565b8535815286860135878201526040808701359082015284529384019392850192615a5f565b50979650505050505050565b60008060008060008060c08789031215615ac957600080fd5b615ad287615647565b9550615ae060208801615647565b9450615aee60408801615647565b9350615afc60608801615647565b9250615b0a60808801615647565b9150615b1860a08801615647565b90509295509295509295565b6020808252825182820181905260009190848201906040850190845b81811015615b655783516001600160a01b031683529284019291840191600101615b40565b50909695505050505050565b634e487b7160e01b600052601160045260246000fd5b808202811582820484141761413157614131615b71565b8082018082111561413157614131615b71565b600082615bce57634e487b7160e01b600052601260045260246000fd5b500490565b6001600160a01b039384168152919092166020820152604081019190915260600190565b600060208284031215615c0957600080fd5b81518015158114610dd757600080fd5b8181038181111561413157614131615b71565b600060208284031215615c3e57600080fd5b5051919050565b634e487b7160e01b600052603260045260246000fd5b91825260ff16602082015260400190565b938452602084019290925260ff166040830152606082015260800190565b600060018201615c9c57615c9c615b71565b5060010190565b92835260ff919091166020830152604082015260600190565b600081615ccb57615ccb615b71565b506000190190565b6000600160ff1b8201615ce857615ce8615b71565b5060000390565b60008251615d01818460208701615986565b919091019291505056fe9b3cc71482a1b2eebe764a739f46f1fe99291fd0183be81951532b29d0c9c8da6fcebd0a2ce98b28cb391d6008bbc769378c9a4919628e11639cb575cd320fcca0eea20e678cb42233c1c456c84cedce7ea53fa360bb71bf3b761b7609567770360894a13ba1a3210667c828492db98dca3e2076cc3735a920a3ca505d382bbcb5987aab1afd379f6695f1068869ee8ca6a0d02304c57935a9cc3d3ea2e51e4df381583145e90b82cc5e529bf4fc4d0e44397174cdf145c4251ac33ef195a424f3a670cd3af7d64b488926880889d08a8585a138ff455227af6737339a1ec262a2646970667358221220c4f7538e3095d5f30e9580edcac2f8a66614b352aa8d181e08e2b3c1345a4a0964736f6c63430008160033",
  "linkReferences": {},
  "deployedLinkReferences": {}
}