{
  "_format": "hh-sol-artifact-1",
  "contractName": "JinbaoProtocol",
  "sourceName": "contracts/JinbaoProtocol.sol",
  "abi": [
    {
      "inputs": [
        {
          "internalType": "address",
          "name": "_mcToken",
          "type": "address"
        },
        {
          "internalType": "address",
          "name": "_jbcToken",
          "type": "address"
        },
        {
          "internalType": "address",
          "name": "_marketing",
          "type": "address"
        },
        {
          "internalType": "address",
          "name": "_treasury",
          "type": "address"
        },
        {
          "internalType": "address",
          "name": "_lpInjection",
          "type": "address"
        },
        {
          "internalType": "address",
          "name": "_buyback",
          "type": "address"
        }
      ],
      "stateMutability": "nonpayable",
      "type": "constructor"
    },
    {
      "inputs": [
        {
          "internalType": "address",
          "name": "owner",
          "type": "address"
        }
      ],
      "name": "OwnableInvalidOwner",
      "type": "error"
    },
    {
      "inputs": [
        {
          "internalType": "address",
          "name": "account",
          "type": "address"
        }
      ],
      "name": "OwnableUnauthorizedAccount",
      "type": "error"
    },
    {
      "inputs": [],
      "name": "ReentrancyGuardReentrantCall",
      "type": "error"
    },
    {
      "anonymous": false,
      "inputs": [
        {
          "indexed": true,
          "internalType": "address",
          "name": "user",
          "type": "address"
        },
        {
          "indexed": true,
          "internalType": "address",
          "name": "referrer",
          "type": "address"
        }
      ],
      "name": "BoundReferrer",
      "type": "event"
    },
    {
      "anonymous": false,
      "inputs": [
        {
          "indexed": true,
          "internalType": "address",
          "name": "user",
          "type": "address"
        },
        {
          "indexed": false,
          "internalType": "uint256",
          "name": "amount",
          "type": "uint256"
        },
        {
          "indexed": false,
          "internalType": "uint256",
          "name": "cycleDays",
          "type": "uint256"
        }
      ],
      "name": "LiquidityStaked",
      "type": "event"
    },
    {
      "anonymous": false,
      "inputs": [
        {
          "indexed": true,
          "internalType": "address",
          "name": "previousOwner",
          "type": "address"
        },
        {
          "indexed": true,
          "internalType": "address",
          "name": "newOwner",
          "type": "address"
        }
      ],
      "name": "OwnershipTransferred",
      "type": "event"
    },
    {
      "anonymous": false,
      "inputs": [
        {
          "indexed": true,
          "internalType": "address",
          "name": "user",
          "type": "address"
        },
        {
          "indexed": false,
          "internalType": "uint256",
          "name": "principal",
          "type": "uint256"
        },
        {
          "indexed": false,
          "internalType": "uint256",
          "name": "fee",
          "type": "uint256"
        }
      ],
      "name": "Redeemed",
      "type": "event"
    },
    {
      "anonymous": false,
      "inputs": [
        {
          "indexed": true,
          "internalType": "address",
          "name": "user",
          "type": "address"
        },
        {
          "indexed": false,
          "internalType": "uint256",
          "name": "mcAmount",
          "type": "uint256"
        },
        {
          "indexed": false,
          "internalType": "uint256",
          "name": "jbcAmount",
          "type": "uint256"
        }
      ],
      "name": "RewardClaimed",
      "type": "event"
    },
    {
      "anonymous": false,
      "inputs": [
        {
          "indexed": true,
          "internalType": "address",
          "name": "user",
          "type": "address"
        },
        {
          "indexed": false,
          "internalType": "uint256",
          "name": "jbcAmount",
          "type": "uint256"
        },
        {
          "indexed": false,
          "internalType": "uint256",
          "name": "mcAmount",
          "type": "uint256"
        },
        {
          "indexed": false,
          "internalType": "uint256",
          "name": "tax",
          "type": "uint256"
        }
      ],
      "name": "SwappedJBCToMC",
      "type": "event"
    },
    {
      "anonymous": false,
      "inputs": [
        {
          "indexed": true,
          "internalType": "address",
          "name": "user",
          "type": "address"
        },
        {
          "indexed": false,
          "internalType": "uint256",
          "name": "mcAmount",
          "type": "uint256"
        },
        {
          "indexed": false,
          "internalType": "uint256",
          "name": "jbcAmount",
          "type": "uint256"
        },
        {
          "indexed": false,
          "internalType": "uint256",
          "name": "tax",
          "type": "uint256"
        }
      ],
      "name": "SwappedMCToJBC",
      "type": "event"
    },
    {
      "anonymous": false,
      "inputs": [
        {
          "indexed": true,
          "internalType": "address",
          "name": "user",
          "type": "address"
        },
        {
          "indexed": false,
          "internalType": "uint256",
          "name": "amount",
          "type": "uint256"
        }
      ],
      "name": "TicketPurchased",
      "type": "event"
    },
    {
      "inputs": [],
      "name": "REDEMPTION_FEE_PERCENT",
      "outputs": [
        {
          "internalType": "uint256",
          "name": "",
          "type": "uint256"
        }
      ],
      "stateMutability": "view",
      "type": "function"
    },
    {
      "inputs": [],
      "name": "SECONDS_IN_DAY",
      "outputs": [
        {
          "internalType": "uint256",
          "name": "",
          "type": "uint256"
        }
      ],
      "stateMutability": "view",
      "type": "function"
    },
    {
      "inputs": [
        {
          "internalType": "address",
          "name": "_referrer",
          "type": "address"
        }
      ],
      "name": "bindReferrer",
      "outputs": [],
      "stateMutability": "nonpayable",
      "type": "function"
    },
    {
      "inputs": [
        {
          "internalType": "uint256",
          "name": "amount",
          "type": "uint256"
        }
      ],
      "name": "buyTicket",
      "outputs": [],
      "stateMutability": "nonpayable",
      "type": "function"
    },
    {
      "inputs": [],
      "name": "buybackWallet",
      "outputs": [
        {
          "internalType": "address",
          "name": "",
          "type": "address"
        }
      ],
      "stateMutability": "view",
      "type": "function"
    },
    {
      "inputs": [],
      "name": "claimRewards",
      "outputs": [],
      "stateMutability": "nonpayable",
      "type": "function"
    },
    {
      "inputs": [
        {
          "internalType": "address",
          "name": "",
          "type": "address"
        },
        {
          "internalType": "uint256",
          "name": "",
          "type": "uint256"
        }
      ],
      "name": "directReferrals",
      "outputs": [
        {
          "internalType": "address",
          "name": "",
          "type": "address"
        }
      ],
      "stateMutability": "view",
      "type": "function"
    },
    {
      "inputs": [
        {
          "internalType": "address",
          "name": "_user",
          "type": "address"
        }
      ],
      "name": "getDirectReferrals",
      "outputs": [
        {
          "internalType": "address[]",
          "name": "",
          "type": "address[]"
        }
      ],
      "stateMutability": "view",
      "type": "function"
    },
    {
      "inputs": [],
      "name": "jbcToken",
      "outputs": [
        {
          "internalType": "contract IJBC",
          "name": "",
          "type": "address"
        }
      ],
      "stateMutability": "view",
      "type": "function"
    },
    {
      "inputs": [],
      "name": "lpInjectionWallet",
      "outputs": [
        {
          "internalType": "address",
          "name": "",
          "type": "address"
        }
      ],
      "stateMutability": "view",
      "type": "function"
    },
    {
      "inputs": [],
      "name": "marketingWallet",
      "outputs": [
        {
          "internalType": "address",
          "name": "",
          "type": "address"
        }
      ],
      "stateMutability": "view",
      "type": "function"
    },
    {
      "inputs": [],
      "name": "mcToken",
      "outputs": [
        {
          "internalType": "contract IERC20",
          "name": "",
          "type": "address"
        }
      ],
      "stateMutability": "view",
      "type": "function"
    },
    {
      "inputs": [],
      "name": "owner",
      "outputs": [
        {
          "internalType": "address",
          "name": "",
          "type": "address"
        }
      ],
      "stateMutability": "view",
      "type": "function"
    },
    {
      "inputs": [],
      "name": "redeem",
      "outputs": [],
      "stateMutability": "nonpayable",
      "type": "function"
    },
    {
      "inputs": [],
      "name": "renounceOwnership",
      "outputs": [],
      "stateMutability": "nonpayable",
      "type": "function"
    },
    {
      "inputs": [
        {
          "internalType": "uint256",
          "name": "cycleDays",
          "type": "uint256"
        }
      ],
      "name": "stakeLiquidity",
      "outputs": [],
      "stateMutability": "nonpayable",
      "type": "function"
    },
    {
      "inputs": [
        {
          "internalType": "uint256",
          "name": "jbcAmount",
          "type": "uint256"
        }
      ],
      "name": "swapJBCToMC",
      "outputs": [],
      "stateMutability": "nonpayable",
      "type": "function"
    },
    {
      "inputs": [
        {
          "internalType": "uint256",
          "name": "mcAmount",
          "type": "uint256"
        }
      ],
      "name": "swapMCToJBC",
      "outputs": [],
      "stateMutability": "nonpayable",
      "type": "function"
    },
    {
      "inputs": [
        {
          "internalType": "address",
          "name": "newOwner",
          "type": "address"
        }
      ],
      "name": "transferOwnership",
      "outputs": [],
      "stateMutability": "nonpayable",
      "type": "function"
    },
    {
      "inputs": [],
      "name": "treasuryWallet",
      "outputs": [
        {
          "internalType": "address",
          "name": "",
          "type": "address"
        }
      ],
      "stateMutability": "view",
      "type": "function"
    },
    {
      "inputs": [
        {
          "internalType": "address",
          "name": "",
          "type": "address"
        }
      ],
      "name": "userInfo",
      "outputs": [
        {
          "internalType": "address",
          "name": "referrer",
          "type": "address"
        },
        {
          "internalType": "uint256",
          "name": "activeDirects",
          "type": "uint256"
        },
        {
          "internalType": "uint256",
          "name": "teamCount",
          "type": "uint256"
        },
        {
          "internalType": "uint256",
          "name": "totalRevenue",
          "type": "uint256"
        },
        {
          "internalType": "uint256",
          "name": "currentCap",
          "type": "uint256"
        },
        {
          "internalType": "bool",
          "name": "isActive",
          "type": "bool"
        }
      ],
      "stateMutability": "view",
      "type": "function"
    },
    {
      "inputs": [
        {
          "internalType": "address",
          "name": "",
          "type": "address"
        }
      ],
      "name": "userTicket",
      "outputs": [
        {
          "internalType": "uint256",
          "name": "amount",
          "type": "uint256"
        },
        {
          "internalType": "uint256",
          "name": "requiredLiquidity",
          "type": "uint256"
        },
        {
          "internalType": "uint256",
          "name": "purchaseTime",
          "type": "uint256"
        },
        {
          "internalType": "bool",
          "name": "liquidityProvided",
          "type": "bool"
        },
        {
          "internalType": "uint256",
          "name": "liquidityAmount",
          "type": "uint256"
        },
        {
          "internalType": "uint256",
          "name": "startTime",
          "type": "uint256"
        },
        {
          "internalType": "uint256",
          "name": "cycleDays",
          "type": "uint256"
        },
        {
          "internalType": "bool",
          "name": "redeemed",
          "type": "bool"
        }
      ],
      "stateMutability": "view",
      "type": "function"
    }
  ],
  "bytecode": "0x60806040523480156200001157600080fd5b50604051620020fd380380620020fd83398101604081905262000034916200014b565b33806200005b57604051631e4fbdf760e01b81526000600482015260240160405180910390fd5b6200006681620000de565b5060018055600280546001600160a01b03199081166001600160a01b0398891617909155600380548216968816969096179095556004805486169487169490941790935560058054851692861692909217909155600680548416918516919091179055600780549092169216919091179055620001cc565b600080546001600160a01b038381166001600160a01b0319831681178455604051919092169283917f8be0079c531659141344cd1fd0a4f28419497f9722a3daafe3b4186f6b6457e09190a35050565b80516001600160a01b03811681146200014657600080fd5b919050565b60008060008060008060c087890312156200016557600080fd5b62000170876200012e565b955062000180602088016200012e565b945062000190604088016200012e565b9350620001a0606088016200012e565b9250620001b0608088016200012e565b9150620001c060a088016200012e565b90509295509295509295565b611f2180620001dc6000396000f3fe608060405234801561001057600080fd5b50600436106101425760003560e01c806367dd74ca116100b85780638da5cb5b1161007c5780638da5cb5b146103725780639525399214610383578063be040fb014610396578063d2c8e0e51461039e578063deab8aea146103be578063f2fde38b146103d157600080fd5b806367dd74ca1461029c578063715018a6146102af57806375f0a874146102b75780638710bcaa146102ca57806388fd4d331461035f57600080fd5b806320b3ca981161010a57806320b3ca981461023b5780633507637314610251578063372500ab146102645780634626402b1461026c57806352778b051461027f57806361a52a361461029257600080fd5b806304f618cb1461014757806305ad39351461015c5780630a5c45671461018c5780631788513c1461019f5780631959a002146101b2575b600080fd5b61015a610155366004611d2d565b6103e4565b005b61016f61016a366004611d4f565b610551565b6040516001600160a01b0390911681526020015b60405180910390f35b61015a61019a366004611d79565b610589565b60035461016f906001600160a01b031681565b6102026101c0366004611d2d565b6008602052600090815260409020805460018201546002830154600384015460048501546005909501546001600160a01b039094169492939192909160ff1686565b604080516001600160a01b03909716875260208701959095529385019290925260608401526080830152151560a082015260c001610183565b610243600181565b604051908152602001610183565b61015a61025f366004611d79565b610858565b61015a610acc565b60055461016f906001600160a01b031681565b61015a61028d366004611d79565b610fc7565b6102436201518081565b61015a6102aa366004611d79565b611282565b61015a61194c565b60045461016f906001600160a01b031681565b6103226102d8366004611d2d565b6009602052600090815260409020805460018201546002830154600384015460048501546005860154600687015460079097015495969495939460ff938416949293919290911688565b604080519889526020890197909752958701949094529115156060860152608085015260a084015260c0830152151560e082015261010001610183565b60065461016f906001600160a01b031681565b6000546001600160a01b031661016f565b60025461016f906001600160a01b031681565b61015a61195e565b6103b16103ac366004611d2d565b611bb9565b6040516101839190611d92565b60075461016f906001600160a01b031681565b61015a6103df366004611d2d565b611c2f565b336000908152600860205260409020546001600160a01b03161561043f5760405162461bcd60e51b815260206004820152600d60248201526c105b1c9958591e48189bdd5b99609a1b60448201526064015b60405180910390fd5b336001600160a01b0382160361048a5760405162461bcd60e51b815260206004820152601060248201526f21b0b73737ba103134b7321039b2b63360811b6044820152606401610436565b6001600160a01b0381166104d35760405162461bcd60e51b815260206004820152601060248201526f24b73b30b634b2103932b332b93932b960811b6044820152606401610436565b33600081815260086020908152604080832080546001600160a01b0387166001600160a01b03199182168117909255818552600a8452828520805460018101825590865293852090930180549093168517909255519092917fa6dbb5aa28f35437de94d685d66edce5fb4812196b4984b91dfd5a7b38c0fb3091a350565b600a602052816000526040600020818154811061056d57600080fd5b6000918252602090912001546001600160a01b03169150829050565b610591611c6a565b600081116105d25760405162461bcd60e51b815260206004820152600e60248201526d125b9d985b1a5908185b5bdd5b9d60921b6044820152606401610436565b6002546040516323b872dd60e01b81526001600160a01b03909116906323b872dd9061060690339030908690600401611ddf565b6020604051808303816000875af1158015610625573d6000803e3d6000fd5b505050506040513d601f19601f820116820180604052508101906106499190611e03565b50806000606461065a836032611e3b565b6106649190611e58565b905060006106728284611e7a565b6003546040516370a0823160e01b815230600482015291925084916001600160a01b03909116906370a0823190602401602060405180830381865afa1580156106bf573d6000803e3d6000fd5b505050506040513d601f19601f820116820180604052508101906106e39190611e8d565b10156107315760405162461bcd60e51b815260206004820152601a60248201527f496e73756666696369656e74204a4243206c69717569646974790000000000006044820152606401610436565b600354604051630852cd8d60e31b8152600481018490526001600160a01b03909116906342966c6890602401600060405180830381600087803b15801561077757600080fd5b505af115801561078b573d6000803e3d6000fd5b505060035460405163a9059cbb60e01b81526001600160a01b03909116925063a9059cbb91506107c19033908590600401611ea6565b6020604051808303816000875af11580156107e0573d6000803e3d6000fd5b505050506040513d601f19601f820116820180604052508101906108049190611e03565b50604080518581526020810183905290810183905233907f36864aeefce16bc4aaceeb6b0cdfb2ad1455a8cb4ccb0db148a2bc6e7166f97c906060015b60405180910390a250505061085560018055565b50565b610860611c6a565b3360009081526009602052604090208054158015906108845750600381015460ff16155b6108c25760405162461bcd60e51b815260206004820152600f60248201526e139bc81d985b1a59081d1a58dad95d608a1b6044820152606401610436565b60028101546108d4906203f480611ebf565b4211156109145760405162461bcd60e51b815260206004820152600e60248201526d151a58dad95d08195e1c1a5c995960921b6044820152606401610436565b8160071480610923575081600f145b8061092e575081601e145b61096a5760405162461bcd60e51b815260206004820152600d60248201526c496e76616c6964206379636c6560981b6044820152606401610436565b60018101546002546040516323b872dd60e01b81526001600160a01b03909116906323b872dd906109a390339030908690600401611ddf565b6020604051808303816000875af11580156109c2573d6000803e3d6000fd5b505050506040513d601f19601f820116820180604052508101906109e69190611e03565b5060038201805460ff191660011790556004820181905542600583015560068201839055336000908152600860205260409020546001600160a01b03168015801590610a4557503360009081526008602052604090206005015460ff16155b15610a94576001600160a01b0381166000908152600860205260408120600101805491610a7183611ed2565b9091555050336000908152600860205260409020600501805460ff191660011790555b604080518381526020810186905233917f1e54d7530dad81af38adb8ca9db02add3130668375f37be85396403616fc3d499101610841565b610ad4611c6a565b336000908152600960205260409020600381015460ff168015610afc5750600781015460ff16155b610b355760405162461bcd60e51b815260206004820152600a6024820152694e6f742061637469766560b01b6044820152606401610436565b60008160060154600703610b4b57506014610b6f565b8160060154600f03610b5f57506019610b6f565b8160060154601e03610b6f5750601e5b600062015180836005015442610b859190611e7a565b610b8f9190611e58565b905060008111610bd25760405162461bcd60e51b815260206004820152600e60248201526d139bc81c995dd85c991cc81e595d60921b6044820152606401610436565b8260060154811115610be5575060068201545b60006103e882848660000154610bfb9190611e3b565b610c059190611e3b565b610c0f9190611e58565b336000908152600860205260409020600481015460039091015491925090610c38908390611ebf565b1115610c65573360009081526008602052604090206003810154600490910154610c629190611e7a565b90505b60008111610cab5760405162461bcd60e51b81526020600482015260136024820152724e6f207265776172647320746f20636c61696d60681b6044820152606401610436565b3360009081526008602052604081206003018054839290610ccd908490611ebf565b9091555060009050610ce0600283611e58565b90506000610cef600284611e58565b6002546040516370a0823160e01b815230600482015291925083916001600160a01b03909116906370a0823190602401602060405180830381865afa158015610d3c573d6000803e3d6000fd5b505050506040513d601f19601f82011682018060405250810190610d609190611e8d565b1015610dae5760405162461bcd60e51b815260206004820152601760248201527f496e73756666696369656e74204d4320696e20706f6f6c0000000000000000006044820152606401610436565b60025460405163a9059cbb60e01b81526001600160a01b039091169063a9059cbb90610de09033908690600401611ea6565b6020604051808303816000875af1158015610dff573d6000803e3d6000fd5b505050506040513d601f19601f82011682018060405250810190610e239190611e03565b50670de0b6b3a7640000600081610e3a8482611e3b565b610e449190611e58565b6003546040516370a0823160e01b815230600482015291925082916001600160a01b03909116906370a0823190602401602060405180830381865afa158015610e91573d6000803e3d6000fd5b505050506040513d601f19601f82011682018060405250810190610eb59190611e8d565b1015610f035760405162461bcd60e51b815260206004820152601860248201527f496e73756666696369656e74204a424320696e20706f6f6c00000000000000006044820152606401610436565b60035460405163a9059cbb60e01b81526001600160a01b039091169063a9059cbb90610f359033908590600401611ea6565b6020604051808303816000875af1158015610f54573d6000803e3d6000fd5b505050506040513d601f19601f82011682018060405250810190610f789190611e03565b50604080518581526020810183905233917ff01da32686223933d8a18a391060918c7f11a3648639edd87ae013e2e2731743910160405180910390a25050505050505050610fc560018055565b565b610fcf611c6a565b600081116110105760405162461bcd60e51b815260206004820152600e60248201526d125b9d985b1a5908185b5bdd5b9d60921b6044820152606401610436565b6003546040516323b872dd60e01b81526001600160a01b03909116906323b872dd9061104490339030908690600401611ddf565b6020604051808303816000875af1158015611063573d6000803e3d6000fd5b505050506040513d601f19601f820116820180604052508101906110879190611e03565b5060006064611097836019611e3b565b6110a19190611e58565b905060006110af8284611e7a565b600354604051630852cd8d60e31b8152600481018590529192506001600160a01b0316906342966c6890602401600060405180830381600087803b1580156110f657600080fd5b505af115801561110a573d6000803e3d6000fd5b50506002546040516370a0823160e01b81523060048201528493508392506001600160a01b03909116906370a0823190602401602060405180830381865afa15801561115a573d6000803e3d6000fd5b505050506040513d601f19601f8201168201806040525081019061117e9190611e8d565b10156111cc5760405162461bcd60e51b815260206004820152601960248201527f496e73756666696369656e74204d43206c6971756964697479000000000000006044820152606401610436565b60025460405163a9059cbb60e01b81526001600160a01b039091169063a9059cbb906111fe9033908590600401611ea6565b6020604051808303816000875af115801561121d573d6000803e3d6000fd5b505050506040513d601f19601f820116820180604052508101906112419190611e03565b50604080518581526020810183905290810184905233907f223c8ad0806f634524940a8595f819c5cfc7b1f4f4f45791269301df0a7e61d590606001610841565b61128a611c6a565b8068056bc75e2d6310000014806112a9575080681043561a8829300000145b806112bc575080681b1ae4d6e2ef500000145b806112cf575080683635c9adc5dea00000145b6113115760405162461bcd60e51b815260206004820152601360248201527224b73b30b634b2103a34b1b5b2ba103a34b2b960691b6044820152606401610436565b3360009081526009602052604090206003015460ff16158061134557503360009081526009602052604090206007015460ff165b6113885760405162461bcd60e51b8152602060048201526014602482015273416374697665207469636b65742065786973747360601b6044820152606401610436565b6002546040516323b872dd60e01b81526001600160a01b03909116906323b872dd906113bc90339030908690600401611ddf565b6020604051808303816000875af11580156113db573d6000803e3d6000fd5b505050506040513d601f19601f820116820180604052508101906113ff9190611e03565b50336000908152600860205260409020546001600160a01b031680156114ae576002546001600160a01b031663a9059cbb82606461143e866019611e3b565b6114489190611e58565b6040518363ffffffff1660e01b8152600401611465929190611ea6565b6020604051808303816000875af1158015611484573d6000803e3d6000fd5b505050506040513d601f19601f820116820180604052508101906114a89190611e03565b50611540565b6002546004546001600160a01b039182169163a9059cbb911660646114d4866019611e3b565b6114de9190611e58565b6040518363ffffffff1660e01b81526004016114fb929190611ea6565b6020604051808303816000875af115801561151a573d6000803e3d6000fd5b505050506040513d601f19601f8201168201806040525081019061153e9190611e03565b505b6002546004546001600160a01b039182169163a9059cbb9116606461156686600f611e3b565b6115709190611e58565b6040518363ffffffff1660e01b815260040161158d929190611ea6565b6020604051808303816000875af11580156115ac573d6000803e3d6000fd5b505050506040513d601f19601f820116820180604052508101906115d09190611e03565b506002546004546001600160a01b039182169163a9059cbb911660646115f7866005611e3b565b6116019190611e58565b6040518363ffffffff1660e01b815260040161161e929190611ea6565b6020604051808303816000875af115801561163d573d6000803e3d6000fd5b505050506040513d601f19601f820116820180604052508101906116619190611e03565b506002546007546001600160a01b039182169163a9059cbb91166064611688866005611e3b565b6116929190611e58565b6040518363ffffffff1660e01b81526004016116af929190611ea6565b6020604051808303816000875af11580156116ce573d6000803e3d6000fd5b505050506040513d601f19601f820116820180604052508101906116f29190611e03565b506002546006546001600160a01b039182169163a9059cbb91166064611719866019611e3b565b6117239190611e58565b6040518363ffffffff1660e01b8152600401611740929190611ea6565b6020604051808303816000875af115801561175f573d6000803e3d6000fd5b505050506040513d601f19601f820116820180604052508101906117839190611e03565b506002546005546001600160a01b039182169163a9059cbb911660646117aa866019611e3b565b6117b49190611e58565b6040518363ffffffff1660e01b81526004016117d1929190611ea6565b6020604051808303816000875af11580156117f0573d6000803e3d6000fd5b505050506040513d601f19601f820116820180604052508101906118149190611e03565b5060405180610100016040528083815260200160648460966118369190611e3b565b6118409190611e58565b815242602080830191909152600060408084018290526060808501839052608080860184905260a080870185905260c09687018590523385526009865293839020875181559487015160018601559186015160028501558501516003808501805492151560ff1993841617905591860151600485015591850151600584015592840151600683015560e0909301516007909101805491151591909316179091556118eb908390611e3b565b33600081815260086020526040808220600481019490945560039093015590517f0668f5b446eb814fe35b3206f43f14bd8567ba04ddaf7a3ee56516929ab22ccb9061193a9085815260200190565b60405180910390a25061085560018055565b611954611c94565b610fc56000611cc1565b611966611c6a565b336000908152600960205260409020600381015460ff16801561198e5750600781015460ff16155b6119ca5760405162461bcd60e51b815260206004820152600d60248201526c43616e6e6f742072656465656d60981b6044820152606401610436565b60068101546119dc9062015180611e3b565b81600501546119eb9190611ebf565b421015611a2f5760405162461bcd60e51b815260206004820152601260248201527110de58db19481b9bdd08199a5b9a5cda195960721b6044820152606401610436565b6000606460018360000154611a449190611e3b565b611a4e9190611e58565b6002546040516323b872dd60e01b81529192506001600160a01b0316906323b872dd90611a8390339030908690600401611ddf565b6020604051808303816000875af1158015611aa2573d6000803e3d6000fd5b505050506040513d601f19601f82011682018060405250810190611ac69190611e03565b5060025460048084015460405163a9059cbb60e01b81526001600160a01b039093169263a9059cbb92611afd923392909101611ea6565b6020604051808303816000875af1158015611b1c573d6000803e3d6000fd5b505050506040513d601f19601f82011682018060405250810190611b409190611e03565b50600782018054600160ff19918216179091553360008181526008602090815260409182902060050180549094169093556004850154815190815292830184905290917ff3a670cd3af7d64b488926880889d08a8585a138ff455227af6737339a1ec262910160405180910390a25050610fc560018055565b6001600160a01b0381166000908152600a6020908152604091829020805483518184028101840190945280845260609392830182828015611c2357602002820191906000526020600020905b81546001600160a01b03168152600190910190602001808311611c05575b50505050509050919050565b611c37611c94565b6001600160a01b038116611c6157604051631e4fbdf760e01b815260006004820152602401610436565b61085581611cc1565b600260015403611c8d57604051633ee5aeb560e01b815260040160405180910390fd5b6002600155565b6000546001600160a01b03163314610fc55760405163118cdaa760e01b8152336004820152602401610436565b600080546001600160a01b038381166001600160a01b0319831681178455604051919092169283917f8be0079c531659141344cd1fd0a4f28419497f9722a3daafe3b4186f6b6457e09190a35050565b80356001600160a01b0381168114611d2857600080fd5b919050565b600060208284031215611d3f57600080fd5b611d4882611d11565b9392505050565b60008060408385031215611d6257600080fd5b611d6b83611d11565b946020939093013593505050565b600060208284031215611d8b57600080fd5b5035919050565b6020808252825182820181905260009190848201906040850190845b81811015611dd35783516001600160a01b031683529284019291840191600101611dae565b50909695505050505050565b6001600160a01b039384168152919092166020820152604081019190915260600190565b600060208284031215611e1557600080fd5b81518015158114611d4857600080fd5b634e487b7160e01b600052601160045260246000fd5b8082028115828204841417611e5257611e52611e25565b92915050565b600082611e7557634e487b7160e01b600052601260045260246000fd5b500490565b81810381811115611e5257611e52611e25565b600060208284031215611e9f57600080fd5b5051919050565b6001600160a01b03929092168252602082015260400190565b80820180821115611e5257611e52611e25565b600060018201611ee457611ee4611e25565b506001019056fea2646970667358221220c4e4ddc1bbcd3b2ff38991f7c207ecb2881185f2a4fe801ed7725c78424dbd0364736f6c63430008140033",
  "linkReferences": {},
  "deployedLinkReferences": {}
}