{
  "_format": "hh-sol-artifact-1",
  "contractName": "JinbaoProtocol",
  "sourceName": "contracts/JinbaoProtocol.sol",
  "abi": [
    {
      "inputs": [
        {
          "internalType": "address",
          "name": "_mcToken",
          "type": "address"
        },
        {
          "internalType": "address",
          "name": "_jbcToken",
          "type": "address"
        },
        {
          "internalType": "address",
          "name": "_marketing",
          "type": "address"
        },
        {
          "internalType": "address",
          "name": "_treasury",
          "type": "address"
        },
        {
          "internalType": "address",
          "name": "_lpInjection",
          "type": "address"
        },
        {
          "internalType": "address",
          "name": "_buybackWallet",
          "type": "address"
        }
      ],
      "stateMutability": "nonpayable",
      "type": "constructor"
    },
    {
      "inputs": [
        {
          "internalType": "address",
          "name": "owner",
          "type": "address"
        }
      ],
      "name": "OwnableInvalidOwner",
      "type": "error"
    },
    {
      "inputs": [
        {
          "internalType": "address",
          "name": "account",
          "type": "address"
        }
      ],
      "name": "OwnableUnauthorizedAccount",
      "type": "error"
    },
    {
      "inputs": [],
      "name": "ReentrancyGuardReentrantCall",
      "type": "error"
    },
    {
      "anonymous": false,
      "inputs": [
        {
          "indexed": true,
          "internalType": "address",
          "name": "user",
          "type": "address"
        },
        {
          "indexed": true,
          "internalType": "address",
          "name": "referrer",
          "type": "address"
        }
      ],
      "name": "BoundReferrer",
      "type": "event"
    },
    {
      "anonymous": false,
      "inputs": [
        {
          "indexed": false,
          "internalType": "uint256",
          "name": "mcAmount",
          "type": "uint256"
        },
        {
          "indexed": false,
          "internalType": "uint256",
          "name": "jbcBurned",
          "type": "uint256"
        }
      ],
      "name": "BuybackAndBurn",
      "type": "event"
    },
    {
      "anonymous": false,
      "inputs": [
        {
          "indexed": true,
          "internalType": "address",
          "name": "user",
          "type": "address"
        },
        {
          "indexed": false,
          "internalType": "uint256",
          "name": "ticketId",
          "type": "uint256"
        }
      ],
      "name": "Exited",
      "type": "event"
    },
    {
      "anonymous": false,
      "inputs": [
        {
          "indexed": true,
          "internalType": "address",
          "name": "user",
          "type": "address"
        },
        {
          "indexed": false,
          "internalType": "uint256",
          "name": "amount",
          "type": "uint256"
        }
      ],
      "name": "FeeRefunded",
      "type": "event"
    },
    {
      "anonymous": false,
      "inputs": [
        {
          "indexed": true,
          "internalType": "uint256",
          "name": "ticketId",
          "type": "uint256"
        },
        {
          "indexed": true,
          "internalType": "address",
          "name": "upline",
          "type": "address"
        },
        {
          "indexed": false,
          "internalType": "uint256",
          "name": "amount",
          "type": "uint256"
        }
      ],
      "name": "LevelRewardRecorded",
      "type": "event"
    },
    {
      "anonymous": false,
      "inputs": [
        {
          "indexed": true,
          "internalType": "uint256",
          "name": "ticketId",
          "type": "uint256"
        },
        {
          "indexed": true,
          "internalType": "address",
          "name": "upline",
          "type": "address"
        },
        {
          "indexed": false,
          "internalType": "uint256",
          "name": "amount",
          "type": "uint256"
        }
      ],
      "name": "LevelRewardReleased",
      "type": "event"
    },
    {
      "anonymous": false,
      "inputs": [
        {
          "indexed": false,
          "internalType": "uint256",
          "name": "mcAmount",
          "type": "uint256"
        },
        {
          "indexed": false,
          "internalType": "uint256",
          "name": "jbcAmount",
          "type": "uint256"
        }
      ],
      "name": "LiquidityAdded",
      "type": "event"
    },
    {
      "anonymous": false,
      "inputs": [
        {
          "indexed": true,
          "internalType": "address",
          "name": "user",
          "type": "address"
        },
        {
          "indexed": false,
          "internalType": "uint256",
          "name": "amount",
          "type": "uint256"
        },
        {
          "indexed": false,
          "internalType": "uint256",
          "name": "cycleDays",
          "type": "uint256"
        }
      ],
      "name": "LiquidityStaked",
      "type": "event"
    },
    {
      "anonymous": false,
      "inputs": [
        {
          "indexed": true,
          "internalType": "address",
          "name": "previousOwner",
          "type": "address"
        },
        {
          "indexed": true,
          "internalType": "address",
          "name": "newOwner",
          "type": "address"
        }
      ],
      "name": "OwnershipTransferred",
      "type": "event"
    },
    {
      "anonymous": false,
      "inputs": [
        {
          "indexed": true,
          "internalType": "address",
          "name": "user",
          "type": "address"
        },
        {
          "indexed": false,
          "internalType": "uint256",
          "name": "principal",
          "type": "uint256"
        },
        {
          "indexed": false,
          "internalType": "uint256",
          "name": "fee",
          "type": "uint256"
        }
      ],
      "name": "Redeemed",
      "type": "event"
    },
    {
      "anonymous": false,
      "inputs": [
        {
          "indexed": true,
          "internalType": "address",
          "name": "user",
          "type": "address"
        },
        {
          "indexed": false,
          "internalType": "uint256",
          "name": "amount",
          "type": "uint256"
        },
        {
          "indexed": false,
          "internalType": "uint256",
          "name": "cappedAmount",
          "type": "uint256"
        }
      ],
      "name": "RewardCapped",
      "type": "event"
    },
    {
      "anonymous": false,
      "inputs": [
        {
          "indexed": true,
          "internalType": "address",
          "name": "user",
          "type": "address"
        },
        {
          "indexed": false,
          "internalType": "uint256",
          "name": "amount",
          "type": "uint256"
        },
        {
          "indexed": false,
          "internalType": "uint8",
          "name": "rewardType",
          "type": "uint8"
        }
      ],
      "name": "RewardPaid",
      "type": "event"
    },
    {
      "anonymous": false,
      "inputs": [
        {
          "indexed": true,
          "internalType": "address",
          "name": "user",
          "type": "address"
        },
        {
          "indexed": false,
          "internalType": "uint256",
          "name": "jbcAmount",
          "type": "uint256"
        },
        {
          "indexed": false,
          "internalType": "uint256",
          "name": "mcAmount",
          "type": "uint256"
        },
        {
          "indexed": false,
          "internalType": "uint256",
          "name": "tax",
          "type": "uint256"
        }
      ],
      "name": "SwappedJBCToMC",
      "type": "event"
    },
    {
      "anonymous": false,
      "inputs": [
        {
          "indexed": true,
          "internalType": "address",
          "name": "user",
          "type": "address"
        },
        {
          "indexed": false,
          "internalType": "uint256",
          "name": "mcAmount",
          "type": "uint256"
        },
        {
          "indexed": false,
          "internalType": "uint256",
          "name": "jbcAmount",
          "type": "uint256"
        },
        {
          "indexed": false,
          "internalType": "uint256",
          "name": "tax",
          "type": "uint256"
        }
      ],
      "name": "SwappedMCToJBC",
      "type": "event"
    },
    {
      "anonymous": false,
      "inputs": [
        {
          "indexed": true,
          "internalType": "address",
          "name": "user",
          "type": "address"
        },
        {
          "indexed": false,
          "internalType": "uint256",
          "name": "amount",
          "type": "uint256"
        },
        {
          "indexed": false,
          "internalType": "uint256",
          "name": "ticketId",
          "type": "uint256"
        }
      ],
      "name": "TicketPurchased",
      "type": "event"
    },
    {
      "inputs": [],
      "name": "REWARD_DIRECT",
      "outputs": [
        {
          "internalType": "uint8",
          "name": "",
          "type": "uint8"
        }
      ],
      "stateMutability": "view",
      "type": "function"
    },
    {
      "inputs": [],
      "name": "REWARD_DYNAMIC",
      "outputs": [
        {
          "internalType": "uint8",
          "name": "",
          "type": "uint8"
        }
      ],
      "stateMutability": "view",
      "type": "function"
    },
    {
      "inputs": [],
      "name": "REWARD_LEVEL",
      "outputs": [
        {
          "internalType": "uint8",
          "name": "",
          "type": "uint8"
        }
      ],
      "stateMutability": "view",
      "type": "function"
    },
    {
      "inputs": [],
      "name": "REWARD_STATIC",
      "outputs": [
        {
          "internalType": "uint8",
          "name": "",
          "type": "uint8"
        }
      ],
      "stateMutability": "view",
      "type": "function"
    },
    {
      "inputs": [],
      "name": "SECONDS_IN_UNIT",
      "outputs": [
        {
          "internalType": "uint256",
          "name": "",
          "type": "uint256"
        }
      ],
      "stateMutability": "view",
      "type": "function"
    },
    {
      "inputs": [
        {
          "internalType": "uint256",
          "name": "mcAmount",
          "type": "uint256"
        },
        {
          "internalType": "uint256",
          "name": "jbcAmount",
          "type": "uint256"
        }
      ],
      "name": "addLiquidity",
      "outputs": [],
      "stateMutability": "nonpayable",
      "type": "function"
    },
    {
      "inputs": [
        {
          "internalType": "address",
          "name": "user",
          "type": "address"
        },
        {
          "internalType": "address",
          "name": "newReferrer",
          "type": "address"
        }
      ],
      "name": "adminSetReferrer",
      "outputs": [],
      "stateMutability": "nonpayable",
      "type": "function"
    },
    {
      "inputs": [
        {
          "internalType": "address",
          "name": "user",
          "type": "address"
        },
        {
          "internalType": "uint256",
          "name": "_activeDirects",
          "type": "uint256"
        },
        {
          "internalType": "uint256",
          "name": "_teamCount",
          "type": "uint256"
        }
      ],
      "name": "adminSetUserStats",
      "outputs": [],
      "stateMutability": "nonpayable",
      "type": "function"
    },
    {
      "inputs": [
        {
          "internalType": "uint256",
          "name": "amount",
          "type": "uint256"
        },
        {
          "internalType": "address",
          "name": "to",
          "type": "address"
        }
      ],
      "name": "adminWithdrawJBC",
      "outputs": [],
      "stateMutability": "nonpayable",
      "type": "function"
    },
    {
      "inputs": [
        {
          "internalType": "uint256",
          "name": "amount",
          "type": "uint256"
        },
        {
          "internalType": "address",
          "name": "to",
          "type": "address"
        }
      ],
      "name": "adminWithdrawMC",
      "outputs": [],
      "stateMutability": "nonpayable",
      "type": "function"
    },
    {
      "inputs": [
        {
          "internalType": "address",
          "name": "_referrer",
          "type": "address"
        }
      ],
      "name": "bindReferrer",
      "outputs": [],
      "stateMutability": "nonpayable",
      "type": "function"
    },
    {
      "inputs": [
        {
          "internalType": "uint256",
          "name": "amount",
          "type": "uint256"
        }
      ],
      "name": "buyTicket",
      "outputs": [],
      "stateMutability": "nonpayable",
      "type": "function"
    },
    {
      "inputs": [],
      "name": "buybackPercent",
      "outputs": [
        {
          "internalType": "uint256",
          "name": "",
          "type": "uint256"
        }
      ],
      "stateMutability": "view",
      "type": "function"
    },
    {
      "inputs": [],
      "name": "claimRewards",
      "outputs": [],
      "stateMutability": "nonpayable",
      "type": "function"
    },
    {
      "inputs": [
        {
          "internalType": "address",
          "name": "",
          "type": "address"
        },
        {
          "internalType": "uint256",
          "name": "",
          "type": "uint256"
        }
      ],
      "name": "directReferrals",
      "outputs": [
        {
          "internalType": "address",
          "name": "",
          "type": "address"
        }
      ],
      "stateMutability": "view",
      "type": "function"
    },
    {
      "inputs": [],
      "name": "directRewardPercent",
      "outputs": [
        {
          "internalType": "uint256",
          "name": "",
          "type": "uint256"
        }
      ],
      "stateMutability": "view",
      "type": "function"
    },
    {
      "inputs": [
        {
          "internalType": "uint256",
          "name": "amountIn",
          "type": "uint256"
        },
        {
          "internalType": "uint256",
          "name": "reserveIn",
          "type": "uint256"
        },
        {
          "internalType": "uint256",
          "name": "reserveOut",
          "type": "uint256"
        }
      ],
      "name": "getAmountOut",
      "outputs": [
        {
          "internalType": "uint256",
          "name": "",
          "type": "uint256"
        }
      ],
      "stateMutability": "pure",
      "type": "function"
    },
    {
      "inputs": [],
      "name": "getJBCPrice",
      "outputs": [
        {
          "internalType": "uint256",
          "name": "",
          "type": "uint256"
        }
      ],
      "stateMutability": "view",
      "type": "function"
    },
    {
      "inputs": [
        {
          "internalType": "uint256",
          "name": "activeDirects",
          "type": "uint256"
        }
      ],
      "name": "getLevel",
      "outputs": [
        {
          "internalType": "uint256",
          "name": "level",
          "type": "uint256"
        },
        {
          "internalType": "uint256",
          "name": "percent",
          "type": "uint256"
        }
      ],
      "stateMutability": "pure",
      "type": "function"
    },
    {
      "inputs": [],
      "name": "jbcToken",
      "outputs": [
        {
          "internalType": "contract IJBC",
          "name": "",
          "type": "address"
        }
      ],
      "stateMutability": "view",
      "type": "function"
    },
    {
      "inputs": [],
      "name": "levelRewardPercent",
      "outputs": [
        {
          "internalType": "uint256",
          "name": "",
          "type": "uint256"
        }
      ],
      "stateMutability": "view",
      "type": "function"
    },
    {
      "inputs": [],
      "name": "lpInjectionPercent",
      "outputs": [
        {
          "internalType": "uint256",
          "name": "",
          "type": "uint256"
        }
      ],
      "stateMutability": "view",
      "type": "function"
    },
    {
      "inputs": [],
      "name": "lpInjectionWallet",
      "outputs": [
        {
          "internalType": "address",
          "name": "",
          "type": "address"
        }
      ],
      "stateMutability": "view",
      "type": "function"
    },
    {
      "inputs": [],
      "name": "marketingPercent",
      "outputs": [
        {
          "internalType": "uint256",
          "name": "",
          "type": "uint256"
        }
      ],
      "stateMutability": "view",
      "type": "function"
    },
    {
      "inputs": [],
      "name": "marketingWallet",
      "outputs": [
        {
          "internalType": "address",
          "name": "",
          "type": "address"
        }
      ],
      "stateMutability": "view",
      "type": "function"
    },
    {
      "inputs": [],
      "name": "mcToken",
      "outputs": [
        {
          "internalType": "contract IERC20",
          "name": "",
          "type": "address"
        }
      ],
      "stateMutability": "view",
      "type": "function"
    },
    {
      "inputs": [],
      "name": "nextTicketId",
      "outputs": [
        {
          "internalType": "uint256",
          "name": "",
          "type": "uint256"
        }
      ],
      "stateMutability": "view",
      "type": "function"
    },
    {
      "inputs": [],
      "name": "owner",
      "outputs": [
        {
          "internalType": "address",
          "name": "",
          "type": "address"
        }
      ],
      "stateMutability": "view",
      "type": "function"
    },
    {
      "inputs": [],
      "name": "redeem",
      "outputs": [],
      "stateMutability": "nonpayable",
      "type": "function"
    },
    {
      "inputs": [],
      "name": "redemptionFeePercent",
      "outputs": [
        {
          "internalType": "uint256",
          "name": "",
          "type": "uint256"
        }
      ],
      "stateMutability": "view",
      "type": "function"
    },
    {
      "inputs": [],
      "name": "renounceOwnership",
      "outputs": [],
      "stateMutability": "nonpayable",
      "type": "function"
    },
    {
      "inputs": [
        {
          "internalType": "address",
          "name": "_marketing",
          "type": "address"
        },
        {
          "internalType": "address",
          "name": "_treasury",
          "type": "address"
        },
        {
          "internalType": "address",
          "name": "_lpInjection",
          "type": "address"
        }
      ],
      "name": "setWallets",
      "outputs": [],
      "stateMutability": "nonpayable",
      "type": "function"
    },
    {
      "inputs": [
        {
          "internalType": "uint256",
          "name": "cycleDays",
          "type": "uint256"
        }
      ],
      "name": "stakeLiquidity",
      "outputs": [],
      "stateMutability": "nonpayable",
      "type": "function"
    },
    {
      "inputs": [],
      "name": "swapBuyTax",
      "outputs": [
        {
          "internalType": "uint256",
          "name": "",
          "type": "uint256"
        }
      ],
      "stateMutability": "view",
      "type": "function"
    },
    {
      "inputs": [
        {
          "internalType": "uint256",
          "name": "jbcAmount",
          "type": "uint256"
        }
      ],
      "name": "swapJBCToMC",
      "outputs": [],
      "stateMutability": "nonpayable",
      "type": "function"
    },
    {
      "inputs": [
        {
          "internalType": "uint256",
          "name": "mcAmount",
          "type": "uint256"
        }
      ],
      "name": "swapMCToJBC",
      "outputs": [],
      "stateMutability": "nonpayable",
      "type": "function"
    },
    {
      "inputs": [],
      "name": "swapReserveJBC",
      "outputs": [
        {
          "internalType": "uint256",
          "name": "",
          "type": "uint256"
        }
      ],
      "stateMutability": "view",
      "type": "function"
    },
    {
      "inputs": [],
      "name": "swapReserveMC",
      "outputs": [
        {
          "internalType": "uint256",
          "name": "",
          "type": "uint256"
        }
      ],
      "stateMutability": "view",
      "type": "function"
    },
    {
      "inputs": [],
      "name": "swapSellTax",
      "outputs": [
        {
          "internalType": "uint256",
          "name": "",
          "type": "uint256"
        }
      ],
      "stateMutability": "view",
      "type": "function"
    },
    {
      "inputs": [
        {
          "internalType": "uint256",
          "name": "",
          "type": "uint256"
        },
        {
          "internalType": "uint256",
          "name": "",
          "type": "uint256"
        }
      ],
      "name": "ticketPendingRewards",
      "outputs": [
        {
          "internalType": "address",
          "name": "upline",
          "type": "address"
        },
        {
          "internalType": "uint256",
          "name": "amount",
          "type": "uint256"
        }
      ],
      "stateMutability": "view",
      "type": "function"
    },
    {
      "inputs": [
        {
          "internalType": "uint256",
          "name": "",
          "type": "uint256"
        }
      ],
      "name": "ticketStaticPaid",
      "outputs": [
        {
          "internalType": "uint256",
          "name": "",
          "type": "uint256"
        }
      ],
      "stateMutability": "view",
      "type": "function"
    },
    {
      "inputs": [
        {
          "internalType": "address",
          "name": "newOwner",
          "type": "address"
        }
      ],
      "name": "transferOwnership",
      "outputs": [],
      "stateMutability": "nonpayable",
      "type": "function"
    },
    {
      "inputs": [],
      "name": "treasuryPercent",
      "outputs": [
        {
          "internalType": "uint256",
          "name": "",
          "type": "uint256"
        }
      ],
      "stateMutability": "view",
      "type": "function"
    },
    {
      "inputs": [],
      "name": "treasuryWallet",
      "outputs": [
        {
          "internalType": "address",
          "name": "",
          "type": "address"
        }
      ],
      "stateMutability": "view",
      "type": "function"
    },
    {
      "inputs": [
        {
          "internalType": "address",
          "name": "",
          "type": "address"
        }
      ],
      "name": "userInfo",
      "outputs": [
        {
          "internalType": "address",
          "name": "referrer",
          "type": "address"
        },
        {
          "internalType": "uint256",
          "name": "activeDirects",
          "type": "uint256"
        },
        {
          "internalType": "uint256",
          "name": "teamCount",
          "type": "uint256"
        },
        {
          "internalType": "uint256",
          "name": "totalRevenue",
          "type": "uint256"
        },
        {
          "internalType": "uint256",
          "name": "currentCap",
          "type": "uint256"
        },
        {
          "internalType": "bool",
          "name": "isActive",
          "type": "bool"
        },
        {
          "internalType": "uint256",
          "name": "refundFeeAmount",
          "type": "uint256"
        }
      ],
      "stateMutability": "view",
      "type": "function"
    },
    {
      "inputs": [
        {
          "internalType": "address",
          "name": "",
          "type": "address"
        }
      ],
      "name": "userTicket",
      "outputs": [
        {
          "internalType": "uint256",
          "name": "ticketId",
          "type": "uint256"
        },
        {
          "internalType": "uint256",
          "name": "amount",
          "type": "uint256"
        },
        {
          "internalType": "uint256",
          "name": "requiredLiquidity",
          "type": "uint256"
        },
        {
          "internalType": "uint256",
          "name": "purchaseTime",
          "type": "uint256"
        },
        {
          "internalType": "bool",
          "name": "liquidityProvided",
          "type": "bool"
        },
        {
          "internalType": "uint256",
          "name": "liquidityAmount",
          "type": "uint256"
        },
        {
          "internalType": "uint256",
          "name": "startTime",
          "type": "uint256"
        },
        {
          "internalType": "uint256",
          "name": "cycleDays",
          "type": "uint256"
        },
        {
          "internalType": "bool",
          "name": "redeemed",
          "type": "bool"
        },
        {
          "internalType": "bool",
          "name": "exited",
          "type": "bool"
        }
      ],
      "stateMutability": "view",
      "type": "function"
    }
  ],
  "bytecode": "0x60806040526019600755600f60085560056009556005600a556019600b556019600c556001600d556032600e556019600f553480156200003e57600080fd5b506040516200360d3803806200360d833981016040819052620000619162000169565b33806200008857604051631e4fbdf760e01b81526000600482015260240160405180910390fd5b6200009381620000fc565b505060018055600280546001600160a01b03199081166001600160a01b03978816179091556003805482169587169590951790945560048054851693861693909317909255600580548416918516919091179055600680549092169216919091179055620001ea565b600080546001600160a01b038381166001600160a01b0319831681178455604051919092169283917f8be0079c531659141344cd1fd0a4f28419497f9722a3daafe3b4186f6b6457e09190a35050565b80516001600160a01b03811681146200016457600080fd5b919050565b60008060008060008060c087890312156200018357600080fd5b6200018e876200014c565b95506200019e602088016200014c565b9450620001ae604088016200014c565b9350620001be606088016200014c565b9250620001ce608088016200014c565b9150620001de60a088016200014c565b90509295509295509295565b61341380620001fa6000396000f3fe608060405234801561001057600080fd5b506004361061028a5760003560e01c806375f0a8741161015c5780639cd441da116100ce578063d241e00111610087578063d241e00114610652578063d8020a1814610665578063dec7fa3b1461066e578063e4412f6814610677578063f1d34d4e14610680578063f2fde38b146106a057600080fd5b80639cd441da14610609578063a2af92261461061c578063bd594dcf1461062f578063be040fb014610638578063ccf6194414610640578063ceaa366d1461064957600080fd5b806388fd4d331161012057806388fd4d33146105b95780638a859a85146105cc5780638c0eaa48146105d45780638da5cb5b146105dc5780639370b080146105ed57806395253992146105f657600080fd5b806375f0a8741461049f57806377a2a540146104b2578063813380cd146104bb57806386481d40146104dc5780638710bcaa1461050457600080fd5b806335076373116102005780636031a52f116101b95780636031a52f1461044257806362eea9141461044b57806367dd74ca1461045e5780636fb3c47c14610471578063715018a61461048457806375cb1bd11461048c57600080fd5b806335076373146103f1578063372500ab146104045780633a3ea2f01461040c5780634626402b14610414578063488b5d971461042757806352778b051461042f57600080fd5b80630e2be210116102525780630e2be210146103115780631427f6161461032b5780631788513c146103335780631959a002146103465780631d0dac76146103df57806327f082f4146103e857600080fd5b806304ef9d581461028f57806304f618cb146102ab578063054d50d4146102c057806305ad3935146102d35780630a5c4567146102fe575b600080fd5b610298600c5481565b6040519081526020015b60405180910390f35b6102be6102b936600461310f565b6106b3565b005b6102986102ce366004613131565b610820565b6102e66102e136600461315d565b6108f6565b6040516001600160a01b0390911681526020016102a2565b6102be61030c366004613187565b61092e565b610319600281565b60405160ff90911681526020016102a2565b610319600081565b6003546102e6906001600160a01b031681565b61039e61035436600461310f565b60106020526000908152604090208054600182015460028301546003840154600485015460058601546006909601546001600160a01b0390951695939492939192909160ff169087565b604080516001600160a01b03909816885260208801969096529486019390935260608501919091526080840152151560a083015260c082015260e0016102a2565b61029860165481565b610298600e5481565b6102be6103ff366004613187565b610c42565b6102be610fd5565b6102986114ed565b6005546102e6906001600160a01b031681565b610298603c81565b6102be61043d366004613187565b61160e565b61029860175481565b6102be6104593660046131a0565b611927565b6102be61046c366004613187565b6119a9565b6102be61047f3660046131cc565b611f88565b6102be611fb7565b6102be61049a3660046131ff565b611fc9565b6004546102e6906001600160a01b031681565b61029860155481565b6104ce6104c9366004613242565b612010565b6040516102a2929190613264565b6104ef6104ea366004613187565b612056565b604080519283526020830191909152016102a2565b61056b61051236600461310f565b601160205260009081526040902080546001820154600283015460038401546004850154600586015460068701546007880154600890980154969795969495939460ff938416949293919291818116916101009004168a565b604080519a8b5260208b0199909952978901969096526060880194909452911515608087015260a086015260c085015260e084015215156101008301521515610120820152610140016102a2565b6006546102e6906001600160a01b031681565b610319600181565b610319600381565b6000546001600160a01b03166102e6565b610298600f5481565b6002546102e6906001600160a01b031681565b6102be610617366004613242565b61211f565b6102be61062a36600461327d565b6122d9565b61029860085481565b6102be6124dd565b61029860075481565b610298600b5481565b6102be6106603660046131a0565b612700565b61029860095481565b610298600d5481565b610298600a5481565b61029861068e366004613187565b60146020526000908152604090205481565b6102be6106ae36600461310f565b61273a565b336000908152601060205260409020546001600160a01b03161561070e5760405162461bcd60e51b815260206004820152600d60248201526c105b1c9958591e48189bdd5b99609a1b60448201526064015b60405180910390fd5b336001600160a01b038216036107595760405162461bcd60e51b815260206004820152601060248201526f21b0b73737ba103134b7321039b2b63360811b6044820152606401610705565b6001600160a01b0381166107a25760405162461bcd60e51b815260206004820152601060248201526f24b73b30b634b2103932b332b93932b960811b6044820152606401610705565b33600081815260106020908152604080832080546001600160a01b0387166001600160a01b0319918216811790925581855260128452828520805460018101825590865293852090930180549093168517909255519092917fa6dbb5aa28f35437de94d685d66edce5fb4812196b4984b91dfd5a7b38c0fb3091a350565b60008084116108715760405162461bcd60e51b815260206004820152601960248201527f496e73756666696369656e7420696e70757420616d6f756e74000000000000006044820152606401610705565b6000831180156108815750600082115b6108c65760405162461bcd60e51b8152602060048201526016602482015275496e73756666696369656e74206c697175696469747960501b6044820152606401610705565b60006108d283866132bd565b905060006108e086866132da565b90506108ec81836132ed565b9695505050505050565b6012602052816000526040600020818154811061091257600080fd5b6000918252602090912001546001600160a01b03169150829050565b610936612775565b600081116109775760405162461bcd60e51b815260206004820152600e60248201526d125b9d985b1a5908185b5bdd5b9d60921b6044820152606401610705565b6002546040516323b872dd60e01b81526001600160a01b03909116906323b872dd906109ab9033903090869060040161330f565b6020604051808303816000875af11580156109ca573d6000803e3d6000fd5b505050506040513d601f19601f820116820180604052508101906109ee9190613333565b506000610a0082601554601654610820565b905060006064600e5483610a1491906132bd565b610a1e91906132ed565b90506000610a2c8284613355565b6003546040516370a0823160e01b815230600482015291925084916001600160a01b03909116906370a0823190602401602060405180830381865afa158015610a79573d6000803e3d6000fd5b505050506040513d601f19601f82011682018060405250810190610a9d9190613368565b1015610aeb5760405162461bcd60e51b815260206004820152601a60248201527f496e73756666696369656e74204a4243206c69717569646974790000000000006044820152606401610705565b8360156000828254610afd91906132da565b925050819055508260166000828254610b169190613355565b9091555050600354604051630852cd8d60e31b8152600481018490526001600160a01b03909116906342966c6890602401600060405180830381600087803b158015610b6157600080fd5b505af1158015610b75573d6000803e3d6000fd5b505060035460405163a9059cbb60e01b81526001600160a01b03909116925063a9059cbb9150610bab9033908590600401613264565b6020604051808303816000875af1158015610bca573d6000803e3d6000fd5b505050506040513d601f19601f82011682018060405250810190610bee9190613333565b50604080518581526020810183905290810183905233907f36864aeefce16bc4aaceeb6b0cdfb2ad1455a8cb4ccb0db148a2bc6e7166f97c906060015b60405180910390a2505050610c3f60018055565b50565b610c4a612775565b336000908152601160205260409020600181015415801590610c715750600481015460ff16155b610cb45760405162461bcd60e51b8152602060048201526014602482015273496e76616c6964207469636b657420737461746560601b6044820152606401610705565b6008810154610100900460ff1615610cfe5760405162461bcd60e51b815260206004820152600d60248201526c151a58dad95d08195e1a5d1959609a1b6044820152606401610705565b6003810154610d10906203f4806132da565b421115610d505760405162461bcd60e51b815260206004820152600e60248201526d151a58dad95d08195e1c1a5c995960921b6044820152606401610705565b8160071480610d5f575081600f145b80610d6a575081601e145b610da65760405162461bcd60e51b815260206004820152600d60248201526c496e76616c6964206379636c6560981b6044820152606401610705565b60028082015490546040516323b872dd60e01b81526001600160a01b03909116906323b872dd90610ddf9033903090869060040161330f565b6020604051808303816000875af1158015610dfe573d6000803e3d6000fd5b505050506040513d601f19601f82011682018060405250810190610e229190613333565b5060048201805460ff191660011790556005820181905542600683015560078201839055604080518281526020810185905233917f1e54d7530dad81af38adb8ca9db02add3130668375f37be85396403616fc3d49910160405180910390a2336000908152601060205260409020600601548015610fc957336000908152601060205260408082206006019190915560025490516370a0823160e01b815230600482015282916001600160a01b0316906370a0823190602401602060405180830381865afa158015610ef8573d6000803e3d6000fd5b505050506040513d601f19601f82011682018060405250810190610f1c9190613368565b10610fc95760025460405163a9059cbb60e01b81526001600160a01b039091169063a9059cbb90610f539033908590600401613264565b6020604051808303816000875af1158015610f72573d6000803e3d6000fd5b505050506040513d601f19601f82011682018060405250810190610f969190613333565b5060405181815233907f3437b9ea7fa19c6d233dd70cc787a70fab87cee64d8ba4571512cc84402748f990602001610c2b565b505050610c3f60018055565b610fdd612775565b336000908152601160205260409020600481015460ff1680156110055750600881015460ff16155b801561101b57506008810154610100900460ff16155b6110545760405162461bcd60e51b815260206004820152600a6024820152694e6f742061637469766560b01b6044820152606401610705565b6000816007015460070361106a5750601461108e565b8160070154600f0361107e5750601961108e565b8160070154601e0361108e5750601e5b6000603c8360060154426110a29190613355565b6110ac91906132ed565b905082600701548111156110c1575060078201545b806000036111045760405162461bcd60e51b815260206004820152601060248201526f13195cdcc81d1a185b880c481d5b9a5d60821b6044820152606401610705565b60006103e88284866005015461111a91906132bd565b61112491906132bd565b61112e91906132ed565b845460009081526014602052604081205491925081831115611157576111548284613355565b90505b600081116111985760405162461bcd60e51b815260206004820152600e60248201526d4e6f206e6577207265776172647360901b6044820152606401610705565b33600090815260106020526040902060048101546003909101546111bd9083906132da565b11156111ea5733600090815260106020526040902060038101546004909101546111e79190613355565b90505b80600003611206576111fb3361279f565b5050505050506114e2565b8554600090815260146020526040812080548392906112269084906132da565b9091555050336000908152601060205260408120600301805483929061124d9084906132da565b90915550600090506112606002836132ed565b9050600061126f6002846132ed565b6002546040516370a0823160e01b815230600482015291925083916001600160a01b03909116906370a0823190602401602060405180830381865afa1580156112bc573d6000803e3d6000fd5b505050506040513d601f19601f820116820180604052508101906112e09190613368565b1061135c5760025460405163a9059cbb60e01b81526001600160a01b039091169063a9059cbb906113179033908690600401613264565b6020604051808303816000875af1158015611336573d6000803e3d6000fd5b505050506040513d601f19601f8201168201806040525081019061135a9190613333565b505b60006113666114ed565b905060008161137d84670de0b6b3a76400006132bd565b61138791906132ed565b6003546040516370a0823160e01b815230600482015291925082916001600160a01b03909116906370a0823190602401602060405180830381865afa1580156113d4573d6000803e3d6000fd5b505050506040513d601f19601f820116820180604052508101906113f89190613368565b106114745760035460405163a9059cbb60e01b81526001600160a01b039091169063a9059cbb9061142f9033908590600401613264565b6020604051808303816000875af115801561144e573d6000803e3d6000fd5b505050506040513d601f19601f820116820180604052508101906114729190613333565b505b604080518681526000602082015233917ff381583145e90b82cc5e529bf4fc4d0e44397174cdf145c4251ac33ef195a424910160405180910390a23360009081526010602052604090206004810154600390910154106114d7576114d73361279f565b505050505050505050505b6114eb60018055565b565b6002546040516370a0823160e01b815230600482015260009182916001600160a01b03909116906370a0823190602401602060405180830381865afa15801561153a573d6000803e3d6000fd5b505050506040513d601f19601f8201168201806040525081019061155e9190613368565b6003546040516370a0823160e01b81523060048201529192506000916001600160a01b03909116906370a0823190602401602060405180830381865afa1580156115ac573d6000803e3d6000fd5b505050506040513d601f19601f820116820180604052508101906115d09190613368565b9050806000036115ea57670de0b6b3a76400009250505090565b806115fd83670de0b6b3a76400006132bd565b61160791906132ed565b9250505090565b611616612775565b600081116116575760405162461bcd60e51b815260206004820152600e60248201526d125b9d985b1a5908185b5bdd5b9d60921b6044820152606401610705565b6003546040516323b872dd60e01b81526001600160a01b03909116906323b872dd9061168b9033903090869060040161330f565b6020604051808303816000875af11580156116aa573d6000803e3d6000fd5b505050506040513d601f19601f820116820180604052508101906116ce9190613333565b5060006064600f54836116e191906132bd565b6116eb91906132ed565b905060006116f98284613355565b600354604051630852cd8d60e31b8152600481018590529192506001600160a01b0316906342966c6890602401600060405180830381600087803b15801561174057600080fd5b505af1158015611754573d6000803e3d6000fd5b50505050600061176982601654601554610820565b6002546040516370a0823160e01b815230600482015291925082916001600160a01b03909116906370a0823190602401602060405180830381865afa1580156117b6573d6000803e3d6000fd5b505050506040513d601f19601f820116820180604052508101906117da9190613368565b10156118285760405162461bcd60e51b815260206004820152601960248201527f496e73756666696369656e74204d43206c6971756964697479000000000000006044820152606401610705565b836016600082825461183a91906132da565b92505081905550816016600082825461185391906132da565b92505081905550806015600082825461186c9190613355565b909155505060025460405163a9059cbb60e01b81526001600160a01b039091169063a9059cbb906118a39033908590600401613264565b6020604051808303816000875af11580156118c2573d6000803e3d6000fd5b505050506040513d601f19601f820116820180604052508101906118e69190613333565b50604080518581526020810183905290810184905233907f223c8ad0806f634524940a8595f819c5cfc7b1f4f4f45791269301df0a7e61d590606001610c2b565b61192f6129e3565b60035460405163a9059cbb60e01b81526001600160a01b039091169063a9059cbb906119619084908690600401613264565b6020604051808303816000875af1158015611980573d6000803e3d6000fd5b505050506040513d601f19601f820116820180604052508101906119a49190613333565b505050565b6119b1612775565b8068056bc75e2d6310000014806119d0575080681043561a8829300000145b806119e3575080681b1ae4d6e2ef500000145b806119f6575080683635c9adc5dea00000145b611a3a5760405162461bcd60e51b8152602060048201526015602482015274125b9d985b1a59081d1a58dad95d08185b5bdd5b9d605a1b6044820152606401610705565b6002546040516323b872dd60e01b81526001600160a01b03909116906323b872dd90611a6e9033903090869060040161330f565b6020604051808303816000875af1158015611a8d573d6000803e3d6000fd5b505050506040513d601f19601f82011682018060405250810190611ab19190613333565b5060178054906000611ac283613381565b919050555060405180610140016040528060175481526020018281526020016064836096611af091906132bd565b611afa91906132ed565b815242602080830191909152600060408084018290526060808501839052608080860184905260a080870185905260c080880186905260e09788018690523386526011875284862089518155898801516001820155898601516002820155938901516003808601919091559289015160048501805460ff1916911515919091179055908801516005840155870151600683015594860151600782015561010080870151600890920180546101209098015161ffff1990981692151561ff0019169290921796151502959095179094556010909152918220810191909155611be29082906132bd565b33600090815260106020526040902060048101919091556005015460ff16611c615733600090815260106020526040902060058101805460ff19166001179055546001600160a01b03168015611c5f576001600160a01b0381166000908152601060205260408120600101805491611c5983613381565b91905055505b505b336000908152601060205260409020546001600160a01b03168015611cb0576000606460075484611c9291906132bd565b611c9c91906132ed565b9050611caa82826002612a10565b50611d46565b6002546004546007546001600160a01b039283169263a9059cbb921690606490611cda90876132bd565b611ce491906132ed565b6040518363ffffffff1660e01b8152600401611d01929190613264565b6020604051808303816000875af1158015611d20573d6000803e3d6000fd5b505050506040513d601f19601f82011682018060405250810190611d449190613333565b505b611d533383601754612bbf565b6002546004546009546001600160a01b039283169263a9059cbb921690606490611d7d90876132bd565b611d8791906132ed565b6040518363ffffffff1660e01b8152600401611da4929190613264565b6020604051808303816000875af1158015611dc3573d6000803e3d6000fd5b505050506040513d601f19601f82011682018060405250810190611de79190613333565b5060006064600a5484611dfa91906132bd565b611e0491906132ed565b9050611e0f81612d36565b600254600654600b546001600160a01b039283169263a9059cbb921690606490611e3990886132bd565b611e4391906132ed565b6040518363ffffffff1660e01b8152600401611e60929190613264565b6020604051808303816000875af1158015611e7f573d6000803e3d6000fd5b505050506040513d601f19601f82011682018060405250810190611ea39190613333565b50600254600554600c546001600160a01b039283169263a9059cbb921690606490611ece90886132bd565b611ed891906132ed565b6040518363ffffffff1660e01b8152600401611ef5929190613264565b6020604051808303816000875af1158015611f14573d6000803e3d6000fd5b505050506040513d601f19601f82011682018060405250810190611f389190613333565b5060175460405133917f2a91574e12ad96234e84923e146b0946ecfb871cd8d5534dc1fdcbe87a7c01b391611f7591878252602082015260400190565b60405180910390a25050610c3f60018055565b611f906129e3565b6001600160a01b039092166000908152601060205260409020600181019190915560020155565b611fbf6129e3565b6114eb6000612eee565b611fd16129e3565b600480546001600160a01b039485166001600160a01b031991821617909155600580549385169382169390931790925560068054919093169116179055565b6013602052816000526040600020818154811061202c57600080fd5b6000918252602090912060029091020180546001909101546001600160a01b039091169250905082565b600080620186a0831061206f5750600992602d92509050565b61753083106120845750600892602892509050565b61271083106120995750600792602392509050565b610bb883106120ae5750600692601e92509050565b6103e883106120c35750600592601992509050565b61012c83106120d85750600492601492509050565b606483106120ec5750600392600f92509050565b601e83106121005750600292600a92509050565b600a83106121145750600192600592509050565b506000928392509050565b6121276129e3565b60008211806121365750600081115b6121705760405162461bcd60e51b815260206004820152600b60248201526a16995c9bc8185b5bdd5b9d60aa1b6044820152606401610705565b8115612206576002546040516323b872dd60e01b81526001600160a01b03909116906323b872dd906121aa9033903090879060040161330f565b6020604051808303816000875af11580156121c9573d6000803e3d6000fd5b505050506040513d601f19601f820116820180604052508101906121ed9190613333565b50816015600082825461220091906132da565b90915550505b801561229c576003546040516323b872dd60e01b81526001600160a01b03909116906323b872dd906122409033903090869060040161330f565b6020604051808303816000875af115801561225f573d6000803e3d6000fd5b505050506040513d601f19601f820116820180604052508101906122839190613333565b50806016600082825461229691906132da565b90915550505b60408051838152602081018390527f38f8a0c92f4c5b0b6877f878cb4c0c8d348a47b76d716c8e78f425043df9515b910160405180910390a15050565b6122e16129e3565b806001600160a01b0316826001600160a01b0316036123355760405162461bcd60e51b815260206004820152601060248201526f21b0b73737ba103134b7321039b2b63360811b6044820152606401610705565b6001600160a01b03808316600090815260106020526040902080548383166001600160a01b031982161790915516801561248c576001600160a01b0381166000908152601260205260408120905b815481101561248957846001600160a01b03168282815481106123a8576123a861339a565b6000918252602090912001546001600160a01b03160361247757815482906123d290600190613355565b815481106123e2576123e261339a565b9060005260206000200160009054906101000a90046001600160a01b03168282815481106124125761241261339a565b9060005260206000200160006101000a8154816001600160a01b0302191690836001600160a01b0316021790555081805480612450576124506133b0565b600082815260209020810160001990810180546001600160a01b0319169055019055612489565b8061248181613381565b915050612383565b50505b6001600160a01b038216156119a457506001600160a01b0390811660009081526012602090815260408220805460018101825590835291200180546001600160a01b03191692909116919091179055565b6124e5612775565b336000908152601160205260409020600481015460ff16801561250d5750600881015460ff16155b801561252357506008810154610100900460ff16155b61255f5760405162461bcd60e51b815260206004820152600d60248201526c43616e6e6f742072656465656d60981b6044820152606401610705565b603c816007015461257091906132bd565b816006015461257f91906132da565b4210156125c35760405162461bcd60e51b815260206004820152601260248201527110de58db19481b9bdd08199a5b9a5cda195960721b6044820152606401610705565b60006064600d5483600101546125d991906132bd565b6125e391906132ed565b6005830154909150818110612603576125fc8282613355565b9050612608565b600091505b60025460405163a9059cbb60e01b81526001600160a01b039091169063a9059cbb9061263a9033908590600401613264565b6020604051808303816000875af1158015612659573d6000803e3d6000fd5b505050506040513d601f19601f8201168201806040525081019061267d9190613333565b50336000818152601060205260409081902060060184905560088501805460ff19166001179055600585015490517ff3a670cd3af7d64b488926880889d08a8585a138ff455227af6737339a1ec262916126e1918690918252602082015260400190565b60405180910390a282546126f490612f3e565b5050506114eb60018055565b6127086129e3565b60025460405163a9059cbb60e01b81526001600160a01b039091169063a9059cbb906119619084908690600401613264565b6127426129e3565b6001600160a01b03811661276c57604051631e4fbdf760e01b815260006004820152602401610705565b610c3f81612eee565b60026001540361279857604051633ee5aeb560e01b815260040160405180910390fd5b6002600155565b6001600160a01b03811660009081526011602052604090206008810154610100900460ff166129df5760088101805461ff001916610100179055600481015460ff1680156127f25750600881015460ff16155b1561299e5760006064600d54836001015461280d91906132bd565b61281791906132ed565b905060008183600501541161282d57600061283d565b81836005015461283d9190613355565b905080156128bc5760025460405163a9059cbb60e01b81526001600160a01b039091169063a9059cbb906128779087908590600401613264565b6020604051808303816000875af1158015612896573d6000803e3d6000fd5b505050506040513d601f19601f820116820180604052508101906128ba9190613333565b505b60088301805460ff199081166001179091556001600160a01b038086166000908152601060205260409020600581018054909316909255905416801580159061291f57506001600160a01b03811660009081526010602052604090206001015415155b15612951576001600160a01b038116600090815260106020526040812060010180549161294b836133c6565b91905055505b600584015460408051918252602082018590526001600160a01b038716917ff3a670cd3af7d64b488926880889d08a8585a138ff455227af6737339a1ec262910160405180910390a25050505b80546040519081526001600160a01b038316907f920bb94eb3842a728db98228c375ff6b00c5bc5a54fac6736155517a0a20a61a9060200160405180910390a25b5050565b6000546001600160a01b031633146114eb5760405163118cdaa760e01b8152336004820152602401610705565b6001600160a01b038316600090815260106020908152604080832060119092529091206008810154610100900460ff1680612a4d57506001810154155b15612a59575050505050565b600082600301548360040154612a6f9190613355565b90508481811115612ac25750604080518681526020810183905282916001600160a01b038916917fb5987aab1afd379f6695f1068869ee8ca6a0d02304c57935a9cc3d3ea2e51e4d910160405180910390a25b8015612b9e5780846003016000828254612adc91906132da565b909155505060025460405163a9059cbb60e01b81526001600160a01b039091169063a9059cbb90612b13908a908590600401613264565b6020604051808303816000875af1158015612b32573d6000803e3d6000fd5b505050506040513d601f19601f82011682018060405250810190612b569190613333565b506040805182815260ff871660208201526001600160a01b038916917ff381583145e90b82cc5e529bf4fc4d0e44397174cdf145c4251ac33ef195a424910160405180910390a25b8360040154846003015410612bb657612bb68761279f565b50505050505050565b6001600160a01b0380841660009081526010602052604081205490911690805b6001600160a01b03831615801590612bf75750601481105b15612d2e576001600160a01b038316600090815260106020526040812060010154612c2190612056565b91505082811115612cef576000612c388483613355565b905060006064612c48838a6132bd565b612c5291906132ed565b6000888152601360209081526040808320815180830183526001600160a01b038c8116808352828601888152845460018082018755958952978790209351600290980290930180546001600160a01b03191697909216969096178155905191015551838152929350909189917fbd5e0947444d5adb46b3d24786f72907c1e8176cb1348960766a6cd6fad13e9f910160405180910390a382945050505b602d8110612cfd5750612d2e565b6001600160a01b039384166000908152601060205260409020549093169281612d2581613381565b92505050612bdf565b505050505050565b6002546040516370a0823160e01b815230600482015260009183916001600160a01b03909116906370a0823190602401602060405180830381865afa158015612d83573d6000803e3d6000fd5b505050506040513d601f19601f82011682018060405250810190612da79190613368565b612db19190613355565b6003546040516370a0823160e01b81523060048201529192506000916001600160a01b03909116906370a0823190602401602060405180830381865afa158015612dff573d6000803e3d6000fd5b505050506040513d601f19601f82011682018060405250810190612e239190613368565b9050600082118015612e355750600081115b156119a4576000612e47848484610820565b90508015612ee857600354604051630852cd8d60e31b8152600481018390526001600160a01b03909116906342966c6890602401600060405180830381600087803b158015612e9557600080fd5b505af1158015612ea9573d6000803e3d6000fd5b505060408051878152602081018590527f0ec3929061cbbbeecb325623e7d5a86c3dae11cb8a22ca45dc0972955657da25935001905060405180910390a15b50505050565b600080546001600160a01b038381166001600160a01b0319831681178455604051919092169283917f8be0079c531659141344cd1fd0a4f28419497f9722a3daafe3b4186f6b6457e09190a35050565b600081815260136020908152604080832080548251818502810185019093528083529192909190849084015b82821015612fb2576000848152602090819020604080518082019091526002850290910180546001600160a01b03168252600190810154828401529083529092019101612f6a565b50505050905060005b815181101561309a5761300a828281518110612fd957612fd961339a565b602002602001015160000151838381518110612ff757612ff761339a565b6020026020010151602001516003612a10565b81818151811061301c5761301c61339a565b6020026020010151600001516001600160a01b0316837f380d782ec118e5171a4d1e7081db076c4c94ca49c623d531763d402b094b4f248484815181106130655761306561339a565b60200260200101516020015160405161308091815260200190565b60405180910390a38061309281613381565b915050612fbb565b5060008281526013602052604081206129df915080546000825560020290600052602060002090810190610c3f91905b808211156130ef5780546001600160a01b0319168155600060018201556002016130ca565b5090565b80356001600160a01b038116811461310a57600080fd5b919050565b60006020828403121561312157600080fd5b61312a826130f3565b9392505050565b60008060006060848603121561314657600080fd5b505081359360208301359350604090920135919050565b6000806040838503121561317057600080fd5b613179836130f3565b946020939093013593505050565b60006020828403121561319957600080fd5b5035919050565b600080604083850312156131b357600080fd5b823591506131c3602084016130f3565b90509250929050565b6000806000606084860312156131e157600080fd5b6131ea846130f3565b95602085013595506040909401359392505050565b60008060006060848603121561321457600080fd5b61321d846130f3565b925061322b602085016130f3565b9150613239604085016130f3565b90509250925092565b6000806040838503121561325557600080fd5b50508035926020909101359150565b6001600160a01b03929092168252602082015260400190565b6000806040838503121561329057600080fd5b613299836130f3565b91506131c3602084016130f3565b634e487b7160e01b600052601160045260246000fd5b80820281158282048414176132d4576132d46132a7565b92915050565b808201808211156132d4576132d46132a7565b60008261330a57634e487b7160e01b600052601260045260246000fd5b500490565b6001600160a01b039384168152919092166020820152604081019190915260600190565b60006020828403121561334557600080fd5b8151801515811461312a57600080fd5b818103818111156132d4576132d46132a7565b60006020828403121561337a57600080fd5b5051919050565b600060018201613393576133936132a7565b5060010190565b634e487b7160e01b600052603260045260246000fd5b634e487b7160e01b600052603160045260246000fd5b6000816133d5576133d56132a7565b50600019019056fea264697066735822122048c21266f197dbc4674cd87940bfba13a47f715790b27aed8f0191648c51710864736f6c63430008140033",
  "linkReferences": {},
  "deployedLinkReferences": {}
}