{
  "_format": "hh-sol-artifact-1",
  "contractName": "JinbaoProtocol",
  "sourceName": "contracts/JinbaoProtocol.sol",
  "abi": [
    {
      "inputs": [],
      "stateMutability": "nonpayable",
      "type": "constructor"
    },
    {
      "inputs": [
        {
          "internalType": "address",
          "name": "target",
          "type": "address"
        }
      ],
      "name": "AddressEmptyCode",
      "type": "error"
    },
    {
      "inputs": [],
      "name": "AlreadyBound",
      "type": "error"
    },
    {
      "inputs": [],
      "name": "AlreadyExited",
      "type": "error"
    },
    {
      "inputs": [],
      "name": "BatchUpdateSizeMismatch",
      "type": "error"
    },
    {
      "inputs": [
        {
          "internalType": "address",
          "name": "implementation",
          "type": "address"
        }
      ],
      "name": "ERC1967InvalidImplementation",
      "type": "error"
    },
    {
      "inputs": [],
      "name": "ERC1967NonPayable",
      "type": "error"
    },
    {
      "inputs": [],
      "name": "Expired",
      "type": "error"
    },
    {
      "inputs": [],
      "name": "FailedCall",
      "type": "error"
    },
    {
      "inputs": [],
      "name": "InsufficientBalance",
      "type": "error"
    },
    {
      "inputs": [],
      "name": "InvalidAddress",
      "type": "error"
    },
    {
      "inputs": [],
      "name": "InvalidAmount",
      "type": "error"
    },
    {
      "inputs": [],
      "name": "InvalidCycle",
      "type": "error"
    },
    {
      "inputs": [],
      "name": "InvalidFee",
      "type": "error"
    },
    {
      "inputs": [],
      "name": "InvalidInitialization",
      "type": "error"
    },
    {
      "inputs": [],
      "name": "InvalidLevelConfig",
      "type": "error"
    },
    {
      "inputs": [],
      "name": "InvalidRate",
      "type": "error"
    },
    {
      "inputs": [],
      "name": "InvalidTax",
      "type": "error"
    },
    {
      "inputs": [],
      "name": "InvalidTeamCountUpdate",
      "type": "error"
    },
    {
      "inputs": [],
      "name": "LowLiquidity",
      "type": "error"
    },
    {
      "inputs": [],
      "name": "NoRewards",
      "type": "error"
    },
    {
      "inputs": [],
      "name": "NotActive",
      "type": "error"
    },
    {
      "inputs": [],
      "name": "NotInitializing",
      "type": "error"
    },
    {
      "inputs": [],
      "name": "NothingToRedeem",
      "type": "error"
    },
    {
      "inputs": [
        {
          "internalType": "address",
          "name": "owner",
          "type": "address"
        }
      ],
      "name": "OwnableInvalidOwner",
      "type": "error"
    },
    {
      "inputs": [
        {
          "internalType": "address",
          "name": "account",
          "type": "address"
        }
      ],
      "name": "OwnableUnauthorizedAccount",
      "type": "error"
    },
    {
      "inputs": [],
      "name": "RecursionDepthExceeded",
      "type": "error"
    },
    {
      "inputs": [],
      "name": "ReentrancyGuardReentrantCall",
      "type": "error"
    },
    {
      "inputs": [],
      "name": "SelfReference",
      "type": "error"
    },
    {
      "inputs": [],
      "name": "SumNot100",
      "type": "error"
    },
    {
      "inputs": [
        {
          "internalType": "address",
          "name": "user",
          "type": "address"
        },
        {
          "internalType": "uint256",
          "name": "expected",
          "type": "uint256"
        },
        {
          "internalType": "uint256",
          "name": "actual",
          "type": "uint256"
        }
      ],
      "name": "TeamCountMismatch",
      "type": "error"
    },
    {
      "inputs": [],
      "name": "TeamCountOverflow",
      "type": "error"
    },
    {
      "inputs": [],
      "name": "TransferFailed",
      "type": "error"
    },
    {
      "inputs": [],
      "name": "UUPSUnauthorizedCallContext",
      "type": "error"
    },
    {
      "inputs": [
        {
          "internalType": "bytes32",
          "name": "slot",
          "type": "bytes32"
        }
      ],
      "name": "UUPSUnsupportedProxiableUUID",
      "type": "error"
    },
    {
      "inputs": [],
      "name": "Unauthorized",
      "type": "error"
    },
    {
      "anonymous": false,
      "inputs": [
        {
          "indexed": false,
          "internalType": "uint256",
          "name": "usersUpdated",
          "type": "uint256"
        }
      ],
      "name": "BatchTeamCountsUpdated",
      "type": "event"
    },
    {
      "anonymous": false,
      "inputs": [
        {
          "indexed": true,
          "internalType": "address",
          "name": "user",
          "type": "address"
        },
        {
          "indexed": true,
          "internalType": "address",
          "name": "referrer",
          "type": "address"
        }
      ],
      "name": "BoundReferrer",
      "type": "event"
    },
    {
      "anonymous": false,
      "inputs": [
        {
          "indexed": false,
          "internalType": "uint256",
          "name": "mcAmount",
          "type": "uint256"
        },
        {
          "indexed": false,
          "internalType": "uint256",
          "name": "jbcBurned",
          "type": "uint256"
        }
      ],
      "name": "BuybackAndBurn",
      "type": "event"
    },
    {
      "anonymous": false,
      "inputs": [
        {
          "indexed": true,
          "internalType": "uint256",
          "name": "stakeId",
          "type": "uint256"
        },
        {
          "indexed": true,
          "internalType": "address",
          "name": "upline",
          "type": "address"
        },
        {
          "indexed": false,
          "internalType": "uint256",
          "name": "amount",
          "type": "uint256"
        }
      ],
      "name": "DifferentialRewardRecorded",
      "type": "event"
    },
    {
      "anonymous": false,
      "inputs": [
        {
          "indexed": true,
          "internalType": "uint256",
          "name": "stakeId",
          "type": "uint256"
        },
        {
          "indexed": true,
          "internalType": "address",
          "name": "upline",
          "type": "address"
        },
        {
          "indexed": false,
          "internalType": "uint256",
          "name": "amount",
          "type": "uint256"
        }
      ],
      "name": "DifferentialRewardReleased",
      "type": "event"
    },
    {
      "anonymous": false,
      "inputs": [
        {
          "indexed": false,
          "internalType": "uint256",
          "name": "direct",
          "type": "uint256"
        },
        {
          "indexed": false,
          "internalType": "uint256",
          "name": "level",
          "type": "uint256"
        },
        {
          "indexed": false,
          "internalType": "uint256",
          "name": "marketing",
          "type": "uint256"
        },
        {
          "indexed": false,
          "internalType": "uint256",
          "name": "buyback",
          "type": "uint256"
        },
        {
          "indexed": false,
          "internalType": "uint256",
          "name": "lpInjection",
          "type": "uint256"
        },
        {
          "indexed": false,
          "internalType": "uint256",
          "name": "treasury",
          "type": "uint256"
        }
      ],
      "name": "DistributionConfigUpdated",
      "type": "event"
    },
    {
      "anonymous": false,
      "inputs": [],
      "name": "EmergencyPaused",
      "type": "event"
    },
    {
      "anonymous": false,
      "inputs": [],
      "name": "EmergencyUnpaused",
      "type": "event"
    },
    {
      "anonymous": false,
      "inputs": [
        {
          "indexed": true,
          "internalType": "address",
          "name": "user",
          "type": "address"
        },
        {
          "indexed": false,
          "internalType": "uint256",
          "name": "ticketId",
          "type": "uint256"
        }
      ],
      "name": "Exited",
      "type": "event"
    },
    {
      "anonymous": false,
      "inputs": [
        {
          "indexed": true,
          "internalType": "address",
          "name": "user",
          "type": "address"
        },
        {
          "indexed": false,
          "internalType": "uint256",
          "name": "amount",
          "type": "uint256"
        }
      ],
      "name": "FeeRefunded",
      "type": "event"
    },
    {
      "anonymous": false,
      "inputs": [
        {
          "indexed": false,
          "internalType": "uint64",
          "name": "version",
          "type": "uint64"
        }
      ],
      "name": "Initialized",
      "type": "event"
    },
    {
      "anonymous": false,
      "inputs": [],
      "name": "LevelConfigsUpdated",
      "type": "event"
    },
    {
      "anonymous": false,
      "inputs": [
        {
          "indexed": false,
          "internalType": "uint256",
          "name": "amount",
          "type": "uint256"
        },
        {
          "indexed": false,
          "internalType": "uint256",
          "name": "newTotal",
          "type": "uint256"
        }
      ],
      "name": "LevelRewardPoolUpdated",
      "type": "event"
    },
    {
      "anonymous": false,
      "inputs": [
        {
          "indexed": true,
          "internalType": "address",
          "name": "to",
          "type": "address"
        },
        {
          "indexed": false,
          "internalType": "uint256",
          "name": "amount",
          "type": "uint256"
        }
      ],
      "name": "LevelRewardPoolWithdrawn",
      "type": "event"
    },
    {
      "anonymous": false,
      "inputs": [
        {
          "indexed": true,
          "internalType": "uint256",
          "name": "ticketId",
          "type": "uint256"
        },
        {
          "indexed": true,
          "internalType": "address",
          "name": "upline",
          "type": "address"
        },
        {
          "indexed": false,
          "internalType": "uint256",
          "name": "amount",
          "type": "uint256"
        }
      ],
      "name": "LevelRewardRecorded",
      "type": "event"
    },
    {
      "anonymous": false,
      "inputs": [
        {
          "indexed": true,
          "internalType": "uint256",
          "name": "ticketId",
          "type": "uint256"
        },
        {
          "indexed": true,
          "internalType": "address",
          "name": "upline",
          "type": "address"
        },
        {
          "indexed": false,
          "internalType": "uint256",
          "name": "amount",
          "type": "uint256"
        }
      ],
      "name": "LevelRewardReleased",
      "type": "event"
    },
    {
      "anonymous": false,
      "inputs": [
        {
          "indexed": false,
          "internalType": "uint256",
          "name": "mcAmount",
          "type": "uint256"
        },
        {
          "indexed": false,
          "internalType": "uint256",
          "name": "jbcAmount",
          "type": "uint256"
        }
      ],
      "name": "LiquidityAdded",
      "type": "event"
    },
    {
      "anonymous": false,
      "inputs": [
        {
          "indexed": true,
          "internalType": "address",
          "name": "user",
          "type": "address"
        },
        {
          "indexed": false,
          "internalType": "uint256",
          "name": "amount",
          "type": "uint256"
        },
        {
          "indexed": false,
          "internalType": "uint256",
          "name": "cycleDays",
          "type": "uint256"
        },
        {
          "indexed": false,
          "internalType": "uint256",
          "name": "stakeId",
          "type": "uint256"
        }
      ],
      "name": "LiquidityStaked",
      "type": "event"
    },
    {
      "anonymous": false,
      "inputs": [
        {
          "indexed": false,
          "internalType": "bool",
          "name": "enabled",
          "type": "bool"
        }
      ],
      "name": "LiquidityStatusUpdated",
      "type": "event"
    },
    {
      "anonymous": false,
      "inputs": [
        {
          "indexed": true,
          "internalType": "address",
          "name": "previousOwner",
          "type": "address"
        },
        {
          "indexed": true,
          "internalType": "address",
          "name": "newOwner",
          "type": "address"
        }
      ],
      "name": "OwnershipTransferred",
      "type": "event"
    },
    {
      "anonymous": false,
      "inputs": [
        {
          "indexed": false,
          "internalType": "bool",
          "name": "enabled",
          "type": "bool"
        }
      ],
      "name": "RedeemStatusUpdated",
      "type": "event"
    },
    {
      "anonymous": false,
      "inputs": [
        {
          "indexed": true,
          "internalType": "address",
          "name": "user",
          "type": "address"
        },
        {
          "indexed": false,
          "internalType": "uint256",
          "name": "principal",
          "type": "uint256"
        },
        {
          "indexed": false,
          "internalType": "uint256",
          "name": "fee",
          "type": "uint256"
        }
      ],
      "name": "Redeemed",
      "type": "event"
    },
    {
      "anonymous": false,
      "inputs": [
        {
          "indexed": false,
          "internalType": "uint256",
          "name": "newFee",
          "type": "uint256"
        }
      ],
      "name": "RedemptionFeeUpdated",
      "type": "event"
    },
    {
      "anonymous": false,
      "inputs": [
        {
          "indexed": true,
          "internalType": "address",
          "name": "user",
          "type": "address"
        },
        {
          "indexed": true,
          "internalType": "address",
          "name": "from",
          "type": "address"
        },
        {
          "indexed": false,
          "internalType": "uint256",
          "name": "mcAmount",
          "type": "uint256"
        },
        {
          "indexed": false,
          "internalType": "uint8",
          "name": "rewardType",
          "type": "uint8"
        },
        {
          "indexed": false,
          "internalType": "uint256",
          "name": "ticketId",
          "type": "uint256"
        }
      ],
      "name": "ReferralRewardPaid",
      "type": "event"
    },
    {
      "anonymous": false,
      "inputs": [
        {
          "indexed": true,
          "internalType": "address",
          "name": "user",
          "type": "address"
        },
        {
          "indexed": true,
          "internalType": "address",
          "name": "oldReferrer",
          "type": "address"
        },
        {
          "indexed": true,
          "internalType": "address",
          "name": "newReferrer",
          "type": "address"
        }
      ],
      "name": "ReferrerChanged",
      "type": "event"
    },
    {
      "anonymous": false,
      "inputs": [
        {
          "indexed": true,
          "internalType": "address",
          "name": "user",
          "type": "address"
        },
        {
          "indexed": false,
          "internalType": "uint256",
          "name": "amount",
          "type": "uint256"
        },
        {
          "indexed": false,
          "internalType": "uint256",
          "name": "cappedAmount",
          "type": "uint256"
        }
      ],
      "name": "RewardCapped",
      "type": "event"
    },
    {
      "anonymous": false,
      "inputs": [
        {
          "indexed": true,
          "internalType": "address",
          "name": "user",
          "type": "address"
        },
        {
          "indexed": false,
          "internalType": "uint256",
          "name": "mcAmount",
          "type": "uint256"
        },
        {
          "indexed": false,
          "internalType": "uint256",
          "name": "jbcAmount",
          "type": "uint256"
        },
        {
          "indexed": false,
          "internalType": "uint8",
          "name": "rewardType",
          "type": "uint8"
        },
        {
          "indexed": false,
          "internalType": "uint256",
          "name": "ticketId",
          "type": "uint256"
        }
      ],
      "name": "RewardClaimed",
      "type": "event"
    },
    {
      "anonymous": false,
      "inputs": [
        {
          "indexed": true,
          "internalType": "address",
          "name": "user",
          "type": "address"
        },
        {
          "indexed": false,
          "internalType": "uint256",
          "name": "amount",
          "type": "uint256"
        },
        {
          "indexed": false,
          "internalType": "uint8",
          "name": "rewardType",
          "type": "uint8"
        }
      ],
      "name": "RewardPaid",
      "type": "event"
    },
    {
      "anonymous": false,
      "inputs": [
        {
          "indexed": false,
          "internalType": "uint256",
          "name": "mcAmount",
          "type": "uint256"
        },
        {
          "indexed": false,
          "internalType": "uint256",
          "name": "jbcAmount",
          "type": "uint256"
        }
      ],
      "name": "SwapReservesWithdrawn",
      "type": "event"
    },
    {
      "anonymous": false,
      "inputs": [
        {
          "indexed": false,
          "internalType": "uint256",
          "name": "buyTax",
          "type": "uint256"
        },
        {
          "indexed": false,
          "internalType": "uint256",
          "name": "sellTax",
          "type": "uint256"
        }
      ],
      "name": "SwapTaxesUpdated",
      "type": "event"
    },
    {
      "anonymous": false,
      "inputs": [
        {
          "indexed": true,
          "internalType": "address",
          "name": "user",
          "type": "address"
        },
        {
          "indexed": false,
          "internalType": "uint256",
          "name": "jbcAmount",
          "type": "uint256"
        },
        {
          "indexed": false,
          "internalType": "uint256",
          "name": "mcAmount",
          "type": "uint256"
        },
        {
          "indexed": false,
          "internalType": "uint256",
          "name": "tax",
          "type": "uint256"
        }
      ],
      "name": "SwappedJBCToMC",
      "type": "event"
    },
    {
      "anonymous": false,
      "inputs": [
        {
          "indexed": true,
          "internalType": "address",
          "name": "user",
          "type": "address"
        },
        {
          "indexed": false,
          "internalType": "uint256",
          "name": "mcAmount",
          "type": "uint256"
        },
        {
          "indexed": false,
          "internalType": "uint256",
          "name": "jbcAmount",
          "type": "uint256"
        },
        {
          "indexed": false,
          "internalType": "uint256",
          "name": "tax",
          "type": "uint256"
        }
      ],
      "name": "SwappedMCToJBC",
      "type": "event"
    },
    {
      "anonymous": false,
      "inputs": [
        {
          "indexed": true,
          "internalType": "uint256",
          "name": "stakeId",
          "type": "uint256"
        },
        {
          "indexed": true,
          "internalType": "address",
          "name": "upline",
          "type": "address"
        },
        {
          "indexed": false,
          "internalType": "uint256",
          "name": "amount",
          "type": "uint256"
        },
        {
          "indexed": false,
          "internalType": "uint256",
          "name": "teamCount",
          "type": "uint256"
        }
      ],
      "name": "TeamBasedRewardCalculated",
      "type": "event"
    },
    {
      "anonymous": false,
      "inputs": [
        {
          "indexed": true,
          "internalType": "address",
          "name": "user",
          "type": "address"
        },
        {
          "indexed": false,
          "internalType": "uint256",
          "name": "oldCount",
          "type": "uint256"
        },
        {
          "indexed": false,
          "internalType": "uint256",
          "name": "newCount",
          "type": "uint256"
        }
      ],
      "name": "TeamCountUpdated",
      "type": "event"
    },
    {
      "anonymous": false,
      "inputs": [
        {
          "indexed": true,
          "internalType": "address",
          "name": "user",
          "type": "address"
        },
        {
          "indexed": false,
          "internalType": "uint256",
          "name": "expected",
          "type": "uint256"
        },
        {
          "indexed": false,
          "internalType": "uint256",
          "name": "actual",
          "type": "uint256"
        }
      ],
      "name": "TeamCountValidationFailed",
      "type": "event"
    },
    {
      "anonymous": false,
      "inputs": [
        {
          "indexed": true,
          "internalType": "address",
          "name": "user",
          "type": "address"
        },
        {
          "indexed": false,
          "internalType": "uint256",
          "name": "ticketId",
          "type": "uint256"
        },
        {
          "indexed": false,
          "internalType": "uint256",
          "name": "amount",
          "type": "uint256"
        }
      ],
      "name": "TicketExpired",
      "type": "event"
    },
    {
      "anonymous": false,
      "inputs": [
        {
          "indexed": false,
          "internalType": "uint256",
          "name": "newDuration",
          "type": "uint256"
        }
      ],
      "name": "TicketFlexibilityDurationUpdated",
      "type": "event"
    },
    {
      "anonymous": false,
      "inputs": [
        {
          "indexed": true,
          "internalType": "address",
          "name": "user",
          "type": "address"
        },
        {
          "indexed": false,
          "internalType": "uint256",
          "name": "amount",
          "type": "uint256"
        },
        {
          "indexed": false,
          "internalType": "uint256",
          "name": "ticketId",
          "type": "uint256"
        }
      ],
      "name": "TicketPurchased",
      "type": "event"
    },
    {
      "anonymous": false,
      "inputs": [
        {
          "indexed": false,
          "internalType": "address",
          "name": "token",
          "type": "address"
        },
        {
          "indexed": false,
          "internalType": "address",
          "name": "to",
          "type": "address"
        },
        {
          "indexed": false,
          "internalType": "uint256",
          "name": "amount",
          "type": "uint256"
        }
      ],
      "name": "TokensRescued",
      "type": "event"
    },
    {
      "anonymous": false,
      "inputs": [
        {
          "indexed": true,
          "internalType": "address",
          "name": "implementation",
          "type": "address"
        }
      ],
      "name": "Upgraded",
      "type": "event"
    },
    {
      "anonymous": false,
      "inputs": [
        {
          "indexed": true,
          "internalType": "address",
          "name": "user",
          "type": "address"
        },
        {
          "indexed": false,
          "internalType": "uint256",
          "name": "activeDirects",
          "type": "uint256"
        },
        {
          "indexed": false,
          "internalType": "uint256",
          "name": "totalRevenue",
          "type": "uint256"
        },
        {
          "indexed": false,
          "internalType": "uint256",
          "name": "currentCap",
          "type": "uint256"
        },
        {
          "indexed": false,
          "internalType": "uint256",
          "name": "refundFee",
          "type": "uint256"
        }
      ],
      "name": "UserDataUpdated",
      "type": "event"
    },
    {
      "anonymous": false,
      "inputs": [
        {
          "indexed": false,
          "internalType": "address",
          "name": "marketing",
          "type": "address"
        },
        {
          "indexed": false,
          "internalType": "address",
          "name": "treasury",
          "type": "address"
        },
        {
          "indexed": false,
          "internalType": "address",
          "name": "lpInjection",
          "type": "address"
        },
        {
          "indexed": false,
          "internalType": "address",
          "name": "buyback",
          "type": "address"
        }
      ],
      "name": "WalletsUpdated",
      "type": "event"
    },
    {
      "inputs": [],
      "name": "MAX_PRICE_IMPACT",
      "outputs": [
        {
          "internalType": "uint256",
          "name": "",
          "type": "uint256"
        }
      ],
      "stateMutability": "view",
      "type": "function"
    },
    {
      "inputs": [],
      "name": "MIN_LIQUIDITY",
      "outputs": [
        {
          "internalType": "uint256",
          "name": "",
          "type": "uint256"
        }
      ],
      "stateMutability": "view",
      "type": "function"
    },
    {
      "inputs": [],
      "name": "REWARD_DIFFERENTIAL",
      "outputs": [
        {
          "internalType": "uint8",
          "name": "",
          "type": "uint8"
        }
      ],
      "stateMutability": "view",
      "type": "function"
    },
    {
      "inputs": [],
      "name": "REWARD_DIRECT",
      "outputs": [
        {
          "internalType": "uint8",
          "name": "",
          "type": "uint8"
        }
      ],
      "stateMutability": "view",
      "type": "function"
    },
    {
      "inputs": [],
      "name": "REWARD_DYNAMIC",
      "outputs": [
        {
          "internalType": "uint8",
          "name": "",
          "type": "uint8"
        }
      ],
      "stateMutability": "view",
      "type": "function"
    },
    {
      "inputs": [],
      "name": "REWARD_LEVEL",
      "outputs": [
        {
          "internalType": "uint8",
          "name": "",
          "type": "uint8"
        }
      ],
      "stateMutability": "view",
      "type": "function"
    },
    {
      "inputs": [],
      "name": "REWARD_STATIC",
      "outputs": [
        {
          "internalType": "uint8",
          "name": "",
          "type": "uint8"
        }
      ],
      "stateMutability": "view",
      "type": "function"
    },
    {
      "inputs": [],
      "name": "SECONDS_IN_UNIT",
      "outputs": [
        {
          "internalType": "uint256",
          "name": "",
          "type": "uint256"
        }
      ],
      "stateMutability": "view",
      "type": "function"
    },
    {
      "inputs": [],
      "name": "UPGRADE_INTERFACE_VERSION",
      "outputs": [
        {
          "internalType": "string",
          "name": "",
          "type": "string"
        }
      ],
      "stateMutability": "view",
      "type": "function"
    },
    {
      "inputs": [
        {
          "internalType": "uint256",
          "name": "mcAmount",
          "type": "uint256"
        },
        {
          "internalType": "uint256",
          "name": "jbcAmount",
          "type": "uint256"
        }
      ],
      "name": "addLiquidity",
      "outputs": [],
      "stateMutability": "nonpayable",
      "type": "function"
    },
    {
      "inputs": [
        {
          "internalType": "address",
          "name": "user",
          "type": "address"
        },
        {
          "internalType": "address",
          "name": "newReferrer",
          "type": "address"
        }
      ],
      "name": "adminSetReferrer",
      "outputs": [],
      "stateMutability": "nonpayable",
      "type": "function"
    },
    {
      "inputs": [
        {
          "internalType": "address",
          "name": "user",
          "type": "address"
        },
        {
          "internalType": "bool",
          "name": "updateActiveDirects",
          "type": "bool"
        },
        {
          "internalType": "uint256",
          "name": "newActiveDirects",
          "type": "uint256"
        },
        {
          "internalType": "bool",
          "name": "updateTeamCount",
          "type": "bool"
        },
        {
          "internalType": "uint256",
          "name": "newTeamCount",
          "type": "uint256"
        },
        {
          "internalType": "bool",
          "name": "updateTotalRevenue",
          "type": "bool"
        },
        {
          "internalType": "uint256",
          "name": "newTotalRevenue",
          "type": "uint256"
        },
        {
          "internalType": "bool",
          "name": "updateCurrentCap",
          "type": "bool"
        },
        {
          "internalType": "uint256",
          "name": "newCurrentCap",
          "type": "uint256"
        },
        {
          "internalType": "bool",
          "name": "updateRefundFee",
          "type": "bool"
        },
        {
          "internalType": "uint256",
          "name": "newRefundFee",
          "type": "uint256"
        }
      ],
      "name": "adminUpdateUserData",
      "outputs": [],
      "stateMutability": "nonpayable",
      "type": "function"
    },
    {
      "inputs": [
        {
          "internalType": "address[]",
          "name": "users",
          "type": "address[]"
        },
        {
          "internalType": "uint256[]",
          "name": "counts",
          "type": "uint256[]"
        },
        {
          "internalType": "uint256[]",
          "name": "volumes",
          "type": "uint256[]"
        }
      ],
      "name": "batchUpdateUserStats",
      "outputs": [],
      "stateMutability": "nonpayable",
      "type": "function"
    },
    {
      "inputs": [
        {
          "internalType": "address",
          "name": "_referrer",
          "type": "address"
        }
      ],
      "name": "bindReferrer",
      "outputs": [],
      "stateMutability": "nonpayable",
      "type": "function"
    },
    {
      "inputs": [
        {
          "internalType": "uint256",
          "name": "amount",
          "type": "uint256"
        }
      ],
      "name": "buyTicket",
      "outputs": [],
      "stateMutability": "nonpayable",
      "type": "function"
    },
    {
      "inputs": [],
      "name": "buybackPercent",
      "outputs": [
        {
          "internalType": "uint256",
          "name": "",
          "type": "uint256"
        }
      ],
      "stateMutability": "view",
      "type": "function"
    },
    {
      "inputs": [],
      "name": "buybackWallet",
      "outputs": [
        {
          "internalType": "address",
          "name": "",
          "type": "address"
        }
      ],
      "stateMutability": "view",
      "type": "function"
    },
    {
      "inputs": [],
      "name": "claimRewards",
      "outputs": [],
      "stateMutability": "nonpayable",
      "type": "function"
    },
    {
      "inputs": [
        {
          "internalType": "address",
          "name": "",
          "type": "address"
        },
        {
          "internalType": "uint256",
          "name": "",
          "type": "uint256"
        }
      ],
      "name": "directReferrals",
      "outputs": [
        {
          "internalType": "address",
          "name": "",
          "type": "address"
        }
      ],
      "stateMutability": "view",
      "type": "function"
    },
    {
      "inputs": [],
      "name": "directRewardPercent",
      "outputs": [
        {
          "internalType": "uint256",
          "name": "",
          "type": "uint256"
        }
      ],
      "stateMutability": "view",
      "type": "function"
    },
    {
      "inputs": [],
      "name": "emergencyPause",
      "outputs": [],
      "stateMutability": "nonpayable",
      "type": "function"
    },
    {
      "inputs": [],
      "name": "emergencyPaused",
      "outputs": [
        {
          "internalType": "bool",
          "name": "",
          "type": "bool"
        }
      ],
      "stateMutability": "view",
      "type": "function"
    },
    {
      "inputs": [],
      "name": "emergencyUnpause",
      "outputs": [],
      "stateMutability": "nonpayable",
      "type": "function"
    },
    {
      "inputs": [
        {
          "internalType": "address",
          "name": "user",
          "type": "address"
        }
      ],
      "name": "getDirectReferrals",
      "outputs": [
        {
          "internalType": "address[]",
          "name": "",
          "type": "address[]"
        }
      ],
      "stateMutability": "view",
      "type": "function"
    },
    {
      "inputs": [
        {
          "internalType": "uint256",
          "name": "activeDirects",
          "type": "uint256"
        }
      ],
      "name": "getLevelRewardLayers",
      "outputs": [
        {
          "internalType": "uint256",
          "name": "",
          "type": "uint256"
        }
      ],
      "stateMutability": "pure",
      "type": "function"
    },
    {
      "inputs": [
        {
          "internalType": "address",
          "name": "_mcToken",
          "type": "address"
        },
        {
          "internalType": "address",
          "name": "_jbcToken",
          "type": "address"
        },
        {
          "internalType": "address",
          "name": "_marketing",
          "type": "address"
        },
        {
          "internalType": "address",
          "name": "_treasury",
          "type": "address"
        },
        {
          "internalType": "address",
          "name": "_lpInjection",
          "type": "address"
        },
        {
          "internalType": "address",
          "name": "_buybackWallet",
          "type": "address"
        }
      ],
      "name": "initialize",
      "outputs": [],
      "stateMutability": "nonpayable",
      "type": "function"
    },
    {
      "inputs": [],
      "name": "jbcToken",
      "outputs": [
        {
          "internalType": "contract IJBC",
          "name": "",
          "type": "address"
        }
      ],
      "stateMutability": "view",
      "type": "function"
    },
    {
      "inputs": [],
      "name": "lastBurnTime",
      "outputs": [
        {
          "internalType": "uint256",
          "name": "",
          "type": "uint256"
        }
      ],
      "stateMutability": "view",
      "type": "function"
    },
    {
      "inputs": [
        {
          "internalType": "uint256",
          "name": "",
          "type": "uint256"
        }
      ],
      "name": "levelConfigs",
      "outputs": [
        {
          "internalType": "uint256",
          "name": "minDirects",
          "type": "uint256"
        },
        {
          "internalType": "uint256",
          "name": "level",
          "type": "uint256"
        },
        {
          "internalType": "uint256",
          "name": "percent",
          "type": "uint256"
        }
      ],
      "stateMutability": "view",
      "type": "function"
    },
    {
      "inputs": [],
      "name": "levelRewardPercent",
      "outputs": [
        {
          "internalType": "uint256",
          "name": "",
          "type": "uint256"
        }
      ],
      "stateMutability": "view",
      "type": "function"
    },
    {
      "inputs": [],
      "name": "levelRewardPool",
      "outputs": [
        {
          "internalType": "uint256",
          "name": "",
          "type": "uint256"
        }
      ],
      "stateMutability": "view",
      "type": "function"
    },
    {
      "inputs": [],
      "name": "liquidityEnabled",
      "outputs": [
        {
          "internalType": "bool",
          "name": "",
          "type": "bool"
        }
      ],
      "stateMutability": "view",
      "type": "function"
    },
    {
      "inputs": [],
      "name": "lpInjectionPercent",
      "outputs": [
        {
          "internalType": "uint256",
          "name": "",
          "type": "uint256"
        }
      ],
      "stateMutability": "view",
      "type": "function"
    },
    {
      "inputs": [],
      "name": "lpInjectionWallet",
      "outputs": [
        {
          "internalType": "address",
          "name": "",
          "type": "address"
        }
      ],
      "stateMutability": "view",
      "type": "function"
    },
    {
      "inputs": [],
      "name": "marketingPercent",
      "outputs": [
        {
          "internalType": "uint256",
          "name": "",
          "type": "uint256"
        }
      ],
      "stateMutability": "view",
      "type": "function"
    },
    {
      "inputs": [],
      "name": "marketingWallet",
      "outputs": [
        {
          "internalType": "address",
          "name": "",
          "type": "address"
        }
      ],
      "stateMutability": "view",
      "type": "function"
    },
    {
      "inputs": [],
      "name": "mcToken",
      "outputs": [
        {
          "internalType": "contract IERC20",
          "name": "",
          "type": "address"
        }
      ],
      "stateMutability": "view",
      "type": "function"
    },
    {
      "inputs": [],
      "name": "nextStakeId",
      "outputs": [
        {
          "internalType": "uint256",
          "name": "",
          "type": "uint256"
        }
      ],
      "stateMutability": "view",
      "type": "function"
    },
    {
      "inputs": [],
      "name": "nextTicketId",
      "outputs": [
        {
          "internalType": "uint256",
          "name": "",
          "type": "uint256"
        }
      ],
      "stateMutability": "view",
      "type": "function"
    },
    {
      "inputs": [],
      "name": "owner",
      "outputs": [
        {
          "internalType": "address",
          "name": "",
          "type": "address"
        }
      ],
      "stateMutability": "view",
      "type": "function"
    },
    {
      "inputs": [],
      "name": "priceOracle",
      "outputs": [
        {
          "internalType": "address",
          "name": "",
          "type": "address"
        }
      ],
      "stateMutability": "view",
      "type": "function"
    },
    {
      "inputs": [],
      "name": "proxiableUUID",
      "outputs": [
        {
          "internalType": "bytes32",
          "name": "",
          "type": "bytes32"
        }
      ],
      "stateMutability": "view",
      "type": "function"
    },
    {
      "inputs": [],
      "name": "redeem",
      "outputs": [],
      "stateMutability": "nonpayable",
      "type": "function"
    },
    {
      "inputs": [],
      "name": "redeemEnabled",
      "outputs": [
        {
          "internalType": "bool",
          "name": "",
          "type": "bool"
        }
      ],
      "stateMutability": "view",
      "type": "function"
    },
    {
      "inputs": [
        {
          "internalType": "uint256",
          "name": "stakeId",
          "type": "uint256"
        }
      ],
      "name": "redeemStake",
      "outputs": [],
      "stateMutability": "nonpayable",
      "type": "function"
    },
    {
      "inputs": [],
      "name": "redemptionFeePercent",
      "outputs": [
        {
          "internalType": "uint256",
          "name": "",
          "type": "uint256"
        }
      ],
      "stateMutability": "view",
      "type": "function"
    },
    {
      "inputs": [],
      "name": "renounceOwnership",
      "outputs": [],
      "stateMutability": "nonpayable",
      "type": "function"
    },
    {
      "inputs": [
        {
          "internalType": "address",
          "name": "_token",
          "type": "address"
        },
        {
          "internalType": "address",
          "name": "_to",
          "type": "address"
        },
        {
          "internalType": "uint256",
          "name": "_amount",
          "type": "uint256"
        }
      ],
      "name": "rescueTokens",
      "outputs": [],
      "stateMutability": "nonpayable",
      "type": "function"
    },
    {
      "inputs": [
        {
          "internalType": "uint256",
          "name": "_direct",
          "type": "uint256"
        },
        {
          "internalType": "uint256",
          "name": "_level",
          "type": "uint256"
        },
        {
          "internalType": "uint256",
          "name": "_marketing",
          "type": "uint256"
        },
        {
          "internalType": "uint256",
          "name": "_buyback",
          "type": "uint256"
        },
        {
          "internalType": "uint256",
          "name": "_lpInjection",
          "type": "uint256"
        },
        {
          "internalType": "uint256",
          "name": "_treasury",
          "type": "uint256"
        }
      ],
      "name": "setDistributionConfig",
      "outputs": [],
      "stateMutability": "nonpayable",
      "type": "function"
    },
    {
      "inputs": [
        {
          "internalType": "bool",
          "name": "_liquidityEnabled",
          "type": "bool"
        },
        {
          "internalType": "bool",
          "name": "_redeemEnabled",
          "type": "bool"
        }
      ],
      "name": "setOperationalStatus",
      "outputs": [],
      "stateMutability": "nonpayable",
      "type": "function"
    },
    {
      "inputs": [
        {
          "internalType": "uint256",
          "name": "_fee",
          "type": "uint256"
        }
      ],
      "name": "setRedemptionFeePercent",
      "outputs": [],
      "stateMutability": "nonpayable",
      "type": "function"
    },
    {
      "inputs": [
        {
          "internalType": "uint256",
          "name": "_buyTax",
          "type": "uint256"
        },
        {
          "internalType": "uint256",
          "name": "_sellTax",
          "type": "uint256"
        }
      ],
      "name": "setSwapTaxes",
      "outputs": [],
      "stateMutability": "nonpayable",
      "type": "function"
    },
    {
      "inputs": [
        {
          "internalType": "uint256",
          "name": "_duration",
          "type": "uint256"
        }
      ],
      "name": "setTicketFlexibilityDuration",
      "outputs": [],
      "stateMutability": "nonpayable",
      "type": "function"
    },
    {
      "inputs": [
        {
          "internalType": "address",
          "name": "_marketing",
          "type": "address"
        },
        {
          "internalType": "address",
          "name": "_treasury",
          "type": "address"
        },
        {
          "internalType": "address",
          "name": "_lpInjection",
          "type": "address"
        },
        {
          "internalType": "address",
          "name": "_buyback",
          "type": "address"
        }
      ],
      "name": "setWallets",
      "outputs": [],
      "stateMutability": "nonpayable",
      "type": "function"
    },
    {
      "inputs": [
        {
          "internalType": "uint256",
          "name": "amount",
          "type": "uint256"
        },
        {
          "internalType": "uint256",
          "name": "cycleDays",
          "type": "uint256"
        }
      ],
      "name": "stakeLiquidity",
      "outputs": [],
      "stateMutability": "nonpayable",
      "type": "function"
    },
    {
      "inputs": [
        {
          "internalType": "uint256",
          "name": "",
          "type": "uint256"
        }
      ],
      "name": "stakeOwner",
      "outputs": [
        {
          "internalType": "address",
          "name": "",
          "type": "address"
        }
      ],
      "stateMutability": "view",
      "type": "function"
    },
    {
      "inputs": [
        {
          "internalType": "uint256",
          "name": "",
          "type": "uint256"
        },
        {
          "internalType": "uint256",
          "name": "",
          "type": "uint256"
        }
      ],
      "name": "stakePendingRewards",
      "outputs": [
        {
          "internalType": "address",
          "name": "upline",
          "type": "address"
        },
        {
          "internalType": "uint256",
          "name": "amount",
          "type": "uint256"
        }
      ],
      "stateMutability": "view",
      "type": "function"
    },
    {
      "inputs": [],
      "name": "swapBuyTax",
      "outputs": [
        {
          "internalType": "uint256",
          "name": "",
          "type": "uint256"
        }
      ],
      "stateMutability": "view",
      "type": "function"
    },
    {
      "inputs": [
        {
          "internalType": "uint256",
          "name": "jbcAmount",
          "type": "uint256"
        }
      ],
      "name": "swapJBCToMC",
      "outputs": [],
      "stateMutability": "nonpayable",
      "type": "function"
    },
    {
      "inputs": [
        {
          "internalType": "uint256",
          "name": "mcAmount",
          "type": "uint256"
        }
      ],
      "name": "swapMCToJBC",
      "outputs": [],
      "stateMutability": "nonpayable",
      "type": "function"
    },
    {
      "inputs": [],
      "name": "swapReserveJBC",
      "outputs": [
        {
          "internalType": "uint256",
          "name": "",
          "type": "uint256"
        }
      ],
      "stateMutability": "view",
      "type": "function"
    },
    {
      "inputs": [],
      "name": "swapReserveMC",
      "outputs": [
        {
          "internalType": "uint256",
          "name": "",
          "type": "uint256"
        }
      ],
      "stateMutability": "view",
      "type": "function"
    },
    {
      "inputs": [],
      "name": "swapSellTax",
      "outputs": [
        {
          "internalType": "uint256",
          "name": "",
          "type": "uint256"
        }
      ],
      "stateMutability": "view",
      "type": "function"
    },
    {
      "inputs": [],
      "name": "ticketFlexibilityDuration",
      "outputs": [
        {
          "internalType": "uint256",
          "name": "",
          "type": "uint256"
        }
      ],
      "stateMutability": "view",
      "type": "function"
    },
    {
      "inputs": [
        {
          "internalType": "uint256",
          "name": "",
          "type": "uint256"
        }
      ],
      "name": "ticketOwner",
      "outputs": [
        {
          "internalType": "address",
          "name": "",
          "type": "address"
        }
      ],
      "stateMutability": "view",
      "type": "function"
    },
    {
      "inputs": [
        {
          "internalType": "uint256",
          "name": "",
          "type": "uint256"
        },
        {
          "internalType": "uint256",
          "name": "",
          "type": "uint256"
        }
      ],
      "name": "ticketPendingRewards",
      "outputs": [
        {
          "internalType": "address",
          "name": "upline",
          "type": "address"
        },
        {
          "internalType": "uint256",
          "name": "amount",
          "type": "uint256"
        }
      ],
      "stateMutability": "view",
      "type": "function"
    },
    {
      "inputs": [
        {
          "internalType": "address",
          "name": "newOwner",
          "type": "address"
        }
      ],
      "name": "transferOwnership",
      "outputs": [],
      "stateMutability": "nonpayable",
      "type": "function"
    },
    {
      "inputs": [],
      "name": "treasuryPercent",
      "outputs": [
        {
          "internalType": "uint256",
          "name": "",
          "type": "uint256"
        }
      ],
      "stateMutability": "view",
      "type": "function"
    },
    {
      "inputs": [],
      "name": "treasuryWallet",
      "outputs": [
        {
          "internalType": "address",
          "name": "",
          "type": "address"
        }
      ],
      "stateMutability": "view",
      "type": "function"
    },
    {
      "inputs": [
        {
          "internalType": "address",
          "name": "newImplementation",
          "type": "address"
        },
        {
          "internalType": "bytes",
          "name": "data",
          "type": "bytes"
        }
      ],
      "name": "upgradeToAndCall",
      "outputs": [],
      "stateMutability": "payable",
      "type": "function"
    },
    {
      "inputs": [
        {
          "internalType": "address",
          "name": "",
          "type": "address"
        }
      ],
      "name": "userInfo",
      "outputs": [
        {
          "internalType": "address",
          "name": "referrer",
          "type": "address"
        },
        {
          "internalType": "uint256",
          "name": "activeDirects",
          "type": "uint256"
        },
        {
          "internalType": "uint256",
          "name": "teamCount",
          "type": "uint256"
        },
        {
          "internalType": "uint256",
          "name": "totalRevenue",
          "type": "uint256"
        },
        {
          "internalType": "uint256",
          "name": "currentCap",
          "type": "uint256"
        },
        {
          "internalType": "bool",
          "name": "isActive",
          "type": "bool"
        },
        {
          "internalType": "uint256",
          "name": "refundFeeAmount",
          "type": "uint256"
        },
        {
          "internalType": "uint256",
          "name": "teamTotalVolume",
          "type": "uint256"
        },
        {
          "internalType": "uint256",
          "name": "teamTotalCap",
          "type": "uint256"
        },
        {
          "internalType": "uint256",
          "name": "maxTicketAmount",
          "type": "uint256"
        },
        {
          "internalType": "uint256",
          "name": "maxSingleTicketAmount",
          "type": "uint256"
        }
      ],
      "stateMutability": "view",
      "type": "function"
    },
    {
      "inputs": [
        {
          "internalType": "address",
          "name": "",
          "type": "address"
        },
        {
          "internalType": "uint256",
          "name": "",
          "type": "uint256"
        }
      ],
      "name": "userStakes",
      "outputs": [
        {
          "internalType": "uint256",
          "name": "id",
          "type": "uint256"
        },
        {
          "internalType": "uint256",
          "name": "amount",
          "type": "uint256"
        },
        {
          "internalType": "uint256",
          "name": "startTime",
          "type": "uint256"
        },
        {
          "internalType": "uint256",
          "name": "cycleDays",
          "type": "uint256"
        },
        {
          "internalType": "bool",
          "name": "active",
          "type": "bool"
        },
        {
          "internalType": "uint256",
          "name": "paid",
          "type": "uint256"
        }
      ],
      "stateMutability": "view",
      "type": "function"
    },
    {
      "inputs": [
        {
          "internalType": "address",
          "name": "",
          "type": "address"
        }
      ],
      "name": "userTicket",
      "outputs": [
        {
          "internalType": "uint256",
          "name": "ticketId",
          "type": "uint256"
        },
        {
          "internalType": "uint256",
          "name": "amount",
          "type": "uint256"
        },
        {
          "internalType": "uint256",
          "name": "purchaseTime",
          "type": "uint256"
        },
        {
          "internalType": "bool",
          "name": "exited",
          "type": "bool"
        }
      ],
      "stateMutability": "view",
      "type": "function"
    },
    {
      "inputs": [
        {
          "internalType": "address",
          "name": "_to",
          "type": "address"
        },
        {
          "internalType": "uint256",
          "name": "_amount",
          "type": "uint256"
        }
      ],
      "name": "withdrawLevelRewardPool",
      "outputs": [],
      "stateMutability": "nonpayable",
      "type": "function"
    },
    {
      "inputs": [
        {
          "internalType": "address",
          "name": "_toMC",
          "type": "address"
        },
        {
          "internalType": "uint256",
          "name": "_amountMC",
          "type": "uint256"
        },
        {
          "internalType": "address",
          "name": "_toJBC",
          "type": "address"
        },
        {
          "internalType": "uint256",
          "name": "_amountJBC",
          "type": "uint256"
        }
      ],
      "name": "withdrawSwapReserves",
      "outputs": [],
      "stateMutability": "nonpayable",
      "type": "function"
    }
  ],
  "bytecode": "0x60a08060405234620000d157306080527ff0c57e16840df040f15088dc2f81fe391c3923bec73e23a9662efc9c229c6a009081549060ff8260401c16620000c257506001600160401b036002600160401b0319828216016200007c575b604051615fd19081620000d782396080518181816126890152612a680152f35b6001600160401b031990911681179091556040519081527fc7f505b2f371ae2175ee4913f4499e1f2633a7b5936321eed1cdaeb6115181d290602090a13880806200005c565b63f92ee8a960e01b8152600490fd5b600080fdfe6080604052600436101561001257600080fd5b6000803560e01c806301d62efb14613c7557806304ef9d5814613c5757806304f618cb14613afc57806305ad393514613aa15780630a5c4567146138435780630e2be2101461382757806310ff994d146133205780631427f616146133045780631788513c146132db578063182c84cc146132b45780631959a002146132025780631d0dac76146131e457806321b77d63146131c057806321f483d3146131785780632630c12f1461314b57806327c830a91461312857806327f082f41461310a578063372500ab146130e95780633dbd46bd146130b65780634626402b1461308d578063488b5d97146130715780634a4e3bd5146130275780634ea4c6b314612c205780634f1ef286146129ed57806351858e27146129a057806352778b05146126e157806352d1902d146126765780636031a52f1461265857806366bb335e146124df57806367dd74ca14611caa5780636839b5fa14611c8d5780636dd6682714611c6f578063715018a614611c1657806375506c9614611bf857806375f0a87414611bcf57806377a2a54014611bb1578063813380cd14611b8357806383672f3e14611a525780638710bcaa146119f157806388481b61146119d557806388fd4d33146119ac5780638a859a85146119905780638c0eaa48146119745780638da5cb5b1461193e57806390b0eb51146118ee5780639370b080146118d057806395253992146118a957806399b6024d146117e35780639cd441da1461169f5780639d99eca414611651578063a2af92261461161e578063ac8f50aa146115c6578063ad3cb1cc14611521578063b048a4bb146114fe578063b5d5b5fa14611470578063b759936b14611452578063bd594dcf14611434578063be040fb014610cd2578063c2ff12fc14610c9f578063cc2a9a5b14610a8c578063ccf6194414610a6e578063cea9d26f14610904578063ceaa366d146108e6578063d0f164701461085c578063d2c8e0e5146107ad578063d2f8253614610787578063d4f0014214610600578063d7edbc0c14610474578063d8020a1814610456578063deab8aea1461042d578063dec7fa3b1461040f578063e3067449146103f1578063e4412f68146103d3578063ece71266146103855763f2fde38b1461035657600080fd5b346103825760203660031901126103825761037f610372613d2a565b61037a6149f4565b614992565b80f35b80fd5b5034610382576020366003190112610382577fc7f6975dcffc536e6e57dd1d1dea810fff534a70563baf2d6f977b119bd00e1b60206004356103c56149f4565b80600c55604051908152a180f35b50346103825780600319360112610382576020600954604051908152f35b50346103825780600319360112610382576020601b54604051908152f35b50346103825780600319360112610382576020600c54604051908152f35b50346103825780600319360112610382576005546040516001600160a01b039091168152602090f35b50346103825780600319360112610382576020600854604051908152f35b5034610382576060366003190112610382576001600160401b03906004358281116105fc576104a7903690600401613e80565b90926024358181116105f8576104c1903690600401613e80565b90916044359081116105f4576104db903690600401613e80565b90926104e56149f4565b8285148015906105ea575b6105d857855b85811061052c57867f9c03d1f6ba485b6cf0a120117d651729467751d3079318d05171b6f389f6bf4b602088604051908152a180f35b8087600080516020615e5c833981519152604088816105b961057b8f988e60019a898f8f8f906105618761059794819461496e565b6001600160a01b039b90358c61058061057b868b8b61496e565b61497e565b1686526002600f9c8d9760209e8f5220015561496e565b3590886105a861057b87878761496e565b168c5287526007898c20015561496e565b906105c5878c8b61496e565b359084519687528601521692a2016104f6565b60405163980a3f3160e01b8152600490fd5b50818514156104f0565b8480fd5b8380fd5b5080fd5b50346103825760803660031901126103825761061a613d2a565b60243590610626613d56565b82606435926106336149f4565b81610709575b505081610663575b50600080516020615ebc8339815191529160409182519182526020820152a180f35b916020826106a39461067782601854613fc4565b60185560018060a01b0360015416908760405180988195829463a9059cbb60e01b845260048401613e49565b03925af19182156106fe57600080516020615ebc833981519152936040936106cf575b50915091610641565b6106f09060203d6020116106f7575b6106e88183613def565b810190613f34565b50386106c6565b503d6106de565b6040513d86823e3d90fd5b8160209161071c61074794601754613fc4565b60175560018060a01b03885416908860405180968195829463a9059cbb60e01b845260048401613e49565b03925af1801561077c5761075d575b8390610639565b6107759060203d6020116106f7576106e88183613def565b5038610756565b6040513d87823e3d90fd5b5034610382578060031936011261038257602060ff60165460081c166040519015158152f35b50346103825760209081600319360112610382576001600160a01b039190826107d4613d2a565b168152601282526040812090604051808484549182815201908194845285842090845b818110610846575050508161080d910382613def565b6040519380850191818652518092526040850193925b8281106108305785850386f35b8351871685529381019392810192600101610823565b82548916845292870192600192830192016107f7565b50346103825760c0366003190112610382577f66682b276e4cd1a4e1f68b55b1143766c5332f472eb593cf2a70a25d9d5d991760c060043560a4356084356064356044356024356108ab6149f4565b8560065580600755816008558260095583600a5584600b55604051958652602086015260408501526060840152608083015260a0820152a180f35b50346103825780600319360112610382576020600a54604051908152f35b50346103825760603660031901126103825761091e613d2a565b610926613d40565b604435916109326149f4565b83546001600160a01b038281169491811685141580610a60575b15610a1b578316156109e2576020604051809563a9059cbb60e01b825281888161097a878a60048401613e49565b03925af190811561077c577f77023e19c7343ad491fd706c36335ca0e738340a91f29b1fd81e2673d44896c4946109bd926109c3575b5060405193849384613f4c565b0390a180f35b6109db9060203d6020116106f7576106e88183613def565b50386109b0565b60405162461bcd60e51b8152602060048201526011602482015270125b9d985b1a59081c9958da5c1a595b9d607a1b6044820152606490fd5b60405162461bcd60e51b815260206004820152601d60248201527f43616e6e6f74207265736375652070726f746f636f6c20746f6b656e730000006044820152606490fd5b50806001541685141561094c565b50346103825780600319360112610382576020600654604051908152f35b50346103825760c036600319011261038257610aa6613d2a565b610aae613d40565b610ab6613d56565b610abe613d6c565b916001600160a01b0360843581811690819003610c9a5760a43592828416809403610c9a57600080516020615f7c83398151915295865460ff8160401c16159660018060401b038216998a1580610c93575b6001809c149081610c89575b159081610c80575b50610c6e576001600160401b031983168b178a558694859384928e918c610c53575b50610b4f615d49565b610b57615d49565b610b6033614992565b610b68615d49565b610b70615d49565b610b78615d49565b8d600080516020615f3c8339815191525560018060a01b0319998a9116915416178d5516868b5416178a55168460025416176002551682600354161760035581600454161760045560055416176005556019600655600f600755600560085560056009556019600a556019600b5582600c556032600d556019600e556203f48060155561010161ffff19601654161760165542601b55610c16578280f35b805460ff60401b191690556040519081527fc7f505b2f371ae2175ee4913f4499e1f2633a7b5936321eed1cdaeb6115181d290602090a138808280f35b6001600160481b0319166001600160401b01178d5538610b46565b60405163f92ee8a960e01b8152600490fd5b90501538610b24565b303b159150610b1c565b5088610b10565b600080fd5b5034610382576020366003190112610382576020906004358152601c8252604060018060a01b0391205416604051908152f35b5034610382578060031936011261038257610ceb614a2d565b60ff610cfe60ff60165460081c16613fd1565b33825260119160206011815260408220938283908492855b8854811015610f8c57876004610d2c838c613e64565b5001541615610f84576002610d41828b613e64565b500154610d4e828b613e64565b509060038092015490603c91828102928184041490151715610f70578b9291610d7691613f97565b421015610d8a575b50506001905b01610d16565b90958895929495600783610d9e888b613e64565b50015403610f175750633b9aca00610de362cb7356935b610dcf610dc2898c613e64565b5095600180970154613f6e565b90610dda898c613e64565b50015490613f6e565b04908991610df1878a613e64565b508760059a8b809301548411610eef575b5050505081610e1091613f97565b96610e1b868d613e64565b500190815490610e2a91613f97565b9055338852600f87526040882060090154918a828a878b8715600198610e9298610e6d95606494610e6694610ed9575b505050600c5490613f6e565b0493613e64565b50015481811115610ec65790610e8681610e8c93613fc4565b92613f97565b95613f97565b926004610e9f828c613e64565b5001805460ff19169055610ebd610eb6828c613e64565b5054614dbc565b90508838610d7e565b9050610ed191613f97565b948890613f97565b6040929350601090522001548f8f908791610e5a565b610e10949550610f0d939291610f0491613e64565b50015490613fc4565b919088878e610e02565b600f83610f24888b613e64565b50015403610f3f5750633b9aca00610de362fe502b93610db5565b91601e81610f4d888b613e64565b50015414610f64575b610de3633b9aca0091610db5565b6301312d009250610f56565b634e487b7160e01b8a52600485905260248afd5b600190610d84565b50509092918115908115809261142b575b156113f257846113de575b80611081575b5061101a575b600f9260405191825282820152600080516020615f5c83398151915260403392a2610fde33614f50565b338352526040812060046003820154910154111561100c575b6001600080516020615f3c8339815191525580f35b61101533615001565b610ff7565b835460405163a9059cbb60e01b81529390839085906001600160a01b0316818881611049883360048401613e49565b03925af193841561077c57600f94611064575b509250610fb4565b61107a90843d86116106f7576106e88183613def565b508561105c565b338652600f845261109f604087206003600482015491015490613fc4565b8082116113b8575b508015610fae57338652600f8452600360408720016110c7828254613f97565b905585546040516370a0823160e01b808252306004830152889390926001600160a01b0392600183901c918416908981602481855afa80156113ad5783918d9161137c575b50101580611373575b61130f575b50601854801580156112fb575b156112ba5750670de0b6b3a7640000905b670de0b6b3a7640000908181029181830414901517156112a6579061115c91613fa4565b899260015416936040519081523060048201528881602481885afa801561129b5782918c9161126a575b50101580611261575b6111ed575b50600080516020615e1c8339815191529250604051908152600087820152600080516020615f1c83398151915260403392a2338852601086526040882054906111e4604051928392339684614038565b0390a285610fae565b90915086604051809463a9059cbb60e01b8252818c81611211873360048401613e49565b03925af192831561125657600080516020615e1c83398151915293611239575b509089611194565b61124f90883d8a116106f7576106e88183613def565b5089611231565b6040513d8b823e3d90fd5b5080151561118f565b8092508a8092503d8311611294575b6112838183613def565b81010312610c9a578190518c611186565b503d611279565b6040513d8d823e3d90fd5b634e487b7160e01b8b52601160045260248bfd5b601754670de0b6b3a7640000908181029181830414901517156112e757906112e191613fa4565b90611138565b634e487b7160e01b8c52601160045260248cfd5b50683635c9adc5dea0000060175410611127565b60405163a9059cbb60e01b815291955088908290818d816113348b3360048401613e49565b03925af180156113685761134b575b50838a61111a565b61136190883d8a116106f7576106e88183613def565b5089611343565b6040513d8c823e3d90fd5b50811515611115565b8092508b8092503d83116113a6575b6113958183613def565b81010312610c9a578290518d61110c565b503d61138b565b6040513d8e823e3d90fd5b906040519081528185820152600080516020615e9c83398151915260403392a2866110a7565b6113ea85601754613f97565b601755610fa8565b60405162461bcd60e51b81526004810185905260116024820152704e6f7468696e6720746f2072656465656d60781b6044820152606490fd5b50801515610f9d565b50346103825780600319360112610382576020600754604051908152f35b50346103825780600319360112610382576020601f54604051908152f35b50346103825760403660031901126103825761148a613d2a565b6001600160a01b03168152601160205260408120805460243592908310156103825760c06114b88484613e64565b508054906001810154906002810154600382015490600560ff600485015416930154936040519586526020860152604085015260608401521515608083015260a0820152f35b5034610382578060031936011261038257602060ff601654166040519015158152f35b5034610382578060031936011261038257604080519081016001600160401b038111828210176115b05760405260058152602091640352e302e360dc1b602083015260405192839160208352835191826020850152815b83811061159957505060408094508284010152601f80199101168101030190f35b808601820151878201604001528694508101611578565b634e487b7160e01b600052604160045260246000fd5b5034610382576115d536613dc6565b908252601d60205260408220805482101561161a576115f49250613e2d565b508054600190910154604051918291611616916001600160a01b031683613e49565b0390f35b8280fd5b50346103825760403660031901126103825761037f61163b613d2a565b611643613d40565b9061164c6149f4565b614614565b5034610382576020366003190112610382577fd28d9e4ce68d89af7920cb8618e342a78f51e545c530ce60f1cb1d6f0235b47f60206004356116916149f4565b80601555604051908152a180f35b5034610382576116ae36613dc6565b6116b66149f4565b81611770575b806116e3575b600080516020615dfc8339815191529160409182519182526020820152a180f35b6001546040516323b872dd60e01b8152929060209084906001600160a01b031681878161171588303360048501613f4c565b03925af19182156106fe57600080516020615dfc83398151915293604093611751575b5061174581601854613f97565b601855915091506116c2565b6117699060203d6020116106f7576106e88183613def565b5038611738565b82546040516323b872dd60e01b81529060209082906001600160a01b03168187816117a089303360048501613f4c565b03925af180156106fe576117c4575b506117bc82601754613f97565b6017556116bc565b6117dc9060203d6020116106f7576106e88183613def565b50386117af565b5034610382576040366003190112610382576117fd613d2a565b602435906118096149f4565b61181582601f54613fc4565b601f55825460405163a9059cbb60e01b815291906001600160a01b03906020908490831681888161184a8a8960048401613e49565b03925af191821561077c577f27971ee1acbfbdfb20656657ceb2e0e7b519b9e60fe1a6b1f6d27b159f4a607c9360209361188c575b506040519485521692a280f35b6118a290843d86116106f7576106e88183613def565b503861187f565b5034610382578060031936011261038257546040516001600160a01b039091168152602090f35b50346103825780600319360112610382576020600e54604051908152f35b5034610382577f4e9dd03193a0c81552fb8e6d32280f0d7e0ce8087241dc3d17ef3d193ee231d7604061192036613dc6565b6119286149f4565b81600d5580600e5582519182526020820152a180f35b5034610382578060031936011261038257600080516020615e3c833981519152546040516001600160a01b039091168152602090f35b5034610382578060031936011261038257602060405160038152f35b5034610382578060031936011261038257602060405160018152f35b50346103825780600319360112610382576004546040516001600160a01b039091168152602090f35b5034610382578060031936011261038257602060405160048152f35b5034610382576020366003190112610382576080906040906001600160a01b03611a19613d2a565b16815260106020522080549060018101549060ff6003600283015492015416916040519384526020840152604083015215156060820152f35b503461038257608036600319011261038257611a6c613d2a565b611a74613d40565b90611a7d613d56565b91611a86613d6c565b90611a8f6149f4565b6001600160a01b039283169182151580611b78575b80611b6d575b80611b62575b15611b2b577f213f1de8063c19612a553f1480ff341bea689d36a56a2089f1b9060d599b5d8394848060809660018060a01b031995878760025416176002551692838660035416176003551692838560045416176004551680936005541617600555604051938452602084015260408301526060820152a180f35b60405162461bcd60e51b815260206004820152600f60248201526e496e76616c6964206164647265737360881b6044820152606490fd5b508381161515611ab0565b508385161515611aaa565b508382161515611aa4565b503461038257611b9236613dc6565b908252601360205260408220805482101561161a576115f49250613e2d565b50346103825780600319360112610382576020601754604051908152f35b50346103825780600319360112610382576002546040516001600160a01b039091168152602090f35b50346103825780600319360112610382576020601a54604051908152f35b5034610382578060031936011261038257611c2f6149f4565b600080516020615e3c83398151915280546001600160a01b031981169091556000906001600160a01b0316600080516020615edc8339815191528280a380f35b50346103825780600319360112610382576020601554604051908152f35b503461038257806003193601126103825760206040516103e88152f35b503461038257602036600319011261038257611cc4614a2d565b611cd360ff604f541615613ef3565b611cdc3361540f565b68056bc75e2d631000006004351415806124ca575b806124b5575b806124a0575b61248e5780546040516323b872dd60e01b81529060209082906001600160a01b0316818581611d356004803590309033908501613f4c565b03925af1801561248357612464575b5033815260106020526040812060038101805460ff161561238957611d6a6019546145cf565b806019558255600435600183015542600283015560ff198154169055338252600f602052816003604082200155600360043502600435810460031460043515171561237557338352600f60205260046040842001555b600a6001820154338452600f6020526040842090600982018054821161236d575b505001805460043511612362575b5080548252601c6020908152604080842080546001600160a01b031916339081179091558452600f9091528220546001600160a01b03168015158061234e575b156122c257611e4e6064611e47600654600435613f6e565b04826155db565b9081612293575b50505b338252600f6020526040822054829182916001600160a01b03169082906004358015908004600114171561227f579394915b6001600160a01b03811680151580612275575b8061226b575b15611faa578452600f6020526040842060ff60058201541615611f8b57506001600160a01b0381168452600f60205260408420600101548390611ee590614008565b11611f21575b6001600160a01b039081168452600f60205260408420541691611f1790611f11906145cf565b956145cf565b935b939491611e8a565b611f30606460043504826157df565b80611f3c575b50611eeb565b9182611f4791613f97565b91338552601060205260408520546040519182526003602083015260408201523390600080516020615ddc833981519152606060018060a01b03851692a338611f36565b5492956001600160a01b0390931692611fa491506145cf565b93611f19565b848684611fc96007916064611fc3600754600435613f6e565b04613fc4565b80612226575b508260018060a01b03815416602061201b60018060a01b0360025416926064611ffc600854600435613f6e565b0460405195868094819363a9059cbb60e01b9889845260048401613e49565b03925af191821561077c5761208992612207575b506120496064612043600954600435613f6e565b04615b05565b845460048054600a546020936001600160a01b03928316939216916064916120719135613f6e565b04918860405180978195829489845260048401613e49565b03925af190811561077c576120de926020926121ea575b5060018060a01b0386541660018060a01b03600354168760646120c7600b54600435613f6e565b049360405196879586948593845260048401613e49565b03925af180156106fe576121cb575b50336000908152600f60205260408120549092600435151592916001600160a01b03165b6001600160a01b0316801515806121c1575b1561216c57600052600f60205261214f83604060002090612155575b546001600160a01b0316946145cf565b93612111565b8381016121656004358254613f97565b905561213f565b858261217733614f50565b5460405190600435825260208201527f2a91574e12ad96234e84923e146b0946ecfb871cd8d5534dc1fdcbe87a7c01b360403392a26001600080516020615f3c8339815191525580f35b50601e8510612123565b6121e39060203d6020116106f7576106e88183613def565b50836120ed565b61220090833d85116106f7576106e88183613def565b50866120a0565b61221f9060203d6020116106f7576106e88183613def565b508561202f565b6040816122567fca2e2bff26d2adb9fe155e9265350494c16751676879cb7ced9141e0fcf3934393601f54613f97565b80601f5582519182526020820152a183611fcf565b5060148710611ea3565b50600f8410611e9d565b634e487b7160e01b84526011600452602484fd5b8254604051928352600260208401526040830152600080516020615ddc83398151915260603393a33880611e55565b50815460025460065461230f926020926001600160a01b03908116929116906064906122f090600435613f6e565b04918660405180968195829463a9059cbb60e01b845260048401613e49565b03925af1801561234357612324575b50611e58565b61233c9060203d6020116106f7576106e88183613def565b503861231e565b6040513d85823e3d90fd5b5080835260ff600560408520015416611e2f565b600435905538611def565b553880611de1565b634e487b7160e01b83526011600452602483fd5b600182018054806123f757506123a06019546145cf565b806019558355600435905542600283015560ff198154169055338252600f602052816003604082200155600360043502600435810460031460043515171561237557338352600f6020526004604084200155611dc0565b61240691925060043590613f97565b9055338252600f60205260ff600560408420015416612459575b600360043502600435810460031460043515171561237557338352600f60205261245260046040852001918254613f97565b9055611dc0565b426002820155612420565b61247c9060203d6020116106f7576106e88183613def565b5038611d44565b6040513d84823e3d90fd5b60405163162908e360e11b8152600490fd5b50683635c9adc5dea000006004351415611cfd565b50681b1ae4d6e2ef5000006004351415611cf7565b50681043561a88293000006004351415611cf1565b503461038257610160366003190112610382576124fa613d2a565b612502613d1b565b606435151560643503610c9a5760a435151560a43503610c9a5760e435151560e43503610c9a576101243515156101243503610c9a576125406149f4565b6125546001600160a01b03831615156145de565b6001600160a01b0382168352600f602052604083209061264b575b60643561260e575b60a435612601575b60e4356125f3575b610124356125e4575b507f8fb1f6e3f39354fc80c1defc040c6d354638b0c8e5f9c63cd0292ef9842197e9608060405192604435845260c435602085015261010435604085015261014435606085015260018060a01b031692a280f35b60066101443591015538612590565b610104356004820155612587565b60c435600382015561257f565b600281018054608435918290556040805191825260208201929092526001600160a01b03841691600080516020615e5c83398151915291a2612577565b604435600182015561256f565b50346103825780600319360112610382576020601954604051908152f35b50346103825780600319360112610382577f00000000000000000000000000000000000000000000000000000000000000006001600160a01b031630036126cf576020604051600080516020615e7c8339815191528152f35b60405163703e46dd60e11b8152600490fd5b5034610382576020806003193601126105fc5760043590612700614a2d565b61270f60ff604f541615613ef3565b811561248e57683635c9adc5dea000008060175410908115612994575b50612908576001546040516323b872dd60e01b81526001600160a01b03918390829084168188816127628a303360048501613f4c565b03925af1801561077c57612977575b506064612780600e5485613f6e565b049061278c8285613fc4565b92612710808502908582041485151715612963576127b06103e89160185490613fa4565b1161248e57858260015416803b156105fc57818091602460405180948193630852cd8d60e31b83528a60048401525af180156124835761294b575b5050601754936127fb8582613f6e565b906128136018549261280d8385613f97565b90613fa4565b93885416956040516370a0823160e01b815230600482015284816024818b5afa80156113685786918b9161291a575b501061290857612856859261285e94613f97565b601855613fc4565b60175580604051809563a9059cbb60e01b8252818981612882883360048401613e49565b03925af19384156128fd577f223c8ad0806f634524940a8595f819c5cfc7b1f4f4f45791269301df0a7e61d5946128df575b50506128c7604051928392339684613db0565b0390a26001600080516020615f3c8339815191525580f35b816128f592903d106106f7576106e88183613def565b5038806128b4565b6040513d88823e3d90fd5b6040516343c7ad8160e11b8152600490fd5b809250868092503d8311612944575b6129338183613def565b81010312610c9a5785905138612842565b503d612929565b61295490613ddc565b61295f5785386127eb565b8580fd5b634e487b7160e01b87526011600452602487fd5b61298d90833d85116106f7576106e88183613def565b5038612771565b9050601854103861272c565b50346103825780600319360112610382576129b96149f4565b600160ff19604f541617604f557f4cb3183d0bf66f9634b15cfc3539fdddc96c2c9324848af89b56586a6739fec48180a180f35b50604036600319011261038257612a02613d2a565b60249182356001600160401b0381116105fc57366023820112156105fc578060040135612a2e81613e12565b93612a3c6040519586613def565b818552602091828601933688838301011161295f57818692898693018737870101526001600160a01b037f00000000000000000000000000000000000000000000000000000000000000008116308114908115612c04575b506126cf57612aa16149f4565b8116946040516352d1902d60e01b815283816004818a5afa869181612bd1575b50612ade57604051634c9c8ce360e01b8152600481018890528890fd5b869088600080516020615e7c83398151915291828103612bbc5750843b15612ba6575080546001600160a01b031916821790556040518692917fbc7cd75a20ee27fd9adebab32041f755214dbc6bffa90cc0225b39da2e5c2d3b8480a2815115612b885750612b7b9482915190845af4903d15612b7f573d612b5f81613e12565b90612b6d6040519283613def565b81528581943d92013e615d78565b5080f35b60609250615d78565b94505050505034612b97575080f35b63b398979f60e01b8152600490fd5b604051634c9c8ce360e01b815260048101849052fd5b60405190632a87526960e21b82526004820152fd5b9091508481813d8311612bfd575b612be98183613def565b81010312612bf957519038612ac1565b8680fd5b503d612bdf565b905081600080516020615e7c8339815191525416141538612a94565b503461038257612c2f36613dc6565b90612c38614a2d565b612c4760ff604f541615613ef3565b3383526020906010825260408420926001840193845415613015576003015460ff1661300357600781141580612ff8575b80612fed575b612fdb57811561248e5784546040516323b872dd60e01b81526001600160a01b039591859082908816818a81612cb98a303360048501613f4c565b03925af18015612fd057612fb3575b50612cd4601a546145cf565b601a81905533875260118552604080882090519160c083016001600160401b038111848210176115b057604052825285820185815260408301428152606084019086825260808501926001845260a08601948c8652805490600160401b821015612f9f5790612d4891600182018155613e64565b969096612f8b5791612d8793916005969593518855516001880155516002870155516003860155511515600485019060ff801983541691151516179055565b51910155601a548652601e8452604080872080546001600160a01b031916339081179091558752600f85528620600a018054918215612f7d575b5050609681029080820460961490151715612f695760649004820361248e577fa8a1b9e33e503eed12bf7e7c8c01c7f3b60217a496bddd0f5db351dd8c056c1c90612e0b33614f50565b601a5490612e20604051928392339684613db0565b0390a2338352600f815260066040842001918383549384612e52575b506001600080516020615f3c8339815191525580f35b556017548381101580612f00575b612e6c575b8490612e3c565b83612e7691613fc4565b6017558354169080604051809363a9059cbb60e01b8252818781612e9e893360048401613e49565b03925af19182156106fe577f3437b9ea7fa19c6d233dd70cc787a70fab87cee64d8ba4571512cc84402748f992612ee3575b506040519283523392a238808080612e65565b612ef990823d84116106f7576106e88183613def565b5038612ed0565b5060248383875416604051928380926370a0823160e01b82523060048301525afa80156128fd5785918791612f38575b501015612e60565b809250858092503d8311612f62575b612f518183613def565b81010312610c9a5784905138612f30565b503d612f47565b634e487b7160e01b86526011600452602486fd5b909150548091553880612dc1565b634e487b7160e01b8d5260048d905260248dfd5b634e487b7160e01b8e52604160045260248efd5b612fc990853d87116106f7576106e88183613def565b5038612cc8565b6040513d89823e3d90fd5b604051634dc7f5ff60e11b8152600490fd5b50601e811415612c7e565b50600f811415612c78565b604051631ecb2c4f60e31b8152600490fd5b604051634065aaf160e11b8152600490fd5b50346103825780600319360112610382576130406149f4565b60ff19604f5416604f557f15de7ad89d29fd1c6d2e6b1e878453569b4080edf34e0105faaa3bd52f0185308180a180f35b50346103825780600319360112610382576020604051603c8152f35b50346103825780600319360112610382576003546040516001600160a01b039091168152602090f35b5034610382576020366003190112610382576020906004358152601e8252604060018060a01b0391205416604051908152f35b5034610382578060031936011261038257613102614a2d565b610ff7614055565b50346103825780600319360112610382576020600d54604051908152f35b5034610382578060031936011261038257602060ff604f54166040519015158152f35b5034610382578060031936011261038257604f5460405160089190911c6001600160a01b03168152602090f35b50346103825760203660031901126103825760043590601454821015610382576020816014600393522091020180546116166002600184015493015460405193849384613db0565b50346103825780600319360112610382576020604051683635c9adc5dea000008152f35b50346103825780600319360112610382576020601854604051908152f35b503461038257602036600319011261038257610160906001600160a01b03906040908261322d613d2a565b168152600f60205220908154169060018101549060028101546003820154600483015460ff600585015416600685015491600786015493600887015495600a6009890154980154986040519a8b5260208b015260408a015260608901526080880152151560a087015260c086015260e0850152610100840152610120830152610140820152f35b50346103825760203660031901126103825760206132d3600435614008565b604051908152f35b50346103825780600319360112610382576001546040516001600160a01b039091168152602090f35b5034610382578060031936011261038257602090604051908152f35b5034610382576020806003193601126105fc5760043561333e614a2d565b61334f60ff60165460081c16613fd1565b3383526011825260408320805482108061380f575b156137da579061337391613e64565b5090600182019182549260028201549160038101549460058201805494338952600f97888852600960408b20015460108952600160408c200154600c54916040519361010085019585871060018060401b038811176115b057613400966040528886528c8601526040850152896060850152608084015260a083015260c0820152603c60e0820152614a5d565b94919290968395156137a7578361341691613f97565b905560048101805460ff1916905588546001600160a01b039361344191889190309033908816614b4f565b15613772576134569086613744575b54614dbc565b80613488575b505050549060405191825282820152600080516020615f5c83398151915260403392a2610fde33614f50565b3388528686526134a5604089206003600482015491015490613fc4565b80911161373c575b50816134ba575b8061345c565b338752858552600360408820016134d2838254613f97565b90558160011c908088541691604051926370a0823160e01b938481523060048201528881602481855afa801561129b5783918c9161370b575b50101580613702575b6136b5575b50601854801580156136a1575b156136715750613540670de0b6b3a7640000915b85613fc4565b670de0b6b3a76400009081810291818304149015171561365d578993929161356791613fa4565b90600154166040519283523060048401528783602481845afa80156106fe5788938591613628575b508211158061361f575b6135c9575b50505050604051908152600084820152600080516020615f1c83398151915260403392a238806134b4565b6135ea9160405194858094819363a9059cbb60e01b83523360048401613e49565b03925af18015612fd057613602575b8481889261359e565b61361890853d87116106f7576106e88183613def565b50386135f9565b50811515613599565b93809295508491503d8311613656575b6136428183613def565b81010312610c9a578892818893519061358f565b503d613638565b634e487b7160e01b8a52601160045260248afd5b601754670de0b6b3a7640000908181029181830414901517156112a6576135409161369b91613fa4565b9161353a565b50683635c9adc5dea0000060175410613526565b87604051809263a9059cbb60e01b8252818d816136d6883360048401613e49565b03925af180156113685715613519576136fb90883d8a116106f7576106e88183613def565b5038613519565b50811515613514565b8092508a8092503d8311613735575b6137248183613def565b81010312610c9a578290513861350b565b503d61371a565b9150386134ad565b61375087601754613f97565b601755338a52888852600660408b200161376b888254613f97565b9055613450565b606487896040519162461bcd60e51b8352600483015260248201526e151c985b9cd9995c8819985a5b1959608a1b6044820152fd5b60405162461bcd60e51b8152600481018a9052600b60248201526a139bdd08195e1c1a5c995960aa1b6044820152606490fd5b60405162461bcd60e51b815260048101849052600d60248201526c496e76616c6964207374616b6560981b6044820152606490fd5b5060ff600461381e8484613e64565b50015416613364565b5034610382578060031936011261038257602060405160028152f35b5034610382576020806003193601126105fc5760043590613862614a2d565b61387160ff604f541615613ef3565b811561248e57683635c9adc5dea000008060175410908115613a95575b506129085782546040516323b872dd60e01b81526001600160a01b03918390829084168188816138c38a303360048501613f4c565b03925af1801561077c57613a78575b50601854906138e18285613f6e565b906138f36017549261280d8785613f97565b92612710860261270f1987820401613a6457613912846103e892613fa4565b1161248e576064613925600d5486613f6e565b04936139318582613fc4565b938360015416916040516370a0823160e01b81523060048201528881602481875afa801561129b5782918c91613a2f575b50106129085789936139778a61397f94613f97565b601755613fc4565b601855803b156105fc578190602460405180948193630852cd8d60e31b83528960048401525af18015612fd057613a1c575b50600154169280604051809563a9059cbb60e01b82528189816139d8883360048401613e49565b03925af19384156128fd577f36864aeefce16bc4aaceeb6b0cdfb2ad1455a8cb4ccb0db148a2bc6e7166f97c946128df5750506128c7604051928392339684613db0565b613a2890969196613ddc565b94386139b1565b8092508a8092503d8311613a5d575b613a488183613def565b81010312613a595781905138613962565b8a80fd5b503d613a3e565b634e487b7160e01b88526011600452602488fd5b613a8e90833d85116106f7576106e88183613def565b50386138d2565b9050601854103861388e565b503461038257604036600319011261038257613abb613d2a565b6001600160a01b039081168252601260205260408220805460243593908410156103825750602092613aec91613d82565b9190546040519260031b1c168152f35b5034610382576020908160031936011261038257613b18613d2a565b338252600f808452604083205490926001600160a01b039290918316613c45578216338114613c33578015613c215733808352600f8652604080842080546001600160a01b03191684179055828452601287528320613b779190613eb0565b338252600f855282604083205416938383955b1680151580613c17575b15613bed578084528187526040842090600282018054906001820190818311613a645792600080516020615e5c83398151915260408a969394858e8997613be799558351928352820152a25416966145cf565b95613b8a565b5050337fa6dbb5aa28f35437de94d685d66edce5fb4812196b4984b91dfd5a7b38c0fb308380a380f35b50601e8610613b94565b60405163e6c4247b60e01b8152600490fd5b604051631acade8960e31b8152600490fd5b60405163682a906560e01b8152600490fd5b50346103825780600319360112610382576020600b54604051908152f35b5034610382576040366003190112610382576004358015158091036105fc5760207f03cb373f89de891077fe47cec43663b6727713de0337af46bebd1178122251b7917fb886fcb5b9c12916f26d967ebe962dbd51ec249fb55961da39c851cdfc10115c82613ce2613d1b565b92613ceb6149f4565b6016549315159361ff008560081b169060ff83169061ffff19161717601655604051908152a1604051908152a180f35b602435908115158203610c9a57565b600435906001600160a01b0382168203610c9a57565b602435906001600160a01b0382168203610c9a57565b604435906001600160a01b0382168203610c9a57565b606435906001600160a01b0382168203610c9a57565b8054821015613d9a5760005260206000200190600090565b634e487b7160e01b600052603260045260246000fd5b6040919493926060820195825260208201520152565b6040906003190112610c9a576004359060243590565b6001600160401b0381116115b057604052565b601f909101601f19168101906001600160401b038211908210176115b057604052565b6001600160401b0381116115b057601f01601f191660200190565b8054821015613d9a5760005260206000209060011b0190600090565b6001600160a01b039091168152602081019190915260400190565b8054821015613d9a576000526006602060002091020190600090565b9181601f84011215610c9a578235916001600160401b038311610c9a576020808501948460051b010111610c9a57565b80549190600160401b8310156115b05782613ed3916001613ef195018155613d82565b90919060018060a01b038084549260031b9316831b921b1916179055565b565b15613efa57565b60405162461bcd60e51b815260206004820152601260248201527110dbdb9d1c9858dd081a5cc81c185d5cd95960721b6044820152606490fd5b90816020910312610c9a57518015158103610c9a5790565b6001600160a01b03918216815291166020820152604081019190915260600190565b81810292918115918404141715613f8157565b634e487b7160e01b600052601160045260246000fd5b91908201809211613f8157565b8115613fae570490565b634e487b7160e01b600052601260045260246000fd5b91908203918211613f8157565b15613fd857565b60405162461bcd60e51b8152602060048201526008602482015267111a5cd8589b195960c21b6044820152606490fd5b600381101561403257600281101561402c576001111561402757600090565b600590565b50600a90565b50600f90565b606091949392608082019582526020820152600060408201520152565b600033815260209060108252604090818120926001808501541580156145c1575b6145b0573383526011825283832083919082825b614436575b5050811561442557338452600f83526140ae8260038787200154613f97565b95338552600f8452858520966004978881015480921161440d575b505082156143fd57338552600f84526003868620016140e9848254613f97565b9055845486516370a0823160e01b808252308a8301528795926001600160a01b039284871c918416908981602481855afa9081156143f3578b8d8f928d9594879184916143ba575b501015806143b1575b614354575b505050505060185480158015614340575b156143005750670de0b6b3a7640000905b670de0b6b3a7640000908181029181830414901517156142ed579061418591613fa4565b9188955416908951908152308b8201528781602481855afa9081156142e3579083918a916142ae575b501015806142a5575b614224575b505091600080516020615e1c83398151915291600f95949388519081528786820152600080516020615f1c833981519152893392a254906142038851928392339684614038565b0390a233835252206003810154910154111561421b57565b613ef133615001565b8161424b9293955087918b8a8c5180968195829463a9059cbb60e01b845233908401613e49565b03925af1801561429b5791600080516020615e1c8339815191529391600f9796959361427e575b509394958193506141bc565b61429490873d89116106f7576106e88183613def565b5038614272565b88513d89823e3d90fd5b508115156141b7565b809250898092503d83116142dc575b6142c78183613def565b810103126142d857829051386141ae565b8880fd5b503d6142bd565b8a513d8b823e3d90fd5b634e487b7160e01b8a5260118c5260248afd5b601754670de0b6b3a76400009081810291818304149015171561432d579061432791613fa4565b90614161565b634e487b7160e01b8b5260118d5260248bfd5b50683635c9adc5dea0000060175410614150565b5163a9059cbb60e01b8152949a508492918391908290614379908e9033908401613e49565b03925af180156142e357614394575b508587388c8b8d61413f565b6143aa90883d8a116106f7576106e88183613def565b5038614388565b5085151561413a565b959694505050505081813d83116143ec575b6143d68183613def565b81010312613a5957908c8b8d858d955138614131565b503d6143cc565b8c513d8d823e3d90fd5b50505050505050613ef133615001565b61441d9294506003015490613fc4565b9138806140c9565b8451630fec21fd60e21b8152600490fd5b81548110156145ab578260ff600461444e8486613e64565b50015416156145a35750856144638284613e64565b5090600760038093015414600014614564575062cb73565b603c614495600261448c8688613e64565b50015442613fc4565b0491806144a28587613e64565b500154831161454d575b5084821561454157916144d46144d992633b9aca00946144cc8789613e64565b500154613f6e565b613f6e565b046144e48284613e64565b509060058092015490818111614505575b505050908280925b01909161408a565b9561453761452261451b8897969488969a613fc4565b8093613f97565b9761452d8487613e64565b5001918254613f97565b90559192386144f5565b939290508391506144fd565b90915061455a8385613e64565b50015490386144ac565b600f826145718587613e64565b50015403614583575062fe502b61447b565b601e826145908587613e64565b5001540361447b57506301312d0061447b565b8092916144fd565b61408f565b8351634065aaf160e11b8152600490fd5b5060ff600386015416614076565b6000198114613f815760010190565b156145e557565b60405162461bcd60e51b8152602060048201526007602482015266125b9d985b1a5960ca1b6044820152606490fd5b916001600160a01b03908184169081151580614963575b614634906145de565b8284168083146149335784846000965b1680151580614929575b156146aa5784811461467a57600052600f602052846146748160406000205416976145cf565b96614644565b60405162461bcd60e51b815260206004820152600860248201526721b4b931bab630b960c11b6044820152606490fd5b506000848152600f60208181526040928390208054969a959950868916989496898b1461491c576001600160a01b0319168a179055871515948561483f575b6146fe908a6000526012835284600020613eb0565b8660005281815260029560028460002001549060019660018301809311613f81576147bf575b8a614759575b50505050505050507ff8b9fe4d008320e6f048c61e41e9cc56ce351354ad0cb9a868bd3c4bd6928fd5600080a4565b600090875b614769575b5061472a565b8616801515806147b5575b156147b05780600052848452888660002001614791848254613f97565b90556000528383526147a986866000205416916145cf565b908761475e565b614763565b50601e8210614774565b866000878c835b6147d4575b50505050614724565b1680151580614835575b1561482e5760008181528787528890208b018054861161482557614803868254613fc4565b90555b60005285855261481c88886000205416916145cf565b908890836147c6565b60009055614806565b88906147cb565b50601e82106147de565b9897969594939291908760005260128152826000209960005b8b54808210156149075786908a6148708f8590613d82565b939054600394851b1c1614614889575050600101614858565b60009d91929495969798999a9b9c9d1994858201918211613f8157613ed38a6148b56148c39486613d82565b905490871b1c169184613d82565b805480156148f1576146fe94899101926148dd8484613d82565b81939154921b1b19169055555b90506146e9565b634e487b7160e01b600052603160045260246000fd5b50506146fe9192939495969798999a506148ea565b5050505050505050505050565b506032871061464e565b60405162461bcd60e51b815260206004820152600860248201526729b2b633103932b360c11b6044820152606490fd5b50838316151561462b565b9190811015613d9a5760051b0190565b356001600160a01b0381168103610c9a5790565b6001600160a01b039081169081156149db57600080516020615e3c83398151915280546001600160a01b03198116841790915516600080516020615edc833981519152600080a3565b604051631e4fbdf760e01b815260006004820152602490fd5b600080516020615e3c833981519152546001600160a01b03163303614a1557565b60405163118cdaa760e01b8152336004820152602490fd5b600080516020615f3c8339815191526002815414614a4b5760029055565b604051633ee5aeb560e01b8152600490fd5b906020820151614a816040840191614a7b835160e087015190613f6e565b90613f97565b421090811591614b4357614abf81633b9aca00925160078114600014614b195750614ab763ffffffff62cb73565b168751613f6e565b905190613f6e565b046060840151808211600014614b0b57614ade614af991606493613fc4565b60808601519095908015614afd5760c090915b015190613f6e565b0491565b5060c060a082015191614af1565b50506064614af96000614ade565b600f03614b3157614ab763ffffffff62fe502b614aaf565b614ab763ffffffff6301312d00614aaf565b50600092508291829150565b93909181614bc8575b505060405163a9059cbb60e01b815292602092849283916000918391614b819160048401613e49565b03926001600160a01b03165af1908115614bbc57600091614ba0575090565b614bb9915060203d6020116106f7576106e88183613def565b90565b6040513d6000823e3d90fd5b60018060a09594951b03808616916040938451926370a0823160e01b84528088169081600486015260209485816024818a5afa908115614d4b57908491600091614d1a575b5010614d0b57865191636eb1769f60e11b83526004830152831660248201528381604481885afa908115614d0057908291600091614ccf575b5010614cc257614c70938392600087518097819582946323b872dd60e01b84528d60048501613f4c565b03925af1928315614cb85750600092614c9b575b505015614c9357903880614b58565b505050600090565b614cb19250803d106106f7576106e88183613def565b3880614c84565b513d6000823e3d90fd5b5050505050505050600090565b809250858092503d8311614cf9575b614ce88183613def565b81010312610c9a5781905138614c46565b503d614cde565b86513d6000823e3d90fd5b50505050505050505050600090565b809250878092503d8311614d44575b614d338183613def565b81010312610c9a5783905138614c0d565b503d614d29565b88513d6000823e3d90fd5b8051821015613d9a5760209160051b010190565b80549060009081815582614d7d57505050565b6001906001600160ff1b0384168403612375578252602082209260011b8301925b838110614dab5750505050565b808360029255838382015501614d9e565b6000818152601e6020908152604080832054601d8352818420805493969495929492936001600160a01b0392831693906001600160401b0390818111614f2f5787519391614e10600583901b8c0186613def565b81855291895289892089928b86015b838510614ef8575050505050865b8251811015614ee15780614e5e85614e4760019487614d56565b5151168b614e558488614d56565b51015190615972565b86898c83614ea8575b8a92507fae629b396150638d6eb6de457cbffe5d618a10c8cc199a94976bed2b16ecd993915088614e98868a614d56565b515116938c51908152a301614e2d565b6060600080516020615ddc833981519152918c8b614ec6898d614d56565b515116946004815193898552840152820152a386898c614e67565b5096915050601d9150613ef1949283525220614d6a565b8a518b810181811084821117612f9f576001928f91926002938f528b87541681528487015483820152815201930194019391614e1f565b634e487b7160e01b89526041600452602489fd5b8015613f81576000190190565b60018060a01b038060009216825260106020526040822090600182015415159182614ff1575b50600f602052604083206005810160ff815416151584151514614fea57805460ff191660ff851515161790555416918215614fe55760019260409215614fcd578152600f6020522001614fc981546145cf565b9055565b81522001805480614fdc575050565b614fc990614f43565b505050565b5050505050565b6003015460ff1615915038614f76565b6001600160a01b038116600081815260106020526040902060038101805492939260ff811615615032575050505050565b906001602495969260ff19161790556011602052604060002094600092600094602060018060a01b0360005416604051988980926370a0823160e01b82523060048301525afa968715614bbc576000976153db575b50600095945b88548710156151485760ff60046150a4898c613e64565b500154161561513e5760016150b9888b613e64565b50015490818060011b0460021482151715613f8157896151119160016150f38b61012c6150ec8498600c5490861b613f6e565b0494613e64565b5001548281106151315790614a7b8361510b93613fc4565b97613f97565b96600461511e828c613e64565b5001805460ff191690555b01959461508d565b6000925061510b91613f97565b9495600190615129565b939750909450819593919383615238575b505091600080516020615f5c8339815191526040600080516020615efc833981519152959385602096615217575b6000858152600f885283902060058101805460ff19811690915590546001600160a01b03169060ff168061520e575b806151fa575b6151de575b50825191825286820152a254604051908152a23880808080614fea565b600052600183600020016151f28154614f43565b9055386151c1565b5080600052600184600020015415156151bc565b508015156151b6565b84600052600f875260068360002001615231828254613f97565b9055615187565b90949293908481106152dc5750506000805460405163a9059cbb60e01b81529560209287926001600160a01b031691839190829061527b908a9060048401613e49565b03925af1938415614bbc5760406020948793600080516020615f5c83398151915293600080516020615efc833981519152986152bf575b505b939550939550615159565b6152d590883d8a116106f7576106e88183613def565b50386152b2565b909293948161532f575b506040600080516020615efc83398151915295849360209695600080516020615e9c83398151915284600080516020615f5c833981519152968151908682528b820152a26152b4565b81615365929395945060209160018060a01b036000541690600060405180968195829463a9059cbb60e01b845260048401613e49565b03925af18015614bbc57600080516020615efc8339815191529560209588600080516020615e9c83398151915260408297600080516020615f5c8339815191529782976153be575b5096505050509394955095506152e6565b6153d4908c3d8e116106f7576106e88183613def565b50386153ad565b9096506020813d602011615407575b816153f760209383613def565b81010312610c9a57519538615087565b3d91506153ea565b6001600160a01b0390811660008181526010602090815260408083206001818101805496979096939590949291841580156155cd575b61557857601184528682208054839291835b82811061558d5750505050615583576002820196615479885460155490613f97565b42111561557857600383837f57025f0027038907eda728b59164fb63d06048f42e618a35267e6a12e49b2e469a8a9654998d8352600f895260ff600589852092835416920154168061556f575b8061555d575b615543575b508c8252600f88528187812095816004600589019860ff19998a81541690558289820155015581855555550190815416905584615514575b5051928352820152a2565b84815260138352615526828220614d6a565b848152601c83522080546001600160a01b03191690558338615509565b82526001878320016155558154614f43565b9055386154d1565b508083526001888420015415156154cc565b508015156154c6565b505050505050505050565b5050505050505050565b60ff600461559b8385613e64565b500154166155ab575b8301615457565b936155c58491826155bc8886613e64565b50015490613f97565b9490506155a4565b5060ff600384015416615445565b60018060a01b03808216906000918083526020600f8152604090818520936010825282862060ff600587015416159081156157d0575b81156157c3575b506157b857602482828854168551928380926370a0823160e01b82523060048301525afa9081156157ae57908991889161577d575b50106157585760048501956003875496019561566b87548092613fc4565b8a818111615730575b5050898061569a575b505050505050505490541115615691575090565b614bb990615001565b6156cb936156a9828794613f97565b89558354168a84885180978195829463a9059cbb60e01b845260048401613e49565b03925af1908115615725575090600080516020615f1c833981519152939291615708575b506002825191898352820152a23880808080808961567d565b61571e90823d84116106f7576106e88183613def565b50386156ef565b8451903d90823e3d90fd5b819b5086600080516020615e9c8339815191529189939d825191825288820152a23880615674565b50849692955081600080516020615e9c8339815191529592945051928352820152a290565b809250848092503d83116157a7575b6157968183613def565b81010312612bf9578890513861564d565b503d61578c565b84513d89823e3d90fd5b505050505091505090565b6001915001541538615618565b600381015460ff169150615611565b60018060a01b03808216906000918083526020600f8152604090818520936010825282862060ff60058701541615908115615963575b8115615956575b506157b857602482828854168551928380926370a0823160e01b82523060048301525afa9081156157ae579089918891615925575b50106157585760048501956003875496019561586f87548092613fc4565b8a8181116158fd575b5050898061589457505050505050505490541115615691575090565b6158a3936156a9828794613f97565b03925af1908115615725575090600080516020615f1c8339815191529392916158e0575b506003825191898352820152a23880808080808961567d565b6158f690823d84116106f7576106e88183613def565b50386158c7565b819b5086600080516020615e9c8339815191529189939d825191825288820152a23880615878565b809250848092503d831161594f575b61593e8183613def565b81010312612bf95788905138615851565b503d615934565b600191500154153861581c565b600381015460ff169150615815565b60018060a01b03808216906000918083526020600f8152604090818520936010825282862060ff60058701541615908115615af6575b8115615ae9575b506157b857602482828854168551928380926370a0823160e01b82523060048301525afa9081156157ae579089918891615ab8575b501061575857600485019560038754960195615a0287548092613fc4565b8a818111615a90575b50508980615a2757505050505050505490541115615691575090565b615a36936156a9828794613f97565b03925af1908115615725575090600080516020615f1c833981519152939291615a73575b506004825191898352820152a23880808080808961567d565b615a8990823d84116106f7576106e88183613def565b5038615a5a565b819b5086600080516020615e9c8339815191529189939d825191825288820152a23880615a0b565b809250848092503d8311615ae2575b615ad18183613def565b81010312612bf957889051386159e4565b503d615ac7565b60019150015415386159af565b600381015460ff1691506159a8565b908115615d4557601754683635c9adc5dea00000808210908115615d39575b50615d345760018060a01b03926000938085541692604093845191826370a0823160e01b9283825230600483015281602460209687935afa908115615d2a578991615cfd575b50615b758683613f97565b11615cdf57612710850261270f1986820401615ce957615b98826103e892613fa4565b11615cdf5760185490615bb8615bae8388613f6e565b61280d8884613f97565b9485158015615cd6575b615cca57600154169287519081523060048201528481602481875afa908115615cc0579083918b91615c8b575b5010615c80578489939261397788615c0694613f97565b601855803b156105fc5781906024875180948193630852cd8d60e31b83528860048401525af18015615c76577f0ec3929061cbbbeecb325623e7d5a86c3dae11cb8a22ca45dc0972955657da25969750615c67575b508351928352820152a1565b615c7090613ddc565b38615c5b565b85513d89823e3d90fd5b505050505050509050565b809250868092503d8311615cb9575b615ca48183613def565b81010312615cb55782905138615bef565b8980fd5b503d615c9a565b88513d8c823e3d90fd5b50505050505050509050565b50828611615bc2565b5050505050509050565b634e487b7160e01b89526011600452602489fd5b90508381813d8311615d23575b615d148183613def565b810103126142d8575138615b6a565b503d615d0a565b87513d8b823e3d90fd5b509050565b90506018541038615b24565b9050565b60ff600080516020615f7c8339815191525460401c1615615d6657565b604051631afcd79f60e31b8152600490fd5b90615d9f5750805115615d8d57602081519101fd5b60405163d6bda27560e01b8152600490fd5b81511580615dd2575b615db0575090565b604051639996b31560e01b81526001600160a01b039091166004820152602490fd5b50803b15615da856fe9b3cc71482a1b2eebe764a739f46f1fe99291fd0183be81951532b29d0c9c8da38f8a0c92f4c5b0b6877f878cb4c0c8d348a47b76d716c8e78f425043df9515b6fcebd0a2ce98b28cb391d6008bbc769378c9a4919628e11639cb575cd320fcc9016d09d72d40fdae2fd8ceac6b6234c7706214fd39c1cd1e609a0528c199300a0eea20e678cb42233c1c456c84cedce7ea53fa360bb71bf3b761b7609567770360894a13ba1a3210667c828492db98dca3e2076cc3735a920a3ca505d382bbcb5987aab1afd379f6695f1068869ee8ca6a0d02304c57935a9cc3d3ea2e51e4d520bc217d25ef4588524228dffcfa518f4ad52178c71d49b8061d016213cd3118be0079c531659141344cd1fd0a4f28419497f9722a3daafe3b4186f6b6457e0920bb94eb3842a728db98228c375ff6b00c5bc5a54fac6736155517a0a20a61af381583145e90b82cc5e529bf4fc4d0e44397174cdf145c4251ac33ef195a4249b779b17422d0df92223018b32b4d1fa46e071723d6817e2486d003becc55f00f3a670cd3af7d64b488926880889d08a8585a138ff455227af6737339a1ec262f0c57e16840df040f15088dc2f81fe391c3923bec73e23a9662efc9c229c6a00a2646970667358221220165b9b1106f28c2afe382eb884b5337200f0d96fa8a5ef3928e53757dd3685a964736f6c63430008160033",
  "linkReferences": {},
  "deployedLinkReferences": {}
}