{
  "_format": "hh-sol-artifact-1",
  "contractName": "JinbaoProtocol",
  "sourceName": "contracts/JinbaoProtocol.sol",
  "abi": [
    {
      "inputs": [],
      "stateMutability": "nonpayable",
      "type": "constructor"
    },
    {
      "inputs": [],
      "name": "ActionTooEarly",
      "type": "error"
    },
    {
      "inputs": [
        {
          "internalType": "address",
          "name": "target",
          "type": "address"
        }
      ],
      "name": "AddressEmptyCode",
      "type": "error"
    },
    {
      "inputs": [],
      "name": "AlreadyBound",
      "type": "error"
    },
    {
      "inputs": [],
      "name": "AlreadyExited",
      "type": "error"
    },
    {
      "inputs": [],
      "name": "BatchUpdateSizeMismatch",
      "type": "error"
    },
    {
      "inputs": [],
      "name": "ContractPaused",
      "type": "error"
    },
    {
      "inputs": [
        {
          "internalType": "address",
          "name": "implementation",
          "type": "address"
        }
      ],
      "name": "ERC1967InvalidImplementation",
      "type": "error"
    },
    {
      "inputs": [],
      "name": "ERC1967NonPayable",
      "type": "error"
    },
    {
      "inputs": [],
      "name": "Expired",
      "type": "error"
    },
    {
      "inputs": [],
      "name": "FailedCall",
      "type": "error"
    },
    {
      "inputs": [],
      "name": "InsufficientBalance",
      "type": "error"
    },
    {
      "inputs": [],
      "name": "InvalidAddress",
      "type": "error"
    },
    {
      "inputs": [],
      "name": "InvalidAmount",
      "type": "error"
    },
    {
      "inputs": [],
      "name": "InvalidCycle",
      "type": "error"
    },
    {
      "inputs": [],
      "name": "InvalidFee",
      "type": "error"
    },
    {
      "inputs": [],
      "name": "InvalidInitialization",
      "type": "error"
    },
    {
      "inputs": [],
      "name": "InvalidLevelConfig",
      "type": "error"
    },
    {
      "inputs": [],
      "name": "InvalidRate",
      "type": "error"
    },
    {
      "inputs": [],
      "name": "InvalidTax",
      "type": "error"
    },
    {
      "inputs": [],
      "name": "InvalidTeamCountUpdate",
      "type": "error"
    },
    {
      "inputs": [],
      "name": "LowLiquidity",
      "type": "error"
    },
    {
      "inputs": [],
      "name": "NoRewards",
      "type": "error"
    },
    {
      "inputs": [],
      "name": "NotActive",
      "type": "error"
    },
    {
      "inputs": [],
      "name": "NotInitializing",
      "type": "error"
    },
    {
      "inputs": [],
      "name": "NothingToRedeem",
      "type": "error"
    },
    {
      "inputs": [
        {
          "internalType": "address",
          "name": "owner",
          "type": "address"
        }
      ],
      "name": "OwnableInvalidOwner",
      "type": "error"
    },
    {
      "inputs": [
        {
          "internalType": "address",
          "name": "account",
          "type": "address"
        }
      ],
      "name": "OwnableUnauthorizedAccount",
      "type": "error"
    },
    {
      "inputs": [],
      "name": "RecursionDepthExceeded",
      "type": "error"
    },
    {
      "inputs": [],
      "name": "ReentrancyGuardReentrantCall",
      "type": "error"
    },
    {
      "inputs": [],
      "name": "SelfReference",
      "type": "error"
    },
    {
      "inputs": [],
      "name": "SumNot100",
      "type": "error"
    },
    {
      "inputs": [
        {
          "internalType": "address",
          "name": "user",
          "type": "address"
        },
        {
          "internalType": "uint256",
          "name": "expected",
          "type": "uint256"
        },
        {
          "internalType": "uint256",
          "name": "actual",
          "type": "uint256"
        }
      ],
      "name": "TeamCountMismatch",
      "type": "error"
    },
    {
      "inputs": [],
      "name": "TeamCountOverflow",
      "type": "error"
    },
    {
      "inputs": [],
      "name": "TransferFailed",
      "type": "error"
    },
    {
      "inputs": [
        {
          "internalType": "string",
          "name": "reason",
          "type": "string"
        }
      ],
      "name": "TransferFromFailed",
      "type": "error"
    },
    {
      "inputs": [],
      "name": "TransferFromFailedLowLevel",
      "type": "error"
    },
    {
      "inputs": [],
      "name": "UUPSUnauthorizedCallContext",
      "type": "error"
    },
    {
      "inputs": [
        {
          "internalType": "bytes32",
          "name": "slot",
          "type": "bytes32"
        }
      ],
      "name": "UUPSUnsupportedProxiableUUID",
      "type": "error"
    },
    {
      "inputs": [],
      "name": "Unauthorized",
      "type": "error"
    },
    {
      "anonymous": false,
      "inputs": [
        {
          "indexed": false,
          "internalType": "uint256",
          "name": "usersUpdated",
          "type": "uint256"
        }
      ],
      "name": "BatchTeamCountsUpdated",
      "type": "event"
    },
    {
      "anonymous": false,
      "inputs": [
        {
          "indexed": true,
          "internalType": "address",
          "name": "user",
          "type": "address"
        },
        {
          "indexed": true,
          "internalType": "address",
          "name": "referrer",
          "type": "address"
        }
      ],
      "name": "BoundReferrer",
      "type": "event"
    },
    {
      "anonymous": false,
      "inputs": [
        {
          "indexed": false,
          "internalType": "uint256",
          "name": "mcAmount",
          "type": "uint256"
        },
        {
          "indexed": false,
          "internalType": "uint256",
          "name": "jbcBurned",
          "type": "uint256"
        }
      ],
      "name": "BuybackAndBurn",
      "type": "event"
    },
    {
      "anonymous": false,
      "inputs": [
        {
          "indexed": true,
          "internalType": "uint256",
          "name": "stakeId",
          "type": "uint256"
        },
        {
          "indexed": true,
          "internalType": "address",
          "name": "upline",
          "type": "address"
        },
        {
          "indexed": false,
          "internalType": "uint256",
          "name": "amount",
          "type": "uint256"
        }
      ],
      "name": "DifferentialRewardRecorded",
      "type": "event"
    },
    {
      "anonymous": false,
      "inputs": [
        {
          "indexed": true,
          "internalType": "uint256",
          "name": "stakeId",
          "type": "uint256"
        },
        {
          "indexed": true,
          "internalType": "address",
          "name": "upline",
          "type": "address"
        },
        {
          "indexed": false,
          "internalType": "uint256",
          "name": "amount",
          "type": "uint256"
        }
      ],
      "name": "DifferentialRewardReleased",
      "type": "event"
    },
    {
      "anonymous": false,
      "inputs": [
        {
          "indexed": false,
          "internalType": "uint256",
          "name": "direct",
          "type": "uint256"
        },
        {
          "indexed": false,
          "internalType": "uint256",
          "name": "level",
          "type": "uint256"
        },
        {
          "indexed": false,
          "internalType": "uint256",
          "name": "marketing",
          "type": "uint256"
        },
        {
          "indexed": false,
          "internalType": "uint256",
          "name": "buyback",
          "type": "uint256"
        },
        {
          "indexed": false,
          "internalType": "uint256",
          "name": "lpInjection",
          "type": "uint256"
        },
        {
          "indexed": false,
          "internalType": "uint256",
          "name": "treasury",
          "type": "uint256"
        }
      ],
      "name": "DistributionConfigUpdated",
      "type": "event"
    },
    {
      "anonymous": false,
      "inputs": [],
      "name": "EmergencyPaused",
      "type": "event"
    },
    {
      "anonymous": false,
      "inputs": [],
      "name": "EmergencyUnpaused",
      "type": "event"
    },
    {
      "anonymous": false,
      "inputs": [
        {
          "indexed": true,
          "internalType": "address",
          "name": "user",
          "type": "address"
        },
        {
          "indexed": false,
          "internalType": "uint256",
          "name": "ticketId",
          "type": "uint256"
        }
      ],
      "name": "Exited",
      "type": "event"
    },
    {
      "anonymous": false,
      "inputs": [
        {
          "indexed": true,
          "internalType": "address",
          "name": "user",
          "type": "address"
        },
        {
          "indexed": false,
          "internalType": "uint256",
          "name": "amount",
          "type": "uint256"
        }
      ],
      "name": "FeeRefunded",
      "type": "event"
    },
    {
      "anonymous": false,
      "inputs": [
        {
          "indexed": false,
          "internalType": "uint64",
          "name": "version",
          "type": "uint64"
        }
      ],
      "name": "Initialized",
      "type": "event"
    },
    {
      "anonymous": false,
      "inputs": [],
      "name": "LevelConfigsUpdated",
      "type": "event"
    },
    {
      "anonymous": false,
      "inputs": [
        {
          "indexed": false,
          "internalType": "uint256",
          "name": "amount",
          "type": "uint256"
        },
        {
          "indexed": false,
          "internalType": "uint256",
          "name": "newTotal",
          "type": "uint256"
        }
      ],
      "name": "LevelRewardPoolUpdated",
      "type": "event"
    },
    {
      "anonymous": false,
      "inputs": [
        {
          "indexed": true,
          "internalType": "address",
          "name": "to",
          "type": "address"
        },
        {
          "indexed": false,
          "internalType": "uint256",
          "name": "amount",
          "type": "uint256"
        }
      ],
      "name": "LevelRewardPoolWithdrawn",
      "type": "event"
    },
    {
      "anonymous": false,
      "inputs": [
        {
          "indexed": true,
          "internalType": "uint256",
          "name": "ticketId",
          "type": "uint256"
        },
        {
          "indexed": true,
          "internalType": "address",
          "name": "upline",
          "type": "address"
        },
        {
          "indexed": false,
          "internalType": "uint256",
          "name": "amount",
          "type": "uint256"
        }
      ],
      "name": "LevelRewardRecorded",
      "type": "event"
    },
    {
      "anonymous": false,
      "inputs": [
        {
          "indexed": true,
          "internalType": "uint256",
          "name": "ticketId",
          "type": "uint256"
        },
        {
          "indexed": true,
          "internalType": "address",
          "name": "upline",
          "type": "address"
        },
        {
          "indexed": false,
          "internalType": "uint256",
          "name": "amount",
          "type": "uint256"
        }
      ],
      "name": "LevelRewardReleased",
      "type": "event"
    },
    {
      "anonymous": false,
      "inputs": [
        {
          "indexed": false,
          "internalType": "uint256",
          "name": "mcAmount",
          "type": "uint256"
        },
        {
          "indexed": false,
          "internalType": "uint256",
          "name": "jbcAmount",
          "type": "uint256"
        }
      ],
      "name": "LiquidityAdded",
      "type": "event"
    },
    {
      "anonymous": false,
      "inputs": [
        {
          "indexed": true,
          "internalType": "address",
          "name": "user",
          "type": "address"
        },
        {
          "indexed": false,
          "internalType": "uint256",
          "name": "amount",
          "type": "uint256"
        },
        {
          "indexed": false,
          "internalType": "uint256",
          "name": "cycleDays",
          "type": "uint256"
        },
        {
          "indexed": false,
          "internalType": "uint256",
          "name": "stakeId",
          "type": "uint256"
        }
      ],
      "name": "LiquidityStaked",
      "type": "event"
    },
    {
      "anonymous": false,
      "inputs": [
        {
          "indexed": false,
          "internalType": "bool",
          "name": "enabled",
          "type": "bool"
        }
      ],
      "name": "LiquidityStatusUpdated",
      "type": "event"
    },
    {
      "anonymous": false,
      "inputs": [
        {
          "indexed": true,
          "internalType": "address",
          "name": "previousOwner",
          "type": "address"
        },
        {
          "indexed": true,
          "internalType": "address",
          "name": "newOwner",
          "type": "address"
        }
      ],
      "name": "OwnershipTransferred",
      "type": "event"
    },
    {
      "anonymous": false,
      "inputs": [
        {
          "indexed": false,
          "internalType": "bool",
          "name": "enabled",
          "type": "bool"
        }
      ],
      "name": "RedeemStatusUpdated",
      "type": "event"
    },
    {
      "anonymous": false,
      "inputs": [
        {
          "indexed": true,
          "internalType": "address",
          "name": "user",
          "type": "address"
        },
        {
          "indexed": false,
          "internalType": "uint256",
          "name": "principal",
          "type": "uint256"
        },
        {
          "indexed": false,
          "internalType": "uint256",
          "name": "fee",
          "type": "uint256"
        }
      ],
      "name": "Redeemed",
      "type": "event"
    },
    {
      "anonymous": false,
      "inputs": [
        {
          "indexed": false,
          "internalType": "uint256",
          "name": "newFee",
          "type": "uint256"
        }
      ],
      "name": "RedemptionFeeUpdated",
      "type": "event"
    },
    {
      "anonymous": false,
      "inputs": [
        {
          "indexed": true,
          "internalType": "address",
          "name": "user",
          "type": "address"
        },
        {
          "indexed": true,
          "internalType": "address",
          "name": "from",
          "type": "address"
        },
        {
          "indexed": false,
          "internalType": "uint256",
          "name": "mcAmount",
          "type": "uint256"
        },
        {
          "indexed": false,
          "internalType": "uint8",
          "name": "rewardType",
          "type": "uint8"
        },
        {
          "indexed": false,
          "internalType": "uint256",
          "name": "ticketId",
          "type": "uint256"
        }
      ],
      "name": "ReferralRewardPaid",
      "type": "event"
    },
    {
      "anonymous": false,
      "inputs": [
        {
          "indexed": true,
          "internalType": "address",
          "name": "user",
          "type": "address"
        },
        {
          "indexed": true,
          "internalType": "address",
          "name": "oldReferrer",
          "type": "address"
        },
        {
          "indexed": true,
          "internalType": "address",
          "name": "newReferrer",
          "type": "address"
        }
      ],
      "name": "ReferrerChanged",
      "type": "event"
    },
    {
      "anonymous": false,
      "inputs": [
        {
          "indexed": true,
          "internalType": "address",
          "name": "user",
          "type": "address"
        },
        {
          "indexed": false,
          "internalType": "uint256",
          "name": "amount",
          "type": "uint256"
        },
        {
          "indexed": false,
          "internalType": "uint256",
          "name": "cappedAmount",
          "type": "uint256"
        }
      ],
      "name": "RewardCapped",
      "type": "event"
    },
    {
      "anonymous": false,
      "inputs": [
        {
          "indexed": true,
          "internalType": "address",
          "name": "user",
          "type": "address"
        },
        {
          "indexed": false,
          "internalType": "uint256",
          "name": "mcAmount",
          "type": "uint256"
        },
        {
          "indexed": false,
          "internalType": "uint256",
          "name": "jbcAmount",
          "type": "uint256"
        },
        {
          "indexed": false,
          "internalType": "uint8",
          "name": "rewardType",
          "type": "uint8"
        },
        {
          "indexed": false,
          "internalType": "uint256",
          "name": "ticketId",
          "type": "uint256"
        }
      ],
      "name": "RewardClaimed",
      "type": "event"
    },
    {
      "anonymous": false,
      "inputs": [
        {
          "indexed": true,
          "internalType": "address",
          "name": "user",
          "type": "address"
        },
        {
          "indexed": false,
          "internalType": "uint256",
          "name": "amount",
          "type": "uint256"
        },
        {
          "indexed": false,
          "internalType": "uint8",
          "name": "rewardType",
          "type": "uint8"
        }
      ],
      "name": "RewardPaid",
      "type": "event"
    },
    {
      "anonymous": false,
      "inputs": [
        {
          "indexed": false,
          "internalType": "uint256",
          "name": "mcAmount",
          "type": "uint256"
        },
        {
          "indexed": false,
          "internalType": "uint256",
          "name": "jbcAmount",
          "type": "uint256"
        }
      ],
      "name": "SwapReservesWithdrawn",
      "type": "event"
    },
    {
      "anonymous": false,
      "inputs": [
        {
          "indexed": false,
          "internalType": "uint256",
          "name": "buyTax",
          "type": "uint256"
        },
        {
          "indexed": false,
          "internalType": "uint256",
          "name": "sellTax",
          "type": "uint256"
        }
      ],
      "name": "SwapTaxesUpdated",
      "type": "event"
    },
    {
      "anonymous": false,
      "inputs": [
        {
          "indexed": true,
          "internalType": "address",
          "name": "user",
          "type": "address"
        },
        {
          "indexed": false,
          "internalType": "uint256",
          "name": "jbcAmount",
          "type": "uint256"
        },
        {
          "indexed": false,
          "internalType": "uint256",
          "name": "mcAmount",
          "type": "uint256"
        },
        {
          "indexed": false,
          "internalType": "uint256",
          "name": "tax",
          "type": "uint256"
        }
      ],
      "name": "SwappedJBCToMC",
      "type": "event"
    },
    {
      "anonymous": false,
      "inputs": [
        {
          "indexed": true,
          "internalType": "address",
          "name": "user",
          "type": "address"
        },
        {
          "indexed": false,
          "internalType": "uint256",
          "name": "mcAmount",
          "type": "uint256"
        },
        {
          "indexed": false,
          "internalType": "uint256",
          "name": "jbcAmount",
          "type": "uint256"
        },
        {
          "indexed": false,
          "internalType": "uint256",
          "name": "tax",
          "type": "uint256"
        }
      ],
      "name": "SwappedMCToJBC",
      "type": "event"
    },
    {
      "anonymous": false,
      "inputs": [
        {
          "indexed": true,
          "internalType": "uint256",
          "name": "stakeId",
          "type": "uint256"
        },
        {
          "indexed": true,
          "internalType": "address",
          "name": "upline",
          "type": "address"
        },
        {
          "indexed": false,
          "internalType": "uint256",
          "name": "amount",
          "type": "uint256"
        },
        {
          "indexed": false,
          "internalType": "uint256",
          "name": "teamCount",
          "type": "uint256"
        }
      ],
      "name": "TeamBasedRewardCalculated",
      "type": "event"
    },
    {
      "anonymous": false,
      "inputs": [
        {
          "indexed": true,
          "internalType": "address",
          "name": "user",
          "type": "address"
        },
        {
          "indexed": false,
          "internalType": "uint256",
          "name": "oldCount",
          "type": "uint256"
        },
        {
          "indexed": false,
          "internalType": "uint256",
          "name": "newCount",
          "type": "uint256"
        }
      ],
      "name": "TeamCountUpdated",
      "type": "event"
    },
    {
      "anonymous": false,
      "inputs": [
        {
          "indexed": true,
          "internalType": "address",
          "name": "user",
          "type": "address"
        },
        {
          "indexed": false,
          "internalType": "uint256",
          "name": "expected",
          "type": "uint256"
        },
        {
          "indexed": false,
          "internalType": "uint256",
          "name": "actual",
          "type": "uint256"
        }
      ],
      "name": "TeamCountValidationFailed",
      "type": "event"
    },
    {
      "anonymous": false,
      "inputs": [
        {
          "indexed": true,
          "internalType": "address",
          "name": "user",
          "type": "address"
        },
        {
          "indexed": false,
          "internalType": "uint256",
          "name": "ticketId",
          "type": "uint256"
        },
        {
          "indexed": false,
          "internalType": "uint256",
          "name": "amount",
          "type": "uint256"
        }
      ],
      "name": "TicketExpired",
      "type": "event"
    },
    {
      "anonymous": false,
      "inputs": [
        {
          "indexed": false,
          "internalType": "uint256",
          "name": "newDuration",
          "type": "uint256"
        }
      ],
      "name": "TicketFlexibilityDurationUpdated",
      "type": "event"
    },
    {
      "anonymous": false,
      "inputs": [
        {
          "indexed": true,
          "internalType": "address",
          "name": "user",
          "type": "address"
        },
        {
          "indexed": false,
          "internalType": "uint256",
          "name": "amount",
          "type": "uint256"
        },
        {
          "indexed": false,
          "internalType": "uint256",
          "name": "ticketId",
          "type": "uint256"
        }
      ],
      "name": "TicketPurchased",
      "type": "event"
    },
    {
      "anonymous": false,
      "inputs": [
        {
          "indexed": false,
          "internalType": "address",
          "name": "token",
          "type": "address"
        },
        {
          "indexed": false,
          "internalType": "address",
          "name": "to",
          "type": "address"
        },
        {
          "indexed": false,
          "internalType": "uint256",
          "name": "amount",
          "type": "uint256"
        }
      ],
      "name": "TokensRescued",
      "type": "event"
    },
    {
      "anonymous": false,
      "inputs": [
        {
          "indexed": true,
          "internalType": "address",
          "name": "implementation",
          "type": "address"
        }
      ],
      "name": "Upgraded",
      "type": "event"
    },
    {
      "anonymous": false,
      "inputs": [
        {
          "indexed": true,
          "internalType": "address",
          "name": "user",
          "type": "address"
        },
        {
          "indexed": false,
          "internalType": "uint8",
          "name": "field",
          "type": "uint8"
        },
        {
          "indexed": false,
          "internalType": "uint256",
          "name": "value",
          "type": "uint256"
        }
      ],
      "name": "UserDataFieldUpdated",
      "type": "event"
    },
    {
      "anonymous": false,
      "inputs": [
        {
          "indexed": true,
          "internalType": "address",
          "name": "user",
          "type": "address"
        },
        {
          "indexed": false,
          "internalType": "uint256",
          "name": "oldLevel",
          "type": "uint256"
        },
        {
          "indexed": false,
          "internalType": "uint256",
          "name": "newLevel",
          "type": "uint256"
        },
        {
          "indexed": false,
          "internalType": "uint256",
          "name": "teamCount",
          "type": "uint256"
        }
      ],
      "name": "UserLevelChanged",
      "type": "event"
    },
    {
      "anonymous": false,
      "inputs": [
        {
          "indexed": false,
          "internalType": "address",
          "name": "marketing",
          "type": "address"
        },
        {
          "indexed": false,
          "internalType": "address",
          "name": "treasury",
          "type": "address"
        },
        {
          "indexed": false,
          "internalType": "address",
          "name": "lpInjection",
          "type": "address"
        },
        {
          "indexed": false,
          "internalType": "address",
          "name": "buyback",
          "type": "address"
        }
      ],
      "name": "WalletsUpdated",
      "type": "event"
    },
    {
      "inputs": [],
      "name": "MAX_PRICE_IMPACT",
      "outputs": [
        {
          "internalType": "uint256",
          "name": "",
          "type": "uint256"
        }
      ],
      "stateMutability": "view",
      "type": "function"
    },
    {
      "inputs": [],
      "name": "MIN_LIQUIDITY",
      "outputs": [
        {
          "internalType": "uint256",
          "name": "",
          "type": "uint256"
        }
      ],
      "stateMutability": "view",
      "type": "function"
    },
    {
      "inputs": [],
      "name": "REWARD_DIFFERENTIAL",
      "outputs": [
        {
          "internalType": "uint8",
          "name": "",
          "type": "uint8"
        }
      ],
      "stateMutability": "view",
      "type": "function"
    },
    {
      "inputs": [],
      "name": "REWARD_DIRECT",
      "outputs": [
        {
          "internalType": "uint8",
          "name": "",
          "type": "uint8"
        }
      ],
      "stateMutability": "view",
      "type": "function"
    },
    {
      "inputs": [],
      "name": "REWARD_DYNAMIC",
      "outputs": [
        {
          "internalType": "uint8",
          "name": "",
          "type": "uint8"
        }
      ],
      "stateMutability": "view",
      "type": "function"
    },
    {
      "inputs": [],
      "name": "REWARD_LEVEL",
      "outputs": [
        {
          "internalType": "uint8",
          "name": "",
          "type": "uint8"
        }
      ],
      "stateMutability": "view",
      "type": "function"
    },
    {
      "inputs": [],
      "name": "REWARD_STATIC",
      "outputs": [
        {
          "internalType": "uint8",
          "name": "",
          "type": "uint8"
        }
      ],
      "stateMutability": "view",
      "type": "function"
    },
    {
      "inputs": [],
      "name": "SECONDS_IN_UNIT",
      "outputs": [
        {
          "internalType": "uint256",
          "name": "",
          "type": "uint256"
        }
      ],
      "stateMutability": "view",
      "type": "function"
    },
    {
      "inputs": [],
      "name": "UPGRADE_INTERFACE_VERSION",
      "outputs": [
        {
          "internalType": "string",
          "name": "",
          "type": "string"
        }
      ],
      "stateMutability": "view",
      "type": "function"
    },
    {
      "inputs": [
        {
          "internalType": "uint256",
          "name": "mcAmount",
          "type": "uint256"
        },
        {
          "internalType": "uint256",
          "name": "jbcAmount",
          "type": "uint256"
        }
      ],
      "name": "addLiquidity",
      "outputs": [],
      "stateMutability": "nonpayable",
      "type": "function"
    },
    {
      "inputs": [
        {
          "internalType": "address",
          "name": "user",
          "type": "address"
        },
        {
          "internalType": "address",
          "name": "newReferrer",
          "type": "address"
        }
      ],
      "name": "adminSetReferrer",
      "outputs": [],
      "stateMutability": "nonpayable",
      "type": "function"
    },
    {
      "inputs": [
        {
          "internalType": "address",
          "name": "_referrer",
          "type": "address"
        }
      ],
      "name": "bindReferrer",
      "outputs": [],
      "stateMutability": "nonpayable",
      "type": "function"
    },
    {
      "inputs": [
        {
          "internalType": "uint256",
          "name": "amount",
          "type": "uint256"
        }
      ],
      "name": "buyTicket",
      "outputs": [],
      "stateMutability": "nonpayable",
      "type": "function"
    },
    {
      "inputs": [],
      "name": "buybackPercent",
      "outputs": [
        {
          "internalType": "uint256",
          "name": "",
          "type": "uint256"
        }
      ],
      "stateMutability": "view",
      "type": "function"
    },
    {
      "inputs": [],
      "name": "buybackWallet",
      "outputs": [
        {
          "internalType": "address",
          "name": "",
          "type": "address"
        }
      ],
      "stateMutability": "view",
      "type": "function"
    },
    {
      "inputs": [
        {
          "internalType": "uint256",
          "name": "teamCount",
          "type": "uint256"
        }
      ],
      "name": "calculateLevel",
      "outputs": [
        {
          "internalType": "uint256",
          "name": "level",
          "type": "uint256"
        },
        {
          "internalType": "uint256",
          "name": "percent",
          "type": "uint256"
        }
      ],
      "stateMutability": "pure",
      "type": "function"
    },
    {
      "inputs": [],
      "name": "claimRewards",
      "outputs": [],
      "stateMutability": "nonpayable",
      "type": "function"
    },
    {
      "inputs": [],
      "name": "dailyBurn",
      "outputs": [],
      "stateMutability": "nonpayable",
      "type": "function"
    },
    {
      "inputs": [
        {
          "internalType": "address",
          "name": "",
          "type": "address"
        },
        {
          "internalType": "uint256",
          "name": "",
          "type": "uint256"
        }
      ],
      "name": "directReferrals",
      "outputs": [
        {
          "internalType": "address",
          "name": "",
          "type": "address"
        }
      ],
      "stateMutability": "view",
      "type": "function"
    },
    {
      "inputs": [],
      "name": "directRewardPercent",
      "outputs": [
        {
          "internalType": "uint256",
          "name": "",
          "type": "uint256"
        }
      ],
      "stateMutability": "view",
      "type": "function"
    },
    {
      "inputs": [],
      "name": "emergencyPause",
      "outputs": [],
      "stateMutability": "nonpayable",
      "type": "function"
    },
    {
      "inputs": [],
      "name": "emergencyPaused",
      "outputs": [
        {
          "internalType": "bool",
          "name": "",
          "type": "bool"
        }
      ],
      "stateMutability": "view",
      "type": "function"
    },
    {
      "inputs": [],
      "name": "emergencyUnpause",
      "outputs": [],
      "stateMutability": "nonpayable",
      "type": "function"
    },
    {
      "inputs": [
        {
          "internalType": "address",
          "name": "user",
          "type": "address"
        }
      ],
      "name": "getDirectReferrals",
      "outputs": [
        {
          "internalType": "address[]",
          "name": "",
          "type": "address[]"
        }
      ],
      "stateMutability": "view",
      "type": "function"
    },
    {
      "inputs": [
        {
          "internalType": "uint256",
          "name": "activeDirects",
          "type": "uint256"
        }
      ],
      "name": "getLevelRewardLayers",
      "outputs": [
        {
          "internalType": "uint256",
          "name": "",
          "type": "uint256"
        }
      ],
      "stateMutability": "pure",
      "type": "function"
    },
    {
      "inputs": [
        {
          "internalType": "address",
          "name": "user",
          "type": "address"
        }
      ],
      "name": "getUserLevel",
      "outputs": [
        {
          "internalType": "uint256",
          "name": "level",
          "type": "uint256"
        },
        {
          "internalType": "uint256",
          "name": "percent",
          "type": "uint256"
        },
        {
          "internalType": "uint256",
          "name": "teamCount",
          "type": "uint256"
        }
      ],
      "stateMutability": "view",
      "type": "function"
    },
    {
      "inputs": [
        {
          "internalType": "address",
          "name": "_mcToken",
          "type": "address"
        },
        {
          "internalType": "address",
          "name": "_jbcToken",
          "type": "address"
        },
        {
          "internalType": "address",
          "name": "_marketing",
          "type": "address"
        },
        {
          "internalType": "address",
          "name": "_treasury",
          "type": "address"
        },
        {
          "internalType": "address",
          "name": "_lpInjection",
          "type": "address"
        },
        {
          "internalType": "address",
          "name": "_buybackWallet",
          "type": "address"
        }
      ],
      "name": "initialize",
      "outputs": [],
      "stateMutability": "nonpayable",
      "type": "function"
    },
    {
      "inputs": [],
      "name": "jbcToken",
      "outputs": [
        {
          "internalType": "contract IJBC",
          "name": "",
          "type": "address"
        }
      ],
      "stateMutability": "view",
      "type": "function"
    },
    {
      "inputs": [],
      "name": "lastBurnTime",
      "outputs": [
        {
          "internalType": "uint256",
          "name": "",
          "type": "uint256"
        }
      ],
      "stateMutability": "view",
      "type": "function"
    },
    {
      "inputs": [
        {
          "internalType": "uint256",
          "name": "",
          "type": "uint256"
        }
      ],
      "name": "levelConfigs",
      "outputs": [
        {
          "internalType": "uint256",
          "name": "minDirects",
          "type": "uint256"
        },
        {
          "internalType": "uint256",
          "name": "level",
          "type": "uint256"
        },
        {
          "internalType": "uint256",
          "name": "percent",
          "type": "uint256"
        }
      ],
      "stateMutability": "view",
      "type": "function"
    },
    {
      "inputs": [],
      "name": "levelRewardPercent",
      "outputs": [
        {
          "internalType": "uint256",
          "name": "",
          "type": "uint256"
        }
      ],
      "stateMutability": "view",
      "type": "function"
    },
    {
      "inputs": [],
      "name": "levelRewardPool",
      "outputs": [
        {
          "internalType": "uint256",
          "name": "",
          "type": "uint256"
        }
      ],
      "stateMutability": "view",
      "type": "function"
    },
    {
      "inputs": [],
      "name": "liquidityEnabled",
      "outputs": [
        {
          "internalType": "bool",
          "name": "",
          "type": "bool"
        }
      ],
      "stateMutability": "view",
      "type": "function"
    },
    {
      "inputs": [],
      "name": "lpInjectionPercent",
      "outputs": [
        {
          "internalType": "uint256",
          "name": "",
          "type": "uint256"
        }
      ],
      "stateMutability": "view",
      "type": "function"
    },
    {
      "inputs": [],
      "name": "lpInjectionWallet",
      "outputs": [
        {
          "internalType": "address",
          "name": "",
          "type": "address"
        }
      ],
      "stateMutability": "view",
      "type": "function"
    },
    {
      "inputs": [],
      "name": "marketingPercent",
      "outputs": [
        {
          "internalType": "uint256",
          "name": "",
          "type": "uint256"
        }
      ],
      "stateMutability": "view",
      "type": "function"
    },
    {
      "inputs": [],
      "name": "marketingWallet",
      "outputs": [
        {
          "internalType": "address",
          "name": "",
          "type": "address"
        }
      ],
      "stateMutability": "view",
      "type": "function"
    },
    {
      "inputs": [],
      "name": "mcToken",
      "outputs": [
        {
          "internalType": "contract IERC20",
          "name": "",
          "type": "address"
        }
      ],
      "stateMutability": "view",
      "type": "function"
    },
    {
      "inputs": [],
      "name": "nextStakeId",
      "outputs": [
        {
          "internalType": "uint256",
          "name": "",
          "type": "uint256"
        }
      ],
      "stateMutability": "view",
      "type": "function"
    },
    {
      "inputs": [],
      "name": "nextTicketId",
      "outputs": [
        {
          "internalType": "uint256",
          "name": "",
          "type": "uint256"
        }
      ],
      "stateMutability": "view",
      "type": "function"
    },
    {
      "inputs": [],
      "name": "owner",
      "outputs": [
        {
          "internalType": "address",
          "name": "",
          "type": "address"
        }
      ],
      "stateMutability": "view",
      "type": "function"
    },
    {
      "inputs": [],
      "name": "priceOracle",
      "outputs": [
        {
          "internalType": "address",
          "name": "",
          "type": "address"
        }
      ],
      "stateMutability": "view",
      "type": "function"
    },
    {
      "inputs": [],
      "name": "proxiableUUID",
      "outputs": [
        {
          "internalType": "bytes32",
          "name": "",
          "type": "bytes32"
        }
      ],
      "stateMutability": "view",
      "type": "function"
    },
    {
      "inputs": [],
      "name": "redeem",
      "outputs": [],
      "stateMutability": "nonpayable",
      "type": "function"
    },
    {
      "inputs": [],
      "name": "redeemEnabled",
      "outputs": [
        {
          "internalType": "bool",
          "name": "",
          "type": "bool"
        }
      ],
      "stateMutability": "view",
      "type": "function"
    },
    {
      "inputs": [],
      "name": "redemptionFeePercent",
      "outputs": [
        {
          "internalType": "uint256",
          "name": "",
          "type": "uint256"
        }
      ],
      "stateMutability": "view",
      "type": "function"
    },
    {
      "inputs": [],
      "name": "renounceOwnership",
      "outputs": [],
      "stateMutability": "nonpayable",
      "type": "function"
    },
    {
      "inputs": [
        {
          "internalType": "address",
          "name": "_token",
          "type": "address"
        },
        {
          "internalType": "address",
          "name": "_to",
          "type": "address"
        },
        {
          "internalType": "uint256",
          "name": "_amount",
          "type": "uint256"
        }
      ],
      "name": "rescueTokens",
      "outputs": [],
      "stateMutability": "nonpayable",
      "type": "function"
    },
    {
      "inputs": [
        {
          "internalType": "uint256",
          "name": "_direct",
          "type": "uint256"
        },
        {
          "internalType": "uint256",
          "name": "_level",
          "type": "uint256"
        },
        {
          "internalType": "uint256",
          "name": "_marketing",
          "type": "uint256"
        },
        {
          "internalType": "uint256",
          "name": "_buyback",
          "type": "uint256"
        },
        {
          "internalType": "uint256",
          "name": "_lpInjection",
          "type": "uint256"
        },
        {
          "internalType": "uint256",
          "name": "_treasury",
          "type": "uint256"
        }
      ],
      "name": "setDistributionConfig",
      "outputs": [],
      "stateMutability": "nonpayable",
      "type": "function"
    },
    {
      "inputs": [
        {
          "internalType": "bool",
          "name": "_liquidityEnabled",
          "type": "bool"
        },
        {
          "internalType": "bool",
          "name": "_redeemEnabled",
          "type": "bool"
        }
      ],
      "name": "setOperationalStatus",
      "outputs": [],
      "stateMutability": "nonpayable",
      "type": "function"
    },
    {
      "inputs": [
        {
          "internalType": "uint256",
          "name": "_fee",
          "type": "uint256"
        }
      ],
      "name": "setRedemptionFeePercent",
      "outputs": [],
      "stateMutability": "nonpayable",
      "type": "function"
    },
    {
      "inputs": [
        {
          "internalType": "uint256",
          "name": "_buyTax",
          "type": "uint256"
        },
        {
          "internalType": "uint256",
          "name": "_sellTax",
          "type": "uint256"
        }
      ],
      "name": "setSwapTaxes",
      "outputs": [],
      "stateMutability": "nonpayable",
      "type": "function"
    },
    {
      "inputs": [
        {
          "internalType": "uint256",
          "name": "_duration",
          "type": "uint256"
        }
      ],
      "name": "setTicketFlexibilityDuration",
      "outputs": [],
      "stateMutability": "nonpayable",
      "type": "function"
    },
    {
      "inputs": [
        {
          "internalType": "address",
          "name": "_marketing",
          "type": "address"
        },
        {
          "internalType": "address",
          "name": "_treasury",
          "type": "address"
        },
        {
          "internalType": "address",
          "name": "_lpInjection",
          "type": "address"
        },
        {
          "internalType": "address",
          "name": "_buyback",
          "type": "address"
        }
      ],
      "name": "setWallets",
      "outputs": [],
      "stateMutability": "nonpayable",
      "type": "function"
    },
    {
      "inputs": [
        {
          "internalType": "uint256",
          "name": "amount",
          "type": "uint256"
        },
        {
          "internalType": "uint256",
          "name": "cycleDays",
          "type": "uint256"
        }
      ],
      "name": "stakeLiquidity",
      "outputs": [],
      "stateMutability": "nonpayable",
      "type": "function"
    },
    {
      "inputs": [
        {
          "internalType": "uint256",
          "name": "",
          "type": "uint256"
        }
      ],
      "name": "stakeOwner",
      "outputs": [
        {
          "internalType": "address",
          "name": "",
          "type": "address"
        }
      ],
      "stateMutability": "view",
      "type": "function"
    },
    {
      "inputs": [
        {
          "internalType": "uint256",
          "name": "",
          "type": "uint256"
        },
        {
          "internalType": "uint256",
          "name": "",
          "type": "uint256"
        }
      ],
      "name": "stakePendingRewards",
      "outputs": [
        {
          "internalType": "address",
          "name": "upline",
          "type": "address"
        },
        {
          "internalType": "uint256",
          "name": "amount",
          "type": "uint256"
        }
      ],
      "stateMutability": "view",
      "type": "function"
    },
    {
      "inputs": [],
      "name": "swapBuyTax",
      "outputs": [
        {
          "internalType": "uint256",
          "name": "",
          "type": "uint256"
        }
      ],
      "stateMutability": "view",
      "type": "function"
    },
    {
      "inputs": [
        {
          "internalType": "uint256",
          "name": "jbcAmount",
          "type": "uint256"
        }
      ],
      "name": "swapJBCToMC",
      "outputs": [],
      "stateMutability": "nonpayable",
      "type": "function"
    },
    {
      "inputs": [
        {
          "internalType": "uint256",
          "name": "mcAmount",
          "type": "uint256"
        }
      ],
      "name": "swapMCToJBC",
      "outputs": [],
      "stateMutability": "nonpayable",
      "type": "function"
    },
    {
      "inputs": [],
      "name": "swapReserveJBC",
      "outputs": [
        {
          "internalType": "uint256",
          "name": "",
          "type": "uint256"
        }
      ],
      "stateMutability": "view",
      "type": "function"
    },
    {
      "inputs": [],
      "name": "swapReserveMC",
      "outputs": [
        {
          "internalType": "uint256",
          "name": "",
          "type": "uint256"
        }
      ],
      "stateMutability": "view",
      "type": "function"
    },
    {
      "inputs": [],
      "name": "swapSellTax",
      "outputs": [
        {
          "internalType": "uint256",
          "name": "",
          "type": "uint256"
        }
      ],
      "stateMutability": "view",
      "type": "function"
    },
    {
      "inputs": [],
      "name": "ticketFlexibilityDuration",
      "outputs": [
        {
          "internalType": "uint256",
          "name": "",
          "type": "uint256"
        }
      ],
      "stateMutability": "view",
      "type": "function"
    },
    {
      "inputs": [
        {
          "internalType": "uint256",
          "name": "",
          "type": "uint256"
        }
      ],
      "name": "ticketOwner",
      "outputs": [
        {
          "internalType": "address",
          "name": "",
          "type": "address"
        }
      ],
      "stateMutability": "view",
      "type": "function"
    },
    {
      "inputs": [
        {
          "internalType": "uint256",
          "name": "",
          "type": "uint256"
        },
        {
          "internalType": "uint256",
          "name": "",
          "type": "uint256"
        }
      ],
      "name": "ticketPendingRewards",
      "outputs": [
        {
          "internalType": "address",
          "name": "upline",
          "type": "address"
        },
        {
          "internalType": "uint256",
          "name": "amount",
          "type": "uint256"
        }
      ],
      "stateMutability": "view",
      "type": "function"
    },
    {
      "inputs": [
        {
          "internalType": "address",
          "name": "newOwner",
          "type": "address"
        }
      ],
      "name": "transferOwnership",
      "outputs": [],
      "stateMutability": "nonpayable",
      "type": "function"
    },
    {
      "inputs": [],
      "name": "treasuryPercent",
      "outputs": [
        {
          "internalType": "uint256",
          "name": "",
          "type": "uint256"
        }
      ],
      "stateMutability": "view",
      "type": "function"
    },
    {
      "inputs": [],
      "name": "treasuryWallet",
      "outputs": [
        {
          "internalType": "address",
          "name": "",
          "type": "address"
        }
      ],
      "stateMutability": "view",
      "type": "function"
    },
    {
      "inputs": [
        {
          "internalType": "address",
          "name": "newImplementation",
          "type": "address"
        },
        {
          "internalType": "bytes",
          "name": "data",
          "type": "bytes"
        }
      ],
      "name": "upgradeToAndCall",
      "outputs": [],
      "stateMutability": "payable",
      "type": "function"
    },
    {
      "inputs": [
        {
          "internalType": "address",
          "name": "",
          "type": "address"
        }
      ],
      "name": "userInfo",
      "outputs": [
        {
          "internalType": "address",
          "name": "referrer",
          "type": "address"
        },
        {
          "internalType": "uint256",
          "name": "activeDirects",
          "type": "uint256"
        },
        {
          "internalType": "uint256",
          "name": "teamCount",
          "type": "uint256"
        },
        {
          "internalType": "uint256",
          "name": "totalRevenue",
          "type": "uint256"
        },
        {
          "internalType": "uint256",
          "name": "currentCap",
          "type": "uint256"
        },
        {
          "internalType": "bool",
          "name": "isActive",
          "type": "bool"
        },
        {
          "internalType": "uint256",
          "name": "refundFeeAmount",
          "type": "uint256"
        },
        {
          "internalType": "uint256",
          "name": "teamTotalVolume",
          "type": "uint256"
        },
        {
          "internalType": "uint256",
          "name": "teamTotalCap",
          "type": "uint256"
        },
        {
          "internalType": "uint256",
          "name": "maxTicketAmount",
          "type": "uint256"
        },
        {
          "internalType": "uint256",
          "name": "maxSingleTicketAmount",
          "type": "uint256"
        }
      ],
      "stateMutability": "view",
      "type": "function"
    },
    {
      "inputs": [
        {
          "internalType": "address",
          "name": "",
          "type": "address"
        },
        {
          "internalType": "uint256",
          "name": "",
          "type": "uint256"
        }
      ],
      "name": "userStakes",
      "outputs": [
        {
          "internalType": "uint256",
          "name": "id",
          "type": "uint256"
        },
        {
          "internalType": "uint256",
          "name": "amount",
          "type": "uint256"
        },
        {
          "internalType": "uint256",
          "name": "startTime",
          "type": "uint256"
        },
        {
          "internalType": "uint256",
          "name": "cycleDays",
          "type": "uint256"
        },
        {
          "internalType": "bool",
          "name": "active",
          "type": "bool"
        },
        {
          "internalType": "uint256",
          "name": "paid",
          "type": "uint256"
        }
      ],
      "stateMutability": "view",
      "type": "function"
    },
    {
      "inputs": [
        {
          "internalType": "address",
          "name": "",
          "type": "address"
        }
      ],
      "name": "userTicket",
      "outputs": [
        {
          "internalType": "uint256",
          "name": "ticketId",
          "type": "uint256"
        },
        {
          "internalType": "uint256",
          "name": "amount",
          "type": "uint256"
        },
        {
          "internalType": "uint256",
          "name": "purchaseTime",
          "type": "uint256"
        },
        {
          "internalType": "bool",
          "name": "exited",
          "type": "bool"
        }
      ],
      "stateMutability": "view",
      "type": "function"
    },
    {
      "inputs": [
        {
          "internalType": "address",
          "name": "_to",
          "type": "address"
        },
        {
          "internalType": "uint256",
          "name": "_amount",
          "type": "uint256"
        }
      ],
      "name": "withdrawLevelRewardPool",
      "outputs": [],
      "stateMutability": "nonpayable",
      "type": "function"
    },
    {
      "inputs": [
        {
          "internalType": "address",
          "name": "_toMC",
          "type": "address"
        },
        {
          "internalType": "uint256",
          "name": "_amountMC",
          "type": "uint256"
        },
        {
          "internalType": "address",
          "name": "_toJBC",
          "type": "address"
        },
        {
          "internalType": "uint256",
          "name": "_amountJBC",
          "type": "uint256"
        }
      ],
      "name": "withdrawSwapReserves",
      "outputs": [],
      "stateMutability": "nonpayable",
      "type": "function"
    }
  ],
  "bytecode": "0x60a08060405234620000d157306080527ff0c57e16840df040f15088dc2f81fe391c3923bec73e23a9662efc9c229c6a009081549060ff8260401c16620000c257506001600160401b036002600160401b0319828216016200007c575b6040516157999081620000d782396080518181816122ec01526126c60152f35b6001600160401b031990911681179091556040519081527fc7f505b2f371ae2175ee4913f4499e1f2633a7b5936321eed1cdaeb6115181d290602090a13880806200005c565b63f92ee8a960e01b8152600490fd5b600080fdfe6080604052600436101561001257600080fd5b6000803560e01c806301d62efb146136e157806304ef9d58146136c357806304f618cb1461350957806305ad3935146134ae5780630a5c45671461324a5780630e2be2101461322e5780631427f616146132125780631788513c146131e9578063182c84cc146131c25780631959a002146131105780631d0dac76146130f257806321923bde146130a357806321b77d631461307f57806321f483d3146130375780632630c12f1461300a57806327c830a914612fe757806327f082f414612fc9578063372500ab14612fa85780633dbd46bd14612f755780634626402b14612f4c578063488b5d9714612f305780634a4e3bd514612ee65780634ea4c6b31461287e5780634f1ef2861461264b57806351858e27146125fe57806352778b051461234457806352d1902d146122d95780636031a52f146122bb57806367dd74ca14611a965780636839b5fa14611a795780636dd6682714611a5b578063715018a614611a0257806375506c96146119e457806375f0a874146119bb57806377a2a5401461199d578063813380cd1461196f57806381eeef5c1461186857806383672f3e146117705780638710bcaa1461170f57806388481b61146116f357806388fd4d33146116ca5780638a859a85146116ae5780638c0eaa48146116925780638da5cb5b1461165c57806390b0eb511461160c5780639370b080146115ee57806395253992146115c757806399b6024d146115015780639cd441da1461135e5780639d99eca414611310578063a2af9226146112dd578063ac8f50aa14611289578063ad3cb1cc14611247578063b048a4bb14611224578063b5d5b5fa14611196578063b759936b14611178578063bd594dcf1461115a578063be040fb014610b03578063c2ff12fc14610ad0578063cc2a9a5b146108bd578063ccf619441461089f578063cea9d26f146107a3578063ceaa366d14610785578063d0f16470146106fb578063d2c8e0e51461064c578063d2f8253614610626578063d4f001421461049f578063d8020a1814610481578063dce3dc1f14610456578063deab8aea1461042d578063dec7fa3b1461040f578063e3067449146103f1578063e4412f68146103d3578063ece71266146103855763f2fde38b1461035657600080fd5b346103825760203660031901126103825761037f610372613788565b61037a61437d565b61431b565b80f35b80fd5b5034610382576020366003190112610382577fc7f6975dcffc536e6e57dd1d1dea810fff534a70563baf2d6f977b119bd00e1b60206004356103c561437d565b80600c55604051908152a180f35b50346103825780600319360112610382576020600954604051908152f35b50346103825780600319360112610382576020601b54604051908152f35b50346103825780600319360112610382576020600c54604051908152f35b50346103825780600319360112610382576005546040516001600160a01b039091168152602090f35b50346103825760203660031901126103825760406104756004356143e6565b82519182526020820152f35b50346103825780600319360112610382576020600854604051908152f35b5034610382576080366003190112610382576104b9613788565b602435906104c56137b4565b82606435926104d261437d565b816105a8575b505081610502575b506000805160206156648339815191529160409182519182526020820152a180f35b916020826105429461051682601854613a15565b60185560018060a01b0360015416908760405180988195829463a9059cbb60e01b8452600484016138c2565b03925af191821561059d576000805160206156648339815191529360409361056e575b509150916104e0565b61058f9060203d602011610596575b6105878183613868565b810190613985565b5038610565565b503d61057d565b6040513d86823e3d90fd5b816020916105bb6105e694601754613a15565b60175560018060a01b03885416908860405180968195829463a9059cbb60e01b8452600484016138c2565b03925af1801561061b576105fc575b83906104d8565b6106149060203d602011610596576105878183613868565b50386105f5565b6040513d87823e3d90fd5b5034610382578060031936011261038257602060ff60165460081c166040519015158152f35b50346103825760209081600319360112610382576001600160a01b03919082610673613788565b168152601282526040812090604051808484549182815201908194845285842090845b8181106106e557505050816106ac910382613868565b6040519380850191818652518092526040850193925b8281106106cf5785850386f35b83518716855293810193928101926001016106c2565b8254891684529287019260019283019201610696565b50346103825760c0366003190112610382577f66682b276e4cd1a4e1f68b55b1143766c5332f472eb593cf2a70a25d9d5d991760c060043560a43560843560643560443560243561074a61437d565b8560065580600755816008558260095583600a5584600b55604051958652602086015260408501526060840152608083015260a0820152a180f35b50346103825780600319360112610382576020600a54604051908152f35b5034610382576060366003190112610382576107bd613788565b6107c561379e565b604435916107d161437d565b83546001600160a01b038281169491811685148015610892575b61088057831615610880576020604051809563a9059cbb60e01b8252818881610818878a600484016138c2565b03925af190811561061b577f77023e19c7343ad491fd706c36335ca0e738340a91f29b1fd81e2673d44896c49461085b92610861575b506040519384938461399d565b0390a180f35b6108799060203d602011610596576105878183613868565b503861084e565b60405163e6c4247b60e01b8152600490fd5b50806001541685146107eb565b50346103825780600319360112610382576020600654604051908152f35b50346103825760c0366003190112610382576108d7613788565b6108df61379e565b6108e76137b4565b6108ef6137ca565b916001600160a01b0360843581811690819003610acb5760a43592828416809403610acb5760008051602061574483398151915295865460ff8160401c16159660018060401b038216998a1580610ac4575b6001809c149081610aba575b159081610ab1575b50610a9f576001600160401b031983168b178a558694859384928e918c610a84575b50610980615511565b610988615511565b6109913361431b565b610999615511565b6109a1615511565b6109a9615511565b8d6000805160206157048339815191525560018060a01b0319998a9116915416178d5516868b5416178a55168460025416176002551682600354161760035581600454161760045560055416176005556019600655600f600755600560085560056009556019600a556019600b5582600c556032600d556019600e556203f48060155561010161ffff19601654161760165542601b55610a47578280f35b805460ff60401b191690556040519081527fc7f505b2f371ae2175ee4913f4499e1f2633a7b5936321eed1cdaeb6115181d290602090a138808280f35b6001600160481b0319166001600160401b01178d5538610977565b60405163f92ee8a960e01b8152600490fd5b90501538610955565b303b15915061094d565b5088610941565b600080fd5b5034610382576020366003190112610382576020906004358152601c8252604060018060a01b0391205416604051908152f35b5034610382578060031936011261038257610b1c6143b6565b60ff8060165460081c16156111495733825260119160206011815260408220938283908492855b8854811015610cca57876004610b59838c613926565b5001541615610cc2576002610b6e828b613926565b5001546003610b7d838c613926565b50015490603c91828102928184041490151715610cae5790610b9e916139e8565b421015610bb0575b6001905b01610b43565b809293610bbd828b613926565b50610bc790614495565b9586610bd2916139e8565b95610bdd838c613926565b5060050190815490610bee916139e8565b9055338852600f87526040882060090154908a89898415956064610c29610c559760019995610c30958b97610c9a575b5050600c54906139bf565b0493613926565b50015481811115610c875790610c4981610c4f93613a15565b926139e8565b956139e8565b926004610c62828c613926565b5001805460ff19169055610c80610c79828c613926565b5054614574565b9050610ba6565b9050610c92916139e8565b9488906139e8565b879250906010604092522001548f8f610c1e565b634e487b7160e01b89526004849052602489fd5b600190610baa565b5050909291811590818092611141575b61112f578461111b575b80610dbe575b5015610d57575b600f926040519182528282015260008051602061572483398151915260403392a2610d1b33614b1d565b3383525260408120600460038201549101541115610d49575b60016000805160206157048339815191525580f35b610d52336146fc565b610d34565b835460405163a9059cbb60e01b81529390839085906001600160a01b0316818881610d868833600484016138c2565b03925af193841561061b57600f94610da1575b509250610cf1565b610db790843d8611610596576105878183613868565b5085610d99565b338652600f8452610ddc604087206003600482015491015490613a15565b8082116110f5575b508015610cea57338652600f845260036040872001610e048282546139e8565b905585546040516370a0823160e01b808252306004830152889390926001600160a01b0392600183901c918416908981602481855afa80156110ea5783918d916110b9575b501015806110b0575b61104c575b5060185480158015611038575b15610ff75750670de0b6b3a7640000905b670de0b6b3a764000090818102918183041490151715610fe35790610e99916139f5565b899260015416936040519081523060048201528881602481885afa8015610fd85782918c91610fa7575b50101580610f9e575b610f2a575b506000805160206155e483398151915292506040519081526000878201526000805160206156e483398151915260403392a233885260108652604088205490610f21604051928392339684613a52565b0390a285610cea565b90915086604051809463a9059cbb60e01b8252818c81610f4e8733600484016138c2565b03925af1928315610f93576000805160206155e483398151915293610f76575b509089610ed1565b610f8c90883d8a11610596576105878183613868565b5089610f6e565b6040513d8b823e3d90fd5b50801515610ecc565b8092508a8092503d8311610fd1575b610fc08183613868565b81010312610acb578190518c610ec3565b503d610fb6565b6040513d8d823e3d90fd5b634e487b7160e01b8b52601160045260248bfd5b601754670de0b6b3a764000090818102918183041490151715611024579061101e916139f5565b90610e75565b634e487b7160e01b8c52601160045260248cfd5b50683635c9adc5dea0000060175410610e64565b60405163a9059cbb60e01b815291955088908290818d816110718b33600484016138c2565b03925af180156110a557611088575b50838a610e57565b61109e90883d8a11610596576105878183613868565b5089611080565b6040513d8c823e3d90fd5b50811515610e52565b8092508b8092503d83116110e3575b6110d28183613868565b81010312610acb578290518d610e49565b503d6110c8565b6040513d8e823e3d90fd5b90604051908152818582015260008051602061564483398151915260403392a286610de4565b611127856017546139e8565b601755610ce4565b6040516304c4857b60e51b8152600490fd5b508015610cda565b6040516282b42960e81b8152600490fd5b50346103825780600319360112610382576020600754604051908152f35b50346103825780600319360112610382576020601f54604051908152f35b5034610382576040366003190112610382576111b0613788565b6001600160a01b03168152601160205260408120805460243592908310156103825760c06111de8484613926565b508054906001810154906002810154600382015490600560ff600485015416930154936040519586526020860152604085015260608401521515608083015260a0820152f35b5034610382578060031936011261038257602060ff601654166040519015158152f35b50346103825780600319360112610382576112856040516112678161384d565b60058152640352e302e360dc1b6020820152604051918291826138dd565b0390f35b50346103825761129836613824565b908252601d6020526040822080548210156112d9576112b792506138a6565b508054600190910154604051918291611285916001600160a01b0316836138c2565b8280fd5b50346103825760403660031901126103825761037f6112fa613788565b61130261379e565b9061130b61437d565b614027565b5034610382576020366003190112610382577fd28d9e4ce68d89af7920cb8618e342a78f51e545c530ce60f1cb1d6f0235b47f602060043561135061437d565b80601555604051908152a180f35b50346103825761136d36613824565b61137561437d565b81611486575b806113a2575b6000805160206155c48339815191529160409182519182526020820152a180f35b6001546040516323b872dd60e01b81529060209082906001600160a01b03168187816113d38830336004850161399d565b03925af19081611467575b5061143c576113eb613f98565b6308c379a014611408575b6040516320a9b82760e21b8152600490fd5b611410613fb6565b8061141b57506113f6565b6040516387a26b7560e01b815290819061143890600483016138dd565b0390fd5b6000805160206155c4833981519152918161145b6040936018546139e8565b60185591509150611381565b61147f9060203d602011610596576105878183613868565b50386113de565b82546040516323b872dd60e01b81529060209082906001600160a01b03168187816114b68930336004850161399d565b03925af190816114e2575b506114ce576113eb613f98565b6114da826017546139e8565b60175561137b565b6114fa9060203d602011610596576105878183613868565b50386114c1565b50346103825760403660031901126103825761151b613788565b6024359061152761437d565b61153382601f54613a15565b601f55825460405163a9059cbb60e01b815291906001600160a01b0390602090849083168188816115688a89600484016138c2565b03925af191821561061b577f27971ee1acbfbdfb20656657ceb2e0e7b519b9e60fe1a6b1f6d27b159f4a607c936020936115aa575b506040519485521692a280f35b6115c090843d8611610596576105878183613868565b503861159d565b5034610382578060031936011261038257546040516001600160a01b039091168152602090f35b50346103825780600319360112610382576020600e54604051908152f35b5034610382577f4e9dd03193a0c81552fb8e6d32280f0d7e0ce8087241dc3d17ef3d193ee231d7604061163e36613824565b61164661437d565b81600d5580600e5582519182526020820152a180f35b5034610382578060031936011261038257600080516020615604833981519152546040516001600160a01b039091168152602090f35b5034610382578060031936011261038257602060405160038152f35b5034610382578060031936011261038257602060405160018152f35b50346103825780600319360112610382576004546040516001600160a01b039091168152602090f35b5034610382578060031936011261038257602060405160048152f35b5034610382576020366003190112610382576080906040906001600160a01b03611737613788565b16815260106020522080549060018101549060ff6003600283015492015416916040519384526020840152604083015215156060820152f35b50346103825760803660031901126103825761178a613788565b61179261379e565b9061179b6137b4565b916117a46137ca565b906117ad61437d565b6001600160a01b03928316918215801561185e575b8015611854575b801561184a575b610880577f213f1de8063c19612a553f1480ff341bea689d36a56a2089f1b9060d599b5d8394848060809660018060a01b031995878760025416176002551692838660035416176003551692838560045416176004551680936005541617600555604051938452602084015260408301526060820152a180f35b50838116156117d0565b50838516156117c9565b50838216156117c2565b5034610382578060031936011261038257601b5462015180810180911161195b574210611949576018548015611937576064810490811561193757816118ad91613a15565b60185560015482906001600160a01b0316803b1561192857818091602460405180948193630852cd8d60e31b83528860048401525af1801561192c57611914575b5060008051602061568483398151915260408342601b558151908482526020820152a180f35b61191d9061383a565b6119285781386118ee565b5080fd5b6040513d84823e3d90fd5b60405163162908e360e11b8152600490fd5b604051636f47a98b60e11b8152600490fd5b634e487b7160e01b82526011600452602482fd5b50346103825761197e36613824565b90825260136020526040822080548210156112d9576112b792506138a6565b50346103825780600319360112610382576020601754604051908152f35b50346103825780600319360112610382576002546040516001600160a01b039091168152602090f35b50346103825780600319360112610382576020601a54604051908152f35b5034610382578060031936011261038257611a1b61437d565b60008051602061560483398151915280546001600160a01b031981169091556000906001600160a01b03166000805160206156a48339815191528280a380f35b50346103825780600319360112610382576020601554604051908152f35b503461038257806003193601126103825760206040516103e88152f35b503461038257602036600319011261038257611ab06143b6565b60ff604f54166122a957611ac333614bc7565b68056bc75e2d63100000600435141580612294575b8061227f575b8061226a575b6119375780546040516323b872dd60e01b81529060209082906001600160a01b0316818581611b1c600480359030903390850161399d565b03925af1801561192c5761224b575b5033815260106020526040812060038101805460ff161561217057611b51601954613f89565b806019558255600435600183015542600283015560ff198154169055338252600f602052816003604082200155600360043502600435810460031460043515171561215c57338352600f60205260046040842001555b600a6001820154338452600f60205260408420906009820180548211612154575b505001805460043511612149575b5080548252601c6020908152604080842080546001600160a01b031916339081179091558452600f9091528220546001600160a01b031680151580612135575b156120a957611c356064611c2e6006546004356139bf565b0482614d93565b908161207a575b50505b338252600f6020526040822054829182916001600160a01b031690829060043580159080046001141715612066579394915b6001600160a01b0381168015158061205c575b80612052575b15611d91578452600f6020526040842060ff60058201541615611d7257506001600160a01b0381168452600f60205260408420600101548390611ccc90613a22565b11611d08575b6001600160a01b039081168452600f60205260408420541691611cfe90611cf890613f89565b95613f89565b935b939491611c71565b611d1760646004350482614f97565b80611d23575b50611cd2565b9182611d2e916139e8565b913385526010602052604085205460405191825260036020830152604082015233906000805160206155a4833981519152606060018060a01b03851692a338611d1d565b5492956001600160a01b0390931692611d8b9150613f89565b93611d00565b848684611db06007916064611daa6007546004356139bf565b04613a15565b8061200d575b508260018060a01b038154166020611e0260018060a01b0360025416926064611de36008546004356139bf565b0460405195868094819363a9059cbb60e01b98898452600484016138c2565b03925af191821561061b57611e7092611fee575b50611e306064611e2a6009546004356139bf565b046152bd565b845460048054600a546020936001600160a01b0392831693921691606491611e5891356139bf565b049188604051809781958294898452600484016138c2565b03925af190811561061b57611ec592602092611fd1575b5060018060a01b0386541660018060a01b0360035416876064611eae600b546004356139bf565b0493604051968795869485938452600484016138c2565b03925af1801561059d57611fb2575b50336000908152600f60205260408120549092600435151592916001600160a01b03165b6001600160a01b031680151580611fa8575b15611f5357600052600f602052611f3683604060002090611f3c575b546001600160a01b031694613f89565b93611ef8565b838101611f4c60043582546139e8565b9055611f26565b8582611f5e33614b1d565b5460405190600435825260208201527f2a91574e12ad96234e84923e146b0946ecfb871cd8d5534dc1fdcbe87a7c01b360403392a260016000805160206157048339815191525580f35b50601e8510611f0a565b611fca9060203d602011610596576105878183613868565b5083611ed4565b611fe790833d8511610596576105878183613868565b5086611e87565b6120069060203d602011610596576105878183613868565b5085611e16565b60408161203d7fca2e2bff26d2adb9fe155e9265350494c16751676879cb7ced9141e0fcf3934393601f546139e8565b80601f5582519182526020820152a183611db6565b5060148710611c8a565b50600f8410611c84565b634e487b7160e01b84526011600452602484fd5b82546040519283526002602084015260408301526000805160206155a483398151915260603393a33880611c3c565b5081546002546006546120f6926020926001600160a01b03908116929116906064906120d7906004356139bf565b04918660405180968195829463a9059cbb60e01b8452600484016138c2565b03925af1801561212a5761210b575b50611c3f565b6121239060203d602011610596576105878183613868565b5038612105565b6040513d85823e3d90fd5b5080835260ff600560408520015416611c16565b600435905538611bd6565b553880611bc8565b634e487b7160e01b83526011600452602483fd5b600182018054806121de5750612187601954613f89565b806019558355600435905542600283015560ff198154169055338252600f602052816003604082200155600360043502600435810460031460043515171561215c57338352600f6020526004604084200155611ba7565b6121ed919250600435906139e8565b9055338252600f60205260ff600560408420015416612240575b600360043502600435810460031460043515171561215c57338352600f602052612239600460408520019182546139e8565b9055611ba7565b426002820155612207565b6122639060203d602011610596576105878183613868565b5038611b2b565b50683635c9adc5dea000006004351415611ae4565b50681b1ae4d6e2ef5000006004351415611ade565b50681043561a88293000006004351415611ad8565b60405163ab35696f60e01b8152600490fd5b50346103825780600319360112610382576020601954604051908152f35b50346103825780600319360112610382577f00000000000000000000000000000000000000000000000000000000000000006001600160a01b031630036123325760206040516000805160206156248339815191528152f35b60405163703e46dd60e11b8152600490fd5b50346103825760208060031936011261192857600435906123636143b6565b60ff604f54166122a957811561193757683635c9adc5dea0000080601754109081156125f2575b50612566576001546040516323b872dd60e01b81526001600160a01b03918390829084168188816123c08a30336004850161399d565b03925af1801561061b576125d5575b5060646123de600e54856139bf565b04906123ea8285613a15565b926127108085029085820414851517156125c15761240e6103e891601854906139f5565b1161193757858260015416803b1561192857818091602460405180948193630852cd8d60e31b83528a60048401525af1801561192c576125a9575b50506017549361245985826139bf565b906124716018549261246b83856139e8565b906139f5565b93885416956040516370a0823160e01b815230600482015284816024818b5afa80156110a55786918b91612578575b5010612566576124b485926124bc946139e8565b601855613a15565b60175580604051809563a9059cbb60e01b82528189816124e08833600484016138c2565b03925af193841561255b577f223c8ad0806f634524940a8595f819c5cfc7b1f4f4f45791269301df0a7e61d59461253d575b505061252560405192839233968461380e565b0390a260016000805160206157048339815191525580f35b8161255392903d10610596576105878183613868565b503880612512565b6040513d88823e3d90fd5b6040516343c7ad8160e11b8152600490fd5b809250868092503d83116125a2575b6125918183613868565b81010312610acb57859051386124a0565b503d612587565b6125b29061383a565b6125bd578538612449565b8580fd5b634e487b7160e01b87526011600452602487fd5b6125eb90833d8511610596576105878183613868565b50386123cf565b9050601854103861238a565b503461038257806003193601126103825761261761437d565b600160ff19604f541617604f557f4cb3183d0bf66f9634b15cfc3539fdddc96c2c9324848af89b56586a6739fec48180a180f35b50604036600319011261038257612660613788565b60249182356001600160401b038111611928573660238201121561192857806004013561268c8161388b565b9361269a6040519586613868565b81855260209182860193368883830101116125bd57818692898693018737870101526001600160a01b037f00000000000000000000000000000000000000000000000000000000000000008116308114908115612862575b50612332576126ff61437d565b8116946040516352d1902d60e01b815283816004818a5afa86918161282f575b5061273c57604051634c9c8ce360e01b8152600481018890528890fd5b8690886000805160206156248339815191529182810361281a5750843b15612804575080546001600160a01b031916821790556040518692917fbc7cd75a20ee27fd9adebab32041f755214dbc6bffa90cc0225b39da2e5c2d3b8480a28151156127e657506127d99482915190845af4903d156127dd573d6127bd8161388b565b906127cb6040519283613868565b81528581943d92013e615540565b5080f35b60609250615540565b945050505050346127f5575080f35b63b398979f60e01b8152600490fd5b604051634c9c8ce360e01b815260048101849052fd5b60405190632a87526960e21b82526004820152fd5b9091508481813d831161285b575b6128478183613868565b810103126128575751903861271f565b8680fd5b503d61283d565b90508160008051602061562483398151915254161415386126f2565b50346103825761288d36613824565b91906128976143b6565b60ff604f54166122a957338252601060205260408220600181015415612ed45760ff600382015416612ec257600784141580612eb7575b80612eac575b612e9a5781156119375782546040516323b872dd60e01b81529060209082906001600160a01b031681878161290e8930336004850161399d565b03925af1801561059d57612e7b575b50612929601a54613f89565b601a8190553384526011602052604080852090519160c083016001600160401b03811184821017612e65576040528252836020830152426040830152856060830152600160808301528460a0830152805490600160401b821015612e51579061299791600182018155613926565b919091612e3d5760a0816005925184556020810151600185015560408101516002850155606081015160038501556129e460808201511515600486019060ff801983541691151516179055565b0151910155601a548352601e602052604083203360018060a01b0319825416179055338352600f602052600a60408420018054918215612e2c575b505060968102908082046096149015171561215c5760649004810361193757612a4733614b1d565b601a54927fa8a1b9e33e503eed12bf7e7c8c01c7f3b60217a496bddd0f5db351dd8c056c1c60405180612a7d873395878461380e565b0390a2338252600f6020526040822054829081906001600160a01b03165b6001600160a01b038116151580612e22575b15612e17576001600160a01b0381168552600f60205260408520600581015460ff1615612e0257506001600160a01b03811685526010602052604085206001810154908115908115612df3575b50612dce576001600160a01b0382168652600f6020526040862060020154612b21906143e6565b919050838211612cc6575b50602d1115612b60576001600160a01b039081168552600f60205260408520541691612b5790613f89565b925b9291612a9b565b5050505090505b338152600f602052600660408220018181549182612b96575b5060016000805160206157048339815191525580f35b556017548181101580612c4e575b612bb0575b8290612b80565b81612bba91613a15565b601755815460405163a9059cbb60e01b81529060209082906001600160a01b0316818681612bec8833600484016138c2565b03925af1801561212a57612c2f575b506040519081527f3437b9ea7fa19c6d233dd70cc787a70fab87cee64d8ba4571512cc84402748f960203392a23880612ba9565b612c479060203d602011610596576105878183613868565b5038612bfb565b5082546040516370a0823160e01b815230600482015290602090829060249082906001600160a01b03165afa801561059d5783918591612c91575b501015612ba4565b9150506020813d602011612cbe575b81612cad60209383613868565b81010312610acb5782905138612c89565b3d9150612ca0565b612ce890612cd78395606494613a15565b908790808911612dc6575b506139bf565b04868652601d6020526040862060405190612d028261384d565b6001600160a01b038416825260208201839052805490600160401b821015612db25790612d34916001820181556138a6565b919091612d9e57805182546001600160a01b0319166001600160a01b03918216178355602091820151600193909301929092556040519283529083169188917f7c6505ab8279235ad21ebf427336cc8d97c017b4aa1f10ffdff11d3261e4934e91a381602d612b2c565b634e487b7160e01b88526004889052602488fd5b634e487b7160e01b89526041600452602489fd5b905038612ce2565b5050600f60205260408420546001600160a01b031691612ded90613f89565b92612b59565b60ff9150600301541638612afa565b546001600160a01b031692612ded9150613f89565b505050509050612b67565b5060148310612aad565b600191925001548091553880612a1f565b634e487b7160e01b85526004859052602485fd5b634e487b7160e01b86526041600452602486fd5b634e487b7160e01b600052604160045260246000fd5b612e939060203d602011610596576105878183613868565b503861291d565b604051634dc7f5ff60e11b8152600490fd5b50601e8414156128d4565b50600f8414156128ce565b604051631ecb2c4f60e31b8152600490fd5b604051634065aaf160e11b8152600490fd5b5034610382578060031936011261038257612eff61437d565b60ff19604f5416604f557f15de7ad89d29fd1c6d2e6b1e878453569b4080edf34e0105faaa3bd52f0185308180a180f35b50346103825780600319360112610382576020604051603c8152f35b50346103825780600319360112610382576003546040516001600160a01b039091168152602090f35b5034610382576020366003190112610382576020906004358152601e8252604060018060a01b0391205416604051908152f35b5034610382578060031936011261038257612fc16143b6565b610d34613a6f565b50346103825780600319360112610382576020600d54604051908152f35b5034610382578060031936011261038257602060ff604f54166040519015158152f35b5034610382578060031936011261038257604f5460405160089190911c6001600160a01b03168152602090f35b5034610382576020366003190112610382576004359060145482101561038257602081601460039352209102018054611285600260018401549301546040519384938461380e565b50346103825780600319360112610382576020604051683635c9adc5dea000008152f35b503461038257602036600319011261038257611285906002906040906001600160a01b036130cf613788565b168152600f6020522001546130e3816143e6565b9290916040519384938461380e565b50346103825780600319360112610382576020601854604051908152f35b503461038257602036600319011261038257610160906001600160a01b03906040908261313b613788565b168152600f60205220908154169060018101549060028101546003820154600483015460ff600585015416600685015491600786015493600887015495600a6009890154980154986040519a8b5260208b015260408a015260608901526080880152151560a087015260c086015260e0850152610100840152610120830152610140820152f35b50346103825760203660031901126103825760206131e1600435613a22565b604051908152f35b50346103825780600319360112610382576001546040516001600160a01b039091168152602090f35b5034610382578060031936011261038257602090604051908152f35b5034610382578060031936011261038257602060405160028152f35b50346103825760208060031936011261192857600435906132696143b6565b60ff604f54166122a957811561193757683635c9adc5dea0000080601754109081156134a2575b506125665782546040516323b872dd60e01b81526001600160a01b03918390829084168188816132c58a30336004850161399d565b03925af1801561061b57613485575b50601854906132e382856139bf565b906132f56017549261246b87856139e8565b92612710860261270f198782040161347157613314846103e8926139f5565b11611937576064613327600d54866139bf565b04936133338582613a15565b938360015416916040516370a0823160e01b81523060048201528881602481875afa8015610fd85782918c9161343c575b50106125665789936133798a613381946139e8565b601755613a15565b601855803b15611928578190602460405180948193630852cd8d60e31b83528960048401525af180156134315761341e575b50600154169280604051809563a9059cbb60e01b82528189816133da8833600484016138c2565b03925af193841561255b577f36864aeefce16bc4aaceeb6b0cdfb2ad1455a8cb4ccb0db148a2bc6e7166f97c9461253d57505061252560405192839233968461380e565b61342a9096919661383a565b94386133b3565b6040513d89823e3d90fd5b8092508a8092503d831161346a575b6134558183613868565b810103126134665781905138613364565b8a80fd5b503d61344b565b634e487b7160e01b88526011600452602488fd5b61349b90833d8511610596576105878183613868565b50386132d4565b90506018541038613290565b5034610382576040366003190112610382576134c8613788565b6001600160a01b0390811682526012602052604082208054602435939084101561038257506020926134f9916137e0565b9190546040519260031b1c168152f35b5034610382576020908160031936011261038257613525613788565b338252600f808452604083205490926001600160a01b0392909183166136b157821633811461369f5780156108805733808352600f8652604080842080546001600160a01b031916841790558284526012875283206135849190613942565b338252600f855282604083205416938383955b1680151580613695575b1561366b57808452818752604084209060028201805460018101918282116134715792826136088a9693837fa0eea20e678cb42233c1c456c84cedce7ea53fa360bb71bf3b761b76095677708f6040908b996136289b5586825191868352820152a26143e6565b50613612826143e6565b509080820361362e575b50505050541696613f89565b95613597565b61365f7fea8384d3ca7bf5b7510d3faee44a3774406c1fd3ac14fff110a8c98d47a25956936040519384938461380e565b0390a23880808061361c565b5050337fa6dbb5aa28f35437de94d685d66edce5fb4812196b4984b91dfd5a7b38c0fb308380a380f35b50601e86106135a1565b604051631acade8960e31b8152600490fd5b60405163682a906560e01b8152600490fd5b50346103825780600319360112610382576020600b54604051908152f35b50346103825760403660031901126103825760043580151580910361192857602435908115158092036112d9577f03cb373f89de891077fe47cec43663b6727713de0337af46bebd1178122251b7917fb886fcb5b9c12916f26d967ebe962dbd51ec249fb55961da39c851cdfc10115c6020809361375d61437d565b6016805461ffff191660ff831617600886901b61ff0016179055604051908152a1604051908152a180f35b600435906001600160a01b0382168203610acb57565b602435906001600160a01b0382168203610acb57565b604435906001600160a01b0382168203610acb57565b606435906001600160a01b0382168203610acb57565b80548210156137f85760005260206000200190600090565b634e487b7160e01b600052603260045260246000fd5b6040919493926060820195825260208201520152565b6040906003190112610acb576004359060243590565b6001600160401b038111612e6557604052565b604081019081106001600160401b03821117612e6557604052565b601f909101601f19168101906001600160401b03821190821017612e6557604052565b6001600160401b038111612e6557601f01601f191660200190565b80548210156137f85760005260206000209060011b0190600090565b6001600160a01b039091168152602081019190915260400190565b6020808252825181830181905290939260005b82811061391257505060409293506000838284010152601f8019910116010190565b8181018601518482016040015285016138f0565b80548210156137f8576000526006602060002091020190600090565b80549190600160401b831015612e655782613965916001613983950181556137e0565b90919060018060a01b038084549260031b9316831b921b1916179055565b565b90816020910312610acb57518015158103610acb5790565b6001600160a01b03918216815291166020820152604081019190915260600190565b818102929181159184041417156139d257565b634e487b7160e01b600052601160045260246000fd5b919082018092116139d257565b81156139ff570490565b634e487b7160e01b600052601260045260246000fd5b919082039182116139d257565b6003811015613a4c576002811015613a465760011115613a4157600090565b600590565b50600a90565b50600f90565b606091949392608082019582526020820152600060408201520152565b60003381526020906010825260409081812092600180850154158015613f7b575b613f6a57338352601180835284842084929183835b613e57575b505050508015613e4657338352600f8252613acb81600386862001546139e8565b94338452600f83528484209560049687810154809211613e2e575b50508115613e1f57338452600f8352600385852001613b068382546139e8565b9055835485516370a0823160e01b808252308983015286946001600160a01b0394939092600184901c918616908881602481855afa908115613e155789929184918c91613ddd575b50101580613dd4575b613d70575b505060185480158015613d5c575b15613d1c5750670de0b6b3a7640000905b670de0b6b3a764000090818102918183041490151715613d095790613b9f916139f5565b90879460015416908951908152308b8201528781602481855afa908115613cff579083918a91613cca575b50101580613cc1575b613c40575b5050916000805160206155e483398151915291600f959493885190815287868201526000805160206156e4833981519152893392a25490613c1f8851928392339684613a52565b0390a2338352522060038101549101541115613c3757565b613983336146fc565b81613c679293955087918b8a8c5180968195829463a9059cbb60e01b8452339084016138c2565b03925af18015613cb757916000805160206155e48339815191529391600f97969593613c9a575b50939495819350613bd8565b613cb090873d8911610596576105878183613868565b5038613c8e565b88513d89823e3d90fd5b50811515613bd3565b809250898092503d8311613cf8575b613ce38183613868565b81010312613cf45782905138613bca565b8880fd5b503d613cd9565b8a513d8b823e3d90fd5b634e487b7160e01b895260118b52602489fd5b601754670de0b6b3a764000090818102918183041490151715613d495790613d43916139f5565b90613b7b565b634e487b7160e01b8a5260118c5260248afd5b50683635c9adc5dea0000060175410613b6a565b82975091613d95928c8b8d5180968195829463a9059cbb60e01b8452339084016138c2565b03925af18015613dca57613dad575b50848638613b5c565b613dc390873d8911610596576105878183613868565b5038613da4565b89513d8a823e3d90fd5b50821515613b57565b92938092508391503d8311613e0e575b613df78183613868565b81010312613e0a57908289925138613b4e565b8980fd5b503d613ded565b8b513d8c823e3d90fd5b505050505050613983336146fc565b613e3e9293506003015490613a15565b903880613ae6565b8351630fec21fd60e21b8152600490fd5b8254811015613f6557613e6a8184613926565b508460ff6004809301541615613f5a5750613e8e613e888386613926565b50614495565b9081613ea6575b505090838093925b01909192613aa5565b909586613eb2916139e8565b95613ecc6005613ec28588613926565b50019182546139e8565b90556002613eda8386613926565b5001546003613ee98487613926565b50015490603c91828102928184041490151715613f485791613f10879695949287946139e8565b421015613f21575b50919293613e95565b613f2b8286613926565b5001805460ff19169055613f42610c798286613926565b38613f18565b634e487b7160e01b8a5284835260248afd5b939291849150613e9d565b613aaa565b8351634065aaf160e11b8152600490fd5b5060ff600386015416613a90565b60001981146139d25760010190565b60009060033d11613fa557565b905060046000803e60005160e01c90565b600060443d1061401357604051600319913d83016004833e81516001600160401b03918282113d6024840111176140165781840194855193841161401e573d85010160208487010111614016575061401392910160200190613868565b90565b949350505050565b50949350505050565b916001600160a01b03908184169081158015614311575b6108805782841680831461369f5784846000965b1680151580614307575b156140885784811461369f57600052600f60205284614082816040600020541697613f89565b96614052565b506000848152600f60208181526040928390208054969a959950868916989496898b146142fa576001600160a01b0319168a179055871515948561421d575b6140dc908a6000526012835284600020613942565b86600052818152600295600284600020015490600196600183018093116139d25761419d575b8a614137575b50505050505050507ff8b9fe4d008320e6f048c61e41e9cc56ce351354ad0cb9a868bd3c4bd6928fd5600080a4565b600090875b614147575b50614108565b861680151580614193575b1561418e578060005284845288866000200161416f8482546139e8565b90556000528383526141878686600020541691613f89565b908761413c565b614141565b50601e8210614152565b866000878c835b6141b2575b50505050614102565b1680151580614213575b1561420c5760008181528787528890208b0180548611614203576141e1868254613a15565b90555b6000528585526141fa8888600020541691613f89565b908890836141a4565b600090556141e4565b88906141a9565b50601e82106141bc565b9897969594939291908760005260128152826000209960005b8b54808210156142e55786908a61424e8f85906137e0565b939054600394851b1c1614614267575050600101614236565b60009d91929495969798999a9b9c9d19948582019182116139d2576139658a6142936142a194866137e0565b905490871b1c1691846137e0565b805480156142cf576140dc94899101926142bb84846137e0565b81939154921b1b19169055555b90506140c7565b634e487b7160e01b600052603160045260246000fd5b50506140dc9192939495969798999a506142c8565b5050505050505050505050565b506032871061405c565b508284161561403e565b6001600160a01b039081169081156143645760008051602061560483398151915280546001600160a01b031981168417909155166000805160206156a4833981519152600080a3565b604051631e4fbdf760e01b815260006004820152602490fd5b600080516020615604833981519152546001600160a01b0316330361439e57565b60405163118cdaa760e01b8152336004820152602490fd5b60008051602061570483398151915260028154146143d45760029055565b604051633ee5aeb560e01b8152600490fd5b620186a081101561448c576175308110156144835761271081101561447a57610bb8811015614471576103e88110156144685761012c81101561445f57606481101561445657601e81101561444d57600a111561444557600090600090565b600190600590565b50600290600a90565b50600390600f90565b50600490601490565b50600590601990565b50600690601e90565b50600790602390565b50600890602890565b50600990602d90565b60038101546144a3816154eb565b90603c6144b4600285015442613a15565b0490808211614506575b5080156144fe576144e3633b9aca00916144de60059460018701546139bf565b6139bf565b049101548082116144f5575050600090565b61401391613a15565b505050600090565b9050386144be565b80518210156137f85760209160051b010190565b8054906000908181558261453557505050565b6001906001600160ff1b038416840361215c578252602082209260011b8301925b8381106145635750505050565b808360029255838382015501614556565b6000818152601e6020908152604080832054601d8352818420805493969495929492936001600160a01b0392831693906001600160401b0381116146db578651926145c48a8360051b0185613868565b818452885288882088908a8086015b8484106146ac575050505050865b82518110156146955780614612856145fb6001948761450e565b5151168b614609848861450e565b5101519061512a565b86898c8361465c575b8a92507fae629b396150638d6eb6de457cbffe5d618a10c8cc199a94976bed2b16ecd99391508861464c868a61450e565b515116938c51908152a3016145e1565b60606000805160206155a4833981519152918c8b61467a898d61450e565b515116946004815193898552840152820152a386898c61461b565b5096915050601d9150613983949283525220614522565b6001916002918c516146bd8161384d565b8a865416815284860154838201528152019201920191908b906145d3565b634e487b7160e01b88526041600452602488fd5b80156139d2576000190190565b6001600160a01b038116600081815260106020526040902060038101805492939260ff81161561472e575b5050505050565b906001602495969260ff19161790556011602052604060002094600092600094602060018060a01b0360005416604051988980926370a0823160e01b82523060048301525afa9687156149de57600097614ae9575b50600095945b885487101561484a5760ff60046147a0898c613926565b50015416156148405760016147b5888b613926565b50015490818060011b04600214821517156139d257896148139160016147ef8b61012c6147e88498600c5490861b6139bf565b0494613926565b50015482811061483357906148078361480d93613a15565b906139e8565b976139e8565b966004614820828c613926565b5001805460ff191690555b019594614789565b6000925061480d916139e8565b949560019061482b565b93975090945081959391938361493a575b50509160008051602061572483398151915260406000805160206156c4833981519152959385602096614919575b6000858152600f885283902060058101805460ff19811690915590546001600160a01b03169060ff1680614910575b806148fc575b6148e0575b50825191825286820152a254604051908152a23880808080614727565b600052600183600020016148f481546146ef565b9055386148c3565b5080600052600184600020015415156148be565b508015156148b8565b84600052600f8752600683600020016149338282546139e8565b9055614889565b90949293908481106149ea5750506000805460405163a9059cbb60e01b81529560209287926001600160a01b031691839190829061497d908a90600484016138c2565b03925af19384156149de5760406020948793600080516020615724833981519152936000805160206156c4833981519152986149c1575b505b93955093955061485b565b6149d790883d8a11610596576105878183613868565b50386149b4565b6040513d6000823e3d90fd5b9092939481614a3d575b5060406000805160206156c48339815191529584936020969560008051602061564483398151915284600080516020615724833981519152968151908682528b820152a26149b6565b81614a73929395945060209160018060a01b036000541690600060405180968195829463a9059cbb60e01b8452600484016138c2565b03925af180156149de576000805160206156c4833981519152956020958860008051602061564483398151915260408297600080516020615724833981519152978297614acc575b5096505050509394955095506149f4565b614ae2908c3d8e11610596576105878183613868565b5038614abb565b9096506020813d602011614b15575b81614b0560209383613868565b81010312610acb57519538614783565b3d9150614af8565b60018060a01b038060009216825260106020526040822090600182015415159182614bb7575b50600f602052604083206005810160ff81541615158415151461472757805460ff191660ff851515161790555416918215614bb25760019260409215614b9a578152600f6020522001614b968154613f89565b9055565b81522001805480614ba9575050565b614b96906146ef565b505050565b6003015460ff1615915038614b43565b6001600160a01b039081166000818152601060209081526040808320600181810180549697909693959094929184158015614d85575b614d3057601184528682208054839291835b828110614d455750505050614d3b576002820196614c318854601554906139e8565b421115614d3057600383837f57025f0027038907eda728b59164fb63d06048f42e618a35267e6a12e49b2e469a8a9654998d8352600f895260ff6005898520928354169201541680614d27575b80614d15575b614cfb575b508c8252600f88528187812095816004600589019860ff19998a81541690558289820155015581855555550190815416905584614ccc575b5051928352820152a2565b84815260138352614cde828220614522565b848152601c83522080546001600160a01b03191690558338614cc1565b8252600187832001614d0d81546146ef565b905538614c89565b50808352600188842001541515614c84565b50801515614c7e565b505050505050505050565b5050505050505050565b60ff6004614d538385613926565b50015416614d63575b8301614c0f565b93614d7d849182614d748886613926565b500154906139e8565b949050614d5c565b5060ff600384015416614bfd565b60018060a01b03808216906000918083526020600f8152604090818520936010825282862060ff60058701541615908115614f88575b8115614f7b575b50614f7057602482828854168551928380926370a0823160e01b82523060048301525afa908115614f66579089918891614f35575b5010614f1057600485019560038754960195614e2387548092613a15565b8a818111614ee8575b50508980614e52575b505050505050505490541115614e49575090565b614013906146fc565b614e8393614e618287946139e8565b89558354168a84885180978195829463a9059cbb60e01b8452600484016138c2565b03925af1908115614edd5750906000805160206156e4833981519152939291614ec0575b506002825191898352820152a238808080808089614e35565b614ed690823d8411610596576105878183613868565b5038614ea7565b8451903d90823e3d90fd5b819b50866000805160206156448339815191529189939d825191825288820152a23880614e2c565b508496929550816000805160206156448339815191529592945051928352820152a290565b809250848092503d8311614f5f575b614f4e8183613868565b810103126128575788905138614e05565b503d614f44565b84513d89823e3d90fd5b505050505091505090565b6001915001541538614dd0565b600381015460ff169150614dc9565b60018060a01b03808216906000918083526020600f8152604090818520936010825282862060ff6005870154161590811561511b575b811561510e575b50614f7057602482828854168551928380926370a0823160e01b82523060048301525afa908115614f665790899188916150dd575b5010614f105760048501956003875496019561502787548092613a15565b8a8181116150b5575b5050898061504c57505050505050505490541115614e49575090565b61505b93614e618287946139e8565b03925af1908115614edd5750906000805160206156e4833981519152939291615098575b506003825191898352820152a238808080808089614e35565b6150ae90823d8411610596576105878183613868565b503861507f565b819b50866000805160206156448339815191529189939d825191825288820152a23880615030565b809250848092503d8311615107575b6150f68183613868565b810103126128575788905138615009565b503d6150ec565b6001915001541538614fd4565b600381015460ff169150614fcd565b60018060a01b03808216906000918083526020600f8152604090818520936010825282862060ff600587015416159081156152ae575b81156152a1575b50614f7057602482828854168551928380926370a0823160e01b82523060048301525afa908115614f66579089918891615270575b5010614f10576004850195600387549601956151ba87548092613a15565b8a818111615248575b505089806151df57505050505050505490541115614e49575090565b6151ee93614e618287946139e8565b03925af1908115614edd5750906000805160206156e483398151915293929161522b575b506004825191898352820152a238808080808089614e35565b61524190823d8411610596576105878183613868565b5038615212565b819b50866000805160206156448339815191529189939d825191825288820152a238806151c3565b809250848092503d831161529a575b6152898183613868565b81010312612857578890513861519c565b503d61527f565b6001915001541538615167565b600381015460ff169150615160565b9081156154e757601754683635c9adc5dea000008082109081156154db575b506154d65760018060a01b03926000938085541692604093845191826370a0823160e01b9283825230600483015281602460209687935afa9081156154cc57899161549f575b5061532d86836139e8565b1161548157612710850261270f198682040161548b57615350826103e8926139f5565b11615481576018549061537061536683886139bf565b61246b88846139e8565b9485158015615478575b61546c57600154169287519081523060048201528481602481875afa908115615462579083918b91615431575b50106154265784899392613379886153be946139e8565b601855803b156119285781906024875180948193630852cd8d60e31b83528860048401525af1801561541c5760008051602061568483398151915296975061540d575b508351928352820152a1565b6154169061383a565b38615401565b85513d89823e3d90fd5b505050505050509050565b809250868092503d831161545b575b61544a8183613868565b81010312613e0a57829051386153a7565b503d615440565b88513d8c823e3d90fd5b50505050505050509050565b5082861161537a565b5050505050509050565b634e487b7160e01b89526011600452602489fd5b90508381813d83116154c5575b6154b68183613868565b81010312613cf4575138615322565b503d6154ac565b87513d8b823e3d90fd5b509050565b905060185410386152dc565b9050565b6007811461550957600f14615502576301312d0090565b62fe502b90565b5062cb735690565b60ff6000805160206157448339815191525460401c161561552e57565b604051631afcd79f60e31b8152600490fd5b90615567575080511561555557602081519101fd5b60405163d6bda27560e01b8152600490fd5b8151158061559a575b615578575090565b604051639996b31560e01b81526001600160a01b039091166004820152602490fd5b50803b1561557056fe9b3cc71482a1b2eebe764a739f46f1fe99291fd0183be81951532b29d0c9c8da38f8a0c92f4c5b0b6877f878cb4c0c8d348a47b76d716c8e78f425043df9515b6fcebd0a2ce98b28cb391d6008bbc769378c9a4919628e11639cb575cd320fcc9016d09d72d40fdae2fd8ceac6b6234c7706214fd39c1cd1e609a0528c199300360894a13ba1a3210667c828492db98dca3e2076cc3735a920a3ca505d382bbcb5987aab1afd379f6695f1068869ee8ca6a0d02304c57935a9cc3d3ea2e51e4d520bc217d25ef4588524228dffcfa518f4ad52178c71d49b8061d016213cd3110ec3929061cbbbeecb325623e7d5a86c3dae11cb8a22ca45dc0972955657da258be0079c531659141344cd1fd0a4f28419497f9722a3daafe3b4186f6b6457e0920bb94eb3842a728db98228c375ff6b00c5bc5a54fac6736155517a0a20a61af381583145e90b82cc5e529bf4fc4d0e44397174cdf145c4251ac33ef195a4249b779b17422d0df92223018b32b4d1fa46e071723d6817e2486d003becc55f00f3a670cd3af7d64b488926880889d08a8585a138ff455227af6737339a1ec262f0c57e16840df040f15088dc2f81fe391c3923bec73e23a9662efc9c229c6a00a26469706673582212200d7c74eb485dc2eb46b490abd66a59d6d17b718c88e4b7f6fde011d60606036164736f6c63430008160033",
  "linkReferences": {},
  "deployedLinkReferences": {}
}