{
  "_format": "hh-sol-artifact-1",
  "contractName": "JinbaoProtocol",
  "sourceName": "contracts/JinbaoProtocol.sol",
  "abi": [
    {
      "inputs": [
        {
          "internalType": "address",
          "name": "_mcToken",
          "type": "address"
        },
        {
          "internalType": "address",
          "name": "_jbcToken",
          "type": "address"
        },
        {
          "internalType": "address",
          "name": "_marketing",
          "type": "address"
        },
        {
          "internalType": "address",
          "name": "_treasury",
          "type": "address"
        },
        {
          "internalType": "address",
          "name": "_lpInjection",
          "type": "address"
        },
        {
          "internalType": "address",
          "name": "_buyback",
          "type": "address"
        }
      ],
      "stateMutability": "nonpayable",
      "type": "constructor"
    },
    {
      "inputs": [
        {
          "internalType": "address",
          "name": "owner",
          "type": "address"
        }
      ],
      "name": "OwnableInvalidOwner",
      "type": "error"
    },
    {
      "inputs": [
        {
          "internalType": "address",
          "name": "account",
          "type": "address"
        }
      ],
      "name": "OwnableUnauthorizedAccount",
      "type": "error"
    },
    {
      "inputs": [],
      "name": "ReentrancyGuardReentrantCall",
      "type": "error"
    },
    {
      "anonymous": false,
      "inputs": [
        {
          "indexed": true,
          "internalType": "address",
          "name": "user",
          "type": "address"
        },
        {
          "indexed": true,
          "internalType": "address",
          "name": "referrer",
          "type": "address"
        }
      ],
      "name": "BoundReferrer",
      "type": "event"
    },
    {
      "anonymous": false,
      "inputs": [
        {
          "indexed": true,
          "internalType": "address",
          "name": "user",
          "type": "address"
        },
        {
          "indexed": false,
          "internalType": "uint256",
          "name": "amount",
          "type": "uint256"
        },
        {
          "indexed": false,
          "internalType": "uint256",
          "name": "cycleDays",
          "type": "uint256"
        }
      ],
      "name": "LiquidityStaked",
      "type": "event"
    },
    {
      "anonymous": false,
      "inputs": [
        {
          "indexed": true,
          "internalType": "address",
          "name": "previousOwner",
          "type": "address"
        },
        {
          "indexed": true,
          "internalType": "address",
          "name": "newOwner",
          "type": "address"
        }
      ],
      "name": "OwnershipTransferred",
      "type": "event"
    },
    {
      "anonymous": false,
      "inputs": [
        {
          "indexed": true,
          "internalType": "address",
          "name": "user",
          "type": "address"
        },
        {
          "indexed": false,
          "internalType": "uint256",
          "name": "principal",
          "type": "uint256"
        },
        {
          "indexed": false,
          "internalType": "uint256",
          "name": "fee",
          "type": "uint256"
        }
      ],
      "name": "Redeemed",
      "type": "event"
    },
    {
      "anonymous": false,
      "inputs": [
        {
          "indexed": true,
          "internalType": "address",
          "name": "user",
          "type": "address"
        },
        {
          "indexed": false,
          "internalType": "uint256",
          "name": "mcAmount",
          "type": "uint256"
        },
        {
          "indexed": false,
          "internalType": "uint256",
          "name": "jbcAmount",
          "type": "uint256"
        }
      ],
      "name": "RewardClaimed",
      "type": "event"
    },
    {
      "anonymous": false,
      "inputs": [
        {
          "indexed": true,
          "internalType": "address",
          "name": "user",
          "type": "address"
        },
        {
          "indexed": false,
          "internalType": "uint256",
          "name": "jbcAmount",
          "type": "uint256"
        },
        {
          "indexed": false,
          "internalType": "uint256",
          "name": "mcAmount",
          "type": "uint256"
        },
        {
          "indexed": false,
          "internalType": "uint256",
          "name": "tax",
          "type": "uint256"
        }
      ],
      "name": "SwappedJBCToMC",
      "type": "event"
    },
    {
      "anonymous": false,
      "inputs": [
        {
          "indexed": true,
          "internalType": "address",
          "name": "user",
          "type": "address"
        },
        {
          "indexed": false,
          "internalType": "uint256",
          "name": "mcAmount",
          "type": "uint256"
        },
        {
          "indexed": false,
          "internalType": "uint256",
          "name": "jbcAmount",
          "type": "uint256"
        },
        {
          "indexed": false,
          "internalType": "uint256",
          "name": "tax",
          "type": "uint256"
        }
      ],
      "name": "SwappedMCToJBC",
      "type": "event"
    },
    {
      "anonymous": false,
      "inputs": [
        {
          "indexed": true,
          "internalType": "address",
          "name": "user",
          "type": "address"
        },
        {
          "indexed": false,
          "internalType": "uint256",
          "name": "amount",
          "type": "uint256"
        }
      ],
      "name": "TicketPurchased",
      "type": "event"
    },
    {
      "inputs": [],
      "name": "SECONDS_IN_DAY",
      "outputs": [
        {
          "internalType": "uint256",
          "name": "",
          "type": "uint256"
        }
      ],
      "stateMutability": "view",
      "type": "function"
    },
    {
      "inputs": [
        {
          "internalType": "address",
          "name": "user",
          "type": "address"
        },
        {
          "internalType": "address",
          "name": "newReferrer",
          "type": "address"
        }
      ],
      "name": "adminSetReferrer",
      "outputs": [],
      "stateMutability": "nonpayable",
      "type": "function"
    },
    {
      "inputs": [
        {
          "internalType": "address",
          "name": "user",
          "type": "address"
        },
        {
          "internalType": "uint256",
          "name": "_activeDirects",
          "type": "uint256"
        },
        {
          "internalType": "uint256",
          "name": "_teamCount",
          "type": "uint256"
        }
      ],
      "name": "adminSetUserStats",
      "outputs": [],
      "stateMutability": "nonpayable",
      "type": "function"
    },
    {
      "inputs": [
        {
          "internalType": "uint256",
          "name": "amount",
          "type": "uint256"
        },
        {
          "internalType": "address",
          "name": "to",
          "type": "address"
        }
      ],
      "name": "adminWithdrawJBC",
      "outputs": [],
      "stateMutability": "nonpayable",
      "type": "function"
    },
    {
      "inputs": [
        {
          "internalType": "uint256",
          "name": "amount",
          "type": "uint256"
        },
        {
          "internalType": "address",
          "name": "to",
          "type": "address"
        }
      ],
      "name": "adminWithdrawMC",
      "outputs": [],
      "stateMutability": "nonpayable",
      "type": "function"
    },
    {
      "inputs": [
        {
          "internalType": "address",
          "name": "_referrer",
          "type": "address"
        }
      ],
      "name": "bindReferrer",
      "outputs": [],
      "stateMutability": "nonpayable",
      "type": "function"
    },
    {
      "inputs": [
        {
          "internalType": "uint256",
          "name": "amount",
          "type": "uint256"
        }
      ],
      "name": "buyTicket",
      "outputs": [],
      "stateMutability": "nonpayable",
      "type": "function"
    },
    {
      "inputs": [],
      "name": "buybackPercent",
      "outputs": [
        {
          "internalType": "uint256",
          "name": "",
          "type": "uint256"
        }
      ],
      "stateMutability": "view",
      "type": "function"
    },
    {
      "inputs": [],
      "name": "buybackWallet",
      "outputs": [
        {
          "internalType": "address",
          "name": "",
          "type": "address"
        }
      ],
      "stateMutability": "view",
      "type": "function"
    },
    {
      "inputs": [],
      "name": "claimRewards",
      "outputs": [],
      "stateMutability": "nonpayable",
      "type": "function"
    },
    {
      "inputs": [
        {
          "internalType": "address",
          "name": "",
          "type": "address"
        },
        {
          "internalType": "uint256",
          "name": "",
          "type": "uint256"
        }
      ],
      "name": "directReferrals",
      "outputs": [
        {
          "internalType": "address",
          "name": "",
          "type": "address"
        }
      ],
      "stateMutability": "view",
      "type": "function"
    },
    {
      "inputs": [],
      "name": "directRewardPercent",
      "outputs": [
        {
          "internalType": "uint256",
          "name": "",
          "type": "uint256"
        }
      ],
      "stateMutability": "view",
      "type": "function"
    },
    {
      "inputs": [
        {
          "internalType": "uint256",
          "name": "amountIn",
          "type": "uint256"
        },
        {
          "internalType": "uint256",
          "name": "reserveIn",
          "type": "uint256"
        },
        {
          "internalType": "uint256",
          "name": "reserveOut",
          "type": "uint256"
        }
      ],
      "name": "getAmountOut",
      "outputs": [
        {
          "internalType": "uint256",
          "name": "",
          "type": "uint256"
        }
      ],
      "stateMutability": "pure",
      "type": "function"
    },
    {
      "inputs": [
        {
          "internalType": "address",
          "name": "_user",
          "type": "address"
        }
      ],
      "name": "getDirectReferrals",
      "outputs": [
        {
          "internalType": "address[]",
          "name": "",
          "type": "address[]"
        }
      ],
      "stateMutability": "view",
      "type": "function"
    },
    {
      "inputs": [
        {
          "internalType": "address",
          "name": "_user",
          "type": "address"
        }
      ],
      "name": "getDirectReferralsData",
      "outputs": [
        {
          "components": [
            {
              "internalType": "address",
              "name": "user",
              "type": "address"
            },
            {
              "internalType": "uint256",
              "name": "ticketAmount",
              "type": "uint256"
            },
            {
              "internalType": "uint256",
              "name": "joinTime",
              "type": "uint256"
            }
          ],
          "internalType": "struct JinbaoProtocol.ReferralData[]",
          "name": "",
          "type": "tuple[]"
        }
      ],
      "stateMutability": "view",
      "type": "function"
    },
    {
      "inputs": [],
      "name": "getJBCPrice",
      "outputs": [
        {
          "internalType": "uint256",
          "name": "",
          "type": "uint256"
        }
      ],
      "stateMutability": "view",
      "type": "function"
    },
    {
      "inputs": [],
      "name": "jbcToken",
      "outputs": [
        {
          "internalType": "contract IJBC",
          "name": "",
          "type": "address"
        }
      ],
      "stateMutability": "view",
      "type": "function"
    },
    {
      "inputs": [],
      "name": "levelRewardPercent",
      "outputs": [
        {
          "internalType": "uint256",
          "name": "",
          "type": "uint256"
        }
      ],
      "stateMutability": "view",
      "type": "function"
    },
    {
      "inputs": [],
      "name": "lpInjectionPercent",
      "outputs": [
        {
          "internalType": "uint256",
          "name": "",
          "type": "uint256"
        }
      ],
      "stateMutability": "view",
      "type": "function"
    },
    {
      "inputs": [],
      "name": "lpInjectionWallet",
      "outputs": [
        {
          "internalType": "address",
          "name": "",
          "type": "address"
        }
      ],
      "stateMutability": "view",
      "type": "function"
    },
    {
      "inputs": [],
      "name": "marketingPercent",
      "outputs": [
        {
          "internalType": "uint256",
          "name": "",
          "type": "uint256"
        }
      ],
      "stateMutability": "view",
      "type": "function"
    },
    {
      "inputs": [],
      "name": "marketingWallet",
      "outputs": [
        {
          "internalType": "address",
          "name": "",
          "type": "address"
        }
      ],
      "stateMutability": "view",
      "type": "function"
    },
    {
      "inputs": [],
      "name": "mcToken",
      "outputs": [
        {
          "internalType": "contract IERC20",
          "name": "",
          "type": "address"
        }
      ],
      "stateMutability": "view",
      "type": "function"
    },
    {
      "inputs": [],
      "name": "owner",
      "outputs": [
        {
          "internalType": "address",
          "name": "",
          "type": "address"
        }
      ],
      "stateMutability": "view",
      "type": "function"
    },
    {
      "inputs": [],
      "name": "redeem",
      "outputs": [],
      "stateMutability": "nonpayable",
      "type": "function"
    },
    {
      "inputs": [],
      "name": "redemptionFeePercent",
      "outputs": [
        {
          "internalType": "uint256",
          "name": "",
          "type": "uint256"
        }
      ],
      "stateMutability": "view",
      "type": "function"
    },
    {
      "inputs": [],
      "name": "renounceOwnership",
      "outputs": [],
      "stateMutability": "nonpayable",
      "type": "function"
    },
    {
      "inputs": [
        {
          "internalType": "uint256",
          "name": "_direct",
          "type": "uint256"
        },
        {
          "internalType": "uint256",
          "name": "_level",
          "type": "uint256"
        },
        {
          "internalType": "uint256",
          "name": "_marketing",
          "type": "uint256"
        },
        {
          "internalType": "uint256",
          "name": "_buyback",
          "type": "uint256"
        },
        {
          "internalType": "uint256",
          "name": "_lpInjection",
          "type": "uint256"
        },
        {
          "internalType": "uint256",
          "name": "_treasury",
          "type": "uint256"
        }
      ],
      "name": "setDistributionPercents",
      "outputs": [],
      "stateMutability": "nonpayable",
      "type": "function"
    },
    {
      "inputs": [
        {
          "internalType": "uint256",
          "name": "_fee",
          "type": "uint256"
        }
      ],
      "name": "setRedemptionFee",
      "outputs": [],
      "stateMutability": "nonpayable",
      "type": "function"
    },
    {
      "inputs": [
        {
          "internalType": "uint256",
          "name": "_buyTax",
          "type": "uint256"
        },
        {
          "internalType": "uint256",
          "name": "_sellTax",
          "type": "uint256"
        }
      ],
      "name": "setSwapTaxes",
      "outputs": [],
      "stateMutability": "nonpayable",
      "type": "function"
    },
    {
      "inputs": [
        {
          "internalType": "address",
          "name": "_marketing",
          "type": "address"
        },
        {
          "internalType": "address",
          "name": "_treasury",
          "type": "address"
        },
        {
          "internalType": "address",
          "name": "_lpInjection",
          "type": "address"
        },
        {
          "internalType": "address",
          "name": "_buyback",
          "type": "address"
        }
      ],
      "name": "setWallets",
      "outputs": [],
      "stateMutability": "nonpayable",
      "type": "function"
    },
    {
      "inputs": [
        {
          "internalType": "uint256",
          "name": "cycleDays",
          "type": "uint256"
        }
      ],
      "name": "stakeLiquidity",
      "outputs": [],
      "stateMutability": "nonpayable",
      "type": "function"
    },
    {
      "inputs": [],
      "name": "swapBuyTax",
      "outputs": [
        {
          "internalType": "uint256",
          "name": "",
          "type": "uint256"
        }
      ],
      "stateMutability": "view",
      "type": "function"
    },
    {
      "inputs": [
        {
          "internalType": "uint256",
          "name": "jbcAmount",
          "type": "uint256"
        }
      ],
      "name": "swapJBCToMC",
      "outputs": [],
      "stateMutability": "nonpayable",
      "type": "function"
    },
    {
      "inputs": [
        {
          "internalType": "uint256",
          "name": "mcAmount",
          "type": "uint256"
        }
      ],
      "name": "swapMCToJBC",
      "outputs": [],
      "stateMutability": "nonpayable",
      "type": "function"
    },
    {
      "inputs": [],
      "name": "swapSellTax",
      "outputs": [
        {
          "internalType": "uint256",
          "name": "",
          "type": "uint256"
        }
      ],
      "stateMutability": "view",
      "type": "function"
    },
    {
      "inputs": [
        {
          "internalType": "address",
          "name": "newOwner",
          "type": "address"
        }
      ],
      "name": "transferOwnership",
      "outputs": [],
      "stateMutability": "nonpayable",
      "type": "function"
    },
    {
      "inputs": [],
      "name": "treasuryPercent",
      "outputs": [
        {
          "internalType": "uint256",
          "name": "",
          "type": "uint256"
        }
      ],
      "stateMutability": "view",
      "type": "function"
    },
    {
      "inputs": [],
      "name": "treasuryWallet",
      "outputs": [
        {
          "internalType": "address",
          "name": "",
          "type": "address"
        }
      ],
      "stateMutability": "view",
      "type": "function"
    },
    {
      "inputs": [
        {
          "internalType": "address",
          "name": "",
          "type": "address"
        }
      ],
      "name": "userInfo",
      "outputs": [
        {
          "internalType": "address",
          "name": "referrer",
          "type": "address"
        },
        {
          "internalType": "uint256",
          "name": "activeDirects",
          "type": "uint256"
        },
        {
          "internalType": "uint256",
          "name": "teamCount",
          "type": "uint256"
        },
        {
          "internalType": "uint256",
          "name": "totalRevenue",
          "type": "uint256"
        },
        {
          "internalType": "uint256",
          "name": "currentCap",
          "type": "uint256"
        },
        {
          "internalType": "bool",
          "name": "isActive",
          "type": "bool"
        }
      ],
      "stateMutability": "view",
      "type": "function"
    },
    {
      "inputs": [
        {
          "internalType": "address",
          "name": "",
          "type": "address"
        }
      ],
      "name": "userTicket",
      "outputs": [
        {
          "internalType": "uint256",
          "name": "amount",
          "type": "uint256"
        },
        {
          "internalType": "uint256",
          "name": "requiredLiquidity",
          "type": "uint256"
        },
        {
          "internalType": "uint256",
          "name": "purchaseTime",
          "type": "uint256"
        },
        {
          "internalType": "bool",
          "name": "liquidityProvided",
          "type": "bool"
        },
        {
          "internalType": "uint256",
          "name": "liquidityAmount",
          "type": "uint256"
        },
        {
          "internalType": "uint256",
          "name": "startTime",
          "type": "uint256"
        },
        {
          "internalType": "uint256",
          "name": "cycleDays",
          "type": "uint256"
        },
        {
          "internalType": "bool",
          "name": "redeemed",
          "type": "bool"
        }
      ],
      "stateMutability": "view",
      "type": "function"
    }
  ],
  "bytecode": "0x608060405260016008556019600955600f600a556005600b556005600c556019600d556019600e556032600f5560196010553480156200003e57600080fd5b506040516200307538038062003075833981016040819052620000619162000178565b33806200008857604051631e4fbdf760e01b81526000600482015260240160405180910390fd5b62000093816200010b565b5060018055600280546001600160a01b03199081166001600160a01b0398891617909155600380548216968816969096179095556004805486169487169490941790935560058054851692861692909217909155600680548416918516919091179055600780549092169216919091179055620001f9565b600080546001600160a01b038381166001600160a01b0319831681178455604051919092169283917f8be0079c531659141344cd1fd0a4f28419497f9722a3daafe3b4186f6b6457e09190a35050565b80516001600160a01b03811681146200017357600080fd5b919050565b60008060008060008060c087890312156200019257600080fd5b6200019d876200015b565b9550620001ad602088016200015b565b9450620001bd604088016200015b565b9350620001cd606088016200015b565b9250620001dd608088016200015b565b9150620001ed60a088016200015b565b90509295509295509295565b612e6c80620002096000396000f3fe608060405234801561001057600080fd5b50600436106102535760003560e01c80637dbc1df011610146578063be040fb0116100c3578063d8020a1811610087578063d8020a18146105bd578063deab8aea146105c6578063dec7fa3b146105d9578063e4412f68146105e2578063ecda2d32146105eb578063f2fde38b146105fe57600080fd5b8063be040fb014610570578063ccf6194414610578578063ceaa366d14610581578063d241e0011461058a578063d2c8e0e51461059d57600080fd5b806390b0eb511161010a57806390b0eb51146105255780639370b080146105385780639525399214610541578063a2af922614610554578063bd594dcf1461056757600080fd5b80637dbc1df01461044657806383672f3e146104595780638710bcaa1461046c57806388fd4d33146105015780638da5cb5b1461051457600080fd5b8063372500ab116101d457806362eea9141161019857806362eea914146103f257806367dd74ca146104055780636fb3c47c14610418578063715018a61461042b57806375f0a8741461043357600080fd5b8063372500ab146103b25780633a3ea2f0146103ba5780634626402b146103c257806352778b05146103d557806361a52a36146103e857600080fd5b80630fc4fc1a1161021b5780630fc4fc1a146102da5780631788513c146102fa5780631959a0021461030d57806327f082f414610396578063350763731461039f57600080fd5b806304ef9d581461025857806304f618cb14610274578063054d50d41461028957806305ad39351461029c5780630a5c4567146102c7575b600080fd5b610261600e5481565b6040519081526020015b60405180910390f35b610287610282366004612a3e565b610611565b005b610261610297366004612a60565b61077e565b6102af6102aa366004612a8c565b610854565b6040516001600160a01b03909116815260200161026b565b6102876102d5366004612ab6565b61088c565b6102ed6102e8366004612a3e565b610c3c565b60405161026b9190612acf565b6003546102af906001600160a01b031681565b61035d61031b366004612a3e565b6011602052600090815260409020805460018201546002830154600384015460048501546005909501546001600160a01b039094169492939192909160ff1686565b604080516001600160a01b03909716875260208701959095529385019290925260608401526080830152151560a082015260c00161026b565b610261600f5481565b6102876103ad366004612ab6565b610e2c565b6102876110af565b6102616115aa565b6005546102af906001600160a01b031681565b6102876103e3366004612ab6565b6116c4565b6102616201518081565b610287610400366004612b31565b611a5e565b610287610413366004612ab6565b611bd7565b610287610426366004612b5d565b6121e3565b610287612212565b6004546102af906001600160a01b031681565b610287610454366004612ab6565b612224565b610287610467366004612b90565b612231565b6104c461047a366004612a3e565b6012602052600090815260409020805460018201546002830154600384015460048501546005860154600687015460079097015495969495939460ff938416949293919290911688565b604080519889526020890197909752958701949094529115156060860152608085015260a084015260c0830152151560e08201526101000161026b565b6006546102af906001600160a01b031681565b6000546001600160a01b03166102af565b610287610533366004612be4565b612289565b61026160105481565b6002546102af906001600160a01b031681565b610287610562366004612c06565b61229c565b610261600a5481565b6102876124a0565b61026160095481565b610261600d5481565b610287610598366004612b31565b6126fc565b6105b06105ab366004612a3e565b61282c565b60405161026b9190612c30565b610261600b5481565b6007546102af906001600160a01b031681565b61026160085481565b610261600c5481565b6102876105f9366004612c7d565b6128a2565b61028761060c366004612a3e565b612940565b336000908152601160205260409020546001600160a01b03161561066c5760405162461bcd60e51b815260206004820152600d60248201526c105b1c9958591e48189bdd5b99609a1b60448201526064015b60405180910390fd5b336001600160a01b038216036106b75760405162461bcd60e51b815260206004820152601060248201526f21b0b73737ba103134b7321039b2b63360811b6044820152606401610663565b6001600160a01b0381166107005760405162461bcd60e51b815260206004820152601060248201526f24b73b30b634b2103932b332b93932b960811b6044820152606401610663565b33600081815260116020908152604080832080546001600160a01b0387166001600160a01b0319918216811790925581855260138452828520805460018101825590865293852090930180549093168517909255519092917fa6dbb5aa28f35437de94d685d66edce5fb4812196b4984b91dfd5a7b38c0fb3091a350565b60008084116107cf5760405162461bcd60e51b815260206004820152601960248201527f496e73756666696369656e7420696e70757420616d6f756e74000000000000006044820152606401610663565b6000831180156107df5750600082115b6108245760405162461bcd60e51b8152602060048201526016602482015275496e73756666696369656e74206c697175696469747960501b6044820152606401610663565b60006108308386612cd6565b9050600061083e8686612cf3565b905061084a8183612d06565b9695505050505050565b6013602052816000526040600020818154811061087057600080fd5b6000918252602090912001546001600160a01b03169150829050565b61089461297b565b600081116108b45760405162461bcd60e51b815260040161066390612d28565b6002546040516323b872dd60e01b81526001600160a01b03909116906323b872dd906108e890339030908690600401612d50565b6020604051808303816000875af1158015610907573d6000803e3d6000fd5b505050506040513d601f19601f8201168201806040525081019061092b9190612d74565b506002546040516370a0823160e01b815230600482015260009183916001600160a01b03909116906370a0823190602401602060405180830381865afa158015610979573d6000803e3d6000fd5b505050506040513d601f19601f8201168201806040525081019061099d9190612d96565b6109a79190612daf565b6003546040516370a0823160e01b81523060048201529192506000916001600160a01b03909116906370a0823190602401602060405180830381865afa1580156109f5573d6000803e3d6000fd5b505050506040513d601f19601f82011682018060405250810190610a199190612d96565b90506000610a2884848461077e565b905060006064600f5483610a3c9190612cd6565b610a469190612d06565b90506000610a548284612daf565b6003546040516370a0823160e01b815230600482015291925084916001600160a01b03909116906370a0823190602401602060405180830381865afa158015610aa1573d6000803e3d6000fd5b505050506040513d601f19601f82011682018060405250810190610ac59190612d96565b1015610b135760405162461bcd60e51b815260206004820152601a60248201527f496e73756666696369656e74204a4243206c69717569646974790000000000006044820152606401610663565b600354604051630852cd8d60e31b8152600481018490526001600160a01b03909116906342966c6890602401600060405180830381600087803b158015610b5957600080fd5b505af1158015610b6d573d6000803e3d6000fd5b505060035460405163a9059cbb60e01b81526001600160a01b03909116925063a9059cbb9150610ba39033908590600401612dc2565b6020604051808303816000875af1158015610bc2573d6000803e3d6000fd5b505050506040513d601f19601f82011682018060405250810190610be69190612d74565b50604080518781526020810183905290810183905233907f36864aeefce16bc4aaceeb6b0cdfb2ad1455a8cb4ccb0db148a2bc6e7166f97c906060015b60405180910390a25050505050610c3960018055565b50565b6001600160a01b0381166000908152601360209081526040808320805482518185028101850190935280835260609493830182828015610ca557602002820191906000526020600020905b81546001600160a01b03168152600190910190602001808311610c87575b505050505090506000815167ffffffffffffffff811115610cc857610cc8612ddb565b604051908082528060200260200182016040528015610d2657816020015b610d13604051806060016040528060006001600160a01b0316815260200160008152602001600081525090565b815260200190600190039081610ce65790505b50905060005b8251811015610e24576040518060600160405280848381518110610d5257610d52612df1565b60200260200101516001600160a01b0316815260200160126000868581518110610d7e57610d7e612df1565b60200260200101516001600160a01b03166001600160a01b0316815260200190815260200160002060000154815260200160126000868581518110610dc557610dc5612df1565b60200260200101516001600160a01b03166001600160a01b0316815260200190815260200160002060020154815250828281518110610e0657610e06612df1565b60200260200101819052508080610e1c90612e07565b915050610d2c565b509392505050565b610e3461297b565b336000908152601260205260409020805415801590610e585750600381015460ff16155b610e965760405162461bcd60e51b815260206004820152600f60248201526e139bc81d985b1a59081d1a58dad95d608a1b6044820152606401610663565b6002810154610ea8906203f480612cf3565b421115610ee85760405162461bcd60e51b815260206004820152600e60248201526d151a58dad95d08195e1c1a5c995960921b6044820152606401610663565b8160071480610ef7575081600f145b80610f02575081601e145b610f3e5760405162461bcd60e51b815260206004820152600d60248201526c496e76616c6964206379636c6560981b6044820152606401610663565b60018101546002546040516323b872dd60e01b81526001600160a01b03909116906323b872dd90610f7790339030908690600401612d50565b6020604051808303816000875af1158015610f96573d6000803e3d6000fd5b505050506040513d601f19601f82011682018060405250810190610fba9190612d74565b5060038201805460ff191660011790556004820181905542600583015560068201839055336000908152601160205260409020546001600160a01b0316801580159061101957503360009081526011602052604090206005015460ff16155b15611068576001600160a01b038116600090815260116020526040812060010180549161104583612e07565b9091555050336000908152601160205260409020600501805460ff191660011790555b604080518381526020810186905233917f1e54d7530dad81af38adb8ca9db02add3130668375f37be85396403616fc3d49910160405180910390a2505050610c3960018055565b6110b761297b565b336000908152601260205260409020600381015460ff1680156110df5750600781015460ff16155b6111185760405162461bcd60e51b815260206004820152600a6024820152694e6f742061637469766560b01b6044820152606401610663565b6000816006015460070361112e57506014611152565b8160060154600f0361114257506019611152565b8160060154601e036111525750601e5b6000620151808360050154426111689190612daf565b6111729190612d06565b9050600081116111b55760405162461bcd60e51b815260206004820152600e60248201526d139bc81c995dd85c991cc81e595d60921b6044820152606401610663565b82600601548111156111c8575060068201545b60006103e8828486600001546111de9190612cd6565b6111e89190612cd6565b6111f29190612d06565b33600090815260116020526040902060048101546003909101549192509061121b908390612cf3565b11156112485733600090815260116020526040902060038101546004909101546112459190612daf565b90505b6000811161128e5760405162461bcd60e51b81526020600482015260136024820152724e6f207265776172647320746f20636c61696d60681b6044820152606401610663565b33600090815260116020526040812060030180548392906112b0908490612cf3565b90915550600090506112c3600283612d06565b905060006112d2600284612d06565b6002546040516370a0823160e01b815230600482015291925083916001600160a01b03909116906370a0823190602401602060405180830381865afa15801561131f573d6000803e3d6000fd5b505050506040513d601f19601f820116820180604052508101906113439190612d96565b10156113915760405162461bcd60e51b815260206004820152601760248201527f496e73756666696369656e74204d4320696e20706f6f6c0000000000000000006044820152606401610663565b60025460405163a9059cbb60e01b81526001600160a01b039091169063a9059cbb906113c39033908690600401612dc2565b6020604051808303816000875af11580156113e2573d6000803e3d6000fd5b505050506040513d601f19601f820116820180604052508101906114069190612d74565b50670de0b6b3a764000060008161141d8482612cd6565b6114279190612d06565b6003546040516370a0823160e01b815230600482015291925082916001600160a01b03909116906370a0823190602401602060405180830381865afa158015611474573d6000803e3d6000fd5b505050506040513d601f19601f820116820180604052508101906114989190612d96565b10156114e65760405162461bcd60e51b815260206004820152601860248201527f496e73756666696369656e74204a424320696e20706f6f6c00000000000000006044820152606401610663565b60035460405163a9059cbb60e01b81526001600160a01b039091169063a9059cbb906115189033908590600401612dc2565b6020604051808303816000875af1158015611537573d6000803e3d6000fd5b505050506040513d601f19601f8201168201806040525081019061155b9190612d74565b50604080518581526020810183905233917ff01da32686223933d8a18a391060918c7f11a3648639edd87ae013e2e2731743910160405180910390a250505050505050506115a860018055565b565b6002546040516370a0823160e01b815230600482015260009182916001600160a01b03909116906370a0823190602401602060405180830381865afa1580156115f7573d6000803e3d6000fd5b505050506040513d601f19601f8201168201806040525081019061161b9190612d96565b6003546040516370a0823160e01b81523060048201529192506000916001600160a01b03909116906370a0823190602401602060405180830381865afa158015611669573d6000803e3d6000fd5b505050506040513d601f19601f8201168201806040525081019061168d9190612d96565b9050806000036116a05760009250505090565b806116b383670de0b6b3a7640000612cd6565b6116bd9190612d06565b9250505090565b6116cc61297b565b600081116116ec5760405162461bcd60e51b815260040161066390612d28565b6003546040516323b872dd60e01b81526001600160a01b03909116906323b872dd9061172090339030908690600401612d50565b6020604051808303816000875af115801561173f573d6000803e3d6000fd5b505050506040513d601f19601f820116820180604052508101906117639190612d74565b5060006064601054836117769190612cd6565b6117809190612d06565b9050600061178e8284612daf565b600354604051630852cd8d60e31b8152600481018590529192506001600160a01b0316906342966c6890602401600060405180830381600087803b1580156117d557600080fd5b505af11580156117e9573d6000803e3d6000fd5b50506003546040516370a0823160e01b8152306004820152600093508492506001600160a01b03909116906370a0823190602401602060405180830381865afa15801561183a573d6000803e3d6000fd5b505050506040513d601f19601f8201168201806040525081019061185e9190612d96565b6118689190612daf565b6002546040516370a0823160e01b81523060048201529192506000916001600160a01b03909116906370a0823190602401602060405180830381865afa1580156118b6573d6000803e3d6000fd5b505050506040513d601f19601f820116820180604052508101906118da9190612d96565b905060006118e984848461077e565b6002546040516370a0823160e01b815230600482015291925082916001600160a01b03909116906370a0823190602401602060405180830381865afa158015611936573d6000803e3d6000fd5b505050506040513d601f19601f8201168201806040525081019061195a9190612d96565b10156119a85760405162461bcd60e51b815260206004820152601960248201527f496e73756666696369656e74204d43206c6971756964697479000000000000006044820152606401610663565b60025460405163a9059cbb60e01b81526001600160a01b039091169063a9059cbb906119da9033908590600401612dc2565b6020604051808303816000875af11580156119f9573d6000803e3d6000fd5b505050506040513d601f19601f82011682018060405250810190611a1d9190612d74565b50604080518781526020810183905290810186905233907f223c8ad0806f634524940a8595f819c5cfc7b1f4f4f45791269301df0a7e61d590606001610c23565b611a666129a5565b6001600160a01b038116611ab05760405162461bcd60e51b8152602060048201526011602482015270125b9d985b1a59081c9958da5c1a595b9d607a1b6044820152606401610663565b6003546040516370a0823160e01b815230600482015283916001600160a01b0316906370a0823190602401602060405180830381865afa158015611af8573d6000803e3d6000fd5b505050506040513d601f19601f82011682018060405250810190611b1c9190612d96565b1015611b5d5760405162461bcd60e51b815260206004820152601060248201526f496e73756666696369656e74204a424360801b6044820152606401610663565b60035460405163a9059cbb60e01b81526001600160a01b039091169063a9059cbb90611b8f9084908690600401612dc2565b6020604051808303816000875af1158015611bae573d6000803e3d6000fd5b505050506040513d601f19601f82011682018060405250810190611bd29190612d74565b505050565b611bdf61297b565b60008111611bff5760405162461bcd60e51b815260040161066390612d28565b6002546040516323b872dd60e01b81526001600160a01b03909116906323b872dd90611c3390339030908690600401612d50565b6020604051808303816000875af1158015611c52573d6000803e3d6000fd5b505050506040513d601f19601f82011682018060405250810190611c769190612d74565b50336000908152601160205260409020546001600160a01b03168015611d2d576002546009546001600160a01b039091169063a9059cbb908390606490611cbd9087612cd6565b611cc79190612d06565b6040518363ffffffff1660e01b8152600401611ce4929190612dc2565b6020604051808303816000875af1158015611d03573d6000803e3d6000fd5b505050506040513d601f19601f82011682018060405250810190611d279190612d74565b50611dc3565b6002546004546009546001600160a01b039283169263a9059cbb921690606490611d579087612cd6565b611d619190612d06565b6040518363ffffffff1660e01b8152600401611d7e929190612dc2565b6020604051808303816000875af1158015611d9d573d6000803e3d6000fd5b505050506040513d601f19601f82011682018060405250810190611dc19190612d74565b505b600254600454600a546001600160a01b039283169263a9059cbb921690606490611ded9087612cd6565b611df79190612d06565b6040518363ffffffff1660e01b8152600401611e14929190612dc2565b6020604051808303816000875af1158015611e33573d6000803e3d6000fd5b505050506040513d601f19601f82011682018060405250810190611e579190612d74565b50600254600454600b546001600160a01b039283169263a9059cbb921690606490611e829087612cd6565b611e8c9190612d06565b6040518363ffffffff1660e01b8152600401611ea9929190612dc2565b6020604051808303816000875af1158015611ec8573d6000803e3d6000fd5b505050506040513d601f19601f82011682018060405250810190611eec9190612d74565b50600254600754600c546001600160a01b039283169263a9059cbb921690606490611f179087612cd6565b611f219190612d06565b6040518363ffffffff1660e01b8152600401611f3e929190612dc2565b6020604051808303816000875af1158015611f5d573d6000803e3d6000fd5b505050506040513d601f19601f82011682018060405250810190611f819190612d74565b50600254600654600d546001600160a01b039283169263a9059cbb921690606490611fac9087612cd6565b611fb69190612d06565b6040518363ffffffff1660e01b8152600401611fd3929190612dc2565b6020604051808303816000875af1158015611ff2573d6000803e3d6000fd5b505050506040513d601f19601f820116820180604052508101906120169190612d74565b50600254600554600e546001600160a01b039283169263a9059cbb9216906064906120419087612cd6565b61204b9190612d06565b6040518363ffffffff1660e01b8152600401612068929190612dc2565b6020604051808303816000875af1158015612087573d6000803e3d6000fd5b505050506040513d601f19601f820116820180604052508101906120ab9190612d74565b5060405180610100016040528083815260200160648460966120cd9190612cd6565b6120d79190612d06565b815242602080830191909152600060408084018290526060808501839052608080860184905260a080870185905260c09687018590523385526012865293839020875181559487015160018601559186015160028501558501516003808501805492151560ff1993841617905591860151600485015591850151600584015592840151600683015560e090930151600790910180549115159190931617909155612182908390612cd6565b33600081815260116020526040808220600481019490945560039093015590517f0668f5b446eb814fe35b3206f43f14bd8567ba04ddaf7a3ee56516929ab22ccb906121d19085815260200190565b60405180910390a250610c3960018055565b6121eb6129a5565b6001600160a01b039092166000908152601160205260409020600181019190915560020155565b61221a6129a5565b6115a860006129d2565b61222c6129a5565b600855565b6122396129a5565b600480546001600160a01b039586166001600160a01b0319918216179091556005805494861694821694909417909355600680549285169284169290921790915560078054919093169116179055565b6122916129a5565b600f91909155601055565b6122a46129a5565b806001600160a01b0316826001600160a01b0316036122f85760405162461bcd60e51b815260206004820152601060248201526f21b0b73737ba103134b7321039b2b63360811b6044820152606401610663565b6001600160a01b03808316600090815260116020526040902080548383166001600160a01b031982161790915516801561244f576001600160a01b0381166000908152601360205260408120905b815481101561244c57846001600160a01b031682828154811061236b5761236b612df1565b6000918252602090912001546001600160a01b03160361243a578154829061239590600190612daf565b815481106123a5576123a5612df1565b9060005260206000200160009054906101000a90046001600160a01b03168282815481106123d5576123d5612df1565b9060005260206000200160006101000a8154816001600160a01b0302191690836001600160a01b031602179055508180548061241357612413612e20565b600082815260209020810160001990810180546001600160a01b031916905501905561244c565b8061244481612e07565b915050612346565b50505b6001600160a01b03821615611bd257506001600160a01b0390811660009081526013602090815260408220805460018101825590835291200180546001600160a01b03191692909116919091179055565b6124a861297b565b336000908152601260205260409020600381015460ff1680156124d05750600781015460ff16155b61250c5760405162461bcd60e51b815260206004820152600d60248201526c43616e6e6f742072656465656d60981b6044820152606401610663565b600681015461251e9062015180612cd6565b816005015461252d9190612cf3565b4210156125715760405162461bcd60e51b815260206004820152601260248201527110de58db19481b9bdd08199a5b9a5cda195960721b6044820152606401610663565b6000606460085483600001546125879190612cd6565b6125919190612d06565b6002546040516323b872dd60e01b81529192506001600160a01b0316906323b872dd906125c690339030908690600401612d50565b6020604051808303816000875af11580156125e5573d6000803e3d6000fd5b505050506040513d601f19601f820116820180604052508101906126099190612d74565b5060025460048084015460405163a9059cbb60e01b81526001600160a01b039093169263a9059cbb92612640923392909101612dc2565b6020604051808303816000875af115801561265f573d6000803e3d6000fd5b505050506040513d601f19601f820116820180604052508101906126839190612d74565b50600782018054600160ff19918216179091553360008181526011602090815260409182902060050180549094169093556004850154815190815292830184905290917ff3a670cd3af7d64b488926880889d08a8585a138ff455227af6737339a1ec262910160405180910390a250506115a860018055565b6127046129a5565b6001600160a01b03811661274e5760405162461bcd60e51b8152602060048201526011602482015270125b9d985b1a59081c9958da5c1a595b9d607a1b6044820152606401610663565b6002546040516370a0823160e01b815230600482015283916001600160a01b0316906370a0823190602401602060405180830381865afa158015612796573d6000803e3d6000fd5b505050506040513d601f19601f820116820180604052508101906127ba9190612d96565b10156127fa5760405162461bcd60e51b815260206004820152600f60248201526e496e73756666696369656e74204d4360881b6044820152606401610663565b60025460405163a9059cbb60e01b81526001600160a01b039091169063a9059cbb90611b8f9084908690600401612dc2565b6001600160a01b03811660009081526013602090815260409182902080548351818402810184019094528084526060939283018282801561289657602002820191906000526020600020905b81546001600160a01b03168152600190910190602001808311612878575b50505050509050919050565b6128aa6129a5565b808284866128b8898b612cf3565b6128c29190612cf3565b6128cc9190612cf3565b6128d69190612cf3565b6128e09190612cf3565b6064146129235760405162461bcd60e51b81526020600482015260116024820152700546f74616c206d7573742062652031303607c1b6044820152606401610663565b600995909555600a93909355600b91909155600c55600d55600e55565b6129486129a5565b6001600160a01b03811661297257604051631e4fbdf760e01b815260006004820152602401610663565b610c39816129d2565b60026001540361299e57604051633ee5aeb560e01b815260040160405180910390fd5b6002600155565b6000546001600160a01b031633146115a85760405163118cdaa760e01b8152336004820152602401610663565b600080546001600160a01b038381166001600160a01b0319831681178455604051919092169283917f8be0079c531659141344cd1fd0a4f28419497f9722a3daafe3b4186f6b6457e09190a35050565b80356001600160a01b0381168114612a3957600080fd5b919050565b600060208284031215612a5057600080fd5b612a5982612a22565b9392505050565b600080600060608486031215612a7557600080fd5b505081359360208301359350604090920135919050565b60008060408385031215612a9f57600080fd5b612aa883612a22565b946020939093013593505050565b600060208284031215612ac857600080fd5b5035919050565b602080825282518282018190526000919060409081850190868401855b82811015612b2457815180516001600160a01b0316855286810151878601528501518585015260609093019290850190600101612aec565b5091979650505050505050565b60008060408385031215612b4457600080fd5b82359150612b5460208401612a22565b90509250929050565b600080600060608486031215612b7257600080fd5b612b7b84612a22565b95602085013595506040909401359392505050565b60008060008060808587031215612ba657600080fd5b612baf85612a22565b9350612bbd60208601612a22565b9250612bcb60408601612a22565b9150612bd960608601612a22565b905092959194509250565b60008060408385031215612bf757600080fd5b50508035926020909101359150565b60008060408385031215612c1957600080fd5b612c2283612a22565b9150612b5460208401612a22565b6020808252825182820181905260009190848201906040850190845b81811015612c715783516001600160a01b031683529284019291840191600101612c4c565b50909695505050505050565b60008060008060008060c08789031215612c9657600080fd5b505084359660208601359650604086013595606081013595506080810135945060a0013592509050565b634e487b7160e01b600052601160045260246000fd5b8082028115828204841417612ced57612ced612cc0565b92915050565b80820180821115612ced57612ced612cc0565b600082612d2357634e487b7160e01b600052601260045260246000fd5b500490565b6020808252600e908201526d125b9d985b1a5908185b5bdd5b9d60921b604082015260600190565b6001600160a01b039384168152919092166020820152604081019190915260600190565b600060208284031215612d8657600080fd5b81518015158114612a5957600080fd5b600060208284031215612da857600080fd5b5051919050565b81810381811115612ced57612ced612cc0565b6001600160a01b03929092168252602082015260400190565b634e487b7160e01b600052604160045260246000fd5b634e487b7160e01b600052603260045260246000fd5b600060018201612e1957612e19612cc0565b5060010190565b634e487b7160e01b600052603160045260246000fdfea2646970667358221220f4291d2b70ec9bf37374bca2f1b59affde4909d7867687861a37c67df161732f64736f6c63430008140033",
  "linkReferences": {},
  "deployedLinkReferences": {}
}