{
  "_format": "hh-sol-artifact-1",
  "contractName": "JinbaoProtocol",
  "sourceName": "contracts/JinbaoProtocol.sol",
  "abi": [
    {
      "inputs": [],
      "stateMutability": "nonpayable",
      "type": "constructor"
    },
    {
      "inputs": [
        {
          "internalType": "address",
          "name": "target",
          "type": "address"
        }
      ],
      "name": "AddressEmptyCode",
      "type": "error"
    },
    {
      "inputs": [],
      "name": "AlreadyBound",
      "type": "error"
    },
    {
      "inputs": [],
      "name": "AlreadyExited",
      "type": "error"
    },
    {
      "inputs": [],
      "name": "BatchUpdateSizeMismatch",
      "type": "error"
    },
    {
      "inputs": [
        {
          "internalType": "address",
          "name": "implementation",
          "type": "address"
        }
      ],
      "name": "ERC1967InvalidImplementation",
      "type": "error"
    },
    {
      "inputs": [],
      "name": "ERC1967NonPayable",
      "type": "error"
    },
    {
      "inputs": [],
      "name": "Expired",
      "type": "error"
    },
    {
      "inputs": [],
      "name": "FailedCall",
      "type": "error"
    },
    {
      "inputs": [],
      "name": "InsufficientBalance",
      "type": "error"
    },
    {
      "inputs": [],
      "name": "InvalidAddress",
      "type": "error"
    },
    {
      "inputs": [],
      "name": "InvalidAmount",
      "type": "error"
    },
    {
      "inputs": [],
      "name": "InvalidCycle",
      "type": "error"
    },
    {
      "inputs": [],
      "name": "InvalidFee",
      "type": "error"
    },
    {
      "inputs": [],
      "name": "InvalidInitialization",
      "type": "error"
    },
    {
      "inputs": [],
      "name": "InvalidLevelConfig",
      "type": "error"
    },
    {
      "inputs": [],
      "name": "InvalidRate",
      "type": "error"
    },
    {
      "inputs": [],
      "name": "InvalidTax",
      "type": "error"
    },
    {
      "inputs": [],
      "name": "InvalidTeamCountUpdate",
      "type": "error"
    },
    {
      "inputs": [],
      "name": "LowLiquidity",
      "type": "error"
    },
    {
      "inputs": [],
      "name": "NoRewards",
      "type": "error"
    },
    {
      "inputs": [],
      "name": "NotActive",
      "type": "error"
    },
    {
      "inputs": [],
      "name": "NotInitializing",
      "type": "error"
    },
    {
      "inputs": [],
      "name": "NothingToRedeem",
      "type": "error"
    },
    {
      "inputs": [
        {
          "internalType": "address",
          "name": "owner",
          "type": "address"
        }
      ],
      "name": "OwnableInvalidOwner",
      "type": "error"
    },
    {
      "inputs": [
        {
          "internalType": "address",
          "name": "account",
          "type": "address"
        }
      ],
      "name": "OwnableUnauthorizedAccount",
      "type": "error"
    },
    {
      "inputs": [],
      "name": "RecursionDepthExceeded",
      "type": "error"
    },
    {
      "inputs": [],
      "name": "SelfReference",
      "type": "error"
    },
    {
      "inputs": [],
      "name": "SumNot100",
      "type": "error"
    },
    {
      "inputs": [
        {
          "internalType": "address",
          "name": "user",
          "type": "address"
        },
        {
          "internalType": "uint256",
          "name": "expected",
          "type": "uint256"
        },
        {
          "internalType": "uint256",
          "name": "actual",
          "type": "uint256"
        }
      ],
      "name": "TeamCountMismatch",
      "type": "error"
    },
    {
      "inputs": [],
      "name": "TeamCountOverflow",
      "type": "error"
    },
    {
      "inputs": [],
      "name": "TransferFailed",
      "type": "error"
    },
    {
      "inputs": [],
      "name": "UUPSUnauthorizedCallContext",
      "type": "error"
    },
    {
      "inputs": [
        {
          "internalType": "bytes32",
          "name": "slot",
          "type": "bytes32"
        }
      ],
      "name": "UUPSUnsupportedProxiableUUID",
      "type": "error"
    },
    {
      "inputs": [],
      "name": "Unauthorized",
      "type": "error"
    },
    {
      "anonymous": false,
      "inputs": [
        {
          "indexed": false,
          "internalType": "uint256",
          "name": "usersUpdated",
          "type": "uint256"
        }
      ],
      "name": "BatchTeamCountsUpdated",
      "type": "event"
    },
    {
      "anonymous": false,
      "inputs": [
        {
          "indexed": true,
          "internalType": "address",
          "name": "user",
          "type": "address"
        },
        {
          "indexed": true,
          "internalType": "address",
          "name": "referrer",
          "type": "address"
        }
      ],
      "name": "BoundReferrer",
      "type": "event"
    },
    {
      "anonymous": false,
      "inputs": [
        {
          "indexed": false,
          "internalType": "uint256",
          "name": "mcAmount",
          "type": "uint256"
        },
        {
          "indexed": false,
          "internalType": "uint256",
          "name": "jbcBurned",
          "type": "uint256"
        }
      ],
      "name": "BuybackAndBurn",
      "type": "event"
    },
    {
      "anonymous": false,
      "inputs": [
        {
          "indexed": true,
          "internalType": "uint256",
          "name": "stakeId",
          "type": "uint256"
        },
        {
          "indexed": true,
          "internalType": "address",
          "name": "upline",
          "type": "address"
        },
        {
          "indexed": false,
          "internalType": "uint256",
          "name": "amount",
          "type": "uint256"
        }
      ],
      "name": "DifferentialRewardRecorded",
      "type": "event"
    },
    {
      "anonymous": false,
      "inputs": [
        {
          "indexed": true,
          "internalType": "uint256",
          "name": "stakeId",
          "type": "uint256"
        },
        {
          "indexed": true,
          "internalType": "address",
          "name": "upline",
          "type": "address"
        },
        {
          "indexed": false,
          "internalType": "uint256",
          "name": "amount",
          "type": "uint256"
        }
      ],
      "name": "DifferentialRewardReleased",
      "type": "event"
    },
    {
      "anonymous": false,
      "inputs": [
        {
          "indexed": false,
          "internalType": "uint256",
          "name": "direct",
          "type": "uint256"
        },
        {
          "indexed": false,
          "internalType": "uint256",
          "name": "level",
          "type": "uint256"
        },
        {
          "indexed": false,
          "internalType": "uint256",
          "name": "marketing",
          "type": "uint256"
        },
        {
          "indexed": false,
          "internalType": "uint256",
          "name": "buyback",
          "type": "uint256"
        },
        {
          "indexed": false,
          "internalType": "uint256",
          "name": "lpInjection",
          "type": "uint256"
        },
        {
          "indexed": false,
          "internalType": "uint256",
          "name": "treasury",
          "type": "uint256"
        }
      ],
      "name": "DistributionConfigUpdated",
      "type": "event"
    },
    {
      "anonymous": false,
      "inputs": [
        {
          "indexed": true,
          "internalType": "address",
          "name": "user",
          "type": "address"
        },
        {
          "indexed": false,
          "internalType": "uint256",
          "name": "ticketId",
          "type": "uint256"
        }
      ],
      "name": "Exited",
      "type": "event"
    },
    {
      "anonymous": false,
      "inputs": [
        {
          "indexed": true,
          "internalType": "address",
          "name": "user",
          "type": "address"
        },
        {
          "indexed": false,
          "internalType": "uint256",
          "name": "amount",
          "type": "uint256"
        }
      ],
      "name": "FeeRefunded",
      "type": "event"
    },
    {
      "anonymous": false,
      "inputs": [
        {
          "indexed": false,
          "internalType": "uint64",
          "name": "version",
          "type": "uint64"
        }
      ],
      "name": "Initialized",
      "type": "event"
    },
    {
      "anonymous": false,
      "inputs": [],
      "name": "LevelConfigsUpdated",
      "type": "event"
    },
    {
      "anonymous": false,
      "inputs": [
        {
          "indexed": false,
          "internalType": "uint256",
          "name": "amount",
          "type": "uint256"
        },
        {
          "indexed": false,
          "internalType": "uint256",
          "name": "newTotal",
          "type": "uint256"
        }
      ],
      "name": "LevelRewardPoolUpdated",
      "type": "event"
    },
    {
      "anonymous": false,
      "inputs": [
        {
          "indexed": true,
          "internalType": "address",
          "name": "to",
          "type": "address"
        },
        {
          "indexed": false,
          "internalType": "uint256",
          "name": "amount",
          "type": "uint256"
        }
      ],
      "name": "LevelRewardPoolWithdrawn",
      "type": "event"
    },
    {
      "anonymous": false,
      "inputs": [
        {
          "indexed": true,
          "internalType": "uint256",
          "name": "ticketId",
          "type": "uint256"
        },
        {
          "indexed": true,
          "internalType": "address",
          "name": "upline",
          "type": "address"
        },
        {
          "indexed": false,
          "internalType": "uint256",
          "name": "amount",
          "type": "uint256"
        }
      ],
      "name": "LevelRewardRecorded",
      "type": "event"
    },
    {
      "anonymous": false,
      "inputs": [
        {
          "indexed": true,
          "internalType": "uint256",
          "name": "ticketId",
          "type": "uint256"
        },
        {
          "indexed": true,
          "internalType": "address",
          "name": "upline",
          "type": "address"
        },
        {
          "indexed": false,
          "internalType": "uint256",
          "name": "amount",
          "type": "uint256"
        }
      ],
      "name": "LevelRewardReleased",
      "type": "event"
    },
    {
      "anonymous": false,
      "inputs": [
        {
          "indexed": false,
          "internalType": "uint256",
          "name": "mcAmount",
          "type": "uint256"
        },
        {
          "indexed": false,
          "internalType": "uint256",
          "name": "jbcAmount",
          "type": "uint256"
        }
      ],
      "name": "LiquidityAdded",
      "type": "event"
    },
    {
      "anonymous": false,
      "inputs": [
        {
          "indexed": true,
          "internalType": "address",
          "name": "user",
          "type": "address"
        },
        {
          "indexed": false,
          "internalType": "uint256",
          "name": "amount",
          "type": "uint256"
        },
        {
          "indexed": false,
          "internalType": "uint256",
          "name": "cycleDays",
          "type": "uint256"
        },
        {
          "indexed": false,
          "internalType": "uint256",
          "name": "stakeId",
          "type": "uint256"
        }
      ],
      "name": "LiquidityStaked",
      "type": "event"
    },
    {
      "anonymous": false,
      "inputs": [
        {
          "indexed": false,
          "internalType": "bool",
          "name": "enabled",
          "type": "bool"
        }
      ],
      "name": "LiquidityStatusUpdated",
      "type": "event"
    },
    {
      "anonymous": false,
      "inputs": [
        {
          "indexed": true,
          "internalType": "address",
          "name": "previousOwner",
          "type": "address"
        },
        {
          "indexed": true,
          "internalType": "address",
          "name": "newOwner",
          "type": "address"
        }
      ],
      "name": "OwnershipTransferred",
      "type": "event"
    },
    {
      "anonymous": false,
      "inputs": [
        {
          "indexed": false,
          "internalType": "bool",
          "name": "enabled",
          "type": "bool"
        }
      ],
      "name": "RedeemStatusUpdated",
      "type": "event"
    },
    {
      "anonymous": false,
      "inputs": [
        {
          "indexed": true,
          "internalType": "address",
          "name": "user",
          "type": "address"
        },
        {
          "indexed": false,
          "internalType": "uint256",
          "name": "principal",
          "type": "uint256"
        },
        {
          "indexed": false,
          "internalType": "uint256",
          "name": "fee",
          "type": "uint256"
        }
      ],
      "name": "Redeemed",
      "type": "event"
    },
    {
      "anonymous": false,
      "inputs": [
        {
          "indexed": false,
          "internalType": "uint256",
          "name": "newFee",
          "type": "uint256"
        }
      ],
      "name": "RedemptionFeeUpdated",
      "type": "event"
    },
    {
      "anonymous": false,
      "inputs": [
        {
          "indexed": true,
          "internalType": "address",
          "name": "user",
          "type": "address"
        },
        {
          "indexed": true,
          "internalType": "address",
          "name": "from",
          "type": "address"
        },
        {
          "indexed": false,
          "internalType": "uint256",
          "name": "mcAmount",
          "type": "uint256"
        },
        {
          "indexed": false,
          "internalType": "uint8",
          "name": "rewardType",
          "type": "uint8"
        },
        {
          "indexed": false,
          "internalType": "uint256",
          "name": "ticketId",
          "type": "uint256"
        }
      ],
      "name": "ReferralRewardPaid",
      "type": "event"
    },
    {
      "anonymous": false,
      "inputs": [
        {
          "indexed": true,
          "internalType": "address",
          "name": "user",
          "type": "address"
        },
        {
          "indexed": false,
          "internalType": "uint256",
          "name": "amount",
          "type": "uint256"
        },
        {
          "indexed": false,
          "internalType": "uint256",
          "name": "cappedAmount",
          "type": "uint256"
        }
      ],
      "name": "RewardCapped",
      "type": "event"
    },
    {
      "anonymous": false,
      "inputs": [
        {
          "indexed": true,
          "internalType": "address",
          "name": "user",
          "type": "address"
        },
        {
          "indexed": false,
          "internalType": "uint256",
          "name": "mcAmount",
          "type": "uint256"
        },
        {
          "indexed": false,
          "internalType": "uint256",
          "name": "jbcAmount",
          "type": "uint256"
        },
        {
          "indexed": false,
          "internalType": "uint8",
          "name": "rewardType",
          "type": "uint8"
        },
        {
          "indexed": false,
          "internalType": "uint256",
          "name": "ticketId",
          "type": "uint256"
        }
      ],
      "name": "RewardClaimed",
      "type": "event"
    },
    {
      "anonymous": false,
      "inputs": [
        {
          "indexed": true,
          "internalType": "address",
          "name": "user",
          "type": "address"
        },
        {
          "indexed": false,
          "internalType": "uint256",
          "name": "amount",
          "type": "uint256"
        },
        {
          "indexed": false,
          "internalType": "uint8",
          "name": "rewardType",
          "type": "uint8"
        }
      ],
      "name": "RewardPaid",
      "type": "event"
    },
    {
      "anonymous": false,
      "inputs": [
        {
          "indexed": false,
          "internalType": "uint256",
          "name": "mcAmount",
          "type": "uint256"
        },
        {
          "indexed": false,
          "internalType": "uint256",
          "name": "jbcAmount",
          "type": "uint256"
        }
      ],
      "name": "SwapReservesWithdrawn",
      "type": "event"
    },
    {
      "anonymous": false,
      "inputs": [
        {
          "indexed": false,
          "internalType": "uint256",
          "name": "buyTax",
          "type": "uint256"
        },
        {
          "indexed": false,
          "internalType": "uint256",
          "name": "sellTax",
          "type": "uint256"
        }
      ],
      "name": "SwapTaxesUpdated",
      "type": "event"
    },
    {
      "anonymous": false,
      "inputs": [
        {
          "indexed": true,
          "internalType": "address",
          "name": "user",
          "type": "address"
        },
        {
          "indexed": false,
          "internalType": "uint256",
          "name": "jbcAmount",
          "type": "uint256"
        },
        {
          "indexed": false,
          "internalType": "uint256",
          "name": "mcAmount",
          "type": "uint256"
        },
        {
          "indexed": false,
          "internalType": "uint256",
          "name": "tax",
          "type": "uint256"
        }
      ],
      "name": "SwappedJBCToMC",
      "type": "event"
    },
    {
      "anonymous": false,
      "inputs": [
        {
          "indexed": true,
          "internalType": "address",
          "name": "user",
          "type": "address"
        },
        {
          "indexed": false,
          "internalType": "uint256",
          "name": "mcAmount",
          "type": "uint256"
        },
        {
          "indexed": false,
          "internalType": "uint256",
          "name": "jbcAmount",
          "type": "uint256"
        },
        {
          "indexed": false,
          "internalType": "uint256",
          "name": "tax",
          "type": "uint256"
        }
      ],
      "name": "SwappedMCToJBC",
      "type": "event"
    },
    {
      "anonymous": false,
      "inputs": [
        {
          "indexed": true,
          "internalType": "uint256",
          "name": "stakeId",
          "type": "uint256"
        },
        {
          "indexed": true,
          "internalType": "address",
          "name": "upline",
          "type": "address"
        },
        {
          "indexed": false,
          "internalType": "uint256",
          "name": "amount",
          "type": "uint256"
        },
        {
          "indexed": false,
          "internalType": "uint256",
          "name": "teamCount",
          "type": "uint256"
        }
      ],
      "name": "TeamBasedRewardCalculated",
      "type": "event"
    },
    {
      "anonymous": false,
      "inputs": [
        {
          "indexed": true,
          "internalType": "address",
          "name": "user",
          "type": "address"
        },
        {
          "indexed": false,
          "internalType": "uint256",
          "name": "oldCount",
          "type": "uint256"
        },
        {
          "indexed": false,
          "internalType": "uint256",
          "name": "newCount",
          "type": "uint256"
        }
      ],
      "name": "TeamCountUpdated",
      "type": "event"
    },
    {
      "anonymous": false,
      "inputs": [
        {
          "indexed": true,
          "internalType": "address",
          "name": "user",
          "type": "address"
        },
        {
          "indexed": false,
          "internalType": "uint256",
          "name": "expected",
          "type": "uint256"
        },
        {
          "indexed": false,
          "internalType": "uint256",
          "name": "actual",
          "type": "uint256"
        }
      ],
      "name": "TeamCountValidationFailed",
      "type": "event"
    },
    {
      "anonymous": false,
      "inputs": [
        {
          "indexed": true,
          "internalType": "address",
          "name": "user",
          "type": "address"
        },
        {
          "indexed": false,
          "internalType": "uint256",
          "name": "ticketId",
          "type": "uint256"
        },
        {
          "indexed": false,
          "internalType": "uint256",
          "name": "amount",
          "type": "uint256"
        }
      ],
      "name": "TicketExpired",
      "type": "event"
    },
    {
      "anonymous": false,
      "inputs": [
        {
          "indexed": false,
          "internalType": "uint256",
          "name": "newDuration",
          "type": "uint256"
        }
      ],
      "name": "TicketFlexibilityDurationUpdated",
      "type": "event"
    },
    {
      "anonymous": false,
      "inputs": [
        {
          "indexed": true,
          "internalType": "address",
          "name": "user",
          "type": "address"
        },
        {
          "indexed": false,
          "internalType": "uint256",
          "name": "amount",
          "type": "uint256"
        },
        {
          "indexed": false,
          "internalType": "uint256",
          "name": "ticketId",
          "type": "uint256"
        }
      ],
      "name": "TicketPurchased",
      "type": "event"
    },
    {
      "anonymous": false,
      "inputs": [
        {
          "indexed": false,
          "internalType": "address",
          "name": "token",
          "type": "address"
        },
        {
          "indexed": false,
          "internalType": "address",
          "name": "to",
          "type": "address"
        },
        {
          "indexed": false,
          "internalType": "uint256",
          "name": "amount",
          "type": "uint256"
        }
      ],
      "name": "TokensRescued",
      "type": "event"
    },
    {
      "anonymous": false,
      "inputs": [
        {
          "indexed": true,
          "internalType": "address",
          "name": "implementation",
          "type": "address"
        }
      ],
      "name": "Upgraded",
      "type": "event"
    },
    {
      "anonymous": false,
      "inputs": [
        {
          "indexed": false,
          "internalType": "address",
          "name": "marketing",
          "type": "address"
        },
        {
          "indexed": false,
          "internalType": "address",
          "name": "treasury",
          "type": "address"
        },
        {
          "indexed": false,
          "internalType": "address",
          "name": "lpInjection",
          "type": "address"
        },
        {
          "indexed": false,
          "internalType": "address",
          "name": "buyback",
          "type": "address"
        }
      ],
      "name": "WalletsUpdated",
      "type": "event"
    },
    {
      "inputs": [],
      "name": "REWARD_DIFFERENTIAL",
      "outputs": [
        {
          "internalType": "uint8",
          "name": "",
          "type": "uint8"
        }
      ],
      "stateMutability": "view",
      "type": "function"
    },
    {
      "inputs": [],
      "name": "REWARD_DIRECT",
      "outputs": [
        {
          "internalType": "uint8",
          "name": "",
          "type": "uint8"
        }
      ],
      "stateMutability": "view",
      "type": "function"
    },
    {
      "inputs": [],
      "name": "REWARD_DYNAMIC",
      "outputs": [
        {
          "internalType": "uint8",
          "name": "",
          "type": "uint8"
        }
      ],
      "stateMutability": "view",
      "type": "function"
    },
    {
      "inputs": [],
      "name": "REWARD_LEVEL",
      "outputs": [
        {
          "internalType": "uint8",
          "name": "",
          "type": "uint8"
        }
      ],
      "stateMutability": "view",
      "type": "function"
    },
    {
      "inputs": [],
      "name": "REWARD_STATIC",
      "outputs": [
        {
          "internalType": "uint8",
          "name": "",
          "type": "uint8"
        }
      ],
      "stateMutability": "view",
      "type": "function"
    },
    {
      "inputs": [],
      "name": "SECONDS_IN_UNIT",
      "outputs": [
        {
          "internalType": "uint256",
          "name": "",
          "type": "uint256"
        }
      ],
      "stateMutability": "view",
      "type": "function"
    },
    {
      "inputs": [],
      "name": "UPGRADE_INTERFACE_VERSION",
      "outputs": [
        {
          "internalType": "string",
          "name": "",
          "type": "string"
        }
      ],
      "stateMutability": "view",
      "type": "function"
    },
    {
      "inputs": [
        {
          "internalType": "uint256",
          "name": "mcAmount",
          "type": "uint256"
        },
        {
          "internalType": "uint256",
          "name": "jbcAmount",
          "type": "uint256"
        }
      ],
      "name": "addLiquidity",
      "outputs": [],
      "stateMutability": "nonpayable",
      "type": "function"
    },
    {
      "inputs": [
        {
          "internalType": "address[]",
          "name": "users",
          "type": "address[]"
        },
        {
          "internalType": "uint256[]",
          "name": "newCounts",
          "type": "uint256[]"
        }
      ],
      "name": "batchUpdateTeamCounts",
      "outputs": [],
      "stateMutability": "nonpayable",
      "type": "function"
    },
    {
      "inputs": [
        {
          "internalType": "address",
          "name": "_referrer",
          "type": "address"
        }
      ],
      "name": "bindReferrer",
      "outputs": [],
      "stateMutability": "nonpayable",
      "type": "function"
    },
    {
      "inputs": [
        {
          "internalType": "uint256",
          "name": "amount",
          "type": "uint256"
        }
      ],
      "name": "buyTicket",
      "outputs": [],
      "stateMutability": "nonpayable",
      "type": "function"
    },
    {
      "inputs": [],
      "name": "buybackPercent",
      "outputs": [
        {
          "internalType": "uint256",
          "name": "",
          "type": "uint256"
        }
      ],
      "stateMutability": "view",
      "type": "function"
    },
    {
      "inputs": [],
      "name": "buybackWallet",
      "outputs": [
        {
          "internalType": "address",
          "name": "",
          "type": "address"
        }
      ],
      "stateMutability": "view",
      "type": "function"
    },
    {
      "inputs": [],
      "name": "claimRewards",
      "outputs": [],
      "stateMutability": "nonpayable",
      "type": "function"
    },
    {
      "inputs": [
        {
          "internalType": "address",
          "name": "",
          "type": "address"
        },
        {
          "internalType": "uint256",
          "name": "",
          "type": "uint256"
        }
      ],
      "name": "directReferrals",
      "outputs": [
        {
          "internalType": "address",
          "name": "",
          "type": "address"
        }
      ],
      "stateMutability": "view",
      "type": "function"
    },
    {
      "inputs": [],
      "name": "directRewardPercent",
      "outputs": [
        {
          "internalType": "uint256",
          "name": "",
          "type": "uint256"
        }
      ],
      "stateMutability": "view",
      "type": "function"
    },
    {
      "inputs": [
        {
          "internalType": "address",
          "name": "user",
          "type": "address"
        }
      ],
      "name": "getDirectReferrals",
      "outputs": [
        {
          "internalType": "address[]",
          "name": "",
          "type": "address[]"
        }
      ],
      "stateMutability": "view",
      "type": "function"
    },
    {
      "inputs": [
        {
          "internalType": "uint256",
          "name": "activeDirects",
          "type": "uint256"
        }
      ],
      "name": "getLevel",
      "outputs": [
        {
          "internalType": "uint256",
          "name": "level",
          "type": "uint256"
        },
        {
          "internalType": "uint256",
          "name": "percent",
          "type": "uint256"
        }
      ],
      "stateMutability": "view",
      "type": "function"
    },
    {
      "inputs": [
        {
          "internalType": "uint256",
          "name": "teamCount",
          "type": "uint256"
        }
      ],
      "name": "getLevelByTeamCount",
      "outputs": [
        {
          "internalType": "uint256",
          "name": "level",
          "type": "uint256"
        },
        {
          "internalType": "uint256",
          "name": "percent",
          "type": "uint256"
        }
      ],
      "stateMutability": "view",
      "type": "function"
    },
    {
      "inputs": [
        {
          "internalType": "uint256",
          "name": "activeDirects",
          "type": "uint256"
        }
      ],
      "name": "getLevelRewardLayers",
      "outputs": [
        {
          "internalType": "uint256",
          "name": "",
          "type": "uint256"
        }
      ],
      "stateMutability": "pure",
      "type": "function"
    },
    {
      "inputs": [
        {
          "internalType": "address",
          "name": "_mcToken",
          "type": "address"
        },
        {
          "internalType": "address",
          "name": "_jbcToken",
          "type": "address"
        },
        {
          "internalType": "address",
          "name": "_marketing",
          "type": "address"
        },
        {
          "internalType": "address",
          "name": "_treasury",
          "type": "address"
        },
        {
          "internalType": "address",
          "name": "_lpInjection",
          "type": "address"
        },
        {
          "internalType": "address",
          "name": "_buybackWallet",
          "type": "address"
        }
      ],
      "name": "initialize",
      "outputs": [],
      "stateMutability": "nonpayable",
      "type": "function"
    },
    {
      "inputs": [],
      "name": "jbcToken",
      "outputs": [
        {
          "internalType": "contract IJBC",
          "name": "",
          "type": "address"
        }
      ],
      "stateMutability": "view",
      "type": "function"
    },
    {
      "inputs": [],
      "name": "lastBurnTime",
      "outputs": [
        {
          "internalType": "uint256",
          "name": "",
          "type": "uint256"
        }
      ],
      "stateMutability": "view",
      "type": "function"
    },
    {
      "inputs": [],
      "name": "levelRewardPercent",
      "outputs": [
        {
          "internalType": "uint256",
          "name": "",
          "type": "uint256"
        }
      ],
      "stateMutability": "view",
      "type": "function"
    },
    {
      "inputs": [],
      "name": "levelRewardPool",
      "outputs": [
        {
          "internalType": "uint256",
          "name": "",
          "type": "uint256"
        }
      ],
      "stateMutability": "view",
      "type": "function"
    },
    {
      "inputs": [],
      "name": "liquidityEnabled",
      "outputs": [
        {
          "internalType": "bool",
          "name": "",
          "type": "bool"
        }
      ],
      "stateMutability": "view",
      "type": "function"
    },
    {
      "inputs": [],
      "name": "lpInjectionPercent",
      "outputs": [
        {
          "internalType": "uint256",
          "name": "",
          "type": "uint256"
        }
      ],
      "stateMutability": "view",
      "type": "function"
    },
    {
      "inputs": [],
      "name": "lpInjectionWallet",
      "outputs": [
        {
          "internalType": "address",
          "name": "",
          "type": "address"
        }
      ],
      "stateMutability": "view",
      "type": "function"
    },
    {
      "inputs": [],
      "name": "marketingPercent",
      "outputs": [
        {
          "internalType": "uint256",
          "name": "",
          "type": "uint256"
        }
      ],
      "stateMutability": "view",
      "type": "function"
    },
    {
      "inputs": [],
      "name": "marketingWallet",
      "outputs": [
        {
          "internalType": "address",
          "name": "",
          "type": "address"
        }
      ],
      "stateMutability": "view",
      "type": "function"
    },
    {
      "inputs": [],
      "name": "mcToken",
      "outputs": [
        {
          "internalType": "contract IERC20",
          "name": "",
          "type": "address"
        }
      ],
      "stateMutability": "view",
      "type": "function"
    },
    {
      "inputs": [],
      "name": "nextStakeId",
      "outputs": [
        {
          "internalType": "uint256",
          "name": "",
          "type": "uint256"
        }
      ],
      "stateMutability": "view",
      "type": "function"
    },
    {
      "inputs": [],
      "name": "nextTicketId",
      "outputs": [
        {
          "internalType": "uint256",
          "name": "",
          "type": "uint256"
        }
      ],
      "stateMutability": "view",
      "type": "function"
    },
    {
      "inputs": [],
      "name": "owner",
      "outputs": [
        {
          "internalType": "address",
          "name": "",
          "type": "address"
        }
      ],
      "stateMutability": "view",
      "type": "function"
    },
    {
      "inputs": [],
      "name": "proxiableUUID",
      "outputs": [
        {
          "internalType": "bytes32",
          "name": "",
          "type": "bytes32"
        }
      ],
      "stateMutability": "view",
      "type": "function"
    },
    {
      "inputs": [],
      "name": "redeem",
      "outputs": [],
      "stateMutability": "nonpayable",
      "type": "function"
    },
    {
      "inputs": [],
      "name": "redeemEnabled",
      "outputs": [
        {
          "internalType": "bool",
          "name": "",
          "type": "bool"
        }
      ],
      "stateMutability": "view",
      "type": "function"
    },
    {
      "inputs": [],
      "name": "redemptionFeePercent",
      "outputs": [
        {
          "internalType": "uint256",
          "name": "",
          "type": "uint256"
        }
      ],
      "stateMutability": "view",
      "type": "function"
    },
    {
      "inputs": [],
      "name": "renounceOwnership",
      "outputs": [],
      "stateMutability": "nonpayable",
      "type": "function"
    },
    {
      "inputs": [
        {
          "internalType": "address",
          "name": "_token",
          "type": "address"
        },
        {
          "internalType": "address",
          "name": "_to",
          "type": "address"
        },
        {
          "internalType": "uint256",
          "name": "_amount",
          "type": "uint256"
        }
      ],
      "name": "rescueTokens",
      "outputs": [],
      "stateMutability": "nonpayable",
      "type": "function"
    },
    {
      "inputs": [
        {
          "internalType": "uint256",
          "name": "_direct",
          "type": "uint256"
        },
        {
          "internalType": "uint256",
          "name": "_level",
          "type": "uint256"
        },
        {
          "internalType": "uint256",
          "name": "_marketing",
          "type": "uint256"
        },
        {
          "internalType": "uint256",
          "name": "_buyback",
          "type": "uint256"
        },
        {
          "internalType": "uint256",
          "name": "_lpInjection",
          "type": "uint256"
        },
        {
          "internalType": "uint256",
          "name": "_treasury",
          "type": "uint256"
        }
      ],
      "name": "setDistributionConfig",
      "outputs": [],
      "stateMutability": "nonpayable",
      "type": "function"
    },
    {
      "inputs": [
        {
          "internalType": "bool",
          "name": "_liquidityEnabled",
          "type": "bool"
        },
        {
          "internalType": "bool",
          "name": "_redeemEnabled",
          "type": "bool"
        }
      ],
      "name": "setOperationalStatus",
      "outputs": [],
      "stateMutability": "nonpayable",
      "type": "function"
    },
    {
      "inputs": [
        {
          "internalType": "uint256",
          "name": "_fee",
          "type": "uint256"
        }
      ],
      "name": "setRedemptionFeePercent",
      "outputs": [],
      "stateMutability": "nonpayable",
      "type": "function"
    },
    {
      "inputs": [
        {
          "internalType": "uint256",
          "name": "_buyTax",
          "type": "uint256"
        },
        {
          "internalType": "uint256",
          "name": "_sellTax",
          "type": "uint256"
        }
      ],
      "name": "setSwapTaxes",
      "outputs": [],
      "stateMutability": "nonpayable",
      "type": "function"
    },
    {
      "inputs": [
        {
          "internalType": "uint256",
          "name": "_duration",
          "type": "uint256"
        }
      ],
      "name": "setTicketFlexibilityDuration",
      "outputs": [],
      "stateMutability": "nonpayable",
      "type": "function"
    },
    {
      "inputs": [
        {
          "internalType": "address",
          "name": "_marketing",
          "type": "address"
        },
        {
          "internalType": "address",
          "name": "_treasury",
          "type": "address"
        },
        {
          "internalType": "address",
          "name": "_lpInjection",
          "type": "address"
        },
        {
          "internalType": "address",
          "name": "_buyback",
          "type": "address"
        }
      ],
      "name": "setWallets",
      "outputs": [],
      "stateMutability": "nonpayable",
      "type": "function"
    },
    {
      "inputs": [
        {
          "internalType": "uint256",
          "name": "amount",
          "type": "uint256"
        },
        {
          "internalType": "uint256",
          "name": "cycleDays",
          "type": "uint256"
        }
      ],
      "name": "stakeLiquidity",
      "outputs": [],
      "stateMutability": "nonpayable",
      "type": "function"
    },
    {
      "inputs": [
        {
          "internalType": "uint256",
          "name": "",
          "type": "uint256"
        }
      ],
      "name": "stakeOwner",
      "outputs": [
        {
          "internalType": "address",
          "name": "",
          "type": "address"
        }
      ],
      "stateMutability": "view",
      "type": "function"
    },
    {
      "inputs": [
        {
          "internalType": "uint256",
          "name": "",
          "type": "uint256"
        },
        {
          "internalType": "uint256",
          "name": "",
          "type": "uint256"
        }
      ],
      "name": "stakePendingRewards",
      "outputs": [
        {
          "internalType": "address",
          "name": "upline",
          "type": "address"
        },
        {
          "internalType": "uint256",
          "name": "amount",
          "type": "uint256"
        }
      ],
      "stateMutability": "view",
      "type": "function"
    },
    {
      "inputs": [],
      "name": "swapBuyTax",
      "outputs": [
        {
          "internalType": "uint256",
          "name": "",
          "type": "uint256"
        }
      ],
      "stateMutability": "view",
      "type": "function"
    },
    {
      "inputs": [
        {
          "internalType": "uint256",
          "name": "jbcAmount",
          "type": "uint256"
        }
      ],
      "name": "swapJBCToMC",
      "outputs": [],
      "stateMutability": "nonpayable",
      "type": "function"
    },
    {
      "inputs": [
        {
          "internalType": "uint256",
          "name": "mcAmount",
          "type": "uint256"
        }
      ],
      "name": "swapMCToJBC",
      "outputs": [],
      "stateMutability": "nonpayable",
      "type": "function"
    },
    {
      "inputs": [],
      "name": "swapReserveJBC",
      "outputs": [
        {
          "internalType": "uint256",
          "name": "",
          "type": "uint256"
        }
      ],
      "stateMutability": "view",
      "type": "function"
    },
    {
      "inputs": [],
      "name": "swapReserveMC",
      "outputs": [
        {
          "internalType": "uint256",
          "name": "",
          "type": "uint256"
        }
      ],
      "stateMutability": "view",
      "type": "function"
    },
    {
      "inputs": [],
      "name": "swapSellTax",
      "outputs": [
        {
          "internalType": "uint256",
          "name": "",
          "type": "uint256"
        }
      ],
      "stateMutability": "view",
      "type": "function"
    },
    {
      "inputs": [],
      "name": "ticketFlexibilityDuration",
      "outputs": [
        {
          "internalType": "uint256",
          "name": "",
          "type": "uint256"
        }
      ],
      "stateMutability": "view",
      "type": "function"
    },
    {
      "inputs": [
        {
          "internalType": "uint256",
          "name": "",
          "type": "uint256"
        }
      ],
      "name": "ticketOwner",
      "outputs": [
        {
          "internalType": "address",
          "name": "",
          "type": "address"
        }
      ],
      "stateMutability": "view",
      "type": "function"
    },
    {
      "inputs": [
        {
          "internalType": "uint256",
          "name": "",
          "type": "uint256"
        },
        {
          "internalType": "uint256",
          "name": "",
          "type": "uint256"
        }
      ],
      "name": "ticketPendingRewards",
      "outputs": [
        {
          "internalType": "address",
          "name": "upline",
          "type": "address"
        },
        {
          "internalType": "uint256",
          "name": "amount",
          "type": "uint256"
        }
      ],
      "stateMutability": "view",
      "type": "function"
    },
    {
      "inputs": [
        {
          "internalType": "address",
          "name": "newOwner",
          "type": "address"
        }
      ],
      "name": "transferOwnership",
      "outputs": [],
      "stateMutability": "nonpayable",
      "type": "function"
    },
    {
      "inputs": [],
      "name": "treasuryPercent",
      "outputs": [
        {
          "internalType": "uint256",
          "name": "",
          "type": "uint256"
        }
      ],
      "stateMutability": "view",
      "type": "function"
    },
    {
      "inputs": [],
      "name": "treasuryWallet",
      "outputs": [
        {
          "internalType": "address",
          "name": "",
          "type": "address"
        }
      ],
      "stateMutability": "view",
      "type": "function"
    },
    {
      "inputs": [
        {
          "internalType": "address",
          "name": "newImplementation",
          "type": "address"
        },
        {
          "internalType": "bytes",
          "name": "data",
          "type": "bytes"
        }
      ],
      "name": "upgradeToAndCall",
      "outputs": [],
      "stateMutability": "payable",
      "type": "function"
    },
    {
      "inputs": [
        {
          "internalType": "address",
          "name": "",
          "type": "address"
        }
      ],
      "name": "userInfo",
      "outputs": [
        {
          "internalType": "address",
          "name": "referrer",
          "type": "address"
        },
        {
          "internalType": "uint256",
          "name": "activeDirects",
          "type": "uint256"
        },
        {
          "internalType": "uint256",
          "name": "teamCount",
          "type": "uint256"
        },
        {
          "internalType": "uint256",
          "name": "totalRevenue",
          "type": "uint256"
        },
        {
          "internalType": "uint256",
          "name": "currentCap",
          "type": "uint256"
        },
        {
          "internalType": "bool",
          "name": "isActive",
          "type": "bool"
        },
        {
          "internalType": "uint256",
          "name": "refundFeeAmount",
          "type": "uint256"
        },
        {
          "internalType": "uint256",
          "name": "teamTotalVolume",
          "type": "uint256"
        },
        {
          "internalType": "uint256",
          "name": "teamTotalCap",
          "type": "uint256"
        },
        {
          "internalType": "uint256",
          "name": "maxTicketAmount",
          "type": "uint256"
        },
        {
          "internalType": "uint256",
          "name": "maxSingleTicketAmount",
          "type": "uint256"
        }
      ],
      "stateMutability": "view",
      "type": "function"
    },
    {
      "inputs": [
        {
          "internalType": "address",
          "name": "",
          "type": "address"
        },
        {
          "internalType": "uint256",
          "name": "",
          "type": "uint256"
        }
      ],
      "name": "userStakes",
      "outputs": [
        {
          "internalType": "uint256",
          "name": "id",
          "type": "uint256"
        },
        {
          "internalType": "uint256",
          "name": "amount",
          "type": "uint256"
        },
        {
          "internalType": "uint256",
          "name": "startTime",
          "type": "uint256"
        },
        {
          "internalType": "uint256",
          "name": "cycleDays",
          "type": "uint256"
        },
        {
          "internalType": "bool",
          "name": "active",
          "type": "bool"
        },
        {
          "internalType": "uint256",
          "name": "paid",
          "type": "uint256"
        }
      ],
      "stateMutability": "view",
      "type": "function"
    },
    {
      "inputs": [
        {
          "internalType": "address",
          "name": "",
          "type": "address"
        }
      ],
      "name": "userTicket",
      "outputs": [
        {
          "internalType": "uint256",
          "name": "ticketId",
          "type": "uint256"
        },
        {
          "internalType": "uint256",
          "name": "amount",
          "type": "uint256"
        },
        {
          "internalType": "uint256",
          "name": "purchaseTime",
          "type": "uint256"
        },
        {
          "internalType": "bool",
          "name": "exited",
          "type": "bool"
        }
      ],
      "stateMutability": "view",
      "type": "function"
    },
    {
      "inputs": [
        {
          "internalType": "address",
          "name": "_to",
          "type": "address"
        },
        {
          "internalType": "uint256",
          "name": "_amount",
          "type": "uint256"
        }
      ],
      "name": "withdrawLevelRewardPool",
      "outputs": [],
      "stateMutability": "nonpayable",
      "type": "function"
    },
    {
      "inputs": [
        {
          "internalType": "address",
          "name": "_toMC",
          "type": "address"
        },
        {
          "internalType": "uint256",
          "name": "_amountMC",
          "type": "uint256"
        },
        {
          "internalType": "address",
          "name": "_toJBC",
          "type": "address"
        },
        {
          "internalType": "uint256",
          "name": "_amountJBC",
          "type": "uint256"
        }
      ],
      "name": "withdrawSwapReserves",
      "outputs": [],
      "stateMutability": "nonpayable",
      "type": "function"
    }
  ],
  "bytecode": "0x60a0604052306080523480156200001557600080fd5b506200002062000026565b620000da565b7ff0c57e16840df040f15088dc2f81fe391c3923bec73e23a9662efc9c229c6a00805468010000000000000000900460ff1615620000775760405163f92ee8a960e01b815260040160405180910390fd5b80546001600160401b0390811614620000d75780546001600160401b0319166001600160401b0390811782556040519081527fc7f505b2f371ae2175ee4913f4499e1f2633a7b5936321eed1cdaeb6115181d29060200160405180910390a15b50565b60805161597062000104600039600081816142610152818161428a01526143c201526159706000f3fe6080604052600436106102f45760003560e01c806301d62efb146102f957806304ef9d581461031b57806304f618cb1461034457806305ad3935146103645780630a5c4567146103915780630e2be210146103b15780631427f616146103d85780631788513c146103ed578063182c84cc1461040d5780631959a0021461042d5780631d0dac761461050c57806327f082f414610522578063372500ab146105385780633dbd46bd1461054d5780634626402b1461058357806347194001146105a3578063488b5d97146105d15780634ea4c6b3146105e65780634f1ef2861461060657806352778b051461061957806352d1902d146106395780636031a52f1461064e57806367dd74ca146106645780636dd6682714610684578063715018a61461069a57806374b0eecf146106af57806375506c96146106cf57806375f0a874146106e557806377a2a54014610705578063813380cd1461071b57806383672f3e1461074957806386481d40146105a35780638710bcaa1461076957806388481b61146107d057806388fd4d33146107e55780638a859a85146108055780638c0eaa481461081a5780638da5cb5b1461082f57806390b0eb51146108445780639370b08014610864578063952539921461087a57806399b6024d1461089a5780639cd441da146108ba5780639d99eca4146108da578063ac8f50aa146108fa578063ad3cb1cc1461091a578063b048a4bb14610958578063b5d5b5fa14610982578063b759936b146109d1578063bd594dcf146109e7578063be040fb0146109fd578063c2ff12fc14610a12578063cc2a9a5b14610a48578063ccf6194414610a68578063cea9d26f14610a7e578063ceaa366d14610a9e578063d0f1647014610ab4578063d2c8e0e514610ad4578063d2f8253614610b01578063d4f0014214610b20578063d8020a1814610b40578063deab8aea14610b56578063dec7fa3b14610b76578063e306744914610b8c578063e4412f6814610ba2578063ece7126614610bb8578063f2fde38b14610bd8575b600080fd5b34801561030557600080fd5b506103196103143660046151e3565b610bf8565b005b34801561032757600080fd5b50610331600b5481565b6040519081526020015b60405180910390f35b34801561035057600080fd5b5061031961035f366004615238565b610c8e565b34801561037057600080fd5b5061038461037f366004615253565b610d93565b60405161033b919061527d565b34801561039d57600080fd5b506103196103ac366004615291565b610dcb565b3480156103bd57600080fd5b506103c6600281565b60405160ff909116815260200161033b565b3480156103e457600080fd5b506103c6600081565b3480156103f957600080fd5b50600154610384906001600160a01b031681565b34801561041957600080fd5b50610331610428366004615291565b6110a6565b34801561043957600080fd5b506104af610448366004615238565b600f60205260009081526040902080546001820154600283015460038401546004850154600586015460068701546007880154600889015460098a0154600a909a01546001600160a01b0390991699979896979596949560ff90941694929391929091908b565b604080516001600160a01b03909c168c5260208c019a909a52988a01979097526060890195909552608088019390935290151560a087015260c086015260e08501526101008401526101208301526101408201526101600161033b565b34801561051857600080fd5b5061033160175481565b34801561052e57600080fd5b50610331600d5481565b34801561054457600080fd5b506103196110e0565b34801561055957600080fd5b50610384610568366004615291565b601d602052600090815260409020546001600160a01b031681565b34801561058f57600080fd5b50600354610384906001600160a01b031681565b3480156105af57600080fd5b506105c36105be366004615291565b611750565b60405161033b9291906152aa565b3480156105dd57600080fd5b50610331603c81565b3480156105f257600080fd5b506103196106013660046152b8565b611765565b6103196106143660046152f0565b611bf9565b34801561062557600080fd5b50610319610634366004615291565b611c18565b34801561064557600080fd5b50610331611ee2565b34801561065a57600080fd5b5061033160185481565b34801561067057600080fd5b5061031961067f366004615291565b611eff565b34801561069057600080fd5b5061033160145481565b3480156106a657600080fd5b5061031961250d565b3480156106bb57600080fd5b506103196106ca3660046153fc565b61251f565b3480156106db57600080fd5b5061033160195481565b3480156106f157600080fd5b50600254610384906001600160a01b031681565b34801561071157600080fd5b5061033160165481565b34801561072757600080fd5b5061073b6107363660046152b8565b6126b9565b60405161033b929190615467565b34801561075557600080fd5b50610319610764366004615480565b6126ff565b34801561077557600080fd5b506107ae610784366004615238565b60106020526000908152604090208054600182015460028301546003909301549192909160ff1684565b604080519485526020850193909352918301521515606082015260800161033b565b3480156107dc57600080fd5b506103c6600481565b3480156107f157600080fd5b50600454610384906001600160a01b031681565b34801561081157600080fd5b506103c6600181565b34801561082657600080fd5b506103c6600381565b34801561083b57600080fd5b50610384612799565b34801561085057600080fd5b5061031961085f3660046152b8565b6127b4565b34801561087057600080fd5b50610331600e5481565b34801561088657600080fd5b50600054610384906001600160a01b031681565b3480156108a657600080fd5b506103196108b5366004615253565b6127f8565b3480156108c657600080fd5b506103196108d53660046152b8565b6128d4565b3480156108e657600080fd5b506103196108f5366004615291565b612a39565b34801561090657600080fd5b5061073b6109153660046152b8565b612a7d565b34801561092657600080fd5b5061094b604051806040016040528060058152602001640352e302e360dc1b81525081565b60405161033b91906154f8565b34801561096457600080fd5b506015546109729060ff1681565b604051901515815260200161033b565b34801561098e57600080fd5b506109a261099d366004615253565b612a99565b6040805196875260208701959095529385019290925260608401521515608083015260a082015260c00161033b565b3480156109dd57600080fd5b50610331601e5481565b3480156109f357600080fd5b5061033160075481565b348015610a0957600080fd5b50610319612af3565b348015610a1e57600080fd5b50610384610a2d366004615291565b601b602052600090815260409020546001600160a01b031681565b348015610a5457600080fd5b50610319610a6336600461552b565b613421565b348015610a7457600080fd5b5061033160065481565b348015610a8a57600080fd5b50610319610a9936600461559f565b6135d2565b348015610aaa57600080fd5b50610331600a5481565b348015610ac057600080fd5b50610319610acf3660046155db565b61368c565b348015610ae057600080fd5b50610af4610aef366004615238565b613710565b60405161033b919061561e565b348015610b0d57600080fd5b5060155461097290610100900460ff1681565b348015610b2c57600080fd5b50610319610b3b36600461566b565b613786565b348015610b4c57600080fd5b5061033160085481565b348015610b6257600080fd5b50600554610384906001600160a01b031681565b348015610b8257600080fd5b50610331600c5481565b348015610b9857600080fd5b50610331601a5481565b348015610bae57600080fd5b5061033160095481565b348015610bc457600080fd5b50610319610bd3366004615291565b6138e7565b348015610be457600080fd5b50610319610bf3366004615238565b613924565b610c00613962565b6015805461ffff191683151561ff001981169190911761010084151502179091556040519081527fb886fcb5b9c12916f26d967ebe962dbd51ec249fb55961da39c851cdfc10115c9060200160405180910390a160405181151581527f03cb373f89de891077fe47cec43663b6727713de0337af46bebd1178122251b7906020015b60405180910390a15050565b336000908152600f60205260409020546001600160a01b031615610cc55760405163682a906560e01b815260040160405180910390fd5b336001600160a01b03821603610cee57604051631acade8960e31b815260040160405180910390fd5b6001600160a01b038116610d155760405163e6c4247b60e01b815260040160405180910390fd5b336000818152600f6020908152604080832080546001600160a01b0387166001600160a01b0319918216811790925581855260128452828520805460018101825590865293852090930180549093168517909255519092917fa6dbb5aa28f35437de94d685d66edce5fb4812196b4984b91dfd5a7b38c0fb3091a350565b60126020528160005260406000208181548110610daf57600080fd5b6000918252602090912001546001600160a01b03169150829050565b80600003610dec5760405163162908e360e11b815260040160405180910390fd5b6000546040516323b872dd60e01b81526001600160a01b03909116906323b872dd90610e20903390309086906004016156af565b6020604051808303816000875af1158015610e3f573d6000803e3d6000fd5b505050506040513d601f19601f82011682018060405250810190610e6391906156d3565b50600060175482610e749190615706565b9050600082601654610e86919061571d565b90506000610e948284615730565b905060006064600d5483610ea89190615706565b610eb29190615730565b90506000610ec08284615752565b6001546040516370a0823160e01b815291925084916001600160a01b03909116906370a0823190610ef590309060040161527d565b602060405180830381865afa158015610f12573d6000803e3d6000fd5b505050506040513d601f19601f82011682018060405250810190610f369190615765565b1015610f55576040516343c7ad8160e11b815260040160405180910390fd5b8560166000828254610f67919061571d565b925050819055508260176000828254610f809190615752565b9091555050600154604051630852cd8d60e31b8152600481018490526001600160a01b03909116906342966c6890602401600060405180830381600087803b158015610fcb57600080fd5b505af1158015610fdf573d6000803e3d6000fd5b505060015460405163a9059cbb60e01b81526001600160a01b03909116925063a9059cbb91506110159033908590600401615467565b6020604051808303816000875af1158015611034573d6000803e3d6000fd5b505050506040513d601f19601f8201168201806040525081019061105891906156d3565b50336001600160a01b03167f36864aeefce16bc4aaceeb6b0cdfb2ad1455a8cb4ccb0db148a2bc6e7166f97c8783856040516110969392919061577e565b60405180910390a2505050505050565b6000600382106110b85750600f919050565b600282106110c85750600a919050565b600182106110d857506005919050565b506000919050565b336000908152601060205260409020600181015415806111045750600381015460ff165b1561112257604051634065aaf160e11b815260040160405180910390fd5b33600090815260116020526040812090805b82548110156113875782818154811061114f5761114f615794565b600091825260209091206004600690920201015460ff161561137f57600083828154811061117f5761117f615794565b9060005260206000209060060201600301546007036111a2575062cb7356611209565b8382815481106111b4576111b4615794565b906000526020600020906006020160030154600f036111d7575062fe502b611209565b8382815481106111e9576111e9615794565b906000526020600020906006020160030154601e0361120957506301312d005b6000603c85848154811061121f5761121f615794565b9060005260206000209060060201600201544261123c9190615752565b6112469190615730565b905084838154811061125a5761125a615794565b90600052602060002090600602016003015481111561129a5784838154811061128557611285615794565b90600052602060002090600602016003015490505b806000036112a957505061137f565b6000633b9aca0082848887815481106112c4576112c4615794565b9060005260206000209060060201600101546112e09190615706565b6112ea9190615706565b6112f49190615730565b9050600086858154811061130a5761130a615794565b90600052602060002090600602016005015490508082111561137a5760006113328284615752565b905061133e818861571d565b96508088878154811061135357611353615794565b90600052602060002090600602016005016000828254611373919061571d565b9091555050505b505050505b600101611134565b50806000036113a957604051630fec21fd60e21b815260040160405180910390fd5b336000908152600f6020526040902060048101546003909101546113ce90839061571d565b11156113fb57336000908152600f6020526040902060038101546004909101546113f89190615752565b90505b806000036114115761140c33613994565b505050565b336000908152600f60205260408120600301805483929061143390849061571d565b9091555060009050611446600283615730565b90506000611455600284615730565b600080546040516370a0823160e01b8152929350909184916001600160a01b0316906370a082319061148b90309060040161527d565b602060405180830381865afa1580156114a8573d6000803e3d6000fd5b505050506040513d601f19601f820116820180604052508101906114cc9190615765565b101580156114da5750600083115b156115595760005460405163a9059cbb60e01b81526001600160a01b039091169063a9059cbb906115119033908790600401615467565b6020604051808303816000875af1158015611530573d6000803e3d6000fd5b505050506040513d601f19601f8201168201806040525081019061155491906156d3565b508290505b600060175460001461158c5760175460165461157d90670de0b6b3a7640000615706565b6115879190615730565b611596565b670de0b6b3a76400005b90506000816115ad85670de0b6b3a7640000615706565b6115b79190615730565b6001546040516370a0823160e01b815291925060009183916001600160a01b0316906370a08231906115ed90309060040161527d565b602060405180830381865afa15801561160a573d6000803e3d6000fd5b505050506040513d601f19601f8201168201806040525081019061162e9190615765565b1015801561163c5750600082115b156116bb5760015460405163a9059cbb60e01b81526001600160a01b039091169063a9059cbb906116739033908690600401615467565b6020604051808303816000875af1158015611692573d6000803e3d6000fd5b505050506040513d601f19601f820116820180604052508101906116b691906156d3565b508190505b336001600160a01b03166000805160206158fb8339815191528860006040516116e59291906157aa565b60405180910390a28854604051339160008051602061587b8339815191529161171491889186916000916157bb565b60405180910390a2336000908152600f602052604090206004810154600390910154106117445761174433613994565b5050505050505050505b565b60008061175c83613cc6565b91509150915091565b60155460ff1661178857604051634065aaf160e11b815260040160405180910390fd5b33600090815260106020526040812060018101549091036117bc57604051634065aaf160e11b815260040160405180910390fd5b600381015460ff16156117e257604051631ecb2c4f60e31b815260040160405180910390fd5b60145481600201546117f4919061571d565b42111561181457604051630407b05b60e31b815260040160405180910390fd5b81600714158015611826575081600f14155b8015611833575081601e14155b1561185157604051634dc7f5ff60e11b815260040160405180910390fd5b826000036118725760405163162908e360e11b815260040160405180910390fd5b6000546040516323b872dd60e01b81526001600160a01b03909116906323b872dd906118a6903390309088906004016156af565b6020604051808303816000875af11580156118c5573d6000803e3d6000fd5b505050506040513d601f19601f820116820180604052508101906118e991906156d3565b50601980549060006118fa836157d9565b9091555050336000818152601160209081526040808320815160c0810183526019805482528185018a815242838601908152606084018b815260016080860181815260a087018b815288548084018a55988c528a8c2097516006909902909701978855935190870155905160028601555160038501555160048401805460ff1916911515919091179055905160059092019190915580548452601d90925290912080546001600160a01b03191683179055546119b891908590613d8d565b336000908152600f60205260408120600a01546119d95781600101546119ed565b336000908152600f60205260409020600a01545b905060006119fa82613feb565b90506000611a073361400a565b905081811015611a2a576040516343c7ad8160e11b815260040160405180910390fd5b611a333361409c565b336001600160a01b03167fa8a1b9e33e503eed12bf7e7c8c01c7f3b60217a496bddd0f5db351dd8c056c1c8787601954604051611a729392919061577e565b60405180910390a2336000908152600f60205260409020600601548015611bf057336000908152600f60205260408120600601556016548111801590611b2757506000546040516370a0823160e01b815282916001600160a01b0316906370a0823190611ae390309060040161527d565b602060405180830381865afa158015611b00573d6000803e3d6000fd5b505050506040513d601f19601f82011682018060405250810190611b249190615765565b10155b15611bf0578060166000828254611b3e9190615752565b909155505060005460405163a9059cbb60e01b81526001600160a01b039091169063a9059cbb90611b759033908590600401615467565b6020604051808303816000875af1158015611b94573d6000803e3d6000fd5b505050506040513d601f19601f82011682018060405250810190611bb891906156d3565b5060405181815233907f3437b9ea7fa19c6d233dd70cc787a70fab87cee64d8ba4571512cc84402748f9906020015b60405180910390a25b50505050505050565b611c01614256565b611c0a826142fb565b611c148282614303565b5050565b80600003611c395760405163162908e360e11b815260040160405180910390fd5b6001546040516323b872dd60e01b81526001600160a01b03909116906323b872dd90611c6d903390309086906004016156af565b6020604051808303816000875af1158015611c8c573d6000803e3d6000fd5b505050506040513d601f19601f82011682018060405250810190611cb091906156d3565b5060006064600e5483611cc39190615706565b611ccd9190615730565b90506000611cdb8284615752565b600154604051630852cd8d60e31b8152600481018590529192506001600160a01b0316906342966c6890602401600060405180830381600087803b158015611d2257600080fd5b505af1158015611d36573d6000803e3d6000fd5b50505050600060165482611d4a9190615706565b9050600082601754611d5c919061571d565b90506000611d6a8284615730565b6000546040516370a0823160e01b815291925082916001600160a01b03909116906370a0823190611d9f90309060040161527d565b602060405180830381865afa158015611dbc573d6000803e3d6000fd5b505050506040513d601f19601f82011682018060405250810190611de09190615765565b1015611dff576040516343c7ad8160e11b815260040160405180910390fd5b8360176000828254611e11919061571d565b925050819055508060166000828254611e2a9190615752565b909155505060005460405163a9059cbb60e01b81526001600160a01b039091169063a9059cbb90611e619033908590600401615467565b6020604051808303816000875af1158015611e80573d6000803e3d6000fd5b505050506040513d601f19601f82011682018060405250810190611ea491906156d3565b50336001600160a01b03167f223c8ad0806f634524940a8595f819c5cfc7b1f4f4f45791269301df0a7e61d58783886040516110969392919061577e565b6000611eec6143b7565b506000805160206158bb83398151915290565b611f0833614400565b8068056bc75e2d6310000014158015611f2a575080681043561a882930000014155b8015611f3f575080681b1ae4d6e2ef50000014155b8015611f54575080683635c9adc5dea0000014155b15611f725760405163162908e360e11b815260040160405180910390fd5b6000546040516323b872dd60e01b81526001600160a01b03909116906323b872dd90611fa6903390309086906004016156af565b6020604051808303816000875af1158015611fc5573d6000803e3d6000fd5b505050506040513d601f19601f82011682018060405250810190611fe991906156d3565b50336000908152601060205260409020600381015460ff161561206f5760188054906000612016836157d9565b90915550506018548155600181018290554260028201556003808201805460ff19169055336000908152600f60205260408120820155612057908390615706565b336000908152600f60205260409020600401556120f9565b806001015460000361208b5760188054906000612016836157d9565b8181600101600082825461209f919061571d565b9091555050336000908152600f602052604090206005015460ff16156120c6574260028201555b6120d1826003615706565b336000908152600f6020526040812060040180549091906120f390849061571d565b90915550505b336000908152600f602052604090206009015460018201541115612130576001810154336000908152600f60205260409020600901555b336000908152600f60205260409020600a015482111561216057336000908152600f60205260409020600a018290555b80546000908152601b6020908152604080832080546001600160a01b031916339081179091558352600f9091529020546001600160a01b031680158015906121c357506001600160a01b0381166000908152600f602052604090206005015460ff165b1561223c5760006064600654856121da9190615706565b6121e49190615730565b905060006121f4838360026145d7565b9050801561223557835460405133916001600160a01b0386169160008051602061585b8339815191529161222c9186916002916157f2565b60405180910390a35b50506122d2565b6000546002546006546001600160a01b039283169263a9059cbb9216906064906122669088615706565b6122709190615730565b6040518363ffffffff1660e01b815260040161228d929190615467565b6020604051808303816000875af11580156122ac573d6000803e3d6000fd5b505050506040513d601f19601f820116820180604052508101906122d091906156d3565b505b6122dc3384614770565b6000546002546008546001600160a01b039283169263a9059cbb9216906064906123069088615706565b6123109190615730565b6040518363ffffffff1660e01b815260040161232d929190615467565b6020604051808303816000875af115801561234c573d6000803e3d6000fd5b505050506040513d601f19601f8201168201806040525081019061237091906156d3565b5060006064600954856123839190615706565b61238d9190615730565b905061239881614995565b600054600454600a546001600160a01b039283169263a9059cbb9216906064906123c29089615706565b6123cc9190615730565b6040518363ffffffff1660e01b81526004016123e9929190615467565b6020604051808303816000875af1158015612408573d6000803e3d6000fd5b505050506040513d601f19601f8201168201806040525081019061242c91906156d3565b50600054600354600b546001600160a01b039283169263a9059cbb9216906064906124579089615706565b6124619190615730565b6040518363ffffffff1660e01b815260040161247e929190615467565b6020604051808303816000875af115801561249d573d6000803e3d6000fd5b505050506040513d601f19601f820116820180604052508101906124c191906156d3565b506124cb3361409c565b825460405133917f2a91574e12ad96234e84923e146b0946ecfb871cd8d5534dc1fdcbe87a7c01b3916124ff9188916152aa565b60405180910390a250505050565b612515613962565b61174e6000614bc9565b612527613962565b8281146125475760405163980a3f3160e01b815260040160405180910390fd5b60005b8381101561267e576000600f600087878581811061256a5761256a615794565b905060200201602081019061257f9190615238565b6001600160a01b03166001600160a01b031681526020019081526020016000206002015490508383838181106125b7576125b7615794565b90506020020135600f60008888868181106125d4576125d4615794565b90506020020160208101906125e99190615238565b6001600160a01b0316815260208101919091526040016000206002015585858381811061261857612618615794565b905060200201602081019061262d9190615238565b6001600160a01b031660008051602061589b8339815191528286868681811061265857612658615794565b9050602002013560405161266d9291906152aa565b60405180910390a25060010161254a565b506040518381527f9c03d1f6ba485b6cf0a120117d651729467751d3079318d05171b6f389f6bf4b906020015b60405180910390a150505050565b601360205281600052604060002081815481106126d557600080fd5b6000918252602090912060029091020180546001909101546001600160a01b039091169250905082565b612707613962565b600280546001600160a01b038681166001600160a01b031992831681179093556003805487831690841681179091556004805487841690851681179091556005805493871693909416831790935560408051948552602085019190915283019190915260608201527f213f1de8063c19612a553f1480ff341bea689d36a56a2089f1b9060d599b5d83906080016126ab565b6000806127a4614c25565b546001600160a01b031692915050565b6127bc613962565b600d829055600e8190556040517f4e9dd03193a0c81552fb8e6d32280f0d7e0ce8087241dc3d17ef3d193ee231d790610c8290849084906152aa565b612800613962565b80601e60008282546128129190615752565b909155505060005460405163a9059cbb60e01b81526001600160a01b039091169063a9059cbb906128499085908590600401615467565b6020604051808303816000875af1158015612868573d6000803e3d6000fd5b505050506040513d601f19601f8201168201806040525081019061288c91906156d3565b50816001600160a01b03167f27971ee1acbfbdfb20656657ceb2e0e7b519b9e60fe1a6b1f6d27b159f4a607c826040516128c891815260200190565b60405180910390a25050565b6128dc613962565b8115612972576000546040516323b872dd60e01b81526001600160a01b03909116906323b872dd90612916903390309087906004016156af565b6020604051808303816000875af1158015612935573d6000803e3d6000fd5b505050506040513d601f19601f8201168201806040525081019061295991906156d3565b50816016600082825461296c919061571d565b90915550505b8015612a08576001546040516323b872dd60e01b81526001600160a01b03909116906323b872dd906129ac903390309086906004016156af565b6020604051808303816000875af11580156129cb573d6000803e3d6000fd5b505050506040513d601f19601f820116820180604052508101906129ef91906156d3565b508060176000828254612a02919061571d565b90915550505b7f38f8a0c92f4c5b0b6877f878cb4c0c8d348a47b76d716c8e78f425043df9515b8282604051610c829291906152aa565b612a41613962565b60148190556040518181527fd28d9e4ce68d89af7920cb8618e342a78f51e545c530ce60f1cb1d6f0235b47f906020015b60405180910390a150565b601c60205281600052604060002081815481106126d557600080fd5b60116020528160005260406000208181548110612ab557600080fd5b600091825260209091206006909102018054600182015460028301546003840154600485015460059095015493965091945092909160ff9091169086565b601554610100900460ff16612b3a5760405162461bcd60e51b8152602060048201526008602482015267111a5cd8589b195960c21b60448201526064015b60405180910390fd5b336000908152601160205260408120908080805b8454811015612ea857848181548110612b6957612b69615794565b600091825260209091206004600690920201015460ff1615612ea0576000603c868381548110612b9b57612b9b615794565b906000526020600020906006020160030154612bb79190615706565b868381548110612bc957612bc9615794565b906000526020600020906006020160020154612be5919061571d565b9050804210612e9e576000868381548110612c0257612c02615794565b906000526020600020906006020160030154600703612c25575062cb7356612c8c565b868381548110612c3757612c37615794565b906000526020600020906006020160030154600f03612c5a575062fe502b612c8c565b868381548110612c6c57612c6c615794565b906000526020600020906006020160030154601e03612c8c57506301312d005b6000633b9aca00888581548110612ca557612ca5615794565b906000526020600020906006020160030154838a8781548110612cca57612cca615794565b906000526020600020906006020160010154612ce69190615706565b612cf09190615706565b612cfa9190615730565b90506000888581548110612d1057612d10615794565b906000526020600020906006020160050154821115612d5b57888581548110612d3b57612d3b615794565b90600052602060002090600602016005015482612d589190615752565b90505b612d65818761571d565b955080898681548110612d7a57612d7a615794565b90600052602060002090600602016005016000828254612d9a919061571d565b9091555050336000908152600f602052604081206009015490819003612dcf5750336000908152601060205260409020600101545b60006064600c5483612de19190615706565b612deb9190615730565b905060008b8881548110612e0157612e01615794565b9060005260206000209060060201600101549050808b612e21919061571d565b9a50612e2d828b61571d565b995060008c8981548110612e4357612e43615794565b906000526020600020906006020160040160006101000a81548160ff021916908315150217905550612e978c8981548110612e8057612e80615794565b906000526020600020906006020160000154614c49565b5050505050505b505b600101612b4e565b506000831180612eb85750600081115b612ef85760405162461bcd60e51b81526020600482015260116024820152704e6f7468696e6720746f2072656465656d60781b6044820152606401612b31565b8115612f8e576000546040516323b872dd60e01b81526001600160a01b03909116906323b872dd90612f32903390309087906004016156af565b6020604051808303816000875af1158015612f51573d6000803e3d6000fd5b505050506040513d601f19601f82011682018060405250810190612f7591906156d3565b508160166000828254612f88919061571d565b90915550505b801561331c57336000908152600f602052604081206003810154600490910154612fb89190615752565b905080821115612ff757336001600160a01b03166000805160206158db8339815191528383604051612feb9291906152aa565b60405180910390a28091505b811561331a57336000908152600f60205260408120600301805484929061301f90849061571d565b9091555060009050613032600284615730565b90506000613041600285615730565b600080546040516370a0823160e01b8152929350909184916001600160a01b0316906370a082319061307790309060040161527d565b602060405180830381865afa158015613094573d6000803e3d6000fd5b505050506040513d601f19601f820116820180604052508101906130b89190615765565b101580156130c65750600083115b156131455760005460405163a9059cbb60e01b81526001600160a01b039091169063a9059cbb906130fd9033908790600401615467565b6020604051808303816000875af115801561311c573d6000803e3d6000fd5b505050506040513d601f19601f8201168201806040525081019061314091906156d3565b508290505b60006017546000146131785760175460165461316990670de0b6b3a7640000615706565b6131739190615730565b613182565b670de0b6b3a76400005b905060008161319985670de0b6b3a7640000615706565b6131a39190615730565b6001546040516370a0823160e01b815291925060009183916001600160a01b0316906370a08231906131d990309060040161527d565b602060405180830381865afa1580156131f6573d6000803e3d6000fd5b505050506040513d601f19601f8201168201806040525081019061321a9190615765565b101580156132285750600082115b156132a75760015460405163a9059cbb60e01b81526001600160a01b039091169063a9059cbb9061325f9033908690600401615467565b6020604051808303816000875af115801561327e573d6000803e3d6000fd5b505050506040513d601f19601f820116820180604052508101906132a291906156d3565b508190505b336001600160a01b03166000805160206158fb8339815191528960006040516132d19291906157aa565b60405180910390a23360008181526010602052604080822054905160008051602061587b8339815191529261330b928992879291906157bb565b60405180910390a25050505050505b505b82156133995760005460405163a9059cbb60e01b81526001600160a01b039091169063a9059cbb906133549033908790600401615467565b6020604051808303816000875af1158015613373573d6000803e3d6000fd5b505050506040513d601f19601f8201168201806040525081019061339791906156d3565b505b336000908152600f6020526040812060060180548492906133bb90849061571d565b9091555050604051339060008051602061591b833981519152906133e290869086906152aa565b60405180910390a26133f33361409c565b336000908152600f6020526040902060048101546003909101541061341b5761341b33613994565b50505050565b600061342b614e10565b805490915060ff600160401b82041615906001600160401b03166000811580156134525750825b90506000826001600160401b0316600114801561346e5750303b155b90508115801561347c575080155b1561349a5760405163f92ee8a960e01b815260040160405180910390fd5b84546001600160401b031916600117855583156134c357845460ff60401b1916600160401b1785555b6134cc33614e39565b6134d4614e4a565b600080546001600160a01b03199081166001600160a01b038e8116919091179092556001805482168d84161781556002805483168d85161790556003805483168c85161790556004805483168b85161790556005805490921692891692909217815560196006819055600f6007556008829055600991909155600a819055600b819055600c919091556032600d55600e556203f4806014556015805461ffff191661010117905542601a5583156135c557845460ff60401b19168555604051600181527fc7f505b2f371ae2175ee4913f4499e1f2633a7b5936321eed1cdaeb6115181d29060200160405180910390a15b5050505050505050505050565b6135da613962565b60405163a9059cbb60e01b81526001600160a01b0384169063a9059cbb906136089085908590600401615467565b6020604051808303816000875af1158015613627573d6000803e3d6000fd5b505050506040513d601f19601f8201168201806040525081019061364b91906156d3565b507f77023e19c7343ad491fd706c36335ca0e738340a91f29b1fd81e2673d44896c483838360405161367f939291906156af565b60405180910390a1505050565b613694613962565b6006869055600785905560088490556009839055600a829055600b8190556040805187815260208101879052908101859052606081018490526080810183905260a081018290527f66682b276e4cd1a4e1f68b55b1143766c5332f472eb593cf2a70a25d9d5d99179060c00160405180910390a1505050505050565b6001600160a01b03811660009081526012602090815260409182902080548351818402810184019094528084526060939283018282801561377a57602002820191906000526020600020905b81546001600160a01b0316815260019091019060200180831161375c575b50505050509050919050565b61378e613962565b82156138225782601660008282546137a69190615752565b909155505060005460405163a9059cbb60e01b81526001600160a01b039091169063a9059cbb906137dd9087908790600401615467565b6020604051808303816000875af11580156137fc573d6000803e3d6000fd5b505050506040513d601f19601f8201168201806040525081019061382091906156d3565b505b80156138b657806017600082825461383a9190615752565b909155505060015460405163a9059cbb60e01b81526001600160a01b039091169063a9059cbb906138719085908590600401615467565b6020604051808303816000875af1158015613890573d6000803e3d6000fd5b505050506040513d601f19601f820116820180604052508101906138b491906156d3565b505b7f520bc217d25ef4588524228dffcfa518f4ad52178c71d49b8061d016213cd31183826040516126ab9291906152aa565b6138ef613962565b600c8190556040518181527fc7f6975dcffc536e6e57dd1d1dea810fff534a70563baf2d6f977b119bd00e1b90602001612a72565b61392c613962565b6001600160a01b038116613956576000604051631e4fbdf760e01b8152600401612b31919061527d565b61395f81614bc9565b50565b3361396b612799565b6001600160a01b03161461174e573360405163118cdaa760e01b8152600401612b31919061527d565b6001600160a01b0381166000908152601060205260409020600381015460ff16611c145760038101805460ff191660011790556001600160a01b03821660009081526011602052604081209080805b8354811015613b06578381815481106139fe576139fe615794565b600091825260209091206004600690920201015460ff1615613afe57600061012c600c54868481548110613a3457613a34615794565b9060005260206000209060060201600101546002613a529190615706565b613a5c9190615706565b613a669190615730565b90506000858381548110613a7c57613a7c615794565b9060005260206000209060060201600101549050818110613aa857613aa18282615752565b9050613aad565b600091505b613ab7818661571d565b9450613ac3828561571d565b93506000868481548110613ad957613ad9615794565b60009182526020909120600690910201600401805460ff191691151591909117905550505b6001016139e3565b508115613b845760005460405163a9059cbb60e01b81526001600160a01b039091169063a9059cbb90613b3f9088908690600401615467565b6020604051808303816000875af1158015613b5e573d6000803e3d6000fd5b505050506040513d601f19601f82011682018060405250810190613b8291906156d3565b505b8015613bbb576001600160a01b0385166000908152600f602052604081206006018054839290613bb590849061571d565b90915550505b6001600160a01b038086166000908152600f6020526040902060058101805460ff198116909155905460ff9091169116818015613c0057506001600160a01b03811615155b8015613c2657506001600160a01b0381166000908152600f602052604090206001015415155b15613c58576001600160a01b0381166000908152600f60205260408120600101805491613c528361580b565b91905055505b866001600160a01b031660008051602061591b8339815191528585604051613c819291906152aa565b60405180910390a285546040519081526001600160a01b038816907f920bb94eb3842a728db98228c375ff6b00c5bc5a54fac6736155517a0a20a61a90602001611be7565b6000806127108310613cde5750600992602d92509050565b6113888310613cf35750600892602892509050565b6107d08310613d085750600792602392509050565b6103e88310613d1d5750600692601e92509050565b6101f48310613d325750600592601992509050565b60c88310613d465750600492601492509050565b60648310613d5a5750600392600f92509050565b60328310613d6e5750600292600a92509050565b60148310613d825750600192600592509050565b506000928392509050565b6001600160a01b038084166000908152600f602052604081205490911690805b6001600160a01b03831615801590613dc55750601481105b15613fe3576001600160a01b0383166000908152600f602052604090206005015460ff16613e1d576001600160a01b039283166000908152600f60205260409020549092169180613e15816157d9565b915050613dad565b6001600160a01b038316600090815260106020526040902060018101541580613e4a5750600381015460ff165b15613e80576001600160a01b039384166000908152600f60205260409020549093169281613e77816157d9565b92505050613dad565b6001600160a01b0384166000908152600f6020526040812060020154613ea590611750565b91505083811115613fa2576000613ebc8583615752565b60018401549091508890811115613ed4575060018301545b60006064613ee28484615706565b613eec9190615730565b60008a8152601c60209081526040808320815180830183526001600160a01b038e81168083528286018881528454600180820187559589528789209451600291820290950180546001600160a01b03191695909416949094178355519190930155818552600f9093529281902090910154905192935090918b917fcf2f68cc66431465b13b971ea50f7d9d3c6b29a6d132d354cc3c9cf9585ab59f91613f939186916152aa565b60405180910390a38396505050505b602d8110613fb1575050613fe3565b6001600160a01b039485166000908152600f60205260409020549094169382613fd9816157d9565b9350505050613dad565b505050505050565b60006002613ffa836003615706565b6140049190615730565b92915050565b6001600160a01b0381166000908152601160205260408120815b81548110156140955781818154811061403f5761403f615794565b600091825260209091206004600690920201015460ff161561408d5781818154811061406d5761406d615794565b9060005260206000209060060201600101548361408a919061571d565b92505b600101614024565b5050919050565b6001600160a01b0381166000908152601060209081526040808320600f9092528220600a01549091906140d35781600101546140f0565b6001600160a01b0383166000908152600f60205260409020600a01545b90506000826001015460001461410e5761410982613feb565b614111565b60005b9050600080846001015411801561412d5750600384015460ff16155b80156141395750600082115b801561414d57508161414a8661400a565b10155b6001600160a01b0386166000908152600f602052604090206005015490915060ff168015158215150361418257505050505050565b6001600160a01b038681166000908152600f6020526040902060058101805460ff19168515151790555416806141bb5750505050505050565b82156141fd576001600160a01b0381166000908152600f602052604081206001018054916141e8836157d9565b91905055506141f8876001614e52565b611bf0565b6001600160a01b0381166000908152600f602052604090206001015415611bf0576001600160a01b0381166000908152600f602052604081206001018054916142458361580b565b9190505550611bf087600019614e52565b306001600160a01b037f00000000000000000000000000000000000000000000000000000000000000001614806142dd57507f00000000000000000000000000000000000000000000000000000000000000006001600160a01b03166142d16000805160206158bb833981519152546001600160a01b031690565b6001600160a01b031614155b1561174e5760405163703e46dd60e11b815260040160405180910390fd5b61395f613962565b816001600160a01b03166352d1902d6040518163ffffffff1660e01b8152600401602060405180830381865afa92505050801561435d575060408051601f3d908101601f1916820190925261435a91810190615765565b60015b61437c5781604051634c9c8ce360e01b8152600401612b31919061527d565b6000805160206158bb83398151915281146143ad57604051632a87526960e21b815260048101829052602401612b31565b61140c8383614f86565b306001600160a01b037f0000000000000000000000000000000000000000000000000000000000000000161461174e5760405163703e46dd60e11b815260040160405180910390fd5b6001600160a01b03811660009081526010602052604090206001810154158061442d5750600381015460ff165b15614436575050565b60006144418361400a565b111561444b575050565b601454816002015461445d919061571d565b4211614467575050565b805460018201546001600160a01b038085166000908152600f60205260409020805460059091015491169060ff1680156144a957506001600160a01b03811615155b80156144cf57506001600160a01b0381166000908152600f602052604090206001015415155b15614501576001600160a01b0381166000908152600f602052604081206001018054916144fb8361580b565b91905055505b6001600160a01b0385166000908152600f6020526040812060058101805460ff1990811690915560038083018490556004909201839055828755600187018390556002870192909255850180549091169055821561458d5760008381526013602052604081206145709161518f565b6000838152601b6020526040902080546001600160a01b03191690555b846001600160a01b03167f57025f0027038907eda728b59164fb63d06048f42e618a35267e6a12e49b2e4684846040516145c89291906152aa565b60405180910390a25050505050565b6001600160a01b0383166000908152600f6020908152604080832060109092528220600582015460ff1615806146115750600381015460ff165b8061461e57506001810154155b1561462e57600092505050614769565b6000826003015483600401546146449190615752565b9050858181111561468457819050876001600160a01b03166000805160206158db833981519152888460405161467b9291906152aa565b60405180910390a25b801561474b578084600301600082825461469e919061571d565b909155505060005460405163a9059cbb60e01b81526001600160a01b039091169063a9059cbb906146d5908b908590600401615467565b6020604051808303816000875af11580156146f4573d6000803e3d6000fd5b505050506040513d601f19601f8201168201806040525081019061471891906156d3565b50876001600160a01b03166000805160206158fb83398151915282886040516147429291906157aa565b60405180910390a25b83600401548460030154106147635761476388613994565b93505050505b9392505050565b6001600160a01b038083166000908152600f602052604081205490911690808080606461479e876001615706565b6147a89190615730565b90505b6001600160a01b038516158015906147c35750600f83105b80156147cf5750601482105b15614905576001600160a01b0385166000908152600f602052604090206005015460ff16614827576001600160a01b039485166000908152600f6020526040902054909416938161481f816157d9565b9250506147ab565b6001600160a01b0385166000908152600f602052604081206001015461484c906110a6565b9050838111156148c6576000614864878460036145d7565b905080156148c457614876818761571d565b6001600160a01b03808b16600081815260106020526040908190205490519399509092918a169160008051602061585b833981519152916148bb9186916003916157f2565b60405180910390a35b505b6001600160a01b039586166000908152600f602052604090205490951694836148ee816157d9565b94505082806148fc906157d9565b935050506147ab565b60006064600754886149179190615706565b6149219190615730565b9050600061492f8683615752565b905080156117445780601e6000828254614949919061571d565b9091555050601e546040517fca2e2bff26d2adb9fe155e9265350494c16751676879cb7ced9141e0fcf3934391614982918491906152aa565b60405180910390a1505050505050505050565b806000036149a05750565b60165415806149af5750601754155b156149b75750565b806016546149c5919061571d565b6000546040516370a0823160e01b81526001600160a01b03909116906370a08231906149f590309060040161527d565b602060405180830381865afa158015614a12573d6000803e3d6000fd5b505050506040513d601f19601f82011682018060405250810190614a369190615765565b1015614a3f5750565b600060175482614a4f9190615706565b9050600082601654614a61919061571d565b90506000614a6f8284615730565b9050801580614a7f575060175481115b15614a8a5750505050565b6017546001546040516370a0823160e01b81526001600160a01b03909116906370a0823190614abd90309060040161527d565b602060405180830381865afa158015614ada573d6000803e3d6000fd5b505050506040513d601f19601f82011682018060405250810190614afe9190615765565b1015614b0a5750505050565b8360166000828254614b1c919061571d565b925050819055508060176000828254614b359190615752565b9091555050600154604051630852cd8d60e31b8152600481018390526001600160a01b03909116906342966c6890602401600060405180830381600087803b158015614b8057600080fd5b505af1158015614b94573d6000803e3d6000fd5b505050507f0ec3929061cbbbeecb325623e7d5a86c3dae11cb8a22ca45dc0972955657da2584826040516126ab9291906152aa565b6000614bd3614c25565b80546001600160a01b038481166001600160a01b031983168117845560405193945091169182907f8be0079c531659141344cd1fd0a4f28419497f9722a3daafe3b4186f6b6457e090600090a3505050565b7f9016d09d72d40fdae2fd8ceac6b6234c7706214fd39c1cd1e609a0528c19930090565b6000818152601d6020908152604080832054601c835281842080548351818602810186019094528084526001600160a01b039092169493909190849084015b82821015614cd0576000848152602090819020604080518082019091526002850290910180546001600160a01b03168252600190810154828401529083529092019101614c88565b50505050905060005b8151811015614df8576000614d2a838381518110614cf957614cf9615794565b602002602001015160000151848481518110614d1757614d17615794565b60200260200101516020015160046145d7565b90508015614d8e57836001600160a01b0316838381518110614d4e57614d4e615794565b6020026020010151600001516001600160a01b031660008051602061585b83398151915283600489604051614d85939291906157f2565b60405180910390a35b828281518110614da057614da0615794565b6020026020010151600001516001600160a01b0316857fae629b396150638d6eb6de457cbffe5d618a10c8cc199a94976bed2b16ecd99383604051614de791815260200190565b60405180910390a350600101614cd9565b506000838152601c6020526040812061140c9161518f565b6000807ff0c57e16840df040f15088dc2f81fe391c3923bec73e23a9662efc9c229c6a00614004565b614e41614fdc565b61395f81615001565b61174e614fdc565b6001600160a01b0382161580614e66575080155b15614e6f575050565b6001600160a01b038083166000908152600f6020526040812054909116905b6001600160a01b03821615801590614ea65750601481105b1561341b576001600160a01b0382166000908152600f60205260408120600201549080851315614ee157614eda858361571d565b9050614f0e565b6000614eec86615822565b905082811115614eff5760009150614f0c565b614f098184615752565b91505b505b6001600160a01b0384166000818152600f6020526040908190206002018390555160008051602061589b83398151915290614f4c90859085906152aa565b60405180910390a26001600160a01b039384166000908152600f60205260409020549093169282614f7c816157d9565b9350505050614e8e565b614f8f82615009565b6040516001600160a01b038316907fbc7cd75a20ee27fd9adebab32041f755214dbc6bffa90cc0225b39da2e5c2d3b90600090a2805115614fd45761140c8282615065565b611c146150db565b614fe46150fa565b61174e57604051631afcd79f60e31b815260040160405180910390fd5b61392c614fdc565b806001600160a01b03163b6000036150365780604051634c9c8ce360e01b8152600401612b31919061527d565b6000805160206158bb83398151915280546001600160a01b0319166001600160a01b0392909216919091179055565b6060600080846001600160a01b031684604051615082919061583e565b600060405180830381855af49150503d80600081146150bd576040519150601f19603f3d011682016040523d82523d6000602084013e6150c2565b606091505b50915091506150d2858383615114565b95945050505050565b341561174e5760405163b398979f60e01b815260040160405180910390fd5b6000615104614e10565b54600160401b900460ff16919050565b6060826151295761512482615167565b614769565b815115801561514057506001600160a01b0384163b155b156151605783604051639996b31560e01b8152600401612b31919061527d565b5080614769565b80511561517657805160208201fd5b60405163d6bda27560e01b815260040160405180910390fd5b508054600082556002029060005260206000209081019061395f91905b808211156151d15780546001600160a01b0319168155600060018201556002016151ac565b5090565b801515811461395f57600080fd5b600080604083850312156151f657600080fd5b8235615201816151d5565b91506020830135615211816151d5565b809150509250929050565b80356001600160a01b038116811461523357600080fd5b919050565b60006020828403121561524a57600080fd5b6147698261521c565b6000806040838503121561526657600080fd5b61526f8361521c565b946020939093013593505050565b6001600160a01b0391909116815260200190565b6000602082840312156152a357600080fd5b5035919050565b918252602082015260400190565b600080604083850312156152cb57600080fd5b50508035926020909101359150565b634e487b7160e01b600052604160045260246000fd5b6000806040838503121561530357600080fd5b61530c8361521c565b915060208301356001600160401b038082111561532857600080fd5b818501915085601f83011261533c57600080fd5b81358181111561534e5761534e6152da565b604051601f8201601f19908116603f01168101908382118183101715615376576153766152da565b8160405282815288602084870101111561538f57600080fd5b8260208601602083013760006020848301015280955050505050509250929050565b60008083601f8401126153c357600080fd5b5081356001600160401b038111156153da57600080fd5b6020830191508360208260051b85010111156153f557600080fd5b9250929050565b6000806000806040858703121561541257600080fd5b84356001600160401b038082111561542957600080fd5b615435888389016153b1565b9096509450602087013591508082111561544e57600080fd5b5061545b878288016153b1565b95989497509550505050565b6001600160a01b03929092168252602082015260400190565b6000806000806080858703121561549657600080fd5b61549f8561521c565b93506154ad6020860161521c565b92506154bb6040860161521c565b91506154c96060860161521c565b905092959194509250565b60005b838110156154ef5781810151838201526020016154d7565b50506000910152565b60208152600082518060208401526155178160408501602087016154d4565b601f01601f19169190910160400192915050565b60008060008060008060c0878903121561554457600080fd5b61554d8761521c565b955061555b6020880161521c565b94506155696040880161521c565b93506155776060880161521c565b92506155856080880161521c565b915061559360a0880161521c565b90509295509295509295565b6000806000606084860312156155b457600080fd5b6155bd8461521c565b92506155cb6020850161521c565b9150604084013590509250925092565b60008060008060008060c087890312156155f457600080fd5b505084359660208601359650604086013595606081013595506080810135945060a0013592509050565b6020808252825182820181905260009190848201906040850190845b8181101561565f5783516001600160a01b03168352928401929184019160010161563a565b50909695505050505050565b6000806000806080858703121561568157600080fd5b61568a8561521c565b93506020850135925061569f6040860161521c565b9396929550929360600135925050565b6001600160a01b039384168152919092166020820152604081019190915260600190565b6000602082840312156156e557600080fd5b8151614769816151d5565b634e487b7160e01b600052601160045260246000fd5b8082028115828204841417614004576140046156f0565b80820180821115614004576140046156f0565b60008261574d57634e487b7160e01b600052601260045260246000fd5b500490565b81810381811115614004576140046156f0565b60006020828403121561577757600080fd5b5051919050565b9283526020830191909152604082015260600190565b634e487b7160e01b600052603260045260246000fd5b91825260ff16602082015260400190565b938452602084019290925260ff166040830152606082015260800190565b6000600182016157eb576157eb6156f0565b5060010190565b92835260ff919091166020830152604082015260600190565b60008161581a5761581a6156f0565b506000190190565b6000600160ff1b8201615837576158376156f0565b5060000390565b600082516158508184602087016154d4565b919091019291505056fe9b3cc71482a1b2eebe764a739f46f1fe99291fd0183be81951532b29d0c9c8da6fcebd0a2ce98b28cb391d6008bbc769378c9a4919628e11639cb575cd320fcca0eea20e678cb42233c1c456c84cedce7ea53fa360bb71bf3b761b7609567770360894a13ba1a3210667c828492db98dca3e2076cc3735a920a3ca505d382bbcb5987aab1afd379f6695f1068869ee8ca6a0d02304c57935a9cc3d3ea2e51e4df381583145e90b82cc5e529bf4fc4d0e44397174cdf145c4251ac33ef195a424f3a670cd3af7d64b488926880889d08a8585a138ff455227af6737339a1ec262a26469706673582212201b291e88d0daeb7e772489b6ee14ee306c41efb09ac5d3f766a39897f979ef5064736f6c63430008160033",
  "linkReferences": {},
  "deployedLinkReferences": {}
}