{
  "_format": "hh-sol-artifact-1",
  "contractName": "JinbaoProtocol",
  "sourceName": "contracts/JinbaoProtocol.sol",
  "abi": [
    {
      "inputs": [
        {
          "internalType": "address",
          "name": "_mcToken",
          "type": "address"
        },
        {
          "internalType": "address",
          "name": "_jbcToken",
          "type": "address"
        },
        {
          "internalType": "address",
          "name": "_marketing",
          "type": "address"
        },
        {
          "internalType": "address",
          "name": "_treasury",
          "type": "address"
        },
        {
          "internalType": "address",
          "name": "_lpInjection",
          "type": "address"
        }
      ],
      "stateMutability": "nonpayable",
      "type": "constructor"
    },
    {
      "inputs": [
        {
          "internalType": "address",
          "name": "owner",
          "type": "address"
        }
      ],
      "name": "OwnableInvalidOwner",
      "type": "error"
    },
    {
      "inputs": [
        {
          "internalType": "address",
          "name": "account",
          "type": "address"
        }
      ],
      "name": "OwnableUnauthorizedAccount",
      "type": "error"
    },
    {
      "inputs": [],
      "name": "ReentrancyGuardReentrantCall",
      "type": "error"
    },
    {
      "anonymous": false,
      "inputs": [
        {
          "indexed": true,
          "internalType": "address",
          "name": "user",
          "type": "address"
        },
        {
          "indexed": true,
          "internalType": "address",
          "name": "referrer",
          "type": "address"
        }
      ],
      "name": "BoundReferrer",
      "type": "event"
    },
    {
      "anonymous": false,
      "inputs": [
        {
          "indexed": false,
          "internalType": "uint256",
          "name": "mcAmount",
          "type": "uint256"
        },
        {
          "indexed": false,
          "internalType": "uint256",
          "name": "jbcBurned",
          "type": "uint256"
        }
      ],
      "name": "BuybackAndBurn",
      "type": "event"
    },
    {
      "anonymous": false,
      "inputs": [
        {
          "indexed": true,
          "internalType": "address",
          "name": "user",
          "type": "address"
        },
        {
          "indexed": false,
          "internalType": "uint256",
          "name": "ticketId",
          "type": "uint256"
        }
      ],
      "name": "Exited",
      "type": "event"
    },
    {
      "anonymous": false,
      "inputs": [
        {
          "indexed": true,
          "internalType": "address",
          "name": "user",
          "type": "address"
        },
        {
          "indexed": false,
          "internalType": "uint256",
          "name": "amount",
          "type": "uint256"
        }
      ],
      "name": "FeeRefunded",
      "type": "event"
    },
    {
      "anonymous": false,
      "inputs": [
        {
          "indexed": true,
          "internalType": "uint256",
          "name": "ticketId",
          "type": "uint256"
        },
        {
          "indexed": true,
          "internalType": "address",
          "name": "upline",
          "type": "address"
        },
        {
          "indexed": false,
          "internalType": "uint256",
          "name": "amount",
          "type": "uint256"
        }
      ],
      "name": "LevelRewardRecorded",
      "type": "event"
    },
    {
      "anonymous": false,
      "inputs": [
        {
          "indexed": true,
          "internalType": "uint256",
          "name": "ticketId",
          "type": "uint256"
        },
        {
          "indexed": true,
          "internalType": "address",
          "name": "upline",
          "type": "address"
        },
        {
          "indexed": false,
          "internalType": "uint256",
          "name": "amount",
          "type": "uint256"
        }
      ],
      "name": "LevelRewardReleased",
      "type": "event"
    },
    {
      "anonymous": false,
      "inputs": [
        {
          "indexed": true,
          "internalType": "address",
          "name": "user",
          "type": "address"
        },
        {
          "indexed": false,
          "internalType": "uint256",
          "name": "amount",
          "type": "uint256"
        },
        {
          "indexed": false,
          "internalType": "uint256",
          "name": "cycleDays",
          "type": "uint256"
        }
      ],
      "name": "LiquidityStaked",
      "type": "event"
    },
    {
      "anonymous": false,
      "inputs": [
        {
          "indexed": true,
          "internalType": "address",
          "name": "previousOwner",
          "type": "address"
        },
        {
          "indexed": true,
          "internalType": "address",
          "name": "newOwner",
          "type": "address"
        }
      ],
      "name": "OwnershipTransferred",
      "type": "event"
    },
    {
      "anonymous": false,
      "inputs": [
        {
          "indexed": true,
          "internalType": "address",
          "name": "user",
          "type": "address"
        },
        {
          "indexed": false,
          "internalType": "uint256",
          "name": "principal",
          "type": "uint256"
        },
        {
          "indexed": false,
          "internalType": "uint256",
          "name": "fee",
          "type": "uint256"
        }
      ],
      "name": "Redeemed",
      "type": "event"
    },
    {
      "anonymous": false,
      "inputs": [
        {
          "indexed": true,
          "internalType": "address",
          "name": "user",
          "type": "address"
        },
        {
          "indexed": false,
          "internalType": "uint256",
          "name": "amount",
          "type": "uint256"
        },
        {
          "indexed": false,
          "internalType": "uint256",
          "name": "cappedAmount",
          "type": "uint256"
        }
      ],
      "name": "RewardCapped",
      "type": "event"
    },
    {
      "anonymous": false,
      "inputs": [
        {
          "indexed": true,
          "internalType": "address",
          "name": "user",
          "type": "address"
        },
        {
          "indexed": false,
          "internalType": "uint256",
          "name": "amount",
          "type": "uint256"
        },
        {
          "indexed": false,
          "internalType": "uint8",
          "name": "rewardType",
          "type": "uint8"
        }
      ],
      "name": "RewardPaid",
      "type": "event"
    },
    {
      "anonymous": false,
      "inputs": [
        {
          "indexed": true,
          "internalType": "address",
          "name": "user",
          "type": "address"
        },
        {
          "indexed": false,
          "internalType": "uint256",
          "name": "jbcAmount",
          "type": "uint256"
        },
        {
          "indexed": false,
          "internalType": "uint256",
          "name": "mcAmount",
          "type": "uint256"
        },
        {
          "indexed": false,
          "internalType": "uint256",
          "name": "tax",
          "type": "uint256"
        }
      ],
      "name": "SwappedJBCToMC",
      "type": "event"
    },
    {
      "anonymous": false,
      "inputs": [
        {
          "indexed": true,
          "internalType": "address",
          "name": "user",
          "type": "address"
        },
        {
          "indexed": false,
          "internalType": "uint256",
          "name": "mcAmount",
          "type": "uint256"
        },
        {
          "indexed": false,
          "internalType": "uint256",
          "name": "jbcAmount",
          "type": "uint256"
        },
        {
          "indexed": false,
          "internalType": "uint256",
          "name": "tax",
          "type": "uint256"
        }
      ],
      "name": "SwappedMCToJBC",
      "type": "event"
    },
    {
      "anonymous": false,
      "inputs": [
        {
          "indexed": true,
          "internalType": "address",
          "name": "user",
          "type": "address"
        },
        {
          "indexed": false,
          "internalType": "uint256",
          "name": "amount",
          "type": "uint256"
        },
        {
          "indexed": false,
          "internalType": "uint256",
          "name": "ticketId",
          "type": "uint256"
        }
      ],
      "name": "TicketPurchased",
      "type": "event"
    },
    {
      "inputs": [],
      "name": "REWARD_DIRECT",
      "outputs": [
        {
          "internalType": "uint8",
          "name": "",
          "type": "uint8"
        }
      ],
      "stateMutability": "view",
      "type": "function"
    },
    {
      "inputs": [],
      "name": "REWARD_DYNAMIC",
      "outputs": [
        {
          "internalType": "uint8",
          "name": "",
          "type": "uint8"
        }
      ],
      "stateMutability": "view",
      "type": "function"
    },
    {
      "inputs": [],
      "name": "REWARD_LEVEL",
      "outputs": [
        {
          "internalType": "uint8",
          "name": "",
          "type": "uint8"
        }
      ],
      "stateMutability": "view",
      "type": "function"
    },
    {
      "inputs": [],
      "name": "REWARD_STATIC",
      "outputs": [
        {
          "internalType": "uint8",
          "name": "",
          "type": "uint8"
        }
      ],
      "stateMutability": "view",
      "type": "function"
    },
    {
      "inputs": [],
      "name": "SECONDS_IN_UNIT",
      "outputs": [
        {
          "internalType": "uint256",
          "name": "",
          "type": "uint256"
        }
      ],
      "stateMutability": "view",
      "type": "function"
    },
    {
      "inputs": [
        {
          "internalType": "address",
          "name": "user",
          "type": "address"
        },
        {
          "internalType": "address",
          "name": "newReferrer",
          "type": "address"
        }
      ],
      "name": "adminSetReferrer",
      "outputs": [],
      "stateMutability": "nonpayable",
      "type": "function"
    },
    {
      "inputs": [
        {
          "internalType": "address",
          "name": "user",
          "type": "address"
        },
        {
          "internalType": "uint256",
          "name": "_activeDirects",
          "type": "uint256"
        },
        {
          "internalType": "uint256",
          "name": "_teamCount",
          "type": "uint256"
        }
      ],
      "name": "adminSetUserStats",
      "outputs": [],
      "stateMutability": "nonpayable",
      "type": "function"
    },
    {
      "inputs": [
        {
          "internalType": "uint256",
          "name": "amount",
          "type": "uint256"
        },
        {
          "internalType": "address",
          "name": "to",
          "type": "address"
        }
      ],
      "name": "adminWithdrawJBC",
      "outputs": [],
      "stateMutability": "nonpayable",
      "type": "function"
    },
    {
      "inputs": [
        {
          "internalType": "uint256",
          "name": "amount",
          "type": "uint256"
        },
        {
          "internalType": "address",
          "name": "to",
          "type": "address"
        }
      ],
      "name": "adminWithdrawMC",
      "outputs": [],
      "stateMutability": "nonpayable",
      "type": "function"
    },
    {
      "inputs": [
        {
          "internalType": "address",
          "name": "_referrer",
          "type": "address"
        }
      ],
      "name": "bindReferrer",
      "outputs": [],
      "stateMutability": "nonpayable",
      "type": "function"
    },
    {
      "inputs": [
        {
          "internalType": "uint256",
          "name": "amount",
          "type": "uint256"
        }
      ],
      "name": "buyTicket",
      "outputs": [],
      "stateMutability": "nonpayable",
      "type": "function"
    },
    {
      "inputs": [],
      "name": "buybackPercent",
      "outputs": [
        {
          "internalType": "uint256",
          "name": "",
          "type": "uint256"
        }
      ],
      "stateMutability": "view",
      "type": "function"
    },
    {
      "inputs": [],
      "name": "claimRewards",
      "outputs": [],
      "stateMutability": "nonpayable",
      "type": "function"
    },
    {
      "inputs": [
        {
          "internalType": "address",
          "name": "",
          "type": "address"
        },
        {
          "internalType": "uint256",
          "name": "",
          "type": "uint256"
        }
      ],
      "name": "directReferrals",
      "outputs": [
        {
          "internalType": "address",
          "name": "",
          "type": "address"
        }
      ],
      "stateMutability": "view",
      "type": "function"
    },
    {
      "inputs": [],
      "name": "directRewardPercent",
      "outputs": [
        {
          "internalType": "uint256",
          "name": "",
          "type": "uint256"
        }
      ],
      "stateMutability": "view",
      "type": "function"
    },
    {
      "inputs": [
        {
          "internalType": "uint256",
          "name": "amountIn",
          "type": "uint256"
        },
        {
          "internalType": "uint256",
          "name": "reserveIn",
          "type": "uint256"
        },
        {
          "internalType": "uint256",
          "name": "reserveOut",
          "type": "uint256"
        }
      ],
      "name": "getAmountOut",
      "outputs": [
        {
          "internalType": "uint256",
          "name": "",
          "type": "uint256"
        }
      ],
      "stateMutability": "pure",
      "type": "function"
    },
    {
      "inputs": [],
      "name": "getJBCPrice",
      "outputs": [
        {
          "internalType": "uint256",
          "name": "",
          "type": "uint256"
        }
      ],
      "stateMutability": "view",
      "type": "function"
    },
    {
      "inputs": [
        {
          "internalType": "uint256",
          "name": "activeDirects",
          "type": "uint256"
        }
      ],
      "name": "getLevel",
      "outputs": [
        {
          "internalType": "uint256",
          "name": "level",
          "type": "uint256"
        },
        {
          "internalType": "uint256",
          "name": "percent",
          "type": "uint256"
        }
      ],
      "stateMutability": "pure",
      "type": "function"
    },
    {
      "inputs": [],
      "name": "jbcToken",
      "outputs": [
        {
          "internalType": "contract IJBC",
          "name": "",
          "type": "address"
        }
      ],
      "stateMutability": "view",
      "type": "function"
    },
    {
      "inputs": [],
      "name": "levelRewardPercent",
      "outputs": [
        {
          "internalType": "uint256",
          "name": "",
          "type": "uint256"
        }
      ],
      "stateMutability": "view",
      "type": "function"
    },
    {
      "inputs": [],
      "name": "lpInjectionPercent",
      "outputs": [
        {
          "internalType": "uint256",
          "name": "",
          "type": "uint256"
        }
      ],
      "stateMutability": "view",
      "type": "function"
    },
    {
      "inputs": [],
      "name": "lpInjectionWallet",
      "outputs": [
        {
          "internalType": "address",
          "name": "",
          "type": "address"
        }
      ],
      "stateMutability": "view",
      "type": "function"
    },
    {
      "inputs": [],
      "name": "marketingPercent",
      "outputs": [
        {
          "internalType": "uint256",
          "name": "",
          "type": "uint256"
        }
      ],
      "stateMutability": "view",
      "type": "function"
    },
    {
      "inputs": [],
      "name": "marketingWallet",
      "outputs": [
        {
          "internalType": "address",
          "name": "",
          "type": "address"
        }
      ],
      "stateMutability": "view",
      "type": "function"
    },
    {
      "inputs": [],
      "name": "mcToken",
      "outputs": [
        {
          "internalType": "contract IERC20",
          "name": "",
          "type": "address"
        }
      ],
      "stateMutability": "view",
      "type": "function"
    },
    {
      "inputs": [],
      "name": "nextTicketId",
      "outputs": [
        {
          "internalType": "uint256",
          "name": "",
          "type": "uint256"
        }
      ],
      "stateMutability": "view",
      "type": "function"
    },
    {
      "inputs": [],
      "name": "owner",
      "outputs": [
        {
          "internalType": "address",
          "name": "",
          "type": "address"
        }
      ],
      "stateMutability": "view",
      "type": "function"
    },
    {
      "inputs": [],
      "name": "redeem",
      "outputs": [],
      "stateMutability": "nonpayable",
      "type": "function"
    },
    {
      "inputs": [],
      "name": "redemptionFeePercent",
      "outputs": [
        {
          "internalType": "uint256",
          "name": "",
          "type": "uint256"
        }
      ],
      "stateMutability": "view",
      "type": "function"
    },
    {
      "inputs": [],
      "name": "renounceOwnership",
      "outputs": [],
      "stateMutability": "nonpayable",
      "type": "function"
    },
    {
      "inputs": [
        {
          "internalType": "address",
          "name": "_marketing",
          "type": "address"
        },
        {
          "internalType": "address",
          "name": "_treasury",
          "type": "address"
        },
        {
          "internalType": "address",
          "name": "_lpInjection",
          "type": "address"
        }
      ],
      "name": "setWallets",
      "outputs": [],
      "stateMutability": "nonpayable",
      "type": "function"
    },
    {
      "inputs": [
        {
          "internalType": "uint256",
          "name": "cycleDays",
          "type": "uint256"
        }
      ],
      "name": "stakeLiquidity",
      "outputs": [],
      "stateMutability": "nonpayable",
      "type": "function"
    },
    {
      "inputs": [],
      "name": "swapBuyTax",
      "outputs": [
        {
          "internalType": "uint256",
          "name": "",
          "type": "uint256"
        }
      ],
      "stateMutability": "view",
      "type": "function"
    },
    {
      "inputs": [
        {
          "internalType": "uint256",
          "name": "jbcAmount",
          "type": "uint256"
        }
      ],
      "name": "swapJBCToMC",
      "outputs": [],
      "stateMutability": "nonpayable",
      "type": "function"
    },
    {
      "inputs": [
        {
          "internalType": "uint256",
          "name": "mcAmount",
          "type": "uint256"
        }
      ],
      "name": "swapMCToJBC",
      "outputs": [],
      "stateMutability": "nonpayable",
      "type": "function"
    },
    {
      "inputs": [],
      "name": "swapSellTax",
      "outputs": [
        {
          "internalType": "uint256",
          "name": "",
          "type": "uint256"
        }
      ],
      "stateMutability": "view",
      "type": "function"
    },
    {
      "inputs": [
        {
          "internalType": "uint256",
          "name": "",
          "type": "uint256"
        },
        {
          "internalType": "uint256",
          "name": "",
          "type": "uint256"
        }
      ],
      "name": "ticketPendingRewards",
      "outputs": [
        {
          "internalType": "address",
          "name": "upline",
          "type": "address"
        },
        {
          "internalType": "uint256",
          "name": "amount",
          "type": "uint256"
        }
      ],
      "stateMutability": "view",
      "type": "function"
    },
    {
      "inputs": [
        {
          "internalType": "uint256",
          "name": "",
          "type": "uint256"
        }
      ],
      "name": "ticketStaticPaid",
      "outputs": [
        {
          "internalType": "uint256",
          "name": "",
          "type": "uint256"
        }
      ],
      "stateMutability": "view",
      "type": "function"
    },
    {
      "inputs": [
        {
          "internalType": "address",
          "name": "newOwner",
          "type": "address"
        }
      ],
      "name": "transferOwnership",
      "outputs": [],
      "stateMutability": "nonpayable",
      "type": "function"
    },
    {
      "inputs": [],
      "name": "treasuryPercent",
      "outputs": [
        {
          "internalType": "uint256",
          "name": "",
          "type": "uint256"
        }
      ],
      "stateMutability": "view",
      "type": "function"
    },
    {
      "inputs": [],
      "name": "treasuryWallet",
      "outputs": [
        {
          "internalType": "address",
          "name": "",
          "type": "address"
        }
      ],
      "stateMutability": "view",
      "type": "function"
    },
    {
      "inputs": [
        {
          "internalType": "address",
          "name": "",
          "type": "address"
        }
      ],
      "name": "userInfo",
      "outputs": [
        {
          "internalType": "address",
          "name": "referrer",
          "type": "address"
        },
        {
          "internalType": "uint256",
          "name": "activeDirects",
          "type": "uint256"
        },
        {
          "internalType": "uint256",
          "name": "teamCount",
          "type": "uint256"
        },
        {
          "internalType": "uint256",
          "name": "totalRevenue",
          "type": "uint256"
        },
        {
          "internalType": "uint256",
          "name": "currentCap",
          "type": "uint256"
        },
        {
          "internalType": "bool",
          "name": "isActive",
          "type": "bool"
        },
        {
          "internalType": "uint256",
          "name": "refundFeeAmount",
          "type": "uint256"
        }
      ],
      "stateMutability": "view",
      "type": "function"
    },
    {
      "inputs": [
        {
          "internalType": "address",
          "name": "",
          "type": "address"
        }
      ],
      "name": "userTicket",
      "outputs": [
        {
          "internalType": "uint256",
          "name": "ticketId",
          "type": "uint256"
        },
        {
          "internalType": "uint256",
          "name": "amount",
          "type": "uint256"
        },
        {
          "internalType": "uint256",
          "name": "requiredLiquidity",
          "type": "uint256"
        },
        {
          "internalType": "uint256",
          "name": "purchaseTime",
          "type": "uint256"
        },
        {
          "internalType": "bool",
          "name": "liquidityProvided",
          "type": "bool"
        },
        {
          "internalType": "uint256",
          "name": "liquidityAmount",
          "type": "uint256"
        },
        {
          "internalType": "uint256",
          "name": "startTime",
          "type": "uint256"
        },
        {
          "internalType": "uint256",
          "name": "cycleDays",
          "type": "uint256"
        },
        {
          "internalType": "bool",
          "name": "redeemed",
          "type": "bool"
        },
        {
          "internalType": "bool",
          "name": "exited",
          "type": "bool"
        }
      ],
      "stateMutability": "view",
      "type": "function"
    }
  ],
  "bytecode": "0x60806040526019600755600f60085560056009556005600a556019600b556019600c556001600d556032600e556019600f553480156200003e57600080fd5b506040516200366838038062003668833981016040819052620000619162000168565b33806200008857604051631e4fbdf760e01b81526000600482015260240160405180910390fd5b6200009381620000fb565b5060018055600280546001600160a01b03199081166001600160a01b03978816179091556003805482169587169590951790945560048054851693861693909317909255600580548416918516919091179055600680549092169216919091179055620001d8565b600080546001600160a01b038381166001600160a01b0319831681178455604051919092169283917f8be0079c531659141344cd1fd0a4f28419497f9722a3daafe3b4186f6b6457e09190a35050565b80516001600160a01b03811681146200016357600080fd5b919050565b600080600080600060a086880312156200018157600080fd5b6200018c866200014b565b94506200019c602087016200014b565b9350620001ac604087016200014b565b9250620001bc606087016200014b565b9150620001cc608087016200014b565b90509295509295909350565b61348080620001e86000396000f3fe608060405234801561001057600080fd5b50600436106102695760003560e01c806375cb1bd111610151578063a2af9226116100c3578063d241e00111610087578063d241e0011461060c578063d8020a181461061f578063dec7fa3b14610628578063e4412f6814610631578063f1d34d4e1461063a578063f2fde38b1461065a57600080fd5b8063a2af9226146105d6578063bd594dcf146105e9578063be040fb0146105f2578063ccf61944146105fa578063ceaa366d1461060357600080fd5b806388fd4d331161011557806388fd4d33146105865780638a859a85146105995780638c0eaa48146105a15780638da5cb5b146105a95780639370b080146105ba57806395253992146105c357600080fd5b806375cb1bd11461046257806375f0a87414610475578063813380cd1461048857806386481d40146104a95780638710bcaa146104d157600080fd5b806335076373116101ea57806352778b05116101ae57806352778b05146104055780636031a52f1461041857806362eea9141461042157806367dd74ca146104345780636fb3c47c14610447578063715018a61461045a57600080fd5b806335076373146103c7578063372500ab146103da5780633a3ea2f0146103e25780634626402b146103ea578063488b5d97146103fd57600080fd5b80630e2be210116102315780630e2be210146102f05780631427f6161461030a5780631788513c146103125780631959a0021461032557806327f082f4146103be57600080fd5b806304ef9d581461026e57806304f618cb1461028a578063054d50d41461029f57806305ad3935146102b25780630a5c4567146102dd575b600080fd5b610277600c5481565b6040519081526020015b60405180910390f35b61029d61029836600461317c565b61066d565b005b6102776102ad36600461319e565b6107da565b6102c56102c03660046131ca565b6108b0565b6040516001600160a01b039091168152602001610281565b61029d6102eb3660046131f4565b6108e8565b6102f8600281565b60405160ff9091168152602001610281565b6102f8600081565b6003546102c5906001600160a01b031681565b61037d61033336600461317c565b60106020526000908152604090208054600182015460028301546003840154600485015460058601546006909601546001600160a01b0390951695939492939192909160ff169087565b604080516001600160a01b03909816885260208801969096529486019390935260608501919091526080840152151560a083015260c082015260e001610281565b610277600e5481565b61029d6103d53660046131f4565b610cb9565b61029d6110c7565b6102776115df565b6005546102c5906001600160a01b031681565b610277603c81565b61029d6104133660046131f4565b611700565b61027760155481565b61029d61042f36600461320d565b611abb565b61029d6104423660046131f4565b611b3d565b61029d610455366004613239565b612141565b61029d612170565b61029d61047036600461326c565b612182565b6004546102c5906001600160a01b031681565b61049b6104963660046132af565b6121c9565b6040516102819291906132d1565b6104bc6104b73660046131f4565b61220f565b60408051928352602083019190915201610281565b6105386104df36600461317c565b601160205260009081526040902080546001820154600283015460038401546004850154600586015460068701546007880154600890980154969795969495939460ff938416949293919291818116916101009004168a565b604080519a8b5260208b0199909952978901969096526060880194909452911515608087015260a086015260c085015260e08401521515610100830152151561012082015261014001610281565b6006546102c5906001600160a01b031681565b6102f8600181565b6102f8600381565b6000546001600160a01b03166102c5565b610277600f5481565b6002546102c5906001600160a01b031681565b61029d6105e43660046132ea565b6122d8565b61027760085481565b61029d6124dc565b61027760075481565b610277600b5481565b61029d61061a36600461320d565b61276d565b61027760095481565b610277600d5481565b610277600a5481565b6102776106483660046131f4565b60146020526000908152604090205481565b61029d61066836600461317c565b6127a7565b336000908152601060205260409020546001600160a01b0316156106c85760405162461bcd60e51b815260206004820152600d60248201526c105b1c9958591e48189bdd5b99609a1b60448201526064015b60405180910390fd5b336001600160a01b038216036107135760405162461bcd60e51b815260206004820152601060248201526f21b0b73737ba103134b7321039b2b63360811b60448201526064016106bf565b6001600160a01b03811661075c5760405162461bcd60e51b815260206004820152601060248201526f24b73b30b634b2103932b332b93932b960811b60448201526064016106bf565b33600081815260106020908152604080832080546001600160a01b0387166001600160a01b0319918216811790925581855260128452828520805460018101825590865293852090930180549093168517909255519092917fa6dbb5aa28f35437de94d685d66edce5fb4812196b4984b91dfd5a7b38c0fb3091a350565b600080841161082b5760405162461bcd60e51b815260206004820152601960248201527f496e73756666696369656e7420696e70757420616d6f756e740000000000000060448201526064016106bf565b60008311801561083b5750600082115b6108805760405162461bcd60e51b8152602060048201526016602482015275496e73756666696369656e74206c697175696469747960501b60448201526064016106bf565b600061088c838661332a565b9050600061089a8686613347565b90506108a6818361335a565b9695505050505050565b601260205281600052604060002081815481106108cc57600080fd5b6000918252602090912001546001600160a01b03169150829050565b6108f06127e2565b600081116109315760405162461bcd60e51b815260206004820152600e60248201526d125b9d985b1a5908185b5bdd5b9d60921b60448201526064016106bf565b6002546040516323b872dd60e01b81526001600160a01b03909116906323b872dd906109659033903090869060040161337c565b6020604051808303816000875af1158015610984573d6000803e3d6000fd5b505050506040513d601f19601f820116820180604052508101906109a891906133a0565b506002546040516370a0823160e01b815230600482015260009183916001600160a01b03909116906370a0823190602401602060405180830381865afa1580156109f6573d6000803e3d6000fd5b505050506040513d601f19601f82011682018060405250810190610a1a91906133c2565b610a2491906133db565b6003546040516370a0823160e01b81523060048201529192506000916001600160a01b03909116906370a0823190602401602060405180830381865afa158015610a72573d6000803e3d6000fd5b505050506040513d601f19601f82011682018060405250810190610a9691906133c2565b90506000610aa58484846107da565b905060006064600e5483610ab9919061332a565b610ac3919061335a565b90506000610ad182846133db565b6003546040516370a0823160e01b815230600482015291925084916001600160a01b03909116906370a0823190602401602060405180830381865afa158015610b1e573d6000803e3d6000fd5b505050506040513d601f19601f82011682018060405250810190610b4291906133c2565b1015610b905760405162461bcd60e51b815260206004820152601a60248201527f496e73756666696369656e74204a4243206c697175696469747900000000000060448201526064016106bf565b600354604051630852cd8d60e31b8152600481018490526001600160a01b03909116906342966c6890602401600060405180830381600087803b158015610bd657600080fd5b505af1158015610bea573d6000803e3d6000fd5b505060035460405163a9059cbb60e01b81526001600160a01b03909116925063a9059cbb9150610c2090339085906004016132d1565b6020604051808303816000875af1158015610c3f573d6000803e3d6000fd5b505050506040513d601f19601f82011682018060405250810190610c6391906133a0565b50604080518781526020810183905290810183905233907f36864aeefce16bc4aaceeb6b0cdfb2ad1455a8cb4ccb0db148a2bc6e7166f97c906060015b60405180910390a25050505050610cb660018055565b50565b610cc16127e2565b336000908152601160205260409020600181015415801590610ce85750600481015460ff16155b610d2b5760405162461bcd60e51b8152602060048201526014602482015273496e76616c6964207469636b657420737461746560601b60448201526064016106bf565b6008810154610100900460ff1615610d755760405162461bcd60e51b815260206004820152600d60248201526c151a58dad95d08195e1a5d1959609a1b60448201526064016106bf565b6003810154610d87906203f480613347565b421115610dc75760405162461bcd60e51b815260206004820152600e60248201526d151a58dad95d08195e1c1a5c995960921b60448201526064016106bf565b8160071480610dd6575081600f145b80610de1575081601e145b610e1d5760405162461bcd60e51b815260206004820152600d60248201526c496e76616c6964206379636c6560981b60448201526064016106bf565b60028082015490546040516323b872dd60e01b81526001600160a01b03909116906323b872dd90610e569033903090869060040161337c565b6020604051808303816000875af1158015610e75573d6000803e3d6000fd5b505050506040513d601f19601f82011682018060405250810190610e9991906133a0565b5060048201805460ff19166001179055600580830182905542600684015560078301849055336000908152601060205260409020015460ff16610f335733600090815260106020526040902060058101805460ff19166001179055546001600160a01b03168015610f31576001600160a01b0381166000908152601060205260408120600101805491610f2b836133ee565b91905055505b505b604080518281526020810185905233917f1e54d7530dad81af38adb8ca9db02add3130668375f37be85396403616fc3d49910160405180910390a23360009081526010602052604090206006015480156110bb57336000908152601060205260408082206006019190915560025490516370a0823160e01b815230600482015282916001600160a01b0316906370a0823190602401602060405180830381865afa158015610fe5573d6000803e3d6000fd5b505050506040513d601f19601f8201168201806040525081019061100991906133c2565b106110bb5760025460405163a9059cbb60e01b81526001600160a01b039091169063a9059cbb9061104090339085906004016132d1565b6020604051808303816000875af115801561105f573d6000803e3d6000fd5b505050506040513d601f19601f8201168201806040525081019061108391906133a0565b5060405181815233907f3437b9ea7fa19c6d233dd70cc787a70fab87cee64d8ba4571512cc84402748f9906020015b60405180910390a25b505050610cb660018055565b6110cf6127e2565b336000908152601160205260409020600481015460ff1680156110f75750600881015460ff16155b801561110d57506008810154610100900460ff16155b6111465760405162461bcd60e51b815260206004820152600a6024820152694e6f742061637469766560b01b60448201526064016106bf565b6000816007015460070361115c57506014611180565b8160070154600f0361117057506019611180565b8160070154601e036111805750601e5b6000603c83600601544261119491906133db565b61119e919061335a565b905082600701548111156111b3575060078201545b806000036111f65760405162461bcd60e51b815260206004820152601060248201526f13195cdcc81d1a185b880c481d5b9a5d60821b60448201526064016106bf565b60006103e88284866005015461120c919061332a565b611216919061332a565b611220919061335a565b8454600090815260146020526040812054919250818311156112495761124682846133db565b90505b6000811161128a5760405162461bcd60e51b815260206004820152600e60248201526d4e6f206e6577207265776172647360901b60448201526064016106bf565b33600090815260106020526040902060048101546003909101546112af908390613347565b11156112dc5733600090815260106020526040902060038101546004909101546112d991906133db565b90505b806000036112f8576112ed3361280c565b5050505050506115d4565b855460009081526014602052604081208054839290611318908490613347565b9091555050336000908152601060205260408120600301805483929061133f908490613347565b909155506000905061135260028361335a565b9050600061136160028461335a565b6002546040516370a0823160e01b815230600482015291925083916001600160a01b03909116906370a0823190602401602060405180830381865afa1580156113ae573d6000803e3d6000fd5b505050506040513d601f19601f820116820180604052508101906113d291906133c2565b1061144e5760025460405163a9059cbb60e01b81526001600160a01b039091169063a9059cbb9061140990339086906004016132d1565b6020604051808303816000875af1158015611428573d6000803e3d6000fd5b505050506040513d601f19601f8201168201806040525081019061144c91906133a0565b505b60006114586115df565b905060008161146f84670de0b6b3a764000061332a565b611479919061335a565b6003546040516370a0823160e01b815230600482015291925082916001600160a01b03909116906370a0823190602401602060405180830381865afa1580156114c6573d6000803e3d6000fd5b505050506040513d601f19601f820116820180604052508101906114ea91906133c2565b106115665760035460405163a9059cbb60e01b81526001600160a01b039091169063a9059cbb9061152190339085906004016132d1565b6020604051808303816000875af1158015611540573d6000803e3d6000fd5b505050506040513d601f19601f8201168201806040525081019061156491906133a0565b505b604080518681526000602082015233917ff381583145e90b82cc5e529bf4fc4d0e44397174cdf145c4251ac33ef195a424910160405180910390a23360009081526010602052604090206004810154600390910154106115c9576115c93361280c565b505050505050505050505b6115dd60018055565b565b6002546040516370a0823160e01b815230600482015260009182916001600160a01b03909116906370a0823190602401602060405180830381865afa15801561162c573d6000803e3d6000fd5b505050506040513d601f19601f8201168201806040525081019061165091906133c2565b6003546040516370a0823160e01b81523060048201529192506000916001600160a01b03909116906370a0823190602401602060405180830381865afa15801561169e573d6000803e3d6000fd5b505050506040513d601f19601f820116820180604052508101906116c291906133c2565b9050806000036116dc57670de0b6b3a76400009250505090565b806116ef83670de0b6b3a764000061332a565b6116f9919061335a565b9250505090565b6117086127e2565b600081116117495760405162461bcd60e51b815260206004820152600e60248201526d125b9d985b1a5908185b5bdd5b9d60921b60448201526064016106bf565b6003546040516323b872dd60e01b81526001600160a01b03909116906323b872dd9061177d9033903090869060040161337c565b6020604051808303816000875af115801561179c573d6000803e3d6000fd5b505050506040513d601f19601f820116820180604052508101906117c091906133a0565b5060006064600f54836117d3919061332a565b6117dd919061335a565b905060006117eb82846133db565b600354604051630852cd8d60e31b8152600481018590529192506001600160a01b0316906342966c6890602401600060405180830381600087803b15801561183257600080fd5b505af1158015611846573d6000803e3d6000fd5b50506003546040516370a0823160e01b8152306004820152600093508492506001600160a01b03909116906370a0823190602401602060405180830381865afa158015611897573d6000803e3d6000fd5b505050506040513d601f19601f820116820180604052508101906118bb91906133c2565b6118c591906133db565b6002546040516370a0823160e01b81523060048201529192506000916001600160a01b03909116906370a0823190602401602060405180830381865afa158015611913573d6000803e3d6000fd5b505050506040513d601f19601f8201168201806040525081019061193791906133c2565b905060006119468484846107da565b6002546040516370a0823160e01b815230600482015291925082916001600160a01b03909116906370a0823190602401602060405180830381865afa158015611993573d6000803e3d6000fd5b505050506040513d601f19601f820116820180604052508101906119b791906133c2565b1015611a055760405162461bcd60e51b815260206004820152601960248201527f496e73756666696369656e74204d43206c69717569646974790000000000000060448201526064016106bf565b60025460405163a9059cbb60e01b81526001600160a01b039091169063a9059cbb90611a3790339085906004016132d1565b6020604051808303816000875af1158015611a56573d6000803e3d6000fd5b505050506040513d601f19601f82011682018060405250810190611a7a91906133a0565b50604080518781526020810183905290810186905233907f223c8ad0806f634524940a8595f819c5cfc7b1f4f4f45791269301df0a7e61d590606001610ca0565b611ac3612a50565b60035460405163a9059cbb60e01b81526001600160a01b039091169063a9059cbb90611af590849086906004016132d1565b6020604051808303816000875af1158015611b14573d6000803e3d6000fd5b505050506040513d601f19601f82011682018060405250810190611b3891906133a0565b505050565b611b456127e2565b8068056bc75e2d631000001480611b64575080681043561a8829300000145b80611b77575080681b1ae4d6e2ef500000145b80611b8a575080683635c9adc5dea00000145b611bce5760405162461bcd60e51b8152602060048201526015602482015274125b9d985b1a59081d1a58dad95d08185b5bdd5b9d605a1b60448201526064016106bf565b336000908152601160205260409020600181015415611c7d57600481015460009060ff16158015611c0f57506003820154611c0c906203f480613347565b42115b600883015490915060ff1680611c2e57506008820154610100900460ff165b80611c365750805b611c7b5760405162461bcd60e51b815260206004820152601660248201527550726576696f7573207469636b65742061637469766560501b60448201526064016106bf565b505b6002546040516323b872dd60e01b81526001600160a01b03909116906323b872dd90611cb19033903090879060040161337c565b6020604051808303816000875af1158015611cd0573d6000803e3d6000fd5b505050506040513d601f19601f82011682018060405250810190611cf491906133a0565b5060158054906000611d05836133ee565b919050555060405180610140016040528060155481526020018381526020016064846096611d33919061332a565b611d3d919061335a565b815242602080830191909152600060408084018290526060808501839052608080860184905260a080870185905260c080880186905260e09788018690523386526011875284862089518155898801516001820155898601516002820155938901516003808601919091559289015160048501805460ff1916911515919091179055908801516005840155870151600683015594860151600782015561010080870151600890920180546101209098015161ffff1990981692151561ff0019169290921796151502959095179094556010909152918220810191909155611e2590839061332a565b3360009081526010602052604090206004810191909155546001600160a01b03168015611e7c576000606460075485611e5e919061332a565b611e68919061335a565b9050611e7682826002612a7d565b50611f12565b6002546004546007546001600160a01b039283169263a9059cbb921690606490611ea6908861332a565b611eb0919061335a565b6040518363ffffffff1660e01b8152600401611ecd9291906132d1565b6020604051808303816000875af1158015611eec573d6000803e3d6000fd5b505050506040513d601f19601f82011682018060405250810190611f1091906133a0565b505b611f1f3384601554612c2c565b6002546004546009546001600160a01b039283169263a9059cbb921690606490611f49908861332a565b611f53919061335a565b6040518363ffffffff1660e01b8152600401611f709291906132d1565b6020604051808303816000875af1158015611f8f573d6000803e3d6000fd5b505050506040513d601f19601f82011682018060405250810190611fb391906133a0565b5060006064600a5485611fc6919061332a565b611fd0919061335a565b9050611fdb81612da3565b600254600654600b546001600160a01b039283169263a9059cbb921690606490612005908961332a565b61200f919061335a565b6040518363ffffffff1660e01b815260040161202c9291906132d1565b6020604051808303816000875af115801561204b573d6000803e3d6000fd5b505050506040513d601f19601f8201168201806040525081019061206f91906133a0565b50600254600554600c546001600160a01b039283169263a9059cbb92169060649061209a908961332a565b6120a4919061335a565b6040518363ffffffff1660e01b81526004016120c19291906132d1565b6020604051808303816000875af11580156120e0573d6000803e3d6000fd5b505050506040513d601f19601f8201168201806040525081019061210491906133a0565b5060155460405133917f2a91574e12ad96234e84923e146b0946ecfb871cd8d5534dc1fdcbe87a7c01b3916110b291888252602082015260400190565b612149612a50565b6001600160a01b039092166000908152601060205260409020600181019190915560020155565b612178612a50565b6115dd6000612f5b565b61218a612a50565b600480546001600160a01b039485166001600160a01b031991821617909155600580549385169382169390931790925560068054919093169116179055565b601360205281600052604060002081815481106121e557600080fd5b6000918252602090912060029091020180546001909101546001600160a01b039091169250905082565b600080620186a083106122285750600992602d92509050565b617530831061223d5750600892602892509050565b61271083106122525750600792602392509050565b610bb883106122675750600692601e92509050565b6103e8831061227c5750600592601992509050565b61012c83106122915750600492601492509050565b606483106122a55750600392600f92509050565b601e83106122b95750600292600a92509050565b600a83106122cd5750600192600592509050565b506000928392509050565b6122e0612a50565b806001600160a01b0316826001600160a01b0316036123345760405162461bcd60e51b815260206004820152601060248201526f21b0b73737ba103134b7321039b2b63360811b60448201526064016106bf565b6001600160a01b03808316600090815260106020526040902080548383166001600160a01b031982161790915516801561248b576001600160a01b0381166000908152601260205260408120905b815481101561248857846001600160a01b03168282815481106123a7576123a7613407565b6000918252602090912001546001600160a01b03160361247657815482906123d1906001906133db565b815481106123e1576123e1613407565b9060005260206000200160009054906101000a90046001600160a01b031682828154811061241157612411613407565b9060005260206000200160006101000a8154816001600160a01b0302191690836001600160a01b031602179055508180548061244f5761244f61341d565b600082815260209020810160001990810180546001600160a01b0319169055019055612488565b80612480816133ee565b915050612382565b50505b6001600160a01b03821615611b3857506001600160a01b0390811660009081526012602090815260408220805460018101825590835291200180546001600160a01b03191692909116919091179055565b6124e46127e2565b336000908152601160205260409020600481015460ff16801561250c5750600881015460ff16155b801561252257506008810154610100900460ff16155b61255e5760405162461bcd60e51b815260206004820152600d60248201526c43616e6e6f742072656465656d60981b60448201526064016106bf565b603c816007015461256f919061332a565b816006015461257e9190613347565b4210156125c25760405162461bcd60e51b815260206004820152601260248201527110de58db19481b9bdd08199a5b9a5cda195960721b60448201526064016106bf565b60006064600d5483600101546125d8919061332a565b6125e2919061335a565b6005830154909150818110612602576125fb82826133db565b9050612607565b600091505b60025460405163a9059cbb60e01b81526001600160a01b039091169063a9059cbb9061263990339085906004016132d1565b6020604051808303816000875af1158015612658573d6000803e3d6000fd5b505050506040513d601f19601f8201168201806040525081019061267c91906133a0565b503360009081526010602052604090206006810183905560088401805460ff199081166001179091556005820180549091169055546001600160a01b031680158015906126e357506001600160a01b03811660009081526010602052604090206001015415155b15612715576001600160a01b038116600090815260106020526040812060010180549161270f83613433565b91905055505b6005840154604080519182526020820185905233917ff3a670cd3af7d64b488926880889d08a8585a138ff455227af6737339a1ec262910160405180910390a2835461276090612fab565b505050506115dd60018055565b612775612a50565b60025460405163a9059cbb60e01b81526001600160a01b039091169063a9059cbb90611af590849086906004016132d1565b6127af612a50565b6001600160a01b0381166127d957604051631e4fbdf760e01b8152600060048201526024016106bf565b610cb681612f5b565b60026001540361280557604051633ee5aeb560e01b815260040160405180910390fd5b6002600155565b6001600160a01b03811660009081526011602052604090206008810154610100900460ff16612a4c5760088101805461ff001916610100179055600481015460ff16801561285f5750600881015460ff16155b15612a0b5760006064600d54836001015461287a919061332a565b612884919061335a565b905060008183600501541161289a5760006128aa565b8183600501546128aa91906133db565b905080156129295760025460405163a9059cbb60e01b81526001600160a01b039091169063a9059cbb906128e490879085906004016132d1565b6020604051808303816000875af1158015612903573d6000803e3d6000fd5b505050506040513d601f19601f8201168201806040525081019061292791906133a0565b505b60088301805460ff199081166001179091556001600160a01b038086166000908152601060205260409020600581018054909316909255905416801580159061298c57506001600160a01b03811660009081526010602052604090206001015415155b156129be576001600160a01b03811660009081526010602052604081206001018054916129b883613433565b91905055505b600584015460408051918252602082018590526001600160a01b038716917ff3a670cd3af7d64b488926880889d08a8585a138ff455227af6737339a1ec262910160405180910390a25050505b80546040519081526001600160a01b038316907f920bb94eb3842a728db98228c375ff6b00c5bc5a54fac6736155517a0a20a61a9060200160405180910390a25b5050565b6000546001600160a01b031633146115dd5760405163118cdaa760e01b81523360048201526024016106bf565b6001600160a01b038316600090815260106020908152604080832060119092529091206008810154610100900460ff1680612aba57506001810154155b15612ac6575050505050565b600082600301548360040154612adc91906133db565b90508481811115612b2f5750604080518681526020810183905282916001600160a01b038916917fb5987aab1afd379f6695f1068869ee8ca6a0d02304c57935a9cc3d3ea2e51e4d910160405180910390a25b8015612c0b5780846003016000828254612b499190613347565b909155505060025460405163a9059cbb60e01b81526001600160a01b039091169063a9059cbb90612b80908a9085906004016132d1565b6020604051808303816000875af1158015612b9f573d6000803e3d6000fd5b505050506040513d601f19601f82011682018060405250810190612bc391906133a0565b506040805182815260ff871660208201526001600160a01b038916917ff381583145e90b82cc5e529bf4fc4d0e44397174cdf145c4251ac33ef195a424910160405180910390a25b8360040154846003015410612c2357612c238761280c565b50505050505050565b6001600160a01b0380841660009081526010602052604081205490911690805b6001600160a01b03831615801590612c645750601481105b15612d9b576001600160a01b038316600090815260106020526040812060010154612c8e9061220f565b91505082811115612d5c576000612ca584836133db565b905060006064612cb5838a61332a565b612cbf919061335a565b6000888152601360209081526040808320815180830183526001600160a01b038c8116808352828601888152845460018082018755958952978790209351600290980290930180546001600160a01b03191697909216969096178155905191015551838152929350909189917fbd5e0947444d5adb46b3d24786f72907c1e8176cb1348960766a6cd6fad13e9f910160405180910390a382945050505b602d8110612d6a5750612d9b565b6001600160a01b039384166000908152601060205260409020549093169281612d92816133ee565b92505050612c4c565b505050505050565b6002546040516370a0823160e01b815230600482015260009183916001600160a01b03909116906370a0823190602401602060405180830381865afa158015612df0573d6000803e3d6000fd5b505050506040513d601f19601f82011682018060405250810190612e1491906133c2565b612e1e91906133db565b6003546040516370a0823160e01b81523060048201529192506000916001600160a01b03909116906370a0823190602401602060405180830381865afa158015612e6c573d6000803e3d6000fd5b505050506040513d601f19601f82011682018060405250810190612e9091906133c2565b9050600082118015612ea25750600081115b15611b38576000612eb48484846107da565b90508015612f5557600354604051630852cd8d60e31b8152600481018390526001600160a01b03909116906342966c6890602401600060405180830381600087803b158015612f0257600080fd5b505af1158015612f16573d6000803e3d6000fd5b505060408051878152602081018590527f0ec3929061cbbbeecb325623e7d5a86c3dae11cb8a22ca45dc0972955657da25935001905060405180910390a15b50505050565b600080546001600160a01b038381166001600160a01b0319831681178455604051919092169283917f8be0079c531659141344cd1fd0a4f28419497f9722a3daafe3b4186f6b6457e09190a35050565b600081815260136020908152604080832080548251818502810185019093528083529192909190849084015b8282101561301f576000848152602090819020604080518082019091526002850290910180546001600160a01b03168252600190810154828401529083529092019101612fd7565b50505050905060005b81518110156131075761307782828151811061304657613046613407565b60200260200101516000015183838151811061306457613064613407565b6020026020010151602001516003612a7d565b81818151811061308957613089613407565b6020026020010151600001516001600160a01b0316837f380d782ec118e5171a4d1e7081db076c4c94ca49c623d531763d402b094b4f248484815181106130d2576130d2613407565b6020026020010151602001516040516130ed91815260200190565b60405180910390a3806130ff816133ee565b915050613028565b506000828152601360205260408120612a4c915080546000825560020290600052602060002090810190610cb691905b8082111561315c5780546001600160a01b031916815560006001820155600201613137565b5090565b80356001600160a01b038116811461317757600080fd5b919050565b60006020828403121561318e57600080fd5b61319782613160565b9392505050565b6000806000606084860312156131b357600080fd5b505081359360208301359350604090920135919050565b600080604083850312156131dd57600080fd5b6131e683613160565b946020939093013593505050565b60006020828403121561320657600080fd5b5035919050565b6000806040838503121561322057600080fd5b8235915061323060208401613160565b90509250929050565b60008060006060848603121561324e57600080fd5b61325784613160565b95602085013595506040909401359392505050565b60008060006060848603121561328157600080fd5b61328a84613160565b925061329860208501613160565b91506132a660408501613160565b90509250925092565b600080604083850312156132c257600080fd5b50508035926020909101359150565b6001600160a01b03929092168252602082015260400190565b600080604083850312156132fd57600080fd5b61330683613160565b915061323060208401613160565b634e487b7160e01b600052601160045260246000fd5b808202811582820484141761334157613341613314565b92915050565b8082018082111561334157613341613314565b60008261337757634e487b7160e01b600052601260045260246000fd5b500490565b6001600160a01b039384168152919092166020820152604081019190915260600190565b6000602082840312156133b257600080fd5b8151801515811461319757600080fd5b6000602082840312156133d457600080fd5b5051919050565b8181038181111561334157613341613314565b60006001820161340057613400613314565b5060010190565b634e487b7160e01b600052603260045260246000fd5b634e487b7160e01b600052603160045260246000fd5b60008161344257613442613314565b50600019019056fea26469706673582212200deff9730bd69680987a01b530ce1f7b2e7227d80094e6c6b96cbddf010546de64736f6c63430008140033",
  "linkReferences": {},
  "deployedLinkReferences": {}
}