{
  "_format": "hh-sol-artifact-1",
  "contractName": "JinbaoProtocol",
  "sourceName": "contracts/JinbaoProtocol.sol",
  "abi": [
    {
      "inputs": [
        {
          "internalType": "address",
          "name": "_mcToken",
          "type": "address"
        },
        {
          "internalType": "address",
          "name": "_jbcToken",
          "type": "address"
        },
        {
          "internalType": "address",
          "name": "_marketing",
          "type": "address"
        },
        {
          "internalType": "address",
          "name": "_treasury",
          "type": "address"
        },
        {
          "internalType": "address",
          "name": "_lpInjection",
          "type": "address"
        },
        {
          "internalType": "address",
          "name": "_buyback",
          "type": "address"
        }
      ],
      "stateMutability": "nonpayable",
      "type": "constructor"
    },
    {
      "inputs": [
        {
          "internalType": "address",
          "name": "owner",
          "type": "address"
        }
      ],
      "name": "OwnableInvalidOwner",
      "type": "error"
    },
    {
      "inputs": [
        {
          "internalType": "address",
          "name": "account",
          "type": "address"
        }
      ],
      "name": "OwnableUnauthorizedAccount",
      "type": "error"
    },
    {
      "inputs": [],
      "name": "ReentrancyGuardReentrantCall",
      "type": "error"
    },
    {
      "anonymous": false,
      "inputs": [
        {
          "indexed": true,
          "internalType": "address",
          "name": "user",
          "type": "address"
        },
        {
          "indexed": true,
          "internalType": "address",
          "name": "referrer",
          "type": "address"
        }
      ],
      "name": "BoundReferrer",
      "type": "event"
    },
    {
      "anonymous": false,
      "inputs": [
        {
          "indexed": true,
          "internalType": "address",
          "name": "user",
          "type": "address"
        },
        {
          "indexed": false,
          "internalType": "uint256",
          "name": "amount",
          "type": "uint256"
        },
        {
          "indexed": false,
          "internalType": "uint256",
          "name": "cycleDays",
          "type": "uint256"
        }
      ],
      "name": "LiquidityStaked",
      "type": "event"
    },
    {
      "anonymous": false,
      "inputs": [
        {
          "indexed": true,
          "internalType": "address",
          "name": "previousOwner",
          "type": "address"
        },
        {
          "indexed": true,
          "internalType": "address",
          "name": "newOwner",
          "type": "address"
        }
      ],
      "name": "OwnershipTransferred",
      "type": "event"
    },
    {
      "anonymous": false,
      "inputs": [
        {
          "indexed": true,
          "internalType": "address",
          "name": "user",
          "type": "address"
        },
        {
          "indexed": false,
          "internalType": "uint256",
          "name": "principal",
          "type": "uint256"
        },
        {
          "indexed": false,
          "internalType": "uint256",
          "name": "fee",
          "type": "uint256"
        }
      ],
      "name": "Redeemed",
      "type": "event"
    },
    {
      "anonymous": false,
      "inputs": [
        {
          "indexed": true,
          "internalType": "address",
          "name": "user",
          "type": "address"
        },
        {
          "indexed": false,
          "internalType": "uint256",
          "name": "mcAmount",
          "type": "uint256"
        },
        {
          "indexed": false,
          "internalType": "uint256",
          "name": "jbcAmount",
          "type": "uint256"
        }
      ],
      "name": "RewardClaimed",
      "type": "event"
    },
    {
      "anonymous": false,
      "inputs": [
        {
          "indexed": true,
          "internalType": "address",
          "name": "user",
          "type": "address"
        },
        {
          "indexed": false,
          "internalType": "uint256",
          "name": "jbcAmount",
          "type": "uint256"
        },
        {
          "indexed": false,
          "internalType": "uint256",
          "name": "mcAmount",
          "type": "uint256"
        },
        {
          "indexed": false,
          "internalType": "uint256",
          "name": "tax",
          "type": "uint256"
        }
      ],
      "name": "SwappedJBCToMC",
      "type": "event"
    },
    {
      "anonymous": false,
      "inputs": [
        {
          "indexed": true,
          "internalType": "address",
          "name": "user",
          "type": "address"
        },
        {
          "indexed": false,
          "internalType": "uint256",
          "name": "mcAmount",
          "type": "uint256"
        },
        {
          "indexed": false,
          "internalType": "uint256",
          "name": "jbcAmount",
          "type": "uint256"
        },
        {
          "indexed": false,
          "internalType": "uint256",
          "name": "tax",
          "type": "uint256"
        }
      ],
      "name": "SwappedMCToJBC",
      "type": "event"
    },
    {
      "anonymous": false,
      "inputs": [
        {
          "indexed": true,
          "internalType": "address",
          "name": "user",
          "type": "address"
        },
        {
          "indexed": false,
          "internalType": "uint256",
          "name": "amount",
          "type": "uint256"
        }
      ],
      "name": "TicketPurchased",
      "type": "event"
    },
    {
      "inputs": [],
      "name": "SECONDS_IN_DAY",
      "outputs": [
        {
          "internalType": "uint256",
          "name": "",
          "type": "uint256"
        }
      ],
      "stateMutability": "view",
      "type": "function"
    },
    {
      "inputs": [
        {
          "internalType": "address",
          "name": "_referrer",
          "type": "address"
        }
      ],
      "name": "bindReferrer",
      "outputs": [],
      "stateMutability": "nonpayable",
      "type": "function"
    },
    {
      "inputs": [
        {
          "internalType": "uint256",
          "name": "amount",
          "type": "uint256"
        }
      ],
      "name": "buyTicket",
      "outputs": [],
      "stateMutability": "nonpayable",
      "type": "function"
    },
    {
      "inputs": [],
      "name": "buybackPercent",
      "outputs": [
        {
          "internalType": "uint256",
          "name": "",
          "type": "uint256"
        }
      ],
      "stateMutability": "view",
      "type": "function"
    },
    {
      "inputs": [],
      "name": "buybackWallet",
      "outputs": [
        {
          "internalType": "address",
          "name": "",
          "type": "address"
        }
      ],
      "stateMutability": "view",
      "type": "function"
    },
    {
      "inputs": [],
      "name": "claimRewards",
      "outputs": [],
      "stateMutability": "nonpayable",
      "type": "function"
    },
    {
      "inputs": [
        {
          "internalType": "address",
          "name": "",
          "type": "address"
        },
        {
          "internalType": "uint256",
          "name": "",
          "type": "uint256"
        }
      ],
      "name": "directReferrals",
      "outputs": [
        {
          "internalType": "address",
          "name": "",
          "type": "address"
        }
      ],
      "stateMutability": "view",
      "type": "function"
    },
    {
      "inputs": [],
      "name": "directRewardPercent",
      "outputs": [
        {
          "internalType": "uint256",
          "name": "",
          "type": "uint256"
        }
      ],
      "stateMutability": "view",
      "type": "function"
    },
    {
      "inputs": [
        {
          "internalType": "address",
          "name": "_user",
          "type": "address"
        }
      ],
      "name": "getDirectReferrals",
      "outputs": [
        {
          "internalType": "address[]",
          "name": "",
          "type": "address[]"
        }
      ],
      "stateMutability": "view",
      "type": "function"
    },
    {
      "inputs": [
        {
          "internalType": "address",
          "name": "_user",
          "type": "address"
        }
      ],
      "name": "getDirectReferralsData",
      "outputs": [
        {
          "components": [
            {
              "internalType": "address",
              "name": "user",
              "type": "address"
            },
            {
              "internalType": "uint256",
              "name": "ticketAmount",
              "type": "uint256"
            },
            {
              "internalType": "uint256",
              "name": "joinTime",
              "type": "uint256"
            }
          ],
          "internalType": "struct JinbaoProtocol.ReferralData[]",
          "name": "",
          "type": "tuple[]"
        }
      ],
      "stateMutability": "view",
      "type": "function"
    },
    {
      "inputs": [],
      "name": "jbcToken",
      "outputs": [
        {
          "internalType": "contract IJBC",
          "name": "",
          "type": "address"
        }
      ],
      "stateMutability": "view",
      "type": "function"
    },
    {
      "inputs": [],
      "name": "levelRewardPercent",
      "outputs": [
        {
          "internalType": "uint256",
          "name": "",
          "type": "uint256"
        }
      ],
      "stateMutability": "view",
      "type": "function"
    },
    {
      "inputs": [],
      "name": "lpInjectionPercent",
      "outputs": [
        {
          "internalType": "uint256",
          "name": "",
          "type": "uint256"
        }
      ],
      "stateMutability": "view",
      "type": "function"
    },
    {
      "inputs": [],
      "name": "lpInjectionWallet",
      "outputs": [
        {
          "internalType": "address",
          "name": "",
          "type": "address"
        }
      ],
      "stateMutability": "view",
      "type": "function"
    },
    {
      "inputs": [],
      "name": "marketingPercent",
      "outputs": [
        {
          "internalType": "uint256",
          "name": "",
          "type": "uint256"
        }
      ],
      "stateMutability": "view",
      "type": "function"
    },
    {
      "inputs": [],
      "name": "marketingWallet",
      "outputs": [
        {
          "internalType": "address",
          "name": "",
          "type": "address"
        }
      ],
      "stateMutability": "view",
      "type": "function"
    },
    {
      "inputs": [],
      "name": "mcToken",
      "outputs": [
        {
          "internalType": "contract IERC20",
          "name": "",
          "type": "address"
        }
      ],
      "stateMutability": "view",
      "type": "function"
    },
    {
      "inputs": [],
      "name": "owner",
      "outputs": [
        {
          "internalType": "address",
          "name": "",
          "type": "address"
        }
      ],
      "stateMutability": "view",
      "type": "function"
    },
    {
      "inputs": [],
      "name": "redeem",
      "outputs": [],
      "stateMutability": "nonpayable",
      "type": "function"
    },
    {
      "inputs": [],
      "name": "redemptionFeePercent",
      "outputs": [
        {
          "internalType": "uint256",
          "name": "",
          "type": "uint256"
        }
      ],
      "stateMutability": "view",
      "type": "function"
    },
    {
      "inputs": [],
      "name": "renounceOwnership",
      "outputs": [],
      "stateMutability": "nonpayable",
      "type": "function"
    },
    {
      "inputs": [
        {
          "internalType": "uint256",
          "name": "_direct",
          "type": "uint256"
        },
        {
          "internalType": "uint256",
          "name": "_level",
          "type": "uint256"
        },
        {
          "internalType": "uint256",
          "name": "_marketing",
          "type": "uint256"
        },
        {
          "internalType": "uint256",
          "name": "_buyback",
          "type": "uint256"
        },
        {
          "internalType": "uint256",
          "name": "_lpInjection",
          "type": "uint256"
        },
        {
          "internalType": "uint256",
          "name": "_treasury",
          "type": "uint256"
        }
      ],
      "name": "setDistributionPercents",
      "outputs": [],
      "stateMutability": "nonpayable",
      "type": "function"
    },
    {
      "inputs": [
        {
          "internalType": "uint256",
          "name": "_fee",
          "type": "uint256"
        }
      ],
      "name": "setRedemptionFee",
      "outputs": [],
      "stateMutability": "nonpayable",
      "type": "function"
    },
    {
      "inputs": [
        {
          "internalType": "uint256",
          "name": "_buyTax",
          "type": "uint256"
        },
        {
          "internalType": "uint256",
          "name": "_sellTax",
          "type": "uint256"
        }
      ],
      "name": "setSwapTaxes",
      "outputs": [],
      "stateMutability": "nonpayable",
      "type": "function"
    },
    {
      "inputs": [
        {
          "internalType": "address",
          "name": "_marketing",
          "type": "address"
        },
        {
          "internalType": "address",
          "name": "_treasury",
          "type": "address"
        },
        {
          "internalType": "address",
          "name": "_lpInjection",
          "type": "address"
        },
        {
          "internalType": "address",
          "name": "_buyback",
          "type": "address"
        }
      ],
      "name": "setWallets",
      "outputs": [],
      "stateMutability": "nonpayable",
      "type": "function"
    },
    {
      "inputs": [
        {
          "internalType": "uint256",
          "name": "cycleDays",
          "type": "uint256"
        }
      ],
      "name": "stakeLiquidity",
      "outputs": [],
      "stateMutability": "nonpayable",
      "type": "function"
    },
    {
      "inputs": [],
      "name": "swapBuyTax",
      "outputs": [
        {
          "internalType": "uint256",
          "name": "",
          "type": "uint256"
        }
      ],
      "stateMutability": "view",
      "type": "function"
    },
    {
      "inputs": [
        {
          "internalType": "uint256",
          "name": "jbcAmount",
          "type": "uint256"
        }
      ],
      "name": "swapJBCToMC",
      "outputs": [],
      "stateMutability": "nonpayable",
      "type": "function"
    },
    {
      "inputs": [
        {
          "internalType": "uint256",
          "name": "mcAmount",
          "type": "uint256"
        }
      ],
      "name": "swapMCToJBC",
      "outputs": [],
      "stateMutability": "nonpayable",
      "type": "function"
    },
    {
      "inputs": [],
      "name": "swapSellTax",
      "outputs": [
        {
          "internalType": "uint256",
          "name": "",
          "type": "uint256"
        }
      ],
      "stateMutability": "view",
      "type": "function"
    },
    {
      "inputs": [
        {
          "internalType": "address",
          "name": "newOwner",
          "type": "address"
        }
      ],
      "name": "transferOwnership",
      "outputs": [],
      "stateMutability": "nonpayable",
      "type": "function"
    },
    {
      "inputs": [],
      "name": "treasuryPercent",
      "outputs": [
        {
          "internalType": "uint256",
          "name": "",
          "type": "uint256"
        }
      ],
      "stateMutability": "view",
      "type": "function"
    },
    {
      "inputs": [],
      "name": "treasuryWallet",
      "outputs": [
        {
          "internalType": "address",
          "name": "",
          "type": "address"
        }
      ],
      "stateMutability": "view",
      "type": "function"
    },
    {
      "inputs": [
        {
          "internalType": "address",
          "name": "",
          "type": "address"
        }
      ],
      "name": "userInfo",
      "outputs": [
        {
          "internalType": "address",
          "name": "referrer",
          "type": "address"
        },
        {
          "internalType": "uint256",
          "name": "activeDirects",
          "type": "uint256"
        },
        {
          "internalType": "uint256",
          "name": "teamCount",
          "type": "uint256"
        },
        {
          "internalType": "uint256",
          "name": "totalRevenue",
          "type": "uint256"
        },
        {
          "internalType": "uint256",
          "name": "currentCap",
          "type": "uint256"
        },
        {
          "internalType": "bool",
          "name": "isActive",
          "type": "bool"
        }
      ],
      "stateMutability": "view",
      "type": "function"
    },
    {
      "inputs": [
        {
          "internalType": "address",
          "name": "",
          "type": "address"
        }
      ],
      "name": "userTicket",
      "outputs": [
        {
          "internalType": "uint256",
          "name": "amount",
          "type": "uint256"
        },
        {
          "internalType": "uint256",
          "name": "requiredLiquidity",
          "type": "uint256"
        },
        {
          "internalType": "uint256",
          "name": "purchaseTime",
          "type": "uint256"
        },
        {
          "internalType": "bool",
          "name": "liquidityProvided",
          "type": "bool"
        },
        {
          "internalType": "uint256",
          "name": "liquidityAmount",
          "type": "uint256"
        },
        {
          "internalType": "uint256",
          "name": "startTime",
          "type": "uint256"
        },
        {
          "internalType": "uint256",
          "name": "cycleDays",
          "type": "uint256"
        },
        {
          "internalType": "bool",
          "name": "redeemed",
          "type": "bool"
        }
      ],
      "stateMutability": "view",
      "type": "function"
    }
  ],
  "bytecode": "0x608060405260016008556019600955600f600a556005600b556005600c556019600d556019600e556032600f5560196010553480156200003e57600080fd5b506040516200272438038062002724833981016040819052620000619162000178565b33806200008857604051631e4fbdf760e01b81526000600482015260240160405180910390fd5b62000093816200010b565b5060018055600280546001600160a01b03199081166001600160a01b0398891617909155600380548216968816969096179095556004805486169487169490941790935560058054851692861692909217909155600680548416918516919091179055600780549092169216919091179055620001f9565b600080546001600160a01b038381166001600160a01b0319831681178455604051919092169283917f8be0079c531659141344cd1fd0a4f28419497f9722a3daafe3b4186f6b6457e09190a35050565b80516001600160a01b03811681146200017357600080fd5b919050565b60008060008060008060c087890312156200019257600080fd5b6200019d876200015b565b9550620001ad602088016200015b565b9450620001bd604088016200015b565b9350620001cd606088016200015b565b9250620001dd608088016200015b565b9150620001ed60a088016200015b565b90509295509295509295565b61251b80620002096000396000f3fe608060405234801561001057600080fd5b50600436106102115760003560e01c806383672f3e11610125578063ccf61944116100ad578063deab8aea1161007c578063deab8aea1461051d578063dec7fa3b14610530578063e4412f6814610539578063ecda2d3214610542578063f2fde38b1461055557600080fd5b8063ccf61944146104e2578063ceaa366d146104eb578063d2c8e0e5146104f4578063d8020a181461051457600080fd5b806390b0eb51116100f457806390b0eb51146104a25780639370b080146104b557806395253992146104be578063bd594dcf146104d1578063be040fb0146104da57600080fd5b806383672f3e146103d65780638710bcaa146103e957806388fd4d331461047e5780638da5cb5b1461049157600080fd5b806335076373116101a857806361a52a361161017757806361a52a361461038b57806367dd74ca14610395578063715018a6146103a857806375f0a874146103b05780637dbc1df0146103c357600080fd5b8063350763731461034a578063372500ab1461035d5780634626402b1461036557806352778b051461037857600080fd5b80630fc4fc1a116101e45780630fc4fc1a146102855780631788513c146102a55780631959a002146102b857806327f082f41461034157600080fd5b806304ef9d581461021657806304f618cb1461023257806305ad3935146102475780630a5c456714610272575b600080fd5b61021f600e5481565b6040519081526020015b60405180910390f35b6102456102403660046121e0565b610568565b005b61025a610255366004612202565b6106d5565b6040516001600160a01b039091168152602001610229565b61024561028036600461222c565b61070d565b6102986102933660046121e0565b6109e1565b6040516102299190612245565b60035461025a906001600160a01b031681565b6103086102c63660046121e0565b6011602052600090815260409020805460018201546002830154600384015460048501546005909501546001600160a01b039094169492939192909160ff1686565b604080516001600160a01b03909716875260208701959095529385019290925260608401526080830152151560a082015260c001610229565b61021f600f5481565b61024561035836600461222c565b610bd1565b610245610e45565b60055461025a906001600160a01b031681565b61024561038636600461222c565b611340565b61021f6201518081565b6102456103a336600461222c565b6115fe565b610245611ce8565b60045461025a906001600160a01b031681565b6102456103d136600461222c565b611cfa565b6102456103e43660046122a7565b611d07565b6104416103f73660046121e0565b6012602052600090815260409020805460018201546002830154600384015460048501546005860154600687015460079097015495969495939460ff938416949293919290911688565b604080519889526020890197909752958701949094529115156060860152608085015260a084015260c0830152151560e082015261010001610229565b60065461025a906001600160a01b031681565b6000546001600160a01b031661025a565b6102456104b03660046122fb565b611d5f565b61021f60105481565b60025461025a906001600160a01b031681565b61021f600a5481565b610245611d72565b61021f60095481565b61021f600d5481565b6105076105023660046121e0565b611fce565b604051610229919061231d565b61021f600b5481565b60075461025a906001600160a01b031681565b61021f60085481565b61021f600c5481565b61024561055036600461236a565b612044565b6102456105633660046121e0565b6120e2565b336000908152601160205260409020546001600160a01b0316156105c35760405162461bcd60e51b815260206004820152600d60248201526c105b1c9958591e48189bdd5b99609a1b60448201526064015b60405180910390fd5b336001600160a01b0382160361060e5760405162461bcd60e51b815260206004820152601060248201526f21b0b73737ba103134b7321039b2b63360811b60448201526064016105ba565b6001600160a01b0381166106575760405162461bcd60e51b815260206004820152601060248201526f24b73b30b634b2103932b332b93932b960811b60448201526064016105ba565b33600081815260116020908152604080832080546001600160a01b0387166001600160a01b0319918216811790925581855260138452828520805460018101825590865293852090930180549093168517909255519092917fa6dbb5aa28f35437de94d685d66edce5fb4812196b4984b91dfd5a7b38c0fb3091a350565b601360205281600052604060002081815481106106f157600080fd5b6000918252602090912001546001600160a01b03169150829050565b61071561211d565b600081116107565760405162461bcd60e51b815260206004820152600e60248201526d125b9d985b1a5908185b5bdd5b9d60921b60448201526064016105ba565b6002546040516323b872dd60e01b81526001600160a01b03909116906323b872dd9061078a903390309086906004016123ad565b6020604051808303816000875af11580156107a9573d6000803e3d6000fd5b505050506040513d601f19601f820116820180604052508101906107cd91906123d1565b50600f5481906000906064906107e39084612409565b6107ed9190612426565b905060006107fb8284612448565b6003546040516370a0823160e01b815230600482015291925084916001600160a01b03909116906370a0823190602401602060405180830381865afa158015610848573d6000803e3d6000fd5b505050506040513d601f19601f8201168201806040525081019061086c919061245b565b10156108ba5760405162461bcd60e51b815260206004820152601a60248201527f496e73756666696369656e74204a4243206c697175696469747900000000000060448201526064016105ba565b600354604051630852cd8d60e31b8152600481018490526001600160a01b03909116906342966c6890602401600060405180830381600087803b15801561090057600080fd5b505af1158015610914573d6000803e3d6000fd5b505060035460405163a9059cbb60e01b81526001600160a01b03909116925063a9059cbb915061094a9033908590600401612474565b6020604051808303816000875af1158015610969573d6000803e3d6000fd5b505050506040513d601f19601f8201168201806040525081019061098d91906123d1565b50604080518581526020810183905290810183905233907f36864aeefce16bc4aaceeb6b0cdfb2ad1455a8cb4ccb0db148a2bc6e7166f97c906060015b60405180910390a25050506109de60018055565b50565b6001600160a01b0381166000908152601360209081526040808320805482518185028101850190935280835260609493830182828015610a4a57602002820191906000526020600020905b81546001600160a01b03168152600190910190602001808311610a2c575b505050505090506000815167ffffffffffffffff811115610a6d57610a6d61248d565b604051908082528060200260200182016040528015610acb57816020015b610ab8604051806060016040528060006001600160a01b0316815260200160008152602001600081525090565b815260200190600190039081610a8b5790505b50905060005b8251811015610bc9576040518060600160405280848381518110610af757610af76124a3565b60200260200101516001600160a01b0316815260200160126000868581518110610b2357610b236124a3565b60200260200101516001600160a01b03166001600160a01b0316815260200190815260200160002060000154815260200160126000868581518110610b6a57610b6a6124a3565b60200260200101516001600160a01b03166001600160a01b0316815260200190815260200160002060020154815250828281518110610bab57610bab6124a3565b60200260200101819052508080610bc1906124b9565b915050610ad1565b509392505050565b610bd961211d565b336000908152601260205260409020805415801590610bfd5750600381015460ff16155b610c3b5760405162461bcd60e51b815260206004820152600f60248201526e139bc81d985b1a59081d1a58dad95d608a1b60448201526064016105ba565b6002810154610c4d906203f4806124d2565b421115610c8d5760405162461bcd60e51b815260206004820152600e60248201526d151a58dad95d08195e1c1a5c995960921b60448201526064016105ba565b8160071480610c9c575081600f145b80610ca7575081601e145b610ce35760405162461bcd60e51b815260206004820152600d60248201526c496e76616c6964206379636c6560981b60448201526064016105ba565b60018101546002546040516323b872dd60e01b81526001600160a01b03909116906323b872dd90610d1c903390309086906004016123ad565b6020604051808303816000875af1158015610d3b573d6000803e3d6000fd5b505050506040513d601f19601f82011682018060405250810190610d5f91906123d1565b5060038201805460ff191660011790556004820181905542600583015560068201839055336000908152601160205260409020546001600160a01b03168015801590610dbe57503360009081526011602052604090206005015460ff16155b15610e0d576001600160a01b0381166000908152601160205260408120600101805491610dea836124b9565b9091555050336000908152601160205260409020600501805460ff191660011790555b604080518381526020810186905233917f1e54d7530dad81af38adb8ca9db02add3130668375f37be85396403616fc3d4991016109ca565b610e4d61211d565b336000908152601260205260409020600381015460ff168015610e755750600781015460ff16155b610eae5760405162461bcd60e51b815260206004820152600a6024820152694e6f742061637469766560b01b60448201526064016105ba565b60008160060154600703610ec457506014610ee8565b8160060154600f03610ed857506019610ee8565b8160060154601e03610ee85750601e5b600062015180836005015442610efe9190612448565b610f089190612426565b905060008111610f4b5760405162461bcd60e51b815260206004820152600e60248201526d139bc81c995dd85c991cc81e595d60921b60448201526064016105ba565b8260060154811115610f5e575060068201545b60006103e882848660000154610f749190612409565b610f7e9190612409565b610f889190612426565b336000908152601160205260409020600481015460039091015491925090610fb19083906124d2565b1115610fde573360009081526011602052604090206003810154600490910154610fdb9190612448565b90505b600081116110245760405162461bcd60e51b81526020600482015260136024820152724e6f207265776172647320746f20636c61696d60681b60448201526064016105ba565b33600090815260116020526040812060030180548392906110469084906124d2565b9091555060009050611059600283612426565b90506000611068600284612426565b6002546040516370a0823160e01b815230600482015291925083916001600160a01b03909116906370a0823190602401602060405180830381865afa1580156110b5573d6000803e3d6000fd5b505050506040513d601f19601f820116820180604052508101906110d9919061245b565b10156111275760405162461bcd60e51b815260206004820152601760248201527f496e73756666696369656e74204d4320696e20706f6f6c00000000000000000060448201526064016105ba565b60025460405163a9059cbb60e01b81526001600160a01b039091169063a9059cbb906111599033908690600401612474565b6020604051808303816000875af1158015611178573d6000803e3d6000fd5b505050506040513d601f19601f8201168201806040525081019061119c91906123d1565b50670de0b6b3a76400006000816111b38482612409565b6111bd9190612426565b6003546040516370a0823160e01b815230600482015291925082916001600160a01b03909116906370a0823190602401602060405180830381865afa15801561120a573d6000803e3d6000fd5b505050506040513d601f19601f8201168201806040525081019061122e919061245b565b101561127c5760405162461bcd60e51b815260206004820152601860248201527f496e73756666696369656e74204a424320696e20706f6f6c000000000000000060448201526064016105ba565b60035460405163a9059cbb60e01b81526001600160a01b039091169063a9059cbb906112ae9033908590600401612474565b6020604051808303816000875af11580156112cd573d6000803e3d6000fd5b505050506040513d601f19601f820116820180604052508101906112f191906123d1565b50604080518581526020810183905233917ff01da32686223933d8a18a391060918c7f11a3648639edd87ae013e2e2731743910160405180910390a2505050505050505061133e60018055565b565b61134861211d565b600081116113895760405162461bcd60e51b815260206004820152600e60248201526d125b9d985b1a5908185b5bdd5b9d60921b60448201526064016105ba565b6003546040516323b872dd60e01b81526001600160a01b03909116906323b872dd906113bd903390309086906004016123ad565b6020604051808303816000875af11580156113dc573d6000803e3d6000fd5b505050506040513d601f19601f8201168201806040525081019061140091906123d1565b5060006064601054836114139190612409565b61141d9190612426565b9050600061142b8284612448565b600354604051630852cd8d60e31b8152600481018590529192506001600160a01b0316906342966c6890602401600060405180830381600087803b15801561147257600080fd5b505af1158015611486573d6000803e3d6000fd5b50506002546040516370a0823160e01b81523060048201528493508392506001600160a01b03909116906370a0823190602401602060405180830381865afa1580156114d6573d6000803e3d6000fd5b505050506040513d601f19601f820116820180604052508101906114fa919061245b565b10156115485760405162461bcd60e51b815260206004820152601960248201527f496e73756666696369656e74204d43206c69717569646974790000000000000060448201526064016105ba565b60025460405163a9059cbb60e01b81526001600160a01b039091169063a9059cbb9061157a9033908590600401612474565b6020604051808303816000875af1158015611599573d6000803e3d6000fd5b505050506040513d601f19601f820116820180604052508101906115bd91906123d1565b50604080518581526020810183905290810184905233907f223c8ad0806f634524940a8595f819c5cfc7b1f4f4f45791269301df0a7e61d5906060016109ca565b61160661211d565b8068056bc75e2d631000001480611625575080681043561a8829300000145b80611638575080681b1ae4d6e2ef500000145b8061164b575080683635c9adc5dea00000145b61168d5760405162461bcd60e51b815260206004820152601360248201527224b73b30b634b2103a34b1b5b2ba103a34b2b960691b60448201526064016105ba565b3360009081526012602052604090206003015460ff1615806116c157503360009081526012602052604090206007015460ff165b6117045760405162461bcd60e51b8152602060048201526014602482015273416374697665207469636b65742065786973747360601b60448201526064016105ba565b6002546040516323b872dd60e01b81526001600160a01b03909116906323b872dd90611738903390309086906004016123ad565b6020604051808303816000875af1158015611757573d6000803e3d6000fd5b505050506040513d601f19601f8201168201806040525081019061177b91906123d1565b50336000908152601160205260409020546001600160a01b03168015611832576002546009546001600160a01b039091169063a9059cbb9083906064906117c29087612409565b6117cc9190612426565b6040518363ffffffff1660e01b81526004016117e9929190612474565b6020604051808303816000875af1158015611808573d6000803e3d6000fd5b505050506040513d601f19601f8201168201806040525081019061182c91906123d1565b506118c8565b6002546004546009546001600160a01b039283169263a9059cbb92169060649061185c9087612409565b6118669190612426565b6040518363ffffffff1660e01b8152600401611883929190612474565b6020604051808303816000875af11580156118a2573d6000803e3d6000fd5b505050506040513d601f19601f820116820180604052508101906118c691906123d1565b505b600254600454600a546001600160a01b039283169263a9059cbb9216906064906118f29087612409565b6118fc9190612426565b6040518363ffffffff1660e01b8152600401611919929190612474565b6020604051808303816000875af1158015611938573d6000803e3d6000fd5b505050506040513d601f19601f8201168201806040525081019061195c91906123d1565b50600254600454600b546001600160a01b039283169263a9059cbb9216906064906119879087612409565b6119919190612426565b6040518363ffffffff1660e01b81526004016119ae929190612474565b6020604051808303816000875af11580156119cd573d6000803e3d6000fd5b505050506040513d601f19601f820116820180604052508101906119f191906123d1565b50600254600754600c546001600160a01b039283169263a9059cbb921690606490611a1c9087612409565b611a269190612426565b6040518363ffffffff1660e01b8152600401611a43929190612474565b6020604051808303816000875af1158015611a62573d6000803e3d6000fd5b505050506040513d601f19601f82011682018060405250810190611a8691906123d1565b50600254600654600d546001600160a01b039283169263a9059cbb921690606490611ab19087612409565b611abb9190612426565b6040518363ffffffff1660e01b8152600401611ad8929190612474565b6020604051808303816000875af1158015611af7573d6000803e3d6000fd5b505050506040513d601f19601f82011682018060405250810190611b1b91906123d1565b50600254600554600e546001600160a01b039283169263a9059cbb921690606490611b469087612409565b611b509190612426565b6040518363ffffffff1660e01b8152600401611b6d929190612474565b6020604051808303816000875af1158015611b8c573d6000803e3d6000fd5b505050506040513d601f19601f82011682018060405250810190611bb091906123d1565b506040518061010001604052808381526020016064846096611bd29190612409565b611bdc9190612426565b815242602080830191909152600060408084018290526060808501839052608080860184905260a080870185905260c09687018590523385526012865293839020875181559487015160018601559186015160028501558501516003808501805492151560ff1993841617905591860151600485015591850151600584015592840151600683015560e090930151600790910180549115159190931617909155611c87908390612409565b33600081815260116020526040808220600481019490945560039093015590517f0668f5b446eb814fe35b3206f43f14bd8567ba04ddaf7a3ee56516929ab22ccb90611cd69085815260200190565b60405180910390a2506109de60018055565b611cf0612147565b61133e6000612174565b611d02612147565b600855565b611d0f612147565b600480546001600160a01b039586166001600160a01b0319918216179091556005805494861694821694909417909355600680549285169284169290921790915560078054919093169116179055565b611d67612147565b600f91909155601055565b611d7a61211d565b336000908152601260205260409020600381015460ff168015611da25750600781015460ff16155b611dde5760405162461bcd60e51b815260206004820152600d60248201526c43616e6e6f742072656465656d60981b60448201526064016105ba565b6006810154611df09062015180612409565b8160050154611dff91906124d2565b421015611e435760405162461bcd60e51b815260206004820152601260248201527110de58db19481b9bdd08199a5b9a5cda195960721b60448201526064016105ba565b600060646008548360000154611e599190612409565b611e639190612426565b6002546040516323b872dd60e01b81529192506001600160a01b0316906323b872dd90611e98903390309086906004016123ad565b6020604051808303816000875af1158015611eb7573d6000803e3d6000fd5b505050506040513d601f19601f82011682018060405250810190611edb91906123d1565b5060025460048084015460405163a9059cbb60e01b81526001600160a01b039093169263a9059cbb92611f12923392909101612474565b6020604051808303816000875af1158015611f31573d6000803e3d6000fd5b505050506040513d601f19601f82011682018060405250810190611f5591906123d1565b50600782018054600160ff19918216179091553360008181526011602090815260409182902060050180549094169093556004850154815190815292830184905290917ff3a670cd3af7d64b488926880889d08a8585a138ff455227af6737339a1ec262910160405180910390a2505061133e60018055565b6001600160a01b03811660009081526013602090815260409182902080548351818402810184019094528084526060939283018282801561203857602002820191906000526020600020905b81546001600160a01b0316815260019091019060200180831161201a575b50505050509050919050565b61204c612147565b8082848661205a898b6124d2565b61206491906124d2565b61206e91906124d2565b61207891906124d2565b61208291906124d2565b6064146120c55760405162461bcd60e51b81526020600482015260116024820152700546f74616c206d7573742062652031303607c1b60448201526064016105ba565b600995909555600a93909355600b91909155600c55600d55600e55565b6120ea612147565b6001600160a01b03811661211457604051631e4fbdf760e01b8152600060048201526024016105ba565b6109de81612174565b60026001540361214057604051633ee5aeb560e01b815260040160405180910390fd5b6002600155565b6000546001600160a01b0316331461133e5760405163118cdaa760e01b81523360048201526024016105ba565b600080546001600160a01b038381166001600160a01b0319831681178455604051919092169283917f8be0079c531659141344cd1fd0a4f28419497f9722a3daafe3b4186f6b6457e09190a35050565b80356001600160a01b03811681146121db57600080fd5b919050565b6000602082840312156121f257600080fd5b6121fb826121c4565b9392505050565b6000806040838503121561221557600080fd5b61221e836121c4565b946020939093013593505050565b60006020828403121561223e57600080fd5b5035919050565b602080825282518282018190526000919060409081850190868401855b8281101561229a57815180516001600160a01b0316855286810151878601528501518585015260609093019290850190600101612262565b5091979650505050505050565b600080600080608085870312156122bd57600080fd5b6122c6856121c4565b93506122d4602086016121c4565b92506122e2604086016121c4565b91506122f0606086016121c4565b905092959194509250565b6000806040838503121561230e57600080fd5b50508035926020909101359150565b6020808252825182820181905260009190848201906040850190845b8181101561235e5783516001600160a01b031683529284019291840191600101612339565b50909695505050505050565b60008060008060008060c0878903121561238357600080fd5b505084359660208601359650604086013595606081013595506080810135945060a0013592509050565b6001600160a01b039384168152919092166020820152604081019190915260600190565b6000602082840312156123e357600080fd5b815180151581146121fb57600080fd5b634e487b7160e01b600052601160045260246000fd5b8082028115828204841417612420576124206123f3565b92915050565b60008261244357634e487b7160e01b600052601260045260246000fd5b500490565b81810381811115612420576124206123f3565b60006020828403121561246d57600080fd5b5051919050565b6001600160a01b03929092168252602082015260400190565b634e487b7160e01b600052604160045260246000fd5b634e487b7160e01b600052603260045260246000fd5b6000600182016124cb576124cb6123f3565b5060010190565b80820180821115612420576124206123f356fea26469706673582212206313fd28761d35e70324b4d9a28ea5e507f0969acc8457c7059fbb5f4dfa15ab64736f6c63430008140033",
  "linkReferences": {},
  "deployedLinkReferences": {}
}