{
  "_format": "hh-sol-artifact-1",
  "contractName": "JinbaoProtocol",
  "sourceName": "contracts/JinbaoProtocol.sol",
  "abi": [
    {
      "inputs": [],
      "stateMutability": "nonpayable",
      "type": "constructor"
    },
    {
      "inputs": [],
      "name": "ActionTooEarly",
      "type": "error"
    },
    {
      "inputs": [
        {
          "internalType": "address",
          "name": "target",
          "type": "address"
        }
      ],
      "name": "AddressEmptyCode",
      "type": "error"
    },
    {
      "inputs": [],
      "name": "AlreadyBound",
      "type": "error"
    },
    {
      "inputs": [],
      "name": "AlreadyExited",
      "type": "error"
    },
    {
      "inputs": [],
      "name": "BatchUpdateSizeMismatch",
      "type": "error"
    },
    {
      "inputs": [],
      "name": "ContractPaused",
      "type": "error"
    },
    {
      "inputs": [
        {
          "internalType": "address",
          "name": "implementation",
          "type": "address"
        }
      ],
      "name": "ERC1967InvalidImplementation",
      "type": "error"
    },
    {
      "inputs": [],
      "name": "ERC1967NonPayable",
      "type": "error"
    },
    {
      "inputs": [],
      "name": "Expired",
      "type": "error"
    },
    {
      "inputs": [],
      "name": "FailedCall",
      "type": "error"
    },
    {
      "inputs": [],
      "name": "InsufficientBalance",
      "type": "error"
    },
    {
      "inputs": [],
      "name": "InvalidAddress",
      "type": "error"
    },
    {
      "inputs": [],
      "name": "InvalidAmount",
      "type": "error"
    },
    {
      "inputs": [],
      "name": "InvalidCycle",
      "type": "error"
    },
    {
      "inputs": [],
      "name": "InvalidFee",
      "type": "error"
    },
    {
      "inputs": [],
      "name": "InvalidInitialization",
      "type": "error"
    },
    {
      "inputs": [],
      "name": "InvalidLevelConfig",
      "type": "error"
    },
    {
      "inputs": [],
      "name": "InvalidRate",
      "type": "error"
    },
    {
      "inputs": [],
      "name": "InvalidTax",
      "type": "error"
    },
    {
      "inputs": [],
      "name": "InvalidTeamCountUpdate",
      "type": "error"
    },
    {
      "inputs": [],
      "name": "LowLiquidity",
      "type": "error"
    },
    {
      "inputs": [],
      "name": "NoRewards",
      "type": "error"
    },
    {
      "inputs": [],
      "name": "NotActive",
      "type": "error"
    },
    {
      "inputs": [],
      "name": "NotInitializing",
      "type": "error"
    },
    {
      "inputs": [],
      "name": "NothingToRedeem",
      "type": "error"
    },
    {
      "inputs": [
        {
          "internalType": "address",
          "name": "owner",
          "type": "address"
        }
      ],
      "name": "OwnableInvalidOwner",
      "type": "error"
    },
    {
      "inputs": [
        {
          "internalType": "address",
          "name": "account",
          "type": "address"
        }
      ],
      "name": "OwnableUnauthorizedAccount",
      "type": "error"
    },
    {
      "inputs": [],
      "name": "RecursionDepthExceeded",
      "type": "error"
    },
    {
      "inputs": [],
      "name": "ReentrancyGuardReentrantCall",
      "type": "error"
    },
    {
      "inputs": [],
      "name": "SelfReference",
      "type": "error"
    },
    {
      "inputs": [],
      "name": "SumNot100",
      "type": "error"
    },
    {
      "inputs": [
        {
          "internalType": "address",
          "name": "user",
          "type": "address"
        },
        {
          "internalType": "uint256",
          "name": "expected",
          "type": "uint256"
        },
        {
          "internalType": "uint256",
          "name": "actual",
          "type": "uint256"
        }
      ],
      "name": "TeamCountMismatch",
      "type": "error"
    },
    {
      "inputs": [],
      "name": "TeamCountOverflow",
      "type": "error"
    },
    {
      "inputs": [],
      "name": "TransferFailed",
      "type": "error"
    },
    {
      "inputs": [
        {
          "internalType": "string",
          "name": "reason",
          "type": "string"
        }
      ],
      "name": "TransferFromFailed",
      "type": "error"
    },
    {
      "inputs": [],
      "name": "TransferFromFailedLowLevel",
      "type": "error"
    },
    {
      "inputs": [],
      "name": "UUPSUnauthorizedCallContext",
      "type": "error"
    },
    {
      "inputs": [
        {
          "internalType": "bytes32",
          "name": "slot",
          "type": "bytes32"
        }
      ],
      "name": "UUPSUnsupportedProxiableUUID",
      "type": "error"
    },
    {
      "inputs": [],
      "name": "Unauthorized",
      "type": "error"
    },
    {
      "anonymous": false,
      "inputs": [
        {
          "indexed": false,
          "internalType": "uint256",
          "name": "usersUpdated",
          "type": "uint256"
        }
      ],
      "name": "BatchTeamCountsUpdated",
      "type": "event"
    },
    {
      "anonymous": false,
      "inputs": [
        {
          "indexed": true,
          "internalType": "address",
          "name": "user",
          "type": "address"
        },
        {
          "indexed": true,
          "internalType": "address",
          "name": "referrer",
          "type": "address"
        }
      ],
      "name": "BoundReferrer",
      "type": "event"
    },
    {
      "anonymous": false,
      "inputs": [
        {
          "indexed": false,
          "internalType": "uint256",
          "name": "mcAmount",
          "type": "uint256"
        },
        {
          "indexed": false,
          "internalType": "uint256",
          "name": "jbcBurned",
          "type": "uint256"
        }
      ],
      "name": "BuybackAndBurn",
      "type": "event"
    },
    {
      "anonymous": false,
      "inputs": [
        {
          "indexed": true,
          "internalType": "address",
          "name": "user",
          "type": "address"
        },
        {
          "indexed": false,
          "internalType": "uint256",
          "name": "totalAmount",
          "type": "uint256"
        },
        {
          "indexed": false,
          "internalType": "uint256",
          "name": "mcPart",
          "type": "uint256"
        },
        {
          "indexed": false,
          "internalType": "uint256",
          "name": "jbcValuePart",
          "type": "uint256"
        },
        {
          "indexed": false,
          "internalType": "uint256",
          "name": "jbcPrice",
          "type": "uint256"
        },
        {
          "indexed": false,
          "internalType": "uint256",
          "name": "jbcAmount",
          "type": "uint256"
        }
      ],
      "name": "DifferentialRewardCalculated",
      "type": "event"
    },
    {
      "anonymous": false,
      "inputs": [
        {
          "indexed": true,
          "internalType": "address",
          "name": "user",
          "type": "address"
        },
        {
          "indexed": false,
          "internalType": "uint256",
          "name": "mcAmount",
          "type": "uint256"
        },
        {
          "indexed": false,
          "internalType": "uint256",
          "name": "jbcAmount",
          "type": "uint256"
        },
        {
          "indexed": false,
          "internalType": "uint256",
          "name": "jbcPrice",
          "type": "uint256"
        },
        {
          "indexed": false,
          "internalType": "uint256",
          "name": "timestamp",
          "type": "uint256"
        }
      ],
      "name": "DifferentialRewardDistributed",
      "type": "event"
    },
    {
      "anonymous": false,
      "inputs": [
        {
          "indexed": true,
          "internalType": "address",
          "name": "user",
          "type": "address"
        },
        {
          "indexed": false,
          "internalType": "uint256",
          "name": "totalAmount",
          "type": "uint256"
        },
        {
          "indexed": false,
          "internalType": "uint256",
          "name": "mcPart",
          "type": "uint256"
        },
        {
          "indexed": false,
          "internalType": "uint256",
          "name": "jbcAmount",
          "type": "uint256"
        },
        {
          "indexed": false,
          "internalType": "string",
          "name": "reason",
          "type": "string"
        }
      ],
      "name": "DifferentialRewardFailed",
      "type": "event"
    },
    {
      "anonymous": false,
      "inputs": [
        {
          "indexed": true,
          "internalType": "uint256",
          "name": "stakeId",
          "type": "uint256"
        },
        {
          "indexed": true,
          "internalType": "address",
          "name": "upline",
          "type": "address"
        },
        {
          "indexed": false,
          "internalType": "uint256",
          "name": "amount",
          "type": "uint256"
        }
      ],
      "name": "DifferentialRewardRecorded",
      "type": "event"
    },
    {
      "anonymous": false,
      "inputs": [
        {
          "indexed": true,
          "internalType": "uint256",
          "name": "stakeId",
          "type": "uint256"
        },
        {
          "indexed": true,
          "internalType": "address",
          "name": "upline",
          "type": "address"
        },
        {
          "indexed": false,
          "internalType": "uint256",
          "name": "amount",
          "type": "uint256"
        }
      ],
      "name": "DifferentialRewardReleased",
      "type": "event"
    },
    {
      "anonymous": false,
      "inputs": [
        {
          "indexed": false,
          "internalType": "uint256",
          "name": "direct",
          "type": "uint256"
        },
        {
          "indexed": false,
          "internalType": "uint256",
          "name": "level",
          "type": "uint256"
        },
        {
          "indexed": false,
          "internalType": "uint256",
          "name": "marketing",
          "type": "uint256"
        },
        {
          "indexed": false,
          "internalType": "uint256",
          "name": "buyback",
          "type": "uint256"
        },
        {
          "indexed": false,
          "internalType": "uint256",
          "name": "lpInjection",
          "type": "uint256"
        },
        {
          "indexed": false,
          "internalType": "uint256",
          "name": "treasury",
          "type": "uint256"
        }
      ],
      "name": "DistributionConfigUpdated",
      "type": "event"
    },
    {
      "anonymous": false,
      "inputs": [],
      "name": "EmergencyPaused",
      "type": "event"
    },
    {
      "anonymous": false,
      "inputs": [],
      "name": "EmergencyUnpaused",
      "type": "event"
    },
    {
      "anonymous": false,
      "inputs": [
        {
          "indexed": true,
          "internalType": "address",
          "name": "user",
          "type": "address"
        },
        {
          "indexed": false,
          "internalType": "uint256",
          "name": "ticketId",
          "type": "uint256"
        }
      ],
      "name": "Exited",
      "type": "event"
    },
    {
      "anonymous": false,
      "inputs": [
        {
          "indexed": true,
          "internalType": "address",
          "name": "user",
          "type": "address"
        },
        {
          "indexed": false,
          "internalType": "uint256",
          "name": "amount",
          "type": "uint256"
        }
      ],
      "name": "FeeRefunded",
      "type": "event"
    },
    {
      "anonymous": false,
      "inputs": [
        {
          "indexed": false,
          "internalType": "uint64",
          "name": "version",
          "type": "uint64"
        }
      ],
      "name": "Initialized",
      "type": "event"
    },
    {
      "anonymous": false,
      "inputs": [
        {
          "indexed": true,
          "internalType": "address",
          "name": "oldJbcToken",
          "type": "address"
        },
        {
          "indexed": true,
          "internalType": "address",
          "name": "newJbcToken",
          "type": "address"
        }
      ],
      "name": "JbcTokenUpdated",
      "type": "event"
    },
    {
      "anonymous": false,
      "inputs": [],
      "name": "LevelConfigsUpdated",
      "type": "event"
    },
    {
      "anonymous": false,
      "inputs": [
        {
          "indexed": false,
          "internalType": "uint256",
          "name": "amount",
          "type": "uint256"
        },
        {
          "indexed": false,
          "internalType": "uint256",
          "name": "newTotal",
          "type": "uint256"
        }
      ],
      "name": "LevelRewardPoolUpdated",
      "type": "event"
    },
    {
      "anonymous": false,
      "inputs": [
        {
          "indexed": true,
          "internalType": "address",
          "name": "to",
          "type": "address"
        },
        {
          "indexed": false,
          "internalType": "uint256",
          "name": "amount",
          "type": "uint256"
        }
      ],
      "name": "LevelRewardPoolWithdrawn",
      "type": "event"
    },
    {
      "anonymous": false,
      "inputs": [
        {
          "indexed": true,
          "internalType": "uint256",
          "name": "ticketId",
          "type": "uint256"
        },
        {
          "indexed": true,
          "internalType": "address",
          "name": "upline",
          "type": "address"
        },
        {
          "indexed": false,
          "internalType": "uint256",
          "name": "amount",
          "type": "uint256"
        }
      ],
      "name": "LevelRewardRecorded",
      "type": "event"
    },
    {
      "anonymous": false,
      "inputs": [
        {
          "indexed": true,
          "internalType": "uint256",
          "name": "ticketId",
          "type": "uint256"
        },
        {
          "indexed": true,
          "internalType": "address",
          "name": "upline",
          "type": "address"
        },
        {
          "indexed": false,
          "internalType": "uint256",
          "name": "amount",
          "type": "uint256"
        }
      ],
      "name": "LevelRewardReleased",
      "type": "event"
    },
    {
      "anonymous": false,
      "inputs": [
        {
          "indexed": false,
          "internalType": "uint256",
          "name": "mcAmount",
          "type": "uint256"
        },
        {
          "indexed": false,
          "internalType": "uint256",
          "name": "jbcAmount",
          "type": "uint256"
        }
      ],
      "name": "LiquidityAdded",
      "type": "event"
    },
    {
      "anonymous": false,
      "inputs": [
        {
          "indexed": true,
          "internalType": "address",
          "name": "user",
          "type": "address"
        },
        {
          "indexed": false,
          "internalType": "uint256",
          "name": "adjustedJbcAmount",
          "type": "uint256"
        }
      ],
      "name": "LiquidityProtectionTriggered",
      "type": "event"
    },
    {
      "anonymous": false,
      "inputs": [
        {
          "indexed": true,
          "internalType": "address",
          "name": "user",
          "type": "address"
        },
        {
          "indexed": false,
          "internalType": "uint256",
          "name": "amount",
          "type": "uint256"
        },
        {
          "indexed": false,
          "internalType": "uint256",
          "name": "cycleDays",
          "type": "uint256"
        },
        {
          "indexed": false,
          "internalType": "uint256",
          "name": "stakeId",
          "type": "uint256"
        }
      ],
      "name": "LiquidityStaked",
      "type": "event"
    },
    {
      "anonymous": false,
      "inputs": [
        {
          "indexed": false,
          "internalType": "bool",
          "name": "enabled",
          "type": "bool"
        }
      ],
      "name": "LiquidityStatusUpdated",
      "type": "event"
    },
    {
      "anonymous": false,
      "inputs": [
        {
          "indexed": true,
          "internalType": "address",
          "name": "previousOwner",
          "type": "address"
        },
        {
          "indexed": true,
          "internalType": "address",
          "name": "newOwner",
          "type": "address"
        }
      ],
      "name": "OwnershipTransferred",
      "type": "event"
    },
    {
      "anonymous": false,
      "inputs": [
        {
          "indexed": true,
          "internalType": "address",
          "name": "user",
          "type": "address"
        },
        {
          "indexed": false,
          "internalType": "uint256",
          "name": "mcRequested",
          "type": "uint256"
        },
        {
          "indexed": false,
          "internalType": "uint256",
          "name": "mcTransferred",
          "type": "uint256"
        },
        {
          "indexed": false,
          "internalType": "uint256",
          "name": "jbcRequested",
          "type": "uint256"
        },
        {
          "indexed": false,
          "internalType": "uint256",
          "name": "jbcTransferred",
          "type": "uint256"
        }
      ],
      "name": "PartialRewardTransfer",
      "type": "event"
    },
    {
      "anonymous": false,
      "inputs": [
        {
          "indexed": false,
          "internalType": "bool",
          "name": "enabled",
          "type": "bool"
        }
      ],
      "name": "RedeemStatusUpdated",
      "type": "event"
    },
    {
      "anonymous": false,
      "inputs": [
        {
          "indexed": true,
          "internalType": "address",
          "name": "user",
          "type": "address"
        },
        {
          "indexed": false,
          "internalType": "uint256",
          "name": "principal",
          "type": "uint256"
        },
        {
          "indexed": false,
          "internalType": "uint256",
          "name": "fee",
          "type": "uint256"
        }
      ],
      "name": "Redeemed",
      "type": "event"
    },
    {
      "anonymous": false,
      "inputs": [
        {
          "indexed": false,
          "internalType": "uint256",
          "name": "newFee",
          "type": "uint256"
        }
      ],
      "name": "RedemptionFeeUpdated",
      "type": "event"
    },
    {
      "anonymous": false,
      "inputs": [
        {
          "indexed": true,
          "internalType": "address",
          "name": "user",
          "type": "address"
        },
        {
          "indexed": true,
          "internalType": "address",
          "name": "from",
          "type": "address"
        },
        {
          "indexed": false,
          "internalType": "uint256",
          "name": "mcAmount",
          "type": "uint256"
        },
        {
          "indexed": false,
          "internalType": "uint256",
          "name": "jbcAmount",
          "type": "uint256"
        },
        {
          "indexed": false,
          "internalType": "uint8",
          "name": "rewardType",
          "type": "uint8"
        },
        {
          "indexed": false,
          "internalType": "uint256",
          "name": "ticketId",
          "type": "uint256"
        }
      ],
      "name": "ReferralRewardPaid",
      "type": "event"
    },
    {
      "anonymous": false,
      "inputs": [
        {
          "indexed": true,
          "internalType": "address",
          "name": "user",
          "type": "address"
        },
        {
          "indexed": true,
          "internalType": "address",
          "name": "oldReferrer",
          "type": "address"
        },
        {
          "indexed": true,
          "internalType": "address",
          "name": "newReferrer",
          "type": "address"
        }
      ],
      "name": "ReferrerChanged",
      "type": "event"
    },
    {
      "anonymous": false,
      "inputs": [
        {
          "indexed": true,
          "internalType": "address",
          "name": "user",
          "type": "address"
        },
        {
          "indexed": false,
          "internalType": "uint256",
          "name": "amount",
          "type": "uint256"
        },
        {
          "indexed": false,
          "internalType": "uint256",
          "name": "cappedAmount",
          "type": "uint256"
        }
      ],
      "name": "RewardCapped",
      "type": "event"
    },
    {
      "anonymous": false,
      "inputs": [
        {
          "indexed": true,
          "internalType": "address",
          "name": "user",
          "type": "address"
        },
        {
          "indexed": false,
          "internalType": "uint256",
          "name": "mcAmount",
          "type": "uint256"
        },
        {
          "indexed": false,
          "internalType": "uint256",
          "name": "jbcAmount",
          "type": "uint256"
        },
        {
          "indexed": false,
          "internalType": "uint8",
          "name": "rewardType",
          "type": "uint8"
        },
        {
          "indexed": false,
          "internalType": "uint256",
          "name": "ticketId",
          "type": "uint256"
        }
      ],
      "name": "RewardClaimed",
      "type": "event"
    },
    {
      "anonymous": false,
      "inputs": [
        {
          "indexed": true,
          "internalType": "address",
          "name": "user",
          "type": "address"
        },
        {
          "indexed": false,
          "internalType": "uint256",
          "name": "amount",
          "type": "uint256"
        },
        {
          "indexed": false,
          "internalType": "uint8",
          "name": "rewardType",
          "type": "uint8"
        }
      ],
      "name": "RewardPaid",
      "type": "event"
    },
    {
      "anonymous": false,
      "inputs": [
        {
          "indexed": true,
          "internalType": "address",
          "name": "user",
          "type": "address"
        },
        {
          "indexed": false,
          "internalType": "uint256",
          "name": "mcAmount",
          "type": "uint256"
        },
        {
          "indexed": false,
          "internalType": "uint256",
          "name": "jbcAmount",
          "type": "uint256"
        },
        {
          "indexed": false,
          "internalType": "string",
          "name": "reason",
          "type": "string"
        }
      ],
      "name": "RewardTransferFailed",
      "type": "event"
    },
    {
      "anonymous": false,
      "inputs": [
        {
          "indexed": false,
          "internalType": "uint256",
          "name": "mcAmount",
          "type": "uint256"
        },
        {
          "indexed": false,
          "internalType": "uint256",
          "name": "jbcAmount",
          "type": "uint256"
        }
      ],
      "name": "SwapReservesWithdrawn",
      "type": "event"
    },
    {
      "anonymous": false,
      "inputs": [
        {
          "indexed": false,
          "internalType": "uint256",
          "name": "buyTax",
          "type": "uint256"
        },
        {
          "indexed": false,
          "internalType": "uint256",
          "name": "sellTax",
          "type": "uint256"
        }
      ],
      "name": "SwapTaxesUpdated",
      "type": "event"
    },
    {
      "anonymous": false,
      "inputs": [
        {
          "indexed": true,
          "internalType": "address",
          "name": "user",
          "type": "address"
        },
        {
          "indexed": false,
          "internalType": "uint256",
          "name": "jbcAmount",
          "type": "uint256"
        },
        {
          "indexed": false,
          "internalType": "uint256",
          "name": "mcAmount",
          "type": "uint256"
        },
        {
          "indexed": false,
          "internalType": "uint256",
          "name": "tax",
          "type": "uint256"
        }
      ],
      "name": "SwappedJBCToMC",
      "type": "event"
    },
    {
      "anonymous": false,
      "inputs": [
        {
          "indexed": true,
          "internalType": "address",
          "name": "user",
          "type": "address"
        },
        {
          "indexed": false,
          "internalType": "uint256",
          "name": "mcAmount",
          "type": "uint256"
        },
        {
          "indexed": false,
          "internalType": "uint256",
          "name": "jbcAmount",
          "type": "uint256"
        },
        {
          "indexed": false,
          "internalType": "uint256",
          "name": "tax",
          "type": "uint256"
        }
      ],
      "name": "SwappedMCToJBC",
      "type": "event"
    },
    {
      "anonymous": false,
      "inputs": [
        {
          "indexed": true,
          "internalType": "uint256",
          "name": "stakeId",
          "type": "uint256"
        },
        {
          "indexed": true,
          "internalType": "address",
          "name": "upline",
          "type": "address"
        },
        {
          "indexed": false,
          "internalType": "uint256",
          "name": "amount",
          "type": "uint256"
        },
        {
          "indexed": false,
          "internalType": "uint256",
          "name": "teamCount",
          "type": "uint256"
        }
      ],
      "name": "TeamBasedRewardCalculated",
      "type": "event"
    },
    {
      "anonymous": false,
      "inputs": [
        {
          "indexed": true,
          "internalType": "address",
          "name": "user",
          "type": "address"
        },
        {
          "indexed": false,
          "internalType": "uint256",
          "name": "oldCount",
          "type": "uint256"
        },
        {
          "indexed": false,
          "internalType": "uint256",
          "name": "newCount",
          "type": "uint256"
        }
      ],
      "name": "TeamCountUpdated",
      "type": "event"
    },
    {
      "anonymous": false,
      "inputs": [
        {
          "indexed": true,
          "internalType": "address",
          "name": "user",
          "type": "address"
        },
        {
          "indexed": false,
          "internalType": "uint256",
          "name": "expected",
          "type": "uint256"
        },
        {
          "indexed": false,
          "internalType": "uint256",
          "name": "actual",
          "type": "uint256"
        }
      ],
      "name": "TeamCountValidationFailed",
      "type": "event"
    },
    {
      "anonymous": false,
      "inputs": [
        {
          "indexed": true,
          "internalType": "address",
          "name": "user",
          "type": "address"
        },
        {
          "indexed": false,
          "internalType": "uint256",
          "name": "ticketId",
          "type": "uint256"
        },
        {
          "indexed": false,
          "internalType": "uint256",
          "name": "amount",
          "type": "uint256"
        }
      ],
      "name": "TicketExpired",
      "type": "event"
    },
    {
      "anonymous": false,
      "inputs": [
        {
          "indexed": false,
          "internalType": "uint256",
          "name": "newDuration",
          "type": "uint256"
        }
      ],
      "name": "TicketFlexibilityDurationUpdated",
      "type": "event"
    },
    {
      "anonymous": false,
      "inputs": [
        {
          "indexed": true,
          "internalType": "address",
          "name": "user",
          "type": "address"
        },
        {
          "indexed": false,
          "internalType": "uint256",
          "name": "amount",
          "type": "uint256"
        },
        {
          "indexed": false,
          "internalType": "uint256",
          "name": "ticketId",
          "type": "uint256"
        }
      ],
      "name": "TicketPurchased",
      "type": "event"
    },
    {
      "anonymous": false,
      "inputs": [
        {
          "indexed": false,
          "internalType": "address",
          "name": "token",
          "type": "address"
        },
        {
          "indexed": false,
          "internalType": "address",
          "name": "to",
          "type": "address"
        },
        {
          "indexed": false,
          "internalType": "uint256",
          "name": "amount",
          "type": "uint256"
        }
      ],
      "name": "TokensRescued",
      "type": "event"
    },
    {
      "anonymous": false,
      "inputs": [
        {
          "indexed": true,
          "internalType": "address",
          "name": "implementation",
          "type": "address"
        }
      ],
      "name": "Upgraded",
      "type": "event"
    },
    {
      "anonymous": false,
      "inputs": [
        {
          "indexed": true,
          "internalType": "address",
          "name": "user",
          "type": "address"
        },
        {
          "indexed": false,
          "internalType": "uint8",
          "name": "field",
          "type": "uint8"
        },
        {
          "indexed": false,
          "internalType": "uint256",
          "name": "value",
          "type": "uint256"
        }
      ],
      "name": "UserDataFieldUpdated",
      "type": "event"
    },
    {
      "anonymous": false,
      "inputs": [
        {
          "indexed": true,
          "internalType": "address",
          "name": "user",
          "type": "address"
        },
        {
          "indexed": false,
          "internalType": "uint256",
          "name": "oldLevel",
          "type": "uint256"
        },
        {
          "indexed": false,
          "internalType": "uint256",
          "name": "newLevel",
          "type": "uint256"
        },
        {
          "indexed": false,
          "internalType": "uint256",
          "name": "teamCount",
          "type": "uint256"
        }
      ],
      "name": "UserLevelChanged",
      "type": "event"
    },
    {
      "anonymous": false,
      "inputs": [
        {
          "indexed": false,
          "internalType": "address",
          "name": "marketing",
          "type": "address"
        },
        {
          "indexed": false,
          "internalType": "address",
          "name": "treasury",
          "type": "address"
        },
        {
          "indexed": false,
          "internalType": "address",
          "name": "lpInjection",
          "type": "address"
        },
        {
          "indexed": false,
          "internalType": "address",
          "name": "buyback",
          "type": "address"
        }
      ],
      "name": "WalletsUpdated",
      "type": "event"
    },
    {
      "inputs": [],
      "name": "MAX_PRICE_IMPACT",
      "outputs": [
        {
          "internalType": "uint256",
          "name": "",
          "type": "uint256"
        }
      ],
      "stateMutability": "view",
      "type": "function"
    },
    {
      "inputs": [],
      "name": "MIN_LIQUIDITY",
      "outputs": [
        {
          "internalType": "uint256",
          "name": "",
          "type": "uint256"
        }
      ],
      "stateMutability": "view",
      "type": "function"
    },
    {
      "inputs": [],
      "name": "REWARD_DIFFERENTIAL",
      "outputs": [
        {
          "internalType": "uint8",
          "name": "",
          "type": "uint8"
        }
      ],
      "stateMutability": "view",
      "type": "function"
    },
    {
      "inputs": [],
      "name": "REWARD_DIRECT",
      "outputs": [
        {
          "internalType": "uint8",
          "name": "",
          "type": "uint8"
        }
      ],
      "stateMutability": "view",
      "type": "function"
    },
    {
      "inputs": [],
      "name": "REWARD_DYNAMIC",
      "outputs": [
        {
          "internalType": "uint8",
          "name": "",
          "type": "uint8"
        }
      ],
      "stateMutability": "view",
      "type": "function"
    },
    {
      "inputs": [],
      "name": "REWARD_LEVEL",
      "outputs": [
        {
          "internalType": "uint8",
          "name": "",
          "type": "uint8"
        }
      ],
      "stateMutability": "view",
      "type": "function"
    },
    {
      "inputs": [],
      "name": "REWARD_STATIC",
      "outputs": [
        {
          "internalType": "uint8",
          "name": "",
          "type": "uint8"
        }
      ],
      "stateMutability": "view",
      "type": "function"
    },
    {
      "inputs": [],
      "name": "SECONDS_IN_UNIT",
      "outputs": [
        {
          "internalType": "uint256",
          "name": "",
          "type": "uint256"
        }
      ],
      "stateMutability": "view",
      "type": "function"
    },
    {
      "inputs": [],
      "name": "UPGRADE_INTERFACE_VERSION",
      "outputs": [
        {
          "internalType": "string",
          "name": "",
          "type": "string"
        }
      ],
      "stateMutability": "view",
      "type": "function"
    },
    {
      "inputs": [
        {
          "internalType": "uint256",
          "name": "mcAmount",
          "type": "uint256"
        },
        {
          "internalType": "uint256",
          "name": "jbcAmount",
          "type": "uint256"
        }
      ],
      "name": "addLiquidity",
      "outputs": [],
      "stateMutability": "nonpayable",
      "type": "function"
    },
    {
      "inputs": [
        {
          "internalType": "address",
          "name": "user",
          "type": "address"
        },
        {
          "internalType": "address",
          "name": "newReferrer",
          "type": "address"
        }
      ],
      "name": "adminSetReferrer",
      "outputs": [],
      "stateMutability": "nonpayable",
      "type": "function"
    },
    {
      "inputs": [
        {
          "internalType": "address",
          "name": "_referrer",
          "type": "address"
        }
      ],
      "name": "bindReferrer",
      "outputs": [],
      "stateMutability": "nonpayable",
      "type": "function"
    },
    {
      "inputs": [
        {
          "internalType": "uint256",
          "name": "amount",
          "type": "uint256"
        }
      ],
      "name": "buyTicket",
      "outputs": [],
      "stateMutability": "nonpayable",
      "type": "function"
    },
    {
      "inputs": [],
      "name": "buybackPercent",
      "outputs": [
        {
          "internalType": "uint256",
          "name": "",
          "type": "uint256"
        }
      ],
      "stateMutability": "view",
      "type": "function"
    },
    {
      "inputs": [],
      "name": "buybackWallet",
      "outputs": [
        {
          "internalType": "address",
          "name": "",
          "type": "address"
        }
      ],
      "stateMutability": "view",
      "type": "function"
    },
    {
      "inputs": [
        {
          "internalType": "uint256",
          "name": "teamCount",
          "type": "uint256"
        }
      ],
      "name": "calculateLevel",
      "outputs": [
        {
          "internalType": "uint256",
          "name": "level",
          "type": "uint256"
        },
        {
          "internalType": "uint256",
          "name": "percent",
          "type": "uint256"
        }
      ],
      "stateMutability": "pure",
      "type": "function"
    },
    {
      "inputs": [],
      "name": "claimRewards",
      "outputs": [],
      "stateMutability": "nonpayable",
      "type": "function"
    },
    {
      "inputs": [],
      "name": "dailyBurn",
      "outputs": [],
      "stateMutability": "nonpayable",
      "type": "function"
    },
    {
      "inputs": [
        {
          "internalType": "address",
          "name": "",
          "type": "address"
        },
        {
          "internalType": "uint256",
          "name": "",
          "type": "uint256"
        }
      ],
      "name": "directReferrals",
      "outputs": [
        {
          "internalType": "address",
          "name": "",
          "type": "address"
        }
      ],
      "stateMutability": "view",
      "type": "function"
    },
    {
      "inputs": [],
      "name": "directRewardPercent",
      "outputs": [
        {
          "internalType": "uint256",
          "name": "",
          "type": "uint256"
        }
      ],
      "stateMutability": "view",
      "type": "function"
    },
    {
      "inputs": [],
      "name": "emergencyPause",
      "outputs": [],
      "stateMutability": "nonpayable",
      "type": "function"
    },
    {
      "inputs": [],
      "name": "emergencyPaused",
      "outputs": [
        {
          "internalType": "bool",
          "name": "",
          "type": "bool"
        }
      ],
      "stateMutability": "view",
      "type": "function"
    },
    {
      "inputs": [],
      "name": "emergencyUnpause",
      "outputs": [],
      "stateMutability": "nonpayable",
      "type": "function"
    },
    {
      "inputs": [
        {
          "internalType": "address",
          "name": "user",
          "type": "address"
        }
      ],
      "name": "getDirectReferrals",
      "outputs": [
        {
          "internalType": "address[]",
          "name": "",
          "type": "address[]"
        }
      ],
      "stateMutability": "view",
      "type": "function"
    },
    {
      "inputs": [
        {
          "internalType": "uint256",
          "name": "activeDirects",
          "type": "uint256"
        }
      ],
      "name": "getLevelRewardLayers",
      "outputs": [
        {
          "internalType": "uint256",
          "name": "",
          "type": "uint256"
        }
      ],
      "stateMutability": "pure",
      "type": "function"
    },
    {
      "inputs": [
        {
          "internalType": "address",
          "name": "user",
          "type": "address"
        }
      ],
      "name": "getUserLevel",
      "outputs": [
        {
          "internalType": "uint256",
          "name": "level",
          "type": "uint256"
        },
        {
          "internalType": "uint256",
          "name": "percent",
          "type": "uint256"
        },
        {
          "internalType": "uint256",
          "name": "teamCount",
          "type": "uint256"
        }
      ],
      "stateMutability": "view",
      "type": "function"
    },
    {
      "inputs": [
        {
          "internalType": "address",
          "name": "_mcToken",
          "type": "address"
        },
        {
          "internalType": "address",
          "name": "_jbcToken",
          "type": "address"
        },
        {
          "internalType": "address",
          "name": "_marketing",
          "type": "address"
        },
        {
          "internalType": "address",
          "name": "_treasury",
          "type": "address"
        },
        {
          "internalType": "address",
          "name": "_lpInjection",
          "type": "address"
        },
        {
          "internalType": "address",
          "name": "_buybackWallet",
          "type": "address"
        }
      ],
      "name": "initialize",
      "outputs": [],
      "stateMutability": "nonpayable",
      "type": "function"
    },
    {
      "inputs": [],
      "name": "jbcToken",
      "outputs": [
        {
          "internalType": "contract IJBC",
          "name": "",
          "type": "address"
        }
      ],
      "stateMutability": "view",
      "type": "function"
    },
    {
      "inputs": [],
      "name": "lastBurnTime",
      "outputs": [
        {
          "internalType": "uint256",
          "name": "",
          "type": "uint256"
        }
      ],
      "stateMutability": "view",
      "type": "function"
    },
    {
      "inputs": [
        {
          "internalType": "uint256",
          "name": "",
          "type": "uint256"
        }
      ],
      "name": "levelConfigs",
      "outputs": [
        {
          "internalType": "uint256",
          "name": "minDirects",
          "type": "uint256"
        },
        {
          "internalType": "uint256",
          "name": "level",
          "type": "uint256"
        },
        {
          "internalType": "uint256",
          "name": "percent",
          "type": "uint256"
        }
      ],
      "stateMutability": "view",
      "type": "function"
    },
    {
      "inputs": [],
      "name": "levelRewardPercent",
      "outputs": [
        {
          "internalType": "uint256",
          "name": "",
          "type": "uint256"
        }
      ],
      "stateMutability": "view",
      "type": "function"
    },
    {
      "inputs": [],
      "name": "levelRewardPool",
      "outputs": [
        {
          "internalType": "uint256",
          "name": "",
          "type": "uint256"
        }
      ],
      "stateMutability": "view",
      "type": "function"
    },
    {
      "inputs": [],
      "name": "liquidityEnabled",
      "outputs": [
        {
          "internalType": "bool",
          "name": "",
          "type": "bool"
        }
      ],
      "stateMutability": "view",
      "type": "function"
    },
    {
      "inputs": [],
      "name": "lpInjectionPercent",
      "outputs": [
        {
          "internalType": "uint256",
          "name": "",
          "type": "uint256"
        }
      ],
      "stateMutability": "view",
      "type": "function"
    },
    {
      "inputs": [],
      "name": "lpInjectionWallet",
      "outputs": [
        {
          "internalType": "address",
          "name": "",
          "type": "address"
        }
      ],
      "stateMutability": "view",
      "type": "function"
    },
    {
      "inputs": [],
      "name": "marketingPercent",
      "outputs": [
        {
          "internalType": "uint256",
          "name": "",
          "type": "uint256"
        }
      ],
      "stateMutability": "view",
      "type": "function"
    },
    {
      "inputs": [],
      "name": "marketingWallet",
      "outputs": [
        {
          "internalType": "address",
          "name": "",
          "type": "address"
        }
      ],
      "stateMutability": "view",
      "type": "function"
    },
    {
      "inputs": [],
      "name": "mcToken",
      "outputs": [
        {
          "internalType": "contract IERC20",
          "name": "",
          "type": "address"
        }
      ],
      "stateMutability": "view",
      "type": "function"
    },
    {
      "inputs": [],
      "name": "nextStakeId",
      "outputs": [
        {
          "internalType": "uint256",
          "name": "",
          "type": "uint256"
        }
      ],
      "stateMutability": "view",
      "type": "function"
    },
    {
      "inputs": [],
      "name": "nextTicketId",
      "outputs": [
        {
          "internalType": "uint256",
          "name": "",
          "type": "uint256"
        }
      ],
      "stateMutability": "view",
      "type": "function"
    },
    {
      "inputs": [],
      "name": "owner",
      "outputs": [
        {
          "internalType": "address",
          "name": "",
          "type": "address"
        }
      ],
      "stateMutability": "view",
      "type": "function"
    },
    {
      "inputs": [],
      "name": "priceOracle",
      "outputs": [
        {
          "internalType": "address",
          "name": "",
          "type": "address"
        }
      ],
      "stateMutability": "view",
      "type": "function"
    },
    {
      "inputs": [],
      "name": "proxiableUUID",
      "outputs": [
        {
          "internalType": "bytes32",
          "name": "",
          "type": "bytes32"
        }
      ],
      "stateMutability": "view",
      "type": "function"
    },
    {
      "inputs": [],
      "name": "redeem",
      "outputs": [],
      "stateMutability": "nonpayable",
      "type": "function"
    },
    {
      "inputs": [],
      "name": "redeemEnabled",
      "outputs": [
        {
          "internalType": "bool",
          "name": "",
          "type": "bool"
        }
      ],
      "stateMutability": "view",
      "type": "function"
    },
    {
      "inputs": [],
      "name": "redemptionFeePercent",
      "outputs": [
        {
          "internalType": "uint256",
          "name": "",
          "type": "uint256"
        }
      ],
      "stateMutability": "view",
      "type": "function"
    },
    {
      "inputs": [],
      "name": "renounceOwnership",
      "outputs": [],
      "stateMutability": "nonpayable",
      "type": "function"
    },
    {
      "inputs": [
        {
          "internalType": "address",
          "name": "_token",
          "type": "address"
        },
        {
          "internalType": "address",
          "name": "_to",
          "type": "address"
        },
        {
          "internalType": "uint256",
          "name": "_amount",
          "type": "uint256"
        }
      ],
      "name": "rescueTokens",
      "outputs": [],
      "stateMutability": "nonpayable",
      "type": "function"
    },
    {
      "inputs": [
        {
          "internalType": "uint256",
          "name": "_direct",
          "type": "uint256"
        },
        {
          "internalType": "uint256",
          "name": "_level",
          "type": "uint256"
        },
        {
          "internalType": "uint256",
          "name": "_marketing",
          "type": "uint256"
        },
        {
          "internalType": "uint256",
          "name": "_buyback",
          "type": "uint256"
        },
        {
          "internalType": "uint256",
          "name": "_lpInjection",
          "type": "uint256"
        },
        {
          "internalType": "uint256",
          "name": "_treasury",
          "type": "uint256"
        }
      ],
      "name": "setDistributionConfig",
      "outputs": [],
      "stateMutability": "nonpayable",
      "type": "function"
    },
    {
      "inputs": [
        {
          "internalType": "address",
          "name": "_newJbcToken",
          "type": "address"
        }
      ],
      "name": "setJbcToken",
      "outputs": [],
      "stateMutability": "nonpayable",
      "type": "function"
    },
    {
      "inputs": [
        {
          "internalType": "bool",
          "name": "_liquidityEnabled",
          "type": "bool"
        },
        {
          "internalType": "bool",
          "name": "_redeemEnabled",
          "type": "bool"
        }
      ],
      "name": "setOperationalStatus",
      "outputs": [],
      "stateMutability": "nonpayable",
      "type": "function"
    },
    {
      "inputs": [
        {
          "internalType": "uint256",
          "name": "_fee",
          "type": "uint256"
        }
      ],
      "name": "setRedemptionFeePercent",
      "outputs": [],
      "stateMutability": "nonpayable",
      "type": "function"
    },
    {
      "inputs": [
        {
          "internalType": "uint256",
          "name": "_buyTax",
          "type": "uint256"
        },
        {
          "internalType": "uint256",
          "name": "_sellTax",
          "type": "uint256"
        }
      ],
      "name": "setSwapTaxes",
      "outputs": [],
      "stateMutability": "nonpayable",
      "type": "function"
    },
    {
      "inputs": [
        {
          "internalType": "uint256",
          "name": "_duration",
          "type": "uint256"
        }
      ],
      "name": "setTicketFlexibilityDuration",
      "outputs": [],
      "stateMutability": "nonpayable",
      "type": "function"
    },
    {
      "inputs": [
        {
          "internalType": "address",
          "name": "_marketing",
          "type": "address"
        },
        {
          "internalType": "address",
          "name": "_treasury",
          "type": "address"
        },
        {
          "internalType": "address",
          "name": "_lpInjection",
          "type": "address"
        },
        {
          "internalType": "address",
          "name": "_buyback",
          "type": "address"
        }
      ],
      "name": "setWallets",
      "outputs": [],
      "stateMutability": "nonpayable",
      "type": "function"
    },
    {
      "inputs": [
        {
          "internalType": "uint256",
          "name": "amount",
          "type": "uint256"
        },
        {
          "internalType": "uint256",
          "name": "cycleDays",
          "type": "uint256"
        }
      ],
      "name": "stakeLiquidity",
      "outputs": [],
      "stateMutability": "nonpayable",
      "type": "function"
    },
    {
      "inputs": [
        {
          "internalType": "uint256",
          "name": "",
          "type": "uint256"
        }
      ],
      "name": "stakeOwner",
      "outputs": [
        {
          "internalType": "address",
          "name": "",
          "type": "address"
        }
      ],
      "stateMutability": "view",
      "type": "function"
    },
    {
      "inputs": [
        {
          "internalType": "uint256",
          "name": "",
          "type": "uint256"
        },
        {
          "internalType": "uint256",
          "name": "",
          "type": "uint256"
        }
      ],
      "name": "stakePendingRewards",
      "outputs": [
        {
          "internalType": "address",
          "name": "upline",
          "type": "address"
        },
        {
          "internalType": "uint256",
          "name": "amount",
          "type": "uint256"
        }
      ],
      "stateMutability": "view",
      "type": "function"
    },
    {
      "inputs": [],
      "name": "swapBuyTax",
      "outputs": [
        {
          "internalType": "uint256",
          "name": "",
          "type": "uint256"
        }
      ],
      "stateMutability": "view",
      "type": "function"
    },
    {
      "inputs": [
        {
          "internalType": "uint256",
          "name": "jbcAmount",
          "type": "uint256"
        }
      ],
      "name": "swapJBCToMC",
      "outputs": [],
      "stateMutability": "nonpayable",
      "type": "function"
    },
    {
      "inputs": [
        {
          "internalType": "uint256",
          "name": "mcAmount",
          "type": "uint256"
        }
      ],
      "name": "swapMCToJBC",
      "outputs": [],
      "stateMutability": "nonpayable",
      "type": "function"
    },
    {
      "inputs": [],
      "name": "swapReserveJBC",
      "outputs": [
        {
          "internalType": "uint256",
          "name": "",
          "type": "uint256"
        }
      ],
      "stateMutability": "view",
      "type": "function"
    },
    {
      "inputs": [],
      "name": "swapReserveMC",
      "outputs": [
        {
          "internalType": "uint256",
          "name": "",
          "type": "uint256"
        }
      ],
      "stateMutability": "view",
      "type": "function"
    },
    {
      "inputs": [],
      "name": "swapSellTax",
      "outputs": [
        {
          "internalType": "uint256",
          "name": "",
          "type": "uint256"
        }
      ],
      "stateMutability": "view",
      "type": "function"
    },
    {
      "inputs": [],
      "name": "ticketFlexibilityDuration",
      "outputs": [
        {
          "internalType": "uint256",
          "name": "",
          "type": "uint256"
        }
      ],
      "stateMutability": "view",
      "type": "function"
    },
    {
      "inputs": [
        {
          "internalType": "uint256",
          "name": "",
          "type": "uint256"
        }
      ],
      "name": "ticketOwner",
      "outputs": [
        {
          "internalType": "address",
          "name": "",
          "type": "address"
        }
      ],
      "stateMutability": "view",
      "type": "function"
    },
    {
      "inputs": [
        {
          "internalType": "uint256",
          "name": "",
          "type": "uint256"
        },
        {
          "internalType": "uint256",
          "name": "",
          "type": "uint256"
        }
      ],
      "name": "ticketPendingRewards",
      "outputs": [
        {
          "internalType": "address",
          "name": "upline",
          "type": "address"
        },
        {
          "internalType": "uint256",
          "name": "amount",
          "type": "uint256"
        }
      ],
      "stateMutability": "view",
      "type": "function"
    },
    {
      "inputs": [
        {
          "internalType": "address",
          "name": "newOwner",
          "type": "address"
        }
      ],
      "name": "transferOwnership",
      "outputs": [],
      "stateMutability": "nonpayable",
      "type": "function"
    },
    {
      "inputs": [],
      "name": "treasuryPercent",
      "outputs": [
        {
          "internalType": "uint256",
          "name": "",
          "type": "uint256"
        }
      ],
      "stateMutability": "view",
      "type": "function"
    },
    {
      "inputs": [],
      "name": "treasuryWallet",
      "outputs": [
        {
          "internalType": "address",
          "name": "",
          "type": "address"
        }
      ],
      "stateMutability": "view",
      "type": "function"
    },
    {
      "inputs": [
        {
          "internalType": "address",
          "name": "newImplementation",
          "type": "address"
        },
        {
          "internalType": "bytes",
          "name": "data",
          "type": "bytes"
        }
      ],
      "name": "upgradeToAndCall",
      "outputs": [],
      "stateMutability": "payable",
      "type": "function"
    },
    {
      "inputs": [
        {
          "internalType": "address",
          "name": "",
          "type": "address"
        }
      ],
      "name": "userInfo",
      "outputs": [
        {
          "internalType": "address",
          "name": "referrer",
          "type": "address"
        },
        {
          "internalType": "uint256",
          "name": "activeDirects",
          "type": "uint256"
        },
        {
          "internalType": "uint256",
          "name": "teamCount",
          "type": "uint256"
        },
        {
          "internalType": "uint256",
          "name": "totalRevenue",
          "type": "uint256"
        },
        {
          "internalType": "uint256",
          "name": "currentCap",
          "type": "uint256"
        },
        {
          "internalType": "bool",
          "name": "isActive",
          "type": "bool"
        },
        {
          "internalType": "uint256",
          "name": "refundFeeAmount",
          "type": "uint256"
        },
        {
          "internalType": "uint256",
          "name": "teamTotalVolume",
          "type": "uint256"
        },
        {
          "internalType": "uint256",
          "name": "teamTotalCap",
          "type": "uint256"
        },
        {
          "internalType": "uint256",
          "name": "maxTicketAmount",
          "type": "uint256"
        },
        {
          "internalType": "uint256",
          "name": "maxSingleTicketAmount",
          "type": "uint256"
        }
      ],
      "stateMutability": "view",
      "type": "function"
    },
    {
      "inputs": [
        {
          "internalType": "address",
          "name": "",
          "type": "address"
        },
        {
          "internalType": "uint256",
          "name": "",
          "type": "uint256"
        }
      ],
      "name": "userStakes",
      "outputs": [
        {
          "internalType": "uint256",
          "name": "id",
          "type": "uint256"
        },
        {
          "internalType": "uint256",
          "name": "amount",
          "type": "uint256"
        },
        {
          "internalType": "uint256",
          "name": "startTime",
          "type": "uint256"
        },
        {
          "internalType": "uint256",
          "name": "cycleDays",
          "type": "uint256"
        },
        {
          "internalType": "bool",
          "name": "active",
          "type": "bool"
        },
        {
          "internalType": "uint256",
          "name": "paid",
          "type": "uint256"
        }
      ],
      "stateMutability": "view",
      "type": "function"
    },
    {
      "inputs": [
        {
          "internalType": "address",
          "name": "",
          "type": "address"
        }
      ],
      "name": "userTicket",
      "outputs": [
        {
          "internalType": "uint256",
          "name": "ticketId",
          "type": "uint256"
        },
        {
          "internalType": "uint256",
          "name": "amount",
          "type": "uint256"
        },
        {
          "internalType": "uint256",
          "name": "purchaseTime",
          "type": "uint256"
        },
        {
          "internalType": "bool",
          "name": "exited",
          "type": "bool"
        }
      ],
      "stateMutability": "view",
      "type": "function"
    },
    {
      "inputs": [
        {
          "internalType": "address",
          "name": "_to",
          "type": "address"
        },
        {
          "internalType": "uint256",
          "name": "_amount",
          "type": "uint256"
        }
      ],
      "name": "withdrawLevelRewardPool",
      "outputs": [],
      "stateMutability": "nonpayable",
      "type": "function"
    },
    {
      "inputs": [
        {
          "internalType": "address",
          "name": "_toMC",
          "type": "address"
        },
        {
          "internalType": "uint256",
          "name": "_amountMC",
          "type": "uint256"
        },
        {
          "internalType": "address",
          "name": "_toJBC",
          "type": "address"
        },
        {
          "internalType": "uint256",
          "name": "_amountJBC",
          "type": "uint256"
        }
      ],
      "name": "withdrawSwapReserves",
      "outputs": [],
      "stateMutability": "nonpayable",
      "type": "function"
    }
  ],
  "bytecode": "0x60a08060405234620000d157306080527ff0c57e16840df040f15088dc2f81fe391c3923bec73e23a9662efc9c229c6a009081549060ff8260401c16620000c257506001600160401b036002600160401b0319828216016200007c575b604051615e429081620000d7823960805181818161230301526126dd0152f35b6001600160401b031990911681179091556040519081527fc7f505b2f371ae2175ee4913f4499e1f2633a7b5936321eed1cdaeb6115181d290602090a13880806200005c565b63f92ee8a960e01b8152600490fd5b600080fdfe6080604052600436101561001257600080fd5b6000803560e01c8063013758ca1461379f57806301d62efb146136f857806304ef9d58146136da57806304f618cb1461352057806305ad3935146134c55780630a5c4567146132615780630e2be210146132455780631427f616146132295780631788513c14613200578063182c84cc146131d95780631959a002146131275780631d0dac761461310957806321923bde146130ba57806321b77d631461309657806321f483d31461304e5780632630c12f1461302157806327c830a914612ffe57806327f082f414612fe0578063372500ab14612fbf5780633dbd46bd14612f8c5780634626402b14612f63578063488b5d9714612f475780634a4e3bd514612efd5780634ea4c6b3146128955780634f1ef2861461266257806351858e271461261557806352778b051461235b57806352d1902d146122f05780636031a52f146122d257806367dd74ca14611aa15780636839b5fa14611a845780636dd6682714611a66578063715018a614611a0d57806375506c96146119ef57806375f0a874146119c657806377a2a540146119a8578063813380cd1461197a57806381eeef5c1461187357806383672f3e1461177b5780638710bcaa1461171a57806388481b61146116fe57806388fd4d33146116d55780638a859a85146116b95780638c0eaa481461169d5780638da5cb5b1461166757806390b0eb51146116175780639370b080146115f957806395253992146115d257806399b6024d1461150c5780639cd441da146113695780639d99eca41461131b578063a2af9226146112e8578063ac8f50aa14611294578063ad3cb1cc14611252578063b048a4bb1461122f578063b5d5b5fa146111a1578063b759936b14611183578063bd594dcf14611165578063be040fb014610b0e578063c2ff12fc14610adb578063cc2a9a5b146108c8578063ccf61944146108aa578063cea9d26f146107ae578063ceaa366d14610790578063d0f1647014610706578063d2c8e0e514610657578063d2f8253614610631578063d4f00142146104aa578063d8020a181461048c578063dce3dc1f14610461578063deab8aea14610438578063dec7fa3b1461041a578063e3067449146103fc578063e4412f68146103de578063ece71266146103905763f2fde38b1461036157600080fd5b3461038d57602036600319011261038d5761038a61037d613846565b610385614456565b6143f4565b80f35b80fd5b503461038d57602036600319011261038d577fc7f6975dcffc536e6e57dd1d1dea810fff534a70563baf2d6f977b119bd00e1b60206004356103d0614456565b80600c55604051908152a180f35b503461038d578060031936011261038d576020600954604051908152f35b503461038d578060031936011261038d576020601b54604051908152f35b503461038d578060031936011261038d576020600c54604051908152f35b503461038d578060031936011261038d576005546040516001600160a01b039091168152602090f35b503461038d57602036600319011261038d5760406104806004356144bf565b82519182526020820152f35b503461038d578060031936011261038d576020600854604051908152f35b503461038d57608036600319011261038d576104c4613846565b602435906104d0613872565b82606435926104dd614456565b816105b3575b50508161050d575b50600080516020615ced8339815191529160409182519182526020820152a180f35b9160208261054d9461052182601854613aee565b60185560018060a01b0360015416908760405180988195829463a9059cbb60e01b84526004840161399b565b03925af19182156105a857600080516020615ced83398151915293604093610579575b509150916104eb565b61059a9060203d6020116105a1575b6105928183613941565b810190613a5e565b5038610570565b503d610588565b6040513d86823e3d90fd5b816020916105c66105f194601754613aee565b60175560018060a01b03885416908860405180968195829463a9059cbb60e01b84526004840161399b565b03925af1801561062657610607575b83906104e3565b61061f9060203d6020116105a1576105928183613941565b5038610600565b6040513d87823e3d90fd5b503461038d578060031936011261038d57602060ff60165460081c166040519015158152f35b503461038d576020908160031936011261038d576001600160a01b0391908261067e613846565b168152601282526040812090604051808484549182815201908194845285842090845b8181106106f057505050816106b7910382613941565b6040519380850191818652518092526040850193925b8281106106da5785850386f35b83518716855293810193928101926001016106cd565b82548916845292870192600192830192016106a1565b503461038d5760c036600319011261038d577f66682b276e4cd1a4e1f68b55b1143766c5332f472eb593cf2a70a25d9d5d991760c060043560a435608435606435604435602435610755614456565b8560065580600755816008558260095583600a5584600b55604051958652602086015260408501526060840152608083015260a0820152a180f35b503461038d578060031936011261038d576020600a54604051908152f35b503461038d57606036600319011261038d576107c8613846565b6107d061385c565b604435916107dc614456565b83546001600160a01b03828116949181168514801561089d575b61088b5783161561088b576020604051809563a9059cbb60e01b8252818881610823878a6004840161399b565b03925af1908115610626577f77023e19c7343ad491fd706c36335ca0e738340a91f29b1fd81e2673d44896c4946108669261086c575b5060405193849384613a76565b0390a180f35b6108849060203d6020116105a1576105928183613941565b5038610859565b60405163e6c4247b60e01b8152600490fd5b50806001541685146107f6565b503461038d578060031936011261038d576020600654604051908152f35b503461038d5760c036600319011261038d576108e2613846565b6108ea61385c565b6108f2613872565b6108fa613888565b916001600160a01b0360843581811690819003610ad65760a43592828416809403610ad657600080516020615ded83398151915295865460ff8160401c16159660018060401b038216998a1580610acf575b6001809c149081610ac5575b159081610abc575b50610aaa576001600160401b031983168b178a558694859384928e918c610a8f575b5061098b615af9565b610993615af9565b61099c336143f4565b6109a4615af9565b6109ac615af9565b6109b4615af9565b8d600080516020615dad8339815191525560018060a01b0319998a9116915416178d5516868b5416178a55168460025416176002551682600354161760035581600454161760045560055416176005556019600655600f600755600560085560056009556019600a556019600b5582600c556032600d556019600e556203f48060155561010161ffff19601654161760165542601b55610a52578280f35b805460ff60401b191690556040519081527fc7f505b2f371ae2175ee4913f4499e1f2633a7b5936321eed1cdaeb6115181d290602090a138808280f35b6001600160481b0319166001600160401b01178d5538610982565b60405163f92ee8a960e01b8152600490fd5b90501538610960565b303b159150610958565b508861094c565b600080fd5b503461038d57602036600319011261038d576020906004358152601c8252604060018060a01b0391205416604051908152f35b503461038d578060031936011261038d57610b2761448f565b60ff8060165460081c16156111545733825260119160206011815260408220938283908492855b8854811015610cd557876004610b64838c6139ff565b5001541615610ccd576002610b79828b6139ff565b5001546003610b88838c6139ff565b50015490603c91828102928184041490151715610cb95790610ba991613ac1565b421015610bbb575b6001905b01610b4e565b809293610bc8828b6139ff565b50610bd29061456e565b9586610bdd91613ac1565b95610be8838c6139ff565b5060050190815490610bf991613ac1565b9055338852600f87526040882060090154908a89898415956064610c34610c609760019995610c3b958b97610ca5575b5050600c5490613a98565b04936139ff565b50015481811115610c925790610c5481610c5a93613aee565b92613ac1565b95613ac1565b926004610c6d828c6139ff565b5001805460ff19169055610c8b610c84828c6139ff565b505461464d565b9050610bb1565b9050610c9d91613ac1565b948890613ac1565b879250906010604092522001548f8f610c29565b634e487b7160e01b89526004849052602489fd5b600190610bb5565b505090929181159081809261114c575b61113a5784611126575b80610dc9575b5015610d62575b600f9260405191825282820152600080516020615dcd83398151915260403392a2610d2633614c3c565b3383525260408120600460038201549101541115610d54575b6001600080516020615dad8339815191525580f35b610d5d3361481b565b610d3f565b835460405163a9059cbb60e01b81529390839085906001600160a01b0316818881610d9188336004840161399b565b03925af193841561062657600f94610dac575b509250610cfc565b610dc290843d86116105a1576105928183613941565b5085610da4565b338652600f8452610de7604087206003600482015491015490613aee565b808211611100575b508015610cf557338652600f845260036040872001610e0f828254613ac1565b905585546040516370a0823160e01b808252306004830152889390926001600160a01b0392600183901c918416908981602481855afa80156110f55783918d916110c4575b501015806110bb575b611057575b5060185480158015611043575b156110025750670de0b6b3a7640000905b670de0b6b3a764000090818102918183041490151715610fee5790610ea491613ace565b899260015416936040519081523060048201528881602481885afa8015610fe35782918c91610fb2575b50101580610fa9575b610f35575b50600080516020615c6d8339815191529250604051908152600087820152600080516020615d8d83398151915260403392a233885260108652604088205490610f2c604051928392339684613b2b565b0390a285610cf5565b90915086604051809463a9059cbb60e01b8252818c81610f5987336004840161399b565b03925af1928315610f9e57600080516020615c6d83398151915293610f81575b509089610edc565b610f9790883d8a116105a1576105928183613941565b5089610f79565b6040513d8b823e3d90fd5b50801515610ed7565b8092508a8092503d8311610fdc575b610fcb8183613941565b81010312610ad6578190518c610ece565b503d610fc1565b6040513d8d823e3d90fd5b634e487b7160e01b8b52601160045260248bfd5b601754670de0b6b3a76400009081810291818304149015171561102f579061102991613ace565b90610e80565b634e487b7160e01b8c52601160045260248cfd5b50683635c9adc5dea0000060175410610e6f565b60405163a9059cbb60e01b815291955088908290818d8161107c8b336004840161399b565b03925af180156110b057611093575b50838a610e62565b6110a990883d8a116105a1576105928183613941565b508961108b565b6040513d8c823e3d90fd5b50811515610e5d565b8092508b8092503d83116110ee575b6110dd8183613941565b81010312610ad6578290518d610e54565b503d6110d3565b6040513d8e823e3d90fd5b906040519081528185820152600080516020615ccd83398151915260403392a286610def565b61113285601754613ac1565b601755610cef565b6040516304c4857b60e51b8152600490fd5b508015610ce5565b6040516282b42960e81b8152600490fd5b503461038d578060031936011261038d576020600754604051908152f35b503461038d578060031936011261038d576020601f54604051908152f35b503461038d57604036600319011261038d576111bb613846565b6001600160a01b031681526011602052604081208054602435929083101561038d5760c06111e984846139ff565b508054906001810154906002810154600382015490600560ff600485015416930154936040519586526020860152604085015260608401521515608083015260a0820152f35b503461038d578060031936011261038d57602060ff601654166040519015158152f35b503461038d578060031936011261038d576112906040516112728161390b565b60058152640352e302e360dc1b6020820152604051918291826139b6565b0390f35b503461038d576112a3366138e2565b908252601d6020526040822080548210156112e4576112c2925061397f565b508054600190910154604051918291611290916001600160a01b03168361399b565b8280fd5b503461038d57604036600319011261038d5761038a611305613846565b61130d61385c565b90611316614456565b614100565b503461038d57602036600319011261038d577fd28d9e4ce68d89af7920cb8618e342a78f51e545c530ce60f1cb1d6f0235b47f602060043561135b614456565b80601555604051908152a180f35b503461038d57611378366138e2565b611380614456565b81611491575b806113ad575b600080516020615c2d8339815191529160409182519182526020820152a180f35b6001546040516323b872dd60e01b81529060209082906001600160a01b03168187816113de88303360048501613a76565b03925af19081611472575b50611447576113f6614071565b6308c379a014611413575b6040516320a9b82760e21b8152600490fd5b61141b61408f565b806114265750611401565b6040516387a26b7560e01b815290819061144390600483016139b6565b0390fd5b600080516020615c2d8339815191529181611466604093601854613ac1565b6018559150915061138c565b61148a9060203d6020116105a1576105928183613941565b50386113e9565b82546040516323b872dd60e01b81529060209082906001600160a01b03168187816114c189303360048501613a76565b03925af190816114ed575b506114d9576113f6614071565b6114e582601754613ac1565b601755611386565b6115059060203d6020116105a1576105928183613941565b50386114cc565b503461038d57604036600319011261038d57611526613846565b60243590611532614456565b61153e82601f54613aee565b601f55825460405163a9059cbb60e01b815291906001600160a01b0390602090849083168188816115738a896004840161399b565b03925af1918215610626577f27971ee1acbfbdfb20656657ceb2e0e7b519b9e60fe1a6b1f6d27b159f4a607c936020936115b5575b506040519485521692a280f35b6115cb90843d86116105a1576105928183613941565b50386115a8565b503461038d578060031936011261038d57546040516001600160a01b039091168152602090f35b503461038d578060031936011261038d576020600e54604051908152f35b503461038d577f4e9dd03193a0c81552fb8e6d32280f0d7e0ce8087241dc3d17ef3d193ee231d76040611649366138e2565b611651614456565b81600d5580600e5582519182526020820152a180f35b503461038d578060031936011261038d57600080516020615c8d833981519152546040516001600160a01b039091168152602090f35b503461038d578060031936011261038d57602060405160038152f35b503461038d578060031936011261038d57602060405160018152f35b503461038d578060031936011261038d576004546040516001600160a01b039091168152602090f35b503461038d578060031936011261038d57602060405160048152f35b503461038d57602036600319011261038d576080906040906001600160a01b03611742613846565b16815260106020522080549060018101549060ff6003600283015492015416916040519384526020840152604083015215156060820152f35b503461038d57608036600319011261038d57611795613846565b61179d61385c565b906117a6613872565b916117af613888565b906117b8614456565b6001600160a01b039283169182158015611869575b801561185f575b8015611855575b61088b577f213f1de8063c19612a553f1480ff341bea689d36a56a2089f1b9060d599b5d8394848060809660018060a01b031995878760025416176002551692838660035416176003551692838560045416176004551680936005541617600555604051938452602084015260408301526060820152a180f35b50838116156117db565b50838516156117d4565b50838216156117cd565b503461038d578060031936011261038d57601b54620151808101809111611966574210611954576018548015611942576064810490811561194257816118b891613aee565b60185560015482906001600160a01b0316803b1561193357818091602460405180948193630852cd8d60e31b83528860048401525af180156119375761191f575b50600080516020615d2d83398151915260408342601b558151908482526020820152a180f35b611928906138f8565b6119335781386118f9565b5080fd5b6040513d84823e3d90fd5b60405163162908e360e11b8152600490fd5b604051636f47a98b60e11b8152600490fd5b634e487b7160e01b82526011600452602482fd5b503461038d57611989366138e2565b90825260136020526040822080548210156112e4576112c2925061397f565b503461038d578060031936011261038d576020601754604051908152f35b503461038d578060031936011261038d576002546040516001600160a01b039091168152602090f35b503461038d578060031936011261038d576020601a54604051908152f35b503461038d578060031936011261038d57611a26614456565b600080516020615c8d83398151915280546001600160a01b031981169091556000906001600160a01b0316600080516020615d4d8339815191528280a380f35b503461038d578060031936011261038d576020601554604051908152f35b503461038d578060031936011261038d5760206040516103e88152f35b503461038d57602036600319011261038d57611abb61448f565b60ff604f54166122c057611ace33614ce6565b68056bc75e2d631000006004351415806122ab575b80612296575b80612281575b6119425780546040516323b872dd60e01b81529060209082906001600160a01b0316818581611b276004803590309033908501613a76565b03925af1801561193757612262575b5033815260106020526040812060038101805460ff161561218757611b5c601954614062565b806019558255600435600183015542600283015560ff198154169055338252600f602052816003604082200155600360043502600435810460031460043515171561217357338352600f60205260046040842001555b600a6001820154338452600f6020526040842090600982018054821161216b575b505001805460043511612160575b5080548252601c6020908152604080842080546001600160a01b031916339081179091558452600f9091528220546001600160a01b03168015158061214c575b156120c057611c406064611c39600654600435613a98565b0482614eb2565b908161208b575b50505b338252600f6020526040822054829182916001600160a01b031690829060043580159080046001141715612077579394915b6001600160a01b0381168015158061206d575b80612063575b15611da2578452600f6020526040842060ff60058201541615611d8357506001600160a01b0381168452600f60205260408420600101548390611cd790613afb565b11611d13575b6001600160a01b039081168452600f60205260408420541691611d0990611d0390614062565b95614062565b935b939491611c7c565b611d22606460043504826150b6565b80611d2e575b50611cdd565b9182611d3991613ac1565b91338552601060205260408520546040519182528560208301526003604083015260608201523390600080516020615c4d833981519152608060018060a01b03851692a338611d28565b5492956001600160a01b0390931692611d9c9150614062565b93611d0b565b848684611dc16007916064611dbb600754600435613a98565b04613aee565b8061201e575b508260018060a01b038154166020611e1360018060a01b0360025416926064611df4600854600435613a98565b0460405195868094819363a9059cbb60e01b988984526004840161399b565b03925af191821561062657611e8192611fff575b50611e416064611e3b600954600435613a98565b04615889565b845460048054600a546020936001600160a01b0392831693921691606491611e699135613a98565b0491886040518097819582948984526004840161399b565b03925af190811561062657611ed692602092611fe2575b5060018060a01b0386541660018060a01b0360035416876064611ebf600b54600435613a98565b04936040519687958694859384526004840161399b565b03925af180156105a857611fc3575b50336000908152600f60205260408120549092600435151592916001600160a01b03165b6001600160a01b031680151580611fb9575b15611f6457600052600f602052611f4783604060002090611f4d575b546001600160a01b031694614062565b93611f09565b838101611f5d6004358254613ac1565b9055611f37565b8582611f6f33614c3c565b5460405190600435825260208201527f2a91574e12ad96234e84923e146b0946ecfb871cd8d5534dc1fdcbe87a7c01b360403392a26001600080516020615dad8339815191525580f35b50601e8510611f1b565b611fdb9060203d6020116105a1576105928183613941565b5083611ee5565b611ff890833d85116105a1576105928183613941565b5086611e98565b6120179060203d6020116105a1576105928183613941565b5085611e27565b60408161204e7fca2e2bff26d2adb9fe155e9265350494c16751676879cb7ced9141e0fcf3934393601f54613ac1565b80601f5582519182526020820152a183611dc7565b5060148710611c95565b50600f8410611c8f565b634e487b7160e01b84526011600452602484fd5b8254604051928352846020840152600260408401526060830152600080516020615c4d83398151915260803393a33880611c47565b50815460025460065461210d926020926001600160a01b03908116929116906064906120ee90600435613a98565b04918660405180968195829463a9059cbb60e01b84526004840161399b565b03925af1801561214157612122575b50611c4a565b61213a9060203d6020116105a1576105928183613941565b503861211c565b6040513d85823e3d90fd5b5080835260ff600560408520015416611c21565b600435905538611be1565b553880611bd3565b634e487b7160e01b83526011600452602483fd5b600182018054806121f5575061219e601954614062565b806019558355600435905542600283015560ff198154169055338252600f602052816003604082200155600360043502600435810460031460043515171561217357338352600f6020526004604084200155611bb2565b61220491925060043590613ac1565b9055338252600f60205260ff600560408420015416612257575b600360043502600435810460031460043515171561217357338352600f60205261225060046040852001918254613ac1565b9055611bb2565b42600282015561221e565b61227a9060203d6020116105a1576105928183613941565b5038611b36565b50683635c9adc5dea000006004351415611aef565b50681b1ae4d6e2ef5000006004351415611ae9565b50681043561a88293000006004351415611ae3565b60405163ab35696f60e01b8152600490fd5b503461038d578060031936011261038d576020601954604051908152f35b503461038d578060031936011261038d577f00000000000000000000000000000000000000000000000000000000000000006001600160a01b03163003612349576020604051600080516020615cad8339815191528152f35b60405163703e46dd60e11b8152600490fd5b503461038d57602080600319360112611933576004359061237a61448f565b60ff604f54166122c057811561194257683635c9adc5dea000008060175410908115612609575b5061257d576001546040516323b872dd60e01b81526001600160a01b03918390829084168188816123d78a303360048501613a76565b03925af18015610626576125ec575b5060646123f5600e5485613a98565b04906124018285613aee565b926127108085029085820414851517156125d8576124256103e89160185490613ace565b1161194257858260015416803b1561193357818091602460405180948193630852cd8d60e31b83528a60048401525af18015611937576125c0575b5050601754936124708582613a98565b90612488601854926124828385613ac1565b90613ace565b93885416956040516370a0823160e01b815230600482015284816024818b5afa80156110b05786918b9161258f575b501061257d576124cb85926124d394613ac1565b601855613aee565b60175580604051809563a9059cbb60e01b82528189816124f788336004840161399b565b03925af1938415612572577f223c8ad0806f634524940a8595f819c5cfc7b1f4f4f45791269301df0a7e61d594612554575b505061253c6040519283923396846138cc565b0390a26001600080516020615dad8339815191525580f35b8161256a92903d106105a1576105928183613941565b503880612529565b6040513d88823e3d90fd5b6040516343c7ad8160e11b8152600490fd5b809250868092503d83116125b9575b6125a88183613941565b81010312610ad657859051386124b7565b503d61259e565b6125c9906138f8565b6125d4578538612460565b8580fd5b634e487b7160e01b87526011600452602487fd5b61260290833d85116105a1576105928183613941565b50386123e6565b905060185410386123a1565b503461038d578060031936011261038d5761262e614456565b600160ff19604f541617604f557f4cb3183d0bf66f9634b15cfc3539fdddc96c2c9324848af89b56586a6739fec48180a180f35b50604036600319011261038d57612677613846565b60249182356001600160401b03811161193357366023820112156119335780600401356126a381613964565b936126b16040519586613941565b81855260209182860193368883830101116125d457818692898693018737870101526001600160a01b037f00000000000000000000000000000000000000000000000000000000000000008116308114908115612879575b5061234957612716614456565b8116946040516352d1902d60e01b815283816004818a5afa869181612846575b5061275357604051634c9c8ce360e01b8152600481018890528890fd5b869088600080516020615cad833981519152918281036128315750843b1561281b575080546001600160a01b031916821790556040518692917fbc7cd75a20ee27fd9adebab32041f755214dbc6bffa90cc0225b39da2e5c2d3b8480a28151156127fd57506127f09482915190845af4903d156127f4573d6127d481613964565b906127e26040519283613941565b81528581943d92013e615b88565b5080f35b60609250615b88565b9450505050503461280c575080f35b63b398979f60e01b8152600490fd5b604051634c9c8ce360e01b815260048101849052fd5b60405190632a87526960e21b82526004820152fd5b9091508481813d8311612872575b61285e8183613941565b8101031261286e57519038612736565b8680fd5b503d612854565b905081600080516020615cad8339815191525416141538612709565b503461038d576128a4366138e2565b91906128ae61448f565b60ff604f54166122c057338252601060205260408220600181015415612eeb5760ff600382015416612ed957600784141580612ece575b80612ec3575b612eb15781156119425782546040516323b872dd60e01b81529060209082906001600160a01b031681878161292589303360048501613a76565b03925af180156105a857612e92575b50612940601a54614062565b601a8190553384526011602052604080852090519160c083016001600160401b03811184821017612e7c576040528252836020830152426040830152856060830152600160808301528460a0830152805490600160401b821015612e6857906129ae916001820181556139ff565b919091612e545760a0816005925184556020810151600185015560408101516002850155606081015160038501556129fb60808201511515600486019060ff801983541691151516179055565b0151910155601a548352601e602052604083203360018060a01b0319825416179055338352600f602052600a60408420018054918215612e43575b50506096810290808204609614901517156121735760649004810361194257612a5e33614c3c565b601a54927fa8a1b9e33e503eed12bf7e7c8c01c7f3b60217a496bddd0f5db351dd8c056c1c60405180612a9487339587846138cc565b0390a2338252600f6020526040822054829081906001600160a01b03165b6001600160a01b038116151580612e39575b15612e2e576001600160a01b0381168552600f60205260408520600581015460ff1615612e1957506001600160a01b03811685526010602052604085206001810154908115908115612e0a575b50612de5576001600160a01b0382168652600f6020526040862060020154612b38906144bf565b919050838211612cdd575b50602d1115612b77576001600160a01b039081168552600f60205260408520541691612b6e90614062565b925b9291612ab2565b5050505090505b338152600f602052600660408220018181549182612bad575b506001600080516020615dad8339815191525580f35b556017548181101580612c65575b612bc7575b8290612b97565b81612bd191613aee565b601755815460405163a9059cbb60e01b81529060209082906001600160a01b0316818681612c0388336004840161399b565b03925af1801561214157612c46575b506040519081527f3437b9ea7fa19c6d233dd70cc787a70fab87cee64d8ba4571512cc84402748f960203392a23880612bc0565b612c5e9060203d6020116105a1576105928183613941565b5038612c12565b5082546040516370a0823160e01b815230600482015290602090829060249082906001600160a01b03165afa80156105a85783918591612ca8575b501015612bbb565b9150506020813d602011612cd5575b81612cc460209383613941565b81010312610ad65782905138612ca0565b3d9150612cb7565b612cff90612cee8395606494613aee565b908790808911612ddd575b50613a98565b04868652601d6020526040862060405190612d198261390b565b6001600160a01b038416825260208201839052805490600160401b821015612dc95790612d4b9160018201815561397f565b919091612db557805182546001600160a01b0319166001600160a01b03918216178355602091820151600193909301929092556040519283529083169188917f7c6505ab8279235ad21ebf427336cc8d97c017b4aa1f10ffdff11d3261e4934e91a381602d612b43565b634e487b7160e01b88526004889052602488fd5b634e487b7160e01b89526041600452602489fd5b905038612cf9565b5050600f60205260408420546001600160a01b031691612e0490614062565b92612b70565b60ff9150600301541638612b11565b546001600160a01b031692612e049150614062565b505050509050612b7e565b5060148310612ac4565b600191925001548091553880612a36565b634e487b7160e01b85526004859052602485fd5b634e487b7160e01b86526041600452602486fd5b634e487b7160e01b600052604160045260246000fd5b612eaa9060203d6020116105a1576105928183613941565b5038612934565b604051634dc7f5ff60e11b8152600490fd5b50601e8414156128eb565b50600f8414156128e5565b604051631ecb2c4f60e31b8152600490fd5b604051634065aaf160e11b8152600490fd5b503461038d578060031936011261038d57612f16614456565b60ff19604f5416604f557f15de7ad89d29fd1c6d2e6b1e878453569b4080edf34e0105faaa3bd52f0185308180a180f35b503461038d578060031936011261038d576020604051603c8152f35b503461038d578060031936011261038d576003546040516001600160a01b039091168152602090f35b503461038d57602036600319011261038d576020906004358152601e8252604060018060a01b0391205416604051908152f35b503461038d578060031936011261038d57612fd861448f565b610d3f613b48565b503461038d578060031936011261038d576020600d54604051908152f35b503461038d578060031936011261038d57602060ff604f54166040519015158152f35b503461038d578060031936011261038d57604f5460405160089190911c6001600160a01b03168152602090f35b503461038d57602036600319011261038d576004359060145482101561038d5760208160146003935220910201805461129060026001840154930154604051938493846138cc565b503461038d578060031936011261038d576020604051683635c9adc5dea000008152f35b503461038d57602036600319011261038d57611290906002906040906001600160a01b036130e6613846565b168152600f6020522001546130fa816144bf565b929091604051938493846138cc565b503461038d578060031936011261038d576020601854604051908152f35b503461038d57602036600319011261038d57610160906001600160a01b039060409082613152613846565b168152600f60205220908154169060018101549060028101546003820154600483015460ff600585015416600685015491600786015493600887015495600a6009890154980154986040519a8b5260208b015260408a015260608901526080880152151560a087015260c086015260e0850152610100840152610120830152610140820152f35b503461038d57602036600319011261038d5760206131f8600435613afb565b604051908152f35b503461038d578060031936011261038d576001546040516001600160a01b039091168152602090f35b503461038d578060031936011261038d57602090604051908152f35b503461038d578060031936011261038d57602060405160028152f35b503461038d57602080600319360112611933576004359061328061448f565b60ff604f54166122c057811561194257683635c9adc5dea0000080601754109081156134b9575b5061257d5782546040516323b872dd60e01b81526001600160a01b03918390829084168188816132dc8a303360048501613a76565b03925af180156106265761349c575b50601854906132fa8285613a98565b9061330c601754926124828785613ac1565b92612710860261270f19878204016134885761332b846103e892613ace565b1161194257606461333e600d5486613a98565b049361334a8582613aee565b938360015416916040516370a0823160e01b81523060048201528881602481875afa8015610fe35782918c91613453575b501061257d5789936133908a61339894613ac1565b601755613aee565b601855803b15611933578190602460405180948193630852cd8d60e31b83528960048401525af1801561344857613435575b50600154169280604051809563a9059cbb60e01b82528189816133f188336004840161399b565b03925af1938415612572577f36864aeefce16bc4aaceeb6b0cdfb2ad1455a8cb4ccb0db148a2bc6e7166f97c9461255457505061253c6040519283923396846138cc565b613441909691966138f8565b94386133ca565b6040513d89823e3d90fd5b8092508a8092503d8311613481575b61346c8183613941565b8101031261347d578190513861337b565b8a80fd5b503d613462565b634e487b7160e01b88526011600452602488fd5b6134b290833d85116105a1576105928183613941565b50386132eb565b905060185410386132a7565b503461038d57604036600319011261038d576134df613846565b6001600160a01b0390811682526012602052604082208054602435939084101561038d57506020926135109161389e565b9190546040519260031b1c168152f35b503461038d576020908160031936011261038d5761353c613846565b338252600f808452604083205490926001600160a01b0392909183166136c85782163381146136b657801561088b5733808352600f8652604080842080546001600160a01b0319168417905582845260128752832061359b9190613a1b565b338252600f855282604083205416938383955b16801515806136ac575b15613682578084528187526040842090600282018054600181019182821161348857928261361f8a9693837fa0eea20e678cb42233c1c456c84cedce7ea53fa360bb71bf3b761b76095677708f6040908b9961363f9b5586825191868352820152a26144bf565b50613629826144bf565b5090808203613645575b50505050541696614062565b956135ae565b6136767fea8384d3ca7bf5b7510d3faee44a3774406c1fd3ac14fff110a8c98d47a2595693604051938493846138cc565b0390a238808080613633565b5050337fa6dbb5aa28f35437de94d685d66edce5fb4812196b4984b91dfd5a7b38c0fb308380a380f35b50601e86106135b8565b604051631acade8960e31b8152600490fd5b60405163682a906560e01b8152600490fd5b503461038d578060031936011261038d576020600b54604051908152f35b503461038d57604036600319011261038d5760043580151580910361193357602435908115158092036112e4577f03cb373f89de891077fe47cec43663b6727713de0337af46bebd1178122251b7917fb886fcb5b9c12916f26d967ebe962dbd51ec249fb55961da39c851cdfc10115c60208093613774614456565b6016805461ffff191660ff831617600886901b61ff0016179055604051908152a1604051908152a180f35b503461038d57602036600319011261038d576137b9613846565b6137c1614456565b6001600160a01b0390811690811561380f57600180546001600160a01b031981168417909155167f0b499b1332f638ab70789e63adf87bde04c1d0254ee488465c256f2e5d0f488d8380a380f35b60405162461bcd60e51b815260206004820152600f60248201526e496e76616c6964206164647265737360881b6044820152606490fd5b600435906001600160a01b0382168203610ad657565b602435906001600160a01b0382168203610ad657565b604435906001600160a01b0382168203610ad657565b606435906001600160a01b0382168203610ad657565b80548210156138b65760005260206000200190600090565b634e487b7160e01b600052603260045260246000fd5b6040919493926060820195825260208201520152565b6040906003190112610ad6576004359060243590565b6001600160401b038111612e7c57604052565b604081019081106001600160401b03821117612e7c57604052565b606081019081106001600160401b03821117612e7c57604052565b601f909101601f19168101906001600160401b03821190821017612e7c57604052565b6001600160401b038111612e7c57601f01601f191660200190565b80548210156138b65760005260206000209060011b0190600090565b6001600160a01b039091168152602081019190915260400190565b6020808252825181830181905290939260005b8281106139eb57505060409293506000838284010152601f8019910116010190565b8181018601518482016040015285016139c9565b80548210156138b6576000526006602060002091020190600090565b80549190600160401b831015612e7c5782613a3e916001613a5c9501815561389e565b90919060018060a01b038084549260031b9316831b921b1916179055565b565b90816020910312610ad657518015158103610ad65790565b6001600160a01b03918216815291166020820152604081019190915260600190565b81810292918115918404141715613aab57565b634e487b7160e01b600052601160045260246000fd5b91908201809211613aab57565b8115613ad8570490565b634e487b7160e01b600052601260045260246000fd5b91908203918211613aab57565b6003811015613b25576002811015613b1f5760011115613b1a57600090565b600590565b50600a90565b50600f90565b606091949392608082019582526020820152600060408201520152565b60003381526020906010825260409081812092600180850154158015614054575b61404357338352601180835284842084929183835b613f30575b505050508015613f1f57338352600f8252613ba48160038686200154613ac1565b94338452600f83528484209560049687810154809211613f07575b50508115613ef857338452600f8352600385852001613bdf838254613ac1565b9055835485516370a0823160e01b808252308983015286946001600160a01b0394939092600184901c918616908881602481855afa908115613eee5789929184918c91613eb6575b50101580613ead575b613e49575b505060185480158015613e35575b15613df55750670de0b6b3a7640000905b670de0b6b3a764000090818102918183041490151715613de25790613c7891613ace565b90879460015416908951908152308b8201528781602481855afa908115613dd8579083918a91613da3575b50101580613d9a575b613d19575b505091600080516020615c6d83398151915291600f95949388519081528786820152600080516020615d8d833981519152893392a25490613cf88851928392339684613b2b565b0390a2338352522060038101549101541115613d1057565b613a5c3361481b565b81613d409293955087918b8a8c5180968195829463a9059cbb60e01b84523390840161399b565b03925af18015613d905791600080516020615c6d8339815191529391600f97969593613d73575b50939495819350613cb1565b613d8990873d89116105a1576105928183613941565b5038613d67565b88513d89823e3d90fd5b50811515613cac565b809250898092503d8311613dd1575b613dbc8183613941565b81010312613dcd5782905138613ca3565b8880fd5b503d613db2565b8a513d8b823e3d90fd5b634e487b7160e01b895260118b52602489fd5b601754670de0b6b3a764000090818102918183041490151715613e225790613e1c91613ace565b90613c54565b634e487b7160e01b8a5260118c5260248afd5b50683635c9adc5dea0000060175410613c43565b82975091613e6e928c8b8d5180968195829463a9059cbb60e01b84523390840161399b565b03925af18015613ea357613e86575b50848638613c35565b613e9c90873d89116105a1576105928183613941565b5038613e7d565b89513d8a823e3d90fd5b50821515613c30565b92938092508391503d8311613ee7575b613ed08183613941565b81010312613ee357908289925138613c27565b8980fd5b503d613ec6565b8b513d8c823e3d90fd5b505050505050613a5c3361481b565b613f179293506003015490613aee565b903880613bbf565b8351630fec21fd60e21b8152600490fd5b825481101561403e57613f4381846139ff565b508460ff60048093015416156140335750613f67613f6183866139ff565b5061456e565b9081613f7f575b505090838093925b01909192613b7e565b909586613f8b91613ac1565b95613fa56005613f9b85886139ff565b5001918254613ac1565b90556002613fb383866139ff565b5001546003613fc284876139ff565b50015490603c918281029281840414901517156140215791613fe987969594928794613ac1565b421015613ffa575b50919293613f6e565b61400482866139ff565b5001805460ff1916905561401b610c8482866139ff565b38613ff1565b634e487b7160e01b8a5284835260248afd5b939291849150613f76565b613b83565b8351634065aaf160e11b8152600490fd5b5060ff600386015416613b69565b6000198114613aab5760010190565b60009060033d1161407e57565b905060046000803e60005160e01c90565b600060443d106140ec57604051600319913d83016004833e81516001600160401b03918282113d6024840111176140ef578184019485519384116140f7573d850101602084870101116140ef57506140ec92910160200190613941565b90565b949350505050565b50949350505050565b916001600160a01b039081841690811580156143ea575b61088b578284168083146136b65784846000965b16801515806143e0575b15614161578481146136b657600052600f6020528461415b816040600020541697614062565b9661412b565b506000848152600f60208181526040928390208054969a959950868916989496898b146143d3576001600160a01b0319168a17905587151594856142f6575b6141b5908a6000526012835284600020613a1b565b8660005281815260029560028460002001549060019660018301809311613aab57614276575b8a614210575b50505050505050507ff8b9fe4d008320e6f048c61e41e9cc56ce351354ad0cb9a868bd3c4bd6928fd5600080a4565b600090875b614220575b506141e1565b86168015158061426c575b156142675780600052848452888660002001614248848254613ac1565b90556000528383526142608686600020541691614062565b9087614215565b61421a565b50601e821061422b565b866000878c835b61428b575b505050506141db565b16801515806142ec575b156142e55760008181528787528890208b01805486116142dc576142ba868254613aee565b90555b6000528585526142d38888600020541691614062565b9088908361427d565b600090556142bd565b8890614282565b50601e8210614295565b9897969594939291908760005260128152826000209960005b8b54808210156143be5786908a6143278f859061389e565b939054600394851b1c161461434057505060010161430f565b60009d91929495969798999a9b9c9d1994858201918211613aab57613a3e8a61436c61437a948661389e565b905490871b1c16918461389e565b805480156143a8576141b59489910192614394848461389e565b81939154921b1b19169055555b90506141a0565b634e487b7160e01b600052603160045260246000fd5b50506141b59192939495969798999a506143a1565b5050505050505050505050565b5060328710614135565b5082841615614117565b6001600160a01b0390811690811561443d57600080516020615c8d83398151915280546001600160a01b03198116841790915516600080516020615d4d833981519152600080a3565b604051631e4fbdf760e01b815260006004820152602490fd5b600080516020615c8d833981519152546001600160a01b0316330361447757565b60405163118cdaa760e01b8152336004820152602490fd5b600080516020615dad83398151915260028154146144ad5760029055565b604051633ee5aeb560e01b8152600490fd5b620186a08110156145655761753081101561455c5761271081101561455357610bb881101561454a576103e88110156145415761012c81101561453857606481101561452f57601e81101561452657600a111561451e57600090600090565b600190600590565b50600290600a90565b50600390600f90565b50600490601490565b50600590601990565b50600690601e90565b50600790602390565b50600890602890565b50600990602d90565b600381015461457c81615ab7565b90603c61458d600285015442613aee565b04908082116145df575b5080156145d7576145bc633b9aca00916145b76005946001870154613a98565b613a98565b049101548082116145ce575050600090565b6140ec91613aee565b505050600090565b905038614597565b80518210156138b65760209160051b010190565b8054906000908181558261460e57505050565b6001906001600160ff1b0384168403612173578252602082209260011b8301925b83811061463c5750505050565b80836002925583838201550161462f565b6000818152601e6020908152604080832054601d83528184208054939695929492936001600160a01b03928316906001600160401b0381116147fa5786519261469b8a8360051b0185613941565b818452855288852085908a8086015b8484106147cb575050505050835b82518110156147b557808983858a886146ee816146d7600199866145e7565b515116866146e589876145e7565b51015190615237565b948b86614737575b5091508b9350614727867fae629b396150638d6eb6de457cbffe5d618a10c8cc199a94976bed2b16ecd993946145e7565b515116938c51908152a3016146b8565b83600080516020615c4d833981519152946004926080956147588c8a6145e7565b51511681526050855220928d6147908b8451996147748b613926565b87548b5260028f89015498868d01998a520154868c01526145e7565b515116965193519082519485528401528201528c6060820152a383858a888e8b6146f6565b5050505090613a5c9394601d91835252206145fb565b6001916002918c516147dc8161390b565b8a865416815284860154838201528152019201920191908b906146aa565b634e487b7160e01b85526041600452602485fd5b8015613aab576000190190565b6001600160a01b038116600081815260106020526040902060038101805492939260ff81161561484d575b5050505050565b906001602495969260ff19161790556011602052604060002094600092600094602060018060a01b0360005416604051988980926370a0823160e01b82523060048301525afa968715614afd57600097614c08575b50600095945b88548710156149695760ff60046148bf898c6139ff565b500154161561495f5760016148d4888b6139ff565b50015490818060011b0460021482151715613aab578961493291600161490e8b61012c6149078498600c5490861b613a98565b04946139ff565b50015482811061495257906149268361492c93613aee565b90613ac1565b97613ac1565b96600461493f828c6139ff565b5001805460ff191690555b0195946148a8565b6000925061492c91613ac1565b949560019061494a565b939750909450819593919383614a59575b505091600080516020615dcd8339815191526040600080516020615d6d833981519152959385602096614a38575b6000858152600f885283902060058101805460ff19811690915590546001600160a01b03169060ff1680614a2f575b80614a1b575b6149ff575b50825191825286820152a254604051908152a23880808080614846565b60005260018360002001614a13815461480e565b9055386149e2565b5080600052600184600020015415156149dd565b508015156149d7565b84600052600f875260068360002001614a52828254613ac1565b90556149a8565b9094929390848110614b095750506000805460405163a9059cbb60e01b81529560209287926001600160a01b0316918391908290614a9c908a906004840161399b565b03925af1938415614afd5760406020948793600080516020615dcd83398151915293600080516020615d6d83398151915298614ae0575b505b93955093955061497a565b614af690883d8a116105a1576105928183613941565b5038614ad3565b6040513d6000823e3d90fd5b9092939481614b5c575b506040600080516020615d6d83398151915295849360209695600080516020615ccd83398151915284600080516020615dcd833981519152968151908682528b820152a2614ad5565b81614b92929395945060209160018060a01b036000541690600060405180968195829463a9059cbb60e01b84526004840161399b565b03925af18015614afd57600080516020615d6d8339815191529560209588600080516020615ccd83398151915260408297600080516020615dcd833981519152978297614beb575b509650505050939495509550614b13565b614c01908c3d8e116105a1576105928183613941565b5038614bda565b9096506020813d602011614c34575b81614c2460209383613941565b81010312610ad6575195386148a2565b3d9150614c17565b60018060a01b038060009216825260106020526040822090600182015415159182614cd6575b50600f602052604083206005810160ff81541615158415151461484657805460ff191660ff851515161790555416918215614cd15760019260409215614cb9578152600f6020522001614cb58154614062565b9055565b81522001805480614cc8575050565b614cb59061480e565b505050565b6003015460ff1615915038614c62565b6001600160a01b039081166000818152601060209081526040808320600181810180549697909693959094929184158015614ea4575b614e4f57601184528682208054839291835b828110614e645750505050614e5a576002820196614d50885460155490613ac1565b421115614e4f57600383837f57025f0027038907eda728b59164fb63d06048f42e618a35267e6a12e49b2e469a8a9654998d8352600f895260ff6005898520928354169201541680614e46575b80614e34575b614e1a575b508c8252600f88528187812095816004600589019860ff19998a81541690558289820155015581855555550190815416905584614deb575b5051928352820152a2565b84815260138352614dfd8282206145fb565b848152601c83522080546001600160a01b03191690558338614de0565b8252600187832001614e2c815461480e565b905538614da8565b50808352600188842001541515614da3565b50801515614d9d565b505050505050505050565b5050505050505050565b60ff6004614e7283856139ff565b50015416614e82575b8301614d2e565b93614e9c849182614e9388866139ff565b50015490613ac1565b949050614e7b565b5060ff600384015416614d1c565b60018060a01b038082166000908082526020600f8152604090818420936010825282812060ff600587015416159081156150a7575b811561509a575b5061508f57600485019560038754960195614f0b87548092613aee565b8a818111615067575b5050891561505a57602484838554168751928380926370a0823160e01b82523060048301525afa90811561505057908b91859161501b575b5010614ff45789614f859392614f63828794613ac1565b89558354168a84885180978195829463a9059cbb60e01b84526004840161399b565b03925af1908115614fe9575090600080516020615d8d833981519152939291614fcc575b506002825191898352820152a25490541115614fc3575090565b6140ec9061481b565b614fe290823d84116105a1576105928183613941565b5038614fa9565b8451903d90823e3d90fd5b505096929550600080516020615ccd8339815191529450818792945051928352820152a290565b809250868092503d8311615049575b6150348183613941565b81010312615045578a905138614f4c565b8380fd5b503d61502a565b86513d86823e3d90fd5b5050965050505050505090565b819b5086600080516020615ccd8339815191529189939d825191825288820152a23880614f14565b965050505050505090565b6001915001541538614eee565b600381015460ff169150614ee7565b60018060a01b038082166000908082526020600f8152604090818420936010825282812060ff60058701541615908115615228575b811561521b575b5061508f5760048501956003875496019561510f87548092613aee565b8a8181116151f3575b5050891561505a57602484838554168751928380926370a0823160e01b82523060048301525afa90811561505057908b9185916151c2575b5010614ff457896151679392614f63828794613ac1565b03925af1908115614fe9575090600080516020615d8d8339815191529392916151a5575b506003825191898352820152a25490541115614fc3575090565b6151bb90823d84116105a1576105928183613941565b503861518b565b809250868092503d83116151ec575b6151db8183613941565b81010312615045578a905138615150565b503d6151d1565b819b5086600080516020615ccd8339815191529189939d825191825288820152a23880615118565b60019150015415386150f2565b600381015460ff1691506150eb565b60018060a01b038116600052600f60205260406000206010602052604060002060ff6005830154161590811561587a575b811561586d575b506145d757806003600461528893015491015490613aee565b82818111615839575b50508115615832576001600160a01b0381166000908152600f60205260409020906152ba615b28565b90670de0b6b3a76400008460011c028460011c8104670de0b6b3a7640000148560011c151715613aab57826152ee91613ace565b936040518181528160011c60208201528160011c60408201528360608201528560808201527fa7e66afc02702ffeb435ee9bacce4988459c7b329bf0dd9f8f551d823d1fece060a0600180821b03851692a2849260009460009261535188615c15565b156157ec575b6000546040516370a0823160e01b81523060048201526001600160a01b0390911690602081602481855afa908115614afd576000916157ba575b508260011c1515806157b1575b6156d9575b50506001546040516370a0823160e01b815230600482015296906001600160a01b0316602088602481845afa8015614afd576000906156a6575b600298508215158061569d575b6155cc575b5050878260011c1180156155c3575b61557c575b50615421670de0b6b3a764000061541a8587613a98565b0488613ac1565b978815615505575050806003600492019261543d898554613ac1565b93849055604080518a8152602081018590526001600160a01b03881691600080516020615d8d83398151915291a27fe83062c7bae5146a0afc41b3a8342f225ed2581a8e234e0ba69d9ff8c53a48d6604051806154a78b60018060a01b038b16958a429285615add565b0390a2015411156154f7575b604051936154c085613926565b845260208401908152604084019185835260018060a01b031660005260506020526040600020935184555160018401555191015590565b6155008261481b565b6154b3565b915091506040519180835260011c60208301526040820152608060608201526015608082015274139bc81d1bdad95b9cc81d1c985b9cd9995c9c9959605a1b60a08201527fd8349f8ffff882edf1f3a7f209a1d24fb5e821ba347cf8da7f016de352368fd060c060018060a01b03851692a26154b3565b7f60369b7cd498d613812af36dd7cb398ba493ee0afe0fc21d90a9f8b5fc620aa3604051806155ba8860018060a01b038b16958d8860011c85615add565b0390a238615403565b508481116153fe565b919550908086111561569557905b60405163a9059cbb60e01b81528291602090829081600081615600888f6004840161399b565b03925af19081615676575b5061566e575060405190600082526020820152606060408201526013606082015272129090c81d1c985b9cd9995c8819985a5b1959606a1b6080820152600080516020615d0d83398151915260a0600180821b03881692a26000935b38806153ef565b949050615667565b61568e9060203d6020116105a1576105928183613941565b503861560b565b5084906155da565b508015156153ea565b506020883d6020116156d1575b816156c060209383613941565b81010312610ad657600297516153dd565b3d91506156b3565b90919750808860011c116000146157a657905b60405163a9059cbb60e01b81528291602090829081600081615712888e6004840161399b565b03925af19081615787575b5061577f5750604051908152600060208201526060604082015260126060820152711350c81d1c985b9cd9995c8819985a5b195960721b6080820152600080516020615d0d83398151915260a0600180821b03871692a26000955b38806153a3565b969050615778565b61579f9060203d6020116105a1576105928183613941565b503861571d565b508660011c906156ec565b5080151561539e565b90506020813d6020116157e4575b816157d560209383613941565b81010312610ad6575138615391565b3d91506157c8565b601854604051601490910480825296506001600160a01b038616907fa3c9509a6af5ab7ab677b3caa94bb10373473b146705f236c71768d7b6b1a51390602090a2615357565b5050600090565b60408051918252602082018390529193506001600160a01b03831691600080516020615ccd83398151915291a23880615291565b600191500154153861526f565b600381015460ff169150615268565b908115615ab357601754683635c9adc5dea00000808210908115615aa7575b50615aa25760018060a01b03926000938085541692604093845191826370a0823160e01b9283825230600483015281602460209687935afa908115615a98578991615a6b575b506158f98683613ac1565b11615a4d57612710850261270f1986820401615a575761591c826103e892613ace565b11615a4d576018549061593c6159328388613a98565b6124828884613ac1565b9485158015615a44575b615a3857600154169287519081523060048201528481602481875afa908115615a2e579083918b916159fd575b50106159f257848993926133908861598a94613ac1565b601855803b156119335781906024875180948193630852cd8d60e31b83528860048401525af180156159e857600080516020615d2d8339815191529697506159d9575b508351928352820152a1565b6159e2906138f8565b386159cd565b85513d89823e3d90fd5b505050505050509050565b809250868092503d8311615a27575b615a168183613941565b81010312613ee35782905138615973565b503d615a0c565b88513d8c823e3d90fd5b50505050505050509050565b50828611615946565b5050505050509050565b634e487b7160e01b89526011600452602489fd5b90508381813d8311615a91575b615a828183613941565b81010312613dcd5751386158ee565b503d615a78565b87513d8b823e3d90fd5b509050565b905060185410386158a8565b9050565b60078114615ad557600f14615ace576301312d0090565b62fe502b90565b5062cb735690565b9094939260609260808301968352602083015260408201520152565b60ff600080516020615ded8339815191525460401c1615615b1657565b604051631afcd79f60e31b8152600490fd5b60185480158015615b74575b615b6757601754670de0b6b3a764000090818102918183041490151715613aab576140ec91615b6291613ace565b615beb565b50670de0b6b3a764000090565b50683635c9adc5dea0000060175410615b34565b90615baf5750805115615b9d57602081519101fd5b60405163d6bda27560e01b8152600490fd5b81511580615be2575b615bc0575090565b604051639996b31560e01b81526001600160a01b039091166004820152602490fd5b50803b15615bb8565b67016345785d8a0000808210615c105750678ac7230489e80000808211615c10575090565b905090565b8015615c2657601460185404101590565b5060019056fe38f8a0c92f4c5b0b6877f878cb4c0c8d348a47b76d716c8e78f425043df9515b62c4ea4229c396c9b5c33779ec09ed411b29ed8782e48ac358eaa9e8aa58a9b06fcebd0a2ce98b28cb391d6008bbc769378c9a4919628e11639cb575cd320fcc9016d09d72d40fdae2fd8ceac6b6234c7706214fd39c1cd1e609a0528c199300360894a13ba1a3210667c828492db98dca3e2076cc3735a920a3ca505d382bbcb5987aab1afd379f6695f1068869ee8ca6a0d02304c57935a9cc3d3ea2e51e4d520bc217d25ef4588524228dffcfa518f4ad52178c71d49b8061d016213cd311da109f9a8d0129326c2906f581adfd38d938005d44218a2f7c843b9b105af9ba0ec3929061cbbbeecb325623e7d5a86c3dae11cb8a22ca45dc0972955657da258be0079c531659141344cd1fd0a4f28419497f9722a3daafe3b4186f6b6457e0920bb94eb3842a728db98228c375ff6b00c5bc5a54fac6736155517a0a20a61af381583145e90b82cc5e529bf4fc4d0e44397174cdf145c4251ac33ef195a4249b779b17422d0df92223018b32b4d1fa46e071723d6817e2486d003becc55f00f3a670cd3af7d64b488926880889d08a8585a138ff455227af6737339a1ec262f0c57e16840df040f15088dc2f81fe391c3923bec73e23a9662efc9c229c6a00a2646970667358221220dd5c43b482001f18cedb3e2d290e79bb69a8a49b21d668f3d7ef65518cf3d16e64736f6c63430008160033",
  "linkReferences": {},
  "deployedLinkReferences": {}
}