{
  "_format": "hh-sol-artifact-1",
  "contractName": "JinbaoProtocol",
  "sourceName": "contracts/JinbaoProtocol.sol",
  "abi": [
    {
      "inputs": [],
      "stateMutability": "nonpayable",
      "type": "constructor"
    },
    {
      "inputs": [],
      "name": "ActionTooEarly",
      "type": "error"
    },
    {
      "inputs": [
        {
          "internalType": "address",
          "name": "target",
          "type": "address"
        }
      ],
      "name": "AddressEmptyCode",
      "type": "error"
    },
    {
      "inputs": [],
      "name": "AlreadyBound",
      "type": "error"
    },
    {
      "inputs": [],
      "name": "AlreadyExited",
      "type": "error"
    },
    {
      "inputs": [],
      "name": "BatchUpdateSizeMismatch",
      "type": "error"
    },
    {
      "inputs": [],
      "name": "ContractPaused",
      "type": "error"
    },
    {
      "inputs": [
        {
          "internalType": "address",
          "name": "implementation",
          "type": "address"
        }
      ],
      "name": "ERC1967InvalidImplementation",
      "type": "error"
    },
    {
      "inputs": [],
      "name": "ERC1967NonPayable",
      "type": "error"
    },
    {
      "inputs": [],
      "name": "Expired",
      "type": "error"
    },
    {
      "inputs": [],
      "name": "FailedCall",
      "type": "error"
    },
    {
      "inputs": [],
      "name": "InsufficientBalance",
      "type": "error"
    },
    {
      "inputs": [],
      "name": "InvalidAddress",
      "type": "error"
    },
    {
      "inputs": [],
      "name": "InvalidAmount",
      "type": "error"
    },
    {
      "inputs": [],
      "name": "InvalidCycle",
      "type": "error"
    },
    {
      "inputs": [],
      "name": "InvalidFee",
      "type": "error"
    },
    {
      "inputs": [],
      "name": "InvalidInitialization",
      "type": "error"
    },
    {
      "inputs": [],
      "name": "InvalidLevelConfig",
      "type": "error"
    },
    {
      "inputs": [],
      "name": "InvalidRate",
      "type": "error"
    },
    {
      "inputs": [],
      "name": "InvalidTax",
      "type": "error"
    },
    {
      "inputs": [],
      "name": "InvalidTeamCountUpdate",
      "type": "error"
    },
    {
      "inputs": [],
      "name": "LowLiquidity",
      "type": "error"
    },
    {
      "inputs": [],
      "name": "NoRewards",
      "type": "error"
    },
    {
      "inputs": [],
      "name": "NotActive",
      "type": "error"
    },
    {
      "inputs": [],
      "name": "NotInitializing",
      "type": "error"
    },
    {
      "inputs": [],
      "name": "NothingToRedeem",
      "type": "error"
    },
    {
      "inputs": [
        {
          "internalType": "address",
          "name": "owner",
          "type": "address"
        }
      ],
      "name": "OwnableInvalidOwner",
      "type": "error"
    },
    {
      "inputs": [
        {
          "internalType": "address",
          "name": "account",
          "type": "address"
        }
      ],
      "name": "OwnableUnauthorizedAccount",
      "type": "error"
    },
    {
      "inputs": [],
      "name": "RecursionDepthExceeded",
      "type": "error"
    },
    {
      "inputs": [],
      "name": "ReentrancyGuardReentrantCall",
      "type": "error"
    },
    {
      "inputs": [],
      "name": "SelfReference",
      "type": "error"
    },
    {
      "inputs": [],
      "name": "SumNot100",
      "type": "error"
    },
    {
      "inputs": [
        {
          "internalType": "address",
          "name": "user",
          "type": "address"
        },
        {
          "internalType": "uint256",
          "name": "expected",
          "type": "uint256"
        },
        {
          "internalType": "uint256",
          "name": "actual",
          "type": "uint256"
        }
      ],
      "name": "TeamCountMismatch",
      "type": "error"
    },
    {
      "inputs": [],
      "name": "TeamCountOverflow",
      "type": "error"
    },
    {
      "inputs": [],
      "name": "TransferFailed",
      "type": "error"
    },
    {
      "inputs": [
        {
          "internalType": "string",
          "name": "reason",
          "type": "string"
        }
      ],
      "name": "TransferFromFailed",
      "type": "error"
    },
    {
      "inputs": [],
      "name": "TransferFromFailedLowLevel",
      "type": "error"
    },
    {
      "inputs": [],
      "name": "UUPSUnauthorizedCallContext",
      "type": "error"
    },
    {
      "inputs": [
        {
          "internalType": "bytes32",
          "name": "slot",
          "type": "bytes32"
        }
      ],
      "name": "UUPSUnsupportedProxiableUUID",
      "type": "error"
    },
    {
      "inputs": [],
      "name": "Unauthorized",
      "type": "error"
    },
    {
      "anonymous": false,
      "inputs": [
        {
          "indexed": false,
          "internalType": "uint256",
          "name": "usersUpdated",
          "type": "uint256"
        }
      ],
      "name": "BatchTeamCountsUpdated",
      "type": "event"
    },
    {
      "anonymous": false,
      "inputs": [
        {
          "indexed": true,
          "internalType": "address",
          "name": "user",
          "type": "address"
        },
        {
          "indexed": true,
          "internalType": "address",
          "name": "referrer",
          "type": "address"
        }
      ],
      "name": "BoundReferrer",
      "type": "event"
    },
    {
      "anonymous": false,
      "inputs": [
        {
          "indexed": false,
          "internalType": "uint256",
          "name": "mcAmount",
          "type": "uint256"
        },
        {
          "indexed": false,
          "internalType": "uint256",
          "name": "jbcBurned",
          "type": "uint256"
        }
      ],
      "name": "BuybackAndBurn",
      "type": "event"
    },
    {
      "anonymous": false,
      "inputs": [
        {
          "indexed": true,
          "internalType": "address",
          "name": "user",
          "type": "address"
        },
        {
          "indexed": false,
          "internalType": "uint256",
          "name": "totalAmount",
          "type": "uint256"
        },
        {
          "indexed": false,
          "internalType": "uint256",
          "name": "mcPart",
          "type": "uint256"
        },
        {
          "indexed": false,
          "internalType": "uint256",
          "name": "jbcValuePart",
          "type": "uint256"
        },
        {
          "indexed": false,
          "internalType": "uint256",
          "name": "jbcPrice",
          "type": "uint256"
        },
        {
          "indexed": false,
          "internalType": "uint256",
          "name": "jbcAmount",
          "type": "uint256"
        }
      ],
      "name": "DifferentialRewardCalculated",
      "type": "event"
    },
    {
      "anonymous": false,
      "inputs": [
        {
          "indexed": true,
          "internalType": "address",
          "name": "user",
          "type": "address"
        },
        {
          "indexed": false,
          "internalType": "uint256",
          "name": "mcAmount",
          "type": "uint256"
        },
        {
          "indexed": false,
          "internalType": "uint256",
          "name": "jbcAmount",
          "type": "uint256"
        },
        {
          "indexed": false,
          "internalType": "uint256",
          "name": "jbcPrice",
          "type": "uint256"
        },
        {
          "indexed": false,
          "internalType": "uint256",
          "name": "timestamp",
          "type": "uint256"
        }
      ],
      "name": "DifferentialRewardDistributed",
      "type": "event"
    },
    {
      "anonymous": false,
      "inputs": [
        {
          "indexed": true,
          "internalType": "address",
          "name": "user",
          "type": "address"
        },
        {
          "indexed": false,
          "internalType": "uint256",
          "name": "totalAmount",
          "type": "uint256"
        },
        {
          "indexed": false,
          "internalType": "uint256",
          "name": "mcPart",
          "type": "uint256"
        },
        {
          "indexed": false,
          "internalType": "uint256",
          "name": "jbcAmount",
          "type": "uint256"
        },
        {
          "indexed": false,
          "internalType": "string",
          "name": "reason",
          "type": "string"
        }
      ],
      "name": "DifferentialRewardFailed",
      "type": "event"
    },
    {
      "anonymous": false,
      "inputs": [
        {
          "indexed": true,
          "internalType": "uint256",
          "name": "stakeId",
          "type": "uint256"
        },
        {
          "indexed": true,
          "internalType": "address",
          "name": "upline",
          "type": "address"
        },
        {
          "indexed": false,
          "internalType": "uint256",
          "name": "amount",
          "type": "uint256"
        }
      ],
      "name": "DifferentialRewardRecorded",
      "type": "event"
    },
    {
      "anonymous": false,
      "inputs": [
        {
          "indexed": true,
          "internalType": "uint256",
          "name": "stakeId",
          "type": "uint256"
        },
        {
          "indexed": true,
          "internalType": "address",
          "name": "upline",
          "type": "address"
        },
        {
          "indexed": false,
          "internalType": "uint256",
          "name": "amount",
          "type": "uint256"
        }
      ],
      "name": "DifferentialRewardReleased",
      "type": "event"
    },
    {
      "anonymous": false,
      "inputs": [
        {
          "indexed": false,
          "internalType": "uint256",
          "name": "direct",
          "type": "uint256"
        },
        {
          "indexed": false,
          "internalType": "uint256",
          "name": "level",
          "type": "uint256"
        },
        {
          "indexed": false,
          "internalType": "uint256",
          "name": "marketing",
          "type": "uint256"
        },
        {
          "indexed": false,
          "internalType": "uint256",
          "name": "buyback",
          "type": "uint256"
        },
        {
          "indexed": false,
          "internalType": "uint256",
          "name": "lpInjection",
          "type": "uint256"
        },
        {
          "indexed": false,
          "internalType": "uint256",
          "name": "treasury",
          "type": "uint256"
        }
      ],
      "name": "DistributionConfigUpdated",
      "type": "event"
    },
    {
      "anonymous": false,
      "inputs": [],
      "name": "EmergencyPaused",
      "type": "event"
    },
    {
      "anonymous": false,
      "inputs": [],
      "name": "EmergencyUnpaused",
      "type": "event"
    },
    {
      "anonymous": false,
      "inputs": [
        {
          "indexed": true,
          "internalType": "address",
          "name": "user",
          "type": "address"
        },
        {
          "indexed": false,
          "internalType": "uint256",
          "name": "ticketId",
          "type": "uint256"
        }
      ],
      "name": "Exited",
      "type": "event"
    },
    {
      "anonymous": false,
      "inputs": [
        {
          "indexed": true,
          "internalType": "address",
          "name": "user",
          "type": "address"
        },
        {
          "indexed": false,
          "internalType": "uint256",
          "name": "amount",
          "type": "uint256"
        }
      ],
      "name": "FeeRefunded",
      "type": "event"
    },
    {
      "anonymous": false,
      "inputs": [
        {
          "indexed": false,
          "internalType": "uint64",
          "name": "version",
          "type": "uint64"
        }
      ],
      "name": "Initialized",
      "type": "event"
    },
    {
      "anonymous": false,
      "inputs": [],
      "name": "LevelConfigsUpdated",
      "type": "event"
    },
    {
      "anonymous": false,
      "inputs": [
        {
          "indexed": false,
          "internalType": "uint256",
          "name": "amount",
          "type": "uint256"
        },
        {
          "indexed": false,
          "internalType": "uint256",
          "name": "newTotal",
          "type": "uint256"
        }
      ],
      "name": "LevelRewardPoolUpdated",
      "type": "event"
    },
    {
      "anonymous": false,
      "inputs": [
        {
          "indexed": true,
          "internalType": "address",
          "name": "to",
          "type": "address"
        },
        {
          "indexed": false,
          "internalType": "uint256",
          "name": "amount",
          "type": "uint256"
        }
      ],
      "name": "LevelRewardPoolWithdrawn",
      "type": "event"
    },
    {
      "anonymous": false,
      "inputs": [
        {
          "indexed": true,
          "internalType": "uint256",
          "name": "ticketId",
          "type": "uint256"
        },
        {
          "indexed": true,
          "internalType": "address",
          "name": "upline",
          "type": "address"
        },
        {
          "indexed": false,
          "internalType": "uint256",
          "name": "amount",
          "type": "uint256"
        }
      ],
      "name": "LevelRewardRecorded",
      "type": "event"
    },
    {
      "anonymous": false,
      "inputs": [
        {
          "indexed": true,
          "internalType": "uint256",
          "name": "ticketId",
          "type": "uint256"
        },
        {
          "indexed": true,
          "internalType": "address",
          "name": "upline",
          "type": "address"
        },
        {
          "indexed": false,
          "internalType": "uint256",
          "name": "amount",
          "type": "uint256"
        }
      ],
      "name": "LevelRewardReleased",
      "type": "event"
    },
    {
      "anonymous": false,
      "inputs": [
        {
          "indexed": false,
          "internalType": "uint256",
          "name": "mcAmount",
          "type": "uint256"
        },
        {
          "indexed": false,
          "internalType": "uint256",
          "name": "jbcAmount",
          "type": "uint256"
        }
      ],
      "name": "LiquidityAdded",
      "type": "event"
    },
    {
      "anonymous": false,
      "inputs": [
        {
          "indexed": true,
          "internalType": "address",
          "name": "user",
          "type": "address"
        },
        {
          "indexed": false,
          "internalType": "uint256",
          "name": "adjustedJbcAmount",
          "type": "uint256"
        }
      ],
      "name": "LiquidityProtectionTriggered",
      "type": "event"
    },
    {
      "anonymous": false,
      "inputs": [
        {
          "indexed": true,
          "internalType": "address",
          "name": "user",
          "type": "address"
        },
        {
          "indexed": false,
          "internalType": "uint256",
          "name": "amount",
          "type": "uint256"
        },
        {
          "indexed": false,
          "internalType": "uint256",
          "name": "cycleDays",
          "type": "uint256"
        },
        {
          "indexed": false,
          "internalType": "uint256",
          "name": "stakeId",
          "type": "uint256"
        }
      ],
      "name": "LiquidityStaked",
      "type": "event"
    },
    {
      "anonymous": false,
      "inputs": [
        {
          "indexed": false,
          "internalType": "bool",
          "name": "enabled",
          "type": "bool"
        }
      ],
      "name": "LiquidityStatusUpdated",
      "type": "event"
    },
    {
      "anonymous": false,
      "inputs": [
        {
          "indexed": true,
          "internalType": "address",
          "name": "previousOwner",
          "type": "address"
        },
        {
          "indexed": true,
          "internalType": "address",
          "name": "newOwner",
          "type": "address"
        }
      ],
      "name": "OwnershipTransferred",
      "type": "event"
    },
    {
      "anonymous": false,
      "inputs": [
        {
          "indexed": true,
          "internalType": "address",
          "name": "user",
          "type": "address"
        },
        {
          "indexed": false,
          "internalType": "uint256",
          "name": "mcRequested",
          "type": "uint256"
        },
        {
          "indexed": false,
          "internalType": "uint256",
          "name": "mcTransferred",
          "type": "uint256"
        },
        {
          "indexed": false,
          "internalType": "uint256",
          "name": "jbcRequested",
          "type": "uint256"
        },
        {
          "indexed": false,
          "internalType": "uint256",
          "name": "jbcTransferred",
          "type": "uint256"
        }
      ],
      "name": "PartialRewardTransfer",
      "type": "event"
    },
    {
      "anonymous": false,
      "inputs": [
        {
          "indexed": false,
          "internalType": "bool",
          "name": "enabled",
          "type": "bool"
        }
      ],
      "name": "RedeemStatusUpdated",
      "type": "event"
    },
    {
      "anonymous": false,
      "inputs": [
        {
          "indexed": true,
          "internalType": "address",
          "name": "user",
          "type": "address"
        },
        {
          "indexed": false,
          "internalType": "uint256",
          "name": "principal",
          "type": "uint256"
        },
        {
          "indexed": false,
          "internalType": "uint256",
          "name": "fee",
          "type": "uint256"
        }
      ],
      "name": "Redeemed",
      "type": "event"
    },
    {
      "anonymous": false,
      "inputs": [
        {
          "indexed": false,
          "internalType": "uint256",
          "name": "newFee",
          "type": "uint256"
        }
      ],
      "name": "RedemptionFeeUpdated",
      "type": "event"
    },
    {
      "anonymous": false,
      "inputs": [
        {
          "indexed": true,
          "internalType": "address",
          "name": "user",
          "type": "address"
        },
        {
          "indexed": true,
          "internalType": "address",
          "name": "from",
          "type": "address"
        },
        {
          "indexed": false,
          "internalType": "uint256",
          "name": "mcAmount",
          "type": "uint256"
        },
        {
          "indexed": false,
          "internalType": "uint256",
          "name": "jbcAmount",
          "type": "uint256"
        },
        {
          "indexed": false,
          "internalType": "uint8",
          "name": "rewardType",
          "type": "uint8"
        },
        {
          "indexed": false,
          "internalType": "uint256",
          "name": "ticketId",
          "type": "uint256"
        }
      ],
      "name": "ReferralRewardPaid",
      "type": "event"
    },
    {
      "anonymous": false,
      "inputs": [
        {
          "indexed": true,
          "internalType": "address",
          "name": "user",
          "type": "address"
        },
        {
          "indexed": true,
          "internalType": "address",
          "name": "oldReferrer",
          "type": "address"
        },
        {
          "indexed": true,
          "internalType": "address",
          "name": "newReferrer",
          "type": "address"
        }
      ],
      "name": "ReferrerChanged",
      "type": "event"
    },
    {
      "anonymous": false,
      "inputs": [
        {
          "indexed": true,
          "internalType": "address",
          "name": "user",
          "type": "address"
        },
        {
          "indexed": false,
          "internalType": "uint256",
          "name": "amount",
          "type": "uint256"
        },
        {
          "indexed": false,
          "internalType": "uint256",
          "name": "cappedAmount",
          "type": "uint256"
        }
      ],
      "name": "RewardCapped",
      "type": "event"
    },
    {
      "anonymous": false,
      "inputs": [
        {
          "indexed": true,
          "internalType": "address",
          "name": "user",
          "type": "address"
        },
        {
          "indexed": false,
          "internalType": "uint256",
          "name": "mcAmount",
          "type": "uint256"
        },
        {
          "indexed": false,
          "internalType": "uint256",
          "name": "jbcAmount",
          "type": "uint256"
        },
        {
          "indexed": false,
          "internalType": "uint8",
          "name": "rewardType",
          "type": "uint8"
        },
        {
          "indexed": false,
          "internalType": "uint256",
          "name": "ticketId",
          "type": "uint256"
        }
      ],
      "name": "RewardClaimed",
      "type": "event"
    },
    {
      "anonymous": false,
      "inputs": [
        {
          "indexed": true,
          "internalType": "address",
          "name": "user",
          "type": "address"
        },
        {
          "indexed": false,
          "internalType": "uint256",
          "name": "amount",
          "type": "uint256"
        },
        {
          "indexed": false,
          "internalType": "uint8",
          "name": "rewardType",
          "type": "uint8"
        }
      ],
      "name": "RewardPaid",
      "type": "event"
    },
    {
      "anonymous": false,
      "inputs": [
        {
          "indexed": true,
          "internalType": "address",
          "name": "user",
          "type": "address"
        },
        {
          "indexed": false,
          "internalType": "uint256",
          "name": "mcAmount",
          "type": "uint256"
        },
        {
          "indexed": false,
          "internalType": "uint256",
          "name": "jbcAmount",
          "type": "uint256"
        },
        {
          "indexed": false,
          "internalType": "string",
          "name": "reason",
          "type": "string"
        }
      ],
      "name": "RewardTransferFailed",
      "type": "event"
    },
    {
      "anonymous": false,
      "inputs": [
        {
          "indexed": false,
          "internalType": "uint256",
          "name": "mcAmount",
          "type": "uint256"
        },
        {
          "indexed": false,
          "internalType": "uint256",
          "name": "jbcAmount",
          "type": "uint256"
        }
      ],
      "name": "SwapReservesWithdrawn",
      "type": "event"
    },
    {
      "anonymous": false,
      "inputs": [
        {
          "indexed": false,
          "internalType": "uint256",
          "name": "buyTax",
          "type": "uint256"
        },
        {
          "indexed": false,
          "internalType": "uint256",
          "name": "sellTax",
          "type": "uint256"
        }
      ],
      "name": "SwapTaxesUpdated",
      "type": "event"
    },
    {
      "anonymous": false,
      "inputs": [
        {
          "indexed": true,
          "internalType": "address",
          "name": "user",
          "type": "address"
        },
        {
          "indexed": false,
          "internalType": "uint256",
          "name": "jbcAmount",
          "type": "uint256"
        },
        {
          "indexed": false,
          "internalType": "uint256",
          "name": "mcAmount",
          "type": "uint256"
        },
        {
          "indexed": false,
          "internalType": "uint256",
          "name": "tax",
          "type": "uint256"
        }
      ],
      "name": "SwappedJBCToMC",
      "type": "event"
    },
    {
      "anonymous": false,
      "inputs": [
        {
          "indexed": true,
          "internalType": "address",
          "name": "user",
          "type": "address"
        },
        {
          "indexed": false,
          "internalType": "uint256",
          "name": "mcAmount",
          "type": "uint256"
        },
        {
          "indexed": false,
          "internalType": "uint256",
          "name": "jbcAmount",
          "type": "uint256"
        },
        {
          "indexed": false,
          "internalType": "uint256",
          "name": "tax",
          "type": "uint256"
        }
      ],
      "name": "SwappedMCToJBC",
      "type": "event"
    },
    {
      "anonymous": false,
      "inputs": [
        {
          "indexed": true,
          "internalType": "uint256",
          "name": "stakeId",
          "type": "uint256"
        },
        {
          "indexed": true,
          "internalType": "address",
          "name": "upline",
          "type": "address"
        },
        {
          "indexed": false,
          "internalType": "uint256",
          "name": "amount",
          "type": "uint256"
        },
        {
          "indexed": false,
          "internalType": "uint256",
          "name": "teamCount",
          "type": "uint256"
        }
      ],
      "name": "TeamBasedRewardCalculated",
      "type": "event"
    },
    {
      "anonymous": false,
      "inputs": [
        {
          "indexed": true,
          "internalType": "address",
          "name": "user",
          "type": "address"
        },
        {
          "indexed": false,
          "internalType": "uint256",
          "name": "oldCount",
          "type": "uint256"
        },
        {
          "indexed": false,
          "internalType": "uint256",
          "name": "newCount",
          "type": "uint256"
        }
      ],
      "name": "TeamCountUpdated",
      "type": "event"
    },
    {
      "anonymous": false,
      "inputs": [
        {
          "indexed": true,
          "internalType": "address",
          "name": "user",
          "type": "address"
        },
        {
          "indexed": false,
          "internalType": "uint256",
          "name": "expected",
          "type": "uint256"
        },
        {
          "indexed": false,
          "internalType": "uint256",
          "name": "actual",
          "type": "uint256"
        }
      ],
      "name": "TeamCountValidationFailed",
      "type": "event"
    },
    {
      "anonymous": false,
      "inputs": [
        {
          "indexed": true,
          "internalType": "address",
          "name": "user",
          "type": "address"
        },
        {
          "indexed": false,
          "internalType": "uint256",
          "name": "ticketId",
          "type": "uint256"
        },
        {
          "indexed": false,
          "internalType": "uint256",
          "name": "amount",
          "type": "uint256"
        }
      ],
      "name": "TicketExpired",
      "type": "event"
    },
    {
      "anonymous": false,
      "inputs": [
        {
          "indexed": false,
          "internalType": "uint256",
          "name": "newDuration",
          "type": "uint256"
        }
      ],
      "name": "TicketFlexibilityDurationUpdated",
      "type": "event"
    },
    {
      "anonymous": false,
      "inputs": [
        {
          "indexed": true,
          "internalType": "address",
          "name": "user",
          "type": "address"
        },
        {
          "indexed": false,
          "internalType": "uint256",
          "name": "amount",
          "type": "uint256"
        },
        {
          "indexed": false,
          "internalType": "uint256",
          "name": "ticketId",
          "type": "uint256"
        }
      ],
      "name": "TicketPurchased",
      "type": "event"
    },
    {
      "anonymous": false,
      "inputs": [
        {
          "indexed": false,
          "internalType": "address",
          "name": "token",
          "type": "address"
        },
        {
          "indexed": false,
          "internalType": "address",
          "name": "to",
          "type": "address"
        },
        {
          "indexed": false,
          "internalType": "uint256",
          "name": "amount",
          "type": "uint256"
        }
      ],
      "name": "TokensRescued",
      "type": "event"
    },
    {
      "anonymous": false,
      "inputs": [
        {
          "indexed": true,
          "internalType": "address",
          "name": "implementation",
          "type": "address"
        }
      ],
      "name": "Upgraded",
      "type": "event"
    },
    {
      "anonymous": false,
      "inputs": [
        {
          "indexed": true,
          "internalType": "address",
          "name": "user",
          "type": "address"
        },
        {
          "indexed": false,
          "internalType": "uint8",
          "name": "field",
          "type": "uint8"
        },
        {
          "indexed": false,
          "internalType": "uint256",
          "name": "value",
          "type": "uint256"
        }
      ],
      "name": "UserDataFieldUpdated",
      "type": "event"
    },
    {
      "anonymous": false,
      "inputs": [
        {
          "indexed": true,
          "internalType": "address",
          "name": "user",
          "type": "address"
        },
        {
          "indexed": false,
          "internalType": "uint256",
          "name": "oldLevel",
          "type": "uint256"
        },
        {
          "indexed": false,
          "internalType": "uint256",
          "name": "newLevel",
          "type": "uint256"
        },
        {
          "indexed": false,
          "internalType": "uint256",
          "name": "teamCount",
          "type": "uint256"
        }
      ],
      "name": "UserLevelChanged",
      "type": "event"
    },
    {
      "anonymous": false,
      "inputs": [
        {
          "indexed": false,
          "internalType": "address",
          "name": "marketing",
          "type": "address"
        },
        {
          "indexed": false,
          "internalType": "address",
          "name": "treasury",
          "type": "address"
        },
        {
          "indexed": false,
          "internalType": "address",
          "name": "lpInjection",
          "type": "address"
        },
        {
          "indexed": false,
          "internalType": "address",
          "name": "buyback",
          "type": "address"
        }
      ],
      "name": "WalletsUpdated",
      "type": "event"
    },
    {
      "inputs": [],
      "name": "MAX_PRICE_IMPACT",
      "outputs": [
        {
          "internalType": "uint256",
          "name": "",
          "type": "uint256"
        }
      ],
      "stateMutability": "view",
      "type": "function"
    },
    {
      "inputs": [],
      "name": "MIN_LIQUIDITY",
      "outputs": [
        {
          "internalType": "uint256",
          "name": "",
          "type": "uint256"
        }
      ],
      "stateMutability": "view",
      "type": "function"
    },
    {
      "inputs": [],
      "name": "REWARD_DIFFERENTIAL",
      "outputs": [
        {
          "internalType": "uint8",
          "name": "",
          "type": "uint8"
        }
      ],
      "stateMutability": "view",
      "type": "function"
    },
    {
      "inputs": [],
      "name": "REWARD_DIRECT",
      "outputs": [
        {
          "internalType": "uint8",
          "name": "",
          "type": "uint8"
        }
      ],
      "stateMutability": "view",
      "type": "function"
    },
    {
      "inputs": [],
      "name": "REWARD_DYNAMIC",
      "outputs": [
        {
          "internalType": "uint8",
          "name": "",
          "type": "uint8"
        }
      ],
      "stateMutability": "view",
      "type": "function"
    },
    {
      "inputs": [],
      "name": "REWARD_LEVEL",
      "outputs": [
        {
          "internalType": "uint8",
          "name": "",
          "type": "uint8"
        }
      ],
      "stateMutability": "view",
      "type": "function"
    },
    {
      "inputs": [],
      "name": "REWARD_STATIC",
      "outputs": [
        {
          "internalType": "uint8",
          "name": "",
          "type": "uint8"
        }
      ],
      "stateMutability": "view",
      "type": "function"
    },
    {
      "inputs": [],
      "name": "SECONDS_IN_UNIT",
      "outputs": [
        {
          "internalType": "uint256",
          "name": "",
          "type": "uint256"
        }
      ],
      "stateMutability": "view",
      "type": "function"
    },
    {
      "inputs": [],
      "name": "UPGRADE_INTERFACE_VERSION",
      "outputs": [
        {
          "internalType": "string",
          "name": "",
          "type": "string"
        }
      ],
      "stateMutability": "view",
      "type": "function"
    },
    {
      "inputs": [
        {
          "internalType": "uint256",
          "name": "mcAmount",
          "type": "uint256"
        },
        {
          "internalType": "uint256",
          "name": "jbcAmount",
          "type": "uint256"
        }
      ],
      "name": "addLiquidity",
      "outputs": [],
      "stateMutability": "nonpayable",
      "type": "function"
    },
    {
      "inputs": [
        {
          "internalType": "address",
          "name": "user",
          "type": "address"
        },
        {
          "internalType": "address",
          "name": "newReferrer",
          "type": "address"
        }
      ],
      "name": "adminSetReferrer",
      "outputs": [],
      "stateMutability": "nonpayable",
      "type": "function"
    },
    {
      "inputs": [
        {
          "internalType": "address",
          "name": "_referrer",
          "type": "address"
        }
      ],
      "name": "bindReferrer",
      "outputs": [],
      "stateMutability": "nonpayable",
      "type": "function"
    },
    {
      "inputs": [
        {
          "internalType": "uint256",
          "name": "amount",
          "type": "uint256"
        }
      ],
      "name": "buyTicket",
      "outputs": [],
      "stateMutability": "nonpayable",
      "type": "function"
    },
    {
      "inputs": [],
      "name": "buybackPercent",
      "outputs": [
        {
          "internalType": "uint256",
          "name": "",
          "type": "uint256"
        }
      ],
      "stateMutability": "view",
      "type": "function"
    },
    {
      "inputs": [],
      "name": "buybackWallet",
      "outputs": [
        {
          "internalType": "address",
          "name": "",
          "type": "address"
        }
      ],
      "stateMutability": "view",
      "type": "function"
    },
    {
      "inputs": [
        {
          "internalType": "uint256",
          "name": "teamCount",
          "type": "uint256"
        }
      ],
      "name": "calculateLevel",
      "outputs": [
        {
          "internalType": "uint256",
          "name": "level",
          "type": "uint256"
        },
        {
          "internalType": "uint256",
          "name": "percent",
          "type": "uint256"
        }
      ],
      "stateMutability": "pure",
      "type": "function"
    },
    {
      "inputs": [],
      "name": "claimRewards",
      "outputs": [],
      "stateMutability": "nonpayable",
      "type": "function"
    },
    {
      "inputs": [],
      "name": "dailyBurn",
      "outputs": [],
      "stateMutability": "nonpayable",
      "type": "function"
    },
    {
      "inputs": [
        {
          "internalType": "address",
          "name": "",
          "type": "address"
        },
        {
          "internalType": "uint256",
          "name": "",
          "type": "uint256"
        }
      ],
      "name": "directReferrals",
      "outputs": [
        {
          "internalType": "address",
          "name": "",
          "type": "address"
        }
      ],
      "stateMutability": "view",
      "type": "function"
    },
    {
      "inputs": [],
      "name": "directRewardPercent",
      "outputs": [
        {
          "internalType": "uint256",
          "name": "",
          "type": "uint256"
        }
      ],
      "stateMutability": "view",
      "type": "function"
    },
    {
      "inputs": [],
      "name": "emergencyPause",
      "outputs": [],
      "stateMutability": "nonpayable",
      "type": "function"
    },
    {
      "inputs": [],
      "name": "emergencyPaused",
      "outputs": [
        {
          "internalType": "bool",
          "name": "",
          "type": "bool"
        }
      ],
      "stateMutability": "view",
      "type": "function"
    },
    {
      "inputs": [],
      "name": "emergencyUnpause",
      "outputs": [],
      "stateMutability": "nonpayable",
      "type": "function"
    },
    {
      "inputs": [
        {
          "internalType": "address",
          "name": "user",
          "type": "address"
        }
      ],
      "name": "getDirectReferrals",
      "outputs": [
        {
          "internalType": "address[]",
          "name": "",
          "type": "address[]"
        }
      ],
      "stateMutability": "view",
      "type": "function"
    },
    {
      "inputs": [
        {
          "internalType": "uint256",
          "name": "activeDirects",
          "type": "uint256"
        }
      ],
      "name": "getLevelRewardLayers",
      "outputs": [
        {
          "internalType": "uint256",
          "name": "",
          "type": "uint256"
        }
      ],
      "stateMutability": "pure",
      "type": "function"
    },
    {
      "inputs": [
        {
          "internalType": "address",
          "name": "user",
          "type": "address"
        }
      ],
      "name": "getUserLevel",
      "outputs": [
        {
          "internalType": "uint256",
          "name": "level",
          "type": "uint256"
        },
        {
          "internalType": "uint256",
          "name": "percent",
          "type": "uint256"
        },
        {
          "internalType": "uint256",
          "name": "teamCount",
          "type": "uint256"
        }
      ],
      "stateMutability": "view",
      "type": "function"
    },
    {
      "inputs": [
        {
          "internalType": "address",
          "name": "_mcToken",
          "type": "address"
        },
        {
          "internalType": "address",
          "name": "_jbcToken",
          "type": "address"
        },
        {
          "internalType": "address",
          "name": "_marketing",
          "type": "address"
        },
        {
          "internalType": "address",
          "name": "_treasury",
          "type": "address"
        },
        {
          "internalType": "address",
          "name": "_lpInjection",
          "type": "address"
        },
        {
          "internalType": "address",
          "name": "_buybackWallet",
          "type": "address"
        }
      ],
      "name": "initialize",
      "outputs": [],
      "stateMutability": "nonpayable",
      "type": "function"
    },
    {
      "inputs": [],
      "name": "jbcToken",
      "outputs": [
        {
          "internalType": "contract IJBC",
          "name": "",
          "type": "address"
        }
      ],
      "stateMutability": "view",
      "type": "function"
    },
    {
      "inputs": [],
      "name": "lastBurnTime",
      "outputs": [
        {
          "internalType": "uint256",
          "name": "",
          "type": "uint256"
        }
      ],
      "stateMutability": "view",
      "type": "function"
    },
    {
      "inputs": [
        {
          "internalType": "uint256",
          "name": "",
          "type": "uint256"
        }
      ],
      "name": "levelConfigs",
      "outputs": [
        {
          "internalType": "uint256",
          "name": "minDirects",
          "type": "uint256"
        },
        {
          "internalType": "uint256",
          "name": "level",
          "type": "uint256"
        },
        {
          "internalType": "uint256",
          "name": "percent",
          "type": "uint256"
        }
      ],
      "stateMutability": "view",
      "type": "function"
    },
    {
      "inputs": [],
      "name": "levelRewardPercent",
      "outputs": [
        {
          "internalType": "uint256",
          "name": "",
          "type": "uint256"
        }
      ],
      "stateMutability": "view",
      "type": "function"
    },
    {
      "inputs": [],
      "name": "levelRewardPool",
      "outputs": [
        {
          "internalType": "uint256",
          "name": "",
          "type": "uint256"
        }
      ],
      "stateMutability": "view",
      "type": "function"
    },
    {
      "inputs": [],
      "name": "liquidityEnabled",
      "outputs": [
        {
          "internalType": "bool",
          "name": "",
          "type": "bool"
        }
      ],
      "stateMutability": "view",
      "type": "function"
    },
    {
      "inputs": [],
      "name": "lpInjectionPercent",
      "outputs": [
        {
          "internalType": "uint256",
          "name": "",
          "type": "uint256"
        }
      ],
      "stateMutability": "view",
      "type": "function"
    },
    {
      "inputs": [],
      "name": "lpInjectionWallet",
      "outputs": [
        {
          "internalType": "address",
          "name": "",
          "type": "address"
        }
      ],
      "stateMutability": "view",
      "type": "function"
    },
    {
      "inputs": [],
      "name": "marketingPercent",
      "outputs": [
        {
          "internalType": "uint256",
          "name": "",
          "type": "uint256"
        }
      ],
      "stateMutability": "view",
      "type": "function"
    },
    {
      "inputs": [],
      "name": "marketingWallet",
      "outputs": [
        {
          "internalType": "address",
          "name": "",
          "type": "address"
        }
      ],
      "stateMutability": "view",
      "type": "function"
    },
    {
      "inputs": [],
      "name": "mcToken",
      "outputs": [
        {
          "internalType": "contract IERC20",
          "name": "",
          "type": "address"
        }
      ],
      "stateMutability": "view",
      "type": "function"
    },
    {
      "inputs": [],
      "name": "nextStakeId",
      "outputs": [
        {
          "internalType": "uint256",
          "name": "",
          "type": "uint256"
        }
      ],
      "stateMutability": "view",
      "type": "function"
    },
    {
      "inputs": [],
      "name": "nextTicketId",
      "outputs": [
        {
          "internalType": "uint256",
          "name": "",
          "type": "uint256"
        }
      ],
      "stateMutability": "view",
      "type": "function"
    },
    {
      "inputs": [],
      "name": "owner",
      "outputs": [
        {
          "internalType": "address",
          "name": "",
          "type": "address"
        }
      ],
      "stateMutability": "view",
      "type": "function"
    },
    {
      "inputs": [],
      "name": "priceOracle",
      "outputs": [
        {
          "internalType": "address",
          "name": "",
          "type": "address"
        }
      ],
      "stateMutability": "view",
      "type": "function"
    },
    {
      "inputs": [],
      "name": "proxiableUUID",
      "outputs": [
        {
          "internalType": "bytes32",
          "name": "",
          "type": "bytes32"
        }
      ],
      "stateMutability": "view",
      "type": "function"
    },
    {
      "inputs": [],
      "name": "redeem",
      "outputs": [],
      "stateMutability": "nonpayable",
      "type": "function"
    },
    {
      "inputs": [],
      "name": "redeemEnabled",
      "outputs": [
        {
          "internalType": "bool",
          "name": "",
          "type": "bool"
        }
      ],
      "stateMutability": "view",
      "type": "function"
    },
    {
      "inputs": [],
      "name": "redemptionFeePercent",
      "outputs": [
        {
          "internalType": "uint256",
          "name": "",
          "type": "uint256"
        }
      ],
      "stateMutability": "view",
      "type": "function"
    },
    {
      "inputs": [],
      "name": "renounceOwnership",
      "outputs": [],
      "stateMutability": "nonpayable",
      "type": "function"
    },
    {
      "inputs": [
        {
          "internalType": "address",
          "name": "_token",
          "type": "address"
        },
        {
          "internalType": "address",
          "name": "_to",
          "type": "address"
        },
        {
          "internalType": "uint256",
          "name": "_amount",
          "type": "uint256"
        }
      ],
      "name": "rescueTokens",
      "outputs": [],
      "stateMutability": "nonpayable",
      "type": "function"
    },
    {
      "inputs": [
        {
          "internalType": "uint256",
          "name": "_direct",
          "type": "uint256"
        },
        {
          "internalType": "uint256",
          "name": "_level",
          "type": "uint256"
        },
        {
          "internalType": "uint256",
          "name": "_marketing",
          "type": "uint256"
        },
        {
          "internalType": "uint256",
          "name": "_buyback",
          "type": "uint256"
        },
        {
          "internalType": "uint256",
          "name": "_lpInjection",
          "type": "uint256"
        },
        {
          "internalType": "uint256",
          "name": "_treasury",
          "type": "uint256"
        }
      ],
      "name": "setDistributionConfig",
      "outputs": [],
      "stateMutability": "nonpayable",
      "type": "function"
    },
    {
      "inputs": [
        {
          "internalType": "bool",
          "name": "_liquidityEnabled",
          "type": "bool"
        },
        {
          "internalType": "bool",
          "name": "_redeemEnabled",
          "type": "bool"
        }
      ],
      "name": "setOperationalStatus",
      "outputs": [],
      "stateMutability": "nonpayable",
      "type": "function"
    },
    {
      "inputs": [
        {
          "internalType": "uint256",
          "name": "_fee",
          "type": "uint256"
        }
      ],
      "name": "setRedemptionFeePercent",
      "outputs": [],
      "stateMutability": "nonpayable",
      "type": "function"
    },
    {
      "inputs": [
        {
          "internalType": "uint256",
          "name": "_buyTax",
          "type": "uint256"
        },
        {
          "internalType": "uint256",
          "name": "_sellTax",
          "type": "uint256"
        }
      ],
      "name": "setSwapTaxes",
      "outputs": [],
      "stateMutability": "nonpayable",
      "type": "function"
    },
    {
      "inputs": [
        {
          "internalType": "uint256",
          "name": "_duration",
          "type": "uint256"
        }
      ],
      "name": "setTicketFlexibilityDuration",
      "outputs": [],
      "stateMutability": "nonpayable",
      "type": "function"
    },
    {
      "inputs": [
        {
          "internalType": "address",
          "name": "_marketing",
          "type": "address"
        },
        {
          "internalType": "address",
          "name": "_treasury",
          "type": "address"
        },
        {
          "internalType": "address",
          "name": "_lpInjection",
          "type": "address"
        },
        {
          "internalType": "address",
          "name": "_buyback",
          "type": "address"
        }
      ],
      "name": "setWallets",
      "outputs": [],
      "stateMutability": "nonpayable",
      "type": "function"
    },
    {
      "inputs": [
        {
          "internalType": "uint256",
          "name": "amount",
          "type": "uint256"
        },
        {
          "internalType": "uint256",
          "name": "cycleDays",
          "type": "uint256"
        }
      ],
      "name": "stakeLiquidity",
      "outputs": [],
      "stateMutability": "nonpayable",
      "type": "function"
    },
    {
      "inputs": [
        {
          "internalType": "uint256",
          "name": "",
          "type": "uint256"
        }
      ],
      "name": "stakeOwner",
      "outputs": [
        {
          "internalType": "address",
          "name": "",
          "type": "address"
        }
      ],
      "stateMutability": "view",
      "type": "function"
    },
    {
      "inputs": [
        {
          "internalType": "uint256",
          "name": "",
          "type": "uint256"
        },
        {
          "internalType": "uint256",
          "name": "",
          "type": "uint256"
        }
      ],
      "name": "stakePendingRewards",
      "outputs": [
        {
          "internalType": "address",
          "name": "upline",
          "type": "address"
        },
        {
          "internalType": "uint256",
          "name": "amount",
          "type": "uint256"
        }
      ],
      "stateMutability": "view",
      "type": "function"
    },
    {
      "inputs": [],
      "name": "swapBuyTax",
      "outputs": [
        {
          "internalType": "uint256",
          "name": "",
          "type": "uint256"
        }
      ],
      "stateMutability": "view",
      "type": "function"
    },
    {
      "inputs": [
        {
          "internalType": "uint256",
          "name": "jbcAmount",
          "type": "uint256"
        }
      ],
      "name": "swapJBCToMC",
      "outputs": [],
      "stateMutability": "nonpayable",
      "type": "function"
    },
    {
      "inputs": [
        {
          "internalType": "uint256",
          "name": "mcAmount",
          "type": "uint256"
        }
      ],
      "name": "swapMCToJBC",
      "outputs": [],
      "stateMutability": "nonpayable",
      "type": "function"
    },
    {
      "inputs": [],
      "name": "swapReserveJBC",
      "outputs": [
        {
          "internalType": "uint256",
          "name": "",
          "type": "uint256"
        }
      ],
      "stateMutability": "view",
      "type": "function"
    },
    {
      "inputs": [],
      "name": "swapReserveMC",
      "outputs": [
        {
          "internalType": "uint256",
          "name": "",
          "type": "uint256"
        }
      ],
      "stateMutability": "view",
      "type": "function"
    },
    {
      "inputs": [],
      "name": "swapSellTax",
      "outputs": [
        {
          "internalType": "uint256",
          "name": "",
          "type": "uint256"
        }
      ],
      "stateMutability": "view",
      "type": "function"
    },
    {
      "inputs": [],
      "name": "ticketFlexibilityDuration",
      "outputs": [
        {
          "internalType": "uint256",
          "name": "",
          "type": "uint256"
        }
      ],
      "stateMutability": "view",
      "type": "function"
    },
    {
      "inputs": [
        {
          "internalType": "uint256",
          "name": "",
          "type": "uint256"
        }
      ],
      "name": "ticketOwner",
      "outputs": [
        {
          "internalType": "address",
          "name": "",
          "type": "address"
        }
      ],
      "stateMutability": "view",
      "type": "function"
    },
    {
      "inputs": [
        {
          "internalType": "uint256",
          "name": "",
          "type": "uint256"
        },
        {
          "internalType": "uint256",
          "name": "",
          "type": "uint256"
        }
      ],
      "name": "ticketPendingRewards",
      "outputs": [
        {
          "internalType": "address",
          "name": "upline",
          "type": "address"
        },
        {
          "internalType": "uint256",
          "name": "amount",
          "type": "uint256"
        }
      ],
      "stateMutability": "view",
      "type": "function"
    },
    {
      "inputs": [
        {
          "internalType": "address",
          "name": "newOwner",
          "type": "address"
        }
      ],
      "name": "transferOwnership",
      "outputs": [],
      "stateMutability": "nonpayable",
      "type": "function"
    },
    {
      "inputs": [],
      "name": "treasuryPercent",
      "outputs": [
        {
          "internalType": "uint256",
          "name": "",
          "type": "uint256"
        }
      ],
      "stateMutability": "view",
      "type": "function"
    },
    {
      "inputs": [],
      "name": "treasuryWallet",
      "outputs": [
        {
          "internalType": "address",
          "name": "",
          "type": "address"
        }
      ],
      "stateMutability": "view",
      "type": "function"
    },
    {
      "inputs": [
        {
          "internalType": "address",
          "name": "newImplementation",
          "type": "address"
        },
        {
          "internalType": "bytes",
          "name": "data",
          "type": "bytes"
        }
      ],
      "name": "upgradeToAndCall",
      "outputs": [],
      "stateMutability": "payable",
      "type": "function"
    },
    {
      "inputs": [
        {
          "internalType": "address",
          "name": "",
          "type": "address"
        }
      ],
      "name": "userInfo",
      "outputs": [
        {
          "internalType": "address",
          "name": "referrer",
          "type": "address"
        },
        {
          "internalType": "uint256",
          "name": "activeDirects",
          "type": "uint256"
        },
        {
          "internalType": "uint256",
          "name": "teamCount",
          "type": "uint256"
        },
        {
          "internalType": "uint256",
          "name": "totalRevenue",
          "type": "uint256"
        },
        {
          "internalType": "uint256",
          "name": "currentCap",
          "type": "uint256"
        },
        {
          "internalType": "bool",
          "name": "isActive",
          "type": "bool"
        },
        {
          "internalType": "uint256",
          "name": "refundFeeAmount",
          "type": "uint256"
        },
        {
          "internalType": "uint256",
          "name": "teamTotalVolume",
          "type": "uint256"
        },
        {
          "internalType": "uint256",
          "name": "teamTotalCap",
          "type": "uint256"
        },
        {
          "internalType": "uint256",
          "name": "maxTicketAmount",
          "type": "uint256"
        },
        {
          "internalType": "uint256",
          "name": "maxSingleTicketAmount",
          "type": "uint256"
        }
      ],
      "stateMutability": "view",
      "type": "function"
    },
    {
      "inputs": [
        {
          "internalType": "address",
          "name": "",
          "type": "address"
        },
        {
          "internalType": "uint256",
          "name": "",
          "type": "uint256"
        }
      ],
      "name": "userStakes",
      "outputs": [
        {
          "internalType": "uint256",
          "name": "id",
          "type": "uint256"
        },
        {
          "internalType": "uint256",
          "name": "amount",
          "type": "uint256"
        },
        {
          "internalType": "uint256",
          "name": "startTime",
          "type": "uint256"
        },
        {
          "internalType": "uint256",
          "name": "cycleDays",
          "type": "uint256"
        },
        {
          "internalType": "bool",
          "name": "active",
          "type": "bool"
        },
        {
          "internalType": "uint256",
          "name": "paid",
          "type": "uint256"
        }
      ],
      "stateMutability": "view",
      "type": "function"
    },
    {
      "inputs": [
        {
          "internalType": "address",
          "name": "",
          "type": "address"
        }
      ],
      "name": "userTicket",
      "outputs": [
        {
          "internalType": "uint256",
          "name": "ticketId",
          "type": "uint256"
        },
        {
          "internalType": "uint256",
          "name": "amount",
          "type": "uint256"
        },
        {
          "internalType": "uint256",
          "name": "purchaseTime",
          "type": "uint256"
        },
        {
          "internalType": "bool",
          "name": "exited",
          "type": "bool"
        }
      ],
      "stateMutability": "view",
      "type": "function"
    },
    {
      "inputs": [
        {
          "internalType": "address",
          "name": "_to",
          "type": "address"
        },
        {
          "internalType": "uint256",
          "name": "_amount",
          "type": "uint256"
        }
      ],
      "name": "withdrawLevelRewardPool",
      "outputs": [],
      "stateMutability": "nonpayable",
      "type": "function"
    },
    {
      "inputs": [
        {
          "internalType": "address",
          "name": "_toMC",
          "type": "address"
        },
        {
          "internalType": "uint256",
          "name": "_amountMC",
          "type": "uint256"
        },
        {
          "internalType": "address",
          "name": "_toJBC",
          "type": "address"
        },
        {
          "internalType": "uint256",
          "name": "_amountJBC",
          "type": "uint256"
        }
      ],
      "name": "withdrawSwapReserves",
      "outputs": [],
      "stateMutability": "nonpayable",
      "type": "function"
    }
  ],
  "bytecode": "0x60a08060405234620000d157306080527ff0c57e16840df040f15088dc2f81fe391c3923bec73e23a9662efc9c229c6a009081549060ff8260401c16620000c257506001600160401b036002600160401b0319828216016200007c575b604051615d909081620000d782396080518181816122f801526126d20152f35b6001600160401b031990911681179091556040519081527fc7f505b2f371ae2175ee4913f4499e1f2633a7b5936321eed1cdaeb6115181d290602090a13880806200005c565b63f92ee8a960e01b8152600490fd5b600080fdfe6080604052600436101561001257600080fd5b6000803560e01c806301d62efb146136ed57806304ef9d58146136cf57806304f618cb1461351557806305ad3935146134ba5780630a5c4567146132565780630e2be2101461323a5780631427f6161461321e5780631788513c146131f5578063182c84cc146131ce5780631959a0021461311c5780631d0dac76146130fe57806321923bde146130af57806321b77d631461308b57806321f483d3146130435780632630c12f1461301657806327c830a914612ff357806327f082f414612fd5578063372500ab14612fb45780633dbd46bd14612f815780634626402b14612f58578063488b5d9714612f3c5780634a4e3bd514612ef25780634ea4c6b31461288a5780634f1ef2861461265757806351858e271461260a57806352778b051461235057806352d1902d146122e55780636031a52f146122c757806367dd74ca14611a965780636839b5fa14611a795780636dd6682714611a5b578063715018a614611a0257806375506c96146119e457806375f0a874146119bb57806377a2a5401461199d578063813380cd1461196f57806381eeef5c1461186857806383672f3e146117705780638710bcaa1461170f57806388481b61146116f357806388fd4d33146116ca5780638a859a85146116ae5780638c0eaa48146116925780638da5cb5b1461165c57806390b0eb511461160c5780639370b080146115ee57806395253992146115c757806399b6024d146115015780639cd441da1461135e5780639d99eca414611310578063a2af9226146112dd578063ac8f50aa14611289578063ad3cb1cc14611247578063b048a4bb14611224578063b5d5b5fa14611196578063b759936b14611178578063bd594dcf1461115a578063be040fb014610b03578063c2ff12fc14610ad0578063cc2a9a5b146108bd578063ccf619441461089f578063cea9d26f146107a3578063ceaa366d14610785578063d0f16470146106fb578063d2c8e0e51461064c578063d2f8253614610626578063d4f001421461049f578063d8020a1814610481578063dce3dc1f14610456578063deab8aea1461042d578063dec7fa3b1461040f578063e3067449146103f1578063e4412f68146103d3578063ece71266146103855763f2fde38b1461035657600080fd5b346103825760203660031901126103825761037f610372613794565b61037a6143a4565b614342565b80f35b80fd5b5034610382576020366003190112610382577fc7f6975dcffc536e6e57dd1d1dea810fff534a70563baf2d6f977b119bd00e1b60206004356103c56143a4565b80600c55604051908152a180f35b50346103825780600319360112610382576020600954604051908152f35b50346103825780600319360112610382576020601b54604051908152f35b50346103825780600319360112610382576020600c54604051908152f35b50346103825780600319360112610382576005546040516001600160a01b039091168152602090f35b503461038257602036600319011261038257604061047560043561440d565b82519182526020820152f35b50346103825780600319360112610382576020600854604051908152f35b5034610382576080366003190112610382576104b9613794565b602435906104c56137c0565b82606435926104d26143a4565b816105a8575b505081610502575b50600080516020615c3b8339815191529160409182519182526020820152a180f35b916020826105429461051682601854613a3c565b60185560018060a01b0360015416908760405180988195829463a9059cbb60e01b8452600484016138e9565b03925af191821561059d57600080516020615c3b8339815191529360409361056e575b509150916104e0565b61058f9060203d602011610596575b610587818361388f565b8101906139ac565b5038610565565b503d61057d565b6040513d86823e3d90fd5b816020916105bb6105e694601754613a3c565b60175560018060a01b03885416908860405180968195829463a9059cbb60e01b8452600484016138e9565b03925af1801561061b576105fc575b83906104d8565b6106149060203d60201161059657610587818361388f565b50386105f5565b6040513d87823e3d90fd5b5034610382578060031936011261038257602060ff60165460081c166040519015158152f35b50346103825760209081600319360112610382576001600160a01b03919082610673613794565b168152601282526040812090604051808484549182815201908194845285842090845b8181106106e557505050816106ac91038261388f565b6040519380850191818652518092526040850193925b8281106106cf5785850386f35b83518716855293810193928101926001016106c2565b8254891684529287019260019283019201610696565b50346103825760c0366003190112610382577f66682b276e4cd1a4e1f68b55b1143766c5332f472eb593cf2a70a25d9d5d991760c060043560a43560843560643560443560243561074a6143a4565b8560065580600755816008558260095583600a5584600b55604051958652602086015260408501526060840152608083015260a0820152a180f35b50346103825780600319360112610382576020600a54604051908152f35b5034610382576060366003190112610382576107bd613794565b6107c56137aa565b604435916107d16143a4565b83546001600160a01b038281169491811685148015610892575b61088057831615610880576020604051809563a9059cbb60e01b8252818881610818878a600484016138e9565b03925af190811561061b577f77023e19c7343ad491fd706c36335ca0e738340a91f29b1fd81e2673d44896c49461085b92610861575b50604051938493846139c4565b0390a180f35b6108799060203d60201161059657610587818361388f565b503861084e565b60405163e6c4247b60e01b8152600490fd5b50806001541685146107eb565b50346103825780600319360112610382576020600654604051908152f35b50346103825760c0366003190112610382576108d7613794565b6108df6137aa565b6108e76137c0565b6108ef6137d6565b916001600160a01b0360843581811690819003610acb5760a43592828416809403610acb57600080516020615d3b83398151915295865460ff8160401c16159660018060401b038216998a1580610ac4575b6001809c149081610aba575b159081610ab1575b50610a9f576001600160401b031983168b178a558694859384928e918c610a84575b50610980615a47565b610988615a47565b61099133614342565b610999615a47565b6109a1615a47565b6109a9615a47565b8d600080516020615cfb8339815191525560018060a01b0319998a9116915416178d5516868b5416178a55168460025416176002551682600354161760035581600454161760045560055416176005556019600655600f600755600560085560056009556019600a556019600b5582600c556032600d556019600e556203f48060155561010161ffff19601654161760165542601b55610a47578280f35b805460ff60401b191690556040519081527fc7f505b2f371ae2175ee4913f4499e1f2633a7b5936321eed1cdaeb6115181d290602090a138808280f35b6001600160481b0319166001600160401b01178d5538610977565b60405163f92ee8a960e01b8152600490fd5b90501538610955565b303b15915061094d565b5088610941565b600080fd5b5034610382576020366003190112610382576020906004358152601c8252604060018060a01b0391205416604051908152f35b5034610382578060031936011261038257610b1c6143dd565b60ff8060165460081c16156111495733825260119160206011815260408220938283908492855b8854811015610cca57876004610b59838c61394d565b5001541615610cc2576002610b6e828b61394d565b5001546003610b7d838c61394d565b50015490603c91828102928184041490151715610cae5790610b9e91613a0f565b421015610bb0575b6001905b01610b43565b809293610bbd828b61394d565b50610bc7906144bc565b9586610bd291613a0f565b95610bdd838c61394d565b5060050190815490610bee91613a0f565b9055338852600f87526040882060090154908a89898415956064610c29610c559760019995610c30958b97610c9a575b5050600c54906139e6565b049361394d565b50015481811115610c875790610c4981610c4f93613a3c565b92613a0f565b95613a0f565b926004610c62828c61394d565b5001805460ff19169055610c80610c79828c61394d565b505461459b565b9050610ba6565b9050610c9291613a0f565b948890613a0f565b879250906010604092522001548f8f610c1e565b634e487b7160e01b89526004849052602489fd5b600190610baa565b5050909291811590818092611141575b61112f578461111b575b80610dbe575b5015610d57575b600f9260405191825282820152600080516020615d1b83398151915260403392a2610d1b33614b8a565b3383525260408120600460038201549101541115610d49575b6001600080516020615cfb8339815191525580f35b610d5233614769565b610d34565b835460405163a9059cbb60e01b81529390839085906001600160a01b0316818881610d868833600484016138e9565b03925af193841561061b57600f94610da1575b509250610cf1565b610db790843d861161059657610587818361388f565b5085610d99565b338652600f8452610ddc604087206003600482015491015490613a3c565b8082116110f5575b508015610cea57338652600f845260036040872001610e04828254613a0f565b905585546040516370a0823160e01b808252306004830152889390926001600160a01b0392600183901c918416908981602481855afa80156110ea5783918d916110b9575b501015806110b0575b61104c575b5060185480158015611038575b15610ff75750670de0b6b3a7640000905b670de0b6b3a764000090818102918183041490151715610fe35790610e9991613a1c565b899260015416936040519081523060048201528881602481885afa8015610fd85782918c91610fa7575b50101580610f9e575b610f2a575b50600080516020615bbb8339815191529250604051908152600087820152600080516020615cdb83398151915260403392a233885260108652604088205490610f21604051928392339684613a79565b0390a285610cea565b90915086604051809463a9059cbb60e01b8252818c81610f4e8733600484016138e9565b03925af1928315610f9357600080516020615bbb83398151915293610f76575b509089610ed1565b610f8c90883d8a1161059657610587818361388f565b5089610f6e565b6040513d8b823e3d90fd5b50801515610ecc565b8092508a8092503d8311610fd1575b610fc0818361388f565b81010312610acb578190518c610ec3565b503d610fb6565b6040513d8d823e3d90fd5b634e487b7160e01b8b52601160045260248bfd5b601754670de0b6b3a764000090818102918183041490151715611024579061101e91613a1c565b90610e75565b634e487b7160e01b8c52601160045260248cfd5b50683635c9adc5dea0000060175410610e64565b60405163a9059cbb60e01b815291955088908290818d816110718b33600484016138e9565b03925af180156110a557611088575b50838a610e57565b61109e90883d8a1161059657610587818361388f565b5089611080565b6040513d8c823e3d90fd5b50811515610e52565b8092508b8092503d83116110e3575b6110d2818361388f565b81010312610acb578290518d610e49565b503d6110c8565b6040513d8e823e3d90fd5b906040519081528185820152600080516020615c1b83398151915260403392a286610de4565b61112785601754613a0f565b601755610ce4565b6040516304c4857b60e51b8152600490fd5b508015610cda565b6040516282b42960e81b8152600490fd5b50346103825780600319360112610382576020600754604051908152f35b50346103825780600319360112610382576020601f54604051908152f35b5034610382576040366003190112610382576111b0613794565b6001600160a01b03168152601160205260408120805460243592908310156103825760c06111de848461394d565b508054906001810154906002810154600382015490600560ff600485015416930154936040519586526020860152604085015260608401521515608083015260a0820152f35b5034610382578060031936011261038257602060ff601654166040519015158152f35b503461038257806003193601126103825761128560405161126781613859565b60058152640352e302e360dc1b602082015260405191829182613904565b0390f35b50346103825761129836613830565b908252601d6020526040822080548210156112d9576112b792506138cd565b508054600190910154604051918291611285916001600160a01b0316836138e9565b8280fd5b50346103825760403660031901126103825761037f6112fa613794565b6113026137aa565b9061130b6143a4565b61404e565b5034610382576020366003190112610382577fd28d9e4ce68d89af7920cb8618e342a78f51e545c530ce60f1cb1d6f0235b47f60206004356113506143a4565b80601555604051908152a180f35b50346103825761136d36613830565b6113756143a4565b81611486575b806113a2575b600080516020615b7b8339815191529160409182519182526020820152a180f35b6001546040516323b872dd60e01b81529060209082906001600160a01b03168187816113d3883033600485016139c4565b03925af19081611467575b5061143c576113eb613fbf565b6308c379a014611408575b6040516320a9b82760e21b8152600490fd5b611410613fdd565b8061141b57506113f6565b6040516387a26b7560e01b81529081906114389060048301613904565b0390fd5b600080516020615b7b833981519152918161145b604093601854613a0f565b60185591509150611381565b61147f9060203d60201161059657610587818361388f565b50386113de565b82546040516323b872dd60e01b81529060209082906001600160a01b03168187816114b6893033600485016139c4565b03925af190816114e2575b506114ce576113eb613fbf565b6114da82601754613a0f565b60175561137b565b6114fa9060203d60201161059657610587818361388f565b50386114c1565b50346103825760403660031901126103825761151b613794565b602435906115276143a4565b61153382601f54613a3c565b601f55825460405163a9059cbb60e01b815291906001600160a01b0390602090849083168188816115688a89600484016138e9565b03925af191821561061b577f27971ee1acbfbdfb20656657ceb2e0e7b519b9e60fe1a6b1f6d27b159f4a607c936020936115aa575b506040519485521692a280f35b6115c090843d861161059657610587818361388f565b503861159d565b5034610382578060031936011261038257546040516001600160a01b039091168152602090f35b50346103825780600319360112610382576020600e54604051908152f35b5034610382577f4e9dd03193a0c81552fb8e6d32280f0d7e0ce8087241dc3d17ef3d193ee231d7604061163e36613830565b6116466143a4565b81600d5580600e5582519182526020820152a180f35b5034610382578060031936011261038257600080516020615bdb833981519152546040516001600160a01b039091168152602090f35b5034610382578060031936011261038257602060405160038152f35b5034610382578060031936011261038257602060405160018152f35b50346103825780600319360112610382576004546040516001600160a01b039091168152602090f35b5034610382578060031936011261038257602060405160048152f35b5034610382576020366003190112610382576080906040906001600160a01b03611737613794565b16815260106020522080549060018101549060ff6003600283015492015416916040519384526020840152604083015215156060820152f35b50346103825760803660031901126103825761178a613794565b6117926137aa565b9061179b6137c0565b916117a46137d6565b906117ad6143a4565b6001600160a01b03928316918215801561185e575b8015611854575b801561184a575b610880577f213f1de8063c19612a553f1480ff341bea689d36a56a2089f1b9060d599b5d8394848060809660018060a01b031995878760025416176002551692838660035416176003551692838560045416176004551680936005541617600555604051938452602084015260408301526060820152a180f35b50838116156117d0565b50838516156117c9565b50838216156117c2565b5034610382578060031936011261038257601b5462015180810180911161195b574210611949576018548015611937576064810490811561193757816118ad91613a3c565b60185560015482906001600160a01b0316803b1561192857818091602460405180948193630852cd8d60e31b83528860048401525af1801561192c57611914575b50600080516020615c7b83398151915260408342601b558151908482526020820152a180f35b61191d90613846565b6119285781386118ee565b5080fd5b6040513d84823e3d90fd5b60405163162908e360e11b8152600490fd5b604051636f47a98b60e11b8152600490fd5b634e487b7160e01b82526011600452602482fd5b50346103825761197e36613830565b90825260136020526040822080548210156112d9576112b792506138cd565b50346103825780600319360112610382576020601754604051908152f35b50346103825780600319360112610382576002546040516001600160a01b039091168152602090f35b50346103825780600319360112610382576020601a54604051908152f35b5034610382578060031936011261038257611a1b6143a4565b600080516020615bdb83398151915280546001600160a01b031981169091556000906001600160a01b0316600080516020615c9b8339815191528280a380f35b50346103825780600319360112610382576020601554604051908152f35b503461038257806003193601126103825760206040516103e88152f35b503461038257602036600319011261038257611ab06143dd565b60ff604f54166122b557611ac333614c34565b68056bc75e2d631000006004351415806122a0575b8061228b575b80612276575b6119375780546040516323b872dd60e01b81529060209082906001600160a01b0316818581611b1c60048035903090339085016139c4565b03925af1801561192c57612257575b5033815260106020526040812060038101805460ff161561217c57611b51601954613fb0565b806019558255600435600183015542600283015560ff198154169055338252600f602052816003604082200155600360043502600435810460031460043515171561216857338352600f60205260046040842001555b600a6001820154338452600f60205260408420906009820180548211612160575b505001805460043511612155575b5080548252601c6020908152604080842080546001600160a01b031916339081179091558452600f9091528220546001600160a01b031680151580612141575b156120b557611c356064611c2e6006546004356139e6565b0482614e00565b9081612080575b50505b338252600f6020526040822054829182916001600160a01b03169082906004358015908004600114171561206c579394915b6001600160a01b03811680151580612062575b80612058575b15611d97578452600f6020526040842060ff60058201541615611d7857506001600160a01b0381168452600f60205260408420600101548390611ccc90613a49565b11611d08575b6001600160a01b039081168452600f60205260408420541691611cfe90611cf890613fb0565b95613fb0565b935b939491611c71565b611d1760646004350482615004565b80611d23575b50611cd2565b9182611d2e91613a0f565b91338552601060205260408520546040519182528560208301526003604083015260608201523390600080516020615b9b833981519152608060018060a01b03851692a338611d1d565b5492956001600160a01b0390931692611d919150613fb0565b93611d00565b848684611db66007916064611db06007546004356139e6565b04613a3c565b80612013575b508260018060a01b038154166020611e0860018060a01b0360025416926064611de96008546004356139e6565b0460405195868094819363a9059cbb60e01b98898452600484016138e9565b03925af191821561061b57611e7692611ff4575b50611e366064611e306009546004356139e6565b046157d7565b845460048054600a546020936001600160a01b0392831693921691606491611e5e91356139e6565b049188604051809781958294898452600484016138e9565b03925af190811561061b57611ecb92602092611fd7575b5060018060a01b0386541660018060a01b0360035416876064611eb4600b546004356139e6565b0493604051968795869485938452600484016138e9565b03925af1801561059d57611fb8575b50336000908152600f60205260408120549092600435151592916001600160a01b03165b6001600160a01b031680151580611fae575b15611f5957600052600f602052611f3c83604060002090611f42575b546001600160a01b031694613fb0565b93611efe565b838101611f526004358254613a0f565b9055611f2c565b8582611f6433614b8a565b5460405190600435825260208201527f2a91574e12ad96234e84923e146b0946ecfb871cd8d5534dc1fdcbe87a7c01b360403392a26001600080516020615cfb8339815191525580f35b50601e8510611f10565b611fd09060203d60201161059657610587818361388f565b5083611eda565b611fed90833d851161059657610587818361388f565b5086611e8d565b61200c9060203d60201161059657610587818361388f565b5085611e1c565b6040816120437fca2e2bff26d2adb9fe155e9265350494c16751676879cb7ced9141e0fcf3934393601f54613a0f565b80601f5582519182526020820152a183611dbc565b5060148710611c8a565b50600f8410611c84565b634e487b7160e01b84526011600452602484fd5b8254604051928352846020840152600260408401526060830152600080516020615b9b83398151915260803393a33880611c3c565b508154600254600654612102926020926001600160a01b03908116929116906064906120e3906004356139e6565b04918660405180968195829463a9059cbb60e01b8452600484016138e9565b03925af1801561213657612117575b50611c3f565b61212f9060203d60201161059657610587818361388f565b5038612111565b6040513d85823e3d90fd5b5080835260ff600560408520015416611c16565b600435905538611bd6565b553880611bc8565b634e487b7160e01b83526011600452602483fd5b600182018054806121ea5750612193601954613fb0565b806019558355600435905542600283015560ff198154169055338252600f602052816003604082200155600360043502600435810460031460043515171561216857338352600f6020526004604084200155611ba7565b6121f991925060043590613a0f565b9055338252600f60205260ff60056040842001541661224c575b600360043502600435810460031460043515171561216857338352600f60205261224560046040852001918254613a0f565b9055611ba7565b426002820155612213565b61226f9060203d60201161059657610587818361388f565b5038611b2b565b50683635c9adc5dea000006004351415611ae4565b50681b1ae4d6e2ef5000006004351415611ade565b50681043561a88293000006004351415611ad8565b60405163ab35696f60e01b8152600490fd5b50346103825780600319360112610382576020601954604051908152f35b50346103825780600319360112610382577f00000000000000000000000000000000000000000000000000000000000000006001600160a01b0316300361233e576020604051600080516020615bfb8339815191528152f35b60405163703e46dd60e11b8152600490fd5b503461038257602080600319360112611928576004359061236f6143dd565b60ff604f54166122b557811561193757683635c9adc5dea0000080601754109081156125fe575b50612572576001546040516323b872dd60e01b81526001600160a01b03918390829084168188816123cc8a3033600485016139c4565b03925af1801561061b576125e1575b5060646123ea600e54856139e6565b04906123f68285613a3c565b926127108085029085820414851517156125cd5761241a6103e89160185490613a1c565b1161193757858260015416803b1561192857818091602460405180948193630852cd8d60e31b83528a60048401525af1801561192c576125b5575b50506017549361246585826139e6565b9061247d601854926124778385613a0f565b90613a1c565b93885416956040516370a0823160e01b815230600482015284816024818b5afa80156110a55786918b91612584575b5010612572576124c085926124c894613a0f565b601855613a3c565b60175580604051809563a9059cbb60e01b82528189816124ec8833600484016138e9565b03925af1938415612567577f223c8ad0806f634524940a8595f819c5cfc7b1f4f4f45791269301df0a7e61d594612549575b505061253160405192839233968461381a565b0390a26001600080516020615cfb8339815191525580f35b8161255f92903d1061059657610587818361388f565b50388061251e565b6040513d88823e3d90fd5b6040516343c7ad8160e11b8152600490fd5b809250868092503d83116125ae575b61259d818361388f565b81010312610acb57859051386124ac565b503d612593565b6125be90613846565b6125c9578538612455565b8580fd5b634e487b7160e01b87526011600452602487fd5b6125f790833d851161059657610587818361388f565b50386123db565b90506018541038612396565b50346103825780600319360112610382576126236143a4565b600160ff19604f541617604f557f4cb3183d0bf66f9634b15cfc3539fdddc96c2c9324848af89b56586a6739fec48180a180f35b5060403660031901126103825761266c613794565b60249182356001600160401b0381116119285736602382011215611928578060040135612698816138b2565b936126a6604051958661388f565b81855260209182860193368883830101116125c957818692898693018737870101526001600160a01b037f0000000000000000000000000000000000000000000000000000000000000000811630811490811561286e575b5061233e5761270b6143a4565b8116946040516352d1902d60e01b815283816004818a5afa86918161283b575b5061274857604051634c9c8ce360e01b8152600481018890528890fd5b869088600080516020615bfb833981519152918281036128265750843b15612810575080546001600160a01b031916821790556040518692917fbc7cd75a20ee27fd9adebab32041f755214dbc6bffa90cc0225b39da2e5c2d3b8480a28151156127f257506127e59482915190845af4903d156127e9573d6127c9816138b2565b906127d7604051928361388f565b81528581943d92013e615ad6565b5080f35b60609250615ad6565b94505050505034612801575080f35b63b398979f60e01b8152600490fd5b604051634c9c8ce360e01b815260048101849052fd5b60405190632a87526960e21b82526004820152fd5b9091508481813d8311612867575b612853818361388f565b810103126128635751903861272b565b8680fd5b503d612849565b905081600080516020615bfb83398151915254161415386126fe565b50346103825761289936613830565b91906128a36143dd565b60ff604f54166122b557338252601060205260408220600181015415612ee05760ff600382015416612ece57600784141580612ec3575b80612eb8575b612ea65781156119375782546040516323b872dd60e01b81529060209082906001600160a01b031681878161291a893033600485016139c4565b03925af1801561059d57612e87575b50612935601a54613fb0565b601a8190553384526011602052604080852090519160c083016001600160401b03811184821017612e71576040528252836020830152426040830152856060830152600160808301528460a0830152805490600160401b821015612e5d57906129a39160018201815561394d565b919091612e495760a0816005925184556020810151600185015560408101516002850155606081015160038501556129f060808201511515600486019060ff801983541691151516179055565b0151910155601a548352601e602052604083203360018060a01b0319825416179055338352600f602052600a60408420018054918215612e38575b50506096810290808204609614901517156121685760649004810361193757612a5333614b8a565b601a54927fa8a1b9e33e503eed12bf7e7c8c01c7f3b60217a496bddd0f5db351dd8c056c1c60405180612a89873395878461381a565b0390a2338252600f6020526040822054829081906001600160a01b03165b6001600160a01b038116151580612e2e575b15612e23576001600160a01b0381168552600f60205260408520600581015460ff1615612e0e57506001600160a01b03811685526010602052604085206001810154908115908115612dff575b50612dda576001600160a01b0382168652600f6020526040862060020154612b2d9061440d565b919050838211612cd2575b50602d1115612b6c576001600160a01b039081168552600f60205260408520541691612b6390613fb0565b925b9291612aa7565b5050505090505b338152600f602052600660408220018181549182612ba2575b506001600080516020615cfb8339815191525580f35b556017548181101580612c5a575b612bbc575b8290612b8c565b81612bc691613a3c565b601755815460405163a9059cbb60e01b81529060209082906001600160a01b0316818681612bf88833600484016138e9565b03925af1801561213657612c3b575b506040519081527f3437b9ea7fa19c6d233dd70cc787a70fab87cee64d8ba4571512cc84402748f960203392a23880612bb5565b612c539060203d60201161059657610587818361388f565b5038612c07565b5082546040516370a0823160e01b815230600482015290602090829060249082906001600160a01b03165afa801561059d5783918591612c9d575b501015612bb0565b9150506020813d602011612cca575b81612cb96020938361388f565b81010312610acb5782905138612c95565b3d9150612cac565b612cf490612ce38395606494613a3c565b908790808911612dd2575b506139e6565b04868652601d6020526040862060405190612d0e82613859565b6001600160a01b038416825260208201839052805490600160401b821015612dbe5790612d40916001820181556138cd565b919091612daa57805182546001600160a01b0319166001600160a01b03918216178355602091820151600193909301929092556040519283529083169188917f7c6505ab8279235ad21ebf427336cc8d97c017b4aa1f10ffdff11d3261e4934e91a381602d612b38565b634e487b7160e01b88526004889052602488fd5b634e487b7160e01b89526041600452602489fd5b905038612cee565b5050600f60205260408420546001600160a01b031691612df990613fb0565b92612b65565b60ff9150600301541638612b06565b546001600160a01b031692612df99150613fb0565b505050509050612b73565b5060148310612ab9565b600191925001548091553880612a2b565b634e487b7160e01b85526004859052602485fd5b634e487b7160e01b86526041600452602486fd5b634e487b7160e01b600052604160045260246000fd5b612e9f9060203d60201161059657610587818361388f565b5038612929565b604051634dc7f5ff60e11b8152600490fd5b50601e8414156128e0565b50600f8414156128da565b604051631ecb2c4f60e31b8152600490fd5b604051634065aaf160e11b8152600490fd5b5034610382578060031936011261038257612f0b6143a4565b60ff19604f5416604f557f15de7ad89d29fd1c6d2e6b1e878453569b4080edf34e0105faaa3bd52f0185308180a180f35b50346103825780600319360112610382576020604051603c8152f35b50346103825780600319360112610382576003546040516001600160a01b039091168152602090f35b5034610382576020366003190112610382576020906004358152601e8252604060018060a01b0391205416604051908152f35b5034610382578060031936011261038257612fcd6143dd565b610d34613a96565b50346103825780600319360112610382576020600d54604051908152f35b5034610382578060031936011261038257602060ff604f54166040519015158152f35b5034610382578060031936011261038257604f5460405160089190911c6001600160a01b03168152602090f35b5034610382576020366003190112610382576004359060145482101561038257602081601460039352209102018054611285600260018401549301546040519384938461381a565b50346103825780600319360112610382576020604051683635c9adc5dea000008152f35b503461038257602036600319011261038257611285906002906040906001600160a01b036130db613794565b168152600f6020522001546130ef8161440d565b9290916040519384938461381a565b50346103825780600319360112610382576020601854604051908152f35b503461038257602036600319011261038257610160906001600160a01b039060409082613147613794565b168152600f60205220908154169060018101549060028101546003820154600483015460ff600585015416600685015491600786015493600887015495600a6009890154980154986040519a8b5260208b015260408a015260608901526080880152151560a087015260c086015260e0850152610100840152610120830152610140820152f35b50346103825760203660031901126103825760206131ed600435613a49565b604051908152f35b50346103825780600319360112610382576001546040516001600160a01b039091168152602090f35b5034610382578060031936011261038257602090604051908152f35b5034610382578060031936011261038257602060405160028152f35b50346103825760208060031936011261192857600435906132756143dd565b60ff604f54166122b557811561193757683635c9adc5dea0000080601754109081156134ae575b506125725782546040516323b872dd60e01b81526001600160a01b03918390829084168188816132d18a3033600485016139c4565b03925af1801561061b57613491575b50601854906132ef82856139e6565b90613301601754926124778785613a0f565b92612710860261270f198782040161347d57613320846103e892613a1c565b11611937576064613333600d54866139e6565b049361333f8582613a3c565b938360015416916040516370a0823160e01b81523060048201528881602481875afa8015610fd85782918c91613448575b50106125725789936133858a61338d94613a0f565b601755613a3c565b601855803b15611928578190602460405180948193630852cd8d60e31b83528960048401525af1801561343d5761342a575b50600154169280604051809563a9059cbb60e01b82528189816133e68833600484016138e9565b03925af1938415612567577f36864aeefce16bc4aaceeb6b0cdfb2ad1455a8cb4ccb0db148a2bc6e7166f97c9461254957505061253160405192839233968461381a565b61343690969196613846565b94386133bf565b6040513d89823e3d90fd5b8092508a8092503d8311613476575b613461818361388f565b810103126134725781905138613370565b8a80fd5b503d613457565b634e487b7160e01b88526011600452602488fd5b6134a790833d851161059657610587818361388f565b50386132e0565b9050601854103861329c565b5034610382576040366003190112610382576134d4613794565b6001600160a01b039081168252601260205260408220805460243593908410156103825750602092613505916137ec565b9190546040519260031b1c168152f35b5034610382576020908160031936011261038257613531613794565b338252600f808452604083205490926001600160a01b0392909183166136bd5782163381146136ab5780156108805733808352600f8652604080842080546001600160a01b031916841790558284526012875283206135909190613969565b338252600f855282604083205416938383955b16801515806136a1575b15613677578084528187526040842090600282018054600181019182821161347d5792826136148a9693837fa0eea20e678cb42233c1c456c84cedce7ea53fa360bb71bf3b761b76095677708f6040908b996136349b5586825191868352820152a261440d565b5061361e8261440d565b509080820361363a575b50505050541696613fb0565b956135a3565b61366b7fea8384d3ca7bf5b7510d3faee44a3774406c1fd3ac14fff110a8c98d47a25956936040519384938461381a565b0390a238808080613628565b5050337fa6dbb5aa28f35437de94d685d66edce5fb4812196b4984b91dfd5a7b38c0fb308380a380f35b50601e86106135ad565b604051631acade8960e31b8152600490fd5b60405163682a906560e01b8152600490fd5b50346103825780600319360112610382576020600b54604051908152f35b50346103825760403660031901126103825760043580151580910361192857602435908115158092036112d9577f03cb373f89de891077fe47cec43663b6727713de0337af46bebd1178122251b7917fb886fcb5b9c12916f26d967ebe962dbd51ec249fb55961da39c851cdfc10115c602080936137696143a4565b6016805461ffff191660ff831617600886901b61ff0016179055604051908152a1604051908152a180f35b600435906001600160a01b0382168203610acb57565b602435906001600160a01b0382168203610acb57565b604435906001600160a01b0382168203610acb57565b606435906001600160a01b0382168203610acb57565b80548210156138045760005260206000200190600090565b634e487b7160e01b600052603260045260246000fd5b6040919493926060820195825260208201520152565b6040906003190112610acb576004359060243590565b6001600160401b038111612e7157604052565b604081019081106001600160401b03821117612e7157604052565b606081019081106001600160401b03821117612e7157604052565b601f909101601f19168101906001600160401b03821190821017612e7157604052565b6001600160401b038111612e7157601f01601f191660200190565b80548210156138045760005260206000209060011b0190600090565b6001600160a01b039091168152602081019190915260400190565b6020808252825181830181905290939260005b82811061393957505060409293506000838284010152601f8019910116010190565b818101860151848201604001528501613917565b8054821015613804576000526006602060002091020190600090565b80549190600160401b831015612e71578261398c9160016139aa950181556137ec565b90919060018060a01b038084549260031b9316831b921b1916179055565b565b90816020910312610acb57518015158103610acb5790565b6001600160a01b03918216815291166020820152604081019190915260600190565b818102929181159184041417156139f957565b634e487b7160e01b600052601160045260246000fd5b919082018092116139f957565b8115613a26570490565b634e487b7160e01b600052601260045260246000fd5b919082039182116139f957565b6003811015613a73576002811015613a6d5760011115613a6857600090565b600590565b50600a90565b50600f90565b606091949392608082019582526020820152600060408201520152565b60003381526020906010825260409081812092600180850154158015613fa2575b613f9157338352601180835284842084929183835b613e7e575b505050508015613e6d57338352600f8252613af28160038686200154613a0f565b94338452600f83528484209560049687810154809211613e55575b50508115613e4657338452600f8352600385852001613b2d838254613a0f565b9055835485516370a0823160e01b808252308983015286946001600160a01b0394939092600184901c918616908881602481855afa908115613e3c5789929184918c91613e04575b50101580613dfb575b613d97575b505060185480158015613d83575b15613d435750670de0b6b3a7640000905b670de0b6b3a764000090818102918183041490151715613d305790613bc691613a1c565b90879460015416908951908152308b8201528781602481855afa908115613d26579083918a91613cf1575b50101580613ce8575b613c67575b505091600080516020615bbb83398151915291600f95949388519081528786820152600080516020615cdb833981519152893392a25490613c468851928392339684613a79565b0390a2338352522060038101549101541115613c5e57565b6139aa33614769565b81613c8e9293955087918b8a8c5180968195829463a9059cbb60e01b8452339084016138e9565b03925af18015613cde5791600080516020615bbb8339815191529391600f97969593613cc1575b50939495819350613bff565b613cd790873d891161059657610587818361388f565b5038613cb5565b88513d89823e3d90fd5b50811515613bfa565b809250898092503d8311613d1f575b613d0a818361388f565b81010312613d1b5782905138613bf1565b8880fd5b503d613d00565b8a513d8b823e3d90fd5b634e487b7160e01b895260118b52602489fd5b601754670de0b6b3a764000090818102918183041490151715613d705790613d6a91613a1c565b90613ba2565b634e487b7160e01b8a5260118c5260248afd5b50683635c9adc5dea0000060175410613b91565b82975091613dbc928c8b8d5180968195829463a9059cbb60e01b8452339084016138e9565b03925af18015613df157613dd4575b50848638613b83565b613dea90873d891161059657610587818361388f565b5038613dcb565b89513d8a823e3d90fd5b50821515613b7e565b92938092508391503d8311613e35575b613e1e818361388f565b81010312613e3157908289925138613b75565b8980fd5b503d613e14565b8b513d8c823e3d90fd5b5050505050506139aa33614769565b613e659293506003015490613a3c565b903880613b0d565b8351630fec21fd60e21b8152600490fd5b8254811015613f8c57613e91818461394d565b508460ff6004809301541615613f815750613eb5613eaf838661394d565b506144bc565b9081613ecd575b505090838093925b01909192613acc565b909586613ed991613a0f565b95613ef36005613ee9858861394d565b5001918254613a0f565b90556002613f01838661394d565b5001546003613f10848761394d565b50015490603c91828102928184041490151715613f6f5791613f3787969594928794613a0f565b421015613f48575b50919293613ebc565b613f52828661394d565b5001805460ff19169055613f69610c79828661394d565b38613f3f565b634e487b7160e01b8a5284835260248afd5b939291849150613ec4565b613ad1565b8351634065aaf160e11b8152600490fd5b5060ff600386015416613ab7565b60001981146139f95760010190565b60009060033d11613fcc57565b905060046000803e60005160e01c90565b600060443d1061403a57604051600319913d83016004833e81516001600160401b03918282113d60248401111761403d57818401948551938411614045573d8501016020848701011161403d575061403a9291016020019061388f565b90565b949350505050565b50949350505050565b916001600160a01b03908184169081158015614338575b610880578284168083146136ab5784846000965b168015158061432e575b156140af578481146136ab57600052600f602052846140a9816040600020541697613fb0565b96614079565b506000848152600f60208181526040928390208054969a959950868916989496898b14614321576001600160a01b0319168a1790558715159485614244575b614103908a6000526012835284600020613969565b86600052818152600295600284600020015490600196600183018093116139f9576141c4575b8a61415e575b50505050505050507ff8b9fe4d008320e6f048c61e41e9cc56ce351354ad0cb9a868bd3c4bd6928fd5600080a4565b600090875b61416e575b5061412f565b8616801515806141ba575b156141b55780600052848452888660002001614196848254613a0f565b90556000528383526141ae8686600020541691613fb0565b9087614163565b614168565b50601e8210614179565b866000878c835b6141d9575b50505050614129565b168015158061423a575b156142335760008181528787528890208b018054861161422a57614208868254613a3c565b90555b6000528585526142218888600020541691613fb0565b908890836141cb565b6000905561420b565b88906141d0565b50601e82106141e3565b9897969594939291908760005260128152826000209960005b8b548082101561430c5786908a6142758f85906137ec565b939054600394851b1c161461428e57505060010161425d565b60009d91929495969798999a9b9c9d19948582019182116139f95761398c8a6142ba6142c894866137ec565b905490871b1c1691846137ec565b805480156142f65761410394899101926142e284846137ec565b81939154921b1b19169055555b90506140ee565b634e487b7160e01b600052603160045260246000fd5b50506141039192939495969798999a506142ef565b5050505050505050505050565b5060328710614083565b5082841615614065565b6001600160a01b0390811690811561438b57600080516020615bdb83398151915280546001600160a01b03198116841790915516600080516020615c9b833981519152600080a3565b604051631e4fbdf760e01b815260006004820152602490fd5b600080516020615bdb833981519152546001600160a01b031633036143c557565b60405163118cdaa760e01b8152336004820152602490fd5b600080516020615cfb83398151915260028154146143fb5760029055565b604051633ee5aeb560e01b8152600490fd5b620186a08110156144b3576175308110156144aa576127108110156144a157610bb8811015614498576103e881101561448f5761012c81101561448657606481101561447d57601e81101561447457600a111561446c57600090600090565b600190600590565b50600290600a90565b50600390600f90565b50600490601490565b50600590601990565b50600690601e90565b50600790602390565b50600890602890565b50600990602d90565b60038101546144ca81615a05565b90603c6144db600285015442613a3c565b049080821161452d575b5080156145255761450a633b9aca009161450560059460018701546139e6565b6139e6565b0491015480821161451c575050600090565b61403a91613a3c565b505050600090565b9050386144e5565b80518210156138045760209160051b010190565b8054906000908181558261455c57505050565b6001906001600160ff1b0384168403612168578252602082209260011b8301925b83811061458a5750505050565b80836002925583838201550161457d565b6000818152601e6020908152604080832054601d83528184208054939695929492936001600160a01b03928316906001600160401b038111614748578651926145e98a8360051b018561388f565b818452855288852085908a8086015b848410614719575050505050835b825181101561470357808983858a8861463c8161462560019986614535565b515116866146338987614535565b51015190615185565b948b86614685575b5091508b9350614675867fae629b396150638d6eb6de457cbffe5d618a10c8cc199a94976bed2b16ecd99394614535565b515116938c51908152a301614606565b83600080516020615b9b833981519152946004926080956146a68c8a614535565b51511681526050855220928d6146de8b8451996146c28b613874565b87548b5260028f89015498868d01998a520154868c0152614535565b515116965193519082519485528401528201528c6060820152a383858a888e8b614644565b50505050906139aa9394601d9183525220614549565b6001916002918c5161472a81613859565b8a865416815284860154838201528152019201920191908b906145f8565b634e487b7160e01b85526041600452602485fd5b80156139f9576000190190565b6001600160a01b038116600081815260106020526040902060038101805492939260ff81161561479b575b5050505050565b906001602495969260ff19161790556011602052604060002094600092600094602060018060a01b0360005416604051988980926370a0823160e01b82523060048301525afa968715614a4b57600097614b56575b50600095945b88548710156148b75760ff600461480d898c61394d565b50015416156148ad576001614822888b61394d565b50015490818060011b04600214821517156139f9578961488091600161485c8b61012c6148558498600c5490861b6139e6565b049461394d565b5001548281106148a057906148748361487a93613a3c565b90613a0f565b97613a0f565b96600461488d828c61394d565b5001805460ff191690555b0195946147f6565b6000925061487a91613a0f565b9495600190614898565b9397509094508195939193836149a7575b505091600080516020615d1b8339815191526040600080516020615cbb833981519152959385602096614986575b6000858152600f885283902060058101805460ff19811690915590546001600160a01b03169060ff168061497d575b80614969575b61494d575b50825191825286820152a254604051908152a23880808080614794565b60005260018360002001614961815461475c565b905538614930565b50806000526001846000200154151561492b565b50801515614925565b84600052600f8752600683600020016149a0828254613a0f565b90556148f6565b9094929390848110614a575750506000805460405163a9059cbb60e01b81529560209287926001600160a01b03169183919082906149ea908a90600484016138e9565b03925af1938415614a4b5760406020948793600080516020615d1b83398151915293600080516020615cbb83398151915298614a2e575b505b9395509395506148c8565b614a4490883d8a1161059657610587818361388f565b5038614a21565b6040513d6000823e3d90fd5b9092939481614aaa575b506040600080516020615cbb83398151915295849360209695600080516020615c1b83398151915284600080516020615d1b833981519152968151908682528b820152a2614a23565b81614ae0929395945060209160018060a01b036000541690600060405180968195829463a9059cbb60e01b8452600484016138e9565b03925af18015614a4b57600080516020615cbb8339815191529560209588600080516020615c1b83398151915260408297600080516020615d1b833981519152978297614b39575b509650505050939495509550614a61565b614b4f908c3d8e1161059657610587818361388f565b5038614b28565b9096506020813d602011614b82575b81614b726020938361388f565b81010312610acb575195386147f0565b3d9150614b65565b60018060a01b038060009216825260106020526040822090600182015415159182614c24575b50600f602052604083206005810160ff81541615158415151461479457805460ff191660ff851515161790555416918215614c1f5760019260409215614c07578152600f6020522001614c038154613fb0565b9055565b81522001805480614c16575050565b614c039061475c565b505050565b6003015460ff1615915038614bb0565b6001600160a01b039081166000818152601060209081526040808320600181810180549697909693959094929184158015614df2575b614d9d57601184528682208054839291835b828110614db25750505050614da8576002820196614c9e885460155490613a0f565b421115614d9d57600383837f57025f0027038907eda728b59164fb63d06048f42e618a35267e6a12e49b2e469a8a9654998d8352600f895260ff6005898520928354169201541680614d94575b80614d82575b614d68575b508c8252600f88528187812095816004600589019860ff19998a81541690558289820155015581855555550190815416905584614d39575b5051928352820152a2565b84815260138352614d4b828220614549565b848152601c83522080546001600160a01b03191690558338614d2e565b8252600187832001614d7a815461475c565b905538614cf6565b50808352600188842001541515614cf1565b50801515614ceb565b505050505050505050565b5050505050505050565b60ff6004614dc0838561394d565b50015416614dd0575b8301614c7c565b93614dea849182614de1888661394d565b50015490613a0f565b949050614dc9565b5060ff600384015416614c6a565b60018060a01b038082166000908082526020600f8152604090818420936010825282812060ff60058701541615908115614ff5575b8115614fe8575b50614fdd57600485019560038754960195614e5987548092613a3c565b8a818111614fb5575b50508915614fa857602484838554168751928380926370a0823160e01b82523060048301525afa908115614f9e57908b918591614f69575b5010614f425789614ed39392614eb1828794613a0f565b89558354168a84885180978195829463a9059cbb60e01b8452600484016138e9565b03925af1908115614f37575090600080516020615cdb833981519152939291614f1a575b506002825191898352820152a25490541115614f11575090565b61403a90614769565b614f3090823d841161059657610587818361388f565b5038614ef7565b8451903d90823e3d90fd5b505096929550600080516020615c1b8339815191529450818792945051928352820152a290565b809250868092503d8311614f97575b614f82818361388f565b81010312614f93578a905138614e9a565b8380fd5b503d614f78565b86513d86823e3d90fd5b5050965050505050505090565b819b5086600080516020615c1b8339815191529189939d825191825288820152a23880614e62565b965050505050505090565b6001915001541538614e3c565b600381015460ff169150614e35565b60018060a01b038082166000908082526020600f8152604090818420936010825282812060ff60058701541615908115615176575b8115615169575b50614fdd5760048501956003875496019561505d87548092613a3c565b8a818111615141575b50508915614fa857602484838554168751928380926370a0823160e01b82523060048301525afa908115614f9e57908b918591615110575b5010614f4257896150b59392614eb1828794613a0f565b03925af1908115614f37575090600080516020615cdb8339815191529392916150f3575b506003825191898352820152a25490541115614f11575090565b61510990823d841161059657610587818361388f565b50386150d9565b809250868092503d831161513a575b615129818361388f565b81010312614f93578a90513861509e565b503d61511f565b819b5086600080516020615c1b8339815191529189939d825191825288820152a23880615066565b6001915001541538615040565b600381015460ff169150615039565b60018060a01b038116600052600f60205260406000206010602052604060002060ff600583015416159081156157c8575b81156157bb575b506145255780600360046151d693015491015490613a3c565b82818111615787575b50508115615780576001600160a01b0381166000908152600f6020526040902090615208615a76565b90670de0b6b3a76400008460011c028460011c8104670de0b6b3a7640000148560011c1517156139f9578261523c91613a1c565b936040518181528160011c60208201528160011c60408201528360608201528560808201527fa7e66afc02702ffeb435ee9bacce4988459c7b329bf0dd9f8f551d823d1fece060a0600180821b03851692a2849260009460009261529f88615b63565b1561573a575b6000546040516370a0823160e01b81523060048201526001600160a01b0390911690602081602481855afa908115614a4b57600091615708575b508260011c1515806156ff575b615627575b50506001546040516370a0823160e01b815230600482015296906001600160a01b0316602088602481845afa8015614a4b576000906155f4575b60029850821515806155eb575b61551a575b5050878260011c118015615511575b6154ca575b5061536f670de0b6b3a764000061536885876139e6565b0488613a0f565b978815615453575050806003600492019261538b898554613a0f565b93849055604080518a8152602081018590526001600160a01b03881691600080516020615cdb83398151915291a27fe83062c7bae5146a0afc41b3a8342f225ed2581a8e234e0ba69d9ff8c53a48d6604051806153f58b60018060a01b038b16958a429285615a2b565b0390a201541115615445575b6040519361540e85613874565b845260208401908152604084019185835260018060a01b031660005260506020526040600020935184555160018401555191015590565b61544e82614769565b615401565b915091506040519180835260011c60208301526040820152608060608201526015608082015274139bc81d1bdad95b9cc81d1c985b9cd9995c9c9959605a1b60a08201527fd8349f8ffff882edf1f3a7f209a1d24fb5e821ba347cf8da7f016de352368fd060c060018060a01b03851692a2615401565b7f60369b7cd498d613812af36dd7cb398ba493ee0afe0fc21d90a9f8b5fc620aa3604051806155088860018060a01b038b16958d8860011c85615a2b565b0390a238615351565b5084811161534c565b91955090808611156155e357905b60405163a9059cbb60e01b8152829160209082908160008161554e888f600484016138e9565b03925af190816155c4575b506155bc575060405190600082526020820152606060408201526013606082015272129090c81d1c985b9cd9995c8819985a5b1959606a1b6080820152600080516020615c5b83398151915260a0600180821b03881692a26000935b388061533d565b9490506155b5565b6155dc9060203d60201161059657610587818361388f565b5038615559565b508490615528565b50801515615338565b506020883d60201161561f575b8161560e6020938361388f565b81010312610acb576002975161532b565b3d9150615601565b90919750808860011c116000146156f457905b60405163a9059cbb60e01b81528291602090829081600081615660888e600484016138e9565b03925af190816156d5575b506156cd5750604051908152600060208201526060604082015260126060820152711350c81d1c985b9cd9995c8819985a5b195960721b6080820152600080516020615c5b83398151915260a0600180821b03871692a26000955b38806152f1565b9690506156c6565b6156ed9060203d60201161059657610587818361388f565b503861566b565b508660011c9061563a565b508015156152ec565b90506020813d602011615732575b816157236020938361388f565b81010312610acb5751386152df565b3d9150615716565b601854604051601490910480825296506001600160a01b038616907fa3c9509a6af5ab7ab677b3caa94bb10373473b146705f236c71768d7b6b1a51390602090a26152a5565b5050600090565b60408051918252602082018390529193506001600160a01b03831691600080516020615c1b83398151915291a238806151df565b60019150015415386151bd565b600381015460ff1691506151b6565b908115615a0157601754683635c9adc5dea000008082109081156159f5575b506159f05760018060a01b03926000938085541692604093845191826370a0823160e01b9283825230600483015281602460209687935afa9081156159e65789916159b9575b506158478683613a0f565b1161599b57612710850261270f19868204016159a55761586a826103e892613a1c565b1161599b576018549061588a61588083886139e6565b6124778884613a0f565b9485158015615992575b61598657600154169287519081523060048201528481602481875afa90811561597c579083918b9161594b575b50106159405784899392613385886158d894613a0f565b601855803b156119285781906024875180948193630852cd8d60e31b83528860048401525af1801561593657600080516020615c7b833981519152969750615927575b508351928352820152a1565b61593090613846565b3861591b565b85513d89823e3d90fd5b505050505050509050565b809250868092503d8311615975575b615964818361388f565b81010312613e3157829051386158c1565b503d61595a565b88513d8c823e3d90fd5b50505050505050509050565b50828611615894565b5050505050509050565b634e487b7160e01b89526011600452602489fd5b90508381813d83116159df575b6159d0818361388f565b81010312613d1b57513861583c565b503d6159c6565b87513d8b823e3d90fd5b509050565b905060185410386157f6565b9050565b60078114615a2357600f14615a1c576301312d0090565b62fe502b90565b5062cb735690565b9094939260609260808301968352602083015260408201520152565b60ff600080516020615d3b8339815191525460401c1615615a6457565b604051631afcd79f60e31b8152600490fd5b60185480158015615ac2575b615ab557601754670de0b6b3a7640000908181029181830414901517156139f95761403a91615ab091613a1c565b615b39565b50670de0b6b3a764000090565b50683635c9adc5dea0000060175410615a82565b90615afd5750805115615aeb57602081519101fd5b60405163d6bda27560e01b8152600490fd5b81511580615b30575b615b0e575090565b604051639996b31560e01b81526001600160a01b039091166004820152602490fd5b50803b15615b06565b67016345785d8a0000808210615b5e5750678ac7230489e80000808211615b5e575090565b905090565b8015615b7457601460185404101590565b5060019056fe38f8a0c92f4c5b0b6877f878cb4c0c8d348a47b76d716c8e78f425043df9515b62c4ea4229c396c9b5c33779ec09ed411b29ed8782e48ac358eaa9e8aa58a9b06fcebd0a2ce98b28cb391d6008bbc769378c9a4919628e11639cb575cd320fcc9016d09d72d40fdae2fd8ceac6b6234c7706214fd39c1cd1e609a0528c199300360894a13ba1a3210667c828492db98dca3e2076cc3735a920a3ca505d382bbcb5987aab1afd379f6695f1068869ee8ca6a0d02304c57935a9cc3d3ea2e51e4d520bc217d25ef4588524228dffcfa518f4ad52178c71d49b8061d016213cd311da109f9a8d0129326c2906f581adfd38d938005d44218a2f7c843b9b105af9ba0ec3929061cbbbeecb325623e7d5a86c3dae11cb8a22ca45dc0972955657da258be0079c531659141344cd1fd0a4f28419497f9722a3daafe3b4186f6b6457e0920bb94eb3842a728db98228c375ff6b00c5bc5a54fac6736155517a0a20a61af381583145e90b82cc5e529bf4fc4d0e44397174cdf145c4251ac33ef195a4249b779b17422d0df92223018b32b4d1fa46e071723d6817e2486d003becc55f00f3a670cd3af7d64b488926880889d08a8585a138ff455227af6737339a1ec262f0c57e16840df040f15088dc2f81fe391c3923bec73e23a9662efc9c229c6a00a2646970667358221220b1644cf95b7199badf4e18389515330fc28b3dcb9361e00a82140fbe509d502464736f6c63430008160033",
  "linkReferences": {},
  "deployedLinkReferences": {}
}