{
  "_format": "hh-sol-artifact-1",
  "contractName": "JinbaoProtocol",
  "sourceName": "contracts/JinbaoProtocol.sol",
  "abi": [
    {
      "inputs": [],
      "stateMutability": "nonpayable",
      "type": "constructor"
    },
    {
      "inputs": [
        {
          "internalType": "address",
          "name": "target",
          "type": "address"
        }
      ],
      "name": "AddressEmptyCode",
      "type": "error"
    },
    {
      "inputs": [
        {
          "internalType": "address",
          "name": "implementation",
          "type": "address"
        }
      ],
      "name": "ERC1967InvalidImplementation",
      "type": "error"
    },
    {
      "inputs": [],
      "name": "ERC1967NonPayable",
      "type": "error"
    },
    {
      "inputs": [],
      "name": "FailedCall",
      "type": "error"
    },
    {
      "inputs": [],
      "name": "InvalidInitialization",
      "type": "error"
    },
    {
      "inputs": [],
      "name": "NotInitializing",
      "type": "error"
    },
    {
      "inputs": [
        {
          "internalType": "address",
          "name": "owner",
          "type": "address"
        }
      ],
      "name": "OwnableInvalidOwner",
      "type": "error"
    },
    {
      "inputs": [
        {
          "internalType": "address",
          "name": "account",
          "type": "address"
        }
      ],
      "name": "OwnableUnauthorizedAccount",
      "type": "error"
    },
    {
      "inputs": [],
      "name": "ReentrancyGuardReentrantCall",
      "type": "error"
    },
    {
      "inputs": [],
      "name": "UUPSUnauthorizedCallContext",
      "type": "error"
    },
    {
      "inputs": [
        {
          "internalType": "bytes32",
          "name": "slot",
          "type": "bytes32"
        }
      ],
      "name": "UUPSUnsupportedProxiableUUID",
      "type": "error"
    },
    {
      "anonymous": false,
      "inputs": [
        {
          "indexed": true,
          "internalType": "address",
          "name": "user",
          "type": "address"
        },
        {
          "indexed": true,
          "internalType": "address",
          "name": "referrer",
          "type": "address"
        }
      ],
      "name": "BoundReferrer",
      "type": "event"
    },
    {
      "anonymous": false,
      "inputs": [
        {
          "indexed": false,
          "internalType": "uint256",
          "name": "mcAmount",
          "type": "uint256"
        },
        {
          "indexed": false,
          "internalType": "uint256",
          "name": "jbcBurned",
          "type": "uint256"
        }
      ],
      "name": "BuybackAndBurn",
      "type": "event"
    },
    {
      "anonymous": false,
      "inputs": [
        {
          "indexed": true,
          "internalType": "address",
          "name": "user",
          "type": "address"
        },
        {
          "indexed": false,
          "internalType": "uint256",
          "name": "ticketId",
          "type": "uint256"
        }
      ],
      "name": "Exited",
      "type": "event"
    },
    {
      "anonymous": false,
      "inputs": [
        {
          "indexed": true,
          "internalType": "address",
          "name": "user",
          "type": "address"
        },
        {
          "indexed": false,
          "internalType": "uint256",
          "name": "amount",
          "type": "uint256"
        }
      ],
      "name": "FeeRefunded",
      "type": "event"
    },
    {
      "anonymous": false,
      "inputs": [
        {
          "indexed": false,
          "internalType": "uint64",
          "name": "version",
          "type": "uint64"
        }
      ],
      "name": "Initialized",
      "type": "event"
    },
    {
      "anonymous": false,
      "inputs": [],
      "name": "LevelConfigsUpdated",
      "type": "event"
    },
    {
      "anonymous": false,
      "inputs": [
        {
          "indexed": true,
          "internalType": "uint256",
          "name": "ticketId",
          "type": "uint256"
        },
        {
          "indexed": true,
          "internalType": "address",
          "name": "upline",
          "type": "address"
        },
        {
          "indexed": false,
          "internalType": "uint256",
          "name": "amount",
          "type": "uint256"
        }
      ],
      "name": "LevelRewardRecorded",
      "type": "event"
    },
    {
      "anonymous": false,
      "inputs": [
        {
          "indexed": true,
          "internalType": "uint256",
          "name": "ticketId",
          "type": "uint256"
        },
        {
          "indexed": true,
          "internalType": "address",
          "name": "upline",
          "type": "address"
        },
        {
          "indexed": false,
          "internalType": "uint256",
          "name": "amount",
          "type": "uint256"
        }
      ],
      "name": "LevelRewardReleased",
      "type": "event"
    },
    {
      "anonymous": false,
      "inputs": [
        {
          "indexed": false,
          "internalType": "uint256",
          "name": "mcAmount",
          "type": "uint256"
        },
        {
          "indexed": false,
          "internalType": "uint256",
          "name": "jbcAmount",
          "type": "uint256"
        }
      ],
      "name": "LiquidityAdded",
      "type": "event"
    },
    {
      "anonymous": false,
      "inputs": [
        {
          "indexed": true,
          "internalType": "address",
          "name": "user",
          "type": "address"
        },
        {
          "indexed": false,
          "internalType": "uint256",
          "name": "amount",
          "type": "uint256"
        },
        {
          "indexed": false,
          "internalType": "uint256",
          "name": "cycleDays",
          "type": "uint256"
        },
        {
          "indexed": false,
          "internalType": "uint256",
          "name": "stakeId",
          "type": "uint256"
        }
      ],
      "name": "LiquidityStaked",
      "type": "event"
    },
    {
      "anonymous": false,
      "inputs": [
        {
          "indexed": false,
          "internalType": "bool",
          "name": "enabled",
          "type": "bool"
        }
      ],
      "name": "LiquidityStatusUpdated",
      "type": "event"
    },
    {
      "anonymous": false,
      "inputs": [
        {
          "indexed": true,
          "internalType": "address",
          "name": "previousOwner",
          "type": "address"
        },
        {
          "indexed": true,
          "internalType": "address",
          "name": "newOwner",
          "type": "address"
        }
      ],
      "name": "OwnershipTransferred",
      "type": "event"
    },
    {
      "anonymous": false,
      "inputs": [
        {
          "indexed": false,
          "internalType": "bool",
          "name": "enabled",
          "type": "bool"
        }
      ],
      "name": "RedeemStatusUpdated",
      "type": "event"
    },
    {
      "anonymous": false,
      "inputs": [
        {
          "indexed": true,
          "internalType": "address",
          "name": "user",
          "type": "address"
        },
        {
          "indexed": false,
          "internalType": "uint256",
          "name": "principal",
          "type": "uint256"
        },
        {
          "indexed": false,
          "internalType": "uint256",
          "name": "fee",
          "type": "uint256"
        }
      ],
      "name": "Redeemed",
      "type": "event"
    },
    {
      "anonymous": false,
      "inputs": [
        {
          "indexed": true,
          "internalType": "address",
          "name": "user",
          "type": "address"
        },
        {
          "indexed": true,
          "internalType": "address",
          "name": "from",
          "type": "address"
        },
        {
          "indexed": false,
          "internalType": "uint256",
          "name": "mcAmount",
          "type": "uint256"
        },
        {
          "indexed": false,
          "internalType": "uint8",
          "name": "rewardType",
          "type": "uint8"
        },
        {
          "indexed": false,
          "internalType": "uint256",
          "name": "ticketId",
          "type": "uint256"
        }
      ],
      "name": "ReferralRewardPaid",
      "type": "event"
    },
    {
      "anonymous": false,
      "inputs": [
        {
          "indexed": true,
          "internalType": "address",
          "name": "user",
          "type": "address"
        },
        {
          "indexed": false,
          "internalType": "uint256",
          "name": "amount",
          "type": "uint256"
        },
        {
          "indexed": false,
          "internalType": "uint256",
          "name": "cappedAmount",
          "type": "uint256"
        }
      ],
      "name": "RewardCapped",
      "type": "event"
    },
    {
      "anonymous": false,
      "inputs": [
        {
          "indexed": true,
          "internalType": "address",
          "name": "user",
          "type": "address"
        },
        {
          "indexed": false,
          "internalType": "uint256",
          "name": "mcAmount",
          "type": "uint256"
        },
        {
          "indexed": false,
          "internalType": "uint256",
          "name": "jbcAmount",
          "type": "uint256"
        },
        {
          "indexed": false,
          "internalType": "uint8",
          "name": "rewardType",
          "type": "uint8"
        },
        {
          "indexed": false,
          "internalType": "uint256",
          "name": "ticketId",
          "type": "uint256"
        }
      ],
      "name": "RewardClaimed",
      "type": "event"
    },
    {
      "anonymous": false,
      "inputs": [
        {
          "indexed": true,
          "internalType": "address",
          "name": "user",
          "type": "address"
        },
        {
          "indexed": false,
          "internalType": "uint256",
          "name": "amount",
          "type": "uint256"
        },
        {
          "indexed": false,
          "internalType": "uint8",
          "name": "rewardType",
          "type": "uint8"
        }
      ],
      "name": "RewardPaid",
      "type": "event"
    },
    {
      "anonymous": false,
      "inputs": [
        {
          "indexed": true,
          "internalType": "address",
          "name": "user",
          "type": "address"
        },
        {
          "indexed": false,
          "internalType": "uint256",
          "name": "jbcAmount",
          "type": "uint256"
        },
        {
          "indexed": false,
          "internalType": "uint256",
          "name": "mcAmount",
          "type": "uint256"
        },
        {
          "indexed": false,
          "internalType": "uint256",
          "name": "tax",
          "type": "uint256"
        }
      ],
      "name": "SwappedJBCToMC",
      "type": "event"
    },
    {
      "anonymous": false,
      "inputs": [
        {
          "indexed": true,
          "internalType": "address",
          "name": "user",
          "type": "address"
        },
        {
          "indexed": false,
          "internalType": "uint256",
          "name": "mcAmount",
          "type": "uint256"
        },
        {
          "indexed": false,
          "internalType": "uint256",
          "name": "jbcAmount",
          "type": "uint256"
        },
        {
          "indexed": false,
          "internalType": "uint256",
          "name": "tax",
          "type": "uint256"
        }
      ],
      "name": "SwappedMCToJBC",
      "type": "event"
    },
    {
      "anonymous": false,
      "inputs": [
        {
          "indexed": true,
          "internalType": "address",
          "name": "user",
          "type": "address"
        },
        {
          "indexed": false,
          "internalType": "uint256",
          "name": "ticketId",
          "type": "uint256"
        },
        {
          "indexed": false,
          "internalType": "uint256",
          "name": "amount",
          "type": "uint256"
        }
      ],
      "name": "TicketExpired",
      "type": "event"
    },
    {
      "anonymous": false,
      "inputs": [
        {
          "indexed": false,
          "internalType": "uint256",
          "name": "newDuration",
          "type": "uint256"
        }
      ],
      "name": "TicketFlexibilityDurationUpdated",
      "type": "event"
    },
    {
      "anonymous": false,
      "inputs": [
        {
          "indexed": true,
          "internalType": "address",
          "name": "user",
          "type": "address"
        },
        {
          "indexed": false,
          "internalType": "uint256",
          "name": "amount",
          "type": "uint256"
        },
        {
          "indexed": false,
          "internalType": "uint256",
          "name": "ticketId",
          "type": "uint256"
        }
      ],
      "name": "TicketPurchased",
      "type": "event"
    },
    {
      "anonymous": false,
      "inputs": [
        {
          "indexed": true,
          "internalType": "address",
          "name": "implementation",
          "type": "address"
        }
      ],
      "name": "Upgraded",
      "type": "event"
    },
    {
      "inputs": [],
      "name": "REWARD_DIRECT",
      "outputs": [
        {
          "internalType": "uint8",
          "name": "",
          "type": "uint8"
        }
      ],
      "stateMutability": "view",
      "type": "function"
    },
    {
      "inputs": [],
      "name": "REWARD_DYNAMIC",
      "outputs": [
        {
          "internalType": "uint8",
          "name": "",
          "type": "uint8"
        }
      ],
      "stateMutability": "view",
      "type": "function"
    },
    {
      "inputs": [],
      "name": "REWARD_LEVEL",
      "outputs": [
        {
          "internalType": "uint8",
          "name": "",
          "type": "uint8"
        }
      ],
      "stateMutability": "view",
      "type": "function"
    },
    {
      "inputs": [],
      "name": "REWARD_STATIC",
      "outputs": [
        {
          "internalType": "uint8",
          "name": "",
          "type": "uint8"
        }
      ],
      "stateMutability": "view",
      "type": "function"
    },
    {
      "inputs": [],
      "name": "SECONDS_IN_UNIT",
      "outputs": [
        {
          "internalType": "uint256",
          "name": "",
          "type": "uint256"
        }
      ],
      "stateMutability": "view",
      "type": "function"
    },
    {
      "inputs": [],
      "name": "UPGRADE_INTERFACE_VERSION",
      "outputs": [
        {
          "internalType": "string",
          "name": "",
          "type": "string"
        }
      ],
      "stateMutability": "view",
      "type": "function"
    },
    {
      "inputs": [
        {
          "internalType": "uint256",
          "name": "mcAmount",
          "type": "uint256"
        },
        {
          "internalType": "uint256",
          "name": "jbcAmount",
          "type": "uint256"
        }
      ],
      "name": "addLiquidity",
      "outputs": [],
      "stateMutability": "nonpayable",
      "type": "function"
    },
    {
      "inputs": [
        {
          "internalType": "address",
          "name": "user",
          "type": "address"
        },
        {
          "internalType": "address",
          "name": "newReferrer",
          "type": "address"
        }
      ],
      "name": "adminSetReferrer",
      "outputs": [],
      "stateMutability": "nonpayable",
      "type": "function"
    },
    {
      "inputs": [
        {
          "internalType": "address",
          "name": "user",
          "type": "address"
        },
        {
          "internalType": "uint256",
          "name": "_activeDirects",
          "type": "uint256"
        },
        {
          "internalType": "uint256",
          "name": "_teamCount",
          "type": "uint256"
        }
      ],
      "name": "adminSetUserStats",
      "outputs": [],
      "stateMutability": "nonpayable",
      "type": "function"
    },
    {
      "inputs": [
        {
          "internalType": "uint256",
          "name": "amount",
          "type": "uint256"
        },
        {
          "internalType": "address",
          "name": "to",
          "type": "address"
        }
      ],
      "name": "adminWithdrawJBC",
      "outputs": [],
      "stateMutability": "nonpayable",
      "type": "function"
    },
    {
      "inputs": [
        {
          "internalType": "uint256",
          "name": "amount",
          "type": "uint256"
        },
        {
          "internalType": "address",
          "name": "to",
          "type": "address"
        }
      ],
      "name": "adminWithdrawMC",
      "outputs": [],
      "stateMutability": "nonpayable",
      "type": "function"
    },
    {
      "inputs": [
        {
          "internalType": "address",
          "name": "_referrer",
          "type": "address"
        }
      ],
      "name": "bindReferrer",
      "outputs": [],
      "stateMutability": "nonpayable",
      "type": "function"
    },
    {
      "inputs": [
        {
          "internalType": "uint256",
          "name": "amount",
          "type": "uint256"
        }
      ],
      "name": "buyTicket",
      "outputs": [],
      "stateMutability": "nonpayable",
      "type": "function"
    },
    {
      "inputs": [],
      "name": "buybackPercent",
      "outputs": [
        {
          "internalType": "uint256",
          "name": "",
          "type": "uint256"
        }
      ],
      "stateMutability": "view",
      "type": "function"
    },
    {
      "inputs": [],
      "name": "buybackWallet",
      "outputs": [
        {
          "internalType": "address",
          "name": "",
          "type": "address"
        }
      ],
      "stateMutability": "view",
      "type": "function"
    },
    {
      "inputs": [],
      "name": "claimRewards",
      "outputs": [],
      "stateMutability": "nonpayable",
      "type": "function"
    },
    {
      "inputs": [],
      "name": "dailyBurn",
      "outputs": [],
      "stateMutability": "nonpayable",
      "type": "function"
    },
    {
      "inputs": [
        {
          "internalType": "address",
          "name": "",
          "type": "address"
        },
        {
          "internalType": "uint256",
          "name": "",
          "type": "uint256"
        }
      ],
      "name": "directReferrals",
      "outputs": [
        {
          "internalType": "address",
          "name": "",
          "type": "address"
        }
      ],
      "stateMutability": "view",
      "type": "function"
    },
    {
      "inputs": [],
      "name": "directRewardPercent",
      "outputs": [
        {
          "internalType": "uint256",
          "name": "",
          "type": "uint256"
        }
      ],
      "stateMutability": "view",
      "type": "function"
    },
    {
      "inputs": [],
      "name": "expireMyTicket",
      "outputs": [],
      "stateMutability": "nonpayable",
      "type": "function"
    },
    {
      "inputs": [
        {
          "internalType": "uint256",
          "name": "amountIn",
          "type": "uint256"
        },
        {
          "internalType": "uint256",
          "name": "reserveIn",
          "type": "uint256"
        },
        {
          "internalType": "uint256",
          "name": "reserveOut",
          "type": "uint256"
        }
      ],
      "name": "getAmountOut",
      "outputs": [
        {
          "internalType": "uint256",
          "name": "",
          "type": "uint256"
        }
      ],
      "stateMutability": "pure",
      "type": "function"
    },
    {
      "inputs": [
        {
          "internalType": "address",
          "name": "user",
          "type": "address"
        }
      ],
      "name": "getDirectReferrals",
      "outputs": [
        {
          "internalType": "address[]",
          "name": "",
          "type": "address[]"
        }
      ],
      "stateMutability": "view",
      "type": "function"
    },
    {
      "inputs": [
        {
          "internalType": "address",
          "name": "user",
          "type": "address"
        }
      ],
      "name": "getDirectReferralsData",
      "outputs": [
        {
          "components": [
            {
              "internalType": "address",
              "name": "user",
              "type": "address"
            },
            {
              "internalType": "uint256",
              "name": "ticketAmount",
              "type": "uint256"
            },
            {
              "internalType": "uint256",
              "name": "joinTime",
              "type": "uint256"
            }
          ],
          "internalType": "struct JinbaoProtocol.DirectReferralData[]",
          "name": "",
          "type": "tuple[]"
        }
      ],
      "stateMutability": "view",
      "type": "function"
    },
    {
      "inputs": [],
      "name": "getJBCPrice",
      "outputs": [
        {
          "internalType": "uint256",
          "name": "",
          "type": "uint256"
        }
      ],
      "stateMutability": "view",
      "type": "function"
    },
    {
      "inputs": [
        {
          "internalType": "uint256",
          "name": "activeDirects",
          "type": "uint256"
        }
      ],
      "name": "getLevel",
      "outputs": [
        {
          "internalType": "uint256",
          "name": "level",
          "type": "uint256"
        },
        {
          "internalType": "uint256",
          "name": "percent",
          "type": "uint256"
        }
      ],
      "stateMutability": "view",
      "type": "function"
    },
    {
      "inputs": [
        {
          "internalType": "address",
          "name": "_mcToken",
          "type": "address"
        },
        {
          "internalType": "address",
          "name": "_jbcToken",
          "type": "address"
        },
        {
          "internalType": "address",
          "name": "_marketing",
          "type": "address"
        },
        {
          "internalType": "address",
          "name": "_treasury",
          "type": "address"
        },
        {
          "internalType": "address",
          "name": "_lpInjection",
          "type": "address"
        },
        {
          "internalType": "address",
          "name": "_buybackWallet",
          "type": "address"
        }
      ],
      "name": "initialize",
      "outputs": [],
      "stateMutability": "nonpayable",
      "type": "function"
    },
    {
      "inputs": [],
      "name": "jbcToken",
      "outputs": [
        {
          "internalType": "contract IJBC",
          "name": "",
          "type": "address"
        }
      ],
      "stateMutability": "view",
      "type": "function"
    },
    {
      "inputs": [],
      "name": "lastBurnTime",
      "outputs": [
        {
          "internalType": "uint256",
          "name": "",
          "type": "uint256"
        }
      ],
      "stateMutability": "view",
      "type": "function"
    },
    {
      "inputs": [
        {
          "internalType": "uint256",
          "name": "",
          "type": "uint256"
        }
      ],
      "name": "levelConfigs",
      "outputs": [
        {
          "internalType": "uint256",
          "name": "minDirects",
          "type": "uint256"
        },
        {
          "internalType": "uint256",
          "name": "level",
          "type": "uint256"
        },
        {
          "internalType": "uint256",
          "name": "percent",
          "type": "uint256"
        }
      ],
      "stateMutability": "view",
      "type": "function"
    },
    {
      "inputs": [],
      "name": "levelRewardPercent",
      "outputs": [
        {
          "internalType": "uint256",
          "name": "",
          "type": "uint256"
        }
      ],
      "stateMutability": "view",
      "type": "function"
    },
    {
      "inputs": [],
      "name": "liquidityEnabled",
      "outputs": [
        {
          "internalType": "bool",
          "name": "",
          "type": "bool"
        }
      ],
      "stateMutability": "view",
      "type": "function"
    },
    {
      "inputs": [],
      "name": "lpInjectionPercent",
      "outputs": [
        {
          "internalType": "uint256",
          "name": "",
          "type": "uint256"
        }
      ],
      "stateMutability": "view",
      "type": "function"
    },
    {
      "inputs": [],
      "name": "lpInjectionWallet",
      "outputs": [
        {
          "internalType": "address",
          "name": "",
          "type": "address"
        }
      ],
      "stateMutability": "view",
      "type": "function"
    },
    {
      "inputs": [],
      "name": "marketingPercent",
      "outputs": [
        {
          "internalType": "uint256",
          "name": "",
          "type": "uint256"
        }
      ],
      "stateMutability": "view",
      "type": "function"
    },
    {
      "inputs": [],
      "name": "marketingWallet",
      "outputs": [
        {
          "internalType": "address",
          "name": "",
          "type": "address"
        }
      ],
      "stateMutability": "view",
      "type": "function"
    },
    {
      "inputs": [],
      "name": "mcToken",
      "outputs": [
        {
          "internalType": "contract IERC20",
          "name": "",
          "type": "address"
        }
      ],
      "stateMutability": "view",
      "type": "function"
    },
    {
      "inputs": [],
      "name": "nextStakeId",
      "outputs": [
        {
          "internalType": "uint256",
          "name": "",
          "type": "uint256"
        }
      ],
      "stateMutability": "view",
      "type": "function"
    },
    {
      "inputs": [],
      "name": "nextTicketId",
      "outputs": [
        {
          "internalType": "uint256",
          "name": "",
          "type": "uint256"
        }
      ],
      "stateMutability": "view",
      "type": "function"
    },
    {
      "inputs": [],
      "name": "owner",
      "outputs": [
        {
          "internalType": "address",
          "name": "",
          "type": "address"
        }
      ],
      "stateMutability": "view",
      "type": "function"
    },
    {
      "inputs": [],
      "name": "proxiableUUID",
      "outputs": [
        {
          "internalType": "bytes32",
          "name": "",
          "type": "bytes32"
        }
      ],
      "stateMutability": "view",
      "type": "function"
    },
    {
      "inputs": [],
      "name": "redeem",
      "outputs": [],
      "stateMutability": "nonpayable",
      "type": "function"
    },
    {
      "inputs": [],
      "name": "redeemEnabled",
      "outputs": [
        {
          "internalType": "bool",
          "name": "",
          "type": "bool"
        }
      ],
      "stateMutability": "view",
      "type": "function"
    },
    {
      "inputs": [],
      "name": "redemptionFeePercent",
      "outputs": [
        {
          "internalType": "uint256",
          "name": "",
          "type": "uint256"
        }
      ],
      "stateMutability": "view",
      "type": "function"
    },
    {
      "inputs": [],
      "name": "renounceOwnership",
      "outputs": [],
      "stateMutability": "nonpayable",
      "type": "function"
    },
    {
      "inputs": [
        {
          "internalType": "uint256",
          "name": "_direct",
          "type": "uint256"
        },
        {
          "internalType": "uint256",
          "name": "_level",
          "type": "uint256"
        },
        {
          "internalType": "uint256",
          "name": "_marketing",
          "type": "uint256"
        },
        {
          "internalType": "uint256",
          "name": "_buyback",
          "type": "uint256"
        },
        {
          "internalType": "uint256",
          "name": "_lp",
          "type": "uint256"
        },
        {
          "internalType": "uint256",
          "name": "_treasury",
          "type": "uint256"
        }
      ],
      "name": "setDistributionPercents",
      "outputs": [],
      "stateMutability": "nonpayable",
      "type": "function"
    },
    {
      "inputs": [
        {
          "components": [
            {
              "internalType": "uint256",
              "name": "minDirects",
              "type": "uint256"
            },
            {
              "internalType": "uint256",
              "name": "level",
              "type": "uint256"
            },
            {
              "internalType": "uint256",
              "name": "percent",
              "type": "uint256"
            }
          ],
          "internalType": "struct JinbaoProtocol.LevelConfig[]",
          "name": "_configs",
          "type": "tuple[]"
        }
      ],
      "name": "setLevelConfigs",
      "outputs": [],
      "stateMutability": "nonpayable",
      "type": "function"
    },
    {
      "inputs": [
        {
          "internalType": "bool",
          "name": "_enabled",
          "type": "bool"
        }
      ],
      "name": "setLiquidityEnabled",
      "outputs": [],
      "stateMutability": "nonpayable",
      "type": "function"
    },
    {
      "inputs": [
        {
          "internalType": "bool",
          "name": "_enabled",
          "type": "bool"
        }
      ],
      "name": "setRedeemEnabled",
      "outputs": [],
      "stateMutability": "nonpayable",
      "type": "function"
    },
    {
      "inputs": [
        {
          "internalType": "uint256",
          "name": "_fee",
          "type": "uint256"
        }
      ],
      "name": "setRedemptionFee",
      "outputs": [],
      "stateMutability": "nonpayable",
      "type": "function"
    },
    {
      "inputs": [
        {
          "internalType": "uint256",
          "name": "_buyTax",
          "type": "uint256"
        },
        {
          "internalType": "uint256",
          "name": "_sellTax",
          "type": "uint256"
        }
      ],
      "name": "setSwapTaxes",
      "outputs": [],
      "stateMutability": "nonpayable",
      "type": "function"
    },
    {
      "inputs": [
        {
          "internalType": "uint256",
          "name": "_duration",
          "type": "uint256"
        }
      ],
      "name": "setTicketFlexibilityDuration",
      "outputs": [],
      "stateMutability": "nonpayable",
      "type": "function"
    },
    {
      "inputs": [
        {
          "internalType": "address",
          "name": "_marketing",
          "type": "address"
        },
        {
          "internalType": "address",
          "name": "_treasury",
          "type": "address"
        },
        {
          "internalType": "address",
          "name": "_lpInjection",
          "type": "address"
        },
        {
          "internalType": "address",
          "name": "_buyback",
          "type": "address"
        }
      ],
      "name": "setWallets",
      "outputs": [],
      "stateMutability": "nonpayable",
      "type": "function"
    },
    {
      "inputs": [
        {
          "internalType": "uint256",
          "name": "amount",
          "type": "uint256"
        },
        {
          "internalType": "uint256",
          "name": "cycleDays",
          "type": "uint256"
        }
      ],
      "name": "stakeLiquidity",
      "outputs": [],
      "stateMutability": "nonpayable",
      "type": "function"
    },
    {
      "inputs": [],
      "name": "swapBuyTax",
      "outputs": [
        {
          "internalType": "uint256",
          "name": "",
          "type": "uint256"
        }
      ],
      "stateMutability": "view",
      "type": "function"
    },
    {
      "inputs": [
        {
          "internalType": "uint256",
          "name": "jbcAmount",
          "type": "uint256"
        }
      ],
      "name": "swapJBCToMC",
      "outputs": [],
      "stateMutability": "nonpayable",
      "type": "function"
    },
    {
      "inputs": [
        {
          "internalType": "uint256",
          "name": "mcAmount",
          "type": "uint256"
        }
      ],
      "name": "swapMCToJBC",
      "outputs": [],
      "stateMutability": "nonpayable",
      "type": "function"
    },
    {
      "inputs": [],
      "name": "swapReserveJBC",
      "outputs": [
        {
          "internalType": "uint256",
          "name": "",
          "type": "uint256"
        }
      ],
      "stateMutability": "view",
      "type": "function"
    },
    {
      "inputs": [],
      "name": "swapReserveMC",
      "outputs": [
        {
          "internalType": "uint256",
          "name": "",
          "type": "uint256"
        }
      ],
      "stateMutability": "view",
      "type": "function"
    },
    {
      "inputs": [],
      "name": "swapSellTax",
      "outputs": [
        {
          "internalType": "uint256",
          "name": "",
          "type": "uint256"
        }
      ],
      "stateMutability": "view",
      "type": "function"
    },
    {
      "inputs": [],
      "name": "ticketFlexibilityDuration",
      "outputs": [
        {
          "internalType": "uint256",
          "name": "",
          "type": "uint256"
        }
      ],
      "stateMutability": "view",
      "type": "function"
    },
    {
      "inputs": [
        {
          "internalType": "uint256",
          "name": "",
          "type": "uint256"
        }
      ],
      "name": "ticketOwner",
      "outputs": [
        {
          "internalType": "address",
          "name": "",
          "type": "address"
        }
      ],
      "stateMutability": "view",
      "type": "function"
    },
    {
      "inputs": [
        {
          "internalType": "uint256",
          "name": "",
          "type": "uint256"
        },
        {
          "internalType": "uint256",
          "name": "",
          "type": "uint256"
        }
      ],
      "name": "ticketPendingRewards",
      "outputs": [
        {
          "internalType": "address",
          "name": "upline",
          "type": "address"
        },
        {
          "internalType": "uint256",
          "name": "amount",
          "type": "uint256"
        }
      ],
      "stateMutability": "view",
      "type": "function"
    },
    {
      "inputs": [
        {
          "internalType": "address",
          "name": "newOwner",
          "type": "address"
        }
      ],
      "name": "transferOwnership",
      "outputs": [],
      "stateMutability": "nonpayable",
      "type": "function"
    },
    {
      "inputs": [],
      "name": "treasuryPercent",
      "outputs": [
        {
          "internalType": "uint256",
          "name": "",
          "type": "uint256"
        }
      ],
      "stateMutability": "view",
      "type": "function"
    },
    {
      "inputs": [],
      "name": "treasuryWallet",
      "outputs": [
        {
          "internalType": "address",
          "name": "",
          "type": "address"
        }
      ],
      "stateMutability": "view",
      "type": "function"
    },
    {
      "inputs": [
        {
          "internalType": "address",
          "name": "newImplementation",
          "type": "address"
        },
        {
          "internalType": "bytes",
          "name": "data",
          "type": "bytes"
        }
      ],
      "name": "upgradeToAndCall",
      "outputs": [],
      "stateMutability": "payable",
      "type": "function"
    },
    {
      "inputs": [
        {
          "internalType": "address",
          "name": "",
          "type": "address"
        }
      ],
      "name": "userInfo",
      "outputs": [
        {
          "internalType": "address",
          "name": "referrer",
          "type": "address"
        },
        {
          "internalType": "uint256",
          "name": "activeDirects",
          "type": "uint256"
        },
        {
          "internalType": "uint256",
          "name": "teamCount",
          "type": "uint256"
        },
        {
          "internalType": "uint256",
          "name": "totalRevenue",
          "type": "uint256"
        },
        {
          "internalType": "uint256",
          "name": "currentCap",
          "type": "uint256"
        },
        {
          "internalType": "bool",
          "name": "isActive",
          "type": "bool"
        },
        {
          "internalType": "uint256",
          "name": "refundFeeAmount",
          "type": "uint256"
        }
      ],
      "stateMutability": "view",
      "type": "function"
    },
    {
      "inputs": [
        {
          "internalType": "address",
          "name": "",
          "type": "address"
        },
        {
          "internalType": "uint256",
          "name": "",
          "type": "uint256"
        }
      ],
      "name": "userStakes",
      "outputs": [
        {
          "internalType": "uint256",
          "name": "id",
          "type": "uint256"
        },
        {
          "internalType": "uint256",
          "name": "amount",
          "type": "uint256"
        },
        {
          "internalType": "uint256",
          "name": "startTime",
          "type": "uint256"
        },
        {
          "internalType": "uint256",
          "name": "cycleDays",
          "type": "uint256"
        },
        {
          "internalType": "bool",
          "name": "active",
          "type": "bool"
        },
        {
          "internalType": "uint256",
          "name": "paid",
          "type": "uint256"
        }
      ],
      "stateMutability": "view",
      "type": "function"
    },
    {
      "inputs": [
        {
          "internalType": "address",
          "name": "",
          "type": "address"
        }
      ],
      "name": "userTicket",
      "outputs": [
        {
          "internalType": "uint256",
          "name": "ticketId",
          "type": "uint256"
        },
        {
          "internalType": "uint256",
          "name": "amount",
          "type": "uint256"
        },
        {
          "internalType": "uint256",
          "name": "purchaseTime",
          "type": "uint256"
        },
        {
          "internalType": "bool",
          "name": "exited",
          "type": "bool"
        }
      ],
      "stateMutability": "view",
      "type": "function"
    }
  ],
  "bytecode": "0x60a0604052306080523480156200001557600080fd5b506200002062000026565b620000da565b7ff0c57e16840df040f15088dc2f81fe391c3923bec73e23a9662efc9c229c6a00805468010000000000000000900460ff1615620000775760405163f92ee8a960e01b815260040160405180910390fd5b80546001600160401b0390811614620000d75780546001600160401b0319166001600160401b0390811782556040519081527fc7f505b2f371ae2175ee4913f4499e1f2633a7b5936321eed1cdaeb6115181d29060200160405180910390a15b50565b608051615f77620001046000396000818161477d015281816147a601526148de0152615f776000f3fe60806040526004361061030a5760003560e01c8063021d28931461030f57806304ef9d581461033157806304f618cb1461035a578063054d50d41461037a57806305ad39351461039a5780630a5c4567146103c75780630e2be210146103e75780630fc4fc1a1461040e5780631427f6161461043b5780631788513c146104505780631959a002146104705780631d0dac761461051657806321f483d31461052c57806327f082f41461055b578063372500ab146105715780633a3ea2f0146105865780634626402b1461059b578063480937de146105bb578063488b5d97146105db5780634ea4c6b3146105f05780634f1ef2861461061057806352778b051461062357806352d1902d146106435780636031a52f1461065857806362eea9141461066e57806367dd74ca1461068e5780636dd66827146106ae5780636fb3c47c146106c4578063715018a6146106e457806375506c96146106f957806375f0a8741461070f57806377a2a5401461072f5780637dbc1df014610745578063813380cd1461076557806381eeef5c1461079357806383672f3e146107a857806386481d40146107c85780638710bcaa146107f657806388fd4d331461085d5780638a859a851461087d5780638c0eaa48146108925780638da5cb5b146108a757806390b0eb51146108bc5780639370b080146108dc57806395253992146108f257806398b8972f146109125780639cd441da146109275780639d99eca414610947578063a2af922614610967578063ad3cb1cc14610987578063b048a4bb146109c5578063b5d5b5fa146109ef578063bd594dcf14610a3e578063be040fb014610a54578063be57479914610a69578063c2ff12fc14610a89578063cc2a9a5b14610abf578063ccf6194414610adf578063ceaa366d14610af5578063d241e00114610b0b578063d2c8e0e514610b2b578063d2f8253614610b58578063d8020a1814610b77578063deab8aea14610b8d578063dec7fa3b14610bad578063e306744914610bc3578063e4412f6814610bd9578063ecda2d3214610bef578063f2fde38b14610c0f575b600080fd5b34801561031b57600080fd5b5061032f61032a366004615631565b610c2f565b005b34801561033d57600080fd5b50610347600b5481565b6040519081526020015b60405180910390f35b34801561036657600080fd5b5061032f61037536600461566a565b610c8b565b34801561038657600080fd5b50610347610395366004615685565b610dd5565b3480156103a657600080fd5b506103ba6103b53660046156b1565b610e6d565b60405161035191906156db565b3480156103d357600080fd5b5061032f6103e23660046156ef565b610ea5565b3480156103f357600080fd5b506103fc600281565b60405160ff9091168152602001610351565b34801561041a57600080fd5b5061042e61042936600461566a565b61116d565b6040516103519190615708565b34801561044757600080fd5b506103fc600081565b34801561045c57600080fd5b506001546103ba906001600160a01b031681565b34801561047c57600080fd5b506104d561048b36600461566a565b600f6020526000908152604090208054600182015460028301546003840154600485015460058601546006909601546001600160a01b0390951695939492939192909160ff169087565b604080516001600160a01b03909816885260208801969096529486019390935260608501919091526080840152151560a083015260c082015260e001610351565b34801561052257600080fd5b5061034760185481565b34801561053857600080fd5b5061054c6105473660046156ef565b61129e565b6040516103519392919061576a565b34801561056757600080fd5b50610347600d5481565b34801561057d57600080fd5b5061032f6112d1565b34801561059257600080fd5b50610347611950565b3480156105a757600080fd5b506003546103ba906001600160a01b031681565b3480156105c757600080fd5b5061032f6105d6366004615631565b611990565b3480156105e757600080fd5b50610347603c81565b3480156105fc57600080fd5b5061032f61060b366004615780565b6119d9565b61032f61061e366004615810565b611e51565b34801561062f57600080fd5b5061032f61063e3660046156ef565b611e6c565b34801561064f57600080fd5b50610347612136565b34801561066457600080fd5b5061034760195481565b34801561067a57600080fd5b5061032f6106893660046158b5565b612153565b34801561069a57600080fd5b5061032f6106a93660046156ef565b61222e565b3480156106ba57600080fd5b5061034760155481565b3480156106d057600080fd5b5061032f6106df3660046158e1565b6127d8565b3480156106f057600080fd5b5061032f612807565b34801561070557600080fd5b50610347601a5481565b34801561071b57600080fd5b506002546103ba906001600160a01b031681565b34801561073b57600080fd5b5061034760175481565b34801561075157600080fd5b5061032f6107603660046156ef565b612819565b34801561077157600080fd5b50610785610780366004615780565b612861565b604051610351929190615914565b34801561079f57600080fd5b5061032f6128a7565b3480156107b457600080fd5b5061032f6107c336600461592d565b612a76565b3480156107d457600080fd5b506107e86107e33660046156ef565b612ace565b604051610351929190615981565b34801561080257600080fd5b5061083b61081136600461566a565b60106020526000908152604090208054600182015460028301546003909301549192909160ff1684565b6040805194855260208501939093529183015215156060820152608001610351565b34801561086957600080fd5b506004546103ba906001600160a01b031681565b34801561088957600080fd5b506103fc600181565b34801561089e57600080fd5b506103fc600381565b3480156108b357600080fd5b506103ba612b71565b3480156108c857600080fd5b5061032f6108d7366004615780565b612b8c565b3480156108e857600080fd5b50610347600e5481565b3480156108fe57600080fd5b506000546103ba906001600160a01b031681565b34801561091e57600080fd5b5061032f612be7565b34801561093357600080fd5b5061032f610942366004615780565b612bf0565b34801561095357600080fd5b5061032f6109623660046156ef565b612daa565b34801561097357600080fd5b5061032f61098236600461598f565b612de7565b34801561099357600080fd5b506109b8604051806040016040528060058152602001640352e302e360dc1b81525081565b60405161035191906159dd565b3480156109d157600080fd5b506016546109df9060ff1681565b6040519015158152602001610351565b3480156109fb57600080fd5b50610a0f610a0a3660046156b1565b612fbe565b6040805196875260208701959095529385019290925260608401521515608083015260a082015260c001610351565b348015610a4a57600080fd5b5061034760075481565b348015610a6057600080fd5b5061032f613018565b348015610a7557600080fd5b5061032f610a84366004615a10565b613865565b348015610a9557600080fd5b506103ba610aa43660046156ef565b601c602052600090815260409020546001600160a01b031681565b348015610acb57600080fd5b5061032f610ada366004615ae3565b613907565b348015610aeb57600080fd5b5061034760065481565b348015610b0157600080fd5b50610347600a5481565b348015610b1757600080fd5b5061032f610b263660046158b5565b613f45565b348015610b3757600080fd5b50610b4b610b4636600461566a565b613fd8565b6040516103519190615b57565b348015610b6457600080fd5b506016546109df90610100900460ff1681565b348015610b8357600080fd5b5061034760085481565b348015610b9957600080fd5b506005546103ba906001600160a01b031681565b348015610bb957600080fd5b50610347600c5481565b348015610bcf57600080fd5b50610347601b5481565b348015610be557600080fd5b5061034760095481565b348015610bfb57600080fd5b5061032f610c0a366004615ba4565b61404e565b348015610c1b57600080fd5b5061032f610c2a36600461566a565b614160565b610c3761419b565b601680548215156101000261ff00199091161790556040517f03cb373f89de891077fe47cec43663b6727713de0337af46bebd1178122251b790610c8090831515815260200190565b60405180910390a150565b336000908152600f60205260409020546001600160a01b031615610ce65760405162461bcd60e51b815260206004820152600d60248201526c105b1c9958591e48189bdd5b99609a1b60448201526064015b60405180910390fd5b336001600160a01b03821603610d0e5760405162461bcd60e51b8152600401610cdd90615be7565b6001600160a01b038116610d575760405162461bcd60e51b815260206004820152601060248201526f24b73b30b634b2103932b332b93932b960811b6044820152606401610cdd565b336000818152600f6020908152604080832080546001600160a01b0387166001600160a01b0319918216811790925581855260128452828520805460018101825590865293852090930180549093168517909255519092917fa6dbb5aa28f35437de94d685d66edce5fb4812196b4984b91dfd5a7b38c0fb3091a350565b6000808411610e0f5760405162461bcd60e51b81526020600482015260066024820152652130b21034b760d11b6044820152606401610cdd565b600083118015610e1f5750600082115b610e3b5760405162461bcd60e51b8152600401610cdd90615c11565b6000610e478386615c48565b90506000610e558686615c5f565b9050610e618183615c72565b925050505b9392505050565b60126020528160005260406000208181548110610e8957600080fd5b6000918252602090912001546001600160a01b03169150829050565b610ead6141cd565b60008111610ecd5760405162461bcd60e51b8152600401610cdd90615c94565b6000546040516323b872dd60e01b81526001600160a01b03909116906323b872dd90610f0190339030908690600401615cb5565b6020604051808303816000875af1158015610f20573d6000803e3d6000fd5b505050506040513d601f19601f82011682018060405250810190610f449190615cd9565b506000610f5682601754601854610dd5565b905060006064600d5483610f6a9190615c48565b610f749190615c72565b90506000610f828284615cf6565b6001546040516370a0823160e01b815291925084916001600160a01b03909116906370a0823190610fb79030906004016156db565b602060405180830381865afa158015610fd4573d6000803e3d6000fd5b505050506040513d601f19601f82011682018060405250810190610ff89190615d09565b10156110165760405162461bcd60e51b8152600401610cdd90615d22565b83601760008282546110289190615c5f565b9250508190555082601860008282546110419190615cf6565b9091555050600154604051630852cd8d60e31b8152600481018490526001600160a01b03909116906342966c6890602401600060405180830381600087803b15801561108c57600080fd5b505af11580156110a0573d6000803e3d6000fd5b505060015460405163a9059cbb60e01b81526001600160a01b03909116925063a9059cbb91506110d69033908590600401615914565b6020604051808303816000875af11580156110f5573d6000803e3d6000fd5b505050506040513d601f19601f820116820180604052508101906111199190615cd9565b50336001600160a01b03167f36864aeefce16bc4aaceeb6b0cdfb2ad1455a8cb4ccb0db148a2bc6e7166f97c8583856040516111579392919061576a565b60405180910390a250505061116a614203565b50565b6001600160a01b03811660009081526012602052604081208054606092906001600160401b038111156111a2576111a26157a2565b60405190808252806020026020018201604052801561120057816020015b6111ed604051806060016040528060006001600160a01b0316815260200160008152602001600081525090565b8152602001906001900390816111c05790505b50905060005b825481101561129657600083828154811061122357611223615d43565b60009182526020808320909101546001600160a01b0316808352601082526040928390208351606081018552828152600182015493810193909352600281015493830193909352855190935085908590811061128157611281615d43565b60209081029190910101525050600101611206565b509392505050565b601481815481106112ae57600080fd5b600091825260209091206003909102018054600182015460029092015490925083565b6112d96141cd565b3360009081526010602052604090206001810154158015906113005750600381015460ff16155b6113375760405162461bcd60e51b8152602060048201526008602482015267496e61637469766560c01b6044820152606401610cdd565b33600090815260116020526040812090805b82548110156115935782818154811061136457611364615d43565b600091825260209091206004600690920201015460ff161561158b57600083828154811061139457611394615d43565b9060005260206000209060060201600301546007036113b557506014611417565b8382815481106113c7576113c7615d43565b906000526020600020906006020160030154600f036113e857506019611417565b8382815481106113fa576113fa615d43565b906000526020600020906006020160030154601e036114175750601e5b6000603c85848154811061142d5761142d615d43565b9060005260206000209060060201600201544261144a9190615cf6565b6114549190615c72565b905084838154811061146857611468615d43565b9060005260206000209060060201600301548111156114a85784838154811061149357611493615d43565b90600052602060002090600602016003015490505b806000036114b757505061158b565b60006103e882848887815481106114d0576114d0615d43565b9060005260206000209060060201600101546114ec9190615c48565b6114f69190615c48565b6115009190615c72565b9050600086858154811061151657611516615d43565b90600052602060002090600602016005015490508082111561158657600061153e8284615cf6565b905061154a8188615c5f565b96508088878154811061155f5761155f615d43565b9060005260206000209060060201600501600082825461157f9190615c5f565b9091555050505b505050505b600101611349565b50600081116115d15760405162461bcd60e51b815260206004820152600a6024820152694e6f207265776172647360b01b6044820152606401610cdd565b336000908152600f6020526040902060048101546003909101546115f6908390615c5f565b111561162357336000908152600f6020526040902060038101546004909101546116209190615cf6565b90505b8060000361163c5761163433614214565b505050611946565b336000908152600f60205260408120600301805483929061165e908490615c5f565b9091555060009050611671600283615c72565b90506000611680600284615c72565b600080546040516370a0823160e01b8152929350909184916001600160a01b0316906370a08231906116b69030906004016156db565b602060405180830381865afa1580156116d3573d6000803e3d6000fd5b505050506040513d601f19601f820116820180604052508101906116f79190615d09565b101580156117055750600083115b156117845760005460405163a9059cbb60e01b81526001600160a01b039091169063a9059cbb9061173c9033908790600401615914565b6020604051808303816000875af115801561175b573d6000803e3d6000fd5b505050506040513d601f19601f8201168201806040525081019061177f9190615cd9565b508290505b600061178e611950565b90506000816117a585670de0b6b3a7640000615c48565b6117af9190615c72565b6001546040516370a0823160e01b815291925060009183916001600160a01b0316906370a08231906117e59030906004016156db565b602060405180830381865afa158015611802573d6000803e3d6000fd5b505050506040513d601f19601f820116820180604052508101906118269190615d09565b101580156118345750600082115b156118b35760015460405163a9059cbb60e01b81526001600160a01b039091169063a9059cbb9061186b9033908690600401615914565b6020604051808303816000875af115801561188a573d6000803e3d6000fd5b505050506040513d601f19601f820116820180604052508101906118ae9190615cd9565b508190505b336001600160a01b0316600080516020615f028339815191528860006040516118dd929190615d59565b60405180910390a288546040513391600080516020615e828339815191529161190c9188918691600091615d6a565b60405180910390a2336000908152600f6020526040902060048101546003909101541061193c5761193c33614214565b5050505050505050505b61194e614203565b565b60006018546000036119695750670de0b6b3a764000090565b60185460175461198190670de0b6b3a7640000615c48565b61198b9190615c72565b905090565b61199861419b565b6016805460ff19168215159081179091556040519081527fb886fcb5b9c12916f26d967ebe962dbd51ec249fb55961da39c851cdfc10115c90602001610c80565b6119e16141cd565b60165460ff16611a035760405162461bcd60e51b8152600401610cdd90615d88565b3360009081526010602052604090206001810154611a4f5760405162461bcd60e51b8152602060048201526009602482015268139bc81d1a58dad95d60ba1b6044820152606401610cdd565b600381015460ff1615611a8d5760405162461bcd60e51b8152602060048201526006602482015265115e1a5d195960d21b6044820152606401610cdd565b6015548160020154611a9f9190615c5f565b421115611ad85760405162461bcd60e51b8152602060048201526007602482015266115e1c1a5c995960ca1b6044820152606401610cdd565b8160071480611ae7575081600f145b80611af2575081601e145b611b2a5760405162461bcd60e51b8152602060048201526009602482015268426164206379636c6560b81b6044820152606401610cdd565b60008311611b4a5760405162461bcd60e51b8152600401610cdd90615daa565b6000546040516323b872dd60e01b81526001600160a01b03909116906323b872dd90611b7e90339030908890600401615cb5565b6020604051808303816000875af1158015611b9d573d6000803e3d6000fd5b505050506040513d601f19601f82011682018060405250810190611bc19190615cd9565b50601a8054906000611bd283615dc8565b9091555050336000908152601160209081526040808320815160c081018352601a548152808401888152429382019384526060820188815260016080840181815260a0850189815286548084018855968a529789209451600690960290940194855591518483015593516002840155925160038301555160048201805460ff19169115159190911790559151600590920191909155820154611c7390614552565b90506000611c8033614571565b905081811015611ca25760405162461bcd60e51b8152600401610cdd90615c11565b611cab33614603565b336001600160a01b03167fa8a1b9e33e503eed12bf7e7c8c01c7f3b60217a496bddd0f5db351dd8c056c1c8686601a54604051611cea9392919061576a565b60405180910390a2336000908152600f60205260409020600601548015611e4157336000908152600f6020526040808220600601829055905490516370a0823160e01b815282916001600160a01b0316906370a0823190611d4f9030906004016156db565b602060405180830381865afa158015611d6c573d6000803e3d6000fd5b505050506040513d601f19601f82011682018060405250810190611d909190615d09565b10611e415760005460405163a9059cbb60e01b81526001600160a01b039091169063a9059cbb90611dc79033908590600401615914565b6020604051808303816000875af1158015611de6573d6000803e3d6000fd5b505050506040513d601f19601f82011682018060405250810190611e0a9190615cd9565b5060405181815233907f3437b9ea7fa19c6d233dd70cc787a70fab87cee64d8ba4571512cc84402748f99060200160405180910390a25b50505050611e4d614203565b5050565b611e59614772565b611e6282614817565b611e4d828261481f565b611e746141cd565b60008111611e945760405162461bcd60e51b8152600401610cdd90615c94565b6001546040516323b872dd60e01b81526001600160a01b03909116906323b872dd90611ec890339030908690600401615cb5565b6020604051808303816000875af1158015611ee7573d6000803e3d6000fd5b505050506040513d601f19601f82011682018060405250810190611f0b9190615cd9565b5060006064600e5483611f1e9190615c48565b611f289190615c72565b90506000611f368284615cf6565b600154604051630852cd8d60e31b8152600481018590529192506001600160a01b0316906342966c6890602401600060405180830381600087803b158015611f7d57600080fd5b505af1158015611f91573d6000803e3d6000fd5b505050506000611fa682601854601754610dd5565b6000546040516370a0823160e01b815291925082916001600160a01b03909116906370a0823190611fdb9030906004016156db565b602060405180830381865afa158015611ff8573d6000803e3d6000fd5b505050506040513d601f19601f8201168201806040525081019061201c9190615d09565b10156120535760405162461bcd60e51b81526020600482015260066024820152654c6f77204d4360d01b6044820152606401610cdd565b81601860008282546120659190615c5f565b92505081905550806017600082825461207e9190615cf6565b909155505060005460405163a9059cbb60e01b81526001600160a01b039091169063a9059cbb906120b59033908590600401615914565b6020604051808303816000875af11580156120d4573d6000803e3d6000fd5b505050506040513d601f19601f820116820180604052508101906120f89190615cd9565b50336001600160a01b03167f223c8ad0806f634524940a8595f819c5cfc7b1f4f4f45791269301df0a7e61d58583866040516111579392919061576a565b60006121406148d3565b50600080516020615ea283398151915290565b61215b61419b565b6000821161217b5760405162461bcd60e51b8152600401610cdd90615daa565b60185482111561219d5760405162461bcd60e51b8152600401610cdd90615de1565b81601860008282546121af9190615cf6565b909155505060015460405163a9059cbb60e01b81526001600160a01b039091169063a9059cbb906121e69084908690600401615914565b6020604051808303816000875af1158015612205573d6000803e3d6000fd5b505050506040513d601f19601f820116820180604052508101906122299190615cd9565b505050565b6122366141cd565b61223f3361491c565b8068056bc75e2d63100000148061225e575080681043561a8829300000145b80612271575080681b1ae4d6e2ef500000145b80612284575080683635c9adc5dea00000145b6122a05760405162461bcd60e51b8152600401610cdd90615c94565b6000546040516323b872dd60e01b81526001600160a01b03909116906323b872dd906122d490339030908690600401615cb5565b6020604051808303816000875af11580156122f3573d6000803e3d6000fd5b505050506040513d601f19601f820116820180604052508101906123179190615cd9565b50336000908152601060205260409020600381015460ff161561239d576019805490600061234483615dc8565b90915550506019548155600181018290554260028201556003808201805460ff19169055336000908152600f60205260408120820155612385908390615c48565b336000908152600f6020526040902060040155612427565b80600101546000036123b9576019805490600061234483615dc8565b818160010160008282546123cd9190615c5f565b9091555050336000908152600f602052604090206005015460ff16156123f4574260028201555b6123ff826003615c48565b336000908152600f602052604081206004018054909190612421908490615c5f565b90915550505b80546000908152601c6020908152604080832080546001600160a01b031916339081179091558352600f9091529020546001600160a01b0316801580159061248a57506001600160a01b0381166000908152600f602052604090206005015460ff165b156125035760006064600654856124a19190615c48565b6124ab9190615c72565b905060006124bb83836002614af3565b905080156124fc57835460405133916001600160a01b03861691600080516020615e62833981519152916124f3918691600291615dff565b60405180910390a35b5050612599565b6000546002546006546001600160a01b039283169263a9059cbb92169060649061252d9088615c48565b6125379190615c72565b6040518363ffffffff1660e01b8152600401612554929190615914565b6020604051808303816000875af1158015612573573d6000803e3d6000fd5b505050506040513d601f19601f820116820180604052508101906125979190615cd9565b505b336000818152601060205260409020546125b591908590614c8a565b6000546002546008546001600160a01b039283169263a9059cbb9216906064906125df9088615c48565b6125e99190615c72565b6040518363ffffffff1660e01b8152600401612606929190615914565b6020604051808303816000875af1158015612625573d6000803e3d6000fd5b505050506040513d601f19601f820116820180604052508101906126499190615cd9565b50600060646009548561265c9190615c48565b6126669190615c72565b905061267181614ec8565b600054600454600a546001600160a01b039283169263a9059cbb92169060649061269b9089615c48565b6126a59190615c72565b6040518363ffffffff1660e01b81526004016126c2929190615914565b6020604051808303816000875af11580156126e1573d6000803e3d6000fd5b505050506040513d601f19601f820116820180604052508101906127059190615cd9565b50600054600354600b546001600160a01b039283169263a9059cbb9216906064906127309089615c48565b61273a9190615c72565b6040518363ffffffff1660e01b8152600401612757929190615914565b6020604051808303816000875af1158015612776573d6000803e3d6000fd5b505050506040513d601f19601f8201168201806040525081019061279a9190615cd9565b506127a433614603565b825460405133917f2a91574e12ad96234e84923e146b0946ecfb871cd8d5534dc1fdcbe87a7c01b391611157918891615981565b6127e061419b565b6001600160a01b039092166000908152600f60205260409020600181019190915560020155565b61280f61419b565b61194e60006150c7565b61282161419b565b603281111561285c5760405162461bcd60e51b81526020600482015260076024820152664665653e35302560c81b6044820152606401610cdd565b600c55565b6013602052816000526040600020818154811061287d57600080fd5b6000918252602090912060029091020180546001909101546001600160a01b039091169250905082565b601b546128b79062015180615c5f565b4210156128ee5760405162461bcd60e51b81526020600482015260056024820152644561726c7960d81b6044820152606401610cdd565b6000601854116129295760405162461bcd60e51b81526020600482015260066024820152654e6f2072657360d01b6044820152606401610cdd565b6000606460185461293a9190615c72565b90508015612a6f576001546040516370a0823160e01b815282916001600160a01b0316906370a08231906129729030906004016156db565b602060405180830381865afa15801561298f573d6000803e3d6000fd5b505050506040513d601f19601f820116820180604052508101906129b39190615d09565b10156129d15760405162461bcd60e51b8152600401610cdd90615d22565b80601860008282546129e39190615cf6565b9091555050600154604051630852cd8d60e31b8152600481018390526001600160a01b03909116906342966c6890602401600060405180830381600087803b158015612a2e57600080fd5b505af1158015612a42573d6000803e3d6000fd5b50505050600080516020615ee2833981519152600082604051612a66929190615981565b60405180910390a15b5042601b55565b612a7e61419b565b600280546001600160a01b039586166001600160a01b0319918216179091556003805494861694821694909417909355600480549285169284169290921790915560058054919093169116179055565b60008060005b601454811015612b655760148181548110612af157612af1615d43565b9060005260206000209060030201600001548410612b5d5760148181548110612b1c57612b1c615d43565b90600052602060002090600302016001015460148281548110612b4157612b41615d43565b9060005260206000209060030201600201549250925050915091565b600101612ad4565b50600093849350915050565b600080612b7c615123565b546001600160a01b031692915050565b612b9461419b565b60328211158015612ba6575060328111155b612bdc5760405162461bcd60e51b81526020600482015260076024820152665461783e35302560c81b6044820152606401610cdd565b600d91909155600e55565b61194e3361491c565b612bf861419b565b6000821180612c075750600081115b612c415760405162461bcd60e51b815260206004820152600b60248201526a16995c9bc8185b5bdd5b9d60aa1b6044820152606401610cdd565b8115612cd7576000546040516323b872dd60e01b81526001600160a01b03909116906323b872dd90612c7b90339030908790600401615cb5565b6020604051808303816000875af1158015612c9a573d6000803e3d6000fd5b505050506040513d601f19601f82011682018060405250810190612cbe9190615cd9565b508160176000828254612cd19190615c5f565b90915550505b8015612d6d576001546040516323b872dd60e01b81526001600160a01b03909116906323b872dd90612d1190339030908690600401615cb5565b6020604051808303816000875af1158015612d30573d6000803e3d6000fd5b505050506040513d601f19601f82011682018060405250810190612d549190615cd9565b508060186000828254612d679190615c5f565b90915550505b7f38f8a0c92f4c5b0b6877f878cb4c0c8d348a47b76d716c8e78f425043df9515b8282604051612d9e929190615981565b60405180910390a15050565b612db261419b565b60158190556040518181527fd28d9e4ce68d89af7920cb8618e342a78f51e545c530ce60f1cb1d6f0235b47f90602001610c80565b612def61419b565b806001600160a01b0316826001600160a01b031603612e205760405162461bcd60e51b8152600401610cdd90615be7565b6001600160a01b038083166000908152600f6020526040902080548383166001600160a01b0319821617909155168015612f6d576001600160a01b0381166000908152601260205260408120905b8154811015612f6a57846001600160a01b0316828281548110612e9357612e93615d43565b6000918252602090912001546001600160a01b031603612f625781548290612ebd90600190615cf6565b81548110612ecd57612ecd615d43565b9060005260206000200160009054906101000a90046001600160a01b0316828281548110612efd57612efd615d43565b9060005260206000200160006101000a8154816001600160a01b0302191690836001600160a01b0316021790555081805480612f3b57612f3b615e18565b600082815260209020810160001990810180546001600160a01b0319169055019055612f6a565b600101612e6e565b50505b6001600160a01b0382161561222957506001600160a01b0390811660009081526012602090815260408220805460018101825590835291200180546001600160a01b03191692909116919091179055565b60116020528160005260406000208181548110612fda57600080fd5b600091825260209091206006909102018054600182015460028301546003840154600485015460059095015493965091945092909160ff9091169086565b6130206141cd565b601654610100900460ff166130475760405162461bcd60e51b8152600401610cdd90615d88565b336000908152601160205260408120908080805b84548110156133965784818154811061307657613076615d43565b600091825260209091206004600690920201015460ff161561338e576000603c8683815481106130a8576130a8615d43565b9060005260206000209060060201600301546130c49190615c48565b8683815481106130d6576130d6615d43565b9060005260206000209060060201600201546130f29190615c5f565b905080421061338c57600086838154811061310f5761310f615d43565b90600052602060002090600602016003015460070361313057506014613192565b86838154811061314257613142615d43565b906000526020600020906006020160030154600f0361316357506019613192565b86838154811061317557613175615d43565b906000526020600020906006020160030154601e036131925750601e5b60006103e88885815481106131a9576131a9615d43565b906000526020600020906006020160030154838a87815481106131ce576131ce615d43565b9060005260206000209060060201600101546131ea9190615c48565b6131f49190615c48565b6131fe9190615c72565b9050600088858154811061321457613214615d43565b90600052602060002090600602016005015482111561325f5788858154811061323f5761323f615d43565b9060005260206000209060060201600501548261325c9190615cf6565b90505b6132698187615c5f565b95508089868154811061327e5761327e615d43565b9060005260206000209060060201600501600082825461329e9190615c5f565b92505081905550600061012c600c548b88815481106132bf576132bf615d43565b90600052602060002090600602016001015460026132dd9190615c48565b6132e79190615c48565b6132f19190615c72565b905060008a878154811061330757613307615d43565b90600052602060002090600602016001015490508181106133335761332c8282615cf6565b9050613338565b600091505b613342818b615c5f565b995061334e828a615c5f565b985060008b888154811061336457613364615d43565b60009182526020909120600690910201600401805460ff191691151591909117905550505050505b505b60010161305b565b5060008311806133a65750600081115b6133e65760405162461bcd60e51b81526020600482015260116024820152704e6f7468696e6720746f2072656465656d60781b6044820152606401610cdd565b801561374157336000908152600f6020526040812060038101546004909101546134109190615cf6565b90508082111561344f57336001600160a01b0316600080516020615ec28339815191528383604051613443929190615981565b60405180910390a28091505b811561373f57336000908152600f602052604081206003018054849290613477908490615c5f565b909155506000905061348a600284615c72565b90506000613499600285615c72565b600080546040516370a0823160e01b8152929350909184916001600160a01b0316906370a08231906134cf9030906004016156db565b602060405180830381865afa1580156134ec573d6000803e3d6000fd5b505050506040513d601f19601f820116820180604052508101906135109190615d09565b1015801561351e5750600083115b1561359d5760005460405163a9059cbb60e01b81526001600160a01b039091169063a9059cbb906135559033908790600401615914565b6020604051808303816000875af1158015613574573d6000803e3d6000fd5b505050506040513d601f19601f820116820180604052508101906135989190615cd9565b508290505b60006135a7611950565b90506000816135be85670de0b6b3a7640000615c48565b6135c89190615c72565b6001546040516370a0823160e01b815291925060009183916001600160a01b0316906370a08231906135fe9030906004016156db565b602060405180830381865afa15801561361b573d6000803e3d6000fd5b505050506040513d601f19601f8201168201806040525081019061363f9190615d09565b1015801561364d5750600082115b156136cc5760015460405163a9059cbb60e01b81526001600160a01b039091169063a9059cbb906136849033908690600401615914565b6020604051808303816000875af11580156136a3573d6000803e3d6000fd5b505050506040513d601f19601f820116820180604052508101906136c79190615cd9565b508190505b336001600160a01b0316600080516020615f028339815191528960006040516136f6929190615d59565b60405180910390a233600081815260106020526040808220549051600080516020615e828339815191529261373092899287929190615d6a565b60405180910390a25050505050505b505b82156137be5760005460405163a9059cbb60e01b81526001600160a01b039091169063a9059cbb906137799033908790600401615914565b6020604051808303816000875af1158015613798573d6000803e3d6000fd5b505050506040513d601f19601f820116820180604052508101906137bc9190615cd9565b505b336000908152600f6020526040812060060180548492906137e0908490615c5f565b90915550506040513390600080516020615f22833981519152906138079086908690615981565b60405180910390a23360009081526010602052604090205461382890615147565b61383133614603565b336000908152600f602052604090206004810154600390910154106138595761385933614214565b5050505061194e614203565b61386d61419b565b61387960146000615595565b60005b81518110156138da57601482828151811061389957613899615d43565b60209081029190910181015182546001818101855560009485529383902082516003909202019081559181015182840155604001516002909101550161387c565b506040517f81086beec7078a58d4155c0b0d7d98e4d4df580e4737331309687e6ab8a6944090600090a150565b600061391161530e565b805490915060ff600160401b82041615906001600160401b03166000811580156139385750825b90506000826001600160401b031660011480156139545750303b155b905081158015613962575080155b156139805760405163f92ee8a960e01b815260040160405180910390fd5b84546001600160401b031916600117855583156139a957845460ff60401b1916600160401b1785555b6139b233615337565b6139ba615348565b6139c2615358565b8a6000806101000a8154816001600160a01b0302191690836001600160a01b0316021790555089600160006101000a8154816001600160a01b0302191690836001600160a01b0316021790555088600260006101000a8154816001600160a01b0302191690836001600160a01b0316021790555087600360006101000a8154816001600160a01b0302191690836001600160a01b0316021790555086600460006101000a8154816001600160a01b0302191690836001600160a01b0316021790555085600560006101000a8154816001600160a01b0302191690836001600160a01b031602179055506019600681905550600f600781905550600560088190555060056009819055506019600a819055506019600b819055506001600c819055506032600d819055506019600e819055506203f4806015819055506001601660006101000a81548160ff0219169083151502179055506001601660016101000a81548160ff02191690831515021790555042601b8190555060146040518060600160405280620186a0815260200160098152602001602d81525090806001815401808255809150506001900390600052602060002090600302016000909190919091506000820151816000015560208201518160010155604082015181600201555050601460405180606001604052806175308152602001600881526020016028815250908060018154018082558091505060019003906000526020600020906003020160009091909190915060008201518160000155602082015181600101556040820151816002015550506014604051806060016040528061271081526020016007815260200160238152509080600181540180825580915050600190039060005260206000209060030201600090919091909150600082015181600001556020820151816001015560408201518160020155505060146040518060600160405280610bb8815260200160068152602001601e81525090806001815401808255809150506001900390600052602060002090600302016000909190919091506000820151816000015560208201518160010155604082015181600201555050601460405180606001604052806103e88152602001600581526020016019815250908060018154018082558091505060019003906000526020600020906003020160009091909190915060008201518160000155602082015181600101556040820151816002015550506014604051806060016040528061012c815260200160048152602001601481525090806001815401808255809150506001900390600052602060002090600302016000909190919091506000820151816000015560208201518160010155604082015181600201555050601460405180606001604052806064815260200160038152602001600f8152509080600181540180825580915050600190039060005260206000209060030201600090919091909150600082015181600001556020820151816001015560408201518160020155505060146040518060600160405280601e815260200160028152602001600a8152509080600181540180825580915050600190039060005260206000209060030201600090919091909150600082015181600001556020820151816001015560408201518160020155505060146040518060600160405280600a8152602001600181526020016005815250908060018154018082558091505060019003906000526020600020906003020160009091909190915060008201518160000155602082015181600101556040820151816002015550508315613f3857845460ff60401b19168555604051600181527fc7f505b2f371ae2175ee4913f4499e1f2633a7b5936321eed1cdaeb6115181d29060200160405180910390a15b5050505050505050505050565b613f4d61419b565b60008211613f6d5760405162461bcd60e51b8152600401610cdd90615daa565b601754821115613f8f5760405162461bcd60e51b8152600401610cdd90615de1565b8160176000828254613fa19190615cf6565b909155505060005460405163a9059cbb60e01b81526001600160a01b039091169063a9059cbb906121e69084908690600401615914565b6001600160a01b03811660009081526012602090815260409182902080548351818402810184019094528084526060939283018282801561404257602002820191906000526020600020905b81546001600160a01b03168152600190910190602001808311614024575b50505050509050919050565b61405661419b565b80828486614064898b615c5f565b61406e9190615c5f565b6140789190615c5f565b6140829190615c5f565b61408c9190615c5f565b6064146140c65760405162461bcd60e51b8152602060048201526008602482015267053756d213d3130360c41b6044820152606401610cdd565b603286111580156140d8575060328511155b80156140e5575060328411155b80156140f2575060328311155b80156140ff575060328211155b801561410c575060328111155b6141435760405162461bcd60e51b8152602060048201526008602482015267526174653e35302560c01b6044820152606401610cdd565b600695909555600793909355600891909155600955600a55600b55565b61416861419b565b6001600160a01b038116614192576000604051631e4fbdf760e01b8152600401610cdd91906156db565b61116a816150c7565b336141a4612b71565b6001600160a01b03161461194e573360405163118cdaa760e01b8152600401610cdd91906156db565b60006141d7615360565b8054909150600119016141fd57604051633ee5aeb560e01b815260040160405180910390fd5b60029055565b600061420d615360565b6001905550565b6001600160a01b0381166000908152601060205260409020600381015460ff16611e4d5760038101805460ff191660011790556001600160a01b03821660009081526011602052604081209080805b83548110156143865783818154811061427e5761427e615d43565b600091825260209091206004600690920201015460ff161561437e57600061012c600c548684815481106142b4576142b4615d43565b90600052602060002090600602016001015460026142d29190615c48565b6142dc9190615c48565b6142e69190615c72565b905060008583815481106142fc576142fc615d43565b9060005260206000209060060201600101549050818110614328576143218282615cf6565b905061432d565b600091505b6143378186615c5f565b94506143438285615c5f565b9350600086848154811061435957614359615d43565b60009182526020909120600690910201600401805460ff191691151591909117905550505b600101614263565b5081156144045760005460405163a9059cbb60e01b81526001600160a01b039091169063a9059cbb906143bf9088908690600401615914565b6020604051808303816000875af11580156143de573d6000803e3d6000fd5b505050506040513d601f19601f820116820180604052508101906144029190615cd9565b505b801561443b576001600160a01b0385166000908152600f602052604081206006018054839290614435908490615c5f565b90915550505b6001600160a01b038086166000908152600f6020526040902060058101805460ff198116909155905460ff909116911681801561448057506001600160a01b03811615155b80156144a657506001600160a01b0381166000908152600f602052604090206001015415155b156144d8576001600160a01b0381166000908152600f602052604081206001018054916144d283615e2e565b91905055505b866001600160a01b0316600080516020615f228339815191528585604051614501929190615981565b60405180910390a285546040519081526001600160a01b038816907f920bb94eb3842a728db98228c375ff6b00c5bc5a54fac6736155517a0a20a61a9060200160405180910390a250505050505050565b60006002614561836003615c48565b61456b9190615c72565b92915050565b6001600160a01b0381166000908152601160205260408120815b81548110156145fc578181815481106145a6576145a6615d43565b600091825260209091206004600690920201015460ff16156145f4578181815481106145d4576145d4615d43565b906000526020600020906006020160010154836145f19190615c5f565b92505b60010161458b565b5050919050565b6001600160a01b038116600090815260106020526040812060018101549091901561463a576146358260010154614552565b61463d565b60005b905060008083600101541180156146595750600383015460ff16155b80156146655750600082115b801561467957508161467685614571565b10155b6001600160a01b0385166000908152600f602052604090206005015490915060ff16801515821515036146ad575050505050565b6001600160a01b038581166000908152600f6020526040902060058101805460ff19168515151790555416806146e557505050505050565b821561471c576001600160a01b0381166000908152600f6020526040812060010180549161471283615dc8565b919050555061476a565b6001600160a01b0381166000908152600f60205260409020600101541561476a576001600160a01b0381166000908152600f6020526040812060010180549161476483615e2e565b91905055505b505050505050565b306001600160a01b037f00000000000000000000000000000000000000000000000000000000000000001614806147f957507f00000000000000000000000000000000000000000000000000000000000000006001600160a01b03166147ed600080516020615ea2833981519152546001600160a01b031690565b6001600160a01b031614155b1561194e5760405163703e46dd60e11b815260040160405180910390fd5b61116a61419b565b816001600160a01b03166352d1902d6040518163ffffffff1660e01b8152600401602060405180830381865afa925050508015614879575060408051601f3d908101601f1916820190925261487691810190615d09565b60015b6148985781604051634c9c8ce360e01b8152600401610cdd91906156db565b600080516020615ea283398151915281146148c957604051632a87526960e21b815260048101829052602401610cdd565b6122298383615384565b306001600160a01b037f0000000000000000000000000000000000000000000000000000000000000000161461194e5760405163703e46dd60e11b815260040160405180910390fd5b6001600160a01b0381166000908152601060205260409020600181015415806149495750600381015460ff165b15614952575050565b600061495d83614571565b1115614967575050565b60155481600201546149799190615c5f565b4211614983575050565b805460018201546001600160a01b038085166000908152600f60205260409020805460059091015491169060ff1680156149c557506001600160a01b03811615155b80156149eb57506001600160a01b0381166000908152600f602052604090206001015415155b15614a1d576001600160a01b0381166000908152600f60205260408120600101805491614a1783615e2e565b91905055505b6001600160a01b0385166000908152600f6020526040812060058101805460ff19908116909155600380830184905560049092018390558287556001870183905560028701929092558501805490911690558215614aa9576000838152601360205260408120614a8c916155b6565b6000838152601c6020526040902080546001600160a01b03191690555b846001600160a01b03167f57025f0027038907eda728b59164fb63d06048f42e618a35267e6a12e49b2e468484604051614ae4929190615981565b60405180910390a25050505050565b6001600160a01b0383166000908152600f6020908152604080832060109092528220600582015460ff161580614b2d5750600381015460ff165b80614b3a57506001810154155b15614b4a57600092505050610e66565b600082600301548360040154614b609190615cf6565b90508581811115614ba057819050876001600160a01b0316600080516020615ec28339815191528884604051614b97929190615981565b60405180910390a25b8015614c675780846003016000828254614bba9190615c5f565b909155505060005460405163a9059cbb60e01b81526001600160a01b039091169063a9059cbb90614bf1908b908590600401615914565b6020604051808303816000875af1158015614c10573d6000803e3d6000fd5b505050506040513d601f19601f82011682018060405250810190614c349190615cd9565b50876001600160a01b0316600080516020615f028339815191528288604051614c5e929190615d59565b60405180910390a25b8360040154846003015410614c7f57614c7f88614214565b979650505050505050565b6001600160a01b038084166000908152600f602052604081205490911690805b6001600160a01b03831615801590614cc25750601481105b1561476a576001600160a01b0383166000908152600f602052604090206005015460ff16614d1a576001600160a01b039283166000908152600f60205260409020549092169180614d1281615dc8565b915050614caa565b6001600160a01b038316600090815260106020526040902060018101541580614d475750600381015460ff165b15614d7d576001600160a01b039384166000908152600f60205260409020549093169281614d7481615dc8565b92505050614caa565b6001600160a01b0384166000908152600f6020526040812060010154614da290612ace565b91505083811115614e87576000614db98583615cf6565b60018401549091508890811115614dd1575060018301545b60006064614ddf8484615c48565b614de99190615c72565b60008a8152601360209081526040808320815180830183526001600160a01b038e8116808352828601888152845460018082018755958952978790209351600290980290930180546001600160a01b0319169790921696909617815590519101555183815292935090918b917fbd5e0947444d5adb46b3d24786f72907c1e8176cb1348960766a6cd6fad13e9f910160405180910390a38396505050505b602d8110614e9657505061476a565b6001600160a01b039485166000908152600f60205260409020549094169382614ebe81615dc8565b9350505050614caa565b80600003614ed35750565b6017541580614ee25750601854155b15614eea5750565b80601754614ef89190615c5f565b6000546040516370a0823160e01b81526001600160a01b03909116906370a0823190614f289030906004016156db565b602060405180830381865afa158015614f45573d6000803e3d6000fd5b505050506040513d601f19601f82011682018060405250810190614f699190615d09565b1015614f725750565b6000614f8382601754601854610dd5565b9050801580614f93575060185481115b15614f9c575050565b6018546001546040516370a0823160e01b81526001600160a01b03909116906370a0823190614fcf9030906004016156db565b602060405180830381865afa158015614fec573d6000803e3d6000fd5b505050506040513d601f19601f820116820180604052508101906150109190615d09565b101561501a575050565b816017600082825461502c9190615c5f565b9250508190555080601860008282546150459190615cf6565b9091555050600154604051630852cd8d60e31b8152600481018390526001600160a01b03909116906342966c6890602401600060405180830381600087803b15801561509057600080fd5b505af11580156150a4573d6000803e3d6000fd5b50505050600080516020615ee28339815191528282604051612d9e929190615981565b60006150d1615123565b80546001600160a01b038481166001600160a01b031983168117845560405193945091169182907f8be0079c531659141344cd1fd0a4f28419497f9722a3daafe3b4186f6b6457e090600090a3505050565b7f9016d09d72d40fdae2fd8ceac6b6234c7706214fd39c1cd1e609a0528c19930090565b6000818152601c60209081526040808320546013835281842080548351818602810186019094528084526001600160a01b039092169493909190849084015b828210156151ce576000848152602090819020604080518082019091526002850290910180546001600160a01b03168252600190810154828401529083529092019101615186565b50505050905060005b81518110156152f65760006152288383815181106151f7576151f7615d43565b60200260200101516000015184848151811061521557615215615d43565b6020026020010151602001516003614af3565b9050801561528c57836001600160a01b031683838151811061524c5761524c615d43565b6020026020010151600001516001600160a01b0316600080516020615e628339815191528360038960405161528393929190615dff565b60405180910390a35b82828151811061529e5761529e615d43565b6020026020010151600001516001600160a01b0316857f380d782ec118e5171a4d1e7081db076c4c94ca49c623d531763d402b094b4f24836040516152e591815260200190565b60405180910390a3506001016151d7565b506000838152601360205260408120612229916155b6565b6000807ff0c57e16840df040f15088dc2f81fe391c3923bec73e23a9662efc9c229c6a0061456b565b61533f6153da565b61116a816153ff565b6153506153da565b61194e615407565b61194e6153da565b7f9b779b17422d0df92223018b32b4d1fa46e071723d6817e2486d003becc55f0090565b61538d8261540f565b6040516001600160a01b038316907fbc7cd75a20ee27fd9adebab32041f755214dbc6bffa90cc0225b39da2e5c2d3b90600090a28051156153d257612229828261546b565b611e4d6154e1565b6153e2615500565b61194e57604051631afcd79f60e31b815260040160405180910390fd5b6141686153da565b6142036153da565b806001600160a01b03163b60000361543c5780604051634c9c8ce360e01b8152600401610cdd91906156db565b600080516020615ea283398151915280546001600160a01b0319166001600160a01b0392909216919091179055565b6060600080846001600160a01b0316846040516154889190615e45565b600060405180830381855af49150503d80600081146154c3576040519150601f19603f3d011682016040523d82523d6000602084013e6154c8565b606091505b50915091506154d885838361551a565b95945050505050565b341561194e5760405163b398979f60e01b815260040160405180910390fd5b600061550a61530e565b54600160401b900460ff16919050565b60608261552f5761552a8261556d565b610e66565b815115801561554657506001600160a01b0384163b155b156155665783604051639996b31560e01b8152600401610cdd91906156db565b5080610e66565b80511561557c57805160208201fd5b60405163d6bda27560e01b815260040160405180910390fd5b508054600082556003029060005260206000209081019061116a91906155d7565b508054600082556002029060005260206000209081019061116a91906155fd565b5b808211156155f95760008082556001820181905560028201556003016155d8565b5090565b5b808211156155f95780546001600160a01b0319168155600060018201556002016155fe565b801515811461116a57600080fd5b60006020828403121561564357600080fd5b8135610e6681615623565b80356001600160a01b038116811461566557600080fd5b919050565b60006020828403121561567c57600080fd5b610e668261564e565b60008060006060848603121561569a57600080fd5b505081359360208301359350604090920135919050565b600080604083850312156156c457600080fd5b6156cd8361564e565b946020939093013593505050565b6001600160a01b0391909116815260200190565b60006020828403121561570157600080fd5b5035919050565b602080825282518282018190526000919060409081850190868401855b8281101561575d57815180516001600160a01b0316855286810151878601528501518585015260609093019290850190600101615725565b5091979650505050505050565b9283526020830191909152604082015260600190565b6000806040838503121561579357600080fd5b50508035926020909101359150565b634e487b7160e01b600052604160045260246000fd5b604051606081016001600160401b03811182821017156157da576157da6157a2565b60405290565b604051601f8201601f191681016001600160401b0381118282101715615808576158086157a2565b604052919050565b6000806040838503121561582357600080fd5b61582c8361564e565b91506020838101356001600160401b038082111561584957600080fd5b818601915086601f83011261585d57600080fd5b81358181111561586f5761586f6157a2565b615881601f8201601f191685016157e0565b9150808252878482850101111561589757600080fd5b80848401858401376000848284010152508093505050509250929050565b600080604083850312156158c857600080fd5b823591506158d86020840161564e565b90509250929050565b6000806000606084860312156158f657600080fd5b6158ff8461564e565b95602085013595506040909401359392505050565b6001600160a01b03929092168252602082015260400190565b6000806000806080858703121561594357600080fd5b61594c8561564e565b935061595a6020860161564e565b92506159686040860161564e565b91506159766060860161564e565b905092959194509250565b918252602082015260400190565b600080604083850312156159a257600080fd5b6159ab8361564e565b91506158d86020840161564e565b60005b838110156159d45781810151838201526020016159bc565b50506000910152565b60208152600082518060208401526159fc8160408501602087016159b9565b601f01601f19169190910160400192915050565b60006020808385031215615a2357600080fd5b82356001600160401b0380821115615a3a57600080fd5b818501915085601f830112615a4e57600080fd5b813581811115615a6057615a606157a2565b615a6e848260051b016157e0565b81815284810192506060918202840185019188831115615a8d57600080fd5b938501935b82851015615ad75780858a031215615aaa5760008081fd5b615ab26157b8565b8535815286860135878201526040808701359082015284529384019392850192615a92565b50979650505050505050565b60008060008060008060c08789031215615afc57600080fd5b615b058761564e565b9550615b136020880161564e565b9450615b216040880161564e565b9350615b2f6060880161564e565b9250615b3d6080880161564e565b9150615b4b60a0880161564e565b90509295509295509295565b6020808252825182820181905260009190848201906040850190845b81811015615b985783516001600160a01b031683529284019291840191600101615b73565b50909695505050505050565b60008060008060008060c08789031215615bbd57600080fd5b505084359660208601359650604086013595606081013595506080810135945060a0013592509050565b60208082526010908201526f21b0b73737ba103134b7321039b2b63360811b604082015260600190565b6020808252600790820152664c6f77206c697160c81b604082015260600190565b634e487b7160e01b600052601160045260246000fd5b808202811582820484141761456b5761456b615c32565b8082018082111561456b5761456b615c32565b600082615c8f57634e487b7160e01b600052601260045260246000fd5b500490565b60208082526007908201526610985908185b5d60ca1b604082015260600190565b6001600160a01b039384168152919092166020820152604081019190915260600190565b600060208284031215615ceb57600080fd5b8151610e6681615623565b8181038181111561456b5761456b615c32565b600060208284031215615d1b57600080fd5b5051919050565b6020808252600790820152664c6f77204a424360c81b604082015260600190565b634e487b7160e01b600052603260045260246000fd5b91825260ff16602082015260400190565b938452602084019290925260ff166040830152606082015260800190565b602080825260089082015267111a5cd8589b195960c21b604082015260600190565b6020808252600490820152635a65726f60e01b604082015260600190565b600060018201615dda57615dda615c32565b5060010190565b60208082526004908201526327bb32b960e11b604082015260600190565b92835260ff919091166020830152604082015260600190565b634e487b7160e01b600052603160045260246000fd5b600081615e3d57615e3d615c32565b506000190190565b60008251615e578184602087016159b9565b919091019291505056fe9b3cc71482a1b2eebe764a739f46f1fe99291fd0183be81951532b29d0c9c8da6fcebd0a2ce98b28cb391d6008bbc769378c9a4919628e11639cb575cd320fcc360894a13ba1a3210667c828492db98dca3e2076cc3735a920a3ca505d382bbcb5987aab1afd379f6695f1068869ee8ca6a0d02304c57935a9cc3d3ea2e51e4d0ec3929061cbbbeecb325623e7d5a86c3dae11cb8a22ca45dc0972955657da25f381583145e90b82cc5e529bf4fc4d0e44397174cdf145c4251ac33ef195a424f3a670cd3af7d64b488926880889d08a8585a138ff455227af6737339a1ec262a26469706673582212208623a88cc6cd31b5a0ea3458f256b409e5d61a9ed9ce1b6fc7dc16e47f32836564736f6c63430008160033",
  "linkReferences": {},
  "deployedLinkReferences": {}
}