{
  "_format": "hh-sol-artifact-1",
  "contractName": "JinbaoProtocol",
  "sourceName": "contracts/JinbaoProtocol.sol",
  "abi": [
    {
      "inputs": [
        {
          "internalType": "address",
          "name": "_mcToken",
          "type": "address"
        },
        {
          "internalType": "address",
          "name": "_jbcToken",
          "type": "address"
        },
        {
          "internalType": "address",
          "name": "_marketing",
          "type": "address"
        },
        {
          "internalType": "address",
          "name": "_treasury",
          "type": "address"
        },
        {
          "internalType": "address",
          "name": "_lpInjection",
          "type": "address"
        },
        {
          "internalType": "address",
          "name": "_buyback",
          "type": "address"
        }
      ],
      "stateMutability": "nonpayable",
      "type": "constructor"
    },
    {
      "inputs": [
        {
          "internalType": "address",
          "name": "owner",
          "type": "address"
        }
      ],
      "name": "OwnableInvalidOwner",
      "type": "error"
    },
    {
      "inputs": [
        {
          "internalType": "address",
          "name": "account",
          "type": "address"
        }
      ],
      "name": "OwnableUnauthorizedAccount",
      "type": "error"
    },
    {
      "inputs": [],
      "name": "ReentrancyGuardReentrantCall",
      "type": "error"
    },
    {
      "anonymous": false,
      "inputs": [
        {
          "indexed": true,
          "internalType": "address",
          "name": "user",
          "type": "address"
        },
        {
          "indexed": true,
          "internalType": "address",
          "name": "referrer",
          "type": "address"
        }
      ],
      "name": "BoundReferrer",
      "type": "event"
    },
    {
      "anonymous": false,
      "inputs": [
        {
          "indexed": true,
          "internalType": "address",
          "name": "user",
          "type": "address"
        },
        {
          "indexed": false,
          "internalType": "uint256",
          "name": "amount",
          "type": "uint256"
        },
        {
          "indexed": false,
          "internalType": "uint256",
          "name": "cycleDays",
          "type": "uint256"
        }
      ],
      "name": "LiquidityStaked",
      "type": "event"
    },
    {
      "anonymous": false,
      "inputs": [
        {
          "indexed": true,
          "internalType": "address",
          "name": "previousOwner",
          "type": "address"
        },
        {
          "indexed": true,
          "internalType": "address",
          "name": "newOwner",
          "type": "address"
        }
      ],
      "name": "OwnershipTransferred",
      "type": "event"
    },
    {
      "anonymous": false,
      "inputs": [
        {
          "indexed": true,
          "internalType": "address",
          "name": "user",
          "type": "address"
        },
        {
          "indexed": false,
          "internalType": "uint256",
          "name": "principal",
          "type": "uint256"
        },
        {
          "indexed": false,
          "internalType": "uint256",
          "name": "fee",
          "type": "uint256"
        }
      ],
      "name": "Redeemed",
      "type": "event"
    },
    {
      "anonymous": false,
      "inputs": [
        {
          "indexed": true,
          "internalType": "address",
          "name": "user",
          "type": "address"
        },
        {
          "indexed": false,
          "internalType": "uint256",
          "name": "mcAmount",
          "type": "uint256"
        },
        {
          "indexed": false,
          "internalType": "uint256",
          "name": "jbcAmount",
          "type": "uint256"
        }
      ],
      "name": "RewardClaimed",
      "type": "event"
    },
    {
      "anonymous": false,
      "inputs": [
        {
          "indexed": true,
          "internalType": "address",
          "name": "user",
          "type": "address"
        },
        {
          "indexed": false,
          "internalType": "uint256",
          "name": "jbcAmount",
          "type": "uint256"
        },
        {
          "indexed": false,
          "internalType": "uint256",
          "name": "mcAmount",
          "type": "uint256"
        },
        {
          "indexed": false,
          "internalType": "uint256",
          "name": "tax",
          "type": "uint256"
        }
      ],
      "name": "SwappedJBCToMC",
      "type": "event"
    },
    {
      "anonymous": false,
      "inputs": [
        {
          "indexed": true,
          "internalType": "address",
          "name": "user",
          "type": "address"
        },
        {
          "indexed": false,
          "internalType": "uint256",
          "name": "mcAmount",
          "type": "uint256"
        },
        {
          "indexed": false,
          "internalType": "uint256",
          "name": "jbcAmount",
          "type": "uint256"
        },
        {
          "indexed": false,
          "internalType": "uint256",
          "name": "tax",
          "type": "uint256"
        }
      ],
      "name": "SwappedMCToJBC",
      "type": "event"
    },
    {
      "anonymous": false,
      "inputs": [
        {
          "indexed": true,
          "internalType": "address",
          "name": "user",
          "type": "address"
        },
        {
          "indexed": false,
          "internalType": "uint256",
          "name": "amount",
          "type": "uint256"
        }
      ],
      "name": "TicketPurchased",
      "type": "event"
    },
    {
      "inputs": [],
      "name": "SECONDS_IN_DAY",
      "outputs": [
        {
          "internalType": "uint256",
          "name": "",
          "type": "uint256"
        }
      ],
      "stateMutability": "view",
      "type": "function"
    },
    {
      "inputs": [
        {
          "internalType": "address",
          "name": "user",
          "type": "address"
        },
        {
          "internalType": "address",
          "name": "newReferrer",
          "type": "address"
        }
      ],
      "name": "adminSetReferrer",
      "outputs": [],
      "stateMutability": "nonpayable",
      "type": "function"
    },
    {
      "inputs": [
        {
          "internalType": "address",
          "name": "user",
          "type": "address"
        },
        {
          "internalType": "uint256",
          "name": "_activeDirects",
          "type": "uint256"
        },
        {
          "internalType": "uint256",
          "name": "_teamCount",
          "type": "uint256"
        }
      ],
      "name": "adminSetUserStats",
      "outputs": [],
      "stateMutability": "nonpayable",
      "type": "function"
    },
    {
      "inputs": [
        {
          "internalType": "address",
          "name": "_referrer",
          "type": "address"
        }
      ],
      "name": "bindReferrer",
      "outputs": [],
      "stateMutability": "nonpayable",
      "type": "function"
    },
    {
      "inputs": [
        {
          "internalType": "uint256",
          "name": "amount",
          "type": "uint256"
        }
      ],
      "name": "buyTicket",
      "outputs": [],
      "stateMutability": "nonpayable",
      "type": "function"
    },
    {
      "inputs": [],
      "name": "buybackPercent",
      "outputs": [
        {
          "internalType": "uint256",
          "name": "",
          "type": "uint256"
        }
      ],
      "stateMutability": "view",
      "type": "function"
    },
    {
      "inputs": [],
      "name": "buybackWallet",
      "outputs": [
        {
          "internalType": "address",
          "name": "",
          "type": "address"
        }
      ],
      "stateMutability": "view",
      "type": "function"
    },
    {
      "inputs": [],
      "name": "claimRewards",
      "outputs": [],
      "stateMutability": "nonpayable",
      "type": "function"
    },
    {
      "inputs": [
        {
          "internalType": "address",
          "name": "",
          "type": "address"
        },
        {
          "internalType": "uint256",
          "name": "",
          "type": "uint256"
        }
      ],
      "name": "directReferrals",
      "outputs": [
        {
          "internalType": "address",
          "name": "",
          "type": "address"
        }
      ],
      "stateMutability": "view",
      "type": "function"
    },
    {
      "inputs": [],
      "name": "directRewardPercent",
      "outputs": [
        {
          "internalType": "uint256",
          "name": "",
          "type": "uint256"
        }
      ],
      "stateMutability": "view",
      "type": "function"
    },
    {
      "inputs": [
        {
          "internalType": "address",
          "name": "_user",
          "type": "address"
        }
      ],
      "name": "getDirectReferrals",
      "outputs": [
        {
          "internalType": "address[]",
          "name": "",
          "type": "address[]"
        }
      ],
      "stateMutability": "view",
      "type": "function"
    },
    {
      "inputs": [
        {
          "internalType": "address",
          "name": "_user",
          "type": "address"
        }
      ],
      "name": "getDirectReferralsData",
      "outputs": [
        {
          "components": [
            {
              "internalType": "address",
              "name": "user",
              "type": "address"
            },
            {
              "internalType": "uint256",
              "name": "ticketAmount",
              "type": "uint256"
            },
            {
              "internalType": "uint256",
              "name": "joinTime",
              "type": "uint256"
            }
          ],
          "internalType": "struct JinbaoProtocol.ReferralData[]",
          "name": "",
          "type": "tuple[]"
        }
      ],
      "stateMutability": "view",
      "type": "function"
    },
    {
      "inputs": [],
      "name": "jbcToken",
      "outputs": [
        {
          "internalType": "contract IJBC",
          "name": "",
          "type": "address"
        }
      ],
      "stateMutability": "view",
      "type": "function"
    },
    {
      "inputs": [],
      "name": "levelRewardPercent",
      "outputs": [
        {
          "internalType": "uint256",
          "name": "",
          "type": "uint256"
        }
      ],
      "stateMutability": "view",
      "type": "function"
    },
    {
      "inputs": [],
      "name": "lpInjectionPercent",
      "outputs": [
        {
          "internalType": "uint256",
          "name": "",
          "type": "uint256"
        }
      ],
      "stateMutability": "view",
      "type": "function"
    },
    {
      "inputs": [],
      "name": "lpInjectionWallet",
      "outputs": [
        {
          "internalType": "address",
          "name": "",
          "type": "address"
        }
      ],
      "stateMutability": "view",
      "type": "function"
    },
    {
      "inputs": [],
      "name": "marketingPercent",
      "outputs": [
        {
          "internalType": "uint256",
          "name": "",
          "type": "uint256"
        }
      ],
      "stateMutability": "view",
      "type": "function"
    },
    {
      "inputs": [],
      "name": "marketingWallet",
      "outputs": [
        {
          "internalType": "address",
          "name": "",
          "type": "address"
        }
      ],
      "stateMutability": "view",
      "type": "function"
    },
    {
      "inputs": [],
      "name": "mcToken",
      "outputs": [
        {
          "internalType": "contract IERC20",
          "name": "",
          "type": "address"
        }
      ],
      "stateMutability": "view",
      "type": "function"
    },
    {
      "inputs": [],
      "name": "owner",
      "outputs": [
        {
          "internalType": "address",
          "name": "",
          "type": "address"
        }
      ],
      "stateMutability": "view",
      "type": "function"
    },
    {
      "inputs": [],
      "name": "redeem",
      "outputs": [],
      "stateMutability": "nonpayable",
      "type": "function"
    },
    {
      "inputs": [],
      "name": "redemptionFeePercent",
      "outputs": [
        {
          "internalType": "uint256",
          "name": "",
          "type": "uint256"
        }
      ],
      "stateMutability": "view",
      "type": "function"
    },
    {
      "inputs": [],
      "name": "renounceOwnership",
      "outputs": [],
      "stateMutability": "nonpayable",
      "type": "function"
    },
    {
      "inputs": [
        {
          "internalType": "uint256",
          "name": "_direct",
          "type": "uint256"
        },
        {
          "internalType": "uint256",
          "name": "_level",
          "type": "uint256"
        },
        {
          "internalType": "uint256",
          "name": "_marketing",
          "type": "uint256"
        },
        {
          "internalType": "uint256",
          "name": "_buyback",
          "type": "uint256"
        },
        {
          "internalType": "uint256",
          "name": "_lpInjection",
          "type": "uint256"
        },
        {
          "internalType": "uint256",
          "name": "_treasury",
          "type": "uint256"
        }
      ],
      "name": "setDistributionPercents",
      "outputs": [],
      "stateMutability": "nonpayable",
      "type": "function"
    },
    {
      "inputs": [
        {
          "internalType": "uint256",
          "name": "_fee",
          "type": "uint256"
        }
      ],
      "name": "setRedemptionFee",
      "outputs": [],
      "stateMutability": "nonpayable",
      "type": "function"
    },
    {
      "inputs": [
        {
          "internalType": "uint256",
          "name": "_buyTax",
          "type": "uint256"
        },
        {
          "internalType": "uint256",
          "name": "_sellTax",
          "type": "uint256"
        }
      ],
      "name": "setSwapTaxes",
      "outputs": [],
      "stateMutability": "nonpayable",
      "type": "function"
    },
    {
      "inputs": [
        {
          "internalType": "address",
          "name": "_marketing",
          "type": "address"
        },
        {
          "internalType": "address",
          "name": "_treasury",
          "type": "address"
        },
        {
          "internalType": "address",
          "name": "_lpInjection",
          "type": "address"
        },
        {
          "internalType": "address",
          "name": "_buyback",
          "type": "address"
        }
      ],
      "name": "setWallets",
      "outputs": [],
      "stateMutability": "nonpayable",
      "type": "function"
    },
    {
      "inputs": [
        {
          "internalType": "uint256",
          "name": "cycleDays",
          "type": "uint256"
        }
      ],
      "name": "stakeLiquidity",
      "outputs": [],
      "stateMutability": "nonpayable",
      "type": "function"
    },
    {
      "inputs": [],
      "name": "swapBuyTax",
      "outputs": [
        {
          "internalType": "uint256",
          "name": "",
          "type": "uint256"
        }
      ],
      "stateMutability": "view",
      "type": "function"
    },
    {
      "inputs": [
        {
          "internalType": "uint256",
          "name": "jbcAmount",
          "type": "uint256"
        }
      ],
      "name": "swapJBCToMC",
      "outputs": [],
      "stateMutability": "nonpayable",
      "type": "function"
    },
    {
      "inputs": [
        {
          "internalType": "uint256",
          "name": "mcAmount",
          "type": "uint256"
        }
      ],
      "name": "swapMCToJBC",
      "outputs": [],
      "stateMutability": "nonpayable",
      "type": "function"
    },
    {
      "inputs": [],
      "name": "swapSellTax",
      "outputs": [
        {
          "internalType": "uint256",
          "name": "",
          "type": "uint256"
        }
      ],
      "stateMutability": "view",
      "type": "function"
    },
    {
      "inputs": [
        {
          "internalType": "address",
          "name": "newOwner",
          "type": "address"
        }
      ],
      "name": "transferOwnership",
      "outputs": [],
      "stateMutability": "nonpayable",
      "type": "function"
    },
    {
      "inputs": [],
      "name": "treasuryPercent",
      "outputs": [
        {
          "internalType": "uint256",
          "name": "",
          "type": "uint256"
        }
      ],
      "stateMutability": "view",
      "type": "function"
    },
    {
      "inputs": [],
      "name": "treasuryWallet",
      "outputs": [
        {
          "internalType": "address",
          "name": "",
          "type": "address"
        }
      ],
      "stateMutability": "view",
      "type": "function"
    },
    {
      "inputs": [
        {
          "internalType": "address",
          "name": "",
          "type": "address"
        }
      ],
      "name": "userInfo",
      "outputs": [
        {
          "internalType": "address",
          "name": "referrer",
          "type": "address"
        },
        {
          "internalType": "uint256",
          "name": "activeDirects",
          "type": "uint256"
        },
        {
          "internalType": "uint256",
          "name": "teamCount",
          "type": "uint256"
        },
        {
          "internalType": "uint256",
          "name": "totalRevenue",
          "type": "uint256"
        },
        {
          "internalType": "uint256",
          "name": "currentCap",
          "type": "uint256"
        },
        {
          "internalType": "bool",
          "name": "isActive",
          "type": "bool"
        }
      ],
      "stateMutability": "view",
      "type": "function"
    },
    {
      "inputs": [
        {
          "internalType": "address",
          "name": "",
          "type": "address"
        }
      ],
      "name": "userTicket",
      "outputs": [
        {
          "internalType": "uint256",
          "name": "amount",
          "type": "uint256"
        },
        {
          "internalType": "uint256",
          "name": "requiredLiquidity",
          "type": "uint256"
        },
        {
          "internalType": "uint256",
          "name": "purchaseTime",
          "type": "uint256"
        },
        {
          "internalType": "bool",
          "name": "liquidityProvided",
          "type": "bool"
        },
        {
          "internalType": "uint256",
          "name": "liquidityAmount",
          "type": "uint256"
        },
        {
          "internalType": "uint256",
          "name": "startTime",
          "type": "uint256"
        },
        {
          "internalType": "uint256",
          "name": "cycleDays",
          "type": "uint256"
        },
        {
          "internalType": "bool",
          "name": "redeemed",
          "type": "bool"
        }
      ],
      "stateMutability": "view",
      "type": "function"
    }
  ],
  "bytecode": "0x608060405260016008556019600955600f600a556005600b556005600c556019600d556019600e556032600f5560196010553480156200003e57600080fd5b5060405162002a1138038062002a11833981016040819052620000619162000178565b33806200008857604051631e4fbdf760e01b81526000600482015260240160405180910390fd5b62000093816200010b565b5060018055600280546001600160a01b03199081166001600160a01b0398891617909155600380548216968816969096179095556004805486169487169490941790935560058054851692861692909217909155600680548416918516919091179055600780549092169216919091179055620001f9565b600080546001600160a01b038381166001600160a01b0319831681178455604051919092169283917f8be0079c531659141344cd1fd0a4f28419497f9722a3daafe3b4186f6b6457e09190a35050565b80516001600160a01b03811681146200017357600080fd5b919050565b60008060008060008060c087890312156200019257600080fd5b6200019d876200015b565b9550620001ad602088016200015b565b9450620001bd604088016200015b565b9350620001cd606088016200015b565b9250620001dd608088016200015b565b9150620001ed60a088016200015b565b90509295509295509295565b61280880620002096000396000f3fe608060405234801561001057600080fd5b50600436106102275760003560e01c806383672f3e11610130578063be040fb0116100b8578063deab8aea1161007c578063deab8aea14610559578063dec7fa3b1461056c578063e4412f6814610575578063ecda2d321461057e578063f2fde38b1461059157600080fd5b8063be040fb014610516578063ccf619441461051e578063ceaa366d14610527578063d2c8e0e514610530578063d8020a181461055057600080fd5b806390b0eb51116100ff57806390b0eb51146104cb5780639370b080146104de57806395253992146104e7578063a2af9226146104fa578063bd594dcf1461050d57600080fd5b806383672f3e146103ff5780638710bcaa1461041257806388fd4d33146104a75780638da5cb5b146104ba57600080fd5b8063372500ab116101b357806367dd74ca1161018257806367dd74ca146103ab5780636fb3c47c146103be578063715018a6146103d157806375f0a874146103d95780637dbc1df0146103ec57600080fd5b8063372500ab146103735780634626402b1461037b57806352778b051461038e57806361a52a36146103a157600080fd5b80630fc4fc1a116101fa5780630fc4fc1a1461029b5780631788513c146102bb5780631959a002146102ce57806327f082f414610357578063350763731461036057600080fd5b806304ef9d581461022c57806304f618cb1461024857806305ad39351461025d5780630a5c456714610288575b600080fd5b610235600e5481565b6040519081526020015b60405180910390f35b61025b610256366004612451565b6105a4565b005b61027061026b366004612473565b610711565b6040516001600160a01b03909116815260200161023f565b61025b61029636600461249d565b610749565b6102ae6102a9366004612451565b610a1d565b60405161023f91906124b6565b600354610270906001600160a01b031681565b61031e6102dc366004612451565b6011602052600090815260409020805460018201546002830154600384015460048501546005909501546001600160a01b039094169492939192909160ff1686565b604080516001600160a01b03909716875260208701959095529385019290925260608401526080830152151560a082015260c00161023f565b610235600f5481565b61025b61036e36600461249d565b610c0d565b61025b610e81565b600554610270906001600160a01b031681565b61025b61039c36600461249d565b61137c565b6102356201518081565b61025b6103b936600461249d565b61163a565b61025b6103cc366004612518565b611d24565b61025b611d53565b600454610270906001600160a01b031681565b61025b6103fa36600461249d565b611d65565b61025b61040d36600461254b565b611d72565b61046a610420366004612451565b6012602052600090815260409020805460018201546002830154600384015460048501546005860154600687015460079097015495969495939460ff938416949293919290911688565b604080519889526020890197909752958701949094529115156060860152608085015260a084015260c0830152151560e08201526101000161023f565b600654610270906001600160a01b031681565b6000546001600160a01b0316610270565b61025b6104d936600461259f565b611dca565b61023560105481565b600254610270906001600160a01b031681565b61025b6105083660046125c1565b611ddd565b610235600a5481565b61025b611fe3565b61023560095481565b610235600d5481565b61054361053e366004612451565b61223f565b60405161023f91906125f4565b610235600b5481565b600754610270906001600160a01b031681565b61023560085481565b610235600c5481565b61025b61058c366004612641565b6122b5565b61025b61059f366004612451565b612353565b336000908152601160205260409020546001600160a01b0316156105ff5760405162461bcd60e51b815260206004820152600d60248201526c105b1c9958591e48189bdd5b99609a1b60448201526064015b60405180910390fd5b336001600160a01b0382160361064a5760405162461bcd60e51b815260206004820152601060248201526f21b0b73737ba103134b7321039b2b63360811b60448201526064016105f6565b6001600160a01b0381166106935760405162461bcd60e51b815260206004820152601060248201526f24b73b30b634b2103932b332b93932b960811b60448201526064016105f6565b33600081815260116020908152604080832080546001600160a01b0387166001600160a01b0319918216811790925581855260138452828520805460018101825590865293852090930180549093168517909255519092917fa6dbb5aa28f35437de94d685d66edce5fb4812196b4984b91dfd5a7b38c0fb3091a350565b6013602052816000526040600020818154811061072d57600080fd5b6000918252602090912001546001600160a01b03169150829050565b61075161238e565b600081116107925760405162461bcd60e51b815260206004820152600e60248201526d125b9d985b1a5908185b5bdd5b9d60921b60448201526064016105f6565b6002546040516323b872dd60e01b81526001600160a01b03909116906323b872dd906107c690339030908690600401612684565b6020604051808303816000875af11580156107e5573d6000803e3d6000fd5b505050506040513d601f19601f8201168201806040525081019061080991906126a8565b50600f54819060009060649061081f90846126e0565b61082991906126fd565b90506000610837828461271f565b6003546040516370a0823160e01b815230600482015291925084916001600160a01b03909116906370a0823190602401602060405180830381865afa158015610884573d6000803e3d6000fd5b505050506040513d601f19601f820116820180604052508101906108a89190612732565b10156108f65760405162461bcd60e51b815260206004820152601a60248201527f496e73756666696369656e74204a4243206c697175696469747900000000000060448201526064016105f6565b600354604051630852cd8d60e31b8152600481018490526001600160a01b03909116906342966c6890602401600060405180830381600087803b15801561093c57600080fd5b505af1158015610950573d6000803e3d6000fd5b505060035460405163a9059cbb60e01b81526001600160a01b03909116925063a9059cbb9150610986903390859060040161274b565b6020604051808303816000875af11580156109a5573d6000803e3d6000fd5b505050506040513d601f19601f820116820180604052508101906109c991906126a8565b50604080518581526020810183905290810183905233907f36864aeefce16bc4aaceeb6b0cdfb2ad1455a8cb4ccb0db148a2bc6e7166f97c906060015b60405180910390a2505050610a1a60018055565b50565b6001600160a01b0381166000908152601360209081526040808320805482518185028101850190935280835260609493830182828015610a8657602002820191906000526020600020905b81546001600160a01b03168152600190910190602001808311610a68575b505050505090506000815167ffffffffffffffff811115610aa957610aa9612764565b604051908082528060200260200182016040528015610b0757816020015b610af4604051806060016040528060006001600160a01b0316815260200160008152602001600081525090565b815260200190600190039081610ac75790505b50905060005b8251811015610c05576040518060600160405280848381518110610b3357610b3361277a565b60200260200101516001600160a01b0316815260200160126000868581518110610b5f57610b5f61277a565b60200260200101516001600160a01b03166001600160a01b0316815260200190815260200160002060000154815260200160126000868581518110610ba657610ba661277a565b60200260200101516001600160a01b03166001600160a01b0316815260200190815260200160002060020154815250828281518110610be757610be761277a565b60200260200101819052508080610bfd90612790565b915050610b0d565b509392505050565b610c1561238e565b336000908152601260205260409020805415801590610c395750600381015460ff16155b610c775760405162461bcd60e51b815260206004820152600f60248201526e139bc81d985b1a59081d1a58dad95d608a1b60448201526064016105f6565b6002810154610c89906203f4806127a9565b421115610cc95760405162461bcd60e51b815260206004820152600e60248201526d151a58dad95d08195e1c1a5c995960921b60448201526064016105f6565b8160071480610cd8575081600f145b80610ce3575081601e145b610d1f5760405162461bcd60e51b815260206004820152600d60248201526c496e76616c6964206379636c6560981b60448201526064016105f6565b60018101546002546040516323b872dd60e01b81526001600160a01b03909116906323b872dd90610d5890339030908690600401612684565b6020604051808303816000875af1158015610d77573d6000803e3d6000fd5b505050506040513d601f19601f82011682018060405250810190610d9b91906126a8565b5060038201805460ff191660011790556004820181905542600583015560068201839055336000908152601160205260409020546001600160a01b03168015801590610dfa57503360009081526011602052604090206005015460ff16155b15610e49576001600160a01b0381166000908152601160205260408120600101805491610e2683612790565b9091555050336000908152601160205260409020600501805460ff191660011790555b604080518381526020810186905233917f1e54d7530dad81af38adb8ca9db02add3130668375f37be85396403616fc3d499101610a06565b610e8961238e565b336000908152601260205260409020600381015460ff168015610eb15750600781015460ff16155b610eea5760405162461bcd60e51b815260206004820152600a6024820152694e6f742061637469766560b01b60448201526064016105f6565b60008160060154600703610f0057506014610f24565b8160060154600f03610f1457506019610f24565b8160060154601e03610f245750601e5b600062015180836005015442610f3a919061271f565b610f4491906126fd565b905060008111610f875760405162461bcd60e51b815260206004820152600e60248201526d139bc81c995dd85c991cc81e595d60921b60448201526064016105f6565b8260060154811115610f9a575060068201545b60006103e882848660000154610fb091906126e0565b610fba91906126e0565b610fc491906126fd565b336000908152601160205260409020600481015460039091015491925090610fed9083906127a9565b111561101a573360009081526011602052604090206003810154600490910154611017919061271f565b90505b600081116110605760405162461bcd60e51b81526020600482015260136024820152724e6f207265776172647320746f20636c61696d60681b60448201526064016105f6565b33600090815260116020526040812060030180548392906110829084906127a9565b90915550600090506110956002836126fd565b905060006110a46002846126fd565b6002546040516370a0823160e01b815230600482015291925083916001600160a01b03909116906370a0823190602401602060405180830381865afa1580156110f1573d6000803e3d6000fd5b505050506040513d601f19601f820116820180604052508101906111159190612732565b10156111635760405162461bcd60e51b815260206004820152601760248201527f496e73756666696369656e74204d4320696e20706f6f6c00000000000000000060448201526064016105f6565b60025460405163a9059cbb60e01b81526001600160a01b039091169063a9059cbb90611195903390869060040161274b565b6020604051808303816000875af11580156111b4573d6000803e3d6000fd5b505050506040513d601f19601f820116820180604052508101906111d891906126a8565b50670de0b6b3a76400006000816111ef84826126e0565b6111f991906126fd565b6003546040516370a0823160e01b815230600482015291925082916001600160a01b03909116906370a0823190602401602060405180830381865afa158015611246573d6000803e3d6000fd5b505050506040513d601f19601f8201168201806040525081019061126a9190612732565b10156112b85760405162461bcd60e51b815260206004820152601860248201527f496e73756666696369656e74204a424320696e20706f6f6c000000000000000060448201526064016105f6565b60035460405163a9059cbb60e01b81526001600160a01b039091169063a9059cbb906112ea903390859060040161274b565b6020604051808303816000875af1158015611309573d6000803e3d6000fd5b505050506040513d601f19601f8201168201806040525081019061132d91906126a8565b50604080518581526020810183905233917ff01da32686223933d8a18a391060918c7f11a3648639edd87ae013e2e2731743910160405180910390a2505050505050505061137a60018055565b565b61138461238e565b600081116113c55760405162461bcd60e51b815260206004820152600e60248201526d125b9d985b1a5908185b5bdd5b9d60921b60448201526064016105f6565b6003546040516323b872dd60e01b81526001600160a01b03909116906323b872dd906113f990339030908690600401612684565b6020604051808303816000875af1158015611418573d6000803e3d6000fd5b505050506040513d601f19601f8201168201806040525081019061143c91906126a8565b50600060646010548361144f91906126e0565b61145991906126fd565b90506000611467828461271f565b600354604051630852cd8d60e31b8152600481018590529192506001600160a01b0316906342966c6890602401600060405180830381600087803b1580156114ae57600080fd5b505af11580156114c2573d6000803e3d6000fd5b50506002546040516370a0823160e01b81523060048201528493508392506001600160a01b03909116906370a0823190602401602060405180830381865afa158015611512573d6000803e3d6000fd5b505050506040513d601f19601f820116820180604052508101906115369190612732565b10156115845760405162461bcd60e51b815260206004820152601960248201527f496e73756666696369656e74204d43206c69717569646974790000000000000060448201526064016105f6565b60025460405163a9059cbb60e01b81526001600160a01b039091169063a9059cbb906115b6903390859060040161274b565b6020604051808303816000875af11580156115d5573d6000803e3d6000fd5b505050506040513d601f19601f820116820180604052508101906115f991906126a8565b50604080518581526020810183905290810184905233907f223c8ad0806f634524940a8595f819c5cfc7b1f4f4f45791269301df0a7e61d590606001610a06565b61164261238e565b8068056bc75e2d631000001480611661575080681043561a8829300000145b80611674575080681b1ae4d6e2ef500000145b80611687575080683635c9adc5dea00000145b6116c95760405162461bcd60e51b815260206004820152601360248201527224b73b30b634b2103a34b1b5b2ba103a34b2b960691b60448201526064016105f6565b3360009081526012602052604090206003015460ff1615806116fd57503360009081526012602052604090206007015460ff165b6117405760405162461bcd60e51b8152602060048201526014602482015273416374697665207469636b65742065786973747360601b60448201526064016105f6565b6002546040516323b872dd60e01b81526001600160a01b03909116906323b872dd9061177490339030908690600401612684565b6020604051808303816000875af1158015611793573d6000803e3d6000fd5b505050506040513d601f19601f820116820180604052508101906117b791906126a8565b50336000908152601160205260409020546001600160a01b0316801561186e576002546009546001600160a01b039091169063a9059cbb9083906064906117fe90876126e0565b61180891906126fd565b6040518363ffffffff1660e01b815260040161182592919061274b565b6020604051808303816000875af1158015611844573d6000803e3d6000fd5b505050506040513d601f19601f8201168201806040525081019061186891906126a8565b50611904565b6002546004546009546001600160a01b039283169263a9059cbb92169060649061189890876126e0565b6118a291906126fd565b6040518363ffffffff1660e01b81526004016118bf92919061274b565b6020604051808303816000875af11580156118de573d6000803e3d6000fd5b505050506040513d601f19601f8201168201806040525081019061190291906126a8565b505b600254600454600a546001600160a01b039283169263a9059cbb92169060649061192e90876126e0565b61193891906126fd565b6040518363ffffffff1660e01b815260040161195592919061274b565b6020604051808303816000875af1158015611974573d6000803e3d6000fd5b505050506040513d601f19601f8201168201806040525081019061199891906126a8565b50600254600454600b546001600160a01b039283169263a9059cbb9216906064906119c390876126e0565b6119cd91906126fd565b6040518363ffffffff1660e01b81526004016119ea92919061274b565b6020604051808303816000875af1158015611a09573d6000803e3d6000fd5b505050506040513d601f19601f82011682018060405250810190611a2d91906126a8565b50600254600754600c546001600160a01b039283169263a9059cbb921690606490611a5890876126e0565b611a6291906126fd565b6040518363ffffffff1660e01b8152600401611a7f92919061274b565b6020604051808303816000875af1158015611a9e573d6000803e3d6000fd5b505050506040513d601f19601f82011682018060405250810190611ac291906126a8565b50600254600654600d546001600160a01b039283169263a9059cbb921690606490611aed90876126e0565b611af791906126fd565b6040518363ffffffff1660e01b8152600401611b1492919061274b565b6020604051808303816000875af1158015611b33573d6000803e3d6000fd5b505050506040513d601f19601f82011682018060405250810190611b5791906126a8565b50600254600554600e546001600160a01b039283169263a9059cbb921690606490611b8290876126e0565b611b8c91906126fd565b6040518363ffffffff1660e01b8152600401611ba992919061274b565b6020604051808303816000875af1158015611bc8573d6000803e3d6000fd5b505050506040513d601f19601f82011682018060405250810190611bec91906126a8565b506040518061010001604052808381526020016064846096611c0e91906126e0565b611c1891906126fd565b815242602080830191909152600060408084018290526060808501839052608080860184905260a080870185905260c09687018590523385526012865293839020875181559487015160018601559186015160028501558501516003808501805492151560ff1993841617905591860151600485015591850151600584015592840151600683015560e090930151600790910180549115159190931617909155611cc39083906126e0565b33600081815260116020526040808220600481019490945560039093015590517f0668f5b446eb814fe35b3206f43f14bd8567ba04ddaf7a3ee56516929ab22ccb90611d129085815260200190565b60405180910390a250610a1a60018055565b611d2c6123b8565b6001600160a01b039092166000908152601160205260409020600181019190915560020155565b611d5b6123b8565b61137a60006123e5565b611d6d6123b8565b600855565b611d7a6123b8565b600480546001600160a01b039586166001600160a01b0319918216179091556005805494861694821694909417909355600680549285169284169290921790915560078054919093169116179055565b611dd26123b8565b600f91909155601055565b611de56123b8565b806001600160a01b0316826001600160a01b031603611e395760405162461bcd60e51b815260206004820152601060248201526f21b0b73737ba103134b7321039b2b63360811b60448201526064016105f6565b6001600160a01b03808316600090815260116020526040902080548383166001600160a01b0319821617909155168015611f90576001600160a01b0381166000908152601360205260408120905b8154811015611f8d57846001600160a01b0316828281548110611eac57611eac61277a565b6000918252602090912001546001600160a01b031603611f7b5781548290611ed69060019061271f565b81548110611ee657611ee661277a565b9060005260206000200160009054906101000a90046001600160a01b0316828281548110611f1657611f1661277a565b9060005260206000200160006101000a8154816001600160a01b0302191690836001600160a01b0316021790555081805480611f5457611f546127bc565b600082815260209020810160001990810180546001600160a01b0319169055019055611f8d565b80611f8581612790565b915050611e87565b50505b6001600160a01b03821615611fde576001600160a01b0382811660009081526013602090815260408220805460018101825590835291200180546001600160a01b0319169185169190911790555b505050565b611feb61238e565b336000908152601260205260409020600381015460ff1680156120135750600781015460ff16155b61204f5760405162461bcd60e51b815260206004820152600d60248201526c43616e6e6f742072656465656d60981b60448201526064016105f6565b600681015461206190620151806126e0565b816005015461207091906127a9565b4210156120b45760405162461bcd60e51b815260206004820152601260248201527110de58db19481b9bdd08199a5b9a5cda195960721b60448201526064016105f6565b6000606460085483600001546120ca91906126e0565b6120d491906126fd565b6002546040516323b872dd60e01b81529192506001600160a01b0316906323b872dd9061210990339030908690600401612684565b6020604051808303816000875af1158015612128573d6000803e3d6000fd5b505050506040513d601f19601f8201168201806040525081019061214c91906126a8565b5060025460048084015460405163a9059cbb60e01b81526001600160a01b039093169263a9059cbb9261218392339290910161274b565b6020604051808303816000875af11580156121a2573d6000803e3d6000fd5b505050506040513d601f19601f820116820180604052508101906121c691906126a8565b50600782018054600160ff19918216179091553360008181526011602090815260409182902060050180549094169093556004850154815190815292830184905290917ff3a670cd3af7d64b488926880889d08a8585a138ff455227af6737339a1ec262910160405180910390a2505061137a60018055565b6001600160a01b0381166000908152601360209081526040918290208054835181840281018401909452808452606093928301828280156122a957602002820191906000526020600020905b81546001600160a01b0316815260019091019060200180831161228b575b50505050509050919050565b6122bd6123b8565b808284866122cb898b6127a9565b6122d591906127a9565b6122df91906127a9565b6122e991906127a9565b6122f391906127a9565b6064146123365760405162461bcd60e51b81526020600482015260116024820152700546f74616c206d7573742062652031303607c1b60448201526064016105f6565b600995909555600a93909355600b91909155600c55600d55600e55565b61235b6123b8565b6001600160a01b03811661238557604051631e4fbdf760e01b8152600060048201526024016105f6565b610a1a816123e5565b6002600154036123b157604051633ee5aeb560e01b815260040160405180910390fd5b6002600155565b6000546001600160a01b0316331461137a5760405163118cdaa760e01b81523360048201526024016105f6565b600080546001600160a01b038381166001600160a01b0319831681178455604051919092169283917f8be0079c531659141344cd1fd0a4f28419497f9722a3daafe3b4186f6b6457e09190a35050565b80356001600160a01b038116811461244c57600080fd5b919050565b60006020828403121561246357600080fd5b61246c82612435565b9392505050565b6000806040838503121561248657600080fd5b61248f83612435565b946020939093013593505050565b6000602082840312156124af57600080fd5b5035919050565b602080825282518282018190526000919060409081850190868401855b8281101561250b57815180516001600160a01b03168552868101518786015285015185850152606090930192908501906001016124d3565b5091979650505050505050565b60008060006060848603121561252d57600080fd5b61253684612435565b95602085013595506040909401359392505050565b6000806000806080858703121561256157600080fd5b61256a85612435565b935061257860208601612435565b925061258660408601612435565b915061259460608601612435565b905092959194509250565b600080604083850312156125b257600080fd5b50508035926020909101359150565b600080604083850312156125d457600080fd5b6125dd83612435565b91506125eb60208401612435565b90509250929050565b6020808252825182820181905260009190848201906040850190845b818110156126355783516001600160a01b031683529284019291840191600101612610565b50909695505050505050565b60008060008060008060c0878903121561265a57600080fd5b505084359660208601359650604086013595606081013595506080810135945060a0013592509050565b6001600160a01b039384168152919092166020820152604081019190915260600190565b6000602082840312156126ba57600080fd5b8151801515811461246c57600080fd5b634e487b7160e01b600052601160045260246000fd5b80820281158282048414176126f7576126f76126ca565b92915050565b60008261271a57634e487b7160e01b600052601260045260246000fd5b500490565b818103818111156126f7576126f76126ca565b60006020828403121561274457600080fd5b5051919050565b6001600160a01b03929092168252602082015260400190565b634e487b7160e01b600052604160045260246000fd5b634e487b7160e01b600052603260045260246000fd5b6000600182016127a2576127a26126ca565b5060010190565b808201808211156126f7576126f76126ca565b634e487b7160e01b600052603160045260246000fdfea264697066735822122064cbdb21fb10dbb7258e6643d16098cedf196df2fb6d6882cbdd1dc35cb3dfe164736f6c63430008140033",
  "linkReferences": {},
  "deployedLinkReferences": {}
}