{
  "_format": "hh-sol-artifact-1",
  "contractName": "JinbaoProtocol",
  "sourceName": "contracts/JinbaoProtocol.sol",
  "abi": [
    {
      "inputs": [],
      "stateMutability": "nonpayable",
      "type": "constructor"
    },
    {
      "inputs": [
        {
          "internalType": "address",
          "name": "target",
          "type": "address"
        }
      ],
      "name": "AddressEmptyCode",
      "type": "error"
    },
    {
      "inputs": [],
      "name": "AlreadyBound",
      "type": "error"
    },
    {
      "inputs": [],
      "name": "AlreadyExited",
      "type": "error"
    },
    {
      "inputs": [],
      "name": "BatchUpdateSizeMismatch",
      "type": "error"
    },
    {
      "inputs": [
        {
          "internalType": "address",
          "name": "implementation",
          "type": "address"
        }
      ],
      "name": "ERC1967InvalidImplementation",
      "type": "error"
    },
    {
      "inputs": [],
      "name": "ERC1967NonPayable",
      "type": "error"
    },
    {
      "inputs": [],
      "name": "Expired",
      "type": "error"
    },
    {
      "inputs": [],
      "name": "FailedCall",
      "type": "error"
    },
    {
      "inputs": [],
      "name": "InsufficientBalance",
      "type": "error"
    },
    {
      "inputs": [],
      "name": "InvalidAddress",
      "type": "error"
    },
    {
      "inputs": [],
      "name": "InvalidAmount",
      "type": "error"
    },
    {
      "inputs": [],
      "name": "InvalidCycle",
      "type": "error"
    },
    {
      "inputs": [],
      "name": "InvalidFee",
      "type": "error"
    },
    {
      "inputs": [],
      "name": "InvalidInitialization",
      "type": "error"
    },
    {
      "inputs": [],
      "name": "InvalidLevelConfig",
      "type": "error"
    },
    {
      "inputs": [],
      "name": "InvalidRate",
      "type": "error"
    },
    {
      "inputs": [],
      "name": "InvalidTax",
      "type": "error"
    },
    {
      "inputs": [],
      "name": "InvalidTeamCountUpdate",
      "type": "error"
    },
    {
      "inputs": [],
      "name": "LowLiquidity",
      "type": "error"
    },
    {
      "inputs": [],
      "name": "NoRewards",
      "type": "error"
    },
    {
      "inputs": [],
      "name": "NotActive",
      "type": "error"
    },
    {
      "inputs": [],
      "name": "NotInitializing",
      "type": "error"
    },
    {
      "inputs": [],
      "name": "NothingToRedeem",
      "type": "error"
    },
    {
      "inputs": [
        {
          "internalType": "address",
          "name": "owner",
          "type": "address"
        }
      ],
      "name": "OwnableInvalidOwner",
      "type": "error"
    },
    {
      "inputs": [
        {
          "internalType": "address",
          "name": "account",
          "type": "address"
        }
      ],
      "name": "OwnableUnauthorizedAccount",
      "type": "error"
    },
    {
      "inputs": [],
      "name": "RecursionDepthExceeded",
      "type": "error"
    },
    {
      "inputs": [],
      "name": "ReentrancyGuardReentrantCall",
      "type": "error"
    },
    {
      "inputs": [],
      "name": "SelfReference",
      "type": "error"
    },
    {
      "inputs": [],
      "name": "SumNot100",
      "type": "error"
    },
    {
      "inputs": [
        {
          "internalType": "address",
          "name": "user",
          "type": "address"
        },
        {
          "internalType": "uint256",
          "name": "expected",
          "type": "uint256"
        },
        {
          "internalType": "uint256",
          "name": "actual",
          "type": "uint256"
        }
      ],
      "name": "TeamCountMismatch",
      "type": "error"
    },
    {
      "inputs": [],
      "name": "TeamCountOverflow",
      "type": "error"
    },
    {
      "inputs": [],
      "name": "TransferFailed",
      "type": "error"
    },
    {
      "inputs": [],
      "name": "UUPSUnauthorizedCallContext",
      "type": "error"
    },
    {
      "inputs": [
        {
          "internalType": "bytes32",
          "name": "slot",
          "type": "bytes32"
        }
      ],
      "name": "UUPSUnsupportedProxiableUUID",
      "type": "error"
    },
    {
      "inputs": [],
      "name": "Unauthorized",
      "type": "error"
    },
    {
      "anonymous": false,
      "inputs": [
        {
          "indexed": false,
          "internalType": "uint256",
          "name": "usersUpdated",
          "type": "uint256"
        }
      ],
      "name": "BatchTeamCountsUpdated",
      "type": "event"
    },
    {
      "anonymous": false,
      "inputs": [
        {
          "indexed": true,
          "internalType": "address",
          "name": "user",
          "type": "address"
        },
        {
          "indexed": true,
          "internalType": "address",
          "name": "referrer",
          "type": "address"
        }
      ],
      "name": "BoundReferrer",
      "type": "event"
    },
    {
      "anonymous": false,
      "inputs": [
        {
          "indexed": false,
          "internalType": "uint256",
          "name": "mcAmount",
          "type": "uint256"
        },
        {
          "indexed": false,
          "internalType": "uint256",
          "name": "jbcBurned",
          "type": "uint256"
        }
      ],
      "name": "BuybackAndBurn",
      "type": "event"
    },
    {
      "anonymous": false,
      "inputs": [
        {
          "indexed": true,
          "internalType": "uint256",
          "name": "stakeId",
          "type": "uint256"
        },
        {
          "indexed": true,
          "internalType": "address",
          "name": "upline",
          "type": "address"
        },
        {
          "indexed": false,
          "internalType": "uint256",
          "name": "amount",
          "type": "uint256"
        }
      ],
      "name": "DifferentialRewardRecorded",
      "type": "event"
    },
    {
      "anonymous": false,
      "inputs": [
        {
          "indexed": true,
          "internalType": "uint256",
          "name": "stakeId",
          "type": "uint256"
        },
        {
          "indexed": true,
          "internalType": "address",
          "name": "upline",
          "type": "address"
        },
        {
          "indexed": false,
          "internalType": "uint256",
          "name": "amount",
          "type": "uint256"
        }
      ],
      "name": "DifferentialRewardReleased",
      "type": "event"
    },
    {
      "anonymous": false,
      "inputs": [
        {
          "indexed": false,
          "internalType": "uint256",
          "name": "direct",
          "type": "uint256"
        },
        {
          "indexed": false,
          "internalType": "uint256",
          "name": "level",
          "type": "uint256"
        },
        {
          "indexed": false,
          "internalType": "uint256",
          "name": "marketing",
          "type": "uint256"
        },
        {
          "indexed": false,
          "internalType": "uint256",
          "name": "buyback",
          "type": "uint256"
        },
        {
          "indexed": false,
          "internalType": "uint256",
          "name": "lpInjection",
          "type": "uint256"
        },
        {
          "indexed": false,
          "internalType": "uint256",
          "name": "treasury",
          "type": "uint256"
        }
      ],
      "name": "DistributionConfigUpdated",
      "type": "event"
    },
    {
      "anonymous": false,
      "inputs": [],
      "name": "EmergencyPaused",
      "type": "event"
    },
    {
      "anonymous": false,
      "inputs": [],
      "name": "EmergencyUnpaused",
      "type": "event"
    },
    {
      "anonymous": false,
      "inputs": [
        {
          "indexed": true,
          "internalType": "address",
          "name": "user",
          "type": "address"
        },
        {
          "indexed": false,
          "internalType": "uint256",
          "name": "ticketId",
          "type": "uint256"
        }
      ],
      "name": "Exited",
      "type": "event"
    },
    {
      "anonymous": false,
      "inputs": [
        {
          "indexed": true,
          "internalType": "address",
          "name": "user",
          "type": "address"
        },
        {
          "indexed": false,
          "internalType": "uint256",
          "name": "amount",
          "type": "uint256"
        }
      ],
      "name": "FeeRefunded",
      "type": "event"
    },
    {
      "anonymous": false,
      "inputs": [
        {
          "indexed": false,
          "internalType": "uint64",
          "name": "version",
          "type": "uint64"
        }
      ],
      "name": "Initialized",
      "type": "event"
    },
    {
      "anonymous": false,
      "inputs": [],
      "name": "LevelConfigsUpdated",
      "type": "event"
    },
    {
      "anonymous": false,
      "inputs": [
        {
          "indexed": false,
          "internalType": "uint256",
          "name": "amount",
          "type": "uint256"
        },
        {
          "indexed": false,
          "internalType": "uint256",
          "name": "newTotal",
          "type": "uint256"
        }
      ],
      "name": "LevelRewardPoolUpdated",
      "type": "event"
    },
    {
      "anonymous": false,
      "inputs": [
        {
          "indexed": true,
          "internalType": "address",
          "name": "to",
          "type": "address"
        },
        {
          "indexed": false,
          "internalType": "uint256",
          "name": "amount",
          "type": "uint256"
        }
      ],
      "name": "LevelRewardPoolWithdrawn",
      "type": "event"
    },
    {
      "anonymous": false,
      "inputs": [
        {
          "indexed": true,
          "internalType": "uint256",
          "name": "ticketId",
          "type": "uint256"
        },
        {
          "indexed": true,
          "internalType": "address",
          "name": "upline",
          "type": "address"
        },
        {
          "indexed": false,
          "internalType": "uint256",
          "name": "amount",
          "type": "uint256"
        }
      ],
      "name": "LevelRewardRecorded",
      "type": "event"
    },
    {
      "anonymous": false,
      "inputs": [
        {
          "indexed": true,
          "internalType": "uint256",
          "name": "ticketId",
          "type": "uint256"
        },
        {
          "indexed": true,
          "internalType": "address",
          "name": "upline",
          "type": "address"
        },
        {
          "indexed": false,
          "internalType": "uint256",
          "name": "amount",
          "type": "uint256"
        }
      ],
      "name": "LevelRewardReleased",
      "type": "event"
    },
    {
      "anonymous": false,
      "inputs": [
        {
          "indexed": false,
          "internalType": "uint256",
          "name": "mcAmount",
          "type": "uint256"
        },
        {
          "indexed": false,
          "internalType": "uint256",
          "name": "jbcAmount",
          "type": "uint256"
        }
      ],
      "name": "LiquidityAdded",
      "type": "event"
    },
    {
      "anonymous": false,
      "inputs": [
        {
          "indexed": true,
          "internalType": "address",
          "name": "user",
          "type": "address"
        },
        {
          "indexed": false,
          "internalType": "uint256",
          "name": "amount",
          "type": "uint256"
        },
        {
          "indexed": false,
          "internalType": "uint256",
          "name": "cycleDays",
          "type": "uint256"
        },
        {
          "indexed": false,
          "internalType": "uint256",
          "name": "stakeId",
          "type": "uint256"
        }
      ],
      "name": "LiquidityStaked",
      "type": "event"
    },
    {
      "anonymous": false,
      "inputs": [
        {
          "indexed": false,
          "internalType": "bool",
          "name": "enabled",
          "type": "bool"
        }
      ],
      "name": "LiquidityStatusUpdated",
      "type": "event"
    },
    {
      "anonymous": false,
      "inputs": [
        {
          "indexed": true,
          "internalType": "address",
          "name": "previousOwner",
          "type": "address"
        },
        {
          "indexed": true,
          "internalType": "address",
          "name": "newOwner",
          "type": "address"
        }
      ],
      "name": "OwnershipTransferred",
      "type": "event"
    },
    {
      "anonymous": false,
      "inputs": [
        {
          "indexed": false,
          "internalType": "bool",
          "name": "enabled",
          "type": "bool"
        }
      ],
      "name": "RedeemStatusUpdated",
      "type": "event"
    },
    {
      "anonymous": false,
      "inputs": [
        {
          "indexed": true,
          "internalType": "address",
          "name": "user",
          "type": "address"
        },
        {
          "indexed": false,
          "internalType": "uint256",
          "name": "principal",
          "type": "uint256"
        },
        {
          "indexed": false,
          "internalType": "uint256",
          "name": "fee",
          "type": "uint256"
        }
      ],
      "name": "Redeemed",
      "type": "event"
    },
    {
      "anonymous": false,
      "inputs": [
        {
          "indexed": false,
          "internalType": "uint256",
          "name": "newFee",
          "type": "uint256"
        }
      ],
      "name": "RedemptionFeeUpdated",
      "type": "event"
    },
    {
      "anonymous": false,
      "inputs": [
        {
          "indexed": true,
          "internalType": "address",
          "name": "user",
          "type": "address"
        },
        {
          "indexed": true,
          "internalType": "address",
          "name": "from",
          "type": "address"
        },
        {
          "indexed": false,
          "internalType": "uint256",
          "name": "mcAmount",
          "type": "uint256"
        },
        {
          "indexed": false,
          "internalType": "uint8",
          "name": "rewardType",
          "type": "uint8"
        },
        {
          "indexed": false,
          "internalType": "uint256",
          "name": "ticketId",
          "type": "uint256"
        }
      ],
      "name": "ReferralRewardPaid",
      "type": "event"
    },
    {
      "anonymous": false,
      "inputs": [
        {
          "indexed": true,
          "internalType": "address",
          "name": "user",
          "type": "address"
        },
        {
          "indexed": false,
          "internalType": "uint256",
          "name": "amount",
          "type": "uint256"
        },
        {
          "indexed": false,
          "internalType": "uint256",
          "name": "cappedAmount",
          "type": "uint256"
        }
      ],
      "name": "RewardCapped",
      "type": "event"
    },
    {
      "anonymous": false,
      "inputs": [
        {
          "indexed": true,
          "internalType": "address",
          "name": "user",
          "type": "address"
        },
        {
          "indexed": false,
          "internalType": "uint256",
          "name": "mcAmount",
          "type": "uint256"
        },
        {
          "indexed": false,
          "internalType": "uint256",
          "name": "jbcAmount",
          "type": "uint256"
        },
        {
          "indexed": false,
          "internalType": "uint8",
          "name": "rewardType",
          "type": "uint8"
        },
        {
          "indexed": false,
          "internalType": "uint256",
          "name": "ticketId",
          "type": "uint256"
        }
      ],
      "name": "RewardClaimed",
      "type": "event"
    },
    {
      "anonymous": false,
      "inputs": [
        {
          "indexed": true,
          "internalType": "address",
          "name": "user",
          "type": "address"
        },
        {
          "indexed": false,
          "internalType": "uint256",
          "name": "amount",
          "type": "uint256"
        },
        {
          "indexed": false,
          "internalType": "uint8",
          "name": "rewardType",
          "type": "uint8"
        }
      ],
      "name": "RewardPaid",
      "type": "event"
    },
    {
      "anonymous": false,
      "inputs": [
        {
          "indexed": false,
          "internalType": "uint256",
          "name": "mcAmount",
          "type": "uint256"
        },
        {
          "indexed": false,
          "internalType": "uint256",
          "name": "jbcAmount",
          "type": "uint256"
        }
      ],
      "name": "SwapReservesWithdrawn",
      "type": "event"
    },
    {
      "anonymous": false,
      "inputs": [
        {
          "indexed": false,
          "internalType": "uint256",
          "name": "buyTax",
          "type": "uint256"
        },
        {
          "indexed": false,
          "internalType": "uint256",
          "name": "sellTax",
          "type": "uint256"
        }
      ],
      "name": "SwapTaxesUpdated",
      "type": "event"
    },
    {
      "anonymous": false,
      "inputs": [
        {
          "indexed": true,
          "internalType": "address",
          "name": "user",
          "type": "address"
        },
        {
          "indexed": false,
          "internalType": "uint256",
          "name": "jbcAmount",
          "type": "uint256"
        },
        {
          "indexed": false,
          "internalType": "uint256",
          "name": "mcAmount",
          "type": "uint256"
        },
        {
          "indexed": false,
          "internalType": "uint256",
          "name": "tax",
          "type": "uint256"
        }
      ],
      "name": "SwappedJBCToMC",
      "type": "event"
    },
    {
      "anonymous": false,
      "inputs": [
        {
          "indexed": true,
          "internalType": "address",
          "name": "user",
          "type": "address"
        },
        {
          "indexed": false,
          "internalType": "uint256",
          "name": "mcAmount",
          "type": "uint256"
        },
        {
          "indexed": false,
          "internalType": "uint256",
          "name": "jbcAmount",
          "type": "uint256"
        },
        {
          "indexed": false,
          "internalType": "uint256",
          "name": "tax",
          "type": "uint256"
        }
      ],
      "name": "SwappedMCToJBC",
      "type": "event"
    },
    {
      "anonymous": false,
      "inputs": [
        {
          "indexed": true,
          "internalType": "uint256",
          "name": "stakeId",
          "type": "uint256"
        },
        {
          "indexed": true,
          "internalType": "address",
          "name": "upline",
          "type": "address"
        },
        {
          "indexed": false,
          "internalType": "uint256",
          "name": "amount",
          "type": "uint256"
        },
        {
          "indexed": false,
          "internalType": "uint256",
          "name": "teamCount",
          "type": "uint256"
        }
      ],
      "name": "TeamBasedRewardCalculated",
      "type": "event"
    },
    {
      "anonymous": false,
      "inputs": [
        {
          "indexed": true,
          "internalType": "address",
          "name": "user",
          "type": "address"
        },
        {
          "indexed": false,
          "internalType": "uint256",
          "name": "oldCount",
          "type": "uint256"
        },
        {
          "indexed": false,
          "internalType": "uint256",
          "name": "newCount",
          "type": "uint256"
        }
      ],
      "name": "TeamCountUpdated",
      "type": "event"
    },
    {
      "anonymous": false,
      "inputs": [
        {
          "indexed": true,
          "internalType": "address",
          "name": "user",
          "type": "address"
        },
        {
          "indexed": false,
          "internalType": "uint256",
          "name": "expected",
          "type": "uint256"
        },
        {
          "indexed": false,
          "internalType": "uint256",
          "name": "actual",
          "type": "uint256"
        }
      ],
      "name": "TeamCountValidationFailed",
      "type": "event"
    },
    {
      "anonymous": false,
      "inputs": [
        {
          "indexed": true,
          "internalType": "address",
          "name": "user",
          "type": "address"
        },
        {
          "indexed": false,
          "internalType": "uint256",
          "name": "ticketId",
          "type": "uint256"
        },
        {
          "indexed": false,
          "internalType": "uint256",
          "name": "amount",
          "type": "uint256"
        }
      ],
      "name": "TicketExpired",
      "type": "event"
    },
    {
      "anonymous": false,
      "inputs": [
        {
          "indexed": false,
          "internalType": "uint256",
          "name": "newDuration",
          "type": "uint256"
        }
      ],
      "name": "TicketFlexibilityDurationUpdated",
      "type": "event"
    },
    {
      "anonymous": false,
      "inputs": [
        {
          "indexed": true,
          "internalType": "address",
          "name": "user",
          "type": "address"
        },
        {
          "indexed": false,
          "internalType": "uint256",
          "name": "amount",
          "type": "uint256"
        },
        {
          "indexed": false,
          "internalType": "uint256",
          "name": "ticketId",
          "type": "uint256"
        }
      ],
      "name": "TicketPurchased",
      "type": "event"
    },
    {
      "anonymous": false,
      "inputs": [
        {
          "indexed": false,
          "internalType": "address",
          "name": "token",
          "type": "address"
        },
        {
          "indexed": false,
          "internalType": "address",
          "name": "to",
          "type": "address"
        },
        {
          "indexed": false,
          "internalType": "uint256",
          "name": "amount",
          "type": "uint256"
        }
      ],
      "name": "TokensRescued",
      "type": "event"
    },
    {
      "anonymous": false,
      "inputs": [
        {
          "indexed": true,
          "internalType": "address",
          "name": "implementation",
          "type": "address"
        }
      ],
      "name": "Upgraded",
      "type": "event"
    },
    {
      "anonymous": false,
      "inputs": [
        {
          "indexed": false,
          "internalType": "address",
          "name": "marketing",
          "type": "address"
        },
        {
          "indexed": false,
          "internalType": "address",
          "name": "treasury",
          "type": "address"
        },
        {
          "indexed": false,
          "internalType": "address",
          "name": "lpInjection",
          "type": "address"
        },
        {
          "indexed": false,
          "internalType": "address",
          "name": "buyback",
          "type": "address"
        }
      ],
      "name": "WalletsUpdated",
      "type": "event"
    },
    {
      "inputs": [],
      "name": "MAX_PRICE_IMPACT",
      "outputs": [
        {
          "internalType": "uint256",
          "name": "",
          "type": "uint256"
        }
      ],
      "stateMutability": "view",
      "type": "function"
    },
    {
      "inputs": [],
      "name": "MIN_LIQUIDITY",
      "outputs": [
        {
          "internalType": "uint256",
          "name": "",
          "type": "uint256"
        }
      ],
      "stateMutability": "view",
      "type": "function"
    },
    {
      "inputs": [],
      "name": "REWARD_DIFFERENTIAL",
      "outputs": [
        {
          "internalType": "uint8",
          "name": "",
          "type": "uint8"
        }
      ],
      "stateMutability": "view",
      "type": "function"
    },
    {
      "inputs": [],
      "name": "REWARD_DIRECT",
      "outputs": [
        {
          "internalType": "uint8",
          "name": "",
          "type": "uint8"
        }
      ],
      "stateMutability": "view",
      "type": "function"
    },
    {
      "inputs": [],
      "name": "REWARD_DYNAMIC",
      "outputs": [
        {
          "internalType": "uint8",
          "name": "",
          "type": "uint8"
        }
      ],
      "stateMutability": "view",
      "type": "function"
    },
    {
      "inputs": [],
      "name": "REWARD_LEVEL",
      "outputs": [
        {
          "internalType": "uint8",
          "name": "",
          "type": "uint8"
        }
      ],
      "stateMutability": "view",
      "type": "function"
    },
    {
      "inputs": [],
      "name": "REWARD_STATIC",
      "outputs": [
        {
          "internalType": "uint8",
          "name": "",
          "type": "uint8"
        }
      ],
      "stateMutability": "view",
      "type": "function"
    },
    {
      "inputs": [],
      "name": "SECONDS_IN_UNIT",
      "outputs": [
        {
          "internalType": "uint256",
          "name": "",
          "type": "uint256"
        }
      ],
      "stateMutability": "view",
      "type": "function"
    },
    {
      "inputs": [],
      "name": "UPGRADE_INTERFACE_VERSION",
      "outputs": [
        {
          "internalType": "string",
          "name": "",
          "type": "string"
        }
      ],
      "stateMutability": "view",
      "type": "function"
    },
    {
      "inputs": [
        {
          "internalType": "uint256",
          "name": "mcAmount",
          "type": "uint256"
        },
        {
          "internalType": "uint256",
          "name": "jbcAmount",
          "type": "uint256"
        }
      ],
      "name": "addLiquidity",
      "outputs": [],
      "stateMutability": "nonpayable",
      "type": "function"
    },
    {
      "inputs": [
        {
          "internalType": "address[]",
          "name": "users",
          "type": "address[]"
        },
        {
          "internalType": "uint256[]",
          "name": "counts",
          "type": "uint256[]"
        }
      ],
      "name": "batchUpdateTeamCounts",
      "outputs": [],
      "stateMutability": "nonpayable",
      "type": "function"
    },
    {
      "inputs": [
        {
          "internalType": "address[]",
          "name": "users",
          "type": "address[]"
        },
        {
          "internalType": "uint256[]",
          "name": "volumes",
          "type": "uint256[]"
        }
      ],
      "name": "batchUpdateTeamVolumes",
      "outputs": [],
      "stateMutability": "nonpayable",
      "type": "function"
    },
    {
      "inputs": [
        {
          "internalType": "address",
          "name": "_referrer",
          "type": "address"
        }
      ],
      "name": "bindReferrer",
      "outputs": [],
      "stateMutability": "nonpayable",
      "type": "function"
    },
    {
      "inputs": [
        {
          "internalType": "uint256",
          "name": "amount",
          "type": "uint256"
        }
      ],
      "name": "buyTicket",
      "outputs": [],
      "stateMutability": "nonpayable",
      "type": "function"
    },
    {
      "inputs": [],
      "name": "buybackPercent",
      "outputs": [
        {
          "internalType": "uint256",
          "name": "",
          "type": "uint256"
        }
      ],
      "stateMutability": "view",
      "type": "function"
    },
    {
      "inputs": [],
      "name": "buybackWallet",
      "outputs": [
        {
          "internalType": "address",
          "name": "",
          "type": "address"
        }
      ],
      "stateMutability": "view",
      "type": "function"
    },
    {
      "inputs": [],
      "name": "claimRewards",
      "outputs": [],
      "stateMutability": "nonpayable",
      "type": "function"
    },
    {
      "inputs": [
        {
          "internalType": "address",
          "name": "",
          "type": "address"
        },
        {
          "internalType": "uint256",
          "name": "",
          "type": "uint256"
        }
      ],
      "name": "directReferrals",
      "outputs": [
        {
          "internalType": "address",
          "name": "",
          "type": "address"
        }
      ],
      "stateMutability": "view",
      "type": "function"
    },
    {
      "inputs": [],
      "name": "directRewardPercent",
      "outputs": [
        {
          "internalType": "uint256",
          "name": "",
          "type": "uint256"
        }
      ],
      "stateMutability": "view",
      "type": "function"
    },
    {
      "inputs": [],
      "name": "emergencyPause",
      "outputs": [],
      "stateMutability": "nonpayable",
      "type": "function"
    },
    {
      "inputs": [],
      "name": "emergencyPaused",
      "outputs": [
        {
          "internalType": "bool",
          "name": "",
          "type": "bool"
        }
      ],
      "stateMutability": "view",
      "type": "function"
    },
    {
      "inputs": [],
      "name": "emergencyUnpause",
      "outputs": [],
      "stateMutability": "nonpayable",
      "type": "function"
    },
    {
      "inputs": [
        {
          "internalType": "address",
          "name": "user",
          "type": "address"
        }
      ],
      "name": "getDirectReferrals",
      "outputs": [
        {
          "internalType": "address[]",
          "name": "",
          "type": "address[]"
        }
      ],
      "stateMutability": "view",
      "type": "function"
    },
    {
      "inputs": [],
      "name": "getJBCPrice",
      "outputs": [
        {
          "internalType": "uint256",
          "name": "",
          "type": "uint256"
        }
      ],
      "stateMutability": "view",
      "type": "function"
    },
    {
      "inputs": [
        {
          "internalType": "uint256",
          "name": "activeDirects",
          "type": "uint256"
        }
      ],
      "name": "getLevel",
      "outputs": [
        {
          "internalType": "uint256",
          "name": "level",
          "type": "uint256"
        },
        {
          "internalType": "uint256",
          "name": "percent",
          "type": "uint256"
        }
      ],
      "stateMutability": "pure",
      "type": "function"
    },
    {
      "inputs": [
        {
          "internalType": "uint256",
          "name": "teamCount",
          "type": "uint256"
        }
      ],
      "name": "getLevelByTeamCount",
      "outputs": [
        {
          "internalType": "uint256",
          "name": "level",
          "type": "uint256"
        },
        {
          "internalType": "uint256",
          "name": "percent",
          "type": "uint256"
        }
      ],
      "stateMutability": "pure",
      "type": "function"
    },
    {
      "inputs": [
        {
          "internalType": "uint256",
          "name": "activeDirects",
          "type": "uint256"
        }
      ],
      "name": "getLevelRewardLayers",
      "outputs": [
        {
          "internalType": "uint256",
          "name": "",
          "type": "uint256"
        }
      ],
      "stateMutability": "pure",
      "type": "function"
    },
    {
      "inputs": [
        {
          "internalType": "address",
          "name": "_mcToken",
          "type": "address"
        },
        {
          "internalType": "address",
          "name": "_jbcToken",
          "type": "address"
        },
        {
          "internalType": "address",
          "name": "_marketing",
          "type": "address"
        },
        {
          "internalType": "address",
          "name": "_treasury",
          "type": "address"
        },
        {
          "internalType": "address",
          "name": "_lpInjection",
          "type": "address"
        },
        {
          "internalType": "address",
          "name": "_buybackWallet",
          "type": "address"
        }
      ],
      "name": "initialize",
      "outputs": [],
      "stateMutability": "nonpayable",
      "type": "function"
    },
    {
      "inputs": [],
      "name": "jbcToken",
      "outputs": [
        {
          "internalType": "contract IJBC",
          "name": "",
          "type": "address"
        }
      ],
      "stateMutability": "view",
      "type": "function"
    },
    {
      "inputs": [],
      "name": "lastBurnTime",
      "outputs": [
        {
          "internalType": "uint256",
          "name": "",
          "type": "uint256"
        }
      ],
      "stateMutability": "view",
      "type": "function"
    },
    {
      "inputs": [
        {
          "internalType": "uint256",
          "name": "",
          "type": "uint256"
        }
      ],
      "name": "levelConfigs",
      "outputs": [
        {
          "internalType": "uint256",
          "name": "minDirects",
          "type": "uint256"
        },
        {
          "internalType": "uint256",
          "name": "level",
          "type": "uint256"
        },
        {
          "internalType": "uint256",
          "name": "percent",
          "type": "uint256"
        }
      ],
      "stateMutability": "view",
      "type": "function"
    },
    {
      "inputs": [],
      "name": "levelRewardPercent",
      "outputs": [
        {
          "internalType": "uint256",
          "name": "",
          "type": "uint256"
        }
      ],
      "stateMutability": "view",
      "type": "function"
    },
    {
      "inputs": [],
      "name": "levelRewardPool",
      "outputs": [
        {
          "internalType": "uint256",
          "name": "",
          "type": "uint256"
        }
      ],
      "stateMutability": "view",
      "type": "function"
    },
    {
      "inputs": [],
      "name": "liquidityEnabled",
      "outputs": [
        {
          "internalType": "bool",
          "name": "",
          "type": "bool"
        }
      ],
      "stateMutability": "view",
      "type": "function"
    },
    {
      "inputs": [],
      "name": "lpInjectionPercent",
      "outputs": [
        {
          "internalType": "uint256",
          "name": "",
          "type": "uint256"
        }
      ],
      "stateMutability": "view",
      "type": "function"
    },
    {
      "inputs": [],
      "name": "lpInjectionWallet",
      "outputs": [
        {
          "internalType": "address",
          "name": "",
          "type": "address"
        }
      ],
      "stateMutability": "view",
      "type": "function"
    },
    {
      "inputs": [],
      "name": "marketingPercent",
      "outputs": [
        {
          "internalType": "uint256",
          "name": "",
          "type": "uint256"
        }
      ],
      "stateMutability": "view",
      "type": "function"
    },
    {
      "inputs": [],
      "name": "marketingWallet",
      "outputs": [
        {
          "internalType": "address",
          "name": "",
          "type": "address"
        }
      ],
      "stateMutability": "view",
      "type": "function"
    },
    {
      "inputs": [],
      "name": "mcToken",
      "outputs": [
        {
          "internalType": "contract IERC20",
          "name": "",
          "type": "address"
        }
      ],
      "stateMutability": "view",
      "type": "function"
    },
    {
      "inputs": [],
      "name": "nextStakeId",
      "outputs": [
        {
          "internalType": "uint256",
          "name": "",
          "type": "uint256"
        }
      ],
      "stateMutability": "view",
      "type": "function"
    },
    {
      "inputs": [],
      "name": "nextTicketId",
      "outputs": [
        {
          "internalType": "uint256",
          "name": "",
          "type": "uint256"
        }
      ],
      "stateMutability": "view",
      "type": "function"
    },
    {
      "inputs": [],
      "name": "owner",
      "outputs": [
        {
          "internalType": "address",
          "name": "",
          "type": "address"
        }
      ],
      "stateMutability": "view",
      "type": "function"
    },
    {
      "inputs": [],
      "name": "priceOracle",
      "outputs": [
        {
          "internalType": "address",
          "name": "",
          "type": "address"
        }
      ],
      "stateMutability": "view",
      "type": "function"
    },
    {
      "inputs": [],
      "name": "proxiableUUID",
      "outputs": [
        {
          "internalType": "bytes32",
          "name": "",
          "type": "bytes32"
        }
      ],
      "stateMutability": "view",
      "type": "function"
    },
    {
      "inputs": [],
      "name": "redeem",
      "outputs": [],
      "stateMutability": "nonpayable",
      "type": "function"
    },
    {
      "inputs": [],
      "name": "redeemEnabled",
      "outputs": [
        {
          "internalType": "bool",
          "name": "",
          "type": "bool"
        }
      ],
      "stateMutability": "view",
      "type": "function"
    },
    {
      "inputs": [
        {
          "internalType": "uint256",
          "name": "stakeId",
          "type": "uint256"
        }
      ],
      "name": "redeemStake",
      "outputs": [],
      "stateMutability": "nonpayable",
      "type": "function"
    },
    {
      "inputs": [],
      "name": "redemptionFeePercent",
      "outputs": [
        {
          "internalType": "uint256",
          "name": "",
          "type": "uint256"
        }
      ],
      "stateMutability": "view",
      "type": "function"
    },
    {
      "inputs": [],
      "name": "renounceOwnership",
      "outputs": [],
      "stateMutability": "nonpayable",
      "type": "function"
    },
    {
      "inputs": [
        {
          "internalType": "address",
          "name": "_token",
          "type": "address"
        },
        {
          "internalType": "address",
          "name": "_to",
          "type": "address"
        },
        {
          "internalType": "uint256",
          "name": "_amount",
          "type": "uint256"
        }
      ],
      "name": "rescueTokens",
      "outputs": [],
      "stateMutability": "nonpayable",
      "type": "function"
    },
    {
      "inputs": [
        {
          "internalType": "uint256",
          "name": "_direct",
          "type": "uint256"
        },
        {
          "internalType": "uint256",
          "name": "_level",
          "type": "uint256"
        },
        {
          "internalType": "uint256",
          "name": "_marketing",
          "type": "uint256"
        },
        {
          "internalType": "uint256",
          "name": "_buyback",
          "type": "uint256"
        },
        {
          "internalType": "uint256",
          "name": "_lpInjection",
          "type": "uint256"
        },
        {
          "internalType": "uint256",
          "name": "_treasury",
          "type": "uint256"
        }
      ],
      "name": "setDistributionConfig",
      "outputs": [],
      "stateMutability": "nonpayable",
      "type": "function"
    },
    {
      "inputs": [
        {
          "internalType": "bool",
          "name": "_liquidityEnabled",
          "type": "bool"
        },
        {
          "internalType": "bool",
          "name": "_redeemEnabled",
          "type": "bool"
        }
      ],
      "name": "setOperationalStatus",
      "outputs": [],
      "stateMutability": "nonpayable",
      "type": "function"
    },
    {
      "inputs": [
        {
          "internalType": "address",
          "name": "_oracle",
          "type": "address"
        }
      ],
      "name": "setPriceOracle",
      "outputs": [],
      "stateMutability": "nonpayable",
      "type": "function"
    },
    {
      "inputs": [
        {
          "internalType": "uint256",
          "name": "_fee",
          "type": "uint256"
        }
      ],
      "name": "setRedemptionFeePercent",
      "outputs": [],
      "stateMutability": "nonpayable",
      "type": "function"
    },
    {
      "inputs": [
        {
          "internalType": "uint256",
          "name": "_buyTax",
          "type": "uint256"
        },
        {
          "internalType": "uint256",
          "name": "_sellTax",
          "type": "uint256"
        }
      ],
      "name": "setSwapTaxes",
      "outputs": [],
      "stateMutability": "nonpayable",
      "type": "function"
    },
    {
      "inputs": [
        {
          "internalType": "uint256",
          "name": "_duration",
          "type": "uint256"
        }
      ],
      "name": "setTicketFlexibilityDuration",
      "outputs": [],
      "stateMutability": "nonpayable",
      "type": "function"
    },
    {
      "inputs": [
        {
          "internalType": "address",
          "name": "_marketing",
          "type": "address"
        },
        {
          "internalType": "address",
          "name": "_treasury",
          "type": "address"
        },
        {
          "internalType": "address",
          "name": "_lpInjection",
          "type": "address"
        },
        {
          "internalType": "address",
          "name": "_buyback",
          "type": "address"
        }
      ],
      "name": "setWallets",
      "outputs": [],
      "stateMutability": "nonpayable",
      "type": "function"
    },
    {
      "inputs": [
        {
          "internalType": "uint256",
          "name": "amount",
          "type": "uint256"
        },
        {
          "internalType": "uint256",
          "name": "cycleDays",
          "type": "uint256"
        }
      ],
      "name": "stakeLiquidity",
      "outputs": [],
      "stateMutability": "nonpayable",
      "type": "function"
    },
    {
      "inputs": [
        {
          "internalType": "uint256",
          "name": "",
          "type": "uint256"
        }
      ],
      "name": "stakeOwner",
      "outputs": [
        {
          "internalType": "address",
          "name": "",
          "type": "address"
        }
      ],
      "stateMutability": "view",
      "type": "function"
    },
    {
      "inputs": [
        {
          "internalType": "uint256",
          "name": "",
          "type": "uint256"
        },
        {
          "internalType": "uint256",
          "name": "",
          "type": "uint256"
        }
      ],
      "name": "stakePendingRewards",
      "outputs": [
        {
          "internalType": "address",
          "name": "upline",
          "type": "address"
        },
        {
          "internalType": "uint256",
          "name": "amount",
          "type": "uint256"
        }
      ],
      "stateMutability": "view",
      "type": "function"
    },
    {
      "inputs": [],
      "name": "swapBuyTax",
      "outputs": [
        {
          "internalType": "uint256",
          "name": "",
          "type": "uint256"
        }
      ],
      "stateMutability": "view",
      "type": "function"
    },
    {
      "inputs": [
        {
          "internalType": "uint256",
          "name": "jbcAmount",
          "type": "uint256"
        }
      ],
      "name": "swapJBCToMC",
      "outputs": [],
      "stateMutability": "nonpayable",
      "type": "function"
    },
    {
      "inputs": [
        {
          "internalType": "uint256",
          "name": "mcAmount",
          "type": "uint256"
        }
      ],
      "name": "swapMCToJBC",
      "outputs": [],
      "stateMutability": "nonpayable",
      "type": "function"
    },
    {
      "inputs": [],
      "name": "swapReserveJBC",
      "outputs": [
        {
          "internalType": "uint256",
          "name": "",
          "type": "uint256"
        }
      ],
      "stateMutability": "view",
      "type": "function"
    },
    {
      "inputs": [],
      "name": "swapReserveMC",
      "outputs": [
        {
          "internalType": "uint256",
          "name": "",
          "type": "uint256"
        }
      ],
      "stateMutability": "view",
      "type": "function"
    },
    {
      "inputs": [],
      "name": "swapSellTax",
      "outputs": [
        {
          "internalType": "uint256",
          "name": "",
          "type": "uint256"
        }
      ],
      "stateMutability": "view",
      "type": "function"
    },
    {
      "inputs": [],
      "name": "ticketFlexibilityDuration",
      "outputs": [
        {
          "internalType": "uint256",
          "name": "",
          "type": "uint256"
        }
      ],
      "stateMutability": "view",
      "type": "function"
    },
    {
      "inputs": [
        {
          "internalType": "uint256",
          "name": "",
          "type": "uint256"
        }
      ],
      "name": "ticketOwner",
      "outputs": [
        {
          "internalType": "address",
          "name": "",
          "type": "address"
        }
      ],
      "stateMutability": "view",
      "type": "function"
    },
    {
      "inputs": [
        {
          "internalType": "uint256",
          "name": "",
          "type": "uint256"
        },
        {
          "internalType": "uint256",
          "name": "",
          "type": "uint256"
        }
      ],
      "name": "ticketPendingRewards",
      "outputs": [
        {
          "internalType": "address",
          "name": "upline",
          "type": "address"
        },
        {
          "internalType": "uint256",
          "name": "amount",
          "type": "uint256"
        }
      ],
      "stateMutability": "view",
      "type": "function"
    },
    {
      "inputs": [
        {
          "internalType": "address",
          "name": "newOwner",
          "type": "address"
        }
      ],
      "name": "transferOwnership",
      "outputs": [],
      "stateMutability": "nonpayable",
      "type": "function"
    },
    {
      "inputs": [],
      "name": "treasuryPercent",
      "outputs": [
        {
          "internalType": "uint256",
          "name": "",
          "type": "uint256"
        }
      ],
      "stateMutability": "view",
      "type": "function"
    },
    {
      "inputs": [],
      "name": "treasuryWallet",
      "outputs": [
        {
          "internalType": "address",
          "name": "",
          "type": "address"
        }
      ],
      "stateMutability": "view",
      "type": "function"
    },
    {
      "inputs": [
        {
          "internalType": "address",
          "name": "newImplementation",
          "type": "address"
        },
        {
          "internalType": "bytes",
          "name": "data",
          "type": "bytes"
        }
      ],
      "name": "upgradeToAndCall",
      "outputs": [],
      "stateMutability": "payable",
      "type": "function"
    },
    {
      "inputs": [
        {
          "internalType": "address",
          "name": "",
          "type": "address"
        }
      ],
      "name": "userInfo",
      "outputs": [
        {
          "internalType": "address",
          "name": "referrer",
          "type": "address"
        },
        {
          "internalType": "uint256",
          "name": "activeDirects",
          "type": "uint256"
        },
        {
          "internalType": "uint256",
          "name": "teamCount",
          "type": "uint256"
        },
        {
          "internalType": "uint256",
          "name": "totalRevenue",
          "type": "uint256"
        },
        {
          "internalType": "uint256",
          "name": "currentCap",
          "type": "uint256"
        },
        {
          "internalType": "bool",
          "name": "isActive",
          "type": "bool"
        },
        {
          "internalType": "uint256",
          "name": "refundFeeAmount",
          "type": "uint256"
        },
        {
          "internalType": "uint256",
          "name": "teamTotalVolume",
          "type": "uint256"
        },
        {
          "internalType": "uint256",
          "name": "teamTotalCap",
          "type": "uint256"
        },
        {
          "internalType": "uint256",
          "name": "maxTicketAmount",
          "type": "uint256"
        },
        {
          "internalType": "uint256",
          "name": "maxSingleTicketAmount",
          "type": "uint256"
        }
      ],
      "stateMutability": "view",
      "type": "function"
    },
    {
      "inputs": [
        {
          "internalType": "address",
          "name": "",
          "type": "address"
        },
        {
          "internalType": "uint256",
          "name": "",
          "type": "uint256"
        }
      ],
      "name": "userStakes",
      "outputs": [
        {
          "internalType": "uint256",
          "name": "id",
          "type": "uint256"
        },
        {
          "internalType": "uint256",
          "name": "amount",
          "type": "uint256"
        },
        {
          "internalType": "uint256",
          "name": "startTime",
          "type": "uint256"
        },
        {
          "internalType": "uint256",
          "name": "cycleDays",
          "type": "uint256"
        },
        {
          "internalType": "bool",
          "name": "active",
          "type": "bool"
        },
        {
          "internalType": "uint256",
          "name": "paid",
          "type": "uint256"
        }
      ],
      "stateMutability": "view",
      "type": "function"
    },
    {
      "inputs": [
        {
          "internalType": "address",
          "name": "",
          "type": "address"
        }
      ],
      "name": "userTicket",
      "outputs": [
        {
          "internalType": "uint256",
          "name": "ticketId",
          "type": "uint256"
        },
        {
          "internalType": "uint256",
          "name": "amount",
          "type": "uint256"
        },
        {
          "internalType": "uint256",
          "name": "purchaseTime",
          "type": "uint256"
        },
        {
          "internalType": "bool",
          "name": "exited",
          "type": "bool"
        }
      ],
      "stateMutability": "view",
      "type": "function"
    },
    {
      "inputs": [
        {
          "internalType": "address",
          "name": "_to",
          "type": "address"
        },
        {
          "internalType": "uint256",
          "name": "_amount",
          "type": "uint256"
        }
      ],
      "name": "withdrawLevelRewardPool",
      "outputs": [],
      "stateMutability": "nonpayable",
      "type": "function"
    },
    {
      "inputs": [
        {
          "internalType": "address",
          "name": "_toMC",
          "type": "address"
        },
        {
          "internalType": "uint256",
          "name": "_amountMC",
          "type": "uint256"
        },
        {
          "internalType": "address",
          "name": "_toJBC",
          "type": "address"
        },
        {
          "internalType": "uint256",
          "name": "_amountJBC",
          "type": "uint256"
        }
      ],
      "name": "withdrawSwapReserves",
      "outputs": [],
      "stateMutability": "nonpayable",
      "type": "function"
    }
  ],
  "bytecode": "0x60a08060405234620000d157306080527ff0c57e16840df040f15088dc2f81fe391c3923bec73e23a9662efc9c229c6a009081549060ff8260401c16620000c257506001600160401b036002600160401b0319828216016200007c575b604051615bfe9081620000d7823960805181818161256301526129460152f35b6001600160401b031990911681179091556040519081527fc7f505b2f371ae2175ee4913f4499e1f2633a7b5936321eed1cdaeb6115181d290602090a13880806200005c565b63f92ee8a960e01b8152600490fd5b600080fdfe6080604052600436101561001257600080fd5b6000803560e01c806301d62efb14613acf57806304ef9d5814613ab157806304f618cb1461399d57806305ad3935146139425780630a5c4567146136e45780630e2be210146136c857806310ff994d146132195780631427f616146131fd5780631788513c146131d4578063182c84cc146131b55780631959a002146131035780631d0dac76146130e557806321b77d63146130c157806321f483d3146130795780632630c12f1461304c57806327c830a91461302957806327f082f41461300b578063372500ab14612fea5780633a3ea2f014612fc75780633dbd46bd14612f945780634626402b14612f6b57806347194001146118c9578063488b5d9714612f4f5780634a4e3bd514612f055780634ea4c6b314612afe5780634f1ef286146128cb57806351858e271461287e57806352778b05146125bb57806352d1902d14612550578063530e784f146125065780636031a52f146124e857806367dd74ca14611bf15780636839b5fa14611bd45780636dd6682714611bb6578063715018a614611b5d57806374b0eecf14611a9257806375506c9614611a7457806375f0a87414611a4b57806377a2a54014611a2d578063813380cd146119ff57806383672f3e146118ce57806386481d40146118c95780638710bcaa1461186857806388481b611461184c57806388fd4d33146118235780638a859a85146118075780638c0eaa48146117eb5780638da5cb5b146117b557806390b0eb51146117655780639370b08014611747578063952539921461172057806399b6024d1461165a5780639cd441da146115165780639d99eca4146114c8578063ac8f50aa14611470578063ad3cb1cc146113cb578063b048a4bb146113a8578063b5d5b5fa1461131a578063b759936b146112fc578063bd594dcf146112de578063be040fb014610be5578063c2ff12fc14610bb2578063c3b369d714610b34578063cc2a9a5b14610921578063ccf6194414610903578063cea9d26f14610799578063ceaa366d1461077b578063d0f16470146106f1578063d2c8e0e514610642578063d2f825361461061c578063d4f0014214610495578063d8020a1814610477578063deab8aea1461044e578063dec7fa3b14610430578063e306744914610412578063e4412f68146103f4578063ece71266146103a65763f2fde38b1461037757600080fd5b346103a35760203660031901126103a3576103a0610393613b76565b61039b614563565b614501565b80f35b80fd5b50346103a35760203660031901126103a3577fc7f6975dcffc536e6e57dd1d1dea810fff534a70563baf2d6f977b119bd00e1b60206004356103e6614563565b80600c55604051908152a180f35b50346103a357806003193601126103a3576020600954604051908152f35b50346103a357806003193601126103a3576020601b54604051908152f35b50346103a357806003193601126103a3576020600c54604051908152f35b50346103a357806003193601126103a3576005546040516001600160a01b039091168152602090f35b50346103a357806003193601126103a3576020600854604051908152f35b50346103a35760803660031901126103a3576104af613b76565b602435906104bb613ba2565b82606435926104c8614563565b8161059e575b5050816104f8575b50600080516020615ae98339815191529160409182519182526020820152a180f35b916020826105389461050c82601854613e41565b60185560018060a01b0360015416908760405180988195829463a9059cbb60e01b845260048401613d39565b03925af191821561059357600080516020615ae983398151915293604093610564575b509150916104d6565b6105859060203d60201161058c575b61057d8183613c65565b810190613db1565b503861055b565b503d610573565b6040513d86823e3d90fd5b816020916105b16105dc94601754613e41565b60175560018060a01b03885416908860405180968195829463a9059cbb60e01b845260048401613d39565b03925af18015610611576105f2575b83906104ce565b61060a9060203d60201161058c5761057d8183613c65565b50386105eb565b6040513d87823e3d90fd5b50346103a357806003193601126103a357602060ff60165460081c166040519015158152f35b50346103a357602090816003193601126103a3576001600160a01b03919082610669613b76565b168152601282526040812090604051808484549182815201908194845285842090845b8181106106db57505050816106a2910382613c65565b6040519380850191818652518092526040850193925b8281106106c55785850386f35b83518716855293810193928101926001016106b8565b825489168452928701926001928301920161068c565b50346103a35760c03660031901126103a3577f66682b276e4cd1a4e1f68b55b1143766c5332f472eb593cf2a70a25d9d5d991760c060043560a435608435606435604435602435610740614563565b8560065580600755816008558260095583600a5584600b55604051958652602086015260408501526060840152608083015260a0820152a180f35b50346103a357806003193601126103a3576020600a54604051908152f35b50346103a35760603660031901126103a3576107b3613b76565b6107bb613b8c565b604435916107c7614563565b83546001600160a01b0382811694918116851415806108f5575b156108b057831615610877576020604051809563a9059cbb60e01b825281888161080f878a60048401613d39565b03925af1908115610611577f77023e19c7343ad491fd706c36335ca0e738340a91f29b1fd81e2673d44896c49461085292610858575b5060405193849384613dc9565b0390a180f35b6108709060203d60201161058c5761057d8183613c65565b5038610845565b60405162461bcd60e51b8152602060048201526011602482015270125b9d985b1a59081c9958da5c1a595b9d607a1b6044820152606490fd5b60405162461bcd60e51b815260206004820152601d60248201527f43616e6e6f74207265736375652070726f746f636f6c20746f6b656e730000006044820152606490fd5b5080600154168514156107e1565b50346103a357806003193601126103a3576020600654604051908152f35b50346103a35760c03660031901126103a35761093b613b76565b610943613b8c565b61094b613ba2565b610953613bb8565b916001600160a01b0360843581811690819003610b2f5760a43592828416809403610b2f57600080516020615ba983398151915295865460ff8160401c16159660018060401b038216998a1580610b28575b6001809c149081610b1e575b159081610b15575b50610b03576001600160401b031983168b178a558694859384928e918c610ae8575b506109e4615976565b6109ec615976565b6109f533614501565b6109fd615976565b610a05615976565b610a0d615976565b8d600080516020615b698339815191525560018060a01b0319998a9116915416178d5516868b5416178a55168460025416176002551682600354161760035581600454161760045560055416176005556019600655600f600755600560085560056009556019600a556019600b5582600c556032600d556019600e556203f48060155561010161ffff19601654161760165542601b55610aab578280f35b805460ff60401b191690556040519081527fc7f505b2f371ae2175ee4913f4499e1f2633a7b5936321eed1cdaeb6115181d290602090a138808280f35b6001600160481b0319166001600160401b01178d55386109db565b60405163f92ee8a960e01b8152600490fd5b905015386109b9565b303b1591506109b1565b50886109a5565b600080fd5b50346103a357610b4336613cd3565b610b4e939193614563565b808303610ba057845b838110610b62578580f35b80610b7060019284886144dd565b35828060a01b03610b8a610b858489896144dd565b6144ed565b168852600f602052600760408920015501610b57565b60405163980a3f3160e01b8152600490fd5b50346103a35760203660031901126103a3576020906004358152601c8252604060018060a01b0391205416604051908152f35b50346103a357806003193601126103a357610bfe61459c565b60ff610c1160ff60165460081c16613e4e565b33825260119160206011815260408220938283908492855b8854811015610e9f57876004610c3f838c613d54565b5001541615610e97576002610c54828b613d54565b500154610c61828b613d54565b509060038092015490603c91828102928184041490151715610e83578b9291610c8991613e14565b421015610c9d575b50506001905b01610c29565b90958895929495600783610cb1888b613d54565b50015403610e2a5750633b9aca00610cf662cb7356935b610ce2610cd5898c613d54565b5095600180970154613deb565b90610ced898c613d54565b50015490613deb565b04908991610d04878a613d54565b508760059a8b809301548411610e02575b5050505081610d2391613e14565b96610d2e868d613d54565b500190815490610d3d91613e14565b9055338852600f87526040882060090154918a828a878b8715600198610da598610d8095606494610d7994610dec575b505050600c5490613deb565b0493613d54565b50015481811115610dd95790610d9981610d9f93613e41565b92613e14565b95613e14565b926004610db2828c613d54565b5001805460ff19169055610dd0610dc9828c613d54565b505461493c565b90508838610c91565b9050610de491613e14565b948890613e14565b6040929350601090522001548f8f908791610d6d565b610d23949550610e20939291610e1791613d54565b50015490613e41565b919088878e610d15565b600f83610e37888b613d54565b50015403610e525750633b9aca00610cf662fe502b93610cc8565b91601e81610e60888b613d54565b50015414610e77575b610cf6633b9aca0091610cc8565b6301312d009250610e69565b634e487b7160e01b8a52600485905260248afd5b600190610c97565b5050909291811590811580926112d5575b1561129c5784611288575b80610f94575b50610f2d575b600f9260405191825282820152600080516020615b8983398151915260403392a2610ef133614ad0565b3383525260408120600460038201549101541115610f1f575b6001600080516020615b698339815191525580f35b610f2833614b81565b610f0a565b835460405163a9059cbb60e01b81529390839085906001600160a01b0316818881610f5c883360048401613d39565b03925af193841561061157600f94610f77575b509250610ec7565b610f8d90843d861161058c5761057d8183613c65565b5085610f6f565b338652600f8452610fb2604087206003600482015491015490613e41565b808211611262575b508015610ec157338652600f845260036040872001610fda828254613e14565b905585546040516370a0823160e01b808252306004830152889390926001600160a01b0392600183901c918416908981602481855afa80156112575783918d91611226575b5010158061121d575b6111b9575b506110366143e6565b90670de0b6b3a7640000908181029181830414901517156111a5579061105b91613e21565b899260015416936040519081523060048201528881602481885afa801561119a5782918c91611169575b50101580611160575b6110ec575b50600080516020615a498339815191529250604051908152600087820152600080516020615b4983398151915260403392a2338852601086526040882054906110e3604051928392339684613eb5565b0390a285610ec1565b90915086604051809463a9059cbb60e01b8252818c81611110873360048401613d39565b03925af192831561115557600080516020615a4983398151915293611138575b509089611093565b61114e90883d8a1161058c5761057d8183613c65565b5089611130565b6040513d8b823e3d90fd5b5080151561108e565b8092508a8092503d8311611193575b6111828183613c65565b81010312610b2f578190518c611085565b503d611178565b6040513d8d823e3d90fd5b634e487b7160e01b8b52601160045260248bfd5b60405163a9059cbb60e01b815291955088908290818d816111de8b3360048401613d39565b03925af18015611212576111f5575b50838a61102d565b61120b90883d8a1161058c5761057d8183613c65565b50896111ed565b6040513d8c823e3d90fd5b50811515611028565b8092508b8092503d8311611250575b61123f8183613c65565b81010312610b2f578290518d61101f565b503d611235565b6040513d8e823e3d90fd5b906040519081528185820152600080516020615ac983398151915260403392a286610fba565b61129485601754613e14565b601755610ebb565b60405162461bcd60e51b81526004810185905260116024820152704e6f7468696e6720746f2072656465656d60781b6044820152606490fd5b50801515610eb0565b50346103a357806003193601126103a3576020600754604051908152f35b50346103a357806003193601126103a3576020601f54604051908152f35b50346103a35760403660031901126103a357611334613b76565b6001600160a01b03168152601160205260408120805460243592908310156103a35760c06113628484613d54565b508054906001810154906002810154600382015490600560ff600485015416930154936040519586526020860152604085015260608401521515608083015260a0820152f35b50346103a357806003193601126103a357602060ff601654166040519015158152f35b50346103a357806003193601126103a357604080519081016001600160401b0381118282101761145a5760405260058152602091640352e302e360dc1b602083015260405192839160208352835191826020850152815b83811061144357505060408094508284010152601f80199101168101030190f35b808601820151878201604001528694508101611422565b634e487b7160e01b600052604160045260246000fd5b50346103a35761147f36613c3c565b908252601d6020526040822080548210156114c45761149e9250613d1d565b5080546001909101546040519182916114c0916001600160a01b031683613d39565b0390f35b8280fd5b50346103a35760203660031901126103a3577fd28d9e4ce68d89af7920cb8618e342a78f51e545c530ce60f1cb1d6f0235b47f6020600435611508614563565b80601555604051908152a180f35b50346103a35761152536613c3c565b61152d614563565b816115e7575b8061155a575b600080516020615a298339815191529160409182519182526020820152a180f35b6001546040516323b872dd60e01b8152929060209084906001600160a01b031681878161158c88303360048501613dc9565b03925af191821561059357600080516020615a29833981519152936040936115c8575b506115bc81601854613e14565b60185591509150611539565b6115e09060203d60201161058c5761057d8183613c65565b50386115af565b82546040516323b872dd60e01b81529060209082906001600160a01b031681878161161789303360048501613dc9565b03925af180156105935761163b575b5061163382601754613e14565b601755611533565b6116539060203d60201161058c5761057d8183613c65565b5038611626565b50346103a35760403660031901126103a357611674613b76565b60243590611680614563565b61168c82601f54613e41565b601f55825460405163a9059cbb60e01b815291906001600160a01b0390602090849083168188816116c18a8960048401613d39565b03925af1918215610611577f27971ee1acbfbdfb20656657ceb2e0e7b519b9e60fe1a6b1f6d27b159f4a607c93602093611703575b506040519485521692a280f35b61171990843d861161058c5761057d8183613c65565b50386116f6565b50346103a357806003193601126103a357546040516001600160a01b039091168152602090f35b50346103a357806003193601126103a3576020600e54604051908152f35b50346103a3577f4e9dd03193a0c81552fb8e6d32280f0d7e0ce8087241dc3d17ef3d193ee231d7604061179736613c3c565b61179f614563565b81600d5580600e5582519182526020820152a180f35b50346103a357806003193601126103a357600080516020615a69833981519152546040516001600160a01b039091168152602090f35b50346103a357806003193601126103a357602060405160038152f35b50346103a357806003193601126103a357602060405160018152f35b50346103a357806003193601126103a3576004546040516001600160a01b039091168152602090f35b50346103a357806003193601126103a357602060405160048152f35b50346103a35760203660031901126103a3576080906040906001600160a01b03611890613b76565b16815260106020522080549060018101549060ff6003600283015492015416916040519384526020840152604083015215156060820152f35b613c12565b50346103a35760803660031901126103a3576118e8613b76565b6118f0613b8c565b906118f9613ba2565b91611902613bb8565b9061190b614563565b6001600160a01b0392831691821515806119f4575b806119e9575b806119de575b156119a7577f213f1de8063c19612a553f1480ff341bea689d36a56a2089f1b9060d599b5d8394848060809660018060a01b031995878760025416176002551692838660035416176003551692838560045416176004551680936005541617600555604051938452602084015260408301526060820152a180f35b60405162461bcd60e51b815260206004820152600f60248201526e496e76616c6964206164647265737360881b6044820152606490fd5b50838116151561192c565b508385161515611926565b508382161515611920565b50346103a357611a0e36613c3c565b90825260136020526040822080548210156114c45761149e9250613d1d565b50346103a357806003193601126103a3576020601754604051908152f35b50346103a357806003193601126103a3576002546040516001600160a01b039091168152602090f35b50346103a357806003193601126103a3576020601a54604051908152f35b50346103a357611aa136613cd3565b919290611aac614563565b828403610ba057845b848110611aeb57857f9c03d1f6ba485b6cf0a120117d651729467751d3079318d05171b6f389f6bf4b602087604051908152a180f35b80611af960019286856144dd565b35600080516020615a898339815191526040848060a01b0380611b20610b85878d8c6144dd565b168b52602093600f85526002838d200155611b3f610b85868c8b6144dd565b611b4a868b8a6144dd565b358351958d87528601521692a201611ab5565b50346103a357806003193601126103a357611b76614563565b600080516020615a6983398151915280546001600160a01b031981169091556000906001600160a01b0316600080516020615b098339815191528280a380f35b50346103a357806003193601126103a3576020601554604051908152f35b50346103a357806003193601126103a35760206040516103e88152f35b50346103a35760203660031901126103a357611c0b61459c565b611c1a60ff604f541615613d70565b338152600f602052600960408220015415611c343361503c565b68056bc75e2d631000006004351415806124d3575b806124be575b806124a9575b6124975781546040516323b872dd60e01b81529060209082906001600160a01b0316818681611c8d6004803590309033908501613dc9565b03925af1801561248c5761246d575b50338252601060205260408220916003830160ff81541660001461239257611cc56019546144ce565b806019558455600435600185015542600285015560ff198154169055338152600f602052806003604082200155600360043502600435810460031460043515171561237e57338252600f60205260046040832001555b600a6001840154338352600f60205260408320906009820180548211612376575b50500180546004351161236b575b5082548152601c6020908152604080832080546001600160a01b031916339081179091558352600f9091528120546001600160a01b031680151580612357575b156122cb57611da96064611da2600654600435613deb565b0482615208565b908161229c575b50505b338152600f60205260408120549092839283926001600160a01b0316918391600435801590800460011417156121b5579495925b6001600160a01b038116151580612292575b80612288575b15611eff576001600160a01b0381168552600f60205260408520600581015460ff1615611ee0575060018060a01b03811690818652600f60205284611e4a6001604089200154613e85565b11611e84575b508452600f60205260408420546001600160a01b031692611e7a90611e74906144ce565b966144ce565b945b949592611de7565b611e94906064600435049061540c565b8015611e50579283611ea591613e14565b923386526010602052604086205460405191825260036020830152604082015281600080516020615a0983398151915260603393a338611e50565b5493966001600160a01b0390941693611ef991506144ce565b94611e7c565b508385611f1e6007946064611f18600754600435613deb565b04613e41565b80612243575b5060018060a01b0382541692600293836020611f7460018060a01b0360025416936064611f55600854600435613deb565b0460405194858094819363a9059cbb60e01b998a845260048401613d39565b03925af1801561061157612224575b50611f9d6064611f97600954600435613deb565b04615732565b611fe0602060018060a01b0386541660018060a01b0360045416906064611fc8600a54600435613deb565b0491886040518096819582948a845260048401613d39565b03925af18015610611579160209161203593612207575b5060018060a01b0386541660018060a01b036003541687606461201e600b54600435613deb565b049360405196879586948593845260048401613d39565b03925af18015610593576121e8575b50338352600f6020526040832054929384936001600160a01b03165b6001600160a01b0316801515806121de575b156120b957808552600f6020528660408620016120926004358254613e14565b90558452600f60205260408420546001600160a01b0316946120b3906144ce565b94612060565b509091612115575b506120cb33614ad0565b5460405190600435825260208201527f2a91574e12ad96234e84923e146b0946ecfb871cd8d5534dc1fdcbe87a7c01b360403392a26001600080516020615b698339815191525580f35b338352600f602052604083205490929182916001600160a01b03165b6001600160a01b0316801515806121d4575b156121c957808352600f60205284604084200154600181018082116121b55760408392600080516020615a8983398151915292848852600f602052808a848a20015582519182526020820152a28252600f60205260408220546001600160a01b0316926121af906144ce565b92612131565b634e487b7160e01b85526011600452602485fd5b5091509150826120c1565b50601e8410612143565b50601e8610612072565b6122009060203d60201161058c5761057d8183613c65565b5085612044565b61221d90833d851161058c5761057d8183613c65565b5088611ff7565b61223c9060203d60201161058c5761057d8183613c65565b5086611f83565b6040816122737fca2e2bff26d2adb9fe155e9265350494c16751676879cb7ced9141e0fcf3934393601f54613e14565b80601f5582519182526020820152a184611f24565b5060148710611dff565b50600f8410611df9565b8454604051928352600260208401526040830152600080516020615a0983398151915260603393a33880611db0565b508054600254600654612318926020926001600160a01b03908116929116906064906122f990600435613deb565b04918560405180968195829463a9059cbb60e01b845260048401613d39565b03925af1801561234c5761232d575b50611db3565b6123459060203d60201161058c5761057d8183613c65565b5038612327565b6040513d84823e3d90fd5b5080825260ff600560408420015416611d8a565b600435905538611d4a565b553880611d3c565b634e487b7160e01b82526011600452602482fd5b6001840180548061240057506123a96019546144ce565b806019558555600435905542600285015560ff198154169055338152600f602052806003604082200155600360043502600435810460031460043515171561237e57338252600f6020526004604083200155611d1b565b61240f91925060043590613e14565b9055338152600f60205260ff600560408320015416612462575b600360043502600435810460031460043515171561237e57338252600f60205261245b60046040842001918254613e14565b9055611d1b565b426002840155612429565b6124859060203d60201161058c5761057d8183613c65565b5038611c9c565b6040513d85823e3d90fd5b60405163162908e360e11b8152600490fd5b50683635c9adc5dea000006004351415611c55565b50681b1ae4d6e2ef5000006004351415611c4f565b50681043561a88293000006004351415611c49565b50346103a357806003193601126103a3576020601954604051908152f35b50346103a35760203660031901126103a357612520613b76565b612528614563565b604f8054610100600160a81b03191660089290921b610100600160a81b031691909117905580f35b50346103a357806003193601126103a3577f00000000000000000000000000000000000000000000000000000000000000006001600160a01b031630036125a9576020604051600080516020615aa98339815191528152f35b60405163703e46dd60e11b8152600490fd5b50346103a35760208060031936011261283d57600435906125da61459c565b6125e960ff604f541615613d70565b811561249757683635c9adc5dea000008060175410908115612872575b506127e2576001546040516323b872dd60e01b81526001600160a01b039183908290841681888161263c8a303360048501613dc9565b03925af1801561061157612855575b50606461265a600e5485613deb565b04906126668285613e41565b926127108085029085820414851517156128415761268a6103e89160185490613e21565b1161249757858260015416803b1561283d57818091602460405180948193630852cd8d60e31b83528a60048401525af1801561234c57612825575b5050601754936126d58582613deb565b906126ed601854926126e78385613e14565b90613e21565b93885416956040516370a0823160e01b815230600482015284816024818b5afa80156112125786918b916127f4575b50106127e257612730859261273894613e14565b601855613e41565b60175580604051809563a9059cbb60e01b825281898161275c883360048401613d39565b03925af19384156127d7577f223c8ad0806f634524940a8595f819c5cfc7b1f4f4f45791269301df0a7e61d5946127b9575b50506127a1604051928392339684613bfc565b0390a26001600080516020615b698339815191525580f35b816127cf92903d1061058c5761057d8183613c65565b50388061278e565b6040513d88823e3d90fd5b6040516343c7ad8160e11b8152600490fd5b809250868092503d831161281e575b61280d8183613c65565b81010312610b2f578590513861271c565b503d612803565b61282e90613c52565b6128395785386126c5565b8580fd5b5080fd5b634e487b7160e01b87526011600452602487fd5b61286b90833d851161058c5761057d8183613c65565b503861264b565b90506018541038612606565b50346103a357806003193601126103a357612897614563565b600160ff19604f541617604f557f4cb3183d0bf66f9634b15cfc3539fdddc96c2c9324848af89b56586a6739fec48180a180f35b5060403660031901126103a3576128e0613b76565b60249182356001600160401b03811161283d573660238201121561283d57806004013561290c81613c88565b9361291a6040519586613c65565b818552602091828601933688838301011161283957818692898693018737870101526001600160a01b037f00000000000000000000000000000000000000000000000000000000000000008116308114908115612ae2575b506125a95761297f614563565b8116946040516352d1902d60e01b815283816004818a5afa869181612aaf575b506129bc57604051634c9c8ce360e01b8152600481018890528890fd5b869088600080516020615aa983398151915291828103612a9a5750843b15612a84575080546001600160a01b031916821790556040518692917fbc7cd75a20ee27fd9adebab32041f755214dbc6bffa90cc0225b39da2e5c2d3b8480a2815115612a665750612a599482915190845af4903d15612a5d573d612a3d81613c88565b90612a4b6040519283613c65565b81528581943d92013e6159a5565b5080f35b606092506159a5565b94505050505034612a75575080f35b63b398979f60e01b8152600490fd5b604051634c9c8ce360e01b815260048101849052fd5b60405190632a87526960e21b82526004820152fd5b9091508481813d8311612adb575b612ac78183613c65565b81010312612ad75751903861299f565b8680fd5b503d612abd565b905081600080516020615aa98339815191525416141538612972565b50346103a357612b0d36613c3c565b90612b1661459c565b612b2560ff604f541615613d70565b3383526020906010825260408420926001840193845415612ef3576003015460ff16612ee157600781141580612ed6575b80612ecb575b612eb95781156124975784546040516323b872dd60e01b81526001600160a01b039591859082908816818a81612b978a303360048501613dc9565b03925af18015612eae57612e91575b50612bb2601a546144ce565b601a81905533875260118552604080882090519160c083016001600160401b0381118482101761145a57604052825285820185815260408301428152606084019086825260808501926001845260a08601948c8652805490600160401b821015612e7d5790612c2691600182018155613d54565b969096612e695791612c6593916005969593518855516001880155516002870155516003860155511515600485019060ff801983541691151516179055565b51910155601a548652601e8452604080872080546001600160a01b031916339081179091558752600f85528620600a018054918215612e5b575b5050609681029080820460961490151715612e4757606490048203612497577fa8a1b9e33e503eed12bf7e7c8c01c7f3b60217a496bddd0f5db351dd8c056c1c90612ce933614ad0565b601a5490612cfe604051928392339684613bfc565b0390a2338352600f815260066040842001918383549384612d30575b506001600080516020615b698339815191525580f35b556017548381101580612dde575b612d4a575b8490612d1a565b83612d5491613e41565b6017558354169080604051809363a9059cbb60e01b8252818781612d7c893360048401613d39565b03925af1918215610593577f3437b9ea7fa19c6d233dd70cc787a70fab87cee64d8ba4571512cc84402748f992612dc1575b506040519283523392a238808080612d43565b612dd790823d841161058c5761057d8183613c65565b5038612dae565b5060248383875416604051928380926370a0823160e01b82523060048301525afa80156127d75785918791612e16575b501015612d3e565b809250858092503d8311612e40575b612e2f8183613c65565b81010312610b2f5784905138612e0e565b503d612e25565b634e487b7160e01b86526011600452602486fd5b909150548091553880612c9f565b634e487b7160e01b8d5260048d905260248dfd5b634e487b7160e01b8e52604160045260248efd5b612ea790853d871161058c5761057d8183613c65565b5038612ba6565b6040513d89823e3d90fd5b604051634dc7f5ff60e11b8152600490fd5b50601e811415612b5c565b50600f811415612b56565b604051631ecb2c4f60e31b8152600490fd5b604051634065aaf160e11b8152600490fd5b50346103a357806003193601126103a357612f1e614563565b60ff19604f5416604f557f15de7ad89d29fd1c6d2e6b1e878453569b4080edf34e0105faaa3bd52f0185308180a180f35b50346103a357806003193601126103a3576020604051603c8152f35b50346103a357806003193601126103a3576003546040516001600160a01b039091168152602090f35b50346103a35760203660031901126103a3576020906004358152601e8252604060018060a01b0391205416604051908152f35b50346103a357806003193601126103a3576020612fe26143e6565b604051908152f35b50346103a357806003193601126103a35761300361459c565b610f0a613ed2565b50346103a357806003193601126103a3576020600d54604051908152f35b50346103a357806003193601126103a357602060ff604f54166040519015158152f35b50346103a357806003193601126103a357604f5460405160089190911c6001600160a01b03168152602090f35b50346103a35760203660031901126103a357600435906014548210156103a3576020816014600393522091020180546114c06002600184015493015460405193849384613bfc565b50346103a357806003193601126103a3576020604051683635c9adc5dea000008152f35b50346103a357806003193601126103a3576020601854604051908152f35b50346103a35760203660031901126103a357610160906001600160a01b03906040908261312e613b76565b168152600f60205220908154169060018101549060028101546003820154600483015460ff600585015416600685015491600786015493600887015495600a6009890154980154986040519a8b5260208b015260408a015260608901526080880152151560a087015260c086015260e0850152610100840152610120830152610140820152f35b50346103a35760203660031901126103a3576020612fe2600435613e85565b50346103a357806003193601126103a3576001546040516001600160a01b039091168152602090f35b50346103a357806003193601126103a357602090604051908152f35b50346103a35760208060031936011261283d5760043561323761459c565b61324860ff60165460081c16613e4e565b338352601182526040832080548210806136b0575b1561367b579061326c91613d54565b5090600182019182549260028201549160038101549460058201805494338952600f97888852600960408b20015460108952600160408c200154600c54916040519361010085019585871060018060401b0388111761145a576132f9966040528886528c8601526040850152896060850152608084015260a083015260c0820152603c60e08201526145cc565b9491929096839515613648578361330f91613e14565b905560048101805460ff1916905588546001600160a01b039361333a918891903090339088166146be565b156136135761334f90866135e5575b5461493c565b80613381575b505050549060405191825282820152600080516020615b8983398151915260403392a2610ef133614ad0565b33885286865261339e604089206003600482015491015490613e41565b8091116135dd575b50816133b3575b80613355565b338752858552600360408820016133cb838254613e14565b90558160011c908088541691604051926370a0823160e01b938481523060048201528881602481855afa801561119a5783918c916135ac575b501015806135a3575b613556575b5061342561341e6143e6565b9185613e41565b670de0b6b3a764000090818102918183041490151715613542578993929161344c91613e21565b90600154166040519283523060048401528783602481845afa8015610593578893859161350d575b5082111580613504575b6134ae575b50505050604051908152600084820152600080516020615b4983398151915260403392a238806133ad565b6134cf9160405194858094819363a9059cbb60e01b83523360048401613d39565b03925af18015612eae576134e7575b84818892613483565b6134fd90853d871161058c5761057d8183613c65565b50386134de565b5081151561347e565b93809295508491503d831161353b575b6135278183613c65565b81010312610b2f5788928188935190613474565b503d61351d565b634e487b7160e01b8a52601160045260248afd5b87604051809263a9059cbb60e01b8252818d81613577883360048401613d39565b03925af1801561121257156134125761359c90883d8a1161058c5761057d8183613c65565b5038613412565b5081151561340d565b8092508a8092503d83116135d6575b6135c58183613c65565b81010312610b2f5782905138613404565b503d6135bb565b9150386133a6565b6135f187601754613e14565b601755338a52888852600660408b200161360c888254613e14565b9055613349565b606487896040519162461bcd60e51b8352600483015260248201526e151c985b9cd9995c8819985a5b1959608a1b6044820152fd5b60405162461bcd60e51b8152600481018a9052600b60248201526a139bdd08195e1c1a5c995960aa1b6044820152606490fd5b60405162461bcd60e51b815260048101849052600d60248201526c496e76616c6964207374616b6560981b6044820152606490fd5b5060ff60046136bf8484613d54565b5001541661325d565b50346103a357806003193601126103a357602060405160028152f35b50346103a35760208060031936011261283d576004359061370361459c565b61371260ff604f541615613d70565b811561249757683635c9adc5dea000008060175410908115613936575b506127e25782546040516323b872dd60e01b81526001600160a01b03918390829084168188816137648a303360048501613dc9565b03925af1801561061157613919575b50601854906137828285613deb565b90613794601754926126e78785613e14565b92612710860261270f1987820401613905576137b3846103e892613e21565b116124975760646137c6600d5486613deb565b04936137d28582613e41565b938360015416916040516370a0823160e01b81523060048201528881602481875afa801561119a5782918c916138d0575b50106127e25789936138188a61382094613e14565b601755613e41565b601855803b1561283d578190602460405180948193630852cd8d60e31b83528960048401525af18015612eae576138bd575b50600154169280604051809563a9059cbb60e01b8252818981613879883360048401613d39565b03925af19384156127d7577f36864aeefce16bc4aaceeb6b0cdfb2ad1455a8cb4ccb0db148a2bc6e7166f97c946127b95750506127a1604051928392339684613bfc565b6138c990969196613c52565b9438613852565b8092508a8092503d83116138fe575b6138e98183613c65565b810103126138fa5781905138613803565b8a80fd5b503d6138df565b634e487b7160e01b88526011600452602488fd5b61392f90833d851161058c5761057d8183613c65565b5038613773565b9050601854103861372f565b50346103a35760403660031901126103a35761395c613b76565b6001600160a01b039081168252601260205260408220805460243593908410156103a3575060209261398d91613bce565b9190546040519260031b1c168152f35b50346103a35760203660031901126103a3576139b7613b76565b338252600f60205260408220546001600160a01b0391908216613a9f57811690338214613a8d578115613a7b57338352600f6020908152604080852080546001600160a01b0319168517905583855260129091528320805490600160401b821015613a675790613a2c91600182018155613bce565b819291549060031b9133831b921b1916179055337fa6dbb5aa28f35437de94d685d66edce5fb4812196b4984b91dfd5a7b38c0fb308380a380f35b634e487b7160e01b85526041600452602485fd5b60405163e6c4247b60e01b8152600490fd5b604051631acade8960e31b8152600490fd5b60405163682a906560e01b8152600490fd5b50346103a357806003193601126103a3576020600b54604051908152f35b50346103a35760403660031901126103a35760043580151580910361283d57602435908115158092036114c4577f03cb373f89de891077fe47cec43663b6727713de0337af46bebd1178122251b7917fb886fcb5b9c12916f26d967ebe962dbd51ec249fb55961da39c851cdfc10115c60208093613b4b614563565b6016805461ffff191660ff831617600886901b61ff0016179055604051908152a1604051908152a180f35b600435906001600160a01b0382168203610b2f57565b602435906001600160a01b0382168203610b2f57565b604435906001600160a01b0382168203610b2f57565b606435906001600160a01b0382168203610b2f57565b8054821015613be65760005260206000200190600090565b634e487b7160e01b600052603260045260246000fd5b6040919493926060820195825260208201520152565b34610b2f576020366003190112610b2f576040613c30600435614f8f565b82519182526020820152f35b6040906003190112610b2f576004359060243590565b6001600160401b03811161145a57604052565b601f909101601f19168101906001600160401b0382119082101761145a57604052565b6001600160401b03811161145a57601f01601f191660200190565b9181601f84011215610b2f578235916001600160401b038311610b2f576020808501948460051b010111610b2f57565b6040600319820112610b2f576001600160401b0391600435838111610b2f5782613cff91600401613ca3565b93909392602435918211610b2f57613d1991600401613ca3565b9091565b8054821015613be65760005260206000209060011b0190600090565b6001600160a01b039091168152602081019190915260400190565b8054821015613be6576000526006602060002091020190600090565b15613d7757565b60405162461bcd60e51b815260206004820152601260248201527110dbdb9d1c9858dd081a5cc81c185d5cd95960721b6044820152606490fd5b90816020910312610b2f57518015158103610b2f5790565b6001600160a01b03918216815291166020820152604081019190915260600190565b81810292918115918404141715613dfe57565b634e487b7160e01b600052601160045260246000fd5b91908201809211613dfe57565b8115613e2b570490565b634e487b7160e01b600052601260045260246000fd5b91908203918211613dfe57565b15613e5557565b60405162461bcd60e51b8152602060048201526008602482015267111a5cd8589b195960c21b6044820152606490fd5b6003811015613eaf576002811015613ea95760011115613ea457600090565b600590565b50600a90565b50600f90565b606091949392608082019582526020820152600060408201520152565b600033815260209060108252604090818120926001808501541580156143d8575b6143c7573383526011825283832083919082825b61424d575b5050811561423c57338452600f8352613f2b8260038787200154613e14565b95338552600f84528585209660049788810154809211614224575b5050821561421457338552600f8452600386862001613f66848254613e14565b9055845486516370a0823160e01b808252308a8301528795926001600160a01b039284871c918416908981602481855afa90811561420a578b8d8f928d9594879184916141d1575b501015806141c8575b61416b575b5050505050613fc96143e6565b90670de0b6b3a7640000908181029181830414901517156141585790613fee91613e21565b9188955416908951908152308b8201528781602481855afa90811561414e579083918a91614119575b50101580614110575b61408f575b505091600080516020615a4983398151915291600f95949388519081528786820152600080516020615b49833981519152893392a2549061406c8851928392339684613eb5565b0390a233835252206003810154910154111561408457565b61408d33614b81565b565b816140b69293955087918b8a8c5180968195829463a9059cbb60e01b845233908401613d39565b03925af180156141065791600080516020615a498339815191529391600f979695936140e9575b50939495819350614025565b6140ff90873d891161058c5761057d8183613c65565b50386140dd565b88513d89823e3d90fd5b50811515614020565b809250898092503d8311614147575b6141328183613c65565b810103126141435782905138614017565b8880fd5b503d614128565b8a513d8b823e3d90fd5b634e487b7160e01b8a5260118c5260248afd5b5163a9059cbb60e01b8152949a508492918391908290614190908e9033908401613d39565b03925af1801561414e576141ab575b508587388c8b8d613fbc565b6141c190883d8a1161058c5761057d8183613c65565b503861419f565b50851515613fb7565b959694505050505081813d8311614203575b6141ed8183613c65565b810103126138fa57908c8b8d858d955138613fae565b503d6141e3565b8c513d8d823e3d90fd5b5050505050505061408d33614b81565b6142349294506003015490613e41565b913880613f46565b8451630fec21fd60e21b8152600490fd5b81548110156143c2578260ff60046142658486613d54565b50015416156143ba57508561427a8284613d54565b509060076003809301541460001461437b575062cb73565b603c6142ac60026142a38688613d54565b50015442613e41565b0491806142b98587613d54565b5001548311614364575b5084821561435857916142eb6142f092633b9aca00946142e38789613d54565b500154613deb565b613deb565b046142fb8284613d54565b50906005809201549081811161431c575b505050908280925b019091613f07565b9561434e6143396143328897969488969a613e41565b8093613e14565b976143448487613d54565b5001918254613e14565b905591923861430c565b93929050839150614314565b9091506143718385613d54565b50015490386142c3565b600f826143888587613d54565b5001540361439a575062fe502b614292565b601e826143a78587613d54565b5001540361429257506301312d00614292565b809291614314565b613f0c565b8351634065aaf160e11b8152600490fd5b5060ff600386015416613ef3565b604f5460081c6001600160a01b03908116908161445b575b505060185480158015614447575b61443a5760175490670de0b6b3a764000091828102928184041490151715613dfe5761443791613e21565b90565b50670de0b6b3a764000090565b50683635c9adc5dea000006017541061440c565b602090600154166024604051809481936341976e0960e01b835260048301525afa6000918161449a575b50614491575b806143fe565b801561448b5790565b9091506020813d6020116144c6575b816144b660209383613c65565b81010312610b2f57519038614485565b3d91506144a9565b6000198114613dfe5760010190565b9190811015613be65760051b0190565b356001600160a01b0381168103610b2f5790565b6001600160a01b0390811690811561454a57600080516020615a6983398151915280546001600160a01b03198116841790915516600080516020615b09833981519152600080a3565b604051631e4fbdf760e01b815260006004820152602490fd5b600080516020615a69833981519152546001600160a01b0316330361458457565b60405163118cdaa760e01b8152336004820152602490fd5b600080516020615b6983398151915260028154146145ba5760029055565b604051633ee5aeb560e01b8152600490fd5b9060208201516145f060408401916145ea835160e087015190613deb565b90613e14565b4210908115916146b25761462e81633b9aca00925160078114600014614688575061462663ffffffff62cb73565b168751613deb565b905190613deb565b04606084015180821160001461467a5761464d61466891606493613e41565b6080860151909590801561466c5760c090915b015190613deb565b0491565b5060c060a082015191614660565b50506064614668600061464d565b600f036146a05761462663ffffffff62fe502b61461e565b61462663ffffffff6301312d0061461e565b50600092508291829150565b93909181614734575b505060405163a9059cbb60e01b8152926020928492839160009183916146f09160048401613d39565b03926001600160a01b03165af19081156147285760009161470f575090565b614437915060203d60201161058c5761057d8183613c65565b6040513d6000823e3d90fd5b60018060a09594951b03808616916040938451926370a0823160e01b84528088169081600486015260209485816024818a5afa9081156148b757908491600091614886575b501061487757865191636eb1769f60e11b83526004830152831660248201528381604481885afa90811561486c5790829160009161483b575b501061482e576147dc938392600087518097819582946323b872dd60e01b84528d60048501613dc9565b03925af19283156148245750600092614807575b5050156147ff579038806146c7565b505050600090565b61481d9250803d1061058c5761057d8183613c65565b38806147f0565b513d6000823e3d90fd5b5050505050505050600090565b809250858092503d8311614865575b6148548183613c65565b81010312610b2f57819051386147b2565b503d61484a565b86513d6000823e3d90fd5b50505050505050505050600090565b809250878092503d83116148b0575b61489f8183613c65565b81010312610b2f5783905138614779565b503d614895565b88513d6000823e3d90fd5b8051821015613be65760209160051b010190565b805490600090818155826148e957505050565b6001906001600160ff1b0384168403614928578252602082209260011b8301925b8381106149175750505050565b80836002925583838201550161490a565b634e487b7160e01b83526011600452602483fd5b6000818152601e6020908152604080832054601d8352818420805493969495929492936001600160a01b0392831693906001600160401b0390818111614aaf5787519391614990600583901b8c0186613c65565b81855291895289892089928b86015b838510614a78575050505050865b8251811015614a6157806149de856149c7600194876148c2565b5151168b6149d584886148c2565b5101519061559f565b86898c83614a28575b8a92507fae629b396150638d6eb6de457cbffe5d618a10c8cc199a94976bed2b16ecd993915088614a18868a6148c2565b515116938c51908152a3016149ad565b6060600080516020615a09833981519152918c8b614a46898d6148c2565b515116946004815193898552840152820152a386898c6149e7565b5096915050601d915061408d9492835252206148d6565b8a518b810181811084821117612e7d576001928f91926002938f528b8754168152848701548382015281520193019401939161499f565b634e487b7160e01b89526041600452602489fd5b8015613dfe576000190190565b60018060a01b038060009216825260106020526040822090600182015415159182614b71575b50600f602052604083206005810160ff815416151584151514614b6a57805460ff191660ff851515161790555416918215614b655760019260409215614b4d578152600f6020522001614b4981546144ce565b9055565b81522001805480614b5c575050565b614b4990614ac3565b505050565b5050505050565b6003015460ff1615915038614af6565b6001600160a01b038116600081815260106020526040902060038101805492939260ff811615614bb2575050505050565b906001602495969260ff19161790556011602052604060002094600092600094602060018060a01b0360005416604051988980926370a0823160e01b82523060048301525afa96871561472857600097614f5b575b50600095945b8854871015614cc85760ff6004614c24898c613d54565b5001541615614cbe576001614c39888b613d54565b50015490818060011b0460021482151715613dfe5789614c91916001614c738b61012c614c6c8498600c5490861b613deb565b0494613d54565b500154828110614cb157906145ea83614c8b93613e41565b97613e14565b966004614c9e828c613d54565b5001805460ff191690555b019594614c0d565b60009250614c8b91613e14565b9495600190614ca9565b939750909450819593919383614db8575b505091600080516020615b898339815191526040600080516020615b29833981519152959385602096614d97575b6000858152600f885283902060058101805460ff19811690915590546001600160a01b03169060ff1680614d8e575b80614d7a575b614d5e575b50825191825286820152a254604051908152a23880808080614b6a565b60005260018360002001614d728154614ac3565b905538614d41565b508060005260018460002001541515614d3c565b50801515614d36565b84600052600f875260068360002001614db1828254613e14565b9055614d07565b9094929390848110614e5c5750506000805460405163a9059cbb60e01b81529560209287926001600160a01b0316918391908290614dfb908a9060048401613d39565b03925af19384156147285760406020948793600080516020615b8983398151915293600080516020615b2983398151915298614e3f575b505b939550939550614cd9565b614e5590883d8a1161058c5761057d8183613c65565b5038614e32565b9092939481614eaf575b506040600080516020615b2983398151915295849360209695600080516020615ac983398151915284600080516020615b89833981519152968151908682528b820152a2614e34565b81614ee5929395945060209160018060a01b036000541690600060405180968195829463a9059cbb60e01b845260048401613d39565b03925af1801561472857600080516020615b298339815191529560209588600080516020615ac983398151915260408297600080516020615b89833981519152978297614f3e575b509650505050939495509550614e66565b614f54908c3d8e1161058c5761057d8183613c65565b5038614f2d565b9096506020813d602011614f87575b81614f7760209383613c65565b81010312610b2f57519538614c07565b3d9150614f6a565b6127108110156150335761138881101561502a576107d0811015615021576103e8811015615018576101f481101561500f5760c8811015615006576064811015614ffd576032811015614ff45760141115614fec57600090600090565b600190600590565b50600290600a90565b50600390600f90565b50600490601490565b50600590601990565b50600690601e90565b50600790602390565b50600890602890565b50600990602d90565b6001600160a01b0390811660008181526010602090815260408083206001818101805496979096939590949291841580156151fa575b6151a557601184528682208054839291835b8281106151ba57505050506151b05760028201966150a6885460155490613e14565b4211156151a557600383837f57025f0027038907eda728b59164fb63d06048f42e618a35267e6a12e49b2e469a8a9654998d8352600f895260ff600589852092835416920154168061519c575b8061518a575b615170575b508c8252600f88528187812095816004600589019860ff19998a81541690558289820155015581855555550190815416905584615141575b5051928352820152a2565b848152601383526151538282206148d6565b848152601c83522080546001600160a01b03191690558338615136565b82526001878320016151828154614ac3565b9055386150fe565b508083526001888420015415156150f9565b508015156150f3565b505050505050505050565b5050505050505050565b60ff60046151c88385613d54565b500154166151d8575b8301615084565b936151f28491826151e98886613d54565b50015490613e14565b9490506151d1565b5060ff600384015416615072565b60018060a01b03808216906000918083526020600f8152604090818520936010825282862060ff600587015416159081156153fd575b81156153f0575b506153e557602482828854168551928380926370a0823160e01b82523060048301525afa9081156153db5790899188916153aa575b50106153855760048501956003875496019561529887548092613e41565b8a81811161535d575b505089806152c7575b5050505050505054905411156152be575090565b61443790614b81565b6152f8936152d6828794613e14565b89558354168a84885180978195829463a9059cbb60e01b845260048401613d39565b03925af1908115615352575090600080516020615b49833981519152939291615335575b506002825191898352820152a2388080808080896152aa565b61534b90823d841161058c5761057d8183613c65565b503861531c565b8451903d90823e3d90fd5b819b5086600080516020615ac98339815191529189939d825191825288820152a238806152a1565b50849692955081600080516020615ac98339815191529592945051928352820152a290565b809250848092503d83116153d4575b6153c38183613c65565b81010312612ad7578890513861527a565b503d6153b9565b84513d89823e3d90fd5b505050505091505090565b6001915001541538615245565b600381015460ff16915061523e565b60018060a01b03808216906000918083526020600f8152604090818520936010825282862060ff60058701541615908115615590575b8115615583575b506153e557602482828854168551928380926370a0823160e01b82523060048301525afa9081156153db579089918891615552575b50106153855760048501956003875496019561549c87548092613e41565b8a81811161552a575b505089806154c1575050505050505054905411156152be575090565b6154d0936152d6828794613e14565b03925af1908115615352575090600080516020615b4983398151915293929161550d575b506003825191898352820152a2388080808080896152aa565b61552390823d841161058c5761057d8183613c65565b50386154f4565b819b5086600080516020615ac98339815191529189939d825191825288820152a238806154a5565b809250848092503d831161557c575b61556b8183613c65565b81010312612ad7578890513861547e565b503d615561565b6001915001541538615449565b600381015460ff169150615442565b60018060a01b03808216906000918083526020600f8152604090818520936010825282862060ff60058701541615908115615723575b8115615716575b506153e557602482828854168551928380926370a0823160e01b82523060048301525afa9081156153db5790899188916156e5575b50106153855760048501956003875496019561562f87548092613e41565b8a8181116156bd575b50508980615654575050505050505054905411156152be575090565b615663936152d6828794613e14565b03925af1908115615352575090600080516020615b498339815191529392916156a0575b506004825191898352820152a2388080808080896152aa565b6156b690823d841161058c5761057d8183613c65565b5038615687565b819b5086600080516020615ac98339815191529189939d825191825288820152a23880615638565b809250848092503d831161570f575b6156fe8183613c65565b81010312612ad75788905138615611565b503d6156f4565b60019150015415386155dc565b600381015460ff1691506155d5565b90811561597257601754683635c9adc5dea00000808210908115615966575b506159615760018060a01b03926000938085541692604093845191826370a0823160e01b9283825230600483015281602460209687935afa90811561595757899161592a575b506157a28683613e14565b1161590c57612710850261270f1986820401615916576157c5826103e892613e21565b1161590c57601854906157e56157db8388613deb565b6126e78884613e14565b9485158015615903575b6158f757600154169287519081523060048201528481602481875afa9081156158ed579083918b916158b8575b50106158ad57848993926138188861583394613e14565b601855803b1561283d5781906024875180948193630852cd8d60e31b83528860048401525af180156158a3577f0ec3929061cbbbeecb325623e7d5a86c3dae11cb8a22ca45dc0972955657da25969750615894575b508351928352820152a1565b61589d90613c52565b38615888565b85513d89823e3d90fd5b505050505050509050565b809250868092503d83116158e6575b6158d18183613c65565b810103126158e2578290513861581c565b8980fd5b503d6158c7565b88513d8c823e3d90fd5b50505050505050509050565b508286116157ef565b5050505050509050565b634e487b7160e01b89526011600452602489fd5b90508381813d8311615950575b6159418183613c65565b81010312614143575138615797565b503d615937565b87513d8b823e3d90fd5b509050565b90506018541038615751565b9050565b60ff600080516020615ba98339815191525460401c161561599357565b604051631afcd79f60e31b8152600490fd5b906159cc57508051156159ba57602081519101fd5b60405163d6bda27560e01b8152600490fd5b815115806159ff575b6159dd575090565b604051639996b31560e01b81526001600160a01b039091166004820152602490fd5b50803b156159d556fe9b3cc71482a1b2eebe764a739f46f1fe99291fd0183be81951532b29d0c9c8da38f8a0c92f4c5b0b6877f878cb4c0c8d348a47b76d716c8e78f425043df9515b6fcebd0a2ce98b28cb391d6008bbc769378c9a4919628e11639cb575cd320fcc9016d09d72d40fdae2fd8ceac6b6234c7706214fd39c1cd1e609a0528c199300a0eea20e678cb42233c1c456c84cedce7ea53fa360bb71bf3b761b7609567770360894a13ba1a3210667c828492db98dca3e2076cc3735a920a3ca505d382bbcb5987aab1afd379f6695f1068869ee8ca6a0d02304c57935a9cc3d3ea2e51e4d520bc217d25ef4588524228dffcfa518f4ad52178c71d49b8061d016213cd3118be0079c531659141344cd1fd0a4f28419497f9722a3daafe3b4186f6b6457e0920bb94eb3842a728db98228c375ff6b00c5bc5a54fac6736155517a0a20a61af381583145e90b82cc5e529bf4fc4d0e44397174cdf145c4251ac33ef195a4249b779b17422d0df92223018b32b4d1fa46e071723d6817e2486d003becc55f00f3a670cd3af7d64b488926880889d08a8585a138ff455227af6737339a1ec262f0c57e16840df040f15088dc2f81fe391c3923bec73e23a9662efc9c229c6a00a26469706673582212201877d9cfbb9ab233da33f3366616bd7b4bba2c652b1ee4f4a2b9c71276e8917e64736f6c63430008160033",
  "linkReferences": {},
  "deployedLinkReferences": {}
}