{
  "_format": "hh-sol-artifact-1",
  "contractName": "JinbaoProtocol",
  "sourceName": "contracts/JinbaoProtocol.sol",
  "abi": [
    {
      "inputs": [
        {
          "internalType": "address",
          "name": "_mcToken",
          "type": "address"
        },
        {
          "internalType": "address",
          "name": "_jbcToken",
          "type": "address"
        },
        {
          "internalType": "address",
          "name": "_marketing",
          "type": "address"
        },
        {
          "internalType": "address",
          "name": "_treasury",
          "type": "address"
        },
        {
          "internalType": "address",
          "name": "_lpInjection",
          "type": "address"
        },
        {
          "internalType": "address",
          "name": "_buyback",
          "type": "address"
        }
      ],
      "stateMutability": "nonpayable",
      "type": "constructor"
    },
    {
      "inputs": [
        {
          "internalType": "address",
          "name": "owner",
          "type": "address"
        }
      ],
      "name": "OwnableInvalidOwner",
      "type": "error"
    },
    {
      "inputs": [
        {
          "internalType": "address",
          "name": "account",
          "type": "address"
        }
      ],
      "name": "OwnableUnauthorizedAccount",
      "type": "error"
    },
    {
      "inputs": [],
      "name": "ReentrancyGuardReentrantCall",
      "type": "error"
    },
    {
      "anonymous": false,
      "inputs": [
        {
          "indexed": true,
          "internalType": "address",
          "name": "user",
          "type": "address"
        },
        {
          "indexed": true,
          "internalType": "address",
          "name": "referrer",
          "type": "address"
        }
      ],
      "name": "BoundReferrer",
      "type": "event"
    },
    {
      "anonymous": false,
      "inputs": [
        {
          "indexed": true,
          "internalType": "address",
          "name": "user",
          "type": "address"
        },
        {
          "indexed": false,
          "internalType": "uint256",
          "name": "amount",
          "type": "uint256"
        },
        {
          "indexed": false,
          "internalType": "uint256",
          "name": "cycleDays",
          "type": "uint256"
        }
      ],
      "name": "LiquidityStaked",
      "type": "event"
    },
    {
      "anonymous": false,
      "inputs": [
        {
          "indexed": true,
          "internalType": "address",
          "name": "previousOwner",
          "type": "address"
        },
        {
          "indexed": true,
          "internalType": "address",
          "name": "newOwner",
          "type": "address"
        }
      ],
      "name": "OwnershipTransferred",
      "type": "event"
    },
    {
      "anonymous": false,
      "inputs": [
        {
          "indexed": true,
          "internalType": "address",
          "name": "user",
          "type": "address"
        },
        {
          "indexed": false,
          "internalType": "uint256",
          "name": "principal",
          "type": "uint256"
        },
        {
          "indexed": false,
          "internalType": "uint256",
          "name": "fee",
          "type": "uint256"
        }
      ],
      "name": "Redeemed",
      "type": "event"
    },
    {
      "anonymous": false,
      "inputs": [
        {
          "indexed": true,
          "internalType": "address",
          "name": "user",
          "type": "address"
        },
        {
          "indexed": false,
          "internalType": "uint256",
          "name": "mcAmount",
          "type": "uint256"
        },
        {
          "indexed": false,
          "internalType": "uint256",
          "name": "jbcAmount",
          "type": "uint256"
        }
      ],
      "name": "RewardClaimed",
      "type": "event"
    },
    {
      "anonymous": false,
      "inputs": [
        {
          "indexed": true,
          "internalType": "address",
          "name": "user",
          "type": "address"
        },
        {
          "indexed": false,
          "internalType": "uint256",
          "name": "amount",
          "type": "uint256"
        }
      ],
      "name": "TicketPurchased",
      "type": "event"
    },
    {
      "inputs": [],
      "name": "REDEMPTION_FEE_PERCENT",
      "outputs": [
        {
          "internalType": "uint256",
          "name": "",
          "type": "uint256"
        }
      ],
      "stateMutability": "view",
      "type": "function"
    },
    {
      "inputs": [],
      "name": "SECONDS_IN_DAY",
      "outputs": [
        {
          "internalType": "uint256",
          "name": "",
          "type": "uint256"
        }
      ],
      "stateMutability": "view",
      "type": "function"
    },
    {
      "inputs": [
        {
          "internalType": "address",
          "name": "_referrer",
          "type": "address"
        }
      ],
      "name": "bindReferrer",
      "outputs": [],
      "stateMutability": "nonpayable",
      "type": "function"
    },
    {
      "inputs": [
        {
          "internalType": "uint256",
          "name": "amount",
          "type": "uint256"
        }
      ],
      "name": "buyTicket",
      "outputs": [],
      "stateMutability": "nonpayable",
      "type": "function"
    },
    {
      "inputs": [],
      "name": "buybackWallet",
      "outputs": [
        {
          "internalType": "address",
          "name": "",
          "type": "address"
        }
      ],
      "stateMutability": "view",
      "type": "function"
    },
    {
      "inputs": [],
      "name": "claimRewards",
      "outputs": [],
      "stateMutability": "nonpayable",
      "type": "function"
    },
    {
      "inputs": [],
      "name": "jbcToken",
      "outputs": [
        {
          "internalType": "contract IJBC",
          "name": "",
          "type": "address"
        }
      ],
      "stateMutability": "view",
      "type": "function"
    },
    {
      "inputs": [],
      "name": "lpInjectionWallet",
      "outputs": [
        {
          "internalType": "address",
          "name": "",
          "type": "address"
        }
      ],
      "stateMutability": "view",
      "type": "function"
    },
    {
      "inputs": [],
      "name": "marketingWallet",
      "outputs": [
        {
          "internalType": "address",
          "name": "",
          "type": "address"
        }
      ],
      "stateMutability": "view",
      "type": "function"
    },
    {
      "inputs": [],
      "name": "mcToken",
      "outputs": [
        {
          "internalType": "contract IERC20",
          "name": "",
          "type": "address"
        }
      ],
      "stateMutability": "view",
      "type": "function"
    },
    {
      "inputs": [],
      "name": "owner",
      "outputs": [
        {
          "internalType": "address",
          "name": "",
          "type": "address"
        }
      ],
      "stateMutability": "view",
      "type": "function"
    },
    {
      "inputs": [],
      "name": "redeem",
      "outputs": [],
      "stateMutability": "nonpayable",
      "type": "function"
    },
    {
      "inputs": [],
      "name": "renounceOwnership",
      "outputs": [],
      "stateMutability": "nonpayable",
      "type": "function"
    },
    {
      "inputs": [
        {
          "internalType": "uint256",
          "name": "cycleDays",
          "type": "uint256"
        }
      ],
      "name": "stakeLiquidity",
      "outputs": [],
      "stateMutability": "nonpayable",
      "type": "function"
    },
    {
      "inputs": [
        {
          "internalType": "address",
          "name": "newOwner",
          "type": "address"
        }
      ],
      "name": "transferOwnership",
      "outputs": [],
      "stateMutability": "nonpayable",
      "type": "function"
    },
    {
      "inputs": [],
      "name": "treasuryWallet",
      "outputs": [
        {
          "internalType": "address",
          "name": "",
          "type": "address"
        }
      ],
      "stateMutability": "view",
      "type": "function"
    },
    {
      "inputs": [
        {
          "internalType": "address",
          "name": "",
          "type": "address"
        }
      ],
      "name": "userInfo",
      "outputs": [
        {
          "internalType": "address",
          "name": "referrer",
          "type": "address"
        },
        {
          "internalType": "uint256",
          "name": "activeDirects",
          "type": "uint256"
        },
        {
          "internalType": "uint256",
          "name": "teamCount",
          "type": "uint256"
        },
        {
          "internalType": "uint256",
          "name": "totalRevenue",
          "type": "uint256"
        },
        {
          "internalType": "uint256",
          "name": "currentCap",
          "type": "uint256"
        },
        {
          "internalType": "bool",
          "name": "isActive",
          "type": "bool"
        }
      ],
      "stateMutability": "view",
      "type": "function"
    },
    {
      "inputs": [
        {
          "internalType": "address",
          "name": "",
          "type": "address"
        }
      ],
      "name": "userTicket",
      "outputs": [
        {
          "internalType": "uint256",
          "name": "amount",
          "type": "uint256"
        },
        {
          "internalType": "uint256",
          "name": "requiredLiquidity",
          "type": "uint256"
        },
        {
          "internalType": "uint256",
          "name": "purchaseTime",
          "type": "uint256"
        },
        {
          "internalType": "bool",
          "name": "liquidityProvided",
          "type": "bool"
        },
        {
          "internalType": "uint256",
          "name": "liquidityAmount",
          "type": "uint256"
        },
        {
          "internalType": "uint256",
          "name": "startTime",
          "type": "uint256"
        },
        {
          "internalType": "uint256",
          "name": "cycleDays",
          "type": "uint256"
        },
        {
          "internalType": "bool",
          "name": "redeemed",
          "type": "bool"
        }
      ],
      "stateMutability": "view",
      "type": "function"
    }
  ],
  "bytecode": "0x60806040523480156200001157600080fd5b506040516200198e3803806200198e83398101604081905262000034916200014b565b33806200005b57604051631e4fbdf760e01b81526000600482015260240160405180910390fd5b6200006681620000de565b5060018055600280546001600160a01b03199081166001600160a01b0398891617909155600380548216968816969096179095556004805486169487169490941790935560058054851692861692909217909155600680548416918516919091179055600780549092169216919091179055620001cc565b600080546001600160a01b038381166001600160a01b0319831681178455604051919092169283917f8be0079c531659141344cd1fd0a4f28419497f9722a3daafe3b4186f6b6457e09190a35050565b80516001600160a01b03811681146200014657600080fd5b919050565b60008060008060008060c087890312156200016557600080fd5b62000170876200012e565b955062000180602088016200012e565b945062000190604088016200012e565b9350620001a0606088016200012e565b9250620001b0608088016200012e565b9150620001c060a088016200012e565b90509295509295509295565b6117b280620001dc6000396000f3fe608060405234801561001057600080fd5b50600436106101165760003560e01c8063715018a6116100a25780638da5cb5b116100715780638da5cb5b1461030d578063952539921461031e578063be040fb014610331578063deab8aea14610339578063f2fde38b1461034c57600080fd5b8063715018a61461024a57806375f0a874146102525780638710bcaa1461026557806388fd4d33146102fa57600080fd5b806335076373116100e957806335076373146101ff578063372500ab146102125780634626402b1461021a57806361a52a361461022d57806367dd74ca1461023757600080fd5b806304f618cb1461011b5780631788513c146101305780631959a0021461016057806320b3ca98146101e9575b600080fd5b61012e61012936600461164b565b61035f565b005b600354610143906001600160a01b031681565b6040516001600160a01b0390911681526020015b60405180910390f35b6101b061016e36600461164b565b6008602052600090815260409020805460018201546002830154600384015460048501546005909501546001600160a01b039094169492939192909160ff1686565b604080516001600160a01b03909716875260208701959095529385019290925260608401526080830152151560a082015260c001610157565b6101f1600181565b604051908152602001610157565b61012e61020d36600461167b565b6104a5565b61012e61072f565b600554610143906001600160a01b031681565b6101f16201518081565b61012e61024536600461167b565b610c2a565b61012e6112f8565b600454610143906001600160a01b031681565b6102bd61027336600461164b565b6009602052600090815260409020805460018201546002830154600384015460048501546005860154600687015460079097015495969495939460ff938416949293919290911688565b604080519889526020890197909752958701949094529115156060860152608085015260a084015260c0830152151560e082015261010001610157565b600654610143906001600160a01b031681565b6000546001600160a01b0316610143565b600254610143906001600160a01b031681565b61012e61130a565b600754610143906001600160a01b031681565b61012e61035a36600461164b565b611569565b336000908152600860205260409020546001600160a01b0316156103ba5760405162461bcd60e51b815260206004820152600d60248201526c105b1c9958591e48189bdd5b99609a1b60448201526064015b60405180910390fd5b336001600160a01b038216036104055760405162461bcd60e51b815260206004820152601060248201526f21b0b73737ba103134b7321039b2b63360811b60448201526064016103b1565b6001600160a01b03811661044e5760405162461bcd60e51b815260206004820152601060248201526f24b73b30b634b2103932b332b93932b960811b60448201526064016103b1565b3360008181526008602052604080822080546001600160a01b0319166001600160a01b03861690811790915590519092917fa6dbb5aa28f35437de94d685d66edce5fb4812196b4984b91dfd5a7b38c0fb3091a350565b6104ad6115a4565b3360009081526009602052604090208054158015906104d15750600381015460ff16155b61050f5760405162461bcd60e51b815260206004820152600f60248201526e139bc81d985b1a59081d1a58dad95d608a1b60448201526064016103b1565b6002810154610521906203f4806116aa565b4211156105615760405162461bcd60e51b815260206004820152600e60248201526d151a58dad95d08195e1c1a5c995960921b60448201526064016103b1565b8160071480610570575081600f145b8061057b575081601e145b6105b75760405162461bcd60e51b815260206004820152600d60248201526c496e76616c6964206379636c6560981b60448201526064016103b1565b60018101546002546040516323b872dd60e01b8152336004820152306024820152604481018390526001600160a01b03909116906323b872dd906064016020604051808303816000875af1158015610613573d6000803e3d6000fd5b505050506040513d601f19601f8201168201806040525081019061063791906116c3565b5060038201805460ff191660011790556004820181905542600583015560068201839055336000908152600860205260409020546001600160a01b0316801580159061069657503360009081526008602052604090206005015460ff16155b156106e5576001600160a01b03811660009081526008602052604081206001018054916106c2836116e5565b9091555050336000908152600860205260409020600501805460ff191660011790555b604080518381526020810186905233917f1e54d7530dad81af38adb8ca9db02add3130668375f37be85396403616fc3d49910160405180910390a250505061072c60018055565b50565b6107376115a4565b336000908152600960205260409020600381015460ff16801561075f5750600781015460ff16155b6107985760405162461bcd60e51b815260206004820152600a6024820152694e6f742061637469766560b01b60448201526064016103b1565b600081600601546007036107ae575060146107d2565b8160060154600f036107c2575060196107d2565b8160060154601e036107d25750601e5b6000620151808360050154426107e891906116fe565b6107f29190611711565b9050600081116108355760405162461bcd60e51b815260206004820152600e60248201526d139bc81c995dd85c991cc81e595d60921b60448201526064016103b1565b8260060154811115610848575060068201545b60006103e88284866000015461085e9190611733565b6108689190611733565b6108729190611711565b33600090815260086020526040902060048101546003909101549192509061089b9083906116aa565b11156108c85733600090815260086020526040902060038101546004909101546108c591906116fe565b90505b6000811161090e5760405162461bcd60e51b81526020600482015260136024820152724e6f207265776172647320746f20636c61696d60681b60448201526064016103b1565b33600090815260086020526040812060030180548392906109309084906116aa565b9091555060009050610943600283611711565b90506000610952600284611711565b6002546040516370a0823160e01b815230600482015291925083916001600160a01b03909116906370a0823190602401602060405180830381865afa15801561099f573d6000803e3d6000fd5b505050506040513d601f19601f820116820180604052508101906109c3919061174a565b1015610a115760405162461bcd60e51b815260206004820152601760248201527f496e73756666696369656e74204d4320696e20706f6f6c00000000000000000060448201526064016103b1565b60025460405163a9059cbb60e01b81526001600160a01b039091169063a9059cbb90610a439033908690600401611763565b6020604051808303816000875af1158015610a62573d6000803e3d6000fd5b505050506040513d601f19601f82011682018060405250810190610a8691906116c3565b50670de0b6b3a7640000600081610a9d8482611733565b610aa79190611711565b6003546040516370a0823160e01b815230600482015291925082916001600160a01b03909116906370a0823190602401602060405180830381865afa158015610af4573d6000803e3d6000fd5b505050506040513d601f19601f82011682018060405250810190610b18919061174a565b1015610b665760405162461bcd60e51b815260206004820152601860248201527f496e73756666696369656e74204a424320696e20706f6f6c000000000000000060448201526064016103b1565b60035460405163a9059cbb60e01b81526001600160a01b039091169063a9059cbb90610b989033908590600401611763565b6020604051808303816000875af1158015610bb7573d6000803e3d6000fd5b505050506040513d601f19601f82011682018060405250810190610bdb91906116c3565b50604080518581526020810183905233917ff01da32686223933d8a18a391060918c7f11a3648639edd87ae013e2e2731743910160405180910390a25050505050505050610c2860018055565b565b610c326115a4565b8068056bc75e2d631000001480610c51575080681043561a8829300000145b80610c64575080681b1ae4d6e2ef500000145b80610c77575080683635c9adc5dea00000145b610cb95760405162461bcd60e51b815260206004820152601360248201527224b73b30b634b2103a34b1b5b2ba103a34b2b960691b60448201526064016103b1565b3360009081526009602052604090206003015460ff161580610ced57503360009081526009602052604090206007015460ff165b610d305760405162461bcd60e51b8152602060048201526014602482015273416374697665207469636b65742065786973747360601b60448201526064016103b1565b6002546040516323b872dd60e01b8152336004820152306024820152604481018390526001600160a01b03909116906323b872dd906064016020604051808303816000875af1158015610d87573d6000803e3d6000fd5b505050506040513d601f19601f82011682018060405250810190610dab91906116c3565b50336000908152600860205260409020546001600160a01b03168015610e5a576002546001600160a01b031663a9059cbb826064610dea866019611733565b610df49190611711565b6040518363ffffffff1660e01b8152600401610e11929190611763565b6020604051808303816000875af1158015610e30573d6000803e3d6000fd5b505050506040513d601f19601f82011682018060405250810190610e5491906116c3565b50610eec565b6002546004546001600160a01b039182169163a9059cbb91166064610e80866019611733565b610e8a9190611711565b6040518363ffffffff1660e01b8152600401610ea7929190611763565b6020604051808303816000875af1158015610ec6573d6000803e3d6000fd5b505050506040513d601f19601f82011682018060405250810190610eea91906116c3565b505b6002546004546001600160a01b039182169163a9059cbb91166064610f1286600f611733565b610f1c9190611711565b6040518363ffffffff1660e01b8152600401610f39929190611763565b6020604051808303816000875af1158015610f58573d6000803e3d6000fd5b505050506040513d601f19601f82011682018060405250810190610f7c91906116c3565b506002546004546001600160a01b039182169163a9059cbb91166064610fa3866005611733565b610fad9190611711565b6040518363ffffffff1660e01b8152600401610fca929190611763565b6020604051808303816000875af1158015610fe9573d6000803e3d6000fd5b505050506040513d601f19601f8201168201806040525081019061100d91906116c3565b506002546007546001600160a01b039182169163a9059cbb91166064611034866005611733565b61103e9190611711565b6040518363ffffffff1660e01b815260040161105b929190611763565b6020604051808303816000875af115801561107a573d6000803e3d6000fd5b505050506040513d601f19601f8201168201806040525081019061109e91906116c3565b506002546006546001600160a01b039182169163a9059cbb911660646110c5866019611733565b6110cf9190611711565b6040518363ffffffff1660e01b81526004016110ec929190611763565b6020604051808303816000875af115801561110b573d6000803e3d6000fd5b505050506040513d601f19601f8201168201806040525081019061112f91906116c3565b506002546005546001600160a01b039182169163a9059cbb91166064611156866019611733565b6111609190611711565b6040518363ffffffff1660e01b815260040161117d929190611763565b6020604051808303816000875af115801561119c573d6000803e3d6000fd5b505050506040513d601f19601f820116820180604052508101906111c091906116c3565b5060405180610100016040528083815260200160648460966111e29190611733565b6111ec9190611711565b815242602080830191909152600060408084018290526060808501839052608080860184905260a080870185905260c09687018590523385526009865293839020875181559487015160018601559186015160028501558501516003808501805492151560ff1993841617905591860151600485015591850151600584015592840151600683015560e090930151600790910180549115159190931617909155611297908390611733565b33600081815260086020526040808220600481019490945560039093015590517f0668f5b446eb814fe35b3206f43f14bd8567ba04ddaf7a3ee56516929ab22ccb906112e69085815260200190565b60405180910390a25061072c60018055565b6113006115ce565b610c2860006115fb565b6113126115a4565b336000908152600960205260409020600381015460ff16801561133a5750600781015460ff16155b6113765760405162461bcd60e51b815260206004820152600d60248201526c43616e6e6f742072656465656d60981b60448201526064016103b1565b60068101546113889062015180611733565b816005015461139791906116aa565b4210156113db5760405162461bcd60e51b815260206004820152601260248201527110de58db19481b9bdd08199a5b9a5cda195960721b60448201526064016103b1565b60006064600183600001546113f09190611733565b6113fa9190611711565b6002546040516323b872dd60e01b8152336004820152306024820152604481018390529192506001600160a01b0316906323b872dd906064016020604051808303816000875af1158015611452573d6000803e3d6000fd5b505050506040513d601f19601f8201168201806040525081019061147691906116c3565b5060025460048084015460405163a9059cbb60e01b81526001600160a01b039093169263a9059cbb926114ad923392909101611763565b6020604051808303816000875af11580156114cc573d6000803e3d6000fd5b505050506040513d601f19601f820116820180604052508101906114f091906116c3565b50600782018054600160ff19918216179091553360008181526008602090815260409182902060050180549094169093556004850154815190815292830184905290917ff3a670cd3af7d64b488926880889d08a8585a138ff455227af6737339a1ec262910160405180910390a25050610c2860018055565b6115716115ce565b6001600160a01b03811661159b57604051631e4fbdf760e01b8152600060048201526024016103b1565b61072c816115fb565b6002600154036115c757604051633ee5aeb560e01b815260040160405180910390fd5b6002600155565b6000546001600160a01b03163314610c285760405163118cdaa760e01b81523360048201526024016103b1565b600080546001600160a01b038381166001600160a01b0319831681178455604051919092169283917f8be0079c531659141344cd1fd0a4f28419497f9722a3daafe3b4186f6b6457e09190a35050565b60006020828403121561165d57600080fd5b81356001600160a01b038116811461167457600080fd5b9392505050565b60006020828403121561168d57600080fd5b5035919050565b634e487b7160e01b600052601160045260246000fd5b808201808211156116bd576116bd611694565b92915050565b6000602082840312156116d557600080fd5b8151801515811461167457600080fd5b6000600182016116f7576116f7611694565b5060010190565b818103818111156116bd576116bd611694565b60008261172e57634e487b7160e01b600052601260045260246000fd5b500490565b80820281158282048414176116bd576116bd611694565b60006020828403121561175c57600080fd5b5051919050565b6001600160a01b0392909216825260208201526040019056fea26469706673582212207b90e3b2f70b70efced4cae22b5523dd7cb915a39062a0678a529357d7d9c73d64736f6c63430008140033",
  "linkReferences": {},
  "deployedLinkReferences": {}
}