{
  "_format": "hh-sol-artifact-1",
  "contractName": "JBCMigration",
  "sourceName": "contracts/JBCMigration.sol",
  "abi": [
    {
      "inputs": [
        {
          "internalType": "address",
          "name": "_oldJBC",
          "type": "address"
        },
        {
          "internalType": "address",
          "name": "_newJBC",
          "type": "address"
        }
      ],
      "stateMutability": "nonpayable",
      "type": "constructor"
    },
    {
      "inputs": [
        {
          "internalType": "address",
          "name": "owner",
          "type": "address"
        }
      ],
      "name": "OwnableInvalidOwner",
      "type": "error"
    },
    {
      "inputs": [
        {
          "internalType": "address",
          "name": "account",
          "type": "address"
        }
      ],
      "name": "OwnableUnauthorizedAccount",
      "type": "error"
    },
    {
      "inputs": [],
      "name": "ReentrancyGuardReentrantCall",
      "type": "error"
    },
    {
      "anonymous": false,
      "inputs": [
        {
          "indexed": false,
          "internalType": "address",
          "name": "token",
          "type": "address"
        },
        {
          "indexed": false,
          "internalType": "uint256",
          "name": "amount",
          "type": "uint256"
        }
      ],
      "name": "EmergencyWithdraw",
      "type": "event"
    },
    {
      "anonymous": false,
      "inputs": [
        {
          "indexed": true,
          "internalType": "address",
          "name": "user",
          "type": "address"
        },
        {
          "indexed": false,
          "internalType": "uint256",
          "name": "amount",
          "type": "uint256"
        },
        {
          "indexed": false,
          "internalType": "uint256",
          "name": "timestamp",
          "type": "uint256"
        }
      ],
      "name": "Migration",
      "type": "event"
    },
    {
      "anonymous": false,
      "inputs": [
        {
          "indexed": false,
          "internalType": "bool",
          "name": "enabled",
          "type": "bool"
        }
      ],
      "name": "MigrationEnabled",
      "type": "event"
    },
    {
      "anonymous": false,
      "inputs": [
        {
          "indexed": true,
          "internalType": "address",
          "name": "previousOwner",
          "type": "address"
        },
        {
          "indexed": true,
          "internalType": "address",
          "name": "newOwner",
          "type": "address"
        }
      ],
      "name": "OwnershipTransferred",
      "type": "event"
    },
    {
      "inputs": [
        {
          "internalType": "address[]",
          "name": "users",
          "type": "address[]"
        },
        {
          "internalType": "uint256[]",
          "name": "amounts",
          "type": "uint256[]"
        }
      ],
      "name": "batchMigrate",
      "outputs": [],
      "stateMutability": "nonpayable",
      "type": "function"
    },
    {
      "inputs": [
        {
          "internalType": "uint256",
          "name": "amount",
          "type": "uint256"
        }
      ],
      "name": "burnOldTokens",
      "outputs": [],
      "stateMutability": "nonpayable",
      "type": "function"
    },
    {
      "inputs": [
        {
          "internalType": "address",
          "name": "user",
          "type": "address"
        },
        {
          "internalType": "uint256",
          "name": "amount",
          "type": "uint256"
        }
      ],
      "name": "canMigrate",
      "outputs": [
        {
          "internalType": "bool",
          "name": "canMigrate_",
          "type": "bool"
        },
        {
          "internalType": "string",
          "name": "reason",
          "type": "string"
        }
      ],
      "stateMutability": "view",
      "type": "function"
    },
    {
      "inputs": [
        {
          "internalType": "address",
          "name": "token",
          "type": "address"
        },
        {
          "internalType": "uint256",
          "name": "amount",
          "type": "uint256"
        }
      ],
      "name": "emergencyWithdraw",
      "outputs": [],
      "stateMutability": "nonpayable",
      "type": "function"
    },
    {
      "inputs": [
        {
          "internalType": "uint256",
          "name": "amount",
          "type": "uint256"
        }
      ],
      "name": "fundContract",
      "outputs": [],
      "stateMutability": "nonpayable",
      "type": "function"
    },
    {
      "inputs": [],
      "name": "getMigrationProgress",
      "outputs": [
        {
          "internalType": "uint256",
          "name": "totalOldSupply",
          "type": "uint256"
        },
        {
          "internalType": "uint256",
          "name": "totalMigrated_",
          "type": "uint256"
        },
        {
          "internalType": "uint256",
          "name": "migrationPercentage",
          "type": "uint256"
        },
        {
          "internalType": "uint256",
          "name": "remainingToMigrate",
          "type": "uint256"
        }
      ],
      "stateMutability": "view",
      "type": "function"
    },
    {
      "inputs": [],
      "name": "getMigrationStats",
      "outputs": [
        {
          "internalType": "uint256",
          "name": "totalMigrated_",
          "type": "uint256"
        },
        {
          "internalType": "uint256",
          "name": "migrationCount_",
          "type": "uint256"
        },
        {
          "internalType": "uint256",
          "name": "oldTokenBalance",
          "type": "uint256"
        },
        {
          "internalType": "uint256",
          "name": "newTokenBalance",
          "type": "uint256"
        },
        {
          "internalType": "bool",
          "name": "enabled",
          "type": "bool"
        }
      ],
      "stateMutability": "view",
      "type": "function"
    },
    {
      "inputs": [
        {
          "internalType": "address",
          "name": "user",
          "type": "address"
        }
      ],
      "name": "getUserMigrationInfo",
      "outputs": [
        {
          "internalType": "uint256",
          "name": "migrated",
          "type": "uint256"
        },
        {
          "internalType": "uint256",
          "name": "migrationTime",
          "type": "uint256"
        },
        {
          "internalType": "uint256",
          "name": "oldBalance",
          "type": "uint256"
        },
        {
          "internalType": "uint256",
          "name": "newBalance",
          "type": "uint256"
        }
      ],
      "stateMutability": "view",
      "type": "function"
    },
    {
      "inputs": [
        {
          "internalType": "uint256",
          "name": "amount",
          "type": "uint256"
        }
      ],
      "name": "migrate",
      "outputs": [],
      "stateMutability": "nonpayable",
      "type": "function"
    },
    {
      "inputs": [],
      "name": "migrationCount",
      "outputs": [
        {
          "internalType": "uint256",
          "name": "",
          "type": "uint256"
        }
      ],
      "stateMutability": "view",
      "type": "function"
    },
    {
      "inputs": [],
      "name": "migrationEnabled",
      "outputs": [
        {
          "internalType": "bool",
          "name": "",
          "type": "bool"
        }
      ],
      "stateMutability": "view",
      "type": "function"
    },
    {
      "inputs": [],
      "name": "newJBC",
      "outputs": [
        {
          "internalType": "contract IERC20",
          "name": "",
          "type": "address"
        }
      ],
      "stateMutability": "view",
      "type": "function"
    },
    {
      "inputs": [],
      "name": "oldJBC",
      "outputs": [
        {
          "internalType": "contract IERC20",
          "name": "",
          "type": "address"
        }
      ],
      "stateMutability": "view",
      "type": "function"
    },
    {
      "inputs": [],
      "name": "owner",
      "outputs": [
        {
          "internalType": "address",
          "name": "",
          "type": "address"
        }
      ],
      "stateMutability": "view",
      "type": "function"
    },
    {
      "inputs": [],
      "name": "renounceOwnership",
      "outputs": [],
      "stateMutability": "nonpayable",
      "type": "function"
    },
    {
      "inputs": [
        {
          "internalType": "bool",
          "name": "enabled",
          "type": "bool"
        }
      ],
      "name": "setMigrationEnabled",
      "outputs": [],
      "stateMutability": "nonpayable",
      "type": "function"
    },
    {
      "inputs": [],
      "name": "totalMigrated",
      "outputs": [
        {
          "internalType": "uint256",
          "name": "",
          "type": "uint256"
        }
      ],
      "stateMutability": "view",
      "type": "function"
    },
    {
      "inputs": [
        {
          "internalType": "address",
          "name": "newOwner",
          "type": "address"
        }
      ],
      "name": "transferOwnership",
      "outputs": [],
      "stateMutability": "nonpayable",
      "type": "function"
    },
    {
      "inputs": [
        {
          "internalType": "address",
          "name": "",
          "type": "address"
        }
      ],
      "name": "userMigrated",
      "outputs": [
        {
          "internalType": "uint256",
          "name": "",
          "type": "uint256"
        }
      ],
      "stateMutability": "view",
      "type": "function"
    },
    {
      "inputs": [
        {
          "internalType": "address",
          "name": "",
          "type": "address"
        }
      ],
      "name": "userMigrationTime",
      "outputs": [
        {
          "internalType": "uint256",
          "name": "",
          "type": "uint256"
        }
      ],
      "stateMutability": "view",
      "type": "function"
    }
  ],
  "bytecode": "0x60c0346200022e5762001ade90601f38839003908101601f19168201906001600160401b038211838310176200023357808391604095869485528339810103126200022e576200005d6020620000558362000249565b920162000249565b903315620002165760008054336001600160a01b03198216811783558551946001600160a01b0394909385939192918416907f8be0079c531659141344cd1fd0a4f28419497f9722a3daafe3b4186f6b6457e09080a36001805516928315620001d4575016908115620001905760805260a052600160ff1960025416176002557facaad8bf56d04ed7b9796e58f655f311d78d29ac1b825ee1a55dd8da338321606020825160018152a15161187f90816200025f823960805181818161020e01528181610465015281816104c30152818161098501528181610bf401528181610ef601528181610f57015281816111b701526114ff015260a05181818161019c01528181610256015281816103c001528181610533015281816109cd01528181610c36015281816110f5015261156f0152f35b825162461bcd60e51b815260206004820152601760248201527f496e76616c6964206e6577204a424320616464726573730000000000000000006044820152606490fd5b62461bcd60e51b815260206004820152601760248201527f496e76616c6964206f6c64204a424320616464726573730000000000000000006044820152606490fd5b8251631e4fbdf760e01b815260006004820152602490fd5b600080fd5b634e487b7160e01b600052604160045260246000fd5b51906001600160a01b03821682036200022e5756fe608080604052600436101561001357600080fd5b60003560e01c9081630c6afded146112cf57508063215fd0581461118c5780633519a2f8146110b457806335b944bf146110915780633821b6fc14610f2557806341ce2ded14610ee0578063454b060814610ba357806347a5511d14610b69578063521c27f214610b07578063715018a614610aae5780637a37ac2614610a9057806381183d60146109285780638da5cb5b146108ff57806395a0f5eb146108e157806395ccea67146107de5780639ab5a53d1461075e578063bac5a2da1461031b578063d1d7422a146101cb578063d77f2c4a146101865763f2fde38b146100fb57600080fd5b3461018157602036600319011261018157610114611305565b61011c6117fa565b6001600160a01b03908116908115610168576000548260018060a01b0319821617600055167f8be0079c531659141344cd1fd0a4f28419497f9722a3daafe3b4186f6b6457e0600080a3005b604051631e4fbdf760e01b815260006004820152602490fd5b600080fd5b34610181576000366003190112610181576040517f00000000000000000000000000000000000000000000000000000000000000006001600160a01b03168152602090f35b3461018157600036600319011261018157600354600480546040516370a0823160e01b80825230938201939093526001600160a01b0393926020929183816024817f00000000000000000000000000000000000000000000000000000000000000008a165afa9182156102de5784916000936102ea575b5060246040518098819382523060048301527f0000000000000000000000000000000000000000000000000000000000000000165afa9182156102de576000926102ae575b60a0955060ff60025416936040519586528501526040840152606083015215156080820152f35b91508285813d83116102d7575b6102c5818361137c565b810103126101815760a0945191610287565b503d6102bb565b6040513d6000823e3d90fd5b8281939294503d8311610314575b610302818361137c565b81010312610181578390519187610242565b503d6102f8565b34610181576040366003190112610181576001600160401b036004358181116101815761034c90369060040161131b565b916024359081116101815761036590369060040161131b565b6103709391936117fa565b610378611826565b61038660ff600254166113f2565b80820361072157606482116106eb5760009160005b8281106106cb57506040516370a0823160e01b808252306004830152936020826024817f00000000000000000000000000000000000000000000000000000000000000006001600160a01b03165afa80156102de57600090610697575b61040492501015611433565b60005b8181106104145760018055005b61041f8183876117d4565b35906001600160a01b03821682036101815761043c8185896117d4565b358015610658576040518681526001600160a01b038481166004830152602090829060249082907f0000000000000000000000000000000000000000000000000000000000000000165afa80156102de578291600091610662575b5010610658576040516323b872dd60e01b8152602081806104bd853089600485016113b5565b038160007f00000000000000000000000000000000000000000000000000000000000000006001600160a01b03165af19081156102de57600091610639575b5061050e575b50600191505b01610407565b60405163a9059cbb60e01b81526020818061052d8588600484016113d7565b038160007f00000000000000000000000000000000000000000000000000000000000000006001600160a01b03165af180156102de5760019461059c6040927fcb6e89a1509b044854d9884335a0f71dfeb58f803abb0d544aee1d42b08b553b9460009161060a575b5061147e565b858060a01b0381166000526005602052816000206105bb8582546114c4565b9055858060a01b038116600052600660205242826000205560036105e08582546114c4565b90556105ed6004546114d1565b6004558151938452426020850152858060a01b031692a287610502565b61062c915060203d602011610632575b610624818361137c565b81019061139d565b8d610596565b503d61061a565b610652915060203d60201161063257610624818361137c565b896104fc565b5060019150610508565b9150506020813d60201161068f575b8161067e6020938361137c565b81010312610181578190518a610497565b3d9150610671565b506020823d6020116106c3575b816106b16020938361137c565b810103126101815761040491516103f8565b3d91506106a4565b926106e46001916106dd86868a6117d4565b35906114c4565b930161039b565b60405162461bcd60e51b815260206004820152600e60248201526d546f6f206d616e7920757365727360901b6044820152606490fd5b60405162461bcd60e51b8152602060048201526015602482015274082e4e4c2f240d8cadccee8d040dad2e6dac2e8c6d605b1b6044820152606490fd5b346101815760403660031901126101815761078361077a611305565b602435906114e0565b6040519115158252816020604060208301528251908160408401526000935b8285106107c5575050606092506000838284010152601f80199101168101030190f35b84810182015186860160600152938101938593506107a2565b34610181576040366003190112610181576107f7611305565b6024356108026117fa565b6001600160a01b039180831680156108a4578260209161083e9560005416600060405180988195829463a9059cbb60e01b8452600484016113d7565b03925af19283156102de577f5fafa99d0643513820be26656b45130b01e1c03062e1266bf36f88cbd3bd969593610885575b50610880604051928392836113d7565b0390a1005b61089d9060203d60201161063257610624818361137c565b5083610870565b60405162461bcd60e51b8152602060048201526015602482015274496e76616c696420746f6b656e206164647265737360581b6044820152606490fd5b34610181576000366003190112610181576020600354604051908152f35b34610181576000366003190112610181576000546040516001600160a01b039091168152602090f35b3461018157602080600319360112610181576001600160a01b03908161094c611305565b169182600052600582526040600020549160068152604060002054936040516370a0823160e01b918282528060048301528382602481887f0000000000000000000000000000000000000000000000000000000000000000165afa9283156102de578492600094610a5d575b506024906040519687938492835260048301527f0000000000000000000000000000000000000000000000000000000000000000165afa9182156102de57600092610a2b575b50610a279250604051948594859094939260609260808301968352602083015260408201520152565b0390f35b90915082813d8311610a56575b610a42818361137c565b8101031261018157610a27915190856109fe565b503d610a38565b8381949295503d8311610a89575b610a75818361137c565b8101031261018157602484925193906109b8565b503d610a6b565b34610181576000366003190112610181576020600454604051908152f35b3461018157600036600319011261018157610ac76117fa565b600080546001600160a01b0319811682556001600160a01b03167f8be0079c531659141344cd1fd0a4f28419497f9722a3daafe3b4186f6b6457e08280a3005b34610181576020366003190112610181576004358015158091036101815760207facaad8bf56d04ed7b9796e58f655f311d78d29ac1b825ee1a55dd8da3383216091610b516117fa565b60ff196002541660ff821617600255604051908152a1005b34610181576020366003190112610181576001600160a01b03610b8a611305565b1660005260066020526020604060002054604051908152f35b34610181576020806003193601126101815760043590610bc1611826565b610bcf60ff600254166113f2565b8115610e9c576040516370a0823160e01b808252336004830152906001600160a01b037f00000000000000000000000000000000000000000000000000000000000000008116918481602481865afa80156102de578691600091610e6b575b5010610e27577f000000000000000000000000000000000000000000000000000000000000000016916040519081523060048201528381602481865afa80156102de578590600090610df6575b610c8792501015611433565b8260405180926323b872dd60e01b825281600081610caa8a3033600485016113b5565b03925af19081156102de57600091610dd9575b5015610d9a5781604051809263a9059cbb60e01b825281600081610ce58933600484016113d7565b03925af180156102de57610d0091600091610d7d575061147e565b33600052600581526040600020610d188382546114c4565b9055336000526006815242604060002055610d35826003546114c4565b600355610d436004546114d1565b60045560405191825242908201527fcb6e89a1509b044854d9884335a0f71dfeb58f803abb0d544aee1d42b08b553b60403392a260018055005b610d949150833d851161063257610624818361137c565b84610596565b60405162461bcd60e51b815260048101839052601760248201527613db1908129090c81d1c985b9cd9995c8819985a5b1959604a1b6044820152606490fd5b610df09150833d851161063257610624818361137c565b84610cbd565b50508381813d8311610e20575b610e0d818361137c565b810103126101815784610c879151610c7b565b503d610e03565b60405162461bcd60e51b815260048101859052601c60248201527b496e73756666696369656e74206f6c64204a42432062616c616e636560201b6044820152606490fd5b809250868092503d8311610e95575b610e84818361137c565b810103126101815785905187610c2e565b503d610e7a565b6064906040519062461bcd60e51b82526004820152601d60248201527f416d6f756e74206d7573742062652067726561746572207468616e20300000006044820152fd5b34610181576000366003190112610181576040517f00000000000000000000000000000000000000000000000000000000000000006001600160a01b03168152602090f35b346101815760208060031936011261018157600435610f426117fa565b6040516370a0823160e01b81523060048201527f00000000000000000000000000000000000000000000000000000000000000006001600160a01b031691908381602481865afa80156102de578291600091611060575b50106110245760009160448492604051948593849263a9059cbb60e01b845261dead600485015260248401525af19081611007575b50611005576064906040519062461bcd60e51b82526004820152600b60248201526a109d5c9b8819985a5b195960aa1b6044820152fd5b005b61101d90833d851161063257610624818361137c565b5082610fce565b60405162461bcd60e51b8152600481018490526014602482015273496e73756666696369656e742062616c616e636560601b6044820152606490fd5b809250858092503d831161108a575b611079818361137c565b810103126101815781905185610f99565b503d61106f565b3461018157600036600319011261018157602060ff600254166040519015158152f35b34610181576020366003190112610181576110cd6117fa565b6040516323b872dd60e01b8152602081806110ef6004353033600485016113b5565b038160007f00000000000000000000000000000000000000000000000000000000000000006001600160a01b03165af19081156102de5760009161116d575b501561113657005b60405162461bcd60e51b815260206004820152600f60248201526e151c985b9cd9995c8819985a5b1959608a1b6044820152606490fd5b611186915060203d60201161063257610624818361137c565b8161112e565b34610181576000366003190112610181576040516318160ddd60e01b815260009081906020816004817f00000000000000000000000000000000000000000000000000000000000000006001600160a01b03165afa6000918161129b575b5061122257505050600060035490610a276000805b604051948594859094939260609260808301968352602083015260408201520152565b8091600354938215801561123c575b50610a2792506111ff565b9150506127109081850291858304148515171561126f576112855781900483820391821161126f57610a27919085611231565b634e487b7160e01b600052601160045260246000fd5b634e487b7160e01b600052601260045260246000fd5b9091506020813d6020116112c7575b816112b76020938361137c565b81010312610181575190846111ea565b3d91506112aa565b34610181576020366003190112610181576020906001600160a01b036112f3611305565b16600052600582526040600020548152f35b600435906001600160a01b038216820361018157565b9181601f84011215610181578235916001600160401b038311610181576020808501948460051b01011161018157565b604081019081106001600160401b0382111761136657604052565b634e487b7160e01b600052604160045260246000fd5b90601f801991011681019081106001600160401b0382111761136657604052565b90816020910312610181575180151581036101815790565b6001600160a01b03918216815291166020820152604081019190915260600190565b6001600160a01b039091168152602081019190915260400190565b156113f957565b60405162461bcd60e51b8152602060048201526012602482015271135a59dc985d1a5bdb88191a5cd8589b195960721b6044820152606490fd5b1561143a57565b606460405162461bcd60e51b815260206004820152602060248201527f496e73756666696369656e74206e6577204a424320696e20636f6e74726163746044820152fd5b1561148557565b60405162461bcd60e51b815260206004820152601760248201527613995dc8129090c81d1c985b9cd9995c8819985a5b1959604a1b6044820152606490fd5b9190820180921161126f57565b600019811461126f5760010190565b91909160ff60025416156117a15782156117635760018060a01b0392837f0000000000000000000000000000000000000000000000000000000000000000166040948551816370a0823160e01b9586835216908160048201526020958682602481885afa9182156117585787928791600091611726575b50106116e857602489518095819382523060048301527f0000000000000000000000000000000000000000000000000000000000000000165afa9182156116dd57859285916000916116ab575b501061166f576044875180948193636eb1769f60e11b835260048301523060248301525afa90811561166457600091611637575b5010611605576a43616e206d69677261746560a81b60019351916115fb8361134b565b600b835282015290565b75496e73756666696369656e7420616c6c6f77616e636560501b600093519161162d8361134b565b6016835282015290565b90508281813d831161165d575b61164e818361137c565b810103126101815751386115d8565b503d611644565b85513d6000823e3d90fd5b505050507f496e73756666696369656e74206e6577204a424320696e20636f6e747261637460009351916116a28361134b565b80835282015290565b938092508491503d83116116d6575b6116c4818361137c565b810103126101815783859251386115a4565b503d6116ba565b87513d6000823e3d90fd5b5050505050507b496e73756666696369656e74206f6c64204a42432062616c616e636560201b600093519161171c8361134b565b601c835282015290565b938092508491503d8311611751575b61173f818361137c565b81010312610181578587925138611557565b503d611735565b89513d6000823e3d90fd5b50604051600092506117748161134b565b601d81527f416d6f756e74206d7573742062652067726561746572207468616e2030000000602082015290565b50604051600092506117b28161134b565b6012815271135a59dc985d1a5bdb88191a5cd8589b195960721b602082015290565b91908110156117e45760051b0190565b634e487b7160e01b600052603260045260246000fd5b6000546001600160a01b0316330361180e57565b60405163118cdaa760e01b8152336004820152602490fd5b600260015414611837576002600155565b604051633ee5aeb560e01b8152600490fdfea2646970667358221220736186cd53d51cb38c85605ed44e233c0b2db740ec4c03df8bde07b76097808f64736f6c63430008160033",
  "linkReferences": {},
  "deployedLinkReferences": {}
}