{
  "_format": "hh-sol-artifact-1",
  "contractName": "JBCMigration",
  "sourceName": "contracts/JBCMigration.sol",
  "abi": [
    {
      "inputs": [
        {
          "internalType": "address",
          "name": "_oldJBC",
          "type": "address"
        },
        {
          "internalType": "address",
          "name": "_newJBC",
          "type": "address"
        }
      ],
      "stateMutability": "nonpayable",
      "type": "constructor"
    },
    {
      "inputs": [
        {
          "internalType": "address",
          "name": "owner",
          "type": "address"
        }
      ],
      "name": "OwnableInvalidOwner",
      "type": "error"
    },
    {
      "inputs": [
        {
          "internalType": "address",
          "name": "account",
          "type": "address"
        }
      ],
      "name": "OwnableUnauthorizedAccount",
      "type": "error"
    },
    {
      "inputs": [],
      "name": "ReentrancyGuardReentrantCall",
      "type": "error"
    },
    {
      "anonymous": false,
      "inputs": [
        {
          "indexed": false,
          "internalType": "address",
          "name": "token",
          "type": "address"
        },
        {
          "indexed": false,
          "internalType": "uint256",
          "name": "amount",
          "type": "uint256"
        }
      ],
      "name": "EmergencyWithdraw",
      "type": "event"
    },
    {
      "anonymous": false,
      "inputs": [
        {
          "indexed": true,
          "internalType": "address",
          "name": "user",
          "type": "address"
        },
        {
          "indexed": false,
          "internalType": "uint256",
          "name": "amount",
          "type": "uint256"
        },
        {
          "indexed": false,
          "internalType": "uint256",
          "name": "timestamp",
          "type": "uint256"
        }
      ],
      "name": "Migration",
      "type": "event"
    },
    {
      "anonymous": false,
      "inputs": [
        {
          "indexed": false,
          "internalType": "bool",
          "name": "enabled",
          "type": "bool"
        }
      ],
      "name": "MigrationEnabled",
      "type": "event"
    },
    {
      "anonymous": false,
      "inputs": [
        {
          "indexed": true,
          "internalType": "address",
          "name": "previousOwner",
          "type": "address"
        },
        {
          "indexed": true,
          "internalType": "address",
          "name": "newOwner",
          "type": "address"
        }
      ],
      "name": "OwnershipTransferred",
      "type": "event"
    },
    {
      "inputs": [
        {
          "internalType": "address[]",
          "name": "users",
          "type": "address[]"
        },
        {
          "internalType": "uint256[]",
          "name": "amounts",
          "type": "uint256[]"
        }
      ],
      "name": "batchMigrate",
      "outputs": [],
      "stateMutability": "nonpayable",
      "type": "function"
    },
    {
      "inputs": [
        {
          "internalType": "uint256",
          "name": "amount",
          "type": "uint256"
        }
      ],
      "name": "burnOldTokens",
      "outputs": [],
      "stateMutability": "nonpayable",
      "type": "function"
    },
    {
      "inputs": [
        {
          "internalType": "address",
          "name": "user",
          "type": "address"
        },
        {
          "internalType": "uint256",
          "name": "amount",
          "type": "uint256"
        }
      ],
      "name": "canMigrate",
      "outputs": [
        {
          "internalType": "bool",
          "name": "canMigrate_",
          "type": "bool"
        },
        {
          "internalType": "string",
          "name": "reason",
          "type": "string"
        }
      ],
      "stateMutability": "view",
      "type": "function"
    },
    {
      "inputs": [
        {
          "internalType": "address",
          "name": "token",
          "type": "address"
        },
        {
          "internalType": "uint256",
          "name": "amount",
          "type": "uint256"
        }
      ],
      "name": "emergencyWithdraw",
      "outputs": [],
      "stateMutability": "nonpayable",
      "type": "function"
    },
    {
      "inputs": [
        {
          "internalType": "uint256",
          "name": "amount",
          "type": "uint256"
        }
      ],
      "name": "fundContract",
      "outputs": [],
      "stateMutability": "nonpayable",
      "type": "function"
    },
    {
      "inputs": [],
      "name": "getMigrationProgress",
      "outputs": [
        {
          "internalType": "uint256",
          "name": "totalOldSupply",
          "type": "uint256"
        },
        {
          "internalType": "uint256",
          "name": "totalMigrated_",
          "type": "uint256"
        },
        {
          "internalType": "uint256",
          "name": "migrationPercentage",
          "type": "uint256"
        },
        {
          "internalType": "uint256",
          "name": "remainingToMigrate",
          "type": "uint256"
        }
      ],
      "stateMutability": "view",
      "type": "function"
    },
    {
      "inputs": [],
      "name": "getMigrationStats",
      "outputs": [
        {
          "internalType": "uint256",
          "name": "totalMigrated_",
          "type": "uint256"
        },
        {
          "internalType": "uint256",
          "name": "migrationCount_",
          "type": "uint256"
        },
        {
          "internalType": "uint256",
          "name": "oldTokenBalance",
          "type": "uint256"
        },
        {
          "internalType": "uint256",
          "name": "newTokenBalance",
          "type": "uint256"
        },
        {
          "internalType": "bool",
          "name": "enabled",
          "type": "bool"
        }
      ],
      "stateMutability": "view",
      "type": "function"
    },
    {
      "inputs": [
        {
          "internalType": "address",
          "name": "user",
          "type": "address"
        }
      ],
      "name": "getUserMigrationInfo",
      "outputs": [
        {
          "internalType": "uint256",
          "name": "migrated",
          "type": "uint256"
        },
        {
          "internalType": "uint256",
          "name": "migrationTime",
          "type": "uint256"
        },
        {
          "internalType": "uint256",
          "name": "oldBalance",
          "type": "uint256"
        },
        {
          "internalType": "uint256",
          "name": "newBalance",
          "type": "uint256"
        }
      ],
      "stateMutability": "view",
      "type": "function"
    },
    {
      "inputs": [
        {
          "internalType": "uint256",
          "name": "amount",
          "type": "uint256"
        }
      ],
      "name": "migrate",
      "outputs": [],
      "stateMutability": "nonpayable",
      "type": "function"
    },
    {
      "inputs": [],
      "name": "migrationCount",
      "outputs": [
        {
          "internalType": "uint256",
          "name": "",
          "type": "uint256"
        }
      ],
      "stateMutability": "view",
      "type": "function"
    },
    {
      "inputs": [],
      "name": "migrationEnabled",
      "outputs": [
        {
          "internalType": "bool",
          "name": "",
          "type": "bool"
        }
      ],
      "stateMutability": "view",
      "type": "function"
    },
    {
      "inputs": [],
      "name": "newJBC",
      "outputs": [
        {
          "internalType": "contract IERC20",
          "name": "",
          "type": "address"
        }
      ],
      "stateMutability": "view",
      "type": "function"
    },
    {
      "inputs": [],
      "name": "oldJBC",
      "outputs": [
        {
          "internalType": "contract IERC20",
          "name": "",
          "type": "address"
        }
      ],
      "stateMutability": "view",
      "type": "function"
    },
    {
      "inputs": [],
      "name": "owner",
      "outputs": [
        {
          "internalType": "address",
          "name": "",
          "type": "address"
        }
      ],
      "stateMutability": "view",
      "type": "function"
    },
    {
      "inputs": [],
      "name": "renounceOwnership",
      "outputs": [],
      "stateMutability": "nonpayable",
      "type": "function"
    },
    {
      "inputs": [
        {
          "internalType": "bool",
          "name": "enabled",
          "type": "bool"
        }
      ],
      "name": "setMigrationEnabled",
      "outputs": [],
      "stateMutability": "nonpayable",
      "type": "function"
    },
    {
      "inputs": [],
      "name": "totalMigrated",
      "outputs": [
        {
          "internalType": "uint256",
          "name": "",
          "type": "uint256"
        }
      ],
      "stateMutability": "view",
      "type": "function"
    },
    {
      "inputs": [
        {
          "internalType": "address",
          "name": "newOwner",
          "type": "address"
        }
      ],
      "name": "transferOwnership",
      "outputs": [],
      "stateMutability": "nonpayable",
      "type": "function"
    },
    {
      "inputs": [
        {
          "internalType": "address",
          "name": "",
          "type": "address"
        }
      ],
      "name": "userMigrated",
      "outputs": [
        {
          "internalType": "uint256",
          "name": "",
          "type": "uint256"
        }
      ],
      "stateMutability": "view",
      "type": "function"
    },
    {
      "inputs": [
        {
          "internalType": "address",
          "name": "",
          "type": "address"
        }
      ],
      "name": "userMigrationTime",
      "outputs": [
        {
          "internalType": "uint256",
          "name": "",
          "type": "uint256"
        }
      ],
      "stateMutability": "view",
      "type": "function"
    }
  ],
  "bytecode": "0x60c0346200022e5762001abe90601f38839003908101601f19168201906001600160401b038211838310176200023357808391604095869485528339810103126200022e576200005d6020620000558362000249565b920162000249565b903315620002165760008054336001600160a01b03198216811783558551946001600160a01b0394909385939192918416907f8be0079c531659141344cd1fd0a4f28419497f9722a3daafe3b4186f6b6457e09080a36001805516928315620001d4575016908115620001905760805260a052600160ff1960025416176002557facaad8bf56d04ed7b9796e58f655f311d78d29ac1b825ee1a55dd8da338321606020825160018152a15161185f90816200025f82396080518181816101fc01528181610453015281816104b10152818161096101528181610ba701528181610e8501528181610ee6015281816111460152611483015260a05181818161018a01528181610244015281816103ae01528181610521015281816109a901528181610be90152818161108401526114f30152f35b825162461bcd60e51b815260206004820152601760248201527f496e76616c6964206e6577204a424320616464726573730000000000000000006044820152606490fd5b62461bcd60e51b815260206004820152601760248201527f496e76616c6964206f6c64204a424320616464726573730000000000000000006044820152606490fd5b8251631e4fbdf760e01b815260006004820152602490fd5b600080fd5b634e487b7160e01b600052604160045260246000fd5b51906001600160a01b03821682036200022e5756fe608080604052600436101561001357600080fd5b60003560e01c9081630c6afded1461124757508063215fd0581461111b5780633519a2f81461104357806335b944bf146110205780633821b6fc14610eb457806341ce2ded14610e6f578063454b060814610b5657806347a5511d14610b1c578063521c27f214610aba578063715018a614610a735780637a37ac2614610a5557806381183d60146109045780638da5cb5b146108db57806395a0f5eb146108bd57806395ccea67146107ba5780639ab5a53d1461073a578063bac5a2da14610309578063d1d7422a146101b9578063d77f2c4a146101745763f2fde38b146100fb57600080fd5b3461016f57602036600319011261016f5761011461127d565b61011c61175a565b6001600160a01b03908116908115610156576000548260018060a01b0319821617600055166000805160206117ca833981519152600080a3005b604051631e4fbdf760e01b815260006004820152602490fd5b600080fd5b3461016f57600036600319011261016f576040517f00000000000000000000000000000000000000000000000000000000000000006001600160a01b03168152602090f35b3461016f57600036600319011261016f57600354600480546040516370a0823160e01b80825230938201939093526001600160a01b0393926020929183816024817f00000000000000000000000000000000000000000000000000000000000000008a165afa9182156102cc5784916000936102d8575b5060246040518098819382523060048301527f0000000000000000000000000000000000000000000000000000000000000000165afa9182156102cc5760009261029c575b60a0955060ff60025416936040519586528501526040840152606083015215156080820152f35b91508285813d83116102c5575b6102b38183611310565b8101031261016f5760a0945191610275565b503d6102a9565b6040513d6000823e3d90fd5b8281939294503d8311610302575b6102f08183611310565b8101031261016f578390519187610230565b503d6102e6565b3461016f57604036600319011261016f576001600160401b0360043581811161016f5761033a9036906004016112af565b9160243590811161016f576103539036906004016112af565b61035e93919361175a565b610366611786565b61037460ff60025416611388565b8082036106fd57606482116106c75760009160005b8281106106a757506040516370a0823160e01b808252306004830152936020826024817f00000000000000000000000000000000000000000000000000000000000000006001600160a01b03165afa80156102cc57600090610673575b6103f2925010156113c9565b60005b8181106104025760018055005b61040d818387611734565b35906001600160a01b038216820361016f5761042a818589611734565b358015610634576040518681526001600160a01b038481166004830152602090829060249082907f0000000000000000000000000000000000000000000000000000000000000000165afa80156102cc57829160009161063e575b5010610634576040516323b872dd60e01b8152602081806104ab8530896004850161134b565b038160007f00000000000000000000000000000000000000000000000000000000000000006001600160a01b03165af19081156102cc57600091610615575b506104fc575b50600191505b016103f5565b60405163a9059cbb60e01b81526020818061051b85886004840161136d565b038160007f00000000000000000000000000000000000000000000000000000000000000006001600160a01b03165af180156102cc576001946105786040926000805160206117aa833981519152946000916105e6575b50611402565b858060a01b038116600052600560205281600020610597858254611448565b9055858060a01b038116600052600660205242826000205560036105bc858254611448565b90556105c9600454611455565b6004558151938452426020850152858060a01b031692a2876104f0565b610608915060203d60201161060e575b6106008183611310565b810190611333565b8d610572565b503d6105f6565b61062e915060203d60201161060e576106008183611310565b896104ea565b50600191506104f6565b9150506020813d60201161066b575b8161065a60209383611310565b8101031261016f578190518a610485565b3d915061064d565b506020823d60201161069f575b8161068d60209383611310565b8101031261016f576103f291516103e6565b3d9150610680565b926106c06001916106b986868a611734565b3590611448565b9301610389565b60405162461bcd60e51b815260206004820152600e60248201526d546f6f206d616e7920757365727360901b6044820152606490fd5b60405162461bcd60e51b8152602060048201526015602482015274082e4e4c2f240d8cadccee8d040dad2e6dac2e8c6d605b1b6044820152606490fd5b3461016f57604036600319011261016f5761075f61075661127d565b60243590611464565b6040519115158252816020604060208301528251908160408401526000935b8285106107a1575050606092506000838284010152601f80199101168101030190f35b848101820151868601606001529381019385935061077e565b3461016f57604036600319011261016f576107d361127d565b6024356107de61175a565b6001600160a01b03918083168015610880578260209161081a9560005416600060405180988195829463a9059cbb60e01b84526004840161136d565b03925af19283156102cc577f5fafa99d0643513820be26656b45130b01e1c03062e1266bf36f88cbd3bd969593610861575b5061085c6040519283928361136d565b0390a1005b6108799060203d60201161060e576106008183611310565b508361084c565b60405162461bcd60e51b8152602060048201526015602482015274496e76616c696420746f6b656e206164647265737360581b6044820152606490fd5b3461016f57600036600319011261016f576020600354604051908152f35b3461016f57600036600319011261016f576000546040516001600160a01b039091168152602090f35b3461016f5760208060031936011261016f576001600160a01b03908161092861127d565b169182600052600582526040600020549160068152604060002054936040516370a0823160e01b918282528060048301528382602481887f0000000000000000000000000000000000000000000000000000000000000000165afa9283156102cc578492600094610a22575b506024906040519687938492835260048301527f0000000000000000000000000000000000000000000000000000000000000000165afa9182156102cc576000926109f0575b506109ec925060405194859485611293565b0390f35b90915082813d8311610a1b575b610a078183611310565b8101031261016f576109ec915190856109da565b503d6109fd565b8381949295503d8311610a4e575b610a3a8183611310565b8101031261016f5760248492519390610994565b503d610a30565b3461016f57600036600319011261016f576020600454604051908152f35b3461016f57600036600319011261016f57610a8c61175a565b600080546001600160a01b0319811682556001600160a01b03166000805160206117ca8339815191528280a3005b3461016f57602036600319011261016f5760043580151580910361016f5760207facaad8bf56d04ed7b9796e58f655f311d78d29ac1b825ee1a55dd8da3383216091610b0461175a565b60ff196002541660ff821617600255604051908152a1005b3461016f57602036600319011261016f576001600160a01b03610b3d61127d565b1660005260066020526020604060002054604051908152f35b3461016f5760208060031936011261016f5760043590610b74611786565b610b8260ff60025416611388565b8115610e3d576040516370a0823160e01b808252336004830152906001600160a01b037f00000000000000000000000000000000000000000000000000000000000000008116918481602481865afa80156102cc578691600091610e0c575b5010610dc8577f000000000000000000000000000000000000000000000000000000000000000016916040519081523060048201528381602481865afa80156102cc578590600090610d97575b610c3a925010156113c9565b8260405180926323b872dd60e01b825281600081610c5d8a30336004850161134b565b03925af19081156102cc57600091610d7a575b5015610d3b5781604051809263a9059cbb60e01b825281600081610c9889336004840161136d565b03925af180156102cc57610cb391600091610d1e5750611402565b33600052600581526040600020610ccb838254611448565b9055336000526006815242604060002055610ce882600354611448565b600355610cf6600454611455565b60045560405191825242908201526000805160206117aa83398151915260403392a260018055005b610d359150833d851161060e576106008183611310565b84610572565b60405162461bcd60e51b815260048101839052601760248201527613db1908129090c81d1c985b9cd9995c8819985a5b1959604a1b6044820152606490fd5b610d919150833d851161060e576106008183611310565b84610c70565b50508381813d8311610dc1575b610dae8183611310565b8101031261016f5784610c3a9151610c2e565b503d610da4565b60405162461bcd60e51b815260048101859052601c60248201527b496e73756666696369656e74206f6c64204a42432062616c616e636560201b6044820152606490fd5b809250868092503d8311610e36575b610e258183611310565b8101031261016f5785905187610be1565b503d610e1b565b6064906040519062461bcd60e51b82526004820152601d602482015260008051602061180a8339815191526044820152fd5b3461016f57600036600319011261016f576040517f00000000000000000000000000000000000000000000000000000000000000006001600160a01b03168152602090f35b3461016f5760208060031936011261016f57600435610ed161175a565b6040516370a0823160e01b81523060048201527f00000000000000000000000000000000000000000000000000000000000000006001600160a01b031691908381602481865afa80156102cc578291600091610fef575b5010610fb35760009160448492604051948593849263a9059cbb60e01b845261dead600485015260248401525af19081610f96575b50610f94576064906040519062461bcd60e51b82526004820152600b60248201526a109d5c9b8819985a5b195960aa1b6044820152fd5b005b610fac90833d851161060e576106008183611310565b5082610f5d565b60405162461bcd60e51b8152600481018490526014602482015273496e73756666696369656e742062616c616e636560601b6044820152606490fd5b809250858092503d8311611019575b6110088183611310565b8101031261016f5781905185610f28565b503d610ffe565b3461016f57600036600319011261016f57602060ff600254166040519015158152f35b3461016f57602036600319011261016f5761105c61175a565b6040516323b872dd60e01b81526020818061107e60043530336004850161134b565b038160007f00000000000000000000000000000000000000000000000000000000000000006001600160a01b03165af19081156102cc576000916110fc575b50156110c557005b60405162461bcd60e51b815260206004820152600f60248201526e151c985b9cd9995c8819985a5b1959608a1b6044820152606490fd5b611115915060203d60201161060e576106008183611310565b816110bd565b3461016f57600036600319011261016f576040516318160ddd60e01b815260009081906020816004817f00000000000000000000000000000000000000000000000000000000000000006001600160a01b03165afa60009181611213575b5061119a575050506000600354906109ec6000805b60405194859485611293565b809160035493821580156111b4575b506109ec925061118e565b915050612710908185029185830414851517156111e7576111fd578190048382039182116111e7576109ec9190856111a9565b634e487b7160e01b600052601160045260246000fd5b634e487b7160e01b600052601260045260246000fd5b9091506020813d60201161123f575b8161122f60209383611310565b8101031261016f57519084611179565b3d9150611222565b3461016f57602036600319011261016f576020906001600160a01b0361126b61127d565b16600052600582526040600020548152f35b600435906001600160a01b038216820361016f57565b9094939260609260808301968352602083015260408201520152565b9181601f8401121561016f578235916001600160401b03831161016f576020808501948460051b01011161016f57565b604081019081106001600160401b038211176112fa57604052565b634e487b7160e01b600052604160045260246000fd5b601f909101601f19168101906001600160401b038211908210176112fa57604052565b9081602091031261016f5751801515810361016f5790565b6001600160a01b03918216815291166020820152604081019190915260600190565b6001600160a01b039091168152602081019190915260400190565b1561138f57565b60405162461bcd60e51b8152602060048201526012602482015271135a59dc985d1a5bdb88191a5cd8589b195960721b6044820152606490fd5b156113d057565b606460405162461bcd60e51b815260206004820152602060248201526000805160206117ea8339815191526044820152fd5b1561140957565b60405162461bcd60e51b815260206004820152601760248201527613995dc8129090c81d1c985b9cd9995c8819985a5b1959604a1b6044820152606490fd5b919082018092116111e757565b60001981146111e75760010190565b91909160ff60025416156117015782156116d55760018060a01b0392837f0000000000000000000000000000000000000000000000000000000000000000166040948551816370a0823160e01b9586835216908160048201526020958682602481885afa9182156116ca5787928791600091611698575b501061165a57602489518095819382523060048301527f0000000000000000000000000000000000000000000000000000000000000000165afa91821561164f578592859160009161161d575b50106115f3576044875180948193636eb1769f60e11b835260048301523060248301525afa9081156115e8576000916115bb575b5010611589576a43616e206d69677261746560a81b600193519161157f836112df565b600b835282015290565b75496e73756666696369656e7420616c6c6f77616e636560501b60009351916115b1836112df565b6016835282015290565b90508281813d83116115e1575b6115d28183611310565b8101031261016f57513861155c565b503d6115c8565b85513d6000823e3d90fd5b505050506000805160206117ea8339815191526000935191611614836112df565b80835282015290565b938092508491503d8311611648575b6116368183611310565b8101031261016f578385925138611528565b503d61162c565b87513d6000823e3d90fd5b5050505050507b496e73756666696369656e74206f6c64204a42432062616c616e636560201b600093519161168e836112df565b601c835282015290565b938092508491503d83116116c3575b6116b18183611310565b8101031261016f5785879251386114db565b503d6116a7565b89513d6000823e3d90fd5b50604051600092506116e6816112df565b601d815260008051602061180a833981519152602082015290565b5060405160009250611712816112df565b6012815271135a59dc985d1a5bdb88191a5cd8589b195960721b602082015290565b91908110156117445760051b0190565b634e487b7160e01b600052603260045260246000fd5b6000546001600160a01b0316330361176e57565b60405163118cdaa760e01b8152336004820152602490fd5b600260015414611797576002600155565b604051633ee5aeb560e01b8152600490fdfecb6e89a1509b044854d9884335a0f71dfeb58f803abb0d544aee1d42b08b553b8be0079c531659141344cd1fd0a4f28419497f9722a3daafe3b4186f6b6457e0496e73756666696369656e74206e6577204a424320696e20636f6e7472616374416d6f756e74206d7573742062652067726561746572207468616e2030000000a2646970667358221220c35d3be3a9e13404eb8fa972d6513f73434805db3f1459976226a1e1edcb8a6164736f6c63430008160033",
  "linkReferences": {},
  "deployedLinkReferences": {}
}