{
  "_format": "hh-sol-artifact-1",
  "contractName": "JinbaoProtocolV3Standalone",
  "sourceName": "contracts/JinbaoProtocolV3Standalone.sol",
  "abi": [
    {
      "inputs": [],
      "stateMutability": "nonpayable",
      "type": "constructor"
    },
    {
      "inputs": [
        {
          "internalType": "address",
          "name": "target",
          "type": "address"
        }
      ],
      "name": "AddressEmptyCode",
      "type": "error"
    },
    {
      "inputs": [
        {
          "internalType": "address",
          "name": "implementation",
          "type": "address"
        }
      ],
      "name": "ERC1967InvalidImplementation",
      "type": "error"
    },
    {
      "inputs": [],
      "name": "ERC1967NonPayable",
      "type": "error"
    },
    {
      "inputs": [],
      "name": "EnforcedPause",
      "type": "error"
    },
    {
      "inputs": [],
      "name": "ExpectedPause",
      "type": "error"
    },
    {
      "inputs": [],
      "name": "FailedCall",
      "type": "error"
    },
    {
      "inputs": [],
      "name": "InvalidInitialization",
      "type": "error"
    },
    {
      "inputs": [],
      "name": "NotInitializing",
      "type": "error"
    },
    {
      "inputs": [
        {
          "internalType": "address",
          "name": "owner",
          "type": "address"
        }
      ],
      "name": "OwnableInvalidOwner",
      "type": "error"
    },
    {
      "inputs": [
        {
          "internalType": "address",
          "name": "account",
          "type": "address"
        }
      ],
      "name": "OwnableUnauthorizedAccount",
      "type": "error"
    },
    {
      "inputs": [],
      "name": "ReentrancyGuardReentrantCall",
      "type": "error"
    },
    {
      "inputs": [],
      "name": "UUPSUnauthorizedCallContext",
      "type": "error"
    },
    {
      "inputs": [
        {
          "internalType": "bytes32",
          "name": "slot",
          "type": "bytes32"
        }
      ],
      "name": "UUPSUnsupportedProxiableUUID",
      "type": "error"
    },
    {
      "anonymous": false,
      "inputs": [
        {
          "indexed": true,
          "internalType": "address",
          "name": "user",
          "type": "address"
        },
        {
          "indexed": false,
          "internalType": "uint256",
          "name": "amount",
          "type": "uint256"
        },
        {
          "indexed": false,
          "internalType": "uint8",
          "name": "sourceType",
          "type": "uint8"
        },
        {
          "indexed": false,
          "internalType": "address",
          "name": "fromUser",
          "type": "address"
        },
        {
          "indexed": false,
          "internalType": "uint256",
          "name": "unlockTime",
          "type": "uint256"
        }
      ],
      "name": "DynamicRewardRecorded",
      "type": "event"
    },
    {
      "anonymous": false,
      "inputs": [
        {
          "indexed": false,
          "internalType": "string",
          "name": "version",
          "type": "string"
        },
        {
          "indexed": false,
          "internalType": "uint256",
          "name": "timestamp",
          "type": "uint256"
        }
      ],
      "name": "DynamicRewardSystemInitialized",
      "type": "event"
    },
    {
      "anonymous": false,
      "inputs": [
        {
          "indexed": true,
          "internalType": "address",
          "name": "user",
          "type": "address"
        },
        {
          "indexed": false,
          "internalType": "uint256",
          "name": "amount",
          "type": "uint256"
        },
        {
          "indexed": false,
          "internalType": "uint256",
          "name": "rewardCount",
          "type": "uint256"
        }
      ],
      "name": "DynamicRewardsClaimed",
      "type": "event"
    },
    {
      "anonymous": false,
      "inputs": [
        {
          "indexed": false,
          "internalType": "uint64",
          "name": "version",
          "type": "uint64"
        }
      ],
      "name": "Initialized",
      "type": "event"
    },
    {
      "anonymous": false,
      "inputs": [
        {
          "indexed": true,
          "internalType": "address",
          "name": "previousOwner",
          "type": "address"
        },
        {
          "indexed": true,
          "internalType": "address",
          "name": "newOwner",
          "type": "address"
        }
      ],
      "name": "OwnershipTransferred",
      "type": "event"
    },
    {
      "anonymous": false,
      "inputs": [
        {
          "indexed": false,
          "internalType": "address",
          "name": "account",
          "type": "address"
        }
      ],
      "name": "Paused",
      "type": "event"
    },
    {
      "anonymous": false,
      "inputs": [
        {
          "indexed": false,
          "internalType": "address",
          "name": "account",
          "type": "address"
        }
      ],
      "name": "Unpaused",
      "type": "event"
    },
    {
      "anonymous": false,
      "inputs": [
        {
          "indexed": true,
          "internalType": "address",
          "name": "implementation",
          "type": "address"
        }
      ],
      "name": "Upgraded",
      "type": "event"
    },
    {
      "stateMutability": "payable",
      "type": "fallback"
    },
    {
      "inputs": [],
      "name": "UPGRADE_INTERFACE_VERSION",
      "outputs": [
        {
          "internalType": "string",
          "name": "",
          "type": "string"
        }
      ],
      "stateMutability": "view",
      "type": "function"
    },
    {
      "inputs": [],
      "name": "VERSION_V3",
      "outputs": [
        {
          "internalType": "string",
          "name": "",
          "type": "string"
        }
      ],
      "stateMutability": "view",
      "type": "function"
    },
    {
      "inputs": [
        {
          "internalType": "address",
          "name": "user",
          "type": "address"
        },
        {
          "internalType": "uint256",
          "name": "amount",
          "type": "uint256"
        },
        {
          "internalType": "uint8",
          "name": "sourceType",
          "type": "uint8"
        },
        {
          "internalType": "address",
          "name": "fromUser",
          "type": "address"
        },
        {
          "internalType": "uint256",
          "name": "unlockDelay",
          "type": "uint256"
        }
      ],
      "name": "adminRecordDynamicReward",
      "outputs": [],
      "stateMutability": "nonpayable",
      "type": "function"
    },
    {
      "inputs": [],
      "name": "claimDynamicRewards",
      "outputs": [],
      "stateMutability": "nonpayable",
      "type": "function"
    },
    {
      "inputs": [],
      "name": "emergencyWithdraw",
      "outputs": [],
      "stateMutability": "nonpayable",
      "type": "function"
    },
    {
      "inputs": [
        {
          "internalType": "address",
          "name": "user",
          "type": "address"
        }
      ],
      "name": "getUserDynamicRewards",
      "outputs": [
        {
          "internalType": "uint256",
          "name": "totalEarned",
          "type": "uint256"
        },
        {
          "internalType": "uint256",
          "name": "totalClaimed",
          "type": "uint256"
        },
        {
          "internalType": "uint256",
          "name": "pendingAmount",
          "type": "uint256"
        },
        {
          "internalType": "uint256",
          "name": "claimableAmount",
          "type": "uint256"
        }
      ],
      "stateMutability": "view",
      "type": "function"
    },
    {
      "inputs": [
        {
          "internalType": "address",
          "name": "user",
          "type": "address"
        },
        {
          "internalType": "uint256",
          "name": "offset",
          "type": "uint256"
        },
        {
          "internalType": "uint256",
          "name": "limit",
          "type": "uint256"
        }
      ],
      "name": "getUserDynamicRewardsList",
      "outputs": [
        {
          "components": [
            {
              "internalType": "uint256",
              "name": "amount",
              "type": "uint256"
            },
            {
              "internalType": "uint256",
              "name": "timestamp",
              "type": "uint256"
            },
            {
              "internalType": "uint8",
              "name": "sourceType",
              "type": "uint8"
            },
            {
              "internalType": "address",
              "name": "fromUser",
              "type": "address"
            },
            {
              "internalType": "bool",
              "name": "claimed",
              "type": "bool"
            },
            {
              "internalType": "uint256",
              "name": "unlockTime",
              "type": "uint256"
            }
          ],
          "internalType": "struct JinbaoProtocolV3Standalone.DynamicReward[]",
          "name": "",
          "type": "tuple[]"
        }
      ],
      "stateMutability": "view",
      "type": "function"
    },
    {
      "inputs": [],
      "name": "getVersionV3",
      "outputs": [
        {
          "internalType": "string",
          "name": "",
          "type": "string"
        }
      ],
      "stateMutability": "pure",
      "type": "function"
    },
    {
      "inputs": [],
      "name": "initializeV3",
      "outputs": [],
      "stateMutability": "nonpayable",
      "type": "function"
    },
    {
      "inputs": [],
      "name": "jbcToken",
      "outputs": [
        {
          "internalType": "contract IERC20",
          "name": "",
          "type": "address"
        }
      ],
      "stateMutability": "view",
      "type": "function"
    },
    {
      "inputs": [],
      "name": "mcToken",
      "outputs": [
        {
          "internalType": "contract IERC20",
          "name": "",
          "type": "address"
        }
      ],
      "stateMutability": "view",
      "type": "function"
    },
    {
      "inputs": [],
      "name": "owner",
      "outputs": [
        {
          "internalType": "address",
          "name": "",
          "type": "address"
        }
      ],
      "stateMutability": "view",
      "type": "function"
    },
    {
      "inputs": [],
      "name": "paused",
      "outputs": [
        {
          "internalType": "bool",
          "name": "",
          "type": "bool"
        }
      ],
      "stateMutability": "view",
      "type": "function"
    },
    {
      "inputs": [
        {
          "internalType": "address",
          "name": "",
          "type": "address"
        }
      ],
      "name": "pendingRewards",
      "outputs": [
        {
          "internalType": "uint256",
          "name": "",
          "type": "uint256"
        }
      ],
      "stateMutability": "view",
      "type": "function"
    },
    {
      "inputs": [],
      "name": "proxiableUUID",
      "outputs": [
        {
          "internalType": "bytes32",
          "name": "",
          "type": "bytes32"
        }
      ],
      "stateMutability": "view",
      "type": "function"
    },
    {
      "inputs": [
        {
          "internalType": "address",
          "name": "",
          "type": "address"
        },
        {
          "internalType": "uint256",
          "name": "",
          "type": "uint256"
        }
      ],
      "name": "referrals",
      "outputs": [
        {
          "internalType": "address",
          "name": "",
          "type": "address"
        }
      ],
      "stateMutability": "view",
      "type": "function"
    },
    {
      "inputs": [],
      "name": "renounceOwnership",
      "outputs": [],
      "stateMutability": "nonpayable",
      "type": "function"
    },
    {
      "inputs": [
        {
          "internalType": "address",
          "name": "",
          "type": "address"
        },
        {
          "internalType": "uint256",
          "name": "",
          "type": "uint256"
        }
      ],
      "name": "stakes",
      "outputs": [
        {
          "internalType": "uint256",
          "name": "amount",
          "type": "uint256"
        },
        {
          "internalType": "uint256",
          "name": "startTime",
          "type": "uint256"
        },
        {
          "internalType": "uint256",
          "name": "endTime",
          "type": "uint256"
        },
        {
          "internalType": "uint256",
          "name": "cycleDays",
          "type": "uint256"
        },
        {
          "internalType": "bool",
          "name": "isActive",
          "type": "bool"
        }
      ],
      "stateMutability": "view",
      "type": "function"
    },
    {
      "inputs": [
        {
          "internalType": "address",
          "name": "",
          "type": "address"
        },
        {
          "internalType": "uint256",
          "name": "",
          "type": "uint256"
        }
      ],
      "name": "tickets",
      "outputs": [
        {
          "internalType": "uint256",
          "name": "amount",
          "type": "uint256"
        },
        {
          "internalType": "uint256",
          "name": "timestamp",
          "type": "uint256"
        },
        {
          "internalType": "bool",
          "name": "isActive",
          "type": "bool"
        }
      ],
      "stateMutability": "view",
      "type": "function"
    },
    {
      "inputs": [
        {
          "internalType": "address",
          "name": "",
          "type": "address"
        }
      ],
      "name": "totalDynamicClaimed",
      "outputs": [
        {
          "internalType": "uint256",
          "name": "",
          "type": "uint256"
        }
      ],
      "stateMutability": "view",
      "type": "function"
    },
    {
      "inputs": [
        {
          "internalType": "address",
          "name": "",
          "type": "address"
        }
      ],
      "name": "totalDynamicEarned",
      "outputs": [
        {
          "internalType": "uint256",
          "name": "",
          "type": "uint256"
        }
      ],
      "stateMutability": "view",
      "type": "function"
    },
    {
      "inputs": [
        {
          "internalType": "address",
          "name": "newOwner",
          "type": "address"
        }
      ],
      "name": "transferOwnership",
      "outputs": [],
      "stateMutability": "nonpayable",
      "type": "function"
    },
    {
      "inputs": [
        {
          "internalType": "address",
          "name": "newImplementation",
          "type": "address"
        },
        {
          "internalType": "bytes",
          "name": "data",
          "type": "bytes"
        }
      ],
      "name": "upgradeToAndCall",
      "outputs": [],
      "stateMutability": "payable",
      "type": "function"
    },
    {
      "inputs": [
        {
          "internalType": "address",
          "name": "",
          "type": "address"
        },
        {
          "internalType": "uint256",
          "name": "",
          "type": "uint256"
        }
      ],
      "name": "userDynamicRewards",
      "outputs": [
        {
          "internalType": "uint256",
          "name": "amount",
          "type": "uint256"
        },
        {
          "internalType": "uint256",
          "name": "timestamp",
          "type": "uint256"
        },
        {
          "internalType": "uint8",
          "name": "sourceType",
          "type": "uint8"
        },
        {
          "internalType": "address",
          "name": "fromUser",
          "type": "address"
        },
        {
          "internalType": "bool",
          "name": "claimed",
          "type": "bool"
        },
        {
          "internalType": "uint256",
          "name": "unlockTime",
          "type": "uint256"
        }
      ],
      "stateMutability": "view",
      "type": "function"
    },
    {
      "inputs": [
        {
          "internalType": "address",
          "name": "",
          "type": "address"
        }
      ],
      "name": "userInfo",
      "outputs": [
        {
          "internalType": "uint256",
          "name": "totalTickets",
          "type": "uint256"
        },
        {
          "internalType": "uint256",
          "name": "totalStaked",
          "type": "uint256"
        },
        {
          "internalType": "uint256",
          "name": "totalRewards",
          "type": "uint256"
        },
        {
          "internalType": "uint256",
          "name": "referralCount",
          "type": "uint256"
        },
        {
          "internalType": "uint256",
          "name": "teamCount",
          "type": "uint256"
        },
        {
          "internalType": "address",
          "name": "referrer",
          "type": "address"
        },
        {
          "internalType": "bool",
          "name": "isActive",
          "type": "bool"
        }
      ],
      "stateMutability": "view",
      "type": "function"
    },
    {
      "stateMutability": "payable",
      "type": "receive"
    }
  ],
  "bytecode": "0x60a080604052346100cc57306080527ff0c57e16840df040f15088dc2f81fe391c3923bec73e23a9662efc9c229c6a009081549060ff8260401c166100bd57506001600160401b036002600160401b031982821601610078575b60405161161590816100d28239608051818181610b8a0152610c580152f35b6001600160401b031990911681179091556040519081527fc7f505b2f371ae2175ee4913f4499e1f2633a7b5936321eed1cdaeb6115181d290602090a1388080610059565b63f92ee8a960e01b8152600490fd5b600080fdfe6080604081815260048036101561001e575b505050361561001c57005b005b600092833560e01c9081631788513c14611142575080631959a002146110c2578063263f30b31461108a578063282a31731461097557806331d7a2621461105257806338e454b114610ecb578063425a828514610e1f5780634f1ef28614610bdc57806352d1902d14610b75578063584b62a114610af65780635c975abb14610ac55780635db03d3c14610a34578063715018a6146109dc5780638da5cb5b146109a657806394c2a33214610975578063952539921461094d57806398ad675a14610915578063a1d7d1a9146107b1578063ad3cb1cc14610768578063c2b88b0f14610533578063dae7a13c146104c2578063db2e21bc1461042e578063e697b5d8146103d7578063eb9de6fc146101c15763f2fde38b0361001157346101bd5760203660031901126101bd57610153611167565b9061015c6114c3565b6001600160a01b039182169283156101a757505060008051602061156083398151915280546001600160a01b031981168417909155166000805160206115a08339815191528380a380f35b51631e4fbdf760e01b8152908101849052602490fd5b8280fd5b50346101bd5760a03660031901126101bd576101db611167565b90602435916044359360ff85168095036103d3576001600160a01b0360643581811693908490036103cf5761020e6114c3565b1694851561039557841561035a57610228608435426112b6565b938688526007602052828820835161023f816111c2565b8781526020810142815285820191858352606081019188835260808201918d835260a08101958b8752805490600160401b82101561034657906102879160018201815561124c565b9790976103345750927f95733aa720f1bd106c41c2e59f778c9d2ff5027e93360ad7e086aa40ca4569759b9997959260809b9997959260039551875551600187015560ff60028701935116835492519160ff60a81b9051151560a81b169260018060b01b0319161790610100600160a81b039060081b161717905551910155878952600860205281892061031c8682546112b6565b9055815194855260208501528301526060820152a280f35b634e487b7160e01b8f528e905260248efd5b50634e487b7160e01b8f526041885260248ffd5b815162461bcd60e51b81526020818601526015602482015274125b9d985b1a59081c995dd85c9908185b5bdd5b9d605a1b6044820152606490fd5b815162461bcd60e51b81526020818601526014602482015273496e76616c69642075736572206164647265737360601b6044820152606490fd5b8780fd5b8580fd5b50503461042a578060031936011261042a576103f1611167565b6001600160a01b0390811683526005602052818320805460243591908210156104265784526020938490200154915191168152f35b8480fd5b5080fd5b50346101bd57826003193601126101bd576104476114c3565b4790811561048657506000805160206115608339815191525483918291829182916001600160a01b031682f11561047c575080f35b51903d90823e3d90fd5b606490602084519162461bcd60e51b835282015260166024820152754e6f2062616c616e636520746f20776974686472617760501b6044820152fd5b50503461042a578060031936011261042a576104dc611167565b6001600160a01b0316825260036020528082208054602435919082101561052f5760208460039260609652209102019081549160ff60026001830154920154169082519384526020840152151590820152f35b8380fd5b5082346107655780600319360112610765576002917f9b779b17422d0df92223018b32b4d1fa46e071723d6817e2486d003becc55f00926002845414610756576002845560ff806000805160206115c083398151915254166107465733845260076020528584209084908597865b84548110156106455782866105b6838861124c565b50015460a81c16158061062d575b6105d1575b6001016105a1565b98926105e9906105e18b8761124c565b5054906112b6565b92856105f58b8761124c565b5001805460ff60a81b1916600160a81b179055600019811461061a57600101986105c9565b634e487b7160e01b885260118752602488fd5b50600361063a828761124c565b5001544210156105c4565b87828a868d8b8215610704578247106106c15750338552600960205283852061066f8382546112b6565b905584808080853382f1156106b457837f0a8c70165777134e87610805cbeb9ba99d41c12318aeac9f2cca2e1bc569308b916001955193845260208401523392a25580f35b50505051903d90823e3d90fd5b606490602086519162461bcd60e51b8352820152601d60248201527f496e73756666696369656e7420636f6e74726163742062616c616e63650000006044820152fd5b606490602086519162461bcd60e51b8352820152601c60248201527b4e6f20636c61696d61626c652064796e616d6963207265776172647360201b6044820152fd5b855163d93c066560e01b81528390fd5b508351633ee5aeb560e01b8152fd5b80fd5b50503461042a578160031936011261042a5780516107ad91610789826111f3565b60058252640352e302e360dc1b602083015251918291602083526020830190611182565b0390f35b508234610765576020918260031936011261042a576001600160a01b0393846107d8611167565b168352600890600885528084205491600986528185205493600787528286208054926108038461129f565b9961081086519b8c61120e565b848b52898b01928952898920918a8a945b8786106108ba5750505050505050508392845b87518110156108a0576080610849828a6112e6565b5101511561085a575b600101610834565b9361087190610869868a6112e6565b5151906112b6565b9360a061087e828a6112e6565b51015142106108525794610898600191610869888b6112e6565b959050610852565b509091946080965082519586528501528301526060820152f35b60019187918a516108ca816111c2565b875481528488015483820152600288015460ff908d828216908401528881891c16606084015260a81c1615156080820152600388015460a08201528152019401940193928b90610821565b50503461042a57602036600319011261042a5760209181906001600160a01b0361093d611167565b1681526008845220549051908152f35b50503461042a578160031936011261042a57905490516001600160a01b039091168152602090f35b50503461042a578160031936011261042a576107ad9061099361127e565b9051918291602083526020830190611182565b50503461042a578160031936011261042a576000805160206115608339815191525490516001600160a01b039091168152602090f35b83346107655780600319360112610765576109f56114c3565b60008051602061156083398151915280546001600160a01b0319811690915581906001600160a01b03166000805160206115a08339815191528280a380f35b50503461042a578060031936011261042a57610a4e611167565b6001600160a01b0390811683526007602052818320805460243594929392908510156107655750610a8360c09460ff9261124c565b50805493600182015493600360028401549301549481519687526020870152838316908601528160081c16606085015260a81c161515608083015260a0820152f35b50503461042a578160031936011261042a5760209060ff6000805160206115c0833981519152541690519015158152f35b5090346101bd57806003193601126101bd57610b10611167565b6001600160a01b031683526020829052808320805460243591908210156104265760208560059260a097522091020180549260018201549260ff6002840154926003850154940154169381519586526020860152840152606083015215156080820152f35b509134610765578060031936011261076557507f00000000000000000000000000000000000000000000000000000000000000006001600160a01b03163003610bcf57602090516000805160206115808339815191528152f35b5163703e46dd60e11b8152fd5b5090806003193601126101bd57610bf1611167565b60249390919084356001600160401b03811161042a573660238201121561042a5780850135610c1f81611231565b94610c2c8551968761120e565b81865260209182870193368a83830101116103d3578186928b8693018737880101526001600160a01b037f00000000000000000000000000000000000000000000000000000000000000008116308114908115610e03575b50610df357610c916114c3565b81169585516352d1902d60e01b815283818a818b5afa869181610dc0575b50610ccb575050505050505191634c9c8ce360e01b8352820152fd5b9088888894938c60008051602061158083398151915291828103610dab5750853b15610d97575080546001600160a01b031916821790558451889392917fbc7cd75a20ee27fd9adebab32041f755214dbc6bffa90cc0225b39da2e5c2d3b8580a2825115610d79575050610d6b9582915190845af4913d15610d6f573d610d5d610d5482611231565b9251928361120e565b81528581943d92013e6114fc565b5080f35b50606092506114fc565b955095505050505034610d8b57505080f35b63b398979f60e01b8152fd5b8651634c9c8ce360e01b8152808501849052fd5b8751632a87526960e21b815280860191909152fd5b9091508481813d8311610dec575b610dd8818361120e565b81010312610de857519038610caf565b8680fd5b503d610dce565b855163703e46dd60e11b81528890fd5b9050816000805160206115808339815191525416141538610c84565b82843461076557606091606060031936011261042a5790610e4e610e41611167565b60443590602435906112fa565b90825192602080850191818652845180935281818701950193905b838210610e765786860387f35b84518051875280840151878501528082015160ff1687830152888101516001600160a01b03168988015260808082015115159088015260a0908101519087015260c09095019493820193600190910190610e69565b5082903461042a578160031936011261042a577ff0c57e16840df040f15088dc2f81fe391c3923bec73e23a9662efc9c229c6a009081549060ff82861c16801561103e575b6110305783546001600160a01b0390811615610ff2576001541615610fb35750837fc7f505b2f371ae2175ee4913f4499e1f2633a7b5936321eed1cdaeb6115181d29260036020937f24ea027b1090ce601a0ea36cb46ea14344ca09327776885eb37ee42d65d1579c610f95610f8461127e565b865191829188835288830190611182565b42898301520390a16001600160481b0319161790555160038152a180f35b606490602086519162461bcd60e51b83528201526019602482015278129090c81d1bdad95b881b9bdd081a5b9a5d1a585b1a5e9959603a1b6044820152fd5b855162461bcd60e51b815260208184015260186024820152771350c81d1bdad95b881b9bdd081a5b9a5d1a585b1a5e995960421b6044820152606490fd5b845163f92ee8a960e01b8152fd5b5060036001600160401b0383161015610f10565b50503461042a57602036600319011261042a5760209181906001600160a01b0361107a611167565b1681526006845220549051908152f35b50503461042a57602036600319011261042a5760209181906001600160a01b036110b2611167565b1681526009845220549051908152f35b5090346101bd5760203660031901126101bd5760e09260ff91906001600160a01b03908290826110f0611167565b1681526002602052208054946001820154936002830154906005600385015493850154940154958151988952602089015287015260608601526080850152811660a084015260a01c16151560c0820152f35b84903461042a578160031936011261042a576001546001600160a01b03168152602090f35b600435906001600160a01b038216820361117d57565b600080fd5b919082519283825260005b8481106111ae575050826000602080949584010152601f8019910116010190565b60208183018101518483018201520161118d565b60c081019081106001600160401b038211176111dd57604052565b634e487b7160e01b600052604160045260246000fd5b604081019081106001600160401b038211176111dd57604052565b601f909101601f19168101906001600160401b038211908210176111dd57604052565b6001600160401b0381116111dd57601f01601f191660200190565b80548210156112685760005260206000209060021b0190600090565b634e487b7160e01b600052603260045260246000fd5b6040519061128b826111f3565b60058252640332e302e360dc1b6020830152565b6001600160401b0381116111dd5760051b60200190565b919082018092116112c357565b634e487b7160e01b600052601160045260246000fd5b919082039182116112c357565b80518210156112685760209160051b010190565b9060018060a01b03806000931683526020600781526040948585208054906113218261129f565b9461132e8951968761120e565b8286529087528387208791858088015b85851061146557505050505050825184101561142e5761135e90846112b6565b938251808611611426575b5061137484866112d9565b9561137e8761129f565b9661138b8251988961120e565b80885261139a601f199161129f565b0191805b8381106113ee575050505050815b8381106113ba575050505090565b806113e76113ca600193856112e6565b516113d586846112d9565b906113e0828a6112e6565b52876112e6565b50016113ac565b849083516113fb816111c2565b838152838382015283858201528360608201528360808201528360a082015282828c0101520161139e565b945038611369565b50845194908501925090506001600160401b038211848310176114515752815290565b634e487b7160e01b83526041600452602483fd5b6001916004918d805190611478826111c2565b875482528588015484830152600288015460ff9182821690840152878160081c16606084015260a81c1615156080820152600387015460a0820152815201930193019291869061133e565b600080516020611560833981519152546001600160a01b031633036114e457565b60405163118cdaa760e01b8152336004820152602490fd5b90611523575080511561151157602081519101fd5b60405163d6bda27560e01b8152600490fd5b81511580611556575b611534575090565b604051639996b31560e01b81526001600160a01b039091166004820152602490fd5b50803b1561152c56fe9016d09d72d40fdae2fd8ceac6b6234c7706214fd39c1cd1e609a0528c199300360894a13ba1a3210667c828492db98dca3e2076cc3735a920a3ca505d382bbc8be0079c531659141344cd1fd0a4f28419497f9722a3daafe3b4186f6b6457e0cd5ed15c6e187e77e9aee88184c21f4f2182ab5827cb3b7e07fbedcd63f03300a2646970667358221220fd83791a541cc8943c6724d50d0177c3eda88431fbad61777eef612ded7cbe2664736f6c63430008160033",
  "linkReferences": {},
  "deployedLinkReferences": {}
}