{
  "_format": "hh-sol-artifact-1",
  "contractName": "DailyBurnExtension",
  "sourceName": "contracts/DailyBurnExtension.sol",
  "abi": [
    {
      "inputs": [
        {
          "internalType": "address",
          "name": "_protocol",
          "type": "address"
        }
      ],
      "stateMutability": "nonpayable",
      "type": "constructor"
    },
    {
      "anonymous": false,
      "inputs": [
        {
          "indexed": false,
          "internalType": "uint256",
          "name": "burnAmount",
          "type": "uint256"
        },
        {
          "indexed": false,
          "internalType": "uint256",
          "name": "timestamp",
          "type": "uint256"
        }
      ],
      "name": "DailyBurnExecuted",
      "type": "event"
    },
    {
      "inputs": [],
      "name": "canBurn",
      "outputs": [
        {
          "internalType": "bool",
          "name": "",
          "type": "bool"
        }
      ],
      "stateMutability": "view",
      "type": "function"
    },
    {
      "inputs": [],
      "name": "dailyBurn",
      "outputs": [],
      "stateMutability": "nonpayable",
      "type": "function"
    },
    {
      "inputs": [],
      "name": "getBurnAmount",
      "outputs": [
        {
          "internalType": "uint256",
          "name": "",
          "type": "uint256"
        }
      ],
      "stateMutability": "view",
      "type": "function"
    },
    {
      "inputs": [],
      "name": "nextBurnTime",
      "outputs": [
        {
          "internalType": "uint256",
          "name": "",
          "type": "uint256"
        }
      ],
      "stateMutability": "view",
      "type": "function"
    },
    {
      "inputs": [],
      "name": "protocol",
      "outputs": [
        {
          "internalType": "contract JinbaoProtocol",
          "name": "",
          "type": "address"
        }
      ],
      "stateMutability": "view",
      "type": "function"
    }
  ],
  "bytecode": "0x60a03461008757601f61066238819003918201601f19168301916001600160401b0383118484101761008c5780849260209460405283398101031261008757516001600160a01b03811690819003610087576080526040516105bf90816100a38239608051818181607f0152818161013201528181610259015281816102af01526103740152f35b600080fd5b634e487b7160e01b600052604160045260246000fdfe6080604081815260048036101561001557600080fd5b600092833560e01c90816381eeef5c1461035257508063893dbf61146102885780638ce7442614610244578063c1eb18401461010f5763d0c5c5851461005a57600080fd5b3461010b578260031936011261010b578151630e86d63b60e11b8152906020908290817f00000000000000000000000000000000000000000000000000000000000000006001600160a01b03165afa9283156101005780936100c4575b6020846064855191048152f35b9092506020833d6020116100f8575b816100e060209383610551565b810103126100f55750606460209251926100b7565b80fd5b3d91506100d3565b8251903d90823e3d90fd5b8280fd5b50903461010b578260031936011261010b57805163e306744960e01b81526020937f00000000000000000000000000000000000000000000000000000000000000006001600160a01b031685838681845afa92831561020857859187918495610212575b508551630e86d63b60e11b815296879182905afa9485156102085782956101d5575b506201518083018093116101c257505042101591826101b8575b50519015158152f35b15159150386101af565b634e487b7160e01b825260119052602490fd5b9094508581813d8311610201575b6101ed8183610551565b810103126101fd57519338610195565b5080fd5b503d6101e3565b84513d84823e3d90fd5b9250935081813d831161023d575b61022a8183610551565b810103126101fd57858591519338610173565b503d610220565b5050346101fd57816003193601126101fd57517f00000000000000000000000000000000000000000000000000000000000000006001600160a01b03168152602090f35b509190346101fd57816003193601126101fd57805163e306744960e01b81529160208385817f00000000000000000000000000000000000000000000000000000000000000006001600160a01b03165afa928315610346578193610312575b506201518083018093116102ff576020838351908152f35b634e487b7160e01b815260118452602490fd5b9092506020813d60201161033e575b8161032e60209383610551565b8101031261010b575191386102e7565b3d9150610321565b509051903d90823e3d90fd5b8484843461010b578260031936011261010b5763e306744960e01b84526020937f00000000000000000000000000000000000000000000000000000000000000006001600160a01b03169085818481855afa908115610547578591610516575b506201518081018091116105035742106104d957848291845192838092630e86d63b60e11b82525afa9081156104cc57849161049b575b508015610468576064900490811561042d57507fdc0c563433098d6d033236e322193bd62cdc1680f10682d3cb4ede4fab3f08fa929382519182524290820152a180f35b825162461bcd60e51b81529081018590526015602482015274109d5c9b88185b5bdd5b9d081d1bdbc81cdb585b1b605a1b6044820152606490fd5b5083606492519162461bcd60e51b8352820152600e60248201526d273790252121903a3790313ab93760911b6044820152fd5b90508481813d83116104c5575b6104b28183610551565b810103126104c15751856103e9565b8380fd5b503d6104a8565b50505051903d90823e3d90fd5b5083606492519162461bcd60e51b835282015260056024820152644561726c7960d81b6044820152fd5b634e487b7160e01b855260118352602485fd5b90508581813d8311610540575b61052d8183610551565b8101031261053c5751866103b2565b8480fd5b503d610523565b84513d87823e3d90fd5b90601f8019910116810190811067ffffffffffffffff82111761057357604052565b634e487b7160e01b600052604160045260246000fdfea2646970667358221220dfa4364acbc1af1a6e7a8667ec43e0ba8f89b6e9a28283fae697422da179c7fb64736f6c63430008160033",
  "linkReferences": {},
  "deployedLinkReferences": {}
}