{
  "_format": "hh-sol-artifact-1",
  "contractName": "TokenomicsSummary",
  "sourceName": "contracts/Tokenomics.sol",
  "abi": [
    {
      "inputs": [
        {
          "internalType": "uint256",
          "name": "ticketAmount",
          "type": "uint256"
        }
      ],
      "name": "calculateCap",
      "outputs": [
        {
          "internalType": "uint256",
          "name": "",
          "type": "uint256"
        }
      ],
      "stateMutability": "pure",
      "type": "function"
    },
    {
      "inputs": [
        {
          "internalType": "uint256",
          "name": "ticketAmount",
          "type": "uint256"
        }
      ],
      "name": "calculateRequiredLiquidity",
      "outputs": [
        {
          "internalType": "uint256",
          "name": "",
          "type": "uint256"
        }
      ],
      "stateMutability": "pure",
      "type": "function"
    },
    {
      "inputs": [
        {
          "internalType": "uint256",
          "name": "teamCount",
          "type": "uint256"
        }
      ],
      "name": "calculateUserLevel",
      "outputs": [
        {
          "internalType": "uint256",
          "name": "level",
          "type": "uint256"
        },
        {
          "internalType": "uint256",
          "name": "percent",
          "type": "uint256"
        }
      ],
      "stateMutability": "pure",
      "type": "function"
    },
    {
      "inputs": [],
      "name": "getJBCParams",
      "outputs": [
        {
          "internalType": "string",
          "name": "name",
          "type": "string"
        },
        {
          "internalType": "string",
          "name": "symbol",
          "type": "string"
        },
        {
          "internalType": "uint256",
          "name": "totalSupply",
          "type": "uint256"
        },
        {
          "internalType": "uint256",
          "name": "initialLP",
          "type": "uint256"
        },
        {
          "internalType": "uint256",
          "name": "miningPool",
          "type": "uint256"
        }
      ],
      "stateMutability": "pure",
      "type": "function"
    },
    {
      "inputs": [],
      "name": "getMiningParams",
      "outputs": [
        {
          "internalType": "uint256",
          "name": "cycle7Days",
          "type": "uint256"
        },
        {
          "internalType": "uint256",
          "name": "rate7Days",
          "type": "uint256"
        },
        {
          "internalType": "uint256",
          "name": "cycle15Days",
          "type": "uint256"
        },
        {
          "internalType": "uint256",
          "name": "rate15Days",
          "type": "uint256"
        },
        {
          "internalType": "uint256",
          "name": "cycle30Days",
          "type": "uint256"
        },
        {
          "internalType": "uint256",
          "name": "rate30Days",
          "type": "uint256"
        }
      ],
      "stateMutability": "pure",
      "type": "function"
    },
    {
      "inputs": [],
      "name": "getSafetyParams",
      "outputs": [
        {
          "internalType": "uint256",
          "name": "minLiquidity",
          "type": "uint256"
        },
        {
          "internalType": "uint256",
          "name": "maxPriceImpact",
          "type": "uint256"
        },
        {
          "internalType": "uint256",
          "name": "maxRecursionDepth",
          "type": "uint256"
        },
        {
          "internalType": "uint256",
          "name": "ticketFlexibilityDuration",
          "type": "uint256"
        }
      ],
      "stateMutability": "pure",
      "type": "function"
    },
    {
      "inputs": [],
      "name": "getSwapTaxes",
      "outputs": [
        {
          "internalType": "uint256",
          "name": "buyTax",
          "type": "uint256"
        },
        {
          "internalType": "uint256",
          "name": "sellTax",
          "type": "uint256"
        },
        {
          "internalType": "uint256",
          "name": "dailyBurnPercent",
          "type": "uint256"
        }
      ],
      "stateMutability": "pure",
      "type": "function"
    },
    {
      "inputs": [],
      "name": "getTicketDistribution",
      "outputs": [
        {
          "internalType": "uint256",
          "name": "directReward",
          "type": "uint256"
        },
        {
          "internalType": "uint256",
          "name": "levelReward",
          "type": "uint256"
        },
        {
          "internalType": "uint256",
          "name": "marketing",
          "type": "uint256"
        },
        {
          "internalType": "uint256",
          "name": "buyback",
          "type": "uint256"
        },
        {
          "internalType": "uint256",
          "name": "lpInjection",
          "type": "uint256"
        },
        {
          "internalType": "uint256",
          "name": "treasury",
          "type": "uint256"
        }
      ],
      "stateMutability": "pure",
      "type": "function"
    },
    {
      "inputs": [],
      "name": "getTicketTiers",
      "outputs": [
        {
          "internalType": "uint256",
          "name": "tier1",
          "type": "uint256"
        },
        {
          "internalType": "uint256",
          "name": "tier2",
          "type": "uint256"
        },
        {
          "internalType": "uint256",
          "name": "tier3",
          "type": "uint256"
        },
        {
          "internalType": "uint256",
          "name": "tier4",
          "type": "uint256"
        }
      ],
      "stateMutability": "pure",
      "type": "function"
    },
    {
      "inputs": [
        {
          "internalType": "uint256",
          "name": "level",
          "type": "uint256"
        }
      ],
      "name": "getVLevelConfig",
      "outputs": [
        {
          "internalType": "uint256",
          "name": "threshold",
          "type": "uint256"
        },
        {
          "internalType": "uint256",
          "name": "percent",
          "type": "uint256"
        }
      ],
      "stateMutability": "pure",
      "type": "function"
    }
  ],
  "bytecode": "0x60808060405234610016576105a1908161001c8239f35b600080fdfe608060408181526004918236101561001657600080fd5b600092833560e01c918263275ea2d51461035f575081633fbe91e01461031557816359b17171146102f65781635e721626146102b0578163686dd2f01461028257816370153803146101935781637389d42d1461014d57508063a89319081461010f578063c2837f51146100e65763dbf2d4681461009357600080fd5b346100e257816003193601126100e25780681b1ae4d6e2ef500000608092519168056bc75e2d631000008352681043561a88293000006020840152820152683635c9adc5dea000006060820152f35b5080fd5b50346100e257816003193601126100e25780600160609251916032835260196020840152820152f35b50346100e257816003193601126100e25780600560c092519160198352600f60208401528201526005606082015260196080820152601960a0820152f35b8383346100e25760203660031901126100e257823591600383029280840460031490151715610180576020838351908152f35b634e487b7160e01b815260118452602490fd5b8383346100e257816003193601126100e2578051916001600160401b038383018181118582101761026f578352600b84526a2534b73130b79021b7b4b760a91b60208501528251918284019182118383101761025c5761022485856a52b7d2dcc80cd2e40000006102328787845260038152624a424360e81b6020820152835195869560a0875260a087019061039a565b90858203602087015261039a565b918301526a0422ca8b0a00a42500000060608301526a4e950851be0c2ebf00000060808301520390f35b634e487b7160e01b815260418652602490fd5b634e487b7160e01b835260418652602483fd5b905082346102ad5760203660031901126102ad57506102a190356104bc565b82519182526020820152f35b80fd5b5050346100e257816003193601126100e25780600f60c09251916007835262cb7356602084015282015262fe502b6060820152601e60808201526301312d0060a0820152f35b905082346102ad5760203660031901126102ad57506102a190356103da565b905082346102ad5760203660031901126102ad5781359160968302928084046096149015171561034c576020836064865191048152f35b634e487b7160e01b825260119052602490fd5b839085346102ad57806003193601126102ad5750601e608092683635c9adc5dea0000083526103e860208401528201526203f4806060820152f35b919082519283825260005b8481106103c6575050826000602080949584010152601f8019910116010190565b6020818301810151848301820152016103a5565b80156104b357600181146104aa57600281146104a15760038114610498576004811461048e5760058114610484576006811461047a576007811461047057600881146104665760091461045c5760405162461bcd60e51b815260206004820152600d60248201526c125b9d985b1a59081b195d995b609a1b6044820152606490fd5b620186a090602d90565b5061753090602890565b5061271090602390565b50610bb890601e90565b506103e890601990565b5061012c90601490565b50606490600f90565b50601e90600a90565b50600a90600590565b50600090600090565b620186a0811015610562576175308110156105595761271081101561055057610bb8811015610547576103e881101561053e5761012c81101561053557606481101561052c57601e81101561052357600a111561051b57600090600090565b600190600590565b50600290600a90565b50600390600f90565b50600490601490565b50600590601990565b50600690601e90565b50600790602390565b50600890602890565b50600990602d9056fea2646970667358221220a3a8a75719455b505658aded6b4dac42518e94ec4bb33273827618ff8903334a64736f6c63430008160033",
  "linkReferences": {},
  "deployedLinkReferences": {}
}