{
  "_format": "hh-sol-artifact-1",
  "contractName": "JinbaoProtocolV4",
  "sourceName": "contracts/JinbaoProtocolV4.sol",
  "abi": [
    {
      "inputs": [],
      "stateMutability": "nonpayable",
      "type": "constructor"
    },
    {
      "inputs": [],
      "name": "ActionTooEarly",
      "type": "error"
    },
    {
      "inputs": [
        {
          "internalType": "address",
          "name": "target",
          "type": "address"
        }
      ],
      "name": "AddressEmptyCode",
      "type": "error"
    },
    {
      "inputs": [],
      "name": "AlreadyBound",
      "type": "error"
    },
    {
      "inputs": [],
      "name": "AlreadyExited",
      "type": "error"
    },
    {
      "inputs": [],
      "name": "ContractPaused",
      "type": "error"
    },
    {
      "inputs": [
        {
          "internalType": "address",
          "name": "implementation",
          "type": "address"
        }
      ],
      "name": "ERC1967InvalidImplementation",
      "type": "error"
    },
    {
      "inputs": [],
      "name": "ERC1967NonPayable",
      "type": "error"
    },
    {
      "inputs": [],
      "name": "FailedCall",
      "type": "error"
    },
    {
      "inputs": [],
      "name": "InsufficientBalance",
      "type": "error"
    },
    {
      "inputs": [],
      "name": "InsufficientNativeBalance",
      "type": "error"
    },
    {
      "inputs": [],
      "name": "InvalidAddress",
      "type": "error"
    },
    {
      "inputs": [],
      "name": "InvalidAmount",
      "type": "error"
    },
    {
      "inputs": [],
      "name": "InvalidCycle",
      "type": "error"
    },
    {
      "inputs": [],
      "name": "InvalidInitialization",
      "type": "error"
    },
    {
      "inputs": [],
      "name": "LowLiquidity",
      "type": "error"
    },
    {
      "inputs": [],
      "name": "NativeTransferFailed",
      "type": "error"
    },
    {
      "inputs": [],
      "name": "NoRewards",
      "type": "error"
    },
    {
      "inputs": [],
      "name": "NotActive",
      "type": "error"
    },
    {
      "inputs": [],
      "name": "NotInitializing",
      "type": "error"
    },
    {
      "inputs": [],
      "name": "NothingToRedeem",
      "type": "error"
    },
    {
      "inputs": [
        {
          "internalType": "address",
          "name": "owner",
          "type": "address"
        }
      ],
      "name": "OwnableInvalidOwner",
      "type": "error"
    },
    {
      "inputs": [
        {
          "internalType": "address",
          "name": "account",
          "type": "address"
        }
      ],
      "name": "OwnableUnauthorizedAccount",
      "type": "error"
    },
    {
      "inputs": [],
      "name": "ReentrancyGuardReentrantCall",
      "type": "error"
    },
    {
      "inputs": [],
      "name": "SelfReference",
      "type": "error"
    },
    {
      "inputs": [
        {
          "internalType": "string",
          "name": "reason",
          "type": "string"
        }
      ],
      "name": "TransferFromFailed",
      "type": "error"
    },
    {
      "inputs": [],
      "name": "TransferFromFailedLowLevel",
      "type": "error"
    },
    {
      "inputs": [],
      "name": "UUPSUnauthorizedCallContext",
      "type": "error"
    },
    {
      "inputs": [
        {
          "internalType": "bytes32",
          "name": "slot",
          "type": "bytes32"
        }
      ],
      "name": "UUPSUnsupportedProxiableUUID",
      "type": "error"
    },
    {
      "inputs": [],
      "name": "Unauthorized",
      "type": "error"
    },
    {
      "anonymous": false,
      "inputs": [
        {
          "indexed": true,
          "internalType": "address",
          "name": "user",
          "type": "address"
        },
        {
          "indexed": true,
          "internalType": "address",
          "name": "referrer",
          "type": "address"
        }
      ],
      "name": "BoundReferrer",
      "type": "event"
    },
    {
      "anonymous": false,
      "inputs": [
        {
          "indexed": false,
          "internalType": "uint256",
          "name": "mcAmount",
          "type": "uint256"
        },
        {
          "indexed": false,
          "internalType": "uint256",
          "name": "jbcBurned",
          "type": "uint256"
        }
      ],
      "name": "BuybackAndBurn",
      "type": "event"
    },
    {
      "anonymous": false,
      "inputs": [
        {
          "indexed": true,
          "internalType": "address",
          "name": "user",
          "type": "address"
        },
        {
          "indexed": false,
          "internalType": "uint256",
          "name": "mcAmount",
          "type": "uint256"
        },
        {
          "indexed": false,
          "internalType": "uint256",
          "name": "jbcAmount",
          "type": "uint256"
        },
        {
          "indexed": false,
          "internalType": "uint256",
          "name": "jbcPrice",
          "type": "uint256"
        },
        {
          "indexed": false,
          "internalType": "uint256",
          "name": "timestamp",
          "type": "uint256"
        }
      ],
      "name": "DifferentialRewardDistributed",
      "type": "event"
    },
    {
      "anonymous": false,
      "inputs": [
        {
          "indexed": true,
          "internalType": "uint256",
          "name": "stakeId",
          "type": "uint256"
        },
        {
          "indexed": true,
          "internalType": "address",
          "name": "upline",
          "type": "address"
        },
        {
          "indexed": false,
          "internalType": "uint256",
          "name": "amount",
          "type": "uint256"
        }
      ],
      "name": "DifferentialRewardRecorded",
      "type": "event"
    },
    {
      "anonymous": false,
      "inputs": [
        {
          "indexed": true,
          "internalType": "uint256",
          "name": "stakeId",
          "type": "uint256"
        },
        {
          "indexed": true,
          "internalType": "address",
          "name": "upline",
          "type": "address"
        },
        {
          "indexed": false,
          "internalType": "uint256",
          "name": "amount",
          "type": "uint256"
        }
      ],
      "name": "DifferentialRewardReleased",
      "type": "event"
    },
    {
      "anonymous": false,
      "inputs": [
        {
          "indexed": false,
          "internalType": "uint256",
          "name": "direct",
          "type": "uint256"
        },
        {
          "indexed": false,
          "internalType": "uint256",
          "name": "level",
          "type": "uint256"
        },
        {
          "indexed": false,
          "internalType": "uint256",
          "name": "marketing",
          "type": "uint256"
        },
        {
          "indexed": false,
          "internalType": "uint256",
          "name": "buyback",
          "type": "uint256"
        },
        {
          "indexed": false,
          "internalType": "uint256",
          "name": "lpInjection",
          "type": "uint256"
        },
        {
          "indexed": false,
          "internalType": "uint256",
          "name": "treasury",
          "type": "uint256"
        }
      ],
      "name": "DistributionConfigUpdated",
      "type": "event"
    },
    {
      "anonymous": false,
      "inputs": [],
      "name": "EmergencyPaused",
      "type": "event"
    },
    {
      "anonymous": false,
      "inputs": [],
      "name": "EmergencyUnpaused",
      "type": "event"
    },
    {
      "anonymous": false,
      "inputs": [
        {
          "indexed": true,
          "internalType": "address",
          "name": "user",
          "type": "address"
        },
        {
          "indexed": false,
          "internalType": "uint256",
          "name": "ticketId",
          "type": "uint256"
        }
      ],
      "name": "Exited",
      "type": "event"
    },
    {
      "anonymous": false,
      "inputs": [
        {
          "indexed": true,
          "internalType": "address",
          "name": "user",
          "type": "address"
        },
        {
          "indexed": false,
          "internalType": "uint256",
          "name": "amount",
          "type": "uint256"
        }
      ],
      "name": "FeeRefunded",
      "type": "event"
    },
    {
      "anonymous": false,
      "inputs": [
        {
          "indexed": false,
          "internalType": "uint64",
          "name": "version",
          "type": "uint64"
        }
      ],
      "name": "Initialized",
      "type": "event"
    },
    {
      "anonymous": false,
      "inputs": [
        {
          "indexed": true,
          "internalType": "address",
          "name": "oldJbcToken",
          "type": "address"
        },
        {
          "indexed": true,
          "internalType": "address",
          "name": "newJbcToken",
          "type": "address"
        }
      ],
      "name": "JbcTokenUpdated",
      "type": "event"
    },
    {
      "anonymous": false,
      "inputs": [
        {
          "indexed": false,
          "internalType": "uint256",
          "name": "mcAmount",
          "type": "uint256"
        },
        {
          "indexed": false,
          "internalType": "uint256",
          "name": "jbcAmount",
          "type": "uint256"
        }
      ],
      "name": "LiquidityAdded",
      "type": "event"
    },
    {
      "anonymous": false,
      "inputs": [
        {
          "indexed": true,
          "internalType": "address",
          "name": "user",
          "type": "address"
        },
        {
          "indexed": false,
          "internalType": "uint256",
          "name": "amount",
          "type": "uint256"
        },
        {
          "indexed": false,
          "internalType": "uint256",
          "name": "cycleDays",
          "type": "uint256"
        },
        {
          "indexed": false,
          "internalType": "uint256",
          "name": "stakeId",
          "type": "uint256"
        }
      ],
      "name": "LiquidityStaked",
      "type": "event"
    },
    {
      "anonymous": false,
      "inputs": [
        {
          "indexed": true,
          "internalType": "address",
          "name": "from",
          "type": "address"
        },
        {
          "indexed": false,
          "internalType": "uint256",
          "name": "amount",
          "type": "uint256"
        }
      ],
      "name": "NativeMCReceived",
      "type": "event"
    },
    {
      "anonymous": false,
      "inputs": [
        {
          "indexed": true,
          "internalType": "address",
          "name": "to",
          "type": "address"
        },
        {
          "indexed": false,
          "internalType": "uint256",
          "name": "amount",
          "type": "uint256"
        }
      ],
      "name": "NativeMCWithdrawn",
      "type": "event"
    },
    {
      "anonymous": false,
      "inputs": [
        {
          "indexed": true,
          "internalType": "address",
          "name": "previousOwner",
          "type": "address"
        },
        {
          "indexed": true,
          "internalType": "address",
          "name": "newOwner",
          "type": "address"
        }
      ],
      "name": "OwnershipTransferred",
      "type": "event"
    },
    {
      "anonymous": false,
      "inputs": [
        {
          "indexed": true,
          "internalType": "address",
          "name": "user",
          "type": "address"
        },
        {
          "indexed": false,
          "internalType": "uint256",
          "name": "principal",
          "type": "uint256"
        },
        {
          "indexed": false,
          "internalType": "uint256",
          "name": "fee",
          "type": "uint256"
        }
      ],
      "name": "Redeemed",
      "type": "event"
    },
    {
      "anonymous": false,
      "inputs": [
        {
          "indexed": true,
          "internalType": "address",
          "name": "user",
          "type": "address"
        },
        {
          "indexed": true,
          "internalType": "address",
          "name": "from",
          "type": "address"
        },
        {
          "indexed": false,
          "internalType": "uint256",
          "name": "mcAmount",
          "type": "uint256"
        },
        {
          "indexed": false,
          "internalType": "uint256",
          "name": "jbcAmount",
          "type": "uint256"
        },
        {
          "indexed": false,
          "internalType": "uint8",
          "name": "rewardType",
          "type": "uint8"
        },
        {
          "indexed": false,
          "internalType": "uint256",
          "name": "ticketId",
          "type": "uint256"
        }
      ],
      "name": "ReferralRewardPaid",
      "type": "event"
    },
    {
      "anonymous": false,
      "inputs": [
        {
          "indexed": true,
          "internalType": "address",
          "name": "user",
          "type": "address"
        },
        {
          "indexed": true,
          "internalType": "address",
          "name": "oldReferrer",
          "type": "address"
        },
        {
          "indexed": true,
          "internalType": "address",
          "name": "newReferrer",
          "type": "address"
        }
      ],
      "name": "ReferrerChanged",
      "type": "event"
    },
    {
      "anonymous": false,
      "inputs": [
        {
          "indexed": true,
          "internalType": "address",
          "name": "user",
          "type": "address"
        },
        {
          "indexed": false,
          "internalType": "uint256",
          "name": "amount",
          "type": "uint256"
        },
        {
          "indexed": false,
          "internalType": "uint256",
          "name": "cappedAmount",
          "type": "uint256"
        }
      ],
      "name": "RewardCapped",
      "type": "event"
    },
    {
      "anonymous": false,
      "inputs": [
        {
          "indexed": true,
          "internalType": "address",
          "name": "user",
          "type": "address"
        },
        {
          "indexed": false,
          "internalType": "uint256",
          "name": "mcAmount",
          "type": "uint256"
        },
        {
          "indexed": false,
          "internalType": "uint256",
          "name": "jbcAmount",
          "type": "uint256"
        },
        {
          "indexed": false,
          "internalType": "uint8",
          "name": "rewardType",
          "type": "uint8"
        },
        {
          "indexed": false,
          "internalType": "uint256",
          "name": "ticketId",
          "type": "uint256"
        }
      ],
      "name": "RewardClaimed",
      "type": "event"
    },
    {
      "anonymous": false,
      "inputs": [
        {
          "indexed": true,
          "internalType": "address",
          "name": "user",
          "type": "address"
        },
        {
          "indexed": false,
          "internalType": "uint256",
          "name": "amount",
          "type": "uint256"
        },
        {
          "indexed": false,
          "internalType": "uint8",
          "name": "rewardType",
          "type": "uint8"
        }
      ],
      "name": "RewardPaid",
      "type": "event"
    },
    {
      "anonymous": false,
      "inputs": [
        {
          "indexed": false,
          "internalType": "uint256",
          "name": "buyTax",
          "type": "uint256"
        },
        {
          "indexed": false,
          "internalType": "uint256",
          "name": "sellTax",
          "type": "uint256"
        }
      ],
      "name": "SwapTaxesUpdated",
      "type": "event"
    },
    {
      "anonymous": false,
      "inputs": [
        {
          "indexed": true,
          "internalType": "address",
          "name": "user",
          "type": "address"
        },
        {
          "indexed": false,
          "internalType": "uint256",
          "name": "jbcAmount",
          "type": "uint256"
        },
        {
          "indexed": false,
          "internalType": "uint256",
          "name": "mcAmount",
          "type": "uint256"
        },
        {
          "indexed": false,
          "internalType": "uint256",
          "name": "tax",
          "type": "uint256"
        }
      ],
      "name": "SwappedJBCToMC",
      "type": "event"
    },
    {
      "anonymous": false,
      "inputs": [
        {
          "indexed": true,
          "internalType": "address",
          "name": "user",
          "type": "address"
        },
        {
          "indexed": false,
          "internalType": "uint256",
          "name": "mcAmount",
          "type": "uint256"
        },
        {
          "indexed": false,
          "internalType": "uint256",
          "name": "jbcAmount",
          "type": "uint256"
        },
        {
          "indexed": false,
          "internalType": "uint256",
          "name": "tax",
          "type": "uint256"
        }
      ],
      "name": "SwappedMCToJBC",
      "type": "event"
    },
    {
      "anonymous": false,
      "inputs": [
        {
          "indexed": true,
          "internalType": "address",
          "name": "user",
          "type": "address"
        },
        {
          "indexed": false,
          "internalType": "uint256",
          "name": "oldCount",
          "type": "uint256"
        },
        {
          "indexed": false,
          "internalType": "uint256",
          "name": "newCount",
          "type": "uint256"
        }
      ],
      "name": "TeamCountUpdated",
      "type": "event"
    },
    {
      "anonymous": false,
      "inputs": [
        {
          "indexed": true,
          "internalType": "address",
          "name": "user",
          "type": "address"
        },
        {
          "indexed": false,
          "internalType": "uint256",
          "name": "ticketId",
          "type": "uint256"
        },
        {
          "indexed": false,
          "internalType": "uint256",
          "name": "amount",
          "type": "uint256"
        }
      ],
      "name": "TicketExpired",
      "type": "event"
    },
    {
      "anonymous": false,
      "inputs": [
        {
          "indexed": true,
          "internalType": "address",
          "name": "user",
          "type": "address"
        },
        {
          "indexed": false,
          "internalType": "uint256",
          "name": "amount",
          "type": "uint256"
        },
        {
          "indexed": false,
          "internalType": "uint256",
          "name": "ticketId",
          "type": "uint256"
        }
      ],
      "name": "TicketPurchased",
      "type": "event"
    },
    {
      "anonymous": false,
      "inputs": [
        {
          "indexed": true,
          "internalType": "address",
          "name": "implementation",
          "type": "address"
        }
      ],
      "name": "Upgraded",
      "type": "event"
    },
    {
      "anonymous": false,
      "inputs": [
        {
          "indexed": true,
          "internalType": "address",
          "name": "user",
          "type": "address"
        },
        {
          "indexed": false,
          "internalType": "uint256",
          "name": "activeDirects",
          "type": "uint256"
        },
        {
          "indexed": false,
          "internalType": "uint256",
          "name": "totalRevenue",
          "type": "uint256"
        },
        {
          "indexed": false,
          "internalType": "uint256",
          "name": "currentCap",
          "type": "uint256"
        },
        {
          "indexed": false,
          "internalType": "uint256",
          "name": "refundFeeAmount",
          "type": "uint256"
        }
      ],
      "name": "UserDataUpdated",
      "type": "event"
    },
    {
      "anonymous": false,
      "inputs": [
        {
          "indexed": true,
          "internalType": "address",
          "name": "user",
          "type": "address"
        },
        {
          "indexed": false,
          "internalType": "uint256",
          "name": "oldLevel",
          "type": "uint256"
        },
        {
          "indexed": false,
          "internalType": "uint256",
          "name": "newLevel",
          "type": "uint256"
        },
        {
          "indexed": false,
          "internalType": "uint256",
          "name": "teamCount",
          "type": "uint256"
        }
      ],
      "name": "UserLevelChanged",
      "type": "event"
    },
    {
      "inputs": [],
      "name": "REWARD_DIFFERENTIAL",
      "outputs": [
        {
          "internalType": "uint8",
          "name": "",
          "type": "uint8"
        }
      ],
      "stateMutability": "view",
      "type": "function"
    },
    {
      "inputs": [],
      "name": "REWARD_DIRECT",
      "outputs": [
        {
          "internalType": "uint8",
          "name": "",
          "type": "uint8"
        }
      ],
      "stateMutability": "view",
      "type": "function"
    },
    {
      "inputs": [],
      "name": "REWARD_DYNAMIC",
      "outputs": [
        {
          "internalType": "uint8",
          "name": "",
          "type": "uint8"
        }
      ],
      "stateMutability": "view",
      "type": "function"
    },
    {
      "inputs": [],
      "name": "REWARD_LEVEL",
      "outputs": [
        {
          "internalType": "uint8",
          "name": "",
          "type": "uint8"
        }
      ],
      "stateMutability": "view",
      "type": "function"
    },
    {
      "inputs": [],
      "name": "REWARD_STATIC",
      "outputs": [
        {
          "internalType": "uint8",
          "name": "",
          "type": "uint8"
        }
      ],
      "stateMutability": "view",
      "type": "function"
    },
    {
      "inputs": [],
      "name": "SECONDS_IN_UNIT",
      "outputs": [
        {
          "internalType": "uint256",
          "name": "",
          "type": "uint256"
        }
      ],
      "stateMutability": "view",
      "type": "function"
    },
    {
      "inputs": [],
      "name": "UPGRADE_INTERFACE_VERSION",
      "outputs": [
        {
          "internalType": "string",
          "name": "",
          "type": "string"
        }
      ],
      "stateMutability": "view",
      "type": "function"
    },
    {
      "inputs": [],
      "name": "VERSION_DEBUG",
      "outputs": [
        {
          "internalType": "uint256",
          "name": "",
          "type": "uint256"
        }
      ],
      "stateMutability": "view",
      "type": "function"
    },
    {
      "inputs": [
        {
          "internalType": "uint256",
          "name": "jbcAmount",
          "type": "uint256"
        }
      ],
      "name": "addLiquidity",
      "outputs": [],
      "stateMutability": "payable",
      "type": "function"
    },
    {
      "inputs": [
        {
          "internalType": "address",
          "name": "user",
          "type": "address"
        },
        {
          "internalType": "uint256",
          "name": "newActiveDirects",
          "type": "uint256"
        }
      ],
      "name": "adminSetActiveDirects",
      "outputs": [],
      "stateMutability": "nonpayable",
      "type": "function"
    },
    {
      "inputs": [
        {
          "internalType": "address",
          "name": "user",
          "type": "address"
        },
        {
          "internalType": "address",
          "name": "newReferrer",
          "type": "address"
        }
      ],
      "name": "adminSetReferrer",
      "outputs": [],
      "stateMutability": "nonpayable",
      "type": "function"
    },
    {
      "inputs": [
        {
          "internalType": "address",
          "name": "user",
          "type": "address"
        },
        {
          "internalType": "uint256",
          "name": "newTeamCount",
          "type": "uint256"
        }
      ],
      "name": "adminSetTeamCount",
      "outputs": [],
      "stateMutability": "nonpayable",
      "type": "function"
    },
    {
      "inputs": [
        {
          "internalType": "address",
          "name": "_referrer",
          "type": "address"
        }
      ],
      "name": "bindReferrer",
      "outputs": [],
      "stateMutability": "nonpayable",
      "type": "function"
    },
    {
      "inputs": [],
      "name": "buyTicket",
      "outputs": [],
      "stateMutability": "payable",
      "type": "function"
    },
    {
      "inputs": [],
      "name": "buybackPercent",
      "outputs": [
        {
          "internalType": "uint256",
          "name": "",
          "type": "uint256"
        }
      ],
      "stateMutability": "view",
      "type": "function"
    },
    {
      "inputs": [],
      "name": "buybackWallet",
      "outputs": [
        {
          "internalType": "address",
          "name": "",
          "type": "address"
        }
      ],
      "stateMutability": "view",
      "type": "function"
    },
    {
      "inputs": [
        {
          "internalType": "uint256",
          "name": "teamCount",
          "type": "uint256"
        }
      ],
      "name": "calculateLevel",
      "outputs": [
        {
          "internalType": "uint256",
          "name": "level",
          "type": "uint256"
        },
        {
          "internalType": "uint256",
          "name": "percent",
          "type": "uint256"
        }
      ],
      "stateMutability": "pure",
      "type": "function"
    },
    {
      "inputs": [],
      "name": "claimRewards",
      "outputs": [],
      "stateMutability": "nonpayable",
      "type": "function"
    },
    {
      "inputs": [],
      "name": "dailyBurn",
      "outputs": [],
      "stateMutability": "nonpayable",
      "type": "function"
    },
    {
      "inputs": [
        {
          "internalType": "address",
          "name": "",
          "type": "address"
        },
        {
          "internalType": "uint256",
          "name": "",
          "type": "uint256"
        }
      ],
      "name": "directReferrals",
      "outputs": [
        {
          "internalType": "address",
          "name": "",
          "type": "address"
        }
      ],
      "stateMutability": "view",
      "type": "function"
    },
    {
      "inputs": [],
      "name": "directRewardPercent",
      "outputs": [
        {
          "internalType": "uint256",
          "name": "",
          "type": "uint256"
        }
      ],
      "stateMutability": "view",
      "type": "function"
    },
    {
      "inputs": [],
      "name": "emergencyPause",
      "outputs": [],
      "stateMutability": "nonpayable",
      "type": "function"
    },
    {
      "inputs": [],
      "name": "emergencyPaused",
      "outputs": [
        {
          "internalType": "bool",
          "name": "",
          "type": "bool"
        }
      ],
      "stateMutability": "view",
      "type": "function"
    },
    {
      "inputs": [],
      "name": "emergencyUnpause",
      "outputs": [],
      "stateMutability": "nonpayable",
      "type": "function"
    },
    {
      "inputs": [
        {
          "internalType": "address",
          "name": "_to",
          "type": "address"
        },
        {
          "internalType": "uint256",
          "name": "_amount",
          "type": "uint256"
        }
      ],
      "name": "emergencyWithdrawNative",
      "outputs": [],
      "stateMutability": "nonpayable",
      "type": "function"
    },
    {
      "inputs": [
        {
          "internalType": "address",
          "name": "user",
          "type": "address"
        }
      ],
      "name": "getDirectReferrals",
      "outputs": [
        {
          "internalType": "address[]",
          "name": "",
          "type": "address[]"
        }
      ],
      "stateMutability": "view",
      "type": "function"
    },
    {
      "inputs": [
        {
          "internalType": "uint256",
          "name": "activeDirects",
          "type": "uint256"
        }
      ],
      "name": "getLevelRewardLayers",
      "outputs": [
        {
          "internalType": "uint256",
          "name": "",
          "type": "uint256"
        }
      ],
      "stateMutability": "pure",
      "type": "function"
    },
    {
      "inputs": [
        {
          "internalType": "address",
          "name": "user",
          "type": "address"
        }
      ],
      "name": "getUserLevel",
      "outputs": [
        {
          "internalType": "uint256",
          "name": "level",
          "type": "uint256"
        },
        {
          "internalType": "uint256",
          "name": "percent",
          "type": "uint256"
        },
        {
          "internalType": "uint256",
          "name": "teamCount",
          "type": "uint256"
        }
      ],
      "stateMutability": "view",
      "type": "function"
    },
    {
      "inputs": [
        {
          "internalType": "address",
          "name": "_jbcToken",
          "type": "address"
        },
        {
          "internalType": "address",
          "name": "_marketing",
          "type": "address"
        },
        {
          "internalType": "address",
          "name": "_treasury",
          "type": "address"
        },
        {
          "internalType": "address",
          "name": "_lpInjection",
          "type": "address"
        },
        {
          "internalType": "address",
          "name": "_buybackWallet",
          "type": "address"
        }
      ],
      "name": "initialize",
      "outputs": [],
      "stateMutability": "nonpayable",
      "type": "function"
    },
    {
      "inputs": [],
      "name": "jbcToken",
      "outputs": [
        {
          "internalType": "contract IJBC",
          "name": "",
          "type": "address"
        }
      ],
      "stateMutability": "view",
      "type": "function"
    },
    {
      "inputs": [],
      "name": "lastBurnTime",
      "outputs": [
        {
          "internalType": "uint256",
          "name": "",
          "type": "uint256"
        }
      ],
      "stateMutability": "view",
      "type": "function"
    },
    {
      "inputs": [],
      "name": "levelRewardPercent",
      "outputs": [
        {
          "internalType": "uint256",
          "name": "",
          "type": "uint256"
        }
      ],
      "stateMutability": "view",
      "type": "function"
    },
    {
      "inputs": [],
      "name": "levelRewardPool",
      "outputs": [
        {
          "internalType": "uint256",
          "name": "",
          "type": "uint256"
        }
      ],
      "stateMutability": "view",
      "type": "function"
    },
    {
      "inputs": [],
      "name": "liquidityEnabled",
      "outputs": [
        {
          "internalType": "bool",
          "name": "",
          "type": "bool"
        }
      ],
      "stateMutability": "view",
      "type": "function"
    },
    {
      "inputs": [],
      "name": "lpInjectionPercent",
      "outputs": [
        {
          "internalType": "uint256",
          "name": "",
          "type": "uint256"
        }
      ],
      "stateMutability": "view",
      "type": "function"
    },
    {
      "inputs": [],
      "name": "lpInjectionWallet",
      "outputs": [
        {
          "internalType": "address",
          "name": "",
          "type": "address"
        }
      ],
      "stateMutability": "view",
      "type": "function"
    },
    {
      "inputs": [],
      "name": "marketingPercent",
      "outputs": [
        {
          "internalType": "uint256",
          "name": "",
          "type": "uint256"
        }
      ],
      "stateMutability": "view",
      "type": "function"
    },
    {
      "inputs": [],
      "name": "marketingWallet",
      "outputs": [
        {
          "internalType": "address",
          "name": "",
          "type": "address"
        }
      ],
      "stateMutability": "view",
      "type": "function"
    },
    {
      "inputs": [],
      "name": "nextStakeId",
      "outputs": [
        {
          "internalType": "uint256",
          "name": "",
          "type": "uint256"
        }
      ],
      "stateMutability": "view",
      "type": "function"
    },
    {
      "inputs": [],
      "name": "nextTicketId",
      "outputs": [
        {
          "internalType": "uint256",
          "name": "",
          "type": "uint256"
        }
      ],
      "stateMutability": "view",
      "type": "function"
    },
    {
      "inputs": [],
      "name": "owner",
      "outputs": [
        {
          "internalType": "address",
          "name": "",
          "type": "address"
        }
      ],
      "stateMutability": "view",
      "type": "function"
    },
    {
      "inputs": [],
      "name": "priceOracle",
      "outputs": [
        {
          "internalType": "address",
          "name": "",
          "type": "address"
        }
      ],
      "stateMutability": "view",
      "type": "function"
    },
    {
      "inputs": [],
      "name": "proxiableUUID",
      "outputs": [
        {
          "internalType": "bytes32",
          "name": "",
          "type": "bytes32"
        }
      ],
      "stateMutability": "view",
      "type": "function"
    },
    {
      "inputs": [],
      "name": "redeem",
      "outputs": [],
      "stateMutability": "nonpayable",
      "type": "function"
    },
    {
      "inputs": [],
      "name": "redeemEnabled",
      "outputs": [
        {
          "internalType": "bool",
          "name": "",
          "type": "bool"
        }
      ],
      "stateMutability": "view",
      "type": "function"
    },
    {
      "inputs": [],
      "name": "redemptionFeePercent",
      "outputs": [
        {
          "internalType": "uint256",
          "name": "",
          "type": "uint256"
        }
      ],
      "stateMutability": "view",
      "type": "function"
    },
    {
      "inputs": [],
      "name": "renounceOwnership",
      "outputs": [],
      "stateMutability": "nonpayable",
      "type": "function"
    },
    {
      "inputs": [
        {
          "internalType": "address",
          "name": "_token",
          "type": "address"
        },
        {
          "internalType": "address",
          "name": "_to",
          "type": "address"
        },
        {
          "internalType": "uint256",
          "name": "_amount",
          "type": "uint256"
        }
      ],
      "name": "rescueTokens",
      "outputs": [],
      "stateMutability": "nonpayable",
      "type": "function"
    },
    {
      "inputs": [
        {
          "internalType": "uint256",
          "name": "_direct",
          "type": "uint256"
        },
        {
          "internalType": "uint256",
          "name": "_level",
          "type": "uint256"
        },
        {
          "internalType": "uint256",
          "name": "_marketing",
          "type": "uint256"
        },
        {
          "internalType": "uint256",
          "name": "_buyback",
          "type": "uint256"
        },
        {
          "internalType": "uint256",
          "name": "_lpInjection",
          "type": "uint256"
        },
        {
          "internalType": "uint256",
          "name": "_treasury",
          "type": "uint256"
        }
      ],
      "name": "setDistributionConfig",
      "outputs": [],
      "stateMutability": "nonpayable",
      "type": "function"
    },
    {
      "inputs": [
        {
          "internalType": "address",
          "name": "_newJbcToken",
          "type": "address"
        }
      ],
      "name": "setJbcToken",
      "outputs": [],
      "stateMutability": "nonpayable",
      "type": "function"
    },
    {
      "inputs": [
        {
          "internalType": "bool",
          "name": "_liquidityEnabled",
          "type": "bool"
        },
        {
          "internalType": "bool",
          "name": "_redeemEnabled",
          "type": "bool"
        }
      ],
      "name": "setOperationalStatus",
      "outputs": [],
      "stateMutability": "nonpayable",
      "type": "function"
    },
    {
      "inputs": [
        {
          "internalType": "uint256",
          "name": "_fee",
          "type": "uint256"
        }
      ],
      "name": "setRedemptionFeePercent",
      "outputs": [],
      "stateMutability": "nonpayable",
      "type": "function"
    },
    {
      "inputs": [
        {
          "internalType": "uint256",
          "name": "_buyTax",
          "type": "uint256"
        },
        {
          "internalType": "uint256",
          "name": "_sellTax",
          "type": "uint256"
        }
      ],
      "name": "setSwapTaxes",
      "outputs": [],
      "stateMutability": "nonpayable",
      "type": "function"
    },
    {
      "inputs": [
        {
          "internalType": "uint256",
          "name": "_duration",
          "type": "uint256"
        }
      ],
      "name": "setTicketFlexibilityDuration",
      "outputs": [],
      "stateMutability": "nonpayable",
      "type": "function"
    },
    {
      "inputs": [
        {
          "internalType": "address",
          "name": "_marketing",
          "type": "address"
        },
        {
          "internalType": "address",
          "name": "_treasury",
          "type": "address"
        },
        {
          "internalType": "address",
          "name": "_lpInjection",
          "type": "address"
        },
        {
          "internalType": "address",
          "name": "_buyback",
          "type": "address"
        }
      ],
      "name": "setWallets",
      "outputs": [],
      "stateMutability": "nonpayable",
      "type": "function"
    },
    {
      "inputs": [
        {
          "internalType": "uint256",
          "name": "cycleDays",
          "type": "uint256"
        }
      ],
      "name": "stakeLiquidity",
      "outputs": [],
      "stateMutability": "payable",
      "type": "function"
    },
    {
      "inputs": [
        {
          "internalType": "uint256",
          "name": "",
          "type": "uint256"
        }
      ],
      "name": "stakeOwner",
      "outputs": [
        {
          "internalType": "address",
          "name": "",
          "type": "address"
        }
      ],
      "stateMutability": "view",
      "type": "function"
    },
    {
      "inputs": [
        {
          "internalType": "uint256",
          "name": "",
          "type": "uint256"
        },
        {
          "internalType": "uint256",
          "name": "",
          "type": "uint256"
        }
      ],
      "name": "stakePendingRewards",
      "outputs": [
        {
          "internalType": "address",
          "name": "upline",
          "type": "address"
        },
        {
          "internalType": "uint256",
          "name": "amount",
          "type": "uint256"
        }
      ],
      "stateMutability": "view",
      "type": "function"
    },
    {
      "inputs": [],
      "name": "swapBuyTax",
      "outputs": [
        {
          "internalType": "uint256",
          "name": "",
          "type": "uint256"
        }
      ],
      "stateMutability": "view",
      "type": "function"
    },
    {
      "inputs": [
        {
          "internalType": "uint256",
          "name": "jbcAmount",
          "type": "uint256"
        }
      ],
      "name": "swapJBCToMC",
      "outputs": [],
      "stateMutability": "nonpayable",
      "type": "function"
    },
    {
      "inputs": [],
      "name": "swapMCToJBC",
      "outputs": [],
      "stateMutability": "payable",
      "type": "function"
    },
    {
      "inputs": [],
      "name": "swapReserveJBC",
      "outputs": [
        {
          "internalType": "uint256",
          "name": "",
          "type": "uint256"
        }
      ],
      "stateMutability": "view",
      "type": "function"
    },
    {
      "inputs": [],
      "name": "swapReserveMC",
      "outputs": [
        {
          "internalType": "uint256",
          "name": "",
          "type": "uint256"
        }
      ],
      "stateMutability": "view",
      "type": "function"
    },
    {
      "inputs": [],
      "name": "swapSellTax",
      "outputs": [
        {
          "internalType": "uint256",
          "name": "",
          "type": "uint256"
        }
      ],
      "stateMutability": "view",
      "type": "function"
    },
    {
      "inputs": [],
      "name": "ticketFlexibilityDuration",
      "outputs": [
        {
          "internalType": "uint256",
          "name": "",
          "type": "uint256"
        }
      ],
      "stateMutability": "view",
      "type": "function"
    },
    {
      "inputs": [
        {
          "internalType": "uint256",
          "name": "",
          "type": "uint256"
        }
      ],
      "name": "ticketOwner",
      "outputs": [
        {
          "internalType": "address",
          "name": "",
          "type": "address"
        }
      ],
      "stateMutability": "view",
      "type": "function"
    },
    {
      "inputs": [
        {
          "internalType": "uint256",
          "name": "",
          "type": "uint256"
        },
        {
          "internalType": "uint256",
          "name": "",
          "type": "uint256"
        }
      ],
      "name": "ticketPendingRewards",
      "outputs": [
        {
          "internalType": "address",
          "name": "upline",
          "type": "address"
        },
        {
          "internalType": "uint256",
          "name": "amount",
          "type": "uint256"
        }
      ],
      "stateMutability": "view",
      "type": "function"
    },
    {
      "inputs": [
        {
          "internalType": "address",
          "name": "newOwner",
          "type": "address"
        }
      ],
      "name": "transferOwnership",
      "outputs": [],
      "stateMutability": "nonpayable",
      "type": "function"
    },
    {
      "inputs": [],
      "name": "treasuryPercent",
      "outputs": [
        {
          "internalType": "uint256",
          "name": "",
          "type": "uint256"
        }
      ],
      "stateMutability": "view",
      "type": "function"
    },
    {
      "inputs": [],
      "name": "treasuryWallet",
      "outputs": [
        {
          "internalType": "address",
          "name": "",
          "type": "address"
        }
      ],
      "stateMutability": "view",
      "type": "function"
    },
    {
      "inputs": [
        {
          "internalType": "address",
          "name": "newImplementation",
          "type": "address"
        },
        {
          "internalType": "bytes",
          "name": "data",
          "type": "bytes"
        }
      ],
      "name": "upgradeToAndCall",
      "outputs": [],
      "stateMutability": "payable",
      "type": "function"
    },
    {
      "inputs": [
        {
          "internalType": "address",
          "name": "",
          "type": "address"
        }
      ],
      "name": "userInfo",
      "outputs": [
        {
          "internalType": "address",
          "name": "referrer",
          "type": "address"
        },
        {
          "internalType": "uint256",
          "name": "activeDirects",
          "type": "uint256"
        },
        {
          "internalType": "uint256",
          "name": "teamCount",
          "type": "uint256"
        },
        {
          "internalType": "uint256",
          "name": "totalRevenue",
          "type": "uint256"
        },
        {
          "internalType": "uint256",
          "name": "currentCap",
          "type": "uint256"
        },
        {
          "internalType": "bool",
          "name": "isActive",
          "type": "bool"
        },
        {
          "internalType": "uint256",
          "name": "refundFeeAmount",
          "type": "uint256"
        },
        {
          "internalType": "uint256",
          "name": "teamTotalVolume",
          "type": "uint256"
        },
        {
          "internalType": "uint256",
          "name": "teamTotalCap",
          "type": "uint256"
        },
        {
          "internalType": "uint256",
          "name": "maxTicketAmount",
          "type": "uint256"
        },
        {
          "internalType": "uint256",
          "name": "maxSingleTicketAmount",
          "type": "uint256"
        }
      ],
      "stateMutability": "view",
      "type": "function"
    },
    {
      "inputs": [
        {
          "internalType": "address",
          "name": "",
          "type": "address"
        },
        {
          "internalType": "uint256",
          "name": "",
          "type": "uint256"
        }
      ],
      "name": "userStakes",
      "outputs": [
        {
          "internalType": "uint256",
          "name": "id",
          "type": "uint256"
        },
        {
          "internalType": "uint256",
          "name": "amount",
          "type": "uint256"
        },
        {
          "internalType": "uint256",
          "name": "startTime",
          "type": "uint256"
        },
        {
          "internalType": "uint256",
          "name": "cycleDays",
          "type": "uint256"
        },
        {
          "internalType": "bool",
          "name": "active",
          "type": "bool"
        },
        {
          "internalType": "uint256",
          "name": "paid",
          "type": "uint256"
        }
      ],
      "stateMutability": "view",
      "type": "function"
    },
    {
      "inputs": [
        {
          "internalType": "address",
          "name": "",
          "type": "address"
        }
      ],
      "name": "userTicket",
      "outputs": [
        {
          "internalType": "uint256",
          "name": "ticketId",
          "type": "uint256"
        },
        {
          "internalType": "uint256",
          "name": "amount",
          "type": "uint256"
        },
        {
          "internalType": "uint256",
          "name": "purchaseTime",
          "type": "uint256"
        },
        {
          "internalType": "bool",
          "name": "exited",
          "type": "bool"
        }
      ],
      "stateMutability": "view",
      "type": "function"
    },
    {
      "inputs": [
        {
          "internalType": "address",
          "name": "_toMC",
          "type": "address"
        },
        {
          "internalType": "uint256",
          "name": "_amountMC",
          "type": "uint256"
        },
        {
          "internalType": "address",
          "name": "_toJBC",
          "type": "address"
        },
        {
          "internalType": "uint256",
          "name": "_amountJBC",
          "type": "uint256"
        }
      ],
      "name": "withdrawSwapReserves",
      "outputs": [],
      "stateMutability": "nonpayable",
      "type": "function"
    },
    {
      "stateMutability": "payable",
      "type": "receive"
    }
  ],
  "bytecode": "0x60a08060405234620000d157306080527ff0c57e16840df040f15088dc2f81fe391c3923bec73e23a9662efc9c229c6a009081549060ff8260401c16620000c257506001600160401b036002600160401b0319828216016200007c575b60405161497d9081620000d78239608051818181611b5c0152611f460152f35b6001600160401b031990911681179091556040519081527fc7f505b2f371ae2175ee4913f4499e1f2633a7b5936321eed1cdaeb6115181d290602090a13880806200005c565b63f92ee8a960e01b8152600490fd5b600080fdfe60806040526004361015610056575b361561001957600080fd5b61002534601854613028565b6018556040513481527fc8382e3e3003d34021113f35bf95ee86b77a09ec08c4eb3cbe64076e60468f4e60203392a2005b6000803560e01c8063013758ca14612d8857806301d62efb14612d3757806304ef9d5814612d1957806304f618cb14612b6e57806305ad393514612b135780630e2be21014612af75780631427f61614612adb5780631459457a146128e15780631788513c146128ba578063182c84cc146128935780631959a002146127e15780631d0dac76146127c357806321923bde146127745780632630c12f1461274757806327c830a91461272457806327f082f41461270657806335076373146121bb578063372500ab1461219a5780633dbd46bd146121675780634626402b1461213e578063488b5d97146121205780634a4e3bd5146120d65780634f1ef28614611ecb57806351858e2714611e7e57806351c6590a14611d8f57806352778b0514611bb457806352d1902d14611b495780636031a52f14611b2b5780636dd6682714611b0d578063715018a614611ab457806375506c9614611a9657806375f0a87414611a6d57806377a2a54014611a4f578063813380cd14611a2157806381eeef5c1461193257806383672f3e1461187a578063841d308b146116105780638710bcaa146115af57806388481b611461159357806388fd4d331461156a5780638a859a85146113c95780638c0eaa481461154e5780638da5cb5b1461151857806390b0eb51146114c85780639370b080146114aa5780639b7885041461143b5780639d99eca414611418578063a2af9226146113e5578063abed0d94146113c9578063ac8f50aa14611371578063ad3cb1cc146112f2578063b048a4bb146112cf578063b5d5b5fa14611241578063b759936b14611223578063bd594dcf14611205578063be040fb014610f04578063c2ff12fc14610ed1578063ccf6194414610eb3578063cea9d26f14610e14578063ceaa366d14610df6578063d0f1647014610d6c578063d2c8e0e514610cbd578063d2f8253614610c97578063d4f0014214610b90578063d8020a1814610b72578063d803507214610b2c578063dce3dc1f14610b01578063deab8aea14610ad8578063dec7fa3b14610aba578063e306744914610a9c578063e4412f6814610a7e578063ece7126614610a5b578063edca914c14610490578063f2fde38b146104635763f521a5a71461039b575061000e565b34610460576040366003190112610460576103b4612e2c565b602435906103c06134d1565b6001600160a01b031690811561044e57604060008051602061482883398151915291838552600e602052600282862001908082549255846104008361353a565b5061040a8361353a565b50818103610424575b50505082519182526020820152a280f35b6000805160206148088339815191529161044385885193849384612eb2565b0390a2843880610413565b60405163e6c4247b60e01b8152600490fd5b80fd5b50346104605760203660031901126104605761048d610480612e2c565b6104886134d1565b61346f565b80f35b5080600319360112610460576104a46135e9565b60ff601e5416610a49576104b733613dc9565b68056bc75e2d6310000034148015610a37575b8015610a25575b8015610a13575b15610a0157338152600f6020526040812060038101805460ff161561094857610502601a54612ff6565b80601a55825534600183015542600283015560ff198154169055338252600e60205281600360408220015561053634613035565b338352600e60205260046040842001555b600a6001820154338452600e60205260408420906009820180548211610940575b50500180543411610937575b508054825260146020908152604080842080546001600160a01b031916339081179091558354908552600e9092528320546001600160a01b031680151580610923575b15610900576105d460646105cd6005543461304b565b0482613fba565b91826108cc575b5050505b338252600e6020526040822054829182916001600160a01b031690829034801590800460011417156108b8579394915b6001600160a01b038116801515806108ae575b806108a4575b15610722578452600e6020526040842060ff60058201541615610703575060018060a01b03811690818552600e60205283610669600160408820015461350a565b116106a3575b508352600e60205260408320546001600160a01b0316916106999061069390612ff6565b95612ff6565b935b93949161060f565b6106b19060643404906140f3565b801561066f5791826106c291613028565b91338552600f6020526040852054604051918252856020830152600360408301526060820152816000805160206147a883398151915260803393a33861066f565b5492956001600160a01b039093169261071c9150612ff6565b9361069b565b848661073c8560646107366006543461304b565b0461301b565b8061088f575b5060018060a01b036001541661076960079160646107626007543461304b565b0490613708565b610780606461077a6008543461304b565b0461454f565b61079c60018060a01b036003541660646107626009543461304b565b6107b860018060a01b03600254166064610762600a543461304b565b336000908152600e6020526040812054909234151592916001600160a01b03165b6001600160a01b031680151580610885575b1561083257600052600e6020526108178360406000209061081d575b546001600160a01b031694612ff6565b936107d9565b83810161082b348254613028565b9055610807565b858261083d33613626565b546040519034825260208201527f2a91574e12ad96234e84923e146b0946ecfb871cd8d5534dc1fdcbe87a7c01b360403392a260016000805160206149088339815191525580f35b50601e85106107eb565b61089b90601d54613028565b601d5582610742565b5060148710610628565b50600f8410610622565b634e487b7160e01b84526011600452602484fd5b6040519283528460208401526002604084015260608301526000805160206147a883398151915260803393a33880806105db565b505061091e60018060a01b036001541660646107626005543461304b565b6105df565b5080845260ff6005604086200154166105b7565b34905538610574565b553880610568565b600182018054806109a5575061095f601a54612ff6565b80601a55835534905542600283015560ff198154169055338252600e60205281600360408220015561099034613035565b338352600e6020526004604084200155610547565b6109b29192503490613028565b9055338252600e60205260ff6005604084200154166109f6575b6109d534613035565b338352600e6020526109ef60046040852001918254613028565b9055610547565b4260028201556109cc565b60405163162908e360e11b8152600490fd5b50683635c9adc5dea0000034146104d8565b50681b1ae4d6e2ef50000034146104d1565b50681043561a882930000034146104ca565b60405163ab35696f60e01b8152600490fd5b503461046057602036600319011261046057610a756134d1565b600435600b5580f35b50346104605780600319360112610460576020600854604051908152f35b50346104605780600319360112610460576020601c54604051908152f35b50346104605780600319360112610460576020600b54604051908152f35b50346104605780600319360112610460576004546040516001600160a01b039091168152602090f35b5034610460576020366003190112610460576040610b2060043561353a565b82519182526020820152f35b503461046057604036600319011261046057610b46612e2c565b610b4e6134d1565b6001600160a01b0316801561044e578152600e602052602435600160408320015580f35b50346104605780600319360112610460576020600754604051908152f35b503461046057608036600319011261046057610baa612e2c565b60243590610bb6612e58565b9060643592610bc36134d1565b80610c5f575b505081610bd4578280f35b81602091610be7610c129460195461301b565b60195560018060a01b03855416908560405180968195829463a9059cbb60e01b845260048401612f7c565b03925af18015610c5457610c2557808280f35b610c469060203d602011610c4d575b610c3e8183612f0c565b810190613278565b5038808280f35b503d610c34565b6040513d84823e3d90fd5b804710610c8557610c7e91610c768260185461301b565b601855613708565b3880610bc9565b60405163dbc3a71f60e01b8152600490fd5b5034610460578060031936011261046057602060ff60175460081c166040519015158152f35b50346104605760209081600319360112610460576001600160a01b03919082610ce4612e2c565b168152601182526040812090604051808484549182815201908194845285842090845b818110610d565750505081610d1d910382612f0c565b6040519380850191818652518092526040850193925b828110610d405785850386f35b8351871685529381019392810192600101610d33565b8254891684529287019260019283019201610d07565b50346104605760c0366003190112610460577f66682b276e4cd1a4e1f68b55b1143766c5332f472eb593cf2a70a25d9d5d991760c060043560a435608435606435604435602435610dbb6134d1565b856005558060065581600755826008558360095584600a55604051958652602086015260408501526060840152608083015260a0820152a180f35b50346104605780600319360112610460576020600954604051908152f35b503461046057606036600319011261046057610e2e612e2c565b610e36612e42565b90610e3f6134d1565b82546001600160a01b0391821691908116821461044e5782161561044e57610e85602091849360405194858094819363a9059cbb60e01b83526044359060048401612f7c565b03925af18015610c5457610e97575080f35b610eaf9060203d602011610c4d57610c3e8183612f0c565b5080f35b50346104605780600319360112610460576020600554604051908152f35b503461046057602036600319011261046057602090600435815260148252604060018060a01b0391205416604051908152f35b5034610460578060031936011261046057610f1d6135e9565b60ff8060175460081c16156111f45733825260209160108352604081209281828391845b87548110156110bd57866004610f57838b612f97565b50015416156110b5576002610f6c828a612f97565b5001546003610f7b838b612f97565b5001549062015180918281029281840414901517156110a1578991610f9f91613028565b421015610fb2575b506001905b01610f41565b9381929361104a91610ff26005610fe886610fe2610fdb610fd560019a8e612f97565b50613740565b8096613028565b9a612f97565b5001918254613028565b9055338852600e875260096040892001548015611090575b611019606491600b549061304b565b0483611025868d612f97565b5001548181111561107d579061103e816110449361301b565b92613028565b94613028565b916004611057828b612f97565b5001805460ff1916905561107561106e828b612f97565b5054613838565b905087610fa7565b905061108891613028565b938790613028565b50600f87526040882083015461100a565b634e487b7160e01b88526011600452602488fd5b600190610fac565b5090929181159081806111ec575b6111da5784600e956111c5575b508061113c575b501561112c575b506110f033613626565b338352526040812060046003820154910154111561111e575b60016000805160206149088339815191525580f35b61112733613963565b611109565b6111369033613708565b836110e6565b33865284845261115960408720600360048201549101549061301b565b80821161119f575b5080156110df576111999033875285855260036040882001611184828254613028565b9055338752600f855260408720549033613bde565b856110df565b90604051908152818582015260008051602061486883398151915260403392a286611161565b6111d190601854613028565b601855866110d8565b6040516304c4857b60e51b8152600490fd5b5080156110cb565b6040516282b42960e81b8152600490fd5b50346104605780600319360112610460576020600654604051908152f35b50346104605780600319360112610460576020601d54604051908152f35b50346104605760403660031901126104605761125b612e2c565b6001600160a01b03168152601060205260408120805460243592908310156104605760c06112898484612f97565b508054906001810154906002810154600382015490600560ff600485015416930154936040519586526020860152604085015260608401521515608083015260a0820152f35b5034610460578060031936011261046057602060ff601754166040519015158152f35b503461046057806003193601126104605760405161130f81612ec8565b60058152602091640352e302e360dc1b602083015260405192839160208352835191826020850152815b83811061135a57505060408094508284010152601f80199101168101030190f35b808601820151878201604001528694508101611339565b50346104605761138036612f4a565b90825260136020526040822080548210156113c55761139f9250612f60565b5080546001909101546040519182916113c1916001600160a01b031683612f7c565b0390f35b8280fd5b5034610460578060031936011261046057602060405160018152f35b50346104605760403660031901126104605761048d611402612e2c565b61140a612e42565b906114136134d1565b6132d2565b5034610460576020366003190112610460576114326134d1565b60043560165580f35b503461046057604036600319011261046057611455612e2c565b602435906114616134d1565b814710610c8557602081611496847f288155da11d775f8595652c04f862708561d601d9fd3f04f7aed5f8311296e2494613708565b6040519384526001600160a01b031692a280f35b50346104605780600319360112610460576020600d54604051908152f35b5034610460577f4e9dd03193a0c81552fb8e6d32280f0d7e0ce8087241dc3d17ef3d193ee231d760406114fa36612f4a565b6115026134d1565b81600c5580600d5582519182526020820152a180f35b50346104605780600319360112610460576000805160206147e8833981519152546040516001600160a01b039091168152602090f35b5034610460578060031936011261046057602060405160038152f35b50346104605780600319360112610460576003546040516001600160a01b039091168152602090f35b5034610460578060031936011261046057602060405160048152f35b5034610460576020366003190112610460576080906040906001600160a01b036115d7612e2c565b168152600f6020522080549060018101549060ff6003600283015492015416916040519384526020840152604083015215156060820152f35b5080600319360112610460576116246135e9565b60ff601e5416610a49573415610a0157601854683635c9adc5dea0000080821090811561186e575b506118075760195490611672611662833461304b565b61166c3484613028565b906132b2565b612710803402903482040361185a5761168e836103e8926132b2565b11610a015760646116a1600c548361304b565b04916116ad838361301b565b85546040516370a0823160e01b815230600482015291956020946001600160a01b03949193928516928681602481875afa801561184f5782918b91611819575b501061180757889361170361170b933490613028565b60185561301b565b601955803b1561180357818091602460405180948193630852cd8d60e31b83528a60048401525af18015610c54576117eb575b5054169181604051809463a9059cbb60e01b82528188816117638a3360048401612f7c565b03925af19182156117e0577f36864aeefce16bc4aaceeb6b0cdfb2ad1455a8cb4ccb0db148a2bc6e7166f97c936117aa936117c2575b505060405191829133953484612eb2565b0390a260016000805160206149088339815191525580f35b816117d892903d10610c4d57610c3e8183612f0c565b503880611799565b6040513d87823e3d90fd5b6117f490612ef9565b6117ff57843861173e565b8480fd5b5080fd5b6040516343c7ad8160e11b8152600490fd5b809250888092503d8311611848575b6118328183612f0c565b8101031261184357819051386116ed565b600080fd5b503d611828565b6040513d8c823e3d90fd5b634e487b7160e01b85526011600452602485fd5b9050601954103861164c565b503461046057608036600319011261046057611894612e2c565b61189c612e42565b906118a5612e58565b916118ae612e6e565b906118b76134d1565b6001600160a01b039283169384158015611928575b801561191e575b8015611914575b61044e5783809260018060a01b03199687600154161760015516856002541617600255168360035416176003551690600454161760045580f35b50838316156118da565b50838116156118d3565b50838216156118cc565b5034610460578060031936011261046057601c546201518081018091116119fb574210611a0f576019548015610a01578080046001036119fb5760648104908115610a0157816119819161301b565b601955815482906001600160a01b0316803b1561180357818091602460405180948193630852cd8d60e31b83528860048401525af18015610c54576119e7575b506000805160206148a883398151915260408342601c558151908482526020820152a180f35b6119f090612ef9565b6118035781386119c1565b634e487b7160e01b82526011600452602482fd5b604051636f47a98b60e11b8152600490fd5b503461046057611a3036612f4a565b90825260126020526040822080548210156113c55761139f9250612f60565b50346104605780600319360112610460576020601854604051908152f35b50346104605780600319360112610460576001546040516001600160a01b039091168152602090f35b50346104605780600319360112610460576020601b54604051908152f35b5034610460578060031936011261046057611acd6134d1565b6000805160206147e883398151915280546001600160a01b031981169091556000906001600160a01b03166000805160206148c88339815191528280a380f35b50346104605780600319360112610460576020601654604051908152f35b50346104605780600319360112610460576020601a54604051908152f35b50346104605780600319360112610460577f00000000000000000000000000000000000000000000000000000000000000006001600160a01b03163003611ba25760206040516000805160206148488339815191528152f35b60405163703e46dd60e11b8152600490fd5b503461046057602036600319011261046057600435611bd16135e9565b60ff601e5416610a49578015610a0157683635c9adc5dea000008060185410908115611d83575b506118075781546040516323b872dd60e01b81526001600160a01b039160209082908416818781611c2e89303360048501613290565b03925af18015611d7857611d59575b506064611c4c600d548461304b565b04611c57818461301b565b91612710808402908482041484151715611d4557611c7b6103e891601954906132b2565b11610a01578490815416803b15611803578190602460405180948193630852cd8d60e31b83528760048401525af180156117e057611d32575b5060185491611cc3838261304b565b611cd46019549161166c8484613028565b91824710611807577f223c8ad0806f634524940a8595f819c5cfc7b1f4f4f45791269301df0a7e61d594611d0c8492611d1494613028565b60195561301b565b601855611d218133613708565b6117aa604051928392339684612eb2565b611d3e90949194612ef9565b9238611cb4565b634e487b7160e01b86526011600452602486fd5b611d719060203d602011610c4d57610c3e8183612f0c565b5038611c3d565b6040513d86823e3d90fd5b90506019541038611bf8565b50602036600319011261046057600435611da76134d1565b34611e6a575b80611dd4575b6040600080516020614788833981519152918151903482526020820152a180f35b81546040516323b872dd60e01b8152919060209083906001600160a01b0316818681611e0587303360048501613290565b03925af1908115611e5f5760008051602061478883398151915292604092611e40575b50611e3581601954613028565b601955915050611db3565b611e589060203d602011610c4d57610c3e8183612f0c565b5038611e28565b6040513d85823e3d90fd5b611e7634601854613028565b601855611dad565b5034610460578060031936011261046057611e976134d1565b600160ff19601e541617601e557f4cb3183d0bf66f9634b15cfc3539fdddc96c2c9324848af89b56586a6739fec48180a180f35b50604036600319011261046057611ee0612e2c565b60249182356001600160401b038111611803573660238201121561180357806004013592611f0d84612f2f565b611f1a6040519182612f0c565b84815260209485820193368883830101116120af57818692898993018737830101526001600160a01b037f000000000000000000000000000000000000000000000000000000000000000081163081149081156120ba575b50611ba257611f7f6134d1565b6040516352d1902d60e01b81529083169580826004818a5afa9182918793612086575b5050611fc057604051634c9c8ce360e01b8152600481018790528790fd5b859087600080516020614848833981519152918281036120715750843b1561205b575080546001600160a01b031916821790556040518592917fbc7cd75a20ee27fd9adebab32041f755214dbc6bffa90cc0225b39da2e5c2d3b8480a281511561203e5750610eaf9382915190845af46120386136d8565b91614724565b93505050503461204c575080f35b63b398979f60e01b8152600490fd5b604051634c9c8ce360e01b815260048101849052fd5b60405190632a87526960e21b82526004820152fd5b9080929350813d83116120b3575b61209e8183612f0c565b810103126120af5751903880611fa2565b8580fd5b503d612094565b9050816000805160206148488339815191525416141538611f72565b50346104605780600319360112610460576120ef6134d1565b60ff19601e5416601e557f15de7ad89d29fd1c6d2e6b1e878453569b4080edf34e0105faaa3bd52f0185308180a180f35b50346104605780600319360112610460576020604051620151808152f35b50346104605780600319360112610460576002546040516001600160a01b039091168152602090f35b503461046057602036600319011261046057602090600435815260158252604060018060a01b0391205416604051908152f35b50346104605780600319360112610460576121b36135e9565b61110961305e565b506020366003190112610460576121d06135e9565b60ff601e5416610a4957338152600f6020526040812060018101549081156126f4576003015460ff166126e25760076004351480156126d6575b80156126ca575b156126b8573415610a0157338252600e602052600a604083200180549182156126ab575b50506096810290808204609614901517156119fb57606490043403610a015761225f601b54612ff6565b601b8190553382526010602052604080832090519160c083016001600160401b038111848210176126975760405282523460208301524260408301526004356060830152600160808301528260a0830152805490600160401b82101561268357906122cf91600182018155612f97565b91909161266f5760a08160059251845560208101516001850155604081015160028501556060810151600385015561231c60808201511515600486019060ff801983541691151516179055565b0151910155601b54815260156020526040812080546001600160a01b0319163390811790915561234b90613626565b601b54906040517fa8a1b9e33e503eed12bf7e7c8c01c7f3b60217a496bddd0f5db351dd8c056c1c339180612384866004353484612eb2565b0390a2338152600e6020526040812054819081906001600160a01b03165b6001600160a01b038116151580612665575b1561265b576001600160a01b0381168452600e60205260408420600581015460ff161561264657506001600160a01b0381168452600f602052604084206001810154908115908115612637575b50612612576001600160a01b0382168552600e60205260408520600201546124289061353a565b91905084821161250a575b50602d1115612467576001600160a01b039081168452600e6020526040842054169061245e90612ff6565b915b91906123a2565b50505090505b338152600e60205260066040822001818154918261249c575b5060016000805160206149088339815191525580f35b556018548181101580612500575b6124b6575b8290612486565b816124c09161301b565b6018556124cd8133613708565b6040519081527f3437b9ea7fa19c6d233dd70cc787a70fab87cee64d8ba4571512cc84402748f960203392a238806124af565b50814710156124aa565b61252c9061251b839660649461301b565b90349080341161260a575b5061304b565b048585526013602052604085206040519061254682612ec8565b6001600160a01b038416825260208201839052805490600160401b8210156125f6579061257891600182018155612f60565b9190916125e257805182546001600160a01b0319166001600160a01b03918216178355602091820151600193909301929092556040519283529083169187917f7c6505ab8279235ad21ebf427336cc8d97c017b4aa1f10ffdff11d3261e4934e91a382602d612433565b634e487b7160e01b87526004879052602487fd5b634e487b7160e01b88526041600452602488fd5b905038612526565b5050600e60205260408320546001600160a01b03169061263190612ff6565b91612460565b60ff9150600301541638612401565b546001600160a01b0316916126319150612ff6565b505050905061246d565b50601482106123b4565b634e487b7160e01b83526004839052602483fd5b634e487b7160e01b84526041600452602484fd5b634e487b7160e01b85526041600452602485fd5b8091925091553880612235565b604051634dc7f5ff60e11b8152600490fd5b50601e60043514612211565b50600f6004351461220a565b604051631ecb2c4f60e31b8152600490fd5b604051634065aaf160e11b8152600490fd5b50346104605780600319360112610460576020600c54604051908152f35b5034610460578060031936011261046057602060ff601e54166040519015158152f35b5034610460578060031936011261046057601e5460405160089190911c6001600160a01b03168152602090f35b5034610460576020366003190112610460576113c1906002906040906001600160a01b036127a0612e2c565b168152600e6020522001546127b48161353a565b92909160405193849384612eb2565b50346104605780600319360112610460576020601954604051908152f35b503461046057602036600319011261046057610160906001600160a01b03906040908261280c612e2c565b168152600e60205220908154169060018101549060028101546003820154600483015460ff600585015416600685015491600786015493600887015495600a6009890154980154986040519a8b5260208b015260408a015260608901526080880152151560a087015260c086015260e0850152610100840152610120830152610140820152f35b50346104605760203660031901126104605760206128b260043561350a565b604051908152f35b5034610460578060031936011261046057546040516001600160a01b039091168152602090f35b50346104605760a0366003190112610460576128fb612e2c565b612903612e42565b9061290c612e58565b612914612e6e565b916084356001600160a01b038181169291839003612ad7576000805160206149288339815191529485549660ff8860401c16159560018060401b03891698891580612ad0575b6001809b149081612ac6575b159081612abd575b50612aab576001600160401b031981168a1789558492839189612a90575b50612995613f8b565b61299d613f8b565b6129a63361346f565b6129ae613f8b565b6129b6613f8b565b6129be613f8b565b8a600080516020614908833981519152558160018060a01b03199716878d5416178c5516858a5416178955168360025416176002551681600354161760035560045416176004556019600555600f6006556005600755600560085560196009556019600a5582600b556032600c556019600d556203f48060165561010161ffff19601754161760175542601c55612a53578280f35b805460ff60401b191690556040519081527fc7f505b2f371ae2175ee4913f4499e1f2633a7b5936321eed1cdaeb6115181d290602090a138808280f35b6001600160481b0319166001600160401b01178a553861298c565b60405163f92ee8a960e01b8152600490fd5b9050153861296e565b303b159150612966565b508761295a565b8680fd5b5034610460578060031936011261046057602090604051908152f35b5034610460578060031936011261046057602060405160028152f35b503461046057604036600319011261046057612b2d612e2c565b6001600160a01b039081168252601160205260408220805460243593908410156104605750602092612b5e91612e84565b9190546040519260031b1c168152f35b50346104605760208060031936011261180357612b89612e2c565b338352600e808352604084205490926001600160a01b039290918316612d07578216338114612cf557801561044e5733808652600e8352604080872080546001600160a01b0319168417905582875260118085529087209091612beb91612fb3565b338652600e835283604087205416948487965b1680151580612ceb575b15612cc15780885281855260408820906002820180546001810191828211612cad579282612c5c8b96938360008051602061482883398151915260408e8b99612c7c9b5586825191868352820152a261353a565b50612c668261353a565b5090808203612c82575b50505050541697612ff6565b96612bfe565b612ca16000805160206148088339815191529360405193849384612eb2565b0390a238808080612c70565b634e487b7160e01b8c52600487905260248cfd5b8784337fa6dbb5aa28f35437de94d685d66edce5fb4812196b4984b91dfd5a7b38c0fb308380a380f35b50601e8710612c08565b604051631acade8960e31b8152600490fd5b60405163682a906560e01b8152600490fd5b50346104605780600319360112610460576020600a54604051908152f35b503461046057604036600319011261046057600435801515809103611803576024358015158091036113c557612d6b6134d1565b60ff61ff006017549260081b1692169061ffff1916171760175580f35b503461046057602036600319011261046057612da2612e2c565b612daa6134d1565b6001600160a01b03908116908115612df55782546001600160a01b0319811683178455167f0b499b1332f638ab70789e63adf87bde04c1d0254ee488465c256f2e5d0f488d8380a380f35b60405162461bcd60e51b815260206004820152600f60248201526e496e76616c6964206164647265737360881b6044820152606490fd5b600435906001600160a01b038216820361184357565b602435906001600160a01b038216820361184357565b604435906001600160a01b038216820361184357565b606435906001600160a01b038216820361184357565b8054821015612e9c5760005260206000200190600090565b634e487b7160e01b600052603260045260246000fd5b6040919493926060820195825260208201520152565b604081019081106001600160401b03821117612ee357604052565b634e487b7160e01b600052604160045260246000fd5b6001600160401b038111612ee357604052565b601f909101601f19168101906001600160401b03821190821017612ee357604052565b6001600160401b038111612ee357601f01601f191660200190565b6040906003190112611843576004359060243590565b8054821015612e9c5760005260206000209060011b0190600090565b6001600160a01b039091168152602081019190915260400190565b8054821015612e9c576000526006602060002091020190600090565b80549190600160401b831015612ee35782612fd6916001612ff495018155612e84565b90919060018060a01b038084549260031b9316831b921b1916179055565b565b60001981146130055760010190565b634e487b7160e01b600052601160045260246000fd5b9190820391821161300557565b9190820180921161300557565b9060038202918083046003149015171561300557565b8181029291811591840414171561300557565b6000338152602090600f825260409182822090600191600181015415801561326a575b613259573384526010825284842084939084825b613158575b505050821561314757338452600e82526130ba8360038787200154613028565b338552600e8352858520600481015480921161312f575b5050821561312157600e92613101913386528484526003878720016130f7838254613028565b9055549033613bde565b338352522060046003820154910154111561311857565b612ff433613963565b5050505050612ff433613963565b61313f929450600301549061301b565b9138806130d1565b8451630fec21fd60e21b8152600490fd5b81548110156132545761316b8183612f97565b508360ff600480930154161561324a5750613189610fd58385612f97565b908161319f575b5050908280925b019091613095565b9096876131ab91613028565b966131bb6005610fe88587612f97565b905560026131c98385612f97565b50015460036131d88486612f97565b5001549062015180918281029281840414901517156132375791613200869594928694613028565b421015613210575b509192613190565b61321a8285612f97565b5001805460ff1916905561323161106e8285612f97565b38613208565b634e487b7160e01b8a526011835260248afd5b9291839150613197565b61309a565b8451634065aaf160e11b8152600490fd5b5060ff600382015416613081565b90816020910312611843575180151581036118435790565b6001600160a01b03918216815291166020820152604081019190915260600190565b81156132bc570490565b634e487b7160e01b600052601260045260246000fd5b906001600160a01b038083169182158015613465575b61044e57811691828114612cf5576000818152600e60205260408120928354938185169486861461345b576001600160a01b0319168617905583613353575b5061334f84956000805160206148888339815191529394958352601160205260408320612fb3565b80a4565b94838252601195601160205260408320835b81548082101561343a5783908761337c8486612e84565b939054600394851b1c1614613395575050600101613365565b60009a929195969798999a9493941992838201918211613428575090612fd6846133c26133d09488612e84565b905490891b1c169186612e84565b8254801561341457916000805160206148888339815191529695939161334f959301926133fd8484612e84565b81939154921b1b19169055555b9594939250613327565b634e487b7160e01b87526031600452602487fd5b634e487b7160e01b8952600452602488fd5b50505050600080516020614888833981519152929394955061334f9061340a565b5050505050505050565b50818116156132e8565b6001600160a01b039081169081156134b8576000805160206147e883398151915280546001600160a01b031981168417909155166000805160206148c8833981519152600080a3565b604051631e4fbdf760e01b815260006004820152602490fd5b6000805160206147e8833981519152546001600160a01b031633036134f257565b60405163118cdaa760e01b8152336004820152602490fd5b600381101561353457600281101561352e576001111561352957600090565b600590565b50600a90565b50600f90565b620186a08110156135e0576175308110156135d7576127108110156135ce57610bb88110156135c5576103e88110156135bc5761012c8110156135b35760648110156135aa57601e8110156135a157600a111561359957600090600090565b600190600590565b50600290600a90565b50600390600f90565b50600490601490565b50600590601990565b50600690601e90565b50600790602390565b50600890602890565b50600990602d90565b60008051602061490883398151915260028154146136075760029055565b604051633ee5aeb560e01b8152600490fd5b8015613005576000190190565b60018060a01b0380600092168252600f60205260408220906001820154151591826136c8575b50600e602052604083206005810160ff8154161515841515146136c157805460ff191660ff8515151617905554169182156136bc57600192604092156136a3578152600e602052200161369f8154612ff6565b9055565b815220018054806136b3575b5050565b61369f90613619565b505050565b5050505050565b6003015460ff161591503861364c565b3d15613703573d906136e982612f2f565b916136f76040519384612f0c565b82523d6000602084013e565b606090565b81156136af57814710610c8557600080809381935af16137266136d8565b501561372e57565b604051633d2cec6f60e21b8152600490fd5b600381015461374e816146fe565b906201518061376160028501544261301b565b04908082116137b6575b5080156137ae57613790633b9aca009161378b600594600187015461304b565b61304b565b049101548082116137a2575050600090565b6137ab9161301b565b90565b505050600090565b90503861376b565b8051821015612e9c5760209160051b010190565b805490600090818155826137e557505050565b6001906001600160ff1b0384168403613824578252602082209260011b8301925b8381106138135750505050565b808360029255838382015501613806565b634e487b7160e01b83526011600452602483fd5b600090808252602090601382526040916040842094855460018060401b03811161394f576040519661386f848360051b0189612f0c565b8188528652828620869084808a015b84841061391b575050505050845b86518110156139035760019087857fae629b396150638d6eb6de457cbffe5d618a10c8cc199a94976bed2b16ecd993866001600160a01b036138f3866138ed836138d6838a6137be565b515116856138e4848b6137be565b510151906141e8565b966137be565b515116938a51908152a30161388c565b50945060409250601390612ff49492835252206137d2565b6001916002918a5161392c81612ec8565b848060a01b0386541681528486015483820152815201920192019190859061387e565b634e487b7160e01b86526041600452602486fd5b60018060a01b03808216916000838152602092600f8452604092838320926003840190815460ff9460ff8216156139a1575b50505050505050505050565b600160ff199283168117909455601089528783208a9693958695948694939285875b613aec575b5050509886937ff3a670cd3af7d64b488926880889d08a8585a138ff455227af6737339a1ec2629693829a9998937f920bb94eb3842a728db98228c375ff6b00c5bc5a54fac6736155517a0a20a61a9d9c85859996151580613ae2575b613ad2575b505085613ab3575b898352600e8d52838320600581018054938416905554169060ff1680613aaa575b80613a99575b613a80575b5050519283525087820152a2549051908152a238808080808080808080613995565b81522001613a8e8154613619565b905538838180613a5e565b508082528383832001541515613a59565b50801515613a53565b898352600e8d52600684842001613acb878254613028565b9055613a32565b613adb91613708565b3887613a2a565b5080471015613a25565b9091929394959697998254821015613bd25750613b098183612f97565b5098836004809b01541615613bc55788613b238385612f97565b500154808a1b9080820460021490151715613bb25791613b838a9594939261012c613b528895600b549061304b565b049084613b5f8588612f97565b500154828110613ba65790613b7783613b7d9361301b565b90613028565b9d613028565b9a613b8e8285612f97565b50018881541690555b018e9a999897969594936139c3565b8c9250613b7d91613028565b634e487b7160e01b895260118b52602489fd5b9998509087809392613b97565b999796959493926139c8565b9092918360011c906000918047101580613dc0575b613dae575b613c006144cd565b670de0b6b3a76400009182810292818404149015171561300557613c23916132b2565b60008054604080516370a0823160e01b8152306004820152989096929360209391926001600160a01b039291908316858c602481845afa9b8c15613da457879c613d75575b50818a9b9c9a98999a101580613d6c575b613ccc575b5050926000805160206147c88339815191529795926000805160206148e88339815191526080989693600096169a8b9281519081528785820152a282519586528501528301526060820152a2565b94818792949596848399613cf5969b5180978195829463a9059cbb60e01b845260048401612f7c565b03925af1908115613d615750936000805160206148e88339815191528a946000805160206147c88339815191529a989460809a9894600098613d44575b50979950939295508194979950613c7e565b613d5a90863d8811610c4d57610c3e8183612f0c565b5038613d32565b8a51903d90823e3d90fd5b50811515613c79565b9b50858c813d8311613d9d575b613d8c8183612f0c565b81010312612ad7579a519a81613c68565b503d613d82565b8a513d89823e3d90fd5b9150613dba8284613708565b81613bf8565b50801515613bf3565b6001600160a01b039081166000818152600f60209081526040808320600181810180549697909693959094929184158015613f7d575b613f3257601084528682208054839291835b828110613f3d575050505061345b576002820196613e33885460165490613028565b421115613f3257600383837f57025f0027038907eda728b59164fb63d06048f42e618a35267e6a12e49b2e469a8a9654998d8352600e895260ff6005898520928354169201541680613f29575b80613f17575b613efd575b508c8252600e88528187812095816004600589019860ff19998a81541690558289820155015581855555550190815416905584613ece575b5051928352820152a2565b84815260128352613ee08282206137d2565b848152601483522080546001600160a01b03191690558338613ec3565b8252600187832001613f0f8154613619565b905538613e8b565b50808352600188842001541515613e86565b50801515613e80565b505050505050505050565b60ff6004613f4b8385612f97565b50015416613f5b575b8301613e11565b93613f75849182613f6c8886612f97565b50015490613028565b949050613f54565b5060ff600384015416613dff565b60ff6000805160206149288339815191525460401c1615613fa857565b604051631afcd79f60e31b8152600490fd5b60018060a01b0381166000818152600e60205260409182822092600f60205280832060ff600586015416159081156140e4575b81156140d7575b506140ce576004840193600385549101936140118554809361301b565b888181116140a5575b5050871561409a57874710614073575090614044876000805160206148e883398151915293613028565b84556140508787613708565b805187815260026020820152a2549054111561406a575090565b6137ab90613963565b9692955050600080516020614868833981519152935080925051908152846020820152a290565b965050505050505090565b819950846000805160206148688339815191529187939b82519182526020820152a2388061401a565b50509250505090565b6001915001541538613ff4565b600381015460ff169150613fed565b60018060a01b0381166000818152600e60205260409182822092600f60205280832060ff600586015416159081156141d9575b81156141cc575b506140ce5760048401936003855491019361414a8554809361301b565b888181116141a3575b5050871561409a5787471061407357509061417d876000805160206148e883398151915293613028565b84556141898787613708565b805187815260036020820152a2549054111561406a575090565b819950846000805160206148688339815191529187939b82519182526020820152a23880614153565b600191500154153861412d565b600381015460ff169150614126565b60018060a01b0380821690600093828552602092600e8452604080872093600f865281882060ff600587015416159081156144be575b81156144b1575b5061447f5761423f6004956003878201549101549061301b565b84818111614489575b5050831561447f57828852600e86528188209360011c916142676144cd565b91670de0b6b3a7640000908185029a85159b86810484148d171561446c578561428f916132b2565b918196829d1580614462575b61444e575b50821515806143da575b614367575b5050506142c7906142c0848c61304b565b0484613028565b98896142da575b50505050505050505090565b60038601978a8954906142ec91613028565b8099558583518c8152848a848301526000805160206148e883398151915291a2825194855284015282015242606082015260807fe83062c7bae5146a0afc41b3a8342f225ed2581a8e234e0ba69d9ff8c53a48d691a201541115614358575b80808080808080806142ce565b61436190613963565b3861434b565b8261439193949d508b918354168d848d89519788958694859363a9059cbb60e01b85528401612f7c565b03925af19081156143cf5750906142c792916143b2575b50999038806142af565b6143c8908a3d8c11610c4d57610c3e8183612f0c565b50386143a8565b8451903d90823e3d90fd5b50808254168b8b60248851809481936370a0823160e01b835230908301525afa908115614444579084918491614413575b5010156142aa565b8092508d8092503d831161443d575b61442c8183612f0c565b810103126113c5578390513861440b565b503d614422565b86513d85823e3d90fd5b90965061445b818d613708565b95386142a0565b508047101561429b565b634e487b7160e01b825260118a52602482fd5b5050505050505090565b819550836000805160206148688339815191529186939782519182528a820152a23880614248565b6001915001541538614225565b600381015460ff16915061421e565b6019548015801561453b575b61452e5760185490670de0b6b3a76400009182810292818404149015171561300557614504916132b2565b67016345785d8a00008082106145295750678ac7230489e80000808211614529575090565b905090565b50670de0b6b3a764000090565b50683635c9adc5dea00000601854106144d9565b9081156146fa57601854683635c9adc5dea000008082109081156146ee575b506146e9574761457e8483613028565b116146e957612710830261270f1984820401613005576145a1826103e8926132b2565b116146e957601954926145c16145b7858361304b565b61166c8385613028565b801580156146e0575b6146d95760009460018060a01b038654169060409485516370a0823160e01b8152306004820152602081602481875afa9081156146cf579083918a91614696575b501061468c57838893926117038761462294613028565b601955803b156118035781906024865180948193630852cd8d60e31b83528760048401525af18015614682576000805160206148a8833981519152959650614673575b5082519182526020820152a1565b61467c90612ef9565b38614665565b84513d88823e3d90fd5b5050505050509050565b9150506020813d6020116146c7575b816146b260209383612f0c565b810103126146c3578290513861460b565b8880fd5b3d91506146a5565b87513d8b823e3d90fd5b5050509050565b508481116145ca565b509050565b9050601954103861456e565b9050565b6007811461471c57600f14614715576301312d0090565b62fe502b90565b5062cb735690565b9061474b575080511561473957602081519101fd5b60405163d6bda27560e01b8152600490fd5b8151158061477e575b61475c575090565b604051639996b31560e01b81526001600160a01b039091166004820152602490fd5b50803b1561475456fe38f8a0c92f4c5b0b6877f878cb4c0c8d348a47b76d716c8e78f425043df9515b62c4ea4229c396c9b5c33779ec09ed411b29ed8782e48ac358eaa9e8aa58a9b06fcebd0a2ce98b28cb391d6008bbc769378c9a4919628e11639cb575cd320fcc9016d09d72d40fdae2fd8ceac6b6234c7706214fd39c1cd1e609a0528c199300ea8384d3ca7bf5b7510d3faee44a3774406c1fd3ac14fff110a8c98d47a25956a0eea20e678cb42233c1c456c84cedce7ea53fa360bb71bf3b761b7609567770360894a13ba1a3210667c828492db98dca3e2076cc3735a920a3ca505d382bbcb5987aab1afd379f6695f1068869ee8ca6a0d02304c57935a9cc3d3ea2e51e4df8b9fe4d008320e6f048c61e41e9cc56ce351354ad0cb9a868bd3c4bd6928fd50ec3929061cbbbeecb325623e7d5a86c3dae11cb8a22ca45dc0972955657da258be0079c531659141344cd1fd0a4f28419497f9722a3daafe3b4186f6b6457e0f381583145e90b82cc5e529bf4fc4d0e44397174cdf145c4251ac33ef195a4249b779b17422d0df92223018b32b4d1fa46e071723d6817e2486d003becc55f00f0c57e16840df040f15088dc2f81fe391c3923bec73e23a9662efc9c229c6a00a26469706673582212207fc3264cf92ac15d9bcfaf5b075e522a3f4b7f12cbc76dea94498a73b8b157ae64736f6c63430008160033",
  "linkReferences": {},
  "deployedLinkReferences": {}
}