{
  "_format": "hh-sol-artifact-1",
  "contractName": "JinbaoProtocolV4",
  "sourceName": "contracts/JinbaoProtocolV4.sol",
  "abi": [
    {
      "inputs": [],
      "stateMutability": "nonpayable",
      "type": "constructor"
    },
    {
      "inputs": [],
      "name": "ActionTooEarly",
      "type": "error"
    },
    {
      "inputs": [
        {
          "internalType": "address",
          "name": "target",
          "type": "address"
        }
      ],
      "name": "AddressEmptyCode",
      "type": "error"
    },
    {
      "inputs": [],
      "name": "AlreadyBound",
      "type": "error"
    },
    {
      "inputs": [],
      "name": "AlreadyExited",
      "type": "error"
    },
    {
      "inputs": [],
      "name": "ContractPaused",
      "type": "error"
    },
    {
      "inputs": [
        {
          "internalType": "address",
          "name": "implementation",
          "type": "address"
        }
      ],
      "name": "ERC1967InvalidImplementation",
      "type": "error"
    },
    {
      "inputs": [],
      "name": "ERC1967NonPayable",
      "type": "error"
    },
    {
      "inputs": [],
      "name": "FailedCall",
      "type": "error"
    },
    {
      "inputs": [],
      "name": "InsufficientBalance",
      "type": "error"
    },
    {
      "inputs": [],
      "name": "InsufficientNativeBalance",
      "type": "error"
    },
    {
      "inputs": [],
      "name": "InvalidAddress",
      "type": "error"
    },
    {
      "inputs": [],
      "name": "InvalidAmount",
      "type": "error"
    },
    {
      "inputs": [],
      "name": "InvalidCycle",
      "type": "error"
    },
    {
      "inputs": [],
      "name": "InvalidInitialization",
      "type": "error"
    },
    {
      "inputs": [],
      "name": "LowLiquidity",
      "type": "error"
    },
    {
      "inputs": [],
      "name": "NativeTransferFailed",
      "type": "error"
    },
    {
      "inputs": [],
      "name": "NoRewards",
      "type": "error"
    },
    {
      "inputs": [],
      "name": "NotActive",
      "type": "error"
    },
    {
      "inputs": [],
      "name": "NotInitializing",
      "type": "error"
    },
    {
      "inputs": [],
      "name": "NothingToRedeem",
      "type": "error"
    },
    {
      "inputs": [
        {
          "internalType": "address",
          "name": "owner",
          "type": "address"
        }
      ],
      "name": "OwnableInvalidOwner",
      "type": "error"
    },
    {
      "inputs": [
        {
          "internalType": "address",
          "name": "account",
          "type": "address"
        }
      ],
      "name": "OwnableUnauthorizedAccount",
      "type": "error"
    },
    {
      "inputs": [],
      "name": "ReentrancyGuardReentrantCall",
      "type": "error"
    },
    {
      "inputs": [],
      "name": "SelfReference",
      "type": "error"
    },
    {
      "inputs": [
        {
          "internalType": "string",
          "name": "reason",
          "type": "string"
        }
      ],
      "name": "TransferFromFailed",
      "type": "error"
    },
    {
      "inputs": [],
      "name": "TransferFromFailedLowLevel",
      "type": "error"
    },
    {
      "inputs": [],
      "name": "UUPSUnauthorizedCallContext",
      "type": "error"
    },
    {
      "inputs": [
        {
          "internalType": "bytes32",
          "name": "slot",
          "type": "bytes32"
        }
      ],
      "name": "UUPSUnsupportedProxiableUUID",
      "type": "error"
    },
    {
      "inputs": [],
      "name": "Unauthorized",
      "type": "error"
    },
    {
      "anonymous": false,
      "inputs": [
        {
          "indexed": true,
          "internalType": "address",
          "name": "user",
          "type": "address"
        },
        {
          "indexed": true,
          "internalType": "address",
          "name": "referrer",
          "type": "address"
        }
      ],
      "name": "BoundReferrer",
      "type": "event"
    },
    {
      "anonymous": false,
      "inputs": [
        {
          "indexed": false,
          "internalType": "uint256",
          "name": "mcAmount",
          "type": "uint256"
        },
        {
          "indexed": false,
          "internalType": "uint256",
          "name": "jbcBurned",
          "type": "uint256"
        }
      ],
      "name": "BuybackAndBurn",
      "type": "event"
    },
    {
      "anonymous": false,
      "inputs": [
        {
          "indexed": true,
          "internalType": "address",
          "name": "user",
          "type": "address"
        },
        {
          "indexed": false,
          "internalType": "uint256",
          "name": "mcAmount",
          "type": "uint256"
        },
        {
          "indexed": false,
          "internalType": "uint256",
          "name": "jbcAmount",
          "type": "uint256"
        },
        {
          "indexed": false,
          "internalType": "uint256",
          "name": "jbcPrice",
          "type": "uint256"
        },
        {
          "indexed": false,
          "internalType": "uint256",
          "name": "timestamp",
          "type": "uint256"
        }
      ],
      "name": "DifferentialRewardDistributed",
      "type": "event"
    },
    {
      "anonymous": false,
      "inputs": [
        {
          "indexed": true,
          "internalType": "uint256",
          "name": "stakeId",
          "type": "uint256"
        },
        {
          "indexed": true,
          "internalType": "address",
          "name": "upline",
          "type": "address"
        },
        {
          "indexed": false,
          "internalType": "uint256",
          "name": "amount",
          "type": "uint256"
        }
      ],
      "name": "DifferentialRewardRecorded",
      "type": "event"
    },
    {
      "anonymous": false,
      "inputs": [
        {
          "indexed": true,
          "internalType": "uint256",
          "name": "stakeId",
          "type": "uint256"
        },
        {
          "indexed": true,
          "internalType": "address",
          "name": "upline",
          "type": "address"
        },
        {
          "indexed": false,
          "internalType": "uint256",
          "name": "amount",
          "type": "uint256"
        }
      ],
      "name": "DifferentialRewardReleased",
      "type": "event"
    },
    {
      "anonymous": false,
      "inputs": [
        {
          "indexed": false,
          "internalType": "uint256",
          "name": "direct",
          "type": "uint256"
        },
        {
          "indexed": false,
          "internalType": "uint256",
          "name": "level",
          "type": "uint256"
        },
        {
          "indexed": false,
          "internalType": "uint256",
          "name": "marketing",
          "type": "uint256"
        },
        {
          "indexed": false,
          "internalType": "uint256",
          "name": "buyback",
          "type": "uint256"
        },
        {
          "indexed": false,
          "internalType": "uint256",
          "name": "lpInjection",
          "type": "uint256"
        },
        {
          "indexed": false,
          "internalType": "uint256",
          "name": "treasury",
          "type": "uint256"
        }
      ],
      "name": "DistributionConfigUpdated",
      "type": "event"
    },
    {
      "anonymous": false,
      "inputs": [],
      "name": "EmergencyPaused",
      "type": "event"
    },
    {
      "anonymous": false,
      "inputs": [],
      "name": "EmergencyUnpaused",
      "type": "event"
    },
    {
      "anonymous": false,
      "inputs": [
        {
          "indexed": true,
          "internalType": "address",
          "name": "user",
          "type": "address"
        },
        {
          "indexed": false,
          "internalType": "uint256",
          "name": "ticketId",
          "type": "uint256"
        }
      ],
      "name": "Exited",
      "type": "event"
    },
    {
      "anonymous": false,
      "inputs": [
        {
          "indexed": true,
          "internalType": "address",
          "name": "user",
          "type": "address"
        },
        {
          "indexed": false,
          "internalType": "uint256",
          "name": "amount",
          "type": "uint256"
        }
      ],
      "name": "FeeRefunded",
      "type": "event"
    },
    {
      "anonymous": false,
      "inputs": [
        {
          "indexed": false,
          "internalType": "uint64",
          "name": "version",
          "type": "uint64"
        }
      ],
      "name": "Initialized",
      "type": "event"
    },
    {
      "anonymous": false,
      "inputs": [
        {
          "indexed": false,
          "internalType": "uint256",
          "name": "mcAmount",
          "type": "uint256"
        },
        {
          "indexed": false,
          "internalType": "uint256",
          "name": "jbcAmount",
          "type": "uint256"
        }
      ],
      "name": "LiquidityAdded",
      "type": "event"
    },
    {
      "anonymous": false,
      "inputs": [
        {
          "indexed": true,
          "internalType": "address",
          "name": "user",
          "type": "address"
        },
        {
          "indexed": false,
          "internalType": "uint256",
          "name": "amount",
          "type": "uint256"
        },
        {
          "indexed": false,
          "internalType": "uint256",
          "name": "cycleDays",
          "type": "uint256"
        },
        {
          "indexed": false,
          "internalType": "uint256",
          "name": "stakeId",
          "type": "uint256"
        }
      ],
      "name": "LiquidityStaked",
      "type": "event"
    },
    {
      "anonymous": false,
      "inputs": [
        {
          "indexed": true,
          "internalType": "address",
          "name": "from",
          "type": "address"
        },
        {
          "indexed": false,
          "internalType": "uint256",
          "name": "amount",
          "type": "uint256"
        }
      ],
      "name": "NativeMCReceived",
      "type": "event"
    },
    {
      "anonymous": false,
      "inputs": [
        {
          "indexed": true,
          "internalType": "address",
          "name": "to",
          "type": "address"
        },
        {
          "indexed": false,
          "internalType": "uint256",
          "name": "amount",
          "type": "uint256"
        }
      ],
      "name": "NativeMCWithdrawn",
      "type": "event"
    },
    {
      "anonymous": false,
      "inputs": [
        {
          "indexed": true,
          "internalType": "address",
          "name": "previousOwner",
          "type": "address"
        },
        {
          "indexed": true,
          "internalType": "address",
          "name": "newOwner",
          "type": "address"
        }
      ],
      "name": "OwnershipTransferred",
      "type": "event"
    },
    {
      "anonymous": false,
      "inputs": [
        {
          "indexed": true,
          "internalType": "address",
          "name": "user",
          "type": "address"
        },
        {
          "indexed": false,
          "internalType": "uint256",
          "name": "principal",
          "type": "uint256"
        },
        {
          "indexed": false,
          "internalType": "uint256",
          "name": "fee",
          "type": "uint256"
        }
      ],
      "name": "Redeemed",
      "type": "event"
    },
    {
      "anonymous": false,
      "inputs": [
        {
          "indexed": true,
          "internalType": "address",
          "name": "user",
          "type": "address"
        },
        {
          "indexed": true,
          "internalType": "address",
          "name": "from",
          "type": "address"
        },
        {
          "indexed": false,
          "internalType": "uint256",
          "name": "mcAmount",
          "type": "uint256"
        },
        {
          "indexed": false,
          "internalType": "uint256",
          "name": "jbcAmount",
          "type": "uint256"
        },
        {
          "indexed": false,
          "internalType": "uint8",
          "name": "rewardType",
          "type": "uint8"
        },
        {
          "indexed": false,
          "internalType": "uint256",
          "name": "ticketId",
          "type": "uint256"
        }
      ],
      "name": "ReferralRewardPaid",
      "type": "event"
    },
    {
      "anonymous": false,
      "inputs": [
        {
          "indexed": true,
          "internalType": "address",
          "name": "user",
          "type": "address"
        },
        {
          "indexed": true,
          "internalType": "address",
          "name": "oldReferrer",
          "type": "address"
        },
        {
          "indexed": true,
          "internalType": "address",
          "name": "newReferrer",
          "type": "address"
        }
      ],
      "name": "ReferrerChanged",
      "type": "event"
    },
    {
      "anonymous": false,
      "inputs": [
        {
          "indexed": true,
          "internalType": "address",
          "name": "user",
          "type": "address"
        },
        {
          "indexed": false,
          "internalType": "uint256",
          "name": "amount",
          "type": "uint256"
        },
        {
          "indexed": false,
          "internalType": "uint256",
          "name": "cappedAmount",
          "type": "uint256"
        }
      ],
      "name": "RewardCapped",
      "type": "event"
    },
    {
      "anonymous": false,
      "inputs": [
        {
          "indexed": true,
          "internalType": "address",
          "name": "user",
          "type": "address"
        },
        {
          "indexed": false,
          "internalType": "uint256",
          "name": "mcAmount",
          "type": "uint256"
        },
        {
          "indexed": false,
          "internalType": "uint256",
          "name": "jbcAmount",
          "type": "uint256"
        },
        {
          "indexed": false,
          "internalType": "uint8",
          "name": "rewardType",
          "type": "uint8"
        },
        {
          "indexed": false,
          "internalType": "uint256",
          "name": "ticketId",
          "type": "uint256"
        }
      ],
      "name": "RewardClaimed",
      "type": "event"
    },
    {
      "anonymous": false,
      "inputs": [
        {
          "indexed": true,
          "internalType": "address",
          "name": "user",
          "type": "address"
        },
        {
          "indexed": false,
          "internalType": "uint256",
          "name": "amount",
          "type": "uint256"
        },
        {
          "indexed": false,
          "internalType": "uint8",
          "name": "rewardType",
          "type": "uint8"
        }
      ],
      "name": "RewardPaid",
      "type": "event"
    },
    {
      "anonymous": false,
      "inputs": [
        {
          "indexed": false,
          "internalType": "uint256",
          "name": "buyTax",
          "type": "uint256"
        },
        {
          "indexed": false,
          "internalType": "uint256",
          "name": "sellTax",
          "type": "uint256"
        }
      ],
      "name": "SwapTaxesUpdated",
      "type": "event"
    },
    {
      "anonymous": false,
      "inputs": [
        {
          "indexed": true,
          "internalType": "address",
          "name": "user",
          "type": "address"
        },
        {
          "indexed": false,
          "internalType": "uint256",
          "name": "jbcAmount",
          "type": "uint256"
        },
        {
          "indexed": false,
          "internalType": "uint256",
          "name": "mcAmount",
          "type": "uint256"
        },
        {
          "indexed": false,
          "internalType": "uint256",
          "name": "tax",
          "type": "uint256"
        }
      ],
      "name": "SwappedJBCToMC",
      "type": "event"
    },
    {
      "anonymous": false,
      "inputs": [
        {
          "indexed": true,
          "internalType": "address",
          "name": "user",
          "type": "address"
        },
        {
          "indexed": false,
          "internalType": "uint256",
          "name": "mcAmount",
          "type": "uint256"
        },
        {
          "indexed": false,
          "internalType": "uint256",
          "name": "jbcAmount",
          "type": "uint256"
        },
        {
          "indexed": false,
          "internalType": "uint256",
          "name": "tax",
          "type": "uint256"
        }
      ],
      "name": "SwappedMCToJBC",
      "type": "event"
    },
    {
      "anonymous": false,
      "inputs": [
        {
          "indexed": true,
          "internalType": "address",
          "name": "user",
          "type": "address"
        },
        {
          "indexed": false,
          "internalType": "uint256",
          "name": "oldCount",
          "type": "uint256"
        },
        {
          "indexed": false,
          "internalType": "uint256",
          "name": "newCount",
          "type": "uint256"
        }
      ],
      "name": "TeamCountUpdated",
      "type": "event"
    },
    {
      "anonymous": false,
      "inputs": [
        {
          "indexed": true,
          "internalType": "address",
          "name": "user",
          "type": "address"
        },
        {
          "indexed": false,
          "internalType": "uint256",
          "name": "ticketId",
          "type": "uint256"
        },
        {
          "indexed": false,
          "internalType": "uint256",
          "name": "amount",
          "type": "uint256"
        }
      ],
      "name": "TicketExpired",
      "type": "event"
    },
    {
      "anonymous": false,
      "inputs": [
        {
          "indexed": true,
          "internalType": "address",
          "name": "user",
          "type": "address"
        },
        {
          "indexed": false,
          "internalType": "uint256",
          "name": "amount",
          "type": "uint256"
        },
        {
          "indexed": false,
          "internalType": "uint256",
          "name": "ticketId",
          "type": "uint256"
        }
      ],
      "name": "TicketPurchased",
      "type": "event"
    },
    {
      "anonymous": false,
      "inputs": [
        {
          "indexed": true,
          "internalType": "address",
          "name": "implementation",
          "type": "address"
        }
      ],
      "name": "Upgraded",
      "type": "event"
    },
    {
      "anonymous": false,
      "inputs": [
        {
          "indexed": true,
          "internalType": "address",
          "name": "user",
          "type": "address"
        },
        {
          "indexed": false,
          "internalType": "uint256",
          "name": "oldLevel",
          "type": "uint256"
        },
        {
          "indexed": false,
          "internalType": "uint256",
          "name": "newLevel",
          "type": "uint256"
        },
        {
          "indexed": false,
          "internalType": "uint256",
          "name": "teamCount",
          "type": "uint256"
        }
      ],
      "name": "UserLevelChanged",
      "type": "event"
    },
    {
      "inputs": [],
      "name": "REWARD_DIFFERENTIAL",
      "outputs": [
        {
          "internalType": "uint8",
          "name": "",
          "type": "uint8"
        }
      ],
      "stateMutability": "view",
      "type": "function"
    },
    {
      "inputs": [],
      "name": "REWARD_DIRECT",
      "outputs": [
        {
          "internalType": "uint8",
          "name": "",
          "type": "uint8"
        }
      ],
      "stateMutability": "view",
      "type": "function"
    },
    {
      "inputs": [],
      "name": "REWARD_DYNAMIC",
      "outputs": [
        {
          "internalType": "uint8",
          "name": "",
          "type": "uint8"
        }
      ],
      "stateMutability": "view",
      "type": "function"
    },
    {
      "inputs": [],
      "name": "REWARD_LEVEL",
      "outputs": [
        {
          "internalType": "uint8",
          "name": "",
          "type": "uint8"
        }
      ],
      "stateMutability": "view",
      "type": "function"
    },
    {
      "inputs": [],
      "name": "REWARD_STATIC",
      "outputs": [
        {
          "internalType": "uint8",
          "name": "",
          "type": "uint8"
        }
      ],
      "stateMutability": "view",
      "type": "function"
    },
    {
      "inputs": [],
      "name": "SECONDS_IN_UNIT",
      "outputs": [
        {
          "internalType": "uint256",
          "name": "",
          "type": "uint256"
        }
      ],
      "stateMutability": "view",
      "type": "function"
    },
    {
      "inputs": [],
      "name": "UPGRADE_INTERFACE_VERSION",
      "outputs": [
        {
          "internalType": "string",
          "name": "",
          "type": "string"
        }
      ],
      "stateMutability": "view",
      "type": "function"
    },
    {
      "inputs": [
        {
          "internalType": "uint256",
          "name": "jbcAmount",
          "type": "uint256"
        }
      ],
      "name": "addLiquidity",
      "outputs": [],
      "stateMutability": "payable",
      "type": "function"
    },
    {
      "inputs": [
        {
          "internalType": "address",
          "name": "user",
          "type": "address"
        },
        {
          "internalType": "address",
          "name": "newReferrer",
          "type": "address"
        }
      ],
      "name": "adminSetReferrer",
      "outputs": [],
      "stateMutability": "nonpayable",
      "type": "function"
    },
    {
      "inputs": [
        {
          "internalType": "address",
          "name": "_referrer",
          "type": "address"
        }
      ],
      "name": "bindReferrer",
      "outputs": [],
      "stateMutability": "nonpayable",
      "type": "function"
    },
    {
      "inputs": [],
      "name": "buyTicket",
      "outputs": [],
      "stateMutability": "payable",
      "type": "function"
    },
    {
      "inputs": [],
      "name": "buybackPercent",
      "outputs": [
        {
          "internalType": "uint256",
          "name": "",
          "type": "uint256"
        }
      ],
      "stateMutability": "view",
      "type": "function"
    },
    {
      "inputs": [],
      "name": "buybackWallet",
      "outputs": [
        {
          "internalType": "address",
          "name": "",
          "type": "address"
        }
      ],
      "stateMutability": "view",
      "type": "function"
    },
    {
      "inputs": [
        {
          "internalType": "uint256",
          "name": "teamCount",
          "type": "uint256"
        }
      ],
      "name": "calculateLevel",
      "outputs": [
        {
          "internalType": "uint256",
          "name": "level",
          "type": "uint256"
        },
        {
          "internalType": "uint256",
          "name": "percent",
          "type": "uint256"
        }
      ],
      "stateMutability": "pure",
      "type": "function"
    },
    {
      "inputs": [],
      "name": "claimRewards",
      "outputs": [],
      "stateMutability": "nonpayable",
      "type": "function"
    },
    {
      "inputs": [],
      "name": "dailyBurn",
      "outputs": [],
      "stateMutability": "nonpayable",
      "type": "function"
    },
    {
      "inputs": [
        {
          "internalType": "address",
          "name": "",
          "type": "address"
        },
        {
          "internalType": "uint256",
          "name": "",
          "type": "uint256"
        }
      ],
      "name": "directReferrals",
      "outputs": [
        {
          "internalType": "address",
          "name": "",
          "type": "address"
        }
      ],
      "stateMutability": "view",
      "type": "function"
    },
    {
      "inputs": [],
      "name": "directRewardPercent",
      "outputs": [
        {
          "internalType": "uint256",
          "name": "",
          "type": "uint256"
        }
      ],
      "stateMutability": "view",
      "type": "function"
    },
    {
      "inputs": [],
      "name": "emergencyPause",
      "outputs": [],
      "stateMutability": "nonpayable",
      "type": "function"
    },
    {
      "inputs": [],
      "name": "emergencyPaused",
      "outputs": [
        {
          "internalType": "bool",
          "name": "",
          "type": "bool"
        }
      ],
      "stateMutability": "view",
      "type": "function"
    },
    {
      "inputs": [],
      "name": "emergencyUnpause",
      "outputs": [],
      "stateMutability": "nonpayable",
      "type": "function"
    },
    {
      "inputs": [
        {
          "internalType": "address",
          "name": "_to",
          "type": "address"
        },
        {
          "internalType": "uint256",
          "name": "_amount",
          "type": "uint256"
        }
      ],
      "name": "emergencyWithdrawNative",
      "outputs": [],
      "stateMutability": "nonpayable",
      "type": "function"
    },
    {
      "inputs": [
        {
          "internalType": "address",
          "name": "user",
          "type": "address"
        }
      ],
      "name": "getDirectReferrals",
      "outputs": [
        {
          "internalType": "address[]",
          "name": "",
          "type": "address[]"
        }
      ],
      "stateMutability": "view",
      "type": "function"
    },
    {
      "inputs": [
        {
          "internalType": "uint256",
          "name": "activeDirects",
          "type": "uint256"
        }
      ],
      "name": "getLevelRewardLayers",
      "outputs": [
        {
          "internalType": "uint256",
          "name": "",
          "type": "uint256"
        }
      ],
      "stateMutability": "pure",
      "type": "function"
    },
    {
      "inputs": [
        {
          "internalType": "address",
          "name": "user",
          "type": "address"
        }
      ],
      "name": "getUserLevel",
      "outputs": [
        {
          "internalType": "uint256",
          "name": "level",
          "type": "uint256"
        },
        {
          "internalType": "uint256",
          "name": "percent",
          "type": "uint256"
        },
        {
          "internalType": "uint256",
          "name": "teamCount",
          "type": "uint256"
        }
      ],
      "stateMutability": "view",
      "type": "function"
    },
    {
      "inputs": [
        {
          "internalType": "address",
          "name": "_jbcToken",
          "type": "address"
        },
        {
          "internalType": "address",
          "name": "_marketing",
          "type": "address"
        },
        {
          "internalType": "address",
          "name": "_treasury",
          "type": "address"
        },
        {
          "internalType": "address",
          "name": "_lpInjection",
          "type": "address"
        },
        {
          "internalType": "address",
          "name": "_buybackWallet",
          "type": "address"
        }
      ],
      "name": "initialize",
      "outputs": [],
      "stateMutability": "nonpayable",
      "type": "function"
    },
    {
      "inputs": [],
      "name": "jbcToken",
      "outputs": [
        {
          "internalType": "contract IJBC",
          "name": "",
          "type": "address"
        }
      ],
      "stateMutability": "view",
      "type": "function"
    },
    {
      "inputs": [],
      "name": "lastBurnTime",
      "outputs": [
        {
          "internalType": "uint256",
          "name": "",
          "type": "uint256"
        }
      ],
      "stateMutability": "view",
      "type": "function"
    },
    {
      "inputs": [],
      "name": "levelRewardPercent",
      "outputs": [
        {
          "internalType": "uint256",
          "name": "",
          "type": "uint256"
        }
      ],
      "stateMutability": "view",
      "type": "function"
    },
    {
      "inputs": [],
      "name": "levelRewardPool",
      "outputs": [
        {
          "internalType": "uint256",
          "name": "",
          "type": "uint256"
        }
      ],
      "stateMutability": "view",
      "type": "function"
    },
    {
      "inputs": [],
      "name": "liquidityEnabled",
      "outputs": [
        {
          "internalType": "bool",
          "name": "",
          "type": "bool"
        }
      ],
      "stateMutability": "view",
      "type": "function"
    },
    {
      "inputs": [],
      "name": "lpInjectionPercent",
      "outputs": [
        {
          "internalType": "uint256",
          "name": "",
          "type": "uint256"
        }
      ],
      "stateMutability": "view",
      "type": "function"
    },
    {
      "inputs": [],
      "name": "lpInjectionWallet",
      "outputs": [
        {
          "internalType": "address",
          "name": "",
          "type": "address"
        }
      ],
      "stateMutability": "view",
      "type": "function"
    },
    {
      "inputs": [],
      "name": "marketingPercent",
      "outputs": [
        {
          "internalType": "uint256",
          "name": "",
          "type": "uint256"
        }
      ],
      "stateMutability": "view",
      "type": "function"
    },
    {
      "inputs": [],
      "name": "marketingWallet",
      "outputs": [
        {
          "internalType": "address",
          "name": "",
          "type": "address"
        }
      ],
      "stateMutability": "view",
      "type": "function"
    },
    {
      "inputs": [],
      "name": "nextStakeId",
      "outputs": [
        {
          "internalType": "uint256",
          "name": "",
          "type": "uint256"
        }
      ],
      "stateMutability": "view",
      "type": "function"
    },
    {
      "inputs": [],
      "name": "nextTicketId",
      "outputs": [
        {
          "internalType": "uint256",
          "name": "",
          "type": "uint256"
        }
      ],
      "stateMutability": "view",
      "type": "function"
    },
    {
      "inputs": [],
      "name": "owner",
      "outputs": [
        {
          "internalType": "address",
          "name": "",
          "type": "address"
        }
      ],
      "stateMutability": "view",
      "type": "function"
    },
    {
      "inputs": [],
      "name": "priceOracle",
      "outputs": [
        {
          "internalType": "address",
          "name": "",
          "type": "address"
        }
      ],
      "stateMutability": "view",
      "type": "function"
    },
    {
      "inputs": [],
      "name": "proxiableUUID",
      "outputs": [
        {
          "internalType": "bytes32",
          "name": "",
          "type": "bytes32"
        }
      ],
      "stateMutability": "view",
      "type": "function"
    },
    {
      "inputs": [],
      "name": "redeem",
      "outputs": [],
      "stateMutability": "nonpayable",
      "type": "function"
    },
    {
      "inputs": [],
      "name": "redeemEnabled",
      "outputs": [
        {
          "internalType": "bool",
          "name": "",
          "type": "bool"
        }
      ],
      "stateMutability": "view",
      "type": "function"
    },
    {
      "inputs": [],
      "name": "redemptionFeePercent",
      "outputs": [
        {
          "internalType": "uint256",
          "name": "",
          "type": "uint256"
        }
      ],
      "stateMutability": "view",
      "type": "function"
    },
    {
      "inputs": [],
      "name": "renounceOwnership",
      "outputs": [],
      "stateMutability": "nonpayable",
      "type": "function"
    },
    {
      "inputs": [
        {
          "internalType": "address",
          "name": "_token",
          "type": "address"
        },
        {
          "internalType": "address",
          "name": "_to",
          "type": "address"
        },
        {
          "internalType": "uint256",
          "name": "_amount",
          "type": "uint256"
        }
      ],
      "name": "rescueTokens",
      "outputs": [],
      "stateMutability": "nonpayable",
      "type": "function"
    },
    {
      "inputs": [
        {
          "internalType": "uint256",
          "name": "_direct",
          "type": "uint256"
        },
        {
          "internalType": "uint256",
          "name": "_level",
          "type": "uint256"
        },
        {
          "internalType": "uint256",
          "name": "_marketing",
          "type": "uint256"
        },
        {
          "internalType": "uint256",
          "name": "_buyback",
          "type": "uint256"
        },
        {
          "internalType": "uint256",
          "name": "_lpInjection",
          "type": "uint256"
        },
        {
          "internalType": "uint256",
          "name": "_treasury",
          "type": "uint256"
        }
      ],
      "name": "setDistributionConfig",
      "outputs": [],
      "stateMutability": "nonpayable",
      "type": "function"
    },
    {
      "inputs": [
        {
          "internalType": "bool",
          "name": "_liquidityEnabled",
          "type": "bool"
        },
        {
          "internalType": "bool",
          "name": "_redeemEnabled",
          "type": "bool"
        }
      ],
      "name": "setOperationalStatus",
      "outputs": [],
      "stateMutability": "nonpayable",
      "type": "function"
    },
    {
      "inputs": [
        {
          "internalType": "uint256",
          "name": "_fee",
          "type": "uint256"
        }
      ],
      "name": "setRedemptionFeePercent",
      "outputs": [],
      "stateMutability": "nonpayable",
      "type": "function"
    },
    {
      "inputs": [
        {
          "internalType": "uint256",
          "name": "_buyTax",
          "type": "uint256"
        },
        {
          "internalType": "uint256",
          "name": "_sellTax",
          "type": "uint256"
        }
      ],
      "name": "setSwapTaxes",
      "outputs": [],
      "stateMutability": "nonpayable",
      "type": "function"
    },
    {
      "inputs": [
        {
          "internalType": "uint256",
          "name": "_duration",
          "type": "uint256"
        }
      ],
      "name": "setTicketFlexibilityDuration",
      "outputs": [],
      "stateMutability": "nonpayable",
      "type": "function"
    },
    {
      "inputs": [
        {
          "internalType": "address",
          "name": "_marketing",
          "type": "address"
        },
        {
          "internalType": "address",
          "name": "_treasury",
          "type": "address"
        },
        {
          "internalType": "address",
          "name": "_lpInjection",
          "type": "address"
        },
        {
          "internalType": "address",
          "name": "_buyback",
          "type": "address"
        }
      ],
      "name": "setWallets",
      "outputs": [],
      "stateMutability": "nonpayable",
      "type": "function"
    },
    {
      "inputs": [
        {
          "internalType": "uint256",
          "name": "cycleDays",
          "type": "uint256"
        }
      ],
      "name": "stakeLiquidity",
      "outputs": [],
      "stateMutability": "payable",
      "type": "function"
    },
    {
      "inputs": [
        {
          "internalType": "uint256",
          "name": "",
          "type": "uint256"
        }
      ],
      "name": "stakeOwner",
      "outputs": [
        {
          "internalType": "address",
          "name": "",
          "type": "address"
        }
      ],
      "stateMutability": "view",
      "type": "function"
    },
    {
      "inputs": [
        {
          "internalType": "uint256",
          "name": "",
          "type": "uint256"
        },
        {
          "internalType": "uint256",
          "name": "",
          "type": "uint256"
        }
      ],
      "name": "stakePendingRewards",
      "outputs": [
        {
          "internalType": "address",
          "name": "upline",
          "type": "address"
        },
        {
          "internalType": "uint256",
          "name": "amount",
          "type": "uint256"
        },
        {
          "internalType": "uint256",
          "name": "mcAmount",
          "type": "uint256"
        },
        {
          "internalType": "uint256",
          "name": "jbcAmount",
          "type": "uint256"
        }
      ],
      "stateMutability": "view",
      "type": "function"
    },
    {
      "inputs": [],
      "name": "swapBuyTax",
      "outputs": [
        {
          "internalType": "uint256",
          "name": "",
          "type": "uint256"
        }
      ],
      "stateMutability": "view",
      "type": "function"
    },
    {
      "inputs": [
        {
          "internalType": "uint256",
          "name": "jbcAmount",
          "type": "uint256"
        }
      ],
      "name": "swapJBCToMC",
      "outputs": [],
      "stateMutability": "nonpayable",
      "type": "function"
    },
    {
      "inputs": [],
      "name": "swapMCToJBC",
      "outputs": [],
      "stateMutability": "payable",
      "type": "function"
    },
    {
      "inputs": [],
      "name": "swapReserveJBC",
      "outputs": [
        {
          "internalType": "uint256",
          "name": "",
          "type": "uint256"
        }
      ],
      "stateMutability": "view",
      "type": "function"
    },
    {
      "inputs": [],
      "name": "swapReserveMC",
      "outputs": [
        {
          "internalType": "uint256",
          "name": "",
          "type": "uint256"
        }
      ],
      "stateMutability": "view",
      "type": "function"
    },
    {
      "inputs": [],
      "name": "swapSellTax",
      "outputs": [
        {
          "internalType": "uint256",
          "name": "",
          "type": "uint256"
        }
      ],
      "stateMutability": "view",
      "type": "function"
    },
    {
      "inputs": [],
      "name": "ticketFlexibilityDuration",
      "outputs": [
        {
          "internalType": "uint256",
          "name": "",
          "type": "uint256"
        }
      ],
      "stateMutability": "view",
      "type": "function"
    },
    {
      "inputs": [
        {
          "internalType": "uint256",
          "name": "",
          "type": "uint256"
        }
      ],
      "name": "ticketOwner",
      "outputs": [
        {
          "internalType": "address",
          "name": "",
          "type": "address"
        }
      ],
      "stateMutability": "view",
      "type": "function"
    },
    {
      "inputs": [
        {
          "internalType": "uint256",
          "name": "",
          "type": "uint256"
        },
        {
          "internalType": "uint256",
          "name": "",
          "type": "uint256"
        }
      ],
      "name": "ticketPendingRewards",
      "outputs": [
        {
          "internalType": "address",
          "name": "upline",
          "type": "address"
        },
        {
          "internalType": "uint256",
          "name": "amount",
          "type": "uint256"
        },
        {
          "internalType": "uint256",
          "name": "mcAmount",
          "type": "uint256"
        },
        {
          "internalType": "uint256",
          "name": "jbcAmount",
          "type": "uint256"
        }
      ],
      "stateMutability": "view",
      "type": "function"
    },
    {
      "inputs": [
        {
          "internalType": "address",
          "name": "newOwner",
          "type": "address"
        }
      ],
      "name": "transferOwnership",
      "outputs": [],
      "stateMutability": "nonpayable",
      "type": "function"
    },
    {
      "inputs": [],
      "name": "treasuryPercent",
      "outputs": [
        {
          "internalType": "uint256",
          "name": "",
          "type": "uint256"
        }
      ],
      "stateMutability": "view",
      "type": "function"
    },
    {
      "inputs": [],
      "name": "treasuryWallet",
      "outputs": [
        {
          "internalType": "address",
          "name": "",
          "type": "address"
        }
      ],
      "stateMutability": "view",
      "type": "function"
    },
    {
      "inputs": [
        {
          "internalType": "address",
          "name": "newImplementation",
          "type": "address"
        },
        {
          "internalType": "bytes",
          "name": "data",
          "type": "bytes"
        }
      ],
      "name": "upgradeToAndCall",
      "outputs": [],
      "stateMutability": "payable",
      "type": "function"
    },
    {
      "inputs": [
        {
          "internalType": "address",
          "name": "",
          "type": "address"
        }
      ],
      "name": "userInfo",
      "outputs": [
        {
          "internalType": "address",
          "name": "referrer",
          "type": "address"
        },
        {
          "internalType": "uint256",
          "name": "activeDirects",
          "type": "uint256"
        },
        {
          "internalType": "uint256",
          "name": "teamCount",
          "type": "uint256"
        },
        {
          "internalType": "uint256",
          "name": "totalRevenue",
          "type": "uint256"
        },
        {
          "internalType": "uint256",
          "name": "currentCap",
          "type": "uint256"
        },
        {
          "internalType": "bool",
          "name": "isActive",
          "type": "bool"
        },
        {
          "internalType": "uint256",
          "name": "refundFeeAmount",
          "type": "uint256"
        },
        {
          "internalType": "uint256",
          "name": "teamTotalVolume",
          "type": "uint256"
        },
        {
          "internalType": "uint256",
          "name": "teamTotalCap",
          "type": "uint256"
        },
        {
          "internalType": "uint256",
          "name": "maxTicketAmount",
          "type": "uint256"
        },
        {
          "internalType": "uint256",
          "name": "maxSingleTicketAmount",
          "type": "uint256"
        }
      ],
      "stateMutability": "view",
      "type": "function"
    },
    {
      "inputs": [
        {
          "internalType": "address",
          "name": "",
          "type": "address"
        },
        {
          "internalType": "uint256",
          "name": "",
          "type": "uint256"
        }
      ],
      "name": "userStakes",
      "outputs": [
        {
          "internalType": "uint256",
          "name": "id",
          "type": "uint256"
        },
        {
          "internalType": "uint256",
          "name": "amount",
          "type": "uint256"
        },
        {
          "internalType": "uint256",
          "name": "startTime",
          "type": "uint256"
        },
        {
          "internalType": "uint256",
          "name": "cycleDays",
          "type": "uint256"
        },
        {
          "internalType": "bool",
          "name": "active",
          "type": "bool"
        },
        {
          "internalType": "uint256",
          "name": "paid",
          "type": "uint256"
        }
      ],
      "stateMutability": "view",
      "type": "function"
    },
    {
      "inputs": [
        {
          "internalType": "address",
          "name": "",
          "type": "address"
        }
      ],
      "name": "userTicket",
      "outputs": [
        {
          "internalType": "uint256",
          "name": "ticketId",
          "type": "uint256"
        },
        {
          "internalType": "uint256",
          "name": "amount",
          "type": "uint256"
        },
        {
          "internalType": "uint256",
          "name": "purchaseTime",
          "type": "uint256"
        },
        {
          "internalType": "bool",
          "name": "exited",
          "type": "bool"
        }
      ],
      "stateMutability": "view",
      "type": "function"
    },
    {
      "inputs": [
        {
          "internalType": "address",
          "name": "_toMC",
          "type": "address"
        },
        {
          "internalType": "uint256",
          "name": "_amountMC",
          "type": "uint256"
        },
        {
          "internalType": "address",
          "name": "_toJBC",
          "type": "address"
        },
        {
          "internalType": "uint256",
          "name": "_amountJBC",
          "type": "uint256"
        }
      ],
      "name": "withdrawSwapReserves",
      "outputs": [],
      "stateMutability": "nonpayable",
      "type": "function"
    },
    {
      "stateMutability": "payable",
      "type": "receive"
    }
  ],
  "bytecode": "0x60a08060405234620000d157306080527ff0c57e16840df040f15088dc2f81fe391c3923bec73e23a9662efc9c229c6a009081549060ff8260401c16620000c257506001600160401b036002600160401b0319828216016200007c575b604051614d0c9081620000d7823960805181818161206101526124370152f35b6001600160401b031990911681179091556040519081527fc7f505b2f371ae2175ee4913f4499e1f2633a7b5936321eed1cdaeb6115181d290602090a13880806200005c565b63f92ee8a960e01b8152600490fd5b600080fdfe60806040526004361015610056575b361561001957600080fd5b6100253460185461320b565b6018556040513481527fc8382e3e3003d34021113f35bf95ee86b77a09ec08c4eb3cbe64076e60468f4e60203392a2005b6000803560e01c806301d62efb14612fef57806304ef9d5814612fd157806304f618cb14612e0257806305ad393514612da75780630e2be21014612d8b5780631427f61614612d6f5780631459457a14612b745780631788513c14612b4d578063182c84cc14612b265780631959a00214612a745780631d0dac7614612a5657806321923bde14612a075780632630c12f146129da57806327c830a9146129b757806327f082f41461299957806335076373146126ac578063372500ab1461268b5780633dbd46bd146126585780634626402b1461262f578063488b5d97146126115780634a4e3bd5146125c75780634f1ef286146123bc57806351858e271461236f57806351c6590a1461228057806352778b05146120b957806352d1902d1461204e5780636031a52f146120305780636dd6682714612012578063715018a614611fb957806375506c9614611f9b57806375f0a87414611f7257806377a2a54014611f54578063813380cd14611f2657806381eeef5c14611e3757806383672f3e14611d7f578063841d308b14611b1a5780638710bcaa14611ab957806388481b6114611a9d57806388fd4d3314611a745780638a859a8514611a585780638c0eaa4814611a3c5780638da5cb5b14611a0657806390b0eb51146119b65780639370b080146119985780639b788504146119295780639d99eca414611906578063a2af9226146118d3578063ac8f50aa1461185d578063ad3cb1cc146117b8578063b048a4bb14611795578063b5d5b5fa14611707578063b759936b146116e9578063bd594dcf146116cb578063be040fb014610de7578063c2ff12fc14610db4578063ccf6194414610d96578063cea9d26f14610ce5578063ceaa366d14610cc7578063d0f1647014610c3d578063d2c8e0e514610b8e578063d2f8253614610b68578063d4f0014214610a61578063d8020a1814610a43578063dce3dc1f14610a18578063deab8aea146109ef578063dec7fa3b146109d1578063e3067449146109b3578063e4412f6814610995578063ece7126614610972578063edca914c1461039e5763f2fde38b1461036f575061000e565b3461039b57602036600319011261039b5761039861038b613040565b6103936138a4565b613842565b80f35b80fd5b508060031936011261039b576103b26139da565b60ff601e5416610960576103c5336144f5565b68056bc75e2d631000003414801561094e575b801561093c575b801561092a575b1561091857338152600f6020526040812060038101805460ff161561085f57610410601a546131d9565b80601a55825534600183015542600283015560ff198154169055338252600e60205281600360408220015561044434613218565b338352600e60205260046040842001555b600a6001820154338452600e60205260408420906009820180548211610857575b5050018054341161084e575b508054825260146020908152604080842080546001600160a01b031916339081179091558354908552600e9092528320546001600160a01b03168015158061083a575b15610817576104e260646104db6005543461322e565b04826146e6565b91826107e3575b5050505b338252600e6020526040822054829182916001600160a01b031690829034801590800460011417156107cf579394915b6001600160a01b0381161515806107c5575b806107bb575b15610639576001600160a01b0381168452600e60205260408420600581015460ff161561061a575060018060a01b03811690818552600e6020528361058060016040882001546138dd565b116105ba575b508352600e60205260408320546001600160a01b0316916105b0906105aa906131d9565b956131d9565b935b93949161051d565b6105c890606434049061481f565b80156105865791826105d99161320b565b91338552600f602052604085205460405191825285602083015260036040830152606082015281600080516020614b7783398151915260803393a338610586565b5492956001600160a01b039093169261063391506131d9565b936105b2565b838561065384606461064d6006543461322e565b046131fe565b806107a6575b5060018060a01b036001541661068060079160646106796007543461322e565b0490613af9565b61069760646106916008543461322e565b04614914565b6106b360018060a01b036003541660646106796009543461322e565b6106cf60018060a01b03600254166064610679600a543461322e565b336000908152600e6020526040812054909234151592916001600160a01b03165b6001600160a01b03168015158061079c575b1561074957600052600e60205261072e83604060002090610734575b546001600160a01b0316946131d9565b936106f0565b83810161074234825461320b565b905561071e565b858261075433613a17565b546040519034825260208201527f2a91574e12ad96234e84923e146b0946ecfb871cd8d5534dc1fdcbe87a7c01b360403392a26001600080516020614c978339815191525580f35b5060148510610702565b6107b290601d5461320b565b601d5582610659565b5060148610610535565b50600f831061052f565b634e487b7160e01b84526011600452602484fd5b604051928352846020840152600260408401526060830152600080516020614b7783398151915260803393a33880806104e9565b505061083560018060a01b036001541660646106796005543461322e565b6104ed565b5080845260ff6005604086200154166104c5565b34905538610482565b553880610476565b600182018054806108bc5750610876601a546131d9565b80601a55835534905542600283015560ff198154169055338252600e6020528160036040822001556108a734613218565b338352600e6020526004604084200155610455565b6108c9919250349061320b565b9055338252600e60205260ff60056040842001541661090d575b6108ec34613218565b338352600e6020526109066004604085200191825461320b565b9055610455565b4260028201556108e3565b60405163162908e360e11b8152600490fd5b50683635c9adc5dea0000034146103e6565b50681b1ae4d6e2ef50000034146103df565b50681043561a882930000034146103d8565b60405163ab35696f60e01b8152600490fd5b503461039b57602036600319011261039b5761098c6138a4565b600435600b5580f35b503461039b578060031936011261039b576020600854604051908152f35b503461039b578060031936011261039b576020601c54604051908152f35b503461039b578060031936011261039b576020600b54604051908152f35b503461039b578060031936011261039b576004546040516001600160a01b039091168152602090f35b503461039b57602036600319011261039b576040610a3760043561392b565b82519182526020820152f35b503461039b578060031936011261039b576020600754604051908152f35b503461039b57608036600319011261039b57610a7b613040565b60243590610a8761306c565b9060643592610a946138a4565b80610b30575b505081610aa5578280f35b81602091610ab8610ae3946019546131fe565b60195560018060a01b03855416908560405180968195829463a9059cbb60e01b845260048401613279565b03925af18015610b2557610af657808280f35b610b179060203d602011610b1e575b610b0f818361310a565b810190613261565b5038808280f35b503d610b05565b6040513d84823e3d90fd5b804710610b5657610b4f91610b47826018546131fe565b601855613af9565b3880610a9a565b60405163dbc3a71f60e01b8152600490fd5b503461039b578060031936011261039b57602060ff60175460081c166040519015158152f35b503461039b576020908160031936011261039b576001600160a01b03919082610bb5613040565b168152601182526040812090604051808484549182815201908194845285842090845b818110610c275750505081610bee91038261310a565b6040519380850191818652518092526040850193925b828110610c115785850386f35b8351871685529381019392810192600101610c04565b8254891684529287019260019283019201610bd8565b503461039b5760c036600319011261039b577f66682b276e4cd1a4e1f68b55b1143766c5332f472eb593cf2a70a25d9d5d991760c060043560a435608435606435604435602435610c8c6138a4565b856005558060065581600755826008558360095584600a55604051958652602086015260408501526060840152608083015260a0820152a180f35b503461039b578060031936011261039b576020600954604051908152f35b503461039b57606036600319011261039b57610cff613040565b610d07613056565b90610d106138a4565b82546001600160a01b03918216919081168214610d8457821615610d8457610d56602091849360405194858094819363a9059cbb60e01b83526044359060048401613279565b03925af18015610b2557610d68575080f35b610d809060203d602011610b1e57610b0f818361310a565b5080f35b60405163e6c4247b60e01b8152600490fd5b503461039b578060031936011261039b576020600554604051908152f35b503461039b57602036600319011261039b57602090600435815260148252604060018060a01b0391205416604051908152f35b503461039b578060031936011261039b57610e006139da565b60ff60175460081c16156116ba5733815260106020526040812081829183845b8254811015610f875760ff6004610e37838661317a565b5001541615610f7f576002610e4c828561317a565b5001546003610e5b838661317a565b500154906201518091828102928184041490151715610f6b5790610e7e9161320b565b421015610e90575b6001905b01610e20565b9293610f28600191610eb5610eae610ea8888861317a565b50613b31565b809561320b565b93610ecf6005610ec5898961317a565b500191825461320b565b9055338852600e60205260096040892001548015610f59575b610ef7606491600b549061322e565b0483610f03888861317a565b50015481811115610f465790610f1c81610f22936131fe565b9261320b565b9661320b565b936004610f35828661317a565b5001805460ff191690559050610e86565b9050610f519161320b565b95879061320b565b50600f60205260408820830154610ee8565b634e487b7160e01b88526011600452602488fd5b600190610e8a565b5091928315929083806116b2575b6116a0578061168b575b5080611008575b505015610ff8575b50610fb833613a17565b338152600e60205260408120600460038201549101541115610fea575b6001600080516020614c978339815191525580f35b610ff3336141f8565b610fd5565b6110029033613af9565b38610fae565b338552600e6020526110276040862060036004820154910154906131fe565b808211611664575b508015610fa6579391929093338352600e6020526003604084200161105582825461320b565b905561105f614473565b600182901c8015939190670de0b6b3a764000081810291820414851715611562579061108a91613241565b9284908360011c471015908161165b575b50611644575b84546040516370a0823160e01b81523060048201526001600160a01b03909116908690602081602481865afa9081156116395790879189916115ff575b501015806115f6575b611584575b600080516020614b97833981519152915060405185815260006020820152600080516020614c7783398151915260403392a2338752600f60205260408720549061113d604051928392339684613294565b0390a2835b86548110156115765760ff6004611159838a61317a565b500154161561116b575b600101611142565b6002611177828961317a565b5001546003611186838a61317a565b50015462015180908082810204821481151715610f6b576111a99291029061320b565b4210611163576111bc610ea8828961317a565b801580156111cc575b5050611163565b81670de0b6b3a7640000819994969795990204670de0b6b3a76400001417156115625784670de0b6b3a7640000611207929896939802613241565b90670de0b6b3a764000061122a81611222858560011c61322e565b04938561322e565b04611235858a61317a565b5054338852600e60205260408820546001600160a01b0316988895919386929061127a670de0b6b3a764000061127361126c614473565b809861322e565b048861320b565b9b5b6001600160a01b038116151580611558575b15611544576001600160a01b0381168c52600e60205260408c20600581015460ff161561152f57506001600160a01b0381168c52600f60205260408c206001810154908e908e908315908115611520575b506114f9576001600160a01b0384168152600e60205260409020600201546113069061392b565b9290508b8311611371575b5050602d1115611346576001600160a01b039081168c52600e60205260408c2054169361133d906131d9565b995b999361127c565b5097945097955098505050600191505b61136a611363828a61317a565b5054613c35565b90386111c5565b611397606491611386859e6113a895966131fe565b9085908087116114f1575b5061322e565b04916113a38b8461322e565b613241565b6113b281836131fe565b670de0b6b3a7640000810290808204670de0b6b3a764000014901517156114dd5760408f918a6113e191613241565b918b815260136020522090604051926113f9846130ef565b6001600160a01b03861684526020840185905260408401526060830152805490600160401b8210156114c857906114359160018201815561315e565b9190916114b457805182546001600160a01b0319166001600160a01b03918216178355602080830151600185015560408084015160028601556060939093015160039490940193909355905192835283169189917f7c6505ab8279235ad21ebf427336cc8d97c017b4aa1f10ffdff11d3261e4934e91a3888d38611311565b634e487b7160e01b8f5260048f905260248ffd5b50634e487b7160e01b8f52604160045260248ffd5b634e487b7160e01b8f52601160045260248ffd5b905038611391565b5050600e602052505060408b20546001600160a01b03169361151a906131d9565b9961133f565b60ff91506003015416386112df565b546001600160a01b03169461151a91506131d9565b509794509795509850505060019150611356565b506014851061128e565b634e487b7160e01b86526011600452602486fd5b509392945050503880610fa6565b506020604051809263a9059cbb60e01b82528189816115a78b3360048401613279565b03925af180156115eb576115cc575b50600080516020614b97833981519152846110ec565b6115e49060203d602011610b1e57610b0f818361310a565b50386115b6565b6040513d88823e3d90fd5b508515156110e7565b9150506020813d602011611631575b8161161b6020938361310a565b8101031261162c57869051386110de565b600080fd5b3d915061160e565b6040513d8a823e3d90fd5b506116528260011c33613af9565b8160011c6110a1565b9050153861109b565b90604051908152816020820152600080516020614bf783398151915260403392a23861102f565b6116979060185461320b565b60185538610f9f565b6040516304c4857b60e51b8152600490fd5b508115610f95565b6040516282b42960e81b8152600490fd5b503461039b578060031936011261039b576020600654604051908152f35b503461039b578060031936011261039b576020601d54604051908152f35b503461039b57604036600319011261039b57611721613040565b6001600160a01b031681526010602052604081208054602435929083101561039b5760c061174f848461317a565b508054906001810154906002810154600382015490600560ff600485015416930154936040519586526020860152604085015260608401521515608083015260a0820152f35b503461039b578060031936011261039b57602060ff601754166040519015158152f35b503461039b578060031936011261039b57604080519081016001600160401b038111828210176118475760405260058152602091640352e302e360dc1b602083015260405192839160208352835191826020850152815b83811061183057505060408094508284010152601f80199101168101030190f35b80860182015187820160400152869450810161180f565b634e487b7160e01b600052604160045260246000fd5b503461039b5761186c36613148565b90825260136020526040822080548210156118cf5761188b925061315e565b50805460018201546002830154600390930154604080516001600160a01b0390941684526020840192909252908201929092526060810191909152608090f35b0390f35b8280fd5b503461039b57604036600319011261039b576103986118f0613040565b6118f8613056565b906119016138a4565b6136a5565b503461039b57602036600319011261039b576119206138a4565b60043560165580f35b503461039b57604036600319011261039b57611943613040565b6024359061194f6138a4565b814710610b5657602081611984847f288155da11d775f8595652c04f862708561d601d9fd3f04f7aed5f8311296e2494613af9565b6040519384526001600160a01b031692a280f35b503461039b578060031936011261039b576020600d54604051908152f35b503461039b577f4e9dd03193a0c81552fb8e6d32280f0d7e0ce8087241dc3d17ef3d193ee231d760406119e836613148565b6119f06138a4565b81600c5580600d5582519182526020820152a180f35b503461039b578060031936011261039b57600080516020614bb7833981519152546040516001600160a01b039091168152602090f35b503461039b578060031936011261039b57602060405160038152f35b503461039b578060031936011261039b57602060405160018152f35b503461039b578060031936011261039b576003546040516001600160a01b039091168152602090f35b503461039b578060031936011261039b57602060405160048152f35b503461039b57602036600319011261039b576080906040906001600160a01b03611ae1613040565b168152600f6020522080549060018101549060ff6003600283015492015416916040519384526020840152604083015215156060820152f35b508060031936011261039b57611b2e6139da565b60ff601e541661096057341561091857601854683635c9adc5dea00000808210908115611d73575b50611d115760195490611b7c611b6c833461322e565b611b76348461320b565b90613241565b6127108034029034820403611d5f57611b98836103e892613241565b11610918576064611bab600c548361322e565b0491611bb783836131fe565b85546040516370a0823160e01b815230600482015291956020946001600160a01b03949193928516928681602481875afa8015611d545782918b91611d23575b5010611d11578893611c0d611c1593349061320b565b6018556131fe565b601955803b15611d0d57818091602460405180948193630852cd8d60e31b83528a60048401525af18015610b2557611cf5575b5054169181604051809463a9059cbb60e01b8252818881611c6d8a3360048401613279565b03925af1918215611cea577f36864aeefce16bc4aaceeb6b0cdfb2ad1455a8cb4ccb0db148a2bc6e7166f97c93611cb493611ccc575b5050604051918291339534846130c6565b0390a26001600080516020614c978339815191525580f35b81611ce292903d10610b1e57610b0f818361310a565b503880611ca3565b6040513d87823e3d90fd5b611cfe906130dc565b611d09578438611c48565b8480fd5b5080fd5b6040516343c7ad8160e11b8152600490fd5b809250888092503d8311611d4d575b611d3c818361310a565b8101031261162c5781905138611bf7565b503d611d32565b6040513d8c823e3d90fd5b634e487b7160e01b85526011600452602485fd5b90506019541038611b56565b503461039b57608036600319011261039b57611d99613040565b611da1613056565b90611daa61306c565b91611db3613082565b90611dbc6138a4565b6001600160a01b039283169384158015611e2d575b8015611e23575b8015611e19575b610d845783809260018060a01b03199687600154161760015516856002541617600255168360035416176003551690600454161760045580f35b5083831615611ddf565b5083811615611dd8565b5083821615611dd1565b503461039b578060031936011261039b57601c54620151808101809111611f00574210611f1457601954801561091857808004600103611f0057606481049081156109185781611e86916131fe565b601955815482906001600160a01b0316803b15611d0d57818091602460405180948193630852cd8d60e31b83528860048401525af18015610b2557611eec575b50600080516020614c3783398151915260408342601c558151908482526020820152a180f35b611ef5906130dc565b611d0d578138611ec6565b634e487b7160e01b82526011600452602482fd5b604051636f47a98b60e11b8152600490fd5b503461039b57611f3536613148565b90825260126020526040822080548210156118cf5761188b925061315e565b503461039b578060031936011261039b576020601854604051908152f35b503461039b578060031936011261039b576001546040516001600160a01b039091168152602090f35b503461039b578060031936011261039b576020601b54604051908152f35b503461039b578060031936011261039b57611fd26138a4565b600080516020614bb783398151915280546001600160a01b031981169091556000906001600160a01b0316600080516020614c578339815191528280a380f35b503461039b578060031936011261039b576020601654604051908152f35b503461039b578060031936011261039b576020601a54604051908152f35b503461039b578060031936011261039b577f00000000000000000000000000000000000000000000000000000000000000006001600160a01b031630036120a7576020604051600080516020614bd78339815191528152f35b60405163703e46dd60e11b8152600490fd5b503461039b57602036600319011261039b576004356120d66139da565b60ff601e541661096057801561091857683635c9adc5dea000008060185410908115612274575b50611d115781546040516323b872dd60e01b81526001600160a01b03916020908290841681878161213389303360048501613683565b03925af180156122695761224a575b506064612151600d548461322e565b0461215c81846131fe565b91612710808402908482041484151715611562576121806103e89160195490613241565b11610918578490815416803b15611d0d578190602460405180948193630852cd8d60e31b83528760048401525af18015611cea57612237575b50601854916121c8838261322e565b6121d960195491611b76848461320b565b91824710611d11577f223c8ad0806f634524940a8595f819c5cfc7b1f4f4f45791269301df0a7e61d59461221184926122199461320b565b6019556131fe565b6018556122268133613af9565b611cb46040519283923396846130c6565b612243909491946130dc565b92386121b9565b6122629060203d602011610b1e57610b0f818361310a565b5038612142565b6040513d86823e3d90fd5b905060195410386120fd565b50602036600319011261039b576004356122986138a4565b3461235b575b806122c5575b6040600080516020614b57833981519152918151903482526020820152a180f35b81546040516323b872dd60e01b8152919060209083906001600160a01b03168186816122f687303360048501613683565b03925af190811561235057600080516020614b5783398151915292604092612331575b506123268160195461320b565b6019559150506122a4565b6123499060203d602011610b1e57610b0f818361310a565b5038612319565b6040513d85823e3d90fd5b6123673460185461320b565b60185561229e565b503461039b578060031936011261039b576123886138a4565b600160ff19601e541617601e557f4cb3183d0bf66f9634b15cfc3539fdddc96c2c9324848af89b56586a6739fec48180a180f35b50604036600319011261039b576123d1613040565b60249182356001600160401b038111611d0d5736602382011215611d0d578060040135926123fe8461312d565b61240b604051918261310a565b84815260209485820193368883830101116125a057818692898993018737830101526001600160a01b037f000000000000000000000000000000000000000000000000000000000000000081163081149081156125ab575b506120a7576124706138a4565b6040516352d1902d60e01b81529083169580826004818a5afa9182918793612577575b50506124b157604051634c9c8ce360e01b8152600481018790528790fd5b859087600080516020614bd7833981519152918281036125625750843b1561254c575080546001600160a01b031916821790556040518592917fbc7cd75a20ee27fd9adebab32041f755214dbc6bffa90cc0225b39da2e5c2d3b8480a281511561252f5750610d809382915190845af4612529613ac9565b91614af3565b93505050503461253d575080f35b63b398979f60e01b8152600490fd5b604051634c9c8ce360e01b815260048101849052fd5b60405190632a87526960e21b82526004820152fd5b9080929350813d83116125a4575b61258f818361310a565b810103126125a05751903880612493565b8580fd5b503d612585565b905081600080516020614bd78339815191525416141538612463565b503461039b578060031936011261039b576125e06138a4565b60ff19601e5416601e557f15de7ad89d29fd1c6d2e6b1e878453569b4080edf34e0105faaa3bd52f0185308180a180f35b503461039b578060031936011261039b576020604051620151808152f35b503461039b578060031936011261039b576002546040516001600160a01b039091168152602090f35b503461039b57602036600319011261039b57602090600435815260158252604060018060a01b0391205416604051908152f35b503461039b578060031936011261039b576126a46139da565b610fd56132b1565b50602080600319360112611d0d576004356126c56139da565b60ff601e541661096057338352600f8252604083206001810154908115612987576003015460ff166129755760078214801561296b575b8015612961575b1561294f57341561091857338452600e8352600a60408520018054918215612942575b50506096810290808204609614901517156107cf5760649004340361091857612750601b546131d9565b601b81905533845260108352604080852090519160c083016001600160401b0381118482101761292e57604052825283820134815260408301428152606084019085825260808501926001845260a0860194898652805490600160401b82101561291a57906127c49160018201815561317a565b969096612906579161280393916005969593518855516001880155516002870155516003860155511515600485019060ff801983541691151516179055565b51910155601b548352601582526040832080546001600160a01b0319163390811790915561283090613a17565b7fa8a1b9e33e503eed12bf7e7c8c01c7f3b60217a496bddd0f5db351dd8c056c1c612866601b54604051918291339534846130c6565b0390a2338252600e815260066040832001908282549283612898575b506001600080516020614c978339815191525580f35b556018549082821015806128fc575b6128b3575b8390612882565b6128de837f3437b9ea7fa19c6d233dd70cc787a70fab87cee64d8ba4571512cc84402748f9936131fe565b6018556128eb8333613af9565b6040519283523392a23880806128ac565b50824710156128a7565b634e487b7160e01b8a5260048a905260248afd5b634e487b7160e01b8b52604160045260248bfd5b634e487b7160e01b87526041600452602487fd5b8091925091553880612726565b604051634dc7f5ff60e11b8152600490fd5b50601e8214612703565b50600f82146126fc565b604051631ecb2c4f60e31b8152600490fd5b604051634065aaf160e11b8152600490fd5b503461039b578060031936011261039b576020600c54604051908152f35b503461039b578060031936011261039b57602060ff601e54166040519015158152f35b503461039b578060031936011261039b57601e5460405160089190911c6001600160a01b03168152602090f35b503461039b57602036600319011261039b576118cb906002906040906001600160a01b03612a33613040565b168152600e602052200154612a478161392b565b929091604051938493846130c6565b503461039b578060031936011261039b576020601954604051908152f35b503461039b57602036600319011261039b57610160906001600160a01b039060409082612a9f613040565b168152600e60205220908154169060018101549060028101546003820154600483015460ff600585015416600685015491600786015493600887015495600a6009890154980154986040519a8b5260208b015260408a015260608901526080880152151560a087015260c086015260e0850152610100840152610120830152610140820152f35b503461039b57602036600319011261039b576020612b456004356138dd565b604051908152f35b503461039b578060031936011261039b57546040516001600160a01b039091168152602090f35b503461039b5760a036600319011261039b57612b8e613040565b612b96613056565b90612b9f61306c565b612ba7613082565b916084356001600160a01b038181169291839003612d6b57600080516020614cb78339815191529485549660ff8860401c16159560018060401b03891698891580612d64575b6001809b149081612d5a575b159081612d51575b50612d3f576001600160401b031981168a1789558492839189612d24575b50612c286146b7565b612c306146b7565b612c3933613842565b612c416146b7565b612c496146b7565b612c516146b7565b8a600080516020614c97833981519152558160018060a01b03199716878d5416178c5516858a5416178955168360025416176002551681600354161760035560045416176004556019600555600f6006556003600755600260085560036009556002600a556005600b556019600c556032600d556203f48060165561010161ffff19601754161760175542601c55612ce7578280f35b805460ff60401b191690556040519081527fc7f505b2f371ae2175ee4913f4499e1f2633a7b5936321eed1cdaeb6115181d290602090a138808280f35b6001600160481b0319166001600160401b01178a5538612c1f565b60405163f92ee8a960e01b8152600490fd5b90501538612c01565b303b159150612bf9565b5087612bed565b8680fd5b503461039b578060031936011261039b57602090604051908152f35b503461039b578060031936011261039b57602060405160028152f35b503461039b57604036600319011261039b57612dc1613040565b6001600160a01b0390811682526011602052604082208054602435939084101561039b5750602092612df291613098565b9190546040519260031b1c168152f35b503461039b57602080600319360112611d0d57612e1d613040565b338352600e808352604084205490926001600160a01b039290918316612fbf578216338114612fad578015610d845733808652600e8352604080872080546001600160a01b0319168417905582875260118085529087209091612e7f91613196565b338652600e835283604087205416948487965b1680151580612fa3575b15612f795780885281855260408820906002820180546001810191828211612f65579282612f028b9693837fa0eea20e678cb42233c1c456c84cedce7ea53fa360bb71bf3b761b760956777060408e8b99612f229b5586825191868352820152a261392b565b50612f0c8261392b565b5090808203612f28575b505050505416976131d9565b96612e92565b612f597fea8384d3ca7bf5b7510d3faee44a3774406c1fd3ac14fff110a8c98d47a2595693604051938493846130c6565b0390a238808080612f16565b634e487b7160e01b8c52600487905260248cfd5b8784337fa6dbb5aa28f35437de94d685d66edce5fb4812196b4984b91dfd5a7b38c0fb308380a380f35b5060148710612e9c565b604051631acade8960e31b8152600490fd5b60405163682a906560e01b8152600490fd5b503461039b578060031936011261039b576020600a54604051908152f35b503461039b57604036600319011261039b57600435801515809103611d0d576024358015158091036118cf576130236138a4565b60ff61ff006017549260081b1692169061ffff1916171760175580f35b600435906001600160a01b038216820361162c57565b602435906001600160a01b038216820361162c57565b604435906001600160a01b038216820361162c57565b606435906001600160a01b038216820361162c57565b80548210156130b05760005260206000200190600090565b634e487b7160e01b600052603260045260246000fd5b6040919493926060820195825260208201520152565b6001600160401b03811161184757604052565b608081019081106001600160401b0382111761184757604052565b601f909101601f19168101906001600160401b0382119082101761184757604052565b6001600160401b03811161184757601f01601f191660200190565b604090600319011261162c576004359060243590565b80548210156130b05760005260206000209060021b0190600090565b80548210156130b0576000526006602060002091020190600090565b80549190600160401b83101561184757826131b99160016131d795018155613098565b90919060018060a01b038084549260031b9316831b921b1916179055565b565b60001981146131e85760010190565b634e487b7160e01b600052601160045260246000fd5b919082039182116131e857565b919082018092116131e857565b908160011b91808304600214901517156131e857565b818102929181159184041417156131e857565b811561324b570490565b634e487b7160e01b600052601260045260246000fd5b9081602091031261162c5751801515810361162c5790565b6001600160a01b039091168152602081019190915260400190565b606091949392608082019582526020820152600060408201520152565b6000338152602090600f8252604091828220600180820154158015613675575b613664573384526010835284842084919082825b613563575b505050801561355257338452600e835261330a816003878720015461320b565b338552600e8452858520600481015480921161353c575b5050801561352e57338452600e835260038585200161334182825461320b565b90558060011c9184928047101580613525575b613513575b613361614473565b90670de0b6b3a7640000908181029181830414901517156134ff579061338691613241565b855487516370a0823160e01b8152306004820152879492916001600160a01b0316908781602481855afa9081156134f5579083918a916134c0575b501015806134b7575b613439575b505091600080516020614b9783398151915291600e95949388519081528786820152600080516020614c77833981519152893392a254906134168851928392339684613294565b0390a2338352522060046003820154910154111561343057565b6131d7336141f8565b90919350858851809263a9059cbb60e01b8252818a8161345d883360048401613279565b03925af180156134ad5791600080516020614b978339815191529391600e97969593613490575b509394958193506133cf565b6134a690873d8911610b1e57610b0f818361310a565b5038613484565b88513d89823e3d90fd5b508115156133ca565b809250898092503d83116134ee575b6134d9818361310a565b810103126134ea57829051386133c1565b8880fd5b503d6134cf565b8a513d8b823e3d90fd5b634e487b7160e01b87526011600452602487fd5b925061351f8333613af9565b82613359565b50801515613354565b50505050506131d7336141f8565b61354b925060030154906131fe565b3880613321565b8451630fec21fd60e21b8152600490fd5b815481101561365f57613576818361317a565b508360ff60048093015416156136555750613594610ea8838561317a565b90816135aa575b5050908280925b0190916132e5565b9094856135b69161320b565b946135c66005610ec5858761317a565b905560026135d4838561317a565b50015460036135e3848661317a565b500154906201518091828102928184041490151715613642579161360b86959492869461320b565b42101561361b575b50919261359b565b613625828561317a565b5001805460ff1916905561363c611363828561317a565b38613613565b634e487b7160e01b8a526011835260248afd5b92918391506135a2565b6132ea565b8451634065aaf160e11b8152600490fd5b5060ff6003830154166132d1565b6001600160a01b03918216815291166020820152604081019190915260600190565b906001600160a01b038083169182158015613838575b610d8457811691828114612fad576000818152600e60205260408120928354938185169486861461382e576001600160a01b0319168617905583613726575b506137228495600080516020614c178339815191529394958352601160205260408320613196565b80a4565b94838252601195601160205260408320835b81548082101561380d5783908761374f8486613098565b939054600394851b1c1614613768575050600101613738565b60009a929195969798999a94939419928382019182116137fb5750906131b9846137956137a39488613098565b905490891b1c169186613098565b825480156137e75791600080516020614c1783398151915296959391613722959301926137d08484613098565b81939154921b1b19169055555b95949392506136fa565b634e487b7160e01b87526031600452602487fd5b634e487b7160e01b8952600452602488fd5b50505050600080516020614c178339815191529293949550613722906137dd565b5050505050505050565b50818116156136bb565b6001600160a01b0390811690811561388b57600080516020614bb783398151915280546001600160a01b03198116841790915516600080516020614c57833981519152600080a3565b604051631e4fbdf760e01b815260006004820152602490fd5b600080516020614bb7833981519152546001600160a01b031633036138c557565b60405163118cdaa760e01b8152336004820152602490fd5b600f81101561392557600a81101561391f576005811015613919576003811015613913576001111561390e57600090565b600190565b50600390565b50600590565b50600a90565b50600f90565b620186a08110156139d1576175308110156139c8576127108110156139bf57610bb88110156139b6576103e88110156139ad5761012c8110156139a457606481101561399b57601e81101561399257600a111561398a57600090600090565b600190600590565b50600290600a90565b50600390600f90565b50600490601490565b50600590601990565b50600690601e90565b50600790602390565b50600890602890565b50600990602d90565b600080516020614c9783398151915260028154146139f85760029055565b604051633ee5aeb560e01b8152600490fd5b80156131e8576000190190565b60018060a01b0380600092168252600f6020526040822090600182015415159182613ab9575b50600e602052604083206005810160ff815416151584151514613ab257805460ff191660ff851515161790555416918215613aad5760019260409215613a94578152600e6020522001613a9081546131d9565b9055565b81522001805480613aa4575b5050565b613a9090613a0a565b505050565b5050505050565b6003015460ff1615915038613a3d565b3d15613af4573d90613ada8261312d565b91613ae8604051938461310a565b82523d6000602084013e565b606090565b8115613aa057814710610b5657600080809381935af1613b17613ac9565b5015613b1f57565b604051633d2cec6f60e21b8152600490fd5b6003810154613b3f81614abf565b9062015180613b526002850154426131fe565b0490808211613ba7575b508015613b9f57613b81633b9aca0091613b7c600594600187015461322e565b61322e565b04910154808211613b93575050600090565b613b9c916131fe565b90565b505050600090565b905038613b5c565b80518210156130b05760209160051b010190565b80549060009081815582613bd657505050565b6002906001600160fe1b0384168403613c21578252602082209260021b8301925b838110613c045750505050565b808360049255836001820155838382015583600382015501613bf7565b634e487b7160e01b83526011600452602483fd5b60008181526013602052604090208054909291906001600160401b0381116118475760405193613c6b60208360051b018661310a565b818552602085019060005260206000206000915b8383106141b0575050505060005b8351811015614197576001600160a01b03613ca88286613baf565b51511690613cb68186613baf565b506040613cc38287613baf565b5101516060613cd28388613baf565b5101519280600052600e6020526040600020613cec614473565b906000936000908015158061418d575b614179575b50861515806140ff575b15613e82575060018060a01b0360005416956020604051809863a9059cbb60e01b825281600081613d40878b60048401613279565b03925af1968715613e7657600197613e57575b50905b613d73670de0b6b3a7640000613d6c858561322e565b048661320b565b9485613dc4575b5050505050837fae629b396150638d6eb6de457cbffe5d618a10c8cc199a94976bed2b16ecd9936020858060a01b03613db3868b613baf565b51511693604051908152a301613c8d565b7fe83062c7bae5146a0afc41b3a8342f225ed2581a8e234e0ba69d9ff8c53a48d6608086926003850196613df98a895461320b565b809855604051968a885285600080516020614c77833981519152604060049a8b6020820152a260405192835260208301526040820152426060820152a201541115613e48575b80808080613d7a565b613e51906141f8565b38613e3f565b613e6f9060203d602011610b1e57610b0f818361310a565b5038613d53565b6040513d6000823e3d90fd5b9095613e9783670de0b6b3a76400009261322e565b0480159690871580806140ea575b806140d5575b613efc575b6001985083159081613ef4575b5080613eea575b613ecf575b50613d56565b613ee39195613ede8287613af9565b61320b565b9338613ec9565b5080471015613ec4565b905038613ebd565b60195498613f0a8a8461322e565b90613f1c60185492611b76868561320b565b90612710908582810204821417156131e857613f3d836103e8928702613241565b1115806140cc575b613f51575b5050613eb0565b6064613f5f600c548361322e565b0490613f6b82826131fe565b9b60018060a01b0360005416936040516370a0823160e01b8152306004820152602081602481895afa8015613e76578491600091614097575b5010158061408e575b80614084575b613fc0575b505050613f4a565b613fd2939495985086611c0d9161320b565b601955813b1561162c57600091602483926040519485938492630852cd8d60e31b845260048401525af18015613e7657614075575b5060018060a01b0360005416976020604051809a63a9059cbb60e01b825281600081614037878d60048401613279565b03925af1988915613e7657600199614056575b50923880808080613fb8565b61406e9060203d602011610b1e57610b0f818361310a565b503861404a565b61407e906130dc565b38614007565b5086471015613fb3565b508d1515613fad565b9150506020813d6020116140c4575b816140b36020938361310a565b8101031261162c5783905138613fa4565b3d91506140a6565b50801515613f45565b50683635c9adc5dea000006019541015613eab565b50683635c9adc5dea000006018541015613ea5565b506000546040516370a0823160e01b815230600482015290602090829060249082906001600160a01b03165afa8015613e76578891600091614144575b501015613d0b565b9150506020813d602011614171575b816141606020938361310a565b8101031261162c578790513861413c565b3d9150614153565b9094506141868185613af9565b9338613d01565b5080471015613cfc565b5090915060005260136020526131d76040600020613bc3565b600460206001926040516141c3816130ef565b848060a01b03865416815284860154838201526002860154604082015260038601546060820152815201920192019190613c7f565b60018060a01b03808216916000838152602092600f8452604092838320926003840190815460ff9460ff821615614236575b50505050505050505050565b600160ff199283168117909455601089528783208a9693958695948694939285875b614381575b5050509886937ff3a670cd3af7d64b488926880889d08a8585a138ff455227af6737339a1ec2629693829a9998937f920bb94eb3842a728db98228c375ff6b00c5bc5a54fac6736155517a0a20a61a9d9c85859996151580614377575b614367575b505085614348575b898352600e8d52838320600581018054938416905554169060ff168061433f575b8061432e575b614315575b5050519283525087820152a2549051908152a23880808080808080808061422a565b815220016143238154613a0a565b9055388381806142f3565b5080825283838320015415156142ee565b508015156142e8565b898352600e8d5260068484200161436087825461320b565b90556142c7565b61437091613af9565b38876142bf565b50804710156142ba565b9091929394959697998254821015614467575061439e818361317a565b5098836004809b0154161561445a57886143b8838561317a565b500154808a1b908082046002149015171561444757916144188a9594939261012c6143e78895600b549061322e565b0490846143f4858861317a565b50015482811061443b579061440c83614412936131fe565b9061320b565b9d61320b565b9a614423828561317a565b50018881541690555b018e9a99989796959493614258565b8c92506144129161320b565b634e487b7160e01b895260118b52602489fd5b999850908780939261442c565b9997969594939261425d565b601954801580156144e1575b6144d45760185490670de0b6b3a7640000918281029281840414901517156131e8576144aa91613241565b67016345785d8a00008082106144cf5750678ac7230489e800008082116144cf575090565b905090565b50670de0b6b3a764000090565b50683635c9adc5dea000006018541061447f565b6001600160a01b039081166000818152600f602090815260408083206001818101805496979096939590949291841580156146a9575b61465e57601084528682208054839291835b828110614669575050505061382e57600282019661455f88546016549061320b565b42111561465e57600383837f57025f0027038907eda728b59164fb63d06048f42e618a35267e6a12e49b2e469a8a9654998d8352600e895260ff6005898520928354169201541680614655575b80614643575b614629575b508c8252600e88528187812095816004600589019860ff19998a815416905582898201550155818555555501908154169055846145fa575b5051928352820152a2565b8481526012835261460c828220613bc3565b848152601483522080546001600160a01b031916905583386145ef565b825260018783200161463b8154613a0a565b9055386145b7565b508083526001888420015415156145b2565b508015156145ac565b505050505050505050565b60ff6004614677838561317a565b50015416614687575b830161453d565b936146a1849182614698888661317a565b5001549061320b565b949050614680565b5060ff60038401541661452b565b60ff600080516020614cb78339815191525460401c16156146d457565b604051631afcd79f60e31b8152600490fd5b60018060a01b0381166000818152600e60205260409182822092600f60205280832060ff60058601541615908115614810575b8115614803575b506147fa5760048401936003855491019361473d855480936131fe565b888181116147d1575b505087156147c65787471061479f57509061477087600080516020614c778339815191529361320b565b845561477c8787613af9565b805187815260026020820152a25490541115614796575090565b613b9c906141f8565b9692955050600080516020614bf7833981519152935080925051908152846020820152a290565b965050505050505090565b81995084600080516020614bf78339815191529187939b82519182526020820152a23880614746565b50509250505090565b6001915001541538614720565b600381015460ff169150614719565b60018060a01b0381166000818152600e60205260409182822092600f60205280832060ff60058601541615908115614905575b81156148f8575b506147fa57600484019360038554910193614876855480936131fe565b888181116148cf575b505087156147c65787471061479f5750906148a987600080516020614c778339815191529361320b565b84556148b58787613af9565b805187815260036020820152a25490541115614796575090565b81995084600080516020614bf78339815191529187939b82519182526020820152a2388061487f565b6001915001541538614859565b600381015460ff169150614852565b908115614abb57601854683635c9adc5dea00000808210908115614aaf575b50614aaa5747614943848361320b565b11614aaa57612710830261270f19848204016131e857614966826103e892613241565b11614aaa576019549261498661497c858361322e565b611b76838561320b565b80158015614aa1575b614a9a5760009460018060a01b038654169060409485516370a0823160e01b8152306004820152602081602481875afa908115614a90579083918a91614a5b575b5010614a515783889392611c0d876149e79461320b565b601955803b15611d0d5781906024865180948193630852cd8d60e31b83528760048401525af18015614a4757600080516020614c37833981519152959650614a38575b5082519182526020820152a1565b614a41906130dc565b38614a2a565b84513d88823e3d90fd5b5050505050509050565b9150506020813d602011614a88575b81614a776020938361310a565b810103126134ea57829051386149d0565b3d9150614a6a565b87513d8b823e3d90fd5b5050509050565b5084811161498f565b509050565b90506019541038614933565b9050565b60078114614aeb57600f8114614ae357601e14614adb57600090565b6301312d0090565b5062fe502b90565b5062cb735690565b90614b1a5750805115614b0857602081519101fd5b60405163d6bda27560e01b8152600490fd5b81511580614b4d575b614b2b575090565b604051639996b31560e01b81526001600160a01b039091166004820152602490fd5b50803b15614b2356fe38f8a0c92f4c5b0b6877f878cb4c0c8d348a47b76d716c8e78f425043df9515b62c4ea4229c396c9b5c33779ec09ed411b29ed8782e48ac358eaa9e8aa58a9b06fcebd0a2ce98b28cb391d6008bbc769378c9a4919628e11639cb575cd320fcc9016d09d72d40fdae2fd8ceac6b6234c7706214fd39c1cd1e609a0528c199300360894a13ba1a3210667c828492db98dca3e2076cc3735a920a3ca505d382bbcb5987aab1afd379f6695f1068869ee8ca6a0d02304c57935a9cc3d3ea2e51e4df8b9fe4d008320e6f048c61e41e9cc56ce351354ad0cb9a868bd3c4bd6928fd50ec3929061cbbbeecb325623e7d5a86c3dae11cb8a22ca45dc0972955657da258be0079c531659141344cd1fd0a4f28419497f9722a3daafe3b4186f6b6457e0f381583145e90b82cc5e529bf4fc4d0e44397174cdf145c4251ac33ef195a4249b779b17422d0df92223018b32b4d1fa46e071723d6817e2486d003becc55f00f0c57e16840df040f15088dc2f81fe391c3923bec73e23a9662efc9c229c6a00a264697066735822122022137541aa4b7dd470762d127a909a9d7ac5d599a24d59a0fad39421bda8606d64736f6c63430008160033",
  "linkReferences": {},
  "deployedLinkReferences": {}
}