{
  "_format": "hh-sol-artifact-1",
  "contractName": "JinbaoProtocolV4",
  "sourceName": "contracts/JinbaoProtocolV4.sol",
  "abi": [
    {
      "inputs": [],
      "stateMutability": "nonpayable",
      "type": "constructor"
    },
    {
      "inputs": [],
      "name": "ActionTooEarly",
      "type": "error"
    },
    {
      "inputs": [
        {
          "internalType": "address",
          "name": "target",
          "type": "address"
        }
      ],
      "name": "AddressEmptyCode",
      "type": "error"
    },
    {
      "inputs": [],
      "name": "AlreadyBound",
      "type": "error"
    },
    {
      "inputs": [],
      "name": "AlreadyExited",
      "type": "error"
    },
    {
      "inputs": [],
      "name": "ContractPaused",
      "type": "error"
    },
    {
      "inputs": [
        {
          "internalType": "address",
          "name": "implementation",
          "type": "address"
        }
      ],
      "name": "ERC1967InvalidImplementation",
      "type": "error"
    },
    {
      "inputs": [],
      "name": "ERC1967NonPayable",
      "type": "error"
    },
    {
      "inputs": [],
      "name": "FailedCall",
      "type": "error"
    },
    {
      "inputs": [],
      "name": "InsufficientBalance",
      "type": "error"
    },
    {
      "inputs": [],
      "name": "InsufficientNativeBalance",
      "type": "error"
    },
    {
      "inputs": [],
      "name": "InvalidAddress",
      "type": "error"
    },
    {
      "inputs": [],
      "name": "InvalidAmount",
      "type": "error"
    },
    {
      "inputs": [],
      "name": "InvalidCycle",
      "type": "error"
    },
    {
      "inputs": [],
      "name": "InvalidInitialization",
      "type": "error"
    },
    {
      "inputs": [],
      "name": "LowLiquidity",
      "type": "error"
    },
    {
      "inputs": [],
      "name": "NativeTransferFailed",
      "type": "error"
    },
    {
      "inputs": [],
      "name": "NoRewards",
      "type": "error"
    },
    {
      "inputs": [],
      "name": "NotActive",
      "type": "error"
    },
    {
      "inputs": [],
      "name": "NotInitializing",
      "type": "error"
    },
    {
      "inputs": [],
      "name": "NothingToRedeem",
      "type": "error"
    },
    {
      "inputs": [
        {
          "internalType": "address",
          "name": "owner",
          "type": "address"
        }
      ],
      "name": "OwnableInvalidOwner",
      "type": "error"
    },
    {
      "inputs": [
        {
          "internalType": "address",
          "name": "account",
          "type": "address"
        }
      ],
      "name": "OwnableUnauthorizedAccount",
      "type": "error"
    },
    {
      "inputs": [],
      "name": "ReentrancyGuardReentrantCall",
      "type": "error"
    },
    {
      "inputs": [],
      "name": "SelfReference",
      "type": "error"
    },
    {
      "inputs": [
        {
          "internalType": "string",
          "name": "reason",
          "type": "string"
        }
      ],
      "name": "TransferFromFailed",
      "type": "error"
    },
    {
      "inputs": [],
      "name": "TransferFromFailedLowLevel",
      "type": "error"
    },
    {
      "inputs": [],
      "name": "UUPSUnauthorizedCallContext",
      "type": "error"
    },
    {
      "inputs": [
        {
          "internalType": "bytes32",
          "name": "slot",
          "type": "bytes32"
        }
      ],
      "name": "UUPSUnsupportedProxiableUUID",
      "type": "error"
    },
    {
      "inputs": [],
      "name": "Unauthorized",
      "type": "error"
    },
    {
      "anonymous": false,
      "inputs": [
        {
          "indexed": true,
          "internalType": "address",
          "name": "user",
          "type": "address"
        },
        {
          "indexed": true,
          "internalType": "address",
          "name": "referrer",
          "type": "address"
        }
      ],
      "name": "BoundReferrer",
      "type": "event"
    },
    {
      "anonymous": false,
      "inputs": [
        {
          "indexed": false,
          "internalType": "uint256",
          "name": "mcAmount",
          "type": "uint256"
        },
        {
          "indexed": false,
          "internalType": "uint256",
          "name": "jbcBurned",
          "type": "uint256"
        }
      ],
      "name": "BuybackAndBurn",
      "type": "event"
    },
    {
      "anonymous": false,
      "inputs": [
        {
          "indexed": true,
          "internalType": "address",
          "name": "user",
          "type": "address"
        },
        {
          "indexed": false,
          "internalType": "uint256",
          "name": "mcAmount",
          "type": "uint256"
        },
        {
          "indexed": false,
          "internalType": "uint256",
          "name": "jbcAmount",
          "type": "uint256"
        },
        {
          "indexed": false,
          "internalType": "uint256",
          "name": "jbcPrice",
          "type": "uint256"
        },
        {
          "indexed": false,
          "internalType": "uint256",
          "name": "timestamp",
          "type": "uint256"
        }
      ],
      "name": "DifferentialRewardDistributed",
      "type": "event"
    },
    {
      "anonymous": false,
      "inputs": [
        {
          "indexed": true,
          "internalType": "uint256",
          "name": "stakeId",
          "type": "uint256"
        },
        {
          "indexed": true,
          "internalType": "address",
          "name": "upline",
          "type": "address"
        },
        {
          "indexed": false,
          "internalType": "uint256",
          "name": "amount",
          "type": "uint256"
        }
      ],
      "name": "DifferentialRewardRecorded",
      "type": "event"
    },
    {
      "anonymous": false,
      "inputs": [
        {
          "indexed": true,
          "internalType": "uint256",
          "name": "stakeId",
          "type": "uint256"
        },
        {
          "indexed": true,
          "internalType": "address",
          "name": "upline",
          "type": "address"
        },
        {
          "indexed": false,
          "internalType": "uint256",
          "name": "amount",
          "type": "uint256"
        }
      ],
      "name": "DifferentialRewardReleased",
      "type": "event"
    },
    {
      "anonymous": false,
      "inputs": [
        {
          "indexed": false,
          "internalType": "uint256",
          "name": "direct",
          "type": "uint256"
        },
        {
          "indexed": false,
          "internalType": "uint256",
          "name": "level",
          "type": "uint256"
        },
        {
          "indexed": false,
          "internalType": "uint256",
          "name": "marketing",
          "type": "uint256"
        },
        {
          "indexed": false,
          "internalType": "uint256",
          "name": "buyback",
          "type": "uint256"
        },
        {
          "indexed": false,
          "internalType": "uint256",
          "name": "lpInjection",
          "type": "uint256"
        },
        {
          "indexed": false,
          "internalType": "uint256",
          "name": "treasury",
          "type": "uint256"
        }
      ],
      "name": "DistributionConfigUpdated",
      "type": "event"
    },
    {
      "anonymous": false,
      "inputs": [],
      "name": "EmergencyPaused",
      "type": "event"
    },
    {
      "anonymous": false,
      "inputs": [],
      "name": "EmergencyUnpaused",
      "type": "event"
    },
    {
      "anonymous": false,
      "inputs": [
        {
          "indexed": true,
          "internalType": "address",
          "name": "user",
          "type": "address"
        },
        {
          "indexed": false,
          "internalType": "uint256",
          "name": "ticketId",
          "type": "uint256"
        }
      ],
      "name": "Exited",
      "type": "event"
    },
    {
      "anonymous": false,
      "inputs": [
        {
          "indexed": true,
          "internalType": "address",
          "name": "user",
          "type": "address"
        },
        {
          "indexed": false,
          "internalType": "uint256",
          "name": "amount",
          "type": "uint256"
        }
      ],
      "name": "FeeRefunded",
      "type": "event"
    },
    {
      "anonymous": false,
      "inputs": [
        {
          "indexed": false,
          "internalType": "uint64",
          "name": "version",
          "type": "uint64"
        }
      ],
      "name": "Initialized",
      "type": "event"
    },
    {
      "anonymous": false,
      "inputs": [
        {
          "indexed": false,
          "internalType": "uint256",
          "name": "mcAmount",
          "type": "uint256"
        },
        {
          "indexed": false,
          "internalType": "uint256",
          "name": "jbcAmount",
          "type": "uint256"
        }
      ],
      "name": "LiquidityAdded",
      "type": "event"
    },
    {
      "anonymous": false,
      "inputs": [
        {
          "indexed": true,
          "internalType": "address",
          "name": "user",
          "type": "address"
        },
        {
          "indexed": false,
          "internalType": "uint256",
          "name": "amount",
          "type": "uint256"
        },
        {
          "indexed": false,
          "internalType": "uint256",
          "name": "cycleDays",
          "type": "uint256"
        },
        {
          "indexed": false,
          "internalType": "uint256",
          "name": "stakeId",
          "type": "uint256"
        }
      ],
      "name": "LiquidityStaked",
      "type": "event"
    },
    {
      "anonymous": false,
      "inputs": [
        {
          "indexed": true,
          "internalType": "address",
          "name": "from",
          "type": "address"
        },
        {
          "indexed": false,
          "internalType": "uint256",
          "name": "amount",
          "type": "uint256"
        }
      ],
      "name": "NativeMCReceived",
      "type": "event"
    },
    {
      "anonymous": false,
      "inputs": [
        {
          "indexed": true,
          "internalType": "address",
          "name": "to",
          "type": "address"
        },
        {
          "indexed": false,
          "internalType": "uint256",
          "name": "amount",
          "type": "uint256"
        }
      ],
      "name": "NativeMCWithdrawn",
      "type": "event"
    },
    {
      "anonymous": false,
      "inputs": [
        {
          "indexed": true,
          "internalType": "address",
          "name": "previousOwner",
          "type": "address"
        },
        {
          "indexed": true,
          "internalType": "address",
          "name": "newOwner",
          "type": "address"
        }
      ],
      "name": "OwnershipTransferred",
      "type": "event"
    },
    {
      "anonymous": false,
      "inputs": [
        {
          "indexed": true,
          "internalType": "address",
          "name": "user",
          "type": "address"
        },
        {
          "indexed": false,
          "internalType": "uint256",
          "name": "principal",
          "type": "uint256"
        },
        {
          "indexed": false,
          "internalType": "uint256",
          "name": "fee",
          "type": "uint256"
        }
      ],
      "name": "Redeemed",
      "type": "event"
    },
    {
      "anonymous": false,
      "inputs": [
        {
          "indexed": true,
          "internalType": "address",
          "name": "user",
          "type": "address"
        },
        {
          "indexed": true,
          "internalType": "address",
          "name": "from",
          "type": "address"
        },
        {
          "indexed": false,
          "internalType": "uint256",
          "name": "mcAmount",
          "type": "uint256"
        },
        {
          "indexed": false,
          "internalType": "uint256",
          "name": "jbcAmount",
          "type": "uint256"
        },
        {
          "indexed": false,
          "internalType": "uint8",
          "name": "rewardType",
          "type": "uint8"
        },
        {
          "indexed": false,
          "internalType": "uint256",
          "name": "ticketId",
          "type": "uint256"
        }
      ],
      "name": "ReferralRewardPaid",
      "type": "event"
    },
    {
      "anonymous": false,
      "inputs": [
        {
          "indexed": true,
          "internalType": "address",
          "name": "user",
          "type": "address"
        },
        {
          "indexed": true,
          "internalType": "address",
          "name": "oldReferrer",
          "type": "address"
        },
        {
          "indexed": true,
          "internalType": "address",
          "name": "newReferrer",
          "type": "address"
        }
      ],
      "name": "ReferrerChanged",
      "type": "event"
    },
    {
      "anonymous": false,
      "inputs": [
        {
          "indexed": true,
          "internalType": "address",
          "name": "user",
          "type": "address"
        },
        {
          "indexed": false,
          "internalType": "uint256",
          "name": "amount",
          "type": "uint256"
        },
        {
          "indexed": false,
          "internalType": "uint256",
          "name": "cappedAmount",
          "type": "uint256"
        }
      ],
      "name": "RewardCapped",
      "type": "event"
    },
    {
      "anonymous": false,
      "inputs": [
        {
          "indexed": true,
          "internalType": "address",
          "name": "user",
          "type": "address"
        },
        {
          "indexed": false,
          "internalType": "uint256",
          "name": "mcAmount",
          "type": "uint256"
        },
        {
          "indexed": false,
          "internalType": "uint256",
          "name": "jbcAmount",
          "type": "uint256"
        },
        {
          "indexed": false,
          "internalType": "uint8",
          "name": "rewardType",
          "type": "uint8"
        },
        {
          "indexed": false,
          "internalType": "uint256",
          "name": "ticketId",
          "type": "uint256"
        }
      ],
      "name": "RewardClaimed",
      "type": "event"
    },
    {
      "anonymous": false,
      "inputs": [
        {
          "indexed": true,
          "internalType": "address",
          "name": "user",
          "type": "address"
        },
        {
          "indexed": false,
          "internalType": "uint256",
          "name": "amount",
          "type": "uint256"
        },
        {
          "indexed": false,
          "internalType": "uint8",
          "name": "rewardType",
          "type": "uint8"
        }
      ],
      "name": "RewardPaid",
      "type": "event"
    },
    {
      "anonymous": false,
      "inputs": [
        {
          "indexed": false,
          "internalType": "uint256",
          "name": "buyTax",
          "type": "uint256"
        },
        {
          "indexed": false,
          "internalType": "uint256",
          "name": "sellTax",
          "type": "uint256"
        }
      ],
      "name": "SwapTaxesUpdated",
      "type": "event"
    },
    {
      "anonymous": false,
      "inputs": [
        {
          "indexed": true,
          "internalType": "address",
          "name": "user",
          "type": "address"
        },
        {
          "indexed": false,
          "internalType": "uint256",
          "name": "jbcAmount",
          "type": "uint256"
        },
        {
          "indexed": false,
          "internalType": "uint256",
          "name": "mcAmount",
          "type": "uint256"
        },
        {
          "indexed": false,
          "internalType": "uint256",
          "name": "tax",
          "type": "uint256"
        }
      ],
      "name": "SwappedJBCToMC",
      "type": "event"
    },
    {
      "anonymous": false,
      "inputs": [
        {
          "indexed": true,
          "internalType": "address",
          "name": "user",
          "type": "address"
        },
        {
          "indexed": false,
          "internalType": "uint256",
          "name": "mcAmount",
          "type": "uint256"
        },
        {
          "indexed": false,
          "internalType": "uint256",
          "name": "jbcAmount",
          "type": "uint256"
        },
        {
          "indexed": false,
          "internalType": "uint256",
          "name": "tax",
          "type": "uint256"
        }
      ],
      "name": "SwappedMCToJBC",
      "type": "event"
    },
    {
      "anonymous": false,
      "inputs": [
        {
          "indexed": true,
          "internalType": "address",
          "name": "user",
          "type": "address"
        },
        {
          "indexed": false,
          "internalType": "uint256",
          "name": "oldCount",
          "type": "uint256"
        },
        {
          "indexed": false,
          "internalType": "uint256",
          "name": "newCount",
          "type": "uint256"
        }
      ],
      "name": "TeamCountUpdated",
      "type": "event"
    },
    {
      "anonymous": false,
      "inputs": [
        {
          "indexed": true,
          "internalType": "address",
          "name": "user",
          "type": "address"
        },
        {
          "indexed": false,
          "internalType": "uint256",
          "name": "ticketId",
          "type": "uint256"
        },
        {
          "indexed": false,
          "internalType": "uint256",
          "name": "amount",
          "type": "uint256"
        }
      ],
      "name": "TicketExpired",
      "type": "event"
    },
    {
      "anonymous": false,
      "inputs": [
        {
          "indexed": true,
          "internalType": "address",
          "name": "user",
          "type": "address"
        },
        {
          "indexed": false,
          "internalType": "uint256",
          "name": "amount",
          "type": "uint256"
        },
        {
          "indexed": false,
          "internalType": "uint256",
          "name": "ticketId",
          "type": "uint256"
        }
      ],
      "name": "TicketPurchased",
      "type": "event"
    },
    {
      "anonymous": false,
      "inputs": [
        {
          "indexed": true,
          "internalType": "address",
          "name": "implementation",
          "type": "address"
        }
      ],
      "name": "Upgraded",
      "type": "event"
    },
    {
      "anonymous": false,
      "inputs": [
        {
          "indexed": true,
          "internalType": "address",
          "name": "user",
          "type": "address"
        },
        {
          "indexed": false,
          "internalType": "uint256",
          "name": "activeDirects",
          "type": "uint256"
        },
        {
          "indexed": false,
          "internalType": "uint256",
          "name": "totalRevenue",
          "type": "uint256"
        },
        {
          "indexed": false,
          "internalType": "uint256",
          "name": "currentCap",
          "type": "uint256"
        },
        {
          "indexed": false,
          "internalType": "uint256",
          "name": "refundFeeAmount",
          "type": "uint256"
        }
      ],
      "name": "UserDataUpdated",
      "type": "event"
    },
    {
      "anonymous": false,
      "inputs": [
        {
          "indexed": true,
          "internalType": "address",
          "name": "user",
          "type": "address"
        },
        {
          "indexed": false,
          "internalType": "uint256",
          "name": "oldLevel",
          "type": "uint256"
        },
        {
          "indexed": false,
          "internalType": "uint256",
          "name": "newLevel",
          "type": "uint256"
        },
        {
          "indexed": false,
          "internalType": "uint256",
          "name": "teamCount",
          "type": "uint256"
        }
      ],
      "name": "UserLevelChanged",
      "type": "event"
    },
    {
      "inputs": [],
      "name": "REWARD_DIFFERENTIAL",
      "outputs": [
        {
          "internalType": "uint8",
          "name": "",
          "type": "uint8"
        }
      ],
      "stateMutability": "view",
      "type": "function"
    },
    {
      "inputs": [],
      "name": "REWARD_DIRECT",
      "outputs": [
        {
          "internalType": "uint8",
          "name": "",
          "type": "uint8"
        }
      ],
      "stateMutability": "view",
      "type": "function"
    },
    {
      "inputs": [],
      "name": "REWARD_DYNAMIC",
      "outputs": [
        {
          "internalType": "uint8",
          "name": "",
          "type": "uint8"
        }
      ],
      "stateMutability": "view",
      "type": "function"
    },
    {
      "inputs": [],
      "name": "REWARD_LEVEL",
      "outputs": [
        {
          "internalType": "uint8",
          "name": "",
          "type": "uint8"
        }
      ],
      "stateMutability": "view",
      "type": "function"
    },
    {
      "inputs": [],
      "name": "REWARD_STATIC",
      "outputs": [
        {
          "internalType": "uint8",
          "name": "",
          "type": "uint8"
        }
      ],
      "stateMutability": "view",
      "type": "function"
    },
    {
      "inputs": [],
      "name": "SECONDS_IN_UNIT",
      "outputs": [
        {
          "internalType": "uint256",
          "name": "",
          "type": "uint256"
        }
      ],
      "stateMutability": "view",
      "type": "function"
    },
    {
      "inputs": [],
      "name": "UPGRADE_INTERFACE_VERSION",
      "outputs": [
        {
          "internalType": "string",
          "name": "",
          "type": "string"
        }
      ],
      "stateMutability": "view",
      "type": "function"
    },
    {
      "inputs": [
        {
          "internalType": "uint256",
          "name": "jbcAmount",
          "type": "uint256"
        }
      ],
      "name": "addLiquidity",
      "outputs": [],
      "stateMutability": "payable",
      "type": "function"
    },
    {
      "inputs": [
        {
          "internalType": "address",
          "name": "user",
          "type": "address"
        },
        {
          "internalType": "uint256",
          "name": "newActiveDirects",
          "type": "uint256"
        }
      ],
      "name": "adminSetActiveDirects",
      "outputs": [],
      "stateMutability": "nonpayable",
      "type": "function"
    },
    {
      "inputs": [
        {
          "internalType": "address",
          "name": "user",
          "type": "address"
        },
        {
          "internalType": "address",
          "name": "newReferrer",
          "type": "address"
        }
      ],
      "name": "adminSetReferrer",
      "outputs": [],
      "stateMutability": "nonpayable",
      "type": "function"
    },
    {
      "inputs": [
        {
          "internalType": "address",
          "name": "user",
          "type": "address"
        },
        {
          "internalType": "uint256",
          "name": "newTeamCount",
          "type": "uint256"
        }
      ],
      "name": "adminSetTeamCount",
      "outputs": [],
      "stateMutability": "nonpayable",
      "type": "function"
    },
    {
      "inputs": [
        {
          "internalType": "address",
          "name": "_referrer",
          "type": "address"
        }
      ],
      "name": "bindReferrer",
      "outputs": [],
      "stateMutability": "nonpayable",
      "type": "function"
    },
    {
      "inputs": [],
      "name": "buyTicket",
      "outputs": [],
      "stateMutability": "payable",
      "type": "function"
    },
    {
      "inputs": [],
      "name": "buybackPercent",
      "outputs": [
        {
          "internalType": "uint256",
          "name": "",
          "type": "uint256"
        }
      ],
      "stateMutability": "view",
      "type": "function"
    },
    {
      "inputs": [],
      "name": "buybackWallet",
      "outputs": [
        {
          "internalType": "address",
          "name": "",
          "type": "address"
        }
      ],
      "stateMutability": "view",
      "type": "function"
    },
    {
      "inputs": [
        {
          "internalType": "uint256",
          "name": "teamCount",
          "type": "uint256"
        }
      ],
      "name": "calculateLevel",
      "outputs": [
        {
          "internalType": "uint256",
          "name": "level",
          "type": "uint256"
        },
        {
          "internalType": "uint256",
          "name": "percent",
          "type": "uint256"
        }
      ],
      "stateMutability": "pure",
      "type": "function"
    },
    {
      "inputs": [],
      "name": "claimRewards",
      "outputs": [],
      "stateMutability": "nonpayable",
      "type": "function"
    },
    {
      "inputs": [],
      "name": "dailyBurn",
      "outputs": [],
      "stateMutability": "nonpayable",
      "type": "function"
    },
    {
      "inputs": [
        {
          "internalType": "address",
          "name": "",
          "type": "address"
        },
        {
          "internalType": "uint256",
          "name": "",
          "type": "uint256"
        }
      ],
      "name": "directReferrals",
      "outputs": [
        {
          "internalType": "address",
          "name": "",
          "type": "address"
        }
      ],
      "stateMutability": "view",
      "type": "function"
    },
    {
      "inputs": [],
      "name": "directRewardPercent",
      "outputs": [
        {
          "internalType": "uint256",
          "name": "",
          "type": "uint256"
        }
      ],
      "stateMutability": "view",
      "type": "function"
    },
    {
      "inputs": [],
      "name": "emergencyPause",
      "outputs": [],
      "stateMutability": "nonpayable",
      "type": "function"
    },
    {
      "inputs": [],
      "name": "emergencyPaused",
      "outputs": [
        {
          "internalType": "bool",
          "name": "",
          "type": "bool"
        }
      ],
      "stateMutability": "view",
      "type": "function"
    },
    {
      "inputs": [],
      "name": "emergencyUnpause",
      "outputs": [],
      "stateMutability": "nonpayable",
      "type": "function"
    },
    {
      "inputs": [
        {
          "internalType": "address",
          "name": "_to",
          "type": "address"
        },
        {
          "internalType": "uint256",
          "name": "_amount",
          "type": "uint256"
        }
      ],
      "name": "emergencyWithdrawNative",
      "outputs": [],
      "stateMutability": "nonpayable",
      "type": "function"
    },
    {
      "inputs": [
        {
          "internalType": "address",
          "name": "user",
          "type": "address"
        }
      ],
      "name": "getDirectReferrals",
      "outputs": [
        {
          "internalType": "address[]",
          "name": "",
          "type": "address[]"
        }
      ],
      "stateMutability": "view",
      "type": "function"
    },
    {
      "inputs": [
        {
          "internalType": "uint256",
          "name": "activeDirects",
          "type": "uint256"
        }
      ],
      "name": "getLevelRewardLayers",
      "outputs": [
        {
          "internalType": "uint256",
          "name": "",
          "type": "uint256"
        }
      ],
      "stateMutability": "pure",
      "type": "function"
    },
    {
      "inputs": [
        {
          "internalType": "address",
          "name": "user",
          "type": "address"
        }
      ],
      "name": "getUserLevel",
      "outputs": [
        {
          "internalType": "uint256",
          "name": "level",
          "type": "uint256"
        },
        {
          "internalType": "uint256",
          "name": "percent",
          "type": "uint256"
        },
        {
          "internalType": "uint256",
          "name": "teamCount",
          "type": "uint256"
        }
      ],
      "stateMutability": "view",
      "type": "function"
    },
    {
      "inputs": [
        {
          "internalType": "address",
          "name": "_jbcToken",
          "type": "address"
        },
        {
          "internalType": "address",
          "name": "_marketing",
          "type": "address"
        },
        {
          "internalType": "address",
          "name": "_treasury",
          "type": "address"
        },
        {
          "internalType": "address",
          "name": "_lpInjection",
          "type": "address"
        },
        {
          "internalType": "address",
          "name": "_buybackWallet",
          "type": "address"
        }
      ],
      "name": "initialize",
      "outputs": [],
      "stateMutability": "nonpayable",
      "type": "function"
    },
    {
      "inputs": [],
      "name": "jbcToken",
      "outputs": [
        {
          "internalType": "contract IJBC",
          "name": "",
          "type": "address"
        }
      ],
      "stateMutability": "view",
      "type": "function"
    },
    {
      "inputs": [],
      "name": "lastBurnTime",
      "outputs": [
        {
          "internalType": "uint256",
          "name": "",
          "type": "uint256"
        }
      ],
      "stateMutability": "view",
      "type": "function"
    },
    {
      "inputs": [],
      "name": "levelRewardPercent",
      "outputs": [
        {
          "internalType": "uint256",
          "name": "",
          "type": "uint256"
        }
      ],
      "stateMutability": "view",
      "type": "function"
    },
    {
      "inputs": [],
      "name": "levelRewardPool",
      "outputs": [
        {
          "internalType": "uint256",
          "name": "",
          "type": "uint256"
        }
      ],
      "stateMutability": "view",
      "type": "function"
    },
    {
      "inputs": [],
      "name": "liquidityEnabled",
      "outputs": [
        {
          "internalType": "bool",
          "name": "",
          "type": "bool"
        }
      ],
      "stateMutability": "view",
      "type": "function"
    },
    {
      "inputs": [],
      "name": "lpInjectionPercent",
      "outputs": [
        {
          "internalType": "uint256",
          "name": "",
          "type": "uint256"
        }
      ],
      "stateMutability": "view",
      "type": "function"
    },
    {
      "inputs": [],
      "name": "lpInjectionWallet",
      "outputs": [
        {
          "internalType": "address",
          "name": "",
          "type": "address"
        }
      ],
      "stateMutability": "view",
      "type": "function"
    },
    {
      "inputs": [],
      "name": "marketingPercent",
      "outputs": [
        {
          "internalType": "uint256",
          "name": "",
          "type": "uint256"
        }
      ],
      "stateMutability": "view",
      "type": "function"
    },
    {
      "inputs": [],
      "name": "marketingWallet",
      "outputs": [
        {
          "internalType": "address",
          "name": "",
          "type": "address"
        }
      ],
      "stateMutability": "view",
      "type": "function"
    },
    {
      "inputs": [],
      "name": "nextStakeId",
      "outputs": [
        {
          "internalType": "uint256",
          "name": "",
          "type": "uint256"
        }
      ],
      "stateMutability": "view",
      "type": "function"
    },
    {
      "inputs": [],
      "name": "nextTicketId",
      "outputs": [
        {
          "internalType": "uint256",
          "name": "",
          "type": "uint256"
        }
      ],
      "stateMutability": "view",
      "type": "function"
    },
    {
      "inputs": [],
      "name": "owner",
      "outputs": [
        {
          "internalType": "address",
          "name": "",
          "type": "address"
        }
      ],
      "stateMutability": "view",
      "type": "function"
    },
    {
      "inputs": [],
      "name": "priceOracle",
      "outputs": [
        {
          "internalType": "address",
          "name": "",
          "type": "address"
        }
      ],
      "stateMutability": "view",
      "type": "function"
    },
    {
      "inputs": [],
      "name": "proxiableUUID",
      "outputs": [
        {
          "internalType": "bytes32",
          "name": "",
          "type": "bytes32"
        }
      ],
      "stateMutability": "view",
      "type": "function"
    },
    {
      "inputs": [],
      "name": "redeem",
      "outputs": [],
      "stateMutability": "nonpayable",
      "type": "function"
    },
    {
      "inputs": [],
      "name": "redeemEnabled",
      "outputs": [
        {
          "internalType": "bool",
          "name": "",
          "type": "bool"
        }
      ],
      "stateMutability": "view",
      "type": "function"
    },
    {
      "inputs": [],
      "name": "redemptionFeePercent",
      "outputs": [
        {
          "internalType": "uint256",
          "name": "",
          "type": "uint256"
        }
      ],
      "stateMutability": "view",
      "type": "function"
    },
    {
      "inputs": [],
      "name": "renounceOwnership",
      "outputs": [],
      "stateMutability": "nonpayable",
      "type": "function"
    },
    {
      "inputs": [
        {
          "internalType": "address",
          "name": "_token",
          "type": "address"
        },
        {
          "internalType": "address",
          "name": "_to",
          "type": "address"
        },
        {
          "internalType": "uint256",
          "name": "_amount",
          "type": "uint256"
        }
      ],
      "name": "rescueTokens",
      "outputs": [],
      "stateMutability": "nonpayable",
      "type": "function"
    },
    {
      "inputs": [
        {
          "internalType": "uint256",
          "name": "_direct",
          "type": "uint256"
        },
        {
          "internalType": "uint256",
          "name": "_level",
          "type": "uint256"
        },
        {
          "internalType": "uint256",
          "name": "_marketing",
          "type": "uint256"
        },
        {
          "internalType": "uint256",
          "name": "_buyback",
          "type": "uint256"
        },
        {
          "internalType": "uint256",
          "name": "_lpInjection",
          "type": "uint256"
        },
        {
          "internalType": "uint256",
          "name": "_treasury",
          "type": "uint256"
        }
      ],
      "name": "setDistributionConfig",
      "outputs": [],
      "stateMutability": "nonpayable",
      "type": "function"
    },
    {
      "inputs": [
        {
          "internalType": "bool",
          "name": "_liquidityEnabled",
          "type": "bool"
        },
        {
          "internalType": "bool",
          "name": "_redeemEnabled",
          "type": "bool"
        }
      ],
      "name": "setOperationalStatus",
      "outputs": [],
      "stateMutability": "nonpayable",
      "type": "function"
    },
    {
      "inputs": [
        {
          "internalType": "uint256",
          "name": "_fee",
          "type": "uint256"
        }
      ],
      "name": "setRedemptionFeePercent",
      "outputs": [],
      "stateMutability": "nonpayable",
      "type": "function"
    },
    {
      "inputs": [
        {
          "internalType": "uint256",
          "name": "_buyTax",
          "type": "uint256"
        },
        {
          "internalType": "uint256",
          "name": "_sellTax",
          "type": "uint256"
        }
      ],
      "name": "setSwapTaxes",
      "outputs": [],
      "stateMutability": "nonpayable",
      "type": "function"
    },
    {
      "inputs": [
        {
          "internalType": "uint256",
          "name": "_duration",
          "type": "uint256"
        }
      ],
      "name": "setTicketFlexibilityDuration",
      "outputs": [],
      "stateMutability": "nonpayable",
      "type": "function"
    },
    {
      "inputs": [
        {
          "internalType": "address",
          "name": "_marketing",
          "type": "address"
        },
        {
          "internalType": "address",
          "name": "_treasury",
          "type": "address"
        },
        {
          "internalType": "address",
          "name": "_lpInjection",
          "type": "address"
        },
        {
          "internalType": "address",
          "name": "_buyback",
          "type": "address"
        }
      ],
      "name": "setWallets",
      "outputs": [],
      "stateMutability": "nonpayable",
      "type": "function"
    },
    {
      "inputs": [
        {
          "internalType": "uint256",
          "name": "cycleDays",
          "type": "uint256"
        }
      ],
      "name": "stakeLiquidity",
      "outputs": [],
      "stateMutability": "payable",
      "type": "function"
    },
    {
      "inputs": [
        {
          "internalType": "uint256",
          "name": "",
          "type": "uint256"
        }
      ],
      "name": "stakeOwner",
      "outputs": [
        {
          "internalType": "address",
          "name": "",
          "type": "address"
        }
      ],
      "stateMutability": "view",
      "type": "function"
    },
    {
      "inputs": [
        {
          "internalType": "uint256",
          "name": "",
          "type": "uint256"
        },
        {
          "internalType": "uint256",
          "name": "",
          "type": "uint256"
        }
      ],
      "name": "stakePendingRewards",
      "outputs": [
        {
          "internalType": "address",
          "name": "upline",
          "type": "address"
        },
        {
          "internalType": "uint256",
          "name": "amount",
          "type": "uint256"
        }
      ],
      "stateMutability": "view",
      "type": "function"
    },
    {
      "inputs": [],
      "name": "swapBuyTax",
      "outputs": [
        {
          "internalType": "uint256",
          "name": "",
          "type": "uint256"
        }
      ],
      "stateMutability": "view",
      "type": "function"
    },
    {
      "inputs": [
        {
          "internalType": "uint256",
          "name": "jbcAmount",
          "type": "uint256"
        }
      ],
      "name": "swapJBCToMC",
      "outputs": [],
      "stateMutability": "nonpayable",
      "type": "function"
    },
    {
      "inputs": [],
      "name": "swapMCToJBC",
      "outputs": [],
      "stateMutability": "payable",
      "type": "function"
    },
    {
      "inputs": [],
      "name": "swapReserveJBC",
      "outputs": [
        {
          "internalType": "uint256",
          "name": "",
          "type": "uint256"
        }
      ],
      "stateMutability": "view",
      "type": "function"
    },
    {
      "inputs": [],
      "name": "swapReserveMC",
      "outputs": [
        {
          "internalType": "uint256",
          "name": "",
          "type": "uint256"
        }
      ],
      "stateMutability": "view",
      "type": "function"
    },
    {
      "inputs": [],
      "name": "swapSellTax",
      "outputs": [
        {
          "internalType": "uint256",
          "name": "",
          "type": "uint256"
        }
      ],
      "stateMutability": "view",
      "type": "function"
    },
    {
      "inputs": [],
      "name": "ticketFlexibilityDuration",
      "outputs": [
        {
          "internalType": "uint256",
          "name": "",
          "type": "uint256"
        }
      ],
      "stateMutability": "view",
      "type": "function"
    },
    {
      "inputs": [
        {
          "internalType": "uint256",
          "name": "",
          "type": "uint256"
        }
      ],
      "name": "ticketOwner",
      "outputs": [
        {
          "internalType": "address",
          "name": "",
          "type": "address"
        }
      ],
      "stateMutability": "view",
      "type": "function"
    },
    {
      "inputs": [
        {
          "internalType": "uint256",
          "name": "",
          "type": "uint256"
        },
        {
          "internalType": "uint256",
          "name": "",
          "type": "uint256"
        }
      ],
      "name": "ticketPendingRewards",
      "outputs": [
        {
          "internalType": "address",
          "name": "upline",
          "type": "address"
        },
        {
          "internalType": "uint256",
          "name": "amount",
          "type": "uint256"
        }
      ],
      "stateMutability": "view",
      "type": "function"
    },
    {
      "inputs": [
        {
          "internalType": "address",
          "name": "newOwner",
          "type": "address"
        }
      ],
      "name": "transferOwnership",
      "outputs": [],
      "stateMutability": "nonpayable",
      "type": "function"
    },
    {
      "inputs": [],
      "name": "treasuryPercent",
      "outputs": [
        {
          "internalType": "uint256",
          "name": "",
          "type": "uint256"
        }
      ],
      "stateMutability": "view",
      "type": "function"
    },
    {
      "inputs": [],
      "name": "treasuryWallet",
      "outputs": [
        {
          "internalType": "address",
          "name": "",
          "type": "address"
        }
      ],
      "stateMutability": "view",
      "type": "function"
    },
    {
      "inputs": [
        {
          "internalType": "address",
          "name": "newImplementation",
          "type": "address"
        },
        {
          "internalType": "bytes",
          "name": "data",
          "type": "bytes"
        }
      ],
      "name": "upgradeToAndCall",
      "outputs": [],
      "stateMutability": "payable",
      "type": "function"
    },
    {
      "inputs": [
        {
          "internalType": "address",
          "name": "",
          "type": "address"
        }
      ],
      "name": "userInfo",
      "outputs": [
        {
          "internalType": "address",
          "name": "referrer",
          "type": "address"
        },
        {
          "internalType": "uint256",
          "name": "activeDirects",
          "type": "uint256"
        },
        {
          "internalType": "uint256",
          "name": "teamCount",
          "type": "uint256"
        },
        {
          "internalType": "uint256",
          "name": "totalRevenue",
          "type": "uint256"
        },
        {
          "internalType": "uint256",
          "name": "currentCap",
          "type": "uint256"
        },
        {
          "internalType": "bool",
          "name": "isActive",
          "type": "bool"
        },
        {
          "internalType": "uint256",
          "name": "refundFeeAmount",
          "type": "uint256"
        },
        {
          "internalType": "uint256",
          "name": "teamTotalVolume",
          "type": "uint256"
        },
        {
          "internalType": "uint256",
          "name": "teamTotalCap",
          "type": "uint256"
        },
        {
          "internalType": "uint256",
          "name": "maxTicketAmount",
          "type": "uint256"
        },
        {
          "internalType": "uint256",
          "name": "maxSingleTicketAmount",
          "type": "uint256"
        }
      ],
      "stateMutability": "view",
      "type": "function"
    },
    {
      "inputs": [
        {
          "internalType": "address",
          "name": "",
          "type": "address"
        },
        {
          "internalType": "uint256",
          "name": "",
          "type": "uint256"
        }
      ],
      "name": "userStakes",
      "outputs": [
        {
          "internalType": "uint256",
          "name": "id",
          "type": "uint256"
        },
        {
          "internalType": "uint256",
          "name": "amount",
          "type": "uint256"
        },
        {
          "internalType": "uint256",
          "name": "startTime",
          "type": "uint256"
        },
        {
          "internalType": "uint256",
          "name": "cycleDays",
          "type": "uint256"
        },
        {
          "internalType": "bool",
          "name": "active",
          "type": "bool"
        },
        {
          "internalType": "uint256",
          "name": "paid",
          "type": "uint256"
        }
      ],
      "stateMutability": "view",
      "type": "function"
    },
    {
      "inputs": [
        {
          "internalType": "address",
          "name": "",
          "type": "address"
        }
      ],
      "name": "userTicket",
      "outputs": [
        {
          "internalType": "uint256",
          "name": "ticketId",
          "type": "uint256"
        },
        {
          "internalType": "uint256",
          "name": "amount",
          "type": "uint256"
        },
        {
          "internalType": "uint256",
          "name": "purchaseTime",
          "type": "uint256"
        },
        {
          "internalType": "bool",
          "name": "exited",
          "type": "bool"
        }
      ],
      "stateMutability": "view",
      "type": "function"
    },
    {
      "inputs": [
        {
          "internalType": "address",
          "name": "_toMC",
          "type": "address"
        },
        {
          "internalType": "uint256",
          "name": "_amountMC",
          "type": "uint256"
        },
        {
          "internalType": "address",
          "name": "_toJBC",
          "type": "address"
        },
        {
          "internalType": "uint256",
          "name": "_amountJBC",
          "type": "uint256"
        }
      ],
      "name": "withdrawSwapReserves",
      "outputs": [],
      "stateMutability": "nonpayable",
      "type": "function"
    },
    {
      "stateMutability": "payable",
      "type": "receive"
    }
  ],
  "bytecode": "0x60a08060405234620000d157306080527ff0c57e16840df040f15088dc2f81fe391c3923bec73e23a9662efc9c229c6a009081549060ff8260401c16620000c257506001600160401b036002600160401b0319828216016200007c575b60405161494b9081620000d78239608051818181611b910152611f7b0152f35b6001600160401b031990911681179091556040519081527fc7f505b2f371ae2175ee4913f4499e1f2633a7b5936321eed1cdaeb6115181d290602090a13880806200005c565b63f92ee8a960e01b8152600490fd5b600080fdfe60806040526004361015610056575b361561001957600080fd5b61002534601854612fb9565b6018556040513481527fc8382e3e3003d34021113f35bf95ee86b77a09ec08c4eb3cbe64076e60468f4e60203392a2005b6000803560e01c806301d62efb14612d6c57806304ef9d5814612d4e57806304f618cb14612ba357806305ad393514612b485780630e2be21014612b2c5780631427f61614612b105780631459457a146129165780631788513c146128ef578063182c84cc146128c85780631959a002146128165780631d0dac76146127f857806321923bde146127a95780632630c12f1461277c57806327c830a91461275957806327f082f41461273b57806335076373146121f0578063372500ab146121cf5780633dbd46bd1461219c5780634626402b14612173578063488b5d97146121555780634a4e3bd51461210b5780634f1ef28614611f0057806351858e2714611eb357806351c6590a14611dc457806352778b0514611be957806352d1902d14611b7e5780636031a52f14611b605780636dd6682714611b42578063715018a614611ae957806375506c9614611acb57806375f0a87414611aa257806377a2a54014611a84578063813380cd14611a5657806381eeef5c1461196757806383672f3e146118af578063841d308b146116455780638710bcaa146115e457806388481b61146115c857806388fd4d331461159f5780638a859a85146115835780638c0eaa48146115675780638da5cb5b1461153157806390b0eb51146114e15780639370b080146114c35780639b788504146114545780639d99eca414611431578063a2af9226146113fe578063ac8f50aa146113a6578063ad3cb1cc14611327578063b048a4bb14611304578063b5d5b5fa14611276578063b759936b14611258578063bd594dcf1461123a578063be040fb014610f39578063c2ff12fc14610f06578063ccf6194414610ee8578063cea9d26f14610e49578063ceaa366d14610e2b578063d0f1647014610da1578063d2c8e0e514610cf2578063d2f8253614610ccc578063d4f0014214610bc5578063d8020a1814610ba7578063d803507214610b16578063dce3dc1f14610aeb578063deab8aea14610ac2578063dec7fa3b14610aa4578063e306744914610a86578063e4412f6814610a68578063ece7126614610a45578063edca914c1461047a578063f2fde38b1461044d5763f521a5a714610385575061000e565b3461044a57604036600319011261044a5761039e612dbd565b602435906103aa61347e565b6001600160a01b03169081156104385760406000805160206147f683398151915291838552600e602052600282862001908082549255846103ea836134e7565b506103f4836134e7565b5081810361040e575b50505082519182526020820152a280f35b6000805160206147d68339815191529161042d85885193849384612e43565b0390a28438806103fd565b60405163e6c4247b60e01b8152600490fd5b80fd5b503461044a57602036600319011261044a5761047761046a612dbd565b61047261347e565b61341c565b80f35b508060031936011261044a5761048e613596565b60ff601e5416610a33576104a133613d76565b68056bc75e2d6310000034148015610a21575b8015610a0f575b80156109fd575b156109eb57338152600f6020526040812060038101805460ff1615610932576104ec601a54612f87565b80601a55825534600183015542600283015560ff198154169055338252600e60205281600360408220015561052034612fc6565b338352600e60205260046040842001555b600a6001820154338452600e6020526040842090600982018054821161092a575b50500180543411610921575b508054825260146020908152604080842080546001600160a01b031916339081179091558354908552600e9092528320546001600160a01b03168015158061090d575b156108ea576105be60646105b760055434612fdc565b0482613f67565b91826108b6575b5050505b338252600e6020526040822054829182916001600160a01b031690829034801590800460011417156108a2579394915b6001600160a01b03811680151580610898575b8061088e575b1561070c578452600e6020526040842060ff600582015416156106ed575060018060a01b03811690818552600e6020528361065360016040882001546134b7565b1161068d575b508352600e60205260408320546001600160a01b0316916106839061067d90612f87565b95612f87565b935b9394916105f9565b61069b9060643404906140a0565b80156106595791826106ac91612fb9565b91338552600f60205260408520546040519182528560208301526003604083015260608201528160008051602061477683398151915260803393a338610659565b5492956001600160a01b03909316926107069150612f87565b93610685565b848661072685606461072060065434612fdc565b04612fac565b80610879575b5060018060a01b0360015416610753600791606461074c60075434612fdc565b04906136b5565b61076a606461076460085434612fdc565b0461451d565b61078660018060a01b0360035416606461074c60095434612fdc565b6107a260018060a01b0360025416606461074c600a5434612fdc565b336000908152600e6020526040812054909234151592916001600160a01b03165b6001600160a01b03168015158061086f575b1561081c57600052600e60205261080183604060002090610807575b546001600160a01b031694612f87565b936107c3565b838101610815348254612fb9565b90556107f1565b8582610827336135d3565b546040519034825260208201527f2a91574e12ad96234e84923e146b0946ecfb871cd8d5534dc1fdcbe87a7c01b360403392a260016000805160206148d68339815191525580f35b50601e85106107d5565b61088590601d54612fb9565b601d558261072c565b5060148710610612565b50600f841061060c565b634e487b7160e01b84526011600452602484fd5b60405192835284602084015260026040840152606083015260008051602061477683398151915260803393a33880806105c5565b505061090860018060a01b0360015416606461074c60055434612fdc565b6105c9565b5080845260ff6005604086200154166105a1565b3490553861055e565b553880610552565b6001820180548061098f5750610949601a54612f87565b80601a55835534905542600283015560ff198154169055338252600e60205281600360408220015561097a34612fc6565b338352600e6020526004604084200155610531565b61099c9192503490612fb9565b9055338252600e60205260ff6005604084200154166109e0575b6109bf34612fc6565b338352600e6020526109d960046040852001918254612fb9565b9055610531565b4260028201556109b6565b60405163162908e360e11b8152600490fd5b50683635c9adc5dea0000034146104c2565b50681b1ae4d6e2ef50000034146104bb565b50681043561a882930000034146104b4565b60405163ab35696f60e01b8152600490fd5b503461044a57602036600319011261044a57610a5f61347e565b600435600b5580f35b503461044a578060031936011261044a576020600854604051908152f35b503461044a578060031936011261044a576020601c54604051908152f35b503461044a578060031936011261044a576020600b54604051908152f35b503461044a578060031936011261044a576004546040516001600160a01b039091168152602090f35b503461044a57602036600319011261044a576040610b0a6004356134e7565b82519182526020820152f35b503461044a57604036600319011261044a57610b30612dbd565b60243590610b3c61347e565b6001600160a01b0316908115610438577f8fb1f6e3f39354fc80c1defc040c6d354638b0c8e5f9c63cd0292ef9842197e990828452600e6020526040842090806001830155610ba1600383015492600660048201549101549060405194859485613400565b0390a280f35b503461044a578060031936011261044a576020600754604051908152f35b503461044a57608036600319011261044a57610bdf612dbd565b60243590610beb612de9565b9060643592610bf861347e565b80610c94575b505081610c09578280f35b81602091610c1c610c4794601954612fac565b60195560018060a01b03855416908560405180968195829463a9059cbb60e01b845260048401612f0d565b03925af18015610c8957610c5a57808280f35b610c7b9060203d602011610c82575b610c738183612e9d565b810190613209565b5038808280f35b503d610c69565b6040513d84823e3d90fd5b804710610cba57610cb391610cab82601854612fac565b6018556136b5565b3880610bfe565b60405163dbc3a71f60e01b8152600490fd5b503461044a578060031936011261044a57602060ff60175460081c166040519015158152f35b503461044a576020908160031936011261044a576001600160a01b03919082610d19612dbd565b168152601182526040812090604051808484549182815201908194845285842090845b818110610d8b5750505081610d52910382612e9d565b6040519380850191818652518092526040850193925b828110610d755785850386f35b8351871685529381019392810192600101610d68565b8254891684529287019260019283019201610d3c565b503461044a5760c036600319011261044a577f66682b276e4cd1a4e1f68b55b1143766c5332f472eb593cf2a70a25d9d5d991760c060043560a435608435606435604435602435610df061347e565b856005558060065581600755826008558360095584600a55604051958652602086015260408501526060840152608083015260a0820152a180f35b503461044a578060031936011261044a576020600954604051908152f35b503461044a57606036600319011261044a57610e63612dbd565b610e6b612dd3565b90610e7461347e565b82546001600160a01b039182169190811682146104385782161561043857610eba602091849360405194858094819363a9059cbb60e01b83526044359060048401612f0d565b03925af18015610c8957610ecc575080f35b610ee49060203d602011610c8257610c738183612e9d565b5080f35b503461044a578060031936011261044a576020600554604051908152f35b503461044a57602036600319011261044a57602090600435815260148252604060018060a01b0391205416604051908152f35b503461044a578060031936011261044a57610f52613596565b60ff8060175460081c16156112295733825260209160108352604081209281828391845b87548110156110f257866004610f8c838b612f28565b50015416156110ea576002610fa1828a612f28565b5001546003610fb0838b612f28565b5001549062015180918281029281840414901517156110d6578991610fd491612fb9565b421015610fe7575b506001905b01610f76565b9381929361107f91611027600561101d8661101761101061100a60019a8e612f28565b506136ed565b8096612fb9565b9a612f28565b5001918254612fb9565b9055338852600e8752600960408920015480156110c5575b61104e606491600b5490612fdc565b048361105a868d612f28565b500154818111156110b257906110738161107993612fac565b92612fb9565b94612fb9565b91600461108c828b612f28565b5001805460ff191690556110aa6110a3828b612f28565b50546137e5565b905087610fdc565b90506110bd91612fb9565b938790612fb9565b50600f87526040882083015461103f565b634e487b7160e01b88526011600452602488fd5b600190610fe1565b509092918115908180611221575b61120f5784600e956111fa575b5080611171575b5015611161575b50611125336135d3565b3383525260408120600460038201549101541115611153575b60016000805160206148d68339815191525580f35b61115c33613910565b61113e565b61116b90336136b5565b8361111b565b33865284845261118e604087206003600482015491015490612fac565b8082116111d4575b508015611114576111ce90338752858552600360408820016111b9828254612fb9565b9055338752600f855260408720549033613b8b565b85611114565b90604051908152818582015260008051602061483683398151915260403392a286611196565b61120690601854612fb9565b6018558661110d565b6040516304c4857b60e51b8152600490fd5b508015611100565b6040516282b42960e81b8152600490fd5b503461044a578060031936011261044a576020600654604051908152f35b503461044a578060031936011261044a576020601d54604051908152f35b503461044a57604036600319011261044a57611290612dbd565b6001600160a01b031681526010602052604081208054602435929083101561044a5760c06112be8484612f28565b508054906001810154906002810154600382015490600560ff600485015416930154936040519586526020860152604085015260608401521515608083015260a0820152f35b503461044a578060031936011261044a57602060ff601754166040519015158152f35b503461044a578060031936011261044a5760405161134481612e59565b60058152602091640352e302e360dc1b602083015260405192839160208352835191826020850152815b83811061138f57505060408094508284010152601f80199101168101030190f35b80860182015187820160400152869450810161136e565b503461044a576113b536612edb565b90825260136020526040822080548210156113fa576113d49250612ef1565b5080546001909101546040519182916113f6916001600160a01b031683612f0d565b0390f35b8280fd5b503461044a57604036600319011261044a5761047761141b612dbd565b611423612dd3565b9061142c61347e565b613263565b503461044a57602036600319011261044a5761144b61347e565b60043560165580f35b503461044a57604036600319011261044a5761146e612dbd565b6024359061147a61347e565b814710610cba576020816114af847f288155da11d775f8595652c04f862708561d601d9fd3f04f7aed5f8311296e24946136b5565b6040519384526001600160a01b031692a280f35b503461044a578060031936011261044a576020600d54604051908152f35b503461044a577f4e9dd03193a0c81552fb8e6d32280f0d7e0ce8087241dc3d17ef3d193ee231d7604061151336612edb565b61151b61347e565b81600c5580600d5582519182526020820152a180f35b503461044a578060031936011261044a576000805160206147b6833981519152546040516001600160a01b039091168152602090f35b503461044a578060031936011261044a57602060405160038152f35b503461044a578060031936011261044a57602060405160018152f35b503461044a578060031936011261044a576003546040516001600160a01b039091168152602090f35b503461044a578060031936011261044a57602060405160048152f35b503461044a57602036600319011261044a576080906040906001600160a01b0361160c612dbd565b168152600f6020522080549060018101549060ff6003600283015492015416916040519384526020840152604083015215156060820152f35b508060031936011261044a57611659613596565b60ff601e5416610a335734156109eb57601854683635c9adc5dea000008082109081156118a3575b5061183c57601954906116a76116978334612fdc565b6116a13484612fb9565b90613243565b612710803402903482040361188f576116c3836103e892613243565b116109eb5760646116d6600c5483612fdc565b04916116e28383612fac565b85546040516370a0823160e01b815230600482015291956020946001600160a01b03949193928516928681602481875afa80156118845782918b9161184e575b501061183c578893611738611740933490612fb9565b601855612fac565b601955803b1561183857818091602460405180948193630852cd8d60e31b83528a60048401525af18015610c8957611820575b5054169181604051809463a9059cbb60e01b82528188816117988a3360048401612f0d565b03925af1918215611815577f36864aeefce16bc4aaceeb6b0cdfb2ad1455a8cb4ccb0db148a2bc6e7166f97c936117df936117f7575b505060405191829133953484612e43565b0390a260016000805160206148d68339815191525580f35b8161180d92903d10610c8257610c738183612e9d565b5038806117ce565b6040513d87823e3d90fd5b61182990612e8a565b611834578438611773565b8480fd5b5080fd5b6040516343c7ad8160e11b8152600490fd5b809250888092503d831161187d575b6118678183612e9d565b810103126118785781905138611722565b600080fd5b503d61185d565b6040513d8c823e3d90fd5b634e487b7160e01b85526011600452602485fd5b90506019541038611681565b503461044a57608036600319011261044a576118c9612dbd565b6118d1612dd3565b906118da612de9565b916118e3612dff565b906118ec61347e565b6001600160a01b03928316938415801561195d575b8015611953575b8015611949575b6104385783809260018060a01b03199687600154161760015516856002541617600255168360035416176003551690600454161760045580f35b508383161561190f565b5083811615611908565b5083821615611901565b503461044a578060031936011261044a57601c54620151808101809111611a30574210611a445760195480156109eb57808004600103611a3057606481049081156109eb57816119b691612fac565b601955815482906001600160a01b0316803b1561183857818091602460405180948193630852cd8d60e31b83528860048401525af18015610c8957611a1c575b5060008051602061487683398151915260408342601c558151908482526020820152a180f35b611a2590612e8a565b6118385781386119f6565b634e487b7160e01b82526011600452602482fd5b604051636f47a98b60e11b8152600490fd5b503461044a57611a6536612edb565b90825260126020526040822080548210156113fa576113d49250612ef1565b503461044a578060031936011261044a576020601854604051908152f35b503461044a578060031936011261044a576001546040516001600160a01b039091168152602090f35b503461044a578060031936011261044a576020601b54604051908152f35b503461044a578060031936011261044a57611b0261347e565b6000805160206147b683398151915280546001600160a01b031981169091556000906001600160a01b03166000805160206148968339815191528280a380f35b503461044a578060031936011261044a576020601654604051908152f35b503461044a578060031936011261044a576020601a54604051908152f35b503461044a578060031936011261044a577f00000000000000000000000000000000000000000000000000000000000000006001600160a01b03163003611bd75760206040516000805160206148168339815191528152f35b60405163703e46dd60e11b8152600490fd5b503461044a57602036600319011261044a57600435611c06613596565b60ff601e5416610a335780156109eb57683635c9adc5dea000008060185410908115611db8575b5061183c5781546040516323b872dd60e01b81526001600160a01b039160209082908416818781611c6389303360048501613221565b03925af18015611dad57611d8e575b506064611c81600d5484612fdc565b04611c8c8184612fac565b91612710808402908482041484151715611d7a57611cb06103e89160195490613243565b116109eb578490815416803b15611838578190602460405180948193630852cd8d60e31b83528760048401525af1801561181557611d67575b5060185491611cf88382612fdc565b611d09601954916116a18484612fb9565b9182471061183c577f223c8ad0806f634524940a8595f819c5cfc7b1f4f4f45791269301df0a7e61d594611d418492611d4994612fb9565b601955612fac565b601855611d5681336136b5565b6117df604051928392339684612e43565b611d7390949194612e8a565b9238611ce9565b634e487b7160e01b86526011600452602486fd5b611da69060203d602011610c8257610c738183612e9d565b5038611c72565b6040513d86823e3d90fd5b90506019541038611c2d565b50602036600319011261044a57600435611ddc61347e565b34611e9f575b80611e09575b6040600080516020614756833981519152918151903482526020820152a180f35b81546040516323b872dd60e01b8152919060209083906001600160a01b0316818681611e3a87303360048501613221565b03925af1908115611e945760008051602061475683398151915292604092611e75575b50611e6a81601954612fb9565b601955915050611de8565b611e8d9060203d602011610c8257610c738183612e9d565b5038611e5d565b6040513d85823e3d90fd5b611eab34601854612fb9565b601855611de2565b503461044a578060031936011261044a57611ecc61347e565b600160ff19601e541617601e557f4cb3183d0bf66f9634b15cfc3539fdddc96c2c9324848af89b56586a6739fec48180a180f35b50604036600319011261044a57611f15612dbd565b60249182356001600160401b038111611838573660238201121561183857806004013592611f4284612ec0565b611f4f6040519182612e9d565b84815260209485820193368883830101116120e457818692898993018737830101526001600160a01b037f000000000000000000000000000000000000000000000000000000000000000081163081149081156120ef575b50611bd757611fb461347e565b6040516352d1902d60e01b81529083169580826004818a5afa91829187936120bb575b5050611ff557604051634c9c8ce360e01b8152600481018790528790fd5b859087600080516020614816833981519152918281036120a65750843b15612090575080546001600160a01b031916821790556040518592917fbc7cd75a20ee27fd9adebab32041f755214dbc6bffa90cc0225b39da2e5c2d3b8480a28151156120735750610ee49382915190845af461206d613685565b916146f2565b935050505034612081575080f35b63b398979f60e01b8152600490fd5b604051634c9c8ce360e01b815260048101849052fd5b60405190632a87526960e21b82526004820152fd5b9080929350813d83116120e8575b6120d38183612e9d565b810103126120e45751903880611fd7565b8580fd5b503d6120c9565b9050816000805160206148168339815191525416141538611fa7565b503461044a578060031936011261044a5761212461347e565b60ff19601e5416601e557f15de7ad89d29fd1c6d2e6b1e878453569b4080edf34e0105faaa3bd52f0185308180a180f35b503461044a578060031936011261044a576020604051620151808152f35b503461044a578060031936011261044a576002546040516001600160a01b039091168152602090f35b503461044a57602036600319011261044a57602090600435815260158252604060018060a01b0391205416604051908152f35b503461044a578060031936011261044a576121e8613596565b61113e612fef565b50602036600319011261044a57612205613596565b60ff601e5416610a3357338152600f602052604081206001810154908115612729576003015460ff1661271757600760043514801561270b575b80156126ff575b156126ed5734156109eb57338252600e602052600a604083200180549182156126e0575b5050609681029080820460961490151715611a30576064900434036109eb57612294601b54612f87565b601b8190553382526010602052604080832090519160c083016001600160401b038111848210176126cc5760405282523460208301524260408301526004356060830152600160808301528260a0830152805490600160401b8210156126b8579061230491600182018155612f28565b9190916126a45760a08160059251845560208101516001850155604081015160028501556060810151600385015561235160808201511515600486019060ff801983541691151516179055565b0151910155601b54815260156020526040812080546001600160a01b03191633908117909155612380906135d3565b601b54906040517fa8a1b9e33e503eed12bf7e7c8c01c7f3b60217a496bddd0f5db351dd8c056c1c3391806123b9866004353484612e43565b0390a2338152600e6020526040812054819081906001600160a01b03165b6001600160a01b03811615158061269a575b15612690576001600160a01b0381168452600e60205260408420600581015460ff161561267b57506001600160a01b0381168452600f60205260408420600181015490811590811561266c575b50612647576001600160a01b0382168552600e602052604085206002015461245d906134e7565b91905084821161253f575b50602d111561249c576001600160a01b039081168452600e6020526040842054169061249390612f87565b915b91906123d7565b50505090505b338152600e6020526006604082200181815491826124d1575b5060016000805160206148d68339815191525580f35b556018548181101580612535575b6124eb575b82906124bb565b816124f591612fac565b60185561250281336136b5565b6040519081527f3437b9ea7fa19c6d233dd70cc787a70fab87cee64d8ba4571512cc84402748f960203392a238806124e4565b50814710156124df565b612561906125508396606494612fac565b90349080341161263f575b50612fdc565b048585526013602052604085206040519061257b82612e59565b6001600160a01b038416825260208201839052805490600160401b82101561262b57906125ad91600182018155612ef1565b91909161261757805182546001600160a01b0319166001600160a01b03918216178355602091820151600193909301929092556040519283529083169187917f7c6505ab8279235ad21ebf427336cc8d97c017b4aa1f10ffdff11d3261e4934e91a382602d612468565b634e487b7160e01b87526004879052602487fd5b634e487b7160e01b88526041600452602488fd5b90503861255b565b5050600e60205260408320546001600160a01b03169061266690612f87565b91612495565b60ff9150600301541638612436565b546001600160a01b0316916126669150612f87565b50505090506124a2565b50601482106123e9565b634e487b7160e01b83526004839052602483fd5b634e487b7160e01b84526041600452602484fd5b634e487b7160e01b85526041600452602485fd5b809192509155388061226a565b604051634dc7f5ff60e11b8152600490fd5b50601e60043514612246565b50600f6004351461223f565b604051631ecb2c4f60e31b8152600490fd5b604051634065aaf160e11b8152600490fd5b503461044a578060031936011261044a576020600c54604051908152f35b503461044a578060031936011261044a57602060ff601e54166040519015158152f35b503461044a578060031936011261044a57601e5460405160089190911c6001600160a01b03168152602090f35b503461044a57602036600319011261044a576113f6906002906040906001600160a01b036127d5612dbd565b168152600e6020522001546127e9816134e7565b92909160405193849384612e43565b503461044a578060031936011261044a576020601954604051908152f35b503461044a57602036600319011261044a57610160906001600160a01b039060409082612841612dbd565b168152600e60205220908154169060018101549060028101546003820154600483015460ff600585015416600685015491600786015493600887015495600a6009890154980154986040519a8b5260208b015260408a015260608901526080880152151560a087015260c086015260e0850152610100840152610120830152610140820152f35b503461044a57602036600319011261044a5760206128e76004356134b7565b604051908152f35b503461044a578060031936011261044a57546040516001600160a01b039091168152602090f35b503461044a5760a036600319011261044a57612930612dbd565b612938612dd3565b90612941612de9565b612949612dff565b916084356001600160a01b038181169291839003612b0c576000805160206148f68339815191529485549660ff8860401c16159560018060401b03891698891580612b05575b6001809b149081612afb575b159081612af2575b50612ae0576001600160401b031981168a1789558492839189612ac5575b506129ca613f38565b6129d2613f38565b6129db3361341c565b6129e3613f38565b6129eb613f38565b6129f3613f38565b8a6000805160206148d6833981519152558160018060a01b03199716878d5416178c5516858a5416178955168360025416176002551681600354161760035560045416176004556019600555600f6006556005600755600560085560196009556019600a5582600b556032600c556019600d556203f48060165561010161ffff19601754161760175542601c55612a88578280f35b805460ff60401b191690556040519081527fc7f505b2f371ae2175ee4913f4499e1f2633a7b5936321eed1cdaeb6115181d290602090a138808280f35b6001600160481b0319166001600160401b01178a55386129c1565b60405163f92ee8a960e01b8152600490fd5b905015386129a3565b303b15915061299b565b508761298f565b8680fd5b503461044a578060031936011261044a57602090604051908152f35b503461044a578060031936011261044a57602060405160028152f35b503461044a57604036600319011261044a57612b62612dbd565b6001600160a01b0390811682526011602052604082208054602435939084101561044a5750602092612b9391612e15565b9190546040519260031b1c168152f35b503461044a5760208060031936011261183857612bbe612dbd565b338352600e808352604084205490926001600160a01b039290918316612d3c578216338114612d2a5780156104385733808652600e8352604080872080546001600160a01b0319168417905582875260118085529087209091612c2091612f44565b338652600e835283604087205416948487965b1680151580612d20575b15612cf65780885281855260408820906002820180546001810191828211612ce2579282612c918b9693836000805160206147f683398151915260408e8b99612cb19b5586825191868352820152a26134e7565b50612c9b826134e7565b5090808203612cb7575b50505050541697612f87565b96612c33565b612cd66000805160206147d68339815191529360405193849384612e43565b0390a238808080612ca5565b634e487b7160e01b8c52600487905260248cfd5b8784337fa6dbb5aa28f35437de94d685d66edce5fb4812196b4984b91dfd5a7b38c0fb308380a380f35b50601e8710612c3d565b604051631acade8960e31b8152600490fd5b60405163682a906560e01b8152600490fd5b503461044a578060031936011261044a576020600a54604051908152f35b503461044a57604036600319011261044a57600435801515809103611838576024358015158091036113fa57612da061347e565b60ff61ff006017549260081b1692169061ffff1916171760175580f35b600435906001600160a01b038216820361187857565b602435906001600160a01b038216820361187857565b604435906001600160a01b038216820361187857565b606435906001600160a01b038216820361187857565b8054821015612e2d5760005260206000200190600090565b634e487b7160e01b600052603260045260246000fd5b6040919493926060820195825260208201520152565b604081019081106001600160401b03821117612e7457604052565b634e487b7160e01b600052604160045260246000fd5b6001600160401b038111612e7457604052565b601f909101601f19168101906001600160401b03821190821017612e7457604052565b6001600160401b038111612e7457601f01601f191660200190565b6040906003190112611878576004359060243590565b8054821015612e2d5760005260206000209060011b0190600090565b6001600160a01b039091168152602081019190915260400190565b8054821015612e2d576000526006602060002091020190600090565b80549190600160401b831015612e745782612f67916001612f8595018155612e15565b90919060018060a01b038084549260031b9316831b921b1916179055565b565b6000198114612f965760010190565b634e487b7160e01b600052601160045260246000fd5b91908203918211612f9657565b91908201809211612f9657565b90600382029180830460031490151715612f9657565b81810292918115918404141715612f9657565b6000338152602090600f82526040918282209060019160018101541580156131fb575b6131ea573384526010825284842084939084825b6130e9575b50505082156130d857338452600e825261304b8360038787200154612fb9565b338552600e835285852060048101548092116130c0575b505082156130b257600e9261309291338652848452600387872001613088838254612fb9565b9055549033613b8b565b33835252206004600382015491015411156130a957565b612f8533613910565b5050505050612f8533613910565b6130d09294506003015490612fac565b913880613062565b8451630fec21fd60e21b8152600490fd5b81548110156131e5576130fc8183612f28565b508360ff60048093015416156131db575061311a61100a8385612f28565b9081613130575b5050908280925b019091613026565b90968761313c91612fb9565b9661314c600561101d8587612f28565b9055600261315a8385612f28565b50015460036131698486612f28565b5001549062015180918281029281840414901517156131c85791613191869594928694612fb9565b4210156131a1575b509192613121565b6131ab8285612f28565b5001805460ff191690556131c26110a38285612f28565b38613199565b634e487b7160e01b8a526011835260248afd5b9291839150613128565b61302b565b8451634065aaf160e11b8152600490fd5b5060ff600382015416613012565b90816020910312611878575180151581036118785790565b6001600160a01b03918216815291166020820152604081019190915260600190565b811561324d570490565b634e487b7160e01b600052601260045260246000fd5b906001600160a01b0380831691821580156133f6575b61043857811691828114612d2a576000818152600e6020526040812092835493818516948686146133ec576001600160a01b03191686179055836132e4575b506132e084956000805160206148568339815191529394958352601160205260408320612f44565b80a4565b94838252601195601160205260408320835b8154808210156133cb5783908761330d8486612e15565b939054600394851b1c16146133265750506001016132f6565b60009a929195969798999a94939419928382019182116133b9575090612f67846133536133619488612e15565b905490891b1c169186612e15565b825480156133a55791600080516020614856833981519152969593916132e09593019261338e8484612e15565b81939154921b1b19169055555b95949392506132b8565b634e487b7160e01b87526031600452602487fd5b634e487b7160e01b8952600452602488fd5b5050505060008051602061485683398151915292939495506132e09061339b565b5050505050505050565b5081811615613279565b9094939260609260808301968352602083015260408201520152565b6001600160a01b03908116908115613465576000805160206147b683398151915280546001600160a01b03198116841790915516600080516020614896833981519152600080a3565b604051631e4fbdf760e01b815260006004820152602490fd5b6000805160206147b6833981519152546001600160a01b0316330361349f57565b60405163118cdaa760e01b8152336004820152602490fd5b60038110156134e15760028110156134db57600111156134d657600090565b600590565b50600a90565b50600f90565b620186a081101561358d576175308110156135845761271081101561357b57610bb8811015613572576103e88110156135695761012c81101561356057606481101561355757601e81101561354e57600a111561354657600090600090565b600190600590565b50600290600a90565b50600390600f90565b50600490601490565b50600590601990565b50600690601e90565b50600790602390565b50600890602890565b50600990602d90565b6000805160206148d683398151915260028154146135b45760029055565b604051633ee5aeb560e01b8152600490fd5b8015612f96576000190190565b60018060a01b0380600092168252600f6020526040822090600182015415159182613675575b50600e602052604083206005810160ff81541615158415151461366e57805460ff191660ff8515151617905554169182156136695760019260409215613650578152600e602052200161364c8154612f87565b9055565b81522001805480613660575b5050565b61364c906135c6565b505050565b5050505050565b6003015460ff16159150386135f9565b3d156136b0573d9061369682612ec0565b916136a46040519384612e9d565b82523d6000602084013e565b606090565b811561365c57814710610cba57600080809381935af16136d3613685565b50156136db57565b604051633d2cec6f60e21b8152600490fd5b60038101546136fb816146cc565b906201518061370e600285015442612fac565b0490808211613763575b50801561375b5761373d633b9aca00916137386005946001870154612fdc565b612fdc565b0491015480821161374f575050600090565b61375891612fac565b90565b505050600090565b905038613718565b8051821015612e2d5760209160051b010190565b8054906000908181558261379257505050565b6001906001600160ff1b03841684036137d1578252602082209260011b8301925b8381106137c05750505050565b8083600292558383820155016137b3565b634e487b7160e01b83526011600452602483fd5b600090808252602090601382526040916040842094855460018060401b0381116138fc576040519661381c848360051b0189612e9d565b8188528652828620869084808a015b8484106138c8575050505050845b86518110156138b05760019087857fae629b396150638d6eb6de457cbffe5d618a10c8cc199a94976bed2b16ecd993866001600160a01b036138a08661389a83613883838a61376b565b51511685613891848b61376b565b51015190614195565b9661376b565b515116938a51908152a301613839565b50945060409250601390612f8594928352522061377f565b6001916002918a516138d981612e59565b848060a01b0386541681528486015483820152815201920192019190859061382b565b634e487b7160e01b86526041600452602486fd5b60018060a01b03808216916000838152602092600f8452604092838320926003840190815460ff9460ff82161561394e575b50505050505050505050565b600160ff199283168117909455601089528783208a9693958695948694939285875b613a99575b5050509886937ff3a670cd3af7d64b488926880889d08a8585a138ff455227af6737339a1ec2629693829a9998937f920bb94eb3842a728db98228c375ff6b00c5bc5a54fac6736155517a0a20a61a9d9c85859996151580613a8f575b613a7f575b505085613a60575b898352600e8d52838320600581018054938416905554169060ff1680613a57575b80613a46575b613a2d575b5050519283525087820152a2549051908152a238808080808080808080613942565b81522001613a3b81546135c6565b905538838180613a0b565b508082528383832001541515613a06565b50801515613a00565b898352600e8d52600684842001613a78878254612fb9565b90556139df565b613a88916136b5565b38876139d7565b50804710156139d2565b9091929394959697998254821015613b7f5750613ab68183612f28565b5098836004809b01541615613b725788613ad08385612f28565b500154808a1b9080820460021490151715613b5f5791613b308a9594939261012c613aff8895600b5490612fdc565b049084613b0c8588612f28565b500154828110613b535790613b2483613b2a93612fac565b90612fb9565b9d612fb9565b9a613b3b8285612f28565b50018881541690555b018e9a99989796959493613970565b8c9250613b2a91612fb9565b634e487b7160e01b895260118b52602489fd5b9998509087809392613b44565b99979695949392613975565b9092918360011c906000918047101580613d6d575b613d5b575b613bad61449b565b670de0b6b3a764000091828102928184041490151715612f9657613bd091613243565b60008054604080516370a0823160e01b8152306004820152989096929360209391926001600160a01b039291908316858c602481845afa9b8c15613d5157879c613d22575b50818a9b9c9a98999a101580613d19575b613c79575b5050926000805160206147968339815191529795926000805160206148b68339815191526080989693600096169a8b9281519081528785820152a282519586528501528301526060820152a2565b94818792949596848399613ca2969b5180978195829463a9059cbb60e01b845260048401612f0d565b03925af1908115613d0e5750936000805160206148b68339815191528a946000805160206147968339815191529a989460809a9894600098613cf1575b50979950939295508194979950613c2b565b613d0790863d8811610c8257610c738183612e9d565b5038613cdf565b8a51903d90823e3d90fd5b50811515613c26565b9b50858c813d8311613d4a575b613d398183612e9d565b81010312612b0c579a519a81613c15565b503d613d2f565b8a513d89823e3d90fd5b9150613d6782846136b5565b81613ba5565b50801515613ba0565b6001600160a01b039081166000818152600f60209081526040808320600181810180549697909693959094929184158015613f2a575b613edf57601084528682208054839291835b828110613eea57505050506133ec576002820196613de0885460165490612fb9565b421115613edf57600383837f57025f0027038907eda728b59164fb63d06048f42e618a35267e6a12e49b2e469a8a9654998d8352600e895260ff6005898520928354169201541680613ed6575b80613ec4575b613eaa575b508c8252600e88528187812095816004600589019860ff19998a81541690558289820155015581855555550190815416905584613e7b575b5051928352820152a2565b84815260128352613e8d82822061377f565b848152601483522080546001600160a01b03191690558338613e70565b8252600187832001613ebc81546135c6565b905538613e38565b50808352600188842001541515613e33565b50801515613e2d565b505050505050505050565b60ff6004613ef88385612f28565b50015416613f08575b8301613dbe565b93613f22849182613f198886612f28565b50015490612fb9565b949050613f01565b5060ff600384015416613dac565b60ff6000805160206148f68339815191525460401c1615613f5557565b604051631afcd79f60e31b8152600490fd5b60018060a01b0381166000818152600e60205260409182822092600f60205280832060ff60058601541615908115614091575b8115614084575b5061407b57600484019360038554910193613fbe85548093612fac565b88818111614052575b5050871561404757874710614020575090613ff1876000805160206148b683398151915293612fb9565b8455613ffd87876136b5565b805187815260026020820152a25490541115614017575090565b61375890613910565b9692955050600080516020614836833981519152935080925051908152846020820152a290565b965050505050505090565b819950846000805160206148368339815191529187939b82519182526020820152a23880613fc7565b50509250505090565b6001915001541538613fa1565b600381015460ff169150613f9a565b60018060a01b0381166000818152600e60205260409182822092600f60205280832060ff60058601541615908115614186575b8115614179575b5061407b576004840193600385549101936140f785548093612fac565b88818111614150575b505087156140475787471061402057509061412a876000805160206148b683398151915293612fb9565b845561413687876136b5565b805187815260036020820152a25490541115614017575090565b819950846000805160206148368339815191529187939b82519182526020820152a23880614100565b60019150015415386140da565b600381015460ff1691506140d3565b60018060a01b0380821690600093828552602092600e845260409586812093600f865287822060ff6005870154161590811561448c575b811561447f575b5061444b576141ed60049560038782015491015490612fac565b8885828111614456575b505050831561444b57828252600e86528782209360011c61421661449b565b91670de0b6b3a764000090818302948315958481048414871715614438578c8c8b614242898f95613243565b958598869b158061442e575b61441a575b5086151580614394575b61431c575b5050505050505061427e906142778486612fdc565b0482612fb9565b9889614291575b50505050505050505090565b848a828960038a019b838d54906142a791612fb9565b809d5582519384528301526000805160206148b683398151915291a25192839242916142d39385613400565b037fe83062c7bae5146a0afc41b3a8342f225ed2581a8e234e0ba69d9ff8c53a48d691a20154111561430d575b8080808080808080614285565b61431690613910565b38614300565b8554935163a9059cbb60e01b8152979a5095969586931691839186918391614347918b918401612f0d565b03925af190811561438957509061427e929161436c575b50939038898c8c8b84614262565b614382908a3d8c11610c8257610c738183612e9d565b503861435e565b8c51903d90823e3d90fd5b509391506024848654169351809481936370a0823160e01b835230908301525afa908115614410578b8f92938f928f95889188916143d5575b50101561425d565b95505050938092508391503d8311614409575b6143f28183612e9d565b810103126113fa578c8b8f9293868f9551386143cd565b503d6143e8565b8e513d85823e3d90fd5b90985061442781846136b5565b9738614253565b508047101561424e565b634e487b7160e01b825260118a52602482fd5b509550505050505090565b829650906000805160206148368339815191529186939782519182528a820152a23888816141f7565b60019150015415386141d3565b600381015460ff1691506141cc565b60195480158015614509575b6144fc5760185490670de0b6b3a764000091828102928184041490151715612f96576144d291613243565b67016345785d8a00008082106144f75750678ac7230489e800008082116144f7575090565b905090565b50670de0b6b3a764000090565b50683635c9adc5dea00000601854106144a7565b9081156146c857601854683635c9adc5dea000008082109081156146bc575b506146b7574761454c8483612fb9565b116146b757612710830261270f1984820401612f965761456f826103e892613243565b116146b7576019549261458f6145858583612fdc565b6116a18385612fb9565b801580156146ae575b6146a75760009460018060a01b038654169060409485516370a0823160e01b8152306004820152602081602481875afa90811561469d579083918a91614664575b501061465a5783889392611738876145f094612fb9565b601955803b156118385781906024865180948193630852cd8d60e31b83528760048401525af1801561465057600080516020614876833981519152959650614641575b5082519182526020820152a1565b61464a90612e8a565b38614633565b84513d88823e3d90fd5b5050505050509050565b9150506020813d602011614695575b8161468060209383612e9d565b8101031261469157829051386145d9565b8880fd5b3d9150614673565b87513d8b823e3d90fd5b5050509050565b50848111614598565b509050565b9050601954103861453c565b9050565b600781146146ea57600f146146e3576301312d0090565b62fe502b90565b5062cb735690565b90614719575080511561470757602081519101fd5b60405163d6bda27560e01b8152600490fd5b8151158061474c575b61472a575090565b604051639996b31560e01b81526001600160a01b039091166004820152602490fd5b50803b1561472256fe38f8a0c92f4c5b0b6877f878cb4c0c8d348a47b76d716c8e78f425043df9515b62c4ea4229c396c9b5c33779ec09ed411b29ed8782e48ac358eaa9e8aa58a9b06fcebd0a2ce98b28cb391d6008bbc769378c9a4919628e11639cb575cd320fcc9016d09d72d40fdae2fd8ceac6b6234c7706214fd39c1cd1e609a0528c199300ea8384d3ca7bf5b7510d3faee44a3774406c1fd3ac14fff110a8c98d47a25956a0eea20e678cb42233c1c456c84cedce7ea53fa360bb71bf3b761b7609567770360894a13ba1a3210667c828492db98dca3e2076cc3735a920a3ca505d382bbcb5987aab1afd379f6695f1068869ee8ca6a0d02304c57935a9cc3d3ea2e51e4df8b9fe4d008320e6f048c61e41e9cc56ce351354ad0cb9a868bd3c4bd6928fd50ec3929061cbbbeecb325623e7d5a86c3dae11cb8a22ca45dc0972955657da258be0079c531659141344cd1fd0a4f28419497f9722a3daafe3b4186f6b6457e0f381583145e90b82cc5e529bf4fc4d0e44397174cdf145c4251ac33ef195a4249b779b17422d0df92223018b32b4d1fa46e071723d6817e2486d003becc55f00f0c57e16840df040f15088dc2f81fe391c3923bec73e23a9662efc9c229c6a00a26469706673582212204c4d6900fc0f8f7599f75b03070314b582ac77fa7766a8abcda3e3598127445b64736f6c63430008160033",
  "linkReferences": {},
  "deployedLinkReferences": {}
}