{
  "_format": "hh-sol-artifact-1",
  "contractName": "JinbaoProtocolV4",
  "sourceName": "contracts/JinbaoProtocolV4.sol",
  "abi": [
    {
      "inputs": [],
      "stateMutability": "nonpayable",
      "type": "constructor"
    },
    {
      "inputs": [],
      "name": "ActionTooEarly",
      "type": "error"
    },
    {
      "inputs": [
        {
          "internalType": "address",
          "name": "target",
          "type": "address"
        }
      ],
      "name": "AddressEmptyCode",
      "type": "error"
    },
    {
      "inputs": [],
      "name": "AlreadyBound",
      "type": "error"
    },
    {
      "inputs": [],
      "name": "AlreadyExited",
      "type": "error"
    },
    {
      "inputs": [],
      "name": "ContractPaused",
      "type": "error"
    },
    {
      "inputs": [
        {
          "internalType": "address",
          "name": "implementation",
          "type": "address"
        }
      ],
      "name": "ERC1967InvalidImplementation",
      "type": "error"
    },
    {
      "inputs": [],
      "name": "ERC1967NonPayable",
      "type": "error"
    },
    {
      "inputs": [],
      "name": "FailedCall",
      "type": "error"
    },
    {
      "inputs": [],
      "name": "InsufficientBalance",
      "type": "error"
    },
    {
      "inputs": [],
      "name": "InsufficientNativeBalance",
      "type": "error"
    },
    {
      "inputs": [],
      "name": "InvalidAddress",
      "type": "error"
    },
    {
      "inputs": [],
      "name": "InvalidAmount",
      "type": "error"
    },
    {
      "inputs": [],
      "name": "InvalidCycle",
      "type": "error"
    },
    {
      "inputs": [],
      "name": "InvalidInitialization",
      "type": "error"
    },
    {
      "inputs": [],
      "name": "LowLiquidity",
      "type": "error"
    },
    {
      "inputs": [],
      "name": "NativeTransferFailed",
      "type": "error"
    },
    {
      "inputs": [],
      "name": "NoRewards",
      "type": "error"
    },
    {
      "inputs": [],
      "name": "NotActive",
      "type": "error"
    },
    {
      "inputs": [],
      "name": "NotInitializing",
      "type": "error"
    },
    {
      "inputs": [],
      "name": "NothingToRedeem",
      "type": "error"
    },
    {
      "inputs": [
        {
          "internalType": "address",
          "name": "owner",
          "type": "address"
        }
      ],
      "name": "OwnableInvalidOwner",
      "type": "error"
    },
    {
      "inputs": [
        {
          "internalType": "address",
          "name": "account",
          "type": "address"
        }
      ],
      "name": "OwnableUnauthorizedAccount",
      "type": "error"
    },
    {
      "inputs": [],
      "name": "ReentrancyGuardReentrantCall",
      "type": "error"
    },
    {
      "inputs": [],
      "name": "SelfReference",
      "type": "error"
    },
    {
      "inputs": [
        {
          "internalType": "string",
          "name": "reason",
          "type": "string"
        }
      ],
      "name": "TransferFromFailed",
      "type": "error"
    },
    {
      "inputs": [],
      "name": "TransferFromFailedLowLevel",
      "type": "error"
    },
    {
      "inputs": [],
      "name": "UUPSUnauthorizedCallContext",
      "type": "error"
    },
    {
      "inputs": [
        {
          "internalType": "bytes32",
          "name": "slot",
          "type": "bytes32"
        }
      ],
      "name": "UUPSUnsupportedProxiableUUID",
      "type": "error"
    },
    {
      "inputs": [],
      "name": "Unauthorized",
      "type": "error"
    },
    {
      "anonymous": false,
      "inputs": [
        {
          "indexed": true,
          "internalType": "address",
          "name": "user",
          "type": "address"
        },
        {
          "indexed": true,
          "internalType": "address",
          "name": "referrer",
          "type": "address"
        }
      ],
      "name": "BoundReferrer",
      "type": "event"
    },
    {
      "anonymous": false,
      "inputs": [
        {
          "indexed": false,
          "internalType": "uint256",
          "name": "mcAmount",
          "type": "uint256"
        },
        {
          "indexed": false,
          "internalType": "uint256",
          "name": "jbcBurned",
          "type": "uint256"
        }
      ],
      "name": "BuybackAndBurn",
      "type": "event"
    },
    {
      "anonymous": false,
      "inputs": [
        {
          "indexed": true,
          "internalType": "address",
          "name": "user",
          "type": "address"
        },
        {
          "indexed": false,
          "internalType": "uint256",
          "name": "mcAmount",
          "type": "uint256"
        },
        {
          "indexed": false,
          "internalType": "uint256",
          "name": "jbcAmount",
          "type": "uint256"
        },
        {
          "indexed": false,
          "internalType": "uint256",
          "name": "jbcPrice",
          "type": "uint256"
        },
        {
          "indexed": false,
          "internalType": "uint256",
          "name": "timestamp",
          "type": "uint256"
        }
      ],
      "name": "DifferentialRewardDistributed",
      "type": "event"
    },
    {
      "anonymous": false,
      "inputs": [
        {
          "indexed": true,
          "internalType": "uint256",
          "name": "stakeId",
          "type": "uint256"
        },
        {
          "indexed": true,
          "internalType": "address",
          "name": "upline",
          "type": "address"
        },
        {
          "indexed": false,
          "internalType": "uint256",
          "name": "amount",
          "type": "uint256"
        }
      ],
      "name": "DifferentialRewardRecorded",
      "type": "event"
    },
    {
      "anonymous": false,
      "inputs": [
        {
          "indexed": true,
          "internalType": "uint256",
          "name": "stakeId",
          "type": "uint256"
        },
        {
          "indexed": true,
          "internalType": "address",
          "name": "upline",
          "type": "address"
        },
        {
          "indexed": false,
          "internalType": "uint256",
          "name": "amount",
          "type": "uint256"
        }
      ],
      "name": "DifferentialRewardReleased",
      "type": "event"
    },
    {
      "anonymous": false,
      "inputs": [
        {
          "indexed": false,
          "internalType": "uint256",
          "name": "direct",
          "type": "uint256"
        },
        {
          "indexed": false,
          "internalType": "uint256",
          "name": "level",
          "type": "uint256"
        },
        {
          "indexed": false,
          "internalType": "uint256",
          "name": "marketing",
          "type": "uint256"
        },
        {
          "indexed": false,
          "internalType": "uint256",
          "name": "buyback",
          "type": "uint256"
        },
        {
          "indexed": false,
          "internalType": "uint256",
          "name": "lpInjection",
          "type": "uint256"
        },
        {
          "indexed": false,
          "internalType": "uint256",
          "name": "treasury",
          "type": "uint256"
        }
      ],
      "name": "DistributionConfigUpdated",
      "type": "event"
    },
    {
      "anonymous": false,
      "inputs": [],
      "name": "EmergencyPaused",
      "type": "event"
    },
    {
      "anonymous": false,
      "inputs": [],
      "name": "EmergencyUnpaused",
      "type": "event"
    },
    {
      "anonymous": false,
      "inputs": [
        {
          "indexed": true,
          "internalType": "address",
          "name": "user",
          "type": "address"
        },
        {
          "indexed": false,
          "internalType": "uint256",
          "name": "ticketId",
          "type": "uint256"
        }
      ],
      "name": "Exited",
      "type": "event"
    },
    {
      "anonymous": false,
      "inputs": [
        {
          "indexed": true,
          "internalType": "address",
          "name": "user",
          "type": "address"
        },
        {
          "indexed": false,
          "internalType": "uint256",
          "name": "amount",
          "type": "uint256"
        }
      ],
      "name": "FeeRefunded",
      "type": "event"
    },
    {
      "anonymous": false,
      "inputs": [
        {
          "indexed": false,
          "internalType": "uint64",
          "name": "version",
          "type": "uint64"
        }
      ],
      "name": "Initialized",
      "type": "event"
    },
    {
      "anonymous": false,
      "inputs": [
        {
          "indexed": false,
          "internalType": "uint256",
          "name": "mcAmount",
          "type": "uint256"
        },
        {
          "indexed": false,
          "internalType": "uint256",
          "name": "jbcAmount",
          "type": "uint256"
        }
      ],
      "name": "LiquidityAdded",
      "type": "event"
    },
    {
      "anonymous": false,
      "inputs": [
        {
          "indexed": true,
          "internalType": "address",
          "name": "user",
          "type": "address"
        },
        {
          "indexed": false,
          "internalType": "uint256",
          "name": "amount",
          "type": "uint256"
        },
        {
          "indexed": false,
          "internalType": "uint256",
          "name": "cycleDays",
          "type": "uint256"
        },
        {
          "indexed": false,
          "internalType": "uint256",
          "name": "stakeId",
          "type": "uint256"
        }
      ],
      "name": "LiquidityStaked",
      "type": "event"
    },
    {
      "anonymous": false,
      "inputs": [
        {
          "indexed": true,
          "internalType": "address",
          "name": "from",
          "type": "address"
        },
        {
          "indexed": false,
          "internalType": "uint256",
          "name": "amount",
          "type": "uint256"
        }
      ],
      "name": "NativeMCReceived",
      "type": "event"
    },
    {
      "anonymous": false,
      "inputs": [
        {
          "indexed": true,
          "internalType": "address",
          "name": "to",
          "type": "address"
        },
        {
          "indexed": false,
          "internalType": "uint256",
          "name": "amount",
          "type": "uint256"
        }
      ],
      "name": "NativeMCWithdrawn",
      "type": "event"
    },
    {
      "anonymous": false,
      "inputs": [
        {
          "indexed": true,
          "internalType": "address",
          "name": "previousOwner",
          "type": "address"
        },
        {
          "indexed": true,
          "internalType": "address",
          "name": "newOwner",
          "type": "address"
        }
      ],
      "name": "OwnershipTransferred",
      "type": "event"
    },
    {
      "anonymous": false,
      "inputs": [
        {
          "indexed": true,
          "internalType": "address",
          "name": "user",
          "type": "address"
        },
        {
          "indexed": false,
          "internalType": "uint256",
          "name": "principal",
          "type": "uint256"
        },
        {
          "indexed": false,
          "internalType": "uint256",
          "name": "fee",
          "type": "uint256"
        }
      ],
      "name": "Redeemed",
      "type": "event"
    },
    {
      "anonymous": false,
      "inputs": [
        {
          "indexed": true,
          "internalType": "address",
          "name": "user",
          "type": "address"
        },
        {
          "indexed": true,
          "internalType": "address",
          "name": "from",
          "type": "address"
        },
        {
          "indexed": false,
          "internalType": "uint256",
          "name": "mcAmount",
          "type": "uint256"
        },
        {
          "indexed": false,
          "internalType": "uint256",
          "name": "jbcAmount",
          "type": "uint256"
        },
        {
          "indexed": false,
          "internalType": "uint8",
          "name": "rewardType",
          "type": "uint8"
        },
        {
          "indexed": false,
          "internalType": "uint256",
          "name": "ticketId",
          "type": "uint256"
        }
      ],
      "name": "ReferralRewardPaid",
      "type": "event"
    },
    {
      "anonymous": false,
      "inputs": [
        {
          "indexed": true,
          "internalType": "address",
          "name": "user",
          "type": "address"
        },
        {
          "indexed": true,
          "internalType": "address",
          "name": "oldReferrer",
          "type": "address"
        },
        {
          "indexed": true,
          "internalType": "address",
          "name": "newReferrer",
          "type": "address"
        }
      ],
      "name": "ReferrerChanged",
      "type": "event"
    },
    {
      "anonymous": false,
      "inputs": [
        {
          "indexed": true,
          "internalType": "address",
          "name": "user",
          "type": "address"
        },
        {
          "indexed": false,
          "internalType": "uint256",
          "name": "amount",
          "type": "uint256"
        },
        {
          "indexed": false,
          "internalType": "uint256",
          "name": "cappedAmount",
          "type": "uint256"
        }
      ],
      "name": "RewardCapped",
      "type": "event"
    },
    {
      "anonymous": false,
      "inputs": [
        {
          "indexed": true,
          "internalType": "address",
          "name": "user",
          "type": "address"
        },
        {
          "indexed": false,
          "internalType": "uint256",
          "name": "mcAmount",
          "type": "uint256"
        },
        {
          "indexed": false,
          "internalType": "uint256",
          "name": "jbcAmount",
          "type": "uint256"
        },
        {
          "indexed": false,
          "internalType": "uint8",
          "name": "rewardType",
          "type": "uint8"
        },
        {
          "indexed": false,
          "internalType": "uint256",
          "name": "ticketId",
          "type": "uint256"
        }
      ],
      "name": "RewardClaimed",
      "type": "event"
    },
    {
      "anonymous": false,
      "inputs": [
        {
          "indexed": true,
          "internalType": "address",
          "name": "user",
          "type": "address"
        },
        {
          "indexed": false,
          "internalType": "uint256",
          "name": "amount",
          "type": "uint256"
        },
        {
          "indexed": false,
          "internalType": "uint8",
          "name": "rewardType",
          "type": "uint8"
        }
      ],
      "name": "RewardPaid",
      "type": "event"
    },
    {
      "anonymous": false,
      "inputs": [
        {
          "indexed": false,
          "internalType": "uint256",
          "name": "buyTax",
          "type": "uint256"
        },
        {
          "indexed": false,
          "internalType": "uint256",
          "name": "sellTax",
          "type": "uint256"
        }
      ],
      "name": "SwapTaxesUpdated",
      "type": "event"
    },
    {
      "anonymous": false,
      "inputs": [
        {
          "indexed": true,
          "internalType": "address",
          "name": "user",
          "type": "address"
        },
        {
          "indexed": false,
          "internalType": "uint256",
          "name": "jbcAmount",
          "type": "uint256"
        },
        {
          "indexed": false,
          "internalType": "uint256",
          "name": "mcAmount",
          "type": "uint256"
        },
        {
          "indexed": false,
          "internalType": "uint256",
          "name": "tax",
          "type": "uint256"
        }
      ],
      "name": "SwappedJBCToMC",
      "type": "event"
    },
    {
      "anonymous": false,
      "inputs": [
        {
          "indexed": true,
          "internalType": "address",
          "name": "user",
          "type": "address"
        },
        {
          "indexed": false,
          "internalType": "uint256",
          "name": "mcAmount",
          "type": "uint256"
        },
        {
          "indexed": false,
          "internalType": "uint256",
          "name": "jbcAmount",
          "type": "uint256"
        },
        {
          "indexed": false,
          "internalType": "uint256",
          "name": "tax",
          "type": "uint256"
        }
      ],
      "name": "SwappedMCToJBC",
      "type": "event"
    },
    {
      "anonymous": false,
      "inputs": [
        {
          "indexed": true,
          "internalType": "address",
          "name": "user",
          "type": "address"
        },
        {
          "indexed": false,
          "internalType": "uint256",
          "name": "oldCount",
          "type": "uint256"
        },
        {
          "indexed": false,
          "internalType": "uint256",
          "name": "newCount",
          "type": "uint256"
        }
      ],
      "name": "TeamCountUpdated",
      "type": "event"
    },
    {
      "anonymous": false,
      "inputs": [
        {
          "indexed": true,
          "internalType": "address",
          "name": "user",
          "type": "address"
        },
        {
          "indexed": false,
          "internalType": "uint256",
          "name": "ticketId",
          "type": "uint256"
        },
        {
          "indexed": false,
          "internalType": "uint256",
          "name": "amount",
          "type": "uint256"
        }
      ],
      "name": "TicketExpired",
      "type": "event"
    },
    {
      "anonymous": false,
      "inputs": [
        {
          "indexed": true,
          "internalType": "address",
          "name": "user",
          "type": "address"
        },
        {
          "indexed": false,
          "internalType": "uint256",
          "name": "amount",
          "type": "uint256"
        },
        {
          "indexed": false,
          "internalType": "uint256",
          "name": "ticketId",
          "type": "uint256"
        }
      ],
      "name": "TicketPurchased",
      "type": "event"
    },
    {
      "anonymous": false,
      "inputs": [
        {
          "indexed": true,
          "internalType": "address",
          "name": "implementation",
          "type": "address"
        }
      ],
      "name": "Upgraded",
      "type": "event"
    },
    {
      "anonymous": false,
      "inputs": [
        {
          "indexed": true,
          "internalType": "address",
          "name": "user",
          "type": "address"
        },
        {
          "indexed": false,
          "internalType": "uint256",
          "name": "activeDirects",
          "type": "uint256"
        },
        {
          "indexed": false,
          "internalType": "uint256",
          "name": "totalRevenue",
          "type": "uint256"
        },
        {
          "indexed": false,
          "internalType": "uint256",
          "name": "currentCap",
          "type": "uint256"
        },
        {
          "indexed": false,
          "internalType": "uint256",
          "name": "refundFeeAmount",
          "type": "uint256"
        }
      ],
      "name": "UserDataUpdated",
      "type": "event"
    },
    {
      "anonymous": false,
      "inputs": [
        {
          "indexed": true,
          "internalType": "address",
          "name": "user",
          "type": "address"
        },
        {
          "indexed": false,
          "internalType": "uint256",
          "name": "oldLevel",
          "type": "uint256"
        },
        {
          "indexed": false,
          "internalType": "uint256",
          "name": "newLevel",
          "type": "uint256"
        },
        {
          "indexed": false,
          "internalType": "uint256",
          "name": "teamCount",
          "type": "uint256"
        }
      ],
      "name": "UserLevelChanged",
      "type": "event"
    },
    {
      "inputs": [],
      "name": "REWARD_DIFFERENTIAL",
      "outputs": [
        {
          "internalType": "uint8",
          "name": "",
          "type": "uint8"
        }
      ],
      "stateMutability": "view",
      "type": "function"
    },
    {
      "inputs": [],
      "name": "REWARD_DIRECT",
      "outputs": [
        {
          "internalType": "uint8",
          "name": "",
          "type": "uint8"
        }
      ],
      "stateMutability": "view",
      "type": "function"
    },
    {
      "inputs": [],
      "name": "REWARD_DYNAMIC",
      "outputs": [
        {
          "internalType": "uint8",
          "name": "",
          "type": "uint8"
        }
      ],
      "stateMutability": "view",
      "type": "function"
    },
    {
      "inputs": [],
      "name": "REWARD_LEVEL",
      "outputs": [
        {
          "internalType": "uint8",
          "name": "",
          "type": "uint8"
        }
      ],
      "stateMutability": "view",
      "type": "function"
    },
    {
      "inputs": [],
      "name": "REWARD_STATIC",
      "outputs": [
        {
          "internalType": "uint8",
          "name": "",
          "type": "uint8"
        }
      ],
      "stateMutability": "view",
      "type": "function"
    },
    {
      "inputs": [],
      "name": "SECONDS_IN_UNIT",
      "outputs": [
        {
          "internalType": "uint256",
          "name": "",
          "type": "uint256"
        }
      ],
      "stateMutability": "view",
      "type": "function"
    },
    {
      "inputs": [],
      "name": "UPGRADE_INTERFACE_VERSION",
      "outputs": [
        {
          "internalType": "string",
          "name": "",
          "type": "string"
        }
      ],
      "stateMutability": "view",
      "type": "function"
    },
    {
      "inputs": [],
      "name": "VERSION_DEBUG",
      "outputs": [
        {
          "internalType": "uint256",
          "name": "",
          "type": "uint256"
        }
      ],
      "stateMutability": "view",
      "type": "function"
    },
    {
      "inputs": [
        {
          "internalType": "uint256",
          "name": "jbcAmount",
          "type": "uint256"
        }
      ],
      "name": "addLiquidity",
      "outputs": [],
      "stateMutability": "payable",
      "type": "function"
    },
    {
      "inputs": [
        {
          "internalType": "address",
          "name": "user",
          "type": "address"
        },
        {
          "internalType": "uint256",
          "name": "newActiveDirects",
          "type": "uint256"
        }
      ],
      "name": "adminSetActiveDirects",
      "outputs": [],
      "stateMutability": "nonpayable",
      "type": "function"
    },
    {
      "inputs": [
        {
          "internalType": "address",
          "name": "user",
          "type": "address"
        },
        {
          "internalType": "address",
          "name": "newReferrer",
          "type": "address"
        }
      ],
      "name": "adminSetReferrer",
      "outputs": [],
      "stateMutability": "nonpayable",
      "type": "function"
    },
    {
      "inputs": [
        {
          "internalType": "address",
          "name": "user",
          "type": "address"
        },
        {
          "internalType": "uint256",
          "name": "newTeamCount",
          "type": "uint256"
        }
      ],
      "name": "adminSetTeamCount",
      "outputs": [],
      "stateMutability": "nonpayable",
      "type": "function"
    },
    {
      "inputs": [
        {
          "internalType": "address",
          "name": "_referrer",
          "type": "address"
        }
      ],
      "name": "bindReferrer",
      "outputs": [],
      "stateMutability": "nonpayable",
      "type": "function"
    },
    {
      "inputs": [],
      "name": "buyTicket",
      "outputs": [],
      "stateMutability": "payable",
      "type": "function"
    },
    {
      "inputs": [],
      "name": "buybackPercent",
      "outputs": [
        {
          "internalType": "uint256",
          "name": "",
          "type": "uint256"
        }
      ],
      "stateMutability": "view",
      "type": "function"
    },
    {
      "inputs": [],
      "name": "buybackWallet",
      "outputs": [
        {
          "internalType": "address",
          "name": "",
          "type": "address"
        }
      ],
      "stateMutability": "view",
      "type": "function"
    },
    {
      "inputs": [
        {
          "internalType": "uint256",
          "name": "teamCount",
          "type": "uint256"
        }
      ],
      "name": "calculateLevel",
      "outputs": [
        {
          "internalType": "uint256",
          "name": "level",
          "type": "uint256"
        },
        {
          "internalType": "uint256",
          "name": "percent",
          "type": "uint256"
        }
      ],
      "stateMutability": "pure",
      "type": "function"
    },
    {
      "inputs": [],
      "name": "claimRewards",
      "outputs": [],
      "stateMutability": "nonpayable",
      "type": "function"
    },
    {
      "inputs": [],
      "name": "dailyBurn",
      "outputs": [],
      "stateMutability": "nonpayable",
      "type": "function"
    },
    {
      "inputs": [
        {
          "internalType": "address",
          "name": "",
          "type": "address"
        },
        {
          "internalType": "uint256",
          "name": "",
          "type": "uint256"
        }
      ],
      "name": "directReferrals",
      "outputs": [
        {
          "internalType": "address",
          "name": "",
          "type": "address"
        }
      ],
      "stateMutability": "view",
      "type": "function"
    },
    {
      "inputs": [],
      "name": "directRewardPercent",
      "outputs": [
        {
          "internalType": "uint256",
          "name": "",
          "type": "uint256"
        }
      ],
      "stateMutability": "view",
      "type": "function"
    },
    {
      "inputs": [],
      "name": "emergencyPause",
      "outputs": [],
      "stateMutability": "nonpayable",
      "type": "function"
    },
    {
      "inputs": [],
      "name": "emergencyPaused",
      "outputs": [
        {
          "internalType": "bool",
          "name": "",
          "type": "bool"
        }
      ],
      "stateMutability": "view",
      "type": "function"
    },
    {
      "inputs": [],
      "name": "emergencyUnpause",
      "outputs": [],
      "stateMutability": "nonpayable",
      "type": "function"
    },
    {
      "inputs": [
        {
          "internalType": "address",
          "name": "_to",
          "type": "address"
        },
        {
          "internalType": "uint256",
          "name": "_amount",
          "type": "uint256"
        }
      ],
      "name": "emergencyWithdrawNative",
      "outputs": [],
      "stateMutability": "nonpayable",
      "type": "function"
    },
    {
      "inputs": [
        {
          "internalType": "address",
          "name": "user",
          "type": "address"
        }
      ],
      "name": "getDirectReferrals",
      "outputs": [
        {
          "internalType": "address[]",
          "name": "",
          "type": "address[]"
        }
      ],
      "stateMutability": "view",
      "type": "function"
    },
    {
      "inputs": [
        {
          "internalType": "uint256",
          "name": "activeDirects",
          "type": "uint256"
        }
      ],
      "name": "getLevelRewardLayers",
      "outputs": [
        {
          "internalType": "uint256",
          "name": "",
          "type": "uint256"
        }
      ],
      "stateMutability": "pure",
      "type": "function"
    },
    {
      "inputs": [
        {
          "internalType": "address",
          "name": "user",
          "type": "address"
        }
      ],
      "name": "getUserLevel",
      "outputs": [
        {
          "internalType": "uint256",
          "name": "level",
          "type": "uint256"
        },
        {
          "internalType": "uint256",
          "name": "percent",
          "type": "uint256"
        },
        {
          "internalType": "uint256",
          "name": "teamCount",
          "type": "uint256"
        }
      ],
      "stateMutability": "view",
      "type": "function"
    },
    {
      "inputs": [
        {
          "internalType": "address",
          "name": "_jbcToken",
          "type": "address"
        },
        {
          "internalType": "address",
          "name": "_marketing",
          "type": "address"
        },
        {
          "internalType": "address",
          "name": "_treasury",
          "type": "address"
        },
        {
          "internalType": "address",
          "name": "_lpInjection",
          "type": "address"
        },
        {
          "internalType": "address",
          "name": "_buybackWallet",
          "type": "address"
        }
      ],
      "name": "initialize",
      "outputs": [],
      "stateMutability": "nonpayable",
      "type": "function"
    },
    {
      "inputs": [],
      "name": "jbcToken",
      "outputs": [
        {
          "internalType": "contract IJBC",
          "name": "",
          "type": "address"
        }
      ],
      "stateMutability": "view",
      "type": "function"
    },
    {
      "inputs": [],
      "name": "lastBurnTime",
      "outputs": [
        {
          "internalType": "uint256",
          "name": "",
          "type": "uint256"
        }
      ],
      "stateMutability": "view",
      "type": "function"
    },
    {
      "inputs": [],
      "name": "levelRewardPercent",
      "outputs": [
        {
          "internalType": "uint256",
          "name": "",
          "type": "uint256"
        }
      ],
      "stateMutability": "view",
      "type": "function"
    },
    {
      "inputs": [],
      "name": "levelRewardPool",
      "outputs": [
        {
          "internalType": "uint256",
          "name": "",
          "type": "uint256"
        }
      ],
      "stateMutability": "view",
      "type": "function"
    },
    {
      "inputs": [],
      "name": "liquidityEnabled",
      "outputs": [
        {
          "internalType": "bool",
          "name": "",
          "type": "bool"
        }
      ],
      "stateMutability": "view",
      "type": "function"
    },
    {
      "inputs": [],
      "name": "lpInjectionPercent",
      "outputs": [
        {
          "internalType": "uint256",
          "name": "",
          "type": "uint256"
        }
      ],
      "stateMutability": "view",
      "type": "function"
    },
    {
      "inputs": [],
      "name": "lpInjectionWallet",
      "outputs": [
        {
          "internalType": "address",
          "name": "",
          "type": "address"
        }
      ],
      "stateMutability": "view",
      "type": "function"
    },
    {
      "inputs": [],
      "name": "marketingPercent",
      "outputs": [
        {
          "internalType": "uint256",
          "name": "",
          "type": "uint256"
        }
      ],
      "stateMutability": "view",
      "type": "function"
    },
    {
      "inputs": [],
      "name": "marketingWallet",
      "outputs": [
        {
          "internalType": "address",
          "name": "",
          "type": "address"
        }
      ],
      "stateMutability": "view",
      "type": "function"
    },
    {
      "inputs": [],
      "name": "nextStakeId",
      "outputs": [
        {
          "internalType": "uint256",
          "name": "",
          "type": "uint256"
        }
      ],
      "stateMutability": "view",
      "type": "function"
    },
    {
      "inputs": [],
      "name": "nextTicketId",
      "outputs": [
        {
          "internalType": "uint256",
          "name": "",
          "type": "uint256"
        }
      ],
      "stateMutability": "view",
      "type": "function"
    },
    {
      "inputs": [],
      "name": "owner",
      "outputs": [
        {
          "internalType": "address",
          "name": "",
          "type": "address"
        }
      ],
      "stateMutability": "view",
      "type": "function"
    },
    {
      "inputs": [],
      "name": "priceOracle",
      "outputs": [
        {
          "internalType": "address",
          "name": "",
          "type": "address"
        }
      ],
      "stateMutability": "view",
      "type": "function"
    },
    {
      "inputs": [],
      "name": "proxiableUUID",
      "outputs": [
        {
          "internalType": "bytes32",
          "name": "",
          "type": "bytes32"
        }
      ],
      "stateMutability": "view",
      "type": "function"
    },
    {
      "inputs": [],
      "name": "redeem",
      "outputs": [],
      "stateMutability": "nonpayable",
      "type": "function"
    },
    {
      "inputs": [],
      "name": "redeemEnabled",
      "outputs": [
        {
          "internalType": "bool",
          "name": "",
          "type": "bool"
        }
      ],
      "stateMutability": "view",
      "type": "function"
    },
    {
      "inputs": [],
      "name": "redemptionFeePercent",
      "outputs": [
        {
          "internalType": "uint256",
          "name": "",
          "type": "uint256"
        }
      ],
      "stateMutability": "view",
      "type": "function"
    },
    {
      "inputs": [],
      "name": "renounceOwnership",
      "outputs": [],
      "stateMutability": "nonpayable",
      "type": "function"
    },
    {
      "inputs": [
        {
          "internalType": "address",
          "name": "_token",
          "type": "address"
        },
        {
          "internalType": "address",
          "name": "_to",
          "type": "address"
        },
        {
          "internalType": "uint256",
          "name": "_amount",
          "type": "uint256"
        }
      ],
      "name": "rescueTokens",
      "outputs": [],
      "stateMutability": "nonpayable",
      "type": "function"
    },
    {
      "inputs": [
        {
          "internalType": "uint256",
          "name": "_direct",
          "type": "uint256"
        },
        {
          "internalType": "uint256",
          "name": "_level",
          "type": "uint256"
        },
        {
          "internalType": "uint256",
          "name": "_marketing",
          "type": "uint256"
        },
        {
          "internalType": "uint256",
          "name": "_buyback",
          "type": "uint256"
        },
        {
          "internalType": "uint256",
          "name": "_lpInjection",
          "type": "uint256"
        },
        {
          "internalType": "uint256",
          "name": "_treasury",
          "type": "uint256"
        }
      ],
      "name": "setDistributionConfig",
      "outputs": [],
      "stateMutability": "nonpayable",
      "type": "function"
    },
    {
      "inputs": [
        {
          "internalType": "bool",
          "name": "_liquidityEnabled",
          "type": "bool"
        },
        {
          "internalType": "bool",
          "name": "_redeemEnabled",
          "type": "bool"
        }
      ],
      "name": "setOperationalStatus",
      "outputs": [],
      "stateMutability": "nonpayable",
      "type": "function"
    },
    {
      "inputs": [
        {
          "internalType": "uint256",
          "name": "_fee",
          "type": "uint256"
        }
      ],
      "name": "setRedemptionFeePercent",
      "outputs": [],
      "stateMutability": "nonpayable",
      "type": "function"
    },
    {
      "inputs": [
        {
          "internalType": "uint256",
          "name": "_buyTax",
          "type": "uint256"
        },
        {
          "internalType": "uint256",
          "name": "_sellTax",
          "type": "uint256"
        }
      ],
      "name": "setSwapTaxes",
      "outputs": [],
      "stateMutability": "nonpayable",
      "type": "function"
    },
    {
      "inputs": [
        {
          "internalType": "uint256",
          "name": "_duration",
          "type": "uint256"
        }
      ],
      "name": "setTicketFlexibilityDuration",
      "outputs": [],
      "stateMutability": "nonpayable",
      "type": "function"
    },
    {
      "inputs": [
        {
          "internalType": "address",
          "name": "_marketing",
          "type": "address"
        },
        {
          "internalType": "address",
          "name": "_treasury",
          "type": "address"
        },
        {
          "internalType": "address",
          "name": "_lpInjection",
          "type": "address"
        },
        {
          "internalType": "address",
          "name": "_buyback",
          "type": "address"
        }
      ],
      "name": "setWallets",
      "outputs": [],
      "stateMutability": "nonpayable",
      "type": "function"
    },
    {
      "inputs": [
        {
          "internalType": "uint256",
          "name": "cycleDays",
          "type": "uint256"
        }
      ],
      "name": "stakeLiquidity",
      "outputs": [],
      "stateMutability": "payable",
      "type": "function"
    },
    {
      "inputs": [
        {
          "internalType": "uint256",
          "name": "",
          "type": "uint256"
        }
      ],
      "name": "stakeOwner",
      "outputs": [
        {
          "internalType": "address",
          "name": "",
          "type": "address"
        }
      ],
      "stateMutability": "view",
      "type": "function"
    },
    {
      "inputs": [
        {
          "internalType": "uint256",
          "name": "",
          "type": "uint256"
        },
        {
          "internalType": "uint256",
          "name": "",
          "type": "uint256"
        }
      ],
      "name": "stakePendingRewards",
      "outputs": [
        {
          "internalType": "address",
          "name": "upline",
          "type": "address"
        },
        {
          "internalType": "uint256",
          "name": "amount",
          "type": "uint256"
        }
      ],
      "stateMutability": "view",
      "type": "function"
    },
    {
      "inputs": [],
      "name": "swapBuyTax",
      "outputs": [
        {
          "internalType": "uint256",
          "name": "",
          "type": "uint256"
        }
      ],
      "stateMutability": "view",
      "type": "function"
    },
    {
      "inputs": [
        {
          "internalType": "uint256",
          "name": "jbcAmount",
          "type": "uint256"
        }
      ],
      "name": "swapJBCToMC",
      "outputs": [],
      "stateMutability": "nonpayable",
      "type": "function"
    },
    {
      "inputs": [],
      "name": "swapMCToJBC",
      "outputs": [],
      "stateMutability": "payable",
      "type": "function"
    },
    {
      "inputs": [],
      "name": "swapReserveJBC",
      "outputs": [
        {
          "internalType": "uint256",
          "name": "",
          "type": "uint256"
        }
      ],
      "stateMutability": "view",
      "type": "function"
    },
    {
      "inputs": [],
      "name": "swapReserveMC",
      "outputs": [
        {
          "internalType": "uint256",
          "name": "",
          "type": "uint256"
        }
      ],
      "stateMutability": "view",
      "type": "function"
    },
    {
      "inputs": [],
      "name": "swapSellTax",
      "outputs": [
        {
          "internalType": "uint256",
          "name": "",
          "type": "uint256"
        }
      ],
      "stateMutability": "view",
      "type": "function"
    },
    {
      "inputs": [],
      "name": "ticketFlexibilityDuration",
      "outputs": [
        {
          "internalType": "uint256",
          "name": "",
          "type": "uint256"
        }
      ],
      "stateMutability": "view",
      "type": "function"
    },
    {
      "inputs": [
        {
          "internalType": "uint256",
          "name": "",
          "type": "uint256"
        }
      ],
      "name": "ticketOwner",
      "outputs": [
        {
          "internalType": "address",
          "name": "",
          "type": "address"
        }
      ],
      "stateMutability": "view",
      "type": "function"
    },
    {
      "inputs": [
        {
          "internalType": "uint256",
          "name": "",
          "type": "uint256"
        },
        {
          "internalType": "uint256",
          "name": "",
          "type": "uint256"
        }
      ],
      "name": "ticketPendingRewards",
      "outputs": [
        {
          "internalType": "address",
          "name": "upline",
          "type": "address"
        },
        {
          "internalType": "uint256",
          "name": "amount",
          "type": "uint256"
        }
      ],
      "stateMutability": "view",
      "type": "function"
    },
    {
      "inputs": [
        {
          "internalType": "address",
          "name": "newOwner",
          "type": "address"
        }
      ],
      "name": "transferOwnership",
      "outputs": [],
      "stateMutability": "nonpayable",
      "type": "function"
    },
    {
      "inputs": [],
      "name": "treasuryPercent",
      "outputs": [
        {
          "internalType": "uint256",
          "name": "",
          "type": "uint256"
        }
      ],
      "stateMutability": "view",
      "type": "function"
    },
    {
      "inputs": [],
      "name": "treasuryWallet",
      "outputs": [
        {
          "internalType": "address",
          "name": "",
          "type": "address"
        }
      ],
      "stateMutability": "view",
      "type": "function"
    },
    {
      "inputs": [
        {
          "internalType": "address",
          "name": "newImplementation",
          "type": "address"
        },
        {
          "internalType": "bytes",
          "name": "data",
          "type": "bytes"
        }
      ],
      "name": "upgradeToAndCall",
      "outputs": [],
      "stateMutability": "payable",
      "type": "function"
    },
    {
      "inputs": [
        {
          "internalType": "address",
          "name": "",
          "type": "address"
        }
      ],
      "name": "userInfo",
      "outputs": [
        {
          "internalType": "address",
          "name": "referrer",
          "type": "address"
        },
        {
          "internalType": "uint256",
          "name": "activeDirects",
          "type": "uint256"
        },
        {
          "internalType": "uint256",
          "name": "teamCount",
          "type": "uint256"
        },
        {
          "internalType": "uint256",
          "name": "totalRevenue",
          "type": "uint256"
        },
        {
          "internalType": "uint256",
          "name": "currentCap",
          "type": "uint256"
        },
        {
          "internalType": "bool",
          "name": "isActive",
          "type": "bool"
        },
        {
          "internalType": "uint256",
          "name": "refundFeeAmount",
          "type": "uint256"
        },
        {
          "internalType": "uint256",
          "name": "teamTotalVolume",
          "type": "uint256"
        },
        {
          "internalType": "uint256",
          "name": "teamTotalCap",
          "type": "uint256"
        },
        {
          "internalType": "uint256",
          "name": "maxTicketAmount",
          "type": "uint256"
        },
        {
          "internalType": "uint256",
          "name": "maxSingleTicketAmount",
          "type": "uint256"
        }
      ],
      "stateMutability": "view",
      "type": "function"
    },
    {
      "inputs": [
        {
          "internalType": "address",
          "name": "",
          "type": "address"
        },
        {
          "internalType": "uint256",
          "name": "",
          "type": "uint256"
        }
      ],
      "name": "userStakes",
      "outputs": [
        {
          "internalType": "uint256",
          "name": "id",
          "type": "uint256"
        },
        {
          "internalType": "uint256",
          "name": "amount",
          "type": "uint256"
        },
        {
          "internalType": "uint256",
          "name": "startTime",
          "type": "uint256"
        },
        {
          "internalType": "uint256",
          "name": "cycleDays",
          "type": "uint256"
        },
        {
          "internalType": "bool",
          "name": "active",
          "type": "bool"
        },
        {
          "internalType": "uint256",
          "name": "paid",
          "type": "uint256"
        }
      ],
      "stateMutability": "view",
      "type": "function"
    },
    {
      "inputs": [
        {
          "internalType": "address",
          "name": "",
          "type": "address"
        }
      ],
      "name": "userTicket",
      "outputs": [
        {
          "internalType": "uint256",
          "name": "ticketId",
          "type": "uint256"
        },
        {
          "internalType": "uint256",
          "name": "amount",
          "type": "uint256"
        },
        {
          "internalType": "uint256",
          "name": "purchaseTime",
          "type": "uint256"
        },
        {
          "internalType": "bool",
          "name": "exited",
          "type": "bool"
        }
      ],
      "stateMutability": "view",
      "type": "function"
    },
    {
      "inputs": [
        {
          "internalType": "address",
          "name": "_toMC",
          "type": "address"
        },
        {
          "internalType": "uint256",
          "name": "_amountMC",
          "type": "uint256"
        },
        {
          "internalType": "address",
          "name": "_toJBC",
          "type": "address"
        },
        {
          "internalType": "uint256",
          "name": "_amountJBC",
          "type": "uint256"
        }
      ],
      "name": "withdrawSwapReserves",
      "outputs": [],
      "stateMutability": "nonpayable",
      "type": "function"
    },
    {
      "stateMutability": "payable",
      "type": "receive"
    }
  ],
  "bytecode": "0x60a08060405234620000d157306080527ff0c57e16840df040f15088dc2f81fe391c3923bec73e23a9662efc9c229c6a009081549060ff8260401c16620000c257506001600160401b036002600160401b0319828216016200007c575b6040516148ce9081620000d78239608051818181611b510152611f3b0152f35b6001600160401b031990911681179091556040519081527fc7f505b2f371ae2175ee4913f4499e1f2633a7b5936321eed1cdaeb6115181d290602090a13880806200005c565b63f92ee8a960e01b8152600490fd5b600080fdfe60806040526004361015610056575b361561001957600080fd5b61002534601854612f79565b6018556040513481527fc8382e3e3003d34021113f35bf95ee86b77a09ec08c4eb3cbe64076e60468f4e60203392a2005b6000803560e01c806301d62efb14612d2c57806304ef9d5814612d0e57806304f618cb14612b6357806305ad393514612b085780630e2be21014612aec5780631427f61614612ad05780631459457a146128d65780631788513c146128af578063182c84cc146128885780631959a002146127d65780631d0dac76146127b857806321923bde146127695780632630c12f1461273c57806327c830a91461271957806327f082f4146126fb57806335076373146121b0578063372500ab1461218f5780633dbd46bd1461215c5780634626402b14612133578063488b5d97146121155780634a4e3bd5146120cb5780634f1ef28614611ec057806351858e2714611e7357806351c6590a14611d8457806352778b0514611ba957806352d1902d14611b3e5780636031a52f14611b205780636dd6682714611b02578063715018a614611aa957806375506c9614611a8b57806375f0a87414611a6257806377a2a54014611a44578063813380cd14611a1657806381eeef5c1461192757806383672f3e1461186f578063841d308b146116055780638710bcaa146115a457806388481b611461158857806388fd4d331461155f5780638a859a85146113be5780638c0eaa48146115435780638da5cb5b1461150d57806390b0eb51146114bd5780639370b0801461149f5780639b788504146114305780639d99eca41461140d578063a2af9226146113da578063abed0d94146113be578063ac8f50aa14611366578063ad3cb1cc146112e7578063b048a4bb146112c4578063b5d5b5fa14611236578063b759936b14611218578063bd594dcf146111fa578063be040fb014610ef9578063c2ff12fc14610ec6578063ccf6194414610ea8578063cea9d26f14610e09578063ceaa366d14610deb578063d0f1647014610d61578063d2c8e0e514610cb2578063d2f8253614610c8c578063d4f0014214610b85578063d8020a1814610b67578063d803507214610b21578063dce3dc1f14610af6578063deab8aea14610acd578063dec7fa3b14610aaf578063e306744914610a91578063e4412f6814610a73578063ece7126614610a50578063edca914c14610485578063f2fde38b146104585763f521a5a714610390575061000e565b34610455576040366003190112610455576103a9612d7d565b602435906103b5613422565b6001600160a01b031690811561044357604060008051602061477983398151915291838552600e602052600282862001908082549255846103f58361348b565b506103ff8361348b565b50818103610419575b50505082519182526020820152a280f35b6000805160206147598339815191529161043885885193849384612e03565b0390a2843880610408565b60405163e6c4247b60e01b8152600490fd5b80fd5b503461045557602036600319011261045557610482610475612d7d565b61047d613422565b6133c0565b80f35b50806003193601126104555761049961353a565b60ff601e5416610a3e576104ac33613d1a565b68056bc75e2d6310000034148015610a2c575b8015610a1a575b8015610a08575b156109f657338152600f6020526040812060038101805460ff161561093d576104f7601a54612f47565b80601a55825534600183015542600283015560ff198154169055338252600e60205281600360408220015561052b34612f86565b338352600e60205260046040842001555b600a6001820154338452600e60205260408420906009820180548211610935575b5050018054341161092c575b508054825260146020908152604080842080546001600160a01b031916339081179091558354908552600e9092528320546001600160a01b031680151580610918575b156108f5576105c960646105c260055434612f9c565b0482613f0b565b91826108c1575b5050505b338252600e6020526040822054829182916001600160a01b031690829034801590800460011417156108ad579394915b6001600160a01b038116801515806108a3575b80610899575b15610717578452600e6020526040842060ff600582015416156106f8575060018060a01b03811690818552600e6020528361065e600160408820015461345b565b11610698575b508352600e60205260408320546001600160a01b03169161068e9061068890612f47565b95612f47565b935b939491610604565b6106a6906064340490614044565b80156106645791826106b791612f79565b91338552600f6020526040852054604051918252856020830152600360408301526060820152816000805160206146f983398151915260803393a338610664565b5492956001600160a01b03909316926107119150612f47565b93610690565b848661073185606461072b60065434612f9c565b04612f6c565b80610884575b5060018060a01b036001541661075e600791606461075760075434612f9c565b0490613659565b610775606461076f60085434612f9c565b046144a0565b61079160018060a01b0360035416606461075760095434612f9c565b6107ad60018060a01b03600254166064610757600a5434612f9c565b336000908152600e6020526040812054909234151592916001600160a01b03165b6001600160a01b03168015158061087a575b1561082757600052600e60205261080c83604060002090610812575b546001600160a01b031694612f47565b936107ce565b838101610820348254612f79565b90556107fc565b858261083233613577565b546040519034825260208201527f2a91574e12ad96234e84923e146b0946ecfb871cd8d5534dc1fdcbe87a7c01b360403392a260016000805160206148598339815191525580f35b50601e85106107e0565b61089090601d54612f79565b601d5582610737565b506014871061061d565b50600f8410610617565b634e487b7160e01b84526011600452602484fd5b6040519283528460208401526002604084015260608301526000805160206146f983398151915260803393a33880806105d0565b505061091360018060a01b0360015416606461075760055434612f9c565b6105d4565b5080845260ff6005604086200154166105ac565b34905538610569565b55388061055d565b6001820180548061099a5750610954601a54612f47565b80601a55835534905542600283015560ff198154169055338252600e60205281600360408220015561098534612f86565b338352600e602052600460408420015561053c565b6109a79192503490612f79565b9055338252600e60205260ff6005604084200154166109eb575b6109ca34612f86565b338352600e6020526109e460046040852001918254612f79565b905561053c565b4260028201556109c1565b60405163162908e360e11b8152600490fd5b50683635c9adc5dea0000034146104cd565b50681b1ae4d6e2ef50000034146104c6565b50681043561a882930000034146104bf565b60405163ab35696f60e01b8152600490fd5b503461045557602036600319011261045557610a6a613422565b600435600b5580f35b50346104555780600319360112610455576020600854604051908152f35b50346104555780600319360112610455576020601c54604051908152f35b50346104555780600319360112610455576020600b54604051908152f35b50346104555780600319360112610455576004546040516001600160a01b039091168152602090f35b5034610455576020366003190112610455576040610b1560043561348b565b82519182526020820152f35b503461045557604036600319011261045557610b3b612d7d565b610b43613422565b6001600160a01b03168015610443578152600e602052602435600160408320015580f35b50346104555780600319360112610455576020600754604051908152f35b503461045557608036600319011261045557610b9f612d7d565b60243590610bab612da9565b9060643592610bb8613422565b80610c54575b505081610bc9578280f35b81602091610bdc610c0794601954612f6c565b60195560018060a01b03855416908560405180968195829463a9059cbb60e01b845260048401612ecd565b03925af18015610c4957610c1a57808280f35b610c3b9060203d602011610c42575b610c338183612e5d565b8101906131c9565b5038808280f35b503d610c29565b6040513d84823e3d90fd5b804710610c7a57610c7391610c6b82601854612f6c565b601855613659565b3880610bbe565b60405163dbc3a71f60e01b8152600490fd5b5034610455578060031936011261045557602060ff60175460081c166040519015158152f35b50346104555760209081600319360112610455576001600160a01b03919082610cd9612d7d565b168152601182526040812090604051808484549182815201908194845285842090845b818110610d4b5750505081610d12910382612e5d565b6040519380850191818652518092526040850193925b828110610d355785850386f35b8351871685529381019392810192600101610d28565b8254891684529287019260019283019201610cfc565b50346104555760c0366003190112610455577f66682b276e4cd1a4e1f68b55b1143766c5332f472eb593cf2a70a25d9d5d991760c060043560a435608435606435604435602435610db0613422565b856005558060065581600755826008558360095584600a55604051958652602086015260408501526060840152608083015260a0820152a180f35b50346104555780600319360112610455576020600954604051908152f35b503461045557606036600319011261045557610e23612d7d565b610e2b612d93565b90610e34613422565b82546001600160a01b039182169190811682146104435782161561044357610e7a602091849360405194858094819363a9059cbb60e01b83526044359060048401612ecd565b03925af18015610c4957610e8c575080f35b610ea49060203d602011610c4257610c338183612e5d565b5080f35b50346104555780600319360112610455576020600554604051908152f35b503461045557602036600319011261045557602090600435815260148252604060018060a01b0391205416604051908152f35b5034610455578060031936011261045557610f1261353a565b60ff8060175460081c16156111e95733825260209160108352604081209281828391845b87548110156110b257866004610f4c838b612ee8565b50015416156110aa576002610f61828a612ee8565b5001546003610f70838b612ee8565b500154906201518091828102928184041490151715611096578991610f9491612f79565b421015610fa7575b506001905b01610f36565b9381929361103f91610fe76005610fdd86610fd7610fd0610fca60019a8e612ee8565b50613691565b8096612f79565b9a612ee8565b5001918254612f79565b9055338852600e875260096040892001548015611085575b61100e606491600b5490612f9c565b048361101a868d612ee8565b5001548181111561107257906110338161103993612f6c565b92612f79565b94612f79565b91600461104c828b612ee8565b5001805460ff1916905561106a611063828b612ee8565b5054613789565b905087610f9c565b905061107d91612f79565b938790612f79565b50600f875260408820830154610fff565b634e487b7160e01b88526011600452602488fd5b600190610fa1565b5090929181159081806111e1575b6111cf5784600e956111ba575b5080611131575b5015611121575b506110e533613577565b3383525260408120600460038201549101541115611113575b60016000805160206148598339815191525580f35b61111c336138b4565b6110fe565b61112b9033613659565b836110db565b33865284845261114e604087206003600482015491015490612f6c565b808211611194575b5080156110d45761118e9033875285855260036040882001611179828254612f79565b9055338752600f855260408720549033613b2f565b856110d4565b9060405190815281858201526000805160206147b983398151915260403392a286611156565b6111c690601854612f79565b601855866110cd565b6040516304c4857b60e51b8152600490fd5b5080156110c0565b6040516282b42960e81b8152600490fd5b50346104555780600319360112610455576020600654604051908152f35b50346104555780600319360112610455576020601d54604051908152f35b503461045557604036600319011261045557611250612d7d565b6001600160a01b03168152601060205260408120805460243592908310156104555760c061127e8484612ee8565b508054906001810154906002810154600382015490600560ff600485015416930154936040519586526020860152604085015260608401521515608083015260a0820152f35b5034610455578060031936011261045557602060ff601754166040519015158152f35b503461045557806003193601126104555760405161130481612e19565b60058152602091640352e302e360dc1b602083015260405192839160208352835191826020850152815b83811061134f57505060408094508284010152601f80199101168101030190f35b80860182015187820160400152869450810161132e565b50346104555761137536612e9b565b90825260136020526040822080548210156113ba576113949250612eb1565b5080546001909101546040519182916113b6916001600160a01b031683612ecd565b0390f35b8280fd5b5034610455578060031936011261045557602060405160018152f35b5034610455576040366003190112610455576104826113f7612d7d565b6113ff612d93565b90611408613422565b613223565b503461045557602036600319011261045557611427613422565b60043560165580f35b50346104555760403660031901126104555761144a612d7d565b60243590611456613422565b814710610c7a5760208161148b847f288155da11d775f8595652c04f862708561d601d9fd3f04f7aed5f8311296e2494613659565b6040519384526001600160a01b031692a280f35b50346104555780600319360112610455576020600d54604051908152f35b5034610455577f4e9dd03193a0c81552fb8e6d32280f0d7e0ce8087241dc3d17ef3d193ee231d760406114ef36612e9b565b6114f7613422565b81600c5580600d5582519182526020820152a180f35b5034610455578060031936011261045557600080516020614739833981519152546040516001600160a01b039091168152602090f35b5034610455578060031936011261045557602060405160038152f35b50346104555780600319360112610455576003546040516001600160a01b039091168152602090f35b5034610455578060031936011261045557602060405160048152f35b5034610455576020366003190112610455576080906040906001600160a01b036115cc612d7d565b168152600f6020522080549060018101549060ff6003600283015492015416916040519384526020840152604083015215156060820152f35b50806003193601126104555761161961353a565b60ff601e5416610a3e5734156109f657601854683635c9adc5dea00000808210908115611863575b506117fc57601954906116676116578334612f9c565b6116613484612f79565b90613203565b612710803402903482040361184f57611683836103e892613203565b116109f6576064611696600c5483612f9c565b04916116a28383612f6c565b85546040516370a0823160e01b815230600482015291956020946001600160a01b03949193928516928681602481875afa80156118445782918b9161180e575b50106117fc5788936116f8611700933490612f79565b601855612f6c565b601955803b156117f857818091602460405180948193630852cd8d60e31b83528a60048401525af18015610c49576117e0575b5054169181604051809463a9059cbb60e01b82528188816117588a3360048401612ecd565b03925af19182156117d5577f36864aeefce16bc4aaceeb6b0cdfb2ad1455a8cb4ccb0db148a2bc6e7166f97c9361179f936117b7575b505060405191829133953484612e03565b0390a260016000805160206148598339815191525580f35b816117cd92903d10610c4257610c338183612e5d565b50388061178e565b6040513d87823e3d90fd5b6117e990612e4a565b6117f4578438611733565b8480fd5b5080fd5b6040516343c7ad8160e11b8152600490fd5b809250888092503d831161183d575b6118278183612e5d565b8101031261183857819051386116e2565b600080fd5b503d61181d565b6040513d8c823e3d90fd5b634e487b7160e01b85526011600452602485fd5b90506019541038611641565b503461045557608036600319011261045557611889612d7d565b611891612d93565b9061189a612da9565b916118a3612dbf565b906118ac613422565b6001600160a01b03928316938415801561191d575b8015611913575b8015611909575b6104435783809260018060a01b03199687600154161760015516856002541617600255168360035416176003551690600454161760045580f35b50838316156118cf565b50838116156118c8565b50838216156118c1565b5034610455578060031936011261045557601c546201518081018091116119f0574210611a045760195480156109f6578080046001036119f057606481049081156109f6578161197691612f6c565b601955815482906001600160a01b0316803b156117f857818091602460405180948193630852cd8d60e31b83528860048401525af18015610c49576119dc575b506000805160206147f983398151915260408342601c558151908482526020820152a180f35b6119e590612e4a565b6117f85781386119b6565b634e487b7160e01b82526011600452602482fd5b604051636f47a98b60e11b8152600490fd5b503461045557611a2536612e9b565b90825260126020526040822080548210156113ba576113949250612eb1565b50346104555780600319360112610455576020601854604051908152f35b50346104555780600319360112610455576001546040516001600160a01b039091168152602090f35b50346104555780600319360112610455576020601b54604051908152f35b5034610455578060031936011261045557611ac2613422565b60008051602061473983398151915280546001600160a01b031981169091556000906001600160a01b03166000805160206148198339815191528280a380f35b50346104555780600319360112610455576020601654604051908152f35b50346104555780600319360112610455576020601a54604051908152f35b50346104555780600319360112610455577f00000000000000000000000000000000000000000000000000000000000000006001600160a01b03163003611b975760206040516000805160206147998339815191528152f35b60405163703e46dd60e11b8152600490fd5b503461045557602036600319011261045557600435611bc661353a565b60ff601e5416610a3e5780156109f657683635c9adc5dea000008060185410908115611d78575b506117fc5781546040516323b872dd60e01b81526001600160a01b039160209082908416818781611c23893033600485016131e1565b03925af18015611d6d57611d4e575b506064611c41600d5484612f9c565b04611c4c8184612f6c565b91612710808402908482041484151715611d3a57611c706103e89160195490613203565b116109f6578490815416803b156117f8578190602460405180948193630852cd8d60e31b83528760048401525af180156117d557611d27575b5060185491611cb88382612f9c565b611cc9601954916116618484612f79565b918247106117fc577f223c8ad0806f634524940a8595f819c5cfc7b1f4f4f45791269301df0a7e61d594611d018492611d0994612f79565b601955612f6c565b601855611d168133613659565b61179f604051928392339684612e03565b611d3390949194612e4a565b9238611ca9565b634e487b7160e01b86526011600452602486fd5b611d669060203d602011610c4257610c338183612e5d565b5038611c32565b6040513d86823e3d90fd5b90506019541038611bed565b50602036600319011261045557600435611d9c613422565b34611e5f575b80611dc9575b60406000805160206146d9833981519152918151903482526020820152a180f35b81546040516323b872dd60e01b8152919060209083906001600160a01b0316818681611dfa873033600485016131e1565b03925af1908115611e54576000805160206146d983398151915292604092611e35575b50611e2a81601954612f79565b601955915050611da8565b611e4d9060203d602011610c4257610c338183612e5d565b5038611e1d565b6040513d85823e3d90fd5b611e6b34601854612f79565b601855611da2565b5034610455578060031936011261045557611e8c613422565b600160ff19601e541617601e557f4cb3183d0bf66f9634b15cfc3539fdddc96c2c9324848af89b56586a6739fec48180a180f35b50604036600319011261045557611ed5612d7d565b60249182356001600160401b0381116117f857366023820112156117f857806004013592611f0284612e80565b611f0f6040519182612e5d565b84815260209485820193368883830101116120a457818692898993018737830101526001600160a01b037f000000000000000000000000000000000000000000000000000000000000000081163081149081156120af575b50611b9757611f74613422565b6040516352d1902d60e01b81529083169580826004818a5afa918291879361207b575b5050611fb557604051634c9c8ce360e01b8152600481018790528790fd5b859087600080516020614799833981519152918281036120665750843b15612050575080546001600160a01b031916821790556040518592917fbc7cd75a20ee27fd9adebab32041f755214dbc6bffa90cc0225b39da2e5c2d3b8480a28151156120335750610ea49382915190845af461202d613629565b91614675565b935050505034612041575080f35b63b398979f60e01b8152600490fd5b604051634c9c8ce360e01b815260048101849052fd5b60405190632a87526960e21b82526004820152fd5b9080929350813d83116120a8575b6120938183612e5d565b810103126120a45751903880611f97565b8580fd5b503d612089565b9050816000805160206147998339815191525416141538611f67565b50346104555780600319360112610455576120e4613422565b60ff19601e5416601e557f15de7ad89d29fd1c6d2e6b1e878453569b4080edf34e0105faaa3bd52f0185308180a180f35b50346104555780600319360112610455576020604051620151808152f35b50346104555780600319360112610455576002546040516001600160a01b039091168152602090f35b503461045557602036600319011261045557602090600435815260158252604060018060a01b0391205416604051908152f35b50346104555780600319360112610455576121a861353a565b6110fe612faf565b506020366003190112610455576121c561353a565b60ff601e5416610a3e57338152600f6020526040812060018101549081156126e9576003015460ff166126d75760076004351480156126cb575b80156126bf575b156126ad5734156109f657338252600e602052600a604083200180549182156126a0575b50506096810290808204609614901517156119f0576064900434036109f657612254601b54612f47565b601b8190553382526010602052604080832090519160c083016001600160401b0381118482101761268c5760405282523460208301524260408301526004356060830152600160808301528260a0830152805490600160401b82101561267857906122c491600182018155612ee8565b9190916126645760a08160059251845560208101516001850155604081015160028501556060810151600385015561231160808201511515600486019060ff801983541691151516179055565b0151910155601b54815260156020526040812080546001600160a01b0319163390811790915561234090613577565b601b54906040517fa8a1b9e33e503eed12bf7e7c8c01c7f3b60217a496bddd0f5db351dd8c056c1c339180612379866004353484612e03565b0390a2338152600e6020526040812054819081906001600160a01b03165b6001600160a01b03811615158061265a575b15612650576001600160a01b0381168452600e60205260408420600581015460ff161561263b57506001600160a01b0381168452600f60205260408420600181015490811590811561262c575b50612607576001600160a01b0382168552600e602052604085206002015461241d9061348b565b9190508482116124ff575b50602d111561245c576001600160a01b039081168452600e6020526040842054169061245390612f47565b915b9190612397565b50505090505b338152600e602052600660408220018181549182612491575b5060016000805160206148598339815191525580f35b5560185481811015806124f5575b6124ab575b829061247b565b816124b591612f6c565b6018556124c28133613659565b6040519081527f3437b9ea7fa19c6d233dd70cc787a70fab87cee64d8ba4571512cc84402748f960203392a238806124a4565b508147101561249f565b612521906125108396606494612f6c565b9034908034116125ff575b50612f9c565b048585526013602052604085206040519061253b82612e19565b6001600160a01b038416825260208201839052805490600160401b8210156125eb579061256d91600182018155612eb1565b9190916125d757805182546001600160a01b0319166001600160a01b03918216178355602091820151600193909301929092556040519283529083169187917f7c6505ab8279235ad21ebf427336cc8d97c017b4aa1f10ffdff11d3261e4934e91a382602d612428565b634e487b7160e01b87526004879052602487fd5b634e487b7160e01b88526041600452602488fd5b90503861251b565b5050600e60205260408320546001600160a01b03169061262690612f47565b91612455565b60ff91506003015416386123f6565b546001600160a01b0316916126269150612f47565b5050509050612462565b50601482106123a9565b634e487b7160e01b83526004839052602483fd5b634e487b7160e01b84526041600452602484fd5b634e487b7160e01b85526041600452602485fd5b809192509155388061222a565b604051634dc7f5ff60e11b8152600490fd5b50601e60043514612206565b50600f600435146121ff565b604051631ecb2c4f60e31b8152600490fd5b604051634065aaf160e11b8152600490fd5b50346104555780600319360112610455576020600c54604051908152f35b5034610455578060031936011261045557602060ff601e54166040519015158152f35b5034610455578060031936011261045557601e5460405160089190911c6001600160a01b03168152602090f35b5034610455576020366003190112610455576113b6906002906040906001600160a01b03612795612d7d565b168152600e6020522001546127a98161348b565b92909160405193849384612e03565b50346104555780600319360112610455576020601954604051908152f35b503461045557602036600319011261045557610160906001600160a01b039060409082612801612d7d565b168152600e60205220908154169060018101549060028101546003820154600483015460ff600585015416600685015491600786015493600887015495600a6009890154980154986040519a8b5260208b015260408a015260608901526080880152151560a087015260c086015260e0850152610100840152610120830152610140820152f35b50346104555760203660031901126104555760206128a760043561345b565b604051908152f35b5034610455578060031936011261045557546040516001600160a01b039091168152602090f35b50346104555760a0366003190112610455576128f0612d7d565b6128f8612d93565b90612901612da9565b612909612dbf565b916084356001600160a01b038181169291839003612acc576000805160206148798339815191529485549660ff8860401c16159560018060401b03891698891580612ac5575b6001809b149081612abb575b159081612ab2575b50612aa0576001600160401b031981168a1789558492839189612a85575b5061298a613edc565b612992613edc565b61299b336133c0565b6129a3613edc565b6129ab613edc565b6129b3613edc565b8a600080516020614859833981519152558160018060a01b03199716878d5416178c5516858a5416178955168360025416176002551681600354161760035560045416176004556019600555600f6006556005600755600560085560196009556019600a5582600b556032600c556019600d556203f48060165561010161ffff19601754161760175542601c55612a48578280f35b805460ff60401b191690556040519081527fc7f505b2f371ae2175ee4913f4499e1f2633a7b5936321eed1cdaeb6115181d290602090a138808280f35b6001600160481b0319166001600160401b01178a5538612981565b60405163f92ee8a960e01b8152600490fd5b90501538612963565b303b15915061295b565b508761294f565b8680fd5b5034610455578060031936011261045557602090604051908152f35b5034610455578060031936011261045557602060405160028152f35b503461045557604036600319011261045557612b22612d7d565b6001600160a01b039081168252601160205260408220805460243593908410156104555750602092612b5391612dd5565b9190546040519260031b1c168152f35b5034610455576020806003193601126117f857612b7e612d7d565b338352600e808352604084205490926001600160a01b039290918316612cfc578216338114612cea5780156104435733808652600e8352604080872080546001600160a01b0319168417905582875260118085529087209091612be091612f04565b338652600e835283604087205416948487965b1680151580612ce0575b15612cb65780885281855260408820906002820180546001810191828211612ca2579282612c518b96938360008051602061477983398151915260408e8b99612c719b5586825191868352820152a261348b565b50612c5b8261348b565b5090808203612c77575b50505050541697612f47565b96612bf3565b612c966000805160206147598339815191529360405193849384612e03565b0390a238808080612c65565b634e487b7160e01b8c52600487905260248cfd5b8784337fa6dbb5aa28f35437de94d685d66edce5fb4812196b4984b91dfd5a7b38c0fb308380a380f35b50601e8710612bfd565b604051631acade8960e31b8152600490fd5b60405163682a906560e01b8152600490fd5b50346104555780600319360112610455576020600a54604051908152f35b5034610455576040366003190112610455576004358015158091036117f8576024358015158091036113ba57612d60613422565b60ff61ff006017549260081b1692169061ffff1916171760175580f35b600435906001600160a01b038216820361183857565b602435906001600160a01b038216820361183857565b604435906001600160a01b038216820361183857565b606435906001600160a01b038216820361183857565b8054821015612ded5760005260206000200190600090565b634e487b7160e01b600052603260045260246000fd5b6040919493926060820195825260208201520152565b604081019081106001600160401b03821117612e3457604052565b634e487b7160e01b600052604160045260246000fd5b6001600160401b038111612e3457604052565b601f909101601f19168101906001600160401b03821190821017612e3457604052565b6001600160401b038111612e3457601f01601f191660200190565b6040906003190112611838576004359060243590565b8054821015612ded5760005260206000209060011b0190600090565b6001600160a01b039091168152602081019190915260400190565b8054821015612ded576000526006602060002091020190600090565b80549190600160401b831015612e345782612f27916001612f4595018155612dd5565b90919060018060a01b038084549260031b9316831b921b1916179055565b565b6000198114612f565760010190565b634e487b7160e01b600052601160045260246000fd5b91908203918211612f5657565b91908201809211612f5657565b90600382029180830460031490151715612f5657565b81810292918115918404141715612f5657565b6000338152602090600f82526040918282209060019160018101541580156131bb575b6131aa573384526010825284842084939084825b6130a9575b505050821561309857338452600e825261300b8360038787200154612f79565b338552600e83528585206004810154809211613080575b5050821561307257600e9261305291338652848452600387872001613048838254612f79565b9055549033613b2f565b338352522060046003820154910154111561306957565b612f45336138b4565b5050505050612f45336138b4565b6130909294506003015490612f6c565b913880613022565b8451630fec21fd60e21b8152600490fd5b81548110156131a5576130bc8183612ee8565b508360ff600480930154161561319b57506130da610fca8385612ee8565b90816130f0575b5050908280925b019091612fe6565b9096876130fc91612f79565b9661310c6005610fdd8587612ee8565b9055600261311a8385612ee8565b50015460036131298486612ee8565b5001549062015180918281029281840414901517156131885791613151869594928694612f79565b421015613161575b5091926130e1565b61316b8285612ee8565b5001805460ff191690556131826110638285612ee8565b38613159565b634e487b7160e01b8a526011835260248afd5b92918391506130e8565b612feb565b8451634065aaf160e11b8152600490fd5b5060ff600382015416612fd2565b90816020910312611838575180151581036118385790565b6001600160a01b03918216815291166020820152604081019190915260600190565b811561320d570490565b634e487b7160e01b600052601260045260246000fd5b906001600160a01b0380831691821580156133b6575b61044357811691828114612cea576000818152600e6020526040812092835493818516948686146133ac576001600160a01b03191686179055836132a4575b506132a084956000805160206147d98339815191529394958352601160205260408320612f04565b80a4565b94838252601195601160205260408320835b81548082101561338b578390876132cd8486612dd5565b939054600394851b1c16146132e65750506001016132b6565b60009a929195969798999a9493941992838201918211613379575090612f27846133136133219488612dd5565b905490891b1c169186612dd5565b8254801561336557916000805160206147d9833981519152969593916132a09593019261334e8484612dd5565b81939154921b1b19169055555b9594939250613278565b634e487b7160e01b87526031600452602487fd5b634e487b7160e01b8952600452602488fd5b505050506000805160206147d983398151915292939495506132a09061335b565b5050505050505050565b5081811615613239565b6001600160a01b039081169081156134095760008051602061473983398151915280546001600160a01b03198116841790915516600080516020614819833981519152600080a3565b604051631e4fbdf760e01b815260006004820152602490fd5b600080516020614739833981519152546001600160a01b0316330361344357565b60405163118cdaa760e01b8152336004820152602490fd5b600381101561348557600281101561347f576001111561347a57600090565b600590565b50600a90565b50600f90565b620186a0811015613531576175308110156135285761271081101561351f57610bb8811015613516576103e881101561350d5761012c8110156135045760648110156134fb57601e8110156134f257600a11156134ea57600090600090565b600190600590565b50600290600a90565b50600390600f90565b50600490601490565b50600590601990565b50600690601e90565b50600790602390565b50600890602890565b50600990602d90565b60008051602061485983398151915260028154146135585760029055565b604051633ee5aeb560e01b8152600490fd5b8015612f56576000190190565b60018060a01b0380600092168252600f6020526040822090600182015415159182613619575b50600e602052604083206005810160ff81541615158415151461361257805460ff191660ff85151516179055541691821561360d57600192604092156135f4578152600e60205220016135f08154612f47565b9055565b81522001805480613604575b5050565b6135f09061356a565b505050565b5050505050565b6003015460ff161591503861359d565b3d15613654573d9061363a82612e80565b916136486040519384612e5d565b82523d6000602084013e565b606090565b811561360057814710610c7a57600080809381935af1613677613629565b501561367f57565b604051633d2cec6f60e21b8152600490fd5b600381015461369f8161464f565b90620151806136b2600285015442612f6c565b0490808211613707575b5080156136ff576136e1633b9aca00916136dc6005946001870154612f9c565b612f9c565b049101548082116136f3575050600090565b6136fc91612f6c565b90565b505050600090565b9050386136bc565b8051821015612ded5760209160051b010190565b8054906000908181558261373657505050565b6001906001600160ff1b0384168403613775578252602082209260011b8301925b8381106137645750505050565b808360029255838382015501613757565b634e487b7160e01b83526011600452602483fd5b600090808252602090601382526040916040842094855460018060401b0381116138a057604051966137c0848360051b0189612e5d565b8188528652828620869084808a015b84841061386c575050505050845b86518110156138545760019087857fae629b396150638d6eb6de457cbffe5d618a10c8cc199a94976bed2b16ecd993866001600160a01b036138448661383e83613827838a61370f565b51511685613835848b61370f565b51015190614139565b9661370f565b515116938a51908152a3016137dd565b50945060409250601390612f45949283525220613723565b6001916002918a5161387d81612e19565b848060a01b038654168152848601548382015281520192019201919085906137cf565b634e487b7160e01b86526041600452602486fd5b60018060a01b03808216916000838152602092600f8452604092838320926003840190815460ff9460ff8216156138f2575b50505050505050505050565b600160ff199283168117909455601089528783208a9693958695948694939285875b613a3d575b5050509886937ff3a670cd3af7d64b488926880889d08a8585a138ff455227af6737339a1ec2629693829a9998937f920bb94eb3842a728db98228c375ff6b00c5bc5a54fac6736155517a0a20a61a9d9c85859996151580613a33575b613a23575b505085613a04575b898352600e8d52838320600581018054938416905554169060ff16806139fb575b806139ea575b6139d1575b5050519283525087820152a2549051908152a2388080808080808080806138e6565b815220016139df815461356a565b9055388381806139af565b5080825283838320015415156139aa565b508015156139a4565b898352600e8d52600684842001613a1c878254612f79565b9055613983565b613a2c91613659565b388761397b565b5080471015613976565b9091929394959697998254821015613b235750613a5a8183612ee8565b5098836004809b01541615613b165788613a748385612ee8565b500154808a1b9080820460021490151715613b035791613ad48a9594939261012c613aa38895600b5490612f9c565b049084613ab08588612ee8565b500154828110613af75790613ac883613ace93612f6c565b90612f79565b9d612f79565b9a613adf8285612ee8565b50018881541690555b018e9a99989796959493613914565b8c9250613ace91612f79565b634e487b7160e01b895260118b52602489fd5b9998509087809392613ae8565b99979695949392613919565b9092918360011c906000918047101580613d11575b613cff575b613b5161441e565b670de0b6b3a764000091828102928184041490151715612f5657613b7491613203565b60008054604080516370a0823160e01b8152306004820152989096929360209391926001600160a01b039291908316858c602481845afa9b8c15613cf557879c613cc6575b50818a9b9c9a98999a101580613cbd575b613c1d575b5050926000805160206147198339815191529795926000805160206148398339815191526080989693600096169a8b9281519081528785820152a282519586528501528301526060820152a2565b94818792949596848399613c46969b5180978195829463a9059cbb60e01b845260048401612ecd565b03925af1908115613cb25750936000805160206148398339815191528a946000805160206147198339815191529a989460809a9894600098613c95575b50979950939295508194979950613bcf565b613cab90863d8811610c4257610c338183612e5d565b5038613c83565b8a51903d90823e3d90fd5b50811515613bca565b9b50858c813d8311613cee575b613cdd8183612e5d565b81010312612acc579a519a81613bb9565b503d613cd3565b8a513d89823e3d90fd5b9150613d0b8284613659565b81613b49565b50801515613b44565b6001600160a01b039081166000818152600f60209081526040808320600181810180549697909693959094929184158015613ece575b613e8357601084528682208054839291835b828110613e8e57505050506133ac576002820196613d84885460165490612f79565b421115613e8357600383837f57025f0027038907eda728b59164fb63d06048f42e618a35267e6a12e49b2e469a8a9654998d8352600e895260ff6005898520928354169201541680613e7a575b80613e68575b613e4e575b508c8252600e88528187812095816004600589019860ff19998a81541690558289820155015581855555550190815416905584613e1f575b5051928352820152a2565b84815260128352613e31828220613723565b848152601483522080546001600160a01b03191690558338613e14565b8252600187832001613e60815461356a565b905538613ddc565b50808352600188842001541515613dd7565b50801515613dd1565b505050505050505050565b60ff6004613e9c8385612ee8565b50015416613eac575b8301613d62565b93613ec6849182613ebd8886612ee8565b50015490612f79565b949050613ea5565b5060ff600384015416613d50565b60ff6000805160206148798339815191525460401c1615613ef957565b604051631afcd79f60e31b8152600490fd5b60018060a01b0381166000818152600e60205260409182822092600f60205280832060ff60058601541615908115614035575b8115614028575b5061401f57600484019360038554910193613f6285548093612f6c565b88818111613ff6575b50508715613feb57874710613fc4575090613f958760008051602061483983398151915293612f79565b8455613fa18787613659565b805187815260026020820152a25490541115613fbb575090565b6136fc906138b4565b96929550506000805160206147b9833981519152935080925051908152846020820152a290565b965050505050505090565b819950846000805160206147b98339815191529187939b82519182526020820152a23880613f6b565b50509250505090565b6001915001541538613f45565b600381015460ff169150613f3e565b60018060a01b0381166000818152600e60205260409182822092600f60205280832060ff6005860154161590811561412a575b811561411d575b5061401f5760048401936003855491019361409b85548093612f6c565b888181116140f4575b50508715613feb57874710613fc45750906140ce8760008051602061483983398151915293612f79565b84556140da8787613659565b805187815260036020820152a25490541115613fbb575090565b819950846000805160206147b98339815191529187939b82519182526020820152a238806140a4565b600191500154153861407e565b600381015460ff169150614077565b60018060a01b0380821690600093828552602092600e8452604080872093600f865281882060ff6005870154161590811561440f575b8115614402575b506143d05761419060049560038782015491015490612f6c565b848181116143da575b505083156143d057828852600e86528188209360011c916141b861441e565b91670de0b6b3a7640000908185029a85159b86810484148d17156143bd57856141e091613203565b918196829d15806143b3575b61439f575b508215158061432b575b6142b8575b50505061421890614211848c612f9c565b0484612f79565b988961422b575b50505050505050505090565b60038601978a89549061423d91612f79565b8099558583518c8152848a8483015260008051602061483983398151915291a2825194855284015282015242606082015260807fe83062c7bae5146a0afc41b3a8342f225ed2581a8e234e0ba69d9ff8c53a48d691a2015411156142a9575b808080808080808061421f565b6142b2906138b4565b3861429c565b826142e293949d508b918354168d848d89519788958694859363a9059cbb60e01b85528401612ecd565b03925af19081156143205750906142189291614303575b5099903880614200565b614319908a3d8c11610c4257610c338183612e5d565b50386142f9565b8451903d90823e3d90fd5b50808254168b8b60248851809481936370a0823160e01b835230908301525afa908115614395579084918491614364575b5010156141fb565b8092508d8092503d831161438e575b61437d8183612e5d565b810103126113ba578390513861435c565b503d614373565b86513d85823e3d90fd5b9096506143ac818d613659565b95386141f1565b50804710156141ec565b634e487b7160e01b825260118a52602482fd5b5050505050505090565b819550836000805160206147b98339815191529186939782519182528a820152a23880614199565b6001915001541538614176565b600381015460ff16915061416f565b6019548015801561448c575b61447f5760185490670de0b6b3a764000091828102928184041490151715612f565761445591613203565b67016345785d8a000080821061447a5750678ac7230489e8000080821161447a575090565b905090565b50670de0b6b3a764000090565b50683635c9adc5dea000006018541061442a565b90811561464b57601854683635c9adc5dea0000080821090811561463f575b5061463a57476144cf8483612f79565b1161463a57612710830261270f1984820401612f56576144f2826103e892613203565b1161463a57601954926145126145088583612f9c565b6116618385612f79565b80158015614631575b61462a5760009460018060a01b038654169060409485516370a0823160e01b8152306004820152602081602481875afa908115614620579083918a916145e7575b50106145dd57838893926116f88761457394612f79565b601955803b156117f85781906024865180948193630852cd8d60e31b83528760048401525af180156145d3576000805160206147f98339815191529596506145c4575b5082519182526020820152a1565b6145cd90612e4a565b386145b6565b84513d88823e3d90fd5b5050505050509050565b9150506020813d602011614618575b8161460360209383612e5d565b81010312614614578290513861455c565b8880fd5b3d91506145f6565b87513d8b823e3d90fd5b5050509050565b5084811161451b565b509050565b905060195410386144bf565b9050565b6007811461466d57600f14614666576301312d0090565b62fe502b90565b5062cb735690565b9061469c575080511561468a57602081519101fd5b60405163d6bda27560e01b8152600490fd5b815115806146cf575b6146ad575090565b604051639996b31560e01b81526001600160a01b039091166004820152602490fd5b50803b156146a556fe38f8a0c92f4c5b0b6877f878cb4c0c8d348a47b76d716c8e78f425043df9515b62c4ea4229c396c9b5c33779ec09ed411b29ed8782e48ac358eaa9e8aa58a9b06fcebd0a2ce98b28cb391d6008bbc769378c9a4919628e11639cb575cd320fcc9016d09d72d40fdae2fd8ceac6b6234c7706214fd39c1cd1e609a0528c199300ea8384d3ca7bf5b7510d3faee44a3774406c1fd3ac14fff110a8c98d47a25956a0eea20e678cb42233c1c456c84cedce7ea53fa360bb71bf3b761b7609567770360894a13ba1a3210667c828492db98dca3e2076cc3735a920a3ca505d382bbcb5987aab1afd379f6695f1068869ee8ca6a0d02304c57935a9cc3d3ea2e51e4df8b9fe4d008320e6f048c61e41e9cc56ce351354ad0cb9a868bd3c4bd6928fd50ec3929061cbbbeecb325623e7d5a86c3dae11cb8a22ca45dc0972955657da258be0079c531659141344cd1fd0a4f28419497f9722a3daafe3b4186f6b6457e0f381583145e90b82cc5e529bf4fc4d0e44397174cdf145c4251ac33ef195a4249b779b17422d0df92223018b32b4d1fa46e071723d6817e2486d003becc55f00f0c57e16840df040f15088dc2f81fe391c3923bec73e23a9662efc9c229c6a00a26469706673582212206b44a008e0853a084d24b5dd7ed50a79b38663cc5705c2120c9a5acc5cbed44a64736f6c63430008160033",
  "linkReferences": {},
  "deployedLinkReferences": {}
}