{
  "_format": "hh-sol-artifact-1",
  "contractName": "Test",
  "sourceName": "contracts/Test.sol",
  "abi": [
    {
      "inputs": [],
      "name": "value",
      "outputs": [
        {
          "internalType": "uint256",
          "name": "",
          "type": "uint256"
        }
      ],
      "stateMutability": "view",
      "type": "function"
    }
  ],
  "bytecode": "0x6080604052602a600055348015601457600080fd5b50607d806100236000396000f3fe6080604052348015600f57600080fd5b506004361060285760003560e01c80633fa4f24514602d575b600080fd5b603560005481565b60405190815260200160405180910390f3fea2646970667358221220e19bfd886fa9c645f7ac7dc82bea97f1fc8f58bb624ae1c3cfc4296da9580b4364736f6c63430008160033",
  "linkReferences": {},
  "deployedLinkReferences": {}
}