{
  "_format": "hh-sol-artifact-1",
  "contractName": "Test",
  "sourceName": "contracts/Test.sol",
  "abi": [
    {
      "inputs": [],
      "name": "value",
      "outputs": [
        {
          "internalType": "uint256",
          "name": "",
          "type": "uint256"
        }
      ],
      "stateMutability": "view",
      "type": "function"
    }
  ],
  "bytecode": "0x60808060405234601957602a6000556078908161001f8239f35b600080fdfe6080806040526004361015601257600080fd5b600090813560e01c633fa4f24514602857600080fd5b34603e5781600319360112603e57602091548152f35b5080fdfea2646970667358221220d94fc3abaa05de285057cb13a4c3df0e9a68c32e935d914b07db6d7db4ca358964736f6c63430008160033",
  "linkReferences": {},
  "deployedLinkReferences": {}
}